{
	"Ethreum/TokenHolderUpgradeable.sol": {
		"TokenHolderUpgradeable": {
			"abi": [
				{
					"anonymous": false,
					"inputs": [
						{
							"indexed": false,
							"internalType": "uint8",
							"name": "version",
							"type": "uint8"
						}
					],
					"name": "Initialized",
					"type": "event"
				},
				{
					"inputs": [
						{
							"internalType": "address",
							"name": "token",
							"type": "address"
						},
						{
							"internalType": "address",
							"name": "from",
							"type": "address"
						},
						{
							"internalType": "address",
							"name": "to",
							"type": "address"
						},
						{
							"internalType": "uint256",
							"name": "tokenId",
							"type": "uint256"
						}
					],
					"name": "adminSendERC721Token",
					"outputs": [],
					"stateMutability": "nonpayable",
					"type": "function"
				},
				{
					"inputs": [
						{
							"internalType": "address",
							"name": "token",
							"type": "address"
						},
						{
							"internalType": "address",
							"name": "spender",
							"type": "address"
						},
						{
							"internalType": "uint256",
							"name": "amount",
							"type": "uint256"
						}
					],
					"name": "adminSetApprovalERC20",
					"outputs": [],
					"stateMutability": "nonpayable",
					"type": "function"
				},
				{
					"inputs": [
						{
							"internalType": "address",
							"name": "token",
							"type": "address"
						},
						{
							"internalType": "address",
							"name": "operator",
							"type": "address"
						},
						{
							"internalType": "bool",
							"name": "_approved",
							"type": "bool"
						}
					],
					"name": "adminSetApprovalERC721ForAll",
					"outputs": [],
					"stateMutability": "nonpayable",
					"type": "function"
				},
				{
					"inputs": [
						{
							"internalType": "address",
							"name": "token",
							"type": "address"
						},
						{
							"internalType": "address",
							"name": "from",
							"type": "address"
						},
						{
							"internalType": "address",
							"name": "to",
							"type": "address"
						},
						{
							"internalType": "uint256",
							"name": "amount",
							"type": "uint256"
						}
					],
					"name": "adminTransferERC20Token",
					"outputs": [],
					"stateMutability": "nonpayable",
					"type": "function"
				},
				{
					"inputs": [
						{
							"internalType": "address",
							"name": "",
							"type": "address"
						},
						{
							"internalType": "address",
							"name": "",
							"type": "address"
						},
						{
							"internalType": "uint256",
							"name": "",
							"type": "uint256"
						},
						{
							"internalType": "bytes",
							"name": "",
							"type": "bytes"
						}
					],
					"name": "onERC721Received",
					"outputs": [
						{
							"internalType": "bytes4",
							"name": "",
							"type": "bytes4"
						}
					],
					"stateMutability": "nonpayable",
					"type": "function"
				}
			],
			"devdoc": {
				"kind": "dev",
				"methods": {
					"onERC721Received(address,address,uint256,bytes)": {
						"details": "See {IERC721Receiver-onERC721Received}. Always returns `IERC721Receiver.onERC721Received.selector`."
					}
				},
				"stateVariables": {
					"__gap": {
						"details": "This empty reserved space is put in place to allow future versions to add new variables without shifting down storage in the inheritance chain. See https://docs.openzeppelin.com/contracts/4.x/upgradeable#storage_gaps"
					}
				},
				"version": 1
			},
			"evm": {
				"assembly": "    /* \"Ethreum/TokenHolderUpgradeable.sol\":198:2137  contract TokenHolderUpgradeable is Initializable, IERC721ReceiverUpgradeable{... */\n  mstore(0x40, 0x80)\n  callvalue\n  dup1\n  iszero\n  tag_1\n  jumpi\n  0x00\n  dup1\n  revert\ntag_1:\n  pop\n  dataSize(sub_0)\n  dup1\n  dataOffset(sub_0)\n  0x00\n  codecopy\n  0x00\n  return\nstop\n\nsub_0: assembly {\n        /* \"Ethreum/TokenHolderUpgradeable.sol\":198:2137  contract TokenHolderUpgradeable is Initializable, IERC721ReceiverUpgradeable{... */\n      mstore(0x40, 0x80)\n      callvalue\n      dup1\n      iszero\n      tag_1\n      jumpi\n      0x00\n      dup1\n      revert\n    tag_1:\n      pop\n      jumpi(tag_2, lt(calldatasize, 0x04))\n      shr(0xe0, calldataload(0x00))\n      dup1\n      0x150b7a02\n      eq\n      tag_3\n      jumpi\n      dup1\n      0x167d576c\n      eq\n      tag_4\n      jumpi\n      dup1\n      0x27b59ab9\n      eq\n      tag_5\n      jumpi\n      dup1\n      0x5806f47a\n      eq\n      tag_6\n      jumpi\n      dup1\n      0x58c0906c\n      eq\n      tag_7\n      jumpi\n    tag_2:\n      0x00\n      dup1\n      revert\n        /* \"Ethreum/TokenHolderUpgradeable.sol\":582:789  function onERC721Received(... */\n    tag_3:\n      tag_8\n      0x04\n      dup1\n      calldatasize\n      sub\n      dup2\n      add\n      swap1\n      tag_9\n      swap2\n      swap1\n      tag_10\n      jump\t// in\n    tag_9:\n      tag_11\n      jump\t// in\n    tag_8:\n      mload(0x40)\n      tag_12\n      swap2\n      swap1\n      tag_13\n      jump\t// in\n    tag_12:\n      mload(0x40)\n      dup1\n      swap2\n      sub\n      swap1\n      return\n        /* \"Ethreum/TokenHolderUpgradeable.sol\":1114:1327  function adminSetApprovalERC721ForAll(... */\n    tag_4:\n      tag_14\n      0x04\n      dup1\n      calldatasize\n      sub\n      dup2\n      add\n      swap1\n      tag_15\n      swap2\n      swap1\n      tag_16\n      jump\t// in\n    tag_15:\n      tag_17\n      jump\t// in\n    tag_14:\n      stop\n        /* \"Ethreum/TokenHolderUpgradeable.sol\":1424:1639  function adminTransferERC20Token(... */\n    tag_5:\n      tag_18\n      0x04\n      dup1\n      calldatasize\n      sub\n      dup2\n      add\n      swap1\n      tag_19\n      swap2\n      swap1\n      tag_20\n      jump\t// in\n    tag_19:\n      tag_21\n      jump\t// in\n    tag_18:\n      stop\n        /* \"Ethreum/TokenHolderUpgradeable.sol\":887:1106  function adminSendERC721Token(... */\n    tag_6:\n      tag_22\n      0x04\n      dup1\n      calldatasize\n      sub\n      dup2\n      add\n      swap1\n      tag_23\n      swap2\n      swap1\n      tag_20\n      jump\t// in\n    tag_23:\n      tag_24\n      jump\t// in\n    tag_22:\n      stop\n        /* \"Ethreum/TokenHolderUpgradeable.sol\":1647:1836  function adminSetApprovalERC20(... */\n    tag_7:\n      tag_25\n      0x04\n      dup1\n      calldatasize\n      sub\n      dup2\n      add\n      swap1\n      tag_26\n      swap2\n      swap1\n      tag_27\n      jump\t// in\n    tag_26:\n      tag_28\n      jump\t// in\n    tag_25:\n      stop\n        /* \"Ethreum/TokenHolderUpgradeable.sol\":582:789  function onERC721Received(... */\n    tag_11:\n        /* \"Ethreum/TokenHolderUpgradeable.sol\":725:731  bytes4 */\n      0x00\n        /* \"Ethreum/TokenHolderUpgradeable.sol\":751:781  this.onERC721Received.selector */\n      shl(0xe0, 0x150b7a02)\n        /* \"Ethreum/TokenHolderUpgradeable.sol\":744:781  return this.onERC721Received.selector */\n      swap1\n      pop\n        /* \"Ethreum/TokenHolderUpgradeable.sol\":582:789  function onERC721Received(... */\n      swap5\n      swap4\n      pop\n      pop\n      pop\n      pop\n      jump\t// out\n        /* \"Ethreum/TokenHolderUpgradeable.sol\":1114:1327  function adminSetApprovalERC721ForAll(... */\n    tag_17:\n        /* \"Ethreum/TokenHolderUpgradeable.sol\":1274:1279  token */\n      dup3\n        /* \"Ethreum/TokenHolderUpgradeable.sol\":1256:1298  ERC721Upgradeable(token).setApprovalForAll */\n      0xffffffffffffffffffffffffffffffffffffffff\n      and\n      0xa22cb465\n        /* \"Ethreum/TokenHolderUpgradeable.sol\":1299:1307  operator */\n      dup4\n        /* \"Ethreum/TokenHolderUpgradeable.sol\":1309:1318  _approved */\n      dup4\n        /* \"Ethreum/TokenHolderUpgradeable.sol\":1256:1319  ERC721Upgradeable(token).setApprovalForAll(operator, _approved) */\n      mload(0x40)\n      dup4\n      0xffffffff\n      and\n      0xe0\n      shl\n      dup2\n      mstore\n      0x04\n      add\n      tag_31\n      swap3\n      swap2\n      swap1\n      tag_32\n      jump\t// in\n    tag_31:\n      0x00\n      mload(0x40)\n      dup1\n      dup4\n      sub\n      dup2\n      0x00\n      dup8\n      dup1\n      extcodesize\n      iszero\n      dup1\n      iszero\n      tag_33\n      jumpi\n      0x00\n      dup1\n      revert\n    tag_33:\n      pop\n      gas\n      call\n      iszero\n      dup1\n      iszero\n      tag_35\n      jumpi\n      returndatasize\n      0x00\n      dup1\n      returndatacopy\n      revert(0x00, returndatasize)\n    tag_35:\n      pop\n      pop\n      pop\n      pop\n        /* \"Ethreum/TokenHolderUpgradeable.sol\":1114:1327  function adminSetApprovalERC721ForAll(... */\n      pop\n      pop\n      pop\n      jump\t// out\n        /* \"Ethreum/TokenHolderUpgradeable.sol\":1424:1639  function adminTransferERC20Token(... */\n    tag_21:\n        /* \"Ethreum/TokenHolderUpgradeable.sol\":1594:1599  token */\n      dup4\n        /* \"Ethreum/TokenHolderUpgradeable.sol\":1577:1613  ERC20Upgradeable(token).transferFrom */\n      0xffffffffffffffffffffffffffffffffffffffff\n      and\n      0x23b872dd\n        /* \"Ethreum/TokenHolderUpgradeable.sol\":1614:1618  from */\n      dup5\n        /* \"Ethreum/TokenHolderUpgradeable.sol\":1620:1622  to */\n      dup5\n        /* \"Ethreum/TokenHolderUpgradeable.sol\":1624:1630  amount */\n      dup5\n        /* \"Ethreum/TokenHolderUpgradeable.sol\":1577:1631  ERC20Upgradeable(token).transferFrom(from, to, amount) */\n      mload(0x40)\n      dup5\n      0xffffffff\n      and\n      0xe0\n      shl\n      dup2\n      mstore\n      0x04\n      add\n      tag_37\n      swap4\n      swap3\n      swap2\n      swap1\n      tag_38\n      jump\t// in\n    tag_37:\n      0x20\n      mload(0x40)\n      dup1\n      dup4\n      sub\n      dup2\n      0x00\n      dup8\n      dup1\n      extcodesize\n      iszero\n      dup1\n      iszero\n      tag_39\n      jumpi\n      0x00\n      dup1\n      revert\n    tag_39:\n      pop\n      gas\n      call\n      iszero\n      dup1\n      iszero\n      tag_41\n      jumpi\n      returndatasize\n      0x00\n      dup1\n      returndatacopy\n      revert(0x00, returndatasize)\n    tag_41:\n      pop\n      pop\n      pop\n      pop\n      mload(0x40)\n      returndatasize\n      not(0x1f)\n      0x1f\n      dup3\n      add\n      and\n      dup3\n      add\n      dup1\n      0x40\n      mstore\n      pop\n      dup2\n      add\n      swap1\n      tag_42\n      swap2\n      swap1\n      tag_43\n      jump\t// in\n    tag_42:\n      pop\n        /* \"Ethreum/TokenHolderUpgradeable.sol\":1424:1639  function adminTransferERC20Token(... */\n      pop\n      pop\n      pop\n      pop\n      jump\t// out\n        /* \"Ethreum/TokenHolderUpgradeable.sol\":887:1106  function adminSendERC721Token(... */\n    tag_24:\n        /* \"Ethreum/TokenHolderUpgradeable.sol\":1056:1061  token */\n      dup4\n        /* \"Ethreum/TokenHolderUpgradeable.sol\":1038:1079  ERC721Upgradeable(token).safeTransferFrom */\n      0xffffffffffffffffffffffffffffffffffffffff\n      and\n      0x42842e0e\n        /* \"Ethreum/TokenHolderUpgradeable.sol\":1080:1084  from */\n      dup5\n        /* \"Ethreum/TokenHolderUpgradeable.sol\":1086:1088  to */\n      dup5\n        /* \"Ethreum/TokenHolderUpgradeable.sol\":1090:1097  tokenId */\n      dup5\n        /* \"Ethreum/TokenHolderUpgradeable.sol\":1038:1098  ERC721Upgradeable(token).safeTransferFrom(from, to, tokenId) */\n      mload(0x40)\n      dup5\n      0xffffffff\n      and\n      0xe0\n      shl\n      dup2\n      mstore\n      0x04\n      add\n      tag_45\n      swap4\n      swap3\n      swap2\n      swap1\n      tag_38\n      jump\t// in\n    tag_45:\n      0x00\n      mload(0x40)\n      dup1\n      dup4\n      sub\n      dup2\n      0x00\n      dup8\n      dup1\n      extcodesize\n      iszero\n      dup1\n      iszero\n      tag_46\n      jumpi\n      0x00\n      dup1\n      revert\n    tag_46:\n      pop\n      gas\n      call\n      iszero\n      dup1\n      iszero\n      tag_48\n      jumpi\n      returndatasize\n      0x00\n      dup1\n      returndatacopy\n      revert(0x00, returndatasize)\n    tag_48:\n      pop\n      pop\n      pop\n      pop\n        /* \"Ethreum/TokenHolderUpgradeable.sol\":887:1106  function adminSendERC721Token(... */\n      pop\n      pop\n      pop\n      pop\n      jump\t// out\n        /* \"Ethreum/TokenHolderUpgradeable.sol\":1647:1836  function adminSetApprovalERC20(... */\n    tag_28:\n        /* \"Ethreum/TokenHolderUpgradeable.sol\":1797:1802  token */\n      dup3\n        /* \"Ethreum/TokenHolderUpgradeable.sol\":1780:1811  ERC20Upgradeable(token).approve */\n      0xffffffffffffffffffffffffffffffffffffffff\n      and\n      0x095ea7b3\n        /* \"Ethreum/TokenHolderUpgradeable.sol\":1812:1819  spender */\n      dup4\n        /* \"Ethreum/TokenHolderUpgradeable.sol\":1821:1827  amount */\n      dup4\n        /* \"Ethreum/TokenHolderUpgradeable.sol\":1780:1828  ERC20Upgradeable(token).approve(spender, amount) */\n      mload(0x40)\n      dup4\n      0xffffffff\n      and\n      0xe0\n      shl\n      dup2\n      mstore\n      0x04\n      add\n      tag_50\n      swap3\n      swap2\n      swap1\n      tag_51\n      jump\t// in\n    tag_50:\n      0x20\n      mload(0x40)\n      dup1\n      dup4\n      sub\n      dup2\n      0x00\n      dup8\n      dup1\n      extcodesize\n      iszero\n      dup1\n      iszero\n      tag_52\n      jumpi\n      0x00\n      dup1\n      revert\n    tag_52:\n      pop\n      gas\n      call\n      iszero\n      dup1\n      iszero\n      tag_54\n      jumpi\n      returndatasize\n      0x00\n      dup1\n      returndatacopy\n      revert(0x00, returndatasize)\n    tag_54:\n      pop\n      pop\n      pop\n      pop\n      mload(0x40)\n      returndatasize\n      not(0x1f)\n      0x1f\n      dup3\n      add\n      and\n      dup3\n      add\n      dup1\n      0x40\n      mstore\n      pop\n      dup2\n      add\n      swap1\n      tag_55\n      swap2\n      swap1\n      tag_43\n      jump\t// in\n    tag_55:\n      pop\n        /* \"Ethreum/TokenHolderUpgradeable.sol\":1647:1836  function adminSetApprovalERC20(... */\n      pop\n      pop\n      pop\n      jump\t// out\n        /* \"#utility.yul\":7:82   */\n    tag_56:\n        /* \"#utility.yul\":40:46   */\n      0x00\n        /* \"#utility.yul\":73:75   */\n      0x40\n        /* \"#utility.yul\":67:76   */\n      mload\n        /* \"#utility.yul\":57:76   */\n      swap1\n      pop\n        /* \"#utility.yul\":7:82   */\n      swap1\n      jump\t// out\n        /* \"#utility.yul\":88:205   */\n    tag_57:\n        /* \"#utility.yul\":197:198   */\n      0x00\n        /* \"#utility.yul\":194:195   */\n      dup1\n        /* \"#utility.yul\":187:199   */\n      revert\n        /* \"#utility.yul\":211:328   */\n    tag_58:\n        /* \"#utility.yul\":320:321   */\n      0x00\n        /* \"#utility.yul\":317:318   */\n      dup1\n        /* \"#utility.yul\":310:322   */\n      revert\n        /* \"#utility.yul\":334:460   */\n    tag_59:\n        /* \"#utility.yul\":371:378   */\n      0x00\n        /* \"#utility.yul\":411:453   */\n      0xffffffffffffffffffffffffffffffffffffffff\n        /* \"#utility.yul\":404:409   */\n      dup3\n        /* \"#utility.yul\":400:454   */\n      and\n        /* \"#utility.yul\":389:454   */\n      swap1\n      pop\n        /* \"#utility.yul\":334:460   */\n      swap2\n      swap1\n      pop\n      jump\t// out\n        /* \"#utility.yul\":466:562   */\n    tag_60:\n        /* \"#utility.yul\":503:510   */\n      0x00\n        /* \"#utility.yul\":532:556   */\n      tag_91\n        /* \"#utility.yul\":550:555   */\n      dup3\n        /* \"#utility.yul\":532:556   */\n      tag_59\n      jump\t// in\n    tag_91:\n        /* \"#utility.yul\":521:556   */\n      swap1\n      pop\n        /* \"#utility.yul\":466:562   */\n      swap2\n      swap1\n      pop\n      jump\t// out\n        /* \"#utility.yul\":568:690   */\n    tag_61:\n        /* \"#utility.yul\":641:665   */\n      tag_93\n        /* \"#utility.yul\":659:664   */\n      dup2\n        /* \"#utility.yul\":641:665   */\n      tag_60\n      jump\t// in\n    tag_93:\n        /* \"#utility.yul\":634:639   */\n      dup2\n        /* \"#utility.yul\":631:666   */\n      eq\n        /* \"#utility.yul\":621:684   */\n      tag_94\n      jumpi\n        /* \"#utility.yul\":680:681   */\n      0x00\n        /* \"#utility.yul\":677:678   */\n      dup1\n        /* \"#utility.yul\":670:682   */\n      revert\n        /* \"#utility.yul\":621:684   */\n    tag_94:\n        /* \"#utility.yul\":568:690   */\n      pop\n      jump\t// out\n        /* \"#utility.yul\":696:835   */\n    tag_62:\n        /* \"#utility.yul\":742:747   */\n      0x00\n        /* \"#utility.yul\":780:786   */\n      dup2\n        /* \"#utility.yul\":767:787   */\n      calldataload\n        /* \"#utility.yul\":758:787   */\n      swap1\n      pop\n        /* \"#utility.yul\":796:829   */\n      tag_96\n        /* \"#utility.yul\":823:828   */\n      dup2\n        /* \"#utility.yul\":796:829   */\n      tag_61\n      jump\t// in\n    tag_96:\n        /* \"#utility.yul\":696:835   */\n      swap3\n      swap2\n      pop\n      pop\n      jump\t// out\n        /* \"#utility.yul\":841:918   */\n    tag_63:\n        /* \"#utility.yul\":878:885   */\n      0x00\n        /* \"#utility.yul\":907:912   */\n      dup2\n        /* \"#utility.yul\":896:912   */\n      swap1\n      pop\n        /* \"#utility.yul\":841:918   */\n      swap2\n      swap1\n      pop\n      jump\t// out\n        /* \"#utility.yul\":924:1046   */\n    tag_64:\n        /* \"#utility.yul\":997:1021   */\n      tag_99\n        /* \"#utility.yul\":1015:1020   */\n      dup2\n        /* \"#utility.yul\":997:1021   */\n      tag_63\n      jump\t// in\n    tag_99:\n        /* \"#utility.yul\":990:995   */\n      dup2\n        /* \"#utility.yul\":987:1022   */\n      eq\n        /* \"#utility.yul\":977:1040   */\n      tag_100\n      jumpi\n        /* \"#utility.yul\":1036:1037   */\n      0x00\n        /* \"#utility.yul\":1033:1034   */\n      dup1\n        /* \"#utility.yul\":1026:1038   */\n      revert\n        /* \"#utility.yul\":977:1040   */\n    tag_100:\n        /* \"#utility.yul\":924:1046   */\n      pop\n      jump\t// out\n        /* \"#utility.yul\":1052:1191   */\n    tag_65:\n        /* \"#utility.yul\":1098:1103   */\n      0x00\n        /* \"#utility.yul\":1136:1142   */\n      dup2\n        /* \"#utility.yul\":1123:1143   */\n      calldataload\n        /* \"#utility.yul\":1114:1143   */\n      swap1\n      pop\n        /* \"#utility.yul\":1152:1185   */\n      tag_102\n        /* \"#utility.yul\":1179:1184   */\n      dup2\n        /* \"#utility.yul\":1152:1185   */\n      tag_64\n      jump\t// in\n    tag_102:\n        /* \"#utility.yul\":1052:1191   */\n      swap3\n      swap2\n      pop\n      pop\n      jump\t// out\n        /* \"#utility.yul\":1197:1314   */\n    tag_66:\n        /* \"#utility.yul\":1306:1307   */\n      0x00\n        /* \"#utility.yul\":1303:1304   */\n      dup1\n        /* \"#utility.yul\":1296:1308   */\n      revert\n        /* \"#utility.yul\":1320:1437   */\n    tag_67:\n        /* \"#utility.yul\":1429:1430   */\n      0x00\n        /* \"#utility.yul\":1426:1427   */\n      dup1\n        /* \"#utility.yul\":1419:1431   */\n      revert\n        /* \"#utility.yul\":1443:1545   */\n    tag_68:\n        /* \"#utility.yul\":1484:1490   */\n      0x00\n        /* \"#utility.yul\":1535:1537   */\n      0x1f\n        /* \"#utility.yul\":1531:1538   */\n      not\n        /* \"#utility.yul\":1526:1528   */\n      0x1f\n        /* \"#utility.yul\":1519:1524   */\n      dup4\n        /* \"#utility.yul\":1515:1529   */\n      add\n        /* \"#utility.yul\":1511:1539   */\n      and\n        /* \"#utility.yul\":1501:1539   */\n      swap1\n      pop\n        /* \"#utility.yul\":1443:1545   */\n      swap2\n      swap1\n      pop\n      jump\t// out\n        /* \"#utility.yul\":1551:1731   */\n    tag_69:\n        /* \"#utility.yul\":1599:1676   */\n      0x4e487b7100000000000000000000000000000000000000000000000000000000\n        /* \"#utility.yul\":1596:1597   */\n      0x00\n        /* \"#utility.yul\":1589:1677   */\n      mstore\n        /* \"#utility.yul\":1696:1700   */\n      0x41\n        /* \"#utility.yul\":1693:1694   */\n      0x04\n        /* \"#utility.yul\":1686:1701   */\n      mstore\n        /* \"#utility.yul\":1720:1724   */\n      0x24\n        /* \"#utility.yul\":1717:1718   */\n      0x00\n        /* \"#utility.yul\":1710:1725   */\n      revert\n        /* \"#utility.yul\":1737:2018   */\n    tag_70:\n        /* \"#utility.yul\":1820:1847   */\n      tag_108\n        /* \"#utility.yul\":1842:1846   */\n      dup3\n        /* \"#utility.yul\":1820:1847   */\n      tag_68\n      jump\t// in\n    tag_108:\n        /* \"#utility.yul\":1812:1818   */\n      dup2\n        /* \"#utility.yul\":1808:1848   */\n      add\n        /* \"#utility.yul\":1950:1956   */\n      dup2\n        /* \"#utility.yul\":1938:1948   */\n      dup2\n        /* \"#utility.yul\":1935:1957   */\n      lt\n        /* \"#utility.yul\":1914:1932   */\n      0xffffffffffffffff\n        /* \"#utility.yul\":1902:1912   */\n      dup3\n        /* \"#utility.yul\":1899:1933   */\n      gt\n        /* \"#utility.yul\":1896:1958   */\n      or\n        /* \"#utility.yul\":1893:1981   */\n      iszero\n      tag_109\n      jumpi\n        /* \"#utility.yul\":1961:1979   */\n      tag_110\n      tag_69\n      jump\t// in\n    tag_110:\n        /* \"#utility.yul\":1893:1981   */\n    tag_109:\n        /* \"#utility.yul\":2001:2011   */\n      dup1\n        /* \"#utility.yul\":1997:1999   */\n      0x40\n        /* \"#utility.yul\":1990:2012   */\n      mstore\n        /* \"#utility.yul\":1780:2018   */\n      pop\n        /* \"#utility.yul\":1737:2018   */\n      pop\n      pop\n      jump\t// out\n        /* \"#utility.yul\":2024:2153   */\n    tag_71:\n        /* \"#utility.yul\":2058:2064   */\n      0x00\n        /* \"#utility.yul\":2085:2105   */\n      tag_112\n      tag_56\n      jump\t// in\n    tag_112:\n        /* \"#utility.yul\":2075:2105   */\n      swap1\n      pop\n        /* \"#utility.yul\":2114:2147   */\n      tag_113\n        /* \"#utility.yul\":2142:2146   */\n      dup3\n        /* \"#utility.yul\":2134:2140   */\n      dup3\n        /* \"#utility.yul\":2114:2147   */\n      tag_70\n      jump\t// in\n    tag_113:\n        /* \"#utility.yul\":2024:2153   */\n      swap2\n      swap1\n      pop\n      jump\t// out\n        /* \"#utility.yul\":2159:2466   */\n    tag_72:\n        /* \"#utility.yul\":2220:2224   */\n      0x00\n        /* \"#utility.yul\":2310:2328   */\n      0xffffffffffffffff\n        /* \"#utility.yul\":2302:2308   */\n      dup3\n        /* \"#utility.yul\":2299:2329   */\n      gt\n        /* \"#utility.yul\":2296:2352   */\n      iszero\n      tag_115\n      jumpi\n        /* \"#utility.yul\":2332:2350   */\n      tag_116\n      tag_69\n      jump\t// in\n    tag_116:\n        /* \"#utility.yul\":2296:2352   */\n    tag_115:\n        /* \"#utility.yul\":2370:2399   */\n      tag_117\n        /* \"#utility.yul\":2392:2398   */\n      dup3\n        /* \"#utility.yul\":2370:2399   */\n      tag_68\n      jump\t// in\n    tag_117:\n        /* \"#utility.yul\":2362:2399   */\n      swap1\n      pop\n        /* \"#utility.yul\":2454:2458   */\n      0x20\n        /* \"#utility.yul\":2448:2452   */\n      dup2\n        /* \"#utility.yul\":2444:2459   */\n      add\n        /* \"#utility.yul\":2436:2459   */\n      swap1\n      pop\n        /* \"#utility.yul\":2159:2466   */\n      swap2\n      swap1\n      pop\n      jump\t// out\n        /* \"#utility.yul\":2472:2626   */\n    tag_73:\n        /* \"#utility.yul\":2556:2562   */\n      dup3\n        /* \"#utility.yul\":2551:2554   */\n      dup2\n        /* \"#utility.yul\":2546:2549   */\n      dup4\n        /* \"#utility.yul\":2533:2563   */\n      calldatacopy\n        /* \"#utility.yul\":2618:2619   */\n      0x00\n        /* \"#utility.yul\":2609:2615   */\n      dup4\n        /* \"#utility.yul\":2604:2607   */\n      dup4\n        /* \"#utility.yul\":2600:2616   */\n      add\n        /* \"#utility.yul\":2593:2620   */\n      mstore\n        /* \"#utility.yul\":2472:2626   */\n      pop\n      pop\n      pop\n      jump\t// out\n        /* \"#utility.yul\":2632:3042   */\n    tag_74:\n        /* \"#utility.yul\":2709:2714   */\n      0x00\n        /* \"#utility.yul\":2734:2799   */\n      tag_120\n        /* \"#utility.yul\":2750:2798   */\n      tag_121\n        /* \"#utility.yul\":2791:2797   */\n      dup5\n        /* \"#utility.yul\":2750:2798   */\n      tag_72\n      jump\t// in\n    tag_121:\n        /* \"#utility.yul\":2734:2799   */\n      tag_71\n      jump\t// in\n    tag_120:\n        /* \"#utility.yul\":2725:2799   */\n      swap1\n      pop\n        /* \"#utility.yul\":2822:2828   */\n      dup3\n        /* \"#utility.yul\":2815:2820   */\n      dup2\n        /* \"#utility.yul\":2808:2829   */\n      mstore\n        /* \"#utility.yul\":2860:2864   */\n      0x20\n        /* \"#utility.yul\":2853:2858   */\n      dup2\n        /* \"#utility.yul\":2849:2865   */\n      add\n        /* \"#utility.yul\":2898:2901   */\n      dup5\n        /* \"#utility.yul\":2889:2895   */\n      dup5\n        /* \"#utility.yul\":2884:2887   */\n      dup5\n        /* \"#utility.yul\":2880:2896   */\n      add\n        /* \"#utility.yul\":2877:2902   */\n      gt\n        /* \"#utility.yul\":2874:2986   */\n      iszero\n      tag_122\n      jumpi\n        /* \"#utility.yul\":2905:2984   */\n      tag_123\n      tag_67\n      jump\t// in\n    tag_123:\n        /* \"#utility.yul\":2874:2986   */\n    tag_122:\n        /* \"#utility.yul\":2995:3036   */\n      tag_124\n        /* \"#utility.yul\":3029:3035   */\n      dup5\n        /* \"#utility.yul\":3024:3027   */\n      dup3\n        /* \"#utility.yul\":3019:3022   */\n      dup6\n        /* \"#utility.yul\":2995:3036   */\n      tag_73\n      jump\t// in\n    tag_124:\n        /* \"#utility.yul\":2715:3042   */\n      pop\n        /* \"#utility.yul\":2632:3042   */\n      swap4\n      swap3\n      pop\n      pop\n      pop\n      jump\t// out\n        /* \"#utility.yul\":3061:3399   */\n    tag_75:\n        /* \"#utility.yul\":3116:3121   */\n      0x00\n        /* \"#utility.yul\":3165:3168   */\n      dup3\n        /* \"#utility.yul\":3158:3162   */\n      0x1f\n        /* \"#utility.yul\":3150:3156   */\n      dup4\n        /* \"#utility.yul\":3146:3163   */\n      add\n        /* \"#utility.yul\":3142:3169   */\n      slt\n        /* \"#utility.yul\":3132:3254   */\n      tag_126\n      jumpi\n        /* \"#utility.yul\":3173:3252   */\n      tag_127\n      tag_66\n      jump\t// in\n    tag_127:\n        /* \"#utility.yul\":3132:3254   */\n    tag_126:\n        /* \"#utility.yul\":3290:3296   */\n      dup2\n        /* \"#utility.yul\":3277:3297   */\n      calldataload\n        /* \"#utility.yul\":3315:3393   */\n      tag_128\n        /* \"#utility.yul\":3389:3392   */\n      dup5\n        /* \"#utility.yul\":3381:3387   */\n      dup3\n        /* \"#utility.yul\":3374:3378   */\n      0x20\n        /* \"#utility.yul\":3366:3372   */\n      dup7\n        /* \"#utility.yul\":3362:3379   */\n      add\n        /* \"#utility.yul\":3315:3393   */\n      tag_74\n      jump\t// in\n    tag_128:\n        /* \"#utility.yul\":3306:3393   */\n      swap2\n      pop\n        /* \"#utility.yul\":3122:3399   */\n      pop\n        /* \"#utility.yul\":3061:3399   */\n      swap3\n      swap2\n      pop\n      pop\n      jump\t// out\n        /* \"#utility.yul\":3405:4348   */\n    tag_10:\n        /* \"#utility.yul\":3500:3506   */\n      0x00\n        /* \"#utility.yul\":3508:3514   */\n      dup1\n        /* \"#utility.yul\":3516:3522   */\n      0x00\n        /* \"#utility.yul\":3524:3530   */\n      dup1\n        /* \"#utility.yul\":3573:3576   */\n      0x80\n        /* \"#utility.yul\":3561:3570   */\n      dup6\n        /* \"#utility.yul\":3552:3559   */\n      dup8\n        /* \"#utility.yul\":3548:3571   */\n      sub\n        /* \"#utility.yul\":3544:3577   */\n      slt\n        /* \"#utility.yul\":3541:3661   */\n      iszero\n      tag_130\n      jumpi\n        /* \"#utility.yul\":3580:3659   */\n      tag_131\n      tag_57\n      jump\t// in\n    tag_131:\n        /* \"#utility.yul\":3541:3661   */\n    tag_130:\n        /* \"#utility.yul\":3700:3701   */\n      0x00\n        /* \"#utility.yul\":3725:3778   */\n      tag_132\n        /* \"#utility.yul\":3770:3777   */\n      dup8\n        /* \"#utility.yul\":3761:3767   */\n      dup3\n        /* \"#utility.yul\":3750:3759   */\n      dup9\n        /* \"#utility.yul\":3746:3768   */\n      add\n        /* \"#utility.yul\":3725:3778   */\n      tag_62\n      jump\t// in\n    tag_132:\n        /* \"#utility.yul\":3715:3778   */\n      swap5\n      pop\n        /* \"#utility.yul\":3671:3788   */\n      pop\n        /* \"#utility.yul\":3827:3829   */\n      0x20\n        /* \"#utility.yul\":3853:3906   */\n      tag_133\n        /* \"#utility.yul\":3898:3905   */\n      dup8\n        /* \"#utility.yul\":3889:3895   */\n      dup3\n        /* \"#utility.yul\":3878:3887   */\n      dup9\n        /* \"#utility.yul\":3874:3896   */\n      add\n        /* \"#utility.yul\":3853:3906   */\n      tag_62\n      jump\t// in\n    tag_133:\n        /* \"#utility.yul\":3843:3906   */\n      swap4\n      pop\n        /* \"#utility.yul\":3798:3916   */\n      pop\n        /* \"#utility.yul\":3955:3957   */\n      0x40\n        /* \"#utility.yul\":3981:4034   */\n      tag_134\n        /* \"#utility.yul\":4026:4033   */\n      dup8\n        /* \"#utility.yul\":4017:4023   */\n      dup3\n        /* \"#utility.yul\":4006:4015   */\n      dup9\n        /* \"#utility.yul\":4002:4024   */\n      add\n        /* \"#utility.yul\":3981:4034   */\n      tag_65\n      jump\t// in\n    tag_134:\n        /* \"#utility.yul\":3971:4034   */\n      swap3\n      pop\n        /* \"#utility.yul\":3926:4044   */\n      pop\n        /* \"#utility.yul\":4111:4113   */\n      0x60\n        /* \"#utility.yul\":4100:4109   */\n      dup6\n        /* \"#utility.yul\":4096:4114   */\n      add\n        /* \"#utility.yul\":4083:4115   */\n      calldataload\n        /* \"#utility.yul\":4142:4160   */\n      0xffffffffffffffff\n        /* \"#utility.yul\":4134:4140   */\n      dup2\n        /* \"#utility.yul\":4131:4161   */\n      gt\n        /* \"#utility.yul\":4128:4245   */\n      iszero\n      tag_135\n      jumpi\n        /* \"#utility.yul\":4164:4243   */\n      tag_136\n      tag_58\n      jump\t// in\n    tag_136:\n        /* \"#utility.yul\":4128:4245   */\n    tag_135:\n        /* \"#utility.yul\":4269:4331   */\n      tag_137\n        /* \"#utility.yul\":4323:4330   */\n      dup8\n        /* \"#utility.yul\":4314:4320   */\n      dup3\n        /* \"#utility.yul\":4303:4312   */\n      dup9\n        /* \"#utility.yul\":4299:4321   */\n      add\n        /* \"#utility.yul\":4269:4331   */\n      tag_75\n      jump\t// in\n    tag_137:\n        /* \"#utility.yul\":4259:4331   */\n      swap2\n      pop\n        /* \"#utility.yul\":4054:4341   */\n      pop\n        /* \"#utility.yul\":3405:4348   */\n      swap3\n      swap6\n      swap2\n      swap5\n      pop\n      swap3\n      pop\n      jump\t// out\n        /* \"#utility.yul\":4354:4503   */\n    tag_76:\n        /* \"#utility.yul\":4390:4397   */\n      0x00\n        /* \"#utility.yul\":4430:4496   */\n      0xffffffff00000000000000000000000000000000000000000000000000000000\n        /* \"#utility.yul\":4423:4428   */\n      dup3\n        /* \"#utility.yul\":4419:4497   */\n      and\n        /* \"#utility.yul\":4408:4497   */\n      swap1\n      pop\n        /* \"#utility.yul\":4354:4503   */\n      swap2\n      swap1\n      pop\n      jump\t// out\n        /* \"#utility.yul\":4509:4624   */\n    tag_77:\n        /* \"#utility.yul\":4594:4617   */\n      tag_140\n        /* \"#utility.yul\":4611:4616   */\n      dup2\n        /* \"#utility.yul\":4594:4617   */\n      tag_76\n      jump\t// in\n    tag_140:\n        /* \"#utility.yul\":4589:4592   */\n      dup3\n        /* \"#utility.yul\":4582:4618   */\n      mstore\n        /* \"#utility.yul\":4509:4624   */\n      pop\n      pop\n      jump\t// out\n        /* \"#utility.yul\":4630:4848   */\n    tag_13:\n        /* \"#utility.yul\":4721:4725   */\n      0x00\n        /* \"#utility.yul\":4759:4761   */\n      0x20\n        /* \"#utility.yul\":4748:4757   */\n      dup3\n        /* \"#utility.yul\":4744:4762   */\n      add\n        /* \"#utility.yul\":4736:4762   */\n      swap1\n      pop\n        /* \"#utility.yul\":4772:4841   */\n      tag_142\n        /* \"#utility.yul\":4838:4839   */\n      0x00\n        /* \"#utility.yul\":4827:4836   */\n      dup4\n        /* \"#utility.yul\":4823:4840   */\n      add\n        /* \"#utility.yul\":4814:4820   */\n      dup5\n        /* \"#utility.yul\":4772:4841   */\n      tag_77\n      jump\t// in\n    tag_142:\n        /* \"#utility.yul\":4630:4848   */\n      swap3\n      swap2\n      pop\n      pop\n      jump\t// out\n        /* \"#utility.yul\":4854:4944   */\n    tag_78:\n        /* \"#utility.yul\":4888:4895   */\n      0x00\n        /* \"#utility.yul\":4931:4936   */\n      dup2\n        /* \"#utility.yul\":4924:4937   */\n      iszero\n        /* \"#utility.yul\":4917:4938   */\n      iszero\n        /* \"#utility.yul\":4906:4938   */\n      swap1\n      pop\n        /* \"#utility.yul\":4854:4944   */\n      swap2\n      swap1\n      pop\n      jump\t// out\n        /* \"#utility.yul\":4950:5066   */\n    tag_79:\n        /* \"#utility.yul\":5020:5041   */\n      tag_145\n        /* \"#utility.yul\":5035:5040   */\n      dup2\n        /* \"#utility.yul\":5020:5041   */\n      tag_78\n      jump\t// in\n    tag_145:\n        /* \"#utility.yul\":5013:5018   */\n      dup2\n        /* \"#utility.yul\":5010:5042   */\n      eq\n        /* \"#utility.yul\":5000:5060   */\n      tag_146\n      jumpi\n        /* \"#utility.yul\":5056:5057   */\n      0x00\n        /* \"#utility.yul\":5053:5054   */\n      dup1\n        /* \"#utility.yul\":5046:5058   */\n      revert\n        /* \"#utility.yul\":5000:5060   */\n    tag_146:\n        /* \"#utility.yul\":4950:5066   */\n      pop\n      jump\t// out\n        /* \"#utility.yul\":5072:5205   */\n    tag_80:\n        /* \"#utility.yul\":5115:5120   */\n      0x00\n        /* \"#utility.yul\":5153:5159   */\n      dup2\n        /* \"#utility.yul\":5140:5160   */\n      calldataload\n        /* \"#utility.yul\":5131:5160   */\n      swap1\n      pop\n        /* \"#utility.yul\":5169:5199   */\n      tag_148\n        /* \"#utility.yul\":5193:5198   */\n      dup2\n        /* \"#utility.yul\":5169:5199   */\n      tag_79\n      jump\t// in\n    tag_148:\n        /* \"#utility.yul\":5072:5205   */\n      swap3\n      swap2\n      pop\n      pop\n      jump\t// out\n        /* \"#utility.yul\":5211:5824   */\n    tag_16:\n        /* \"#utility.yul\":5285:5291   */\n      0x00\n        /* \"#utility.yul\":5293:5299   */\n      dup1\n        /* \"#utility.yul\":5301:5307   */\n      0x00\n        /* \"#utility.yul\":5350:5352   */\n      0x60\n        /* \"#utility.yul\":5338:5347   */\n      dup5\n        /* \"#utility.yul\":5329:5336   */\n      dup7\n        /* \"#utility.yul\":5325:5348   */\n      sub\n        /* \"#utility.yul\":5321:5353   */\n      slt\n        /* \"#utility.yul\":5318:5437   */\n      iszero\n      tag_150\n      jumpi\n        /* \"#utility.yul\":5356:5435   */\n      tag_151\n      tag_57\n      jump\t// in\n    tag_151:\n        /* \"#utility.yul\":5318:5437   */\n    tag_150:\n        /* \"#utility.yul\":5476:5477   */\n      0x00\n        /* \"#utility.yul\":5501:5554   */\n      tag_152\n        /* \"#utility.yul\":5546:5553   */\n      dup7\n        /* \"#utility.yul\":5537:5543   */\n      dup3\n        /* \"#utility.yul\":5526:5535   */\n      dup8\n        /* \"#utility.yul\":5522:5544   */\n      add\n        /* \"#utility.yul\":5501:5554   */\n      tag_62\n      jump\t// in\n    tag_152:\n        /* \"#utility.yul\":5491:5554   */\n      swap4\n      pop\n        /* \"#utility.yul\":5447:5564   */\n      pop\n        /* \"#utility.yul\":5603:5605   */\n      0x20\n        /* \"#utility.yul\":5629:5682   */\n      tag_153\n        /* \"#utility.yul\":5674:5681   */\n      dup7\n        /* \"#utility.yul\":5665:5671   */\n      dup3\n        /* \"#utility.yul\":5654:5663   */\n      dup8\n        /* \"#utility.yul\":5650:5672   */\n      add\n        /* \"#utility.yul\":5629:5682   */\n      tag_62\n      jump\t// in\n    tag_153:\n        /* \"#utility.yul\":5619:5682   */\n      swap3\n      pop\n        /* \"#utility.yul\":5574:5692   */\n      pop\n        /* \"#utility.yul\":5731:5733   */\n      0x40\n        /* \"#utility.yul\":5757:5807   */\n      tag_154\n        /* \"#utility.yul\":5799:5806   */\n      dup7\n        /* \"#utility.yul\":5790:5796   */\n      dup3\n        /* \"#utility.yul\":5779:5788   */\n      dup8\n        /* \"#utility.yul\":5775:5797   */\n      add\n        /* \"#utility.yul\":5757:5807   */\n      tag_80\n      jump\t// in\n    tag_154:\n        /* \"#utility.yul\":5747:5807   */\n      swap2\n      pop\n        /* \"#utility.yul\":5702:5817   */\n      pop\n        /* \"#utility.yul\":5211:5824   */\n      swap3\n      pop\n      swap3\n      pop\n      swap3\n      jump\t// out\n        /* \"#utility.yul\":5830:6595   */\n    tag_20:\n        /* \"#utility.yul\":5916:5922   */\n      0x00\n        /* \"#utility.yul\":5924:5930   */\n      dup1\n        /* \"#utility.yul\":5932:5938   */\n      0x00\n        /* \"#utility.yul\":5940:5946   */\n      dup1\n        /* \"#utility.yul\":5989:5992   */\n      0x80\n        /* \"#utility.yul\":5977:5986   */\n      dup6\n        /* \"#utility.yul\":5968:5975   */\n      dup8\n        /* \"#utility.yul\":5964:5987   */\n      sub\n        /* \"#utility.yul\":5960:5993   */\n      slt\n        /* \"#utility.yul\":5957:6077   */\n      iszero\n      tag_156\n      jumpi\n        /* \"#utility.yul\":5996:6075   */\n      tag_157\n      tag_57\n      jump\t// in\n    tag_157:\n        /* \"#utility.yul\":5957:6077   */\n    tag_156:\n        /* \"#utility.yul\":6116:6117   */\n      0x00\n        /* \"#utility.yul\":6141:6194   */\n      tag_158\n        /* \"#utility.yul\":6186:6193   */\n      dup8\n        /* \"#utility.yul\":6177:6183   */\n      dup3\n        /* \"#utility.yul\":6166:6175   */\n      dup9\n        /* \"#utility.yul\":6162:6184   */\n      add\n        /* \"#utility.yul\":6141:6194   */\n      tag_62\n      jump\t// in\n    tag_158:\n        /* \"#utility.yul\":6131:6194   */\n      swap5\n      pop\n        /* \"#utility.yul\":6087:6204   */\n      pop\n        /* \"#utility.yul\":6243:6245   */\n      0x20\n        /* \"#utility.yul\":6269:6322   */\n      tag_159\n        /* \"#utility.yul\":6314:6321   */\n      dup8\n        /* \"#utility.yul\":6305:6311   */\n      dup3\n        /* \"#utility.yul\":6294:6303   */\n      dup9\n        /* \"#utility.yul\":6290:6312   */\n      add\n        /* \"#utility.yul\":6269:6322   */\n      tag_62\n      jump\t// in\n    tag_159:\n        /* \"#utility.yul\":6259:6322   */\n      swap4\n      pop\n        /* \"#utility.yul\":6214:6332   */\n      pop\n        /* \"#utility.yul\":6371:6373   */\n      0x40\n        /* \"#utility.yul\":6397:6450   */\n      tag_160\n        /* \"#utility.yul\":6442:6449   */\n      dup8\n        /* \"#utility.yul\":6433:6439   */\n      dup3\n        /* \"#utility.yul\":6422:6431   */\n      dup9\n        /* \"#utility.yul\":6418:6440   */\n      add\n        /* \"#utility.yul\":6397:6450   */\n      tag_62\n      jump\t// in\n    tag_160:\n        /* \"#utility.yul\":6387:6450   */\n      swap3\n      pop\n        /* \"#utility.yul\":6342:6460   */\n      pop\n        /* \"#utility.yul\":6499:6501   */\n      0x60\n        /* \"#utility.yul\":6525:6578   */\n      tag_161\n        /* \"#utility.yul\":6570:6577   */\n      dup8\n        /* \"#utility.yul\":6561:6567   */\n      dup3\n        /* \"#utility.yul\":6550:6559   */\n      dup9\n        /* \"#utility.yul\":6546:6568   */\n      add\n        /* \"#utility.yul\":6525:6578   */\n      tag_65\n      jump\t// in\n    tag_161:\n        /* \"#utility.yul\":6515:6578   */\n      swap2\n      pop\n        /* \"#utility.yul\":6470:6588   */\n      pop\n        /* \"#utility.yul\":5830:6595   */\n      swap3\n      swap6\n      swap2\n      swap5\n      pop\n      swap3\n      pop\n      jump\t// out\n        /* \"#utility.yul\":6601:7220   */\n    tag_27:\n        /* \"#utility.yul\":6678:6684   */\n      0x00\n        /* \"#utility.yul\":6686:6692   */\n      dup1\n        /* \"#utility.yul\":6694:6700   */\n      0x00\n        /* \"#utility.yul\":6743:6745   */\n      0x60\n        /* \"#utility.yul\":6731:6740   */\n      dup5\n        /* \"#utility.yul\":6722:6729   */\n      dup7\n        /* \"#utility.yul\":6718:6741   */\n      sub\n        /* \"#utility.yul\":6714:6746   */\n      slt\n        /* \"#utility.yul\":6711:6830   */\n      iszero\n      tag_163\n      jumpi\n        /* \"#utility.yul\":6749:6828   */\n      tag_164\n      tag_57\n      jump\t// in\n    tag_164:\n        /* \"#utility.yul\":6711:6830   */\n    tag_163:\n        /* \"#utility.yul\":6869:6870   */\n      0x00\n        /* \"#utility.yul\":6894:6947   */\n      tag_165\n        /* \"#utility.yul\":6939:6946   */\n      dup7\n        /* \"#utility.yul\":6930:6936   */\n      dup3\n        /* \"#utility.yul\":6919:6928   */\n      dup8\n        /* \"#utility.yul\":6915:6937   */\n      add\n        /* \"#utility.yul\":6894:6947   */\n      tag_62\n      jump\t// in\n    tag_165:\n        /* \"#utility.yul\":6884:6947   */\n      swap4\n      pop\n        /* \"#utility.yul\":6840:6957   */\n      pop\n        /* \"#utility.yul\":6996:6998   */\n      0x20\n        /* \"#utility.yul\":7022:7075   */\n      tag_166\n        /* \"#utility.yul\":7067:7074   */\n      dup7\n        /* \"#utility.yul\":7058:7064   */\n      dup3\n        /* \"#utility.yul\":7047:7056   */\n      dup8\n        /* \"#utility.yul\":7043:7065   */\n      add\n        /* \"#utility.yul\":7022:7075   */\n      tag_62\n      jump\t// in\n    tag_166:\n        /* \"#utility.yul\":7012:7075   */\n      swap3\n      pop\n        /* \"#utility.yul\":6967:7085   */\n      pop\n        /* \"#utility.yul\":7124:7126   */\n      0x40\n        /* \"#utility.yul\":7150:7203   */\n      tag_167\n        /* \"#utility.yul\":7195:7202   */\n      dup7\n        /* \"#utility.yul\":7186:7192   */\n      dup3\n        /* \"#utility.yul\":7175:7184   */\n      dup8\n        /* \"#utility.yul\":7171:7193   */\n      add\n        /* \"#utility.yul\":7150:7203   */\n      tag_65\n      jump\t// in\n    tag_167:\n        /* \"#utility.yul\":7140:7203   */\n      swap2\n      pop\n        /* \"#utility.yul\":7095:7213   */\n      pop\n        /* \"#utility.yul\":6601:7220   */\n      swap3\n      pop\n      swap3\n      pop\n      swap3\n      jump\t// out\n        /* \"#utility.yul\":7226:7344   */\n    tag_81:\n        /* \"#utility.yul\":7313:7337   */\n      tag_169\n        /* \"#utility.yul\":7331:7336   */\n      dup2\n        /* \"#utility.yul\":7313:7337   */\n      tag_60\n      jump\t// in\n    tag_169:\n        /* \"#utility.yul\":7308:7311   */\n      dup3\n        /* \"#utility.yul\":7301:7338   */\n      mstore\n        /* \"#utility.yul\":7226:7344   */\n      pop\n      pop\n      jump\t// out\n        /* \"#utility.yul\":7350:7459   */\n    tag_82:\n        /* \"#utility.yul\":7431:7452   */\n      tag_171\n        /* \"#utility.yul\":7446:7451   */\n      dup2\n        /* \"#utility.yul\":7431:7452   */\n      tag_78\n      jump\t// in\n    tag_171:\n        /* \"#utility.yul\":7426:7429   */\n      dup3\n        /* \"#utility.yul\":7419:7453   */\n      mstore\n        /* \"#utility.yul\":7350:7459   */\n      pop\n      pop\n      jump\t// out\n        /* \"#utility.yul\":7465:7785   */\n    tag_32:\n        /* \"#utility.yul\":7580:7584   */\n      0x00\n        /* \"#utility.yul\":7618:7620   */\n      0x40\n        /* \"#utility.yul\":7607:7616   */\n      dup3\n        /* \"#utility.yul\":7603:7621   */\n      add\n        /* \"#utility.yul\":7595:7621   */\n      swap1\n      pop\n        /* \"#utility.yul\":7631:7702   */\n      tag_173\n        /* \"#utility.yul\":7699:7700   */\n      0x00\n        /* \"#utility.yul\":7688:7697   */\n      dup4\n        /* \"#utility.yul\":7684:7701   */\n      add\n        /* \"#utility.yul\":7675:7681   */\n      dup6\n        /* \"#utility.yul\":7631:7702   */\n      tag_81\n      jump\t// in\n    tag_173:\n        /* \"#utility.yul\":7712:7778   */\n      tag_174\n        /* \"#utility.yul\":7774:7776   */\n      0x20\n        /* \"#utility.yul\":7763:7772   */\n      dup4\n        /* \"#utility.yul\":7759:7777   */\n      add\n        /* \"#utility.yul\":7750:7756   */\n      dup5\n        /* \"#utility.yul\":7712:7778   */\n      tag_82\n      jump\t// in\n    tag_174:\n        /* \"#utility.yul\":7465:7785   */\n      swap4\n      swap3\n      pop\n      pop\n      pop\n      jump\t// out\n        /* \"#utility.yul\":7791:7909   */\n    tag_83:\n        /* \"#utility.yul\":7878:7902   */\n      tag_176\n        /* \"#utility.yul\":7896:7901   */\n      dup2\n        /* \"#utility.yul\":7878:7902   */\n      tag_63\n      jump\t// in\n    tag_176:\n        /* \"#utility.yul\":7873:7876   */\n      dup3\n        /* \"#utility.yul\":7866:7903   */\n      mstore\n        /* \"#utility.yul\":7791:7909   */\n      pop\n      pop\n      jump\t// out\n        /* \"#utility.yul\":7915:8357   */\n    tag_38:\n        /* \"#utility.yul\":8064:8068   */\n      0x00\n        /* \"#utility.yul\":8102:8104   */\n      0x60\n        /* \"#utility.yul\":8091:8100   */\n      dup3\n        /* \"#utility.yul\":8087:8105   */\n      add\n        /* \"#utility.yul\":8079:8105   */\n      swap1\n      pop\n        /* \"#utility.yul\":8115:8186   */\n      tag_178\n        /* \"#utility.yul\":8183:8184   */\n      0x00\n        /* \"#utility.yul\":8172:8181   */\n      dup4\n        /* \"#utility.yul\":8168:8185   */\n      add\n        /* \"#utility.yul\":8159:8165   */\n      dup7\n        /* \"#utility.yul\":8115:8186   */\n      tag_81\n      jump\t// in\n    tag_178:\n        /* \"#utility.yul\":8196:8268   */\n      tag_179\n        /* \"#utility.yul\":8264:8266   */\n      0x20\n        /* \"#utility.yul\":8253:8262   */\n      dup4\n        /* \"#utility.yul\":8249:8267   */\n      add\n        /* \"#utility.yul\":8240:8246   */\n      dup6\n        /* \"#utility.yul\":8196:8268   */\n      tag_81\n      jump\t// in\n    tag_179:\n        /* \"#utility.yul\":8278:8350   */\n      tag_180\n        /* \"#utility.yul\":8346:8348   */\n      0x40\n        /* \"#utility.yul\":8335:8344   */\n      dup4\n        /* \"#utility.yul\":8331:8349   */\n      add\n        /* \"#utility.yul\":8322:8328   */\n      dup5\n        /* \"#utility.yul\":8278:8350   */\n      tag_83\n      jump\t// in\n    tag_180:\n        /* \"#utility.yul\":7915:8357   */\n      swap5\n      swap4\n      pop\n      pop\n      pop\n      pop\n      jump\t// out\n        /* \"#utility.yul\":8363:8500   */\n    tag_84:\n        /* \"#utility.yul\":8417:8422   */\n      0x00\n        /* \"#utility.yul\":8448:8454   */\n      dup2\n        /* \"#utility.yul\":8442:8455   */\n      mload\n        /* \"#utility.yul\":8433:8455   */\n      swap1\n      pop\n        /* \"#utility.yul\":8464:8494   */\n      tag_182\n        /* \"#utility.yul\":8488:8493   */\n      dup2\n        /* \"#utility.yul\":8464:8494   */\n      tag_79\n      jump\t// in\n    tag_182:\n        /* \"#utility.yul\":8363:8500   */\n      swap3\n      swap2\n      pop\n      pop\n      jump\t// out\n        /* \"#utility.yul\":8506:8851   */\n    tag_43:\n        /* \"#utility.yul\":8573:8579   */\n      0x00\n        /* \"#utility.yul\":8622:8624   */\n      0x20\n        /* \"#utility.yul\":8610:8619   */\n      dup3\n        /* \"#utility.yul\":8601:8608   */\n      dup5\n        /* \"#utility.yul\":8597:8620   */\n      sub\n        /* \"#utility.yul\":8593:8625   */\n      slt\n        /* \"#utility.yul\":8590:8709   */\n      iszero\n      tag_184\n      jumpi\n        /* \"#utility.yul\":8628:8707   */\n      tag_185\n      tag_57\n      jump\t// in\n    tag_185:\n        /* \"#utility.yul\":8590:8709   */\n    tag_184:\n        /* \"#utility.yul\":8748:8749   */\n      0x00\n        /* \"#utility.yul\":8773:8834   */\n      tag_186\n        /* \"#utility.yul\":8826:8833   */\n      dup5\n        /* \"#utility.yul\":8817:8823   */\n      dup3\n        /* \"#utility.yul\":8806:8815   */\n      dup6\n        /* \"#utility.yul\":8802:8824   */\n      add\n        /* \"#utility.yul\":8773:8834   */\n      tag_84\n      jump\t// in\n    tag_186:\n        /* \"#utility.yul\":8763:8834   */\n      swap2\n      pop\n        /* \"#utility.yul\":8719:8844   */\n      pop\n        /* \"#utility.yul\":8506:8851   */\n      swap3\n      swap2\n      pop\n      pop\n      jump\t// out\n        /* \"#utility.yul\":8857:9189   */\n    tag_51:\n        /* \"#utility.yul\":8978:8982   */\n      0x00\n        /* \"#utility.yul\":9016:9018   */\n      0x40\n        /* \"#utility.yul\":9005:9014   */\n      dup3\n        /* \"#utility.yul\":9001:9019   */\n      add\n        /* \"#utility.yul\":8993:9019   */\n      swap1\n      pop\n        /* \"#utility.yul\":9029:9100   */\n      tag_188\n        /* \"#utility.yul\":9097:9098   */\n      0x00\n        /* \"#utility.yul\":9086:9095   */\n      dup4\n        /* \"#utility.yul\":9082:9099   */\n      add\n        /* \"#utility.yul\":9073:9079   */\n      dup6\n        /* \"#utility.yul\":9029:9100   */\n      tag_81\n      jump\t// in\n    tag_188:\n        /* \"#utility.yul\":9110:9182   */\n      tag_189\n        /* \"#utility.yul\":9178:9180   */\n      0x20\n        /* \"#utility.yul\":9167:9176   */\n      dup4\n        /* \"#utility.yul\":9163:9181   */\n      add\n        /* \"#utility.yul\":9154:9160   */\n      dup5\n        /* \"#utility.yul\":9110:9182   */\n      tag_83\n      jump\t// in\n    tag_189:\n        /* \"#utility.yul\":8857:9189   */\n      swap4\n      swap3\n      pop\n      pop\n      pop\n      jump\t// out\n\n    auxdata: 0xa2646970667358221220f8a308b111f5e77edc9a79e4b70dc53a498ffae35d1c524a81e1b1ff5e76963764736f6c63430008080033\n}\n",
				"bytecode": {
					"linkReferences": {},
					"object": "608060405234801561001057600080fd5b5061085a806100206000396000f3fe608060405234801561001057600080fd5b50600436106100575760003560e01c8063150b7a021461005c578063167d576c1461008c57806327b59ab9146100a85780635806f47a146100c457806358c0906c146100e0575b600080fd5b6100766004803603810190610071919061050e565b6100fc565b60405161008391906105cc565b60405180910390f35b6100a660048036038101906100a1919061061f565b610110565b005b6100c260048036038101906100bd9190610672565b610182565b005b6100de60048036038101906100d99190610672565b610218565b005b6100fa60048036038101906100f591906106d9565b61028d565b005b600063150b7a0260e01b9050949350505050565b8273ffffffffffffffffffffffffffffffffffffffff1663a22cb46583836040518363ffffffff1660e01b815260040161014b92919061074a565b600060405180830381600087803b15801561016557600080fd5b505af1158015610179573d6000803e3d6000fd5b50505050505050565b8373ffffffffffffffffffffffffffffffffffffffff166323b872dd8484846040518463ffffffff1660e01b81526004016101bf93929190610782565b602060405180830381600087803b1580156101d957600080fd5b505af11580156101ed573d6000803e3d6000fd5b505050506040513d601f19601f8201168201806040525081019061021191906107ce565b5050505050565b8373ffffffffffffffffffffffffffffffffffffffff166342842e0e8484846040518463ffffffff1660e01b815260040161025593929190610782565b600060405180830381600087803b15801561026f57600080fd5b505af1158015610283573d6000803e3d6000fd5b5050505050505050565b8273ffffffffffffffffffffffffffffffffffffffff1663095ea7b383836040518363ffffffff1660e01b81526004016102c89291906107fb565b602060405180830381600087803b1580156102e257600080fd5b505af11580156102f6573d6000803e3d6000fd5b505050506040513d601f19601f8201168201806040525081019061031a91906107ce565b50505050565b6000604051905090565b600080fd5b600080fd5b600073ffffffffffffffffffffffffffffffffffffffff82169050919050565b600061035f82610334565b9050919050565b61036f81610354565b811461037a57600080fd5b50565b60008135905061038c81610366565b92915050565b6000819050919050565b6103a581610392565b81146103b057600080fd5b50565b6000813590506103c28161039c565b92915050565b600080fd5b600080fd5b6000601f19601f8301169050919050565b7f4e487b7100000000000000000000000000000000000000000000000000000000600052604160045260246000fd5b61041b826103d2565b810181811067ffffffffffffffff8211171561043a576104396103e3565b5b80604052505050565b600061044d610320565b90506104598282610412565b919050565b600067ffffffffffffffff821115610479576104786103e3565b5b610482826103d2565b9050602081019050919050565b82818337600083830152505050565b60006104b16104ac8461045e565b610443565b9050828152602081018484840111156104cd576104cc6103cd565b5b6104d884828561048f565b509392505050565b600082601f8301126104f5576104f46103c8565b5b813561050584826020860161049e565b91505092915050565b600080600080608085870312156105285761052761032a565b5b60006105368782880161037d565b94505060206105478782880161037d565b9350506040610558878288016103b3565b925050606085013567ffffffffffffffff8111156105795761057861032f565b5b610585878288016104e0565b91505092959194509250565b60007fffffffff0000000000000000000000000000000000000000000000000000000082169050919050565b6105c681610591565b82525050565b60006020820190506105e160008301846105bd565b92915050565b60008115159050919050565b6105fc816105e7565b811461060757600080fd5b50565b600081359050610619816105f3565b92915050565b6000806000606084860312156106385761063761032a565b5b60006106468682870161037d565b93505060206106578682870161037d565b92505060406106688682870161060a565b9150509250925092565b6000806000806080858703121561068c5761068b61032a565b5b600061069a8782880161037d565b94505060206106ab8782880161037d565b93505060406106bc8782880161037d565b92505060606106cd878288016103b3565b91505092959194509250565b6000806000606084860312156106f2576106f161032a565b5b60006107008682870161037d565b93505060206107118682870161037d565b9250506040610722868287016103b3565b9150509250925092565b61073581610354565b82525050565b610744816105e7565b82525050565b600060408201905061075f600083018561072c565b61076c602083018461073b565b9392505050565b61077c81610392565b82525050565b6000606082019050610797600083018661072c565b6107a4602083018561072c565b6107b16040830184610773565b949350505050565b6000815190506107c8816105f3565b92915050565b6000602082840312156107e4576107e361032a565b5b60006107f2848285016107b9565b91505092915050565b6000604082019050610810600083018561072c565b61081d6020830184610773565b939250505056fea2646970667358221220f8a308b111f5e77edc9a79e4b70dc53a498ffae35d1c524a81e1b1ff5e76963764736f6c63430008080033",
					"opcodes": "PUSH1 0x80 PUSH1 0x40 MSTORE CALLVALUE DUP1 ISZERO PUSH2 0x10 JUMPI PUSH1 0x0 DUP1 REVERT JUMPDEST POP PUSH2 0x85A DUP1 PUSH2 0x20 PUSH1 0x0 CODECOPY PUSH1 0x0 RETURN INVALID PUSH1 0x80 PUSH1 0x40 MSTORE CALLVALUE DUP1 ISZERO PUSH2 0x10 JUMPI PUSH1 0x0 DUP1 REVERT JUMPDEST POP PUSH1 0x4 CALLDATASIZE LT PUSH2 0x57 JUMPI PUSH1 0x0 CALLDATALOAD PUSH1 0xE0 SHR DUP1 PUSH4 0x150B7A02 EQ PUSH2 0x5C JUMPI DUP1 PUSH4 0x167D576C EQ PUSH2 0x8C JUMPI DUP1 PUSH4 0x27B59AB9 EQ PUSH2 0xA8 JUMPI DUP1 PUSH4 0x5806F47A EQ PUSH2 0xC4 JUMPI DUP1 PUSH4 0x58C0906C EQ PUSH2 0xE0 JUMPI JUMPDEST PUSH1 0x0 DUP1 REVERT JUMPDEST PUSH2 0x76 PUSH1 0x4 DUP1 CALLDATASIZE SUB DUP2 ADD SWAP1 PUSH2 0x71 SWAP2 SWAP1 PUSH2 0x50E JUMP JUMPDEST PUSH2 0xFC JUMP JUMPDEST PUSH1 0x40 MLOAD PUSH2 0x83 SWAP2 SWAP1 PUSH2 0x5CC JUMP JUMPDEST PUSH1 0x40 MLOAD DUP1 SWAP2 SUB SWAP1 RETURN JUMPDEST PUSH2 0xA6 PUSH1 0x4 DUP1 CALLDATASIZE SUB DUP2 ADD SWAP1 PUSH2 0xA1 SWAP2 SWAP1 PUSH2 0x61F JUMP JUMPDEST PUSH2 0x110 JUMP JUMPDEST STOP JUMPDEST PUSH2 0xC2 PUSH1 0x4 DUP1 CALLDATASIZE SUB DUP2 ADD SWAP1 PUSH2 0xBD SWAP2 SWAP1 PUSH2 0x672 JUMP JUMPDEST PUSH2 0x182 JUMP JUMPDEST STOP JUMPDEST PUSH2 0xDE PUSH1 0x4 DUP1 CALLDATASIZE SUB DUP2 ADD SWAP1 PUSH2 0xD9 SWAP2 SWAP1 PUSH2 0x672 JUMP JUMPDEST PUSH2 0x218 JUMP JUMPDEST STOP JUMPDEST PUSH2 0xFA PUSH1 0x4 DUP1 CALLDATASIZE SUB DUP2 ADD SWAP1 PUSH2 0xF5 SWAP2 SWAP1 PUSH2 0x6D9 JUMP JUMPDEST PUSH2 0x28D JUMP JUMPDEST STOP JUMPDEST PUSH1 0x0 PUSH4 0x150B7A02 PUSH1 0xE0 SHL SWAP1 POP SWAP5 SWAP4 POP POP POP POP JUMP JUMPDEST DUP3 PUSH20 0xFFFFFFFFFFFFFFFFFFFFFFFFFFFFFFFFFFFFFFFF AND PUSH4 0xA22CB465 DUP4 DUP4 PUSH1 0x40 MLOAD DUP4 PUSH4 0xFFFFFFFF AND PUSH1 0xE0 SHL DUP2 MSTORE PUSH1 0x4 ADD PUSH2 0x14B SWAP3 SWAP2 SWAP1 PUSH2 0x74A JUMP JUMPDEST PUSH1 0x0 PUSH1 0x40 MLOAD DUP1 DUP4 SUB DUP2 PUSH1 0x0 DUP8 DUP1 EXTCODESIZE ISZERO DUP1 ISZERO PUSH2 0x165 JUMPI PUSH1 0x0 DUP1 REVERT JUMPDEST POP GAS CALL ISZERO DUP1 ISZERO PUSH2 0x179 JUMPI RETURNDATASIZE PUSH1 0x0 DUP1 RETURNDATACOPY RETURNDATASIZE PUSH1 0x0 REVERT JUMPDEST POP POP POP POP POP POP POP JUMP JUMPDEST DUP4 PUSH20 0xFFFFFFFFFFFFFFFFFFFFFFFFFFFFFFFFFFFFFFFF AND PUSH4 0x23B872DD DUP5 DUP5 DUP5 PUSH1 0x40 MLOAD DUP5 PUSH4 0xFFFFFFFF AND PUSH1 0xE0 SHL DUP2 MSTORE PUSH1 0x4 ADD PUSH2 0x1BF SWAP4 SWAP3 SWAP2 SWAP1 PUSH2 0x782 JUMP JUMPDEST PUSH1 0x20 PUSH1 0x40 MLOAD DUP1 DUP4 SUB DUP2 PUSH1 0x0 DUP8 DUP1 EXTCODESIZE ISZERO DUP1 ISZERO PUSH2 0x1D9 JUMPI PUSH1 0x0 DUP1 REVERT JUMPDEST POP GAS CALL ISZERO DUP1 ISZERO PUSH2 0x1ED JUMPI RETURNDATASIZE PUSH1 0x0 DUP1 RETURNDATACOPY RETURNDATASIZE PUSH1 0x0 REVERT JUMPDEST POP POP POP POP PUSH1 0x40 MLOAD RETURNDATASIZE PUSH1 0x1F NOT PUSH1 0x1F DUP3 ADD AND DUP3 ADD DUP1 PUSH1 0x40 MSTORE POP DUP2 ADD SWAP1 PUSH2 0x211 SWAP2 SWAP1 PUSH2 0x7CE JUMP JUMPDEST POP POP POP POP POP JUMP JUMPDEST DUP4 PUSH20 0xFFFFFFFFFFFFFFFFFFFFFFFFFFFFFFFFFFFFFFFF AND PUSH4 0x42842E0E DUP5 DUP5 DUP5 PUSH1 0x40 MLOAD DUP5 PUSH4 0xFFFFFFFF AND PUSH1 0xE0 SHL DUP2 MSTORE PUSH1 0x4 ADD PUSH2 0x255 SWAP4 SWAP3 SWAP2 SWAP1 PUSH2 0x782 JUMP JUMPDEST PUSH1 0x0 PUSH1 0x40 MLOAD DUP1 DUP4 SUB DUP2 PUSH1 0x0 DUP8 DUP1 EXTCODESIZE ISZERO DUP1 ISZERO PUSH2 0x26F JUMPI PUSH1 0x0 DUP1 REVERT JUMPDEST POP GAS CALL ISZERO DUP1 ISZERO PUSH2 0x283 JUMPI RETURNDATASIZE PUSH1 0x0 DUP1 RETURNDATACOPY RETURNDATASIZE PUSH1 0x0 REVERT JUMPDEST POP POP POP POP POP POP POP POP JUMP JUMPDEST DUP3 PUSH20 0xFFFFFFFFFFFFFFFFFFFFFFFFFFFFFFFFFFFFFFFF AND PUSH4 0x95EA7B3 DUP4 DUP4 PUSH1 0x40 MLOAD DUP4 PUSH4 0xFFFFFFFF AND PUSH1 0xE0 SHL DUP2 MSTORE PUSH1 0x4 ADD PUSH2 0x2C8 SWAP3 SWAP2 SWAP1 PUSH2 0x7FB JUMP JUMPDEST PUSH1 0x20 PUSH1 0x40 MLOAD DUP1 DUP4 SUB DUP2 PUSH1 0x0 DUP8 DUP1 EXTCODESIZE ISZERO DUP1 ISZERO PUSH2 0x2E2 JUMPI PUSH1 0x0 DUP1 REVERT JUMPDEST POP GAS CALL ISZERO DUP1 ISZERO PUSH2 0x2F6 JUMPI RETURNDATASIZE PUSH1 0x0 DUP1 RETURNDATACOPY RETURNDATASIZE PUSH1 0x0 REVERT JUMPDEST POP POP POP POP PUSH1 0x40 MLOAD RETURNDATASIZE PUSH1 0x1F NOT PUSH1 0x1F DUP3 ADD AND DUP3 ADD DUP1 PUSH1 0x40 MSTORE POP DUP2 ADD SWAP1 PUSH2 0x31A SWAP2 SWAP1 PUSH2 0x7CE JUMP JUMPDEST POP POP POP POP JUMP JUMPDEST PUSH1 0x0 PUSH1 0x40 MLOAD SWAP1 POP SWAP1 JUMP JUMPDEST PUSH1 0x0 DUP1 REVERT JUMPDEST PUSH1 0x0 DUP1 REVERT JUMPDEST PUSH1 0x0 PUSH20 0xFFFFFFFFFFFFFFFFFFFFFFFFFFFFFFFFFFFFFFFF DUP3 AND SWAP1 POP SWAP2 SWAP1 POP JUMP JUMPDEST PUSH1 0x0 PUSH2 0x35F DUP3 PUSH2 0x334 JUMP JUMPDEST SWAP1 POP SWAP2 SWAP1 POP JUMP JUMPDEST PUSH2 0x36F DUP2 PUSH2 0x354 JUMP JUMPDEST DUP2 EQ PUSH2 0x37A JUMPI PUSH1 0x0 DUP1 REVERT JUMPDEST POP JUMP JUMPDEST PUSH1 0x0 DUP2 CALLDATALOAD SWAP1 POP PUSH2 0x38C DUP2 PUSH2 0x366 JUMP JUMPDEST SWAP3 SWAP2 POP POP JUMP JUMPDEST PUSH1 0x0 DUP2 SWAP1 POP SWAP2 SWAP1 POP JUMP JUMPDEST PUSH2 0x3A5 DUP2 PUSH2 0x392 JUMP JUMPDEST DUP2 EQ PUSH2 0x3B0 JUMPI PUSH1 0x0 DUP1 REVERT JUMPDEST POP JUMP JUMPDEST PUSH1 0x0 DUP2 CALLDATALOAD SWAP1 POP PUSH2 0x3C2 DUP2 PUSH2 0x39C JUMP JUMPDEST SWAP3 SWAP2 POP POP JUMP JUMPDEST PUSH1 0x0 DUP1 REVERT JUMPDEST PUSH1 0x0 DUP1 REVERT JUMPDEST PUSH1 0x0 PUSH1 0x1F NOT PUSH1 0x1F DUP4 ADD AND SWAP1 POP SWAP2 SWAP1 POP JUMP JUMPDEST PUSH32 0x4E487B7100000000000000000000000000000000000000000000000000000000 PUSH1 0x0 MSTORE PUSH1 0x41 PUSH1 0x4 MSTORE PUSH1 0x24 PUSH1 0x0 REVERT JUMPDEST PUSH2 0x41B DUP3 PUSH2 0x3D2 JUMP JUMPDEST DUP2 ADD DUP2 DUP2 LT PUSH8 0xFFFFFFFFFFFFFFFF DUP3 GT OR ISZERO PUSH2 0x43A JUMPI PUSH2 0x439 PUSH2 0x3E3 JUMP JUMPDEST JUMPDEST DUP1 PUSH1 0x40 MSTORE POP POP POP JUMP JUMPDEST PUSH1 0x0 PUSH2 0x44D PUSH2 0x320 JUMP JUMPDEST SWAP1 POP PUSH2 0x459 DUP3 DUP3 PUSH2 0x412 JUMP JUMPDEST SWAP2 SWAP1 POP JUMP JUMPDEST PUSH1 0x0 PUSH8 0xFFFFFFFFFFFFFFFF DUP3 GT ISZERO PUSH2 0x479 JUMPI PUSH2 0x478 PUSH2 0x3E3 JUMP JUMPDEST JUMPDEST PUSH2 0x482 DUP3 PUSH2 0x3D2 JUMP JUMPDEST SWAP1 POP PUSH1 0x20 DUP2 ADD SWAP1 POP SWAP2 SWAP1 POP JUMP JUMPDEST DUP3 DUP2 DUP4 CALLDATACOPY PUSH1 0x0 DUP4 DUP4 ADD MSTORE POP POP POP JUMP JUMPDEST PUSH1 0x0 PUSH2 0x4B1 PUSH2 0x4AC DUP5 PUSH2 0x45E JUMP JUMPDEST PUSH2 0x443 JUMP JUMPDEST SWAP1 POP DUP3 DUP2 MSTORE PUSH1 0x20 DUP2 ADD DUP5 DUP5 DUP5 ADD GT ISZERO PUSH2 0x4CD JUMPI PUSH2 0x4CC PUSH2 0x3CD JUMP JUMPDEST JUMPDEST PUSH2 0x4D8 DUP5 DUP3 DUP6 PUSH2 0x48F JUMP JUMPDEST POP SWAP4 SWAP3 POP POP POP JUMP JUMPDEST PUSH1 0x0 DUP3 PUSH1 0x1F DUP4 ADD SLT PUSH2 0x4F5 JUMPI PUSH2 0x4F4 PUSH2 0x3C8 JUMP JUMPDEST JUMPDEST DUP2 CALLDATALOAD PUSH2 0x505 DUP5 DUP3 PUSH1 0x20 DUP7 ADD PUSH2 0x49E JUMP JUMPDEST SWAP2 POP POP SWAP3 SWAP2 POP POP JUMP JUMPDEST PUSH1 0x0 DUP1 PUSH1 0x0 DUP1 PUSH1 0x80 DUP6 DUP8 SUB SLT ISZERO PUSH2 0x528 JUMPI PUSH2 0x527 PUSH2 0x32A JUMP JUMPDEST JUMPDEST PUSH1 0x0 PUSH2 0x536 DUP8 DUP3 DUP9 ADD PUSH2 0x37D JUMP JUMPDEST SWAP5 POP POP PUSH1 0x20 PUSH2 0x547 DUP8 DUP3 DUP9 ADD PUSH2 0x37D JUMP JUMPDEST SWAP4 POP POP PUSH1 0x40 PUSH2 0x558 DUP8 DUP3 DUP9 ADD PUSH2 0x3B3 JUMP JUMPDEST SWAP3 POP POP PUSH1 0x60 DUP6 ADD CALLDATALOAD PUSH8 0xFFFFFFFFFFFFFFFF DUP2 GT ISZERO PUSH2 0x579 JUMPI PUSH2 0x578 PUSH2 0x32F JUMP JUMPDEST JUMPDEST PUSH2 0x585 DUP8 DUP3 DUP9 ADD PUSH2 0x4E0 JUMP JUMPDEST SWAP2 POP POP SWAP3 SWAP6 SWAP2 SWAP5 POP SWAP3 POP JUMP JUMPDEST PUSH1 0x0 PUSH32 0xFFFFFFFF00000000000000000000000000000000000000000000000000000000 DUP3 AND SWAP1 POP SWAP2 SWAP1 POP JUMP JUMPDEST PUSH2 0x5C6 DUP2 PUSH2 0x591 JUMP JUMPDEST DUP3 MSTORE POP POP JUMP JUMPDEST PUSH1 0x0 PUSH1 0x20 DUP3 ADD SWAP1 POP PUSH2 0x5E1 PUSH1 0x0 DUP4 ADD DUP5 PUSH2 0x5BD JUMP JUMPDEST SWAP3 SWAP2 POP POP JUMP JUMPDEST PUSH1 0x0 DUP2 ISZERO ISZERO SWAP1 POP SWAP2 SWAP1 POP JUMP JUMPDEST PUSH2 0x5FC DUP2 PUSH2 0x5E7 JUMP JUMPDEST DUP2 EQ PUSH2 0x607 JUMPI PUSH1 0x0 DUP1 REVERT JUMPDEST POP JUMP JUMPDEST PUSH1 0x0 DUP2 CALLDATALOAD SWAP1 POP PUSH2 0x619 DUP2 PUSH2 0x5F3 JUMP JUMPDEST SWAP3 SWAP2 POP POP JUMP JUMPDEST PUSH1 0x0 DUP1 PUSH1 0x0 PUSH1 0x60 DUP5 DUP7 SUB SLT ISZERO PUSH2 0x638 JUMPI PUSH2 0x637 PUSH2 0x32A JUMP JUMPDEST JUMPDEST PUSH1 0x0 PUSH2 0x646 DUP7 DUP3 DUP8 ADD PUSH2 0x37D JUMP JUMPDEST SWAP4 POP POP PUSH1 0x20 PUSH2 0x657 DUP7 DUP3 DUP8 ADD PUSH2 0x37D JUMP JUMPDEST SWAP3 POP POP PUSH1 0x40 PUSH2 0x668 DUP7 DUP3 DUP8 ADD PUSH2 0x60A JUMP JUMPDEST SWAP2 POP POP SWAP3 POP SWAP3 POP SWAP3 JUMP JUMPDEST PUSH1 0x0 DUP1 PUSH1 0x0 DUP1 PUSH1 0x80 DUP6 DUP8 SUB SLT ISZERO PUSH2 0x68C JUMPI PUSH2 0x68B PUSH2 0x32A JUMP JUMPDEST JUMPDEST PUSH1 0x0 PUSH2 0x69A DUP8 DUP3 DUP9 ADD PUSH2 0x37D JUMP JUMPDEST SWAP5 POP POP PUSH1 0x20 PUSH2 0x6AB DUP8 DUP3 DUP9 ADD PUSH2 0x37D JUMP JUMPDEST SWAP4 POP POP PUSH1 0x40 PUSH2 0x6BC DUP8 DUP3 DUP9 ADD PUSH2 0x37D JUMP JUMPDEST SWAP3 POP POP PUSH1 0x60 PUSH2 0x6CD DUP8 DUP3 DUP9 ADD PUSH2 0x3B3 JUMP JUMPDEST SWAP2 POP POP SWAP3 SWAP6 SWAP2 SWAP5 POP SWAP3 POP JUMP JUMPDEST PUSH1 0x0 DUP1 PUSH1 0x0 PUSH1 0x60 DUP5 DUP7 SUB SLT ISZERO PUSH2 0x6F2 JUMPI PUSH2 0x6F1 PUSH2 0x32A JUMP JUMPDEST JUMPDEST PUSH1 0x0 PUSH2 0x700 DUP7 DUP3 DUP8 ADD PUSH2 0x37D JUMP JUMPDEST SWAP4 POP POP PUSH1 0x20 PUSH2 0x711 DUP7 DUP3 DUP8 ADD PUSH2 0x37D JUMP JUMPDEST SWAP3 POP POP PUSH1 0x40 PUSH2 0x722 DUP7 DUP3 DUP8 ADD PUSH2 0x3B3 JUMP JUMPDEST SWAP2 POP POP SWAP3 POP SWAP3 POP SWAP3 JUMP JUMPDEST PUSH2 0x735 DUP2 PUSH2 0x354 JUMP JUMPDEST DUP3 MSTORE POP POP JUMP JUMPDEST PUSH2 0x744 DUP2 PUSH2 0x5E7 JUMP JUMPDEST DUP3 MSTORE POP POP JUMP JUMPDEST PUSH1 0x0 PUSH1 0x40 DUP3 ADD SWAP1 POP PUSH2 0x75F PUSH1 0x0 DUP4 ADD DUP6 PUSH2 0x72C JUMP JUMPDEST PUSH2 0x76C PUSH1 0x20 DUP4 ADD DUP5 PUSH2 0x73B JUMP JUMPDEST SWAP4 SWAP3 POP POP POP JUMP JUMPDEST PUSH2 0x77C DUP2 PUSH2 0x392 JUMP JUMPDEST DUP3 MSTORE POP POP JUMP JUMPDEST PUSH1 0x0 PUSH1 0x60 DUP3 ADD SWAP1 POP PUSH2 0x797 PUSH1 0x0 DUP4 ADD DUP7 PUSH2 0x72C JUMP JUMPDEST PUSH2 0x7A4 PUSH1 0x20 DUP4 ADD DUP6 PUSH2 0x72C JUMP JUMPDEST PUSH2 0x7B1 PUSH1 0x40 DUP4 ADD DUP5 PUSH2 0x773 JUMP JUMPDEST SWAP5 SWAP4 POP POP POP POP JUMP JUMPDEST PUSH1 0x0 DUP2 MLOAD SWAP1 POP PUSH2 0x7C8 DUP2 PUSH2 0x5F3 JUMP JUMPDEST SWAP3 SWAP2 POP POP JUMP JUMPDEST PUSH1 0x0 PUSH1 0x20 DUP3 DUP5 SUB SLT ISZERO PUSH2 0x7E4 JUMPI PUSH2 0x7E3 PUSH2 0x32A JUMP JUMPDEST JUMPDEST PUSH1 0x0 PUSH2 0x7F2 DUP5 DUP3 DUP6 ADD PUSH2 0x7B9 JUMP JUMPDEST SWAP2 POP POP SWAP3 SWAP2 POP POP JUMP JUMPDEST PUSH1 0x0 PUSH1 0x40 DUP3 ADD SWAP1 POP PUSH2 0x810 PUSH1 0x0 DUP4 ADD DUP6 PUSH2 0x72C JUMP JUMPDEST PUSH2 0x81D PUSH1 0x20 DUP4 ADD DUP5 PUSH2 0x773 JUMP JUMPDEST SWAP4 SWAP3 POP POP POP JUMP INVALID LOG2 PUSH5 0x6970667358 0x22 SLT KECCAK256 0xF8 LOG3 ADDMOD 0xB1 GT CREATE2 0xE7 PUSH31 0xDC9A79E4B70DC53A498FFAE35D1C524A81E1B1FF5E76963764736F6C634300 ADDMOD ADDMOD STOP CALLER "
				},
				"gasEstimates": {
					"creation": {
						"codeDepositCost": "427600",
						"executionCost": "461",
						"totalCost": "428061"
					},
					"external": {
						"adminSendERC721Token(address,address,address,uint256)": "infinite",
						"adminSetApprovalERC20(address,address,uint256)": "infinite",
						"adminSetApprovalERC721ForAll(address,address,bool)": "infinite",
						"adminTransferERC20Token(address,address,address,uint256)": "infinite",
						"onERC721Received(address,address,uint256,bytes)": "infinite"
					},
					"internal": {
						"__ERC721Holder_init()": "infinite",
						"__ERC721Holder_init_unchained()": "infinite"
					}
				},
				"methodIdentifiers": {
					"adminSendERC721Token(address,address,address,uint256)": "5806f47a",
					"adminSetApprovalERC20(address,address,uint256)": "58c0906c",
					"adminSetApprovalERC721ForAll(address,address,bool)": "167d576c",
					"adminTransferERC20Token(address,address,address,uint256)": "27b59ab9",
					"onERC721Received(address,address,uint256,bytes)": "150b7a02"
				}
			},
			"storageLayout": {
				"storage": [
					{
						"astId": 2238,
						"contract": "Ethreum/TokenHolderUpgradeable.sol:TokenHolderUpgradeable",
						"label": "_initialized",
						"offset": 0,
						"slot": "0",
						"type": "t_uint8"
					},
					{
						"astId": 2241,
						"contract": "Ethreum/TokenHolderUpgradeable.sol:TokenHolderUpgradeable",
						"label": "_initializing",
						"offset": 1,
						"slot": "0",
						"type": "t_bool"
					},
					{
						"astId": 1889,
						"contract": "Ethreum/TokenHolderUpgradeable.sol:TokenHolderUpgradeable",
						"label": "__gap",
						"offset": 0,
						"slot": "1",
						"type": "t_array(t_uint256)50_storage"
					}
				],
				"types": {
					"t_array(t_uint256)50_storage": {
						"base": "t_uint256",
						"encoding": "inplace",
						"label": "uint256[50]",
						"numberOfBytes": "1600"
					},
					"t_bool": {
						"encoding": "inplace",
						"label": "bool",
						"numberOfBytes": "1"
					},
					"t_uint256": {
						"encoding": "inplace",
						"label": "uint256",
						"numberOfBytes": "32"
					},
					"t_uint8": {
						"encoding": "inplace",
						"label": "uint8",
						"numberOfBytes": "1"
					}
				}
			},
			"userdoc": {
				"kind": "user",
				"methods": {},
				"version": 1
			}
		}
	}
}