{
	"Ethreum/TokenHolderUpgradeable.sol": {
		"TokenHolderUpgradeable": {
			"abi": [
				{
					"anonymous": false,
					"inputs": [
						{
							"indexed": false,
							"internalType": "uint8",
							"name": "version",
							"type": "uint8"
						}
					],
					"name": "Initialized",
					"type": "event"
				},
				{
					"inputs": [
						{
							"internalType": "address",
							"name": "token",
							"type": "address"
						},
						{
							"internalType": "address",
							"name": "from",
							"type": "address"
						},
						{
							"internalType": "address",
							"name": "to",
							"type": "address"
						},
						{
							"internalType": "uint256",
							"name": "tokenId",
							"type": "uint256"
						}
					],
					"name": "adminSendERC721Token",
					"outputs": [],
					"stateMutability": "nonpayable",
					"type": "function"
				},
				{
					"inputs": [
						{
							"internalType": "address",
							"name": "token",
							"type": "address"
						},
						{
							"internalType": "address",
							"name": "operator",
							"type": "address"
						},
						{
							"internalType": "bool",
							"name": "_approved",
							"type": "bool"
						}
					],
					"name": "adminSetApprovalERC721ForAll",
					"outputs": [],
					"stateMutability": "nonpayable",
					"type": "function"
				},
				{
					"inputs": [
						{
							"internalType": "address",
							"name": "",
							"type": "address"
						},
						{
							"internalType": "address",
							"name": "",
							"type": "address"
						},
						{
							"internalType": "uint256",
							"name": "",
							"type": "uint256"
						},
						{
							"internalType": "bytes",
							"name": "",
							"type": "bytes"
						}
					],
					"name": "onERC721Received",
					"outputs": [
						{
							"internalType": "bytes4",
							"name": "",
							"type": "bytes4"
						}
					],
					"stateMutability": "nonpayable",
					"type": "function"
				}
			],
			"devdoc": {
				"kind": "dev",
				"methods": {
					"onERC721Received(address,address,uint256,bytes)": {
						"details": "See {IERC721Receiver-onERC721Received}. Always returns `IERC721Receiver.onERC721Received.selector`."
					}
				},
				"stateVariables": {
					"__gap": {
						"details": "This empty reserved space is put in place to allow future versions to add new variables without shifting down storage in the inheritance chain. See https://docs.openzeppelin.com/contracts/4.x/upgradeable#storage_gaps"
					}
				},
				"version": 1
			},
			"evm": {
				"assembly": "    /* \"Ethreum/TokenHolderUpgradeable.sol\":196:1706  contract TokenHolderUpgradeable is Initializable, IERC721ReceiverUpgradeable{... */\n  mstore(0x40, 0x80)\n  callvalue\n  dup1\n  iszero\n  tag_1\n  jumpi\n  0x00\n  dup1\n  revert\ntag_1:\n  pop\n  dataSize(sub_0)\n  dup1\n  dataOffset(sub_0)\n  0x00\n  codecopy\n  0x00\n  return\nstop\n\nsub_0: assembly {\n        /* \"Ethreum/TokenHolderUpgradeable.sol\":196:1706  contract TokenHolderUpgradeable is Initializable, IERC721ReceiverUpgradeable{... */\n      mstore(0x40, 0x80)\n      callvalue\n      dup1\n      iszero\n      tag_1\n      jumpi\n      0x00\n      dup1\n      revert\n    tag_1:\n      pop\n      jumpi(tag_2, lt(calldatasize, 0x04))\n      shr(0xe0, calldataload(0x00))\n      dup1\n      0x150b7a02\n      eq\n      tag_3\n      jumpi\n      dup1\n      0x167d576c\n      eq\n      tag_4\n      jumpi\n      dup1\n      0x5806f47a\n      eq\n      tag_5\n      jumpi\n    tag_2:\n      0x00\n      dup1\n      revert\n        /* \"Ethreum/TokenHolderUpgradeable.sol\":580:787  function onERC721Received(... */\n    tag_3:\n      tag_6\n      0x04\n      dup1\n      calldatasize\n      sub\n      dup2\n      add\n      swap1\n      tag_7\n      swap2\n      swap1\n      tag_8\n      jump\t// in\n    tag_7:\n      tag_9\n      jump\t// in\n    tag_6:\n      mload(0x40)\n      tag_10\n      swap2\n      swap1\n      tag_11\n      jump\t// in\n    tag_10:\n      mload(0x40)\n      dup1\n      swap2\n      sub\n      swap1\n      return\n        /* \"Ethreum/TokenHolderUpgradeable.sol\":1106:1319  function adminSetApprovalERC721ForAll(... */\n    tag_4:\n      tag_12\n      0x04\n      dup1\n      calldatasize\n      sub\n      dup2\n      add\n      swap1\n      tag_13\n      swap2\n      swap1\n      tag_14\n      jump\t// in\n    tag_13:\n      tag_15\n      jump\t// in\n    tag_12:\n      stop\n        /* \"Ethreum/TokenHolderUpgradeable.sol\":879:1098  function adminSendERC721Token(... */\n    tag_5:\n      tag_16\n      0x04\n      dup1\n      calldatasize\n      sub\n      dup2\n      add\n      swap1\n      tag_17\n      swap2\n      swap1\n      tag_18\n      jump\t// in\n    tag_17:\n      tag_19\n      jump\t// in\n    tag_16:\n      stop\n        /* \"Ethreum/TokenHolderUpgradeable.sol\":580:787  function onERC721Received(... */\n    tag_9:\n        /* \"Ethreum/TokenHolderUpgradeable.sol\":723:729  bytes4 */\n      0x00\n        /* \"Ethreum/TokenHolderUpgradeable.sol\":749:779  this.onERC721Received.selector */\n      shl(0xe0, 0x150b7a02)\n        /* \"Ethreum/TokenHolderUpgradeable.sol\":742:779  return this.onERC721Received.selector */\n      swap1\n      pop\n        /* \"Ethreum/TokenHolderUpgradeable.sol\":580:787  function onERC721Received(... */\n      swap5\n      swap4\n      pop\n      pop\n      pop\n      pop\n      jump\t// out\n        /* \"Ethreum/TokenHolderUpgradeable.sol\":1106:1319  function adminSetApprovalERC721ForAll(... */\n    tag_15:\n        /* \"Ethreum/TokenHolderUpgradeable.sol\":1266:1271  token */\n      dup3\n        /* \"Ethreum/TokenHolderUpgradeable.sol\":1248:1290  ERC721Upgradeable(token).setApprovalForAll */\n      0xffffffffffffffffffffffffffffffffffffffff\n      and\n      0xa22cb465\n        /* \"Ethreum/TokenHolderUpgradeable.sol\":1291:1299  operator */\n      dup4\n        /* \"Ethreum/TokenHolderUpgradeable.sol\":1301:1310  _approved */\n      dup4\n        /* \"Ethreum/TokenHolderUpgradeable.sol\":1248:1311  ERC721Upgradeable(token).setApprovalForAll(operator, _approved) */\n      mload(0x40)\n      dup4\n      0xffffffff\n      and\n      0xe0\n      shl\n      dup2\n      mstore\n      0x04\n      add\n      tag_22\n      swap3\n      swap2\n      swap1\n      tag_23\n      jump\t// in\n    tag_22:\n      0x00\n      mload(0x40)\n      dup1\n      dup4\n      sub\n      dup2\n      0x00\n      dup8\n      dup1\n      extcodesize\n      iszero\n      dup1\n      iszero\n      tag_24\n      jumpi\n      0x00\n      dup1\n      revert\n    tag_24:\n      pop\n      gas\n      call\n      iszero\n      dup1\n      iszero\n      tag_26\n      jumpi\n      returndatasize\n      0x00\n      dup1\n      returndatacopy\n      revert(0x00, returndatasize)\n    tag_26:\n      pop\n      pop\n      pop\n      pop\n        /* \"Ethreum/TokenHolderUpgradeable.sol\":1106:1319  function adminSetApprovalERC721ForAll(... */\n      pop\n      pop\n      pop\n      jump\t// out\n        /* \"Ethreum/TokenHolderUpgradeable.sol\":879:1098  function adminSendERC721Token(... */\n    tag_19:\n        /* \"Ethreum/TokenHolderUpgradeable.sol\":1048:1053  token */\n      dup4\n        /* \"Ethreum/TokenHolderUpgradeable.sol\":1030:1071  ERC721Upgradeable(token).safeTransferFrom */\n      0xffffffffffffffffffffffffffffffffffffffff\n      and\n      0x42842e0e\n        /* \"Ethreum/TokenHolderUpgradeable.sol\":1072:1076  from */\n      dup5\n        /* \"Ethreum/TokenHolderUpgradeable.sol\":1078:1080  to */\n      dup5\n        /* \"Ethreum/TokenHolderUpgradeable.sol\":1082:1089  tokenId */\n      dup5\n        /* \"Ethreum/TokenHolderUpgradeable.sol\":1030:1090  ERC721Upgradeable(token).safeTransferFrom(from, to, tokenId) */\n      mload(0x40)\n      dup5\n      0xffffffff\n      and\n      0xe0\n      shl\n      dup2\n      mstore\n      0x04\n      add\n      tag_28\n      swap4\n      swap3\n      swap2\n      swap1\n      tag_29\n      jump\t// in\n    tag_28:\n      0x00\n      mload(0x40)\n      dup1\n      dup4\n      sub\n      dup2\n      0x00\n      dup8\n      dup1\n      extcodesize\n      iszero\n      dup1\n      iszero\n      tag_30\n      jumpi\n      0x00\n      dup1\n      revert\n    tag_30:\n      pop\n      gas\n      call\n      iszero\n      dup1\n      iszero\n      tag_32\n      jumpi\n      returndatasize\n      0x00\n      dup1\n      returndatacopy\n      revert(0x00, returndatasize)\n    tag_32:\n      pop\n      pop\n      pop\n      pop\n        /* \"Ethreum/TokenHolderUpgradeable.sol\":879:1098  function adminSendERC721Token(... */\n      pop\n      pop\n      pop\n      pop\n      jump\t// out\n        /* \"#utility.yul\":7:82   */\n    tag_33:\n        /* \"#utility.yul\":40:46   */\n      0x00\n        /* \"#utility.yul\":73:75   */\n      0x40\n        /* \"#utility.yul\":67:76   */\n      mload\n        /* \"#utility.yul\":57:76   */\n      swap1\n      pop\n        /* \"#utility.yul\":7:82   */\n      swap1\n      jump\t// out\n        /* \"#utility.yul\":88:205   */\n    tag_34:\n        /* \"#utility.yul\":197:198   */\n      0x00\n        /* \"#utility.yul\":194:195   */\n      dup1\n        /* \"#utility.yul\":187:199   */\n      revert\n        /* \"#utility.yul\":211:328   */\n    tag_35:\n        /* \"#utility.yul\":320:321   */\n      0x00\n        /* \"#utility.yul\":317:318   */\n      dup1\n        /* \"#utility.yul\":310:322   */\n      revert\n        /* \"#utility.yul\":334:460   */\n    tag_36:\n        /* \"#utility.yul\":371:378   */\n      0x00\n        /* \"#utility.yul\":411:453   */\n      0xffffffffffffffffffffffffffffffffffffffff\n        /* \"#utility.yul\":404:409   */\n      dup3\n        /* \"#utility.yul\":400:454   */\n      and\n        /* \"#utility.yul\":389:454   */\n      swap1\n      pop\n        /* \"#utility.yul\":334:460   */\n      swap2\n      swap1\n      pop\n      jump\t// out\n        /* \"#utility.yul\":466:562   */\n    tag_37:\n        /* \"#utility.yul\":503:510   */\n      0x00\n        /* \"#utility.yul\":532:556   */\n      tag_67\n        /* \"#utility.yul\":550:555   */\n      dup3\n        /* \"#utility.yul\":532:556   */\n      tag_36\n      jump\t// in\n    tag_67:\n        /* \"#utility.yul\":521:556   */\n      swap1\n      pop\n        /* \"#utility.yul\":466:562   */\n      swap2\n      swap1\n      pop\n      jump\t// out\n        /* \"#utility.yul\":568:690   */\n    tag_38:\n        /* \"#utility.yul\":641:665   */\n      tag_69\n        /* \"#utility.yul\":659:664   */\n      dup2\n        /* \"#utility.yul\":641:665   */\n      tag_37\n      jump\t// in\n    tag_69:\n        /* \"#utility.yul\":634:639   */\n      dup2\n        /* \"#utility.yul\":631:666   */\n      eq\n        /* \"#utility.yul\":621:684   */\n      tag_70\n      jumpi\n        /* \"#utility.yul\":680:681   */\n      0x00\n        /* \"#utility.yul\":677:678   */\n      dup1\n        /* \"#utility.yul\":670:682   */\n      revert\n        /* \"#utility.yul\":621:684   */\n    tag_70:\n        /* \"#utility.yul\":568:690   */\n      pop\n      jump\t// out\n        /* \"#utility.yul\":696:835   */\n    tag_39:\n        /* \"#utility.yul\":742:747   */\n      0x00\n        /* \"#utility.yul\":780:786   */\n      dup2\n        /* \"#utility.yul\":767:787   */\n      calldataload\n        /* \"#utility.yul\":758:787   */\n      swap1\n      pop\n        /* \"#utility.yul\":796:829   */\n      tag_72\n        /* \"#utility.yul\":823:828   */\n      dup2\n        /* \"#utility.yul\":796:829   */\n      tag_38\n      jump\t// in\n    tag_72:\n        /* \"#utility.yul\":696:835   */\n      swap3\n      swap2\n      pop\n      pop\n      jump\t// out\n        /* \"#utility.yul\":841:918   */\n    tag_40:\n        /* \"#utility.yul\":878:885   */\n      0x00\n        /* \"#utility.yul\":907:912   */\n      dup2\n        /* \"#utility.yul\":896:912   */\n      swap1\n      pop\n        /* \"#utility.yul\":841:918   */\n      swap2\n      swap1\n      pop\n      jump\t// out\n        /* \"#utility.yul\":924:1046   */\n    tag_41:\n        /* \"#utility.yul\":997:1021   */\n      tag_75\n        /* \"#utility.yul\":1015:1020   */\n      dup2\n        /* \"#utility.yul\":997:1021   */\n      tag_40\n      jump\t// in\n    tag_75:\n        /* \"#utility.yul\":990:995   */\n      dup2\n        /* \"#utility.yul\":987:1022   */\n      eq\n        /* \"#utility.yul\":977:1040   */\n      tag_76\n      jumpi\n        /* \"#utility.yul\":1036:1037   */\n      0x00\n        /* \"#utility.yul\":1033:1034   */\n      dup1\n        /* \"#utility.yul\":1026:1038   */\n      revert\n        /* \"#utility.yul\":977:1040   */\n    tag_76:\n        /* \"#utility.yul\":924:1046   */\n      pop\n      jump\t// out\n        /* \"#utility.yul\":1052:1191   */\n    tag_42:\n        /* \"#utility.yul\":1098:1103   */\n      0x00\n        /* \"#utility.yul\":1136:1142   */\n      dup2\n        /* \"#utility.yul\":1123:1143   */\n      calldataload\n        /* \"#utility.yul\":1114:1143   */\n      swap1\n      pop\n        /* \"#utility.yul\":1152:1185   */\n      tag_78\n        /* \"#utility.yul\":1179:1184   */\n      dup2\n        /* \"#utility.yul\":1152:1185   */\n      tag_41\n      jump\t// in\n    tag_78:\n        /* \"#utility.yul\":1052:1191   */\n      swap3\n      swap2\n      pop\n      pop\n      jump\t// out\n        /* \"#utility.yul\":1197:1314   */\n    tag_43:\n        /* \"#utility.yul\":1306:1307   */\n      0x00\n        /* \"#utility.yul\":1303:1304   */\n      dup1\n        /* \"#utility.yul\":1296:1308   */\n      revert\n        /* \"#utility.yul\":1320:1437   */\n    tag_44:\n        /* \"#utility.yul\":1429:1430   */\n      0x00\n        /* \"#utility.yul\":1426:1427   */\n      dup1\n        /* \"#utility.yul\":1419:1431   */\n      revert\n        /* \"#utility.yul\":1443:1545   */\n    tag_45:\n        /* \"#utility.yul\":1484:1490   */\n      0x00\n        /* \"#utility.yul\":1535:1537   */\n      0x1f\n        /* \"#utility.yul\":1531:1538   */\n      not\n        /* \"#utility.yul\":1526:1528   */\n      0x1f\n        /* \"#utility.yul\":1519:1524   */\n      dup4\n        /* \"#utility.yul\":1515:1529   */\n      add\n        /* \"#utility.yul\":1511:1539   */\n      and\n        /* \"#utility.yul\":1501:1539   */\n      swap1\n      pop\n        /* \"#utility.yul\":1443:1545   */\n      swap2\n      swap1\n      pop\n      jump\t// out\n        /* \"#utility.yul\":1551:1731   */\n    tag_46:\n        /* \"#utility.yul\":1599:1676   */\n      0x4e487b7100000000000000000000000000000000000000000000000000000000\n        /* \"#utility.yul\":1596:1597   */\n      0x00\n        /* \"#utility.yul\":1589:1677   */\n      mstore\n        /* \"#utility.yul\":1696:1700   */\n      0x41\n        /* \"#utility.yul\":1693:1694   */\n      0x04\n        /* \"#utility.yul\":1686:1701   */\n      mstore\n        /* \"#utility.yul\":1720:1724   */\n      0x24\n        /* \"#utility.yul\":1717:1718   */\n      0x00\n        /* \"#utility.yul\":1710:1725   */\n      revert\n        /* \"#utility.yul\":1737:2018   */\n    tag_47:\n        /* \"#utility.yul\":1820:1847   */\n      tag_84\n        /* \"#utility.yul\":1842:1846   */\n      dup3\n        /* \"#utility.yul\":1820:1847   */\n      tag_45\n      jump\t// in\n    tag_84:\n        /* \"#utility.yul\":1812:1818   */\n      dup2\n        /* \"#utility.yul\":1808:1848   */\n      add\n        /* \"#utility.yul\":1950:1956   */\n      dup2\n        /* \"#utility.yul\":1938:1948   */\n      dup2\n        /* \"#utility.yul\":1935:1957   */\n      lt\n        /* \"#utility.yul\":1914:1932   */\n      0xffffffffffffffff\n        /* \"#utility.yul\":1902:1912   */\n      dup3\n        /* \"#utility.yul\":1899:1933   */\n      gt\n        /* \"#utility.yul\":1896:1958   */\n      or\n        /* \"#utility.yul\":1893:1981   */\n      iszero\n      tag_85\n      jumpi\n        /* \"#utility.yul\":1961:1979   */\n      tag_86\n      tag_46\n      jump\t// in\n    tag_86:\n        /* \"#utility.yul\":1893:1981   */\n    tag_85:\n        /* \"#utility.yul\":2001:2011   */\n      dup1\n        /* \"#utility.yul\":1997:1999   */\n      0x40\n        /* \"#utility.yul\":1990:2012   */\n      mstore\n        /* \"#utility.yul\":1780:2018   */\n      pop\n        /* \"#utility.yul\":1737:2018   */\n      pop\n      pop\n      jump\t// out\n        /* \"#utility.yul\":2024:2153   */\n    tag_48:\n        /* \"#utility.yul\":2058:2064   */\n      0x00\n        /* \"#utility.yul\":2085:2105   */\n      tag_88\n      tag_33\n      jump\t// in\n    tag_88:\n        /* \"#utility.yul\":2075:2105   */\n      swap1\n      pop\n        /* \"#utility.yul\":2114:2147   */\n      tag_89\n        /* \"#utility.yul\":2142:2146   */\n      dup3\n        /* \"#utility.yul\":2134:2140   */\n      dup3\n        /* \"#utility.yul\":2114:2147   */\n      tag_47\n      jump\t// in\n    tag_89:\n        /* \"#utility.yul\":2024:2153   */\n      swap2\n      swap1\n      pop\n      jump\t// out\n        /* \"#utility.yul\":2159:2466   */\n    tag_49:\n        /* \"#utility.yul\":2220:2224   */\n      0x00\n        /* \"#utility.yul\":2310:2328   */\n      0xffffffffffffffff\n        /* \"#utility.yul\":2302:2308   */\n      dup3\n        /* \"#utility.yul\":2299:2329   */\n      gt\n        /* \"#utility.yul\":2296:2352   */\n      iszero\n      tag_91\n      jumpi\n        /* \"#utility.yul\":2332:2350   */\n      tag_92\n      tag_46\n      jump\t// in\n    tag_92:\n        /* \"#utility.yul\":2296:2352   */\n    tag_91:\n        /* \"#utility.yul\":2370:2399   */\n      tag_93\n        /* \"#utility.yul\":2392:2398   */\n      dup3\n        /* \"#utility.yul\":2370:2399   */\n      tag_45\n      jump\t// in\n    tag_93:\n        /* \"#utility.yul\":2362:2399   */\n      swap1\n      pop\n        /* \"#utility.yul\":2454:2458   */\n      0x20\n        /* \"#utility.yul\":2448:2452   */\n      dup2\n        /* \"#utility.yul\":2444:2459   */\n      add\n        /* \"#utility.yul\":2436:2459   */\n      swap1\n      pop\n        /* \"#utility.yul\":2159:2466   */\n      swap2\n      swap1\n      pop\n      jump\t// out\n        /* \"#utility.yul\":2472:2626   */\n    tag_50:\n        /* \"#utility.yul\":2556:2562   */\n      dup3\n        /* \"#utility.yul\":2551:2554   */\n      dup2\n        /* \"#utility.yul\":2546:2549   */\n      dup4\n        /* \"#utility.yul\":2533:2563   */\n      calldatacopy\n        /* \"#utility.yul\":2618:2619   */\n      0x00\n        /* \"#utility.yul\":2609:2615   */\n      dup4\n        /* \"#utility.yul\":2604:2607   */\n      dup4\n        /* \"#utility.yul\":2600:2616   */\n      add\n        /* \"#utility.yul\":2593:2620   */\n      mstore\n        /* \"#utility.yul\":2472:2626   */\n      pop\n      pop\n      pop\n      jump\t// out\n        /* \"#utility.yul\":2632:3042   */\n    tag_51:\n        /* \"#utility.yul\":2709:2714   */\n      0x00\n        /* \"#utility.yul\":2734:2799   */\n      tag_96\n        /* \"#utility.yul\":2750:2798   */\n      tag_97\n        /* \"#utility.yul\":2791:2797   */\n      dup5\n        /* \"#utility.yul\":2750:2798   */\n      tag_49\n      jump\t// in\n    tag_97:\n        /* \"#utility.yul\":2734:2799   */\n      tag_48\n      jump\t// in\n    tag_96:\n        /* \"#utility.yul\":2725:2799   */\n      swap1\n      pop\n        /* \"#utility.yul\":2822:2828   */\n      dup3\n        /* \"#utility.yul\":2815:2820   */\n      dup2\n        /* \"#utility.yul\":2808:2829   */\n      mstore\n        /* \"#utility.yul\":2860:2864   */\n      0x20\n        /* \"#utility.yul\":2853:2858   */\n      dup2\n        /* \"#utility.yul\":2849:2865   */\n      add\n        /* \"#utility.yul\":2898:2901   */\n      dup5\n        /* \"#utility.yul\":2889:2895   */\n      dup5\n        /* \"#utility.yul\":2884:2887   */\n      dup5\n        /* \"#utility.yul\":2880:2896   */\n      add\n        /* \"#utility.yul\":2877:2902   */\n      gt\n        /* \"#utility.yul\":2874:2986   */\n      iszero\n      tag_98\n      jumpi\n        /* \"#utility.yul\":2905:2984   */\n      tag_99\n      tag_44\n      jump\t// in\n    tag_99:\n        /* \"#utility.yul\":2874:2986   */\n    tag_98:\n        /* \"#utility.yul\":2995:3036   */\n      tag_100\n        /* \"#utility.yul\":3029:3035   */\n      dup5\n        /* \"#utility.yul\":3024:3027   */\n      dup3\n        /* \"#utility.yul\":3019:3022   */\n      dup6\n        /* \"#utility.yul\":2995:3036   */\n      tag_50\n      jump\t// in\n    tag_100:\n        /* \"#utility.yul\":2715:3042   */\n      pop\n        /* \"#utility.yul\":2632:3042   */\n      swap4\n      swap3\n      pop\n      pop\n      pop\n      jump\t// out\n        /* \"#utility.yul\":3061:3399   */\n    tag_52:\n        /* \"#utility.yul\":3116:3121   */\n      0x00\n        /* \"#utility.yul\":3165:3168   */\n      dup3\n        /* \"#utility.yul\":3158:3162   */\n      0x1f\n        /* \"#utility.yul\":3150:3156   */\n      dup4\n        /* \"#utility.yul\":3146:3163   */\n      add\n        /* \"#utility.yul\":3142:3169   */\n      slt\n        /* \"#utility.yul\":3132:3254   */\n      tag_102\n      jumpi\n        /* \"#utility.yul\":3173:3252   */\n      tag_103\n      tag_43\n      jump\t// in\n    tag_103:\n        /* \"#utility.yul\":3132:3254   */\n    tag_102:\n        /* \"#utility.yul\":3290:3296   */\n      dup2\n        /* \"#utility.yul\":3277:3297   */\n      calldataload\n        /* \"#utility.yul\":3315:3393   */\n      tag_104\n        /* \"#utility.yul\":3389:3392   */\n      dup5\n        /* \"#utility.yul\":3381:3387   */\n      dup3\n        /* \"#utility.yul\":3374:3378   */\n      0x20\n        /* \"#utility.yul\":3366:3372   */\n      dup7\n        /* \"#utility.yul\":3362:3379   */\n      add\n        /* \"#utility.yul\":3315:3393   */\n      tag_51\n      jump\t// in\n    tag_104:\n        /* \"#utility.yul\":3306:3393   */\n      swap2\n      pop\n        /* \"#utility.yul\":3122:3399   */\n      pop\n        /* \"#utility.yul\":3061:3399   */\n      swap3\n      swap2\n      pop\n      pop\n      jump\t// out\n        /* \"#utility.yul\":3405:4348   */\n    tag_8:\n        /* \"#utility.yul\":3500:3506   */\n      0x00\n        /* \"#utility.yul\":3508:3514   */\n      dup1\n        /* \"#utility.yul\":3516:3522   */\n      0x00\n        /* \"#utility.yul\":3524:3530   */\n      dup1\n        /* \"#utility.yul\":3573:3576   */\n      0x80\n        /* \"#utility.yul\":3561:3570   */\n      dup6\n        /* \"#utility.yul\":3552:3559   */\n      dup8\n        /* \"#utility.yul\":3548:3571   */\n      sub\n        /* \"#utility.yul\":3544:3577   */\n      slt\n        /* \"#utility.yul\":3541:3661   */\n      iszero\n      tag_106\n      jumpi\n        /* \"#utility.yul\":3580:3659   */\n      tag_107\n      tag_34\n      jump\t// in\n    tag_107:\n        /* \"#utility.yul\":3541:3661   */\n    tag_106:\n        /* \"#utility.yul\":3700:3701   */\n      0x00\n        /* \"#utility.yul\":3725:3778   */\n      tag_108\n        /* \"#utility.yul\":3770:3777   */\n      dup8\n        /* \"#utility.yul\":3761:3767   */\n      dup3\n        /* \"#utility.yul\":3750:3759   */\n      dup9\n        /* \"#utility.yul\":3746:3768   */\n      add\n        /* \"#utility.yul\":3725:3778   */\n      tag_39\n      jump\t// in\n    tag_108:\n        /* \"#utility.yul\":3715:3778   */\n      swap5\n      pop\n        /* \"#utility.yul\":3671:3788   */\n      pop\n        /* \"#utility.yul\":3827:3829   */\n      0x20\n        /* \"#utility.yul\":3853:3906   */\n      tag_109\n        /* \"#utility.yul\":3898:3905   */\n      dup8\n        /* \"#utility.yul\":3889:3895   */\n      dup3\n        /* \"#utility.yul\":3878:3887   */\n      dup9\n        /* \"#utility.yul\":3874:3896   */\n      add\n        /* \"#utility.yul\":3853:3906   */\n      tag_39\n      jump\t// in\n    tag_109:\n        /* \"#utility.yul\":3843:3906   */\n      swap4\n      pop\n        /* \"#utility.yul\":3798:3916   */\n      pop\n        /* \"#utility.yul\":3955:3957   */\n      0x40\n        /* \"#utility.yul\":3981:4034   */\n      tag_110\n        /* \"#utility.yul\":4026:4033   */\n      dup8\n        /* \"#utility.yul\":4017:4023   */\n      dup3\n        /* \"#utility.yul\":4006:4015   */\n      dup9\n        /* \"#utility.yul\":4002:4024   */\n      add\n        /* \"#utility.yul\":3981:4034   */\n      tag_42\n      jump\t// in\n    tag_110:\n        /* \"#utility.yul\":3971:4034   */\n      swap3\n      pop\n        /* \"#utility.yul\":3926:4044   */\n      pop\n        /* \"#utility.yul\":4111:4113   */\n      0x60\n        /* \"#utility.yul\":4100:4109   */\n      dup6\n        /* \"#utility.yul\":4096:4114   */\n      add\n        /* \"#utility.yul\":4083:4115   */\n      calldataload\n        /* \"#utility.yul\":4142:4160   */\n      0xffffffffffffffff\n        /* \"#utility.yul\":4134:4140   */\n      dup2\n        /* \"#utility.yul\":4131:4161   */\n      gt\n        /* \"#utility.yul\":4128:4245   */\n      iszero\n      tag_111\n      jumpi\n        /* \"#utility.yul\":4164:4243   */\n      tag_112\n      tag_35\n      jump\t// in\n    tag_112:\n        /* \"#utility.yul\":4128:4245   */\n    tag_111:\n        /* \"#utility.yul\":4269:4331   */\n      tag_113\n        /* \"#utility.yul\":4323:4330   */\n      dup8\n        /* \"#utility.yul\":4314:4320   */\n      dup3\n        /* \"#utility.yul\":4303:4312   */\n      dup9\n        /* \"#utility.yul\":4299:4321   */\n      add\n        /* \"#utility.yul\":4269:4331   */\n      tag_52\n      jump\t// in\n    tag_113:\n        /* \"#utility.yul\":4259:4331   */\n      swap2\n      pop\n        /* \"#utility.yul\":4054:4341   */\n      pop\n        /* \"#utility.yul\":3405:4348   */\n      swap3\n      swap6\n      swap2\n      swap5\n      pop\n      swap3\n      pop\n      jump\t// out\n        /* \"#utility.yul\":4354:4503   */\n    tag_53:\n        /* \"#utility.yul\":4390:4397   */\n      0x00\n        /* \"#utility.yul\":4430:4496   */\n      0xffffffff00000000000000000000000000000000000000000000000000000000\n        /* \"#utility.yul\":4423:4428   */\n      dup3\n        /* \"#utility.yul\":4419:4497   */\n      and\n        /* \"#utility.yul\":4408:4497   */\n      swap1\n      pop\n        /* \"#utility.yul\":4354:4503   */\n      swap2\n      swap1\n      pop\n      jump\t// out\n        /* \"#utility.yul\":4509:4624   */\n    tag_54:\n        /* \"#utility.yul\":4594:4617   */\n      tag_116\n        /* \"#utility.yul\":4611:4616   */\n      dup2\n        /* \"#utility.yul\":4594:4617   */\n      tag_53\n      jump\t// in\n    tag_116:\n        /* \"#utility.yul\":4589:4592   */\n      dup3\n        /* \"#utility.yul\":4582:4618   */\n      mstore\n        /* \"#utility.yul\":4509:4624   */\n      pop\n      pop\n      jump\t// out\n        /* \"#utility.yul\":4630:4848   */\n    tag_11:\n        /* \"#utility.yul\":4721:4725   */\n      0x00\n        /* \"#utility.yul\":4759:4761   */\n      0x20\n        /* \"#utility.yul\":4748:4757   */\n      dup3\n        /* \"#utility.yul\":4744:4762   */\n      add\n        /* \"#utility.yul\":4736:4762   */\n      swap1\n      pop\n        /* \"#utility.yul\":4772:4841   */\n      tag_118\n        /* \"#utility.yul\":4838:4839   */\n      0x00\n        /* \"#utility.yul\":4827:4836   */\n      dup4\n        /* \"#utility.yul\":4823:4840   */\n      add\n        /* \"#utility.yul\":4814:4820   */\n      dup5\n        /* \"#utility.yul\":4772:4841   */\n      tag_54\n      jump\t// in\n    tag_118:\n        /* \"#utility.yul\":4630:4848   */\n      swap3\n      swap2\n      pop\n      pop\n      jump\t// out\n        /* \"#utility.yul\":4854:4944   */\n    tag_55:\n        /* \"#utility.yul\":4888:4895   */\n      0x00\n        /* \"#utility.yul\":4931:4936   */\n      dup2\n        /* \"#utility.yul\":4924:4937   */\n      iszero\n        /* \"#utility.yul\":4917:4938   */\n      iszero\n        /* \"#utility.yul\":4906:4938   */\n      swap1\n      pop\n        /* \"#utility.yul\":4854:4944   */\n      swap2\n      swap1\n      pop\n      jump\t// out\n        /* \"#utility.yul\":4950:5066   */\n    tag_56:\n        /* \"#utility.yul\":5020:5041   */\n      tag_121\n        /* \"#utility.yul\":5035:5040   */\n      dup2\n        /* \"#utility.yul\":5020:5041   */\n      tag_55\n      jump\t// in\n    tag_121:\n        /* \"#utility.yul\":5013:5018   */\n      dup2\n        /* \"#utility.yul\":5010:5042   */\n      eq\n        /* \"#utility.yul\":5000:5060   */\n      tag_122\n      jumpi\n        /* \"#utility.yul\":5056:5057   */\n      0x00\n        /* \"#utility.yul\":5053:5054   */\n      dup1\n        /* \"#utility.yul\":5046:5058   */\n      revert\n        /* \"#utility.yul\":5000:5060   */\n    tag_122:\n        /* \"#utility.yul\":4950:5066   */\n      pop\n      jump\t// out\n        /* \"#utility.yul\":5072:5205   */\n    tag_57:\n        /* \"#utility.yul\":5115:5120   */\n      0x00\n        /* \"#utility.yul\":5153:5159   */\n      dup2\n        /* \"#utility.yul\":5140:5160   */\n      calldataload\n        /* \"#utility.yul\":5131:5160   */\n      swap1\n      pop\n        /* \"#utility.yul\":5169:5199   */\n      tag_124\n        /* \"#utility.yul\":5193:5198   */\n      dup2\n        /* \"#utility.yul\":5169:5199   */\n      tag_56\n      jump\t// in\n    tag_124:\n        /* \"#utility.yul\":5072:5205   */\n      swap3\n      swap2\n      pop\n      pop\n      jump\t// out\n        /* \"#utility.yul\":5211:5824   */\n    tag_14:\n        /* \"#utility.yul\":5285:5291   */\n      0x00\n        /* \"#utility.yul\":5293:5299   */\n      dup1\n        /* \"#utility.yul\":5301:5307   */\n      0x00\n        /* \"#utility.yul\":5350:5352   */\n      0x60\n        /* \"#utility.yul\":5338:5347   */\n      dup5\n        /* \"#utility.yul\":5329:5336   */\n      dup7\n        /* \"#utility.yul\":5325:5348   */\n      sub\n        /* \"#utility.yul\":5321:5353   */\n      slt\n        /* \"#utility.yul\":5318:5437   */\n      iszero\n      tag_126\n      jumpi\n        /* \"#utility.yul\":5356:5435   */\n      tag_127\n      tag_34\n      jump\t// in\n    tag_127:\n        /* \"#utility.yul\":5318:5437   */\n    tag_126:\n        /* \"#utility.yul\":5476:5477   */\n      0x00\n        /* \"#utility.yul\":5501:5554   */\n      tag_128\n        /* \"#utility.yul\":5546:5553   */\n      dup7\n        /* \"#utility.yul\":5537:5543   */\n      dup3\n        /* \"#utility.yul\":5526:5535   */\n      dup8\n        /* \"#utility.yul\":5522:5544   */\n      add\n        /* \"#utility.yul\":5501:5554   */\n      tag_39\n      jump\t// in\n    tag_128:\n        /* \"#utility.yul\":5491:5554   */\n      swap4\n      pop\n        /* \"#utility.yul\":5447:5564   */\n      pop\n        /* \"#utility.yul\":5603:5605   */\n      0x20\n        /* \"#utility.yul\":5629:5682   */\n      tag_129\n        /* \"#utility.yul\":5674:5681   */\n      dup7\n        /* \"#utility.yul\":5665:5671   */\n      dup3\n        /* \"#utility.yul\":5654:5663   */\n      dup8\n        /* \"#utility.yul\":5650:5672   */\n      add\n        /* \"#utility.yul\":5629:5682   */\n      tag_39\n      jump\t// in\n    tag_129:\n        /* \"#utility.yul\":5619:5682   */\n      swap3\n      pop\n        /* \"#utility.yul\":5574:5692   */\n      pop\n        /* \"#utility.yul\":5731:5733   */\n      0x40\n        /* \"#utility.yul\":5757:5807   */\n      tag_130\n        /* \"#utility.yul\":5799:5806   */\n      dup7\n        /* \"#utility.yul\":5790:5796   */\n      dup3\n        /* \"#utility.yul\":5779:5788   */\n      dup8\n        /* \"#utility.yul\":5775:5797   */\n      add\n        /* \"#utility.yul\":5757:5807   */\n      tag_57\n      jump\t// in\n    tag_130:\n        /* \"#utility.yul\":5747:5807   */\n      swap2\n      pop\n        /* \"#utility.yul\":5702:5817   */\n      pop\n        /* \"#utility.yul\":5211:5824   */\n      swap3\n      pop\n      swap3\n      pop\n      swap3\n      jump\t// out\n        /* \"#utility.yul\":5830:6595   */\n    tag_18:\n        /* \"#utility.yul\":5916:5922   */\n      0x00\n        /* \"#utility.yul\":5924:5930   */\n      dup1\n        /* \"#utility.yul\":5932:5938   */\n      0x00\n        /* \"#utility.yul\":5940:5946   */\n      dup1\n        /* \"#utility.yul\":5989:5992   */\n      0x80\n        /* \"#utility.yul\":5977:5986   */\n      dup6\n        /* \"#utility.yul\":5968:5975   */\n      dup8\n        /* \"#utility.yul\":5964:5987   */\n      sub\n        /* \"#utility.yul\":5960:5993   */\n      slt\n        /* \"#utility.yul\":5957:6077   */\n      iszero\n      tag_132\n      jumpi\n        /* \"#utility.yul\":5996:6075   */\n      tag_133\n      tag_34\n      jump\t// in\n    tag_133:\n        /* \"#utility.yul\":5957:6077   */\n    tag_132:\n        /* \"#utility.yul\":6116:6117   */\n      0x00\n        /* \"#utility.yul\":6141:6194   */\n      tag_134\n        /* \"#utility.yul\":6186:6193   */\n      dup8\n        /* \"#utility.yul\":6177:6183   */\n      dup3\n        /* \"#utility.yul\":6166:6175   */\n      dup9\n        /* \"#utility.yul\":6162:6184   */\n      add\n        /* \"#utility.yul\":6141:6194   */\n      tag_39\n      jump\t// in\n    tag_134:\n        /* \"#utility.yul\":6131:6194   */\n      swap5\n      pop\n        /* \"#utility.yul\":6087:6204   */\n      pop\n        /* \"#utility.yul\":6243:6245   */\n      0x20\n        /* \"#utility.yul\":6269:6322   */\n      tag_135\n        /* \"#utility.yul\":6314:6321   */\n      dup8\n        /* \"#utility.yul\":6305:6311   */\n      dup3\n        /* \"#utility.yul\":6294:6303   */\n      dup9\n        /* \"#utility.yul\":6290:6312   */\n      add\n        /* \"#utility.yul\":6269:6322   */\n      tag_39\n      jump\t// in\n    tag_135:\n        /* \"#utility.yul\":6259:6322   */\n      swap4\n      pop\n        /* \"#utility.yul\":6214:6332   */\n      pop\n        /* \"#utility.yul\":6371:6373   */\n      0x40\n        /* \"#utility.yul\":6397:6450   */\n      tag_136\n        /* \"#utility.yul\":6442:6449   */\n      dup8\n        /* \"#utility.yul\":6433:6439   */\n      dup3\n        /* \"#utility.yul\":6422:6431   */\n      dup9\n        /* \"#utility.yul\":6418:6440   */\n      add\n        /* \"#utility.yul\":6397:6450   */\n      tag_39\n      jump\t// in\n    tag_136:\n        /* \"#utility.yul\":6387:6450   */\n      swap3\n      pop\n        /* \"#utility.yul\":6342:6460   */\n      pop\n        /* \"#utility.yul\":6499:6501   */\n      0x60\n        /* \"#utility.yul\":6525:6578   */\n      tag_137\n        /* \"#utility.yul\":6570:6577   */\n      dup8\n        /* \"#utility.yul\":6561:6567   */\n      dup3\n        /* \"#utility.yul\":6550:6559   */\n      dup9\n        /* \"#utility.yul\":6546:6568   */\n      add\n        /* \"#utility.yul\":6525:6578   */\n      tag_42\n      jump\t// in\n    tag_137:\n        /* \"#utility.yul\":6515:6578   */\n      swap2\n      pop\n        /* \"#utility.yul\":6470:6588   */\n      pop\n        /* \"#utility.yul\":5830:6595   */\n      swap3\n      swap6\n      swap2\n      swap5\n      pop\n      swap3\n      pop\n      jump\t// out\n        /* \"#utility.yul\":6601:6719   */\n    tag_58:\n        /* \"#utility.yul\":6688:6712   */\n      tag_139\n        /* \"#utility.yul\":6706:6711   */\n      dup2\n        /* \"#utility.yul\":6688:6712   */\n      tag_37\n      jump\t// in\n    tag_139:\n        /* \"#utility.yul\":6683:6686   */\n      dup3\n        /* \"#utility.yul\":6676:6713   */\n      mstore\n        /* \"#utility.yul\":6601:6719   */\n      pop\n      pop\n      jump\t// out\n        /* \"#utility.yul\":6725:6834   */\n    tag_59:\n        /* \"#utility.yul\":6806:6827   */\n      tag_141\n        /* \"#utility.yul\":6821:6826   */\n      dup2\n        /* \"#utility.yul\":6806:6827   */\n      tag_55\n      jump\t// in\n    tag_141:\n        /* \"#utility.yul\":6801:6804   */\n      dup3\n        /* \"#utility.yul\":6794:6828   */\n      mstore\n        /* \"#utility.yul\":6725:6834   */\n      pop\n      pop\n      jump\t// out\n        /* \"#utility.yul\":6840:7160   */\n    tag_23:\n        /* \"#utility.yul\":6955:6959   */\n      0x00\n        /* \"#utility.yul\":6993:6995   */\n      0x40\n        /* \"#utility.yul\":6982:6991   */\n      dup3\n        /* \"#utility.yul\":6978:6996   */\n      add\n        /* \"#utility.yul\":6970:6996   */\n      swap1\n      pop\n        /* \"#utility.yul\":7006:7077   */\n      tag_143\n        /* \"#utility.yul\":7074:7075   */\n      0x00\n        /* \"#utility.yul\":7063:7072   */\n      dup4\n        /* \"#utility.yul\":7059:7076   */\n      add\n        /* \"#utility.yul\":7050:7056   */\n      dup6\n        /* \"#utility.yul\":7006:7077   */\n      tag_58\n      jump\t// in\n    tag_143:\n        /* \"#utility.yul\":7087:7153   */\n      tag_144\n        /* \"#utility.yul\":7149:7151   */\n      0x20\n        /* \"#utility.yul\":7138:7147   */\n      dup4\n        /* \"#utility.yul\":7134:7152   */\n      add\n        /* \"#utility.yul\":7125:7131   */\n      dup5\n        /* \"#utility.yul\":7087:7153   */\n      tag_59\n      jump\t// in\n    tag_144:\n        /* \"#utility.yul\":6840:7160   */\n      swap4\n      swap3\n      pop\n      pop\n      pop\n      jump\t// out\n        /* \"#utility.yul\":7166:7284   */\n    tag_60:\n        /* \"#utility.yul\":7253:7277   */\n      tag_146\n        /* \"#utility.yul\":7271:7276   */\n      dup2\n        /* \"#utility.yul\":7253:7277   */\n      tag_40\n      jump\t// in\n    tag_146:\n        /* \"#utility.yul\":7248:7251   */\n      dup3\n        /* \"#utility.yul\":7241:7278   */\n      mstore\n        /* \"#utility.yul\":7166:7284   */\n      pop\n      pop\n      jump\t// out\n        /* \"#utility.yul\":7290:7732   */\n    tag_29:\n        /* \"#utility.yul\":7439:7443   */\n      0x00\n        /* \"#utility.yul\":7477:7479   */\n      0x60\n        /* \"#utility.yul\":7466:7475   */\n      dup3\n        /* \"#utility.yul\":7462:7480   */\n      add\n        /* \"#utility.yul\":7454:7480   */\n      swap1\n      pop\n        /* \"#utility.yul\":7490:7561   */\n      tag_148\n        /* \"#utility.yul\":7558:7559   */\n      0x00\n        /* \"#utility.yul\":7547:7556   */\n      dup4\n        /* \"#utility.yul\":7543:7560   */\n      add\n        /* \"#utility.yul\":7534:7540   */\n      dup7\n        /* \"#utility.yul\":7490:7561   */\n      tag_58\n      jump\t// in\n    tag_148:\n        /* \"#utility.yul\":7571:7643   */\n      tag_149\n        /* \"#utility.yul\":7639:7641   */\n      0x20\n        /* \"#utility.yul\":7628:7637   */\n      dup4\n        /* \"#utility.yul\":7624:7642   */\n      add\n        /* \"#utility.yul\":7615:7621   */\n      dup6\n        /* \"#utility.yul\":7571:7643   */\n      tag_58\n      jump\t// in\n    tag_149:\n        /* \"#utility.yul\":7653:7725   */\n      tag_150\n        /* \"#utility.yul\":7721:7723   */\n      0x40\n        /* \"#utility.yul\":7710:7719   */\n      dup4\n        /* \"#utility.yul\":7706:7724   */\n      add\n        /* \"#utility.yul\":7697:7703   */\n      dup5\n        /* \"#utility.yul\":7653:7725   */\n      tag_60\n      jump\t// in\n    tag_150:\n        /* \"#utility.yul\":7290:7732   */\n      swap5\n      swap4\n      pop\n      pop\n      pop\n      pop\n      jump\t// out\n\n    auxdata: 0xa26469706673582212200def59d761818c16f821203c66d456dfe9d1611525f15c18c0ec93c15ae5163964736f6c634300080c0033\n}\n",
				"bytecode": {
					"linkReferences": {},
					"object": "608060405234801561001057600080fd5b50610625806100206000396000f3fe608060405234801561001057600080fd5b50600436106100415760003560e01c8063150b7a0214610046578063167d576c146100765780635806f47a14610092575b600080fd5b610060600480360381019061005b9190610397565b6100ae565b60405161006d9190610455565b60405180910390f35b610090600480360381019061008b91906104a8565b6100c2565b005b6100ac60048036038101906100a791906104fb565b610134565b005b600063150b7a0260e01b9050949350505050565b8273ffffffffffffffffffffffffffffffffffffffff1663a22cb46583836040518363ffffffff1660e01b81526004016100fd929190610580565b600060405180830381600087803b15801561011757600080fd5b505af115801561012b573d6000803e3d6000fd5b50505050505050565b8373ffffffffffffffffffffffffffffffffffffffff166342842e0e8484846040518463ffffffff1660e01b8152600401610171939291906105b8565b600060405180830381600087803b15801561018b57600080fd5b505af115801561019f573d6000803e3d6000fd5b5050505050505050565b6000604051905090565b600080fd5b600080fd5b600073ffffffffffffffffffffffffffffffffffffffff82169050919050565b60006101e8826101bd565b9050919050565b6101f8816101dd565b811461020357600080fd5b50565b600081359050610215816101ef565b92915050565b6000819050919050565b61022e8161021b565b811461023957600080fd5b50565b60008135905061024b81610225565b92915050565b600080fd5b600080fd5b6000601f19601f8301169050919050565b7f4e487b7100000000000000000000000000000000000000000000000000000000600052604160045260246000fd5b6102a48261025b565b810181811067ffffffffffffffff821117156102c3576102c261026c565b5b80604052505050565b60006102d66101a9565b90506102e2828261029b565b919050565b600067ffffffffffffffff8211156103025761030161026c565b5b61030b8261025b565b9050602081019050919050565b82818337600083830152505050565b600061033a610335846102e7565b6102cc565b90508281526020810184848401111561035657610355610256565b5b610361848285610318565b509392505050565b600082601f83011261037e5761037d610251565b5b813561038e848260208601610327565b91505092915050565b600080600080608085870312156103b1576103b06101b3565b5b60006103bf87828801610206565b94505060206103d087828801610206565b93505060406103e18782880161023c565b925050606085013567ffffffffffffffff811115610402576104016101b8565b5b61040e87828801610369565b91505092959194509250565b60007fffffffff0000000000000000000000000000000000000000000000000000000082169050919050565b61044f8161041a565b82525050565b600060208201905061046a6000830184610446565b92915050565b60008115159050919050565b61048581610470565b811461049057600080fd5b50565b6000813590506104a28161047c565b92915050565b6000806000606084860312156104c1576104c06101b3565b5b60006104cf86828701610206565b93505060206104e086828701610206565b92505060406104f186828701610493565b9150509250925092565b60008060008060808587031215610515576105146101b3565b5b600061052387828801610206565b945050602061053487828801610206565b935050604061054587828801610206565b92505060606105568782880161023c565b91505092959194509250565b61056b816101dd565b82525050565b61057a81610470565b82525050565b60006040820190506105956000830185610562565b6105a26020830184610571565b9392505050565b6105b28161021b565b82525050565b60006060820190506105cd6000830186610562565b6105da6020830185610562565b6105e760408301846105a9565b94935050505056fea26469706673582212200def59d761818c16f821203c66d456dfe9d1611525f15c18c0ec93c15ae5163964736f6c634300080c0033",
					"opcodes": "PUSH1 0x80 PUSH1 0x40 MSTORE CALLVALUE DUP1 ISZERO PUSH2 0x10 JUMPI PUSH1 0x0 DUP1 REVERT JUMPDEST POP PUSH2 0x625 DUP1 PUSH2 0x20 PUSH1 0x0 CODECOPY PUSH1 0x0 RETURN INVALID PUSH1 0x80 PUSH1 0x40 MSTORE CALLVALUE DUP1 ISZERO PUSH2 0x10 JUMPI PUSH1 0x0 DUP1 REVERT JUMPDEST POP PUSH1 0x4 CALLDATASIZE LT PUSH2 0x41 JUMPI PUSH1 0x0 CALLDATALOAD PUSH1 0xE0 SHR DUP1 PUSH4 0x150B7A02 EQ PUSH2 0x46 JUMPI DUP1 PUSH4 0x167D576C EQ PUSH2 0x76 JUMPI DUP1 PUSH4 0x5806F47A EQ PUSH2 0x92 JUMPI JUMPDEST PUSH1 0x0 DUP1 REVERT JUMPDEST PUSH2 0x60 PUSH1 0x4 DUP1 CALLDATASIZE SUB DUP2 ADD SWAP1 PUSH2 0x5B SWAP2 SWAP1 PUSH2 0x397 JUMP JUMPDEST PUSH2 0xAE JUMP JUMPDEST PUSH1 0x40 MLOAD PUSH2 0x6D SWAP2 SWAP1 PUSH2 0x455 JUMP JUMPDEST PUSH1 0x40 MLOAD DUP1 SWAP2 SUB SWAP1 RETURN JUMPDEST PUSH2 0x90 PUSH1 0x4 DUP1 CALLDATASIZE SUB DUP2 ADD SWAP1 PUSH2 0x8B SWAP2 SWAP1 PUSH2 0x4A8 JUMP JUMPDEST PUSH2 0xC2 JUMP JUMPDEST STOP JUMPDEST PUSH2 0xAC PUSH1 0x4 DUP1 CALLDATASIZE SUB DUP2 ADD SWAP1 PUSH2 0xA7 SWAP2 SWAP1 PUSH2 0x4FB JUMP JUMPDEST PUSH2 0x134 JUMP JUMPDEST STOP JUMPDEST PUSH1 0x0 PUSH4 0x150B7A02 PUSH1 0xE0 SHL SWAP1 POP SWAP5 SWAP4 POP POP POP POP JUMP JUMPDEST DUP3 PUSH20 0xFFFFFFFFFFFFFFFFFFFFFFFFFFFFFFFFFFFFFFFF AND PUSH4 0xA22CB465 DUP4 DUP4 PUSH1 0x40 MLOAD DUP4 PUSH4 0xFFFFFFFF AND PUSH1 0xE0 SHL DUP2 MSTORE PUSH1 0x4 ADD PUSH2 0xFD SWAP3 SWAP2 SWAP1 PUSH2 0x580 JUMP JUMPDEST PUSH1 0x0 PUSH1 0x40 MLOAD DUP1 DUP4 SUB DUP2 PUSH1 0x0 DUP8 DUP1 EXTCODESIZE ISZERO DUP1 ISZERO PUSH2 0x117 JUMPI PUSH1 0x0 DUP1 REVERT JUMPDEST POP GAS CALL ISZERO DUP1 ISZERO PUSH2 0x12B JUMPI RETURNDATASIZE PUSH1 0x0 DUP1 RETURNDATACOPY RETURNDATASIZE PUSH1 0x0 REVERT JUMPDEST POP POP POP POP POP POP POP JUMP JUMPDEST DUP4 PUSH20 0xFFFFFFFFFFFFFFFFFFFFFFFFFFFFFFFFFFFFFFFF AND PUSH4 0x42842E0E DUP5 DUP5 DUP5 PUSH1 0x40 MLOAD DUP5 PUSH4 0xFFFFFFFF AND PUSH1 0xE0 SHL DUP2 MSTORE PUSH1 0x4 ADD PUSH2 0x171 SWAP4 SWAP3 SWAP2 SWAP1 PUSH2 0x5B8 JUMP JUMPDEST PUSH1 0x0 PUSH1 0x40 MLOAD DUP1 DUP4 SUB DUP2 PUSH1 0x0 DUP8 DUP1 EXTCODESIZE ISZERO DUP1 ISZERO PUSH2 0x18B JUMPI PUSH1 0x0 DUP1 REVERT JUMPDEST POP GAS CALL ISZERO DUP1 ISZERO PUSH2 0x19F JUMPI RETURNDATASIZE PUSH1 0x0 DUP1 RETURNDATACOPY RETURNDATASIZE PUSH1 0x0 REVERT JUMPDEST POP POP POP POP POP POP POP POP JUMP JUMPDEST PUSH1 0x0 PUSH1 0x40 MLOAD SWAP1 POP SWAP1 JUMP JUMPDEST PUSH1 0x0 DUP1 REVERT JUMPDEST PUSH1 0x0 DUP1 REVERT JUMPDEST PUSH1 0x0 PUSH20 0xFFFFFFFFFFFFFFFFFFFFFFFFFFFFFFFFFFFFFFFF DUP3 AND SWAP1 POP SWAP2 SWAP1 POP JUMP JUMPDEST PUSH1 0x0 PUSH2 0x1E8 DUP3 PUSH2 0x1BD JUMP JUMPDEST SWAP1 POP SWAP2 SWAP1 POP JUMP JUMPDEST PUSH2 0x1F8 DUP2 PUSH2 0x1DD JUMP JUMPDEST DUP2 EQ PUSH2 0x203 JUMPI PUSH1 0x0 DUP1 REVERT JUMPDEST POP JUMP JUMPDEST PUSH1 0x0 DUP2 CALLDATALOAD SWAP1 POP PUSH2 0x215 DUP2 PUSH2 0x1EF JUMP JUMPDEST SWAP3 SWAP2 POP POP JUMP JUMPDEST PUSH1 0x0 DUP2 SWAP1 POP SWAP2 SWAP1 POP JUMP JUMPDEST PUSH2 0x22E DUP2 PUSH2 0x21B JUMP JUMPDEST DUP2 EQ PUSH2 0x239 JUMPI PUSH1 0x0 DUP1 REVERT JUMPDEST POP JUMP JUMPDEST PUSH1 0x0 DUP2 CALLDATALOAD SWAP1 POP PUSH2 0x24B DUP2 PUSH2 0x225 JUMP JUMPDEST SWAP3 SWAP2 POP POP JUMP JUMPDEST PUSH1 0x0 DUP1 REVERT JUMPDEST PUSH1 0x0 DUP1 REVERT JUMPDEST PUSH1 0x0 PUSH1 0x1F NOT PUSH1 0x1F DUP4 ADD AND SWAP1 POP SWAP2 SWAP1 POP JUMP JUMPDEST PUSH32 0x4E487B7100000000000000000000000000000000000000000000000000000000 PUSH1 0x0 MSTORE PUSH1 0x41 PUSH1 0x4 MSTORE PUSH1 0x24 PUSH1 0x0 REVERT JUMPDEST PUSH2 0x2A4 DUP3 PUSH2 0x25B JUMP JUMPDEST DUP2 ADD DUP2 DUP2 LT PUSH8 0xFFFFFFFFFFFFFFFF DUP3 GT OR ISZERO PUSH2 0x2C3 JUMPI PUSH2 0x2C2 PUSH2 0x26C JUMP JUMPDEST JUMPDEST DUP1 PUSH1 0x40 MSTORE POP POP POP JUMP JUMPDEST PUSH1 0x0 PUSH2 0x2D6 PUSH2 0x1A9 JUMP JUMPDEST SWAP1 POP PUSH2 0x2E2 DUP3 DUP3 PUSH2 0x29B JUMP JUMPDEST SWAP2 SWAP1 POP JUMP JUMPDEST PUSH1 0x0 PUSH8 0xFFFFFFFFFFFFFFFF DUP3 GT ISZERO PUSH2 0x302 JUMPI PUSH2 0x301 PUSH2 0x26C JUMP JUMPDEST JUMPDEST PUSH2 0x30B DUP3 PUSH2 0x25B JUMP JUMPDEST SWAP1 POP PUSH1 0x20 DUP2 ADD SWAP1 POP SWAP2 SWAP1 POP JUMP JUMPDEST DUP3 DUP2 DUP4 CALLDATACOPY PUSH1 0x0 DUP4 DUP4 ADD MSTORE POP POP POP JUMP JUMPDEST PUSH1 0x0 PUSH2 0x33A PUSH2 0x335 DUP5 PUSH2 0x2E7 JUMP JUMPDEST PUSH2 0x2CC JUMP JUMPDEST SWAP1 POP DUP3 DUP2 MSTORE PUSH1 0x20 DUP2 ADD DUP5 DUP5 DUP5 ADD GT ISZERO PUSH2 0x356 JUMPI PUSH2 0x355 PUSH2 0x256 JUMP JUMPDEST JUMPDEST PUSH2 0x361 DUP5 DUP3 DUP6 PUSH2 0x318 JUMP JUMPDEST POP SWAP4 SWAP3 POP POP POP JUMP JUMPDEST PUSH1 0x0 DUP3 PUSH1 0x1F DUP4 ADD SLT PUSH2 0x37E JUMPI PUSH2 0x37D PUSH2 0x251 JUMP JUMPDEST JUMPDEST DUP2 CALLDATALOAD PUSH2 0x38E DUP5 DUP3 PUSH1 0x20 DUP7 ADD PUSH2 0x327 JUMP JUMPDEST SWAP2 POP POP SWAP3 SWAP2 POP POP JUMP JUMPDEST PUSH1 0x0 DUP1 PUSH1 0x0 DUP1 PUSH1 0x80 DUP6 DUP8 SUB SLT ISZERO PUSH2 0x3B1 JUMPI PUSH2 0x3B0 PUSH2 0x1B3 JUMP JUMPDEST JUMPDEST PUSH1 0x0 PUSH2 0x3BF DUP8 DUP3 DUP9 ADD PUSH2 0x206 JUMP JUMPDEST SWAP5 POP POP PUSH1 0x20 PUSH2 0x3D0 DUP8 DUP3 DUP9 ADD PUSH2 0x206 JUMP JUMPDEST SWAP4 POP POP PUSH1 0x40 PUSH2 0x3E1 DUP8 DUP3 DUP9 ADD PUSH2 0x23C JUMP JUMPDEST SWAP3 POP POP PUSH1 0x60 DUP6 ADD CALLDATALOAD PUSH8 0xFFFFFFFFFFFFFFFF DUP2 GT ISZERO PUSH2 0x402 JUMPI PUSH2 0x401 PUSH2 0x1B8 JUMP JUMPDEST JUMPDEST PUSH2 0x40E DUP8 DUP3 DUP9 ADD PUSH2 0x369 JUMP JUMPDEST SWAP2 POP POP SWAP3 SWAP6 SWAP2 SWAP5 POP SWAP3 POP JUMP JUMPDEST PUSH1 0x0 PUSH32 0xFFFFFFFF00000000000000000000000000000000000000000000000000000000 DUP3 AND SWAP1 POP SWAP2 SWAP1 POP JUMP JUMPDEST PUSH2 0x44F DUP2 PUSH2 0x41A JUMP JUMPDEST DUP3 MSTORE POP POP JUMP JUMPDEST PUSH1 0x0 PUSH1 0x20 DUP3 ADD SWAP1 POP PUSH2 0x46A PUSH1 0x0 DUP4 ADD DUP5 PUSH2 0x446 JUMP JUMPDEST SWAP3 SWAP2 POP POP JUMP JUMPDEST PUSH1 0x0 DUP2 ISZERO ISZERO SWAP1 POP SWAP2 SWAP1 POP JUMP JUMPDEST PUSH2 0x485 DUP2 PUSH2 0x470 JUMP JUMPDEST DUP2 EQ PUSH2 0x490 JUMPI PUSH1 0x0 DUP1 REVERT JUMPDEST POP JUMP JUMPDEST PUSH1 0x0 DUP2 CALLDATALOAD SWAP1 POP PUSH2 0x4A2 DUP2 PUSH2 0x47C JUMP JUMPDEST SWAP3 SWAP2 POP POP JUMP JUMPDEST PUSH1 0x0 DUP1 PUSH1 0x0 PUSH1 0x60 DUP5 DUP7 SUB SLT ISZERO PUSH2 0x4C1 JUMPI PUSH2 0x4C0 PUSH2 0x1B3 JUMP JUMPDEST JUMPDEST PUSH1 0x0 PUSH2 0x4CF DUP7 DUP3 DUP8 ADD PUSH2 0x206 JUMP JUMPDEST SWAP4 POP POP PUSH1 0x20 PUSH2 0x4E0 DUP7 DUP3 DUP8 ADD PUSH2 0x206 JUMP JUMPDEST SWAP3 POP POP PUSH1 0x40 PUSH2 0x4F1 DUP7 DUP3 DUP8 ADD PUSH2 0x493 JUMP JUMPDEST SWAP2 POP POP SWAP3 POP SWAP3 POP SWAP3 JUMP JUMPDEST PUSH1 0x0 DUP1 PUSH1 0x0 DUP1 PUSH1 0x80 DUP6 DUP8 SUB SLT ISZERO PUSH2 0x515 JUMPI PUSH2 0x514 PUSH2 0x1B3 JUMP JUMPDEST JUMPDEST PUSH1 0x0 PUSH2 0x523 DUP8 DUP3 DUP9 ADD PUSH2 0x206 JUMP JUMPDEST SWAP5 POP POP PUSH1 0x20 PUSH2 0x534 DUP8 DUP3 DUP9 ADD PUSH2 0x206 JUMP JUMPDEST SWAP4 POP POP PUSH1 0x40 PUSH2 0x545 DUP8 DUP3 DUP9 ADD PUSH2 0x206 JUMP JUMPDEST SWAP3 POP POP PUSH1 0x60 PUSH2 0x556 DUP8 DUP3 DUP9 ADD PUSH2 0x23C JUMP JUMPDEST SWAP2 POP POP SWAP3 SWAP6 SWAP2 SWAP5 POP SWAP3 POP JUMP JUMPDEST PUSH2 0x56B DUP2 PUSH2 0x1DD JUMP JUMPDEST DUP3 MSTORE POP POP JUMP JUMPDEST PUSH2 0x57A DUP2 PUSH2 0x470 JUMP JUMPDEST DUP3 MSTORE POP POP JUMP JUMPDEST PUSH1 0x0 PUSH1 0x40 DUP3 ADD SWAP1 POP PUSH2 0x595 PUSH1 0x0 DUP4 ADD DUP6 PUSH2 0x562 JUMP JUMPDEST PUSH2 0x5A2 PUSH1 0x20 DUP4 ADD DUP5 PUSH2 0x571 JUMP JUMPDEST SWAP4 SWAP3 POP POP POP JUMP JUMPDEST PUSH2 0x5B2 DUP2 PUSH2 0x21B JUMP JUMPDEST DUP3 MSTORE POP POP JUMP JUMPDEST PUSH1 0x0 PUSH1 0x60 DUP3 ADD SWAP1 POP PUSH2 0x5CD PUSH1 0x0 DUP4 ADD DUP7 PUSH2 0x562 JUMP JUMPDEST PUSH2 0x5DA PUSH1 0x20 DUP4 ADD DUP6 PUSH2 0x562 JUMP JUMPDEST PUSH2 0x5E7 PUSH1 0x40 DUP4 ADD DUP5 PUSH2 0x5A9 JUMP JUMPDEST SWAP5 SWAP4 POP POP POP POP JUMP INVALID LOG2 PUSH5 0x6970667358 0x22 SLT KECCAK256 0xD 0xEF MSIZE 0xD7 PUSH2 0x818C AND 0xF8 0x21 KECCAK256 EXTCODECOPY PUSH7 0xD456DFE9D16115 0x25 CALL 0x5C XOR 0xC0 0xEC SWAP4 0xC1 GAS 0xE5 AND CODECOPY PUSH5 0x736F6C6343 STOP ADDMOD 0xC STOP CALLER "
				},
				"gasEstimates": {
					"creation": {
						"codeDepositCost": "314600",
						"executionCost": "355",
						"totalCost": "314955"
					},
					"external": {
						"adminSendERC721Token(address,address,address,uint256)": "infinite",
						"adminSetApprovalERC721ForAll(address,address,bool)": "infinite",
						"onERC721Received(address,address,uint256,bytes)": "infinite"
					},
					"internal": {
						"__ERC721Holder_init()": "infinite",
						"__ERC721Holder_init_unchained()": "infinite"
					}
				},
				"methodIdentifiers": {
					"adminSendERC721Token(address,address,address,uint256)": "5806f47a",
					"adminSetApprovalERC721ForAll(address,address,bool)": "167d576c",
					"onERC721Received(address,address,uint256,bytes)": "150b7a02"
				}
			},
			"storageLayout": {
				"storage": [
					{
						"astId": 1399,
						"contract": "Ethreum/TokenHolderUpgradeable.sol:TokenHolderUpgradeable",
						"label": "_initialized",
						"offset": 0,
						"slot": "0",
						"type": "t_uint8"
					},
					{
						"astId": 1402,
						"contract": "Ethreum/TokenHolderUpgradeable.sol:TokenHolderUpgradeable",
						"label": "_initializing",
						"offset": 1,
						"slot": "0",
						"type": "t_bool"
					},
					{
						"astId": 1822,
						"contract": "Ethreum/TokenHolderUpgradeable.sol:TokenHolderUpgradeable",
						"label": "__gap",
						"offset": 0,
						"slot": "1",
						"type": "t_array(t_uint256)50_storage"
					}
				],
				"types": {
					"t_array(t_uint256)50_storage": {
						"base": "t_uint256",
						"encoding": "inplace",
						"label": "uint256[50]",
						"numberOfBytes": "1600"
					},
					"t_bool": {
						"encoding": "inplace",
						"label": "bool",
						"numberOfBytes": "1"
					},
					"t_uint256": {
						"encoding": "inplace",
						"label": "uint256",
						"numberOfBytes": "32"
					},
					"t_uint8": {
						"encoding": "inplace",
						"label": "uint8",
						"numberOfBytes": "1"
					}
				}
			},
			"userdoc": {
				"kind": "user",
				"methods": {},
				"version": 1
			}
		}
	}
}