{
	"Ethreum/TokenHolderUpgradeable.sol": {
		"TokenHolderUpgradeable": {
			"abi": [
				{
					"anonymous": false,
					"inputs": [
						{
							"indexed": false,
							"internalType": "uint8",
							"name": "version",
							"type": "uint8"
						}
					],
					"name": "Initialized",
					"type": "event"
				},
				{
					"inputs": [
						{
							"internalType": "address",
							"name": "token",
							"type": "address"
						},
						{
							"internalType": "address",
							"name": "from",
							"type": "address"
						},
						{
							"internalType": "address",
							"name": "to",
							"type": "address"
						},
						{
							"internalType": "uint256",
							"name": "tokenId",
							"type": "uint256"
						}
					],
					"name": "adminSendERC721Token",
					"outputs": [],
					"stateMutability": "nonpayable",
					"type": "function"
				},
				{
					"inputs": [
						{
							"internalType": "address",
							"name": "token",
							"type": "address"
						},
						{
							"internalType": "address",
							"name": "operator",
							"type": "address"
						},
						{
							"internalType": "bool",
							"name": "_approved",
							"type": "bool"
						}
					],
					"name": "adminSetApprovalERC721ForAll",
					"outputs": [],
					"stateMutability": "nonpayable",
					"type": "function"
				},
				{
					"inputs": [
						{
							"internalType": "address",
							"name": "token",
							"type": "address"
						},
						{
							"internalType": "address",
							"name": "from",
							"type": "address"
						},
						{
							"internalType": "address",
							"name": "to",
							"type": "address"
						},
						{
							"internalType": "address",
							"name": "amount",
							"type": "address"
						}
					],
					"name": "adminTransferERC20Token",
					"outputs": [],
					"stateMutability": "nonpayable",
					"type": "function"
				},
				{
					"inputs": [
						{
							"internalType": "address",
							"name": "",
							"type": "address"
						},
						{
							"internalType": "address",
							"name": "",
							"type": "address"
						},
						{
							"internalType": "uint256",
							"name": "",
							"type": "uint256"
						},
						{
							"internalType": "bytes",
							"name": "",
							"type": "bytes"
						}
					],
					"name": "onERC721Received",
					"outputs": [
						{
							"internalType": "bytes4",
							"name": "",
							"type": "bytes4"
						}
					],
					"stateMutability": "nonpayable",
					"type": "function"
				}
			],
			"devdoc": {
				"kind": "dev",
				"methods": {
					"onERC721Received(address,address,uint256,bytes)": {
						"details": "See {IERC721Receiver-onERC721Received}. Always returns `IERC721Receiver.onERC721Received.selector`."
					}
				},
				"stateVariables": {
					"__gap": {
						"details": "This empty reserved space is put in place to allow future versions to add new variables without shifting down storage in the inheritance chain. See https://docs.openzeppelin.com/contracts/4.x/upgradeable#storage_gaps"
					}
				},
				"version": 1
			},
			"evm": {
				"assembly": "    /* \"Ethreum/TokenHolderUpgradeable.sol\":202:1880  contract TokenHolderUpgradeable is Initializable, IERC721ReceiverUpgradeable{... */\n  mstore(0x40, 0x80)\n  callvalue\n  dup1\n  iszero\n  tag_1\n  jumpi\n  0x00\n  dup1\n  revert\ntag_1:\n  pop\n  dataSize(sub_0)\n  dup1\n  dataOffset(sub_0)\n  0x00\n  codecopy\n  0x00\n  return\nstop\n\nsub_0: assembly {\n        /* \"Ethreum/TokenHolderUpgradeable.sol\":202:1880  contract TokenHolderUpgradeable is Initializable, IERC721ReceiverUpgradeable{... */\n      mstore(0x40, 0x80)\n      callvalue\n      dup1\n      iszero\n      tag_1\n      jumpi\n      0x00\n      dup1\n      revert\n    tag_1:\n      pop\n      jumpi(tag_2, lt(calldatasize, 0x04))\n      shr(0xe0, calldataload(0x00))\n      dup1\n      0x150b7a02\n      eq\n      tag_3\n      jumpi\n      dup1\n      0x167d576c\n      eq\n      tag_4\n      jumpi\n      dup1\n      0x5806f47a\n      eq\n      tag_5\n      jumpi\n      dup1\n      0x99d82305\n      eq\n      tag_6\n      jumpi\n    tag_2:\n      0x00\n      dup1\n      revert\n        /* \"Ethreum/TokenHolderUpgradeable.sol\":586:793  function onERC721Received(... */\n    tag_3:\n      tag_7\n      0x04\n      dup1\n      calldatasize\n      sub\n      dup2\n      add\n      swap1\n      tag_8\n      swap2\n      swap1\n      tag_9\n      jump\t// in\n    tag_8:\n      tag_10\n      jump\t// in\n    tag_7:\n      mload(0x40)\n      tag_11\n      swap2\n      swap1\n      tag_12\n      jump\t// in\n    tag_11:\n      mload(0x40)\n      dup1\n      swap2\n      sub\n      swap1\n      return\n        /* \"Ethreum/TokenHolderUpgradeable.sol\":1112:1325  function adminSetApprovalERC721ForAll(... */\n    tag_4:\n      tag_13\n      0x04\n      dup1\n      calldatasize\n      sub\n      dup2\n      add\n      swap1\n      tag_14\n      swap2\n      swap1\n      tag_15\n      jump\t// in\n    tag_14:\n      tag_16\n      jump\t// in\n    tag_13:\n      stop\n        /* \"Ethreum/TokenHolderUpgradeable.sol\":885:1104  function adminSendERC721Token(... */\n    tag_5:\n      tag_17\n      0x04\n      dup1\n      calldatasize\n      sub\n      dup2\n      add\n      swap1\n      tag_18\n      swap2\n      swap1\n      tag_19\n      jump\t// in\n    tag_18:\n      tag_20\n      jump\t// in\n    tag_17:\n      stop\n        /* \"Ethreum/TokenHolderUpgradeable.sol\":1419:1579  function adminTransferERC20Token(... */\n    tag_6:\n      tag_21\n      0x04\n      dup1\n      calldatasize\n      sub\n      dup2\n      add\n      swap1\n      tag_22\n      swap2\n      swap1\n      tag_23\n      jump\t// in\n    tag_22:\n      tag_24\n      jump\t// in\n    tag_21:\n      stop\n        /* \"Ethreum/TokenHolderUpgradeable.sol\":586:793  function onERC721Received(... */\n    tag_10:\n        /* \"Ethreum/TokenHolderUpgradeable.sol\":729:735  bytes4 */\n      0x00\n        /* \"Ethreum/TokenHolderUpgradeable.sol\":755:785  this.onERC721Received.selector */\n      shl(0xe0, 0x150b7a02)\n        /* \"Ethreum/TokenHolderUpgradeable.sol\":748:785  return this.onERC721Received.selector */\n      swap1\n      pop\n        /* \"Ethreum/TokenHolderUpgradeable.sol\":586:793  function onERC721Received(... */\n      swap5\n      swap4\n      pop\n      pop\n      pop\n      pop\n      jump\t// out\n        /* \"Ethreum/TokenHolderUpgradeable.sol\":1112:1325  function adminSetApprovalERC721ForAll(... */\n    tag_16:\n        /* \"Ethreum/TokenHolderUpgradeable.sol\":1272:1277  token */\n      dup3\n        /* \"Ethreum/TokenHolderUpgradeable.sol\":1254:1296  ERC721Upgradeable(token).setApprovalForAll */\n      0xffffffffffffffffffffffffffffffffffffffff\n      and\n      0xa22cb465\n        /* \"Ethreum/TokenHolderUpgradeable.sol\":1297:1305  operator */\n      dup4\n        /* \"Ethreum/TokenHolderUpgradeable.sol\":1307:1316  _approved */\n      dup4\n        /* \"Ethreum/TokenHolderUpgradeable.sol\":1254:1317  ERC721Upgradeable(token).setApprovalForAll(operator, _approved) */\n      mload(0x40)\n      dup4\n      0xffffffff\n      and\n      0xe0\n      shl\n      dup2\n      mstore\n      0x04\n      add\n      tag_27\n      swap3\n      swap2\n      swap1\n      tag_28\n      jump\t// in\n    tag_27:\n      0x00\n      mload(0x40)\n      dup1\n      dup4\n      sub\n      dup2\n      0x00\n      dup8\n      dup1\n      extcodesize\n      iszero\n      dup1\n      iszero\n      tag_29\n      jumpi\n      0x00\n      dup1\n      revert\n    tag_29:\n      pop\n      gas\n      call\n      iszero\n      dup1\n      iszero\n      tag_31\n      jumpi\n      returndatasize\n      0x00\n      dup1\n      returndatacopy\n      revert(0x00, returndatasize)\n    tag_31:\n      pop\n      pop\n      pop\n      pop\n        /* \"Ethreum/TokenHolderUpgradeable.sol\":1112:1325  function adminSetApprovalERC721ForAll(... */\n      pop\n      pop\n      pop\n      jump\t// out\n        /* \"Ethreum/TokenHolderUpgradeable.sol\":885:1104  function adminSendERC721Token(... */\n    tag_20:\n        /* \"Ethreum/TokenHolderUpgradeable.sol\":1054:1059  token */\n      dup4\n        /* \"Ethreum/TokenHolderUpgradeable.sol\":1036:1077  ERC721Upgradeable(token).safeTransferFrom */\n      0xffffffffffffffffffffffffffffffffffffffff\n      and\n      0x42842e0e\n        /* \"Ethreum/TokenHolderUpgradeable.sol\":1078:1082  from */\n      dup5\n        /* \"Ethreum/TokenHolderUpgradeable.sol\":1084:1086  to */\n      dup5\n        /* \"Ethreum/TokenHolderUpgradeable.sol\":1088:1095  tokenId */\n      dup5\n        /* \"Ethreum/TokenHolderUpgradeable.sol\":1036:1096  ERC721Upgradeable(token).safeTransferFrom(from, to, tokenId) */\n      mload(0x40)\n      dup5\n      0xffffffff\n      and\n      0xe0\n      shl\n      dup2\n      mstore\n      0x04\n      add\n      tag_33\n      swap4\n      swap3\n      swap2\n      swap1\n      tag_34\n      jump\t// in\n    tag_33:\n      0x00\n      mload(0x40)\n      dup1\n      dup4\n      sub\n      dup2\n      0x00\n      dup8\n      dup1\n      extcodesize\n      iszero\n      dup1\n      iszero\n      tag_35\n      jumpi\n      0x00\n      dup1\n      revert\n    tag_35:\n      pop\n      gas\n      call\n      iszero\n      dup1\n      iszero\n      tag_37\n      jumpi\n      returndatasize\n      0x00\n      dup1\n      returndatacopy\n      revert(0x00, returndatasize)\n    tag_37:\n      pop\n      pop\n      pop\n      pop\n        /* \"Ethreum/TokenHolderUpgradeable.sol\":885:1104  function adminSendERC721Token(... */\n      pop\n      pop\n      pop\n      pop\n      jump\t// out\n        /* \"Ethreum/TokenHolderUpgradeable.sol\":1419:1579  function adminTransferERC20Token(... */\n    tag_24:\n      pop\n      pop\n      pop\n      pop\n      jump\t// out\n        /* \"#utility.yul\":7:82   */\n    tag_39:\n        /* \"#utility.yul\":40:46   */\n      0x00\n        /* \"#utility.yul\":73:75   */\n      0x40\n        /* \"#utility.yul\":67:76   */\n      mload\n        /* \"#utility.yul\":57:76   */\n      swap1\n      pop\n        /* \"#utility.yul\":7:82   */\n      swap1\n      jump\t// out\n        /* \"#utility.yul\":88:205   */\n    tag_40:\n        /* \"#utility.yul\":197:198   */\n      0x00\n        /* \"#utility.yul\":194:195   */\n      dup1\n        /* \"#utility.yul\":187:199   */\n      revert\n        /* \"#utility.yul\":211:328   */\n    tag_41:\n        /* \"#utility.yul\":320:321   */\n      0x00\n        /* \"#utility.yul\":317:318   */\n      dup1\n        /* \"#utility.yul\":310:322   */\n      revert\n        /* \"#utility.yul\":334:460   */\n    tag_42:\n        /* \"#utility.yul\":371:378   */\n      0x00\n        /* \"#utility.yul\":411:453   */\n      0xffffffffffffffffffffffffffffffffffffffff\n        /* \"#utility.yul\":404:409   */\n      dup3\n        /* \"#utility.yul\":400:454   */\n      and\n        /* \"#utility.yul\":389:454   */\n      swap1\n      pop\n        /* \"#utility.yul\":334:460   */\n      swap2\n      swap1\n      pop\n      jump\t// out\n        /* \"#utility.yul\":466:562   */\n    tag_43:\n        /* \"#utility.yul\":503:510   */\n      0x00\n        /* \"#utility.yul\":532:556   */\n      tag_73\n        /* \"#utility.yul\":550:555   */\n      dup3\n        /* \"#utility.yul\":532:556   */\n      tag_42\n      jump\t// in\n    tag_73:\n        /* \"#utility.yul\":521:556   */\n      swap1\n      pop\n        /* \"#utility.yul\":466:562   */\n      swap2\n      swap1\n      pop\n      jump\t// out\n        /* \"#utility.yul\":568:690   */\n    tag_44:\n        /* \"#utility.yul\":641:665   */\n      tag_75\n        /* \"#utility.yul\":659:664   */\n      dup2\n        /* \"#utility.yul\":641:665   */\n      tag_43\n      jump\t// in\n    tag_75:\n        /* \"#utility.yul\":634:639   */\n      dup2\n        /* \"#utility.yul\":631:666   */\n      eq\n        /* \"#utility.yul\":621:684   */\n      tag_76\n      jumpi\n        /* \"#utility.yul\":680:681   */\n      0x00\n        /* \"#utility.yul\":677:678   */\n      dup1\n        /* \"#utility.yul\":670:682   */\n      revert\n        /* \"#utility.yul\":621:684   */\n    tag_76:\n        /* \"#utility.yul\":568:690   */\n      pop\n      jump\t// out\n        /* \"#utility.yul\":696:835   */\n    tag_45:\n        /* \"#utility.yul\":742:747   */\n      0x00\n        /* \"#utility.yul\":780:786   */\n      dup2\n        /* \"#utility.yul\":767:787   */\n      calldataload\n        /* \"#utility.yul\":758:787   */\n      swap1\n      pop\n        /* \"#utility.yul\":796:829   */\n      tag_78\n        /* \"#utility.yul\":823:828   */\n      dup2\n        /* \"#utility.yul\":796:829   */\n      tag_44\n      jump\t// in\n    tag_78:\n        /* \"#utility.yul\":696:835   */\n      swap3\n      swap2\n      pop\n      pop\n      jump\t// out\n        /* \"#utility.yul\":841:918   */\n    tag_46:\n        /* \"#utility.yul\":878:885   */\n      0x00\n        /* \"#utility.yul\":907:912   */\n      dup2\n        /* \"#utility.yul\":896:912   */\n      swap1\n      pop\n        /* \"#utility.yul\":841:918   */\n      swap2\n      swap1\n      pop\n      jump\t// out\n        /* \"#utility.yul\":924:1046   */\n    tag_47:\n        /* \"#utility.yul\":997:1021   */\n      tag_81\n        /* \"#utility.yul\":1015:1020   */\n      dup2\n        /* \"#utility.yul\":997:1021   */\n      tag_46\n      jump\t// in\n    tag_81:\n        /* \"#utility.yul\":990:995   */\n      dup2\n        /* \"#utility.yul\":987:1022   */\n      eq\n        /* \"#utility.yul\":977:1040   */\n      tag_82\n      jumpi\n        /* \"#utility.yul\":1036:1037   */\n      0x00\n        /* \"#utility.yul\":1033:1034   */\n      dup1\n        /* \"#utility.yul\":1026:1038   */\n      revert\n        /* \"#utility.yul\":977:1040   */\n    tag_82:\n        /* \"#utility.yul\":924:1046   */\n      pop\n      jump\t// out\n        /* \"#utility.yul\":1052:1191   */\n    tag_48:\n        /* \"#utility.yul\":1098:1103   */\n      0x00\n        /* \"#utility.yul\":1136:1142   */\n      dup2\n        /* \"#utility.yul\":1123:1143   */\n      calldataload\n        /* \"#utility.yul\":1114:1143   */\n      swap1\n      pop\n        /* \"#utility.yul\":1152:1185   */\n      tag_84\n        /* \"#utility.yul\":1179:1184   */\n      dup2\n        /* \"#utility.yul\":1152:1185   */\n      tag_47\n      jump\t// in\n    tag_84:\n        /* \"#utility.yul\":1052:1191   */\n      swap3\n      swap2\n      pop\n      pop\n      jump\t// out\n        /* \"#utility.yul\":1197:1314   */\n    tag_49:\n        /* \"#utility.yul\":1306:1307   */\n      0x00\n        /* \"#utility.yul\":1303:1304   */\n      dup1\n        /* \"#utility.yul\":1296:1308   */\n      revert\n        /* \"#utility.yul\":1320:1437   */\n    tag_50:\n        /* \"#utility.yul\":1429:1430   */\n      0x00\n        /* \"#utility.yul\":1426:1427   */\n      dup1\n        /* \"#utility.yul\":1419:1431   */\n      revert\n        /* \"#utility.yul\":1443:1545   */\n    tag_51:\n        /* \"#utility.yul\":1484:1490   */\n      0x00\n        /* \"#utility.yul\":1535:1537   */\n      0x1f\n        /* \"#utility.yul\":1531:1538   */\n      not\n        /* \"#utility.yul\":1526:1528   */\n      0x1f\n        /* \"#utility.yul\":1519:1524   */\n      dup4\n        /* \"#utility.yul\":1515:1529   */\n      add\n        /* \"#utility.yul\":1511:1539   */\n      and\n        /* \"#utility.yul\":1501:1539   */\n      swap1\n      pop\n        /* \"#utility.yul\":1443:1545   */\n      swap2\n      swap1\n      pop\n      jump\t// out\n        /* \"#utility.yul\":1551:1731   */\n    tag_52:\n        /* \"#utility.yul\":1599:1676   */\n      0x4e487b7100000000000000000000000000000000000000000000000000000000\n        /* \"#utility.yul\":1596:1597   */\n      0x00\n        /* \"#utility.yul\":1589:1677   */\n      mstore\n        /* \"#utility.yul\":1696:1700   */\n      0x41\n        /* \"#utility.yul\":1693:1694   */\n      0x04\n        /* \"#utility.yul\":1686:1701   */\n      mstore\n        /* \"#utility.yul\":1720:1724   */\n      0x24\n        /* \"#utility.yul\":1717:1718   */\n      0x00\n        /* \"#utility.yul\":1710:1725   */\n      revert\n        /* \"#utility.yul\":1737:2018   */\n    tag_53:\n        /* \"#utility.yul\":1820:1847   */\n      tag_90\n        /* \"#utility.yul\":1842:1846   */\n      dup3\n        /* \"#utility.yul\":1820:1847   */\n      tag_51\n      jump\t// in\n    tag_90:\n        /* \"#utility.yul\":1812:1818   */\n      dup2\n        /* \"#utility.yul\":1808:1848   */\n      add\n        /* \"#utility.yul\":1950:1956   */\n      dup2\n        /* \"#utility.yul\":1938:1948   */\n      dup2\n        /* \"#utility.yul\":1935:1957   */\n      lt\n        /* \"#utility.yul\":1914:1932   */\n      0xffffffffffffffff\n        /* \"#utility.yul\":1902:1912   */\n      dup3\n        /* \"#utility.yul\":1899:1933   */\n      gt\n        /* \"#utility.yul\":1896:1958   */\n      or\n        /* \"#utility.yul\":1893:1981   */\n      iszero\n      tag_91\n      jumpi\n        /* \"#utility.yul\":1961:1979   */\n      tag_92\n      tag_52\n      jump\t// in\n    tag_92:\n        /* \"#utility.yul\":1893:1981   */\n    tag_91:\n        /* \"#utility.yul\":2001:2011   */\n      dup1\n        /* \"#utility.yul\":1997:1999   */\n      0x40\n        /* \"#utility.yul\":1990:2012   */\n      mstore\n        /* \"#utility.yul\":1780:2018   */\n      pop\n        /* \"#utility.yul\":1737:2018   */\n      pop\n      pop\n      jump\t// out\n        /* \"#utility.yul\":2024:2153   */\n    tag_54:\n        /* \"#utility.yul\":2058:2064   */\n      0x00\n        /* \"#utility.yul\":2085:2105   */\n      tag_94\n      tag_39\n      jump\t// in\n    tag_94:\n        /* \"#utility.yul\":2075:2105   */\n      swap1\n      pop\n        /* \"#utility.yul\":2114:2147   */\n      tag_95\n        /* \"#utility.yul\":2142:2146   */\n      dup3\n        /* \"#utility.yul\":2134:2140   */\n      dup3\n        /* \"#utility.yul\":2114:2147   */\n      tag_53\n      jump\t// in\n    tag_95:\n        /* \"#utility.yul\":2024:2153   */\n      swap2\n      swap1\n      pop\n      jump\t// out\n        /* \"#utility.yul\":2159:2466   */\n    tag_55:\n        /* \"#utility.yul\":2220:2224   */\n      0x00\n        /* \"#utility.yul\":2310:2328   */\n      0xffffffffffffffff\n        /* \"#utility.yul\":2302:2308   */\n      dup3\n        /* \"#utility.yul\":2299:2329   */\n      gt\n        /* \"#utility.yul\":2296:2352   */\n      iszero\n      tag_97\n      jumpi\n        /* \"#utility.yul\":2332:2350   */\n      tag_98\n      tag_52\n      jump\t// in\n    tag_98:\n        /* \"#utility.yul\":2296:2352   */\n    tag_97:\n        /* \"#utility.yul\":2370:2399   */\n      tag_99\n        /* \"#utility.yul\":2392:2398   */\n      dup3\n        /* \"#utility.yul\":2370:2399   */\n      tag_51\n      jump\t// in\n    tag_99:\n        /* \"#utility.yul\":2362:2399   */\n      swap1\n      pop\n        /* \"#utility.yul\":2454:2458   */\n      0x20\n        /* \"#utility.yul\":2448:2452   */\n      dup2\n        /* \"#utility.yul\":2444:2459   */\n      add\n        /* \"#utility.yul\":2436:2459   */\n      swap1\n      pop\n        /* \"#utility.yul\":2159:2466   */\n      swap2\n      swap1\n      pop\n      jump\t// out\n        /* \"#utility.yul\":2472:2626   */\n    tag_56:\n        /* \"#utility.yul\":2556:2562   */\n      dup3\n        /* \"#utility.yul\":2551:2554   */\n      dup2\n        /* \"#utility.yul\":2546:2549   */\n      dup4\n        /* \"#utility.yul\":2533:2563   */\n      calldatacopy\n        /* \"#utility.yul\":2618:2619   */\n      0x00\n        /* \"#utility.yul\":2609:2615   */\n      dup4\n        /* \"#utility.yul\":2604:2607   */\n      dup4\n        /* \"#utility.yul\":2600:2616   */\n      add\n        /* \"#utility.yul\":2593:2620   */\n      mstore\n        /* \"#utility.yul\":2472:2626   */\n      pop\n      pop\n      pop\n      jump\t// out\n        /* \"#utility.yul\":2632:3042   */\n    tag_57:\n        /* \"#utility.yul\":2709:2714   */\n      0x00\n        /* \"#utility.yul\":2734:2799   */\n      tag_102\n        /* \"#utility.yul\":2750:2798   */\n      tag_103\n        /* \"#utility.yul\":2791:2797   */\n      dup5\n        /* \"#utility.yul\":2750:2798   */\n      tag_55\n      jump\t// in\n    tag_103:\n        /* \"#utility.yul\":2734:2799   */\n      tag_54\n      jump\t// in\n    tag_102:\n        /* \"#utility.yul\":2725:2799   */\n      swap1\n      pop\n        /* \"#utility.yul\":2822:2828   */\n      dup3\n        /* \"#utility.yul\":2815:2820   */\n      dup2\n        /* \"#utility.yul\":2808:2829   */\n      mstore\n        /* \"#utility.yul\":2860:2864   */\n      0x20\n        /* \"#utility.yul\":2853:2858   */\n      dup2\n        /* \"#utility.yul\":2849:2865   */\n      add\n        /* \"#utility.yul\":2898:2901   */\n      dup5\n        /* \"#utility.yul\":2889:2895   */\n      dup5\n        /* \"#utility.yul\":2884:2887   */\n      dup5\n        /* \"#utility.yul\":2880:2896   */\n      add\n        /* \"#utility.yul\":2877:2902   */\n      gt\n        /* \"#utility.yul\":2874:2986   */\n      iszero\n      tag_104\n      jumpi\n        /* \"#utility.yul\":2905:2984   */\n      tag_105\n      tag_50\n      jump\t// in\n    tag_105:\n        /* \"#utility.yul\":2874:2986   */\n    tag_104:\n        /* \"#utility.yul\":2995:3036   */\n      tag_106\n        /* \"#utility.yul\":3029:3035   */\n      dup5\n        /* \"#utility.yul\":3024:3027   */\n      dup3\n        /* \"#utility.yul\":3019:3022   */\n      dup6\n        /* \"#utility.yul\":2995:3036   */\n      tag_56\n      jump\t// in\n    tag_106:\n        /* \"#utility.yul\":2715:3042   */\n      pop\n        /* \"#utility.yul\":2632:3042   */\n      swap4\n      swap3\n      pop\n      pop\n      pop\n      jump\t// out\n        /* \"#utility.yul\":3061:3399   */\n    tag_58:\n        /* \"#utility.yul\":3116:3121   */\n      0x00\n        /* \"#utility.yul\":3165:3168   */\n      dup3\n        /* \"#utility.yul\":3158:3162   */\n      0x1f\n        /* \"#utility.yul\":3150:3156   */\n      dup4\n        /* \"#utility.yul\":3146:3163   */\n      add\n        /* \"#utility.yul\":3142:3169   */\n      slt\n        /* \"#utility.yul\":3132:3254   */\n      tag_108\n      jumpi\n        /* \"#utility.yul\":3173:3252   */\n      tag_109\n      tag_49\n      jump\t// in\n    tag_109:\n        /* \"#utility.yul\":3132:3254   */\n    tag_108:\n        /* \"#utility.yul\":3290:3296   */\n      dup2\n        /* \"#utility.yul\":3277:3297   */\n      calldataload\n        /* \"#utility.yul\":3315:3393   */\n      tag_110\n        /* \"#utility.yul\":3389:3392   */\n      dup5\n        /* \"#utility.yul\":3381:3387   */\n      dup3\n        /* \"#utility.yul\":3374:3378   */\n      0x20\n        /* \"#utility.yul\":3366:3372   */\n      dup7\n        /* \"#utility.yul\":3362:3379   */\n      add\n        /* \"#utility.yul\":3315:3393   */\n      tag_57\n      jump\t// in\n    tag_110:\n        /* \"#utility.yul\":3306:3393   */\n      swap2\n      pop\n        /* \"#utility.yul\":3122:3399   */\n      pop\n        /* \"#utility.yul\":3061:3399   */\n      swap3\n      swap2\n      pop\n      pop\n      jump\t// out\n        /* \"#utility.yul\":3405:4348   */\n    tag_9:\n        /* \"#utility.yul\":3500:3506   */\n      0x00\n        /* \"#utility.yul\":3508:3514   */\n      dup1\n        /* \"#utility.yul\":3516:3522   */\n      0x00\n        /* \"#utility.yul\":3524:3530   */\n      dup1\n        /* \"#utility.yul\":3573:3576   */\n      0x80\n        /* \"#utility.yul\":3561:3570   */\n      dup6\n        /* \"#utility.yul\":3552:3559   */\n      dup8\n        /* \"#utility.yul\":3548:3571   */\n      sub\n        /* \"#utility.yul\":3544:3577   */\n      slt\n        /* \"#utility.yul\":3541:3661   */\n      iszero\n      tag_112\n      jumpi\n        /* \"#utility.yul\":3580:3659   */\n      tag_113\n      tag_40\n      jump\t// in\n    tag_113:\n        /* \"#utility.yul\":3541:3661   */\n    tag_112:\n        /* \"#utility.yul\":3700:3701   */\n      0x00\n        /* \"#utility.yul\":3725:3778   */\n      tag_114\n        /* \"#utility.yul\":3770:3777   */\n      dup8\n        /* \"#utility.yul\":3761:3767   */\n      dup3\n        /* \"#utility.yul\":3750:3759   */\n      dup9\n        /* \"#utility.yul\":3746:3768   */\n      add\n        /* \"#utility.yul\":3725:3778   */\n      tag_45\n      jump\t// in\n    tag_114:\n        /* \"#utility.yul\":3715:3778   */\n      swap5\n      pop\n        /* \"#utility.yul\":3671:3788   */\n      pop\n        /* \"#utility.yul\":3827:3829   */\n      0x20\n        /* \"#utility.yul\":3853:3906   */\n      tag_115\n        /* \"#utility.yul\":3898:3905   */\n      dup8\n        /* \"#utility.yul\":3889:3895   */\n      dup3\n        /* \"#utility.yul\":3878:3887   */\n      dup9\n        /* \"#utility.yul\":3874:3896   */\n      add\n        /* \"#utility.yul\":3853:3906   */\n      tag_45\n      jump\t// in\n    tag_115:\n        /* \"#utility.yul\":3843:3906   */\n      swap4\n      pop\n        /* \"#utility.yul\":3798:3916   */\n      pop\n        /* \"#utility.yul\":3955:3957   */\n      0x40\n        /* \"#utility.yul\":3981:4034   */\n      tag_116\n        /* \"#utility.yul\":4026:4033   */\n      dup8\n        /* \"#utility.yul\":4017:4023   */\n      dup3\n        /* \"#utility.yul\":4006:4015   */\n      dup9\n        /* \"#utility.yul\":4002:4024   */\n      add\n        /* \"#utility.yul\":3981:4034   */\n      tag_48\n      jump\t// in\n    tag_116:\n        /* \"#utility.yul\":3971:4034   */\n      swap3\n      pop\n        /* \"#utility.yul\":3926:4044   */\n      pop\n        /* \"#utility.yul\":4111:4113   */\n      0x60\n        /* \"#utility.yul\":4100:4109   */\n      dup6\n        /* \"#utility.yul\":4096:4114   */\n      add\n        /* \"#utility.yul\":4083:4115   */\n      calldataload\n        /* \"#utility.yul\":4142:4160   */\n      0xffffffffffffffff\n        /* \"#utility.yul\":4134:4140   */\n      dup2\n        /* \"#utility.yul\":4131:4161   */\n      gt\n        /* \"#utility.yul\":4128:4245   */\n      iszero\n      tag_117\n      jumpi\n        /* \"#utility.yul\":4164:4243   */\n      tag_118\n      tag_41\n      jump\t// in\n    tag_118:\n        /* \"#utility.yul\":4128:4245   */\n    tag_117:\n        /* \"#utility.yul\":4269:4331   */\n      tag_119\n        /* \"#utility.yul\":4323:4330   */\n      dup8\n        /* \"#utility.yul\":4314:4320   */\n      dup3\n        /* \"#utility.yul\":4303:4312   */\n      dup9\n        /* \"#utility.yul\":4299:4321   */\n      add\n        /* \"#utility.yul\":4269:4331   */\n      tag_58\n      jump\t// in\n    tag_119:\n        /* \"#utility.yul\":4259:4331   */\n      swap2\n      pop\n        /* \"#utility.yul\":4054:4341   */\n      pop\n        /* \"#utility.yul\":3405:4348   */\n      swap3\n      swap6\n      swap2\n      swap5\n      pop\n      swap3\n      pop\n      jump\t// out\n        /* \"#utility.yul\":4354:4503   */\n    tag_59:\n        /* \"#utility.yul\":4390:4397   */\n      0x00\n        /* \"#utility.yul\":4430:4496   */\n      0xffffffff00000000000000000000000000000000000000000000000000000000\n        /* \"#utility.yul\":4423:4428   */\n      dup3\n        /* \"#utility.yul\":4419:4497   */\n      and\n        /* \"#utility.yul\":4408:4497   */\n      swap1\n      pop\n        /* \"#utility.yul\":4354:4503   */\n      swap2\n      swap1\n      pop\n      jump\t// out\n        /* \"#utility.yul\":4509:4624   */\n    tag_60:\n        /* \"#utility.yul\":4594:4617   */\n      tag_122\n        /* \"#utility.yul\":4611:4616   */\n      dup2\n        /* \"#utility.yul\":4594:4617   */\n      tag_59\n      jump\t// in\n    tag_122:\n        /* \"#utility.yul\":4589:4592   */\n      dup3\n        /* \"#utility.yul\":4582:4618   */\n      mstore\n        /* \"#utility.yul\":4509:4624   */\n      pop\n      pop\n      jump\t// out\n        /* \"#utility.yul\":4630:4848   */\n    tag_12:\n        /* \"#utility.yul\":4721:4725   */\n      0x00\n        /* \"#utility.yul\":4759:4761   */\n      0x20\n        /* \"#utility.yul\":4748:4757   */\n      dup3\n        /* \"#utility.yul\":4744:4762   */\n      add\n        /* \"#utility.yul\":4736:4762   */\n      swap1\n      pop\n        /* \"#utility.yul\":4772:4841   */\n      tag_124\n        /* \"#utility.yul\":4838:4839   */\n      0x00\n        /* \"#utility.yul\":4827:4836   */\n      dup4\n        /* \"#utility.yul\":4823:4840   */\n      add\n        /* \"#utility.yul\":4814:4820   */\n      dup5\n        /* \"#utility.yul\":4772:4841   */\n      tag_60\n      jump\t// in\n    tag_124:\n        /* \"#utility.yul\":4630:4848   */\n      swap3\n      swap2\n      pop\n      pop\n      jump\t// out\n        /* \"#utility.yul\":4854:4944   */\n    tag_61:\n        /* \"#utility.yul\":4888:4895   */\n      0x00\n        /* \"#utility.yul\":4931:4936   */\n      dup2\n        /* \"#utility.yul\":4924:4937   */\n      iszero\n        /* \"#utility.yul\":4917:4938   */\n      iszero\n        /* \"#utility.yul\":4906:4938   */\n      swap1\n      pop\n        /* \"#utility.yul\":4854:4944   */\n      swap2\n      swap1\n      pop\n      jump\t// out\n        /* \"#utility.yul\":4950:5066   */\n    tag_62:\n        /* \"#utility.yul\":5020:5041   */\n      tag_127\n        /* \"#utility.yul\":5035:5040   */\n      dup2\n        /* \"#utility.yul\":5020:5041   */\n      tag_61\n      jump\t// in\n    tag_127:\n        /* \"#utility.yul\":5013:5018   */\n      dup2\n        /* \"#utility.yul\":5010:5042   */\n      eq\n        /* \"#utility.yul\":5000:5060   */\n      tag_128\n      jumpi\n        /* \"#utility.yul\":5056:5057   */\n      0x00\n        /* \"#utility.yul\":5053:5054   */\n      dup1\n        /* \"#utility.yul\":5046:5058   */\n      revert\n        /* \"#utility.yul\":5000:5060   */\n    tag_128:\n        /* \"#utility.yul\":4950:5066   */\n      pop\n      jump\t// out\n        /* \"#utility.yul\":5072:5205   */\n    tag_63:\n        /* \"#utility.yul\":5115:5120   */\n      0x00\n        /* \"#utility.yul\":5153:5159   */\n      dup2\n        /* \"#utility.yul\":5140:5160   */\n      calldataload\n        /* \"#utility.yul\":5131:5160   */\n      swap1\n      pop\n        /* \"#utility.yul\":5169:5199   */\n      tag_130\n        /* \"#utility.yul\":5193:5198   */\n      dup2\n        /* \"#utility.yul\":5169:5199   */\n      tag_62\n      jump\t// in\n    tag_130:\n        /* \"#utility.yul\":5072:5205   */\n      swap3\n      swap2\n      pop\n      pop\n      jump\t// out\n        /* \"#utility.yul\":5211:5824   */\n    tag_15:\n        /* \"#utility.yul\":5285:5291   */\n      0x00\n        /* \"#utility.yul\":5293:5299   */\n      dup1\n        /* \"#utility.yul\":5301:5307   */\n      0x00\n        /* \"#utility.yul\":5350:5352   */\n      0x60\n        /* \"#utility.yul\":5338:5347   */\n      dup5\n        /* \"#utility.yul\":5329:5336   */\n      dup7\n        /* \"#utility.yul\":5325:5348   */\n      sub\n        /* \"#utility.yul\":5321:5353   */\n      slt\n        /* \"#utility.yul\":5318:5437   */\n      iszero\n      tag_132\n      jumpi\n        /* \"#utility.yul\":5356:5435   */\n      tag_133\n      tag_40\n      jump\t// in\n    tag_133:\n        /* \"#utility.yul\":5318:5437   */\n    tag_132:\n        /* \"#utility.yul\":5476:5477   */\n      0x00\n        /* \"#utility.yul\":5501:5554   */\n      tag_134\n        /* \"#utility.yul\":5546:5553   */\n      dup7\n        /* \"#utility.yul\":5537:5543   */\n      dup3\n        /* \"#utility.yul\":5526:5535   */\n      dup8\n        /* \"#utility.yul\":5522:5544   */\n      add\n        /* \"#utility.yul\":5501:5554   */\n      tag_45\n      jump\t// in\n    tag_134:\n        /* \"#utility.yul\":5491:5554   */\n      swap4\n      pop\n        /* \"#utility.yul\":5447:5564   */\n      pop\n        /* \"#utility.yul\":5603:5605   */\n      0x20\n        /* \"#utility.yul\":5629:5682   */\n      tag_135\n        /* \"#utility.yul\":5674:5681   */\n      dup7\n        /* \"#utility.yul\":5665:5671   */\n      dup3\n        /* \"#utility.yul\":5654:5663   */\n      dup8\n        /* \"#utility.yul\":5650:5672   */\n      add\n        /* \"#utility.yul\":5629:5682   */\n      tag_45\n      jump\t// in\n    tag_135:\n        /* \"#utility.yul\":5619:5682   */\n      swap3\n      pop\n        /* \"#utility.yul\":5574:5692   */\n      pop\n        /* \"#utility.yul\":5731:5733   */\n      0x40\n        /* \"#utility.yul\":5757:5807   */\n      tag_136\n        /* \"#utility.yul\":5799:5806   */\n      dup7\n        /* \"#utility.yul\":5790:5796   */\n      dup3\n        /* \"#utility.yul\":5779:5788   */\n      dup8\n        /* \"#utility.yul\":5775:5797   */\n      add\n        /* \"#utility.yul\":5757:5807   */\n      tag_63\n      jump\t// in\n    tag_136:\n        /* \"#utility.yul\":5747:5807   */\n      swap2\n      pop\n        /* \"#utility.yul\":5702:5817   */\n      pop\n        /* \"#utility.yul\":5211:5824   */\n      swap3\n      pop\n      swap3\n      pop\n      swap3\n      jump\t// out\n        /* \"#utility.yul\":5830:6595   */\n    tag_19:\n        /* \"#utility.yul\":5916:5922   */\n      0x00\n        /* \"#utility.yul\":5924:5930   */\n      dup1\n        /* \"#utility.yul\":5932:5938   */\n      0x00\n        /* \"#utility.yul\":5940:5946   */\n      dup1\n        /* \"#utility.yul\":5989:5992   */\n      0x80\n        /* \"#utility.yul\":5977:5986   */\n      dup6\n        /* \"#utility.yul\":5968:5975   */\n      dup8\n        /* \"#utility.yul\":5964:5987   */\n      sub\n        /* \"#utility.yul\":5960:5993   */\n      slt\n        /* \"#utility.yul\":5957:6077   */\n      iszero\n      tag_138\n      jumpi\n        /* \"#utility.yul\":5996:6075   */\n      tag_139\n      tag_40\n      jump\t// in\n    tag_139:\n        /* \"#utility.yul\":5957:6077   */\n    tag_138:\n        /* \"#utility.yul\":6116:6117   */\n      0x00\n        /* \"#utility.yul\":6141:6194   */\n      tag_140\n        /* \"#utility.yul\":6186:6193   */\n      dup8\n        /* \"#utility.yul\":6177:6183   */\n      dup3\n        /* \"#utility.yul\":6166:6175   */\n      dup9\n        /* \"#utility.yul\":6162:6184   */\n      add\n        /* \"#utility.yul\":6141:6194   */\n      tag_45\n      jump\t// in\n    tag_140:\n        /* \"#utility.yul\":6131:6194   */\n      swap5\n      pop\n        /* \"#utility.yul\":6087:6204   */\n      pop\n        /* \"#utility.yul\":6243:6245   */\n      0x20\n        /* \"#utility.yul\":6269:6322   */\n      tag_141\n        /* \"#utility.yul\":6314:6321   */\n      dup8\n        /* \"#utility.yul\":6305:6311   */\n      dup3\n        /* \"#utility.yul\":6294:6303   */\n      dup9\n        /* \"#utility.yul\":6290:6312   */\n      add\n        /* \"#utility.yul\":6269:6322   */\n      tag_45\n      jump\t// in\n    tag_141:\n        /* \"#utility.yul\":6259:6322   */\n      swap4\n      pop\n        /* \"#utility.yul\":6214:6332   */\n      pop\n        /* \"#utility.yul\":6371:6373   */\n      0x40\n        /* \"#utility.yul\":6397:6450   */\n      tag_142\n        /* \"#utility.yul\":6442:6449   */\n      dup8\n        /* \"#utility.yul\":6433:6439   */\n      dup3\n        /* \"#utility.yul\":6422:6431   */\n      dup9\n        /* \"#utility.yul\":6418:6440   */\n      add\n        /* \"#utility.yul\":6397:6450   */\n      tag_45\n      jump\t// in\n    tag_142:\n        /* \"#utility.yul\":6387:6450   */\n      swap3\n      pop\n        /* \"#utility.yul\":6342:6460   */\n      pop\n        /* \"#utility.yul\":6499:6501   */\n      0x60\n        /* \"#utility.yul\":6525:6578   */\n      tag_143\n        /* \"#utility.yul\":6570:6577   */\n      dup8\n        /* \"#utility.yul\":6561:6567   */\n      dup3\n        /* \"#utility.yul\":6550:6559   */\n      dup9\n        /* \"#utility.yul\":6546:6568   */\n      add\n        /* \"#utility.yul\":6525:6578   */\n      tag_48\n      jump\t// in\n    tag_143:\n        /* \"#utility.yul\":6515:6578   */\n      swap2\n      pop\n        /* \"#utility.yul\":6470:6588   */\n      pop\n        /* \"#utility.yul\":5830:6595   */\n      swap3\n      swap6\n      swap2\n      swap5\n      pop\n      swap3\n      pop\n      jump\t// out\n        /* \"#utility.yul\":6601:7366   */\n    tag_23:\n        /* \"#utility.yul\":6687:6693   */\n      0x00\n        /* \"#utility.yul\":6695:6701   */\n      dup1\n        /* \"#utility.yul\":6703:6709   */\n      0x00\n        /* \"#utility.yul\":6711:6717   */\n      dup1\n        /* \"#utility.yul\":6760:6763   */\n      0x80\n        /* \"#utility.yul\":6748:6757   */\n      dup6\n        /* \"#utility.yul\":6739:6746   */\n      dup8\n        /* \"#utility.yul\":6735:6758   */\n      sub\n        /* \"#utility.yul\":6731:6764   */\n      slt\n        /* \"#utility.yul\":6728:6848   */\n      iszero\n      tag_145\n      jumpi\n        /* \"#utility.yul\":6767:6846   */\n      tag_146\n      tag_40\n      jump\t// in\n    tag_146:\n        /* \"#utility.yul\":6728:6848   */\n    tag_145:\n        /* \"#utility.yul\":6887:6888   */\n      0x00\n        /* \"#utility.yul\":6912:6965   */\n      tag_147\n        /* \"#utility.yul\":6957:6964   */\n      dup8\n        /* \"#utility.yul\":6948:6954   */\n      dup3\n        /* \"#utility.yul\":6937:6946   */\n      dup9\n        /* \"#utility.yul\":6933:6955   */\n      add\n        /* \"#utility.yul\":6912:6965   */\n      tag_45\n      jump\t// in\n    tag_147:\n        /* \"#utility.yul\":6902:6965   */\n      swap5\n      pop\n        /* \"#utility.yul\":6858:6975   */\n      pop\n        /* \"#utility.yul\":7014:7016   */\n      0x20\n        /* \"#utility.yul\":7040:7093   */\n      tag_148\n        /* \"#utility.yul\":7085:7092   */\n      dup8\n        /* \"#utility.yul\":7076:7082   */\n      dup3\n        /* \"#utility.yul\":7065:7074   */\n      dup9\n        /* \"#utility.yul\":7061:7083   */\n      add\n        /* \"#utility.yul\":7040:7093   */\n      tag_45\n      jump\t// in\n    tag_148:\n        /* \"#utility.yul\":7030:7093   */\n      swap4\n      pop\n        /* \"#utility.yul\":6985:7103   */\n      pop\n        /* \"#utility.yul\":7142:7144   */\n      0x40\n        /* \"#utility.yul\":7168:7221   */\n      tag_149\n        /* \"#utility.yul\":7213:7220   */\n      dup8\n        /* \"#utility.yul\":7204:7210   */\n      dup3\n        /* \"#utility.yul\":7193:7202   */\n      dup9\n        /* \"#utility.yul\":7189:7211   */\n      add\n        /* \"#utility.yul\":7168:7221   */\n      tag_45\n      jump\t// in\n    tag_149:\n        /* \"#utility.yul\":7158:7221   */\n      swap3\n      pop\n        /* \"#utility.yul\":7113:7231   */\n      pop\n        /* \"#utility.yul\":7270:7272   */\n      0x60\n        /* \"#utility.yul\":7296:7349   */\n      tag_150\n        /* \"#utility.yul\":7341:7348   */\n      dup8\n        /* \"#utility.yul\":7332:7338   */\n      dup3\n        /* \"#utility.yul\":7321:7330   */\n      dup9\n        /* \"#utility.yul\":7317:7339   */\n      add\n        /* \"#utility.yul\":7296:7349   */\n      tag_45\n      jump\t// in\n    tag_150:\n        /* \"#utility.yul\":7286:7349   */\n      swap2\n      pop\n        /* \"#utility.yul\":7241:7359   */\n      pop\n        /* \"#utility.yul\":6601:7366   */\n      swap3\n      swap6\n      swap2\n      swap5\n      pop\n      swap3\n      pop\n      jump\t// out\n        /* \"#utility.yul\":7372:7490   */\n    tag_64:\n        /* \"#utility.yul\":7459:7483   */\n      tag_152\n        /* \"#utility.yul\":7477:7482   */\n      dup2\n        /* \"#utility.yul\":7459:7483   */\n      tag_43\n      jump\t// in\n    tag_152:\n        /* \"#utility.yul\":7454:7457   */\n      dup3\n        /* \"#utility.yul\":7447:7484   */\n      mstore\n        /* \"#utility.yul\":7372:7490   */\n      pop\n      pop\n      jump\t// out\n        /* \"#utility.yul\":7496:7605   */\n    tag_65:\n        /* \"#utility.yul\":7577:7598   */\n      tag_154\n        /* \"#utility.yul\":7592:7597   */\n      dup2\n        /* \"#utility.yul\":7577:7598   */\n      tag_61\n      jump\t// in\n    tag_154:\n        /* \"#utility.yul\":7572:7575   */\n      dup3\n        /* \"#utility.yul\":7565:7599   */\n      mstore\n        /* \"#utility.yul\":7496:7605   */\n      pop\n      pop\n      jump\t// out\n        /* \"#utility.yul\":7611:7931   */\n    tag_28:\n        /* \"#utility.yul\":7726:7730   */\n      0x00\n        /* \"#utility.yul\":7764:7766   */\n      0x40\n        /* \"#utility.yul\":7753:7762   */\n      dup3\n        /* \"#utility.yul\":7749:7767   */\n      add\n        /* \"#utility.yul\":7741:7767   */\n      swap1\n      pop\n        /* \"#utility.yul\":7777:7848   */\n      tag_156\n        /* \"#utility.yul\":7845:7846   */\n      0x00\n        /* \"#utility.yul\":7834:7843   */\n      dup4\n        /* \"#utility.yul\":7830:7847   */\n      add\n        /* \"#utility.yul\":7821:7827   */\n      dup6\n        /* \"#utility.yul\":7777:7848   */\n      tag_64\n      jump\t// in\n    tag_156:\n        /* \"#utility.yul\":7858:7924   */\n      tag_157\n        /* \"#utility.yul\":7920:7922   */\n      0x20\n        /* \"#utility.yul\":7909:7918   */\n      dup4\n        /* \"#utility.yul\":7905:7923   */\n      add\n        /* \"#utility.yul\":7896:7902   */\n      dup5\n        /* \"#utility.yul\":7858:7924   */\n      tag_65\n      jump\t// in\n    tag_157:\n        /* \"#utility.yul\":7611:7931   */\n      swap4\n      swap3\n      pop\n      pop\n      pop\n      jump\t// out\n        /* \"#utility.yul\":7937:8055   */\n    tag_66:\n        /* \"#utility.yul\":8024:8048   */\n      tag_159\n        /* \"#utility.yul\":8042:8047   */\n      dup2\n        /* \"#utility.yul\":8024:8048   */\n      tag_46\n      jump\t// in\n    tag_159:\n        /* \"#utility.yul\":8019:8022   */\n      dup3\n        /* \"#utility.yul\":8012:8049   */\n      mstore\n        /* \"#utility.yul\":7937:8055   */\n      pop\n      pop\n      jump\t// out\n        /* \"#utility.yul\":8061:8503   */\n    tag_34:\n        /* \"#utility.yul\":8210:8214   */\n      0x00\n        /* \"#utility.yul\":8248:8250   */\n      0x60\n        /* \"#utility.yul\":8237:8246   */\n      dup3\n        /* \"#utility.yul\":8233:8251   */\n      add\n        /* \"#utility.yul\":8225:8251   */\n      swap1\n      pop\n        /* \"#utility.yul\":8261:8332   */\n      tag_161\n        /* \"#utility.yul\":8329:8330   */\n      0x00\n        /* \"#utility.yul\":8318:8327   */\n      dup4\n        /* \"#utility.yul\":8314:8331   */\n      add\n        /* \"#utility.yul\":8305:8311   */\n      dup7\n        /* \"#utility.yul\":8261:8332   */\n      tag_64\n      jump\t// in\n    tag_161:\n        /* \"#utility.yul\":8342:8414   */\n      tag_162\n        /* \"#utility.yul\":8410:8412   */\n      0x20\n        /* \"#utility.yul\":8399:8408   */\n      dup4\n        /* \"#utility.yul\":8395:8413   */\n      add\n        /* \"#utility.yul\":8386:8392   */\n      dup6\n        /* \"#utility.yul\":8342:8414   */\n      tag_64\n      jump\t// in\n    tag_162:\n        /* \"#utility.yul\":8424:8496   */\n      tag_163\n        /* \"#utility.yul\":8492:8494   */\n      0x40\n        /* \"#utility.yul\":8481:8490   */\n      dup4\n        /* \"#utility.yul\":8477:8495   */\n      add\n        /* \"#utility.yul\":8468:8474   */\n      dup5\n        /* \"#utility.yul\":8424:8496   */\n      tag_66\n      jump\t// in\n    tag_163:\n        /* \"#utility.yul\":8061:8503   */\n      swap5\n      swap4\n      pop\n      pop\n      pop\n      pop\n      jump\t// out\n\n    auxdata: 0xa2646970667358221220bf46d3ab327d2a045bcde1705eacde7b040088a12eb2fdbea16047ba762506ea64736f6c634300080c0033\n}\n",
				"bytecode": {
					"linkReferences": {},
					"object": "608060405234801561001057600080fd5b506106b9806100206000396000f3fe608060405234801561001057600080fd5b506004361061004c5760003560e01c8063150b7a0214610051578063167d576c146100815780635806f47a1461009d57806399d82305146100b9575b600080fd5b61006b600480360381019061006691906103c4565b6100d5565b6040516100789190610482565b60405180910390f35b61009b600480360381019061009691906104d5565b6100e9565b005b6100b760048036038101906100b29190610528565b61015b565b005b6100d360048036038101906100ce919061058f565b6101d0565b005b600063150b7a0260e01b9050949350505050565b8273ffffffffffffffffffffffffffffffffffffffff1663a22cb46583836040518363ffffffff1660e01b8152600401610124929190610614565b600060405180830381600087803b15801561013e57600080fd5b505af1158015610152573d6000803e3d6000fd5b50505050505050565b8373ffffffffffffffffffffffffffffffffffffffff166342842e0e8484846040518463ffffffff1660e01b81526004016101989392919061064c565b600060405180830381600087803b1580156101b257600080fd5b505af11580156101c6573d6000803e3d6000fd5b5050505050505050565b50505050565b6000604051905090565b600080fd5b600080fd5b600073ffffffffffffffffffffffffffffffffffffffff82169050919050565b6000610215826101ea565b9050919050565b6102258161020a565b811461023057600080fd5b50565b6000813590506102428161021c565b92915050565b6000819050919050565b61025b81610248565b811461026657600080fd5b50565b60008135905061027881610252565b92915050565b600080fd5b600080fd5b6000601f19601f8301169050919050565b7f4e487b7100000000000000000000000000000000000000000000000000000000600052604160045260246000fd5b6102d182610288565b810181811067ffffffffffffffff821117156102f0576102ef610299565b5b80604052505050565b60006103036101d6565b905061030f82826102c8565b919050565b600067ffffffffffffffff82111561032f5761032e610299565b5b61033882610288565b9050602081019050919050565b82818337600083830152505050565b600061036761036284610314565b6102f9565b90508281526020810184848401111561038357610382610283565b5b61038e848285610345565b509392505050565b600082601f8301126103ab576103aa61027e565b5b81356103bb848260208601610354565b91505092915050565b600080600080608085870312156103de576103dd6101e0565b5b60006103ec87828801610233565b94505060206103fd87828801610233565b935050604061040e87828801610269565b925050606085013567ffffffffffffffff81111561042f5761042e6101e5565b5b61043b87828801610396565b91505092959194509250565b60007fffffffff0000000000000000000000000000000000000000000000000000000082169050919050565b61047c81610447565b82525050565b60006020820190506104976000830184610473565b92915050565b60008115159050919050565b6104b28161049d565b81146104bd57600080fd5b50565b6000813590506104cf816104a9565b92915050565b6000806000606084860312156104ee576104ed6101e0565b5b60006104fc86828701610233565b935050602061050d86828701610233565b925050604061051e868287016104c0565b9150509250925092565b60008060008060808587031215610542576105416101e0565b5b600061055087828801610233565b945050602061056187828801610233565b935050604061057287828801610233565b925050606061058387828801610269565b91505092959194509250565b600080600080608085870312156105a9576105a86101e0565b5b60006105b787828801610233565b94505060206105c887828801610233565b93505060406105d987828801610233565b92505060606105ea87828801610233565b91505092959194509250565b6105ff8161020a565b82525050565b61060e8161049d565b82525050565b600060408201905061062960008301856105f6565b6106366020830184610605565b9392505050565b61064681610248565b82525050565b600060608201905061066160008301866105f6565b61066e60208301856105f6565b61067b604083018461063d565b94935050505056fea2646970667358221220bf46d3ab327d2a045bcde1705eacde7b040088a12eb2fdbea16047ba762506ea64736f6c634300080c0033",
					"opcodes": "PUSH1 0x80 PUSH1 0x40 MSTORE CALLVALUE DUP1 ISZERO PUSH2 0x10 JUMPI PUSH1 0x0 DUP1 REVERT JUMPDEST POP PUSH2 0x6B9 DUP1 PUSH2 0x20 PUSH1 0x0 CODECOPY PUSH1 0x0 RETURN INVALID PUSH1 0x80 PUSH1 0x40 MSTORE CALLVALUE DUP1 ISZERO PUSH2 0x10 JUMPI PUSH1 0x0 DUP1 REVERT JUMPDEST POP PUSH1 0x4 CALLDATASIZE LT PUSH2 0x4C JUMPI PUSH1 0x0 CALLDATALOAD PUSH1 0xE0 SHR DUP1 PUSH4 0x150B7A02 EQ PUSH2 0x51 JUMPI DUP1 PUSH4 0x167D576C EQ PUSH2 0x81 JUMPI DUP1 PUSH4 0x5806F47A EQ PUSH2 0x9D JUMPI DUP1 PUSH4 0x99D82305 EQ PUSH2 0xB9 JUMPI JUMPDEST PUSH1 0x0 DUP1 REVERT JUMPDEST PUSH2 0x6B PUSH1 0x4 DUP1 CALLDATASIZE SUB DUP2 ADD SWAP1 PUSH2 0x66 SWAP2 SWAP1 PUSH2 0x3C4 JUMP JUMPDEST PUSH2 0xD5 JUMP JUMPDEST PUSH1 0x40 MLOAD PUSH2 0x78 SWAP2 SWAP1 PUSH2 0x482 JUMP JUMPDEST PUSH1 0x40 MLOAD DUP1 SWAP2 SUB SWAP1 RETURN JUMPDEST PUSH2 0x9B PUSH1 0x4 DUP1 CALLDATASIZE SUB DUP2 ADD SWAP1 PUSH2 0x96 SWAP2 SWAP1 PUSH2 0x4D5 JUMP JUMPDEST PUSH2 0xE9 JUMP JUMPDEST STOP JUMPDEST PUSH2 0xB7 PUSH1 0x4 DUP1 CALLDATASIZE SUB DUP2 ADD SWAP1 PUSH2 0xB2 SWAP2 SWAP1 PUSH2 0x528 JUMP JUMPDEST PUSH2 0x15B JUMP JUMPDEST STOP JUMPDEST PUSH2 0xD3 PUSH1 0x4 DUP1 CALLDATASIZE SUB DUP2 ADD SWAP1 PUSH2 0xCE SWAP2 SWAP1 PUSH2 0x58F JUMP JUMPDEST PUSH2 0x1D0 JUMP JUMPDEST STOP JUMPDEST PUSH1 0x0 PUSH4 0x150B7A02 PUSH1 0xE0 SHL SWAP1 POP SWAP5 SWAP4 POP POP POP POP JUMP JUMPDEST DUP3 PUSH20 0xFFFFFFFFFFFFFFFFFFFFFFFFFFFFFFFFFFFFFFFF AND PUSH4 0xA22CB465 DUP4 DUP4 PUSH1 0x40 MLOAD DUP4 PUSH4 0xFFFFFFFF AND PUSH1 0xE0 SHL DUP2 MSTORE PUSH1 0x4 ADD PUSH2 0x124 SWAP3 SWAP2 SWAP1 PUSH2 0x614 JUMP JUMPDEST PUSH1 0x0 PUSH1 0x40 MLOAD DUP1 DUP4 SUB DUP2 PUSH1 0x0 DUP8 DUP1 EXTCODESIZE ISZERO DUP1 ISZERO PUSH2 0x13E JUMPI PUSH1 0x0 DUP1 REVERT JUMPDEST POP GAS CALL ISZERO DUP1 ISZERO PUSH2 0x152 JUMPI RETURNDATASIZE PUSH1 0x0 DUP1 RETURNDATACOPY RETURNDATASIZE PUSH1 0x0 REVERT JUMPDEST POP POP POP POP POP POP POP JUMP JUMPDEST DUP4 PUSH20 0xFFFFFFFFFFFFFFFFFFFFFFFFFFFFFFFFFFFFFFFF AND PUSH4 0x42842E0E DUP5 DUP5 DUP5 PUSH1 0x40 MLOAD DUP5 PUSH4 0xFFFFFFFF AND PUSH1 0xE0 SHL DUP2 MSTORE PUSH1 0x4 ADD PUSH2 0x198 SWAP4 SWAP3 SWAP2 SWAP1 PUSH2 0x64C JUMP JUMPDEST PUSH1 0x0 PUSH1 0x40 MLOAD DUP1 DUP4 SUB DUP2 PUSH1 0x0 DUP8 DUP1 EXTCODESIZE ISZERO DUP1 ISZERO PUSH2 0x1B2 JUMPI PUSH1 0x0 DUP1 REVERT JUMPDEST POP GAS CALL ISZERO DUP1 ISZERO PUSH2 0x1C6 JUMPI RETURNDATASIZE PUSH1 0x0 DUP1 RETURNDATACOPY RETURNDATASIZE PUSH1 0x0 REVERT JUMPDEST POP POP POP POP POP POP POP POP JUMP JUMPDEST POP POP POP POP JUMP JUMPDEST PUSH1 0x0 PUSH1 0x40 MLOAD SWAP1 POP SWAP1 JUMP JUMPDEST PUSH1 0x0 DUP1 REVERT JUMPDEST PUSH1 0x0 DUP1 REVERT JUMPDEST PUSH1 0x0 PUSH20 0xFFFFFFFFFFFFFFFFFFFFFFFFFFFFFFFFFFFFFFFF DUP3 AND SWAP1 POP SWAP2 SWAP1 POP JUMP JUMPDEST PUSH1 0x0 PUSH2 0x215 DUP3 PUSH2 0x1EA JUMP JUMPDEST SWAP1 POP SWAP2 SWAP1 POP JUMP JUMPDEST PUSH2 0x225 DUP2 PUSH2 0x20A JUMP JUMPDEST DUP2 EQ PUSH2 0x230 JUMPI PUSH1 0x0 DUP1 REVERT JUMPDEST POP JUMP JUMPDEST PUSH1 0x0 DUP2 CALLDATALOAD SWAP1 POP PUSH2 0x242 DUP2 PUSH2 0x21C JUMP JUMPDEST SWAP3 SWAP2 POP POP JUMP JUMPDEST PUSH1 0x0 DUP2 SWAP1 POP SWAP2 SWAP1 POP JUMP JUMPDEST PUSH2 0x25B DUP2 PUSH2 0x248 JUMP JUMPDEST DUP2 EQ PUSH2 0x266 JUMPI PUSH1 0x0 DUP1 REVERT JUMPDEST POP JUMP JUMPDEST PUSH1 0x0 DUP2 CALLDATALOAD SWAP1 POP PUSH2 0x278 DUP2 PUSH2 0x252 JUMP JUMPDEST SWAP3 SWAP2 POP POP JUMP JUMPDEST PUSH1 0x0 DUP1 REVERT JUMPDEST PUSH1 0x0 DUP1 REVERT JUMPDEST PUSH1 0x0 PUSH1 0x1F NOT PUSH1 0x1F DUP4 ADD AND SWAP1 POP SWAP2 SWAP1 POP JUMP JUMPDEST PUSH32 0x4E487B7100000000000000000000000000000000000000000000000000000000 PUSH1 0x0 MSTORE PUSH1 0x41 PUSH1 0x4 MSTORE PUSH1 0x24 PUSH1 0x0 REVERT JUMPDEST PUSH2 0x2D1 DUP3 PUSH2 0x288 JUMP JUMPDEST DUP2 ADD DUP2 DUP2 LT PUSH8 0xFFFFFFFFFFFFFFFF DUP3 GT OR ISZERO PUSH2 0x2F0 JUMPI PUSH2 0x2EF PUSH2 0x299 JUMP JUMPDEST JUMPDEST DUP1 PUSH1 0x40 MSTORE POP POP POP JUMP JUMPDEST PUSH1 0x0 PUSH2 0x303 PUSH2 0x1D6 JUMP JUMPDEST SWAP1 POP PUSH2 0x30F DUP3 DUP3 PUSH2 0x2C8 JUMP JUMPDEST SWAP2 SWAP1 POP JUMP JUMPDEST PUSH1 0x0 PUSH8 0xFFFFFFFFFFFFFFFF DUP3 GT ISZERO PUSH2 0x32F JUMPI PUSH2 0x32E PUSH2 0x299 JUMP JUMPDEST JUMPDEST PUSH2 0x338 DUP3 PUSH2 0x288 JUMP JUMPDEST SWAP1 POP PUSH1 0x20 DUP2 ADD SWAP1 POP SWAP2 SWAP1 POP JUMP JUMPDEST DUP3 DUP2 DUP4 CALLDATACOPY PUSH1 0x0 DUP4 DUP4 ADD MSTORE POP POP POP JUMP JUMPDEST PUSH1 0x0 PUSH2 0x367 PUSH2 0x362 DUP5 PUSH2 0x314 JUMP JUMPDEST PUSH2 0x2F9 JUMP JUMPDEST SWAP1 POP DUP3 DUP2 MSTORE PUSH1 0x20 DUP2 ADD DUP5 DUP5 DUP5 ADD GT ISZERO PUSH2 0x383 JUMPI PUSH2 0x382 PUSH2 0x283 JUMP JUMPDEST JUMPDEST PUSH2 0x38E DUP5 DUP3 DUP6 PUSH2 0x345 JUMP JUMPDEST POP SWAP4 SWAP3 POP POP POP JUMP JUMPDEST PUSH1 0x0 DUP3 PUSH1 0x1F DUP4 ADD SLT PUSH2 0x3AB JUMPI PUSH2 0x3AA PUSH2 0x27E JUMP JUMPDEST JUMPDEST DUP2 CALLDATALOAD PUSH2 0x3BB DUP5 DUP3 PUSH1 0x20 DUP7 ADD PUSH2 0x354 JUMP JUMPDEST SWAP2 POP POP SWAP3 SWAP2 POP POP JUMP JUMPDEST PUSH1 0x0 DUP1 PUSH1 0x0 DUP1 PUSH1 0x80 DUP6 DUP8 SUB SLT ISZERO PUSH2 0x3DE JUMPI PUSH2 0x3DD PUSH2 0x1E0 JUMP JUMPDEST JUMPDEST PUSH1 0x0 PUSH2 0x3EC DUP8 DUP3 DUP9 ADD PUSH2 0x233 JUMP JUMPDEST SWAP5 POP POP PUSH1 0x20 PUSH2 0x3FD DUP8 DUP3 DUP9 ADD PUSH2 0x233 JUMP JUMPDEST SWAP4 POP POP PUSH1 0x40 PUSH2 0x40E DUP8 DUP3 DUP9 ADD PUSH2 0x269 JUMP JUMPDEST SWAP3 POP POP PUSH1 0x60 DUP6 ADD CALLDATALOAD PUSH8 0xFFFFFFFFFFFFFFFF DUP2 GT ISZERO PUSH2 0x42F JUMPI PUSH2 0x42E PUSH2 0x1E5 JUMP JUMPDEST JUMPDEST PUSH2 0x43B DUP8 DUP3 DUP9 ADD PUSH2 0x396 JUMP JUMPDEST SWAP2 POP POP SWAP3 SWAP6 SWAP2 SWAP5 POP SWAP3 POP JUMP JUMPDEST PUSH1 0x0 PUSH32 0xFFFFFFFF00000000000000000000000000000000000000000000000000000000 DUP3 AND SWAP1 POP SWAP2 SWAP1 POP JUMP JUMPDEST PUSH2 0x47C DUP2 PUSH2 0x447 JUMP JUMPDEST DUP3 MSTORE POP POP JUMP JUMPDEST PUSH1 0x0 PUSH1 0x20 DUP3 ADD SWAP1 POP PUSH2 0x497 PUSH1 0x0 DUP4 ADD DUP5 PUSH2 0x473 JUMP JUMPDEST SWAP3 SWAP2 POP POP JUMP JUMPDEST PUSH1 0x0 DUP2 ISZERO ISZERO SWAP1 POP SWAP2 SWAP1 POP JUMP JUMPDEST PUSH2 0x4B2 DUP2 PUSH2 0x49D JUMP JUMPDEST DUP2 EQ PUSH2 0x4BD JUMPI PUSH1 0x0 DUP1 REVERT JUMPDEST POP JUMP JUMPDEST PUSH1 0x0 DUP2 CALLDATALOAD SWAP1 POP PUSH2 0x4CF DUP2 PUSH2 0x4A9 JUMP JUMPDEST SWAP3 SWAP2 POP POP JUMP JUMPDEST PUSH1 0x0 DUP1 PUSH1 0x0 PUSH1 0x60 DUP5 DUP7 SUB SLT ISZERO PUSH2 0x4EE JUMPI PUSH2 0x4ED PUSH2 0x1E0 JUMP JUMPDEST JUMPDEST PUSH1 0x0 PUSH2 0x4FC DUP7 DUP3 DUP8 ADD PUSH2 0x233 JUMP JUMPDEST SWAP4 POP POP PUSH1 0x20 PUSH2 0x50D DUP7 DUP3 DUP8 ADD PUSH2 0x233 JUMP JUMPDEST SWAP3 POP POP PUSH1 0x40 PUSH2 0x51E DUP7 DUP3 DUP8 ADD PUSH2 0x4C0 JUMP JUMPDEST SWAP2 POP POP SWAP3 POP SWAP3 POP SWAP3 JUMP JUMPDEST PUSH1 0x0 DUP1 PUSH1 0x0 DUP1 PUSH1 0x80 DUP6 DUP8 SUB SLT ISZERO PUSH2 0x542 JUMPI PUSH2 0x541 PUSH2 0x1E0 JUMP JUMPDEST JUMPDEST PUSH1 0x0 PUSH2 0x550 DUP8 DUP3 DUP9 ADD PUSH2 0x233 JUMP JUMPDEST SWAP5 POP POP PUSH1 0x20 PUSH2 0x561 DUP8 DUP3 DUP9 ADD PUSH2 0x233 JUMP JUMPDEST SWAP4 POP POP PUSH1 0x40 PUSH2 0x572 DUP8 DUP3 DUP9 ADD PUSH2 0x233 JUMP JUMPDEST SWAP3 POP POP PUSH1 0x60 PUSH2 0x583 DUP8 DUP3 DUP9 ADD PUSH2 0x269 JUMP JUMPDEST SWAP2 POP POP SWAP3 SWAP6 SWAP2 SWAP5 POP SWAP3 POP JUMP JUMPDEST PUSH1 0x0 DUP1 PUSH1 0x0 DUP1 PUSH1 0x80 DUP6 DUP8 SUB SLT ISZERO PUSH2 0x5A9 JUMPI PUSH2 0x5A8 PUSH2 0x1E0 JUMP JUMPDEST JUMPDEST PUSH1 0x0 PUSH2 0x5B7 DUP8 DUP3 DUP9 ADD PUSH2 0x233 JUMP JUMPDEST SWAP5 POP POP PUSH1 0x20 PUSH2 0x5C8 DUP8 DUP3 DUP9 ADD PUSH2 0x233 JUMP JUMPDEST SWAP4 POP POP PUSH1 0x40 PUSH2 0x5D9 DUP8 DUP3 DUP9 ADD PUSH2 0x233 JUMP JUMPDEST SWAP3 POP POP PUSH1 0x60 PUSH2 0x5EA DUP8 DUP3 DUP9 ADD PUSH2 0x233 JUMP JUMPDEST SWAP2 POP POP SWAP3 SWAP6 SWAP2 SWAP5 POP SWAP3 POP JUMP JUMPDEST PUSH2 0x5FF DUP2 PUSH2 0x20A JUMP JUMPDEST DUP3 MSTORE POP POP JUMP JUMPDEST PUSH2 0x60E DUP2 PUSH2 0x49D JUMP JUMPDEST DUP3 MSTORE POP POP JUMP JUMPDEST PUSH1 0x0 PUSH1 0x40 DUP3 ADD SWAP1 POP PUSH2 0x629 PUSH1 0x0 DUP4 ADD DUP6 PUSH2 0x5F6 JUMP JUMPDEST PUSH2 0x636 PUSH1 0x20 DUP4 ADD DUP5 PUSH2 0x605 JUMP JUMPDEST SWAP4 SWAP3 POP POP POP JUMP JUMPDEST PUSH2 0x646 DUP2 PUSH2 0x248 JUMP JUMPDEST DUP3 MSTORE POP POP JUMP JUMPDEST PUSH1 0x0 PUSH1 0x60 DUP3 ADD SWAP1 POP PUSH2 0x661 PUSH1 0x0 DUP4 ADD DUP7 PUSH2 0x5F6 JUMP JUMPDEST PUSH2 0x66E PUSH1 0x20 DUP4 ADD DUP6 PUSH2 0x5F6 JUMP JUMPDEST PUSH2 0x67B PUSH1 0x40 DUP4 ADD DUP5 PUSH2 0x63D JUMP JUMPDEST SWAP5 SWAP4 POP POP POP POP JUMP INVALID LOG2 PUSH5 0x6970667358 0x22 SLT KECCAK256 0xBF CHAINID 0xD3 0xAB ORIGIN PUSH30 0x2A045BCDE1705EACDE7B040088A12EB2FDBEA16047BA762506EA64736F6C PUSH4 0x4300080C STOP CALLER "
				},
				"gasEstimates": {
					"creation": {
						"codeDepositCost": "344200",
						"executionCost": "380",
						"totalCost": "344580"
					},
					"external": {
						"adminSendERC721Token(address,address,address,uint256)": "infinite",
						"adminSetApprovalERC721ForAll(address,address,bool)": "infinite",
						"adminTransferERC20Token(address,address,address,address)": "infinite",
						"onERC721Received(address,address,uint256,bytes)": "infinite"
					},
					"internal": {
						"__ERC721Holder_init()": "infinite",
						"__ERC721Holder_init_unchained()": "infinite"
					}
				},
				"methodIdentifiers": {
					"adminSendERC721Token(address,address,address,uint256)": "5806f47a",
					"adminSetApprovalERC721ForAll(address,address,bool)": "167d576c",
					"adminTransferERC20Token(address,address,address,address)": "99d82305",
					"onERC721Received(address,address,uint256,bytes)": "150b7a02"
				}
			},
			"storageLayout": {
				"storage": [
					{
						"astId": 1497,
						"contract": "Ethreum/TokenHolderUpgradeable.sol:TokenHolderUpgradeable",
						"label": "_initialized",
						"offset": 0,
						"slot": "0",
						"type": "t_uint8"
					},
					{
						"astId": 1500,
						"contract": "Ethreum/TokenHolderUpgradeable.sol:TokenHolderUpgradeable",
						"label": "_initializing",
						"offset": 1,
						"slot": "0",
						"type": "t_bool"
					},
					{
						"astId": 1148,
						"contract": "Ethreum/TokenHolderUpgradeable.sol:TokenHolderUpgradeable",
						"label": "__gap",
						"offset": 0,
						"slot": "1",
						"type": "t_array(t_uint256)50_storage"
					}
				],
				"types": {
					"t_array(t_uint256)50_storage": {
						"base": "t_uint256",
						"encoding": "inplace",
						"label": "uint256[50]",
						"numberOfBytes": "1600"
					},
					"t_bool": {
						"encoding": "inplace",
						"label": "bool",
						"numberOfBytes": "1"
					},
					"t_uint256": {
						"encoding": "inplace",
						"label": "uint256",
						"numberOfBytes": "32"
					},
					"t_uint8": {
						"encoding": "inplace",
						"label": "uint8",
						"numberOfBytes": "1"
					}
				}
			},
			"userdoc": {
				"kind": "user",
				"methods": {},
				"version": 1
			}
		}
	}
}