{
	"ERC20/TitanToken.sol": {
		"MyToken": {
			"abi": [
				{
					"inputs": [],
					"stateMutability": "nonpayable",
					"type": "constructor"
				},
				{
					"anonymous": false,
					"inputs": [
						{
							"indexed": true,
							"internalType": "address",
							"name": "owner",
							"type": "address"
						},
						{
							"indexed": true,
							"internalType": "address",
							"name": "spender",
							"type": "address"
						},
						{
							"indexed": false,
							"internalType": "uint256",
							"name": "value",
							"type": "uint256"
						}
					],
					"name": "Approval",
					"type": "event"
				},
				{
					"anonymous": false,
					"inputs": [
						{
							"indexed": true,
							"internalType": "address",
							"name": "previousOwner",
							"type": "address"
						},
						{
							"indexed": true,
							"internalType": "address",
							"name": "newOwner",
							"type": "address"
						}
					],
					"name": "OwnershipTransferred",
					"type": "event"
				},
				{
					"anonymous": false,
					"inputs": [
						{
							"indexed": false,
							"internalType": "address",
							"name": "account",
							"type": "address"
						}
					],
					"name": "Paused",
					"type": "event"
				},
				{
					"anonymous": false,
					"inputs": [
						{
							"indexed": true,
							"internalType": "address",
							"name": "from",
							"type": "address"
						},
						{
							"indexed": true,
							"internalType": "address",
							"name": "to",
							"type": "address"
						},
						{
							"indexed": false,
							"internalType": "uint256",
							"name": "value",
							"type": "uint256"
						}
					],
					"name": "Transfer",
					"type": "event"
				},
				{
					"anonymous": false,
					"inputs": [
						{
							"indexed": false,
							"internalType": "address",
							"name": "account",
							"type": "address"
						}
					],
					"name": "Unpaused",
					"type": "event"
				},
				{
					"inputs": [
						{
							"internalType": "address",
							"name": "owner",
							"type": "address"
						},
						{
							"internalType": "address",
							"name": "spender",
							"type": "address"
						}
					],
					"name": "allowance",
					"outputs": [
						{
							"internalType": "uint256",
							"name": "",
							"type": "uint256"
						}
					],
					"stateMutability": "view",
					"type": "function"
				},
				{
					"inputs": [
						{
							"internalType": "address",
							"name": "spender",
							"type": "address"
						},
						{
							"internalType": "uint256",
							"name": "amount",
							"type": "uint256"
						}
					],
					"name": "approve",
					"outputs": [
						{
							"internalType": "bool",
							"name": "",
							"type": "bool"
						}
					],
					"stateMutability": "nonpayable",
					"type": "function"
				},
				{
					"inputs": [
						{
							"internalType": "address",
							"name": "account",
							"type": "address"
						}
					],
					"name": "balanceOf",
					"outputs": [
						{
							"internalType": "uint256",
							"name": "",
							"type": "uint256"
						}
					],
					"stateMutability": "view",
					"type": "function"
				},
				{
					"inputs": [
						{
							"internalType": "uint256",
							"name": "amount",
							"type": "uint256"
						}
					],
					"name": "burn",
					"outputs": [],
					"stateMutability": "nonpayable",
					"type": "function"
				},
				{
					"inputs": [
						{
							"internalType": "address",
							"name": "account",
							"type": "address"
						},
						{
							"internalType": "uint256",
							"name": "amount",
							"type": "uint256"
						}
					],
					"name": "burnFrom",
					"outputs": [],
					"stateMutability": "nonpayable",
					"type": "function"
				},
				{
					"inputs": [],
					"name": "decimals",
					"outputs": [
						{
							"internalType": "uint8",
							"name": "",
							"type": "uint8"
						}
					],
					"stateMutability": "view",
					"type": "function"
				},
				{
					"inputs": [
						{
							"internalType": "address",
							"name": "spender",
							"type": "address"
						},
						{
							"internalType": "uint256",
							"name": "subtractedValue",
							"type": "uint256"
						}
					],
					"name": "decreaseAllowance",
					"outputs": [
						{
							"internalType": "bool",
							"name": "",
							"type": "bool"
						}
					],
					"stateMutability": "nonpayable",
					"type": "function"
				},
				{
					"inputs": [
						{
							"internalType": "address",
							"name": "spender",
							"type": "address"
						},
						{
							"internalType": "uint256",
							"name": "addedValue",
							"type": "uint256"
						}
					],
					"name": "increaseAllowance",
					"outputs": [
						{
							"internalType": "bool",
							"name": "",
							"type": "bool"
						}
					],
					"stateMutability": "nonpayable",
					"type": "function"
				},
				{
					"inputs": [
						{
							"internalType": "address",
							"name": "to",
							"type": "address"
						},
						{
							"internalType": "uint256",
							"name": "amount",
							"type": "uint256"
						}
					],
					"name": "mint",
					"outputs": [],
					"stateMutability": "nonpayable",
					"type": "function"
				},
				{
					"inputs": [],
					"name": "name",
					"outputs": [
						{
							"internalType": "string",
							"name": "",
							"type": "string"
						}
					],
					"stateMutability": "view",
					"type": "function"
				},
				{
					"inputs": [],
					"name": "owner",
					"outputs": [
						{
							"internalType": "address",
							"name": "",
							"type": "address"
						}
					],
					"stateMutability": "view",
					"type": "function"
				},
				{
					"inputs": [],
					"name": "pause",
					"outputs": [],
					"stateMutability": "nonpayable",
					"type": "function"
				},
				{
					"inputs": [],
					"name": "paused",
					"outputs": [
						{
							"internalType": "bool",
							"name": "",
							"type": "bool"
						}
					],
					"stateMutability": "view",
					"type": "function"
				},
				{
					"inputs": [],
					"name": "renounceOwnership",
					"outputs": [],
					"stateMutability": "nonpayable",
					"type": "function"
				},
				{
					"inputs": [],
					"name": "symbol",
					"outputs": [
						{
							"internalType": "string",
							"name": "",
							"type": "string"
						}
					],
					"stateMutability": "view",
					"type": "function"
				},
				{
					"inputs": [],
					"name": "totalSupply",
					"outputs": [
						{
							"internalType": "uint256",
							"name": "",
							"type": "uint256"
						}
					],
					"stateMutability": "view",
					"type": "function"
				},
				{
					"inputs": [
						{
							"internalType": "address",
							"name": "to",
							"type": "address"
						},
						{
							"internalType": "uint256",
							"name": "amount",
							"type": "uint256"
						}
					],
					"name": "transfer",
					"outputs": [
						{
							"internalType": "bool",
							"name": "",
							"type": "bool"
						}
					],
					"stateMutability": "nonpayable",
					"type": "function"
				},
				{
					"inputs": [
						{
							"internalType": "address",
							"name": "from",
							"type": "address"
						},
						{
							"internalType": "address",
							"name": "to",
							"type": "address"
						},
						{
							"internalType": "uint256",
							"name": "amount",
							"type": "uint256"
						}
					],
					"name": "transferFrom",
					"outputs": [
						{
							"internalType": "bool",
							"name": "",
							"type": "bool"
						}
					],
					"stateMutability": "nonpayable",
					"type": "function"
				},
				{
					"inputs": [
						{
							"internalType": "address",
							"name": "newOwner",
							"type": "address"
						}
					],
					"name": "transferOwnership",
					"outputs": [],
					"stateMutability": "nonpayable",
					"type": "function"
				},
				{
					"inputs": [],
					"name": "unpause",
					"outputs": [],
					"stateMutability": "nonpayable",
					"type": "function"
				}
			],
			"devdoc": {
				"kind": "dev",
				"methods": {
					"allowance(address,address)": {
						"details": "See {IERC20-allowance}."
					},
					"approve(address,uint256)": {
						"details": "See {IERC20-approve}. NOTE: If `amount` is the maximum `uint256`, the allowance is not updated on `transferFrom`. This is semantically equivalent to an infinite approval. Requirements: - `spender` cannot be the zero address."
					},
					"balanceOf(address)": {
						"details": "See {IERC20-balanceOf}."
					},
					"burn(uint256)": {
						"details": "Destroys `amount` tokens from the caller. See {ERC20-_burn}."
					},
					"burnFrom(address,uint256)": {
						"details": "Destroys `amount` tokens from `account`, deducting from the caller's allowance. See {ERC20-_burn} and {ERC20-allowance}. Requirements: - the caller must have allowance for ``accounts``'s tokens of at least `amount`."
					},
					"decimals()": {
						"details": "Returns the number of decimals used to get its user representation. For example, if `decimals` equals `2`, a balance of `505` tokens should be displayed to a user as `5.05` (`505 / 10 ** 2`). Tokens usually opt for a value of 18, imitating the relationship between Ether and Wei. This is the value {ERC20} uses, unless this function is overridden; NOTE: This information is only used for _display_ purposes: it in no way affects any of the arithmetic of the contract, including {IERC20-balanceOf} and {IERC20-transfer}."
					},
					"decreaseAllowance(address,uint256)": {
						"details": "Atomically decreases the allowance granted to `spender` by the caller. This is an alternative to {approve} that can be used as a mitigation for problems described in {IERC20-approve}. Emits an {Approval} event indicating the updated allowance. Requirements: - `spender` cannot be the zero address. - `spender` must have allowance for the caller of at least `subtractedValue`."
					},
					"increaseAllowance(address,uint256)": {
						"details": "Atomically increases the allowance granted to `spender` by the caller. This is an alternative to {approve} that can be used as a mitigation for problems described in {IERC20-approve}. Emits an {Approval} event indicating the updated allowance. Requirements: - `spender` cannot be the zero address."
					},
					"name()": {
						"details": "Returns the name of the token."
					},
					"owner()": {
						"details": "Returns the address of the current owner."
					},
					"paused()": {
						"details": "Returns true if the contract is paused, and false otherwise."
					},
					"renounceOwnership()": {
						"details": "Leaves the contract without owner. It will not be possible to call `onlyOwner` functions anymore. Can only be called by the current owner. NOTE: Renouncing ownership will leave the contract without an owner, thereby removing any functionality that is only available to the owner."
					},
					"symbol()": {
						"details": "Returns the symbol of the token, usually a shorter version of the name."
					},
					"totalSupply()": {
						"details": "See {IERC20-totalSupply}."
					},
					"transfer(address,uint256)": {
						"details": "See {IERC20-transfer}. Requirements: - `to` cannot be the zero address. - the caller must have a balance of at least `amount`."
					},
					"transferFrom(address,address,uint256)": {
						"details": "See {IERC20-transferFrom}. Emits an {Approval} event indicating the updated allowance. This is not required by the EIP. See the note at the beginning of {ERC20}. NOTE: Does not update the allowance if the current allowance is the maximum `uint256`. Requirements: - `from` and `to` cannot be the zero address. - `from` must have a balance of at least `amount`. - the caller must have allowance for ``from``'s tokens of at least `amount`."
					},
					"transferOwnership(address)": {
						"details": "Transfers ownership of the contract to a new account (`newOwner`). Can only be called by the current owner."
					}
				},
				"version": 1
			},
			"evm": {
				"assembly": "    /* \"ERC20/TitanToken.sol\":181:803  contract MyToken is ERC20, ERC20Burnable, Pausable, Ownable {\r... */\n  mstore(0x40, 0x80)\n    /* \"ERC20/TitanToken.sol\":248:358  constructor() ERC20(\"TitanToken\", \"Titan\") {\r... */\n  callvalue\n  dup1\n  iszero\n  tag_1\n  jumpi\n  0x00\n  dup1\n  revert\ntag_1:\n  pop\n    /* \"ERC20/ERC20.sol\":2018:2134  constructor(string memory name_, string memory symbol_) {\r... */\n  mload(0x40)\n  dup1\n  0x40\n  add\n  0x40\n  mstore\n  dup1\n  0x0a\n  dup2\n  mstore\n  0x20\n  add\n  0x546974616e546f6b656e00000000000000000000000000000000000000000000\n  dup2\n  mstore\n  pop\n  mload(0x40)\n  dup1\n  0x40\n  add\n  0x40\n  mstore\n  dup1\n  0x05\n  dup2\n  mstore\n  0x20\n  add\n  0x546974616e000000000000000000000000000000000000000000000000000000\n  dup2\n  mstore\n  pop\n    /* \"ERC20/ERC20.sol\":2093:2098  name_ */\n  dup2\n    /* \"ERC20/ERC20.sol\":2085:2090  _name */\n  0x03\n    /* \"ERC20/ERC20.sol\":2085:2098  _name = name_ */\n  swap1\n  dup1\n  mload\n  swap1\n  0x20\n  add\n  swap1\n  tag_7\n  swap3\n  swap2\n  swap1\n  tag_8\n  jump\t// in\ntag_7:\n  pop\n    /* \"ERC20/ERC20.sol\":2119:2126  symbol_ */\n  dup1\n    /* \"ERC20/ERC20.sol\":2109:2116  _symbol */\n  0x04\n    /* \"ERC20/ERC20.sol\":2109:2126  _symbol = symbol_ */\n  swap1\n  dup1\n  mload\n  swap1\n  0x20\n  add\n  swap1\n  tag_9\n  swap3\n  swap2\n  swap1\n  tag_8\n  jump\t// in\ntag_9:\n  pop\n    /* \"ERC20/ERC20.sol\":2018:2134  constructor(string memory name_, string memory symbol_) {\r... */\n  pop\n  pop\n    /* \"Utils/Pausable.sol\":1017:1022  false */\n  0x00\n    /* \"Utils/Pausable.sol\":1007:1014  _paused */\n  0x05\n  0x00\n    /* \"Utils/Pausable.sol\":1007:1022  _paused = false */\n  0x0100\n  exp\n  dup2\n  sload\n  dup2\n  0xff\n  mul\n  not\n  and\n  swap1\n  dup4\n  iszero\n  iszero\n  mul\n  or\n  swap1\n  sstore\n  pop\n    /* \"Utils/Ownable.sol\":942:974  _transferOwnership(_msgSender()) */\n  tag_12\n    /* \"Utils/Ownable.sol\":961:973  _msgSender() */\n  tag_13\n    /* \"Utils/Ownable.sol\":961:971  _msgSender */\n  shl(0x20, tag_14)\n    /* \"Utils/Ownable.sol\":961:973  _msgSender() */\n  0x20\n  shr\n  jump\t// in\ntag_13:\n    /* \"Utils/Ownable.sol\":942:960  _transferOwnership */\n  shl(0x20, tag_15)\n    /* \"Utils/Ownable.sol\":942:974  _transferOwnership(_msgSender()) */\n  0x20\n  shr\n  jump\t// in\ntag_12:\n    /* \"ERC20/TitanToken.sol\":302:350  _mint(msg.sender, 1000000000 * 10 ** decimals()) */\n  tag_17\n    /* \"ERC20/TitanToken.sol\":308:318  msg.sender */\n  caller\n    /* \"ERC20/TitanToken.sol\":339:349  decimals() */\n  tag_18\n    /* \"ERC20/TitanToken.sol\":339:347  decimals */\n  shl(0x20, tag_19)\n    /* \"ERC20/TitanToken.sol\":339:349  decimals() */\n  0x20\n  shr\n  jump\t// in\ntag_18:\n    /* \"ERC20/TitanToken.sol\":333:335  10 */\n  0x0a\n    /* \"ERC20/TitanToken.sol\":333:349  10 ** decimals() */\n  tag_20\n  swap2\n  swap1\n  tag_21\n  jump\t// in\ntag_20:\n    /* \"ERC20/TitanToken.sol\":320:330  1000000000 */\n  0x3b9aca00\n    /* \"ERC20/TitanToken.sol\":320:349  1000000000 * 10 ** decimals() */\n  tag_22\n  swap2\n  swap1\n  tag_23\n  jump\t// in\ntag_22:\n    /* \"ERC20/TitanToken.sol\":302:307  _mint */\n  shl(0x20, tag_24)\n    /* \"ERC20/TitanToken.sol\":302:350  _mint(msg.sender, 1000000000 * 10 ** decimals()) */\n  0x20\n  shr\n  jump\t// in\ntag_17:\n    /* \"ERC20/TitanToken.sol\":181:803  contract MyToken is ERC20, ERC20Burnable, Pausable, Ownable {\r... */\n  jump(tag_25)\n    /* \"Utils/Context.sol\":656:754  function _msgSender() internal view virtual returns (address) {\r... */\ntag_14:\n    /* \"Utils/Context.sol\":709:716  address */\n  0x00\n    /* \"Utils/Context.sol\":736:746  msg.sender */\n  caller\n    /* \"Utils/Context.sol\":729:746  return msg.sender */\n  swap1\n  pop\n    /* \"Utils/Context.sol\":656:754  function _msgSender() internal view virtual returns (address) {\r... */\n  swap1\n  jump\t// out\n    /* \"Utils/Ownable.sol\":2333:2524  function _transferOwnership(address newOwner) internal virtual {\r... */\ntag_15:\n    /* \"Utils/Ownable.sol\":2407:2423  address oldOwner */\n  0x00\n    /* \"Utils/Ownable.sol\":2426:2432  _owner */\n  0x05\n  0x01\n  swap1\n  sload\n  swap1\n  0x0100\n  exp\n  swap1\n  div\n  0xffffffffffffffffffffffffffffffffffffffff\n  and\n    /* \"Utils/Ownable.sol\":2407:2432  address oldOwner = _owner */\n  swap1\n  pop\n    /* \"Utils/Ownable.sol\":2452:2460  newOwner */\n  dup2\n    /* \"Utils/Ownable.sol\":2443:2449  _owner */\n  0x05\n  0x01\n    /* \"Utils/Ownable.sol\":2443:2460  _owner = newOwner */\n  0x0100\n  exp\n  dup2\n  sload\n  dup2\n  0xffffffffffffffffffffffffffffffffffffffff\n  mul\n  not\n  and\n  swap1\n  dup4\n  0xffffffffffffffffffffffffffffffffffffffff\n  and\n  mul\n  or\n  swap1\n  sstore\n  pop\n    /* \"Utils/Ownable.sol\":2507:2515  newOwner */\n  dup2\n    /* \"Utils/Ownable.sol\":2476:2516  OwnershipTransferred(oldOwner, newOwner) */\n  0xffffffffffffffffffffffffffffffffffffffff\n  and\n    /* \"Utils/Ownable.sol\":2497:2505  oldOwner */\n  dup2\n    /* \"Utils/Ownable.sol\":2476:2516  OwnershipTransferred(oldOwner, newOwner) */\n  0xffffffffffffffffffffffffffffffffffffffff\n  and\n  0x8be0079c531659141344cd1fd0a4f28419497f9722a3daafe3b4186f6b6457e0\n  mload(0x40)\n  mload(0x40)\n  dup1\n  swap2\n  sub\n  swap1\n  log3\n    /* \"Utils/Ownable.sol\":2333:2524  function _transferOwnership(address newOwner) internal virtual {\r... */\n  pop\n  pop\n  jump\t// out\n    /* \"ERC20/ERC20.sol\":3166:3259  function decimals() public view virtual override returns (uint8) {\r... */\ntag_19:\n    /* \"ERC20/ERC20.sol\":3224:3229  uint8 */\n  0x00\n    /* \"ERC20/ERC20.sol\":3249:3251  18 */\n  0x12\n    /* \"ERC20/ERC20.sol\":3242:3251  return 18 */\n  swap1\n  pop\n    /* \"ERC20/ERC20.sol\":3166:3259  function decimals() public view virtual override returns (uint8) {\r... */\n  swap1\n  jump\t// out\n    /* \"ERC20/ERC20.sol\":8654:9053  function _mint(address account, uint256 amount) internal virtual {\r... */\ntag_24:\n    /* \"ERC20/ERC20.sol\":8757:8758  0 */\n  0x00\n    /* \"ERC20/ERC20.sol\":8738:8759  account != address(0) */\n  0xffffffffffffffffffffffffffffffffffffffff\n  and\n    /* \"ERC20/ERC20.sol\":8738:8745  account */\n  dup3\n    /* \"ERC20/ERC20.sol\":8738:8759  account != address(0) */\n  0xffffffffffffffffffffffffffffffffffffffff\n  and\n  eq\n  iszero\n    /* \"ERC20/ERC20.sol\":8730:8795  require(account != address(0), \"ERC20: mint to the zero address\") */\n  tag_30\n  jumpi\n  mload(0x40)\n  0x08c379a000000000000000000000000000000000000000000000000000000000\n  dup2\n  mstore\n  0x04\n  add\n  tag_31\n  swap1\n  tag_32\n  jump\t// in\ntag_31:\n  mload(0x40)\n  dup1\n  swap2\n  sub\n  swap1\n  revert\ntag_30:\n    /* \"ERC20/ERC20.sol\":8808:8857  _beforeTokenTransfer(address(0), account, amount) */\n  tag_33\n    /* \"ERC20/ERC20.sol\":8837:8838  0 */\n  0x00\n    /* \"ERC20/ERC20.sol\":8841:8848  account */\n  dup4\n    /* \"ERC20/ERC20.sol\":8850:8856  amount */\n  dup4\n    /* \"ERC20/ERC20.sol\":8808:8828  _beforeTokenTransfer */\n  shl(0x20, tag_34)\n    /* \"ERC20/ERC20.sol\":8808:8857  _beforeTokenTransfer(address(0), account, amount) */\n  0x20\n  shr\n  jump\t// in\ntag_33:\n    /* \"ERC20/ERC20.sol\":8886:8892  amount */\n  dup1\n    /* \"ERC20/ERC20.sol\":8870:8882  _totalSupply */\n  0x02\n  0x00\n    /* \"ERC20/ERC20.sol\":8870:8892  _totalSupply += amount */\n  dup3\n  dup3\n  sload\n  tag_35\n  swap2\n  swap1\n  tag_36\n  jump\t// in\ntag_35:\n  swap3\n  pop\n  pop\n  dup2\n  swap1\n  sstore\n  pop\n    /* \"ERC20/ERC20.sol\":8925:8931  amount */\n  dup1\n    /* \"ERC20/ERC20.sol\":8903:8912  _balances */\n  0x00\n    /* \"ERC20/ERC20.sol\":8903:8921  _balances[account] */\n  dup1\n    /* \"ERC20/ERC20.sol\":8913:8920  account */\n  dup5\n    /* \"ERC20/ERC20.sol\":8903:8921  _balances[account] */\n  0xffffffffffffffffffffffffffffffffffffffff\n  and\n  0xffffffffffffffffffffffffffffffffffffffff\n  and\n  dup2\n  mstore\n  0x20\n  add\n  swap1\n  dup2\n  mstore\n  0x20\n  add\n  0x00\n  keccak256\n  0x00\n    /* \"ERC20/ERC20.sol\":8903:8931  _balances[account] += amount */\n  dup3\n  dup3\n  sload\n  tag_37\n  swap2\n  swap1\n  tag_36\n  jump\t// in\ntag_37:\n  swap3\n  pop\n  pop\n  dup2\n  swap1\n  sstore\n  pop\n    /* \"ERC20/ERC20.sol\":8968:8975  account */\n  dup2\n    /* \"ERC20/ERC20.sol\":8947:8984  Transfer(address(0), account, amount) */\n  0xffffffffffffffffffffffffffffffffffffffff\n  and\n    /* \"ERC20/ERC20.sol\":8964:8965  0 */\n  0x00\n    /* \"ERC20/ERC20.sol\":8947:8984  Transfer(address(0), account, amount) */\n  0xffffffffffffffffffffffffffffffffffffffff\n  and\n  0xddf252ad1be2c89b69c2b068fc378daa952ba7f163c4a11628f55a4df523b3ef\n    /* \"ERC20/ERC20.sol\":8977:8983  amount */\n  dup4\n    /* \"ERC20/ERC20.sol\":8947:8984  Transfer(address(0), account, amount) */\n  mload(0x40)\n  tag_38\n  swap2\n  swap1\n  tag_39\n  jump\t// in\ntag_38:\n  mload(0x40)\n  dup1\n  swap2\n  sub\n  swap1\n  log3\n    /* \"ERC20/ERC20.sol\":8997:9045  _afterTokenTransfer(address(0), account, amount) */\n  tag_40\n    /* \"ERC20/ERC20.sol\":9025:9026  0 */\n  0x00\n    /* \"ERC20/ERC20.sol\":9029:9036  account */\n  dup4\n    /* \"ERC20/ERC20.sol\":9038:9044  amount */\n  dup4\n    /* \"ERC20/ERC20.sol\":8997:9016  _afterTokenTransfer */\n  shl(0x20, tag_41)\n    /* \"ERC20/ERC20.sol\":8997:9045  _afterTokenTransfer(address(0), account, amount) */\n  0x20\n  shr\n  jump\t// in\ntag_40:\n    /* \"ERC20/ERC20.sol\":8654:9053  function _mint(address account, uint256 amount) internal virtual {\r... */\n  pop\n  pop\n  jump\t// out\n    /* \"ERC20/TitanToken.sol\":601:800  function _beforeTokenTransfer(address from, address to, uint256 amount)\r... */\ntag_34:\n    /* \"Utils/Pausable.sol\":1456:1464  paused() */\n  tag_43\n    /* \"Utils/Pausable.sol\":1456:1462  paused */\n  shl(0x20, tag_44)\n    /* \"Utils/Pausable.sol\":1456:1464  paused() */\n  0x20\n  shr\n  jump\t// in\ntag_43:\n    /* \"Utils/Pausable.sol\":1455:1464  !paused() */\n  iszero\n    /* \"Utils/Pausable.sol\":1447:1485  require(!paused(), \"Pausable: paused\") */\n  tag_45\n  jumpi\n  mload(0x40)\n  0x08c379a000000000000000000000000000000000000000000000000000000000\n  dup2\n  mstore\n  0x04\n  add\n  tag_46\n  swap1\n  tag_47\n  jump\t// in\ntag_46:\n  mload(0x40)\n  dup1\n  swap2\n  sub\n  swap1\n  revert\ntag_45:\n    /* \"ERC20/TitanToken.sol\":748:792  super._beforeTokenTransfer(from, to, amount) */\n  tag_49\n    /* \"ERC20/TitanToken.sol\":775:779  from */\n  dup4\n    /* \"ERC20/TitanToken.sol\":781:783  to */\n  dup4\n    /* \"ERC20/TitanToken.sol\":785:791  amount */\n  dup4\n    /* \"ERC20/TitanToken.sol\":748:774  super._beforeTokenTransfer */\n  or(tag_0_100, shl(0x20, tag_50))\n    /* \"ERC20/TitanToken.sol\":748:792  super._beforeTokenTransfer(from, to, amount) */\n  0x20\n  shr\n  jump\t// in\ntag_49:\n    /* \"ERC20/TitanToken.sol\":601:800  function _beforeTokenTransfer(address from, address to, uint256 amount)\r... */\n  pop\n  pop\n  pop\n  jump\t// out\n    /* \"ERC20/ERC20.sol\":12868:12992  function _afterTokenTransfer(\r... */\ntag_41:\n  pop\n  pop\n  pop\n  jump\t// out\n    /* \"Utils/Pausable.sol\":1130:1216  function paused() public view virtual returns (bool) {\r... */\ntag_44:\n    /* \"Utils/Pausable.sol\":1177:1181  bool */\n  0x00\n    /* \"Utils/Pausable.sol\":1201:1208  _paused */\n  0x05\n  0x00\n  swap1\n  sload\n  swap1\n  0x0100\n  exp\n  swap1\n  div\n  0xff\n  and\n    /* \"Utils/Pausable.sol\":1194:1208  return _paused */\n  swap1\n  pop\n    /* \"Utils/Pausable.sol\":1130:1216  function paused() public view virtual returns (bool) {\r... */\n  swap1\n  jump\t// out\n    /* \"ERC20/ERC20.sol\":12139:12264  function _beforeTokenTransfer(\r... */\ntag_50:\n  pop\n  pop\n  pop\n  jump\t// out\n    /* \"ERC20/TitanToken.sol\":181:803  contract MyToken is ERC20, ERC20Burnable, Pausable, Ownable {\r... */\ntag_8:\n  dup3\n  dup1\n  sload\n  tag_54\n  swap1\n  tag_55\n  jump\t// in\ntag_54:\n  swap1\n  0x00\n  mstore\n  keccak256(0x00, 0x20)\n  swap1\n  0x1f\n  add\n  0x20\n  swap1\n  div\n  dup2\n  add\n  swap3\n  dup3\n  tag_57\n  jumpi\n  0x00\n  dup6\n  sstore\n  jump(tag_56)\ntag_57:\n  dup3\n  0x1f\n  lt\n  tag_58\n  jumpi\n  dup1\n  mload\n  not(0xff)\n  and\n  dup4\n  dup1\n  add\n  or\n  dup6\n  sstore\n  jump(tag_56)\ntag_58:\n  dup3\n  dup1\n  add\n  0x01\n  add\n  dup6\n  sstore\n  dup3\n  iszero\n  tag_56\n  jumpi\n  swap2\n  dup3\n  add\ntag_59:\n  dup3\n  dup2\n  gt\n  iszero\n  tag_60\n  jumpi\n  dup3\n  mload\n  dup3\n  sstore\n  swap2\n  0x20\n  add\n  swap2\n  swap1\n  0x01\n  add\n  swap1\n  jump(tag_59)\ntag_60:\ntag_56:\n  pop\n  swap1\n  pop\n  tag_61\n  swap2\n  swap1\n  tag_62\n  jump\t// in\ntag_61:\n  pop\n  swap1\n  jump\t// out\ntag_62:\ntag_63:\n  dup1\n  dup3\n  gt\n  iszero\n  tag_64\n  jumpi\n  0x00\n  dup2\n  0x00\n  swap1\n  sstore\n  pop\n  0x01\n  add\n  jump(tag_63)\ntag_64:\n  pop\n  swap1\n  jump\t// out\n    /* \"#utility.yul\":7:373   */\ntag_66:\n    /* \"#utility.yul\":149:152   */\n  0x00\n    /* \"#utility.yul\":170:237   */\n  tag_68\n    /* \"#utility.yul\":234:236   */\n  0x10\n    /* \"#utility.yul\":229:232   */\n  dup4\n    /* \"#utility.yul\":170:237   */\n  tag_69\n  jump\t// in\ntag_68:\n    /* \"#utility.yul\":163:237   */\n  swap2\n  pop\n    /* \"#utility.yul\":246:339   */\n  tag_70\n    /* \"#utility.yul\":335:338   */\n  dup3\n    /* \"#utility.yul\":246:339   */\n  tag_71\n  jump\t// in\ntag_70:\n    /* \"#utility.yul\":364:366   */\n  0x20\n    /* \"#utility.yul\":359:362   */\n  dup3\n    /* \"#utility.yul\":355:367   */\n  add\n    /* \"#utility.yul\":348:367   */\n  swap1\n  pop\n    /* \"#utility.yul\":153:373   */\n  swap2\n  swap1\n  pop\n  jump\t// out\n    /* \"#utility.yul\":379:745   */\ntag_72:\n    /* \"#utility.yul\":521:524   */\n  0x00\n    /* \"#utility.yul\":542:609   */\n  tag_74\n    /* \"#utility.yul\":606:608   */\n  0x1f\n    /* \"#utility.yul\":601:604   */\n  dup4\n    /* \"#utility.yul\":542:609   */\n  tag_69\n  jump\t// in\ntag_74:\n    /* \"#utility.yul\":535:609   */\n  swap2\n  pop\n    /* \"#utility.yul\":618:711   */\n  tag_75\n    /* \"#utility.yul\":707:710   */\n  dup3\n    /* \"#utility.yul\":618:711   */\n  tag_76\n  jump\t// in\ntag_75:\n    /* \"#utility.yul\":736:738   */\n  0x20\n    /* \"#utility.yul\":731:734   */\n  dup3\n    /* \"#utility.yul\":727:739   */\n  add\n    /* \"#utility.yul\":720:739   */\n  swap1\n  pop\n    /* \"#utility.yul\":525:745   */\n  swap2\n  swap1\n  pop\n  jump\t// out\n    /* \"#utility.yul\":751:869   */\ntag_77:\n    /* \"#utility.yul\":838:862   */\n  tag_79\n    /* \"#utility.yul\":856:861   */\n  dup2\n    /* \"#utility.yul\":838:862   */\n  tag_80\n  jump\t// in\ntag_79:\n    /* \"#utility.yul\":833:836   */\n  dup3\n    /* \"#utility.yul\":826:863   */\n  mstore\n    /* \"#utility.yul\":816:869   */\n  pop\n  pop\n  jump\t// out\n    /* \"#utility.yul\":875:1294   */\ntag_47:\n    /* \"#utility.yul\":1041:1045   */\n  0x00\n    /* \"#utility.yul\":1079:1081   */\n  0x20\n    /* \"#utility.yul\":1068:1077   */\n  dup3\n    /* \"#utility.yul\":1064:1082   */\n  add\n    /* \"#utility.yul\":1056:1082   */\n  swap1\n  pop\n    /* \"#utility.yul\":1128:1137   */\n  dup2\n    /* \"#utility.yul\":1122:1126   */\n  dup2\n    /* \"#utility.yul\":1118:1138   */\n  sub\n    /* \"#utility.yul\":1114:1115   */\n  0x00\n    /* \"#utility.yul\":1103:1112   */\n  dup4\n    /* \"#utility.yul\":1099:1116   */\n  add\n    /* \"#utility.yul\":1092:1139   */\n  mstore\n    /* \"#utility.yul\":1156:1287   */\n  tag_82\n    /* \"#utility.yul\":1282:1286   */\n  dup2\n    /* \"#utility.yul\":1156:1287   */\n  tag_66\n  jump\t// in\ntag_82:\n    /* \"#utility.yul\":1148:1287   */\n  swap1\n  pop\n    /* \"#utility.yul\":1046:1294   */\n  swap2\n  swap1\n  pop\n  jump\t// out\n    /* \"#utility.yul\":1300:1719   */\ntag_32:\n    /* \"#utility.yul\":1466:1470   */\n  0x00\n    /* \"#utility.yul\":1504:1506   */\n  0x20\n    /* \"#utility.yul\":1493:1502   */\n  dup3\n    /* \"#utility.yul\":1489:1507   */\n  add\n    /* \"#utility.yul\":1481:1507   */\n  swap1\n  pop\n    /* \"#utility.yul\":1553:1562   */\n  dup2\n    /* \"#utility.yul\":1547:1551   */\n  dup2\n    /* \"#utility.yul\":1543:1563   */\n  sub\n    /* \"#utility.yul\":1539:1540   */\n  0x00\n    /* \"#utility.yul\":1528:1537   */\n  dup4\n    /* \"#utility.yul\":1524:1541   */\n  add\n    /* \"#utility.yul\":1517:1564   */\n  mstore\n    /* \"#utility.yul\":1581:1712   */\n  tag_84\n    /* \"#utility.yul\":1707:1711   */\n  dup2\n    /* \"#utility.yul\":1581:1712   */\n  tag_72\n  jump\t// in\ntag_84:\n    /* \"#utility.yul\":1573:1712   */\n  swap1\n  pop\n    /* \"#utility.yul\":1471:1719   */\n  swap2\n  swap1\n  pop\n  jump\t// out\n    /* \"#utility.yul\":1725:1947   */\ntag_39:\n    /* \"#utility.yul\":1818:1822   */\n  0x00\n    /* \"#utility.yul\":1856:1858   */\n  0x20\n    /* \"#utility.yul\":1845:1854   */\n  dup3\n    /* \"#utility.yul\":1841:1859   */\n  add\n    /* \"#utility.yul\":1833:1859   */\n  swap1\n  pop\n    /* \"#utility.yul\":1869:1940   */\n  tag_86\n    /* \"#utility.yul\":1937:1938   */\n  0x00\n    /* \"#utility.yul\":1926:1935   */\n  dup4\n    /* \"#utility.yul\":1922:1939   */\n  add\n    /* \"#utility.yul\":1913:1919   */\n  dup5\n    /* \"#utility.yul\":1869:1940   */\n  tag_77\n  jump\t// in\ntag_86:\n    /* \"#utility.yul\":1823:1947   */\n  swap3\n  swap2\n  pop\n  pop\n  jump\t// out\n    /* \"#utility.yul\":1953:2122   */\ntag_69:\n    /* \"#utility.yul\":2037:2048   */\n  0x00\n    /* \"#utility.yul\":2071:2077   */\n  dup3\n    /* \"#utility.yul\":2066:2069   */\n  dup3\n    /* \"#utility.yul\":2059:2078   */\n  mstore\n    /* \"#utility.yul\":2111:2115   */\n  0x20\n    /* \"#utility.yul\":2106:2109   */\n  dup3\n    /* \"#utility.yul\":2102:2116   */\n  add\n    /* \"#utility.yul\":2087:2116   */\n  swap1\n  pop\n    /* \"#utility.yul\":2049:2122   */\n  swap3\n  swap2\n  pop\n  pop\n  jump\t// out\n    /* \"#utility.yul\":2128:2433   */\ntag_36:\n    /* \"#utility.yul\":2168:2171   */\n  0x00\n    /* \"#utility.yul\":2187:2207   */\n  tag_89\n    /* \"#utility.yul\":2205:2206   */\n  dup3\n    /* \"#utility.yul\":2187:2207   */\n  tag_80\n  jump\t// in\ntag_89:\n    /* \"#utility.yul\":2182:2207   */\n  swap2\n  pop\n    /* \"#utility.yul\":2221:2241   */\n  tag_90\n    /* \"#utility.yul\":2239:2240   */\n  dup4\n    /* \"#utility.yul\":2221:2241   */\n  tag_80\n  jump\t// in\ntag_90:\n    /* \"#utility.yul\":2216:2241   */\n  swap3\n  pop\n    /* \"#utility.yul\":2375:2376   */\n  dup3\n    /* \"#utility.yul\":2307:2373   */\n  0xffffffffffffffffffffffffffffffffffffffffffffffffffffffffffffffff\n    /* \"#utility.yul\":2303:2377   */\n  sub\n    /* \"#utility.yul\":2300:2301   */\n  dup3\n    /* \"#utility.yul\":2297:2378   */\n  gt\n    /* \"#utility.yul\":2294:2296   */\n  iszero\n  tag_91\n  jumpi\n    /* \"#utility.yul\":2381:2399   */\n  tag_92\n  tag_93\n  jump\t// in\ntag_92:\n    /* \"#utility.yul\":2294:2296   */\ntag_91:\n    /* \"#utility.yul\":2425:2426   */\n  dup3\n    /* \"#utility.yul\":2422:2423   */\n  dup3\n    /* \"#utility.yul\":2418:2427   */\n  add\n    /* \"#utility.yul\":2411:2427   */\n  swap1\n  pop\n    /* \"#utility.yul\":2172:2433   */\n  swap3\n  swap2\n  pop\n  pop\n  jump\t// out\n    /* \"#utility.yul\":2439:3287   */\ntag_94:\n    /* \"#utility.yul\":2500:2505   */\n  0x00\n    /* \"#utility.yul\":2507:2511   */\n  dup1\n    /* \"#utility.yul\":2531:2537   */\n  dup3\n    /* \"#utility.yul\":2522:2537   */\n  swap2\n  pop\n    /* \"#utility.yul\":2555:2560   */\n  dup4\n    /* \"#utility.yul\":2546:2560   */\n  swap1\n  pop\n    /* \"#utility.yul\":2569:3281   */\ntag_96:\n    /* \"#utility.yul\":2590:2591   */\n  0x01\n    /* \"#utility.yul\":2580:2588   */\n  dup6\n    /* \"#utility.yul\":2577:2592   */\n  gt\n    /* \"#utility.yul\":2569:3281   */\n  iszero\n  tag_98\n  jumpi\n    /* \"#utility.yul\":2685:2689   */\n  dup1\n    /* \"#utility.yul\":2680:2683   */\n  dup7\n    /* \"#utility.yul\":2676:2690   */\n  div\n    /* \"#utility.yul\":2670:2674   */\n  dup2\n    /* \"#utility.yul\":2667:2691   */\n  gt\n    /* \"#utility.yul\":2664:2666   */\n  iszero\n  tag_99\n  jumpi\n    /* \"#utility.yul\":2694:2712   */\n  tag_100\n  tag_93\n  jump\t// in\ntag_100:\n    /* \"#utility.yul\":2664:2666   */\ntag_99:\n    /* \"#utility.yul\":2744:2745   */\n  0x01\n    /* \"#utility.yul\":2734:2742   */\n  dup6\n    /* \"#utility.yul\":2730:2746   */\n  and\n    /* \"#utility.yul\":2727:2729   */\n  iszero\n  tag_101\n  jumpi\n    /* \"#utility.yul\":3159:3163   */\n  dup1\n    /* \"#utility.yul\":3152:3157   */\n  dup3\n    /* \"#utility.yul\":3148:3164   */\n  mul\n    /* \"#utility.yul\":3139:3164   */\n  swap2\n  pop\n    /* \"#utility.yul\":2727:2729   */\ntag_101:\n    /* \"#utility.yul\":3209:3213   */\n  dup1\n    /* \"#utility.yul\":3203:3207   */\n  dup2\n    /* \"#utility.yul\":3199:3214   */\n  mul\n    /* \"#utility.yul\":3191:3214   */\n  swap1\n  pop\n    /* \"#utility.yul\":3239:3271   */\n  tag_102\n    /* \"#utility.yul\":3262:3270   */\n  dup6\n    /* \"#utility.yul\":3239:3271   */\n  tag_103\n  jump\t// in\ntag_102:\n    /* \"#utility.yul\":3227:3271   */\n  swap5\n  pop\n    /* \"#utility.yul\":2569:3281   */\n  jump(tag_96)\ntag_98:\n    /* \"#utility.yul\":2512:3287   */\n  swap5\n  pop\n  swap5\n  swap3\n  pop\n  pop\n  pop\n  jump\t// out\n    /* \"#utility.yul\":3293:3574   */\ntag_21:\n    /* \"#utility.yul\":3351:3356   */\n  0x00\n    /* \"#utility.yul\":3375:3398   */\n  tag_105\n    /* \"#utility.yul\":3393:3397   */\n  dup3\n    /* \"#utility.yul\":3375:3398   */\n  tag_80\n  jump\t// in\ntag_105:\n    /* \"#utility.yul\":3367:3398   */\n  swap2\n  pop\n    /* \"#utility.yul\":3419:3444   */\n  tag_106\n    /* \"#utility.yul\":3435:3443   */\n  dup4\n    /* \"#utility.yul\":3419:3444   */\n  tag_107\n  jump\t// in\ntag_106:\n    /* \"#utility.yul\":3407:3444   */\n  swap3\n  pop\n    /* \"#utility.yul\":3463:3567   */\n  tag_108\n    /* \"#utility.yul\":3500:3566   */\n  0xffffffffffffffffffffffffffffffffffffffffffffffffffffffffffffffff\n    /* \"#utility.yul\":3490:3498   */\n  dup5\n    /* \"#utility.yul\":3484:3488   */\n  dup5\n    /* \"#utility.yul\":3463:3567   */\n  tag_109\n  jump\t// in\ntag_108:\n    /* \"#utility.yul\":3454:3567   */\n  swap1\n  pop\n    /* \"#utility.yul\":3357:3574   */\n  swap3\n  swap2\n  pop\n  pop\n  jump\t// out\n    /* \"#utility.yul\":3580:4653   */\ntag_109:\n    /* \"#utility.yul\":3634:3639   */\n  0x00\n    /* \"#utility.yul\":3825:3833   */\n  dup3\n    /* \"#utility.yul\":3815:3817   */\n  tag_111\n  jumpi\n    /* \"#utility.yul\":3846:3847   */\n  0x01\n    /* \"#utility.yul\":3837:3847   */\n  swap1\n  pop\n    /* \"#utility.yul\":3848:3853   */\n  jump(tag_110)\n    /* \"#utility.yul\":3815:3817   */\ntag_111:\n    /* \"#utility.yul\":3874:3878   */\n  dup2\n    /* \"#utility.yul\":3864:3866   */\n  tag_112\n  jumpi\n    /* \"#utility.yul\":3891:3892   */\n  0x00\n    /* \"#utility.yul\":3882:3892   */\n  swap1\n  pop\n    /* \"#utility.yul\":3893:3898   */\n  jump(tag_110)\n    /* \"#utility.yul\":3864:3866   */\ntag_112:\n    /* \"#utility.yul\":3960:3964   */\n  dup2\n    /* \"#utility.yul\":4008:4009   */\n  0x01\n    /* \"#utility.yul\":4003:4030   */\n  dup2\n  eq\n  tag_114\n  jumpi\n    /* \"#utility.yul\":4044:4045   */\n  0x02\n    /* \"#utility.yul\":4039:4230   */\n  dup2\n  eq\n  tag_115\n  jumpi\n    /* \"#utility.yul\":3953:4230   */\n  jump(tag_113)\n    /* \"#utility.yul\":4003:4030   */\ntag_114:\n    /* \"#utility.yul\":4021:4022   */\n  0x01\n    /* \"#utility.yul\":4012:4022   */\n  swap2\n  pop\n    /* \"#utility.yul\":4023:4028   */\n  pop\n  jump(tag_110)\n    /* \"#utility.yul\":4039:4230   */\ntag_115:\n    /* \"#utility.yul\":4084:4087   */\n  0xff\n    /* \"#utility.yul\":4074:4082   */\n  dup5\n    /* \"#utility.yul\":4071:4088   */\n  gt\n    /* \"#utility.yul\":4068:4070   */\n  iszero\n  tag_116\n  jumpi\n    /* \"#utility.yul\":4091:4109   */\n  tag_117\n  tag_93\n  jump\t// in\ntag_117:\n    /* \"#utility.yul\":4068:4070   */\ntag_116:\n    /* \"#utility.yul\":4140:4148   */\n  dup4\n    /* \"#utility.yul\":4137:4138   */\n  0x02\n    /* \"#utility.yul\":4133:4149   */\n  exp\n    /* \"#utility.yul\":4124:4149   */\n  swap2\n  pop\n    /* \"#utility.yul\":4175:4178   */\n  dup5\n    /* \"#utility.yul\":4168:4173   */\n  dup3\n    /* \"#utility.yul\":4165:4179   */\n  gt\n    /* \"#utility.yul\":4162:4164   */\n  iszero\n  tag_118\n  jumpi\n    /* \"#utility.yul\":4182:4200   */\n  tag_119\n  tag_93\n  jump\t// in\ntag_119:\n    /* \"#utility.yul\":4162:4164   */\ntag_118:\n    /* \"#utility.yul\":4215:4220   */\n  pop\n  jump(tag_110)\n    /* \"#utility.yul\":3953:4230   */\ntag_113:\n  pop\n    /* \"#utility.yul\":4339:4341   */\n  0x20\n    /* \"#utility.yul\":4329:4337   */\n  dup4\n    /* \"#utility.yul\":4326:4342   */\n  lt\n    /* \"#utility.yul\":4320:4323   */\n  0x0133\n    /* \"#utility.yul\":4314:4318   */\n  dup4\n    /* \"#utility.yul\":4311:4324   */\n  lt\n    /* \"#utility.yul\":4307:4343   */\n  and\n    /* \"#utility.yul\":4289:4291   */\n  0x4e\n    /* \"#utility.yul\":4279:4287   */\n  dup5\n    /* \"#utility.yul\":4276:4292   */\n  lt\n    /* \"#utility.yul\":4271:4273   */\n  0x0b\n    /* \"#utility.yul\":4265:4269   */\n  dup5\n    /* \"#utility.yul\":4262:4274   */\n  lt\n    /* \"#utility.yul\":4258:4293   */\n  and\n    /* \"#utility.yul\":4242:4353   */\n  or\n    /* \"#utility.yul\":4239:4241   */\n  iszero\n  tag_120\n  jumpi\n    /* \"#utility.yul\":4395:4403   */\n  dup3\n    /* \"#utility.yul\":4389:4393   */\n  dup3\n    /* \"#utility.yul\":4385:4404   */\n  exp\n    /* \"#utility.yul\":4376:4404   */\n  swap1\n  pop\n    /* \"#utility.yul\":4430:4433   */\n  dup4\n    /* \"#utility.yul\":4423:4428   */\n  dup2\n    /* \"#utility.yul\":4420:4434   */\n  gt\n    /* \"#utility.yul\":4417:4419   */\n  iszero\n  tag_121\n  jumpi\n    /* \"#utility.yul\":4437:4455   */\n  tag_122\n  tag_93\n  jump\t// in\ntag_122:\n    /* \"#utility.yul\":4417:4419   */\ntag_121:\n    /* \"#utility.yul\":4470:4475   */\n  jump(tag_110)\n    /* \"#utility.yul\":4239:4241   */\ntag_120:\n    /* \"#utility.yul\":4510:4552   */\n  tag_123\n    /* \"#utility.yul\":4548:4551   */\n  dup5\n    /* \"#utility.yul\":4538:4546   */\n  dup5\n    /* \"#utility.yul\":4532:4536   */\n  dup5\n    /* \"#utility.yul\":4529:4530   */\n  0x01\n    /* \"#utility.yul\":4510:4552   */\n  tag_94\n  jump\t// in\ntag_123:\n    /* \"#utility.yul\":4495:4552   */\n  swap3\n  pop\n  swap1\n  pop\n    /* \"#utility.yul\":4584:4588   */\n  dup2\n    /* \"#utility.yul\":4579:4582   */\n  dup5\n    /* \"#utility.yul\":4575:4589   */\n  div\n    /* \"#utility.yul\":4568:4573   */\n  dup2\n    /* \"#utility.yul\":4565:4590   */\n  gt\n    /* \"#utility.yul\":4562:4564   */\n  iszero\n  tag_124\n  jumpi\n    /* \"#utility.yul\":4593:4611   */\n  tag_125\n  tag_93\n  jump\t// in\ntag_125:\n    /* \"#utility.yul\":4562:4564   */\ntag_124:\n    /* \"#utility.yul\":4642:4646   */\n  dup2\n    /* \"#utility.yul\":4635:4640   */\n  dup2\n    /* \"#utility.yul\":4631:4647   */\n  mul\n    /* \"#utility.yul\":4622:4647   */\n  swap1\n  pop\n    /* \"#utility.yul\":3640:4653   */\ntag_110:\n  swap4\n  swap3\n  pop\n  pop\n  pop\n  jump\t// out\n    /* \"#utility.yul\":4659:5007   */\ntag_23:\n    /* \"#utility.yul\":4699:4706   */\n  0x00\n    /* \"#utility.yul\":4722:4742   */\n  tag_127\n    /* \"#utility.yul\":4740:4741   */\n  dup3\n    /* \"#utility.yul\":4722:4742   */\n  tag_80\n  jump\t// in\ntag_127:\n    /* \"#utility.yul\":4717:4742   */\n  swap2\n  pop\n    /* \"#utility.yul\":4756:4776   */\n  tag_128\n    /* \"#utility.yul\":4774:4775   */\n  dup4\n    /* \"#utility.yul\":4756:4776   */\n  tag_80\n  jump\t// in\ntag_128:\n    /* \"#utility.yul\":4751:4776   */\n  swap3\n  pop\n    /* \"#utility.yul\":4944:4945   */\n  dup2\n    /* \"#utility.yul\":4876:4942   */\n  0xffffffffffffffffffffffffffffffffffffffffffffffffffffffffffffffff\n    /* \"#utility.yul\":4872:4946   */\n  div\n    /* \"#utility.yul\":4869:4870   */\n  dup4\n    /* \"#utility.yul\":4866:4947   */\n  gt\n    /* \"#utility.yul\":4861:4862   */\n  dup3\n    /* \"#utility.yul\":4854:4863   */\n  iszero\n    /* \"#utility.yul\":4847:4864   */\n  iszero\n    /* \"#utility.yul\":4843:4948   */\n  and\n    /* \"#utility.yul\":4840:4842   */\n  iszero\n  tag_129\n  jumpi\n    /* \"#utility.yul\":4951:4969   */\n  tag_130\n  tag_93\n  jump\t// in\ntag_130:\n    /* \"#utility.yul\":4840:4842   */\ntag_129:\n    /* \"#utility.yul\":4999:5000   */\n  dup3\n    /* \"#utility.yul\":4996:4997   */\n  dup3\n    /* \"#utility.yul\":4992:5001   */\n  mul\n    /* \"#utility.yul\":4981:5001   */\n  swap1\n  pop\n    /* \"#utility.yul\":4707:5007   */\n  swap3\n  swap2\n  pop\n  pop\n  jump\t// out\n    /* \"#utility.yul\":5013:5090   */\ntag_80:\n    /* \"#utility.yul\":5050:5057   */\n  0x00\n    /* \"#utility.yul\":5079:5084   */\n  dup2\n    /* \"#utility.yul\":5068:5084   */\n  swap1\n  pop\n    /* \"#utility.yul\":5058:5090   */\n  swap2\n  swap1\n  pop\n  jump\t// out\n    /* \"#utility.yul\":5096:5182   */\ntag_107:\n    /* \"#utility.yul\":5131:5138   */\n  0x00\n    /* \"#utility.yul\":5171:5175   */\n  0xff\n    /* \"#utility.yul\":5164:5169   */\n  dup3\n    /* \"#utility.yul\":5160:5176   */\n  and\n    /* \"#utility.yul\":5149:5176   */\n  swap1\n  pop\n    /* \"#utility.yul\":5139:5182   */\n  swap2\n  swap1\n  pop\n  jump\t// out\n    /* \"#utility.yul\":5188:5508   */\ntag_55:\n    /* \"#utility.yul\":5232:5238   */\n  0x00\n    /* \"#utility.yul\":5269:5270   */\n  0x02\n    /* \"#utility.yul\":5263:5267   */\n  dup3\n    /* \"#utility.yul\":5259:5271   */\n  div\n    /* \"#utility.yul\":5249:5271   */\n  swap1\n  pop\n    /* \"#utility.yul\":5316:5317   */\n  0x01\n    /* \"#utility.yul\":5310:5314   */\n  dup3\n    /* \"#utility.yul\":5306:5318   */\n  and\n    /* \"#utility.yul\":5337:5355   */\n  dup1\n    /* \"#utility.yul\":5327:5329   */\n  tag_134\n  jumpi\n    /* \"#utility.yul\":5393:5397   */\n  0x7f\n    /* \"#utility.yul\":5385:5391   */\n  dup3\n    /* \"#utility.yul\":5381:5398   */\n  and\n    /* \"#utility.yul\":5371:5398   */\n  swap2\n  pop\n    /* \"#utility.yul\":5327:5329   */\ntag_134:\n    /* \"#utility.yul\":5455:5457   */\n  0x20\n    /* \"#utility.yul\":5447:5453   */\n  dup3\n    /* \"#utility.yul\":5444:5458   */\n  lt\n    /* \"#utility.yul\":5424:5442   */\n  dup2\n    /* \"#utility.yul\":5421:5459   */\n  eq\n    /* \"#utility.yul\":5418:5420   */\n  iszero\n  tag_135\n  jumpi\n    /* \"#utility.yul\":5474:5492   */\n  tag_136\n  tag_137\n  jump\t// in\ntag_136:\n    /* \"#utility.yul\":5418:5420   */\ntag_135:\n    /* \"#utility.yul\":5239:5508   */\n  pop\n  swap2\n  swap1\n  pop\n  jump\t// out\n    /* \"#utility.yul\":5514:5694   */\ntag_93:\n    /* \"#utility.yul\":5562:5639   */\n  0x4e487b7100000000000000000000000000000000000000000000000000000000\n    /* \"#utility.yul\":5559:5560   */\n  0x00\n    /* \"#utility.yul\":5552:5640   */\n  mstore\n    /* \"#utility.yul\":5659:5663   */\n  0x11\n    /* \"#utility.yul\":5656:5657   */\n  0x04\n    /* \"#utility.yul\":5649:5664   */\n  mstore\n    /* \"#utility.yul\":5683:5687   */\n  0x24\n    /* \"#utility.yul\":5680:5681   */\n  0x00\n    /* \"#utility.yul\":5673:5688   */\n  revert\n    /* \"#utility.yul\":5700:5880   */\ntag_137:\n    /* \"#utility.yul\":5748:5825   */\n  0x4e487b7100000000000000000000000000000000000000000000000000000000\n    /* \"#utility.yul\":5745:5746   */\n  0x00\n    /* \"#utility.yul\":5738:5826   */\n  mstore\n    /* \"#utility.yul\":5845:5849   */\n  0x22\n    /* \"#utility.yul\":5842:5843   */\n  0x04\n    /* \"#utility.yul\":5835:5850   */\n  mstore\n    /* \"#utility.yul\":5869:5873   */\n  0x24\n    /* \"#utility.yul\":5866:5867   */\n  0x00\n    /* \"#utility.yul\":5859:5874   */\n  revert\n    /* \"#utility.yul\":5886:5988   */\ntag_103:\n    /* \"#utility.yul\":5928:5936   */\n  0x00\n    /* \"#utility.yul\":5975:5980   */\n  dup2\n    /* \"#utility.yul\":5972:5973   */\n  0x01\n    /* \"#utility.yul\":5968:5981   */\n  shr\n    /* \"#utility.yul\":5947:5981   */\n  swap1\n  pop\n    /* \"#utility.yul\":5937:5988   */\n  swap2\n  swap1\n  pop\n  jump\t// out\n    /* \"#utility.yul\":5994:6160   */\ntag_71:\n    /* \"#utility.yul\":6134:6152   */\n  0x5061757361626c653a2070617573656400000000000000000000000000000000\n    /* \"#utility.yul\":6130:6131   */\n  0x00\n    /* \"#utility.yul\":6122:6128   */\n  dup3\n    /* \"#utility.yul\":6118:6132   */\n  add\n    /* \"#utility.yul\":6111:6153   */\n  mstore\n    /* \"#utility.yul\":6100:6160   */\n  pop\n  jump\t// out\n    /* \"#utility.yul\":6166:6347   */\ntag_76:\n    /* \"#utility.yul\":6306:6339   */\n  0x45524332303a206d696e7420746f20746865207a65726f206164647265737300\n    /* \"#utility.yul\":6302:6303   */\n  0x00\n    /* \"#utility.yul\":6294:6300   */\n  dup3\n    /* \"#utility.yul\":6290:6304   */\n  add\n    /* \"#utility.yul\":6283:6340   */\n  mstore\n    /* \"#utility.yul\":6272:6347   */\n  pop\n  jump\t// out\n    /* \"ERC20/TitanToken.sol\":181:803  contract MyToken is ERC20, ERC20Burnable, Pausable, Ownable {\r... */\ntag_25:\n  dataSize(sub_0)\n  dup1\n  dataOffset(sub_0)\n  0x00\n  codecopy\n  0x00\n  return\nstop\n\nsub_0: assembly {\n        /* \"ERC20/TitanToken.sol\":181:803  contract MyToken is ERC20, ERC20Burnable, Pausable, Ownable {\r... */\n      mstore(0x40, 0x80)\n      callvalue\n      dup1\n      iszero\n      tag_1\n      jumpi\n      0x00\n      dup1\n      revert\n    tag_1:\n      pop\n      jumpi(tag_2, lt(calldatasize, 0x04))\n      shr(0xe0, calldataload(0x00))\n      dup1\n      0x70a08231\n      gt\n      tag_23\n      jumpi\n      dup1\n      0x95d89b41\n      gt\n      tag_24\n      jumpi\n      dup1\n      0x95d89b41\n      eq\n      tag_18\n      jumpi\n      dup1\n      0xa457c2d7\n      eq\n      tag_19\n      jumpi\n      dup1\n      0xa9059cbb\n      eq\n      tag_20\n      jumpi\n      dup1\n      0xdd62ed3e\n      eq\n      tag_21\n      jumpi\n      dup1\n      0xf2fde38b\n      eq\n      tag_22\n      jumpi\n      jump(tag_2)\n    tag_24:\n      dup1\n      0x70a08231\n      eq\n      tag_13\n      jumpi\n      dup1\n      0x715018a6\n      eq\n      tag_14\n      jumpi\n      dup1\n      0x79cc6790\n      eq\n      tag_15\n      jumpi\n      dup1\n      0x8456cb59\n      eq\n      tag_16\n      jumpi\n      dup1\n      0x8da5cb5b\n      eq\n      tag_17\n      jumpi\n      jump(tag_2)\n    tag_23:\n      dup1\n      0x39509351\n      gt\n      tag_25\n      jumpi\n      dup1\n      0x39509351\n      eq\n      tag_8\n      jumpi\n      dup1\n      0x3f4ba83a\n      eq\n      tag_9\n      jumpi\n      dup1\n      0x40c10f19\n      eq\n      tag_10\n      jumpi\n      dup1\n      0x42966c68\n      eq\n      tag_11\n      jumpi\n      dup1\n      0x5c975abb\n      eq\n      tag_12\n      jumpi\n      jump(tag_2)\n    tag_25:\n      dup1\n      0x06fdde03\n      eq\n      tag_3\n      jumpi\n      dup1\n      0x095ea7b3\n      eq\n      tag_4\n      jumpi\n      dup1\n      0x18160ddd\n      eq\n      tag_5\n      jumpi\n      dup1\n      0x23b872dd\n      eq\n      tag_6\n      jumpi\n      dup1\n      0x313ce567\n      eq\n      tag_7\n      jumpi\n    tag_2:\n      0x00\n      dup1\n      revert\n        /* \"ERC20/ERC20.sol\":2204:2304  function name() public view virtual override returns (string memory) {\r... */\n    tag_3:\n      tag_26\n      tag_27\n      jump\t// in\n    tag_26:\n      mload(0x40)\n      tag_28\n      swap2\n      swap1\n      tag_29\n      jump\t// in\n    tag_28:\n      mload(0x40)\n      dup1\n      swap2\n      sub\n      swap1\n      return\n        /* \"ERC20/ERC20.sol\":4555:4756  function approve(address spender, uint256 amount) public virtual override returns (bool) {\r... */\n    tag_4:\n      tag_30\n      0x04\n      dup1\n      calldatasize\n      sub\n      dup2\n      add\n      swap1\n      tag_31\n      swap2\n      swap1\n      tag_32\n      jump\t// in\n    tag_31:\n      tag_33\n      jump\t// in\n    tag_30:\n      mload(0x40)\n      tag_34\n      swap2\n      swap1\n      tag_35\n      jump\t// in\n    tag_34:\n      mload(0x40)\n      dup1\n      swap2\n      sub\n      swap1\n      return\n        /* \"ERC20/ERC20.sol\":3324:3432  function totalSupply() public view virtual override returns (uint256) {\r... */\n    tag_5:\n      tag_36\n      tag_37\n      jump\t// in\n    tag_36:\n      mload(0x40)\n      tag_38\n      swap2\n      swap1\n      tag_39\n      jump\t// in\n    tag_38:\n      mload(0x40)\n      dup1\n      swap2\n      sub\n      swap1\n      return\n        /* \"ERC20/ERC20.sol\":5336:5631  function transferFrom(\r... */\n    tag_6:\n      tag_40\n      0x04\n      dup1\n      calldatasize\n      sub\n      dup2\n      add\n      swap1\n      tag_41\n      swap2\n      swap1\n      tag_42\n      jump\t// in\n    tag_41:\n      tag_43\n      jump\t// in\n    tag_40:\n      mload(0x40)\n      tag_44\n      swap2\n      swap1\n      tag_35\n      jump\t// in\n    tag_44:\n      mload(0x40)\n      dup1\n      swap2\n      sub\n      swap1\n      return\n        /* \"ERC20/ERC20.sol\":3166:3259  function decimals() public view virtual override returns (uint8) {\r... */\n    tag_7:\n      tag_45\n      tag_46\n      jump\t// in\n    tag_45:\n      mload(0x40)\n      tag_47\n      swap2\n      swap1\n      tag_48\n      jump\t// in\n    tag_47:\n      mload(0x40)\n      dup1\n      swap2\n      sub\n      swap1\n      return\n        /* \"ERC20/ERC20.sol\":6040:6278  function increaseAllowance(address spender, uint256 addedValue) public virtual returns (bool) {\r... */\n    tag_8:\n      tag_49\n      0x04\n      dup1\n      calldatasize\n      sub\n      dup2\n      add\n      swap1\n      tag_50\n      swap2\n      swap1\n      tag_32\n      jump\t// in\n    tag_50:\n      tag_51\n      jump\t// in\n    tag_49:\n      mload(0x40)\n      tag_52\n      swap2\n      swap1\n      tag_35\n      jump\t// in\n    tag_52:\n      mload(0x40)\n      dup1\n      swap2\n      sub\n      swap1\n      return\n        /* \"ERC20/TitanToken.sol\":435:500  function unpause() public onlyOwner {\r... */\n    tag_9:\n      tag_53\n      tag_54\n      jump\t// in\n    tag_53:\n      stop\n        /* \"ERC20/TitanToken.sol\":508:593  function mint(address to, uint256 amount) public {\r... */\n    tag_10:\n      tag_55\n      0x04\n      dup1\n      calldatasize\n      sub\n      dup2\n      add\n      swap1\n      tag_56\n      swap2\n      swap1\n      tag_32\n      jump\t// in\n    tag_56:\n      tag_57\n      jump\t// in\n    tag_55:\n      stop\n        /* \"ERC20/ERC20Burnable.sol\":590:681  function burn(uint256 amount) public virtual {\r... */\n    tag_11:\n      tag_58\n      0x04\n      dup1\n      calldatasize\n      sub\n      dup2\n      add\n      swap1\n      tag_59\n      swap2\n      swap1\n      tag_60\n      jump\t// in\n    tag_59:\n      tag_61\n      jump\t// in\n    tag_58:\n      stop\n        /* \"Utils/Pausable.sol\":1130:1216  function paused() public view virtual returns (bool) {\r... */\n    tag_12:\n      tag_62\n      tag_63\n      jump\t// in\n    tag_62:\n      mload(0x40)\n      tag_64\n      swap2\n      swap1\n      tag_35\n      jump\t// in\n    tag_64:\n      mload(0x40)\n      dup1\n      swap2\n      sub\n      swap1\n      return\n        /* \"ERC20/ERC20.sol\":3495:3622  function balanceOf(address account) public view virtual override returns (uint256) {\r... */\n    tag_13:\n      tag_65\n      0x04\n      dup1\n      calldatasize\n      sub\n      dup2\n      add\n      swap1\n      tag_66\n      swap2\n      swap1\n      tag_67\n      jump\t// in\n    tag_66:\n      tag_68\n      jump\t// in\n    tag_65:\n      mload(0x40)\n      tag_69\n      swap2\n      swap1\n      tag_39\n      jump\t// in\n    tag_69:\n      mload(0x40)\n      dup1\n      swap2\n      sub\n      swap1\n      return\n        /* \"Utils/Ownable.sol\":1714:1817  function renounceOwnership() public virtual onlyOwner {\r... */\n    tag_14:\n      tag_70\n      tag_71\n      jump\t// in\n    tag_70:\n      stop\n        /* \"ERC20/ERC20Burnable.sol\":1000:1164  function burnFrom(address account, uint256 amount) public virtual {\r... */\n    tag_15:\n      tag_72\n      0x04\n      dup1\n      calldatasize\n      sub\n      dup2\n      add\n      swap1\n      tag_73\n      swap2\n      swap1\n      tag_32\n      jump\t// in\n    tag_73:\n      tag_74\n      jump\t// in\n    tag_72:\n      stop\n        /* \"ERC20/TitanToken.sol\":366:427  function pause() public onlyOwner {\r... */\n    tag_16:\n      tag_75\n      tag_76\n      jump\t// in\n    tag_75:\n      stop\n        /* \"Utils/Ownable.sol\":1063:1150  function owner() public view virtual returns (address) {\r... */\n    tag_17:\n      tag_77\n      tag_78\n      jump\t// in\n    tag_77:\n      mload(0x40)\n      tag_79\n      swap2\n      swap1\n      tag_80\n      jump\t// in\n    tag_79:\n      mload(0x40)\n      dup1\n      swap2\n      sub\n      swap1\n      return\n        /* \"ERC20/ERC20.sol\":2423:2527  function symbol() public view virtual override returns (string memory) {\r... */\n    tag_18:\n      tag_81\n      tag_82\n      jump\t// in\n    tag_81:\n      mload(0x40)\n      tag_83\n      swap2\n      swap1\n      tag_29\n      jump\t// in\n    tag_83:\n      mload(0x40)\n      dup1\n      swap2\n      sub\n      swap1\n      return\n        /* \"ERC20/ERC20.sol\":6781:7217  function decreaseAllowance(address spender, uint256 subtractedValue) public virtual returns (bool) {\r... */\n    tag_19:\n      tag_84\n      0x04\n      dup1\n      calldatasize\n      sub\n      dup2\n      add\n      swap1\n      tag_85\n      swap2\n      swap1\n      tag_32\n      jump\t// in\n    tag_85:\n      tag_86\n      jump\t// in\n    tag_84:\n      mload(0x40)\n      tag_87\n      swap2\n      swap1\n      tag_35\n      jump\t// in\n    tag_87:\n      mload(0x40)\n      dup1\n      swap2\n      sub\n      swap1\n      return\n        /* \"ERC20/ERC20.sol\":3828:4021  function transfer(address to, uint256 amount) public virtual override returns (bool) {\r... */\n    tag_20:\n      tag_88\n      0x04\n      dup1\n      calldatasize\n      sub\n      dup2\n      add\n      swap1\n      tag_89\n      swap2\n      swap1\n      tag_32\n      jump\t// in\n    tag_89:\n      tag_90\n      jump\t// in\n    tag_88:\n      mload(0x40)\n      tag_91\n      swap2\n      swap1\n      tag_35\n      jump\t// in\n    tag_91:\n      mload(0x40)\n      dup1\n      swap2\n      sub\n      swap1\n      return\n        /* \"ERC20/ERC20.sol\":4084:4235  function allowance(address owner, address spender) public view virtual override returns (uint256) {\r... */\n    tag_21:\n      tag_92\n      0x04\n      dup1\n      calldatasize\n      sub\n      dup2\n      add\n      swap1\n      tag_93\n      swap2\n      swap1\n      tag_94\n      jump\t// in\n    tag_93:\n      tag_95\n      jump\t// in\n    tag_92:\n      mload(0x40)\n      tag_96\n      swap2\n      swap1\n      tag_39\n      jump\t// in\n    tag_96:\n      mload(0x40)\n      dup1\n      swap2\n      sub\n      swap1\n      return\n        /* \"Utils/Ownable.sol\":1972:2173  function transferOwnership(address newOwner) public virtual onlyOwner {\r... */\n    tag_22:\n      tag_97\n      0x04\n      dup1\n      calldatasize\n      sub\n      dup2\n      add\n      swap1\n      tag_98\n      swap2\n      swap1\n      tag_67\n      jump\t// in\n    tag_98:\n      tag_99\n      jump\t// in\n    tag_97:\n      stop\n        /* \"ERC20/ERC20.sol\":2204:2304  function name() public view virtual override returns (string memory) {\r... */\n    tag_27:\n        /* \"ERC20/ERC20.sol\":2258:2271  string memory */\n      0x60\n        /* \"ERC20/ERC20.sol\":2291:2296  _name */\n      0x03\n        /* \"ERC20/ERC20.sol\":2284:2296  return _name */\n      dup1\n      sload\n      tag_102\n      swap1\n      tag_103\n      jump\t// in\n    tag_102:\n      dup1\n      0x1f\n      add\n      0x20\n      dup1\n      swap2\n      div\n      mul\n      0x20\n      add\n      mload(0x40)\n      swap1\n      dup2\n      add\n      0x40\n      mstore\n      dup1\n      swap3\n      swap2\n      swap1\n      dup2\n      dup2\n      mstore\n      0x20\n      add\n      dup3\n      dup1\n      sload\n      tag_104\n      swap1\n      tag_103\n      jump\t// in\n    tag_104:\n      dup1\n      iszero\n      tag_105\n      jumpi\n      dup1\n      0x1f\n      lt\n      tag_106\n      jumpi\n      0x0100\n      dup1\n      dup4\n      sload\n      div\n      mul\n      dup4\n      mstore\n      swap2\n      0x20\n      add\n      swap2\n      jump(tag_105)\n    tag_106:\n      dup3\n      add\n      swap2\n      swap1\n      0x00\n      mstore\n      keccak256(0x00, 0x20)\n      swap1\n    tag_107:\n      dup2\n      sload\n      dup2\n      mstore\n      swap1\n      0x01\n      add\n      swap1\n      0x20\n      add\n      dup1\n      dup4\n      gt\n      tag_107\n      jumpi\n      dup3\n      swap1\n      sub\n      0x1f\n      and\n      dup3\n      add\n      swap2\n    tag_105:\n      pop\n      pop\n      pop\n      pop\n      pop\n      swap1\n      pop\n        /* \"ERC20/ERC20.sol\":2204:2304  function name() public view virtual override returns (string memory) {\r... */\n      swap1\n      jump\t// out\n        /* \"ERC20/ERC20.sol\":4555:4756  function approve(address spender, uint256 amount) public virtual override returns (bool) {\r... */\n    tag_33:\n        /* \"ERC20/ERC20.sol\":4638:4642  bool */\n      0x00\n        /* \"ERC20/ERC20.sol\":4655:4668  address owner */\n      dup1\n        /* \"ERC20/ERC20.sol\":4671:4683  _msgSender() */\n      tag_109\n        /* \"ERC20/ERC20.sol\":4671:4681  _msgSender */\n      tag_110\n        /* \"ERC20/ERC20.sol\":4671:4683  _msgSender() */\n      jump\t// in\n    tag_109:\n        /* \"ERC20/ERC20.sol\":4655:4683  address owner = _msgSender() */\n      swap1\n      pop\n        /* \"ERC20/ERC20.sol\":4694:4726  _approve(owner, spender, amount) */\n      tag_111\n        /* \"ERC20/ERC20.sol\":4703:4708  owner */\n      dup2\n        /* \"ERC20/ERC20.sol\":4710:4717  spender */\n      dup6\n        /* \"ERC20/ERC20.sol\":4719:4725  amount */\n      dup6\n        /* \"ERC20/ERC20.sol\":4694:4702  _approve */\n      tag_112\n        /* \"ERC20/ERC20.sol\":4694:4726  _approve(owner, spender, amount) */\n      jump\t// in\n    tag_111:\n        /* \"ERC20/ERC20.sol\":4744:4748  true */\n      0x01\n        /* \"ERC20/ERC20.sol\":4737:4748  return true */\n      swap2\n      pop\n      pop\n        /* \"ERC20/ERC20.sol\":4555:4756  function approve(address spender, uint256 amount) public virtual override returns (bool) {\r... */\n      swap3\n      swap2\n      pop\n      pop\n      jump\t// out\n        /* \"ERC20/ERC20.sol\":3324:3432  function totalSupply() public view virtual override returns (uint256) {\r... */\n    tag_37:\n        /* \"ERC20/ERC20.sol\":3385:3392  uint256 */\n      0x00\n        /* \"ERC20/ERC20.sol\":3412:3424  _totalSupply */\n      sload(0x02)\n        /* \"ERC20/ERC20.sol\":3405:3424  return _totalSupply */\n      swap1\n      pop\n        /* \"ERC20/ERC20.sol\":3324:3432  function totalSupply() public view virtual override returns (uint256) {\r... */\n      swap1\n      jump\t// out\n        /* \"ERC20/ERC20.sol\":5336:5631  function transferFrom(\r... */\n    tag_43:\n        /* \"ERC20/ERC20.sol\":5467:5471  bool */\n      0x00\n        /* \"ERC20/ERC20.sol\":5484:5499  address spender */\n      dup1\n        /* \"ERC20/ERC20.sol\":5502:5514  _msgSender() */\n      tag_115\n        /* \"ERC20/ERC20.sol\":5502:5512  _msgSender */\n      tag_110\n        /* \"ERC20/ERC20.sol\":5502:5514  _msgSender() */\n      jump\t// in\n    tag_115:\n        /* \"ERC20/ERC20.sol\":5484:5514  address spender = _msgSender() */\n      swap1\n      pop\n        /* \"ERC20/ERC20.sol\":5525:5563  _spendAllowance(from, spender, amount) */\n      tag_116\n        /* \"ERC20/ERC20.sol\":5541:5545  from */\n      dup6\n        /* \"ERC20/ERC20.sol\":5547:5554  spender */\n      dup3\n        /* \"ERC20/ERC20.sol\":5556:5562  amount */\n      dup6\n        /* \"ERC20/ERC20.sol\":5525:5540  _spendAllowance */\n      tag_117\n        /* \"ERC20/ERC20.sol\":5525:5563  _spendAllowance(from, spender, amount) */\n      jump\t// in\n    tag_116:\n        /* \"ERC20/ERC20.sol\":5574:5601  _transfer(from, to, amount) */\n      tag_118\n        /* \"ERC20/ERC20.sol\":5584:5588  from */\n      dup6\n        /* \"ERC20/ERC20.sol\":5590:5592  to */\n      dup6\n        /* \"ERC20/ERC20.sol\":5594:5600  amount */\n      dup6\n        /* \"ERC20/ERC20.sol\":5574:5583  _transfer */\n      tag_119\n        /* \"ERC20/ERC20.sol\":5574:5601  _transfer(from, to, amount) */\n      jump\t// in\n    tag_118:\n        /* \"ERC20/ERC20.sol\":5619:5623  true */\n      0x01\n        /* \"ERC20/ERC20.sol\":5612:5623  return true */\n      swap2\n      pop\n      pop\n        /* \"ERC20/ERC20.sol\":5336:5631  function transferFrom(\r... */\n      swap4\n      swap3\n      pop\n      pop\n      pop\n      jump\t// out\n        /* \"ERC20/ERC20.sol\":3166:3259  function decimals() public view virtual override returns (uint8) {\r... */\n    tag_46:\n        /* \"ERC20/ERC20.sol\":3224:3229  uint8 */\n      0x00\n        /* \"ERC20/ERC20.sol\":3249:3251  18 */\n      0x12\n        /* \"ERC20/ERC20.sol\":3242:3251  return 18 */\n      swap1\n      pop\n        /* \"ERC20/ERC20.sol\":3166:3259  function decimals() public view virtual override returns (uint8) {\r... */\n      swap1\n      jump\t// out\n        /* \"ERC20/ERC20.sol\":6040:6278  function increaseAllowance(address spender, uint256 addedValue) public virtual returns (bool) {\r... */\n    tag_51:\n        /* \"ERC20/ERC20.sol\":6128:6132  bool */\n      0x00\n        /* \"ERC20/ERC20.sol\":6145:6158  address owner */\n      dup1\n        /* \"ERC20/ERC20.sol\":6161:6173  _msgSender() */\n      tag_122\n        /* \"ERC20/ERC20.sol\":6161:6171  _msgSender */\n      tag_110\n        /* \"ERC20/ERC20.sol\":6161:6173  _msgSender() */\n      jump\t// in\n    tag_122:\n        /* \"ERC20/ERC20.sol\":6145:6173  address owner = _msgSender() */\n      swap1\n      pop\n        /* \"ERC20/ERC20.sol\":6184:6248  _approve(owner, spender, allowance(owner, spender) + addedValue) */\n      tag_123\n        /* \"ERC20/ERC20.sol\":6193:6198  owner */\n      dup2\n        /* \"ERC20/ERC20.sol\":6200:6207  spender */\n      dup6\n        /* \"ERC20/ERC20.sol\":6237:6247  addedValue */\n      dup6\n        /* \"ERC20/ERC20.sol\":6209:6234  allowance(owner, spender) */\n      tag_124\n        /* \"ERC20/ERC20.sol\":6219:6224  owner */\n      dup6\n        /* \"ERC20/ERC20.sol\":6226:6233  spender */\n      dup10\n        /* \"ERC20/ERC20.sol\":6209:6218  allowance */\n      tag_95\n        /* \"ERC20/ERC20.sol\":6209:6234  allowance(owner, spender) */\n      jump\t// in\n    tag_124:\n        /* \"ERC20/ERC20.sol\":6209:6247  allowance(owner, spender) + addedValue */\n      tag_125\n      swap2\n      swap1\n      tag_126\n      jump\t// in\n    tag_125:\n        /* \"ERC20/ERC20.sol\":6184:6192  _approve */\n      tag_112\n        /* \"ERC20/ERC20.sol\":6184:6248  _approve(owner, spender, allowance(owner, spender) + addedValue) */\n      jump\t// in\n    tag_123:\n        /* \"ERC20/ERC20.sol\":6266:6270  true */\n      0x01\n        /* \"ERC20/ERC20.sol\":6259:6270  return true */\n      swap2\n      pop\n      pop\n        /* \"ERC20/ERC20.sol\":6040:6278  function increaseAllowance(address spender, uint256 addedValue) public virtual returns (bool) {\r... */\n      swap3\n      swap2\n      pop\n      pop\n      jump\t// out\n        /* \"ERC20/TitanToken.sol\":435:500  function unpause() public onlyOwner {\r... */\n    tag_54:\n        /* \"Utils/Ownable.sol\":1294:1306  _msgSender() */\n      tag_128\n        /* \"Utils/Ownable.sol\":1294:1304  _msgSender */\n      tag_110\n        /* \"Utils/Ownable.sol\":1294:1306  _msgSender() */\n      jump\t// in\n    tag_128:\n        /* \"Utils/Ownable.sol\":1283:1306  owner() == _msgSender() */\n      0xffffffffffffffffffffffffffffffffffffffff\n      and\n        /* \"Utils/Ownable.sol\":1283:1290  owner() */\n      tag_129\n        /* \"Utils/Ownable.sol\":1283:1288  owner */\n      tag_78\n        /* \"Utils/Ownable.sol\":1283:1290  owner() */\n      jump\t// in\n    tag_129:\n        /* \"Utils/Ownable.sol\":1283:1306  owner() == _msgSender() */\n      0xffffffffffffffffffffffffffffffffffffffff\n      and\n      eq\n        /* \"Utils/Ownable.sol\":1275:1343  require(owner() == _msgSender(), \"Ownable: caller is not the owner\") */\n      tag_130\n      jumpi\n      mload(0x40)\n      0x08c379a000000000000000000000000000000000000000000000000000000000\n      dup2\n      mstore\n      0x04\n      add\n      tag_131\n      swap1\n      tag_132\n      jump\t// in\n    tag_131:\n      mload(0x40)\n      dup1\n      swap2\n      sub\n      swap1\n      revert\n    tag_130:\n        /* \"ERC20/TitanToken.sol\":482:492  _unpause() */\n      tag_134\n        /* \"ERC20/TitanToken.sol\":482:490  _unpause */\n      tag_135\n        /* \"ERC20/TitanToken.sol\":482:492  _unpause() */\n      jump\t// in\n    tag_134:\n        /* \"ERC20/TitanToken.sol\":435:500  function unpause() public onlyOwner {\r... */\n      jump\t// out\n        /* \"ERC20/TitanToken.sol\":508:593  function mint(address to, uint256 amount) public {\r... */\n    tag_57:\n        /* \"ERC20/TitanToken.sol\":568:585  _mint(to, amount) */\n      tag_137\n        /* \"ERC20/TitanToken.sol\":574:576  to */\n      dup3\n        /* \"ERC20/TitanToken.sol\":578:584  amount */\n      dup3\n        /* \"ERC20/TitanToken.sol\":568:573  _mint */\n      tag_138\n        /* \"ERC20/TitanToken.sol\":568:585  _mint(to, amount) */\n      jump\t// in\n    tag_137:\n        /* \"ERC20/TitanToken.sol\":508:593  function mint(address to, uint256 amount) public {\r... */\n      pop\n      pop\n      jump\t// out\n        /* \"ERC20/ERC20Burnable.sol\":590:681  function burn(uint256 amount) public virtual {\r... */\n    tag_61:\n        /* \"ERC20/ERC20Burnable.sol\":646:673  _burn(_msgSender(), amount) */\n      tag_140\n        /* \"ERC20/ERC20Burnable.sol\":652:664  _msgSender() */\n      tag_141\n        /* \"ERC20/ERC20Burnable.sol\":652:662  _msgSender */\n      tag_110\n        /* \"ERC20/ERC20Burnable.sol\":652:664  _msgSender() */\n      jump\t// in\n    tag_141:\n        /* \"ERC20/ERC20Burnable.sol\":666:672  amount */\n      dup3\n        /* \"ERC20/ERC20Burnable.sol\":646:651  _burn */\n      tag_142\n        /* \"ERC20/ERC20Burnable.sol\":646:673  _burn(_msgSender(), amount) */\n      jump\t// in\n    tag_140:\n        /* \"ERC20/ERC20Burnable.sol\":590:681  function burn(uint256 amount) public virtual {\r... */\n      pop\n      jump\t// out\n        /* \"Utils/Pausable.sol\":1130:1216  function paused() public view virtual returns (bool) {\r... */\n    tag_63:\n        /* \"Utils/Pausable.sol\":1177:1181  bool */\n      0x00\n        /* \"Utils/Pausable.sol\":1201:1208  _paused */\n      0x05\n      0x00\n      swap1\n      sload\n      swap1\n      0x0100\n      exp\n      swap1\n      div\n      0xff\n      and\n        /* \"Utils/Pausable.sol\":1194:1208  return _paused */\n      swap1\n      pop\n        /* \"Utils/Pausable.sol\":1130:1216  function paused() public view virtual returns (bool) {\r... */\n      swap1\n      jump\t// out\n        /* \"ERC20/ERC20.sol\":3495:3622  function balanceOf(address account) public view virtual override returns (uint256) {\r... */\n    tag_68:\n        /* \"ERC20/ERC20.sol\":3569:3576  uint256 */\n      0x00\n        /* \"ERC20/ERC20.sol\":3596:3605  _balances */\n      dup1\n        /* \"ERC20/ERC20.sol\":3596:3614  _balances[account] */\n      0x00\n        /* \"ERC20/ERC20.sol\":3606:3613  account */\n      dup4\n        /* \"ERC20/ERC20.sol\":3596:3614  _balances[account] */\n      0xffffffffffffffffffffffffffffffffffffffff\n      and\n      0xffffffffffffffffffffffffffffffffffffffff\n      and\n      dup2\n      mstore\n      0x20\n      add\n      swap1\n      dup2\n      mstore\n      0x20\n      add\n      0x00\n      keccak256\n      sload\n        /* \"ERC20/ERC20.sol\":3589:3614  return _balances[account] */\n      swap1\n      pop\n        /* \"ERC20/ERC20.sol\":3495:3622  function balanceOf(address account) public view virtual override returns (uint256) {\r... */\n      swap2\n      swap1\n      pop\n      jump\t// out\n        /* \"Utils/Ownable.sol\":1714:1817  function renounceOwnership() public virtual onlyOwner {\r... */\n    tag_71:\n        /* \"Utils/Ownable.sol\":1294:1306  _msgSender() */\n      tag_146\n        /* \"Utils/Ownable.sol\":1294:1304  _msgSender */\n      tag_110\n        /* \"Utils/Ownable.sol\":1294:1306  _msgSender() */\n      jump\t// in\n    tag_146:\n        /* \"Utils/Ownable.sol\":1283:1306  owner() == _msgSender() */\n      0xffffffffffffffffffffffffffffffffffffffff\n      and\n        /* \"Utils/Ownable.sol\":1283:1290  owner() */\n      tag_147\n        /* \"Utils/Ownable.sol\":1283:1288  owner */\n      tag_78\n        /* \"Utils/Ownable.sol\":1283:1290  owner() */\n      jump\t// in\n    tag_147:\n        /* \"Utils/Ownable.sol\":1283:1306  owner() == _msgSender() */\n      0xffffffffffffffffffffffffffffffffffffffff\n      and\n      eq\n        /* \"Utils/Ownable.sol\":1275:1343  require(owner() == _msgSender(), \"Ownable: caller is not the owner\") */\n      tag_148\n      jumpi\n      mload(0x40)\n      0x08c379a000000000000000000000000000000000000000000000000000000000\n      dup2\n      mstore\n      0x04\n      add\n      tag_149\n      swap1\n      tag_132\n      jump\t// in\n    tag_149:\n      mload(0x40)\n      dup1\n      swap2\n      sub\n      swap1\n      revert\n    tag_148:\n        /* \"Utils/Ownable.sol\":1779:1809  _transferOwnership(address(0)) */\n      tag_151\n        /* \"Utils/Ownable.sol\":1806:1807  0 */\n      0x00\n        /* \"Utils/Ownable.sol\":1779:1797  _transferOwnership */\n      tag_152\n        /* \"Utils/Ownable.sol\":1779:1809  _transferOwnership(address(0)) */\n      jump\t// in\n    tag_151:\n        /* \"Utils/Ownable.sol\":1714:1817  function renounceOwnership() public virtual onlyOwner {\r... */\n      jump\t// out\n        /* \"ERC20/ERC20Burnable.sol\":1000:1164  function burnFrom(address account, uint256 amount) public virtual {\r... */\n    tag_74:\n        /* \"ERC20/ERC20Burnable.sol\":1077:1123  _spendAllowance(account, _msgSender(), amount) */\n      tag_154\n        /* \"ERC20/ERC20Burnable.sol\":1093:1100  account */\n      dup3\n        /* \"ERC20/ERC20Burnable.sol\":1102:1114  _msgSender() */\n      tag_155\n        /* \"ERC20/ERC20Burnable.sol\":1102:1112  _msgSender */\n      tag_110\n        /* \"ERC20/ERC20Burnable.sol\":1102:1114  _msgSender() */\n      jump\t// in\n    tag_155:\n        /* \"ERC20/ERC20Burnable.sol\":1116:1122  amount */\n      dup4\n        /* \"ERC20/ERC20Burnable.sol\":1077:1092  _spendAllowance */\n      tag_117\n        /* \"ERC20/ERC20Burnable.sol\":1077:1123  _spendAllowance(account, _msgSender(), amount) */\n      jump\t// in\n    tag_154:\n        /* \"ERC20/ERC20Burnable.sol\":1134:1156  _burn(account, amount) */\n      tag_156\n        /* \"ERC20/ERC20Burnable.sol\":1140:1147  account */\n      dup3\n        /* \"ERC20/ERC20Burnable.sol\":1149:1155  amount */\n      dup3\n        /* \"ERC20/ERC20Burnable.sol\":1134:1139  _burn */\n      tag_142\n        /* \"ERC20/ERC20Burnable.sol\":1134:1156  _burn(account, amount) */\n      jump\t// in\n    tag_156:\n        /* \"ERC20/ERC20Burnable.sol\":1000:1164  function burnFrom(address account, uint256 amount) public virtual {\r... */\n      pop\n      pop\n      jump\t// out\n        /* \"ERC20/TitanToken.sol\":366:427  function pause() public onlyOwner {\r... */\n    tag_76:\n        /* \"Utils/Ownable.sol\":1294:1306  _msgSender() */\n      tag_158\n        /* \"Utils/Ownable.sol\":1294:1304  _msgSender */\n      tag_110\n        /* \"Utils/Ownable.sol\":1294:1306  _msgSender() */\n      jump\t// in\n    tag_158:\n        /* \"Utils/Ownable.sol\":1283:1306  owner() == _msgSender() */\n      0xffffffffffffffffffffffffffffffffffffffff\n      and\n        /* \"Utils/Ownable.sol\":1283:1290  owner() */\n      tag_159\n        /* \"Utils/Ownable.sol\":1283:1288  owner */\n      tag_78\n        /* \"Utils/Ownable.sol\":1283:1290  owner() */\n      jump\t// in\n    tag_159:\n        /* \"Utils/Ownable.sol\":1283:1306  owner() == _msgSender() */\n      0xffffffffffffffffffffffffffffffffffffffff\n      and\n      eq\n        /* \"Utils/Ownable.sol\":1275:1343  require(owner() == _msgSender(), \"Ownable: caller is not the owner\") */\n      tag_160\n      jumpi\n      mload(0x40)\n      0x08c379a000000000000000000000000000000000000000000000000000000000\n      dup2\n      mstore\n      0x04\n      add\n      tag_161\n      swap1\n      tag_132\n      jump\t// in\n    tag_161:\n      mload(0x40)\n      dup1\n      swap2\n      sub\n      swap1\n      revert\n    tag_160:\n        /* \"ERC20/TitanToken.sol\":411:419  _pause() */\n      tag_163\n        /* \"ERC20/TitanToken.sol\":411:417  _pause */\n      tag_164\n        /* \"ERC20/TitanToken.sol\":411:419  _pause() */\n      jump\t// in\n    tag_163:\n        /* \"ERC20/TitanToken.sol\":366:427  function pause() public onlyOwner {\r... */\n      jump\t// out\n        /* \"Utils/Ownable.sol\":1063:1150  function owner() public view virtual returns (address) {\r... */\n    tag_78:\n        /* \"Utils/Ownable.sol\":1109:1116  address */\n      0x00\n        /* \"Utils/Ownable.sol\":1136:1142  _owner */\n      0x05\n      0x01\n      swap1\n      sload\n      swap1\n      0x0100\n      exp\n      swap1\n      div\n      0xffffffffffffffffffffffffffffffffffffffff\n      and\n        /* \"Utils/Ownable.sol\":1129:1142  return _owner */\n      swap1\n      pop\n        /* \"Utils/Ownable.sol\":1063:1150  function owner() public view virtual returns (address) {\r... */\n      swap1\n      jump\t// out\n        /* \"ERC20/ERC20.sol\":2423:2527  function symbol() public view virtual override returns (string memory) {\r... */\n    tag_82:\n        /* \"ERC20/ERC20.sol\":2479:2492  string memory */\n      0x60\n        /* \"ERC20/ERC20.sol\":2512:2519  _symbol */\n      0x04\n        /* \"ERC20/ERC20.sol\":2505:2519  return _symbol */\n      dup1\n      sload\n      tag_167\n      swap1\n      tag_103\n      jump\t// in\n    tag_167:\n      dup1\n      0x1f\n      add\n      0x20\n      dup1\n      swap2\n      div\n      mul\n      0x20\n      add\n      mload(0x40)\n      swap1\n      dup2\n      add\n      0x40\n      mstore\n      dup1\n      swap3\n      swap2\n      swap1\n      dup2\n      dup2\n      mstore\n      0x20\n      add\n      dup3\n      dup1\n      sload\n      tag_168\n      swap1\n      tag_103\n      jump\t// in\n    tag_168:\n      dup1\n      iszero\n      tag_169\n      jumpi\n      dup1\n      0x1f\n      lt\n      tag_170\n      jumpi\n      0x0100\n      dup1\n      dup4\n      sload\n      div\n      mul\n      dup4\n      mstore\n      swap2\n      0x20\n      add\n      swap2\n      jump(tag_169)\n    tag_170:\n      dup3\n      add\n      swap2\n      swap1\n      0x00\n      mstore\n      keccak256(0x00, 0x20)\n      swap1\n    tag_171:\n      dup2\n      sload\n      dup2\n      mstore\n      swap1\n      0x01\n      add\n      swap1\n      0x20\n      add\n      dup1\n      dup4\n      gt\n      tag_171\n      jumpi\n      dup3\n      swap1\n      sub\n      0x1f\n      and\n      dup3\n      add\n      swap2\n    tag_169:\n      pop\n      pop\n      pop\n      pop\n      pop\n      swap1\n      pop\n        /* \"ERC20/ERC20.sol\":2423:2527  function symbol() public view virtual override returns (string memory) {\r... */\n      swap1\n      jump\t// out\n        /* \"ERC20/ERC20.sol\":6781:7217  function decreaseAllowance(address spender, uint256 subtractedValue) public virtual returns (bool) {\r... */\n    tag_86:\n        /* \"ERC20/ERC20.sol\":6874:6878  bool */\n      0x00\n        /* \"ERC20/ERC20.sol\":6891:6904  address owner */\n      dup1\n        /* \"ERC20/ERC20.sol\":6907:6919  _msgSender() */\n      tag_173\n        /* \"ERC20/ERC20.sol\":6907:6917  _msgSender */\n      tag_110\n        /* \"ERC20/ERC20.sol\":6907:6919  _msgSender() */\n      jump\t// in\n    tag_173:\n        /* \"ERC20/ERC20.sol\":6891:6919  address owner = _msgSender() */\n      swap1\n      pop\n        /* \"ERC20/ERC20.sol\":6930:6954  uint256 currentAllowance */\n      0x00\n        /* \"ERC20/ERC20.sol\":6957:6982  allowance(owner, spender) */\n      tag_174\n        /* \"ERC20/ERC20.sol\":6967:6972  owner */\n      dup3\n        /* \"ERC20/ERC20.sol\":6974:6981  spender */\n      dup7\n        /* \"ERC20/ERC20.sol\":6957:6966  allowance */\n      tag_95\n        /* \"ERC20/ERC20.sol\":6957:6982  allowance(owner, spender) */\n      jump\t// in\n    tag_174:\n        /* \"ERC20/ERC20.sol\":6930:6982  uint256 currentAllowance = allowance(owner, spender) */\n      swap1\n      pop\n        /* \"ERC20/ERC20.sol\":7021:7036  subtractedValue */\n      dup4\n        /* \"ERC20/ERC20.sol\":7001:7017  currentAllowance */\n      dup2\n        /* \"ERC20/ERC20.sol\":7001:7036  currentAllowance >= subtractedValue */\n      lt\n      iszero\n        /* \"ERC20/ERC20.sol\":6993:7078  require(currentAllowance >= subtractedValue, \"ERC20: decreased allowance below zero\") */\n      tag_175\n      jumpi\n      mload(0x40)\n      0x08c379a000000000000000000000000000000000000000000000000000000000\n      dup2\n      mstore\n      0x04\n      add\n      tag_176\n      swap1\n      tag_177\n      jump\t// in\n    tag_176:\n      mload(0x40)\n      dup1\n      swap2\n      sub\n      swap1\n      revert\n    tag_175:\n        /* \"ERC20/ERC20.sol\":7114:7174  _approve(owner, spender, currentAllowance - subtractedValue) */\n      tag_178\n        /* \"ERC20/ERC20.sol\":7123:7128  owner */\n      dup3\n        /* \"ERC20/ERC20.sol\":7130:7137  spender */\n      dup7\n        /* \"ERC20/ERC20.sol\":7158:7173  subtractedValue */\n      dup7\n        /* \"ERC20/ERC20.sol\":7139:7155  currentAllowance */\n      dup5\n        /* \"ERC20/ERC20.sol\":7139:7173  currentAllowance - subtractedValue */\n      sub\n        /* \"ERC20/ERC20.sol\":7114:7122  _approve */\n      tag_112\n        /* \"ERC20/ERC20.sol\":7114:7174  _approve(owner, spender, currentAllowance - subtractedValue) */\n      jump\t// in\n    tag_178:\n        /* \"ERC20/ERC20.sol\":7205:7209  true */\n      0x01\n        /* \"ERC20/ERC20.sol\":7198:7209  return true */\n      swap3\n      pop\n      pop\n      pop\n        /* \"ERC20/ERC20.sol\":6781:7217  function decreaseAllowance(address spender, uint256 subtractedValue) public virtual returns (bool) {\r... */\n      swap3\n      swap2\n      pop\n      pop\n      jump\t// out\n        /* \"ERC20/ERC20.sol\":3828:4021  function transfer(address to, uint256 amount) public virtual override returns (bool) {\r... */\n    tag_90:\n        /* \"ERC20/ERC20.sol\":3907:3911  bool */\n      0x00\n        /* \"ERC20/ERC20.sol\":3924:3937  address owner */\n      dup1\n        /* \"ERC20/ERC20.sol\":3940:3952  _msgSender() */\n      tag_180\n        /* \"ERC20/ERC20.sol\":3940:3950  _msgSender */\n      tag_110\n        /* \"ERC20/ERC20.sol\":3940:3952  _msgSender() */\n      jump\t// in\n    tag_180:\n        /* \"ERC20/ERC20.sol\":3924:3952  address owner = _msgSender() */\n      swap1\n      pop\n        /* \"ERC20/ERC20.sol\":3963:3991  _transfer(owner, to, amount) */\n      tag_181\n        /* \"ERC20/ERC20.sol\":3973:3978  owner */\n      dup2\n        /* \"ERC20/ERC20.sol\":3980:3982  to */\n      dup6\n        /* \"ERC20/ERC20.sol\":3984:3990  amount */\n      dup6\n        /* \"ERC20/ERC20.sol\":3963:3972  _transfer */\n      tag_119\n        /* \"ERC20/ERC20.sol\":3963:3991  _transfer(owner, to, amount) */\n      jump\t// in\n    tag_181:\n        /* \"ERC20/ERC20.sol\":4009:4013  true */\n      0x01\n        /* \"ERC20/ERC20.sol\":4002:4013  return true */\n      swap2\n      pop\n      pop\n        /* \"ERC20/ERC20.sol\":3828:4021  function transfer(address to, uint256 amount) public virtual override returns (bool) {\r... */\n      swap3\n      swap2\n      pop\n      pop\n      jump\t// out\n        /* \"ERC20/ERC20.sol\":4084:4235  function allowance(address owner, address spender) public view virtual override returns (uint256) {\r... */\n    tag_95:\n        /* \"ERC20/ERC20.sol\":4173:4180  uint256 */\n      0x00\n        /* \"ERC20/ERC20.sol\":4200:4211  _allowances */\n      0x01\n        /* \"ERC20/ERC20.sol\":4200:4218  _allowances[owner] */\n      0x00\n        /* \"ERC20/ERC20.sol\":4212:4217  owner */\n      dup5\n        /* \"ERC20/ERC20.sol\":4200:4218  _allowances[owner] */\n      0xffffffffffffffffffffffffffffffffffffffff\n      and\n      0xffffffffffffffffffffffffffffffffffffffff\n      and\n      dup2\n      mstore\n      0x20\n      add\n      swap1\n      dup2\n      mstore\n      0x20\n      add\n      0x00\n      keccak256\n        /* \"ERC20/ERC20.sol\":4200:4227  _allowances[owner][spender] */\n      0x00\n        /* \"ERC20/ERC20.sol\":4219:4226  spender */\n      dup4\n        /* \"ERC20/ERC20.sol\":4200:4227  _allowances[owner][spender] */\n      0xffffffffffffffffffffffffffffffffffffffff\n      and\n      0xffffffffffffffffffffffffffffffffffffffff\n      and\n      dup2\n      mstore\n      0x20\n      add\n      swap1\n      dup2\n      mstore\n      0x20\n      add\n      0x00\n      keccak256\n      sload\n        /* \"ERC20/ERC20.sol\":4193:4227  return _allowances[owner][spender] */\n      swap1\n      pop\n        /* \"ERC20/ERC20.sol\":4084:4235  function allowance(address owner, address spender) public view virtual override returns (uint256) {\r... */\n      swap3\n      swap2\n      pop\n      pop\n      jump\t// out\n        /* \"Utils/Ownable.sol\":1972:2173  function transferOwnership(address newOwner) public virtual onlyOwner {\r... */\n    tag_99:\n        /* \"Utils/Ownable.sol\":1294:1306  _msgSender() */\n      tag_184\n        /* \"Utils/Ownable.sol\":1294:1304  _msgSender */\n      tag_110\n        /* \"Utils/Ownable.sol\":1294:1306  _msgSender() */\n      jump\t// in\n    tag_184:\n        /* \"Utils/Ownable.sol\":1283:1306  owner() == _msgSender() */\n      0xffffffffffffffffffffffffffffffffffffffff\n      and\n        /* \"Utils/Ownable.sol\":1283:1290  owner() */\n      tag_185\n        /* \"Utils/Ownable.sol\":1283:1288  owner */\n      tag_78\n        /* \"Utils/Ownable.sol\":1283:1290  owner() */\n      jump\t// in\n    tag_185:\n        /* \"Utils/Ownable.sol\":1283:1306  owner() == _msgSender() */\n      0xffffffffffffffffffffffffffffffffffffffff\n      and\n      eq\n        /* \"Utils/Ownable.sol\":1275:1343  require(owner() == _msgSender(), \"Ownable: caller is not the owner\") */\n      tag_186\n      jumpi\n      mload(0x40)\n      0x08c379a000000000000000000000000000000000000000000000000000000000\n      dup2\n      mstore\n      0x04\n      add\n      tag_187\n      swap1\n      tag_132\n      jump\t// in\n    tag_187:\n      mload(0x40)\n      dup1\n      swap2\n      sub\n      swap1\n      revert\n    tag_186:\n        /* \"Utils/Ownable.sol\":2081:2082  0 */\n      0x00\n        /* \"Utils/Ownable.sol\":2061:2083  newOwner != address(0) */\n      0xffffffffffffffffffffffffffffffffffffffff\n      and\n        /* \"Utils/Ownable.sol\":2061:2069  newOwner */\n      dup2\n        /* \"Utils/Ownable.sol\":2061:2083  newOwner != address(0) */\n      0xffffffffffffffffffffffffffffffffffffffff\n      and\n      eq\n      iszero\n        /* \"Utils/Ownable.sol\":2053:2126  require(newOwner != address(0), \"Ownable: new owner is the zero address\") */\n      tag_189\n      jumpi\n      mload(0x40)\n      0x08c379a000000000000000000000000000000000000000000000000000000000\n      dup2\n      mstore\n      0x04\n      add\n      tag_190\n      swap1\n      tag_191\n      jump\t// in\n    tag_190:\n      mload(0x40)\n      dup1\n      swap2\n      sub\n      swap1\n      revert\n    tag_189:\n        /* \"Utils/Ownable.sol\":2137:2165  _transferOwnership(newOwner) */\n      tag_192\n        /* \"Utils/Ownable.sol\":2156:2164  newOwner */\n      dup2\n        /* \"Utils/Ownable.sol\":2137:2155  _transferOwnership */\n      tag_152\n        /* \"Utils/Ownable.sol\":2137:2165  _transferOwnership(newOwner) */\n      jump\t// in\n    tag_192:\n        /* \"Utils/Ownable.sol\":1972:2173  function transferOwnership(address newOwner) public virtual onlyOwner {\r... */\n      pop\n      jump\t// out\n        /* \"ERC20/ERC20.sol\":12139:12264  function _beforeTokenTransfer(\r... */\n    tag_100:\n      pop\n      pop\n      pop\n      jump\t// out\n        /* \"Utils/Context.sol\":656:754  function _msgSender() internal view virtual returns (address) {\r... */\n    tag_110:\n        /* \"Utils/Context.sol\":709:716  address */\n      0x00\n        /* \"Utils/Context.sol\":736:746  msg.sender */\n      caller\n        /* \"Utils/Context.sol\":729:746  return msg.sender */\n      swap1\n      pop\n        /* \"Utils/Context.sol\":656:754  function _msgSender() internal view virtual returns (address) {\r... */\n      swap1\n      jump\t// out\n        /* \"ERC20/ERC20.sol\":10415:10795  function _approve(\r... */\n    tag_112:\n        /* \"ERC20/ERC20.sol\":10568:10569  0 */\n      0x00\n        /* \"ERC20/ERC20.sol\":10551:10570  owner != address(0) */\n      0xffffffffffffffffffffffffffffffffffffffff\n      and\n        /* \"ERC20/ERC20.sol\":10551:10556  owner */\n      dup4\n        /* \"ERC20/ERC20.sol\":10551:10570  owner != address(0) */\n      0xffffffffffffffffffffffffffffffffffffffff\n      and\n      eq\n      iszero\n        /* \"ERC20/ERC20.sol\":10543:10611  require(owner != address(0), \"ERC20: approve from the zero address\") */\n      tag_196\n      jumpi\n      mload(0x40)\n      0x08c379a000000000000000000000000000000000000000000000000000000000\n      dup2\n      mstore\n      0x04\n      add\n      tag_197\n      swap1\n      tag_198\n      jump\t// in\n    tag_197:\n      mload(0x40)\n      dup1\n      swap2\n      sub\n      swap1\n      revert\n    tag_196:\n        /* \"ERC20/ERC20.sol\":10649:10650  0 */\n      0x00\n        /* \"ERC20/ERC20.sol\":10630:10651  spender != address(0) */\n      0xffffffffffffffffffffffffffffffffffffffff\n      and\n        /* \"ERC20/ERC20.sol\":10630:10637  spender */\n      dup3\n        /* \"ERC20/ERC20.sol\":10630:10651  spender != address(0) */\n      0xffffffffffffffffffffffffffffffffffffffff\n      and\n      eq\n      iszero\n        /* \"ERC20/ERC20.sol\":10622:10690  require(spender != address(0), \"ERC20: approve to the zero address\") */\n      tag_199\n      jumpi\n      mload(0x40)\n      0x08c379a000000000000000000000000000000000000000000000000000000000\n      dup2\n      mstore\n      0x04\n      add\n      tag_200\n      swap1\n      tag_201\n      jump\t// in\n    tag_200:\n      mload(0x40)\n      dup1\n      swap2\n      sub\n      swap1\n      revert\n    tag_199:\n        /* \"ERC20/ERC20.sol\":10733:10739  amount */\n      dup1\n        /* \"ERC20/ERC20.sol\":10703:10714  _allowances */\n      0x01\n        /* \"ERC20/ERC20.sol\":10703:10721  _allowances[owner] */\n      0x00\n        /* \"ERC20/ERC20.sol\":10715:10720  owner */\n      dup6\n        /* \"ERC20/ERC20.sol\":10703:10721  _allowances[owner] */\n      0xffffffffffffffffffffffffffffffffffffffff\n      and\n      0xffffffffffffffffffffffffffffffffffffffff\n      and\n      dup2\n      mstore\n      0x20\n      add\n      swap1\n      dup2\n      mstore\n      0x20\n      add\n      0x00\n      keccak256\n        /* \"ERC20/ERC20.sol\":10703:10730  _allowances[owner][spender] */\n      0x00\n        /* \"ERC20/ERC20.sol\":10722:10729  spender */\n      dup5\n        /* \"ERC20/ERC20.sol\":10703:10730  _allowances[owner][spender] */\n      0xffffffffffffffffffffffffffffffffffffffff\n      and\n      0xffffffffffffffffffffffffffffffffffffffff\n      and\n      dup2\n      mstore\n      0x20\n      add\n      swap1\n      dup2\n      mstore\n      0x20\n      add\n      0x00\n      keccak256\n        /* \"ERC20/ERC20.sol\":10703:10739  _allowances[owner][spender] = amount */\n      dup2\n      swap1\n      sstore\n      pop\n        /* \"ERC20/ERC20.sol\":10771:10778  spender */\n      dup2\n        /* \"ERC20/ERC20.sol\":10755:10787  Approval(owner, spender, amount) */\n      0xffffffffffffffffffffffffffffffffffffffff\n      and\n        /* \"ERC20/ERC20.sol\":10764:10769  owner */\n      dup4\n        /* \"ERC20/ERC20.sol\":10755:10787  Approval(owner, spender, amount) */\n      0xffffffffffffffffffffffffffffffffffffffff\n      and\n      0x8c5be1e5ebec7d5bd14f71427d1e84f3dd0314c0f7b2291e5b200ac8c7c3b925\n        /* \"ERC20/ERC20.sol\":10780:10786  amount */\n      dup4\n        /* \"ERC20/ERC20.sol\":10755:10787  Approval(owner, spender, amount) */\n      mload(0x40)\n      tag_202\n      swap2\n      swap1\n      tag_39\n      jump\t// in\n    tag_202:\n      mload(0x40)\n      dup1\n      swap2\n      sub\n      swap1\n      log3\n        /* \"ERC20/ERC20.sol\":10415:10795  function _approve(\r... */\n      pop\n      pop\n      pop\n      jump\t// out\n        /* \"ERC20/ERC20.sol\":11086:11539  function _spendAllowance(\r... */\n    tag_117:\n        /* \"ERC20/ERC20.sol\":11221:11245  uint256 currentAllowance */\n      0x00\n        /* \"ERC20/ERC20.sol\":11248:11273  allowance(owner, spender) */\n      tag_204\n        /* \"ERC20/ERC20.sol\":11258:11263  owner */\n      dup5\n        /* \"ERC20/ERC20.sol\":11265:11272  spender */\n      dup5\n        /* \"ERC20/ERC20.sol\":11248:11257  allowance */\n      tag_95\n        /* \"ERC20/ERC20.sol\":11248:11273  allowance(owner, spender) */\n      jump\t// in\n    tag_204:\n        /* \"ERC20/ERC20.sol\":11221:11273  uint256 currentAllowance = allowance(owner, spender) */\n      swap1\n      pop\n        /* \"ERC20/ERC20.sol\":11308:11325  type(uint256).max */\n      0xffffffffffffffffffffffffffffffffffffffffffffffffffffffffffffffff\n        /* \"ERC20/ERC20.sol\":11288:11304  currentAllowance */\n      dup2\n        /* \"ERC20/ERC20.sol\":11288:11325  currentAllowance != type(uint256).max */\n      eq\n        /* \"ERC20/ERC20.sol\":11284:11532  if (currentAllowance != type(uint256).max) {\r... */\n      tag_205\n      jumpi\n        /* \"ERC20/ERC20.sol\":11370:11376  amount */\n      dup2\n        /* \"ERC20/ERC20.sol\":11350:11366  currentAllowance */\n      dup2\n        /* \"ERC20/ERC20.sol\":11350:11376  currentAllowance >= amount */\n      lt\n      iszero\n        /* \"ERC20/ERC20.sol\":11342:11410  require(currentAllowance >= amount, \"ERC20: insufficient allowance\") */\n      tag_206\n      jumpi\n      mload(0x40)\n      0x08c379a000000000000000000000000000000000000000000000000000000000\n      dup2\n      mstore\n      0x04\n      add\n      tag_207\n      swap1\n      tag_208\n      jump\t// in\n    tag_207:\n      mload(0x40)\n      dup1\n      swap2\n      sub\n      swap1\n      revert\n    tag_206:\n        /* \"ERC20/ERC20.sol\":11454:11505  _approve(owner, spender, currentAllowance - amount) */\n      tag_209\n        /* \"ERC20/ERC20.sol\":11463:11468  owner */\n      dup5\n        /* \"ERC20/ERC20.sol\":11470:11477  spender */\n      dup5\n        /* \"ERC20/ERC20.sol\":11498:11504  amount */\n      dup5\n        /* \"ERC20/ERC20.sol\":11479:11495  currentAllowance */\n      dup5\n        /* \"ERC20/ERC20.sol\":11479:11504  currentAllowance - amount */\n      sub\n        /* \"ERC20/ERC20.sol\":11454:11462  _approve */\n      tag_112\n        /* \"ERC20/ERC20.sol\":11454:11505  _approve(owner, spender, currentAllowance - amount) */\n      jump\t// in\n    tag_209:\n        /* \"ERC20/ERC20.sol\":11284:11532  if (currentAllowance != type(uint256).max) {\r... */\n    tag_205:\n        /* \"ERC20/ERC20.sol\":11086:11539  function _spendAllowance(\r... */\n      pop\n      pop\n      pop\n      pop\n      jump\t// out\n        /* \"ERC20/ERC20.sol\":7696:8367  function _transfer(\r... */\n    tag_119:\n        /* \"ERC20/ERC20.sol\":7843:7844  0 */\n      0x00\n        /* \"ERC20/ERC20.sol\":7827:7845  from != address(0) */\n      0xffffffffffffffffffffffffffffffffffffffff\n      and\n        /* \"ERC20/ERC20.sol\":7827:7831  from */\n      dup4\n        /* \"ERC20/ERC20.sol\":7827:7845  from != address(0) */\n      0xffffffffffffffffffffffffffffffffffffffff\n      and\n      eq\n      iszero\n        /* \"ERC20/ERC20.sol\":7819:7887  require(from != address(0), \"ERC20: transfer from the zero address\") */\n      tag_211\n      jumpi\n      mload(0x40)\n      0x08c379a000000000000000000000000000000000000000000000000000000000\n      dup2\n      mstore\n      0x04\n      add\n      tag_212\n      swap1\n      tag_213\n      jump\t// in\n    tag_212:\n      mload(0x40)\n      dup1\n      swap2\n      sub\n      swap1\n      revert\n    tag_211:\n        /* \"ERC20/ERC20.sol\":7920:7921  0 */\n      0x00\n        /* \"ERC20/ERC20.sol\":7906:7922  to != address(0) */\n      0xffffffffffffffffffffffffffffffffffffffff\n      and\n        /* \"ERC20/ERC20.sol\":7906:7908  to */\n      dup3\n        /* \"ERC20/ERC20.sol\":7906:7922  to != address(0) */\n      0xffffffffffffffffffffffffffffffffffffffff\n      and\n      eq\n      iszero\n        /* \"ERC20/ERC20.sol\":7898:7962  require(to != address(0), \"ERC20: transfer to the zero address\") */\n      tag_214\n      jumpi\n      mload(0x40)\n      0x08c379a000000000000000000000000000000000000000000000000000000000\n      dup2\n      mstore\n      0x04\n      add\n      tag_215\n      swap1\n      tag_216\n      jump\t// in\n    tag_215:\n      mload(0x40)\n      dup1\n      swap2\n      sub\n      swap1\n      revert\n    tag_214:\n        /* \"ERC20/ERC20.sol\":7975:8013  _beforeTokenTransfer(from, to, amount) */\n      tag_217\n        /* \"ERC20/ERC20.sol\":7996:8000  from */\n      dup4\n        /* \"ERC20/ERC20.sol\":8002:8004  to */\n      dup4\n        /* \"ERC20/ERC20.sol\":8006:8012  amount */\n      dup4\n        /* \"ERC20/ERC20.sol\":7975:7995  _beforeTokenTransfer */\n      tag_218\n        /* \"ERC20/ERC20.sol\":7975:8013  _beforeTokenTransfer(from, to, amount) */\n      jump\t// in\n    tag_217:\n        /* \"ERC20/ERC20.sol\":8026:8045  uint256 fromBalance */\n      0x00\n        /* \"ERC20/ERC20.sol\":8048:8057  _balances */\n      dup1\n        /* \"ERC20/ERC20.sol\":8048:8063  _balances[from] */\n      0x00\n        /* \"ERC20/ERC20.sol\":8058:8062  from */\n      dup6\n        /* \"ERC20/ERC20.sol\":8048:8063  _balances[from] */\n      0xffffffffffffffffffffffffffffffffffffffff\n      and\n      0xffffffffffffffffffffffffffffffffffffffff\n      and\n      dup2\n      mstore\n      0x20\n      add\n      swap1\n      dup2\n      mstore\n      0x20\n      add\n      0x00\n      keccak256\n      sload\n        /* \"ERC20/ERC20.sol\":8026:8063  uint256 fromBalance = _balances[from] */\n      swap1\n      pop\n        /* \"ERC20/ERC20.sol\":8097:8103  amount */\n      dup2\n        /* \"ERC20/ERC20.sol\":8082:8093  fromBalance */\n      dup2\n        /* \"ERC20/ERC20.sol\":8082:8103  fromBalance >= amount */\n      lt\n      iszero\n        /* \"ERC20/ERC20.sol\":8074:8146  require(fromBalance >= amount, \"ERC20: transfer amount exceeds balance\") */\n      tag_219\n      jumpi\n      mload(0x40)\n      0x08c379a000000000000000000000000000000000000000000000000000000000\n      dup2\n      mstore\n      0x04\n      add\n      tag_220\n      swap1\n      tag_221\n      jump\t// in\n    tag_220:\n      mload(0x40)\n      dup1\n      swap2\n      sub\n      swap1\n      revert\n    tag_219:\n        /* \"ERC20/ERC20.sol\":8214:8220  amount */\n      dup2\n        /* \"ERC20/ERC20.sol\":8200:8211  fromBalance */\n      dup2\n        /* \"ERC20/ERC20.sol\":8200:8220  fromBalance - amount */\n      sub\n        /* \"ERC20/ERC20.sol\":8182:8191  _balances */\n      0x00\n        /* \"ERC20/ERC20.sol\":8182:8197  _balances[from] */\n      dup1\n        /* \"ERC20/ERC20.sol\":8192:8196  from */\n      dup7\n        /* \"ERC20/ERC20.sol\":8182:8197  _balances[from] */\n      0xffffffffffffffffffffffffffffffffffffffff\n      and\n      0xffffffffffffffffffffffffffffffffffffffff\n      and\n      dup2\n      mstore\n      0x20\n      add\n      swap1\n      dup2\n      mstore\n      0x20\n      add\n      0x00\n      keccak256\n        /* \"ERC20/ERC20.sol\":8182:8220  _balances[from] = fromBalance - amount */\n      dup2\n      swap1\n      sstore\n      pop\n        /* \"ERC20/ERC20.sol\":8259:8265  amount */\n      dup2\n        /* \"ERC20/ERC20.sol\":8242:8251  _balances */\n      0x00\n        /* \"ERC20/ERC20.sol\":8242:8255  _balances[to] */\n      dup1\n        /* \"ERC20/ERC20.sol\":8252:8254  to */\n      dup6\n        /* \"ERC20/ERC20.sol\":8242:8255  _balances[to] */\n      0xffffffffffffffffffffffffffffffffffffffff\n      and\n      0xffffffffffffffffffffffffffffffffffffffff\n      and\n      dup2\n      mstore\n      0x20\n      add\n      swap1\n      dup2\n      mstore\n      0x20\n      add\n      0x00\n      keccak256\n      0x00\n        /* \"ERC20/ERC20.sol\":8242:8265  _balances[to] += amount */\n      dup3\n      dup3\n      sload\n      tag_222\n      swap2\n      swap1\n      tag_126\n      jump\t// in\n    tag_222:\n      swap3\n      pop\n      pop\n      dup2\n      swap1\n      sstore\n      pop\n        /* \"ERC20/ERC20.sol\":8298:8300  to */\n      dup3\n        /* \"ERC20/ERC20.sol\":8283:8309  Transfer(from, to, amount) */\n      0xffffffffffffffffffffffffffffffffffffffff\n      and\n        /* \"ERC20/ERC20.sol\":8292:8296  from */\n      dup5\n        /* \"ERC20/ERC20.sol\":8283:8309  Transfer(from, to, amount) */\n      0xffffffffffffffffffffffffffffffffffffffff\n      and\n      0xddf252ad1be2c89b69c2b068fc378daa952ba7f163c4a11628f55a4df523b3ef\n        /* \"ERC20/ERC20.sol\":8302:8308  amount */\n      dup5\n        /* \"ERC20/ERC20.sol\":8283:8309  Transfer(from, to, amount) */\n      mload(0x40)\n      tag_223\n      swap2\n      swap1\n      tag_39\n      jump\t// in\n    tag_223:\n      mload(0x40)\n      dup1\n      swap2\n      sub\n      swap1\n      log3\n        /* \"ERC20/ERC20.sol\":8322:8359  _afterTokenTransfer(from, to, amount) */\n      tag_224\n        /* \"ERC20/ERC20.sol\":8342:8346  from */\n      dup5\n        /* \"ERC20/ERC20.sol\":8348:8350  to */\n      dup5\n        /* \"ERC20/ERC20.sol\":8352:8358  amount */\n      dup5\n        /* \"ERC20/ERC20.sol\":8322:8341  _afterTokenTransfer */\n      tag_225\n        /* \"ERC20/ERC20.sol\":8322:8359  _afterTokenTransfer(from, to, amount) */\n      jump\t// in\n    tag_224:\n        /* \"ERC20/ERC20.sol\":7696:8367  function _transfer(\r... */\n      pop\n      pop\n      pop\n      pop\n      jump\t// out\n        /* \"Utils/Pausable.sol\":2189:2309  function _unpause() internal virtual whenPaused {\r... */\n    tag_135:\n        /* \"Utils/Pausable.sol\":1733:1741  paused() */\n      tag_227\n        /* \"Utils/Pausable.sol\":1733:1739  paused */\n      tag_63\n        /* \"Utils/Pausable.sol\":1733:1741  paused() */\n      jump\t// in\n    tag_227:\n        /* \"Utils/Pausable.sol\":1725:1766  require(paused(), \"Pausable: not paused\") */\n      tag_228\n      jumpi\n      mload(0x40)\n      0x08c379a000000000000000000000000000000000000000000000000000000000\n      dup2\n      mstore\n      0x04\n      add\n      tag_229\n      swap1\n      tag_230\n      jump\t// in\n    tag_229:\n      mload(0x40)\n      dup1\n      swap2\n      sub\n      swap1\n      revert\n    tag_228:\n        /* \"Utils/Pausable.sol\":2258:2263  false */\n      0x00\n        /* \"Utils/Pausable.sol\":2248:2255  _paused */\n      0x05\n      0x00\n        /* \"Utils/Pausable.sol\":2248:2263  _paused = false */\n      0x0100\n      exp\n      dup2\n      sload\n      dup2\n      0xff\n      mul\n      not\n      and\n      swap1\n      dup4\n      iszero\n      iszero\n      mul\n      or\n      swap1\n      sstore\n      pop\n        /* \"Utils/Pausable.sol\":2279:2301  Unpaused(_msgSender()) */\n      0x5db9ee0a495bf2e6ff9c91a7834c1ba4fdd244a5e8aa4e537bd38aeae4b073aa\n        /* \"Utils/Pausable.sol\":2288:2300  _msgSender() */\n      tag_232\n        /* \"Utils/Pausable.sol\":2288:2298  _msgSender */\n      tag_110\n        /* \"Utils/Pausable.sol\":2288:2300  _msgSender() */\n      jump\t// in\n    tag_232:\n        /* \"Utils/Pausable.sol\":2279:2301  Unpaused(_msgSender()) */\n      mload(0x40)\n      tag_233\n      swap2\n      swap1\n      tag_80\n      jump\t// in\n    tag_233:\n      mload(0x40)\n      dup1\n      swap2\n      sub\n      swap1\n      log1\n        /* \"Utils/Pausable.sol\":2189:2309  function _unpause() internal virtual whenPaused {\r... */\n      jump\t// out\n        /* \"ERC20/ERC20.sol\":8654:9053  function _mint(address account, uint256 amount) internal virtual {\r... */\n    tag_138:\n        /* \"ERC20/ERC20.sol\":8757:8758  0 */\n      0x00\n        /* \"ERC20/ERC20.sol\":8738:8759  account != address(0) */\n      0xffffffffffffffffffffffffffffffffffffffff\n      and\n        /* \"ERC20/ERC20.sol\":8738:8745  account */\n      dup3\n        /* \"ERC20/ERC20.sol\":8738:8759  account != address(0) */\n      0xffffffffffffffffffffffffffffffffffffffff\n      and\n      eq\n      iszero\n        /* \"ERC20/ERC20.sol\":8730:8795  require(account != address(0), \"ERC20: mint to the zero address\") */\n      tag_235\n      jumpi\n      mload(0x40)\n      0x08c379a000000000000000000000000000000000000000000000000000000000\n      dup2\n      mstore\n      0x04\n      add\n      tag_236\n      swap1\n      tag_237\n      jump\t// in\n    tag_236:\n      mload(0x40)\n      dup1\n      swap2\n      sub\n      swap1\n      revert\n    tag_235:\n        /* \"ERC20/ERC20.sol\":8808:8857  _beforeTokenTransfer(address(0), account, amount) */\n      tag_238\n        /* \"ERC20/ERC20.sol\":8837:8838  0 */\n      0x00\n        /* \"ERC20/ERC20.sol\":8841:8848  account */\n      dup4\n        /* \"ERC20/ERC20.sol\":8850:8856  amount */\n      dup4\n        /* \"ERC20/ERC20.sol\":8808:8828  _beforeTokenTransfer */\n      tag_218\n        /* \"ERC20/ERC20.sol\":8808:8857  _beforeTokenTransfer(address(0), account, amount) */\n      jump\t// in\n    tag_238:\n        /* \"ERC20/ERC20.sol\":8886:8892  amount */\n      dup1\n        /* \"ERC20/ERC20.sol\":8870:8882  _totalSupply */\n      0x02\n      0x00\n        /* \"ERC20/ERC20.sol\":8870:8892  _totalSupply += amount */\n      dup3\n      dup3\n      sload\n      tag_239\n      swap2\n      swap1\n      tag_126\n      jump\t// in\n    tag_239:\n      swap3\n      pop\n      pop\n      dup2\n      swap1\n      sstore\n      pop\n        /* \"ERC20/ERC20.sol\":8925:8931  amount */\n      dup1\n        /* \"ERC20/ERC20.sol\":8903:8912  _balances */\n      0x00\n        /* \"ERC20/ERC20.sol\":8903:8921  _balances[account] */\n      dup1\n        /* \"ERC20/ERC20.sol\":8913:8920  account */\n      dup5\n        /* \"ERC20/ERC20.sol\":8903:8921  _balances[account] */\n      0xffffffffffffffffffffffffffffffffffffffff\n      and\n      0xffffffffffffffffffffffffffffffffffffffff\n      and\n      dup2\n      mstore\n      0x20\n      add\n      swap1\n      dup2\n      mstore\n      0x20\n      add\n      0x00\n      keccak256\n      0x00\n        /* \"ERC20/ERC20.sol\":8903:8931  _balances[account] += amount */\n      dup3\n      dup3\n      sload\n      tag_240\n      swap2\n      swap1\n      tag_126\n      jump\t// in\n    tag_240:\n      swap3\n      pop\n      pop\n      dup2\n      swap1\n      sstore\n      pop\n        /* \"ERC20/ERC20.sol\":8968:8975  account */\n      dup2\n        /* \"ERC20/ERC20.sol\":8947:8984  Transfer(address(0), account, amount) */\n      0xffffffffffffffffffffffffffffffffffffffff\n      and\n        /* \"ERC20/ERC20.sol\":8964:8965  0 */\n      0x00\n        /* \"ERC20/ERC20.sol\":8947:8984  Transfer(address(0), account, amount) */\n      0xffffffffffffffffffffffffffffffffffffffff\n      and\n      0xddf252ad1be2c89b69c2b068fc378daa952ba7f163c4a11628f55a4df523b3ef\n        /* \"ERC20/ERC20.sol\":8977:8983  amount */\n      dup4\n        /* \"ERC20/ERC20.sol\":8947:8984  Transfer(address(0), account, amount) */\n      mload(0x40)\n      tag_241\n      swap2\n      swap1\n      tag_39\n      jump\t// in\n    tag_241:\n      mload(0x40)\n      dup1\n      swap2\n      sub\n      swap1\n      log3\n        /* \"ERC20/ERC20.sol\":8997:9045  _afterTokenTransfer(address(0), account, amount) */\n      tag_242\n        /* \"ERC20/ERC20.sol\":9025:9026  0 */\n      0x00\n        /* \"ERC20/ERC20.sol\":9029:9036  account */\n      dup4\n        /* \"ERC20/ERC20.sol\":9038:9044  amount */\n      dup4\n        /* \"ERC20/ERC20.sol\":8997:9016  _afterTokenTransfer */\n      tag_225\n        /* \"ERC20/ERC20.sol\":8997:9045  _afterTokenTransfer(address(0), account, amount) */\n      jump\t// in\n    tag_242:\n        /* \"ERC20/ERC20.sol\":8654:9053  function _mint(address account, uint256 amount) internal virtual {\r... */\n      pop\n      pop\n      jump\t// out\n        /* \"ERC20/ERC20.sol\":9386:9977  function _burn(address account, uint256 amount) internal virtual {\r... */\n    tag_142:\n        /* \"ERC20/ERC20.sol\":9489:9490  0 */\n      0x00\n        /* \"ERC20/ERC20.sol\":9470:9491  account != address(0) */\n      0xffffffffffffffffffffffffffffffffffffffff\n      and\n        /* \"ERC20/ERC20.sol\":9470:9477  account */\n      dup3\n        /* \"ERC20/ERC20.sol\":9470:9491  account != address(0) */\n      0xffffffffffffffffffffffffffffffffffffffff\n      and\n      eq\n      iszero\n        /* \"ERC20/ERC20.sol\":9462:9529  require(account != address(0), \"ERC20: burn from the zero address\") */\n      tag_244\n      jumpi\n      mload(0x40)\n      0x08c379a000000000000000000000000000000000000000000000000000000000\n      dup2\n      mstore\n      0x04\n      add\n      tag_245\n      swap1\n      tag_246\n      jump\t// in\n    tag_245:\n      mload(0x40)\n      dup1\n      swap2\n      sub\n      swap1\n      revert\n    tag_244:\n        /* \"ERC20/ERC20.sol\":9542:9591  _beforeTokenTransfer(account, address(0), amount) */\n      tag_247\n        /* \"ERC20/ERC20.sol\":9563:9570  account */\n      dup3\n        /* \"ERC20/ERC20.sol\":9580:9581  0 */\n      0x00\n        /* \"ERC20/ERC20.sol\":9584:9590  amount */\n      dup4\n        /* \"ERC20/ERC20.sol\":9542:9562  _beforeTokenTransfer */\n      tag_218\n        /* \"ERC20/ERC20.sol\":9542:9591  _beforeTokenTransfer(account, address(0), amount) */\n      jump\t// in\n    tag_247:\n        /* \"ERC20/ERC20.sol\":9604:9626  uint256 accountBalance */\n      0x00\n        /* \"ERC20/ERC20.sol\":9629:9638  _balances */\n      dup1\n        /* \"ERC20/ERC20.sol\":9629:9647  _balances[account] */\n      0x00\n        /* \"ERC20/ERC20.sol\":9639:9646  account */\n      dup5\n        /* \"ERC20/ERC20.sol\":9629:9647  _balances[account] */\n      0xffffffffffffffffffffffffffffffffffffffff\n      and\n      0xffffffffffffffffffffffffffffffffffffffff\n      and\n      dup2\n      mstore\n      0x20\n      add\n      swap1\n      dup2\n      mstore\n      0x20\n      add\n      0x00\n      keccak256\n      sload\n        /* \"ERC20/ERC20.sol\":9604:9647  uint256 accountBalance = _balances[account] */\n      swap1\n      pop\n        /* \"ERC20/ERC20.sol\":9684:9690  amount */\n      dup2\n        /* \"ERC20/ERC20.sol\":9666:9680  accountBalance */\n      dup2\n        /* \"ERC20/ERC20.sol\":9666:9690  accountBalance >= amount */\n      lt\n      iszero\n        /* \"ERC20/ERC20.sol\":9658:9729  require(accountBalance >= amount, \"ERC20: burn amount exceeds balance\") */\n      tag_248\n      jumpi\n      mload(0x40)\n      0x08c379a000000000000000000000000000000000000000000000000000000000\n      dup2\n      mstore\n      0x04\n      add\n      tag_249\n      swap1\n      tag_250\n      jump\t// in\n    tag_249:\n      mload(0x40)\n      dup1\n      swap2\n      sub\n      swap1\n      revert\n    tag_248:\n        /* \"ERC20/ERC20.sol\":9803:9809  amount */\n      dup2\n        /* \"ERC20/ERC20.sol\":9786:9800  accountBalance */\n      dup2\n        /* \"ERC20/ERC20.sol\":9786:9809  accountBalance - amount */\n      sub\n        /* \"ERC20/ERC20.sol\":9765:9774  _balances */\n      0x00\n        /* \"ERC20/ERC20.sol\":9765:9783  _balances[account] */\n      dup1\n        /* \"ERC20/ERC20.sol\":9775:9782  account */\n      dup6\n        /* \"ERC20/ERC20.sol\":9765:9783  _balances[account] */\n      0xffffffffffffffffffffffffffffffffffffffff\n      and\n      0xffffffffffffffffffffffffffffffffffffffff\n      and\n      dup2\n      mstore\n      0x20\n      add\n      swap1\n      dup2\n      mstore\n      0x20\n      add\n      0x00\n      keccak256\n        /* \"ERC20/ERC20.sol\":9765:9809  _balances[account] = accountBalance - amount */\n      dup2\n      swap1\n      sstore\n      pop\n        /* \"ERC20/ERC20.sol\":9847:9853  amount */\n      dup2\n        /* \"ERC20/ERC20.sol\":9831:9843  _totalSupply */\n      0x02\n      0x00\n        /* \"ERC20/ERC20.sol\":9831:9853  _totalSupply -= amount */\n      dup3\n      dup3\n      sload\n      tag_251\n      swap2\n      swap1\n      tag_252\n      jump\t// in\n    tag_251:\n      swap3\n      pop\n      pop\n      dup2\n      swap1\n      sstore\n      pop\n        /* \"ERC20/ERC20.sol\":9897:9898  0 */\n      0x00\n        /* \"ERC20/ERC20.sol\":9871:9908  Transfer(account, address(0), amount) */\n      0xffffffffffffffffffffffffffffffffffffffff\n      and\n        /* \"ERC20/ERC20.sol\":9880:9887  account */\n      dup4\n        /* \"ERC20/ERC20.sol\":9871:9908  Transfer(account, address(0), amount) */\n      0xffffffffffffffffffffffffffffffffffffffff\n      and\n      0xddf252ad1be2c89b69c2b068fc378daa952ba7f163c4a11628f55a4df523b3ef\n        /* \"ERC20/ERC20.sol\":9901:9907  amount */\n      dup5\n        /* \"ERC20/ERC20.sol\":9871:9908  Transfer(account, address(0), amount) */\n      mload(0x40)\n      tag_253\n      swap2\n      swap1\n      tag_39\n      jump\t// in\n    tag_253:\n      mload(0x40)\n      dup1\n      swap2\n      sub\n      swap1\n      log3\n        /* \"ERC20/ERC20.sol\":9921:9969  _afterTokenTransfer(account, address(0), amount) */\n      tag_254\n        /* \"ERC20/ERC20.sol\":9941:9948  account */\n      dup4\n        /* \"ERC20/ERC20.sol\":9958:9959  0 */\n      0x00\n        /* \"ERC20/ERC20.sol\":9962:9968  amount */\n      dup5\n        /* \"ERC20/ERC20.sol\":9921:9940  _afterTokenTransfer */\n      tag_225\n        /* \"ERC20/ERC20.sol\":9921:9969  _afterTokenTransfer(account, address(0), amount) */\n      jump\t// in\n    tag_254:\n        /* \"ERC20/ERC20.sol\":9386:9977  function _burn(address account, uint256 amount) internal virtual {\r... */\n      pop\n      pop\n      pop\n      jump\t// out\n        /* \"Utils/Ownable.sol\":2333:2524  function _transferOwnership(address newOwner) internal virtual {\r... */\n    tag_152:\n        /* \"Utils/Ownable.sol\":2407:2423  address oldOwner */\n      0x00\n        /* \"Utils/Ownable.sol\":2426:2432  _owner */\n      0x05\n      0x01\n      swap1\n      sload\n      swap1\n      0x0100\n      exp\n      swap1\n      div\n      0xffffffffffffffffffffffffffffffffffffffff\n      and\n        /* \"Utils/Ownable.sol\":2407:2432  address oldOwner = _owner */\n      swap1\n      pop\n        /* \"Utils/Ownable.sol\":2452:2460  newOwner */\n      dup2\n        /* \"Utils/Ownable.sol\":2443:2449  _owner */\n      0x05\n      0x01\n        /* \"Utils/Ownable.sol\":2443:2460  _owner = newOwner */\n      0x0100\n      exp\n      dup2\n      sload\n      dup2\n      0xffffffffffffffffffffffffffffffffffffffff\n      mul\n      not\n      and\n      swap1\n      dup4\n      0xffffffffffffffffffffffffffffffffffffffff\n      and\n      mul\n      or\n      swap1\n      sstore\n      pop\n        /* \"Utils/Ownable.sol\":2507:2515  newOwner */\n      dup2\n        /* \"Utils/Ownable.sol\":2476:2516  OwnershipTransferred(oldOwner, newOwner) */\n      0xffffffffffffffffffffffffffffffffffffffff\n      and\n        /* \"Utils/Ownable.sol\":2497:2505  oldOwner */\n      dup2\n        /* \"Utils/Ownable.sol\":2476:2516  OwnershipTransferred(oldOwner, newOwner) */\n      0xffffffffffffffffffffffffffffffffffffffff\n      and\n      0x8be0079c531659141344cd1fd0a4f28419497f9722a3daafe3b4186f6b6457e0\n      mload(0x40)\n      mload(0x40)\n      dup1\n      swap2\n      sub\n      swap1\n      log3\n        /* \"Utils/Ownable.sol\":2333:2524  function _transferOwnership(address newOwner) internal virtual {\r... */\n      pop\n      pop\n      jump\t// out\n        /* \"Utils/Pausable.sol\":1930:2048  function _pause() internal virtual whenNotPaused {\r... */\n    tag_164:\n        /* \"Utils/Pausable.sol\":1456:1464  paused() */\n      tag_257\n        /* \"Utils/Pausable.sol\":1456:1462  paused */\n      tag_63\n        /* \"Utils/Pausable.sol\":1456:1464  paused() */\n      jump\t// in\n    tag_257:\n        /* \"Utils/Pausable.sol\":1455:1464  !paused() */\n      iszero\n        /* \"Utils/Pausable.sol\":1447:1485  require(!paused(), \"Pausable: paused\") */\n      tag_258\n      jumpi\n      mload(0x40)\n      0x08c379a000000000000000000000000000000000000000000000000000000000\n      dup2\n      mstore\n      0x04\n      add\n      tag_259\n      swap1\n      tag_260\n      jump\t// in\n    tag_259:\n      mload(0x40)\n      dup1\n      swap2\n      sub\n      swap1\n      revert\n    tag_258:\n        /* \"Utils/Pausable.sol\":2000:2004  true */\n      0x01\n        /* \"Utils/Pausable.sol\":1990:1997  _paused */\n      0x05\n      0x00\n        /* \"Utils/Pausable.sol\":1990:2004  _paused = true */\n      0x0100\n      exp\n      dup2\n      sload\n      dup2\n      0xff\n      mul\n      not\n      and\n      swap1\n      dup4\n      iszero\n      iszero\n      mul\n      or\n      swap1\n      sstore\n      pop\n        /* \"Utils/Pausable.sol\":2020:2040  Paused(_msgSender()) */\n      0x62e78cea01bee320cd4e420270b5ea74000d11b0c9f74754ebdbfc544b05a258\n        /* \"Utils/Pausable.sol\":2027:2039  _msgSender() */\n      tag_262\n        /* \"Utils/Pausable.sol\":2027:2037  _msgSender */\n      tag_110\n        /* \"Utils/Pausable.sol\":2027:2039  _msgSender() */\n      jump\t// in\n    tag_262:\n        /* \"Utils/Pausable.sol\":2020:2040  Paused(_msgSender()) */\n      mload(0x40)\n      tag_263\n      swap2\n      swap1\n      tag_80\n      jump\t// in\n    tag_263:\n      mload(0x40)\n      dup1\n      swap2\n      sub\n      swap1\n      log1\n        /* \"Utils/Pausable.sol\":1930:2048  function _pause() internal virtual whenNotPaused {\r... */\n      jump\t// out\n        /* \"ERC20/TitanToken.sol\":601:800  function _beforeTokenTransfer(address from, address to, uint256 amount)\r... */\n    tag_218:\n        /* \"Utils/Pausable.sol\":1456:1464  paused() */\n      tag_265\n        /* \"Utils/Pausable.sol\":1456:1462  paused */\n      tag_63\n        /* \"Utils/Pausable.sol\":1456:1464  paused() */\n      jump\t// in\n    tag_265:\n        /* \"Utils/Pausable.sol\":1455:1464  !paused() */\n      iszero\n        /* \"Utils/Pausable.sol\":1447:1485  require(!paused(), \"Pausable: paused\") */\n      tag_266\n      jumpi\n      mload(0x40)\n      0x08c379a000000000000000000000000000000000000000000000000000000000\n      dup2\n      mstore\n      0x04\n      add\n      tag_267\n      swap1\n      tag_260\n      jump\t// in\n    tag_267:\n      mload(0x40)\n      dup1\n      swap2\n      sub\n      swap1\n      revert\n    tag_266:\n        /* \"ERC20/TitanToken.sol\":748:792  super._beforeTokenTransfer(from, to, amount) */\n      tag_269\n        /* \"ERC20/TitanToken.sol\":775:779  from */\n      dup4\n        /* \"ERC20/TitanToken.sol\":781:783  to */\n      dup4\n        /* \"ERC20/TitanToken.sol\":785:791  amount */\n      dup4\n        /* \"ERC20/TitanToken.sol\":748:774  super._beforeTokenTransfer */\n      tag_100\n        /* \"ERC20/TitanToken.sol\":748:792  super._beforeTokenTransfer(from, to, amount) */\n      jump\t// in\n    tag_269:\n        /* \"ERC20/TitanToken.sol\":601:800  function _beforeTokenTransfer(address from, address to, uint256 amount)\r... */\n      pop\n      pop\n      pop\n      jump\t// out\n        /* \"ERC20/ERC20.sol\":12868:12992  function _afterTokenTransfer(\r... */\n    tag_225:\n      pop\n      pop\n      pop\n      jump\t// out\n        /* \"#utility.yul\":7:146   */\n    tag_272:\n        /* \"#utility.yul\":53:58   */\n      0x00\n        /* \"#utility.yul\":91:97   */\n      dup2\n        /* \"#utility.yul\":78:98   */\n      calldataload\n        /* \"#utility.yul\":69:98   */\n      swap1\n      pop\n        /* \"#utility.yul\":107:140   */\n      tag_274\n        /* \"#utility.yul\":134:139   */\n      dup2\n        /* \"#utility.yul\":107:140   */\n      tag_275\n      jump\t// in\n    tag_274:\n        /* \"#utility.yul\":59:146   */\n      swap3\n      swap2\n      pop\n      pop\n      jump\t// out\n        /* \"#utility.yul\":152:291   */\n    tag_276:\n        /* \"#utility.yul\":198:203   */\n      0x00\n        /* \"#utility.yul\":236:242   */\n      dup2\n        /* \"#utility.yul\":223:243   */\n      calldataload\n        /* \"#utility.yul\":214:243   */\n      swap1\n      pop\n        /* \"#utility.yul\":252:285   */\n      tag_278\n        /* \"#utility.yul\":279:284   */\n      dup2\n        /* \"#utility.yul\":252:285   */\n      tag_279\n      jump\t// in\n    tag_278:\n        /* \"#utility.yul\":204:291   */\n      swap3\n      swap2\n      pop\n      pop\n      jump\t// out\n        /* \"#utility.yul\":297:559   */\n    tag_67:\n        /* \"#utility.yul\":356:362   */\n      0x00\n        /* \"#utility.yul\":405:407   */\n      0x20\n        /* \"#utility.yul\":393:402   */\n      dup3\n        /* \"#utility.yul\":384:391   */\n      dup5\n        /* \"#utility.yul\":380:403   */\n      sub\n        /* \"#utility.yul\":376:408   */\n      slt\n        /* \"#utility.yul\":373:375   */\n      iszero\n      tag_281\n      jumpi\n        /* \"#utility.yul\":421:422   */\n      0x00\n        /* \"#utility.yul\":418:419   */\n      dup1\n        /* \"#utility.yul\":411:423   */\n      revert\n        /* \"#utility.yul\":373:375   */\n    tag_281:\n        /* \"#utility.yul\":464:465   */\n      0x00\n        /* \"#utility.yul\":489:542   */\n      tag_282\n        /* \"#utility.yul\":534:541   */\n      dup5\n        /* \"#utility.yul\":525:531   */\n      dup3\n        /* \"#utility.yul\":514:523   */\n      dup6\n        /* \"#utility.yul\":510:532   */\n      add\n        /* \"#utility.yul\":489:542   */\n      tag_272\n      jump\t// in\n    tag_282:\n        /* \"#utility.yul\":479:542   */\n      swap2\n      pop\n        /* \"#utility.yul\":435:552   */\n      pop\n        /* \"#utility.yul\":363:559   */\n      swap3\n      swap2\n      pop\n      pop\n      jump\t// out\n        /* \"#utility.yul\":565:972   */\n    tag_94:\n        /* \"#utility.yul\":633:639   */\n      0x00\n        /* \"#utility.yul\":641:647   */\n      dup1\n        /* \"#utility.yul\":690:692   */\n      0x40\n        /* \"#utility.yul\":678:687   */\n      dup4\n        /* \"#utility.yul\":669:676   */\n      dup6\n        /* \"#utility.yul\":665:688   */\n      sub\n        /* \"#utility.yul\":661:693   */\n      slt\n        /* \"#utility.yul\":658:660   */\n      iszero\n      tag_284\n      jumpi\n        /* \"#utility.yul\":706:707   */\n      0x00\n        /* \"#utility.yul\":703:704   */\n      dup1\n        /* \"#utility.yul\":696:708   */\n      revert\n        /* \"#utility.yul\":658:660   */\n    tag_284:\n        /* \"#utility.yul\":749:750   */\n      0x00\n        /* \"#utility.yul\":774:827   */\n      tag_285\n        /* \"#utility.yul\":819:826   */\n      dup6\n        /* \"#utility.yul\":810:816   */\n      dup3\n        /* \"#utility.yul\":799:808   */\n      dup7\n        /* \"#utility.yul\":795:817   */\n      add\n        /* \"#utility.yul\":774:827   */\n      tag_272\n      jump\t// in\n    tag_285:\n        /* \"#utility.yul\":764:827   */\n      swap3\n      pop\n        /* \"#utility.yul\":720:837   */\n      pop\n        /* \"#utility.yul\":876:878   */\n      0x20\n        /* \"#utility.yul\":902:955   */\n      tag_286\n        /* \"#utility.yul\":947:954   */\n      dup6\n        /* \"#utility.yul\":938:944   */\n      dup3\n        /* \"#utility.yul\":927:936   */\n      dup7\n        /* \"#utility.yul\":923:945   */\n      add\n        /* \"#utility.yul\":902:955   */\n      tag_272\n      jump\t// in\n    tag_286:\n        /* \"#utility.yul\":892:955   */\n      swap2\n      pop\n        /* \"#utility.yul\":847:965   */\n      pop\n        /* \"#utility.yul\":648:972   */\n      swap3\n      pop\n      swap3\n      swap1\n      pop\n      jump\t// out\n        /* \"#utility.yul\":978:1530   */\n    tag_42:\n        /* \"#utility.yul\":1055:1061   */\n      0x00\n        /* \"#utility.yul\":1063:1069   */\n      dup1\n        /* \"#utility.yul\":1071:1077   */\n      0x00\n        /* \"#utility.yul\":1120:1122   */\n      0x60\n        /* \"#utility.yul\":1108:1117   */\n      dup5\n        /* \"#utility.yul\":1099:1106   */\n      dup7\n        /* \"#utility.yul\":1095:1118   */\n      sub\n        /* \"#utility.yul\":1091:1123   */\n      slt\n        /* \"#utility.yul\":1088:1090   */\n      iszero\n      tag_288\n      jumpi\n        /* \"#utility.yul\":1136:1137   */\n      0x00\n        /* \"#utility.yul\":1133:1134   */\n      dup1\n        /* \"#utility.yul\":1126:1138   */\n      revert\n        /* \"#utility.yul\":1088:1090   */\n    tag_288:\n        /* \"#utility.yul\":1179:1180   */\n      0x00\n        /* \"#utility.yul\":1204:1257   */\n      tag_289\n        /* \"#utility.yul\":1249:1256   */\n      dup7\n        /* \"#utility.yul\":1240:1246   */\n      dup3\n        /* \"#utility.yul\":1229:1238   */\n      dup8\n        /* \"#utility.yul\":1225:1247   */\n      add\n        /* \"#utility.yul\":1204:1257   */\n      tag_272\n      jump\t// in\n    tag_289:\n        /* \"#utility.yul\":1194:1257   */\n      swap4\n      pop\n        /* \"#utility.yul\":1150:1267   */\n      pop\n        /* \"#utility.yul\":1306:1308   */\n      0x20\n        /* \"#utility.yul\":1332:1385   */\n      tag_290\n        /* \"#utility.yul\":1377:1384   */\n      dup7\n        /* \"#utility.yul\":1368:1374   */\n      dup3\n        /* \"#utility.yul\":1357:1366   */\n      dup8\n        /* \"#utility.yul\":1353:1375   */\n      add\n        /* \"#utility.yul\":1332:1385   */\n      tag_272\n      jump\t// in\n    tag_290:\n        /* \"#utility.yul\":1322:1385   */\n      swap3\n      pop\n        /* \"#utility.yul\":1277:1395   */\n      pop\n        /* \"#utility.yul\":1434:1436   */\n      0x40\n        /* \"#utility.yul\":1460:1513   */\n      tag_291\n        /* \"#utility.yul\":1505:1512   */\n      dup7\n        /* \"#utility.yul\":1496:1502   */\n      dup3\n        /* \"#utility.yul\":1485:1494   */\n      dup8\n        /* \"#utility.yul\":1481:1503   */\n      add\n        /* \"#utility.yul\":1460:1513   */\n      tag_276\n      jump\t// in\n    tag_291:\n        /* \"#utility.yul\":1450:1513   */\n      swap2\n      pop\n        /* \"#utility.yul\":1405:1523   */\n      pop\n        /* \"#utility.yul\":1078:1530   */\n      swap3\n      pop\n      swap3\n      pop\n      swap3\n      jump\t// out\n        /* \"#utility.yul\":1536:1943   */\n    tag_32:\n        /* \"#utility.yul\":1604:1610   */\n      0x00\n        /* \"#utility.yul\":1612:1618   */\n      dup1\n        /* \"#utility.yul\":1661:1663   */\n      0x40\n        /* \"#utility.yul\":1649:1658   */\n      dup4\n        /* \"#utility.yul\":1640:1647   */\n      dup6\n        /* \"#utility.yul\":1636:1659   */\n      sub\n        /* \"#utility.yul\":1632:1664   */\n      slt\n        /* \"#utility.yul\":1629:1631   */\n      iszero\n      tag_293\n      jumpi\n        /* \"#utility.yul\":1677:1678   */\n      0x00\n        /* \"#utility.yul\":1674:1675   */\n      dup1\n        /* \"#utility.yul\":1667:1679   */\n      revert\n        /* \"#utility.yul\":1629:1631   */\n    tag_293:\n        /* \"#utility.yul\":1720:1721   */\n      0x00\n        /* \"#utility.yul\":1745:1798   */\n      tag_294\n        /* \"#utility.yul\":1790:1797   */\n      dup6\n        /* \"#utility.yul\":1781:1787   */\n      dup3\n        /* \"#utility.yul\":1770:1779   */\n      dup7\n        /* \"#utility.yul\":1766:1788   */\n      add\n        /* \"#utility.yul\":1745:1798   */\n      tag_272\n      jump\t// in\n    tag_294:\n        /* \"#utility.yul\":1735:1798   */\n      swap3\n      pop\n        /* \"#utility.yul\":1691:1808   */\n      pop\n        /* \"#utility.yul\":1847:1849   */\n      0x20\n        /* \"#utility.yul\":1873:1926   */\n      tag_295\n        /* \"#utility.yul\":1918:1925   */\n      dup6\n        /* \"#utility.yul\":1909:1915   */\n      dup3\n        /* \"#utility.yul\":1898:1907   */\n      dup7\n        /* \"#utility.yul\":1894:1916   */\n      add\n        /* \"#utility.yul\":1873:1926   */\n      tag_276\n      jump\t// in\n    tag_295:\n        /* \"#utility.yul\":1863:1926   */\n      swap2\n      pop\n        /* \"#utility.yul\":1818:1936   */\n      pop\n        /* \"#utility.yul\":1619:1943   */\n      swap3\n      pop\n      swap3\n      swap1\n      pop\n      jump\t// out\n        /* \"#utility.yul\":1949:2211   */\n    tag_60:\n        /* \"#utility.yul\":2008:2014   */\n      0x00\n        /* \"#utility.yul\":2057:2059   */\n      0x20\n        /* \"#utility.yul\":2045:2054   */\n      dup3\n        /* \"#utility.yul\":2036:2043   */\n      dup5\n        /* \"#utility.yul\":2032:2055   */\n      sub\n        /* \"#utility.yul\":2028:2060   */\n      slt\n        /* \"#utility.yul\":2025:2027   */\n      iszero\n      tag_297\n      jumpi\n        /* \"#utility.yul\":2073:2074   */\n      0x00\n        /* \"#utility.yul\":2070:2071   */\n      dup1\n        /* \"#utility.yul\":2063:2075   */\n      revert\n        /* \"#utility.yul\":2025:2027   */\n    tag_297:\n        /* \"#utility.yul\":2116:2117   */\n      0x00\n        /* \"#utility.yul\":2141:2194   */\n      tag_298\n        /* \"#utility.yul\":2186:2193   */\n      dup5\n        /* \"#utility.yul\":2177:2183   */\n      dup3\n        /* \"#utility.yul\":2166:2175   */\n      dup6\n        /* \"#utility.yul\":2162:2184   */\n      add\n        /* \"#utility.yul\":2141:2194   */\n      tag_276\n      jump\t// in\n    tag_298:\n        /* \"#utility.yul\":2131:2194   */\n      swap2\n      pop\n        /* \"#utility.yul\":2087:2204   */\n      pop\n        /* \"#utility.yul\":2015:2211   */\n      swap3\n      swap2\n      pop\n      pop\n      jump\t// out\n        /* \"#utility.yul\":2217:2335   */\n    tag_299:\n        /* \"#utility.yul\":2304:2328   */\n      tag_301\n        /* \"#utility.yul\":2322:2327   */\n      dup2\n        /* \"#utility.yul\":2304:2328   */\n      tag_302\n      jump\t// in\n    tag_301:\n        /* \"#utility.yul\":2299:2302   */\n      dup3\n        /* \"#utility.yul\":2292:2329   */\n      mstore\n        /* \"#utility.yul\":2282:2335   */\n      pop\n      pop\n      jump\t// out\n        /* \"#utility.yul\":2341:2450   */\n    tag_303:\n        /* \"#utility.yul\":2422:2443   */\n      tag_305\n        /* \"#utility.yul\":2437:2442   */\n      dup2\n        /* \"#utility.yul\":2422:2443   */\n      tag_306\n      jump\t// in\n    tag_305:\n        /* \"#utility.yul\":2417:2420   */\n      dup3\n        /* \"#utility.yul\":2410:2444   */\n      mstore\n        /* \"#utility.yul\":2400:2450   */\n      pop\n      pop\n      jump\t// out\n        /* \"#utility.yul\":2456:2820   */\n    tag_307:\n        /* \"#utility.yul\":2544:2547   */\n      0x00\n        /* \"#utility.yul\":2572:2611   */\n      tag_309\n        /* \"#utility.yul\":2605:2610   */\n      dup3\n        /* \"#utility.yul\":2572:2611   */\n      tag_310\n      jump\t// in\n    tag_309:\n        /* \"#utility.yul\":2627:2698   */\n      tag_311\n        /* \"#utility.yul\":2691:2697   */\n      dup2\n        /* \"#utility.yul\":2686:2689   */\n      dup6\n        /* \"#utility.yul\":2627:2698   */\n      tag_312\n      jump\t// in\n    tag_311:\n        /* \"#utility.yul\":2620:2698   */\n      swap4\n      pop\n        /* \"#utility.yul\":2707:2759   */\n      tag_313\n        /* \"#utility.yul\":2752:2758   */\n      dup2\n        /* \"#utility.yul\":2747:2750   */\n      dup6\n        /* \"#utility.yul\":2740:2744   */\n      0x20\n        /* \"#utility.yul\":2733:2738   */\n      dup7\n        /* \"#utility.yul\":2729:2745   */\n      add\n        /* \"#utility.yul\":2707:2759   */\n      tag_314\n      jump\t// in\n    tag_313:\n        /* \"#utility.yul\":2784:2813   */\n      tag_315\n        /* \"#utility.yul\":2806:2812   */\n      dup2\n        /* \"#utility.yul\":2784:2813   */\n      tag_316\n      jump\t// in\n    tag_315:\n        /* \"#utility.yul\":2779:2782   */\n      dup5\n        /* \"#utility.yul\":2775:2814   */\n      add\n        /* \"#utility.yul\":2768:2814   */\n      swap2\n      pop\n        /* \"#utility.yul\":2548:2820   */\n      pop\n      swap3\n      swap2\n      pop\n      pop\n      jump\t// out\n        /* \"#utility.yul\":2826:3192   */\n    tag_317:\n        /* \"#utility.yul\":2968:2971   */\n      0x00\n        /* \"#utility.yul\":2989:3056   */\n      tag_319\n        /* \"#utility.yul\":3053:3055   */\n      0x23\n        /* \"#utility.yul\":3048:3051   */\n      dup4\n        /* \"#utility.yul\":2989:3056   */\n      tag_312\n      jump\t// in\n    tag_319:\n        /* \"#utility.yul\":2982:3056   */\n      swap2\n      pop\n        /* \"#utility.yul\":3065:3158   */\n      tag_320\n        /* \"#utility.yul\":3154:3157   */\n      dup3\n        /* \"#utility.yul\":3065:3158   */\n      tag_321\n      jump\t// in\n    tag_320:\n        /* \"#utility.yul\":3183:3185   */\n      0x40\n        /* \"#utility.yul\":3178:3181   */\n      dup3\n        /* \"#utility.yul\":3174:3186   */\n      add\n        /* \"#utility.yul\":3167:3186   */\n      swap1\n      pop\n        /* \"#utility.yul\":2972:3192   */\n      swap2\n      swap1\n      pop\n      jump\t// out\n        /* \"#utility.yul\":3198:3564   */\n    tag_322:\n        /* \"#utility.yul\":3340:3343   */\n      0x00\n        /* \"#utility.yul\":3361:3428   */\n      tag_324\n        /* \"#utility.yul\":3425:3427   */\n      0x14\n        /* \"#utility.yul\":3420:3423   */\n      dup4\n        /* \"#utility.yul\":3361:3428   */\n      tag_312\n      jump\t// in\n    tag_324:\n        /* \"#utility.yul\":3354:3428   */\n      swap2\n      pop\n        /* \"#utility.yul\":3437:3530   */\n      tag_325\n        /* \"#utility.yul\":3526:3529   */\n      dup3\n        /* \"#utility.yul\":3437:3530   */\n      tag_326\n      jump\t// in\n    tag_325:\n        /* \"#utility.yul\":3555:3557   */\n      0x20\n        /* \"#utility.yul\":3550:3553   */\n      dup3\n        /* \"#utility.yul\":3546:3558   */\n      add\n        /* \"#utility.yul\":3539:3558   */\n      swap1\n      pop\n        /* \"#utility.yul\":3344:3564   */\n      swap2\n      swap1\n      pop\n      jump\t// out\n        /* \"#utility.yul\":3570:3936   */\n    tag_327:\n        /* \"#utility.yul\":3712:3715   */\n      0x00\n        /* \"#utility.yul\":3733:3800   */\n      tag_329\n        /* \"#utility.yul\":3797:3799   */\n      0x22\n        /* \"#utility.yul\":3792:3795   */\n      dup4\n        /* \"#utility.yul\":3733:3800   */\n      tag_312\n      jump\t// in\n    tag_329:\n        /* \"#utility.yul\":3726:3800   */\n      swap2\n      pop\n        /* \"#utility.yul\":3809:3902   */\n      tag_330\n        /* \"#utility.yul\":3898:3901   */\n      dup3\n        /* \"#utility.yul\":3809:3902   */\n      tag_331\n      jump\t// in\n    tag_330:\n        /* \"#utility.yul\":3927:3929   */\n      0x40\n        /* \"#utility.yul\":3922:3925   */\n      dup3\n        /* \"#utility.yul\":3918:3930   */\n      add\n        /* \"#utility.yul\":3911:3930   */\n      swap1\n      pop\n        /* \"#utility.yul\":3716:3936   */\n      swap2\n      swap1\n      pop\n      jump\t// out\n        /* \"#utility.yul\":3942:4308   */\n    tag_332:\n        /* \"#utility.yul\":4084:4087   */\n      0x00\n        /* \"#utility.yul\":4105:4172   */\n      tag_334\n        /* \"#utility.yul\":4169:4171   */\n      0x26\n        /* \"#utility.yul\":4164:4167   */\n      dup4\n        /* \"#utility.yul\":4105:4172   */\n      tag_312\n      jump\t// in\n    tag_334:\n        /* \"#utility.yul\":4098:4172   */\n      swap2\n      pop\n        /* \"#utility.yul\":4181:4274   */\n      tag_335\n        /* \"#utility.yul\":4270:4273   */\n      dup3\n        /* \"#utility.yul\":4181:4274   */\n      tag_336\n      jump\t// in\n    tag_335:\n        /* \"#utility.yul\":4299:4301   */\n      0x40\n        /* \"#utility.yul\":4294:4297   */\n      dup3\n        /* \"#utility.yul\":4290:4302   */\n      add\n        /* \"#utility.yul\":4283:4302   */\n      swap1\n      pop\n        /* \"#utility.yul\":4088:4308   */\n      swap2\n      swap1\n      pop\n      jump\t// out\n        /* \"#utility.yul\":4314:4680   */\n    tag_337:\n        /* \"#utility.yul\":4456:4459   */\n      0x00\n        /* \"#utility.yul\":4477:4544   */\n      tag_339\n        /* \"#utility.yul\":4541:4543   */\n      0x22\n        /* \"#utility.yul\":4536:4539   */\n      dup4\n        /* \"#utility.yul\":4477:4544   */\n      tag_312\n      jump\t// in\n    tag_339:\n        /* \"#utility.yul\":4470:4544   */\n      swap2\n      pop\n        /* \"#utility.yul\":4553:4646   */\n      tag_340\n        /* \"#utility.yul\":4642:4645   */\n      dup3\n        /* \"#utility.yul\":4553:4646   */\n      tag_341\n      jump\t// in\n    tag_340:\n        /* \"#utility.yul\":4671:4673   */\n      0x40\n        /* \"#utility.yul\":4666:4669   */\n      dup3\n        /* \"#utility.yul\":4662:4674   */\n      add\n        /* \"#utility.yul\":4655:4674   */\n      swap1\n      pop\n        /* \"#utility.yul\":4460:4680   */\n      swap2\n      swap1\n      pop\n      jump\t// out\n        /* \"#utility.yul\":4686:5052   */\n    tag_342:\n        /* \"#utility.yul\":4828:4831   */\n      0x00\n        /* \"#utility.yul\":4849:4916   */\n      tag_344\n        /* \"#utility.yul\":4913:4915   */\n      0x1d\n        /* \"#utility.yul\":4908:4911   */\n      dup4\n        /* \"#utility.yul\":4849:4916   */\n      tag_312\n      jump\t// in\n    tag_344:\n        /* \"#utility.yul\":4842:4916   */\n      swap2\n      pop\n        /* \"#utility.yul\":4925:5018   */\n      tag_345\n        /* \"#utility.yul\":5014:5017   */\n      dup3\n        /* \"#utility.yul\":4925:5018   */\n      tag_346\n      jump\t// in\n    tag_345:\n        /* \"#utility.yul\":5043:5045   */\n      0x20\n        /* \"#utility.yul\":5038:5041   */\n      dup3\n        /* \"#utility.yul\":5034:5046   */\n      add\n        /* \"#utility.yul\":5027:5046   */\n      swap1\n      pop\n        /* \"#utility.yul\":4832:5052   */\n      swap2\n      swap1\n      pop\n      jump\t// out\n        /* \"#utility.yul\":5058:5424   */\n    tag_347:\n        /* \"#utility.yul\":5200:5203   */\n      0x00\n        /* \"#utility.yul\":5221:5288   */\n      tag_349\n        /* \"#utility.yul\":5285:5287   */\n      0x26\n        /* \"#utility.yul\":5280:5283   */\n      dup4\n        /* \"#utility.yul\":5221:5288   */\n      tag_312\n      jump\t// in\n    tag_349:\n        /* \"#utility.yul\":5214:5288   */\n      swap2\n      pop\n        /* \"#utility.yul\":5297:5390   */\n      tag_350\n        /* \"#utility.yul\":5386:5389   */\n      dup3\n        /* \"#utility.yul\":5297:5390   */\n      tag_351\n      jump\t// in\n    tag_350:\n        /* \"#utility.yul\":5415:5417   */\n      0x40\n        /* \"#utility.yul\":5410:5413   */\n      dup3\n        /* \"#utility.yul\":5406:5418   */\n      add\n        /* \"#utility.yul\":5399:5418   */\n      swap1\n      pop\n        /* \"#utility.yul\":5204:5424   */\n      swap2\n      swap1\n      pop\n      jump\t// out\n        /* \"#utility.yul\":5430:5796   */\n    tag_352:\n        /* \"#utility.yul\":5572:5575   */\n      0x00\n        /* \"#utility.yul\":5593:5660   */\n      tag_354\n        /* \"#utility.yul\":5657:5659   */\n      0x10\n        /* \"#utility.yul\":5652:5655   */\n      dup4\n        /* \"#utility.yul\":5593:5660   */\n      tag_312\n      jump\t// in\n    tag_354:\n        /* \"#utility.yul\":5586:5660   */\n      swap2\n      pop\n        /* \"#utility.yul\":5669:5762   */\n      tag_355\n        /* \"#utility.yul\":5758:5761   */\n      dup3\n        /* \"#utility.yul\":5669:5762   */\n      tag_356\n      jump\t// in\n    tag_355:\n        /* \"#utility.yul\":5787:5789   */\n      0x20\n        /* \"#utility.yul\":5782:5785   */\n      dup3\n        /* \"#utility.yul\":5778:5790   */\n      add\n        /* \"#utility.yul\":5771:5790   */\n      swap1\n      pop\n        /* \"#utility.yul\":5576:5796   */\n      swap2\n      swap1\n      pop\n      jump\t// out\n        /* \"#utility.yul\":5802:6168   */\n    tag_357:\n        /* \"#utility.yul\":5944:5947   */\n      0x00\n        /* \"#utility.yul\":5965:6032   */\n      tag_359\n        /* \"#utility.yul\":6029:6031   */\n      0x20\n        /* \"#utility.yul\":6024:6027   */\n      dup4\n        /* \"#utility.yul\":5965:6032   */\n      tag_312\n      jump\t// in\n    tag_359:\n        /* \"#utility.yul\":5958:6032   */\n      swap2\n      pop\n        /* \"#utility.yul\":6041:6134   */\n      tag_360\n        /* \"#utility.yul\":6130:6133   */\n      dup3\n        /* \"#utility.yul\":6041:6134   */\n      tag_361\n      jump\t// in\n    tag_360:\n        /* \"#utility.yul\":6159:6161   */\n      0x20\n        /* \"#utility.yul\":6154:6157   */\n      dup3\n        /* \"#utility.yul\":6150:6162   */\n      add\n        /* \"#utility.yul\":6143:6162   */\n      swap1\n      pop\n        /* \"#utility.yul\":5948:6168   */\n      swap2\n      swap1\n      pop\n      jump\t// out\n        /* \"#utility.yul\":6174:6540   */\n    tag_362:\n        /* \"#utility.yul\":6316:6319   */\n      0x00\n        /* \"#utility.yul\":6337:6404   */\n      tag_364\n        /* \"#utility.yul\":6401:6403   */\n      0x21\n        /* \"#utility.yul\":6396:6399   */\n      dup4\n        /* \"#utility.yul\":6337:6404   */\n      tag_312\n      jump\t// in\n    tag_364:\n        /* \"#utility.yul\":6330:6404   */\n      swap2\n      pop\n        /* \"#utility.yul\":6413:6506   */\n      tag_365\n        /* \"#utility.yul\":6502:6505   */\n      dup3\n        /* \"#utility.yul\":6413:6506   */\n      tag_366\n      jump\t// in\n    tag_365:\n        /* \"#utility.yul\":6531:6533   */\n      0x40\n        /* \"#utility.yul\":6526:6529   */\n      dup3\n        /* \"#utility.yul\":6522:6534   */\n      add\n        /* \"#utility.yul\":6515:6534   */\n      swap1\n      pop\n        /* \"#utility.yul\":6320:6540   */\n      swap2\n      swap1\n      pop\n      jump\t// out\n        /* \"#utility.yul\":6546:6912   */\n    tag_367:\n        /* \"#utility.yul\":6688:6691   */\n      0x00\n        /* \"#utility.yul\":6709:6776   */\n      tag_369\n        /* \"#utility.yul\":6773:6775   */\n      0x25\n        /* \"#utility.yul\":6768:6771   */\n      dup4\n        /* \"#utility.yul\":6709:6776   */\n      tag_312\n      jump\t// in\n    tag_369:\n        /* \"#utility.yul\":6702:6776   */\n      swap2\n      pop\n        /* \"#utility.yul\":6785:6878   */\n      tag_370\n        /* \"#utility.yul\":6874:6877   */\n      dup3\n        /* \"#utility.yul\":6785:6878   */\n      tag_371\n      jump\t// in\n    tag_370:\n        /* \"#utility.yul\":6903:6905   */\n      0x40\n        /* \"#utility.yul\":6898:6901   */\n      dup3\n        /* \"#utility.yul\":6894:6906   */\n      add\n        /* \"#utility.yul\":6887:6906   */\n      swap1\n      pop\n        /* \"#utility.yul\":6692:6912   */\n      swap2\n      swap1\n      pop\n      jump\t// out\n        /* \"#utility.yul\":6918:7284   */\n    tag_372:\n        /* \"#utility.yul\":7060:7063   */\n      0x00\n        /* \"#utility.yul\":7081:7148   */\n      tag_374\n        /* \"#utility.yul\":7145:7147   */\n      0x24\n        /* \"#utility.yul\":7140:7143   */\n      dup4\n        /* \"#utility.yul\":7081:7148   */\n      tag_312\n      jump\t// in\n    tag_374:\n        /* \"#utility.yul\":7074:7148   */\n      swap2\n      pop\n        /* \"#utility.yul\":7157:7250   */\n      tag_375\n        /* \"#utility.yul\":7246:7249   */\n      dup3\n        /* \"#utility.yul\":7157:7250   */\n      tag_376\n      jump\t// in\n    tag_375:\n        /* \"#utility.yul\":7275:7277   */\n      0x40\n        /* \"#utility.yul\":7270:7273   */\n      dup3\n        /* \"#utility.yul\":7266:7278   */\n      add\n        /* \"#utility.yul\":7259:7278   */\n      swap1\n      pop\n        /* \"#utility.yul\":7064:7284   */\n      swap2\n      swap1\n      pop\n      jump\t// out\n        /* \"#utility.yul\":7290:7656   */\n    tag_377:\n        /* \"#utility.yul\":7432:7435   */\n      0x00\n        /* \"#utility.yul\":7453:7520   */\n      tag_379\n        /* \"#utility.yul\":7517:7519   */\n      0x25\n        /* \"#utility.yul\":7512:7515   */\n      dup4\n        /* \"#utility.yul\":7453:7520   */\n      tag_312\n      jump\t// in\n    tag_379:\n        /* \"#utility.yul\":7446:7520   */\n      swap2\n      pop\n        /* \"#utility.yul\":7529:7622   */\n      tag_380\n        /* \"#utility.yul\":7618:7621   */\n      dup3\n        /* \"#utility.yul\":7529:7622   */\n      tag_381\n      jump\t// in\n    tag_380:\n        /* \"#utility.yul\":7647:7649   */\n      0x40\n        /* \"#utility.yul\":7642:7645   */\n      dup3\n        /* \"#utility.yul\":7638:7650   */\n      add\n        /* \"#utility.yul\":7631:7650   */\n      swap1\n      pop\n        /* \"#utility.yul\":7436:7656   */\n      swap2\n      swap1\n      pop\n      jump\t// out\n        /* \"#utility.yul\":7662:8028   */\n    tag_382:\n        /* \"#utility.yul\":7804:7807   */\n      0x00\n        /* \"#utility.yul\":7825:7892   */\n      tag_384\n        /* \"#utility.yul\":7889:7891   */\n      0x1f\n        /* \"#utility.yul\":7884:7887   */\n      dup4\n        /* \"#utility.yul\":7825:7892   */\n      tag_312\n      jump\t// in\n    tag_384:\n        /* \"#utility.yul\":7818:7892   */\n      swap2\n      pop\n        /* \"#utility.yul\":7901:7994   */\n      tag_385\n        /* \"#utility.yul\":7990:7993   */\n      dup3\n        /* \"#utility.yul\":7901:7994   */\n      tag_386\n      jump\t// in\n    tag_385:\n        /* \"#utility.yul\":8019:8021   */\n      0x20\n        /* \"#utility.yul\":8014:8017   */\n      dup3\n        /* \"#utility.yul\":8010:8022   */\n      add\n        /* \"#utility.yul\":8003:8022   */\n      swap1\n      pop\n        /* \"#utility.yul\":7808:8028   */\n      swap2\n      swap1\n      pop\n      jump\t// out\n        /* \"#utility.yul\":8034:8152   */\n    tag_387:\n        /* \"#utility.yul\":8121:8145   */\n      tag_389\n        /* \"#utility.yul\":8139:8144   */\n      dup2\n        /* \"#utility.yul\":8121:8145   */\n      tag_390\n      jump\t// in\n    tag_389:\n        /* \"#utility.yul\":8116:8119   */\n      dup3\n        /* \"#utility.yul\":8109:8146   */\n      mstore\n        /* \"#utility.yul\":8099:8152   */\n      pop\n      pop\n      jump\t// out\n        /* \"#utility.yul\":8158:8270   */\n    tag_391:\n        /* \"#utility.yul\":8241:8263   */\n      tag_393\n        /* \"#utility.yul\":8257:8262   */\n      dup2\n        /* \"#utility.yul\":8241:8263   */\n      tag_394\n      jump\t// in\n    tag_393:\n        /* \"#utility.yul\":8236:8239   */\n      dup3\n        /* \"#utility.yul\":8229:8264   */\n      mstore\n        /* \"#utility.yul\":8219:8270   */\n      pop\n      pop\n      jump\t// out\n        /* \"#utility.yul\":8276:8498   */\n    tag_80:\n        /* \"#utility.yul\":8369:8373   */\n      0x00\n        /* \"#utility.yul\":8407:8409   */\n      0x20\n        /* \"#utility.yul\":8396:8405   */\n      dup3\n        /* \"#utility.yul\":8392:8410   */\n      add\n        /* \"#utility.yul\":8384:8410   */\n      swap1\n      pop\n        /* \"#utility.yul\":8420:8491   */\n      tag_396\n        /* \"#utility.yul\":8488:8489   */\n      0x00\n        /* \"#utility.yul\":8477:8486   */\n      dup4\n        /* \"#utility.yul\":8473:8490   */\n      add\n        /* \"#utility.yul\":8464:8470   */\n      dup5\n        /* \"#utility.yul\":8420:8491   */\n      tag_299\n      jump\t// in\n    tag_396:\n        /* \"#utility.yul\":8374:8498   */\n      swap3\n      swap2\n      pop\n      pop\n      jump\t// out\n        /* \"#utility.yul\":8504:8714   */\n    tag_35:\n        /* \"#utility.yul\":8591:8595   */\n      0x00\n        /* \"#utility.yul\":8629:8631   */\n      0x20\n        /* \"#utility.yul\":8618:8627   */\n      dup3\n        /* \"#utility.yul\":8614:8632   */\n      add\n        /* \"#utility.yul\":8606:8632   */\n      swap1\n      pop\n        /* \"#utility.yul\":8642:8707   */\n      tag_398\n        /* \"#utility.yul\":8704:8705   */\n      0x00\n        /* \"#utility.yul\":8693:8702   */\n      dup4\n        /* \"#utility.yul\":8689:8706   */\n      add\n        /* \"#utility.yul\":8680:8686   */\n      dup5\n        /* \"#utility.yul\":8642:8707   */\n      tag_303\n      jump\t// in\n    tag_398:\n        /* \"#utility.yul\":8596:8714   */\n      swap3\n      swap2\n      pop\n      pop\n      jump\t// out\n        /* \"#utility.yul\":8720:9033   */\n    tag_29:\n        /* \"#utility.yul\":8833:8837   */\n      0x00\n        /* \"#utility.yul\":8871:8873   */\n      0x20\n        /* \"#utility.yul\":8860:8869   */\n      dup3\n        /* \"#utility.yul\":8856:8874   */\n      add\n        /* \"#utility.yul\":8848:8874   */\n      swap1\n      pop\n        /* \"#utility.yul\":8920:8929   */\n      dup2\n        /* \"#utility.yul\":8914:8918   */\n      dup2\n        /* \"#utility.yul\":8910:8930   */\n      sub\n        /* \"#utility.yul\":8906:8907   */\n      0x00\n        /* \"#utility.yul\":8895:8904   */\n      dup4\n        /* \"#utility.yul\":8891:8908   */\n      add\n        /* \"#utility.yul\":8884:8931   */\n      mstore\n        /* \"#utility.yul\":8948:9026   */\n      tag_400\n        /* \"#utility.yul\":9021:9025   */\n      dup2\n        /* \"#utility.yul\":9012:9018   */\n      dup5\n        /* \"#utility.yul\":8948:9026   */\n      tag_307\n      jump\t// in\n    tag_400:\n        /* \"#utility.yul\":8940:9026   */\n      swap1\n      pop\n        /* \"#utility.yul\":8838:9033   */\n      swap3\n      swap2\n      pop\n      pop\n      jump\t// out\n        /* \"#utility.yul\":9039:9458   */\n    tag_216:\n        /* \"#utility.yul\":9205:9209   */\n      0x00\n        /* \"#utility.yul\":9243:9245   */\n      0x20\n        /* \"#utility.yul\":9232:9241   */\n      dup3\n        /* \"#utility.yul\":9228:9246   */\n      add\n        /* \"#utility.yul\":9220:9246   */\n      swap1\n      pop\n        /* \"#utility.yul\":9292:9301   */\n      dup2\n        /* \"#utility.yul\":9286:9290   */\n      dup2\n        /* \"#utility.yul\":9282:9302   */\n      sub\n        /* \"#utility.yul\":9278:9279   */\n      0x00\n        /* \"#utility.yul\":9267:9276   */\n      dup4\n        /* \"#utility.yul\":9263:9280   */\n      add\n        /* \"#utility.yul\":9256:9303   */\n      mstore\n        /* \"#utility.yul\":9320:9451   */\n      tag_402\n        /* \"#utility.yul\":9446:9450   */\n      dup2\n        /* \"#utility.yul\":9320:9451   */\n      tag_317\n      jump\t// in\n    tag_402:\n        /* \"#utility.yul\":9312:9451   */\n      swap1\n      pop\n        /* \"#utility.yul\":9210:9458   */\n      swap2\n      swap1\n      pop\n      jump\t// out\n        /* \"#utility.yul\":9464:9883   */\n    tag_230:\n        /* \"#utility.yul\":9630:9634   */\n      0x00\n        /* \"#utility.yul\":9668:9670   */\n      0x20\n        /* \"#utility.yul\":9657:9666   */\n      dup3\n        /* \"#utility.yul\":9653:9671   */\n      add\n        /* \"#utility.yul\":9645:9671   */\n      swap1\n      pop\n        /* \"#utility.yul\":9717:9726   */\n      dup2\n        /* \"#utility.yul\":9711:9715   */\n      dup2\n        /* \"#utility.yul\":9707:9727   */\n      sub\n        /* \"#utility.yul\":9703:9704   */\n      0x00\n        /* \"#utility.yul\":9692:9701   */\n      dup4\n        /* \"#utility.yul\":9688:9705   */\n      add\n        /* \"#utility.yul\":9681:9728   */\n      mstore\n        /* \"#utility.yul\":9745:9876   */\n      tag_404\n        /* \"#utility.yul\":9871:9875   */\n      dup2\n        /* \"#utility.yul\":9745:9876   */\n      tag_322\n      jump\t// in\n    tag_404:\n        /* \"#utility.yul\":9737:9876   */\n      swap1\n      pop\n        /* \"#utility.yul\":9635:9883   */\n      swap2\n      swap1\n      pop\n      jump\t// out\n        /* \"#utility.yul\":9889:10308   */\n    tag_250:\n        /* \"#utility.yul\":10055:10059   */\n      0x00\n        /* \"#utility.yul\":10093:10095   */\n      0x20\n        /* \"#utility.yul\":10082:10091   */\n      dup3\n        /* \"#utility.yul\":10078:10096   */\n      add\n        /* \"#utility.yul\":10070:10096   */\n      swap1\n      pop\n        /* \"#utility.yul\":10142:10151   */\n      dup2\n        /* \"#utility.yul\":10136:10140   */\n      dup2\n        /* \"#utility.yul\":10132:10152   */\n      sub\n        /* \"#utility.yul\":10128:10129   */\n      0x00\n        /* \"#utility.yul\":10117:10126   */\n      dup4\n        /* \"#utility.yul\":10113:10130   */\n      add\n        /* \"#utility.yul\":10106:10153   */\n      mstore\n        /* \"#utility.yul\":10170:10301   */\n      tag_406\n        /* \"#utility.yul\":10296:10300   */\n      dup2\n        /* \"#utility.yul\":10170:10301   */\n      tag_327\n      jump\t// in\n    tag_406:\n        /* \"#utility.yul\":10162:10301   */\n      swap1\n      pop\n        /* \"#utility.yul\":10060:10308   */\n      swap2\n      swap1\n      pop\n      jump\t// out\n        /* \"#utility.yul\":10314:10733   */\n    tag_191:\n        /* \"#utility.yul\":10480:10484   */\n      0x00\n        /* \"#utility.yul\":10518:10520   */\n      0x20\n        /* \"#utility.yul\":10507:10516   */\n      dup3\n        /* \"#utility.yul\":10503:10521   */\n      add\n        /* \"#utility.yul\":10495:10521   */\n      swap1\n      pop\n        /* \"#utility.yul\":10567:10576   */\n      dup2\n        /* \"#utility.yul\":10561:10565   */\n      dup2\n        /* \"#utility.yul\":10557:10577   */\n      sub\n        /* \"#utility.yul\":10553:10554   */\n      0x00\n        /* \"#utility.yul\":10542:10551   */\n      dup4\n        /* \"#utility.yul\":10538:10555   */\n      add\n        /* \"#utility.yul\":10531:10578   */\n      mstore\n        /* \"#utility.yul\":10595:10726   */\n      tag_408\n        /* \"#utility.yul\":10721:10725   */\n      dup2\n        /* \"#utility.yul\":10595:10726   */\n      tag_332\n      jump\t// in\n    tag_408:\n        /* \"#utility.yul\":10587:10726   */\n      swap1\n      pop\n        /* \"#utility.yul\":10485:10733   */\n      swap2\n      swap1\n      pop\n      jump\t// out\n        /* \"#utility.yul\":10739:11158   */\n    tag_201:\n        /* \"#utility.yul\":10905:10909   */\n      0x00\n        /* \"#utility.yul\":10943:10945   */\n      0x20\n        /* \"#utility.yul\":10932:10941   */\n      dup3\n        /* \"#utility.yul\":10928:10946   */\n      add\n        /* \"#utility.yul\":10920:10946   */\n      swap1\n      pop\n        /* \"#utility.yul\":10992:11001   */\n      dup2\n        /* \"#utility.yul\":10986:10990   */\n      dup2\n        /* \"#utility.yul\":10982:11002   */\n      sub\n        /* \"#utility.yul\":10978:10979   */\n      0x00\n        /* \"#utility.yul\":10967:10976   */\n      dup4\n        /* \"#utility.yul\":10963:10980   */\n      add\n        /* \"#utility.yul\":10956:11003   */\n      mstore\n        /* \"#utility.yul\":11020:11151   */\n      tag_410\n        /* \"#utility.yul\":11146:11150   */\n      dup2\n        /* \"#utility.yul\":11020:11151   */\n      tag_337\n      jump\t// in\n    tag_410:\n        /* \"#utility.yul\":11012:11151   */\n      swap1\n      pop\n        /* \"#utility.yul\":10910:11158   */\n      swap2\n      swap1\n      pop\n      jump\t// out\n        /* \"#utility.yul\":11164:11583   */\n    tag_208:\n        /* \"#utility.yul\":11330:11334   */\n      0x00\n        /* \"#utility.yul\":11368:11370   */\n      0x20\n        /* \"#utility.yul\":11357:11366   */\n      dup3\n        /* \"#utility.yul\":11353:11371   */\n      add\n        /* \"#utility.yul\":11345:11371   */\n      swap1\n      pop\n        /* \"#utility.yul\":11417:11426   */\n      dup2\n        /* \"#utility.yul\":11411:11415   */\n      dup2\n        /* \"#utility.yul\":11407:11427   */\n      sub\n        /* \"#utility.yul\":11403:11404   */\n      0x00\n        /* \"#utility.yul\":11392:11401   */\n      dup4\n        /* \"#utility.yul\":11388:11405   */\n      add\n        /* \"#utility.yul\":11381:11428   */\n      mstore\n        /* \"#utility.yul\":11445:11576   */\n      tag_412\n        /* \"#utility.yul\":11571:11575   */\n      dup2\n        /* \"#utility.yul\":11445:11576   */\n      tag_342\n      jump\t// in\n    tag_412:\n        /* \"#utility.yul\":11437:11576   */\n      swap1\n      pop\n        /* \"#utility.yul\":11335:11583   */\n      swap2\n      swap1\n      pop\n      jump\t// out\n        /* \"#utility.yul\":11589:12008   */\n    tag_221:\n        /* \"#utility.yul\":11755:11759   */\n      0x00\n        /* \"#utility.yul\":11793:11795   */\n      0x20\n        /* \"#utility.yul\":11782:11791   */\n      dup3\n        /* \"#utility.yul\":11778:11796   */\n      add\n        /* \"#utility.yul\":11770:11796   */\n      swap1\n      pop\n        /* \"#utility.yul\":11842:11851   */\n      dup2\n        /* \"#utility.yul\":11836:11840   */\n      dup2\n        /* \"#utility.yul\":11832:11852   */\n      sub\n        /* \"#utility.yul\":11828:11829   */\n      0x00\n        /* \"#utility.yul\":11817:11826   */\n      dup4\n        /* \"#utility.yul\":11813:11830   */\n      add\n        /* \"#utility.yul\":11806:11853   */\n      mstore\n        /* \"#utility.yul\":11870:12001   */\n      tag_414\n        /* \"#utility.yul\":11996:12000   */\n      dup2\n        /* \"#utility.yul\":11870:12001   */\n      tag_347\n      jump\t// in\n    tag_414:\n        /* \"#utility.yul\":11862:12001   */\n      swap1\n      pop\n        /* \"#utility.yul\":11760:12008   */\n      swap2\n      swap1\n      pop\n      jump\t// out\n        /* \"#utility.yul\":12014:12433   */\n    tag_260:\n        /* \"#utility.yul\":12180:12184   */\n      0x00\n        /* \"#utility.yul\":12218:12220   */\n      0x20\n        /* \"#utility.yul\":12207:12216   */\n      dup3\n        /* \"#utility.yul\":12203:12221   */\n      add\n        /* \"#utility.yul\":12195:12221   */\n      swap1\n      pop\n        /* \"#utility.yul\":12267:12276   */\n      dup2\n        /* \"#utility.yul\":12261:12265   */\n      dup2\n        /* \"#utility.yul\":12257:12277   */\n      sub\n        /* \"#utility.yul\":12253:12254   */\n      0x00\n        /* \"#utility.yul\":12242:12251   */\n      dup4\n        /* \"#utility.yul\":12238:12255   */\n      add\n        /* \"#utility.yul\":12231:12278   */\n      mstore\n        /* \"#utility.yul\":12295:12426   */\n      tag_416\n        /* \"#utility.yul\":12421:12425   */\n      dup2\n        /* \"#utility.yul\":12295:12426   */\n      tag_352\n      jump\t// in\n    tag_416:\n        /* \"#utility.yul\":12287:12426   */\n      swap1\n      pop\n        /* \"#utility.yul\":12185:12433   */\n      swap2\n      swap1\n      pop\n      jump\t// out\n        /* \"#utility.yul\":12439:12858   */\n    tag_132:\n        /* \"#utility.yul\":12605:12609   */\n      0x00\n        /* \"#utility.yul\":12643:12645   */\n      0x20\n        /* \"#utility.yul\":12632:12641   */\n      dup3\n        /* \"#utility.yul\":12628:12646   */\n      add\n        /* \"#utility.yul\":12620:12646   */\n      swap1\n      pop\n        /* \"#utility.yul\":12692:12701   */\n      dup2\n        /* \"#utility.yul\":12686:12690   */\n      dup2\n        /* \"#utility.yul\":12682:12702   */\n      sub\n        /* \"#utility.yul\":12678:12679   */\n      0x00\n        /* \"#utility.yul\":12667:12676   */\n      dup4\n        /* \"#utility.yul\":12663:12680   */\n      add\n        /* \"#utility.yul\":12656:12703   */\n      mstore\n        /* \"#utility.yul\":12720:12851   */\n      tag_418\n        /* \"#utility.yul\":12846:12850   */\n      dup2\n        /* \"#utility.yul\":12720:12851   */\n      tag_357\n      jump\t// in\n    tag_418:\n        /* \"#utility.yul\":12712:12851   */\n      swap1\n      pop\n        /* \"#utility.yul\":12610:12858   */\n      swap2\n      swap1\n      pop\n      jump\t// out\n        /* \"#utility.yul\":12864:13283   */\n    tag_246:\n        /* \"#utility.yul\":13030:13034   */\n      0x00\n        /* \"#utility.yul\":13068:13070   */\n      0x20\n        /* \"#utility.yul\":13057:13066   */\n      dup3\n        /* \"#utility.yul\":13053:13071   */\n      add\n        /* \"#utility.yul\":13045:13071   */\n      swap1\n      pop\n        /* \"#utility.yul\":13117:13126   */\n      dup2\n        /* \"#utility.yul\":13111:13115   */\n      dup2\n        /* \"#utility.yul\":13107:13127   */\n      sub\n        /* \"#utility.yul\":13103:13104   */\n      0x00\n        /* \"#utility.yul\":13092:13101   */\n      dup4\n        /* \"#utility.yul\":13088:13105   */\n      add\n        /* \"#utility.yul\":13081:13128   */\n      mstore\n        /* \"#utility.yul\":13145:13276   */\n      tag_420\n        /* \"#utility.yul\":13271:13275   */\n      dup2\n        /* \"#utility.yul\":13145:13276   */\n      tag_362\n      jump\t// in\n    tag_420:\n        /* \"#utility.yul\":13137:13276   */\n      swap1\n      pop\n        /* \"#utility.yul\":13035:13283   */\n      swap2\n      swap1\n      pop\n      jump\t// out\n        /* \"#utility.yul\":13289:13708   */\n    tag_213:\n        /* \"#utility.yul\":13455:13459   */\n      0x00\n        /* \"#utility.yul\":13493:13495   */\n      0x20\n        /* \"#utility.yul\":13482:13491   */\n      dup3\n        /* \"#utility.yul\":13478:13496   */\n      add\n        /* \"#utility.yul\":13470:13496   */\n      swap1\n      pop\n        /* \"#utility.yul\":13542:13551   */\n      dup2\n        /* \"#utility.yul\":13536:13540   */\n      dup2\n        /* \"#utility.yul\":13532:13552   */\n      sub\n        /* \"#utility.yul\":13528:13529   */\n      0x00\n        /* \"#utility.yul\":13517:13526   */\n      dup4\n        /* \"#utility.yul\":13513:13530   */\n      add\n        /* \"#utility.yul\":13506:13553   */\n      mstore\n        /* \"#utility.yul\":13570:13701   */\n      tag_422\n        /* \"#utility.yul\":13696:13700   */\n      dup2\n        /* \"#utility.yul\":13570:13701   */\n      tag_367\n      jump\t// in\n    tag_422:\n        /* \"#utility.yul\":13562:13701   */\n      swap1\n      pop\n        /* \"#utility.yul\":13460:13708   */\n      swap2\n      swap1\n      pop\n      jump\t// out\n        /* \"#utility.yul\":13714:14133   */\n    tag_198:\n        /* \"#utility.yul\":13880:13884   */\n      0x00\n        /* \"#utility.yul\":13918:13920   */\n      0x20\n        /* \"#utility.yul\":13907:13916   */\n      dup3\n        /* \"#utility.yul\":13903:13921   */\n      add\n        /* \"#utility.yul\":13895:13921   */\n      swap1\n      pop\n        /* \"#utility.yul\":13967:13976   */\n      dup2\n        /* \"#utility.yul\":13961:13965   */\n      dup2\n        /* \"#utility.yul\":13957:13977   */\n      sub\n        /* \"#utility.yul\":13953:13954   */\n      0x00\n        /* \"#utility.yul\":13942:13951   */\n      dup4\n        /* \"#utility.yul\":13938:13955   */\n      add\n        /* \"#utility.yul\":13931:13978   */\n      mstore\n        /* \"#utility.yul\":13995:14126   */\n      tag_424\n        /* \"#utility.yul\":14121:14125   */\n      dup2\n        /* \"#utility.yul\":13995:14126   */\n      tag_372\n      jump\t// in\n    tag_424:\n        /* \"#utility.yul\":13987:14126   */\n      swap1\n      pop\n        /* \"#utility.yul\":13885:14133   */\n      swap2\n      swap1\n      pop\n      jump\t// out\n        /* \"#utility.yul\":14139:14558   */\n    tag_177:\n        /* \"#utility.yul\":14305:14309   */\n      0x00\n        /* \"#utility.yul\":14343:14345   */\n      0x20\n        /* \"#utility.yul\":14332:14341   */\n      dup3\n        /* \"#utility.yul\":14328:14346   */\n      add\n        /* \"#utility.yul\":14320:14346   */\n      swap1\n      pop\n        /* \"#utility.yul\":14392:14401   */\n      dup2\n        /* \"#utility.yul\":14386:14390   */\n      dup2\n        /* \"#utility.yul\":14382:14402   */\n      sub\n        /* \"#utility.yul\":14378:14379   */\n      0x00\n        /* \"#utility.yul\":14367:14376   */\n      dup4\n        /* \"#utility.yul\":14363:14380   */\n      add\n        /* \"#utility.yul\":14356:14403   */\n      mstore\n        /* \"#utility.yul\":14420:14551   */\n      tag_426\n        /* \"#utility.yul\":14546:14550   */\n      dup2\n        /* \"#utility.yul\":14420:14551   */\n      tag_377\n      jump\t// in\n    tag_426:\n        /* \"#utility.yul\":14412:14551   */\n      swap1\n      pop\n        /* \"#utility.yul\":14310:14558   */\n      swap2\n      swap1\n      pop\n      jump\t// out\n        /* \"#utility.yul\":14564:14983   */\n    tag_237:\n        /* \"#utility.yul\":14730:14734   */\n      0x00\n        /* \"#utility.yul\":14768:14770   */\n      0x20\n        /* \"#utility.yul\":14757:14766   */\n      dup3\n        /* \"#utility.yul\":14753:14771   */\n      add\n        /* \"#utility.yul\":14745:14771   */\n      swap1\n      pop\n        /* \"#utility.yul\":14817:14826   */\n      dup2\n        /* \"#utility.yul\":14811:14815   */\n      dup2\n        /* \"#utility.yul\":14807:14827   */\n      sub\n        /* \"#utility.yul\":14803:14804   */\n      0x00\n        /* \"#utility.yul\":14792:14801   */\n      dup4\n        /* \"#utility.yul\":14788:14805   */\n      add\n        /* \"#utility.yul\":14781:14828   */\n      mstore\n        /* \"#utility.yul\":14845:14976   */\n      tag_428\n        /* \"#utility.yul\":14971:14975   */\n      dup2\n        /* \"#utility.yul\":14845:14976   */\n      tag_382\n      jump\t// in\n    tag_428:\n        /* \"#utility.yul\":14837:14976   */\n      swap1\n      pop\n        /* \"#utility.yul\":14735:14983   */\n      swap2\n      swap1\n      pop\n      jump\t// out\n        /* \"#utility.yul\":14989:15211   */\n    tag_39:\n        /* \"#utility.yul\":15082:15086   */\n      0x00\n        /* \"#utility.yul\":15120:15122   */\n      0x20\n        /* \"#utility.yul\":15109:15118   */\n      dup3\n        /* \"#utility.yul\":15105:15123   */\n      add\n        /* \"#utility.yul\":15097:15123   */\n      swap1\n      pop\n        /* \"#utility.yul\":15133:15204   */\n      tag_430\n        /* \"#utility.yul\":15201:15202   */\n      0x00\n        /* \"#utility.yul\":15190:15199   */\n      dup4\n        /* \"#utility.yul\":15186:15203   */\n      add\n        /* \"#utility.yul\":15177:15183   */\n      dup5\n        /* \"#utility.yul\":15133:15204   */\n      tag_387\n      jump\t// in\n    tag_430:\n        /* \"#utility.yul\":15087:15211   */\n      swap3\n      swap2\n      pop\n      pop\n      jump\t// out\n        /* \"#utility.yul\":15217:15431   */\n    tag_48:\n        /* \"#utility.yul\":15306:15310   */\n      0x00\n        /* \"#utility.yul\":15344:15346   */\n      0x20\n        /* \"#utility.yul\":15333:15342   */\n      dup3\n        /* \"#utility.yul\":15329:15347   */\n      add\n        /* \"#utility.yul\":15321:15347   */\n      swap1\n      pop\n        /* \"#utility.yul\":15357:15424   */\n      tag_432\n        /* \"#utility.yul\":15421:15422   */\n      0x00\n        /* \"#utility.yul\":15410:15419   */\n      dup4\n        /* \"#utility.yul\":15406:15423   */\n      add\n        /* \"#utility.yul\":15397:15403   */\n      dup5\n        /* \"#utility.yul\":15357:15424   */\n      tag_391\n      jump\t// in\n    tag_432:\n        /* \"#utility.yul\":15311:15431   */\n      swap3\n      swap2\n      pop\n      pop\n      jump\t// out\n        /* \"#utility.yul\":15437:15536   */\n    tag_310:\n        /* \"#utility.yul\":15489:15495   */\n      0x00\n        /* \"#utility.yul\":15523:15528   */\n      dup2\n        /* \"#utility.yul\":15517:15529   */\n      mload\n        /* \"#utility.yul\":15507:15529   */\n      swap1\n      pop\n        /* \"#utility.yul\":15496:15536   */\n      swap2\n      swap1\n      pop\n      jump\t// out\n        /* \"#utility.yul\":15542:15711   */\n    tag_312:\n        /* \"#utility.yul\":15626:15637   */\n      0x00\n        /* \"#utility.yul\":15660:15666   */\n      dup3\n        /* \"#utility.yul\":15655:15658   */\n      dup3\n        /* \"#utility.yul\":15648:15667   */\n      mstore\n        /* \"#utility.yul\":15700:15704   */\n      0x20\n        /* \"#utility.yul\":15695:15698   */\n      dup3\n        /* \"#utility.yul\":15691:15705   */\n      add\n        /* \"#utility.yul\":15676:15705   */\n      swap1\n      pop\n        /* \"#utility.yul\":15638:15711   */\n      swap3\n      swap2\n      pop\n      pop\n      jump\t// out\n        /* \"#utility.yul\":15717:16022   */\n    tag_126:\n        /* \"#utility.yul\":15757:15760   */\n      0x00\n        /* \"#utility.yul\":15776:15796   */\n      tag_436\n        /* \"#utility.yul\":15794:15795   */\n      dup3\n        /* \"#utility.yul\":15776:15796   */\n      tag_390\n      jump\t// in\n    tag_436:\n        /* \"#utility.yul\":15771:15796   */\n      swap2\n      pop\n        /* \"#utility.yul\":15810:15830   */\n      tag_437\n        /* \"#utility.yul\":15828:15829   */\n      dup4\n        /* \"#utility.yul\":15810:15830   */\n      tag_390\n      jump\t// in\n    tag_437:\n        /* \"#utility.yul\":15805:15830   */\n      swap3\n      pop\n        /* \"#utility.yul\":15964:15965   */\n      dup3\n        /* \"#utility.yul\":15896:15962   */\n      0xffffffffffffffffffffffffffffffffffffffffffffffffffffffffffffffff\n        /* \"#utility.yul\":15892:15966   */\n      sub\n        /* \"#utility.yul\":15889:15890   */\n      dup3\n        /* \"#utility.yul\":15886:15967   */\n      gt\n        /* \"#utility.yul\":15883:15885   */\n      iszero\n      tag_438\n      jumpi\n        /* \"#utility.yul\":15970:15988   */\n      tag_439\n      tag_440\n      jump\t// in\n    tag_439:\n        /* \"#utility.yul\":15883:15885   */\n    tag_438:\n        /* \"#utility.yul\":16014:16015   */\n      dup3\n        /* \"#utility.yul\":16011:16012   */\n      dup3\n        /* \"#utility.yul\":16007:16016   */\n      add\n        /* \"#utility.yul\":16000:16016   */\n      swap1\n      pop\n        /* \"#utility.yul\":15761:16022   */\n      swap3\n      swap2\n      pop\n      pop\n      jump\t// out\n        /* \"#utility.yul\":16028:16219   */\n    tag_252:\n        /* \"#utility.yul\":16068:16072   */\n      0x00\n        /* \"#utility.yul\":16088:16108   */\n      tag_442\n        /* \"#utility.yul\":16106:16107   */\n      dup3\n        /* \"#utility.yul\":16088:16108   */\n      tag_390\n      jump\t// in\n    tag_442:\n        /* \"#utility.yul\":16083:16108   */\n      swap2\n      pop\n        /* \"#utility.yul\":16122:16142   */\n      tag_443\n        /* \"#utility.yul\":16140:16141   */\n      dup4\n        /* \"#utility.yul\":16122:16142   */\n      tag_390\n      jump\t// in\n    tag_443:\n        /* \"#utility.yul\":16117:16142   */\n      swap3\n      pop\n        /* \"#utility.yul\":16161:16162   */\n      dup3\n        /* \"#utility.yul\":16158:16159   */\n      dup3\n        /* \"#utility.yul\":16155:16163   */\n      lt\n        /* \"#utility.yul\":16152:16154   */\n      iszero\n      tag_444\n      jumpi\n        /* \"#utility.yul\":16166:16184   */\n      tag_445\n      tag_440\n      jump\t// in\n    tag_445:\n        /* \"#utility.yul\":16152:16154   */\n    tag_444:\n        /* \"#utility.yul\":16211:16212   */\n      dup3\n        /* \"#utility.yul\":16208:16209   */\n      dup3\n        /* \"#utility.yul\":16204:16213   */\n      sub\n        /* \"#utility.yul\":16196:16213   */\n      swap1\n      pop\n        /* \"#utility.yul\":16073:16219   */\n      swap3\n      swap2\n      pop\n      pop\n      jump\t// out\n        /* \"#utility.yul\":16225:16321   */\n    tag_302:\n        /* \"#utility.yul\":16262:16269   */\n      0x00\n        /* \"#utility.yul\":16291:16315   */\n      tag_447\n        /* \"#utility.yul\":16309:16314   */\n      dup3\n        /* \"#utility.yul\":16291:16315   */\n      tag_448\n      jump\t// in\n    tag_447:\n        /* \"#utility.yul\":16280:16315   */\n      swap1\n      pop\n        /* \"#utility.yul\":16270:16321   */\n      swap2\n      swap1\n      pop\n      jump\t// out\n        /* \"#utility.yul\":16327:16417   */\n    tag_306:\n        /* \"#utility.yul\":16361:16368   */\n      0x00\n        /* \"#utility.yul\":16404:16409   */\n      dup2\n        /* \"#utility.yul\":16397:16410   */\n      iszero\n        /* \"#utility.yul\":16390:16411   */\n      iszero\n        /* \"#utility.yul\":16379:16411   */\n      swap1\n      pop\n        /* \"#utility.yul\":16369:16417   */\n      swap2\n      swap1\n      pop\n      jump\t// out\n        /* \"#utility.yul\":16423:16549   */\n    tag_448:\n        /* \"#utility.yul\":16460:16467   */\n      0x00\n        /* \"#utility.yul\":16500:16542   */\n      0xffffffffffffffffffffffffffffffffffffffff\n        /* \"#utility.yul\":16493:16498   */\n      dup3\n        /* \"#utility.yul\":16489:16543   */\n      and\n        /* \"#utility.yul\":16478:16543   */\n      swap1\n      pop\n        /* \"#utility.yul\":16468:16549   */\n      swap2\n      swap1\n      pop\n      jump\t// out\n        /* \"#utility.yul\":16555:16632   */\n    tag_390:\n        /* \"#utility.yul\":16592:16599   */\n      0x00\n        /* \"#utility.yul\":16621:16626   */\n      dup2\n        /* \"#utility.yul\":16610:16626   */\n      swap1\n      pop\n        /* \"#utility.yul\":16600:16632   */\n      swap2\n      swap1\n      pop\n      jump\t// out\n        /* \"#utility.yul\":16638:16724   */\n    tag_394:\n        /* \"#utility.yul\":16673:16680   */\n      0x00\n        /* \"#utility.yul\":16713:16717   */\n      0xff\n        /* \"#utility.yul\":16706:16711   */\n      dup3\n        /* \"#utility.yul\":16702:16718   */\n      and\n        /* \"#utility.yul\":16691:16718   */\n      swap1\n      pop\n        /* \"#utility.yul\":16681:16724   */\n      swap2\n      swap1\n      pop\n      jump\t// out\n        /* \"#utility.yul\":16730:17037   */\n    tag_314:\n        /* \"#utility.yul\":16798:16799   */\n      0x00\n        /* \"#utility.yul\":16808:16921   */\n    tag_454:\n        /* \"#utility.yul\":16822:16828   */\n      dup4\n        /* \"#utility.yul\":16819:16820   */\n      dup2\n        /* \"#utility.yul\":16816:16829   */\n      lt\n        /* \"#utility.yul\":16808:16921   */\n      iszero\n      tag_456\n      jumpi\n        /* \"#utility.yul\":16907:16908   */\n      dup1\n        /* \"#utility.yul\":16902:16905   */\n      dup3\n        /* \"#utility.yul\":16898:16909   */\n      add\n        /* \"#utility.yul\":16892:16910   */\n      mload\n        /* \"#utility.yul\":16888:16889   */\n      dup2\n        /* \"#utility.yul\":16883:16886   */\n      dup5\n        /* \"#utility.yul\":16879:16890   */\n      add\n        /* \"#utility.yul\":16872:16911   */\n      mstore\n        /* \"#utility.yul\":16844:16846   */\n      0x20\n        /* \"#utility.yul\":16841:16842   */\n      dup2\n        /* \"#utility.yul\":16837:16847   */\n      add\n        /* \"#utility.yul\":16832:16847   */\n      swap1\n      pop\n        /* \"#utility.yul\":16808:16921   */\n      jump(tag_454)\n    tag_456:\n        /* \"#utility.yul\":16939:16945   */\n      dup4\n        /* \"#utility.yul\":16936:16937   */\n      dup2\n        /* \"#utility.yul\":16933:16946   */\n      gt\n        /* \"#utility.yul\":16930:16932   */\n      iszero\n      tag_457\n      jumpi\n        /* \"#utility.yul\":17019:17020   */\n      0x00\n        /* \"#utility.yul\":17010:17016   */\n      dup5\n        /* \"#utility.yul\":17005:17008   */\n      dup5\n        /* \"#utility.yul\":17001:17017   */\n      add\n        /* \"#utility.yul\":16994:17021   */\n      mstore\n        /* \"#utility.yul\":16930:16932   */\n    tag_457:\n        /* \"#utility.yul\":16779:17037   */\n      pop\n      pop\n      pop\n      pop\n      jump\t// out\n        /* \"#utility.yul\":17043:17363   */\n    tag_103:\n        /* \"#utility.yul\":17087:17093   */\n      0x00\n        /* \"#utility.yul\":17124:17125   */\n      0x02\n        /* \"#utility.yul\":17118:17122   */\n      dup3\n        /* \"#utility.yul\":17114:17126   */\n      div\n        /* \"#utility.yul\":17104:17126   */\n      swap1\n      pop\n        /* \"#utility.yul\":17171:17172   */\n      0x01\n        /* \"#utility.yul\":17165:17169   */\n      dup3\n        /* \"#utility.yul\":17161:17173   */\n      and\n        /* \"#utility.yul\":17192:17210   */\n      dup1\n        /* \"#utility.yul\":17182:17184   */\n      tag_459\n      jumpi\n        /* \"#utility.yul\":17248:17252   */\n      0x7f\n        /* \"#utility.yul\":17240:17246   */\n      dup3\n        /* \"#utility.yul\":17236:17253   */\n      and\n        /* \"#utility.yul\":17226:17253   */\n      swap2\n      pop\n        /* \"#utility.yul\":17182:17184   */\n    tag_459:\n        /* \"#utility.yul\":17310:17312   */\n      0x20\n        /* \"#utility.yul\":17302:17308   */\n      dup3\n        /* \"#utility.yul\":17299:17313   */\n      lt\n        /* \"#utility.yul\":17279:17297   */\n      dup2\n        /* \"#utility.yul\":17276:17314   */\n      eq\n        /* \"#utility.yul\":17273:17275   */\n      iszero\n      tag_460\n      jumpi\n        /* \"#utility.yul\":17329:17347   */\n      tag_461\n      tag_462\n      jump\t// in\n    tag_461:\n        /* \"#utility.yul\":17273:17275   */\n    tag_460:\n        /* \"#utility.yul\":17094:17363   */\n      pop\n      swap2\n      swap1\n      pop\n      jump\t// out\n        /* \"#utility.yul\":17369:17549   */\n    tag_440:\n        /* \"#utility.yul\":17417:17494   */\n      0x4e487b7100000000000000000000000000000000000000000000000000000000\n        /* \"#utility.yul\":17414:17415   */\n      0x00\n        /* \"#utility.yul\":17407:17495   */\n      mstore\n        /* \"#utility.yul\":17514:17518   */\n      0x11\n        /* \"#utility.yul\":17511:17512   */\n      0x04\n        /* \"#utility.yul\":17504:17519   */\n      mstore\n        /* \"#utility.yul\":17538:17542   */\n      0x24\n        /* \"#utility.yul\":17535:17536   */\n      0x00\n        /* \"#utility.yul\":17528:17543   */\n      revert\n        /* \"#utility.yul\":17555:17735   */\n    tag_462:\n        /* \"#utility.yul\":17603:17680   */\n      0x4e487b7100000000000000000000000000000000000000000000000000000000\n        /* \"#utility.yul\":17600:17601   */\n      0x00\n        /* \"#utility.yul\":17593:17681   */\n      mstore\n        /* \"#utility.yul\":17700:17704   */\n      0x22\n        /* \"#utility.yul\":17697:17698   */\n      0x04\n        /* \"#utility.yul\":17690:17705   */\n      mstore\n        /* \"#utility.yul\":17724:17728   */\n      0x24\n        /* \"#utility.yul\":17721:17722   */\n      0x00\n        /* \"#utility.yul\":17714:17729   */\n      revert\n        /* \"#utility.yul\":17741:17843   */\n    tag_316:\n        /* \"#utility.yul\":17782:17788   */\n      0x00\n        /* \"#utility.yul\":17833:17835   */\n      0x1f\n        /* \"#utility.yul\":17829:17836   */\n      not\n        /* \"#utility.yul\":17824:17826   */\n      0x1f\n        /* \"#utility.yul\":17817:17822   */\n      dup4\n        /* \"#utility.yul\":17813:17827   */\n      add\n        /* \"#utility.yul\":17809:17837   */\n      and\n        /* \"#utility.yul\":17799:17837   */\n      swap1\n      pop\n        /* \"#utility.yul\":17789:17843   */\n      swap2\n      swap1\n      pop\n      jump\t// out\n        /* \"#utility.yul\":17849:18071   */\n    tag_321:\n        /* \"#utility.yul\":17989:18023   */\n      0x45524332303a207472616e7366657220746f20746865207a65726f2061646472\n        /* \"#utility.yul\":17985:17986   */\n      0x00\n        /* \"#utility.yul\":17977:17983   */\n      dup3\n        /* \"#utility.yul\":17973:17987   */\n      add\n        /* \"#utility.yul\":17966:18024   */\n      mstore\n        /* \"#utility.yul\":18058:18063   */\n      0x6573730000000000000000000000000000000000000000000000000000000000\n        /* \"#utility.yul\":18053:18055   */\n      0x20\n        /* \"#utility.yul\":18045:18051   */\n      dup3\n        /* \"#utility.yul\":18041:18056   */\n      add\n        /* \"#utility.yul\":18034:18064   */\n      mstore\n        /* \"#utility.yul\":17955:18071   */\n      pop\n      jump\t// out\n        /* \"#utility.yul\":18077:18247   */\n    tag_326:\n        /* \"#utility.yul\":18217:18239   */\n      0x5061757361626c653a206e6f7420706175736564000000000000000000000000\n        /* \"#utility.yul\":18213:18214   */\n      0x00\n        /* \"#utility.yul\":18205:18211   */\n      dup3\n        /* \"#utility.yul\":18201:18215   */\n      add\n        /* \"#utility.yul\":18194:18240   */\n      mstore\n        /* \"#utility.yul\":18183:18247   */\n      pop\n      jump\t// out\n        /* \"#utility.yul\":18253:18474   */\n    tag_331:\n        /* \"#utility.yul\":18393:18427   */\n      0x45524332303a206275726e20616d6f756e7420657863656564732062616c616e\n        /* \"#utility.yul\":18389:18390   */\n      0x00\n        /* \"#utility.yul\":18381:18387   */\n      dup3\n        /* \"#utility.yul\":18377:18391   */\n      add\n        /* \"#utility.yul\":18370:18428   */\n      mstore\n        /* \"#utility.yul\":18462:18466   */\n      0x6365000000000000000000000000000000000000000000000000000000000000\n        /* \"#utility.yul\":18457:18459   */\n      0x20\n        /* \"#utility.yul\":18449:18455   */\n      dup3\n        /* \"#utility.yul\":18445:18460   */\n      add\n        /* \"#utility.yul\":18438:18467   */\n      mstore\n        /* \"#utility.yul\":18359:18474   */\n      pop\n      jump\t// out\n        /* \"#utility.yul\":18480:18705   */\n    tag_336:\n        /* \"#utility.yul\":18620:18654   */\n      0x4f776e61626c653a206e6577206f776e657220697320746865207a65726f2061\n        /* \"#utility.yul\":18616:18617   */\n      0x00\n        /* \"#utility.yul\":18608:18614   */\n      dup3\n        /* \"#utility.yul\":18604:18618   */\n      add\n        /* \"#utility.yul\":18597:18655   */\n      mstore\n        /* \"#utility.yul\":18689:18697   */\n      0x6464726573730000000000000000000000000000000000000000000000000000\n        /* \"#utility.yul\":18684:18686   */\n      0x20\n        /* \"#utility.yul\":18676:18682   */\n      dup3\n        /* \"#utility.yul\":18672:18687   */\n      add\n        /* \"#utility.yul\":18665:18698   */\n      mstore\n        /* \"#utility.yul\":18586:18705   */\n      pop\n      jump\t// out\n        /* \"#utility.yul\":18711:18932   */\n    tag_341:\n        /* \"#utility.yul\":18851:18885   */\n      0x45524332303a20617070726f766520746f20746865207a65726f206164647265\n        /* \"#utility.yul\":18847:18848   */\n      0x00\n        /* \"#utility.yul\":18839:18845   */\n      dup3\n        /* \"#utility.yul\":18835:18849   */\n      add\n        /* \"#utility.yul\":18828:18886   */\n      mstore\n        /* \"#utility.yul\":18920:18924   */\n      0x7373000000000000000000000000000000000000000000000000000000000000\n        /* \"#utility.yul\":18915:18917   */\n      0x20\n        /* \"#utility.yul\":18907:18913   */\n      dup3\n        /* \"#utility.yul\":18903:18918   */\n      add\n        /* \"#utility.yul\":18896:18925   */\n      mstore\n        /* \"#utility.yul\":18817:18932   */\n      pop\n      jump\t// out\n        /* \"#utility.yul\":18938:19117   */\n    tag_346:\n        /* \"#utility.yul\":19078:19109   */\n      0x45524332303a20696e73756666696369656e7420616c6c6f77616e6365000000\n        /* \"#utility.yul\":19074:19075   */\n      0x00\n        /* \"#utility.yul\":19066:19072   */\n      dup3\n        /* \"#utility.yul\":19062:19076   */\n      add\n        /* \"#utility.yul\":19055:19110   */\n      mstore\n        /* \"#utility.yul\":19044:19117   */\n      pop\n      jump\t// out\n        /* \"#utility.yul\":19123:19348   */\n    tag_351:\n        /* \"#utility.yul\":19263:19297   */\n      0x45524332303a207472616e7366657220616d6f756e7420657863656564732062\n        /* \"#utility.yul\":19259:19260   */\n      0x00\n        /* \"#utility.yul\":19251:19257   */\n      dup3\n        /* \"#utility.yul\":19247:19261   */\n      add\n        /* \"#utility.yul\":19240:19298   */\n      mstore\n        /* \"#utility.yul\":19332:19340   */\n      0x616c616e63650000000000000000000000000000000000000000000000000000\n        /* \"#utility.yul\":19327:19329   */\n      0x20\n        /* \"#utility.yul\":19319:19325   */\n      dup3\n        /* \"#utility.yul\":19315:19330   */\n      add\n        /* \"#utility.yul\":19308:19341   */\n      mstore\n        /* \"#utility.yul\":19229:19348   */\n      pop\n      jump\t// out\n        /* \"#utility.yul\":19354:19520   */\n    tag_356:\n        /* \"#utility.yul\":19494:19512   */\n      0x5061757361626c653a2070617573656400000000000000000000000000000000\n        /* \"#utility.yul\":19490:19491   */\n      0x00\n        /* \"#utility.yul\":19482:19488   */\n      dup3\n        /* \"#utility.yul\":19478:19492   */\n      add\n        /* \"#utility.yul\":19471:19513   */\n      mstore\n        /* \"#utility.yul\":19460:19520   */\n      pop\n      jump\t// out\n        /* \"#utility.yul\":19526:19708   */\n    tag_361:\n        /* \"#utility.yul\":19666:19700   */\n      0x4f776e61626c653a2063616c6c6572206973206e6f7420746865206f776e6572\n        /* \"#utility.yul\":19662:19663   */\n      0x00\n        /* \"#utility.yul\":19654:19660   */\n      dup3\n        /* \"#utility.yul\":19650:19664   */\n      add\n        /* \"#utility.yul\":19643:19701   */\n      mstore\n        /* \"#utility.yul\":19632:19708   */\n      pop\n      jump\t// out\n        /* \"#utility.yul\":19714:19934   */\n    tag_366:\n        /* \"#utility.yul\":19854:19888   */\n      0x45524332303a206275726e2066726f6d20746865207a65726f20616464726573\n        /* \"#utility.yul\":19850:19851   */\n      0x00\n        /* \"#utility.yul\":19842:19848   */\n      dup3\n        /* \"#utility.yul\":19838:19852   */\n      add\n        /* \"#utility.yul\":19831:19889   */\n      mstore\n        /* \"#utility.yul\":19923:19926   */\n      0x7300000000000000000000000000000000000000000000000000000000000000\n        /* \"#utility.yul\":19918:19920   */\n      0x20\n        /* \"#utility.yul\":19910:19916   */\n      dup3\n        /* \"#utility.yul\":19906:19921   */\n      add\n        /* \"#utility.yul\":19899:19927   */\n      mstore\n        /* \"#utility.yul\":19820:19934   */\n      pop\n      jump\t// out\n        /* \"#utility.yul\":19940:20164   */\n    tag_371:\n        /* \"#utility.yul\":20080:20114   */\n      0x45524332303a207472616e736665722066726f6d20746865207a65726f206164\n        /* \"#utility.yul\":20076:20077   */\n      0x00\n        /* \"#utility.yul\":20068:20074   */\n      dup3\n        /* \"#utility.yul\":20064:20078   */\n      add\n        /* \"#utility.yul\":20057:20115   */\n      mstore\n        /* \"#utility.yul\":20149:20156   */\n      0x6472657373000000000000000000000000000000000000000000000000000000\n        /* \"#utility.yul\":20144:20146   */\n      0x20\n        /* \"#utility.yul\":20136:20142   */\n      dup3\n        /* \"#utility.yul\":20132:20147   */\n      add\n        /* \"#utility.yul\":20125:20157   */\n      mstore\n        /* \"#utility.yul\":20046:20164   */\n      pop\n      jump\t// out\n        /* \"#utility.yul\":20170:20393   */\n    tag_376:\n        /* \"#utility.yul\":20310:20344   */\n      0x45524332303a20617070726f76652066726f6d20746865207a65726f20616464\n        /* \"#utility.yul\":20306:20307   */\n      0x00\n        /* \"#utility.yul\":20298:20304   */\n      dup3\n        /* \"#utility.yul\":20294:20308   */\n      add\n        /* \"#utility.yul\":20287:20345   */\n      mstore\n        /* \"#utility.yul\":20379:20385   */\n      0x7265737300000000000000000000000000000000000000000000000000000000\n        /* \"#utility.yul\":20374:20376   */\n      0x20\n        /* \"#utility.yul\":20366:20372   */\n      dup3\n        /* \"#utility.yul\":20362:20377   */\n      add\n        /* \"#utility.yul\":20355:20386   */\n      mstore\n        /* \"#utility.yul\":20276:20393   */\n      pop\n      jump\t// out\n        /* \"#utility.yul\":20399:20623   */\n    tag_381:\n        /* \"#utility.yul\":20539:20573   */\n      0x45524332303a2064656372656173656420616c6c6f77616e63652062656c6f77\n        /* \"#utility.yul\":20535:20536   */\n      0x00\n        /* \"#utility.yul\":20527:20533   */\n      dup3\n        /* \"#utility.yul\":20523:20537   */\n      add\n        /* \"#utility.yul\":20516:20574   */\n      mstore\n        /* \"#utility.yul\":20608:20615   */\n      0x207a65726f000000000000000000000000000000000000000000000000000000\n        /* \"#utility.yul\":20603:20605   */\n      0x20\n        /* \"#utility.yul\":20595:20601   */\n      dup3\n        /* \"#utility.yul\":20591:20606   */\n      add\n        /* \"#utility.yul\":20584:20616   */\n      mstore\n        /* \"#utility.yul\":20505:20623   */\n      pop\n      jump\t// out\n        /* \"#utility.yul\":20629:20810   */\n    tag_386:\n        /* \"#utility.yul\":20769:20802   */\n      0x45524332303a206d696e7420746f20746865207a65726f206164647265737300\n        /* \"#utility.yul\":20765:20766   */\n      0x00\n        /* \"#utility.yul\":20757:20763   */\n      dup3\n        /* \"#utility.yul\":20753:20767   */\n      add\n        /* \"#utility.yul\":20746:20803   */\n      mstore\n        /* \"#utility.yul\":20735:20810   */\n      pop\n      jump\t// out\n        /* \"#utility.yul\":20816:20938   */\n    tag_275:\n        /* \"#utility.yul\":20889:20913   */\n      tag_481\n        /* \"#utility.yul\":20907:20912   */\n      dup2\n        /* \"#utility.yul\":20889:20913   */\n      tag_302\n      jump\t// in\n    tag_481:\n        /* \"#utility.yul\":20882:20887   */\n      dup2\n        /* \"#utility.yul\":20879:20914   */\n      eq\n        /* \"#utility.yul\":20869:20871   */\n      tag_482\n      jumpi\n        /* \"#utility.yul\":20928:20929   */\n      0x00\n        /* \"#utility.yul\":20925:20926   */\n      dup1\n        /* \"#utility.yul\":20918:20930   */\n      revert\n        /* \"#utility.yul\":20869:20871   */\n    tag_482:\n        /* \"#utility.yul\":20859:20938   */\n      pop\n      jump\t// out\n        /* \"#utility.yul\":20944:21066   */\n    tag_279:\n        /* \"#utility.yul\":21017:21041   */\n      tag_484\n        /* \"#utility.yul\":21035:21040   */\n      dup2\n        /* \"#utility.yul\":21017:21041   */\n      tag_390\n      jump\t// in\n    tag_484:\n        /* \"#utility.yul\":21010:21015   */\n      dup2\n        /* \"#utility.yul\":21007:21042   */\n      eq\n        /* \"#utility.yul\":20997:20999   */\n      tag_485\n      jumpi\n        /* \"#utility.yul\":21056:21057   */\n      0x00\n        /* \"#utility.yul\":21053:21054   */\n      dup1\n        /* \"#utility.yul\":21046:21058   */\n      revert\n        /* \"#utility.yul\":20997:20999   */\n    tag_485:\n        /* \"#utility.yul\":20987:21066   */\n      pop\n      jump\t// out\n\n    auxdata: 0xa264697066735822122092be9efe45d7f645bdb448c250fde4452b22da08bfa0d2254e02ddfd5c09262a64736f6c63430008040033\n}\n",
				"bytecode": {
					"linkReferences": {},
					"object": "60806040523480156200001157600080fd5b506040518060400160405280600a81526020017f546974616e546f6b656e000000000000000000000000000000000000000000008152506040518060400160405280600581526020017f546974616e00000000000000000000000000000000000000000000000000000081525081600390805190602001906200009692919062000414565b508060049080519060200190620000af92919062000414565b5050506000600560006101000a81548160ff021916908315150217905550620000ed620000e16200013360201b60201c565b6200013b60201b60201c565b6200012d33620001026200020160201b60201c565b600a6200011091906200064d565b633b9aca006200012191906200078a565b6200020a60201b60201c565b620008f5565b600033905090565b6000600560019054906101000a900473ffffffffffffffffffffffffffffffffffffffff16905081600560016101000a81548173ffffffffffffffffffffffffffffffffffffffff021916908373ffffffffffffffffffffffffffffffffffffffff1602179055508173ffffffffffffffffffffffffffffffffffffffff168173ffffffffffffffffffffffffffffffffffffffff167f8be0079c531659141344cd1fd0a4f28419497f9722a3daafe3b4186f6b6457e060405160405180910390a35050565b60006012905090565b600073ffffffffffffffffffffffffffffffffffffffff168273ffffffffffffffffffffffffffffffffffffffff1614156200027d576040517f08c379a0000000000000000000000000000000000000000000000000000000008152600401620002749062000545565b60405180910390fd5b62000291600083836200038360201b60201c565b8060026000828254620002a5919062000595565b92505081905550806000808473ffffffffffffffffffffffffffffffffffffffff1673ffffffffffffffffffffffffffffffffffffffff1681526020019081526020016000206000828254620002fc919062000595565b925050819055508173ffffffffffffffffffffffffffffffffffffffff16600073ffffffffffffffffffffffffffffffffffffffff167fddf252ad1be2c89b69c2b068fc378daa952ba7f163c4a11628f55a4df523b3ef8360405162000363919062000567565b60405180910390a36200037f60008383620003f360201b60201c565b5050565b62000393620003f860201b60201c565b15620003d6576040517f08c379a0000000000000000000000000000000000000000000000000000000008152600401620003cd9062000523565b60405180910390fd5b620003ee8383836200040f60201b620009fb1760201c565b505050565b505050565b6000600560009054906101000a900460ff16905090565b505050565b828054620004229062000802565b90600052602060002090601f01602090048101928262000446576000855562000492565b82601f106200046157805160ff191683800117855562000492565b8280016001018555821562000492579182015b828111156200049157825182559160200191906001019062000474565b5b509050620004a19190620004a5565b5090565b5b80821115620004c0576000816000905550600101620004a6565b5090565b6000620004d360108362000584565b9150620004e082620008a3565b602082019050919050565b6000620004fa601f8362000584565b91506200050782620008cc565b602082019050919050565b6200051d81620007eb565b82525050565b600060208201905081810360008301526200053e81620004c4565b9050919050565b600060208201905081810360008301526200056081620004eb565b9050919050565b60006020820190506200057e600083018462000512565b92915050565b600082825260208201905092915050565b6000620005a282620007eb565b9150620005af83620007eb565b9250827fffffffffffffffffffffffffffffffffffffffffffffffffffffffffffffffff03821115620005e757620005e662000838565b5b828201905092915050565b6000808291508390505b600185111562000644578086048111156200061c576200061b62000838565b5b60018516156200062c5780820291505b80810290506200063c8562000896565b9450620005fc565b94509492505050565b60006200065a82620007eb565b91506200066783620007f5565b9250620006967fffffffffffffffffffffffffffffffffffffffffffffffffffffffffffffffff84846200069e565b905092915050565b600082620006b0576001905062000783565b81620006c0576000905062000783565b8160018114620006d95760028114620006e4576200071a565b600191505062000783565b60ff841115620006f957620006f862000838565b5b8360020a91508482111562000713576200071262000838565b5b5062000783565b5060208310610133831016604e8410600b8410161715620007545782820a9050838111156200074e576200074d62000838565b5b62000783565b620007638484846001620005f2565b925090508184048111156200077d576200077c62000838565b5b81810290505b9392505050565b60006200079782620007eb565b9150620007a483620007eb565b9250817fffffffffffffffffffffffffffffffffffffffffffffffffffffffffffffffff0483118215151615620007e057620007df62000838565b5b828202905092915050565b6000819050919050565b600060ff82169050919050565b600060028204905060018216806200081b57607f821691505b6020821081141562000832576200083162000867565b5b50919050565b7f4e487b7100000000000000000000000000000000000000000000000000000000600052601160045260246000fd5b7f4e487b7100000000000000000000000000000000000000000000000000000000600052602260045260246000fd5b60008160011c9050919050565b7f5061757361626c653a2070617573656400000000000000000000000000000000600082015250565b7f45524332303a206d696e7420746f20746865207a65726f206164647265737300600082015250565b61203680620009056000396000f3fe608060405234801561001057600080fd5b506004361061012c5760003560e01c806370a08231116100ad57806395d89b411161007157806395d89b41146102f9578063a457c2d714610317578063a9059cbb14610347578063dd62ed3e14610377578063f2fde38b146103a75761012c565b806370a082311461027b578063715018a6146102ab57806379cc6790146102b55780638456cb59146102d15780638da5cb5b146102db5761012c565b806339509351116100f457806339509351146101eb5780633f4ba83a1461021b57806340c10f191461022557806342966c68146102415780635c975abb1461025d5761012c565b806306fdde0314610131578063095ea7b31461014f57806318160ddd1461017f57806323b872dd1461019d578063313ce567146101cd575b600080fd5b6101396103c3565b6040516101469190611857565b60405180910390f35b6101696004803603810190610164919061155d565b610455565b604051610176919061183c565b60405180910390f35b610187610478565b6040516101949190611a39565b60405180910390f35b6101b760048036038101906101b2919061150e565b610482565b6040516101c4919061183c565b60405180910390f35b6101d56104b1565b6040516101e29190611a54565b60405180910390f35b6102056004803603810190610200919061155d565b6104ba565b604051610212919061183c565b60405180910390f35b6102236104f1565b005b61023f600480360381019061023a919061155d565b610577565b005b61025b60048036038101906102569190611599565b610585565b005b610265610599565b604051610272919061183c565b60405180910390f35b610295600480360381019061029091906114a9565b6105b0565b6040516102a29190611a39565b60405180910390f35b6102b36105f8565b005b6102cf60048036038101906102ca919061155d565b610680565b005b6102d96106a0565b005b6102e3610726565b6040516102f09190611821565b60405180910390f35b610301610750565b60405161030e9190611857565b60405180910390f35b610331600480360381019061032c919061155d565b6107e2565b60405161033e919061183c565b60405180910390f35b610361600480360381019061035c919061155d565b610859565b60405161036e919061183c565b60405180910390f35b610391600480360381019061038c91906114d2565b61087c565b60405161039e9190611a39565b60405180910390f35b6103c160048036038101906103bc91906114a9565b610903565b005b6060600380546103d290611b9d565b80601f01602080910402602001604051908101604052809291908181526020018280546103fe90611b9d565b801561044b5780601f106104205761010080835404028352916020019161044b565b820191906000526020600020905b81548152906001019060200180831161042e57829003601f168201915b5050505050905090565b600080610460610a00565b905061046d818585610a08565b600191505092915050565b6000600254905090565b60008061048d610a00565b905061049a858285610bd3565b6104a5858585610c5f565b60019150509392505050565b60006012905090565b6000806104c5610a00565b90506104e68185856104d7858961087c565b6104e19190611a8b565b610a08565b600191505092915050565b6104f9610a00565b73ffffffffffffffffffffffffffffffffffffffff16610517610726565b73ffffffffffffffffffffffffffffffffffffffff161461056d576040517f08c379a000000000000000000000000000000000000000000000000000000000815260040161056490611979565b60405180910390fd5b610575610ee0565b565b6105818282610f82565b5050565b610596610590610a00565b826110e2565b50565b6000600560009054906101000a900460ff16905090565b60008060008373ffffffffffffffffffffffffffffffffffffffff1673ffffffffffffffffffffffffffffffffffffffff168152602001908152602001600020549050919050565b610600610a00565b73ffffffffffffffffffffffffffffffffffffffff1661061e610726565b73ffffffffffffffffffffffffffffffffffffffff1614610674576040517f08c379a000000000000000000000000000000000000000000000000000000000815260040161066b90611979565b60405180910390fd5b61067e60006112b9565b565b6106928261068c610a00565b83610bd3565b61069c82826110e2565b5050565b6106a8610a00565b73ffffffffffffffffffffffffffffffffffffffff166106c6610726565b73ffffffffffffffffffffffffffffffffffffffff161461071c576040517f08c379a000000000000000000000000000000000000000000000000000000000815260040161071390611979565b60405180910390fd5b61072461137f565b565b6000600560019054906101000a900473ffffffffffffffffffffffffffffffffffffffff16905090565b60606004805461075f90611b9d565b80601f016020809104026020016040519081016040528092919081815260200182805461078b90611b9d565b80156107d85780601f106107ad576101008083540402835291602001916107d8565b820191906000526020600020905b8154815290600101906020018083116107bb57829003601f168201915b5050505050905090565b6000806107ed610a00565b905060006107fb828661087c565b905083811015610840576040517f08c379a0000000000000000000000000000000000000000000000000000000008152600401610837906119f9565b60405180910390fd5b61084d8286868403610a08565b60019250505092915050565b600080610864610a00565b9050610871818585610c5f565b600191505092915050565b6000600160008473ffffffffffffffffffffffffffffffffffffffff1673ffffffffffffffffffffffffffffffffffffffff16815260200190815260200160002060008373ffffffffffffffffffffffffffffffffffffffff1673ffffffffffffffffffffffffffffffffffffffff16815260200190815260200160002054905092915050565b61090b610a00565b73ffffffffffffffffffffffffffffffffffffffff16610929610726565b73ffffffffffffffffffffffffffffffffffffffff161461097f576040517f08c379a000000000000000000000000000000000000000000000000000000000815260040161097690611979565b60405180910390fd5b600073ffffffffffffffffffffffffffffffffffffffff168173ffffffffffffffffffffffffffffffffffffffff1614156109ef576040517f08c379a00000000000000000000000000000000000000000000000000000000081526004016109e6906118d9565b60405180910390fd5b6109f8816112b9565b50565b505050565b600033905090565b600073ffffffffffffffffffffffffffffffffffffffff168373ffffffffffffffffffffffffffffffffffffffff161415610a78576040517f08c379a0000000000000000000000000000000000000000000000000000000008152600401610a6f906119d9565b60405180910390fd5b600073ffffffffffffffffffffffffffffffffffffffff168273ffffffffffffffffffffffffffffffffffffffff161415610ae8576040517f08c379a0000000000000000000000000000000000000000000000000000000008152600401610adf906118f9565b60405180910390fd5b80600160008573ffffffffffffffffffffffffffffffffffffffff1673ffffffffffffffffffffffffffffffffffffffff16815260200190815260200160002060008473ffffffffffffffffffffffffffffffffffffffff1673ffffffffffffffffffffffffffffffffffffffff168152602001908152602001600020819055508173ffffffffffffffffffffffffffffffffffffffff168373ffffffffffffffffffffffffffffffffffffffff167f8c5be1e5ebec7d5bd14f71427d1e84f3dd0314c0f7b2291e5b200ac8c7c3b92583604051610bc69190611a39565b60405180910390a3505050565b6000610bdf848461087c565b90507fffffffffffffffffffffffffffffffffffffffffffffffffffffffffffffffff8114610c595781811015610c4b576040517f08c379a0000000000000000000000000000000000000000000000000000000008152600401610c4290611919565b60405180910390fd5b610c588484848403610a08565b5b50505050565b600073ffffffffffffffffffffffffffffffffffffffff168373ffffffffffffffffffffffffffffffffffffffff161415610ccf576040517f08c379a0000000000000000000000000000000000000000000000000000000008152600401610cc6906119b9565b60405180910390fd5b600073ffffffffffffffffffffffffffffffffffffffff168273ffffffffffffffffffffffffffffffffffffffff161415610d3f576040517f08c379a0000000000000000000000000000000000000000000000000000000008152600401610d3690611879565b60405180910390fd5b610d4a838383611422565b60008060008573ffffffffffffffffffffffffffffffffffffffff1673ffffffffffffffffffffffffffffffffffffffff16815260200190815260200160002054905081811015610dd0576040517f08c379a0000000000000000000000000000000000000000000000000000000008152600401610dc790611939565b60405180910390fd5b8181036000808673ffffffffffffffffffffffffffffffffffffffff1673ffffffffffffffffffffffffffffffffffffffff16815260200190815260200160002081905550816000808573ffffffffffffffffffffffffffffffffffffffff1673ffffffffffffffffffffffffffffffffffffffff1681526020019081526020016000206000828254610e639190611a8b565b925050819055508273ffffffffffffffffffffffffffffffffffffffff168473ffffffffffffffffffffffffffffffffffffffff167fddf252ad1be2c89b69c2b068fc378daa952ba7f163c4a11628f55a4df523b3ef84604051610ec79190611a39565b60405180910390a3610eda84848461147a565b50505050565b610ee8610599565b610f27576040517f08c379a0000000000000000000000000000000000000000000000000000000008152600401610f1e90611899565b60405180910390fd5b6000600560006101000a81548160ff0219169083151502179055507f5db9ee0a495bf2e6ff9c91a7834c1ba4fdd244a5e8aa4e537bd38aeae4b073aa610f6b610a00565b604051610f789190611821565b60405180910390a1565b600073ffffffffffffffffffffffffffffffffffffffff168273ffffffffffffffffffffffffffffffffffffffff161415610ff2576040517f08c379a0000000000000000000000000000000000000000000000000000000008152600401610fe990611a19565b60405180910390fd5b610ffe60008383611422565b80600260008282546110109190611a8b565b92505081905550806000808473ffffffffffffffffffffffffffffffffffffffff1673ffffffffffffffffffffffffffffffffffffffff16815260200190815260200160002060008282546110659190611a8b565b925050819055508173ffffffffffffffffffffffffffffffffffffffff16600073ffffffffffffffffffffffffffffffffffffffff167fddf252ad1be2c89b69c2b068fc378daa952ba7f163c4a11628f55a4df523b3ef836040516110ca9190611a39565b60405180910390a36110de6000838361147a565b5050565b600073ffffffffffffffffffffffffffffffffffffffff168273ffffffffffffffffffffffffffffffffffffffff161415611152576040517f08c379a000000000000000000000000000000000000000000000000000000000815260040161114990611999565b60405180910390fd5b61115e82600083611422565b60008060008473ffffffffffffffffffffffffffffffffffffffff1673ffffffffffffffffffffffffffffffffffffffff168152602001908152602001600020549050818110156111e4576040517f08c379a00000000000000000000000000000000000000000000000000000000081526004016111db906118b9565b60405180910390fd5b8181036000808573ffffffffffffffffffffffffffffffffffffffff1673ffffffffffffffffffffffffffffffffffffffff16815260200190815260200160002081905550816002600082825461123b9190611ae1565b92505081905550600073ffffffffffffffffffffffffffffffffffffffff168373ffffffffffffffffffffffffffffffffffffffff167fddf252ad1be2c89b69c2b068fc378daa952ba7f163c4a11628f55a4df523b3ef846040516112a09190611a39565b60405180910390a36112b48360008461147a565b505050565b6000600560019054906101000a900473ffffffffffffffffffffffffffffffffffffffff16905081600560016101000a81548173ffffffffffffffffffffffffffffffffffffffff021916908373ffffffffffffffffffffffffffffffffffffffff1602179055508173ffffffffffffffffffffffffffffffffffffffff168173ffffffffffffffffffffffffffffffffffffffff167f8be0079c531659141344cd1fd0a4f28419497f9722a3daafe3b4186f6b6457e060405160405180910390a35050565b611387610599565b156113c7576040517f08c379a00000000000000000000000000000000000000000000000000000000081526004016113be90611959565b60405180910390fd5b6001600560006101000a81548160ff0219169083151502179055507f62e78cea01bee320cd4e420270b5ea74000d11b0c9f74754ebdbfc544b05a25861140b610a00565b6040516114189190611821565b60405180910390a1565b61142a610599565b1561146a576040517f08c379a000000000000000000000000000000000000000000000000000000000815260040161146190611959565b60405180910390fd5b6114758383836109fb565b505050565b505050565b60008135905061148e81611fd2565b92915050565b6000813590506114a381611fe9565b92915050565b6000602082840312156114bb57600080fd5b60006114c98482850161147f565b91505092915050565b600080604083850312156114e557600080fd5b60006114f38582860161147f565b92505060206115048582860161147f565b9150509250929050565b60008060006060848603121561152357600080fd5b60006115318682870161147f565b93505060206115428682870161147f565b925050604061155386828701611494565b9150509250925092565b6000806040838503121561157057600080fd5b600061157e8582860161147f565b925050602061158f85828601611494565b9150509250929050565b6000602082840312156115ab57600080fd5b60006115b984828501611494565b91505092915050565b6115cb81611b15565b82525050565b6115da81611b27565b82525050565b60006115eb82611a6f565b6115f58185611a7a565b9350611605818560208601611b6a565b61160e81611c2d565b840191505092915050565b6000611626602383611a7a565b915061163182611c3e565b604082019050919050565b6000611649601483611a7a565b915061165482611c8d565b602082019050919050565b600061166c602283611a7a565b915061167782611cb6565b604082019050919050565b600061168f602683611a7a565b915061169a82611d05565b604082019050919050565b60006116b2602283611a7a565b91506116bd82611d54565b604082019050919050565b60006116d5601d83611a7a565b91506116e082611da3565b602082019050919050565b60006116f8602683611a7a565b915061170382611dcc565b604082019050919050565b600061171b601083611a7a565b915061172682611e1b565b602082019050919050565b600061173e602083611a7a565b915061174982611e44565b602082019050919050565b6000611761602183611a7a565b915061176c82611e6d565b604082019050919050565b6000611784602583611a7a565b915061178f82611ebc565b604082019050919050565b60006117a7602483611a7a565b91506117b282611f0b565b604082019050919050565b60006117ca602583611a7a565b91506117d582611f5a565b604082019050919050565b60006117ed601f83611a7a565b91506117f882611fa9565b602082019050919050565b61180c81611b53565b82525050565b61181b81611b5d565b82525050565b600060208201905061183660008301846115c2565b92915050565b600060208201905061185160008301846115d1565b92915050565b6000602082019050818103600083015261187181846115e0565b905092915050565b6000602082019050818103600083015261189281611619565b9050919050565b600060208201905081810360008301526118b28161163c565b9050919050565b600060208201905081810360008301526118d28161165f565b9050919050565b600060208201905081810360008301526118f281611682565b9050919050565b60006020820190508181036000830152611912816116a5565b9050919050565b60006020820190508181036000830152611932816116c8565b9050919050565b60006020820190508181036000830152611952816116eb565b9050919050565b600060208201905081810360008301526119728161170e565b9050919050565b6000602082019050818103600083015261199281611731565b9050919050565b600060208201905081810360008301526119b281611754565b9050919050565b600060208201905081810360008301526119d281611777565b9050919050565b600060208201905081810360008301526119f28161179a565b9050919050565b60006020820190508181036000830152611a12816117bd565b9050919050565b60006020820190508181036000830152611a32816117e0565b9050919050565b6000602082019050611a4e6000830184611803565b92915050565b6000602082019050611a696000830184611812565b92915050565b600081519050919050565b600082825260208201905092915050565b6000611a9682611b53565b9150611aa183611b53565b9250827fffffffffffffffffffffffffffffffffffffffffffffffffffffffffffffffff03821115611ad657611ad5611bcf565b5b828201905092915050565b6000611aec82611b53565b9150611af783611b53565b925082821015611b0a57611b09611bcf565b5b828203905092915050565b6000611b2082611b33565b9050919050565b60008115159050919050565b600073ffffffffffffffffffffffffffffffffffffffff82169050919050565b6000819050919050565b600060ff82169050919050565b60005b83811015611b88578082015181840152602081019050611b6d565b83811115611b97576000848401525b50505050565b60006002820490506001821680611bb557607f821691505b60208210811415611bc957611bc8611bfe565b5b50919050565b7f4e487b7100000000000000000000000000000000000000000000000000000000600052601160045260246000fd5b7f4e487b7100000000000000000000000000000000000000000000000000000000600052602260045260246000fd5b6000601f19601f8301169050919050565b7f45524332303a207472616e7366657220746f20746865207a65726f206164647260008201527f6573730000000000000000000000000000000000000000000000000000000000602082015250565b7f5061757361626c653a206e6f7420706175736564000000000000000000000000600082015250565b7f45524332303a206275726e20616d6f756e7420657863656564732062616c616e60008201527f6365000000000000000000000000000000000000000000000000000000000000602082015250565b7f4f776e61626c653a206e6577206f776e657220697320746865207a65726f206160008201527f6464726573730000000000000000000000000000000000000000000000000000602082015250565b7f45524332303a20617070726f766520746f20746865207a65726f20616464726560008201527f7373000000000000000000000000000000000000000000000000000000000000602082015250565b7f45524332303a20696e73756666696369656e7420616c6c6f77616e6365000000600082015250565b7f45524332303a207472616e7366657220616d6f756e742065786365656473206260008201527f616c616e63650000000000000000000000000000000000000000000000000000602082015250565b7f5061757361626c653a2070617573656400000000000000000000000000000000600082015250565b7f4f776e61626c653a2063616c6c6572206973206e6f7420746865206f776e6572600082015250565b7f45524332303a206275726e2066726f6d20746865207a65726f2061646472657360008201527f7300000000000000000000000000000000000000000000000000000000000000602082015250565b7f45524332303a207472616e736665722066726f6d20746865207a65726f20616460008201527f6472657373000000000000000000000000000000000000000000000000000000602082015250565b7f45524332303a20617070726f76652066726f6d20746865207a65726f2061646460008201527f7265737300000000000000000000000000000000000000000000000000000000602082015250565b7f45524332303a2064656372656173656420616c6c6f77616e63652062656c6f7760008201527f207a65726f000000000000000000000000000000000000000000000000000000602082015250565b7f45524332303a206d696e7420746f20746865207a65726f206164647265737300600082015250565b611fdb81611b15565b8114611fe657600080fd5b50565b611ff281611b53565b8114611ffd57600080fd5b5056fea264697066735822122092be9efe45d7f645bdb448c250fde4452b22da08bfa0d2254e02ddfd5c09262a64736f6c63430008040033",
					"opcodes": "PUSH1 0x80 PUSH1 0x40 MSTORE CALLVALUE DUP1 ISZERO PUSH3 0x11 JUMPI PUSH1 0x0 DUP1 REVERT JUMPDEST POP PUSH1 0x40 MLOAD DUP1 PUSH1 0x40 ADD PUSH1 0x40 MSTORE DUP1 PUSH1 0xA DUP2 MSTORE PUSH1 0x20 ADD PUSH32 0x546974616E546F6B656E00000000000000000000000000000000000000000000 DUP2 MSTORE POP PUSH1 0x40 MLOAD DUP1 PUSH1 0x40 ADD PUSH1 0x40 MSTORE DUP1 PUSH1 0x5 DUP2 MSTORE PUSH1 0x20 ADD PUSH32 0x546974616E000000000000000000000000000000000000000000000000000000 DUP2 MSTORE POP DUP2 PUSH1 0x3 SWAP1 DUP1 MLOAD SWAP1 PUSH1 0x20 ADD SWAP1 PUSH3 0x96 SWAP3 SWAP2 SWAP1 PUSH3 0x414 JUMP JUMPDEST POP DUP1 PUSH1 0x4 SWAP1 DUP1 MLOAD SWAP1 PUSH1 0x20 ADD SWAP1 PUSH3 0xAF SWAP3 SWAP2 SWAP1 PUSH3 0x414 JUMP JUMPDEST POP POP POP PUSH1 0x0 PUSH1 0x5 PUSH1 0x0 PUSH2 0x100 EXP DUP2 SLOAD DUP2 PUSH1 0xFF MUL NOT AND SWAP1 DUP4 ISZERO ISZERO MUL OR SWAP1 SSTORE POP PUSH3 0xED PUSH3 0xE1 PUSH3 0x133 PUSH1 0x20 SHL PUSH1 0x20 SHR JUMP JUMPDEST PUSH3 0x13B PUSH1 0x20 SHL PUSH1 0x20 SHR JUMP JUMPDEST PUSH3 0x12D CALLER PUSH3 0x102 PUSH3 0x201 PUSH1 0x20 SHL PUSH1 0x20 SHR JUMP JUMPDEST PUSH1 0xA PUSH3 0x110 SWAP2 SWAP1 PUSH3 0x64D JUMP JUMPDEST PUSH4 0x3B9ACA00 PUSH3 0x121 SWAP2 SWAP1 PUSH3 0x78A JUMP JUMPDEST PUSH3 0x20A PUSH1 0x20 SHL PUSH1 0x20 SHR JUMP JUMPDEST PUSH3 0x8F5 JUMP JUMPDEST PUSH1 0x0 CALLER SWAP1 POP SWAP1 JUMP JUMPDEST PUSH1 0x0 PUSH1 0x5 PUSH1 0x1 SWAP1 SLOAD SWAP1 PUSH2 0x100 EXP SWAP1 DIV PUSH20 0xFFFFFFFFFFFFFFFFFFFFFFFFFFFFFFFFFFFFFFFF AND SWAP1 POP DUP2 PUSH1 0x5 PUSH1 0x1 PUSH2 0x100 EXP DUP2 SLOAD DUP2 PUSH20 0xFFFFFFFFFFFFFFFFFFFFFFFFFFFFFFFFFFFFFFFF MUL NOT AND SWAP1 DUP4 PUSH20 0xFFFFFFFFFFFFFFFFFFFFFFFFFFFFFFFFFFFFFFFF AND MUL OR SWAP1 SSTORE POP DUP2 PUSH20 0xFFFFFFFFFFFFFFFFFFFFFFFFFFFFFFFFFFFFFFFF AND DUP2 PUSH20 0xFFFFFFFFFFFFFFFFFFFFFFFFFFFFFFFFFFFFFFFF AND PUSH32 0x8BE0079C531659141344CD1FD0A4F28419497F9722A3DAAFE3B4186F6B6457E0 PUSH1 0x40 MLOAD PUSH1 0x40 MLOAD DUP1 SWAP2 SUB SWAP1 LOG3 POP POP JUMP JUMPDEST PUSH1 0x0 PUSH1 0x12 SWAP1 POP SWAP1 JUMP JUMPDEST PUSH1 0x0 PUSH20 0xFFFFFFFFFFFFFFFFFFFFFFFFFFFFFFFFFFFFFFFF AND DUP3 PUSH20 0xFFFFFFFFFFFFFFFFFFFFFFFFFFFFFFFFFFFFFFFF AND EQ ISZERO PUSH3 0x27D JUMPI PUSH1 0x40 MLOAD PUSH32 0x8C379A000000000000000000000000000000000000000000000000000000000 DUP2 MSTORE PUSH1 0x4 ADD PUSH3 0x274 SWAP1 PUSH3 0x545 JUMP JUMPDEST PUSH1 0x40 MLOAD DUP1 SWAP2 SUB SWAP1 REVERT JUMPDEST PUSH3 0x291 PUSH1 0x0 DUP4 DUP4 PUSH3 0x383 PUSH1 0x20 SHL PUSH1 0x20 SHR JUMP JUMPDEST DUP1 PUSH1 0x2 PUSH1 0x0 DUP3 DUP3 SLOAD PUSH3 0x2A5 SWAP2 SWAP1 PUSH3 0x595 JUMP JUMPDEST SWAP3 POP POP DUP2 SWAP1 SSTORE POP DUP1 PUSH1 0x0 DUP1 DUP5 PUSH20 0xFFFFFFFFFFFFFFFFFFFFFFFFFFFFFFFFFFFFFFFF AND PUSH20 0xFFFFFFFFFFFFFFFFFFFFFFFFFFFFFFFFFFFFFFFF AND DUP2 MSTORE PUSH1 0x20 ADD SWAP1 DUP2 MSTORE PUSH1 0x20 ADD PUSH1 0x0 KECCAK256 PUSH1 0x0 DUP3 DUP3 SLOAD PUSH3 0x2FC SWAP2 SWAP1 PUSH3 0x595 JUMP JUMPDEST SWAP3 POP POP DUP2 SWAP1 SSTORE POP DUP2 PUSH20 0xFFFFFFFFFFFFFFFFFFFFFFFFFFFFFFFFFFFFFFFF AND PUSH1 0x0 PUSH20 0xFFFFFFFFFFFFFFFFFFFFFFFFFFFFFFFFFFFFFFFF AND PUSH32 0xDDF252AD1BE2C89B69C2B068FC378DAA952BA7F163C4A11628F55A4DF523B3EF DUP4 PUSH1 0x40 MLOAD PUSH3 0x363 SWAP2 SWAP1 PUSH3 0x567 JUMP JUMPDEST PUSH1 0x40 MLOAD DUP1 SWAP2 SUB SWAP1 LOG3 PUSH3 0x37F PUSH1 0x0 DUP4 DUP4 PUSH3 0x3F3 PUSH1 0x20 SHL PUSH1 0x20 SHR JUMP JUMPDEST POP POP JUMP JUMPDEST PUSH3 0x393 PUSH3 0x3F8 PUSH1 0x20 SHL PUSH1 0x20 SHR JUMP JUMPDEST ISZERO PUSH3 0x3D6 JUMPI PUSH1 0x40 MLOAD PUSH32 0x8C379A000000000000000000000000000000000000000000000000000000000 DUP2 MSTORE PUSH1 0x4 ADD PUSH3 0x3CD SWAP1 PUSH3 0x523 JUMP JUMPDEST PUSH1 0x40 MLOAD DUP1 SWAP2 SUB SWAP1 REVERT JUMPDEST PUSH3 0x3EE DUP4 DUP4 DUP4 PUSH3 0x40F PUSH1 0x20 SHL PUSH3 0x9FB OR PUSH1 0x20 SHR JUMP JUMPDEST POP POP POP JUMP JUMPDEST POP POP POP JUMP JUMPDEST PUSH1 0x0 PUSH1 0x5 PUSH1 0x0 SWAP1 SLOAD SWAP1 PUSH2 0x100 EXP SWAP1 DIV PUSH1 0xFF AND SWAP1 POP SWAP1 JUMP JUMPDEST POP POP POP JUMP JUMPDEST DUP3 DUP1 SLOAD PUSH3 0x422 SWAP1 PUSH3 0x802 JUMP JUMPDEST SWAP1 PUSH1 0x0 MSTORE PUSH1 0x20 PUSH1 0x0 KECCAK256 SWAP1 PUSH1 0x1F ADD PUSH1 0x20 SWAP1 DIV DUP2 ADD SWAP3 DUP3 PUSH3 0x446 JUMPI PUSH1 0x0 DUP6 SSTORE PUSH3 0x492 JUMP JUMPDEST DUP3 PUSH1 0x1F LT PUSH3 0x461 JUMPI DUP1 MLOAD PUSH1 0xFF NOT AND DUP4 DUP1 ADD OR DUP6 SSTORE PUSH3 0x492 JUMP JUMPDEST DUP3 DUP1 ADD PUSH1 0x1 ADD DUP6 SSTORE DUP3 ISZERO PUSH3 0x492 JUMPI SWAP2 DUP3 ADD JUMPDEST DUP3 DUP2 GT ISZERO PUSH3 0x491 JUMPI DUP3 MLOAD DUP3 SSTORE SWAP2 PUSH1 0x20 ADD SWAP2 SWAP1 PUSH1 0x1 ADD SWAP1 PUSH3 0x474 JUMP JUMPDEST JUMPDEST POP SWAP1 POP PUSH3 0x4A1 SWAP2 SWAP1 PUSH3 0x4A5 JUMP JUMPDEST POP SWAP1 JUMP JUMPDEST JUMPDEST DUP1 DUP3 GT ISZERO PUSH3 0x4C0 JUMPI PUSH1 0x0 DUP2 PUSH1 0x0 SWAP1 SSTORE POP PUSH1 0x1 ADD PUSH3 0x4A6 JUMP JUMPDEST POP SWAP1 JUMP JUMPDEST PUSH1 0x0 PUSH3 0x4D3 PUSH1 0x10 DUP4 PUSH3 0x584 JUMP JUMPDEST SWAP2 POP PUSH3 0x4E0 DUP3 PUSH3 0x8A3 JUMP JUMPDEST PUSH1 0x20 DUP3 ADD SWAP1 POP SWAP2 SWAP1 POP JUMP JUMPDEST PUSH1 0x0 PUSH3 0x4FA PUSH1 0x1F DUP4 PUSH3 0x584 JUMP JUMPDEST SWAP2 POP PUSH3 0x507 DUP3 PUSH3 0x8CC JUMP JUMPDEST PUSH1 0x20 DUP3 ADD SWAP1 POP SWAP2 SWAP1 POP JUMP JUMPDEST PUSH3 0x51D DUP2 PUSH3 0x7EB JUMP JUMPDEST DUP3 MSTORE POP POP JUMP JUMPDEST PUSH1 0x0 PUSH1 0x20 DUP3 ADD SWAP1 POP DUP2 DUP2 SUB PUSH1 0x0 DUP4 ADD MSTORE PUSH3 0x53E DUP2 PUSH3 0x4C4 JUMP JUMPDEST SWAP1 POP SWAP2 SWAP1 POP JUMP JUMPDEST PUSH1 0x0 PUSH1 0x20 DUP3 ADD SWAP1 POP DUP2 DUP2 SUB PUSH1 0x0 DUP4 ADD MSTORE PUSH3 0x560 DUP2 PUSH3 0x4EB JUMP JUMPDEST SWAP1 POP SWAP2 SWAP1 POP JUMP JUMPDEST PUSH1 0x0 PUSH1 0x20 DUP3 ADD SWAP1 POP PUSH3 0x57E PUSH1 0x0 DUP4 ADD DUP5 PUSH3 0x512 JUMP JUMPDEST SWAP3 SWAP2 POP POP JUMP JUMPDEST PUSH1 0x0 DUP3 DUP3 MSTORE PUSH1 0x20 DUP3 ADD SWAP1 POP SWAP3 SWAP2 POP POP JUMP JUMPDEST PUSH1 0x0 PUSH3 0x5A2 DUP3 PUSH3 0x7EB JUMP JUMPDEST SWAP2 POP PUSH3 0x5AF DUP4 PUSH3 0x7EB JUMP JUMPDEST SWAP3 POP DUP3 PUSH32 0xFFFFFFFFFFFFFFFFFFFFFFFFFFFFFFFFFFFFFFFFFFFFFFFFFFFFFFFFFFFFFFFF SUB DUP3 GT ISZERO PUSH3 0x5E7 JUMPI PUSH3 0x5E6 PUSH3 0x838 JUMP JUMPDEST JUMPDEST DUP3 DUP3 ADD SWAP1 POP SWAP3 SWAP2 POP POP JUMP JUMPDEST PUSH1 0x0 DUP1 DUP3 SWAP2 POP DUP4 SWAP1 POP JUMPDEST PUSH1 0x1 DUP6 GT ISZERO PUSH3 0x644 JUMPI DUP1 DUP7 DIV DUP2 GT ISZERO PUSH3 0x61C JUMPI PUSH3 0x61B PUSH3 0x838 JUMP JUMPDEST JUMPDEST PUSH1 0x1 DUP6 AND ISZERO PUSH3 0x62C JUMPI DUP1 DUP3 MUL SWAP2 POP JUMPDEST DUP1 DUP2 MUL SWAP1 POP PUSH3 0x63C DUP6 PUSH3 0x896 JUMP JUMPDEST SWAP5 POP PUSH3 0x5FC JUMP JUMPDEST SWAP5 POP SWAP5 SWAP3 POP POP POP JUMP JUMPDEST PUSH1 0x0 PUSH3 0x65A DUP3 PUSH3 0x7EB JUMP JUMPDEST SWAP2 POP PUSH3 0x667 DUP4 PUSH3 0x7F5 JUMP JUMPDEST SWAP3 POP PUSH3 0x696 PUSH32 0xFFFFFFFFFFFFFFFFFFFFFFFFFFFFFFFFFFFFFFFFFFFFFFFFFFFFFFFFFFFFFFFF DUP5 DUP5 PUSH3 0x69E JUMP JUMPDEST SWAP1 POP SWAP3 SWAP2 POP POP JUMP JUMPDEST PUSH1 0x0 DUP3 PUSH3 0x6B0 JUMPI PUSH1 0x1 SWAP1 POP PUSH3 0x783 JUMP JUMPDEST DUP2 PUSH3 0x6C0 JUMPI PUSH1 0x0 SWAP1 POP PUSH3 0x783 JUMP JUMPDEST DUP2 PUSH1 0x1 DUP2 EQ PUSH3 0x6D9 JUMPI PUSH1 0x2 DUP2 EQ PUSH3 0x6E4 JUMPI PUSH3 0x71A JUMP JUMPDEST PUSH1 0x1 SWAP2 POP POP PUSH3 0x783 JUMP JUMPDEST PUSH1 0xFF DUP5 GT ISZERO PUSH3 0x6F9 JUMPI PUSH3 0x6F8 PUSH3 0x838 JUMP JUMPDEST JUMPDEST DUP4 PUSH1 0x2 EXP SWAP2 POP DUP5 DUP3 GT ISZERO PUSH3 0x713 JUMPI PUSH3 0x712 PUSH3 0x838 JUMP JUMPDEST JUMPDEST POP PUSH3 0x783 JUMP JUMPDEST POP PUSH1 0x20 DUP4 LT PUSH2 0x133 DUP4 LT AND PUSH1 0x4E DUP5 LT PUSH1 0xB DUP5 LT AND OR ISZERO PUSH3 0x754 JUMPI DUP3 DUP3 EXP SWAP1 POP DUP4 DUP2 GT ISZERO PUSH3 0x74E JUMPI PUSH3 0x74D PUSH3 0x838 JUMP JUMPDEST JUMPDEST PUSH3 0x783 JUMP JUMPDEST PUSH3 0x763 DUP5 DUP5 DUP5 PUSH1 0x1 PUSH3 0x5F2 JUMP JUMPDEST SWAP3 POP SWAP1 POP DUP2 DUP5 DIV DUP2 GT ISZERO PUSH3 0x77D JUMPI PUSH3 0x77C PUSH3 0x838 JUMP JUMPDEST JUMPDEST DUP2 DUP2 MUL SWAP1 POP JUMPDEST SWAP4 SWAP3 POP POP POP JUMP JUMPDEST PUSH1 0x0 PUSH3 0x797 DUP3 PUSH3 0x7EB JUMP JUMPDEST SWAP2 POP PUSH3 0x7A4 DUP4 PUSH3 0x7EB JUMP JUMPDEST SWAP3 POP DUP2 PUSH32 0xFFFFFFFFFFFFFFFFFFFFFFFFFFFFFFFFFFFFFFFFFFFFFFFFFFFFFFFFFFFFFFFF DIV DUP4 GT DUP3 ISZERO ISZERO AND ISZERO PUSH3 0x7E0 JUMPI PUSH3 0x7DF PUSH3 0x838 JUMP JUMPDEST JUMPDEST DUP3 DUP3 MUL SWAP1 POP SWAP3 SWAP2 POP POP JUMP JUMPDEST PUSH1 0x0 DUP2 SWAP1 POP SWAP2 SWAP1 POP JUMP JUMPDEST PUSH1 0x0 PUSH1 0xFF DUP3 AND SWAP1 POP SWAP2 SWAP1 POP JUMP JUMPDEST PUSH1 0x0 PUSH1 0x2 DUP3 DIV SWAP1 POP PUSH1 0x1 DUP3 AND DUP1 PUSH3 0x81B JUMPI PUSH1 0x7F DUP3 AND SWAP2 POP JUMPDEST PUSH1 0x20 DUP3 LT DUP2 EQ ISZERO PUSH3 0x832 JUMPI PUSH3 0x831 PUSH3 0x867 JUMP JUMPDEST JUMPDEST POP SWAP2 SWAP1 POP JUMP JUMPDEST PUSH32 0x4E487B7100000000000000000000000000000000000000000000000000000000 PUSH1 0x0 MSTORE PUSH1 0x11 PUSH1 0x4 MSTORE PUSH1 0x24 PUSH1 0x0 REVERT JUMPDEST PUSH32 0x4E487B7100000000000000000000000000000000000000000000000000000000 PUSH1 0x0 MSTORE PUSH1 0x22 PUSH1 0x4 MSTORE PUSH1 0x24 PUSH1 0x0 REVERT JUMPDEST PUSH1 0x0 DUP2 PUSH1 0x1 SHR SWAP1 POP SWAP2 SWAP1 POP JUMP JUMPDEST PUSH32 0x5061757361626C653A2070617573656400000000000000000000000000000000 PUSH1 0x0 DUP3 ADD MSTORE POP JUMP JUMPDEST PUSH32 0x45524332303A206D696E7420746F20746865207A65726F206164647265737300 PUSH1 0x0 DUP3 ADD MSTORE POP JUMP JUMPDEST PUSH2 0x2036 DUP1 PUSH3 0x905 PUSH1 0x0 CODECOPY PUSH1 0x0 RETURN INVALID PUSH1 0x80 PUSH1 0x40 MSTORE CALLVALUE DUP1 ISZERO PUSH2 0x10 JUMPI PUSH1 0x0 DUP1 REVERT JUMPDEST POP PUSH1 0x4 CALLDATASIZE LT PUSH2 0x12C JUMPI PUSH1 0x0 CALLDATALOAD PUSH1 0xE0 SHR DUP1 PUSH4 0x70A08231 GT PUSH2 0xAD JUMPI DUP1 PUSH4 0x95D89B41 GT PUSH2 0x71 JUMPI DUP1 PUSH4 0x95D89B41 EQ PUSH2 0x2F9 JUMPI DUP1 PUSH4 0xA457C2D7 EQ PUSH2 0x317 JUMPI DUP1 PUSH4 0xA9059CBB EQ PUSH2 0x347 JUMPI DUP1 PUSH4 0xDD62ED3E EQ PUSH2 0x377 JUMPI DUP1 PUSH4 0xF2FDE38B EQ PUSH2 0x3A7 JUMPI PUSH2 0x12C JUMP JUMPDEST DUP1 PUSH4 0x70A08231 EQ PUSH2 0x27B JUMPI DUP1 PUSH4 0x715018A6 EQ PUSH2 0x2AB JUMPI DUP1 PUSH4 0x79CC6790 EQ PUSH2 0x2B5 JUMPI DUP1 PUSH4 0x8456CB59 EQ PUSH2 0x2D1 JUMPI DUP1 PUSH4 0x8DA5CB5B EQ PUSH2 0x2DB JUMPI PUSH2 0x12C JUMP JUMPDEST DUP1 PUSH4 0x39509351 GT PUSH2 0xF4 JUMPI DUP1 PUSH4 0x39509351 EQ PUSH2 0x1EB JUMPI DUP1 PUSH4 0x3F4BA83A EQ PUSH2 0x21B JUMPI DUP1 PUSH4 0x40C10F19 EQ PUSH2 0x225 JUMPI DUP1 PUSH4 0x42966C68 EQ PUSH2 0x241 JUMPI DUP1 PUSH4 0x5C975ABB EQ PUSH2 0x25D JUMPI PUSH2 0x12C JUMP JUMPDEST DUP1 PUSH4 0x6FDDE03 EQ PUSH2 0x131 JUMPI DUP1 PUSH4 0x95EA7B3 EQ PUSH2 0x14F JUMPI DUP1 PUSH4 0x18160DDD EQ PUSH2 0x17F JUMPI DUP1 PUSH4 0x23B872DD EQ PUSH2 0x19D JUMPI DUP1 PUSH4 0x313CE567 EQ PUSH2 0x1CD JUMPI JUMPDEST PUSH1 0x0 DUP1 REVERT JUMPDEST PUSH2 0x139 PUSH2 0x3C3 JUMP JUMPDEST PUSH1 0x40 MLOAD PUSH2 0x146 SWAP2 SWAP1 PUSH2 0x1857 JUMP JUMPDEST PUSH1 0x40 MLOAD DUP1 SWAP2 SUB SWAP1 RETURN JUMPDEST PUSH2 0x169 PUSH1 0x4 DUP1 CALLDATASIZE SUB DUP2 ADD SWAP1 PUSH2 0x164 SWAP2 SWAP1 PUSH2 0x155D JUMP JUMPDEST PUSH2 0x455 JUMP JUMPDEST PUSH1 0x40 MLOAD PUSH2 0x176 SWAP2 SWAP1 PUSH2 0x183C JUMP JUMPDEST PUSH1 0x40 MLOAD DUP1 SWAP2 SUB SWAP1 RETURN JUMPDEST PUSH2 0x187 PUSH2 0x478 JUMP JUMPDEST PUSH1 0x40 MLOAD PUSH2 0x194 SWAP2 SWAP1 PUSH2 0x1A39 JUMP JUMPDEST PUSH1 0x40 MLOAD DUP1 SWAP2 SUB SWAP1 RETURN JUMPDEST PUSH2 0x1B7 PUSH1 0x4 DUP1 CALLDATASIZE SUB DUP2 ADD SWAP1 PUSH2 0x1B2 SWAP2 SWAP1 PUSH2 0x150E JUMP JUMPDEST PUSH2 0x482 JUMP JUMPDEST PUSH1 0x40 MLOAD PUSH2 0x1C4 SWAP2 SWAP1 PUSH2 0x183C JUMP JUMPDEST PUSH1 0x40 MLOAD DUP1 SWAP2 SUB SWAP1 RETURN JUMPDEST PUSH2 0x1D5 PUSH2 0x4B1 JUMP JUMPDEST PUSH1 0x40 MLOAD PUSH2 0x1E2 SWAP2 SWAP1 PUSH2 0x1A54 JUMP JUMPDEST PUSH1 0x40 MLOAD DUP1 SWAP2 SUB SWAP1 RETURN JUMPDEST PUSH2 0x205 PUSH1 0x4 DUP1 CALLDATASIZE SUB DUP2 ADD SWAP1 PUSH2 0x200 SWAP2 SWAP1 PUSH2 0x155D JUMP JUMPDEST PUSH2 0x4BA JUMP JUMPDEST PUSH1 0x40 MLOAD PUSH2 0x212 SWAP2 SWAP1 PUSH2 0x183C JUMP JUMPDEST PUSH1 0x40 MLOAD DUP1 SWAP2 SUB SWAP1 RETURN JUMPDEST PUSH2 0x223 PUSH2 0x4F1 JUMP JUMPDEST STOP JUMPDEST PUSH2 0x23F PUSH1 0x4 DUP1 CALLDATASIZE SUB DUP2 ADD SWAP1 PUSH2 0x23A SWAP2 SWAP1 PUSH2 0x155D JUMP JUMPDEST PUSH2 0x577 JUMP JUMPDEST STOP JUMPDEST PUSH2 0x25B PUSH1 0x4 DUP1 CALLDATASIZE SUB DUP2 ADD SWAP1 PUSH2 0x256 SWAP2 SWAP1 PUSH2 0x1599 JUMP JUMPDEST PUSH2 0x585 JUMP JUMPDEST STOP JUMPDEST PUSH2 0x265 PUSH2 0x599 JUMP JUMPDEST PUSH1 0x40 MLOAD PUSH2 0x272 SWAP2 SWAP1 PUSH2 0x183C JUMP JUMPDEST PUSH1 0x40 MLOAD DUP1 SWAP2 SUB SWAP1 RETURN JUMPDEST PUSH2 0x295 PUSH1 0x4 DUP1 CALLDATASIZE SUB DUP2 ADD SWAP1 PUSH2 0x290 SWAP2 SWAP1 PUSH2 0x14A9 JUMP JUMPDEST PUSH2 0x5B0 JUMP JUMPDEST PUSH1 0x40 MLOAD PUSH2 0x2A2 SWAP2 SWAP1 PUSH2 0x1A39 JUMP JUMPDEST PUSH1 0x40 MLOAD DUP1 SWAP2 SUB SWAP1 RETURN JUMPDEST PUSH2 0x2B3 PUSH2 0x5F8 JUMP JUMPDEST STOP JUMPDEST PUSH2 0x2CF PUSH1 0x4 DUP1 CALLDATASIZE SUB DUP2 ADD SWAP1 PUSH2 0x2CA SWAP2 SWAP1 PUSH2 0x155D JUMP JUMPDEST PUSH2 0x680 JUMP JUMPDEST STOP JUMPDEST PUSH2 0x2D9 PUSH2 0x6A0 JUMP JUMPDEST STOP JUMPDEST PUSH2 0x2E3 PUSH2 0x726 JUMP JUMPDEST PUSH1 0x40 MLOAD PUSH2 0x2F0 SWAP2 SWAP1 PUSH2 0x1821 JUMP JUMPDEST PUSH1 0x40 MLOAD DUP1 SWAP2 SUB SWAP1 RETURN JUMPDEST PUSH2 0x301 PUSH2 0x750 JUMP JUMPDEST PUSH1 0x40 MLOAD PUSH2 0x30E SWAP2 SWAP1 PUSH2 0x1857 JUMP JUMPDEST PUSH1 0x40 MLOAD DUP1 SWAP2 SUB SWAP1 RETURN JUMPDEST PUSH2 0x331 PUSH1 0x4 DUP1 CALLDATASIZE SUB DUP2 ADD SWAP1 PUSH2 0x32C SWAP2 SWAP1 PUSH2 0x155D JUMP JUMPDEST PUSH2 0x7E2 JUMP JUMPDEST PUSH1 0x40 MLOAD PUSH2 0x33E SWAP2 SWAP1 PUSH2 0x183C JUMP JUMPDEST PUSH1 0x40 MLOAD DUP1 SWAP2 SUB SWAP1 RETURN JUMPDEST PUSH2 0x361 PUSH1 0x4 DUP1 CALLDATASIZE SUB DUP2 ADD SWAP1 PUSH2 0x35C SWAP2 SWAP1 PUSH2 0x155D JUMP JUMPDEST PUSH2 0x859 JUMP JUMPDEST PUSH1 0x40 MLOAD PUSH2 0x36E SWAP2 SWAP1 PUSH2 0x183C JUMP JUMPDEST PUSH1 0x40 MLOAD DUP1 SWAP2 SUB SWAP1 RETURN JUMPDEST PUSH2 0x391 PUSH1 0x4 DUP1 CALLDATASIZE SUB DUP2 ADD SWAP1 PUSH2 0x38C SWAP2 SWAP1 PUSH2 0x14D2 JUMP JUMPDEST PUSH2 0x87C JUMP JUMPDEST PUSH1 0x40 MLOAD PUSH2 0x39E SWAP2 SWAP1 PUSH2 0x1A39 JUMP JUMPDEST PUSH1 0x40 MLOAD DUP1 SWAP2 SUB SWAP1 RETURN JUMPDEST PUSH2 0x3C1 PUSH1 0x4 DUP1 CALLDATASIZE SUB DUP2 ADD SWAP1 PUSH2 0x3BC SWAP2 SWAP1 PUSH2 0x14A9 JUMP JUMPDEST PUSH2 0x903 JUMP JUMPDEST STOP JUMPDEST PUSH1 0x60 PUSH1 0x3 DUP1 SLOAD PUSH2 0x3D2 SWAP1 PUSH2 0x1B9D JUMP JUMPDEST DUP1 PUSH1 0x1F ADD PUSH1 0x20 DUP1 SWAP2 DIV MUL PUSH1 0x20 ADD PUSH1 0x40 MLOAD SWAP1 DUP2 ADD PUSH1 0x40 MSTORE DUP1 SWAP3 SWAP2 SWAP1 DUP2 DUP2 MSTORE PUSH1 0x20 ADD DUP3 DUP1 SLOAD PUSH2 0x3FE SWAP1 PUSH2 0x1B9D JUMP JUMPDEST DUP1 ISZERO PUSH2 0x44B JUMPI DUP1 PUSH1 0x1F LT PUSH2 0x420 JUMPI PUSH2 0x100 DUP1 DUP4 SLOAD DIV MUL DUP4 MSTORE SWAP2 PUSH1 0x20 ADD SWAP2 PUSH2 0x44B JUMP JUMPDEST DUP3 ADD SWAP2 SWAP1 PUSH1 0x0 MSTORE PUSH1 0x20 PUSH1 0x0 KECCAK256 SWAP1 JUMPDEST DUP2 SLOAD DUP2 MSTORE SWAP1 PUSH1 0x1 ADD SWAP1 PUSH1 0x20 ADD DUP1 DUP4 GT PUSH2 0x42E JUMPI DUP3 SWAP1 SUB PUSH1 0x1F AND DUP3 ADD SWAP2 JUMPDEST POP POP POP POP POP SWAP1 POP SWAP1 JUMP JUMPDEST PUSH1 0x0 DUP1 PUSH2 0x460 PUSH2 0xA00 JUMP JUMPDEST SWAP1 POP PUSH2 0x46D DUP2 DUP6 DUP6 PUSH2 0xA08 JUMP JUMPDEST PUSH1 0x1 SWAP2 POP POP SWAP3 SWAP2 POP POP JUMP JUMPDEST PUSH1 0x0 PUSH1 0x2 SLOAD SWAP1 POP SWAP1 JUMP JUMPDEST PUSH1 0x0 DUP1 PUSH2 0x48D PUSH2 0xA00 JUMP JUMPDEST SWAP1 POP PUSH2 0x49A DUP6 DUP3 DUP6 PUSH2 0xBD3 JUMP JUMPDEST PUSH2 0x4A5 DUP6 DUP6 DUP6 PUSH2 0xC5F JUMP JUMPDEST PUSH1 0x1 SWAP2 POP POP SWAP4 SWAP3 POP POP POP JUMP JUMPDEST PUSH1 0x0 PUSH1 0x12 SWAP1 POP SWAP1 JUMP JUMPDEST PUSH1 0x0 DUP1 PUSH2 0x4C5 PUSH2 0xA00 JUMP JUMPDEST SWAP1 POP PUSH2 0x4E6 DUP2 DUP6 DUP6 PUSH2 0x4D7 DUP6 DUP10 PUSH2 0x87C JUMP JUMPDEST PUSH2 0x4E1 SWAP2 SWAP1 PUSH2 0x1A8B JUMP JUMPDEST PUSH2 0xA08 JUMP JUMPDEST PUSH1 0x1 SWAP2 POP POP SWAP3 SWAP2 POP POP JUMP JUMPDEST PUSH2 0x4F9 PUSH2 0xA00 JUMP JUMPDEST PUSH20 0xFFFFFFFFFFFFFFFFFFFFFFFFFFFFFFFFFFFFFFFF AND PUSH2 0x517 PUSH2 0x726 JUMP JUMPDEST PUSH20 0xFFFFFFFFFFFFFFFFFFFFFFFFFFFFFFFFFFFFFFFF AND EQ PUSH2 0x56D JUMPI PUSH1 0x40 MLOAD PUSH32 0x8C379A000000000000000000000000000000000000000000000000000000000 DUP2 MSTORE PUSH1 0x4 ADD PUSH2 0x564 SWAP1 PUSH2 0x1979 JUMP JUMPDEST PUSH1 0x40 MLOAD DUP1 SWAP2 SUB SWAP1 REVERT JUMPDEST PUSH2 0x575 PUSH2 0xEE0 JUMP JUMPDEST JUMP JUMPDEST PUSH2 0x581 DUP3 DUP3 PUSH2 0xF82 JUMP JUMPDEST POP POP JUMP JUMPDEST PUSH2 0x596 PUSH2 0x590 PUSH2 0xA00 JUMP JUMPDEST DUP3 PUSH2 0x10E2 JUMP JUMPDEST POP JUMP JUMPDEST PUSH1 0x0 PUSH1 0x5 PUSH1 0x0 SWAP1 SLOAD SWAP1 PUSH2 0x100 EXP SWAP1 DIV PUSH1 0xFF AND SWAP1 POP SWAP1 JUMP JUMPDEST PUSH1 0x0 DUP1 PUSH1 0x0 DUP4 PUSH20 0xFFFFFFFFFFFFFFFFFFFFFFFFFFFFFFFFFFFFFFFF AND PUSH20 0xFFFFFFFFFFFFFFFFFFFFFFFFFFFFFFFFFFFFFFFF AND DUP2 MSTORE PUSH1 0x20 ADD SWAP1 DUP2 MSTORE PUSH1 0x20 ADD PUSH1 0x0 KECCAK256 SLOAD SWAP1 POP SWAP2 SWAP1 POP JUMP JUMPDEST PUSH2 0x600 PUSH2 0xA00 JUMP JUMPDEST PUSH20 0xFFFFFFFFFFFFFFFFFFFFFFFFFFFFFFFFFFFFFFFF AND PUSH2 0x61E PUSH2 0x726 JUMP JUMPDEST PUSH20 0xFFFFFFFFFFFFFFFFFFFFFFFFFFFFFFFFFFFFFFFF AND EQ PUSH2 0x674 JUMPI PUSH1 0x40 MLOAD PUSH32 0x8C379A000000000000000000000000000000000000000000000000000000000 DUP2 MSTORE PUSH1 0x4 ADD PUSH2 0x66B SWAP1 PUSH2 0x1979 JUMP JUMPDEST PUSH1 0x40 MLOAD DUP1 SWAP2 SUB SWAP1 REVERT JUMPDEST PUSH2 0x67E PUSH1 0x0 PUSH2 0x12B9 JUMP JUMPDEST JUMP JUMPDEST PUSH2 0x692 DUP3 PUSH2 0x68C PUSH2 0xA00 JUMP JUMPDEST DUP4 PUSH2 0xBD3 JUMP JUMPDEST PUSH2 0x69C DUP3 DUP3 PUSH2 0x10E2 JUMP JUMPDEST POP POP JUMP JUMPDEST PUSH2 0x6A8 PUSH2 0xA00 JUMP JUMPDEST PUSH20 0xFFFFFFFFFFFFFFFFFFFFFFFFFFFFFFFFFFFFFFFF AND PUSH2 0x6C6 PUSH2 0x726 JUMP JUMPDEST PUSH20 0xFFFFFFFFFFFFFFFFFFFFFFFFFFFFFFFFFFFFFFFF AND EQ PUSH2 0x71C JUMPI PUSH1 0x40 MLOAD PUSH32 0x8C379A000000000000000000000000000000000000000000000000000000000 DUP2 MSTORE PUSH1 0x4 ADD PUSH2 0x713 SWAP1 PUSH2 0x1979 JUMP JUMPDEST PUSH1 0x40 MLOAD DUP1 SWAP2 SUB SWAP1 REVERT JUMPDEST PUSH2 0x724 PUSH2 0x137F JUMP JUMPDEST JUMP JUMPDEST PUSH1 0x0 PUSH1 0x5 PUSH1 0x1 SWAP1 SLOAD SWAP1 PUSH2 0x100 EXP SWAP1 DIV PUSH20 0xFFFFFFFFFFFFFFFFFFFFFFFFFFFFFFFFFFFFFFFF AND SWAP1 POP SWAP1 JUMP JUMPDEST PUSH1 0x60 PUSH1 0x4 DUP1 SLOAD PUSH2 0x75F SWAP1 PUSH2 0x1B9D JUMP JUMPDEST DUP1 PUSH1 0x1F ADD PUSH1 0x20 DUP1 SWAP2 DIV MUL PUSH1 0x20 ADD PUSH1 0x40 MLOAD SWAP1 DUP2 ADD PUSH1 0x40 MSTORE DUP1 SWAP3 SWAP2 SWAP1 DUP2 DUP2 MSTORE PUSH1 0x20 ADD DUP3 DUP1 SLOAD PUSH2 0x78B SWAP1 PUSH2 0x1B9D JUMP JUMPDEST DUP1 ISZERO PUSH2 0x7D8 JUMPI DUP1 PUSH1 0x1F LT PUSH2 0x7AD JUMPI PUSH2 0x100 DUP1 DUP4 SLOAD DIV MUL DUP4 MSTORE SWAP2 PUSH1 0x20 ADD SWAP2 PUSH2 0x7D8 JUMP JUMPDEST DUP3 ADD SWAP2 SWAP1 PUSH1 0x0 MSTORE PUSH1 0x20 PUSH1 0x0 KECCAK256 SWAP1 JUMPDEST DUP2 SLOAD DUP2 MSTORE SWAP1 PUSH1 0x1 ADD SWAP1 PUSH1 0x20 ADD DUP1 DUP4 GT PUSH2 0x7BB JUMPI DUP3 SWAP1 SUB PUSH1 0x1F AND DUP3 ADD SWAP2 JUMPDEST POP POP POP POP POP SWAP1 POP SWAP1 JUMP JUMPDEST PUSH1 0x0 DUP1 PUSH2 0x7ED PUSH2 0xA00 JUMP JUMPDEST SWAP1 POP PUSH1 0x0 PUSH2 0x7FB DUP3 DUP7 PUSH2 0x87C JUMP JUMPDEST SWAP1 POP DUP4 DUP2 LT ISZERO PUSH2 0x840 JUMPI PUSH1 0x40 MLOAD PUSH32 0x8C379A000000000000000000000000000000000000000000000000000000000 DUP2 MSTORE PUSH1 0x4 ADD PUSH2 0x837 SWAP1 PUSH2 0x19F9 JUMP JUMPDEST PUSH1 0x40 MLOAD DUP1 SWAP2 SUB SWAP1 REVERT JUMPDEST PUSH2 0x84D DUP3 DUP7 DUP7 DUP5 SUB PUSH2 0xA08 JUMP JUMPDEST PUSH1 0x1 SWAP3 POP POP POP SWAP3 SWAP2 POP POP JUMP JUMPDEST PUSH1 0x0 DUP1 PUSH2 0x864 PUSH2 0xA00 JUMP JUMPDEST SWAP1 POP PUSH2 0x871 DUP2 DUP6 DUP6 PUSH2 0xC5F JUMP JUMPDEST PUSH1 0x1 SWAP2 POP POP SWAP3 SWAP2 POP POP JUMP JUMPDEST PUSH1 0x0 PUSH1 0x1 PUSH1 0x0 DUP5 PUSH20 0xFFFFFFFFFFFFFFFFFFFFFFFFFFFFFFFFFFFFFFFF AND PUSH20 0xFFFFFFFFFFFFFFFFFFFFFFFFFFFFFFFFFFFFFFFF AND DUP2 MSTORE PUSH1 0x20 ADD SWAP1 DUP2 MSTORE PUSH1 0x20 ADD PUSH1 0x0 KECCAK256 PUSH1 0x0 DUP4 PUSH20 0xFFFFFFFFFFFFFFFFFFFFFFFFFFFFFFFFFFFFFFFF AND PUSH20 0xFFFFFFFFFFFFFFFFFFFFFFFFFFFFFFFFFFFFFFFF AND DUP2 MSTORE PUSH1 0x20 ADD SWAP1 DUP2 MSTORE PUSH1 0x20 ADD PUSH1 0x0 KECCAK256 SLOAD SWAP1 POP SWAP3 SWAP2 POP POP JUMP JUMPDEST PUSH2 0x90B PUSH2 0xA00 JUMP JUMPDEST PUSH20 0xFFFFFFFFFFFFFFFFFFFFFFFFFFFFFFFFFFFFFFFF AND PUSH2 0x929 PUSH2 0x726 JUMP JUMPDEST PUSH20 0xFFFFFFFFFFFFFFFFFFFFFFFFFFFFFFFFFFFFFFFF AND EQ PUSH2 0x97F JUMPI PUSH1 0x40 MLOAD PUSH32 0x8C379A000000000000000000000000000000000000000000000000000000000 DUP2 MSTORE PUSH1 0x4 ADD PUSH2 0x976 SWAP1 PUSH2 0x1979 JUMP JUMPDEST PUSH1 0x40 MLOAD DUP1 SWAP2 SUB SWAP1 REVERT JUMPDEST PUSH1 0x0 PUSH20 0xFFFFFFFFFFFFFFFFFFFFFFFFFFFFFFFFFFFFFFFF AND DUP2 PUSH20 0xFFFFFFFFFFFFFFFFFFFFFFFFFFFFFFFFFFFFFFFF AND EQ ISZERO PUSH2 0x9EF JUMPI PUSH1 0x40 MLOAD PUSH32 0x8C379A000000000000000000000000000000000000000000000000000000000 DUP2 MSTORE PUSH1 0x4 ADD PUSH2 0x9E6 SWAP1 PUSH2 0x18D9 JUMP JUMPDEST PUSH1 0x40 MLOAD DUP1 SWAP2 SUB SWAP1 REVERT JUMPDEST PUSH2 0x9F8 DUP2 PUSH2 0x12B9 JUMP JUMPDEST POP JUMP JUMPDEST POP POP POP JUMP JUMPDEST PUSH1 0x0 CALLER SWAP1 POP SWAP1 JUMP JUMPDEST PUSH1 0x0 PUSH20 0xFFFFFFFFFFFFFFFFFFFFFFFFFFFFFFFFFFFFFFFF AND DUP4 PUSH20 0xFFFFFFFFFFFFFFFFFFFFFFFFFFFFFFFFFFFFFFFF AND EQ ISZERO PUSH2 0xA78 JUMPI PUSH1 0x40 MLOAD PUSH32 0x8C379A000000000000000000000000000000000000000000000000000000000 DUP2 MSTORE PUSH1 0x4 ADD PUSH2 0xA6F SWAP1 PUSH2 0x19D9 JUMP JUMPDEST PUSH1 0x40 MLOAD DUP1 SWAP2 SUB SWAP1 REVERT JUMPDEST PUSH1 0x0 PUSH20 0xFFFFFFFFFFFFFFFFFFFFFFFFFFFFFFFFFFFFFFFF AND DUP3 PUSH20 0xFFFFFFFFFFFFFFFFFFFFFFFFFFFFFFFFFFFFFFFF AND EQ ISZERO PUSH2 0xAE8 JUMPI PUSH1 0x40 MLOAD PUSH32 0x8C379A000000000000000000000000000000000000000000000000000000000 DUP2 MSTORE PUSH1 0x4 ADD PUSH2 0xADF SWAP1 PUSH2 0x18F9 JUMP JUMPDEST PUSH1 0x40 MLOAD DUP1 SWAP2 SUB SWAP1 REVERT JUMPDEST DUP1 PUSH1 0x1 PUSH1 0x0 DUP6 PUSH20 0xFFFFFFFFFFFFFFFFFFFFFFFFFFFFFFFFFFFFFFFF AND PUSH20 0xFFFFFFFFFFFFFFFFFFFFFFFFFFFFFFFFFFFFFFFF AND DUP2 MSTORE PUSH1 0x20 ADD SWAP1 DUP2 MSTORE PUSH1 0x20 ADD PUSH1 0x0 KECCAK256 PUSH1 0x0 DUP5 PUSH20 0xFFFFFFFFFFFFFFFFFFFFFFFFFFFFFFFFFFFFFFFF AND PUSH20 0xFFFFFFFFFFFFFFFFFFFFFFFFFFFFFFFFFFFFFFFF AND DUP2 MSTORE PUSH1 0x20 ADD SWAP1 DUP2 MSTORE PUSH1 0x20 ADD PUSH1 0x0 KECCAK256 DUP2 SWAP1 SSTORE POP DUP2 PUSH20 0xFFFFFFFFFFFFFFFFFFFFFFFFFFFFFFFFFFFFFFFF AND DUP4 PUSH20 0xFFFFFFFFFFFFFFFFFFFFFFFFFFFFFFFFFFFFFFFF AND PUSH32 0x8C5BE1E5EBEC7D5BD14F71427D1E84F3DD0314C0F7B2291E5B200AC8C7C3B925 DUP4 PUSH1 0x40 MLOAD PUSH2 0xBC6 SWAP2 SWAP1 PUSH2 0x1A39 JUMP JUMPDEST PUSH1 0x40 MLOAD DUP1 SWAP2 SUB SWAP1 LOG3 POP POP POP JUMP JUMPDEST PUSH1 0x0 PUSH2 0xBDF DUP5 DUP5 PUSH2 0x87C JUMP JUMPDEST SWAP1 POP PUSH32 0xFFFFFFFFFFFFFFFFFFFFFFFFFFFFFFFFFFFFFFFFFFFFFFFFFFFFFFFFFFFFFFFF DUP2 EQ PUSH2 0xC59 JUMPI DUP2 DUP2 LT ISZERO PUSH2 0xC4B JUMPI PUSH1 0x40 MLOAD PUSH32 0x8C379A000000000000000000000000000000000000000000000000000000000 DUP2 MSTORE PUSH1 0x4 ADD PUSH2 0xC42 SWAP1 PUSH2 0x1919 JUMP JUMPDEST PUSH1 0x40 MLOAD DUP1 SWAP2 SUB SWAP1 REVERT JUMPDEST PUSH2 0xC58 DUP5 DUP5 DUP5 DUP5 SUB PUSH2 0xA08 JUMP JUMPDEST JUMPDEST POP POP POP POP JUMP JUMPDEST PUSH1 0x0 PUSH20 0xFFFFFFFFFFFFFFFFFFFFFFFFFFFFFFFFFFFFFFFF AND DUP4 PUSH20 0xFFFFFFFFFFFFFFFFFFFFFFFFFFFFFFFFFFFFFFFF AND EQ ISZERO PUSH2 0xCCF JUMPI PUSH1 0x40 MLOAD PUSH32 0x8C379A000000000000000000000000000000000000000000000000000000000 DUP2 MSTORE PUSH1 0x4 ADD PUSH2 0xCC6 SWAP1 PUSH2 0x19B9 JUMP JUMPDEST PUSH1 0x40 MLOAD DUP1 SWAP2 SUB SWAP1 REVERT JUMPDEST PUSH1 0x0 PUSH20 0xFFFFFFFFFFFFFFFFFFFFFFFFFFFFFFFFFFFFFFFF AND DUP3 PUSH20 0xFFFFFFFFFFFFFFFFFFFFFFFFFFFFFFFFFFFFFFFF AND EQ ISZERO PUSH2 0xD3F JUMPI PUSH1 0x40 MLOAD PUSH32 0x8C379A000000000000000000000000000000000000000000000000000000000 DUP2 MSTORE PUSH1 0x4 ADD PUSH2 0xD36 SWAP1 PUSH2 0x1879 JUMP JUMPDEST PUSH1 0x40 MLOAD DUP1 SWAP2 SUB SWAP1 REVERT JUMPDEST PUSH2 0xD4A DUP4 DUP4 DUP4 PUSH2 0x1422 JUMP JUMPDEST PUSH1 0x0 DUP1 PUSH1 0x0 DUP6 PUSH20 0xFFFFFFFFFFFFFFFFFFFFFFFFFFFFFFFFFFFFFFFF AND PUSH20 0xFFFFFFFFFFFFFFFFFFFFFFFFFFFFFFFFFFFFFFFF AND DUP2 MSTORE PUSH1 0x20 ADD SWAP1 DUP2 MSTORE PUSH1 0x20 ADD PUSH1 0x0 KECCAK256 SLOAD SWAP1 POP DUP2 DUP2 LT ISZERO PUSH2 0xDD0 JUMPI PUSH1 0x40 MLOAD PUSH32 0x8C379A000000000000000000000000000000000000000000000000000000000 DUP2 MSTORE PUSH1 0x4 ADD PUSH2 0xDC7 SWAP1 PUSH2 0x1939 JUMP JUMPDEST PUSH1 0x40 MLOAD DUP1 SWAP2 SUB SWAP1 REVERT JUMPDEST DUP2 DUP2 SUB PUSH1 0x0 DUP1 DUP7 PUSH20 0xFFFFFFFFFFFFFFFFFFFFFFFFFFFFFFFFFFFFFFFF AND PUSH20 0xFFFFFFFFFFFFFFFFFFFFFFFFFFFFFFFFFFFFFFFF AND DUP2 MSTORE PUSH1 0x20 ADD SWAP1 DUP2 MSTORE PUSH1 0x20 ADD PUSH1 0x0 KECCAK256 DUP2 SWAP1 SSTORE POP DUP2 PUSH1 0x0 DUP1 DUP6 PUSH20 0xFFFFFFFFFFFFFFFFFFFFFFFFFFFFFFFFFFFFFFFF AND PUSH20 0xFFFFFFFFFFFFFFFFFFFFFFFFFFFFFFFFFFFFFFFF AND DUP2 MSTORE PUSH1 0x20 ADD SWAP1 DUP2 MSTORE PUSH1 0x20 ADD PUSH1 0x0 KECCAK256 PUSH1 0x0 DUP3 DUP3 SLOAD PUSH2 0xE63 SWAP2 SWAP1 PUSH2 0x1A8B JUMP JUMPDEST SWAP3 POP POP DUP2 SWAP1 SSTORE POP DUP3 PUSH20 0xFFFFFFFFFFFFFFFFFFFFFFFFFFFFFFFFFFFFFFFF AND DUP5 PUSH20 0xFFFFFFFFFFFFFFFFFFFFFFFFFFFFFFFFFFFFFFFF AND PUSH32 0xDDF252AD1BE2C89B69C2B068FC378DAA952BA7F163C4A11628F55A4DF523B3EF DUP5 PUSH1 0x40 MLOAD PUSH2 0xEC7 SWAP2 SWAP1 PUSH2 0x1A39 JUMP JUMPDEST PUSH1 0x40 MLOAD DUP1 SWAP2 SUB SWAP1 LOG3 PUSH2 0xEDA DUP5 DUP5 DUP5 PUSH2 0x147A JUMP JUMPDEST POP POP POP POP JUMP JUMPDEST PUSH2 0xEE8 PUSH2 0x599 JUMP JUMPDEST PUSH2 0xF27 JUMPI PUSH1 0x40 MLOAD PUSH32 0x8C379A000000000000000000000000000000000000000000000000000000000 DUP2 MSTORE PUSH1 0x4 ADD PUSH2 0xF1E SWAP1 PUSH2 0x1899 JUMP JUMPDEST PUSH1 0x40 MLOAD DUP1 SWAP2 SUB SWAP1 REVERT JUMPDEST PUSH1 0x0 PUSH1 0x5 PUSH1 0x0 PUSH2 0x100 EXP DUP2 SLOAD DUP2 PUSH1 0xFF MUL NOT AND SWAP1 DUP4 ISZERO ISZERO MUL OR SWAP1 SSTORE POP PUSH32 0x5DB9EE0A495BF2E6FF9C91A7834C1BA4FDD244A5E8AA4E537BD38AEAE4B073AA PUSH2 0xF6B PUSH2 0xA00 JUMP JUMPDEST PUSH1 0x40 MLOAD PUSH2 0xF78 SWAP2 SWAP1 PUSH2 0x1821 JUMP JUMPDEST PUSH1 0x40 MLOAD DUP1 SWAP2 SUB SWAP1 LOG1 JUMP JUMPDEST PUSH1 0x0 PUSH20 0xFFFFFFFFFFFFFFFFFFFFFFFFFFFFFFFFFFFFFFFF AND DUP3 PUSH20 0xFFFFFFFFFFFFFFFFFFFFFFFFFFFFFFFFFFFFFFFF AND EQ ISZERO PUSH2 0xFF2 JUMPI PUSH1 0x40 MLOAD PUSH32 0x8C379A000000000000000000000000000000000000000000000000000000000 DUP2 MSTORE PUSH1 0x4 ADD PUSH2 0xFE9 SWAP1 PUSH2 0x1A19 JUMP JUMPDEST PUSH1 0x40 MLOAD DUP1 SWAP2 SUB SWAP1 REVERT JUMPDEST PUSH2 0xFFE PUSH1 0x0 DUP4 DUP4 PUSH2 0x1422 JUMP JUMPDEST DUP1 PUSH1 0x2 PUSH1 0x0 DUP3 DUP3 SLOAD PUSH2 0x1010 SWAP2 SWAP1 PUSH2 0x1A8B JUMP JUMPDEST SWAP3 POP POP DUP2 SWAP1 SSTORE POP DUP1 PUSH1 0x0 DUP1 DUP5 PUSH20 0xFFFFFFFFFFFFFFFFFFFFFFFFFFFFFFFFFFFFFFFF AND PUSH20 0xFFFFFFFFFFFFFFFFFFFFFFFFFFFFFFFFFFFFFFFF AND DUP2 MSTORE PUSH1 0x20 ADD SWAP1 DUP2 MSTORE PUSH1 0x20 ADD PUSH1 0x0 KECCAK256 PUSH1 0x0 DUP3 DUP3 SLOAD PUSH2 0x1065 SWAP2 SWAP1 PUSH2 0x1A8B JUMP JUMPDEST SWAP3 POP POP DUP2 SWAP1 SSTORE POP DUP2 PUSH20 0xFFFFFFFFFFFFFFFFFFFFFFFFFFFFFFFFFFFFFFFF AND PUSH1 0x0 PUSH20 0xFFFFFFFFFFFFFFFFFFFFFFFFFFFFFFFFFFFFFFFF AND PUSH32 0xDDF252AD1BE2C89B69C2B068FC378DAA952BA7F163C4A11628F55A4DF523B3EF DUP4 PUSH1 0x40 MLOAD PUSH2 0x10CA SWAP2 SWAP1 PUSH2 0x1A39 JUMP JUMPDEST PUSH1 0x40 MLOAD DUP1 SWAP2 SUB SWAP1 LOG3 PUSH2 0x10DE PUSH1 0x0 DUP4 DUP4 PUSH2 0x147A JUMP JUMPDEST POP POP JUMP JUMPDEST PUSH1 0x0 PUSH20 0xFFFFFFFFFFFFFFFFFFFFFFFFFFFFFFFFFFFFFFFF AND DUP3 PUSH20 0xFFFFFFFFFFFFFFFFFFFFFFFFFFFFFFFFFFFFFFFF AND EQ ISZERO PUSH2 0x1152 JUMPI PUSH1 0x40 MLOAD PUSH32 0x8C379A000000000000000000000000000000000000000000000000000000000 DUP2 MSTORE PUSH1 0x4 ADD PUSH2 0x1149 SWAP1 PUSH2 0x1999 JUMP JUMPDEST PUSH1 0x40 MLOAD DUP1 SWAP2 SUB SWAP1 REVERT JUMPDEST PUSH2 0x115E DUP3 PUSH1 0x0 DUP4 PUSH2 0x1422 JUMP JUMPDEST PUSH1 0x0 DUP1 PUSH1 0x0 DUP5 PUSH20 0xFFFFFFFFFFFFFFFFFFFFFFFFFFFFFFFFFFFFFFFF AND PUSH20 0xFFFFFFFFFFFFFFFFFFFFFFFFFFFFFFFFFFFFFFFF AND DUP2 MSTORE PUSH1 0x20 ADD SWAP1 DUP2 MSTORE PUSH1 0x20 ADD PUSH1 0x0 KECCAK256 SLOAD SWAP1 POP DUP2 DUP2 LT ISZERO PUSH2 0x11E4 JUMPI PUSH1 0x40 MLOAD PUSH32 0x8C379A000000000000000000000000000000000000000000000000000000000 DUP2 MSTORE PUSH1 0x4 ADD PUSH2 0x11DB SWAP1 PUSH2 0x18B9 JUMP JUMPDEST PUSH1 0x40 MLOAD DUP1 SWAP2 SUB SWAP1 REVERT JUMPDEST DUP2 DUP2 SUB PUSH1 0x0 DUP1 DUP6 PUSH20 0xFFFFFFFFFFFFFFFFFFFFFFFFFFFFFFFFFFFFFFFF AND PUSH20 0xFFFFFFFFFFFFFFFFFFFFFFFFFFFFFFFFFFFFFFFF AND DUP2 MSTORE PUSH1 0x20 ADD SWAP1 DUP2 MSTORE PUSH1 0x20 ADD PUSH1 0x0 KECCAK256 DUP2 SWAP1 SSTORE POP DUP2 PUSH1 0x2 PUSH1 0x0 DUP3 DUP3 SLOAD PUSH2 0x123B SWAP2 SWAP1 PUSH2 0x1AE1 JUMP JUMPDEST SWAP3 POP POP DUP2 SWAP1 SSTORE POP PUSH1 0x0 PUSH20 0xFFFFFFFFFFFFFFFFFFFFFFFFFFFFFFFFFFFFFFFF AND DUP4 PUSH20 0xFFFFFFFFFFFFFFFFFFFFFFFFFFFFFFFFFFFFFFFF AND PUSH32 0xDDF252AD1BE2C89B69C2B068FC378DAA952BA7F163C4A11628F55A4DF523B3EF DUP5 PUSH1 0x40 MLOAD PUSH2 0x12A0 SWAP2 SWAP1 PUSH2 0x1A39 JUMP JUMPDEST PUSH1 0x40 MLOAD DUP1 SWAP2 SUB SWAP1 LOG3 PUSH2 0x12B4 DUP4 PUSH1 0x0 DUP5 PUSH2 0x147A JUMP JUMPDEST POP POP POP JUMP JUMPDEST PUSH1 0x0 PUSH1 0x5 PUSH1 0x1 SWAP1 SLOAD SWAP1 PUSH2 0x100 EXP SWAP1 DIV PUSH20 0xFFFFFFFFFFFFFFFFFFFFFFFFFFFFFFFFFFFFFFFF AND SWAP1 POP DUP2 PUSH1 0x5 PUSH1 0x1 PUSH2 0x100 EXP DUP2 SLOAD DUP2 PUSH20 0xFFFFFFFFFFFFFFFFFFFFFFFFFFFFFFFFFFFFFFFF MUL NOT AND SWAP1 DUP4 PUSH20 0xFFFFFFFFFFFFFFFFFFFFFFFFFFFFFFFFFFFFFFFF AND MUL OR SWAP1 SSTORE POP DUP2 PUSH20 0xFFFFFFFFFFFFFFFFFFFFFFFFFFFFFFFFFFFFFFFF AND DUP2 PUSH20 0xFFFFFFFFFFFFFFFFFFFFFFFFFFFFFFFFFFFFFFFF AND PUSH32 0x8BE0079C531659141344CD1FD0A4F28419497F9722A3DAAFE3B4186F6B6457E0 PUSH1 0x40 MLOAD PUSH1 0x40 MLOAD DUP1 SWAP2 SUB SWAP1 LOG3 POP POP JUMP JUMPDEST PUSH2 0x1387 PUSH2 0x599 JUMP JUMPDEST ISZERO PUSH2 0x13C7 JUMPI PUSH1 0x40 MLOAD PUSH32 0x8C379A000000000000000000000000000000000000000000000000000000000 DUP2 MSTORE PUSH1 0x4 ADD PUSH2 0x13BE SWAP1 PUSH2 0x1959 JUMP JUMPDEST PUSH1 0x40 MLOAD DUP1 SWAP2 SUB SWAP1 REVERT JUMPDEST PUSH1 0x1 PUSH1 0x5 PUSH1 0x0 PUSH2 0x100 EXP DUP2 SLOAD DUP2 PUSH1 0xFF MUL NOT AND SWAP1 DUP4 ISZERO ISZERO MUL OR SWAP1 SSTORE POP PUSH32 0x62E78CEA01BEE320CD4E420270B5EA74000D11B0C9F74754EBDBFC544B05A258 PUSH2 0x140B PUSH2 0xA00 JUMP JUMPDEST PUSH1 0x40 MLOAD PUSH2 0x1418 SWAP2 SWAP1 PUSH2 0x1821 JUMP JUMPDEST PUSH1 0x40 MLOAD DUP1 SWAP2 SUB SWAP1 LOG1 JUMP JUMPDEST PUSH2 0x142A PUSH2 0x599 JUMP JUMPDEST ISZERO PUSH2 0x146A JUMPI PUSH1 0x40 MLOAD PUSH32 0x8C379A000000000000000000000000000000000000000000000000000000000 DUP2 MSTORE PUSH1 0x4 ADD PUSH2 0x1461 SWAP1 PUSH2 0x1959 JUMP JUMPDEST PUSH1 0x40 MLOAD DUP1 SWAP2 SUB SWAP1 REVERT JUMPDEST PUSH2 0x1475 DUP4 DUP4 DUP4 PUSH2 0x9FB JUMP JUMPDEST POP POP POP JUMP JUMPDEST POP POP POP JUMP JUMPDEST PUSH1 0x0 DUP2 CALLDATALOAD SWAP1 POP PUSH2 0x148E DUP2 PUSH2 0x1FD2 JUMP JUMPDEST SWAP3 SWAP2 POP POP JUMP JUMPDEST PUSH1 0x0 DUP2 CALLDATALOAD SWAP1 POP PUSH2 0x14A3 DUP2 PUSH2 0x1FE9 JUMP JUMPDEST SWAP3 SWAP2 POP POP JUMP JUMPDEST PUSH1 0x0 PUSH1 0x20 DUP3 DUP5 SUB SLT ISZERO PUSH2 0x14BB JUMPI PUSH1 0x0 DUP1 REVERT JUMPDEST PUSH1 0x0 PUSH2 0x14C9 DUP5 DUP3 DUP6 ADD PUSH2 0x147F JUMP JUMPDEST SWAP2 POP POP SWAP3 SWAP2 POP POP JUMP JUMPDEST PUSH1 0x0 DUP1 PUSH1 0x40 DUP4 DUP6 SUB SLT ISZERO PUSH2 0x14E5 JUMPI PUSH1 0x0 DUP1 REVERT JUMPDEST PUSH1 0x0 PUSH2 0x14F3 DUP6 DUP3 DUP7 ADD PUSH2 0x147F JUMP JUMPDEST SWAP3 POP POP PUSH1 0x20 PUSH2 0x1504 DUP6 DUP3 DUP7 ADD PUSH2 0x147F JUMP JUMPDEST SWAP2 POP POP SWAP3 POP SWAP3 SWAP1 POP JUMP JUMPDEST PUSH1 0x0 DUP1 PUSH1 0x0 PUSH1 0x60 DUP5 DUP7 SUB SLT ISZERO PUSH2 0x1523 JUMPI PUSH1 0x0 DUP1 REVERT JUMPDEST PUSH1 0x0 PUSH2 0x1531 DUP7 DUP3 DUP8 ADD PUSH2 0x147F JUMP JUMPDEST SWAP4 POP POP PUSH1 0x20 PUSH2 0x1542 DUP7 DUP3 DUP8 ADD PUSH2 0x147F JUMP JUMPDEST SWAP3 POP POP PUSH1 0x40 PUSH2 0x1553 DUP7 DUP3 DUP8 ADD PUSH2 0x1494 JUMP JUMPDEST SWAP2 POP POP SWAP3 POP SWAP3 POP SWAP3 JUMP JUMPDEST PUSH1 0x0 DUP1 PUSH1 0x40 DUP4 DUP6 SUB SLT ISZERO PUSH2 0x1570 JUMPI PUSH1 0x0 DUP1 REVERT JUMPDEST PUSH1 0x0 PUSH2 0x157E DUP6 DUP3 DUP7 ADD PUSH2 0x147F JUMP JUMPDEST SWAP3 POP POP PUSH1 0x20 PUSH2 0x158F DUP6 DUP3 DUP7 ADD PUSH2 0x1494 JUMP JUMPDEST SWAP2 POP POP SWAP3 POP SWAP3 SWAP1 POP JUMP JUMPDEST PUSH1 0x0 PUSH1 0x20 DUP3 DUP5 SUB SLT ISZERO PUSH2 0x15AB JUMPI PUSH1 0x0 DUP1 REVERT JUMPDEST PUSH1 0x0 PUSH2 0x15B9 DUP5 DUP3 DUP6 ADD PUSH2 0x1494 JUMP JUMPDEST SWAP2 POP POP SWAP3 SWAP2 POP POP JUMP JUMPDEST PUSH2 0x15CB DUP2 PUSH2 0x1B15 JUMP JUMPDEST DUP3 MSTORE POP POP JUMP JUMPDEST PUSH2 0x15DA DUP2 PUSH2 0x1B27 JUMP JUMPDEST DUP3 MSTORE POP POP JUMP JUMPDEST PUSH1 0x0 PUSH2 0x15EB DUP3 PUSH2 0x1A6F JUMP JUMPDEST PUSH2 0x15F5 DUP2 DUP6 PUSH2 0x1A7A JUMP JUMPDEST SWAP4 POP PUSH2 0x1605 DUP2 DUP6 PUSH1 0x20 DUP7 ADD PUSH2 0x1B6A JUMP JUMPDEST PUSH2 0x160E DUP2 PUSH2 0x1C2D JUMP JUMPDEST DUP5 ADD SWAP2 POP POP SWAP3 SWAP2 POP POP JUMP JUMPDEST PUSH1 0x0 PUSH2 0x1626 PUSH1 0x23 DUP4 PUSH2 0x1A7A JUMP JUMPDEST SWAP2 POP PUSH2 0x1631 DUP3 PUSH2 0x1C3E JUMP JUMPDEST PUSH1 0x40 DUP3 ADD SWAP1 POP SWAP2 SWAP1 POP JUMP JUMPDEST PUSH1 0x0 PUSH2 0x1649 PUSH1 0x14 DUP4 PUSH2 0x1A7A JUMP JUMPDEST SWAP2 POP PUSH2 0x1654 DUP3 PUSH2 0x1C8D JUMP JUMPDEST PUSH1 0x20 DUP3 ADD SWAP1 POP SWAP2 SWAP1 POP JUMP JUMPDEST PUSH1 0x0 PUSH2 0x166C PUSH1 0x22 DUP4 PUSH2 0x1A7A JUMP JUMPDEST SWAP2 POP PUSH2 0x1677 DUP3 PUSH2 0x1CB6 JUMP JUMPDEST PUSH1 0x40 DUP3 ADD SWAP1 POP SWAP2 SWAP1 POP JUMP JUMPDEST PUSH1 0x0 PUSH2 0x168F PUSH1 0x26 DUP4 PUSH2 0x1A7A JUMP JUMPDEST SWAP2 POP PUSH2 0x169A DUP3 PUSH2 0x1D05 JUMP JUMPDEST PUSH1 0x40 DUP3 ADD SWAP1 POP SWAP2 SWAP1 POP JUMP JUMPDEST PUSH1 0x0 PUSH2 0x16B2 PUSH1 0x22 DUP4 PUSH2 0x1A7A JUMP JUMPDEST SWAP2 POP PUSH2 0x16BD DUP3 PUSH2 0x1D54 JUMP JUMPDEST PUSH1 0x40 DUP3 ADD SWAP1 POP SWAP2 SWAP1 POP JUMP JUMPDEST PUSH1 0x0 PUSH2 0x16D5 PUSH1 0x1D DUP4 PUSH2 0x1A7A JUMP JUMPDEST SWAP2 POP PUSH2 0x16E0 DUP3 PUSH2 0x1DA3 JUMP JUMPDEST PUSH1 0x20 DUP3 ADD SWAP1 POP SWAP2 SWAP1 POP JUMP JUMPDEST PUSH1 0x0 PUSH2 0x16F8 PUSH1 0x26 DUP4 PUSH2 0x1A7A JUMP JUMPDEST SWAP2 POP PUSH2 0x1703 DUP3 PUSH2 0x1DCC JUMP JUMPDEST PUSH1 0x40 DUP3 ADD SWAP1 POP SWAP2 SWAP1 POP JUMP JUMPDEST PUSH1 0x0 PUSH2 0x171B PUSH1 0x10 DUP4 PUSH2 0x1A7A JUMP JUMPDEST SWAP2 POP PUSH2 0x1726 DUP3 PUSH2 0x1E1B JUMP JUMPDEST PUSH1 0x20 DUP3 ADD SWAP1 POP SWAP2 SWAP1 POP JUMP JUMPDEST PUSH1 0x0 PUSH2 0x173E PUSH1 0x20 DUP4 PUSH2 0x1A7A JUMP JUMPDEST SWAP2 POP PUSH2 0x1749 DUP3 PUSH2 0x1E44 JUMP JUMPDEST PUSH1 0x20 DUP3 ADD SWAP1 POP SWAP2 SWAP1 POP JUMP JUMPDEST PUSH1 0x0 PUSH2 0x1761 PUSH1 0x21 DUP4 PUSH2 0x1A7A JUMP JUMPDEST SWAP2 POP PUSH2 0x176C DUP3 PUSH2 0x1E6D JUMP JUMPDEST PUSH1 0x40 DUP3 ADD SWAP1 POP SWAP2 SWAP1 POP JUMP JUMPDEST PUSH1 0x0 PUSH2 0x1784 PUSH1 0x25 DUP4 PUSH2 0x1A7A JUMP JUMPDEST SWAP2 POP PUSH2 0x178F DUP3 PUSH2 0x1EBC JUMP JUMPDEST PUSH1 0x40 DUP3 ADD SWAP1 POP SWAP2 SWAP1 POP JUMP JUMPDEST PUSH1 0x0 PUSH2 0x17A7 PUSH1 0x24 DUP4 PUSH2 0x1A7A JUMP JUMPDEST SWAP2 POP PUSH2 0x17B2 DUP3 PUSH2 0x1F0B JUMP JUMPDEST PUSH1 0x40 DUP3 ADD SWAP1 POP SWAP2 SWAP1 POP JUMP JUMPDEST PUSH1 0x0 PUSH2 0x17CA PUSH1 0x25 DUP4 PUSH2 0x1A7A JUMP JUMPDEST SWAP2 POP PUSH2 0x17D5 DUP3 PUSH2 0x1F5A JUMP JUMPDEST PUSH1 0x40 DUP3 ADD SWAP1 POP SWAP2 SWAP1 POP JUMP JUMPDEST PUSH1 0x0 PUSH2 0x17ED PUSH1 0x1F DUP4 PUSH2 0x1A7A JUMP JUMPDEST SWAP2 POP PUSH2 0x17F8 DUP3 PUSH2 0x1FA9 JUMP JUMPDEST PUSH1 0x20 DUP3 ADD SWAP1 POP SWAP2 SWAP1 POP JUMP JUMPDEST PUSH2 0x180C DUP2 PUSH2 0x1B53 JUMP JUMPDEST DUP3 MSTORE POP POP JUMP JUMPDEST PUSH2 0x181B DUP2 PUSH2 0x1B5D JUMP JUMPDEST DUP3 MSTORE POP POP JUMP JUMPDEST PUSH1 0x0 PUSH1 0x20 DUP3 ADD SWAP1 POP PUSH2 0x1836 PUSH1 0x0 DUP4 ADD DUP5 PUSH2 0x15C2 JUMP JUMPDEST SWAP3 SWAP2 POP POP JUMP JUMPDEST PUSH1 0x0 PUSH1 0x20 DUP3 ADD SWAP1 POP PUSH2 0x1851 PUSH1 0x0 DUP4 ADD DUP5 PUSH2 0x15D1 JUMP JUMPDEST SWAP3 SWAP2 POP POP JUMP JUMPDEST PUSH1 0x0 PUSH1 0x20 DUP3 ADD SWAP1 POP DUP2 DUP2 SUB PUSH1 0x0 DUP4 ADD MSTORE PUSH2 0x1871 DUP2 DUP5 PUSH2 0x15E0 JUMP JUMPDEST SWAP1 POP SWAP3 SWAP2 POP POP JUMP JUMPDEST PUSH1 0x0 PUSH1 0x20 DUP3 ADD SWAP1 POP DUP2 DUP2 SUB PUSH1 0x0 DUP4 ADD MSTORE PUSH2 0x1892 DUP2 PUSH2 0x1619 JUMP JUMPDEST SWAP1 POP SWAP2 SWAP1 POP JUMP JUMPDEST PUSH1 0x0 PUSH1 0x20 DUP3 ADD SWAP1 POP DUP2 DUP2 SUB PUSH1 0x0 DUP4 ADD MSTORE PUSH2 0x18B2 DUP2 PUSH2 0x163C JUMP JUMPDEST SWAP1 POP SWAP2 SWAP1 POP JUMP JUMPDEST PUSH1 0x0 PUSH1 0x20 DUP3 ADD SWAP1 POP DUP2 DUP2 SUB PUSH1 0x0 DUP4 ADD MSTORE PUSH2 0x18D2 DUP2 PUSH2 0x165F JUMP JUMPDEST SWAP1 POP SWAP2 SWAP1 POP JUMP JUMPDEST PUSH1 0x0 PUSH1 0x20 DUP3 ADD SWAP1 POP DUP2 DUP2 SUB PUSH1 0x0 DUP4 ADD MSTORE PUSH2 0x18F2 DUP2 PUSH2 0x1682 JUMP JUMPDEST SWAP1 POP SWAP2 SWAP1 POP JUMP JUMPDEST PUSH1 0x0 PUSH1 0x20 DUP3 ADD SWAP1 POP DUP2 DUP2 SUB PUSH1 0x0 DUP4 ADD MSTORE PUSH2 0x1912 DUP2 PUSH2 0x16A5 JUMP JUMPDEST SWAP1 POP SWAP2 SWAP1 POP JUMP JUMPDEST PUSH1 0x0 PUSH1 0x20 DUP3 ADD SWAP1 POP DUP2 DUP2 SUB PUSH1 0x0 DUP4 ADD MSTORE PUSH2 0x1932 DUP2 PUSH2 0x16C8 JUMP JUMPDEST SWAP1 POP SWAP2 SWAP1 POP JUMP JUMPDEST PUSH1 0x0 PUSH1 0x20 DUP3 ADD SWAP1 POP DUP2 DUP2 SUB PUSH1 0x0 DUP4 ADD MSTORE PUSH2 0x1952 DUP2 PUSH2 0x16EB JUMP JUMPDEST SWAP1 POP SWAP2 SWAP1 POP JUMP JUMPDEST PUSH1 0x0 PUSH1 0x20 DUP3 ADD SWAP1 POP DUP2 DUP2 SUB PUSH1 0x0 DUP4 ADD MSTORE PUSH2 0x1972 DUP2 PUSH2 0x170E JUMP JUMPDEST SWAP1 POP SWAP2 SWAP1 POP JUMP JUMPDEST PUSH1 0x0 PUSH1 0x20 DUP3 ADD SWAP1 POP DUP2 DUP2 SUB PUSH1 0x0 DUP4 ADD MSTORE PUSH2 0x1992 DUP2 PUSH2 0x1731 JUMP JUMPDEST SWAP1 POP SWAP2 SWAP1 POP JUMP JUMPDEST PUSH1 0x0 PUSH1 0x20 DUP3 ADD SWAP1 POP DUP2 DUP2 SUB PUSH1 0x0 DUP4 ADD MSTORE PUSH2 0x19B2 DUP2 PUSH2 0x1754 JUMP JUMPDEST SWAP1 POP SWAP2 SWAP1 POP JUMP JUMPDEST PUSH1 0x0 PUSH1 0x20 DUP3 ADD SWAP1 POP DUP2 DUP2 SUB PUSH1 0x0 DUP4 ADD MSTORE PUSH2 0x19D2 DUP2 PUSH2 0x1777 JUMP JUMPDEST SWAP1 POP SWAP2 SWAP1 POP JUMP JUMPDEST PUSH1 0x0 PUSH1 0x20 DUP3 ADD SWAP1 POP DUP2 DUP2 SUB PUSH1 0x0 DUP4 ADD MSTORE PUSH2 0x19F2 DUP2 PUSH2 0x179A JUMP JUMPDEST SWAP1 POP SWAP2 SWAP1 POP JUMP JUMPDEST PUSH1 0x0 PUSH1 0x20 DUP3 ADD SWAP1 POP DUP2 DUP2 SUB PUSH1 0x0 DUP4 ADD MSTORE PUSH2 0x1A12 DUP2 PUSH2 0x17BD JUMP JUMPDEST SWAP1 POP SWAP2 SWAP1 POP JUMP JUMPDEST PUSH1 0x0 PUSH1 0x20 DUP3 ADD SWAP1 POP DUP2 DUP2 SUB PUSH1 0x0 DUP4 ADD MSTORE PUSH2 0x1A32 DUP2 PUSH2 0x17E0 JUMP JUMPDEST SWAP1 POP SWAP2 SWAP1 POP JUMP JUMPDEST PUSH1 0x0 PUSH1 0x20 DUP3 ADD SWAP1 POP PUSH2 0x1A4E PUSH1 0x0 DUP4 ADD DUP5 PUSH2 0x1803 JUMP JUMPDEST SWAP3 SWAP2 POP POP JUMP JUMPDEST PUSH1 0x0 PUSH1 0x20 DUP3 ADD SWAP1 POP PUSH2 0x1A69 PUSH1 0x0 DUP4 ADD DUP5 PUSH2 0x1812 JUMP JUMPDEST SWAP3 SWAP2 POP POP JUMP JUMPDEST PUSH1 0x0 DUP2 MLOAD SWAP1 POP SWAP2 SWAP1 POP JUMP JUMPDEST PUSH1 0x0 DUP3 DUP3 MSTORE PUSH1 0x20 DUP3 ADD SWAP1 POP SWAP3 SWAP2 POP POP JUMP JUMPDEST PUSH1 0x0 PUSH2 0x1A96 DUP3 PUSH2 0x1B53 JUMP JUMPDEST SWAP2 POP PUSH2 0x1AA1 DUP4 PUSH2 0x1B53 JUMP JUMPDEST SWAP3 POP DUP3 PUSH32 0xFFFFFFFFFFFFFFFFFFFFFFFFFFFFFFFFFFFFFFFFFFFFFFFFFFFFFFFFFFFFFFFF SUB DUP3 GT ISZERO PUSH2 0x1AD6 JUMPI PUSH2 0x1AD5 PUSH2 0x1BCF JUMP JUMPDEST JUMPDEST DUP3 DUP3 ADD SWAP1 POP SWAP3 SWAP2 POP POP JUMP JUMPDEST PUSH1 0x0 PUSH2 0x1AEC DUP3 PUSH2 0x1B53 JUMP JUMPDEST SWAP2 POP PUSH2 0x1AF7 DUP4 PUSH2 0x1B53 JUMP JUMPDEST SWAP3 POP DUP3 DUP3 LT ISZERO PUSH2 0x1B0A JUMPI PUSH2 0x1B09 PUSH2 0x1BCF JUMP JUMPDEST JUMPDEST DUP3 DUP3 SUB SWAP1 POP SWAP3 SWAP2 POP POP JUMP JUMPDEST PUSH1 0x0 PUSH2 0x1B20 DUP3 PUSH2 0x1B33 JUMP JUMPDEST SWAP1 POP SWAP2 SWAP1 POP JUMP JUMPDEST PUSH1 0x0 DUP2 ISZERO ISZERO SWAP1 POP SWAP2 SWAP1 POP JUMP JUMPDEST PUSH1 0x0 PUSH20 0xFFFFFFFFFFFFFFFFFFFFFFFFFFFFFFFFFFFFFFFF DUP3 AND SWAP1 POP SWAP2 SWAP1 POP JUMP JUMPDEST PUSH1 0x0 DUP2 SWAP1 POP SWAP2 SWAP1 POP JUMP JUMPDEST PUSH1 0x0 PUSH1 0xFF DUP3 AND SWAP1 POP SWAP2 SWAP1 POP JUMP JUMPDEST PUSH1 0x0 JUMPDEST DUP4 DUP2 LT ISZERO PUSH2 0x1B88 JUMPI DUP1 DUP3 ADD MLOAD DUP2 DUP5 ADD MSTORE PUSH1 0x20 DUP2 ADD SWAP1 POP PUSH2 0x1B6D JUMP JUMPDEST DUP4 DUP2 GT ISZERO PUSH2 0x1B97 JUMPI PUSH1 0x0 DUP5 DUP5 ADD MSTORE JUMPDEST POP POP POP POP JUMP JUMPDEST PUSH1 0x0 PUSH1 0x2 DUP3 DIV SWAP1 POP PUSH1 0x1 DUP3 AND DUP1 PUSH2 0x1BB5 JUMPI PUSH1 0x7F DUP3 AND SWAP2 POP JUMPDEST PUSH1 0x20 DUP3 LT DUP2 EQ ISZERO PUSH2 0x1BC9 JUMPI PUSH2 0x1BC8 PUSH2 0x1BFE JUMP JUMPDEST JUMPDEST POP SWAP2 SWAP1 POP JUMP JUMPDEST PUSH32 0x4E487B7100000000000000000000000000000000000000000000000000000000 PUSH1 0x0 MSTORE PUSH1 0x11 PUSH1 0x4 MSTORE PUSH1 0x24 PUSH1 0x0 REVERT JUMPDEST PUSH32 0x4E487B7100000000000000000000000000000000000000000000000000000000 PUSH1 0x0 MSTORE PUSH1 0x22 PUSH1 0x4 MSTORE PUSH1 0x24 PUSH1 0x0 REVERT JUMPDEST PUSH1 0x0 PUSH1 0x1F NOT PUSH1 0x1F DUP4 ADD AND SWAP1 POP SWAP2 SWAP1 POP JUMP JUMPDEST PUSH32 0x45524332303A207472616E7366657220746F20746865207A65726F2061646472 PUSH1 0x0 DUP3 ADD MSTORE PUSH32 0x6573730000000000000000000000000000000000000000000000000000000000 PUSH1 0x20 DUP3 ADD MSTORE POP JUMP JUMPDEST PUSH32 0x5061757361626C653A206E6F7420706175736564000000000000000000000000 PUSH1 0x0 DUP3 ADD MSTORE POP JUMP JUMPDEST PUSH32 0x45524332303A206275726E20616D6F756E7420657863656564732062616C616E PUSH1 0x0 DUP3 ADD MSTORE PUSH32 0x6365000000000000000000000000000000000000000000000000000000000000 PUSH1 0x20 DUP3 ADD MSTORE POP JUMP JUMPDEST PUSH32 0x4F776E61626C653A206E6577206F776E657220697320746865207A65726F2061 PUSH1 0x0 DUP3 ADD MSTORE PUSH32 0x6464726573730000000000000000000000000000000000000000000000000000 PUSH1 0x20 DUP3 ADD MSTORE POP JUMP JUMPDEST PUSH32 0x45524332303A20617070726F766520746F20746865207A65726F206164647265 PUSH1 0x0 DUP3 ADD MSTORE PUSH32 0x7373000000000000000000000000000000000000000000000000000000000000 PUSH1 0x20 DUP3 ADD MSTORE POP JUMP JUMPDEST PUSH32 0x45524332303A20696E73756666696369656E7420616C6C6F77616E6365000000 PUSH1 0x0 DUP3 ADD MSTORE POP JUMP JUMPDEST PUSH32 0x45524332303A207472616E7366657220616D6F756E7420657863656564732062 PUSH1 0x0 DUP3 ADD MSTORE PUSH32 0x616C616E63650000000000000000000000000000000000000000000000000000 PUSH1 0x20 DUP3 ADD MSTORE POP JUMP JUMPDEST PUSH32 0x5061757361626C653A2070617573656400000000000000000000000000000000 PUSH1 0x0 DUP3 ADD MSTORE POP JUMP JUMPDEST PUSH32 0x4F776E61626C653A2063616C6C6572206973206E6F7420746865206F776E6572 PUSH1 0x0 DUP3 ADD MSTORE POP JUMP JUMPDEST PUSH32 0x45524332303A206275726E2066726F6D20746865207A65726F20616464726573 PUSH1 0x0 DUP3 ADD MSTORE PUSH32 0x7300000000000000000000000000000000000000000000000000000000000000 PUSH1 0x20 DUP3 ADD MSTORE POP JUMP JUMPDEST PUSH32 0x45524332303A207472616E736665722066726F6D20746865207A65726F206164 PUSH1 0x0 DUP3 ADD MSTORE PUSH32 0x6472657373000000000000000000000000000000000000000000000000000000 PUSH1 0x20 DUP3 ADD MSTORE POP JUMP JUMPDEST PUSH32 0x45524332303A20617070726F76652066726F6D20746865207A65726F20616464 PUSH1 0x0 DUP3 ADD MSTORE PUSH32 0x7265737300000000000000000000000000000000000000000000000000000000 PUSH1 0x20 DUP3 ADD MSTORE POP JUMP JUMPDEST PUSH32 0x45524332303A2064656372656173656420616C6C6F77616E63652062656C6F77 PUSH1 0x0 DUP3 ADD MSTORE PUSH32 0x207A65726F000000000000000000000000000000000000000000000000000000 PUSH1 0x20 DUP3 ADD MSTORE POP JUMP JUMPDEST PUSH32 0x45524332303A206D696E7420746F20746865207A65726F206164647265737300 PUSH1 0x0 DUP3 ADD MSTORE POP JUMP JUMPDEST PUSH2 0x1FDB DUP2 PUSH2 0x1B15 JUMP JUMPDEST DUP2 EQ PUSH2 0x1FE6 JUMPI PUSH1 0x0 DUP1 REVERT JUMPDEST POP JUMP JUMPDEST PUSH2 0x1FF2 DUP2 PUSH2 0x1B53 JUMP JUMPDEST DUP2 EQ PUSH2 0x1FFD JUMPI PUSH1 0x0 DUP1 REVERT JUMPDEST POP JUMP INVALID LOG2 PUSH5 0x6970667358 0x22 SLT KECCAK256 SWAP3 0xBE SWAP15 INVALID GASLIMIT 0xD7 0xF6 GASLIMIT 0xBD 0xB4 0x48 0xC2 POP REVERT 0xE4 GASLIMIT 0x2B 0x22 0xDA ADDMOD 0xBF LOG0 0xD2 0x25 0x4E MUL 0xDD REVERT 0x5C MULMOD 0x26 0x2A PUSH5 0x736F6C6343 STOP ADDMOD DIV STOP CALLER "
				},
				"gasEstimates": {
					"creation": {
						"codeDepositCost": "1649200",
						"executionCost": "infinite",
						"totalCost": "infinite"
					},
					"external": {
						"allowance(address,address)": "infinite",
						"approve(address,uint256)": "infinite",
						"balanceOf(address)": "1564",
						"burn(uint256)": "infinite",
						"burnFrom(address,uint256)": "infinite",
						"decimals()": "455",
						"decreaseAllowance(address,uint256)": "infinite",
						"increaseAllowance(address,uint256)": "infinite",
						"mint(address,uint256)": "infinite",
						"name()": "infinite",
						"owner()": "1383",
						"pause()": "infinite",
						"paused()": "1290",
						"renounceOwnership()": "24569",
						"symbol()": "infinite",
						"totalSupply()": "1205",
						"transfer(address,uint256)": "infinite",
						"transferFrom(address,address,uint256)": "infinite",
						"transferOwnership(address)": "24983",
						"unpause()": "infinite"
					},
					"internal": {
						"_beforeTokenTransfer(address,address,uint256)": "infinite"
					}
				},
				"methodIdentifiers": {
					"allowance(address,address)": "dd62ed3e",
					"approve(address,uint256)": "095ea7b3",
					"balanceOf(address)": "70a08231",
					"burn(uint256)": "42966c68",
					"burnFrom(address,uint256)": "79cc6790",
					"decimals()": "313ce567",
					"decreaseAllowance(address,uint256)": "a457c2d7",
					"increaseAllowance(address,uint256)": "39509351",
					"mint(address,uint256)": "40c10f19",
					"name()": "06fdde03",
					"owner()": "8da5cb5b",
					"pause()": "8456cb59",
					"paused()": "5c975abb",
					"renounceOwnership()": "715018a6",
					"symbol()": "95d89b41",
					"totalSupply()": "18160ddd",
					"transfer(address,uint256)": "a9059cbb",
					"transferFrom(address,address,uint256)": "23b872dd",
					"transferOwnership(address)": "f2fde38b",
					"unpause()": "3f4ba83a"
				}
			},
			"storageLayout": {
				"storage": [
					{
						"astId": 15,
						"contract": "ERC20/TitanToken.sol:MyToken",
						"label": "_balances",
						"offset": 0,
						"slot": "0",
						"type": "t_mapping(t_address,t_uint256)"
					},
					{
						"astId": 21,
						"contract": "ERC20/TitanToken.sol:MyToken",
						"label": "_allowances",
						"offset": 0,
						"slot": "1",
						"type": "t_mapping(t_address,t_mapping(t_address,t_uint256))"
					},
					{
						"astId": 23,
						"contract": "ERC20/TitanToken.sol:MyToken",
						"label": "_totalSupply",
						"offset": 0,
						"slot": "2",
						"type": "t_uint256"
					},
					{
						"astId": 25,
						"contract": "ERC20/TitanToken.sol:MyToken",
						"label": "_name",
						"offset": 0,
						"slot": "3",
						"type": "t_string_storage"
					},
					{
						"astId": 27,
						"contract": "ERC20/TitanToken.sol:MyToken",
						"label": "_symbol",
						"offset": 0,
						"slot": "4",
						"type": "t_string_storage"
					},
					{
						"astId": 963,
						"contract": "ERC20/TitanToken.sol:MyToken",
						"label": "_paused",
						"offset": 0,
						"slot": "5",
						"type": "t_bool"
					},
					{
						"astId": 848,
						"contract": "ERC20/TitanToken.sol:MyToken",
						"label": "_owner",
						"offset": 1,
						"slot": "5",
						"type": "t_address"
					}
				],
				"types": {
					"t_address": {
						"encoding": "inplace",
						"label": "address",
						"numberOfBytes": "20"
					},
					"t_bool": {
						"encoding": "inplace",
						"label": "bool",
						"numberOfBytes": "1"
					},
					"t_mapping(t_address,t_mapping(t_address,t_uint256))": {
						"encoding": "mapping",
						"key": "t_address",
						"label": "mapping(address => mapping(address => uint256))",
						"numberOfBytes": "32",
						"value": "t_mapping(t_address,t_uint256)"
					},
					"t_mapping(t_address,t_uint256)": {
						"encoding": "mapping",
						"key": "t_address",
						"label": "mapping(address => uint256)",
						"numberOfBytes": "32",
						"value": "t_uint256"
					},
					"t_string_storage": {
						"encoding": "bytes",
						"label": "string",
						"numberOfBytes": "32"
					},
					"t_uint256": {
						"encoding": "inplace",
						"label": "uint256",
						"numberOfBytes": "32"
					}
				}
			},
			"userdoc": {
				"kind": "user",
				"methods": {},
				"version": 1
			}
		}
	}
}