{
	"ERC20/ERC20.sol": {
		"ERC20": {
			"abi": [
				{
					"inputs": [
						{
							"internalType": "string",
							"name": "name_",
							"type": "string"
						},
						{
							"internalType": "string",
							"name": "symbol_",
							"type": "string"
						}
					],
					"stateMutability": "nonpayable",
					"type": "constructor"
				},
				{
					"anonymous": false,
					"inputs": [
						{
							"indexed": true,
							"internalType": "address",
							"name": "owner",
							"type": "address"
						},
						{
							"indexed": true,
							"internalType": "address",
							"name": "spender",
							"type": "address"
						},
						{
							"indexed": false,
							"internalType": "uint256",
							"name": "value",
							"type": "uint256"
						}
					],
					"name": "Approval",
					"type": "event"
				},
				{
					"anonymous": false,
					"inputs": [
						{
							"indexed": true,
							"internalType": "address",
							"name": "from",
							"type": "address"
						},
						{
							"indexed": true,
							"internalType": "address",
							"name": "to",
							"type": "address"
						},
						{
							"indexed": false,
							"internalType": "uint256",
							"name": "value",
							"type": "uint256"
						}
					],
					"name": "Transfer",
					"type": "event"
				},
				{
					"inputs": [
						{
							"internalType": "address",
							"name": "owner",
							"type": "address"
						},
						{
							"internalType": "address",
							"name": "spender",
							"type": "address"
						}
					],
					"name": "allowance",
					"outputs": [
						{
							"internalType": "uint256",
							"name": "",
							"type": "uint256"
						}
					],
					"stateMutability": "view",
					"type": "function"
				},
				{
					"inputs": [
						{
							"internalType": "address",
							"name": "spender",
							"type": "address"
						},
						{
							"internalType": "uint256",
							"name": "amount",
							"type": "uint256"
						}
					],
					"name": "approve",
					"outputs": [
						{
							"internalType": "bool",
							"name": "",
							"type": "bool"
						}
					],
					"stateMutability": "nonpayable",
					"type": "function"
				},
				{
					"inputs": [
						{
							"internalType": "address",
							"name": "account",
							"type": "address"
						}
					],
					"name": "balanceOf",
					"outputs": [
						{
							"internalType": "uint256",
							"name": "",
							"type": "uint256"
						}
					],
					"stateMutability": "view",
					"type": "function"
				},
				{
					"inputs": [],
					"name": "decimals",
					"outputs": [
						{
							"internalType": "uint8",
							"name": "",
							"type": "uint8"
						}
					],
					"stateMutability": "view",
					"type": "function"
				},
				{
					"inputs": [
						{
							"internalType": "address",
							"name": "spender",
							"type": "address"
						},
						{
							"internalType": "uint256",
							"name": "subtractedValue",
							"type": "uint256"
						}
					],
					"name": "decreaseAllowance",
					"outputs": [
						{
							"internalType": "bool",
							"name": "",
							"type": "bool"
						}
					],
					"stateMutability": "nonpayable",
					"type": "function"
				},
				{
					"inputs": [
						{
							"internalType": "address",
							"name": "spender",
							"type": "address"
						},
						{
							"internalType": "uint256",
							"name": "addedValue",
							"type": "uint256"
						}
					],
					"name": "increaseAllowance",
					"outputs": [
						{
							"internalType": "bool",
							"name": "",
							"type": "bool"
						}
					],
					"stateMutability": "nonpayable",
					"type": "function"
				},
				{
					"inputs": [],
					"name": "name",
					"outputs": [
						{
							"internalType": "string",
							"name": "",
							"type": "string"
						}
					],
					"stateMutability": "view",
					"type": "function"
				},
				{
					"inputs": [],
					"name": "symbol",
					"outputs": [
						{
							"internalType": "string",
							"name": "",
							"type": "string"
						}
					],
					"stateMutability": "view",
					"type": "function"
				},
				{
					"inputs": [],
					"name": "totalSupply",
					"outputs": [
						{
							"internalType": "uint256",
							"name": "",
							"type": "uint256"
						}
					],
					"stateMutability": "view",
					"type": "function"
				},
				{
					"inputs": [
						{
							"internalType": "address",
							"name": "to",
							"type": "address"
						},
						{
							"internalType": "uint256",
							"name": "amount",
							"type": "uint256"
						}
					],
					"name": "transfer",
					"outputs": [
						{
							"internalType": "bool",
							"name": "",
							"type": "bool"
						}
					],
					"stateMutability": "nonpayable",
					"type": "function"
				},
				{
					"inputs": [
						{
							"internalType": "address",
							"name": "from",
							"type": "address"
						},
						{
							"internalType": "address",
							"name": "to",
							"type": "address"
						},
						{
							"internalType": "uint256",
							"name": "amount",
							"type": "uint256"
						}
					],
					"name": "transferFrom",
					"outputs": [
						{
							"internalType": "bool",
							"name": "",
							"type": "bool"
						}
					],
					"stateMutability": "nonpayable",
					"type": "function"
				}
			],
			"devdoc": {
				"details": "Implementation of the {IERC20} interface. z This implementation is agnostic to the way tokens are created. This means that a supply mechanism has to be added in a derived contract using {_mint}. For a generic mechanism see {ERC20PresetMinterPauser}. TIP: For a detailed writeup see our guide https://forum.zeppelin.solutions/t/how-to-implement-erc20-supply-mechanisms/226[How to implement supply mechanisms]. We have followed general OpenZeppelin Contracts guidelines: functions revert instead returning `false` on failure. This behavior is nonetheless conventional and does not conflict with the expectations of ERC20 applications. Additionally, an {Approval} event is emitted on calls to {transferFrom}. This allows applications to reconstruct the allowance for all accounts just by listening to said events. Other implementations of the EIP may not emit these events, as it isn't required by the specification. Finally, the non-standard {decreaseAllowance} and {increaseAllowance} functions have been added to mitigate the well-known issues around setting allowances. See {IERC20-approve}.",
				"kind": "dev",
				"methods": {
					"allowance(address,address)": {
						"details": "See {IERC20-allowance}."
					},
					"approve(address,uint256)": {
						"details": "See {IERC20-approve}. NOTE: If `amount` is the maximum `uint256`, the allowance is not updated on `transferFrom`. This is semantically equivalent to an infinite approval. Requirements: - `spender` cannot be the zero address."
					},
					"balanceOf(address)": {
						"details": "See {IERC20-balanceOf}."
					},
					"constructor": {
						"details": "Sets the values for {name} and {symbol}. The default value of {decimals} is 18. To select a different value for {decimals} you should overload it. All two of these values are immutable: they can only be set once during construction."
					},
					"decimals()": {
						"details": "Returns the number of decimals used to get its user representation. For example, if `decimals` equals `2`, a balance of `505` tokens should be displayed to a user as `5.05` (`505 / 10 ** 2`). Tokens usually opt for a value of 18, imitating the relationship between Ether and Wei. This is the value {ERC20} uses, unless this function is overridden; NOTE: This information is only used for _display_ purposes: it in no way affects any of the arithmetic of the contract, including {IERC20-balanceOf} and {IERC20-transfer}."
					},
					"decreaseAllowance(address,uint256)": {
						"details": "Atomically decreases the allowance granted to `spender` by the caller. This is an alternative to {approve} that can be used as a mitigation for problems described in {IERC20-approve}. Emits an {Approval} event indicating the updated allowance. Requirements: - `spender` cannot be the zero address. - `spender` must have allowance for the caller of at least `subtractedValue`."
					},
					"increaseAllowance(address,uint256)": {
						"details": "Atomically increases the allowance granted to `spender` by the caller. This is an alternative to {approve} that can be used as a mitigation for problems described in {IERC20-approve}. Emits an {Approval} event indicating the updated allowance. Requirements: - `spender` cannot be the zero address."
					},
					"name()": {
						"details": "Returns the name of the token."
					},
					"symbol()": {
						"details": "Returns the symbol of the token, usually a shorter version of the name."
					},
					"totalSupply()": {
						"details": "See {IERC20-totalSupply}."
					},
					"transfer(address,uint256)": {
						"details": "See {IERC20-transfer}. Requirements: - `to` cannot be the zero address. - the caller must have a balance of at least `amount`."
					},
					"transferFrom(address,address,uint256)": {
						"details": "See {IERC20-transferFrom}. Emits an {Approval} event indicating the updated allowance. This is not required by the EIP. See the note at the beginning of {ERC20}. NOTE: Does not update the allowance if the current allowance is the maximum `uint256`. Requirements: - `from` and `to` cannot be the zero address. - `from` must have a balance of at least `amount`. - the caller must have allowance for ``from``'s tokens of at least `amount`."
					}
				},
				"version": 1
			},
			"evm": {
				"assembly": "    /* \"ERC20/ERC20.sol\":1424:12995  contract ERC20 is Context, IERC20, IERC20Metadata {\r... */\n  mstore(0x40, 0x80)\n    /* \"ERC20/ERC20.sol\":2018:2134  constructor(string memory name_, string memory symbol_) {\r... */\n  callvalue\n  dup1\n  iszero\n  tag_1\n  jumpi\n  0x00\n  dup1\n  revert\ntag_1:\n  pop\n  mload(0x40)\n  sub(codesize, bytecodeSize)\n  dup1\n  bytecodeSize\n  dup4\n  codecopy\n  dup2\n  dup2\n  add\n  0x40\n  mstore\n  dup2\n  add\n  swap1\n  tag_2\n  swap2\n  swap1\n  tag_3\n  jump\t// in\ntag_2:\n    /* \"ERC20/ERC20.sol\":2093:2098  name_ */\n  dup2\n    /* \"ERC20/ERC20.sol\":2085:2090  _name */\n  0x03\n    /* \"ERC20/ERC20.sol\":2085:2098  _name = name_ */\n  swap1\n  dup1\n  mload\n  swap1\n  0x20\n  add\n  swap1\n  tag_6\n  swap3\n  swap2\n  swap1\n  tag_7\n  jump\t// in\ntag_6:\n  pop\n    /* \"ERC20/ERC20.sol\":2119:2126  symbol_ */\n  dup1\n    /* \"ERC20/ERC20.sol\":2109:2116  _symbol */\n  0x04\n    /* \"ERC20/ERC20.sol\":2109:2126  _symbol = symbol_ */\n  swap1\n  dup1\n  mload\n  swap1\n  0x20\n  add\n  swap1\n  tag_8\n  swap3\n  swap2\n  swap1\n  tag_7\n  jump\t// in\ntag_8:\n  pop\n    /* \"ERC20/ERC20.sol\":2018:2134  constructor(string memory name_, string memory symbol_) {\r... */\n  pop\n  pop\n    /* \"ERC20/ERC20.sol\":1424:12995  contract ERC20 is Context, IERC20, IERC20Metadata {\r... */\n  jump(tag_9)\ntag_7:\n  dup3\n  dup1\n  sload\n  tag_10\n  swap1\n  tag_11\n  jump\t// in\ntag_10:\n  swap1\n  0x00\n  mstore\n  keccak256(0x00, 0x20)\n  swap1\n  0x1f\n  add\n  0x20\n  swap1\n  div\n  dup2\n  add\n  swap3\n  dup3\n  tag_13\n  jumpi\n  0x00\n  dup6\n  sstore\n  jump(tag_12)\ntag_13:\n  dup3\n  0x1f\n  lt\n  tag_14\n  jumpi\n  dup1\n  mload\n  not(0xff)\n  and\n  dup4\n  dup1\n  add\n  or\n  dup6\n  sstore\n  jump(tag_12)\ntag_14:\n  dup3\n  dup1\n  add\n  0x01\n  add\n  dup6\n  sstore\n  dup3\n  iszero\n  tag_12\n  jumpi\n  swap2\n  dup3\n  add\ntag_15:\n  dup3\n  dup2\n  gt\n  iszero\n  tag_16\n  jumpi\n  dup3\n  mload\n  dup3\n  sstore\n  swap2\n  0x20\n  add\n  swap2\n  swap1\n  0x01\n  add\n  swap1\n  jump(tag_15)\ntag_16:\ntag_12:\n  pop\n  swap1\n  pop\n  tag_17\n  swap2\n  swap1\n  tag_18\n  jump\t// in\ntag_17:\n  pop\n  swap1\n  jump\t// out\ntag_18:\ntag_19:\n  dup1\n  dup3\n  gt\n  iszero\n  tag_20\n  jumpi\n  0x00\n  dup2\n  0x00\n  swap1\n  sstore\n  pop\n  0x01\n  add\n  jump(tag_19)\ntag_20:\n  pop\n  swap1\n  jump\t// out\n    /* \"#utility.yul\":7:361   */\ntag_22:\n    /* \"#utility.yul\":96:101   */\n  0x00\n    /* \"#utility.yul\":121:187   */\n  tag_24\n    /* \"#utility.yul\":137:186   */\n  tag_25\n    /* \"#utility.yul\":179:185   */\n  dup5\n    /* \"#utility.yul\":137:186   */\n  tag_26\n  jump\t// in\ntag_25:\n    /* \"#utility.yul\":121:187   */\n  tag_27\n  jump\t// in\ntag_24:\n    /* \"#utility.yul\":112:187   */\n  swap1\n  pop\n    /* \"#utility.yul\":210:216   */\n  dup3\n    /* \"#utility.yul\":203:208   */\n  dup2\n    /* \"#utility.yul\":196:217   */\n  mstore\n    /* \"#utility.yul\":248:252   */\n  0x20\n    /* \"#utility.yul\":241:246   */\n  dup2\n    /* \"#utility.yul\":237:253   */\n  add\n    /* \"#utility.yul\":286:289   */\n  dup5\n    /* \"#utility.yul\":277:283   */\n  dup5\n    /* \"#utility.yul\":272:275   */\n  dup5\n    /* \"#utility.yul\":268:284   */\n  add\n    /* \"#utility.yul\":265:290   */\n  gt\n    /* \"#utility.yul\":262:264   */\n  iszero\n  tag_28\n  jumpi\n    /* \"#utility.yul\":303:304   */\n  0x00\n    /* \"#utility.yul\":300:301   */\n  dup1\n    /* \"#utility.yul\":293:305   */\n  revert\n    /* \"#utility.yul\":262:264   */\ntag_28:\n    /* \"#utility.yul\":316:355   */\n  tag_29\n    /* \"#utility.yul\":348:354   */\n  dup5\n    /* \"#utility.yul\":343:346   */\n  dup3\n    /* \"#utility.yul\":338:341   */\n  dup6\n    /* \"#utility.yul\":316:355   */\n  tag_30\n  jump\t// in\ntag_29:\n    /* \"#utility.yul\":102:361   */\n  pop\n  swap4\n  swap3\n  pop\n  pop\n  pop\n  jump\t// out\n    /* \"#utility.yul\":381:669   */\ntag_31:\n    /* \"#utility.yul\":448:453   */\n  0x00\n    /* \"#utility.yul\":497:500   */\n  dup3\n    /* \"#utility.yul\":490:494   */\n  0x1f\n    /* \"#utility.yul\":482:488   */\n  dup4\n    /* \"#utility.yul\":478:495   */\n  add\n    /* \"#utility.yul\":474:501   */\n  slt\n    /* \"#utility.yul\":464:466   */\n  tag_33\n  jumpi\n    /* \"#utility.yul\":515:516   */\n  0x00\n    /* \"#utility.yul\":512:513   */\n  dup1\n    /* \"#utility.yul\":505:517   */\n  revert\n    /* \"#utility.yul\":464:466   */\ntag_33:\n    /* \"#utility.yul\":548:554   */\n  dup2\n    /* \"#utility.yul\":542:555   */\n  mload\n    /* \"#utility.yul\":573:663   */\n  tag_34\n    /* \"#utility.yul\":659:662   */\n  dup5\n    /* \"#utility.yul\":651:657   */\n  dup3\n    /* \"#utility.yul\":644:648   */\n  0x20\n    /* \"#utility.yul\":636:642   */\n  dup7\n    /* \"#utility.yul\":632:649   */\n  add\n    /* \"#utility.yul\":573:663   */\n  tag_22\n  jump\t// in\ntag_34:\n    /* \"#utility.yul\":564:663   */\n  swap2\n  pop\n    /* \"#utility.yul\":454:669   */\n  pop\n  swap3\n  swap2\n  pop\n  pop\n  jump\t// out\n    /* \"#utility.yul\":675:1327   */\ntag_3:\n    /* \"#utility.yul\":774:780   */\n  0x00\n    /* \"#utility.yul\":782:788   */\n  dup1\n    /* \"#utility.yul\":831:833   */\n  0x40\n    /* \"#utility.yul\":819:828   */\n  dup4\n    /* \"#utility.yul\":810:817   */\n  dup6\n    /* \"#utility.yul\":806:829   */\n  sub\n    /* \"#utility.yul\":802:834   */\n  slt\n    /* \"#utility.yul\":799:801   */\n  iszero\n  tag_36\n  jumpi\n    /* \"#utility.yul\":847:848   */\n  0x00\n    /* \"#utility.yul\":844:845   */\n  dup1\n    /* \"#utility.yul\":837:849   */\n  revert\n    /* \"#utility.yul\":799:801   */\ntag_36:\n    /* \"#utility.yul\":911:912   */\n  0x00\n    /* \"#utility.yul\":900:909   */\n  dup4\n    /* \"#utility.yul\":896:913   */\n  add\n    /* \"#utility.yul\":890:914   */\n  mload\n    /* \"#utility.yul\":941:959   */\n  0xffffffffffffffff\n    /* \"#utility.yul\":933:939   */\n  dup2\n    /* \"#utility.yul\":930:960   */\n  gt\n    /* \"#utility.yul\":927:929   */\n  iszero\n  tag_37\n  jumpi\n    /* \"#utility.yul\":973:974   */\n  0x00\n    /* \"#utility.yul\":970:971   */\n  dup1\n    /* \"#utility.yul\":963:975   */\n  revert\n    /* \"#utility.yul\":927:929   */\ntag_37:\n    /* \"#utility.yul\":1001:1075   */\n  tag_38\n    /* \"#utility.yul\":1067:1074   */\n  dup6\n    /* \"#utility.yul\":1058:1064   */\n  dup3\n    /* \"#utility.yul\":1047:1056   */\n  dup7\n    /* \"#utility.yul\":1043:1065   */\n  add\n    /* \"#utility.yul\":1001:1075   */\n  tag_31\n  jump\t// in\ntag_38:\n    /* \"#utility.yul\":991:1075   */\n  swap3\n  pop\n    /* \"#utility.yul\":861:1085   */\n  pop\n    /* \"#utility.yul\":1145:1147   */\n  0x20\n    /* \"#utility.yul\":1134:1143   */\n  dup4\n    /* \"#utility.yul\":1130:1148   */\n  add\n    /* \"#utility.yul\":1124:1149   */\n  mload\n    /* \"#utility.yul\":1176:1194   */\n  0xffffffffffffffff\n    /* \"#utility.yul\":1168:1174   */\n  dup2\n    /* \"#utility.yul\":1165:1195   */\n  gt\n    /* \"#utility.yul\":1162:1164   */\n  iszero\n  tag_39\n  jumpi\n    /* \"#utility.yul\":1208:1209   */\n  0x00\n    /* \"#utility.yul\":1205:1206   */\n  dup1\n    /* \"#utility.yul\":1198:1210   */\n  revert\n    /* \"#utility.yul\":1162:1164   */\ntag_39:\n    /* \"#utility.yul\":1236:1310   */\n  tag_40\n    /* \"#utility.yul\":1302:1309   */\n  dup6\n    /* \"#utility.yul\":1293:1299   */\n  dup3\n    /* \"#utility.yul\":1282:1291   */\n  dup7\n    /* \"#utility.yul\":1278:1300   */\n  add\n    /* \"#utility.yul\":1236:1310   */\n  tag_31\n  jump\t// in\ntag_40:\n    /* \"#utility.yul\":1226:1310   */\n  swap2\n  pop\n    /* \"#utility.yul\":1095:1320   */\n  pop\n    /* \"#utility.yul\":789:1327   */\n  swap3\n  pop\n  swap3\n  swap1\n  pop\n  jump\t// out\n    /* \"#utility.yul\":1333:1462   */\ntag_27:\n    /* \"#utility.yul\":1367:1373   */\n  0x00\n    /* \"#utility.yul\":1394:1414   */\n  tag_42\n  tag_43\n  jump\t// in\ntag_42:\n    /* \"#utility.yul\":1384:1414   */\n  swap1\n  pop\n    /* \"#utility.yul\":1423:1456   */\n  tag_44\n    /* \"#utility.yul\":1451:1455   */\n  dup3\n    /* \"#utility.yul\":1443:1449   */\n  dup3\n    /* \"#utility.yul\":1423:1456   */\n  tag_45\n  jump\t// in\ntag_44:\n    /* \"#utility.yul\":1374:1462   */\n  swap2\n  swap1\n  pop\n  jump\t// out\n    /* \"#utility.yul\":1468:1543   */\ntag_43:\n    /* \"#utility.yul\":1501:1507   */\n  0x00\n    /* \"#utility.yul\":1534:1536   */\n  0x40\n    /* \"#utility.yul\":1528:1537   */\n  mload\n    /* \"#utility.yul\":1518:1537   */\n  swap1\n  pop\n    /* \"#utility.yul\":1508:1543   */\n  swap1\n  jump\t// out\n    /* \"#utility.yul\":1549:1857   */\ntag_26:\n    /* \"#utility.yul\":1611:1615   */\n  0x00\n    /* \"#utility.yul\":1701:1719   */\n  0xffffffffffffffff\n    /* \"#utility.yul\":1693:1699   */\n  dup3\n    /* \"#utility.yul\":1690:1720   */\n  gt\n    /* \"#utility.yul\":1687:1689   */\n  iszero\n  tag_48\n  jumpi\n    /* \"#utility.yul\":1723:1741   */\n  tag_49\n  tag_50\n  jump\t// in\ntag_49:\n    /* \"#utility.yul\":1687:1689   */\ntag_48:\n    /* \"#utility.yul\":1761:1790   */\n  tag_51\n    /* \"#utility.yul\":1783:1789   */\n  dup3\n    /* \"#utility.yul\":1761:1790   */\n  tag_52\n  jump\t// in\ntag_51:\n    /* \"#utility.yul\":1753:1790   */\n  swap1\n  pop\n    /* \"#utility.yul\":1845:1849   */\n  0x20\n    /* \"#utility.yul\":1839:1843   */\n  dup2\n    /* \"#utility.yul\":1835:1850   */\n  add\n    /* \"#utility.yul\":1827:1850   */\n  swap1\n  pop\n    /* \"#utility.yul\":1616:1857   */\n  swap2\n  swap1\n  pop\n  jump\t// out\n    /* \"#utility.yul\":1863:2170   */\ntag_30:\n    /* \"#utility.yul\":1931:1932   */\n  0x00\n    /* \"#utility.yul\":1941:2054   */\ntag_54:\n    /* \"#utility.yul\":1955:1961   */\n  dup4\n    /* \"#utility.yul\":1952:1953   */\n  dup2\n    /* \"#utility.yul\":1949:1962   */\n  lt\n    /* \"#utility.yul\":1941:2054   */\n  iszero\n  tag_56\n  jumpi\n    /* \"#utility.yul\":2040:2041   */\n  dup1\n    /* \"#utility.yul\":2035:2038   */\n  dup3\n    /* \"#utility.yul\":2031:2042   */\n  add\n    /* \"#utility.yul\":2025:2043   */\n  mload\n    /* \"#utility.yul\":2021:2022   */\n  dup2\n    /* \"#utility.yul\":2016:2019   */\n  dup5\n    /* \"#utility.yul\":2012:2023   */\n  add\n    /* \"#utility.yul\":2005:2044   */\n  mstore\n    /* \"#utility.yul\":1977:1979   */\n  0x20\n    /* \"#utility.yul\":1974:1975   */\n  dup2\n    /* \"#utility.yul\":1970:1980   */\n  add\n    /* \"#utility.yul\":1965:1980   */\n  swap1\n  pop\n    /* \"#utility.yul\":1941:2054   */\n  jump(tag_54)\ntag_56:\n    /* \"#utility.yul\":2072:2078   */\n  dup4\n    /* \"#utility.yul\":2069:2070   */\n  dup2\n    /* \"#utility.yul\":2066:2079   */\n  gt\n    /* \"#utility.yul\":2063:2065   */\n  iszero\n  tag_57\n  jumpi\n    /* \"#utility.yul\":2152:2153   */\n  0x00\n    /* \"#utility.yul\":2143:2149   */\n  dup5\n    /* \"#utility.yul\":2138:2141   */\n  dup5\n    /* \"#utility.yul\":2134:2150   */\n  add\n    /* \"#utility.yul\":2127:2154   */\n  mstore\n    /* \"#utility.yul\":2063:2065   */\ntag_57:\n    /* \"#utility.yul\":1912:2170   */\n  pop\n  pop\n  pop\n  pop\n  jump\t// out\n    /* \"#utility.yul\":2176:2496   */\ntag_11:\n    /* \"#utility.yul\":2220:2226   */\n  0x00\n    /* \"#utility.yul\":2257:2258   */\n  0x02\n    /* \"#utility.yul\":2251:2255   */\n  dup3\n    /* \"#utility.yul\":2247:2259   */\n  div\n    /* \"#utility.yul\":2237:2259   */\n  swap1\n  pop\n    /* \"#utility.yul\":2304:2305   */\n  0x01\n    /* \"#utility.yul\":2298:2302   */\n  dup3\n    /* \"#utility.yul\":2294:2306   */\n  and\n    /* \"#utility.yul\":2325:2343   */\n  dup1\n    /* \"#utility.yul\":2315:2317   */\n  tag_59\n  jumpi\n    /* \"#utility.yul\":2381:2385   */\n  0x7f\n    /* \"#utility.yul\":2373:2379   */\n  dup3\n    /* \"#utility.yul\":2369:2386   */\n  and\n    /* \"#utility.yul\":2359:2386   */\n  swap2\n  pop\n    /* \"#utility.yul\":2315:2317   */\ntag_59:\n    /* \"#utility.yul\":2443:2445   */\n  0x20\n    /* \"#utility.yul\":2435:2441   */\n  dup3\n    /* \"#utility.yul\":2432:2446   */\n  lt\n    /* \"#utility.yul\":2412:2430   */\n  dup2\n    /* \"#utility.yul\":2409:2447   */\n  eq\n    /* \"#utility.yul\":2406:2408   */\n  iszero\n  tag_60\n  jumpi\n    /* \"#utility.yul\":2462:2480   */\n  tag_61\n  tag_62\n  jump\t// in\ntag_61:\n    /* \"#utility.yul\":2406:2408   */\ntag_60:\n    /* \"#utility.yul\":2227:2496   */\n  pop\n  swap2\n  swap1\n  pop\n  jump\t// out\n    /* \"#utility.yul\":2502:2783   */\ntag_45:\n    /* \"#utility.yul\":2585:2612   */\n  tag_64\n    /* \"#utility.yul\":2607:2611   */\n  dup3\n    /* \"#utility.yul\":2585:2612   */\n  tag_52\n  jump\t// in\ntag_64:\n    /* \"#utility.yul\":2577:2583   */\n  dup2\n    /* \"#utility.yul\":2573:2613   */\n  add\n    /* \"#utility.yul\":2715:2721   */\n  dup2\n    /* \"#utility.yul\":2703:2713   */\n  dup2\n    /* \"#utility.yul\":2700:2722   */\n  lt\n    /* \"#utility.yul\":2679:2697   */\n  0xffffffffffffffff\n    /* \"#utility.yul\":2667:2677   */\n  dup3\n    /* \"#utility.yul\":2664:2698   */\n  gt\n    /* \"#utility.yul\":2661:2723   */\n  or\n    /* \"#utility.yul\":2658:2660   */\n  iszero\n  tag_65\n  jumpi\n    /* \"#utility.yul\":2726:2744   */\n  tag_66\n  tag_50\n  jump\t// in\ntag_66:\n    /* \"#utility.yul\":2658:2660   */\ntag_65:\n    /* \"#utility.yul\":2766:2776   */\n  dup1\n    /* \"#utility.yul\":2762:2764   */\n  0x40\n    /* \"#utility.yul\":2755:2777   */\n  mstore\n    /* \"#utility.yul\":2545:2783   */\n  pop\n  pop\n  pop\n  jump\t// out\n    /* \"#utility.yul\":2789:2969   */\ntag_62:\n    /* \"#utility.yul\":2837:2914   */\n  0x4e487b7100000000000000000000000000000000000000000000000000000000\n    /* \"#utility.yul\":2834:2835   */\n  0x00\n    /* \"#utility.yul\":2827:2915   */\n  mstore\n    /* \"#utility.yul\":2934:2938   */\n  0x22\n    /* \"#utility.yul\":2931:2932   */\n  0x04\n    /* \"#utility.yul\":2924:2939   */\n  mstore\n    /* \"#utility.yul\":2958:2962   */\n  0x24\n    /* \"#utility.yul\":2955:2956   */\n  0x00\n    /* \"#utility.yul\":2948:2963   */\n  revert\n    /* \"#utility.yul\":2975:3155   */\ntag_50:\n    /* \"#utility.yul\":3023:3100   */\n  0x4e487b7100000000000000000000000000000000000000000000000000000000\n    /* \"#utility.yul\":3020:3021   */\n  0x00\n    /* \"#utility.yul\":3013:3101   */\n  mstore\n    /* \"#utility.yul\":3120:3124   */\n  0x41\n    /* \"#utility.yul\":3117:3118   */\n  0x04\n    /* \"#utility.yul\":3110:3125   */\n  mstore\n    /* \"#utility.yul\":3144:3148   */\n  0x24\n    /* \"#utility.yul\":3141:3142   */\n  0x00\n    /* \"#utility.yul\":3134:3149   */\n  revert\n    /* \"#utility.yul\":3161:3263   */\ntag_52:\n    /* \"#utility.yul\":3202:3208   */\n  0x00\n    /* \"#utility.yul\":3253:3255   */\n  0x1f\n    /* \"#utility.yul\":3249:3256   */\n  not\n    /* \"#utility.yul\":3244:3246   */\n  0x1f\n    /* \"#utility.yul\":3237:3242   */\n  dup4\n    /* \"#utility.yul\":3233:3247   */\n  add\n    /* \"#utility.yul\":3229:3257   */\n  and\n    /* \"#utility.yul\":3219:3257   */\n  swap1\n  pop\n    /* \"#utility.yul\":3209:3263   */\n  swap2\n  swap1\n  pop\n  jump\t// out\n    /* \"ERC20/ERC20.sol\":1424:12995  contract ERC20 is Context, IERC20, IERC20Metadata {\r... */\ntag_9:\n  dataSize(sub_0)\n  dup1\n  dataOffset(sub_0)\n  0x00\n  codecopy\n  0x00\n  return\nstop\n\nsub_0: assembly {\n        /* \"ERC20/ERC20.sol\":1424:12995  contract ERC20 is Context, IERC20, IERC20Metadata {\r... */\n      mstore(0x40, 0x80)\n      callvalue\n      dup1\n      iszero\n      tag_1\n      jumpi\n      0x00\n      dup1\n      revert\n    tag_1:\n      pop\n      jumpi(tag_2, lt(calldatasize, 0x04))\n      shr(0xe0, calldataload(0x00))\n      dup1\n      0x39509351\n      gt\n      tag_14\n      jumpi\n      dup1\n      0x39509351\n      eq\n      tag_8\n      jumpi\n      dup1\n      0x70a08231\n      eq\n      tag_9\n      jumpi\n      dup1\n      0x95d89b41\n      eq\n      tag_10\n      jumpi\n      dup1\n      0xa457c2d7\n      eq\n      tag_11\n      jumpi\n      dup1\n      0xa9059cbb\n      eq\n      tag_12\n      jumpi\n      dup1\n      0xdd62ed3e\n      eq\n      tag_13\n      jumpi\n      jump(tag_2)\n    tag_14:\n      dup1\n      0x06fdde03\n      eq\n      tag_3\n      jumpi\n      dup1\n      0x095ea7b3\n      eq\n      tag_4\n      jumpi\n      dup1\n      0x18160ddd\n      eq\n      tag_5\n      jumpi\n      dup1\n      0x23b872dd\n      eq\n      tag_6\n      jumpi\n      dup1\n      0x313ce567\n      eq\n      tag_7\n      jumpi\n    tag_2:\n      0x00\n      dup1\n      revert\n        /* \"ERC20/ERC20.sol\":2204:2304  function name() public view virtual override returns (string memory) {\r... */\n    tag_3:\n      tag_15\n      tag_16\n      jump\t// in\n    tag_15:\n      mload(0x40)\n      tag_17\n      swap2\n      swap1\n      tag_18\n      jump\t// in\n    tag_17:\n      mload(0x40)\n      dup1\n      swap2\n      sub\n      swap1\n      return\n        /* \"ERC20/ERC20.sol\":4555:4756  function approve(address spender, uint256 amount) public virtual override returns (bool) {\r... */\n    tag_4:\n      tag_19\n      0x04\n      dup1\n      calldatasize\n      sub\n      dup2\n      add\n      swap1\n      tag_20\n      swap2\n      swap1\n      tag_21\n      jump\t// in\n    tag_20:\n      tag_22\n      jump\t// in\n    tag_19:\n      mload(0x40)\n      tag_23\n      swap2\n      swap1\n      tag_24\n      jump\t// in\n    tag_23:\n      mload(0x40)\n      dup1\n      swap2\n      sub\n      swap1\n      return\n        /* \"ERC20/ERC20.sol\":3324:3432  function totalSupply() public view virtual override returns (uint256) {\r... */\n    tag_5:\n      tag_25\n      tag_26\n      jump\t// in\n    tag_25:\n      mload(0x40)\n      tag_27\n      swap2\n      swap1\n      tag_28\n      jump\t// in\n    tag_27:\n      mload(0x40)\n      dup1\n      swap2\n      sub\n      swap1\n      return\n        /* \"ERC20/ERC20.sol\":5336:5631  function transferFrom(\r... */\n    tag_6:\n      tag_29\n      0x04\n      dup1\n      calldatasize\n      sub\n      dup2\n      add\n      swap1\n      tag_30\n      swap2\n      swap1\n      tag_31\n      jump\t// in\n    tag_30:\n      tag_32\n      jump\t// in\n    tag_29:\n      mload(0x40)\n      tag_33\n      swap2\n      swap1\n      tag_24\n      jump\t// in\n    tag_33:\n      mload(0x40)\n      dup1\n      swap2\n      sub\n      swap1\n      return\n        /* \"ERC20/ERC20.sol\":3166:3259  function decimals() public view virtual override returns (uint8) {\r... */\n    tag_7:\n      tag_34\n      tag_35\n      jump\t// in\n    tag_34:\n      mload(0x40)\n      tag_36\n      swap2\n      swap1\n      tag_37\n      jump\t// in\n    tag_36:\n      mload(0x40)\n      dup1\n      swap2\n      sub\n      swap1\n      return\n        /* \"ERC20/ERC20.sol\":6040:6278  function increaseAllowance(address spender, uint256 addedValue) public virtual returns (bool) {\r... */\n    tag_8:\n      tag_38\n      0x04\n      dup1\n      calldatasize\n      sub\n      dup2\n      add\n      swap1\n      tag_39\n      swap2\n      swap1\n      tag_21\n      jump\t// in\n    tag_39:\n      tag_40\n      jump\t// in\n    tag_38:\n      mload(0x40)\n      tag_41\n      swap2\n      swap1\n      tag_24\n      jump\t// in\n    tag_41:\n      mload(0x40)\n      dup1\n      swap2\n      sub\n      swap1\n      return\n        /* \"ERC20/ERC20.sol\":3495:3622  function balanceOf(address account) public view virtual override returns (uint256) {\r... */\n    tag_9:\n      tag_42\n      0x04\n      dup1\n      calldatasize\n      sub\n      dup2\n      add\n      swap1\n      tag_43\n      swap2\n      swap1\n      tag_44\n      jump\t// in\n    tag_43:\n      tag_45\n      jump\t// in\n    tag_42:\n      mload(0x40)\n      tag_46\n      swap2\n      swap1\n      tag_28\n      jump\t// in\n    tag_46:\n      mload(0x40)\n      dup1\n      swap2\n      sub\n      swap1\n      return\n        /* \"ERC20/ERC20.sol\":2423:2527  function symbol() public view virtual override returns (string memory) {\r... */\n    tag_10:\n      tag_47\n      tag_48\n      jump\t// in\n    tag_47:\n      mload(0x40)\n      tag_49\n      swap2\n      swap1\n      tag_18\n      jump\t// in\n    tag_49:\n      mload(0x40)\n      dup1\n      swap2\n      sub\n      swap1\n      return\n        /* \"ERC20/ERC20.sol\":6781:7217  function decreaseAllowance(address spender, uint256 subtractedValue) public virtual returns (bool) {\r... */\n    tag_11:\n      tag_50\n      0x04\n      dup1\n      calldatasize\n      sub\n      dup2\n      add\n      swap1\n      tag_51\n      swap2\n      swap1\n      tag_21\n      jump\t// in\n    tag_51:\n      tag_52\n      jump\t// in\n    tag_50:\n      mload(0x40)\n      tag_53\n      swap2\n      swap1\n      tag_24\n      jump\t// in\n    tag_53:\n      mload(0x40)\n      dup1\n      swap2\n      sub\n      swap1\n      return\n        /* \"ERC20/ERC20.sol\":3828:4021  function transfer(address to, uint256 amount) public virtual override returns (bool) {\r... */\n    tag_12:\n      tag_54\n      0x04\n      dup1\n      calldatasize\n      sub\n      dup2\n      add\n      swap1\n      tag_55\n      swap2\n      swap1\n      tag_21\n      jump\t// in\n    tag_55:\n      tag_56\n      jump\t// in\n    tag_54:\n      mload(0x40)\n      tag_57\n      swap2\n      swap1\n      tag_24\n      jump\t// in\n    tag_57:\n      mload(0x40)\n      dup1\n      swap2\n      sub\n      swap1\n      return\n        /* \"ERC20/ERC20.sol\":4084:4235  function allowance(address owner, address spender) public view virtual override returns (uint256) {\r... */\n    tag_13:\n      tag_58\n      0x04\n      dup1\n      calldatasize\n      sub\n      dup2\n      add\n      swap1\n      tag_59\n      swap2\n      swap1\n      tag_60\n      jump\t// in\n    tag_59:\n      tag_61\n      jump\t// in\n    tag_58:\n      mload(0x40)\n      tag_62\n      swap2\n      swap1\n      tag_28\n      jump\t// in\n    tag_62:\n      mload(0x40)\n      dup1\n      swap2\n      sub\n      swap1\n      return\n        /* \"ERC20/ERC20.sol\":2204:2304  function name() public view virtual override returns (string memory) {\r... */\n    tag_16:\n        /* \"ERC20/ERC20.sol\":2258:2271  string memory */\n      0x60\n        /* \"ERC20/ERC20.sol\":2291:2296  _name */\n      0x03\n        /* \"ERC20/ERC20.sol\":2284:2296  return _name */\n      dup1\n      sload\n      tag_64\n      swap1\n      tag_65\n      jump\t// in\n    tag_64:\n      dup1\n      0x1f\n      add\n      0x20\n      dup1\n      swap2\n      div\n      mul\n      0x20\n      add\n      mload(0x40)\n      swap1\n      dup2\n      add\n      0x40\n      mstore\n      dup1\n      swap3\n      swap2\n      swap1\n      dup2\n      dup2\n      mstore\n      0x20\n      add\n      dup3\n      dup1\n      sload\n      tag_66\n      swap1\n      tag_65\n      jump\t// in\n    tag_66:\n      dup1\n      iszero\n      tag_67\n      jumpi\n      dup1\n      0x1f\n      lt\n      tag_68\n      jumpi\n      0x0100\n      dup1\n      dup4\n      sload\n      div\n      mul\n      dup4\n      mstore\n      swap2\n      0x20\n      add\n      swap2\n      jump(tag_67)\n    tag_68:\n      dup3\n      add\n      swap2\n      swap1\n      0x00\n      mstore\n      keccak256(0x00, 0x20)\n      swap1\n    tag_69:\n      dup2\n      sload\n      dup2\n      mstore\n      swap1\n      0x01\n      add\n      swap1\n      0x20\n      add\n      dup1\n      dup4\n      gt\n      tag_69\n      jumpi\n      dup3\n      swap1\n      sub\n      0x1f\n      and\n      dup3\n      add\n      swap2\n    tag_67:\n      pop\n      pop\n      pop\n      pop\n      pop\n      swap1\n      pop\n        /* \"ERC20/ERC20.sol\":2204:2304  function name() public view virtual override returns (string memory) {\r... */\n      swap1\n      jump\t// out\n        /* \"ERC20/ERC20.sol\":4555:4756  function approve(address spender, uint256 amount) public virtual override returns (bool) {\r... */\n    tag_22:\n        /* \"ERC20/ERC20.sol\":4638:4642  bool */\n      0x00\n        /* \"ERC20/ERC20.sol\":4655:4668  address owner */\n      dup1\n        /* \"ERC20/ERC20.sol\":4671:4683  _msgSender() */\n      tag_71\n        /* \"ERC20/ERC20.sol\":4671:4681  _msgSender */\n      tag_72\n        /* \"ERC20/ERC20.sol\":4671:4683  _msgSender() */\n      jump\t// in\n    tag_71:\n        /* \"ERC20/ERC20.sol\":4655:4683  address owner = _msgSender() */\n      swap1\n      pop\n        /* \"ERC20/ERC20.sol\":4694:4726  _approve(owner, spender, amount) */\n      tag_73\n        /* \"ERC20/ERC20.sol\":4703:4708  owner */\n      dup2\n        /* \"ERC20/ERC20.sol\":4710:4717  spender */\n      dup6\n        /* \"ERC20/ERC20.sol\":4719:4725  amount */\n      dup6\n        /* \"ERC20/ERC20.sol\":4694:4702  _approve */\n      tag_74\n        /* \"ERC20/ERC20.sol\":4694:4726  _approve(owner, spender, amount) */\n      jump\t// in\n    tag_73:\n        /* \"ERC20/ERC20.sol\":4744:4748  true */\n      0x01\n        /* \"ERC20/ERC20.sol\":4737:4748  return true */\n      swap2\n      pop\n      pop\n        /* \"ERC20/ERC20.sol\":4555:4756  function approve(address spender, uint256 amount) public virtual override returns (bool) {\r... */\n      swap3\n      swap2\n      pop\n      pop\n      jump\t// out\n        /* \"ERC20/ERC20.sol\":3324:3432  function totalSupply() public view virtual override returns (uint256) {\r... */\n    tag_26:\n        /* \"ERC20/ERC20.sol\":3385:3392  uint256 */\n      0x00\n        /* \"ERC20/ERC20.sol\":3412:3424  _totalSupply */\n      sload(0x02)\n        /* \"ERC20/ERC20.sol\":3405:3424  return _totalSupply */\n      swap1\n      pop\n        /* \"ERC20/ERC20.sol\":3324:3432  function totalSupply() public view virtual override returns (uint256) {\r... */\n      swap1\n      jump\t// out\n        /* \"ERC20/ERC20.sol\":5336:5631  function transferFrom(\r... */\n    tag_32:\n        /* \"ERC20/ERC20.sol\":5467:5471  bool */\n      0x00\n        /* \"ERC20/ERC20.sol\":5484:5499  address spender */\n      dup1\n        /* \"ERC20/ERC20.sol\":5502:5514  _msgSender() */\n      tag_77\n        /* \"ERC20/ERC20.sol\":5502:5512  _msgSender */\n      tag_72\n        /* \"ERC20/ERC20.sol\":5502:5514  _msgSender() */\n      jump\t// in\n    tag_77:\n        /* \"ERC20/ERC20.sol\":5484:5514  address spender = _msgSender() */\n      swap1\n      pop\n        /* \"ERC20/ERC20.sol\":5525:5563  _spendAllowance(from, spender, amount) */\n      tag_78\n        /* \"ERC20/ERC20.sol\":5541:5545  from */\n      dup6\n        /* \"ERC20/ERC20.sol\":5547:5554  spender */\n      dup3\n        /* \"ERC20/ERC20.sol\":5556:5562  amount */\n      dup6\n        /* \"ERC20/ERC20.sol\":5525:5540  _spendAllowance */\n      tag_79\n        /* \"ERC20/ERC20.sol\":5525:5563  _spendAllowance(from, spender, amount) */\n      jump\t// in\n    tag_78:\n        /* \"ERC20/ERC20.sol\":5574:5601  _transfer(from, to, amount) */\n      tag_80\n        /* \"ERC20/ERC20.sol\":5584:5588  from */\n      dup6\n        /* \"ERC20/ERC20.sol\":5590:5592  to */\n      dup6\n        /* \"ERC20/ERC20.sol\":5594:5600  amount */\n      dup6\n        /* \"ERC20/ERC20.sol\":5574:5583  _transfer */\n      tag_81\n        /* \"ERC20/ERC20.sol\":5574:5601  _transfer(from, to, amount) */\n      jump\t// in\n    tag_80:\n        /* \"ERC20/ERC20.sol\":5619:5623  true */\n      0x01\n        /* \"ERC20/ERC20.sol\":5612:5623  return true */\n      swap2\n      pop\n      pop\n        /* \"ERC20/ERC20.sol\":5336:5631  function transferFrom(\r... */\n      swap4\n      swap3\n      pop\n      pop\n      pop\n      jump\t// out\n        /* \"ERC20/ERC20.sol\":3166:3259  function decimals() public view virtual override returns (uint8) {\r... */\n    tag_35:\n        /* \"ERC20/ERC20.sol\":3224:3229  uint8 */\n      0x00\n        /* \"ERC20/ERC20.sol\":3249:3251  18 */\n      0x12\n        /* \"ERC20/ERC20.sol\":3242:3251  return 18 */\n      swap1\n      pop\n        /* \"ERC20/ERC20.sol\":3166:3259  function decimals() public view virtual override returns (uint8) {\r... */\n      swap1\n      jump\t// out\n        /* \"ERC20/ERC20.sol\":6040:6278  function increaseAllowance(address spender, uint256 addedValue) public virtual returns (bool) {\r... */\n    tag_40:\n        /* \"ERC20/ERC20.sol\":6128:6132  bool */\n      0x00\n        /* \"ERC20/ERC20.sol\":6145:6158  address owner */\n      dup1\n        /* \"ERC20/ERC20.sol\":6161:6173  _msgSender() */\n      tag_84\n        /* \"ERC20/ERC20.sol\":6161:6171  _msgSender */\n      tag_72\n        /* \"ERC20/ERC20.sol\":6161:6173  _msgSender() */\n      jump\t// in\n    tag_84:\n        /* \"ERC20/ERC20.sol\":6145:6173  address owner = _msgSender() */\n      swap1\n      pop\n        /* \"ERC20/ERC20.sol\":6184:6248  _approve(owner, spender, allowance(owner, spender) + addedValue) */\n      tag_85\n        /* \"ERC20/ERC20.sol\":6193:6198  owner */\n      dup2\n        /* \"ERC20/ERC20.sol\":6200:6207  spender */\n      dup6\n        /* \"ERC20/ERC20.sol\":6237:6247  addedValue */\n      dup6\n        /* \"ERC20/ERC20.sol\":6209:6234  allowance(owner, spender) */\n      tag_86\n        /* \"ERC20/ERC20.sol\":6219:6224  owner */\n      dup6\n        /* \"ERC20/ERC20.sol\":6226:6233  spender */\n      dup10\n        /* \"ERC20/ERC20.sol\":6209:6218  allowance */\n      tag_61\n        /* \"ERC20/ERC20.sol\":6209:6234  allowance(owner, spender) */\n      jump\t// in\n    tag_86:\n        /* \"ERC20/ERC20.sol\":6209:6247  allowance(owner, spender) + addedValue */\n      tag_87\n      swap2\n      swap1\n      tag_88\n      jump\t// in\n    tag_87:\n        /* \"ERC20/ERC20.sol\":6184:6192  _approve */\n      tag_74\n        /* \"ERC20/ERC20.sol\":6184:6248  _approve(owner, spender, allowance(owner, spender) + addedValue) */\n      jump\t// in\n    tag_85:\n        /* \"ERC20/ERC20.sol\":6266:6270  true */\n      0x01\n        /* \"ERC20/ERC20.sol\":6259:6270  return true */\n      swap2\n      pop\n      pop\n        /* \"ERC20/ERC20.sol\":6040:6278  function increaseAllowance(address spender, uint256 addedValue) public virtual returns (bool) {\r... */\n      swap3\n      swap2\n      pop\n      pop\n      jump\t// out\n        /* \"ERC20/ERC20.sol\":3495:3622  function balanceOf(address account) public view virtual override returns (uint256) {\r... */\n    tag_45:\n        /* \"ERC20/ERC20.sol\":3569:3576  uint256 */\n      0x00\n        /* \"ERC20/ERC20.sol\":3596:3605  _balances */\n      dup1\n        /* \"ERC20/ERC20.sol\":3596:3614  _balances[account] */\n      0x00\n        /* \"ERC20/ERC20.sol\":3606:3613  account */\n      dup4\n        /* \"ERC20/ERC20.sol\":3596:3614  _balances[account] */\n      0xffffffffffffffffffffffffffffffffffffffff\n      and\n      0xffffffffffffffffffffffffffffffffffffffff\n      and\n      dup2\n      mstore\n      0x20\n      add\n      swap1\n      dup2\n      mstore\n      0x20\n      add\n      0x00\n      keccak256\n      sload\n        /* \"ERC20/ERC20.sol\":3589:3614  return _balances[account] */\n      swap1\n      pop\n        /* \"ERC20/ERC20.sol\":3495:3622  function balanceOf(address account) public view virtual override returns (uint256) {\r... */\n      swap2\n      swap1\n      pop\n      jump\t// out\n        /* \"ERC20/ERC20.sol\":2423:2527  function symbol() public view virtual override returns (string memory) {\r... */\n    tag_48:\n        /* \"ERC20/ERC20.sol\":2479:2492  string memory */\n      0x60\n        /* \"ERC20/ERC20.sol\":2512:2519  _symbol */\n      0x04\n        /* \"ERC20/ERC20.sol\":2505:2519  return _symbol */\n      dup1\n      sload\n      tag_91\n      swap1\n      tag_65\n      jump\t// in\n    tag_91:\n      dup1\n      0x1f\n      add\n      0x20\n      dup1\n      swap2\n      div\n      mul\n      0x20\n      add\n      mload(0x40)\n      swap1\n      dup2\n      add\n      0x40\n      mstore\n      dup1\n      swap3\n      swap2\n      swap1\n      dup2\n      dup2\n      mstore\n      0x20\n      add\n      dup3\n      dup1\n      sload\n      tag_92\n      swap1\n      tag_65\n      jump\t// in\n    tag_92:\n      dup1\n      iszero\n      tag_93\n      jumpi\n      dup1\n      0x1f\n      lt\n      tag_94\n      jumpi\n      0x0100\n      dup1\n      dup4\n      sload\n      div\n      mul\n      dup4\n      mstore\n      swap2\n      0x20\n      add\n      swap2\n      jump(tag_93)\n    tag_94:\n      dup3\n      add\n      swap2\n      swap1\n      0x00\n      mstore\n      keccak256(0x00, 0x20)\n      swap1\n    tag_95:\n      dup2\n      sload\n      dup2\n      mstore\n      swap1\n      0x01\n      add\n      swap1\n      0x20\n      add\n      dup1\n      dup4\n      gt\n      tag_95\n      jumpi\n      dup3\n      swap1\n      sub\n      0x1f\n      and\n      dup3\n      add\n      swap2\n    tag_93:\n      pop\n      pop\n      pop\n      pop\n      pop\n      swap1\n      pop\n        /* \"ERC20/ERC20.sol\":2423:2527  function symbol() public view virtual override returns (string memory) {\r... */\n      swap1\n      jump\t// out\n        /* \"ERC20/ERC20.sol\":6781:7217  function decreaseAllowance(address spender, uint256 subtractedValue) public virtual returns (bool) {\r... */\n    tag_52:\n        /* \"ERC20/ERC20.sol\":6874:6878  bool */\n      0x00\n        /* \"ERC20/ERC20.sol\":6891:6904  address owner */\n      dup1\n        /* \"ERC20/ERC20.sol\":6907:6919  _msgSender() */\n      tag_97\n        /* \"ERC20/ERC20.sol\":6907:6917  _msgSender */\n      tag_72\n        /* \"ERC20/ERC20.sol\":6907:6919  _msgSender() */\n      jump\t// in\n    tag_97:\n        /* \"ERC20/ERC20.sol\":6891:6919  address owner = _msgSender() */\n      swap1\n      pop\n        /* \"ERC20/ERC20.sol\":6930:6954  uint256 currentAllowance */\n      0x00\n        /* \"ERC20/ERC20.sol\":6957:6982  allowance(owner, spender) */\n      tag_98\n        /* \"ERC20/ERC20.sol\":6967:6972  owner */\n      dup3\n        /* \"ERC20/ERC20.sol\":6974:6981  spender */\n      dup7\n        /* \"ERC20/ERC20.sol\":6957:6966  allowance */\n      tag_61\n        /* \"ERC20/ERC20.sol\":6957:6982  allowance(owner, spender) */\n      jump\t// in\n    tag_98:\n        /* \"ERC20/ERC20.sol\":6930:6982  uint256 currentAllowance = allowance(owner, spender) */\n      swap1\n      pop\n        /* \"ERC20/ERC20.sol\":7021:7036  subtractedValue */\n      dup4\n        /* \"ERC20/ERC20.sol\":7001:7017  currentAllowance */\n      dup2\n        /* \"ERC20/ERC20.sol\":7001:7036  currentAllowance >= subtractedValue */\n      lt\n      iszero\n        /* \"ERC20/ERC20.sol\":6993:7078  require(currentAllowance >= subtractedValue, \"ERC20: decreased allowance below zero\") */\n      tag_99\n      jumpi\n      mload(0x40)\n      0x08c379a000000000000000000000000000000000000000000000000000000000\n      dup2\n      mstore\n      0x04\n      add\n      tag_100\n      swap1\n      tag_101\n      jump\t// in\n    tag_100:\n      mload(0x40)\n      dup1\n      swap2\n      sub\n      swap1\n      revert\n    tag_99:\n        /* \"ERC20/ERC20.sol\":7114:7174  _approve(owner, spender, currentAllowance - subtractedValue) */\n      tag_102\n        /* \"ERC20/ERC20.sol\":7123:7128  owner */\n      dup3\n        /* \"ERC20/ERC20.sol\":7130:7137  spender */\n      dup7\n        /* \"ERC20/ERC20.sol\":7158:7173  subtractedValue */\n      dup7\n        /* \"ERC20/ERC20.sol\":7139:7155  currentAllowance */\n      dup5\n        /* \"ERC20/ERC20.sol\":7139:7173  currentAllowance - subtractedValue */\n      sub\n        /* \"ERC20/ERC20.sol\":7114:7122  _approve */\n      tag_74\n        /* \"ERC20/ERC20.sol\":7114:7174  _approve(owner, spender, currentAllowance - subtractedValue) */\n      jump\t// in\n    tag_102:\n        /* \"ERC20/ERC20.sol\":7205:7209  true */\n      0x01\n        /* \"ERC20/ERC20.sol\":7198:7209  return true */\n      swap3\n      pop\n      pop\n      pop\n        /* \"ERC20/ERC20.sol\":6781:7217  function decreaseAllowance(address spender, uint256 subtractedValue) public virtual returns (bool) {\r... */\n      swap3\n      swap2\n      pop\n      pop\n      jump\t// out\n        /* \"ERC20/ERC20.sol\":3828:4021  function transfer(address to, uint256 amount) public virtual override returns (bool) {\r... */\n    tag_56:\n        /* \"ERC20/ERC20.sol\":3907:3911  bool */\n      0x00\n        /* \"ERC20/ERC20.sol\":3924:3937  address owner */\n      dup1\n        /* \"ERC20/ERC20.sol\":3940:3952  _msgSender() */\n      tag_104\n        /* \"ERC20/ERC20.sol\":3940:3950  _msgSender */\n      tag_72\n        /* \"ERC20/ERC20.sol\":3940:3952  _msgSender() */\n      jump\t// in\n    tag_104:\n        /* \"ERC20/ERC20.sol\":3924:3952  address owner = _msgSender() */\n      swap1\n      pop\n        /* \"ERC20/ERC20.sol\":3963:3991  _transfer(owner, to, amount) */\n      tag_105\n        /* \"ERC20/ERC20.sol\":3973:3978  owner */\n      dup2\n        /* \"ERC20/ERC20.sol\":3980:3982  to */\n      dup6\n        /* \"ERC20/ERC20.sol\":3984:3990  amount */\n      dup6\n        /* \"ERC20/ERC20.sol\":3963:3972  _transfer */\n      tag_81\n        /* \"ERC20/ERC20.sol\":3963:3991  _transfer(owner, to, amount) */\n      jump\t// in\n    tag_105:\n        /* \"ERC20/ERC20.sol\":4009:4013  true */\n      0x01\n        /* \"ERC20/ERC20.sol\":4002:4013  return true */\n      swap2\n      pop\n      pop\n        /* \"ERC20/ERC20.sol\":3828:4021  function transfer(address to, uint256 amount) public virtual override returns (bool) {\r... */\n      swap3\n      swap2\n      pop\n      pop\n      jump\t// out\n        /* \"ERC20/ERC20.sol\":4084:4235  function allowance(address owner, address spender) public view virtual override returns (uint256) {\r... */\n    tag_61:\n        /* \"ERC20/ERC20.sol\":4173:4180  uint256 */\n      0x00\n        /* \"ERC20/ERC20.sol\":4200:4211  _allowances */\n      0x01\n        /* \"ERC20/ERC20.sol\":4200:4218  _allowances[owner] */\n      0x00\n        /* \"ERC20/ERC20.sol\":4212:4217  owner */\n      dup5\n        /* \"ERC20/ERC20.sol\":4200:4218  _allowances[owner] */\n      0xffffffffffffffffffffffffffffffffffffffff\n      and\n      0xffffffffffffffffffffffffffffffffffffffff\n      and\n      dup2\n      mstore\n      0x20\n      add\n      swap1\n      dup2\n      mstore\n      0x20\n      add\n      0x00\n      keccak256\n        /* \"ERC20/ERC20.sol\":4200:4227  _allowances[owner][spender] */\n      0x00\n        /* \"ERC20/ERC20.sol\":4219:4226  spender */\n      dup4\n        /* \"ERC20/ERC20.sol\":4200:4227  _allowances[owner][spender] */\n      0xffffffffffffffffffffffffffffffffffffffff\n      and\n      0xffffffffffffffffffffffffffffffffffffffff\n      and\n      dup2\n      mstore\n      0x20\n      add\n      swap1\n      dup2\n      mstore\n      0x20\n      add\n      0x00\n      keccak256\n      sload\n        /* \"ERC20/ERC20.sol\":4193:4227  return _allowances[owner][spender] */\n      swap1\n      pop\n        /* \"ERC20/ERC20.sol\":4084:4235  function allowance(address owner, address spender) public view virtual override returns (uint256) {\r... */\n      swap3\n      swap2\n      pop\n      pop\n      jump\t// out\n        /* \"Utils/Context.sol\":656:754  function _msgSender() internal view virtual returns (address) {\r... */\n    tag_72:\n        /* \"Utils/Context.sol\":709:716  address */\n      0x00\n        /* \"Utils/Context.sol\":736:746  msg.sender */\n      caller\n        /* \"Utils/Context.sol\":729:746  return msg.sender */\n      swap1\n      pop\n        /* \"Utils/Context.sol\":656:754  function _msgSender() internal view virtual returns (address) {\r... */\n      swap1\n      jump\t// out\n        /* \"ERC20/ERC20.sol\":10415:10795  function _approve(\r... */\n    tag_74:\n        /* \"ERC20/ERC20.sol\":10568:10569  0 */\n      0x00\n        /* \"ERC20/ERC20.sol\":10551:10570  owner != address(0) */\n      0xffffffffffffffffffffffffffffffffffffffff\n      and\n        /* \"ERC20/ERC20.sol\":10551:10556  owner */\n      dup4\n        /* \"ERC20/ERC20.sol\":10551:10570  owner != address(0) */\n      0xffffffffffffffffffffffffffffffffffffffff\n      and\n      eq\n      iszero\n        /* \"ERC20/ERC20.sol\":10543:10611  require(owner != address(0), \"ERC20: approve from the zero address\") */\n      tag_109\n      jumpi\n      mload(0x40)\n      0x08c379a000000000000000000000000000000000000000000000000000000000\n      dup2\n      mstore\n      0x04\n      add\n      tag_110\n      swap1\n      tag_111\n      jump\t// in\n    tag_110:\n      mload(0x40)\n      dup1\n      swap2\n      sub\n      swap1\n      revert\n    tag_109:\n        /* \"ERC20/ERC20.sol\":10649:10650  0 */\n      0x00\n        /* \"ERC20/ERC20.sol\":10630:10651  spender != address(0) */\n      0xffffffffffffffffffffffffffffffffffffffff\n      and\n        /* \"ERC20/ERC20.sol\":10630:10637  spender */\n      dup3\n        /* \"ERC20/ERC20.sol\":10630:10651  spender != address(0) */\n      0xffffffffffffffffffffffffffffffffffffffff\n      and\n      eq\n      iszero\n        /* \"ERC20/ERC20.sol\":10622:10690  require(spender != address(0), \"ERC20: approve to the zero address\") */\n      tag_112\n      jumpi\n      mload(0x40)\n      0x08c379a000000000000000000000000000000000000000000000000000000000\n      dup2\n      mstore\n      0x04\n      add\n      tag_113\n      swap1\n      tag_114\n      jump\t// in\n    tag_113:\n      mload(0x40)\n      dup1\n      swap2\n      sub\n      swap1\n      revert\n    tag_112:\n        /* \"ERC20/ERC20.sol\":10733:10739  amount */\n      dup1\n        /* \"ERC20/ERC20.sol\":10703:10714  _allowances */\n      0x01\n        /* \"ERC20/ERC20.sol\":10703:10721  _allowances[owner] */\n      0x00\n        /* \"ERC20/ERC20.sol\":10715:10720  owner */\n      dup6\n        /* \"ERC20/ERC20.sol\":10703:10721  _allowances[owner] */\n      0xffffffffffffffffffffffffffffffffffffffff\n      and\n      0xffffffffffffffffffffffffffffffffffffffff\n      and\n      dup2\n      mstore\n      0x20\n      add\n      swap1\n      dup2\n      mstore\n      0x20\n      add\n      0x00\n      keccak256\n        /* \"ERC20/ERC20.sol\":10703:10730  _allowances[owner][spender] */\n      0x00\n        /* \"ERC20/ERC20.sol\":10722:10729  spender */\n      dup5\n        /* \"ERC20/ERC20.sol\":10703:10730  _allowances[owner][spender] */\n      0xffffffffffffffffffffffffffffffffffffffff\n      and\n      0xffffffffffffffffffffffffffffffffffffffff\n      and\n      dup2\n      mstore\n      0x20\n      add\n      swap1\n      dup2\n      mstore\n      0x20\n      add\n      0x00\n      keccak256\n        /* \"ERC20/ERC20.sol\":10703:10739  _allowances[owner][spender] = amount */\n      dup2\n      swap1\n      sstore\n      pop\n        /* \"ERC20/ERC20.sol\":10771:10778  spender */\n      dup2\n        /* \"ERC20/ERC20.sol\":10755:10787  Approval(owner, spender, amount) */\n      0xffffffffffffffffffffffffffffffffffffffff\n      and\n        /* \"ERC20/ERC20.sol\":10764:10769  owner */\n      dup4\n        /* \"ERC20/ERC20.sol\":10755:10787  Approval(owner, spender, amount) */\n      0xffffffffffffffffffffffffffffffffffffffff\n      and\n      0x8c5be1e5ebec7d5bd14f71427d1e84f3dd0314c0f7b2291e5b200ac8c7c3b925\n        /* \"ERC20/ERC20.sol\":10780:10786  amount */\n      dup4\n        /* \"ERC20/ERC20.sol\":10755:10787  Approval(owner, spender, amount) */\n      mload(0x40)\n      tag_115\n      swap2\n      swap1\n      tag_28\n      jump\t// in\n    tag_115:\n      mload(0x40)\n      dup1\n      swap2\n      sub\n      swap1\n      log3\n        /* \"ERC20/ERC20.sol\":10415:10795  function _approve(\r... */\n      pop\n      pop\n      pop\n      jump\t// out\n        /* \"ERC20/ERC20.sol\":11086:11539  function _spendAllowance(\r... */\n    tag_79:\n        /* \"ERC20/ERC20.sol\":11221:11245  uint256 currentAllowance */\n      0x00\n        /* \"ERC20/ERC20.sol\":11248:11273  allowance(owner, spender) */\n      tag_117\n        /* \"ERC20/ERC20.sol\":11258:11263  owner */\n      dup5\n        /* \"ERC20/ERC20.sol\":11265:11272  spender */\n      dup5\n        /* \"ERC20/ERC20.sol\":11248:11257  allowance */\n      tag_61\n        /* \"ERC20/ERC20.sol\":11248:11273  allowance(owner, spender) */\n      jump\t// in\n    tag_117:\n        /* \"ERC20/ERC20.sol\":11221:11273  uint256 currentAllowance = allowance(owner, spender) */\n      swap1\n      pop\n        /* \"ERC20/ERC20.sol\":11308:11325  type(uint256).max */\n      0xffffffffffffffffffffffffffffffffffffffffffffffffffffffffffffffff\n        /* \"ERC20/ERC20.sol\":11288:11304  currentAllowance */\n      dup2\n        /* \"ERC20/ERC20.sol\":11288:11325  currentAllowance != type(uint256).max */\n      eq\n        /* \"ERC20/ERC20.sol\":11284:11532  if (currentAllowance != type(uint256).max) {\r... */\n      tag_118\n      jumpi\n        /* \"ERC20/ERC20.sol\":11370:11376  amount */\n      dup2\n        /* \"ERC20/ERC20.sol\":11350:11366  currentAllowance */\n      dup2\n        /* \"ERC20/ERC20.sol\":11350:11376  currentAllowance >= amount */\n      lt\n      iszero\n        /* \"ERC20/ERC20.sol\":11342:11410  require(currentAllowance >= amount, \"ERC20: insufficient allowance\") */\n      tag_119\n      jumpi\n      mload(0x40)\n      0x08c379a000000000000000000000000000000000000000000000000000000000\n      dup2\n      mstore\n      0x04\n      add\n      tag_120\n      swap1\n      tag_121\n      jump\t// in\n    tag_120:\n      mload(0x40)\n      dup1\n      swap2\n      sub\n      swap1\n      revert\n    tag_119:\n        /* \"ERC20/ERC20.sol\":11454:11505  _approve(owner, spender, currentAllowance - amount) */\n      tag_122\n        /* \"ERC20/ERC20.sol\":11463:11468  owner */\n      dup5\n        /* \"ERC20/ERC20.sol\":11470:11477  spender */\n      dup5\n        /* \"ERC20/ERC20.sol\":11498:11504  amount */\n      dup5\n        /* \"ERC20/ERC20.sol\":11479:11495  currentAllowance */\n      dup5\n        /* \"ERC20/ERC20.sol\":11479:11504  currentAllowance - amount */\n      sub\n        /* \"ERC20/ERC20.sol\":11454:11462  _approve */\n      tag_74\n        /* \"ERC20/ERC20.sol\":11454:11505  _approve(owner, spender, currentAllowance - amount) */\n      jump\t// in\n    tag_122:\n        /* \"ERC20/ERC20.sol\":11284:11532  if (currentAllowance != type(uint256).max) {\r... */\n    tag_118:\n        /* \"ERC20/ERC20.sol\":11086:11539  function _spendAllowance(\r... */\n      pop\n      pop\n      pop\n      pop\n      jump\t// out\n        /* \"ERC20/ERC20.sol\":7696:8367  function _transfer(\r... */\n    tag_81:\n        /* \"ERC20/ERC20.sol\":7843:7844  0 */\n      0x00\n        /* \"ERC20/ERC20.sol\":7827:7845  from != address(0) */\n      0xffffffffffffffffffffffffffffffffffffffff\n      and\n        /* \"ERC20/ERC20.sol\":7827:7831  from */\n      dup4\n        /* \"ERC20/ERC20.sol\":7827:7845  from != address(0) */\n      0xffffffffffffffffffffffffffffffffffffffff\n      and\n      eq\n      iszero\n        /* \"ERC20/ERC20.sol\":7819:7887  require(from != address(0), \"ERC20: transfer from the zero address\") */\n      tag_124\n      jumpi\n      mload(0x40)\n      0x08c379a000000000000000000000000000000000000000000000000000000000\n      dup2\n      mstore\n      0x04\n      add\n      tag_125\n      swap1\n      tag_126\n      jump\t// in\n    tag_125:\n      mload(0x40)\n      dup1\n      swap2\n      sub\n      swap1\n      revert\n    tag_124:\n        /* \"ERC20/ERC20.sol\":7920:7921  0 */\n      0x00\n        /* \"ERC20/ERC20.sol\":7906:7922  to != address(0) */\n      0xffffffffffffffffffffffffffffffffffffffff\n      and\n        /* \"ERC20/ERC20.sol\":7906:7908  to */\n      dup3\n        /* \"ERC20/ERC20.sol\":7906:7922  to != address(0) */\n      0xffffffffffffffffffffffffffffffffffffffff\n      and\n      eq\n      iszero\n        /* \"ERC20/ERC20.sol\":7898:7962  require(to != address(0), \"ERC20: transfer to the zero address\") */\n      tag_127\n      jumpi\n      mload(0x40)\n      0x08c379a000000000000000000000000000000000000000000000000000000000\n      dup2\n      mstore\n      0x04\n      add\n      tag_128\n      swap1\n      tag_129\n      jump\t// in\n    tag_128:\n      mload(0x40)\n      dup1\n      swap2\n      sub\n      swap1\n      revert\n    tag_127:\n        /* \"ERC20/ERC20.sol\":7975:8013  _beforeTokenTransfer(from, to, amount) */\n      tag_130\n        /* \"ERC20/ERC20.sol\":7996:8000  from */\n      dup4\n        /* \"ERC20/ERC20.sol\":8002:8004  to */\n      dup4\n        /* \"ERC20/ERC20.sol\":8006:8012  amount */\n      dup4\n        /* \"ERC20/ERC20.sol\":7975:7995  _beforeTokenTransfer */\n      tag_131\n        /* \"ERC20/ERC20.sol\":7975:8013  _beforeTokenTransfer(from, to, amount) */\n      jump\t// in\n    tag_130:\n        /* \"ERC20/ERC20.sol\":8026:8045  uint256 fromBalance */\n      0x00\n        /* \"ERC20/ERC20.sol\":8048:8057  _balances */\n      dup1\n        /* \"ERC20/ERC20.sol\":8048:8063  _balances[from] */\n      0x00\n        /* \"ERC20/ERC20.sol\":8058:8062  from */\n      dup6\n        /* \"ERC20/ERC20.sol\":8048:8063  _balances[from] */\n      0xffffffffffffffffffffffffffffffffffffffff\n      and\n      0xffffffffffffffffffffffffffffffffffffffff\n      and\n      dup2\n      mstore\n      0x20\n      add\n      swap1\n      dup2\n      mstore\n      0x20\n      add\n      0x00\n      keccak256\n      sload\n        /* \"ERC20/ERC20.sol\":8026:8063  uint256 fromBalance = _balances[from] */\n      swap1\n      pop\n        /* \"ERC20/ERC20.sol\":8097:8103  amount */\n      dup2\n        /* \"ERC20/ERC20.sol\":8082:8093  fromBalance */\n      dup2\n        /* \"ERC20/ERC20.sol\":8082:8103  fromBalance >= amount */\n      lt\n      iszero\n        /* \"ERC20/ERC20.sol\":8074:8146  require(fromBalance >= amount, \"ERC20: transfer amount exceeds balance\") */\n      tag_132\n      jumpi\n      mload(0x40)\n      0x08c379a000000000000000000000000000000000000000000000000000000000\n      dup2\n      mstore\n      0x04\n      add\n      tag_133\n      swap1\n      tag_134\n      jump\t// in\n    tag_133:\n      mload(0x40)\n      dup1\n      swap2\n      sub\n      swap1\n      revert\n    tag_132:\n        /* \"ERC20/ERC20.sol\":8214:8220  amount */\n      dup2\n        /* \"ERC20/ERC20.sol\":8200:8211  fromBalance */\n      dup2\n        /* \"ERC20/ERC20.sol\":8200:8220  fromBalance - amount */\n      sub\n        /* \"ERC20/ERC20.sol\":8182:8191  _balances */\n      0x00\n        /* \"ERC20/ERC20.sol\":8182:8197  _balances[from] */\n      dup1\n        /* \"ERC20/ERC20.sol\":8192:8196  from */\n      dup7\n        /* \"ERC20/ERC20.sol\":8182:8197  _balances[from] */\n      0xffffffffffffffffffffffffffffffffffffffff\n      and\n      0xffffffffffffffffffffffffffffffffffffffff\n      and\n      dup2\n      mstore\n      0x20\n      add\n      swap1\n      dup2\n      mstore\n      0x20\n      add\n      0x00\n      keccak256\n        /* \"ERC20/ERC20.sol\":8182:8220  _balances[from] = fromBalance - amount */\n      dup2\n      swap1\n      sstore\n      pop\n        /* \"ERC20/ERC20.sol\":8259:8265  amount */\n      dup2\n        /* \"ERC20/ERC20.sol\":8242:8251  _balances */\n      0x00\n        /* \"ERC20/ERC20.sol\":8242:8255  _balances[to] */\n      dup1\n        /* \"ERC20/ERC20.sol\":8252:8254  to */\n      dup6\n        /* \"ERC20/ERC20.sol\":8242:8255  _balances[to] */\n      0xffffffffffffffffffffffffffffffffffffffff\n      and\n      0xffffffffffffffffffffffffffffffffffffffff\n      and\n      dup2\n      mstore\n      0x20\n      add\n      swap1\n      dup2\n      mstore\n      0x20\n      add\n      0x00\n      keccak256\n      0x00\n        /* \"ERC20/ERC20.sol\":8242:8265  _balances[to] += amount */\n      dup3\n      dup3\n      sload\n      tag_135\n      swap2\n      swap1\n      tag_88\n      jump\t// in\n    tag_135:\n      swap3\n      pop\n      pop\n      dup2\n      swap1\n      sstore\n      pop\n        /* \"ERC20/ERC20.sol\":8298:8300  to */\n      dup3\n        /* \"ERC20/ERC20.sol\":8283:8309  Transfer(from, to, amount) */\n      0xffffffffffffffffffffffffffffffffffffffff\n      and\n        /* \"ERC20/ERC20.sol\":8292:8296  from */\n      dup5\n        /* \"ERC20/ERC20.sol\":8283:8309  Transfer(from, to, amount) */\n      0xffffffffffffffffffffffffffffffffffffffff\n      and\n      0xddf252ad1be2c89b69c2b068fc378daa952ba7f163c4a11628f55a4df523b3ef\n        /* \"ERC20/ERC20.sol\":8302:8308  amount */\n      dup5\n        /* \"ERC20/ERC20.sol\":8283:8309  Transfer(from, to, amount) */\n      mload(0x40)\n      tag_136\n      swap2\n      swap1\n      tag_28\n      jump\t// in\n    tag_136:\n      mload(0x40)\n      dup1\n      swap2\n      sub\n      swap1\n      log3\n        /* \"ERC20/ERC20.sol\":8322:8359  _afterTokenTransfer(from, to, amount) */\n      tag_137\n        /* \"ERC20/ERC20.sol\":8342:8346  from */\n      dup5\n        /* \"ERC20/ERC20.sol\":8348:8350  to */\n      dup5\n        /* \"ERC20/ERC20.sol\":8352:8358  amount */\n      dup5\n        /* \"ERC20/ERC20.sol\":8322:8341  _afterTokenTransfer */\n      tag_138\n        /* \"ERC20/ERC20.sol\":8322:8359  _afterTokenTransfer(from, to, amount) */\n      jump\t// in\n    tag_137:\n        /* \"ERC20/ERC20.sol\":7696:8367  function _transfer(\r... */\n      pop\n      pop\n      pop\n      pop\n      jump\t// out\n        /* \"ERC20/ERC20.sol\":12139:12264  function _beforeTokenTransfer(\r... */\n    tag_131:\n      pop\n      pop\n      pop\n      jump\t// out\n        /* \"ERC20/ERC20.sol\":12868:12992  function _afterTokenTransfer(\r... */\n    tag_138:\n      pop\n      pop\n      pop\n      jump\t// out\n        /* \"#utility.yul\":7:146   */\n    tag_142:\n        /* \"#utility.yul\":53:58   */\n      0x00\n        /* \"#utility.yul\":91:97   */\n      dup2\n        /* \"#utility.yul\":78:98   */\n      calldataload\n        /* \"#utility.yul\":69:98   */\n      swap1\n      pop\n        /* \"#utility.yul\":107:140   */\n      tag_144\n        /* \"#utility.yul\":134:139   */\n      dup2\n        /* \"#utility.yul\":107:140   */\n      tag_145\n      jump\t// in\n    tag_144:\n        /* \"#utility.yul\":59:146   */\n      swap3\n      swap2\n      pop\n      pop\n      jump\t// out\n        /* \"#utility.yul\":152:291   */\n    tag_146:\n        /* \"#utility.yul\":198:203   */\n      0x00\n        /* \"#utility.yul\":236:242   */\n      dup2\n        /* \"#utility.yul\":223:243   */\n      calldataload\n        /* \"#utility.yul\":214:243   */\n      swap1\n      pop\n        /* \"#utility.yul\":252:285   */\n      tag_148\n        /* \"#utility.yul\":279:284   */\n      dup2\n        /* \"#utility.yul\":252:285   */\n      tag_149\n      jump\t// in\n    tag_148:\n        /* \"#utility.yul\":204:291   */\n      swap3\n      swap2\n      pop\n      pop\n      jump\t// out\n        /* \"#utility.yul\":297:559   */\n    tag_44:\n        /* \"#utility.yul\":356:362   */\n      0x00\n        /* \"#utility.yul\":405:407   */\n      0x20\n        /* \"#utility.yul\":393:402   */\n      dup3\n        /* \"#utility.yul\":384:391   */\n      dup5\n        /* \"#utility.yul\":380:403   */\n      sub\n        /* \"#utility.yul\":376:408   */\n      slt\n        /* \"#utility.yul\":373:375   */\n      iszero\n      tag_151\n      jumpi\n        /* \"#utility.yul\":421:422   */\n      0x00\n        /* \"#utility.yul\":418:419   */\n      dup1\n        /* \"#utility.yul\":411:423   */\n      revert\n        /* \"#utility.yul\":373:375   */\n    tag_151:\n        /* \"#utility.yul\":464:465   */\n      0x00\n        /* \"#utility.yul\":489:542   */\n      tag_152\n        /* \"#utility.yul\":534:541   */\n      dup5\n        /* \"#utility.yul\":525:531   */\n      dup3\n        /* \"#utility.yul\":514:523   */\n      dup6\n        /* \"#utility.yul\":510:532   */\n      add\n        /* \"#utility.yul\":489:542   */\n      tag_142\n      jump\t// in\n    tag_152:\n        /* \"#utility.yul\":479:542   */\n      swap2\n      pop\n        /* \"#utility.yul\":435:552   */\n      pop\n        /* \"#utility.yul\":363:559   */\n      swap3\n      swap2\n      pop\n      pop\n      jump\t// out\n        /* \"#utility.yul\":565:972   */\n    tag_60:\n        /* \"#utility.yul\":633:639   */\n      0x00\n        /* \"#utility.yul\":641:647   */\n      dup1\n        /* \"#utility.yul\":690:692   */\n      0x40\n        /* \"#utility.yul\":678:687   */\n      dup4\n        /* \"#utility.yul\":669:676   */\n      dup6\n        /* \"#utility.yul\":665:688   */\n      sub\n        /* \"#utility.yul\":661:693   */\n      slt\n        /* \"#utility.yul\":658:660   */\n      iszero\n      tag_154\n      jumpi\n        /* \"#utility.yul\":706:707   */\n      0x00\n        /* \"#utility.yul\":703:704   */\n      dup1\n        /* \"#utility.yul\":696:708   */\n      revert\n        /* \"#utility.yul\":658:660   */\n    tag_154:\n        /* \"#utility.yul\":749:750   */\n      0x00\n        /* \"#utility.yul\":774:827   */\n      tag_155\n        /* \"#utility.yul\":819:826   */\n      dup6\n        /* \"#utility.yul\":810:816   */\n      dup3\n        /* \"#utility.yul\":799:808   */\n      dup7\n        /* \"#utility.yul\":795:817   */\n      add\n        /* \"#utility.yul\":774:827   */\n      tag_142\n      jump\t// in\n    tag_155:\n        /* \"#utility.yul\":764:827   */\n      swap3\n      pop\n        /* \"#utility.yul\":720:837   */\n      pop\n        /* \"#utility.yul\":876:878   */\n      0x20\n        /* \"#utility.yul\":902:955   */\n      tag_156\n        /* \"#utility.yul\":947:954   */\n      dup6\n        /* \"#utility.yul\":938:944   */\n      dup3\n        /* \"#utility.yul\":927:936   */\n      dup7\n        /* \"#utility.yul\":923:945   */\n      add\n        /* \"#utility.yul\":902:955   */\n      tag_142\n      jump\t// in\n    tag_156:\n        /* \"#utility.yul\":892:955   */\n      swap2\n      pop\n        /* \"#utility.yul\":847:965   */\n      pop\n        /* \"#utility.yul\":648:972   */\n      swap3\n      pop\n      swap3\n      swap1\n      pop\n      jump\t// out\n        /* \"#utility.yul\":978:1530   */\n    tag_31:\n        /* \"#utility.yul\":1055:1061   */\n      0x00\n        /* \"#utility.yul\":1063:1069   */\n      dup1\n        /* \"#utility.yul\":1071:1077   */\n      0x00\n        /* \"#utility.yul\":1120:1122   */\n      0x60\n        /* \"#utility.yul\":1108:1117   */\n      dup5\n        /* \"#utility.yul\":1099:1106   */\n      dup7\n        /* \"#utility.yul\":1095:1118   */\n      sub\n        /* \"#utility.yul\":1091:1123   */\n      slt\n        /* \"#utility.yul\":1088:1090   */\n      iszero\n      tag_158\n      jumpi\n        /* \"#utility.yul\":1136:1137   */\n      0x00\n        /* \"#utility.yul\":1133:1134   */\n      dup1\n        /* \"#utility.yul\":1126:1138   */\n      revert\n        /* \"#utility.yul\":1088:1090   */\n    tag_158:\n        /* \"#utility.yul\":1179:1180   */\n      0x00\n        /* \"#utility.yul\":1204:1257   */\n      tag_159\n        /* \"#utility.yul\":1249:1256   */\n      dup7\n        /* \"#utility.yul\":1240:1246   */\n      dup3\n        /* \"#utility.yul\":1229:1238   */\n      dup8\n        /* \"#utility.yul\":1225:1247   */\n      add\n        /* \"#utility.yul\":1204:1257   */\n      tag_142\n      jump\t// in\n    tag_159:\n        /* \"#utility.yul\":1194:1257   */\n      swap4\n      pop\n        /* \"#utility.yul\":1150:1267   */\n      pop\n        /* \"#utility.yul\":1306:1308   */\n      0x20\n        /* \"#utility.yul\":1332:1385   */\n      tag_160\n        /* \"#utility.yul\":1377:1384   */\n      dup7\n        /* \"#utility.yul\":1368:1374   */\n      dup3\n        /* \"#utility.yul\":1357:1366   */\n      dup8\n        /* \"#utility.yul\":1353:1375   */\n      add\n        /* \"#utility.yul\":1332:1385   */\n      tag_142\n      jump\t// in\n    tag_160:\n        /* \"#utility.yul\":1322:1385   */\n      swap3\n      pop\n        /* \"#utility.yul\":1277:1395   */\n      pop\n        /* \"#utility.yul\":1434:1436   */\n      0x40\n        /* \"#utility.yul\":1460:1513   */\n      tag_161\n        /* \"#utility.yul\":1505:1512   */\n      dup7\n        /* \"#utility.yul\":1496:1502   */\n      dup3\n        /* \"#utility.yul\":1485:1494   */\n      dup8\n        /* \"#utility.yul\":1481:1503   */\n      add\n        /* \"#utility.yul\":1460:1513   */\n      tag_146\n      jump\t// in\n    tag_161:\n        /* \"#utility.yul\":1450:1513   */\n      swap2\n      pop\n        /* \"#utility.yul\":1405:1523   */\n      pop\n        /* \"#utility.yul\":1078:1530   */\n      swap3\n      pop\n      swap3\n      pop\n      swap3\n      jump\t// out\n        /* \"#utility.yul\":1536:1943   */\n    tag_21:\n        /* \"#utility.yul\":1604:1610   */\n      0x00\n        /* \"#utility.yul\":1612:1618   */\n      dup1\n        /* \"#utility.yul\":1661:1663   */\n      0x40\n        /* \"#utility.yul\":1649:1658   */\n      dup4\n        /* \"#utility.yul\":1640:1647   */\n      dup6\n        /* \"#utility.yul\":1636:1659   */\n      sub\n        /* \"#utility.yul\":1632:1664   */\n      slt\n        /* \"#utility.yul\":1629:1631   */\n      iszero\n      tag_163\n      jumpi\n        /* \"#utility.yul\":1677:1678   */\n      0x00\n        /* \"#utility.yul\":1674:1675   */\n      dup1\n        /* \"#utility.yul\":1667:1679   */\n      revert\n        /* \"#utility.yul\":1629:1631   */\n    tag_163:\n        /* \"#utility.yul\":1720:1721   */\n      0x00\n        /* \"#utility.yul\":1745:1798   */\n      tag_164\n        /* \"#utility.yul\":1790:1797   */\n      dup6\n        /* \"#utility.yul\":1781:1787   */\n      dup3\n        /* \"#utility.yul\":1770:1779   */\n      dup7\n        /* \"#utility.yul\":1766:1788   */\n      add\n        /* \"#utility.yul\":1745:1798   */\n      tag_142\n      jump\t// in\n    tag_164:\n        /* \"#utility.yul\":1735:1798   */\n      swap3\n      pop\n        /* \"#utility.yul\":1691:1808   */\n      pop\n        /* \"#utility.yul\":1847:1849   */\n      0x20\n        /* \"#utility.yul\":1873:1926   */\n      tag_165\n        /* \"#utility.yul\":1918:1925   */\n      dup6\n        /* \"#utility.yul\":1909:1915   */\n      dup3\n        /* \"#utility.yul\":1898:1907   */\n      dup7\n        /* \"#utility.yul\":1894:1916   */\n      add\n        /* \"#utility.yul\":1873:1926   */\n      tag_146\n      jump\t// in\n    tag_165:\n        /* \"#utility.yul\":1863:1926   */\n      swap2\n      pop\n        /* \"#utility.yul\":1818:1936   */\n      pop\n        /* \"#utility.yul\":1619:1943   */\n      swap3\n      pop\n      swap3\n      swap1\n      pop\n      jump\t// out\n        /* \"#utility.yul\":1949:2058   */\n    tag_166:\n        /* \"#utility.yul\":2030:2051   */\n      tag_168\n        /* \"#utility.yul\":2045:2050   */\n      dup2\n        /* \"#utility.yul\":2030:2051   */\n      tag_169\n      jump\t// in\n    tag_168:\n        /* \"#utility.yul\":2025:2028   */\n      dup3\n        /* \"#utility.yul\":2018:2052   */\n      mstore\n        /* \"#utility.yul\":2008:2058   */\n      pop\n      pop\n      jump\t// out\n        /* \"#utility.yul\":2064:2428   */\n    tag_170:\n        /* \"#utility.yul\":2152:2155   */\n      0x00\n        /* \"#utility.yul\":2180:2219   */\n      tag_172\n        /* \"#utility.yul\":2213:2218   */\n      dup3\n        /* \"#utility.yul\":2180:2219   */\n      tag_173\n      jump\t// in\n    tag_172:\n        /* \"#utility.yul\":2235:2306   */\n      tag_174\n        /* \"#utility.yul\":2299:2305   */\n      dup2\n        /* \"#utility.yul\":2294:2297   */\n      dup6\n        /* \"#utility.yul\":2235:2306   */\n      tag_175\n      jump\t// in\n    tag_174:\n        /* \"#utility.yul\":2228:2306   */\n      swap4\n      pop\n        /* \"#utility.yul\":2315:2367   */\n      tag_176\n        /* \"#utility.yul\":2360:2366   */\n      dup2\n        /* \"#utility.yul\":2355:2358   */\n      dup6\n        /* \"#utility.yul\":2348:2352   */\n      0x20\n        /* \"#utility.yul\":2341:2346   */\n      dup7\n        /* \"#utility.yul\":2337:2353   */\n      add\n        /* \"#utility.yul\":2315:2367   */\n      tag_177\n      jump\t// in\n    tag_176:\n        /* \"#utility.yul\":2392:2421   */\n      tag_178\n        /* \"#utility.yul\":2414:2420   */\n      dup2\n        /* \"#utility.yul\":2392:2421   */\n      tag_179\n      jump\t// in\n    tag_178:\n        /* \"#utility.yul\":2387:2390   */\n      dup5\n        /* \"#utility.yul\":2383:2422   */\n      add\n        /* \"#utility.yul\":2376:2422   */\n      swap2\n      pop\n        /* \"#utility.yul\":2156:2428   */\n      pop\n      swap3\n      swap2\n      pop\n      pop\n      jump\t// out\n        /* \"#utility.yul\":2434:2800   */\n    tag_180:\n        /* \"#utility.yul\":2576:2579   */\n      0x00\n        /* \"#utility.yul\":2597:2664   */\n      tag_182\n        /* \"#utility.yul\":2661:2663   */\n      0x23\n        /* \"#utility.yul\":2656:2659   */\n      dup4\n        /* \"#utility.yul\":2597:2664   */\n      tag_175\n      jump\t// in\n    tag_182:\n        /* \"#utility.yul\":2590:2664   */\n      swap2\n      pop\n        /* \"#utility.yul\":2673:2766   */\n      tag_183\n        /* \"#utility.yul\":2762:2765   */\n      dup3\n        /* \"#utility.yul\":2673:2766   */\n      tag_184\n      jump\t// in\n    tag_183:\n        /* \"#utility.yul\":2791:2793   */\n      0x40\n        /* \"#utility.yul\":2786:2789   */\n      dup3\n        /* \"#utility.yul\":2782:2794   */\n      add\n        /* \"#utility.yul\":2775:2794   */\n      swap1\n      pop\n        /* \"#utility.yul\":2580:2800   */\n      swap2\n      swap1\n      pop\n      jump\t// out\n        /* \"#utility.yul\":2806:3172   */\n    tag_185:\n        /* \"#utility.yul\":2948:2951   */\n      0x00\n        /* \"#utility.yul\":2969:3036   */\n      tag_187\n        /* \"#utility.yul\":3033:3035   */\n      0x22\n        /* \"#utility.yul\":3028:3031   */\n      dup4\n        /* \"#utility.yul\":2969:3036   */\n      tag_175\n      jump\t// in\n    tag_187:\n        /* \"#utility.yul\":2962:3036   */\n      swap2\n      pop\n        /* \"#utility.yul\":3045:3138   */\n      tag_188\n        /* \"#utility.yul\":3134:3137   */\n      dup3\n        /* \"#utility.yul\":3045:3138   */\n      tag_189\n      jump\t// in\n    tag_188:\n        /* \"#utility.yul\":3163:3165   */\n      0x40\n        /* \"#utility.yul\":3158:3161   */\n      dup3\n        /* \"#utility.yul\":3154:3166   */\n      add\n        /* \"#utility.yul\":3147:3166   */\n      swap1\n      pop\n        /* \"#utility.yul\":2952:3172   */\n      swap2\n      swap1\n      pop\n      jump\t// out\n        /* \"#utility.yul\":3178:3544   */\n    tag_190:\n        /* \"#utility.yul\":3320:3323   */\n      0x00\n        /* \"#utility.yul\":3341:3408   */\n      tag_192\n        /* \"#utility.yul\":3405:3407   */\n      0x1d\n        /* \"#utility.yul\":3400:3403   */\n      dup4\n        /* \"#utility.yul\":3341:3408   */\n      tag_175\n      jump\t// in\n    tag_192:\n        /* \"#utility.yul\":3334:3408   */\n      swap2\n      pop\n        /* \"#utility.yul\":3417:3510   */\n      tag_193\n        /* \"#utility.yul\":3506:3509   */\n      dup3\n        /* \"#utility.yul\":3417:3510   */\n      tag_194\n      jump\t// in\n    tag_193:\n        /* \"#utility.yul\":3535:3537   */\n      0x20\n        /* \"#utility.yul\":3530:3533   */\n      dup3\n        /* \"#utility.yul\":3526:3538   */\n      add\n        /* \"#utility.yul\":3519:3538   */\n      swap1\n      pop\n        /* \"#utility.yul\":3324:3544   */\n      swap2\n      swap1\n      pop\n      jump\t// out\n        /* \"#utility.yul\":3550:3916   */\n    tag_195:\n        /* \"#utility.yul\":3692:3695   */\n      0x00\n        /* \"#utility.yul\":3713:3780   */\n      tag_197\n        /* \"#utility.yul\":3777:3779   */\n      0x26\n        /* \"#utility.yul\":3772:3775   */\n      dup4\n        /* \"#utility.yul\":3713:3780   */\n      tag_175\n      jump\t// in\n    tag_197:\n        /* \"#utility.yul\":3706:3780   */\n      swap2\n      pop\n        /* \"#utility.yul\":3789:3882   */\n      tag_198\n        /* \"#utility.yul\":3878:3881   */\n      dup3\n        /* \"#utility.yul\":3789:3882   */\n      tag_199\n      jump\t// in\n    tag_198:\n        /* \"#utility.yul\":3907:3909   */\n      0x40\n        /* \"#utility.yul\":3902:3905   */\n      dup3\n        /* \"#utility.yul\":3898:3910   */\n      add\n        /* \"#utility.yul\":3891:3910   */\n      swap1\n      pop\n        /* \"#utility.yul\":3696:3916   */\n      swap2\n      swap1\n      pop\n      jump\t// out\n        /* \"#utility.yul\":3922:4288   */\n    tag_200:\n        /* \"#utility.yul\":4064:4067   */\n      0x00\n        /* \"#utility.yul\":4085:4152   */\n      tag_202\n        /* \"#utility.yul\":4149:4151   */\n      0x25\n        /* \"#utility.yul\":4144:4147   */\n      dup4\n        /* \"#utility.yul\":4085:4152   */\n      tag_175\n      jump\t// in\n    tag_202:\n        /* \"#utility.yul\":4078:4152   */\n      swap2\n      pop\n        /* \"#utility.yul\":4161:4254   */\n      tag_203\n        /* \"#utility.yul\":4250:4253   */\n      dup3\n        /* \"#utility.yul\":4161:4254   */\n      tag_204\n      jump\t// in\n    tag_203:\n        /* \"#utility.yul\":4279:4281   */\n      0x40\n        /* \"#utility.yul\":4274:4277   */\n      dup3\n        /* \"#utility.yul\":4270:4282   */\n      add\n        /* \"#utility.yul\":4263:4282   */\n      swap1\n      pop\n        /* \"#utility.yul\":4068:4288   */\n      swap2\n      swap1\n      pop\n      jump\t// out\n        /* \"#utility.yul\":4294:4660   */\n    tag_205:\n        /* \"#utility.yul\":4436:4439   */\n      0x00\n        /* \"#utility.yul\":4457:4524   */\n      tag_207\n        /* \"#utility.yul\":4521:4523   */\n      0x24\n        /* \"#utility.yul\":4516:4519   */\n      dup4\n        /* \"#utility.yul\":4457:4524   */\n      tag_175\n      jump\t// in\n    tag_207:\n        /* \"#utility.yul\":4450:4524   */\n      swap2\n      pop\n        /* \"#utility.yul\":4533:4626   */\n      tag_208\n        /* \"#utility.yul\":4622:4625   */\n      dup3\n        /* \"#utility.yul\":4533:4626   */\n      tag_209\n      jump\t// in\n    tag_208:\n        /* \"#utility.yul\":4651:4653   */\n      0x40\n        /* \"#utility.yul\":4646:4649   */\n      dup3\n        /* \"#utility.yul\":4642:4654   */\n      add\n        /* \"#utility.yul\":4635:4654   */\n      swap1\n      pop\n        /* \"#utility.yul\":4440:4660   */\n      swap2\n      swap1\n      pop\n      jump\t// out\n        /* \"#utility.yul\":4666:5032   */\n    tag_210:\n        /* \"#utility.yul\":4808:4811   */\n      0x00\n        /* \"#utility.yul\":4829:4896   */\n      tag_212\n        /* \"#utility.yul\":4893:4895   */\n      0x25\n        /* \"#utility.yul\":4888:4891   */\n      dup4\n        /* \"#utility.yul\":4829:4896   */\n      tag_175\n      jump\t// in\n    tag_212:\n        /* \"#utility.yul\":4822:4896   */\n      swap2\n      pop\n        /* \"#utility.yul\":4905:4998   */\n      tag_213\n        /* \"#utility.yul\":4994:4997   */\n      dup3\n        /* \"#utility.yul\":4905:4998   */\n      tag_214\n      jump\t// in\n    tag_213:\n        /* \"#utility.yul\":5023:5025   */\n      0x40\n        /* \"#utility.yul\":5018:5021   */\n      dup3\n        /* \"#utility.yul\":5014:5026   */\n      add\n        /* \"#utility.yul\":5007:5026   */\n      swap1\n      pop\n        /* \"#utility.yul\":4812:5032   */\n      swap2\n      swap1\n      pop\n      jump\t// out\n        /* \"#utility.yul\":5038:5156   */\n    tag_215:\n        /* \"#utility.yul\":5125:5149   */\n      tag_217\n        /* \"#utility.yul\":5143:5148   */\n      dup2\n        /* \"#utility.yul\":5125:5149   */\n      tag_218\n      jump\t// in\n    tag_217:\n        /* \"#utility.yul\":5120:5123   */\n      dup3\n        /* \"#utility.yul\":5113:5150   */\n      mstore\n        /* \"#utility.yul\":5103:5156   */\n      pop\n      pop\n      jump\t// out\n        /* \"#utility.yul\":5162:5274   */\n    tag_219:\n        /* \"#utility.yul\":5245:5267   */\n      tag_221\n        /* \"#utility.yul\":5261:5266   */\n      dup2\n        /* \"#utility.yul\":5245:5267   */\n      tag_222\n      jump\t// in\n    tag_221:\n        /* \"#utility.yul\":5240:5243   */\n      dup3\n        /* \"#utility.yul\":5233:5268   */\n      mstore\n        /* \"#utility.yul\":5223:5274   */\n      pop\n      pop\n      jump\t// out\n        /* \"#utility.yul\":5280:5490   */\n    tag_24:\n        /* \"#utility.yul\":5367:5371   */\n      0x00\n        /* \"#utility.yul\":5405:5407   */\n      0x20\n        /* \"#utility.yul\":5394:5403   */\n      dup3\n        /* \"#utility.yul\":5390:5408   */\n      add\n        /* \"#utility.yul\":5382:5408   */\n      swap1\n      pop\n        /* \"#utility.yul\":5418:5483   */\n      tag_224\n        /* \"#utility.yul\":5480:5481   */\n      0x00\n        /* \"#utility.yul\":5469:5478   */\n      dup4\n        /* \"#utility.yul\":5465:5482   */\n      add\n        /* \"#utility.yul\":5456:5462   */\n      dup5\n        /* \"#utility.yul\":5418:5483   */\n      tag_166\n      jump\t// in\n    tag_224:\n        /* \"#utility.yul\":5372:5490   */\n      swap3\n      swap2\n      pop\n      pop\n      jump\t// out\n        /* \"#utility.yul\":5496:5809   */\n    tag_18:\n        /* \"#utility.yul\":5609:5613   */\n      0x00\n        /* \"#utility.yul\":5647:5649   */\n      0x20\n        /* \"#utility.yul\":5636:5645   */\n      dup3\n        /* \"#utility.yul\":5632:5650   */\n      add\n        /* \"#utility.yul\":5624:5650   */\n      swap1\n      pop\n        /* \"#utility.yul\":5696:5705   */\n      dup2\n        /* \"#utility.yul\":5690:5694   */\n      dup2\n        /* \"#utility.yul\":5686:5706   */\n      sub\n        /* \"#utility.yul\":5682:5683   */\n      0x00\n        /* \"#utility.yul\":5671:5680   */\n      dup4\n        /* \"#utility.yul\":5667:5684   */\n      add\n        /* \"#utility.yul\":5660:5707   */\n      mstore\n        /* \"#utility.yul\":5724:5802   */\n      tag_226\n        /* \"#utility.yul\":5797:5801   */\n      dup2\n        /* \"#utility.yul\":5788:5794   */\n      dup5\n        /* \"#utility.yul\":5724:5802   */\n      tag_170\n      jump\t// in\n    tag_226:\n        /* \"#utility.yul\":5716:5802   */\n      swap1\n      pop\n        /* \"#utility.yul\":5614:5809   */\n      swap3\n      swap2\n      pop\n      pop\n      jump\t// out\n        /* \"#utility.yul\":5815:6234   */\n    tag_129:\n        /* \"#utility.yul\":5981:5985   */\n      0x00\n        /* \"#utility.yul\":6019:6021   */\n      0x20\n        /* \"#utility.yul\":6008:6017   */\n      dup3\n        /* \"#utility.yul\":6004:6022   */\n      add\n        /* \"#utility.yul\":5996:6022   */\n      swap1\n      pop\n        /* \"#utility.yul\":6068:6077   */\n      dup2\n        /* \"#utility.yul\":6062:6066   */\n      dup2\n        /* \"#utility.yul\":6058:6078   */\n      sub\n        /* \"#utility.yul\":6054:6055   */\n      0x00\n        /* \"#utility.yul\":6043:6052   */\n      dup4\n        /* \"#utility.yul\":6039:6056   */\n      add\n        /* \"#utility.yul\":6032:6079   */\n      mstore\n        /* \"#utility.yul\":6096:6227   */\n      tag_228\n        /* \"#utility.yul\":6222:6226   */\n      dup2\n        /* \"#utility.yul\":6096:6227   */\n      tag_180\n      jump\t// in\n    tag_228:\n        /* \"#utility.yul\":6088:6227   */\n      swap1\n      pop\n        /* \"#utility.yul\":5986:6234   */\n      swap2\n      swap1\n      pop\n      jump\t// out\n        /* \"#utility.yul\":6240:6659   */\n    tag_114:\n        /* \"#utility.yul\":6406:6410   */\n      0x00\n        /* \"#utility.yul\":6444:6446   */\n      0x20\n        /* \"#utility.yul\":6433:6442   */\n      dup3\n        /* \"#utility.yul\":6429:6447   */\n      add\n        /* \"#utility.yul\":6421:6447   */\n      swap1\n      pop\n        /* \"#utility.yul\":6493:6502   */\n      dup2\n        /* \"#utility.yul\":6487:6491   */\n      dup2\n        /* \"#utility.yul\":6483:6503   */\n      sub\n        /* \"#utility.yul\":6479:6480   */\n      0x00\n        /* \"#utility.yul\":6468:6477   */\n      dup4\n        /* \"#utility.yul\":6464:6481   */\n      add\n        /* \"#utility.yul\":6457:6504   */\n      mstore\n        /* \"#utility.yul\":6521:6652   */\n      tag_230\n        /* \"#utility.yul\":6647:6651   */\n      dup2\n        /* \"#utility.yul\":6521:6652   */\n      tag_185\n      jump\t// in\n    tag_230:\n        /* \"#utility.yul\":6513:6652   */\n      swap1\n      pop\n        /* \"#utility.yul\":6411:6659   */\n      swap2\n      swap1\n      pop\n      jump\t// out\n        /* \"#utility.yul\":6665:7084   */\n    tag_121:\n        /* \"#utility.yul\":6831:6835   */\n      0x00\n        /* \"#utility.yul\":6869:6871   */\n      0x20\n        /* \"#utility.yul\":6858:6867   */\n      dup3\n        /* \"#utility.yul\":6854:6872   */\n      add\n        /* \"#utility.yul\":6846:6872   */\n      swap1\n      pop\n        /* \"#utility.yul\":6918:6927   */\n      dup2\n        /* \"#utility.yul\":6912:6916   */\n      dup2\n        /* \"#utility.yul\":6908:6928   */\n      sub\n        /* \"#utility.yul\":6904:6905   */\n      0x00\n        /* \"#utility.yul\":6893:6902   */\n      dup4\n        /* \"#utility.yul\":6889:6906   */\n      add\n        /* \"#utility.yul\":6882:6929   */\n      mstore\n        /* \"#utility.yul\":6946:7077   */\n      tag_232\n        /* \"#utility.yul\":7072:7076   */\n      dup2\n        /* \"#utility.yul\":6946:7077   */\n      tag_190\n      jump\t// in\n    tag_232:\n        /* \"#utility.yul\":6938:7077   */\n      swap1\n      pop\n        /* \"#utility.yul\":6836:7084   */\n      swap2\n      swap1\n      pop\n      jump\t// out\n        /* \"#utility.yul\":7090:7509   */\n    tag_134:\n        /* \"#utility.yul\":7256:7260   */\n      0x00\n        /* \"#utility.yul\":7294:7296   */\n      0x20\n        /* \"#utility.yul\":7283:7292   */\n      dup3\n        /* \"#utility.yul\":7279:7297   */\n      add\n        /* \"#utility.yul\":7271:7297   */\n      swap1\n      pop\n        /* \"#utility.yul\":7343:7352   */\n      dup2\n        /* \"#utility.yul\":7337:7341   */\n      dup2\n        /* \"#utility.yul\":7333:7353   */\n      sub\n        /* \"#utility.yul\":7329:7330   */\n      0x00\n        /* \"#utility.yul\":7318:7327   */\n      dup4\n        /* \"#utility.yul\":7314:7331   */\n      add\n        /* \"#utility.yul\":7307:7354   */\n      mstore\n        /* \"#utility.yul\":7371:7502   */\n      tag_234\n        /* \"#utility.yul\":7497:7501   */\n      dup2\n        /* \"#utility.yul\":7371:7502   */\n      tag_195\n      jump\t// in\n    tag_234:\n        /* \"#utility.yul\":7363:7502   */\n      swap1\n      pop\n        /* \"#utility.yul\":7261:7509   */\n      swap2\n      swap1\n      pop\n      jump\t// out\n        /* \"#utility.yul\":7515:7934   */\n    tag_126:\n        /* \"#utility.yul\":7681:7685   */\n      0x00\n        /* \"#utility.yul\":7719:7721   */\n      0x20\n        /* \"#utility.yul\":7708:7717   */\n      dup3\n        /* \"#utility.yul\":7704:7722   */\n      add\n        /* \"#utility.yul\":7696:7722   */\n      swap1\n      pop\n        /* \"#utility.yul\":7768:7777   */\n      dup2\n        /* \"#utility.yul\":7762:7766   */\n      dup2\n        /* \"#utility.yul\":7758:7778   */\n      sub\n        /* \"#utility.yul\":7754:7755   */\n      0x00\n        /* \"#utility.yul\":7743:7752   */\n      dup4\n        /* \"#utility.yul\":7739:7756   */\n      add\n        /* \"#utility.yul\":7732:7779   */\n      mstore\n        /* \"#utility.yul\":7796:7927   */\n      tag_236\n        /* \"#utility.yul\":7922:7926   */\n      dup2\n        /* \"#utility.yul\":7796:7927   */\n      tag_200\n      jump\t// in\n    tag_236:\n        /* \"#utility.yul\":7788:7927   */\n      swap1\n      pop\n        /* \"#utility.yul\":7686:7934   */\n      swap2\n      swap1\n      pop\n      jump\t// out\n        /* \"#utility.yul\":7940:8359   */\n    tag_111:\n        /* \"#utility.yul\":8106:8110   */\n      0x00\n        /* \"#utility.yul\":8144:8146   */\n      0x20\n        /* \"#utility.yul\":8133:8142   */\n      dup3\n        /* \"#utility.yul\":8129:8147   */\n      add\n        /* \"#utility.yul\":8121:8147   */\n      swap1\n      pop\n        /* \"#utility.yul\":8193:8202   */\n      dup2\n        /* \"#utility.yul\":8187:8191   */\n      dup2\n        /* \"#utility.yul\":8183:8203   */\n      sub\n        /* \"#utility.yul\":8179:8180   */\n      0x00\n        /* \"#utility.yul\":8168:8177   */\n      dup4\n        /* \"#utility.yul\":8164:8181   */\n      add\n        /* \"#utility.yul\":8157:8204   */\n      mstore\n        /* \"#utility.yul\":8221:8352   */\n      tag_238\n        /* \"#utility.yul\":8347:8351   */\n      dup2\n        /* \"#utility.yul\":8221:8352   */\n      tag_205\n      jump\t// in\n    tag_238:\n        /* \"#utility.yul\":8213:8352   */\n      swap1\n      pop\n        /* \"#utility.yul\":8111:8359   */\n      swap2\n      swap1\n      pop\n      jump\t// out\n        /* \"#utility.yul\":8365:8784   */\n    tag_101:\n        /* \"#utility.yul\":8531:8535   */\n      0x00\n        /* \"#utility.yul\":8569:8571   */\n      0x20\n        /* \"#utility.yul\":8558:8567   */\n      dup3\n        /* \"#utility.yul\":8554:8572   */\n      add\n        /* \"#utility.yul\":8546:8572   */\n      swap1\n      pop\n        /* \"#utility.yul\":8618:8627   */\n      dup2\n        /* \"#utility.yul\":8612:8616   */\n      dup2\n        /* \"#utility.yul\":8608:8628   */\n      sub\n        /* \"#utility.yul\":8604:8605   */\n      0x00\n        /* \"#utility.yul\":8593:8602   */\n      dup4\n        /* \"#utility.yul\":8589:8606   */\n      add\n        /* \"#utility.yul\":8582:8629   */\n      mstore\n        /* \"#utility.yul\":8646:8777   */\n      tag_240\n        /* \"#utility.yul\":8772:8776   */\n      dup2\n        /* \"#utility.yul\":8646:8777   */\n      tag_210\n      jump\t// in\n    tag_240:\n        /* \"#utility.yul\":8638:8777   */\n      swap1\n      pop\n        /* \"#utility.yul\":8536:8784   */\n      swap2\n      swap1\n      pop\n      jump\t// out\n        /* \"#utility.yul\":8790:9012   */\n    tag_28:\n        /* \"#utility.yul\":8883:8887   */\n      0x00\n        /* \"#utility.yul\":8921:8923   */\n      0x20\n        /* \"#utility.yul\":8910:8919   */\n      dup3\n        /* \"#utility.yul\":8906:8924   */\n      add\n        /* \"#utility.yul\":8898:8924   */\n      swap1\n      pop\n        /* \"#utility.yul\":8934:9005   */\n      tag_242\n        /* \"#utility.yul\":9002:9003   */\n      0x00\n        /* \"#utility.yul\":8991:9000   */\n      dup4\n        /* \"#utility.yul\":8987:9004   */\n      add\n        /* \"#utility.yul\":8978:8984   */\n      dup5\n        /* \"#utility.yul\":8934:9005   */\n      tag_215\n      jump\t// in\n    tag_242:\n        /* \"#utility.yul\":8888:9012   */\n      swap3\n      swap2\n      pop\n      pop\n      jump\t// out\n        /* \"#utility.yul\":9018:9232   */\n    tag_37:\n        /* \"#utility.yul\":9107:9111   */\n      0x00\n        /* \"#utility.yul\":9145:9147   */\n      0x20\n        /* \"#utility.yul\":9134:9143   */\n      dup3\n        /* \"#utility.yul\":9130:9148   */\n      add\n        /* \"#utility.yul\":9122:9148   */\n      swap1\n      pop\n        /* \"#utility.yul\":9158:9225   */\n      tag_244\n        /* \"#utility.yul\":9222:9223   */\n      0x00\n        /* \"#utility.yul\":9211:9220   */\n      dup4\n        /* \"#utility.yul\":9207:9224   */\n      add\n        /* \"#utility.yul\":9198:9204   */\n      dup5\n        /* \"#utility.yul\":9158:9225   */\n      tag_219\n      jump\t// in\n    tag_244:\n        /* \"#utility.yul\":9112:9232   */\n      swap3\n      swap2\n      pop\n      pop\n      jump\t// out\n        /* \"#utility.yul\":9238:9337   */\n    tag_173:\n        /* \"#utility.yul\":9290:9296   */\n      0x00\n        /* \"#utility.yul\":9324:9329   */\n      dup2\n        /* \"#utility.yul\":9318:9330   */\n      mload\n        /* \"#utility.yul\":9308:9330   */\n      swap1\n      pop\n        /* \"#utility.yul\":9297:9337   */\n      swap2\n      swap1\n      pop\n      jump\t// out\n        /* \"#utility.yul\":9343:9512   */\n    tag_175:\n        /* \"#utility.yul\":9427:9438   */\n      0x00\n        /* \"#utility.yul\":9461:9467   */\n      dup3\n        /* \"#utility.yul\":9456:9459   */\n      dup3\n        /* \"#utility.yul\":9449:9468   */\n      mstore\n        /* \"#utility.yul\":9501:9505   */\n      0x20\n        /* \"#utility.yul\":9496:9499   */\n      dup3\n        /* \"#utility.yul\":9492:9506   */\n      add\n        /* \"#utility.yul\":9477:9506   */\n      swap1\n      pop\n        /* \"#utility.yul\":9439:9512   */\n      swap3\n      swap2\n      pop\n      pop\n      jump\t// out\n        /* \"#utility.yul\":9518:9823   */\n    tag_88:\n        /* \"#utility.yul\":9558:9561   */\n      0x00\n        /* \"#utility.yul\":9577:9597   */\n      tag_248\n        /* \"#utility.yul\":9595:9596   */\n      dup3\n        /* \"#utility.yul\":9577:9597   */\n      tag_218\n      jump\t// in\n    tag_248:\n        /* \"#utility.yul\":9572:9597   */\n      swap2\n      pop\n        /* \"#utility.yul\":9611:9631   */\n      tag_249\n        /* \"#utility.yul\":9629:9630   */\n      dup4\n        /* \"#utility.yul\":9611:9631   */\n      tag_218\n      jump\t// in\n    tag_249:\n        /* \"#utility.yul\":9606:9631   */\n      swap3\n      pop\n        /* \"#utility.yul\":9765:9766   */\n      dup3\n        /* \"#utility.yul\":9697:9763   */\n      0xffffffffffffffffffffffffffffffffffffffffffffffffffffffffffffffff\n        /* \"#utility.yul\":9693:9767   */\n      sub\n        /* \"#utility.yul\":9690:9691   */\n      dup3\n        /* \"#utility.yul\":9687:9768   */\n      gt\n        /* \"#utility.yul\":9684:9686   */\n      iszero\n      tag_250\n      jumpi\n        /* \"#utility.yul\":9771:9789   */\n      tag_251\n      tag_252\n      jump\t// in\n    tag_251:\n        /* \"#utility.yul\":9684:9686   */\n    tag_250:\n        /* \"#utility.yul\":9815:9816   */\n      dup3\n        /* \"#utility.yul\":9812:9813   */\n      dup3\n        /* \"#utility.yul\":9808:9817   */\n      add\n        /* \"#utility.yul\":9801:9817   */\n      swap1\n      pop\n        /* \"#utility.yul\":9562:9823   */\n      swap3\n      swap2\n      pop\n      pop\n      jump\t// out\n        /* \"#utility.yul\":9829:9925   */\n    tag_253:\n        /* \"#utility.yul\":9866:9873   */\n      0x00\n        /* \"#utility.yul\":9895:9919   */\n      tag_255\n        /* \"#utility.yul\":9913:9918   */\n      dup3\n        /* \"#utility.yul\":9895:9919   */\n      tag_256\n      jump\t// in\n    tag_255:\n        /* \"#utility.yul\":9884:9919   */\n      swap1\n      pop\n        /* \"#utility.yul\":9874:9925   */\n      swap2\n      swap1\n      pop\n      jump\t// out\n        /* \"#utility.yul\":9931:10021   */\n    tag_169:\n        /* \"#utility.yul\":9965:9972   */\n      0x00\n        /* \"#utility.yul\":10008:10013   */\n      dup2\n        /* \"#utility.yul\":10001:10014   */\n      iszero\n        /* \"#utility.yul\":9994:10015   */\n      iszero\n        /* \"#utility.yul\":9983:10015   */\n      swap1\n      pop\n        /* \"#utility.yul\":9973:10021   */\n      swap2\n      swap1\n      pop\n      jump\t// out\n        /* \"#utility.yul\":10027:10153   */\n    tag_256:\n        /* \"#utility.yul\":10064:10071   */\n      0x00\n        /* \"#utility.yul\":10104:10146   */\n      0xffffffffffffffffffffffffffffffffffffffff\n        /* \"#utility.yul\":10097:10102   */\n      dup3\n        /* \"#utility.yul\":10093:10147   */\n      and\n        /* \"#utility.yul\":10082:10147   */\n      swap1\n      pop\n        /* \"#utility.yul\":10072:10153   */\n      swap2\n      swap1\n      pop\n      jump\t// out\n        /* \"#utility.yul\":10159:10236   */\n    tag_218:\n        /* \"#utility.yul\":10196:10203   */\n      0x00\n        /* \"#utility.yul\":10225:10230   */\n      dup2\n        /* \"#utility.yul\":10214:10230   */\n      swap1\n      pop\n        /* \"#utility.yul\":10204:10236   */\n      swap2\n      swap1\n      pop\n      jump\t// out\n        /* \"#utility.yul\":10242:10328   */\n    tag_222:\n        /* \"#utility.yul\":10277:10284   */\n      0x00\n        /* \"#utility.yul\":10317:10321   */\n      0xff\n        /* \"#utility.yul\":10310:10315   */\n      dup3\n        /* \"#utility.yul\":10306:10322   */\n      and\n        /* \"#utility.yul\":10295:10322   */\n      swap1\n      pop\n        /* \"#utility.yul\":10285:10328   */\n      swap2\n      swap1\n      pop\n      jump\t// out\n        /* \"#utility.yul\":10334:10641   */\n    tag_177:\n        /* \"#utility.yul\":10402:10403   */\n      0x00\n        /* \"#utility.yul\":10412:10525   */\n    tag_262:\n        /* \"#utility.yul\":10426:10432   */\n      dup4\n        /* \"#utility.yul\":10423:10424   */\n      dup2\n        /* \"#utility.yul\":10420:10433   */\n      lt\n        /* \"#utility.yul\":10412:10525   */\n      iszero\n      tag_264\n      jumpi\n        /* \"#utility.yul\":10511:10512   */\n      dup1\n        /* \"#utility.yul\":10506:10509   */\n      dup3\n        /* \"#utility.yul\":10502:10513   */\n      add\n        /* \"#utility.yul\":10496:10514   */\n      mload\n        /* \"#utility.yul\":10492:10493   */\n      dup2\n        /* \"#utility.yul\":10487:10490   */\n      dup5\n        /* \"#utility.yul\":10483:10494   */\n      add\n        /* \"#utility.yul\":10476:10515   */\n      mstore\n        /* \"#utility.yul\":10448:10450   */\n      0x20\n        /* \"#utility.yul\":10445:10446   */\n      dup2\n        /* \"#utility.yul\":10441:10451   */\n      add\n        /* \"#utility.yul\":10436:10451   */\n      swap1\n      pop\n        /* \"#utility.yul\":10412:10525   */\n      jump(tag_262)\n    tag_264:\n        /* \"#utility.yul\":10543:10549   */\n      dup4\n        /* \"#utility.yul\":10540:10541   */\n      dup2\n        /* \"#utility.yul\":10537:10550   */\n      gt\n        /* \"#utility.yul\":10534:10536   */\n      iszero\n      tag_265\n      jumpi\n        /* \"#utility.yul\":10623:10624   */\n      0x00\n        /* \"#utility.yul\":10614:10620   */\n      dup5\n        /* \"#utility.yul\":10609:10612   */\n      dup5\n        /* \"#utility.yul\":10605:10621   */\n      add\n        /* \"#utility.yul\":10598:10625   */\n      mstore\n        /* \"#utility.yul\":10534:10536   */\n    tag_265:\n        /* \"#utility.yul\":10383:10641   */\n      pop\n      pop\n      pop\n      pop\n      jump\t// out\n        /* \"#utility.yul\":10647:10967   */\n    tag_65:\n        /* \"#utility.yul\":10691:10697   */\n      0x00\n        /* \"#utility.yul\":10728:10729   */\n      0x02\n        /* \"#utility.yul\":10722:10726   */\n      dup3\n        /* \"#utility.yul\":10718:10730   */\n      div\n        /* \"#utility.yul\":10708:10730   */\n      swap1\n      pop\n        /* \"#utility.yul\":10775:10776   */\n      0x01\n        /* \"#utility.yul\":10769:10773   */\n      dup3\n        /* \"#utility.yul\":10765:10777   */\n      and\n        /* \"#utility.yul\":10796:10814   */\n      dup1\n        /* \"#utility.yul\":10786:10788   */\n      tag_267\n      jumpi\n        /* \"#utility.yul\":10852:10856   */\n      0x7f\n        /* \"#utility.yul\":10844:10850   */\n      dup3\n        /* \"#utility.yul\":10840:10857   */\n      and\n        /* \"#utility.yul\":10830:10857   */\n      swap2\n      pop\n        /* \"#utility.yul\":10786:10788   */\n    tag_267:\n        /* \"#utility.yul\":10914:10916   */\n      0x20\n        /* \"#utility.yul\":10906:10912   */\n      dup3\n        /* \"#utility.yul\":10903:10917   */\n      lt\n        /* \"#utility.yul\":10883:10901   */\n      dup2\n        /* \"#utility.yul\":10880:10918   */\n      eq\n        /* \"#utility.yul\":10877:10879   */\n      iszero\n      tag_268\n      jumpi\n        /* \"#utility.yul\":10933:10951   */\n      tag_269\n      tag_270\n      jump\t// in\n    tag_269:\n        /* \"#utility.yul\":10877:10879   */\n    tag_268:\n        /* \"#utility.yul\":10698:10967   */\n      pop\n      swap2\n      swap1\n      pop\n      jump\t// out\n        /* \"#utility.yul\":10973:11153   */\n    tag_252:\n        /* \"#utility.yul\":11021:11098   */\n      0x4e487b7100000000000000000000000000000000000000000000000000000000\n        /* \"#utility.yul\":11018:11019   */\n      0x00\n        /* \"#utility.yul\":11011:11099   */\n      mstore\n        /* \"#utility.yul\":11118:11122   */\n      0x11\n        /* \"#utility.yul\":11115:11116   */\n      0x04\n        /* \"#utility.yul\":11108:11123   */\n      mstore\n        /* \"#utility.yul\":11142:11146   */\n      0x24\n        /* \"#utility.yul\":11139:11140   */\n      0x00\n        /* \"#utility.yul\":11132:11147   */\n      revert\n        /* \"#utility.yul\":11159:11339   */\n    tag_270:\n        /* \"#utility.yul\":11207:11284   */\n      0x4e487b7100000000000000000000000000000000000000000000000000000000\n        /* \"#utility.yul\":11204:11205   */\n      0x00\n        /* \"#utility.yul\":11197:11285   */\n      mstore\n        /* \"#utility.yul\":11304:11308   */\n      0x22\n        /* \"#utility.yul\":11301:11302   */\n      0x04\n        /* \"#utility.yul\":11294:11309   */\n      mstore\n        /* \"#utility.yul\":11328:11332   */\n      0x24\n        /* \"#utility.yul\":11325:11326   */\n      0x00\n        /* \"#utility.yul\":11318:11333   */\n      revert\n        /* \"#utility.yul\":11345:11447   */\n    tag_179:\n        /* \"#utility.yul\":11386:11392   */\n      0x00\n        /* \"#utility.yul\":11437:11439   */\n      0x1f\n        /* \"#utility.yul\":11433:11440   */\n      not\n        /* \"#utility.yul\":11428:11430   */\n      0x1f\n        /* \"#utility.yul\":11421:11426   */\n      dup4\n        /* \"#utility.yul\":11417:11431   */\n      add\n        /* \"#utility.yul\":11413:11441   */\n      and\n        /* \"#utility.yul\":11403:11441   */\n      swap1\n      pop\n        /* \"#utility.yul\":11393:11447   */\n      swap2\n      swap1\n      pop\n      jump\t// out\n        /* \"#utility.yul\":11453:11675   */\n    tag_184:\n        /* \"#utility.yul\":11593:11627   */\n      0x45524332303a207472616e7366657220746f20746865207a65726f2061646472\n        /* \"#utility.yul\":11589:11590   */\n      0x00\n        /* \"#utility.yul\":11581:11587   */\n      dup3\n        /* \"#utility.yul\":11577:11591   */\n      add\n        /* \"#utility.yul\":11570:11628   */\n      mstore\n        /* \"#utility.yul\":11662:11667   */\n      0x6573730000000000000000000000000000000000000000000000000000000000\n        /* \"#utility.yul\":11657:11659   */\n      0x20\n        /* \"#utility.yul\":11649:11655   */\n      dup3\n        /* \"#utility.yul\":11645:11660   */\n      add\n        /* \"#utility.yul\":11638:11668   */\n      mstore\n        /* \"#utility.yul\":11559:11675   */\n      pop\n      jump\t// out\n        /* \"#utility.yul\":11681:11902   */\n    tag_189:\n        /* \"#utility.yul\":11821:11855   */\n      0x45524332303a20617070726f766520746f20746865207a65726f206164647265\n        /* \"#utility.yul\":11817:11818   */\n      0x00\n        /* \"#utility.yul\":11809:11815   */\n      dup3\n        /* \"#utility.yul\":11805:11819   */\n      add\n        /* \"#utility.yul\":11798:11856   */\n      mstore\n        /* \"#utility.yul\":11890:11894   */\n      0x7373000000000000000000000000000000000000000000000000000000000000\n        /* \"#utility.yul\":11885:11887   */\n      0x20\n        /* \"#utility.yul\":11877:11883   */\n      dup3\n        /* \"#utility.yul\":11873:11888   */\n      add\n        /* \"#utility.yul\":11866:11895   */\n      mstore\n        /* \"#utility.yul\":11787:11902   */\n      pop\n      jump\t// out\n        /* \"#utility.yul\":11908:12087   */\n    tag_194:\n        /* \"#utility.yul\":12048:12079   */\n      0x45524332303a20696e73756666696369656e7420616c6c6f77616e6365000000\n        /* \"#utility.yul\":12044:12045   */\n      0x00\n        /* \"#utility.yul\":12036:12042   */\n      dup3\n        /* \"#utility.yul\":12032:12046   */\n      add\n        /* \"#utility.yul\":12025:12080   */\n      mstore\n        /* \"#utility.yul\":12014:12087   */\n      pop\n      jump\t// out\n        /* \"#utility.yul\":12093:12318   */\n    tag_199:\n        /* \"#utility.yul\":12233:12267   */\n      0x45524332303a207472616e7366657220616d6f756e7420657863656564732062\n        /* \"#utility.yul\":12229:12230   */\n      0x00\n        /* \"#utility.yul\":12221:12227   */\n      dup3\n        /* \"#utility.yul\":12217:12231   */\n      add\n        /* \"#utility.yul\":12210:12268   */\n      mstore\n        /* \"#utility.yul\":12302:12310   */\n      0x616c616e63650000000000000000000000000000000000000000000000000000\n        /* \"#utility.yul\":12297:12299   */\n      0x20\n        /* \"#utility.yul\":12289:12295   */\n      dup3\n        /* \"#utility.yul\":12285:12300   */\n      add\n        /* \"#utility.yul\":12278:12311   */\n      mstore\n        /* \"#utility.yul\":12199:12318   */\n      pop\n      jump\t// out\n        /* \"#utility.yul\":12324:12548   */\n    tag_204:\n        /* \"#utility.yul\":12464:12498   */\n      0x45524332303a207472616e736665722066726f6d20746865207a65726f206164\n        /* \"#utility.yul\":12460:12461   */\n      0x00\n        /* \"#utility.yul\":12452:12458   */\n      dup3\n        /* \"#utility.yul\":12448:12462   */\n      add\n        /* \"#utility.yul\":12441:12499   */\n      mstore\n        /* \"#utility.yul\":12533:12540   */\n      0x6472657373000000000000000000000000000000000000000000000000000000\n        /* \"#utility.yul\":12528:12530   */\n      0x20\n        /* \"#utility.yul\":12520:12526   */\n      dup3\n        /* \"#utility.yul\":12516:12531   */\n      add\n        /* \"#utility.yul\":12509:12541   */\n      mstore\n        /* \"#utility.yul\":12430:12548   */\n      pop\n      jump\t// out\n        /* \"#utility.yul\":12554:12777   */\n    tag_209:\n        /* \"#utility.yul\":12694:12728   */\n      0x45524332303a20617070726f76652066726f6d20746865207a65726f20616464\n        /* \"#utility.yul\":12690:12691   */\n      0x00\n        /* \"#utility.yul\":12682:12688   */\n      dup3\n        /* \"#utility.yul\":12678:12692   */\n      add\n        /* \"#utility.yul\":12671:12729   */\n      mstore\n        /* \"#utility.yul\":12763:12769   */\n      0x7265737300000000000000000000000000000000000000000000000000000000\n        /* \"#utility.yul\":12758:12760   */\n      0x20\n        /* \"#utility.yul\":12750:12756   */\n      dup3\n        /* \"#utility.yul\":12746:12761   */\n      add\n        /* \"#utility.yul\":12739:12770   */\n      mstore\n        /* \"#utility.yul\":12660:12777   */\n      pop\n      jump\t// out\n        /* \"#utility.yul\":12783:13007   */\n    tag_214:\n        /* \"#utility.yul\":12923:12957   */\n      0x45524332303a2064656372656173656420616c6c6f77616e63652062656c6f77\n        /* \"#utility.yul\":12919:12920   */\n      0x00\n        /* \"#utility.yul\":12911:12917   */\n      dup3\n        /* \"#utility.yul\":12907:12921   */\n      add\n        /* \"#utility.yul\":12900:12958   */\n      mstore\n        /* \"#utility.yul\":12992:12999   */\n      0x207a65726f000000000000000000000000000000000000000000000000000000\n        /* \"#utility.yul\":12987:12989   */\n      0x20\n        /* \"#utility.yul\":12979:12985   */\n      dup3\n        /* \"#utility.yul\":12975:12990   */\n      add\n        /* \"#utility.yul\":12968:13000   */\n      mstore\n        /* \"#utility.yul\":12889:13007   */\n      pop\n      jump\t// out\n        /* \"#utility.yul\":13013:13135   */\n    tag_145:\n        /* \"#utility.yul\":13086:13110   */\n      tag_282\n        /* \"#utility.yul\":13104:13109   */\n      dup2\n        /* \"#utility.yul\":13086:13110   */\n      tag_253\n      jump\t// in\n    tag_282:\n        /* \"#utility.yul\":13079:13084   */\n      dup2\n        /* \"#utility.yul\":13076:13111   */\n      eq\n        /* \"#utility.yul\":13066:13068   */\n      tag_283\n      jumpi\n        /* \"#utility.yul\":13125:13126   */\n      0x00\n        /* \"#utility.yul\":13122:13123   */\n      dup1\n        /* \"#utility.yul\":13115:13127   */\n      revert\n        /* \"#utility.yul\":13066:13068   */\n    tag_283:\n        /* \"#utility.yul\":13056:13135   */\n      pop\n      jump\t// out\n        /* \"#utility.yul\":13141:13263   */\n    tag_149:\n        /* \"#utility.yul\":13214:13238   */\n      tag_285\n        /* \"#utility.yul\":13232:13237   */\n      dup2\n        /* \"#utility.yul\":13214:13238   */\n      tag_218\n      jump\t// in\n    tag_285:\n        /* \"#utility.yul\":13207:13212   */\n      dup2\n        /* \"#utility.yul\":13204:13239   */\n      eq\n        /* \"#utility.yul\":13194:13196   */\n      tag_286\n      jumpi\n        /* \"#utility.yul\":13253:13254   */\n      0x00\n        /* \"#utility.yul\":13250:13251   */\n      dup1\n        /* \"#utility.yul\":13243:13255   */\n      revert\n        /* \"#utility.yul\":13194:13196   */\n    tag_286:\n        /* \"#utility.yul\":13184:13263   */\n      pop\n      jump\t// out\n\n    auxdata: 0xa2646970667358221220f2e0375e8a90ed64a83ce77d0a0f442c580bd692a77cd21b6a967e469fe1d28264736f6c63430008040033\n}\n",
				"bytecode": {
					"linkReferences": {},
					"object": "60806040523480156200001157600080fd5b50604051620015d9380380620015d9833981810160405281019062000037919062000193565b81600390805190602001906200004f92919062000071565b5080600490805190602001906200006892919062000071565b50505062000376565b8280546200007f906200029b565b90600052602060002090601f016020900481019282620000a35760008555620000ef565b82601f10620000be57805160ff1916838001178555620000ef565b82800160010185558215620000ef579182015b82811115620000ee578251825591602001919060010190620000d1565b5b509050620000fe919062000102565b5090565b5b808211156200011d57600081600090555060010162000103565b5090565b60006200013862000132846200022f565b62000206565b9050828152602081018484840111156200015157600080fd5b6200015e84828562000265565b509392505050565b600082601f8301126200017857600080fd5b81516200018a84826020860162000121565b91505092915050565b60008060408385031215620001a757600080fd5b600083015167ffffffffffffffff811115620001c257600080fd5b620001d08582860162000166565b925050602083015167ffffffffffffffff811115620001ee57600080fd5b620001fc8582860162000166565b9150509250929050565b60006200021262000225565b9050620002208282620002d1565b919050565b6000604051905090565b600067ffffffffffffffff8211156200024d576200024c62000336565b5b620002588262000365565b9050602081019050919050565b60005b838110156200028557808201518184015260208101905062000268565b8381111562000295576000848401525b50505050565b60006002820490506001821680620002b457607f821691505b60208210811415620002cb57620002ca62000307565b5b50919050565b620002dc8262000365565b810181811067ffffffffffffffff82111715620002fe57620002fd62000336565b5b80604052505050565b7f4e487b7100000000000000000000000000000000000000000000000000000000600052602260045260246000fd5b7f4e487b7100000000000000000000000000000000000000000000000000000000600052604160045260246000fd5b6000601f19601f8301169050919050565b61125380620003866000396000f3fe608060405234801561001057600080fd5b50600436106100a95760003560e01c80633950935111610071578063395093511461016857806370a082311461019857806395d89b41146101c8578063a457c2d7146101e6578063a9059cbb14610216578063dd62ed3e14610246576100a9565b806306fdde03146100ae578063095ea7b3146100cc57806318160ddd146100fc57806323b872dd1461011a578063313ce5671461014a575b600080fd5b6100b6610276565b6040516100c39190610d19565b60405180910390f35b6100e660048036038101906100e19190610b67565b610308565b6040516100f39190610cfe565b60405180910390f35b61010461032b565b6040516101119190610e1b565b60405180910390f35b610134600480360381019061012f9190610b18565b610335565b6040516101419190610cfe565b60405180910390f35b610152610364565b60405161015f9190610e36565b60405180910390f35b610182600480360381019061017d9190610b67565b61036d565b60405161018f9190610cfe565b60405180910390f35b6101b260048036038101906101ad9190610ab3565b6103a4565b6040516101bf9190610e1b565b60405180910390f35b6101d06103ec565b6040516101dd9190610d19565b60405180910390f35b61020060048036038101906101fb9190610b67565b61047e565b60405161020d9190610cfe565b60405180910390f35b610230600480360381019061022b9190610b67565b6104f5565b60405161023d9190610cfe565b60405180910390f35b610260600480360381019061025b9190610adc565b610518565b60405161026d9190610e1b565b60405180910390f35b60606003805461028590610f4b565b80601f01602080910402602001604051908101604052809291908181526020018280546102b190610f4b565b80156102fe5780601f106102d3576101008083540402835291602001916102fe565b820191906000526020600020905b8154815290600101906020018083116102e157829003601f168201915b5050505050905090565b60008061031361059f565b90506103208185856105a7565b600191505092915050565b6000600254905090565b60008061034061059f565b905061034d858285610772565b6103588585856107fe565b60019150509392505050565b60006012905090565b60008061037861059f565b905061039981858561038a8589610518565b6103949190610e6d565b6105a7565b600191505092915050565b60008060008373ffffffffffffffffffffffffffffffffffffffff1673ffffffffffffffffffffffffffffffffffffffff168152602001908152602001600020549050919050565b6060600480546103fb90610f4b565b80601f016020809104026020016040519081016040528092919081815260200182805461042790610f4b565b80156104745780601f1061044957610100808354040283529160200191610474565b820191906000526020600020905b81548152906001019060200180831161045757829003601f168201915b5050505050905090565b60008061048961059f565b905060006104978286610518565b9050838110156104dc576040517f08c379a00000000000000000000000000000000000000000000000000000000081526004016104d390610dfb565b60405180910390fd5b6104e982868684036105a7565b60019250505092915050565b60008061050061059f565b905061050d8185856107fe565b600191505092915050565b6000600160008473ffffffffffffffffffffffffffffffffffffffff1673ffffffffffffffffffffffffffffffffffffffff16815260200190815260200160002060008373ffffffffffffffffffffffffffffffffffffffff1673ffffffffffffffffffffffffffffffffffffffff16815260200190815260200160002054905092915050565b600033905090565b600073ffffffffffffffffffffffffffffffffffffffff168373ffffffffffffffffffffffffffffffffffffffff161415610617576040517f08c379a000000000000000000000000000000000000000000000000000000000815260040161060e90610ddb565b60405180910390fd5b600073ffffffffffffffffffffffffffffffffffffffff168273ffffffffffffffffffffffffffffffffffffffff161415610687576040517f08c379a000000000000000000000000000000000000000000000000000000000815260040161067e90610d5b565b60405180910390fd5b80600160008573ffffffffffffffffffffffffffffffffffffffff1673ffffffffffffffffffffffffffffffffffffffff16815260200190815260200160002060008473ffffffffffffffffffffffffffffffffffffffff1673ffffffffffffffffffffffffffffffffffffffff168152602001908152602001600020819055508173ffffffffffffffffffffffffffffffffffffffff168373ffffffffffffffffffffffffffffffffffffffff167f8c5be1e5ebec7d5bd14f71427d1e84f3dd0314c0f7b2291e5b200ac8c7c3b925836040516107659190610e1b565b60405180910390a3505050565b600061077e8484610518565b90507fffffffffffffffffffffffffffffffffffffffffffffffffffffffffffffffff81146107f857818110156107ea576040517f08c379a00000000000000000000000000000000000000000000000000000000081526004016107e190610d7b565b60405180910390fd5b6107f784848484036105a7565b5b50505050565b600073ffffffffffffffffffffffffffffffffffffffff168373ffffffffffffffffffffffffffffffffffffffff16141561086e576040517f08c379a000000000000000000000000000000000000000000000000000000000815260040161086590610dbb565b60405180910390fd5b600073ffffffffffffffffffffffffffffffffffffffff168273ffffffffffffffffffffffffffffffffffffffff1614156108de576040517f08c379a00000000000000000000000000000000000000000000000000000000081526004016108d590610d3b565b60405180910390fd5b6108e9838383610a7f565b60008060008573ffffffffffffffffffffffffffffffffffffffff1673ffffffffffffffffffffffffffffffffffffffff1681526020019081526020016000205490508181101561096f576040517f08c379a000000000000000000000000000000000000000000000000000000000815260040161096690610d9b565b60405180910390fd5b8181036000808673ffffffffffffffffffffffffffffffffffffffff1673ffffffffffffffffffffffffffffffffffffffff16815260200190815260200160002081905550816000808573ffffffffffffffffffffffffffffffffffffffff1673ffffffffffffffffffffffffffffffffffffffff1681526020019081526020016000206000828254610a029190610e6d565b925050819055508273ffffffffffffffffffffffffffffffffffffffff168473ffffffffffffffffffffffffffffffffffffffff167fddf252ad1be2c89b69c2b068fc378daa952ba7f163c4a11628f55a4df523b3ef84604051610a669190610e1b565b60405180910390a3610a79848484610a84565b50505050565b505050565b505050565b600081359050610a98816111ef565b92915050565b600081359050610aad81611206565b92915050565b600060208284031215610ac557600080fd5b6000610ad384828501610a89565b91505092915050565b60008060408385031215610aef57600080fd5b6000610afd85828601610a89565b9250506020610b0e85828601610a89565b9150509250929050565b600080600060608486031215610b2d57600080fd5b6000610b3b86828701610a89565b9350506020610b4c86828701610a89565b9250506040610b5d86828701610a9e565b9150509250925092565b60008060408385031215610b7a57600080fd5b6000610b8885828601610a89565b9250506020610b9985828601610a9e565b9150509250929050565b610bac81610ed5565b82525050565b6000610bbd82610e51565b610bc78185610e5c565b9350610bd7818560208601610f18565b610be081610fdb565b840191505092915050565b6000610bf8602383610e5c565b9150610c0382610fec565b604082019050919050565b6000610c1b602283610e5c565b9150610c268261103b565b604082019050919050565b6000610c3e601d83610e5c565b9150610c498261108a565b602082019050919050565b6000610c61602683610e5c565b9150610c6c826110b3565b604082019050919050565b6000610c84602583610e5c565b9150610c8f82611102565b604082019050919050565b6000610ca7602483610e5c565b9150610cb282611151565b604082019050919050565b6000610cca602583610e5c565b9150610cd5826111a0565b604082019050919050565b610ce981610f01565b82525050565b610cf881610f0b565b82525050565b6000602082019050610d136000830184610ba3565b92915050565b60006020820190508181036000830152610d338184610bb2565b905092915050565b60006020820190508181036000830152610d5481610beb565b9050919050565b60006020820190508181036000830152610d7481610c0e565b9050919050565b60006020820190508181036000830152610d9481610c31565b9050919050565b60006020820190508181036000830152610db481610c54565b9050919050565b60006020820190508181036000830152610dd481610c77565b9050919050565b60006020820190508181036000830152610df481610c9a565b9050919050565b60006020820190508181036000830152610e1481610cbd565b9050919050565b6000602082019050610e306000830184610ce0565b92915050565b6000602082019050610e4b6000830184610cef565b92915050565b600081519050919050565b600082825260208201905092915050565b6000610e7882610f01565b9150610e8383610f01565b9250827fffffffffffffffffffffffffffffffffffffffffffffffffffffffffffffffff03821115610eb857610eb7610f7d565b5b828201905092915050565b6000610ece82610ee1565b9050919050565b60008115159050919050565b600073ffffffffffffffffffffffffffffffffffffffff82169050919050565b6000819050919050565b600060ff82169050919050565b60005b83811015610f36578082015181840152602081019050610f1b565b83811115610f45576000848401525b50505050565b60006002820490506001821680610f6357607f821691505b60208210811415610f7757610f76610fac565b5b50919050565b7f4e487b7100000000000000000000000000000000000000000000000000000000600052601160045260246000fd5b7f4e487b7100000000000000000000000000000000000000000000000000000000600052602260045260246000fd5b6000601f19601f8301169050919050565b7f45524332303a207472616e7366657220746f20746865207a65726f206164647260008201527f6573730000000000000000000000000000000000000000000000000000000000602082015250565b7f45524332303a20617070726f766520746f20746865207a65726f20616464726560008201527f7373000000000000000000000000000000000000000000000000000000000000602082015250565b7f45524332303a20696e73756666696369656e7420616c6c6f77616e6365000000600082015250565b7f45524332303a207472616e7366657220616d6f756e742065786365656473206260008201527f616c616e63650000000000000000000000000000000000000000000000000000602082015250565b7f45524332303a207472616e736665722066726f6d20746865207a65726f20616460008201527f6472657373000000000000000000000000000000000000000000000000000000602082015250565b7f45524332303a20617070726f76652066726f6d20746865207a65726f2061646460008201527f7265737300000000000000000000000000000000000000000000000000000000602082015250565b7f45524332303a2064656372656173656420616c6c6f77616e63652062656c6f7760008201527f207a65726f000000000000000000000000000000000000000000000000000000602082015250565b6111f881610ec3565b811461120357600080fd5b50565b61120f81610f01565b811461121a57600080fd5b5056fea2646970667358221220f2e0375e8a90ed64a83ce77d0a0f442c580bd692a77cd21b6a967e469fe1d28264736f6c63430008040033",
					"opcodes": "PUSH1 0x80 PUSH1 0x40 MSTORE CALLVALUE DUP1 ISZERO PUSH3 0x11 JUMPI PUSH1 0x0 DUP1 REVERT JUMPDEST POP PUSH1 0x40 MLOAD PUSH3 0x15D9 CODESIZE SUB DUP1 PUSH3 0x15D9 DUP4 CODECOPY DUP2 DUP2 ADD PUSH1 0x40 MSTORE DUP2 ADD SWAP1 PUSH3 0x37 SWAP2 SWAP1 PUSH3 0x193 JUMP JUMPDEST DUP2 PUSH1 0x3 SWAP1 DUP1 MLOAD SWAP1 PUSH1 0x20 ADD SWAP1 PUSH3 0x4F SWAP3 SWAP2 SWAP1 PUSH3 0x71 JUMP JUMPDEST POP DUP1 PUSH1 0x4 SWAP1 DUP1 MLOAD SWAP1 PUSH1 0x20 ADD SWAP1 PUSH3 0x68 SWAP3 SWAP2 SWAP1 PUSH3 0x71 JUMP JUMPDEST POP POP POP PUSH3 0x376 JUMP JUMPDEST DUP3 DUP1 SLOAD PUSH3 0x7F SWAP1 PUSH3 0x29B JUMP JUMPDEST SWAP1 PUSH1 0x0 MSTORE PUSH1 0x20 PUSH1 0x0 KECCAK256 SWAP1 PUSH1 0x1F ADD PUSH1 0x20 SWAP1 DIV DUP2 ADD SWAP3 DUP3 PUSH3 0xA3 JUMPI PUSH1 0x0 DUP6 SSTORE PUSH3 0xEF JUMP JUMPDEST DUP3 PUSH1 0x1F LT PUSH3 0xBE JUMPI DUP1 MLOAD PUSH1 0xFF NOT AND DUP4 DUP1 ADD OR DUP6 SSTORE PUSH3 0xEF JUMP JUMPDEST DUP3 DUP1 ADD PUSH1 0x1 ADD DUP6 SSTORE DUP3 ISZERO PUSH3 0xEF JUMPI SWAP2 DUP3 ADD JUMPDEST DUP3 DUP2 GT ISZERO PUSH3 0xEE JUMPI DUP3 MLOAD DUP3 SSTORE SWAP2 PUSH1 0x20 ADD SWAP2 SWAP1 PUSH1 0x1 ADD SWAP1 PUSH3 0xD1 JUMP JUMPDEST JUMPDEST POP SWAP1 POP PUSH3 0xFE SWAP2 SWAP1 PUSH3 0x102 JUMP JUMPDEST POP SWAP1 JUMP JUMPDEST JUMPDEST DUP1 DUP3 GT ISZERO PUSH3 0x11D JUMPI PUSH1 0x0 DUP2 PUSH1 0x0 SWAP1 SSTORE POP PUSH1 0x1 ADD PUSH3 0x103 JUMP JUMPDEST POP SWAP1 JUMP JUMPDEST PUSH1 0x0 PUSH3 0x138 PUSH3 0x132 DUP5 PUSH3 0x22F JUMP JUMPDEST PUSH3 0x206 JUMP JUMPDEST SWAP1 POP DUP3 DUP2 MSTORE PUSH1 0x20 DUP2 ADD DUP5 DUP5 DUP5 ADD GT ISZERO PUSH3 0x151 JUMPI PUSH1 0x0 DUP1 REVERT JUMPDEST PUSH3 0x15E DUP5 DUP3 DUP6 PUSH3 0x265 JUMP JUMPDEST POP SWAP4 SWAP3 POP POP POP JUMP JUMPDEST PUSH1 0x0 DUP3 PUSH1 0x1F DUP4 ADD SLT PUSH3 0x178 JUMPI PUSH1 0x0 DUP1 REVERT JUMPDEST DUP2 MLOAD PUSH3 0x18A DUP5 DUP3 PUSH1 0x20 DUP7 ADD PUSH3 0x121 JUMP JUMPDEST SWAP2 POP POP SWAP3 SWAP2 POP POP JUMP JUMPDEST PUSH1 0x0 DUP1 PUSH1 0x40 DUP4 DUP6 SUB SLT ISZERO PUSH3 0x1A7 JUMPI PUSH1 0x0 DUP1 REVERT JUMPDEST PUSH1 0x0 DUP4 ADD MLOAD PUSH8 0xFFFFFFFFFFFFFFFF DUP2 GT ISZERO PUSH3 0x1C2 JUMPI PUSH1 0x0 DUP1 REVERT JUMPDEST PUSH3 0x1D0 DUP6 DUP3 DUP7 ADD PUSH3 0x166 JUMP JUMPDEST SWAP3 POP POP PUSH1 0x20 DUP4 ADD MLOAD PUSH8 0xFFFFFFFFFFFFFFFF DUP2 GT ISZERO PUSH3 0x1EE JUMPI PUSH1 0x0 DUP1 REVERT JUMPDEST PUSH3 0x1FC DUP6 DUP3 DUP7 ADD PUSH3 0x166 JUMP JUMPDEST SWAP2 POP POP SWAP3 POP SWAP3 SWAP1 POP JUMP JUMPDEST PUSH1 0x0 PUSH3 0x212 PUSH3 0x225 JUMP JUMPDEST SWAP1 POP PUSH3 0x220 DUP3 DUP3 PUSH3 0x2D1 JUMP JUMPDEST SWAP2 SWAP1 POP JUMP JUMPDEST PUSH1 0x0 PUSH1 0x40 MLOAD SWAP1 POP SWAP1 JUMP JUMPDEST PUSH1 0x0 PUSH8 0xFFFFFFFFFFFFFFFF DUP3 GT ISZERO PUSH3 0x24D JUMPI PUSH3 0x24C PUSH3 0x336 JUMP JUMPDEST JUMPDEST PUSH3 0x258 DUP3 PUSH3 0x365 JUMP JUMPDEST SWAP1 POP PUSH1 0x20 DUP2 ADD SWAP1 POP SWAP2 SWAP1 POP JUMP JUMPDEST PUSH1 0x0 JUMPDEST DUP4 DUP2 LT ISZERO PUSH3 0x285 JUMPI DUP1 DUP3 ADD MLOAD DUP2 DUP5 ADD MSTORE PUSH1 0x20 DUP2 ADD SWAP1 POP PUSH3 0x268 JUMP JUMPDEST DUP4 DUP2 GT ISZERO PUSH3 0x295 JUMPI PUSH1 0x0 DUP5 DUP5 ADD MSTORE JUMPDEST POP POP POP POP JUMP JUMPDEST PUSH1 0x0 PUSH1 0x2 DUP3 DIV SWAP1 POP PUSH1 0x1 DUP3 AND DUP1 PUSH3 0x2B4 JUMPI PUSH1 0x7F DUP3 AND SWAP2 POP JUMPDEST PUSH1 0x20 DUP3 LT DUP2 EQ ISZERO PUSH3 0x2CB JUMPI PUSH3 0x2CA PUSH3 0x307 JUMP JUMPDEST JUMPDEST POP SWAP2 SWAP1 POP JUMP JUMPDEST PUSH3 0x2DC DUP3 PUSH3 0x365 JUMP JUMPDEST DUP2 ADD DUP2 DUP2 LT PUSH8 0xFFFFFFFFFFFFFFFF DUP3 GT OR ISZERO PUSH3 0x2FE JUMPI PUSH3 0x2FD PUSH3 0x336 JUMP JUMPDEST JUMPDEST DUP1 PUSH1 0x40 MSTORE POP POP POP JUMP JUMPDEST PUSH32 0x4E487B7100000000000000000000000000000000000000000000000000000000 PUSH1 0x0 MSTORE PUSH1 0x22 PUSH1 0x4 MSTORE PUSH1 0x24 PUSH1 0x0 REVERT JUMPDEST PUSH32 0x4E487B7100000000000000000000000000000000000000000000000000000000 PUSH1 0x0 MSTORE PUSH1 0x41 PUSH1 0x4 MSTORE PUSH1 0x24 PUSH1 0x0 REVERT JUMPDEST PUSH1 0x0 PUSH1 0x1F NOT PUSH1 0x1F DUP4 ADD AND SWAP1 POP SWAP2 SWAP1 POP JUMP JUMPDEST PUSH2 0x1253 DUP1 PUSH3 0x386 PUSH1 0x0 CODECOPY PUSH1 0x0 RETURN INVALID PUSH1 0x80 PUSH1 0x40 MSTORE CALLVALUE DUP1 ISZERO PUSH2 0x10 JUMPI PUSH1 0x0 DUP1 REVERT JUMPDEST POP PUSH1 0x4 CALLDATASIZE LT PUSH2 0xA9 JUMPI PUSH1 0x0 CALLDATALOAD PUSH1 0xE0 SHR DUP1 PUSH4 0x39509351 GT PUSH2 0x71 JUMPI DUP1 PUSH4 0x39509351 EQ PUSH2 0x168 JUMPI DUP1 PUSH4 0x70A08231 EQ PUSH2 0x198 JUMPI DUP1 PUSH4 0x95D89B41 EQ PUSH2 0x1C8 JUMPI DUP1 PUSH4 0xA457C2D7 EQ PUSH2 0x1E6 JUMPI DUP1 PUSH4 0xA9059CBB EQ PUSH2 0x216 JUMPI DUP1 PUSH4 0xDD62ED3E EQ PUSH2 0x246 JUMPI PUSH2 0xA9 JUMP JUMPDEST DUP1 PUSH4 0x6FDDE03 EQ PUSH2 0xAE JUMPI DUP1 PUSH4 0x95EA7B3 EQ PUSH2 0xCC JUMPI DUP1 PUSH4 0x18160DDD EQ PUSH2 0xFC JUMPI DUP1 PUSH4 0x23B872DD EQ PUSH2 0x11A JUMPI DUP1 PUSH4 0x313CE567 EQ PUSH2 0x14A JUMPI JUMPDEST PUSH1 0x0 DUP1 REVERT JUMPDEST PUSH2 0xB6 PUSH2 0x276 JUMP JUMPDEST PUSH1 0x40 MLOAD PUSH2 0xC3 SWAP2 SWAP1 PUSH2 0xD19 JUMP JUMPDEST PUSH1 0x40 MLOAD DUP1 SWAP2 SUB SWAP1 RETURN JUMPDEST PUSH2 0xE6 PUSH1 0x4 DUP1 CALLDATASIZE SUB DUP2 ADD SWAP1 PUSH2 0xE1 SWAP2 SWAP1 PUSH2 0xB67 JUMP JUMPDEST PUSH2 0x308 JUMP JUMPDEST PUSH1 0x40 MLOAD PUSH2 0xF3 SWAP2 SWAP1 PUSH2 0xCFE JUMP JUMPDEST PUSH1 0x40 MLOAD DUP1 SWAP2 SUB SWAP1 RETURN JUMPDEST PUSH2 0x104 PUSH2 0x32B JUMP JUMPDEST PUSH1 0x40 MLOAD PUSH2 0x111 SWAP2 SWAP1 PUSH2 0xE1B JUMP JUMPDEST PUSH1 0x40 MLOAD DUP1 SWAP2 SUB SWAP1 RETURN JUMPDEST PUSH2 0x134 PUSH1 0x4 DUP1 CALLDATASIZE SUB DUP2 ADD SWAP1 PUSH2 0x12F SWAP2 SWAP1 PUSH2 0xB18 JUMP JUMPDEST PUSH2 0x335 JUMP JUMPDEST PUSH1 0x40 MLOAD PUSH2 0x141 SWAP2 SWAP1 PUSH2 0xCFE JUMP JUMPDEST PUSH1 0x40 MLOAD DUP1 SWAP2 SUB SWAP1 RETURN JUMPDEST PUSH2 0x152 PUSH2 0x364 JUMP JUMPDEST PUSH1 0x40 MLOAD PUSH2 0x15F SWAP2 SWAP1 PUSH2 0xE36 JUMP JUMPDEST PUSH1 0x40 MLOAD DUP1 SWAP2 SUB SWAP1 RETURN JUMPDEST PUSH2 0x182 PUSH1 0x4 DUP1 CALLDATASIZE SUB DUP2 ADD SWAP1 PUSH2 0x17D SWAP2 SWAP1 PUSH2 0xB67 JUMP JUMPDEST PUSH2 0x36D JUMP JUMPDEST PUSH1 0x40 MLOAD PUSH2 0x18F SWAP2 SWAP1 PUSH2 0xCFE JUMP JUMPDEST PUSH1 0x40 MLOAD DUP1 SWAP2 SUB SWAP1 RETURN JUMPDEST PUSH2 0x1B2 PUSH1 0x4 DUP1 CALLDATASIZE SUB DUP2 ADD SWAP1 PUSH2 0x1AD SWAP2 SWAP1 PUSH2 0xAB3 JUMP JUMPDEST PUSH2 0x3A4 JUMP JUMPDEST PUSH1 0x40 MLOAD PUSH2 0x1BF SWAP2 SWAP1 PUSH2 0xE1B JUMP JUMPDEST PUSH1 0x40 MLOAD DUP1 SWAP2 SUB SWAP1 RETURN JUMPDEST PUSH2 0x1D0 PUSH2 0x3EC JUMP JUMPDEST PUSH1 0x40 MLOAD PUSH2 0x1DD SWAP2 SWAP1 PUSH2 0xD19 JUMP JUMPDEST PUSH1 0x40 MLOAD DUP1 SWAP2 SUB SWAP1 RETURN JUMPDEST PUSH2 0x200 PUSH1 0x4 DUP1 CALLDATASIZE SUB DUP2 ADD SWAP1 PUSH2 0x1FB SWAP2 SWAP1 PUSH2 0xB67 JUMP JUMPDEST PUSH2 0x47E JUMP JUMPDEST PUSH1 0x40 MLOAD PUSH2 0x20D SWAP2 SWAP1 PUSH2 0xCFE JUMP JUMPDEST PUSH1 0x40 MLOAD DUP1 SWAP2 SUB SWAP1 RETURN JUMPDEST PUSH2 0x230 PUSH1 0x4 DUP1 CALLDATASIZE SUB DUP2 ADD SWAP1 PUSH2 0x22B SWAP2 SWAP1 PUSH2 0xB67 JUMP JUMPDEST PUSH2 0x4F5 JUMP JUMPDEST PUSH1 0x40 MLOAD PUSH2 0x23D SWAP2 SWAP1 PUSH2 0xCFE JUMP JUMPDEST PUSH1 0x40 MLOAD DUP1 SWAP2 SUB SWAP1 RETURN JUMPDEST PUSH2 0x260 PUSH1 0x4 DUP1 CALLDATASIZE SUB DUP2 ADD SWAP1 PUSH2 0x25B SWAP2 SWAP1 PUSH2 0xADC JUMP JUMPDEST PUSH2 0x518 JUMP JUMPDEST PUSH1 0x40 MLOAD PUSH2 0x26D SWAP2 SWAP1 PUSH2 0xE1B JUMP JUMPDEST PUSH1 0x40 MLOAD DUP1 SWAP2 SUB SWAP1 RETURN JUMPDEST PUSH1 0x60 PUSH1 0x3 DUP1 SLOAD PUSH2 0x285 SWAP1 PUSH2 0xF4B JUMP JUMPDEST DUP1 PUSH1 0x1F ADD PUSH1 0x20 DUP1 SWAP2 DIV MUL PUSH1 0x20 ADD PUSH1 0x40 MLOAD SWAP1 DUP2 ADD PUSH1 0x40 MSTORE DUP1 SWAP3 SWAP2 SWAP1 DUP2 DUP2 MSTORE PUSH1 0x20 ADD DUP3 DUP1 SLOAD PUSH2 0x2B1 SWAP1 PUSH2 0xF4B JUMP JUMPDEST DUP1 ISZERO PUSH2 0x2FE JUMPI DUP1 PUSH1 0x1F LT PUSH2 0x2D3 JUMPI PUSH2 0x100 DUP1 DUP4 SLOAD DIV MUL DUP4 MSTORE SWAP2 PUSH1 0x20 ADD SWAP2 PUSH2 0x2FE JUMP JUMPDEST DUP3 ADD SWAP2 SWAP1 PUSH1 0x0 MSTORE PUSH1 0x20 PUSH1 0x0 KECCAK256 SWAP1 JUMPDEST DUP2 SLOAD DUP2 MSTORE SWAP1 PUSH1 0x1 ADD SWAP1 PUSH1 0x20 ADD DUP1 DUP4 GT PUSH2 0x2E1 JUMPI DUP3 SWAP1 SUB PUSH1 0x1F AND DUP3 ADD SWAP2 JUMPDEST POP POP POP POP POP SWAP1 POP SWAP1 JUMP JUMPDEST PUSH1 0x0 DUP1 PUSH2 0x313 PUSH2 0x59F JUMP JUMPDEST SWAP1 POP PUSH2 0x320 DUP2 DUP6 DUP6 PUSH2 0x5A7 JUMP JUMPDEST PUSH1 0x1 SWAP2 POP POP SWAP3 SWAP2 POP POP JUMP JUMPDEST PUSH1 0x0 PUSH1 0x2 SLOAD SWAP1 POP SWAP1 JUMP JUMPDEST PUSH1 0x0 DUP1 PUSH2 0x340 PUSH2 0x59F JUMP JUMPDEST SWAP1 POP PUSH2 0x34D DUP6 DUP3 DUP6 PUSH2 0x772 JUMP JUMPDEST PUSH2 0x358 DUP6 DUP6 DUP6 PUSH2 0x7FE JUMP JUMPDEST PUSH1 0x1 SWAP2 POP POP SWAP4 SWAP3 POP POP POP JUMP JUMPDEST PUSH1 0x0 PUSH1 0x12 SWAP1 POP SWAP1 JUMP JUMPDEST PUSH1 0x0 DUP1 PUSH2 0x378 PUSH2 0x59F JUMP JUMPDEST SWAP1 POP PUSH2 0x399 DUP2 DUP6 DUP6 PUSH2 0x38A DUP6 DUP10 PUSH2 0x518 JUMP JUMPDEST PUSH2 0x394 SWAP2 SWAP1 PUSH2 0xE6D JUMP JUMPDEST PUSH2 0x5A7 JUMP JUMPDEST PUSH1 0x1 SWAP2 POP POP SWAP3 SWAP2 POP POP JUMP JUMPDEST PUSH1 0x0 DUP1 PUSH1 0x0 DUP4 PUSH20 0xFFFFFFFFFFFFFFFFFFFFFFFFFFFFFFFFFFFFFFFF AND PUSH20 0xFFFFFFFFFFFFFFFFFFFFFFFFFFFFFFFFFFFFFFFF AND DUP2 MSTORE PUSH1 0x20 ADD SWAP1 DUP2 MSTORE PUSH1 0x20 ADD PUSH1 0x0 KECCAK256 SLOAD SWAP1 POP SWAP2 SWAP1 POP JUMP JUMPDEST PUSH1 0x60 PUSH1 0x4 DUP1 SLOAD PUSH2 0x3FB SWAP1 PUSH2 0xF4B JUMP JUMPDEST DUP1 PUSH1 0x1F ADD PUSH1 0x20 DUP1 SWAP2 DIV MUL PUSH1 0x20 ADD PUSH1 0x40 MLOAD SWAP1 DUP2 ADD PUSH1 0x40 MSTORE DUP1 SWAP3 SWAP2 SWAP1 DUP2 DUP2 MSTORE PUSH1 0x20 ADD DUP3 DUP1 SLOAD PUSH2 0x427 SWAP1 PUSH2 0xF4B JUMP JUMPDEST DUP1 ISZERO PUSH2 0x474 JUMPI DUP1 PUSH1 0x1F LT PUSH2 0x449 JUMPI PUSH2 0x100 DUP1 DUP4 SLOAD DIV MUL DUP4 MSTORE SWAP2 PUSH1 0x20 ADD SWAP2 PUSH2 0x474 JUMP JUMPDEST DUP3 ADD SWAP2 SWAP1 PUSH1 0x0 MSTORE PUSH1 0x20 PUSH1 0x0 KECCAK256 SWAP1 JUMPDEST DUP2 SLOAD DUP2 MSTORE SWAP1 PUSH1 0x1 ADD SWAP1 PUSH1 0x20 ADD DUP1 DUP4 GT PUSH2 0x457 JUMPI DUP3 SWAP1 SUB PUSH1 0x1F AND DUP3 ADD SWAP2 JUMPDEST POP POP POP POP POP SWAP1 POP SWAP1 JUMP JUMPDEST PUSH1 0x0 DUP1 PUSH2 0x489 PUSH2 0x59F JUMP JUMPDEST SWAP1 POP PUSH1 0x0 PUSH2 0x497 DUP3 DUP7 PUSH2 0x518 JUMP JUMPDEST SWAP1 POP DUP4 DUP2 LT ISZERO PUSH2 0x4DC JUMPI PUSH1 0x40 MLOAD PUSH32 0x8C379A000000000000000000000000000000000000000000000000000000000 DUP2 MSTORE PUSH1 0x4 ADD PUSH2 0x4D3 SWAP1 PUSH2 0xDFB JUMP JUMPDEST PUSH1 0x40 MLOAD DUP1 SWAP2 SUB SWAP1 REVERT JUMPDEST PUSH2 0x4E9 DUP3 DUP7 DUP7 DUP5 SUB PUSH2 0x5A7 JUMP JUMPDEST PUSH1 0x1 SWAP3 POP POP POP SWAP3 SWAP2 POP POP JUMP JUMPDEST PUSH1 0x0 DUP1 PUSH2 0x500 PUSH2 0x59F JUMP JUMPDEST SWAP1 POP PUSH2 0x50D DUP2 DUP6 DUP6 PUSH2 0x7FE JUMP JUMPDEST PUSH1 0x1 SWAP2 POP POP SWAP3 SWAP2 POP POP JUMP JUMPDEST PUSH1 0x0 PUSH1 0x1 PUSH1 0x0 DUP5 PUSH20 0xFFFFFFFFFFFFFFFFFFFFFFFFFFFFFFFFFFFFFFFF AND PUSH20 0xFFFFFFFFFFFFFFFFFFFFFFFFFFFFFFFFFFFFFFFF AND DUP2 MSTORE PUSH1 0x20 ADD SWAP1 DUP2 MSTORE PUSH1 0x20 ADD PUSH1 0x0 KECCAK256 PUSH1 0x0 DUP4 PUSH20 0xFFFFFFFFFFFFFFFFFFFFFFFFFFFFFFFFFFFFFFFF AND PUSH20 0xFFFFFFFFFFFFFFFFFFFFFFFFFFFFFFFFFFFFFFFF AND DUP2 MSTORE PUSH1 0x20 ADD SWAP1 DUP2 MSTORE PUSH1 0x20 ADD PUSH1 0x0 KECCAK256 SLOAD SWAP1 POP SWAP3 SWAP2 POP POP JUMP JUMPDEST PUSH1 0x0 CALLER SWAP1 POP SWAP1 JUMP JUMPDEST PUSH1 0x0 PUSH20 0xFFFFFFFFFFFFFFFFFFFFFFFFFFFFFFFFFFFFFFFF AND DUP4 PUSH20 0xFFFFFFFFFFFFFFFFFFFFFFFFFFFFFFFFFFFFFFFF AND EQ ISZERO PUSH2 0x617 JUMPI PUSH1 0x40 MLOAD PUSH32 0x8C379A000000000000000000000000000000000000000000000000000000000 DUP2 MSTORE PUSH1 0x4 ADD PUSH2 0x60E SWAP1 PUSH2 0xDDB JUMP JUMPDEST PUSH1 0x40 MLOAD DUP1 SWAP2 SUB SWAP1 REVERT JUMPDEST PUSH1 0x0 PUSH20 0xFFFFFFFFFFFFFFFFFFFFFFFFFFFFFFFFFFFFFFFF AND DUP3 PUSH20 0xFFFFFFFFFFFFFFFFFFFFFFFFFFFFFFFFFFFFFFFF AND EQ ISZERO PUSH2 0x687 JUMPI PUSH1 0x40 MLOAD PUSH32 0x8C379A000000000000000000000000000000000000000000000000000000000 DUP2 MSTORE PUSH1 0x4 ADD PUSH2 0x67E SWAP1 PUSH2 0xD5B JUMP JUMPDEST PUSH1 0x40 MLOAD DUP1 SWAP2 SUB SWAP1 REVERT JUMPDEST DUP1 PUSH1 0x1 PUSH1 0x0 DUP6 PUSH20 0xFFFFFFFFFFFFFFFFFFFFFFFFFFFFFFFFFFFFFFFF AND PUSH20 0xFFFFFFFFFFFFFFFFFFFFFFFFFFFFFFFFFFFFFFFF AND DUP2 MSTORE PUSH1 0x20 ADD SWAP1 DUP2 MSTORE PUSH1 0x20 ADD PUSH1 0x0 KECCAK256 PUSH1 0x0 DUP5 PUSH20 0xFFFFFFFFFFFFFFFFFFFFFFFFFFFFFFFFFFFFFFFF AND PUSH20 0xFFFFFFFFFFFFFFFFFFFFFFFFFFFFFFFFFFFFFFFF AND DUP2 MSTORE PUSH1 0x20 ADD SWAP1 DUP2 MSTORE PUSH1 0x20 ADD PUSH1 0x0 KECCAK256 DUP2 SWAP1 SSTORE POP DUP2 PUSH20 0xFFFFFFFFFFFFFFFFFFFFFFFFFFFFFFFFFFFFFFFF AND DUP4 PUSH20 0xFFFFFFFFFFFFFFFFFFFFFFFFFFFFFFFFFFFFFFFF AND PUSH32 0x8C5BE1E5EBEC7D5BD14F71427D1E84F3DD0314C0F7B2291E5B200AC8C7C3B925 DUP4 PUSH1 0x40 MLOAD PUSH2 0x765 SWAP2 SWAP1 PUSH2 0xE1B JUMP JUMPDEST PUSH1 0x40 MLOAD DUP1 SWAP2 SUB SWAP1 LOG3 POP POP POP JUMP JUMPDEST PUSH1 0x0 PUSH2 0x77E DUP5 DUP5 PUSH2 0x518 JUMP JUMPDEST SWAP1 POP PUSH32 0xFFFFFFFFFFFFFFFFFFFFFFFFFFFFFFFFFFFFFFFFFFFFFFFFFFFFFFFFFFFFFFFF DUP2 EQ PUSH2 0x7F8 JUMPI DUP2 DUP2 LT ISZERO PUSH2 0x7EA JUMPI PUSH1 0x40 MLOAD PUSH32 0x8C379A000000000000000000000000000000000000000000000000000000000 DUP2 MSTORE PUSH1 0x4 ADD PUSH2 0x7E1 SWAP1 PUSH2 0xD7B JUMP JUMPDEST PUSH1 0x40 MLOAD DUP1 SWAP2 SUB SWAP1 REVERT JUMPDEST PUSH2 0x7F7 DUP5 DUP5 DUP5 DUP5 SUB PUSH2 0x5A7 JUMP JUMPDEST JUMPDEST POP POP POP POP JUMP JUMPDEST PUSH1 0x0 PUSH20 0xFFFFFFFFFFFFFFFFFFFFFFFFFFFFFFFFFFFFFFFF AND DUP4 PUSH20 0xFFFFFFFFFFFFFFFFFFFFFFFFFFFFFFFFFFFFFFFF AND EQ ISZERO PUSH2 0x86E JUMPI PUSH1 0x40 MLOAD PUSH32 0x8C379A000000000000000000000000000000000000000000000000000000000 DUP2 MSTORE PUSH1 0x4 ADD PUSH2 0x865 SWAP1 PUSH2 0xDBB JUMP JUMPDEST PUSH1 0x40 MLOAD DUP1 SWAP2 SUB SWAP1 REVERT JUMPDEST PUSH1 0x0 PUSH20 0xFFFFFFFFFFFFFFFFFFFFFFFFFFFFFFFFFFFFFFFF AND DUP3 PUSH20 0xFFFFFFFFFFFFFFFFFFFFFFFFFFFFFFFFFFFFFFFF AND EQ ISZERO PUSH2 0x8DE JUMPI PUSH1 0x40 MLOAD PUSH32 0x8C379A000000000000000000000000000000000000000000000000000000000 DUP2 MSTORE PUSH1 0x4 ADD PUSH2 0x8D5 SWAP1 PUSH2 0xD3B JUMP JUMPDEST PUSH1 0x40 MLOAD DUP1 SWAP2 SUB SWAP1 REVERT JUMPDEST PUSH2 0x8E9 DUP4 DUP4 DUP4 PUSH2 0xA7F JUMP JUMPDEST PUSH1 0x0 DUP1 PUSH1 0x0 DUP6 PUSH20 0xFFFFFFFFFFFFFFFFFFFFFFFFFFFFFFFFFFFFFFFF AND PUSH20 0xFFFFFFFFFFFFFFFFFFFFFFFFFFFFFFFFFFFFFFFF AND DUP2 MSTORE PUSH1 0x20 ADD SWAP1 DUP2 MSTORE PUSH1 0x20 ADD PUSH1 0x0 KECCAK256 SLOAD SWAP1 POP DUP2 DUP2 LT ISZERO PUSH2 0x96F JUMPI PUSH1 0x40 MLOAD PUSH32 0x8C379A000000000000000000000000000000000000000000000000000000000 DUP2 MSTORE PUSH1 0x4 ADD PUSH2 0x966 SWAP1 PUSH2 0xD9B JUMP JUMPDEST PUSH1 0x40 MLOAD DUP1 SWAP2 SUB SWAP1 REVERT JUMPDEST DUP2 DUP2 SUB PUSH1 0x0 DUP1 DUP7 PUSH20 0xFFFFFFFFFFFFFFFFFFFFFFFFFFFFFFFFFFFFFFFF AND PUSH20 0xFFFFFFFFFFFFFFFFFFFFFFFFFFFFFFFFFFFFFFFF AND DUP2 MSTORE PUSH1 0x20 ADD SWAP1 DUP2 MSTORE PUSH1 0x20 ADD PUSH1 0x0 KECCAK256 DUP2 SWAP1 SSTORE POP DUP2 PUSH1 0x0 DUP1 DUP6 PUSH20 0xFFFFFFFFFFFFFFFFFFFFFFFFFFFFFFFFFFFFFFFF AND PUSH20 0xFFFFFFFFFFFFFFFFFFFFFFFFFFFFFFFFFFFFFFFF AND DUP2 MSTORE PUSH1 0x20 ADD SWAP1 DUP2 MSTORE PUSH1 0x20 ADD PUSH1 0x0 KECCAK256 PUSH1 0x0 DUP3 DUP3 SLOAD PUSH2 0xA02 SWAP2 SWAP1 PUSH2 0xE6D JUMP JUMPDEST SWAP3 POP POP DUP2 SWAP1 SSTORE POP DUP3 PUSH20 0xFFFFFFFFFFFFFFFFFFFFFFFFFFFFFFFFFFFFFFFF AND DUP5 PUSH20 0xFFFFFFFFFFFFFFFFFFFFFFFFFFFFFFFFFFFFFFFF AND PUSH32 0xDDF252AD1BE2C89B69C2B068FC378DAA952BA7F163C4A11628F55A4DF523B3EF DUP5 PUSH1 0x40 MLOAD PUSH2 0xA66 SWAP2 SWAP1 PUSH2 0xE1B JUMP JUMPDEST PUSH1 0x40 MLOAD DUP1 SWAP2 SUB SWAP1 LOG3 PUSH2 0xA79 DUP5 DUP5 DUP5 PUSH2 0xA84 JUMP JUMPDEST POP POP POP POP JUMP JUMPDEST POP POP POP JUMP JUMPDEST POP POP POP JUMP JUMPDEST PUSH1 0x0 DUP2 CALLDATALOAD SWAP1 POP PUSH2 0xA98 DUP2 PUSH2 0x11EF JUMP JUMPDEST SWAP3 SWAP2 POP POP JUMP JUMPDEST PUSH1 0x0 DUP2 CALLDATALOAD SWAP1 POP PUSH2 0xAAD DUP2 PUSH2 0x1206 JUMP JUMPDEST SWAP3 SWAP2 POP POP JUMP JUMPDEST PUSH1 0x0 PUSH1 0x20 DUP3 DUP5 SUB SLT ISZERO PUSH2 0xAC5 JUMPI PUSH1 0x0 DUP1 REVERT JUMPDEST PUSH1 0x0 PUSH2 0xAD3 DUP5 DUP3 DUP6 ADD PUSH2 0xA89 JUMP JUMPDEST SWAP2 POP POP SWAP3 SWAP2 POP POP JUMP JUMPDEST PUSH1 0x0 DUP1 PUSH1 0x40 DUP4 DUP6 SUB SLT ISZERO PUSH2 0xAEF JUMPI PUSH1 0x0 DUP1 REVERT JUMPDEST PUSH1 0x0 PUSH2 0xAFD DUP6 DUP3 DUP7 ADD PUSH2 0xA89 JUMP JUMPDEST SWAP3 POP POP PUSH1 0x20 PUSH2 0xB0E DUP6 DUP3 DUP7 ADD PUSH2 0xA89 JUMP JUMPDEST SWAP2 POP POP SWAP3 POP SWAP3 SWAP1 POP JUMP JUMPDEST PUSH1 0x0 DUP1 PUSH1 0x0 PUSH1 0x60 DUP5 DUP7 SUB SLT ISZERO PUSH2 0xB2D JUMPI PUSH1 0x0 DUP1 REVERT JUMPDEST PUSH1 0x0 PUSH2 0xB3B DUP7 DUP3 DUP8 ADD PUSH2 0xA89 JUMP JUMPDEST SWAP4 POP POP PUSH1 0x20 PUSH2 0xB4C DUP7 DUP3 DUP8 ADD PUSH2 0xA89 JUMP JUMPDEST SWAP3 POP POP PUSH1 0x40 PUSH2 0xB5D DUP7 DUP3 DUP8 ADD PUSH2 0xA9E JUMP JUMPDEST SWAP2 POP POP SWAP3 POP SWAP3 POP SWAP3 JUMP JUMPDEST PUSH1 0x0 DUP1 PUSH1 0x40 DUP4 DUP6 SUB SLT ISZERO PUSH2 0xB7A JUMPI PUSH1 0x0 DUP1 REVERT JUMPDEST PUSH1 0x0 PUSH2 0xB88 DUP6 DUP3 DUP7 ADD PUSH2 0xA89 JUMP JUMPDEST SWAP3 POP POP PUSH1 0x20 PUSH2 0xB99 DUP6 DUP3 DUP7 ADD PUSH2 0xA9E JUMP JUMPDEST SWAP2 POP POP SWAP3 POP SWAP3 SWAP1 POP JUMP JUMPDEST PUSH2 0xBAC DUP2 PUSH2 0xED5 JUMP JUMPDEST DUP3 MSTORE POP POP JUMP JUMPDEST PUSH1 0x0 PUSH2 0xBBD DUP3 PUSH2 0xE51 JUMP JUMPDEST PUSH2 0xBC7 DUP2 DUP6 PUSH2 0xE5C JUMP JUMPDEST SWAP4 POP PUSH2 0xBD7 DUP2 DUP6 PUSH1 0x20 DUP7 ADD PUSH2 0xF18 JUMP JUMPDEST PUSH2 0xBE0 DUP2 PUSH2 0xFDB JUMP JUMPDEST DUP5 ADD SWAP2 POP POP SWAP3 SWAP2 POP POP JUMP JUMPDEST PUSH1 0x0 PUSH2 0xBF8 PUSH1 0x23 DUP4 PUSH2 0xE5C JUMP JUMPDEST SWAP2 POP PUSH2 0xC03 DUP3 PUSH2 0xFEC JUMP JUMPDEST PUSH1 0x40 DUP3 ADD SWAP1 POP SWAP2 SWAP1 POP JUMP JUMPDEST PUSH1 0x0 PUSH2 0xC1B PUSH1 0x22 DUP4 PUSH2 0xE5C JUMP JUMPDEST SWAP2 POP PUSH2 0xC26 DUP3 PUSH2 0x103B JUMP JUMPDEST PUSH1 0x40 DUP3 ADD SWAP1 POP SWAP2 SWAP1 POP JUMP JUMPDEST PUSH1 0x0 PUSH2 0xC3E PUSH1 0x1D DUP4 PUSH2 0xE5C JUMP JUMPDEST SWAP2 POP PUSH2 0xC49 DUP3 PUSH2 0x108A JUMP JUMPDEST PUSH1 0x20 DUP3 ADD SWAP1 POP SWAP2 SWAP1 POP JUMP JUMPDEST PUSH1 0x0 PUSH2 0xC61 PUSH1 0x26 DUP4 PUSH2 0xE5C JUMP JUMPDEST SWAP2 POP PUSH2 0xC6C DUP3 PUSH2 0x10B3 JUMP JUMPDEST PUSH1 0x40 DUP3 ADD SWAP1 POP SWAP2 SWAP1 POP JUMP JUMPDEST PUSH1 0x0 PUSH2 0xC84 PUSH1 0x25 DUP4 PUSH2 0xE5C JUMP JUMPDEST SWAP2 POP PUSH2 0xC8F DUP3 PUSH2 0x1102 JUMP JUMPDEST PUSH1 0x40 DUP3 ADD SWAP1 POP SWAP2 SWAP1 POP JUMP JUMPDEST PUSH1 0x0 PUSH2 0xCA7 PUSH1 0x24 DUP4 PUSH2 0xE5C JUMP JUMPDEST SWAP2 POP PUSH2 0xCB2 DUP3 PUSH2 0x1151 JUMP JUMPDEST PUSH1 0x40 DUP3 ADD SWAP1 POP SWAP2 SWAP1 POP JUMP JUMPDEST PUSH1 0x0 PUSH2 0xCCA PUSH1 0x25 DUP4 PUSH2 0xE5C JUMP JUMPDEST SWAP2 POP PUSH2 0xCD5 DUP3 PUSH2 0x11A0 JUMP JUMPDEST PUSH1 0x40 DUP3 ADD SWAP1 POP SWAP2 SWAP1 POP JUMP JUMPDEST PUSH2 0xCE9 DUP2 PUSH2 0xF01 JUMP JUMPDEST DUP3 MSTORE POP POP JUMP JUMPDEST PUSH2 0xCF8 DUP2 PUSH2 0xF0B JUMP JUMPDEST DUP3 MSTORE POP POP JUMP JUMPDEST PUSH1 0x0 PUSH1 0x20 DUP3 ADD SWAP1 POP PUSH2 0xD13 PUSH1 0x0 DUP4 ADD DUP5 PUSH2 0xBA3 JUMP JUMPDEST SWAP3 SWAP2 POP POP JUMP JUMPDEST PUSH1 0x0 PUSH1 0x20 DUP3 ADD SWAP1 POP DUP2 DUP2 SUB PUSH1 0x0 DUP4 ADD MSTORE PUSH2 0xD33 DUP2 DUP5 PUSH2 0xBB2 JUMP JUMPDEST SWAP1 POP SWAP3 SWAP2 POP POP JUMP JUMPDEST PUSH1 0x0 PUSH1 0x20 DUP3 ADD SWAP1 POP DUP2 DUP2 SUB PUSH1 0x0 DUP4 ADD MSTORE PUSH2 0xD54 DUP2 PUSH2 0xBEB JUMP JUMPDEST SWAP1 POP SWAP2 SWAP1 POP JUMP JUMPDEST PUSH1 0x0 PUSH1 0x20 DUP3 ADD SWAP1 POP DUP2 DUP2 SUB PUSH1 0x0 DUP4 ADD MSTORE PUSH2 0xD74 DUP2 PUSH2 0xC0E JUMP JUMPDEST SWAP1 POP SWAP2 SWAP1 POP JUMP JUMPDEST PUSH1 0x0 PUSH1 0x20 DUP3 ADD SWAP1 POP DUP2 DUP2 SUB PUSH1 0x0 DUP4 ADD MSTORE PUSH2 0xD94 DUP2 PUSH2 0xC31 JUMP JUMPDEST SWAP1 POP SWAP2 SWAP1 POP JUMP JUMPDEST PUSH1 0x0 PUSH1 0x20 DUP3 ADD SWAP1 POP DUP2 DUP2 SUB PUSH1 0x0 DUP4 ADD MSTORE PUSH2 0xDB4 DUP2 PUSH2 0xC54 JUMP JUMPDEST SWAP1 POP SWAP2 SWAP1 POP JUMP JUMPDEST PUSH1 0x0 PUSH1 0x20 DUP3 ADD SWAP1 POP DUP2 DUP2 SUB PUSH1 0x0 DUP4 ADD MSTORE PUSH2 0xDD4 DUP2 PUSH2 0xC77 JUMP JUMPDEST SWAP1 POP SWAP2 SWAP1 POP JUMP JUMPDEST PUSH1 0x0 PUSH1 0x20 DUP3 ADD SWAP1 POP DUP2 DUP2 SUB PUSH1 0x0 DUP4 ADD MSTORE PUSH2 0xDF4 DUP2 PUSH2 0xC9A JUMP JUMPDEST SWAP1 POP SWAP2 SWAP1 POP JUMP JUMPDEST PUSH1 0x0 PUSH1 0x20 DUP3 ADD SWAP1 POP DUP2 DUP2 SUB PUSH1 0x0 DUP4 ADD MSTORE PUSH2 0xE14 DUP2 PUSH2 0xCBD JUMP JUMPDEST SWAP1 POP SWAP2 SWAP1 POP JUMP JUMPDEST PUSH1 0x0 PUSH1 0x20 DUP3 ADD SWAP1 POP PUSH2 0xE30 PUSH1 0x0 DUP4 ADD DUP5 PUSH2 0xCE0 JUMP JUMPDEST SWAP3 SWAP2 POP POP JUMP JUMPDEST PUSH1 0x0 PUSH1 0x20 DUP3 ADD SWAP1 POP PUSH2 0xE4B PUSH1 0x0 DUP4 ADD DUP5 PUSH2 0xCEF JUMP JUMPDEST SWAP3 SWAP2 POP POP JUMP JUMPDEST PUSH1 0x0 DUP2 MLOAD SWAP1 POP SWAP2 SWAP1 POP JUMP JUMPDEST PUSH1 0x0 DUP3 DUP3 MSTORE PUSH1 0x20 DUP3 ADD SWAP1 POP SWAP3 SWAP2 POP POP JUMP JUMPDEST PUSH1 0x0 PUSH2 0xE78 DUP3 PUSH2 0xF01 JUMP JUMPDEST SWAP2 POP PUSH2 0xE83 DUP4 PUSH2 0xF01 JUMP JUMPDEST SWAP3 POP DUP3 PUSH32 0xFFFFFFFFFFFFFFFFFFFFFFFFFFFFFFFFFFFFFFFFFFFFFFFFFFFFFFFFFFFFFFFF SUB DUP3 GT ISZERO PUSH2 0xEB8 JUMPI PUSH2 0xEB7 PUSH2 0xF7D JUMP JUMPDEST JUMPDEST DUP3 DUP3 ADD SWAP1 POP SWAP3 SWAP2 POP POP JUMP JUMPDEST PUSH1 0x0 PUSH2 0xECE DUP3 PUSH2 0xEE1 JUMP JUMPDEST SWAP1 POP SWAP2 SWAP1 POP JUMP JUMPDEST PUSH1 0x0 DUP2 ISZERO ISZERO SWAP1 POP SWAP2 SWAP1 POP JUMP JUMPDEST PUSH1 0x0 PUSH20 0xFFFFFFFFFFFFFFFFFFFFFFFFFFFFFFFFFFFFFFFF DUP3 AND SWAP1 POP SWAP2 SWAP1 POP JUMP JUMPDEST PUSH1 0x0 DUP2 SWAP1 POP SWAP2 SWAP1 POP JUMP JUMPDEST PUSH1 0x0 PUSH1 0xFF DUP3 AND SWAP1 POP SWAP2 SWAP1 POP JUMP JUMPDEST PUSH1 0x0 JUMPDEST DUP4 DUP2 LT ISZERO PUSH2 0xF36 JUMPI DUP1 DUP3 ADD MLOAD DUP2 DUP5 ADD MSTORE PUSH1 0x20 DUP2 ADD SWAP1 POP PUSH2 0xF1B JUMP JUMPDEST DUP4 DUP2 GT ISZERO PUSH2 0xF45 JUMPI PUSH1 0x0 DUP5 DUP5 ADD MSTORE JUMPDEST POP POP POP POP JUMP JUMPDEST PUSH1 0x0 PUSH1 0x2 DUP3 DIV SWAP1 POP PUSH1 0x1 DUP3 AND DUP1 PUSH2 0xF63 JUMPI PUSH1 0x7F DUP3 AND SWAP2 POP JUMPDEST PUSH1 0x20 DUP3 LT DUP2 EQ ISZERO PUSH2 0xF77 JUMPI PUSH2 0xF76 PUSH2 0xFAC JUMP JUMPDEST JUMPDEST POP SWAP2 SWAP1 POP JUMP JUMPDEST PUSH32 0x4E487B7100000000000000000000000000000000000000000000000000000000 PUSH1 0x0 MSTORE PUSH1 0x11 PUSH1 0x4 MSTORE PUSH1 0x24 PUSH1 0x0 REVERT JUMPDEST PUSH32 0x4E487B7100000000000000000000000000000000000000000000000000000000 PUSH1 0x0 MSTORE PUSH1 0x22 PUSH1 0x4 MSTORE PUSH1 0x24 PUSH1 0x0 REVERT JUMPDEST PUSH1 0x0 PUSH1 0x1F NOT PUSH1 0x1F DUP4 ADD AND SWAP1 POP SWAP2 SWAP1 POP JUMP JUMPDEST PUSH32 0x45524332303A207472616E7366657220746F20746865207A65726F2061646472 PUSH1 0x0 DUP3 ADD MSTORE PUSH32 0x6573730000000000000000000000000000000000000000000000000000000000 PUSH1 0x20 DUP3 ADD MSTORE POP JUMP JUMPDEST PUSH32 0x45524332303A20617070726F766520746F20746865207A65726F206164647265 PUSH1 0x0 DUP3 ADD MSTORE PUSH32 0x7373000000000000000000000000000000000000000000000000000000000000 PUSH1 0x20 DUP3 ADD MSTORE POP JUMP JUMPDEST PUSH32 0x45524332303A20696E73756666696369656E7420616C6C6F77616E6365000000 PUSH1 0x0 DUP3 ADD MSTORE POP JUMP JUMPDEST PUSH32 0x45524332303A207472616E7366657220616D6F756E7420657863656564732062 PUSH1 0x0 DUP3 ADD MSTORE PUSH32 0x616C616E63650000000000000000000000000000000000000000000000000000 PUSH1 0x20 DUP3 ADD MSTORE POP JUMP JUMPDEST PUSH32 0x45524332303A207472616E736665722066726F6D20746865207A65726F206164 PUSH1 0x0 DUP3 ADD MSTORE PUSH32 0x6472657373000000000000000000000000000000000000000000000000000000 PUSH1 0x20 DUP3 ADD MSTORE POP JUMP JUMPDEST PUSH32 0x45524332303A20617070726F76652066726F6D20746865207A65726F20616464 PUSH1 0x0 DUP3 ADD MSTORE PUSH32 0x7265737300000000000000000000000000000000000000000000000000000000 PUSH1 0x20 DUP3 ADD MSTORE POP JUMP JUMPDEST PUSH32 0x45524332303A2064656372656173656420616C6C6F77616E63652062656C6F77 PUSH1 0x0 DUP3 ADD MSTORE PUSH32 0x207A65726F000000000000000000000000000000000000000000000000000000 PUSH1 0x20 DUP3 ADD MSTORE POP JUMP JUMPDEST PUSH2 0x11F8 DUP2 PUSH2 0xEC3 JUMP JUMPDEST DUP2 EQ PUSH2 0x1203 JUMPI PUSH1 0x0 DUP1 REVERT JUMPDEST POP JUMP JUMPDEST PUSH2 0x120F DUP2 PUSH2 0xF01 JUMP JUMPDEST DUP2 EQ PUSH2 0x121A JUMPI PUSH1 0x0 DUP1 REVERT JUMPDEST POP JUMP INVALID LOG2 PUSH5 0x6970667358 0x22 SLT KECCAK256 CALLCODE 0xE0 CALLDATACOPY 0x5E DUP11 SWAP1 0xED PUSH5 0xA83CE77D0A 0xF DIFFICULTY 0x2C PC SIGNEXTEND 0xD6 SWAP3 0xA7 PUSH29 0xD21B6A967E469FE1D28264736F6C634300080400330000000000000000 "
				},
				"gasEstimates": {
					"creation": {
						"codeDepositCost": "938200",
						"executionCost": "infinite",
						"totalCost": "infinite"
					},
					"external": {
						"allowance(address,address)": "infinite",
						"approve(address,uint256)": "infinite",
						"balanceOf(address)": "1563",
						"decimals()": "432",
						"decreaseAllowance(address,uint256)": "infinite",
						"increaseAllowance(address,uint256)": "infinite",
						"name()": "infinite",
						"symbol()": "infinite",
						"totalSupply()": "1182",
						"transfer(address,uint256)": "infinite",
						"transferFrom(address,address,uint256)": "infinite"
					},
					"internal": {
						"_afterTokenTransfer(address,address,uint256)": "15",
						"_approve(address,address,uint256)": "infinite",
						"_beforeTokenTransfer(address,address,uint256)": "15",
						"_burn(address,uint256)": "infinite",
						"_mint(address,uint256)": "infinite",
						"_spendAllowance(address,address,uint256)": "infinite",
						"_transfer(address,address,uint256)": "infinite"
					}
				},
				"methodIdentifiers": {
					"allowance(address,address)": "dd62ed3e",
					"approve(address,uint256)": "095ea7b3",
					"balanceOf(address)": "70a08231",
					"decimals()": "313ce567",
					"decreaseAllowance(address,uint256)": "a457c2d7",
					"increaseAllowance(address,uint256)": "39509351",
					"name()": "06fdde03",
					"symbol()": "95d89b41",
					"totalSupply()": "18160ddd",
					"transfer(address,uint256)": "a9059cbb",
					"transferFrom(address,address,uint256)": "23b872dd"
				}
			},
			"storageLayout": {
				"storage": [
					{
						"astId": 15,
						"contract": "ERC20/ERC20.sol:ERC20",
						"label": "_balances",
						"offset": 0,
						"slot": "0",
						"type": "t_mapping(t_address,t_uint256)"
					},
					{
						"astId": 21,
						"contract": "ERC20/ERC20.sol:ERC20",
						"label": "_allowances",
						"offset": 0,
						"slot": "1",
						"type": "t_mapping(t_address,t_mapping(t_address,t_uint256))"
					},
					{
						"astId": 23,
						"contract": "ERC20/ERC20.sol:ERC20",
						"label": "_totalSupply",
						"offset": 0,
						"slot": "2",
						"type": "t_uint256"
					},
					{
						"astId": 25,
						"contract": "ERC20/ERC20.sol:ERC20",
						"label": "_name",
						"offset": 0,
						"slot": "3",
						"type": "t_string_storage"
					},
					{
						"astId": 27,
						"contract": "ERC20/ERC20.sol:ERC20",
						"label": "_symbol",
						"offset": 0,
						"slot": "4",
						"type": "t_string_storage"
					}
				],
				"types": {
					"t_address": {
						"encoding": "inplace",
						"label": "address",
						"numberOfBytes": "20"
					},
					"t_mapping(t_address,t_mapping(t_address,t_uint256))": {
						"encoding": "mapping",
						"key": "t_address",
						"label": "mapping(address => mapping(address => uint256))",
						"numberOfBytes": "32",
						"value": "t_mapping(t_address,t_uint256)"
					},
					"t_mapping(t_address,t_uint256)": {
						"encoding": "mapping",
						"key": "t_address",
						"label": "mapping(address => uint256)",
						"numberOfBytes": "32",
						"value": "t_uint256"
					},
					"t_string_storage": {
						"encoding": "bytes",
						"label": "string",
						"numberOfBytes": "32"
					},
					"t_uint256": {
						"encoding": "inplace",
						"label": "uint256",
						"numberOfBytes": "32"
					}
				}
			},
			"userdoc": {
				"kind": "user",
				"methods": {},
				"version": 1
			}
		}
	}
}