{
	"contracts/1_Storage.sol": {
		"Storage": {
			"abi": [
				{
					"inputs": [],
					"name": "getData",
					"outputs": [
						{
							"internalType": "uint8",
							"name": "",
							"type": "uint8"
						}
					],
					"stateMutability": "view",
					"type": "function"
				},
				{
					"inputs": [],
					"name": "retrieve",
					"outputs": [
						{
							"internalType": "uint256",
							"name": "",
							"type": "uint256"
						}
					],
					"stateMutability": "view",
					"type": "function"
				},
				{
					"inputs": [
						{
							"internalType": "uint256",
							"name": "num",
							"type": "uint256"
						}
					],
					"name": "store",
					"outputs": [],
					"stateMutability": "nonpayable",
					"type": "function"
				}
			],
			"devdoc": {
				"custom:dev-run-script": "./scripts/deploy_with_ethers.ts",
				"details": "Store & retrieve value in a variable",
				"kind": "dev",
				"methods": {
					"retrieve()": {
						"details": "Return value ",
						"returns": {
							"_0": "value of 'number'"
						}
					},
					"store(uint256)": {
						"details": "Store value in variable",
						"params": {
							"num": "value to store"
						}
					}
				},
				"title": "Storage",
				"version": 1
			},
			"evm": {
				"assembly": "    /* \"contracts/1_Storage.sol\":199:649  contract Storage {... */\n  mstore(0x40, 0x80)\n  callvalue\n  dup1\n  iszero\n  tag_1\n  jumpi\n  0x00\n  dup1\n  revert\ntag_1:\n  pop\n  dataSize(sub_0)\n  dup1\n  dataOffset(sub_0)\n  0x00\n  codecopy\n  0x00\n  return\nstop\n\nsub_0: assembly {\n        /* \"contracts/1_Storage.sol\":199:649  contract Storage {... */\n      mstore(0x40, 0x80)\n      callvalue\n      dup1\n      iszero\n      tag_1\n      jumpi\n      0x00\n      dup1\n      revert\n    tag_1:\n      pop\n      jumpi(tag_2, lt(calldatasize, 0x04))\n      shr(0xe0, calldataload(0x00))\n      dup1\n      0x2e64cec1\n      eq\n      tag_3\n      jumpi\n      dup1\n      0x3bc5de30\n      eq\n      tag_4\n      jumpi\n      dup1\n      0x6057361d\n      eq\n      tag_5\n      jumpi\n    tag_2:\n      0x00\n      dup1\n      revert\n        /* \"contracts/1_Storage.sol\":474:553  function retrieve() public view returns (uint256){... */\n    tag_3:\n      tag_6\n      tag_7\n      jump\t// in\n    tag_6:\n      mload(0x40)\n      tag_8\n      swap2\n      swap1\n      tag_9\n      jump\t// in\n    tag_8:\n      mload(0x40)\n      dup1\n      swap2\n      sub\n      swap1\n      return\n        /* \"contracts/1_Storage.sol\":559:647  function getData() public view returns(uint8) {... */\n    tag_4:\n      tag_10\n      tag_11\n      jump\t// in\n    tag_10:\n      mload(0x40)\n      tag_12\n      swap2\n      swap1\n      tag_13\n      jump\t// in\n    tag_12:\n      mload(0x40)\n      dup1\n      swap2\n      sub\n      swap1\n      return\n        /* \"contracts/1_Storage.sol\":329:393  function store(uint256 num) public {... */\n    tag_5:\n      tag_14\n      0x04\n      dup1\n      calldatasize\n      sub\n      dup2\n      add\n      swap1\n      tag_15\n      swap2\n      swap1\n      tag_16\n      jump\t// in\n    tag_15:\n      tag_17\n      jump\t// in\n    tag_14:\n      stop\n        /* \"contracts/1_Storage.sol\":474:553  function retrieve() public view returns (uint256){... */\n    tag_7:\n        /* \"contracts/1_Storage.sol\":515:522  uint256 */\n      0x00\n        /* \"contracts/1_Storage.sol\":540:546  number */\n      dup1\n      sload\n        /* \"contracts/1_Storage.sol\":533:546  return number */\n      swap1\n      pop\n        /* \"contracts/1_Storage.sol\":474:553  function retrieve() public view returns (uint256){... */\n      swap1\n      jump\t// out\n        /* \"contracts/1_Storage.sol\":559:647  function getData() public view returns(uint8) {... */\n    tag_11:\n        /* \"contracts/1_Storage.sol\":598:603  uint8 */\n      0x00\n        /* \"contracts/1_Storage.sol\":639:640  1 */\n      0x01\n        /* \"contracts/1_Storage.sol\":622:637  type(uint8).max */\n      0xff\n        /* \"contracts/1_Storage.sol\":622:640  type(uint8).max -1 */\n      tag_20\n      swap2\n      swap1\n      tag_21\n      jump\t// in\n    tag_20:\n        /* \"contracts/1_Storage.sol\":615:640  return type(uint8).max -1 */\n      swap1\n      pop\n        /* \"contracts/1_Storage.sol\":559:647  function getData() public view returns(uint8) {... */\n      swap1\n      jump\t// out\n        /* \"contracts/1_Storage.sol\":329:393  function store(uint256 num) public {... */\n    tag_17:\n        /* \"contracts/1_Storage.sol\":383:386  num */\n      dup1\n        /* \"contracts/1_Storage.sol\":374:380  number */\n      0x00\n        /* \"contracts/1_Storage.sol\":374:386  number = num */\n      dup2\n      swap1\n      sstore\n      pop\n        /* \"contracts/1_Storage.sol\":329:393  function store(uint256 num) public {... */\n      pop\n      jump\t// out\n        /* \"#utility.yul\":7:146   */\n    tag_24:\n        /* \"#utility.yul\":53:58   */\n      0x00\n        /* \"#utility.yul\":91:97   */\n      dup2\n        /* \"#utility.yul\":78:98   */\n      calldataload\n        /* \"#utility.yul\":69:98   */\n      swap1\n      pop\n        /* \"#utility.yul\":107:140   */\n      tag_26\n        /* \"#utility.yul\":134:139   */\n      dup2\n        /* \"#utility.yul\":107:140   */\n      tag_27\n      jump\t// in\n    tag_26:\n        /* \"#utility.yul\":7:146   */\n      swap3\n      swap2\n      pop\n      pop\n      jump\t// out\n        /* \"#utility.yul\":152:481   */\n    tag_16:\n        /* \"#utility.yul\":211:217   */\n      0x00\n        /* \"#utility.yul\":260:262   */\n      0x20\n        /* \"#utility.yul\":248:257   */\n      dup3\n        /* \"#utility.yul\":239:246   */\n      dup5\n        /* \"#utility.yul\":235:258   */\n      sub\n        /* \"#utility.yul\":231:263   */\n      slt\n        /* \"#utility.yul\":228:347   */\n      iszero\n      tag_29\n      jumpi\n        /* \"#utility.yul\":266:345   */\n      tag_30\n      tag_31\n      jump\t// in\n    tag_30:\n        /* \"#utility.yul\":228:347   */\n    tag_29:\n        /* \"#utility.yul\":386:387   */\n      0x00\n        /* \"#utility.yul\":411:464   */\n      tag_32\n        /* \"#utility.yul\":456:463   */\n      dup5\n        /* \"#utility.yul\":447:453   */\n      dup3\n        /* \"#utility.yul\":436:445   */\n      dup6\n        /* \"#utility.yul\":432:454   */\n      add\n        /* \"#utility.yul\":411:464   */\n      tag_24\n      jump\t// in\n    tag_32:\n        /* \"#utility.yul\":401:464   */\n      swap2\n      pop\n        /* \"#utility.yul\":357:474   */\n      pop\n        /* \"#utility.yul\":152:481   */\n      swap3\n      swap2\n      pop\n      pop\n      jump\t// out\n        /* \"#utility.yul\":487:605   */\n    tag_33:\n        /* \"#utility.yul\":574:598   */\n      tag_35\n        /* \"#utility.yul\":592:597   */\n      dup2\n        /* \"#utility.yul\":574:598   */\n      tag_36\n      jump\t// in\n    tag_35:\n        /* \"#utility.yul\":569:572   */\n      dup3\n        /* \"#utility.yul\":562:599   */\n      mstore\n        /* \"#utility.yul\":487:605   */\n      pop\n      pop\n      jump\t// out\n        /* \"#utility.yul\":611:723   */\n    tag_37:\n        /* \"#utility.yul\":694:716   */\n      tag_39\n        /* \"#utility.yul\":710:715   */\n      dup2\n        /* \"#utility.yul\":694:716   */\n      tag_40\n      jump\t// in\n    tag_39:\n        /* \"#utility.yul\":689:692   */\n      dup3\n        /* \"#utility.yul\":682:717   */\n      mstore\n        /* \"#utility.yul\":611:723   */\n      pop\n      pop\n      jump\t// out\n        /* \"#utility.yul\":729:951   */\n    tag_9:\n        /* \"#utility.yul\":822:826   */\n      0x00\n        /* \"#utility.yul\":860:862   */\n      0x20\n        /* \"#utility.yul\":849:858   */\n      dup3\n        /* \"#utility.yul\":845:863   */\n      add\n        /* \"#utility.yul\":837:863   */\n      swap1\n      pop\n        /* \"#utility.yul\":873:944   */\n      tag_42\n        /* \"#utility.yul\":941:942   */\n      0x00\n        /* \"#utility.yul\":930:939   */\n      dup4\n        /* \"#utility.yul\":926:943   */\n      add\n        /* \"#utility.yul\":917:923   */\n      dup5\n        /* \"#utility.yul\":873:944   */\n      tag_33\n      jump\t// in\n    tag_42:\n        /* \"#utility.yul\":729:951   */\n      swap3\n      swap2\n      pop\n      pop\n      jump\t// out\n        /* \"#utility.yul\":957:1171   */\n    tag_13:\n        /* \"#utility.yul\":1046:1050   */\n      0x00\n        /* \"#utility.yul\":1084:1086   */\n      0x20\n        /* \"#utility.yul\":1073:1082   */\n      dup3\n        /* \"#utility.yul\":1069:1087   */\n      add\n        /* \"#utility.yul\":1061:1087   */\n      swap1\n      pop\n        /* \"#utility.yul\":1097:1164   */\n      tag_44\n        /* \"#utility.yul\":1161:1162   */\n      0x00\n        /* \"#utility.yul\":1150:1159   */\n      dup4\n        /* \"#utility.yul\":1146:1163   */\n      add\n        /* \"#utility.yul\":1137:1143   */\n      dup5\n        /* \"#utility.yul\":1097:1164   */\n      tag_37\n      jump\t// in\n    tag_44:\n        /* \"#utility.yul\":957:1171   */\n      swap3\n      swap2\n      pop\n      pop\n      jump\t// out\n        /* \"#utility.yul\":1258:1443   */\n    tag_21:\n        /* \"#utility.yul\":1296:1300   */\n      0x00\n        /* \"#utility.yul\":1316:1334   */\n      tag_48\n        /* \"#utility.yul\":1332:1333   */\n      dup3\n        /* \"#utility.yul\":1316:1334   */\n      tag_40\n      jump\t// in\n    tag_48:\n        /* \"#utility.yul\":1311:1334   */\n      swap2\n      pop\n        /* \"#utility.yul\":1348:1366   */\n      tag_49\n        /* \"#utility.yul\":1364:1365   */\n      dup4\n        /* \"#utility.yul\":1348:1366   */\n      tag_40\n      jump\t// in\n    tag_49:\n        /* \"#utility.yul\":1343:1366   */\n      swap3\n      pop\n        /* \"#utility.yul\":1385:1386   */\n      dup3\n        /* \"#utility.yul\":1382:1383   */\n      dup3\n        /* \"#utility.yul\":1379:1387   */\n      lt\n        /* \"#utility.yul\":1376:1410   */\n      iszero\n      tag_50\n      jumpi\n        /* \"#utility.yul\":1390:1408   */\n      tag_51\n      tag_52\n      jump\t// in\n    tag_51:\n        /* \"#utility.yul\":1376:1410   */\n    tag_50:\n        /* \"#utility.yul\":1435:1436   */\n      dup3\n        /* \"#utility.yul\":1432:1433   */\n      dup3\n        /* \"#utility.yul\":1428:1437   */\n      sub\n        /* \"#utility.yul\":1420:1437   */\n      swap1\n      pop\n        /* \"#utility.yul\":1258:1443   */\n      swap3\n      swap2\n      pop\n      pop\n      jump\t// out\n        /* \"#utility.yul\":1449:1526   */\n    tag_36:\n        /* \"#utility.yul\":1486:1493   */\n      0x00\n        /* \"#utility.yul\":1515:1520   */\n      dup2\n        /* \"#utility.yul\":1504:1520   */\n      swap1\n      pop\n        /* \"#utility.yul\":1449:1526   */\n      swap2\n      swap1\n      pop\n      jump\t// out\n        /* \"#utility.yul\":1532:1618   */\n    tag_40:\n        /* \"#utility.yul\":1567:1574   */\n      0x00\n        /* \"#utility.yul\":1607:1611   */\n      0xff\n        /* \"#utility.yul\":1600:1605   */\n      dup3\n        /* \"#utility.yul\":1596:1612   */\n      and\n        /* \"#utility.yul\":1585:1612   */\n      swap1\n      pop\n        /* \"#utility.yul\":1532:1618   */\n      swap2\n      swap1\n      pop\n      jump\t// out\n        /* \"#utility.yul\":1624:1804   */\n    tag_52:\n        /* \"#utility.yul\":1672:1749   */\n      0x4e487b7100000000000000000000000000000000000000000000000000000000\n        /* \"#utility.yul\":1669:1670   */\n      0x00\n        /* \"#utility.yul\":1662:1750   */\n      mstore\n        /* \"#utility.yul\":1769:1773   */\n      0x11\n        /* \"#utility.yul\":1766:1767   */\n      0x04\n        /* \"#utility.yul\":1759:1774   */\n      mstore\n        /* \"#utility.yul\":1793:1797   */\n      0x24\n        /* \"#utility.yul\":1790:1791   */\n      0x00\n        /* \"#utility.yul\":1783:1798   */\n      revert\n        /* \"#utility.yul\":1933:2050   */\n    tag_31:\n        /* \"#utility.yul\":2042:2043   */\n      0x00\n        /* \"#utility.yul\":2039:2040   */\n      dup1\n        /* \"#utility.yul\":2032:2044   */\n      revert\n        /* \"#utility.yul\":2056:2178   */\n    tag_27:\n        /* \"#utility.yul\":2129:2153   */\n      tag_60\n        /* \"#utility.yul\":2147:2152   */\n      dup2\n        /* \"#utility.yul\":2129:2153   */\n      tag_36\n      jump\t// in\n    tag_60:\n        /* \"#utility.yul\":2122:2127   */\n      dup2\n        /* \"#utility.yul\":2119:2154   */\n      eq\n        /* \"#utility.yul\":2109:2172   */\n      tag_61\n      jumpi\n        /* \"#utility.yul\":2168:2169   */\n      0x00\n        /* \"#utility.yul\":2165:2166   */\n      dup1\n        /* \"#utility.yul\":2158:2170   */\n      revert\n        /* \"#utility.yul\":2109:2172   */\n    tag_61:\n        /* \"#utility.yul\":2056:2178   */\n      pop\n      jump\t// out\n\n    auxdata: 0xa26469706673582212202ac1ece1631dae877d5fdc7c728bc8aee3c1b8930e99fd3d980ac4626fd4503764736f6c63430008070033\n}\n",
				"bytecode": {
					"linkReferences": {},
					"object": "608060405234801561001057600080fd5b50610228806100206000396000f3fe608060405234801561001057600080fd5b50600436106100415760003560e01c80632e64cec1146100465780633bc5de30146100645780636057361d14610082575b600080fd5b61004e61009e565b60405161005b9190610126565b60405180910390f35b61006c6100a7565b6040516100799190610141565b60405180910390f35b61009c600480360381019061009791906100db565b6100bc565b005b60008054905090565b6000600160ff6100b7919061015c565b905090565b8060008190555050565b6000813590506100d5816101db565b92915050565b6000602082840312156100f1576100f06101d6565b5b60006100ff848285016100c6565b91505092915050565b61011181610190565b82525050565b6101208161019a565b82525050565b600060208201905061013b6000830184610108565b92915050565b60006020820190506101566000830184610117565b92915050565b60006101678261019a565b91506101728361019a565b925082821015610185576101846101a7565b5b828203905092915050565b6000819050919050565b600060ff82169050919050565b7f4e487b7100000000000000000000000000000000000000000000000000000000600052601160045260246000fd5b600080fd5b6101e481610190565b81146101ef57600080fd5b5056fea26469706673582212202ac1ece1631dae877d5fdc7c728bc8aee3c1b8930e99fd3d980ac4626fd4503764736f6c63430008070033",
					"opcodes": "PUSH1 0x80 PUSH1 0x40 MSTORE CALLVALUE DUP1 ISZERO PUSH2 0x10 JUMPI PUSH1 0x0 DUP1 REVERT JUMPDEST POP PUSH2 0x228 DUP1 PUSH2 0x20 PUSH1 0x0 CODECOPY PUSH1 0x0 RETURN INVALID PUSH1 0x80 PUSH1 0x40 MSTORE CALLVALUE DUP1 ISZERO PUSH2 0x10 JUMPI PUSH1 0x0 DUP1 REVERT JUMPDEST POP PUSH1 0x4 CALLDATASIZE LT PUSH2 0x41 JUMPI PUSH1 0x0 CALLDATALOAD PUSH1 0xE0 SHR DUP1 PUSH4 0x2E64CEC1 EQ PUSH2 0x46 JUMPI DUP1 PUSH4 0x3BC5DE30 EQ PUSH2 0x64 JUMPI DUP1 PUSH4 0x6057361D EQ PUSH2 0x82 JUMPI JUMPDEST PUSH1 0x0 DUP1 REVERT JUMPDEST PUSH2 0x4E PUSH2 0x9E JUMP JUMPDEST PUSH1 0x40 MLOAD PUSH2 0x5B SWAP2 SWAP1 PUSH2 0x126 JUMP JUMPDEST PUSH1 0x40 MLOAD DUP1 SWAP2 SUB SWAP1 RETURN JUMPDEST PUSH2 0x6C PUSH2 0xA7 JUMP JUMPDEST PUSH1 0x40 MLOAD PUSH2 0x79 SWAP2 SWAP1 PUSH2 0x141 JUMP JUMPDEST PUSH1 0x40 MLOAD DUP1 SWAP2 SUB SWAP1 RETURN JUMPDEST PUSH2 0x9C PUSH1 0x4 DUP1 CALLDATASIZE SUB DUP2 ADD SWAP1 PUSH2 0x97 SWAP2 SWAP1 PUSH2 0xDB JUMP JUMPDEST PUSH2 0xBC JUMP JUMPDEST STOP JUMPDEST PUSH1 0x0 DUP1 SLOAD SWAP1 POP SWAP1 JUMP JUMPDEST PUSH1 0x0 PUSH1 0x1 PUSH1 0xFF PUSH2 0xB7 SWAP2 SWAP1 PUSH2 0x15C JUMP JUMPDEST SWAP1 POP SWAP1 JUMP JUMPDEST DUP1 PUSH1 0x0 DUP2 SWAP1 SSTORE POP POP JUMP JUMPDEST PUSH1 0x0 DUP2 CALLDATALOAD SWAP1 POP PUSH2 0xD5 DUP2 PUSH2 0x1DB JUMP JUMPDEST SWAP3 SWAP2 POP POP JUMP JUMPDEST PUSH1 0x0 PUSH1 0x20 DUP3 DUP5 SUB SLT ISZERO PUSH2 0xF1 JUMPI PUSH2 0xF0 PUSH2 0x1D6 JUMP JUMPDEST JUMPDEST PUSH1 0x0 PUSH2 0xFF DUP5 DUP3 DUP6 ADD PUSH2 0xC6 JUMP JUMPDEST SWAP2 POP POP SWAP3 SWAP2 POP POP JUMP JUMPDEST PUSH2 0x111 DUP2 PUSH2 0x190 JUMP JUMPDEST DUP3 MSTORE POP POP JUMP JUMPDEST PUSH2 0x120 DUP2 PUSH2 0x19A JUMP JUMPDEST DUP3 MSTORE POP POP JUMP JUMPDEST PUSH1 0x0 PUSH1 0x20 DUP3 ADD SWAP1 POP PUSH2 0x13B PUSH1 0x0 DUP4 ADD DUP5 PUSH2 0x108 JUMP JUMPDEST SWAP3 SWAP2 POP POP JUMP JUMPDEST PUSH1 0x0 PUSH1 0x20 DUP3 ADD SWAP1 POP PUSH2 0x156 PUSH1 0x0 DUP4 ADD DUP5 PUSH2 0x117 JUMP JUMPDEST SWAP3 SWAP2 POP POP JUMP JUMPDEST PUSH1 0x0 PUSH2 0x167 DUP3 PUSH2 0x19A JUMP JUMPDEST SWAP2 POP PUSH2 0x172 DUP4 PUSH2 0x19A JUMP JUMPDEST SWAP3 POP DUP3 DUP3 LT ISZERO PUSH2 0x185 JUMPI PUSH2 0x184 PUSH2 0x1A7 JUMP JUMPDEST JUMPDEST DUP3 DUP3 SUB SWAP1 POP SWAP3 SWAP2 POP POP JUMP JUMPDEST PUSH1 0x0 DUP2 SWAP1 POP SWAP2 SWAP1 POP JUMP JUMPDEST PUSH1 0x0 PUSH1 0xFF DUP3 AND SWAP1 POP SWAP2 SWAP1 POP JUMP JUMPDEST PUSH32 0x4E487B7100000000000000000000000000000000000000000000000000000000 PUSH1 0x0 MSTORE PUSH1 0x11 PUSH1 0x4 MSTORE PUSH1 0x24 PUSH1 0x0 REVERT JUMPDEST PUSH1 0x0 DUP1 REVERT JUMPDEST PUSH2 0x1E4 DUP2 PUSH2 0x190 JUMP JUMPDEST DUP2 EQ PUSH2 0x1EF JUMPI PUSH1 0x0 DUP1 REVERT JUMPDEST POP JUMP INVALID LOG2 PUSH5 0x6970667358 0x22 SLT KECCAK256 0x2A 0xC1 0xEC 0xE1 PUSH4 0x1DAE877D 0x5F 0xDC PUSH29 0x728BC8AEE3C1B8930E99FD3D980AC4626FD4503764736F6C6343000807 STOP CALLER "
				},
				"gasEstimates": {
					"creation": {
						"codeDepositCost": "110400",
						"executionCost": "159",
						"totalCost": "110559"
					},
					"external": {
						"getData()": "infinite",
						"retrieve()": "2415",
						"store(uint256)": "22542"
					}
				},
				"methodIdentifiers": {
					"getData()": "3bc5de30",
					"retrieve()": "2e64cec1",
					"store(uint256)": "6057361d"
				}
			},
			"storageLayout": {
				"storage": [
					{
						"astId": 4,
						"contract": "contracts/1_Storage.sol:Storage",
						"label": "number",
						"offset": 0,
						"slot": "0",
						"type": "t_uint256"
					}
				],
				"types": {
					"t_uint256": {
						"encoding": "inplace",
						"label": "uint256",
						"numberOfBytes": "32"
					}
				}
			},
			"userdoc": {
				"kind": "user",
				"methods": {},
				"version": 1
			}
		}
	}
}