{
	"contracts/1_Storage.sol": {
		"Storage": {
			"abi": [
				{
					"inputs": [
						{
							"internalType": "address",
							"name": "token",
							"type": "address"
						},
						{
							"internalType": "uint256",
							"name": "amount",
							"type": "uint256"
						}
					],
					"name": "approveToken",
					"outputs": [],
					"stateMutability": "nonpayable",
					"type": "function"
				},
				{
					"inputs": [],
					"name": "getDataTime",
					"outputs": [
						{
							"internalType": "uint256",
							"name": "",
							"type": "uint256"
						}
					],
					"stateMutability": "view",
					"type": "function"
				},
				{
					"inputs": [
						{
							"internalType": "address",
							"name": "token",
							"type": "address"
						},
						{
							"internalType": "uint256",
							"name": "amount",
							"type": "uint256"
						}
					],
					"name": "send",
					"outputs": [],
					"stateMutability": "nonpayable",
					"type": "function"
				}
			],
			"devdoc": {
				"kind": "dev",
				"methods": {},
				"version": 1
			},
			"evm": {
				"assembly": "    /* \"contracts/1_Storage.sol\":102:594  contract Storage {... */\n  mstore(0x40, 0x80)\n  callvalue\n  dup1\n  iszero\n  tag_1\n  jumpi\n  0x00\n  dup1\n  revert\ntag_1:\n  pop\n  dataSize(sub_0)\n  dup1\n  dataOffset(sub_0)\n  0x00\n  codecopy\n  0x00\n  return\nstop\n\nsub_0: assembly {\n        /* \"contracts/1_Storage.sol\":102:594  contract Storage {... */\n      mstore(0x40, 0x80)\n      callvalue\n      dup1\n      iszero\n      tag_1\n      jumpi\n      0x00\n      dup1\n      revert\n    tag_1:\n      pop\n      jumpi(tag_2, lt(calldatasize, 0x04))\n      shr(0xe0, calldataload(0x00))\n      dup1\n      0x022fc88b\n      eq\n      tag_3\n      jumpi\n      dup1\n      0x2503c65c\n      eq\n      tag_4\n      jumpi\n      dup1\n      0xd0679d34\n      eq\n      tag_5\n      jumpi\n    tag_2:\n      0x00\n      dup1\n      revert\n        /* \"contracts/1_Storage.sol\":309:494  function approveToken(address token, uint256 amount) public {... */\n    tag_3:\n      tag_6\n      0x04\n      dup1\n      calldatasize\n      sub\n      dup2\n      add\n      swap1\n      tag_7\n      swap2\n      swap1\n      tag_8\n      jump\t// in\n    tag_7:\n      tag_9\n      jump\t// in\n    tag_6:\n      stop\n        /* \"contracts/1_Storage.sol\":501:592  function getDataTime() public view returns(uint256) {... */\n    tag_4:\n      tag_10\n      tag_11\n      jump\t// in\n    tag_10:\n      mload(0x40)\n      tag_12\n      swap2\n      swap1\n      tag_13\n      jump\t// in\n    tag_12:\n      mload(0x40)\n      dup1\n      swap2\n      sub\n      swap1\n      return\n        /* \"contracts/1_Storage.sol\":125:303  function send(address token, uint256 amount) public {... */\n    tag_5:\n      tag_14\n      0x04\n      dup1\n      calldatasize\n      sub\n      dup2\n      add\n      swap1\n      tag_15\n      swap2\n      swap1\n      tag_8\n      jump\t// in\n    tag_15:\n      tag_16\n      jump\t// in\n    tag_14:\n      stop\n        /* \"contracts/1_Storage.sol\":309:494  function approveToken(address token, uint256 amount) public {... */\n    tag_9:\n        /* \"contracts/1_Storage.sol\":379:487  TransferHelper.safeApprove(... */\n      tag_18\n        /* \"contracts/1_Storage.sol\":427:432  token */\n      dup3\n        /* \"contracts/1_Storage.sol\":447:457  msg.sender */\n      caller\n        /* \"contracts/1_Storage.sol\":471:477  amount */\n      dup4\n        /* \"contracts/1_Storage.sol\":379:405  TransferHelper.safeApprove */\n      tag_19\n        /* \"contracts/1_Storage.sol\":379:487  TransferHelper.safeApprove(... */\n      jump\t// in\n    tag_18:\n        /* \"contracts/1_Storage.sol\":309:494  function approveToken(address token, uint256 amount) public {... */\n      pop\n      pop\n      jump\t// out\n        /* \"contracts/1_Storage.sol\":501:592  function getDataTime() public view returns(uint256) {... */\n    tag_11:\n        /* \"contracts/1_Storage.sol\":544:551  uint256 */\n      0x00\n        /* \"contracts/1_Storage.sol\":570:585  block.timestamp */\n      timestamp\n        /* \"contracts/1_Storage.sol\":563:585  return block.timestamp */\n      swap1\n      pop\n        /* \"contracts/1_Storage.sol\":501:592  function getDataTime() public view returns(uint256) {... */\n      swap1\n      jump\t// out\n        /* \"contracts/1_Storage.sol\":125:303  function send(address token, uint256 amount) public {... */\n    tag_16:\n        /* \"contracts/1_Storage.sol\":187:296  TransferHelper.safeTransfer(... */\n      tag_22\n        /* \"contracts/1_Storage.sol\":236:241  token */\n      dup3\n        /* \"contracts/1_Storage.sol\":256:266  msg.sender */\n      caller\n        /* \"contracts/1_Storage.sol\":280:286  amount */\n      dup4\n        /* \"contracts/1_Storage.sol\":187:214  TransferHelper.safeTransfer */\n      tag_23\n        /* \"contracts/1_Storage.sol\":187:296  TransferHelper.safeTransfer(... */\n      jump\t// in\n    tag_22:\n        /* \"contracts/1_Storage.sol\":125:303  function send(address token, uint256 amount) public {... */\n      pop\n      pop\n      jump\t// out\n        /* \"contracts/TransferHelper.sol\":274:664  function safeApprove(... */\n    tag_19:\n        /* \"contracts/TransferHelper.sol\":392:404  bool success */\n      0x00\n        /* \"contracts/TransferHelper.sol\":406:423  bytes memory data */\n      dup1\n        /* \"contracts/TransferHelper.sol\":427:432  token */\n      dup5\n        /* \"contracts/TransferHelper.sol\":427:437  token.call */\n      0xffffffffffffffffffffffffffffffffffffffff\n      and\n        /* \"contracts/TransferHelper.sol\":475:485  0x095ea7b3 */\n      0x095ea7b3\n        /* \"contracts/TransferHelper.sol\":487:489  to */\n      dup6\n        /* \"contracts/TransferHelper.sol\":491:496  value */\n      dup6\n        /* \"contracts/TransferHelper.sol\":452:497  abi.encodeWithSelector(0x095ea7b3, to, value) */\n      add(0x24, mload(0x40))\n      tag_25\n      swap3\n      swap2\n      swap1\n      tag_26\n      jump\t// in\n    tag_25:\n      mload(0x40)\n      0x20\n      dup2\n      dup4\n      sub\n      sub\n      dup2\n      mstore\n      swap1\n      0x40\n      mstore\n      swap1\n      0xe0\n      shl\n      0x20\n      dup3\n      add\n      dup1\n      mload\n      0xffffffffffffffffffffffffffffffffffffffffffffffffffffffff\n      dup4\n      dup2\n      dup4\n      and\n      or\n      dup4\n      mstore\n      pop\n      pop\n      pop\n      pop\n        /* \"contracts/TransferHelper.sol\":427:508  token.call(... */\n      mload(0x40)\n      tag_27\n      swap2\n      swap1\n      tag_28\n      jump\t// in\n    tag_27:\n      0x00\n      mload(0x40)\n      dup1\n      dup4\n      sub\n      dup2\n      0x00\n      dup7\n      gas\n      call\n      swap2\n      pop\n      pop\n      returndatasize\n      dup1\n      0x00\n      dup2\n      eq\n      tag_31\n      jumpi\n      mload(0x40)\n      swap2\n      pop\n      and(add(returndatasize, 0x3f), not(0x1f))\n      dup3\n      add\n      0x40\n      mstore\n      returndatasize\n      dup3\n      mstore\n      returndatasize\n      0x00\n      0x20\n      dup5\n      add\n      returndatacopy\n      jump(tag_30)\n    tag_31:\n      0x60\n      swap2\n      pop\n    tag_30:\n      pop\n        /* \"contracts/TransferHelper.sol\":391:508  (bool success, bytes memory data) = token.call(... */\n      swap2\n      pop\n      swap2\n      pop\n        /* \"contracts/TransferHelper.sol\":541:548  success */\n      dup2\n        /* \"contracts/TransferHelper.sol\":541:598  success && (data.length == 0 || abi.decode(data, (bool))) */\n      dup1\n      iszero\n      tag_32\n      jumpi\n      pop\n        /* \"contracts/TransferHelper.sol\":568:569  0 */\n      0x00\n        /* \"contracts/TransferHelper.sol\":553:557  data */\n      dup2\n        /* \"contracts/TransferHelper.sol\":553:564  data.length */\n      mload\n        /* \"contracts/TransferHelper.sol\":553:569  data.length == 0 */\n      eq\n        /* \"contracts/TransferHelper.sol\":553:597  data.length == 0 || abi.decode(data, (bool)) */\n      dup1\n      tag_33\n      jumpi\n      pop\n        /* \"contracts/TransferHelper.sol\":584:588  data */\n      dup1\n        /* \"contracts/TransferHelper.sol\":573:597  abi.decode(data, (bool)) */\n      dup1\n      0x20\n      add\n      swap1\n      mload\n      dup2\n      add\n      swap1\n      tag_34\n      swap2\n      swap1\n      tag_35\n      jump\t// in\n    tag_34:\n        /* \"contracts/TransferHelper.sol\":553:597  data.length == 0 || abi.decode(data, (bool)) */\n    tag_33:\n        /* \"contracts/TransferHelper.sol\":541:598  success && (data.length == 0 || abi.decode(data, (bool))) */\n    tag_32:\n        /* \"contracts/TransferHelper.sol\":519:656  require(... */\n      tag_36\n      jumpi\n      mload(0x40)\n      0x08c379a000000000000000000000000000000000000000000000000000000000\n      dup2\n      mstore\n      0x04\n      add\n      tag_37\n      swap1\n      tag_38\n      jump\t// in\n    tag_37:\n      mload(0x40)\n      dup1\n      swap2\n      sub\n      swap1\n      revert\n    tag_36:\n        /* \"contracts/TransferHelper.sol\":380:664  {... */\n      pop\n      pop\n        /* \"contracts/TransferHelper.sol\":274:664  function safeApprove(... */\n      pop\n      pop\n      pop\n      jump\t// out\n        /* \"contracts/TransferHelper.sol\":673:1065  function safeTransfer(... */\n    tag_23:\n        /* \"contracts/TransferHelper.sol\":792:804  bool success */\n      0x00\n        /* \"contracts/TransferHelper.sol\":806:823  bytes memory data */\n      dup1\n        /* \"contracts/TransferHelper.sol\":827:832  token */\n      dup5\n        /* \"contracts/TransferHelper.sol\":827:837  token.call */\n      0xffffffffffffffffffffffffffffffffffffffff\n      and\n        /* \"contracts/TransferHelper.sol\":875:885  0xa9059cbb */\n      0xa9059cbb\n        /* \"contracts/TransferHelper.sol\":887:889  to */\n      dup6\n        /* \"contracts/TransferHelper.sol\":891:896  value */\n      dup6\n        /* \"contracts/TransferHelper.sol\":852:897  abi.encodeWithSelector(0xa9059cbb, to, value) */\n      add(0x24, mload(0x40))\n      tag_40\n      swap3\n      swap2\n      swap1\n      tag_26\n      jump\t// in\n    tag_40:\n      mload(0x40)\n      0x20\n      dup2\n      dup4\n      sub\n      sub\n      dup2\n      mstore\n      swap1\n      0x40\n      mstore\n      swap1\n      0xe0\n      shl\n      0x20\n      dup3\n      add\n      dup1\n      mload\n      0xffffffffffffffffffffffffffffffffffffffffffffffffffffffff\n      dup4\n      dup2\n      dup4\n      and\n      or\n      dup4\n      mstore\n      pop\n      pop\n      pop\n      pop\n        /* \"contracts/TransferHelper.sol\":827:908  token.call(... */\n      mload(0x40)\n      tag_41\n      swap2\n      swap1\n      tag_28\n      jump\t// in\n    tag_41:\n      0x00\n      mload(0x40)\n      dup1\n      dup4\n      sub\n      dup2\n      0x00\n      dup7\n      gas\n      call\n      swap2\n      pop\n      pop\n      returndatasize\n      dup1\n      0x00\n      dup2\n      eq\n      tag_44\n      jumpi\n      mload(0x40)\n      swap2\n      pop\n      and(add(returndatasize, 0x3f), not(0x1f))\n      dup3\n      add\n      0x40\n      mstore\n      returndatasize\n      dup3\n      mstore\n      returndatasize\n      0x00\n      0x20\n      dup5\n      add\n      returndatacopy\n      jump(tag_43)\n    tag_44:\n      0x60\n      swap2\n      pop\n    tag_43:\n      pop\n        /* \"contracts/TransferHelper.sol\":791:908  (bool success, bytes memory data) = token.call(... */\n      swap2\n      pop\n      swap2\n      pop\n        /* \"contracts/TransferHelper.sol\":941:948  success */\n      dup2\n        /* \"contracts/TransferHelper.sol\":941:998  success && (data.length == 0 || abi.decode(data, (bool))) */\n      dup1\n      iszero\n      tag_45\n      jumpi\n      pop\n        /* \"contracts/TransferHelper.sol\":968:969  0 */\n      0x00\n        /* \"contracts/TransferHelper.sol\":953:957  data */\n      dup2\n        /* \"contracts/TransferHelper.sol\":953:964  data.length */\n      mload\n        /* \"contracts/TransferHelper.sol\":953:969  data.length == 0 */\n      eq\n        /* \"contracts/TransferHelper.sol\":953:997  data.length == 0 || abi.decode(data, (bool)) */\n      dup1\n      tag_46\n      jumpi\n      pop\n        /* \"contracts/TransferHelper.sol\":984:988  data */\n      dup1\n        /* \"contracts/TransferHelper.sol\":973:997  abi.decode(data, (bool)) */\n      dup1\n      0x20\n      add\n      swap1\n      mload\n      dup2\n      add\n      swap1\n      tag_47\n      swap2\n      swap1\n      tag_35\n      jump\t// in\n    tag_47:\n        /* \"contracts/TransferHelper.sol\":953:997  data.length == 0 || abi.decode(data, (bool)) */\n    tag_46:\n        /* \"contracts/TransferHelper.sol\":941:998  success && (data.length == 0 || abi.decode(data, (bool))) */\n    tag_45:\n        /* \"contracts/TransferHelper.sol\":919:1057  require(... */\n      tag_48\n      jumpi\n      mload(0x40)\n      0x08c379a000000000000000000000000000000000000000000000000000000000\n      dup2\n      mstore\n      0x04\n      add\n      tag_49\n      swap1\n      tag_50\n      jump\t// in\n    tag_49:\n      mload(0x40)\n      dup1\n      swap2\n      sub\n      swap1\n      revert\n    tag_48:\n        /* \"contracts/TransferHelper.sol\":780:1065  {... */\n      pop\n      pop\n        /* \"contracts/TransferHelper.sol\":673:1065  function safeTransfer(... */\n      pop\n      pop\n      pop\n      jump\t// out\n        /* \"#utility.yul\":88:205   */\n    tag_52:\n        /* \"#utility.yul\":197:198   */\n      0x00\n        /* \"#utility.yul\":194:195   */\n      dup1\n        /* \"#utility.yul\":187:199   */\n      revert\n        /* \"#utility.yul\":334:460   */\n    tag_54:\n        /* \"#utility.yul\":371:378   */\n      0x00\n        /* \"#utility.yul\":411:453   */\n      0xffffffffffffffffffffffffffffffffffffffff\n        /* \"#utility.yul\":404:409   */\n      dup3\n        /* \"#utility.yul\":400:454   */\n      and\n        /* \"#utility.yul\":389:454   */\n      swap1\n      pop\n        /* \"#utility.yul\":334:460   */\n      swap2\n      swap1\n      pop\n      jump\t// out\n        /* \"#utility.yul\":466:562   */\n    tag_55:\n        /* \"#utility.yul\":503:510   */\n      0x00\n        /* \"#utility.yul\":532:556   */\n      tag_81\n        /* \"#utility.yul\":550:555   */\n      dup3\n        /* \"#utility.yul\":532:556   */\n      tag_54\n      jump\t// in\n    tag_81:\n        /* \"#utility.yul\":521:556   */\n      swap1\n      pop\n        /* \"#utility.yul\":466:562   */\n      swap2\n      swap1\n      pop\n      jump\t// out\n        /* \"#utility.yul\":568:690   */\n    tag_56:\n        /* \"#utility.yul\":641:665   */\n      tag_83\n        /* \"#utility.yul\":659:664   */\n      dup2\n        /* \"#utility.yul\":641:665   */\n      tag_55\n      jump\t// in\n    tag_83:\n        /* \"#utility.yul\":634:639   */\n      dup2\n        /* \"#utility.yul\":631:666   */\n      eq\n        /* \"#utility.yul\":621:684   */\n      tag_84\n      jumpi\n        /* \"#utility.yul\":680:681   */\n      0x00\n        /* \"#utility.yul\":677:678   */\n      dup1\n        /* \"#utility.yul\":670:682   */\n      revert\n        /* \"#utility.yul\":621:684   */\n    tag_84:\n        /* \"#utility.yul\":568:690   */\n      pop\n      jump\t// out\n        /* \"#utility.yul\":696:835   */\n    tag_57:\n        /* \"#utility.yul\":742:747   */\n      0x00\n        /* \"#utility.yul\":780:786   */\n      dup2\n        /* \"#utility.yul\":767:787   */\n      calldataload\n        /* \"#utility.yul\":758:787   */\n      swap1\n      pop\n        /* \"#utility.yul\":796:829   */\n      tag_86\n        /* \"#utility.yul\":823:828   */\n      dup2\n        /* \"#utility.yul\":796:829   */\n      tag_56\n      jump\t// in\n    tag_86:\n        /* \"#utility.yul\":696:835   */\n      swap3\n      swap2\n      pop\n      pop\n      jump\t// out\n        /* \"#utility.yul\":841:918   */\n    tag_58:\n        /* \"#utility.yul\":878:885   */\n      0x00\n        /* \"#utility.yul\":907:912   */\n      dup2\n        /* \"#utility.yul\":896:912   */\n      swap1\n      pop\n        /* \"#utility.yul\":841:918   */\n      swap2\n      swap1\n      pop\n      jump\t// out\n        /* \"#utility.yul\":924:1046   */\n    tag_59:\n        /* \"#utility.yul\":997:1021   */\n      tag_89\n        /* \"#utility.yul\":1015:1020   */\n      dup2\n        /* \"#utility.yul\":997:1021   */\n      tag_58\n      jump\t// in\n    tag_89:\n        /* \"#utility.yul\":990:995   */\n      dup2\n        /* \"#utility.yul\":987:1022   */\n      eq\n        /* \"#utility.yul\":977:1040   */\n      tag_90\n      jumpi\n        /* \"#utility.yul\":1036:1037   */\n      0x00\n        /* \"#utility.yul\":1033:1034   */\n      dup1\n        /* \"#utility.yul\":1026:1038   */\n      revert\n        /* \"#utility.yul\":977:1040   */\n    tag_90:\n        /* \"#utility.yul\":924:1046   */\n      pop\n      jump\t// out\n        /* \"#utility.yul\":1052:1191   */\n    tag_60:\n        /* \"#utility.yul\":1098:1103   */\n      0x00\n        /* \"#utility.yul\":1136:1142   */\n      dup2\n        /* \"#utility.yul\":1123:1143   */\n      calldataload\n        /* \"#utility.yul\":1114:1143   */\n      swap1\n      pop\n        /* \"#utility.yul\":1152:1185   */\n      tag_92\n        /* \"#utility.yul\":1179:1184   */\n      dup2\n        /* \"#utility.yul\":1152:1185   */\n      tag_59\n      jump\t// in\n    tag_92:\n        /* \"#utility.yul\":1052:1191   */\n      swap3\n      swap2\n      pop\n      pop\n      jump\t// out\n        /* \"#utility.yul\":1197:1671   */\n    tag_8:\n        /* \"#utility.yul\":1265:1271   */\n      0x00\n        /* \"#utility.yul\":1273:1279   */\n      dup1\n        /* \"#utility.yul\":1322:1324   */\n      0x40\n        /* \"#utility.yul\":1310:1319   */\n      dup4\n        /* \"#utility.yul\":1301:1308   */\n      dup6\n        /* \"#utility.yul\":1297:1320   */\n      sub\n        /* \"#utility.yul\":1293:1325   */\n      slt\n        /* \"#utility.yul\":1290:1409   */\n      iszero\n      tag_94\n      jumpi\n        /* \"#utility.yul\":1328:1407   */\n      tag_95\n      tag_52\n      jump\t// in\n    tag_95:\n        /* \"#utility.yul\":1290:1409   */\n    tag_94:\n        /* \"#utility.yul\":1448:1449   */\n      0x00\n        /* \"#utility.yul\":1473:1526   */\n      tag_96\n        /* \"#utility.yul\":1518:1525   */\n      dup6\n        /* \"#utility.yul\":1509:1515   */\n      dup3\n        /* \"#utility.yul\":1498:1507   */\n      dup7\n        /* \"#utility.yul\":1494:1516   */\n      add\n        /* \"#utility.yul\":1473:1526   */\n      tag_57\n      jump\t// in\n    tag_96:\n        /* \"#utility.yul\":1463:1526   */\n      swap3\n      pop\n        /* \"#utility.yul\":1419:1536   */\n      pop\n        /* \"#utility.yul\":1575:1577   */\n      0x20\n        /* \"#utility.yul\":1601:1654   */\n      tag_97\n        /* \"#utility.yul\":1646:1653   */\n      dup6\n        /* \"#utility.yul\":1637:1643   */\n      dup3\n        /* \"#utility.yul\":1626:1635   */\n      dup7\n        /* \"#utility.yul\":1622:1644   */\n      add\n        /* \"#utility.yul\":1601:1654   */\n      tag_60\n      jump\t// in\n    tag_97:\n        /* \"#utility.yul\":1591:1654   */\n      swap2\n      pop\n        /* \"#utility.yul\":1546:1664   */\n      pop\n        /* \"#utility.yul\":1197:1671   */\n      swap3\n      pop\n      swap3\n      swap1\n      pop\n      jump\t// out\n        /* \"#utility.yul\":1677:1795   */\n    tag_61:\n        /* \"#utility.yul\":1764:1788   */\n      tag_99\n        /* \"#utility.yul\":1782:1787   */\n      dup2\n        /* \"#utility.yul\":1764:1788   */\n      tag_58\n      jump\t// in\n    tag_99:\n        /* \"#utility.yul\":1759:1762   */\n      dup3\n        /* \"#utility.yul\":1752:1789   */\n      mstore\n        /* \"#utility.yul\":1677:1795   */\n      pop\n      pop\n      jump\t// out\n        /* \"#utility.yul\":1801:2023   */\n    tag_13:\n        /* \"#utility.yul\":1894:1898   */\n      0x00\n        /* \"#utility.yul\":1932:1934   */\n      0x20\n        /* \"#utility.yul\":1921:1930   */\n      dup3\n        /* \"#utility.yul\":1917:1935   */\n      add\n        /* \"#utility.yul\":1909:1935   */\n      swap1\n      pop\n        /* \"#utility.yul\":1945:2016   */\n      tag_101\n        /* \"#utility.yul\":2013:2014   */\n      0x00\n        /* \"#utility.yul\":2002:2011   */\n      dup4\n        /* \"#utility.yul\":1998:2015   */\n      add\n        /* \"#utility.yul\":1989:1995   */\n      dup5\n        /* \"#utility.yul\":1945:2016   */\n      tag_61\n      jump\t// in\n    tag_101:\n        /* \"#utility.yul\":1801:2023   */\n      swap3\n      swap2\n      pop\n      pop\n      jump\t// out\n        /* \"#utility.yul\":2029:2147   */\n    tag_62:\n        /* \"#utility.yul\":2116:2140   */\n      tag_103\n        /* \"#utility.yul\":2134:2139   */\n      dup2\n        /* \"#utility.yul\":2116:2140   */\n      tag_55\n      jump\t// in\n    tag_103:\n        /* \"#utility.yul\":2111:2114   */\n      dup3\n        /* \"#utility.yul\":2104:2141   */\n      mstore\n        /* \"#utility.yul\":2029:2147   */\n      pop\n      pop\n      jump\t// out\n        /* \"#utility.yul\":2153:2485   */\n    tag_26:\n        /* \"#utility.yul\":2274:2278   */\n      0x00\n        /* \"#utility.yul\":2312:2314   */\n      0x40\n        /* \"#utility.yul\":2301:2310   */\n      dup3\n        /* \"#utility.yul\":2297:2315   */\n      add\n        /* \"#utility.yul\":2289:2315   */\n      swap1\n      pop\n        /* \"#utility.yul\":2325:2396   */\n      tag_105\n        /* \"#utility.yul\":2393:2394   */\n      0x00\n        /* \"#utility.yul\":2382:2391   */\n      dup4\n        /* \"#utility.yul\":2378:2395   */\n      add\n        /* \"#utility.yul\":2369:2375   */\n      dup6\n        /* \"#utility.yul\":2325:2396   */\n      tag_62\n      jump\t// in\n    tag_105:\n        /* \"#utility.yul\":2406:2478   */\n      tag_106\n        /* \"#utility.yul\":2474:2476   */\n      0x20\n        /* \"#utility.yul\":2463:2472   */\n      dup4\n        /* \"#utility.yul\":2459:2477   */\n      add\n        /* \"#utility.yul\":2450:2456   */\n      dup5\n        /* \"#utility.yul\":2406:2478   */\n      tag_61\n      jump\t// in\n    tag_106:\n        /* \"#utility.yul\":2153:2485   */\n      swap4\n      swap3\n      pop\n      pop\n      pop\n      jump\t// out\n        /* \"#utility.yul\":2491:2589   */\n    tag_63:\n        /* \"#utility.yul\":2542:2548   */\n      0x00\n        /* \"#utility.yul\":2576:2581   */\n      dup2\n        /* \"#utility.yul\":2570:2582   */\n      mload\n        /* \"#utility.yul\":2560:2582   */\n      swap1\n      pop\n        /* \"#utility.yul\":2491:2589   */\n      swap2\n      swap1\n      pop\n      jump\t// out\n        /* \"#utility.yul\":2595:2742   */\n    tag_64:\n        /* \"#utility.yul\":2696:2707   */\n      0x00\n        /* \"#utility.yul\":2733:2736   */\n      dup2\n        /* \"#utility.yul\":2718:2736   */\n      swap1\n      pop\n        /* \"#utility.yul\":2595:2742   */\n      swap3\n      swap2\n      pop\n      pop\n      jump\t// out\n        /* \"#utility.yul\":2748:3055   */\n    tag_65:\n        /* \"#utility.yul\":2816:2817   */\n      0x00\n        /* \"#utility.yul\":2826:2939   */\n    tag_110:\n        /* \"#utility.yul\":2840:2846   */\n      dup4\n        /* \"#utility.yul\":2837:2838   */\n      dup2\n        /* \"#utility.yul\":2834:2847   */\n      lt\n        /* \"#utility.yul\":2826:2939   */\n      iszero\n      tag_112\n      jumpi\n        /* \"#utility.yul\":2925:2926   */\n      dup1\n        /* \"#utility.yul\":2920:2923   */\n      dup3\n        /* \"#utility.yul\":2916:2927   */\n      add\n        /* \"#utility.yul\":2910:2928   */\n      mload\n        /* \"#utility.yul\":2906:2907   */\n      dup2\n        /* \"#utility.yul\":2901:2904   */\n      dup5\n        /* \"#utility.yul\":2897:2908   */\n      add\n        /* \"#utility.yul\":2890:2929   */\n      mstore\n        /* \"#utility.yul\":2862:2864   */\n      0x20\n        /* \"#utility.yul\":2859:2860   */\n      dup2\n        /* \"#utility.yul\":2855:2865   */\n      add\n        /* \"#utility.yul\":2850:2865   */\n      swap1\n      pop\n        /* \"#utility.yul\":2826:2939   */\n      jump(tag_110)\n    tag_112:\n        /* \"#utility.yul\":2957:2963   */\n      dup4\n        /* \"#utility.yul\":2954:2955   */\n      dup2\n        /* \"#utility.yul\":2951:2964   */\n      gt\n        /* \"#utility.yul\":2948:3049   */\n      iszero\n      tag_113\n      jumpi\n        /* \"#utility.yul\":3037:3038   */\n      0x00\n        /* \"#utility.yul\":3028:3034   */\n      dup5\n        /* \"#utility.yul\":3023:3026   */\n      dup5\n        /* \"#utility.yul\":3019:3035   */\n      add\n        /* \"#utility.yul\":3012:3039   */\n      mstore\n        /* \"#utility.yul\":2948:3049   */\n    tag_113:\n        /* \"#utility.yul\":2797:3055   */\n      pop\n        /* \"#utility.yul\":2748:3055   */\n      pop\n      pop\n      pop\n      jump\t// out\n        /* \"#utility.yul\":3061:3434   */\n    tag_66:\n        /* \"#utility.yul\":3165:3168   */\n      0x00\n        /* \"#utility.yul\":3193:3231   */\n      tag_115\n        /* \"#utility.yul\":3225:3230   */\n      dup3\n        /* \"#utility.yul\":3193:3231   */\n      tag_63\n      jump\t// in\n    tag_115:\n        /* \"#utility.yul\":3247:3335   */\n      tag_116\n        /* \"#utility.yul\":3328:3334   */\n      dup2\n        /* \"#utility.yul\":3323:3326   */\n      dup6\n        /* \"#utility.yul\":3247:3335   */\n      tag_64\n      jump\t// in\n    tag_116:\n        /* \"#utility.yul\":3240:3335   */\n      swap4\n      pop\n        /* \"#utility.yul\":3344:3396   */\n      tag_117\n        /* \"#utility.yul\":3389:3395   */\n      dup2\n        /* \"#utility.yul\":3384:3387   */\n      dup6\n        /* \"#utility.yul\":3377:3381   */\n      0x20\n        /* \"#utility.yul\":3370:3375   */\n      dup7\n        /* \"#utility.yul\":3366:3382   */\n      add\n        /* \"#utility.yul\":3344:3396   */\n      tag_65\n      jump\t// in\n    tag_117:\n        /* \"#utility.yul\":3421:3427   */\n      dup1\n        /* \"#utility.yul\":3416:3419   */\n      dup5\n        /* \"#utility.yul\":3412:3428   */\n      add\n        /* \"#utility.yul\":3405:3428   */\n      swap2\n      pop\n        /* \"#utility.yul\":3169:3434   */\n      pop\n        /* \"#utility.yul\":3061:3434   */\n      swap3\n      swap2\n      pop\n      pop\n      jump\t// out\n        /* \"#utility.yul\":3440:3711   */\n    tag_28:\n        /* \"#utility.yul\":3570:3573   */\n      0x00\n        /* \"#utility.yul\":3592:3685   */\n      tag_119\n        /* \"#utility.yul\":3681:3684   */\n      dup3\n        /* \"#utility.yul\":3672:3678   */\n      dup5\n        /* \"#utility.yul\":3592:3685   */\n      tag_66\n      jump\t// in\n    tag_119:\n        /* \"#utility.yul\":3585:3685   */\n      swap2\n      pop\n        /* \"#utility.yul\":3702:3705   */\n      dup2\n        /* \"#utility.yul\":3695:3705   */\n      swap1\n      pop\n        /* \"#utility.yul\":3440:3711   */\n      swap3\n      swap2\n      pop\n      pop\n      jump\t// out\n        /* \"#utility.yul\":3717:3807   */\n    tag_67:\n        /* \"#utility.yul\":3751:3758   */\n      0x00\n        /* \"#utility.yul\":3794:3799   */\n      dup2\n        /* \"#utility.yul\":3787:3800   */\n      iszero\n        /* \"#utility.yul\":3780:3801   */\n      iszero\n        /* \"#utility.yul\":3769:3801   */\n      swap1\n      pop\n        /* \"#utility.yul\":3717:3807   */\n      swap2\n      swap1\n      pop\n      jump\t// out\n        /* \"#utility.yul\":3813:3929   */\n    tag_68:\n        /* \"#utility.yul\":3883:3904   */\n      tag_122\n        /* \"#utility.yul\":3898:3903   */\n      dup2\n        /* \"#utility.yul\":3883:3904   */\n      tag_67\n      jump\t// in\n    tag_122:\n        /* \"#utility.yul\":3876:3881   */\n      dup2\n        /* \"#utility.yul\":3873:3905   */\n      eq\n        /* \"#utility.yul\":3863:3923   */\n      tag_123\n      jumpi\n        /* \"#utility.yul\":3919:3920   */\n      0x00\n        /* \"#utility.yul\":3916:3917   */\n      dup1\n        /* \"#utility.yul\":3909:3921   */\n      revert\n        /* \"#utility.yul\":3863:3923   */\n    tag_123:\n        /* \"#utility.yul\":3813:3929   */\n      pop\n      jump\t// out\n        /* \"#utility.yul\":3935:4072   */\n    tag_69:\n        /* \"#utility.yul\":3989:3994   */\n      0x00\n        /* \"#utility.yul\":4020:4026   */\n      dup2\n        /* \"#utility.yul\":4014:4027   */\n      mload\n        /* \"#utility.yul\":4005:4027   */\n      swap1\n      pop\n        /* \"#utility.yul\":4036:4066   */\n      tag_125\n        /* \"#utility.yul\":4060:4065   */\n      dup2\n        /* \"#utility.yul\":4036:4066   */\n      tag_68\n      jump\t// in\n    tag_125:\n        /* \"#utility.yul\":3935:4072   */\n      swap3\n      swap2\n      pop\n      pop\n      jump\t// out\n        /* \"#utility.yul\":4078:4423   */\n    tag_35:\n        /* \"#utility.yul\":4145:4151   */\n      0x00\n        /* \"#utility.yul\":4194:4196   */\n      0x20\n        /* \"#utility.yul\":4182:4191   */\n      dup3\n        /* \"#utility.yul\":4173:4180   */\n      dup5\n        /* \"#utility.yul\":4169:4192   */\n      sub\n        /* \"#utility.yul\":4165:4197   */\n      slt\n        /* \"#utility.yul\":4162:4281   */\n      iszero\n      tag_127\n      jumpi\n        /* \"#utility.yul\":4200:4279   */\n      tag_128\n      tag_52\n      jump\t// in\n    tag_128:\n        /* \"#utility.yul\":4162:4281   */\n    tag_127:\n        /* \"#utility.yul\":4320:4321   */\n      0x00\n        /* \"#utility.yul\":4345:4406   */\n      tag_129\n        /* \"#utility.yul\":4398:4405   */\n      dup5\n        /* \"#utility.yul\":4389:4395   */\n      dup3\n        /* \"#utility.yul\":4378:4387   */\n      dup6\n        /* \"#utility.yul\":4374:4396   */\n      add\n        /* \"#utility.yul\":4345:4406   */\n      tag_69\n      jump\t// in\n    tag_129:\n        /* \"#utility.yul\":4335:4406   */\n      swap2\n      pop\n        /* \"#utility.yul\":4291:4416   */\n      pop\n        /* \"#utility.yul\":4078:4423   */\n      swap3\n      swap2\n      pop\n      pop\n      jump\t// out\n        /* \"#utility.yul\":4429:4598   */\n    tag_70:\n        /* \"#utility.yul\":4513:4524   */\n      0x00\n        /* \"#utility.yul\":4547:4553   */\n      dup3\n        /* \"#utility.yul\":4542:4545   */\n      dup3\n        /* \"#utility.yul\":4535:4554   */\n      mstore\n        /* \"#utility.yul\":4587:4591   */\n      0x20\n        /* \"#utility.yul\":4582:4585   */\n      dup3\n        /* \"#utility.yul\":4578:4592   */\n      add\n        /* \"#utility.yul\":4563:4592   */\n      swap1\n      pop\n        /* \"#utility.yul\":4429:4598   */\n      swap3\n      swap2\n      pop\n      pop\n      jump\t// out\n        /* \"#utility.yul\":4604:4784   */\n    tag_71:\n        /* \"#utility.yul\":4744:4776   */\n      0x5472616e7366657248656c7065723a20415050524f56455f4641494c45440000\n        /* \"#utility.yul\":4740:4741   */\n      0x00\n        /* \"#utility.yul\":4732:4738   */\n      dup3\n        /* \"#utility.yul\":4728:4742   */\n      add\n        /* \"#utility.yul\":4721:4777   */\n      mstore\n        /* \"#utility.yul\":4604:4784   */\n      pop\n      jump\t// out\n        /* \"#utility.yul\":4790:5156   */\n    tag_72:\n        /* \"#utility.yul\":4932:4935   */\n      0x00\n        /* \"#utility.yul\":4953:5020   */\n      tag_133\n        /* \"#utility.yul\":5017:5019   */\n      0x1e\n        /* \"#utility.yul\":5012:5015   */\n      dup4\n        /* \"#utility.yul\":4953:5020   */\n      tag_70\n      jump\t// in\n    tag_133:\n        /* \"#utility.yul\":4946:5020   */\n      swap2\n      pop\n        /* \"#utility.yul\":5029:5122   */\n      tag_134\n        /* \"#utility.yul\":5118:5121   */\n      dup3\n        /* \"#utility.yul\":5029:5122   */\n      tag_71\n      jump\t// in\n    tag_134:\n        /* \"#utility.yul\":5147:5149   */\n      0x20\n        /* \"#utility.yul\":5142:5145   */\n      dup3\n        /* \"#utility.yul\":5138:5150   */\n      add\n        /* \"#utility.yul\":5131:5150   */\n      swap1\n      pop\n        /* \"#utility.yul\":4790:5156   */\n      swap2\n      swap1\n      pop\n      jump\t// out\n        /* \"#utility.yul\":5162:5581   */\n    tag_38:\n        /* \"#utility.yul\":5328:5332   */\n      0x00\n        /* \"#utility.yul\":5366:5368   */\n      0x20\n        /* \"#utility.yul\":5355:5364   */\n      dup3\n        /* \"#utility.yul\":5351:5369   */\n      add\n        /* \"#utility.yul\":5343:5369   */\n      swap1\n      pop\n        /* \"#utility.yul\":5415:5424   */\n      dup2\n        /* \"#utility.yul\":5409:5413   */\n      dup2\n        /* \"#utility.yul\":5405:5425   */\n      sub\n        /* \"#utility.yul\":5401:5402   */\n      0x00\n        /* \"#utility.yul\":5390:5399   */\n      dup4\n        /* \"#utility.yul\":5386:5403   */\n      add\n        /* \"#utility.yul\":5379:5426   */\n      mstore\n        /* \"#utility.yul\":5443:5574   */\n      tag_136\n        /* \"#utility.yul\":5569:5573   */\n      dup2\n        /* \"#utility.yul\":5443:5574   */\n      tag_72\n      jump\t// in\n    tag_136:\n        /* \"#utility.yul\":5435:5574   */\n      swap1\n      pop\n        /* \"#utility.yul\":5162:5581   */\n      swap2\n      swap1\n      pop\n      jump\t// out\n        /* \"#utility.yul\":5587:5768   */\n    tag_73:\n        /* \"#utility.yul\":5727:5760   */\n      0x5472616e7366657248656c7065723a205452414e534645525f4641494c454400\n        /* \"#utility.yul\":5723:5724   */\n      0x00\n        /* \"#utility.yul\":5715:5721   */\n      dup3\n        /* \"#utility.yul\":5711:5725   */\n      add\n        /* \"#utility.yul\":5704:5761   */\n      mstore\n        /* \"#utility.yul\":5587:5768   */\n      pop\n      jump\t// out\n        /* \"#utility.yul\":5774:6140   */\n    tag_74:\n        /* \"#utility.yul\":5916:5919   */\n      0x00\n        /* \"#utility.yul\":5937:6004   */\n      tag_139\n        /* \"#utility.yul\":6001:6003   */\n      0x1f\n        /* \"#utility.yul\":5996:5999   */\n      dup4\n        /* \"#utility.yul\":5937:6004   */\n      tag_70\n      jump\t// in\n    tag_139:\n        /* \"#utility.yul\":5930:6004   */\n      swap2\n      pop\n        /* \"#utility.yul\":6013:6106   */\n      tag_140\n        /* \"#utility.yul\":6102:6105   */\n      dup3\n        /* \"#utility.yul\":6013:6106   */\n      tag_73\n      jump\t// in\n    tag_140:\n        /* \"#utility.yul\":6131:6133   */\n      0x20\n        /* \"#utility.yul\":6126:6129   */\n      dup3\n        /* \"#utility.yul\":6122:6134   */\n      add\n        /* \"#utility.yul\":6115:6134   */\n      swap1\n      pop\n        /* \"#utility.yul\":5774:6140   */\n      swap2\n      swap1\n      pop\n      jump\t// out\n        /* \"#utility.yul\":6146:6565   */\n    tag_50:\n        /* \"#utility.yul\":6312:6316   */\n      0x00\n        /* \"#utility.yul\":6350:6352   */\n      0x20\n        /* \"#utility.yul\":6339:6348   */\n      dup3\n        /* \"#utility.yul\":6335:6353   */\n      add\n        /* \"#utility.yul\":6327:6353   */\n      swap1\n      pop\n        /* \"#utility.yul\":6399:6408   */\n      dup2\n        /* \"#utility.yul\":6393:6397   */\n      dup2\n        /* \"#utility.yul\":6389:6409   */\n      sub\n        /* \"#utility.yul\":6385:6386   */\n      0x00\n        /* \"#utility.yul\":6374:6383   */\n      dup4\n        /* \"#utility.yul\":6370:6387   */\n      add\n        /* \"#utility.yul\":6363:6410   */\n      mstore\n        /* \"#utility.yul\":6427:6558   */\n      tag_142\n        /* \"#utility.yul\":6553:6557   */\n      dup2\n        /* \"#utility.yul\":6427:6558   */\n      tag_74\n      jump\t// in\n    tag_142:\n        /* \"#utility.yul\":6419:6558   */\n      swap1\n      pop\n        /* \"#utility.yul\":6146:6565   */\n      swap2\n      swap1\n      pop\n      jump\t// out\n\n    auxdata: 0xa2646970667358221220f5ccc0b8821812197389eea843e04154cd359697a64f5ef1e065625d63eda3c864736f6c634300080d0033\n}\n",
				"bytecode": {
					"linkReferences": {},
					"object": "608060405234801561001057600080fd5b5061067e806100206000396000f3fe608060405234801561001057600080fd5b50600436106100415760003560e01c8063022fc88b146100465780632503c65c14610062578063d0679d3414610080575b600080fd5b610060600480360381019061005b91906103c7565b61009c565b005b61006a6100ab565b6040516100779190610416565b60405180910390f35b61009a600480360381019061009591906103c7565b6100b3565b005b6100a78233836100c2565b5050565b600042905090565b6100be8233836101f8565b5050565b6000808473ffffffffffffffffffffffffffffffffffffffff1663095ea7b385856040516024016100f4929190610440565b6040516020818303038152906040529060e01b6020820180517bffffffffffffffffffffffffffffffffffffffffffffffffffffffff838183161783525050505060405161014291906104e3565b6000604051808303816000865af19150503d806000811461017f576040519150601f19603f3d011682016040523d82523d6000602084013e610184565b606091505b50915091508180156101b257506000815114806101b15750808060200190518101906101b09190610532565b5b5b6101f1576040517f08c379a00000000000000000000000000000000000000000000000000000000081526004016101e8906105bc565b60405180910390fd5b5050505050565b6000808473ffffffffffffffffffffffffffffffffffffffff1663a9059cbb858560405160240161022a929190610440565b6040516020818303038152906040529060e01b6020820180517bffffffffffffffffffffffffffffffffffffffffffffffffffffffff838183161783525050505060405161027891906104e3565b6000604051808303816000865af19150503d80600081146102b5576040519150601f19603f3d011682016040523d82523d6000602084013e6102ba565b606091505b50915091508180156102e857506000815114806102e75750808060200190518101906102e69190610532565b5b5b610327576040517f08c379a000000000000000000000000000000000000000000000000000000000815260040161031e90610628565b60405180910390fd5b5050505050565b600080fd5b600073ffffffffffffffffffffffffffffffffffffffff82169050919050565b600061035e82610333565b9050919050565b61036e81610353565b811461037957600080fd5b50565b60008135905061038b81610365565b92915050565b6000819050919050565b6103a481610391565b81146103af57600080fd5b50565b6000813590506103c18161039b565b92915050565b600080604083850312156103de576103dd61032e565b5b60006103ec8582860161037c565b92505060206103fd858286016103b2565b9150509250929050565b61041081610391565b82525050565b600060208201905061042b6000830184610407565b92915050565b61043a81610353565b82525050565b60006040820190506104556000830185610431565b6104626020830184610407565b9392505050565b600081519050919050565b600081905092915050565b60005b8381101561049d578082015181840152602081019050610482565b838111156104ac576000848401525b50505050565b60006104bd82610469565b6104c78185610474565b93506104d781856020860161047f565b80840191505092915050565b60006104ef82846104b2565b915081905092915050565b60008115159050919050565b61050f816104fa565b811461051a57600080fd5b50565b60008151905061052c81610506565b92915050565b6000602082840312156105485761054761032e565b5b60006105568482850161051d565b91505092915050565b600082825260208201905092915050565b7f5472616e7366657248656c7065723a20415050524f56455f4641494c45440000600082015250565b60006105a6601e8361055f565b91506105b182610570565b602082019050919050565b600060208201905081810360008301526105d581610599565b9050919050565b7f5472616e7366657248656c7065723a205452414e534645525f4641494c454400600082015250565b6000610612601f8361055f565b915061061d826105dc565b602082019050919050565b6000602082019050818103600083015261064181610605565b905091905056fea2646970667358221220f5ccc0b8821812197389eea843e04154cd359697a64f5ef1e065625d63eda3c864736f6c634300080d0033",
					"opcodes": "PUSH1 0x80 PUSH1 0x40 MSTORE CALLVALUE DUP1 ISZERO PUSH2 0x10 JUMPI PUSH1 0x0 DUP1 REVERT JUMPDEST POP PUSH2 0x67E DUP1 PUSH2 0x20 PUSH1 0x0 CODECOPY PUSH1 0x0 RETURN INVALID PUSH1 0x80 PUSH1 0x40 MSTORE CALLVALUE DUP1 ISZERO PUSH2 0x10 JUMPI PUSH1 0x0 DUP1 REVERT JUMPDEST POP PUSH1 0x4 CALLDATASIZE LT PUSH2 0x41 JUMPI PUSH1 0x0 CALLDATALOAD PUSH1 0xE0 SHR DUP1 PUSH4 0x22FC88B EQ PUSH2 0x46 JUMPI DUP1 PUSH4 0x2503C65C EQ PUSH2 0x62 JUMPI DUP1 PUSH4 0xD0679D34 EQ PUSH2 0x80 JUMPI JUMPDEST PUSH1 0x0 DUP1 REVERT JUMPDEST PUSH2 0x60 PUSH1 0x4 DUP1 CALLDATASIZE SUB DUP2 ADD SWAP1 PUSH2 0x5B SWAP2 SWAP1 PUSH2 0x3C7 JUMP JUMPDEST PUSH2 0x9C JUMP JUMPDEST STOP JUMPDEST PUSH2 0x6A PUSH2 0xAB JUMP JUMPDEST PUSH1 0x40 MLOAD PUSH2 0x77 SWAP2 SWAP1 PUSH2 0x416 JUMP JUMPDEST PUSH1 0x40 MLOAD DUP1 SWAP2 SUB SWAP1 RETURN JUMPDEST PUSH2 0x9A PUSH1 0x4 DUP1 CALLDATASIZE SUB DUP2 ADD SWAP1 PUSH2 0x95 SWAP2 SWAP1 PUSH2 0x3C7 JUMP JUMPDEST PUSH2 0xB3 JUMP JUMPDEST STOP JUMPDEST PUSH2 0xA7 DUP3 CALLER DUP4 PUSH2 0xC2 JUMP JUMPDEST POP POP JUMP JUMPDEST PUSH1 0x0 TIMESTAMP SWAP1 POP SWAP1 JUMP JUMPDEST PUSH2 0xBE DUP3 CALLER DUP4 PUSH2 0x1F8 JUMP JUMPDEST POP POP JUMP JUMPDEST PUSH1 0x0 DUP1 DUP5 PUSH20 0xFFFFFFFFFFFFFFFFFFFFFFFFFFFFFFFFFFFFFFFF AND PUSH4 0x95EA7B3 DUP6 DUP6 PUSH1 0x40 MLOAD PUSH1 0x24 ADD PUSH2 0xF4 SWAP3 SWAP2 SWAP1 PUSH2 0x440 JUMP JUMPDEST PUSH1 0x40 MLOAD PUSH1 0x20 DUP2 DUP4 SUB SUB DUP2 MSTORE SWAP1 PUSH1 0x40 MSTORE SWAP1 PUSH1 0xE0 SHL PUSH1 0x20 DUP3 ADD DUP1 MLOAD PUSH28 0xFFFFFFFFFFFFFFFFFFFFFFFFFFFFFFFFFFFFFFFFFFFFFFFFFFFFFFFF DUP4 DUP2 DUP4 AND OR DUP4 MSTORE POP POP POP POP PUSH1 0x40 MLOAD PUSH2 0x142 SWAP2 SWAP1 PUSH2 0x4E3 JUMP JUMPDEST PUSH1 0x0 PUSH1 0x40 MLOAD DUP1 DUP4 SUB DUP2 PUSH1 0x0 DUP7 GAS CALL SWAP2 POP POP RETURNDATASIZE DUP1 PUSH1 0x0 DUP2 EQ PUSH2 0x17F JUMPI PUSH1 0x40 MLOAD SWAP2 POP PUSH1 0x1F NOT PUSH1 0x3F RETURNDATASIZE ADD AND DUP3 ADD PUSH1 0x40 MSTORE RETURNDATASIZE DUP3 MSTORE RETURNDATASIZE PUSH1 0x0 PUSH1 0x20 DUP5 ADD RETURNDATACOPY PUSH2 0x184 JUMP JUMPDEST PUSH1 0x60 SWAP2 POP JUMPDEST POP SWAP2 POP SWAP2 POP DUP2 DUP1 ISZERO PUSH2 0x1B2 JUMPI POP PUSH1 0x0 DUP2 MLOAD EQ DUP1 PUSH2 0x1B1 JUMPI POP DUP1 DUP1 PUSH1 0x20 ADD SWAP1 MLOAD DUP2 ADD SWAP1 PUSH2 0x1B0 SWAP2 SWAP1 PUSH2 0x532 JUMP JUMPDEST JUMPDEST JUMPDEST PUSH2 0x1F1 JUMPI PUSH1 0x40 MLOAD PUSH32 0x8C379A000000000000000000000000000000000000000000000000000000000 DUP2 MSTORE PUSH1 0x4 ADD PUSH2 0x1E8 SWAP1 PUSH2 0x5BC JUMP JUMPDEST PUSH1 0x40 MLOAD DUP1 SWAP2 SUB SWAP1 REVERT JUMPDEST POP POP POP POP POP JUMP JUMPDEST PUSH1 0x0 DUP1 DUP5 PUSH20 0xFFFFFFFFFFFFFFFFFFFFFFFFFFFFFFFFFFFFFFFF AND PUSH4 0xA9059CBB DUP6 DUP6 PUSH1 0x40 MLOAD PUSH1 0x24 ADD PUSH2 0x22A SWAP3 SWAP2 SWAP1 PUSH2 0x440 JUMP JUMPDEST PUSH1 0x40 MLOAD PUSH1 0x20 DUP2 DUP4 SUB SUB DUP2 MSTORE SWAP1 PUSH1 0x40 MSTORE SWAP1 PUSH1 0xE0 SHL PUSH1 0x20 DUP3 ADD DUP1 MLOAD PUSH28 0xFFFFFFFFFFFFFFFFFFFFFFFFFFFFFFFFFFFFFFFFFFFFFFFFFFFFFFFF DUP4 DUP2 DUP4 AND OR DUP4 MSTORE POP POP POP POP PUSH1 0x40 MLOAD PUSH2 0x278 SWAP2 SWAP1 PUSH2 0x4E3 JUMP JUMPDEST PUSH1 0x0 PUSH1 0x40 MLOAD DUP1 DUP4 SUB DUP2 PUSH1 0x0 DUP7 GAS CALL SWAP2 POP POP RETURNDATASIZE DUP1 PUSH1 0x0 DUP2 EQ PUSH2 0x2B5 JUMPI PUSH1 0x40 MLOAD SWAP2 POP PUSH1 0x1F NOT PUSH1 0x3F RETURNDATASIZE ADD AND DUP3 ADD PUSH1 0x40 MSTORE RETURNDATASIZE DUP3 MSTORE RETURNDATASIZE PUSH1 0x0 PUSH1 0x20 DUP5 ADD RETURNDATACOPY PUSH2 0x2BA JUMP JUMPDEST PUSH1 0x60 SWAP2 POP JUMPDEST POP SWAP2 POP SWAP2 POP DUP2 DUP1 ISZERO PUSH2 0x2E8 JUMPI POP PUSH1 0x0 DUP2 MLOAD EQ DUP1 PUSH2 0x2E7 JUMPI POP DUP1 DUP1 PUSH1 0x20 ADD SWAP1 MLOAD DUP2 ADD SWAP1 PUSH2 0x2E6 SWAP2 SWAP1 PUSH2 0x532 JUMP JUMPDEST JUMPDEST JUMPDEST PUSH2 0x327 JUMPI PUSH1 0x40 MLOAD PUSH32 0x8C379A000000000000000000000000000000000000000000000000000000000 DUP2 MSTORE PUSH1 0x4 ADD PUSH2 0x31E SWAP1 PUSH2 0x628 JUMP JUMPDEST PUSH1 0x40 MLOAD DUP1 SWAP2 SUB SWAP1 REVERT JUMPDEST POP POP POP POP POP JUMP JUMPDEST PUSH1 0x0 DUP1 REVERT JUMPDEST PUSH1 0x0 PUSH20 0xFFFFFFFFFFFFFFFFFFFFFFFFFFFFFFFFFFFFFFFF DUP3 AND SWAP1 POP SWAP2 SWAP1 POP JUMP JUMPDEST PUSH1 0x0 PUSH2 0x35E DUP3 PUSH2 0x333 JUMP JUMPDEST SWAP1 POP SWAP2 SWAP1 POP JUMP JUMPDEST PUSH2 0x36E DUP2 PUSH2 0x353 JUMP JUMPDEST DUP2 EQ PUSH2 0x379 JUMPI PUSH1 0x0 DUP1 REVERT JUMPDEST POP JUMP JUMPDEST PUSH1 0x0 DUP2 CALLDATALOAD SWAP1 POP PUSH2 0x38B DUP2 PUSH2 0x365 JUMP JUMPDEST SWAP3 SWAP2 POP POP JUMP JUMPDEST PUSH1 0x0 DUP2 SWAP1 POP SWAP2 SWAP1 POP JUMP JUMPDEST PUSH2 0x3A4 DUP2 PUSH2 0x391 JUMP JUMPDEST DUP2 EQ PUSH2 0x3AF JUMPI PUSH1 0x0 DUP1 REVERT JUMPDEST POP JUMP JUMPDEST PUSH1 0x0 DUP2 CALLDATALOAD SWAP1 POP PUSH2 0x3C1 DUP2 PUSH2 0x39B JUMP JUMPDEST SWAP3 SWAP2 POP POP JUMP JUMPDEST PUSH1 0x0 DUP1 PUSH1 0x40 DUP4 DUP6 SUB SLT ISZERO PUSH2 0x3DE JUMPI PUSH2 0x3DD PUSH2 0x32E JUMP JUMPDEST JUMPDEST PUSH1 0x0 PUSH2 0x3EC DUP6 DUP3 DUP7 ADD PUSH2 0x37C JUMP JUMPDEST SWAP3 POP POP PUSH1 0x20 PUSH2 0x3FD DUP6 DUP3 DUP7 ADD PUSH2 0x3B2 JUMP JUMPDEST SWAP2 POP POP SWAP3 POP SWAP3 SWAP1 POP JUMP JUMPDEST PUSH2 0x410 DUP2 PUSH2 0x391 JUMP JUMPDEST DUP3 MSTORE POP POP JUMP JUMPDEST PUSH1 0x0 PUSH1 0x20 DUP3 ADD SWAP1 POP PUSH2 0x42B PUSH1 0x0 DUP4 ADD DUP5 PUSH2 0x407 JUMP JUMPDEST SWAP3 SWAP2 POP POP JUMP JUMPDEST PUSH2 0x43A DUP2 PUSH2 0x353 JUMP JUMPDEST DUP3 MSTORE POP POP JUMP JUMPDEST PUSH1 0x0 PUSH1 0x40 DUP3 ADD SWAP1 POP PUSH2 0x455 PUSH1 0x0 DUP4 ADD DUP6 PUSH2 0x431 JUMP JUMPDEST PUSH2 0x462 PUSH1 0x20 DUP4 ADD DUP5 PUSH2 0x407 JUMP JUMPDEST SWAP4 SWAP3 POP POP POP JUMP JUMPDEST PUSH1 0x0 DUP2 MLOAD SWAP1 POP SWAP2 SWAP1 POP JUMP JUMPDEST PUSH1 0x0 DUP2 SWAP1 POP SWAP3 SWAP2 POP POP JUMP JUMPDEST PUSH1 0x0 JUMPDEST DUP4 DUP2 LT ISZERO PUSH2 0x49D JUMPI DUP1 DUP3 ADD MLOAD DUP2 DUP5 ADD MSTORE PUSH1 0x20 DUP2 ADD SWAP1 POP PUSH2 0x482 JUMP JUMPDEST DUP4 DUP2 GT ISZERO PUSH2 0x4AC JUMPI PUSH1 0x0 DUP5 DUP5 ADD MSTORE JUMPDEST POP POP POP POP JUMP JUMPDEST PUSH1 0x0 PUSH2 0x4BD DUP3 PUSH2 0x469 JUMP JUMPDEST PUSH2 0x4C7 DUP2 DUP6 PUSH2 0x474 JUMP JUMPDEST SWAP4 POP PUSH2 0x4D7 DUP2 DUP6 PUSH1 0x20 DUP7 ADD PUSH2 0x47F JUMP JUMPDEST DUP1 DUP5 ADD SWAP2 POP POP SWAP3 SWAP2 POP POP JUMP JUMPDEST PUSH1 0x0 PUSH2 0x4EF DUP3 DUP5 PUSH2 0x4B2 JUMP JUMPDEST SWAP2 POP DUP2 SWAP1 POP SWAP3 SWAP2 POP POP JUMP JUMPDEST PUSH1 0x0 DUP2 ISZERO ISZERO SWAP1 POP SWAP2 SWAP1 POP JUMP JUMPDEST PUSH2 0x50F DUP2 PUSH2 0x4FA JUMP JUMPDEST DUP2 EQ PUSH2 0x51A JUMPI PUSH1 0x0 DUP1 REVERT JUMPDEST POP JUMP JUMPDEST PUSH1 0x0 DUP2 MLOAD SWAP1 POP PUSH2 0x52C DUP2 PUSH2 0x506 JUMP JUMPDEST SWAP3 SWAP2 POP POP JUMP JUMPDEST PUSH1 0x0 PUSH1 0x20 DUP3 DUP5 SUB SLT ISZERO PUSH2 0x548 JUMPI PUSH2 0x547 PUSH2 0x32E JUMP JUMPDEST JUMPDEST PUSH1 0x0 PUSH2 0x556 DUP5 DUP3 DUP6 ADD PUSH2 0x51D JUMP JUMPDEST SWAP2 POP POP SWAP3 SWAP2 POP POP JUMP JUMPDEST PUSH1 0x0 DUP3 DUP3 MSTORE PUSH1 0x20 DUP3 ADD SWAP1 POP SWAP3 SWAP2 POP POP JUMP JUMPDEST PUSH32 0x5472616E7366657248656C7065723A20415050524F56455F4641494C45440000 PUSH1 0x0 DUP3 ADD MSTORE POP JUMP JUMPDEST PUSH1 0x0 PUSH2 0x5A6 PUSH1 0x1E DUP4 PUSH2 0x55F JUMP JUMPDEST SWAP2 POP PUSH2 0x5B1 DUP3 PUSH2 0x570 JUMP JUMPDEST PUSH1 0x20 DUP3 ADD SWAP1 POP SWAP2 SWAP1 POP JUMP JUMPDEST PUSH1 0x0 PUSH1 0x20 DUP3 ADD SWAP1 POP DUP2 DUP2 SUB PUSH1 0x0 DUP4 ADD MSTORE PUSH2 0x5D5 DUP2 PUSH2 0x599 JUMP JUMPDEST SWAP1 POP SWAP2 SWAP1 POP JUMP JUMPDEST PUSH32 0x5472616E7366657248656C7065723A205452414E534645525F4641494C454400 PUSH1 0x0 DUP3 ADD MSTORE POP JUMP JUMPDEST PUSH1 0x0 PUSH2 0x612 PUSH1 0x1F DUP4 PUSH2 0x55F JUMP JUMPDEST SWAP2 POP PUSH2 0x61D DUP3 PUSH2 0x5DC JUMP JUMPDEST PUSH1 0x20 DUP3 ADD SWAP1 POP SWAP2 SWAP1 POP JUMP JUMPDEST PUSH1 0x0 PUSH1 0x20 DUP3 ADD SWAP1 POP DUP2 DUP2 SUB PUSH1 0x0 DUP4 ADD MSTORE PUSH2 0x641 DUP2 PUSH2 0x605 JUMP JUMPDEST SWAP1 POP SWAP2 SWAP1 POP JUMP INVALID LOG2 PUSH5 0x6970667358 0x22 SLT KECCAK256 CREATE2 0xCC 0xC0 0xB8 DUP3 XOR SLT NOT PUSH20 0x89EEA843E04154CD359697A64F5EF1E065625D63 0xED LOG3 0xC8 PUSH5 0x736F6C6343 STOP ADDMOD 0xD STOP CALLER "
				},
				"gasEstimates": {
					"creation": {
						"codeDepositCost": "332400",
						"executionCost": "368",
						"totalCost": "332768"
					},
					"external": {
						"approveToken(address,uint256)": "infinite",
						"getDataTime()": "336",
						"send(address,uint256)": "infinite"
					}
				},
				"methodIdentifiers": {
					"approveToken(address,uint256)": "022fc88b",
					"getDataTime()": "2503c65c",
					"send(address,uint256)": "d0679d34"
				}
			},
			"storageLayout": {
				"storage": [],
				"types": null
			},
			"userdoc": {
				"kind": "user",
				"methods": {},
				"version": 1
			}
		}
	}
}