{
	"contracts/1_Storage.sol": {
		"Storage": {
			"abi": [
				{
					"inputs": [
						{
							"internalType": "address",
							"name": "token",
							"type": "address"
						},
						{
							"internalType": "uint256",
							"name": "amount",
							"type": "uint256"
						}
					],
					"name": "approveToken",
					"outputs": [],
					"stateMutability": "nonpayable",
					"type": "function"
				},
				{
					"inputs": [],
					"name": "getDataTime",
					"outputs": [
						{
							"internalType": "uint256",
							"name": "",
							"type": "uint256"
						}
					],
					"stateMutability": "view",
					"type": "function"
				},
				{
					"inputs": [
						{
							"internalType": "address",
							"name": "token",
							"type": "address"
						},
						{
							"internalType": "uint256",
							"name": "amount",
							"type": "uint256"
						}
					],
					"name": "send",
					"outputs": [],
					"stateMutability": "nonpayable",
					"type": "function"
				}
			],
			"devdoc": {
				"kind": "dev",
				"methods": {},
				"version": 1
			},
			"evm": {
				"assembly": "    /* \"contracts/1_Storage.sol\":102:594  contract Storage {... */\n  mstore(0x40, 0x80)\n  callvalue\n  dup1\n  iszero\n  tag_1\n  jumpi\n  0x00\n  dup1\n  revert\ntag_1:\n  pop\n  dataSize(sub_0)\n  dup1\n  dataOffset(sub_0)\n  0x00\n  codecopy\n  0x00\n  return\nstop\n\nsub_0: assembly {\n        /* \"contracts/1_Storage.sol\":102:594  contract Storage {... */\n      mstore(0x40, 0x80)\n      callvalue\n      dup1\n      iszero\n      tag_1\n      jumpi\n      0x00\n      dup1\n      revert\n    tag_1:\n      pop\n      jumpi(tag_2, lt(calldatasize, 0x04))\n      shr(0xe0, calldataload(0x00))\n      dup1\n      0x022fc88b\n      eq\n      tag_3\n      jumpi\n      dup1\n      0x2503c65c\n      eq\n      tag_4\n      jumpi\n      dup1\n      0xd0679d34\n      eq\n      tag_5\n      jumpi\n    tag_2:\n      0x00\n      dup1\n      revert\n        /* \"contracts/1_Storage.sol\":309:494  function approveToken(address token, uint256 amount) public {... */\n    tag_3:\n      tag_6\n      0x04\n      dup1\n      calldatasize\n      sub\n      dup2\n      add\n      swap1\n      tag_7\n      swap2\n      swap1\n      tag_8\n      jump\t// in\n    tag_7:\n      tag_9\n      jump\t// in\n    tag_6:\n      stop\n        /* \"contracts/1_Storage.sol\":501:592  function getDataTime() public view returns(uint256) {... */\n    tag_4:\n      tag_10\n      tag_11\n      jump\t// in\n    tag_10:\n      mload(0x40)\n      tag_12\n      swap2\n      swap1\n      tag_13\n      jump\t// in\n    tag_12:\n      mload(0x40)\n      dup1\n      swap2\n      sub\n      swap1\n      return\n        /* \"contracts/1_Storage.sol\":125:303  function send(address token, uint256 amount) public {... */\n    tag_5:\n      tag_14\n      0x04\n      dup1\n      calldatasize\n      sub\n      dup2\n      add\n      swap1\n      tag_15\n      swap2\n      swap1\n      tag_8\n      jump\t// in\n    tag_15:\n      tag_16\n      jump\t// in\n    tag_14:\n      stop\n        /* \"contracts/1_Storage.sol\":309:494  function approveToken(address token, uint256 amount) public {... */\n    tag_9:\n        /* \"contracts/1_Storage.sol\":379:487  TransferHelper.safeApprove(... */\n      tag_18\n        /* \"contracts/1_Storage.sol\":427:432  token */\n      dup3\n        /* \"contracts/1_Storage.sol\":447:457  msg.sender */\n      caller\n        /* \"contracts/1_Storage.sol\":471:477  amount */\n      dup4\n        /* \"contracts/1_Storage.sol\":379:405  TransferHelper.safeApprove */\n      tag_19\n        /* \"contracts/1_Storage.sol\":379:487  TransferHelper.safeApprove(... */\n      jump\t// in\n    tag_18:\n        /* \"contracts/1_Storage.sol\":309:494  function approveToken(address token, uint256 amount) public {... */\n      pop\n      pop\n      jump\t// out\n        /* \"contracts/1_Storage.sol\":501:592  function getDataTime() public view returns(uint256) {... */\n    tag_11:\n        /* \"contracts/1_Storage.sol\":544:551  uint256 */\n      0x00\n        /* \"contracts/1_Storage.sol\":570:585  block.timestamp */\n      timestamp\n        /* \"contracts/1_Storage.sol\":563:585  return block.timestamp */\n      swap1\n      pop\n        /* \"contracts/1_Storage.sol\":501:592  function getDataTime() public view returns(uint256) {... */\n      swap1\n      jump\t// out\n        /* \"contracts/1_Storage.sol\":125:303  function send(address token, uint256 amount) public {... */\n    tag_16:\n        /* \"contracts/1_Storage.sol\":187:296  TransferHelper.safeTransfer(... */\n      tag_22\n        /* \"contracts/1_Storage.sol\":236:241  token */\n      dup3\n        /* \"contracts/1_Storage.sol\":256:266  msg.sender */\n      caller\n        /* \"contracts/1_Storage.sol\":280:286  amount */\n      dup4\n        /* \"contracts/1_Storage.sol\":187:214  TransferHelper.safeTransfer */\n      tag_23\n        /* \"contracts/1_Storage.sol\":187:296  TransferHelper.safeTransfer(... */\n      jump\t// in\n    tag_22:\n        /* \"contracts/1_Storage.sol\":125:303  function send(address token, uint256 amount) public {... */\n      pop\n      pop\n      jump\t// out\n        /* \"contracts/TransferHelper.sol\":274:664  function safeApprove(\r... */\n    tag_19:\n        /* \"contracts/TransferHelper.sol\":392:404  bool success */\n      0x00\n        /* \"contracts/TransferHelper.sol\":406:423  bytes memory data */\n      dup1\n        /* \"contracts/TransferHelper.sol\":427:432  token */\n      dup5\n        /* \"contracts/TransferHelper.sol\":427:437  token.call */\n      0xffffffffffffffffffffffffffffffffffffffff\n      and\n        /* \"contracts/TransferHelper.sol\":475:485  0x095ea7b3 */\n      0x095ea7b3\n        /* \"contracts/TransferHelper.sol\":487:489  to */\n      dup6\n        /* \"contracts/TransferHelper.sol\":491:496  value */\n      dup6\n        /* \"contracts/TransferHelper.sol\":452:497  abi.encodeWithSelector(0x095ea7b3, to, value) */\n      add(0x24, mload(0x40))\n      tag_25\n      swap3\n      swap2\n      swap1\n      tag_26\n      jump\t// in\n    tag_25:\n      mload(0x40)\n      0x20\n      dup2\n      dup4\n      sub\n      sub\n      dup2\n      mstore\n      swap1\n      0x40\n      mstore\n      swap1\n      0xe0\n      shl\n      0x20\n      dup3\n      add\n      dup1\n      mload\n      0xffffffffffffffffffffffffffffffffffffffffffffffffffffffff\n      dup4\n      dup2\n      dup4\n      and\n      or\n      dup4\n      mstore\n      pop\n      pop\n      pop\n      pop\n        /* \"contracts/TransferHelper.sol\":427:508  token.call(\r... */\n      mload(0x40)\n      tag_27\n      swap2\n      swap1\n      tag_28\n      jump\t// in\n    tag_27:\n      0x00\n      mload(0x40)\n      dup1\n      dup4\n      sub\n      dup2\n      0x00\n      dup7\n      gas\n      call\n      swap2\n      pop\n      pop\n      returndatasize\n      dup1\n      0x00\n      dup2\n      eq\n      tag_31\n      jumpi\n      mload(0x40)\n      swap2\n      pop\n      and(add(returndatasize, 0x3f), not(0x1f))\n      dup3\n      add\n      0x40\n      mstore\n      returndatasize\n      dup3\n      mstore\n      returndatasize\n      0x00\n      0x20\n      dup5\n      add\n      returndatacopy\n      jump(tag_30)\n    tag_31:\n      0x60\n      swap2\n      pop\n    tag_30:\n      pop\n        /* \"contracts/TransferHelper.sol\":391:508  (bool success, bytes memory data) = token.call(\r... */\n      swap2\n      pop\n      swap2\n      pop\n        /* \"contracts/TransferHelper.sol\":541:548  success */\n      dup2\n        /* \"contracts/TransferHelper.sol\":541:598  success && (data.length == 0 || abi.decode(data, (bool))) */\n      dup1\n      iszero\n      tag_32\n      jumpi\n      pop\n        /* \"contracts/TransferHelper.sol\":568:569  0 */\n      0x00\n        /* \"contracts/TransferHelper.sol\":553:557  data */\n      dup2\n        /* \"contracts/TransferHelper.sol\":553:564  data.length */\n      mload\n        /* \"contracts/TransferHelper.sol\":553:569  data.length == 0 */\n      eq\n        /* \"contracts/TransferHelper.sol\":553:597  data.length == 0 || abi.decode(data, (bool)) */\n      dup1\n      tag_33\n      jumpi\n      pop\n        /* \"contracts/TransferHelper.sol\":584:588  data */\n      dup1\n        /* \"contracts/TransferHelper.sol\":573:597  abi.decode(data, (bool)) */\n      dup1\n      0x20\n      add\n      swap1\n      mload\n      dup2\n      add\n      swap1\n      tag_34\n      swap2\n      swap1\n      tag_35\n      jump\t// in\n    tag_34:\n        /* \"contracts/TransferHelper.sol\":553:597  data.length == 0 || abi.decode(data, (bool)) */\n    tag_33:\n        /* \"contracts/TransferHelper.sol\":541:598  success && (data.length == 0 || abi.decode(data, (bool))) */\n    tag_32:\n        /* \"contracts/TransferHelper.sol\":519:656  require(\r... */\n      tag_36\n      jumpi\n      mload(0x40)\n      0x08c379a000000000000000000000000000000000000000000000000000000000\n      dup2\n      mstore\n      0x04\n      add\n      tag_37\n      swap1\n      tag_38\n      jump\t// in\n    tag_37:\n      mload(0x40)\n      dup1\n      swap2\n      sub\n      swap1\n      revert\n    tag_36:\n        /* \"contracts/TransferHelper.sol\":274:664  function safeApprove(\r... */\n      pop\n      pop\n      pop\n      pop\n      pop\n      jump\t// out\n        /* \"contracts/TransferHelper.sol\":673:1065  function safeTransfer(\r... */\n    tag_23:\n        /* \"contracts/TransferHelper.sol\":792:804  bool success */\n      0x00\n        /* \"contracts/TransferHelper.sol\":806:823  bytes memory data */\n      dup1\n        /* \"contracts/TransferHelper.sol\":827:832  token */\n      dup5\n        /* \"contracts/TransferHelper.sol\":827:837  token.call */\n      0xffffffffffffffffffffffffffffffffffffffff\n      and\n        /* \"contracts/TransferHelper.sol\":875:885  0xa9059cbb */\n      0xa9059cbb\n        /* \"contracts/TransferHelper.sol\":887:889  to */\n      dup6\n        /* \"contracts/TransferHelper.sol\":891:896  value */\n      dup6\n        /* \"contracts/TransferHelper.sol\":852:897  abi.encodeWithSelector(0xa9059cbb, to, value) */\n      add(0x24, mload(0x40))\n      tag_40\n      swap3\n      swap2\n      swap1\n      tag_26\n      jump\t// in\n    tag_40:\n      mload(0x40)\n      0x20\n      dup2\n      dup4\n      sub\n      sub\n      dup2\n      mstore\n      swap1\n      0x40\n      mstore\n      swap1\n      0xe0\n      shl\n      0x20\n      dup3\n      add\n      dup1\n      mload\n      0xffffffffffffffffffffffffffffffffffffffffffffffffffffffff\n      dup4\n      dup2\n      dup4\n      and\n      or\n      dup4\n      mstore\n      pop\n      pop\n      pop\n      pop\n        /* \"contracts/TransferHelper.sol\":827:908  token.call(\r... */\n      mload(0x40)\n      tag_41\n      swap2\n      swap1\n      tag_28\n      jump\t// in\n    tag_41:\n      0x00\n      mload(0x40)\n      dup1\n      dup4\n      sub\n      dup2\n      0x00\n      dup7\n      gas\n      call\n      swap2\n      pop\n      pop\n      returndatasize\n      dup1\n      0x00\n      dup2\n      eq\n      tag_44\n      jumpi\n      mload(0x40)\n      swap2\n      pop\n      and(add(returndatasize, 0x3f), not(0x1f))\n      dup3\n      add\n      0x40\n      mstore\n      returndatasize\n      dup3\n      mstore\n      returndatasize\n      0x00\n      0x20\n      dup5\n      add\n      returndatacopy\n      jump(tag_43)\n    tag_44:\n      0x60\n      swap2\n      pop\n    tag_43:\n      pop\n        /* \"contracts/TransferHelper.sol\":791:908  (bool success, bytes memory data) = token.call(\r... */\n      swap2\n      pop\n      swap2\n      pop\n        /* \"contracts/TransferHelper.sol\":941:948  success */\n      dup2\n        /* \"contracts/TransferHelper.sol\":941:998  success && (data.length == 0 || abi.decode(data, (bool))) */\n      dup1\n      iszero\n      tag_45\n      jumpi\n      pop\n        /* \"contracts/TransferHelper.sol\":968:969  0 */\n      0x00\n        /* \"contracts/TransferHelper.sol\":953:957  data */\n      dup2\n        /* \"contracts/TransferHelper.sol\":953:964  data.length */\n      mload\n        /* \"contracts/TransferHelper.sol\":953:969  data.length == 0 */\n      eq\n        /* \"contracts/TransferHelper.sol\":953:997  data.length == 0 || abi.decode(data, (bool)) */\n      dup1\n      tag_46\n      jumpi\n      pop\n        /* \"contracts/TransferHelper.sol\":984:988  data */\n      dup1\n        /* \"contracts/TransferHelper.sol\":973:997  abi.decode(data, (bool)) */\n      dup1\n      0x20\n      add\n      swap1\n      mload\n      dup2\n      add\n      swap1\n      tag_47\n      swap2\n      swap1\n      tag_35\n      jump\t// in\n    tag_47:\n        /* \"contracts/TransferHelper.sol\":953:997  data.length == 0 || abi.decode(data, (bool)) */\n    tag_46:\n        /* \"contracts/TransferHelper.sol\":941:998  success && (data.length == 0 || abi.decode(data, (bool))) */\n    tag_45:\n        /* \"contracts/TransferHelper.sol\":919:1057  require(\r... */\n      tag_48\n      jumpi\n      mload(0x40)\n      0x08c379a000000000000000000000000000000000000000000000000000000000\n      dup2\n      mstore\n      0x04\n      add\n      tag_49\n      swap1\n      tag_50\n      jump\t// in\n    tag_49:\n      mload(0x40)\n      dup1\n      swap2\n      sub\n      swap1\n      revert\n    tag_48:\n        /* \"contracts/TransferHelper.sol\":673:1065  function safeTransfer(\r... */\n      pop\n      pop\n      pop\n      pop\n      pop\n      jump\t// out\n        /* \"#utility.yul\":7:146   */\n    tag_52:\n      0x00\n        /* \"#utility.yul\":91:97   */\n      dup2\n        /* \"#utility.yul\":78:98   */\n      calldataload\n        /* \"#utility.yul\":69:98   */\n      swap1\n      pop\n        /* \"#utility.yul\":107:140   */\n      tag_54\n        /* \"#utility.yul\":134:139   */\n      dup2\n        /* \"#utility.yul\":107:140   */\n      tag_55\n      jump\t// in\n    tag_54:\n        /* \"#utility.yul\":59:146   */\n      swap3\n      swap2\n      pop\n      pop\n      jump\t// out\n        /* \"#utility.yul\":152:289   */\n    tag_56:\n      0x00\n        /* \"#utility.yul\":237:243   */\n      dup2\n        /* \"#utility.yul\":231:244   */\n      mload\n        /* \"#utility.yul\":222:244   */\n      swap1\n      pop\n        /* \"#utility.yul\":253:283   */\n      tag_58\n        /* \"#utility.yul\":277:282   */\n      dup2\n        /* \"#utility.yul\":253:283   */\n      tag_59\n      jump\t// in\n    tag_58:\n        /* \"#utility.yul\":212:289   */\n      swap3\n      swap2\n      pop\n      pop\n      jump\t// out\n        /* \"#utility.yul\":295:434   */\n    tag_60:\n      0x00\n        /* \"#utility.yul\":379:385   */\n      dup2\n        /* \"#utility.yul\":366:386   */\n      calldataload\n        /* \"#utility.yul\":357:386   */\n      swap1\n      pop\n        /* \"#utility.yul\":395:428   */\n      tag_62\n        /* \"#utility.yul\":422:427   */\n      dup2\n        /* \"#utility.yul\":395:428   */\n      tag_63\n      jump\t// in\n    tag_62:\n        /* \"#utility.yul\":347:434   */\n      swap3\n      swap2\n      pop\n      pop\n      jump\t// out\n        /* \"#utility.yul\":440:847   */\n    tag_8:\n      0x00\n      dup1\n        /* \"#utility.yul\":565:567   */\n      0x40\n        /* \"#utility.yul\":553:562   */\n      dup4\n        /* \"#utility.yul\":544:551   */\n      dup6\n        /* \"#utility.yul\":540:563   */\n      sub\n        /* \"#utility.yul\":536:568   */\n      slt\n        /* \"#utility.yul\":533:535   */\n      iszero\n      tag_65\n      jumpi\n        /* \"#utility.yul\":581:582   */\n      0x00\n        /* \"#utility.yul\":578:579   */\n      dup1\n        /* \"#utility.yul\":571:583   */\n      revert\n        /* \"#utility.yul\":533:535   */\n    tag_65:\n        /* \"#utility.yul\":624:625   */\n      0x00\n        /* \"#utility.yul\":649:702   */\n      tag_66\n        /* \"#utility.yul\":694:701   */\n      dup6\n        /* \"#utility.yul\":685:691   */\n      dup3\n        /* \"#utility.yul\":674:683   */\n      dup7\n        /* \"#utility.yul\":670:692   */\n      add\n        /* \"#utility.yul\":649:702   */\n      tag_52\n      jump\t// in\n    tag_66:\n        /* \"#utility.yul\":639:702   */\n      swap3\n      pop\n        /* \"#utility.yul\":595:712   */\n      pop\n        /* \"#utility.yul\":751:753   */\n      0x20\n        /* \"#utility.yul\":777:830   */\n      tag_67\n        /* \"#utility.yul\":822:829   */\n      dup6\n        /* \"#utility.yul\":813:819   */\n      dup3\n        /* \"#utility.yul\":802:811   */\n      dup7\n        /* \"#utility.yul\":798:820   */\n      add\n        /* \"#utility.yul\":777:830   */\n      tag_60\n      jump\t// in\n    tag_67:\n        /* \"#utility.yul\":767:830   */\n      swap2\n      pop\n        /* \"#utility.yul\":722:840   */\n      pop\n        /* \"#utility.yul\":523:847   */\n      swap3\n      pop\n      swap3\n      swap1\n      pop\n      jump\t// out\n        /* \"#utility.yul\":853:1131   */\n    tag_35:\n      0x00\n        /* \"#utility.yul\":969:971   */\n      0x20\n        /* \"#utility.yul\":957:966   */\n      dup3\n        /* \"#utility.yul\":948:955   */\n      dup5\n        /* \"#utility.yul\":944:967   */\n      sub\n        /* \"#utility.yul\":940:972   */\n      slt\n        /* \"#utility.yul\":937:939   */\n      iszero\n      tag_69\n      jumpi\n        /* \"#utility.yul\":985:986   */\n      0x00\n        /* \"#utility.yul\":982:983   */\n      dup1\n        /* \"#utility.yul\":975:987   */\n      revert\n        /* \"#utility.yul\":937:939   */\n    tag_69:\n        /* \"#utility.yul\":1028:1029   */\n      0x00\n        /* \"#utility.yul\":1053:1114   */\n      tag_70\n        /* \"#utility.yul\":1106:1113   */\n      dup5\n        /* \"#utility.yul\":1097:1103   */\n      dup3\n        /* \"#utility.yul\":1086:1095   */\n      dup6\n        /* \"#utility.yul\":1082:1104   */\n      add\n        /* \"#utility.yul\":1053:1114   */\n      tag_56\n      jump\t// in\n    tag_70:\n        /* \"#utility.yul\":1043:1114   */\n      swap2\n      pop\n        /* \"#utility.yul\":999:1124   */\n      pop\n        /* \"#utility.yul\":927:1131   */\n      swap3\n      swap2\n      pop\n      pop\n      jump\t// out\n        /* \"#utility.yul\":1137:1255   */\n    tag_71:\n        /* \"#utility.yul\":1224:1248   */\n      tag_73\n        /* \"#utility.yul\":1242:1247   */\n      dup2\n        /* \"#utility.yul\":1224:1248   */\n      tag_74\n      jump\t// in\n    tag_73:\n        /* \"#utility.yul\":1219:1222   */\n      dup3\n        /* \"#utility.yul\":1212:1249   */\n      mstore\n        /* \"#utility.yul\":1202:1255   */\n      pop\n      pop\n      jump\t// out\n        /* \"#utility.yul\":1261:1634   */\n    tag_75:\n      0x00\n        /* \"#utility.yul\":1393:1431   */\n      tag_77\n        /* \"#utility.yul\":1425:1430   */\n      dup3\n        /* \"#utility.yul\":1393:1431   */\n      tag_78\n      jump\t// in\n    tag_77:\n        /* \"#utility.yul\":1447:1535   */\n      tag_79\n        /* \"#utility.yul\":1528:1534   */\n      dup2\n        /* \"#utility.yul\":1523:1526   */\n      dup6\n        /* \"#utility.yul\":1447:1535   */\n      tag_80\n      jump\t// in\n    tag_79:\n        /* \"#utility.yul\":1440:1535   */\n      swap4\n      pop\n        /* \"#utility.yul\":1544:1596   */\n      tag_81\n        /* \"#utility.yul\":1589:1595   */\n      dup2\n        /* \"#utility.yul\":1584:1587   */\n      dup6\n        /* \"#utility.yul\":1577:1581   */\n      0x20\n        /* \"#utility.yul\":1570:1575   */\n      dup7\n        /* \"#utility.yul\":1566:1582   */\n      add\n        /* \"#utility.yul\":1544:1596   */\n      tag_82\n      jump\t// in\n    tag_81:\n        /* \"#utility.yul\":1621:1627   */\n      dup1\n        /* \"#utility.yul\":1616:1619   */\n      dup5\n        /* \"#utility.yul\":1612:1628   */\n      add\n        /* \"#utility.yul\":1605:1628   */\n      swap2\n      pop\n        /* \"#utility.yul\":1369:1634   */\n      pop\n      swap3\n      swap2\n      pop\n      pop\n      jump\t// out\n        /* \"#utility.yul\":1640:1969   */\n    tag_83:\n      0x00\n        /* \"#utility.yul\":1803:1870   */\n      tag_85\n        /* \"#utility.yul\":1867:1869   */\n      0x1f\n        /* \"#utility.yul\":1862:1865   */\n      dup4\n        /* \"#utility.yul\":1803:1870   */\n      tag_86\n      jump\t// in\n    tag_85:\n        /* \"#utility.yul\":1796:1870   */\n      swap2\n      pop\n        /* \"#utility.yul\":1900:1933   */\n      0x5472616e7366657248656c7065723a205452414e534645525f4641494c454400\n        /* \"#utility.yul\":1896:1897   */\n      0x00\n        /* \"#utility.yul\":1891:1894   */\n      dup4\n        /* \"#utility.yul\":1887:1898   */\n      add\n        /* \"#utility.yul\":1880:1934   */\n      mstore\n        /* \"#utility.yul\":1960:1962   */\n      0x20\n        /* \"#utility.yul\":1955:1958   */\n      dup3\n        /* \"#utility.yul\":1951:1963   */\n      add\n        /* \"#utility.yul\":1944:1963   */\n      swap1\n      pop\n        /* \"#utility.yul\":1786:1969   */\n      swap2\n      swap1\n      pop\n      jump\t// out\n        /* \"#utility.yul\":1975:2303   */\n    tag_87:\n      0x00\n        /* \"#utility.yul\":2138:2205   */\n      tag_89\n        /* \"#utility.yul\":2202:2204   */\n      0x1e\n        /* \"#utility.yul\":2197:2200   */\n      dup4\n        /* \"#utility.yul\":2138:2205   */\n      tag_86\n      jump\t// in\n    tag_89:\n        /* \"#utility.yul\":2131:2205   */\n      swap2\n      pop\n        /* \"#utility.yul\":2235:2267   */\n      0x5472616e7366657248656c7065723a20415050524f56455f4641494c45440000\n        /* \"#utility.yul\":2231:2232   */\n      0x00\n        /* \"#utility.yul\":2226:2229   */\n      dup4\n        /* \"#utility.yul\":2222:2233   */\n      add\n        /* \"#utility.yul\":2215:2268   */\n      mstore\n        /* \"#utility.yul\":2294:2296   */\n      0x20\n        /* \"#utility.yul\":2289:2292   */\n      dup3\n        /* \"#utility.yul\":2285:2297   */\n      add\n        /* \"#utility.yul\":2278:2297   */\n      swap1\n      pop\n        /* \"#utility.yul\":2121:2303   */\n      swap2\n      swap1\n      pop\n      jump\t// out\n        /* \"#utility.yul\":2309:2427   */\n    tag_90:\n        /* \"#utility.yul\":2396:2420   */\n      tag_92\n        /* \"#utility.yul\":2414:2419   */\n      dup2\n        /* \"#utility.yul\":2396:2420   */\n      tag_93\n      jump\t// in\n    tag_92:\n        /* \"#utility.yul\":2391:2394   */\n      dup3\n        /* \"#utility.yul\":2384:2421   */\n      mstore\n        /* \"#utility.yul\":2374:2427   */\n      pop\n      pop\n      jump\t// out\n        /* \"#utility.yul\":2433:2704   */\n    tag_28:\n      0x00\n        /* \"#utility.yul\":2585:2678   */\n      tag_95\n        /* \"#utility.yul\":2674:2677   */\n      dup3\n        /* \"#utility.yul\":2665:2671   */\n      dup5\n        /* \"#utility.yul\":2585:2678   */\n      tag_75\n      jump\t// in\n    tag_95:\n        /* \"#utility.yul\":2578:2678   */\n      swap2\n      pop\n        /* \"#utility.yul\":2695:2698   */\n      dup2\n        /* \"#utility.yul\":2688:2698   */\n      swap1\n      pop\n        /* \"#utility.yul\":2567:2704   */\n      swap3\n      swap2\n      pop\n      pop\n      jump\t// out\n        /* \"#utility.yul\":2710:3042   */\n    tag_26:\n      0x00\n        /* \"#utility.yul\":2869:2871   */\n      0x40\n        /* \"#utility.yul\":2858:2867   */\n      dup3\n        /* \"#utility.yul\":2854:2872   */\n      add\n        /* \"#utility.yul\":2846:2872   */\n      swap1\n      pop\n        /* \"#utility.yul\":2882:2953   */\n      tag_97\n        /* \"#utility.yul\":2950:2951   */\n      0x00\n        /* \"#utility.yul\":2939:2948   */\n      dup4\n        /* \"#utility.yul\":2935:2952   */\n      add\n        /* \"#utility.yul\":2926:2932   */\n      dup6\n        /* \"#utility.yul\":2882:2953   */\n      tag_71\n      jump\t// in\n    tag_97:\n        /* \"#utility.yul\":2963:3035   */\n      tag_98\n        /* \"#utility.yul\":3031:3033   */\n      0x20\n        /* \"#utility.yul\":3020:3029   */\n      dup4\n        /* \"#utility.yul\":3016:3034   */\n      add\n        /* \"#utility.yul\":3007:3013   */\n      dup5\n        /* \"#utility.yul\":2963:3035   */\n      tag_90\n      jump\t// in\n    tag_98:\n        /* \"#utility.yul\":2836:3042   */\n      swap4\n      swap3\n      pop\n      pop\n      pop\n      jump\t// out\n        /* \"#utility.yul\":3048:3467   */\n    tag_50:\n      0x00\n        /* \"#utility.yul\":3252:3254   */\n      0x20\n        /* \"#utility.yul\":3241:3250   */\n      dup3\n        /* \"#utility.yul\":3237:3255   */\n      add\n        /* \"#utility.yul\":3229:3255   */\n      swap1\n      pop\n        /* \"#utility.yul\":3301:3310   */\n      dup2\n        /* \"#utility.yul\":3295:3299   */\n      dup2\n        /* \"#utility.yul\":3291:3311   */\n      sub\n        /* \"#utility.yul\":3287:3288   */\n      0x00\n        /* \"#utility.yul\":3276:3285   */\n      dup4\n        /* \"#utility.yul\":3272:3289   */\n      add\n        /* \"#utility.yul\":3265:3312   */\n      mstore\n        /* \"#utility.yul\":3329:3460   */\n      tag_100\n        /* \"#utility.yul\":3455:3459   */\n      dup2\n        /* \"#utility.yul\":3329:3460   */\n      tag_83\n      jump\t// in\n    tag_100:\n        /* \"#utility.yul\":3321:3460   */\n      swap1\n      pop\n        /* \"#utility.yul\":3219:3467   */\n      swap2\n      swap1\n      pop\n      jump\t// out\n        /* \"#utility.yul\":3473:3892   */\n    tag_38:\n      0x00\n        /* \"#utility.yul\":3677:3679   */\n      0x20\n        /* \"#utility.yul\":3666:3675   */\n      dup3\n        /* \"#utility.yul\":3662:3680   */\n      add\n        /* \"#utility.yul\":3654:3680   */\n      swap1\n      pop\n        /* \"#utility.yul\":3726:3735   */\n      dup2\n        /* \"#utility.yul\":3720:3724   */\n      dup2\n        /* \"#utility.yul\":3716:3736   */\n      sub\n        /* \"#utility.yul\":3712:3713   */\n      0x00\n        /* \"#utility.yul\":3701:3710   */\n      dup4\n        /* \"#utility.yul\":3697:3714   */\n      add\n        /* \"#utility.yul\":3690:3737   */\n      mstore\n        /* \"#utility.yul\":3754:3885   */\n      tag_102\n        /* \"#utility.yul\":3880:3884   */\n      dup2\n        /* \"#utility.yul\":3754:3885   */\n      tag_87\n      jump\t// in\n    tag_102:\n        /* \"#utility.yul\":3746:3885   */\n      swap1\n      pop\n        /* \"#utility.yul\":3644:3892   */\n      swap2\n      swap1\n      pop\n      jump\t// out\n        /* \"#utility.yul\":3898:4120   */\n    tag_13:\n      0x00\n        /* \"#utility.yul\":4029:4031   */\n      0x20\n        /* \"#utility.yul\":4018:4027   */\n      dup3\n        /* \"#utility.yul\":4014:4032   */\n      add\n        /* \"#utility.yul\":4006:4032   */\n      swap1\n      pop\n        /* \"#utility.yul\":4042:4113   */\n      tag_104\n        /* \"#utility.yul\":4110:4111   */\n      0x00\n        /* \"#utility.yul\":4099:4108   */\n      dup4\n        /* \"#utility.yul\":4095:4112   */\n      add\n        /* \"#utility.yul\":4086:4092   */\n      dup5\n        /* \"#utility.yul\":4042:4113   */\n      tag_90\n      jump\t// in\n    tag_104:\n        /* \"#utility.yul\":3996:4120   */\n      swap3\n      swap2\n      pop\n      pop\n      jump\t// out\n        /* \"#utility.yul\":4126:4224   */\n    tag_78:\n      0x00\n        /* \"#utility.yul\":4211:4216   */\n      dup2\n        /* \"#utility.yul\":4205:4217   */\n      mload\n        /* \"#utility.yul\":4195:4217   */\n      swap1\n      pop\n        /* \"#utility.yul\":4184:4224   */\n      swap2\n      swap1\n      pop\n      jump\t// out\n        /* \"#utility.yul\":4230:4377   */\n    tag_80:\n      0x00\n        /* \"#utility.yul\":4368:4371   */\n      dup2\n        /* \"#utility.yul\":4353:4371   */\n      swap1\n      pop\n        /* \"#utility.yul\":4343:4377   */\n      swap3\n      swap2\n      pop\n      pop\n      jump\t// out\n        /* \"#utility.yul\":4383:4552   */\n    tag_86:\n      0x00\n        /* \"#utility.yul\":4501:4507   */\n      dup3\n        /* \"#utility.yul\":4496:4499   */\n      dup3\n        /* \"#utility.yul\":4489:4508   */\n      mstore\n        /* \"#utility.yul\":4541:4545   */\n      0x20\n        /* \"#utility.yul\":4536:4539   */\n      dup3\n        /* \"#utility.yul\":4532:4546   */\n      add\n        /* \"#utility.yul\":4517:4546   */\n      swap1\n      pop\n        /* \"#utility.yul\":4479:4552   */\n      swap3\n      swap2\n      pop\n      pop\n      jump\t// out\n        /* \"#utility.yul\":4558:4654   */\n    tag_74:\n      0x00\n        /* \"#utility.yul\":4624:4648   */\n      tag_109\n        /* \"#utility.yul\":4642:4647   */\n      dup3\n        /* \"#utility.yul\":4624:4648   */\n      tag_110\n      jump\t// in\n    tag_109:\n        /* \"#utility.yul\":4613:4648   */\n      swap1\n      pop\n        /* \"#utility.yul\":4603:4654   */\n      swap2\n      swap1\n      pop\n      jump\t// out\n        /* \"#utility.yul\":4660:4750   */\n    tag_111:\n      0x00\n        /* \"#utility.yul\":4737:4742   */\n      dup2\n        /* \"#utility.yul\":4730:4743   */\n      iszero\n        /* \"#utility.yul\":4723:4744   */\n      iszero\n        /* \"#utility.yul\":4712:4744   */\n      swap1\n      pop\n        /* \"#utility.yul\":4702:4750   */\n      swap2\n      swap1\n      pop\n      jump\t// out\n        /* \"#utility.yul\":4756:4882   */\n    tag_110:\n      0x00\n        /* \"#utility.yul\":4833:4875   */\n      0xffffffffffffffffffffffffffffffffffffffff\n        /* \"#utility.yul\":4826:4831   */\n      dup3\n        /* \"#utility.yul\":4822:4876   */\n      and\n        /* \"#utility.yul\":4811:4876   */\n      swap1\n      pop\n        /* \"#utility.yul\":4801:4882   */\n      swap2\n      swap1\n      pop\n      jump\t// out\n        /* \"#utility.yul\":4888:4965   */\n    tag_93:\n      0x00\n        /* \"#utility.yul\":4954:4959   */\n      dup2\n        /* \"#utility.yul\":4943:4959   */\n      swap1\n      pop\n        /* \"#utility.yul\":4933:4965   */\n      swap2\n      swap1\n      pop\n      jump\t// out\n        /* \"#utility.yul\":4971:5278   */\n    tag_82:\n        /* \"#utility.yul\":5039:5040   */\n      0x00\n        /* \"#utility.yul\":5049:5162   */\n    tag_116:\n        /* \"#utility.yul\":5063:5069   */\n      dup4\n        /* \"#utility.yul\":5060:5061   */\n      dup2\n        /* \"#utility.yul\":5057:5070   */\n      lt\n        /* \"#utility.yul\":5049:5162   */\n      iszero\n      tag_118\n      jumpi\n        /* \"#utility.yul\":5148:5149   */\n      dup1\n        /* \"#utility.yul\":5143:5146   */\n      dup3\n        /* \"#utility.yul\":5139:5150   */\n      add\n        /* \"#utility.yul\":5133:5151   */\n      mload\n        /* \"#utility.yul\":5129:5130   */\n      dup2\n        /* \"#utility.yul\":5124:5127   */\n      dup5\n        /* \"#utility.yul\":5120:5131   */\n      add\n        /* \"#utility.yul\":5113:5152   */\n      mstore\n        /* \"#utility.yul\":5085:5087   */\n      0x20\n        /* \"#utility.yul\":5082:5083   */\n      dup2\n        /* \"#utility.yul\":5078:5088   */\n      add\n        /* \"#utility.yul\":5073:5088   */\n      swap1\n      pop\n        /* \"#utility.yul\":5049:5162   */\n      jump(tag_116)\n    tag_118:\n        /* \"#utility.yul\":5180:5186   */\n      dup4\n        /* \"#utility.yul\":5177:5178   */\n      dup2\n        /* \"#utility.yul\":5174:5187   */\n      gt\n        /* \"#utility.yul\":5171:5173   */\n      iszero\n      tag_119\n      jumpi\n        /* \"#utility.yul\":5260:5261   */\n      0x00\n        /* \"#utility.yul\":5251:5257   */\n      dup5\n        /* \"#utility.yul\":5246:5249   */\n      dup5\n        /* \"#utility.yul\":5242:5258   */\n      add\n        /* \"#utility.yul\":5235:5262   */\n      mstore\n        /* \"#utility.yul\":5171:5173   */\n    tag_119:\n        /* \"#utility.yul\":5020:5278   */\n      pop\n      pop\n      pop\n      pop\n      jump\t// out\n        /* \"#utility.yul\":5284:5406   */\n    tag_55:\n        /* \"#utility.yul\":5357:5381   */\n      tag_121\n        /* \"#utility.yul\":5375:5380   */\n      dup2\n        /* \"#utility.yul\":5357:5381   */\n      tag_74\n      jump\t// in\n    tag_121:\n        /* \"#utility.yul\":5350:5355   */\n      dup2\n        /* \"#utility.yul\":5347:5382   */\n      eq\n        /* \"#utility.yul\":5337:5339   */\n      tag_122\n      jumpi\n        /* \"#utility.yul\":5396:5397   */\n      0x00\n        /* \"#utility.yul\":5393:5394   */\n      dup1\n        /* \"#utility.yul\":5386:5398   */\n      revert\n        /* \"#utility.yul\":5337:5339   */\n    tag_122:\n        /* \"#utility.yul\":5327:5406   */\n      pop\n      jump\t// out\n        /* \"#utility.yul\":5412:5528   */\n    tag_59:\n        /* \"#utility.yul\":5482:5503   */\n      tag_124\n        /* \"#utility.yul\":5497:5502   */\n      dup2\n        /* \"#utility.yul\":5482:5503   */\n      tag_111\n      jump\t// in\n    tag_124:\n        /* \"#utility.yul\":5475:5480   */\n      dup2\n        /* \"#utility.yul\":5472:5504   */\n      eq\n        /* \"#utility.yul\":5462:5464   */\n      tag_125\n      jumpi\n        /* \"#utility.yul\":5518:5519   */\n      0x00\n        /* \"#utility.yul\":5515:5516   */\n      dup1\n        /* \"#utility.yul\":5508:5520   */\n      revert\n        /* \"#utility.yul\":5462:5464   */\n    tag_125:\n        /* \"#utility.yul\":5452:5528   */\n      pop\n      jump\t// out\n        /* \"#utility.yul\":5534:5656   */\n    tag_63:\n        /* \"#utility.yul\":5607:5631   */\n      tag_127\n        /* \"#utility.yul\":5625:5630   */\n      dup2\n        /* \"#utility.yul\":5607:5631   */\n      tag_93\n      jump\t// in\n    tag_127:\n        /* \"#utility.yul\":5600:5605   */\n      dup2\n        /* \"#utility.yul\":5597:5632   */\n      eq\n        /* \"#utility.yul\":5587:5589   */\n      tag_128\n      jumpi\n        /* \"#utility.yul\":5646:5647   */\n      0x00\n        /* \"#utility.yul\":5643:5644   */\n      dup1\n        /* \"#utility.yul\":5636:5648   */\n      revert\n        /* \"#utility.yul\":5587:5589   */\n    tag_128:\n        /* \"#utility.yul\":5577:5656   */\n      pop\n      jump\t// out\n\n    auxdata: 0xa26469706673582212203de7000e4ab05fad16c8ab36ea8c72aaedff4ffe7686449cdcab92f5776d1f5b64736f6c63430008000033\n}\n",
				"bytecode": {
					"linkReferences": {},
					"object": "608060405234801561001057600080fd5b50610659806100206000396000f3fe608060405234801561001057600080fd5b50600436106100415760003560e01c8063022fc88b146100465780632503c65c14610062578063d0679d3414610080575b600080fd5b610060600480360381019061005b919061036d565b61009c565b005b61006a6100ab565b6040516100779190610521565b60405180910390f35b61009a6004803603810190610095919061036d565b6100b3565b005b6100a78233836100c2565b5050565b600042905090565b6100be8233836101f8565b5050565b6000808473ffffffffffffffffffffffffffffffffffffffff1663095ea7b385856040516024016100f49291906104b8565b6040516020818303038152906040529060e01b6020820180517bffffffffffffffffffffffffffffffffffffffffffffffffffffffff838183161783525050505060405161014291906104a1565b6000604051808303816000865af19150503d806000811461017f576040519150601f19603f3d011682016040523d82523d6000602084013e610184565b606091505b50915091508180156101b257506000815114806101b15750808060200190518101906101b091906103a9565b5b5b6101f1576040517f08c379a00000000000000000000000000000000000000000000000000000000081526004016101e890610501565b60405180910390fd5b5050505050565b6000808473ffffffffffffffffffffffffffffffffffffffff1663a9059cbb858560405160240161022a9291906104b8565b6040516020818303038152906040529060e01b6020820180517bffffffffffffffffffffffffffffffffffffffffffffffffffffffff838183161783525050505060405161027891906104a1565b6000604051808303816000865af19150503d80600081146102b5576040519150601f19603f3d011682016040523d82523d6000602084013e6102ba565b606091505b50915091508180156102e857506000815114806102e75750808060200190518101906102e691906103a9565b5b5b610327576040517f08c379a000000000000000000000000000000000000000000000000000000000815260040161031e906104e1565b60405180910390fd5b5050505050565b60008135905061033d816105de565b92915050565b600081519050610352816105f5565b92915050565b6000813590506103678161060c565b92915050565b6000806040838503121561038057600080fd5b600061038e8582860161032e565b925050602061039f85828601610358565b9150509250929050565b6000602082840312156103bb57600080fd5b60006103c984828501610343565b91505092915050565b6103db81610563565b82525050565b60006103ec8261053c565b6103f68185610547565b93506104068185602086016105ab565b80840191505092915050565b600061041f601f83610552565b91507f5472616e7366657248656c7065723a205452414e534645525f4641494c4544006000830152602082019050919050565b600061045f601e83610552565b91507f5472616e7366657248656c7065723a20415050524f56455f4641494c454400006000830152602082019050919050565b61049b816105a1565b82525050565b60006104ad82846103e1565b915081905092915050565b60006040820190506104cd60008301856103d2565b6104da6020830184610492565b9392505050565b600060208201905081810360008301526104fa81610412565b9050919050565b6000602082019050818103600083015261051a81610452565b9050919050565b60006020820190506105366000830184610492565b92915050565b600081519050919050565b600081905092915050565b600082825260208201905092915050565b600061056e82610581565b9050919050565b60008115159050919050565b600073ffffffffffffffffffffffffffffffffffffffff82169050919050565b6000819050919050565b60005b838110156105c95780820151818401526020810190506105ae565b838111156105d8576000848401525b50505050565b6105e781610563565b81146105f257600080fd5b50565b6105fe81610575565b811461060957600080fd5b50565b610615816105a1565b811461062057600080fd5b5056fea26469706673582212203de7000e4ab05fad16c8ab36ea8c72aaedff4ffe7686449cdcab92f5776d1f5b64736f6c63430008000033",
					"opcodes": "PUSH1 0x80 PUSH1 0x40 MSTORE CALLVALUE DUP1 ISZERO PUSH2 0x10 JUMPI PUSH1 0x0 DUP1 REVERT JUMPDEST POP PUSH2 0x659 DUP1 PUSH2 0x20 PUSH1 0x0 CODECOPY PUSH1 0x0 RETURN INVALID PUSH1 0x80 PUSH1 0x40 MSTORE CALLVALUE DUP1 ISZERO PUSH2 0x10 JUMPI PUSH1 0x0 DUP1 REVERT JUMPDEST POP PUSH1 0x4 CALLDATASIZE LT PUSH2 0x41 JUMPI PUSH1 0x0 CALLDATALOAD PUSH1 0xE0 SHR DUP1 PUSH4 0x22FC88B EQ PUSH2 0x46 JUMPI DUP1 PUSH4 0x2503C65C EQ PUSH2 0x62 JUMPI DUP1 PUSH4 0xD0679D34 EQ PUSH2 0x80 JUMPI JUMPDEST PUSH1 0x0 DUP1 REVERT JUMPDEST PUSH2 0x60 PUSH1 0x4 DUP1 CALLDATASIZE SUB DUP2 ADD SWAP1 PUSH2 0x5B SWAP2 SWAP1 PUSH2 0x36D JUMP JUMPDEST PUSH2 0x9C JUMP JUMPDEST STOP JUMPDEST PUSH2 0x6A PUSH2 0xAB JUMP JUMPDEST PUSH1 0x40 MLOAD PUSH2 0x77 SWAP2 SWAP1 PUSH2 0x521 JUMP JUMPDEST PUSH1 0x40 MLOAD DUP1 SWAP2 SUB SWAP1 RETURN JUMPDEST PUSH2 0x9A PUSH1 0x4 DUP1 CALLDATASIZE SUB DUP2 ADD SWAP1 PUSH2 0x95 SWAP2 SWAP1 PUSH2 0x36D JUMP JUMPDEST PUSH2 0xB3 JUMP JUMPDEST STOP JUMPDEST PUSH2 0xA7 DUP3 CALLER DUP4 PUSH2 0xC2 JUMP JUMPDEST POP POP JUMP JUMPDEST PUSH1 0x0 TIMESTAMP SWAP1 POP SWAP1 JUMP JUMPDEST PUSH2 0xBE DUP3 CALLER DUP4 PUSH2 0x1F8 JUMP JUMPDEST POP POP JUMP JUMPDEST PUSH1 0x0 DUP1 DUP5 PUSH20 0xFFFFFFFFFFFFFFFFFFFFFFFFFFFFFFFFFFFFFFFF AND PUSH4 0x95EA7B3 DUP6 DUP6 PUSH1 0x40 MLOAD PUSH1 0x24 ADD PUSH2 0xF4 SWAP3 SWAP2 SWAP1 PUSH2 0x4B8 JUMP JUMPDEST PUSH1 0x40 MLOAD PUSH1 0x20 DUP2 DUP4 SUB SUB DUP2 MSTORE SWAP1 PUSH1 0x40 MSTORE SWAP1 PUSH1 0xE0 SHL PUSH1 0x20 DUP3 ADD DUP1 MLOAD PUSH28 0xFFFFFFFFFFFFFFFFFFFFFFFFFFFFFFFFFFFFFFFFFFFFFFFFFFFFFFFF DUP4 DUP2 DUP4 AND OR DUP4 MSTORE POP POP POP POP PUSH1 0x40 MLOAD PUSH2 0x142 SWAP2 SWAP1 PUSH2 0x4A1 JUMP JUMPDEST PUSH1 0x0 PUSH1 0x40 MLOAD DUP1 DUP4 SUB DUP2 PUSH1 0x0 DUP7 GAS CALL SWAP2 POP POP RETURNDATASIZE DUP1 PUSH1 0x0 DUP2 EQ PUSH2 0x17F JUMPI PUSH1 0x40 MLOAD SWAP2 POP PUSH1 0x1F NOT PUSH1 0x3F RETURNDATASIZE ADD AND DUP3 ADD PUSH1 0x40 MSTORE RETURNDATASIZE DUP3 MSTORE RETURNDATASIZE PUSH1 0x0 PUSH1 0x20 DUP5 ADD RETURNDATACOPY PUSH2 0x184 JUMP JUMPDEST PUSH1 0x60 SWAP2 POP JUMPDEST POP SWAP2 POP SWAP2 POP DUP2 DUP1 ISZERO PUSH2 0x1B2 JUMPI POP PUSH1 0x0 DUP2 MLOAD EQ DUP1 PUSH2 0x1B1 JUMPI POP DUP1 DUP1 PUSH1 0x20 ADD SWAP1 MLOAD DUP2 ADD SWAP1 PUSH2 0x1B0 SWAP2 SWAP1 PUSH2 0x3A9 JUMP JUMPDEST JUMPDEST JUMPDEST PUSH2 0x1F1 JUMPI PUSH1 0x40 MLOAD PUSH32 0x8C379A000000000000000000000000000000000000000000000000000000000 DUP2 MSTORE PUSH1 0x4 ADD PUSH2 0x1E8 SWAP1 PUSH2 0x501 JUMP JUMPDEST PUSH1 0x40 MLOAD DUP1 SWAP2 SUB SWAP1 REVERT JUMPDEST POP POP POP POP POP JUMP JUMPDEST PUSH1 0x0 DUP1 DUP5 PUSH20 0xFFFFFFFFFFFFFFFFFFFFFFFFFFFFFFFFFFFFFFFF AND PUSH4 0xA9059CBB DUP6 DUP6 PUSH1 0x40 MLOAD PUSH1 0x24 ADD PUSH2 0x22A SWAP3 SWAP2 SWAP1 PUSH2 0x4B8 JUMP JUMPDEST PUSH1 0x40 MLOAD PUSH1 0x20 DUP2 DUP4 SUB SUB DUP2 MSTORE SWAP1 PUSH1 0x40 MSTORE SWAP1 PUSH1 0xE0 SHL PUSH1 0x20 DUP3 ADD DUP1 MLOAD PUSH28 0xFFFFFFFFFFFFFFFFFFFFFFFFFFFFFFFFFFFFFFFFFFFFFFFFFFFFFFFF DUP4 DUP2 DUP4 AND OR DUP4 MSTORE POP POP POP POP PUSH1 0x40 MLOAD PUSH2 0x278 SWAP2 SWAP1 PUSH2 0x4A1 JUMP JUMPDEST PUSH1 0x0 PUSH1 0x40 MLOAD DUP1 DUP4 SUB DUP2 PUSH1 0x0 DUP7 GAS CALL SWAP2 POP POP RETURNDATASIZE DUP1 PUSH1 0x0 DUP2 EQ PUSH2 0x2B5 JUMPI PUSH1 0x40 MLOAD SWAP2 POP PUSH1 0x1F NOT PUSH1 0x3F RETURNDATASIZE ADD AND DUP3 ADD PUSH1 0x40 MSTORE RETURNDATASIZE DUP3 MSTORE RETURNDATASIZE PUSH1 0x0 PUSH1 0x20 DUP5 ADD RETURNDATACOPY PUSH2 0x2BA JUMP JUMPDEST PUSH1 0x60 SWAP2 POP JUMPDEST POP SWAP2 POP SWAP2 POP DUP2 DUP1 ISZERO PUSH2 0x2E8 JUMPI POP PUSH1 0x0 DUP2 MLOAD EQ DUP1 PUSH2 0x2E7 JUMPI POP DUP1 DUP1 PUSH1 0x20 ADD SWAP1 MLOAD DUP2 ADD SWAP1 PUSH2 0x2E6 SWAP2 SWAP1 PUSH2 0x3A9 JUMP JUMPDEST JUMPDEST JUMPDEST PUSH2 0x327 JUMPI PUSH1 0x40 MLOAD PUSH32 0x8C379A000000000000000000000000000000000000000000000000000000000 DUP2 MSTORE PUSH1 0x4 ADD PUSH2 0x31E SWAP1 PUSH2 0x4E1 JUMP JUMPDEST PUSH1 0x40 MLOAD DUP1 SWAP2 SUB SWAP1 REVERT JUMPDEST POP POP POP POP POP JUMP JUMPDEST PUSH1 0x0 DUP2 CALLDATALOAD SWAP1 POP PUSH2 0x33D DUP2 PUSH2 0x5DE JUMP JUMPDEST SWAP3 SWAP2 POP POP JUMP JUMPDEST PUSH1 0x0 DUP2 MLOAD SWAP1 POP PUSH2 0x352 DUP2 PUSH2 0x5F5 JUMP JUMPDEST SWAP3 SWAP2 POP POP JUMP JUMPDEST PUSH1 0x0 DUP2 CALLDATALOAD SWAP1 POP PUSH2 0x367 DUP2 PUSH2 0x60C JUMP JUMPDEST SWAP3 SWAP2 POP POP JUMP JUMPDEST PUSH1 0x0 DUP1 PUSH1 0x40 DUP4 DUP6 SUB SLT ISZERO PUSH2 0x380 JUMPI PUSH1 0x0 DUP1 REVERT JUMPDEST PUSH1 0x0 PUSH2 0x38E DUP6 DUP3 DUP7 ADD PUSH2 0x32E JUMP JUMPDEST SWAP3 POP POP PUSH1 0x20 PUSH2 0x39F DUP6 DUP3 DUP7 ADD PUSH2 0x358 JUMP JUMPDEST SWAP2 POP POP SWAP3 POP SWAP3 SWAP1 POP JUMP JUMPDEST PUSH1 0x0 PUSH1 0x20 DUP3 DUP5 SUB SLT ISZERO PUSH2 0x3BB JUMPI PUSH1 0x0 DUP1 REVERT JUMPDEST PUSH1 0x0 PUSH2 0x3C9 DUP5 DUP3 DUP6 ADD PUSH2 0x343 JUMP JUMPDEST SWAP2 POP POP SWAP3 SWAP2 POP POP JUMP JUMPDEST PUSH2 0x3DB DUP2 PUSH2 0x563 JUMP JUMPDEST DUP3 MSTORE POP POP JUMP JUMPDEST PUSH1 0x0 PUSH2 0x3EC DUP3 PUSH2 0x53C JUMP JUMPDEST PUSH2 0x3F6 DUP2 DUP6 PUSH2 0x547 JUMP JUMPDEST SWAP4 POP PUSH2 0x406 DUP2 DUP6 PUSH1 0x20 DUP7 ADD PUSH2 0x5AB JUMP JUMPDEST DUP1 DUP5 ADD SWAP2 POP POP SWAP3 SWAP2 POP POP JUMP JUMPDEST PUSH1 0x0 PUSH2 0x41F PUSH1 0x1F DUP4 PUSH2 0x552 JUMP JUMPDEST SWAP2 POP PUSH32 0x5472616E7366657248656C7065723A205452414E534645525F4641494C454400 PUSH1 0x0 DUP4 ADD MSTORE PUSH1 0x20 DUP3 ADD SWAP1 POP SWAP2 SWAP1 POP JUMP JUMPDEST PUSH1 0x0 PUSH2 0x45F PUSH1 0x1E DUP4 PUSH2 0x552 JUMP JUMPDEST SWAP2 POP PUSH32 0x5472616E7366657248656C7065723A20415050524F56455F4641494C45440000 PUSH1 0x0 DUP4 ADD MSTORE PUSH1 0x20 DUP3 ADD SWAP1 POP SWAP2 SWAP1 POP JUMP JUMPDEST PUSH2 0x49B DUP2 PUSH2 0x5A1 JUMP JUMPDEST DUP3 MSTORE POP POP JUMP JUMPDEST PUSH1 0x0 PUSH2 0x4AD DUP3 DUP5 PUSH2 0x3E1 JUMP JUMPDEST SWAP2 POP DUP2 SWAP1 POP SWAP3 SWAP2 POP POP JUMP JUMPDEST PUSH1 0x0 PUSH1 0x40 DUP3 ADD SWAP1 POP PUSH2 0x4CD PUSH1 0x0 DUP4 ADD DUP6 PUSH2 0x3D2 JUMP JUMPDEST PUSH2 0x4DA PUSH1 0x20 DUP4 ADD DUP5 PUSH2 0x492 JUMP JUMPDEST SWAP4 SWAP3 POP POP POP JUMP JUMPDEST PUSH1 0x0 PUSH1 0x20 DUP3 ADD SWAP1 POP DUP2 DUP2 SUB PUSH1 0x0 DUP4 ADD MSTORE PUSH2 0x4FA DUP2 PUSH2 0x412 JUMP JUMPDEST SWAP1 POP SWAP2 SWAP1 POP JUMP JUMPDEST PUSH1 0x0 PUSH1 0x20 DUP3 ADD SWAP1 POP DUP2 DUP2 SUB PUSH1 0x0 DUP4 ADD MSTORE PUSH2 0x51A DUP2 PUSH2 0x452 JUMP JUMPDEST SWAP1 POP SWAP2 SWAP1 POP JUMP JUMPDEST PUSH1 0x0 PUSH1 0x20 DUP3 ADD SWAP1 POP PUSH2 0x536 PUSH1 0x0 DUP4 ADD DUP5 PUSH2 0x492 JUMP JUMPDEST SWAP3 SWAP2 POP POP JUMP JUMPDEST PUSH1 0x0 DUP2 MLOAD SWAP1 POP SWAP2 SWAP1 POP JUMP JUMPDEST PUSH1 0x0 DUP2 SWAP1 POP SWAP3 SWAP2 POP POP JUMP JUMPDEST PUSH1 0x0 DUP3 DUP3 MSTORE PUSH1 0x20 DUP3 ADD SWAP1 POP SWAP3 SWAP2 POP POP JUMP JUMPDEST PUSH1 0x0 PUSH2 0x56E DUP3 PUSH2 0x581 JUMP JUMPDEST SWAP1 POP SWAP2 SWAP1 POP JUMP JUMPDEST PUSH1 0x0 DUP2 ISZERO ISZERO SWAP1 POP SWAP2 SWAP1 POP JUMP JUMPDEST PUSH1 0x0 PUSH20 0xFFFFFFFFFFFFFFFFFFFFFFFFFFFFFFFFFFFFFFFF DUP3 AND SWAP1 POP SWAP2 SWAP1 POP JUMP JUMPDEST PUSH1 0x0 DUP2 SWAP1 POP SWAP2 SWAP1 POP JUMP JUMPDEST PUSH1 0x0 JUMPDEST DUP4 DUP2 LT ISZERO PUSH2 0x5C9 JUMPI DUP1 DUP3 ADD MLOAD DUP2 DUP5 ADD MSTORE PUSH1 0x20 DUP2 ADD SWAP1 POP PUSH2 0x5AE JUMP JUMPDEST DUP4 DUP2 GT ISZERO PUSH2 0x5D8 JUMPI PUSH1 0x0 DUP5 DUP5 ADD MSTORE JUMPDEST POP POP POP POP JUMP JUMPDEST PUSH2 0x5E7 DUP2 PUSH2 0x563 JUMP JUMPDEST DUP2 EQ PUSH2 0x5F2 JUMPI PUSH1 0x0 DUP1 REVERT JUMPDEST POP JUMP JUMPDEST PUSH2 0x5FE DUP2 PUSH2 0x575 JUMP JUMPDEST DUP2 EQ PUSH2 0x609 JUMPI PUSH1 0x0 DUP1 REVERT JUMPDEST POP JUMP JUMPDEST PUSH2 0x615 DUP2 PUSH2 0x5A1 JUMP JUMPDEST DUP2 EQ PUSH2 0x620 JUMPI PUSH1 0x0 DUP1 REVERT JUMPDEST POP JUMP INVALID LOG2 PUSH5 0x6970667358 0x22 SLT KECCAK256 RETURNDATASIZE 0xE7 STOP 0xE 0x4A 0xB0 0x5F 0xAD AND 0xC8 0xAB CALLDATASIZE 0xEA DUP13 PUSH19 0xAAEDFF4FFE7686449CDCAB92F5776D1F5B6473 PUSH16 0x6C634300080000330000000000000000 "
				},
				"gasEstimates": {
					"creation": {
						"codeDepositCost": "325000",
						"executionCost": "362",
						"totalCost": "325362"
					},
					"external": {
						"approveToken(address,uint256)": "infinite",
						"getDataTime()": "336",
						"send(address,uint256)": "infinite"
					}
				},
				"methodIdentifiers": {
					"approveToken(address,uint256)": "022fc88b",
					"getDataTime()": "2503c65c",
					"send(address,uint256)": "d0679d34"
				}
			},
			"storageLayout": {
				"storage": [],
				"types": null
			},
			"userdoc": {
				"kind": "user",
				"methods": {},
				"version": 1
			}
		}
	}
}