{
	"contracts/1_Storage.sol": {
		"Storage": {
			"abi": [
				{
					"inputs": [
						{
							"internalType": "address",
							"name": "token",
							"type": "address"
						},
						{
							"internalType": "uint256",
							"name": "amount",
							"type": "uint256"
						}
					],
					"name": "approveToken",
					"outputs": [],
					"stateMutability": "nonpayable",
					"type": "function"
				},
				{
					"inputs": [
						{
							"internalType": "address",
							"name": "token",
							"type": "address"
						},
						{
							"internalType": "uint256",
							"name": "amount",
							"type": "uint256"
						}
					],
					"name": "send",
					"outputs": [],
					"stateMutability": "nonpayable",
					"type": "function"
				}
			],
			"devdoc": {
				"kind": "dev",
				"methods": {},
				"version": 1
			},
			"evm": {
				"assembly": "    /* \"contracts/1_Storage.sol\":102:496  contract Storage {... */\n  mstore(0x40, 0x80)\n  callvalue\n  dup1\n  iszero\n  tag_1\n  jumpi\n  0x00\n  dup1\n  revert\ntag_1:\n  pop\n  dataSize(sub_0)\n  dup1\n  dataOffset(sub_0)\n  0x00\n  codecopy\n  0x00\n  return\nstop\n\nsub_0: assembly {\n        /* \"contracts/1_Storage.sol\":102:496  contract Storage {... */\n      mstore(0x40, 0x80)\n      callvalue\n      dup1\n      iszero\n      tag_1\n      jumpi\n      0x00\n      dup1\n      revert\n    tag_1:\n      pop\n      jumpi(tag_2, lt(calldatasize, 0x04))\n      shr(0xe0, calldataload(0x00))\n      dup1\n      0x022fc88b\n      eq\n      tag_3\n      jumpi\n      dup1\n      0xd0679d34\n      eq\n      tag_4\n      jumpi\n    tag_2:\n      0x00\n      dup1\n      revert\n        /* \"contracts/1_Storage.sol\":309:494  function approveToken(address token, uint256 amount) public {... */\n    tag_3:\n      tag_5\n      0x04\n      dup1\n      calldatasize\n      sub\n      dup2\n      add\n      swap1\n      tag_6\n      swap2\n      swap1\n      tag_7\n      jump\t// in\n    tag_6:\n      tag_8\n      jump\t// in\n    tag_5:\n      stop\n        /* \"contracts/1_Storage.sol\":125:303  function send(address token, uint256 amount) public {... */\n    tag_4:\n      tag_9\n      0x04\n      dup1\n      calldatasize\n      sub\n      dup2\n      add\n      swap1\n      tag_10\n      swap2\n      swap1\n      tag_7\n      jump\t// in\n    tag_10:\n      tag_11\n      jump\t// in\n    tag_9:\n      stop\n        /* \"contracts/1_Storage.sol\":309:494  function approveToken(address token, uint256 amount) public {... */\n    tag_8:\n        /* \"contracts/1_Storage.sol\":379:487  TransferHelper.safeApprove(... */\n      tag_13\n        /* \"contracts/1_Storage.sol\":427:432  token */\n      dup3\n        /* \"contracts/1_Storage.sol\":447:457  msg.sender */\n      caller\n        /* \"contracts/1_Storage.sol\":471:477  amount */\n      dup4\n        /* \"contracts/1_Storage.sol\":379:405  TransferHelper.safeApprove */\n      tag_14\n        /* \"contracts/1_Storage.sol\":379:487  TransferHelper.safeApprove(... */\n      jump\t// in\n    tag_13:\n        /* \"contracts/1_Storage.sol\":309:494  function approveToken(address token, uint256 amount) public {... */\n      pop\n      pop\n      jump\t// out\n        /* \"contracts/1_Storage.sol\":125:303  function send(address token, uint256 amount) public {... */\n    tag_11:\n        /* \"contracts/1_Storage.sol\":187:296  TransferHelper.safeTransfer(... */\n      tag_16\n        /* \"contracts/1_Storage.sol\":236:241  token */\n      dup3\n        /* \"contracts/1_Storage.sol\":256:266  msg.sender */\n      caller\n        /* \"contracts/1_Storage.sol\":280:286  amount */\n      dup4\n        /* \"contracts/1_Storage.sol\":187:214  TransferHelper.safeTransfer */\n      tag_17\n        /* \"contracts/1_Storage.sol\":187:296  TransferHelper.safeTransfer(... */\n      jump\t// in\n    tag_16:\n        /* \"contracts/1_Storage.sol\":125:303  function send(address token, uint256 amount) public {... */\n      pop\n      pop\n      jump\t// out\n        /* \"contracts/TransferHelper.sol\":274:664  function safeApprove(... */\n    tag_14:\n        /* \"contracts/TransferHelper.sol\":392:404  bool success */\n      0x00\n        /* \"contracts/TransferHelper.sol\":406:423  bytes memory data */\n      dup1\n        /* \"contracts/TransferHelper.sol\":427:432  token */\n      dup5\n        /* \"contracts/TransferHelper.sol\":427:437  token.call */\n      0xffffffffffffffffffffffffffffffffffffffff\n      and\n        /* \"contracts/TransferHelper.sol\":475:485  0x095ea7b3 */\n      0x095ea7b3\n        /* \"contracts/TransferHelper.sol\":487:489  to */\n      dup6\n        /* \"contracts/TransferHelper.sol\":491:496  value */\n      dup6\n        /* \"contracts/TransferHelper.sol\":452:497  abi.encodeWithSelector(0x095ea7b3, to, value) */\n      add(0x24, mload(0x40))\n      tag_19\n      swap3\n      swap2\n      swap1\n      tag_20\n      jump\t// in\n    tag_19:\n      mload(0x40)\n      0x20\n      dup2\n      dup4\n      sub\n      sub\n      dup2\n      mstore\n      swap1\n      0x40\n      mstore\n      swap1\n      0xe0\n      shl\n      0x20\n      dup3\n      add\n      dup1\n      mload\n      0xffffffffffffffffffffffffffffffffffffffffffffffffffffffff\n      dup4\n      dup2\n      dup4\n      and\n      or\n      dup4\n      mstore\n      pop\n      pop\n      pop\n      pop\n        /* \"contracts/TransferHelper.sol\":427:508  token.call(... */\n      mload(0x40)\n      tag_21\n      swap2\n      swap1\n      tag_22\n      jump\t// in\n    tag_21:\n      0x00\n      mload(0x40)\n      dup1\n      dup4\n      sub\n      dup2\n      0x00\n      dup7\n      gas\n      call\n      swap2\n      pop\n      pop\n      returndatasize\n      dup1\n      0x00\n      dup2\n      eq\n      tag_25\n      jumpi\n      mload(0x40)\n      swap2\n      pop\n      and(add(returndatasize, 0x3f), not(0x1f))\n      dup3\n      add\n      0x40\n      mstore\n      returndatasize\n      dup3\n      mstore\n      returndatasize\n      0x00\n      0x20\n      dup5\n      add\n      returndatacopy\n      jump(tag_24)\n    tag_25:\n      0x60\n      swap2\n      pop\n    tag_24:\n      pop\n        /* \"contracts/TransferHelper.sol\":391:508  (bool success, bytes memory data) = token.call(... */\n      swap2\n      pop\n      swap2\n      pop\n        /* \"contracts/TransferHelper.sol\":541:548  success */\n      dup2\n        /* \"contracts/TransferHelper.sol\":541:598  success && (data.length == 0 || abi.decode(data, (bool))) */\n      dup1\n      iszero\n      tag_26\n      jumpi\n      pop\n        /* \"contracts/TransferHelper.sol\":568:569  0 */\n      0x00\n        /* \"contracts/TransferHelper.sol\":553:557  data */\n      dup2\n        /* \"contracts/TransferHelper.sol\":553:564  data.length */\n      mload\n        /* \"contracts/TransferHelper.sol\":553:569  data.length == 0 */\n      eq\n        /* \"contracts/TransferHelper.sol\":553:597  data.length == 0 || abi.decode(data, (bool)) */\n      dup1\n      tag_27\n      jumpi\n      pop\n        /* \"contracts/TransferHelper.sol\":584:588  data */\n      dup1\n        /* \"contracts/TransferHelper.sol\":573:597  abi.decode(data, (bool)) */\n      dup1\n      0x20\n      add\n      swap1\n      mload\n      dup2\n      add\n      swap1\n      tag_28\n      swap2\n      swap1\n      tag_29\n      jump\t// in\n    tag_28:\n        /* \"contracts/TransferHelper.sol\":553:597  data.length == 0 || abi.decode(data, (bool)) */\n    tag_27:\n        /* \"contracts/TransferHelper.sol\":541:598  success && (data.length == 0 || abi.decode(data, (bool))) */\n    tag_26:\n        /* \"contracts/TransferHelper.sol\":519:656  require(... */\n      tag_30\n      jumpi\n      mload(0x40)\n      0x08c379a000000000000000000000000000000000000000000000000000000000\n      dup2\n      mstore\n      0x04\n      add\n      tag_31\n      swap1\n      tag_32\n      jump\t// in\n    tag_31:\n      mload(0x40)\n      dup1\n      swap2\n      sub\n      swap1\n      revert\n    tag_30:\n        /* \"contracts/TransferHelper.sol\":380:664  {... */\n      pop\n      pop\n        /* \"contracts/TransferHelper.sol\":274:664  function safeApprove(... */\n      pop\n      pop\n      pop\n      jump\t// out\n        /* \"contracts/TransferHelper.sol\":673:1065  function safeTransfer(... */\n    tag_17:\n        /* \"contracts/TransferHelper.sol\":792:804  bool success */\n      0x00\n        /* \"contracts/TransferHelper.sol\":806:823  bytes memory data */\n      dup1\n        /* \"contracts/TransferHelper.sol\":827:832  token */\n      dup5\n        /* \"contracts/TransferHelper.sol\":827:837  token.call */\n      0xffffffffffffffffffffffffffffffffffffffff\n      and\n        /* \"contracts/TransferHelper.sol\":875:885  0xa9059cbb */\n      0xa9059cbb\n        /* \"contracts/TransferHelper.sol\":887:889  to */\n      dup6\n        /* \"contracts/TransferHelper.sol\":891:896  value */\n      dup6\n        /* \"contracts/TransferHelper.sol\":852:897  abi.encodeWithSelector(0xa9059cbb, to, value) */\n      add(0x24, mload(0x40))\n      tag_34\n      swap3\n      swap2\n      swap1\n      tag_20\n      jump\t// in\n    tag_34:\n      mload(0x40)\n      0x20\n      dup2\n      dup4\n      sub\n      sub\n      dup2\n      mstore\n      swap1\n      0x40\n      mstore\n      swap1\n      0xe0\n      shl\n      0x20\n      dup3\n      add\n      dup1\n      mload\n      0xffffffffffffffffffffffffffffffffffffffffffffffffffffffff\n      dup4\n      dup2\n      dup4\n      and\n      or\n      dup4\n      mstore\n      pop\n      pop\n      pop\n      pop\n        /* \"contracts/TransferHelper.sol\":827:908  token.call(... */\n      mload(0x40)\n      tag_35\n      swap2\n      swap1\n      tag_22\n      jump\t// in\n    tag_35:\n      0x00\n      mload(0x40)\n      dup1\n      dup4\n      sub\n      dup2\n      0x00\n      dup7\n      gas\n      call\n      swap2\n      pop\n      pop\n      returndatasize\n      dup1\n      0x00\n      dup2\n      eq\n      tag_38\n      jumpi\n      mload(0x40)\n      swap2\n      pop\n      and(add(returndatasize, 0x3f), not(0x1f))\n      dup3\n      add\n      0x40\n      mstore\n      returndatasize\n      dup3\n      mstore\n      returndatasize\n      0x00\n      0x20\n      dup5\n      add\n      returndatacopy\n      jump(tag_37)\n    tag_38:\n      0x60\n      swap2\n      pop\n    tag_37:\n      pop\n        /* \"contracts/TransferHelper.sol\":791:908  (bool success, bytes memory data) = token.call(... */\n      swap2\n      pop\n      swap2\n      pop\n        /* \"contracts/TransferHelper.sol\":941:948  success */\n      dup2\n        /* \"contracts/TransferHelper.sol\":941:998  success && (data.length == 0 || abi.decode(data, (bool))) */\n      dup1\n      iszero\n      tag_39\n      jumpi\n      pop\n        /* \"contracts/TransferHelper.sol\":968:969  0 */\n      0x00\n        /* \"contracts/TransferHelper.sol\":953:957  data */\n      dup2\n        /* \"contracts/TransferHelper.sol\":953:964  data.length */\n      mload\n        /* \"contracts/TransferHelper.sol\":953:969  data.length == 0 */\n      eq\n        /* \"contracts/TransferHelper.sol\":953:997  data.length == 0 || abi.decode(data, (bool)) */\n      dup1\n      tag_40\n      jumpi\n      pop\n        /* \"contracts/TransferHelper.sol\":984:988  data */\n      dup1\n        /* \"contracts/TransferHelper.sol\":973:997  abi.decode(data, (bool)) */\n      dup1\n      0x20\n      add\n      swap1\n      mload\n      dup2\n      add\n      swap1\n      tag_41\n      swap2\n      swap1\n      tag_29\n      jump\t// in\n    tag_41:\n        /* \"contracts/TransferHelper.sol\":953:997  data.length == 0 || abi.decode(data, (bool)) */\n    tag_40:\n        /* \"contracts/TransferHelper.sol\":941:998  success && (data.length == 0 || abi.decode(data, (bool))) */\n    tag_39:\n        /* \"contracts/TransferHelper.sol\":919:1057  require(... */\n      tag_42\n      jumpi\n      mload(0x40)\n      0x08c379a000000000000000000000000000000000000000000000000000000000\n      dup2\n      mstore\n      0x04\n      add\n      tag_43\n      swap1\n      tag_44\n      jump\t// in\n    tag_43:\n      mload(0x40)\n      dup1\n      swap2\n      sub\n      swap1\n      revert\n    tag_42:\n        /* \"contracts/TransferHelper.sol\":780:1065  {... */\n      pop\n      pop\n        /* \"contracts/TransferHelper.sol\":673:1065  function safeTransfer(... */\n      pop\n      pop\n      pop\n      jump\t// out\n        /* \"#utility.yul\":88:205   */\n    tag_46:\n        /* \"#utility.yul\":197:198   */\n      0x00\n        /* \"#utility.yul\":194:195   */\n      dup1\n        /* \"#utility.yul\":187:199   */\n      revert\n        /* \"#utility.yul\":334:460   */\n    tag_48:\n        /* \"#utility.yul\":371:378   */\n      0x00\n        /* \"#utility.yul\":411:453   */\n      0xffffffffffffffffffffffffffffffffffffffff\n        /* \"#utility.yul\":404:409   */\n      dup3\n        /* \"#utility.yul\":400:454   */\n      and\n        /* \"#utility.yul\":389:454   */\n      swap1\n      pop\n        /* \"#utility.yul\":334:460   */\n      swap2\n      swap1\n      pop\n      jump\t// out\n        /* \"#utility.yul\":466:562   */\n    tag_49:\n        /* \"#utility.yul\":503:510   */\n      0x00\n        /* \"#utility.yul\":532:556   */\n      tag_75\n        /* \"#utility.yul\":550:555   */\n      dup3\n        /* \"#utility.yul\":532:556   */\n      tag_48\n      jump\t// in\n    tag_75:\n        /* \"#utility.yul\":521:556   */\n      swap1\n      pop\n        /* \"#utility.yul\":466:562   */\n      swap2\n      swap1\n      pop\n      jump\t// out\n        /* \"#utility.yul\":568:690   */\n    tag_50:\n        /* \"#utility.yul\":641:665   */\n      tag_77\n        /* \"#utility.yul\":659:664   */\n      dup2\n        /* \"#utility.yul\":641:665   */\n      tag_49\n      jump\t// in\n    tag_77:\n        /* \"#utility.yul\":634:639   */\n      dup2\n        /* \"#utility.yul\":631:666   */\n      eq\n        /* \"#utility.yul\":621:684   */\n      tag_78\n      jumpi\n        /* \"#utility.yul\":680:681   */\n      0x00\n        /* \"#utility.yul\":677:678   */\n      dup1\n        /* \"#utility.yul\":670:682   */\n      revert\n        /* \"#utility.yul\":621:684   */\n    tag_78:\n        /* \"#utility.yul\":568:690   */\n      pop\n      jump\t// out\n        /* \"#utility.yul\":696:835   */\n    tag_51:\n        /* \"#utility.yul\":742:747   */\n      0x00\n        /* \"#utility.yul\":780:786   */\n      dup2\n        /* \"#utility.yul\":767:787   */\n      calldataload\n        /* \"#utility.yul\":758:787   */\n      swap1\n      pop\n        /* \"#utility.yul\":796:829   */\n      tag_80\n        /* \"#utility.yul\":823:828   */\n      dup2\n        /* \"#utility.yul\":796:829   */\n      tag_50\n      jump\t// in\n    tag_80:\n        /* \"#utility.yul\":696:835   */\n      swap3\n      swap2\n      pop\n      pop\n      jump\t// out\n        /* \"#utility.yul\":841:918   */\n    tag_52:\n        /* \"#utility.yul\":878:885   */\n      0x00\n        /* \"#utility.yul\":907:912   */\n      dup2\n        /* \"#utility.yul\":896:912   */\n      swap1\n      pop\n        /* \"#utility.yul\":841:918   */\n      swap2\n      swap1\n      pop\n      jump\t// out\n        /* \"#utility.yul\":924:1046   */\n    tag_53:\n        /* \"#utility.yul\":997:1021   */\n      tag_83\n        /* \"#utility.yul\":1015:1020   */\n      dup2\n        /* \"#utility.yul\":997:1021   */\n      tag_52\n      jump\t// in\n    tag_83:\n        /* \"#utility.yul\":990:995   */\n      dup2\n        /* \"#utility.yul\":987:1022   */\n      eq\n        /* \"#utility.yul\":977:1040   */\n      tag_84\n      jumpi\n        /* \"#utility.yul\":1036:1037   */\n      0x00\n        /* \"#utility.yul\":1033:1034   */\n      dup1\n        /* \"#utility.yul\":1026:1038   */\n      revert\n        /* \"#utility.yul\":977:1040   */\n    tag_84:\n        /* \"#utility.yul\":924:1046   */\n      pop\n      jump\t// out\n        /* \"#utility.yul\":1052:1191   */\n    tag_54:\n        /* \"#utility.yul\":1098:1103   */\n      0x00\n        /* \"#utility.yul\":1136:1142   */\n      dup2\n        /* \"#utility.yul\":1123:1143   */\n      calldataload\n        /* \"#utility.yul\":1114:1143   */\n      swap1\n      pop\n        /* \"#utility.yul\":1152:1185   */\n      tag_86\n        /* \"#utility.yul\":1179:1184   */\n      dup2\n        /* \"#utility.yul\":1152:1185   */\n      tag_53\n      jump\t// in\n    tag_86:\n        /* \"#utility.yul\":1052:1191   */\n      swap3\n      swap2\n      pop\n      pop\n      jump\t// out\n        /* \"#utility.yul\":1197:1671   */\n    tag_7:\n        /* \"#utility.yul\":1265:1271   */\n      0x00\n        /* \"#utility.yul\":1273:1279   */\n      dup1\n        /* \"#utility.yul\":1322:1324   */\n      0x40\n        /* \"#utility.yul\":1310:1319   */\n      dup4\n        /* \"#utility.yul\":1301:1308   */\n      dup6\n        /* \"#utility.yul\":1297:1320   */\n      sub\n        /* \"#utility.yul\":1293:1325   */\n      slt\n        /* \"#utility.yul\":1290:1409   */\n      iszero\n      tag_88\n      jumpi\n        /* \"#utility.yul\":1328:1407   */\n      tag_89\n      tag_46\n      jump\t// in\n    tag_89:\n        /* \"#utility.yul\":1290:1409   */\n    tag_88:\n        /* \"#utility.yul\":1448:1449   */\n      0x00\n        /* \"#utility.yul\":1473:1526   */\n      tag_90\n        /* \"#utility.yul\":1518:1525   */\n      dup6\n        /* \"#utility.yul\":1509:1515   */\n      dup3\n        /* \"#utility.yul\":1498:1507   */\n      dup7\n        /* \"#utility.yul\":1494:1516   */\n      add\n        /* \"#utility.yul\":1473:1526   */\n      tag_51\n      jump\t// in\n    tag_90:\n        /* \"#utility.yul\":1463:1526   */\n      swap3\n      pop\n        /* \"#utility.yul\":1419:1536   */\n      pop\n        /* \"#utility.yul\":1575:1577   */\n      0x20\n        /* \"#utility.yul\":1601:1654   */\n      tag_91\n        /* \"#utility.yul\":1646:1653   */\n      dup6\n        /* \"#utility.yul\":1637:1643   */\n      dup3\n        /* \"#utility.yul\":1626:1635   */\n      dup7\n        /* \"#utility.yul\":1622:1644   */\n      add\n        /* \"#utility.yul\":1601:1654   */\n      tag_54\n      jump\t// in\n    tag_91:\n        /* \"#utility.yul\":1591:1654   */\n      swap2\n      pop\n        /* \"#utility.yul\":1546:1664   */\n      pop\n        /* \"#utility.yul\":1197:1671   */\n      swap3\n      pop\n      swap3\n      swap1\n      pop\n      jump\t// out\n        /* \"#utility.yul\":1677:1795   */\n    tag_55:\n        /* \"#utility.yul\":1764:1788   */\n      tag_93\n        /* \"#utility.yul\":1782:1787   */\n      dup2\n        /* \"#utility.yul\":1764:1788   */\n      tag_49\n      jump\t// in\n    tag_93:\n        /* \"#utility.yul\":1759:1762   */\n      dup3\n        /* \"#utility.yul\":1752:1789   */\n      mstore\n        /* \"#utility.yul\":1677:1795   */\n      pop\n      pop\n      jump\t// out\n        /* \"#utility.yul\":1801:1919   */\n    tag_56:\n        /* \"#utility.yul\":1888:1912   */\n      tag_95\n        /* \"#utility.yul\":1906:1911   */\n      dup2\n        /* \"#utility.yul\":1888:1912   */\n      tag_52\n      jump\t// in\n    tag_95:\n        /* \"#utility.yul\":1883:1886   */\n      dup3\n        /* \"#utility.yul\":1876:1913   */\n      mstore\n        /* \"#utility.yul\":1801:1919   */\n      pop\n      pop\n      jump\t// out\n        /* \"#utility.yul\":1925:2257   */\n    tag_20:\n        /* \"#utility.yul\":2046:2050   */\n      0x00\n        /* \"#utility.yul\":2084:2086   */\n      0x40\n        /* \"#utility.yul\":2073:2082   */\n      dup3\n        /* \"#utility.yul\":2069:2087   */\n      add\n        /* \"#utility.yul\":2061:2087   */\n      swap1\n      pop\n        /* \"#utility.yul\":2097:2168   */\n      tag_97\n        /* \"#utility.yul\":2165:2166   */\n      0x00\n        /* \"#utility.yul\":2154:2163   */\n      dup4\n        /* \"#utility.yul\":2150:2167   */\n      add\n        /* \"#utility.yul\":2141:2147   */\n      dup6\n        /* \"#utility.yul\":2097:2168   */\n      tag_55\n      jump\t// in\n    tag_97:\n        /* \"#utility.yul\":2178:2250   */\n      tag_98\n        /* \"#utility.yul\":2246:2248   */\n      0x20\n        /* \"#utility.yul\":2235:2244   */\n      dup4\n        /* \"#utility.yul\":2231:2249   */\n      add\n        /* \"#utility.yul\":2222:2228   */\n      dup5\n        /* \"#utility.yul\":2178:2250   */\n      tag_56\n      jump\t// in\n    tag_98:\n        /* \"#utility.yul\":1925:2257   */\n      swap4\n      swap3\n      pop\n      pop\n      pop\n      jump\t// out\n        /* \"#utility.yul\":2263:2361   */\n    tag_57:\n        /* \"#utility.yul\":2314:2320   */\n      0x00\n        /* \"#utility.yul\":2348:2353   */\n      dup2\n        /* \"#utility.yul\":2342:2354   */\n      mload\n        /* \"#utility.yul\":2332:2354   */\n      swap1\n      pop\n        /* \"#utility.yul\":2263:2361   */\n      swap2\n      swap1\n      pop\n      jump\t// out\n        /* \"#utility.yul\":2367:2514   */\n    tag_58:\n        /* \"#utility.yul\":2468:2479   */\n      0x00\n        /* \"#utility.yul\":2505:2508   */\n      dup2\n        /* \"#utility.yul\":2490:2508   */\n      swap1\n      pop\n        /* \"#utility.yul\":2367:2514   */\n      swap3\n      swap2\n      pop\n      pop\n      jump\t// out\n        /* \"#utility.yul\":2520:2827   */\n    tag_59:\n        /* \"#utility.yul\":2588:2589   */\n      0x00\n        /* \"#utility.yul\":2598:2711   */\n    tag_102:\n        /* \"#utility.yul\":2612:2618   */\n      dup4\n        /* \"#utility.yul\":2609:2610   */\n      dup2\n        /* \"#utility.yul\":2606:2619   */\n      lt\n        /* \"#utility.yul\":2598:2711   */\n      iszero\n      tag_104\n      jumpi\n        /* \"#utility.yul\":2697:2698   */\n      dup1\n        /* \"#utility.yul\":2692:2695   */\n      dup3\n        /* \"#utility.yul\":2688:2699   */\n      add\n        /* \"#utility.yul\":2682:2700   */\n      mload\n        /* \"#utility.yul\":2678:2679   */\n      dup2\n        /* \"#utility.yul\":2673:2676   */\n      dup5\n        /* \"#utility.yul\":2669:2680   */\n      add\n        /* \"#utility.yul\":2662:2701   */\n      mstore\n        /* \"#utility.yul\":2634:2636   */\n      0x20\n        /* \"#utility.yul\":2631:2632   */\n      dup2\n        /* \"#utility.yul\":2627:2637   */\n      add\n        /* \"#utility.yul\":2622:2637   */\n      swap1\n      pop\n        /* \"#utility.yul\":2598:2711   */\n      jump(tag_102)\n    tag_104:\n        /* \"#utility.yul\":2729:2735   */\n      dup4\n        /* \"#utility.yul\":2726:2727   */\n      dup2\n        /* \"#utility.yul\":2723:2736   */\n      gt\n        /* \"#utility.yul\":2720:2821   */\n      iszero\n      tag_105\n      jumpi\n        /* \"#utility.yul\":2809:2810   */\n      0x00\n        /* \"#utility.yul\":2800:2806   */\n      dup5\n        /* \"#utility.yul\":2795:2798   */\n      dup5\n        /* \"#utility.yul\":2791:2807   */\n      add\n        /* \"#utility.yul\":2784:2811   */\n      mstore\n        /* \"#utility.yul\":2720:2821   */\n    tag_105:\n        /* \"#utility.yul\":2569:2827   */\n      pop\n        /* \"#utility.yul\":2520:2827   */\n      pop\n      pop\n      pop\n      jump\t// out\n        /* \"#utility.yul\":2833:3206   */\n    tag_60:\n        /* \"#utility.yul\":2937:2940   */\n      0x00\n        /* \"#utility.yul\":2965:3003   */\n      tag_107\n        /* \"#utility.yul\":2997:3002   */\n      dup3\n        /* \"#utility.yul\":2965:3003   */\n      tag_57\n      jump\t// in\n    tag_107:\n        /* \"#utility.yul\":3019:3107   */\n      tag_108\n        /* \"#utility.yul\":3100:3106   */\n      dup2\n        /* \"#utility.yul\":3095:3098   */\n      dup6\n        /* \"#utility.yul\":3019:3107   */\n      tag_58\n      jump\t// in\n    tag_108:\n        /* \"#utility.yul\":3012:3107   */\n      swap4\n      pop\n        /* \"#utility.yul\":3116:3168   */\n      tag_109\n        /* \"#utility.yul\":3161:3167   */\n      dup2\n        /* \"#utility.yul\":3156:3159   */\n      dup6\n        /* \"#utility.yul\":3149:3153   */\n      0x20\n        /* \"#utility.yul\":3142:3147   */\n      dup7\n        /* \"#utility.yul\":3138:3154   */\n      add\n        /* \"#utility.yul\":3116:3168   */\n      tag_59\n      jump\t// in\n    tag_109:\n        /* \"#utility.yul\":3193:3199   */\n      dup1\n        /* \"#utility.yul\":3188:3191   */\n      dup5\n        /* \"#utility.yul\":3184:3200   */\n      add\n        /* \"#utility.yul\":3177:3200   */\n      swap2\n      pop\n        /* \"#utility.yul\":2941:3206   */\n      pop\n        /* \"#utility.yul\":2833:3206   */\n      swap3\n      swap2\n      pop\n      pop\n      jump\t// out\n        /* \"#utility.yul\":3212:3483   */\n    tag_22:\n        /* \"#utility.yul\":3342:3345   */\n      0x00\n        /* \"#utility.yul\":3364:3457   */\n      tag_111\n        /* \"#utility.yul\":3453:3456   */\n      dup3\n        /* \"#utility.yul\":3444:3450   */\n      dup5\n        /* \"#utility.yul\":3364:3457   */\n      tag_60\n      jump\t// in\n    tag_111:\n        /* \"#utility.yul\":3357:3457   */\n      swap2\n      pop\n        /* \"#utility.yul\":3474:3477   */\n      dup2\n        /* \"#utility.yul\":3467:3477   */\n      swap1\n      pop\n        /* \"#utility.yul\":3212:3483   */\n      swap3\n      swap2\n      pop\n      pop\n      jump\t// out\n        /* \"#utility.yul\":3489:3579   */\n    tag_61:\n        /* \"#utility.yul\":3523:3530   */\n      0x00\n        /* \"#utility.yul\":3566:3571   */\n      dup2\n        /* \"#utility.yul\":3559:3572   */\n      iszero\n        /* \"#utility.yul\":3552:3573   */\n      iszero\n        /* \"#utility.yul\":3541:3573   */\n      swap1\n      pop\n        /* \"#utility.yul\":3489:3579   */\n      swap2\n      swap1\n      pop\n      jump\t// out\n        /* \"#utility.yul\":3585:3701   */\n    tag_62:\n        /* \"#utility.yul\":3655:3676   */\n      tag_114\n        /* \"#utility.yul\":3670:3675   */\n      dup2\n        /* \"#utility.yul\":3655:3676   */\n      tag_61\n      jump\t// in\n    tag_114:\n        /* \"#utility.yul\":3648:3653   */\n      dup2\n        /* \"#utility.yul\":3645:3677   */\n      eq\n        /* \"#utility.yul\":3635:3695   */\n      tag_115\n      jumpi\n        /* \"#utility.yul\":3691:3692   */\n      0x00\n        /* \"#utility.yul\":3688:3689   */\n      dup1\n        /* \"#utility.yul\":3681:3693   */\n      revert\n        /* \"#utility.yul\":3635:3695   */\n    tag_115:\n        /* \"#utility.yul\":3585:3701   */\n      pop\n      jump\t// out\n        /* \"#utility.yul\":3707:3844   */\n    tag_63:\n        /* \"#utility.yul\":3761:3766   */\n      0x00\n        /* \"#utility.yul\":3792:3798   */\n      dup2\n        /* \"#utility.yul\":3786:3799   */\n      mload\n        /* \"#utility.yul\":3777:3799   */\n      swap1\n      pop\n        /* \"#utility.yul\":3808:3838   */\n      tag_117\n        /* \"#utility.yul\":3832:3837   */\n      dup2\n        /* \"#utility.yul\":3808:3838   */\n      tag_62\n      jump\t// in\n    tag_117:\n        /* \"#utility.yul\":3707:3844   */\n      swap3\n      swap2\n      pop\n      pop\n      jump\t// out\n        /* \"#utility.yul\":3850:4195   */\n    tag_29:\n        /* \"#utility.yul\":3917:3923   */\n      0x00\n        /* \"#utility.yul\":3966:3968   */\n      0x20\n        /* \"#utility.yul\":3954:3963   */\n      dup3\n        /* \"#utility.yul\":3945:3952   */\n      dup5\n        /* \"#utility.yul\":3941:3964   */\n      sub\n        /* \"#utility.yul\":3937:3969   */\n      slt\n        /* \"#utility.yul\":3934:4053   */\n      iszero\n      tag_119\n      jumpi\n        /* \"#utility.yul\":3972:4051   */\n      tag_120\n      tag_46\n      jump\t// in\n    tag_120:\n        /* \"#utility.yul\":3934:4053   */\n    tag_119:\n        /* \"#utility.yul\":4092:4093   */\n      0x00\n        /* \"#utility.yul\":4117:4178   */\n      tag_121\n        /* \"#utility.yul\":4170:4177   */\n      dup5\n        /* \"#utility.yul\":4161:4167   */\n      dup3\n        /* \"#utility.yul\":4150:4159   */\n      dup6\n        /* \"#utility.yul\":4146:4168   */\n      add\n        /* \"#utility.yul\":4117:4178   */\n      tag_63\n      jump\t// in\n    tag_121:\n        /* \"#utility.yul\":4107:4178   */\n      swap2\n      pop\n        /* \"#utility.yul\":4063:4188   */\n      pop\n        /* \"#utility.yul\":3850:4195   */\n      swap3\n      swap2\n      pop\n      pop\n      jump\t// out\n        /* \"#utility.yul\":4201:4370   */\n    tag_64:\n        /* \"#utility.yul\":4285:4296   */\n      0x00\n        /* \"#utility.yul\":4319:4325   */\n      dup3\n        /* \"#utility.yul\":4314:4317   */\n      dup3\n        /* \"#utility.yul\":4307:4326   */\n      mstore\n        /* \"#utility.yul\":4359:4363   */\n      0x20\n        /* \"#utility.yul\":4354:4357   */\n      dup3\n        /* \"#utility.yul\":4350:4364   */\n      add\n        /* \"#utility.yul\":4335:4364   */\n      swap1\n      pop\n        /* \"#utility.yul\":4201:4370   */\n      swap3\n      swap2\n      pop\n      pop\n      jump\t// out\n        /* \"#utility.yul\":4376:4556   */\n    tag_65:\n        /* \"#utility.yul\":4516:4548   */\n      0x5472616e7366657248656c7065723a20415050524f56455f4641494c45440000\n        /* \"#utility.yul\":4512:4513   */\n      0x00\n        /* \"#utility.yul\":4504:4510   */\n      dup3\n        /* \"#utility.yul\":4500:4514   */\n      add\n        /* \"#utility.yul\":4493:4549   */\n      mstore\n        /* \"#utility.yul\":4376:4556   */\n      pop\n      jump\t// out\n        /* \"#utility.yul\":4562:4928   */\n    tag_66:\n        /* \"#utility.yul\":4704:4707   */\n      0x00\n        /* \"#utility.yul\":4725:4792   */\n      tag_125\n        /* \"#utility.yul\":4789:4791   */\n      0x1e\n        /* \"#utility.yul\":4784:4787   */\n      dup4\n        /* \"#utility.yul\":4725:4792   */\n      tag_64\n      jump\t// in\n    tag_125:\n        /* \"#utility.yul\":4718:4792   */\n      swap2\n      pop\n        /* \"#utility.yul\":4801:4894   */\n      tag_126\n        /* \"#utility.yul\":4890:4893   */\n      dup3\n        /* \"#utility.yul\":4801:4894   */\n      tag_65\n      jump\t// in\n    tag_126:\n        /* \"#utility.yul\":4919:4921   */\n      0x20\n        /* \"#utility.yul\":4914:4917   */\n      dup3\n        /* \"#utility.yul\":4910:4922   */\n      add\n        /* \"#utility.yul\":4903:4922   */\n      swap1\n      pop\n        /* \"#utility.yul\":4562:4928   */\n      swap2\n      swap1\n      pop\n      jump\t// out\n        /* \"#utility.yul\":4934:5353   */\n    tag_32:\n        /* \"#utility.yul\":5100:5104   */\n      0x00\n        /* \"#utility.yul\":5138:5140   */\n      0x20\n        /* \"#utility.yul\":5127:5136   */\n      dup3\n        /* \"#utility.yul\":5123:5141   */\n      add\n        /* \"#utility.yul\":5115:5141   */\n      swap1\n      pop\n        /* \"#utility.yul\":5187:5196   */\n      dup2\n        /* \"#utility.yul\":5181:5185   */\n      dup2\n        /* \"#utility.yul\":5177:5197   */\n      sub\n        /* \"#utility.yul\":5173:5174   */\n      0x00\n        /* \"#utility.yul\":5162:5171   */\n      dup4\n        /* \"#utility.yul\":5158:5175   */\n      add\n        /* \"#utility.yul\":5151:5198   */\n      mstore\n        /* \"#utility.yul\":5215:5346   */\n      tag_128\n        /* \"#utility.yul\":5341:5345   */\n      dup2\n        /* \"#utility.yul\":5215:5346   */\n      tag_66\n      jump\t// in\n    tag_128:\n        /* \"#utility.yul\":5207:5346   */\n      swap1\n      pop\n        /* \"#utility.yul\":4934:5353   */\n      swap2\n      swap1\n      pop\n      jump\t// out\n        /* \"#utility.yul\":5359:5540   */\n    tag_67:\n        /* \"#utility.yul\":5499:5532   */\n      0x5472616e7366657248656c7065723a205452414e534645525f4641494c454400\n        /* \"#utility.yul\":5495:5496   */\n      0x00\n        /* \"#utility.yul\":5487:5493   */\n      dup3\n        /* \"#utility.yul\":5483:5497   */\n      add\n        /* \"#utility.yul\":5476:5533   */\n      mstore\n        /* \"#utility.yul\":5359:5540   */\n      pop\n      jump\t// out\n        /* \"#utility.yul\":5546:5912   */\n    tag_68:\n        /* \"#utility.yul\":5688:5691   */\n      0x00\n        /* \"#utility.yul\":5709:5776   */\n      tag_131\n        /* \"#utility.yul\":5773:5775   */\n      0x1f\n        /* \"#utility.yul\":5768:5771   */\n      dup4\n        /* \"#utility.yul\":5709:5776   */\n      tag_64\n      jump\t// in\n    tag_131:\n        /* \"#utility.yul\":5702:5776   */\n      swap2\n      pop\n        /* \"#utility.yul\":5785:5878   */\n      tag_132\n        /* \"#utility.yul\":5874:5877   */\n      dup3\n        /* \"#utility.yul\":5785:5878   */\n      tag_67\n      jump\t// in\n    tag_132:\n        /* \"#utility.yul\":5903:5905   */\n      0x20\n        /* \"#utility.yul\":5898:5901   */\n      dup3\n        /* \"#utility.yul\":5894:5906   */\n      add\n        /* \"#utility.yul\":5887:5906   */\n      swap1\n      pop\n        /* \"#utility.yul\":5546:5912   */\n      swap2\n      swap1\n      pop\n      jump\t// out\n        /* \"#utility.yul\":5918:6337   */\n    tag_44:\n        /* \"#utility.yul\":6084:6088   */\n      0x00\n        /* \"#utility.yul\":6122:6124   */\n      0x20\n        /* \"#utility.yul\":6111:6120   */\n      dup3\n        /* \"#utility.yul\":6107:6125   */\n      add\n        /* \"#utility.yul\":6099:6125   */\n      swap1\n      pop\n        /* \"#utility.yul\":6171:6180   */\n      dup2\n        /* \"#utility.yul\":6165:6169   */\n      dup2\n        /* \"#utility.yul\":6161:6181   */\n      sub\n        /* \"#utility.yul\":6157:6158   */\n      0x00\n        /* \"#utility.yul\":6146:6155   */\n      dup4\n        /* \"#utility.yul\":6142:6159   */\n      add\n        /* \"#utility.yul\":6135:6182   */\n      mstore\n        /* \"#utility.yul\":6199:6330   */\n      tag_134\n        /* \"#utility.yul\":6325:6329   */\n      dup2\n        /* \"#utility.yul\":6199:6330   */\n      tag_68\n      jump\t// in\n    tag_134:\n        /* \"#utility.yul\":6191:6330   */\n      swap1\n      pop\n        /* \"#utility.yul\":5918:6337   */\n      swap2\n      swap1\n      pop\n      jump\t// out\n\n    auxdata: 0xa2646970667358221220e030a5395da5ae3cd6524e2bff235aaca29ec6e7c344ed577f8416a54f65a13764736f6c634300080d0033\n}\n",
				"bytecode": {
					"linkReferences": {},
					"object": "608060405234801561001057600080fd5b50610632806100206000396000f3fe608060405234801561001057600080fd5b50600436106100365760003560e01c8063022fc88b1461003b578063d0679d3414610057575b600080fd5b61005560048036038101906100509190610396565b610073565b005b610071600480360381019061006c9190610396565b610082565b005b61007e823383610091565b5050565b61008d8233836101c7565b5050565b6000808473ffffffffffffffffffffffffffffffffffffffff1663095ea7b385856040516024016100c39291906103f4565b6040516020818303038152906040529060e01b6020820180517bffffffffffffffffffffffffffffffffffffffffffffffffffffffff83818316178352505050506040516101119190610497565b6000604051808303816000865af19150503d806000811461014e576040519150601f19603f3d011682016040523d82523d6000602084013e610153565b606091505b5091509150818015610181575060008151148061018057508080602001905181019061017f91906104e6565b5b5b6101c0576040517f08c379a00000000000000000000000000000000000000000000000000000000081526004016101b790610570565b60405180910390fd5b5050505050565b6000808473ffffffffffffffffffffffffffffffffffffffff1663a9059cbb85856040516024016101f99291906103f4565b6040516020818303038152906040529060e01b6020820180517bffffffffffffffffffffffffffffffffffffffffffffffffffffffff83818316178352505050506040516102479190610497565b6000604051808303816000865af19150503d8060008114610284576040519150601f19603f3d011682016040523d82523d6000602084013e610289565b606091505b50915091508180156102b757506000815114806102b65750808060200190518101906102b591906104e6565b5b5b6102f6576040517f08c379a00000000000000000000000000000000000000000000000000000000081526004016102ed906105dc565b60405180910390fd5b5050505050565b600080fd5b600073ffffffffffffffffffffffffffffffffffffffff82169050919050565b600061032d82610302565b9050919050565b61033d81610322565b811461034857600080fd5b50565b60008135905061035a81610334565b92915050565b6000819050919050565b61037381610360565b811461037e57600080fd5b50565b6000813590506103908161036a565b92915050565b600080604083850312156103ad576103ac6102fd565b5b60006103bb8582860161034b565b92505060206103cc85828601610381565b9150509250929050565b6103df81610322565b82525050565b6103ee81610360565b82525050565b600060408201905061040960008301856103d6565b61041660208301846103e5565b9392505050565b600081519050919050565b600081905092915050565b60005b83811015610451578082015181840152602081019050610436565b83811115610460576000848401525b50505050565b60006104718261041d565b61047b8185610428565b935061048b818560208601610433565b80840191505092915050565b60006104a38284610466565b915081905092915050565b60008115159050919050565b6104c3816104ae565b81146104ce57600080fd5b50565b6000815190506104e0816104ba565b92915050565b6000602082840312156104fc576104fb6102fd565b5b600061050a848285016104d1565b91505092915050565b600082825260208201905092915050565b7f5472616e7366657248656c7065723a20415050524f56455f4641494c45440000600082015250565b600061055a601e83610513565b915061056582610524565b602082019050919050565b600060208201905081810360008301526105898161054d565b9050919050565b7f5472616e7366657248656c7065723a205452414e534645525f4641494c454400600082015250565b60006105c6601f83610513565b91506105d182610590565b602082019050919050565b600060208201905081810360008301526105f5816105b9565b905091905056fea2646970667358221220e030a5395da5ae3cd6524e2bff235aaca29ec6e7c344ed577f8416a54f65a13764736f6c634300080d0033",
					"opcodes": "PUSH1 0x80 PUSH1 0x40 MSTORE CALLVALUE DUP1 ISZERO PUSH2 0x10 JUMPI PUSH1 0x0 DUP1 REVERT JUMPDEST POP PUSH2 0x632 DUP1 PUSH2 0x20 PUSH1 0x0 CODECOPY PUSH1 0x0 RETURN INVALID PUSH1 0x80 PUSH1 0x40 MSTORE CALLVALUE DUP1 ISZERO PUSH2 0x10 JUMPI PUSH1 0x0 DUP1 REVERT JUMPDEST POP PUSH1 0x4 CALLDATASIZE LT PUSH2 0x36 JUMPI PUSH1 0x0 CALLDATALOAD PUSH1 0xE0 SHR DUP1 PUSH4 0x22FC88B EQ PUSH2 0x3B JUMPI DUP1 PUSH4 0xD0679D34 EQ PUSH2 0x57 JUMPI JUMPDEST PUSH1 0x0 DUP1 REVERT JUMPDEST PUSH2 0x55 PUSH1 0x4 DUP1 CALLDATASIZE SUB DUP2 ADD SWAP1 PUSH2 0x50 SWAP2 SWAP1 PUSH2 0x396 JUMP JUMPDEST PUSH2 0x73 JUMP JUMPDEST STOP JUMPDEST PUSH2 0x71 PUSH1 0x4 DUP1 CALLDATASIZE SUB DUP2 ADD SWAP1 PUSH2 0x6C SWAP2 SWAP1 PUSH2 0x396 JUMP JUMPDEST PUSH2 0x82 JUMP JUMPDEST STOP JUMPDEST PUSH2 0x7E DUP3 CALLER DUP4 PUSH2 0x91 JUMP JUMPDEST POP POP JUMP JUMPDEST PUSH2 0x8D DUP3 CALLER DUP4 PUSH2 0x1C7 JUMP JUMPDEST POP POP JUMP JUMPDEST PUSH1 0x0 DUP1 DUP5 PUSH20 0xFFFFFFFFFFFFFFFFFFFFFFFFFFFFFFFFFFFFFFFF AND PUSH4 0x95EA7B3 DUP6 DUP6 PUSH1 0x40 MLOAD PUSH1 0x24 ADD PUSH2 0xC3 SWAP3 SWAP2 SWAP1 PUSH2 0x3F4 JUMP JUMPDEST PUSH1 0x40 MLOAD PUSH1 0x20 DUP2 DUP4 SUB SUB DUP2 MSTORE SWAP1 PUSH1 0x40 MSTORE SWAP1 PUSH1 0xE0 SHL PUSH1 0x20 DUP3 ADD DUP1 MLOAD PUSH28 0xFFFFFFFFFFFFFFFFFFFFFFFFFFFFFFFFFFFFFFFFFFFFFFFFFFFFFFFF DUP4 DUP2 DUP4 AND OR DUP4 MSTORE POP POP POP POP PUSH1 0x40 MLOAD PUSH2 0x111 SWAP2 SWAP1 PUSH2 0x497 JUMP JUMPDEST PUSH1 0x0 PUSH1 0x40 MLOAD DUP1 DUP4 SUB DUP2 PUSH1 0x0 DUP7 GAS CALL SWAP2 POP POP RETURNDATASIZE DUP1 PUSH1 0x0 DUP2 EQ PUSH2 0x14E JUMPI PUSH1 0x40 MLOAD SWAP2 POP PUSH1 0x1F NOT PUSH1 0x3F RETURNDATASIZE ADD AND DUP3 ADD PUSH1 0x40 MSTORE RETURNDATASIZE DUP3 MSTORE RETURNDATASIZE PUSH1 0x0 PUSH1 0x20 DUP5 ADD RETURNDATACOPY PUSH2 0x153 JUMP JUMPDEST PUSH1 0x60 SWAP2 POP JUMPDEST POP SWAP2 POP SWAP2 POP DUP2 DUP1 ISZERO PUSH2 0x181 JUMPI POP PUSH1 0x0 DUP2 MLOAD EQ DUP1 PUSH2 0x180 JUMPI POP DUP1 DUP1 PUSH1 0x20 ADD SWAP1 MLOAD DUP2 ADD SWAP1 PUSH2 0x17F SWAP2 SWAP1 PUSH2 0x4E6 JUMP JUMPDEST JUMPDEST JUMPDEST PUSH2 0x1C0 JUMPI PUSH1 0x40 MLOAD PUSH32 0x8C379A000000000000000000000000000000000000000000000000000000000 DUP2 MSTORE PUSH1 0x4 ADD PUSH2 0x1B7 SWAP1 PUSH2 0x570 JUMP JUMPDEST PUSH1 0x40 MLOAD DUP1 SWAP2 SUB SWAP1 REVERT JUMPDEST POP POP POP POP POP JUMP JUMPDEST PUSH1 0x0 DUP1 DUP5 PUSH20 0xFFFFFFFFFFFFFFFFFFFFFFFFFFFFFFFFFFFFFFFF AND PUSH4 0xA9059CBB DUP6 DUP6 PUSH1 0x40 MLOAD PUSH1 0x24 ADD PUSH2 0x1F9 SWAP3 SWAP2 SWAP1 PUSH2 0x3F4 JUMP JUMPDEST PUSH1 0x40 MLOAD PUSH1 0x20 DUP2 DUP4 SUB SUB DUP2 MSTORE SWAP1 PUSH1 0x40 MSTORE SWAP1 PUSH1 0xE0 SHL PUSH1 0x20 DUP3 ADD DUP1 MLOAD PUSH28 0xFFFFFFFFFFFFFFFFFFFFFFFFFFFFFFFFFFFFFFFFFFFFFFFFFFFFFFFF DUP4 DUP2 DUP4 AND OR DUP4 MSTORE POP POP POP POP PUSH1 0x40 MLOAD PUSH2 0x247 SWAP2 SWAP1 PUSH2 0x497 JUMP JUMPDEST PUSH1 0x0 PUSH1 0x40 MLOAD DUP1 DUP4 SUB DUP2 PUSH1 0x0 DUP7 GAS CALL SWAP2 POP POP RETURNDATASIZE DUP1 PUSH1 0x0 DUP2 EQ PUSH2 0x284 JUMPI PUSH1 0x40 MLOAD SWAP2 POP PUSH1 0x1F NOT PUSH1 0x3F RETURNDATASIZE ADD AND DUP3 ADD PUSH1 0x40 MSTORE RETURNDATASIZE DUP3 MSTORE RETURNDATASIZE PUSH1 0x0 PUSH1 0x20 DUP5 ADD RETURNDATACOPY PUSH2 0x289 JUMP JUMPDEST PUSH1 0x60 SWAP2 POP JUMPDEST POP SWAP2 POP SWAP2 POP DUP2 DUP1 ISZERO PUSH2 0x2B7 JUMPI POP PUSH1 0x0 DUP2 MLOAD EQ DUP1 PUSH2 0x2B6 JUMPI POP DUP1 DUP1 PUSH1 0x20 ADD SWAP1 MLOAD DUP2 ADD SWAP1 PUSH2 0x2B5 SWAP2 SWAP1 PUSH2 0x4E6 JUMP JUMPDEST JUMPDEST JUMPDEST PUSH2 0x2F6 JUMPI PUSH1 0x40 MLOAD PUSH32 0x8C379A000000000000000000000000000000000000000000000000000000000 DUP2 MSTORE PUSH1 0x4 ADD PUSH2 0x2ED SWAP1 PUSH2 0x5DC JUMP JUMPDEST PUSH1 0x40 MLOAD DUP1 SWAP2 SUB SWAP1 REVERT JUMPDEST POP POP POP POP POP JUMP JUMPDEST PUSH1 0x0 DUP1 REVERT JUMPDEST PUSH1 0x0 PUSH20 0xFFFFFFFFFFFFFFFFFFFFFFFFFFFFFFFFFFFFFFFF DUP3 AND SWAP1 POP SWAP2 SWAP1 POP JUMP JUMPDEST PUSH1 0x0 PUSH2 0x32D DUP3 PUSH2 0x302 JUMP JUMPDEST SWAP1 POP SWAP2 SWAP1 POP JUMP JUMPDEST PUSH2 0x33D DUP2 PUSH2 0x322 JUMP JUMPDEST DUP2 EQ PUSH2 0x348 JUMPI PUSH1 0x0 DUP1 REVERT JUMPDEST POP JUMP JUMPDEST PUSH1 0x0 DUP2 CALLDATALOAD SWAP1 POP PUSH2 0x35A DUP2 PUSH2 0x334 JUMP JUMPDEST SWAP3 SWAP2 POP POP JUMP JUMPDEST PUSH1 0x0 DUP2 SWAP1 POP SWAP2 SWAP1 POP JUMP JUMPDEST PUSH2 0x373 DUP2 PUSH2 0x360 JUMP JUMPDEST DUP2 EQ PUSH2 0x37E JUMPI PUSH1 0x0 DUP1 REVERT JUMPDEST POP JUMP JUMPDEST PUSH1 0x0 DUP2 CALLDATALOAD SWAP1 POP PUSH2 0x390 DUP2 PUSH2 0x36A JUMP JUMPDEST SWAP3 SWAP2 POP POP JUMP JUMPDEST PUSH1 0x0 DUP1 PUSH1 0x40 DUP4 DUP6 SUB SLT ISZERO PUSH2 0x3AD JUMPI PUSH2 0x3AC PUSH2 0x2FD JUMP JUMPDEST JUMPDEST PUSH1 0x0 PUSH2 0x3BB DUP6 DUP3 DUP7 ADD PUSH2 0x34B JUMP JUMPDEST SWAP3 POP POP PUSH1 0x20 PUSH2 0x3CC DUP6 DUP3 DUP7 ADD PUSH2 0x381 JUMP JUMPDEST SWAP2 POP POP SWAP3 POP SWAP3 SWAP1 POP JUMP JUMPDEST PUSH2 0x3DF DUP2 PUSH2 0x322 JUMP JUMPDEST DUP3 MSTORE POP POP JUMP JUMPDEST PUSH2 0x3EE DUP2 PUSH2 0x360 JUMP JUMPDEST DUP3 MSTORE POP POP JUMP JUMPDEST PUSH1 0x0 PUSH1 0x40 DUP3 ADD SWAP1 POP PUSH2 0x409 PUSH1 0x0 DUP4 ADD DUP6 PUSH2 0x3D6 JUMP JUMPDEST PUSH2 0x416 PUSH1 0x20 DUP4 ADD DUP5 PUSH2 0x3E5 JUMP JUMPDEST SWAP4 SWAP3 POP POP POP JUMP JUMPDEST PUSH1 0x0 DUP2 MLOAD SWAP1 POP SWAP2 SWAP1 POP JUMP JUMPDEST PUSH1 0x0 DUP2 SWAP1 POP SWAP3 SWAP2 POP POP JUMP JUMPDEST PUSH1 0x0 JUMPDEST DUP4 DUP2 LT ISZERO PUSH2 0x451 JUMPI DUP1 DUP3 ADD MLOAD DUP2 DUP5 ADD MSTORE PUSH1 0x20 DUP2 ADD SWAP1 POP PUSH2 0x436 JUMP JUMPDEST DUP4 DUP2 GT ISZERO PUSH2 0x460 JUMPI PUSH1 0x0 DUP5 DUP5 ADD MSTORE JUMPDEST POP POP POP POP JUMP JUMPDEST PUSH1 0x0 PUSH2 0x471 DUP3 PUSH2 0x41D JUMP JUMPDEST PUSH2 0x47B DUP2 DUP6 PUSH2 0x428 JUMP JUMPDEST SWAP4 POP PUSH2 0x48B DUP2 DUP6 PUSH1 0x20 DUP7 ADD PUSH2 0x433 JUMP JUMPDEST DUP1 DUP5 ADD SWAP2 POP POP SWAP3 SWAP2 POP POP JUMP JUMPDEST PUSH1 0x0 PUSH2 0x4A3 DUP3 DUP5 PUSH2 0x466 JUMP JUMPDEST SWAP2 POP DUP2 SWAP1 POP SWAP3 SWAP2 POP POP JUMP JUMPDEST PUSH1 0x0 DUP2 ISZERO ISZERO SWAP1 POP SWAP2 SWAP1 POP JUMP JUMPDEST PUSH2 0x4C3 DUP2 PUSH2 0x4AE JUMP JUMPDEST DUP2 EQ PUSH2 0x4CE JUMPI PUSH1 0x0 DUP1 REVERT JUMPDEST POP JUMP JUMPDEST PUSH1 0x0 DUP2 MLOAD SWAP1 POP PUSH2 0x4E0 DUP2 PUSH2 0x4BA JUMP JUMPDEST SWAP3 SWAP2 POP POP JUMP JUMPDEST PUSH1 0x0 PUSH1 0x20 DUP3 DUP5 SUB SLT ISZERO PUSH2 0x4FC JUMPI PUSH2 0x4FB PUSH2 0x2FD JUMP JUMPDEST JUMPDEST PUSH1 0x0 PUSH2 0x50A DUP5 DUP3 DUP6 ADD PUSH2 0x4D1 JUMP JUMPDEST SWAP2 POP POP SWAP3 SWAP2 POP POP JUMP JUMPDEST PUSH1 0x0 DUP3 DUP3 MSTORE PUSH1 0x20 DUP3 ADD SWAP1 POP SWAP3 SWAP2 POP POP JUMP JUMPDEST PUSH32 0x5472616E7366657248656C7065723A20415050524F56455F4641494C45440000 PUSH1 0x0 DUP3 ADD MSTORE POP JUMP JUMPDEST PUSH1 0x0 PUSH2 0x55A PUSH1 0x1E DUP4 PUSH2 0x513 JUMP JUMPDEST SWAP2 POP PUSH2 0x565 DUP3 PUSH2 0x524 JUMP JUMPDEST PUSH1 0x20 DUP3 ADD SWAP1 POP SWAP2 SWAP1 POP JUMP JUMPDEST PUSH1 0x0 PUSH1 0x20 DUP3 ADD SWAP1 POP DUP2 DUP2 SUB PUSH1 0x0 DUP4 ADD MSTORE PUSH2 0x589 DUP2 PUSH2 0x54D JUMP JUMPDEST SWAP1 POP SWAP2 SWAP1 POP JUMP JUMPDEST PUSH32 0x5472616E7366657248656C7065723A205452414E534645525F4641494C454400 PUSH1 0x0 DUP3 ADD MSTORE POP JUMP JUMPDEST PUSH1 0x0 PUSH2 0x5C6 PUSH1 0x1F DUP4 PUSH2 0x513 JUMP JUMPDEST SWAP2 POP PUSH2 0x5D1 DUP3 PUSH2 0x590 JUMP JUMPDEST PUSH1 0x20 DUP3 ADD SWAP1 POP SWAP2 SWAP1 POP JUMP JUMPDEST PUSH1 0x0 PUSH1 0x20 DUP3 ADD SWAP1 POP DUP2 DUP2 SUB PUSH1 0x0 DUP4 ADD MSTORE PUSH2 0x5F5 DUP2 PUSH2 0x5B9 JUMP JUMPDEST SWAP1 POP SWAP2 SWAP1 POP JUMP INVALID LOG2 PUSH5 0x6970667358 0x22 SLT KECCAK256 0xE0 ADDRESS 0xA5 CODECOPY 0x5D 0xA5 0xAE EXTCODECOPY 0xD6 MSTORE 0x4E 0x2B SELFDESTRUCT 0x23 GAS 0xAC LOG2 SWAP15 0xC6 0xE7 0xC3 DIFFICULTY 0xED JUMPI PUSH32 0x8416A54F65A13764736F6C634300080D00330000000000000000000000000000 "
				},
				"gasEstimates": {
					"creation": {
						"codeDepositCost": "317200",
						"executionCost": "355",
						"totalCost": "317555"
					},
					"external": {
						"approveToken(address,uint256)": "infinite",
						"send(address,uint256)": "infinite"
					}
				},
				"methodIdentifiers": {
					"approveToken(address,uint256)": "022fc88b",
					"send(address,uint256)": "d0679d34"
				}
			},
			"storageLayout": {
				"storage": [],
				"types": null
			},
			"userdoc": {
				"kind": "user",
				"methods": {},
				"version": 1
			}
		}
	}
}