{
	"Ethereum/Presale.sol": {
		"Presale": {
			"abi": [
				{
					"inputs": [
						{
							"internalType": "address",
							"name": "",
							"type": "address"
						}
					],
					"name": "buyerInfo",
					"outputs": [
						{
							"internalType": "address payable",
							"name": "buyer",
							"type": "address"
						},
						{
							"internalType": "uint256",
							"name": "baseDeposit",
							"type": "uint256"
						},
						{
							"internalType": "uint256",
							"name": "tokenOwner",
							"type": "uint256"
						},
						{
							"internalType": "uint256",
							"name": "lastWithDraw",
							"type": "uint256"
						},
						{
							"internalType": "uint256",
							"name": "totalTokenWithDraw",
							"type": "uint256"
						},
						{
							"internalType": "bool",
							"name": "isRefund",
							"type": "bool"
						},
						{
							"internalType": "bool",
							"name": "isClaim",
							"type": "bool"
						}
					],
					"stateMutability": "view",
					"type": "function"
				},
				{
					"inputs": [
						{
							"internalType": "uint256[6]",
							"name": "datas",
							"type": "uint256[6]"
						}
					],
					"name": "initialBuyerInfo",
					"outputs": [],
					"stateMutability": "nonpayable",
					"type": "function"
				},
				{
					"inputs": [
						{
							"internalType": "address payable",
							"name": "_presaleOwner",
							"type": "address"
						},
						{
							"internalType": "contract IERC20",
							"name": "_saleToken",
							"type": "address"
						},
						{
							"internalType": "contract IERC20",
							"name": "_baseTOken",
							"type": "address"
						},
						{
							"internalType": "uint256[9]",
							"name": "datas",
							"type": "uint256[9]"
						}
					],
					"name": "initialSaleInfor",
					"outputs": [],
					"stateMutability": "nonpayable",
					"type": "function"
				},
				{
					"inputs": [],
					"name": "presaleStatus",
					"outputs": [
						{
							"internalType": "uint256",
							"name": "totalBaseCollected",
							"type": "uint256"
						},
						{
							"internalType": "uint256",
							"name": "totalTokenSold",
							"type": "uint256"
						},
						{
							"internalType": "uint256",
							"name": "totalTokenWithDraw",
							"type": "uint256"
						},
						{
							"internalType": "uint256",
							"name": "totalBaseWithDraw",
							"type": "uint256"
						},
						{
							"internalType": "uint256",
							"name": "numByer",
							"type": "uint256"
						},
						{
							"internalType": "uint256",
							"name": "totalFee",
							"type": "uint256"
						}
					],
					"stateMutability": "view",
					"type": "function"
				},
				{
					"inputs": [],
					"name": "saleInfor",
					"outputs": [
						{
							"internalType": "address payable",
							"name": "presaleOwner",
							"type": "address"
						},
						{
							"internalType": "contract IERC20",
							"name": "saleToken",
							"type": "address"
						},
						{
							"internalType": "contract IERC20",
							"name": "baseToken",
							"type": "address"
						},
						{
							"internalType": "uint256",
							"name": "tokenPrice",
							"type": "uint256"
						},
						{
							"internalType": "uint256",
							"name": "startSale",
							"type": "uint256"
						},
						{
							"internalType": "uint256",
							"name": "endSale",
							"type": "uint256"
						},
						{
							"internalType": "uint256",
							"name": "valueSwapERC20",
							"type": "uint256"
						},
						{
							"internalType": "uint256",
							"name": "feeTransaction",
							"type": "uint256"
						},
						{
							"internalType": "uint256",
							"name": "minSpendPerBuyer",
							"type": "uint256"
						},
						{
							"internalType": "uint256",
							"name": "maxSpendPerBuyer",
							"type": "uint256"
						},
						{
							"internalType": "uint256",
							"name": "refundFee",
							"type": "uint256"
						},
						{
							"internalType": "uint256",
							"name": "claimFee",
							"type": "uint256"
						}
					],
					"stateMutability": "view",
					"type": "function"
				},
				{
					"inputs": [
						{
							"internalType": "address",
							"name": "",
							"type": "address"
						}
					],
					"name": "userFee",
					"outputs": [
						{
							"internalType": "uint256",
							"name": "",
							"type": "uint256"
						}
					],
					"stateMutability": "view",
					"type": "function"
				}
			],
			"devdoc": {
				"kind": "dev",
				"methods": {},
				"version": 1
			},
			"evm": {
				"assembly": "    /* \"Ethereum/Presale.sol\":153:2017  contract Presale{\r... */\n  mstore(0x40, 0x80)\n  callvalue\n  dup1\n  iszero\n  tag_1\n  jumpi\n  0x00\n  dup1\n  revert\ntag_1:\n  pop\n  dataSize(sub_0)\n  dup1\n  dataOffset(sub_0)\n  0x00\n  codecopy\n  0x00\n  return\nstop\n\nsub_0: assembly {\n        /* \"Ethereum/Presale.sol\":153:2017  contract Presale{\r... */\n      mstore(0x40, 0x80)\n      callvalue\n      dup1\n      iszero\n      tag_1\n      jumpi\n      0x00\n      dup1\n      revert\n    tag_1:\n      pop\n      jumpi(tag_2, lt(calldatasize, 0x04))\n      shr(0xe0, calldataload(0x00))\n      dup1\n      0x18856a2f\n      eq\n      tag_3\n      jumpi\n      dup1\n      0x56c5f349\n      eq\n      tag_4\n      jumpi\n      dup1\n      0x76afac76\n      eq\n      tag_5\n      jumpi\n      dup1\n      0x8f1eae4c\n      eq\n      tag_6\n      jumpi\n      dup1\n      0xacfb2355\n      eq\n      tag_7\n      jumpi\n      dup1\n      0xe2d3f423\n      eq\n      tag_8\n      jumpi\n    tag_2:\n      0x00\n      dup1\n      revert\n        /* \"Ethereum/Presale.sol\":1195:1221  SaleInfor public saleInfor */\n    tag_3:\n      tag_9\n      tag_10\n      jump\t// in\n    tag_9:\n      mload(0x40)\n      tag_11\n      swap13\n      swap12\n      swap11\n      swap10\n      swap9\n      swap8\n      swap7\n      swap6\n      swap5\n      swap4\n      swap3\n      swap2\n      swap1\n      tag_12\n      jump\t// in\n    tag_11:\n      mload(0x40)\n      dup1\n      swap2\n      sub\n      swap1\n      return\n        /* \"Ethereum/Presale.sol\":1105:1147  mapping(address => uint256) public userFee */\n    tag_4:\n      tag_13\n      0x04\n      dup1\n      calldatasize\n      sub\n      dup2\n      add\n      swap1\n      tag_14\n      swap2\n      swap1\n      tag_15\n      jump\t// in\n    tag_14:\n      tag_16\n      jump\t// in\n    tag_13:\n      mload(0x40)\n      tag_17\n      swap2\n      swap1\n      tag_18\n      jump\t// in\n    tag_17:\n      mload(0x40)\n      dup1\n      swap2\n      sub\n      swap1\n      return\n        /* \"Ethereum/Presale.sol\":1944:2014  function initialBuyerInfo(uint256[6] memory datas) external {\r... */\n    tag_5:\n      tag_19\n      0x04\n      dup1\n      calldatasize\n      sub\n      dup2\n      add\n      swap1\n      tag_20\n      swap2\n      swap1\n      tag_21\n      jump\t// in\n    tag_20:\n      tag_22\n      jump\t// in\n    tag_19:\n      stop\n        /* \"Ethereum/Presale.sol\":1230:1936  function initialSaleInfor(\r... */\n    tag_6:\n      tag_23\n      0x04\n      dup1\n      calldatasize\n      sub\n      dup2\n      add\n      swap1\n      tag_24\n      swap2\n      swap1\n      tag_25\n      jump\t// in\n    tag_24:\n      tag_26\n      jump\t// in\n    tag_23:\n      stop\n        /* \"Ethereum/Presale.sol\":1154:1188  PresaleStatus public presaleStatus */\n    tag_7:\n      tag_27\n      tag_28\n      jump\t// in\n    tag_27:\n      mload(0x40)\n      tag_29\n      swap7\n      swap6\n      swap5\n      swap4\n      swap3\n      swap2\n      swap1\n      tag_30\n      jump\t// in\n    tag_29:\n      mload(0x40)\n      dup1\n      swap2\n      sub\n      swap1\n      return\n        /* \"Ethereum/Presale.sol\":1052:1098  mapping(address => BuyerInfo) public buyerInfo */\n    tag_8:\n      tag_31\n      0x04\n      dup1\n      calldatasize\n      sub\n      dup2\n      add\n      swap1\n      tag_32\n      swap2\n      swap1\n      tag_15\n      jump\t// in\n    tag_32:\n      tag_33\n      jump\t// in\n    tag_31:\n      mload(0x40)\n      tag_34\n      swap8\n      swap7\n      swap6\n      swap5\n      swap4\n      swap3\n      swap2\n      swap1\n      tag_35\n      jump\t// in\n    tag_34:\n      mload(0x40)\n      dup1\n      swap2\n      sub\n      swap1\n      return\n        /* \"Ethereum/Presale.sol\":1195:1221  SaleInfor public saleInfor */\n    tag_10:\n      0x08\n      dup1\n      0x00\n      add\n      0x00\n      swap1\n      sload\n      swap1\n      0x0100\n      exp\n      swap1\n      div\n      0xffffffffffffffffffffffffffffffffffffffff\n      and\n      swap1\n      dup1\n      0x01\n      add\n      0x00\n      swap1\n      sload\n      swap1\n      0x0100\n      exp\n      swap1\n      div\n      0xffffffffffffffffffffffffffffffffffffffff\n      and\n      swap1\n      dup1\n      0x02\n      add\n      0x00\n      swap1\n      sload\n      swap1\n      0x0100\n      exp\n      swap1\n      div\n      0xffffffffffffffffffffffffffffffffffffffff\n      and\n      swap1\n      dup1\n      0x03\n      add\n      sload\n      swap1\n      dup1\n      0x04\n      add\n      sload\n      swap1\n      dup1\n      0x05\n      add\n      sload\n      swap1\n      dup1\n      0x06\n      add\n      sload\n      swap1\n      dup1\n      0x07\n      add\n      sload\n      swap1\n      dup1\n      0x08\n      add\n      sload\n      swap1\n      dup1\n      0x09\n      add\n      sload\n      swap1\n      dup1\n      0x0a\n      add\n      sload\n      swap1\n      dup1\n      0x0b\n      add\n      sload\n      swap1\n      pop\n      dup13\n      jump\t// out\n        /* \"Ethereum/Presale.sol\":1105:1147  mapping(address => uint256) public userFee */\n    tag_16:\n      mstore(0x20, 0x01)\n      dup1\n      0x00\n      mstore\n      keccak256(0x00, 0x40)\n      0x00\n      swap2\n      pop\n      swap1\n      pop\n      sload\n      dup2\n      jump\t// out\n        /* \"Ethereum/Presale.sol\":1944:2014  function initialBuyerInfo(uint256[6] memory datas) external {\r... */\n    tag_22:\n      pop\n      jump\t// out\n        /* \"Ethereum/Presale.sol\":1230:1936  function initialSaleInfor(\r... */\n    tag_26:\n        /* \"Ethereum/Presale.sol\":1438:1451  _presaleOwner */\n      dup4\n        /* \"Ethereum/Presale.sol\":1413:1422  saleInfor */\n      0x08\n        /* \"Ethereum/Presale.sol\":1413:1435  saleInfor.presaleOwner */\n      0x00\n      add\n      0x00\n        /* \"Ethereum/Presale.sol\":1413:1451  saleInfor.presaleOwner = _presaleOwner */\n      0x0100\n      exp\n      dup2\n      sload\n      dup2\n      0xffffffffffffffffffffffffffffffffffffffff\n      mul\n      not\n      and\n      swap1\n      dup4\n      0xffffffffffffffffffffffffffffffffffffffff\n      and\n      mul\n      or\n      swap1\n      sstore\n      pop\n        /* \"Ethereum/Presale.sol\":1484:1494  _saleToken */\n      dup3\n        /* \"Ethereum/Presale.sol\":1462:1471  saleInfor */\n      0x08\n        /* \"Ethereum/Presale.sol\":1462:1481  saleInfor.saleToken */\n      0x01\n      add\n      0x00\n        /* \"Ethereum/Presale.sol\":1462:1494  saleInfor.saleToken = _saleToken */\n      0x0100\n      exp\n      dup2\n      sload\n      dup2\n      0xffffffffffffffffffffffffffffffffffffffff\n      mul\n      not\n      and\n      swap1\n      dup4\n      0xffffffffffffffffffffffffffffffffffffffff\n      and\n      mul\n      or\n      swap1\n      sstore\n      pop\n        /* \"Ethereum/Presale.sol\":1527:1537  _baseTOken */\n      dup2\n        /* \"Ethereum/Presale.sol\":1505:1514  saleInfor */\n      0x08\n        /* \"Ethereum/Presale.sol\":1505:1524  saleInfor.baseToken */\n      0x02\n      add\n      0x00\n        /* \"Ethereum/Presale.sol\":1505:1537  saleInfor.baseToken = _baseTOken */\n      0x0100\n      exp\n      dup2\n      sload\n      dup2\n      0xffffffffffffffffffffffffffffffffffffffff\n      mul\n      not\n      and\n      swap1\n      dup4\n      0xffffffffffffffffffffffffffffffffffffffff\n      and\n      mul\n      or\n      swap1\n      sstore\n      pop\n        /* \"Ethereum/Presale.sol\":1571:1576  datas */\n      dup1\n        /* \"Ethereum/Presale.sol\":1577:1578  0 */\n      0x00\n        /* \"Ethereum/Presale.sol\":1571:1579  datas[0] */\n      0x09\n      dup2\n      lt\n      tag_38\n      jumpi\n      mstore(0x00, 0x4e487b7100000000000000000000000000000000000000000000000000000000)\n      mstore(0x04, 0x32)\n      revert(0x00, 0x24)\n    tag_38:\n      0x20\n      mul\n      add\n      mload\n        /* \"Ethereum/Presale.sol\":1548:1557  saleInfor */\n      0x08\n        /* \"Ethereum/Presale.sol\":1548:1568  saleInfor.tokenPrice */\n      0x03\n      add\n        /* \"Ethereum/Presale.sol\":1548:1579  saleInfor.tokenPrice = datas[0] */\n      dup2\n      swap1\n      sstore\n      pop\n        /* \"Ethereum/Presale.sol\":1612:1617  datas */\n      dup1\n        /* \"Ethereum/Presale.sol\":1618:1619  1 */\n      0x01\n        /* \"Ethereum/Presale.sol\":1612:1620  datas[1] */\n      0x09\n      dup2\n      lt\n      tag_39\n      jumpi\n      mstore(0x00, 0x4e487b7100000000000000000000000000000000000000000000000000000000)\n      mstore(0x04, 0x32)\n      revert(0x00, 0x24)\n    tag_39:\n      0x20\n      mul\n      add\n      mload\n        /* \"Ethereum/Presale.sol\":1590:1599  saleInfor */\n      0x08\n        /* \"Ethereum/Presale.sol\":1590:1609  saleInfor.startSale */\n      0x04\n      add\n        /* \"Ethereum/Presale.sol\":1590:1620  saleInfor.startSale = datas[1] */\n      dup2\n      swap1\n      sstore\n      pop\n        /* \"Ethereum/Presale.sol\":1651:1656  datas */\n      dup1\n        /* \"Ethereum/Presale.sol\":1657:1658  2 */\n      0x02\n        /* \"Ethereum/Presale.sol\":1651:1659  datas[2] */\n      0x09\n      dup2\n      lt\n      tag_40\n      jumpi\n      mstore(0x00, 0x4e487b7100000000000000000000000000000000000000000000000000000000)\n      mstore(0x04, 0x32)\n      revert(0x00, 0x24)\n    tag_40:\n      0x20\n      mul\n      add\n      mload\n        /* \"Ethereum/Presale.sol\":1631:1640  saleInfor */\n      0x08\n        /* \"Ethereum/Presale.sol\":1631:1648  saleInfor.endSale */\n      0x05\n      add\n        /* \"Ethereum/Presale.sol\":1631:1659  saleInfor.endSale = datas[2] */\n      dup2\n      swap1\n      sstore\n      pop\n        /* \"Ethereum/Presale.sol\":1697:1702  datas */\n      dup1\n        /* \"Ethereum/Presale.sol\":1703:1704  3 */\n      0x03\n        /* \"Ethereum/Presale.sol\":1697:1705  datas[3] */\n      0x09\n      dup2\n      lt\n      tag_41\n      jumpi\n      mstore(0x00, 0x4e487b7100000000000000000000000000000000000000000000000000000000)\n      mstore(0x04, 0x32)\n      revert(0x00, 0x24)\n    tag_41:\n      0x20\n      mul\n      add\n      mload\n        /* \"Ethereum/Presale.sol\":1670:1679  saleInfor */\n      0x08\n        /* \"Ethereum/Presale.sol\":1670:1694  saleInfor.valueSwapERC20 */\n      0x06\n      add\n        /* \"Ethereum/Presale.sol\":1670:1705  saleInfor.valueSwapERC20 = datas[3] */\n      dup2\n      swap1\n      sstore\n      pop\n        /* \"Ethereum/Presale.sol\":1743:1748  datas */\n      dup1\n        /* \"Ethereum/Presale.sol\":1749:1750  4 */\n      0x04\n        /* \"Ethereum/Presale.sol\":1743:1751  datas[4] */\n      0x09\n      dup2\n      lt\n      tag_42\n      jumpi\n      mstore(0x00, 0x4e487b7100000000000000000000000000000000000000000000000000000000)\n      mstore(0x04, 0x32)\n      revert(0x00, 0x24)\n    tag_42:\n      0x20\n      mul\n      add\n      mload\n        /* \"Ethereum/Presale.sol\":1716:1725  saleInfor */\n      0x08\n        /* \"Ethereum/Presale.sol\":1716:1740  saleInfor.feeTransaction */\n      0x07\n      add\n        /* \"Ethereum/Presale.sol\":1716:1751  saleInfor.feeTransaction = datas[4] */\n      dup2\n      swap1\n      sstore\n      pop\n        /* \"Ethereum/Presale.sol\":1791:1796  datas */\n      dup1\n        /* \"Ethereum/Presale.sol\":1797:1798  5 */\n      0x05\n        /* \"Ethereum/Presale.sol\":1791:1799  datas[5] */\n      0x09\n      dup2\n      lt\n      tag_43\n      jumpi\n      mstore(0x00, 0x4e487b7100000000000000000000000000000000000000000000000000000000)\n      mstore(0x04, 0x32)\n      revert(0x00, 0x24)\n    tag_43:\n      0x20\n      mul\n      add\n      mload\n        /* \"Ethereum/Presale.sol\":1762:1771  saleInfor */\n      0x08\n        /* \"Ethereum/Presale.sol\":1762:1788  saleInfor.minSpendPerBuyer */\n      dup1\n      add\n        /* \"Ethereum/Presale.sol\":1762:1799  saleInfor.minSpendPerBuyer = datas[5] */\n      dup2\n      swap1\n      sstore\n      pop\n        /* \"Ethereum/Presale.sol\":1839:1844  datas */\n      dup1\n        /* \"Ethereum/Presale.sol\":1845:1846  6 */\n      0x06\n        /* \"Ethereum/Presale.sol\":1839:1847  datas[6] */\n      0x09\n      dup2\n      lt\n      tag_44\n      jumpi\n      mstore(0x00, 0x4e487b7100000000000000000000000000000000000000000000000000000000)\n      mstore(0x04, 0x32)\n      revert(0x00, 0x24)\n    tag_44:\n      0x20\n      mul\n      add\n      mload\n        /* \"Ethereum/Presale.sol\":1810:1819  saleInfor */\n      0x08\n        /* \"Ethereum/Presale.sol\":1810:1836  saleInfor.maxSpendPerBuyer */\n      0x09\n      add\n        /* \"Ethereum/Presale.sol\":1810:1847  saleInfor.maxSpendPerBuyer = datas[6] */\n      dup2\n      swap1\n      sstore\n      pop\n        /* \"Ethereum/Presale.sol\":1880:1885  datas */\n      dup1\n        /* \"Ethereum/Presale.sol\":1886:1887  7 */\n      0x07\n        /* \"Ethereum/Presale.sol\":1880:1888  datas[7] */\n      0x09\n      dup2\n      lt\n      tag_45\n      jumpi\n      mstore(0x00, 0x4e487b7100000000000000000000000000000000000000000000000000000000)\n      mstore(0x04, 0x32)\n      revert(0x00, 0x24)\n    tag_45:\n      0x20\n      mul\n      add\n      mload\n        /* \"Ethereum/Presale.sol\":1858:1867  saleInfor */\n      0x08\n        /* \"Ethereum/Presale.sol\":1858:1877  saleInfor.refundFee */\n      0x0a\n      add\n        /* \"Ethereum/Presale.sol\":1858:1888  saleInfor.refundFee = datas[7] */\n      dup2\n      swap1\n      sstore\n      pop\n        /* \"Ethereum/Presale.sol\":1920:1925  datas */\n      dup1\n        /* \"Ethereum/Presale.sol\":1926:1927  8 */\n      0x08\n        /* \"Ethereum/Presale.sol\":1920:1928  datas[8] */\n      0x09\n      dup2\n      lt\n      tag_46\n      jumpi\n      mstore(0x00, 0x4e487b7100000000000000000000000000000000000000000000000000000000)\n      mstore(0x04, 0x32)\n      revert(0x00, 0x24)\n    tag_46:\n      0x20\n      mul\n      add\n      mload\n        /* \"Ethereum/Presale.sol\":1899:1908  saleInfor */\n      0x08\n        /* \"Ethereum/Presale.sol\":1899:1917  saleInfor.claimFee */\n      0x0b\n      add\n        /* \"Ethereum/Presale.sol\":1899:1928  saleInfor.claimFee = datas[8] */\n      dup2\n      swap1\n      sstore\n      pop\n        /* \"Ethereum/Presale.sol\":1230:1936  function initialSaleInfor(\r... */\n      pop\n      pop\n      pop\n      pop\n      jump\t// out\n        /* \"Ethereum/Presale.sol\":1154:1188  PresaleStatus public presaleStatus */\n    tag_28:\n      0x02\n      dup1\n      0x00\n      add\n      sload\n      swap1\n      dup1\n      0x01\n      add\n      sload\n      swap1\n      dup1\n      0x02\n      add\n      sload\n      swap1\n      dup1\n      0x03\n      add\n      sload\n      swap1\n      dup1\n      0x04\n      add\n      sload\n      swap1\n      dup1\n      0x05\n      add\n      sload\n      swap1\n      pop\n      dup7\n      jump\t// out\n        /* \"Ethereum/Presale.sol\":1052:1098  mapping(address => BuyerInfo) public buyerInfo */\n    tag_33:\n      mstore(0x20, 0x00)\n      dup1\n      0x00\n      mstore\n      keccak256(0x00, 0x40)\n      0x00\n      swap2\n      pop\n      swap1\n      pop\n      dup1\n      0x00\n      add\n      0x00\n      swap1\n      sload\n      swap1\n      0x0100\n      exp\n      swap1\n      div\n      0xffffffffffffffffffffffffffffffffffffffff\n      and\n      swap1\n      dup1\n      0x01\n      add\n      sload\n      swap1\n      dup1\n      0x02\n      add\n      sload\n      swap1\n      dup1\n      0x03\n      add\n      sload\n      swap1\n      dup1\n      0x04\n      add\n      sload\n      swap1\n      dup1\n      0x05\n      add\n      0x00\n      swap1\n      sload\n      swap1\n      0x0100\n      exp\n      swap1\n      div\n      0xff\n      and\n      swap1\n      dup1\n      0x05\n      add\n      0x01\n      swap1\n      sload\n      swap1\n      0x0100\n      exp\n      swap1\n      div\n      0xff\n      and\n      swap1\n      pop\n      dup8\n      jump\t// out\n        /* \"#utility.yul\":25:590   */\n    tag_48:\n      0x00\n        /* \"#utility.yul\":144:222   */\n      tag_50\n        /* \"#utility.yul\":159:221   */\n      tag_51\n        /* \"#utility.yul\":214:220   */\n      dup5\n        /* \"#utility.yul\":159:221   */\n      tag_52\n      jump\t// in\n    tag_51:\n        /* \"#utility.yul\":144:222   */\n      tag_53\n      jump\t// in\n    tag_50:\n        /* \"#utility.yul\":135:222   */\n      swap1\n      pop\n        /* \"#utility.yul\":242:247   */\n      dup1\n        /* \"#utility.yul\":268:274   */\n      dup3\n        /* \"#utility.yul\":318:321   */\n      dup6\n        /* \"#utility.yul\":310:314   */\n      0x20\n        /* \"#utility.yul\":302:308   */\n      dup7\n        /* \"#utility.yul\":298:315   */\n      mul\n        /* \"#utility.yul\":293:296   */\n      dup3\n        /* \"#utility.yul\":289:316   */\n      add\n        /* \"#utility.yul\":286:322   */\n      gt\n        /* \"#utility.yul\":283:285   */\n      iszero\n      tag_54\n      jumpi\n        /* \"#utility.yul\":335:336   */\n      0x00\n        /* \"#utility.yul\":332:333   */\n      dup1\n        /* \"#utility.yul\":325:337   */\n      revert\n        /* \"#utility.yul\":283:285   */\n    tag_54:\n        /* \"#utility.yul\":363:364   */\n      0x00\n        /* \"#utility.yul\":348:584   */\n    tag_55:\n        /* \"#utility.yul\":373:379   */\n      dup6\n        /* \"#utility.yul\":370:371   */\n      dup2\n        /* \"#utility.yul\":367:380   */\n      lt\n        /* \"#utility.yul\":348:584   */\n      iszero\n      tag_57\n      jumpi\n        /* \"#utility.yul\":440:443   */\n      dup2\n        /* \"#utility.yul\":468:505   */\n      tag_58\n        /* \"#utility.yul\":501:504   */\n      dup9\n        /* \"#utility.yul\":489:499   */\n      dup3\n        /* \"#utility.yul\":468:505   */\n      tag_59\n      jump\t// in\n    tag_58:\n        /* \"#utility.yul\":463:466   */\n      dup5\n        /* \"#utility.yul\":456:506   */\n      mstore\n        /* \"#utility.yul\":535:539   */\n      0x20\n        /* \"#utility.yul\":530:533   */\n      dup5\n        /* \"#utility.yul\":526:540   */\n      add\n        /* \"#utility.yul\":519:540   */\n      swap4\n      pop\n        /* \"#utility.yul\":569:573   */\n      0x20\n        /* \"#utility.yul\":564:567   */\n      dup4\n        /* \"#utility.yul\":560:574   */\n      add\n        /* \"#utility.yul\":553:574   */\n      swap3\n      pop\n        /* \"#utility.yul\":408:584   */\n      pop\n        /* \"#utility.yul\":395:396   */\n      0x01\n        /* \"#utility.yul\":392:393   */\n      dup2\n        /* \"#utility.yul\":388:397   */\n      add\n        /* \"#utility.yul\":383:397   */\n      swap1\n      pop\n        /* \"#utility.yul\":348:584   */\n      jump(tag_55)\n    tag_57:\n        /* \"#utility.yul\":352:366   */\n      pop\n        /* \"#utility.yul\":125:590   */\n      pop\n      pop\n      swap4\n      swap3\n      pop\n      pop\n      pop\n      jump\t// out\n        /* \"#utility.yul\":614:1179   */\n    tag_60:\n      0x00\n        /* \"#utility.yul\":733:811   */\n      tag_62\n        /* \"#utility.yul\":748:810   */\n      tag_63\n        /* \"#utility.yul\":803:809   */\n      dup5\n        /* \"#utility.yul\":748:810   */\n      tag_64\n      jump\t// in\n    tag_63:\n        /* \"#utility.yul\":733:811   */\n      tag_53\n      jump\t// in\n    tag_62:\n        /* \"#utility.yul\":724:811   */\n      swap1\n      pop\n        /* \"#utility.yul\":831:836   */\n      dup1\n        /* \"#utility.yul\":857:863   */\n      dup3\n        /* \"#utility.yul\":907:910   */\n      dup6\n        /* \"#utility.yul\":899:903   */\n      0x20\n        /* \"#utility.yul\":891:897   */\n      dup7\n        /* \"#utility.yul\":887:904   */\n      mul\n        /* \"#utility.yul\":882:885   */\n      dup3\n        /* \"#utility.yul\":878:905   */\n      add\n        /* \"#utility.yul\":875:911   */\n      gt\n        /* \"#utility.yul\":872:874   */\n      iszero\n      tag_65\n      jumpi\n        /* \"#utility.yul\":924:925   */\n      0x00\n        /* \"#utility.yul\":921:922   */\n      dup1\n        /* \"#utility.yul\":914:926   */\n      revert\n        /* \"#utility.yul\":872:874   */\n    tag_65:\n        /* \"#utility.yul\":952:953   */\n      0x00\n        /* \"#utility.yul\":937:1173   */\n    tag_66:\n        /* \"#utility.yul\":962:968   */\n      dup6\n        /* \"#utility.yul\":959:960   */\n      dup2\n        /* \"#utility.yul\":956:969   */\n      lt\n        /* \"#utility.yul\":937:1173   */\n      iszero\n      tag_68\n      jumpi\n        /* \"#utility.yul\":1029:1032   */\n      dup2\n        /* \"#utility.yul\":1057:1094   */\n      tag_69\n        /* \"#utility.yul\":1090:1093   */\n      dup9\n        /* \"#utility.yul\":1078:1088   */\n      dup3\n        /* \"#utility.yul\":1057:1094   */\n      tag_59\n      jump\t// in\n    tag_69:\n        /* \"#utility.yul\":1052:1055   */\n      dup5\n        /* \"#utility.yul\":1045:1095   */\n      mstore\n        /* \"#utility.yul\":1124:1128   */\n      0x20\n        /* \"#utility.yul\":1119:1122   */\n      dup5\n        /* \"#utility.yul\":1115:1129   */\n      add\n        /* \"#utility.yul\":1108:1129   */\n      swap4\n      pop\n        /* \"#utility.yul\":1158:1162   */\n      0x20\n        /* \"#utility.yul\":1153:1156   */\n      dup4\n        /* \"#utility.yul\":1149:1163   */\n      add\n        /* \"#utility.yul\":1142:1163   */\n      swap3\n      pop\n        /* \"#utility.yul\":997:1173   */\n      pop\n        /* \"#utility.yul\":984:985   */\n      0x01\n        /* \"#utility.yul\":981:982   */\n      dup2\n        /* \"#utility.yul\":977:986   */\n      add\n        /* \"#utility.yul\":972:986   */\n      swap1\n      pop\n        /* \"#utility.yul\":937:1173   */\n      jump(tag_66)\n    tag_68:\n        /* \"#utility.yul\":941:955   */\n      pop\n        /* \"#utility.yul\":714:1179   */\n      pop\n      pop\n      swap4\n      swap3\n      pop\n      pop\n      pop\n      jump\t// out\n        /* \"#utility.yul\":1185:1324   */\n    tag_70:\n      0x00\n        /* \"#utility.yul\":1269:1275   */\n      dup2\n        /* \"#utility.yul\":1256:1276   */\n      calldataload\n        /* \"#utility.yul\":1247:1276   */\n      swap1\n      pop\n        /* \"#utility.yul\":1285:1318   */\n      tag_72\n        /* \"#utility.yul\":1312:1317   */\n      dup2\n        /* \"#utility.yul\":1285:1318   */\n      tag_73\n      jump\t// in\n    tag_72:\n        /* \"#utility.yul\":1237:1324   */\n      swap3\n      swap2\n      pop\n      pop\n      jump\t// out\n        /* \"#utility.yul\":1330:1485   */\n    tag_74:\n      0x00\n        /* \"#utility.yul\":1422:1428   */\n      dup2\n        /* \"#utility.yul\":1409:1429   */\n      calldataload\n        /* \"#utility.yul\":1400:1429   */\n      swap1\n      pop\n        /* \"#utility.yul\":1438:1479   */\n      tag_76\n        /* \"#utility.yul\":1473:1478   */\n      dup2\n        /* \"#utility.yul\":1438:1479   */\n      tag_77\n      jump\t// in\n    tag_76:\n        /* \"#utility.yul\":1390:1485   */\n      swap3\n      swap2\n      pop\n      pop\n      jump\t// out\n        /* \"#utility.yul\":1509:1781   */\n    tag_78:\n      0x00\n        /* \"#utility.yul\":1627:1630   */\n      dup3\n        /* \"#utility.yul\":1620:1624   */\n      0x1f\n        /* \"#utility.yul\":1612:1618   */\n      dup4\n        /* \"#utility.yul\":1608:1625   */\n      add\n        /* \"#utility.yul\":1604:1631   */\n      slt\n        /* \"#utility.yul\":1594:1596   */\n      tag_80\n      jumpi\n        /* \"#utility.yul\":1645:1646   */\n      0x00\n        /* \"#utility.yul\":1642:1643   */\n      dup1\n        /* \"#utility.yul\":1635:1647   */\n      revert\n        /* \"#utility.yul\":1594:1596   */\n    tag_80:\n        /* \"#utility.yul\":1672:1676   */\n      0x06\n        /* \"#utility.yul\":1694:1775   */\n      tag_81\n        /* \"#utility.yul\":1771:1774   */\n      dup5\n        /* \"#utility.yul\":1763:1769   */\n      dup3\n        /* \"#utility.yul\":1755:1761   */\n      dup6\n        /* \"#utility.yul\":1694:1775   */\n      tag_48\n      jump\t// in\n    tag_81:\n        /* \"#utility.yul\":1685:1775   */\n      swap2\n      pop\n        /* \"#utility.yul\":1584:1781   */\n      pop\n      swap3\n      swap2\n      pop\n      pop\n      jump\t// out\n        /* \"#utility.yul\":1805:2077   */\n    tag_82:\n      0x00\n        /* \"#utility.yul\":1923:1926   */\n      dup3\n        /* \"#utility.yul\":1916:1920   */\n      0x1f\n        /* \"#utility.yul\":1908:1914   */\n      dup4\n        /* \"#utility.yul\":1904:1921   */\n      add\n        /* \"#utility.yul\":1900:1927   */\n      slt\n        /* \"#utility.yul\":1890:1892   */\n      tag_84\n      jumpi\n        /* \"#utility.yul\":1941:1942   */\n      0x00\n        /* \"#utility.yul\":1938:1939   */\n      dup1\n        /* \"#utility.yul\":1931:1943   */\n      revert\n        /* \"#utility.yul\":1890:1892   */\n    tag_84:\n        /* \"#utility.yul\":1968:1972   */\n      0x09\n        /* \"#utility.yul\":1990:2071   */\n      tag_85\n        /* \"#utility.yul\":2067:2070   */\n      dup5\n        /* \"#utility.yul\":2059:2065   */\n      dup3\n        /* \"#utility.yul\":2051:2057   */\n      dup6\n        /* \"#utility.yul\":1990:2071   */\n      tag_60\n      jump\t// in\n    tag_85:\n        /* \"#utility.yul\":1981:2071   */\n      swap2\n      pop\n        /* \"#utility.yul\":1880:2077   */\n      pop\n      swap3\n      swap2\n      pop\n      pop\n      jump\t// out\n        /* \"#utility.yul\":2083:2248   */\n    tag_86:\n      0x00\n        /* \"#utility.yul\":2180:2186   */\n      dup2\n        /* \"#utility.yul\":2167:2187   */\n      calldataload\n        /* \"#utility.yul\":2158:2187   */\n      swap1\n      pop\n        /* \"#utility.yul\":2196:2242   */\n      tag_88\n        /* \"#utility.yul\":2236:2241   */\n      dup2\n        /* \"#utility.yul\":2196:2242   */\n      tag_89\n      jump\t// in\n    tag_88:\n        /* \"#utility.yul\":2148:2248   */\n      swap3\n      swap2\n      pop\n      pop\n      jump\t// out\n        /* \"#utility.yul\":2254:2393   */\n    tag_59:\n      0x00\n        /* \"#utility.yul\":2338:2344   */\n      dup2\n        /* \"#utility.yul\":2325:2345   */\n      calldataload\n        /* \"#utility.yul\":2316:2345   */\n      swap1\n      pop\n        /* \"#utility.yul\":2354:2387   */\n      tag_91\n        /* \"#utility.yul\":2381:2386   */\n      dup2\n        /* \"#utility.yul\":2354:2387   */\n      tag_92\n      jump\t// in\n    tag_91:\n        /* \"#utility.yul\":2306:2393   */\n      swap3\n      swap2\n      pop\n      pop\n      jump\t// out\n        /* \"#utility.yul\":2399:2661   */\n    tag_15:\n      0x00\n        /* \"#utility.yul\":2507:2509   */\n      0x20\n        /* \"#utility.yul\":2495:2504   */\n      dup3\n        /* \"#utility.yul\":2486:2493   */\n      dup5\n        /* \"#utility.yul\":2482:2505   */\n      sub\n        /* \"#utility.yul\":2478:2510   */\n      slt\n        /* \"#utility.yul\":2475:2477   */\n      iszero\n      tag_94\n      jumpi\n        /* \"#utility.yul\":2523:2524   */\n      0x00\n        /* \"#utility.yul\":2520:2521   */\n      dup1\n        /* \"#utility.yul\":2513:2525   */\n      revert\n        /* \"#utility.yul\":2475:2477   */\n    tag_94:\n        /* \"#utility.yul\":2566:2567   */\n      0x00\n        /* \"#utility.yul\":2591:2644   */\n      tag_95\n        /* \"#utility.yul\":2636:2643   */\n      dup5\n        /* \"#utility.yul\":2627:2633   */\n      dup3\n        /* \"#utility.yul\":2616:2625   */\n      dup6\n        /* \"#utility.yul\":2612:2634   */\n      add\n        /* \"#utility.yul\":2591:2644   */\n      tag_70\n      jump\t// in\n    tag_95:\n        /* \"#utility.yul\":2581:2644   */\n      swap2\n      pop\n        /* \"#utility.yul\":2537:2654   */\n      pop\n        /* \"#utility.yul\":2465:2661   */\n      swap3\n      swap2\n      pop\n      pop\n      jump\t// out\n        /* \"#utility.yul\":2667:3479   */\n    tag_25:\n      0x00\n      dup1\n      0x00\n      dup1\n        /* \"#utility.yul\":2883:2886   */\n      0x0180\n        /* \"#utility.yul\":2871:2880   */\n      dup6\n        /* \"#utility.yul\":2862:2869   */\n      dup8\n        /* \"#utility.yul\":2858:2881   */\n      sub\n        /* \"#utility.yul\":2854:2887   */\n      slt\n        /* \"#utility.yul\":2851:2853   */\n      iszero\n      tag_97\n      jumpi\n        /* \"#utility.yul\":2900:2901   */\n      0x00\n        /* \"#utility.yul\":2897:2898   */\n      dup1\n        /* \"#utility.yul\":2890:2902   */\n      revert\n        /* \"#utility.yul\":2851:2853   */\n    tag_97:\n        /* \"#utility.yul\":2943:2944   */\n      0x00\n        /* \"#utility.yul\":2968:3029   */\n      tag_98\n        /* \"#utility.yul\":3021:3028   */\n      dup8\n        /* \"#utility.yul\":3012:3018   */\n      dup3\n        /* \"#utility.yul\":3001:3010   */\n      dup9\n        /* \"#utility.yul\":2997:3019   */\n      add\n        /* \"#utility.yul\":2968:3029   */\n      tag_74\n      jump\t// in\n    tag_98:\n        /* \"#utility.yul\":2958:3029   */\n      swap5\n      pop\n        /* \"#utility.yul\":2914:3039   */\n      pop\n        /* \"#utility.yul\":3078:3080   */\n      0x20\n        /* \"#utility.yul\":3104:3170   */\n      tag_99\n        /* \"#utility.yul\":3162:3169   */\n      dup8\n        /* \"#utility.yul\":3153:3159   */\n      dup3\n        /* \"#utility.yul\":3142:3151   */\n      dup9\n        /* \"#utility.yul\":3138:3160   */\n      add\n        /* \"#utility.yul\":3104:3170   */\n      tag_86\n      jump\t// in\n    tag_99:\n        /* \"#utility.yul\":3094:3170   */\n      swap4\n      pop\n        /* \"#utility.yul\":3049:3180   */\n      pop\n        /* \"#utility.yul\":3219:3221   */\n      0x40\n        /* \"#utility.yul\":3245:3311   */\n      tag_100\n        /* \"#utility.yul\":3303:3310   */\n      dup8\n        /* \"#utility.yul\":3294:3300   */\n      dup3\n        /* \"#utility.yul\":3283:3292   */\n      dup9\n        /* \"#utility.yul\":3279:3301   */\n      add\n        /* \"#utility.yul\":3245:3311   */\n      tag_86\n      jump\t// in\n    tag_100:\n        /* \"#utility.yul\":3235:3311   */\n      swap3\n      pop\n        /* \"#utility.yul\":3190:3321   */\n      pop\n        /* \"#utility.yul\":3360:3362   */\n      0x60\n        /* \"#utility.yul\":3386:3462   */\n      tag_101\n        /* \"#utility.yul\":3454:3461   */\n      dup8\n        /* \"#utility.yul\":3445:3451   */\n      dup3\n        /* \"#utility.yul\":3434:3443   */\n      dup9\n        /* \"#utility.yul\":3430:3452   */\n      add\n        /* \"#utility.yul\":3386:3462   */\n      tag_82\n      jump\t// in\n    tag_101:\n        /* \"#utility.yul\":3376:3462   */\n      swap2\n      pop\n        /* \"#utility.yul\":3331:3472   */\n      pop\n        /* \"#utility.yul\":2841:3479   */\n      swap3\n      swap6\n      swap2\n      swap5\n      pop\n      swap3\n      pop\n      jump\t// out\n        /* \"#utility.yul\":3485:3794   */\n    tag_21:\n      0x00\n        /* \"#utility.yul\":3616:3619   */\n      0xc0\n        /* \"#utility.yul\":3604:3613   */\n      dup3\n        /* \"#utility.yul\":3595:3602   */\n      dup5\n        /* \"#utility.yul\":3591:3614   */\n      sub\n        /* \"#utility.yul\":3587:3620   */\n      slt\n        /* \"#utility.yul\":3584:3586   */\n      iszero\n      tag_103\n      jumpi\n        /* \"#utility.yul\":3633:3634   */\n      0x00\n        /* \"#utility.yul\":3630:3631   */\n      dup1\n        /* \"#utility.yul\":3623:3635   */\n      revert\n        /* \"#utility.yul\":3584:3586   */\n    tag_103:\n        /* \"#utility.yul\":3676:3677   */\n      0x00\n        /* \"#utility.yul\":3701:3777   */\n      tag_104\n        /* \"#utility.yul\":3769:3776   */\n      dup5\n        /* \"#utility.yul\":3760:3766   */\n      dup3\n        /* \"#utility.yul\":3749:3758   */\n      dup6\n        /* \"#utility.yul\":3745:3767   */\n      add\n        /* \"#utility.yul\":3701:3777   */\n      tag_78\n      jump\t// in\n    tag_104:\n        /* \"#utility.yul\":3691:3777   */\n      swap2\n      pop\n        /* \"#utility.yul\":3647:3787   */\n      pop\n        /* \"#utility.yul\":3574:3794   */\n      swap3\n      swap2\n      pop\n      pop\n      jump\t// out\n        /* \"#utility.yul\":3800:3942   */\n    tag_105:\n        /* \"#utility.yul\":3903:3935   */\n      tag_107\n        /* \"#utility.yul\":3929:3934   */\n      dup2\n        /* \"#utility.yul\":3903:3935   */\n      tag_108\n      jump\t// in\n    tag_107:\n        /* \"#utility.yul\":3898:3901   */\n      dup3\n        /* \"#utility.yul\":3891:3936   */\n      mstore\n        /* \"#utility.yul\":3881:3942   */\n      pop\n      pop\n      jump\t// out\n        /* \"#utility.yul\":3948:4057   */\n    tag_109:\n        /* \"#utility.yul\":4029:4050   */\n      tag_111\n        /* \"#utility.yul\":4044:4049   */\n      dup2\n        /* \"#utility.yul\":4029:4050   */\n      tag_112\n      jump\t// in\n    tag_111:\n        /* \"#utility.yul\":4024:4027   */\n      dup3\n        /* \"#utility.yul\":4017:4051   */\n      mstore\n        /* \"#utility.yul\":4007:4057   */\n      pop\n      pop\n      jump\t// out\n        /* \"#utility.yul\":4063:4220   */\n    tag_113:\n        /* \"#utility.yul\":4163:4213   */\n      tag_115\n        /* \"#utility.yul\":4207:4212   */\n      dup2\n        /* \"#utility.yul\":4163:4213   */\n      tag_116\n      jump\t// in\n    tag_115:\n        /* \"#utility.yul\":4158:4161   */\n      dup3\n        /* \"#utility.yul\":4151:4214   */\n      mstore\n        /* \"#utility.yul\":4141:4220   */\n      pop\n      pop\n      jump\t// out\n        /* \"#utility.yul\":4226:4344   */\n    tag_117:\n        /* \"#utility.yul\":4313:4337   */\n      tag_119\n        /* \"#utility.yul\":4331:4336   */\n      dup2\n        /* \"#utility.yul\":4313:4337   */\n      tag_120\n      jump\t// in\n    tag_119:\n        /* \"#utility.yul\":4308:4311   */\n      dup3\n        /* \"#utility.yul\":4301:4338   */\n      mstore\n        /* \"#utility.yul\":4291:4344   */\n      pop\n      pop\n      jump\t// out\n        /* \"#utility.yul\":4350:5879   */\n    tag_12:\n      0x00\n        /* \"#utility.yul\":4833:4836   */\n      0x0180\n        /* \"#utility.yul\":4822:4831   */\n      dup3\n        /* \"#utility.yul\":4818:4837   */\n      add\n        /* \"#utility.yul\":4810:4837   */\n      swap1\n      pop\n        /* \"#utility.yul\":4847:4934   */\n      tag_122\n        /* \"#utility.yul\":4931:4932   */\n      0x00\n        /* \"#utility.yul\":4920:4929   */\n      dup4\n        /* \"#utility.yul\":4916:4933   */\n      add\n        /* \"#utility.yul\":4907:4913   */\n      dup16\n        /* \"#utility.yul\":4847:4934   */\n      tag_105\n      jump\t// in\n    tag_122:\n        /* \"#utility.yul\":4944:5029   */\n      tag_123\n        /* \"#utility.yul\":5025:5027   */\n      0x20\n        /* \"#utility.yul\":5014:5023   */\n      dup4\n        /* \"#utility.yul\":5010:5028   */\n      add\n        /* \"#utility.yul\":5001:5007   */\n      dup15\n        /* \"#utility.yul\":4944:5029   */\n      tag_113\n      jump\t// in\n    tag_123:\n        /* \"#utility.yul\":5039:5124   */\n      tag_124\n        /* \"#utility.yul\":5120:5122   */\n      0x40\n        /* \"#utility.yul\":5109:5118   */\n      dup4\n        /* \"#utility.yul\":5105:5123   */\n      add\n        /* \"#utility.yul\":5096:5102   */\n      dup14\n        /* \"#utility.yul\":5039:5124   */\n      tag_113\n      jump\t// in\n    tag_124:\n        /* \"#utility.yul\":5134:5206   */\n      tag_125\n        /* \"#utility.yul\":5202:5204   */\n      0x60\n        /* \"#utility.yul\":5191:5200   */\n      dup4\n        /* \"#utility.yul\":5187:5205   */\n      add\n        /* \"#utility.yul\":5178:5184   */\n      dup13\n        /* \"#utility.yul\":5134:5206   */\n      tag_117\n      jump\t// in\n    tag_125:\n        /* \"#utility.yul\":5216:5289   */\n      tag_126\n        /* \"#utility.yul\":5284:5287   */\n      0x80\n        /* \"#utility.yul\":5273:5282   */\n      dup4\n        /* \"#utility.yul\":5269:5288   */\n      add\n        /* \"#utility.yul\":5260:5266   */\n      dup12\n        /* \"#utility.yul\":5216:5289   */\n      tag_117\n      jump\t// in\n    tag_126:\n        /* \"#utility.yul\":5299:5372   */\n      tag_127\n        /* \"#utility.yul\":5367:5370   */\n      0xa0\n        /* \"#utility.yul\":5356:5365   */\n      dup4\n        /* \"#utility.yul\":5352:5371   */\n      add\n        /* \"#utility.yul\":5343:5349   */\n      dup11\n        /* \"#utility.yul\":5299:5372   */\n      tag_117\n      jump\t// in\n    tag_127:\n        /* \"#utility.yul\":5382:5455   */\n      tag_128\n        /* \"#utility.yul\":5450:5453   */\n      0xc0\n        /* \"#utility.yul\":5439:5448   */\n      dup4\n        /* \"#utility.yul\":5435:5454   */\n      add\n        /* \"#utility.yul\":5426:5432   */\n      dup10\n        /* \"#utility.yul\":5382:5455   */\n      tag_117\n      jump\t// in\n    tag_128:\n        /* \"#utility.yul\":5465:5538   */\n      tag_129\n        /* \"#utility.yul\":5533:5536   */\n      0xe0\n        /* \"#utility.yul\":5522:5531   */\n      dup4\n        /* \"#utility.yul\":5518:5537   */\n      add\n        /* \"#utility.yul\":5509:5515   */\n      dup9\n        /* \"#utility.yul\":5465:5538   */\n      tag_117\n      jump\t// in\n    tag_129:\n        /* \"#utility.yul\":5548:5621   */\n      tag_130\n        /* \"#utility.yul\":5616:5619   */\n      0x0100\n        /* \"#utility.yul\":5605:5614   */\n      dup4\n        /* \"#utility.yul\":5601:5620   */\n      add\n        /* \"#utility.yul\":5592:5598   */\n      dup8\n        /* \"#utility.yul\":5548:5621   */\n      tag_117\n      jump\t// in\n    tag_130:\n        /* \"#utility.yul\":5631:5704   */\n      tag_131\n        /* \"#utility.yul\":5699:5702   */\n      0x0120\n        /* \"#utility.yul\":5688:5697   */\n      dup4\n        /* \"#utility.yul\":5684:5703   */\n      add\n        /* \"#utility.yul\":5675:5681   */\n      dup7\n        /* \"#utility.yul\":5631:5704   */\n      tag_117\n      jump\t// in\n    tag_131:\n        /* \"#utility.yul\":5714:5788   */\n      tag_132\n        /* \"#utility.yul\":5783:5786   */\n      0x0140\n        /* \"#utility.yul\":5772:5781   */\n      dup4\n        /* \"#utility.yul\":5768:5787   */\n      add\n        /* \"#utility.yul\":5758:5765   */\n      dup6\n        /* \"#utility.yul\":5714:5788   */\n      tag_117\n      jump\t// in\n    tag_132:\n        /* \"#utility.yul\":5798:5872   */\n      tag_133\n        /* \"#utility.yul\":5867:5870   */\n      0x0160\n        /* \"#utility.yul\":5856:5865   */\n      dup4\n        /* \"#utility.yul\":5852:5871   */\n      add\n        /* \"#utility.yul\":5842:5849   */\n      dup5\n        /* \"#utility.yul\":5798:5872   */\n      tag_117\n      jump\t// in\n    tag_133:\n        /* \"#utility.yul\":4800:5879   */\n      swap14\n      swap13\n      pop\n      pop\n      pop\n      pop\n      pop\n      pop\n      pop\n      pop\n      pop\n      pop\n      pop\n      pop\n      pop\n      jump\t// out\n        /* \"#utility.yul\":5885:6779   */\n    tag_35:\n      0x00\n        /* \"#utility.yul\":6188:6191   */\n      0xe0\n        /* \"#utility.yul\":6177:6186   */\n      dup3\n        /* \"#utility.yul\":6173:6192   */\n      add\n        /* \"#utility.yul\":6165:6192   */\n      swap1\n      pop\n        /* \"#utility.yul\":6202:6289   */\n      tag_135\n        /* \"#utility.yul\":6286:6287   */\n      0x00\n        /* \"#utility.yul\":6275:6284   */\n      dup4\n        /* \"#utility.yul\":6271:6288   */\n      add\n        /* \"#utility.yul\":6262:6268   */\n      dup11\n        /* \"#utility.yul\":6202:6289   */\n      tag_105\n      jump\t// in\n    tag_135:\n        /* \"#utility.yul\":6299:6371   */\n      tag_136\n        /* \"#utility.yul\":6367:6369   */\n      0x20\n        /* \"#utility.yul\":6356:6365   */\n      dup4\n        /* \"#utility.yul\":6352:6370   */\n      add\n        /* \"#utility.yul\":6343:6349   */\n      dup10\n        /* \"#utility.yul\":6299:6371   */\n      tag_117\n      jump\t// in\n    tag_136:\n        /* \"#utility.yul\":6381:6453   */\n      tag_137\n        /* \"#utility.yul\":6449:6451   */\n      0x40\n        /* \"#utility.yul\":6438:6447   */\n      dup4\n        /* \"#utility.yul\":6434:6452   */\n      add\n        /* \"#utility.yul\":6425:6431   */\n      dup9\n        /* \"#utility.yul\":6381:6453   */\n      tag_117\n      jump\t// in\n    tag_137:\n        /* \"#utility.yul\":6463:6535   */\n      tag_138\n        /* \"#utility.yul\":6531:6533   */\n      0x60\n        /* \"#utility.yul\":6520:6529   */\n      dup4\n        /* \"#utility.yul\":6516:6534   */\n      add\n        /* \"#utility.yul\":6507:6513   */\n      dup8\n        /* \"#utility.yul\":6463:6535   */\n      tag_117\n      jump\t// in\n    tag_138:\n        /* \"#utility.yul\":6545:6618   */\n      tag_139\n        /* \"#utility.yul\":6613:6616   */\n      0x80\n        /* \"#utility.yul\":6602:6611   */\n      dup4\n        /* \"#utility.yul\":6598:6617   */\n      add\n        /* \"#utility.yul\":6589:6595   */\n      dup7\n        /* \"#utility.yul\":6545:6618   */\n      tag_117\n      jump\t// in\n    tag_139:\n        /* \"#utility.yul\":6628:6695   */\n      tag_140\n        /* \"#utility.yul\":6690:6693   */\n      0xa0\n        /* \"#utility.yul\":6679:6688   */\n      dup4\n        /* \"#utility.yul\":6675:6694   */\n      add\n        /* \"#utility.yul\":6666:6672   */\n      dup6\n        /* \"#utility.yul\":6628:6695   */\n      tag_109\n      jump\t// in\n    tag_140:\n        /* \"#utility.yul\":6705:6772   */\n      tag_141\n        /* \"#utility.yul\":6767:6770   */\n      0xc0\n        /* \"#utility.yul\":6756:6765   */\n      dup4\n        /* \"#utility.yul\":6752:6771   */\n      add\n        /* \"#utility.yul\":6743:6749   */\n      dup5\n        /* \"#utility.yul\":6705:6772   */\n      tag_109\n      jump\t// in\n    tag_141:\n        /* \"#utility.yul\":6155:6779   */\n      swap9\n      swap8\n      pop\n      pop\n      pop\n      pop\n      pop\n      pop\n      pop\n      pop\n      jump\t// out\n        /* \"#utility.yul\":6785:7007   */\n    tag_18:\n      0x00\n        /* \"#utility.yul\":6916:6918   */\n      0x20\n        /* \"#utility.yul\":6905:6914   */\n      dup3\n        /* \"#utility.yul\":6901:6919   */\n      add\n        /* \"#utility.yul\":6893:6919   */\n      swap1\n      pop\n        /* \"#utility.yul\":6929:7000   */\n      tag_143\n        /* \"#utility.yul\":6997:6998   */\n      0x00\n        /* \"#utility.yul\":6986:6995   */\n      dup4\n        /* \"#utility.yul\":6982:6999   */\n      add\n        /* \"#utility.yul\":6973:6979   */\n      dup5\n        /* \"#utility.yul\":6929:7000   */\n      tag_117\n      jump\t// in\n    tag_143:\n        /* \"#utility.yul\":6883:7007   */\n      swap3\n      swap2\n      pop\n      pop\n      jump\t// out\n        /* \"#utility.yul\":7013:7788   */\n    tag_30:\n      0x00\n        /* \"#utility.yul\":7284:7287   */\n      0xc0\n        /* \"#utility.yul\":7273:7282   */\n      dup3\n        /* \"#utility.yul\":7269:7288   */\n      add\n        /* \"#utility.yul\":7261:7288   */\n      swap1\n      pop\n        /* \"#utility.yul\":7298:7369   */\n      tag_145\n        /* \"#utility.yul\":7366:7367   */\n      0x00\n        /* \"#utility.yul\":7355:7364   */\n      dup4\n        /* \"#utility.yul\":7351:7368   */\n      add\n        /* \"#utility.yul\":7342:7348   */\n      dup10\n        /* \"#utility.yul\":7298:7369   */\n      tag_117\n      jump\t// in\n    tag_145:\n        /* \"#utility.yul\":7379:7451   */\n      tag_146\n        /* \"#utility.yul\":7447:7449   */\n      0x20\n        /* \"#utility.yul\":7436:7445   */\n      dup4\n        /* \"#utility.yul\":7432:7450   */\n      add\n        /* \"#utility.yul\":7423:7429   */\n      dup9\n        /* \"#utility.yul\":7379:7451   */\n      tag_117\n      jump\t// in\n    tag_146:\n        /* \"#utility.yul\":7461:7533   */\n      tag_147\n        /* \"#utility.yul\":7529:7531   */\n      0x40\n        /* \"#utility.yul\":7518:7527   */\n      dup4\n        /* \"#utility.yul\":7514:7532   */\n      add\n        /* \"#utility.yul\":7505:7511   */\n      dup8\n        /* \"#utility.yul\":7461:7533   */\n      tag_117\n      jump\t// in\n    tag_147:\n        /* \"#utility.yul\":7543:7615   */\n      tag_148\n        /* \"#utility.yul\":7611:7613   */\n      0x60\n        /* \"#utility.yul\":7600:7609   */\n      dup4\n        /* \"#utility.yul\":7596:7614   */\n      add\n        /* \"#utility.yul\":7587:7593   */\n      dup7\n        /* \"#utility.yul\":7543:7615   */\n      tag_117\n      jump\t// in\n    tag_148:\n        /* \"#utility.yul\":7625:7698   */\n      tag_149\n        /* \"#utility.yul\":7693:7696   */\n      0x80\n        /* \"#utility.yul\":7682:7691   */\n      dup4\n        /* \"#utility.yul\":7678:7697   */\n      add\n        /* \"#utility.yul\":7669:7675   */\n      dup6\n        /* \"#utility.yul\":7625:7698   */\n      tag_117\n      jump\t// in\n    tag_149:\n        /* \"#utility.yul\":7708:7781   */\n      tag_150\n        /* \"#utility.yul\":7776:7779   */\n      0xa0\n        /* \"#utility.yul\":7765:7774   */\n      dup4\n        /* \"#utility.yul\":7761:7780   */\n      add\n        /* \"#utility.yul\":7752:7758   */\n      dup5\n        /* \"#utility.yul\":7708:7781   */\n      tag_117\n      jump\t// in\n    tag_150:\n        /* \"#utility.yul\":7251:7788   */\n      swap8\n      swap7\n      pop\n      pop\n      pop\n      pop\n      pop\n      pop\n      pop\n      jump\t// out\n        /* \"#utility.yul\":7794:8077   */\n    tag_53:\n      0x00\n        /* \"#utility.yul\":7860:7862   */\n      0x40\n        /* \"#utility.yul\":7854:7863   */\n      mload\n        /* \"#utility.yul\":7844:7863   */\n      swap1\n      pop\n        /* \"#utility.yul\":7902:7906   */\n      dup2\n        /* \"#utility.yul\":7894:7900   */\n      dup2\n        /* \"#utility.yul\":7890:7907   */\n      add\n        /* \"#utility.yul\":8009:8015   */\n      dup2\n        /* \"#utility.yul\":7997:8007   */\n      dup2\n        /* \"#utility.yul\":7994:8016   */\n      lt\n        /* \"#utility.yul\":7973:7991   */\n      0xffffffffffffffff\n        /* \"#utility.yul\":7961:7971   */\n      dup3\n        /* \"#utility.yul\":7958:7992   */\n      gt\n        /* \"#utility.yul\":7955:8017   */\n      or\n        /* \"#utility.yul\":7952:7954   */\n      iszero\n      tag_152\n      jumpi\n        /* \"#utility.yul\":8020:8038   */\n      tag_153\n      tag_154\n      jump\t// in\n    tag_153:\n        /* \"#utility.yul\":7952:7954   */\n    tag_152:\n        /* \"#utility.yul\":8060:8070   */\n      dup1\n        /* \"#utility.yul\":8056:8058   */\n      0x40\n        /* \"#utility.yul\":8049:8071   */\n      mstore\n        /* \"#utility.yul\":7834:8077   */\n      pop\n      swap2\n      swap1\n      pop\n      jump\t// out\n        /* \"#utility.yul\":8083:8332   */\n    tag_52:\n      0x00\n        /* \"#utility.yul\":8248:8266   */\n      0xffffffffffffffff\n        /* \"#utility.yul\":8240:8246   */\n      dup3\n        /* \"#utility.yul\":8237:8267   */\n      gt\n        /* \"#utility.yul\":8234:8236   */\n      iszero\n      tag_156\n      jumpi\n        /* \"#utility.yul\":8270:8288   */\n      tag_157\n      tag_154\n      jump\t// in\n    tag_157:\n        /* \"#utility.yul\":8234:8236   */\n    tag_156:\n        /* \"#utility.yul\":8320:8324   */\n      0x20\n        /* \"#utility.yul\":8312:8318   */\n      dup3\n        /* \"#utility.yul\":8308:8325   */\n      mul\n        /* \"#utility.yul\":8300:8325   */\n      swap1\n      pop\n        /* \"#utility.yul\":8163:8332   */\n      swap2\n      swap1\n      pop\n      jump\t// out\n        /* \"#utility.yul\":8338:8587   */\n    tag_64:\n      0x00\n        /* \"#utility.yul\":8503:8521   */\n      0xffffffffffffffff\n        /* \"#utility.yul\":8495:8501   */\n      dup3\n        /* \"#utility.yul\":8492:8522   */\n      gt\n        /* \"#utility.yul\":8489:8491   */\n      iszero\n      tag_159\n      jumpi\n        /* \"#utility.yul\":8525:8543   */\n      tag_160\n      tag_154\n      jump\t// in\n    tag_160:\n        /* \"#utility.yul\":8489:8491   */\n    tag_159:\n        /* \"#utility.yul\":8575:8579   */\n      0x20\n        /* \"#utility.yul\":8567:8573   */\n      dup3\n        /* \"#utility.yul\":8563:8580   */\n      mul\n        /* \"#utility.yul\":8555:8580   */\n      swap1\n      pop\n        /* \"#utility.yul\":8418:8587   */\n      swap2\n      swap1\n      pop\n      jump\t// out\n        /* \"#utility.yul\":8593:8689   */\n    tag_161:\n      0x00\n        /* \"#utility.yul\":8659:8683   */\n      tag_163\n        /* \"#utility.yul\":8677:8682   */\n      dup3\n        /* \"#utility.yul\":8659:8683   */\n      tag_164\n      jump\t// in\n    tag_163:\n        /* \"#utility.yul\":8648:8683   */\n      swap1\n      pop\n        /* \"#utility.yul\":8638:8689   */\n      swap2\n      swap1\n      pop\n      jump\t// out\n        /* \"#utility.yul\":8695:8799   */\n    tag_108:\n      0x00\n        /* \"#utility.yul\":8769:8793   */\n      tag_166\n        /* \"#utility.yul\":8787:8792   */\n      dup3\n        /* \"#utility.yul\":8769:8793   */\n      tag_164\n      jump\t// in\n    tag_166:\n        /* \"#utility.yul\":8758:8793   */\n      swap1\n      pop\n        /* \"#utility.yul\":8748:8799   */\n      swap2\n      swap1\n      pop\n      jump\t// out\n        /* \"#utility.yul\":8805:8895   */\n    tag_112:\n      0x00\n        /* \"#utility.yul\":8882:8887   */\n      dup2\n        /* \"#utility.yul\":8875:8888   */\n      iszero\n        /* \"#utility.yul\":8868:8889   */\n      iszero\n        /* \"#utility.yul\":8857:8889   */\n      swap1\n      pop\n        /* \"#utility.yul\":8847:8895   */\n      swap2\n      swap1\n      pop\n      jump\t// out\n        /* \"#utility.yul\":8901:9010   */\n    tag_168:\n      0x00\n        /* \"#utility.yul\":8980:9004   */\n      tag_170\n        /* \"#utility.yul\":8998:9003   */\n      dup3\n        /* \"#utility.yul\":8980:9004   */\n      tag_161\n      jump\t// in\n    tag_170:\n        /* \"#utility.yul\":8969:9004   */\n      swap1\n      pop\n        /* \"#utility.yul\":8959:9010   */\n      swap2\n      swap1\n      pop\n      jump\t// out\n        /* \"#utility.yul\":9016:9142   */\n    tag_164:\n      0x00\n        /* \"#utility.yul\":9093:9135   */\n      0xffffffffffffffffffffffffffffffffffffffff\n        /* \"#utility.yul\":9086:9091   */\n      dup3\n        /* \"#utility.yul\":9082:9136   */\n      and\n        /* \"#utility.yul\":9071:9136   */\n      swap1\n      pop\n        /* \"#utility.yul\":9061:9142   */\n      swap2\n      swap1\n      pop\n      jump\t// out\n        /* \"#utility.yul\":9148:9225   */\n    tag_120:\n      0x00\n        /* \"#utility.yul\":9214:9219   */\n      dup2\n        /* \"#utility.yul\":9203:9219   */\n      swap1\n      pop\n        /* \"#utility.yul\":9193:9225   */\n      swap2\n      swap1\n      pop\n      jump\t// out\n        /* \"#utility.yul\":9231:9383   */\n    tag_116:\n      0x00\n        /* \"#utility.yul\":9327:9377   */\n      tag_174\n        /* \"#utility.yul\":9371:9376   */\n      dup3\n        /* \"#utility.yul\":9327:9377   */\n      tag_175\n      jump\t// in\n    tag_174:\n        /* \"#utility.yul\":9314:9377   */\n      swap1\n      pop\n        /* \"#utility.yul\":9304:9383   */\n      swap2\n      swap1\n      pop\n      jump\t// out\n        /* \"#utility.yul\":9389:9515   */\n    tag_175:\n      0x00\n        /* \"#utility.yul\":9485:9509   */\n      tag_177\n        /* \"#utility.yul\":9503:9508   */\n      dup3\n        /* \"#utility.yul\":9485:9509   */\n      tag_164\n      jump\t// in\n    tag_177:\n        /* \"#utility.yul\":9472:9509   */\n      swap1\n      pop\n        /* \"#utility.yul\":9462:9515   */\n      swap2\n      swap1\n      pop\n      jump\t// out\n        /* \"#utility.yul\":9521:9701   */\n    tag_154:\n        /* \"#utility.yul\":9569:9646   */\n      0x4e487b7100000000000000000000000000000000000000000000000000000000\n        /* \"#utility.yul\":9566:9567   */\n      0x00\n        /* \"#utility.yul\":9559:9647   */\n      mstore\n        /* \"#utility.yul\":9666:9670   */\n      0x41\n        /* \"#utility.yul\":9663:9664   */\n      0x04\n        /* \"#utility.yul\":9656:9671   */\n      mstore\n        /* \"#utility.yul\":9690:9694   */\n      0x24\n        /* \"#utility.yul\":9687:9688   */\n      0x00\n        /* \"#utility.yul\":9680:9695   */\n      revert\n        /* \"#utility.yul\":9707:9829   */\n    tag_73:\n        /* \"#utility.yul\":9780:9804   */\n      tag_180\n        /* \"#utility.yul\":9798:9803   */\n      dup2\n        /* \"#utility.yul\":9780:9804   */\n      tag_161\n      jump\t// in\n    tag_180:\n        /* \"#utility.yul\":9773:9778   */\n      dup2\n        /* \"#utility.yul\":9770:9805   */\n      eq\n        /* \"#utility.yul\":9760:9762   */\n      tag_181\n      jumpi\n        /* \"#utility.yul\":9819:9820   */\n      0x00\n        /* \"#utility.yul\":9816:9817   */\n      dup1\n        /* \"#utility.yul\":9809:9821   */\n      revert\n        /* \"#utility.yul\":9760:9762   */\n    tag_181:\n        /* \"#utility.yul\":9750:9829   */\n      pop\n      jump\t// out\n        /* \"#utility.yul\":9835:9973   */\n    tag_77:\n        /* \"#utility.yul\":9916:9948   */\n      tag_183\n        /* \"#utility.yul\":9942:9947   */\n      dup2\n        /* \"#utility.yul\":9916:9948   */\n      tag_108\n      jump\t// in\n    tag_183:\n        /* \"#utility.yul\":9909:9914   */\n      dup2\n        /* \"#utility.yul\":9906:9949   */\n      eq\n        /* \"#utility.yul\":9896:9898   */\n      tag_184\n      jumpi\n        /* \"#utility.yul\":9963:9964   */\n      0x00\n        /* \"#utility.yul\":9960:9961   */\n      dup1\n        /* \"#utility.yul\":9953:9965   */\n      revert\n        /* \"#utility.yul\":9896:9898   */\n    tag_184:\n        /* \"#utility.yul\":9886:9973   */\n      pop\n      jump\t// out\n        /* \"#utility.yul\":9979:10127   */\n    tag_89:\n        /* \"#utility.yul\":10065:10102   */\n      tag_186\n        /* \"#utility.yul\":10096:10101   */\n      dup2\n        /* \"#utility.yul\":10065:10102   */\n      tag_168\n      jump\t// in\n    tag_186:\n        /* \"#utility.yul\":10058:10063   */\n      dup2\n        /* \"#utility.yul\":10055:10103   */\n      eq\n        /* \"#utility.yul\":10045:10047   */\n      tag_187\n      jumpi\n        /* \"#utility.yul\":10117:10118   */\n      0x00\n        /* \"#utility.yul\":10114:10115   */\n      dup1\n        /* \"#utility.yul\":10107:10119   */\n      revert\n        /* \"#utility.yul\":10045:10047   */\n    tag_187:\n        /* \"#utility.yul\":10035:10127   */\n      pop\n      jump\t// out\n        /* \"#utility.yul\":10133:10255   */\n    tag_92:\n        /* \"#utility.yul\":10206:10230   */\n      tag_189\n        /* \"#utility.yul\":10224:10229   */\n      dup2\n        /* \"#utility.yul\":10206:10230   */\n      tag_120\n      jump\t// in\n    tag_189:\n        /* \"#utility.yul\":10199:10204   */\n      dup2\n        /* \"#utility.yul\":10196:10231   */\n      eq\n        /* \"#utility.yul\":10186:10188   */\n      tag_190\n      jumpi\n        /* \"#utility.yul\":10245:10246   */\n      0x00\n        /* \"#utility.yul\":10242:10243   */\n      dup1\n        /* \"#utility.yul\":10235:10247   */\n      revert\n        /* \"#utility.yul\":10186:10188   */\n    tag_190:\n        /* \"#utility.yul\":10176:10255   */\n      pop\n      jump\t// out\n\n    auxdata: 0xa26469706673582212203ad7ad34ec757eb1416dad32120b59ca038e6686070dbe37836e78772514fefb64736f6c63430008000033\n}\n",
				"bytecode": {
					"linkReferences": {},
					"object": "608060405234801561001057600080fd5b50610be6806100206000396000f3fe608060405234801561001057600080fd5b50600436106100625760003560e01c806318856a2f1461006757806356c5f3491461009057806376afac76146100c05780638f1eae4c146100dc578063acfb2355146100f8578063e2d3f4231461011b575b600080fd5b61006f610151565b6040516100879c9b9a99989796959493929190610873565b60405180910390f35b6100aa60048036038101906100a59190610781565b6101ff565b6040516100b7919061099c565b60405180910390f35b6100da60048036038101906100d5919061080e565b610217565b005b6100f660048036038101906100f191906107aa565b61021a565b005b610100610573565b604051610112969594939291906109b7565b60405180910390f35b61013560048036038101906101309190610781565b61059d565b604051610148979695949392919061092d565b60405180910390f35b60088060000160009054906101000a900473ffffffffffffffffffffffffffffffffffffffff16908060010160009054906101000a900473ffffffffffffffffffffffffffffffffffffffff16908060020160009054906101000a900473ffffffffffffffffffffffffffffffffffffffff169080600301549080600401549080600501549080600601549080600701549080600801549080600901549080600a01549080600b015490508c565b60016020528060005260406000206000915090505481565b50565b83600860000160006101000a81548173ffffffffffffffffffffffffffffffffffffffff021916908373ffffffffffffffffffffffffffffffffffffffff16021790555082600860010160006101000a81548173ffffffffffffffffffffffffffffffffffffffff021916908373ffffffffffffffffffffffffffffffffffffffff16021790555081600860020160006101000a81548173ffffffffffffffffffffffffffffffffffffffff021916908373ffffffffffffffffffffffffffffffffffffffff16021790555080600060098110610320577f4e487b7100000000000000000000000000000000000000000000000000000000600052603260045260246000fd5b602002015160086003018190555080600160098110610368577f4e487b7100000000000000000000000000000000000000000000000000000000600052603260045260246000fd5b6020020151600860040181905550806002600981106103b0577f4e487b7100000000000000000000000000000000000000000000000000000000600052603260045260246000fd5b6020020151600860050181905550806003600981106103f8577f4e487b7100000000000000000000000000000000000000000000000000000000600052603260045260246000fd5b602002015160086006018190555080600460098110610440577f4e487b7100000000000000000000000000000000000000000000000000000000600052603260045260246000fd5b602002015160086007018190555080600560098110610488577f4e487b7100000000000000000000000000000000000000000000000000000000600052603260045260246000fd5b60200201516008800181905550806006600981106104cf577f4e487b7100000000000000000000000000000000000000000000000000000000600052603260045260246000fd5b602002015160086009018190555080600760098110610517577f4e487b7100000000000000000000000000000000000000000000000000000000600052603260045260246000fd5b60200201516008600a01819055508060086009811061055f577f4e487b7100000000000000000000000000000000000000000000000000000000600052603260045260246000fd5b60200201516008600b018190555050505050565b60028060000154908060010154908060020154908060030154908060040154908060050154905086565b60006020528060005260406000206000915090508060000160009054906101000a900473ffffffffffffffffffffffffffffffffffffffff16908060010154908060020154908060030154908060040154908060050160009054906101000a900460ff16908060050160019054906101000a900460ff16905087565b600061062c61062784610a49565b610a18565b9050808285602086028201111561064257600080fd5b60005b858110156106725781610658888261076c565b845260208401935060208301925050600181019050610645565b5050509392505050565b600061068f61068a84610a6f565b610a18565b905080828560208602820111156106a557600080fd5b60005b858110156106d557816106bb888261076c565b8452602084019350602083019250506001810190506106a8565b5050509392505050565b6000813590506106ee81610b54565b92915050565b60008135905061070381610b6b565b92915050565b600082601f83011261071a57600080fd5b6006610727848285610619565b91505092915050565b600082601f83011261074157600080fd5b600961074e84828561067c565b91505092915050565b60008135905061076681610b82565b92915050565b60008135905061077b81610b99565b92915050565b60006020828403121561079357600080fd5b60006107a1848285016106df565b91505092915050565b60008060008061018085870312156107c157600080fd5b60006107cf878288016106f4565b94505060206107e087828801610757565b93505060406107f187828801610757565b925050606061080287828801610730565b91505092959194509250565b600060c0828403121561082057600080fd5b600061082e84828501610709565b91505092915050565b61084081610aa7565b82525050565b61084f81610ab9565b82525050565b61085e81610b01565b82525050565b61086d81610af7565b82525050565b600061018082019050610889600083018f610837565b610896602083018e610855565b6108a3604083018d610855565b6108b0606083018c610864565b6108bd608083018b610864565b6108ca60a083018a610864565b6108d760c0830189610864565b6108e460e0830188610864565b6108f2610100830187610864565b610900610120830186610864565b61090e610140830185610864565b61091c610160830184610864565b9d9c50505050505050505050505050565b600060e082019050610942600083018a610837565b61094f6020830189610864565b61095c6040830188610864565b6109696060830187610864565b6109766080830186610864565b61098360a0830185610846565b61099060c0830184610846565b98975050505050505050565b60006020820190506109b16000830184610864565b92915050565b600060c0820190506109cc6000830189610864565b6109d96020830188610864565b6109e66040830187610864565b6109f36060830186610864565b610a006080830185610864565b610a0d60a0830184610864565b979650505050505050565b6000604051905081810181811067ffffffffffffffff82111715610a3f57610a3e610b25565b5b8060405250919050565b600067ffffffffffffffff821115610a6457610a63610b25565b5b602082029050919050565b600067ffffffffffffffff821115610a8a57610a89610b25565b5b602082029050919050565b6000610aa082610ad7565b9050919050565b6000610ab282610ad7565b9050919050565b60008115159050919050565b6000610ad082610a95565b9050919050565b600073ffffffffffffffffffffffffffffffffffffffff82169050919050565b6000819050919050565b6000610b0c82610b13565b9050919050565b6000610b1e82610ad7565b9050919050565b7f4e487b7100000000000000000000000000000000000000000000000000000000600052604160045260246000fd5b610b5d81610a95565b8114610b6857600080fd5b50565b610b7481610aa7565b8114610b7f57600080fd5b50565b610b8b81610ac5565b8114610b9657600080fd5b50565b610ba281610af7565b8114610bad57600080fd5b5056fea26469706673582212203ad7ad34ec757eb1416dad32120b59ca038e6686070dbe37836e78772514fefb64736f6c63430008000033",
					"opcodes": "PUSH1 0x80 PUSH1 0x40 MSTORE CALLVALUE DUP1 ISZERO PUSH2 0x10 JUMPI PUSH1 0x0 DUP1 REVERT JUMPDEST POP PUSH2 0xBE6 DUP1 PUSH2 0x20 PUSH1 0x0 CODECOPY PUSH1 0x0 RETURN INVALID PUSH1 0x80 PUSH1 0x40 MSTORE CALLVALUE DUP1 ISZERO PUSH2 0x10 JUMPI PUSH1 0x0 DUP1 REVERT JUMPDEST POP PUSH1 0x4 CALLDATASIZE LT PUSH2 0x62 JUMPI PUSH1 0x0 CALLDATALOAD PUSH1 0xE0 SHR DUP1 PUSH4 0x18856A2F EQ PUSH2 0x67 JUMPI DUP1 PUSH4 0x56C5F349 EQ PUSH2 0x90 JUMPI DUP1 PUSH4 0x76AFAC76 EQ PUSH2 0xC0 JUMPI DUP1 PUSH4 0x8F1EAE4C EQ PUSH2 0xDC JUMPI DUP1 PUSH4 0xACFB2355 EQ PUSH2 0xF8 JUMPI DUP1 PUSH4 0xE2D3F423 EQ PUSH2 0x11B JUMPI JUMPDEST PUSH1 0x0 DUP1 REVERT JUMPDEST PUSH2 0x6F PUSH2 0x151 JUMP JUMPDEST PUSH1 0x40 MLOAD PUSH2 0x87 SWAP13 SWAP12 SWAP11 SWAP10 SWAP9 SWAP8 SWAP7 SWAP6 SWAP5 SWAP4 SWAP3 SWAP2 SWAP1 PUSH2 0x873 JUMP JUMPDEST PUSH1 0x40 MLOAD DUP1 SWAP2 SUB SWAP1 RETURN JUMPDEST PUSH2 0xAA PUSH1 0x4 DUP1 CALLDATASIZE SUB DUP2 ADD SWAP1 PUSH2 0xA5 SWAP2 SWAP1 PUSH2 0x781 JUMP JUMPDEST PUSH2 0x1FF JUMP JUMPDEST PUSH1 0x40 MLOAD PUSH2 0xB7 SWAP2 SWAP1 PUSH2 0x99C JUMP JUMPDEST PUSH1 0x40 MLOAD DUP1 SWAP2 SUB SWAP1 RETURN JUMPDEST PUSH2 0xDA PUSH1 0x4 DUP1 CALLDATASIZE SUB DUP2 ADD SWAP1 PUSH2 0xD5 SWAP2 SWAP1 PUSH2 0x80E JUMP JUMPDEST PUSH2 0x217 JUMP JUMPDEST STOP JUMPDEST PUSH2 0xF6 PUSH1 0x4 DUP1 CALLDATASIZE SUB DUP2 ADD SWAP1 PUSH2 0xF1 SWAP2 SWAP1 PUSH2 0x7AA JUMP JUMPDEST PUSH2 0x21A JUMP JUMPDEST STOP JUMPDEST PUSH2 0x100 PUSH2 0x573 JUMP JUMPDEST PUSH1 0x40 MLOAD PUSH2 0x112 SWAP7 SWAP6 SWAP5 SWAP4 SWAP3 SWAP2 SWAP1 PUSH2 0x9B7 JUMP JUMPDEST PUSH1 0x40 MLOAD DUP1 SWAP2 SUB SWAP1 RETURN JUMPDEST PUSH2 0x135 PUSH1 0x4 DUP1 CALLDATASIZE SUB DUP2 ADD SWAP1 PUSH2 0x130 SWAP2 SWAP1 PUSH2 0x781 JUMP JUMPDEST PUSH2 0x59D JUMP JUMPDEST PUSH1 0x40 MLOAD PUSH2 0x148 SWAP8 SWAP7 SWAP6 SWAP5 SWAP4 SWAP3 SWAP2 SWAP1 PUSH2 0x92D JUMP JUMPDEST PUSH1 0x40 MLOAD DUP1 SWAP2 SUB SWAP1 RETURN JUMPDEST PUSH1 0x8 DUP1 PUSH1 0x0 ADD PUSH1 0x0 SWAP1 SLOAD SWAP1 PUSH2 0x100 EXP SWAP1 DIV PUSH20 0xFFFFFFFFFFFFFFFFFFFFFFFFFFFFFFFFFFFFFFFF AND SWAP1 DUP1 PUSH1 0x1 ADD PUSH1 0x0 SWAP1 SLOAD SWAP1 PUSH2 0x100 EXP SWAP1 DIV PUSH20 0xFFFFFFFFFFFFFFFFFFFFFFFFFFFFFFFFFFFFFFFF AND SWAP1 DUP1 PUSH1 0x2 ADD PUSH1 0x0 SWAP1 SLOAD SWAP1 PUSH2 0x100 EXP SWAP1 DIV PUSH20 0xFFFFFFFFFFFFFFFFFFFFFFFFFFFFFFFFFFFFFFFF AND SWAP1 DUP1 PUSH1 0x3 ADD SLOAD SWAP1 DUP1 PUSH1 0x4 ADD SLOAD SWAP1 DUP1 PUSH1 0x5 ADD SLOAD SWAP1 DUP1 PUSH1 0x6 ADD SLOAD SWAP1 DUP1 PUSH1 0x7 ADD SLOAD SWAP1 DUP1 PUSH1 0x8 ADD SLOAD SWAP1 DUP1 PUSH1 0x9 ADD SLOAD SWAP1 DUP1 PUSH1 0xA ADD SLOAD SWAP1 DUP1 PUSH1 0xB ADD SLOAD SWAP1 POP DUP13 JUMP JUMPDEST PUSH1 0x1 PUSH1 0x20 MSTORE DUP1 PUSH1 0x0 MSTORE PUSH1 0x40 PUSH1 0x0 KECCAK256 PUSH1 0x0 SWAP2 POP SWAP1 POP SLOAD DUP2 JUMP JUMPDEST POP JUMP JUMPDEST DUP4 PUSH1 0x8 PUSH1 0x0 ADD PUSH1 0x0 PUSH2 0x100 EXP DUP2 SLOAD DUP2 PUSH20 0xFFFFFFFFFFFFFFFFFFFFFFFFFFFFFFFFFFFFFFFF MUL NOT AND SWAP1 DUP4 PUSH20 0xFFFFFFFFFFFFFFFFFFFFFFFFFFFFFFFFFFFFFFFF AND MUL OR SWAP1 SSTORE POP DUP3 PUSH1 0x8 PUSH1 0x1 ADD PUSH1 0x0 PUSH2 0x100 EXP DUP2 SLOAD DUP2 PUSH20 0xFFFFFFFFFFFFFFFFFFFFFFFFFFFFFFFFFFFFFFFF MUL NOT AND SWAP1 DUP4 PUSH20 0xFFFFFFFFFFFFFFFFFFFFFFFFFFFFFFFFFFFFFFFF AND MUL OR SWAP1 SSTORE POP DUP2 PUSH1 0x8 PUSH1 0x2 ADD PUSH1 0x0 PUSH2 0x100 EXP DUP2 SLOAD DUP2 PUSH20 0xFFFFFFFFFFFFFFFFFFFFFFFFFFFFFFFFFFFFFFFF MUL NOT AND SWAP1 DUP4 PUSH20 0xFFFFFFFFFFFFFFFFFFFFFFFFFFFFFFFFFFFFFFFF AND MUL OR SWAP1 SSTORE POP DUP1 PUSH1 0x0 PUSH1 0x9 DUP2 LT PUSH2 0x320 JUMPI PUSH32 0x4E487B7100000000000000000000000000000000000000000000000000000000 PUSH1 0x0 MSTORE PUSH1 0x32 PUSH1 0x4 MSTORE PUSH1 0x24 PUSH1 0x0 REVERT JUMPDEST PUSH1 0x20 MUL ADD MLOAD PUSH1 0x8 PUSH1 0x3 ADD DUP2 SWAP1 SSTORE POP DUP1 PUSH1 0x1 PUSH1 0x9 DUP2 LT PUSH2 0x368 JUMPI PUSH32 0x4E487B7100000000000000000000000000000000000000000000000000000000 PUSH1 0x0 MSTORE PUSH1 0x32 PUSH1 0x4 MSTORE PUSH1 0x24 PUSH1 0x0 REVERT JUMPDEST PUSH1 0x20 MUL ADD MLOAD PUSH1 0x8 PUSH1 0x4 ADD DUP2 SWAP1 SSTORE POP DUP1 PUSH1 0x2 PUSH1 0x9 DUP2 LT PUSH2 0x3B0 JUMPI PUSH32 0x4E487B7100000000000000000000000000000000000000000000000000000000 PUSH1 0x0 MSTORE PUSH1 0x32 PUSH1 0x4 MSTORE PUSH1 0x24 PUSH1 0x0 REVERT JUMPDEST PUSH1 0x20 MUL ADD MLOAD PUSH1 0x8 PUSH1 0x5 ADD DUP2 SWAP1 SSTORE POP DUP1 PUSH1 0x3 PUSH1 0x9 DUP2 LT PUSH2 0x3F8 JUMPI PUSH32 0x4E487B7100000000000000000000000000000000000000000000000000000000 PUSH1 0x0 MSTORE PUSH1 0x32 PUSH1 0x4 MSTORE PUSH1 0x24 PUSH1 0x0 REVERT JUMPDEST PUSH1 0x20 MUL ADD MLOAD PUSH1 0x8 PUSH1 0x6 ADD DUP2 SWAP1 SSTORE POP DUP1 PUSH1 0x4 PUSH1 0x9 DUP2 LT PUSH2 0x440 JUMPI PUSH32 0x4E487B7100000000000000000000000000000000000000000000000000000000 PUSH1 0x0 MSTORE PUSH1 0x32 PUSH1 0x4 MSTORE PUSH1 0x24 PUSH1 0x0 REVERT JUMPDEST PUSH1 0x20 MUL ADD MLOAD PUSH1 0x8 PUSH1 0x7 ADD DUP2 SWAP1 SSTORE POP DUP1 PUSH1 0x5 PUSH1 0x9 DUP2 LT PUSH2 0x488 JUMPI PUSH32 0x4E487B7100000000000000000000000000000000000000000000000000000000 PUSH1 0x0 MSTORE PUSH1 0x32 PUSH1 0x4 MSTORE PUSH1 0x24 PUSH1 0x0 REVERT JUMPDEST PUSH1 0x20 MUL ADD MLOAD PUSH1 0x8 DUP1 ADD DUP2 SWAP1 SSTORE POP DUP1 PUSH1 0x6 PUSH1 0x9 DUP2 LT PUSH2 0x4CF JUMPI PUSH32 0x4E487B7100000000000000000000000000000000000000000000000000000000 PUSH1 0x0 MSTORE PUSH1 0x32 PUSH1 0x4 MSTORE PUSH1 0x24 PUSH1 0x0 REVERT JUMPDEST PUSH1 0x20 MUL ADD MLOAD PUSH1 0x8 PUSH1 0x9 ADD DUP2 SWAP1 SSTORE POP DUP1 PUSH1 0x7 PUSH1 0x9 DUP2 LT PUSH2 0x517 JUMPI PUSH32 0x4E487B7100000000000000000000000000000000000000000000000000000000 PUSH1 0x0 MSTORE PUSH1 0x32 PUSH1 0x4 MSTORE PUSH1 0x24 PUSH1 0x0 REVERT JUMPDEST PUSH1 0x20 MUL ADD MLOAD PUSH1 0x8 PUSH1 0xA ADD DUP2 SWAP1 SSTORE POP DUP1 PUSH1 0x8 PUSH1 0x9 DUP2 LT PUSH2 0x55F JUMPI PUSH32 0x4E487B7100000000000000000000000000000000000000000000000000000000 PUSH1 0x0 MSTORE PUSH1 0x32 PUSH1 0x4 MSTORE PUSH1 0x24 PUSH1 0x0 REVERT JUMPDEST PUSH1 0x20 MUL ADD MLOAD PUSH1 0x8 PUSH1 0xB ADD DUP2 SWAP1 SSTORE POP POP POP POP POP JUMP JUMPDEST PUSH1 0x2 DUP1 PUSH1 0x0 ADD SLOAD SWAP1 DUP1 PUSH1 0x1 ADD SLOAD SWAP1 DUP1 PUSH1 0x2 ADD SLOAD SWAP1 DUP1 PUSH1 0x3 ADD SLOAD SWAP1 DUP1 PUSH1 0x4 ADD SLOAD SWAP1 DUP1 PUSH1 0x5 ADD SLOAD SWAP1 POP DUP7 JUMP JUMPDEST PUSH1 0x0 PUSH1 0x20 MSTORE DUP1 PUSH1 0x0 MSTORE PUSH1 0x40 PUSH1 0x0 KECCAK256 PUSH1 0x0 SWAP2 POP SWAP1 POP DUP1 PUSH1 0x0 ADD PUSH1 0x0 SWAP1 SLOAD SWAP1 PUSH2 0x100 EXP SWAP1 DIV PUSH20 0xFFFFFFFFFFFFFFFFFFFFFFFFFFFFFFFFFFFFFFFF AND SWAP1 DUP1 PUSH1 0x1 ADD SLOAD SWAP1 DUP1 PUSH1 0x2 ADD SLOAD SWAP1 DUP1 PUSH1 0x3 ADD SLOAD SWAP1 DUP1 PUSH1 0x4 ADD SLOAD SWAP1 DUP1 PUSH1 0x5 ADD PUSH1 0x0 SWAP1 SLOAD SWAP1 PUSH2 0x100 EXP SWAP1 DIV PUSH1 0xFF AND SWAP1 DUP1 PUSH1 0x5 ADD PUSH1 0x1 SWAP1 SLOAD SWAP1 PUSH2 0x100 EXP SWAP1 DIV PUSH1 0xFF AND SWAP1 POP DUP8 JUMP JUMPDEST PUSH1 0x0 PUSH2 0x62C PUSH2 0x627 DUP5 PUSH2 0xA49 JUMP JUMPDEST PUSH2 0xA18 JUMP JUMPDEST SWAP1 POP DUP1 DUP3 DUP6 PUSH1 0x20 DUP7 MUL DUP3 ADD GT ISZERO PUSH2 0x642 JUMPI PUSH1 0x0 DUP1 REVERT JUMPDEST PUSH1 0x0 JUMPDEST DUP6 DUP2 LT ISZERO PUSH2 0x672 JUMPI DUP2 PUSH2 0x658 DUP9 DUP3 PUSH2 0x76C JUMP JUMPDEST DUP5 MSTORE PUSH1 0x20 DUP5 ADD SWAP4 POP PUSH1 0x20 DUP4 ADD SWAP3 POP POP PUSH1 0x1 DUP2 ADD SWAP1 POP PUSH2 0x645 JUMP JUMPDEST POP POP POP SWAP4 SWAP3 POP POP POP JUMP JUMPDEST PUSH1 0x0 PUSH2 0x68F PUSH2 0x68A DUP5 PUSH2 0xA6F JUMP JUMPDEST PUSH2 0xA18 JUMP JUMPDEST SWAP1 POP DUP1 DUP3 DUP6 PUSH1 0x20 DUP7 MUL DUP3 ADD GT ISZERO PUSH2 0x6A5 JUMPI PUSH1 0x0 DUP1 REVERT JUMPDEST PUSH1 0x0 JUMPDEST DUP6 DUP2 LT ISZERO PUSH2 0x6D5 JUMPI DUP2 PUSH2 0x6BB DUP9 DUP3 PUSH2 0x76C JUMP JUMPDEST DUP5 MSTORE PUSH1 0x20 DUP5 ADD SWAP4 POP PUSH1 0x20 DUP4 ADD SWAP3 POP POP PUSH1 0x1 DUP2 ADD SWAP1 POP PUSH2 0x6A8 JUMP JUMPDEST POP POP POP SWAP4 SWAP3 POP POP POP JUMP JUMPDEST PUSH1 0x0 DUP2 CALLDATALOAD SWAP1 POP PUSH2 0x6EE DUP2 PUSH2 0xB54 JUMP JUMPDEST SWAP3 SWAP2 POP POP JUMP JUMPDEST PUSH1 0x0 DUP2 CALLDATALOAD SWAP1 POP PUSH2 0x703 DUP2 PUSH2 0xB6B JUMP JUMPDEST SWAP3 SWAP2 POP POP JUMP JUMPDEST PUSH1 0x0 DUP3 PUSH1 0x1F DUP4 ADD SLT PUSH2 0x71A JUMPI PUSH1 0x0 DUP1 REVERT JUMPDEST PUSH1 0x6 PUSH2 0x727 DUP5 DUP3 DUP6 PUSH2 0x619 JUMP JUMPDEST SWAP2 POP POP SWAP3 SWAP2 POP POP JUMP JUMPDEST PUSH1 0x0 DUP3 PUSH1 0x1F DUP4 ADD SLT PUSH2 0x741 JUMPI PUSH1 0x0 DUP1 REVERT JUMPDEST PUSH1 0x9 PUSH2 0x74E DUP5 DUP3 DUP6 PUSH2 0x67C JUMP JUMPDEST SWAP2 POP POP SWAP3 SWAP2 POP POP JUMP JUMPDEST PUSH1 0x0 DUP2 CALLDATALOAD SWAP1 POP PUSH2 0x766 DUP2 PUSH2 0xB82 JUMP JUMPDEST SWAP3 SWAP2 POP POP JUMP JUMPDEST PUSH1 0x0 DUP2 CALLDATALOAD SWAP1 POP PUSH2 0x77B DUP2 PUSH2 0xB99 JUMP JUMPDEST SWAP3 SWAP2 POP POP JUMP JUMPDEST PUSH1 0x0 PUSH1 0x20 DUP3 DUP5 SUB SLT ISZERO PUSH2 0x793 JUMPI PUSH1 0x0 DUP1 REVERT JUMPDEST PUSH1 0x0 PUSH2 0x7A1 DUP5 DUP3 DUP6 ADD PUSH2 0x6DF JUMP JUMPDEST SWAP2 POP POP SWAP3 SWAP2 POP POP JUMP JUMPDEST PUSH1 0x0 DUP1 PUSH1 0x0 DUP1 PUSH2 0x180 DUP6 DUP8 SUB SLT ISZERO PUSH2 0x7C1 JUMPI PUSH1 0x0 DUP1 REVERT JUMPDEST PUSH1 0x0 PUSH2 0x7CF DUP8 DUP3 DUP9 ADD PUSH2 0x6F4 JUMP JUMPDEST SWAP5 POP POP PUSH1 0x20 PUSH2 0x7E0 DUP8 DUP3 DUP9 ADD PUSH2 0x757 JUMP JUMPDEST SWAP4 POP POP PUSH1 0x40 PUSH2 0x7F1 DUP8 DUP3 DUP9 ADD PUSH2 0x757 JUMP JUMPDEST SWAP3 POP POP PUSH1 0x60 PUSH2 0x802 DUP8 DUP3 DUP9 ADD PUSH2 0x730 JUMP JUMPDEST SWAP2 POP POP SWAP3 SWAP6 SWAP2 SWAP5 POP SWAP3 POP JUMP JUMPDEST PUSH1 0x0 PUSH1 0xC0 DUP3 DUP5 SUB SLT ISZERO PUSH2 0x820 JUMPI PUSH1 0x0 DUP1 REVERT JUMPDEST PUSH1 0x0 PUSH2 0x82E DUP5 DUP3 DUP6 ADD PUSH2 0x709 JUMP JUMPDEST SWAP2 POP POP SWAP3 SWAP2 POP POP JUMP JUMPDEST PUSH2 0x840 DUP2 PUSH2 0xAA7 JUMP JUMPDEST DUP3 MSTORE POP POP JUMP JUMPDEST PUSH2 0x84F DUP2 PUSH2 0xAB9 JUMP JUMPDEST DUP3 MSTORE POP POP JUMP JUMPDEST PUSH2 0x85E DUP2 PUSH2 0xB01 JUMP JUMPDEST DUP3 MSTORE POP POP JUMP JUMPDEST PUSH2 0x86D DUP2 PUSH2 0xAF7 JUMP JUMPDEST DUP3 MSTORE POP POP JUMP JUMPDEST PUSH1 0x0 PUSH2 0x180 DUP3 ADD SWAP1 POP PUSH2 0x889 PUSH1 0x0 DUP4 ADD DUP16 PUSH2 0x837 JUMP JUMPDEST PUSH2 0x896 PUSH1 0x20 DUP4 ADD DUP15 PUSH2 0x855 JUMP JUMPDEST PUSH2 0x8A3 PUSH1 0x40 DUP4 ADD DUP14 PUSH2 0x855 JUMP JUMPDEST PUSH2 0x8B0 PUSH1 0x60 DUP4 ADD DUP13 PUSH2 0x864 JUMP JUMPDEST PUSH2 0x8BD PUSH1 0x80 DUP4 ADD DUP12 PUSH2 0x864 JUMP JUMPDEST PUSH2 0x8CA PUSH1 0xA0 DUP4 ADD DUP11 PUSH2 0x864 JUMP JUMPDEST PUSH2 0x8D7 PUSH1 0xC0 DUP4 ADD DUP10 PUSH2 0x864 JUMP JUMPDEST PUSH2 0x8E4 PUSH1 0xE0 DUP4 ADD DUP9 PUSH2 0x864 JUMP JUMPDEST PUSH2 0x8F2 PUSH2 0x100 DUP4 ADD DUP8 PUSH2 0x864 JUMP JUMPDEST PUSH2 0x900 PUSH2 0x120 DUP4 ADD DUP7 PUSH2 0x864 JUMP JUMPDEST PUSH2 0x90E PUSH2 0x140 DUP4 ADD DUP6 PUSH2 0x864 JUMP JUMPDEST PUSH2 0x91C PUSH2 0x160 DUP4 ADD DUP5 PUSH2 0x864 JUMP JUMPDEST SWAP14 SWAP13 POP POP POP POP POP POP POP POP POP POP POP POP POP JUMP JUMPDEST PUSH1 0x0 PUSH1 0xE0 DUP3 ADD SWAP1 POP PUSH2 0x942 PUSH1 0x0 DUP4 ADD DUP11 PUSH2 0x837 JUMP JUMPDEST PUSH2 0x94F PUSH1 0x20 DUP4 ADD DUP10 PUSH2 0x864 JUMP JUMPDEST PUSH2 0x95C PUSH1 0x40 DUP4 ADD DUP9 PUSH2 0x864 JUMP JUMPDEST PUSH2 0x969 PUSH1 0x60 DUP4 ADD DUP8 PUSH2 0x864 JUMP JUMPDEST PUSH2 0x976 PUSH1 0x80 DUP4 ADD DUP7 PUSH2 0x864 JUMP JUMPDEST PUSH2 0x983 PUSH1 0xA0 DUP4 ADD DUP6 PUSH2 0x846 JUMP JUMPDEST PUSH2 0x990 PUSH1 0xC0 DUP4 ADD DUP5 PUSH2 0x846 JUMP JUMPDEST SWAP9 SWAP8 POP POP POP POP POP POP POP POP JUMP JUMPDEST PUSH1 0x0 PUSH1 0x20 DUP3 ADD SWAP1 POP PUSH2 0x9B1 PUSH1 0x0 DUP4 ADD DUP5 PUSH2 0x864 JUMP JUMPDEST SWAP3 SWAP2 POP POP JUMP JUMPDEST PUSH1 0x0 PUSH1 0xC0 DUP3 ADD SWAP1 POP PUSH2 0x9CC PUSH1 0x0 DUP4 ADD DUP10 PUSH2 0x864 JUMP JUMPDEST PUSH2 0x9D9 PUSH1 0x20 DUP4 ADD DUP9 PUSH2 0x864 JUMP JUMPDEST PUSH2 0x9E6 PUSH1 0x40 DUP4 ADD DUP8 PUSH2 0x864 JUMP JUMPDEST PUSH2 0x9F3 PUSH1 0x60 DUP4 ADD DUP7 PUSH2 0x864 JUMP JUMPDEST PUSH2 0xA00 PUSH1 0x80 DUP4 ADD DUP6 PUSH2 0x864 JUMP JUMPDEST PUSH2 0xA0D PUSH1 0xA0 DUP4 ADD DUP5 PUSH2 0x864 JUMP JUMPDEST SWAP8 SWAP7 POP POP POP POP POP POP POP JUMP JUMPDEST PUSH1 0x0 PUSH1 0x40 MLOAD SWAP1 POP DUP2 DUP2 ADD DUP2 DUP2 LT PUSH8 0xFFFFFFFFFFFFFFFF DUP3 GT OR ISZERO PUSH2 0xA3F JUMPI PUSH2 0xA3E PUSH2 0xB25 JUMP JUMPDEST JUMPDEST DUP1 PUSH1 0x40 MSTORE POP SWAP2 SWAP1 POP JUMP JUMPDEST PUSH1 0x0 PUSH8 0xFFFFFFFFFFFFFFFF DUP3 GT ISZERO PUSH2 0xA64 JUMPI PUSH2 0xA63 PUSH2 0xB25 JUMP JUMPDEST JUMPDEST PUSH1 0x20 DUP3 MUL SWAP1 POP SWAP2 SWAP1 POP JUMP JUMPDEST PUSH1 0x0 PUSH8 0xFFFFFFFFFFFFFFFF DUP3 GT ISZERO PUSH2 0xA8A JUMPI PUSH2 0xA89 PUSH2 0xB25 JUMP JUMPDEST JUMPDEST PUSH1 0x20 DUP3 MUL SWAP1 POP SWAP2 SWAP1 POP JUMP JUMPDEST PUSH1 0x0 PUSH2 0xAA0 DUP3 PUSH2 0xAD7 JUMP JUMPDEST SWAP1 POP SWAP2 SWAP1 POP JUMP JUMPDEST PUSH1 0x0 PUSH2 0xAB2 DUP3 PUSH2 0xAD7 JUMP JUMPDEST SWAP1 POP SWAP2 SWAP1 POP JUMP JUMPDEST PUSH1 0x0 DUP2 ISZERO ISZERO SWAP1 POP SWAP2 SWAP1 POP JUMP JUMPDEST PUSH1 0x0 PUSH2 0xAD0 DUP3 PUSH2 0xA95 JUMP JUMPDEST SWAP1 POP SWAP2 SWAP1 POP JUMP JUMPDEST PUSH1 0x0 PUSH20 0xFFFFFFFFFFFFFFFFFFFFFFFFFFFFFFFFFFFFFFFF DUP3 AND SWAP1 POP SWAP2 SWAP1 POP JUMP JUMPDEST PUSH1 0x0 DUP2 SWAP1 POP SWAP2 SWAP1 POP JUMP JUMPDEST PUSH1 0x0 PUSH2 0xB0C DUP3 PUSH2 0xB13 JUMP JUMPDEST SWAP1 POP SWAP2 SWAP1 POP JUMP JUMPDEST PUSH1 0x0 PUSH2 0xB1E DUP3 PUSH2 0xAD7 JUMP JUMPDEST SWAP1 POP SWAP2 SWAP1 POP JUMP JUMPDEST PUSH32 0x4E487B7100000000000000000000000000000000000000000000000000000000 PUSH1 0x0 MSTORE PUSH1 0x41 PUSH1 0x4 MSTORE PUSH1 0x24 PUSH1 0x0 REVERT JUMPDEST PUSH2 0xB5D DUP2 PUSH2 0xA95 JUMP JUMPDEST DUP2 EQ PUSH2 0xB68 JUMPI PUSH1 0x0 DUP1 REVERT JUMPDEST POP JUMP JUMPDEST PUSH2 0xB74 DUP2 PUSH2 0xAA7 JUMP JUMPDEST DUP2 EQ PUSH2 0xB7F JUMPI PUSH1 0x0 DUP1 REVERT JUMPDEST POP JUMP JUMPDEST PUSH2 0xB8B DUP2 PUSH2 0xAC5 JUMP JUMPDEST DUP2 EQ PUSH2 0xB96 JUMPI PUSH1 0x0 DUP1 REVERT JUMPDEST POP JUMP JUMPDEST PUSH2 0xBA2 DUP2 PUSH2 0xAF7 JUMP JUMPDEST DUP2 EQ PUSH2 0xBAD JUMPI PUSH1 0x0 DUP1 REVERT JUMPDEST POP JUMP INVALID LOG2 PUSH5 0x6970667358 0x22 SLT KECCAK256 GASPRICE 0xD7 0xAD CALLVALUE 0xEC PUSH22 0x7EB1416DAD32120B59CA038E6686070DBE37836E7877 0x25 EQ INVALID 0xFB PUSH5 0x736F6C6343 STOP ADDMOD STOP STOP CALLER "
				},
				"gasEstimates": {
					"creation": {
						"codeDepositCost": "609200",
						"executionCost": "645",
						"totalCost": "609845"
					},
					"external": {
						"buyerInfo(address)": "infinite",
						"initialBuyerInfo(uint256[6])": "infinite",
						"initialSaleInfor(address,address,address,uint256[9])": "infinite",
						"presaleStatus()": "infinite",
						"saleInfor()": "infinite",
						"userFee(address)": "1514"
					}
				},
				"methodIdentifiers": {
					"buyerInfo(address)": "e2d3f423",
					"initialBuyerInfo(uint256[6])": "76afac76",
					"initialSaleInfor(address,address,address,uint256[9])": "8f1eae4c",
					"presaleStatus()": "acfb2355",
					"saleInfor()": "18856a2f",
					"userFee(address)": "56c5f349"
				}
			},
			"storageLayout": {
				"storage": [
					{
						"astId": 140,
						"contract": "Ethereum/Presale.sol:Presale",
						"label": "buyerInfo",
						"offset": 0,
						"slot": "0",
						"type": "t_mapping(t_address,t_struct(BuyerInfo)122_storage)"
					},
					{
						"astId": 144,
						"contract": "Ethereum/Presale.sol:Presale",
						"label": "userFee",
						"offset": 0,
						"slot": "1",
						"type": "t_mapping(t_address,t_uint256)"
					},
					{
						"astId": 147,
						"contract": "Ethereum/Presale.sol:Presale",
						"label": "presaleStatus",
						"offset": 0,
						"slot": "2",
						"type": "t_struct(PresaleStatus)135_storage"
					},
					{
						"astId": 150,
						"contract": "Ethereum/Presale.sol:Presale",
						"label": "saleInfor",
						"offset": 0,
						"slot": "8",
						"type": "t_struct(SaleInfor)107_storage"
					}
				],
				"types": {
					"t_address": {
						"encoding": "inplace",
						"label": "address",
						"numberOfBytes": "20"
					},
					"t_address_payable": {
						"encoding": "inplace",
						"label": "address payable",
						"numberOfBytes": "20"
					},
					"t_bool": {
						"encoding": "inplace",
						"label": "bool",
						"numberOfBytes": "1"
					},
					"t_contract(IERC20)77": {
						"encoding": "inplace",
						"label": "contract IERC20",
						"numberOfBytes": "20"
					},
					"t_mapping(t_address,t_struct(BuyerInfo)122_storage)": {
						"encoding": "mapping",
						"key": "t_address",
						"label": "mapping(address => struct Presale.BuyerInfo)",
						"numberOfBytes": "32",
						"value": "t_struct(BuyerInfo)122_storage"
					},
					"t_mapping(t_address,t_uint256)": {
						"encoding": "mapping",
						"key": "t_address",
						"label": "mapping(address => uint256)",
						"numberOfBytes": "32",
						"value": "t_uint256"
					},
					"t_struct(BuyerInfo)122_storage": {
						"encoding": "inplace",
						"label": "struct Presale.BuyerInfo",
						"members": [
							{
								"astId": 109,
								"contract": "Ethereum/Presale.sol:Presale",
								"label": "buyer",
								"offset": 0,
								"slot": "0",
								"type": "t_address_payable"
							},
							{
								"astId": 111,
								"contract": "Ethereum/Presale.sol:Presale",
								"label": "baseDeposit",
								"offset": 0,
								"slot": "1",
								"type": "t_uint256"
							},
							{
								"astId": 113,
								"contract": "Ethereum/Presale.sol:Presale",
								"label": "tokenOwner",
								"offset": 0,
								"slot": "2",
								"type": "t_uint256"
							},
							{
								"astId": 115,
								"contract": "Ethereum/Presale.sol:Presale",
								"label": "lastWithDraw",
								"offset": 0,
								"slot": "3",
								"type": "t_uint256"
							},
							{
								"astId": 117,
								"contract": "Ethereum/Presale.sol:Presale",
								"label": "totalTokenWithDraw",
								"offset": 0,
								"slot": "4",
								"type": "t_uint256"
							},
							{
								"astId": 119,
								"contract": "Ethereum/Presale.sol:Presale",
								"label": "isRefund",
								"offset": 0,
								"slot": "5",
								"type": "t_bool"
							},
							{
								"astId": 121,
								"contract": "Ethereum/Presale.sol:Presale",
								"label": "isClaim",
								"offset": 1,
								"slot": "5",
								"type": "t_bool"
							}
						],
						"numberOfBytes": "192"
					},
					"t_struct(PresaleStatus)135_storage": {
						"encoding": "inplace",
						"label": "struct Presale.PresaleStatus",
						"members": [
							{
								"astId": 124,
								"contract": "Ethereum/Presale.sol:Presale",
								"label": "totalBaseCollected",
								"offset": 0,
								"slot": "0",
								"type": "t_uint256"
							},
							{
								"astId": 126,
								"contract": "Ethereum/Presale.sol:Presale",
								"label": "totalTokenSold",
								"offset": 0,
								"slot": "1",
								"type": "t_uint256"
							},
							{
								"astId": 128,
								"contract": "Ethereum/Presale.sol:Presale",
								"label": "totalTokenWithDraw",
								"offset": 0,
								"slot": "2",
								"type": "t_uint256"
							},
							{
								"astId": 130,
								"contract": "Ethereum/Presale.sol:Presale",
								"label": "totalBaseWithDraw",
								"offset": 0,
								"slot": "3",
								"type": "t_uint256"
							},
							{
								"astId": 132,
								"contract": "Ethereum/Presale.sol:Presale",
								"label": "numByer",
								"offset": 0,
								"slot": "4",
								"type": "t_uint256"
							},
							{
								"astId": 134,
								"contract": "Ethereum/Presale.sol:Presale",
								"label": "totalFee",
								"offset": 0,
								"slot": "5",
								"type": "t_uint256"
							}
						],
						"numberOfBytes": "192"
					},
					"t_struct(SaleInfor)107_storage": {
						"encoding": "inplace",
						"label": "struct Presale.SaleInfor",
						"members": [
							{
								"astId": 82,
								"contract": "Ethereum/Presale.sol:Presale",
								"label": "presaleOwner",
								"offset": 0,
								"slot": "0",
								"type": "t_address_payable"
							},
							{
								"astId": 85,
								"contract": "Ethereum/Presale.sol:Presale",
								"label": "saleToken",
								"offset": 0,
								"slot": "1",
								"type": "t_contract(IERC20)77"
							},
							{
								"astId": 88,
								"contract": "Ethereum/Presale.sol:Presale",
								"label": "baseToken",
								"offset": 0,
								"slot": "2",
								"type": "t_contract(IERC20)77"
							},
							{
								"astId": 90,
								"contract": "Ethereum/Presale.sol:Presale",
								"label": "tokenPrice",
								"offset": 0,
								"slot": "3",
								"type": "t_uint256"
							},
							{
								"astId": 92,
								"contract": "Ethereum/Presale.sol:Presale",
								"label": "startSale",
								"offset": 0,
								"slot": "4",
								"type": "t_uint256"
							},
							{
								"astId": 94,
								"contract": "Ethereum/Presale.sol:Presale",
								"label": "endSale",
								"offset": 0,
								"slot": "5",
								"type": "t_uint256"
							},
							{
								"astId": 96,
								"contract": "Ethereum/Presale.sol:Presale",
								"label": "valueSwapERC20",
								"offset": 0,
								"slot": "6",
								"type": "t_uint256"
							},
							{
								"astId": 98,
								"contract": "Ethereum/Presale.sol:Presale",
								"label": "feeTransaction",
								"offset": 0,
								"slot": "7",
								"type": "t_uint256"
							},
							{
								"astId": 100,
								"contract": "Ethereum/Presale.sol:Presale",
								"label": "minSpendPerBuyer",
								"offset": 0,
								"slot": "8",
								"type": "t_uint256"
							},
							{
								"astId": 102,
								"contract": "Ethereum/Presale.sol:Presale",
								"label": "maxSpendPerBuyer",
								"offset": 0,
								"slot": "9",
								"type": "t_uint256"
							},
							{
								"astId": 104,
								"contract": "Ethereum/Presale.sol:Presale",
								"label": "refundFee",
								"offset": 0,
								"slot": "10",
								"type": "t_uint256"
							},
							{
								"astId": 106,
								"contract": "Ethereum/Presale.sol:Presale",
								"label": "claimFee",
								"offset": 0,
								"slot": "11",
								"type": "t_uint256"
							}
						],
						"numberOfBytes": "384"
					},
					"t_uint256": {
						"encoding": "inplace",
						"label": "uint256",
						"numberOfBytes": "32"
					}
				}
			},
			"userdoc": {
				"kind": "user",
				"methods": {},
				"version": 1
			}
		}
	}
}