{
	"Ethereum/Presale.sol": {
		"Presale": {
			"abi": [
				{
					"inputs": [
						{
							"internalType": "address",
							"name": "",
							"type": "address"
						}
					],
					"name": "buyerInfo",
					"outputs": [
						{
							"internalType": "uint256",
							"name": "baseDeposit",
							"type": "uint256"
						},
						{
							"internalType": "uint256",
							"name": "tokenOwner",
							"type": "uint256"
						},
						{
							"internalType": "uint256",
							"name": "lastWithDraw",
							"type": "uint256"
						},
						{
							"internalType": "uint256",
							"name": "totalTokenWithDraw",
							"type": "uint256"
						},
						{
							"internalType": "bool",
							"name": "isRefund",
							"type": "bool"
						},
						{
							"internalType": "bool",
							"name": "isClaim",
							"type": "bool"
						}
					],
					"stateMutability": "view",
					"type": "function"
				},
				{
					"inputs": [
						{
							"internalType": "uint256",
							"name": "amount",
							"type": "uint256"
						}
					],
					"name": "depodit",
					"outputs": [],
					"stateMutability": "payable",
					"type": "function"
				},
				{
					"inputs": [
						{
							"internalType": "address payable",
							"name": "_presaleOwner",
							"type": "address"
						},
						{
							"internalType": "contract IERC20",
							"name": "_saleToken",
							"type": "address"
						},
						{
							"internalType": "contract IERC20",
							"name": "_baseTOken",
							"type": "address"
						},
						{
							"internalType": "uint256[9]",
							"name": "datas",
							"type": "uint256[9]"
						}
					],
					"name": "initialSaleInfor",
					"outputs": [],
					"stateMutability": "nonpayable",
					"type": "function"
				},
				{
					"inputs": [],
					"name": "presaleStatus",
					"outputs": [
						{
							"internalType": "uint256",
							"name": "totalBaseCollected",
							"type": "uint256"
						},
						{
							"internalType": "uint256",
							"name": "totalTokenSold",
							"type": "uint256"
						},
						{
							"internalType": "uint256",
							"name": "totalTokenWithDraw",
							"type": "uint256"
						},
						{
							"internalType": "uint256",
							"name": "totalBaseWithDraw",
							"type": "uint256"
						},
						{
							"internalType": "uint256",
							"name": "numByer",
							"type": "uint256"
						},
						{
							"internalType": "uint256",
							"name": "totalFee",
							"type": "uint256"
						}
					],
					"stateMutability": "view",
					"type": "function"
				},
				{
					"inputs": [],
					"name": "saleInfor",
					"outputs": [
						{
							"internalType": "address payable",
							"name": "presaleOwner",
							"type": "address"
						},
						{
							"internalType": "contract IERC20",
							"name": "saleToken",
							"type": "address"
						},
						{
							"internalType": "contract IERC20",
							"name": "baseToken",
							"type": "address"
						},
						{
							"internalType": "uint256",
							"name": "tokenPrice",
							"type": "uint256"
						},
						{
							"internalType": "uint256",
							"name": "startSale",
							"type": "uint256"
						},
						{
							"internalType": "uint256",
							"name": "endSale",
							"type": "uint256"
						},
						{
							"internalType": "uint256",
							"name": "valueSwapERC20",
							"type": "uint256"
						},
						{
							"internalType": "uint256",
							"name": "feeTransaction",
							"type": "uint256"
						},
						{
							"internalType": "uint256",
							"name": "minSpendPerBuyer",
							"type": "uint256"
						},
						{
							"internalType": "uint256",
							"name": "maxSpendPerBuyer",
							"type": "uint256"
						},
						{
							"internalType": "uint256",
							"name": "refundFee",
							"type": "uint256"
						},
						{
							"internalType": "uint256",
							"name": "claimFee",
							"type": "uint256"
						}
					],
					"stateMutability": "view",
					"type": "function"
				},
				{
					"inputs": [
						{
							"internalType": "address",
							"name": "",
							"type": "address"
						}
					],
					"name": "userFee",
					"outputs": [
						{
							"internalType": "uint256",
							"name": "",
							"type": "uint256"
						}
					],
					"stateMutability": "view",
					"type": "function"
				}
			],
			"devdoc": {
				"kind": "dev",
				"methods": {},
				"version": 1
			},
			"evm": {
				"assembly": "    /* \"Ethereum/Presale.sol\":193:2054  contract Presale is ReentrancyGuard{\r... */\n  mstore(0x40, 0x80)\n  callvalue\n  dup1\n  iszero\n  tag_1\n  jumpi\n  0x00\n  dup1\n  revert\ntag_1:\n  pop\n    /* \"Utils/ReentrancyGuard.sol\":1734:1735  1 */\n  0x01\n    /* \"Utils/ReentrancyGuard.sol\":1845:1852  _status */\n  0x00\n    /* \"Utils/ReentrancyGuard.sol\":1845:1867  _status = _NOT_ENTERED */\n  dup2\n  swap1\n  sstore\n  pop\n    /* \"Ethereum/Presale.sol\":193:2054  contract Presale is ReentrancyGuard{\r... */\n  dataSize(sub_0)\n  dup1\n  dataOffset(sub_0)\n  0x00\n  codecopy\n  0x00\n  return\nstop\n\nsub_0: assembly {\n        /* \"Ethereum/Presale.sol\":193:2054  contract Presale is ReentrancyGuard{\r... */\n      mstore(0x40, 0x80)\n      jumpi(tag_1, lt(calldatasize, 0x04))\n      shr(0xe0, calldataload(0x00))\n      dup1\n      0x18856a2f\n      eq\n      tag_2\n      jumpi\n      dup1\n      0x56c5f349\n      eq\n      tag_3\n      jumpi\n      dup1\n      0x79647833\n      eq\n      tag_4\n      jumpi\n      dup1\n      0x8f1eae4c\n      eq\n      tag_5\n      jumpi\n      dup1\n      0xacfb2355\n      eq\n      tag_6\n      jumpi\n      dup1\n      0xe2d3f423\n      eq\n      tag_7\n      jumpi\n    tag_1:\n      0x00\n      dup1\n      revert\n        /* \"Ethereum/Presale.sol\":1222:1248  SaleInfor public saleInfor */\n    tag_2:\n      callvalue\n      dup1\n      iszero\n      tag_8\n      jumpi\n      0x00\n      dup1\n      revert\n    tag_8:\n      pop\n      tag_9\n      tag_10\n      jump\t// in\n    tag_9:\n      mload(0x40)\n      tag_11\n      swap13\n      swap12\n      swap11\n      swap10\n      swap9\n      swap8\n      swap7\n      swap6\n      swap5\n      swap4\n      swap3\n      swap2\n      swap1\n      tag_12\n      jump\t// in\n    tag_11:\n      mload(0x40)\n      dup1\n      swap2\n      sub\n      swap1\n      return\n        /* \"Ethereum/Presale.sol\":1132:1174  mapping(address => uint256) public userFee */\n    tag_3:\n      callvalue\n      dup1\n      iszero\n      tag_13\n      jumpi\n      0x00\n      dup1\n      revert\n    tag_13:\n      pop\n      tag_14\n      0x04\n      dup1\n      calldatasize\n      sub\n      dup2\n      add\n      swap1\n      tag_15\n      swap2\n      swap1\n      tag_16\n      jump\t// in\n    tag_15:\n      tag_17\n      jump\t// in\n    tag_14:\n      mload(0x40)\n      tag_18\n      swap2\n      swap1\n      tag_19\n      jump\t// in\n    tag_18:\n      mload(0x40)\n      dup1\n      swap2\n      sub\n      swap1\n      return\n        /* \"Ethereum/Presale.sol\":1976:2049  function depodit(uint256 amount) external payable nonReentrant {\r... */\n    tag_4:\n      tag_20\n      0x04\n      dup1\n      calldatasize\n      sub\n      dup2\n      add\n      swap1\n      tag_21\n      swap2\n      swap1\n      tag_22\n      jump\t// in\n    tag_21:\n      tag_23\n      jump\t// in\n    tag_20:\n      stop\n        /* \"Ethereum/Presale.sol\":1257:1963  function initialSaleInfor(\r... */\n    tag_5:\n      callvalue\n      dup1\n      iszero\n      tag_24\n      jumpi\n      0x00\n      dup1\n      revert\n    tag_24:\n      pop\n      tag_25\n      0x04\n      dup1\n      calldatasize\n      sub\n      dup2\n      add\n      swap1\n      tag_26\n      swap2\n      swap1\n      tag_27\n      jump\t// in\n    tag_26:\n      tag_28\n      jump\t// in\n    tag_25:\n      stop\n        /* \"Ethereum/Presale.sol\":1181:1215  PresaleStatus public presaleStatus */\n    tag_6:\n      callvalue\n      dup1\n      iszero\n      tag_29\n      jumpi\n      0x00\n      dup1\n      revert\n    tag_29:\n      pop\n      tag_30\n      tag_31\n      jump\t// in\n    tag_30:\n      mload(0x40)\n      tag_32\n      swap7\n      swap6\n      swap5\n      swap4\n      swap3\n      swap2\n      swap1\n      tag_33\n      jump\t// in\n    tag_32:\n      mload(0x40)\n      dup1\n      swap2\n      sub\n      swap1\n      return\n        /* \"Ethereum/Presale.sol\":1079:1125  mapping(address => BuyerInfo) public buyerInfo */\n    tag_7:\n      callvalue\n      dup1\n      iszero\n      tag_34\n      jumpi\n      0x00\n      dup1\n      revert\n    tag_34:\n      pop\n      tag_35\n      0x04\n      dup1\n      calldatasize\n      sub\n      dup2\n      add\n      swap1\n      tag_36\n      swap2\n      swap1\n      tag_16\n      jump\t// in\n    tag_36:\n      tag_37\n      jump\t// in\n    tag_35:\n      mload(0x40)\n      tag_38\n      swap7\n      swap6\n      swap5\n      swap4\n      swap3\n      swap2\n      swap1\n      tag_39\n      jump\t// in\n    tag_38:\n      mload(0x40)\n      dup1\n      swap2\n      sub\n      swap1\n      return\n        /* \"Ethereum/Presale.sol\":1222:1248  SaleInfor public saleInfor */\n    tag_10:\n      0x09\n      dup1\n      0x00\n      add\n      0x00\n      swap1\n      sload\n      swap1\n      0x0100\n      exp\n      swap1\n      div\n      0xffffffffffffffffffffffffffffffffffffffff\n      and\n      swap1\n      dup1\n      0x01\n      add\n      0x00\n      swap1\n      sload\n      swap1\n      0x0100\n      exp\n      swap1\n      div\n      0xffffffffffffffffffffffffffffffffffffffff\n      and\n      swap1\n      dup1\n      0x02\n      add\n      0x00\n      swap1\n      sload\n      swap1\n      0x0100\n      exp\n      swap1\n      div\n      0xffffffffffffffffffffffffffffffffffffffff\n      and\n      swap1\n      dup1\n      0x03\n      add\n      sload\n      swap1\n      dup1\n      0x04\n      add\n      sload\n      swap1\n      dup1\n      0x05\n      add\n      sload\n      swap1\n      dup1\n      0x06\n      add\n      sload\n      swap1\n      dup1\n      0x07\n      add\n      sload\n      swap1\n      dup1\n      0x08\n      add\n      sload\n      swap1\n      dup1\n      0x09\n      add\n      sload\n      swap1\n      dup1\n      0x0a\n      add\n      sload\n      swap1\n      dup1\n      0x0b\n      add\n      sload\n      swap1\n      pop\n      dup13\n      jump\t// out\n        /* \"Ethereum/Presale.sol\":1132:1174  mapping(address => uint256) public userFee */\n    tag_17:\n      mstore(0x20, 0x02)\n      dup1\n      0x00\n      mstore\n      keccak256(0x00, 0x40)\n      0x00\n      swap2\n      pop\n      swap1\n      pop\n      sload\n      dup2\n      jump\t// out\n        /* \"Ethereum/Presale.sol\":1976:2049  function depodit(uint256 amount) external payable nonReentrant {\r... */\n    tag_23:\n        /* \"Utils/ReentrancyGuard.sol\":1778:1779  2 */\n      0x02\n        /* \"Utils/ReentrancyGuard.sol\":2376:2383  _status */\n      sload(0x00)\n        /* \"Utils/ReentrancyGuard.sol\":2376:2395  _status != _ENTERED */\n      eq\n      iszero\n        /* \"Utils/ReentrancyGuard.sol\":2368:2431  require(_status != _ENTERED, \"ReentrancyGuard: reentrant call\") */\n      tag_41\n      jumpi\n      mload(0x40)\n      0x08c379a000000000000000000000000000000000000000000000000000000000\n      dup2\n      mstore\n      0x04\n      add\n      tag_42\n      swap1\n      tag_43\n      jump\t// in\n    tag_42:\n      mload(0x40)\n      dup1\n      swap2\n      sub\n      swap1\n      revert\n    tag_41:\n        /* \"Utils/ReentrancyGuard.sol\":1778:1779  2 */\n      0x02\n        /* \"Utils/ReentrancyGuard.sol\":2509:2516  _status */\n      0x00\n        /* \"Utils/ReentrancyGuard.sol\":2509:2527  _status = _ENTERED */\n      dup2\n      swap1\n      sstore\n      pop\n        /* \"Utils/ReentrancyGuard.sol\":1734:1735  1 */\n      0x01\n        /* \"Utils/ReentrancyGuard.sol\":2688:2695  _status */\n      0x00\n        /* \"Utils/ReentrancyGuard.sol\":2688:2710  _status = _NOT_ENTERED */\n      dup2\n      swap1\n      sstore\n      pop\n        /* \"Ethereum/Presale.sol\":1976:2049  function depodit(uint256 amount) external payable nonReentrant {\r... */\n      pop\n      jump\t// out\n        /* \"Ethereum/Presale.sol\":1257:1963  function initialSaleInfor(\r... */\n    tag_28:\n        /* \"Ethereum/Presale.sol\":1465:1478  _presaleOwner */\n      dup4\n        /* \"Ethereum/Presale.sol\":1440:1449  saleInfor */\n      0x09\n        /* \"Ethereum/Presale.sol\":1440:1462  saleInfor.presaleOwner */\n      0x00\n      add\n      0x00\n        /* \"Ethereum/Presale.sol\":1440:1478  saleInfor.presaleOwner = _presaleOwner */\n      0x0100\n      exp\n      dup2\n      sload\n      dup2\n      0xffffffffffffffffffffffffffffffffffffffff\n      mul\n      not\n      and\n      swap1\n      dup4\n      0xffffffffffffffffffffffffffffffffffffffff\n      and\n      mul\n      or\n      swap1\n      sstore\n      pop\n        /* \"Ethereum/Presale.sol\":1511:1521  _saleToken */\n      dup3\n        /* \"Ethereum/Presale.sol\":1489:1498  saleInfor */\n      0x09\n        /* \"Ethereum/Presale.sol\":1489:1508  saleInfor.saleToken */\n      0x01\n      add\n      0x00\n        /* \"Ethereum/Presale.sol\":1489:1521  saleInfor.saleToken = _saleToken */\n      0x0100\n      exp\n      dup2\n      sload\n      dup2\n      0xffffffffffffffffffffffffffffffffffffffff\n      mul\n      not\n      and\n      swap1\n      dup4\n      0xffffffffffffffffffffffffffffffffffffffff\n      and\n      mul\n      or\n      swap1\n      sstore\n      pop\n        /* \"Ethereum/Presale.sol\":1554:1564  _baseTOken */\n      dup2\n        /* \"Ethereum/Presale.sol\":1532:1541  saleInfor */\n      0x09\n        /* \"Ethereum/Presale.sol\":1532:1551  saleInfor.baseToken */\n      0x02\n      add\n      0x00\n        /* \"Ethereum/Presale.sol\":1532:1564  saleInfor.baseToken = _baseTOken */\n      0x0100\n      exp\n      dup2\n      sload\n      dup2\n      0xffffffffffffffffffffffffffffffffffffffff\n      mul\n      not\n      and\n      swap1\n      dup4\n      0xffffffffffffffffffffffffffffffffffffffff\n      and\n      mul\n      or\n      swap1\n      sstore\n      pop\n        /* \"Ethereum/Presale.sol\":1598:1603  datas */\n      dup1\n        /* \"Ethereum/Presale.sol\":1604:1605  0 */\n      0x00\n        /* \"Ethereum/Presale.sol\":1598:1606  datas[0] */\n      0x09\n      dup2\n      lt\n      tag_46\n      jumpi\n      mstore(0x00, 0x4e487b7100000000000000000000000000000000000000000000000000000000)\n      mstore(0x04, 0x32)\n      revert(0x00, 0x24)\n    tag_46:\n      0x20\n      mul\n      add\n      mload\n        /* \"Ethereum/Presale.sol\":1575:1584  saleInfor */\n      0x09\n        /* \"Ethereum/Presale.sol\":1575:1595  saleInfor.tokenPrice */\n      0x03\n      add\n        /* \"Ethereum/Presale.sol\":1575:1606  saleInfor.tokenPrice = datas[0] */\n      dup2\n      swap1\n      sstore\n      pop\n        /* \"Ethereum/Presale.sol\":1639:1644  datas */\n      dup1\n        /* \"Ethereum/Presale.sol\":1645:1646  1 */\n      0x01\n        /* \"Ethereum/Presale.sol\":1639:1647  datas[1] */\n      0x09\n      dup2\n      lt\n      tag_47\n      jumpi\n      mstore(0x00, 0x4e487b7100000000000000000000000000000000000000000000000000000000)\n      mstore(0x04, 0x32)\n      revert(0x00, 0x24)\n    tag_47:\n      0x20\n      mul\n      add\n      mload\n        /* \"Ethereum/Presale.sol\":1617:1626  saleInfor */\n      0x09\n        /* \"Ethereum/Presale.sol\":1617:1636  saleInfor.startSale */\n      0x04\n      add\n        /* \"Ethereum/Presale.sol\":1617:1647  saleInfor.startSale = datas[1] */\n      dup2\n      swap1\n      sstore\n      pop\n        /* \"Ethereum/Presale.sol\":1678:1683  datas */\n      dup1\n        /* \"Ethereum/Presale.sol\":1684:1685  2 */\n      0x02\n        /* \"Ethereum/Presale.sol\":1678:1686  datas[2] */\n      0x09\n      dup2\n      lt\n      tag_48\n      jumpi\n      mstore(0x00, 0x4e487b7100000000000000000000000000000000000000000000000000000000)\n      mstore(0x04, 0x32)\n      revert(0x00, 0x24)\n    tag_48:\n      0x20\n      mul\n      add\n      mload\n        /* \"Ethereum/Presale.sol\":1658:1667  saleInfor */\n      0x09\n        /* \"Ethereum/Presale.sol\":1658:1675  saleInfor.endSale */\n      0x05\n      add\n        /* \"Ethereum/Presale.sol\":1658:1686  saleInfor.endSale = datas[2] */\n      dup2\n      swap1\n      sstore\n      pop\n        /* \"Ethereum/Presale.sol\":1724:1729  datas */\n      dup1\n        /* \"Ethereum/Presale.sol\":1730:1731  3 */\n      0x03\n        /* \"Ethereum/Presale.sol\":1724:1732  datas[3] */\n      0x09\n      dup2\n      lt\n      tag_49\n      jumpi\n      mstore(0x00, 0x4e487b7100000000000000000000000000000000000000000000000000000000)\n      mstore(0x04, 0x32)\n      revert(0x00, 0x24)\n    tag_49:\n      0x20\n      mul\n      add\n      mload\n        /* \"Ethereum/Presale.sol\":1697:1706  saleInfor */\n      0x09\n        /* \"Ethereum/Presale.sol\":1697:1721  saleInfor.valueSwapERC20 */\n      0x06\n      add\n        /* \"Ethereum/Presale.sol\":1697:1732  saleInfor.valueSwapERC20 = datas[3] */\n      dup2\n      swap1\n      sstore\n      pop\n        /* \"Ethereum/Presale.sol\":1770:1775  datas */\n      dup1\n        /* \"Ethereum/Presale.sol\":1776:1777  4 */\n      0x04\n        /* \"Ethereum/Presale.sol\":1770:1778  datas[4] */\n      0x09\n      dup2\n      lt\n      tag_50\n      jumpi\n      mstore(0x00, 0x4e487b7100000000000000000000000000000000000000000000000000000000)\n      mstore(0x04, 0x32)\n      revert(0x00, 0x24)\n    tag_50:\n      0x20\n      mul\n      add\n      mload\n        /* \"Ethereum/Presale.sol\":1743:1752  saleInfor */\n      0x09\n        /* \"Ethereum/Presale.sol\":1743:1767  saleInfor.feeTransaction */\n      0x07\n      add\n        /* \"Ethereum/Presale.sol\":1743:1778  saleInfor.feeTransaction = datas[4] */\n      dup2\n      swap1\n      sstore\n      pop\n        /* \"Ethereum/Presale.sol\":1818:1823  datas */\n      dup1\n        /* \"Ethereum/Presale.sol\":1824:1825  5 */\n      0x05\n        /* \"Ethereum/Presale.sol\":1818:1826  datas[5] */\n      0x09\n      dup2\n      lt\n      tag_51\n      jumpi\n      mstore(0x00, 0x4e487b7100000000000000000000000000000000000000000000000000000000)\n      mstore(0x04, 0x32)\n      revert(0x00, 0x24)\n    tag_51:\n      0x20\n      mul\n      add\n      mload\n        /* \"Ethereum/Presale.sol\":1789:1798  saleInfor */\n      0x09\n        /* \"Ethereum/Presale.sol\":1789:1815  saleInfor.minSpendPerBuyer */\n      0x08\n      add\n        /* \"Ethereum/Presale.sol\":1789:1826  saleInfor.minSpendPerBuyer = datas[5] */\n      dup2\n      swap1\n      sstore\n      pop\n        /* \"Ethereum/Presale.sol\":1866:1871  datas */\n      dup1\n        /* \"Ethereum/Presale.sol\":1872:1873  6 */\n      0x06\n        /* \"Ethereum/Presale.sol\":1866:1874  datas[6] */\n      0x09\n      dup2\n      lt\n      tag_52\n      jumpi\n      mstore(0x00, 0x4e487b7100000000000000000000000000000000000000000000000000000000)\n      mstore(0x04, 0x32)\n      revert(0x00, 0x24)\n    tag_52:\n      0x20\n      mul\n      add\n      mload\n        /* \"Ethereum/Presale.sol\":1837:1846  saleInfor */\n      0x09\n        /* \"Ethereum/Presale.sol\":1837:1863  saleInfor.maxSpendPerBuyer */\n      dup1\n      add\n        /* \"Ethereum/Presale.sol\":1837:1874  saleInfor.maxSpendPerBuyer = datas[6] */\n      dup2\n      swap1\n      sstore\n      pop\n        /* \"Ethereum/Presale.sol\":1907:1912  datas */\n      dup1\n        /* \"Ethereum/Presale.sol\":1913:1914  7 */\n      0x07\n        /* \"Ethereum/Presale.sol\":1907:1915  datas[7] */\n      0x09\n      dup2\n      lt\n      tag_53\n      jumpi\n      mstore(0x00, 0x4e487b7100000000000000000000000000000000000000000000000000000000)\n      mstore(0x04, 0x32)\n      revert(0x00, 0x24)\n    tag_53:\n      0x20\n      mul\n      add\n      mload\n        /* \"Ethereum/Presale.sol\":1885:1894  saleInfor */\n      0x09\n        /* \"Ethereum/Presale.sol\":1885:1904  saleInfor.refundFee */\n      0x0a\n      add\n        /* \"Ethereum/Presale.sol\":1885:1915  saleInfor.refundFee = datas[7] */\n      dup2\n      swap1\n      sstore\n      pop\n        /* \"Ethereum/Presale.sol\":1947:1952  datas */\n      dup1\n        /* \"Ethereum/Presale.sol\":1953:1954  8 */\n      0x08\n        /* \"Ethereum/Presale.sol\":1947:1955  datas[8] */\n      0x09\n      dup2\n      lt\n      tag_54\n      jumpi\n      mstore(0x00, 0x4e487b7100000000000000000000000000000000000000000000000000000000)\n      mstore(0x04, 0x32)\n      revert(0x00, 0x24)\n    tag_54:\n      0x20\n      mul\n      add\n      mload\n        /* \"Ethereum/Presale.sol\":1926:1935  saleInfor */\n      0x09\n        /* \"Ethereum/Presale.sol\":1926:1944  saleInfor.claimFee */\n      0x0b\n      add\n        /* \"Ethereum/Presale.sol\":1926:1955  saleInfor.claimFee = datas[8] */\n      dup2\n      swap1\n      sstore\n      pop\n        /* \"Ethereum/Presale.sol\":1257:1963  function initialSaleInfor(\r... */\n      pop\n      pop\n      pop\n      pop\n      jump\t// out\n        /* \"Ethereum/Presale.sol\":1181:1215  PresaleStatus public presaleStatus */\n    tag_31:\n      0x03\n      dup1\n      0x00\n      add\n      sload\n      swap1\n      dup1\n      0x01\n      add\n      sload\n      swap1\n      dup1\n      0x02\n      add\n      sload\n      swap1\n      dup1\n      0x03\n      add\n      sload\n      swap1\n      dup1\n      0x04\n      add\n      sload\n      swap1\n      dup1\n      0x05\n      add\n      sload\n      swap1\n      pop\n      dup7\n      jump\t// out\n        /* \"Ethereum/Presale.sol\":1079:1125  mapping(address => BuyerInfo) public buyerInfo */\n    tag_37:\n      mstore(0x20, 0x01)\n      dup1\n      0x00\n      mstore\n      keccak256(0x00, 0x40)\n      0x00\n      swap2\n      pop\n      swap1\n      pop\n      dup1\n      0x00\n      add\n      sload\n      swap1\n      dup1\n      0x01\n      add\n      sload\n      swap1\n      dup1\n      0x02\n      add\n      sload\n      swap1\n      dup1\n      0x03\n      add\n      sload\n      swap1\n      dup1\n      0x04\n      add\n      0x00\n      swap1\n      sload\n      swap1\n      0x0100\n      exp\n      swap1\n      div\n      0xff\n      and\n      swap1\n      dup1\n      0x04\n      add\n      0x01\n      swap1\n      sload\n      swap1\n      0x0100\n      exp\n      swap1\n      div\n      0xff\n      and\n      swap1\n      pop\n      dup7\n      jump\t// out\n        /* \"#utility.yul\":25:590   */\n    tag_56:\n      0x00\n        /* \"#utility.yul\":144:222   */\n      tag_58\n        /* \"#utility.yul\":159:221   */\n      tag_59\n        /* \"#utility.yul\":214:220   */\n      dup5\n        /* \"#utility.yul\":159:221   */\n      tag_60\n      jump\t// in\n    tag_59:\n        /* \"#utility.yul\":144:222   */\n      tag_61\n      jump\t// in\n    tag_58:\n        /* \"#utility.yul\":135:222   */\n      swap1\n      pop\n        /* \"#utility.yul\":242:247   */\n      dup1\n        /* \"#utility.yul\":268:274   */\n      dup3\n        /* \"#utility.yul\":318:321   */\n      dup6\n        /* \"#utility.yul\":310:314   */\n      0x20\n        /* \"#utility.yul\":302:308   */\n      dup7\n        /* \"#utility.yul\":298:315   */\n      mul\n        /* \"#utility.yul\":293:296   */\n      dup3\n        /* \"#utility.yul\":289:316   */\n      add\n        /* \"#utility.yul\":286:322   */\n      gt\n        /* \"#utility.yul\":283:285   */\n      iszero\n      tag_62\n      jumpi\n        /* \"#utility.yul\":335:336   */\n      0x00\n        /* \"#utility.yul\":332:333   */\n      dup1\n        /* \"#utility.yul\":325:337   */\n      revert\n        /* \"#utility.yul\":283:285   */\n    tag_62:\n        /* \"#utility.yul\":363:364   */\n      0x00\n        /* \"#utility.yul\":348:584   */\n    tag_63:\n        /* \"#utility.yul\":373:379   */\n      dup6\n        /* \"#utility.yul\":370:371   */\n      dup2\n        /* \"#utility.yul\":367:380   */\n      lt\n        /* \"#utility.yul\":348:584   */\n      iszero\n      tag_65\n      jumpi\n        /* \"#utility.yul\":440:443   */\n      dup2\n        /* \"#utility.yul\":468:505   */\n      tag_66\n        /* \"#utility.yul\":501:504   */\n      dup9\n        /* \"#utility.yul\":489:499   */\n      dup3\n        /* \"#utility.yul\":468:505   */\n      tag_67\n      jump\t// in\n    tag_66:\n        /* \"#utility.yul\":463:466   */\n      dup5\n        /* \"#utility.yul\":456:506   */\n      mstore\n        /* \"#utility.yul\":535:539   */\n      0x20\n        /* \"#utility.yul\":530:533   */\n      dup5\n        /* \"#utility.yul\":526:540   */\n      add\n        /* \"#utility.yul\":519:540   */\n      swap4\n      pop\n        /* \"#utility.yul\":569:573   */\n      0x20\n        /* \"#utility.yul\":564:567   */\n      dup4\n        /* \"#utility.yul\":560:574   */\n      add\n        /* \"#utility.yul\":553:574   */\n      swap3\n      pop\n        /* \"#utility.yul\":408:584   */\n      pop\n        /* \"#utility.yul\":395:396   */\n      0x01\n        /* \"#utility.yul\":392:393   */\n      dup2\n        /* \"#utility.yul\":388:397   */\n      add\n        /* \"#utility.yul\":383:397   */\n      swap1\n      pop\n        /* \"#utility.yul\":348:584   */\n      jump(tag_63)\n    tag_65:\n        /* \"#utility.yul\":352:366   */\n      pop\n        /* \"#utility.yul\":125:590   */\n      pop\n      pop\n      swap4\n      swap3\n      pop\n      pop\n      pop\n      jump\t// out\n        /* \"#utility.yul\":596:735   */\n    tag_68:\n      0x00\n        /* \"#utility.yul\":680:686   */\n      dup2\n        /* \"#utility.yul\":667:687   */\n      calldataload\n        /* \"#utility.yul\":658:687   */\n      swap1\n      pop\n        /* \"#utility.yul\":696:729   */\n      tag_70\n        /* \"#utility.yul\":723:728   */\n      dup2\n        /* \"#utility.yul\":696:729   */\n      tag_71\n      jump\t// in\n    tag_70:\n        /* \"#utility.yul\":648:735   */\n      swap3\n      swap2\n      pop\n      pop\n      jump\t// out\n        /* \"#utility.yul\":741:896   */\n    tag_72:\n      0x00\n        /* \"#utility.yul\":833:839   */\n      dup2\n        /* \"#utility.yul\":820:840   */\n      calldataload\n        /* \"#utility.yul\":811:840   */\n      swap1\n      pop\n        /* \"#utility.yul\":849:890   */\n      tag_74\n        /* \"#utility.yul\":884:889   */\n      dup2\n        /* \"#utility.yul\":849:890   */\n      tag_75\n      jump\t// in\n    tag_74:\n        /* \"#utility.yul\":801:896   */\n      swap3\n      swap2\n      pop\n      pop\n      jump\t// out\n        /* \"#utility.yul\":920:1192   */\n    tag_76:\n      0x00\n        /* \"#utility.yul\":1038:1041   */\n      dup3\n        /* \"#utility.yul\":1031:1035   */\n      0x1f\n        /* \"#utility.yul\":1023:1029   */\n      dup4\n        /* \"#utility.yul\":1019:1036   */\n      add\n        /* \"#utility.yul\":1015:1042   */\n      slt\n        /* \"#utility.yul\":1005:1007   */\n      tag_78\n      jumpi\n        /* \"#utility.yul\":1056:1057   */\n      0x00\n        /* \"#utility.yul\":1053:1054   */\n      dup1\n        /* \"#utility.yul\":1046:1058   */\n      revert\n        /* \"#utility.yul\":1005:1007   */\n    tag_78:\n        /* \"#utility.yul\":1083:1087   */\n      0x09\n        /* \"#utility.yul\":1105:1186   */\n      tag_79\n        /* \"#utility.yul\":1182:1185   */\n      dup5\n        /* \"#utility.yul\":1174:1180   */\n      dup3\n        /* \"#utility.yul\":1166:1172   */\n      dup6\n        /* \"#utility.yul\":1105:1186   */\n      tag_56\n      jump\t// in\n    tag_79:\n        /* \"#utility.yul\":1096:1186   */\n      swap2\n      pop\n        /* \"#utility.yul\":995:1192   */\n      pop\n      swap3\n      swap2\n      pop\n      pop\n      jump\t// out\n        /* \"#utility.yul\":1198:1363   */\n    tag_80:\n      0x00\n        /* \"#utility.yul\":1295:1301   */\n      dup2\n        /* \"#utility.yul\":1282:1302   */\n      calldataload\n        /* \"#utility.yul\":1273:1302   */\n      swap1\n      pop\n        /* \"#utility.yul\":1311:1357   */\n      tag_82\n        /* \"#utility.yul\":1351:1356   */\n      dup2\n        /* \"#utility.yul\":1311:1357   */\n      tag_83\n      jump\t// in\n    tag_82:\n        /* \"#utility.yul\":1263:1363   */\n      swap3\n      swap2\n      pop\n      pop\n      jump\t// out\n        /* \"#utility.yul\":1369:1508   */\n    tag_67:\n      0x00\n        /* \"#utility.yul\":1453:1459   */\n      dup2\n        /* \"#utility.yul\":1440:1460   */\n      calldataload\n        /* \"#utility.yul\":1431:1460   */\n      swap1\n      pop\n        /* \"#utility.yul\":1469:1502   */\n      tag_85\n        /* \"#utility.yul\":1496:1501   */\n      dup2\n        /* \"#utility.yul\":1469:1502   */\n      tag_86\n      jump\t// in\n    tag_85:\n        /* \"#utility.yul\":1421:1508   */\n      swap3\n      swap2\n      pop\n      pop\n      jump\t// out\n        /* \"#utility.yul\":1514:1776   */\n    tag_16:\n      0x00\n        /* \"#utility.yul\":1622:1624   */\n      0x20\n        /* \"#utility.yul\":1610:1619   */\n      dup3\n        /* \"#utility.yul\":1601:1608   */\n      dup5\n        /* \"#utility.yul\":1597:1620   */\n      sub\n        /* \"#utility.yul\":1593:1625   */\n      slt\n        /* \"#utility.yul\":1590:1592   */\n      iszero\n      tag_88\n      jumpi\n        /* \"#utility.yul\":1638:1639   */\n      0x00\n        /* \"#utility.yul\":1635:1636   */\n      dup1\n        /* \"#utility.yul\":1628:1640   */\n      revert\n        /* \"#utility.yul\":1590:1592   */\n    tag_88:\n        /* \"#utility.yul\":1681:1682   */\n      0x00\n        /* \"#utility.yul\":1706:1759   */\n      tag_89\n        /* \"#utility.yul\":1751:1758   */\n      dup5\n        /* \"#utility.yul\":1742:1748   */\n      dup3\n        /* \"#utility.yul\":1731:1740   */\n      dup6\n        /* \"#utility.yul\":1727:1749   */\n      add\n        /* \"#utility.yul\":1706:1759   */\n      tag_68\n      jump\t// in\n    tag_89:\n        /* \"#utility.yul\":1696:1759   */\n      swap2\n      pop\n        /* \"#utility.yul\":1652:1769   */\n      pop\n        /* \"#utility.yul\":1580:1776   */\n      swap3\n      swap2\n      pop\n      pop\n      jump\t// out\n        /* \"#utility.yul\":1782:2594   */\n    tag_27:\n      0x00\n      dup1\n      0x00\n      dup1\n        /* \"#utility.yul\":1998:2001   */\n      0x0180\n        /* \"#utility.yul\":1986:1995   */\n      dup6\n        /* \"#utility.yul\":1977:1984   */\n      dup8\n        /* \"#utility.yul\":1973:1996   */\n      sub\n        /* \"#utility.yul\":1969:2002   */\n      slt\n        /* \"#utility.yul\":1966:1968   */\n      iszero\n      tag_91\n      jumpi\n        /* \"#utility.yul\":2015:2016   */\n      0x00\n        /* \"#utility.yul\":2012:2013   */\n      dup1\n        /* \"#utility.yul\":2005:2017   */\n      revert\n        /* \"#utility.yul\":1966:1968   */\n    tag_91:\n        /* \"#utility.yul\":2058:2059   */\n      0x00\n        /* \"#utility.yul\":2083:2144   */\n      tag_92\n        /* \"#utility.yul\":2136:2143   */\n      dup8\n        /* \"#utility.yul\":2127:2133   */\n      dup3\n        /* \"#utility.yul\":2116:2125   */\n      dup9\n        /* \"#utility.yul\":2112:2134   */\n      add\n        /* \"#utility.yul\":2083:2144   */\n      tag_72\n      jump\t// in\n    tag_92:\n        /* \"#utility.yul\":2073:2144   */\n      swap5\n      pop\n        /* \"#utility.yul\":2029:2154   */\n      pop\n        /* \"#utility.yul\":2193:2195   */\n      0x20\n        /* \"#utility.yul\":2219:2285   */\n      tag_93\n        /* \"#utility.yul\":2277:2284   */\n      dup8\n        /* \"#utility.yul\":2268:2274   */\n      dup3\n        /* \"#utility.yul\":2257:2266   */\n      dup9\n        /* \"#utility.yul\":2253:2275   */\n      add\n        /* \"#utility.yul\":2219:2285   */\n      tag_80\n      jump\t// in\n    tag_93:\n        /* \"#utility.yul\":2209:2285   */\n      swap4\n      pop\n        /* \"#utility.yul\":2164:2295   */\n      pop\n        /* \"#utility.yul\":2334:2336   */\n      0x40\n        /* \"#utility.yul\":2360:2426   */\n      tag_94\n        /* \"#utility.yul\":2418:2425   */\n      dup8\n        /* \"#utility.yul\":2409:2415   */\n      dup3\n        /* \"#utility.yul\":2398:2407   */\n      dup9\n        /* \"#utility.yul\":2394:2416   */\n      add\n        /* \"#utility.yul\":2360:2426   */\n      tag_80\n      jump\t// in\n    tag_94:\n        /* \"#utility.yul\":2350:2426   */\n      swap3\n      pop\n        /* \"#utility.yul\":2305:2436   */\n      pop\n        /* \"#utility.yul\":2475:2477   */\n      0x60\n        /* \"#utility.yul\":2501:2577   */\n      tag_95\n        /* \"#utility.yul\":2569:2576   */\n      dup8\n        /* \"#utility.yul\":2560:2566   */\n      dup3\n        /* \"#utility.yul\":2549:2558   */\n      dup9\n        /* \"#utility.yul\":2545:2567   */\n      add\n        /* \"#utility.yul\":2501:2577   */\n      tag_76\n      jump\t// in\n    tag_95:\n        /* \"#utility.yul\":2491:2577   */\n      swap2\n      pop\n        /* \"#utility.yul\":2446:2587   */\n      pop\n        /* \"#utility.yul\":1956:2594   */\n      swap3\n      swap6\n      swap2\n      swap5\n      pop\n      swap3\n      pop\n      jump\t// out\n        /* \"#utility.yul\":2600:2862   */\n    tag_22:\n      0x00\n        /* \"#utility.yul\":2708:2710   */\n      0x20\n        /* \"#utility.yul\":2696:2705   */\n      dup3\n        /* \"#utility.yul\":2687:2694   */\n      dup5\n        /* \"#utility.yul\":2683:2706   */\n      sub\n        /* \"#utility.yul\":2679:2711   */\n      slt\n        /* \"#utility.yul\":2676:2678   */\n      iszero\n      tag_97\n      jumpi\n        /* \"#utility.yul\":2724:2725   */\n      0x00\n        /* \"#utility.yul\":2721:2722   */\n      dup1\n        /* \"#utility.yul\":2714:2726   */\n      revert\n        /* \"#utility.yul\":2676:2678   */\n    tag_97:\n        /* \"#utility.yul\":2767:2768   */\n      0x00\n        /* \"#utility.yul\":2792:2845   */\n      tag_98\n        /* \"#utility.yul\":2837:2844   */\n      dup5\n        /* \"#utility.yul\":2828:2834   */\n      dup3\n        /* \"#utility.yul\":2817:2826   */\n      dup6\n        /* \"#utility.yul\":2813:2835   */\n      add\n        /* \"#utility.yul\":2792:2845   */\n      tag_67\n      jump\t// in\n    tag_98:\n        /* \"#utility.yul\":2782:2845   */\n      swap2\n      pop\n        /* \"#utility.yul\":2738:2855   */\n      pop\n        /* \"#utility.yul\":2666:2862   */\n      swap3\n      swap2\n      pop\n      pop\n      jump\t// out\n        /* \"#utility.yul\":2868:3010   */\n    tag_99:\n        /* \"#utility.yul\":2971:3003   */\n      tag_101\n        /* \"#utility.yul\":2997:3002   */\n      dup2\n        /* \"#utility.yul\":2971:3003   */\n      tag_102\n      jump\t// in\n    tag_101:\n        /* \"#utility.yul\":2966:2969   */\n      dup3\n        /* \"#utility.yul\":2959:3004   */\n      mstore\n        /* \"#utility.yul\":2949:3010   */\n      pop\n      pop\n      jump\t// out\n        /* \"#utility.yul\":3016:3125   */\n    tag_103:\n        /* \"#utility.yul\":3097:3118   */\n      tag_105\n        /* \"#utility.yul\":3112:3117   */\n      dup2\n        /* \"#utility.yul\":3097:3118   */\n      tag_106\n      jump\t// in\n    tag_105:\n        /* \"#utility.yul\":3092:3095   */\n      dup3\n        /* \"#utility.yul\":3085:3119   */\n      mstore\n        /* \"#utility.yul\":3075:3125   */\n      pop\n      pop\n      jump\t// out\n        /* \"#utility.yul\":3131:3288   */\n    tag_107:\n        /* \"#utility.yul\":3231:3281   */\n      tag_109\n        /* \"#utility.yul\":3275:3280   */\n      dup2\n        /* \"#utility.yul\":3231:3281   */\n      tag_110\n      jump\t// in\n    tag_109:\n        /* \"#utility.yul\":3226:3229   */\n      dup3\n        /* \"#utility.yul\":3219:3282   */\n      mstore\n        /* \"#utility.yul\":3209:3288   */\n      pop\n      pop\n      jump\t// out\n        /* \"#utility.yul\":3294:3623   */\n    tag_111:\n      0x00\n        /* \"#utility.yul\":3457:3524   */\n      tag_113\n        /* \"#utility.yul\":3521:3523   */\n      0x1f\n        /* \"#utility.yul\":3516:3519   */\n      dup4\n        /* \"#utility.yul\":3457:3524   */\n      tag_114\n      jump\t// in\n    tag_113:\n        /* \"#utility.yul\":3450:3524   */\n      swap2\n      pop\n        /* \"#utility.yul\":3554:3587   */\n      0x5265656e7472616e637947756172643a207265656e7472616e742063616c6c00\n        /* \"#utility.yul\":3550:3551   */\n      0x00\n        /* \"#utility.yul\":3545:3548   */\n      dup4\n        /* \"#utility.yul\":3541:3552   */\n      add\n        /* \"#utility.yul\":3534:3588   */\n      mstore\n        /* \"#utility.yul\":3614:3616   */\n      0x20\n        /* \"#utility.yul\":3609:3612   */\n      dup3\n        /* \"#utility.yul\":3605:3617   */\n      add\n        /* \"#utility.yul\":3598:3617   */\n      swap1\n      pop\n        /* \"#utility.yul\":3440:3623   */\n      swap2\n      swap1\n      pop\n      jump\t// out\n        /* \"#utility.yul\":3629:3747   */\n    tag_115:\n        /* \"#utility.yul\":3716:3740   */\n      tag_117\n        /* \"#utility.yul\":3734:3739   */\n      dup2\n        /* \"#utility.yul\":3716:3740   */\n      tag_118\n      jump\t// in\n    tag_117:\n        /* \"#utility.yul\":3711:3714   */\n      dup3\n        /* \"#utility.yul\":3704:3741   */\n      mstore\n        /* \"#utility.yul\":3694:3747   */\n      pop\n      pop\n      jump\t// out\n        /* \"#utility.yul\":3753:5282   */\n    tag_12:\n      0x00\n        /* \"#utility.yul\":4236:4239   */\n      0x0180\n        /* \"#utility.yul\":4225:4234   */\n      dup3\n        /* \"#utility.yul\":4221:4240   */\n      add\n        /* \"#utility.yul\":4213:4240   */\n      swap1\n      pop\n        /* \"#utility.yul\":4250:4337   */\n      tag_120\n        /* \"#utility.yul\":4334:4335   */\n      0x00\n        /* \"#utility.yul\":4323:4332   */\n      dup4\n        /* \"#utility.yul\":4319:4336   */\n      add\n        /* \"#utility.yul\":4310:4316   */\n      dup16\n        /* \"#utility.yul\":4250:4337   */\n      tag_99\n      jump\t// in\n    tag_120:\n        /* \"#utility.yul\":4347:4432   */\n      tag_121\n        /* \"#utility.yul\":4428:4430   */\n      0x20\n        /* \"#utility.yul\":4417:4426   */\n      dup4\n        /* \"#utility.yul\":4413:4431   */\n      add\n        /* \"#utility.yul\":4404:4410   */\n      dup15\n        /* \"#utility.yul\":4347:4432   */\n      tag_107\n      jump\t// in\n    tag_121:\n        /* \"#utility.yul\":4442:4527   */\n      tag_122\n        /* \"#utility.yul\":4523:4525   */\n      0x40\n        /* \"#utility.yul\":4512:4521   */\n      dup4\n        /* \"#utility.yul\":4508:4526   */\n      add\n        /* \"#utility.yul\":4499:4505   */\n      dup14\n        /* \"#utility.yul\":4442:4527   */\n      tag_107\n      jump\t// in\n    tag_122:\n        /* \"#utility.yul\":4537:4609   */\n      tag_123\n        /* \"#utility.yul\":4605:4607   */\n      0x60\n        /* \"#utility.yul\":4594:4603   */\n      dup4\n        /* \"#utility.yul\":4590:4608   */\n      add\n        /* \"#utility.yul\":4581:4587   */\n      dup13\n        /* \"#utility.yul\":4537:4609   */\n      tag_115\n      jump\t// in\n    tag_123:\n        /* \"#utility.yul\":4619:4692   */\n      tag_124\n        /* \"#utility.yul\":4687:4690   */\n      0x80\n        /* \"#utility.yul\":4676:4685   */\n      dup4\n        /* \"#utility.yul\":4672:4691   */\n      add\n        /* \"#utility.yul\":4663:4669   */\n      dup12\n        /* \"#utility.yul\":4619:4692   */\n      tag_115\n      jump\t// in\n    tag_124:\n        /* \"#utility.yul\":4702:4775   */\n      tag_125\n        /* \"#utility.yul\":4770:4773   */\n      0xa0\n        /* \"#utility.yul\":4759:4768   */\n      dup4\n        /* \"#utility.yul\":4755:4774   */\n      add\n        /* \"#utility.yul\":4746:4752   */\n      dup11\n        /* \"#utility.yul\":4702:4775   */\n      tag_115\n      jump\t// in\n    tag_125:\n        /* \"#utility.yul\":4785:4858   */\n      tag_126\n        /* \"#utility.yul\":4853:4856   */\n      0xc0\n        /* \"#utility.yul\":4842:4851   */\n      dup4\n        /* \"#utility.yul\":4838:4857   */\n      add\n        /* \"#utility.yul\":4829:4835   */\n      dup10\n        /* \"#utility.yul\":4785:4858   */\n      tag_115\n      jump\t// in\n    tag_126:\n        /* \"#utility.yul\":4868:4941   */\n      tag_127\n        /* \"#utility.yul\":4936:4939   */\n      0xe0\n        /* \"#utility.yul\":4925:4934   */\n      dup4\n        /* \"#utility.yul\":4921:4940   */\n      add\n        /* \"#utility.yul\":4912:4918   */\n      dup9\n        /* \"#utility.yul\":4868:4941   */\n      tag_115\n      jump\t// in\n    tag_127:\n        /* \"#utility.yul\":4951:5024   */\n      tag_128\n        /* \"#utility.yul\":5019:5022   */\n      0x0100\n        /* \"#utility.yul\":5008:5017   */\n      dup4\n        /* \"#utility.yul\":5004:5023   */\n      add\n        /* \"#utility.yul\":4995:5001   */\n      dup8\n        /* \"#utility.yul\":4951:5024   */\n      tag_115\n      jump\t// in\n    tag_128:\n        /* \"#utility.yul\":5034:5107   */\n      tag_129\n        /* \"#utility.yul\":5102:5105   */\n      0x0120\n        /* \"#utility.yul\":5091:5100   */\n      dup4\n        /* \"#utility.yul\":5087:5106   */\n      add\n        /* \"#utility.yul\":5078:5084   */\n      dup7\n        /* \"#utility.yul\":5034:5107   */\n      tag_115\n      jump\t// in\n    tag_129:\n        /* \"#utility.yul\":5117:5191   */\n      tag_130\n        /* \"#utility.yul\":5186:5189   */\n      0x0140\n        /* \"#utility.yul\":5175:5184   */\n      dup4\n        /* \"#utility.yul\":5171:5190   */\n      add\n        /* \"#utility.yul\":5161:5168   */\n      dup6\n        /* \"#utility.yul\":5117:5191   */\n      tag_115\n      jump\t// in\n    tag_130:\n        /* \"#utility.yul\":5201:5275   */\n      tag_131\n        /* \"#utility.yul\":5270:5273   */\n      0x0160\n        /* \"#utility.yul\":5259:5268   */\n      dup4\n        /* \"#utility.yul\":5255:5274   */\n      add\n        /* \"#utility.yul\":5245:5252   */\n      dup5\n        /* \"#utility.yul\":5201:5275   */\n      tag_115\n      jump\t// in\n    tag_131:\n        /* \"#utility.yul\":4203:5282   */\n      swap14\n      swap13\n      pop\n      pop\n      pop\n      pop\n      pop\n      pop\n      pop\n      pop\n      pop\n      pop\n      pop\n      pop\n      pop\n      jump\t// out\n        /* \"#utility.yul\":5288:5707   */\n    tag_43:\n      0x00\n        /* \"#utility.yul\":5492:5494   */\n      0x20\n        /* \"#utility.yul\":5481:5490   */\n      dup3\n        /* \"#utility.yul\":5477:5495   */\n      add\n        /* \"#utility.yul\":5469:5495   */\n      swap1\n      pop\n        /* \"#utility.yul\":5541:5550   */\n      dup2\n        /* \"#utility.yul\":5535:5539   */\n      dup2\n        /* \"#utility.yul\":5531:5551   */\n      sub\n        /* \"#utility.yul\":5527:5528   */\n      0x00\n        /* \"#utility.yul\":5516:5525   */\n      dup4\n        /* \"#utility.yul\":5512:5529   */\n      add\n        /* \"#utility.yul\":5505:5552   */\n      mstore\n        /* \"#utility.yul\":5569:5700   */\n      tag_133\n        /* \"#utility.yul\":5695:5699   */\n      dup2\n        /* \"#utility.yul\":5569:5700   */\n      tag_111\n      jump\t// in\n    tag_133:\n        /* \"#utility.yul\":5561:5700   */\n      swap1\n      pop\n        /* \"#utility.yul\":5459:5707   */\n      swap2\n      swap1\n      pop\n      jump\t// out\n        /* \"#utility.yul\":5713:5935   */\n    tag_19:\n      0x00\n        /* \"#utility.yul\":5844:5846   */\n      0x20\n        /* \"#utility.yul\":5833:5842   */\n      dup3\n        /* \"#utility.yul\":5829:5847   */\n      add\n        /* \"#utility.yul\":5821:5847   */\n      swap1\n      pop\n        /* \"#utility.yul\":5857:5928   */\n      tag_135\n        /* \"#utility.yul\":5925:5926   */\n      0x00\n        /* \"#utility.yul\":5914:5923   */\n      dup4\n        /* \"#utility.yul\":5910:5927   */\n      add\n        /* \"#utility.yul\":5901:5907   */\n      dup5\n        /* \"#utility.yul\":5857:5928   */\n      tag_115\n      jump\t// in\n    tag_135:\n        /* \"#utility.yul\":5811:5935   */\n      swap3\n      swap2\n      pop\n      pop\n      jump\t// out\n        /* \"#utility.yul\":5941:6692   */\n    tag_39:\n      0x00\n        /* \"#utility.yul\":6200:6203   */\n      0xc0\n        /* \"#utility.yul\":6189:6198   */\n      dup3\n        /* \"#utility.yul\":6185:6204   */\n      add\n        /* \"#utility.yul\":6177:6204   */\n      swap1\n      pop\n        /* \"#utility.yul\":6214:6285   */\n      tag_137\n        /* \"#utility.yul\":6282:6283   */\n      0x00\n        /* \"#utility.yul\":6271:6280   */\n      dup4\n        /* \"#utility.yul\":6267:6284   */\n      add\n        /* \"#utility.yul\":6258:6264   */\n      dup10\n        /* \"#utility.yul\":6214:6285   */\n      tag_115\n      jump\t// in\n    tag_137:\n        /* \"#utility.yul\":6295:6367   */\n      tag_138\n        /* \"#utility.yul\":6363:6365   */\n      0x20\n        /* \"#utility.yul\":6352:6361   */\n      dup4\n        /* \"#utility.yul\":6348:6366   */\n      add\n        /* \"#utility.yul\":6339:6345   */\n      dup9\n        /* \"#utility.yul\":6295:6367   */\n      tag_115\n      jump\t// in\n    tag_138:\n        /* \"#utility.yul\":6377:6449   */\n      tag_139\n        /* \"#utility.yul\":6445:6447   */\n      0x40\n        /* \"#utility.yul\":6434:6443   */\n      dup4\n        /* \"#utility.yul\":6430:6448   */\n      add\n        /* \"#utility.yul\":6421:6427   */\n      dup8\n        /* \"#utility.yul\":6377:6449   */\n      tag_115\n      jump\t// in\n    tag_139:\n        /* \"#utility.yul\":6459:6531   */\n      tag_140\n        /* \"#utility.yul\":6527:6529   */\n      0x60\n        /* \"#utility.yul\":6516:6525   */\n      dup4\n        /* \"#utility.yul\":6512:6530   */\n      add\n        /* \"#utility.yul\":6503:6509   */\n      dup7\n        /* \"#utility.yul\":6459:6531   */\n      tag_115\n      jump\t// in\n    tag_140:\n        /* \"#utility.yul\":6541:6608   */\n      tag_141\n        /* \"#utility.yul\":6603:6606   */\n      0x80\n        /* \"#utility.yul\":6592:6601   */\n      dup4\n        /* \"#utility.yul\":6588:6607   */\n      add\n        /* \"#utility.yul\":6579:6585   */\n      dup6\n        /* \"#utility.yul\":6541:6608   */\n      tag_103\n      jump\t// in\n    tag_141:\n        /* \"#utility.yul\":6618:6685   */\n      tag_142\n        /* \"#utility.yul\":6680:6683   */\n      0xa0\n        /* \"#utility.yul\":6669:6678   */\n      dup4\n        /* \"#utility.yul\":6665:6684   */\n      add\n        /* \"#utility.yul\":6656:6662   */\n      dup5\n        /* \"#utility.yul\":6618:6685   */\n      tag_103\n      jump\t// in\n    tag_142:\n        /* \"#utility.yul\":6167:6692   */\n      swap8\n      swap7\n      pop\n      pop\n      pop\n      pop\n      pop\n      pop\n      pop\n      jump\t// out\n        /* \"#utility.yul\":6698:7473   */\n    tag_33:\n      0x00\n        /* \"#utility.yul\":6969:6972   */\n      0xc0\n        /* \"#utility.yul\":6958:6967   */\n      dup3\n        /* \"#utility.yul\":6954:6973   */\n      add\n        /* \"#utility.yul\":6946:6973   */\n      swap1\n      pop\n        /* \"#utility.yul\":6983:7054   */\n      tag_144\n        /* \"#utility.yul\":7051:7052   */\n      0x00\n        /* \"#utility.yul\":7040:7049   */\n      dup4\n        /* \"#utility.yul\":7036:7053   */\n      add\n        /* \"#utility.yul\":7027:7033   */\n      dup10\n        /* \"#utility.yul\":6983:7054   */\n      tag_115\n      jump\t// in\n    tag_144:\n        /* \"#utility.yul\":7064:7136   */\n      tag_145\n        /* \"#utility.yul\":7132:7134   */\n      0x20\n        /* \"#utility.yul\":7121:7130   */\n      dup4\n        /* \"#utility.yul\":7117:7135   */\n      add\n        /* \"#utility.yul\":7108:7114   */\n      dup9\n        /* \"#utility.yul\":7064:7136   */\n      tag_115\n      jump\t// in\n    tag_145:\n        /* \"#utility.yul\":7146:7218   */\n      tag_146\n        /* \"#utility.yul\":7214:7216   */\n      0x40\n        /* \"#utility.yul\":7203:7212   */\n      dup4\n        /* \"#utility.yul\":7199:7217   */\n      add\n        /* \"#utility.yul\":7190:7196   */\n      dup8\n        /* \"#utility.yul\":7146:7218   */\n      tag_115\n      jump\t// in\n    tag_146:\n        /* \"#utility.yul\":7228:7300   */\n      tag_147\n        /* \"#utility.yul\":7296:7298   */\n      0x60\n        /* \"#utility.yul\":7285:7294   */\n      dup4\n        /* \"#utility.yul\":7281:7299   */\n      add\n        /* \"#utility.yul\":7272:7278   */\n      dup7\n        /* \"#utility.yul\":7228:7300   */\n      tag_115\n      jump\t// in\n    tag_147:\n        /* \"#utility.yul\":7310:7383   */\n      tag_148\n        /* \"#utility.yul\":7378:7381   */\n      0x80\n        /* \"#utility.yul\":7367:7376   */\n      dup4\n        /* \"#utility.yul\":7363:7382   */\n      add\n        /* \"#utility.yul\":7354:7360   */\n      dup6\n        /* \"#utility.yul\":7310:7383   */\n      tag_115\n      jump\t// in\n    tag_148:\n        /* \"#utility.yul\":7393:7466   */\n      tag_149\n        /* \"#utility.yul\":7461:7464   */\n      0xa0\n        /* \"#utility.yul\":7450:7459   */\n      dup4\n        /* \"#utility.yul\":7446:7465   */\n      add\n        /* \"#utility.yul\":7437:7443   */\n      dup5\n        /* \"#utility.yul\":7393:7466   */\n      tag_115\n      jump\t// in\n    tag_149:\n        /* \"#utility.yul\":6936:7473   */\n      swap8\n      swap7\n      pop\n      pop\n      pop\n      pop\n      pop\n      pop\n      pop\n      jump\t// out\n        /* \"#utility.yul\":7479:7762   */\n    tag_61:\n      0x00\n        /* \"#utility.yul\":7545:7547   */\n      0x40\n        /* \"#utility.yul\":7539:7548   */\n      mload\n        /* \"#utility.yul\":7529:7548   */\n      swap1\n      pop\n        /* \"#utility.yul\":7587:7591   */\n      dup2\n        /* \"#utility.yul\":7579:7585   */\n      dup2\n        /* \"#utility.yul\":7575:7592   */\n      add\n        /* \"#utility.yul\":7694:7700   */\n      dup2\n        /* \"#utility.yul\":7682:7692   */\n      dup2\n        /* \"#utility.yul\":7679:7701   */\n      lt\n        /* \"#utility.yul\":7658:7676   */\n      0xffffffffffffffff\n        /* \"#utility.yul\":7646:7656   */\n      dup3\n        /* \"#utility.yul\":7643:7677   */\n      gt\n        /* \"#utility.yul\":7640:7702   */\n      or\n        /* \"#utility.yul\":7637:7639   */\n      iszero\n      tag_151\n      jumpi\n        /* \"#utility.yul\":7705:7723   */\n      tag_152\n      tag_153\n      jump\t// in\n    tag_152:\n        /* \"#utility.yul\":7637:7639   */\n    tag_151:\n        /* \"#utility.yul\":7745:7755   */\n      dup1\n        /* \"#utility.yul\":7741:7743   */\n      0x40\n        /* \"#utility.yul\":7734:7756   */\n      mstore\n        /* \"#utility.yul\":7519:7762   */\n      pop\n      swap2\n      swap1\n      pop\n      jump\t// out\n        /* \"#utility.yul\":7768:8017   */\n    tag_60:\n      0x00\n        /* \"#utility.yul\":7933:7951   */\n      0xffffffffffffffff\n        /* \"#utility.yul\":7925:7931   */\n      dup3\n        /* \"#utility.yul\":7922:7952   */\n      gt\n        /* \"#utility.yul\":7919:7921   */\n      iszero\n      tag_155\n      jumpi\n        /* \"#utility.yul\":7955:7973   */\n      tag_156\n      tag_153\n      jump\t// in\n    tag_156:\n        /* \"#utility.yul\":7919:7921   */\n    tag_155:\n        /* \"#utility.yul\":8005:8009   */\n      0x20\n        /* \"#utility.yul\":7997:8003   */\n      dup3\n        /* \"#utility.yul\":7993:8010   */\n      mul\n        /* \"#utility.yul\":7985:8010   */\n      swap1\n      pop\n        /* \"#utility.yul\":7848:8017   */\n      swap2\n      swap1\n      pop\n      jump\t// out\n        /* \"#utility.yul\":8023:8192   */\n    tag_114:\n      0x00\n        /* \"#utility.yul\":8141:8147   */\n      dup3\n        /* \"#utility.yul\":8136:8139   */\n      dup3\n        /* \"#utility.yul\":8129:8148   */\n      mstore\n        /* \"#utility.yul\":8181:8185   */\n      0x20\n        /* \"#utility.yul\":8176:8179   */\n      dup3\n        /* \"#utility.yul\":8172:8186   */\n      add\n        /* \"#utility.yul\":8157:8186   */\n      swap1\n      pop\n        /* \"#utility.yul\":8119:8192   */\n      swap3\n      swap2\n      pop\n      pop\n      jump\t// out\n        /* \"#utility.yul\":8198:8294   */\n    tag_158:\n      0x00\n        /* \"#utility.yul\":8264:8288   */\n      tag_160\n        /* \"#utility.yul\":8282:8287   */\n      dup3\n        /* \"#utility.yul\":8264:8288   */\n      tag_161\n      jump\t// in\n    tag_160:\n        /* \"#utility.yul\":8253:8288   */\n      swap1\n      pop\n        /* \"#utility.yul\":8243:8294   */\n      swap2\n      swap1\n      pop\n      jump\t// out\n        /* \"#utility.yul\":8300:8404   */\n    tag_102:\n      0x00\n        /* \"#utility.yul\":8374:8398   */\n      tag_163\n        /* \"#utility.yul\":8392:8397   */\n      dup3\n        /* \"#utility.yul\":8374:8398   */\n      tag_161\n      jump\t// in\n    tag_163:\n        /* \"#utility.yul\":8363:8398   */\n      swap1\n      pop\n        /* \"#utility.yul\":8353:8404   */\n      swap2\n      swap1\n      pop\n      jump\t// out\n        /* \"#utility.yul\":8410:8500   */\n    tag_106:\n      0x00\n        /* \"#utility.yul\":8487:8492   */\n      dup2\n        /* \"#utility.yul\":8480:8493   */\n      iszero\n        /* \"#utility.yul\":8473:8494   */\n      iszero\n        /* \"#utility.yul\":8462:8494   */\n      swap1\n      pop\n        /* \"#utility.yul\":8452:8500   */\n      swap2\n      swap1\n      pop\n      jump\t// out\n        /* \"#utility.yul\":8506:8615   */\n    tag_165:\n      0x00\n        /* \"#utility.yul\":8585:8609   */\n      tag_167\n        /* \"#utility.yul\":8603:8608   */\n      dup3\n        /* \"#utility.yul\":8585:8609   */\n      tag_158\n      jump\t// in\n    tag_167:\n        /* \"#utility.yul\":8574:8609   */\n      swap1\n      pop\n        /* \"#utility.yul\":8564:8615   */\n      swap2\n      swap1\n      pop\n      jump\t// out\n        /* \"#utility.yul\":8621:8747   */\n    tag_161:\n      0x00\n        /* \"#utility.yul\":8698:8740   */\n      0xffffffffffffffffffffffffffffffffffffffff\n        /* \"#utility.yul\":8691:8696   */\n      dup3\n        /* \"#utility.yul\":8687:8741   */\n      and\n        /* \"#utility.yul\":8676:8741   */\n      swap1\n      pop\n        /* \"#utility.yul\":8666:8747   */\n      swap2\n      swap1\n      pop\n      jump\t// out\n        /* \"#utility.yul\":8753:8830   */\n    tag_118:\n      0x00\n        /* \"#utility.yul\":8819:8824   */\n      dup2\n        /* \"#utility.yul\":8808:8824   */\n      swap1\n      pop\n        /* \"#utility.yul\":8798:8830   */\n      swap2\n      swap1\n      pop\n      jump\t// out\n        /* \"#utility.yul\":8836:8988   */\n    tag_110:\n      0x00\n        /* \"#utility.yul\":8932:8982   */\n      tag_171\n        /* \"#utility.yul\":8976:8981   */\n      dup3\n        /* \"#utility.yul\":8932:8982   */\n      tag_172\n      jump\t// in\n    tag_171:\n        /* \"#utility.yul\":8919:8982   */\n      swap1\n      pop\n        /* \"#utility.yul\":8909:8988   */\n      swap2\n      swap1\n      pop\n      jump\t// out\n        /* \"#utility.yul\":8994:9120   */\n    tag_172:\n      0x00\n        /* \"#utility.yul\":9090:9114   */\n      tag_174\n        /* \"#utility.yul\":9108:9113   */\n      dup3\n        /* \"#utility.yul\":9090:9114   */\n      tag_161\n      jump\t// in\n    tag_174:\n        /* \"#utility.yul\":9077:9114   */\n      swap1\n      pop\n        /* \"#utility.yul\":9067:9120   */\n      swap2\n      swap1\n      pop\n      jump\t// out\n        /* \"#utility.yul\":9126:9306   */\n    tag_153:\n        /* \"#utility.yul\":9174:9251   */\n      0x4e487b7100000000000000000000000000000000000000000000000000000000\n        /* \"#utility.yul\":9171:9172   */\n      0x00\n        /* \"#utility.yul\":9164:9252   */\n      mstore\n        /* \"#utility.yul\":9271:9275   */\n      0x41\n        /* \"#utility.yul\":9268:9269   */\n      0x04\n        /* \"#utility.yul\":9261:9276   */\n      mstore\n        /* \"#utility.yul\":9295:9299   */\n      0x24\n        /* \"#utility.yul\":9292:9293   */\n      0x00\n        /* \"#utility.yul\":9285:9300   */\n      revert\n        /* \"#utility.yul\":9312:9434   */\n    tag_71:\n        /* \"#utility.yul\":9385:9409   */\n      tag_177\n        /* \"#utility.yul\":9403:9408   */\n      dup2\n        /* \"#utility.yul\":9385:9409   */\n      tag_158\n      jump\t// in\n    tag_177:\n        /* \"#utility.yul\":9378:9383   */\n      dup2\n        /* \"#utility.yul\":9375:9410   */\n      eq\n        /* \"#utility.yul\":9365:9367   */\n      tag_178\n      jumpi\n        /* \"#utility.yul\":9424:9425   */\n      0x00\n        /* \"#utility.yul\":9421:9422   */\n      dup1\n        /* \"#utility.yul\":9414:9426   */\n      revert\n        /* \"#utility.yul\":9365:9367   */\n    tag_178:\n        /* \"#utility.yul\":9355:9434   */\n      pop\n      jump\t// out\n        /* \"#utility.yul\":9440:9578   */\n    tag_75:\n        /* \"#utility.yul\":9521:9553   */\n      tag_180\n        /* \"#utility.yul\":9547:9552   */\n      dup2\n        /* \"#utility.yul\":9521:9553   */\n      tag_102\n      jump\t// in\n    tag_180:\n        /* \"#utility.yul\":9514:9519   */\n      dup2\n        /* \"#utility.yul\":9511:9554   */\n      eq\n        /* \"#utility.yul\":9501:9503   */\n      tag_181\n      jumpi\n        /* \"#utility.yul\":9568:9569   */\n      0x00\n        /* \"#utility.yul\":9565:9566   */\n      dup1\n        /* \"#utility.yul\":9558:9570   */\n      revert\n        /* \"#utility.yul\":9501:9503   */\n    tag_181:\n        /* \"#utility.yul\":9491:9578   */\n      pop\n      jump\t// out\n        /* \"#utility.yul\":9584:9732   */\n    tag_83:\n        /* \"#utility.yul\":9670:9707   */\n      tag_183\n        /* \"#utility.yul\":9701:9706   */\n      dup2\n        /* \"#utility.yul\":9670:9707   */\n      tag_165\n      jump\t// in\n    tag_183:\n        /* \"#utility.yul\":9663:9668   */\n      dup2\n        /* \"#utility.yul\":9660:9708   */\n      eq\n        /* \"#utility.yul\":9650:9652   */\n      tag_184\n      jumpi\n        /* \"#utility.yul\":9722:9723   */\n      0x00\n        /* \"#utility.yul\":9719:9720   */\n      dup1\n        /* \"#utility.yul\":9712:9724   */\n      revert\n        /* \"#utility.yul\":9650:9652   */\n    tag_184:\n        /* \"#utility.yul\":9640:9732   */\n      pop\n      jump\t// out\n        /* \"#utility.yul\":9738:9860   */\n    tag_86:\n        /* \"#utility.yul\":9811:9835   */\n      tag_186\n        /* \"#utility.yul\":9829:9834   */\n      dup2\n        /* \"#utility.yul\":9811:9835   */\n      tag_118\n      jump\t// in\n    tag_186:\n        /* \"#utility.yul\":9804:9809   */\n      dup2\n        /* \"#utility.yul\":9801:9836   */\n      eq\n        /* \"#utility.yul\":9791:9793   */\n      tag_187\n      jumpi\n        /* \"#utility.yul\":9850:9851   */\n      0x00\n        /* \"#utility.yul\":9847:9848   */\n      dup1\n        /* \"#utility.yul\":9840:9852   */\n      revert\n        /* \"#utility.yul\":9791:9793   */\n    tag_187:\n        /* \"#utility.yul\":9781:9860   */\n      pop\n      jump\t// out\n\n    auxdata: 0xa264697066735822122016e7fbd8d373b3aed661bd54ea59e72f91d0fd0725b679f118d6ed46954eca4964736f6c63430008000033\n}\n",
				"bytecode": {
					"linkReferences": {},
					"object": "608060405234801561001057600080fd5b506001600081905550610bfc806100286000396000f3fe6080604052600436106100555760003560e01c806318856a2f1461005a57806356c5f3491461009057806379647833146100cd5780638f1eae4c146100e9578063acfb235514610112578063e2d3f42314610142575b600080fd5b34801561006657600080fd5b5061006f610184565b6040516100879c9b9a9998979695949392919061088c565b60405180910390f35b34801561009c57600080fd5b506100b760048036038101906100b2919061075a565b610232565b6040516100c49190610966565b60405180910390f35b6100e760048036038101906100e291906107e7565b61024a565b005b3480156100f557600080fd5b50610110600480360381019061010b9190610783565b6102a3565b005b34801561011e57600080fd5b506101276105fc565b604051610139969594939291906109e2565b60405180910390f35b34801561014e57600080fd5b506101696004803603810190610164919061075a565b610626565b60405161017b96959493929190610981565b60405180910390f35b60098060000160009054906101000a900473ffffffffffffffffffffffffffffffffffffffff16908060010160009054906101000a900473ffffffffffffffffffffffffffffffffffffffff16908060020160009054906101000a900473ffffffffffffffffffffffffffffffffffffffff169080600301549080600401549080600501549080600601549080600701549080600801549080600901549080600a01549080600b015490508c565b60026020528060005260406000206000915090505481565b60026000541415610290576040517f08c379a000000000000000000000000000000000000000000000000000000000815260040161028790610946565b60405180910390fd5b6002600081905550600160008190555050565b83600960000160006101000a81548173ffffffffffffffffffffffffffffffffffffffff021916908373ffffffffffffffffffffffffffffffffffffffff16021790555082600960010160006101000a81548173ffffffffffffffffffffffffffffffffffffffff021916908373ffffffffffffffffffffffffffffffffffffffff16021790555081600960020160006101000a81548173ffffffffffffffffffffffffffffffffffffffff021916908373ffffffffffffffffffffffffffffffffffffffff160217905550806000600981106103a9577f4e487b7100000000000000000000000000000000000000000000000000000000600052603260045260246000fd5b6020020151600960030181905550806001600981106103f1577f4e487b7100000000000000000000000000000000000000000000000000000000600052603260045260246000fd5b602002015160096004018190555080600260098110610439577f4e487b7100000000000000000000000000000000000000000000000000000000600052603260045260246000fd5b602002015160096005018190555080600360098110610481577f4e487b7100000000000000000000000000000000000000000000000000000000600052603260045260246000fd5b6020020151600960060181905550806004600981106104c9577f4e487b7100000000000000000000000000000000000000000000000000000000600052603260045260246000fd5b602002015160096007018190555080600560098110610511577f4e487b7100000000000000000000000000000000000000000000000000000000600052603260045260246000fd5b602002015160096008018190555080600660098110610559577f4e487b7100000000000000000000000000000000000000000000000000000000600052603260045260246000fd5b60200201516009800181905550806007600981106105a0577f4e487b7100000000000000000000000000000000000000000000000000000000600052603260045260246000fd5b60200201516009600a0181905550806008600981106105e8577f4e487b7100000000000000000000000000000000000000000000000000000000600052603260045260246000fd5b60200201516009600b018190555050505050565b60038060000154908060010154908060020154908060030154908060040154908060050154905086565b60016020528060005260406000206000915090508060000154908060010154908060020154908060030154908060040160009054906101000a900460ff16908060040160019054906101000a900460ff16905086565b600061068f61068a84610a74565b610a43565b905080828560208602820111156106a557600080fd5b60005b858110156106d557816106bb8882610745565b8452602084019350602083019250506001810190506106a8565b5050509392505050565b6000813590506106ee81610b6a565b92915050565b60008135905061070381610b81565b92915050565b600082601f83011261071a57600080fd5b600961072784828561067c565b91505092915050565b60008135905061073f81610b98565b92915050565b60008135905061075481610baf565b92915050565b60006020828403121561076c57600080fd5b600061077a848285016106df565b91505092915050565b600080600080610180858703121561079a57600080fd5b60006107a8878288016106f4565b94505060206107b987828801610730565b93505060406107ca87828801610730565b92505060606107db87828801610709565b91505092959194509250565b6000602082840312156107f957600080fd5b600061080784828501610745565b91505092915050565b61081981610abd565b82525050565b61082881610acf565b82525050565b61083781610b17565b82525050565b600061084a601f83610a9a565b91507f5265656e7472616e637947756172643a207265656e7472616e742063616c6c006000830152602082019050919050565b61088681610b0d565b82525050565b6000610180820190506108a2600083018f610810565b6108af602083018e61082e565b6108bc604083018d61082e565b6108c9606083018c61087d565b6108d6608083018b61087d565b6108e360a083018a61087d565b6108f060c083018961087d565b6108fd60e083018861087d565b61090b61010083018761087d565b61091961012083018661087d565b61092761014083018561087d565b61093561016083018461087d565b9d9c50505050505050505050505050565b6000602082019050818103600083015261095f8161083d565b9050919050565b600060208201905061097b600083018461087d565b92915050565b600060c082019050610996600083018961087d565b6109a3602083018861087d565b6109b0604083018761087d565b6109bd606083018661087d565b6109ca608083018561081f565b6109d760a083018461081f565b979650505050505050565b600060c0820190506109f7600083018961087d565b610a04602083018861087d565b610a11604083018761087d565b610a1e606083018661087d565b610a2b608083018561087d565b610a3860a083018461087d565b979650505050505050565b6000604051905081810181811067ffffffffffffffff82111715610a6a57610a69610b3b565b5b8060405250919050565b600067ffffffffffffffff821115610a8f57610a8e610b3b565b5b602082029050919050565b600082825260208201905092915050565b6000610ab682610aed565b9050919050565b6000610ac882610aed565b9050919050565b60008115159050919050565b6000610ae682610aab565b9050919050565b600073ffffffffffffffffffffffffffffffffffffffff82169050919050565b6000819050919050565b6000610b2282610b29565b9050919050565b6000610b3482610aed565b9050919050565b7f4e487b7100000000000000000000000000000000000000000000000000000000600052604160045260246000fd5b610b7381610aab565b8114610b7e57600080fd5b50565b610b8a81610abd565b8114610b9557600080fd5b50565b610ba181610adb565b8114610bac57600080fd5b50565b610bb881610b0d565b8114610bc357600080fd5b5056fea264697066735822122016e7fbd8d373b3aed661bd54ea59e72f91d0fd0725b679f118d6ed46954eca4964736f6c63430008000033",
					"opcodes": "PUSH1 0x80 PUSH1 0x40 MSTORE CALLVALUE DUP1 ISZERO PUSH2 0x10 JUMPI PUSH1 0x0 DUP1 REVERT JUMPDEST POP PUSH1 0x1 PUSH1 0x0 DUP2 SWAP1 SSTORE POP PUSH2 0xBFC DUP1 PUSH2 0x28 PUSH1 0x0 CODECOPY PUSH1 0x0 RETURN INVALID PUSH1 0x80 PUSH1 0x40 MSTORE PUSH1 0x4 CALLDATASIZE LT PUSH2 0x55 JUMPI PUSH1 0x0 CALLDATALOAD PUSH1 0xE0 SHR DUP1 PUSH4 0x18856A2F EQ PUSH2 0x5A JUMPI DUP1 PUSH4 0x56C5F349 EQ PUSH2 0x90 JUMPI DUP1 PUSH4 0x79647833 EQ PUSH2 0xCD JUMPI DUP1 PUSH4 0x8F1EAE4C EQ PUSH2 0xE9 JUMPI DUP1 PUSH4 0xACFB2355 EQ PUSH2 0x112 JUMPI DUP1 PUSH4 0xE2D3F423 EQ PUSH2 0x142 JUMPI JUMPDEST PUSH1 0x0 DUP1 REVERT JUMPDEST CALLVALUE DUP1 ISZERO PUSH2 0x66 JUMPI PUSH1 0x0 DUP1 REVERT JUMPDEST POP PUSH2 0x6F PUSH2 0x184 JUMP JUMPDEST PUSH1 0x40 MLOAD PUSH2 0x87 SWAP13 SWAP12 SWAP11 SWAP10 SWAP9 SWAP8 SWAP7 SWAP6 SWAP5 SWAP4 SWAP3 SWAP2 SWAP1 PUSH2 0x88C JUMP JUMPDEST PUSH1 0x40 MLOAD DUP1 SWAP2 SUB SWAP1 RETURN JUMPDEST CALLVALUE DUP1 ISZERO PUSH2 0x9C JUMPI PUSH1 0x0 DUP1 REVERT JUMPDEST POP PUSH2 0xB7 PUSH1 0x4 DUP1 CALLDATASIZE SUB DUP2 ADD SWAP1 PUSH2 0xB2 SWAP2 SWAP1 PUSH2 0x75A JUMP JUMPDEST PUSH2 0x232 JUMP JUMPDEST PUSH1 0x40 MLOAD PUSH2 0xC4 SWAP2 SWAP1 PUSH2 0x966 JUMP JUMPDEST PUSH1 0x40 MLOAD DUP1 SWAP2 SUB SWAP1 RETURN JUMPDEST PUSH2 0xE7 PUSH1 0x4 DUP1 CALLDATASIZE SUB DUP2 ADD SWAP1 PUSH2 0xE2 SWAP2 SWAP1 PUSH2 0x7E7 JUMP JUMPDEST PUSH2 0x24A JUMP JUMPDEST STOP JUMPDEST CALLVALUE DUP1 ISZERO PUSH2 0xF5 JUMPI PUSH1 0x0 DUP1 REVERT JUMPDEST POP PUSH2 0x110 PUSH1 0x4 DUP1 CALLDATASIZE SUB DUP2 ADD SWAP1 PUSH2 0x10B SWAP2 SWAP1 PUSH2 0x783 JUMP JUMPDEST PUSH2 0x2A3 JUMP JUMPDEST STOP JUMPDEST CALLVALUE DUP1 ISZERO PUSH2 0x11E JUMPI PUSH1 0x0 DUP1 REVERT JUMPDEST POP PUSH2 0x127 PUSH2 0x5FC JUMP JUMPDEST PUSH1 0x40 MLOAD PUSH2 0x139 SWAP7 SWAP6 SWAP5 SWAP4 SWAP3 SWAP2 SWAP1 PUSH2 0x9E2 JUMP JUMPDEST PUSH1 0x40 MLOAD DUP1 SWAP2 SUB SWAP1 RETURN JUMPDEST CALLVALUE DUP1 ISZERO PUSH2 0x14E JUMPI PUSH1 0x0 DUP1 REVERT JUMPDEST POP PUSH2 0x169 PUSH1 0x4 DUP1 CALLDATASIZE SUB DUP2 ADD SWAP1 PUSH2 0x164 SWAP2 SWAP1 PUSH2 0x75A JUMP JUMPDEST PUSH2 0x626 JUMP JUMPDEST PUSH1 0x40 MLOAD PUSH2 0x17B SWAP7 SWAP6 SWAP5 SWAP4 SWAP3 SWAP2 SWAP1 PUSH2 0x981 JUMP JUMPDEST PUSH1 0x40 MLOAD DUP1 SWAP2 SUB SWAP1 RETURN JUMPDEST PUSH1 0x9 DUP1 PUSH1 0x0 ADD PUSH1 0x0 SWAP1 SLOAD SWAP1 PUSH2 0x100 EXP SWAP1 DIV PUSH20 0xFFFFFFFFFFFFFFFFFFFFFFFFFFFFFFFFFFFFFFFF AND SWAP1 DUP1 PUSH1 0x1 ADD PUSH1 0x0 SWAP1 SLOAD SWAP1 PUSH2 0x100 EXP SWAP1 DIV PUSH20 0xFFFFFFFFFFFFFFFFFFFFFFFFFFFFFFFFFFFFFFFF AND SWAP1 DUP1 PUSH1 0x2 ADD PUSH1 0x0 SWAP1 SLOAD SWAP1 PUSH2 0x100 EXP SWAP1 DIV PUSH20 0xFFFFFFFFFFFFFFFFFFFFFFFFFFFFFFFFFFFFFFFF AND SWAP1 DUP1 PUSH1 0x3 ADD SLOAD SWAP1 DUP1 PUSH1 0x4 ADD SLOAD SWAP1 DUP1 PUSH1 0x5 ADD SLOAD SWAP1 DUP1 PUSH1 0x6 ADD SLOAD SWAP1 DUP1 PUSH1 0x7 ADD SLOAD SWAP1 DUP1 PUSH1 0x8 ADD SLOAD SWAP1 DUP1 PUSH1 0x9 ADD SLOAD SWAP1 DUP1 PUSH1 0xA ADD SLOAD SWAP1 DUP1 PUSH1 0xB ADD SLOAD SWAP1 POP DUP13 JUMP JUMPDEST PUSH1 0x2 PUSH1 0x20 MSTORE DUP1 PUSH1 0x0 MSTORE PUSH1 0x40 PUSH1 0x0 KECCAK256 PUSH1 0x0 SWAP2 POP SWAP1 POP SLOAD DUP2 JUMP JUMPDEST PUSH1 0x2 PUSH1 0x0 SLOAD EQ ISZERO PUSH2 0x290 JUMPI PUSH1 0x40 MLOAD PUSH32 0x8C379A000000000000000000000000000000000000000000000000000000000 DUP2 MSTORE PUSH1 0x4 ADD PUSH2 0x287 SWAP1 PUSH2 0x946 JUMP JUMPDEST PUSH1 0x40 MLOAD DUP1 SWAP2 SUB SWAP1 REVERT JUMPDEST PUSH1 0x2 PUSH1 0x0 DUP2 SWAP1 SSTORE POP PUSH1 0x1 PUSH1 0x0 DUP2 SWAP1 SSTORE POP POP JUMP JUMPDEST DUP4 PUSH1 0x9 PUSH1 0x0 ADD PUSH1 0x0 PUSH2 0x100 EXP DUP2 SLOAD DUP2 PUSH20 0xFFFFFFFFFFFFFFFFFFFFFFFFFFFFFFFFFFFFFFFF MUL NOT AND SWAP1 DUP4 PUSH20 0xFFFFFFFFFFFFFFFFFFFFFFFFFFFFFFFFFFFFFFFF AND MUL OR SWAP1 SSTORE POP DUP3 PUSH1 0x9 PUSH1 0x1 ADD PUSH1 0x0 PUSH2 0x100 EXP DUP2 SLOAD DUP2 PUSH20 0xFFFFFFFFFFFFFFFFFFFFFFFFFFFFFFFFFFFFFFFF MUL NOT AND SWAP1 DUP4 PUSH20 0xFFFFFFFFFFFFFFFFFFFFFFFFFFFFFFFFFFFFFFFF AND MUL OR SWAP1 SSTORE POP DUP2 PUSH1 0x9 PUSH1 0x2 ADD PUSH1 0x0 PUSH2 0x100 EXP DUP2 SLOAD DUP2 PUSH20 0xFFFFFFFFFFFFFFFFFFFFFFFFFFFFFFFFFFFFFFFF MUL NOT AND SWAP1 DUP4 PUSH20 0xFFFFFFFFFFFFFFFFFFFFFFFFFFFFFFFFFFFFFFFF AND MUL OR SWAP1 SSTORE POP DUP1 PUSH1 0x0 PUSH1 0x9 DUP2 LT PUSH2 0x3A9 JUMPI PUSH32 0x4E487B7100000000000000000000000000000000000000000000000000000000 PUSH1 0x0 MSTORE PUSH1 0x32 PUSH1 0x4 MSTORE PUSH1 0x24 PUSH1 0x0 REVERT JUMPDEST PUSH1 0x20 MUL ADD MLOAD PUSH1 0x9 PUSH1 0x3 ADD DUP2 SWAP1 SSTORE POP DUP1 PUSH1 0x1 PUSH1 0x9 DUP2 LT PUSH2 0x3F1 JUMPI PUSH32 0x4E487B7100000000000000000000000000000000000000000000000000000000 PUSH1 0x0 MSTORE PUSH1 0x32 PUSH1 0x4 MSTORE PUSH1 0x24 PUSH1 0x0 REVERT JUMPDEST PUSH1 0x20 MUL ADD MLOAD PUSH1 0x9 PUSH1 0x4 ADD DUP2 SWAP1 SSTORE POP DUP1 PUSH1 0x2 PUSH1 0x9 DUP2 LT PUSH2 0x439 JUMPI PUSH32 0x4E487B7100000000000000000000000000000000000000000000000000000000 PUSH1 0x0 MSTORE PUSH1 0x32 PUSH1 0x4 MSTORE PUSH1 0x24 PUSH1 0x0 REVERT JUMPDEST PUSH1 0x20 MUL ADD MLOAD PUSH1 0x9 PUSH1 0x5 ADD DUP2 SWAP1 SSTORE POP DUP1 PUSH1 0x3 PUSH1 0x9 DUP2 LT PUSH2 0x481 JUMPI PUSH32 0x4E487B7100000000000000000000000000000000000000000000000000000000 PUSH1 0x0 MSTORE PUSH1 0x32 PUSH1 0x4 MSTORE PUSH1 0x24 PUSH1 0x0 REVERT JUMPDEST PUSH1 0x20 MUL ADD MLOAD PUSH1 0x9 PUSH1 0x6 ADD DUP2 SWAP1 SSTORE POP DUP1 PUSH1 0x4 PUSH1 0x9 DUP2 LT PUSH2 0x4C9 JUMPI PUSH32 0x4E487B7100000000000000000000000000000000000000000000000000000000 PUSH1 0x0 MSTORE PUSH1 0x32 PUSH1 0x4 MSTORE PUSH1 0x24 PUSH1 0x0 REVERT JUMPDEST PUSH1 0x20 MUL ADD MLOAD PUSH1 0x9 PUSH1 0x7 ADD DUP2 SWAP1 SSTORE POP DUP1 PUSH1 0x5 PUSH1 0x9 DUP2 LT PUSH2 0x511 JUMPI PUSH32 0x4E487B7100000000000000000000000000000000000000000000000000000000 PUSH1 0x0 MSTORE PUSH1 0x32 PUSH1 0x4 MSTORE PUSH1 0x24 PUSH1 0x0 REVERT JUMPDEST PUSH1 0x20 MUL ADD MLOAD PUSH1 0x9 PUSH1 0x8 ADD DUP2 SWAP1 SSTORE POP DUP1 PUSH1 0x6 PUSH1 0x9 DUP2 LT PUSH2 0x559 JUMPI PUSH32 0x4E487B7100000000000000000000000000000000000000000000000000000000 PUSH1 0x0 MSTORE PUSH1 0x32 PUSH1 0x4 MSTORE PUSH1 0x24 PUSH1 0x0 REVERT JUMPDEST PUSH1 0x20 MUL ADD MLOAD PUSH1 0x9 DUP1 ADD DUP2 SWAP1 SSTORE POP DUP1 PUSH1 0x7 PUSH1 0x9 DUP2 LT PUSH2 0x5A0 JUMPI PUSH32 0x4E487B7100000000000000000000000000000000000000000000000000000000 PUSH1 0x0 MSTORE PUSH1 0x32 PUSH1 0x4 MSTORE PUSH1 0x24 PUSH1 0x0 REVERT JUMPDEST PUSH1 0x20 MUL ADD MLOAD PUSH1 0x9 PUSH1 0xA ADD DUP2 SWAP1 SSTORE POP DUP1 PUSH1 0x8 PUSH1 0x9 DUP2 LT PUSH2 0x5E8 JUMPI PUSH32 0x4E487B7100000000000000000000000000000000000000000000000000000000 PUSH1 0x0 MSTORE PUSH1 0x32 PUSH1 0x4 MSTORE PUSH1 0x24 PUSH1 0x0 REVERT JUMPDEST PUSH1 0x20 MUL ADD MLOAD PUSH1 0x9 PUSH1 0xB ADD DUP2 SWAP1 SSTORE POP POP POP POP POP JUMP JUMPDEST PUSH1 0x3 DUP1 PUSH1 0x0 ADD SLOAD SWAP1 DUP1 PUSH1 0x1 ADD SLOAD SWAP1 DUP1 PUSH1 0x2 ADD SLOAD SWAP1 DUP1 PUSH1 0x3 ADD SLOAD SWAP1 DUP1 PUSH1 0x4 ADD SLOAD SWAP1 DUP1 PUSH1 0x5 ADD SLOAD SWAP1 POP DUP7 JUMP JUMPDEST PUSH1 0x1 PUSH1 0x20 MSTORE DUP1 PUSH1 0x0 MSTORE PUSH1 0x40 PUSH1 0x0 KECCAK256 PUSH1 0x0 SWAP2 POP SWAP1 POP DUP1 PUSH1 0x0 ADD SLOAD SWAP1 DUP1 PUSH1 0x1 ADD SLOAD SWAP1 DUP1 PUSH1 0x2 ADD SLOAD SWAP1 DUP1 PUSH1 0x3 ADD SLOAD SWAP1 DUP1 PUSH1 0x4 ADD PUSH1 0x0 SWAP1 SLOAD SWAP1 PUSH2 0x100 EXP SWAP1 DIV PUSH1 0xFF AND SWAP1 DUP1 PUSH1 0x4 ADD PUSH1 0x1 SWAP1 SLOAD SWAP1 PUSH2 0x100 EXP SWAP1 DIV PUSH1 0xFF AND SWAP1 POP DUP7 JUMP JUMPDEST PUSH1 0x0 PUSH2 0x68F PUSH2 0x68A DUP5 PUSH2 0xA74 JUMP JUMPDEST PUSH2 0xA43 JUMP JUMPDEST SWAP1 POP DUP1 DUP3 DUP6 PUSH1 0x20 DUP7 MUL DUP3 ADD GT ISZERO PUSH2 0x6A5 JUMPI PUSH1 0x0 DUP1 REVERT JUMPDEST PUSH1 0x0 JUMPDEST DUP6 DUP2 LT ISZERO PUSH2 0x6D5 JUMPI DUP2 PUSH2 0x6BB DUP9 DUP3 PUSH2 0x745 JUMP JUMPDEST DUP5 MSTORE PUSH1 0x20 DUP5 ADD SWAP4 POP PUSH1 0x20 DUP4 ADD SWAP3 POP POP PUSH1 0x1 DUP2 ADD SWAP1 POP PUSH2 0x6A8 JUMP JUMPDEST POP POP POP SWAP4 SWAP3 POP POP POP JUMP JUMPDEST PUSH1 0x0 DUP2 CALLDATALOAD SWAP1 POP PUSH2 0x6EE DUP2 PUSH2 0xB6A JUMP JUMPDEST SWAP3 SWAP2 POP POP JUMP JUMPDEST PUSH1 0x0 DUP2 CALLDATALOAD SWAP1 POP PUSH2 0x703 DUP2 PUSH2 0xB81 JUMP JUMPDEST SWAP3 SWAP2 POP POP JUMP JUMPDEST PUSH1 0x0 DUP3 PUSH1 0x1F DUP4 ADD SLT PUSH2 0x71A JUMPI PUSH1 0x0 DUP1 REVERT JUMPDEST PUSH1 0x9 PUSH2 0x727 DUP5 DUP3 DUP6 PUSH2 0x67C JUMP JUMPDEST SWAP2 POP POP SWAP3 SWAP2 POP POP JUMP JUMPDEST PUSH1 0x0 DUP2 CALLDATALOAD SWAP1 POP PUSH2 0x73F DUP2 PUSH2 0xB98 JUMP JUMPDEST SWAP3 SWAP2 POP POP JUMP JUMPDEST PUSH1 0x0 DUP2 CALLDATALOAD SWAP1 POP PUSH2 0x754 DUP2 PUSH2 0xBAF JUMP JUMPDEST SWAP3 SWAP2 POP POP JUMP JUMPDEST PUSH1 0x0 PUSH1 0x20 DUP3 DUP5 SUB SLT ISZERO PUSH2 0x76C JUMPI PUSH1 0x0 DUP1 REVERT JUMPDEST PUSH1 0x0 PUSH2 0x77A DUP5 DUP3 DUP6 ADD PUSH2 0x6DF JUMP JUMPDEST SWAP2 POP POP SWAP3 SWAP2 POP POP JUMP JUMPDEST PUSH1 0x0 DUP1 PUSH1 0x0 DUP1 PUSH2 0x180 DUP6 DUP8 SUB SLT ISZERO PUSH2 0x79A JUMPI PUSH1 0x0 DUP1 REVERT JUMPDEST PUSH1 0x0 PUSH2 0x7A8 DUP8 DUP3 DUP9 ADD PUSH2 0x6F4 JUMP JUMPDEST SWAP5 POP POP PUSH1 0x20 PUSH2 0x7B9 DUP8 DUP3 DUP9 ADD PUSH2 0x730 JUMP JUMPDEST SWAP4 POP POP PUSH1 0x40 PUSH2 0x7CA DUP8 DUP3 DUP9 ADD PUSH2 0x730 JUMP JUMPDEST SWAP3 POP POP PUSH1 0x60 PUSH2 0x7DB DUP8 DUP3 DUP9 ADD PUSH2 0x709 JUMP JUMPDEST SWAP2 POP POP SWAP3 SWAP6 SWAP2 SWAP5 POP SWAP3 POP JUMP JUMPDEST PUSH1 0x0 PUSH1 0x20 DUP3 DUP5 SUB SLT ISZERO PUSH2 0x7F9 JUMPI PUSH1 0x0 DUP1 REVERT JUMPDEST PUSH1 0x0 PUSH2 0x807 DUP5 DUP3 DUP6 ADD PUSH2 0x745 JUMP JUMPDEST SWAP2 POP POP SWAP3 SWAP2 POP POP JUMP JUMPDEST PUSH2 0x819 DUP2 PUSH2 0xABD JUMP JUMPDEST DUP3 MSTORE POP POP JUMP JUMPDEST PUSH2 0x828 DUP2 PUSH2 0xACF JUMP JUMPDEST DUP3 MSTORE POP POP JUMP JUMPDEST PUSH2 0x837 DUP2 PUSH2 0xB17 JUMP JUMPDEST DUP3 MSTORE POP POP JUMP JUMPDEST PUSH1 0x0 PUSH2 0x84A PUSH1 0x1F DUP4 PUSH2 0xA9A JUMP JUMPDEST SWAP2 POP PUSH32 0x5265656E7472616E637947756172643A207265656E7472616E742063616C6C00 PUSH1 0x0 DUP4 ADD MSTORE PUSH1 0x20 DUP3 ADD SWAP1 POP SWAP2 SWAP1 POP JUMP JUMPDEST PUSH2 0x886 DUP2 PUSH2 0xB0D JUMP JUMPDEST DUP3 MSTORE POP POP JUMP JUMPDEST PUSH1 0x0 PUSH2 0x180 DUP3 ADD SWAP1 POP PUSH2 0x8A2 PUSH1 0x0 DUP4 ADD DUP16 PUSH2 0x810 JUMP JUMPDEST PUSH2 0x8AF PUSH1 0x20 DUP4 ADD DUP15 PUSH2 0x82E JUMP JUMPDEST PUSH2 0x8BC PUSH1 0x40 DUP4 ADD DUP14 PUSH2 0x82E JUMP JUMPDEST PUSH2 0x8C9 PUSH1 0x60 DUP4 ADD DUP13 PUSH2 0x87D JUMP JUMPDEST PUSH2 0x8D6 PUSH1 0x80 DUP4 ADD DUP12 PUSH2 0x87D JUMP JUMPDEST PUSH2 0x8E3 PUSH1 0xA0 DUP4 ADD DUP11 PUSH2 0x87D JUMP JUMPDEST PUSH2 0x8F0 PUSH1 0xC0 DUP4 ADD DUP10 PUSH2 0x87D JUMP JUMPDEST PUSH2 0x8FD PUSH1 0xE0 DUP4 ADD DUP9 PUSH2 0x87D JUMP JUMPDEST PUSH2 0x90B PUSH2 0x100 DUP4 ADD DUP8 PUSH2 0x87D JUMP JUMPDEST PUSH2 0x919 PUSH2 0x120 DUP4 ADD DUP7 PUSH2 0x87D JUMP JUMPDEST PUSH2 0x927 PUSH2 0x140 DUP4 ADD DUP6 PUSH2 0x87D JUMP JUMPDEST PUSH2 0x935 PUSH2 0x160 DUP4 ADD DUP5 PUSH2 0x87D JUMP JUMPDEST SWAP14 SWAP13 POP POP POP POP POP POP POP POP POP POP POP POP POP JUMP JUMPDEST PUSH1 0x0 PUSH1 0x20 DUP3 ADD SWAP1 POP DUP2 DUP2 SUB PUSH1 0x0 DUP4 ADD MSTORE PUSH2 0x95F DUP2 PUSH2 0x83D JUMP JUMPDEST SWAP1 POP SWAP2 SWAP1 POP JUMP JUMPDEST PUSH1 0x0 PUSH1 0x20 DUP3 ADD SWAP1 POP PUSH2 0x97B PUSH1 0x0 DUP4 ADD DUP5 PUSH2 0x87D JUMP JUMPDEST SWAP3 SWAP2 POP POP JUMP JUMPDEST PUSH1 0x0 PUSH1 0xC0 DUP3 ADD SWAP1 POP PUSH2 0x996 PUSH1 0x0 DUP4 ADD DUP10 PUSH2 0x87D JUMP JUMPDEST PUSH2 0x9A3 PUSH1 0x20 DUP4 ADD DUP9 PUSH2 0x87D JUMP JUMPDEST PUSH2 0x9B0 PUSH1 0x40 DUP4 ADD DUP8 PUSH2 0x87D JUMP JUMPDEST PUSH2 0x9BD PUSH1 0x60 DUP4 ADD DUP7 PUSH2 0x87D JUMP JUMPDEST PUSH2 0x9CA PUSH1 0x80 DUP4 ADD DUP6 PUSH2 0x81F JUMP JUMPDEST PUSH2 0x9D7 PUSH1 0xA0 DUP4 ADD DUP5 PUSH2 0x81F JUMP JUMPDEST SWAP8 SWAP7 POP POP POP POP POP POP POP JUMP JUMPDEST PUSH1 0x0 PUSH1 0xC0 DUP3 ADD SWAP1 POP PUSH2 0x9F7 PUSH1 0x0 DUP4 ADD DUP10 PUSH2 0x87D JUMP JUMPDEST PUSH2 0xA04 PUSH1 0x20 DUP4 ADD DUP9 PUSH2 0x87D JUMP JUMPDEST PUSH2 0xA11 PUSH1 0x40 DUP4 ADD DUP8 PUSH2 0x87D JUMP JUMPDEST PUSH2 0xA1E PUSH1 0x60 DUP4 ADD DUP7 PUSH2 0x87D JUMP JUMPDEST PUSH2 0xA2B PUSH1 0x80 DUP4 ADD DUP6 PUSH2 0x87D JUMP JUMPDEST PUSH2 0xA38 PUSH1 0xA0 DUP4 ADD DUP5 PUSH2 0x87D JUMP JUMPDEST SWAP8 SWAP7 POP POP POP POP POP POP POP JUMP JUMPDEST PUSH1 0x0 PUSH1 0x40 MLOAD SWAP1 POP DUP2 DUP2 ADD DUP2 DUP2 LT PUSH8 0xFFFFFFFFFFFFFFFF DUP3 GT OR ISZERO PUSH2 0xA6A JUMPI PUSH2 0xA69 PUSH2 0xB3B JUMP JUMPDEST JUMPDEST DUP1 PUSH1 0x40 MSTORE POP SWAP2 SWAP1 POP JUMP JUMPDEST PUSH1 0x0 PUSH8 0xFFFFFFFFFFFFFFFF DUP3 GT ISZERO PUSH2 0xA8F JUMPI PUSH2 0xA8E PUSH2 0xB3B JUMP JUMPDEST JUMPDEST PUSH1 0x20 DUP3 MUL SWAP1 POP SWAP2 SWAP1 POP JUMP JUMPDEST PUSH1 0x0 DUP3 DUP3 MSTORE PUSH1 0x20 DUP3 ADD SWAP1 POP SWAP3 SWAP2 POP POP JUMP JUMPDEST PUSH1 0x0 PUSH2 0xAB6 DUP3 PUSH2 0xAED JUMP JUMPDEST SWAP1 POP SWAP2 SWAP1 POP JUMP JUMPDEST PUSH1 0x0 PUSH2 0xAC8 DUP3 PUSH2 0xAED JUMP JUMPDEST SWAP1 POP SWAP2 SWAP1 POP JUMP JUMPDEST PUSH1 0x0 DUP2 ISZERO ISZERO SWAP1 POP SWAP2 SWAP1 POP JUMP JUMPDEST PUSH1 0x0 PUSH2 0xAE6 DUP3 PUSH2 0xAAB JUMP JUMPDEST SWAP1 POP SWAP2 SWAP1 POP JUMP JUMPDEST PUSH1 0x0 PUSH20 0xFFFFFFFFFFFFFFFFFFFFFFFFFFFFFFFFFFFFFFFF DUP3 AND SWAP1 POP SWAP2 SWAP1 POP JUMP JUMPDEST PUSH1 0x0 DUP2 SWAP1 POP SWAP2 SWAP1 POP JUMP JUMPDEST PUSH1 0x0 PUSH2 0xB22 DUP3 PUSH2 0xB29 JUMP JUMPDEST SWAP1 POP SWAP2 SWAP1 POP JUMP JUMPDEST PUSH1 0x0 PUSH2 0xB34 DUP3 PUSH2 0xAED JUMP JUMPDEST SWAP1 POP SWAP2 SWAP1 POP JUMP JUMPDEST PUSH32 0x4E487B7100000000000000000000000000000000000000000000000000000000 PUSH1 0x0 MSTORE PUSH1 0x41 PUSH1 0x4 MSTORE PUSH1 0x24 PUSH1 0x0 REVERT JUMPDEST PUSH2 0xB73 DUP2 PUSH2 0xAAB JUMP JUMPDEST DUP2 EQ PUSH2 0xB7E JUMPI PUSH1 0x0 DUP1 REVERT JUMPDEST POP JUMP JUMPDEST PUSH2 0xB8A DUP2 PUSH2 0xABD JUMP JUMPDEST DUP2 EQ PUSH2 0xB95 JUMPI PUSH1 0x0 DUP1 REVERT JUMPDEST POP JUMP JUMPDEST PUSH2 0xBA1 DUP2 PUSH2 0xADB JUMP JUMPDEST DUP2 EQ PUSH2 0xBAC JUMPI PUSH1 0x0 DUP1 REVERT JUMPDEST POP JUMP JUMPDEST PUSH2 0xBB8 DUP2 PUSH2 0xB0D JUMP JUMPDEST DUP2 EQ PUSH2 0xBC3 JUMPI PUSH1 0x0 DUP1 REVERT JUMPDEST POP JUMP INVALID LOG2 PUSH5 0x6970667358 0x22 SLT KECCAK256 AND 0xE7 0xFB 0xD8 0xD3 PUSH20 0xB3AED661BD54EA59E72F91D0FD0725B679F118D6 0xED CHAINID SWAP6 0x4E 0xCA 0x49 PUSH5 0x736F6C6343 STOP ADDMOD STOP STOP CALLER "
				},
				"gasEstimates": {
					"creation": {
						"codeDepositCost": "613600",
						"executionCost": "20659",
						"totalCost": "634259"
					},
					"external": {
						"buyerInfo(address)": "infinite",
						"depodit(uint256)": "26258",
						"initialSaleInfor(address,address,address,uint256[9])": "infinite",
						"presaleStatus()": "infinite",
						"saleInfor()": "infinite",
						"userFee(address)": "1514"
					}
				},
				"methodIdentifiers": {
					"buyerInfo(address)": "e2d3f423",
					"depodit(uint256)": "79647833",
					"initialSaleInfor(address,address,address,uint256[9])": "8f1eae4c",
					"presaleStatus()": "acfb2355",
					"saleInfor()": "18856a2f",
					"userFee(address)": "56c5f349"
				}
			},
			"storageLayout": {
				"storage": [
					{
						"astId": 277,
						"contract": "Ethereum/Presale.sol:Presale",
						"label": "_status",
						"offset": 0,
						"slot": "0",
						"type": "t_uint256"
					},
					{
						"astId": 141,
						"contract": "Ethereum/Presale.sol:Presale",
						"label": "buyerInfo",
						"offset": 0,
						"slot": "1",
						"type": "t_mapping(t_address,t_struct(BuyerInfo)123_storage)"
					},
					{
						"astId": 145,
						"contract": "Ethereum/Presale.sol:Presale",
						"label": "userFee",
						"offset": 0,
						"slot": "2",
						"type": "t_mapping(t_address,t_uint256)"
					},
					{
						"astId": 148,
						"contract": "Ethereum/Presale.sol:Presale",
						"label": "presaleStatus",
						"offset": 0,
						"slot": "3",
						"type": "t_struct(PresaleStatus)136_storage"
					},
					{
						"astId": 151,
						"contract": "Ethereum/Presale.sol:Presale",
						"label": "saleInfor",
						"offset": 0,
						"slot": "9",
						"type": "t_struct(SaleInfor)110_storage"
					}
				],
				"types": {
					"t_address": {
						"encoding": "inplace",
						"label": "address",
						"numberOfBytes": "20"
					},
					"t_address_payable": {
						"encoding": "inplace",
						"label": "address payable",
						"numberOfBytes": "20"
					},
					"t_bool": {
						"encoding": "inplace",
						"label": "bool",
						"numberOfBytes": "1"
					},
					"t_contract(IERC20)77": {
						"encoding": "inplace",
						"label": "contract IERC20",
						"numberOfBytes": "20"
					},
					"t_mapping(t_address,t_struct(BuyerInfo)123_storage)": {
						"encoding": "mapping",
						"key": "t_address",
						"label": "mapping(address => struct Presale.BuyerInfo)",
						"numberOfBytes": "32",
						"value": "t_struct(BuyerInfo)123_storage"
					},
					"t_mapping(t_address,t_uint256)": {
						"encoding": "mapping",
						"key": "t_address",
						"label": "mapping(address => uint256)",
						"numberOfBytes": "32",
						"value": "t_uint256"
					},
					"t_struct(BuyerInfo)123_storage": {
						"encoding": "inplace",
						"label": "struct Presale.BuyerInfo",
						"members": [
							{
								"astId": 112,
								"contract": "Ethereum/Presale.sol:Presale",
								"label": "baseDeposit",
								"offset": 0,
								"slot": "0",
								"type": "t_uint256"
							},
							{
								"astId": 114,
								"contract": "Ethereum/Presale.sol:Presale",
								"label": "tokenOwner",
								"offset": 0,
								"slot": "1",
								"type": "t_uint256"
							},
							{
								"astId": 116,
								"contract": "Ethereum/Presale.sol:Presale",
								"label": "lastWithDraw",
								"offset": 0,
								"slot": "2",
								"type": "t_uint256"
							},
							{
								"astId": 118,
								"contract": "Ethereum/Presale.sol:Presale",
								"label": "totalTokenWithDraw",
								"offset": 0,
								"slot": "3",
								"type": "t_uint256"
							},
							{
								"astId": 120,
								"contract": "Ethereum/Presale.sol:Presale",
								"label": "isRefund",
								"offset": 0,
								"slot": "4",
								"type": "t_bool"
							},
							{
								"astId": 122,
								"contract": "Ethereum/Presale.sol:Presale",
								"label": "isClaim",
								"offset": 1,
								"slot": "4",
								"type": "t_bool"
							}
						],
						"numberOfBytes": "160"
					},
					"t_struct(PresaleStatus)136_storage": {
						"encoding": "inplace",
						"label": "struct Presale.PresaleStatus",
						"members": [
							{
								"astId": 125,
								"contract": "Ethereum/Presale.sol:Presale",
								"label": "totalBaseCollected",
								"offset": 0,
								"slot": "0",
								"type": "t_uint256"
							},
							{
								"astId": 127,
								"contract": "Ethereum/Presale.sol:Presale",
								"label": "totalTokenSold",
								"offset": 0,
								"slot": "1",
								"type": "t_uint256"
							},
							{
								"astId": 129,
								"contract": "Ethereum/Presale.sol:Presale",
								"label": "totalTokenWithDraw",
								"offset": 0,
								"slot": "2",
								"type": "t_uint256"
							},
							{
								"astId": 131,
								"contract": "Ethereum/Presale.sol:Presale",
								"label": "totalBaseWithDraw",
								"offset": 0,
								"slot": "3",
								"type": "t_uint256"
							},
							{
								"astId": 133,
								"contract": "Ethereum/Presale.sol:Presale",
								"label": "numByer",
								"offset": 0,
								"slot": "4",
								"type": "t_uint256"
							},
							{
								"astId": 135,
								"contract": "Ethereum/Presale.sol:Presale",
								"label": "totalFee",
								"offset": 0,
								"slot": "5",
								"type": "t_uint256"
							}
						],
						"numberOfBytes": "192"
					},
					"t_struct(SaleInfor)110_storage": {
						"encoding": "inplace",
						"label": "struct Presale.SaleInfor",
						"members": [
							{
								"astId": 85,
								"contract": "Ethereum/Presale.sol:Presale",
								"label": "presaleOwner",
								"offset": 0,
								"slot": "0",
								"type": "t_address_payable"
							},
							{
								"astId": 88,
								"contract": "Ethereum/Presale.sol:Presale",
								"label": "saleToken",
								"offset": 0,
								"slot": "1",
								"type": "t_contract(IERC20)77"
							},
							{
								"astId": 91,
								"contract": "Ethereum/Presale.sol:Presale",
								"label": "baseToken",
								"offset": 0,
								"slot": "2",
								"type": "t_contract(IERC20)77"
							},
							{
								"astId": 93,
								"contract": "Ethereum/Presale.sol:Presale",
								"label": "tokenPrice",
								"offset": 0,
								"slot": "3",
								"type": "t_uint256"
							},
							{
								"astId": 95,
								"contract": "Ethereum/Presale.sol:Presale",
								"label": "startSale",
								"offset": 0,
								"slot": "4",
								"type": "t_uint256"
							},
							{
								"astId": 97,
								"contract": "Ethereum/Presale.sol:Presale",
								"label": "endSale",
								"offset": 0,
								"slot": "5",
								"type": "t_uint256"
							},
							{
								"astId": 99,
								"contract": "Ethereum/Presale.sol:Presale",
								"label": "valueSwapERC20",
								"offset": 0,
								"slot": "6",
								"type": "t_uint256"
							},
							{
								"astId": 101,
								"contract": "Ethereum/Presale.sol:Presale",
								"label": "feeTransaction",
								"offset": 0,
								"slot": "7",
								"type": "t_uint256"
							},
							{
								"astId": 103,
								"contract": "Ethereum/Presale.sol:Presale",
								"label": "minSpendPerBuyer",
								"offset": 0,
								"slot": "8",
								"type": "t_uint256"
							},
							{
								"astId": 105,
								"contract": "Ethereum/Presale.sol:Presale",
								"label": "maxSpendPerBuyer",
								"offset": 0,
								"slot": "9",
								"type": "t_uint256"
							},
							{
								"astId": 107,
								"contract": "Ethereum/Presale.sol:Presale",
								"label": "refundFee",
								"offset": 0,
								"slot": "10",
								"type": "t_uint256"
							},
							{
								"astId": 109,
								"contract": "Ethereum/Presale.sol:Presale",
								"label": "claimFee",
								"offset": 0,
								"slot": "11",
								"type": "t_uint256"
							}
						],
						"numberOfBytes": "384"
					},
					"t_uint256": {
						"encoding": "inplace",
						"label": "uint256",
						"numberOfBytes": "32"
					}
				}
			},
			"userdoc": {
				"kind": "user",
				"methods": {},
				"version": 1
			}
		}
	}
}