{
	"Ethereum/Generator.sol": {
		"Generator": {
			"abi": [
				{
					"inputs": [],
					"stateMutability": "nonpayable",
					"type": "constructor"
				},
				{
					"anonymous": false,
					"inputs": [
						{
							"indexed": true,
							"internalType": "address",
							"name": "previousOwner",
							"type": "address"
						},
						{
							"indexed": true,
							"internalType": "address",
							"name": "newOwner",
							"type": "address"
						}
					],
					"name": "OwnershipTransferred",
					"type": "event"
				},
				{
					"inputs": [
						{
							"internalType": "address payable",
							"name": "_presaleOwner",
							"type": "address"
						},
						{
							"internalType": "contract ERC20",
							"name": "_saleToken",
							"type": "address"
						},
						{
							"internalType": "contract ERC20",
							"name": "_baseTOken",
							"type": "address"
						},
						{
							"internalType": "uint256[9]",
							"name": "datas",
							"type": "uint256[9]"
						}
					],
					"name": "createPresale",
					"outputs": [],
					"stateMutability": "payable",
					"type": "function"
				},
				{
					"inputs": [],
					"name": "getFee",
					"outputs": [
						{
							"internalType": "uint256",
							"name": "",
							"type": "uint256"
						}
					],
					"stateMutability": "view",
					"type": "function"
				},
				{
					"inputs": [],
					"name": "owner",
					"outputs": [
						{
							"internalType": "address",
							"name": "",
							"type": "address"
						}
					],
					"stateMutability": "view",
					"type": "function"
				},
				{
					"inputs": [],
					"name": "presaleSettings",
					"outputs": [
						{
							"internalType": "contract PresaleSettings",
							"name": "",
							"type": "address"
						}
					],
					"stateMutability": "view",
					"type": "function"
				},
				{
					"inputs": [],
					"name": "renounceOwnership",
					"outputs": [],
					"stateMutability": "nonpayable",
					"type": "function"
				},
				{
					"inputs": [
						{
							"internalType": "address",
							"name": "newOwner",
							"type": "address"
						}
					],
					"name": "transferOwnership",
					"outputs": [],
					"stateMutability": "nonpayable",
					"type": "function"
				}
			],
			"devdoc": {
				"kind": "dev",
				"methods": {
					"owner()": {
						"details": "Returns the address of the current owner."
					},
					"renounceOwnership()": {
						"details": "Leaves the contract without owner. It will not be possible to call `onlyOwner` functions anymore. Can only be called by the current owner. NOTE: Renouncing ownership will leave the contract without an owner, thereby removing any functionality that is only available to the owner."
					},
					"transferOwnership(address)": {
						"details": "Transfers ownership of the contract to a new account (`newOwner`). Can only be called by the current owner."
					}
				},
				"version": 1
			},
			"evm": {
				"assembly": "    /* \"Ethereum/Generator.sol\":229:1463  contract Generator is Ownable {\r... */\n  mstore(0x40, 0x80)\n    /* \"Ethereum/Generator.sol\":778:895  constructor() public {\r... */\n  callvalue\n  dup1\n  iszero\n  tag_1\n  jumpi\n  0x00\n  dup1\n  revert\ntag_1:\n  pop\n    /* \"Utils/Ownable.sol\":942:974  _transferOwnership(_msgSender()) */\n  tag_5\n    /* \"Utils/Context.sol\":736:746  msg.sender */\n  caller\n    /* \"Utils/Ownable.sol\":942:960  _transferOwnership */\n  tag_8\n    /* \"Utils/Ownable.sol\":942:974  _transferOwnership(_msgSender()) */\n  jump\t// in\ntag_5:\n    /* \"Ethereum/Generator.sol\":810:825  presaleSettings */\n  0x01\n    /* \"Ethereum/Generator.sol\":810:887  presaleSettings = PresaleSettings(0x354652D0E18dBC94A125b317b39E0505a3832790) */\n  dup1\n  sload\n  not(sub(shl(0xa0, 0x01), 0x01))\n  and\n    /* \"Ethereum/Generator.sol\":844:886  0x354652D0E18dBC94A125b317b39E0505a3832790 */\n  0x354652d0e18dbc94a125b317b39e0505a3832790\n    /* \"Ethereum/Generator.sol\":810:887  presaleSettings = PresaleSettings(0x354652D0E18dBC94A125b317b39E0505a3832790) */\n  or\n  swap1\n  sstore\n    /* \"Ethereum/Generator.sol\":229:1463  contract Generator is Ownable {\r... */\n  jump(tag_10)\n    /* \"Utils/Ownable.sol\":2333:2524  function _transferOwnership(address newOwner) internal virtual {\r... */\ntag_8:\n    /* \"Utils/Ownable.sol\":2407:2423  address oldOwner */\n  0x00\n    /* \"Utils/Ownable.sol\":2426:2432  _owner */\n  dup1\n  sload\n  sub(shl(0xa0, 0x01), 0x01)\n    /* \"Utils/Ownable.sol\":2443:2460  _owner = newOwner */\n  dup4\n  dup2\n  and\n  not(sub(shl(0xa0, 0x01), 0x01))\n  dup4\n  and\n  dup2\n  or\n  dup5\n  sstore\n    /* \"Utils/Ownable.sol\":2476:2516  OwnershipTransferred(oldOwner, newOwner) */\n  mload(0x40)\n    /* \"Utils/Ownable.sol\":2426:2432  _owner */\n  swap2\n  swap1\n  swap3\n  and\n  swap3\n  dup4\n  swap2\n    /* \"Utils/Ownable.sol\":2476:2516  OwnershipTransferred(oldOwner, newOwner) */\n  0x8be0079c531659141344cd1fd0a4f28419497f9722a3daafe3b4186f6b6457e0\n  swap2\n    /* \"Utils/Ownable.sol\":2407:2423  address oldOwner */\n  swap1\n    /* \"Utils/Ownable.sol\":2476:2516  OwnershipTransferred(oldOwner, newOwner) */\n  log3\n    /* \"Utils/Ownable.sol\":2396:2524  {\r... */\n  pop\n    /* \"Utils/Ownable.sol\":2333:2524  function _transferOwnership(address newOwner) internal virtual {\r... */\n  pop\n  jump\t// out\n    /* \"Ethereum/Generator.sol\":229:1463  contract Generator is Ownable {\r... */\ntag_10:\n  dataSize(sub_0)\n  dup1\n  dataOffset(sub_0)\n  0x00\n  codecopy\n  0x00\n  return\nstop\n\nsub_0: assembly {\n        /* \"Ethereum/Generator.sol\":229:1463  contract Generator is Ownable {\r... */\n      mstore(0x40, 0x80)\n      jumpi(tag_1, lt(calldatasize, 0x04))\n      shr(0xe0, calldataload(0x00))\n      dup1\n      0x715018a6\n      eq\n      tag_2\n      jumpi\n      dup1\n      0x8da5cb5b\n      eq\n      tag_3\n      jumpi\n      dup1\n      0xced72f87\n      eq\n      tag_4\n      jumpi\n      dup1\n      0xd8f59f91\n      eq\n      tag_5\n      jumpi\n      dup1\n      0xf2fde38b\n      eq\n      tag_6\n      jumpi\n      dup1\n      0xf60c83bb\n      eq\n      tag_7\n      jumpi\n    tag_1:\n      0x00\n      dup1\n      revert\n        /* \"Utils/Ownable.sol\":1714:1817  function renounceOwnership() public virtual onlyOwner {\r... */\n    tag_2:\n      callvalue\n      dup1\n      iszero\n      tag_8\n      jumpi\n      0x00\n      dup1\n      revert\n    tag_8:\n      pop\n      tag_9\n      tag_10\n      jump\t// in\n    tag_9:\n      stop\n        /* \"Utils/Ownable.sol\":1063:1150  function owner() public view virtual returns (address) {\r... */\n    tag_3:\n      callvalue\n      dup1\n      iszero\n      tag_11\n      jumpi\n      0x00\n      dup1\n      revert\n    tag_11:\n      pop\n        /* \"Utils/Ownable.sol\":1109:1116  address */\n      0x00\n        /* \"Utils/Ownable.sol\":1136:1142  _owner */\n      sload\n      sub(shl(0xa0, 0x01), 0x01)\n      and\n        /* \"Utils/Ownable.sol\":1063:1150  function owner() public view virtual returns (address) {\r... */\n    tag_12:\n      mload(0x40)\n      sub(shl(0xa0, 0x01), 0x01)\n        /* \"#utility.yul\":1885:1917   */\n      swap1\n      swap2\n      and\n        /* \"#utility.yul\":1867:1918   */\n      dup2\n      mstore\n        /* \"#utility.yul\":1855:1857   */\n      0x20\n        /* \"#utility.yul\":1840:1858   */\n      add\n        /* \"Utils/Ownable.sol\":1063:1150  function owner() public view virtual returns (address) {\r... */\n    tag_14:\n      mload(0x40)\n      dup1\n      swap2\n      sub\n      swap1\n      return\n        /* \"Ethereum/Generator.sol\":1352:1460  function getFee() public view returns(uint256) {\r... */\n    tag_4:\n      callvalue\n      dup1\n      iszero\n      tag_16\n      jumpi\n      0x00\n      dup1\n      revert\n    tag_16:\n      pop\n      tag_17\n      tag_18\n      jump\t// in\n    tag_17:\n      mload(0x40)\n        /* \"#utility.yul\":4134:4159   */\n      swap1\n      dup2\n      mstore\n        /* \"#utility.yul\":4122:4124   */\n      0x20\n        /* \"#utility.yul\":4107:4125   */\n      add\n        /* \"Ethereum/Generator.sol\":1352:1460  function getFee() public view returns(uint256) {\r... */\n      tag_14\n        /* \"#utility.yul\":4089:4165   */\n      jump\n        /* \"Ethereum/Generator.sol\":731:769  PresaleSettings public presaleSettings */\n    tag_5:\n      callvalue\n      dup1\n      iszero\n      tag_21\n      jumpi\n      0x00\n      dup1\n      revert\n    tag_21:\n      pop\n      sload(0x01)\n      tag_12\n      swap1\n      sub(shl(0xa0, 0x01), 0x01)\n      and\n      dup2\n      jump\n        /* \"Utils/Ownable.sol\":1972:2173  function transferOwnership(address newOwner) public virtual onlyOwner {\r... */\n    tag_6:\n      callvalue\n      dup1\n      iszero\n      tag_26\n      jumpi\n      0x00\n      dup1\n      revert\n    tag_26:\n      pop\n      tag_9\n      tag_28\n      calldatasize\n      0x04\n      tag_29\n      jump\t// in\n    tag_28:\n      tag_30\n      jump\t// in\n        /* \"Ethereum/Generator.sol\":903:1344  function createPresale(\r... */\n    tag_7:\n      tag_9\n      tag_32\n      calldatasize\n      0x04\n      tag_33\n      jump\t// in\n    tag_32:\n      tag_34\n      jump\t// in\n        /* \"Utils/Ownable.sol\":1714:1817  function renounceOwnership() public virtual onlyOwner {\r... */\n    tag_10:\n        /* \"Utils/Ownable.sol\":1109:1116  address */\n      0x00\n        /* \"Utils/Ownable.sol\":1136:1142  _owner */\n      sload\n      sub(shl(0xa0, 0x01), 0x01)\n      and\n        /* \"Utils/Context.sol\":736:746  msg.sender */\n      caller\n        /* \"Utils/Ownable.sol\":1283:1306  owner() == _msgSender() */\n      eq\n        /* \"Utils/Ownable.sol\":1275:1343  require(owner() == _msgSender(), \"Ownable: caller is not the owner\") */\n      tag_39\n      jumpi\n      mload(0x40)\n      shl(0xe5, 0x461bcd)\n      dup2\n      mstore\n        /* \"#utility.yul\":3829:3831   */\n      0x20\n        /* \"Utils/Ownable.sol\":1275:1343  require(owner() == _msgSender(), \"Ownable: caller is not the owner\") */\n      0x04\n      dup3\n      add\n        /* \"#utility.yul\":3811:3832   */\n      dup2\n      swap1\n      mstore\n        /* \"#utility.yul\":3848:3866   */\n      0x24\n      dup3\n      add\n        /* \"#utility.yul\":3841:3871   */\n      mstore\n        /* \"#utility.yul\":3907:3941   */\n      0x4f776e61626c653a2063616c6c6572206973206e6f7420746865206f776e6572\n        /* \"#utility.yul\":3887:3905   */\n      0x44\n      dup3\n      add\n        /* \"#utility.yul\":3880:3942   */\n      mstore\n        /* \"#utility.yul\":3959:3977   */\n      0x64\n      add\n        /* \"Utils/Ownable.sol\":1275:1343  require(owner() == _msgSender(), \"Ownable: caller is not the owner\") */\n    tag_40:\n      mload(0x40)\n      dup1\n      swap2\n      sub\n      swap1\n      revert\n    tag_39:\n        /* \"Utils/Ownable.sol\":1779:1809  _transferOwnership(address(0)) */\n      tag_43\n        /* \"Utils/Ownable.sol\":1806:1807  0 */\n      0x00\n        /* \"Utils/Ownable.sol\":1779:1797  _transferOwnership */\n      tag_44\n        /* \"Utils/Ownable.sol\":1779:1809  _transferOwnership(address(0)) */\n      jump\t// in\n    tag_43:\n        /* \"Utils/Ownable.sol\":1714:1817  function renounceOwnership() public virtual onlyOwner {\r... */\n      jump\t// out\n        /* \"Ethereum/Generator.sol\":1352:1460  function getFee() public view returns(uint256) {\r... */\n    tag_18:\n        /* \"Ethereum/Generator.sol\":1417:1432  presaleSettings */\n      sload(0x01)\n        /* \"Ethereum/Generator.sol\":1417:1452  presaleSettings.getEthCreationFee() */\n      0x40\n      dup1\n      mload\n      shl(0xe0, 0xe38ef7a3)\n      dup2\n      mstore\n      swap1\n      mload\n        /* \"Ethereum/Generator.sol\":1390:1397  uint256 */\n      0x00\n      swap3\n      sub(shl(0xa0, 0x01), 0x01)\n        /* \"Ethereum/Generator.sol\":1417:1432  presaleSettings */\n      and\n      swap2\n        /* \"Ethereum/Generator.sol\":1417:1450  presaleSettings.getEthCreationFee */\n      0xe38ef7a3\n      swap2\n        /* \"Ethereum/Generator.sol\":1417:1452  presaleSettings.getEthCreationFee() */\n      0x04\n      dup1\n      dup4\n      add\n      swap3\n      0x20\n      swap3\n      swap2\n      swap1\n      dup3\n      swap1\n      sub\n      add\n      dup2\n        /* \"Ethereum/Generator.sol\":1417:1432  presaleSettings */\n      dup7\n        /* \"Ethereum/Generator.sol\":1417:1452  presaleSettings.getEthCreationFee() */\n      dup1\n      extcodesize\n      iszero\n      dup1\n      iszero\n      tag_47\n      jumpi\n      0x00\n      dup1\n      revert\n    tag_47:\n      pop\n      gas\n      staticcall\n      iszero\n      dup1\n      iszero\n      tag_49\n      jumpi\n      returndatasize\n      0x00\n      dup1\n      returndatacopy\n      revert(0x00, returndatasize)\n    tag_49:\n      pop\n      pop\n      pop\n      pop\n      mload(0x40)\n      returndatasize\n      not(0x1f)\n      0x1f\n      dup3\n      add\n      and\n      dup3\n      add\n      dup1\n      0x40\n      mstore\n      pop\n      dup2\n      add\n      swap1\n      tag_50\n      swap2\n      swap1\n      tag_51\n      jump\t// in\n    tag_50:\n        /* \"Ethereum/Generator.sol\":1410:1452  return presaleSettings.getEthCreationFee() */\n      swap1\n      pop\n        /* \"Ethereum/Generator.sol\":1352:1460  function getFee() public view returns(uint256) {\r... */\n      swap1\n      jump\t// out\n        /* \"Utils/Ownable.sol\":1972:2173  function transferOwnership(address newOwner) public virtual onlyOwner {\r... */\n    tag_30:\n        /* \"Utils/Ownable.sol\":1109:1116  address */\n      0x00\n        /* \"Utils/Ownable.sol\":1136:1142  _owner */\n      sload\n      sub(shl(0xa0, 0x01), 0x01)\n      and\n        /* \"Utils/Context.sol\":736:746  msg.sender */\n      caller\n        /* \"Utils/Ownable.sol\":1283:1306  owner() == _msgSender() */\n      eq\n        /* \"Utils/Ownable.sol\":1275:1343  require(owner() == _msgSender(), \"Ownable: caller is not the owner\") */\n      tag_55\n      jumpi\n      mload(0x40)\n      shl(0xe5, 0x461bcd)\n      dup2\n      mstore\n        /* \"#utility.yul\":3829:3831   */\n      0x20\n        /* \"Utils/Ownable.sol\":1275:1343  require(owner() == _msgSender(), \"Ownable: caller is not the owner\") */\n      0x04\n      dup3\n      add\n        /* \"#utility.yul\":3811:3832   */\n      dup2\n      swap1\n      mstore\n        /* \"#utility.yul\":3848:3866   */\n      0x24\n      dup3\n      add\n        /* \"#utility.yul\":3841:3871   */\n      mstore\n        /* \"#utility.yul\":3907:3941   */\n      0x4f776e61626c653a2063616c6c6572206973206e6f7420746865206f776e6572\n        /* \"#utility.yul\":3887:3905   */\n      0x44\n      dup3\n      add\n        /* \"#utility.yul\":3880:3942   */\n      mstore\n        /* \"#utility.yul\":3959:3977   */\n      0x64\n      add\n        /* \"Utils/Ownable.sol\":1275:1343  require(owner() == _msgSender(), \"Ownable: caller is not the owner\") */\n      tag_40\n        /* \"#utility.yul\":3801:3983   */\n      jump\n        /* \"Utils/Ownable.sol\":1275:1343  require(owner() == _msgSender(), \"Ownable: caller is not the owner\") */\n    tag_55:\n      sub(shl(0xa0, 0x01), 0x01)\n        /* \"Utils/Ownable.sol\":2061:2083  newOwner != address(0) */\n      dup2\n      and\n        /* \"Utils/Ownable.sol\":2053:2126  require(newOwner != address(0), \"Ownable: new owner is the zero address\") */\n      tag_58\n      jumpi\n      mload(0x40)\n      shl(0xe5, 0x461bcd)\n      dup2\n      mstore\n        /* \"#utility.yul\":2720:2722   */\n      0x20\n        /* \"Utils/Ownable.sol\":2053:2126  require(newOwner != address(0), \"Ownable: new owner is the zero address\") */\n      0x04\n      dup3\n      add\n        /* \"#utility.yul\":2702:2723   */\n      mstore\n        /* \"#utility.yul\":2759:2761   */\n      0x26\n        /* \"#utility.yul\":2739:2757   */\n      0x24\n      dup3\n      add\n        /* \"#utility.yul\":2732:2762   */\n      mstore\n        /* \"#utility.yul\":2798:2832   */\n      0x4f776e61626c653a206e6577206f776e657220697320746865207a65726f2061\n        /* \"#utility.yul\":2778:2796   */\n      0x44\n      dup3\n      add\n        /* \"#utility.yul\":2771:2833   */\n      mstore\n      shl(0xd0, 0x646472657373)\n        /* \"#utility.yul\":2849:2867   */\n      0x64\n      dup3\n      add\n        /* \"#utility.yul\":2842:2878   */\n      mstore\n        /* \"#utility.yul\":2895:2914   */\n      0x84\n      add\n        /* \"Utils/Ownable.sol\":2053:2126  require(newOwner != address(0), \"Ownable: new owner is the zero address\") */\n      tag_40\n        /* \"#utility.yul\":2692:2920   */\n      jump\n        /* \"Utils/Ownable.sol\":2053:2126  require(newOwner != address(0), \"Ownable: new owner is the zero address\") */\n    tag_58:\n        /* \"Utils/Ownable.sol\":2137:2165  _transferOwnership(newOwner) */\n      tag_61\n        /* \"Utils/Ownable.sol\":2156:2164  newOwner */\n      dup2\n        /* \"Utils/Ownable.sol\":2137:2155  _transferOwnership */\n      tag_44\n        /* \"Utils/Ownable.sol\":2137:2165  _transferOwnership(newOwner) */\n      jump\t// in\n    tag_61:\n        /* \"Utils/Ownable.sol\":1972:2173  function transferOwnership(address newOwner) public virtual onlyOwner {\r... */\n      pop\n      jump\t// out\n        /* \"Ethereum/Generator.sol\":903:1344  function createPresale(\r... */\n    tag_34:\n        /* \"Ethereum/Generator.sol\":1095:1103  datas[0] */\n      dup1\n      mload\n        /* \"Ethereum/Generator.sol\":1087:1140  require(datas[0] > 0, \"Swap token must great then 0\") */\n      tag_66\n      jumpi\n      mload(0x40)\n      shl(0xe5, 0x461bcd)\n      dup2\n      mstore\n        /* \"#utility.yul\":2363:2365   */\n      0x20\n        /* \"Ethereum/Generator.sol\":1087:1140  require(datas[0] > 0, \"Swap token must great then 0\") */\n      0x04\n      dup3\n      add\n        /* \"#utility.yul\":2345:2366   */\n      mstore\n        /* \"#utility.yul\":2402:2404   */\n      0x1c\n        /* \"#utility.yul\":2382:2400   */\n      0x24\n      dup3\n      add\n        /* \"#utility.yul\":2375:2405   */\n      mstore\n        /* \"#utility.yul\":2441:2471   */\n      0x5377617020746f6b656e206d757374206772656174207468656e203000000000\n        /* \"#utility.yul\":2421:2439   */\n      0x44\n      dup3\n      add\n        /* \"#utility.yul\":2414:2472   */\n      mstore\n        /* \"#utility.yul\":2489:2507   */\n      0x64\n      add\n        /* \"Ethereum/Generator.sol\":1087:1140  require(datas[0] > 0, \"Swap token must great then 0\") */\n      tag_40\n        /* \"#utility.yul\":2335:2513   */\n      jump\n        /* \"Ethereum/Generator.sol\":1087:1140  require(datas[0] > 0, \"Swap token must great then 0\") */\n    tag_66:\n        /* \"Ethereum/Generator.sol\":1170:1178  datas[2] */\n      0x40\n      dup2\n      add\n      mload\n      0x20\n        /* \"Ethereum/Generator.sol\":1159:1167  datas[1] */\n      dup3\n      add\n      mload\n        /* \"Ethereum/Generator.sol\":1159:1178  datas[1] < datas[2] */\n      lt\n        /* \"Ethereum/Generator.sol\":1151:1212  require(datas[1] < datas[2], \"Start time less then end time\") */\n      tag_73\n      jumpi\n      mload(0x40)\n      shl(0xe5, 0x461bcd)\n      dup2\n      mstore\n        /* \"#utility.yul\":3127:3129   */\n      0x20\n        /* \"Ethereum/Generator.sol\":1151:1212  require(datas[1] < datas[2], \"Start time less then end time\") */\n      0x04\n      dup3\n      add\n        /* \"#utility.yul\":3109:3130   */\n      mstore\n        /* \"#utility.yul\":3166:3168   */\n      0x1d\n        /* \"#utility.yul\":3146:3164   */\n      0x24\n      dup3\n      add\n        /* \"#utility.yul\":3139:3169   */\n      mstore\n        /* \"#utility.yul\":3205:3236   */\n      0x53746172742074696d65206c657373207468656e20656e642074696d65000000\n        /* \"#utility.yul\":3185:3203   */\n      0x44\n      dup3\n      add\n        /* \"#utility.yul\":3178:3237   */\n      mstore\n        /* \"#utility.yul\":3254:3272   */\n      0x64\n      add\n        /* \"Ethereum/Generator.sol\":1151:1212  require(datas[1] < datas[2], \"Start time less then end time\") */\n      tag_40\n        /* \"#utility.yul\":3099:3278   */\n      jump\n        /* \"Ethereum/Generator.sol\":1151:1212  require(datas[1] < datas[2], \"Start time less then end time\") */\n    tag_73:\n        /* \"Ethereum/Generator.sol\":1258:1273  presaleSettings */\n      0x01\n      0x00\n      swap1\n      sload\n      swap1\n      0x0100\n      exp\n      swap1\n      div\n      sub(shl(0xa0, 0x01), 0x01)\n      and\n      sub(shl(0xa0, 0x01), 0x01)\n        /* \"Ethereum/Generator.sol\":1258:1291  presaleSettings.getEthCreationFee */\n      and\n      0xe38ef7a3\n        /* \"Ethereum/Generator.sol\":1258:1293  presaleSettings.getEthCreationFee() */\n      mload(0x40)\n      dup2\n      0xffffffff\n      and\n      0xe0\n      shl\n      dup2\n      mstore\n      0x04\n      add\n      0x20\n      mload(0x40)\n      dup1\n      dup4\n      sub\n      dup2\n      dup7\n      dup1\n      extcodesize\n      iszero\n      dup1\n      iszero\n      tag_76\n      jumpi\n      0x00\n      dup1\n      revert\n    tag_76:\n      pop\n      gas\n      staticcall\n      iszero\n      dup1\n      iszero\n      tag_78\n      jumpi\n      returndatasize\n      0x00\n      dup1\n      returndatacopy\n      revert(0x00, returndatasize)\n    tag_78:\n      pop\n      pop\n      pop\n      pop\n      mload(0x40)\n      returndatasize\n      not(0x1f)\n      0x1f\n      dup3\n      add\n      and\n      dup3\n      add\n      dup1\n      0x40\n      mstore\n      pop\n      dup2\n      add\n      swap1\n      tag_79\n      swap2\n      swap1\n      tag_51\n      jump\t// in\n    tag_79:\n        /* \"Ethereum/Generator.sol\":1245:1254  msg.value */\n      callvalue\n        /* \"Ethereum/Generator.sol\":1245:1293  msg.value == presaleSettings.getEthCreationFee() */\n      eq\n        /* \"Ethereum/Generator.sol\":1223:1336  require(\r... */\n      tag_80\n      jumpi\n      mload(0x40)\n      shl(0xe5, 0x461bcd)\n      dup2\n      mstore\n        /* \"#utility.yul\":3485:3487   */\n      0x20\n        /* \"Ethereum/Generator.sol\":1223:1336  require(\r... */\n      0x04\n      dup3\n      add\n        /* \"#utility.yul\":3467:3488   */\n      mstore\n        /* \"#utility.yul\":3524:3526   */\n      0x0f\n        /* \"#utility.yul\":3504:3522   */\n      0x24\n      dup3\n      add\n        /* \"#utility.yul\":3497:3527   */\n      mstore\n      shl(0x88, 0x466565206e6f74206d617070696e67)\n        /* \"#utility.yul\":3543:3561   */\n      0x44\n      dup3\n      add\n        /* \"#utility.yul\":3536:3581   */\n      mstore\n        /* \"#utility.yul\":3598:3616   */\n      0x64\n      add\n        /* \"Ethereum/Generator.sol\":1223:1336  require(\r... */\n      tag_40\n        /* \"#utility.yul\":3457:3622   */\n      jump\n        /* \"Ethereum/Generator.sol\":1223:1336  require(\r... */\n    tag_80:\n        /* \"Ethereum/Generator.sol\":903:1344  function createPresale(\r... */\n      pop\n      pop\n      pop\n      pop\n      jump\t// out\n        /* \"Utils/Ownable.sol\":2333:2524  function _transferOwnership(address newOwner) internal virtual {\r... */\n    tag_44:\n        /* \"Utils/Ownable.sol\":2407:2423  address oldOwner */\n      0x00\n        /* \"Utils/Ownable.sol\":2426:2432  _owner */\n      dup1\n      sload\n      sub(shl(0xa0, 0x01), 0x01)\n        /* \"Utils/Ownable.sol\":2443:2460  _owner = newOwner */\n      dup4\n      dup2\n      and\n      not(sub(shl(0xa0, 0x01), 0x01))\n      dup4\n      and\n      dup2\n      or\n      dup5\n      sstore\n        /* \"Utils/Ownable.sol\":2476:2516  OwnershipTransferred(oldOwner, newOwner) */\n      mload(0x40)\n        /* \"Utils/Ownable.sol\":2426:2432  _owner */\n      swap2\n      swap1\n      swap3\n      and\n      swap3\n      dup4\n      swap2\n        /* \"Utils/Ownable.sol\":2476:2516  OwnershipTransferred(oldOwner, newOwner) */\n      0x8be0079c531659141344cd1fd0a4f28419497f9722a3daafe3b4186f6b6457e0\n      swap2\n        /* \"Utils/Ownable.sol\":2407:2423  address oldOwner */\n      swap1\n        /* \"Utils/Ownable.sol\":2476:2516  OwnershipTransferred(oldOwner, newOwner) */\n      log3\n        /* \"Utils/Ownable.sol\":2396:2524  {\r... */\n      pop\n        /* \"Utils/Ownable.sol\":2333:2524  function _transferOwnership(address newOwner) internal virtual {\r... */\n      pop\n      jump\t// out\n        /* \"#utility.yul\":14:261   */\n    tag_29:\n        /* \"#utility.yul\":73:79   */\n      0x00\n        /* \"#utility.yul\":126:128   */\n      0x20\n        /* \"#utility.yul\":114:123   */\n      dup3\n        /* \"#utility.yul\":105:112   */\n      dup5\n        /* \"#utility.yul\":101:124   */\n      sub\n        /* \"#utility.yul\":97:129   */\n      slt\n        /* \"#utility.yul\":94:96   */\n      iszero\n      tag_87\n      jumpi\n        /* \"#utility.yul\":142:143   */\n      0x00\n        /* \"#utility.yul\":139:140   */\n      dup1\n        /* \"#utility.yul\":132:144   */\n      revert\n        /* \"#utility.yul\":94:96   */\n    tag_87:\n        /* \"#utility.yul\":181:190   */\n      dup2\n        /* \"#utility.yul\":168:191   */\n      calldataload\n        /* \"#utility.yul\":200:231   */\n      tag_88\n        /* \"#utility.yul\":225:230   */\n      dup2\n        /* \"#utility.yul\":200:231   */\n      tag_89\n      jump\t// in\n    tag_88:\n        /* \"#utility.yul\":250:255   */\n      swap4\n        /* \"#utility.yul\":84:261   */\n      swap3\n      pop\n      pop\n      pop\n      jump\t// out\n        /* \"#utility.yul\":266:1527   */\n    tag_33:\n        /* \"#utility.yul\":409:415   */\n      0x00\n        /* \"#utility.yul\":417:423   */\n      dup1\n        /* \"#utility.yul\":425:431   */\n      0x00\n        /* \"#utility.yul\":433:439   */\n      dup1\n        /* \"#utility.yul\":464:467   */\n      0x0180\n        /* \"#utility.yul\":508:510   */\n      dup1\n        /* \"#utility.yul\":496:505   */\n      dup7\n        /* \"#utility.yul\":487:494   */\n      dup9\n        /* \"#utility.yul\":483:506   */\n      sub\n        /* \"#utility.yul\":479:511   */\n      slt\n        /* \"#utility.yul\":476:478   */\n      iszero\n      tag_91\n      jumpi\n        /* \"#utility.yul\":524:525   */\n      0x00\n        /* \"#utility.yul\":521:522   */\n      dup1\n        /* \"#utility.yul\":514:526   */\n      revert\n        /* \"#utility.yul\":476:478   */\n    tag_91:\n        /* \"#utility.yul\":563:572   */\n      dup6\n        /* \"#utility.yul\":550:573   */\n      calldataload\n        /* \"#utility.yul\":582:613   */\n      tag_92\n        /* \"#utility.yul\":607:612   */\n      dup2\n        /* \"#utility.yul\":582:613   */\n      tag_89\n      jump\t// in\n    tag_92:\n        /* \"#utility.yul\":632:637   */\n      swap5\n      pop\n        /* \"#utility.yul\":656:658   */\n      0x20\n        /* \"#utility.yul\":695:713   */\n      dup7\n      dup2\n      add\n        /* \"#utility.yul\":682:714   */\n      calldataload\n        /* \"#utility.yul\":723:756   */\n      tag_93\n        /* \"#utility.yul\":682:714   */\n      dup2\n        /* \"#utility.yul\":723:756   */\n      tag_89\n      jump\t// in\n    tag_93:\n        /* \"#utility.yul\":775:782   */\n      swap5\n      pop\n        /* \"#utility.yul\":834:836   */\n      0x40\n        /* \"#utility.yul\":819:837   */\n      dup8\n      add\n        /* \"#utility.yul\":806:838   */\n      calldataload\n        /* \"#utility.yul\":847:880   */\n      tag_94\n        /* \"#utility.yul\":806:838   */\n      dup2\n        /* \"#utility.yul\":847:880   */\n      tag_89\n      jump\t// in\n    tag_94:\n        /* \"#utility.yul\":899:906   */\n      swap4\n      pop\n        /* \"#utility.yul\":944:947   */\n      0x7f\n        /* \"#utility.yul\":929:948   */\n      dup8\n      add\n        /* \"#utility.yul\":925:958   */\n      dup9\n      sgt\n        /* \"#utility.yul\":915:917   */\n      tag_95\n      jumpi\n        /* \"#utility.yul\":972:973   */\n      0x00\n        /* \"#utility.yul\":969:970   */\n      dup1\n        /* \"#utility.yul\":962:974   */\n      revert\n        /* \"#utility.yul\":915:917   */\n    tag_95:\n        /* \"#utility.yul\":1005:1007   */\n      0x40\n        /* \"#utility.yul\":999:1008   */\n      mload\n        /* \"#utility.yul\":1047:1050   */\n      0x0120\n        /* \"#utility.yul\":1039:1045   */\n      dup2\n        /* \"#utility.yul\":1035:1051   */\n      add\n        /* \"#utility.yul\":1117:1123   */\n      dup2\n        /* \"#utility.yul\":1105:1115   */\n      dup2\n        /* \"#utility.yul\":1102:1124   */\n      lt\n        /* \"#utility.yul\":1081:1099   */\n      0xffffffffffffffff\n        /* \"#utility.yul\":1069:1079   */\n      dup3\n        /* \"#utility.yul\":1066:1100   */\n      gt\n        /* \"#utility.yul\":1063:1125   */\n      or\n        /* \"#utility.yul\":1060:1062   */\n      iszero\n      tag_97\n      jumpi\n        /* \"#utility.yul\":1128:1146   */\n      tag_97\n      tag_98\n      jump\t// in\n    tag_97:\n        /* \"#utility.yul\":1164:1166   */\n      0x40\n        /* \"#utility.yul\":1157:1179   */\n      mstore\n        /* \"#utility.yul\":1199:1205   */\n      dup1\n        /* \"#utility.yul\":1240:1242   */\n      0x60\n        /* \"#utility.yul\":1225:1243   */\n      dup10\n      add\n        /* \"#utility.yul\":1258:1276   */\n      dup5\n      dup11\n      add\n        /* \"#utility.yul\":1255:1286   */\n      dup12\n      lt\n        /* \"#utility.yul\":1252:1254   */\n      iszero\n      tag_99\n      jumpi\n        /* \"#utility.yul\":1299:1300   */\n      0x00\n        /* \"#utility.yul\":1296:1297   */\n      dup1\n        /* \"#utility.yul\":1289:1301   */\n      revert\n        /* \"#utility.yul\":1252:1254   */\n    tag_99:\n        /* \"#utility.yul\":1321:1322   */\n      0x00\n        /* \"#utility.yul\":1312:1322   */\n      swap5\n      pop\n        /* \"#utility.yul\":1331:1496   */\n    tag_100:\n        /* \"#utility.yul\":1345:1349   */\n      0x09\n        /* \"#utility.yul\":1342:1343   */\n      dup6\n        /* \"#utility.yul\":1339:1350   */\n      lt\n        /* \"#utility.yul\":1331:1496   */\n      iszero\n      tag_102\n      jumpi\n        /* \"#utility.yul\":1404:1421   */\n      dup1\n      calldataload\n        /* \"#utility.yul\":1392:1422   */\n      dup3\n      mstore\n        /* \"#utility.yul\":1365:1366   */\n      0x01\n        /* \"#utility.yul\":1358:1367   */\n      swap5\n      swap1\n      swap5\n      add\n      swap4\n        /* \"#utility.yul\":1442:1454   */\n      swap1\n      dup4\n      add\n      swap1\n        /* \"#utility.yul\":1474:1486   */\n      dup4\n      add\n        /* \"#utility.yul\":1331:1496   */\n      jump(tag_100)\n    tag_102:\n        /* \"#utility.yul\":1335:1338   */\n      pop\n      pop\n        /* \"#utility.yul\":1515:1521   */\n      dup1\n        /* \"#utility.yul\":1505:1521   */\n      swap4\n      pop\n      pop\n      pop\n      pop\n        /* \"#utility.yul\":444:1527   */\n      swap3\n      swap6\n      swap2\n      swap5\n      pop\n      swap3\n      pop\n      jump\t// out\n        /* \"#utility.yul\":1532:1716   */\n    tag_51:\n        /* \"#utility.yul\":1602:1608   */\n      0x00\n        /* \"#utility.yul\":1655:1657   */\n      0x20\n        /* \"#utility.yul\":1643:1652   */\n      dup3\n        /* \"#utility.yul\":1634:1641   */\n      dup5\n        /* \"#utility.yul\":1630:1653   */\n      sub\n        /* \"#utility.yul\":1626:1658   */\n      slt\n        /* \"#utility.yul\":1623:1625   */\n      iszero\n      tag_104\n      jumpi\n        /* \"#utility.yul\":1671:1672   */\n      0x00\n        /* \"#utility.yul\":1668:1669   */\n      dup1\n        /* \"#utility.yul\":1661:1673   */\n      revert\n        /* \"#utility.yul\":1623:1625   */\n    tag_104:\n      pop\n        /* \"#utility.yul\":1694:1710   */\n      mload\n      swap2\n        /* \"#utility.yul\":1613:1716   */\n      swap1\n      pop\n      jump\t// out\n        /* \"#utility.yul\":4302:4429   */\n    tag_98:\n        /* \"#utility.yul\":4363:4373   */\n      0x4e487b71\n        /* \"#utility.yul\":4358:4361   */\n      0xe0\n        /* \"#utility.yul\":4354:4374   */\n      shl\n        /* \"#utility.yul\":4351:4352   */\n      0x00\n        /* \"#utility.yul\":4344:4375   */\n      mstore\n        /* \"#utility.yul\":4394:4398   */\n      0x41\n        /* \"#utility.yul\":4391:4392   */\n      0x04\n        /* \"#utility.yul\":4384:4399   */\n      mstore\n        /* \"#utility.yul\":4418:4422   */\n      0x24\n        /* \"#utility.yul\":4415:4416   */\n      0x00\n        /* \"#utility.yul\":4408:4423   */\n      revert\n        /* \"#utility.yul\":4434:4565   */\n    tag_89:\n      sub(shl(0xa0, 0x01), 0x01)\n        /* \"#utility.yul\":4509:4540   */\n      dup2\n      and\n        /* \"#utility.yul\":4499:4541   */\n      dup2\n      eq\n        /* \"#utility.yul\":4489:4491   */\n      tag_61\n      jumpi\n        /* \"#utility.yul\":4555:4556   */\n      0x00\n        /* \"#utility.yul\":4552:4553   */\n      dup1\n        /* \"#utility.yul\":4545:4557   */\n      revert\n\n    auxdata: 0xa2646970667358221220dcd46c6d3820422851ad428994813738e008df7938babd0ab7f97e8c23d6819564736f6c63430008050033\n}\n",
				"bytecode": {
					"linkReferences": {},
					"object": "608060405234801561001057600080fd5b5061001a33610045565b600180546001600160a01b03191673354652d0e18dbc94a125b317b39e0505a3832790179055610095565b600080546001600160a01b038381166001600160a01b0319831681178455604051919092169283917f8be0079c531659141344cd1fd0a4f28419497f9722a3daafe3b4186f6b6457e09190a35050565b6105fa806100a46000396000f3fe6080604052600436106100555760003560e01c8063715018a61461005a5780638da5cb5b14610071578063ced72f87146100a8578063d8f59f91146100cb578063f2fde38b146100eb578063f60c83bb1461010b575b600080fd5b34801561006657600080fd5b5061006f61011e565b005b34801561007d57600080fd5b506000546001600160a01b03165b6040516001600160a01b0390911681526020015b60405180910390f35b3480156100b457600080fd5b506100bd610189565b60405190815260200161009f565b3480156100d757600080fd5b5060015461008b906001600160a01b031681565b3480156100f757600080fd5b5061006f610106366004610497565b61020b565b61006f6101193660046104bb565b6102d6565b6000546001600160a01b0316331461017d5760405162461bcd60e51b815260206004820181905260248201527f4f776e61626c653a2063616c6c6572206973206e6f7420746865206f776e657260448201526064015b60405180910390fd5b6101876000610447565b565b6001546040805163e38ef7a360e01b815290516000926001600160a01b03169163e38ef7a3916004808301926020929190829003018186803b1580156101ce57600080fd5b505afa1580156101e2573d6000803e3d6000fd5b505050506040513d601f19601f820116820180604052508101906102069190610580565b905090565b6000546001600160a01b031633146102655760405162461bcd60e51b815260206004820181905260248201527f4f776e61626c653a2063616c6c6572206973206e6f7420746865206f776e65726044820152606401610174565b6001600160a01b0381166102ca5760405162461bcd60e51b815260206004820152602660248201527f4f776e61626c653a206e6577206f776e657220697320746865207a65726f206160448201526564647265737360d01b6064820152608401610174565b6102d381610447565b50565b80516103245760405162461bcd60e51b815260206004820152601c60248201527f5377617020746f6b656e206d757374206772656174207468656e2030000000006044820152606401610174565b604081015160208201511061037b5760405162461bcd60e51b815260206004820152601d60248201527f53746172742074696d65206c657373207468656e20656e642074696d650000006044820152606401610174565b600160009054906101000a90046001600160a01b03166001600160a01b031663e38ef7a36040518163ffffffff1660e01b815260040160206040518083038186803b1580156103c957600080fd5b505afa1580156103dd573d6000803e3d6000fd5b505050506040513d601f19601f820116820180604052508101906104019190610580565b34146104415760405162461bcd60e51b815260206004820152600f60248201526e466565206e6f74206d617070696e6760881b6044820152606401610174565b50505050565b600080546001600160a01b038381166001600160a01b0319831681178455604051919092169283917f8be0079c531659141344cd1fd0a4f28419497f9722a3daafe3b4186f6b6457e09190a35050565b6000602082840312156104a957600080fd5b81356104b4816105af565b9392505050565b6000806000806101808086880312156104d357600080fd5b85356104de816105af565b94506020868101356104ef816105af565b945060408701356104ff816105af565b9350607f8701881361051057600080fd5b604051610120810181811067ffffffffffffffff8211171561053457610534610599565b6040528060608901848a018b101561054b57600080fd5b600094505b600985101561056f578035825260019490940193908301908301610550565b505080935050505092959194509250565b60006020828403121561059257600080fd5b5051919050565b634e487b7160e01b600052604160045260246000fd5b6001600160a01b03811681146102d357600080fdfea2646970667358221220dcd46c6d3820422851ad428994813738e008df7938babd0ab7f97e8c23d6819564736f6c63430008050033",
					"opcodes": "PUSH1 0x80 PUSH1 0x40 MSTORE CALLVALUE DUP1 ISZERO PUSH2 0x10 JUMPI PUSH1 0x0 DUP1 REVERT JUMPDEST POP PUSH2 0x1A CALLER PUSH2 0x45 JUMP JUMPDEST PUSH1 0x1 DUP1 SLOAD PUSH1 0x1 PUSH1 0x1 PUSH1 0xA0 SHL SUB NOT AND PUSH20 0x354652D0E18DBC94A125B317B39E0505A3832790 OR SWAP1 SSTORE PUSH2 0x95 JUMP JUMPDEST PUSH1 0x0 DUP1 SLOAD PUSH1 0x1 PUSH1 0x1 PUSH1 0xA0 SHL SUB DUP4 DUP2 AND PUSH1 0x1 PUSH1 0x1 PUSH1 0xA0 SHL SUB NOT DUP4 AND DUP2 OR DUP5 SSTORE PUSH1 0x40 MLOAD SWAP2 SWAP1 SWAP3 AND SWAP3 DUP4 SWAP2 PUSH32 0x8BE0079C531659141344CD1FD0A4F28419497F9722A3DAAFE3B4186F6B6457E0 SWAP2 SWAP1 LOG3 POP POP JUMP JUMPDEST PUSH2 0x5FA DUP1 PUSH2 0xA4 PUSH1 0x0 CODECOPY PUSH1 0x0 RETURN INVALID PUSH1 0x80 PUSH1 0x40 MSTORE PUSH1 0x4 CALLDATASIZE LT PUSH2 0x55 JUMPI PUSH1 0x0 CALLDATALOAD PUSH1 0xE0 SHR DUP1 PUSH4 0x715018A6 EQ PUSH2 0x5A JUMPI DUP1 PUSH4 0x8DA5CB5B EQ PUSH2 0x71 JUMPI DUP1 PUSH4 0xCED72F87 EQ PUSH2 0xA8 JUMPI DUP1 PUSH4 0xD8F59F91 EQ PUSH2 0xCB JUMPI DUP1 PUSH4 0xF2FDE38B EQ PUSH2 0xEB JUMPI DUP1 PUSH4 0xF60C83BB EQ PUSH2 0x10B JUMPI JUMPDEST PUSH1 0x0 DUP1 REVERT JUMPDEST CALLVALUE DUP1 ISZERO PUSH2 0x66 JUMPI PUSH1 0x0 DUP1 REVERT JUMPDEST POP PUSH2 0x6F PUSH2 0x11E JUMP JUMPDEST STOP JUMPDEST CALLVALUE DUP1 ISZERO PUSH2 0x7D JUMPI PUSH1 0x0 DUP1 REVERT JUMPDEST POP PUSH1 0x0 SLOAD PUSH1 0x1 PUSH1 0x1 PUSH1 0xA0 SHL SUB AND JUMPDEST PUSH1 0x40 MLOAD PUSH1 0x1 PUSH1 0x1 PUSH1 0xA0 SHL SUB SWAP1 SWAP2 AND DUP2 MSTORE PUSH1 0x20 ADD JUMPDEST PUSH1 0x40 MLOAD DUP1 SWAP2 SUB SWAP1 RETURN JUMPDEST CALLVALUE DUP1 ISZERO PUSH2 0xB4 JUMPI PUSH1 0x0 DUP1 REVERT JUMPDEST POP PUSH2 0xBD PUSH2 0x189 JUMP JUMPDEST PUSH1 0x40 MLOAD SWAP1 DUP2 MSTORE PUSH1 0x20 ADD PUSH2 0x9F JUMP JUMPDEST CALLVALUE DUP1 ISZERO PUSH2 0xD7 JUMPI PUSH1 0x0 DUP1 REVERT JUMPDEST POP PUSH1 0x1 SLOAD PUSH2 0x8B SWAP1 PUSH1 0x1 PUSH1 0x1 PUSH1 0xA0 SHL SUB AND DUP2 JUMP JUMPDEST CALLVALUE DUP1 ISZERO PUSH2 0xF7 JUMPI PUSH1 0x0 DUP1 REVERT JUMPDEST POP PUSH2 0x6F PUSH2 0x106 CALLDATASIZE PUSH1 0x4 PUSH2 0x497 JUMP JUMPDEST PUSH2 0x20B JUMP JUMPDEST PUSH2 0x6F PUSH2 0x119 CALLDATASIZE PUSH1 0x4 PUSH2 0x4BB JUMP JUMPDEST PUSH2 0x2D6 JUMP JUMPDEST PUSH1 0x0 SLOAD PUSH1 0x1 PUSH1 0x1 PUSH1 0xA0 SHL SUB AND CALLER EQ PUSH2 0x17D JUMPI PUSH1 0x40 MLOAD PUSH3 0x461BCD PUSH1 0xE5 SHL DUP2 MSTORE PUSH1 0x20 PUSH1 0x4 DUP3 ADD DUP2 SWAP1 MSTORE PUSH1 0x24 DUP3 ADD MSTORE PUSH32 0x4F776E61626C653A2063616C6C6572206973206E6F7420746865206F776E6572 PUSH1 0x44 DUP3 ADD MSTORE PUSH1 0x64 ADD JUMPDEST PUSH1 0x40 MLOAD DUP1 SWAP2 SUB SWAP1 REVERT JUMPDEST PUSH2 0x187 PUSH1 0x0 PUSH2 0x447 JUMP JUMPDEST JUMP JUMPDEST PUSH1 0x1 SLOAD PUSH1 0x40 DUP1 MLOAD PUSH4 0xE38EF7A3 PUSH1 0xE0 SHL DUP2 MSTORE SWAP1 MLOAD PUSH1 0x0 SWAP3 PUSH1 0x1 PUSH1 0x1 PUSH1 0xA0 SHL SUB AND SWAP2 PUSH4 0xE38EF7A3 SWAP2 PUSH1 0x4 DUP1 DUP4 ADD SWAP3 PUSH1 0x20 SWAP3 SWAP2 SWAP1 DUP3 SWAP1 SUB ADD DUP2 DUP7 DUP1 EXTCODESIZE ISZERO DUP1 ISZERO PUSH2 0x1CE JUMPI PUSH1 0x0 DUP1 REVERT JUMPDEST POP GAS STATICCALL ISZERO DUP1 ISZERO PUSH2 0x1E2 JUMPI RETURNDATASIZE PUSH1 0x0 DUP1 RETURNDATACOPY RETURNDATASIZE PUSH1 0x0 REVERT JUMPDEST POP POP POP POP PUSH1 0x40 MLOAD RETURNDATASIZE PUSH1 0x1F NOT PUSH1 0x1F DUP3 ADD AND DUP3 ADD DUP1 PUSH1 0x40 MSTORE POP DUP2 ADD SWAP1 PUSH2 0x206 SWAP2 SWAP1 PUSH2 0x580 JUMP JUMPDEST SWAP1 POP SWAP1 JUMP JUMPDEST PUSH1 0x0 SLOAD PUSH1 0x1 PUSH1 0x1 PUSH1 0xA0 SHL SUB AND CALLER EQ PUSH2 0x265 JUMPI PUSH1 0x40 MLOAD PUSH3 0x461BCD PUSH1 0xE5 SHL DUP2 MSTORE PUSH1 0x20 PUSH1 0x4 DUP3 ADD DUP2 SWAP1 MSTORE PUSH1 0x24 DUP3 ADD MSTORE PUSH32 0x4F776E61626C653A2063616C6C6572206973206E6F7420746865206F776E6572 PUSH1 0x44 DUP3 ADD MSTORE PUSH1 0x64 ADD PUSH2 0x174 JUMP JUMPDEST PUSH1 0x1 PUSH1 0x1 PUSH1 0xA0 SHL SUB DUP2 AND PUSH2 0x2CA JUMPI PUSH1 0x40 MLOAD PUSH3 0x461BCD PUSH1 0xE5 SHL DUP2 MSTORE PUSH1 0x20 PUSH1 0x4 DUP3 ADD MSTORE PUSH1 0x26 PUSH1 0x24 DUP3 ADD MSTORE PUSH32 0x4F776E61626C653A206E6577206F776E657220697320746865207A65726F2061 PUSH1 0x44 DUP3 ADD MSTORE PUSH6 0x646472657373 PUSH1 0xD0 SHL PUSH1 0x64 DUP3 ADD MSTORE PUSH1 0x84 ADD PUSH2 0x174 JUMP JUMPDEST PUSH2 0x2D3 DUP2 PUSH2 0x447 JUMP JUMPDEST POP JUMP JUMPDEST DUP1 MLOAD PUSH2 0x324 JUMPI PUSH1 0x40 MLOAD PUSH3 0x461BCD PUSH1 0xE5 SHL DUP2 MSTORE PUSH1 0x20 PUSH1 0x4 DUP3 ADD MSTORE PUSH1 0x1C PUSH1 0x24 DUP3 ADD MSTORE PUSH32 0x5377617020746F6B656E206D757374206772656174207468656E203000000000 PUSH1 0x44 DUP3 ADD MSTORE PUSH1 0x64 ADD PUSH2 0x174 JUMP JUMPDEST PUSH1 0x40 DUP2 ADD MLOAD PUSH1 0x20 DUP3 ADD MLOAD LT PUSH2 0x37B JUMPI PUSH1 0x40 MLOAD PUSH3 0x461BCD PUSH1 0xE5 SHL DUP2 MSTORE PUSH1 0x20 PUSH1 0x4 DUP3 ADD MSTORE PUSH1 0x1D PUSH1 0x24 DUP3 ADD MSTORE PUSH32 0x53746172742074696D65206C657373207468656E20656E642074696D65000000 PUSH1 0x44 DUP3 ADD MSTORE PUSH1 0x64 ADD PUSH2 0x174 JUMP JUMPDEST PUSH1 0x1 PUSH1 0x0 SWAP1 SLOAD SWAP1 PUSH2 0x100 EXP SWAP1 DIV PUSH1 0x1 PUSH1 0x1 PUSH1 0xA0 SHL SUB AND PUSH1 0x1 PUSH1 0x1 PUSH1 0xA0 SHL SUB AND PUSH4 0xE38EF7A3 PUSH1 0x40 MLOAD DUP2 PUSH4 0xFFFFFFFF AND PUSH1 0xE0 SHL DUP2 MSTORE PUSH1 0x4 ADD PUSH1 0x20 PUSH1 0x40 MLOAD DUP1 DUP4 SUB DUP2 DUP7 DUP1 EXTCODESIZE ISZERO DUP1 ISZERO PUSH2 0x3C9 JUMPI PUSH1 0x0 DUP1 REVERT JUMPDEST POP GAS STATICCALL ISZERO DUP1 ISZERO PUSH2 0x3DD JUMPI RETURNDATASIZE PUSH1 0x0 DUP1 RETURNDATACOPY RETURNDATASIZE PUSH1 0x0 REVERT JUMPDEST POP POP POP POP PUSH1 0x40 MLOAD RETURNDATASIZE PUSH1 0x1F NOT PUSH1 0x1F DUP3 ADD AND DUP3 ADD DUP1 PUSH1 0x40 MSTORE POP DUP2 ADD SWAP1 PUSH2 0x401 SWAP2 SWAP1 PUSH2 0x580 JUMP JUMPDEST CALLVALUE EQ PUSH2 0x441 JUMPI PUSH1 0x40 MLOAD PUSH3 0x461BCD PUSH1 0xE5 SHL DUP2 MSTORE PUSH1 0x20 PUSH1 0x4 DUP3 ADD MSTORE PUSH1 0xF PUSH1 0x24 DUP3 ADD MSTORE PUSH15 0x466565206E6F74206D617070696E67 PUSH1 0x88 SHL PUSH1 0x44 DUP3 ADD MSTORE PUSH1 0x64 ADD PUSH2 0x174 JUMP JUMPDEST POP POP POP POP JUMP JUMPDEST PUSH1 0x0 DUP1 SLOAD PUSH1 0x1 PUSH1 0x1 PUSH1 0xA0 SHL SUB DUP4 DUP2 AND PUSH1 0x1 PUSH1 0x1 PUSH1 0xA0 SHL SUB NOT DUP4 AND DUP2 OR DUP5 SSTORE PUSH1 0x40 MLOAD SWAP2 SWAP1 SWAP3 AND SWAP3 DUP4 SWAP2 PUSH32 0x8BE0079C531659141344CD1FD0A4F28419497F9722A3DAAFE3B4186F6B6457E0 SWAP2 SWAP1 LOG3 POP POP JUMP JUMPDEST PUSH1 0x0 PUSH1 0x20 DUP3 DUP5 SUB SLT ISZERO PUSH2 0x4A9 JUMPI PUSH1 0x0 DUP1 REVERT JUMPDEST DUP2 CALLDATALOAD PUSH2 0x4B4 DUP2 PUSH2 0x5AF JUMP JUMPDEST SWAP4 SWAP3 POP POP POP JUMP JUMPDEST PUSH1 0x0 DUP1 PUSH1 0x0 DUP1 PUSH2 0x180 DUP1 DUP7 DUP9 SUB SLT ISZERO PUSH2 0x4D3 JUMPI PUSH1 0x0 DUP1 REVERT JUMPDEST DUP6 CALLDATALOAD PUSH2 0x4DE DUP2 PUSH2 0x5AF JUMP JUMPDEST SWAP5 POP PUSH1 0x20 DUP7 DUP2 ADD CALLDATALOAD PUSH2 0x4EF DUP2 PUSH2 0x5AF JUMP JUMPDEST SWAP5 POP PUSH1 0x40 DUP8 ADD CALLDATALOAD PUSH2 0x4FF DUP2 PUSH2 0x5AF JUMP JUMPDEST SWAP4 POP PUSH1 0x7F DUP8 ADD DUP9 SGT PUSH2 0x510 JUMPI PUSH1 0x0 DUP1 REVERT JUMPDEST PUSH1 0x40 MLOAD PUSH2 0x120 DUP2 ADD DUP2 DUP2 LT PUSH8 0xFFFFFFFFFFFFFFFF DUP3 GT OR ISZERO PUSH2 0x534 JUMPI PUSH2 0x534 PUSH2 0x599 JUMP JUMPDEST PUSH1 0x40 MSTORE DUP1 PUSH1 0x60 DUP10 ADD DUP5 DUP11 ADD DUP12 LT ISZERO PUSH2 0x54B JUMPI PUSH1 0x0 DUP1 REVERT JUMPDEST PUSH1 0x0 SWAP5 POP JUMPDEST PUSH1 0x9 DUP6 LT ISZERO PUSH2 0x56F JUMPI DUP1 CALLDATALOAD DUP3 MSTORE PUSH1 0x1 SWAP5 SWAP1 SWAP5 ADD SWAP4 SWAP1 DUP4 ADD SWAP1 DUP4 ADD PUSH2 0x550 JUMP JUMPDEST POP POP DUP1 SWAP4 POP POP POP POP SWAP3 SWAP6 SWAP2 SWAP5 POP SWAP3 POP JUMP JUMPDEST PUSH1 0x0 PUSH1 0x20 DUP3 DUP5 SUB SLT ISZERO PUSH2 0x592 JUMPI PUSH1 0x0 DUP1 REVERT JUMPDEST POP MLOAD SWAP2 SWAP1 POP JUMP JUMPDEST PUSH4 0x4E487B71 PUSH1 0xE0 SHL PUSH1 0x0 MSTORE PUSH1 0x41 PUSH1 0x4 MSTORE PUSH1 0x24 PUSH1 0x0 REVERT JUMPDEST PUSH1 0x1 PUSH1 0x1 PUSH1 0xA0 SHL SUB DUP2 AND DUP2 EQ PUSH2 0x2D3 JUMPI PUSH1 0x0 DUP1 REVERT INVALID LOG2 PUSH5 0x6970667358 0x22 SLT KECCAK256 0xDC 0xD4 PUSH13 0x6D3820422851AD428994813738 0xE0 ADDMOD 0xDF PUSH26 0x38BABD0AB7F97E8C23D6819564736F6C63430008050033000000 "
				},
				"gasEstimates": {
					"creation": {
						"codeDepositCost": "306000",
						"executionCost": "50420",
						"totalCost": "356420"
					},
					"external": {
						"createPresale(address,address,address,uint256[9])": "infinite",
						"getFee()": "infinite",
						"owner()": "2309",
						"presaleSettings()": "2370",
						"renounceOwnership()": "28092",
						"transferOwnership(address)": "infinite"
					}
				},
				"methodIdentifiers": {
					"createPresale(address,address,address,uint256[9])": "f60c83bb",
					"getFee()": "ced72f87",
					"owner()": "8da5cb5b",
					"presaleSettings()": "d8f59f91",
					"renounceOwnership()": "715018a6",
					"transferOwnership(address)": "f2fde38b"
				}
			},
			"storageLayout": {
				"storage": [
					{
						"astId": 2752,
						"contract": "Ethereum/Generator.sol:Generator",
						"label": "_owner",
						"offset": 0,
						"slot": "0",
						"type": "t_address"
					},
					{
						"astId": 733,
						"contract": "Ethereum/Generator.sol:Generator",
						"label": "presaleSettings",
						"offset": 0,
						"slot": "1",
						"type": "t_contract(PresaleSettings)2123"
					}
				],
				"types": {
					"t_address": {
						"encoding": "inplace",
						"label": "address",
						"numberOfBytes": "20"
					},
					"t_contract(PresaleSettings)2123": {
						"encoding": "inplace",
						"label": "contract PresaleSettings",
						"numberOfBytes": "20"
					}
				}
			},
			"userdoc": {
				"kind": "user",
				"methods": {},
				"version": 1
			}
		}
	}
}