{
	"Ethereum/Presale.sol": {
		"Presale": {
			"abi": [
				{
					"inputs": [],
					"stateMutability": "payable",
					"type": "constructor"
				},
				{
					"anonymous": false,
					"inputs": [
						{
							"indexed": true,
							"internalType": "address",
							"name": "previousOwner",
							"type": "address"
						},
						{
							"indexed": true,
							"internalType": "address",
							"name": "newOwner",
							"type": "address"
						}
					],
					"name": "OwnershipTransferred",
					"type": "event"
				},
				{
					"inputs": [],
					"name": "WETH",
					"outputs": [
						{
							"internalType": "contract IERC20",
							"name": "",
							"type": "address"
						}
					],
					"stateMutability": "view",
					"type": "function"
				},
				{
					"inputs": [],
					"name": "adminReceiveFee",
					"outputs": [
						{
							"internalType": "address",
							"name": "",
							"type": "address"
						}
					],
					"stateMutability": "view",
					"type": "function"
				},
				{
					"inputs": [],
					"name": "backToken",
					"outputs": [],
					"stateMutability": "payable",
					"type": "function"
				},
				{
					"inputs": [
						{
							"internalType": "address",
							"name": "",
							"type": "address"
						}
					],
					"name": "buyerInfo",
					"outputs": [
						{
							"internalType": "uint256",
							"name": "baseDeposit",
							"type": "uint256"
						},
						{
							"internalType": "uint256",
							"name": "tokenOwner",
							"type": "uint256"
						},
						{
							"internalType": "uint256",
							"name": "lastWithDraw",
							"type": "uint256"
						},
						{
							"internalType": "uint256",
							"name": "totalTokenWithDraw",
							"type": "uint256"
						},
						{
							"internalType": "uint256",
							"name": "totalBaseWithDraw",
							"type": "uint256"
						}
					],
					"stateMutability": "view",
					"type": "function"
				},
				{
					"inputs": [],
					"name": "checkAdminAddress",
					"outputs": [
						{
							"internalType": "bool",
							"name": "",
							"type": "bool"
						}
					],
					"stateMutability": "view",
					"type": "function"
				},
				{
					"inputs": [
						{
							"internalType": "uint256",
							"name": "_amount",
							"type": "uint256"
						}
					],
					"name": "deposit",
					"outputs": [],
					"stateMutability": "payable",
					"type": "function"
				},
				{
					"inputs": [],
					"name": "feeAnyone",
					"outputs": [
						{
							"internalType": "uint256",
							"name": "",
							"type": "uint256"
						}
					],
					"stateMutability": "view",
					"type": "function"
				},
				{
					"inputs": [],
					"name": "feeCreateSale",
					"outputs": [
						{
							"internalType": "uint256",
							"name": "",
							"type": "uint256"
						}
					],
					"stateMutability": "view",
					"type": "function"
				},
				{
					"inputs": [
						{
							"internalType": "address",
							"name": "_address",
							"type": "address"
						}
					],
					"name": "getBalance",
					"outputs": [
						{
							"internalType": "uint256",
							"name": "",
							"type": "uint256"
						}
					],
					"stateMutability": "view",
					"type": "function"
				},
				{
					"inputs": [
						{
							"internalType": "address payable",
							"name": "_presaleOwner",
							"type": "address"
						},
						{
							"internalType": "contract ERC20",
							"name": "_saleToken",
							"type": "address"
						},
						{
							"internalType": "contract ERC20",
							"name": "_baseTOken",
							"type": "address"
						},
						{
							"internalType": "uint256[9]",
							"name": "datas",
							"type": "uint256[9]"
						},
						{
							"internalType": "uint256",
							"name": "_feeAnyone",
							"type": "uint256"
						},
						{
							"internalType": "address payable",
							"name": "_adminReceiveFee",
							"type": "address"
						},
						{
							"internalType": "uint256",
							"name": "_feeCreateSale",
							"type": "uint256"
						}
					],
					"name": "initialSaleInfor",
					"outputs": [],
					"stateMutability": "nonpayable",
					"type": "function"
				},
				{
					"inputs": [],
					"name": "owner",
					"outputs": [
						{
							"internalType": "address",
							"name": "",
							"type": "address"
						}
					],
					"stateMutability": "view",
					"type": "function"
				},
				{
					"inputs": [],
					"name": "ownerClaimAndRefundToken",
					"outputs": [],
					"stateMutability": "nonpayable",
					"type": "function"
				},
				{
					"inputs": [],
					"name": "presaleStatus",
					"outputs": [
						{
							"internalType": "uint256",
							"name": "totalBaseCollected",
							"type": "uint256"
						},
						{
							"internalType": "uint256",
							"name": "totalTokenSold",
							"type": "uint256"
						},
						{
							"internalType": "uint256",
							"name": "totalTokenWithDraw",
							"type": "uint256"
						},
						{
							"internalType": "uint256",
							"name": "totalBaseWithDraw",
							"type": "uint256"
						},
						{
							"internalType": "uint256",
							"name": "totalTokenBackForAdmin",
							"type": "uint256"
						},
						{
							"internalType": "uint256",
							"name": "totalBaseBackForAdmin",
							"type": "uint256"
						},
						{
							"internalType": "uint256",
							"name": "numberBuyer",
							"type": "uint256"
						},
						{
							"internalType": "bool",
							"name": "isOwnerClaimSaleToken",
							"type": "bool"
						},
						{
							"internalType": "bool",
							"name": "isOwnerRefundBaseToken",
							"type": "bool"
						}
					],
					"stateMutability": "view",
					"type": "function"
				},
				{
					"inputs": [],
					"name": "renounceOwnership",
					"outputs": [],
					"stateMutability": "nonpayable",
					"type": "function"
				},
				{
					"inputs": [],
					"name": "saleInfor",
					"outputs": [
						{
							"internalType": "address payable",
							"name": "presaleOwner",
							"type": "address"
						},
						{
							"internalType": "contract ERC20",
							"name": "saleToken",
							"type": "address"
						},
						{
							"internalType": "contract ERC20",
							"name": "baseToken",
							"type": "address"
						},
						{
							"internalType": "uint256",
							"name": "tokenPrice",
							"type": "uint256"
						},
						{
							"internalType": "uint256",
							"name": "startSale",
							"type": "uint256"
						},
						{
							"internalType": "uint256",
							"name": "endSale",
							"type": "uint256"
						},
						{
							"internalType": "uint256",
							"name": "minSpendPerBuyer",
							"type": "uint256"
						},
						{
							"internalType": "uint256",
							"name": "maxSpendPerBuyer",
							"type": "uint256"
						},
						{
							"internalType": "uint256",
							"name": "refundFee",
							"type": "uint256"
						},
						{
							"internalType": "uint256",
							"name": "claimFee",
							"type": "uint256"
						},
						{
							"internalType": "bool",
							"name": "saleIsBaseToken",
							"type": "bool"
						},
						{
							"internalType": "uint256",
							"name": "amountTokenForSale",
							"type": "uint256"
						}
					],
					"stateMutability": "view",
					"type": "function"
				},
				{
					"inputs": [],
					"name": "saleTotalSupply",
					"outputs": [
						{
							"internalType": "uint256",
							"name": "hardCap",
							"type": "uint256"
						},
						{
							"internalType": "uint256",
							"name": "softCap",
							"type": "uint256"
						}
					],
					"stateMutability": "view",
					"type": "function"
				},
				{
					"inputs": [],
					"name": "status",
					"outputs": [
						{
							"internalType": "uint256",
							"name": "",
							"type": "uint256"
						}
					],
					"stateMutability": "view",
					"type": "function"
				},
				{
					"inputs": [],
					"name": "totalFee",
					"outputs": [
						{
							"internalType": "uint256",
							"name": "",
							"type": "uint256"
						}
					],
					"stateMutability": "view",
					"type": "function"
				},
				{
					"inputs": [
						{
							"internalType": "address",
							"name": "newOwner",
							"type": "address"
						}
					],
					"name": "transferOwnership",
					"outputs": [],
					"stateMutability": "nonpayable",
					"type": "function"
				},
				{
					"inputs": [],
					"name": "userClaimEmergency",
					"outputs": [],
					"stateMutability": "nonpayable",
					"type": "function"
				},
				{
					"inputs": [
						{
							"internalType": "bool",
							"name": "isClaim",
							"type": "bool"
						}
					],
					"name": "userClaimOrRefundWhenSaleSuccess",
					"outputs": [],
					"stateMutability": "nonpayable",
					"type": "function"
				},
				{
					"inputs": [
						{
							"internalType": "address",
							"name": "",
							"type": "address"
						}
					],
					"name": "userFee",
					"outputs": [
						{
							"internalType": "uint256",
							"name": "",
							"type": "uint256"
						}
					],
					"stateMutability": "view",
					"type": "function"
				},
				{
					"inputs": [],
					"name": "userRefundEmergency",
					"outputs": [],
					"stateMutability": "nonpayable",
					"type": "function"
				}
			],
			"devdoc": {
				"kind": "dev",
				"methods": {
					"owner()": {
						"details": "Returns the address of the current owner."
					},
					"renounceOwnership()": {
						"details": "Leaves the contract without owner. It will not be possible to call `onlyOwner` functions anymore. Can only be called by the current owner. NOTE: Renouncing ownership will leave the contract without an owner, thereby removing any functionality that is only available to the owner."
					},
					"transferOwnership(address)": {
						"details": "Transfers ownership of the contract to a new account (`newOwner`). Can only be called by the current owner."
					}
				},
				"version": 1
			},
			"evm": {
				"assembly": "    /* \"Ethereum/Presale.sol\":370:11804  contract Presale is ReentrancyGuard, Ownable{\r... */\n  mstore(0x40, 0x80)\n    /* \"Utils/ReentrancyGuard.sol\":1734:1735  1 */\n  0x01\n    /* \"Utils/ReentrancyGuard.sol\":1845:1852  _status */\n  0x00\n    /* \"Utils/ReentrancyGuard.sol\":1845:1867  _status = _NOT_ENTERED */\n  sstore\n    /* \"Utils/Ownable.sol\":942:974  _transferOwnership(_msgSender()) */\n  tag_6\n    /* \"Utils/Context.sol\":736:746  msg.sender */\n  caller\n    /* \"Utils/Ownable.sol\":942:960  _transferOwnership */\n  tag_9\n    /* \"Utils/Ownable.sol\":942:974  _transferOwnership(_msgSender()) */\n  jump\t// in\ntag_6:\n    /* \"Ethereum/Presale.sol\":2438:2442  WETH */\n  0x1b\n    /* \"Ethereum/Presale.sol\":2438:2494  WETH = ERC20(0xc778417E063141139Fce010982780140Aa0cD5Ab) */\n  dup1\n  sload\n    /* \"Ethereum/Presale.sol\":2451:2493  0xc778417E063141139Fce010982780140Aa0cD5Ab */\n  0xc778417e063141139fce010982780140aa0cd5ab\n  not(sub(shl(0xa0, 0x01), 0x01))\n    /* \"Ethereum/Presale.sol\":2438:2494  WETH = ERC20(0xc778417E063141139Fce010982780140Aa0cD5Ab) */\n  swap1\n  swap2\n  and\n  or\n  swap1\n  sstore\n    /* \"Ethereum/Presale.sol\":2505:2559  admins.add(0x6Ccb41eedA5a073076F3E7dC1614C185b5fA41eD) */\n  tag_11\n    /* \"Ethereum/Presale.sol\":2505:2511  admins */\n  0x1c\n    /* \"Ethereum/Presale.sol\":2516:2558  0x6Ccb41eedA5a073076F3E7dC1614C185b5fA41eD */\n  0x6ccb41eeda5a073076f3e7dc1614c185b5fa41ed\n    /* \"Ethereum/Presale.sol\":2505:2515  admins.add */\n  tag_12\n  0x20\n  swap1\n  dup2\n  shl\n  tag_0_128\n  or\n    /* \"Ethereum/Presale.sol\":2505:2559  admins.add(0x6Ccb41eedA5a073076F3E7dC1614C185b5fA41eD) */\n  swap1\n  shr\n  jump\t// in\ntag_11:\n  pop\n    /* \"Ethereum/Presale.sol\":2570:2624  admins.add(0x4f0B12bBF40Fc182559822A5b1dB6D34dbC3E016) */\n  tag_13\n    /* \"Ethereum/Presale.sol\":2581:2623  0x4f0B12bBF40Fc182559822A5b1dB6D34dbC3E016 */\n  0x4f0b12bbf40fc182559822a5b1db6d34dbc3e016\n    /* \"Ethereum/Presale.sol\":2570:2576  admins */\n  0x1c\n    /* \"Ethereum/Presale.sol\":2570:2580  admins.add */\n  or(tag_0_128, shl(0x20, tag_12))\n  swap1\n    /* \"Ethereum/Presale.sol\":2570:2624  admins.add(0x4f0B12bBF40Fc182559822A5b1dB6D34dbC3E016) */\n  swap2\n  swap1\n  0x20\n  shr\n  jump\t// in\ntag_13:\n  pop\n    /* \"Ethereum/Presale.sol\":370:11804  contract Presale is ReentrancyGuard, Ownable{\r... */\n  jump(tag_14)\n    /* \"Utils/Ownable.sol\":2333:2524  function _transferOwnership(address newOwner) internal virtual {\r... */\ntag_9:\n    /* \"Utils/Ownable.sol\":2426:2432  _owner */\n  0x01\n  dup1\n  sload\n  sub(shl(0xa0, 0x01), 0x01)\n    /* \"Utils/Ownable.sol\":2443:2460  _owner = newOwner */\n  dup4\n  dup2\n  and\n  not(sub(shl(0xa0, 0x01), 0x01))\n  dup4\n  and\n  dup2\n  or\n  swap1\n  swap4\n  sstore\n    /* \"Utils/Ownable.sol\":2476:2516  OwnershipTransferred(oldOwner, newOwner) */\n  mload(0x40)\n    /* \"Utils/Ownable.sol\":2426:2432  _owner */\n  swap2\n  and\n  swap2\n    /* \"Utils/Ownable.sol\":2443:2460  _owner = newOwner */\n  swap1\n    /* \"Utils/Ownable.sol\":2426:2432  _owner */\n  dup3\n  swap1\n    /* \"Utils/Ownable.sol\":2476:2516  OwnershipTransferred(oldOwner, newOwner) */\n  0x8be0079c531659141344cd1fd0a4f28419497f9722a3daafe3b4186f6b6457e0\n  swap1\n    /* \"Utils/Ownable.sol\":2407:2423  address oldOwner */\n  0x00\n  swap1\n    /* \"Utils/Ownable.sol\":2476:2516  OwnershipTransferred(oldOwner, newOwner) */\n  log3\n    /* \"Utils/Ownable.sol\":2396:2524  {\r... */\n  pop\n    /* \"Utils/Ownable.sol\":2333:2524  function _transferOwnership(address newOwner) internal virtual {\r... */\n  pop\n  jump\t// out\n    /* \"Utils/EnumerableSet.sol\":8259:8411  function add(AddressSet storage set, address value) internal returns (bool) {\r... */\ntag_12:\n    /* \"Utils/EnumerableSet.sol\":8329:8333  bool */\n  0x00\n    /* \"Utils/EnumerableSet.sol\":8353:8403  _add(set._inner, bytes32(uint256(uint160(value)))) */\n  tag_18\n    /* \"Utils/EnumerableSet.sol\":8358:8361  set */\n  dup4\n  sub(shl(0xa0, 0x01), 0x01)\n    /* \"Utils/EnumerableSet.sol\":8378:8401  uint256(uint160(value)) */\n  dup5\n  and\n    /* \"Utils/EnumerableSet.sol\":8353:8357  _add */\n  tag_19\n    /* \"Utils/EnumerableSet.sol\":8353:8403  _add(set._inner, bytes32(uint256(uint160(value)))) */\n  jump\t// in\ntag_18:\n    /* \"Utils/EnumerableSet.sol\":8346:8403  return _add(set._inner, bytes32(uint256(uint160(value)))) */\n  swap1\n  pop\n    /* \"Utils/EnumerableSet.sol\":8259:8411  function add(AddressSet storage set, address value) internal returns (bool) {\r... */\ntag_17:\n  swap3\n  swap2\n  pop\n  pop\n  jump\t// out\n    /* \"Utils/EnumerableSet.sol\":2174:2588  function _add(Set storage set, bytes32 value) private returns (bool) {\r... */\ntag_19:\n    /* \"Utils/EnumerableSet.sol\":2237:2241  bool */\n  0x00\n    /* \"Utils/EnumerableSet.sol\":4367:4386  set._indexes[value] */\n  dup2\n  dup2\n  mstore\n    /* \"Utils/EnumerableSet.sol\":4367:4379  set._indexes */\n  0x01\n  dup4\n  add\n    /* \"Utils/EnumerableSet.sol\":4367:4386  set._indexes[value] */\n  0x20\n  mstore\n  0x40\n  dup2\n  keccak256\n  sload\n    /* \"Utils/EnumerableSet.sol\":2254:2581  if (!_contains(set, value)) {\r... */\n  tag_23\n  jumpi\n  pop\n    /* \"Utils/EnumerableSet.sol\":2297:2320  set._values.push(value) */\n  dup2\n  sload\n  0x01\n  dup2\n  dup2\n  add\n  dup5\n  sstore\n    /* \"Utils/EnumerableSet.sol\":2297:2308  set._values */\n  0x00\n    /* \"Utils/EnumerableSet.sol\":2297:2320  set._values.push(value) */\n  dup5\n  dup2\n  mstore\n  0x20\n  dup1\n  dup3\n  keccak256\n  swap1\n  swap4\n  add\n  dup5\n  swap1\n  sstore\n    /* \"Utils/EnumerableSet.sol\":2480:2498  set._values.length */\n  dup5\n  sload\n    /* \"Utils/EnumerableSet.sol\":2458:2477  set._indexes[value] */\n  dup5\n  dup3\n  mstore\n    /* \"Utils/EnumerableSet.sol\":2458:2470  set._indexes */\n  dup3\n  dup7\n  add\n    /* \"Utils/EnumerableSet.sol\":2458:2477  set._indexes[value] */\n  swap1\n  swap4\n  mstore\n  0x40\n  swap1\n  keccak256\n    /* \"Utils/EnumerableSet.sol\":2458:2498  set._indexes[value] = set._values.length */\n  swap2\n  swap1\n  swap2\n  sstore\n    /* \"Utils/EnumerableSet.sol\":2513:2524  return true */\n  jump(tag_17)\n    /* \"Utils/EnumerableSet.sol\":2254:2581  if (!_contains(set, value)) {\r... */\ntag_23:\n  pop\n    /* \"Utils/EnumerableSet.sol\":2564:2569  false */\n  0x00\n    /* \"Utils/EnumerableSet.sol\":2557:2569  return false */\n  jump(tag_17)\n    /* \"Ethereum/Presale.sol\":370:11804  contract Presale is ReentrancyGuard, Ownable{\r... */\ntag_14:\n  dataSize(sub_0)\n  dup1\n  dataOffset(sub_0)\n  0x00\n  codecopy\n  0x00\n  return\nstop\n\nsub_0: assembly {\n        /* \"Ethereum/Presale.sol\":370:11804  contract Presale is ReentrancyGuard, Ownable{\r... */\n      mstore(0x40, 0x80)\n      jumpi(tag_1, lt(calldatasize, 0x04))\n      shr(0xe0, calldataload(0x00))\n      dup1\n      0x9b25415c\n      gt\n      tag_25\n      jumpi\n      dup1\n      0xcad5b0f7\n      gt\n      tag_26\n      jumpi\n      dup1\n      0xcad5b0f7\n      eq\n      tag_19\n      jumpi\n      dup1\n      0xd4c1dee9\n      eq\n      tag_20\n      jumpi\n      dup1\n      0xe2d3f423\n      eq\n      tag_21\n      jumpi\n      dup1\n      0xeb002bb0\n      eq\n      tag_22\n      jumpi\n      dup1\n      0xf2fde38b\n      eq\n      tag_23\n      jumpi\n      dup1\n      0xf8b2cb4f\n      eq\n      tag_24\n      jumpi\n      0x00\n      dup1\n      revert\n    tag_26:\n      dup1\n      0x9b25415c\n      eq\n      tag_13\n      jumpi\n      dup1\n      0xab33985a\n      eq\n      tag_14\n      jumpi\n      dup1\n      0xacfb2355\n      eq\n      tag_15\n      jumpi\n      dup1\n      0xad5c4648\n      eq\n      tag_16\n      jumpi\n      dup1\n      0xae2b0965\n      eq\n      tag_17\n      jumpi\n      dup1\n      0xb6b55f25\n      eq\n      tag_18\n      jumpi\n      0x00\n      dup1\n      revert\n    tag_25:\n      dup1\n      0x56c5f349\n      gt\n      tag_27\n      jumpi\n      dup1\n      0x56c5f349\n      eq\n      tag_7\n      jumpi\n      dup1\n      0x715018a6\n      eq\n      tag_8\n      jumpi\n      dup1\n      0x861faf5f\n      eq\n      tag_9\n      jumpi\n      dup1\n      0x8da5cb5b\n      eq\n      tag_10\n      jumpi\n      dup1\n      0x8edf18e6\n      eq\n      tag_11\n      jumpi\n      dup1\n      0x95661e70\n      eq\n      tag_12\n      jumpi\n      0x00\n      dup1\n      revert\n    tag_27:\n      dup1\n      0x12e5d0b9\n      eq\n      tag_2\n      jumpi\n      dup1\n      0x18856a2f\n      eq\n      tag_3\n      jumpi\n      dup1\n      0x1df4ccfc\n      eq\n      tag_4\n      jumpi\n      dup1\n      0x200d2ed2\n      eq\n      tag_5\n      jumpi\n      dup1\n      0x3b5ef2ad\n      eq\n      tag_6\n      jumpi\n    tag_1:\n      0x00\n      dup1\n      revert\n        /* \"Ethereum/Presale.sol\":1741:1779  SaleTotalSupply public saleTotalSupply */\n    tag_2:\n      callvalue\n      dup1\n      iszero\n      tag_28\n      jumpi\n      0x00\n      dup1\n      revert\n    tag_28:\n      pop\n      sload(0x0d)\n      sload(0x0e)\n      tag_29\n      swap2\n      swap1\n      dup3\n      jump\n    tag_29:\n      0x40\n      dup1\n      mload\n        /* \"#utility.yul\":12399:12424   */\n      swap3\n      dup4\n      mstore\n        /* \"#utility.yul\":12455:12457   */\n      0x20\n        /* \"#utility.yul\":12440:12458   */\n      dup4\n      add\n        /* \"#utility.yul\":12433:12467   */\n      swap2\n      swap1\n      swap2\n      mstore\n        /* \"#utility.yul\":12372:12390   */\n      add\n        /* \"Ethereum/Presale.sol\":1741:1779  SaleTotalSupply public saleTotalSupply */\n    tag_31:\n      mload(0x40)\n      dup1\n      swap2\n      sub\n      swap1\n      return\n        /* \"Ethereum/Presale.sol\":1786:1812  SaleInfor public saleInfor */\n    tag_3:\n      callvalue\n      dup1\n      iszero\n      tag_33\n      jumpi\n      0x00\n      dup1\n      revert\n    tag_33:\n      pop\n      sload(0x0f)\n      sload(0x10)\n      sload(0x11)\n      sload(0x12)\n      sload(0x13)\n      sload(0x14)\n      sload(0x15)\n      sload(0x16)\n      sload(0x17)\n      sload(0x18)\n      sload(0x19)\n      sload(0x1a)\n      tag_34\n      swap12\n      sub(shl(0xa0, 0x01), 0x01)\n      swap1\n      dup2\n      and\n      swap12\n      dup2\n      and\n      swap11\n      and\n      swap9\n      swap8\n      swap7\n      swap6\n      swap5\n      swap4\n      swap3\n      swap2\n      0xff\n      and\n      swap1\n      dup13\n      jump\n    tag_34:\n      0x40\n      dup1\n      mload\n      sub(shl(0xa0, 0x01), 0x01)\n        /* \"#utility.yul\":3950:3965   */\n      swap14\n      dup15\n      and\n        /* \"#utility.yul\":3932:3966   */\n      dup2\n      mstore\n        /* \"#utility.yul\":4002:4017   */\n      swap12\n      dup14\n      and\n        /* \"#utility.yul\":3997:3999   */\n      0x20\n        /* \"#utility.yul\":3982:4000   */\n      dup14\n      add\n        /* \"#utility.yul\":3975:4018   */\n      mstore\n        /* \"#utility.yul\":4054:4069   */\n      swap10\n      swap1\n      swap12\n      and\n        /* \"#utility.yul\":4034:4052   */\n      swap9\n      dup11\n      add\n        /* \"#utility.yul\":4027:4070   */\n      swap9\n      swap1\n      swap9\n      mstore\n        /* \"#utility.yul\":4101:4103   */\n      0x60\n        /* \"#utility.yul\":4086:4104   */\n      dup10\n      add\n        /* \"#utility.yul\":4079:4113   */\n      swap7\n      swap1\n      swap7\n      mstore\n        /* \"#utility.yul\":4144:4147   */\n      0x80\n        /* \"#utility.yul\":4129:4148   */\n      dup9\n      add\n        /* \"#utility.yul\":4122:4157   */\n      swap5\n      swap1\n      swap5\n      mstore\n        /* \"#utility.yul\":3912:3915   */\n      0xa0\n        /* \"#utility.yul\":4173:4192   */\n      dup8\n      add\n        /* \"#utility.yul\":4166:4201   */\n      swap3\n      swap1\n      swap3\n      mstore\n        /* \"#utility.yul\":4232:4235   */\n      0xc0\n        /* \"#utility.yul\":4217:4236   */\n      dup7\n      add\n        /* \"#utility.yul\":4210:4245   */\n      mstore\n        /* \"#utility.yul\":4276:4279   */\n      0xe0\n        /* \"#utility.yul\":4261:4280   */\n      dup6\n      add\n        /* \"#utility.yul\":4254:4289   */\n      mstore\n        /* \"#utility.yul\":4320:4323   */\n      0x0100\n        /* \"#utility.yul\":4305:4324   */\n      dup5\n      add\n        /* \"#utility.yul\":4298:4333   */\n      mstore\n        /* \"#utility.yul\":4364:4367   */\n      0x0120\n        /* \"#utility.yul\":4349:4368   */\n      dup4\n      add\n        /* \"#utility.yul\":4342:4377   */\n      mstore\n        /* \"#utility.yul\":4421:4436   */\n      iszero\n        /* \"#utility.yul\":4414:4437   */\n      iszero\n        /* \"#utility.yul\":4408:4411   */\n      0x0140\n        /* \"#utility.yul\":4393:4412   */\n      dup3\n      add\n        /* \"#utility.yul\":4386:4438   */\n      mstore\n        /* \"#utility.yul\":4469:4472   */\n      0x0160\n        /* \"#utility.yul\":4454:4473   */\n      dup2\n      add\n        /* \"#utility.yul\":4447:4483   */\n      swap2\n      swap1\n      swap2\n      mstore\n        /* \"#utility.yul\":3881:3884   */\n      0x0180\n        /* \"#utility.yul\":3866:3885   */\n      add\n        /* \"Ethereum/Presale.sol\":1786:1812  SaleInfor public saleInfor */\n      tag_31\n        /* \"#utility.yul\":3848:4489   */\n      jump\n        /* \"Ethereum/Presale.sol\":1891:1914  uint256 public totalFee */\n    tag_4:\n      callvalue\n      dup1\n      iszero\n      tag_38\n      jumpi\n      0x00\n      dup1\n      revert\n    tag_38:\n      pop\n      tag_39\n      sload(0x1e)\n      dup2\n      jump\n    tag_39:\n      mload(0x40)\n        /* \"#utility.yul\":12189:12214   */\n      swap1\n      dup2\n      mstore\n        /* \"#utility.yul\":12177:12179   */\n      0x20\n        /* \"#utility.yul\":12162:12180   */\n      add\n        /* \"Ethereum/Presale.sol\":1891:1914  uint256 public totalFee */\n      tag_31\n        /* \"#utility.yul\":12144:12220   */\n      jump\n        /* \"Ethereum/Presale.sol\":4065:4402  function status() public view returns(uint256) {\r... */\n    tag_5:\n      callvalue\n      dup1\n      iszero\n      tag_43\n      jumpi\n      0x00\n      dup1\n      revert\n    tag_43:\n      pop\n      tag_39\n      tag_45\n      jump\t// in\n        /* \"Ethereum/Presale.sol\":1921:1945  uint256 public feeAnyone */\n    tag_6:\n      callvalue\n      dup1\n      iszero\n      tag_47\n      jumpi\n      0x00\n      dup1\n      revert\n    tag_47:\n      pop\n      tag_39\n      sload(0x1f)\n      dup2\n      jump\n        /* \"Ethereum/Presale.sol\":1651:1693  mapping(address => uint256) public userFee */\n    tag_7:\n      callvalue\n      dup1\n      iszero\n      tag_51\n      jumpi\n      0x00\n      dup1\n      revert\n    tag_51:\n      pop\n      tag_39\n      tag_53\n      calldatasize\n      0x04\n      tag_54\n      jump\t// in\n    tag_53:\n      mstore(0x20, 0x03)\n      0x00\n      swap1\n      dup2\n      mstore\n      0x40\n      swap1\n      keccak256\n      sload\n      dup2\n      jump\n        /* \"Utils/Ownable.sol\":1714:1817  function renounceOwnership() public virtual onlyOwner {\r... */\n    tag_8:\n      callvalue\n      dup1\n      iszero\n      tag_57\n      jumpi\n      0x00\n      dup1\n      revert\n    tag_57:\n      pop\n      tag_58\n      tag_59\n      jump\t// in\n    tag_58:\n      stop\n        /* \"Ethereum/Presale.sol\":11693:11801  function backToken() external payable {\r... */\n    tag_9:\n      tag_58\n      tag_61\n      jump\t// in\n        /* \"Utils/Ownable.sol\":1063:1150  function owner() public view virtual returns (address) {\r... */\n    tag_10:\n      callvalue\n      dup1\n      iszero\n      tag_62\n      jumpi\n      0x00\n      dup1\n      revert\n    tag_62:\n      pop\n        /* \"Utils/Ownable.sol\":1136:1142  _owner */\n      and(sub(shl(0xa0, 0x01), 0x01), sload(0x01))\n        /* \"Utils/Ownable.sol\":1063:1150  function owner() public view virtual returns (address) {\r... */\n    tag_63:\n      mload(0x40)\n      sub(shl(0xa0, 0x01), 0x01)\n        /* \"#utility.yul\":3357:3389   */\n      swap1\n      swap2\n      and\n        /* \"#utility.yul\":3339:3390   */\n      dup2\n      mstore\n        /* \"#utility.yul\":3327:3329   */\n      0x20\n        /* \"#utility.yul\":3312:3330   */\n      add\n        /* \"Utils/Ownable.sol\":1063:1150  function owner() public view virtual returns (address) {\r... */\n      tag_31\n        /* \"#utility.yul\":3294:3396   */\n      jump\n        /* \"Ethereum/Presale.sol\":8780:9982  function ownerClaimAndRefundToken() external onlyPresaleOwner nonReentrant{\r... */\n    tag_11:\n      callvalue\n      dup1\n      iszero\n      tag_67\n      jumpi\n      0x00\n      dup1\n      revert\n    tag_67:\n      pop\n      tag_58\n      tag_69\n      jump\t// in\n        /* \"Ethereum/Presale.sol\":7761:8772  function userRefundEmergency() external nonReentrant {\r... */\n    tag_12:\n      callvalue\n      dup1\n      iszero\n      tag_70\n      jumpi\n      0x00\n      dup1\n      revert\n    tag_70:\n      pop\n      tag_58\n      tag_72\n      jump\t// in\n        /* \"Ethereum/Presale.sol\":2640:4056  function initialSaleInfor(\r... */\n    tag_13:\n      callvalue\n      dup1\n      iszero\n      tag_73\n      jumpi\n      0x00\n      dup1\n      revert\n    tag_73:\n      pop\n      tag_58\n      tag_75\n      calldatasize\n      0x04\n      tag_76\n      jump\t// in\n    tag_75:\n      tag_77\n      jump\t// in\n        /* \"Ethereum/Presale.sol\":6749:7753  function userClaimEmergency() external nonReentrant {\r... */\n    tag_14:\n      callvalue\n      dup1\n      iszero\n      tag_78\n      jumpi\n      0x00\n      dup1\n      revert\n    tag_78:\n      pop\n      tag_58\n      tag_80\n      jump\t// in\n        /* \"Ethereum/Presale.sol\":1700:1734  PresaleStatus public presaleStatus */\n    tag_15:\n      callvalue\n      dup1\n      iszero\n      tag_81\n      jumpi\n      0x00\n      dup1\n      revert\n    tag_81:\n      pop\n      sload(0x04)\n      sload(0x05)\n      sload(0x06)\n      sload(0x07)\n      sload(0x08)\n      sload(0x09)\n      sload(0x0a)\n      sload(0x0b)\n      tag_82\n      swap8\n      swap7\n      swap6\n      swap5\n      swap4\n      swap3\n      swap2\n      swap1\n      0xff\n      dup1\n      dup3\n      and\n      swap2\n      0x0100\n      swap1\n      div\n      and\n      dup10\n      jump\n    tag_82:\n      0x40\n      dup1\n      mload\n        /* \"#utility.yul\":13305:13330   */\n      swap10\n      dup11\n      mstore\n        /* \"#utility.yul\":13361:13363   */\n      0x20\n        /* \"#utility.yul\":13346:13364   */\n      dup11\n      add\n        /* \"#utility.yul\":13339:13373   */\n      swap9\n      swap1\n      swap9\n      mstore\n        /* \"#utility.yul\":13389:13407   */\n      swap7\n      dup9\n      add\n        /* \"#utility.yul\":13382:13416   */\n      swap6\n      swap1\n      swap6\n      mstore\n        /* \"#utility.yul\":13447:13449   */\n      0x60\n        /* \"#utility.yul\":13432:13450   */\n      dup8\n      add\n        /* \"#utility.yul\":13425:13459   */\n      swap4\n      swap1\n      swap4\n      mstore\n        /* \"#utility.yul\":13490:13493   */\n      0x80\n        /* \"#utility.yul\":13475:13494   */\n      dup7\n      add\n        /* \"#utility.yul\":13468:13503   */\n      swap2\n      swap1\n      swap2\n      mstore\n        /* \"#utility.yul\":13534:13537   */\n      0xa0\n        /* \"#utility.yul\":13519:13538   */\n      dup6\n      add\n        /* \"#utility.yul\":13512:13547   */\n      mstore\n        /* \"#utility.yul\":13578:13581   */\n      0xc0\n        /* \"#utility.yul\":13563:13582   */\n      dup5\n      add\n        /* \"#utility.yul\":13556:13591   */\n      mstore\n        /* \"#utility.yul\":13635:13649   */\n      iszero\n        /* \"#utility.yul\":13628:13650   */\n      iszero\n        /* \"#utility.yul\":13622:13625   */\n      0xe0\n        /* \"#utility.yul\":13607:13626   */\n      dup4\n      add\n        /* \"#utility.yul\":13600:13651   */\n      mstore\n        /* \"#utility.yul\":13695:13709   */\n      iszero\n        /* \"#utility.yul\":13688:13710   */\n      iszero\n        /* \"#utility.yul\":13682:13685   */\n      0x0100\n        /* \"#utility.yul\":13667:13686   */\n      dup3\n      add\n        /* \"#utility.yul\":13660:13711   */\n      mstore\n        /* \"#utility.yul\":13292:13295   */\n      0x0120\n        /* \"#utility.yul\":13277:13296   */\n      add\n        /* \"Ethereum/Presale.sol\":1700:1734  PresaleStatus public presaleStatus */\n      tag_31\n        /* \"#utility.yul\":13259:13717   */\n      jump\n        /* \"Ethereum/Presale.sol\":1819:1837  IERC20 public WETH */\n    tag_16:\n      callvalue\n      dup1\n      iszero\n      tag_86\n      jumpi\n      0x00\n      dup1\n      revert\n    tag_86:\n      pop\n      sload(0x1b)\n      tag_63\n      swap1\n      sub(shl(0xa0, 0x01), 0x01)\n      and\n      dup2\n      jump\n        /* \"Ethereum/Presale.sol\":1952:1982  address public adminReceiveFee */\n    tag_17:\n      callvalue\n      dup1\n      iszero\n      tag_91\n      jumpi\n      0x00\n      dup1\n      revert\n    tag_91:\n      pop\n      sload(0x20)\n      tag_63\n      swap1\n      sub(shl(0xa0, 0x01), 0x01)\n      and\n      dup2\n      jump\n        /* \"Ethereum/Presale.sol\":4529:6741  function deposit(uint256 _amount) external payable nonReentrant {\r... */\n    tag_18:\n      tag_58\n      tag_96\n      calldatasize\n      0x04\n      tag_97\n      jump\t// in\n    tag_96:\n      tag_98\n      jump\t// in\n        /* \"Ethereum/Presale.sol\":4411:4521  function checkAdminAddress() public view returns(bool) {\r... */\n    tag_19:\n      callvalue\n      dup1\n      iszero\n      tag_99\n      jumpi\n      0x00\n      dup1\n      revert\n    tag_99:\n      pop\n      tag_100\n      tag_101\n      jump\t// in\n    tag_100:\n      mload(0x40)\n        /* \"#utility.yul\":5605:5619   */\n      swap1\n      iszero\n        /* \"#utility.yul\":5598:5620   */\n      iszero\n        /* \"#utility.yul\":5580:5621   */\n      dup2\n      mstore\n        /* \"#utility.yul\":5568:5570   */\n      0x20\n        /* \"#utility.yul\":5553:5571   */\n      add\n        /* \"Ethereum/Presale.sol\":4411:4521  function checkAdminAddress() public view returns(bool) {\r... */\n      tag_31\n        /* \"#utility.yul\":5535:5627   */\n      jump\n        /* \"Ethereum/Presale.sol\":1990:2018  uint256 public feeCreateSale */\n    tag_20:\n      callvalue\n      dup1\n      iszero\n      tag_104\n      jumpi\n      0x00\n      dup1\n      revert\n    tag_104:\n      pop\n      tag_39\n      sload(0x21)\n      dup2\n      jump\n        /* \"Ethereum/Presale.sol\":1598:1644  mapping(address => BuyerInfo) public buyerInfo */\n    tag_21:\n      callvalue\n      dup1\n      iszero\n      tag_108\n      jumpi\n      0x00\n      dup1\n      revert\n    tag_108:\n      pop\n      tag_109\n      tag_110\n      calldatasize\n      0x04\n      tag_54\n      jump\t// in\n    tag_110:\n      0x02\n      0x20\n      dup2\n      swap1\n      mstore\n      0x00\n      swap2\n      dup3\n      mstore\n      0x40\n      swap1\n      swap2\n      keccak256\n      dup1\n      sload\n      0x01\n      dup3\n      add\n      sload\n      swap3\n      dup3\n      add\n      sload\n      0x03\n      dup4\n      add\n      sload\n      0x04\n      swap1\n      swap4\n      add\n      sload\n      swap2\n      swap4\n      swap3\n      swap1\n      swap2\n      dup6\n      jump\n    tag_109:\n      0x40\n      dup1\n      mload\n        /* \"#utility.yul\":12737:12762   */\n      swap6\n      dup7\n      mstore\n        /* \"#utility.yul\":12793:12795   */\n      0x20\n        /* \"#utility.yul\":12778:12796   */\n      dup7\n      add\n        /* \"#utility.yul\":12771:12805   */\n      swap5\n      swap1\n      swap5\n      mstore\n        /* \"#utility.yul\":12821:12839   */\n      swap3\n      dup5\n      add\n        /* \"#utility.yul\":12814:12848   */\n      swap2\n      swap1\n      swap2\n      mstore\n        /* \"#utility.yul\":12879:12881   */\n      0x60\n        /* \"#utility.yul\":12864:12882   */\n      dup4\n      add\n        /* \"#utility.yul\":12857:12891   */\n      mstore\n        /* \"#utility.yul\":12922:12925   */\n      0x80\n        /* \"#utility.yul\":12907:12926   */\n      dup3\n      add\n        /* \"#utility.yul\":12900:12935   */\n      mstore\n        /* \"#utility.yul\":12724:12727   */\n      0xa0\n        /* \"#utility.yul\":12709:12728   */\n      add\n        /* \"Ethereum/Presale.sol\":1598:1644  mapping(address => BuyerInfo) public buyerInfo */\n      tag_31\n        /* \"#utility.yul\":12691:12941   */\n      jump\n        /* \"Ethereum/Presale.sol\":9990:11563  function userClaimOrRefundWhenSaleSuccess(bool isClaim) external {\r... */\n    tag_22:\n      callvalue\n      dup1\n      iszero\n      tag_114\n      jumpi\n      0x00\n      dup1\n      revert\n    tag_114:\n      pop\n      tag_58\n      tag_116\n      calldatasize\n      0x04\n      tag_117\n      jump\t// in\n    tag_116:\n      tag_118\n      jump\t// in\n        /* \"Utils/Ownable.sol\":1972:2173  function transferOwnership(address newOwner) public virtual onlyOwner {\r... */\n    tag_23:\n      callvalue\n      dup1\n      iszero\n      tag_119\n      jumpi\n      0x00\n      dup1\n      revert\n    tag_119:\n      pop\n      tag_58\n      tag_121\n      calldatasize\n      0x04\n      tag_54\n      jump\t// in\n    tag_121:\n      tag_122\n      jump\t// in\n        /* \"Ethereum/Presale.sol\":11571:11682  function getBalance(address _address) external view returns(uint256) {\r... */\n    tag_24:\n      callvalue\n      dup1\n      iszero\n      tag_123\n      jumpi\n      0x00\n      dup1\n      revert\n    tag_123:\n      pop\n      tag_39\n      tag_125\n      calldatasize\n      0x04\n      tag_54\n      jump\t// in\n    tag_125:\n      sub(shl(0xa0, 0x01), 0x01)\n        /* \"Ethereum/Presale.sol\":11658:11674  _address.balance */\n      and\n      balance\n      swap1\n        /* \"Ethereum/Presale.sol\":11571:11682  function getBalance(address _address) external view returns(uint256) {\r... */\n      jump\n        /* \"Ethereum/Presale.sol\":4065:4402  function status() public view returns(uint256) {\r... */\n    tag_45:\n        /* \"Ethereum/Presale.sol\":4144:4163  saleInfor.startSale */\n      sload(0x13)\n        /* \"Ethereum/Presale.sol\":4103:4110  uint256 */\n      0x00\n      swap1\n        /* \"Ethereum/Presale.sol\":4126:4141  block.timestamp */\n      timestamp\n        /* \"Ethereum/Presale.sol\":4126:4163  block.timestamp < saleInfor.startSale */\n      lt\n        /* \"Ethereum/Presale.sol\":4123:4395  if(block.timestamp < saleInfor.startSale) {\r... */\n      iszero\n      tag_130\n      jumpi\n      pop\n        /* \"Ethereum/Presale.sol\":4187:4188  0 */\n      0x00\n      swap1\n        /* \"Ethereum/Presale.sol\":4065:4402  function status() public view returns(uint256) {\r... */\n      jump\t// out\n        /* \"Ethereum/Presale.sol\":4123:4395  if(block.timestamp < saleInfor.startSale) {\r... */\n    tag_130:\n        /* \"Ethereum/Presale.sol\":4254:4271  saleInfor.endSale */\n      sload(0x14)\n        /* \"Ethereum/Presale.sol\":4236:4251  block.timestamp */\n      timestamp\n        /* \"Ethereum/Presale.sol\":4236:4271  block.timestamp > saleInfor.endSale */\n      gt\n        /* \"Ethereum/Presale.sol\":4233:4384  if(block.timestamp > saleInfor.endSale) {\r... */\n      iszero\n      tag_132\n      jumpi\n      pop\n        /* \"Ethereum/Presale.sol\":4299:4300  2 */\n      0x02\n      swap1\n        /* \"Ethereum/Presale.sol\":4065:4402  function status() public view returns(uint256) {\r... */\n      jump\t// out\n        /* \"Ethereum/Presale.sol\":4233:4384  if(block.timestamp > saleInfor.endSale) {\r... */\n    tag_132:\n      pop\n        /* \"Ethereum/Presale.sol\":4357:4358  1 */\n      0x01\n      swap1\n        /* \"Ethereum/Presale.sol\":4065:4402  function status() public view returns(uint256) {\r... */\n      jump\t// out\n        /* \"Utils/Ownable.sol\":1714:1817  function renounceOwnership() public virtual onlyOwner {\r... */\n    tag_59:\n        /* \"Utils/Ownable.sol\":1136:1142  _owner */\n      and(sub(shl(0xa0, 0x01), 0x01), sload(0x01))\n        /* \"Utils/Context.sol\":736:746  msg.sender */\n      caller\n        /* \"Utils/Ownable.sol\":1283:1306  owner() == _msgSender() */\n      eq\n        /* \"Utils/Ownable.sol\":1275:1343  require(owner() == _msgSender(), \"Ownable: caller is not the owner\") */\n      tag_138\n      jumpi\n      mload(0x40)\n      shl(0xe5, 0x461bcd)\n      dup2\n      mstore\n        /* \"#utility.yul\":10074:10076   */\n      0x20\n        /* \"Utils/Ownable.sol\":1275:1343  require(owner() == _msgSender(), \"Ownable: caller is not the owner\") */\n      0x04\n      dup3\n      add\n        /* \"#utility.yul\":10056:10077   */\n      dup2\n      swap1\n      mstore\n        /* \"#utility.yul\":10093:10111   */\n      0x24\n      dup3\n      add\n        /* \"#utility.yul\":10086:10116   */\n      mstore\n        /* \"#utility.yul\":10152:10186   */\n      0x4f776e61626c653a2063616c6c6572206973206e6f7420746865206f776e6572\n        /* \"#utility.yul\":10132:10150   */\n      0x44\n      dup3\n      add\n        /* \"#utility.yul\":10125:10187   */\n      mstore\n        /* \"#utility.yul\":10204:10222   */\n      0x64\n      add\n        /* \"Utils/Ownable.sol\":1275:1343  require(owner() == _msgSender(), \"Ownable: caller is not the owner\") */\n    tag_139:\n      mload(0x40)\n      dup1\n      swap2\n      sub\n      swap1\n      revert\n    tag_138:\n        /* \"Utils/Ownable.sol\":1779:1809  _transferOwnership(address(0)) */\n      tag_142\n        /* \"Utils/Ownable.sol\":1806:1807  0 */\n      0x00\n        /* \"Utils/Ownable.sol\":1779:1797  _transferOwnership */\n      tag_143\n        /* \"Utils/Ownable.sol\":1779:1809  _transferOwnership(address(0)) */\n      jump\t// in\n    tag_142:\n        /* \"Utils/Ownable.sol\":1714:1817  function renounceOwnership() public virtual onlyOwner {\r... */\n      jump\t// out\n        /* \"Ethereum/Presale.sol\":11693:11801  function backToken() external payable {\r... */\n    tag_61:\n        /* \"Ethereum/Presale.sol\":11742:11793  payable(msg.sender).transfer(address(this).balance) */\n      mload(0x40)\n        /* \"Ethereum/Presale.sol\":11750:11760  msg.sender */\n      caller\n      swap1\n        /* \"Ethereum/Presale.sol\":11771:11792  address(this).balance */\n      selfbalance\n        /* \"Ethereum/Presale.sol\":11742:11793  payable(msg.sender).transfer(address(this).balance) */\n      dup1\n      iszero\n      0x08fc\n      mul\n      swap2\n      0x00\n      dup2\n      dup2\n      dup2\n        /* \"Ethereum/Presale.sol\":11771:11792  address(this).balance */\n      dup6\n        /* \"Ethereum/Presale.sol\":11750:11760  msg.sender */\n      dup9\n        /* \"Ethereum/Presale.sol\":11742:11793  payable(msg.sender).transfer(address(this).balance) */\n      dup9\n      call\n      swap4\n      pop\n      pop\n      pop\n      pop\n      iszero\n      dup1\n      iszero\n      tag_146\n      jumpi\n      returndatasize\n      0x00\n      dup1\n      returndatacopy\n      revert(0x00, returndatasize)\n    tag_146:\n      pop\n        /* \"Ethereum/Presale.sol\":11693:11801  function backToken() external payable {\r... */\n      jump\t// out\n        /* \"Ethereum/Presale.sol\":8780:9982  function ownerClaimAndRefundToken() external onlyPresaleOwner nonReentrant{\r... */\n    tag_69:\n        /* \"Ethereum/Presale.sol\":2203:2212  saleInfor */\n      0x0f\n        /* \"Ethereum/Presale.sol\":2203:2225  saleInfor.presaleOwner */\n      sload\n      sub(shl(0xa0, 0x01), 0x01)\n      and\n        /* \"Utils/Context.sol\":736:746  msg.sender */\n      caller\n      sub(shl(0xa0, 0x01), 0x01)\n        /* \"Ethereum/Presale.sol\":2187:2225  _msgSender() == saleInfor.presaleOwner */\n      and\n      eq\n        /* \"Ethereum/Presale.sol\":2179:2248  require(_msgSender() == saleInfor.presaleOwner, \"Only presale owner\") */\n      tag_150\n      jumpi\n      mload(0x40)\n      shl(0xe5, 0x461bcd)\n      dup2\n      mstore\n        /* \"#utility.yul\":9727:9729   */\n      0x20\n        /* \"Ethereum/Presale.sol\":2179:2248  require(_msgSender() == saleInfor.presaleOwner, \"Only presale owner\") */\n      0x04\n      dup3\n      add\n        /* \"#utility.yul\":9709:9730   */\n      mstore\n        /* \"#utility.yul\":9766:9768   */\n      0x12\n        /* \"#utility.yul\":9746:9764   */\n      0x24\n      dup3\n      add\n        /* \"#utility.yul\":9739:9769   */\n      mstore\n      shl(0x71, 0x27b7363c90383932b9b0b6329037bbb732b9)\n        /* \"#utility.yul\":9785:9803   */\n      0x44\n      dup3\n      add\n        /* \"#utility.yul\":9778:9826   */\n      mstore\n        /* \"#utility.yul\":9843:9861   */\n      0x64\n      add\n        /* \"Ethereum/Presale.sol\":2179:2248  require(_msgSender() == saleInfor.presaleOwner, \"Only presale owner\") */\n      tag_139\n        /* \"#utility.yul\":9699:9867   */\n      jump\n        /* \"Ethereum/Presale.sol\":2179:2248  require(_msgSender() == saleInfor.presaleOwner, \"Only presale owner\") */\n    tag_150:\n        /* \"Utils/ReentrancyGuard.sol\":1778:1779  2 */\n      0x02\n        /* \"Utils/ReentrancyGuard.sol\":2376:2383  _status */\n      sload(0x00)\n        /* \"Utils/ReentrancyGuard.sol\":2376:2395  _status != _ENTERED */\n      eq\n      iszero\n        /* \"Utils/ReentrancyGuard.sol\":2368:2431  require(_status != _ENTERED, \"ReentrancyGuard: reentrant call\") */\n      tag_154\n      jumpi\n      mload(0x40)\n      shl(0xe5, 0x461bcd)\n      dup2\n      mstore\n      0x04\n      add\n      tag_139\n      swap1\n      tag_156\n      jump\t// in\n    tag_154:\n        /* \"Utils/ReentrancyGuard.sol\":1778:1779  2 */\n      0x02\n        /* \"Utils/ReentrancyGuard.sol\":2509:2516  _status */\n      0x00\n        /* \"Utils/ReentrancyGuard.sol\":2509:2527  _status = _ENTERED */\n      swap1\n      dup2\n      sstore\n        /* \"Ethereum/Presale.sol\":8963:8982  saleInfor.saleToken */\n      sload(0x10)\n        /* \"Ethereum/Presale.sol\":8957:9008  ERC20(saleInfor.saleToken).balanceOf(address(this)) */\n      mload(0x40)\n      shl(0xe0, 0x70a08231)\n      dup2\n      mstore\n        /* \"Ethereum/Presale.sol\":9002:9006  this */\n      address\n        /* \"Ethereum/Presale.sol\":8957:9008  ERC20(saleInfor.saleToken).balanceOf(address(this)) */\n      0x04\n      dup3\n      add\n        /* \"#utility.yul\":3339:3390   */\n      mstore\n      sub(shl(0xa0, 0x01), 0x01)\n        /* \"Ethereum/Presale.sol\":8963:8982  saleInfor.saleToken */\n      swap1\n      swap2\n      and\n      swap1\n        /* \"Ethereum/Presale.sol\":8957:8993  ERC20(saleInfor.saleToken).balanceOf */\n      0x70a08231\n      swap1\n        /* \"#utility.yul\":3312:3330   */\n      0x24\n      add\n        /* \"Ethereum/Presale.sol\":8957:9008  ERC20(saleInfor.saleToken).balanceOf(address(this)) */\n      0x20\n      mload(0x40)\n      dup1\n      dup4\n      sub\n      dup2\n      dup7\n      dup1\n      extcodesize\n      iszero\n      dup1\n      iszero\n      tag_159\n      jumpi\n      0x00\n      dup1\n      revert\n    tag_159:\n      pop\n      gas\n      staticcall\n      iszero\n      dup1\n      iszero\n      tag_161\n      jumpi\n      returndatasize\n      0x00\n      dup1\n      returndatacopy\n      revert(0x00, returndatasize)\n    tag_161:\n      pop\n      pop\n      pop\n      pop\n      mload(0x40)\n      returndatasize\n      not(0x1f)\n      0x1f\n      dup3\n      add\n      and\n      dup3\n      add\n      dup1\n      0x40\n      mstore\n      pop\n      dup2\n      add\n      swap1\n      tag_162\n      swap2\n      swap1\n      tag_163\n      jump\t// in\n    tag_162:\n        /* \"Ethereum/Presale.sol\":9145:9181  presaleStatus.totalTokenBackForAdmin */\n      sload(0x08)\n        /* \"Ethereum/Presale.sol\":9145:9158  presaleStatus */\n      0x04\n        /* \"Ethereum/Presale.sol\":9059:9091  presaleStatus.totalBaseCollected */\n      sload\n        /* \"Ethereum/Presale.sol\":8925:9008  uint256 amountOwnerClaimToken = ERC20(saleInfor.saleToken).balanceOf(address(this)) */\n      swap2\n      swap3\n      pop\n        /* \"Ethereum/Presale.sol\":9020:9055  uint256 amountOwnerRefundNativeCoin */\n      0x00\n      swap2\n        /* \"Ethereum/Presale.sol\":9059:9231  presaleStatus.totalBaseCollected\r... */\n      tag_164\n      swap2\n        /* \"Ethereum/Presale.sol\":9059:9144  presaleStatus.totalBaseCollected\r... */\n      tag_165\n        /* \"Ethereum/Presale.sol\":9059:9231  presaleStatus.totalBaseCollected\r... */\n      jump\t// in\n    tag_164:\n        /* \"Ethereum/Presale.sol\":9246:9259  presaleStatus */\n      0x04\n        /* \"Ethereum/Presale.sol\":9246:9278  presaleStatus.totalBaseCollected */\n      sload\n        /* \"Ethereum/Presale.sol\":9020:9232  uint256 amountOwnerRefundNativeCoin = (presaleStatus.totalBaseCollected\r... */\n      swap1\n      swap2\n      pop\n        /* \"Ethereum/Presale.sol\":9246:9283  presaleStatus.totalBaseCollected != 0 */\n      iszero\n        /* \"Ethereum/Presale.sol\":9243:9526  if(presaleStatus.totalBaseCollected != 0){\r... */\n      tag_166\n      jumpi\n        /* \"Ethereum/Presale.sol\":9458:9494  presaleStatus.totalTokenBackForAdmin */\n      sload(0x08)\n        /* \"Ethereum/Presale.sol\":9387:9415  presaleStatus.totalTokenSold */\n      sload(0x05)\n        /* \"Ethereum/Presale.sol\":9323:9496  amountOwnerClaimToken\r... */\n      tag_167\n      swap2\n        /* \"Ethereum/Presale.sol\":9387:9495  presaleStatus.totalTokenSold\r... */\n      tag_168\n      swap2\n        /* \"Ethereum/Presale.sol\":9387:9415  presaleStatus.totalTokenSold */\n      swap1\n        /* \"Ethereum/Presale.sol\":9387:9457  presaleStatus.totalTokenSold\r... */\n      tag_165\n        /* \"Ethereum/Presale.sol\":9387:9495  presaleStatus.totalTokenSold\r... */\n      jump\t// in\n    tag_168:\n        /* \"Ethereum/Presale.sol\":9323:9344  amountOwnerClaimToken */\n      dup4\n      swap1\n        /* \"Ethereum/Presale.sol\":9323:9386  amountOwnerClaimToken\r... */\n      tag_165\n        /* \"Ethereum/Presale.sol\":9323:9496  amountOwnerClaimToken\r... */\n      jump\t// in\n    tag_167:\n        /* \"Ethereum/Presale.sol\":9299:9496  amountOwnerClaimToken = amountOwnerClaimToken\r... */\n      swap2\n      pop\n        /* \"Ethereum/Presale.sol\":9243:9526  if(presaleStatus.totalBaseCollected != 0){\r... */\n    tag_166:\n        /* \"Ethereum/Presale.sol\":9545:9580  presaleStatus.isOwnerClaimSaleToken */\n      and(0xff, sload(0x0b))\n        /* \"Ethereum/Presale.sol\":9544:9580  !presaleStatus.isOwnerClaimSaleToken */\n      iszero\n        /* \"Ethereum/Presale.sol\":9536:9614  require(!presaleStatus.isOwnerClaimSaleToken, \"Nothing for owner claim token\") */\n      tag_169\n      jumpi\n      mload(0x40)\n      shl(0xe5, 0x461bcd)\n      dup2\n      mstore\n        /* \"#utility.yul\":11183:11185   */\n      0x20\n        /* \"Ethereum/Presale.sol\":9536:9614  require(!presaleStatus.isOwnerClaimSaleToken, \"Nothing for owner claim token\") */\n      0x04\n      dup3\n      add\n        /* \"#utility.yul\":11165:11186   */\n      mstore\n        /* \"#utility.yul\":11222:11224   */\n      0x1d\n        /* \"#utility.yul\":11202:11220   */\n      0x24\n      dup3\n      add\n        /* \"#utility.yul\":11195:11225   */\n      mstore\n        /* \"#utility.yul\":11261:11292   */\n      0x4e6f7468696e6720666f72206f776e657220636c61696d20746f6b656e000000\n        /* \"#utility.yul\":11241:11259   */\n      0x44\n      dup3\n      add\n        /* \"#utility.yul\":11234:11293   */\n      mstore\n        /* \"#utility.yul\":11310:11328   */\n      0x64\n      add\n        /* \"Ethereum/Presale.sol\":9536:9614  require(!presaleStatus.isOwnerClaimSaleToken, \"Nothing for owner claim token\") */\n      tag_139\n        /* \"#utility.yul\":11155:11334   */\n      jump\n        /* \"Ethereum/Presale.sol\":9536:9614  require(!presaleStatus.isOwnerClaimSaleToken, \"Nothing for owner claim token\") */\n    tag_169:\n        /* \"Ethereum/Presale.sol\":9634:9670  presaleStatus.isOwnerRefundBaseToken */\n      sload(0x0b)\n      0x0100\n      swap1\n      div\n      0xff\n      and\n        /* \"Ethereum/Presale.sol\":9633:9670  !presaleStatus.isOwnerRefundBaseToken */\n      iszero\n        /* \"Ethereum/Presale.sol\":9625:9705  require(!presaleStatus.isOwnerRefundBaseToken, \"Nothing for owner refund token\") */\n      tag_172\n      jumpi\n      mload(0x40)\n      shl(0xe5, 0x461bcd)\n      dup2\n      mstore\n        /* \"#utility.yul\":7526:7528   */\n      0x20\n        /* \"Ethereum/Presale.sol\":9625:9705  require(!presaleStatus.isOwnerRefundBaseToken, \"Nothing for owner refund token\") */\n      0x04\n      dup3\n      add\n        /* \"#utility.yul\":7508:7529   */\n      mstore\n        /* \"#utility.yul\":7565:7567   */\n      0x1e\n        /* \"#utility.yul\":7545:7563   */\n      0x24\n      dup3\n      add\n        /* \"#utility.yul\":7538:7568   */\n      mstore\n        /* \"#utility.yul\":7604:7636   */\n      0x4e6f7468696e6720666f72206f776e657220726566756e6420746f6b656e0000\n        /* \"#utility.yul\":7584:7602   */\n      0x44\n      dup3\n      add\n        /* \"#utility.yul\":7577:7637   */\n      mstore\n        /* \"#utility.yul\":7654:7672   */\n      0x64\n      add\n        /* \"Ethereum/Presale.sol\":9625:9705  require(!presaleStatus.isOwnerRefundBaseToken, \"Nothing for owner refund token\") */\n      tag_139\n        /* \"#utility.yul\":7498:7678   */\n      jump\n        /* \"Ethereum/Presale.sol\":9625:9705  require(!presaleStatus.isOwnerRefundBaseToken, \"Nothing for owner refund token\") */\n    tag_172:\n        /* \"Ethereum/Presale.sol\":9716:9751  presaleStatus.isOwnerClaimSaleToken */\n      0x0b\n        /* \"Ethereum/Presale.sol\":9716:9758  presaleStatus.isOwnerClaimSaleToken = true */\n      dup1\n      sload\n      not(0xff)\n      and\n        /* \"Ethereum/Presale.sol\":9754:9758  true */\n      0x01\n        /* \"Ethereum/Presale.sol\":9716:9758  presaleStatus.isOwnerClaimSaleToken = true */\n      or\n      swap1\n      sstore\n      0x00\n        /* \"Ethereum/Presale.sol\":9769:9797  saleInfor.amountTokenForSale */\n      0x1a\n        /* \"Ethereum/Presale.sol\":9769:9801  saleInfor.amountTokenForSale = 0 */\n      sstore\n        /* \"Ethereum/Presale.sol\":9818:9837  saleInfor.saleToken */\n      sload(0x10)\n        /* \"Ethereum/Presale.sol\":9769:9778  saleInfor */\n      0x0f\n        /* \"Ethereum/Presale.sol\":9848:9870  saleInfor.presaleOwner */\n      sload\n        /* \"Ethereum/Presale.sol\":9812:9894  ERC20(saleInfor.saleToken).transfer(saleInfor.presaleOwner, amountOwnerClaimToken) */\n      mload(0x40)\n      shl(0xe0, 0xa9059cbb)\n      dup2\n      mstore\n      sub(shl(0xa0, 0x01), 0x01)\n        /* \"Ethereum/Presale.sol\":9848:9870  saleInfor.presaleOwner */\n      swap2\n      dup3\n      and\n        /* \"Ethereum/Presale.sol\":9716:9729  presaleStatus */\n      0x04\n        /* \"Ethereum/Presale.sol\":9812:9894  ERC20(saleInfor.saleToken).transfer(saleInfor.presaleOwner, amountOwnerClaimToken) */\n      dup3\n      add\n        /* \"#utility.yul\":4676:4727   */\n      mstore\n        /* \"#utility.yul\":4743:4761   */\n      0x24\n      dup2\n      add\n        /* \"#utility.yul\":4736:4770   */\n      dup6\n      swap1\n      mstore\n        /* \"Ethereum/Presale.sol\":9818:9837  saleInfor.saleToken */\n      swap2\n      and\n      swap1\n        /* \"Ethereum/Presale.sol\":9812:9847  ERC20(saleInfor.saleToken).transfer */\n      0xa9059cbb\n      swap1\n        /* \"#utility.yul\":4649:4667   */\n      0x44\n      add\n        /* \"Ethereum/Presale.sol\":9812:9894  ERC20(saleInfor.saleToken).transfer(saleInfor.presaleOwner, amountOwnerClaimToken) */\n      0x20\n      mload(0x40)\n      dup1\n      dup4\n      sub\n      dup2\n      0x00\n      dup8\n      dup1\n      extcodesize\n      iszero\n      dup1\n      iszero\n      tag_177\n      jumpi\n      0x00\n      dup1\n      revert\n    tag_177:\n      pop\n      gas\n      call\n      iszero\n      dup1\n      iszero\n      tag_179\n      jumpi\n      returndatasize\n      0x00\n      dup1\n      returndatacopy\n      revert(0x00, returndatasize)\n    tag_179:\n      pop\n      pop\n      pop\n      pop\n      mload(0x40)\n      returndatasize\n      not(0x1f)\n      0x1f\n      dup3\n      add\n      and\n      dup3\n      add\n      dup1\n      0x40\n      mstore\n      pop\n      dup2\n      add\n      swap1\n      tag_180\n      swap2\n      swap1\n      tag_181\n      jump\t// in\n    tag_180:\n      pop\n        /* \"Ethereum/Presale.sol\":9913:9922  saleInfor */\n      0x0f\n        /* \"Ethereum/Presale.sol\":9913:9935  saleInfor.presaleOwner */\n      sload\n        /* \"Ethereum/Presale.sol\":9905:9974  payable(saleInfor.presaleOwner).transfer(amountOwnerRefundNativeCoin) */\n      mload(0x40)\n      sub(shl(0xa0, 0x01), 0x01)\n        /* \"Ethereum/Presale.sol\":9913:9935  saleInfor.presaleOwner */\n      swap1\n      swap2\n      and\n      swap1\n        /* \"Ethereum/Presale.sol\":9905:9974  payable(saleInfor.presaleOwner).transfer(amountOwnerRefundNativeCoin) */\n      dup3\n      iszero\n      0x08fc\n      mul\n      swap1\n        /* \"Ethereum/Presale.sol\":9946:9973  amountOwnerRefundNativeCoin */\n      dup4\n      swap1\n        /* \"Ethereum/Presale.sol\":9913:9935  saleInfor.presaleOwner */\n      0x00\n        /* \"Ethereum/Presale.sol\":9905:9974  payable(saleInfor.presaleOwner).transfer(amountOwnerRefundNativeCoin) */\n      dup2\n        /* \"Ethereum/Presale.sol\":9913:9935  saleInfor.presaleOwner */\n      dup2\n        /* \"Ethereum/Presale.sol\":9905:9974  payable(saleInfor.presaleOwner).transfer(amountOwnerRefundNativeCoin) */\n      dup2\n        /* \"Ethereum/Presale.sol\":9946:9973  amountOwnerRefundNativeCoin */\n      dup6\n        /* \"Ethereum/Presale.sol\":9913:9935  saleInfor.presaleOwner */\n      dup9\n        /* \"Ethereum/Presale.sol\":9905:9974  payable(saleInfor.presaleOwner).transfer(amountOwnerRefundNativeCoin) */\n      dup9\n      call\n      swap4\n      pop\n      pop\n      pop\n      pop\n      iszero\n      dup1\n      iszero\n      tag_183\n      jumpi\n      returndatasize\n      0x00\n      dup1\n      returndatacopy\n      revert(0x00, returndatasize)\n    tag_183:\n      pop\n      pop\n        /* \"Utils/ReentrancyGuard.sol\":1734:1735  1 */\n      0x01\n        /* \"Utils/ReentrancyGuard.sol\":2688:2695  _status */\n      0x00\n        /* \"Utils/ReentrancyGuard.sol\":2688:2710  _status = _NOT_ENTERED */\n      sstore\n      pop\n        /* \"Ethereum/Presale.sol\":8780:9982  function ownerClaimAndRefundToken() external onlyPresaleOwner nonReentrant{\r... */\n      jump\t// out\n        /* \"Ethereum/Presale.sol\":7761:8772  function userRefundEmergency() external nonReentrant {\r... */\n    tag_72:\n        /* \"Utils/ReentrancyGuard.sol\":1778:1779  2 */\n      0x02\n        /* \"Utils/ReentrancyGuard.sol\":2376:2383  _status */\n      sload(0x00)\n        /* \"Utils/ReentrancyGuard.sol\":2376:2395  _status != _ENTERED */\n      eq\n      iszero\n        /* \"Utils/ReentrancyGuard.sol\":2368:2431  require(_status != _ENTERED, \"ReentrancyGuard: reentrant call\") */\n      tag_185\n      jumpi\n      mload(0x40)\n      shl(0xe5, 0x461bcd)\n      dup2\n      mstore\n      0x04\n      add\n      tag_139\n      swap1\n      tag_156\n      jump\t// in\n    tag_185:\n        /* \"Utils/ReentrancyGuard.sol\":1778:1779  2 */\n      0x02\n        /* \"Utils/ReentrancyGuard.sol\":2509:2516  _status */\n      0x00\n        /* \"Utils/ReentrancyGuard.sol\":2509:2527  _status = _ENTERED */\n      swap1\n      dup2\n      sstore\n        /* \"Ethereum/Presale.sol\":7920:7951  presaleStatus.totalBaseWithDraw */\n      sload(0x07)\n        /* \"Ethereum/Presale.sol\":7920:7933  presaleStatus */\n      0x04\n        /* \"Ethereum/Presale.sol\":7885:7917  presaleStatus.totalBaseCollected */\n      sload\n        /* \"Ethereum/Presale.sol\":7885:7951  presaleStatus.totalBaseCollected - presaleStatus.totalBaseWithDraw */\n      tag_188\n      swap2\n        /* \"Ethereum/Presale.sol\":7920:7951  presaleStatus.totalBaseWithDraw */\n      swap1\n        /* \"Ethereum/Presale.sol\":7885:7951  presaleStatus.totalBaseCollected - presaleStatus.totalBaseWithDraw */\n      tag_189\n      jump\t// in\n    tag_188:\n        /* \"Ethereum/Presale.sol\":7885:7955  presaleStatus.totalBaseCollected - presaleStatus.totalBaseWithDraw > 0 */\n      gt\n        /* \"Ethereum/Presale.sol\":7877:8014  require(presaleStatus.totalBaseCollected - presaleStatus.totalBaseWithDraw > 0, \r... */\n      tag_190\n      jumpi\n      mload(0x40)\n      shl(0xe5, 0x461bcd)\n      dup2\n      mstore\n      0x04\n      add\n      tag_139\n      swap1\n      tag_192\n      jump\t// in\n    tag_190:\n        /* \"Ethereum/Presale.sol\":8062:8072  msg.sender */\n      caller\n        /* \"Ethereum/Presale.sol\":8026:8049  BuyerInfo storage buyer */\n      0x00\n        /* \"Ethereum/Presale.sol\":8052:8073  buyerInfo[msg.sender] */\n      swap1\n      dup2\n      mstore\n        /* \"Ethereum/Presale.sol\":8052:8061  buyerInfo */\n      0x02\n        /* \"Ethereum/Presale.sol\":8052:8073  buyerInfo[msg.sender] */\n      0x20\n      mstore\n      0x40\n      swap1\n      keccak256\n        /* \"Ethereum/Presale.sol\":8092:8109  buyer.baseDeposit */\n      dup1\n      sload\n        /* \"Ethereum/Presale.sol\":8084:8141  require(buyer.baseDeposit > 0, \"You have not bought yet\") */\n      tag_193\n      jumpi\n      mload(0x40)\n      shl(0xe5, 0x461bcd)\n      dup2\n      mstore\n        /* \"#utility.yul\":6056:6058   */\n      0x20\n        /* \"Ethereum/Presale.sol\":8084:8141  require(buyer.baseDeposit > 0, \"You have not bought yet\") */\n      0x04\n      dup3\n      add\n        /* \"#utility.yul\":6038:6059   */\n      mstore\n        /* \"#utility.yul\":6095:6097   */\n      0x17\n        /* \"#utility.yul\":6075:6093   */\n      0x24\n      dup3\n      add\n        /* \"#utility.yul\":6068:6098   */\n      mstore\n      shl(0x4a, 0x165bdd481a185d99481b9bdd08189bdd59da1d081e595d)\n        /* \"#utility.yul\":6114:6132   */\n      0x44\n      dup3\n      add\n        /* \"#utility.yul\":6107:6160   */\n      mstore\n        /* \"#utility.yul\":6177:6195   */\n      0x64\n      add\n        /* \"Ethereum/Presale.sol\":8084:8141  require(buyer.baseDeposit > 0, \"You have not bought yet\") */\n      tag_139\n        /* \"#utility.yul\":6028:6201   */\n      jump\n        /* \"Ethereum/Presale.sol\":8084:8141  require(buyer.baseDeposit > 0, \"You have not bought yet\") */\n    tag_193:\n        /* \"Ethereum/Presale.sol\":8180:8203  buyer.totalBaseWithDraw */\n      0x04\n      dup2\n      add\n      sload\n        /* \"Ethereum/Presale.sol\":8160:8177  buyer.baseDeposit */\n      dup2\n      sload\n        /* \"Ethereum/Presale.sol\":8160:8203  buyer.baseDeposit > buyer.totalBaseWithDraw */\n      gt\n        /* \"Ethereum/Presale.sol\":8152:8222  require(buyer.baseDeposit > buyer.totalBaseWithDraw, \"You refund all\") */\n      tag_196\n      jumpi\n      mload(0x40)\n      shl(0xe5, 0x461bcd)\n      dup2\n      mstore\n        /* \"#utility.yul\":10435:10437   */\n      0x20\n        /* \"Ethereum/Presale.sol\":8152:8222  require(buyer.baseDeposit > buyer.totalBaseWithDraw, \"You refund all\") */\n      0x04\n      dup3\n      add\n        /* \"#utility.yul\":10417:10438   */\n      mstore\n        /* \"#utility.yul\":10474:10476   */\n      0x0e\n        /* \"#utility.yul\":10454:10472   */\n      0x24\n      dup3\n      add\n        /* \"#utility.yul\":10447:10477   */\n      mstore\n      shl(0x92, 0x165bdd481c99599d5b9908185b1b)\n        /* \"#utility.yul\":10493:10511   */\n      0x44\n      dup3\n      add\n        /* \"#utility.yul\":10486:10530   */\n      mstore\n        /* \"#utility.yul\":10547:10565   */\n      0x64\n      add\n        /* \"Ethereum/Presale.sol\":8152:8222  require(buyer.baseDeposit > buyer.totalBaseWithDraw, \"You refund all\") */\n      tag_139\n        /* \"#utility.yul\":10407:10571   */\n      jump\n        /* \"Ethereum/Presale.sol\":8152:8222  require(buyer.baseDeposit > buyer.totalBaseWithDraw, \"You refund all\") */\n    tag_196:\n        /* \"Ethereum/Presale.sol\":8335:8352  buyer.baseDeposit */\n      dup1\n      sload\n        /* \"Ethereum/Presale.sol\":8276:8295  saleInfor.refundFee */\n      sload(0x17)\n        /* \"Ethereum/Presale.sol\":8233:8253  uint256 amountRefund */\n      0x00\n      swap2\n        /* \"Ethereum/Presale.sol\":8256:8406  ((uint256(1000).sub(saleInfor.refundFee))\r... */\n      tag_199\n      swap2\n        /* \"Ethereum/Presale.sol\":8400:8404  1000 */\n      0x03e8\n      swap2\n        /* \"Ethereum/Presale.sol\":8257:8353  (uint256(1000).sub(saleInfor.refundFee))\r... */\n      tag_200\n      swap2\n        /* \"Ethereum/Presale.sol\":8258:8296  uint256(1000).sub(saleInfor.refundFee) */\n      tag_201\n      swap1\n        /* \"Ethereum/Presale.sol\":8400:8404  1000 */\n      dup5\n      swap1\n        /* \"Ethereum/Presale.sol\":8258:8275  uint256(1000).sub */\n      tag_165\n        /* \"Ethereum/Presale.sol\":8258:8296  uint256(1000).sub(saleInfor.refundFee) */\n      jump\t// in\n    tag_201:\n        /* \"Ethereum/Presale.sol\":8257:8334  (uint256(1000).sub(saleInfor.refundFee))\r... */\n      swap1\n      tag_202\n        /* \"Ethereum/Presale.sol\":8257:8353  (uint256(1000).sub(saleInfor.refundFee))\r... */\n      jump\t// in\n    tag_200:\n        /* \"Ethereum/Presale.sol\":8256:8391  ((uint256(1000).sub(saleInfor.refundFee))\r... */\n      swap1\n      tag_203\n        /* \"Ethereum/Presale.sol\":8256:8406  ((uint256(1000).sub(saleInfor.refundFee))\r... */\n      jump\t// in\n    tag_199:\n        /* \"Ethereum/Presale.sol\":8429:8446  buyer.baseDeposit */\n      dup3\n      sload\n        /* \"Ethereum/Presale.sol\":8233:8406  uint256 amountRefund = ((uint256(1000).sub(saleInfor.refundFee))\r... */\n      swap1\n      swap2\n      pop\n        /* \"Ethereum/Presale.sol\":8429:8461  buyer.baseDeposit - amountRefund */\n      tag_204\n      swap1\n        /* \"Ethereum/Presale.sol\":8233:8406  uint256 amountRefund = ((uint256(1000).sub(saleInfor.refundFee))\r... */\n      dup3\n      swap1\n        /* \"Ethereum/Presale.sol\":8429:8461  buyer.baseDeposit - amountRefund */\n      tag_189\n      jump\t// in\n    tag_204:\n        /* \"Ethereum/Presale.sol\":8417:8425  totalFee */\n      0x1e\n      0x00\n        /* \"Ethereum/Presale.sol\":8417:8461  totalFee += buyer.baseDeposit - amountRefund */\n      dup3\n      dup3\n      sload\n      tag_205\n      swap2\n      swap1\n      tag_206\n      jump\t// in\n    tag_205:\n      swap1\n      swap2\n      sstore\n      pop\n      pop\n        /* \"Ethereum/Presale.sol\":8472:8503  presaleStatus.totalBaseWithDraw */\n      0x07\n        /* \"Ethereum/Presale.sol\":8472:8519  presaleStatus.totalBaseWithDraw += amountRefund */\n      dup1\n      sload\n        /* \"Ethereum/Presale.sol\":8507:8519  amountRefund */\n      dup3\n      swap2\n        /* \"Ethereum/Presale.sol\":8472:8503  presaleStatus.totalBaseWithDraw */\n      swap1\n      0x00\n      swap1\n        /* \"Ethereum/Presale.sol\":8472:8519  presaleStatus.totalBaseWithDraw += amountRefund */\n      tag_207\n      swap1\n        /* \"Ethereum/Presale.sol\":8507:8519  amountRefund */\n      dup5\n      swap1\n        /* \"Ethereum/Presale.sol\":8472:8519  presaleStatus.totalBaseWithDraw += amountRefund */\n      tag_206\n      jump\t// in\n    tag_207:\n      swap3\n      pop\n      pop\n      dup2\n      swap1\n      sstore\n      pop\n        /* \"Ethereum/Presale.sol\":8557:8569  amountRefund */\n      dup1\n        /* \"Ethereum/Presale.sol\":8530:8535  buyer */\n      dup3\n        /* \"Ethereum/Presale.sol\":8530:8553  buyer.totalBaseWithDraw */\n      0x04\n      add\n      0x00\n        /* \"Ethereum/Presale.sol\":8530:8569  buyer.totalBaseWithDraw += amountRefund */\n      dup3\n      dup3\n      sload\n      tag_208\n      swap2\n      swap1\n      tag_206\n      jump\t// in\n    tag_208:\n      swap1\n      swap2\n      sstore\n      pop\n      pop\n        /* \"Ethereum/Presale.sol\":8601:8616  block.timestamp */\n      timestamp\n        /* \"Ethereum/Presale.sol\":8580:8598  buyer.lastWithDraw */\n      0x02\n      dup4\n      add\n        /* \"Ethereum/Presale.sol\":8580:8616  buyer.lastWithDraw = block.timestamp */\n      sstore\n        /* \"Ethereum/Presale.sol\":8686:8710  buyer.totalTokenWithDraw */\n      0x03\n      dup3\n      add\n      sload\n        /* \"Ethereum/Presale.sol\":8667:8683  buyer.tokenOwner */\n      0x01\n      dup4\n      add\n      sload\n        /* \"Ethereum/Presale.sol\":8667:8710  buyer.tokenOwner - buyer.totalTokenWithDraw */\n      tag_209\n      swap2\n        /* \"Ethereum/Presale.sol\":8686:8710  buyer.totalTokenWithDraw */\n      swap1\n        /* \"Ethereum/Presale.sol\":8667:8710  buyer.tokenOwner - buyer.totalTokenWithDraw */\n      tag_189\n      jump\t// in\n    tag_209:\n        /* \"Ethereum/Presale.sol\":8627:8663  presaleStatus.totalTokenBackForAdmin */\n      0x08\n        /* \"Ethereum/Presale.sol\":8627:8710  presaleStatus.totalTokenBackForAdmin += buyer.tokenOwner - buyer.totalTokenWithDraw */\n      dup1\n      sload\n        /* \"Ethereum/Presale.sol\":8627:8663  presaleStatus.totalTokenBackForAdmin */\n      0x00\n      swap1\n        /* \"Ethereum/Presale.sol\":8627:8710  presaleStatus.totalTokenBackForAdmin += buyer.tokenOwner - buyer.totalTokenWithDraw */\n      tag_210\n      swap1\n      dup5\n      swap1\n      tag_206\n      jump\t// in\n    tag_210:\n      swap1\n      swap2\n      sstore\n      pop\n      pop\n        /* \"Ethereum/Presale.sol\":8722:8764  payable(msg.sender).transfer(amountRefund) */\n      mload(0x40)\n        /* \"Ethereum/Presale.sol\":8730:8740  msg.sender */\n      caller\n      swap1\n        /* \"Ethereum/Presale.sol\":8722:8764  payable(msg.sender).transfer(amountRefund) */\n      dup3\n      iszero\n      0x08fc\n      mul\n      swap1\n        /* \"Ethereum/Presale.sol\":8751:8763  amountRefund */\n      dup4\n      swap1\n        /* \"Ethereum/Presale.sol\":8722:8764  payable(msg.sender).transfer(amountRefund) */\n      0x00\n      dup2\n      dup2\n      dup2\n        /* \"Ethereum/Presale.sol\":8751:8763  amountRefund */\n      dup6\n        /* \"Ethereum/Presale.sol\":8730:8740  msg.sender */\n      dup9\n        /* \"Ethereum/Presale.sol\":8722:8764  payable(msg.sender).transfer(amountRefund) */\n      dup9\n      call\n      swap4\n      pop\n      pop\n      pop\n      pop\n      iszero\n      dup1\n      iszero\n      tag_183\n      jumpi\n      returndatasize\n      0x00\n      dup1\n      returndatacopy\n      revert(0x00, returndatasize)\n        /* \"Ethereum/Presale.sol\":2640:4056  function initialSaleInfor(\r... */\n    tag_77:\n        /* \"Ethereum/Presale.sol\":2926:2935  saleInfor */\n      0x0f\n        /* \"Ethereum/Presale.sol\":2926:2964  saleInfor.presaleOwner = _presaleOwner */\n      dup1\n      sload\n      sub(shl(0xa0, 0x01), 0x01)\n      dup1\n      dup11\n      and\n      not(sub(shl(0xa0, 0x01), 0x01))\n      swap3\n      dup4\n      and\n      or\n      swap1\n      swap3\n      sstore\n        /* \"Ethereum/Presale.sol\":2975:2994  saleInfor.saleToken */\n      0x10\n        /* \"Ethereum/Presale.sol\":2975:3007  saleInfor.saleToken = _saleToken */\n      dup1\n      sload\n      dup10\n      dup5\n      and\n      swap1\n      dup4\n      and\n      dup2\n      or\n      swap1\n      swap2\n      sstore\n        /* \"Ethereum/Presale.sol\":3018:3037  saleInfor.baseToken */\n      0x11\n        /* \"Ethereum/Presale.sol\":3018:3050  saleInfor.baseToken = _baseTOken */\n      dup1\n      sload\n      swap4\n      dup10\n      and\n      swap4\n      swap1\n      swap3\n      and\n      swap3\n      swap1\n      swap3\n      or\n      swap1\n      sstore\n        /* \"Ethereum/Presale.sol\":3108:3145  ERC20(saleInfor.saleToken).decimals() */\n      0x40\n      dup1\n      mload\n      shl(0xe0, 0x313ce567)\n      dup2\n      mstore\n      swap1\n      mload\n        /* \"Ethereum/Presale.sol\":3108:3143  ERC20(saleInfor.saleToken).decimals */\n      0x313ce567\n      swap2\n        /* \"Ethereum/Presale.sol\":3108:3145  ERC20(saleInfor.saleToken).decimals() */\n      0x04\n      dup1\n      dup3\n      add\n      swap3\n      0x20\n      swap3\n      swap1\n      swap2\n      swap1\n      dup3\n      swap1\n      sub\n      add\n      dup2\n        /* \"Ethereum/Presale.sol\":2975:3007  saleInfor.saleToken = _saleToken */\n      dup7\n        /* \"Ethereum/Presale.sol\":3108:3145  ERC20(saleInfor.saleToken).decimals() */\n      dup1\n      extcodesize\n      iszero\n      dup1\n      iszero\n      tag_214\n      jumpi\n      0x00\n      dup1\n      revert\n    tag_214:\n      pop\n      gas\n      staticcall\n      iszero\n      dup1\n      iszero\n      tag_216\n      jumpi\n      returndatasize\n      0x00\n      dup1\n      returndatacopy\n      revert(0x00, returndatasize)\n    tag_216:\n      pop\n      pop\n      pop\n      pop\n      mload(0x40)\n      returndatasize\n      not(0x1f)\n      0x1f\n      dup3\n      add\n      and\n      dup3\n      add\n      dup1\n      0x40\n      mstore\n      pop\n      dup2\n      add\n      swap1\n      tag_217\n      swap2\n      swap1\n      tag_163\n      jump\t// in\n    tag_217:\n        /* \"Ethereum/Presale.sol\":3095:3146  10** uint256(ERC20(saleInfor.saleToken).decimals()) */\n      tag_218\n      swap1\n        /* \"Ethereum/Presale.sol\":3095:3097  10 */\n      0x0a\n        /* \"Ethereum/Presale.sol\":3095:3146  10** uint256(ERC20(saleInfor.saleToken).decimals()) */\n      tag_219\n      jump\t// in\n    tag_218:\n        /* \"Ethereum/Presale.sol\":3084:3092  datas[0] */\n      dup5\n      mload\n        /* \"Ethereum/Presale.sol\":3084:3146  datas[0] * 10** uint256(ERC20(saleInfor.saleToken).decimals()) */\n      tag_223\n      swap2\n      swap1\n      tag_224\n      jump\t// in\n    tag_223:\n        /* \"Ethereum/Presale.sol\":3061:3081  saleInfor.tokenPrice */\n      0x12\n        /* \"Ethereum/Presale.sol\":3061:3146  saleInfor.tokenPrice = datas[0] * 10** uint256(ERC20(saleInfor.saleToken).decimals()) */\n      sstore\n        /* \"Ethereum/Presale.sol\":3179:3187  datas[1] */\n      0x20\n      dup1\n      dup6\n      add\n      mload\n        /* \"Ethereum/Presale.sol\":3157:3176  saleInfor.startSale */\n      0x13\n        /* \"Ethereum/Presale.sol\":3157:3187  saleInfor.startSale = datas[1] */\n      sstore\n        /* \"Ethereum/Presale.sol\":3218:3226  datas[2] */\n      0x40\n      dup1\n      dup7\n      add\n      mload\n        /* \"Ethereum/Presale.sol\":3198:3215  saleInfor.endSale */\n      0x14\n        /* \"Ethereum/Presale.sol\":3198:3226  saleInfor.endSale = datas[2] */\n      sstore\n        /* \"Ethereum/Presale.sol\":3266:3274  datas[3] */\n      0x60\n      dup7\n      add\n      mload\n        /* \"Ethereum/Presale.sol\":3237:3263  saleInfor.minSpendPerBuyer */\n      0x15\n        /* \"Ethereum/Presale.sol\":3237:3274  saleInfor.minSpendPerBuyer = datas[3] */\n      sstore\n        /* \"Ethereum/Presale.sol\":3345:3364  saleInfor.baseToken */\n      sload(0x11)\n        /* \"Ethereum/Presale.sol\":3339:3376  ERC20(saleInfor.baseToken).decimals() */\n      dup2\n      mload\n      shl(0xe0, 0x313ce567)\n      dup2\n      mstore\n      swap2\n      mload\n      sub(shl(0xa0, 0x01), 0x01)\n        /* \"Ethereum/Presale.sol\":3345:3364  saleInfor.baseToken */\n      swap1\n      swap2\n      and\n      swap3\n        /* \"Ethereum/Presale.sol\":3339:3374  ERC20(saleInfor.baseToken).decimals */\n      0x313ce567\n      swap3\n        /* \"Ethereum/Presale.sol\":3339:3376  ERC20(saleInfor.baseToken).decimals() */\n      0x04\n      dup1\n      dup3\n      add\n      swap4\n      swap2\n      dup3\n      swap1\n      sub\n      add\n      dup2\n        /* \"Ethereum/Presale.sol\":3345:3364  saleInfor.baseToken */\n      dup7\n        /* \"Ethereum/Presale.sol\":3339:3376  ERC20(saleInfor.baseToken).decimals() */\n      dup1\n      extcodesize\n      iszero\n      dup1\n      iszero\n      tag_231\n      jumpi\n      0x00\n      dup1\n      revert\n    tag_231:\n      pop\n      gas\n      staticcall\n      iszero\n      dup1\n      iszero\n      tag_233\n      jumpi\n      returndatasize\n      0x00\n      dup1\n      returndatacopy\n      revert(0x00, returndatasize)\n    tag_233:\n      pop\n      pop\n      pop\n      pop\n      mload(0x40)\n      returndatasize\n      not(0x1f)\n      0x1f\n      dup3\n      add\n      and\n      dup3\n      add\n      dup1\n      0x40\n      mstore\n      pop\n      dup2\n      add\n      swap1\n      tag_234\n      swap2\n      swap1\n      tag_163\n      jump\t// in\n    tag_234:\n        /* \"Ethereum/Presale.sol\":3325:3377  10 ** uint256(ERC20(saleInfor.baseToken).decimals()) */\n      tag_235\n      swap1\n        /* \"Ethereum/Presale.sol\":3325:3327  10 */\n      0x0a\n        /* \"Ethereum/Presale.sol\":3325:3377  10 ** uint256(ERC20(saleInfor.baseToken).decimals()) */\n      tag_219\n      jump\t// in\n    tag_235:\n        /* \"Ethereum/Presale.sol\":3314:3322  datas[4] */\n      0x80\n      dup6\n      add\n      mload\n        /* \"Ethereum/Presale.sol\":3314:3377  datas[4] * 10 ** uint256(ERC20(saleInfor.baseToken).decimals()) */\n      tag_238\n      swap2\n      swap1\n      tag_224\n      jump\t// in\n    tag_238:\n        /* \"Ethereum/Presale.sol\":3285:3311  saleInfor.maxSpendPerBuyer */\n      0x16\n        /* \"Ethereum/Presale.sol\":3285:3377  saleInfor.maxSpendPerBuyer = datas[4] * 10 ** uint256(ERC20(saleInfor.baseToken).decimals()) */\n      sstore\n        /* \"Ethereum/Presale.sol\":3410:3418  datas[5] */\n      0xa0\n      dup5\n      add\n      mload\n        /* \"Ethereum/Presale.sol\":3388:3407  saleInfor.refundFee */\n      0x17\n        /* \"Ethereum/Presale.sol\":3388:3418  saleInfor.refundFee = datas[5] */\n      sstore\n        /* \"Ethereum/Presale.sol\":3450:3458  datas[6] */\n      0xc0\n      dup5\n      add\n      mload\n        /* \"Ethereum/Presale.sol\":3429:3447  saleInfor.claimFee */\n      0x18\n        /* \"Ethereum/Presale.sol\":3429:3458  saleInfor.claimFee = datas[6] */\n      sstore\n        /* \"Ethereum/Presale.sol\":3526:3545  saleInfor.baseToken */\n      sload(0x11)\n        /* \"Ethereum/Presale.sol\":3520:3557  ERC20(saleInfor.baseToken).decimals() */\n      0x40\n      dup1\n      mload\n      shl(0xe0, 0x313ce567)\n      dup2\n      mstore\n      swap1\n      mload\n      sub(shl(0xa0, 0x01), 0x01)\n        /* \"Ethereum/Presale.sol\":3526:3545  saleInfor.baseToken */\n      swap1\n      swap3\n      and\n      swap2\n        /* \"Ethereum/Presale.sol\":3520:3555  ERC20(saleInfor.baseToken).decimals */\n      0x313ce567\n      swap2\n        /* \"Ethereum/Presale.sol\":3520:3557  ERC20(saleInfor.baseToken).decimals() */\n      0x04\n      dup1\n      dup3\n      add\n      swap3\n        /* \"Ethereum/Presale.sol\":3410:3418  datas[5] */\n      0x20\n      swap3\n        /* \"Ethereum/Presale.sol\":3520:3557  ERC20(saleInfor.baseToken).decimals() */\n      swap1\n      swap2\n      swap1\n      dup3\n      swap1\n      sub\n      add\n      dup2\n        /* \"Ethereum/Presale.sol\":3526:3545  saleInfor.baseToken */\n      dup7\n        /* \"Ethereum/Presale.sol\":3520:3557  ERC20(saleInfor.baseToken).decimals() */\n      dup1\n      extcodesize\n      iszero\n      dup1\n      iszero\n      tag_243\n      jumpi\n      0x00\n      dup1\n      revert\n    tag_243:\n      pop\n      gas\n      staticcall\n      iszero\n      dup1\n      iszero\n      tag_245\n      jumpi\n      returndatasize\n      0x00\n      dup1\n      returndatacopy\n      revert(0x00, returndatasize)\n    tag_245:\n      pop\n      pop\n      pop\n      pop\n      mload(0x40)\n      returndatasize\n      not(0x1f)\n      0x1f\n      dup3\n      add\n      and\n      dup3\n      add\n      dup1\n      0x40\n      mstore\n      pop\n      dup2\n      add\n      swap1\n      tag_246\n      swap2\n      swap1\n      tag_163\n      jump\t// in\n    tag_246:\n        /* \"Ethereum/Presale.sol\":3506:3558  10 ** uint256(ERC20(saleInfor.baseToken).decimals()) */\n      tag_247\n      swap1\n        /* \"Ethereum/Presale.sol\":3506:3508  10 */\n      0x0a\n        /* \"Ethereum/Presale.sol\":3506:3558  10 ** uint256(ERC20(saleInfor.baseToken).decimals()) */\n      tag_219\n      jump\t// in\n    tag_247:\n        /* \"Ethereum/Presale.sol\":3495:3503  datas[7] */\n      0xe0\n      dup6\n      add\n      mload\n        /* \"Ethereum/Presale.sol\":3495:3558  datas[7] * 10 ** uint256(ERC20(saleInfor.baseToken).decimals()) */\n      tag_250\n      swap2\n      swap1\n      tag_224\n      jump\t// in\n    tag_250:\n        /* \"Ethereum/Presale.sol\":3469:3484  saleTotalSupply */\n      0x0d\n        /* \"Ethereum/Presale.sol\":3469:3558  saleTotalSupply.hardCap = datas[7] * 10 ** uint256(ERC20(saleInfor.baseToken).decimals()) */\n      sstore\n        /* \"Ethereum/Presale.sol\":3625:3644  saleInfor.baseToken */\n      sload(0x11)\n        /* \"Ethereum/Presale.sol\":3619:3656  ERC20(saleInfor.baseToken).decimals() */\n      0x40\n      dup1\n      mload\n      shl(0xe0, 0x313ce567)\n      dup2\n      mstore\n      swap1\n      mload\n      sub(shl(0xa0, 0x01), 0x01)\n        /* \"Ethereum/Presale.sol\":3625:3644  saleInfor.baseToken */\n      swap1\n      swap3\n      and\n      swap2\n        /* \"Ethereum/Presale.sol\":3619:3654  ERC20(saleInfor.baseToken).decimals */\n      0x313ce567\n      swap2\n        /* \"Ethereum/Presale.sol\":3619:3656  ERC20(saleInfor.baseToken).decimals() */\n      0x04\n      dup1\n      dup3\n      add\n      swap3\n      0x20\n      swap3\n      swap1\n      swap2\n      swap1\n      dup3\n      swap1\n      sub\n      add\n      dup2\n        /* \"Ethereum/Presale.sol\":3625:3644  saleInfor.baseToken */\n      dup7\n        /* \"Ethereum/Presale.sol\":3619:3656  ERC20(saleInfor.baseToken).decimals() */\n      dup1\n      extcodesize\n      iszero\n      dup1\n      iszero\n      tag_251\n      jumpi\n      0x00\n      dup1\n      revert\n    tag_251:\n      pop\n      gas\n      staticcall\n      iszero\n      dup1\n      iszero\n      tag_253\n      jumpi\n      returndatasize\n      0x00\n      dup1\n      returndatacopy\n      revert(0x00, returndatasize)\n    tag_253:\n      pop\n      pop\n      pop\n      pop\n      mload(0x40)\n      returndatasize\n      not(0x1f)\n      0x1f\n      dup3\n      add\n      and\n      dup3\n      add\n      dup1\n      0x40\n      mstore\n      pop\n      dup2\n      add\n      swap1\n      tag_254\n      swap2\n      swap1\n      tag_163\n      jump\t// in\n    tag_254:\n        /* \"Ethereum/Presale.sol\":3606:3657  10** uint256(ERC20(saleInfor.baseToken).decimals()) */\n      tag_255\n      swap1\n        /* \"Ethereum/Presale.sol\":3606:3608  10 */\n      0x0a\n        /* \"Ethereum/Presale.sol\":3606:3657  10** uint256(ERC20(saleInfor.baseToken).decimals()) */\n      tag_219\n      jump\t// in\n    tag_255:\n        /* \"Ethereum/Presale.sol\":3595:3603  datas[8] */\n      0x0100\n      dup6\n      add\n      mload\n        /* \"Ethereum/Presale.sol\":3595:3657  datas[8] * 10** uint256(ERC20(saleInfor.baseToken).decimals()) */\n      tag_258\n      swap2\n      swap1\n      tag_224\n      jump\t// in\n    tag_258:\n        /* \"Ethereum/Presale.sol\":3569:3592  saleTotalSupply.softCap */\n      0x0e\n        /* \"Ethereum/Presale.sol\":3569:3657  saleTotalSupply.softCap = datas[8] * 10** uint256(ERC20(saleInfor.baseToken).decimals()) */\n      sstore\n        /* \"Ethereum/Presale.sol\":3721:3740  saleInfor.baseToken */\n      sload(0x11)\n        /* \"Ethereum/Presale.sol\":3704:3708  WETH */\n      sload(0x1b)\n        /* \"Ethereum/Presale.sol\":3668:3693  saleInfor.saleIsBaseToken */\n      0x19\n        /* \"Ethereum/Presale.sol\":3668:3741  saleInfor.saleIsBaseToken = address(WETH) == address(saleInfor.baseToken) */\n      dup1\n      sload\n      not(0xff)\n      and\n      sub(shl(0xa0, 0x01), 0x01)\n        /* \"Ethereum/Presale.sol\":3704:3708  WETH */\n      swap3\n      dup4\n      and\n        /* \"Ethereum/Presale.sol\":3721:3740  saleInfor.baseToken */\n      swap3\n      swap1\n      swap4\n      and\n        /* \"Ethereum/Presale.sol\":3696:3741  address(WETH) == address(saleInfor.baseToken) */\n      swap2\n      dup3\n      eq\n        /* \"Ethereum/Presale.sol\":3668:3741  saleInfor.saleIsBaseToken = address(WETH) == address(saleInfor.baseToken) */\n      swap3\n      swap1\n      swap3\n      or\n      swap1\n      swap2\n      sstore\n        /* \"Ethereum/Presale.sol\":3888:3925  ERC20(saleInfor.baseToken).decimals() */\n      0x40\n      dup1\n      mload\n      shl(0xe0, 0x313ce567)\n      dup2\n      mstore\n      swap1\n      mload\n        /* \"Ethereum/Presale.sol\":3888:3923  ERC20(saleInfor.baseToken).decimals */\n      0x313ce567\n      swap2\n        /* \"Ethereum/Presale.sol\":3888:3925  ERC20(saleInfor.baseToken).decimals() */\n      0x04\n      dup1\n      dup3\n      add\n      swap3\n      0x20\n      swap3\n      swap1\n      swap2\n      swap1\n      dup3\n      swap1\n      sub\n      add\n      dup2\n        /* \"Ethereum/Presale.sol\":3721:3740  saleInfor.baseToken */\n      dup7\n        /* \"Ethereum/Presale.sol\":3888:3925  ERC20(saleInfor.baseToken).decimals() */\n      dup1\n      extcodesize\n      iszero\n      dup1\n      iszero\n      tag_259\n      jumpi\n      0x00\n      dup1\n      revert\n    tag_259:\n      pop\n      gas\n      staticcall\n      iszero\n      dup1\n      iszero\n      tag_261\n      jumpi\n      returndatasize\n      0x00\n      dup1\n      returndatacopy\n      revert(0x00, returndatasize)\n    tag_261:\n      pop\n      pop\n      pop\n      pop\n      mload(0x40)\n      returndatasize\n      not(0x1f)\n      0x1f\n      dup3\n      add\n      and\n      dup3\n      add\n      dup1\n      0x40\n      mstore\n      pop\n      dup2\n      add\n      swap1\n      tag_262\n      swap2\n      swap1\n      tag_163\n      jump\t// in\n    tag_262:\n        /* \"Ethereum/Presale.sol\":3875:3926  10** uint256(ERC20(saleInfor.baseToken).decimals()) */\n      tag_263\n      swap1\n        /* \"Ethereum/Presale.sol\":3875:3877  10 */\n      0x0a\n        /* \"Ethereum/Presale.sol\":3875:3926  10** uint256(ERC20(saleInfor.baseToken).decimals()) */\n      tag_219\n      jump\t// in\n    tag_263:\n        /* \"Ethereum/Presale.sol\":3808:3823  saleTotalSupply */\n      0x0d\n        /* \"Ethereum/Presale.sol\":3808:3831  saleTotalSupply.hardCap */\n      sload\n        /* \"Ethereum/Presale.sol\":3783:3803  saleInfor.tokenPrice */\n      sload(0x12)\n        /* \"Ethereum/Presale.sol\":3783:3832  saleInfor.tokenPrice.mul(saleTotalSupply.hardCap) */\n      tag_264\n      swap2\n        /* \"Ethereum/Presale.sol\":3783:3807  saleInfor.tokenPrice.mul */\n      tag_202\n        /* \"Ethereum/Presale.sol\":3783:3832  saleInfor.tokenPrice.mul(saleTotalSupply.hardCap) */\n      jump\t// in\n    tag_264:\n        /* \"Ethereum/Presale.sol\":3783:3927  saleInfor.tokenPrice.mul(saleTotalSupply.hardCap)/\r... */\n      tag_265\n      swap2\n      swap1\n      tag_266\n      jump\t// in\n    tag_265:\n        /* \"Ethereum/Presale.sol\":3752:3780  saleInfor.amountTokenForSale */\n      0x1a\n        /* \"Ethereum/Presale.sol\":3752:3927  saleInfor.amountTokenForSale = saleInfor.tokenPrice.mul(saleTotalSupply.hardCap)/\r... */\n      sstore\n        /* \"Ethereum/Presale.sol\":3938:3947  feeAnyone */\n      0x1f\n        /* \"Ethereum/Presale.sol\":3938:3960  feeAnyone = _feeAnyone */\n      swap3\n      swap1\n      swap3\n      sstore\n        /* \"Ethereum/Presale.sol\":3971:3986  adminReceiveFee */\n      0x20\n        /* \"Ethereum/Presale.sol\":3971:4005  adminReceiveFee = _adminReceiveFee */\n      dup1\n      sload\n      not(sub(shl(0xa0, 0x01), 0x01))\n      and\n      sub(shl(0xa0, 0x01), 0x01)\n      swap3\n      swap1\n      swap3\n      and\n      swap2\n      swap1\n      swap2\n      or\n      swap1\n      sstore\n        /* \"Ethereum/Presale.sol\":4016:4029  feeCreateSale */\n      0x21\n        /* \"Ethereum/Presale.sol\":4016:4046  feeCreateSale = _feeCreateSale */\n      sstore\n      pop\n      pop\n      pop\n      pop\n        /* \"Ethereum/Presale.sol\":2640:4056  function initialSaleInfor(\r... */\n      jump\t// out\n        /* \"Ethereum/Presale.sol\":6749:7753  function userClaimEmergency() external nonReentrant {\r... */\n    tag_80:\n        /* \"Utils/ReentrancyGuard.sol\":1778:1779  2 */\n      0x02\n        /* \"Utils/ReentrancyGuard.sol\":2376:2383  _status */\n      sload(0x00)\n        /* \"Utils/ReentrancyGuard.sol\":2376:2395  _status != _ENTERED */\n      eq\n      iszero\n        /* \"Utils/ReentrancyGuard.sol\":2368:2431  require(_status != _ENTERED, \"ReentrancyGuard: reentrant call\") */\n      tag_268\n      jumpi\n      mload(0x40)\n      shl(0xe5, 0x461bcd)\n      dup2\n      mstore\n      0x04\n      add\n      tag_139\n      swap1\n      tag_156\n      jump\t// in\n    tag_268:\n        /* \"Utils/ReentrancyGuard.sol\":1778:1779  2 */\n      0x02\n        /* \"Utils/ReentrancyGuard.sol\":2509:2516  _status */\n      0x00\n        /* \"Utils/ReentrancyGuard.sol\":2509:2527  _status = _ENTERED */\n      swap1\n      dup2\n      sstore\n        /* \"Ethereum/Presale.sol\":6904:6936  presaleStatus.totalTokenWithDraw */\n      sload(0x06)\n        /* \"Ethereum/Presale.sol\":6873:6901  presaleStatus.totalTokenSold */\n      sload(0x05)\n        /* \"Ethereum/Presale.sol\":6873:6936  presaleStatus.totalTokenSold - presaleStatus.totalTokenWithDraw */\n      tag_271\n      swap2\n        /* \"Ethereum/Presale.sol\":6904:6936  presaleStatus.totalTokenWithDraw */\n      swap1\n        /* \"Ethereum/Presale.sol\":6873:6936  presaleStatus.totalTokenSold - presaleStatus.totalTokenWithDraw */\n      tag_189\n      jump\t// in\n    tag_271:\n        /* \"Ethereum/Presale.sol\":6873:6940  presaleStatus.totalTokenSold - presaleStatus.totalTokenWithDraw > 0 */\n      gt\n        /* \"Ethereum/Presale.sol\":6865:6999  require(presaleStatus.totalTokenSold - presaleStatus.totalTokenWithDraw > 0, \r... */\n      tag_272\n      jumpi\n      mload(0x40)\n      shl(0xe5, 0x461bcd)\n      dup2\n      mstore\n      0x04\n      add\n      tag_139\n      swap1\n      tag_192\n      jump\t// in\n    tag_272:\n        /* \"Ethereum/Presale.sol\":7046:7056  msg.sender */\n      caller\n        /* \"Ethereum/Presale.sol\":7010:7033  BuyerInfo storage buyer */\n      0x00\n        /* \"Ethereum/Presale.sol\":7036:7057  buyerInfo[msg.sender] */\n      swap1\n      dup2\n      mstore\n        /* \"Ethereum/Presale.sol\":7036:7045  buyerInfo */\n      0x02\n        /* \"Ethereum/Presale.sol\":7036:7057  buyerInfo[msg.sender] */\n      0x20\n      mstore\n      0x40\n      swap1\n      keccak256\n        /* \"Ethereum/Presale.sol\":7076:7092  buyer.tokenOwner */\n      0x01\n      dup2\n      add\n      sload\n        /* \"Ethereum/Presale.sol\":7068:7124  require(buyer.tokenOwner > 0, \"You have not bought yet\") */\n      tag_274\n      jumpi\n      mload(0x40)\n      shl(0xe5, 0x461bcd)\n      dup2\n      mstore\n        /* \"#utility.yul\":6056:6058   */\n      0x20\n        /* \"Ethereum/Presale.sol\":7068:7124  require(buyer.tokenOwner > 0, \"You have not bought yet\") */\n      0x04\n      dup3\n      add\n        /* \"#utility.yul\":6038:6059   */\n      mstore\n        /* \"#utility.yul\":6095:6097   */\n      0x17\n        /* \"#utility.yul\":6075:6093   */\n      0x24\n      dup3\n      add\n        /* \"#utility.yul\":6068:6098   */\n      mstore\n      shl(0x4a, 0x165bdd481a185d99481b9bdd08189bdd59da1d081e595d)\n        /* \"#utility.yul\":6114:6132   */\n      0x44\n      dup3\n      add\n        /* \"#utility.yul\":6107:6160   */\n      mstore\n        /* \"#utility.yul\":6177:6195   */\n      0x64\n      add\n        /* \"Ethereum/Presale.sol\":7068:7124  require(buyer.tokenOwner > 0, \"You have not bought yet\") */\n      tag_139\n        /* \"#utility.yul\":6028:6201   */\n      jump\n        /* \"Ethereum/Presale.sol\":7068:7124  require(buyer.tokenOwner > 0, \"You have not bought yet\") */\n    tag_274:\n        /* \"Ethereum/Presale.sol\":7162:7167  buyer */\n      dup1\n        /* \"Ethereum/Presale.sol\":7162:7186  buyer.totalTokenWithDraw */\n      0x03\n      add\n      sload\n        /* \"Ethereum/Presale.sol\":7143:7148  buyer */\n      dup2\n        /* \"Ethereum/Presale.sol\":7143:7159  buyer.tokenOwner */\n      0x01\n      add\n      sload\n        /* \"Ethereum/Presale.sol\":7143:7186  buyer.tokenOwner > buyer.totalTokenWithDraw */\n      gt\n        /* \"Ethereum/Presale.sol\":7135:7205  require(buyer.tokenOwner > buyer.totalTokenWithDraw, \"You claim alll\") */\n      tag_276\n      jumpi\n      mload(0x40)\n      shl(0xe5, 0x461bcd)\n      dup2\n      mstore\n        /* \"#utility.yul\":7885:7887   */\n      0x20\n        /* \"Ethereum/Presale.sol\":7135:7205  require(buyer.tokenOwner > buyer.totalTokenWithDraw, \"You claim alll\") */\n      0x04\n      dup3\n      add\n        /* \"#utility.yul\":7867:7888   */\n      mstore\n        /* \"#utility.yul\":7924:7926   */\n      0x0e\n        /* \"#utility.yul\":7904:7922   */\n      0x24\n      dup3\n      add\n        /* \"#utility.yul\":7897:7927   */\n      mstore\n      shl(0x92, 0x165bdd4818db185a5b48185b1b1b)\n        /* \"#utility.yul\":7943:7961   */\n      0x44\n      dup3\n      add\n        /* \"#utility.yul\":7936:7980   */\n      mstore\n        /* \"#utility.yul\":7997:8015   */\n      0x64\n      add\n        /* \"Ethereum/Presale.sol\":7135:7205  require(buyer.tokenOwner > buyer.totalTokenWithDraw, \"You claim alll\") */\n      tag_139\n        /* \"#utility.yul\":7857:8021   */\n      jump\n        /* \"Ethereum/Presale.sol\":7135:7205  require(buyer.tokenOwner > buyer.totalTokenWithDraw, \"You claim alll\") */\n    tag_276:\n        /* \"Ethereum/Presale.sol\":7216:7235  uint256 amountClaim */\n      0x00\n        /* \"Ethereum/Presale.sol\":7238:7374  ((uint256(1000).sub(saleInfor.claimFee))\r... */\n      tag_279\n        /* \"Ethereum/Presale.sol\":7368:7372  1000 */\n      0x03e8\n        /* \"Ethereum/Presale.sol\":7239:7327  (uint256(1000).sub(saleInfor.claimFee))\r... */\n      tag_200\n        /* \"Ethereum/Presale.sol\":7310:7315  buyer */\n      dup5\n        /* \"Ethereum/Presale.sol\":7310:7326  buyer.tokenOwner */\n      0x01\n      add\n      sload\n        /* \"Ethereum/Presale.sol\":7240:7277  uint256(1000).sub(saleInfor.claimFee) */\n      tag_201\n        /* \"Ethereum/Presale.sol\":7258:7267  saleInfor */\n      0x0f\n        /* \"Ethereum/Presale.sol\":7258:7276  saleInfor.claimFee */\n      0x09\n      add\n      sload\n        /* \"Ethereum/Presale.sol\":7248:7252  1000 */\n      0x03e8\n        /* \"Ethereum/Presale.sol\":7240:7257  uint256(1000).sub */\n      tag_165\n      swap1\n        /* \"Ethereum/Presale.sol\":7240:7277  uint256(1000).sub(saleInfor.claimFee) */\n      swap2\n      swap1\n      0xffffffff\n      and\n      jump\t// in\n        /* \"Ethereum/Presale.sol\":7238:7374  ((uint256(1000).sub(saleInfor.claimFee))\r... */\n    tag_279:\n        /* \"Ethereum/Presale.sol\":7216:7374  uint256 amountClaim = ((uint256(1000).sub(saleInfor.claimFee))\r... */\n      swap1\n      pop\n        /* \"Ethereum/Presale.sol\":7421:7432  amountClaim */\n      dup1\n        /* \"Ethereum/Presale.sol\":7385:7398  presaleStatus */\n      0x04\n        /* \"Ethereum/Presale.sol\":7385:7417  presaleStatus.totalTokenWithDraw */\n      0x02\n      add\n      0x00\n        /* \"Ethereum/Presale.sol\":7385:7432  presaleStatus.totalTokenWithDraw += amountClaim */\n      dup3\n      dup3\n      sload\n      tag_282\n      swap2\n      swap1\n      tag_206\n      jump\t// in\n    tag_282:\n      swap1\n      swap2\n      sstore\n      pop\n      pop\n        /* \"Ethereum/Presale.sol\":7443:7471  saleInfor.amountTokenForSale */\n      0x1a\n        /* \"Ethereum/Presale.sol\":7443:7486  saleInfor.amountTokenForSale -= amountClaim */\n      dup1\n      sload\n        /* \"Ethereum/Presale.sol\":7475:7486  amountClaim */\n      dup3\n      swap2\n        /* \"Ethereum/Presale.sol\":7443:7471  saleInfor.amountTokenForSale */\n      swap1\n      0x00\n      swap1\n        /* \"Ethereum/Presale.sol\":7443:7486  saleInfor.amountTokenForSale -= amountClaim */\n      tag_283\n      swap1\n        /* \"Ethereum/Presale.sol\":7475:7486  amountClaim */\n      dup5\n      swap1\n        /* \"Ethereum/Presale.sol\":7443:7486  saleInfor.amountTokenForSale -= amountClaim */\n      tag_189\n      jump\t// in\n    tag_283:\n      swap3\n      pop\n      pop\n      dup2\n      swap1\n      sstore\n      pop\n        /* \"Ethereum/Presale.sol\":7525:7536  amountClaim */\n      dup1\n        /* \"Ethereum/Presale.sol\":7497:7502  buyer */\n      dup3\n        /* \"Ethereum/Presale.sol\":7497:7521  buyer.totalTokenWithDraw */\n      0x03\n      add\n      0x00\n        /* \"Ethereum/Presale.sol\":7497:7536  buyer.totalTokenWithDraw += amountClaim */\n      dup3\n      dup3\n      sload\n      tag_284\n      swap2\n      swap1\n      tag_206\n      jump\t// in\n    tag_284:\n      swap1\n      swap2\n      sstore\n      pop\n      pop\n        /* \"Ethereum/Presale.sol\":7568:7583  block.timestamp */\n      timestamp\n        /* \"Ethereum/Presale.sol\":7547:7565  buyer.lastWithDraw */\n      0x02\n      dup4\n      add\n        /* \"Ethereum/Presale.sol\":7547:7583  buyer.lastWithDraw = block.timestamp */\n      sstore\n        /* \"Ethereum/Presale.sol\":7651:7674  buyer.totalBaseWithDraw */\n      0x04\n      dup3\n      add\n      sload\n        /* \"Ethereum/Presale.sol\":7633:7650  buyer.baseDeposit */\n      dup3\n      sload\n        /* \"Ethereum/Presale.sol\":7633:7674  buyer.baseDeposit-buyer.totalBaseWithDraw */\n      tag_285\n      swap2\n        /* \"Ethereum/Presale.sol\":7651:7674  buyer.totalBaseWithDraw */\n      swap1\n        /* \"Ethereum/Presale.sol\":7633:7674  buyer.baseDeposit-buyer.totalBaseWithDraw */\n      tag_189\n      jump\t// in\n    tag_285:\n        /* \"Ethereum/Presale.sol\":7594:7629  presaleStatus.totalBaseBackForAdmin */\n      0x09\n        /* \"Ethereum/Presale.sol\":7594:7674  presaleStatus.totalBaseBackForAdmin += buyer.baseDeposit-buyer.totalBaseWithDraw */\n      dup1\n      sload\n        /* \"Ethereum/Presale.sol\":7594:7629  presaleStatus.totalBaseBackForAdmin */\n      0x00\n      swap1\n        /* \"Ethereum/Presale.sol\":7594:7674  presaleStatus.totalBaseBackForAdmin += buyer.baseDeposit-buyer.totalBaseWithDraw */\n      tag_286\n      swap1\n      dup5\n      swap1\n      tag_206\n      jump\t// in\n    tag_286:\n      swap1\n      swap2\n      sstore\n      pop\n      pop\n        /* \"Ethereum/Presale.sol\":7691:7710  saleInfor.saleToken */\n      sload(0x10)\n        /* \"Ethereum/Presale.sol\":7685:7745  ERC20(saleInfor.saleToken).transfer(msg.sender, amountClaim) */\n      mload(0x40)\n      shl(0xe0, 0xa9059cbb)\n      dup2\n      mstore\n        /* \"Ethereum/Presale.sol\":7721:7731  msg.sender */\n      caller\n        /* \"Ethereum/Presale.sol\":7685:7745  ERC20(saleInfor.saleToken).transfer(msg.sender, amountClaim) */\n      0x04\n      dup3\n      add\n        /* \"#utility.yul\":4676:4727   */\n      mstore\n        /* \"#utility.yul\":4743:4761   */\n      0x24\n      dup2\n      add\n        /* \"#utility.yul\":4736:4770   */\n      dup4\n      swap1\n      mstore\n      sub(shl(0xa0, 0x01), 0x01)\n        /* \"Ethereum/Presale.sol\":7691:7710  saleInfor.saleToken */\n      swap1\n      swap2\n      and\n      swap1\n        /* \"Ethereum/Presale.sol\":7685:7720  ERC20(saleInfor.saleToken).transfer */\n      0xa9059cbb\n      swap1\n        /* \"#utility.yul\":4649:4667   */\n      0x44\n      add\n        /* \"Ethereum/Presale.sol\":7685:7745  ERC20(saleInfor.saleToken).transfer(msg.sender, amountClaim) */\n      0x20\n      mload(0x40)\n      dup1\n      dup4\n      sub\n      dup2\n      0x00\n      dup8\n      dup1\n      extcodesize\n      iszero\n      dup1\n      iszero\n      tag_289\n      jumpi\n      0x00\n      dup1\n      revert\n    tag_289:\n      pop\n      gas\n      call\n      iszero\n      dup1\n      iszero\n      tag_291\n      jumpi\n      returndatasize\n      0x00\n      dup1\n      returndatacopy\n      revert(0x00, returndatasize)\n    tag_291:\n      pop\n      pop\n      pop\n      pop\n      mload(0x40)\n      returndatasize\n      not(0x1f)\n      0x1f\n      dup3\n      add\n      and\n      dup3\n      add\n      dup1\n      0x40\n      mstore\n      pop\n      dup2\n      add\n      swap1\n      tag_183\n      swap2\n      swap1\n      tag_181\n      jump\t// in\n        /* \"Ethereum/Presale.sol\":4529:6741  function deposit(uint256 _amount) external payable nonReentrant {\r... */\n    tag_98:\n        /* \"Utils/ReentrancyGuard.sol\":1778:1779  2 */\n      0x02\n        /* \"Utils/ReentrancyGuard.sol\":2376:2383  _status */\n      sload(0x00)\n        /* \"Utils/ReentrancyGuard.sol\":2376:2395  _status != _ENTERED */\n      eq\n      iszero\n        /* \"Utils/ReentrancyGuard.sol\":2368:2431  require(_status != _ENTERED, \"ReentrancyGuard: reentrant call\") */\n      tag_294\n      jumpi\n      mload(0x40)\n      shl(0xe5, 0x461bcd)\n      dup2\n      mstore\n      0x04\n      add\n      tag_139\n      swap1\n      tag_156\n      jump\t// in\n    tag_294:\n        /* \"Utils/ReentrancyGuard.sol\":1778:1779  2 */\n      0x02\n        /* \"Utils/ReentrancyGuard.sol\":2509:2516  _status */\n      0x00\n        /* \"Utils/ReentrancyGuard.sol\":2509:2527  _status = _ENTERED */\n      dup2\n      dup2\n      sstore\n        /* \"Ethereum/Presale.sol\":4700:4710  msg.sender */\n      caller\n        /* \"Ethereum/Presale.sol\":4690:4711  buyerInfo[msg.sender] */\n      dup2\n      mstore\n      0x20\n      swap2\n      swap1\n      swap2\n      mstore\n      0x40\n      dup2\n      keccak256\n      swap1\n        /* \"Ethereum/Presale.sol\":4742:4749  _amount */\n      dup3\n      swap1\n      dup2\n      swap1\n        /* \"Ethereum/Presale.sol\":4855:4859  1000 */\n      0x03e8\n        /* \"Ethereum/Presale.sol\":4878:4887  msg.value */\n      callvalue\n        /* \"Ethereum/Presale.sol\":4878:4905  msg.value >= real_amount_in */\n      dup4\n      gt\n      iszero\n        /* \"Ethereum/Presale.sol\":4870:4936  require(msg.value >= real_amount_in, \"Please provide navite coin\") */\n      tag_297\n      jumpi\n      mload(0x40)\n      shl(0xe5, 0x461bcd)\n      dup2\n      mstore\n        /* \"#utility.yul\":6408:6410   */\n      0x20\n        /* \"Ethereum/Presale.sol\":4870:4936  require(msg.value >= real_amount_in, \"Please provide navite coin\") */\n      0x04\n      dup3\n      add\n        /* \"#utility.yul\":6390:6411   */\n      mstore\n        /* \"#utility.yul\":6447:6449   */\n      0x1a\n        /* \"#utility.yul\":6427:6445   */\n      0x24\n      dup3\n      add\n        /* \"#utility.yul\":6420:6450   */\n      mstore\n        /* \"#utility.yul\":6486:6514   */\n      0x506c656173652070726f76696465206e617669746520636f696e000000000000\n        /* \"#utility.yul\":6466:6484   */\n      0x44\n      dup3\n      add\n        /* \"#utility.yul\":6459:6515   */\n      mstore\n        /* \"#utility.yul\":6532:6550   */\n      0x64\n      add\n        /* \"Ethereum/Presale.sol\":4870:4936  require(msg.value >= real_amount_in, \"Please provide navite coin\") */\n      tag_139\n        /* \"#utility.yul\":6380:6556   */\n      jump\n        /* \"Ethereum/Presale.sol\":4870:4936  require(msg.value >= real_amount_in, \"Please provide navite coin\") */\n    tag_297:\n        /* \"Ethereum/Presale.sol\":4973:4999  saleInfor.minSpendPerBuyer */\n      sload(0x15)\n        /* \"Ethereum/Presale.sol\":4955:4999  real_amount_in >= saleInfor.minSpendPerBuyer */\n      dup4\n      lt\n      iszero\n        /* \"Ethereum/Presale.sol\":4947:5048  require(real_amount_in >= saleInfor.minSpendPerBuyer, \r... */\n      tag_300\n      jumpi\n      mload(0x40)\n      shl(0xe5, 0x461bcd)\n      dup2\n      mstore\n        /* \"#utility.yul\":9382:9384   */\n      0x20\n        /* \"Ethereum/Presale.sol\":4947:5048  require(real_amount_in >= saleInfor.minSpendPerBuyer, \r... */\n      0x04\n      dup3\n      add\n        /* \"#utility.yul\":9364:9385   */\n      mstore\n        /* \"#utility.yul\":9421:9423   */\n      0x10\n        /* \"#utility.yul\":9401:9419   */\n      0x24\n      dup3\n      add\n        /* \"#utility.yul\":9394:9424   */\n      mstore\n      shl(0x80, 0x4e6f7420656e6f7567682076616c7565)\n        /* \"#utility.yul\":9440:9458   */\n      0x44\n      dup3\n      add\n        /* \"#utility.yul\":9433:9479   */\n      mstore\n        /* \"#utility.yul\":9496:9514   */\n      0x64\n      add\n        /* \"Ethereum/Presale.sol\":4947:5048  require(real_amount_in >= saleInfor.minSpendPerBuyer, \r... */\n      tag_139\n        /* \"#utility.yul\":9354:9520   */\n      jump\n        /* \"Ethereum/Presale.sol\":4947:5048  require(real_amount_in >= saleInfor.minSpendPerBuyer, \r... */\n    tag_300:\n        /* \"Ethereum/Presale.sol\":5085:5111  saleInfor.maxSpendPerBuyer */\n      sload(0x16)\n        /* \"Ethereum/Presale.sol\":5067:5111  real_amount_in <= saleInfor.maxSpendPerBuyer */\n      dup4\n      gt\n      iszero\n        /* \"Ethereum/Presale.sol\":5059:5158  require(real_amount_in <= saleInfor.maxSpendPerBuyer, \r... */\n      tag_303\n      jumpi\n      mload(0x40)\n      shl(0xe5, 0x461bcd)\n      dup2\n      mstore\n        /* \"#utility.yul\":8634:8636   */\n      0x20\n        /* \"Ethereum/Presale.sol\":5059:5158  require(real_amount_in <= saleInfor.maxSpendPerBuyer, \r... */\n      0x04\n      dup3\n      add\n        /* \"#utility.yul\":8616:8637   */\n      mstore\n        /* \"#utility.yul\":8673:8675   */\n      0x0e\n        /* \"#utility.yul\":8653:8671   */\n      0x24\n      dup3\n      add\n        /* \"#utility.yul\":8646:8676   */\n      mstore\n      shl(0x90, 0x4f766572666c6f772076616c7565)\n        /* \"#utility.yul\":8692:8710   */\n      0x44\n      dup3\n      add\n        /* \"#utility.yul\":8685:8729   */\n      mstore\n        /* \"#utility.yul\":8746:8764   */\n      0x64\n      add\n        /* \"Ethereum/Presale.sol\":5059:5158  require(real_amount_in <= saleInfor.maxSpendPerBuyer, \r... */\n      tag_139\n        /* \"#utility.yul\":8606:8770   */\n      jump\n        /* \"Ethereum/Presale.sol\":5059:5158  require(real_amount_in <= saleInfor.maxSpendPerBuyer, \r... */\n    tag_303:\n        /* \"Ethereum/Presale.sol\":5173:5192  checkAdminAddress() */\n      tag_306\n        /* \"Ethereum/Presale.sol\":5173:5190  checkAdminAddress */\n      tag_101\n        /* \"Ethereum/Presale.sol\":5173:5192  checkAdminAddress() */\n      jump\t// in\n    tag_306:\n        /* \"Ethereum/Presale.sol\":5169:5435  if(!checkAdminAddress()) {\r... */\n      tag_307\n      jumpi\n        /* \"Ethereum/Presale.sol\":5226:5359  ((fullPercenFee.sub(feeAnyone))\r... */\n      tag_308\n        /* \"Ethereum/Presale.sol\":5345:5358  fullPercenFee */\n      dup2\n        /* \"Ethereum/Presale.sol\":5227:5308  (fullPercenFee.sub(feeAnyone))\r... */\n      tag_200\n        /* \"Ethereum/Presale.sol\":5293:5307  real_amount_in */\n      dup6\n        /* \"Ethereum/Presale.sol\":5228:5256  fullPercenFee.sub(feeAnyone) */\n      tag_201\n        /* \"Ethereum/Presale.sol\":5246:5255  feeAnyone */\n      sload(0x1f)\n        /* \"Ethereum/Presale.sol\":5228:5241  fullPercenFee */\n      dup7\n        /* \"Ethereum/Presale.sol\":5228:5245  fullPercenFee.sub */\n      tag_165\n      swap1\n        /* \"Ethereum/Presale.sol\":5228:5256  fullPercenFee.sub(feeAnyone) */\n      swap2\n      swap1\n      0xffffffff\n      and\n      jump\t// in\n        /* \"Ethereum/Presale.sol\":5226:5359  ((fullPercenFee.sub(feeAnyone))\r... */\n    tag_308:\n        /* \"Ethereum/Presale.sol\":5209:5359  real_amount_in = ((fullPercenFee.sub(feeAnyone))\r... */\n      swap3\n      pop\n        /* \"Ethereum/Presale.sol\":5380:5406  amount_in - real_amount_in */\n      tag_311\n        /* \"Ethereum/Presale.sol\":5209:5359  real_amount_in = ((fullPercenFee.sub(feeAnyone))\r... */\n      dup4\n        /* \"Ethereum/Presale.sol\":5380:5389  amount_in */\n      dup6\n        /* \"Ethereum/Presale.sol\":5380:5406  amount_in - real_amount_in */\n      tag_189\n      jump\t// in\n    tag_311:\n        /* \"Ethereum/Presale.sol\":5374:5406  fee = amount_in - real_amount_in */\n      swap2\n      pop\n        /* \"Ethereum/Presale.sol\":5169:5435  if(!checkAdminAddress()) {\r... */\n    tag_307:\n        /* \"Ethereum/Presale.sol\":5500:5517  buyer.baseDeposit */\n      dup5\n      sload\n        /* \"Ethereum/Presale.sol\":5471:5497  saleInfor.maxSpendPerBuyer */\n      sload(0x16)\n        /* \"Ethereum/Presale.sol\":5445:5468  uint256 remainingByUser */\n      0x00\n      swap2\n        /* \"Ethereum/Presale.sol\":5471:5517  saleInfor.maxSpendPerBuyer - buyer.baseDeposit */\n      tag_312\n      swap2\n      tag_189\n      jump\t// in\n    tag_312:\n        /* \"Ethereum/Presale.sol\":5585:5598  presaleStatus */\n      0x04\n        /* \"Ethereum/Presale.sol\":5585:5617  presaleStatus.totalBaseCollected */\n      sload\n        /* \"Ethereum/Presale.sol\":5554:5582  saleInfor.amountTokenForSale */\n      sload(0x1a)\n        /* \"Ethereum/Presale.sol\":5445:5517  uint256 remainingByUser = saleInfor.maxSpendPerBuyer - buyer.baseDeposit */\n      swap2\n      swap3\n      pop\n        /* \"Ethereum/Presale.sol\":5528:5551  uint256 remainingByPool */\n      0x00\n      swap2\n        /* \"Ethereum/Presale.sol\":5554:5617  saleInfor.amountTokenForSale - presaleStatus.totalBaseCollected */\n      tag_313\n      swap2\n        /* \"Ethereum/Presale.sol\":5585:5617  presaleStatus.totalBaseCollected */\n      swap1\n        /* \"Ethereum/Presale.sol\":5554:5617  saleInfor.amountTokenForSale - presaleStatus.totalBaseCollected */\n      tag_189\n      jump\t// in\n    tag_313:\n        /* \"Ethereum/Presale.sol\":5528:5617  uint256 remainingByPool = saleInfor.amountTokenForSale - presaleStatus.totalBaseCollected */\n      swap1\n      pop\n        /* \"Ethereum/Presale.sol\":5628:5645  uint256 allowance */\n      0x00\n        /* \"Ethereum/Presale.sol\":5666:5681  remainingByPool */\n      dup2\n        /* \"Ethereum/Presale.sol\":5648:5663  remainingByUser */\n      dup4\n        /* \"Ethereum/Presale.sol\":5648:5681  remainingByUser > remainingByPool */\n      gt\n        /* \"Ethereum/Presale.sol\":5648:5717  remainingByUser > remainingByPool ? remainingByPool : remainingByUser */\n      tag_314\n      jumpi\n        /* \"Ethereum/Presale.sol\":5702:5717  remainingByUser */\n      dup3\n        /* \"Ethereum/Presale.sol\":5648:5717  remainingByUser > remainingByPool ? remainingByPool : remainingByUser */\n      jump(tag_315)\n    tag_314:\n        /* \"Ethereum/Presale.sol\":5684:5699  remainingByPool */\n      dup2\n        /* \"Ethereum/Presale.sol\":5648:5717  remainingByUser > remainingByPool ? remainingByPool : remainingByUser */\n    tag_315:\n        /* \"Ethereum/Presale.sol\":5628:5717  uint256 allowance = remainingByUser > remainingByPool ? remainingByPool : remainingByUser */\n      swap1\n      pop\n        /* \"Ethereum/Presale.sol\":5754:5763  allowance */\n      dup1\n        /* \"Ethereum/Presale.sol\":5736:5750  real_amount_in */\n      dup7\n        /* \"Ethereum/Presale.sol\":5736:5763  real_amount_in <= allowance */\n      gt\n      iszero\n        /* \"Ethereum/Presale.sol\":5728:5783  require(real_amount_in <= allowance, \"Sale is success\") */\n      tag_316\n      jumpi\n      mload(0x40)\n      shl(0xe5, 0x461bcd)\n      dup2\n      mstore\n        /* \"#utility.yul\":11901:11903   */\n      0x20\n        /* \"Ethereum/Presale.sol\":5728:5783  require(real_amount_in <= allowance, \"Sale is success\") */\n      0x04\n      dup3\n      add\n        /* \"#utility.yul\":11883:11904   */\n      mstore\n        /* \"#utility.yul\":11940:11942   */\n      0x0f\n        /* \"#utility.yul\":11920:11938   */\n      0x24\n      dup3\n      add\n        /* \"#utility.yul\":11913:11943   */\n      mstore\n      shl(0x88, 0x53616c652069732073756363657373)\n        /* \"#utility.yul\":11959:11977   */\n      0x44\n      dup3\n      add\n        /* \"#utility.yul\":11952:11997   */\n      mstore\n        /* \"#utility.yul\":12014:12032   */\n      0x64\n      add\n        /* \"Ethereum/Presale.sol\":5728:5783  require(real_amount_in <= allowance, \"Sale is success\") */\n      tag_139\n        /* \"#utility.yul\":11873:12038   */\n      jump\n        /* \"Ethereum/Presale.sol\":5728:5783  require(real_amount_in <= allowance, \"Sale is success\") */\n    tag_316:\n        /* \"Ethereum/Presale.sol\":5794:5811  uint256 tokenSold */\n      0x00\n        /* \"Ethereum/Presale.sol\":5815:5973  real_amount_in.\r... */\n      tag_319\n        /* \"Ethereum/Presale.sol\":5940:5949  saleInfor */\n      0x0f\n        /* \"Ethereum/Presale.sol\":5940:5959  saleInfor.baseToken */\n      0x02\n      add\n      0x00\n      swap1\n      sload\n      swap1\n      0x0100\n      exp\n      swap1\n      div\n      sub(shl(0xa0, 0x01), 0x01)\n      and\n      sub(shl(0xa0, 0x01), 0x01)\n        /* \"Ethereum/Presale.sol\":5934:5969  ERC20(saleInfor.baseToken).decimals */\n      and\n      0x313ce567\n        /* \"Ethereum/Presale.sol\":5934:5971  ERC20(saleInfor.baseToken).decimals() */\n      mload(0x40)\n      dup2\n      0xffffffff\n      and\n      0xe0\n      shl\n      dup2\n      mstore\n      0x04\n      add\n      0x20\n      mload(0x40)\n      dup1\n      dup4\n      sub\n      dup2\n      dup7\n      dup1\n      extcodesize\n      iszero\n      dup1\n      iszero\n      tag_320\n      jumpi\n      0x00\n      dup1\n      revert\n    tag_320:\n      pop\n      gas\n      staticcall\n      iszero\n      dup1\n      iszero\n      tag_322\n      jumpi\n      returndatasize\n      0x00\n      dup1\n      returndatacopy\n      revert(0x00, returndatasize)\n    tag_322:\n      pop\n      pop\n      pop\n      pop\n      mload(0x40)\n      returndatasize\n      not(0x1f)\n      0x1f\n      dup3\n      add\n      and\n      dup3\n      add\n      dup1\n      0x40\n      mstore\n      pop\n      dup2\n      add\n      swap1\n      tag_323\n      swap2\n      swap1\n      tag_163\n      jump\t// in\n    tag_323:\n        /* \"Ethereum/Presale.sol\":5920:5972  10 ** uint256(ERC20(saleInfor.baseToken).decimals()) */\n      tag_324\n      swap1\n        /* \"Ethereum/Presale.sol\":5920:5922  10 */\n      0x0a\n        /* \"Ethereum/Presale.sol\":5920:5972  10 ** uint256(ERC20(saleInfor.baseToken).decimals()) */\n      tag_219\n      jump\t// in\n    tag_324:\n        /* \"Ethereum/Presale.sol\":5864:5884  saleInfor.tokenPrice */\n      sload(0x12)\n        /* \"Ethereum/Presale.sol\":5815:5885  real_amount_in.\r... */\n      tag_200\n      swap1\n        /* \"Ethereum/Presale.sol\":5815:5829  real_amount_in */\n      dup11\n      swap1\n        /* \"Ethereum/Presale.sol\":5815:5863  real_amount_in.\r... */\n      tag_202\n        /* \"Ethereum/Presale.sol\":5815:5885  real_amount_in.\r... */\n      jump\t// in\n        /* \"Ethereum/Presale.sol\":5815:5973  real_amount_in.\r... */\n    tag_319:\n        /* \"Ethereum/Presale.sol\":5794:5974  uint256 tokenSold = (real_amount_in.\r... */\n      swap1\n      pop\n        /* \"Ethereum/Presale.sol\":6023:6037  real_amount_in */\n      dup7\n        /* \"Ethereum/Presale.sol\":6002:6007  buyer */\n      dup10\n        /* \"Ethereum/Presale.sol\":6002:6019  buyer.baseDeposit */\n      0x00\n      add\n      0x00\n        /* \"Ethereum/Presale.sol\":6002:6037  buyer.baseDeposit += real_amount_in */\n      dup3\n      dup3\n      sload\n      tag_326\n      swap2\n      swap1\n      tag_206\n      jump\t// in\n    tag_326:\n      swap3\n      pop\n      pop\n      dup2\n      swap1\n      sstore\n      pop\n        /* \"Ethereum/Presale.sol\":6068:6077  tokenSold */\n      dup1\n        /* \"Ethereum/Presale.sol\":6048:6053  buyer */\n      dup10\n        /* \"Ethereum/Presale.sol\":6048:6064  buyer.tokenOwner */\n      0x01\n      add\n      0x00\n        /* \"Ethereum/Presale.sol\":6048:6077  buyer.tokenOwner += tokenSold */\n      dup3\n      dup3\n      sload\n      tag_327\n      swap2\n      swap1\n      tag_206\n      jump\t// in\n    tag_327:\n      swap1\n      swap2\n      sstore\n      pop\n      pop\n        /* \"Ethereum/Presale.sol\":6088:6101  presaleStatus */\n      0x04\n        /* \"Ethereum/Presale.sol\":6088:6138  presaleStatus.totalBaseCollected += real_amount_in */\n      dup1\n      sload\n        /* \"Ethereum/Presale.sol\":6124:6138  real_amount_in */\n      dup9\n      swap2\n        /* \"Ethereum/Presale.sol\":6088:6101  presaleStatus */\n      swap1\n        /* \"Ethereum/Presale.sol\":6088:6120  presaleStatus.totalBaseCollected */\n      0x00\n      swap1\n        /* \"Ethereum/Presale.sol\":6088:6138  presaleStatus.totalBaseCollected += real_amount_in */\n      tag_328\n      swap1\n        /* \"Ethereum/Presale.sol\":6124:6138  real_amount_in */\n      dup5\n      swap1\n        /* \"Ethereum/Presale.sol\":6088:6138  presaleStatus.totalBaseCollected += real_amount_in */\n      tag_206\n      jump\t// in\n    tag_328:\n      swap1\n      swap2\n      sstore\n      pop\n      pop\n        /* \"Ethereum/Presale.sol\":6149:6177  presaleStatus.totalTokenSold */\n      0x05\n        /* \"Ethereum/Presale.sol\":6149:6190  presaleStatus.totalTokenSold += tokenSold */\n      dup1\n      sload\n        /* \"Ethereum/Presale.sol\":6181:6190  tokenSold */\n      dup3\n      swap2\n        /* \"Ethereum/Presale.sol\":6149:6177  presaleStatus.totalTokenSold */\n      swap1\n      0x00\n      swap1\n        /* \"Ethereum/Presale.sol\":6149:6190  presaleStatus.totalTokenSold += tokenSold */\n      tag_329\n      swap1\n        /* \"Ethereum/Presale.sol\":6181:6190  tokenSold */\n      dup5\n      swap1\n        /* \"Ethereum/Presale.sol\":6149:6190  presaleStatus.totalTokenSold += tokenSold */\n      tag_206\n      jump\t// in\n    tag_329:\n      swap1\n      swap2\n      sstore\n      pop\n      pop\n        /* \"Ethereum/Presale.sol\":6201:6226  presaleStatus.numberBuyer */\n      0x0a\n        /* \"Ethereum/Presale.sol\":6201:6228  presaleStatus.numberBuyer++ */\n      dup1\n      sload\n      swap1\n        /* \"Ethereum/Presale.sol\":6201:6226  presaleStatus.numberBuyer */\n      0x00\n        /* \"Ethereum/Presale.sol\":6201:6228  presaleStatus.numberBuyer++ */\n      tag_330\n      dup4\n      tag_331\n      jump\t// in\n    tag_330:\n      swap1\n      swap2\n      sstore\n      pop\n      pop\n        /* \"Ethereum/Presale.sol\":6247:6257  msg.sender */\n      caller\n        /* \"Ethereum/Presale.sol\":6239:6258  userFee[msg.sender] */\n      0x00\n      swap1\n      dup2\n      mstore\n        /* \"Ethereum/Presale.sol\":6239:6246  userFee */\n      0x03\n        /* \"Ethereum/Presale.sol\":6239:6258  userFee[msg.sender] */\n      0x20\n      mstore\n      0x40\n      dup2\n      keccak256\n        /* \"Ethereum/Presale.sol\":6239:6265  userFee[msg.sender] += fee */\n      dup1\n      sload\n        /* \"Ethereum/Presale.sol\":6262:6265  fee */\n      dup9\n      swap3\n        /* \"Ethereum/Presale.sol\":6239:6258  userFee[msg.sender] */\n      swap1\n        /* \"Ethereum/Presale.sol\":6239:6265  userFee[msg.sender] += fee */\n      tag_332\n      swap1\n        /* \"Ethereum/Presale.sol\":6262:6265  fee */\n      dup5\n      swap1\n        /* \"Ethereum/Presale.sol\":6239:6265  userFee[msg.sender] += fee */\n      tag_206\n      jump\t// in\n    tag_332:\n      swap3\n      pop\n      pop\n      dup2\n      swap1\n      sstore\n      pop\n        /* \"Ethereum/Presale.sol\":6288:6291  fee */\n      dup6\n        /* \"Ethereum/Presale.sol\":6276:6284  totalFee */\n      0x1e\n      0x00\n        /* \"Ethereum/Presale.sol\":6276:6291  totalFee += fee */\n      dup3\n      dup3\n      sload\n      tag_333\n      swap2\n      swap1\n      tag_206\n      jump\t// in\n    tag_333:\n      swap1\n      swap2\n      sstore\n      pop\n      pop\n        /* \"Ethereum/Presale.sol\":6307:6332  saleInfor.saleIsBaseToken */\n      and(0xff, sload(0x19))\n        /* \"Ethereum/Presale.sol\":6307:6369  saleInfor.saleIsBaseToken && real_amount_in + fee <= msg.value */\n      dup1\n      iszero\n      tag_334\n      jumpi\n      pop\n        /* \"Ethereum/Presale.sol\":6360:6369  msg.value */\n      callvalue\n        /* \"Ethereum/Presale.sol\":6336:6356  real_amount_in + fee */\n      tag_335\n        /* \"Ethereum/Presale.sol\":6353:6356  fee */\n      dup8\n        /* \"Ethereum/Presale.sol\":6336:6350  real_amount_in */\n      dup10\n        /* \"Ethereum/Presale.sol\":6336:6356  real_amount_in + fee */\n      tag_206\n      jump\t// in\n    tag_335:\n        /* \"Ethereum/Presale.sol\":6336:6369  real_amount_in + fee <= msg.value */\n      gt\n      iszero\n        /* \"Ethereum/Presale.sol\":6307:6369  saleInfor.saleIsBaseToken && real_amount_in + fee <= msg.value */\n    tag_334:\n        /* \"Ethereum/Presale.sol\":6304:6460  if(saleInfor.saleIsBaseToken && real_amount_in + fee <= msg.value) {\r... */\n      iszero\n      tag_336\n      jumpi\n        /* \"Ethereum/Presale.sol\":6394:6404  msg.sender */\n      caller\n        /* \"Ethereum/Presale.sol\":6386:6448  payable(msg.sender).transfer(msg.value - real_amount_in - fee) */\n      0x08fc\n        /* \"Ethereum/Presale.sol\":6444:6447  fee */\n      dup8\n        /* \"Ethereum/Presale.sol\":6415:6441  msg.value - real_amount_in */\n      tag_337\n        /* \"Ethereum/Presale.sol\":6427:6441  real_amount_in */\n      dup11\n        /* \"Ethereum/Presale.sol\":6415:6424  msg.value */\n      callvalue\n        /* \"Ethereum/Presale.sol\":6415:6441  msg.value - real_amount_in */\n      tag_189\n      jump\t// in\n    tag_337:\n        /* \"Ethereum/Presale.sol\":6415:6447  msg.value - real_amount_in - fee */\n      tag_338\n      swap2\n      swap1\n      tag_189\n      jump\t// in\n    tag_338:\n        /* \"Ethereum/Presale.sol\":6386:6448  payable(msg.sender).transfer(msg.value - real_amount_in - fee) */\n      mload(0x40)\n      dup2\n      iszero\n      swap1\n      swap3\n      mul\n      swap2\n      0x00\n      dup2\n      dup2\n      dup2\n      dup6\n      dup9\n      dup9\n      call\n      swap4\n      pop\n      pop\n      pop\n      pop\n      iszero\n      dup1\n      iszero\n      tag_340\n      jumpi\n      returndatasize\n      0x00\n      dup1\n      returndatacopy\n      revert(0x00, returndatasize)\n    tag_340:\n      pop\n        /* \"Ethereum/Presale.sol\":6304:6460  if(saleInfor.saleIsBaseToken && real_amount_in + fee <= msg.value) {\r... */\n    tag_336:\n        /* \"Ethereum/Presale.sol\":6475:6500  saleInfor.saleIsBaseToken */\n      and(0xff, sload(0x19))\n        /* \"Ethereum/Presale.sol\":6471:6722  if(!saleInfor.saleIsBaseToken) {\r... */\n      tag_342\n      jumpi\n        /* \"Ethereum/Presale.sol\":6575:6594  saleInfor.baseToken */\n      sload(0x11)\n        /* \"Ethereum/Presale.sol\":6517:6710  TransferHelper.safeTransferFrom(\r... */\n      tag_342\n      swap1\n      sub(shl(0xa0, 0x01), 0x01)\n        /* \"Ethereum/Presale.sol\":6575:6594  saleInfor.baseToken */\n      and\n        /* \"Ethereum/Presale.sol\":6614:6624  msg.sender */\n      caller\n        /* \"Ethereum/Presale.sol\":6651:6655  this */\n      address\n        /* \"Ethereum/Presale.sol\":6675:6695  real_amount_in + fee */\n      tag_343\n        /* \"Ethereum/Presale.sol\":6692:6695  fee */\n      dup11\n        /* \"Ethereum/Presale.sol\":6675:6689  real_amount_in */\n      dup13\n        /* \"Ethereum/Presale.sol\":6675:6695  real_amount_in + fee */\n      tag_206\n      jump\t// in\n    tag_343:\n        /* \"Ethereum/Presale.sol\":6517:6548  TransferHelper.safeTransferFrom */\n      tag_344\n        /* \"Ethereum/Presale.sol\":6517:6710  TransferHelper.safeTransferFrom(\r... */\n      jump\t// in\n    tag_342:\n      pop\n      pop\n        /* \"Utils/ReentrancyGuard.sol\":1734:1735  1 */\n      0x01\n        /* \"Utils/ReentrancyGuard.sol\":2688:2695  _status */\n      0x00\n        /* \"Utils/ReentrancyGuard.sol\":2688:2710  _status = _NOT_ENTERED */\n      sstore\n      pop\n      pop\n      pop\n      pop\n      pop\n      pop\n      pop\n      pop\n        /* \"Ethereum/Presale.sol\":4529:6741  function deposit(uint256 _amount) external payable nonReentrant {\r... */\n      jump\t// out\n        /* \"Ethereum/Presale.sol\":4411:4521  function checkAdminAddress() public view returns(bool) {\r... */\n    tag_101:\n        /* \"Ethereum/Presale.sol\":4460:4464  bool */\n      0x00\n        /* \"Ethereum/Presale.sol\":4484:4513  admins.contains(_msgSender()) */\n      tag_346\n        /* \"Ethereum/Presale.sol\":4484:4490  admins */\n      0x1c\n        /* \"Utils/Context.sol\":736:746  msg.sender */\n      caller\n        /* \"Ethereum/Presale.sol\":4484:4499  admins.contains */\n      tag_348\n        /* \"Ethereum/Presale.sol\":4484:4513  admins.contains(_msgSender()) */\n      jump\t// in\n    tag_346:\n        /* \"Ethereum/Presale.sol\":4477:4513  return admins.contains(_msgSender()) */\n      swap1\n      pop\n        /* \"Ethereum/Presale.sol\":4411:4521  function checkAdminAddress() public view returns(bool) {\r... */\n      swap1\n      jump\t// out\n        /* \"Ethereum/Presale.sol\":9990:11563  function userClaimOrRefundWhenSaleSuccess(bool isClaim) external {\r... */\n    tag_118:\n        /* \"Ethereum/Presale.sol\":10130:10137  isClaim */\n      dup1\n        /* \"Ethereum/Presale.sol\":10127:11556  if(isClaim){\r... */\n      iszero\n      tag_350\n      jumpi\n        /* \"Ethereum/Presale.sol\":10192:10224  presaleStatus.totalTokenWithDraw */\n      sload(0x06)\n        /* \"Ethereum/Presale.sol\":10161:10189  presaleStatus.totalTokenSold */\n      sload(0x05)\n        /* \"Ethereum/Presale.sol\":10227:10228  0 */\n      0x00\n      swap2\n        /* \"Ethereum/Presale.sol\":10161:10224  presaleStatus.totalTokenSold - presaleStatus.totalTokenWithDraw */\n      tag_351\n      swap2\n      tag_189\n      jump\t// in\n    tag_351:\n        /* \"Ethereum/Presale.sol\":10161:10228  presaleStatus.totalTokenSold - presaleStatus.totalTokenWithDraw > 0 */\n      gt\n        /* \"Ethereum/Presale.sol\":10153:10292  require(presaleStatus.totalTokenSold - presaleStatus.totalTokenWithDraw > 0, \r... */\n      tag_352\n      jumpi\n      mload(0x40)\n      shl(0xe5, 0x461bcd)\n      dup2\n      mstore\n      0x04\n      add\n      tag_139\n      swap1\n      tag_192\n      jump\t// in\n    tag_352:\n        /* \"Ethereum/Presale.sol\":10343:10353  msg.sender */\n      caller\n        /* \"Ethereum/Presale.sol\":10307:10330  BuyerInfo storage buyer */\n      0x00\n        /* \"Ethereum/Presale.sol\":10333:10354  buyerInfo[msg.sender] */\n      swap1\n      dup2\n      mstore\n        /* \"Ethereum/Presale.sol\":10333:10342  buyerInfo */\n      0x02\n        /* \"Ethereum/Presale.sol\":10333:10354  buyerInfo[msg.sender] */\n      0x20\n      mstore\n      0x40\n      swap1\n      keccak256\n        /* \"Ethereum/Presale.sol\":10396:10420  buyer.totalTokenWithDraw */\n      0x03\n      dup2\n      add\n      sload\n        /* \"Ethereum/Presale.sol\":10377:10393  buyer.tokenOwner */\n      0x01\n      dup3\n      add\n      sload\n        /* \"Ethereum/Presale.sol\":10377:10420  buyer.tokenOwner > buyer.totalTokenWithDraw */\n      gt\n        /* \"Ethereum/Presale.sol\":10369:10461  require(buyer.tokenOwner > buyer.totalTokenWithDraw, \"You claim all or have not bought yet\") */\n      tag_354\n      jumpi\n      mload(0x40)\n      shl(0xe5, 0x461bcd)\n      dup2\n      mstore\n        /* \"#utility.yul\":8977:8979   */\n      0x20\n        /* \"Ethereum/Presale.sol\":10369:10461  require(buyer.tokenOwner > buyer.totalTokenWithDraw, \"You claim all or have not bought yet\") */\n      0x04\n      dup3\n      add\n        /* \"#utility.yul\":8959:8980   */\n      mstore\n        /* \"#utility.yul\":9016:9018   */\n      0x24\n        /* \"#utility.yul\":8996:9014   */\n      dup1\n      dup3\n      add\n        /* \"#utility.yul\":8989:9019   */\n      mstore\n        /* \"#utility.yul\":9055:9089   */\n      0x596f7520636c61696d20616c6c206f722068617665206e6f7420626f75676874\n        /* \"#utility.yul\":9035:9053   */\n      0x44\n      dup3\n      add\n        /* \"#utility.yul\":9028:9090   */\n      mstore\n      shl(0xe2, 0x081e595d)\n        /* \"#utility.yul\":9106:9124   */\n      0x64\n      dup3\n      add\n        /* \"#utility.yul\":9099:9133   */\n      mstore\n        /* \"#utility.yul\":9150:9169   */\n      0x84\n      add\n        /* \"Ethereum/Presale.sol\":10369:10461  require(buyer.tokenOwner > buyer.totalTokenWithDraw, \"You claim all or have not bought yet\") */\n      tag_139\n        /* \"#utility.yul\":8949:9175   */\n      jump\n        /* \"Ethereum/Presale.sol\":10369:10461  require(buyer.tokenOwner > buyer.totalTokenWithDraw, \"You claim all or have not bought yet\") */\n    tag_354:\n        /* \"Ethereum/Presale.sol\":10482:10501  saleInfor.saleToken */\n      sload(0x10)\n      0x01\n        /* \"Ethereum/Presale.sol\":10524:10540  buyer.tokenOwner */\n      dup3\n      add\n      sload\n        /* \"Ethereum/Presale.sol\":10476:10541  ERC20(saleInfor.saleToken).transfer(msg.sender, buyer.tokenOwner) */\n      mload(0x40)\n      shl(0xe0, 0xa9059cbb)\n      dup2\n      mstore\n        /* \"Ethereum/Presale.sol\":10512:10522  msg.sender */\n      caller\n        /* \"Ethereum/Presale.sol\":10476:10541  ERC20(saleInfor.saleToken).transfer(msg.sender, buyer.tokenOwner) */\n      0x04\n      dup3\n      add\n        /* \"#utility.yul\":4676:4727   */\n      mstore\n        /* \"#utility.yul\":4743:4761   */\n      0x24\n      dup2\n      add\n        /* \"#utility.yul\":4736:4770   */\n      swap2\n      swap1\n      swap2\n      mstore\n      sub(shl(0xa0, 0x01), 0x01)\n        /* \"Ethereum/Presale.sol\":10482:10501  saleInfor.saleToken */\n      swap1\n      swap2\n      and\n      swap1\n        /* \"Ethereum/Presale.sol\":10476:10511  ERC20(saleInfor.saleToken).transfer */\n      0xa9059cbb\n      swap1\n        /* \"#utility.yul\":4649:4667   */\n      0x44\n      add\n        /* \"Ethereum/Presale.sol\":10476:10541  ERC20(saleInfor.saleToken).transfer(msg.sender, buyer.tokenOwner) */\n      0x20\n      mload(0x40)\n      dup1\n      dup4\n      sub\n      dup2\n      0x00\n      dup8\n      dup1\n      extcodesize\n      iszero\n      dup1\n      iszero\n      tag_358\n      jumpi\n      0x00\n      dup1\n      revert\n    tag_358:\n      pop\n      gas\n      call\n      iszero\n      dup1\n      iszero\n      tag_360\n      jumpi\n      returndatasize\n      0x00\n      dup1\n      returndatacopy\n      revert(0x00, returndatasize)\n    tag_360:\n      pop\n      pop\n      pop\n      pop\n      mload(0x40)\n      returndatasize\n      not(0x1f)\n      0x1f\n      dup3\n      add\n      and\n      dup3\n      add\n      dup1\n      0x40\n      mstore\n      pop\n      dup2\n      add\n      swap1\n      tag_361\n      swap2\n      swap1\n      tag_181\n      jump\t// in\n    tag_361:\n      pop\n        /* \"Ethereum/Presale.sol\":10592:10608  buyer.tokenOwner */\n      0x01\n      dup2\n      add\n      sload\n        /* \"Ethereum/Presale.sol\":10556:10588  presaleStatus.totalTokenWithDraw */\n      0x06\n        /* \"Ethereum/Presale.sol\":10556:10608  presaleStatus.totalTokenWithDraw += buyer.tokenOwner */\n      dup1\n      sload\n        /* \"Ethereum/Presale.sol\":10556:10588  presaleStatus.totalTokenWithDraw */\n      0x00\n      swap1\n        /* \"Ethereum/Presale.sol\":10556:10608  presaleStatus.totalTokenWithDraw += buyer.tokenOwner */\n      tag_362\n      swap1\n        /* \"Ethereum/Presale.sol\":10592:10608  buyer.tokenOwner */\n      dup5\n      swap1\n        /* \"Ethereum/Presale.sol\":10556:10608  presaleStatus.totalTokenWithDraw += buyer.tokenOwner */\n      tag_206\n      jump\t// in\n    tag_362:\n      swap1\n      swap2\n      sstore\n      pop\n      pop\n        /* \"Ethereum/Presale.sol\":10655:10671  buyer.tokenOwner */\n      0x01\n      dup2\n      add\n      sload\n        /* \"Ethereum/Presale.sol\":10623:10651  saleInfor.amountTokenForSale */\n      0x1a\n        /* \"Ethereum/Presale.sol\":10623:10671  saleInfor.amountTokenForSale -= buyer.tokenOwner */\n      dup1\n      sload\n        /* \"Ethereum/Presale.sol\":10623:10651  saleInfor.amountTokenForSale */\n      0x00\n      swap1\n        /* \"Ethereum/Presale.sol\":10623:10671  saleInfor.amountTokenForSale -= buyer.tokenOwner */\n      tag_363\n      swap1\n        /* \"Ethereum/Presale.sol\":10655:10671  buyer.tokenOwner */\n      dup5\n      swap1\n        /* \"Ethereum/Presale.sol\":10623:10671  saleInfor.amountTokenForSale -= buyer.tokenOwner */\n      tag_189\n      jump\t// in\n    tag_363:\n      swap1\n      swap2\n      sstore\n      pop\n      pop\n        /* \"Ethereum/Presale.sol\":10714:10730  buyer.tokenOwner */\n      0x01\n      dup2\n      add\n      sload\n        /* \"Ethereum/Presale.sol\":10686:10710  buyer.totalTokenWithDraw */\n      0x03\n      dup3\n      add\n        /* \"Ethereum/Presale.sol\":10686:10730  buyer.totalTokenWithDraw += buyer.tokenOwner */\n      dup1\n      sload\n        /* \"Ethereum/Presale.sol\":10686:10710  buyer.totalTokenWithDraw */\n      0x00\n      swap1\n        /* \"Ethereum/Presale.sol\":10686:10730  buyer.totalTokenWithDraw += buyer.tokenOwner */\n      tag_364\n      swap1\n        /* \"Ethereum/Presale.sol\":10714:10730  buyer.tokenOwner */\n      dup5\n      swap1\n        /* \"Ethereum/Presale.sol\":10686:10730  buyer.totalTokenWithDraw += buyer.tokenOwner */\n      tag_206\n      jump\t// in\n    tag_364:\n      swap1\n      swap2\n      sstore\n      pop\n      pop\n        /* \"Ethereum/Presale.sol\":10765:10766  0 */\n      0x00\n        /* \"Ethereum/Presale.sol\":10745:10766  buyer.baseDeposit = 0 */\n      dup1\n      dup3\n      sstore\n        /* \"Ethereum/Presale.sol\":10781:10797  buyer.tokenOwner */\n      0x01\n      dup3\n      add\n        /* \"Ethereum/Presale.sol\":10781:10801  buyer.tokenOwner = 0 */\n      sstore\n        /* \"Ethereum/Presale.sol\":10837:10852  block.timestamp */\n      timestamp\n        /* \"Ethereum/Presale.sol\":10816:10834  buyer.lastWithDraw */\n      0x02\n      swap1\n      swap2\n      add\n        /* \"Ethereum/Presale.sol\":10816:10852  buyer.lastWithDraw = block.timestamp */\n      sstore\n        /* \"Ethereum/Presale.sol\":11742:11793  payable(msg.sender).transfer(address(this).balance) */\n      pop\n        /* \"Ethereum/Presale.sol\":11693:11801  function backToken() external payable {\r... */\n      jump\t// out\n        /* \"Ethereum/Presale.sol\":10127:11556  if(isClaim){\r... */\n    tag_350:\n        /* \"Ethereum/Presale.sol\":10940:10971  presaleStatus.totalBaseWithDraw */\n      sload(0x07)\n        /* \"Ethereum/Presale.sol\":10940:10953  presaleStatus */\n      0x04\n        /* \"Ethereum/Presale.sol\":10905:10937  presaleStatus.totalBaseCollected */\n      sload\n        /* \"Ethereum/Presale.sol\":10974:10975  0 */\n      0x00\n      swap2\n        /* \"Ethereum/Presale.sol\":10905:10971  presaleStatus.totalBaseCollected - presaleStatus.totalBaseWithDraw */\n      tag_366\n      swap2\n      tag_189\n      jump\t// in\n    tag_366:\n        /* \"Ethereum/Presale.sol\":10905:10975  presaleStatus.totalBaseCollected - presaleStatus.totalBaseWithDraw > 0 */\n      gt\n        /* \"Ethereum/Presale.sol\":10897:11039  require(presaleStatus.totalBaseCollected - presaleStatus.totalBaseWithDraw > 0, \r... */\n      tag_367\n      jumpi\n      mload(0x40)\n      shl(0xe5, 0x461bcd)\n      dup2\n      mstore\n      0x04\n      add\n      tag_139\n      swap1\n      tag_192\n      jump\t// in\n    tag_367:\n        /* \"Ethereum/Presale.sol\":11091:11101  msg.sender */\n      caller\n        /* \"Ethereum/Presale.sol\":11055:11078  BuyerInfo storage buyer */\n      0x00\n        /* \"Ethereum/Presale.sol\":11081:11102  buyerInfo[msg.sender] */\n      swap1\n      dup2\n      mstore\n        /* \"Ethereum/Presale.sol\":11081:11090  buyerInfo */\n      0x02\n        /* \"Ethereum/Presale.sol\":11081:11102  buyerInfo[msg.sender] */\n      0x20\n      mstore\n      0x40\n      swap1\n      keccak256\n        /* \"Ethereum/Presale.sol\":11125:11142  buyer.baseDeposit */\n      dup1\n      sload\n        /* \"Ethereum/Presale.sol\":11117:11188  require(buyer.baseDeposit > 0, \"You refund all or have not bought yet\") */\n      tag_369\n      jumpi\n      mload(0x40)\n      shl(0xe5, 0x461bcd)\n      dup2\n      mstore\n        /* \"#utility.yul\":8228:8230   */\n      0x20\n        /* \"Ethereum/Presale.sol\":11117:11188  require(buyer.baseDeposit > 0, \"You refund all or have not bought yet\") */\n      0x04\n      dup3\n      add\n        /* \"#utility.yul\":8210:8231   */\n      mstore\n        /* \"#utility.yul\":8267:8269   */\n      0x25\n        /* \"#utility.yul\":8247:8265   */\n      0x24\n      dup3\n      add\n        /* \"#utility.yul\":8240:8270   */\n      mstore\n        /* \"#utility.yul\":8306:8340   */\n      0x596f7520726566756e6420616c6c206f722068617665206e6f7420626f756768\n        /* \"#utility.yul\":8286:8304   */\n      0x44\n      dup3\n      add\n        /* \"#utility.yul\":8279:8341   */\n      mstore\n      shl(0xda, 0x1d081e595d)\n        /* \"#utility.yul\":8357:8375   */\n      0x64\n      dup3\n      add\n        /* \"#utility.yul\":8350:8385   */\n      mstore\n        /* \"#utility.yul\":8402:8421   */\n      0x84\n      add\n        /* \"Ethereum/Presale.sol\":11117:11188  require(buyer.baseDeposit > 0, \"You refund all or have not bought yet\") */\n      tag_139\n        /* \"#utility.yul\":8200:8427   */\n      jump\n        /* \"Ethereum/Presale.sol\":11117:11188  require(buyer.baseDeposit > 0, \"You refund all or have not bought yet\") */\n    tag_369:\n        /* \"Ethereum/Presale.sol\":11226:11243  buyer.baseDeposit */\n      dup1\n      sload\n        /* \"Ethereum/Presale.sol\":11270:11302  buyer.baseDeposit - amountRefund */\n      tag_372\n        /* \"Ethereum/Presale.sol\":11226:11243  buyer.baseDeposit */\n      dup2\n      dup1\n        /* \"Ethereum/Presale.sol\":11270:11302  buyer.baseDeposit - amountRefund */\n      tag_189\n      jump\t// in\n    tag_372:\n        /* \"Ethereum/Presale.sol\":11258:11266  totalFee */\n      0x1e\n      0x00\n        /* \"Ethereum/Presale.sol\":11258:11302  totalFee += buyer.baseDeposit - amountRefund */\n      dup3\n      dup3\n      sload\n      tag_373\n      swap2\n      swap1\n      tag_206\n      jump\t// in\n    tag_373:\n      swap1\n      swap2\n      sstore\n      pop\n      pop\n        /* \"Ethereum/Presale.sol\":11317:11348  presaleStatus.totalBaseWithDraw */\n      0x07\n        /* \"Ethereum/Presale.sol\":11317:11364  presaleStatus.totalBaseWithDraw += amountRefund */\n      dup1\n      sload\n        /* \"Ethereum/Presale.sol\":11352:11364  amountRefund */\n      dup3\n      swap2\n        /* \"Ethereum/Presale.sol\":11317:11348  presaleStatus.totalBaseWithDraw */\n      swap1\n      0x00\n      swap1\n        /* \"Ethereum/Presale.sol\":11317:11364  presaleStatus.totalBaseWithDraw += amountRefund */\n      tag_374\n      swap1\n        /* \"Ethereum/Presale.sol\":11352:11364  amountRefund */\n      dup5\n      swap1\n        /* \"Ethereum/Presale.sol\":11317:11364  presaleStatus.totalBaseWithDraw += amountRefund */\n      tag_206\n      jump\t// in\n    tag_374:\n      swap1\n      swap2\n      sstore\n      pop\n      pop\n        /* \"Ethereum/Presale.sol\":11400:11401  0 */\n      0x00\n        /* \"Ethereum/Presale.sol\":11379:11401  buyer.baseDeposit  = 0 */\n      dup1\n      dup4\n      sstore\n        /* \"Ethereum/Presale.sol\":11416:11432  buyer.tokenOwner */\n      0x01\n      dup4\n      add\n        /* \"Ethereum/Presale.sol\":11416:11436  buyer.tokenOwner = 0 */\n      dup2\n      swap1\n      sstore\n        /* \"Ethereum/Presale.sol\":11472:11487  block.timestamp */\n      timestamp\n        /* \"Ethereum/Presale.sol\":11451:11469  buyer.lastWithDraw */\n      0x02\n      dup5\n      add\n        /* \"Ethereum/Presale.sol\":11451:11487  buyer.lastWithDraw = block.timestamp */\n      sstore\n        /* \"Ethereum/Presale.sol\":11502:11544  payable(msg.sender).transfer(amountRefund) */\n      mload(0x40)\n        /* \"Ethereum/Presale.sol\":11510:11520  msg.sender */\n      caller\n      swap2\n        /* \"Ethereum/Presale.sol\":11502:11544  payable(msg.sender).transfer(amountRefund) */\n      dup4\n      iszero\n      0x08fc\n      mul\n      swap2\n        /* \"Ethereum/Presale.sol\":11531:11543  amountRefund */\n      dup5\n      swap2\n        /* \"Ethereum/Presale.sol\":11502:11544  payable(msg.sender).transfer(amountRefund) */\n      dup2\n        /* \"Ethereum/Presale.sol\":11400:11401  0 */\n      dup2\n        /* \"Ethereum/Presale.sol\":11502:11544  payable(msg.sender).transfer(amountRefund) */\n      dup2\n        /* \"Ethereum/Presale.sol\":11531:11543  amountRefund */\n      dup6\n        /* \"Ethereum/Presale.sol\":11510:11520  msg.sender */\n      dup9\n        /* \"Ethereum/Presale.sol\":11502:11544  payable(msg.sender).transfer(amountRefund) */\n      dup9\n      call\n      swap4\n      pop\n      pop\n      pop\n      pop\n      iszero\n      dup1\n      iszero\n      tag_376\n      jumpi\n      returndatasize\n      0x00\n      dup1\n      returndatacopy\n      revert(0x00, returndatasize)\n    tag_376:\n      pop\n        /* \"Ethereum/Presale.sol\":10882:11556  {\r... */\n      pop\n      pop\n        /* \"Ethereum/Presale.sol\":9990:11563  function userClaimOrRefundWhenSaleSuccess(bool isClaim) external {\r... */\n      pop\n      jump\t// out\n        /* \"Utils/Ownable.sol\":1972:2173  function transferOwnership(address newOwner) public virtual onlyOwner {\r... */\n    tag_122:\n        /* \"Utils/Ownable.sol\":1136:1142  _owner */\n      and(sub(shl(0xa0, 0x01), 0x01), sload(0x01))\n        /* \"Utils/Context.sol\":736:746  msg.sender */\n      caller\n        /* \"Utils/Ownable.sol\":1283:1306  owner() == _msgSender() */\n      eq\n        /* \"Utils/Ownable.sol\":1275:1343  require(owner() == _msgSender(), \"Ownable: caller is not the owner\") */\n      tag_380\n      jumpi\n      mload(0x40)\n      shl(0xe5, 0x461bcd)\n      dup2\n      mstore\n        /* \"#utility.yul\":10074:10076   */\n      0x20\n        /* \"Utils/Ownable.sol\":1275:1343  require(owner() == _msgSender(), \"Ownable: caller is not the owner\") */\n      0x04\n      dup3\n      add\n        /* \"#utility.yul\":10056:10077   */\n      dup2\n      swap1\n      mstore\n        /* \"#utility.yul\":10093:10111   */\n      0x24\n      dup3\n      add\n        /* \"#utility.yul\":10086:10116   */\n      mstore\n        /* \"#utility.yul\":10152:10186   */\n      0x4f776e61626c653a2063616c6c6572206973206e6f7420746865206f776e6572\n        /* \"#utility.yul\":10132:10150   */\n      0x44\n      dup3\n      add\n        /* \"#utility.yul\":10125:10187   */\n      mstore\n        /* \"#utility.yul\":10204:10222   */\n      0x64\n      add\n        /* \"Utils/Ownable.sol\":1275:1343  require(owner() == _msgSender(), \"Ownable: caller is not the owner\") */\n      tag_139\n        /* \"#utility.yul\":10046:10228   */\n      jump\n        /* \"Utils/Ownable.sol\":1275:1343  require(owner() == _msgSender(), \"Ownable: caller is not the owner\") */\n    tag_380:\n      sub(shl(0xa0, 0x01), 0x01)\n        /* \"Utils/Ownable.sol\":2061:2083  newOwner != address(0) */\n      dup2\n      and\n        /* \"Utils/Ownable.sol\":2053:2126  require(newOwner != address(0), \"Ownable: new owner is the zero address\") */\n      tag_383\n      jumpi\n      mload(0x40)\n      shl(0xe5, 0x461bcd)\n      dup2\n      mstore\n        /* \"#utility.yul\":7119:7121   */\n      0x20\n        /* \"Utils/Ownable.sol\":2053:2126  require(newOwner != address(0), \"Ownable: new owner is the zero address\") */\n      0x04\n      dup3\n      add\n        /* \"#utility.yul\":7101:7122   */\n      mstore\n        /* \"#utility.yul\":7158:7160   */\n      0x26\n        /* \"#utility.yul\":7138:7156   */\n      0x24\n      dup3\n      add\n        /* \"#utility.yul\":7131:7161   */\n      mstore\n        /* \"#utility.yul\":7197:7231   */\n      0x4f776e61626c653a206e6577206f776e657220697320746865207a65726f2061\n        /* \"#utility.yul\":7177:7195   */\n      0x44\n      dup3\n      add\n        /* \"#utility.yul\":7170:7232   */\n      mstore\n      shl(0xd0, 0x646472657373)\n        /* \"#utility.yul\":7248:7266   */\n      0x64\n      dup3\n      add\n        /* \"#utility.yul\":7241:7277   */\n      mstore\n        /* \"#utility.yul\":7294:7313   */\n      0x84\n      add\n        /* \"Utils/Ownable.sol\":2053:2126  require(newOwner != address(0), \"Ownable: new owner is the zero address\") */\n      tag_139\n        /* \"#utility.yul\":7091:7319   */\n      jump\n        /* \"Utils/Ownable.sol\":2053:2126  require(newOwner != address(0), \"Ownable: new owner is the zero address\") */\n    tag_383:\n        /* \"Utils/Ownable.sol\":2137:2165  _transferOwnership(newOwner) */\n      tag_146\n        /* \"Utils/Ownable.sol\":2156:2164  newOwner */\n      dup2\n        /* \"Utils/Ownable.sol\":2137:2155  _transferOwnership */\n      tag_143\n        /* \"Utils/Ownable.sol\":2137:2165  _transferOwnership(newOwner) */\n      jump\t// in\n        /* \"Utils/EnumerableSet.sol\":8259:8411  function add(AddressSet storage set, address value) internal returns (bool) {\r... */\n    tag_128:\n        /* \"Utils/EnumerableSet.sol\":8329:8333  bool */\n      0x00\n        /* \"Utils/EnumerableSet.sol\":8353:8403  _add(set._inner, bytes32(uint256(uint160(value)))) */\n      tag_389\n        /* \"Utils/EnumerableSet.sol\":8358:8361  set */\n      dup4\n      sub(shl(0xa0, 0x01), 0x01)\n        /* \"Utils/EnumerableSet.sol\":8378:8401  uint256(uint160(value)) */\n      dup5\n      and\n        /* \"Utils/EnumerableSet.sol\":8353:8357  _add */\n      tag_390\n        /* \"Utils/EnumerableSet.sol\":8353:8403  _add(set._inner, bytes32(uint256(uint160(value)))) */\n      jump\t// in\n    tag_389:\n        /* \"Utils/EnumerableSet.sol\":8346:8403  return _add(set._inner, bytes32(uint256(uint160(value)))) */\n      swap1\n      pop\n        /* \"Utils/EnumerableSet.sol\":8259:8411  function add(AddressSet storage set, address value) internal returns (bool) {\r... */\n    tag_388:\n      swap3\n      swap2\n      pop\n      pop\n      jump\t// out\n        /* \"Utils/Ownable.sol\":2333:2524  function _transferOwnership(address newOwner) internal virtual {\r... */\n    tag_143:\n        /* \"Utils/Ownable.sol\":2426:2432  _owner */\n      0x01\n      dup1\n      sload\n      sub(shl(0xa0, 0x01), 0x01)\n        /* \"Utils/Ownable.sol\":2443:2460  _owner = newOwner */\n      dup4\n      dup2\n      and\n      not(sub(shl(0xa0, 0x01), 0x01))\n      dup4\n      and\n      dup2\n      or\n      swap1\n      swap4\n      sstore\n        /* \"Utils/Ownable.sol\":2476:2516  OwnershipTransferred(oldOwner, newOwner) */\n      mload(0x40)\n        /* \"Utils/Ownable.sol\":2426:2432  _owner */\n      swap2\n      and\n      swap2\n        /* \"Utils/Ownable.sol\":2443:2460  _owner = newOwner */\n      swap1\n        /* \"Utils/Ownable.sol\":2426:2432  _owner */\n      dup3\n      swap1\n        /* \"Utils/Ownable.sol\":2476:2516  OwnershipTransferred(oldOwner, newOwner) */\n      0x8be0079c531659141344cd1fd0a4f28419497f9722a3daafe3b4186f6b6457e0\n      swap1\n        /* \"Utils/Ownable.sol\":2407:2423  address oldOwner */\n      0x00\n      swap1\n        /* \"Utils/Ownable.sol\":2476:2516  OwnershipTransferred(oldOwner, newOwner) */\n      log3\n        /* \"Utils/Ownable.sol\":2396:2524  {\r... */\n      pop\n        /* \"Utils/Ownable.sol\":2333:2524  function _transferOwnership(address newOwner) internal virtual {\r... */\n      pop\n      jump\t// out\n        /* \"Utils/SafeMath.sol\":3228:3326  function sub(uint256 a, uint256 b) internal pure returns (uint256) {\r... */\n    tag_165:\n        /* \"Utils/SafeMath.sol\":3286:3293  uint256 */\n      0x00\n        /* \"Utils/SafeMath.sol\":3313:3318  a - b */\n      tag_389\n        /* \"Utils/SafeMath.sol\":3317:3318  b */\n      dup3\n        /* \"Utils/SafeMath.sol\":3313:3314  a */\n      dup5\n        /* \"Utils/SafeMath.sol\":3313:3318  a - b */\n      tag_189\n      jump\t// in\n        /* \"Utils/SafeMath.sol\":3585:3683  function mul(uint256 a, uint256 b) internal pure returns (uint256) {\r... */\n    tag_202:\n        /* \"Utils/SafeMath.sol\":3643:3650  uint256 */\n      0x00\n        /* \"Utils/SafeMath.sol\":3670:3675  a * b */\n      tag_389\n        /* \"Utils/SafeMath.sol\":3674:3675  b */\n      dup3\n        /* \"Utils/SafeMath.sol\":3670:3671  a */\n      dup5\n        /* \"Utils/SafeMath.sol\":3670:3675  a * b */\n      tag_224\n      jump\t// in\n        /* \"Utils/SafeMath.sol\":3984:4082  function div(uint256 a, uint256 b) internal pure returns (uint256) {\r... */\n    tag_203:\n        /* \"Utils/SafeMath.sol\":4042:4049  uint256 */\n      0x00\n        /* \"Utils/SafeMath.sol\":4069:4074  a / b */\n      tag_389\n        /* \"Utils/SafeMath.sol\":4073:4074  b */\n      dup3\n        /* \"Utils/SafeMath.sol\":4069:4070  a */\n      dup5\n        /* \"Utils/SafeMath.sol\":4069:4074  a / b */\n      tag_266\n      jump\t// in\n        /* \"Utils/TransferHelper.sol\":1073:1503  function safeTransferFrom(\r... */\n    tag_344:\n        /* \"Utils/TransferHelper.sol\":1279:1330  abi.encodeWithSelector(0x23b872dd, from, to, value) */\n      0x40\n      dup1\n      mload\n      sub(shl(0xa0, 0x01), 0x01)\n        /* \"#utility.yul\":5039:5054   */\n      dup6\n      dup2\n      and\n        /* \"Utils/TransferHelper.sol\":1279:1330  abi.encodeWithSelector(0x23b872dd, from, to, value) */\n      0x24\n      dup4\n      add\n        /* \"#utility.yul\":5021:5055   */\n      mstore\n        /* \"#utility.yul\":5091:5106   */\n      dup5\n      dup2\n      and\n        /* \"#utility.yul\":5071:5089   */\n      0x44\n      dup4\n      add\n        /* \"#utility.yul\":5064:5107   */\n      mstore\n        /* \"#utility.yul\":5123:5141   */\n      0x64\n      dup1\n      dup4\n      add\n        /* \"#utility.yul\":5116:5150   */\n      dup6\n      swap1\n      mstore\n        /* \"Utils/TransferHelper.sol\":1279:1330  abi.encodeWithSelector(0x23b872dd, from, to, value) */\n      dup4\n      mload\n      dup1\n      dup5\n      sub\n      swap1\n      swap2\n      add\n      dup2\n      mstore\n        /* \"#utility.yul\":4956:4974   */\n      0x84\n      swap1\n      swap3\n      add\n        /* \"Utils/TransferHelper.sol\":1279:1330  abi.encodeWithSelector(0x23b872dd, from, to, value) */\n      dup4\n      mstore\n      0x20\n      dup3\n      add\n      dup1\n      mload\n      sub(shl(0xe0, 0x01), 0x01)\n      and\n      shl(0xe0, 0x23b872dd)\n      or\n      swap1\n      mstore\n        /* \"Utils/TransferHelper.sol\":1254:1341  token.call(\r... */\n      swap2\n      mload\n      0x00\n      swap3\n      dup4\n      swap3\n        /* \"Utils/TransferHelper.sol\":1254:1264  token.call */\n      swap1\n      dup9\n      and\n      swap2\n        /* \"Utils/TransferHelper.sol\":1254:1341  token.call(\r... */\n      tag_402\n      swap2\n        /* \"Utils/TransferHelper.sol\":1279:1330  abi.encodeWithSelector(0x23b872dd, from, to, value) */\n      swap1\n        /* \"Utils/TransferHelper.sol\":1254:1341  token.call(\r... */\n      tag_403\n      jump\t// in\n    tag_402:\n      0x00\n      mload(0x40)\n      dup1\n      dup4\n      sub\n      dup2\n      0x00\n      dup7\n      gas\n      call\n      swap2\n      pop\n      pop\n      returndatasize\n      dup1\n      0x00\n      dup2\n      eq\n      tag_406\n      jumpi\n      mload(0x40)\n      swap2\n      pop\n      and(add(returndatasize, 0x3f), not(0x1f))\n      dup3\n      add\n      0x40\n      mstore\n      returndatasize\n      dup3\n      mstore\n      returndatasize\n      0x00\n      0x20\n      dup5\n      add\n      returndatacopy\n      jump(tag_405)\n    tag_406:\n      0x60\n      swap2\n      pop\n    tag_405:\n      pop\n        /* \"Utils/TransferHelper.sol\":1218:1341  (bool success, bytes memory data) = token.call(\r... */\n      swap2\n      pop\n      swap2\n      pop\n        /* \"Utils/TransferHelper.sol\":1374:1381  success */\n      dup2\n        /* \"Utils/TransferHelper.sol\":1374:1431  success && (data.length == 0 || abi.decode(data, (bool))) */\n      dup1\n      iszero\n      tag_409\n      jumpi\n      pop\n        /* \"Utils/TransferHelper.sol\":1386:1397  data.length */\n      dup1\n      mload\n        /* \"Utils/TransferHelper.sol\":1386:1402  data.length == 0 */\n      iszero\n      dup1\n        /* \"Utils/TransferHelper.sol\":1386:1430  data.length == 0 || abi.decode(data, (bool)) */\n      tag_409\n      jumpi\n      pop\n        /* \"Utils/TransferHelper.sol\":1417:1421  data */\n      dup1\n        /* \"Utils/TransferHelper.sol\":1406:1430  abi.decode(data, (bool)) */\n      dup1\n      0x20\n      add\n      swap1\n      mload\n      dup2\n      add\n      swap1\n      tag_409\n      swap2\n      swap1\n      tag_181\n      jump\t// in\n    tag_409:\n        /* \"Utils/TransferHelper.sol\":1352:1495  require(\r... */\n      tag_410\n      jumpi\n      mload(0x40)\n      shl(0xe5, 0x461bcd)\n      dup2\n      mstore\n        /* \"#utility.yul\":10778:10780   */\n      0x20\n        /* \"Utils/TransferHelper.sol\":1352:1495  require(\r... */\n      0x04\n      dup3\n      add\n        /* \"#utility.yul\":10760:10781   */\n      mstore\n        /* \"#utility.yul\":10817:10819   */\n      0x24\n        /* \"#utility.yul\":10797:10815   */\n      dup1\n      dup3\n      add\n        /* \"#utility.yul\":10790:10820   */\n      mstore\n        /* \"#utility.yul\":10856:10890   */\n      0x5472616e7366657248656c7065723a205452414e534645525f46524f4d5f4641\n        /* \"#utility.yul\":10836:10854   */\n      0x44\n      dup3\n      add\n        /* \"#utility.yul\":10829:10891   */\n      mstore\n      shl(0xe2, 0x12531151)\n        /* \"#utility.yul\":10907:10925   */\n      0x64\n      dup3\n      add\n        /* \"#utility.yul\":10900:10934   */\n      mstore\n        /* \"#utility.yul\":10951:10970   */\n      0x84\n      add\n        /* \"Utils/TransferHelper.sol\":1352:1495  require(\r... */\n      tag_139\n        /* \"#utility.yul\":10750:10976   */\n      jump\n        /* \"Utils/TransferHelper.sol\":1352:1495  require(\r... */\n    tag_410:\n        /* \"Utils/TransferHelper.sol\":1207:1503  {\r... */\n      pop\n      pop\n        /* \"Utils/TransferHelper.sol\":1073:1503  function safeTransferFrom(\r... */\n      pop\n      pop\n      pop\n      pop\n      jump\t// out\n        /* \"Utils/EnumerableSet.sol\":8831:8998  function contains(AddressSet storage set, address value) internal view returns (bool) {\r... */\n    tag_348:\n      sub(shl(0xa0, 0x01), 0x01)\n        /* \"Utils/EnumerableSet.sol\":8965:8988  uint256(uint160(value)) */\n      dup2\n      and\n        /* \"Utils/EnumerableSet.sol\":8911:8915  bool */\n      0x00\n        /* \"Utils/EnumerableSet.sol\":4367:4386  set._indexes[value] */\n      swap1\n      dup2\n      mstore\n        /* \"Utils/EnumerableSet.sol\":4367:4379  set._indexes */\n      0x01\n      dup4\n      add\n        /* \"Utils/EnumerableSet.sol\":4367:4386  set._indexes[value] */\n      0x20\n      mstore\n      0x40\n      dup2\n      keccak256\n      sload\n        /* \"Utils/EnumerableSet.sol\":4367:4391  set._indexes[value] != 0 */\n      iszero\n      iszero\n        /* \"Utils/EnumerableSet.sol\":8935:8990  _contains(set._inner, bytes32(uint256(uint160(value)))) */\n      tag_389\n        /* \"Utils/EnumerableSet.sol\":4270:4399  function _contains(Set storage set, bytes32 value) private view returns (bool) {\r... */\n      jump\n        /* \"Utils/EnumerableSet.sol\":2174:2588  function _add(Set storage set, bytes32 value) private returns (bool) {\r... */\n    tag_390:\n        /* \"Utils/EnumerableSet.sol\":2237:2241  bool */\n      0x00\n        /* \"Utils/EnumerableSet.sol\":4367:4386  set._indexes[value] */\n      dup2\n      dup2\n      mstore\n        /* \"Utils/EnumerableSet.sol\":4367:4379  set._indexes */\n      0x01\n      dup4\n      add\n        /* \"Utils/EnumerableSet.sol\":4367:4386  set._indexes[value] */\n      0x20\n      mstore\n      0x40\n      dup2\n      keccak256\n      sload\n        /* \"Utils/EnumerableSet.sol\":2254:2581  if (!_contains(set, value)) {\r... */\n      tag_418\n      jumpi\n      pop\n        /* \"Utils/EnumerableSet.sol\":2297:2320  set._values.push(value) */\n      dup2\n      sload\n      0x01\n      dup2\n      dup2\n      add\n      dup5\n      sstore\n        /* \"Utils/EnumerableSet.sol\":2297:2308  set._values */\n      0x00\n        /* \"Utils/EnumerableSet.sol\":2297:2320  set._values.push(value) */\n      dup5\n      dup2\n      mstore\n      0x20\n      dup1\n      dup3\n      keccak256\n      swap1\n      swap4\n      add\n      dup5\n      swap1\n      sstore\n        /* \"Utils/EnumerableSet.sol\":2480:2498  set._values.length */\n      dup5\n      sload\n        /* \"Utils/EnumerableSet.sol\":2458:2477  set._indexes[value] */\n      dup5\n      dup3\n      mstore\n        /* \"Utils/EnumerableSet.sol\":2458:2470  set._indexes */\n      dup3\n      dup7\n      add\n        /* \"Utils/EnumerableSet.sol\":2458:2477  set._indexes[value] */\n      swap1\n      swap4\n      mstore\n      0x40\n      swap1\n      keccak256\n        /* \"Utils/EnumerableSet.sol\":2458:2498  set._indexes[value] = set._values.length */\n      swap2\n      swap1\n      swap2\n      sstore\n        /* \"Utils/EnumerableSet.sol\":2513:2524  return true */\n      jump(tag_388)\n        /* \"Utils/EnumerableSet.sol\":2254:2581  if (!_contains(set, value)) {\r... */\n    tag_418:\n      pop\n        /* \"Utils/EnumerableSet.sol\":2564:2569  false */\n      0x00\n        /* \"Utils/EnumerableSet.sol\":2557:2569  return false */\n      jump(tag_388)\n        /* \"#utility.yul\":14:156   */\n    tag_423:\n        /* \"#utility.yul\":90:110   */\n      dup1\n      calldataload\n        /* \"#utility.yul\":119:150   */\n      tag_425\n        /* \"#utility.yul\":90:110   */\n      dup2\n        /* \"#utility.yul\":119:150   */\n      tag_426\n      jump\t// in\n    tag_425:\n        /* \"#utility.yul\":71:156   */\n      swap2\n      swap1\n      pop\n      jump\t// out\n        /* \"#utility.yul\":161:408   */\n    tag_54:\n        /* \"#utility.yul\":220:226   */\n      0x00\n        /* \"#utility.yul\":273:275   */\n      0x20\n        /* \"#utility.yul\":261:270   */\n      dup3\n        /* \"#utility.yul\":252:259   */\n      dup5\n        /* \"#utility.yul\":248:271   */\n      sub\n        /* \"#utility.yul\":244:276   */\n      slt\n        /* \"#utility.yul\":241:243   */\n      iszero\n      tag_428\n      jumpi\n        /* \"#utility.yul\":289:290   */\n      0x00\n        /* \"#utility.yul\":286:287   */\n      dup1\n        /* \"#utility.yul\":279:291   */\n      revert\n        /* \"#utility.yul\":241:243   */\n    tag_428:\n        /* \"#utility.yul\":328:337   */\n      dup2\n        /* \"#utility.yul\":315:338   */\n      calldataload\n        /* \"#utility.yul\":347:378   */\n      tag_429\n        /* \"#utility.yul\":372:377   */\n      dup2\n        /* \"#utility.yul\":347:378   */\n      tag_426\n      jump\t// in\n    tag_429:\n        /* \"#utility.yul\":397:402   */\n      swap4\n        /* \"#utility.yul\":231:408   */\n      swap3\n      pop\n      pop\n      pop\n      jump\t// out\n        /* \"#utility.yul\":413:1887   */\n    tag_76:\n        /* \"#utility.yul\":591:597   */\n      0x00\n        /* \"#utility.yul\":599:605   */\n      dup1\n        /* \"#utility.yul\":607:613   */\n      0x00\n        /* \"#utility.yul\":615:621   */\n      dup1\n        /* \"#utility.yul\":623:629   */\n      0x00\n        /* \"#utility.yul\":631:637   */\n      dup1\n        /* \"#utility.yul\":639:645   */\n      0x00\n        /* \"#utility.yul\":692:695   */\n      0x01e0\n        /* \"#utility.yul\":680:689   */\n      dup9\n        /* \"#utility.yul\":671:678   */\n      dup11\n        /* \"#utility.yul\":667:690   */\n      sub\n        /* \"#utility.yul\":663:696   */\n      slt\n        /* \"#utility.yul\":660:662   */\n      iszero\n      tag_431\n      jumpi\n        /* \"#utility.yul\":709:710   */\n      0x00\n        /* \"#utility.yul\":706:707   */\n      dup1\n        /* \"#utility.yul\":699:711   */\n      revert\n        /* \"#utility.yul\":660:662   */\n    tag_431:\n        /* \"#utility.yul\":748:757   */\n      dup8\n        /* \"#utility.yul\":735:758   */\n      calldataload\n        /* \"#utility.yul\":767:798   */\n      tag_432\n        /* \"#utility.yul\":792:797   */\n      dup2\n        /* \"#utility.yul\":767:798   */\n      tag_426\n      jump\t// in\n    tag_432:\n        /* \"#utility.yul\":817:822   */\n      swap7\n      pop\n        /* \"#utility.yul\":841:843   */\n      0x20\n        /* \"#utility.yul\":880:898   */\n      dup9\n      dup2\n      add\n        /* \"#utility.yul\":867:899   */\n      calldataload\n        /* \"#utility.yul\":908:941   */\n      tag_433\n        /* \"#utility.yul\":867:899   */\n      dup2\n        /* \"#utility.yul\":908:941   */\n      tag_426\n      jump\t// in\n    tag_433:\n        /* \"#utility.yul\":960:967   */\n      swap7\n      pop\n        /* \"#utility.yul\":1019:1021   */\n      0x40\n        /* \"#utility.yul\":1004:1022   */\n      dup10\n      add\n        /* \"#utility.yul\":991:1023   */\n      calldataload\n        /* \"#utility.yul\":1032:1065   */\n      tag_434\n        /* \"#utility.yul\":991:1023   */\n      dup2\n        /* \"#utility.yul\":1032:1065   */\n      tag_426\n      jump\t// in\n    tag_434:\n        /* \"#utility.yul\":1084:1091   */\n      swap6\n      pop\n        /* \"#utility.yul\":1129:1132   */\n      0x7f\n        /* \"#utility.yul\":1114:1133   */\n      dup10\n      add\n        /* \"#utility.yul\":1110:1143   */\n      dup11\n      sgt\n        /* \"#utility.yul\":1100:1102   */\n      tag_435\n      jumpi\n        /* \"#utility.yul\":1157:1158   */\n      0x00\n        /* \"#utility.yul\":1154:1155   */\n      dup1\n        /* \"#utility.yul\":1147:1159   */\n      revert\n        /* \"#utility.yul\":1100:1102   */\n    tag_435:\n        /* \"#utility.yul\":1190:1192   */\n      0x40\n        /* \"#utility.yul\":1184:1193   */\n      mload\n        /* \"#utility.yul\":1232:1235   */\n      0x0120\n        /* \"#utility.yul\":1224:1230   */\n      dup2\n        /* \"#utility.yul\":1220:1236   */\n      add\n        /* \"#utility.yul\":1302:1308   */\n      dup2\n        /* \"#utility.yul\":1290:1300   */\n      dup2\n        /* \"#utility.yul\":1287:1309   */\n      lt\n        /* \"#utility.yul\":1266:1284   */\n      0xffffffffffffffff\n        /* \"#utility.yul\":1254:1264   */\n      dup3\n        /* \"#utility.yul\":1251:1285   */\n      gt\n        /* \"#utility.yul\":1248:1310   */\n      or\n        /* \"#utility.yul\":1245:1247   */\n      iszero\n      tag_437\n      jumpi\n        /* \"#utility.yul\":1313:1331   */\n      tag_437\n      tag_438\n      jump\t// in\n    tag_437:\n        /* \"#utility.yul\":1349:1351   */\n      0x40\n        /* \"#utility.yul\":1342:1364   */\n      mstore\n        /* \"#utility.yul\":1384:1390   */\n      dup1\n        /* \"#utility.yul\":1425:1427   */\n      0x60\n        /* \"#utility.yul\":1410:1428   */\n      dup12\n      add\n        /* \"#utility.yul\":1462:1465   */\n      0x0180\n        /* \"#utility.yul\":1447:1466   */\n      dup13\n      add\n        /* \"#utility.yul\":1478:1493   */\n      dup14\n      dup2\n      gt\n        /* \"#utility.yul\":1475:1477   */\n      iszero\n      tag_439\n      jumpi\n        /* \"#utility.yul\":1506:1507   */\n      0x00\n        /* \"#utility.yul\":1503:1504   */\n      dup1\n        /* \"#utility.yul\":1496:1508   */\n      revert\n        /* \"#utility.yul\":1475:1477   */\n    tag_439:\n        /* \"#utility.yul\":1528:1529   */\n      0x00\n        /* \"#utility.yul\":1538:1703   */\n    tag_440:\n        /* \"#utility.yul\":1552:1556   */\n      0x09\n        /* \"#utility.yul\":1549:1550   */\n      dup2\n        /* \"#utility.yul\":1546:1557   */\n      lt\n        /* \"#utility.yul\":1538:1703   */\n      iszero\n      tag_442\n      jumpi\n        /* \"#utility.yul\":1611:1628   */\n      dup3\n      calldataload\n        /* \"#utility.yul\":1599:1629   */\n      dup5\n      mstore\n        /* \"#utility.yul\":1649:1661   */\n      swap3\n      dup6\n      add\n      swap3\n        /* \"#utility.yul\":1681:1693   */\n      swap2\n      dup6\n      add\n      swap2\n        /* \"#utility.yul\":1572:1573   */\n      0x01\n        /* \"#utility.yul\":1565:1574   */\n      add\n        /* \"#utility.yul\":1538:1703   */\n      jump(tag_440)\n    tag_442:\n      pop\n        /* \"#utility.yul\":1722:1728   */\n      swap3\n      swap8\n      pop\n      pop\n        /* \"#utility.yul\":1747:1763   */\n      swap1\n      calldataload\n      swap5\n      pop\n        /* \"#utility.yul\":1782:1829   */\n      tag_443\n      swap2\n      pop\n      pop\n        /* \"#utility.yul\":1824:1827   */\n      0x01a0\n        /* \"#utility.yul\":1809:1828   */\n      dup10\n      add\n        /* \"#utility.yul\":1782:1829   */\n      tag_423\n      jump\t// in\n    tag_443:\n        /* \"#utility.yul\":1772:1829   */\n      swap2\n      pop\n        /* \"#utility.yul\":1876:1879   */\n      0x01c0\n        /* \"#utility.yul\":1865:1874   */\n      dup9\n        /* \"#utility.yul\":1861:1880   */\n      add\n        /* \"#utility.yul\":1848:1881   */\n      calldataload\n        /* \"#utility.yul\":1838:1881   */\n      swap1\n      pop\n        /* \"#utility.yul\":650:1887   */\n      swap3\n      swap6\n      swap9\n      swap2\n      swap5\n      swap8\n      pop\n      swap3\n      swap6\n      pop\n      jump\t// out\n        /* \"#utility.yul\":1892:2133   */\n    tag_117:\n        /* \"#utility.yul\":1948:1954   */\n      0x00\n        /* \"#utility.yul\":2001:2003   */\n      0x20\n        /* \"#utility.yul\":1989:1998   */\n      dup3\n        /* \"#utility.yul\":1980:1987   */\n      dup5\n        /* \"#utility.yul\":1976:1999   */\n      sub\n        /* \"#utility.yul\":1972:2004   */\n      slt\n        /* \"#utility.yul\":1969:1971   */\n      iszero\n      tag_445\n      jumpi\n        /* \"#utility.yul\":2017:2018   */\n      0x00\n        /* \"#utility.yul\":2014:2015   */\n      dup1\n        /* \"#utility.yul\":2007:2019   */\n      revert\n        /* \"#utility.yul\":1969:1971   */\n    tag_445:\n        /* \"#utility.yul\":2056:2065   */\n      dup2\n        /* \"#utility.yul\":2043:2066   */\n      calldataload\n        /* \"#utility.yul\":2075:2103   */\n      tag_429\n        /* \"#utility.yul\":2097:2102   */\n      dup2\n        /* \"#utility.yul\":2075:2103   */\n      tag_447\n      jump\t// in\n        /* \"#utility.yul\":2138:2383   */\n    tag_181:\n        /* \"#utility.yul\":2205:2211   */\n      0x00\n        /* \"#utility.yul\":2258:2260   */\n      0x20\n        /* \"#utility.yul\":2246:2255   */\n      dup3\n        /* \"#utility.yul\":2237:2244   */\n      dup5\n        /* \"#utility.yul\":2233:2256   */\n      sub\n        /* \"#utility.yul\":2229:2261   */\n      slt\n        /* \"#utility.yul\":2226:2228   */\n      iszero\n      tag_449\n      jumpi\n        /* \"#utility.yul\":2274:2275   */\n      0x00\n        /* \"#utility.yul\":2271:2272   */\n      dup1\n        /* \"#utility.yul\":2264:2276   */\n      revert\n        /* \"#utility.yul\":2226:2228   */\n    tag_449:\n        /* \"#utility.yul\":2306:2315   */\n      dup2\n        /* \"#utility.yul\":2300:2316   */\n      mload\n        /* \"#utility.yul\":2325:2353   */\n      tag_429\n        /* \"#utility.yul\":2347:2352   */\n      dup2\n        /* \"#utility.yul\":2325:2353   */\n      tag_447\n      jump\t// in\n        /* \"#utility.yul\":2388:2568   */\n    tag_97:\n        /* \"#utility.yul\":2447:2453   */\n      0x00\n        /* \"#utility.yul\":2500:2502   */\n      0x20\n        /* \"#utility.yul\":2488:2497   */\n      dup3\n        /* \"#utility.yul\":2479:2486   */\n      dup5\n        /* \"#utility.yul\":2475:2498   */\n      sub\n        /* \"#utility.yul\":2471:2503   */\n      slt\n        /* \"#utility.yul\":2468:2470   */\n      iszero\n      tag_452\n      jumpi\n        /* \"#utility.yul\":2516:2517   */\n      0x00\n        /* \"#utility.yul\":2513:2514   */\n      dup1\n        /* \"#utility.yul\":2506:2518   */\n      revert\n        /* \"#utility.yul\":2468:2470   */\n    tag_452:\n      pop\n        /* \"#utility.yul\":2539:2562   */\n      calldataload\n      swap2\n        /* \"#utility.yul\":2458:2568   */\n      swap1\n      pop\n      jump\t// out\n        /* \"#utility.yul\":2573:2757   */\n    tag_163:\n        /* \"#utility.yul\":2643:2649   */\n      0x00\n        /* \"#utility.yul\":2696:2698   */\n      0x20\n        /* \"#utility.yul\":2684:2693   */\n      dup3\n        /* \"#utility.yul\":2675:2682   */\n      dup5\n        /* \"#utility.yul\":2671:2694   */\n      sub\n        /* \"#utility.yul\":2667:2699   */\n      slt\n        /* \"#utility.yul\":2664:2666   */\n      iszero\n      tag_454\n      jumpi\n        /* \"#utility.yul\":2712:2713   */\n      0x00\n        /* \"#utility.yul\":2709:2710   */\n      dup1\n        /* \"#utility.yul\":2702:2714   */\n      revert\n        /* \"#utility.yul\":2664:2666   */\n    tag_454:\n      pop\n        /* \"#utility.yul\":2735:2751   */\n      mload\n      swap2\n        /* \"#utility.yul\":2654:2757   */\n      swap1\n      pop\n      jump\t// out\n        /* \"#utility.yul\":2762:3188   */\n    tag_403:\n        /* \"#utility.yul\":2891:2894   */\n      0x00\n        /* \"#utility.yul\":2929:2935   */\n      dup3\n        /* \"#utility.yul\":2923:2936   */\n      mload\n        /* \"#utility.yul\":2954:2955   */\n      0x00\n        /* \"#utility.yul\":2964:3093   */\n    tag_456:\n        /* \"#utility.yul\":2978:2984   */\n      dup2\n        /* \"#utility.yul\":2975:2976   */\n      dup2\n        /* \"#utility.yul\":2972:2985   */\n      lt\n        /* \"#utility.yul\":2964:3093   */\n      iszero\n      tag_458\n      jumpi\n        /* \"#utility.yul\":3076:3080   */\n      0x20\n        /* \"#utility.yul\":3060:3074   */\n      dup2\n      dup7\n      add\n        /* \"#utility.yul\":3056:3081   */\n      dup2\n      add\n        /* \"#utility.yul\":3050:3082   */\n      mload\n        /* \"#utility.yul\":3037:3048   */\n      dup6\n      dup4\n      add\n        /* \"#utility.yul\":3030:3083   */\n      mstore\n        /* \"#utility.yul\":2993:3005   */\n      add\n        /* \"#utility.yul\":2964:3093   */\n      jump(tag_456)\n    tag_458:\n        /* \"#utility.yul\":3111:3117   */\n      dup2\n        /* \"#utility.yul\":3108:3109   */\n      dup2\n        /* \"#utility.yul\":3105:3118   */\n      gt\n        /* \"#utility.yul\":3102:3104   */\n      iszero\n      tag_459\n      jumpi\n        /* \"#utility.yul\":3146:3147   */\n      0x00\n        /* \"#utility.yul\":3137:3143   */\n      dup3\n        /* \"#utility.yul\":3132:3135   */\n      dup6\n        /* \"#utility.yul\":3128:3144   */\n      add\n        /* \"#utility.yul\":3121:3148   */\n      mstore\n        /* \"#utility.yul\":3102:3104   */\n    tag_459:\n      pop\n        /* \"#utility.yul\":3166:3182   */\n      swap2\n      swap1\n      swap2\n      add\n      swap3\n        /* \"#utility.yul\":2899:3188   */\n      swap2\n      pop\n      pop\n      jump\t// out\n        /* \"#utility.yul\":6561:6912   */\n    tag_192:\n        /* \"#utility.yul\":6763:6765   */\n      0x20\n        /* \"#utility.yul\":6745:6766   */\n      dup1\n      dup3\n      mstore\n        /* \"#utility.yul\":6802:6804   */\n      0x1b\n        /* \"#utility.yul\":6782:6800   */\n      swap1\n      dup3\n      add\n        /* \"#utility.yul\":6775:6805   */\n      mstore\n        /* \"#utility.yul\":6841:6870   */\n      0x416c6c20746f6b656e20686173206265656e2077697468647261770000000000\n        /* \"#utility.yul\":6836:6838   */\n      0x40\n        /* \"#utility.yul\":6821:6839   */\n      dup3\n      add\n        /* \"#utility.yul\":6814:6871   */\n      mstore\n        /* \"#utility.yul\":6903:6905   */\n      0x60\n        /* \"#utility.yul\":6888:6906   */\n      add\n      swap1\n        /* \"#utility.yul\":6735:6912   */\n      jump\t// out\n        /* \"#utility.yul\":11339:11694   */\n    tag_156:\n        /* \"#utility.yul\":11541:11543   */\n      0x20\n        /* \"#utility.yul\":11523:11544   */\n      dup1\n      dup3\n      mstore\n        /* \"#utility.yul\":11580:11582   */\n      0x1f\n        /* \"#utility.yul\":11560:11578   */\n      swap1\n      dup3\n      add\n        /* \"#utility.yul\":11553:11583   */\n      mstore\n        /* \"#utility.yul\":11619:11652   */\n      0x5265656e7472616e637947756172643a207265656e7472616e742063616c6c00\n        /* \"#utility.yul\":11614:11616   */\n      0x40\n        /* \"#utility.yul\":11599:11617   */\n      dup3\n      add\n        /* \"#utility.yul\":11592:11653   */\n      mstore\n        /* \"#utility.yul\":11685:11687   */\n      0x60\n        /* \"#utility.yul\":11670:11688   */\n      add\n      swap1\n        /* \"#utility.yul\":11513:11694   */\n      jump\t// out\n        /* \"#utility.yul\":13722:13850   */\n    tag_206:\n        /* \"#utility.yul\":13762:13765   */\n      0x00\n        /* \"#utility.yul\":13793:13794   */\n      dup3\n        /* \"#utility.yul\":13789:13795   */\n      not\n        /* \"#utility.yul\":13786:13787   */\n      dup3\n        /* \"#utility.yul\":13783:13796   */\n      gt\n        /* \"#utility.yul\":13780:13782   */\n      iszero\n      tag_490\n      jumpi\n        /* \"#utility.yul\":13799:13817   */\n      tag_490\n      tag_491\n      jump\t// in\n    tag_490:\n      pop\n        /* \"#utility.yul\":13835:13844   */\n      add\n      swap1\n        /* \"#utility.yul\":13770:13850   */\n      jump\t// out\n        /* \"#utility.yul\":13855:14072   */\n    tag_266:\n        /* \"#utility.yul\":13895:13896   */\n      0x00\n        /* \"#utility.yul\":13921:13922   */\n      dup3\n        /* \"#utility.yul\":13911:13913   */\n      tag_493\n      jumpi\n        /* \"#utility.yul\":13965:13975   */\n      0x4e487b71\n        /* \"#utility.yul\":13960:13963   */\n      0xe0\n        /* \"#utility.yul\":13956:13976   */\n      shl\n        /* \"#utility.yul\":13953:13954   */\n      0x00\n        /* \"#utility.yul\":13946:13977   */\n      mstore\n        /* \"#utility.yul\":14000:14004   */\n      0x12\n        /* \"#utility.yul\":13997:13998   */\n      0x04\n        /* \"#utility.yul\":13990:14005   */\n      mstore\n        /* \"#utility.yul\":14028:14032   */\n      0x24\n        /* \"#utility.yul\":14025:14026   */\n      0x00\n        /* \"#utility.yul\":14018:14033   */\n      revert\n        /* \"#utility.yul\":13911:13913   */\n    tag_493:\n      pop\n        /* \"#utility.yul\":14057:14066   */\n      div\n      swap1\n        /* \"#utility.yul\":13901:14072   */\n      jump\t// out\n        /* \"#utility.yul\":14077:14499   */\n    tag_494:\n        /* \"#utility.yul\":14166:14167   */\n      0x01\n        /* \"#utility.yul\":14209:14214   */\n      dup2\n        /* \"#utility.yul\":14166:14167   */\n      dup2\n        /* \"#utility.yul\":14223:14493   */\n    tag_496:\n        /* \"#utility.yul\":14244:14251   */\n      dup1\n        /* \"#utility.yul\":14234:14242   */\n      dup6\n        /* \"#utility.yul\":14231:14252   */\n      gt\n        /* \"#utility.yul\":14223:14493   */\n      iszero\n      tag_498\n      jumpi\n        /* \"#utility.yul\":14303:14307   */\n      dup2\n        /* \"#utility.yul\":14299:14300   */\n      0x00\n        /* \"#utility.yul\":14295:14301   */\n      not\n        /* \"#utility.yul\":14291:14308   */\n      div\n        /* \"#utility.yul\":14285:14289   */\n      dup3\n        /* \"#utility.yul\":14282:14309   */\n      gt\n        /* \"#utility.yul\":14279:14281   */\n      iszero\n      tag_500\n      jumpi\n        /* \"#utility.yul\":14312:14330   */\n      tag_500\n      tag_491\n      jump\t// in\n    tag_500:\n        /* \"#utility.yul\":14362:14369   */\n      dup1\n        /* \"#utility.yul\":14352:14360   */\n      dup6\n        /* \"#utility.yul\":14348:14370   */\n      and\n        /* \"#utility.yul\":14345:14347   */\n      iszero\n      tag_501\n      jumpi\n        /* \"#utility.yul\":14382:14398   */\n      swap2\n      dup2\n      mul\n      swap2\n        /* \"#utility.yul\":14345:14347   */\n    tag_501:\n        /* \"#utility.yul\":14461:14483   */\n      swap4\n      dup5\n      shr\n      swap4\n        /* \"#utility.yul\":14421:14436   */\n      swap1\n      dup1\n      mul\n      swap1\n        /* \"#utility.yul\":14223:14493   */\n      jump(tag_496)\n    tag_498:\n        /* \"#utility.yul\":14227:14230   */\n      pop\n        /* \"#utility.yul\":14141:14499   */\n      swap3\n      pop\n      swap3\n      swap1\n      pop\n      jump\t// out\n        /* \"#utility.yul\":14504:14635   */\n    tag_219:\n        /* \"#utility.yul\":14564:14569   */\n      0x00\n        /* \"#utility.yul\":14593:14629   */\n      tag_389\n        /* \"#utility.yul\":14620:14628   */\n      dup4\n        /* \"#utility.yul\":14614:14618   */\n      dup4\n        /* \"#utility.yul\":14689:14694   */\n      0x00\n        /* \"#utility.yul\":14719:14727   */\n      dup3\n        /* \"#utility.yul\":14709:14711   */\n      tag_506\n      jumpi\n      pop\n        /* \"#utility.yul\":14760:14761   */\n      0x01\n        /* \"#utility.yul\":14774:14779   */\n      jump(tag_388)\n        /* \"#utility.yul\":14709:14711   */\n    tag_506:\n        /* \"#utility.yul\":14808:14812   */\n      dup2\n        /* \"#utility.yul\":14798:14800   */\n      tag_507\n      jumpi\n      pop\n        /* \"#utility.yul\":14845:14846   */\n      0x00\n        /* \"#utility.yul\":14859:14864   */\n      jump(tag_388)\n        /* \"#utility.yul\":14798:14800   */\n    tag_507:\n        /* \"#utility.yul\":14890:14894   */\n      dup2\n        /* \"#utility.yul\":14908:14909   */\n      0x01\n        /* \"#utility.yul\":14903:14962   */\n      dup2\n      eq\n      tag_509\n      jumpi\n        /* \"#utility.yul\":14976:14977   */\n      0x02\n        /* \"#utility.yul\":14971:15101   */\n      dup2\n      eq\n      tag_510\n      jumpi\n        /* \"#utility.yul\":14883:15101   */\n      jump(tag_508)\n        /* \"#utility.yul\":14903:14962   */\n    tag_509:\n        /* \"#utility.yul\":14933:14934   */\n      0x01\n        /* \"#utility.yul\":14924:14934   */\n      swap2\n      pop\n        /* \"#utility.yul\":14947:14952   */\n      pop\n      jump(tag_388)\n        /* \"#utility.yul\":14971:15101   */\n    tag_510:\n        /* \"#utility.yul\":15008:15011   */\n      0xff\n        /* \"#utility.yul\":14998:15006   */\n      dup5\n        /* \"#utility.yul\":14995:15012   */\n      gt\n        /* \"#utility.yul\":14992:14994   */\n      iszero\n      tag_512\n      jumpi\n        /* \"#utility.yul\":15015:15033   */\n      tag_512\n      tag_491\n      jump\t// in\n    tag_512:\n      pop\n      pop\n        /* \"#utility.yul\":15071:15072   */\n      0x01\n        /* \"#utility.yul\":15057:15073   */\n      dup3\n      shl\n        /* \"#utility.yul\":15086:15091   */\n      jump(tag_388)\n        /* \"#utility.yul\":14883:15101   */\n    tag_508:\n      pop\n        /* \"#utility.yul\":15185:15187   */\n      0x20\n        /* \"#utility.yul\":15175:15183   */\n      dup4\n        /* \"#utility.yul\":15172:15188   */\n      lt\n        /* \"#utility.yul\":15166:15169   */\n      0x0133\n        /* \"#utility.yul\":15160:15164   */\n      dup4\n        /* \"#utility.yul\":15157:15170   */\n      lt\n        /* \"#utility.yul\":15153:15189   */\n      and\n        /* \"#utility.yul\":15147:15149   */\n      0x4e\n        /* \"#utility.yul\":15137:15145   */\n      dup5\n        /* \"#utility.yul\":15134:15150   */\n      lt\n        /* \"#utility.yul\":15129:15131   */\n      0x0b\n        /* \"#utility.yul\":15123:15127   */\n      dup5\n        /* \"#utility.yul\":15120:15132   */\n      lt\n        /* \"#utility.yul\":15116:15151   */\n      and\n        /* \"#utility.yul\":15113:15190   */\n      or\n        /* \"#utility.yul\":15110:15112   */\n      iszero\n      tag_513\n      jumpi\n      pop\n        /* \"#utility.yul\":15222:15241   */\n      dup2\n      dup2\n      exp\n        /* \"#utility.yul\":15254:15259   */\n      jump(tag_388)\n        /* \"#utility.yul\":15110:15112   */\n    tag_513:\n        /* \"#utility.yul\":15301:15335   */\n      tag_514\n        /* \"#utility.yul\":15326:15334   */\n      dup4\n        /* \"#utility.yul\":15320:15324   */\n      dup4\n        /* \"#utility.yul\":15301:15335   */\n      tag_494\n      jump\t// in\n    tag_514:\n        /* \"#utility.yul\":15371:15377   */\n      dup1\n        /* \"#utility.yul\":15367:15368   */\n      0x00\n        /* \"#utility.yul\":15363:15369   */\n      not\n        /* \"#utility.yul\":15359:15378   */\n      div\n        /* \"#utility.yul\":15350:15357   */\n      dup3\n        /* \"#utility.yul\":15347:15379   */\n      gt\n        /* \"#utility.yul\":15344:15346   */\n      iszero\n      tag_516\n      jumpi\n        /* \"#utility.yul\":15382:15400   */\n      tag_516\n      tag_491\n      jump\t// in\n    tag_516:\n        /* \"#utility.yul\":15420:15440   */\n      mul\n      swap4\n        /* \"#utility.yul\":14699:15446   */\n      swap3\n      pop\n      pop\n      pop\n      jump\t// out\n        /* \"#utility.yul\":15451:15619   */\n    tag_224:\n        /* \"#utility.yul\":15491:15498   */\n      0x00\n        /* \"#utility.yul\":15557:15558   */\n      dup2\n        /* \"#utility.yul\":15553:15554   */\n      0x00\n        /* \"#utility.yul\":15549:15555   */\n      not\n        /* \"#utility.yul\":15545:15559   */\n      div\n        /* \"#utility.yul\":15542:15543   */\n      dup4\n        /* \"#utility.yul\":15539:15560   */\n      gt\n        /* \"#utility.yul\":15534:15535   */\n      dup3\n        /* \"#utility.yul\":15527:15536   */\n      iszero\n        /* \"#utility.yul\":15520:15537   */\n      iszero\n        /* \"#utility.yul\":15516:15561   */\n      and\n        /* \"#utility.yul\":15513:15515   */\n      iszero\n      tag_519\n      jumpi\n        /* \"#utility.yul\":15564:15582   */\n      tag_519\n      tag_491\n      jump\t// in\n    tag_519:\n      pop\n        /* \"#utility.yul\":15604:15613   */\n      mul\n      swap1\n        /* \"#utility.yul\":15503:15619   */\n      jump\t// out\n        /* \"#utility.yul\":15624:15749   */\n    tag_189:\n        /* \"#utility.yul\":15664:15668   */\n      0x00\n        /* \"#utility.yul\":15692:15693   */\n      dup3\n        /* \"#utility.yul\":15689:15690   */\n      dup3\n        /* \"#utility.yul\":15686:15694   */\n      lt\n        /* \"#utility.yul\":15683:15685   */\n      iszero\n      tag_522\n      jumpi\n        /* \"#utility.yul\":15697:15715   */\n      tag_522\n      tag_491\n      jump\t// in\n    tag_522:\n      pop\n        /* \"#utility.yul\":15734:15743   */\n      sub\n      swap1\n        /* \"#utility.yul\":15673:15749   */\n      jump\t// out\n        /* \"#utility.yul\":15754:15889   */\n    tag_331:\n        /* \"#utility.yul\":15793:15796   */\n      0x00\n      not(0x00)\n        /* \"#utility.yul\":15814:15831   */\n      dup3\n      eq\n        /* \"#utility.yul\":15811:15813   */\n      iszero\n      tag_525\n      jumpi\n        /* \"#utility.yul\":15834:15852   */\n      tag_525\n      tag_491\n      jump\t// in\n    tag_525:\n      pop\n        /* \"#utility.yul\":15881:15882   */\n      0x01\n        /* \"#utility.yul\":15870:15883   */\n      add\n      swap1\n        /* \"#utility.yul\":15801:15889   */\n      jump\t// out\n        /* \"#utility.yul\":15894:16021   */\n    tag_491:\n        /* \"#utility.yul\":15955:15965   */\n      0x4e487b71\n        /* \"#utility.yul\":15950:15953   */\n      0xe0\n        /* \"#utility.yul\":15946:15966   */\n      shl\n        /* \"#utility.yul\":15943:15944   */\n      0x00\n        /* \"#utility.yul\":15936:15967   */\n      mstore\n        /* \"#utility.yul\":15986:15990   */\n      0x11\n        /* \"#utility.yul\":15983:15984   */\n      0x04\n        /* \"#utility.yul\":15976:15991   */\n      mstore\n        /* \"#utility.yul\":16010:16014   */\n      0x24\n        /* \"#utility.yul\":16007:16008   */\n      0x00\n        /* \"#utility.yul\":16000:16015   */\n      revert\n        /* \"#utility.yul\":16158:16285   */\n    tag_438:\n        /* \"#utility.yul\":16219:16229   */\n      0x4e487b71\n        /* \"#utility.yul\":16214:16217   */\n      0xe0\n        /* \"#utility.yul\":16210:16230   */\n      shl\n        /* \"#utility.yul\":16207:16208   */\n      0x00\n        /* \"#utility.yul\":16200:16231   */\n      mstore\n        /* \"#utility.yul\":16250:16254   */\n      0x41\n        /* \"#utility.yul\":16247:16248   */\n      0x04\n        /* \"#utility.yul\":16240:16255   */\n      mstore\n        /* \"#utility.yul\":16274:16278   */\n      0x24\n        /* \"#utility.yul\":16271:16272   */\n      0x00\n        /* \"#utility.yul\":16264:16279   */\n      revert\n        /* \"#utility.yul\":16290:16421   */\n    tag_426:\n      sub(shl(0xa0, 0x01), 0x01)\n        /* \"#utility.yul\":16365:16396   */\n      dup2\n      and\n        /* \"#utility.yul\":16355:16397   */\n      dup2\n      eq\n        /* \"#utility.yul\":16345:16347   */\n      tag_146\n      jumpi\n        /* \"#utility.yul\":16411:16412   */\n      0x00\n        /* \"#utility.yul\":16408:16409   */\n      dup1\n        /* \"#utility.yul\":16401:16413   */\n      revert\n        /* \"#utility.yul\":16426:16544   */\n    tag_447:\n        /* \"#utility.yul\":16512:16517   */\n      dup1\n        /* \"#utility.yul\":16505:16518   */\n      iszero\n        /* \"#utility.yul\":16498:16519   */\n      iszero\n        /* \"#utility.yul\":16491:16496   */\n      dup2\n        /* \"#utility.yul\":16488:16520   */\n      eq\n        /* \"#utility.yul\":16478:16480   */\n      tag_146\n      jumpi\n        /* \"#utility.yul\":16534:16535   */\n      0x00\n        /* \"#utility.yul\":16531:16532   */\n      dup1\n        /* \"#utility.yul\":16524:16536   */\n      revert\n\n    auxdata: 0xa2646970667358221220555ef1133e90df923734ba2c3b871b1ef4e27e0ade2c79a95067784fd37ac43664736f6c63430008050033\n}\n",
				"bytecode": {
					"linkReferences": {},
					"object": "608060405260016000556200001433620000a0565b601b805473c778417e063141139fce010982780140aa0cd5ab6001600160a01b031990911617905562000069601c736ccb41eeda5a073076f3e7dc1614c185b5fa41ed620000f2602090811b620017dc17901c565b5062000099734f0b12bbf40fc182559822a5b1db6d34dbc3e016601c620000f260201b620017dc1790919060201c565b5062000164565b600180546001600160a01b038381166001600160a01b0319831681179093556040519116919082907f8be0079c531659141344cd1fd0a4f28419497f9722a3daafe3b4186f6b6457e090600090a35050565b600062000109836001600160a01b03841662000112565b90505b92915050565b60008181526001830160205260408120546200015b575081546001818101845560008481526020808220909301849055845484825282860190935260409020919091556200010c565b5060006200010c565b611e3b80620001746000396000f3fe6080604052600436106101405760003560e01c80639b25415c116100b6578063cad5b0f71161006f578063cad5b0f714610440578063d4c1dee914610465578063e2d3f4231461047b578063eb002bb0146104ed578063f2fde38b1461050d578063f8b2cb4f1461052d57600080fd5b80639b25415c14610331578063ab33985a14610351578063acfb235514610366578063ad5c4648146103ed578063ae2b09651461040d578063b6b55f251461042d57600080fd5b806356c5f3491161010857806356c5f34914610289578063715018a6146102b6578063861faf5f146102cd5780638da5cb5b146102d55780638edf18e61461030757806395661e701461031c57600080fd5b806312e5d0b91461014557806318856a2f1461017a5780631df4ccfc1461023a578063200d2ed21461025e5780633b5ef2ad14610273575b600080fd5b34801561015157600080fd5b50600d54600e54610160919082565b604080519283526020830191909152015b60405180910390f35b34801561018657600080fd5b50600f54601054601154601254601354601454601554601654601754601854601954601a546101ce9b6001600160a01b039081169b81169a16989796959493929160ff16908c565b604080516001600160a01b039d8e1681529b8d1660208d015299909b16988a01989098526060890196909652608088019490945260a087019290925260c086015260e0850152610100840152610120830152151561014082015261016081019190915261018001610171565b34801561024657600080fd5b50610250601e5481565b604051908152602001610171565b34801561026a57600080fd5b50610250610555565b34801561027f57600080fd5b50610250601f5481565b34801561029557600080fd5b506102506102a4366004611a21565b60036020526000908152604090205481565b3480156102c257600080fd5b506102cb61057e565b005b6102cb6105e9565b3480156102e157600080fd5b506001546001600160a01b03165b6040516001600160a01b039091168152602001610171565b34801561031357600080fd5b506102cb610618565b34801561032857600080fd5b506102cb6108dd565b34801561033d57600080fd5b506102cb61034c366004611a45565b610ab4565b34801561035d57600080fd5b506102cb610e58565b34801561037257600080fd5b50600454600554600654600754600854600954600a54600b546103a5979695949392919060ff8082169161010090041689565b60408051998a5260208a0198909852968801959095526060870193909352608086019190915260a085015260c0840152151560e0830152151561010082015261012001610171565b3480156103f957600080fd5b50601b546102ef906001600160a01b031681565b34801561041957600080fd5b506020546102ef906001600160a01b031681565b6102cb61043b366004611b65565b61107e565b34801561044c57600080fd5b5061045561144d565b6040519015158152602001610171565b34801561047157600080fd5b5061025060215481565b34801561048757600080fd5b506104c5610496366004611a21565b600260208190526000918252604090912080546001820154928201546003830154600490930154919392909185565b604080519586526020860194909452928401919091526060830152608082015260a001610171565b3480156104f957600080fd5b506102cb610508366004611b2b565b61145f565b34801561051957600080fd5b506102cb610528366004611a21565b611714565b34801561053957600080fd5b50610250610548366004611a21565b6001600160a01b03163190565b6013546000904210156105685750600090565b6014544211156105785750600290565b50600190565b6001546001600160a01b031633146105dd5760405162461bcd60e51b815260206004820181905260248201527f4f776e61626c653a2063616c6c6572206973206e6f7420746865206f776e657260448201526064015b60405180910390fd5b6105e760006117fa565b565b60405133904780156108fc02916000818181858888f19350505050158015610615573d6000803e3d6000fd5b50565b600f546001600160a01b0316336001600160a01b0316146106705760405162461bcd60e51b815260206004820152601260248201527127b7363c90383932b9b0b6329037bbb732b960711b60448201526064016105d4565b600260005414156106935760405162461bcd60e51b81526004016105d490611c09565b600260009081556010546040516370a0823160e01b81523060048201526001600160a01b03909116906370a082319060240160206040518083038186803b1580156106dd57600080fd5b505afa1580156106f1573d6000803e3d6000fd5b505050506040513d601f19601f820116820180604052508101906107159190611b7e565b60085460045491925060009161072a9161184c565b600454909150156107535760085460055461075091610749919061184c565b839061184c565b91505b600b5460ff16156107a65760405162461bcd60e51b815260206004820152601d60248201527f4e6f7468696e6720666f72206f776e657220636c61696d20746f6b656e00000060448201526064016105d4565b600b54610100900460ff16156107fe5760405162461bcd60e51b815260206004820152601e60248201527f4e6f7468696e6720666f72206f776e657220726566756e6420746f6b656e000060448201526064016105d4565b600b805460ff191660011790556000601a55601054600f5460405163a9059cbb60e01b81526001600160a01b0391821660048201526024810185905291169063a9059cbb90604401602060405180830381600087803b15801561086057600080fd5b505af1158015610874573d6000803e3d6000fd5b505050506040513d601f19601f820116820180604052508101906108989190611b48565b50600f546040516001600160a01b039091169082156108fc029083906000818181858888f193505050501580156108d3573d6000803e3d6000fd5b5050600160005550565b600260005414156109005760405162461bcd60e51b81526004016105d490611c09565b600260009081556007546004546109179190611d84565b116109345760405162461bcd60e51b81526004016105d490611bd2565b336000908152600260205260409020805461098b5760405162461bcd60e51b8152602060048201526017602482015276165bdd481a185d99481b9bdd08189bdd59da1d081e595d604a1b60448201526064016105d4565b60048101548154116109d05760405162461bcd60e51b815260206004820152600e60248201526d165bdd481c99599d5b9908185b1b60921b60448201526064016105d4565b80546017546000916109fb916103e8916109f5916109ef90849061184c565b90611858565b90611864565b8254909150610a0b908290611d84565b601e6000828254610a1c9190611c40565b909155505060078054829190600090610a36908490611c40565b9250508190555080826004016000828254610a519190611c40565b909155505042600283015560038201546001830154610a709190611d84565b60088054600090610a82908490611c40565b9091555050604051339082156108fc029083906000818181858888f193505050501580156108d3573d6000803e3d6000fd5b600f80546001600160a01b03808a166001600160a01b03199283161790925560108054898416908316811790915560118054938916939092169290921790556040805163313ce56760e01b8152905163313ce56791600480820192602092909190829003018186803b158015610b2957600080fd5b505afa158015610b3d573d6000803e3d6000fd5b505050506040513d601f19601f82011682018060405250810190610b619190611b7e565b610b6c90600a611cbd565b8451610b789190611d65565b6012556020808501516013556040808601516014556060860151601555601154815163313ce56760e01b815291516001600160a01b039091169263313ce5679260048082019391829003018186803b158015610bd357600080fd5b505afa158015610be7573d6000803e3d6000fd5b505050506040513d601f19601f82011682018060405250810190610c0b9190611b7e565b610c1690600a611cbd565b6080850151610c259190611d65565b60165560a084015160175560c08401516018556011546040805163313ce56760e01b815290516001600160a01b039092169163313ce56791600480820192602092909190829003018186803b158015610c7d57600080fd5b505afa158015610c91573d6000803e3d6000fd5b505050506040513d601f19601f82011682018060405250810190610cb59190611b7e565b610cc090600a611cbd565b60e0850151610ccf9190611d65565b600d556011546040805163313ce56760e01b815290516001600160a01b039092169163313ce56791600480820192602092909190829003018186803b158015610d1757600080fd5b505afa158015610d2b573d6000803e3d6000fd5b505050506040513d601f19601f82011682018060405250810190610d4f9190611b7e565b610d5a90600a611cbd565b610100850151610d6a9190611d65565b600e55601154601b546019805460ff19166001600160a01b0392831692909316918214929092179091556040805163313ce56760e01b8152905163313ce56791600480820192602092909190829003018186803b158015610dca57600080fd5b505afa158015610dde573d6000803e3d6000fd5b505050506040513d601f19601f82011682018060405250810190610e029190611b7e565b610e0d90600a611cbd565b600d54601254610e1c91611858565b610e269190611c58565b601a55601f92909255602080546001600160a01b0319166001600160a01b039290921691909117905560215550505050565b60026000541415610e7b5760405162461bcd60e51b81526004016105d490611c09565b60026000908155600654600554610e929190611d84565b11610eaf5760405162461bcd60e51b81526004016105d490611bd2565b3360009081526002602052604090206001810154610f095760405162461bcd60e51b8152602060048201526017602482015276165bdd481a185d99481b9bdd08189bdd59da1d081e595d604a1b60448201526064016105d4565b8060030154816001015411610f515760405162461bcd60e51b815260206004820152600e60248201526d165bdd4818db185a5b48185b1b1b60921b60448201526064016105d4565b6000610f7b6103e86109f584600101546109ef600f600901546103e861184c90919063ffffffff16565b90508060046002016000828254610f929190611c40565b9091555050601a8054829190600090610fac908490611d84565b9250508190555080826003016000828254610fc79190611c40565b909155505042600283015560048201548254610fe39190611d84565b60098054600090610ff5908490611c40565b909155505060105460405163a9059cbb60e01b8152336004820152602481018390526001600160a01b039091169063a9059cbb90604401602060405180830381600087803b15801561104657600080fd5b505af115801561105a573d6000803e3d6000fd5b505050506040513d601f19601f820116820180604052508101906108d39190611b48565b600260005414156110a15760405162461bcd60e51b81526004016105d490611c09565b600260008181553381526020919091526040812090829081906103e83483111561110d5760405162461bcd60e51b815260206004820152601a60248201527f506c656173652070726f76696465206e617669746520636f696e00000000000060448201526064016105d4565b6015548310156111525760405162461bcd60e51b815260206004820152601060248201526f4e6f7420656e6f7567682076616c756560801b60448201526064016105d4565b6016548311156111955760405162461bcd60e51b815260206004820152600e60248201526d4f766572666c6f772076616c756560901b60448201526064016105d4565b61119d61144d565b6111cd576111be816109f5856109ef601f548661184c90919063ffffffff16565b92506111ca8385611d84565b91505b84546016546000916111de91611d84565b600454601a549192506000916111f49190611d84565b905060008183116112055782611207565b815b90508086111561124b5760405162461bcd60e51b815260206004820152600f60248201526e53616c65206973207375636365737360881b60448201526064016105d4565b60006112f2600f60020160009054906101000a90046001600160a01b03166001600160a01b031663313ce5676040518163ffffffff1660e01b815260040160206040518083038186803b1580156112a157600080fd5b505afa1580156112b5573d6000803e3d6000fd5b505050506040513d601f19601f820116820180604052508101906112d99190611b7e565b6112e490600a611cbd565b6012546109f5908a90611858565b9050868960000160008282546113089190611c40565b92505081905550808960010160008282546113239190611c40565b90915550506004805488919060009061133d908490611c40565b909155505060058054829190600090611357908490611c40565b9091555050600a805490600061136c83611d9b565b90915550503360009081526003602052604081208054889290611390908490611c40565b9250508190555085601e60008282546113a99190611c40565b909155505060195460ff1680156113c95750346113c68789611c40565b11155b1561141157336108fc876113dd8a34611d84565b6113e79190611d84565b6040518115909202916000818181858888f1935050505015801561140f573d6000803e3d6000fd5b505b60195460ff1661143c5760115461143c906001600160a01b031633306114378a8c611c40565b611870565b505060016000555050505050505050565b600061145a601c336119a0565b905090565b80156115fb5760065460055460009161147791611d84565b116114945760405162461bcd60e51b81526004016105d490611bd2565b33600090815260026020526040902060038101546001820154116115065760405162461bcd60e51b8152602060048201526024808201527f596f7520636c61696d20616c6c206f722068617665206e6f7420626f75676874604482015263081e595d60e21b60648201526084016105d4565b601054600182015460405163a9059cbb60e01b815233600482015260248101919091526001600160a01b039091169063a9059cbb90604401602060405180830381600087803b15801561155857600080fd5b505af115801561156c573d6000803e3d6000fd5b505050506040513d601f19601f820116820180604052508101906115909190611b48565b506001810154600680546000906115a8908490611c40565b90915550506001810154601a80546000906115c4908490611d84565b909155505060018101546003820180546000906115e2908490611c40565b9091555050600080825560018201554260029091015550565b60075460045460009161160d91611d84565b1161162a5760405162461bcd60e51b81526004016105d490611bd2565b33600090815260026020526040902080546116955760405162461bcd60e51b815260206004820152602560248201527f596f7520726566756e6420616c6c206f722068617665206e6f7420626f7567686044820152641d081e595d60da1b60648201526084016105d4565b80546116a18180611d84565b601e60008282546116b29190611c40565b9091555050600780548291906000906116cc908490611c40565b9091555050600080835560018301819055426002840155604051339183156108fc02918491818181858888f1935050505015801561170e573d6000803e3d6000fd5b50505050565b6001546001600160a01b0316331461176e5760405162461bcd60e51b815260206004820181905260248201527f4f776e61626c653a2063616c6c6572206973206e6f7420746865206f776e657260448201526064016105d4565b6001600160a01b0381166117d35760405162461bcd60e51b815260206004820152602660248201527f4f776e61626c653a206e6577206f776e657220697320746865207a65726f206160448201526564647265737360d01b60648201526084016105d4565b610615816117fa565b60006117f1836001600160a01b0384166119c2565b90505b92915050565b600180546001600160a01b038381166001600160a01b0319831681179093556040519116919082907f8be0079c531659141344cd1fd0a4f28419497f9722a3daafe3b4186f6b6457e090600090a35050565b60006117f18284611d84565b60006117f18284611d65565b60006117f18284611c58565b604080516001600160a01b0385811660248301528481166044830152606480830185905283518084039091018152608490920183526020820180516001600160e01b03166323b872dd60e01b17905291516000928392908816916118d49190611b97565b6000604051808303816000865af19150503d8060008114611911576040519150601f19603f3d011682016040523d82523d6000602084013e611916565b606091505b50915091508180156119405750805115806119405750808060200190518101906119409190611b48565b6119985760405162461bcd60e51b8152602060048201526024808201527f5472616e7366657248656c7065723a205452414e534645525f46524f4d5f46416044820152631253115160e21b60648201526084016105d4565b505050505050565b6001600160a01b038116600090815260018301602052604081205415156117f1565b6000818152600183016020526040812054611a09575081546001818101845560008481526020808220909301849055845484825282860190935260409020919091556117f4565b5060006117f4565b8035611a1c81611de2565b919050565b600060208284031215611a3357600080fd5b8135611a3e81611de2565b9392505050565b60008060008060008060006101e0888a031215611a6157600080fd5b8735611a6c81611de2565b9650602088810135611a7d81611de2565b96506040890135611a8d81611de2565b9550607f89018a13611a9e57600080fd5b604051610120810181811067ffffffffffffffff82111715611ac257611ac2611dcc565b6040528060608b016101808c018d811115611adc57600080fd5b60005b6009811015611afc57823584529285019291850191600101611adf565b509297505090359450611b159150506101a08901611a11565b91506101c0880135905092959891949750929550565b600060208284031215611b3d57600080fd5b8135611a3e81611df7565b600060208284031215611b5a57600080fd5b8151611a3e81611df7565b600060208284031215611b7757600080fd5b5035919050565b600060208284031215611b9057600080fd5b5051919050565b6000825160005b81811015611bb85760208186018101518583015201611b9e565b81811115611bc7576000828501525b509190910192915050565b6020808252601b908201527f416c6c20746f6b656e20686173206265656e2077697468647261770000000000604082015260600190565b6020808252601f908201527f5265656e7472616e637947756172643a207265656e7472616e742063616c6c00604082015260600190565b60008219821115611c5357611c53611db6565b500190565b600082611c7557634e487b7160e01b600052601260045260246000fd5b500490565b600181815b80851115611cb5578160001904821115611c9b57611c9b611db6565b80851615611ca857918102915b93841c9390800290611c7f565b509250929050565b60006117f18383600082611cd3575060016117f4565b81611ce0575060006117f4565b8160018114611cf65760028114611d0057611d1c565b60019150506117f4565b60ff841115611d1157611d11611db6565b50506001821b6117f4565b5060208310610133831016604e8410600b8410161715611d3f575081810a6117f4565b611d498383611c7a565b8060001904821115611d5d57611d5d611db6565b029392505050565b6000816000190483118215151615611d7f57611d7f611db6565b500290565b600082821015611d9657611d96611db6565b500390565b6000600019821415611daf57611daf611db6565b5060010190565b634e487b7160e01b600052601160045260246000fd5b634e487b7160e01b600052604160045260246000fd5b6001600160a01b038116811461061557600080fd5b801515811461061557600080fdfea2646970667358221220555ef1133e90df923734ba2c3b871b1ef4e27e0ade2c79a95067784fd37ac43664736f6c63430008050033",
					"opcodes": "PUSH1 0x80 PUSH1 0x40 MSTORE PUSH1 0x1 PUSH1 0x0 SSTORE PUSH3 0x14 CALLER PUSH3 0xA0 JUMP JUMPDEST PUSH1 0x1B DUP1 SLOAD PUSH20 0xC778417E063141139FCE010982780140AA0CD5AB PUSH1 0x1 PUSH1 0x1 PUSH1 0xA0 SHL SUB NOT SWAP1 SWAP2 AND OR SWAP1 SSTORE PUSH3 0x69 PUSH1 0x1C PUSH20 0x6CCB41EEDA5A073076F3E7DC1614C185B5FA41ED PUSH3 0xF2 PUSH1 0x20 SWAP1 DUP2 SHL PUSH3 0x17DC OR SWAP1 SHR JUMP JUMPDEST POP PUSH3 0x99 PUSH20 0x4F0B12BBF40FC182559822A5B1DB6D34DBC3E016 PUSH1 0x1C PUSH3 0xF2 PUSH1 0x20 SHL PUSH3 0x17DC OR SWAP1 SWAP2 SWAP1 PUSH1 0x20 SHR JUMP JUMPDEST POP PUSH3 0x164 JUMP JUMPDEST PUSH1 0x1 DUP1 SLOAD PUSH1 0x1 PUSH1 0x1 PUSH1 0xA0 SHL SUB DUP4 DUP2 AND PUSH1 0x1 PUSH1 0x1 PUSH1 0xA0 SHL SUB NOT DUP4 AND DUP2 OR SWAP1 SWAP4 SSTORE PUSH1 0x40 MLOAD SWAP2 AND SWAP2 SWAP1 DUP3 SWAP1 PUSH32 0x8BE0079C531659141344CD1FD0A4F28419497F9722A3DAAFE3B4186F6B6457E0 SWAP1 PUSH1 0x0 SWAP1 LOG3 POP POP JUMP JUMPDEST PUSH1 0x0 PUSH3 0x109 DUP4 PUSH1 0x1 PUSH1 0x1 PUSH1 0xA0 SHL SUB DUP5 AND PUSH3 0x112 JUMP JUMPDEST SWAP1 POP JUMPDEST SWAP3 SWAP2 POP POP JUMP JUMPDEST PUSH1 0x0 DUP2 DUP2 MSTORE PUSH1 0x1 DUP4 ADD PUSH1 0x20 MSTORE PUSH1 0x40 DUP2 KECCAK256 SLOAD PUSH3 0x15B JUMPI POP DUP2 SLOAD PUSH1 0x1 DUP2 DUP2 ADD DUP5 SSTORE PUSH1 0x0 DUP5 DUP2 MSTORE PUSH1 0x20 DUP1 DUP3 KECCAK256 SWAP1 SWAP4 ADD DUP5 SWAP1 SSTORE DUP5 SLOAD DUP5 DUP3 MSTORE DUP3 DUP7 ADD SWAP1 SWAP4 MSTORE PUSH1 0x40 SWAP1 KECCAK256 SWAP2 SWAP1 SWAP2 SSTORE PUSH3 0x10C JUMP JUMPDEST POP PUSH1 0x0 PUSH3 0x10C JUMP JUMPDEST PUSH2 0x1E3B DUP1 PUSH3 0x174 PUSH1 0x0 CODECOPY PUSH1 0x0 RETURN INVALID PUSH1 0x80 PUSH1 0x40 MSTORE PUSH1 0x4 CALLDATASIZE LT PUSH2 0x140 JUMPI PUSH1 0x0 CALLDATALOAD PUSH1 0xE0 SHR DUP1 PUSH4 0x9B25415C GT PUSH2 0xB6 JUMPI DUP1 PUSH4 0xCAD5B0F7 GT PUSH2 0x6F JUMPI DUP1 PUSH4 0xCAD5B0F7 EQ PUSH2 0x440 JUMPI DUP1 PUSH4 0xD4C1DEE9 EQ PUSH2 0x465 JUMPI DUP1 PUSH4 0xE2D3F423 EQ PUSH2 0x47B JUMPI DUP1 PUSH4 0xEB002BB0 EQ PUSH2 0x4ED JUMPI DUP1 PUSH4 0xF2FDE38B EQ PUSH2 0x50D JUMPI DUP1 PUSH4 0xF8B2CB4F EQ PUSH2 0x52D JUMPI PUSH1 0x0 DUP1 REVERT JUMPDEST DUP1 PUSH4 0x9B25415C EQ PUSH2 0x331 JUMPI DUP1 PUSH4 0xAB33985A EQ PUSH2 0x351 JUMPI DUP1 PUSH4 0xACFB2355 EQ PUSH2 0x366 JUMPI DUP1 PUSH4 0xAD5C4648 EQ PUSH2 0x3ED JUMPI DUP1 PUSH4 0xAE2B0965 EQ PUSH2 0x40D JUMPI DUP1 PUSH4 0xB6B55F25 EQ PUSH2 0x42D JUMPI PUSH1 0x0 DUP1 REVERT JUMPDEST DUP1 PUSH4 0x56C5F349 GT PUSH2 0x108 JUMPI DUP1 PUSH4 0x56C5F349 EQ PUSH2 0x289 JUMPI DUP1 PUSH4 0x715018A6 EQ PUSH2 0x2B6 JUMPI DUP1 PUSH4 0x861FAF5F EQ PUSH2 0x2CD JUMPI DUP1 PUSH4 0x8DA5CB5B EQ PUSH2 0x2D5 JUMPI DUP1 PUSH4 0x8EDF18E6 EQ PUSH2 0x307 JUMPI DUP1 PUSH4 0x95661E70 EQ PUSH2 0x31C JUMPI PUSH1 0x0 DUP1 REVERT JUMPDEST DUP1 PUSH4 0x12E5D0B9 EQ PUSH2 0x145 JUMPI DUP1 PUSH4 0x18856A2F EQ PUSH2 0x17A JUMPI DUP1 PUSH4 0x1DF4CCFC EQ PUSH2 0x23A JUMPI DUP1 PUSH4 0x200D2ED2 EQ PUSH2 0x25E JUMPI DUP1 PUSH4 0x3B5EF2AD EQ PUSH2 0x273 JUMPI JUMPDEST PUSH1 0x0 DUP1 REVERT JUMPDEST CALLVALUE DUP1 ISZERO PUSH2 0x151 JUMPI PUSH1 0x0 DUP1 REVERT JUMPDEST POP PUSH1 0xD SLOAD PUSH1 0xE SLOAD PUSH2 0x160 SWAP2 SWAP1 DUP3 JUMP JUMPDEST PUSH1 0x40 DUP1 MLOAD SWAP3 DUP4 MSTORE PUSH1 0x20 DUP4 ADD SWAP2 SWAP1 SWAP2 MSTORE ADD JUMPDEST PUSH1 0x40 MLOAD DUP1 SWAP2 SUB SWAP1 RETURN JUMPDEST CALLVALUE DUP1 ISZERO PUSH2 0x186 JUMPI PUSH1 0x0 DUP1 REVERT JUMPDEST POP PUSH1 0xF SLOAD PUSH1 0x10 SLOAD PUSH1 0x11 SLOAD PUSH1 0x12 SLOAD PUSH1 0x13 SLOAD PUSH1 0x14 SLOAD PUSH1 0x15 SLOAD PUSH1 0x16 SLOAD PUSH1 0x17 SLOAD PUSH1 0x18 SLOAD PUSH1 0x19 SLOAD PUSH1 0x1A SLOAD PUSH2 0x1CE SWAP12 PUSH1 0x1 PUSH1 0x1 PUSH1 0xA0 SHL SUB SWAP1 DUP2 AND SWAP12 DUP2 AND SWAP11 AND SWAP9 SWAP8 SWAP7 SWAP6 SWAP5 SWAP4 SWAP3 SWAP2 PUSH1 0xFF AND SWAP1 DUP13 JUMP JUMPDEST PUSH1 0x40 DUP1 MLOAD PUSH1 0x1 PUSH1 0x1 PUSH1 0xA0 SHL SUB SWAP14 DUP15 AND DUP2 MSTORE SWAP12 DUP14 AND PUSH1 0x20 DUP14 ADD MSTORE SWAP10 SWAP1 SWAP12 AND SWAP9 DUP11 ADD SWAP9 SWAP1 SWAP9 MSTORE PUSH1 0x60 DUP10 ADD SWAP7 SWAP1 SWAP7 MSTORE PUSH1 0x80 DUP9 ADD SWAP5 SWAP1 SWAP5 MSTORE PUSH1 0xA0 DUP8 ADD SWAP3 SWAP1 SWAP3 MSTORE PUSH1 0xC0 DUP7 ADD MSTORE PUSH1 0xE0 DUP6 ADD MSTORE PUSH2 0x100 DUP5 ADD MSTORE PUSH2 0x120 DUP4 ADD MSTORE ISZERO ISZERO PUSH2 0x140 DUP3 ADD MSTORE PUSH2 0x160 DUP2 ADD SWAP2 SWAP1 SWAP2 MSTORE PUSH2 0x180 ADD PUSH2 0x171 JUMP JUMPDEST CALLVALUE DUP1 ISZERO PUSH2 0x246 JUMPI PUSH1 0x0 DUP1 REVERT JUMPDEST POP PUSH2 0x250 PUSH1 0x1E SLOAD DUP2 JUMP JUMPDEST PUSH1 0x40 MLOAD SWAP1 DUP2 MSTORE PUSH1 0x20 ADD PUSH2 0x171 JUMP JUMPDEST CALLVALUE DUP1 ISZERO PUSH2 0x26A JUMPI PUSH1 0x0 DUP1 REVERT JUMPDEST POP PUSH2 0x250 PUSH2 0x555 JUMP JUMPDEST CALLVALUE DUP1 ISZERO PUSH2 0x27F JUMPI PUSH1 0x0 DUP1 REVERT JUMPDEST POP PUSH2 0x250 PUSH1 0x1F SLOAD DUP2 JUMP JUMPDEST CALLVALUE DUP1 ISZERO PUSH2 0x295 JUMPI PUSH1 0x0 DUP1 REVERT JUMPDEST POP PUSH2 0x250 PUSH2 0x2A4 CALLDATASIZE PUSH1 0x4 PUSH2 0x1A21 JUMP JUMPDEST PUSH1 0x3 PUSH1 0x20 MSTORE PUSH1 0x0 SWAP1 DUP2 MSTORE PUSH1 0x40 SWAP1 KECCAK256 SLOAD DUP2 JUMP JUMPDEST CALLVALUE DUP1 ISZERO PUSH2 0x2C2 JUMPI PUSH1 0x0 DUP1 REVERT JUMPDEST POP PUSH2 0x2CB PUSH2 0x57E JUMP JUMPDEST STOP JUMPDEST PUSH2 0x2CB PUSH2 0x5E9 JUMP JUMPDEST CALLVALUE DUP1 ISZERO PUSH2 0x2E1 JUMPI PUSH1 0x0 DUP1 REVERT JUMPDEST POP PUSH1 0x1 SLOAD PUSH1 0x1 PUSH1 0x1 PUSH1 0xA0 SHL SUB AND JUMPDEST PUSH1 0x40 MLOAD PUSH1 0x1 PUSH1 0x1 PUSH1 0xA0 SHL SUB SWAP1 SWAP2 AND DUP2 MSTORE PUSH1 0x20 ADD PUSH2 0x171 JUMP JUMPDEST CALLVALUE DUP1 ISZERO PUSH2 0x313 JUMPI PUSH1 0x0 DUP1 REVERT JUMPDEST POP PUSH2 0x2CB PUSH2 0x618 JUMP JUMPDEST CALLVALUE DUP1 ISZERO PUSH2 0x328 JUMPI PUSH1 0x0 DUP1 REVERT JUMPDEST POP PUSH2 0x2CB PUSH2 0x8DD JUMP JUMPDEST CALLVALUE DUP1 ISZERO PUSH2 0x33D JUMPI PUSH1 0x0 DUP1 REVERT JUMPDEST POP PUSH2 0x2CB PUSH2 0x34C CALLDATASIZE PUSH1 0x4 PUSH2 0x1A45 JUMP JUMPDEST PUSH2 0xAB4 JUMP JUMPDEST CALLVALUE DUP1 ISZERO PUSH2 0x35D JUMPI PUSH1 0x0 DUP1 REVERT JUMPDEST POP PUSH2 0x2CB PUSH2 0xE58 JUMP JUMPDEST CALLVALUE DUP1 ISZERO PUSH2 0x372 JUMPI PUSH1 0x0 DUP1 REVERT JUMPDEST POP PUSH1 0x4 SLOAD PUSH1 0x5 SLOAD PUSH1 0x6 SLOAD PUSH1 0x7 SLOAD PUSH1 0x8 SLOAD PUSH1 0x9 SLOAD PUSH1 0xA SLOAD PUSH1 0xB SLOAD PUSH2 0x3A5 SWAP8 SWAP7 SWAP6 SWAP5 SWAP4 SWAP3 SWAP2 SWAP1 PUSH1 0xFF DUP1 DUP3 AND SWAP2 PUSH2 0x100 SWAP1 DIV AND DUP10 JUMP JUMPDEST PUSH1 0x40 DUP1 MLOAD SWAP10 DUP11 MSTORE PUSH1 0x20 DUP11 ADD SWAP9 SWAP1 SWAP9 MSTORE SWAP7 DUP9 ADD SWAP6 SWAP1 SWAP6 MSTORE PUSH1 0x60 DUP8 ADD SWAP4 SWAP1 SWAP4 MSTORE PUSH1 0x80 DUP7 ADD SWAP2 SWAP1 SWAP2 MSTORE PUSH1 0xA0 DUP6 ADD MSTORE PUSH1 0xC0 DUP5 ADD MSTORE ISZERO ISZERO PUSH1 0xE0 DUP4 ADD MSTORE ISZERO ISZERO PUSH2 0x100 DUP3 ADD MSTORE PUSH2 0x120 ADD PUSH2 0x171 JUMP JUMPDEST CALLVALUE DUP1 ISZERO PUSH2 0x3F9 JUMPI PUSH1 0x0 DUP1 REVERT JUMPDEST POP PUSH1 0x1B SLOAD PUSH2 0x2EF SWAP1 PUSH1 0x1 PUSH1 0x1 PUSH1 0xA0 SHL SUB AND DUP2 JUMP JUMPDEST CALLVALUE DUP1 ISZERO PUSH2 0x419 JUMPI PUSH1 0x0 DUP1 REVERT JUMPDEST POP PUSH1 0x20 SLOAD PUSH2 0x2EF SWAP1 PUSH1 0x1 PUSH1 0x1 PUSH1 0xA0 SHL SUB AND DUP2 JUMP JUMPDEST PUSH2 0x2CB PUSH2 0x43B CALLDATASIZE PUSH1 0x4 PUSH2 0x1B65 JUMP JUMPDEST PUSH2 0x107E JUMP JUMPDEST CALLVALUE DUP1 ISZERO PUSH2 0x44C JUMPI PUSH1 0x0 DUP1 REVERT JUMPDEST POP PUSH2 0x455 PUSH2 0x144D JUMP JUMPDEST PUSH1 0x40 MLOAD SWAP1 ISZERO ISZERO DUP2 MSTORE PUSH1 0x20 ADD PUSH2 0x171 JUMP JUMPDEST CALLVALUE DUP1 ISZERO PUSH2 0x471 JUMPI PUSH1 0x0 DUP1 REVERT JUMPDEST POP PUSH2 0x250 PUSH1 0x21 SLOAD DUP2 JUMP JUMPDEST CALLVALUE DUP1 ISZERO PUSH2 0x487 JUMPI PUSH1 0x0 DUP1 REVERT JUMPDEST POP PUSH2 0x4C5 PUSH2 0x496 CALLDATASIZE PUSH1 0x4 PUSH2 0x1A21 JUMP JUMPDEST PUSH1 0x2 PUSH1 0x20 DUP2 SWAP1 MSTORE PUSH1 0x0 SWAP2 DUP3 MSTORE PUSH1 0x40 SWAP1 SWAP2 KECCAK256 DUP1 SLOAD PUSH1 0x1 DUP3 ADD SLOAD SWAP3 DUP3 ADD SLOAD PUSH1 0x3 DUP4 ADD SLOAD PUSH1 0x4 SWAP1 SWAP4 ADD SLOAD SWAP2 SWAP4 SWAP3 SWAP1 SWAP2 DUP6 JUMP JUMPDEST PUSH1 0x40 DUP1 MLOAD SWAP6 DUP7 MSTORE PUSH1 0x20 DUP7 ADD SWAP5 SWAP1 SWAP5 MSTORE SWAP3 DUP5 ADD SWAP2 SWAP1 SWAP2 MSTORE PUSH1 0x60 DUP4 ADD MSTORE PUSH1 0x80 DUP3 ADD MSTORE PUSH1 0xA0 ADD PUSH2 0x171 JUMP JUMPDEST CALLVALUE DUP1 ISZERO PUSH2 0x4F9 JUMPI PUSH1 0x0 DUP1 REVERT JUMPDEST POP PUSH2 0x2CB PUSH2 0x508 CALLDATASIZE PUSH1 0x4 PUSH2 0x1B2B JUMP JUMPDEST PUSH2 0x145F JUMP JUMPDEST CALLVALUE DUP1 ISZERO PUSH2 0x519 JUMPI PUSH1 0x0 DUP1 REVERT JUMPDEST POP PUSH2 0x2CB PUSH2 0x528 CALLDATASIZE PUSH1 0x4 PUSH2 0x1A21 JUMP JUMPDEST PUSH2 0x1714 JUMP JUMPDEST CALLVALUE DUP1 ISZERO PUSH2 0x539 JUMPI PUSH1 0x0 DUP1 REVERT JUMPDEST POP PUSH2 0x250 PUSH2 0x548 CALLDATASIZE PUSH1 0x4 PUSH2 0x1A21 JUMP JUMPDEST PUSH1 0x1 PUSH1 0x1 PUSH1 0xA0 SHL SUB AND BALANCE SWAP1 JUMP JUMPDEST PUSH1 0x13 SLOAD PUSH1 0x0 SWAP1 TIMESTAMP LT ISZERO PUSH2 0x568 JUMPI POP PUSH1 0x0 SWAP1 JUMP JUMPDEST PUSH1 0x14 SLOAD TIMESTAMP GT ISZERO PUSH2 0x578 JUMPI POP PUSH1 0x2 SWAP1 JUMP JUMPDEST POP PUSH1 0x1 SWAP1 JUMP JUMPDEST PUSH1 0x1 SLOAD PUSH1 0x1 PUSH1 0x1 PUSH1 0xA0 SHL SUB AND CALLER EQ PUSH2 0x5DD JUMPI PUSH1 0x40 MLOAD PUSH3 0x461BCD PUSH1 0xE5 SHL DUP2 MSTORE PUSH1 0x20 PUSH1 0x4 DUP3 ADD DUP2 SWAP1 MSTORE PUSH1 0x24 DUP3 ADD MSTORE PUSH32 0x4F776E61626C653A2063616C6C6572206973206E6F7420746865206F776E6572 PUSH1 0x44 DUP3 ADD MSTORE PUSH1 0x64 ADD JUMPDEST PUSH1 0x40 MLOAD DUP1 SWAP2 SUB SWAP1 REVERT JUMPDEST PUSH2 0x5E7 PUSH1 0x0 PUSH2 0x17FA JUMP JUMPDEST JUMP JUMPDEST PUSH1 0x40 MLOAD CALLER SWAP1 SELFBALANCE DUP1 ISZERO PUSH2 0x8FC MUL SWAP2 PUSH1 0x0 DUP2 DUP2 DUP2 DUP6 DUP9 DUP9 CALL SWAP4 POP POP POP POP ISZERO DUP1 ISZERO PUSH2 0x615 JUMPI RETURNDATASIZE PUSH1 0x0 DUP1 RETURNDATACOPY RETURNDATASIZE PUSH1 0x0 REVERT JUMPDEST POP JUMP JUMPDEST PUSH1 0xF SLOAD PUSH1 0x1 PUSH1 0x1 PUSH1 0xA0 SHL SUB AND CALLER PUSH1 0x1 PUSH1 0x1 PUSH1 0xA0 SHL SUB AND EQ PUSH2 0x670 JUMPI PUSH1 0x40 MLOAD PUSH3 0x461BCD PUSH1 0xE5 SHL DUP2 MSTORE PUSH1 0x20 PUSH1 0x4 DUP3 ADD MSTORE PUSH1 0x12 PUSH1 0x24 DUP3 ADD MSTORE PUSH18 0x27B7363C90383932B9B0B6329037BBB732B9 PUSH1 0x71 SHL PUSH1 0x44 DUP3 ADD MSTORE PUSH1 0x64 ADD PUSH2 0x5D4 JUMP JUMPDEST PUSH1 0x2 PUSH1 0x0 SLOAD EQ ISZERO PUSH2 0x693 JUMPI PUSH1 0x40 MLOAD PUSH3 0x461BCD PUSH1 0xE5 SHL DUP2 MSTORE PUSH1 0x4 ADD PUSH2 0x5D4 SWAP1 PUSH2 0x1C09 JUMP JUMPDEST PUSH1 0x2 PUSH1 0x0 SWAP1 DUP2 SSTORE PUSH1 0x10 SLOAD PUSH1 0x40 MLOAD PUSH4 0x70A08231 PUSH1 0xE0 SHL DUP2 MSTORE ADDRESS PUSH1 0x4 DUP3 ADD MSTORE PUSH1 0x1 PUSH1 0x1 PUSH1 0xA0 SHL SUB SWAP1 SWAP2 AND SWAP1 PUSH4 0x70A08231 SWAP1 PUSH1 0x24 ADD PUSH1 0x20 PUSH1 0x40 MLOAD DUP1 DUP4 SUB DUP2 DUP7 DUP1 EXTCODESIZE ISZERO DUP1 ISZERO PUSH2 0x6DD JUMPI PUSH1 0x0 DUP1 REVERT JUMPDEST POP GAS STATICCALL ISZERO DUP1 ISZERO PUSH2 0x6F1 JUMPI RETURNDATASIZE PUSH1 0x0 DUP1 RETURNDATACOPY RETURNDATASIZE PUSH1 0x0 REVERT JUMPDEST POP POP POP POP PUSH1 0x40 MLOAD RETURNDATASIZE PUSH1 0x1F NOT PUSH1 0x1F DUP3 ADD AND DUP3 ADD DUP1 PUSH1 0x40 MSTORE POP DUP2 ADD SWAP1 PUSH2 0x715 SWAP2 SWAP1 PUSH2 0x1B7E JUMP JUMPDEST PUSH1 0x8 SLOAD PUSH1 0x4 SLOAD SWAP2 SWAP3 POP PUSH1 0x0 SWAP2 PUSH2 0x72A SWAP2 PUSH2 0x184C JUMP JUMPDEST PUSH1 0x4 SLOAD SWAP1 SWAP2 POP ISZERO PUSH2 0x753 JUMPI PUSH1 0x8 SLOAD PUSH1 0x5 SLOAD PUSH2 0x750 SWAP2 PUSH2 0x749 SWAP2 SWAP1 PUSH2 0x184C JUMP JUMPDEST DUP4 SWAP1 PUSH2 0x184C JUMP JUMPDEST SWAP2 POP JUMPDEST PUSH1 0xB SLOAD PUSH1 0xFF AND ISZERO PUSH2 0x7A6 JUMPI PUSH1 0x40 MLOAD PUSH3 0x461BCD PUSH1 0xE5 SHL DUP2 MSTORE PUSH1 0x20 PUSH1 0x4 DUP3 ADD MSTORE PUSH1 0x1D PUSH1 0x24 DUP3 ADD MSTORE PUSH32 0x4E6F7468696E6720666F72206F776E657220636C61696D20746F6B656E000000 PUSH1 0x44 DUP3 ADD MSTORE PUSH1 0x64 ADD PUSH2 0x5D4 JUMP JUMPDEST PUSH1 0xB SLOAD PUSH2 0x100 SWAP1 DIV PUSH1 0xFF AND ISZERO PUSH2 0x7FE JUMPI PUSH1 0x40 MLOAD PUSH3 0x461BCD PUSH1 0xE5 SHL DUP2 MSTORE PUSH1 0x20 PUSH1 0x4 DUP3 ADD MSTORE PUSH1 0x1E PUSH1 0x24 DUP3 ADD MSTORE PUSH32 0x4E6F7468696E6720666F72206F776E657220726566756E6420746F6B656E0000 PUSH1 0x44 DUP3 ADD MSTORE PUSH1 0x64 ADD PUSH2 0x5D4 JUMP JUMPDEST PUSH1 0xB DUP1 SLOAD PUSH1 0xFF NOT AND PUSH1 0x1 OR SWAP1 SSTORE PUSH1 0x0 PUSH1 0x1A SSTORE PUSH1 0x10 SLOAD PUSH1 0xF SLOAD PUSH1 0x40 MLOAD PUSH4 0xA9059CBB PUSH1 0xE0 SHL DUP2 MSTORE PUSH1 0x1 PUSH1 0x1 PUSH1 0xA0 SHL SUB SWAP2 DUP3 AND PUSH1 0x4 DUP3 ADD MSTORE PUSH1 0x24 DUP2 ADD DUP6 SWAP1 MSTORE SWAP2 AND SWAP1 PUSH4 0xA9059CBB SWAP1 PUSH1 0x44 ADD PUSH1 0x20 PUSH1 0x40 MLOAD DUP1 DUP4 SUB DUP2 PUSH1 0x0 DUP8 DUP1 EXTCODESIZE ISZERO DUP1 ISZERO PUSH2 0x860 JUMPI PUSH1 0x0 DUP1 REVERT JUMPDEST POP GAS CALL ISZERO DUP1 ISZERO PUSH2 0x874 JUMPI RETURNDATASIZE PUSH1 0x0 DUP1 RETURNDATACOPY RETURNDATASIZE PUSH1 0x0 REVERT JUMPDEST POP POP POP POP PUSH1 0x40 MLOAD RETURNDATASIZE PUSH1 0x1F NOT PUSH1 0x1F DUP3 ADD AND DUP3 ADD DUP1 PUSH1 0x40 MSTORE POP DUP2 ADD SWAP1 PUSH2 0x898 SWAP2 SWAP1 PUSH2 0x1B48 JUMP JUMPDEST POP PUSH1 0xF SLOAD PUSH1 0x40 MLOAD PUSH1 0x1 PUSH1 0x1 PUSH1 0xA0 SHL SUB SWAP1 SWAP2 AND SWAP1 DUP3 ISZERO PUSH2 0x8FC MUL SWAP1 DUP4 SWAP1 PUSH1 0x0 DUP2 DUP2 DUP2 DUP6 DUP9 DUP9 CALL SWAP4 POP POP POP POP ISZERO DUP1 ISZERO PUSH2 0x8D3 JUMPI RETURNDATASIZE PUSH1 0x0 DUP1 RETURNDATACOPY RETURNDATASIZE PUSH1 0x0 REVERT JUMPDEST POP POP PUSH1 0x1 PUSH1 0x0 SSTORE POP JUMP JUMPDEST PUSH1 0x2 PUSH1 0x0 SLOAD EQ ISZERO PUSH2 0x900 JUMPI PUSH1 0x40 MLOAD PUSH3 0x461BCD PUSH1 0xE5 SHL DUP2 MSTORE PUSH1 0x4 ADD PUSH2 0x5D4 SWAP1 PUSH2 0x1C09 JUMP JUMPDEST PUSH1 0x2 PUSH1 0x0 SWAP1 DUP2 SSTORE PUSH1 0x7 SLOAD PUSH1 0x4 SLOAD PUSH2 0x917 SWAP2 SWAP1 PUSH2 0x1D84 JUMP JUMPDEST GT PUSH2 0x934 JUMPI PUSH1 0x40 MLOAD PUSH3 0x461BCD PUSH1 0xE5 SHL DUP2 MSTORE PUSH1 0x4 ADD PUSH2 0x5D4 SWAP1 PUSH2 0x1BD2 JUMP JUMPDEST CALLER PUSH1 0x0 SWAP1 DUP2 MSTORE PUSH1 0x2 PUSH1 0x20 MSTORE PUSH1 0x40 SWAP1 KECCAK256 DUP1 SLOAD PUSH2 0x98B JUMPI PUSH1 0x40 MLOAD PUSH3 0x461BCD PUSH1 0xE5 SHL DUP2 MSTORE PUSH1 0x20 PUSH1 0x4 DUP3 ADD MSTORE PUSH1 0x17 PUSH1 0x24 DUP3 ADD MSTORE PUSH23 0x165BDD481A185D99481B9BDD08189BDD59DA1D081E595D PUSH1 0x4A SHL PUSH1 0x44 DUP3 ADD MSTORE PUSH1 0x64 ADD PUSH2 0x5D4 JUMP JUMPDEST PUSH1 0x4 DUP2 ADD SLOAD DUP2 SLOAD GT PUSH2 0x9D0 JUMPI PUSH1 0x40 MLOAD PUSH3 0x461BCD PUSH1 0xE5 SHL DUP2 MSTORE PUSH1 0x20 PUSH1 0x4 DUP3 ADD MSTORE PUSH1 0xE PUSH1 0x24 DUP3 ADD MSTORE PUSH14 0x165BDD481C99599D5B9908185B1B PUSH1 0x92 SHL PUSH1 0x44 DUP3 ADD MSTORE PUSH1 0x64 ADD PUSH2 0x5D4 JUMP JUMPDEST DUP1 SLOAD PUSH1 0x17 SLOAD PUSH1 0x0 SWAP2 PUSH2 0x9FB SWAP2 PUSH2 0x3E8 SWAP2 PUSH2 0x9F5 SWAP2 PUSH2 0x9EF SWAP1 DUP5 SWAP1 PUSH2 0x184C JUMP JUMPDEST SWAP1 PUSH2 0x1858 JUMP JUMPDEST SWAP1 PUSH2 0x1864 JUMP JUMPDEST DUP3 SLOAD SWAP1 SWAP2 POP PUSH2 0xA0B SWAP1 DUP3 SWAP1 PUSH2 0x1D84 JUMP JUMPDEST PUSH1 0x1E PUSH1 0x0 DUP3 DUP3 SLOAD PUSH2 0xA1C SWAP2 SWAP1 PUSH2 0x1C40 JUMP JUMPDEST SWAP1 SWAP2 SSTORE POP POP PUSH1 0x7 DUP1 SLOAD DUP3 SWAP2 SWAP1 PUSH1 0x0 SWAP1 PUSH2 0xA36 SWAP1 DUP5 SWAP1 PUSH2 0x1C40 JUMP JUMPDEST SWAP3 POP POP DUP2 SWAP1 SSTORE POP DUP1 DUP3 PUSH1 0x4 ADD PUSH1 0x0 DUP3 DUP3 SLOAD PUSH2 0xA51 SWAP2 SWAP1 PUSH2 0x1C40 JUMP JUMPDEST SWAP1 SWAP2 SSTORE POP POP TIMESTAMP PUSH1 0x2 DUP4 ADD SSTORE PUSH1 0x3 DUP3 ADD SLOAD PUSH1 0x1 DUP4 ADD SLOAD PUSH2 0xA70 SWAP2 SWAP1 PUSH2 0x1D84 JUMP JUMPDEST PUSH1 0x8 DUP1 SLOAD PUSH1 0x0 SWAP1 PUSH2 0xA82 SWAP1 DUP5 SWAP1 PUSH2 0x1C40 JUMP JUMPDEST SWAP1 SWAP2 SSTORE POP POP PUSH1 0x40 MLOAD CALLER SWAP1 DUP3 ISZERO PUSH2 0x8FC MUL SWAP1 DUP4 SWAP1 PUSH1 0x0 DUP2 DUP2 DUP2 DUP6 DUP9 DUP9 CALL SWAP4 POP POP POP POP ISZERO DUP1 ISZERO PUSH2 0x8D3 JUMPI RETURNDATASIZE PUSH1 0x0 DUP1 RETURNDATACOPY RETURNDATASIZE PUSH1 0x0 REVERT JUMPDEST PUSH1 0xF DUP1 SLOAD PUSH1 0x1 PUSH1 0x1 PUSH1 0xA0 SHL SUB DUP1 DUP11 AND PUSH1 0x1 PUSH1 0x1 PUSH1 0xA0 SHL SUB NOT SWAP3 DUP4 AND OR SWAP1 SWAP3 SSTORE PUSH1 0x10 DUP1 SLOAD DUP10 DUP5 AND SWAP1 DUP4 AND DUP2 OR SWAP1 SWAP2 SSTORE PUSH1 0x11 DUP1 SLOAD SWAP4 DUP10 AND SWAP4 SWAP1 SWAP3 AND SWAP3 SWAP1 SWAP3 OR SWAP1 SSTORE PUSH1 0x40 DUP1 MLOAD PUSH4 0x313CE567 PUSH1 0xE0 SHL DUP2 MSTORE SWAP1 MLOAD PUSH4 0x313CE567 SWAP2 PUSH1 0x4 DUP1 DUP3 ADD SWAP3 PUSH1 0x20 SWAP3 SWAP1 SWAP2 SWAP1 DUP3 SWAP1 SUB ADD DUP2 DUP7 DUP1 EXTCODESIZE ISZERO DUP1 ISZERO PUSH2 0xB29 JUMPI PUSH1 0x0 DUP1 REVERT JUMPDEST POP GAS STATICCALL ISZERO DUP1 ISZERO PUSH2 0xB3D JUMPI RETURNDATASIZE PUSH1 0x0 DUP1 RETURNDATACOPY RETURNDATASIZE PUSH1 0x0 REVERT JUMPDEST POP POP POP POP PUSH1 0x40 MLOAD RETURNDATASIZE PUSH1 0x1F NOT PUSH1 0x1F DUP3 ADD AND DUP3 ADD DUP1 PUSH1 0x40 MSTORE POP DUP2 ADD SWAP1 PUSH2 0xB61 SWAP2 SWAP1 PUSH2 0x1B7E JUMP JUMPDEST PUSH2 0xB6C SWAP1 PUSH1 0xA PUSH2 0x1CBD JUMP JUMPDEST DUP5 MLOAD PUSH2 0xB78 SWAP2 SWAP1 PUSH2 0x1D65 JUMP JUMPDEST PUSH1 0x12 SSTORE PUSH1 0x20 DUP1 DUP6 ADD MLOAD PUSH1 0x13 SSTORE PUSH1 0x40 DUP1 DUP7 ADD MLOAD PUSH1 0x14 SSTORE PUSH1 0x60 DUP7 ADD MLOAD PUSH1 0x15 SSTORE PUSH1 0x11 SLOAD DUP2 MLOAD PUSH4 0x313CE567 PUSH1 0xE0 SHL DUP2 MSTORE SWAP2 MLOAD PUSH1 0x1 PUSH1 0x1 PUSH1 0xA0 SHL SUB SWAP1 SWAP2 AND SWAP3 PUSH4 0x313CE567 SWAP3 PUSH1 0x4 DUP1 DUP3 ADD SWAP4 SWAP2 DUP3 SWAP1 SUB ADD DUP2 DUP7 DUP1 EXTCODESIZE ISZERO DUP1 ISZERO PUSH2 0xBD3 JUMPI PUSH1 0x0 DUP1 REVERT JUMPDEST POP GAS STATICCALL ISZERO DUP1 ISZERO PUSH2 0xBE7 JUMPI RETURNDATASIZE PUSH1 0x0 DUP1 RETURNDATACOPY RETURNDATASIZE PUSH1 0x0 REVERT JUMPDEST POP POP POP POP PUSH1 0x40 MLOAD RETURNDATASIZE PUSH1 0x1F NOT PUSH1 0x1F DUP3 ADD AND DUP3 ADD DUP1 PUSH1 0x40 MSTORE POP DUP2 ADD SWAP1 PUSH2 0xC0B SWAP2 SWAP1 PUSH2 0x1B7E JUMP JUMPDEST PUSH2 0xC16 SWAP1 PUSH1 0xA PUSH2 0x1CBD JUMP JUMPDEST PUSH1 0x80 DUP6 ADD MLOAD PUSH2 0xC25 SWAP2 SWAP1 PUSH2 0x1D65 JUMP JUMPDEST PUSH1 0x16 SSTORE PUSH1 0xA0 DUP5 ADD MLOAD PUSH1 0x17 SSTORE PUSH1 0xC0 DUP5 ADD MLOAD PUSH1 0x18 SSTORE PUSH1 0x11 SLOAD PUSH1 0x40 DUP1 MLOAD PUSH4 0x313CE567 PUSH1 0xE0 SHL DUP2 MSTORE SWAP1 MLOAD PUSH1 0x1 PUSH1 0x1 PUSH1 0xA0 SHL SUB SWAP1 SWAP3 AND SWAP2 PUSH4 0x313CE567 SWAP2 PUSH1 0x4 DUP1 DUP3 ADD SWAP3 PUSH1 0x20 SWAP3 SWAP1 SWAP2 SWAP1 DUP3 SWAP1 SUB ADD DUP2 DUP7 DUP1 EXTCODESIZE ISZERO DUP1 ISZERO PUSH2 0xC7D JUMPI PUSH1 0x0 DUP1 REVERT JUMPDEST POP GAS STATICCALL ISZERO DUP1 ISZERO PUSH2 0xC91 JUMPI RETURNDATASIZE PUSH1 0x0 DUP1 RETURNDATACOPY RETURNDATASIZE PUSH1 0x0 REVERT JUMPDEST POP POP POP POP PUSH1 0x40 MLOAD RETURNDATASIZE PUSH1 0x1F NOT PUSH1 0x1F DUP3 ADD AND DUP3 ADD DUP1 PUSH1 0x40 MSTORE POP DUP2 ADD SWAP1 PUSH2 0xCB5 SWAP2 SWAP1 PUSH2 0x1B7E JUMP JUMPDEST PUSH2 0xCC0 SWAP1 PUSH1 0xA PUSH2 0x1CBD JUMP JUMPDEST PUSH1 0xE0 DUP6 ADD MLOAD PUSH2 0xCCF SWAP2 SWAP1 PUSH2 0x1D65 JUMP JUMPDEST PUSH1 0xD SSTORE PUSH1 0x11 SLOAD PUSH1 0x40 DUP1 MLOAD PUSH4 0x313CE567 PUSH1 0xE0 SHL DUP2 MSTORE SWAP1 MLOAD PUSH1 0x1 PUSH1 0x1 PUSH1 0xA0 SHL SUB SWAP1 SWAP3 AND SWAP2 PUSH4 0x313CE567 SWAP2 PUSH1 0x4 DUP1 DUP3 ADD SWAP3 PUSH1 0x20 SWAP3 SWAP1 SWAP2 SWAP1 DUP3 SWAP1 SUB ADD DUP2 DUP7 DUP1 EXTCODESIZE ISZERO DUP1 ISZERO PUSH2 0xD17 JUMPI PUSH1 0x0 DUP1 REVERT JUMPDEST POP GAS STATICCALL ISZERO DUP1 ISZERO PUSH2 0xD2B JUMPI RETURNDATASIZE PUSH1 0x0 DUP1 RETURNDATACOPY RETURNDATASIZE PUSH1 0x0 REVERT JUMPDEST POP POP POP POP PUSH1 0x40 MLOAD RETURNDATASIZE PUSH1 0x1F NOT PUSH1 0x1F DUP3 ADD AND DUP3 ADD DUP1 PUSH1 0x40 MSTORE POP DUP2 ADD SWAP1 PUSH2 0xD4F SWAP2 SWAP1 PUSH2 0x1B7E JUMP JUMPDEST PUSH2 0xD5A SWAP1 PUSH1 0xA PUSH2 0x1CBD JUMP JUMPDEST PUSH2 0x100 DUP6 ADD MLOAD PUSH2 0xD6A SWAP2 SWAP1 PUSH2 0x1D65 JUMP JUMPDEST PUSH1 0xE SSTORE PUSH1 0x11 SLOAD PUSH1 0x1B SLOAD PUSH1 0x19 DUP1 SLOAD PUSH1 0xFF NOT AND PUSH1 0x1 PUSH1 0x1 PUSH1 0xA0 SHL SUB SWAP3 DUP4 AND SWAP3 SWAP1 SWAP4 AND SWAP2 DUP3 EQ SWAP3 SWAP1 SWAP3 OR SWAP1 SWAP2 SSTORE PUSH1 0x40 DUP1 MLOAD PUSH4 0x313CE567 PUSH1 0xE0 SHL DUP2 MSTORE SWAP1 MLOAD PUSH4 0x313CE567 SWAP2 PUSH1 0x4 DUP1 DUP3 ADD SWAP3 PUSH1 0x20 SWAP3 SWAP1 SWAP2 SWAP1 DUP3 SWAP1 SUB ADD DUP2 DUP7 DUP1 EXTCODESIZE ISZERO DUP1 ISZERO PUSH2 0xDCA JUMPI PUSH1 0x0 DUP1 REVERT JUMPDEST POP GAS STATICCALL ISZERO DUP1 ISZERO PUSH2 0xDDE JUMPI RETURNDATASIZE PUSH1 0x0 DUP1 RETURNDATACOPY RETURNDATASIZE PUSH1 0x0 REVERT JUMPDEST POP POP POP POP PUSH1 0x40 MLOAD RETURNDATASIZE PUSH1 0x1F NOT PUSH1 0x1F DUP3 ADD AND DUP3 ADD DUP1 PUSH1 0x40 MSTORE POP DUP2 ADD SWAP1 PUSH2 0xE02 SWAP2 SWAP1 PUSH2 0x1B7E JUMP JUMPDEST PUSH2 0xE0D SWAP1 PUSH1 0xA PUSH2 0x1CBD JUMP JUMPDEST PUSH1 0xD SLOAD PUSH1 0x12 SLOAD PUSH2 0xE1C SWAP2 PUSH2 0x1858 JUMP JUMPDEST PUSH2 0xE26 SWAP2 SWAP1 PUSH2 0x1C58 JUMP JUMPDEST PUSH1 0x1A SSTORE PUSH1 0x1F SWAP3 SWAP1 SWAP3 SSTORE PUSH1 0x20 DUP1 SLOAD PUSH1 0x1 PUSH1 0x1 PUSH1 0xA0 SHL SUB NOT AND PUSH1 0x1 PUSH1 0x1 PUSH1 0xA0 SHL SUB SWAP3 SWAP1 SWAP3 AND SWAP2 SWAP1 SWAP2 OR SWAP1 SSTORE PUSH1 0x21 SSTORE POP POP POP POP JUMP JUMPDEST PUSH1 0x2 PUSH1 0x0 SLOAD EQ ISZERO PUSH2 0xE7B JUMPI PUSH1 0x40 MLOAD PUSH3 0x461BCD PUSH1 0xE5 SHL DUP2 MSTORE PUSH1 0x4 ADD PUSH2 0x5D4 SWAP1 PUSH2 0x1C09 JUMP JUMPDEST PUSH1 0x2 PUSH1 0x0 SWAP1 DUP2 SSTORE PUSH1 0x6 SLOAD PUSH1 0x5 SLOAD PUSH2 0xE92 SWAP2 SWAP1 PUSH2 0x1D84 JUMP JUMPDEST GT PUSH2 0xEAF JUMPI PUSH1 0x40 MLOAD PUSH3 0x461BCD PUSH1 0xE5 SHL DUP2 MSTORE PUSH1 0x4 ADD PUSH2 0x5D4 SWAP1 PUSH2 0x1BD2 JUMP JUMPDEST CALLER PUSH1 0x0 SWAP1 DUP2 MSTORE PUSH1 0x2 PUSH1 0x20 MSTORE PUSH1 0x40 SWAP1 KECCAK256 PUSH1 0x1 DUP2 ADD SLOAD PUSH2 0xF09 JUMPI PUSH1 0x40 MLOAD PUSH3 0x461BCD PUSH1 0xE5 SHL DUP2 MSTORE PUSH1 0x20 PUSH1 0x4 DUP3 ADD MSTORE PUSH1 0x17 PUSH1 0x24 DUP3 ADD MSTORE PUSH23 0x165BDD481A185D99481B9BDD08189BDD59DA1D081E595D PUSH1 0x4A SHL PUSH1 0x44 DUP3 ADD MSTORE PUSH1 0x64 ADD PUSH2 0x5D4 JUMP JUMPDEST DUP1 PUSH1 0x3 ADD SLOAD DUP2 PUSH1 0x1 ADD SLOAD GT PUSH2 0xF51 JUMPI PUSH1 0x40 MLOAD PUSH3 0x461BCD PUSH1 0xE5 SHL DUP2 MSTORE PUSH1 0x20 PUSH1 0x4 DUP3 ADD MSTORE PUSH1 0xE PUSH1 0x24 DUP3 ADD MSTORE PUSH14 0x165BDD4818DB185A5B48185B1B1B PUSH1 0x92 SHL PUSH1 0x44 DUP3 ADD MSTORE PUSH1 0x64 ADD PUSH2 0x5D4 JUMP JUMPDEST PUSH1 0x0 PUSH2 0xF7B PUSH2 0x3E8 PUSH2 0x9F5 DUP5 PUSH1 0x1 ADD SLOAD PUSH2 0x9EF PUSH1 0xF PUSH1 0x9 ADD SLOAD PUSH2 0x3E8 PUSH2 0x184C SWAP1 SWAP2 SWAP1 PUSH4 0xFFFFFFFF AND JUMP JUMPDEST SWAP1 POP DUP1 PUSH1 0x4 PUSH1 0x2 ADD PUSH1 0x0 DUP3 DUP3 SLOAD PUSH2 0xF92 SWAP2 SWAP1 PUSH2 0x1C40 JUMP JUMPDEST SWAP1 SWAP2 SSTORE POP POP PUSH1 0x1A DUP1 SLOAD DUP3 SWAP2 SWAP1 PUSH1 0x0 SWAP1 PUSH2 0xFAC SWAP1 DUP5 SWAP1 PUSH2 0x1D84 JUMP JUMPDEST SWAP3 POP POP DUP2 SWAP1 SSTORE POP DUP1 DUP3 PUSH1 0x3 ADD PUSH1 0x0 DUP3 DUP3 SLOAD PUSH2 0xFC7 SWAP2 SWAP1 PUSH2 0x1C40 JUMP JUMPDEST SWAP1 SWAP2 SSTORE POP POP TIMESTAMP PUSH1 0x2 DUP4 ADD SSTORE PUSH1 0x4 DUP3 ADD SLOAD DUP3 SLOAD PUSH2 0xFE3 SWAP2 SWAP1 PUSH2 0x1D84 JUMP JUMPDEST PUSH1 0x9 DUP1 SLOAD PUSH1 0x0 SWAP1 PUSH2 0xFF5 SWAP1 DUP5 SWAP1 PUSH2 0x1C40 JUMP JUMPDEST SWAP1 SWAP2 SSTORE POP POP PUSH1 0x10 SLOAD PUSH1 0x40 MLOAD PUSH4 0xA9059CBB PUSH1 0xE0 SHL DUP2 MSTORE CALLER PUSH1 0x4 DUP3 ADD MSTORE PUSH1 0x24 DUP2 ADD DUP4 SWAP1 MSTORE PUSH1 0x1 PUSH1 0x1 PUSH1 0xA0 SHL SUB SWAP1 SWAP2 AND SWAP1 PUSH4 0xA9059CBB SWAP1 PUSH1 0x44 ADD PUSH1 0x20 PUSH1 0x40 MLOAD DUP1 DUP4 SUB DUP2 PUSH1 0x0 DUP8 DUP1 EXTCODESIZE ISZERO DUP1 ISZERO PUSH2 0x1046 JUMPI PUSH1 0x0 DUP1 REVERT JUMPDEST POP GAS CALL ISZERO DUP1 ISZERO PUSH2 0x105A JUMPI RETURNDATASIZE PUSH1 0x0 DUP1 RETURNDATACOPY RETURNDATASIZE PUSH1 0x0 REVERT JUMPDEST POP POP POP POP PUSH1 0x40 MLOAD RETURNDATASIZE PUSH1 0x1F NOT PUSH1 0x1F DUP3 ADD AND DUP3 ADD DUP1 PUSH1 0x40 MSTORE POP DUP2 ADD SWAP1 PUSH2 0x8D3 SWAP2 SWAP1 PUSH2 0x1B48 JUMP JUMPDEST PUSH1 0x2 PUSH1 0x0 SLOAD EQ ISZERO PUSH2 0x10A1 JUMPI PUSH1 0x40 MLOAD PUSH3 0x461BCD PUSH1 0xE5 SHL DUP2 MSTORE PUSH1 0x4 ADD PUSH2 0x5D4 SWAP1 PUSH2 0x1C09 JUMP JUMPDEST PUSH1 0x2 PUSH1 0x0 DUP2 DUP2 SSTORE CALLER DUP2 MSTORE PUSH1 0x20 SWAP2 SWAP1 SWAP2 MSTORE PUSH1 0x40 DUP2 KECCAK256 SWAP1 DUP3 SWAP1 DUP2 SWAP1 PUSH2 0x3E8 CALLVALUE DUP4 GT ISZERO PUSH2 0x110D JUMPI PUSH1 0x40 MLOAD PUSH3 0x461BCD PUSH1 0xE5 SHL DUP2 MSTORE PUSH1 0x20 PUSH1 0x4 DUP3 ADD MSTORE PUSH1 0x1A PUSH1 0x24 DUP3 ADD MSTORE PUSH32 0x506C656173652070726F76696465206E617669746520636F696E000000000000 PUSH1 0x44 DUP3 ADD MSTORE PUSH1 0x64 ADD PUSH2 0x5D4 JUMP JUMPDEST PUSH1 0x15 SLOAD DUP4 LT ISZERO PUSH2 0x1152 JUMPI PUSH1 0x40 MLOAD PUSH3 0x461BCD PUSH1 0xE5 SHL DUP2 MSTORE PUSH1 0x20 PUSH1 0x4 DUP3 ADD MSTORE PUSH1 0x10 PUSH1 0x24 DUP3 ADD MSTORE PUSH16 0x4E6F7420656E6F7567682076616C7565 PUSH1 0x80 SHL PUSH1 0x44 DUP3 ADD MSTORE PUSH1 0x64 ADD PUSH2 0x5D4 JUMP JUMPDEST PUSH1 0x16 SLOAD DUP4 GT ISZERO PUSH2 0x1195 JUMPI PUSH1 0x40 MLOAD PUSH3 0x461BCD PUSH1 0xE5 SHL DUP2 MSTORE PUSH1 0x20 PUSH1 0x4 DUP3 ADD MSTORE PUSH1 0xE PUSH1 0x24 DUP3 ADD MSTORE PUSH14 0x4F766572666C6F772076616C7565 PUSH1 0x90 SHL PUSH1 0x44 DUP3 ADD MSTORE PUSH1 0x64 ADD PUSH2 0x5D4 JUMP JUMPDEST PUSH2 0x119D PUSH2 0x144D JUMP JUMPDEST PUSH2 0x11CD JUMPI PUSH2 0x11BE DUP2 PUSH2 0x9F5 DUP6 PUSH2 0x9EF PUSH1 0x1F SLOAD DUP7 PUSH2 0x184C SWAP1 SWAP2 SWAP1 PUSH4 0xFFFFFFFF AND JUMP JUMPDEST SWAP3 POP PUSH2 0x11CA DUP4 DUP6 PUSH2 0x1D84 JUMP JUMPDEST SWAP2 POP JUMPDEST DUP5 SLOAD PUSH1 0x16 SLOAD PUSH1 0x0 SWAP2 PUSH2 0x11DE SWAP2 PUSH2 0x1D84 JUMP JUMPDEST PUSH1 0x4 SLOAD PUSH1 0x1A SLOAD SWAP2 SWAP3 POP PUSH1 0x0 SWAP2 PUSH2 0x11F4 SWAP2 SWAP1 PUSH2 0x1D84 JUMP JUMPDEST SWAP1 POP PUSH1 0x0 DUP2 DUP4 GT PUSH2 0x1205 JUMPI DUP3 PUSH2 0x1207 JUMP JUMPDEST DUP2 JUMPDEST SWAP1 POP DUP1 DUP7 GT ISZERO PUSH2 0x124B JUMPI PUSH1 0x40 MLOAD PUSH3 0x461BCD PUSH1 0xE5 SHL DUP2 MSTORE PUSH1 0x20 PUSH1 0x4 DUP3 ADD MSTORE PUSH1 0xF PUSH1 0x24 DUP3 ADD MSTORE PUSH15 0x53616C652069732073756363657373 PUSH1 0x88 SHL PUSH1 0x44 DUP3 ADD MSTORE PUSH1 0x64 ADD PUSH2 0x5D4 JUMP JUMPDEST PUSH1 0x0 PUSH2 0x12F2 PUSH1 0xF PUSH1 0x2 ADD PUSH1 0x0 SWAP1 SLOAD SWAP1 PUSH2 0x100 EXP SWAP1 DIV PUSH1 0x1 PUSH1 0x1 PUSH1 0xA0 SHL SUB AND PUSH1 0x1 PUSH1 0x1 PUSH1 0xA0 SHL SUB AND PUSH4 0x313CE567 PUSH1 0x40 MLOAD DUP2 PUSH4 0xFFFFFFFF AND PUSH1 0xE0 SHL DUP2 MSTORE PUSH1 0x4 ADD PUSH1 0x20 PUSH1 0x40 MLOAD DUP1 DUP4 SUB DUP2 DUP7 DUP1 EXTCODESIZE ISZERO DUP1 ISZERO PUSH2 0x12A1 JUMPI PUSH1 0x0 DUP1 REVERT JUMPDEST POP GAS STATICCALL ISZERO DUP1 ISZERO PUSH2 0x12B5 JUMPI RETURNDATASIZE PUSH1 0x0 DUP1 RETURNDATACOPY RETURNDATASIZE PUSH1 0x0 REVERT JUMPDEST POP POP POP POP PUSH1 0x40 MLOAD RETURNDATASIZE PUSH1 0x1F NOT PUSH1 0x1F DUP3 ADD AND DUP3 ADD DUP1 PUSH1 0x40 MSTORE POP DUP2 ADD SWAP1 PUSH2 0x12D9 SWAP2 SWAP1 PUSH2 0x1B7E JUMP JUMPDEST PUSH2 0x12E4 SWAP1 PUSH1 0xA PUSH2 0x1CBD JUMP JUMPDEST PUSH1 0x12 SLOAD PUSH2 0x9F5 SWAP1 DUP11 SWAP1 PUSH2 0x1858 JUMP JUMPDEST SWAP1 POP DUP7 DUP10 PUSH1 0x0 ADD PUSH1 0x0 DUP3 DUP3 SLOAD PUSH2 0x1308 SWAP2 SWAP1 PUSH2 0x1C40 JUMP JUMPDEST SWAP3 POP POP DUP2 SWAP1 SSTORE POP DUP1 DUP10 PUSH1 0x1 ADD PUSH1 0x0 DUP3 DUP3 SLOAD PUSH2 0x1323 SWAP2 SWAP1 PUSH2 0x1C40 JUMP JUMPDEST SWAP1 SWAP2 SSTORE POP POP PUSH1 0x4 DUP1 SLOAD DUP9 SWAP2 SWAP1 PUSH1 0x0 SWAP1 PUSH2 0x133D SWAP1 DUP5 SWAP1 PUSH2 0x1C40 JUMP JUMPDEST SWAP1 SWAP2 SSTORE POP POP PUSH1 0x5 DUP1 SLOAD DUP3 SWAP2 SWAP1 PUSH1 0x0 SWAP1 PUSH2 0x1357 SWAP1 DUP5 SWAP1 PUSH2 0x1C40 JUMP JUMPDEST SWAP1 SWAP2 SSTORE POP POP PUSH1 0xA DUP1 SLOAD SWAP1 PUSH1 0x0 PUSH2 0x136C DUP4 PUSH2 0x1D9B JUMP JUMPDEST SWAP1 SWAP2 SSTORE POP POP CALLER PUSH1 0x0 SWAP1 DUP2 MSTORE PUSH1 0x3 PUSH1 0x20 MSTORE PUSH1 0x40 DUP2 KECCAK256 DUP1 SLOAD DUP9 SWAP3 SWAP1 PUSH2 0x1390 SWAP1 DUP5 SWAP1 PUSH2 0x1C40 JUMP JUMPDEST SWAP3 POP POP DUP2 SWAP1 SSTORE POP DUP6 PUSH1 0x1E PUSH1 0x0 DUP3 DUP3 SLOAD PUSH2 0x13A9 SWAP2 SWAP1 PUSH2 0x1C40 JUMP JUMPDEST SWAP1 SWAP2 SSTORE POP POP PUSH1 0x19 SLOAD PUSH1 0xFF AND DUP1 ISZERO PUSH2 0x13C9 JUMPI POP CALLVALUE PUSH2 0x13C6 DUP8 DUP10 PUSH2 0x1C40 JUMP JUMPDEST GT ISZERO JUMPDEST ISZERO PUSH2 0x1411 JUMPI CALLER PUSH2 0x8FC DUP8 PUSH2 0x13DD DUP11 CALLVALUE PUSH2 0x1D84 JUMP JUMPDEST PUSH2 0x13E7 SWAP2 SWAP1 PUSH2 0x1D84 JUMP JUMPDEST PUSH1 0x40 MLOAD DUP2 ISZERO SWAP1 SWAP3 MUL SWAP2 PUSH1 0x0 DUP2 DUP2 DUP2 DUP6 DUP9 DUP9 CALL SWAP4 POP POP POP POP ISZERO DUP1 ISZERO PUSH2 0x140F JUMPI RETURNDATASIZE PUSH1 0x0 DUP1 RETURNDATACOPY RETURNDATASIZE PUSH1 0x0 REVERT JUMPDEST POP JUMPDEST PUSH1 0x19 SLOAD PUSH1 0xFF AND PUSH2 0x143C JUMPI PUSH1 0x11 SLOAD PUSH2 0x143C SWAP1 PUSH1 0x1 PUSH1 0x1 PUSH1 0xA0 SHL SUB AND CALLER ADDRESS PUSH2 0x1437 DUP11 DUP13 PUSH2 0x1C40 JUMP JUMPDEST PUSH2 0x1870 JUMP JUMPDEST POP POP PUSH1 0x1 PUSH1 0x0 SSTORE POP POP POP POP POP POP POP POP JUMP JUMPDEST PUSH1 0x0 PUSH2 0x145A PUSH1 0x1C CALLER PUSH2 0x19A0 JUMP JUMPDEST SWAP1 POP SWAP1 JUMP JUMPDEST DUP1 ISZERO PUSH2 0x15FB JUMPI PUSH1 0x6 SLOAD PUSH1 0x5 SLOAD PUSH1 0x0 SWAP2 PUSH2 0x1477 SWAP2 PUSH2 0x1D84 JUMP JUMPDEST GT PUSH2 0x1494 JUMPI PUSH1 0x40 MLOAD PUSH3 0x461BCD PUSH1 0xE5 SHL DUP2 MSTORE PUSH1 0x4 ADD PUSH2 0x5D4 SWAP1 PUSH2 0x1BD2 JUMP JUMPDEST CALLER PUSH1 0x0 SWAP1 DUP2 MSTORE PUSH1 0x2 PUSH1 0x20 MSTORE PUSH1 0x40 SWAP1 KECCAK256 PUSH1 0x3 DUP2 ADD SLOAD PUSH1 0x1 DUP3 ADD SLOAD GT PUSH2 0x1506 JUMPI PUSH1 0x40 MLOAD PUSH3 0x461BCD PUSH1 0xE5 SHL DUP2 MSTORE PUSH1 0x20 PUSH1 0x4 DUP3 ADD MSTORE PUSH1 0x24 DUP1 DUP3 ADD MSTORE PUSH32 0x596F7520636C61696D20616C6C206F722068617665206E6F7420626F75676874 PUSH1 0x44 DUP3 ADD MSTORE PUSH4 0x81E595D PUSH1 0xE2 SHL PUSH1 0x64 DUP3 ADD MSTORE PUSH1 0x84 ADD PUSH2 0x5D4 JUMP JUMPDEST PUSH1 0x10 SLOAD PUSH1 0x1 DUP3 ADD SLOAD PUSH1 0x40 MLOAD PUSH4 0xA9059CBB PUSH1 0xE0 SHL DUP2 MSTORE CALLER PUSH1 0x4 DUP3 ADD MSTORE PUSH1 0x24 DUP2 ADD SWAP2 SWAP1 SWAP2 MSTORE PUSH1 0x1 PUSH1 0x1 PUSH1 0xA0 SHL SUB SWAP1 SWAP2 AND SWAP1 PUSH4 0xA9059CBB SWAP1 PUSH1 0x44 ADD PUSH1 0x20 PUSH1 0x40 MLOAD DUP1 DUP4 SUB DUP2 PUSH1 0x0 DUP8 DUP1 EXTCODESIZE ISZERO DUP1 ISZERO PUSH2 0x1558 JUMPI PUSH1 0x0 DUP1 REVERT JUMPDEST POP GAS CALL ISZERO DUP1 ISZERO PUSH2 0x156C JUMPI RETURNDATASIZE PUSH1 0x0 DUP1 RETURNDATACOPY RETURNDATASIZE PUSH1 0x0 REVERT JUMPDEST POP POP POP POP PUSH1 0x40 MLOAD RETURNDATASIZE PUSH1 0x1F NOT PUSH1 0x1F DUP3 ADD AND DUP3 ADD DUP1 PUSH1 0x40 MSTORE POP DUP2 ADD SWAP1 PUSH2 0x1590 SWAP2 SWAP1 PUSH2 0x1B48 JUMP JUMPDEST POP PUSH1 0x1 DUP2 ADD SLOAD PUSH1 0x6 DUP1 SLOAD PUSH1 0x0 SWAP1 PUSH2 0x15A8 SWAP1 DUP5 SWAP1 PUSH2 0x1C40 JUMP JUMPDEST SWAP1 SWAP2 SSTORE POP POP PUSH1 0x1 DUP2 ADD SLOAD PUSH1 0x1A DUP1 SLOAD PUSH1 0x0 SWAP1 PUSH2 0x15C4 SWAP1 DUP5 SWAP1 PUSH2 0x1D84 JUMP JUMPDEST SWAP1 SWAP2 SSTORE POP POP PUSH1 0x1 DUP2 ADD SLOAD PUSH1 0x3 DUP3 ADD DUP1 SLOAD PUSH1 0x0 SWAP1 PUSH2 0x15E2 SWAP1 DUP5 SWAP1 PUSH2 0x1C40 JUMP JUMPDEST SWAP1 SWAP2 SSTORE POP POP PUSH1 0x0 DUP1 DUP3 SSTORE PUSH1 0x1 DUP3 ADD SSTORE TIMESTAMP PUSH1 0x2 SWAP1 SWAP2 ADD SSTORE POP JUMP JUMPDEST PUSH1 0x7 SLOAD PUSH1 0x4 SLOAD PUSH1 0x0 SWAP2 PUSH2 0x160D SWAP2 PUSH2 0x1D84 JUMP JUMPDEST GT PUSH2 0x162A JUMPI PUSH1 0x40 MLOAD PUSH3 0x461BCD PUSH1 0xE5 SHL DUP2 MSTORE PUSH1 0x4 ADD PUSH2 0x5D4 SWAP1 PUSH2 0x1BD2 JUMP JUMPDEST CALLER PUSH1 0x0 SWAP1 DUP2 MSTORE PUSH1 0x2 PUSH1 0x20 MSTORE PUSH1 0x40 SWAP1 KECCAK256 DUP1 SLOAD PUSH2 0x1695 JUMPI PUSH1 0x40 MLOAD PUSH3 0x461BCD PUSH1 0xE5 SHL DUP2 MSTORE PUSH1 0x20 PUSH1 0x4 DUP3 ADD MSTORE PUSH1 0x25 PUSH1 0x24 DUP3 ADD MSTORE PUSH32 0x596F7520726566756E6420616C6C206F722068617665206E6F7420626F756768 PUSH1 0x44 DUP3 ADD MSTORE PUSH5 0x1D081E595D PUSH1 0xDA SHL PUSH1 0x64 DUP3 ADD MSTORE PUSH1 0x84 ADD PUSH2 0x5D4 JUMP JUMPDEST DUP1 SLOAD PUSH2 0x16A1 DUP2 DUP1 PUSH2 0x1D84 JUMP JUMPDEST PUSH1 0x1E PUSH1 0x0 DUP3 DUP3 SLOAD PUSH2 0x16B2 SWAP2 SWAP1 PUSH2 0x1C40 JUMP JUMPDEST SWAP1 SWAP2 SSTORE POP POP PUSH1 0x7 DUP1 SLOAD DUP3 SWAP2 SWAP1 PUSH1 0x0 SWAP1 PUSH2 0x16CC SWAP1 DUP5 SWAP1 PUSH2 0x1C40 JUMP JUMPDEST SWAP1 SWAP2 SSTORE POP POP PUSH1 0x0 DUP1 DUP4 SSTORE PUSH1 0x1 DUP4 ADD DUP2 SWAP1 SSTORE TIMESTAMP PUSH1 0x2 DUP5 ADD SSTORE PUSH1 0x40 MLOAD CALLER SWAP2 DUP4 ISZERO PUSH2 0x8FC MUL SWAP2 DUP5 SWAP2 DUP2 DUP2 DUP2 DUP6 DUP9 DUP9 CALL SWAP4 POP POP POP POP ISZERO DUP1 ISZERO PUSH2 0x170E JUMPI RETURNDATASIZE PUSH1 0x0 DUP1 RETURNDATACOPY RETURNDATASIZE PUSH1 0x0 REVERT JUMPDEST POP POP POP POP JUMP JUMPDEST PUSH1 0x1 SLOAD PUSH1 0x1 PUSH1 0x1 PUSH1 0xA0 SHL SUB AND CALLER EQ PUSH2 0x176E JUMPI PUSH1 0x40 MLOAD PUSH3 0x461BCD PUSH1 0xE5 SHL DUP2 MSTORE PUSH1 0x20 PUSH1 0x4 DUP3 ADD DUP2 SWAP1 MSTORE PUSH1 0x24 DUP3 ADD MSTORE PUSH32 0x4F776E61626C653A2063616C6C6572206973206E6F7420746865206F776E6572 PUSH1 0x44 DUP3 ADD MSTORE PUSH1 0x64 ADD PUSH2 0x5D4 JUMP JUMPDEST PUSH1 0x1 PUSH1 0x1 PUSH1 0xA0 SHL SUB DUP2 AND PUSH2 0x17D3 JUMPI PUSH1 0x40 MLOAD PUSH3 0x461BCD PUSH1 0xE5 SHL DUP2 MSTORE PUSH1 0x20 PUSH1 0x4 DUP3 ADD MSTORE PUSH1 0x26 PUSH1 0x24 DUP3 ADD MSTORE PUSH32 0x4F776E61626C653A206E6577206F776E657220697320746865207A65726F2061 PUSH1 0x44 DUP3 ADD MSTORE PUSH6 0x646472657373 PUSH1 0xD0 SHL PUSH1 0x64 DUP3 ADD MSTORE PUSH1 0x84 ADD PUSH2 0x5D4 JUMP JUMPDEST PUSH2 0x615 DUP2 PUSH2 0x17FA JUMP JUMPDEST PUSH1 0x0 PUSH2 0x17F1 DUP4 PUSH1 0x1 PUSH1 0x1 PUSH1 0xA0 SHL SUB DUP5 AND PUSH2 0x19C2 JUMP JUMPDEST SWAP1 POP JUMPDEST SWAP3 SWAP2 POP POP JUMP JUMPDEST PUSH1 0x1 DUP1 SLOAD PUSH1 0x1 PUSH1 0x1 PUSH1 0xA0 SHL SUB DUP4 DUP2 AND PUSH1 0x1 PUSH1 0x1 PUSH1 0xA0 SHL SUB NOT DUP4 AND DUP2 OR SWAP1 SWAP4 SSTORE PUSH1 0x40 MLOAD SWAP2 AND SWAP2 SWAP1 DUP3 SWAP1 PUSH32 0x8BE0079C531659141344CD1FD0A4F28419497F9722A3DAAFE3B4186F6B6457E0 SWAP1 PUSH1 0x0 SWAP1 LOG3 POP POP JUMP JUMPDEST PUSH1 0x0 PUSH2 0x17F1 DUP3 DUP5 PUSH2 0x1D84 JUMP JUMPDEST PUSH1 0x0 PUSH2 0x17F1 DUP3 DUP5 PUSH2 0x1D65 JUMP JUMPDEST PUSH1 0x0 PUSH2 0x17F1 DUP3 DUP5 PUSH2 0x1C58 JUMP JUMPDEST PUSH1 0x40 DUP1 MLOAD PUSH1 0x1 PUSH1 0x1 PUSH1 0xA0 SHL SUB DUP6 DUP2 AND PUSH1 0x24 DUP4 ADD MSTORE DUP5 DUP2 AND PUSH1 0x44 DUP4 ADD MSTORE PUSH1 0x64 DUP1 DUP4 ADD DUP6 SWAP1 MSTORE DUP4 MLOAD DUP1 DUP5 SUB SWAP1 SWAP2 ADD DUP2 MSTORE PUSH1 0x84 SWAP1 SWAP3 ADD DUP4 MSTORE PUSH1 0x20 DUP3 ADD DUP1 MLOAD PUSH1 0x1 PUSH1 0x1 PUSH1 0xE0 SHL SUB AND PUSH4 0x23B872DD PUSH1 0xE0 SHL OR SWAP1 MSTORE SWAP2 MLOAD PUSH1 0x0 SWAP3 DUP4 SWAP3 SWAP1 DUP9 AND SWAP2 PUSH2 0x18D4 SWAP2 SWAP1 PUSH2 0x1B97 JUMP JUMPDEST PUSH1 0x0 PUSH1 0x40 MLOAD DUP1 DUP4 SUB DUP2 PUSH1 0x0 DUP7 GAS CALL SWAP2 POP POP RETURNDATASIZE DUP1 PUSH1 0x0 DUP2 EQ PUSH2 0x1911 JUMPI PUSH1 0x40 MLOAD SWAP2 POP PUSH1 0x1F NOT PUSH1 0x3F RETURNDATASIZE ADD AND DUP3 ADD PUSH1 0x40 MSTORE RETURNDATASIZE DUP3 MSTORE RETURNDATASIZE PUSH1 0x0 PUSH1 0x20 DUP5 ADD RETURNDATACOPY PUSH2 0x1916 JUMP JUMPDEST PUSH1 0x60 SWAP2 POP JUMPDEST POP SWAP2 POP SWAP2 POP DUP2 DUP1 ISZERO PUSH2 0x1940 JUMPI POP DUP1 MLOAD ISZERO DUP1 PUSH2 0x1940 JUMPI POP DUP1 DUP1 PUSH1 0x20 ADD SWAP1 MLOAD DUP2 ADD SWAP1 PUSH2 0x1940 SWAP2 SWAP1 PUSH2 0x1B48 JUMP JUMPDEST PUSH2 0x1998 JUMPI PUSH1 0x40 MLOAD PUSH3 0x461BCD PUSH1 0xE5 SHL DUP2 MSTORE PUSH1 0x20 PUSH1 0x4 DUP3 ADD MSTORE PUSH1 0x24 DUP1 DUP3 ADD MSTORE PUSH32 0x5472616E7366657248656C7065723A205452414E534645525F46524F4D5F4641 PUSH1 0x44 DUP3 ADD MSTORE PUSH4 0x12531151 PUSH1 0xE2 SHL PUSH1 0x64 DUP3 ADD MSTORE PUSH1 0x84 ADD PUSH2 0x5D4 JUMP JUMPDEST POP POP POP POP POP POP JUMP JUMPDEST PUSH1 0x1 PUSH1 0x1 PUSH1 0xA0 SHL SUB DUP2 AND PUSH1 0x0 SWAP1 DUP2 MSTORE PUSH1 0x1 DUP4 ADD PUSH1 0x20 MSTORE PUSH1 0x40 DUP2 KECCAK256 SLOAD ISZERO ISZERO PUSH2 0x17F1 JUMP JUMPDEST PUSH1 0x0 DUP2 DUP2 MSTORE PUSH1 0x1 DUP4 ADD PUSH1 0x20 MSTORE PUSH1 0x40 DUP2 KECCAK256 SLOAD PUSH2 0x1A09 JUMPI POP DUP2 SLOAD PUSH1 0x1 DUP2 DUP2 ADD DUP5 SSTORE PUSH1 0x0 DUP5 DUP2 MSTORE PUSH1 0x20 DUP1 DUP3 KECCAK256 SWAP1 SWAP4 ADD DUP5 SWAP1 SSTORE DUP5 SLOAD DUP5 DUP3 MSTORE DUP3 DUP7 ADD SWAP1 SWAP4 MSTORE PUSH1 0x40 SWAP1 KECCAK256 SWAP2 SWAP1 SWAP2 SSTORE PUSH2 0x17F4 JUMP JUMPDEST POP PUSH1 0x0 PUSH2 0x17F4 JUMP JUMPDEST DUP1 CALLDATALOAD PUSH2 0x1A1C DUP2 PUSH2 0x1DE2 JUMP JUMPDEST SWAP2 SWAP1 POP JUMP JUMPDEST PUSH1 0x0 PUSH1 0x20 DUP3 DUP5 SUB SLT ISZERO PUSH2 0x1A33 JUMPI PUSH1 0x0 DUP1 REVERT JUMPDEST DUP2 CALLDATALOAD PUSH2 0x1A3E DUP2 PUSH2 0x1DE2 JUMP JUMPDEST SWAP4 SWAP3 POP POP POP JUMP JUMPDEST PUSH1 0x0 DUP1 PUSH1 0x0 DUP1 PUSH1 0x0 DUP1 PUSH1 0x0 PUSH2 0x1E0 DUP9 DUP11 SUB SLT ISZERO PUSH2 0x1A61 JUMPI PUSH1 0x0 DUP1 REVERT JUMPDEST DUP8 CALLDATALOAD PUSH2 0x1A6C DUP2 PUSH2 0x1DE2 JUMP JUMPDEST SWAP7 POP PUSH1 0x20 DUP9 DUP2 ADD CALLDATALOAD PUSH2 0x1A7D DUP2 PUSH2 0x1DE2 JUMP JUMPDEST SWAP7 POP PUSH1 0x40 DUP10 ADD CALLDATALOAD PUSH2 0x1A8D DUP2 PUSH2 0x1DE2 JUMP JUMPDEST SWAP6 POP PUSH1 0x7F DUP10 ADD DUP11 SGT PUSH2 0x1A9E JUMPI PUSH1 0x0 DUP1 REVERT JUMPDEST PUSH1 0x40 MLOAD PUSH2 0x120 DUP2 ADD DUP2 DUP2 LT PUSH8 0xFFFFFFFFFFFFFFFF DUP3 GT OR ISZERO PUSH2 0x1AC2 JUMPI PUSH2 0x1AC2 PUSH2 0x1DCC JUMP JUMPDEST PUSH1 0x40 MSTORE DUP1 PUSH1 0x60 DUP12 ADD PUSH2 0x180 DUP13 ADD DUP14 DUP2 GT ISZERO PUSH2 0x1ADC JUMPI PUSH1 0x0 DUP1 REVERT JUMPDEST PUSH1 0x0 JUMPDEST PUSH1 0x9 DUP2 LT ISZERO PUSH2 0x1AFC JUMPI DUP3 CALLDATALOAD DUP5 MSTORE SWAP3 DUP6 ADD SWAP3 SWAP2 DUP6 ADD SWAP2 PUSH1 0x1 ADD PUSH2 0x1ADF JUMP JUMPDEST POP SWAP3 SWAP8 POP POP SWAP1 CALLDATALOAD SWAP5 POP PUSH2 0x1B15 SWAP2 POP POP PUSH2 0x1A0 DUP10 ADD PUSH2 0x1A11 JUMP JUMPDEST SWAP2 POP PUSH2 0x1C0 DUP9 ADD CALLDATALOAD SWAP1 POP SWAP3 SWAP6 SWAP9 SWAP2 SWAP5 SWAP8 POP SWAP3 SWAP6 POP JUMP JUMPDEST PUSH1 0x0 PUSH1 0x20 DUP3 DUP5 SUB SLT ISZERO PUSH2 0x1B3D JUMPI PUSH1 0x0 DUP1 REVERT JUMPDEST DUP2 CALLDATALOAD PUSH2 0x1A3E DUP2 PUSH2 0x1DF7 JUMP JUMPDEST PUSH1 0x0 PUSH1 0x20 DUP3 DUP5 SUB SLT ISZERO PUSH2 0x1B5A JUMPI PUSH1 0x0 DUP1 REVERT JUMPDEST DUP2 MLOAD PUSH2 0x1A3E DUP2 PUSH2 0x1DF7 JUMP JUMPDEST PUSH1 0x0 PUSH1 0x20 DUP3 DUP5 SUB SLT ISZERO PUSH2 0x1B77 JUMPI PUSH1 0x0 DUP1 REVERT JUMPDEST POP CALLDATALOAD SWAP2 SWAP1 POP JUMP JUMPDEST PUSH1 0x0 PUSH1 0x20 DUP3 DUP5 SUB SLT ISZERO PUSH2 0x1B90 JUMPI PUSH1 0x0 DUP1 REVERT JUMPDEST POP MLOAD SWAP2 SWAP1 POP JUMP JUMPDEST PUSH1 0x0 DUP3 MLOAD PUSH1 0x0 JUMPDEST DUP2 DUP2 LT ISZERO PUSH2 0x1BB8 JUMPI PUSH1 0x20 DUP2 DUP7 ADD DUP2 ADD MLOAD DUP6 DUP4 ADD MSTORE ADD PUSH2 0x1B9E JUMP JUMPDEST DUP2 DUP2 GT ISZERO PUSH2 0x1BC7 JUMPI PUSH1 0x0 DUP3 DUP6 ADD MSTORE JUMPDEST POP SWAP2 SWAP1 SWAP2 ADD SWAP3 SWAP2 POP POP JUMP JUMPDEST PUSH1 0x20 DUP1 DUP3 MSTORE PUSH1 0x1B SWAP1 DUP3 ADD MSTORE PUSH32 0x416C6C20746F6B656E20686173206265656E2077697468647261770000000000 PUSH1 0x40 DUP3 ADD MSTORE PUSH1 0x60 ADD SWAP1 JUMP JUMPDEST PUSH1 0x20 DUP1 DUP3 MSTORE PUSH1 0x1F SWAP1 DUP3 ADD MSTORE PUSH32 0x5265656E7472616E637947756172643A207265656E7472616E742063616C6C00 PUSH1 0x40 DUP3 ADD MSTORE PUSH1 0x60 ADD SWAP1 JUMP JUMPDEST PUSH1 0x0 DUP3 NOT DUP3 GT ISZERO PUSH2 0x1C53 JUMPI PUSH2 0x1C53 PUSH2 0x1DB6 JUMP JUMPDEST POP ADD SWAP1 JUMP JUMPDEST PUSH1 0x0 DUP3 PUSH2 0x1C75 JUMPI PUSH4 0x4E487B71 PUSH1 0xE0 SHL PUSH1 0x0 MSTORE PUSH1 0x12 PUSH1 0x4 MSTORE PUSH1 0x24 PUSH1 0x0 REVERT JUMPDEST POP DIV SWAP1 JUMP JUMPDEST PUSH1 0x1 DUP2 DUP2 JUMPDEST DUP1 DUP6 GT ISZERO PUSH2 0x1CB5 JUMPI DUP2 PUSH1 0x0 NOT DIV DUP3 GT ISZERO PUSH2 0x1C9B JUMPI PUSH2 0x1C9B PUSH2 0x1DB6 JUMP JUMPDEST DUP1 DUP6 AND ISZERO PUSH2 0x1CA8 JUMPI SWAP2 DUP2 MUL SWAP2 JUMPDEST SWAP4 DUP5 SHR SWAP4 SWAP1 DUP1 MUL SWAP1 PUSH2 0x1C7F JUMP JUMPDEST POP SWAP3 POP SWAP3 SWAP1 POP JUMP JUMPDEST PUSH1 0x0 PUSH2 0x17F1 DUP4 DUP4 PUSH1 0x0 DUP3 PUSH2 0x1CD3 JUMPI POP PUSH1 0x1 PUSH2 0x17F4 JUMP JUMPDEST DUP2 PUSH2 0x1CE0 JUMPI POP PUSH1 0x0 PUSH2 0x17F4 JUMP JUMPDEST DUP2 PUSH1 0x1 DUP2 EQ PUSH2 0x1CF6 JUMPI PUSH1 0x2 DUP2 EQ PUSH2 0x1D00 JUMPI PUSH2 0x1D1C JUMP JUMPDEST PUSH1 0x1 SWAP2 POP POP PUSH2 0x17F4 JUMP JUMPDEST PUSH1 0xFF DUP5 GT ISZERO PUSH2 0x1D11 JUMPI PUSH2 0x1D11 PUSH2 0x1DB6 JUMP JUMPDEST POP POP PUSH1 0x1 DUP3 SHL PUSH2 0x17F4 JUMP JUMPDEST POP PUSH1 0x20 DUP4 LT PUSH2 0x133 DUP4 LT AND PUSH1 0x4E DUP5 LT PUSH1 0xB DUP5 LT AND OR ISZERO PUSH2 0x1D3F JUMPI POP DUP2 DUP2 EXP PUSH2 0x17F4 JUMP JUMPDEST PUSH2 0x1D49 DUP4 DUP4 PUSH2 0x1C7A JUMP JUMPDEST DUP1 PUSH1 0x0 NOT DIV DUP3 GT ISZERO PUSH2 0x1D5D JUMPI PUSH2 0x1D5D PUSH2 0x1DB6 JUMP JUMPDEST MUL SWAP4 SWAP3 POP POP POP JUMP JUMPDEST PUSH1 0x0 DUP2 PUSH1 0x0 NOT DIV DUP4 GT DUP3 ISZERO ISZERO AND ISZERO PUSH2 0x1D7F JUMPI PUSH2 0x1D7F PUSH2 0x1DB6 JUMP JUMPDEST POP MUL SWAP1 JUMP JUMPDEST PUSH1 0x0 DUP3 DUP3 LT ISZERO PUSH2 0x1D96 JUMPI PUSH2 0x1D96 PUSH2 0x1DB6 JUMP JUMPDEST POP SUB SWAP1 JUMP JUMPDEST PUSH1 0x0 PUSH1 0x0 NOT DUP3 EQ ISZERO PUSH2 0x1DAF JUMPI PUSH2 0x1DAF PUSH2 0x1DB6 JUMP JUMPDEST POP PUSH1 0x1 ADD SWAP1 JUMP JUMPDEST PUSH4 0x4E487B71 PUSH1 0xE0 SHL PUSH1 0x0 MSTORE PUSH1 0x11 PUSH1 0x4 MSTORE PUSH1 0x24 PUSH1 0x0 REVERT JUMPDEST PUSH4 0x4E487B71 PUSH1 0xE0 SHL PUSH1 0x0 MSTORE PUSH1 0x41 PUSH1 0x4 MSTORE PUSH1 0x24 PUSH1 0x0 REVERT JUMPDEST PUSH1 0x1 PUSH1 0x1 PUSH1 0xA0 SHL SUB DUP2 AND DUP2 EQ PUSH2 0x615 JUMPI PUSH1 0x0 DUP1 REVERT JUMPDEST DUP1 ISZERO ISZERO DUP2 EQ PUSH2 0x615 JUMPI PUSH1 0x0 DUP1 REVERT INVALID LOG2 PUSH5 0x6970667358 0x22 SLT KECCAK256 SSTORE 0x5E CALL SGT RETURNDATACOPY SWAP1 0xDF SWAP3 CALLDATACOPY CALLVALUE 0xBA 0x2C EXTCODESIZE DUP8 SHL 0x1E DELEGATECALL 0xE2 PUSH31 0xADE2C79A95067784FD37AC43664736F6C6343000805003300000000000000 "
				},
				"gasEstimates": {
					"creation": {
						"codeDepositCost": "1547800",
						"executionCost": "infinite",
						"totalCost": "infinite"
					},
					"external": {
						"WETH()": "2426",
						"adminReceiveFee()": "2448",
						"backToken()": "infinite",
						"buyerInfo(address)": "11126",
						"checkAdminAddress()": "2499",
						"deposit(uint256)": "infinite",
						"feeAnyone()": "2407",
						"feeCreateSale()": "2339",
						"getBalance(address)": "3094",
						"initialSaleInfor(address,address,address,uint256[9],uint256,address,uint256)": "infinite",
						"owner()": "2409",
						"ownerClaimAndRefundToken()": "infinite",
						"presaleStatus()": "17307",
						"renounceOwnership()": "28162",
						"saleInfor()": "25810",
						"saleTotalSupply()": "4441",
						"status()": "4555",
						"totalFee()": "2363",
						"transferOwnership(address)": "infinite",
						"userClaimEmergency()": "infinite",
						"userClaimOrRefundWhenSaleSuccess(bool)": "infinite",
						"userFee(address)": "2536",
						"userRefundEmergency()": "infinite"
					}
				},
				"methodIdentifiers": {
					"WETH()": "ad5c4648",
					"adminReceiveFee()": "ae2b0965",
					"backToken()": "861faf5f",
					"buyerInfo(address)": "e2d3f423",
					"checkAdminAddress()": "cad5b0f7",
					"deposit(uint256)": "b6b55f25",
					"feeAnyone()": "3b5ef2ad",
					"feeCreateSale()": "d4c1dee9",
					"getBalance(address)": "f8b2cb4f",
					"initialSaleInfor(address,address,address,uint256[9],uint256,address,uint256)": "9b25415c",
					"owner()": "8da5cb5b",
					"ownerClaimAndRefundToken()": "8edf18e6",
					"presaleStatus()": "acfb2355",
					"renounceOwnership()": "715018a6",
					"saleInfor()": "18856a2f",
					"saleTotalSupply()": "12e5d0b9",
					"status()": "200d2ed2",
					"totalFee()": "1df4ccfc",
					"transferOwnership(address)": "f2fde38b",
					"userClaimEmergency()": "ab33985a",
					"userClaimOrRefundWhenSaleSuccess(bool)": "eb002bb0",
					"userFee(address)": "56c5f349",
					"userRefundEmergency()": "95661e70"
				}
			},
			"storageLayout": {
				"storage": [
					{
						"astId": 2860,
						"contract": "Ethereum/Presale.sol:Presale",
						"label": "_status",
						"offset": 0,
						"slot": "0",
						"type": "t_uint256"
					},
					{
						"astId": 2752,
						"contract": "Ethereum/Presale.sol:Presale",
						"label": "_owner",
						"offset": 0,
						"slot": "1",
						"type": "t_address"
					},
					{
						"astId": 890,
						"contract": "Ethereum/Presale.sol:Presale",
						"label": "buyerInfo",
						"offset": 0,
						"slot": "2",
						"type": "t_mapping(t_address,t_struct(BuyerInfo)863_storage)"
					},
					{
						"astId": 894,
						"contract": "Ethereum/Presale.sol:Presale",
						"label": "userFee",
						"offset": 0,
						"slot": "3",
						"type": "t_mapping(t_address,t_uint256)"
					},
					{
						"astId": 897,
						"contract": "Ethereum/Presale.sol:Presale",
						"label": "presaleStatus",
						"offset": 0,
						"slot": "4",
						"type": "t_struct(PresaleStatus)885_storage"
					},
					{
						"astId": 900,
						"contract": "Ethereum/Presale.sol:Presale",
						"label": "saleTotalSupply",
						"offset": 0,
						"slot": "13",
						"type": "t_struct(SaleTotalSupply)852_storage"
					},
					{
						"astId": 903,
						"contract": "Ethereum/Presale.sol:Presale",
						"label": "saleInfor",
						"offset": 0,
						"slot": "15",
						"type": "t_struct(SaleInfor)847_storage"
					},
					{
						"astId": 906,
						"contract": "Ethereum/Presale.sol:Presale",
						"label": "WETH",
						"offset": 0,
						"slot": "27",
						"type": "t_contract(IERC20)663"
					},
					{
						"astId": 909,
						"contract": "Ethereum/Presale.sol:Presale",
						"label": "admins",
						"offset": 0,
						"slot": "28",
						"type": "t_struct(AddressSet)2457_storage"
					},
					{
						"astId": 911,
						"contract": "Ethereum/Presale.sol:Presale",
						"label": "totalFee",
						"offset": 0,
						"slot": "30",
						"type": "t_uint256"
					},
					{
						"astId": 913,
						"contract": "Ethereum/Presale.sol:Presale",
						"label": "feeAnyone",
						"offset": 0,
						"slot": "31",
						"type": "t_uint256"
					},
					{
						"astId": 915,
						"contract": "Ethereum/Presale.sol:Presale",
						"label": "adminReceiveFee",
						"offset": 0,
						"slot": "32",
						"type": "t_address"
					},
					{
						"astId": 917,
						"contract": "Ethereum/Presale.sol:Presale",
						"label": "feeCreateSale",
						"offset": 0,
						"slot": "33",
						"type": "t_uint256"
					}
				],
				"types": {
					"t_address": {
						"encoding": "inplace",
						"label": "address",
						"numberOfBytes": "20"
					},
					"t_address_payable": {
						"encoding": "inplace",
						"label": "address payable",
						"numberOfBytes": "20"
					},
					"t_array(t_address)dyn_storage": {
						"base": "t_address",
						"encoding": "dynamic_array",
						"label": "address[]",
						"numberOfBytes": "32"
					},
					"t_array(t_bytes32)dyn_storage": {
						"base": "t_bytes32",
						"encoding": "dynamic_array",
						"label": "bytes32[]",
						"numberOfBytes": "32"
					},
					"t_bool": {
						"encoding": "inplace",
						"label": "bool",
						"numberOfBytes": "1"
					},
					"t_bytes32": {
						"encoding": "inplace",
						"label": "bytes32",
						"numberOfBytes": "32"
					},
					"t_contract(ERC20)585": {
						"encoding": "inplace",
						"label": "contract ERC20",
						"numberOfBytes": "20"
					},
					"t_contract(IERC20)663": {
						"encoding": "inplace",
						"label": "contract IERC20",
						"numberOfBytes": "20"
					},
					"t_mapping(t_address,t_struct(BuyerInfo)863_storage)": {
						"encoding": "mapping",
						"key": "t_address",
						"label": "mapping(address => struct Presale.BuyerInfo)",
						"numberOfBytes": "32",
						"value": "t_struct(BuyerInfo)863_storage"
					},
					"t_mapping(t_address,t_uint256)": {
						"encoding": "mapping",
						"key": "t_address",
						"label": "mapping(address => uint256)",
						"numberOfBytes": "32",
						"value": "t_uint256"
					},
					"t_mapping(t_bytes32,t_uint256)": {
						"encoding": "mapping",
						"key": "t_bytes32",
						"label": "mapping(bytes32 => uint256)",
						"numberOfBytes": "32",
						"value": "t_uint256"
					},
					"t_struct(AddressSet)2457_storage": {
						"encoding": "inplace",
						"label": "struct EnumerableSet.AddressSet",
						"members": [
							{
								"astId": 2456,
								"contract": "Ethereum/Presale.sol:Presale",
								"label": "_inner",
								"offset": 0,
								"slot": "0",
								"type": "t_struct(Set)2156_storage"
							}
						],
						"numberOfBytes": "64"
					},
					"t_struct(BuyerInfo)863_storage": {
						"encoding": "inplace",
						"label": "struct Presale.BuyerInfo",
						"members": [
							{
								"astId": 854,
								"contract": "Ethereum/Presale.sol:Presale",
								"label": "baseDeposit",
								"offset": 0,
								"slot": "0",
								"type": "t_uint256"
							},
							{
								"astId": 856,
								"contract": "Ethereum/Presale.sol:Presale",
								"label": "tokenOwner",
								"offset": 0,
								"slot": "1",
								"type": "t_uint256"
							},
							{
								"astId": 858,
								"contract": "Ethereum/Presale.sol:Presale",
								"label": "lastWithDraw",
								"offset": 0,
								"slot": "2",
								"type": "t_uint256"
							},
							{
								"astId": 860,
								"contract": "Ethereum/Presale.sol:Presale",
								"label": "totalTokenWithDraw",
								"offset": 0,
								"slot": "3",
								"type": "t_uint256"
							},
							{
								"astId": 862,
								"contract": "Ethereum/Presale.sol:Presale",
								"label": "totalBaseWithDraw",
								"offset": 0,
								"slot": "4",
								"type": "t_uint256"
							}
						],
						"numberOfBytes": "160"
					},
					"t_struct(PresaleStatus)885_storage": {
						"encoding": "inplace",
						"label": "struct Presale.PresaleStatus",
						"members": [
							{
								"astId": 865,
								"contract": "Ethereum/Presale.sol:Presale",
								"label": "totalBaseCollected",
								"offset": 0,
								"slot": "0",
								"type": "t_uint256"
							},
							{
								"astId": 867,
								"contract": "Ethereum/Presale.sol:Presale",
								"label": "totalTokenSold",
								"offset": 0,
								"slot": "1",
								"type": "t_uint256"
							},
							{
								"astId": 869,
								"contract": "Ethereum/Presale.sol:Presale",
								"label": "totalTokenWithDraw",
								"offset": 0,
								"slot": "2",
								"type": "t_uint256"
							},
							{
								"astId": 871,
								"contract": "Ethereum/Presale.sol:Presale",
								"label": "totalBaseWithDraw",
								"offset": 0,
								"slot": "3",
								"type": "t_uint256"
							},
							{
								"astId": 873,
								"contract": "Ethereum/Presale.sol:Presale",
								"label": "totalTokenBackForAdmin",
								"offset": 0,
								"slot": "4",
								"type": "t_uint256"
							},
							{
								"astId": 875,
								"contract": "Ethereum/Presale.sol:Presale",
								"label": "totalBaseBackForAdmin",
								"offset": 0,
								"slot": "5",
								"type": "t_uint256"
							},
							{
								"astId": 877,
								"contract": "Ethereum/Presale.sol:Presale",
								"label": "numberBuyer",
								"offset": 0,
								"slot": "6",
								"type": "t_uint256"
							},
							{
								"astId": 879,
								"contract": "Ethereum/Presale.sol:Presale",
								"label": "isOwnerClaimSaleToken",
								"offset": 0,
								"slot": "7",
								"type": "t_bool"
							},
							{
								"astId": 881,
								"contract": "Ethereum/Presale.sol:Presale",
								"label": "isOwnerRefundBaseToken",
								"offset": 1,
								"slot": "7",
								"type": "t_bool"
							},
							{
								"astId": 884,
								"contract": "Ethereum/Presale.sol:Presale",
								"label": "admin",
								"offset": 0,
								"slot": "8",
								"type": "t_array(t_address)dyn_storage"
							}
						],
						"numberOfBytes": "288"
					},
					"t_struct(SaleInfor)847_storage": {
						"encoding": "inplace",
						"label": "struct Presale.SaleInfor",
						"members": [
							{
								"astId": 822,
								"contract": "Ethereum/Presale.sol:Presale",
								"label": "presaleOwner",
								"offset": 0,
								"slot": "0",
								"type": "t_address_payable"
							},
							{
								"astId": 825,
								"contract": "Ethereum/Presale.sol:Presale",
								"label": "saleToken",
								"offset": 0,
								"slot": "1",
								"type": "t_contract(ERC20)585"
							},
							{
								"astId": 828,
								"contract": "Ethereum/Presale.sol:Presale",
								"label": "baseToken",
								"offset": 0,
								"slot": "2",
								"type": "t_contract(ERC20)585"
							},
							{
								"astId": 830,
								"contract": "Ethereum/Presale.sol:Presale",
								"label": "tokenPrice",
								"offset": 0,
								"slot": "3",
								"type": "t_uint256"
							},
							{
								"astId": 832,
								"contract": "Ethereum/Presale.sol:Presale",
								"label": "startSale",
								"offset": 0,
								"slot": "4",
								"type": "t_uint256"
							},
							{
								"astId": 834,
								"contract": "Ethereum/Presale.sol:Presale",
								"label": "endSale",
								"offset": 0,
								"slot": "5",
								"type": "t_uint256"
							},
							{
								"astId": 836,
								"contract": "Ethereum/Presale.sol:Presale",
								"label": "minSpendPerBuyer",
								"offset": 0,
								"slot": "6",
								"type": "t_uint256"
							},
							{
								"astId": 838,
								"contract": "Ethereum/Presale.sol:Presale",
								"label": "maxSpendPerBuyer",
								"offset": 0,
								"slot": "7",
								"type": "t_uint256"
							},
							{
								"astId": 840,
								"contract": "Ethereum/Presale.sol:Presale",
								"label": "refundFee",
								"offset": 0,
								"slot": "8",
								"type": "t_uint256"
							},
							{
								"astId": 842,
								"contract": "Ethereum/Presale.sol:Presale",
								"label": "claimFee",
								"offset": 0,
								"slot": "9",
								"type": "t_uint256"
							},
							{
								"astId": 844,
								"contract": "Ethereum/Presale.sol:Presale",
								"label": "saleIsBaseToken",
								"offset": 0,
								"slot": "10",
								"type": "t_bool"
							},
							{
								"astId": 846,
								"contract": "Ethereum/Presale.sol:Presale",
								"label": "amountTokenForSale",
								"offset": 0,
								"slot": "11",
								"type": "t_uint256"
							}
						],
						"numberOfBytes": "384"
					},
					"t_struct(SaleTotalSupply)852_storage": {
						"encoding": "inplace",
						"label": "struct Presale.SaleTotalSupply",
						"members": [
							{
								"astId": 849,
								"contract": "Ethereum/Presale.sol:Presale",
								"label": "hardCap",
								"offset": 0,
								"slot": "0",
								"type": "t_uint256"
							},
							{
								"astId": 851,
								"contract": "Ethereum/Presale.sol:Presale",
								"label": "softCap",
								"offset": 0,
								"slot": "1",
								"type": "t_uint256"
							}
						],
						"numberOfBytes": "64"
					},
					"t_struct(Set)2156_storage": {
						"encoding": "inplace",
						"label": "struct EnumerableSet.Set",
						"members": [
							{
								"astId": 2151,
								"contract": "Ethereum/Presale.sol:Presale",
								"label": "_values",
								"offset": 0,
								"slot": "0",
								"type": "t_array(t_bytes32)dyn_storage"
							},
							{
								"astId": 2155,
								"contract": "Ethereum/Presale.sol:Presale",
								"label": "_indexes",
								"offset": 0,
								"slot": "1",
								"type": "t_mapping(t_bytes32,t_uint256)"
							}
						],
						"numberOfBytes": "64"
					},
					"t_uint256": {
						"encoding": "inplace",
						"label": "uint256",
						"numberOfBytes": "32"
					}
				}
			},
			"userdoc": {
				"kind": "user",
				"methods": {},
				"version": 1
			}
		}
	}
}