{
	"Ethereum/Presale.sol": {
		"Presale": {
			"abi": [
				{
					"inputs": [],
					"stateMutability": "payable",
					"type": "constructor"
				},
				{
					"anonymous": false,
					"inputs": [
						{
							"indexed": true,
							"internalType": "address",
							"name": "previousOwner",
							"type": "address"
						},
						{
							"indexed": true,
							"internalType": "address",
							"name": "newOwner",
							"type": "address"
						}
					],
					"name": "OwnershipTransferred",
					"type": "event"
				},
				{
					"inputs": [],
					"name": "WETH",
					"outputs": [
						{
							"internalType": "contract IERC20",
							"name": "",
							"type": "address"
						}
					],
					"stateMutability": "view",
					"type": "function"
				},
				{
					"inputs": [],
					"name": "backToken",
					"outputs": [],
					"stateMutability": "payable",
					"type": "function"
				},
				{
					"inputs": [
						{
							"internalType": "address",
							"name": "",
							"type": "address"
						}
					],
					"name": "buyerInfo",
					"outputs": [
						{
							"internalType": "uint256",
							"name": "baseDeposit",
							"type": "uint256"
						},
						{
							"internalType": "uint256",
							"name": "tokenOwner",
							"type": "uint256"
						},
						{
							"internalType": "uint256",
							"name": "lastWithDraw",
							"type": "uint256"
						},
						{
							"internalType": "uint256",
							"name": "totalTokenWithDraw",
							"type": "uint256"
						},
						{
							"internalType": "bool",
							"name": "isRefund",
							"type": "bool"
						},
						{
							"internalType": "bool",
							"name": "isClaim",
							"type": "bool"
						}
					],
					"stateMutability": "view",
					"type": "function"
				},
				{
					"inputs": [],
					"name": "checkAdminAddress",
					"outputs": [
						{
							"internalType": "bool",
							"name": "",
							"type": "bool"
						}
					],
					"stateMutability": "view",
					"type": "function"
				},
				{
					"inputs": [
						{
							"internalType": "uint256",
							"name": "_amount",
							"type": "uint256"
						}
					],
					"name": "deposit",
					"outputs": [
						{
							"internalType": "uint256",
							"name": "",
							"type": "uint256"
						}
					],
					"stateMutability": "view",
					"type": "function"
				},
				{
					"inputs": [],
					"name": "feeAnyone",
					"outputs": [
						{
							"internalType": "uint256",
							"name": "",
							"type": "uint256"
						}
					],
					"stateMutability": "view",
					"type": "function"
				},
				{
					"inputs": [
						{
							"internalType": "address",
							"name": "_address",
							"type": "address"
						}
					],
					"name": "getBalance",
					"outputs": [
						{
							"internalType": "uint256",
							"name": "",
							"type": "uint256"
						}
					],
					"stateMutability": "view",
					"type": "function"
				},
				{
					"inputs": [
						{
							"internalType": "address payable",
							"name": "_presaleOwner",
							"type": "address"
						},
						{
							"internalType": "contract ERC20",
							"name": "_saleToken",
							"type": "address"
						},
						{
							"internalType": "contract ERC20",
							"name": "_baseTOken",
							"type": "address"
						},
						{
							"internalType": "uint256[7]",
							"name": "datas",
							"type": "uint256[7]"
						}
					],
					"name": "initialSaleInfor",
					"outputs": [],
					"stateMutability": "nonpayable",
					"type": "function"
				},
				{
					"inputs": [],
					"name": "owner",
					"outputs": [
						{
							"internalType": "address",
							"name": "",
							"type": "address"
						}
					],
					"stateMutability": "view",
					"type": "function"
				},
				{
					"inputs": [],
					"name": "presaleStatus",
					"outputs": [
						{
							"internalType": "uint256",
							"name": "totalBaseCollected",
							"type": "uint256"
						},
						{
							"internalType": "uint256",
							"name": "totalTokenSold",
							"type": "uint256"
						},
						{
							"internalType": "uint256",
							"name": "totalTokenWithDraw",
							"type": "uint256"
						},
						{
							"internalType": "uint256",
							"name": "totalBaseWithDraw",
							"type": "uint256"
						},
						{
							"internalType": "uint256",
							"name": "numByer",
							"type": "uint256"
						},
						{
							"internalType": "uint256",
							"name": "totalFee",
							"type": "uint256"
						}
					],
					"stateMutability": "view",
					"type": "function"
				},
				{
					"inputs": [],
					"name": "renounceOwnership",
					"outputs": [],
					"stateMutability": "nonpayable",
					"type": "function"
				},
				{
					"inputs": [],
					"name": "saleInfor",
					"outputs": [
						{
							"internalType": "address payable",
							"name": "presaleOwner",
							"type": "address"
						},
						{
							"internalType": "contract ERC20",
							"name": "saleToken",
							"type": "address"
						},
						{
							"internalType": "contract ERC20",
							"name": "baseToken",
							"type": "address"
						},
						{
							"internalType": "uint256",
							"name": "tokenPrice",
							"type": "uint256"
						},
						{
							"internalType": "uint256",
							"name": "startSale",
							"type": "uint256"
						},
						{
							"internalType": "uint256",
							"name": "endSale",
							"type": "uint256"
						},
						{
							"internalType": "uint256",
							"name": "minSpendPerBuyer",
							"type": "uint256"
						},
						{
							"internalType": "uint256",
							"name": "maxSpendPerBuyer",
							"type": "uint256"
						},
						{
							"internalType": "uint256",
							"name": "refundFee",
							"type": "uint256"
						},
						{
							"internalType": "uint256",
							"name": "claimFee",
							"type": "uint256"
						},
						{
							"internalType": "bool",
							"name": "saleIsBaseToken",
							"type": "bool"
						},
						{
							"internalType": "uint256",
							"name": "amountTokenForSale",
							"type": "uint256"
						}
					],
					"stateMutability": "view",
					"type": "function"
				},
				{
					"inputs": [],
					"name": "status",
					"outputs": [
						{
							"internalType": "uint256",
							"name": "",
							"type": "uint256"
						}
					],
					"stateMutability": "view",
					"type": "function"
				},
				{
					"inputs": [
						{
							"internalType": "uint256",
							"name": "amount",
							"type": "uint256"
						}
					],
					"name": "transferETH",
					"outputs": [],
					"stateMutability": "payable",
					"type": "function"
				},
				{
					"inputs": [
						{
							"internalType": "address",
							"name": "newOwner",
							"type": "address"
						}
					],
					"name": "transferOwnership",
					"outputs": [],
					"stateMutability": "nonpayable",
					"type": "function"
				},
				{
					"inputs": [
						{
							"internalType": "address",
							"name": "",
							"type": "address"
						}
					],
					"name": "userFee",
					"outputs": [
						{
							"internalType": "uint256",
							"name": "",
							"type": "uint256"
						}
					],
					"stateMutability": "view",
					"type": "function"
				}
			],
			"devdoc": {
				"kind": "dev",
				"methods": {
					"owner()": {
						"details": "Returns the address of the current owner."
					},
					"renounceOwnership()": {
						"details": "Leaves the contract without owner. It will not be possible to call `onlyOwner` functions anymore. Can only be called by the current owner. NOTE: Renouncing ownership will leave the contract without an owner, thereby removing any functionality that is only available to the owner."
					},
					"transferOwnership(address)": {
						"details": "Transfers ownership of the contract to a new account (`newOwner`). Can only be called by the current owner."
					}
				},
				"version": 1
			},
			"evm": {
				"assembly": "    /* \"Ethereum/Presale.sol\":338:4857  contract Presale is ReentrancyGuard, Ownable{\r... */\n  mstore(0x40, 0x80)\n    /* \"Utils/ReentrancyGuard.sol\":1734:1735  1 */\n  0x01\n    /* \"Utils/ReentrancyGuard.sol\":1845:1852  _status */\n  0x00\n    /* \"Utils/ReentrancyGuard.sol\":1845:1867  _status = _NOT_ENTERED */\n  sstore\n    /* \"Utils/Ownable.sol\":942:974  _transferOwnership(_msgSender()) */\n  tag_6\n    /* \"Utils/Context.sol\":736:746  msg.sender */\n  caller\n    /* \"Utils/Ownable.sol\":942:960  _transferOwnership */\n  tag_9\n    /* \"Utils/Ownable.sol\":942:974  _transferOwnership(_msgSender()) */\n  jump\t// in\ntag_6:\n    /* \"Ethereum/Presale.sol\":1903:1907  WETH */\n  0x17\n    /* \"Ethereum/Presale.sol\":1903:1959  WETH = ERC20(0xc778417E063141139Fce010982780140Aa0cD5Ab) */\n  dup1\n  sload\n    /* \"Ethereum/Presale.sol\":1916:1958  0xc778417E063141139Fce010982780140Aa0cD5Ab */\n  0xc778417e063141139fce010982780140aa0cd5ab\n  not(sub(shl(0xa0, 0x01), 0x01))\n    /* \"Ethereum/Presale.sol\":1903:1959  WETH = ERC20(0xc778417E063141139Fce010982780140Aa0cD5Ab) */\n  swap1\n  swap2\n  and\n  or\n  swap1\n  sstore\n    /* \"Ethereum/Presale.sol\":1970:2024  admins.add(0x6Ccb41eedA5a073076F3E7dC1614C185b5fA41eD) */\n  tag_11\n    /* \"Ethereum/Presale.sol\":1970:1976  admins */\n  0x19\n    /* \"Ethereum/Presale.sol\":1981:2023  0x6Ccb41eedA5a073076F3E7dC1614C185b5fA41eD */\n  0x6ccb41eeda5a073076f3e7dc1614c185b5fa41ed\n    /* \"Ethereum/Presale.sol\":1970:1980  admins.add */\n  tag_12\n  0x20\n  swap1\n  dup2\n  shl\n  tag_0_95\n  or\n    /* \"Ethereum/Presale.sol\":1970:2024  admins.add(0x6Ccb41eedA5a073076F3E7dC1614C185b5fA41eD) */\n  swap1\n  shr\n  jump\t// in\ntag_11:\n  pop\n    /* \"Ethereum/Presale.sol\":2035:2089  admins.add(0x4f0B12bBF40Fc182559822A5b1dB6D34dbC3E016) */\n  tag_13\n    /* \"Ethereum/Presale.sol\":2046:2088  0x4f0B12bBF40Fc182559822A5b1dB6D34dbC3E016 */\n  0x4f0b12bbf40fc182559822a5b1db6d34dbc3e016\n    /* \"Ethereum/Presale.sol\":2035:2041  admins */\n  0x19\n    /* \"Ethereum/Presale.sol\":2035:2045  admins.add */\n  or(tag_0_95, shl(0x20, tag_12))\n  swap1\n    /* \"Ethereum/Presale.sol\":2035:2089  admins.add(0x4f0B12bBF40Fc182559822A5b1dB6D34dbC3E016) */\n  swap2\n  swap1\n  0x20\n  shr\n  jump\t// in\ntag_13:\n  pop\n    /* \"Ethereum/Presale.sol\":2112:2114  20 */\n  0x14\n    /* \"Ethereum/Presale.sol\":2100:2109  feeAnyone */\n  0x18\n    /* \"Ethereum/Presale.sol\":2100:2114  feeAnyone = 20 */\n  sstore\n    /* \"Ethereum/Presale.sol\":338:4857  contract Presale is ReentrancyGuard, Ownable{\r... */\n  jump(tag_14)\n    /* \"Utils/Ownable.sol\":2333:2524  function _transferOwnership(address newOwner) internal virtual {\r... */\ntag_9:\n    /* \"Utils/Ownable.sol\":2426:2432  _owner */\n  0x01\n  dup1\n  sload\n  sub(shl(0xa0, 0x01), 0x01)\n    /* \"Utils/Ownable.sol\":2443:2460  _owner = newOwner */\n  dup4\n  dup2\n  and\n  not(sub(shl(0xa0, 0x01), 0x01))\n  dup4\n  and\n  dup2\n  or\n  swap1\n  swap4\n  sstore\n    /* \"Utils/Ownable.sol\":2476:2516  OwnershipTransferred(oldOwner, newOwner) */\n  mload(0x40)\n    /* \"Utils/Ownable.sol\":2426:2432  _owner */\n  swap2\n  and\n  swap2\n    /* \"Utils/Ownable.sol\":2443:2460  _owner = newOwner */\n  swap1\n    /* \"Utils/Ownable.sol\":2426:2432  _owner */\n  dup3\n  swap1\n    /* \"Utils/Ownable.sol\":2476:2516  OwnershipTransferred(oldOwner, newOwner) */\n  0x8be0079c531659141344cd1fd0a4f28419497f9722a3daafe3b4186f6b6457e0\n  swap1\n    /* \"Utils/Ownable.sol\":2407:2423  address oldOwner */\n  0x00\n  swap1\n    /* \"Utils/Ownable.sol\":2476:2516  OwnershipTransferred(oldOwner, newOwner) */\n  log3\n    /* \"Utils/Ownable.sol\":2333:2524  function _transferOwnership(address newOwner) internal virtual {\r... */\n  pop\n  pop\n  jump\t// out\n    /* \"Utils/EnumerableSet.sol\":8259:8411  function add(AddressSet storage set, address value) internal returns (bool) {\r... */\ntag_12:\n    /* \"Utils/EnumerableSet.sol\":8329:8333  bool */\n  0x00\n    /* \"Utils/EnumerableSet.sol\":8353:8403  _add(set._inner, bytes32(uint256(uint160(value)))) */\n  tag_18\n    /* \"Utils/EnumerableSet.sol\":8358:8361  set */\n  dup4\n  sub(shl(0xa0, 0x01), 0x01)\n    /* \"Utils/EnumerableSet.sol\":8378:8401  uint256(uint160(value)) */\n  dup5\n  and\n    /* \"Utils/EnumerableSet.sol\":8353:8357  _add */\n  tag_19\n    /* \"Utils/EnumerableSet.sol\":8353:8403  _add(set._inner, bytes32(uint256(uint160(value)))) */\n  jump\t// in\ntag_18:\n    /* \"Utils/EnumerableSet.sol\":8346:8403  return _add(set._inner, bytes32(uint256(uint160(value)))) */\n  swap1\n  pop\n    /* \"Utils/EnumerableSet.sol\":8259:8411  function add(AddressSet storage set, address value) internal returns (bool) {\r... */\ntag_17:\n  swap3\n  swap2\n  pop\n  pop\n  jump\t// out\n    /* \"Utils/EnumerableSet.sol\":2174:2588  function _add(Set storage set, bytes32 value) private returns (bool) {\r... */\ntag_19:\n    /* \"Utils/EnumerableSet.sol\":2237:2241  bool */\n  0x00\n    /* \"Utils/EnumerableSet.sol\":4367:4386  set._indexes[value] */\n  dup2\n  dup2\n  mstore\n    /* \"Utils/EnumerableSet.sol\":4367:4379  set._indexes */\n  0x01\n  dup4\n  add\n    /* \"Utils/EnumerableSet.sol\":4367:4386  set._indexes[value] */\n  0x20\n  mstore\n  0x40\n  dup2\n  keccak256\n  sload\n    /* \"Utils/EnumerableSet.sol\":2254:2581  if (!_contains(set, value)) {\r... */\n  tag_23\n  jumpi\n  pop\n    /* \"Utils/EnumerableSet.sol\":2297:2320  set._values.push(value) */\n  dup2\n  sload\n  0x01\n  dup2\n  dup2\n  add\n  dup5\n  sstore\n    /* \"Utils/EnumerableSet.sol\":2297:2308  set._values */\n  0x00\n    /* \"Utils/EnumerableSet.sol\":2297:2320  set._values.push(value) */\n  dup5\n  dup2\n  mstore\n  0x20\n  dup1\n  dup3\n  keccak256\n  swap1\n  swap4\n  add\n  dup5\n  swap1\n  sstore\n    /* \"Utils/EnumerableSet.sol\":2480:2498  set._values.length */\n  dup5\n  sload\n    /* \"Utils/EnumerableSet.sol\":2458:2477  set._indexes[value] */\n  dup5\n  dup3\n  mstore\n    /* \"Utils/EnumerableSet.sol\":2458:2470  set._indexes */\n  dup3\n  dup7\n  add\n    /* \"Utils/EnumerableSet.sol\":2458:2477  set._indexes[value] */\n  swap1\n  swap4\n  mstore\n  0x40\n  swap1\n  keccak256\n    /* \"Utils/EnumerableSet.sol\":2458:2498  set._indexes[value] = set._values.length */\n  swap2\n  swap1\n  swap2\n  sstore\n    /* \"Utils/EnumerableSet.sol\":2513:2524  return true */\n  jump(tag_17)\n    /* \"Utils/EnumerableSet.sol\":2254:2581  if (!_contains(set, value)) {\r... */\ntag_23:\n  pop\n    /* \"Utils/EnumerableSet.sol\":2564:2569  false */\n  0x00\n    /* \"Utils/EnumerableSet.sol\":2557:2569  return false */\n  jump(tag_17)\n    /* \"Ethereum/Presale.sol\":338:4857  contract Presale is ReentrancyGuard, Ownable{\r... */\ntag_14:\n  dataSize(sub_0)\n  dup1\n  dataOffset(sub_0)\n  0x00\n  codecopy\n  0x00\n  return\nstop\n\nsub_0: assembly {\n        /* \"Ethereum/Presale.sol\":338:4857  contract Presale is ReentrancyGuard, Ownable{\r... */\n      mstore(0x40, 0x80)\n      jumpi(tag_1, lt(calldatasize, 0x04))\n      shr(0xe0, calldataload(0x00))\n      dup1\n      0x8da5cb5b\n      gt\n      tag_18\n      jumpi\n      dup1\n      0xcad5b0f7\n      gt\n      tag_19\n      jumpi\n      dup1\n      0xcad5b0f7\n      eq\n      tag_14\n      jumpi\n      dup1\n      0xe2d3f423\n      eq\n      tag_15\n      jumpi\n      dup1\n      0xf2fde38b\n      eq\n      tag_16\n      jumpi\n      dup1\n      0xf8b2cb4f\n      eq\n      tag_17\n      jumpi\n      0x00\n      dup1\n      revert\n    tag_19:\n      dup1\n      0x8da5cb5b\n      eq\n      tag_10\n      jumpi\n      dup1\n      0xacfb2355\n      eq\n      tag_11\n      jumpi\n      dup1\n      0xad5c4648\n      eq\n      tag_12\n      jumpi\n      dup1\n      0xb6b55f25\n      eq\n      tag_13\n      jumpi\n      0x00\n      dup1\n      revert\n    tag_18:\n      dup1\n      0x56c5f349\n      gt\n      tag_20\n      jumpi\n      dup1\n      0x56c5f349\n      eq\n      tag_6\n      jumpi\n      dup1\n      0x61e17655\n      eq\n      tag_7\n      jumpi\n      dup1\n      0x715018a6\n      eq\n      tag_8\n      jumpi\n      dup1\n      0x861faf5f\n      eq\n      tag_9\n      jumpi\n      0x00\n      dup1\n      revert\n    tag_20:\n      dup1\n      0x18856a2f\n      eq\n      tag_2\n      jumpi\n      dup1\n      0x200d2ed2\n      eq\n      tag_3\n      jumpi\n      dup1\n      0x3b5ef2ad\n      eq\n      tag_4\n      jumpi\n      dup1\n      0x4329db46\n      eq\n      tag_5\n      jumpi\n    tag_1:\n      0x00\n      dup1\n      revert\n        /* \"Ethereum/Presale.sol\":1492:1518  SaleInfor public saleInfor */\n    tag_2:\n      callvalue\n      dup1\n      iszero\n      tag_21\n      jumpi\n      0x00\n      dup1\n      revert\n    tag_21:\n      pop\n      sload(0x0b)\n      sload(0x0c)\n      sload(0x0d)\n      sload(0x0e)\n      sload(0x0f)\n      sload(0x10)\n      sload(0x11)\n      sload(0x12)\n      sload(0x13)\n      sload(0x14)\n      sload(0x15)\n      sload(0x16)\n      tag_22\n      swap12\n      sub(shl(0xa0, 0x01), 0x01)\n      swap1\n      dup2\n      and\n      swap12\n      dup2\n      and\n      swap11\n      and\n      swap9\n      swap8\n      swap7\n      swap6\n      swap5\n      swap4\n      swap3\n      swap2\n      0xff\n      and\n      swap1\n      dup13\n      jump\n    tag_22:\n      0x40\n      dup1\n      mload\n      sub(shl(0xa0, 0x01), 0x01)\n        /* \"#utility.yul\":2728:2743   */\n      swap14\n      dup15\n      and\n        /* \"#utility.yul\":2710:2744   */\n      dup2\n      mstore\n        /* \"#utility.yul\":2780:2795   */\n      swap12\n      dup14\n      and\n        /* \"#utility.yul\":2775:2777   */\n      0x20\n        /* \"#utility.yul\":2760:2778   */\n      dup14\n      add\n        /* \"#utility.yul\":2753:2796   */\n      mstore\n        /* \"#utility.yul\":2832:2847   */\n      swap10\n      swap1\n      swap12\n      and\n        /* \"#utility.yul\":2812:2830   */\n      swap9\n      dup11\n      add\n        /* \"#utility.yul\":2805:2848   */\n      swap9\n      swap1\n      swap9\n      mstore\n        /* \"#utility.yul\":2879:2881   */\n      0x60\n        /* \"#utility.yul\":2864:2882   */\n      dup10\n      add\n        /* \"#utility.yul\":2857:2891   */\n      swap7\n      swap1\n      swap7\n      mstore\n        /* \"#utility.yul\":2922:2925   */\n      0x80\n        /* \"#utility.yul\":2907:2926   */\n      dup9\n      add\n        /* \"#utility.yul\":2900:2935   */\n      swap5\n      swap1\n      swap5\n      mstore\n        /* \"#utility.yul\":2690:2693   */\n      0xa0\n        /* \"#utility.yul\":2951:2970   */\n      dup8\n      add\n        /* \"#utility.yul\":2944:2979   */\n      swap3\n      swap1\n      swap3\n      mstore\n        /* \"#utility.yul\":3010:3013   */\n      0xc0\n        /* \"#utility.yul\":2995:3014   */\n      dup7\n      add\n        /* \"#utility.yul\":2988:3023   */\n      mstore\n        /* \"#utility.yul\":3054:3057   */\n      0xe0\n        /* \"#utility.yul\":3039:3058   */\n      dup6\n      add\n        /* \"#utility.yul\":3032:3067   */\n      mstore\n        /* \"#utility.yul\":3098:3101   */\n      0x0100\n        /* \"#utility.yul\":3083:3102   */\n      dup5\n      add\n        /* \"#utility.yul\":3076:3111   */\n      mstore\n        /* \"#utility.yul\":3142:3145   */\n      0x0120\n        /* \"#utility.yul\":3127:3146   */\n      dup4\n      add\n        /* \"#utility.yul\":3120:3155   */\n      mstore\n        /* \"#utility.yul\":3199:3214   */\n      iszero\n        /* \"#utility.yul\":3192:3215   */\n      iszero\n        /* \"#utility.yul\":3186:3189   */\n      0x0140\n        /* \"#utility.yul\":3171:3190   */\n      dup3\n      add\n        /* \"#utility.yul\":3164:3216   */\n      mstore\n        /* \"#utility.yul\":3247:3250   */\n      0x0160\n        /* \"#utility.yul\":3232:3251   */\n      dup2\n      add\n        /* \"#utility.yul\":3225:3261   */\n      swap2\n      swap1\n      swap2\n      mstore\n        /* \"#utility.yul\":2659:2662   */\n      0x0180\n        /* \"#utility.yul\":2644:2663   */\n      add\n        /* \"Ethereum/Presale.sol\":1492:1518  SaleInfor public saleInfor */\n    tag_24:\n      mload(0x40)\n      dup1\n      swap2\n      sub\n      swap1\n      return\n        /* \"Ethereum/Presale.sol\":2943:3280  function status() public view returns(uint256) {\r... */\n    tag_3:\n      callvalue\n      dup1\n      iszero\n      tag_26\n      jumpi\n      0x00\n      dup1\n      revert\n    tag_26:\n      pop\n      tag_27\n      tag_28\n      jump\t// in\n    tag_27:\n      mload(0x40)\n        /* \"#utility.yul\":5627:5652   */\n      swap1\n      dup2\n      mstore\n        /* \"#utility.yul\":5615:5617   */\n      0x20\n        /* \"#utility.yul\":5600:5618   */\n      add\n        /* \"Ethereum/Presale.sol\":2943:3280  function status() public view returns(uint256) {\r... */\n      tag_24\n        /* \"#utility.yul\":5582:5658   */\n      jump\n        /* \"Ethereum/Presale.sol\":1550:1574  uint256 public feeAnyone */\n    tag_4:\n      callvalue\n      dup1\n      iszero\n      tag_31\n      jumpi\n      0x00\n      dup1\n      revert\n    tag_31:\n      pop\n      tag_27\n      sload(0x18)\n      dup2\n      jump\n        /* \"Ethereum/Presale.sol\":4731:4852  function transferETH(uint256 amount) external payable {\r... */\n    tag_5:\n      tag_35\n      tag_36\n      calldatasize\n      0x04\n      tag_37\n      jump\t// in\n    tag_36:\n      tag_38\n      jump\t// in\n    tag_35:\n      stop\n        /* \"Ethereum/Presale.sol\":1402:1444  mapping(address => uint256) public userFee */\n    tag_6:\n      callvalue\n      dup1\n      iszero\n      tag_39\n      jumpi\n      0x00\n      dup1\n      revert\n    tag_39:\n      pop\n      tag_27\n      tag_41\n      calldatasize\n      0x04\n      tag_42\n      jump\t// in\n    tag_41:\n      mstore(0x20, 0x03)\n      0x00\n      swap1\n      dup2\n      mstore\n      0x40\n      swap1\n      keccak256\n      sload\n      dup2\n      jump\n        /* \"Ethereum/Presale.sol\":2130:2934  function initialSaleInfor(\r... */\n    tag_7:\n      callvalue\n      dup1\n      iszero\n      tag_45\n      jumpi\n      0x00\n      dup1\n      revert\n    tag_45:\n      pop\n      tag_35\n      tag_47\n      calldatasize\n      0x04\n      tag_48\n      jump\t// in\n    tag_47:\n      tag_49\n      jump\t// in\n        /* \"Utils/Ownable.sol\":1714:1817  function renounceOwnership() public virtual onlyOwner {\r... */\n    tag_8:\n      callvalue\n      dup1\n      iszero\n      tag_50\n      jumpi\n      0x00\n      dup1\n      revert\n    tag_50:\n      pop\n      tag_35\n      tag_52\n      jump\t// in\n        /* \"Ethereum/Presale.sol\":4615:4723  function backToken() external payable {\r... */\n    tag_9:\n      tag_35\n      tag_54\n      jump\t// in\n        /* \"Utils/Ownable.sol\":1063:1150  function owner() public view virtual returns (address) {\r... */\n    tag_10:\n      callvalue\n      dup1\n      iszero\n      tag_55\n      jumpi\n      0x00\n      dup1\n      revert\n    tag_55:\n      pop\n        /* \"Utils/Ownable.sol\":1136:1142  _owner */\n      and(sub(shl(0xa0, 0x01), 0x01), sload(0x01))\n        /* \"Utils/Ownable.sol\":1063:1150  function owner() public view virtual returns (address) {\r... */\n    tag_56:\n      mload(0x40)\n      sub(shl(0xa0, 0x01), 0x01)\n        /* \"#utility.yul\":2135:2167   */\n      swap1\n      swap2\n      and\n        /* \"#utility.yul\":2117:2168   */\n      dup2\n      mstore\n        /* \"#utility.yul\":2105:2107   */\n      0x20\n        /* \"#utility.yul\":2090:2108   */\n      add\n        /* \"Utils/Ownable.sol\":1063:1150  function owner() public view virtual returns (address) {\r... */\n      tag_24\n        /* \"#utility.yul\":2072:2174   */\n      jump\n        /* \"Ethereum/Presale.sol\":1451:1485  PresaleStatus public presaleStatus */\n    tag_11:\n      callvalue\n      dup1\n      iszero\n      tag_60\n      jumpi\n      0x00\n      dup1\n      revert\n    tag_60:\n      pop\n      sload(0x04)\n      sload(0x05)\n      sload(0x06)\n      sload(0x07)\n      sload(0x08)\n      sload(0x09)\n      tag_61\n      swap6\n      swap5\n      swap4\n      swap3\n      swap2\n      swap1\n      dup7\n      jump\n    tag_61:\n      0x40\n      dup1\n      mload\n        /* \"#utility.yul\":6510:6535   */\n      swap7\n      dup8\n      mstore\n        /* \"#utility.yul\":6566:6568   */\n      0x20\n        /* \"#utility.yul\":6551:6569   */\n      dup8\n      add\n        /* \"#utility.yul\":6544:6578   */\n      swap6\n      swap1\n      swap6\n      mstore\n        /* \"#utility.yul\":6594:6612   */\n      swap4\n      dup6\n      add\n        /* \"#utility.yul\":6587:6621   */\n      swap3\n      swap1\n      swap3\n      mstore\n        /* \"#utility.yul\":6652:6654   */\n      0x60\n        /* \"#utility.yul\":6637:6655   */\n      dup5\n      add\n        /* \"#utility.yul\":6630:6664   */\n      mstore\n        /* \"#utility.yul\":6695:6698   */\n      0x80\n        /* \"#utility.yul\":6680:6699   */\n      dup4\n      add\n        /* \"#utility.yul\":6673:6708   */\n      mstore\n        /* \"#utility.yul\":6739:6742   */\n      0xa0\n        /* \"#utility.yul\":6724:6743   */\n      dup3\n      add\n        /* \"#utility.yul\":6717:6752   */\n      mstore\n        /* \"#utility.yul\":6497:6500   */\n      0xc0\n        /* \"#utility.yul\":6482:6501   */\n      add\n        /* \"Ethereum/Presale.sol\":1451:1485  PresaleStatus public presaleStatus */\n      tag_24\n        /* \"#utility.yul\":6464:6758   */\n      jump\n        /* \"Ethereum/Presale.sol\":1525:1543  IERC20 public WETH */\n    tag_12:\n      callvalue\n      dup1\n      iszero\n      tag_65\n      jumpi\n      0x00\n      dup1\n      revert\n    tag_65:\n      pop\n      sload(0x17)\n      tag_56\n      swap1\n      sub(shl(0xa0, 0x01), 0x01)\n      and\n      dup2\n      jump\n        /* \"Ethereum/Presale.sol\":3407:4485  function deposit(uint256 _amount) external view returns(uint256) {\r... */\n    tag_13:\n      callvalue\n      dup1\n      iszero\n      tag_70\n      jumpi\n      0x00\n      dup1\n      revert\n    tag_70:\n      pop\n      tag_27\n      tag_72\n      calldatasize\n      0x04\n      tag_37\n      jump\t// in\n    tag_72:\n      tag_73\n      jump\t// in\n        /* \"Ethereum/Presale.sol\":3289:3399  function checkAdminAddress() public view returns(bool) {\r... */\n    tag_14:\n      callvalue\n      dup1\n      iszero\n      tag_75\n      jumpi\n      0x00\n      dup1\n      revert\n    tag_75:\n      pop\n      tag_76\n      tag_77\n      jump\t// in\n    tag_76:\n      mload(0x40)\n        /* \"#utility.yul\":3437:3451   */\n      swap1\n      iszero\n        /* \"#utility.yul\":3430:3452   */\n      iszero\n        /* \"#utility.yul\":3412:3453   */\n      dup2\n      mstore\n        /* \"#utility.yul\":3400:3402   */\n      0x20\n        /* \"#utility.yul\":3385:3403   */\n      add\n        /* \"Ethereum/Presale.sol\":3289:3399  function checkAdminAddress() public view returns(bool) {\r... */\n      tag_24\n        /* \"#utility.yul\":3367:3459   */\n      jump\n        /* \"Ethereum/Presale.sol\":1349:1395  mapping(address => BuyerInfo) public buyerInfo */\n    tag_15:\n      callvalue\n      dup1\n      iszero\n      tag_80\n      jumpi\n      0x00\n      dup1\n      revert\n    tag_80:\n      pop\n      tag_81\n      tag_82\n      calldatasize\n      0x04\n      tag_42\n      jump\t// in\n    tag_82:\n      0x02\n      0x20\n      dup2\n      swap1\n      mstore\n      0x00\n      swap2\n      dup3\n      mstore\n      0x40\n      swap1\n      swap2\n      keccak256\n      dup1\n      sload\n      0x01\n      dup3\n      add\n      sload\n      swap3\n      dup3\n      add\n      sload\n      0x03\n      dup4\n      add\n      sload\n      0x04\n      swap1\n      swap4\n      add\n      sload\n      swap2\n      swap4\n      swap3\n      swap1\n      swap2\n      0xff\n      dup1\n      dup3\n      and\n      swap2\n      0x0100\n      swap1\n      div\n      and\n      dup7\n      jump\n    tag_81:\n      0x40\n      dup1\n      mload\n        /* \"#utility.yul\":5938:5963   */\n      swap7\n      dup8\n      mstore\n        /* \"#utility.yul\":5994:5996   */\n      0x20\n        /* \"#utility.yul\":5979:5997   */\n      dup8\n      add\n        /* \"#utility.yul\":5972:6006   */\n      swap6\n      swap1\n      swap6\n      mstore\n        /* \"#utility.yul\":6022:6040   */\n      swap4\n      dup6\n      add\n        /* \"#utility.yul\":6015:6049   */\n      swap3\n      swap1\n      swap3\n      mstore\n        /* \"#utility.yul\":6080:6082   */\n      0x60\n        /* \"#utility.yul\":6065:6083   */\n      dup5\n      add\n        /* \"#utility.yul\":6058:6092   */\n      mstore\n        /* \"#utility.yul\":6136:6150   */\n      iszero\n        /* \"#utility.yul\":6129:6151   */\n      iszero\n        /* \"#utility.yul\":6123:6126   */\n      0x80\n        /* \"#utility.yul\":6108:6127   */\n      dup4\n      add\n        /* \"#utility.yul\":6101:6152   */\n      mstore\n        /* \"#utility.yul\":6196:6210   */\n      iszero\n        /* \"#utility.yul\":6189:6211   */\n      iszero\n        /* \"#utility.yul\":6183:6186   */\n      0xa0\n        /* \"#utility.yul\":6168:6187   */\n      dup3\n      add\n        /* \"#utility.yul\":6161:6212   */\n      mstore\n        /* \"#utility.yul\":5925:5928   */\n      0xc0\n        /* \"#utility.yul\":5910:5929   */\n      add\n        /* \"Ethereum/Presale.sol\":1349:1395  mapping(address => BuyerInfo) public buyerInfo */\n      tag_24\n        /* \"#utility.yul\":5892:6218   */\n      jump\n        /* \"Utils/Ownable.sol\":1972:2173  function transferOwnership(address newOwner) public virtual onlyOwner {\r... */\n    tag_16:\n      callvalue\n      dup1\n      iszero\n      tag_86\n      jumpi\n      0x00\n      dup1\n      revert\n    tag_86:\n      pop\n      tag_35\n      tag_88\n      calldatasize\n      0x04\n      tag_42\n      jump\t// in\n    tag_88:\n      tag_89\n      jump\t// in\n        /* \"Ethereum/Presale.sol\":4493:4604  function getBalance(address _address) external view returns(uint256) {\r... */\n    tag_17:\n      callvalue\n      dup1\n      iszero\n      tag_90\n      jumpi\n      0x00\n      dup1\n      revert\n    tag_90:\n      pop\n      tag_27\n      tag_92\n      calldatasize\n      0x04\n      tag_42\n      jump\t// in\n    tag_92:\n      sub(shl(0xa0, 0x01), 0x01)\n        /* \"Ethereum/Presale.sol\":4580:4596  _address.balance */\n      and\n      balance\n      swap1\n        /* \"Ethereum/Presale.sol\":4493:4604  function getBalance(address _address) external view returns(uint256) {\r... */\n      jump\n        /* \"Ethereum/Presale.sol\":2943:3280  function status() public view returns(uint256) {\r... */\n    tag_28:\n        /* \"Ethereum/Presale.sol\":3022:3041  saleInfor.startSale */\n      sload(0x0f)\n        /* \"Ethereum/Presale.sol\":2981:2988  uint256 */\n      0x00\n      swap1\n        /* \"Ethereum/Presale.sol\":3004:3019  block.timestamp */\n      timestamp\n        /* \"Ethereum/Presale.sol\":3004:3041  block.timestamp < saleInfor.startSale */\n      lt\n        /* \"Ethereum/Presale.sol\":3001:3273  if(block.timestamp < saleInfor.startSale) {\r... */\n      iszero\n      tag_97\n      jumpi\n      pop\n        /* \"Ethereum/Presale.sol\":3065:3066  0 */\n      0x00\n      swap1\n        /* \"Ethereum/Presale.sol\":2943:3280  function status() public view returns(uint256) {\r... */\n      jump\t// out\n        /* \"Ethereum/Presale.sol\":3001:3273  if(block.timestamp < saleInfor.startSale) {\r... */\n    tag_97:\n        /* \"Ethereum/Presale.sol\":3132:3149  saleInfor.endSale */\n      sload(0x10)\n        /* \"Ethereum/Presale.sol\":3114:3129  block.timestamp */\n      timestamp\n        /* \"Ethereum/Presale.sol\":3114:3149  block.timestamp > saleInfor.endSale */\n      gt\n        /* \"Ethereum/Presale.sol\":3111:3262  if(block.timestamp > saleInfor.endSale) {\r... */\n      iszero\n      tag_99\n      jumpi\n      pop\n        /* \"Ethereum/Presale.sol\":3177:3178  2 */\n      0x02\n      swap1\n        /* \"Ethereum/Presale.sol\":2943:3280  function status() public view returns(uint256) {\r... */\n      jump\t// out\n        /* \"Ethereum/Presale.sol\":3111:3262  if(block.timestamp > saleInfor.endSale) {\r... */\n    tag_99:\n      pop\n        /* \"Ethereum/Presale.sol\":3235:3236  1 */\n      0x01\n      swap1\n        /* \"Ethereum/Presale.sol\":2943:3280  function status() public view returns(uint256) {\r... */\n      jump\t// out\n        /* \"Ethereum/Presale.sol\":4731:4852  function transferETH(uint256 amount) external payable {\r... */\n    tag_38:\n        /* \"Ethereum/Presale.sol\":4804:4814  msg.sender */\n      caller\n        /* \"Ethereum/Presale.sol\":4796:4844  payable(msg.sender).transfer(msg.value - amount) */\n      0x08fc\n        /* \"Ethereum/Presale.sol\":4825:4843  msg.value - amount */\n      tag_102\n        /* \"Ethereum/Presale.sol\":4837:4843  amount */\n      dup4\n        /* \"Ethereum/Presale.sol\":4825:4834  msg.value */\n      callvalue\n        /* \"Ethereum/Presale.sol\":4825:4843  msg.value - amount */\n      tag_103\n      jump\t// in\n    tag_102:\n        /* \"Ethereum/Presale.sol\":4796:4844  payable(msg.sender).transfer(msg.value - amount) */\n      mload(0x40)\n      dup2\n      iszero\n      swap1\n      swap3\n      mul\n      swap2\n      0x00\n      dup2\n      dup2\n      dup2\n      dup6\n      dup9\n      dup9\n      call\n      swap4\n      pop\n      pop\n      pop\n      pop\n      iszero\n      dup1\n      iszero\n      tag_105\n      jumpi\n      returndatasize\n      0x00\n      dup1\n      returndatacopy\n      revert(0x00, returndatasize)\n    tag_105:\n      pop\n        /* \"Ethereum/Presale.sol\":4731:4852  function transferETH(uint256 amount) external payable {\r... */\n      pop\n      jump\t// out\n        /* \"Ethereum/Presale.sol\":2130:2934  function initialSaleInfor(\r... */\n    tag_49:\n        /* \"Ethereum/Presale.sol\":2311:2320  saleInfor */\n      0x0b\n        /* \"Ethereum/Presale.sol\":2311:2349  saleInfor.presaleOwner = _presaleOwner */\n      dup1\n      sload\n      sub(shl(0xa0, 0x01), 0x01)\n      dup1\n      dup8\n      and\n      not(sub(shl(0xa0, 0x01), 0x01))\n      swap3\n      dup4\n      and\n      or\n      swap1\n      swap3\n      sstore\n        /* \"Ethereum/Presale.sol\":2360:2379  saleInfor.saleToken */\n      0x0c\n        /* \"Ethereum/Presale.sol\":2360:2392  saleInfor.saleToken = _saleToken */\n      dup1\n      sload\n      dup7\n      dup5\n      and\n      swap1\n      dup4\n      and\n      dup2\n      or\n      swap1\n      swap2\n      sstore\n        /* \"Ethereum/Presale.sol\":2403:2422  saleInfor.baseToken */\n      0x0d\n        /* \"Ethereum/Presale.sol\":2403:2435  saleInfor.baseToken = _baseTOken */\n      dup1\n      sload\n      swap4\n      dup7\n      and\n      swap4\n      swap1\n      swap3\n      and\n      swap3\n      swap1\n      swap3\n      or\n      swap1\n      sstore\n        /* \"Ethereum/Presale.sol\":2493:2530  ERC20(saleInfor.saleToken).decimals() */\n      0x40\n      dup1\n      mload\n      shl(0xe0, 0x313ce567)\n      dup2\n      mstore\n      swap1\n      mload\n        /* \"Ethereum/Presale.sol\":2493:2528  ERC20(saleInfor.saleToken).decimals */\n      0x313ce567\n      swap2\n        /* \"Ethereum/Presale.sol\":2493:2530  ERC20(saleInfor.saleToken).decimals() */\n      0x04\n      dup1\n      dup3\n      add\n      swap3\n      0x20\n      swap3\n      swap1\n      swap2\n      swap1\n      dup3\n      swap1\n      sub\n      add\n      dup2\n        /* \"Ethereum/Presale.sol\":2360:2392  saleInfor.saleToken = _saleToken */\n      dup7\n        /* \"Ethereum/Presale.sol\":2493:2530  ERC20(saleInfor.saleToken).decimals() */\n      dup1\n      extcodesize\n      iszero\n      dup1\n      iszero\n      tag_107\n      jumpi\n      0x00\n      dup1\n      revert\n    tag_107:\n      pop\n      gas\n      staticcall\n      iszero\n      dup1\n      iszero\n      tag_109\n      jumpi\n      returndatasize\n      0x00\n      dup1\n      returndatacopy\n      revert(0x00, returndatasize)\n    tag_109:\n      pop\n      pop\n      pop\n      pop\n      mload(0x40)\n      returndatasize\n      not(0x1f)\n      0x1f\n      dup3\n      add\n      and\n      dup3\n      add\n      dup1\n      0x40\n      mstore\n      pop\n      dup2\n      add\n      swap1\n      tag_110\n      swap2\n      swap1\n      tag_111\n      jump\t// in\n    tag_110:\n        /* \"Ethereum/Presale.sol\":2480:2531  10** uint256(ERC20(saleInfor.saleToken).decimals()) */\n      tag_112\n      swap1\n        /* \"Ethereum/Presale.sol\":2480:2482  10 */\n      0x0a\n        /* \"Ethereum/Presale.sol\":2480:2531  10** uint256(ERC20(saleInfor.saleToken).decimals()) */\n      tag_113\n      jump\t// in\n    tag_112:\n        /* \"Ethereum/Presale.sol\":2469:2477  datas[0] */\n      dup2\n      mload\n        /* \"Ethereum/Presale.sol\":2469:2531  datas[0] * 10** uint256(ERC20(saleInfor.saleToken).decimals()) */\n      tag_115\n      swap2\n      swap1\n      tag_116\n      jump\t// in\n    tag_115:\n        /* \"Ethereum/Presale.sol\":2446:2466  saleInfor.tokenPrice */\n      0x0e\n        /* \"Ethereum/Presale.sol\":2446:2531  saleInfor.tokenPrice = datas[0] * 10** uint256(ERC20(saleInfor.saleToken).decimals()) */\n      sstore\n        /* \"Ethereum/Presale.sol\":2564:2572  datas[1] */\n      0x20\n      dup1\n      dup3\n      add\n      mload\n        /* \"Ethereum/Presale.sol\":2542:2561  saleInfor.startSale */\n      0x0f\n        /* \"Ethereum/Presale.sol\":2542:2572  saleInfor.startSale = datas[1] */\n      sstore\n        /* \"Ethereum/Presale.sol\":2603:2611  datas[2] */\n      0x40\n      dup1\n      dup4\n      add\n      mload\n        /* \"Ethereum/Presale.sol\":2583:2600  saleInfor.endSale */\n      0x10\n        /* \"Ethereum/Presale.sol\":2583:2611  saleInfor.endSale = datas[2] */\n      sstore\n        /* \"Ethereum/Presale.sol\":2651:2659  datas[3] */\n      0x60\n      dup4\n      add\n      mload\n        /* \"Ethereum/Presale.sol\":2622:2648  saleInfor.minSpendPerBuyer */\n      0x11\n        /* \"Ethereum/Presale.sol\":2622:2659  saleInfor.minSpendPerBuyer = datas[3] */\n      sstore\n        /* \"Ethereum/Presale.sol\":2729:2748  saleInfor.baseToken */\n      sload(0x0d)\n        /* \"Ethereum/Presale.sol\":2723:2760  ERC20(saleInfor.baseToken).decimals() */\n      dup2\n      mload\n      shl(0xe0, 0x313ce567)\n      dup2\n      mstore\n      swap2\n      mload\n      sub(shl(0xa0, 0x01), 0x01)\n        /* \"Ethereum/Presale.sol\":2729:2748  saleInfor.baseToken */\n      swap1\n      swap2\n      and\n      swap3\n        /* \"Ethereum/Presale.sol\":2723:2758  ERC20(saleInfor.baseToken).decimals */\n      0x313ce567\n      swap3\n        /* \"Ethereum/Presale.sol\":2723:2760  ERC20(saleInfor.baseToken).decimals() */\n      0x04\n      dup1\n      dup3\n      add\n      swap4\n      swap2\n      dup3\n      swap1\n      sub\n      add\n      dup2\n        /* \"Ethereum/Presale.sol\":2729:2748  saleInfor.baseToken */\n      dup7\n        /* \"Ethereum/Presale.sol\":2723:2760  ERC20(saleInfor.baseToken).decimals() */\n      dup1\n      extcodesize\n      iszero\n      dup1\n      iszero\n      tag_120\n      jumpi\n      0x00\n      dup1\n      revert\n    tag_120:\n      pop\n      gas\n      staticcall\n      iszero\n      dup1\n      iszero\n      tag_122\n      jumpi\n      returndatasize\n      0x00\n      dup1\n      returndatacopy\n      revert(0x00, returndatasize)\n    tag_122:\n      pop\n      pop\n      pop\n      pop\n      mload(0x40)\n      returndatasize\n      not(0x1f)\n      0x1f\n      dup3\n      add\n      and\n      dup3\n      add\n      dup1\n      0x40\n      mstore\n      pop\n      dup2\n      add\n      swap1\n      tag_123\n      swap2\n      swap1\n      tag_111\n      jump\t// in\n    tag_123:\n        /* \"Ethereum/Presale.sol\":2710:2761  10** uint256(ERC20(saleInfor.baseToken).decimals()) */\n      tag_124\n      swap1\n        /* \"Ethereum/Presale.sol\":2710:2712  10 */\n      0x0a\n        /* \"Ethereum/Presale.sol\":2710:2761  10** uint256(ERC20(saleInfor.baseToken).decimals()) */\n      tag_113\n      jump\t// in\n    tag_124:\n        /* \"Ethereum/Presale.sol\":2699:2707  datas[4] */\n      0x80\n      dup3\n      add\n      mload\n        /* \"Ethereum/Presale.sol\":2699:2761  datas[4] * 10** uint256(ERC20(saleInfor.baseToken).decimals()) */\n      tag_126\n      swap2\n      swap1\n      tag_116\n      jump\t// in\n    tag_126:\n        /* \"Ethereum/Presale.sol\":2670:2696  saleInfor.maxSpendPerBuyer */\n      0x12\n        /* \"Ethereum/Presale.sol\":2670:2761  saleInfor.maxSpendPerBuyer = datas[4] * 10** uint256(ERC20(saleInfor.baseToken).decimals()) */\n      sstore\n        /* \"Ethereum/Presale.sol\":2794:2802  datas[5] */\n      0xa0\n      dup2\n      add\n      mload\n        /* \"Ethereum/Presale.sol\":2772:2791  saleInfor.refundFee */\n      0x13\n        /* \"Ethereum/Presale.sol\":2772:2802  saleInfor.refundFee = datas[5] */\n      sstore\n        /* \"Ethereum/Presale.sol\":2834:2842  datas[6] */\n      0xc0\n      add\n      mload\n        /* \"Ethereum/Presale.sol\":2813:2831  saleInfor.claimFee */\n      0x14\n        /* \"Ethereum/Presale.sol\":2813:2842  saleInfor.claimFee = datas[6] */\n      sstore\n      pop\n      pop\n        /* \"Ethereum/Presale.sol\":2906:2925  saleInfor.baseToken */\n      sload(0x0d)\n        /* \"Ethereum/Presale.sol\":2889:2893  WETH */\n      sload(0x17)\n        /* \"Ethereum/Presale.sol\":2853:2878  saleInfor.saleIsBaseToken */\n      0x15\n        /* \"Ethereum/Presale.sol\":2853:2926  saleInfor.saleIsBaseToken = address(WETH) == address(saleInfor.baseToken) */\n      dup1\n      sload\n      sub(shl(0xa0, 0x01), 0x01)\n        /* \"Ethereum/Presale.sol\":2906:2925  saleInfor.baseToken */\n      swap4\n      dup5\n      and\n        /* \"Ethereum/Presale.sol\":2889:2893  WETH */\n      swap4\n      swap1\n      swap3\n      and\n        /* \"Ethereum/Presale.sol\":2881:2926  address(WETH) == address(saleInfor.baseToken) */\n      swap3\n      swap1\n      swap3\n      eq\n      not(0xff)\n        /* \"Ethereum/Presale.sol\":2853:2926  saleInfor.saleIsBaseToken = address(WETH) == address(saleInfor.baseToken) */\n      swap1\n      swap2\n      and\n      or\n      swap1\n      sstore\n      pop\n        /* \"Ethereum/Presale.sol\":2130:2934  function initialSaleInfor(\r... */\n      jump\t// out\n        /* \"Utils/Ownable.sol\":1714:1817  function renounceOwnership() public virtual onlyOwner {\r... */\n    tag_52:\n        /* \"Utils/Ownable.sol\":1136:1142  _owner */\n      and(sub(shl(0xa0, 0x01), 0x01), sload(0x01))\n        /* \"Utils/Context.sol\":736:746  msg.sender */\n      caller\n        /* \"Utils/Ownable.sol\":1283:1306  owner() == _msgSender() */\n      eq\n        /* \"Utils/Ownable.sol\":1275:1343  require(owner() == _msgSender(), \"Ownable: caller is not the owner\") */\n      tag_133\n      jumpi\n      mload(0x40)\n      shl(0xe5, 0x461bcd)\n      dup2\n      mstore\n        /* \"#utility.yul\":5322:5324   */\n      0x20\n        /* \"Utils/Ownable.sol\":1275:1343  require(owner() == _msgSender(), \"Ownable: caller is not the owner\") */\n      0x04\n      dup3\n      add\n        /* \"#utility.yul\":5304:5325   */\n      dup2\n      swap1\n      mstore\n        /* \"#utility.yul\":5341:5359   */\n      0x24\n      dup3\n      add\n        /* \"#utility.yul\":5334:5364   */\n      mstore\n        /* \"#utility.yul\":5400:5434   */\n      0x4f776e61626c653a2063616c6c6572206973206e6f7420746865206f776e6572\n        /* \"#utility.yul\":5380:5398   */\n      0x44\n      dup3\n      add\n        /* \"#utility.yul\":5373:5435   */\n      mstore\n        /* \"#utility.yul\":5452:5470   */\n      0x64\n      add\n        /* \"Utils/Ownable.sol\":1275:1343  require(owner() == _msgSender(), \"Ownable: caller is not the owner\") */\n    tag_134:\n      mload(0x40)\n      dup1\n      swap2\n      sub\n      swap1\n      revert\n    tag_133:\n        /* \"Utils/Ownable.sol\":1779:1809  _transferOwnership(address(0)) */\n      tag_137\n        /* \"Utils/Ownable.sol\":1806:1807  0 */\n      0x00\n        /* \"Utils/Ownable.sol\":1779:1797  _transferOwnership */\n      tag_138\n        /* \"Utils/Ownable.sol\":1779:1809  _transferOwnership(address(0)) */\n      jump\t// in\n    tag_137:\n        /* \"Utils/Ownable.sol\":1714:1817  function renounceOwnership() public virtual onlyOwner {\r... */\n      jump\t// out\n        /* \"Ethereum/Presale.sol\":4615:4723  function backToken() external payable {\r... */\n    tag_54:\n        /* \"Ethereum/Presale.sol\":4664:4715  payable(msg.sender).transfer(address(this).balance) */\n      mload(0x40)\n        /* \"Ethereum/Presale.sol\":4672:4682  msg.sender */\n      caller\n      swap1\n        /* \"Ethereum/Presale.sol\":4693:4714  address(this).balance */\n      selfbalance\n        /* \"Ethereum/Presale.sol\":4664:4715  payable(msg.sender).transfer(address(this).balance) */\n      dup1\n      iszero\n      0x08fc\n      mul\n      swap2\n      0x00\n      dup2\n      dup2\n      dup2\n        /* \"Ethereum/Presale.sol\":4693:4714  address(this).balance */\n      dup6\n        /* \"Ethereum/Presale.sol\":4672:4682  msg.sender */\n      dup9\n        /* \"Ethereum/Presale.sol\":4664:4715  payable(msg.sender).transfer(address(this).balance) */\n      dup9\n      call\n      swap4\n      pop\n      pop\n      pop\n      pop\n      iszero\n      dup1\n      iszero\n      tag_141\n      jumpi\n      returndatasize\n      0x00\n      dup1\n      returndatacopy\n      revert(0x00, returndatasize)\n    tag_141:\n      pop\n        /* \"Ethereum/Presale.sol\":4615:4723  function backToken() external payable {\r... */\n      jump\t// out\n        /* \"Ethereum/Presale.sol\":3407:4485  function deposit(uint256 _amount) external view returns(uint256) {\r... */\n    tag_73:\n        /* \"Ethereum/Presale.sol\":3463:3470  uint256 */\n      0x00\n        /* \"Ethereum/Presale.sol\":3491:3499  status() */\n      tag_144\n        /* \"Ethereum/Presale.sol\":3491:3497  status */\n      tag_28\n        /* \"Ethereum/Presale.sol\":3491:3499  status() */\n      jump\t// in\n    tag_144:\n        /* \"Ethereum/Presale.sol\":3503:3504  1 */\n      0x01\n        /* \"Ethereum/Presale.sol\":3491:3504  status() == 1 */\n      eq\n        /* \"Ethereum/Presale.sol\":3483:3519  require(status() == 1, \"NOT ACTIVE\") */\n      tag_145\n      jumpi\n      mload(0x40)\n      shl(0xe5, 0x461bcd)\n      dup2\n      mstore\n        /* \"#utility.yul\":4638:4640   */\n      0x20\n        /* \"Ethereum/Presale.sol\":3483:3519  require(status() == 1, \"NOT ACTIVE\") */\n      0x04\n      dup3\n      add\n        /* \"#utility.yul\":4620:4641   */\n      mstore\n        /* \"#utility.yul\":4677:4679   */\n      0x0a\n        /* \"#utility.yul\":4657:4675   */\n      0x24\n      dup3\n      add\n        /* \"#utility.yul\":4650:4680   */\n      mstore\n      shl(0xb0, 0x4e4f5420414354495645)\n        /* \"#utility.yul\":4696:4714   */\n      0x44\n      dup3\n      add\n        /* \"#utility.yul\":4689:4729   */\n      mstore\n        /* \"#utility.yul\":4746:4764   */\n      0x64\n      add\n        /* \"Ethereum/Presale.sol\":3483:3519  require(status() == 1, \"NOT ACTIVE\") */\n      tag_134\n        /* \"#utility.yul\":4610:4770   */\n      jump\n        /* \"Ethereum/Presale.sol\":3483:3519  require(status() == 1, \"NOT ACTIVE\") */\n    tag_145:\n        /* \"Ethereum/Presale.sol\":3576:3586  msg.sender */\n      caller\n        /* \"Ethereum/Presale.sol\":3540:3563  BuyerInfo storage buyer */\n      0x00\n        /* \"Ethereum/Presale.sol\":3566:3587  buyerInfo[msg.sender] */\n      swap1\n      dup2\n      mstore\n        /* \"Ethereum/Presale.sol\":3566:3575  buyerInfo */\n      0x02\n        /* \"Ethereum/Presale.sol\":3566:3587  buyerInfo[msg.sender] */\n      0x20\n      mstore\n      0x40\n      dup2\n      keccak256\n        /* \"Ethereum/Presale.sol\":3772:3798  saleInfor.minSpendPerBuyer */\n      sload(0x11)\n        /* \"Ethereum/Presale.sol\":3566:3587  buyerInfo[msg.sender] */\n      swap1\n      swap2\n        /* \"Ethereum/Presale.sol\":3618:3625  _amount */\n      dup5\n      swap2\n      dup3\n      swap2\n        /* \"Ethereum/Presale.sol\":3540:3563  BuyerInfo storage buyer */\n      swap1\n        /* \"Ethereum/Presale.sol\":3731:3735  1000 */\n      0x03e8\n      swap1\n        /* \"Ethereum/Presale.sol\":3754:3798  real_amount_in >= saleInfor.minSpendPerBuyer */\n      dup4\n      lt\n      iszero\n        /* \"Ethereum/Presale.sol\":3746:3847  require(real_amount_in >= saleInfor.minSpendPerBuyer, \r... */\n      tag_148\n      jumpi\n      mload(0x40)\n      shl(0xe5, 0x461bcd)\n      dup2\n      mstore\n        /* \"#utility.yul\":4977:4979   */\n      0x20\n        /* \"Ethereum/Presale.sol\":3746:3847  require(real_amount_in >= saleInfor.minSpendPerBuyer, \r... */\n      0x04\n      dup3\n      add\n        /* \"#utility.yul\":4959:4980   */\n      mstore\n        /* \"#utility.yul\":5016:5018   */\n      0x10\n        /* \"#utility.yul\":4996:5014   */\n      0x24\n      dup3\n      add\n        /* \"#utility.yul\":4989:5019   */\n      mstore\n      shl(0x80, 0x4e6f7420656e6f7567682076616c7565)\n        /* \"#utility.yul\":5035:5053   */\n      0x44\n      dup3\n      add\n        /* \"#utility.yul\":5028:5074   */\n      mstore\n        /* \"#utility.yul\":5091:5109   */\n      0x64\n      add\n        /* \"Ethereum/Presale.sol\":3746:3847  require(real_amount_in >= saleInfor.minSpendPerBuyer, \r... */\n      tag_134\n        /* \"#utility.yul\":4949:5115   */\n      jump\n        /* \"Ethereum/Presale.sol\":3746:3847  require(real_amount_in >= saleInfor.minSpendPerBuyer, \r... */\n    tag_148:\n        /* \"Ethereum/Presale.sol\":3884:3910  saleInfor.maxSpendPerBuyer */\n      sload(0x12)\n        /* \"Ethereum/Presale.sol\":3866:3910  real_amount_in <= saleInfor.maxSpendPerBuyer */\n      dup4\n      gt\n      iszero\n        /* \"Ethereum/Presale.sol\":3858:3957  require(real_amount_in <= saleInfor.maxSpendPerBuyer, \r... */\n      tag_151\n      jumpi\n      mload(0x40)\n      shl(0xe5, 0x461bcd)\n      dup2\n      mstore\n        /* \"#utility.yul\":4295:4297   */\n      0x20\n        /* \"Ethereum/Presale.sol\":3858:3957  require(real_amount_in <= saleInfor.maxSpendPerBuyer, \r... */\n      0x04\n      dup3\n      add\n        /* \"#utility.yul\":4277:4298   */\n      mstore\n        /* \"#utility.yul\":4334:4336   */\n      0x0e\n        /* \"#utility.yul\":4314:4332   */\n      0x24\n      dup3\n      add\n        /* \"#utility.yul\":4307:4337   */\n      mstore\n      shl(0x90, 0x4f766572666c6f772076616c7565)\n        /* \"#utility.yul\":4353:4371   */\n      0x44\n      dup3\n      add\n        /* \"#utility.yul\":4346:4390   */\n      mstore\n        /* \"#utility.yul\":4407:4425   */\n      0x64\n      add\n        /* \"Ethereum/Presale.sol\":3858:3957  require(real_amount_in <= saleInfor.maxSpendPerBuyer, \r... */\n      tag_134\n        /* \"#utility.yul\":4267:4431   */\n      jump\n        /* \"Ethereum/Presale.sol\":3858:3957  require(real_amount_in <= saleInfor.maxSpendPerBuyer, \r... */\n    tag_151:\n        /* \"Ethereum/Presale.sol\":3972:3991  checkAdminAddress() */\n      tag_154\n        /* \"Ethereum/Presale.sol\":3972:3989  checkAdminAddress */\n      tag_77\n        /* \"Ethereum/Presale.sol\":3972:3991  checkAdminAddress() */\n      jump\t// in\n    tag_154:\n        /* \"Ethereum/Presale.sol\":3968:4170  if(!checkAdminAddress()) {\r... */\n      tag_155\n      jumpi\n        /* \"Ethereum/Presale.sol\":4025:4158  ((fullPercenFee.sub(feeAnyone))\r... */\n      tag_156\n        /* \"Ethereum/Presale.sol\":4144:4157  fullPercenFee */\n      dup2\n        /* \"Ethereum/Presale.sol\":4026:4107  (fullPercenFee.sub(feeAnyone))\r... */\n      tag_157\n        /* \"Ethereum/Presale.sol\":4092:4106  real_amount_in */\n      dup6\n        /* \"Ethereum/Presale.sol\":4027:4055  fullPercenFee.sub(feeAnyone) */\n      tag_158\n        /* \"Ethereum/Presale.sol\":4045:4054  feeAnyone */\n      sload(0x18)\n        /* \"Ethereum/Presale.sol\":4027:4040  fullPercenFee */\n      dup7\n        /* \"Ethereum/Presale.sol\":4027:4044  fullPercenFee.sub */\n      tag_159\n      swap1\n        /* \"Ethereum/Presale.sol\":4027:4055  fullPercenFee.sub(feeAnyone) */\n      swap2\n      swap1\n      0xffffffff\n      and\n      jump\t// in\n    tag_158:\n        /* \"Ethereum/Presale.sol\":4026:4091  (fullPercenFee.sub(feeAnyone))\r... */\n      swap1\n      tag_160\n        /* \"Ethereum/Presale.sol\":4026:4107  (fullPercenFee.sub(feeAnyone))\r... */\n      jump\t// in\n    tag_157:\n        /* \"Ethereum/Presale.sol\":4025:4143  ((fullPercenFee.sub(feeAnyone))\r... */\n      swap1\n      tag_161\n        /* \"Ethereum/Presale.sol\":4025:4158  ((fullPercenFee.sub(feeAnyone))\r... */\n      jump\t// in\n    tag_156:\n        /* \"Ethereum/Presale.sol\":4008:4158  real_amount_in = ((fullPercenFee.sub(feeAnyone))\r... */\n      swap3\n      pop\n        /* \"Ethereum/Presale.sol\":3968:4170  if(!checkAdminAddress()) {\r... */\n    tag_155:\n        /* \"Ethereum/Presale.sol\":4200:4226  saleInfor.maxSpendPerBuyer */\n      sload(0x12)\n        /* \"Ethereum/Presale.sol\":4180:4197  uint256 remaining */\n      0x00\n      swap1\n        /* \"Ethereum/Presale.sol\":4200:4243  saleInfor.maxSpendPerBuyer - real_amount_in */\n      tag_162\n      swap1\n        /* \"Ethereum/Presale.sol\":4229:4243  real_amount_in */\n      dup6\n      swap1\n        /* \"Ethereum/Presale.sol\":4200:4243  saleInfor.maxSpendPerBuyer - real_amount_in */\n      tag_103\n      jump\t// in\n    tag_162:\n        /* \"Ethereum/Presale.sol\":4400:4419  saleInfor.baseToken */\n      sload(0x0d)\n        /* \"Ethereum/Presale.sol\":4394:4431  ERC20(saleInfor.baseToken).decimals() */\n      0x40\n      dup1\n      mload\n      shl(0xe0, 0x313ce567)\n      dup2\n      mstore\n      swap1\n      mload\n        /* \"Ethereum/Presale.sol\":4180:4243  uint256 remaining = saleInfor.maxSpendPerBuyer - real_amount_in */\n      swap3\n      swap4\n      pop\n        /* \"Ethereum/Presale.sol\":4254:4271  uint256 tokenSold */\n      0x00\n      swap3\n        /* \"Ethereum/Presale.sol\":4275:4433  real_amount_in.\r... */\n      tag_163\n      swap3\n      sub(shl(0xa0, 0x01), 0x01)\n        /* \"Ethereum/Presale.sol\":4400:4419  saleInfor.baseToken */\n      and\n      swap2\n        /* \"Ethereum/Presale.sol\":4394:4429  ERC20(saleInfor.baseToken).decimals */\n      0x313ce567\n      swap2\n        /* \"Ethereum/Presale.sol\":4394:4431  ERC20(saleInfor.baseToken).decimals() */\n      0x04\n      dup1\n      dup4\n      add\n      swap3\n      0x20\n      swap3\n      swap2\n      swap1\n      dup3\n      swap1\n      sub\n      add\n      dup2\n        /* \"Ethereum/Presale.sol\":4400:4419  saleInfor.baseToken */\n      dup7\n        /* \"Ethereum/Presale.sol\":4394:4431  ERC20(saleInfor.baseToken).decimals() */\n      dup1\n      extcodesize\n      iszero\n      dup1\n      iszero\n      tag_164\n      jumpi\n      0x00\n      dup1\n      revert\n    tag_164:\n      pop\n      gas\n      staticcall\n      iszero\n      dup1\n      iszero\n      tag_166\n      jumpi\n      returndatasize\n      0x00\n      dup1\n      returndatacopy\n      revert(0x00, returndatasize)\n    tag_166:\n      pop\n      pop\n      pop\n      pop\n      mload(0x40)\n      returndatasize\n      not(0x1f)\n      0x1f\n      dup3\n      add\n      and\n      dup3\n      add\n      dup1\n      0x40\n      mstore\n      pop\n      dup2\n      add\n      swap1\n      tag_167\n      swap2\n      swap1\n      tag_111\n      jump\t// in\n    tag_167:\n        /* \"Ethereum/Presale.sol\":4380:4432  10 ** uint256(ERC20(saleInfor.baseToken).decimals()) */\n      tag_168\n      swap1\n        /* \"Ethereum/Presale.sol\":4380:4382  10 */\n      0x0a\n        /* \"Ethereum/Presale.sol\":4380:4432  10 ** uint256(ERC20(saleInfor.baseToken).decimals()) */\n      tag_113\n      jump\t// in\n    tag_168:\n        /* \"Ethereum/Presale.sol\":4324:4344  saleInfor.tokenPrice */\n      sload(0x0e)\n        /* \"Ethereum/Presale.sol\":4275:4345  real_amount_in.\r... */\n      tag_157\n      swap1\n        /* \"Ethereum/Presale.sol\":4275:4289  real_amount_in */\n      dup9\n      swap1\n        /* \"Ethereum/Presale.sol\":4275:4323  real_amount_in.\r... */\n      tag_160\n        /* \"Ethereum/Presale.sol\":4275:4345  real_amount_in.\r... */\n      jump\t// in\n        /* \"Ethereum/Presale.sol\":4275:4433  real_amount_in.\r... */\n    tag_163:\n        /* \"Ethereum/Presale.sol\":4254:4434  uint256 tokenSold = (real_amount_in.\r... */\n      swap10\n        /* \"Ethereum/Presale.sol\":3407:4485  function deposit(uint256 _amount) external view returns(uint256) {\r... */\n      swap9\n      pop\n      pop\n      pop\n      pop\n      pop\n      pop\n      pop\n      pop\n      pop\n      jump\t// out\n        /* \"Ethereum/Presale.sol\":3289:3399  function checkAdminAddress() public view returns(bool) {\r... */\n    tag_77:\n        /* \"Ethereum/Presale.sol\":3338:3342  bool */\n      0x00\n        /* \"Ethereum/Presale.sol\":3362:3391  admins.contains(_msgSender()) */\n      tag_171\n        /* \"Ethereum/Presale.sol\":3362:3368  admins */\n      0x19\n        /* \"Utils/Context.sol\":736:746  msg.sender */\n      caller\n        /* \"Ethereum/Presale.sol\":3362:3377  admins.contains */\n      tag_173\n        /* \"Ethereum/Presale.sol\":3362:3391  admins.contains(_msgSender()) */\n      jump\t// in\n    tag_171:\n        /* \"Ethereum/Presale.sol\":3355:3391  return admins.contains(_msgSender()) */\n      swap1\n      pop\n        /* \"Ethereum/Presale.sol\":3289:3399  function checkAdminAddress() public view returns(bool) {\r... */\n      swap1\n      jump\t// out\n        /* \"Utils/Ownable.sol\":1972:2173  function transferOwnership(address newOwner) public virtual onlyOwner {\r... */\n    tag_89:\n        /* \"Utils/Ownable.sol\":1136:1142  _owner */\n      and(sub(shl(0xa0, 0x01), 0x01), sload(0x01))\n        /* \"Utils/Context.sol\":736:746  msg.sender */\n      caller\n        /* \"Utils/Ownable.sol\":1283:1306  owner() == _msgSender() */\n      eq\n        /* \"Utils/Ownable.sol\":1275:1343  require(owner() == _msgSender(), \"Ownable: caller is not the owner\") */\n      tag_177\n      jumpi\n      mload(0x40)\n      shl(0xe5, 0x461bcd)\n      dup2\n      mstore\n        /* \"#utility.yul\":5322:5324   */\n      0x20\n        /* \"Utils/Ownable.sol\":1275:1343  require(owner() == _msgSender(), \"Ownable: caller is not the owner\") */\n      0x04\n      dup3\n      add\n        /* \"#utility.yul\":5304:5325   */\n      dup2\n      swap1\n      mstore\n        /* \"#utility.yul\":5341:5359   */\n      0x24\n      dup3\n      add\n        /* \"#utility.yul\":5334:5364   */\n      mstore\n        /* \"#utility.yul\":5400:5434   */\n      0x4f776e61626c653a2063616c6c6572206973206e6f7420746865206f776e6572\n        /* \"#utility.yul\":5380:5398   */\n      0x44\n      dup3\n      add\n        /* \"#utility.yul\":5373:5435   */\n      mstore\n        /* \"#utility.yul\":5452:5470   */\n      0x64\n      add\n        /* \"Utils/Ownable.sol\":1275:1343  require(owner() == _msgSender(), \"Ownable: caller is not the owner\") */\n      tag_134\n        /* \"#utility.yul\":5294:5476   */\n      jump\n        /* \"Utils/Ownable.sol\":1275:1343  require(owner() == _msgSender(), \"Ownable: caller is not the owner\") */\n    tag_177:\n      sub(shl(0xa0, 0x01), 0x01)\n        /* \"Utils/Ownable.sol\":2061:2083  newOwner != address(0) */\n      dup2\n      and\n        /* \"Utils/Ownable.sol\":2053:2126  require(newOwner != address(0), \"Ownable: new owner is the zero address\") */\n      tag_180\n      jumpi\n      mload(0x40)\n      shl(0xe5, 0x461bcd)\n      dup2\n      mstore\n        /* \"#utility.yul\":3888:3890   */\n      0x20\n        /* \"Utils/Ownable.sol\":2053:2126  require(newOwner != address(0), \"Ownable: new owner is the zero address\") */\n      0x04\n      dup3\n      add\n        /* \"#utility.yul\":3870:3891   */\n      mstore\n        /* \"#utility.yul\":3927:3929   */\n      0x26\n        /* \"#utility.yul\":3907:3925   */\n      0x24\n      dup3\n      add\n        /* \"#utility.yul\":3900:3930   */\n      mstore\n        /* \"#utility.yul\":3966:4000   */\n      0x4f776e61626c653a206e6577206f776e657220697320746865207a65726f2061\n        /* \"#utility.yul\":3946:3964   */\n      0x44\n      dup3\n      add\n        /* \"#utility.yul\":3939:4001   */\n      mstore\n      shl(0xd0, 0x646472657373)\n        /* \"#utility.yul\":4017:4035   */\n      0x64\n      dup3\n      add\n        /* \"#utility.yul\":4010:4046   */\n      mstore\n        /* \"#utility.yul\":4063:4082   */\n      0x84\n      add\n        /* \"Utils/Ownable.sol\":2053:2126  require(newOwner != address(0), \"Ownable: new owner is the zero address\") */\n      tag_134\n        /* \"#utility.yul\":3860:4088   */\n      jump\n        /* \"Utils/Ownable.sol\":2053:2126  require(newOwner != address(0), \"Ownable: new owner is the zero address\") */\n    tag_180:\n        /* \"Utils/Ownable.sol\":2137:2165  _transferOwnership(newOwner) */\n      tag_141\n        /* \"Utils/Ownable.sol\":2156:2164  newOwner */\n      dup2\n        /* \"Utils/Ownable.sol\":2137:2155  _transferOwnership */\n      tag_138\n        /* \"Utils/Ownable.sol\":2137:2165  _transferOwnership(newOwner) */\n      jump\t// in\n        /* \"Utils/EnumerableSet.sol\":8259:8411  function add(AddressSet storage set, address value) internal returns (bool) {\r... */\n    tag_95:\n        /* \"Utils/EnumerableSet.sol\":8329:8333  bool */\n      0x00\n        /* \"Utils/EnumerableSet.sol\":8353:8403  _add(set._inner, bytes32(uint256(uint160(value)))) */\n      tag_186\n        /* \"Utils/EnumerableSet.sol\":8358:8361  set */\n      dup4\n      sub(shl(0xa0, 0x01), 0x01)\n        /* \"Utils/EnumerableSet.sol\":8378:8401  uint256(uint160(value)) */\n      dup5\n      and\n        /* \"Utils/EnumerableSet.sol\":8353:8357  _add */\n      tag_187\n        /* \"Utils/EnumerableSet.sol\":8353:8403  _add(set._inner, bytes32(uint256(uint160(value)))) */\n      jump\t// in\n    tag_186:\n        /* \"Utils/EnumerableSet.sol\":8346:8403  return _add(set._inner, bytes32(uint256(uint160(value)))) */\n      swap1\n      pop\n        /* \"Utils/EnumerableSet.sol\":8259:8411  function add(AddressSet storage set, address value) internal returns (bool) {\r... */\n    tag_185:\n      swap3\n      swap2\n      pop\n      pop\n      jump\t// out\n        /* \"Utils/Ownable.sol\":2333:2524  function _transferOwnership(address newOwner) internal virtual {\r... */\n    tag_138:\n        /* \"Utils/Ownable.sol\":2426:2432  _owner */\n      0x01\n      dup1\n      sload\n      sub(shl(0xa0, 0x01), 0x01)\n        /* \"Utils/Ownable.sol\":2443:2460  _owner = newOwner */\n      dup4\n      dup2\n      and\n      not(sub(shl(0xa0, 0x01), 0x01))\n      dup4\n      and\n      dup2\n      or\n      swap1\n      swap4\n      sstore\n        /* \"Utils/Ownable.sol\":2476:2516  OwnershipTransferred(oldOwner, newOwner) */\n      mload(0x40)\n        /* \"Utils/Ownable.sol\":2426:2432  _owner */\n      swap2\n      and\n      swap2\n        /* \"Utils/Ownable.sol\":2443:2460  _owner = newOwner */\n      swap1\n        /* \"Utils/Ownable.sol\":2426:2432  _owner */\n      dup3\n      swap1\n        /* \"Utils/Ownable.sol\":2476:2516  OwnershipTransferred(oldOwner, newOwner) */\n      0x8be0079c531659141344cd1fd0a4f28419497f9722a3daafe3b4186f6b6457e0\n      swap1\n        /* \"Utils/Ownable.sol\":2407:2423  address oldOwner */\n      0x00\n      swap1\n        /* \"Utils/Ownable.sol\":2476:2516  OwnershipTransferred(oldOwner, newOwner) */\n      log3\n        /* \"Utils/Ownable.sol\":2333:2524  function _transferOwnership(address newOwner) internal virtual {\r... */\n      pop\n      pop\n      jump\t// out\n        /* \"Utils/SafeMath.sol\":3228:3326  function sub(uint256 a, uint256 b) internal pure returns (uint256) {\r... */\n    tag_159:\n        /* \"Utils/SafeMath.sol\":3286:3293  uint256 */\n      0x00\n        /* \"Utils/SafeMath.sol\":3313:3318  a - b */\n      tag_186\n        /* \"Utils/SafeMath.sol\":3317:3318  b */\n      dup3\n        /* \"Utils/SafeMath.sol\":3313:3314  a */\n      dup5\n        /* \"Utils/SafeMath.sol\":3313:3318  a - b */\n      tag_103\n      jump\t// in\n        /* \"Utils/SafeMath.sol\":3585:3683  function mul(uint256 a, uint256 b) internal pure returns (uint256) {\r... */\n    tag_160:\n        /* \"Utils/SafeMath.sol\":3643:3650  uint256 */\n      0x00\n        /* \"Utils/SafeMath.sol\":3670:3675  a * b */\n      tag_186\n        /* \"Utils/SafeMath.sol\":3674:3675  b */\n      dup3\n        /* \"Utils/SafeMath.sol\":3670:3671  a */\n      dup5\n        /* \"Utils/SafeMath.sol\":3670:3675  a * b */\n      tag_116\n      jump\t// in\n        /* \"Utils/SafeMath.sol\":3984:4082  function div(uint256 a, uint256 b) internal pure returns (uint256) {\r... */\n    tag_161:\n        /* \"Utils/SafeMath.sol\":4042:4049  uint256 */\n      0x00\n        /* \"Utils/SafeMath.sol\":4069:4074  a / b */\n      tag_186\n        /* \"Utils/SafeMath.sol\":4073:4074  b */\n      dup3\n        /* \"Utils/SafeMath.sol\":4069:4070  a */\n      dup5\n        /* \"Utils/SafeMath.sol\":4069:4074  a / b */\n      tag_196\n      jump\t// in\n        /* \"Utils/EnumerableSet.sol\":8831:8998  function contains(AddressSet storage set, address value) internal view returns (bool) {\r... */\n    tag_173:\n      sub(shl(0xa0, 0x01), 0x01)\n        /* \"Utils/EnumerableSet.sol\":8965:8988  uint256(uint160(value)) */\n      dup2\n      and\n        /* \"Utils/EnumerableSet.sol\":8911:8915  bool */\n      0x00\n        /* \"Utils/EnumerableSet.sol\":4367:4386  set._indexes[value] */\n      swap1\n      dup2\n      mstore\n        /* \"Utils/EnumerableSet.sol\":4367:4379  set._indexes */\n      0x01\n      dup4\n      add\n        /* \"Utils/EnumerableSet.sol\":4367:4386  set._indexes[value] */\n      0x20\n      mstore\n      0x40\n      dup2\n      keccak256\n      sload\n        /* \"Utils/EnumerableSet.sol\":4367:4391  set._indexes[value] != 0 */\n      iszero\n      iszero\n        /* \"Utils/EnumerableSet.sol\":8935:8990  _contains(set._inner, bytes32(uint256(uint160(value)))) */\n      tag_186\n        /* \"Utils/EnumerableSet.sol\":4270:4399  function _contains(Set storage set, bytes32 value) private view returns (bool) {\r... */\n      jump\n        /* \"Utils/EnumerableSet.sol\":2174:2588  function _add(Set storage set, bytes32 value) private returns (bool) {\r... */\n    tag_187:\n        /* \"Utils/EnumerableSet.sol\":2237:2241  bool */\n      0x00\n        /* \"Utils/EnumerableSet.sol\":4367:4386  set._indexes[value] */\n      dup2\n      dup2\n      mstore\n        /* \"Utils/EnumerableSet.sol\":4367:4379  set._indexes */\n      0x01\n      dup4\n      add\n        /* \"Utils/EnumerableSet.sol\":4367:4386  set._indexes[value] */\n      0x20\n      mstore\n      0x40\n      dup2\n      keccak256\n      sload\n        /* \"Utils/EnumerableSet.sol\":2254:2581  if (!_contains(set, value)) {\r... */\n      tag_202\n      jumpi\n      pop\n        /* \"Utils/EnumerableSet.sol\":2297:2320  set._values.push(value) */\n      dup2\n      sload\n      0x01\n      dup2\n      dup2\n      add\n      dup5\n      sstore\n        /* \"Utils/EnumerableSet.sol\":2297:2308  set._values */\n      0x00\n        /* \"Utils/EnumerableSet.sol\":2297:2320  set._values.push(value) */\n      dup5\n      dup2\n      mstore\n      0x20\n      dup1\n      dup3\n      keccak256\n      swap1\n      swap4\n      add\n      dup5\n      swap1\n      sstore\n        /* \"Utils/EnumerableSet.sol\":2480:2498  set._values.length */\n      dup5\n      sload\n        /* \"Utils/EnumerableSet.sol\":2458:2477  set._indexes[value] */\n      dup5\n      dup3\n      mstore\n        /* \"Utils/EnumerableSet.sol\":2458:2470  set._indexes */\n      dup3\n      dup7\n      add\n        /* \"Utils/EnumerableSet.sol\":2458:2477  set._indexes[value] */\n      swap1\n      swap4\n      mstore\n      0x40\n      swap1\n      keccak256\n        /* \"Utils/EnumerableSet.sol\":2458:2498  set._indexes[value] = set._values.length */\n      swap2\n      swap1\n      swap2\n      sstore\n        /* \"Utils/EnumerableSet.sol\":2513:2524  return true */\n      jump(tag_185)\n        /* \"Utils/EnumerableSet.sol\":2254:2581  if (!_contains(set, value)) {\r... */\n    tag_202:\n      pop\n        /* \"Utils/EnumerableSet.sol\":2564:2569  false */\n      0x00\n        /* \"Utils/EnumerableSet.sol\":2557:2569  return false */\n      jump(tag_185)\n        /* \"#utility.yul\":14:271   */\n    tag_42:\n        /* \"#utility.yul\":73:79   */\n      0x00\n        /* \"#utility.yul\":126:128   */\n      0x20\n        /* \"#utility.yul\":114:123   */\n      dup3\n        /* \"#utility.yul\":105:112   */\n      dup5\n        /* \"#utility.yul\":101:124   */\n      sub\n        /* \"#utility.yul\":97:129   */\n      slt\n        /* \"#utility.yul\":94:96   */\n      iszero\n      tag_208\n      jumpi\n        /* \"#utility.yul\":147:153   */\n      dup1\n        /* \"#utility.yul\":139:145   */\n      dup2\n        /* \"#utility.yul\":132:154   */\n      revert\n        /* \"#utility.yul\":94:96   */\n    tag_208:\n        /* \"#utility.yul\":191:200   */\n      dup2\n        /* \"#utility.yul\":178:201   */\n      calldataload\n        /* \"#utility.yul\":210:241   */\n      tag_209\n        /* \"#utility.yul\":235:240   */\n      dup2\n        /* \"#utility.yul\":210:241   */\n      tag_210\n      jump\t// in\n    tag_209:\n        /* \"#utility.yul\":260:265   */\n      swap4\n        /* \"#utility.yul\":84:271   */\n      swap3\n      pop\n      pop\n      pop\n      jump\t// out\n        /* \"#utility.yul\":276:1572   */\n    tag_48:\n        /* \"#utility.yul\":419:425   */\n      0x00\n        /* \"#utility.yul\":427:433   */\n      dup1\n        /* \"#utility.yul\":435:441   */\n      0x00\n        /* \"#utility.yul\":443:449   */\n      dup1\n        /* \"#utility.yul\":474:477   */\n      0x0140\n        /* \"#utility.yul\":518:520   */\n      dup1\n        /* \"#utility.yul\":506:515   */\n      dup7\n        /* \"#utility.yul\":497:504   */\n      dup9\n        /* \"#utility.yul\":493:516   */\n      sub\n        /* \"#utility.yul\":489:521   */\n      slt\n        /* \"#utility.yul\":486:488   */\n      iszero\n      tag_212\n      jumpi\n        /* \"#utility.yul\":539:545   */\n      dup4\n        /* \"#utility.yul\":531:537   */\n      dup5\n        /* \"#utility.yul\":524:546   */\n      revert\n        /* \"#utility.yul\":486:488   */\n    tag_212:\n        /* \"#utility.yul\":583:592   */\n      dup6\n        /* \"#utility.yul\":570:593   */\n      calldataload\n        /* \"#utility.yul\":602:633   */\n      tag_213\n        /* \"#utility.yul\":627:632   */\n      dup2\n        /* \"#utility.yul\":602:633   */\n      tag_210\n      jump\t// in\n    tag_213:\n        /* \"#utility.yul\":652:657   */\n      swap5\n      pop\n        /* \"#utility.yul\":676:678   */\n      0x20\n        /* \"#utility.yul\":715:733   */\n      dup7\n      dup2\n      add\n        /* \"#utility.yul\":702:734   */\n      calldataload\n        /* \"#utility.yul\":743:776   */\n      tag_214\n        /* \"#utility.yul\":702:734   */\n      dup2\n        /* \"#utility.yul\":743:776   */\n      tag_210\n      jump\t// in\n    tag_214:\n        /* \"#utility.yul\":795:802   */\n      swap5\n      pop\n        /* \"#utility.yul\":854:856   */\n      0x40\n        /* \"#utility.yul\":839:857   */\n      dup8\n      add\n        /* \"#utility.yul\":826:858   */\n      calldataload\n        /* \"#utility.yul\":867:900   */\n      tag_215\n        /* \"#utility.yul\":826:858   */\n      dup2\n        /* \"#utility.yul\":867:900   */\n      tag_210\n      jump\t// in\n    tag_215:\n        /* \"#utility.yul\":919:926   */\n      swap4\n      pop\n        /* \"#utility.yul\":964:967   */\n      0x7f\n        /* \"#utility.yul\":949:968   */\n      dup8\n      add\n        /* \"#utility.yul\":945:978   */\n      dup9\n      sgt\n        /* \"#utility.yul\":935:937   */\n      tag_216\n      jumpi\n        /* \"#utility.yul\":997:1003   */\n      dup3\n        /* \"#utility.yul\":989:995   */\n      dup4\n        /* \"#utility.yul\":982:1004   */\n      revert\n        /* \"#utility.yul\":935:937   */\n    tag_216:\n        /* \"#utility.yul\":1035:1037   */\n      0x40\n        /* \"#utility.yul\":1029:1038   */\n      mload\n        /* \"#utility.yul\":1077:1080   */\n      0xe0\n        /* \"#utility.yul\":1069:1075   */\n      dup2\n        /* \"#utility.yul\":1065:1081   */\n      add\n        /* \"#utility.yul\":1147:1153   */\n      dup2\n        /* \"#utility.yul\":1135:1145   */\n      dup2\n        /* \"#utility.yul\":1132:1154   */\n      lt\n        /* \"#utility.yul\":1111:1129   */\n      0xffffffffffffffff\n        /* \"#utility.yul\":1099:1109   */\n      dup3\n        /* \"#utility.yul\":1096:1130   */\n      gt\n        /* \"#utility.yul\":1093:1155   */\n      or\n        /* \"#utility.yul\":1090:1092   */\n      iszero\n      tag_218\n      jumpi\n        /* \"#utility.yul\":1158:1176   */\n      tag_218\n      tag_219\n      jump\t// in\n    tag_218:\n        /* \"#utility.yul\":1194:1196   */\n      0x40\n        /* \"#utility.yul\":1187:1209   */\n      mstore\n        /* \"#utility.yul\":1229:1235   */\n      dup1\n        /* \"#utility.yul\":1270:1272   */\n      0x60\n        /* \"#utility.yul\":1255:1273   */\n      dup10\n      add\n        /* \"#utility.yul\":1288:1306   */\n      dup5\n      dup11\n      add\n        /* \"#utility.yul\":1285:1316   */\n      dup12\n      lt\n        /* \"#utility.yul\":1282:1284   */\n      iszero\n      tag_220\n      jumpi\n        /* \"#utility.yul\":1334:1340   */\n      dup6\n        /* \"#utility.yul\":1326:1332   */\n      dup7\n        /* \"#utility.yul\":1319:1341   */\n      revert\n        /* \"#utility.yul\":1282:1284   */\n    tag_220:\n        /* \"#utility.yul\":1361:1367   */\n      dup6\n        /* \"#utility.yul\":1352:1367   */\n      swap5\n      pop\n        /* \"#utility.yul\":1376:1541   */\n    tag_221:\n        /* \"#utility.yul\":1390:1394   */\n      0x07\n        /* \"#utility.yul\":1387:1388   */\n      dup6\n        /* \"#utility.yul\":1384:1395   */\n      lt\n        /* \"#utility.yul\":1376:1541   */\n      iszero\n      tag_223\n      jumpi\n        /* \"#utility.yul\":1449:1466   */\n      dup1\n      calldataload\n        /* \"#utility.yul\":1437:1467   */\n      dup3\n      mstore\n        /* \"#utility.yul\":1410:1411   */\n      0x01\n        /* \"#utility.yul\":1403:1412   */\n      swap5\n      swap1\n      swap5\n      add\n      swap4\n        /* \"#utility.yul\":1487:1499   */\n      swap1\n      dup4\n      add\n      swap1\n        /* \"#utility.yul\":1519:1531   */\n      dup4\n      add\n        /* \"#utility.yul\":1376:1541   */\n      jump(tag_221)\n    tag_223:\n        /* \"#utility.yul\":1380:1383   */\n      pop\n      pop\n        /* \"#utility.yul\":1560:1566   */\n      dup1\n        /* \"#utility.yul\":1550:1566   */\n      swap4\n      pop\n      pop\n      pop\n      pop\n        /* \"#utility.yul\":454:1572   */\n      swap3\n      swap6\n      swap2\n      swap5\n      pop\n      swap3\n      pop\n      jump\t// out\n        /* \"#utility.yul\":1577:1767   */\n    tag_37:\n        /* \"#utility.yul\":1636:1642   */\n      0x00\n        /* \"#utility.yul\":1689:1691   */\n      0x20\n        /* \"#utility.yul\":1677:1686   */\n      dup3\n        /* \"#utility.yul\":1668:1675   */\n      dup5\n        /* \"#utility.yul\":1664:1687   */\n      sub\n        /* \"#utility.yul\":1660:1692   */\n      slt\n        /* \"#utility.yul\":1657:1659   */\n      iszero\n      tag_225\n      jumpi\n        /* \"#utility.yul\":1710:1716   */\n      dup1\n        /* \"#utility.yul\":1702:1708   */\n      dup2\n        /* \"#utility.yul\":1695:1717   */\n      revert\n        /* \"#utility.yul\":1657:1659   */\n    tag_225:\n      pop\n        /* \"#utility.yul\":1738:1761   */\n      calldataload\n      swap2\n        /* \"#utility.yul\":1647:1767   */\n      swap1\n      pop\n      jump\t// out\n        /* \"#utility.yul\":1772:1966   */\n    tag_111:\n        /* \"#utility.yul\":1842:1848   */\n      0x00\n        /* \"#utility.yul\":1895:1897   */\n      0x20\n        /* \"#utility.yul\":1883:1892   */\n      dup3\n        /* \"#utility.yul\":1874:1881   */\n      dup5\n        /* \"#utility.yul\":1870:1893   */\n      sub\n        /* \"#utility.yul\":1866:1898   */\n      slt\n        /* \"#utility.yul\":1863:1865   */\n      iszero\n      tag_227\n      jumpi\n        /* \"#utility.yul\":1916:1922   */\n      dup1\n        /* \"#utility.yul\":1908:1914   */\n      dup2\n        /* \"#utility.yul\":1901:1923   */\n      revert\n        /* \"#utility.yul\":1863:1865   */\n    tag_227:\n      pop\n        /* \"#utility.yul\":1944:1960   */\n      mload\n      swap2\n        /* \"#utility.yul\":1853:1966   */\n      swap1\n      pop\n      jump\t// out\n        /* \"#utility.yul\":6763:6980   */\n    tag_196:\n        /* \"#utility.yul\":6803:6804   */\n      0x00\n        /* \"#utility.yul\":6829:6830   */\n      dup3\n        /* \"#utility.yul\":6819:6821   */\n      tag_241\n      jumpi\n      shl(0xe0, 0x4e487b71)\n        /* \"#utility.yul\":6854:6885   */\n      dup2\n      mstore\n        /* \"#utility.yul\":6908:6912   */\n      0x12\n        /* \"#utility.yul\":6905:6906   */\n      0x04\n        /* \"#utility.yul\":6898:6913   */\n      mstore\n        /* \"#utility.yul\":6936:6940   */\n      0x24\n        /* \"#utility.yul\":6861:6862   */\n      dup2\n        /* \"#utility.yul\":6926:6941   */\n      revert\n        /* \"#utility.yul\":6819:6821   */\n    tag_241:\n      pop\n        /* \"#utility.yul\":6965:6974   */\n      div\n      swap1\n        /* \"#utility.yul\":6809:6980   */\n      jump\t// out\n        /* \"#utility.yul\":6985:7407   */\n    tag_242:\n        /* \"#utility.yul\":7074:7075   */\n      0x01\n        /* \"#utility.yul\":7117:7122   */\n      dup2\n        /* \"#utility.yul\":7074:7075   */\n      dup2\n        /* \"#utility.yul\":7131:7401   */\n    tag_244:\n        /* \"#utility.yul\":7152:7159   */\n      dup1\n        /* \"#utility.yul\":7142:7150   */\n      dup6\n        /* \"#utility.yul\":7139:7160   */\n      gt\n        /* \"#utility.yul\":7131:7401   */\n      iszero\n      tag_246\n      jumpi\n        /* \"#utility.yul\":7211:7215   */\n      dup2\n        /* \"#utility.yul\":7207:7208   */\n      0x00\n        /* \"#utility.yul\":7203:7209   */\n      not\n        /* \"#utility.yul\":7199:7216   */\n      div\n        /* \"#utility.yul\":7193:7197   */\n      dup3\n        /* \"#utility.yul\":7190:7217   */\n      gt\n        /* \"#utility.yul\":7187:7189   */\n      iszero\n      tag_248\n      jumpi\n        /* \"#utility.yul\":7220:7238   */\n      tag_248\n      tag_249\n      jump\t// in\n    tag_248:\n        /* \"#utility.yul\":7270:7277   */\n      dup1\n        /* \"#utility.yul\":7260:7268   */\n      dup6\n        /* \"#utility.yul\":7256:7278   */\n      and\n        /* \"#utility.yul\":7253:7255   */\n      iszero\n      tag_250\n      jumpi\n        /* \"#utility.yul\":7290:7306   */\n      swap2\n      dup2\n      mul\n      swap2\n        /* \"#utility.yul\":7253:7255   */\n    tag_250:\n        /* \"#utility.yul\":7369:7391   */\n      swap4\n      dup5\n      shr\n      swap4\n        /* \"#utility.yul\":7329:7344   */\n      swap1\n      dup1\n      mul\n      swap1\n        /* \"#utility.yul\":7131:7401   */\n      jump(tag_244)\n    tag_246:\n        /* \"#utility.yul\":7135:7138   */\n      pop\n        /* \"#utility.yul\":7049:7407   */\n      swap3\n      pop\n      swap3\n      swap1\n      pop\n      jump\t// out\n        /* \"#utility.yul\":7412:7543   */\n    tag_113:\n        /* \"#utility.yul\":7472:7477   */\n      0x00\n        /* \"#utility.yul\":7501:7537   */\n      tag_186\n        /* \"#utility.yul\":7528:7536   */\n      dup4\n        /* \"#utility.yul\":7522:7526   */\n      dup4\n        /* \"#utility.yul\":7597:7602   */\n      0x00\n        /* \"#utility.yul\":7627:7635   */\n      dup3\n        /* \"#utility.yul\":7617:7619   */\n      tag_255\n      jumpi\n      pop\n        /* \"#utility.yul\":7668:7669   */\n      0x01\n        /* \"#utility.yul\":7682:7687   */\n      jump(tag_185)\n        /* \"#utility.yul\":7617:7619   */\n    tag_255:\n        /* \"#utility.yul\":7716:7720   */\n      dup2\n        /* \"#utility.yul\":7706:7708   */\n      tag_256\n      jumpi\n      pop\n        /* \"#utility.yul\":7753:7754   */\n      0x00\n        /* \"#utility.yul\":7767:7772   */\n      jump(tag_185)\n        /* \"#utility.yul\":7706:7708   */\n    tag_256:\n        /* \"#utility.yul\":7798:7802   */\n      dup2\n        /* \"#utility.yul\":7816:7817   */\n      0x01\n        /* \"#utility.yul\":7811:7870   */\n      dup2\n      eq\n      tag_258\n      jumpi\n        /* \"#utility.yul\":7884:7885   */\n      0x02\n        /* \"#utility.yul\":7879:8009   */\n      dup2\n      eq\n      tag_259\n      jumpi\n        /* \"#utility.yul\":7791:8009   */\n      jump(tag_257)\n        /* \"#utility.yul\":7811:7870   */\n    tag_258:\n        /* \"#utility.yul\":7841:7842   */\n      0x01\n        /* \"#utility.yul\":7832:7842   */\n      swap2\n      pop\n        /* \"#utility.yul\":7855:7860   */\n      pop\n      jump(tag_185)\n        /* \"#utility.yul\":7879:8009   */\n    tag_259:\n        /* \"#utility.yul\":7916:7919   */\n      0xff\n        /* \"#utility.yul\":7906:7914   */\n      dup5\n        /* \"#utility.yul\":7903:7920   */\n      gt\n        /* \"#utility.yul\":7900:7902   */\n      iszero\n      tag_261\n      jumpi\n        /* \"#utility.yul\":7923:7941   */\n      tag_261\n      tag_249\n      jump\t// in\n    tag_261:\n      pop\n      pop\n        /* \"#utility.yul\":7979:7980   */\n      0x01\n        /* \"#utility.yul\":7965:7981   */\n      dup3\n      shl\n        /* \"#utility.yul\":7994:7999   */\n      jump(tag_185)\n        /* \"#utility.yul\":7791:8009   */\n    tag_257:\n      pop\n        /* \"#utility.yul\":8093:8095   */\n      0x20\n        /* \"#utility.yul\":8083:8091   */\n      dup4\n        /* \"#utility.yul\":8080:8096   */\n      lt\n        /* \"#utility.yul\":8074:8077   */\n      0x0133\n        /* \"#utility.yul\":8068:8072   */\n      dup4\n        /* \"#utility.yul\":8065:8078   */\n      lt\n        /* \"#utility.yul\":8061:8097   */\n      and\n        /* \"#utility.yul\":8055:8057   */\n      0x4e\n        /* \"#utility.yul\":8045:8053   */\n      dup5\n        /* \"#utility.yul\":8042:8058   */\n      lt\n        /* \"#utility.yul\":8037:8039   */\n      0x0b\n        /* \"#utility.yul\":8031:8035   */\n      dup5\n        /* \"#utility.yul\":8028:8040   */\n      lt\n        /* \"#utility.yul\":8024:8059   */\n      and\n        /* \"#utility.yul\":8021:8098   */\n      or\n        /* \"#utility.yul\":8018:8020   */\n      iszero\n      tag_262\n      jumpi\n      pop\n        /* \"#utility.yul\":8130:8149   */\n      dup2\n      dup2\n      exp\n        /* \"#utility.yul\":8162:8167   */\n      jump(tag_185)\n        /* \"#utility.yul\":8018:8020   */\n    tag_262:\n        /* \"#utility.yul\":8209:8243   */\n      tag_263\n        /* \"#utility.yul\":8234:8242   */\n      dup4\n        /* \"#utility.yul\":8228:8232   */\n      dup4\n        /* \"#utility.yul\":8209:8243   */\n      tag_242\n      jump\t// in\n    tag_263:\n        /* \"#utility.yul\":8279:8285   */\n      dup1\n        /* \"#utility.yul\":8275:8276   */\n      0x00\n        /* \"#utility.yul\":8271:8277   */\n      not\n        /* \"#utility.yul\":8267:8286   */\n      div\n        /* \"#utility.yul\":8258:8265   */\n      dup3\n        /* \"#utility.yul\":8255:8287   */\n      gt\n        /* \"#utility.yul\":8252:8254   */\n      iszero\n      tag_265\n      jumpi\n        /* \"#utility.yul\":8290:8308   */\n      tag_265\n      tag_249\n      jump\t// in\n    tag_265:\n        /* \"#utility.yul\":8328:8348   */\n      mul\n      swap4\n        /* \"#utility.yul\":7607:8354   */\n      swap3\n      pop\n      pop\n      pop\n      jump\t// out\n        /* \"#utility.yul\":8359:8527   */\n    tag_116:\n        /* \"#utility.yul\":8399:8406   */\n      0x00\n        /* \"#utility.yul\":8465:8466   */\n      dup2\n        /* \"#utility.yul\":8461:8462   */\n      0x00\n        /* \"#utility.yul\":8457:8463   */\n      not\n        /* \"#utility.yul\":8453:8467   */\n      div\n        /* \"#utility.yul\":8450:8451   */\n      dup4\n        /* \"#utility.yul\":8447:8468   */\n      gt\n        /* \"#utility.yul\":8442:8443   */\n      dup3\n        /* \"#utility.yul\":8435:8444   */\n      iszero\n        /* \"#utility.yul\":8428:8445   */\n      iszero\n        /* \"#utility.yul\":8424:8469   */\n      and\n        /* \"#utility.yul\":8421:8423   */\n      iszero\n      tag_268\n      jumpi\n        /* \"#utility.yul\":8472:8490   */\n      tag_268\n      tag_249\n      jump\t// in\n    tag_268:\n      pop\n        /* \"#utility.yul\":8512:8521   */\n      mul\n      swap1\n        /* \"#utility.yul\":8411:8527   */\n      jump\t// out\n        /* \"#utility.yul\":8532:8657   */\n    tag_103:\n        /* \"#utility.yul\":8572:8576   */\n      0x00\n        /* \"#utility.yul\":8600:8601   */\n      dup3\n        /* \"#utility.yul\":8597:8598   */\n      dup3\n        /* \"#utility.yul\":8594:8602   */\n      lt\n        /* \"#utility.yul\":8591:8593   */\n      iszero\n      tag_271\n      jumpi\n        /* \"#utility.yul\":8605:8623   */\n      tag_271\n      tag_249\n      jump\t// in\n    tag_271:\n      pop\n        /* \"#utility.yul\":8642:8651   */\n      sub\n      swap1\n        /* \"#utility.yul\":8581:8657   */\n      jump\t// out\n        /* \"#utility.yul\":8662:8789   */\n    tag_249:\n        /* \"#utility.yul\":8723:8733   */\n      0x4e487b71\n        /* \"#utility.yul\":8718:8721   */\n      0xe0\n        /* \"#utility.yul\":8714:8734   */\n      shl\n        /* \"#utility.yul\":8711:8712   */\n      0x00\n        /* \"#utility.yul\":8704:8735   */\n      mstore\n        /* \"#utility.yul\":8754:8758   */\n      0x11\n        /* \"#utility.yul\":8751:8752   */\n      0x04\n        /* \"#utility.yul\":8744:8759   */\n      mstore\n        /* \"#utility.yul\":8778:8782   */\n      0x24\n        /* \"#utility.yul\":8775:8776   */\n      0x00\n        /* \"#utility.yul\":8768:8783   */\n      revert\n        /* \"#utility.yul\":8794:8921   */\n    tag_219:\n        /* \"#utility.yul\":8855:8865   */\n      0x4e487b71\n        /* \"#utility.yul\":8850:8853   */\n      0xe0\n        /* \"#utility.yul\":8846:8866   */\n      shl\n        /* \"#utility.yul\":8843:8844   */\n      0x00\n        /* \"#utility.yul\":8836:8867   */\n      mstore\n        /* \"#utility.yul\":8886:8890   */\n      0x41\n        /* \"#utility.yul\":8883:8884   */\n      0x04\n        /* \"#utility.yul\":8876:8891   */\n      mstore\n        /* \"#utility.yul\":8910:8914   */\n      0x24\n        /* \"#utility.yul\":8907:8908   */\n      0x00\n        /* \"#utility.yul\":8900:8915   */\n      revert\n        /* \"#utility.yul\":8926:9057   */\n    tag_210:\n      sub(shl(0xa0, 0x01), 0x01)\n        /* \"#utility.yul\":9001:9032   */\n      dup2\n      and\n        /* \"#utility.yul\":8991:9033   */\n      dup2\n      eq\n        /* \"#utility.yul\":8981:8983   */\n      tag_141\n      jumpi\n        /* \"#utility.yul\":9047:9048   */\n      0x00\n        /* \"#utility.yul\":9044:9045   */\n      dup1\n        /* \"#utility.yul\":9037:9049   */\n      revert\n\n    auxdata: 0xa2646970667358221220be19ea4abafe580c5e14a2d470c348a0fb109091231220e63f69a27de01f207764736f6c63430008040033\n}\n",
				"bytecode": {
					"linkReferences": {},
					"object": "608060405260016000556100123361009c565b6017805473c778417e063141139fce010982780140aa0cd5ab6001600160a01b03199091161790556100646019736ccb41eeda5a073076f3e7dc1614c185b5fa41ed6100ee602090811b61099317901c565b50610091734f0b12bbf40fc182559822a5b1db6d34dbc3e01660196100ee60201b6109931790919060201c565b50601460185561015b565b600180546001600160a01b038381166001600160a01b0319831681179093556040519116919082907f8be0079c531659141344cd1fd0a4f28419497f9722a3daafe3b4186f6b6457e090600090a35050565b6000610103836001600160a01b03841661010c565b90505b92915050565b600081815260018301602052604081205461015357508154600181810184556000848152602080822090930184905584548482528286019093526040902091909155610106565b506000610106565b610d638061016a6000396000f3fe6080604052600436106100f35760003560e01c80638da5cb5b1161008a578063cad5b0f711610059578063cad5b0f71461033f578063e2d3f42314610364578063f2fde38b146103eb578063f8b2cb4f1461040b57600080fd5b80638da5cb5b14610275578063acfb2355146102a7578063ad5c4648146102ff578063b6b55f251461031f57600080fd5b806356c5f349116100c657806356c5f3491461020b57806361e1765514610238578063715018a614610258578063861faf5f1461026d57600080fd5b806318856a2f146100f8578063200d2ed2146101bd5780633b5ef2ad146101e05780634329db46146101f6575b600080fd5b34801561010457600080fd5b50600b54600c54600d54600e54600f5460105460115460125460135460145460155460165461014c9b6001600160a01b039081169b81169a16989796959493929160ff16908c565b604080516001600160a01b039d8e1681529b8d1660208d015299909b16988a01989098526060890196909652608088019490945260a087019290925260c086015260e08501526101008401526101208301521515610140820152610160810191909152610180015b60405180910390f35b3480156101c957600080fd5b506101d2610433565b6040519081526020016101b4565b3480156101ec57600080fd5b506101d260185481565b610209610204366004610b7b565b61045c565b005b34801561021757600080fd5b506101d2610226366004610a98565b60036020526000908152604090205481565b34801561024457600080fd5b50610209610253366004610abb565b610496565b34801561026457600080fd5b50610209610644565b6102096106af565b34801561028157600080fd5b506001546001600160a01b03165b6040516001600160a01b0390911681526020016101b4565b3480156102b357600080fd5b506004546005546006546007546008546009546102d295949392919086565b604080519687526020870195909552938501929092526060840152608083015260a082015260c0016101b4565b34801561030b57600080fd5b5060175461028f906001600160a01b031681565b34801561032b57600080fd5b506101d261033a366004610b7b565b6106de565b34801561034b57600080fd5b506103546108b9565b60405190151581526020016101b4565b34801561037057600080fd5b506103ba61037f366004610a98565b600260208190526000918252604090912080546001820154928201546003830154600490930154919392909160ff8082169161010090041686565b60408051968752602087019590955293850192909252606084015215156080830152151560a082015260c0016101b4565b3480156103f757600080fd5b50610209610406366004610a98565b6108cb565b34801561041757600080fd5b506101d2610426366004610a98565b6001600160a01b03163190565b600f546000904210156104465750600090565b6010544211156104565750600290565b50600190565b336108fc61046a8334610cd5565b6040518115909202916000818181858888f19350505050158015610492573d6000803e3d6000fd5b5050565b600b80546001600160a01b038087166001600160a01b031992831617909255600c80548684169083168117909155600d8054938616939092169290921790556040805163313ce56760e01b8152905163313ce56791600480820192602092909190829003018186803b15801561050b57600080fd5b505afa15801561051f573d6000803e3d6000fd5b505050506040513d601f19601f820116820180604052508101906105439190610b93565b61054e90600a610c0e565b815161055a9190610cb6565b600e55602080820151600f556040808301516010556060830151601155600d54815163313ce56760e01b815291516001600160a01b039091169263313ce5679260048082019391829003018186803b1580156105b557600080fd5b505afa1580156105c9573d6000803e3d6000fd5b505050506040513d601f19601f820116820180604052508101906105ed9190610b93565b6105f890600a610c0e565b60808201516106079190610cb6565b60125560a081015160135560c001516014555050600d54601754601580546001600160a01b03938416939092169290921460ff1990911617905550565b6001546001600160a01b031633146106a35760405162461bcd60e51b815260206004820181905260248201527f4f776e61626c653a2063616c6c6572206973206e6f7420746865206f776e657260448201526064015b60405180910390fd5b6106ad60006109b1565b565b60405133904780156108fc02916000818181858888f193505050501580156106db573d6000803e3d6000fd5b50565b60006106e8610433565b6001146107245760405162461bcd60e51b815260206004820152600a6024820152694e4f542041435449564560b01b604482015260640161069a565b336000908152600260205260408120601154909184918291906103e8908310156107835760405162461bcd60e51b815260206004820152601060248201526f4e6f7420656e6f7567682076616c756560801b604482015260640161069a565b6012548311156107c65760405162461bcd60e51b815260206004820152600e60248201526d4f766572666c6f772076616c756560901b604482015260640161069a565b6107ce6108b9565b6107fe576107fb816107f5856107ef60185486610a0390919063ffffffff16565b90610a0f565b90610a1b565b92505b60125460009061080f908590610cd5565b600d546040805163313ce56760e01b815290519293506000926108ac926001600160a01b03169163313ce567916004808301926020929190829003018186803b15801561085b57600080fd5b505afa15801561086f573d6000803e3d6000fd5b505050506040513d601f19601f820116820180604052508101906108939190610b93565b61089e90600a610c0e565b600e546107f5908890610a0f565b9998505050505050505050565b60006108c6601933610a27565b905090565b6001546001600160a01b031633146109255760405162461bcd60e51b815260206004820181905260248201527f4f776e61626c653a2063616c6c6572206973206e6f7420746865206f776e6572604482015260640161069a565b6001600160a01b03811661098a5760405162461bcd60e51b815260206004820152602660248201527f4f776e61626c653a206e6577206f776e657220697320746865207a65726f206160448201526564647265737360d01b606482015260840161069a565b6106db816109b1565b60006109a8836001600160a01b038416610a49565b90505b92915050565b600180546001600160a01b038381166001600160a01b0319831681179093556040519116919082907f8be0079c531659141344cd1fd0a4f28419497f9722a3daafe3b4186f6b6457e090600090a35050565b60006109a88284610cd5565b60006109a88284610cb6565b60006109a88284610bab565b6001600160a01b038116600090815260018301602052604081205415156109a8565b6000818152600183016020526040812054610a90575081546001818101845560008481526020808220909301849055845484825282860190935260409020919091556109ab565b5060006109ab565b600060208284031215610aa9578081fd5b8135610ab481610d18565b9392505050565b600080600080610140808688031215610ad2578384fd5b8535610add81610d18565b9450602086810135610aee81610d18565b94506040870135610afe81610d18565b9350607f87018813610b0e578283fd5b60405160e0810181811067ffffffffffffffff82111715610b3157610b31610d02565b6040528060608901848a018b1015610b47578586fd5b8594505b6007851015610b6a578035825260019490940193908301908301610b4b565b505080935050505092959194509250565b600060208284031215610b8c578081fd5b5035919050565b600060208284031215610ba4578081fd5b5051919050565b600082610bc657634e487b7160e01b81526012600452602481fd5b500490565b600181815b80851115610c06578160001904821115610bec57610bec610cec565b80851615610bf957918102915b93841c9390800290610bd0565b509250929050565b60006109a88383600082610c24575060016109ab565b81610c31575060006109ab565b8160018114610c475760028114610c5157610c6d565b60019150506109ab565b60ff841115610c6257610c62610cec565b50506001821b6109ab565b5060208310610133831016604e8410600b8410161715610c90575081810a6109ab565b610c9a8383610bcb565b8060001904821115610cae57610cae610cec565b029392505050565b6000816000190483118215151615610cd057610cd0610cec565b500290565b600082821015610ce757610ce7610cec565b500390565b634e487b7160e01b600052601160045260246000fd5b634e487b7160e01b600052604160045260246000fd5b6001600160a01b03811681146106db57600080fdfea2646970667358221220be19ea4abafe580c5e14a2d470c348a0fb109091231220e63f69a27de01f207764736f6c63430008040033",
					"opcodes": "PUSH1 0x80 PUSH1 0x40 MSTORE PUSH1 0x1 PUSH1 0x0 SSTORE PUSH2 0x12 CALLER PUSH2 0x9C JUMP JUMPDEST PUSH1 0x17 DUP1 SLOAD PUSH20 0xC778417E063141139FCE010982780140AA0CD5AB PUSH1 0x1 PUSH1 0x1 PUSH1 0xA0 SHL SUB NOT SWAP1 SWAP2 AND OR SWAP1 SSTORE PUSH2 0x64 PUSH1 0x19 PUSH20 0x6CCB41EEDA5A073076F3E7DC1614C185B5FA41ED PUSH2 0xEE PUSH1 0x20 SWAP1 DUP2 SHL PUSH2 0x993 OR SWAP1 SHR JUMP JUMPDEST POP PUSH2 0x91 PUSH20 0x4F0B12BBF40FC182559822A5B1DB6D34DBC3E016 PUSH1 0x19 PUSH2 0xEE PUSH1 0x20 SHL PUSH2 0x993 OR SWAP1 SWAP2 SWAP1 PUSH1 0x20 SHR JUMP JUMPDEST POP PUSH1 0x14 PUSH1 0x18 SSTORE PUSH2 0x15B JUMP JUMPDEST PUSH1 0x1 DUP1 SLOAD PUSH1 0x1 PUSH1 0x1 PUSH1 0xA0 SHL SUB DUP4 DUP2 AND PUSH1 0x1 PUSH1 0x1 PUSH1 0xA0 SHL SUB NOT DUP4 AND DUP2 OR SWAP1 SWAP4 SSTORE PUSH1 0x40 MLOAD SWAP2 AND SWAP2 SWAP1 DUP3 SWAP1 PUSH32 0x8BE0079C531659141344CD1FD0A4F28419497F9722A3DAAFE3B4186F6B6457E0 SWAP1 PUSH1 0x0 SWAP1 LOG3 POP POP JUMP JUMPDEST PUSH1 0x0 PUSH2 0x103 DUP4 PUSH1 0x1 PUSH1 0x1 PUSH1 0xA0 SHL SUB DUP5 AND PUSH2 0x10C JUMP JUMPDEST SWAP1 POP JUMPDEST SWAP3 SWAP2 POP POP JUMP JUMPDEST PUSH1 0x0 DUP2 DUP2 MSTORE PUSH1 0x1 DUP4 ADD PUSH1 0x20 MSTORE PUSH1 0x40 DUP2 KECCAK256 SLOAD PUSH2 0x153 JUMPI POP DUP2 SLOAD PUSH1 0x1 DUP2 DUP2 ADD DUP5 SSTORE PUSH1 0x0 DUP5 DUP2 MSTORE PUSH1 0x20 DUP1 DUP3 KECCAK256 SWAP1 SWAP4 ADD DUP5 SWAP1 SSTORE DUP5 SLOAD DUP5 DUP3 MSTORE DUP3 DUP7 ADD SWAP1 SWAP4 MSTORE PUSH1 0x40 SWAP1 KECCAK256 SWAP2 SWAP1 SWAP2 SSTORE PUSH2 0x106 JUMP JUMPDEST POP PUSH1 0x0 PUSH2 0x106 JUMP JUMPDEST PUSH2 0xD63 DUP1 PUSH2 0x16A PUSH1 0x0 CODECOPY PUSH1 0x0 RETURN INVALID PUSH1 0x80 PUSH1 0x40 MSTORE PUSH1 0x4 CALLDATASIZE LT PUSH2 0xF3 JUMPI PUSH1 0x0 CALLDATALOAD PUSH1 0xE0 SHR DUP1 PUSH4 0x8DA5CB5B GT PUSH2 0x8A JUMPI DUP1 PUSH4 0xCAD5B0F7 GT PUSH2 0x59 JUMPI DUP1 PUSH4 0xCAD5B0F7 EQ PUSH2 0x33F JUMPI DUP1 PUSH4 0xE2D3F423 EQ PUSH2 0x364 JUMPI DUP1 PUSH4 0xF2FDE38B EQ PUSH2 0x3EB JUMPI DUP1 PUSH4 0xF8B2CB4F EQ PUSH2 0x40B JUMPI PUSH1 0x0 DUP1 REVERT JUMPDEST DUP1 PUSH4 0x8DA5CB5B EQ PUSH2 0x275 JUMPI DUP1 PUSH4 0xACFB2355 EQ PUSH2 0x2A7 JUMPI DUP1 PUSH4 0xAD5C4648 EQ PUSH2 0x2FF JUMPI DUP1 PUSH4 0xB6B55F25 EQ PUSH2 0x31F JUMPI PUSH1 0x0 DUP1 REVERT JUMPDEST DUP1 PUSH4 0x56C5F349 GT PUSH2 0xC6 JUMPI DUP1 PUSH4 0x56C5F349 EQ PUSH2 0x20B JUMPI DUP1 PUSH4 0x61E17655 EQ PUSH2 0x238 JUMPI DUP1 PUSH4 0x715018A6 EQ PUSH2 0x258 JUMPI DUP1 PUSH4 0x861FAF5F EQ PUSH2 0x26D JUMPI PUSH1 0x0 DUP1 REVERT JUMPDEST DUP1 PUSH4 0x18856A2F EQ PUSH2 0xF8 JUMPI DUP1 PUSH4 0x200D2ED2 EQ PUSH2 0x1BD JUMPI DUP1 PUSH4 0x3B5EF2AD EQ PUSH2 0x1E0 JUMPI DUP1 PUSH4 0x4329DB46 EQ PUSH2 0x1F6 JUMPI JUMPDEST PUSH1 0x0 DUP1 REVERT JUMPDEST CALLVALUE DUP1 ISZERO PUSH2 0x104 JUMPI PUSH1 0x0 DUP1 REVERT JUMPDEST POP PUSH1 0xB SLOAD PUSH1 0xC SLOAD PUSH1 0xD SLOAD PUSH1 0xE SLOAD PUSH1 0xF SLOAD PUSH1 0x10 SLOAD PUSH1 0x11 SLOAD PUSH1 0x12 SLOAD PUSH1 0x13 SLOAD PUSH1 0x14 SLOAD PUSH1 0x15 SLOAD PUSH1 0x16 SLOAD PUSH2 0x14C SWAP12 PUSH1 0x1 PUSH1 0x1 PUSH1 0xA0 SHL SUB SWAP1 DUP2 AND SWAP12 DUP2 AND SWAP11 AND SWAP9 SWAP8 SWAP7 SWAP6 SWAP5 SWAP4 SWAP3 SWAP2 PUSH1 0xFF AND SWAP1 DUP13 JUMP JUMPDEST PUSH1 0x40 DUP1 MLOAD PUSH1 0x1 PUSH1 0x1 PUSH1 0xA0 SHL SUB SWAP14 DUP15 AND DUP2 MSTORE SWAP12 DUP14 AND PUSH1 0x20 DUP14 ADD MSTORE SWAP10 SWAP1 SWAP12 AND SWAP9 DUP11 ADD SWAP9 SWAP1 SWAP9 MSTORE PUSH1 0x60 DUP10 ADD SWAP7 SWAP1 SWAP7 MSTORE PUSH1 0x80 DUP9 ADD SWAP5 SWAP1 SWAP5 MSTORE PUSH1 0xA0 DUP8 ADD SWAP3 SWAP1 SWAP3 MSTORE PUSH1 0xC0 DUP7 ADD MSTORE PUSH1 0xE0 DUP6 ADD MSTORE PUSH2 0x100 DUP5 ADD MSTORE PUSH2 0x120 DUP4 ADD MSTORE ISZERO ISZERO PUSH2 0x140 DUP3 ADD MSTORE PUSH2 0x160 DUP2 ADD SWAP2 SWAP1 SWAP2 MSTORE PUSH2 0x180 ADD JUMPDEST PUSH1 0x40 MLOAD DUP1 SWAP2 SUB SWAP1 RETURN JUMPDEST CALLVALUE DUP1 ISZERO PUSH2 0x1C9 JUMPI PUSH1 0x0 DUP1 REVERT JUMPDEST POP PUSH2 0x1D2 PUSH2 0x433 JUMP JUMPDEST PUSH1 0x40 MLOAD SWAP1 DUP2 MSTORE PUSH1 0x20 ADD PUSH2 0x1B4 JUMP JUMPDEST CALLVALUE DUP1 ISZERO PUSH2 0x1EC JUMPI PUSH1 0x0 DUP1 REVERT JUMPDEST POP PUSH2 0x1D2 PUSH1 0x18 SLOAD DUP2 JUMP JUMPDEST PUSH2 0x209 PUSH2 0x204 CALLDATASIZE PUSH1 0x4 PUSH2 0xB7B JUMP JUMPDEST PUSH2 0x45C JUMP JUMPDEST STOP JUMPDEST CALLVALUE DUP1 ISZERO PUSH2 0x217 JUMPI PUSH1 0x0 DUP1 REVERT JUMPDEST POP PUSH2 0x1D2 PUSH2 0x226 CALLDATASIZE PUSH1 0x4 PUSH2 0xA98 JUMP JUMPDEST PUSH1 0x3 PUSH1 0x20 MSTORE PUSH1 0x0 SWAP1 DUP2 MSTORE PUSH1 0x40 SWAP1 KECCAK256 SLOAD DUP2 JUMP JUMPDEST CALLVALUE DUP1 ISZERO PUSH2 0x244 JUMPI PUSH1 0x0 DUP1 REVERT JUMPDEST POP PUSH2 0x209 PUSH2 0x253 CALLDATASIZE PUSH1 0x4 PUSH2 0xABB JUMP JUMPDEST PUSH2 0x496 JUMP JUMPDEST CALLVALUE DUP1 ISZERO PUSH2 0x264 JUMPI PUSH1 0x0 DUP1 REVERT JUMPDEST POP PUSH2 0x209 PUSH2 0x644 JUMP JUMPDEST PUSH2 0x209 PUSH2 0x6AF JUMP JUMPDEST CALLVALUE DUP1 ISZERO PUSH2 0x281 JUMPI PUSH1 0x0 DUP1 REVERT JUMPDEST POP PUSH1 0x1 SLOAD PUSH1 0x1 PUSH1 0x1 PUSH1 0xA0 SHL SUB AND JUMPDEST PUSH1 0x40 MLOAD PUSH1 0x1 PUSH1 0x1 PUSH1 0xA0 SHL SUB SWAP1 SWAP2 AND DUP2 MSTORE PUSH1 0x20 ADD PUSH2 0x1B4 JUMP JUMPDEST CALLVALUE DUP1 ISZERO PUSH2 0x2B3 JUMPI PUSH1 0x0 DUP1 REVERT JUMPDEST POP PUSH1 0x4 SLOAD PUSH1 0x5 SLOAD PUSH1 0x6 SLOAD PUSH1 0x7 SLOAD PUSH1 0x8 SLOAD PUSH1 0x9 SLOAD PUSH2 0x2D2 SWAP6 SWAP5 SWAP4 SWAP3 SWAP2 SWAP1 DUP7 JUMP JUMPDEST PUSH1 0x40 DUP1 MLOAD SWAP7 DUP8 MSTORE PUSH1 0x20 DUP8 ADD SWAP6 SWAP1 SWAP6 MSTORE SWAP4 DUP6 ADD SWAP3 SWAP1 SWAP3 MSTORE PUSH1 0x60 DUP5 ADD MSTORE PUSH1 0x80 DUP4 ADD MSTORE PUSH1 0xA0 DUP3 ADD MSTORE PUSH1 0xC0 ADD PUSH2 0x1B4 JUMP JUMPDEST CALLVALUE DUP1 ISZERO PUSH2 0x30B JUMPI PUSH1 0x0 DUP1 REVERT JUMPDEST POP PUSH1 0x17 SLOAD PUSH2 0x28F SWAP1 PUSH1 0x1 PUSH1 0x1 PUSH1 0xA0 SHL SUB AND DUP2 JUMP JUMPDEST CALLVALUE DUP1 ISZERO PUSH2 0x32B JUMPI PUSH1 0x0 DUP1 REVERT JUMPDEST POP PUSH2 0x1D2 PUSH2 0x33A CALLDATASIZE PUSH1 0x4 PUSH2 0xB7B JUMP JUMPDEST PUSH2 0x6DE JUMP JUMPDEST CALLVALUE DUP1 ISZERO PUSH2 0x34B JUMPI PUSH1 0x0 DUP1 REVERT JUMPDEST POP PUSH2 0x354 PUSH2 0x8B9 JUMP JUMPDEST PUSH1 0x40 MLOAD SWAP1 ISZERO ISZERO DUP2 MSTORE PUSH1 0x20 ADD PUSH2 0x1B4 JUMP JUMPDEST CALLVALUE DUP1 ISZERO PUSH2 0x370 JUMPI PUSH1 0x0 DUP1 REVERT JUMPDEST POP PUSH2 0x3BA PUSH2 0x37F CALLDATASIZE PUSH1 0x4 PUSH2 0xA98 JUMP JUMPDEST PUSH1 0x2 PUSH1 0x20 DUP2 SWAP1 MSTORE PUSH1 0x0 SWAP2 DUP3 MSTORE PUSH1 0x40 SWAP1 SWAP2 KECCAK256 DUP1 SLOAD PUSH1 0x1 DUP3 ADD SLOAD SWAP3 DUP3 ADD SLOAD PUSH1 0x3 DUP4 ADD SLOAD PUSH1 0x4 SWAP1 SWAP4 ADD SLOAD SWAP2 SWAP4 SWAP3 SWAP1 SWAP2 PUSH1 0xFF DUP1 DUP3 AND SWAP2 PUSH2 0x100 SWAP1 DIV AND DUP7 JUMP JUMPDEST PUSH1 0x40 DUP1 MLOAD SWAP7 DUP8 MSTORE PUSH1 0x20 DUP8 ADD SWAP6 SWAP1 SWAP6 MSTORE SWAP4 DUP6 ADD SWAP3 SWAP1 SWAP3 MSTORE PUSH1 0x60 DUP5 ADD MSTORE ISZERO ISZERO PUSH1 0x80 DUP4 ADD MSTORE ISZERO ISZERO PUSH1 0xA0 DUP3 ADD MSTORE PUSH1 0xC0 ADD PUSH2 0x1B4 JUMP JUMPDEST CALLVALUE DUP1 ISZERO PUSH2 0x3F7 JUMPI PUSH1 0x0 DUP1 REVERT JUMPDEST POP PUSH2 0x209 PUSH2 0x406 CALLDATASIZE PUSH1 0x4 PUSH2 0xA98 JUMP JUMPDEST PUSH2 0x8CB JUMP JUMPDEST CALLVALUE DUP1 ISZERO PUSH2 0x417 JUMPI PUSH1 0x0 DUP1 REVERT JUMPDEST POP PUSH2 0x1D2 PUSH2 0x426 CALLDATASIZE PUSH1 0x4 PUSH2 0xA98 JUMP JUMPDEST PUSH1 0x1 PUSH1 0x1 PUSH1 0xA0 SHL SUB AND BALANCE SWAP1 JUMP JUMPDEST PUSH1 0xF SLOAD PUSH1 0x0 SWAP1 TIMESTAMP LT ISZERO PUSH2 0x446 JUMPI POP PUSH1 0x0 SWAP1 JUMP JUMPDEST PUSH1 0x10 SLOAD TIMESTAMP GT ISZERO PUSH2 0x456 JUMPI POP PUSH1 0x2 SWAP1 JUMP JUMPDEST POP PUSH1 0x1 SWAP1 JUMP JUMPDEST CALLER PUSH2 0x8FC PUSH2 0x46A DUP4 CALLVALUE PUSH2 0xCD5 JUMP JUMPDEST PUSH1 0x40 MLOAD DUP2 ISZERO SWAP1 SWAP3 MUL SWAP2 PUSH1 0x0 DUP2 DUP2 DUP2 DUP6 DUP9 DUP9 CALL SWAP4 POP POP POP POP ISZERO DUP1 ISZERO PUSH2 0x492 JUMPI RETURNDATASIZE PUSH1 0x0 DUP1 RETURNDATACOPY RETURNDATASIZE PUSH1 0x0 REVERT JUMPDEST POP POP JUMP JUMPDEST PUSH1 0xB DUP1 SLOAD PUSH1 0x1 PUSH1 0x1 PUSH1 0xA0 SHL SUB DUP1 DUP8 AND PUSH1 0x1 PUSH1 0x1 PUSH1 0xA0 SHL SUB NOT SWAP3 DUP4 AND OR SWAP1 SWAP3 SSTORE PUSH1 0xC DUP1 SLOAD DUP7 DUP5 AND SWAP1 DUP4 AND DUP2 OR SWAP1 SWAP2 SSTORE PUSH1 0xD DUP1 SLOAD SWAP4 DUP7 AND SWAP4 SWAP1 SWAP3 AND SWAP3 SWAP1 SWAP3 OR SWAP1 SSTORE PUSH1 0x40 DUP1 MLOAD PUSH4 0x313CE567 PUSH1 0xE0 SHL DUP2 MSTORE SWAP1 MLOAD PUSH4 0x313CE567 SWAP2 PUSH1 0x4 DUP1 DUP3 ADD SWAP3 PUSH1 0x20 SWAP3 SWAP1 SWAP2 SWAP1 DUP3 SWAP1 SUB ADD DUP2 DUP7 DUP1 EXTCODESIZE ISZERO DUP1 ISZERO PUSH2 0x50B JUMPI PUSH1 0x0 DUP1 REVERT JUMPDEST POP GAS STATICCALL ISZERO DUP1 ISZERO PUSH2 0x51F JUMPI RETURNDATASIZE PUSH1 0x0 DUP1 RETURNDATACOPY RETURNDATASIZE PUSH1 0x0 REVERT JUMPDEST POP POP POP POP PUSH1 0x40 MLOAD RETURNDATASIZE PUSH1 0x1F NOT PUSH1 0x1F DUP3 ADD AND DUP3 ADD DUP1 PUSH1 0x40 MSTORE POP DUP2 ADD SWAP1 PUSH2 0x543 SWAP2 SWAP1 PUSH2 0xB93 JUMP JUMPDEST PUSH2 0x54E SWAP1 PUSH1 0xA PUSH2 0xC0E JUMP JUMPDEST DUP2 MLOAD PUSH2 0x55A SWAP2 SWAP1 PUSH2 0xCB6 JUMP JUMPDEST PUSH1 0xE SSTORE PUSH1 0x20 DUP1 DUP3 ADD MLOAD PUSH1 0xF SSTORE PUSH1 0x40 DUP1 DUP4 ADD MLOAD PUSH1 0x10 SSTORE PUSH1 0x60 DUP4 ADD MLOAD PUSH1 0x11 SSTORE PUSH1 0xD SLOAD DUP2 MLOAD PUSH4 0x313CE567 PUSH1 0xE0 SHL DUP2 MSTORE SWAP2 MLOAD PUSH1 0x1 PUSH1 0x1 PUSH1 0xA0 SHL SUB SWAP1 SWAP2 AND SWAP3 PUSH4 0x313CE567 SWAP3 PUSH1 0x4 DUP1 DUP3 ADD SWAP4 SWAP2 DUP3 SWAP1 SUB ADD DUP2 DUP7 DUP1 EXTCODESIZE ISZERO DUP1 ISZERO PUSH2 0x5B5 JUMPI PUSH1 0x0 DUP1 REVERT JUMPDEST POP GAS STATICCALL ISZERO DUP1 ISZERO PUSH2 0x5C9 JUMPI RETURNDATASIZE PUSH1 0x0 DUP1 RETURNDATACOPY RETURNDATASIZE PUSH1 0x0 REVERT JUMPDEST POP POP POP POP PUSH1 0x40 MLOAD RETURNDATASIZE PUSH1 0x1F NOT PUSH1 0x1F DUP3 ADD AND DUP3 ADD DUP1 PUSH1 0x40 MSTORE POP DUP2 ADD SWAP1 PUSH2 0x5ED SWAP2 SWAP1 PUSH2 0xB93 JUMP JUMPDEST PUSH2 0x5F8 SWAP1 PUSH1 0xA PUSH2 0xC0E JUMP JUMPDEST PUSH1 0x80 DUP3 ADD MLOAD PUSH2 0x607 SWAP2 SWAP1 PUSH2 0xCB6 JUMP JUMPDEST PUSH1 0x12 SSTORE PUSH1 0xA0 DUP2 ADD MLOAD PUSH1 0x13 SSTORE PUSH1 0xC0 ADD MLOAD PUSH1 0x14 SSTORE POP POP PUSH1 0xD SLOAD PUSH1 0x17 SLOAD PUSH1 0x15 DUP1 SLOAD PUSH1 0x1 PUSH1 0x1 PUSH1 0xA0 SHL SUB SWAP4 DUP5 AND SWAP4 SWAP1 SWAP3 AND SWAP3 SWAP1 SWAP3 EQ PUSH1 0xFF NOT SWAP1 SWAP2 AND OR SWAP1 SSTORE POP JUMP JUMPDEST PUSH1 0x1 SLOAD PUSH1 0x1 PUSH1 0x1 PUSH1 0xA0 SHL SUB AND CALLER EQ PUSH2 0x6A3 JUMPI PUSH1 0x40 MLOAD PUSH3 0x461BCD PUSH1 0xE5 SHL DUP2 MSTORE PUSH1 0x20 PUSH1 0x4 DUP3 ADD DUP2 SWAP1 MSTORE PUSH1 0x24 DUP3 ADD MSTORE PUSH32 0x4F776E61626C653A2063616C6C6572206973206E6F7420746865206F776E6572 PUSH1 0x44 DUP3 ADD MSTORE PUSH1 0x64 ADD JUMPDEST PUSH1 0x40 MLOAD DUP1 SWAP2 SUB SWAP1 REVERT JUMPDEST PUSH2 0x6AD PUSH1 0x0 PUSH2 0x9B1 JUMP JUMPDEST JUMP JUMPDEST PUSH1 0x40 MLOAD CALLER SWAP1 SELFBALANCE DUP1 ISZERO PUSH2 0x8FC MUL SWAP2 PUSH1 0x0 DUP2 DUP2 DUP2 DUP6 DUP9 DUP9 CALL SWAP4 POP POP POP POP ISZERO DUP1 ISZERO PUSH2 0x6DB JUMPI RETURNDATASIZE PUSH1 0x0 DUP1 RETURNDATACOPY RETURNDATASIZE PUSH1 0x0 REVERT JUMPDEST POP JUMP JUMPDEST PUSH1 0x0 PUSH2 0x6E8 PUSH2 0x433 JUMP JUMPDEST PUSH1 0x1 EQ PUSH2 0x724 JUMPI PUSH1 0x40 MLOAD PUSH3 0x461BCD PUSH1 0xE5 SHL DUP2 MSTORE PUSH1 0x20 PUSH1 0x4 DUP3 ADD MSTORE PUSH1 0xA PUSH1 0x24 DUP3 ADD MSTORE PUSH10 0x4E4F5420414354495645 PUSH1 0xB0 SHL PUSH1 0x44 DUP3 ADD MSTORE PUSH1 0x64 ADD PUSH2 0x69A JUMP JUMPDEST CALLER PUSH1 0x0 SWAP1 DUP2 MSTORE PUSH1 0x2 PUSH1 0x20 MSTORE PUSH1 0x40 DUP2 KECCAK256 PUSH1 0x11 SLOAD SWAP1 SWAP2 DUP5 SWAP2 DUP3 SWAP2 SWAP1 PUSH2 0x3E8 SWAP1 DUP4 LT ISZERO PUSH2 0x783 JUMPI PUSH1 0x40 MLOAD PUSH3 0x461BCD PUSH1 0xE5 SHL DUP2 MSTORE PUSH1 0x20 PUSH1 0x4 DUP3 ADD MSTORE PUSH1 0x10 PUSH1 0x24 DUP3 ADD MSTORE PUSH16 0x4E6F7420656E6F7567682076616C7565 PUSH1 0x80 SHL PUSH1 0x44 DUP3 ADD MSTORE PUSH1 0x64 ADD PUSH2 0x69A JUMP JUMPDEST PUSH1 0x12 SLOAD DUP4 GT ISZERO PUSH2 0x7C6 JUMPI PUSH1 0x40 MLOAD PUSH3 0x461BCD PUSH1 0xE5 SHL DUP2 MSTORE PUSH1 0x20 PUSH1 0x4 DUP3 ADD MSTORE PUSH1 0xE PUSH1 0x24 DUP3 ADD MSTORE PUSH14 0x4F766572666C6F772076616C7565 PUSH1 0x90 SHL PUSH1 0x44 DUP3 ADD MSTORE PUSH1 0x64 ADD PUSH2 0x69A JUMP JUMPDEST PUSH2 0x7CE PUSH2 0x8B9 JUMP JUMPDEST PUSH2 0x7FE JUMPI PUSH2 0x7FB DUP2 PUSH2 0x7F5 DUP6 PUSH2 0x7EF PUSH1 0x18 SLOAD DUP7 PUSH2 0xA03 SWAP1 SWAP2 SWAP1 PUSH4 0xFFFFFFFF AND JUMP JUMPDEST SWAP1 PUSH2 0xA0F JUMP JUMPDEST SWAP1 PUSH2 0xA1B JUMP JUMPDEST SWAP3 POP JUMPDEST PUSH1 0x12 SLOAD PUSH1 0x0 SWAP1 PUSH2 0x80F SWAP1 DUP6 SWAP1 PUSH2 0xCD5 JUMP JUMPDEST PUSH1 0xD SLOAD PUSH1 0x40 DUP1 MLOAD PUSH4 0x313CE567 PUSH1 0xE0 SHL DUP2 MSTORE SWAP1 MLOAD SWAP3 SWAP4 POP PUSH1 0x0 SWAP3 PUSH2 0x8AC SWAP3 PUSH1 0x1 PUSH1 0x1 PUSH1 0xA0 SHL SUB AND SWAP2 PUSH4 0x313CE567 SWAP2 PUSH1 0x4 DUP1 DUP4 ADD SWAP3 PUSH1 0x20 SWAP3 SWAP2 SWAP1 DUP3 SWAP1 SUB ADD DUP2 DUP7 DUP1 EXTCODESIZE ISZERO DUP1 ISZERO PUSH2 0x85B JUMPI PUSH1 0x0 DUP1 REVERT JUMPDEST POP GAS STATICCALL ISZERO DUP1 ISZERO PUSH2 0x86F JUMPI RETURNDATASIZE PUSH1 0x0 DUP1 RETURNDATACOPY RETURNDATASIZE PUSH1 0x0 REVERT JUMPDEST POP POP POP POP PUSH1 0x40 MLOAD RETURNDATASIZE PUSH1 0x1F NOT PUSH1 0x1F DUP3 ADD AND DUP3 ADD DUP1 PUSH1 0x40 MSTORE POP DUP2 ADD SWAP1 PUSH2 0x893 SWAP2 SWAP1 PUSH2 0xB93 JUMP JUMPDEST PUSH2 0x89E SWAP1 PUSH1 0xA PUSH2 0xC0E JUMP JUMPDEST PUSH1 0xE SLOAD PUSH2 0x7F5 SWAP1 DUP9 SWAP1 PUSH2 0xA0F JUMP JUMPDEST SWAP10 SWAP9 POP POP POP POP POP POP POP POP POP JUMP JUMPDEST PUSH1 0x0 PUSH2 0x8C6 PUSH1 0x19 CALLER PUSH2 0xA27 JUMP JUMPDEST SWAP1 POP SWAP1 JUMP JUMPDEST PUSH1 0x1 SLOAD PUSH1 0x1 PUSH1 0x1 PUSH1 0xA0 SHL SUB AND CALLER EQ PUSH2 0x925 JUMPI PUSH1 0x40 MLOAD PUSH3 0x461BCD PUSH1 0xE5 SHL DUP2 MSTORE PUSH1 0x20 PUSH1 0x4 DUP3 ADD DUP2 SWAP1 MSTORE PUSH1 0x24 DUP3 ADD MSTORE PUSH32 0x4F776E61626C653A2063616C6C6572206973206E6F7420746865206F776E6572 PUSH1 0x44 DUP3 ADD MSTORE PUSH1 0x64 ADD PUSH2 0x69A JUMP JUMPDEST PUSH1 0x1 PUSH1 0x1 PUSH1 0xA0 SHL SUB DUP2 AND PUSH2 0x98A JUMPI PUSH1 0x40 MLOAD PUSH3 0x461BCD PUSH1 0xE5 SHL DUP2 MSTORE PUSH1 0x20 PUSH1 0x4 DUP3 ADD MSTORE PUSH1 0x26 PUSH1 0x24 DUP3 ADD MSTORE PUSH32 0x4F776E61626C653A206E6577206F776E657220697320746865207A65726F2061 PUSH1 0x44 DUP3 ADD MSTORE PUSH6 0x646472657373 PUSH1 0xD0 SHL PUSH1 0x64 DUP3 ADD MSTORE PUSH1 0x84 ADD PUSH2 0x69A JUMP JUMPDEST PUSH2 0x6DB DUP2 PUSH2 0x9B1 JUMP JUMPDEST PUSH1 0x0 PUSH2 0x9A8 DUP4 PUSH1 0x1 PUSH1 0x1 PUSH1 0xA0 SHL SUB DUP5 AND PUSH2 0xA49 JUMP JUMPDEST SWAP1 POP JUMPDEST SWAP3 SWAP2 POP POP JUMP JUMPDEST PUSH1 0x1 DUP1 SLOAD PUSH1 0x1 PUSH1 0x1 PUSH1 0xA0 SHL SUB DUP4 DUP2 AND PUSH1 0x1 PUSH1 0x1 PUSH1 0xA0 SHL SUB NOT DUP4 AND DUP2 OR SWAP1 SWAP4 SSTORE PUSH1 0x40 MLOAD SWAP2 AND SWAP2 SWAP1 DUP3 SWAP1 PUSH32 0x8BE0079C531659141344CD1FD0A4F28419497F9722A3DAAFE3B4186F6B6457E0 SWAP1 PUSH1 0x0 SWAP1 LOG3 POP POP JUMP JUMPDEST PUSH1 0x0 PUSH2 0x9A8 DUP3 DUP5 PUSH2 0xCD5 JUMP JUMPDEST PUSH1 0x0 PUSH2 0x9A8 DUP3 DUP5 PUSH2 0xCB6 JUMP JUMPDEST PUSH1 0x0 PUSH2 0x9A8 DUP3 DUP5 PUSH2 0xBAB JUMP JUMPDEST PUSH1 0x1 PUSH1 0x1 PUSH1 0xA0 SHL SUB DUP2 AND PUSH1 0x0 SWAP1 DUP2 MSTORE PUSH1 0x1 DUP4 ADD PUSH1 0x20 MSTORE PUSH1 0x40 DUP2 KECCAK256 SLOAD ISZERO ISZERO PUSH2 0x9A8 JUMP JUMPDEST PUSH1 0x0 DUP2 DUP2 MSTORE PUSH1 0x1 DUP4 ADD PUSH1 0x20 MSTORE PUSH1 0x40 DUP2 KECCAK256 SLOAD PUSH2 0xA90 JUMPI POP DUP2 SLOAD PUSH1 0x1 DUP2 DUP2 ADD DUP5 SSTORE PUSH1 0x0 DUP5 DUP2 MSTORE PUSH1 0x20 DUP1 DUP3 KECCAK256 SWAP1 SWAP4 ADD DUP5 SWAP1 SSTORE DUP5 SLOAD DUP5 DUP3 MSTORE DUP3 DUP7 ADD SWAP1 SWAP4 MSTORE PUSH1 0x40 SWAP1 KECCAK256 SWAP2 SWAP1 SWAP2 SSTORE PUSH2 0x9AB JUMP JUMPDEST POP PUSH1 0x0 PUSH2 0x9AB JUMP JUMPDEST PUSH1 0x0 PUSH1 0x20 DUP3 DUP5 SUB SLT ISZERO PUSH2 0xAA9 JUMPI DUP1 DUP2 REVERT JUMPDEST DUP2 CALLDATALOAD PUSH2 0xAB4 DUP2 PUSH2 0xD18 JUMP JUMPDEST SWAP4 SWAP3 POP POP POP JUMP JUMPDEST PUSH1 0x0 DUP1 PUSH1 0x0 DUP1 PUSH2 0x140 DUP1 DUP7 DUP9 SUB SLT ISZERO PUSH2 0xAD2 JUMPI DUP4 DUP5 REVERT JUMPDEST DUP6 CALLDATALOAD PUSH2 0xADD DUP2 PUSH2 0xD18 JUMP JUMPDEST SWAP5 POP PUSH1 0x20 DUP7 DUP2 ADD CALLDATALOAD PUSH2 0xAEE DUP2 PUSH2 0xD18 JUMP JUMPDEST SWAP5 POP PUSH1 0x40 DUP8 ADD CALLDATALOAD PUSH2 0xAFE DUP2 PUSH2 0xD18 JUMP JUMPDEST SWAP4 POP PUSH1 0x7F DUP8 ADD DUP9 SGT PUSH2 0xB0E JUMPI DUP3 DUP4 REVERT JUMPDEST PUSH1 0x40 MLOAD PUSH1 0xE0 DUP2 ADD DUP2 DUP2 LT PUSH8 0xFFFFFFFFFFFFFFFF DUP3 GT OR ISZERO PUSH2 0xB31 JUMPI PUSH2 0xB31 PUSH2 0xD02 JUMP JUMPDEST PUSH1 0x40 MSTORE DUP1 PUSH1 0x60 DUP10 ADD DUP5 DUP11 ADD DUP12 LT ISZERO PUSH2 0xB47 JUMPI DUP6 DUP7 REVERT JUMPDEST DUP6 SWAP5 POP JUMPDEST PUSH1 0x7 DUP6 LT ISZERO PUSH2 0xB6A JUMPI DUP1 CALLDATALOAD DUP3 MSTORE PUSH1 0x1 SWAP5 SWAP1 SWAP5 ADD SWAP4 SWAP1 DUP4 ADD SWAP1 DUP4 ADD PUSH2 0xB4B JUMP JUMPDEST POP POP DUP1 SWAP4 POP POP POP POP SWAP3 SWAP6 SWAP2 SWAP5 POP SWAP3 POP JUMP JUMPDEST PUSH1 0x0 PUSH1 0x20 DUP3 DUP5 SUB SLT ISZERO PUSH2 0xB8C JUMPI DUP1 DUP2 REVERT JUMPDEST POP CALLDATALOAD SWAP2 SWAP1 POP JUMP JUMPDEST PUSH1 0x0 PUSH1 0x20 DUP3 DUP5 SUB SLT ISZERO PUSH2 0xBA4 JUMPI DUP1 DUP2 REVERT JUMPDEST POP MLOAD SWAP2 SWAP1 POP JUMP JUMPDEST PUSH1 0x0 DUP3 PUSH2 0xBC6 JUMPI PUSH4 0x4E487B71 PUSH1 0xE0 SHL DUP2 MSTORE PUSH1 0x12 PUSH1 0x4 MSTORE PUSH1 0x24 DUP2 REVERT JUMPDEST POP DIV SWAP1 JUMP JUMPDEST PUSH1 0x1 DUP2 DUP2 JUMPDEST DUP1 DUP6 GT ISZERO PUSH2 0xC06 JUMPI DUP2 PUSH1 0x0 NOT DIV DUP3 GT ISZERO PUSH2 0xBEC JUMPI PUSH2 0xBEC PUSH2 0xCEC JUMP JUMPDEST DUP1 DUP6 AND ISZERO PUSH2 0xBF9 JUMPI SWAP2 DUP2 MUL SWAP2 JUMPDEST SWAP4 DUP5 SHR SWAP4 SWAP1 DUP1 MUL SWAP1 PUSH2 0xBD0 JUMP JUMPDEST POP SWAP3 POP SWAP3 SWAP1 POP JUMP JUMPDEST PUSH1 0x0 PUSH2 0x9A8 DUP4 DUP4 PUSH1 0x0 DUP3 PUSH2 0xC24 JUMPI POP PUSH1 0x1 PUSH2 0x9AB JUMP JUMPDEST DUP2 PUSH2 0xC31 JUMPI POP PUSH1 0x0 PUSH2 0x9AB JUMP JUMPDEST DUP2 PUSH1 0x1 DUP2 EQ PUSH2 0xC47 JUMPI PUSH1 0x2 DUP2 EQ PUSH2 0xC51 JUMPI PUSH2 0xC6D JUMP JUMPDEST PUSH1 0x1 SWAP2 POP POP PUSH2 0x9AB JUMP JUMPDEST PUSH1 0xFF DUP5 GT ISZERO PUSH2 0xC62 JUMPI PUSH2 0xC62 PUSH2 0xCEC JUMP JUMPDEST POP POP PUSH1 0x1 DUP3 SHL PUSH2 0x9AB JUMP JUMPDEST POP PUSH1 0x20 DUP4 LT PUSH2 0x133 DUP4 LT AND PUSH1 0x4E DUP5 LT PUSH1 0xB DUP5 LT AND OR ISZERO PUSH2 0xC90 JUMPI POP DUP2 DUP2 EXP PUSH2 0x9AB JUMP JUMPDEST PUSH2 0xC9A DUP4 DUP4 PUSH2 0xBCB JUMP JUMPDEST DUP1 PUSH1 0x0 NOT DIV DUP3 GT ISZERO PUSH2 0xCAE JUMPI PUSH2 0xCAE PUSH2 0xCEC JUMP JUMPDEST MUL SWAP4 SWAP3 POP POP POP JUMP JUMPDEST PUSH1 0x0 DUP2 PUSH1 0x0 NOT DIV DUP4 GT DUP3 ISZERO ISZERO AND ISZERO PUSH2 0xCD0 JUMPI PUSH2 0xCD0 PUSH2 0xCEC JUMP JUMPDEST POP MUL SWAP1 JUMP JUMPDEST PUSH1 0x0 DUP3 DUP3 LT ISZERO PUSH2 0xCE7 JUMPI PUSH2 0xCE7 PUSH2 0xCEC JUMP JUMPDEST POP SUB SWAP1 JUMP JUMPDEST PUSH4 0x4E487B71 PUSH1 0xE0 SHL PUSH1 0x0 MSTORE PUSH1 0x11 PUSH1 0x4 MSTORE PUSH1 0x24 PUSH1 0x0 REVERT JUMPDEST PUSH4 0x4E487B71 PUSH1 0xE0 SHL PUSH1 0x0 MSTORE PUSH1 0x41 PUSH1 0x4 MSTORE PUSH1 0x24 PUSH1 0x0 REVERT JUMPDEST PUSH1 0x1 PUSH1 0x1 PUSH1 0xA0 SHL SUB DUP2 AND DUP2 EQ PUSH2 0x6DB JUMPI PUSH1 0x0 DUP1 REVERT INVALID LOG2 PUSH5 0x6970667358 0x22 SLT KECCAK256 0xBE NOT 0xEA 0x4A 0xBA INVALID PC 0xC 0x5E EQ LOG2 0xD4 PUSH17 0xC348A0FB109091231220E63F69A27DE01F KECCAK256 PUSH24 0x64736F6C6343000804003300000000000000000000000000 "
				},
				"gasEstimates": {
					"creation": {
						"codeDepositCost": "685400",
						"executionCost": "infinite",
						"totalCost": "infinite"
					},
					"external": {
						"WETH()": "1104",
						"backToken()": "infinite",
						"buyerInfo(address)": "4660",
						"checkAdminAddress()": "1199",
						"deposit(uint256)": "infinite",
						"feeAnyone()": "1063",
						"getBalance(address)": "1150",
						"initialSaleInfor(address,address,address,uint256[7])": "infinite",
						"owner()": "1043",
						"presaleStatus()": "5169",
						"renounceOwnership()": "23484",
						"saleInfor()": "10177",
						"status()": "1911",
						"transferETH(uint256)": "infinite",
						"transferOwnership(address)": "infinite",
						"userFee(address)": "1236"
					}
				},
				"methodIdentifiers": {
					"WETH()": "ad5c4648",
					"backToken()": "861faf5f",
					"buyerInfo(address)": "e2d3f423",
					"checkAdminAddress()": "cad5b0f7",
					"deposit(uint256)": "b6b55f25",
					"feeAnyone()": "3b5ef2ad",
					"getBalance(address)": "f8b2cb4f",
					"initialSaleInfor(address,address,address,uint256[7])": "61e17655",
					"owner()": "8da5cb5b",
					"presaleStatus()": "acfb2355",
					"renounceOwnership()": "715018a6",
					"saleInfor()": "18856a2f",
					"status()": "200d2ed2",
					"transferETH(uint256)": "4329db46",
					"transferOwnership(address)": "f2fde38b",
					"userFee(address)": "56c5f349"
				}
			},
			"storageLayout": {
				"storage": [
					{
						"astId": 1898,
						"contract": "Ethereum/Presale.sol:Presale",
						"label": "_status",
						"offset": 0,
						"slot": "0",
						"type": "t_uint256"
					},
					{
						"astId": 1790,
						"contract": "Ethereum/Presale.sol:Presale",
						"label": "_owner",
						"offset": 0,
						"slot": "1",
						"type": "t_address"
					},
					{
						"astId": 768,
						"contract": "Ethereum/Presale.sol:Presale",
						"label": "buyerInfo",
						"offset": 0,
						"slot": "2",
						"type": "t_mapping(t_address,t_struct(BuyerInfo)747_storage)"
					},
					{
						"astId": 772,
						"contract": "Ethereum/Presale.sol:Presale",
						"label": "userFee",
						"offset": 0,
						"slot": "3",
						"type": "t_mapping(t_address,t_uint256)"
					},
					{
						"astId": 775,
						"contract": "Ethereum/Presale.sol:Presale",
						"label": "presaleStatus",
						"offset": 0,
						"slot": "4",
						"type": "t_struct(PresaleStatus)763_storage"
					},
					{
						"astId": 778,
						"contract": "Ethereum/Presale.sol:Presale",
						"label": "saleInfor",
						"offset": 0,
						"slot": "11",
						"type": "t_struct(SaleInfor)734_storage"
					},
					{
						"astId": 781,
						"contract": "Ethereum/Presale.sol:Presale",
						"label": "WETH",
						"offset": 0,
						"slot": "23",
						"type": "t_contract(IERC20)663"
					},
					{
						"astId": 783,
						"contract": "Ethereum/Presale.sol:Presale",
						"label": "feeAnyone",
						"offset": 0,
						"slot": "24",
						"type": "t_uint256"
					},
					{
						"astId": 786,
						"contract": "Ethereum/Presale.sol:Presale",
						"label": "admins",
						"offset": 0,
						"slot": "25",
						"type": "t_struct(AddressSet)1495_storage"
					}
				],
				"types": {
					"t_address": {
						"encoding": "inplace",
						"label": "address",
						"numberOfBytes": "20"
					},
					"t_address_payable": {
						"encoding": "inplace",
						"label": "address payable",
						"numberOfBytes": "20"
					},
					"t_array(t_address)dyn_storage": {
						"base": "t_address",
						"encoding": "dynamic_array",
						"label": "address[]",
						"numberOfBytes": "32"
					},
					"t_array(t_bytes32)dyn_storage": {
						"base": "t_bytes32",
						"encoding": "dynamic_array",
						"label": "bytes32[]",
						"numberOfBytes": "32"
					},
					"t_bool": {
						"encoding": "inplace",
						"label": "bool",
						"numberOfBytes": "1"
					},
					"t_bytes32": {
						"encoding": "inplace",
						"label": "bytes32",
						"numberOfBytes": "32"
					},
					"t_contract(ERC20)585": {
						"encoding": "inplace",
						"label": "contract ERC20",
						"numberOfBytes": "20"
					},
					"t_contract(IERC20)663": {
						"encoding": "inplace",
						"label": "contract IERC20",
						"numberOfBytes": "20"
					},
					"t_mapping(t_address,t_struct(BuyerInfo)747_storage)": {
						"encoding": "mapping",
						"key": "t_address",
						"label": "mapping(address => struct Presale.BuyerInfo)",
						"numberOfBytes": "32",
						"value": "t_struct(BuyerInfo)747_storage"
					},
					"t_mapping(t_address,t_uint256)": {
						"encoding": "mapping",
						"key": "t_address",
						"label": "mapping(address => uint256)",
						"numberOfBytes": "32",
						"value": "t_uint256"
					},
					"t_mapping(t_bytes32,t_uint256)": {
						"encoding": "mapping",
						"key": "t_bytes32",
						"label": "mapping(bytes32 => uint256)",
						"numberOfBytes": "32",
						"value": "t_uint256"
					},
					"t_struct(AddressSet)1495_storage": {
						"encoding": "inplace",
						"label": "struct EnumerableSet.AddressSet",
						"members": [
							{
								"astId": 1494,
								"contract": "Ethereum/Presale.sol:Presale",
								"label": "_inner",
								"offset": 0,
								"slot": "0",
								"type": "t_struct(Set)1194_storage"
							}
						],
						"numberOfBytes": "64"
					},
					"t_struct(BuyerInfo)747_storage": {
						"encoding": "inplace",
						"label": "struct Presale.BuyerInfo",
						"members": [
							{
								"astId": 736,
								"contract": "Ethereum/Presale.sol:Presale",
								"label": "baseDeposit",
								"offset": 0,
								"slot": "0",
								"type": "t_uint256"
							},
							{
								"astId": 738,
								"contract": "Ethereum/Presale.sol:Presale",
								"label": "tokenOwner",
								"offset": 0,
								"slot": "1",
								"type": "t_uint256"
							},
							{
								"astId": 740,
								"contract": "Ethereum/Presale.sol:Presale",
								"label": "lastWithDraw",
								"offset": 0,
								"slot": "2",
								"type": "t_uint256"
							},
							{
								"astId": 742,
								"contract": "Ethereum/Presale.sol:Presale",
								"label": "totalTokenWithDraw",
								"offset": 0,
								"slot": "3",
								"type": "t_uint256"
							},
							{
								"astId": 744,
								"contract": "Ethereum/Presale.sol:Presale",
								"label": "isRefund",
								"offset": 0,
								"slot": "4",
								"type": "t_bool"
							},
							{
								"astId": 746,
								"contract": "Ethereum/Presale.sol:Presale",
								"label": "isClaim",
								"offset": 1,
								"slot": "4",
								"type": "t_bool"
							}
						],
						"numberOfBytes": "160"
					},
					"t_struct(PresaleStatus)763_storage": {
						"encoding": "inplace",
						"label": "struct Presale.PresaleStatus",
						"members": [
							{
								"astId": 749,
								"contract": "Ethereum/Presale.sol:Presale",
								"label": "totalBaseCollected",
								"offset": 0,
								"slot": "0",
								"type": "t_uint256"
							},
							{
								"astId": 751,
								"contract": "Ethereum/Presale.sol:Presale",
								"label": "totalTokenSold",
								"offset": 0,
								"slot": "1",
								"type": "t_uint256"
							},
							{
								"astId": 753,
								"contract": "Ethereum/Presale.sol:Presale",
								"label": "totalTokenWithDraw",
								"offset": 0,
								"slot": "2",
								"type": "t_uint256"
							},
							{
								"astId": 755,
								"contract": "Ethereum/Presale.sol:Presale",
								"label": "totalBaseWithDraw",
								"offset": 0,
								"slot": "3",
								"type": "t_uint256"
							},
							{
								"astId": 757,
								"contract": "Ethereum/Presale.sol:Presale",
								"label": "numByer",
								"offset": 0,
								"slot": "4",
								"type": "t_uint256"
							},
							{
								"astId": 759,
								"contract": "Ethereum/Presale.sol:Presale",
								"label": "totalFee",
								"offset": 0,
								"slot": "5",
								"type": "t_uint256"
							},
							{
								"astId": 762,
								"contract": "Ethereum/Presale.sol:Presale",
								"label": "admin",
								"offset": 0,
								"slot": "6",
								"type": "t_array(t_address)dyn_storage"
							}
						],
						"numberOfBytes": "224"
					},
					"t_struct(SaleInfor)734_storage": {
						"encoding": "inplace",
						"label": "struct Presale.SaleInfor",
						"members": [
							{
								"astId": 709,
								"contract": "Ethereum/Presale.sol:Presale",
								"label": "presaleOwner",
								"offset": 0,
								"slot": "0",
								"type": "t_address_payable"
							},
							{
								"astId": 712,
								"contract": "Ethereum/Presale.sol:Presale",
								"label": "saleToken",
								"offset": 0,
								"slot": "1",
								"type": "t_contract(ERC20)585"
							},
							{
								"astId": 715,
								"contract": "Ethereum/Presale.sol:Presale",
								"label": "baseToken",
								"offset": 0,
								"slot": "2",
								"type": "t_contract(ERC20)585"
							},
							{
								"astId": 717,
								"contract": "Ethereum/Presale.sol:Presale",
								"label": "tokenPrice",
								"offset": 0,
								"slot": "3",
								"type": "t_uint256"
							},
							{
								"astId": 719,
								"contract": "Ethereum/Presale.sol:Presale",
								"label": "startSale",
								"offset": 0,
								"slot": "4",
								"type": "t_uint256"
							},
							{
								"astId": 721,
								"contract": "Ethereum/Presale.sol:Presale",
								"label": "endSale",
								"offset": 0,
								"slot": "5",
								"type": "t_uint256"
							},
							{
								"astId": 723,
								"contract": "Ethereum/Presale.sol:Presale",
								"label": "minSpendPerBuyer",
								"offset": 0,
								"slot": "6",
								"type": "t_uint256"
							},
							{
								"astId": 725,
								"contract": "Ethereum/Presale.sol:Presale",
								"label": "maxSpendPerBuyer",
								"offset": 0,
								"slot": "7",
								"type": "t_uint256"
							},
							{
								"astId": 727,
								"contract": "Ethereum/Presale.sol:Presale",
								"label": "refundFee",
								"offset": 0,
								"slot": "8",
								"type": "t_uint256"
							},
							{
								"astId": 729,
								"contract": "Ethereum/Presale.sol:Presale",
								"label": "claimFee",
								"offset": 0,
								"slot": "9",
								"type": "t_uint256"
							},
							{
								"astId": 731,
								"contract": "Ethereum/Presale.sol:Presale",
								"label": "saleIsBaseToken",
								"offset": 0,
								"slot": "10",
								"type": "t_bool"
							},
							{
								"astId": 733,
								"contract": "Ethereum/Presale.sol:Presale",
								"label": "amountTokenForSale",
								"offset": 0,
								"slot": "11",
								"type": "t_uint256"
							}
						],
						"numberOfBytes": "384"
					},
					"t_struct(Set)1194_storage": {
						"encoding": "inplace",
						"label": "struct EnumerableSet.Set",
						"members": [
							{
								"astId": 1189,
								"contract": "Ethereum/Presale.sol:Presale",
								"label": "_values",
								"offset": 0,
								"slot": "0",
								"type": "t_array(t_bytes32)dyn_storage"
							},
							{
								"astId": 1193,
								"contract": "Ethereum/Presale.sol:Presale",
								"label": "_indexes",
								"offset": 0,
								"slot": "1",
								"type": "t_mapping(t_bytes32,t_uint256)"
							}
						],
						"numberOfBytes": "64"
					},
					"t_uint256": {
						"encoding": "inplace",
						"label": "uint256",
						"numberOfBytes": "32"
					}
				}
			},
			"userdoc": {
				"kind": "user",
				"methods": {},
				"version": 1
			}
		}
	}
}