{
	"Ethereum/Presale.sol": {
		"Presale": {
			"abi": [
				{
					"inputs": [
						{
							"internalType": "address",
							"name": "token",
							"type": "address"
						},
						{
							"internalType": "address",
							"name": "to",
							"type": "address"
						},
						{
							"internalType": "uint256",
							"name": "value",
							"type": "uint256"
						}
					],
					"name": "depodit",
					"outputs": [],
					"stateMutability": "payable",
					"type": "function"
				},
				{
					"inputs": [
						{
							"internalType": "uint256",
							"name": "amount",
							"type": "uint256"
						}
					],
					"name": "transferETH",
					"outputs": [],
					"stateMutability": "payable",
					"type": "function"
				}
			],
			"devdoc": {
				"kind": "dev",
				"methods": {},
				"version": 1
			},
			"evm": {
				"assembly": "    /* \"Ethereum/Presale.sol\":232:3229  contract Presale is ReentrancyGuard{\r... */\n  mstore(0x40, 0x80)\n  callvalue\n  dup1\n  iszero\n  tag_1\n  jumpi\n  0x00\n  dup1\n  revert\ntag_1:\n  pop\n    /* \"Utils/ReentrancyGuard.sol\":1734:1735  1 */\n  0x01\n    /* \"Utils/ReentrancyGuard.sol\":1845:1852  _status */\n  0x00\n    /* \"Utils/ReentrancyGuard.sol\":1845:1867  _status = _NOT_ENTERED */\n  dup2\n  swap1\n  sstore\n  pop\n    /* \"Ethereum/Presale.sol\":232:3229  contract Presale is ReentrancyGuard{\r... */\n  dataSize(sub_0)\n  dup1\n  dataOffset(sub_0)\n  0x00\n  codecopy\n  0x00\n  return\nstop\n\nsub_0: assembly {\n        /* \"Ethereum/Presale.sol\":232:3229  contract Presale is ReentrancyGuard{\r... */\n      mstore(0x40, 0x80)\n      jumpi(tag_1, lt(calldatasize, 0x04))\n      shr(0xe0, calldataload(0x00))\n      dup1\n      0x4329db46\n      eq\n      tag_2\n      jumpi\n      dup1\n      0xf00e1f4a\n      eq\n      tag_3\n      jumpi\n    tag_1:\n      0x00\n      dup1\n      revert\n        /* \"Ethereum/Presale.sol\":3103:3224  function transferETH(uint256 amount) external payable {\r... */\n    tag_2:\n      tag_4\n      0x04\n      dup1\n      calldatasize\n      sub\n      dup2\n      add\n      swap1\n      tag_5\n      swap2\n      swap1\n      tag_6\n      jump\t// in\n    tag_5:\n      tag_7\n      jump\t// in\n    tag_4:\n      stop\n        /* \"Ethereum/Presale.sol\":2583:2784  function depodit(\r... */\n    tag_3:\n      tag_8\n      0x04\n      dup1\n      calldatasize\n      sub\n      dup2\n      add\n      swap1\n      tag_9\n      swap2\n      swap1\n      tag_10\n      jump\t// in\n    tag_9:\n      tag_11\n      jump\t// in\n    tag_8:\n      stop\n        /* \"Ethereum/Presale.sol\":3103:3224  function transferETH(uint256 amount) external payable {\r... */\n    tag_7:\n        /* \"Ethereum/Presale.sol\":3176:3186  msg.sender */\n      caller\n        /* \"Ethereum/Presale.sol\":3168:3196  payable(msg.sender).transfer */\n      0xffffffffffffffffffffffffffffffffffffffff\n      and\n        /* \"Ethereum/Presale.sol\":3168:3216  payable(msg.sender).transfer(msg.value - amount) */\n      0x08fc\n        /* \"Ethereum/Presale.sol\":3209:3215  amount */\n      dup3\n        /* \"Ethereum/Presale.sol\":3197:3206  msg.value */\n      callvalue\n        /* \"Ethereum/Presale.sol\":3197:3215  msg.value - amount */\n      tag_13\n      swap2\n      swap1\n      tag_14\n      jump\t// in\n    tag_13:\n        /* \"Ethereum/Presale.sol\":3168:3216  payable(msg.sender).transfer(msg.value - amount) */\n      swap1\n      dup2\n      iszero\n      mul\n      swap1\n      mload(0x40)\n      0x00\n      mload(0x40)\n      dup1\n      dup4\n      sub\n      dup2\n      dup6\n      dup9\n      dup9\n      call\n      swap4\n      pop\n      pop\n      pop\n      pop\n      iszero\n      dup1\n      iszero\n      tag_16\n      jumpi\n      returndatasize\n      0x00\n      dup1\n      returndatacopy\n      revert(0x00, returndatasize)\n    tag_16:\n      pop\n        /* \"Ethereum/Presale.sol\":3103:3224  function transferETH(uint256 amount) external payable {\r... */\n      pop\n      jump\t// out\n        /* \"Ethereum/Presale.sol\":2583:2784  function depodit(\r... */\n    tag_11:\n        /* \"Utils/ReentrancyGuard.sol\":1778:1779  2 */\n      0x02\n        /* \"Utils/ReentrancyGuard.sol\":2376:2383  _status */\n      sload(0x00)\n        /* \"Utils/ReentrancyGuard.sol\":2376:2395  _status != _ENTERED */\n      eq\n      iszero\n        /* \"Utils/ReentrancyGuard.sol\":2368:2431  require(_status != _ENTERED, \"ReentrancyGuard: reentrant call\") */\n      tag_18\n      jumpi\n      mload(0x40)\n      0x08c379a000000000000000000000000000000000000000000000000000000000\n      dup2\n      mstore\n      0x04\n      add\n      tag_19\n      swap1\n      tag_20\n      jump\t// in\n    tag_19:\n      mload(0x40)\n      dup1\n      swap2\n      sub\n      swap1\n      revert\n    tag_18:\n        /* \"Utils/ReentrancyGuard.sol\":1778:1779  2 */\n      0x02\n        /* \"Utils/ReentrancyGuard.sol\":2509:2516  _status */\n      0x00\n        /* \"Utils/ReentrancyGuard.sol\":2509:2527  _status = _ENTERED */\n      dup2\n      swap1\n      sstore\n      pop\n        /* \"Ethereum/Presale.sol\":2723:2776  TransferHelper.safeTransfer(token, msg.sender, value) */\n      tag_22\n        /* \"Ethereum/Presale.sol\":2751:2756  token */\n      dup4\n        /* \"Ethereum/Presale.sol\":2758:2768  msg.sender */\n      caller\n        /* \"Ethereum/Presale.sol\":2770:2775  value */\n      dup4\n        /* \"Ethereum/Presale.sol\":2723:2750  TransferHelper.safeTransfer */\n      tag_23\n        /* \"Ethereum/Presale.sol\":2723:2776  TransferHelper.safeTransfer(token, msg.sender, value) */\n      jump\t// in\n    tag_22:\n        /* \"Utils/ReentrancyGuard.sol\":1734:1735  1 */\n      0x01\n        /* \"Utils/ReentrancyGuard.sol\":2688:2695  _status */\n      0x00\n        /* \"Utils/ReentrancyGuard.sol\":2688:2710  _status = _NOT_ENTERED */\n      dup2\n      swap1\n      sstore\n      pop\n        /* \"Ethereum/Presale.sol\":2583:2784  function depodit(\r... */\n      pop\n      pop\n      pop\n      jump\t// out\n        /* \"Utils/TransferHelper.sol\":695:1144  function safeTransfer(\r... */\n    tag_23:\n        /* \"Utils/TransferHelper.sol\":881:893  bool success */\n      0x00\n        /* \"Utils/TransferHelper.sol\":895:912  bytes memory data */\n      dup1\n        /* \"Utils/TransferHelper.sol\":916:921  token */\n      dup5\n        /* \"Utils/TransferHelper.sol\":916:926  token.call */\n      0xffffffffffffffffffffffffffffffffffffffff\n      and\n        /* \"Utils/TransferHelper.sol\":950:960  0xa9059cbb */\n      0xa9059cbb\n        /* \"Utils/TransferHelper.sol\":962:964  to */\n      dup6\n        /* \"Utils/TransferHelper.sol\":966:971  value */\n      dup6\n        /* \"Utils/TransferHelper.sol\":927:972  abi.encodeWithSelector(0xa9059cbb, to, value) */\n      add(0x24, mload(0x40))\n      tag_25\n      swap3\n      swap2\n      swap1\n      tag_26\n      jump\t// in\n    tag_25:\n      mload(0x40)\n      0x20\n      dup2\n      dup4\n      sub\n      sub\n      dup2\n      mstore\n      swap1\n      0x40\n      mstore\n      swap1\n      0xe0\n      shl\n      0x20\n      dup3\n      add\n      dup1\n      mload\n      0xffffffffffffffffffffffffffffffffffffffffffffffffffffffff\n      dup4\n      dup2\n      dup4\n      and\n      or\n      dup4\n      mstore\n      pop\n      pop\n      pop\n      pop\n        /* \"Utils/TransferHelper.sol\":916:973  token.call(abi.encodeWithSelector(0xa9059cbb, to, value)) */\n      mload(0x40)\n      tag_27\n      swap2\n      swap1\n      tag_28\n      jump\t// in\n    tag_27:\n      0x00\n      mload(0x40)\n      dup1\n      dup4\n      sub\n      dup2\n      0x00\n      dup7\n      gas\n      call\n      swap2\n      pop\n      pop\n      returndatasize\n      dup1\n      0x00\n      dup2\n      eq\n      tag_31\n      jumpi\n      mload(0x40)\n      swap2\n      pop\n      and(add(returndatasize, 0x3f), not(0x1f))\n      dup3\n      add\n      0x40\n      mstore\n      returndatasize\n      dup3\n      mstore\n      returndatasize\n      0x00\n      0x20\n      dup5\n      add\n      returndatacopy\n      jump(tag_30)\n    tag_31:\n      0x60\n      swap2\n      pop\n    tag_30:\n      pop\n        /* \"Utils/TransferHelper.sol\":880:973  (bool success, bytes memory data) = token.call(abi.encodeWithSelector(0xa9059cbb, to, value)) */\n      swap2\n      pop\n      swap2\n      pop\n        /* \"Utils/TransferHelper.sol\":1006:1013  success */\n      dup2\n        /* \"Utils/TransferHelper.sol\":1006:1063  success && (data.length == 0 || abi.decode(data, (bool))) */\n      dup1\n      iszero\n      tag_32\n      jumpi\n      pop\n        /* \"Utils/TransferHelper.sol\":1033:1034  0 */\n      0x00\n        /* \"Utils/TransferHelper.sol\":1018:1022  data */\n      dup2\n        /* \"Utils/TransferHelper.sol\":1018:1029  data.length */\n      mload\n        /* \"Utils/TransferHelper.sol\":1018:1034  data.length == 0 */\n      eq\n        /* \"Utils/TransferHelper.sol\":1018:1062  data.length == 0 || abi.decode(data, (bool)) */\n      dup1\n      tag_33\n      jumpi\n      pop\n        /* \"Utils/TransferHelper.sol\":1049:1053  data */\n      dup1\n        /* \"Utils/TransferHelper.sol\":1038:1062  abi.decode(data, (bool)) */\n      dup1\n      0x20\n      add\n      swap1\n      mload\n      dup2\n      add\n      swap1\n      tag_34\n      swap2\n      swap1\n      tag_35\n      jump\t// in\n    tag_34:\n        /* \"Utils/TransferHelper.sol\":1018:1062  data.length == 0 || abi.decode(data, (bool)) */\n    tag_33:\n        /* \"Utils/TransferHelper.sol\":1006:1063  success && (data.length == 0 || abi.decode(data, (bool))) */\n    tag_32:\n        /* \"Utils/TransferHelper.sol\":984:1136  require(\r... */\n      tag_36\n      jumpi\n      mload(0x40)\n      0x08c379a000000000000000000000000000000000000000000000000000000000\n      dup2\n      mstore\n      0x04\n      add\n      tag_37\n      swap1\n      tag_38\n      jump\t// in\n    tag_37:\n      mload(0x40)\n      dup1\n      swap2\n      sub\n      swap1\n      revert\n    tag_36:\n        /* \"Utils/TransferHelper.sol\":695:1144  function safeTransfer(\r... */\n      pop\n      pop\n      pop\n      pop\n      pop\n      jump\t// out\n        /* \"#utility.yul\":7:146   */\n    tag_40:\n        /* \"#utility.yul\":53:58   */\n      0x00\n        /* \"#utility.yul\":91:97   */\n      dup2\n        /* \"#utility.yul\":78:98   */\n      calldataload\n        /* \"#utility.yul\":69:98   */\n      swap1\n      pop\n        /* \"#utility.yul\":107:140   */\n      tag_42\n        /* \"#utility.yul\":134:139   */\n      dup2\n        /* \"#utility.yul\":107:140   */\n      tag_43\n      jump\t// in\n    tag_42:\n        /* \"#utility.yul\":59:146   */\n      swap3\n      swap2\n      pop\n      pop\n      jump\t// out\n        /* \"#utility.yul\":152:289   */\n    tag_44:\n        /* \"#utility.yul\":206:211   */\n      0x00\n        /* \"#utility.yul\":237:243   */\n      dup2\n        /* \"#utility.yul\":231:244   */\n      mload\n        /* \"#utility.yul\":222:244   */\n      swap1\n      pop\n        /* \"#utility.yul\":253:283   */\n      tag_46\n        /* \"#utility.yul\":277:282   */\n      dup2\n        /* \"#utility.yul\":253:283   */\n      tag_47\n      jump\t// in\n    tag_46:\n        /* \"#utility.yul\":212:289   */\n      swap3\n      swap2\n      pop\n      pop\n      jump\t// out\n        /* \"#utility.yul\":295:434   */\n    tag_48:\n        /* \"#utility.yul\":341:346   */\n      0x00\n        /* \"#utility.yul\":379:385   */\n      dup2\n        /* \"#utility.yul\":366:386   */\n      calldataload\n        /* \"#utility.yul\":357:386   */\n      swap1\n      pop\n        /* \"#utility.yul\":395:428   */\n      tag_50\n        /* \"#utility.yul\":422:427   */\n      dup2\n        /* \"#utility.yul\":395:428   */\n      tag_51\n      jump\t// in\n    tag_50:\n        /* \"#utility.yul\":347:434   */\n      swap3\n      swap2\n      pop\n      pop\n      jump\t// out\n        /* \"#utility.yul\":440:992   */\n    tag_10:\n        /* \"#utility.yul\":517:523   */\n      0x00\n        /* \"#utility.yul\":525:531   */\n      dup1\n        /* \"#utility.yul\":533:539   */\n      0x00\n        /* \"#utility.yul\":582:584   */\n      0x60\n        /* \"#utility.yul\":570:579   */\n      dup5\n        /* \"#utility.yul\":561:568   */\n      dup7\n        /* \"#utility.yul\":557:580   */\n      sub\n        /* \"#utility.yul\":553:585   */\n      slt\n        /* \"#utility.yul\":550:552   */\n      iszero\n      tag_53\n      jumpi\n        /* \"#utility.yul\":598:599   */\n      0x00\n        /* \"#utility.yul\":595:596   */\n      dup1\n        /* \"#utility.yul\":588:600   */\n      revert\n        /* \"#utility.yul\":550:552   */\n    tag_53:\n        /* \"#utility.yul\":641:642   */\n      0x00\n        /* \"#utility.yul\":666:719   */\n      tag_54\n        /* \"#utility.yul\":711:718   */\n      dup7\n        /* \"#utility.yul\":702:708   */\n      dup3\n        /* \"#utility.yul\":691:700   */\n      dup8\n        /* \"#utility.yul\":687:709   */\n      add\n        /* \"#utility.yul\":666:719   */\n      tag_40\n      jump\t// in\n    tag_54:\n        /* \"#utility.yul\":656:719   */\n      swap4\n      pop\n        /* \"#utility.yul\":612:729   */\n      pop\n        /* \"#utility.yul\":768:770   */\n      0x20\n        /* \"#utility.yul\":794:847   */\n      tag_55\n        /* \"#utility.yul\":839:846   */\n      dup7\n        /* \"#utility.yul\":830:836   */\n      dup3\n        /* \"#utility.yul\":819:828   */\n      dup8\n        /* \"#utility.yul\":815:837   */\n      add\n        /* \"#utility.yul\":794:847   */\n      tag_40\n      jump\t// in\n    tag_55:\n        /* \"#utility.yul\":784:847   */\n      swap3\n      pop\n        /* \"#utility.yul\":739:857   */\n      pop\n        /* \"#utility.yul\":896:898   */\n      0x40\n        /* \"#utility.yul\":922:975   */\n      tag_56\n        /* \"#utility.yul\":967:974   */\n      dup7\n        /* \"#utility.yul\":958:964   */\n      dup3\n        /* \"#utility.yul\":947:956   */\n      dup8\n        /* \"#utility.yul\":943:965   */\n      add\n        /* \"#utility.yul\":922:975   */\n      tag_48\n      jump\t// in\n    tag_56:\n        /* \"#utility.yul\":912:975   */\n      swap2\n      pop\n        /* \"#utility.yul\":867:985   */\n      pop\n        /* \"#utility.yul\":540:992   */\n      swap3\n      pop\n      swap3\n      pop\n      swap3\n      jump\t// out\n        /* \"#utility.yul\":998:1276   */\n    tag_35:\n        /* \"#utility.yul\":1065:1071   */\n      0x00\n        /* \"#utility.yul\":1114:1116   */\n      0x20\n        /* \"#utility.yul\":1102:1111   */\n      dup3\n        /* \"#utility.yul\":1093:1100   */\n      dup5\n        /* \"#utility.yul\":1089:1112   */\n      sub\n        /* \"#utility.yul\":1085:1117   */\n      slt\n        /* \"#utility.yul\":1082:1084   */\n      iszero\n      tag_58\n      jumpi\n        /* \"#utility.yul\":1130:1131   */\n      0x00\n        /* \"#utility.yul\":1127:1128   */\n      dup1\n        /* \"#utility.yul\":1120:1132   */\n      revert\n        /* \"#utility.yul\":1082:1084   */\n    tag_58:\n        /* \"#utility.yul\":1173:1174   */\n      0x00\n        /* \"#utility.yul\":1198:1259   */\n      tag_59\n        /* \"#utility.yul\":1251:1258   */\n      dup5\n        /* \"#utility.yul\":1242:1248   */\n      dup3\n        /* \"#utility.yul\":1231:1240   */\n      dup6\n        /* \"#utility.yul\":1227:1249   */\n      add\n        /* \"#utility.yul\":1198:1259   */\n      tag_44\n      jump\t// in\n    tag_59:\n        /* \"#utility.yul\":1188:1259   */\n      swap2\n      pop\n        /* \"#utility.yul\":1144:1269   */\n      pop\n        /* \"#utility.yul\":1072:1276   */\n      swap3\n      swap2\n      pop\n      pop\n      jump\t// out\n        /* \"#utility.yul\":1282:1544   */\n    tag_6:\n        /* \"#utility.yul\":1341:1347   */\n      0x00\n        /* \"#utility.yul\":1390:1392   */\n      0x20\n        /* \"#utility.yul\":1378:1387   */\n      dup3\n        /* \"#utility.yul\":1369:1376   */\n      dup5\n        /* \"#utility.yul\":1365:1388   */\n      sub\n        /* \"#utility.yul\":1361:1393   */\n      slt\n        /* \"#utility.yul\":1358:1360   */\n      iszero\n      tag_61\n      jumpi\n        /* \"#utility.yul\":1406:1407   */\n      0x00\n        /* \"#utility.yul\":1403:1404   */\n      dup1\n        /* \"#utility.yul\":1396:1408   */\n      revert\n        /* \"#utility.yul\":1358:1360   */\n    tag_61:\n        /* \"#utility.yul\":1449:1450   */\n      0x00\n        /* \"#utility.yul\":1474:1527   */\n      tag_62\n        /* \"#utility.yul\":1519:1526   */\n      dup5\n        /* \"#utility.yul\":1510:1516   */\n      dup3\n        /* \"#utility.yul\":1499:1508   */\n      dup6\n        /* \"#utility.yul\":1495:1517   */\n      add\n        /* \"#utility.yul\":1474:1527   */\n      tag_48\n      jump\t// in\n    tag_62:\n        /* \"#utility.yul\":1464:1527   */\n      swap2\n      pop\n        /* \"#utility.yul\":1420:1537   */\n      pop\n        /* \"#utility.yul\":1348:1544   */\n      swap3\n      swap2\n      pop\n      pop\n      jump\t// out\n        /* \"#utility.yul\":1550:1668   */\n    tag_63:\n        /* \"#utility.yul\":1637:1661   */\n      tag_65\n        /* \"#utility.yul\":1655:1660   */\n      dup2\n        /* \"#utility.yul\":1637:1661   */\n      tag_66\n      jump\t// in\n    tag_65:\n        /* \"#utility.yul\":1632:1635   */\n      dup3\n        /* \"#utility.yul\":1625:1662   */\n      mstore\n        /* \"#utility.yul\":1615:1668   */\n      pop\n      pop\n      jump\t// out\n        /* \"#utility.yul\":1674:2047   */\n    tag_67:\n        /* \"#utility.yul\":1778:1781   */\n      0x00\n        /* \"#utility.yul\":1806:1844   */\n      tag_69\n        /* \"#utility.yul\":1838:1843   */\n      dup3\n        /* \"#utility.yul\":1806:1844   */\n      tag_70\n      jump\t// in\n    tag_69:\n        /* \"#utility.yul\":1860:1948   */\n      tag_71\n        /* \"#utility.yul\":1941:1947   */\n      dup2\n        /* \"#utility.yul\":1936:1939   */\n      dup6\n        /* \"#utility.yul\":1860:1948   */\n      tag_72\n      jump\t// in\n    tag_71:\n        /* \"#utility.yul\":1853:1948   */\n      swap4\n      pop\n        /* \"#utility.yul\":1957:2009   */\n      tag_73\n        /* \"#utility.yul\":2002:2008   */\n      dup2\n        /* \"#utility.yul\":1997:2000   */\n      dup6\n        /* \"#utility.yul\":1990:1994   */\n      0x20\n        /* \"#utility.yul\":1983:1988   */\n      dup7\n        /* \"#utility.yul\":1979:1995   */\n      add\n        /* \"#utility.yul\":1957:2009   */\n      tag_74\n      jump\t// in\n    tag_73:\n        /* \"#utility.yul\":2034:2040   */\n      dup1\n        /* \"#utility.yul\":2029:2032   */\n      dup5\n        /* \"#utility.yul\":2025:2041   */\n      add\n        /* \"#utility.yul\":2018:2041   */\n      swap2\n      pop\n        /* \"#utility.yul\":1782:2047   */\n      pop\n      swap3\n      swap2\n      pop\n      pop\n      jump\t// out\n        /* \"#utility.yul\":2053:2419   */\n    tag_75:\n        /* \"#utility.yul\":2195:2198   */\n      0x00\n        /* \"#utility.yul\":2216:2283   */\n      tag_77\n        /* \"#utility.yul\":2280:2282   */\n      0x2d\n        /* \"#utility.yul\":2275:2278   */\n      dup4\n        /* \"#utility.yul\":2216:2283   */\n      tag_78\n      jump\t// in\n    tag_77:\n        /* \"#utility.yul\":2209:2283   */\n      swap2\n      pop\n        /* \"#utility.yul\":2292:2385   */\n      tag_79\n        /* \"#utility.yul\":2381:2384   */\n      dup3\n        /* \"#utility.yul\":2292:2385   */\n      tag_80\n      jump\t// in\n    tag_79:\n        /* \"#utility.yul\":2410:2412   */\n      0x40\n        /* \"#utility.yul\":2405:2408   */\n      dup3\n        /* \"#utility.yul\":2401:2413   */\n      add\n        /* \"#utility.yul\":2394:2413   */\n      swap1\n      pop\n        /* \"#utility.yul\":2199:2419   */\n      swap2\n      swap1\n      pop\n      jump\t// out\n        /* \"#utility.yul\":2425:2791   */\n    tag_81:\n        /* \"#utility.yul\":2567:2570   */\n      0x00\n        /* \"#utility.yul\":2588:2655   */\n      tag_83\n        /* \"#utility.yul\":2652:2654   */\n      0x1f\n        /* \"#utility.yul\":2647:2650   */\n      dup4\n        /* \"#utility.yul\":2588:2655   */\n      tag_78\n      jump\t// in\n    tag_83:\n        /* \"#utility.yul\":2581:2655   */\n      swap2\n      pop\n        /* \"#utility.yul\":2664:2757   */\n      tag_84\n        /* \"#utility.yul\":2753:2756   */\n      dup3\n        /* \"#utility.yul\":2664:2757   */\n      tag_85\n      jump\t// in\n    tag_84:\n        /* \"#utility.yul\":2782:2784   */\n      0x20\n        /* \"#utility.yul\":2777:2780   */\n      dup3\n        /* \"#utility.yul\":2773:2785   */\n      add\n        /* \"#utility.yul\":2766:2785   */\n      swap1\n      pop\n        /* \"#utility.yul\":2571:2791   */\n      swap2\n      swap1\n      pop\n      jump\t// out\n        /* \"#utility.yul\":2797:2915   */\n    tag_86:\n        /* \"#utility.yul\":2884:2908   */\n      tag_88\n        /* \"#utility.yul\":2902:2907   */\n      dup2\n        /* \"#utility.yul\":2884:2908   */\n      tag_89\n      jump\t// in\n    tag_88:\n        /* \"#utility.yul\":2879:2882   */\n      dup3\n        /* \"#utility.yul\":2872:2909   */\n      mstore\n        /* \"#utility.yul\":2862:2915   */\n      pop\n      pop\n      jump\t// out\n        /* \"#utility.yul\":2921:3192   */\n    tag_28:\n        /* \"#utility.yul\":3051:3054   */\n      0x00\n        /* \"#utility.yul\":3073:3166   */\n      tag_91\n        /* \"#utility.yul\":3162:3165   */\n      dup3\n        /* \"#utility.yul\":3153:3159   */\n      dup5\n        /* \"#utility.yul\":3073:3166   */\n      tag_67\n      jump\t// in\n    tag_91:\n        /* \"#utility.yul\":3066:3166   */\n      swap2\n      pop\n        /* \"#utility.yul\":3183:3186   */\n      dup2\n        /* \"#utility.yul\":3176:3186   */\n      swap1\n      pop\n        /* \"#utility.yul\":3055:3192   */\n      swap3\n      swap2\n      pop\n      pop\n      jump\t// out\n        /* \"#utility.yul\":3198:3530   */\n    tag_26:\n        /* \"#utility.yul\":3319:3323   */\n      0x00\n        /* \"#utility.yul\":3357:3359   */\n      0x40\n        /* \"#utility.yul\":3346:3355   */\n      dup3\n        /* \"#utility.yul\":3342:3360   */\n      add\n        /* \"#utility.yul\":3334:3360   */\n      swap1\n      pop\n        /* \"#utility.yul\":3370:3441   */\n      tag_93\n        /* \"#utility.yul\":3438:3439   */\n      0x00\n        /* \"#utility.yul\":3427:3436   */\n      dup4\n        /* \"#utility.yul\":3423:3440   */\n      add\n        /* \"#utility.yul\":3414:3420   */\n      dup6\n        /* \"#utility.yul\":3370:3441   */\n      tag_63\n      jump\t// in\n    tag_93:\n        /* \"#utility.yul\":3451:3523   */\n      tag_94\n        /* \"#utility.yul\":3519:3521   */\n      0x20\n        /* \"#utility.yul\":3508:3517   */\n      dup4\n        /* \"#utility.yul\":3504:3522   */\n      add\n        /* \"#utility.yul\":3495:3501   */\n      dup5\n        /* \"#utility.yul\":3451:3523   */\n      tag_86\n      jump\t// in\n    tag_94:\n        /* \"#utility.yul\":3324:3530   */\n      swap4\n      swap3\n      pop\n      pop\n      pop\n      jump\t// out\n        /* \"#utility.yul\":3536:3955   */\n    tag_38:\n        /* \"#utility.yul\":3702:3706   */\n      0x00\n        /* \"#utility.yul\":3740:3742   */\n      0x20\n        /* \"#utility.yul\":3729:3738   */\n      dup3\n        /* \"#utility.yul\":3725:3743   */\n      add\n        /* \"#utility.yul\":3717:3743   */\n      swap1\n      pop\n        /* \"#utility.yul\":3789:3798   */\n      dup2\n        /* \"#utility.yul\":3783:3787   */\n      dup2\n        /* \"#utility.yul\":3779:3799   */\n      sub\n        /* \"#utility.yul\":3775:3776   */\n      0x00\n        /* \"#utility.yul\":3764:3773   */\n      dup4\n        /* \"#utility.yul\":3760:3777   */\n      add\n        /* \"#utility.yul\":3753:3800   */\n      mstore\n        /* \"#utility.yul\":3817:3948   */\n      tag_96\n        /* \"#utility.yul\":3943:3947   */\n      dup2\n        /* \"#utility.yul\":3817:3948   */\n      tag_75\n      jump\t// in\n    tag_96:\n        /* \"#utility.yul\":3809:3948   */\n      swap1\n      pop\n        /* \"#utility.yul\":3707:3955   */\n      swap2\n      swap1\n      pop\n      jump\t// out\n        /* \"#utility.yul\":3961:4380   */\n    tag_20:\n        /* \"#utility.yul\":4127:4131   */\n      0x00\n        /* \"#utility.yul\":4165:4167   */\n      0x20\n        /* \"#utility.yul\":4154:4163   */\n      dup3\n        /* \"#utility.yul\":4150:4168   */\n      add\n        /* \"#utility.yul\":4142:4168   */\n      swap1\n      pop\n        /* \"#utility.yul\":4214:4223   */\n      dup2\n        /* \"#utility.yul\":4208:4212   */\n      dup2\n        /* \"#utility.yul\":4204:4224   */\n      sub\n        /* \"#utility.yul\":4200:4201   */\n      0x00\n        /* \"#utility.yul\":4189:4198   */\n      dup4\n        /* \"#utility.yul\":4185:4202   */\n      add\n        /* \"#utility.yul\":4178:4225   */\n      mstore\n        /* \"#utility.yul\":4242:4373   */\n      tag_98\n        /* \"#utility.yul\":4368:4372   */\n      dup2\n        /* \"#utility.yul\":4242:4373   */\n      tag_81\n      jump\t// in\n    tag_98:\n        /* \"#utility.yul\":4234:4373   */\n      swap1\n      pop\n        /* \"#utility.yul\":4132:4380   */\n      swap2\n      swap1\n      pop\n      jump\t// out\n        /* \"#utility.yul\":4386:4484   */\n    tag_70:\n        /* \"#utility.yul\":4437:4443   */\n      0x00\n        /* \"#utility.yul\":4471:4476   */\n      dup2\n        /* \"#utility.yul\":4465:4477   */\n      mload\n        /* \"#utility.yul\":4455:4477   */\n      swap1\n      pop\n        /* \"#utility.yul\":4444:4484   */\n      swap2\n      swap1\n      pop\n      jump\t// out\n        /* \"#utility.yul\":4490:4637   */\n    tag_72:\n        /* \"#utility.yul\":4591:4602   */\n      0x00\n        /* \"#utility.yul\":4628:4631   */\n      dup2\n        /* \"#utility.yul\":4613:4631   */\n      swap1\n      pop\n        /* \"#utility.yul\":4603:4637   */\n      swap3\n      swap2\n      pop\n      pop\n      jump\t// out\n        /* \"#utility.yul\":4643:4812   */\n    tag_78:\n        /* \"#utility.yul\":4727:4738   */\n      0x00\n        /* \"#utility.yul\":4761:4767   */\n      dup3\n        /* \"#utility.yul\":4756:4759   */\n      dup3\n        /* \"#utility.yul\":4749:4768   */\n      mstore\n        /* \"#utility.yul\":4801:4805   */\n      0x20\n        /* \"#utility.yul\":4796:4799   */\n      dup3\n        /* \"#utility.yul\":4792:4806   */\n      add\n        /* \"#utility.yul\":4777:4806   */\n      swap1\n      pop\n        /* \"#utility.yul\":4739:4812   */\n      swap3\n      swap2\n      pop\n      pop\n      jump\t// out\n        /* \"#utility.yul\":4818:5009   */\n    tag_14:\n        /* \"#utility.yul\":4858:4862   */\n      0x00\n        /* \"#utility.yul\":4878:4898   */\n      tag_103\n        /* \"#utility.yul\":4896:4897   */\n      dup3\n        /* \"#utility.yul\":4878:4898   */\n      tag_89\n      jump\t// in\n    tag_103:\n        /* \"#utility.yul\":4873:4898   */\n      swap2\n      pop\n        /* \"#utility.yul\":4912:4932   */\n      tag_104\n        /* \"#utility.yul\":4930:4931   */\n      dup4\n        /* \"#utility.yul\":4912:4932   */\n      tag_89\n      jump\t// in\n    tag_104:\n        /* \"#utility.yul\":4907:4932   */\n      swap3\n      pop\n        /* \"#utility.yul\":4951:4952   */\n      dup3\n        /* \"#utility.yul\":4948:4949   */\n      dup3\n        /* \"#utility.yul\":4945:4953   */\n      lt\n        /* \"#utility.yul\":4942:4944   */\n      iszero\n      tag_105\n      jumpi\n        /* \"#utility.yul\":4956:4974   */\n      tag_106\n      tag_107\n      jump\t// in\n    tag_106:\n        /* \"#utility.yul\":4942:4944   */\n    tag_105:\n        /* \"#utility.yul\":5001:5002   */\n      dup3\n        /* \"#utility.yul\":4998:4999   */\n      dup3\n        /* \"#utility.yul\":4994:5003   */\n      sub\n        /* \"#utility.yul\":4986:5003   */\n      swap1\n      pop\n        /* \"#utility.yul\":4863:5009   */\n      swap3\n      swap2\n      pop\n      pop\n      jump\t// out\n        /* \"#utility.yul\":5015:5111   */\n    tag_66:\n        /* \"#utility.yul\":5052:5059   */\n      0x00\n        /* \"#utility.yul\":5081:5105   */\n      tag_109\n        /* \"#utility.yul\":5099:5104   */\n      dup3\n        /* \"#utility.yul\":5081:5105   */\n      tag_110\n      jump\t// in\n    tag_109:\n        /* \"#utility.yul\":5070:5105   */\n      swap1\n      pop\n        /* \"#utility.yul\":5060:5111   */\n      swap2\n      swap1\n      pop\n      jump\t// out\n        /* \"#utility.yul\":5117:5207   */\n    tag_111:\n        /* \"#utility.yul\":5151:5158   */\n      0x00\n        /* \"#utility.yul\":5194:5199   */\n      dup2\n        /* \"#utility.yul\":5187:5200   */\n      iszero\n        /* \"#utility.yul\":5180:5201   */\n      iszero\n        /* \"#utility.yul\":5169:5201   */\n      swap1\n      pop\n        /* \"#utility.yul\":5159:5207   */\n      swap2\n      swap1\n      pop\n      jump\t// out\n        /* \"#utility.yul\":5213:5339   */\n    tag_110:\n        /* \"#utility.yul\":5250:5257   */\n      0x00\n        /* \"#utility.yul\":5290:5332   */\n      0xffffffffffffffffffffffffffffffffffffffff\n        /* \"#utility.yul\":5283:5288   */\n      dup3\n        /* \"#utility.yul\":5279:5333   */\n      and\n        /* \"#utility.yul\":5268:5333   */\n      swap1\n      pop\n        /* \"#utility.yul\":5258:5339   */\n      swap2\n      swap1\n      pop\n      jump\t// out\n        /* \"#utility.yul\":5345:5422   */\n    tag_89:\n        /* \"#utility.yul\":5382:5389   */\n      0x00\n        /* \"#utility.yul\":5411:5416   */\n      dup2\n        /* \"#utility.yul\":5400:5416   */\n      swap1\n      pop\n        /* \"#utility.yul\":5390:5422   */\n      swap2\n      swap1\n      pop\n      jump\t// out\n        /* \"#utility.yul\":5428:5735   */\n    tag_74:\n        /* \"#utility.yul\":5496:5497   */\n      0x00\n        /* \"#utility.yul\":5506:5619   */\n    tag_116:\n        /* \"#utility.yul\":5520:5526   */\n      dup4\n        /* \"#utility.yul\":5517:5518   */\n      dup2\n        /* \"#utility.yul\":5514:5527   */\n      lt\n        /* \"#utility.yul\":5506:5619   */\n      iszero\n      tag_118\n      jumpi\n        /* \"#utility.yul\":5605:5606   */\n      dup1\n        /* \"#utility.yul\":5600:5603   */\n      dup3\n        /* \"#utility.yul\":5596:5607   */\n      add\n        /* \"#utility.yul\":5590:5608   */\n      mload\n        /* \"#utility.yul\":5586:5587   */\n      dup2\n        /* \"#utility.yul\":5581:5584   */\n      dup5\n        /* \"#utility.yul\":5577:5588   */\n      add\n        /* \"#utility.yul\":5570:5609   */\n      mstore\n        /* \"#utility.yul\":5542:5544   */\n      0x20\n        /* \"#utility.yul\":5539:5540   */\n      dup2\n        /* \"#utility.yul\":5535:5545   */\n      add\n        /* \"#utility.yul\":5530:5545   */\n      swap1\n      pop\n        /* \"#utility.yul\":5506:5619   */\n      jump(tag_116)\n    tag_118:\n        /* \"#utility.yul\":5637:5643   */\n      dup4\n        /* \"#utility.yul\":5634:5635   */\n      dup2\n        /* \"#utility.yul\":5631:5644   */\n      gt\n        /* \"#utility.yul\":5628:5630   */\n      iszero\n      tag_119\n      jumpi\n        /* \"#utility.yul\":5717:5718   */\n      0x00\n        /* \"#utility.yul\":5708:5714   */\n      dup5\n        /* \"#utility.yul\":5703:5706   */\n      dup5\n        /* \"#utility.yul\":5699:5715   */\n      add\n        /* \"#utility.yul\":5692:5719   */\n      mstore\n        /* \"#utility.yul\":5628:5630   */\n    tag_119:\n        /* \"#utility.yul\":5477:5735   */\n      pop\n      pop\n      pop\n      pop\n      jump\t// out\n        /* \"#utility.yul\":5741:5921   */\n    tag_107:\n        /* \"#utility.yul\":5789:5866   */\n      0x4e487b7100000000000000000000000000000000000000000000000000000000\n        /* \"#utility.yul\":5786:5787   */\n      0x00\n        /* \"#utility.yul\":5779:5867   */\n      mstore\n        /* \"#utility.yul\":5886:5890   */\n      0x11\n        /* \"#utility.yul\":5883:5884   */\n      0x04\n        /* \"#utility.yul\":5876:5891   */\n      mstore\n        /* \"#utility.yul\":5910:5914   */\n      0x24\n        /* \"#utility.yul\":5907:5908   */\n      0x00\n        /* \"#utility.yul\":5900:5915   */\n      revert\n        /* \"#utility.yul\":5927:6159   */\n    tag_80:\n        /* \"#utility.yul\":6067:6101   */\n      0x5472616e7366657248656c7065723a3a736166655472616e736665723a207472\n        /* \"#utility.yul\":6063:6064   */\n      0x00\n        /* \"#utility.yul\":6055:6061   */\n      dup3\n        /* \"#utility.yul\":6051:6065   */\n      add\n        /* \"#utility.yul\":6044:6102   */\n      mstore\n        /* \"#utility.yul\":6136:6151   */\n      0x616e73666572206661696c656400000000000000000000000000000000000000\n        /* \"#utility.yul\":6131:6133   */\n      0x20\n        /* \"#utility.yul\":6123:6129   */\n      dup3\n        /* \"#utility.yul\":6119:6134   */\n      add\n        /* \"#utility.yul\":6112:6152   */\n      mstore\n        /* \"#utility.yul\":6033:6159   */\n      pop\n      jump\t// out\n        /* \"#utility.yul\":6165:6346   */\n    tag_85:\n        /* \"#utility.yul\":6305:6338   */\n      0x5265656e7472616e637947756172643a207265656e7472616e742063616c6c00\n        /* \"#utility.yul\":6301:6302   */\n      0x00\n        /* \"#utility.yul\":6293:6299   */\n      dup3\n        /* \"#utility.yul\":6289:6303   */\n      add\n        /* \"#utility.yul\":6282:6339   */\n      mstore\n        /* \"#utility.yul\":6271:6346   */\n      pop\n      jump\t// out\n        /* \"#utility.yul\":6352:6474   */\n    tag_43:\n        /* \"#utility.yul\":6425:6449   */\n      tag_124\n        /* \"#utility.yul\":6443:6448   */\n      dup2\n        /* \"#utility.yul\":6425:6449   */\n      tag_66\n      jump\t// in\n    tag_124:\n        /* \"#utility.yul\":6418:6423   */\n      dup2\n        /* \"#utility.yul\":6415:6450   */\n      eq\n        /* \"#utility.yul\":6405:6407   */\n      tag_125\n      jumpi\n        /* \"#utility.yul\":6464:6465   */\n      0x00\n        /* \"#utility.yul\":6461:6462   */\n      dup1\n        /* \"#utility.yul\":6454:6466   */\n      revert\n        /* \"#utility.yul\":6405:6407   */\n    tag_125:\n        /* \"#utility.yul\":6395:6474   */\n      pop\n      jump\t// out\n        /* \"#utility.yul\":6480:6596   */\n    tag_47:\n        /* \"#utility.yul\":6550:6571   */\n      tag_127\n        /* \"#utility.yul\":6565:6570   */\n      dup2\n        /* \"#utility.yul\":6550:6571   */\n      tag_111\n      jump\t// in\n    tag_127:\n        /* \"#utility.yul\":6543:6548   */\n      dup2\n        /* \"#utility.yul\":6540:6572   */\n      eq\n        /* \"#utility.yul\":6530:6532   */\n      tag_128\n      jumpi\n        /* \"#utility.yul\":6586:6587   */\n      0x00\n        /* \"#utility.yul\":6583:6584   */\n      dup1\n        /* \"#utility.yul\":6576:6588   */\n      revert\n        /* \"#utility.yul\":6530:6532   */\n    tag_128:\n        /* \"#utility.yul\":6520:6596   */\n      pop\n      jump\t// out\n        /* \"#utility.yul\":6602:6724   */\n    tag_51:\n        /* \"#utility.yul\":6675:6699   */\n      tag_130\n        /* \"#utility.yul\":6693:6698   */\n      dup2\n        /* \"#utility.yul\":6675:6699   */\n      tag_89\n      jump\t// in\n    tag_130:\n        /* \"#utility.yul\":6668:6673   */\n      dup2\n        /* \"#utility.yul\":6665:6700   */\n      eq\n        /* \"#utility.yul\":6655:6657   */\n      tag_131\n      jumpi\n        /* \"#utility.yul\":6714:6715   */\n      0x00\n        /* \"#utility.yul\":6711:6712   */\n      dup1\n        /* \"#utility.yul\":6704:6716   */\n      revert\n        /* \"#utility.yul\":6655:6657   */\n    tag_131:\n        /* \"#utility.yul\":6645:6724   */\n      pop\n      jump\t// out\n\n    auxdata: 0xa26469706673582212207372ac4dcbb39ddd17bd84d50825e8b76d6a032675863eabe3cf0f40e2c3048564736f6c63430008040033\n}\n",
				"bytecode": {
					"linkReferences": {},
					"object": "608060405234801561001057600080fd5b506001600081905550610644806100286000396000f3fe6080604052600436106100295760003560e01c80634329db461461002e578063f00e1f4a1461004a575b600080fd5b6100486004803603810190610043919061030e565b610066565b005b610064600480360381019061005f9190610296565b6100bb565b005b3373ffffffffffffffffffffffffffffffffffffffff166108fc823461008c9190610473565b9081150290604051600060405180830381858888f193505050501580156100b7573d6000803e3d6000fd5b5050565b60026000541415610101576040517f08c379a00000000000000000000000000000000000000000000000000000000081526004016100f89061042c565b60405180910390fd5b6002600081905550610114833383610121565b6001600081905550505050565b6000808473ffffffffffffffffffffffffffffffffffffffff1663a9059cbb85856040516024016101539291906103e3565b6040516020818303038152906040529060e01b6020820180517bffffffffffffffffffffffffffffffffffffffffffffffffffffffff83818316178352505050506040516101a191906103cc565b6000604051808303816000865af19150503d80600081146101de576040519150601f19603f3d011682016040523d82523d6000602084013e6101e3565b606091505b5091509150818015610211575060008151148061021057508080602001905181019061020f91906102e5565b5b5b610250576040517f08c379a00000000000000000000000000000000000000000000000000000000081526004016102479061040c565b60405180910390fd5b5050505050565b600081359050610266816105c9565b92915050565b60008151905061027b816105e0565b92915050565b600081359050610290816105f7565b92915050565b6000806000606084860312156102ab57600080fd5b60006102b986828701610257565b93505060206102ca86828701610257565b92505060406102db86828701610281565b9150509250925092565b6000602082840312156102f757600080fd5b60006103058482850161026c565b91505092915050565b60006020828403121561032057600080fd5b600061032e84828501610281565b91505092915050565b610340816104a7565b82525050565b60006103518261044c565b61035b8185610457565b935061036b8185602086016104ef565b80840191505092915050565b6000610384602d83610462565b915061038f82610551565b604082019050919050565b60006103a7601f83610462565b91506103b2826105a0565b602082019050919050565b6103c6816104e5565b82525050565b60006103d88284610346565b915081905092915050565b60006040820190506103f86000830185610337565b61040560208301846103bd565b9392505050565b6000602082019050818103600083015261042581610377565b9050919050565b600060208201905081810360008301526104458161039a565b9050919050565b600081519050919050565b600081905092915050565b600082825260208201905092915050565b600061047e826104e5565b9150610489836104e5565b92508282101561049c5761049b610522565b5b828203905092915050565b60006104b2826104c5565b9050919050565b60008115159050919050565b600073ffffffffffffffffffffffffffffffffffffffff82169050919050565b6000819050919050565b60005b8381101561050d5780820151818401526020810190506104f2565b8381111561051c576000848401525b50505050565b7f4e487b7100000000000000000000000000000000000000000000000000000000600052601160045260246000fd5b7f5472616e7366657248656c7065723a3a736166655472616e736665723a20747260008201527f616e73666572206661696c656400000000000000000000000000000000000000602082015250565b7f5265656e7472616e637947756172643a207265656e7472616e742063616c6c00600082015250565b6105d2816104a7565b81146105dd57600080fd5b50565b6105e9816104b9565b81146105f457600080fd5b50565b610600816104e5565b811461060b57600080fd5b5056fea26469706673582212207372ac4dcbb39ddd17bd84d50825e8b76d6a032675863eabe3cf0f40e2c3048564736f6c63430008040033",
					"opcodes": "PUSH1 0x80 PUSH1 0x40 MSTORE CALLVALUE DUP1 ISZERO PUSH2 0x10 JUMPI PUSH1 0x0 DUP1 REVERT JUMPDEST POP PUSH1 0x1 PUSH1 0x0 DUP2 SWAP1 SSTORE POP PUSH2 0x644 DUP1 PUSH2 0x28 PUSH1 0x0 CODECOPY PUSH1 0x0 RETURN INVALID PUSH1 0x80 PUSH1 0x40 MSTORE PUSH1 0x4 CALLDATASIZE LT PUSH2 0x29 JUMPI PUSH1 0x0 CALLDATALOAD PUSH1 0xE0 SHR DUP1 PUSH4 0x4329DB46 EQ PUSH2 0x2E JUMPI DUP1 PUSH4 0xF00E1F4A EQ PUSH2 0x4A JUMPI JUMPDEST PUSH1 0x0 DUP1 REVERT JUMPDEST PUSH2 0x48 PUSH1 0x4 DUP1 CALLDATASIZE SUB DUP2 ADD SWAP1 PUSH2 0x43 SWAP2 SWAP1 PUSH2 0x30E JUMP JUMPDEST PUSH2 0x66 JUMP JUMPDEST STOP JUMPDEST PUSH2 0x64 PUSH1 0x4 DUP1 CALLDATASIZE SUB DUP2 ADD SWAP1 PUSH2 0x5F SWAP2 SWAP1 PUSH2 0x296 JUMP JUMPDEST PUSH2 0xBB JUMP JUMPDEST STOP JUMPDEST CALLER PUSH20 0xFFFFFFFFFFFFFFFFFFFFFFFFFFFFFFFFFFFFFFFF AND PUSH2 0x8FC DUP3 CALLVALUE PUSH2 0x8C SWAP2 SWAP1 PUSH2 0x473 JUMP JUMPDEST SWAP1 DUP2 ISZERO MUL SWAP1 PUSH1 0x40 MLOAD PUSH1 0x0 PUSH1 0x40 MLOAD DUP1 DUP4 SUB DUP2 DUP6 DUP9 DUP9 CALL SWAP4 POP POP POP POP ISZERO DUP1 ISZERO PUSH2 0xB7 JUMPI RETURNDATASIZE PUSH1 0x0 DUP1 RETURNDATACOPY RETURNDATASIZE PUSH1 0x0 REVERT JUMPDEST POP POP JUMP JUMPDEST PUSH1 0x2 PUSH1 0x0 SLOAD EQ ISZERO PUSH2 0x101 JUMPI PUSH1 0x40 MLOAD PUSH32 0x8C379A000000000000000000000000000000000000000000000000000000000 DUP2 MSTORE PUSH1 0x4 ADD PUSH2 0xF8 SWAP1 PUSH2 0x42C JUMP JUMPDEST PUSH1 0x40 MLOAD DUP1 SWAP2 SUB SWAP1 REVERT JUMPDEST PUSH1 0x2 PUSH1 0x0 DUP2 SWAP1 SSTORE POP PUSH2 0x114 DUP4 CALLER DUP4 PUSH2 0x121 JUMP JUMPDEST PUSH1 0x1 PUSH1 0x0 DUP2 SWAP1 SSTORE POP POP POP POP JUMP JUMPDEST PUSH1 0x0 DUP1 DUP5 PUSH20 0xFFFFFFFFFFFFFFFFFFFFFFFFFFFFFFFFFFFFFFFF AND PUSH4 0xA9059CBB DUP6 DUP6 PUSH1 0x40 MLOAD PUSH1 0x24 ADD PUSH2 0x153 SWAP3 SWAP2 SWAP1 PUSH2 0x3E3 JUMP JUMPDEST PUSH1 0x40 MLOAD PUSH1 0x20 DUP2 DUP4 SUB SUB DUP2 MSTORE SWAP1 PUSH1 0x40 MSTORE SWAP1 PUSH1 0xE0 SHL PUSH1 0x20 DUP3 ADD DUP1 MLOAD PUSH28 0xFFFFFFFFFFFFFFFFFFFFFFFFFFFFFFFFFFFFFFFFFFFFFFFFFFFFFFFF DUP4 DUP2 DUP4 AND OR DUP4 MSTORE POP POP POP POP PUSH1 0x40 MLOAD PUSH2 0x1A1 SWAP2 SWAP1 PUSH2 0x3CC JUMP JUMPDEST PUSH1 0x0 PUSH1 0x40 MLOAD DUP1 DUP4 SUB DUP2 PUSH1 0x0 DUP7 GAS CALL SWAP2 POP POP RETURNDATASIZE DUP1 PUSH1 0x0 DUP2 EQ PUSH2 0x1DE JUMPI PUSH1 0x40 MLOAD SWAP2 POP PUSH1 0x1F NOT PUSH1 0x3F RETURNDATASIZE ADD AND DUP3 ADD PUSH1 0x40 MSTORE RETURNDATASIZE DUP3 MSTORE RETURNDATASIZE PUSH1 0x0 PUSH1 0x20 DUP5 ADD RETURNDATACOPY PUSH2 0x1E3 JUMP JUMPDEST PUSH1 0x60 SWAP2 POP JUMPDEST POP SWAP2 POP SWAP2 POP DUP2 DUP1 ISZERO PUSH2 0x211 JUMPI POP PUSH1 0x0 DUP2 MLOAD EQ DUP1 PUSH2 0x210 JUMPI POP DUP1 DUP1 PUSH1 0x20 ADD SWAP1 MLOAD DUP2 ADD SWAP1 PUSH2 0x20F SWAP2 SWAP1 PUSH2 0x2E5 JUMP JUMPDEST JUMPDEST JUMPDEST PUSH2 0x250 JUMPI PUSH1 0x40 MLOAD PUSH32 0x8C379A000000000000000000000000000000000000000000000000000000000 DUP2 MSTORE PUSH1 0x4 ADD PUSH2 0x247 SWAP1 PUSH2 0x40C JUMP JUMPDEST PUSH1 0x40 MLOAD DUP1 SWAP2 SUB SWAP1 REVERT JUMPDEST POP POP POP POP POP JUMP JUMPDEST PUSH1 0x0 DUP2 CALLDATALOAD SWAP1 POP PUSH2 0x266 DUP2 PUSH2 0x5C9 JUMP JUMPDEST SWAP3 SWAP2 POP POP JUMP JUMPDEST PUSH1 0x0 DUP2 MLOAD SWAP1 POP PUSH2 0x27B DUP2 PUSH2 0x5E0 JUMP JUMPDEST SWAP3 SWAP2 POP POP JUMP JUMPDEST PUSH1 0x0 DUP2 CALLDATALOAD SWAP1 POP PUSH2 0x290 DUP2 PUSH2 0x5F7 JUMP JUMPDEST SWAP3 SWAP2 POP POP JUMP JUMPDEST PUSH1 0x0 DUP1 PUSH1 0x0 PUSH1 0x60 DUP5 DUP7 SUB SLT ISZERO PUSH2 0x2AB JUMPI PUSH1 0x0 DUP1 REVERT JUMPDEST PUSH1 0x0 PUSH2 0x2B9 DUP7 DUP3 DUP8 ADD PUSH2 0x257 JUMP JUMPDEST SWAP4 POP POP PUSH1 0x20 PUSH2 0x2CA DUP7 DUP3 DUP8 ADD PUSH2 0x257 JUMP JUMPDEST SWAP3 POP POP PUSH1 0x40 PUSH2 0x2DB DUP7 DUP3 DUP8 ADD PUSH2 0x281 JUMP JUMPDEST SWAP2 POP POP SWAP3 POP SWAP3 POP SWAP3 JUMP JUMPDEST PUSH1 0x0 PUSH1 0x20 DUP3 DUP5 SUB SLT ISZERO PUSH2 0x2F7 JUMPI PUSH1 0x0 DUP1 REVERT JUMPDEST PUSH1 0x0 PUSH2 0x305 DUP5 DUP3 DUP6 ADD PUSH2 0x26C JUMP JUMPDEST SWAP2 POP POP SWAP3 SWAP2 POP POP JUMP JUMPDEST PUSH1 0x0 PUSH1 0x20 DUP3 DUP5 SUB SLT ISZERO PUSH2 0x320 JUMPI PUSH1 0x0 DUP1 REVERT JUMPDEST PUSH1 0x0 PUSH2 0x32E DUP5 DUP3 DUP6 ADD PUSH2 0x281 JUMP JUMPDEST SWAP2 POP POP SWAP3 SWAP2 POP POP JUMP JUMPDEST PUSH2 0x340 DUP2 PUSH2 0x4A7 JUMP JUMPDEST DUP3 MSTORE POP POP JUMP JUMPDEST PUSH1 0x0 PUSH2 0x351 DUP3 PUSH2 0x44C JUMP JUMPDEST PUSH2 0x35B DUP2 DUP6 PUSH2 0x457 JUMP JUMPDEST SWAP4 POP PUSH2 0x36B DUP2 DUP6 PUSH1 0x20 DUP7 ADD PUSH2 0x4EF JUMP JUMPDEST DUP1 DUP5 ADD SWAP2 POP POP SWAP3 SWAP2 POP POP JUMP JUMPDEST PUSH1 0x0 PUSH2 0x384 PUSH1 0x2D DUP4 PUSH2 0x462 JUMP JUMPDEST SWAP2 POP PUSH2 0x38F DUP3 PUSH2 0x551 JUMP JUMPDEST PUSH1 0x40 DUP3 ADD SWAP1 POP SWAP2 SWAP1 POP JUMP JUMPDEST PUSH1 0x0 PUSH2 0x3A7 PUSH1 0x1F DUP4 PUSH2 0x462 JUMP JUMPDEST SWAP2 POP PUSH2 0x3B2 DUP3 PUSH2 0x5A0 JUMP JUMPDEST PUSH1 0x20 DUP3 ADD SWAP1 POP SWAP2 SWAP1 POP JUMP JUMPDEST PUSH2 0x3C6 DUP2 PUSH2 0x4E5 JUMP JUMPDEST DUP3 MSTORE POP POP JUMP JUMPDEST PUSH1 0x0 PUSH2 0x3D8 DUP3 DUP5 PUSH2 0x346 JUMP JUMPDEST SWAP2 POP DUP2 SWAP1 POP SWAP3 SWAP2 POP POP JUMP JUMPDEST PUSH1 0x0 PUSH1 0x40 DUP3 ADD SWAP1 POP PUSH2 0x3F8 PUSH1 0x0 DUP4 ADD DUP6 PUSH2 0x337 JUMP JUMPDEST PUSH2 0x405 PUSH1 0x20 DUP4 ADD DUP5 PUSH2 0x3BD JUMP JUMPDEST SWAP4 SWAP3 POP POP POP JUMP JUMPDEST PUSH1 0x0 PUSH1 0x20 DUP3 ADD SWAP1 POP DUP2 DUP2 SUB PUSH1 0x0 DUP4 ADD MSTORE PUSH2 0x425 DUP2 PUSH2 0x377 JUMP JUMPDEST SWAP1 POP SWAP2 SWAP1 POP JUMP JUMPDEST PUSH1 0x0 PUSH1 0x20 DUP3 ADD SWAP1 POP DUP2 DUP2 SUB PUSH1 0x0 DUP4 ADD MSTORE PUSH2 0x445 DUP2 PUSH2 0x39A JUMP JUMPDEST SWAP1 POP SWAP2 SWAP1 POP JUMP JUMPDEST PUSH1 0x0 DUP2 MLOAD SWAP1 POP SWAP2 SWAP1 POP JUMP JUMPDEST PUSH1 0x0 DUP2 SWAP1 POP SWAP3 SWAP2 POP POP JUMP JUMPDEST PUSH1 0x0 DUP3 DUP3 MSTORE PUSH1 0x20 DUP3 ADD SWAP1 POP SWAP3 SWAP2 POP POP JUMP JUMPDEST PUSH1 0x0 PUSH2 0x47E DUP3 PUSH2 0x4E5 JUMP JUMPDEST SWAP2 POP PUSH2 0x489 DUP4 PUSH2 0x4E5 JUMP JUMPDEST SWAP3 POP DUP3 DUP3 LT ISZERO PUSH2 0x49C JUMPI PUSH2 0x49B PUSH2 0x522 JUMP JUMPDEST JUMPDEST DUP3 DUP3 SUB SWAP1 POP SWAP3 SWAP2 POP POP JUMP JUMPDEST PUSH1 0x0 PUSH2 0x4B2 DUP3 PUSH2 0x4C5 JUMP JUMPDEST SWAP1 POP SWAP2 SWAP1 POP JUMP JUMPDEST PUSH1 0x0 DUP2 ISZERO ISZERO SWAP1 POP SWAP2 SWAP1 POP JUMP JUMPDEST PUSH1 0x0 PUSH20 0xFFFFFFFFFFFFFFFFFFFFFFFFFFFFFFFFFFFFFFFF DUP3 AND SWAP1 POP SWAP2 SWAP1 POP JUMP JUMPDEST PUSH1 0x0 DUP2 SWAP1 POP SWAP2 SWAP1 POP JUMP JUMPDEST PUSH1 0x0 JUMPDEST DUP4 DUP2 LT ISZERO PUSH2 0x50D JUMPI DUP1 DUP3 ADD MLOAD DUP2 DUP5 ADD MSTORE PUSH1 0x20 DUP2 ADD SWAP1 POP PUSH2 0x4F2 JUMP JUMPDEST DUP4 DUP2 GT ISZERO PUSH2 0x51C JUMPI PUSH1 0x0 DUP5 DUP5 ADD MSTORE JUMPDEST POP POP POP POP JUMP JUMPDEST PUSH32 0x4E487B7100000000000000000000000000000000000000000000000000000000 PUSH1 0x0 MSTORE PUSH1 0x11 PUSH1 0x4 MSTORE PUSH1 0x24 PUSH1 0x0 REVERT JUMPDEST PUSH32 0x5472616E7366657248656C7065723A3A736166655472616E736665723A207472 PUSH1 0x0 DUP3 ADD MSTORE PUSH32 0x616E73666572206661696C656400000000000000000000000000000000000000 PUSH1 0x20 DUP3 ADD MSTORE POP JUMP JUMPDEST PUSH32 0x5265656E7472616E637947756172643A207265656E7472616E742063616C6C00 PUSH1 0x0 DUP3 ADD MSTORE POP JUMP JUMPDEST PUSH2 0x5D2 DUP2 PUSH2 0x4A7 JUMP JUMPDEST DUP2 EQ PUSH2 0x5DD JUMPI PUSH1 0x0 DUP1 REVERT JUMPDEST POP JUMP JUMPDEST PUSH2 0x5E9 DUP2 PUSH2 0x4B9 JUMP JUMPDEST DUP2 EQ PUSH2 0x5F4 JUMPI PUSH1 0x0 DUP1 REVERT JUMPDEST POP JUMP JUMPDEST PUSH2 0x600 DUP2 PUSH2 0x4E5 JUMP JUMPDEST DUP2 EQ PUSH2 0x60B JUMPI PUSH1 0x0 DUP1 REVERT JUMPDEST POP JUMP INVALID LOG2 PUSH5 0x6970667358 0x22 SLT KECCAK256 PUSH20 0x72AC4DCBB39DDD17BD84D50825E8B76D6A032675 DUP7 RETURNDATACOPY 0xAB 0xE3 0xCF 0xF BLOCKHASH 0xE2 0xC3 DIV DUP6 PUSH5 0x736F6C6343 STOP ADDMOD DIV STOP CALLER "
				},
				"gasEstimates": {
					"creation": {
						"codeDepositCost": "320800",
						"executionCost": "20376",
						"totalCost": "341176"
					},
					"external": {
						"depodit(address,address,uint256)": "infinite",
						"transferETH(uint256)": "infinite"
					}
				},
				"methodIdentifiers": {
					"depodit(address,address,uint256)": "f00e1f4a",
					"transferETH(uint256)": "4329db46"
				}
			},
			"storageLayout": {
				"storage": [
					{
						"astId": 135,
						"contract": "Ethereum/Presale.sol:Presale",
						"label": "_status",
						"offset": 0,
						"slot": "0",
						"type": "t_uint256"
					}
				],
				"types": {
					"t_uint256": {
						"encoding": "inplace",
						"label": "uint256",
						"numberOfBytes": "32"
					}
				}
			},
			"userdoc": {
				"kind": "user",
				"methods": {},
				"version": 1
			}
		}
	}
}