{
	"Ethereum/Presale.sol": {
		"Presale": {
			"abi": [
				{
					"inputs": [
						{
							"internalType": "address",
							"name": "_presaleGenator",
							"type": "address"
						}
					],
					"stateMutability": "payable",
					"type": "constructor"
				},
				{
					"anonymous": false,
					"inputs": [
						{
							"indexed": true,
							"internalType": "address",
							"name": "previousOwner",
							"type": "address"
						},
						{
							"indexed": true,
							"internalType": "address",
							"name": "newOwner",
							"type": "address"
						}
					],
					"name": "OwnershipTransferred",
					"type": "event"
				},
				{
					"inputs": [],
					"name": "WETH",
					"outputs": [
						{
							"internalType": "contract IERC20",
							"name": "",
							"type": "address"
						}
					],
					"stateMutability": "view",
					"type": "function"
				},
				{
					"inputs": [],
					"name": "adminReceiveFee",
					"outputs": [
						{
							"internalType": "address",
							"name": "",
							"type": "address"
						}
					],
					"stateMutability": "view",
					"type": "function"
				},
				{
					"inputs": [],
					"name": "backToken",
					"outputs": [],
					"stateMutability": "payable",
					"type": "function"
				},
				{
					"inputs": [
						{
							"internalType": "address",
							"name": "",
							"type": "address"
						}
					],
					"name": "buyerInfo",
					"outputs": [
						{
							"internalType": "uint256",
							"name": "baseDeposit",
							"type": "uint256"
						},
						{
							"internalType": "uint256",
							"name": "tokenOwner",
							"type": "uint256"
						},
						{
							"internalType": "uint256",
							"name": "lastWithDraw",
							"type": "uint256"
						},
						{
							"internalType": "uint256",
							"name": "totalTokenWithDraw",
							"type": "uint256"
						},
						{
							"internalType": "uint256",
							"name": "totalBaseWithDraw",
							"type": "uint256"
						}
					],
					"stateMutability": "view",
					"type": "function"
				},
				{
					"inputs": [],
					"name": "checkAdminAddress",
					"outputs": [
						{
							"internalType": "bool",
							"name": "",
							"type": "bool"
						}
					],
					"stateMutability": "view",
					"type": "function"
				},
				{
					"inputs": [
						{
							"internalType": "uint256",
							"name": "_amount",
							"type": "uint256"
						}
					],
					"name": "deposit",
					"outputs": [],
					"stateMutability": "payable",
					"type": "function"
				},
				{
					"inputs": [],
					"name": "feeAnyone",
					"outputs": [
						{
							"internalType": "uint256",
							"name": "",
							"type": "uint256"
						}
					],
					"stateMutability": "view",
					"type": "function"
				},
				{
					"inputs": [],
					"name": "feeCreateSale",
					"outputs": [
						{
							"internalType": "uint256",
							"name": "",
							"type": "uint256"
						}
					],
					"stateMutability": "view",
					"type": "function"
				},
				{
					"inputs": [
						{
							"internalType": "address",
							"name": "_address",
							"type": "address"
						}
					],
					"name": "getBalance",
					"outputs": [
						{
							"internalType": "uint256",
							"name": "",
							"type": "uint256"
						}
					],
					"stateMutability": "view",
					"type": "function"
				},
				{
					"inputs": [
						{
							"internalType": "address payable",
							"name": "_presaleOwner",
							"type": "address"
						},
						{
							"internalType": "contract ERC20",
							"name": "_saleToken",
							"type": "address"
						},
						{
							"internalType": "contract ERC20",
							"name": "_baseTOken",
							"type": "address"
						},
						{
							"internalType": "uint256[7]",
							"name": "datas",
							"type": "uint256[7]"
						},
						{
							"internalType": "uint256",
							"name": "_refundFee",
							"type": "uint256"
						},
						{
							"internalType": "uint256",
							"name": "_claimFee",
							"type": "uint256"
						},
						{
							"internalType": "uint256",
							"name": "_feeAnyone",
							"type": "uint256"
						},
						{
							"internalType": "address payable",
							"name": "_adminReceiveFee",
							"type": "address"
						},
						{
							"internalType": "uint256",
							"name": "_feeCreateSale",
							"type": "uint256"
						}
					],
					"name": "initialSaleInfor",
					"outputs": [],
					"stateMutability": "nonpayable",
					"type": "function"
				},
				{
					"inputs": [],
					"name": "owner",
					"outputs": [
						{
							"internalType": "address",
							"name": "",
							"type": "address"
						}
					],
					"stateMutability": "view",
					"type": "function"
				},
				{
					"inputs": [],
					"name": "ownerClaimAndRefundToken",
					"outputs": [],
					"stateMutability": "nonpayable",
					"type": "function"
				},
				{
					"inputs": [],
					"name": "presaleGenator",
					"outputs": [
						{
							"internalType": "address",
							"name": "",
							"type": "address"
						}
					],
					"stateMutability": "view",
					"type": "function"
				},
				{
					"inputs": [],
					"name": "presaleStatus",
					"outputs": [
						{
							"internalType": "uint256",
							"name": "totalBaseCollected",
							"type": "uint256"
						},
						{
							"internalType": "uint256",
							"name": "totalTokenSold",
							"type": "uint256"
						},
						{
							"internalType": "uint256",
							"name": "totalTokenWithDraw",
							"type": "uint256"
						},
						{
							"internalType": "uint256",
							"name": "totalBaseWithDraw",
							"type": "uint256"
						},
						{
							"internalType": "uint256",
							"name": "totalTokenBackForAdmin",
							"type": "uint256"
						},
						{
							"internalType": "uint256",
							"name": "totalBaseBackForAdmin",
							"type": "uint256"
						},
						{
							"internalType": "uint256",
							"name": "numberBuyer",
							"type": "uint256"
						},
						{
							"internalType": "bool",
							"name": "isOwnerClaimSaleToken",
							"type": "bool"
						},
						{
							"internalType": "bool",
							"name": "isOwnerRefundBaseToken",
							"type": "bool"
						}
					],
					"stateMutability": "view",
					"type": "function"
				},
				{
					"inputs": [],
					"name": "renounceOwnership",
					"outputs": [],
					"stateMutability": "nonpayable",
					"type": "function"
				},
				{
					"inputs": [],
					"name": "saleInfor",
					"outputs": [
						{
							"internalType": "address payable",
							"name": "presaleOwner",
							"type": "address"
						},
						{
							"internalType": "contract ERC20",
							"name": "saleToken",
							"type": "address"
						},
						{
							"internalType": "contract ERC20",
							"name": "baseToken",
							"type": "address"
						},
						{
							"internalType": "uint256",
							"name": "tokenPrice",
							"type": "uint256"
						},
						{
							"internalType": "uint256",
							"name": "startSale",
							"type": "uint256"
						},
						{
							"internalType": "uint256",
							"name": "endSale",
							"type": "uint256"
						},
						{
							"internalType": "uint256",
							"name": "minSpendPerBuyer",
							"type": "uint256"
						},
						{
							"internalType": "uint256",
							"name": "maxSpendPerBuyer",
							"type": "uint256"
						},
						{
							"internalType": "uint256",
							"name": "refundFee",
							"type": "uint256"
						},
						{
							"internalType": "uint256",
							"name": "claimFee",
							"type": "uint256"
						},
						{
							"internalType": "bool",
							"name": "saleIsBaseToken",
							"type": "bool"
						},
						{
							"internalType": "uint256",
							"name": "amountTokenForSale",
							"type": "uint256"
						}
					],
					"stateMutability": "view",
					"type": "function"
				},
				{
					"inputs": [],
					"name": "saleTotalSupply",
					"outputs": [
						{
							"internalType": "uint256",
							"name": "hardCap",
							"type": "uint256"
						},
						{
							"internalType": "uint256",
							"name": "softCap",
							"type": "uint256"
						}
					],
					"stateMutability": "view",
					"type": "function"
				},
				{
					"inputs": [],
					"name": "status",
					"outputs": [
						{
							"internalType": "uint256",
							"name": "",
							"type": "uint256"
						}
					],
					"stateMutability": "view",
					"type": "function"
				},
				{
					"inputs": [],
					"name": "totalFee",
					"outputs": [
						{
							"internalType": "uint256",
							"name": "",
							"type": "uint256"
						}
					],
					"stateMutability": "view",
					"type": "function"
				},
				{
					"inputs": [
						{
							"internalType": "address",
							"name": "newOwner",
							"type": "address"
						}
					],
					"name": "transferOwnership",
					"outputs": [],
					"stateMutability": "nonpayable",
					"type": "function"
				},
				{
					"inputs": [],
					"name": "userClaimEmergency",
					"outputs": [],
					"stateMutability": "nonpayable",
					"type": "function"
				},
				{
					"inputs": [
						{
							"internalType": "bool",
							"name": "isClaim",
							"type": "bool"
						}
					],
					"name": "userClaimOrRefundWhenSaleSuccess",
					"outputs": [],
					"stateMutability": "nonpayable",
					"type": "function"
				},
				{
					"inputs": [
						{
							"internalType": "address",
							"name": "",
							"type": "address"
						}
					],
					"name": "userFee",
					"outputs": [
						{
							"internalType": "uint256",
							"name": "",
							"type": "uint256"
						}
					],
					"stateMutability": "view",
					"type": "function"
				},
				{
					"inputs": [],
					"name": "userRefundEmergency",
					"outputs": [],
					"stateMutability": "nonpayable",
					"type": "function"
				}
			],
			"devdoc": {
				"kind": "dev",
				"methods": {
					"owner()": {
						"details": "Returns the address of the current owner."
					},
					"renounceOwnership()": {
						"details": "Leaves the contract without owner. It will not be possible to call `onlyOwner` functions anymore. Can only be called by the current owner. NOTE: Renouncing ownership will leave the contract without an owner, thereby removing any functionality that is only available to the owner."
					},
					"transferOwnership(address)": {
						"details": "Transfers ownership of the contract to a new account (`newOwner`). Can only be called by the current owner."
					}
				},
				"version": 1
			},
			"evm": {
				"assembly": "    /* \"Ethereum/Presale.sol\":370:12206  contract Presale is ReentrancyGuard, Ownable{\r... */\n  mstore(0x40, 0x80)\n    /* \"Ethereum/Presale.sol\":2439:2732  constructor(address _presaleGenator) payable {\r... */\n  mload(0x40)\n  sub(codesize, bytecodeSize)\n  dup1\n  bytecodeSize\n  dup4\n  codecopy\n  dup2\n  add\n  0x40\n  dup2\n  swap1\n  mstore\n  tag_1\n  swap2\n  tag_2\n  jump\t// in\ntag_1:\n    /* \"Utils/ReentrancyGuard.sol\":1734:1735  1 */\n  0x01\n    /* \"Utils/ReentrancyGuard.sol\":1845:1852  _status */\n  0x00\n    /* \"Utils/ReentrancyGuard.sol\":1845:1867  _status = _NOT_ENTERED */\n  sstore\n    /* \"Utils/Ownable.sol\":942:974  _transferOwnership(_msgSender()) */\n  tag_8\n    /* \"Utils/Context.sol\":736:746  msg.sender */\n  caller\n    /* \"Utils/Ownable.sol\":942:960  _transferOwnership */\n  tag_11\n    /* \"Utils/Ownable.sol\":942:974  _transferOwnership(_msgSender()) */\n  jump\t// in\ntag_8:\n    /* \"Ethereum/Presale.sol\":2495:2509  presaleGenator */\n  0x22\n    /* \"Ethereum/Presale.sol\":2495:2527  presaleGenator = _presaleGenator */\n  dup1\n  sload\n  not(sub(shl(0xa0, 0x01), 0x01))\n  swap1\n  dup2\n  and\n  sub(shl(0xa0, 0x01), 0x01)\n  dup5\n  and\n  or\n  swap1\n  swap2\n  sstore\n    /* \"Ethereum/Presale.sol\":2538:2542  WETH */\n  0x1b\n    /* \"Ethereum/Presale.sol\":2538:2594  WETH = ERC20(0xc778417E063141139Fce010982780140Aa0cD5Ab) */\n  dup1\n  sload\n    /* \"Ethereum/Presale.sol\":2551:2593  0xc778417E063141139Fce010982780140Aa0cD5Ab */\n  0xc778417e063141139fce010982780140aa0cd5ab\n    /* \"Ethereum/Presale.sol\":2538:2594  WETH = ERC20(0xc778417E063141139Fce010982780140Aa0cD5Ab) */\n  swap3\n  and\n  swap2\n  swap1\n  swap2\n  or\n  swap1\n  sstore\n    /* \"Ethereum/Presale.sol\":2605:2659  admins.add(0x6Ccb41eedA5a073076F3E7dC1614C185b5fA41eD) */\n  tag_13\n    /* \"Ethereum/Presale.sol\":2605:2611  admins */\n  0x1c\n    /* \"Ethereum/Presale.sol\":2616:2658  0x6Ccb41eedA5a073076F3E7dC1614C185b5fA41eD */\n  0x6ccb41eeda5a073076f3e7dc1614c185b5fa41ed\n    /* \"Ethereum/Presale.sol\":2605:2615  admins.add */\n  tag_14\n  0x20\n  swap1\n  dup2\n  shl\n  tag_0_133\n  or\n    /* \"Ethereum/Presale.sol\":2605:2659  admins.add(0x6Ccb41eedA5a073076F3E7dC1614C185b5fA41eD) */\n  swap1\n  shr\n  jump\t// in\ntag_13:\n  pop\n    /* \"Ethereum/Presale.sol\":2670:2724  admins.add(0x4f0B12bBF40Fc182559822A5b1dB6D34dbC3E016) */\n  tag_15\n    /* \"Ethereum/Presale.sol\":2681:2723  0x4f0B12bBF40Fc182559822A5b1dB6D34dbC3E016 */\n  0x4f0b12bbf40fc182559822a5b1db6d34dbc3e016\n    /* \"Ethereum/Presale.sol\":2670:2676  admins */\n  0x1c\n    /* \"Ethereum/Presale.sol\":2670:2680  admins.add */\n  or(tag_0_133, shl(0x20, tag_14))\n  swap1\n    /* \"Ethereum/Presale.sol\":2670:2724  admins.add(0x4f0B12bBF40Fc182559822A5b1dB6D34dbC3E016) */\n  swap2\n  swap1\n  0x20\n  shr\n  jump\t// in\ntag_15:\n  pop\n    /* \"Ethereum/Presale.sol\":2439:2732  constructor(address _presaleGenator) payable {\r... */\n  pop\n    /* \"Ethereum/Presale.sol\":370:12206  contract Presale is ReentrancyGuard, Ownable{\r... */\n  jump(tag_29)\n    /* \"Utils/Ownable.sol\":2333:2524  function _transferOwnership(address newOwner) internal virtual {\r... */\ntag_11:\n    /* \"Utils/Ownable.sol\":2426:2432  _owner */\n  0x01\n  dup1\n  sload\n  sub(shl(0xa0, 0x01), 0x01)\n    /* \"Utils/Ownable.sol\":2443:2460  _owner = newOwner */\n  dup4\n  dup2\n  and\n  not(sub(shl(0xa0, 0x01), 0x01))\n  dup4\n  and\n  dup2\n  or\n  swap1\n  swap4\n  sstore\n    /* \"Utils/Ownable.sol\":2476:2516  OwnershipTransferred(oldOwner, newOwner) */\n  mload(0x40)\n    /* \"Utils/Ownable.sol\":2426:2432  _owner */\n  swap2\n  and\n  swap2\n    /* \"Utils/Ownable.sol\":2443:2460  _owner = newOwner */\n  swap1\n    /* \"Utils/Ownable.sol\":2426:2432  _owner */\n  dup3\n  swap1\n    /* \"Utils/Ownable.sol\":2476:2516  OwnershipTransferred(oldOwner, newOwner) */\n  0x8be0079c531659141344cd1fd0a4f28419497f9722a3daafe3b4186f6b6457e0\n  swap1\n    /* \"Utils/Ownable.sol\":2407:2423  address oldOwner */\n  0x00\n  swap1\n    /* \"Utils/Ownable.sol\":2476:2516  OwnershipTransferred(oldOwner, newOwner) */\n  log3\n    /* \"Utils/Ownable.sol\":2396:2524  {\r... */\n  pop\n    /* \"Utils/Ownable.sol\":2333:2524  function _transferOwnership(address newOwner) internal virtual {\r... */\n  pop\n  jump\t// out\n    /* \"Utils/EnumerableSet.sol\":8259:8411  function add(AddressSet storage set, address value) internal returns (bool) {\r... */\ntag_14:\n    /* \"Utils/EnumerableSet.sol\":8329:8333  bool */\n  0x00\n    /* \"Utils/EnumerableSet.sol\":8353:8403  _add(set._inner, bytes32(uint256(uint160(value)))) */\n  tag_20\n    /* \"Utils/EnumerableSet.sol\":8358:8361  set */\n  dup4\n  sub(shl(0xa0, 0x01), 0x01)\n    /* \"Utils/EnumerableSet.sol\":8378:8401  uint256(uint160(value)) */\n  dup5\n  and\n    /* \"Utils/EnumerableSet.sol\":8353:8357  _add */\n  tag_21\n    /* \"Utils/EnumerableSet.sol\":8353:8403  _add(set._inner, bytes32(uint256(uint160(value)))) */\n  jump\t// in\ntag_20:\n    /* \"Utils/EnumerableSet.sol\":8346:8403  return _add(set._inner, bytes32(uint256(uint160(value)))) */\n  swap1\n  pop\n    /* \"Utils/EnumerableSet.sol\":8259:8411  function add(AddressSet storage set, address value) internal returns (bool) {\r... */\ntag_19:\n  swap3\n  swap2\n  pop\n  pop\n  jump\t// out\n    /* \"Utils/EnumerableSet.sol\":2174:2588  function _add(Set storage set, bytes32 value) private returns (bool) {\r... */\ntag_21:\n    /* \"Utils/EnumerableSet.sol\":2237:2241  bool */\n  0x00\n    /* \"Utils/EnumerableSet.sol\":4367:4386  set._indexes[value] */\n  dup2\n  dup2\n  mstore\n    /* \"Utils/EnumerableSet.sol\":4367:4379  set._indexes */\n  0x01\n  dup4\n  add\n    /* \"Utils/EnumerableSet.sol\":4367:4386  set._indexes[value] */\n  0x20\n  mstore\n  0x40\n  dup2\n  keccak256\n  sload\n    /* \"Utils/EnumerableSet.sol\":2254:2581  if (!_contains(set, value)) {\r... */\n  tag_25\n  jumpi\n  pop\n    /* \"Utils/EnumerableSet.sol\":2297:2320  set._values.push(value) */\n  dup2\n  sload\n  0x01\n  dup2\n  dup2\n  add\n  dup5\n  sstore\n    /* \"Utils/EnumerableSet.sol\":2297:2308  set._values */\n  0x00\n    /* \"Utils/EnumerableSet.sol\":2297:2320  set._values.push(value) */\n  dup5\n  dup2\n  mstore\n  0x20\n  dup1\n  dup3\n  keccak256\n  swap1\n  swap4\n  add\n  dup5\n  swap1\n  sstore\n    /* \"Utils/EnumerableSet.sol\":2480:2498  set._values.length */\n  dup5\n  sload\n    /* \"Utils/EnumerableSet.sol\":2458:2477  set._indexes[value] */\n  dup5\n  dup3\n  mstore\n    /* \"Utils/EnumerableSet.sol\":2458:2470  set._indexes */\n  dup3\n  dup7\n  add\n    /* \"Utils/EnumerableSet.sol\":2458:2477  set._indexes[value] */\n  swap1\n  swap4\n  mstore\n  0x40\n  swap1\n  keccak256\n    /* \"Utils/EnumerableSet.sol\":2458:2498  set._indexes[value] = set._values.length */\n  swap2\n  swap1\n  swap2\n  sstore\n    /* \"Utils/EnumerableSet.sol\":2513:2524  return true */\n  jump(tag_19)\n    /* \"Utils/EnumerableSet.sol\":2254:2581  if (!_contains(set, value)) {\r... */\ntag_25:\n  pop\n    /* \"Utils/EnumerableSet.sol\":2564:2569  false */\n  0x00\n    /* \"Utils/EnumerableSet.sol\":2557:2569  return false */\n  jump(tag_19)\n    /* \"#utility.yul\":14:304   */\ntag_2:\n    /* \"#utility.yul\":84:90   */\n  0x00\n    /* \"#utility.yul\":137:139   */\n  0x20\n    /* \"#utility.yul\":125:134   */\n  dup3\n    /* \"#utility.yul\":116:123   */\n  dup5\n    /* \"#utility.yul\":112:135   */\n  sub\n    /* \"#utility.yul\":108:140   */\n  slt\n    /* \"#utility.yul\":105:107   */\n  iszero\n  tag_31\n  jumpi\n    /* \"#utility.yul\":153:154   */\n  0x00\n    /* \"#utility.yul\":150:151   */\n  dup1\n    /* \"#utility.yul\":143:155   */\n  revert\n    /* \"#utility.yul\":105:107   */\ntag_31:\n    /* \"#utility.yul\":179:195   */\n  dup2\n  mload\n  sub(shl(0xa0, 0x01), 0x01)\n    /* \"#utility.yul\":224:255   */\n  dup2\n  and\n    /* \"#utility.yul\":214:256   */\n  dup2\n  eq\n    /* \"#utility.yul\":204:206   */\n  tag_32\n  jumpi\n    /* \"#utility.yul\":270:271   */\n  0x00\n    /* \"#utility.yul\":267:268   */\n  dup1\n    /* \"#utility.yul\":260:272   */\n  revert\n    /* \"#utility.yul\":204:206   */\ntag_32:\n    /* \"#utility.yul\":293:298   */\n  swap4\n    /* \"#utility.yul\":95:304   */\n  swap3\n  pop\n  pop\n  pop\n  jump\t// out\ntag_29:\n    /* \"Ethereum/Presale.sol\":370:12206  contract Presale is ReentrancyGuard, Ownable{\r... */\n  dataSize(sub_0)\n  dup1\n  dataOffset(sub_0)\n  0x00\n  codecopy\n  0x00\n  return\nstop\n\nsub_0: assembly {\n        /* \"Ethereum/Presale.sol\":370:12206  contract Presale is ReentrancyGuard, Ownable{\r... */\n      mstore(0x40, 0x80)\n      jumpi(tag_1, lt(calldatasize, 0x04))\n      shr(0xe0, calldataload(0x00))\n      dup1\n      0x95661e70\n      gt\n      tag_26\n      jumpi\n      dup1\n      0xcad5b0f7\n      gt\n      tag_27\n      jumpi\n      dup1\n      0xcad5b0f7\n      eq\n      tag_20\n      jumpi\n      dup1\n      0xd4c1dee9\n      eq\n      tag_21\n      jumpi\n      dup1\n      0xe2d3f423\n      eq\n      tag_22\n      jumpi\n      dup1\n      0xeb002bb0\n      eq\n      tag_23\n      jumpi\n      dup1\n      0xf2fde38b\n      eq\n      tag_24\n      jumpi\n      dup1\n      0xf8b2cb4f\n      eq\n      tag_25\n      jumpi\n      0x00\n      dup1\n      revert\n    tag_27:\n      dup1\n      0x95661e70\n      eq\n      tag_14\n      jumpi\n      dup1\n      0xab33985a\n      eq\n      tag_15\n      jumpi\n      dup1\n      0xacfb2355\n      eq\n      tag_16\n      jumpi\n      dup1\n      0xad5c4648\n      eq\n      tag_17\n      jumpi\n      dup1\n      0xae2b0965\n      eq\n      tag_18\n      jumpi\n      dup1\n      0xb6b55f25\n      eq\n      tag_19\n      jumpi\n      0x00\n      dup1\n      revert\n    tag_26:\n      dup1\n      0x56c5f349\n      gt\n      tag_28\n      jumpi\n      dup1\n      0x56c5f349\n      eq\n      tag_8\n      jumpi\n      dup1\n      0x715018a6\n      eq\n      tag_9\n      jumpi\n      dup1\n      0x861faf5f\n      eq\n      tag_10\n      jumpi\n      dup1\n      0x8b84e714\n      eq\n      tag_11\n      jumpi\n      dup1\n      0x8da5cb5b\n      eq\n      tag_12\n      jumpi\n      dup1\n      0x8edf18e6\n      eq\n      tag_13\n      jumpi\n      0x00\n      dup1\n      revert\n    tag_28:\n      dup1\n      0x0a9c5ddb\n      eq\n      tag_2\n      jumpi\n      dup1\n      0x12e5d0b9\n      eq\n      tag_3\n      jumpi\n      dup1\n      0x18856a2f\n      eq\n      tag_4\n      jumpi\n      dup1\n      0x1df4ccfc\n      eq\n      tag_5\n      jumpi\n      dup1\n      0x200d2ed2\n      eq\n      tag_6\n      jumpi\n      dup1\n      0x3b5ef2ad\n      eq\n      tag_7\n      jumpi\n    tag_1:\n      0x00\n      dup1\n      revert\n        /* \"Ethereum/Presale.sol\":2740:4216  function initialSaleInfor(\r... */\n    tag_2:\n      callvalue\n      dup1\n      iszero\n      tag_29\n      jumpi\n      0x00\n      dup1\n      revert\n    tag_29:\n      pop\n      tag_30\n      tag_31\n      calldatasize\n      0x04\n      tag_32\n      jump\t// in\n    tag_31:\n      tag_33\n      jump\t// in\n    tag_30:\n      stop\n        /* \"Ethereum/Presale.sol\":1741:1779  SaleTotalSupply public saleTotalSupply */\n    tag_3:\n      callvalue\n      dup1\n      iszero\n      tag_34\n      jumpi\n      0x00\n      dup1\n      revert\n    tag_34:\n      pop\n      sload(0x0d)\n      sload(0x0e)\n      tag_35\n      swap2\n      swap1\n      dup3\n      jump\n    tag_35:\n      0x40\n      dup1\n      mload\n        /* \"#utility.yul\":12537:12562   */\n      swap3\n      dup4\n      mstore\n        /* \"#utility.yul\":12593:12595   */\n      0x20\n        /* \"#utility.yul\":12578:12596   */\n      dup4\n      add\n        /* \"#utility.yul\":12571:12605   */\n      swap2\n      swap1\n      swap2\n      mstore\n        /* \"#utility.yul\":12510:12528   */\n      add\n        /* \"Ethereum/Presale.sol\":1741:1779  SaleTotalSupply public saleTotalSupply */\n    tag_37:\n      mload(0x40)\n      dup1\n      swap2\n      sub\n      swap1\n      return\n        /* \"Ethereum/Presale.sol\":1786:1812  SaleInfor public saleInfor */\n    tag_4:\n      callvalue\n      dup1\n      iszero\n      tag_39\n      jumpi\n      0x00\n      dup1\n      revert\n    tag_39:\n      pop\n      sload(0x0f)\n      sload(0x10)\n      sload(0x11)\n      sload(0x12)\n      sload(0x13)\n      sload(0x14)\n      sload(0x15)\n      sload(0x16)\n      sload(0x17)\n      sload(0x18)\n      sload(0x19)\n      sload(0x1a)\n      tag_40\n      swap12\n      sub(shl(0xa0, 0x01), 0x01)\n      swap1\n      dup2\n      and\n      swap12\n      dup2\n      and\n      swap11\n      and\n      swap9\n      swap8\n      swap7\n      swap6\n      swap5\n      swap4\n      swap3\n      swap2\n      0xff\n      and\n      swap1\n      dup13\n      jump\n    tag_40:\n      0x40\n      dup1\n      mload\n      sub(shl(0xa0, 0x01), 0x01)\n        /* \"#utility.yul\":4088:4103   */\n      swap14\n      dup15\n      and\n        /* \"#utility.yul\":4070:4104   */\n      dup2\n      mstore\n        /* \"#utility.yul\":4140:4155   */\n      swap12\n      dup14\n      and\n        /* \"#utility.yul\":4135:4137   */\n      0x20\n        /* \"#utility.yul\":4120:4138   */\n      dup14\n      add\n        /* \"#utility.yul\":4113:4156   */\n      mstore\n        /* \"#utility.yul\":4192:4207   */\n      swap10\n      swap1\n      swap12\n      and\n        /* \"#utility.yul\":4172:4190   */\n      swap9\n      dup11\n      add\n        /* \"#utility.yul\":4165:4208   */\n      swap9\n      swap1\n      swap9\n      mstore\n        /* \"#utility.yul\":4239:4241   */\n      0x60\n        /* \"#utility.yul\":4224:4242   */\n      dup10\n      add\n        /* \"#utility.yul\":4217:4251   */\n      swap7\n      swap1\n      swap7\n      mstore\n        /* \"#utility.yul\":4282:4285   */\n      0x80\n        /* \"#utility.yul\":4267:4286   */\n      dup9\n      add\n        /* \"#utility.yul\":4260:4295   */\n      swap5\n      swap1\n      swap5\n      mstore\n        /* \"#utility.yul\":4050:4053   */\n      0xa0\n        /* \"#utility.yul\":4311:4330   */\n      dup8\n      add\n        /* \"#utility.yul\":4304:4339   */\n      swap3\n      swap1\n      swap3\n      mstore\n        /* \"#utility.yul\":4370:4373   */\n      0xc0\n        /* \"#utility.yul\":4355:4374   */\n      dup7\n      add\n        /* \"#utility.yul\":4348:4383   */\n      mstore\n        /* \"#utility.yul\":4414:4417   */\n      0xe0\n        /* \"#utility.yul\":4399:4418   */\n      dup6\n      add\n        /* \"#utility.yul\":4392:4427   */\n      mstore\n        /* \"#utility.yul\":4458:4461   */\n      0x0100\n        /* \"#utility.yul\":4443:4462   */\n      dup5\n      add\n        /* \"#utility.yul\":4436:4471   */\n      mstore\n        /* \"#utility.yul\":4502:4505   */\n      0x0120\n        /* \"#utility.yul\":4487:4506   */\n      dup4\n      add\n        /* \"#utility.yul\":4480:4515   */\n      mstore\n        /* \"#utility.yul\":4559:4574   */\n      iszero\n        /* \"#utility.yul\":4552:4575   */\n      iszero\n        /* \"#utility.yul\":4546:4549   */\n      0x0140\n        /* \"#utility.yul\":4531:4550   */\n      dup3\n      add\n        /* \"#utility.yul\":4524:4576   */\n      mstore\n        /* \"#utility.yul\":4607:4610   */\n      0x0160\n        /* \"#utility.yul\":4592:4611   */\n      dup2\n      add\n        /* \"#utility.yul\":4585:4621   */\n      swap2\n      swap1\n      swap2\n      mstore\n        /* \"#utility.yul\":4019:4022   */\n      0x0180\n        /* \"#utility.yul\":4004:4023   */\n      add\n        /* \"Ethereum/Presale.sol\":1786:1812  SaleInfor public saleInfor */\n      tag_37\n        /* \"#utility.yul\":3986:4627   */\n      jump\n        /* \"Ethereum/Presale.sol\":1891:1914  uint256 public totalFee */\n    tag_5:\n      callvalue\n      dup1\n      iszero\n      tag_44\n      jumpi\n      0x00\n      dup1\n      revert\n    tag_44:\n      pop\n      tag_45\n      sload(0x1e)\n      dup2\n      jump\n    tag_45:\n      mload(0x40)\n        /* \"#utility.yul\":12327:12352   */\n      swap1\n      dup2\n      mstore\n        /* \"#utility.yul\":12315:12317   */\n      0x20\n        /* \"#utility.yul\":12300:12318   */\n      add\n        /* \"Ethereum/Presale.sol\":1891:1914  uint256 public totalFee */\n      tag_37\n        /* \"#utility.yul\":12282:12358   */\n      jump\n        /* \"Ethereum/Presale.sol\":4225:4562  function status() public view returns(uint256) {\r... */\n    tag_6:\n      callvalue\n      dup1\n      iszero\n      tag_49\n      jumpi\n      0x00\n      dup1\n      revert\n    tag_49:\n      pop\n      tag_45\n      tag_51\n      jump\t// in\n        /* \"Ethereum/Presale.sol\":1921:1945  uint256 public feeAnyone */\n    tag_7:\n      callvalue\n      dup1\n      iszero\n      tag_53\n      jumpi\n      0x00\n      dup1\n      revert\n    tag_53:\n      pop\n      tag_45\n      sload(0x1f)\n      dup2\n      jump\n        /* \"Ethereum/Presale.sol\":1651:1693  mapping(address => uint256) public userFee */\n    tag_8:\n      callvalue\n      dup1\n      iszero\n      tag_57\n      jumpi\n      0x00\n      dup1\n      revert\n    tag_57:\n      pop\n      tag_45\n      tag_59\n      calldatasize\n      0x04\n      tag_60\n      jump\t// in\n    tag_59:\n      mstore(0x20, 0x03)\n      0x00\n      swap1\n      dup2\n      mstore\n      0x40\n      swap1\n      keccak256\n      sload\n      dup2\n      jump\n        /* \"Utils/Ownable.sol\":1714:1817  function renounceOwnership() public virtual onlyOwner {\r... */\n    tag_9:\n      callvalue\n      dup1\n      iszero\n      tag_63\n      jumpi\n      0x00\n      dup1\n      revert\n    tag_63:\n      pop\n      tag_30\n      tag_65\n      jump\t// in\n        /* \"Ethereum/Presale.sol\":12095:12203  function backToken() external payable {\r... */\n    tag_10:\n      tag_30\n      tag_67\n      jump\t// in\n        /* \"Ethereum/Presale.sol\":2025:2054  address public presaleGenator */\n    tag_11:\n      callvalue\n      dup1\n      iszero\n      tag_68\n      jumpi\n      0x00\n      dup1\n      revert\n    tag_68:\n      pop\n      sload(0x22)\n      tag_69\n      swap1\n      sub(shl(0xa0, 0x01), 0x01)\n      and\n      dup2\n      jump\n    tag_69:\n      mload(0x40)\n      sub(shl(0xa0, 0x01), 0x01)\n        /* \"#utility.yul\":3495:3527   */\n      swap1\n      swap2\n      and\n        /* \"#utility.yul\":3477:3528   */\n      dup2\n      mstore\n        /* \"#utility.yul\":3465:3467   */\n      0x20\n        /* \"#utility.yul\":3450:3468   */\n      add\n        /* \"Ethereum/Presale.sol\":2025:2054  address public presaleGenator */\n      tag_37\n        /* \"#utility.yul\":3432:3534   */\n      jump\n        /* \"Utils/Ownable.sol\":1063:1150  function owner() public view virtual returns (address) {\r... */\n    tag_12:\n      callvalue\n      dup1\n      iszero\n      tag_73\n      jumpi\n      0x00\n      dup1\n      revert\n    tag_73:\n      pop\n        /* \"Utils/Ownable.sol\":1136:1142  _owner */\n      and(sub(shl(0xa0, 0x01), 0x01), sload(0x01))\n        /* \"Utils/Ownable.sol\":1063:1150  function owner() public view virtual returns (address) {\r... */\n      jump(tag_69)\n        /* \"Ethereum/Presale.sol\":9182:10384  function ownerClaimAndRefundToken() external onlyPresaleOwner nonReentrant{\r... */\n    tag_13:\n      callvalue\n      dup1\n      iszero\n      tag_77\n      jumpi\n      0x00\n      dup1\n      revert\n    tag_77:\n      pop\n      tag_30\n      tag_79\n      jump\t// in\n        /* \"Ethereum/Presale.sol\":8046:9174  function userRefundEmergency() external nonReentrant {\r... */\n    tag_14:\n      callvalue\n      dup1\n      iszero\n      tag_80\n      jumpi\n      0x00\n      dup1\n      revert\n    tag_80:\n      pop\n      tag_30\n      tag_82\n      jump\t// in\n        /* \"Ethereum/Presale.sol\":6909:8038  function userClaimEmergency() external nonReentrant {\r... */\n    tag_15:\n      callvalue\n      dup1\n      iszero\n      tag_83\n      jumpi\n      0x00\n      dup1\n      revert\n    tag_83:\n      pop\n      tag_30\n      tag_85\n      jump\t// in\n        /* \"Ethereum/Presale.sol\":1700:1734  PresaleStatus public presaleStatus */\n    tag_16:\n      callvalue\n      dup1\n      iszero\n      tag_86\n      jumpi\n      0x00\n      dup1\n      revert\n    tag_86:\n      pop\n      sload(0x04)\n      sload(0x05)\n      sload(0x06)\n      sload(0x07)\n      sload(0x08)\n      sload(0x09)\n      sload(0x0a)\n      sload(0x0b)\n      tag_87\n      swap8\n      swap7\n      swap6\n      swap5\n      swap4\n      swap3\n      swap2\n      swap1\n      0xff\n      dup1\n      dup3\n      and\n      swap2\n      0x0100\n      swap1\n      div\n      and\n      dup10\n      jump\n    tag_87:\n      0x40\n      dup1\n      mload\n        /* \"#utility.yul\":13443:13468   */\n      swap10\n      dup11\n      mstore\n        /* \"#utility.yul\":13499:13501   */\n      0x20\n        /* \"#utility.yul\":13484:13502   */\n      dup11\n      add\n        /* \"#utility.yul\":13477:13511   */\n      swap9\n      swap1\n      swap9\n      mstore\n        /* \"#utility.yul\":13527:13545   */\n      swap7\n      dup9\n      add\n        /* \"#utility.yul\":13520:13554   */\n      swap6\n      swap1\n      swap6\n      mstore\n        /* \"#utility.yul\":13585:13587   */\n      0x60\n        /* \"#utility.yul\":13570:13588   */\n      dup8\n      add\n        /* \"#utility.yul\":13563:13597   */\n      swap4\n      swap1\n      swap4\n      mstore\n        /* \"#utility.yul\":13628:13631   */\n      0x80\n        /* \"#utility.yul\":13613:13632   */\n      dup7\n      add\n        /* \"#utility.yul\":13606:13641   */\n      swap2\n      swap1\n      swap2\n      mstore\n        /* \"#utility.yul\":13672:13675   */\n      0xa0\n        /* \"#utility.yul\":13657:13676   */\n      dup6\n      add\n        /* \"#utility.yul\":13650:13685   */\n      mstore\n        /* \"#utility.yul\":13716:13719   */\n      0xc0\n        /* \"#utility.yul\":13701:13720   */\n      dup5\n      add\n        /* \"#utility.yul\":13694:13729   */\n      mstore\n        /* \"#utility.yul\":13773:13787   */\n      iszero\n        /* \"#utility.yul\":13766:13788   */\n      iszero\n        /* \"#utility.yul\":13760:13763   */\n      0xe0\n        /* \"#utility.yul\":13745:13764   */\n      dup4\n      add\n        /* \"#utility.yul\":13738:13789   */\n      mstore\n        /* \"#utility.yul\":13833:13847   */\n      iszero\n        /* \"#utility.yul\":13826:13848   */\n      iszero\n        /* \"#utility.yul\":13820:13823   */\n      0x0100\n        /* \"#utility.yul\":13805:13824   */\n      dup3\n      add\n        /* \"#utility.yul\":13798:13849   */\n      mstore\n        /* \"#utility.yul\":13430:13433   */\n      0x0120\n        /* \"#utility.yul\":13415:13434   */\n      add\n        /* \"Ethereum/Presale.sol\":1700:1734  PresaleStatus public presaleStatus */\n      tag_37\n        /* \"#utility.yul\":13397:13855   */\n      jump\n        /* \"Ethereum/Presale.sol\":1819:1837  IERC20 public WETH */\n    tag_17:\n      callvalue\n      dup1\n      iszero\n      tag_91\n      jumpi\n      0x00\n      dup1\n      revert\n    tag_91:\n      pop\n      sload(0x1b)\n      tag_69\n      swap1\n      sub(shl(0xa0, 0x01), 0x01)\n      and\n      dup2\n      jump\n        /* \"Ethereum/Presale.sol\":1952:1982  address public adminReceiveFee */\n    tag_18:\n      callvalue\n      dup1\n      iszero\n      tag_96\n      jumpi\n      0x00\n      dup1\n      revert\n    tag_96:\n      pop\n      sload(0x20)\n      tag_69\n      swap1\n      sub(shl(0xa0, 0x01), 0x01)\n      and\n      dup2\n      jump\n        /* \"Ethereum/Presale.sol\":4689:6901  function deposit(uint256 _amount) external payable nonReentrant {\r... */\n    tag_19:\n      tag_30\n      tag_101\n      calldatasize\n      0x04\n      tag_102\n      jump\t// in\n    tag_101:\n      tag_103\n      jump\t// in\n        /* \"Ethereum/Presale.sol\":4571:4681  function checkAdminAddress() public view returns(bool) {\r... */\n    tag_20:\n      callvalue\n      dup1\n      iszero\n      tag_104\n      jumpi\n      0x00\n      dup1\n      revert\n    tag_104:\n      pop\n      tag_105\n      tag_106\n      jump\t// in\n    tag_105:\n      mload(0x40)\n        /* \"#utility.yul\":5743:5757   */\n      swap1\n      iszero\n        /* \"#utility.yul\":5736:5758   */\n      iszero\n        /* \"#utility.yul\":5718:5759   */\n      dup2\n      mstore\n        /* \"#utility.yul\":5706:5708   */\n      0x20\n        /* \"#utility.yul\":5691:5709   */\n      add\n        /* \"Ethereum/Presale.sol\":4571:4681  function checkAdminAddress() public view returns(bool) {\r... */\n      tag_37\n        /* \"#utility.yul\":5673:5765   */\n      jump\n        /* \"Ethereum/Presale.sol\":1990:2018  uint256 public feeCreateSale */\n    tag_21:\n      callvalue\n      dup1\n      iszero\n      tag_109\n      jumpi\n      0x00\n      dup1\n      revert\n    tag_109:\n      pop\n      tag_45\n      sload(0x21)\n      dup2\n      jump\n        /* \"Ethereum/Presale.sol\":1598:1644  mapping(address => BuyerInfo) public buyerInfo */\n    tag_22:\n      callvalue\n      dup1\n      iszero\n      tag_113\n      jumpi\n      0x00\n      dup1\n      revert\n    tag_113:\n      pop\n      tag_114\n      tag_115\n      calldatasize\n      0x04\n      tag_60\n      jump\t// in\n    tag_115:\n      0x02\n      0x20\n      dup2\n      swap1\n      mstore\n      0x00\n      swap2\n      dup3\n      mstore\n      0x40\n      swap1\n      swap2\n      keccak256\n      dup1\n      sload\n      0x01\n      dup3\n      add\n      sload\n      swap3\n      dup3\n      add\n      sload\n      0x03\n      dup4\n      add\n      sload\n      0x04\n      swap1\n      swap4\n      add\n      sload\n      swap2\n      swap4\n      swap3\n      swap1\n      swap2\n      dup6\n      jump\n    tag_114:\n      0x40\n      dup1\n      mload\n        /* \"#utility.yul\":12875:12900   */\n      swap6\n      dup7\n      mstore\n        /* \"#utility.yul\":12931:12933   */\n      0x20\n        /* \"#utility.yul\":12916:12934   */\n      dup7\n      add\n        /* \"#utility.yul\":12909:12943   */\n      swap5\n      swap1\n      swap5\n      mstore\n        /* \"#utility.yul\":12959:12977   */\n      swap3\n      dup5\n      add\n        /* \"#utility.yul\":12952:12986   */\n      swap2\n      swap1\n      swap2\n      mstore\n        /* \"#utility.yul\":13017:13019   */\n      0x60\n        /* \"#utility.yul\":13002:13020   */\n      dup4\n      add\n        /* \"#utility.yul\":12995:13029   */\n      mstore\n        /* \"#utility.yul\":13060:13063   */\n      0x80\n        /* \"#utility.yul\":13045:13064   */\n      dup3\n      add\n        /* \"#utility.yul\":13038:13073   */\n      mstore\n        /* \"#utility.yul\":12862:12865   */\n      0xa0\n        /* \"#utility.yul\":12847:12866   */\n      add\n        /* \"Ethereum/Presale.sol\":1598:1644  mapping(address => BuyerInfo) public buyerInfo */\n      tag_37\n        /* \"#utility.yul\":12829:13079   */\n      jump\n        /* \"Ethereum/Presale.sol\":10392:11965  function userClaimOrRefundWhenSaleSuccess(bool isClaim) external {\r... */\n    tag_23:\n      callvalue\n      dup1\n      iszero\n      tag_119\n      jumpi\n      0x00\n      dup1\n      revert\n    tag_119:\n      pop\n      tag_30\n      tag_121\n      calldatasize\n      0x04\n      tag_122\n      jump\t// in\n    tag_121:\n      tag_123\n      jump\t// in\n        /* \"Utils/Ownable.sol\":1972:2173  function transferOwnership(address newOwner) public virtual onlyOwner {\r... */\n    tag_24:\n      callvalue\n      dup1\n      iszero\n      tag_124\n      jumpi\n      0x00\n      dup1\n      revert\n    tag_124:\n      pop\n      tag_30\n      tag_126\n      calldatasize\n      0x04\n      tag_60\n      jump\t// in\n    tag_126:\n      tag_127\n      jump\t// in\n        /* \"Ethereum/Presale.sol\":11973:12084  function getBalance(address _address) external view returns(uint256) {\r... */\n    tag_25:\n      callvalue\n      dup1\n      iszero\n      tag_128\n      jumpi\n      0x00\n      dup1\n      revert\n    tag_128:\n      pop\n      tag_45\n      tag_130\n      calldatasize\n      0x04\n      tag_60\n      jump\t// in\n    tag_130:\n      sub(shl(0xa0, 0x01), 0x01)\n        /* \"Ethereum/Presale.sol\":12060:12076  _address.balance */\n      and\n      balance\n      swap1\n        /* \"Ethereum/Presale.sol\":11973:12084  function getBalance(address _address) external view returns(uint256) {\r... */\n      jump\n        /* \"Ethereum/Presale.sol\":2740:4216  function initialSaleInfor(\r... */\n    tag_33:\n        /* \"Ethereum/Presale.sol\":3083:3092  saleInfor */\n      0x0f\n        /* \"Ethereum/Presale.sol\":3083:3121  saleInfor.presaleOwner = _presaleOwner */\n      dup1\n      sload\n      sub(shl(0xa0, 0x01), 0x01)\n      dup1\n      dup13\n      and\n      not(sub(shl(0xa0, 0x01), 0x01))\n      swap3\n      dup4\n      and\n      or\n      swap1\n      swap3\n      sstore\n        /* \"Ethereum/Presale.sol\":3132:3151  saleInfor.saleToken */\n      0x10\n        /* \"Ethereum/Presale.sol\":3132:3164  saleInfor.saleToken = _saleToken */\n      dup1\n      sload\n      dup12\n      dup5\n      and\n      swap1\n      dup4\n      and\n      dup2\n      or\n      swap1\n      swap2\n      sstore\n        /* \"Ethereum/Presale.sol\":3175:3194  saleInfor.baseToken */\n      0x11\n        /* \"Ethereum/Presale.sol\":3175:3207  saleInfor.baseToken = _baseTOken */\n      dup1\n      sload\n      swap4\n      dup12\n      and\n      swap4\n      swap1\n      swap3\n      and\n      swap3\n      swap1\n      swap3\n      or\n      swap1\n      sstore\n        /* \"Ethereum/Presale.sol\":3265:3302  ERC20(saleInfor.saleToken).decimals() */\n      0x40\n      dup1\n      mload\n      shl(0xe0, 0x313ce567)\n      dup2\n      mstore\n      swap1\n      mload\n        /* \"Ethereum/Presale.sol\":3265:3300  ERC20(saleInfor.saleToken).decimals */\n      0x313ce567\n      swap2\n        /* \"Ethereum/Presale.sol\":3265:3302  ERC20(saleInfor.saleToken).decimals() */\n      0x04\n      dup1\n      dup3\n      add\n      swap3\n      0x20\n      swap3\n      swap1\n      swap2\n      swap1\n      dup3\n      swap1\n      sub\n      add\n      dup2\n        /* \"Ethereum/Presale.sol\":3132:3164  saleInfor.saleToken = _saleToken */\n      dup7\n        /* \"Ethereum/Presale.sol\":3265:3302  ERC20(saleInfor.saleToken).decimals() */\n      dup1\n      extcodesize\n      iszero\n      dup1\n      iszero\n      tag_135\n      jumpi\n      0x00\n      dup1\n      revert\n    tag_135:\n      pop\n      gas\n      staticcall\n      iszero\n      dup1\n      iszero\n      tag_137\n      jumpi\n      returndatasize\n      0x00\n      dup1\n      returndatacopy\n      revert(0x00, returndatasize)\n    tag_137:\n      pop\n      pop\n      pop\n      pop\n      mload(0x40)\n      returndatasize\n      not(0x1f)\n      0x1f\n      dup3\n      add\n      and\n      dup3\n      add\n      dup1\n      0x40\n      mstore\n      pop\n      dup2\n      add\n      swap1\n      tag_138\n      swap2\n      swap1\n      tag_139\n      jump\t// in\n    tag_138:\n        /* \"Ethereum/Presale.sol\":3252:3303  10** uint256(ERC20(saleInfor.saleToken).decimals()) */\n      tag_140\n      swap1\n        /* \"Ethereum/Presale.sol\":3252:3254  10 */\n      0x0a\n        /* \"Ethereum/Presale.sol\":3252:3303  10** uint256(ERC20(saleInfor.saleToken).decimals()) */\n      tag_141\n      jump\t// in\n    tag_140:\n        /* \"Ethereum/Presale.sol\":3241:3249  datas[0] */\n      dup7\n      mload\n        /* \"Ethereum/Presale.sol\":3241:3303  datas[0] * 10** uint256(ERC20(saleInfor.saleToken).decimals()) */\n      tag_145\n      swap2\n      swap1\n      tag_146\n      jump\t// in\n    tag_145:\n        /* \"Ethereum/Presale.sol\":3218:3238  saleInfor.tokenPrice */\n      0x12\n        /* \"Ethereum/Presale.sol\":3218:3303  saleInfor.tokenPrice = datas[0] * 10** uint256(ERC20(saleInfor.saleToken).decimals()) */\n      sstore\n        /* \"Ethereum/Presale.sol\":3336:3344  datas[1] */\n      0x20\n      dup1\n      dup8\n      add\n      mload\n        /* \"Ethereum/Presale.sol\":3314:3333  saleInfor.startSale */\n      0x13\n        /* \"Ethereum/Presale.sol\":3314:3344  saleInfor.startSale = datas[1] */\n      sstore\n        /* \"Ethereum/Presale.sol\":3375:3383  datas[2] */\n      0x40\n      dup1\n      dup9\n      add\n      mload\n        /* \"Ethereum/Presale.sol\":3355:3372  saleInfor.endSale */\n      0x14\n        /* \"Ethereum/Presale.sol\":3355:3383  saleInfor.endSale = datas[2] */\n      sstore\n        /* \"Ethereum/Presale.sol\":3423:3431  datas[3] */\n      0x60\n      dup9\n      add\n      mload\n        /* \"Ethereum/Presale.sol\":3394:3420  saleInfor.minSpendPerBuyer */\n      0x15\n        /* \"Ethereum/Presale.sol\":3394:3431  saleInfor.minSpendPerBuyer = datas[3] */\n      sstore\n        /* \"Ethereum/Presale.sol\":3502:3521  saleInfor.baseToken */\n      sload(0x11)\n        /* \"Ethereum/Presale.sol\":3496:3533  ERC20(saleInfor.baseToken).decimals() */\n      dup2\n      mload\n      shl(0xe0, 0x313ce567)\n      dup2\n      mstore\n      swap2\n      mload\n      sub(shl(0xa0, 0x01), 0x01)\n        /* \"Ethereum/Presale.sol\":3502:3521  saleInfor.baseToken */\n      swap1\n      swap2\n      and\n      swap3\n        /* \"Ethereum/Presale.sol\":3496:3531  ERC20(saleInfor.baseToken).decimals */\n      0x313ce567\n      swap3\n        /* \"Ethereum/Presale.sol\":3496:3533  ERC20(saleInfor.baseToken).decimals() */\n      0x04\n      dup1\n      dup3\n      add\n      swap4\n      swap2\n      dup3\n      swap1\n      sub\n      add\n      dup2\n        /* \"Ethereum/Presale.sol\":3502:3521  saleInfor.baseToken */\n      dup7\n        /* \"Ethereum/Presale.sol\":3496:3533  ERC20(saleInfor.baseToken).decimals() */\n      dup1\n      extcodesize\n      iszero\n      dup1\n      iszero\n      tag_153\n      jumpi\n      0x00\n      dup1\n      revert\n    tag_153:\n      pop\n      gas\n      staticcall\n      iszero\n      dup1\n      iszero\n      tag_155\n      jumpi\n      returndatasize\n      0x00\n      dup1\n      returndatacopy\n      revert(0x00, returndatasize)\n    tag_155:\n      pop\n      pop\n      pop\n      pop\n      mload(0x40)\n      returndatasize\n      not(0x1f)\n      0x1f\n      dup3\n      add\n      and\n      dup3\n      add\n      dup1\n      0x40\n      mstore\n      pop\n      dup2\n      add\n      swap1\n      tag_156\n      swap2\n      swap1\n      tag_139\n      jump\t// in\n    tag_156:\n        /* \"Ethereum/Presale.sol\":3482:3534  10 ** uint256(ERC20(saleInfor.baseToken).decimals()) */\n      tag_157\n      swap1\n        /* \"Ethereum/Presale.sol\":3482:3484  10 */\n      0x0a\n        /* \"Ethereum/Presale.sol\":3482:3534  10 ** uint256(ERC20(saleInfor.baseToken).decimals()) */\n      tag_141\n      jump\t// in\n    tag_157:\n        /* \"Ethereum/Presale.sol\":3471:3479  datas[4] */\n      0x80\n      dup8\n      add\n      mload\n        /* \"Ethereum/Presale.sol\":3471:3534  datas[4] * 10 ** uint256(ERC20(saleInfor.baseToken).decimals()) */\n      tag_160\n      swap2\n      swap1\n      tag_146\n      jump\t// in\n    tag_160:\n        /* \"Ethereum/Presale.sol\":3442:3468  saleInfor.maxSpendPerBuyer */\n      0x16\n        /* \"Ethereum/Presale.sol\":3442:3534  saleInfor.maxSpendPerBuyer = datas[4] * 10 ** uint256(ERC20(saleInfor.baseToken).decimals()) */\n      sstore\n        /* \"Ethereum/Presale.sol\":3602:3621  saleInfor.baseToken */\n      sload(0x11)\n        /* \"Ethereum/Presale.sol\":3596:3633  ERC20(saleInfor.baseToken).decimals() */\n      0x40\n      dup1\n      mload\n      shl(0xe0, 0x313ce567)\n      dup2\n      mstore\n      swap1\n      mload\n      sub(shl(0xa0, 0x01), 0x01)\n        /* \"Ethereum/Presale.sol\":3602:3621  saleInfor.baseToken */\n      swap1\n      swap3\n      and\n      swap2\n        /* \"Ethereum/Presale.sol\":3596:3631  ERC20(saleInfor.baseToken).decimals */\n      0x313ce567\n      swap2\n        /* \"Ethereum/Presale.sol\":3596:3633  ERC20(saleInfor.baseToken).decimals() */\n      0x04\n      dup1\n      dup3\n      add\n      swap3\n      0x20\n      swap3\n      swap1\n      swap2\n      swap1\n      dup3\n      swap1\n      sub\n      add\n      dup2\n        /* \"Ethereum/Presale.sol\":3602:3621  saleInfor.baseToken */\n      dup7\n        /* \"Ethereum/Presale.sol\":3596:3633  ERC20(saleInfor.baseToken).decimals() */\n      dup1\n      extcodesize\n      iszero\n      dup1\n      iszero\n      tag_161\n      jumpi\n      0x00\n      dup1\n      revert\n    tag_161:\n      pop\n      gas\n      staticcall\n      iszero\n      dup1\n      iszero\n      tag_163\n      jumpi\n      returndatasize\n      0x00\n      dup1\n      returndatacopy\n      revert(0x00, returndatasize)\n    tag_163:\n      pop\n      pop\n      pop\n      pop\n      mload(0x40)\n      returndatasize\n      not(0x1f)\n      0x1f\n      dup3\n      add\n      and\n      dup3\n      add\n      dup1\n      0x40\n      mstore\n      pop\n      dup2\n      add\n      swap1\n      tag_164\n      swap2\n      swap1\n      tag_139\n      jump\t// in\n    tag_164:\n        /* \"Ethereum/Presale.sol\":3582:3634  10 ** uint256(ERC20(saleInfor.baseToken).decimals()) */\n      tag_165\n      swap1\n        /* \"Ethereum/Presale.sol\":3582:3584  10 */\n      0x0a\n        /* \"Ethereum/Presale.sol\":3582:3634  10 ** uint256(ERC20(saleInfor.baseToken).decimals()) */\n      tag_141\n      jump\t// in\n    tag_165:\n        /* \"Ethereum/Presale.sol\":3571:3579  datas[5] */\n      0xa0\n      dup8\n      add\n      mload\n        /* \"Ethereum/Presale.sol\":3571:3634  datas[5] * 10 ** uint256(ERC20(saleInfor.baseToken).decimals()) */\n      tag_168\n      swap2\n      swap1\n      tag_146\n      jump\t// in\n    tag_168:\n        /* \"Ethereum/Presale.sol\":3545:3560  saleTotalSupply */\n      0x0d\n        /* \"Ethereum/Presale.sol\":3545:3634  saleTotalSupply.hardCap = datas[5] * 10 ** uint256(ERC20(saleInfor.baseToken).decimals()) */\n      sstore\n        /* \"Ethereum/Presale.sol\":3701:3720  saleInfor.baseToken */\n      sload(0x11)\n        /* \"Ethereum/Presale.sol\":3695:3732  ERC20(saleInfor.baseToken).decimals() */\n      0x40\n      dup1\n      mload\n      shl(0xe0, 0x313ce567)\n      dup2\n      mstore\n      swap1\n      mload\n      sub(shl(0xa0, 0x01), 0x01)\n        /* \"Ethereum/Presale.sol\":3701:3720  saleInfor.baseToken */\n      swap1\n      swap3\n      and\n      swap2\n        /* \"Ethereum/Presale.sol\":3695:3730  ERC20(saleInfor.baseToken).decimals */\n      0x313ce567\n      swap2\n        /* \"Ethereum/Presale.sol\":3695:3732  ERC20(saleInfor.baseToken).decimals() */\n      0x04\n      dup1\n      dup3\n      add\n      swap3\n      0x20\n      swap3\n      swap1\n      swap2\n      swap1\n      dup3\n      swap1\n      sub\n      add\n      dup2\n        /* \"Ethereum/Presale.sol\":3701:3720  saleInfor.baseToken */\n      dup7\n        /* \"Ethereum/Presale.sol\":3695:3732  ERC20(saleInfor.baseToken).decimals() */\n      dup1\n      extcodesize\n      iszero\n      dup1\n      iszero\n      tag_169\n      jumpi\n      0x00\n      dup1\n      revert\n    tag_169:\n      pop\n      gas\n      staticcall\n      iszero\n      dup1\n      iszero\n      tag_171\n      jumpi\n      returndatasize\n      0x00\n      dup1\n      returndatacopy\n      revert(0x00, returndatasize)\n    tag_171:\n      pop\n      pop\n      pop\n      pop\n      mload(0x40)\n      returndatasize\n      not(0x1f)\n      0x1f\n      dup3\n      add\n      and\n      dup3\n      add\n      dup1\n      0x40\n      mstore\n      pop\n      dup2\n      add\n      swap1\n      tag_172\n      swap2\n      swap1\n      tag_139\n      jump\t// in\n    tag_172:\n        /* \"Ethereum/Presale.sol\":3682:3733  10** uint256(ERC20(saleInfor.baseToken).decimals()) */\n      tag_173\n      swap1\n        /* \"Ethereum/Presale.sol\":3682:3684  10 */\n      0x0a\n        /* \"Ethereum/Presale.sol\":3682:3733  10** uint256(ERC20(saleInfor.baseToken).decimals()) */\n      tag_141\n      jump\t// in\n    tag_173:\n        /* \"Ethereum/Presale.sol\":3671:3679  datas[6] */\n      0xc0\n      dup8\n      add\n      mload\n        /* \"Ethereum/Presale.sol\":3671:3733  datas[6] * 10** uint256(ERC20(saleInfor.baseToken).decimals()) */\n      tag_176\n      swap2\n      swap1\n      tag_146\n      jump\t// in\n    tag_176:\n        /* \"Ethereum/Presale.sol\":3645:3668  saleTotalSupply.softCap */\n      0x0e\n        /* \"Ethereum/Presale.sol\":3645:3733  saleTotalSupply.softCap = datas[6] * 10** uint256(ERC20(saleInfor.baseToken).decimals()) */\n      sstore\n        /* \"Ethereum/Presale.sol\":3797:3816  saleInfor.baseToken */\n      sload(0x11)\n        /* \"Ethereum/Presale.sol\":3780:3784  WETH */\n      sload(0x1b)\n        /* \"Ethereum/Presale.sol\":3744:3769  saleInfor.saleIsBaseToken */\n      0x19\n        /* \"Ethereum/Presale.sol\":3744:3817  saleInfor.saleIsBaseToken = address(WETH) == address(saleInfor.baseToken) */\n      dup1\n      sload\n      not(0xff)\n      and\n      sub(shl(0xa0, 0x01), 0x01)\n        /* \"Ethereum/Presale.sol\":3780:3784  WETH */\n      swap3\n      dup4\n      and\n        /* \"Ethereum/Presale.sol\":3797:3816  saleInfor.baseToken */\n      swap3\n      swap1\n      swap4\n      and\n        /* \"Ethereum/Presale.sol\":3772:3817  address(WETH) == address(saleInfor.baseToken) */\n      swap2\n      dup3\n      eq\n        /* \"Ethereum/Presale.sol\":3744:3817  saleInfor.saleIsBaseToken = address(WETH) == address(saleInfor.baseToken) */\n      swap3\n      swap1\n      swap3\n      or\n      swap1\n      swap2\n      sstore\n        /* \"Ethereum/Presale.sol\":3964:4001  ERC20(saleInfor.baseToken).decimals() */\n      0x40\n      dup1\n      mload\n      shl(0xe0, 0x313ce567)\n      dup2\n      mstore\n      swap1\n      mload\n        /* \"Ethereum/Presale.sol\":3964:3999  ERC20(saleInfor.baseToken).decimals */\n      0x313ce567\n      swap2\n        /* \"Ethereum/Presale.sol\":3964:4001  ERC20(saleInfor.baseToken).decimals() */\n      0x04\n      dup1\n      dup3\n      add\n      swap3\n      0x20\n      swap3\n      swap1\n      swap2\n      swap1\n      dup3\n      swap1\n      sub\n      add\n      dup2\n        /* \"Ethereum/Presale.sol\":3797:3816  saleInfor.baseToken */\n      dup7\n        /* \"Ethereum/Presale.sol\":3964:4001  ERC20(saleInfor.baseToken).decimals() */\n      dup1\n      extcodesize\n      iszero\n      dup1\n      iszero\n      tag_177\n      jumpi\n      0x00\n      dup1\n      revert\n    tag_177:\n      pop\n      gas\n      staticcall\n      iszero\n      dup1\n      iszero\n      tag_179\n      jumpi\n      returndatasize\n      0x00\n      dup1\n      returndatacopy\n      revert(0x00, returndatasize)\n    tag_179:\n      pop\n      pop\n      pop\n      pop\n      mload(0x40)\n      returndatasize\n      not(0x1f)\n      0x1f\n      dup3\n      add\n      and\n      dup3\n      add\n      dup1\n      0x40\n      mstore\n      pop\n      dup2\n      add\n      swap1\n      tag_180\n      swap2\n      swap1\n      tag_139\n      jump\t// in\n    tag_180:\n        /* \"Ethereum/Presale.sol\":3951:4002  10** uint256(ERC20(saleInfor.baseToken).decimals()) */\n      tag_181\n      swap1\n        /* \"Ethereum/Presale.sol\":3951:3953  10 */\n      0x0a\n        /* \"Ethereum/Presale.sol\":3951:4002  10** uint256(ERC20(saleInfor.baseToken).decimals()) */\n      tag_141\n      jump\t// in\n    tag_181:\n        /* \"Ethereum/Presale.sol\":3884:3899  saleTotalSupply */\n      0x0d\n        /* \"Ethereum/Presale.sol\":3884:3907  saleTotalSupply.hardCap */\n      sload\n        /* \"Ethereum/Presale.sol\":3859:3879  saleInfor.tokenPrice */\n      sload(0x12)\n        /* \"Ethereum/Presale.sol\":3859:3908  saleInfor.tokenPrice.mul(saleTotalSupply.hardCap) */\n      tag_182\n      swap2\n        /* \"Ethereum/Presale.sol\":3859:3883  saleInfor.tokenPrice.mul */\n      tag_183\n        /* \"Ethereum/Presale.sol\":3859:3908  saleInfor.tokenPrice.mul(saleTotalSupply.hardCap) */\n      jump\t// in\n    tag_182:\n        /* \"Ethereum/Presale.sol\":3859:4003  saleInfor.tokenPrice.mul(saleTotalSupply.hardCap)/\r... */\n      tag_184\n      swap2\n      swap1\n      tag_185\n      jump\t// in\n    tag_184:\n        /* \"Ethereum/Presale.sol\":3828:3856  saleInfor.amountTokenForSale */\n      0x1a\n        /* \"Ethereum/Presale.sol\":3828:4003  saleInfor.amountTokenForSale = saleInfor.tokenPrice.mul(saleTotalSupply.hardCap)/\r... */\n      sstore\n        /* \"Ethereum/Presale.sol\":4014:4023  feeAnyone */\n      0x1f\n        /* \"Ethereum/Presale.sol\":4014:4036  feeAnyone = _feeAnyone */\n      swap3\n      swap1\n      swap3\n      sstore\n        /* \"Ethereum/Presale.sol\":4047:4066  saleInfor.refundFee */\n      0x17\n        /* \"Ethereum/Presale.sol\":4047:4079  saleInfor.refundFee = _refundFee */\n      swap4\n      swap1\n      swap4\n      sstore\n        /* \"Ethereum/Presale.sol\":4090:4108  saleInfor.claimFee */\n      0x18\n        /* \"Ethereum/Presale.sol\":4090:4120  saleInfor.claimFee = _claimFee */\n      swap2\n      swap1\n      swap2\n      sstore\n        /* \"Ethereum/Presale.sol\":4131:4146  adminReceiveFee */\n      0x20\n        /* \"Ethereum/Presale.sol\":4131:4165  adminReceiveFee = _adminReceiveFee */\n      dup1\n      sload\n      not(sub(shl(0xa0, 0x01), 0x01))\n      and\n      sub(shl(0xa0, 0x01), 0x01)\n      swap1\n      swap4\n      and\n      swap3\n      swap1\n      swap3\n      or\n      swap1\n      swap2\n      sstore\n        /* \"Ethereum/Presale.sol\":4176:4189  feeCreateSale */\n      0x21\n        /* \"Ethereum/Presale.sol\":4176:4206  feeCreateSale = _feeCreateSale */\n      sstore\n      pop\n      pop\n      pop\n      pop\n        /* \"Ethereum/Presale.sol\":2740:4216  function initialSaleInfor(\r... */\n      jump\t// out\n        /* \"Ethereum/Presale.sol\":4225:4562  function status() public view returns(uint256) {\r... */\n    tag_51:\n        /* \"Ethereum/Presale.sol\":4304:4323  saleInfor.startSale */\n      sload(0x13)\n        /* \"Ethereum/Presale.sol\":4263:4270  uint256 */\n      0x00\n      swap1\n        /* \"Ethereum/Presale.sol\":4286:4301  block.timestamp */\n      timestamp\n        /* \"Ethereum/Presale.sol\":4286:4323  block.timestamp < saleInfor.startSale */\n      lt\n        /* \"Ethereum/Presale.sol\":4283:4555  if(block.timestamp < saleInfor.startSale) {\r... */\n      iszero\n      tag_187\n      jumpi\n      pop\n        /* \"Ethereum/Presale.sol\":4347:4348  0 */\n      0x00\n      swap1\n        /* \"Ethereum/Presale.sol\":4225:4562  function status() public view returns(uint256) {\r... */\n      jump\t// out\n        /* \"Ethereum/Presale.sol\":4283:4555  if(block.timestamp < saleInfor.startSale) {\r... */\n    tag_187:\n        /* \"Ethereum/Presale.sol\":4414:4431  saleInfor.endSale */\n      sload(0x14)\n        /* \"Ethereum/Presale.sol\":4396:4411  block.timestamp */\n      timestamp\n        /* \"Ethereum/Presale.sol\":4396:4431  block.timestamp > saleInfor.endSale */\n      gt\n        /* \"Ethereum/Presale.sol\":4393:4544  if(block.timestamp > saleInfor.endSale) {\r... */\n      iszero\n      tag_189\n      jumpi\n      pop\n        /* \"Ethereum/Presale.sol\":4459:4460  2 */\n      0x02\n      swap1\n        /* \"Ethereum/Presale.sol\":4225:4562  function status() public view returns(uint256) {\r... */\n      jump\t// out\n        /* \"Ethereum/Presale.sol\":4393:4544  if(block.timestamp > saleInfor.endSale) {\r... */\n    tag_189:\n      pop\n        /* \"Ethereum/Presale.sol\":4517:4518  1 */\n      0x01\n      swap1\n        /* \"Ethereum/Presale.sol\":4225:4562  function status() public view returns(uint256) {\r... */\n      jump\t// out\n        /* \"Utils/Ownable.sol\":1714:1817  function renounceOwnership() public virtual onlyOwner {\r... */\n    tag_65:\n        /* \"Utils/Ownable.sol\":1136:1142  _owner */\n      and(sub(shl(0xa0, 0x01), 0x01), sload(0x01))\n        /* \"Utils/Context.sol\":736:746  msg.sender */\n      caller\n        /* \"Utils/Ownable.sol\":1283:1306  owner() == _msgSender() */\n      eq\n        /* \"Utils/Ownable.sol\":1275:1343  require(owner() == _msgSender(), \"Ownable: caller is not the owner\") */\n      tag_195\n      jumpi\n      mload(0x40)\n      shl(0xe5, 0x461bcd)\n      dup2\n      mstore\n        /* \"#utility.yul\":10212:10214   */\n      0x20\n        /* \"Utils/Ownable.sol\":1275:1343  require(owner() == _msgSender(), \"Ownable: caller is not the owner\") */\n      0x04\n      dup3\n      add\n        /* \"#utility.yul\":10194:10215   */\n      dup2\n      swap1\n      mstore\n        /* \"#utility.yul\":10231:10249   */\n      0x24\n      dup3\n      add\n        /* \"#utility.yul\":10224:10254   */\n      mstore\n        /* \"#utility.yul\":10290:10324   */\n      0x4f776e61626c653a2063616c6c6572206973206e6f7420746865206f776e6572\n        /* \"#utility.yul\":10270:10288   */\n      0x44\n      dup3\n      add\n        /* \"#utility.yul\":10263:10325   */\n      mstore\n        /* \"#utility.yul\":10342:10360   */\n      0x64\n      add\n        /* \"Utils/Ownable.sol\":1275:1343  require(owner() == _msgSender(), \"Ownable: caller is not the owner\") */\n    tag_196:\n      mload(0x40)\n      dup1\n      swap2\n      sub\n      swap1\n      revert\n    tag_195:\n        /* \"Utils/Ownable.sol\":1779:1809  _transferOwnership(address(0)) */\n      tag_199\n        /* \"Utils/Ownable.sol\":1806:1807  0 */\n      0x00\n        /* \"Utils/Ownable.sol\":1779:1797  _transferOwnership */\n      tag_200\n        /* \"Utils/Ownable.sol\":1779:1809  _transferOwnership(address(0)) */\n      jump\t// in\n    tag_199:\n        /* \"Utils/Ownable.sol\":1714:1817  function renounceOwnership() public virtual onlyOwner {\r... */\n      jump\t// out\n        /* \"Ethereum/Presale.sol\":12095:12203  function backToken() external payable {\r... */\n    tag_67:\n        /* \"Ethereum/Presale.sol\":12144:12195  payable(msg.sender).transfer(address(this).balance) */\n      mload(0x40)\n        /* \"Ethereum/Presale.sol\":12152:12162  msg.sender */\n      caller\n      swap1\n        /* \"Ethereum/Presale.sol\":12173:12194  address(this).balance */\n      selfbalance\n        /* \"Ethereum/Presale.sol\":12144:12195  payable(msg.sender).transfer(address(this).balance) */\n      dup1\n      iszero\n      0x08fc\n      mul\n      swap2\n      0x00\n      dup2\n      dup2\n      dup2\n        /* \"Ethereum/Presale.sol\":12173:12194  address(this).balance */\n      dup6\n        /* \"Ethereum/Presale.sol\":12152:12162  msg.sender */\n      dup9\n        /* \"Ethereum/Presale.sol\":12144:12195  payable(msg.sender).transfer(address(this).balance) */\n      dup9\n      call\n      swap4\n      pop\n      pop\n      pop\n      pop\n      iszero\n      dup1\n      iszero\n      tag_203\n      jumpi\n      returndatasize\n      0x00\n      dup1\n      returndatacopy\n      revert(0x00, returndatasize)\n    tag_203:\n      pop\n        /* \"Ethereum/Presale.sol\":12095:12203  function backToken() external payable {\r... */\n      jump\t// out\n        /* \"Ethereum/Presale.sol\":9182:10384  function ownerClaimAndRefundToken() external onlyPresaleOwner nonReentrant{\r... */\n    tag_79:\n        /* \"Ethereum/Presale.sol\":2237:2246  saleInfor */\n      0x0f\n        /* \"Ethereum/Presale.sol\":2237:2259  saleInfor.presaleOwner */\n      sload\n      sub(shl(0xa0, 0x01), 0x01)\n      and\n        /* \"Utils/Context.sol\":736:746  msg.sender */\n      caller\n      sub(shl(0xa0, 0x01), 0x01)\n        /* \"Ethereum/Presale.sol\":2221:2259  _msgSender() == saleInfor.presaleOwner */\n      and\n      eq\n        /* \"Ethereum/Presale.sol\":2213:2282  require(_msgSender() == saleInfor.presaleOwner, \"Only presale owner\") */\n      tag_207\n      jumpi\n      mload(0x40)\n      shl(0xe5, 0x461bcd)\n      dup2\n      mstore\n        /* \"#utility.yul\":9865:9867   */\n      0x20\n        /* \"Ethereum/Presale.sol\":2213:2282  require(_msgSender() == saleInfor.presaleOwner, \"Only presale owner\") */\n      0x04\n      dup3\n      add\n        /* \"#utility.yul\":9847:9868   */\n      mstore\n        /* \"#utility.yul\":9904:9906   */\n      0x12\n        /* \"#utility.yul\":9884:9902   */\n      0x24\n      dup3\n      add\n        /* \"#utility.yul\":9877:9907   */\n      mstore\n      shl(0x71, 0x27b7363c90383932b9b0b6329037bbb732b9)\n        /* \"#utility.yul\":9923:9941   */\n      0x44\n      dup3\n      add\n        /* \"#utility.yul\":9916:9964   */\n      mstore\n        /* \"#utility.yul\":9981:9999   */\n      0x64\n      add\n        /* \"Ethereum/Presale.sol\":2213:2282  require(_msgSender() == saleInfor.presaleOwner, \"Only presale owner\") */\n      tag_196\n        /* \"#utility.yul\":9837:10005   */\n      jump\n        /* \"Ethereum/Presale.sol\":2213:2282  require(_msgSender() == saleInfor.presaleOwner, \"Only presale owner\") */\n    tag_207:\n        /* \"Utils/ReentrancyGuard.sol\":1778:1779  2 */\n      0x02\n        /* \"Utils/ReentrancyGuard.sol\":2376:2383  _status */\n      sload(0x00)\n        /* \"Utils/ReentrancyGuard.sol\":2376:2395  _status != _ENTERED */\n      eq\n      iszero\n        /* \"Utils/ReentrancyGuard.sol\":2368:2431  require(_status != _ENTERED, \"ReentrancyGuard: reentrant call\") */\n      tag_211\n      jumpi\n      mload(0x40)\n      shl(0xe5, 0x461bcd)\n      dup2\n      mstore\n      0x04\n      add\n      tag_196\n      swap1\n      tag_213\n      jump\t// in\n    tag_211:\n        /* \"Utils/ReentrancyGuard.sol\":1778:1779  2 */\n      0x02\n        /* \"Utils/ReentrancyGuard.sol\":2509:2516  _status */\n      0x00\n        /* \"Utils/ReentrancyGuard.sol\":2509:2527  _status = _ENTERED */\n      swap1\n      dup2\n      sstore\n        /* \"Ethereum/Presale.sol\":9365:9384  saleInfor.saleToken */\n      sload(0x10)\n        /* \"Ethereum/Presale.sol\":9359:9410  ERC20(saleInfor.saleToken).balanceOf(address(this)) */\n      mload(0x40)\n      shl(0xe0, 0x70a08231)\n      dup2\n      mstore\n        /* \"Ethereum/Presale.sol\":9404:9408  this */\n      address\n        /* \"Ethereum/Presale.sol\":9359:9410  ERC20(saleInfor.saleToken).balanceOf(address(this)) */\n      0x04\n      dup3\n      add\n        /* \"#utility.yul\":3477:3528   */\n      mstore\n      sub(shl(0xa0, 0x01), 0x01)\n        /* \"Ethereum/Presale.sol\":9365:9384  saleInfor.saleToken */\n      swap1\n      swap2\n      and\n      swap1\n        /* \"Ethereum/Presale.sol\":9359:9395  ERC20(saleInfor.saleToken).balanceOf */\n      0x70a08231\n      swap1\n        /* \"#utility.yul\":3450:3468   */\n      0x24\n      add\n        /* \"Ethereum/Presale.sol\":9359:9410  ERC20(saleInfor.saleToken).balanceOf(address(this)) */\n      0x20\n      mload(0x40)\n      dup1\n      dup4\n      sub\n      dup2\n      dup7\n      dup1\n      extcodesize\n      iszero\n      dup1\n      iszero\n      tag_216\n      jumpi\n      0x00\n      dup1\n      revert\n    tag_216:\n      pop\n      gas\n      staticcall\n      iszero\n      dup1\n      iszero\n      tag_218\n      jumpi\n      returndatasize\n      0x00\n      dup1\n      returndatacopy\n      revert(0x00, returndatasize)\n    tag_218:\n      pop\n      pop\n      pop\n      pop\n      mload(0x40)\n      returndatasize\n      not(0x1f)\n      0x1f\n      dup3\n      add\n      and\n      dup3\n      add\n      dup1\n      0x40\n      mstore\n      pop\n      dup2\n      add\n      swap1\n      tag_219\n      swap2\n      swap1\n      tag_139\n      jump\t// in\n    tag_219:\n        /* \"Ethereum/Presale.sol\":9547:9583  presaleStatus.totalTokenBackForAdmin */\n      sload(0x08)\n        /* \"Ethereum/Presale.sol\":9547:9560  presaleStatus */\n      0x04\n        /* \"Ethereum/Presale.sol\":9461:9493  presaleStatus.totalBaseCollected */\n      sload\n        /* \"Ethereum/Presale.sol\":9327:9410  uint256 amountOwnerClaimToken = ERC20(saleInfor.saleToken).balanceOf(address(this)) */\n      swap2\n      swap3\n      pop\n        /* \"Ethereum/Presale.sol\":9422:9457  uint256 amountOwnerRefundNativeCoin */\n      0x00\n      swap2\n        /* \"Ethereum/Presale.sol\":9461:9633  presaleStatus.totalBaseCollected\r... */\n      tag_220\n      swap2\n        /* \"Ethereum/Presale.sol\":9461:9546  presaleStatus.totalBaseCollected\r... */\n      tag_221\n        /* \"Ethereum/Presale.sol\":9461:9633  presaleStatus.totalBaseCollected\r... */\n      jump\t// in\n    tag_220:\n        /* \"Ethereum/Presale.sol\":9648:9661  presaleStatus */\n      0x04\n        /* \"Ethereum/Presale.sol\":9648:9680  presaleStatus.totalBaseCollected */\n      sload\n        /* \"Ethereum/Presale.sol\":9422:9634  uint256 amountOwnerRefundNativeCoin = (presaleStatus.totalBaseCollected\r... */\n      swap1\n      swap2\n      pop\n        /* \"Ethereum/Presale.sol\":9648:9685  presaleStatus.totalBaseCollected != 0 */\n      iszero\n        /* \"Ethereum/Presale.sol\":9645:9928  if(presaleStatus.totalBaseCollected != 0){\r... */\n      tag_222\n      jumpi\n        /* \"Ethereum/Presale.sol\":9860:9896  presaleStatus.totalTokenBackForAdmin */\n      sload(0x08)\n        /* \"Ethereum/Presale.sol\":9789:9817  presaleStatus.totalTokenSold */\n      sload(0x05)\n        /* \"Ethereum/Presale.sol\":9725:9898  amountOwnerClaimToken\r... */\n      tag_223\n      swap2\n        /* \"Ethereum/Presale.sol\":9789:9897  presaleStatus.totalTokenSold\r... */\n      tag_224\n      swap2\n        /* \"Ethereum/Presale.sol\":9789:9817  presaleStatus.totalTokenSold */\n      swap1\n        /* \"Ethereum/Presale.sol\":9789:9859  presaleStatus.totalTokenSold\r... */\n      tag_221\n        /* \"Ethereum/Presale.sol\":9789:9897  presaleStatus.totalTokenSold\r... */\n      jump\t// in\n    tag_224:\n        /* \"Ethereum/Presale.sol\":9725:9746  amountOwnerClaimToken */\n      dup4\n      swap1\n        /* \"Ethereum/Presale.sol\":9725:9788  amountOwnerClaimToken\r... */\n      tag_221\n        /* \"Ethereum/Presale.sol\":9725:9898  amountOwnerClaimToken\r... */\n      jump\t// in\n    tag_223:\n        /* \"Ethereum/Presale.sol\":9701:9898  amountOwnerClaimToken = amountOwnerClaimToken\r... */\n      swap2\n      pop\n        /* \"Ethereum/Presale.sol\":9645:9928  if(presaleStatus.totalBaseCollected != 0){\r... */\n    tag_222:\n        /* \"Ethereum/Presale.sol\":9947:9982  presaleStatus.isOwnerClaimSaleToken */\n      and(0xff, sload(0x0b))\n        /* \"Ethereum/Presale.sol\":9946:9982  !presaleStatus.isOwnerClaimSaleToken */\n      iszero\n        /* \"Ethereum/Presale.sol\":9938:10016  require(!presaleStatus.isOwnerClaimSaleToken, \"Nothing for owner claim token\") */\n      tag_225\n      jumpi\n      mload(0x40)\n      shl(0xe5, 0x461bcd)\n      dup2\n      mstore\n        /* \"#utility.yul\":11321:11323   */\n      0x20\n        /* \"Ethereum/Presale.sol\":9938:10016  require(!presaleStatus.isOwnerClaimSaleToken, \"Nothing for owner claim token\") */\n      0x04\n      dup3\n      add\n        /* \"#utility.yul\":11303:11324   */\n      mstore\n        /* \"#utility.yul\":11360:11362   */\n      0x1d\n        /* \"#utility.yul\":11340:11358   */\n      0x24\n      dup3\n      add\n        /* \"#utility.yul\":11333:11363   */\n      mstore\n        /* \"#utility.yul\":11399:11430   */\n      0x4e6f7468696e6720666f72206f776e657220636c61696d20746f6b656e000000\n        /* \"#utility.yul\":11379:11397   */\n      0x44\n      dup3\n      add\n        /* \"#utility.yul\":11372:11431   */\n      mstore\n        /* \"#utility.yul\":11448:11466   */\n      0x64\n      add\n        /* \"Ethereum/Presale.sol\":9938:10016  require(!presaleStatus.isOwnerClaimSaleToken, \"Nothing for owner claim token\") */\n      tag_196\n        /* \"#utility.yul\":11293:11472   */\n      jump\n        /* \"Ethereum/Presale.sol\":9938:10016  require(!presaleStatus.isOwnerClaimSaleToken, \"Nothing for owner claim token\") */\n    tag_225:\n        /* \"Ethereum/Presale.sol\":10036:10072  presaleStatus.isOwnerRefundBaseToken */\n      sload(0x0b)\n      0x0100\n      swap1\n      div\n      0xff\n      and\n        /* \"Ethereum/Presale.sol\":10035:10072  !presaleStatus.isOwnerRefundBaseToken */\n      iszero\n        /* \"Ethereum/Presale.sol\":10027:10107  require(!presaleStatus.isOwnerRefundBaseToken, \"Nothing for owner refund token\") */\n      tag_228\n      jumpi\n      mload(0x40)\n      shl(0xe5, 0x461bcd)\n      dup2\n      mstore\n        /* \"#utility.yul\":7664:7666   */\n      0x20\n        /* \"Ethereum/Presale.sol\":10027:10107  require(!presaleStatus.isOwnerRefundBaseToken, \"Nothing for owner refund token\") */\n      0x04\n      dup3\n      add\n        /* \"#utility.yul\":7646:7667   */\n      mstore\n        /* \"#utility.yul\":7703:7705   */\n      0x1e\n        /* \"#utility.yul\":7683:7701   */\n      0x24\n      dup3\n      add\n        /* \"#utility.yul\":7676:7706   */\n      mstore\n        /* \"#utility.yul\":7742:7774   */\n      0x4e6f7468696e6720666f72206f776e657220726566756e6420746f6b656e0000\n        /* \"#utility.yul\":7722:7740   */\n      0x44\n      dup3\n      add\n        /* \"#utility.yul\":7715:7775   */\n      mstore\n        /* \"#utility.yul\":7792:7810   */\n      0x64\n      add\n        /* \"Ethereum/Presale.sol\":10027:10107  require(!presaleStatus.isOwnerRefundBaseToken, \"Nothing for owner refund token\") */\n      tag_196\n        /* \"#utility.yul\":7636:7816   */\n      jump\n        /* \"Ethereum/Presale.sol\":10027:10107  require(!presaleStatus.isOwnerRefundBaseToken, \"Nothing for owner refund token\") */\n    tag_228:\n        /* \"Ethereum/Presale.sol\":10118:10153  presaleStatus.isOwnerClaimSaleToken */\n      0x0b\n        /* \"Ethereum/Presale.sol\":10118:10160  presaleStatus.isOwnerClaimSaleToken = true */\n      dup1\n      sload\n      not(0xff)\n      and\n        /* \"Ethereum/Presale.sol\":10156:10160  true */\n      0x01\n        /* \"Ethereum/Presale.sol\":10118:10160  presaleStatus.isOwnerClaimSaleToken = true */\n      or\n      swap1\n      sstore\n      0x00\n        /* \"Ethereum/Presale.sol\":10171:10199  saleInfor.amountTokenForSale */\n      0x1a\n        /* \"Ethereum/Presale.sol\":10171:10203  saleInfor.amountTokenForSale = 0 */\n      sstore\n        /* \"Ethereum/Presale.sol\":10220:10239  saleInfor.saleToken */\n      sload(0x10)\n        /* \"Ethereum/Presale.sol\":10171:10180  saleInfor */\n      0x0f\n        /* \"Ethereum/Presale.sol\":10250:10272  saleInfor.presaleOwner */\n      sload\n        /* \"Ethereum/Presale.sol\":10214:10296  ERC20(saleInfor.saleToken).transfer(saleInfor.presaleOwner, amountOwnerClaimToken) */\n      mload(0x40)\n      shl(0xe0, 0xa9059cbb)\n      dup2\n      mstore\n      sub(shl(0xa0, 0x01), 0x01)\n        /* \"Ethereum/Presale.sol\":10250:10272  saleInfor.presaleOwner */\n      swap2\n      dup3\n      and\n        /* \"Ethereum/Presale.sol\":10118:10131  presaleStatus */\n      0x04\n        /* \"Ethereum/Presale.sol\":10214:10296  ERC20(saleInfor.saleToken).transfer(saleInfor.presaleOwner, amountOwnerClaimToken) */\n      dup3\n      add\n        /* \"#utility.yul\":4814:4865   */\n      mstore\n        /* \"#utility.yul\":4881:4899   */\n      0x24\n      dup2\n      add\n        /* \"#utility.yul\":4874:4908   */\n      dup6\n      swap1\n      mstore\n        /* \"Ethereum/Presale.sol\":10220:10239  saleInfor.saleToken */\n      swap2\n      and\n      swap1\n        /* \"Ethereum/Presale.sol\":10214:10249  ERC20(saleInfor.saleToken).transfer */\n      0xa9059cbb\n      swap1\n        /* \"#utility.yul\":4787:4805   */\n      0x44\n      add\n        /* \"Ethereum/Presale.sol\":10214:10296  ERC20(saleInfor.saleToken).transfer(saleInfor.presaleOwner, amountOwnerClaimToken) */\n      0x20\n      mload(0x40)\n      dup1\n      dup4\n      sub\n      dup2\n      0x00\n      dup8\n      dup1\n      extcodesize\n      iszero\n      dup1\n      iszero\n      tag_233\n      jumpi\n      0x00\n      dup1\n      revert\n    tag_233:\n      pop\n      gas\n      call\n      iszero\n      dup1\n      iszero\n      tag_235\n      jumpi\n      returndatasize\n      0x00\n      dup1\n      returndatacopy\n      revert(0x00, returndatasize)\n    tag_235:\n      pop\n      pop\n      pop\n      pop\n      mload(0x40)\n      returndatasize\n      not(0x1f)\n      0x1f\n      dup3\n      add\n      and\n      dup3\n      add\n      dup1\n      0x40\n      mstore\n      pop\n      dup2\n      add\n      swap1\n      tag_236\n      swap2\n      swap1\n      tag_237\n      jump\t// in\n    tag_236:\n      pop\n        /* \"Ethereum/Presale.sol\":10315:10324  saleInfor */\n      0x0f\n        /* \"Ethereum/Presale.sol\":10315:10337  saleInfor.presaleOwner */\n      sload\n        /* \"Ethereum/Presale.sol\":10307:10376  payable(saleInfor.presaleOwner).transfer(amountOwnerRefundNativeCoin) */\n      mload(0x40)\n      sub(shl(0xa0, 0x01), 0x01)\n        /* \"Ethereum/Presale.sol\":10315:10337  saleInfor.presaleOwner */\n      swap1\n      swap2\n      and\n      swap1\n        /* \"Ethereum/Presale.sol\":10307:10376  payable(saleInfor.presaleOwner).transfer(amountOwnerRefundNativeCoin) */\n      dup3\n      iszero\n      0x08fc\n      mul\n      swap1\n        /* \"Ethereum/Presale.sol\":10348:10375  amountOwnerRefundNativeCoin */\n      dup4\n      swap1\n        /* \"Ethereum/Presale.sol\":10315:10337  saleInfor.presaleOwner */\n      0x00\n        /* \"Ethereum/Presale.sol\":10307:10376  payable(saleInfor.presaleOwner).transfer(amountOwnerRefundNativeCoin) */\n      dup2\n        /* \"Ethereum/Presale.sol\":10315:10337  saleInfor.presaleOwner */\n      dup2\n        /* \"Ethereum/Presale.sol\":10307:10376  payable(saleInfor.presaleOwner).transfer(amountOwnerRefundNativeCoin) */\n      dup2\n        /* \"Ethereum/Presale.sol\":10348:10375  amountOwnerRefundNativeCoin */\n      dup6\n        /* \"Ethereum/Presale.sol\":10315:10337  saleInfor.presaleOwner */\n      dup9\n        /* \"Ethereum/Presale.sol\":10307:10376  payable(saleInfor.presaleOwner).transfer(amountOwnerRefundNativeCoin) */\n      dup9\n      call\n      swap4\n      pop\n      pop\n      pop\n      pop\n      iszero\n      dup1\n      iszero\n      tag_239\n      jumpi\n      returndatasize\n      0x00\n      dup1\n      returndatacopy\n      revert(0x00, returndatasize)\n    tag_239:\n      pop\n      pop\n        /* \"Utils/ReentrancyGuard.sol\":1734:1735  1 */\n      0x01\n        /* \"Utils/ReentrancyGuard.sol\":2688:2695  _status */\n      0x00\n        /* \"Utils/ReentrancyGuard.sol\":2688:2710  _status = _NOT_ENTERED */\n      sstore\n      pop\n        /* \"Ethereum/Presale.sol\":9182:10384  function ownerClaimAndRefundToken() external onlyPresaleOwner nonReentrant{\r... */\n      jump\t// out\n        /* \"Ethereum/Presale.sol\":8046:9174  function userRefundEmergency() external nonReentrant {\r... */\n    tag_82:\n        /* \"Utils/ReentrancyGuard.sol\":1778:1779  2 */\n      0x02\n        /* \"Utils/ReentrancyGuard.sol\":2376:2383  _status */\n      sload(0x00)\n        /* \"Utils/ReentrancyGuard.sol\":2376:2395  _status != _ENTERED */\n      eq\n      iszero\n        /* \"Utils/ReentrancyGuard.sol\":2368:2431  require(_status != _ENTERED, \"ReentrancyGuard: reentrant call\") */\n      tag_241\n      jumpi\n      mload(0x40)\n      shl(0xe5, 0x461bcd)\n      dup2\n      mstore\n      0x04\n      add\n      tag_196\n      swap1\n      tag_213\n      jump\t// in\n    tag_241:\n        /* \"Utils/ReentrancyGuard.sol\":1778:1779  2 */\n      0x02\n        /* \"Utils/ReentrancyGuard.sol\":2509:2516  _status */\n      0x00\n        /* \"Utils/ReentrancyGuard.sol\":2509:2527  _status = _ENTERED */\n      swap1\n      dup2\n      sstore\n        /* \"Ethereum/Presale.sol\":8205:8236  presaleStatus.totalBaseWithDraw */\n      sload(0x07)\n        /* \"Ethereum/Presale.sol\":8205:8218  presaleStatus */\n      0x04\n        /* \"Ethereum/Presale.sol\":8170:8202  presaleStatus.totalBaseCollected */\n      sload\n        /* \"Ethereum/Presale.sol\":8170:8236  presaleStatus.totalBaseCollected - presaleStatus.totalBaseWithDraw */\n      tag_244\n      swap2\n        /* \"Ethereum/Presale.sol\":8205:8236  presaleStatus.totalBaseWithDraw */\n      swap1\n        /* \"Ethereum/Presale.sol\":8170:8236  presaleStatus.totalBaseCollected - presaleStatus.totalBaseWithDraw */\n      tag_245\n      jump\t// in\n    tag_244:\n        /* \"Ethereum/Presale.sol\":8170:8240  presaleStatus.totalBaseCollected - presaleStatus.totalBaseWithDraw > 0 */\n      gt\n        /* \"Ethereum/Presale.sol\":8162:8299  require(presaleStatus.totalBaseCollected - presaleStatus.totalBaseWithDraw > 0, \r... */\n      tag_246\n      jumpi\n      mload(0x40)\n      shl(0xe5, 0x461bcd)\n      dup2\n      mstore\n      0x04\n      add\n      tag_196\n      swap1\n      tag_248\n      jump\t// in\n    tag_246:\n        /* \"Ethereum/Presale.sol\":8347:8357  msg.sender */\n      caller\n        /* \"Ethereum/Presale.sol\":8311:8334  BuyerInfo storage buyer */\n      0x00\n        /* \"Ethereum/Presale.sol\":8337:8358  buyerInfo[msg.sender] */\n      swap1\n      dup2\n      mstore\n        /* \"Ethereum/Presale.sol\":8337:8346  buyerInfo */\n      0x02\n        /* \"Ethereum/Presale.sol\":8337:8358  buyerInfo[msg.sender] */\n      0x20\n      mstore\n      0x40\n      swap1\n      keccak256\n        /* \"Ethereum/Presale.sol\":8377:8394  buyer.baseDeposit */\n      dup1\n      sload\n        /* \"Ethereum/Presale.sol\":8369:8426  require(buyer.baseDeposit > 0, \"You have not bought yet\") */\n      tag_249\n      jumpi\n      mload(0x40)\n      shl(0xe5, 0x461bcd)\n      dup2\n      mstore\n        /* \"#utility.yul\":6194:6196   */\n      0x20\n        /* \"Ethereum/Presale.sol\":8369:8426  require(buyer.baseDeposit > 0, \"You have not bought yet\") */\n      0x04\n      dup3\n      add\n        /* \"#utility.yul\":6176:6197   */\n      mstore\n        /* \"#utility.yul\":6233:6235   */\n      0x17\n        /* \"#utility.yul\":6213:6231   */\n      0x24\n      dup3\n      add\n        /* \"#utility.yul\":6206:6236   */\n      mstore\n      shl(0x4a, 0x165bdd481a185d99481b9bdd08189bdd59da1d081e595d)\n        /* \"#utility.yul\":6252:6270   */\n      0x44\n      dup3\n      add\n        /* \"#utility.yul\":6245:6298   */\n      mstore\n        /* \"#utility.yul\":6315:6333   */\n      0x64\n      add\n        /* \"Ethereum/Presale.sol\":8369:8426  require(buyer.baseDeposit > 0, \"You have not bought yet\") */\n      tag_196\n        /* \"#utility.yul\":6166:6339   */\n      jump\n        /* \"Ethereum/Presale.sol\":8369:8426  require(buyer.baseDeposit > 0, \"You have not bought yet\") */\n    tag_249:\n        /* \"Ethereum/Presale.sol\":8465:8488  buyer.totalBaseWithDraw */\n      0x04\n      dup2\n      add\n      sload\n        /* \"Ethereum/Presale.sol\":8445:8462  buyer.baseDeposit */\n      dup2\n      sload\n        /* \"Ethereum/Presale.sol\":8445:8488  buyer.baseDeposit > buyer.totalBaseWithDraw */\n      gt\n        /* \"Ethereum/Presale.sol\":8437:8507  require(buyer.baseDeposit > buyer.totalBaseWithDraw, \"You refund all\") */\n      tag_252\n      jumpi\n      mload(0x40)\n      shl(0xe5, 0x461bcd)\n      dup2\n      mstore\n        /* \"#utility.yul\":10573:10575   */\n      0x20\n        /* \"Ethereum/Presale.sol\":8437:8507  require(buyer.baseDeposit > buyer.totalBaseWithDraw, \"You refund all\") */\n      0x04\n      dup3\n      add\n        /* \"#utility.yul\":10555:10576   */\n      mstore\n        /* \"#utility.yul\":10612:10614   */\n      0x0e\n        /* \"#utility.yul\":10592:10610   */\n      0x24\n      dup3\n      add\n        /* \"#utility.yul\":10585:10615   */\n      mstore\n      shl(0x92, 0x165bdd481c99599d5b9908185b1b)\n        /* \"#utility.yul\":10631:10649   */\n      0x44\n      dup3\n      add\n        /* \"#utility.yul\":10624:10668   */\n      mstore\n        /* \"#utility.yul\":10685:10703   */\n      0x64\n      add\n        /* \"Ethereum/Presale.sol\":8437:8507  require(buyer.baseDeposit > buyer.totalBaseWithDraw, \"You refund all\") */\n      tag_196\n        /* \"#utility.yul\":10545:10709   */\n      jump\n        /* \"Ethereum/Presale.sol\":8437:8507  require(buyer.baseDeposit > buyer.totalBaseWithDraw, \"You refund all\") */\n    tag_252:\n        /* \"Ethereum/Presale.sol\":8620:8637  buyer.baseDeposit */\n      dup1\n      sload\n        /* \"Ethereum/Presale.sol\":8561:8580  saleInfor.refundFee */\n      sload(0x17)\n        /* \"Ethereum/Presale.sol\":8518:8538  uint256 amountRefund */\n      0x00\n      swap2\n        /* \"Ethereum/Presale.sol\":8541:8691  ((uint256(1000).sub(saleInfor.refundFee))\r... */\n      tag_255\n      swap2\n        /* \"Ethereum/Presale.sol\":8685:8689  1000 */\n      0x03e8\n      swap2\n        /* \"Ethereum/Presale.sol\":8542:8638  (uint256(1000).sub(saleInfor.refundFee))\r... */\n      tag_256\n      swap2\n        /* \"Ethereum/Presale.sol\":8543:8581  uint256(1000).sub(saleInfor.refundFee) */\n      tag_257\n      swap1\n        /* \"Ethereum/Presale.sol\":8685:8689  1000 */\n      dup5\n      swap1\n        /* \"Ethereum/Presale.sol\":8543:8560  uint256(1000).sub */\n      tag_221\n        /* \"Ethereum/Presale.sol\":8543:8581  uint256(1000).sub(saleInfor.refundFee) */\n      jump\t// in\n    tag_257:\n        /* \"Ethereum/Presale.sol\":8542:8619  (uint256(1000).sub(saleInfor.refundFee))\r... */\n      swap1\n      tag_183\n        /* \"Ethereum/Presale.sol\":8542:8638  (uint256(1000).sub(saleInfor.refundFee))\r... */\n      jump\t// in\n    tag_256:\n        /* \"Ethereum/Presale.sol\":8541:8676  ((uint256(1000).sub(saleInfor.refundFee))\r... */\n      swap1\n      tag_258\n        /* \"Ethereum/Presale.sol\":8541:8691  ((uint256(1000).sub(saleInfor.refundFee))\r... */\n      jump\t// in\n    tag_255:\n        /* \"Ethereum/Presale.sol\":8710:8725  adminReceiveFee */\n      sload(0x20)\n        /* \"Ethereum/Presale.sol\":8736:8753  buyer.baseDeposit */\n      dup4\n      sload\n        /* \"Ethereum/Presale.sol\":8518:8691  uint256 amountRefund = ((uint256(1000).sub(saleInfor.refundFee))\r... */\n      swap2\n      swap3\n      pop\n      sub(shl(0xa0, 0x01), 0x01)\n        /* \"Ethereum/Presale.sol\":8710:8725  adminReceiveFee */\n      and\n      swap1\n        /* \"Ethereum/Presale.sol\":8702:8772  payable(adminReceiveFee).transfer(buyer.baseDeposit.sub(amountRefund)) */\n      0x08fc\n      swap1\n        /* \"Ethereum/Presale.sol\":8736:8771  buyer.baseDeposit.sub(amountRefund) */\n      tag_259\n      swap1\n        /* \"Ethereum/Presale.sol\":8518:8691  uint256 amountRefund = ((uint256(1000).sub(saleInfor.refundFee))\r... */\n      dup5\n        /* \"Ethereum/Presale.sol\":8736:8757  buyer.baseDeposit.sub */\n      tag_221\n        /* \"Ethereum/Presale.sol\":8736:8771  buyer.baseDeposit.sub(amountRefund) */\n      jump\t// in\n    tag_259:\n        /* \"Ethereum/Presale.sol\":8702:8772  payable(adminReceiveFee).transfer(buyer.baseDeposit.sub(amountRefund)) */\n      mload(0x40)\n      dup2\n      iszero\n      swap1\n      swap3\n      mul\n      swap2\n      0x00\n      dup2\n      dup2\n      dup2\n      dup6\n      dup9\n      dup9\n      call\n      swap4\n      pop\n      pop\n      pop\n      pop\n      iszero\n      dup1\n      iszero\n      tag_261\n      jumpi\n      returndatasize\n      0x00\n      dup1\n      returndatacopy\n      revert(0x00, returndatasize)\n    tag_261:\n      pop\n        /* \"Ethereum/Presale.sol\":8818:8835  buyer.baseDeposit */\n      dup2\n      sload\n        /* \"Ethereum/Presale.sol\":8818:8853  buyer.baseDeposit.sub(amountRefund) */\n      tag_262\n      swap1\n        /* \"Ethereum/Presale.sol\":8840:8852  amountRefund */\n      dup3\n        /* \"Ethereum/Presale.sol\":8818:8839  buyer.baseDeposit.sub */\n      tag_221\n        /* \"Ethereum/Presale.sol\":8818:8853  buyer.baseDeposit.sub(amountRefund) */\n      jump\t// in\n    tag_262:\n        /* \"Ethereum/Presale.sol\":8806:8814  totalFee */\n      0x1e\n      0x00\n        /* \"Ethereum/Presale.sol\":8806:8853  totalFee += buyer.baseDeposit.sub(amountRefund) */\n      dup3\n      dup3\n      sload\n      tag_263\n      swap2\n      swap1\n      tag_264\n      jump\t// in\n    tag_263:\n      swap1\n      swap2\n      sstore\n      pop\n      pop\n        /* \"Ethereum/Presale.sol\":8864:8895  presaleStatus.totalBaseWithDraw */\n      0x07\n        /* \"Ethereum/Presale.sol\":8864:8911  presaleStatus.totalBaseWithDraw += amountRefund */\n      dup1\n      sload\n        /* \"Ethereum/Presale.sol\":8899:8911  amountRefund */\n      dup3\n      swap2\n        /* \"Ethereum/Presale.sol\":8864:8895  presaleStatus.totalBaseWithDraw */\n      swap1\n      0x00\n      swap1\n        /* \"Ethereum/Presale.sol\":8864:8911  presaleStatus.totalBaseWithDraw += amountRefund */\n      tag_265\n      swap1\n        /* \"Ethereum/Presale.sol\":8899:8911  amountRefund */\n      dup5\n      swap1\n        /* \"Ethereum/Presale.sol\":8864:8911  presaleStatus.totalBaseWithDraw += amountRefund */\n      tag_264\n      jump\t// in\n    tag_265:\n      swap3\n      pop\n      pop\n      dup2\n      swap1\n      sstore\n      pop\n        /* \"Ethereum/Presale.sol\":8949:8961  amountRefund */\n      dup1\n        /* \"Ethereum/Presale.sol\":8922:8927  buyer */\n      dup3\n        /* \"Ethereum/Presale.sol\":8922:8945  buyer.totalBaseWithDraw */\n      0x04\n      add\n      0x00\n        /* \"Ethereum/Presale.sol\":8922:8961  buyer.totalBaseWithDraw += amountRefund */\n      dup3\n      dup3\n      sload\n      tag_266\n      swap2\n      swap1\n      tag_264\n      jump\t// in\n    tag_266:\n      swap1\n      swap2\n      sstore\n      pop\n      pop\n        /* \"Ethereum/Presale.sol\":8993:9008  block.timestamp */\n      timestamp\n        /* \"Ethereum/Presale.sol\":8972:8990  buyer.lastWithDraw */\n      0x02\n      dup4\n      add\n        /* \"Ethereum/Presale.sol\":8972:9008  buyer.lastWithDraw = block.timestamp */\n      sstore\n        /* \"Ethereum/Presale.sol\":9078:9102  buyer.totalTokenWithDraw */\n      0x03\n      dup3\n      add\n      sload\n        /* \"Ethereum/Presale.sol\":9059:9075  buyer.tokenOwner */\n      0x01\n      dup4\n      add\n      sload\n        /* \"Ethereum/Presale.sol\":9059:9102  buyer.tokenOwner - buyer.totalTokenWithDraw */\n      tag_267\n      swap2\n        /* \"Ethereum/Presale.sol\":9078:9102  buyer.totalTokenWithDraw */\n      swap1\n        /* \"Ethereum/Presale.sol\":9059:9102  buyer.tokenOwner - buyer.totalTokenWithDraw */\n      tag_245\n      jump\t// in\n    tag_267:\n        /* \"Ethereum/Presale.sol\":9019:9055  presaleStatus.totalTokenBackForAdmin */\n      0x08\n        /* \"Ethereum/Presale.sol\":9019:9102  presaleStatus.totalTokenBackForAdmin += buyer.tokenOwner - buyer.totalTokenWithDraw */\n      dup1\n      sload\n        /* \"Ethereum/Presale.sol\":9019:9055  presaleStatus.totalTokenBackForAdmin */\n      0x00\n      swap1\n        /* \"Ethereum/Presale.sol\":9019:9102  presaleStatus.totalTokenBackForAdmin += buyer.tokenOwner - buyer.totalTokenWithDraw */\n      tag_268\n      swap1\n      dup5\n      swap1\n      tag_264\n      jump\t// in\n    tag_268:\n      swap1\n      swap2\n      sstore\n      pop\n      pop\n        /* \"Ethereum/Presale.sol\":9124:9166  payable(msg.sender).transfer(amountRefund) */\n      mload(0x40)\n        /* \"Ethereum/Presale.sol\":9132:9142  msg.sender */\n      caller\n      swap1\n        /* \"Ethereum/Presale.sol\":9124:9166  payable(msg.sender).transfer(amountRefund) */\n      dup3\n      iszero\n      0x08fc\n      mul\n      swap1\n        /* \"Ethereum/Presale.sol\":9153:9165  amountRefund */\n      dup4\n      swap1\n        /* \"Ethereum/Presale.sol\":9124:9166  payable(msg.sender).transfer(amountRefund) */\n      0x00\n      dup2\n      dup2\n      dup2\n        /* \"Ethereum/Presale.sol\":9153:9165  amountRefund */\n      dup6\n        /* \"Ethereum/Presale.sol\":9132:9142  msg.sender */\n      dup9\n        /* \"Ethereum/Presale.sol\":9124:9166  payable(msg.sender).transfer(amountRefund) */\n      dup9\n      call\n      swap4\n      pop\n      pop\n      pop\n      pop\n      iszero\n      dup1\n      iszero\n      tag_239\n      jumpi\n      returndatasize\n      0x00\n      dup1\n      returndatacopy\n      revert(0x00, returndatasize)\n        /* \"Ethereum/Presale.sol\":6909:8038  function userClaimEmergency() external nonReentrant {\r... */\n    tag_85:\n        /* \"Utils/ReentrancyGuard.sol\":1778:1779  2 */\n      0x02\n        /* \"Utils/ReentrancyGuard.sol\":2376:2383  _status */\n      sload(0x00)\n        /* \"Utils/ReentrancyGuard.sol\":2376:2395  _status != _ENTERED */\n      eq\n      iszero\n        /* \"Utils/ReentrancyGuard.sol\":2368:2431  require(_status != _ENTERED, \"ReentrancyGuard: reentrant call\") */\n      tag_272\n      jumpi\n      mload(0x40)\n      shl(0xe5, 0x461bcd)\n      dup2\n      mstore\n      0x04\n      add\n      tag_196\n      swap1\n      tag_213\n      jump\t// in\n    tag_272:\n        /* \"Utils/ReentrancyGuard.sol\":1778:1779  2 */\n      0x02\n        /* \"Utils/ReentrancyGuard.sol\":2509:2516  _status */\n      0x00\n        /* \"Utils/ReentrancyGuard.sol\":2509:2527  _status = _ENTERED */\n      swap1\n      dup2\n      sstore\n        /* \"Ethereum/Presale.sol\":7064:7096  presaleStatus.totalTokenWithDraw */\n      sload(0x06)\n        /* \"Ethereum/Presale.sol\":7033:7061  presaleStatus.totalTokenSold */\n      sload(0x05)\n        /* \"Ethereum/Presale.sol\":7033:7096  presaleStatus.totalTokenSold - presaleStatus.totalTokenWithDraw */\n      tag_275\n      swap2\n        /* \"Ethereum/Presale.sol\":7064:7096  presaleStatus.totalTokenWithDraw */\n      swap1\n        /* \"Ethereum/Presale.sol\":7033:7096  presaleStatus.totalTokenSold - presaleStatus.totalTokenWithDraw */\n      tag_245\n      jump\t// in\n    tag_275:\n        /* \"Ethereum/Presale.sol\":7033:7100  presaleStatus.totalTokenSold - presaleStatus.totalTokenWithDraw > 0 */\n      gt\n        /* \"Ethereum/Presale.sol\":7025:7159  require(presaleStatus.totalTokenSold - presaleStatus.totalTokenWithDraw > 0, \r... */\n      tag_276\n      jumpi\n      mload(0x40)\n      shl(0xe5, 0x461bcd)\n      dup2\n      mstore\n      0x04\n      add\n      tag_196\n      swap1\n      tag_248\n      jump\t// in\n    tag_276:\n        /* \"Ethereum/Presale.sol\":7206:7216  msg.sender */\n      caller\n        /* \"Ethereum/Presale.sol\":7170:7193  BuyerInfo storage buyer */\n      0x00\n        /* \"Ethereum/Presale.sol\":7196:7217  buyerInfo[msg.sender] */\n      swap1\n      dup2\n      mstore\n        /* \"Ethereum/Presale.sol\":7196:7205  buyerInfo */\n      0x02\n        /* \"Ethereum/Presale.sol\":7196:7217  buyerInfo[msg.sender] */\n      0x20\n      mstore\n      0x40\n      swap1\n      keccak256\n        /* \"Ethereum/Presale.sol\":7236:7252  buyer.tokenOwner */\n      0x01\n      dup2\n      add\n      sload\n        /* \"Ethereum/Presale.sol\":7228:7284  require(buyer.tokenOwner > 0, \"You have not bought yet\") */\n      tag_278\n      jumpi\n      mload(0x40)\n      shl(0xe5, 0x461bcd)\n      dup2\n      mstore\n        /* \"#utility.yul\":6194:6196   */\n      0x20\n        /* \"Ethereum/Presale.sol\":7228:7284  require(buyer.tokenOwner > 0, \"You have not bought yet\") */\n      0x04\n      dup3\n      add\n        /* \"#utility.yul\":6176:6197   */\n      mstore\n        /* \"#utility.yul\":6233:6235   */\n      0x17\n        /* \"#utility.yul\":6213:6231   */\n      0x24\n      dup3\n      add\n        /* \"#utility.yul\":6206:6236   */\n      mstore\n      shl(0x4a, 0x165bdd481a185d99481b9bdd08189bdd59da1d081e595d)\n        /* \"#utility.yul\":6252:6270   */\n      0x44\n      dup3\n      add\n        /* \"#utility.yul\":6245:6298   */\n      mstore\n        /* \"#utility.yul\":6315:6333   */\n      0x64\n      add\n        /* \"Ethereum/Presale.sol\":7228:7284  require(buyer.tokenOwner > 0, \"You have not bought yet\") */\n      tag_196\n        /* \"#utility.yul\":6166:6339   */\n      jump\n        /* \"Ethereum/Presale.sol\":7228:7284  require(buyer.tokenOwner > 0, \"You have not bought yet\") */\n    tag_278:\n        /* \"Ethereum/Presale.sol\":7322:7327  buyer */\n      dup1\n        /* \"Ethereum/Presale.sol\":7322:7346  buyer.totalTokenWithDraw */\n      0x03\n      add\n      sload\n        /* \"Ethereum/Presale.sol\":7303:7308  buyer */\n      dup2\n        /* \"Ethereum/Presale.sol\":7303:7319  buyer.tokenOwner */\n      0x01\n      add\n      sload\n        /* \"Ethereum/Presale.sol\":7303:7346  buyer.tokenOwner > buyer.totalTokenWithDraw */\n      gt\n        /* \"Ethereum/Presale.sol\":7295:7365  require(buyer.tokenOwner > buyer.totalTokenWithDraw, \"You claim alll\") */\n      tag_280\n      jumpi\n      mload(0x40)\n      shl(0xe5, 0x461bcd)\n      dup2\n      mstore\n        /* \"#utility.yul\":8023:8025   */\n      0x20\n        /* \"Ethereum/Presale.sol\":7295:7365  require(buyer.tokenOwner > buyer.totalTokenWithDraw, \"You claim alll\") */\n      0x04\n      dup3\n      add\n        /* \"#utility.yul\":8005:8026   */\n      mstore\n        /* \"#utility.yul\":8062:8064   */\n      0x0e\n        /* \"#utility.yul\":8042:8060   */\n      0x24\n      dup3\n      add\n        /* \"#utility.yul\":8035:8065   */\n      mstore\n      shl(0x92, 0x165bdd4818db185a5b48185b1b1b)\n        /* \"#utility.yul\":8081:8099   */\n      0x44\n      dup3\n      add\n        /* \"#utility.yul\":8074:8118   */\n      mstore\n        /* \"#utility.yul\":8135:8153   */\n      0x64\n      add\n        /* \"Ethereum/Presale.sol\":7295:7365  require(buyer.tokenOwner > buyer.totalTokenWithDraw, \"You claim alll\") */\n      tag_196\n        /* \"#utility.yul\":7995:8159   */\n      jump\n        /* \"Ethereum/Presale.sol\":7295:7365  require(buyer.tokenOwner > buyer.totalTokenWithDraw, \"You claim alll\") */\n    tag_280:\n        /* \"Ethereum/Presale.sol\":7376:7395  uint256 amountClaim */\n      0x00\n        /* \"Ethereum/Presale.sol\":7398:7534  ((uint256(1000).sub(saleInfor.claimFee))\r... */\n      tag_283\n        /* \"Ethereum/Presale.sol\":7528:7532  1000 */\n      0x03e8\n        /* \"Ethereum/Presale.sol\":7399:7487  (uint256(1000).sub(saleInfor.claimFee))\r... */\n      tag_256\n        /* \"Ethereum/Presale.sol\":7470:7475  buyer */\n      dup5\n        /* \"Ethereum/Presale.sol\":7470:7486  buyer.tokenOwner */\n      0x01\n      add\n      sload\n        /* \"Ethereum/Presale.sol\":7400:7437  uint256(1000).sub(saleInfor.claimFee) */\n      tag_257\n        /* \"Ethereum/Presale.sol\":7418:7427  saleInfor */\n      0x0f\n        /* \"Ethereum/Presale.sol\":7418:7436  saleInfor.claimFee */\n      0x09\n      add\n      sload\n        /* \"Ethereum/Presale.sol\":7408:7412  1000 */\n      0x03e8\n        /* \"Ethereum/Presale.sol\":7400:7417  uint256(1000).sub */\n      tag_221\n      swap1\n        /* \"Ethereum/Presale.sol\":7400:7437  uint256(1000).sub(saleInfor.claimFee) */\n      swap2\n      swap1\n      0xffffffff\n      and\n      jump\t// in\n        /* \"Ethereum/Presale.sol\":7398:7534  ((uint256(1000).sub(saleInfor.claimFee))\r... */\n    tag_283:\n        /* \"Ethereum/Presale.sol\":7551:7570  saleInfor.saleToken */\n      sload(0x10)\n        /* \"Ethereum/Presale.sol\":7581:7596  adminReceiveFee */\n      sload(0x20)\n        /* \"Ethereum/Presale.sol\":7551:7570  saleInfor.saleToken */\n      0x01\n        /* \"Ethereum/Presale.sol\":7598:7614  buyer.tokenOwner */\n      dup6\n      add\n      sload\n        /* \"Ethereum/Presale.sol\":7376:7534  uint256 amountClaim = ((uint256(1000).sub(saleInfor.claimFee))\r... */\n      swap3\n      swap4\n      pop\n      sub(shl(0xa0, 0x01), 0x01)\n        /* \"Ethereum/Presale.sol\":7551:7570  saleInfor.saleToken */\n      swap2\n      dup3\n      and\n      swap3\n        /* \"Ethereum/Presale.sol\":7545:7580  ERC20(saleInfor.saleToken).transfer */\n      0xa9059cbb\n      swap3\n        /* \"Ethereum/Presale.sol\":7581:7596  adminReceiveFee */\n      swap1\n      swap2\n      and\n      swap1\n        /* \"Ethereum/Presale.sol\":7598:7631  buyer.tokenOwner.sub(amountClaim) */\n      tag_286\n      swap1\n        /* \"Ethereum/Presale.sol\":7376:7534  uint256 amountClaim = ((uint256(1000).sub(saleInfor.claimFee))\r... */\n      dup6\n        /* \"Ethereum/Presale.sol\":7598:7618  buyer.tokenOwner.sub */\n      tag_221\n        /* \"Ethereum/Presale.sol\":7598:7631  buyer.tokenOwner.sub(amountClaim) */\n      jump\t// in\n    tag_286:\n        /* \"Ethereum/Presale.sol\":7545:7632  ERC20(saleInfor.saleToken).transfer(adminReceiveFee, buyer.tokenOwner.sub(amountClaim)) */\n      mload(0x40)\n      not(sub(shl(0xe0, 0x01), 0x01))\n      0xe0\n      dup6\n      swap1\n      shl\n      and\n      dup2\n      mstore\n      sub(shl(0xa0, 0x01), 0x01)\n        /* \"#utility.yul\":4832:4864   */\n      swap1\n      swap3\n      and\n        /* \"Ethereum/Presale.sol\":7545:7632  ERC20(saleInfor.saleToken).transfer(adminReceiveFee, buyer.tokenOwner.sub(amountClaim)) */\n      0x04\n      dup4\n      add\n        /* \"#utility.yul\":4814:4865   */\n      mstore\n        /* \"#utility.yul\":4881:4899   */\n      0x24\n      dup3\n      add\n        /* \"#utility.yul\":4874:4908   */\n      mstore\n        /* \"#utility.yul\":4787:4805   */\n      0x44\n      add\n        /* \"Ethereum/Presale.sol\":7545:7632  ERC20(saleInfor.saleToken).transfer(adminReceiveFee, buyer.tokenOwner.sub(amountClaim)) */\n      0x20\n      mload(0x40)\n      dup1\n      dup4\n      sub\n      dup2\n      0x00\n      dup8\n      dup1\n      extcodesize\n      iszero\n      dup1\n      iszero\n      tag_289\n      jumpi\n      0x00\n      dup1\n      revert\n    tag_289:\n      pop\n      gas\n      call\n      iszero\n      dup1\n      iszero\n      tag_291\n      jumpi\n      returndatasize\n      0x00\n      dup1\n      returndatacopy\n      revert(0x00, returndatasize)\n    tag_291:\n      pop\n      pop\n      pop\n      pop\n      mload(0x40)\n      returndatasize\n      not(0x1f)\n      0x1f\n      dup3\n      add\n      and\n      dup3\n      add\n      dup1\n      0x40\n      mstore\n      pop\n      dup2\n      add\n      swap1\n      tag_292\n      swap2\n      swap1\n      tag_237\n      jump\t// in\n    tag_292:\n      pop\n        /* \"Ethereum/Presale.sol\":7696:7712  buyer.tokenOwner */\n      0x01\n      dup3\n      add\n      sload\n        /* \"Ethereum/Presale.sol\":7660:7692  presaleStatus.totalTokenWithDraw */\n      0x06\n        /* \"Ethereum/Presale.sol\":7660:7712  presaleStatus.totalTokenWithDraw += buyer.tokenOwner */\n      dup1\n      sload\n        /* \"Ethereum/Presale.sol\":7660:7692  presaleStatus.totalTokenWithDraw */\n      0x00\n      swap1\n        /* \"Ethereum/Presale.sol\":7660:7712  presaleStatus.totalTokenWithDraw += buyer.tokenOwner */\n      tag_293\n      swap1\n        /* \"Ethereum/Presale.sol\":7696:7712  buyer.tokenOwner */\n      dup5\n      swap1\n        /* \"Ethereum/Presale.sol\":7660:7712  presaleStatus.totalTokenWithDraw += buyer.tokenOwner */\n      tag_264\n      jump\t// in\n    tag_293:\n      swap1\n      swap2\n      sstore\n      pop\n      pop\n        /* \"Ethereum/Presale.sol\":7755:7771  buyer.tokenOwner */\n      0x01\n      dup3\n      add\n      sload\n        /* \"Ethereum/Presale.sol\":7723:7751  saleInfor.amountTokenForSale */\n      0x1a\n        /* \"Ethereum/Presale.sol\":7723:7771  saleInfor.amountTokenForSale -= buyer.tokenOwner */\n      dup1\n      sload\n        /* \"Ethereum/Presale.sol\":7723:7751  saleInfor.amountTokenForSale */\n      0x00\n      swap1\n        /* \"Ethereum/Presale.sol\":7723:7771  saleInfor.amountTokenForSale -= buyer.tokenOwner */\n      tag_294\n      swap1\n        /* \"Ethereum/Presale.sol\":7755:7771  buyer.tokenOwner */\n      dup5\n      swap1\n        /* \"Ethereum/Presale.sol\":7723:7771  saleInfor.amountTokenForSale -= buyer.tokenOwner */\n      tag_245\n      jump\t// in\n    tag_294:\n      swap3\n      pop\n      pop\n      dup2\n      swap1\n      sstore\n      pop\n        /* \"Ethereum/Presale.sol\":7810:7821  amountClaim */\n      dup1\n        /* \"Ethereum/Presale.sol\":7782:7787  buyer */\n      dup3\n        /* \"Ethereum/Presale.sol\":7782:7806  buyer.totalTokenWithDraw */\n      0x03\n      add\n      0x00\n        /* \"Ethereum/Presale.sol\":7782:7821  buyer.totalTokenWithDraw += amountClaim */\n      dup3\n      dup3\n      sload\n      tag_295\n      swap2\n      swap1\n      tag_264\n      jump\t// in\n    tag_295:\n      swap1\n      swap2\n      sstore\n      pop\n      pop\n        /* \"Ethereum/Presale.sol\":7853:7868  block.timestamp */\n      timestamp\n        /* \"Ethereum/Presale.sol\":7832:7850  buyer.lastWithDraw */\n      0x02\n      dup4\n      add\n        /* \"Ethereum/Presale.sol\":7832:7868  buyer.lastWithDraw = block.timestamp */\n      sstore\n        /* \"Ethereum/Presale.sol\":7936:7959  buyer.totalBaseWithDraw */\n      0x04\n      dup3\n      add\n      sload\n        /* \"Ethereum/Presale.sol\":7918:7935  buyer.baseDeposit */\n      dup3\n      sload\n        /* \"Ethereum/Presale.sol\":7918:7959  buyer.baseDeposit-buyer.totalBaseWithDraw */\n      tag_296\n      swap2\n        /* \"Ethereum/Presale.sol\":7936:7959  buyer.totalBaseWithDraw */\n      swap1\n        /* \"Ethereum/Presale.sol\":7918:7959  buyer.baseDeposit-buyer.totalBaseWithDraw */\n      tag_245\n      jump\t// in\n    tag_296:\n        /* \"Ethereum/Presale.sol\":7879:7914  presaleStatus.totalBaseBackForAdmin */\n      0x09\n        /* \"Ethereum/Presale.sol\":7879:7959  presaleStatus.totalBaseBackForAdmin += buyer.baseDeposit-buyer.totalBaseWithDraw */\n      dup1\n      sload\n        /* \"Ethereum/Presale.sol\":7879:7914  presaleStatus.totalBaseBackForAdmin */\n      0x00\n      swap1\n        /* \"Ethereum/Presale.sol\":7879:7959  presaleStatus.totalBaseBackForAdmin += buyer.baseDeposit-buyer.totalBaseWithDraw */\n      tag_297\n      swap1\n      dup5\n      swap1\n      tag_264\n      jump\t// in\n    tag_297:\n      swap1\n      swap2\n      sstore\n      pop\n      pop\n        /* \"Ethereum/Presale.sol\":7976:7995  saleInfor.saleToken */\n      sload(0x10)\n        /* \"Ethereum/Presale.sol\":7970:8030  ERC20(saleInfor.saleToken).transfer(msg.sender, amountClaim) */\n      mload(0x40)\n      shl(0xe0, 0xa9059cbb)\n      dup2\n      mstore\n        /* \"Ethereum/Presale.sol\":8006:8016  msg.sender */\n      caller\n        /* \"Ethereum/Presale.sol\":7970:8030  ERC20(saleInfor.saleToken).transfer(msg.sender, amountClaim) */\n      0x04\n      dup3\n      add\n        /* \"#utility.yul\":4814:4865   */\n      mstore\n        /* \"#utility.yul\":4881:4899   */\n      0x24\n      dup2\n      add\n        /* \"#utility.yul\":4874:4908   */\n      dup4\n      swap1\n      mstore\n      sub(shl(0xa0, 0x01), 0x01)\n        /* \"Ethereum/Presale.sol\":7976:7995  saleInfor.saleToken */\n      swap1\n      swap2\n      and\n      swap1\n        /* \"Ethereum/Presale.sol\":7970:8005  ERC20(saleInfor.saleToken).transfer */\n      0xa9059cbb\n      swap1\n        /* \"#utility.yul\":4787:4805   */\n      0x44\n      add\n        /* \"Ethereum/Presale.sol\":7970:8030  ERC20(saleInfor.saleToken).transfer(msg.sender, amountClaim) */\n      0x20\n      mload(0x40)\n      dup1\n      dup4\n      sub\n      dup2\n      0x00\n      dup8\n      dup1\n      extcodesize\n      iszero\n      dup1\n      iszero\n      tag_299\n      jumpi\n      0x00\n      dup1\n      revert\n    tag_299:\n      pop\n      gas\n      call\n      iszero\n      dup1\n      iszero\n      tag_301\n      jumpi\n      returndatasize\n      0x00\n      dup1\n      returndatacopy\n      revert(0x00, returndatasize)\n    tag_301:\n      pop\n      pop\n      pop\n      pop\n      mload(0x40)\n      returndatasize\n      not(0x1f)\n      0x1f\n      dup3\n      add\n      and\n      dup3\n      add\n      dup1\n      0x40\n      mstore\n      pop\n      dup2\n      add\n      swap1\n      tag_239\n      swap2\n      swap1\n      tag_237\n      jump\t// in\n        /* \"Ethereum/Presale.sol\":4689:6901  function deposit(uint256 _amount) external payable nonReentrant {\r... */\n    tag_103:\n        /* \"Utils/ReentrancyGuard.sol\":1778:1779  2 */\n      0x02\n        /* \"Utils/ReentrancyGuard.sol\":2376:2383  _status */\n      sload(0x00)\n        /* \"Utils/ReentrancyGuard.sol\":2376:2395  _status != _ENTERED */\n      eq\n      iszero\n        /* \"Utils/ReentrancyGuard.sol\":2368:2431  require(_status != _ENTERED, \"ReentrancyGuard: reentrant call\") */\n      tag_304\n      jumpi\n      mload(0x40)\n      shl(0xe5, 0x461bcd)\n      dup2\n      mstore\n      0x04\n      add\n      tag_196\n      swap1\n      tag_213\n      jump\t// in\n    tag_304:\n        /* \"Utils/ReentrancyGuard.sol\":1778:1779  2 */\n      0x02\n        /* \"Utils/ReentrancyGuard.sol\":2509:2516  _status */\n      0x00\n        /* \"Utils/ReentrancyGuard.sol\":2509:2527  _status = _ENTERED */\n      dup2\n      dup2\n      sstore\n        /* \"Ethereum/Presale.sol\":4860:4870  msg.sender */\n      caller\n        /* \"Ethereum/Presale.sol\":4850:4871  buyerInfo[msg.sender] */\n      dup2\n      mstore\n      0x20\n      swap2\n      swap1\n      swap2\n      mstore\n      0x40\n      dup2\n      keccak256\n      swap1\n        /* \"Ethereum/Presale.sol\":4902:4909  _amount */\n      dup3\n      swap1\n      dup2\n      swap1\n        /* \"Ethereum/Presale.sol\":5015:5019  1000 */\n      0x03e8\n        /* \"Ethereum/Presale.sol\":5038:5047  msg.value */\n      callvalue\n        /* \"Ethereum/Presale.sol\":5038:5065  msg.value >= real_amount_in */\n      dup4\n      gt\n      iszero\n        /* \"Ethereum/Presale.sol\":5030:5096  require(msg.value >= real_amount_in, \"Please provide navite coin\") */\n      tag_307\n      jumpi\n      mload(0x40)\n      shl(0xe5, 0x461bcd)\n      dup2\n      mstore\n        /* \"#utility.yul\":6546:6548   */\n      0x20\n        /* \"Ethereum/Presale.sol\":5030:5096  require(msg.value >= real_amount_in, \"Please provide navite coin\") */\n      0x04\n      dup3\n      add\n        /* \"#utility.yul\":6528:6549   */\n      mstore\n        /* \"#utility.yul\":6585:6587   */\n      0x1a\n        /* \"#utility.yul\":6565:6583   */\n      0x24\n      dup3\n      add\n        /* \"#utility.yul\":6558:6588   */\n      mstore\n        /* \"#utility.yul\":6624:6652   */\n      0x506c656173652070726f76696465206e617669746520636f696e000000000000\n        /* \"#utility.yul\":6604:6622   */\n      0x44\n      dup3\n      add\n        /* \"#utility.yul\":6597:6653   */\n      mstore\n        /* \"#utility.yul\":6670:6688   */\n      0x64\n      add\n        /* \"Ethereum/Presale.sol\":5030:5096  require(msg.value >= real_amount_in, \"Please provide navite coin\") */\n      tag_196\n        /* \"#utility.yul\":6518:6694   */\n      jump\n        /* \"Ethereum/Presale.sol\":5030:5096  require(msg.value >= real_amount_in, \"Please provide navite coin\") */\n    tag_307:\n        /* \"Ethereum/Presale.sol\":5133:5159  saleInfor.minSpendPerBuyer */\n      sload(0x15)\n        /* \"Ethereum/Presale.sol\":5115:5159  real_amount_in >= saleInfor.minSpendPerBuyer */\n      dup4\n      lt\n      iszero\n        /* \"Ethereum/Presale.sol\":5107:5208  require(real_amount_in >= saleInfor.minSpendPerBuyer, \r... */\n      tag_310\n      jumpi\n      mload(0x40)\n      shl(0xe5, 0x461bcd)\n      dup2\n      mstore\n        /* \"#utility.yul\":9520:9522   */\n      0x20\n        /* \"Ethereum/Presale.sol\":5107:5208  require(real_amount_in >= saleInfor.minSpendPerBuyer, \r... */\n      0x04\n      dup3\n      add\n        /* \"#utility.yul\":9502:9523   */\n      mstore\n        /* \"#utility.yul\":9559:9561   */\n      0x10\n        /* \"#utility.yul\":9539:9557   */\n      0x24\n      dup3\n      add\n        /* \"#utility.yul\":9532:9562   */\n      mstore\n      shl(0x80, 0x4e6f7420656e6f7567682076616c7565)\n        /* \"#utility.yul\":9578:9596   */\n      0x44\n      dup3\n      add\n        /* \"#utility.yul\":9571:9617   */\n      mstore\n        /* \"#utility.yul\":9634:9652   */\n      0x64\n      add\n        /* \"Ethereum/Presale.sol\":5107:5208  require(real_amount_in >= saleInfor.minSpendPerBuyer, \r... */\n      tag_196\n        /* \"#utility.yul\":9492:9658   */\n      jump\n        /* \"Ethereum/Presale.sol\":5107:5208  require(real_amount_in >= saleInfor.minSpendPerBuyer, \r... */\n    tag_310:\n        /* \"Ethereum/Presale.sol\":5245:5271  saleInfor.maxSpendPerBuyer */\n      sload(0x16)\n        /* \"Ethereum/Presale.sol\":5227:5271  real_amount_in <= saleInfor.maxSpendPerBuyer */\n      dup4\n      gt\n      iszero\n        /* \"Ethereum/Presale.sol\":5219:5318  require(real_amount_in <= saleInfor.maxSpendPerBuyer, \r... */\n      tag_313\n      jumpi\n      mload(0x40)\n      shl(0xe5, 0x461bcd)\n      dup2\n      mstore\n        /* \"#utility.yul\":8772:8774   */\n      0x20\n        /* \"Ethereum/Presale.sol\":5219:5318  require(real_amount_in <= saleInfor.maxSpendPerBuyer, \r... */\n      0x04\n      dup3\n      add\n        /* \"#utility.yul\":8754:8775   */\n      mstore\n        /* \"#utility.yul\":8811:8813   */\n      0x0e\n        /* \"#utility.yul\":8791:8809   */\n      0x24\n      dup3\n      add\n        /* \"#utility.yul\":8784:8814   */\n      mstore\n      shl(0x90, 0x4f766572666c6f772076616c7565)\n        /* \"#utility.yul\":8830:8848   */\n      0x44\n      dup3\n      add\n        /* \"#utility.yul\":8823:8867   */\n      mstore\n        /* \"#utility.yul\":8884:8902   */\n      0x64\n      add\n        /* \"Ethereum/Presale.sol\":5219:5318  require(real_amount_in <= saleInfor.maxSpendPerBuyer, \r... */\n      tag_196\n        /* \"#utility.yul\":8744:8908   */\n      jump\n        /* \"Ethereum/Presale.sol\":5219:5318  require(real_amount_in <= saleInfor.maxSpendPerBuyer, \r... */\n    tag_313:\n        /* \"Ethereum/Presale.sol\":5333:5352  checkAdminAddress() */\n      tag_316\n        /* \"Ethereum/Presale.sol\":5333:5350  checkAdminAddress */\n      tag_106\n        /* \"Ethereum/Presale.sol\":5333:5352  checkAdminAddress() */\n      jump\t// in\n    tag_316:\n        /* \"Ethereum/Presale.sol\":5329:5595  if(!checkAdminAddress()) {\r... */\n      tag_317\n      jumpi\n        /* \"Ethereum/Presale.sol\":5386:5519  ((fullPercenFee.sub(feeAnyone))\r... */\n      tag_318\n        /* \"Ethereum/Presale.sol\":5505:5518  fullPercenFee */\n      dup2\n        /* \"Ethereum/Presale.sol\":5387:5468  (fullPercenFee.sub(feeAnyone))\r... */\n      tag_256\n        /* \"Ethereum/Presale.sol\":5453:5467  real_amount_in */\n      dup6\n        /* \"Ethereum/Presale.sol\":5388:5416  fullPercenFee.sub(feeAnyone) */\n      tag_257\n        /* \"Ethereum/Presale.sol\":5406:5415  feeAnyone */\n      sload(0x1f)\n        /* \"Ethereum/Presale.sol\":5388:5401  fullPercenFee */\n      dup7\n        /* \"Ethereum/Presale.sol\":5388:5405  fullPercenFee.sub */\n      tag_221\n      swap1\n        /* \"Ethereum/Presale.sol\":5388:5416  fullPercenFee.sub(feeAnyone) */\n      swap2\n      swap1\n      0xffffffff\n      and\n      jump\t// in\n        /* \"Ethereum/Presale.sol\":5386:5519  ((fullPercenFee.sub(feeAnyone))\r... */\n    tag_318:\n        /* \"Ethereum/Presale.sol\":5369:5519  real_amount_in = ((fullPercenFee.sub(feeAnyone))\r... */\n      swap3\n      pop\n        /* \"Ethereum/Presale.sol\":5540:5566  amount_in - real_amount_in */\n      tag_321\n        /* \"Ethereum/Presale.sol\":5369:5519  real_amount_in = ((fullPercenFee.sub(feeAnyone))\r... */\n      dup4\n        /* \"Ethereum/Presale.sol\":5540:5549  amount_in */\n      dup6\n        /* \"Ethereum/Presale.sol\":5540:5566  amount_in - real_amount_in */\n      tag_245\n      jump\t// in\n    tag_321:\n        /* \"Ethereum/Presale.sol\":5534:5566  fee = amount_in - real_amount_in */\n      swap2\n      pop\n        /* \"Ethereum/Presale.sol\":5329:5595  if(!checkAdminAddress()) {\r... */\n    tag_317:\n        /* \"Ethereum/Presale.sol\":5660:5677  buyer.baseDeposit */\n      dup5\n      sload\n        /* \"Ethereum/Presale.sol\":5631:5657  saleInfor.maxSpendPerBuyer */\n      sload(0x16)\n        /* \"Ethereum/Presale.sol\":5605:5628  uint256 remainingByUser */\n      0x00\n      swap2\n        /* \"Ethereum/Presale.sol\":5631:5677  saleInfor.maxSpendPerBuyer - buyer.baseDeposit */\n      tag_322\n      swap2\n      tag_245\n      jump\t// in\n    tag_322:\n        /* \"Ethereum/Presale.sol\":5745:5758  presaleStatus */\n      0x04\n        /* \"Ethereum/Presale.sol\":5745:5777  presaleStatus.totalBaseCollected */\n      sload\n        /* \"Ethereum/Presale.sol\":5714:5742  saleInfor.amountTokenForSale */\n      sload(0x1a)\n        /* \"Ethereum/Presale.sol\":5605:5677  uint256 remainingByUser = saleInfor.maxSpendPerBuyer - buyer.baseDeposit */\n      swap2\n      swap3\n      pop\n        /* \"Ethereum/Presale.sol\":5688:5711  uint256 remainingByPool */\n      0x00\n      swap2\n        /* \"Ethereum/Presale.sol\":5714:5777  saleInfor.amountTokenForSale - presaleStatus.totalBaseCollected */\n      tag_323\n      swap2\n        /* \"Ethereum/Presale.sol\":5745:5777  presaleStatus.totalBaseCollected */\n      swap1\n        /* \"Ethereum/Presale.sol\":5714:5777  saleInfor.amountTokenForSale - presaleStatus.totalBaseCollected */\n      tag_245\n      jump\t// in\n    tag_323:\n        /* \"Ethereum/Presale.sol\":5688:5777  uint256 remainingByPool = saleInfor.amountTokenForSale - presaleStatus.totalBaseCollected */\n      swap1\n      pop\n        /* \"Ethereum/Presale.sol\":5788:5805  uint256 allowance */\n      0x00\n        /* \"Ethereum/Presale.sol\":5826:5841  remainingByPool */\n      dup2\n        /* \"Ethereum/Presale.sol\":5808:5823  remainingByUser */\n      dup4\n        /* \"Ethereum/Presale.sol\":5808:5841  remainingByUser > remainingByPool */\n      gt\n        /* \"Ethereum/Presale.sol\":5808:5877  remainingByUser > remainingByPool ? remainingByPool : remainingByUser */\n      tag_324\n      jumpi\n        /* \"Ethereum/Presale.sol\":5862:5877  remainingByUser */\n      dup3\n        /* \"Ethereum/Presale.sol\":5808:5877  remainingByUser > remainingByPool ? remainingByPool : remainingByUser */\n      jump(tag_325)\n    tag_324:\n        /* \"Ethereum/Presale.sol\":5844:5859  remainingByPool */\n      dup2\n        /* \"Ethereum/Presale.sol\":5808:5877  remainingByUser > remainingByPool ? remainingByPool : remainingByUser */\n    tag_325:\n        /* \"Ethereum/Presale.sol\":5788:5877  uint256 allowance = remainingByUser > remainingByPool ? remainingByPool : remainingByUser */\n      swap1\n      pop\n        /* \"Ethereum/Presale.sol\":5914:5923  allowance */\n      dup1\n        /* \"Ethereum/Presale.sol\":5896:5910  real_amount_in */\n      dup7\n        /* \"Ethereum/Presale.sol\":5896:5923  real_amount_in <= allowance */\n      gt\n      iszero\n        /* \"Ethereum/Presale.sol\":5888:5943  require(real_amount_in <= allowance, \"Sale is success\") */\n      tag_326\n      jumpi\n      mload(0x40)\n      shl(0xe5, 0x461bcd)\n      dup2\n      mstore\n        /* \"#utility.yul\":12039:12041   */\n      0x20\n        /* \"Ethereum/Presale.sol\":5888:5943  require(real_amount_in <= allowance, \"Sale is success\") */\n      0x04\n      dup3\n      add\n        /* \"#utility.yul\":12021:12042   */\n      mstore\n        /* \"#utility.yul\":12078:12080   */\n      0x0f\n        /* \"#utility.yul\":12058:12076   */\n      0x24\n      dup3\n      add\n        /* \"#utility.yul\":12051:12081   */\n      mstore\n      shl(0x88, 0x53616c652069732073756363657373)\n        /* \"#utility.yul\":12097:12115   */\n      0x44\n      dup3\n      add\n        /* \"#utility.yul\":12090:12135   */\n      mstore\n        /* \"#utility.yul\":12152:12170   */\n      0x64\n      add\n        /* \"Ethereum/Presale.sol\":5888:5943  require(real_amount_in <= allowance, \"Sale is success\") */\n      tag_196\n        /* \"#utility.yul\":12011:12176   */\n      jump\n        /* \"Ethereum/Presale.sol\":5888:5943  require(real_amount_in <= allowance, \"Sale is success\") */\n    tag_326:\n        /* \"Ethereum/Presale.sol\":5954:5971  uint256 tokenSold */\n      0x00\n        /* \"Ethereum/Presale.sol\":5975:6133  real_amount_in.\r... */\n      tag_329\n        /* \"Ethereum/Presale.sol\":6100:6109  saleInfor */\n      0x0f\n        /* \"Ethereum/Presale.sol\":6100:6119  saleInfor.baseToken */\n      0x02\n      add\n      0x00\n      swap1\n      sload\n      swap1\n      0x0100\n      exp\n      swap1\n      div\n      sub(shl(0xa0, 0x01), 0x01)\n      and\n      sub(shl(0xa0, 0x01), 0x01)\n        /* \"Ethereum/Presale.sol\":6094:6129  ERC20(saleInfor.baseToken).decimals */\n      and\n      0x313ce567\n        /* \"Ethereum/Presale.sol\":6094:6131  ERC20(saleInfor.baseToken).decimals() */\n      mload(0x40)\n      dup2\n      0xffffffff\n      and\n      0xe0\n      shl\n      dup2\n      mstore\n      0x04\n      add\n      0x20\n      mload(0x40)\n      dup1\n      dup4\n      sub\n      dup2\n      dup7\n      dup1\n      extcodesize\n      iszero\n      dup1\n      iszero\n      tag_330\n      jumpi\n      0x00\n      dup1\n      revert\n    tag_330:\n      pop\n      gas\n      staticcall\n      iszero\n      dup1\n      iszero\n      tag_332\n      jumpi\n      returndatasize\n      0x00\n      dup1\n      returndatacopy\n      revert(0x00, returndatasize)\n    tag_332:\n      pop\n      pop\n      pop\n      pop\n      mload(0x40)\n      returndatasize\n      not(0x1f)\n      0x1f\n      dup3\n      add\n      and\n      dup3\n      add\n      dup1\n      0x40\n      mstore\n      pop\n      dup2\n      add\n      swap1\n      tag_333\n      swap2\n      swap1\n      tag_139\n      jump\t// in\n    tag_333:\n        /* \"Ethereum/Presale.sol\":6080:6132  10 ** uint256(ERC20(saleInfor.baseToken).decimals()) */\n      tag_334\n      swap1\n        /* \"Ethereum/Presale.sol\":6080:6082  10 */\n      0x0a\n        /* \"Ethereum/Presale.sol\":6080:6132  10 ** uint256(ERC20(saleInfor.baseToken).decimals()) */\n      tag_141\n      jump\t// in\n    tag_334:\n        /* \"Ethereum/Presale.sol\":6024:6044  saleInfor.tokenPrice */\n      sload(0x12)\n        /* \"Ethereum/Presale.sol\":5975:6045  real_amount_in.\r... */\n      tag_256\n      swap1\n        /* \"Ethereum/Presale.sol\":5975:5989  real_amount_in */\n      dup11\n      swap1\n        /* \"Ethereum/Presale.sol\":5975:6023  real_amount_in.\r... */\n      tag_183\n        /* \"Ethereum/Presale.sol\":5975:6045  real_amount_in.\r... */\n      jump\t// in\n        /* \"Ethereum/Presale.sol\":5975:6133  real_amount_in.\r... */\n    tag_329:\n        /* \"Ethereum/Presale.sol\":5954:6134  uint256 tokenSold = (real_amount_in.\r... */\n      swap1\n      pop\n        /* \"Ethereum/Presale.sol\":6183:6197  real_amount_in */\n      dup7\n        /* \"Ethereum/Presale.sol\":6162:6167  buyer */\n      dup10\n        /* \"Ethereum/Presale.sol\":6162:6179  buyer.baseDeposit */\n      0x00\n      add\n      0x00\n        /* \"Ethereum/Presale.sol\":6162:6197  buyer.baseDeposit += real_amount_in */\n      dup3\n      dup3\n      sload\n      tag_336\n      swap2\n      swap1\n      tag_264\n      jump\t// in\n    tag_336:\n      swap3\n      pop\n      pop\n      dup2\n      swap1\n      sstore\n      pop\n        /* \"Ethereum/Presale.sol\":6228:6237  tokenSold */\n      dup1\n        /* \"Ethereum/Presale.sol\":6208:6213  buyer */\n      dup10\n        /* \"Ethereum/Presale.sol\":6208:6224  buyer.tokenOwner */\n      0x01\n      add\n      0x00\n        /* \"Ethereum/Presale.sol\":6208:6237  buyer.tokenOwner += tokenSold */\n      dup3\n      dup3\n      sload\n      tag_337\n      swap2\n      swap1\n      tag_264\n      jump\t// in\n    tag_337:\n      swap1\n      swap2\n      sstore\n      pop\n      pop\n        /* \"Ethereum/Presale.sol\":6248:6261  presaleStatus */\n      0x04\n        /* \"Ethereum/Presale.sol\":6248:6298  presaleStatus.totalBaseCollected += real_amount_in */\n      dup1\n      sload\n        /* \"Ethereum/Presale.sol\":6284:6298  real_amount_in */\n      dup9\n      swap2\n        /* \"Ethereum/Presale.sol\":6248:6261  presaleStatus */\n      swap1\n        /* \"Ethereum/Presale.sol\":6248:6280  presaleStatus.totalBaseCollected */\n      0x00\n      swap1\n        /* \"Ethereum/Presale.sol\":6248:6298  presaleStatus.totalBaseCollected += real_amount_in */\n      tag_338\n      swap1\n        /* \"Ethereum/Presale.sol\":6284:6298  real_amount_in */\n      dup5\n      swap1\n        /* \"Ethereum/Presale.sol\":6248:6298  presaleStatus.totalBaseCollected += real_amount_in */\n      tag_264\n      jump\t// in\n    tag_338:\n      swap1\n      swap2\n      sstore\n      pop\n      pop\n        /* \"Ethereum/Presale.sol\":6309:6337  presaleStatus.totalTokenSold */\n      0x05\n        /* \"Ethereum/Presale.sol\":6309:6350  presaleStatus.totalTokenSold += tokenSold */\n      dup1\n      sload\n        /* \"Ethereum/Presale.sol\":6341:6350  tokenSold */\n      dup3\n      swap2\n        /* \"Ethereum/Presale.sol\":6309:6337  presaleStatus.totalTokenSold */\n      swap1\n      0x00\n      swap1\n        /* \"Ethereum/Presale.sol\":6309:6350  presaleStatus.totalTokenSold += tokenSold */\n      tag_339\n      swap1\n        /* \"Ethereum/Presale.sol\":6341:6350  tokenSold */\n      dup5\n      swap1\n        /* \"Ethereum/Presale.sol\":6309:6350  presaleStatus.totalTokenSold += tokenSold */\n      tag_264\n      jump\t// in\n    tag_339:\n      swap1\n      swap2\n      sstore\n      pop\n      pop\n        /* \"Ethereum/Presale.sol\":6361:6386  presaleStatus.numberBuyer */\n      0x0a\n        /* \"Ethereum/Presale.sol\":6361:6388  presaleStatus.numberBuyer++ */\n      dup1\n      sload\n      swap1\n        /* \"Ethereum/Presale.sol\":6361:6386  presaleStatus.numberBuyer */\n      0x00\n        /* \"Ethereum/Presale.sol\":6361:6388  presaleStatus.numberBuyer++ */\n      tag_340\n      dup4\n      tag_341\n      jump\t// in\n    tag_340:\n      swap1\n      swap2\n      sstore\n      pop\n      pop\n        /* \"Ethereum/Presale.sol\":6407:6417  msg.sender */\n      caller\n        /* \"Ethereum/Presale.sol\":6399:6418  userFee[msg.sender] */\n      0x00\n      swap1\n      dup2\n      mstore\n        /* \"Ethereum/Presale.sol\":6399:6406  userFee */\n      0x03\n        /* \"Ethereum/Presale.sol\":6399:6418  userFee[msg.sender] */\n      0x20\n      mstore\n      0x40\n      dup2\n      keccak256\n        /* \"Ethereum/Presale.sol\":6399:6425  userFee[msg.sender] += fee */\n      dup1\n      sload\n        /* \"Ethereum/Presale.sol\":6422:6425  fee */\n      dup9\n      swap3\n        /* \"Ethereum/Presale.sol\":6399:6418  userFee[msg.sender] */\n      swap1\n        /* \"Ethereum/Presale.sol\":6399:6425  userFee[msg.sender] += fee */\n      tag_342\n      swap1\n        /* \"Ethereum/Presale.sol\":6422:6425  fee */\n      dup5\n      swap1\n        /* \"Ethereum/Presale.sol\":6399:6425  userFee[msg.sender] += fee */\n      tag_264\n      jump\t// in\n    tag_342:\n      swap3\n      pop\n      pop\n      dup2\n      swap1\n      sstore\n      pop\n        /* \"Ethereum/Presale.sol\":6448:6451  fee */\n      dup6\n        /* \"Ethereum/Presale.sol\":6436:6444  totalFee */\n      0x1e\n      0x00\n        /* \"Ethereum/Presale.sol\":6436:6451  totalFee += fee */\n      dup3\n      dup3\n      sload\n      tag_343\n      swap2\n      swap1\n      tag_264\n      jump\t// in\n    tag_343:\n      swap1\n      swap2\n      sstore\n      pop\n      pop\n        /* \"Ethereum/Presale.sol\":6467:6492  saleInfor.saleIsBaseToken */\n      and(0xff, sload(0x19))\n        /* \"Ethereum/Presale.sol\":6467:6529  saleInfor.saleIsBaseToken && real_amount_in + fee <= msg.value */\n      dup1\n      iszero\n      tag_344\n      jumpi\n      pop\n        /* \"Ethereum/Presale.sol\":6520:6529  msg.value */\n      callvalue\n        /* \"Ethereum/Presale.sol\":6496:6516  real_amount_in + fee */\n      tag_345\n        /* \"Ethereum/Presale.sol\":6513:6516  fee */\n      dup8\n        /* \"Ethereum/Presale.sol\":6496:6510  real_amount_in */\n      dup10\n        /* \"Ethereum/Presale.sol\":6496:6516  real_amount_in + fee */\n      tag_264\n      jump\t// in\n    tag_345:\n        /* \"Ethereum/Presale.sol\":6496:6529  real_amount_in + fee <= msg.value */\n      gt\n      iszero\n        /* \"Ethereum/Presale.sol\":6467:6529  saleInfor.saleIsBaseToken && real_amount_in + fee <= msg.value */\n    tag_344:\n        /* \"Ethereum/Presale.sol\":6464:6620  if(saleInfor.saleIsBaseToken && real_amount_in + fee <= msg.value) {\r... */\n      iszero\n      tag_346\n      jumpi\n        /* \"Ethereum/Presale.sol\":6554:6564  msg.sender */\n      caller\n        /* \"Ethereum/Presale.sol\":6546:6608  payable(msg.sender).transfer(msg.value - real_amount_in - fee) */\n      0x08fc\n        /* \"Ethereum/Presale.sol\":6604:6607  fee */\n      dup8\n        /* \"Ethereum/Presale.sol\":6575:6601  msg.value - real_amount_in */\n      tag_347\n        /* \"Ethereum/Presale.sol\":6587:6601  real_amount_in */\n      dup11\n        /* \"Ethereum/Presale.sol\":6575:6584  msg.value */\n      callvalue\n        /* \"Ethereum/Presale.sol\":6575:6601  msg.value - real_amount_in */\n      tag_245\n      jump\t// in\n    tag_347:\n        /* \"Ethereum/Presale.sol\":6575:6607  msg.value - real_amount_in - fee */\n      tag_348\n      swap2\n      swap1\n      tag_245\n      jump\t// in\n    tag_348:\n        /* \"Ethereum/Presale.sol\":6546:6608  payable(msg.sender).transfer(msg.value - real_amount_in - fee) */\n      mload(0x40)\n      dup2\n      iszero\n      swap1\n      swap3\n      mul\n      swap2\n      0x00\n      dup2\n      dup2\n      dup2\n      dup6\n      dup9\n      dup9\n      call\n      swap4\n      pop\n      pop\n      pop\n      pop\n      iszero\n      dup1\n      iszero\n      tag_350\n      jumpi\n      returndatasize\n      0x00\n      dup1\n      returndatacopy\n      revert(0x00, returndatasize)\n    tag_350:\n      pop\n        /* \"Ethereum/Presale.sol\":6464:6620  if(saleInfor.saleIsBaseToken && real_amount_in + fee <= msg.value) {\r... */\n    tag_346:\n        /* \"Ethereum/Presale.sol\":6635:6660  saleInfor.saleIsBaseToken */\n      and(0xff, sload(0x19))\n        /* \"Ethereum/Presale.sol\":6631:6882  if(!saleInfor.saleIsBaseToken) {\r... */\n      tag_352\n      jumpi\n        /* \"Ethereum/Presale.sol\":6735:6754  saleInfor.baseToken */\n      sload(0x11)\n        /* \"Ethereum/Presale.sol\":6677:6870  TransferHelper.safeTransferFrom(\r... */\n      tag_352\n      swap1\n      sub(shl(0xa0, 0x01), 0x01)\n        /* \"Ethereum/Presale.sol\":6735:6754  saleInfor.baseToken */\n      and\n        /* \"Ethereum/Presale.sol\":6774:6784  msg.sender */\n      caller\n        /* \"Ethereum/Presale.sol\":6811:6815  this */\n      address\n        /* \"Ethereum/Presale.sol\":6835:6855  real_amount_in + fee */\n      tag_353\n        /* \"Ethereum/Presale.sol\":6852:6855  fee */\n      dup11\n        /* \"Ethereum/Presale.sol\":6835:6849  real_amount_in */\n      dup13\n        /* \"Ethereum/Presale.sol\":6835:6855  real_amount_in + fee */\n      tag_264\n      jump\t// in\n    tag_353:\n        /* \"Ethereum/Presale.sol\":6677:6708  TransferHelper.safeTransferFrom */\n      tag_354\n        /* \"Ethereum/Presale.sol\":6677:6870  TransferHelper.safeTransferFrom(\r... */\n      jump\t// in\n    tag_352:\n      pop\n      pop\n        /* \"Utils/ReentrancyGuard.sol\":1734:1735  1 */\n      0x01\n        /* \"Utils/ReentrancyGuard.sol\":2688:2695  _status */\n      0x00\n        /* \"Utils/ReentrancyGuard.sol\":2688:2710  _status = _NOT_ENTERED */\n      sstore\n      pop\n      pop\n      pop\n      pop\n      pop\n      pop\n      pop\n      pop\n        /* \"Ethereum/Presale.sol\":4689:6901  function deposit(uint256 _amount) external payable nonReentrant {\r... */\n      jump\t// out\n        /* \"Ethereum/Presale.sol\":4571:4681  function checkAdminAddress() public view returns(bool) {\r... */\n    tag_106:\n        /* \"Ethereum/Presale.sol\":4620:4624  bool */\n      0x00\n        /* \"Ethereum/Presale.sol\":4644:4673  admins.contains(_msgSender()) */\n      tag_356\n        /* \"Ethereum/Presale.sol\":4644:4650  admins */\n      0x1c\n        /* \"Utils/Context.sol\":736:746  msg.sender */\n      caller\n        /* \"Ethereum/Presale.sol\":4644:4659  admins.contains */\n      tag_358\n        /* \"Ethereum/Presale.sol\":4644:4673  admins.contains(_msgSender()) */\n      jump\t// in\n    tag_356:\n        /* \"Ethereum/Presale.sol\":4637:4673  return admins.contains(_msgSender()) */\n      swap1\n      pop\n        /* \"Ethereum/Presale.sol\":4571:4681  function checkAdminAddress() public view returns(bool) {\r... */\n      swap1\n      jump\t// out\n        /* \"Ethereum/Presale.sol\":10392:11965  function userClaimOrRefundWhenSaleSuccess(bool isClaim) external {\r... */\n    tag_123:\n        /* \"Ethereum/Presale.sol\":10532:10539  isClaim */\n      dup1\n        /* \"Ethereum/Presale.sol\":10529:11958  if(isClaim){\r... */\n      iszero\n      tag_360\n      jumpi\n        /* \"Ethereum/Presale.sol\":10594:10626  presaleStatus.totalTokenWithDraw */\n      sload(0x06)\n        /* \"Ethereum/Presale.sol\":10563:10591  presaleStatus.totalTokenSold */\n      sload(0x05)\n        /* \"Ethereum/Presale.sol\":10629:10630  0 */\n      0x00\n      swap2\n        /* \"Ethereum/Presale.sol\":10563:10626  presaleStatus.totalTokenSold - presaleStatus.totalTokenWithDraw */\n      tag_361\n      swap2\n      tag_245\n      jump\t// in\n    tag_361:\n        /* \"Ethereum/Presale.sol\":10563:10630  presaleStatus.totalTokenSold - presaleStatus.totalTokenWithDraw > 0 */\n      gt\n        /* \"Ethereum/Presale.sol\":10555:10694  require(presaleStatus.totalTokenSold - presaleStatus.totalTokenWithDraw > 0, \r... */\n      tag_362\n      jumpi\n      mload(0x40)\n      shl(0xe5, 0x461bcd)\n      dup2\n      mstore\n      0x04\n      add\n      tag_196\n      swap1\n      tag_248\n      jump\t// in\n    tag_362:\n        /* \"Ethereum/Presale.sol\":10745:10755  msg.sender */\n      caller\n        /* \"Ethereum/Presale.sol\":10709:10732  BuyerInfo storage buyer */\n      0x00\n        /* \"Ethereum/Presale.sol\":10735:10756  buyerInfo[msg.sender] */\n      swap1\n      dup2\n      mstore\n        /* \"Ethereum/Presale.sol\":10735:10744  buyerInfo */\n      0x02\n        /* \"Ethereum/Presale.sol\":10735:10756  buyerInfo[msg.sender] */\n      0x20\n      mstore\n      0x40\n      swap1\n      keccak256\n        /* \"Ethereum/Presale.sol\":10798:10822  buyer.totalTokenWithDraw */\n      0x03\n      dup2\n      add\n      sload\n        /* \"Ethereum/Presale.sol\":10779:10795  buyer.tokenOwner */\n      0x01\n      dup3\n      add\n      sload\n        /* \"Ethereum/Presale.sol\":10779:10822  buyer.tokenOwner > buyer.totalTokenWithDraw */\n      gt\n        /* \"Ethereum/Presale.sol\":10771:10863  require(buyer.tokenOwner > buyer.totalTokenWithDraw, \"You claim all or have not bought yet\") */\n      tag_364\n      jumpi\n      mload(0x40)\n      shl(0xe5, 0x461bcd)\n      dup2\n      mstore\n        /* \"#utility.yul\":9115:9117   */\n      0x20\n        /* \"Ethereum/Presale.sol\":10771:10863  require(buyer.tokenOwner > buyer.totalTokenWithDraw, \"You claim all or have not bought yet\") */\n      0x04\n      dup3\n      add\n        /* \"#utility.yul\":9097:9118   */\n      mstore\n        /* \"#utility.yul\":9154:9156   */\n      0x24\n        /* \"#utility.yul\":9134:9152   */\n      dup1\n      dup3\n      add\n        /* \"#utility.yul\":9127:9157   */\n      mstore\n        /* \"#utility.yul\":9193:9227   */\n      0x596f7520636c61696d20616c6c206f722068617665206e6f7420626f75676874\n        /* \"#utility.yul\":9173:9191   */\n      0x44\n      dup3\n      add\n        /* \"#utility.yul\":9166:9228   */\n      mstore\n      shl(0xe2, 0x081e595d)\n        /* \"#utility.yul\":9244:9262   */\n      0x64\n      dup3\n      add\n        /* \"#utility.yul\":9237:9271   */\n      mstore\n        /* \"#utility.yul\":9288:9307   */\n      0x84\n      add\n        /* \"Ethereum/Presale.sol\":10771:10863  require(buyer.tokenOwner > buyer.totalTokenWithDraw, \"You claim all or have not bought yet\") */\n      tag_196\n        /* \"#utility.yul\":9087:9313   */\n      jump\n        /* \"Ethereum/Presale.sol\":10771:10863  require(buyer.tokenOwner > buyer.totalTokenWithDraw, \"You claim all or have not bought yet\") */\n    tag_364:\n        /* \"Ethereum/Presale.sol\":10884:10903  saleInfor.saleToken */\n      sload(0x10)\n      0x01\n        /* \"Ethereum/Presale.sol\":10926:10942  buyer.tokenOwner */\n      dup3\n      add\n      sload\n        /* \"Ethereum/Presale.sol\":10878:10943  ERC20(saleInfor.saleToken).transfer(msg.sender, buyer.tokenOwner) */\n      mload(0x40)\n      shl(0xe0, 0xa9059cbb)\n      dup2\n      mstore\n        /* \"Ethereum/Presale.sol\":10914:10924  msg.sender */\n      caller\n        /* \"Ethereum/Presale.sol\":10878:10943  ERC20(saleInfor.saleToken).transfer(msg.sender, buyer.tokenOwner) */\n      0x04\n      dup3\n      add\n        /* \"#utility.yul\":4814:4865   */\n      mstore\n        /* \"#utility.yul\":4881:4899   */\n      0x24\n      dup2\n      add\n        /* \"#utility.yul\":4874:4908   */\n      swap2\n      swap1\n      swap2\n      mstore\n      sub(shl(0xa0, 0x01), 0x01)\n        /* \"Ethereum/Presale.sol\":10884:10903  saleInfor.saleToken */\n      swap1\n      swap2\n      and\n      swap1\n        /* \"Ethereum/Presale.sol\":10878:10913  ERC20(saleInfor.saleToken).transfer */\n      0xa9059cbb\n      swap1\n        /* \"#utility.yul\":4787:4805   */\n      0x44\n      add\n        /* \"Ethereum/Presale.sol\":10878:10943  ERC20(saleInfor.saleToken).transfer(msg.sender, buyer.tokenOwner) */\n      0x20\n      mload(0x40)\n      dup1\n      dup4\n      sub\n      dup2\n      0x00\n      dup8\n      dup1\n      extcodesize\n      iszero\n      dup1\n      iszero\n      tag_368\n      jumpi\n      0x00\n      dup1\n      revert\n    tag_368:\n      pop\n      gas\n      call\n      iszero\n      dup1\n      iszero\n      tag_370\n      jumpi\n      returndatasize\n      0x00\n      dup1\n      returndatacopy\n      revert(0x00, returndatasize)\n    tag_370:\n      pop\n      pop\n      pop\n      pop\n      mload(0x40)\n      returndatasize\n      not(0x1f)\n      0x1f\n      dup3\n      add\n      and\n      dup3\n      add\n      dup1\n      0x40\n      mstore\n      pop\n      dup2\n      add\n      swap1\n      tag_371\n      swap2\n      swap1\n      tag_237\n      jump\t// in\n    tag_371:\n      pop\n        /* \"Ethereum/Presale.sol\":10994:11010  buyer.tokenOwner */\n      0x01\n      dup2\n      add\n      sload\n        /* \"Ethereum/Presale.sol\":10958:10990  presaleStatus.totalTokenWithDraw */\n      0x06\n        /* \"Ethereum/Presale.sol\":10958:11010  presaleStatus.totalTokenWithDraw += buyer.tokenOwner */\n      dup1\n      sload\n        /* \"Ethereum/Presale.sol\":10958:10990  presaleStatus.totalTokenWithDraw */\n      0x00\n      swap1\n        /* \"Ethereum/Presale.sol\":10958:11010  presaleStatus.totalTokenWithDraw += buyer.tokenOwner */\n      tag_372\n      swap1\n        /* \"Ethereum/Presale.sol\":10994:11010  buyer.tokenOwner */\n      dup5\n      swap1\n        /* \"Ethereum/Presale.sol\":10958:11010  presaleStatus.totalTokenWithDraw += buyer.tokenOwner */\n      tag_264\n      jump\t// in\n    tag_372:\n      swap1\n      swap2\n      sstore\n      pop\n      pop\n        /* \"Ethereum/Presale.sol\":11057:11073  buyer.tokenOwner */\n      0x01\n      dup2\n      add\n      sload\n        /* \"Ethereum/Presale.sol\":11025:11053  saleInfor.amountTokenForSale */\n      0x1a\n        /* \"Ethereum/Presale.sol\":11025:11073  saleInfor.amountTokenForSale -= buyer.tokenOwner */\n      dup1\n      sload\n        /* \"Ethereum/Presale.sol\":11025:11053  saleInfor.amountTokenForSale */\n      0x00\n      swap1\n        /* \"Ethereum/Presale.sol\":11025:11073  saleInfor.amountTokenForSale -= buyer.tokenOwner */\n      tag_373\n      swap1\n        /* \"Ethereum/Presale.sol\":11057:11073  buyer.tokenOwner */\n      dup5\n      swap1\n        /* \"Ethereum/Presale.sol\":11025:11073  saleInfor.amountTokenForSale -= buyer.tokenOwner */\n      tag_245\n      jump\t// in\n    tag_373:\n      swap1\n      swap2\n      sstore\n      pop\n      pop\n        /* \"Ethereum/Presale.sol\":11116:11132  buyer.tokenOwner */\n      0x01\n      dup2\n      add\n      sload\n        /* \"Ethereum/Presale.sol\":11088:11112  buyer.totalTokenWithDraw */\n      0x03\n      dup3\n      add\n        /* \"Ethereum/Presale.sol\":11088:11132  buyer.totalTokenWithDraw += buyer.tokenOwner */\n      dup1\n      sload\n        /* \"Ethereum/Presale.sol\":11088:11112  buyer.totalTokenWithDraw */\n      0x00\n      swap1\n        /* \"Ethereum/Presale.sol\":11088:11132  buyer.totalTokenWithDraw += buyer.tokenOwner */\n      tag_374\n      swap1\n        /* \"Ethereum/Presale.sol\":11116:11132  buyer.tokenOwner */\n      dup5\n      swap1\n        /* \"Ethereum/Presale.sol\":11088:11132  buyer.totalTokenWithDraw += buyer.tokenOwner */\n      tag_264\n      jump\t// in\n    tag_374:\n      swap1\n      swap2\n      sstore\n      pop\n      pop\n        /* \"Ethereum/Presale.sol\":11167:11168  0 */\n      0x00\n        /* \"Ethereum/Presale.sol\":11147:11168  buyer.baseDeposit = 0 */\n      dup1\n      dup3\n      sstore\n        /* \"Ethereum/Presale.sol\":11183:11199  buyer.tokenOwner */\n      0x01\n      dup3\n      add\n        /* \"Ethereum/Presale.sol\":11183:11203  buyer.tokenOwner = 0 */\n      sstore\n        /* \"Ethereum/Presale.sol\":11239:11254  block.timestamp */\n      timestamp\n        /* \"Ethereum/Presale.sol\":11218:11236  buyer.lastWithDraw */\n      0x02\n      swap1\n      swap2\n      add\n        /* \"Ethereum/Presale.sol\":11218:11254  buyer.lastWithDraw = block.timestamp */\n      sstore\n        /* \"Ethereum/Presale.sol\":12144:12195  payable(msg.sender).transfer(address(this).balance) */\n      pop\n        /* \"Ethereum/Presale.sol\":12095:12203  function backToken() external payable {\r... */\n      jump\t// out\n        /* \"Ethereum/Presale.sol\":10529:11958  if(isClaim){\r... */\n    tag_360:\n        /* \"Ethereum/Presale.sol\":11342:11373  presaleStatus.totalBaseWithDraw */\n      sload(0x07)\n        /* \"Ethereum/Presale.sol\":11342:11355  presaleStatus */\n      0x04\n        /* \"Ethereum/Presale.sol\":11307:11339  presaleStatus.totalBaseCollected */\n      sload\n        /* \"Ethereum/Presale.sol\":11376:11377  0 */\n      0x00\n      swap2\n        /* \"Ethereum/Presale.sol\":11307:11373  presaleStatus.totalBaseCollected - presaleStatus.totalBaseWithDraw */\n      tag_376\n      swap2\n      tag_245\n      jump\t// in\n    tag_376:\n        /* \"Ethereum/Presale.sol\":11307:11377  presaleStatus.totalBaseCollected - presaleStatus.totalBaseWithDraw > 0 */\n      gt\n        /* \"Ethereum/Presale.sol\":11299:11441  require(presaleStatus.totalBaseCollected - presaleStatus.totalBaseWithDraw > 0, \r... */\n      tag_377\n      jumpi\n      mload(0x40)\n      shl(0xe5, 0x461bcd)\n      dup2\n      mstore\n      0x04\n      add\n      tag_196\n      swap1\n      tag_248\n      jump\t// in\n    tag_377:\n        /* \"Ethereum/Presale.sol\":11493:11503  msg.sender */\n      caller\n        /* \"Ethereum/Presale.sol\":11457:11480  BuyerInfo storage buyer */\n      0x00\n        /* \"Ethereum/Presale.sol\":11483:11504  buyerInfo[msg.sender] */\n      swap1\n      dup2\n      mstore\n        /* \"Ethereum/Presale.sol\":11483:11492  buyerInfo */\n      0x02\n        /* \"Ethereum/Presale.sol\":11483:11504  buyerInfo[msg.sender] */\n      0x20\n      mstore\n      0x40\n      swap1\n      keccak256\n        /* \"Ethereum/Presale.sol\":11527:11544  buyer.baseDeposit */\n      dup1\n      sload\n        /* \"Ethereum/Presale.sol\":11519:11590  require(buyer.baseDeposit > 0, \"You refund all or have not bought yet\") */\n      tag_379\n      jumpi\n      mload(0x40)\n      shl(0xe5, 0x461bcd)\n      dup2\n      mstore\n        /* \"#utility.yul\":8366:8368   */\n      0x20\n        /* \"Ethereum/Presale.sol\":11519:11590  require(buyer.baseDeposit > 0, \"You refund all or have not bought yet\") */\n      0x04\n      dup3\n      add\n        /* \"#utility.yul\":8348:8369   */\n      mstore\n        /* \"#utility.yul\":8405:8407   */\n      0x25\n        /* \"#utility.yul\":8385:8403   */\n      0x24\n      dup3\n      add\n        /* \"#utility.yul\":8378:8408   */\n      mstore\n        /* \"#utility.yul\":8444:8478   */\n      0x596f7520726566756e6420616c6c206f722068617665206e6f7420626f756768\n        /* \"#utility.yul\":8424:8442   */\n      0x44\n      dup3\n      add\n        /* \"#utility.yul\":8417:8479   */\n      mstore\n      shl(0xda, 0x1d081e595d)\n        /* \"#utility.yul\":8495:8513   */\n      0x64\n      dup3\n      add\n        /* \"#utility.yul\":8488:8523   */\n      mstore\n        /* \"#utility.yul\":8540:8559   */\n      0x84\n      add\n        /* \"Ethereum/Presale.sol\":11519:11590  require(buyer.baseDeposit > 0, \"You refund all or have not bought yet\") */\n      tag_196\n        /* \"#utility.yul\":8338:8565   */\n      jump\n        /* \"Ethereum/Presale.sol\":11519:11590  require(buyer.baseDeposit > 0, \"You refund all or have not bought yet\") */\n    tag_379:\n        /* \"Ethereum/Presale.sol\":11628:11645  buyer.baseDeposit */\n      dup1\n      sload\n        /* \"Ethereum/Presale.sol\":11672:11704  buyer.baseDeposit - amountRefund */\n      tag_382\n        /* \"Ethereum/Presale.sol\":11628:11645  buyer.baseDeposit */\n      dup2\n      dup1\n        /* \"Ethereum/Presale.sol\":11672:11704  buyer.baseDeposit - amountRefund */\n      tag_245\n      jump\t// in\n    tag_382:\n        /* \"Ethereum/Presale.sol\":11660:11668  totalFee */\n      0x1e\n      0x00\n        /* \"Ethereum/Presale.sol\":11660:11704  totalFee += buyer.baseDeposit - amountRefund */\n      dup3\n      dup3\n      sload\n      tag_383\n      swap2\n      swap1\n      tag_264\n      jump\t// in\n    tag_383:\n      swap1\n      swap2\n      sstore\n      pop\n      pop\n        /* \"Ethereum/Presale.sol\":11719:11750  presaleStatus.totalBaseWithDraw */\n      0x07\n        /* \"Ethereum/Presale.sol\":11719:11766  presaleStatus.totalBaseWithDraw += amountRefund */\n      dup1\n      sload\n        /* \"Ethereum/Presale.sol\":11754:11766  amountRefund */\n      dup3\n      swap2\n        /* \"Ethereum/Presale.sol\":11719:11750  presaleStatus.totalBaseWithDraw */\n      swap1\n      0x00\n      swap1\n        /* \"Ethereum/Presale.sol\":11719:11766  presaleStatus.totalBaseWithDraw += amountRefund */\n      tag_384\n      swap1\n        /* \"Ethereum/Presale.sol\":11754:11766  amountRefund */\n      dup5\n      swap1\n        /* \"Ethereum/Presale.sol\":11719:11766  presaleStatus.totalBaseWithDraw += amountRefund */\n      tag_264\n      jump\t// in\n    tag_384:\n      swap1\n      swap2\n      sstore\n      pop\n      pop\n        /* \"Ethereum/Presale.sol\":11802:11803  0 */\n      0x00\n        /* \"Ethereum/Presale.sol\":11781:11803  buyer.baseDeposit  = 0 */\n      dup1\n      dup4\n      sstore\n        /* \"Ethereum/Presale.sol\":11818:11834  buyer.tokenOwner */\n      0x01\n      dup4\n      add\n        /* \"Ethereum/Presale.sol\":11818:11838  buyer.tokenOwner = 0 */\n      dup2\n      swap1\n      sstore\n        /* \"Ethereum/Presale.sol\":11874:11889  block.timestamp */\n      timestamp\n        /* \"Ethereum/Presale.sol\":11853:11871  buyer.lastWithDraw */\n      0x02\n      dup5\n      add\n        /* \"Ethereum/Presale.sol\":11853:11889  buyer.lastWithDraw = block.timestamp */\n      sstore\n        /* \"Ethereum/Presale.sol\":11904:11946  payable(msg.sender).transfer(amountRefund) */\n      mload(0x40)\n        /* \"Ethereum/Presale.sol\":11912:11922  msg.sender */\n      caller\n      swap2\n        /* \"Ethereum/Presale.sol\":11904:11946  payable(msg.sender).transfer(amountRefund) */\n      dup4\n      iszero\n      0x08fc\n      mul\n      swap2\n        /* \"Ethereum/Presale.sol\":11933:11945  amountRefund */\n      dup5\n      swap2\n        /* \"Ethereum/Presale.sol\":11904:11946  payable(msg.sender).transfer(amountRefund) */\n      dup2\n        /* \"Ethereum/Presale.sol\":11802:11803  0 */\n      dup2\n        /* \"Ethereum/Presale.sol\":11904:11946  payable(msg.sender).transfer(amountRefund) */\n      dup2\n        /* \"Ethereum/Presale.sol\":11933:11945  amountRefund */\n      dup6\n        /* \"Ethereum/Presale.sol\":11912:11922  msg.sender */\n      dup9\n        /* \"Ethereum/Presale.sol\":11904:11946  payable(msg.sender).transfer(amountRefund) */\n      dup9\n      call\n      swap4\n      pop\n      pop\n      pop\n      pop\n      iszero\n      dup1\n      iszero\n      tag_386\n      jumpi\n      returndatasize\n      0x00\n      dup1\n      returndatacopy\n      revert(0x00, returndatasize)\n    tag_386:\n      pop\n        /* \"Ethereum/Presale.sol\":11284:11958  {\r... */\n      pop\n      pop\n        /* \"Ethereum/Presale.sol\":10392:11965  function userClaimOrRefundWhenSaleSuccess(bool isClaim) external {\r... */\n      pop\n      jump\t// out\n        /* \"Utils/Ownable.sol\":1972:2173  function transferOwnership(address newOwner) public virtual onlyOwner {\r... */\n    tag_127:\n        /* \"Utils/Ownable.sol\":1136:1142  _owner */\n      and(sub(shl(0xa0, 0x01), 0x01), sload(0x01))\n        /* \"Utils/Context.sol\":736:746  msg.sender */\n      caller\n        /* \"Utils/Ownable.sol\":1283:1306  owner() == _msgSender() */\n      eq\n        /* \"Utils/Ownable.sol\":1275:1343  require(owner() == _msgSender(), \"Ownable: caller is not the owner\") */\n      tag_390\n      jumpi\n      mload(0x40)\n      shl(0xe5, 0x461bcd)\n      dup2\n      mstore\n        /* \"#utility.yul\":10212:10214   */\n      0x20\n        /* \"Utils/Ownable.sol\":1275:1343  require(owner() == _msgSender(), \"Ownable: caller is not the owner\") */\n      0x04\n      dup3\n      add\n        /* \"#utility.yul\":10194:10215   */\n      dup2\n      swap1\n      mstore\n        /* \"#utility.yul\":10231:10249   */\n      0x24\n      dup3\n      add\n        /* \"#utility.yul\":10224:10254   */\n      mstore\n        /* \"#utility.yul\":10290:10324   */\n      0x4f776e61626c653a2063616c6c6572206973206e6f7420746865206f776e6572\n        /* \"#utility.yul\":10270:10288   */\n      0x44\n      dup3\n      add\n        /* \"#utility.yul\":10263:10325   */\n      mstore\n        /* \"#utility.yul\":10342:10360   */\n      0x64\n      add\n        /* \"Utils/Ownable.sol\":1275:1343  require(owner() == _msgSender(), \"Ownable: caller is not the owner\") */\n      tag_196\n        /* \"#utility.yul\":10184:10366   */\n      jump\n        /* \"Utils/Ownable.sol\":1275:1343  require(owner() == _msgSender(), \"Ownable: caller is not the owner\") */\n    tag_390:\n      sub(shl(0xa0, 0x01), 0x01)\n        /* \"Utils/Ownable.sol\":2061:2083  newOwner != address(0) */\n      dup2\n      and\n        /* \"Utils/Ownable.sol\":2053:2126  require(newOwner != address(0), \"Ownable: new owner is the zero address\") */\n      tag_393\n      jumpi\n      mload(0x40)\n      shl(0xe5, 0x461bcd)\n      dup2\n      mstore\n        /* \"#utility.yul\":7257:7259   */\n      0x20\n        /* \"Utils/Ownable.sol\":2053:2126  require(newOwner != address(0), \"Ownable: new owner is the zero address\") */\n      0x04\n      dup3\n      add\n        /* \"#utility.yul\":7239:7260   */\n      mstore\n        /* \"#utility.yul\":7296:7298   */\n      0x26\n        /* \"#utility.yul\":7276:7294   */\n      0x24\n      dup3\n      add\n        /* \"#utility.yul\":7269:7299   */\n      mstore\n        /* \"#utility.yul\":7335:7369   */\n      0x4f776e61626c653a206e6577206f776e657220697320746865207a65726f2061\n        /* \"#utility.yul\":7315:7333   */\n      0x44\n      dup3\n      add\n        /* \"#utility.yul\":7308:7370   */\n      mstore\n      shl(0xd0, 0x646472657373)\n        /* \"#utility.yul\":7386:7404   */\n      0x64\n      dup3\n      add\n        /* \"#utility.yul\":7379:7415   */\n      mstore\n        /* \"#utility.yul\":7432:7451   */\n      0x84\n      add\n        /* \"Utils/Ownable.sol\":2053:2126  require(newOwner != address(0), \"Ownable: new owner is the zero address\") */\n      tag_196\n        /* \"#utility.yul\":7229:7457   */\n      jump\n        /* \"Utils/Ownable.sol\":2053:2126  require(newOwner != address(0), \"Ownable: new owner is the zero address\") */\n    tag_393:\n        /* \"Utils/Ownable.sol\":2137:2165  _transferOwnership(newOwner) */\n      tag_203\n        /* \"Utils/Ownable.sol\":2156:2164  newOwner */\n      dup2\n        /* \"Utils/Ownable.sol\":2137:2155  _transferOwnership */\n      tag_200\n        /* \"Utils/Ownable.sol\":2137:2165  _transferOwnership(newOwner) */\n      jump\t// in\n        /* \"Utils/EnumerableSet.sol\":8259:8411  function add(AddressSet storage set, address value) internal returns (bool) {\r... */\n    tag_133:\n        /* \"Utils/EnumerableSet.sol\":8329:8333  bool */\n      0x00\n        /* \"Utils/EnumerableSet.sol\":8353:8403  _add(set._inner, bytes32(uint256(uint160(value)))) */\n      tag_399\n        /* \"Utils/EnumerableSet.sol\":8358:8361  set */\n      dup4\n      sub(shl(0xa0, 0x01), 0x01)\n        /* \"Utils/EnumerableSet.sol\":8378:8401  uint256(uint160(value)) */\n      dup5\n      and\n        /* \"Utils/EnumerableSet.sol\":8353:8357  _add */\n      tag_400\n        /* \"Utils/EnumerableSet.sol\":8353:8403  _add(set._inner, bytes32(uint256(uint160(value)))) */\n      jump\t// in\n    tag_399:\n        /* \"Utils/EnumerableSet.sol\":8346:8403  return _add(set._inner, bytes32(uint256(uint160(value)))) */\n      swap1\n      pop\n        /* \"Utils/EnumerableSet.sol\":8259:8411  function add(AddressSet storage set, address value) internal returns (bool) {\r... */\n    tag_398:\n      swap3\n      swap2\n      pop\n      pop\n      jump\t// out\n        /* \"Utils/SafeMath.sol\":3585:3683  function mul(uint256 a, uint256 b) internal pure returns (uint256) {\r... */\n    tag_183:\n        /* \"Utils/SafeMath.sol\":3643:3650  uint256 */\n      0x00\n        /* \"Utils/SafeMath.sol\":3670:3675  a * b */\n      tag_399\n        /* \"Utils/SafeMath.sol\":3674:3675  b */\n      dup3\n        /* \"Utils/SafeMath.sol\":3670:3671  a */\n      dup5\n        /* \"Utils/SafeMath.sol\":3670:3675  a * b */\n      tag_146\n      jump\t// in\n        /* \"Utils/Ownable.sol\":2333:2524  function _transferOwnership(address newOwner) internal virtual {\r... */\n    tag_200:\n        /* \"Utils/Ownable.sol\":2426:2432  _owner */\n      0x01\n      dup1\n      sload\n      sub(shl(0xa0, 0x01), 0x01)\n        /* \"Utils/Ownable.sol\":2443:2460  _owner = newOwner */\n      dup4\n      dup2\n      and\n      not(sub(shl(0xa0, 0x01), 0x01))\n      dup4\n      and\n      dup2\n      or\n      swap1\n      swap4\n      sstore\n        /* \"Utils/Ownable.sol\":2476:2516  OwnershipTransferred(oldOwner, newOwner) */\n      mload(0x40)\n        /* \"Utils/Ownable.sol\":2426:2432  _owner */\n      swap2\n      and\n      swap2\n        /* \"Utils/Ownable.sol\":2443:2460  _owner = newOwner */\n      swap1\n        /* \"Utils/Ownable.sol\":2426:2432  _owner */\n      dup3\n      swap1\n        /* \"Utils/Ownable.sol\":2476:2516  OwnershipTransferred(oldOwner, newOwner) */\n      0x8be0079c531659141344cd1fd0a4f28419497f9722a3daafe3b4186f6b6457e0\n      swap1\n        /* \"Utils/Ownable.sol\":2407:2423  address oldOwner */\n      0x00\n      swap1\n        /* \"Utils/Ownable.sol\":2476:2516  OwnershipTransferred(oldOwner, newOwner) */\n      log3\n        /* \"Utils/Ownable.sol\":2396:2524  {\r... */\n      pop\n        /* \"Utils/Ownable.sol\":2333:2524  function _transferOwnership(address newOwner) internal virtual {\r... */\n      pop\n      jump\t// out\n        /* \"Utils/SafeMath.sol\":3228:3326  function sub(uint256 a, uint256 b) internal pure returns (uint256) {\r... */\n    tag_221:\n        /* \"Utils/SafeMath.sol\":3286:3293  uint256 */\n      0x00\n        /* \"Utils/SafeMath.sol\":3313:3318  a - b */\n      tag_399\n        /* \"Utils/SafeMath.sol\":3317:3318  b */\n      dup3\n        /* \"Utils/SafeMath.sol\":3313:3314  a */\n      dup5\n        /* \"Utils/SafeMath.sol\":3313:3318  a - b */\n      tag_245\n      jump\t// in\n        /* \"Utils/SafeMath.sol\":3984:4082  function div(uint256 a, uint256 b) internal pure returns (uint256) {\r... */\n    tag_258:\n        /* \"Utils/SafeMath.sol\":4042:4049  uint256 */\n      0x00\n        /* \"Utils/SafeMath.sol\":4069:4074  a / b */\n      tag_399\n        /* \"Utils/SafeMath.sol\":4073:4074  b */\n      dup3\n        /* \"Utils/SafeMath.sol\":4069:4070  a */\n      dup5\n        /* \"Utils/SafeMath.sol\":4069:4074  a / b */\n      tag_185\n      jump\t// in\n        /* \"Utils/TransferHelper.sol\":1073:1503  function safeTransferFrom(\r... */\n    tag_354:\n        /* \"Utils/TransferHelper.sol\":1279:1330  abi.encodeWithSelector(0x23b872dd, from, to, value) */\n      0x40\n      dup1\n      mload\n      sub(shl(0xa0, 0x01), 0x01)\n        /* \"#utility.yul\":5177:5192   */\n      dup6\n      dup2\n      and\n        /* \"Utils/TransferHelper.sol\":1279:1330  abi.encodeWithSelector(0x23b872dd, from, to, value) */\n      0x24\n      dup4\n      add\n        /* \"#utility.yul\":5159:5193   */\n      mstore\n        /* \"#utility.yul\":5229:5244   */\n      dup5\n      dup2\n      and\n        /* \"#utility.yul\":5209:5227   */\n      0x44\n      dup4\n      add\n        /* \"#utility.yul\":5202:5245   */\n      mstore\n        /* \"#utility.yul\":5261:5279   */\n      0x64\n      dup1\n      dup4\n      add\n        /* \"#utility.yul\":5254:5288   */\n      dup6\n      swap1\n      mstore\n        /* \"Utils/TransferHelper.sol\":1279:1330  abi.encodeWithSelector(0x23b872dd, from, to, value) */\n      dup4\n      mload\n      dup1\n      dup5\n      sub\n      swap1\n      swap2\n      add\n      dup2\n      mstore\n        /* \"#utility.yul\":5094:5112   */\n      0x84\n      swap1\n      swap3\n      add\n        /* \"Utils/TransferHelper.sol\":1279:1330  abi.encodeWithSelector(0x23b872dd, from, to, value) */\n      dup4\n      mstore\n      0x20\n      dup3\n      add\n      dup1\n      mload\n      sub(shl(0xe0, 0x01), 0x01)\n      and\n      shl(0xe0, 0x23b872dd)\n      or\n      swap1\n      mstore\n        /* \"Utils/TransferHelper.sol\":1254:1341  token.call(\r... */\n      swap2\n      mload\n      0x00\n      swap3\n      dup4\n      swap3\n        /* \"Utils/TransferHelper.sol\":1254:1264  token.call */\n      swap1\n      dup9\n      and\n      swap2\n        /* \"Utils/TransferHelper.sol\":1254:1341  token.call(\r... */\n      tag_412\n      swap2\n        /* \"Utils/TransferHelper.sol\":1279:1330  abi.encodeWithSelector(0x23b872dd, from, to, value) */\n      swap1\n        /* \"Utils/TransferHelper.sol\":1254:1341  token.call(\r... */\n      tag_413\n      jump\t// in\n    tag_412:\n      0x00\n      mload(0x40)\n      dup1\n      dup4\n      sub\n      dup2\n      0x00\n      dup7\n      gas\n      call\n      swap2\n      pop\n      pop\n      returndatasize\n      dup1\n      0x00\n      dup2\n      eq\n      tag_416\n      jumpi\n      mload(0x40)\n      swap2\n      pop\n      and(add(returndatasize, 0x3f), not(0x1f))\n      dup3\n      add\n      0x40\n      mstore\n      returndatasize\n      dup3\n      mstore\n      returndatasize\n      0x00\n      0x20\n      dup5\n      add\n      returndatacopy\n      jump(tag_415)\n    tag_416:\n      0x60\n      swap2\n      pop\n    tag_415:\n      pop\n        /* \"Utils/TransferHelper.sol\":1218:1341  (bool success, bytes memory data) = token.call(\r... */\n      swap2\n      pop\n      swap2\n      pop\n        /* \"Utils/TransferHelper.sol\":1374:1381  success */\n      dup2\n        /* \"Utils/TransferHelper.sol\":1374:1431  success && (data.length == 0 || abi.decode(data, (bool))) */\n      dup1\n      iszero\n      tag_419\n      jumpi\n      pop\n        /* \"Utils/TransferHelper.sol\":1386:1397  data.length */\n      dup1\n      mload\n        /* \"Utils/TransferHelper.sol\":1386:1402  data.length == 0 */\n      iszero\n      dup1\n        /* \"Utils/TransferHelper.sol\":1386:1430  data.length == 0 || abi.decode(data, (bool)) */\n      tag_419\n      jumpi\n      pop\n        /* \"Utils/TransferHelper.sol\":1417:1421  data */\n      dup1\n        /* \"Utils/TransferHelper.sol\":1406:1430  abi.decode(data, (bool)) */\n      dup1\n      0x20\n      add\n      swap1\n      mload\n      dup2\n      add\n      swap1\n      tag_419\n      swap2\n      swap1\n      tag_237\n      jump\t// in\n    tag_419:\n        /* \"Utils/TransferHelper.sol\":1352:1495  require(\r... */\n      tag_420\n      jumpi\n      mload(0x40)\n      shl(0xe5, 0x461bcd)\n      dup2\n      mstore\n        /* \"#utility.yul\":10916:10918   */\n      0x20\n        /* \"Utils/TransferHelper.sol\":1352:1495  require(\r... */\n      0x04\n      dup3\n      add\n        /* \"#utility.yul\":10898:10919   */\n      mstore\n        /* \"#utility.yul\":10955:10957   */\n      0x24\n        /* \"#utility.yul\":10935:10953   */\n      dup1\n      dup3\n      add\n        /* \"#utility.yul\":10928:10958   */\n      mstore\n        /* \"#utility.yul\":10994:11028   */\n      0x5472616e7366657248656c7065723a205452414e534645525f46524f4d5f4641\n        /* \"#utility.yul\":10974:10992   */\n      0x44\n      dup3\n      add\n        /* \"#utility.yul\":10967:11029   */\n      mstore\n      shl(0xe2, 0x12531151)\n        /* \"#utility.yul\":11045:11063   */\n      0x64\n      dup3\n      add\n        /* \"#utility.yul\":11038:11072   */\n      mstore\n        /* \"#utility.yul\":11089:11108   */\n      0x84\n      add\n        /* \"Utils/TransferHelper.sol\":1352:1495  require(\r... */\n      tag_196\n        /* \"#utility.yul\":10888:11114   */\n      jump\n        /* \"Utils/TransferHelper.sol\":1352:1495  require(\r... */\n    tag_420:\n        /* \"Utils/TransferHelper.sol\":1207:1503  {\r... */\n      pop\n      pop\n        /* \"Utils/TransferHelper.sol\":1073:1503  function safeTransferFrom(\r... */\n      pop\n      pop\n      pop\n      pop\n      jump\t// out\n        /* \"Utils/EnumerableSet.sol\":8831:8998  function contains(AddressSet storage set, address value) internal view returns (bool) {\r... */\n    tag_358:\n      sub(shl(0xa0, 0x01), 0x01)\n        /* \"Utils/EnumerableSet.sol\":8965:8988  uint256(uint160(value)) */\n      dup2\n      and\n        /* \"Utils/EnumerableSet.sol\":8911:8915  bool */\n      0x00\n        /* \"Utils/EnumerableSet.sol\":4367:4386  set._indexes[value] */\n      swap1\n      dup2\n      mstore\n        /* \"Utils/EnumerableSet.sol\":4367:4379  set._indexes */\n      0x01\n      dup4\n      add\n        /* \"Utils/EnumerableSet.sol\":4367:4386  set._indexes[value] */\n      0x20\n      mstore\n      0x40\n      dup2\n      keccak256\n      sload\n        /* \"Utils/EnumerableSet.sol\":4367:4391  set._indexes[value] != 0 */\n      iszero\n      iszero\n        /* \"Utils/EnumerableSet.sol\":8935:8990  _contains(set._inner, bytes32(uint256(uint160(value)))) */\n      tag_399\n        /* \"Utils/EnumerableSet.sol\":4270:4399  function _contains(Set storage set, bytes32 value) private view returns (bool) {\r... */\n      jump\n        /* \"Utils/EnumerableSet.sol\":2174:2588  function _add(Set storage set, bytes32 value) private returns (bool) {\r... */\n    tag_400:\n        /* \"Utils/EnumerableSet.sol\":2237:2241  bool */\n      0x00\n        /* \"Utils/EnumerableSet.sol\":4367:4386  set._indexes[value] */\n      dup2\n      dup2\n      mstore\n        /* \"Utils/EnumerableSet.sol\":4367:4379  set._indexes */\n      0x01\n      dup4\n      add\n        /* \"Utils/EnumerableSet.sol\":4367:4386  set._indexes[value] */\n      0x20\n      mstore\n      0x40\n      dup2\n      keccak256\n      sload\n        /* \"Utils/EnumerableSet.sol\":2254:2581  if (!_contains(set, value)) {\r... */\n      tag_428\n      jumpi\n      pop\n        /* \"Utils/EnumerableSet.sol\":2297:2320  set._values.push(value) */\n      dup2\n      sload\n      0x01\n      dup2\n      dup2\n      add\n      dup5\n      sstore\n        /* \"Utils/EnumerableSet.sol\":2297:2308  set._values */\n      0x00\n        /* \"Utils/EnumerableSet.sol\":2297:2320  set._values.push(value) */\n      dup5\n      dup2\n      mstore\n      0x20\n      dup1\n      dup3\n      keccak256\n      swap1\n      swap4\n      add\n      dup5\n      swap1\n      sstore\n        /* \"Utils/EnumerableSet.sol\":2480:2498  set._values.length */\n      dup5\n      sload\n        /* \"Utils/EnumerableSet.sol\":2458:2477  set._indexes[value] */\n      dup5\n      dup3\n      mstore\n        /* \"Utils/EnumerableSet.sol\":2458:2470  set._indexes */\n      dup3\n      dup7\n      add\n        /* \"Utils/EnumerableSet.sol\":2458:2477  set._indexes[value] */\n      swap1\n      swap4\n      mstore\n      0x40\n      swap1\n      keccak256\n        /* \"Utils/EnumerableSet.sol\":2458:2498  set._indexes[value] = set._values.length */\n      swap2\n      swap1\n      swap2\n      sstore\n        /* \"Utils/EnumerableSet.sol\":2513:2524  return true */\n      jump(tag_398)\n        /* \"Utils/EnumerableSet.sol\":2254:2581  if (!_contains(set, value)) {\r... */\n    tag_428:\n      pop\n        /* \"Utils/EnumerableSet.sol\":2564:2569  false */\n      0x00\n        /* \"Utils/EnumerableSet.sol\":2557:2569  return false */\n      jump(tag_398)\n        /* \"#utility.yul\":14:156   */\n    tag_433:\n        /* \"#utility.yul\":90:110   */\n      dup1\n      calldataload\n        /* \"#utility.yul\":119:150   */\n      tag_435\n        /* \"#utility.yul\":90:110   */\n      dup2\n        /* \"#utility.yul\":119:150   */\n      tag_436\n      jump\t// in\n    tag_435:\n        /* \"#utility.yul\":71:156   */\n      swap2\n      swap1\n      pop\n      jump\t// out\n        /* \"#utility.yul\":161:408   */\n    tag_60:\n        /* \"#utility.yul\":220:226   */\n      0x00\n        /* \"#utility.yul\":273:275   */\n      0x20\n        /* \"#utility.yul\":261:270   */\n      dup3\n        /* \"#utility.yul\":252:259   */\n      dup5\n        /* \"#utility.yul\":248:271   */\n      sub\n        /* \"#utility.yul\":244:276   */\n      slt\n        /* \"#utility.yul\":241:243   */\n      iszero\n      tag_438\n      jumpi\n        /* \"#utility.yul\":289:290   */\n      0x00\n        /* \"#utility.yul\":286:287   */\n      dup1\n        /* \"#utility.yul\":279:291   */\n      revert\n        /* \"#utility.yul\":241:243   */\n    tag_438:\n        /* \"#utility.yul\":328:337   */\n      dup2\n        /* \"#utility.yul\":315:338   */\n      calldataload\n        /* \"#utility.yul\":347:378   */\n      tag_439\n        /* \"#utility.yul\":372:377   */\n      dup2\n        /* \"#utility.yul\":347:378   */\n      tag_436\n      jump\t// in\n    tag_439:\n        /* \"#utility.yul\":397:402   */\n      swap4\n        /* \"#utility.yul\":231:408   */\n      swap3\n      pop\n      pop\n      pop\n      jump\t// out\n        /* \"#utility.yul\":413:2025   */\n    tag_32:\n        /* \"#utility.yul\":609:615   */\n      0x00\n        /* \"#utility.yul\":617:623   */\n      dup1\n        /* \"#utility.yul\":625:631   */\n      0x00\n        /* \"#utility.yul\":633:639   */\n      dup1\n        /* \"#utility.yul\":641:647   */\n      0x00\n        /* \"#utility.yul\":649:655   */\n      dup1\n        /* \"#utility.yul\":657:663   */\n      0x00\n        /* \"#utility.yul\":665:671   */\n      dup1\n        /* \"#utility.yul\":673:679   */\n      0x00\n        /* \"#utility.yul\":726:729   */\n      0x01e0\n        /* \"#utility.yul\":714:723   */\n      dup11\n        /* \"#utility.yul\":705:712   */\n      dup13\n        /* \"#utility.yul\":701:724   */\n      sub\n        /* \"#utility.yul\":697:730   */\n      slt\n        /* \"#utility.yul\":694:696   */\n      iszero\n      tag_441\n      jumpi\n        /* \"#utility.yul\":743:744   */\n      0x00\n        /* \"#utility.yul\":740:741   */\n      dup1\n        /* \"#utility.yul\":733:745   */\n      revert\n        /* \"#utility.yul\":694:696   */\n    tag_441:\n        /* \"#utility.yul\":782:791   */\n      dup10\n        /* \"#utility.yul\":769:792   */\n      calldataload\n        /* \"#utility.yul\":801:832   */\n      tag_442\n        /* \"#utility.yul\":826:831   */\n      dup2\n        /* \"#utility.yul\":801:832   */\n      tag_436\n      jump\t// in\n    tag_442:\n        /* \"#utility.yul\":851:856   */\n      swap9\n      pop\n        /* \"#utility.yul\":875:877   */\n      0x20\n        /* \"#utility.yul\":914:932   */\n      dup11\n      dup2\n      add\n        /* \"#utility.yul\":901:933   */\n      calldataload\n        /* \"#utility.yul\":942:975   */\n      tag_443\n        /* \"#utility.yul\":901:933   */\n      dup2\n        /* \"#utility.yul\":942:975   */\n      tag_436\n      jump\t// in\n    tag_443:\n        /* \"#utility.yul\":994:1001   */\n      swap9\n      pop\n        /* \"#utility.yul\":1053:1055   */\n      0x40\n        /* \"#utility.yul\":1038:1056   */\n      dup12\n      add\n        /* \"#utility.yul\":1025:1057   */\n      calldataload\n        /* \"#utility.yul\":1066:1099   */\n      tag_444\n        /* \"#utility.yul\":1025:1057   */\n      dup2\n        /* \"#utility.yul\":1066:1099   */\n      tag_436\n      jump\t// in\n    tag_444:\n        /* \"#utility.yul\":1118:1125   */\n      swap8\n      pop\n        /* \"#utility.yul\":1163:1166   */\n      0x7f\n        /* \"#utility.yul\":1148:1167   */\n      dup12\n      add\n        /* \"#utility.yul\":1144:1177   */\n      dup13\n      sgt\n        /* \"#utility.yul\":1134:1136   */\n      tag_445\n      jumpi\n        /* \"#utility.yul\":1191:1192   */\n      0x00\n        /* \"#utility.yul\":1188:1189   */\n      dup1\n        /* \"#utility.yul\":1181:1193   */\n      revert\n        /* \"#utility.yul\":1134:1136   */\n    tag_445:\n        /* \"#utility.yul\":1224:1226   */\n      0x40\n        /* \"#utility.yul\":1218:1227   */\n      mload\n        /* \"#utility.yul\":1266:1269   */\n      0xe0\n        /* \"#utility.yul\":1258:1264   */\n      dup2\n        /* \"#utility.yul\":1254:1270   */\n      add\n        /* \"#utility.yul\":1336:1342   */\n      dup2\n        /* \"#utility.yul\":1324:1334   */\n      dup2\n        /* \"#utility.yul\":1321:1343   */\n      lt\n        /* \"#utility.yul\":1300:1318   */\n      0xffffffffffffffff\n        /* \"#utility.yul\":1288:1298   */\n      dup3\n        /* \"#utility.yul\":1285:1319   */\n      gt\n        /* \"#utility.yul\":1282:1344   */\n      or\n        /* \"#utility.yul\":1279:1281   */\n      iszero\n      tag_447\n      jumpi\n        /* \"#utility.yul\":1347:1365   */\n      tag_447\n      tag_448\n      jump\t// in\n    tag_447:\n        /* \"#utility.yul\":1383:1385   */\n      0x40\n        /* \"#utility.yul\":1376:1398   */\n      mstore\n        /* \"#utility.yul\":1418:1424   */\n      dup1\n        /* \"#utility.yul\":1459:1461   */\n      0x60\n        /* \"#utility.yul\":1444:1462   */\n      dup14\n      add\n        /* \"#utility.yul\":1496:1499   */\n      0x0140\n        /* \"#utility.yul\":1481:1500   */\n      dup15\n      add\n        /* \"#utility.yul\":1512:1527   */\n      dup16\n      dup2\n      gt\n        /* \"#utility.yul\":1509:1511   */\n      iszero\n      tag_449\n      jumpi\n        /* \"#utility.yul\":1540:1541   */\n      0x00\n        /* \"#utility.yul\":1537:1538   */\n      dup1\n        /* \"#utility.yul\":1530:1542   */\n      revert\n        /* \"#utility.yul\":1509:1511   */\n    tag_449:\n        /* \"#utility.yul\":1562:1563   */\n      0x00\n        /* \"#utility.yul\":1572:1737   */\n    tag_450:\n        /* \"#utility.yul\":1586:1590   */\n      0x07\n        /* \"#utility.yul\":1583:1584   */\n      dup2\n        /* \"#utility.yul\":1580:1591   */\n      lt\n        /* \"#utility.yul\":1572:1737   */\n      iszero\n      tag_452\n      jumpi\n        /* \"#utility.yul\":1645:1662   */\n      dup3\n      calldataload\n        /* \"#utility.yul\":1633:1663   */\n      dup5\n      mstore\n        /* \"#utility.yul\":1683:1695   */\n      swap3\n      dup6\n      add\n      swap3\n        /* \"#utility.yul\":1715:1727   */\n      swap2\n      dup6\n      add\n      swap2\n        /* \"#utility.yul\":1606:1607   */\n      0x01\n        /* \"#utility.yul\":1599:1608   */\n      add\n        /* \"#utility.yul\":1572:1737   */\n      jump(tag_450)\n    tag_452:\n      pop\n        /* \"#utility.yul\":1756:1762   */\n      swap3\n      swap10\n      pop\n      pop\n        /* \"#utility.yul\":1781:1797   */\n      swap1\n      calldataload\n      swap7\n      pop\n      pop\n      pop\n        /* \"#utility.yul\":1844:1847   */\n      0x0160\n        /* \"#utility.yul\":1829:1848   */\n      dup11\n      add\n        /* \"#utility.yul\":1816:1849   */\n      calldataload\n      swap4\n      pop\n        /* \"#utility.yul\":1896:1899   */\n      0x0180\n        /* \"#utility.yul\":1881:1900   */\n      dup11\n      add\n        /* \"#utility.yul\":1868:1901   */\n      calldataload\n      swap3\n      pop\n        /* \"#utility.yul\":1920:1967   */\n      tag_453\n        /* \"#utility.yul\":1962:1965   */\n      0x01a0\n        /* \"#utility.yul\":1947:1966   */\n      dup12\n      add\n        /* \"#utility.yul\":1920:1967   */\n      tag_433\n      jump\t// in\n    tag_453:\n        /* \"#utility.yul\":1910:1967   */\n      swap2\n      pop\n        /* \"#utility.yul\":2014:2017   */\n      0x01c0\n        /* \"#utility.yul\":2003:2012   */\n      dup11\n        /* \"#utility.yul\":1999:2018   */\n      add\n        /* \"#utility.yul\":1986:2019   */\n      calldataload\n        /* \"#utility.yul\":1976:2019   */\n      swap1\n      pop\n        /* \"#utility.yul\":684:2025   */\n      swap3\n      swap6\n      swap9\n      pop\n      swap3\n      swap6\n      swap9\n      pop\n      swap3\n      swap6\n      swap9\n      jump\t// out\n        /* \"#utility.yul\":2030:2271   */\n    tag_122:\n        /* \"#utility.yul\":2086:2092   */\n      0x00\n        /* \"#utility.yul\":2139:2141   */\n      0x20\n        /* \"#utility.yul\":2127:2136   */\n      dup3\n        /* \"#utility.yul\":2118:2125   */\n      dup5\n        /* \"#utility.yul\":2114:2137   */\n      sub\n        /* \"#utility.yul\":2110:2142   */\n      slt\n        /* \"#utility.yul\":2107:2109   */\n      iszero\n      tag_455\n      jumpi\n        /* \"#utility.yul\":2155:2156   */\n      0x00\n        /* \"#utility.yul\":2152:2153   */\n      dup1\n        /* \"#utility.yul\":2145:2157   */\n      revert\n        /* \"#utility.yul\":2107:2109   */\n    tag_455:\n        /* \"#utility.yul\":2194:2203   */\n      dup2\n        /* \"#utility.yul\":2181:2204   */\n      calldataload\n        /* \"#utility.yul\":2213:2241   */\n      tag_439\n        /* \"#utility.yul\":2235:2240   */\n      dup2\n        /* \"#utility.yul\":2213:2241   */\n      tag_457\n      jump\t// in\n        /* \"#utility.yul\":2276:2521   */\n    tag_237:\n        /* \"#utility.yul\":2343:2349   */\n      0x00\n        /* \"#utility.yul\":2396:2398   */\n      0x20\n        /* \"#utility.yul\":2384:2393   */\n      dup3\n        /* \"#utility.yul\":2375:2382   */\n      dup5\n        /* \"#utility.yul\":2371:2394   */\n      sub\n        /* \"#utility.yul\":2367:2399   */\n      slt\n        /* \"#utility.yul\":2364:2366   */\n      iszero\n      tag_459\n      jumpi\n        /* \"#utility.yul\":2412:2413   */\n      0x00\n        /* \"#utility.yul\":2409:2410   */\n      dup1\n        /* \"#utility.yul\":2402:2414   */\n      revert\n        /* \"#utility.yul\":2364:2366   */\n    tag_459:\n        /* \"#utility.yul\":2444:2453   */\n      dup2\n        /* \"#utility.yul\":2438:2454   */\n      mload\n        /* \"#utility.yul\":2463:2491   */\n      tag_439\n        /* \"#utility.yul\":2485:2490   */\n      dup2\n        /* \"#utility.yul\":2463:2491   */\n      tag_457\n      jump\t// in\n        /* \"#utility.yul\":2526:2706   */\n    tag_102:\n        /* \"#utility.yul\":2585:2591   */\n      0x00\n        /* \"#utility.yul\":2638:2640   */\n      0x20\n        /* \"#utility.yul\":2626:2635   */\n      dup3\n        /* \"#utility.yul\":2617:2624   */\n      dup5\n        /* \"#utility.yul\":2613:2636   */\n      sub\n        /* \"#utility.yul\":2609:2641   */\n      slt\n        /* \"#utility.yul\":2606:2608   */\n      iszero\n      tag_462\n      jumpi\n        /* \"#utility.yul\":2654:2655   */\n      0x00\n        /* \"#utility.yul\":2651:2652   */\n      dup1\n        /* \"#utility.yul\":2644:2656   */\n      revert\n        /* \"#utility.yul\":2606:2608   */\n    tag_462:\n      pop\n        /* \"#utility.yul\":2677:2700   */\n      calldataload\n      swap2\n        /* \"#utility.yul\":2596:2706   */\n      swap1\n      pop\n      jump\t// out\n        /* \"#utility.yul\":2711:2895   */\n    tag_139:\n        /* \"#utility.yul\":2781:2787   */\n      0x00\n        /* \"#utility.yul\":2834:2836   */\n      0x20\n        /* \"#utility.yul\":2822:2831   */\n      dup3\n        /* \"#utility.yul\":2813:2820   */\n      dup5\n        /* \"#utility.yul\":2809:2832   */\n      sub\n        /* \"#utility.yul\":2805:2837   */\n      slt\n        /* \"#utility.yul\":2802:2804   */\n      iszero\n      tag_464\n      jumpi\n        /* \"#utility.yul\":2850:2851   */\n      0x00\n        /* \"#utility.yul\":2847:2848   */\n      dup1\n        /* \"#utility.yul\":2840:2852   */\n      revert\n        /* \"#utility.yul\":2802:2804   */\n    tag_464:\n      pop\n        /* \"#utility.yul\":2873:2889   */\n      mload\n      swap2\n        /* \"#utility.yul\":2792:2895   */\n      swap1\n      pop\n      jump\t// out\n        /* \"#utility.yul\":2900:3326   */\n    tag_413:\n        /* \"#utility.yul\":3029:3032   */\n      0x00\n        /* \"#utility.yul\":3067:3073   */\n      dup3\n        /* \"#utility.yul\":3061:3074   */\n      mload\n        /* \"#utility.yul\":3092:3093   */\n      0x00\n        /* \"#utility.yul\":3102:3231   */\n    tag_466:\n        /* \"#utility.yul\":3116:3122   */\n      dup2\n        /* \"#utility.yul\":3113:3114   */\n      dup2\n        /* \"#utility.yul\":3110:3123   */\n      lt\n        /* \"#utility.yul\":3102:3231   */\n      iszero\n      tag_468\n      jumpi\n        /* \"#utility.yul\":3214:3218   */\n      0x20\n        /* \"#utility.yul\":3198:3212   */\n      dup2\n      dup7\n      add\n        /* \"#utility.yul\":3194:3219   */\n      dup2\n      add\n        /* \"#utility.yul\":3188:3220   */\n      mload\n        /* \"#utility.yul\":3175:3186   */\n      dup6\n      dup4\n      add\n        /* \"#utility.yul\":3168:3221   */\n      mstore\n        /* \"#utility.yul\":3131:3143   */\n      add\n        /* \"#utility.yul\":3102:3231   */\n      jump(tag_466)\n    tag_468:\n        /* \"#utility.yul\":3249:3255   */\n      dup2\n        /* \"#utility.yul\":3246:3247   */\n      dup2\n        /* \"#utility.yul\":3243:3256   */\n      gt\n        /* \"#utility.yul\":3240:3242   */\n      iszero\n      tag_469\n      jumpi\n        /* \"#utility.yul\":3284:3285   */\n      0x00\n        /* \"#utility.yul\":3275:3281   */\n      dup3\n        /* \"#utility.yul\":3270:3273   */\n      dup6\n        /* \"#utility.yul\":3266:3282   */\n      add\n        /* \"#utility.yul\":3259:3286   */\n      mstore\n        /* \"#utility.yul\":3240:3242   */\n    tag_469:\n      pop\n        /* \"#utility.yul\":3304:3320   */\n      swap2\n      swap1\n      swap2\n      add\n      swap3\n        /* \"#utility.yul\":3037:3326   */\n      swap2\n      pop\n      pop\n      jump\t// out\n        /* \"#utility.yul\":6699:7050   */\n    tag_248:\n        /* \"#utility.yul\":6901:6903   */\n      0x20\n        /* \"#utility.yul\":6883:6904   */\n      dup1\n      dup3\n      mstore\n        /* \"#utility.yul\":6940:6942   */\n      0x1b\n        /* \"#utility.yul\":6920:6938   */\n      swap1\n      dup3\n      add\n        /* \"#utility.yul\":6913:6943   */\n      mstore\n        /* \"#utility.yul\":6979:7008   */\n      0x416c6c20746f6b656e20686173206265656e2077697468647261770000000000\n        /* \"#utility.yul\":6974:6976   */\n      0x40\n        /* \"#utility.yul\":6959:6977   */\n      dup3\n      add\n        /* \"#utility.yul\":6952:7009   */\n      mstore\n        /* \"#utility.yul\":7041:7043   */\n      0x60\n        /* \"#utility.yul\":7026:7044   */\n      add\n      swap1\n        /* \"#utility.yul\":6873:7050   */\n      jump\t// out\n        /* \"#utility.yul\":11477:11832   */\n    tag_213:\n        /* \"#utility.yul\":11679:11681   */\n      0x20\n        /* \"#utility.yul\":11661:11682   */\n      dup1\n      dup3\n      mstore\n        /* \"#utility.yul\":11718:11720   */\n      0x1f\n        /* \"#utility.yul\":11698:11716   */\n      swap1\n      dup3\n      add\n        /* \"#utility.yul\":11691:11721   */\n      mstore\n        /* \"#utility.yul\":11757:11790   */\n      0x5265656e7472616e637947756172643a207265656e7472616e742063616c6c00\n        /* \"#utility.yul\":11752:11754   */\n      0x40\n        /* \"#utility.yul\":11737:11755   */\n      dup3\n      add\n        /* \"#utility.yul\":11730:11791   */\n      mstore\n        /* \"#utility.yul\":11823:11825   */\n      0x60\n        /* \"#utility.yul\":11808:11826   */\n      add\n      swap1\n        /* \"#utility.yul\":11651:11832   */\n      jump\t// out\n        /* \"#utility.yul\":13860:13988   */\n    tag_264:\n        /* \"#utility.yul\":13900:13903   */\n      0x00\n        /* \"#utility.yul\":13931:13932   */\n      dup3\n        /* \"#utility.yul\":13927:13933   */\n      not\n        /* \"#utility.yul\":13924:13925   */\n      dup3\n        /* \"#utility.yul\":13921:13934   */\n      gt\n        /* \"#utility.yul\":13918:13920   */\n      iszero\n      tag_500\n      jumpi\n        /* \"#utility.yul\":13937:13955   */\n      tag_500\n      tag_501\n      jump\t// in\n    tag_500:\n      pop\n        /* \"#utility.yul\":13973:13982   */\n      add\n      swap1\n        /* \"#utility.yul\":13908:13988   */\n      jump\t// out\n        /* \"#utility.yul\":13993:14210   */\n    tag_185:\n        /* \"#utility.yul\":14033:14034   */\n      0x00\n        /* \"#utility.yul\":14059:14060   */\n      dup3\n        /* \"#utility.yul\":14049:14051   */\n      tag_503\n      jumpi\n        /* \"#utility.yul\":14103:14113   */\n      0x4e487b71\n        /* \"#utility.yul\":14098:14101   */\n      0xe0\n        /* \"#utility.yul\":14094:14114   */\n      shl\n        /* \"#utility.yul\":14091:14092   */\n      0x00\n        /* \"#utility.yul\":14084:14115   */\n      mstore\n        /* \"#utility.yul\":14138:14142   */\n      0x12\n        /* \"#utility.yul\":14135:14136   */\n      0x04\n        /* \"#utility.yul\":14128:14143   */\n      mstore\n        /* \"#utility.yul\":14166:14170   */\n      0x24\n        /* \"#utility.yul\":14163:14164   */\n      0x00\n        /* \"#utility.yul\":14156:14171   */\n      revert\n        /* \"#utility.yul\":14049:14051   */\n    tag_503:\n      pop\n        /* \"#utility.yul\":14195:14204   */\n      div\n      swap1\n        /* \"#utility.yul\":14039:14210   */\n      jump\t// out\n        /* \"#utility.yul\":14215:14637   */\n    tag_504:\n        /* \"#utility.yul\":14304:14305   */\n      0x01\n        /* \"#utility.yul\":14347:14352   */\n      dup2\n        /* \"#utility.yul\":14304:14305   */\n      dup2\n        /* \"#utility.yul\":14361:14631   */\n    tag_506:\n        /* \"#utility.yul\":14382:14389   */\n      dup1\n        /* \"#utility.yul\":14372:14380   */\n      dup6\n        /* \"#utility.yul\":14369:14390   */\n      gt\n        /* \"#utility.yul\":14361:14631   */\n      iszero\n      tag_508\n      jumpi\n        /* \"#utility.yul\":14441:14445   */\n      dup2\n        /* \"#utility.yul\":14437:14438   */\n      0x00\n        /* \"#utility.yul\":14433:14439   */\n      not\n        /* \"#utility.yul\":14429:14446   */\n      div\n        /* \"#utility.yul\":14423:14427   */\n      dup3\n        /* \"#utility.yul\":14420:14447   */\n      gt\n        /* \"#utility.yul\":14417:14419   */\n      iszero\n      tag_510\n      jumpi\n        /* \"#utility.yul\":14450:14468   */\n      tag_510\n      tag_501\n      jump\t// in\n    tag_510:\n        /* \"#utility.yul\":14500:14507   */\n      dup1\n        /* \"#utility.yul\":14490:14498   */\n      dup6\n        /* \"#utility.yul\":14486:14508   */\n      and\n        /* \"#utility.yul\":14483:14485   */\n      iszero\n      tag_511\n      jumpi\n        /* \"#utility.yul\":14520:14536   */\n      swap2\n      dup2\n      mul\n      swap2\n        /* \"#utility.yul\":14483:14485   */\n    tag_511:\n        /* \"#utility.yul\":14599:14621   */\n      swap4\n      dup5\n      shr\n      swap4\n        /* \"#utility.yul\":14559:14574   */\n      swap1\n      dup1\n      mul\n      swap1\n        /* \"#utility.yul\":14361:14631   */\n      jump(tag_506)\n    tag_508:\n        /* \"#utility.yul\":14365:14368   */\n      pop\n        /* \"#utility.yul\":14279:14637   */\n      swap3\n      pop\n      swap3\n      swap1\n      pop\n      jump\t// out\n        /* \"#utility.yul\":14642:14773   */\n    tag_141:\n        /* \"#utility.yul\":14702:14707   */\n      0x00\n        /* \"#utility.yul\":14731:14767   */\n      tag_399\n        /* \"#utility.yul\":14758:14766   */\n      dup4\n        /* \"#utility.yul\":14752:14756   */\n      dup4\n        /* \"#utility.yul\":14827:14832   */\n      0x00\n        /* \"#utility.yul\":14857:14865   */\n      dup3\n        /* \"#utility.yul\":14847:14849   */\n      tag_516\n      jumpi\n      pop\n        /* \"#utility.yul\":14898:14899   */\n      0x01\n        /* \"#utility.yul\":14912:14917   */\n      jump(tag_398)\n        /* \"#utility.yul\":14847:14849   */\n    tag_516:\n        /* \"#utility.yul\":14946:14950   */\n      dup2\n        /* \"#utility.yul\":14936:14938   */\n      tag_517\n      jumpi\n      pop\n        /* \"#utility.yul\":14983:14984   */\n      0x00\n        /* \"#utility.yul\":14997:15002   */\n      jump(tag_398)\n        /* \"#utility.yul\":14936:14938   */\n    tag_517:\n        /* \"#utility.yul\":15028:15032   */\n      dup2\n        /* \"#utility.yul\":15046:15047   */\n      0x01\n        /* \"#utility.yul\":15041:15100   */\n      dup2\n      eq\n      tag_519\n      jumpi\n        /* \"#utility.yul\":15114:15115   */\n      0x02\n        /* \"#utility.yul\":15109:15239   */\n      dup2\n      eq\n      tag_520\n      jumpi\n        /* \"#utility.yul\":15021:15239   */\n      jump(tag_518)\n        /* \"#utility.yul\":15041:15100   */\n    tag_519:\n        /* \"#utility.yul\":15071:15072   */\n      0x01\n        /* \"#utility.yul\":15062:15072   */\n      swap2\n      pop\n        /* \"#utility.yul\":15085:15090   */\n      pop\n      jump(tag_398)\n        /* \"#utility.yul\":15109:15239   */\n    tag_520:\n        /* \"#utility.yul\":15146:15149   */\n      0xff\n        /* \"#utility.yul\":15136:15144   */\n      dup5\n        /* \"#utility.yul\":15133:15150   */\n      gt\n        /* \"#utility.yul\":15130:15132   */\n      iszero\n      tag_522\n      jumpi\n        /* \"#utility.yul\":15153:15171   */\n      tag_522\n      tag_501\n      jump\t// in\n    tag_522:\n      pop\n      pop\n        /* \"#utility.yul\":15209:15210   */\n      0x01\n        /* \"#utility.yul\":15195:15211   */\n      dup3\n      shl\n        /* \"#utility.yul\":15224:15229   */\n      jump(tag_398)\n        /* \"#utility.yul\":15021:15239   */\n    tag_518:\n      pop\n        /* \"#utility.yul\":15323:15325   */\n      0x20\n        /* \"#utility.yul\":15313:15321   */\n      dup4\n        /* \"#utility.yul\":15310:15326   */\n      lt\n        /* \"#utility.yul\":15304:15307   */\n      0x0133\n        /* \"#utility.yul\":15298:15302   */\n      dup4\n        /* \"#utility.yul\":15295:15308   */\n      lt\n        /* \"#utility.yul\":15291:15327   */\n      and\n        /* \"#utility.yul\":15285:15287   */\n      0x4e\n        /* \"#utility.yul\":15275:15283   */\n      dup5\n        /* \"#utility.yul\":15272:15288   */\n      lt\n        /* \"#utility.yul\":15267:15269   */\n      0x0b\n        /* \"#utility.yul\":15261:15265   */\n      dup5\n        /* \"#utility.yul\":15258:15270   */\n      lt\n        /* \"#utility.yul\":15254:15289   */\n      and\n        /* \"#utility.yul\":15251:15328   */\n      or\n        /* \"#utility.yul\":15248:15250   */\n      iszero\n      tag_523\n      jumpi\n      pop\n        /* \"#utility.yul\":15360:15379   */\n      dup2\n      dup2\n      exp\n        /* \"#utility.yul\":15392:15397   */\n      jump(tag_398)\n        /* \"#utility.yul\":15248:15250   */\n    tag_523:\n        /* \"#utility.yul\":15439:15473   */\n      tag_524\n        /* \"#utility.yul\":15464:15472   */\n      dup4\n        /* \"#utility.yul\":15458:15462   */\n      dup4\n        /* \"#utility.yul\":15439:15473   */\n      tag_504\n      jump\t// in\n    tag_524:\n        /* \"#utility.yul\":15509:15515   */\n      dup1\n        /* \"#utility.yul\":15505:15506   */\n      0x00\n        /* \"#utility.yul\":15501:15507   */\n      not\n        /* \"#utility.yul\":15497:15516   */\n      div\n        /* \"#utility.yul\":15488:15495   */\n      dup3\n        /* \"#utility.yul\":15485:15517   */\n      gt\n        /* \"#utility.yul\":15482:15484   */\n      iszero\n      tag_526\n      jumpi\n        /* \"#utility.yul\":15520:15538   */\n      tag_526\n      tag_501\n      jump\t// in\n    tag_526:\n        /* \"#utility.yul\":15558:15578   */\n      mul\n      swap4\n        /* \"#utility.yul\":14837:15584   */\n      swap3\n      pop\n      pop\n      pop\n      jump\t// out\n        /* \"#utility.yul\":15589:15757   */\n    tag_146:\n        /* \"#utility.yul\":15629:15636   */\n      0x00\n        /* \"#utility.yul\":15695:15696   */\n      dup2\n        /* \"#utility.yul\":15691:15692   */\n      0x00\n        /* \"#utility.yul\":15687:15693   */\n      not\n        /* \"#utility.yul\":15683:15697   */\n      div\n        /* \"#utility.yul\":15680:15681   */\n      dup4\n        /* \"#utility.yul\":15677:15698   */\n      gt\n        /* \"#utility.yul\":15672:15673   */\n      dup3\n        /* \"#utility.yul\":15665:15674   */\n      iszero\n        /* \"#utility.yul\":15658:15675   */\n      iszero\n        /* \"#utility.yul\":15654:15699   */\n      and\n        /* \"#utility.yul\":15651:15653   */\n      iszero\n      tag_529\n      jumpi\n        /* \"#utility.yul\":15702:15720   */\n      tag_529\n      tag_501\n      jump\t// in\n    tag_529:\n      pop\n        /* \"#utility.yul\":15742:15751   */\n      mul\n      swap1\n        /* \"#utility.yul\":15641:15757   */\n      jump\t// out\n        /* \"#utility.yul\":15762:15887   */\n    tag_245:\n        /* \"#utility.yul\":15802:15806   */\n      0x00\n        /* \"#utility.yul\":15830:15831   */\n      dup3\n        /* \"#utility.yul\":15827:15828   */\n      dup3\n        /* \"#utility.yul\":15824:15832   */\n      lt\n        /* \"#utility.yul\":15821:15823   */\n      iszero\n      tag_532\n      jumpi\n        /* \"#utility.yul\":15835:15853   */\n      tag_532\n      tag_501\n      jump\t// in\n    tag_532:\n      pop\n        /* \"#utility.yul\":15872:15881   */\n      sub\n      swap1\n        /* \"#utility.yul\":15811:15887   */\n      jump\t// out\n        /* \"#utility.yul\":15892:16027   */\n    tag_341:\n        /* \"#utility.yul\":15931:15934   */\n      0x00\n      not(0x00)\n        /* \"#utility.yul\":15952:15969   */\n      dup3\n      eq\n        /* \"#utility.yul\":15949:15951   */\n      iszero\n      tag_535\n      jumpi\n        /* \"#utility.yul\":15972:15990   */\n      tag_535\n      tag_501\n      jump\t// in\n    tag_535:\n      pop\n        /* \"#utility.yul\":16019:16020   */\n      0x01\n        /* \"#utility.yul\":16008:16021   */\n      add\n      swap1\n        /* \"#utility.yul\":15939:16027   */\n      jump\t// out\n        /* \"#utility.yul\":16032:16159   */\n    tag_501:\n        /* \"#utility.yul\":16093:16103   */\n      0x4e487b71\n        /* \"#utility.yul\":16088:16091   */\n      0xe0\n        /* \"#utility.yul\":16084:16104   */\n      shl\n        /* \"#utility.yul\":16081:16082   */\n      0x00\n        /* \"#utility.yul\":16074:16105   */\n      mstore\n        /* \"#utility.yul\":16124:16128   */\n      0x11\n        /* \"#utility.yul\":16121:16122   */\n      0x04\n        /* \"#utility.yul\":16114:16129   */\n      mstore\n        /* \"#utility.yul\":16148:16152   */\n      0x24\n        /* \"#utility.yul\":16145:16146   */\n      0x00\n        /* \"#utility.yul\":16138:16153   */\n      revert\n        /* \"#utility.yul\":16296:16423   */\n    tag_448:\n        /* \"#utility.yul\":16357:16367   */\n      0x4e487b71\n        /* \"#utility.yul\":16352:16355   */\n      0xe0\n        /* \"#utility.yul\":16348:16368   */\n      shl\n        /* \"#utility.yul\":16345:16346   */\n      0x00\n        /* \"#utility.yul\":16338:16369   */\n      mstore\n        /* \"#utility.yul\":16388:16392   */\n      0x41\n        /* \"#utility.yul\":16385:16386   */\n      0x04\n        /* \"#utility.yul\":16378:16393   */\n      mstore\n        /* \"#utility.yul\":16412:16416   */\n      0x24\n        /* \"#utility.yul\":16409:16410   */\n      0x00\n        /* \"#utility.yul\":16402:16417   */\n      revert\n        /* \"#utility.yul\":16428:16559   */\n    tag_436:\n      sub(shl(0xa0, 0x01), 0x01)\n        /* \"#utility.yul\":16503:16534   */\n      dup2\n      and\n        /* \"#utility.yul\":16493:16535   */\n      dup2\n      eq\n        /* \"#utility.yul\":16483:16485   */\n      tag_203\n      jumpi\n        /* \"#utility.yul\":16549:16550   */\n      0x00\n        /* \"#utility.yul\":16546:16547   */\n      dup1\n        /* \"#utility.yul\":16539:16551   */\n      revert\n        /* \"#utility.yul\":16564:16682   */\n    tag_457:\n        /* \"#utility.yul\":16650:16655   */\n      dup1\n        /* \"#utility.yul\":16643:16656   */\n      iszero\n        /* \"#utility.yul\":16636:16657   */\n      iszero\n        /* \"#utility.yul\":16629:16634   */\n      dup2\n        /* \"#utility.yul\":16626:16658   */\n      eq\n        /* \"#utility.yul\":16616:16618   */\n      tag_203\n      jumpi\n        /* \"#utility.yul\":16672:16673   */\n      0x00\n        /* \"#utility.yul\":16669:16670   */\n      dup1\n        /* \"#utility.yul\":16662:16674   */\n      revert\n\n    auxdata: 0xa2646970667358221220349cfe2658aeb54625aab92073800547f729aeea80323a37156a5d9b1379c23764736f6c63430008050033\n}\n",
				"bytecode": {
					"linkReferences": {},
					"object": "60806040526040516200214b3803806200214b83398101604081905262000026916200019e565b60016000556200003633620000da565b602280546001600160a01b03199081166001600160a01b03841617909155601b805473c778417e063141139fce010982780140aa0cd5ab9216919091179055620000a2601c736ccb41eeda5a073076f3e7dc1614c185b5fa41ed6200012c602090811b620018fa17901c565b50620000d2734f0b12bbf40fc182559822a5b1db6d34dbc3e016601c6200012c60201b620018fa1790919060201c565b5050620001d0565b600180546001600160a01b038381166001600160a01b0319831681179093556040519116919082907f8be0079c531659141344cd1fd0a4f28419497f9722a3daafe3b4186f6b6457e090600090a35050565b600062000143836001600160a01b0384166200014c565b90505b92915050565b6000818152600183016020526040812054620001955750815460018181018455600084815260208082209093018490558454848252828601909352604090209190915562000146565b50600062000146565b600060208284031215620001b157600080fd5b81516001600160a01b0381168114620001c957600080fd5b9392505050565b611f6b80620001e06000396000f3fe60806040526004361061014b5760003560e01c806395661e70116100b6578063cad5b0f71161006f578063cad5b0f71461046f578063d4c1dee914610494578063e2d3f423146104aa578063eb002bb01461051c578063f2fde38b1461053c578063f8b2cb4f1461055c57600080fd5b806395661e701461036b578063ab33985a14610380578063acfb235514610395578063ad5c46481461041c578063ae2b09651461043c578063b6b55f251461045c57600080fd5b806356c5f3491161010857806356c5f349146102b6578063715018a6146102e3578063861faf5f146102f85780638b84e714146103005780638da5cb5b146103385780638edf18e61461035657600080fd5b80630a9c5ddb1461015057806312e5d0b91461017257806318856a2f146101a75780631df4ccfc14610267578063200d2ed21461028b5780633b5ef2ad146102a0575b600080fd5b34801561015c57600080fd5b5061017061016b366004611b63565b610584565b005b34801561017e57600080fd5b50600d54600e5461018d919082565b604080519283526020830191909152015b60405180910390f35b3480156101b357600080fd5b50600f54601054601154601254601354601454601554601654601754601854601954601a546101fb9b6001600160a01b039081169b81169a16989796959493929160ff16908c565b604080516001600160a01b039d8e1681529b8d1660208d015299909b16988a01989098526060890196909652608088019490945260a087019290925260c086015260e085015261010084015261012083015215156101408201526101608101919091526101800161019e565b34801561027357600080fd5b5061027d601e5481565b60405190815260200161019e565b34801561029757600080fd5b5061027d610923565b3480156102ac57600080fd5b5061027d601f5481565b3480156102c257600080fd5b5061027d6102d1366004611b3f565b60036020526000908152604090205481565b3480156102ef57600080fd5b5061017061094c565b6101706109b7565b34801561030c57600080fd5b50602254610320906001600160a01b031681565b6040516001600160a01b03909116815260200161019e565b34801561034457600080fd5b506001546001600160a01b0316610320565b34801561036257600080fd5b506101706109e6565b34801561037757600080fd5b50610170610cab565b34801561038c57600080fd5b50610170610ec7565b3480156103a157600080fd5b50600454600554600654600754600854600954600a54600b546103d4979695949392919060ff8082169161010090041689565b60408051998a5260208a0198909852968801959095526060870193909352608086019190915260a085015260c0840152151560e083015215156101008201526101200161019e565b34801561042857600080fd5b50601b54610320906001600160a01b031681565b34801561044857600080fd5b50602054610320906001600160a01b031681565b61017061046a366004611c95565b61119c565b34801561047b57600080fd5b5061048461156b565b604051901515815260200161019e565b3480156104a057600080fd5b5061027d60215481565b3480156104b657600080fd5b506104f46104c5366004611b3f565b600260208190526000918252604090912080546001820154928201546003830154600490930154919392909185565b604080519586526020860194909452928401919091526060830152608082015260a00161019e565b34801561052857600080fd5b50610170610537366004611c5b565b61157d565b34801561054857600080fd5b50610170610557366004611b3f565b611832565b34801561056857600080fd5b5061027d610577366004611b3f565b6001600160a01b03163190565b600f80546001600160a01b03808c166001600160a01b031992831617909255601080548b8416908316811790915560118054938b16939092169290921790556040805163313ce56760e01b8152905163313ce56791600480820192602092909190829003018186803b1580156105f957600080fd5b505afa15801561060d573d6000803e3d6000fd5b505050506040513d601f19601f820116820180604052508101906106319190611cae565b61063c90600a611ded565b86516106489190611e95565b6012556020808701516013556040808801516014556060880151601555601154815163313ce56760e01b815291516001600160a01b039091169263313ce5679260048082019391829003018186803b1580156106a357600080fd5b505afa1580156106b7573d6000803e3d6000fd5b505050506040513d601f19601f820116820180604052508101906106db9190611cae565b6106e690600a611ded565b60808701516106f59190611e95565b6016556011546040805163313ce56760e01b815290516001600160a01b039092169163313ce56791600480820192602092909190829003018186803b15801561073d57600080fd5b505afa158015610751573d6000803e3d6000fd5b505050506040513d601f19601f820116820180604052508101906107759190611cae565b61078090600a611ded565b60a087015161078f9190611e95565b600d556011546040805163313ce56760e01b815290516001600160a01b039092169163313ce56791600480820192602092909190829003018186803b1580156107d757600080fd5b505afa1580156107eb573d6000803e3d6000fd5b505050506040513d601f19601f8201168201806040525081019061080f9190611cae565b61081a90600a611ded565b60c08701516108299190611e95565b600e55601154601b546019805460ff19166001600160a01b0392831692909316918214929092179091556040805163313ce56760e01b8152905163313ce56791600480820192602092909190829003018186803b15801561088957600080fd5b505afa15801561089d573d6000803e3d6000fd5b505050506040513d601f19601f820116820180604052508101906108c19190611cae565b6108cc90600a611ded565b600d546012546108db91611918565b6108e59190611d88565b601a55601f92909255601793909355601891909155602080546001600160a01b0319166001600160a01b039093169290921790915560215550505050565b6013546000904210156109365750600090565b6014544211156109465750600290565b50600190565b6001546001600160a01b031633146109ab5760405162461bcd60e51b815260206004820181905260248201527f4f776e61626c653a2063616c6c6572206973206e6f7420746865206f776e657260448201526064015b60405180910390fd5b6109b56000611924565b565b60405133904780156108fc02916000818181858888f193505050501580156109e3573d6000803e3d6000fd5b50565b600f546001600160a01b0316336001600160a01b031614610a3e5760405162461bcd60e51b815260206004820152601260248201527127b7363c90383932b9b0b6329037bbb732b960711b60448201526064016109a2565b60026000541415610a615760405162461bcd60e51b81526004016109a290611d39565b600260009081556010546040516370a0823160e01b81523060048201526001600160a01b03909116906370a082319060240160206040518083038186803b158015610aab57600080fd5b505afa158015610abf573d6000803e3d6000fd5b505050506040513d601f19601f82011682018060405250810190610ae39190611cae565b600854600454919250600091610af891611976565b60045490915015610b2157600854600554610b1e91610b179190611976565b8390611976565b91505b600b5460ff1615610b745760405162461bcd60e51b815260206004820152601d60248201527f4e6f7468696e6720666f72206f776e657220636c61696d20746f6b656e00000060448201526064016109a2565b600b54610100900460ff1615610bcc5760405162461bcd60e51b815260206004820152601e60248201527f4e6f7468696e6720666f72206f776e657220726566756e6420746f6b656e000060448201526064016109a2565b600b805460ff191660011790556000601a55601054600f5460405163a9059cbb60e01b81526001600160a01b0391821660048201526024810185905291169063a9059cbb90604401602060405180830381600087803b158015610c2e57600080fd5b505af1158015610c42573d6000803e3d6000fd5b505050506040513d601f19601f82011682018060405250810190610c669190611c78565b50600f546040516001600160a01b039091169082156108fc029083906000818181858888f19350505050158015610ca1573d6000803e3d6000fd5b5050600160005550565b60026000541415610cce5760405162461bcd60e51b81526004016109a290611d39565b60026000908155600754600454610ce59190611eb4565b11610d025760405162461bcd60e51b81526004016109a290611d02565b3360009081526002602052604090208054610d595760405162461bcd60e51b8152602060048201526017602482015276165bdd481a185d99481b9bdd08189bdd59da1d081e595d604a1b60448201526064016109a2565b6004810154815411610d9e5760405162461bcd60e51b815260206004820152600e60248201526d165bdd481c99599d5b9908185b1b60921b60448201526064016109a2565b8054601754600091610dc9916103e891610dc391610dbd908490611976565b90611918565b90611982565b60205483549192506001600160a01b0316906108fc90610de99084611976565b6040518115909202916000818181858888f19350505050158015610e11573d6000803e3d6000fd5b508154610e1e9082611976565b601e6000828254610e2f9190611d70565b909155505060078054829190600090610e49908490611d70565b9250508190555080826004016000828254610e649190611d70565b909155505042600283015560038201546001830154610e839190611eb4565b60088054600090610e95908490611d70565b9091555050604051339082156108fc029083906000818181858888f19350505050158015610ca1573d6000803e3d6000fd5b60026000541415610eea5760405162461bcd60e51b81526004016109a290611d39565b60026000908155600654600554610f019190611eb4565b11610f1e5760405162461bcd60e51b81526004016109a290611d02565b3360009081526002602052604090206001810154610f785760405162461bcd60e51b8152602060048201526017602482015276165bdd481a185d99481b9bdd08189bdd59da1d081e595d604a1b60448201526064016109a2565b8060030154816001015411610fc05760405162461bcd60e51b815260206004820152600e60248201526d165bdd4818db185a5b48185b1b1b60921b60448201526064016109a2565b6000610fea6103e8610dc38460010154610dbd600f600901546103e861197690919063ffffffff16565b60105460205460018501549293506001600160a01b039182169263a9059cbb92909116906110189085611976565b6040516001600160e01b031960e085901b1681526001600160a01b0390921660048301526024820152604401602060405180830381600087803b15801561105e57600080fd5b505af1158015611072573d6000803e3d6000fd5b505050506040513d601f19601f820116820180604052508101906110969190611c78565b506001820154600680546000906110ae908490611d70565b90915550506001820154601a80546000906110ca908490611eb4565b92505081905550808260030160008282546110e59190611d70565b9091555050426002830155600482015482546111019190611eb4565b60098054600090611113908490611d70565b909155505060105460405163a9059cbb60e01b8152336004820152602481018390526001600160a01b039091169063a9059cbb90604401602060405180830381600087803b15801561116457600080fd5b505af1158015611178573d6000803e3d6000fd5b505050506040513d601f19601f82011682018060405250810190610ca19190611c78565b600260005414156111bf5760405162461bcd60e51b81526004016109a290611d39565b600260008181553381526020919091526040812090829081906103e83483111561122b5760405162461bcd60e51b815260206004820152601a60248201527f506c656173652070726f76696465206e617669746520636f696e00000000000060448201526064016109a2565b6015548310156112705760405162461bcd60e51b815260206004820152601060248201526f4e6f7420656e6f7567682076616c756560801b60448201526064016109a2565b6016548311156112b35760405162461bcd60e51b815260206004820152600e60248201526d4f766572666c6f772076616c756560901b60448201526064016109a2565b6112bb61156b565b6112eb576112dc81610dc385610dbd601f548661197690919063ffffffff16565b92506112e88385611eb4565b91505b84546016546000916112fc91611eb4565b600454601a549192506000916113129190611eb4565b905060008183116113235782611325565b815b9050808611156113695760405162461bcd60e51b815260206004820152600f60248201526e53616c65206973207375636365737360881b60448201526064016109a2565b6000611410600f60020160009054906101000a90046001600160a01b03166001600160a01b031663313ce5676040518163ffffffff1660e01b815260040160206040518083038186803b1580156113bf57600080fd5b505afa1580156113d3573d6000803e3d6000fd5b505050506040513d601f19601f820116820180604052508101906113f79190611cae565b61140290600a611ded565b601254610dc3908a90611918565b9050868960000160008282546114269190611d70565b92505081905550808960010160008282546114419190611d70565b90915550506004805488919060009061145b908490611d70565b909155505060058054829190600090611475908490611d70565b9091555050600a805490600061148a83611ecb565b909155505033600090815260036020526040812080548892906114ae908490611d70565b9250508190555085601e60008282546114c79190611d70565b909155505060195460ff1680156114e75750346114e48789611d70565b11155b1561152f57336108fc876114fb8a34611eb4565b6115059190611eb4565b6040518115909202916000818181858888f1935050505015801561152d573d6000803e3d6000fd5b505b60195460ff1661155a5760115461155a906001600160a01b031633306115558a8c611d70565b61198e565b505060016000555050505050505050565b6000611578601c33611abe565b905090565b80156117195760065460055460009161159591611eb4565b116115b25760405162461bcd60e51b81526004016109a290611d02565b33600090815260026020526040902060038101546001820154116116245760405162461bcd60e51b8152602060048201526024808201527f596f7520636c61696d20616c6c206f722068617665206e6f7420626f75676874604482015263081e595d60e21b60648201526084016109a2565b601054600182015460405163a9059cbb60e01b815233600482015260248101919091526001600160a01b039091169063a9059cbb90604401602060405180830381600087803b15801561167657600080fd5b505af115801561168a573d6000803e3d6000fd5b505050506040513d601f19601f820116820180604052508101906116ae9190611c78565b506001810154600680546000906116c6908490611d70565b90915550506001810154601a80546000906116e2908490611eb4565b90915550506001810154600382018054600090611700908490611d70565b9091555050600080825560018201554260029091015550565b60075460045460009161172b91611eb4565b116117485760405162461bcd60e51b81526004016109a290611d02565b33600090815260026020526040902080546117b35760405162461bcd60e51b815260206004820152602560248201527f596f7520726566756e6420616c6c206f722068617665206e6f7420626f7567686044820152641d081e595d60da1b60648201526084016109a2565b80546117bf8180611eb4565b601e60008282546117d09190611d70565b9091555050600780548291906000906117ea908490611d70565b9091555050600080835560018301819055426002840155604051339183156108fc02918491818181858888f1935050505015801561182c573d6000803e3d6000fd5b50505050565b6001546001600160a01b0316331461188c5760405162461bcd60e51b815260206004820181905260248201527f4f776e61626c653a2063616c6c6572206973206e6f7420746865206f776e657260448201526064016109a2565b6001600160a01b0381166118f15760405162461bcd60e51b815260206004820152602660248201527f4f776e61626c653a206e6577206f776e657220697320746865207a65726f206160448201526564647265737360d01b60648201526084016109a2565b6109e381611924565b600061190f836001600160a01b038416611ae0565b90505b92915050565b600061190f8284611e95565b600180546001600160a01b038381166001600160a01b0319831681179093556040519116919082907f8be0079c531659141344cd1fd0a4f28419497f9722a3daafe3b4186f6b6457e090600090a35050565b600061190f8284611eb4565b600061190f8284611d88565b604080516001600160a01b0385811660248301528481166044830152606480830185905283518084039091018152608490920183526020820180516001600160e01b03166323b872dd60e01b17905291516000928392908816916119f29190611cc7565b6000604051808303816000865af19150503d8060008114611a2f576040519150601f19603f3d011682016040523d82523d6000602084013e611a34565b606091505b5091509150818015611a5e575080511580611a5e575080806020019051810190611a5e9190611c78565b611ab65760405162461bcd60e51b8152602060048201526024808201527f5472616e7366657248656c7065723a205452414e534645525f46524f4d5f46416044820152631253115160e21b60648201526084016109a2565b505050505050565b6001600160a01b0381166000908152600183016020526040812054151561190f565b6000818152600183016020526040812054611b2757508154600181810184556000848152602080822090930184905584548482528286019093526040902091909155611912565b506000611912565b8035611b3a81611f12565b919050565b600060208284031215611b5157600080fd5b8135611b5c81611f12565b9392505050565b60008060008060008060008060006101e08a8c031215611b8257600080fd5b8935611b8d81611f12565b985060208a810135611b9e81611f12565b985060408b0135611bae81611f12565b9750607f8b018c13611bbf57600080fd5b60405160e0810181811067ffffffffffffffff82111715611be257611be2611efc565b6040528060608d016101408e018f811115611bfc57600080fd5b60005b6007811015611c1c57823584529285019291850191600101611bff565b50929950509035965050506101608a013593506101808a01359250611c446101a08b01611b2f565b91506101c08a013590509295985092959850929598565b600060208284031215611c6d57600080fd5b8135611b5c81611f27565b600060208284031215611c8a57600080fd5b8151611b5c81611f27565b600060208284031215611ca757600080fd5b5035919050565b600060208284031215611cc057600080fd5b5051919050565b6000825160005b81811015611ce85760208186018101518583015201611cce565b81811115611cf7576000828501525b509190910192915050565b6020808252601b908201527f416c6c20746f6b656e20686173206265656e2077697468647261770000000000604082015260600190565b6020808252601f908201527f5265656e7472616e637947756172643a207265656e7472616e742063616c6c00604082015260600190565b60008219821115611d8357611d83611ee6565b500190565b600082611da557634e487b7160e01b600052601260045260246000fd5b500490565b600181815b80851115611de5578160001904821115611dcb57611dcb611ee6565b80851615611dd857918102915b93841c9390800290611daf565b509250929050565b600061190f8383600082611e0357506001611912565b81611e1057506000611912565b8160018114611e265760028114611e3057611e4c565b6001915050611912565b60ff841115611e4157611e41611ee6565b50506001821b611912565b5060208310610133831016604e8410600b8410161715611e6f575081810a611912565b611e798383611daa565b8060001904821115611e8d57611e8d611ee6565b029392505050565b6000816000190483118215151615611eaf57611eaf611ee6565b500290565b600082821015611ec657611ec6611ee6565b500390565b6000600019821415611edf57611edf611ee6565b5060010190565b634e487b7160e01b600052601160045260246000fd5b634e487b7160e01b600052604160045260246000fd5b6001600160a01b03811681146109e357600080fd5b80151581146109e357600080fdfea2646970667358221220349cfe2658aeb54625aab92073800547f729aeea80323a37156a5d9b1379c23764736f6c63430008050033",
					"opcodes": "PUSH1 0x80 PUSH1 0x40 MSTORE PUSH1 0x40 MLOAD PUSH3 0x214B CODESIZE SUB DUP1 PUSH3 0x214B DUP4 CODECOPY DUP2 ADD PUSH1 0x40 DUP2 SWAP1 MSTORE PUSH3 0x26 SWAP2 PUSH3 0x19E JUMP JUMPDEST PUSH1 0x1 PUSH1 0x0 SSTORE PUSH3 0x36 CALLER PUSH3 0xDA JUMP JUMPDEST PUSH1 0x22 DUP1 SLOAD PUSH1 0x1 PUSH1 0x1 PUSH1 0xA0 SHL SUB NOT SWAP1 DUP2 AND PUSH1 0x1 PUSH1 0x1 PUSH1 0xA0 SHL SUB DUP5 AND OR SWAP1 SWAP2 SSTORE PUSH1 0x1B DUP1 SLOAD PUSH20 0xC778417E063141139FCE010982780140AA0CD5AB SWAP3 AND SWAP2 SWAP1 SWAP2 OR SWAP1 SSTORE PUSH3 0xA2 PUSH1 0x1C PUSH20 0x6CCB41EEDA5A073076F3E7DC1614C185B5FA41ED PUSH3 0x12C PUSH1 0x20 SWAP1 DUP2 SHL PUSH3 0x18FA OR SWAP1 SHR JUMP JUMPDEST POP PUSH3 0xD2 PUSH20 0x4F0B12BBF40FC182559822A5B1DB6D34DBC3E016 PUSH1 0x1C PUSH3 0x12C PUSH1 0x20 SHL PUSH3 0x18FA OR SWAP1 SWAP2 SWAP1 PUSH1 0x20 SHR JUMP JUMPDEST POP POP PUSH3 0x1D0 JUMP JUMPDEST PUSH1 0x1 DUP1 SLOAD PUSH1 0x1 PUSH1 0x1 PUSH1 0xA0 SHL SUB DUP4 DUP2 AND PUSH1 0x1 PUSH1 0x1 PUSH1 0xA0 SHL SUB NOT DUP4 AND DUP2 OR SWAP1 SWAP4 SSTORE PUSH1 0x40 MLOAD SWAP2 AND SWAP2 SWAP1 DUP3 SWAP1 PUSH32 0x8BE0079C531659141344CD1FD0A4F28419497F9722A3DAAFE3B4186F6B6457E0 SWAP1 PUSH1 0x0 SWAP1 LOG3 POP POP JUMP JUMPDEST PUSH1 0x0 PUSH3 0x143 DUP4 PUSH1 0x1 PUSH1 0x1 PUSH1 0xA0 SHL SUB DUP5 AND PUSH3 0x14C JUMP JUMPDEST SWAP1 POP JUMPDEST SWAP3 SWAP2 POP POP JUMP JUMPDEST PUSH1 0x0 DUP2 DUP2 MSTORE PUSH1 0x1 DUP4 ADD PUSH1 0x20 MSTORE PUSH1 0x40 DUP2 KECCAK256 SLOAD PUSH3 0x195 JUMPI POP DUP2 SLOAD PUSH1 0x1 DUP2 DUP2 ADD DUP5 SSTORE PUSH1 0x0 DUP5 DUP2 MSTORE PUSH1 0x20 DUP1 DUP3 KECCAK256 SWAP1 SWAP4 ADD DUP5 SWAP1 SSTORE DUP5 SLOAD DUP5 DUP3 MSTORE DUP3 DUP7 ADD SWAP1 SWAP4 MSTORE PUSH1 0x40 SWAP1 KECCAK256 SWAP2 SWAP1 SWAP2 SSTORE PUSH3 0x146 JUMP JUMPDEST POP PUSH1 0x0 PUSH3 0x146 JUMP JUMPDEST PUSH1 0x0 PUSH1 0x20 DUP3 DUP5 SUB SLT ISZERO PUSH3 0x1B1 JUMPI PUSH1 0x0 DUP1 REVERT JUMPDEST DUP2 MLOAD PUSH1 0x1 PUSH1 0x1 PUSH1 0xA0 SHL SUB DUP2 AND DUP2 EQ PUSH3 0x1C9 JUMPI PUSH1 0x0 DUP1 REVERT JUMPDEST SWAP4 SWAP3 POP POP POP JUMP JUMPDEST PUSH2 0x1F6B DUP1 PUSH3 0x1E0 PUSH1 0x0 CODECOPY PUSH1 0x0 RETURN INVALID PUSH1 0x80 PUSH1 0x40 MSTORE PUSH1 0x4 CALLDATASIZE LT PUSH2 0x14B JUMPI PUSH1 0x0 CALLDATALOAD PUSH1 0xE0 SHR DUP1 PUSH4 0x95661E70 GT PUSH2 0xB6 JUMPI DUP1 PUSH4 0xCAD5B0F7 GT PUSH2 0x6F JUMPI DUP1 PUSH4 0xCAD5B0F7 EQ PUSH2 0x46F JUMPI DUP1 PUSH4 0xD4C1DEE9 EQ PUSH2 0x494 JUMPI DUP1 PUSH4 0xE2D3F423 EQ PUSH2 0x4AA JUMPI DUP1 PUSH4 0xEB002BB0 EQ PUSH2 0x51C JUMPI DUP1 PUSH4 0xF2FDE38B EQ PUSH2 0x53C JUMPI DUP1 PUSH4 0xF8B2CB4F EQ PUSH2 0x55C JUMPI PUSH1 0x0 DUP1 REVERT JUMPDEST DUP1 PUSH4 0x95661E70 EQ PUSH2 0x36B JUMPI DUP1 PUSH4 0xAB33985A EQ PUSH2 0x380 JUMPI DUP1 PUSH4 0xACFB2355 EQ PUSH2 0x395 JUMPI DUP1 PUSH4 0xAD5C4648 EQ PUSH2 0x41C JUMPI DUP1 PUSH4 0xAE2B0965 EQ PUSH2 0x43C JUMPI DUP1 PUSH4 0xB6B55F25 EQ PUSH2 0x45C JUMPI PUSH1 0x0 DUP1 REVERT JUMPDEST DUP1 PUSH4 0x56C5F349 GT PUSH2 0x108 JUMPI DUP1 PUSH4 0x56C5F349 EQ PUSH2 0x2B6 JUMPI DUP1 PUSH4 0x715018A6 EQ PUSH2 0x2E3 JUMPI DUP1 PUSH4 0x861FAF5F EQ PUSH2 0x2F8 JUMPI DUP1 PUSH4 0x8B84E714 EQ PUSH2 0x300 JUMPI DUP1 PUSH4 0x8DA5CB5B EQ PUSH2 0x338 JUMPI DUP1 PUSH4 0x8EDF18E6 EQ PUSH2 0x356 JUMPI PUSH1 0x0 DUP1 REVERT JUMPDEST DUP1 PUSH4 0xA9C5DDB EQ PUSH2 0x150 JUMPI DUP1 PUSH4 0x12E5D0B9 EQ PUSH2 0x172 JUMPI DUP1 PUSH4 0x18856A2F EQ PUSH2 0x1A7 JUMPI DUP1 PUSH4 0x1DF4CCFC EQ PUSH2 0x267 JUMPI DUP1 PUSH4 0x200D2ED2 EQ PUSH2 0x28B JUMPI DUP1 PUSH4 0x3B5EF2AD EQ PUSH2 0x2A0 JUMPI JUMPDEST PUSH1 0x0 DUP1 REVERT JUMPDEST CALLVALUE DUP1 ISZERO PUSH2 0x15C JUMPI PUSH1 0x0 DUP1 REVERT JUMPDEST POP PUSH2 0x170 PUSH2 0x16B CALLDATASIZE PUSH1 0x4 PUSH2 0x1B63 JUMP JUMPDEST PUSH2 0x584 JUMP JUMPDEST STOP JUMPDEST CALLVALUE DUP1 ISZERO PUSH2 0x17E JUMPI PUSH1 0x0 DUP1 REVERT JUMPDEST POP PUSH1 0xD SLOAD PUSH1 0xE SLOAD PUSH2 0x18D SWAP2 SWAP1 DUP3 JUMP JUMPDEST PUSH1 0x40 DUP1 MLOAD SWAP3 DUP4 MSTORE PUSH1 0x20 DUP4 ADD SWAP2 SWAP1 SWAP2 MSTORE ADD JUMPDEST PUSH1 0x40 MLOAD DUP1 SWAP2 SUB SWAP1 RETURN JUMPDEST CALLVALUE DUP1 ISZERO PUSH2 0x1B3 JUMPI PUSH1 0x0 DUP1 REVERT JUMPDEST POP PUSH1 0xF SLOAD PUSH1 0x10 SLOAD PUSH1 0x11 SLOAD PUSH1 0x12 SLOAD PUSH1 0x13 SLOAD PUSH1 0x14 SLOAD PUSH1 0x15 SLOAD PUSH1 0x16 SLOAD PUSH1 0x17 SLOAD PUSH1 0x18 SLOAD PUSH1 0x19 SLOAD PUSH1 0x1A SLOAD PUSH2 0x1FB SWAP12 PUSH1 0x1 PUSH1 0x1 PUSH1 0xA0 SHL SUB SWAP1 DUP2 AND SWAP12 DUP2 AND SWAP11 AND SWAP9 SWAP8 SWAP7 SWAP6 SWAP5 SWAP4 SWAP3 SWAP2 PUSH1 0xFF AND SWAP1 DUP13 JUMP JUMPDEST PUSH1 0x40 DUP1 MLOAD PUSH1 0x1 PUSH1 0x1 PUSH1 0xA0 SHL SUB SWAP14 DUP15 AND DUP2 MSTORE SWAP12 DUP14 AND PUSH1 0x20 DUP14 ADD MSTORE SWAP10 SWAP1 SWAP12 AND SWAP9 DUP11 ADD SWAP9 SWAP1 SWAP9 MSTORE PUSH1 0x60 DUP10 ADD SWAP7 SWAP1 SWAP7 MSTORE PUSH1 0x80 DUP9 ADD SWAP5 SWAP1 SWAP5 MSTORE PUSH1 0xA0 DUP8 ADD SWAP3 SWAP1 SWAP3 MSTORE PUSH1 0xC0 DUP7 ADD MSTORE PUSH1 0xE0 DUP6 ADD MSTORE PUSH2 0x100 DUP5 ADD MSTORE PUSH2 0x120 DUP4 ADD MSTORE ISZERO ISZERO PUSH2 0x140 DUP3 ADD MSTORE PUSH2 0x160 DUP2 ADD SWAP2 SWAP1 SWAP2 MSTORE PUSH2 0x180 ADD PUSH2 0x19E JUMP JUMPDEST CALLVALUE DUP1 ISZERO PUSH2 0x273 JUMPI PUSH1 0x0 DUP1 REVERT JUMPDEST POP PUSH2 0x27D PUSH1 0x1E SLOAD DUP2 JUMP JUMPDEST PUSH1 0x40 MLOAD SWAP1 DUP2 MSTORE PUSH1 0x20 ADD PUSH2 0x19E JUMP JUMPDEST CALLVALUE DUP1 ISZERO PUSH2 0x297 JUMPI PUSH1 0x0 DUP1 REVERT JUMPDEST POP PUSH2 0x27D PUSH2 0x923 JUMP JUMPDEST CALLVALUE DUP1 ISZERO PUSH2 0x2AC JUMPI PUSH1 0x0 DUP1 REVERT JUMPDEST POP PUSH2 0x27D PUSH1 0x1F SLOAD DUP2 JUMP JUMPDEST CALLVALUE DUP1 ISZERO PUSH2 0x2C2 JUMPI PUSH1 0x0 DUP1 REVERT JUMPDEST POP PUSH2 0x27D PUSH2 0x2D1 CALLDATASIZE PUSH1 0x4 PUSH2 0x1B3F JUMP JUMPDEST PUSH1 0x3 PUSH1 0x20 MSTORE PUSH1 0x0 SWAP1 DUP2 MSTORE PUSH1 0x40 SWAP1 KECCAK256 SLOAD DUP2 JUMP JUMPDEST CALLVALUE DUP1 ISZERO PUSH2 0x2EF JUMPI PUSH1 0x0 DUP1 REVERT JUMPDEST POP PUSH2 0x170 PUSH2 0x94C JUMP JUMPDEST PUSH2 0x170 PUSH2 0x9B7 JUMP JUMPDEST CALLVALUE DUP1 ISZERO PUSH2 0x30C JUMPI PUSH1 0x0 DUP1 REVERT JUMPDEST POP PUSH1 0x22 SLOAD PUSH2 0x320 SWAP1 PUSH1 0x1 PUSH1 0x1 PUSH1 0xA0 SHL SUB AND DUP2 JUMP JUMPDEST PUSH1 0x40 MLOAD PUSH1 0x1 PUSH1 0x1 PUSH1 0xA0 SHL SUB SWAP1 SWAP2 AND DUP2 MSTORE PUSH1 0x20 ADD PUSH2 0x19E JUMP JUMPDEST CALLVALUE DUP1 ISZERO PUSH2 0x344 JUMPI PUSH1 0x0 DUP1 REVERT JUMPDEST POP PUSH1 0x1 SLOAD PUSH1 0x1 PUSH1 0x1 PUSH1 0xA0 SHL SUB AND PUSH2 0x320 JUMP JUMPDEST CALLVALUE DUP1 ISZERO PUSH2 0x362 JUMPI PUSH1 0x0 DUP1 REVERT JUMPDEST POP PUSH2 0x170 PUSH2 0x9E6 JUMP JUMPDEST CALLVALUE DUP1 ISZERO PUSH2 0x377 JUMPI PUSH1 0x0 DUP1 REVERT JUMPDEST POP PUSH2 0x170 PUSH2 0xCAB JUMP JUMPDEST CALLVALUE DUP1 ISZERO PUSH2 0x38C JUMPI PUSH1 0x0 DUP1 REVERT JUMPDEST POP PUSH2 0x170 PUSH2 0xEC7 JUMP JUMPDEST CALLVALUE DUP1 ISZERO PUSH2 0x3A1 JUMPI PUSH1 0x0 DUP1 REVERT JUMPDEST POP PUSH1 0x4 SLOAD PUSH1 0x5 SLOAD PUSH1 0x6 SLOAD PUSH1 0x7 SLOAD PUSH1 0x8 SLOAD PUSH1 0x9 SLOAD PUSH1 0xA SLOAD PUSH1 0xB SLOAD PUSH2 0x3D4 SWAP8 SWAP7 SWAP6 SWAP5 SWAP4 SWAP3 SWAP2 SWAP1 PUSH1 0xFF DUP1 DUP3 AND SWAP2 PUSH2 0x100 SWAP1 DIV AND DUP10 JUMP JUMPDEST PUSH1 0x40 DUP1 MLOAD SWAP10 DUP11 MSTORE PUSH1 0x20 DUP11 ADD SWAP9 SWAP1 SWAP9 MSTORE SWAP7 DUP9 ADD SWAP6 SWAP1 SWAP6 MSTORE PUSH1 0x60 DUP8 ADD SWAP4 SWAP1 SWAP4 MSTORE PUSH1 0x80 DUP7 ADD SWAP2 SWAP1 SWAP2 MSTORE PUSH1 0xA0 DUP6 ADD MSTORE PUSH1 0xC0 DUP5 ADD MSTORE ISZERO ISZERO PUSH1 0xE0 DUP4 ADD MSTORE ISZERO ISZERO PUSH2 0x100 DUP3 ADD MSTORE PUSH2 0x120 ADD PUSH2 0x19E JUMP JUMPDEST CALLVALUE DUP1 ISZERO PUSH2 0x428 JUMPI PUSH1 0x0 DUP1 REVERT JUMPDEST POP PUSH1 0x1B SLOAD PUSH2 0x320 SWAP1 PUSH1 0x1 PUSH1 0x1 PUSH1 0xA0 SHL SUB AND DUP2 JUMP JUMPDEST CALLVALUE DUP1 ISZERO PUSH2 0x448 JUMPI PUSH1 0x0 DUP1 REVERT JUMPDEST POP PUSH1 0x20 SLOAD PUSH2 0x320 SWAP1 PUSH1 0x1 PUSH1 0x1 PUSH1 0xA0 SHL SUB AND DUP2 JUMP JUMPDEST PUSH2 0x170 PUSH2 0x46A CALLDATASIZE PUSH1 0x4 PUSH2 0x1C95 JUMP JUMPDEST PUSH2 0x119C JUMP JUMPDEST CALLVALUE DUP1 ISZERO PUSH2 0x47B JUMPI PUSH1 0x0 DUP1 REVERT JUMPDEST POP PUSH2 0x484 PUSH2 0x156B JUMP JUMPDEST PUSH1 0x40 MLOAD SWAP1 ISZERO ISZERO DUP2 MSTORE PUSH1 0x20 ADD PUSH2 0x19E JUMP JUMPDEST CALLVALUE DUP1 ISZERO PUSH2 0x4A0 JUMPI PUSH1 0x0 DUP1 REVERT JUMPDEST POP PUSH2 0x27D PUSH1 0x21 SLOAD DUP2 JUMP JUMPDEST CALLVALUE DUP1 ISZERO PUSH2 0x4B6 JUMPI PUSH1 0x0 DUP1 REVERT JUMPDEST POP PUSH2 0x4F4 PUSH2 0x4C5 CALLDATASIZE PUSH1 0x4 PUSH2 0x1B3F JUMP JUMPDEST PUSH1 0x2 PUSH1 0x20 DUP2 SWAP1 MSTORE PUSH1 0x0 SWAP2 DUP3 MSTORE PUSH1 0x40 SWAP1 SWAP2 KECCAK256 DUP1 SLOAD PUSH1 0x1 DUP3 ADD SLOAD SWAP3 DUP3 ADD SLOAD PUSH1 0x3 DUP4 ADD SLOAD PUSH1 0x4 SWAP1 SWAP4 ADD SLOAD SWAP2 SWAP4 SWAP3 SWAP1 SWAP2 DUP6 JUMP JUMPDEST PUSH1 0x40 DUP1 MLOAD SWAP6 DUP7 MSTORE PUSH1 0x20 DUP7 ADD SWAP5 SWAP1 SWAP5 MSTORE SWAP3 DUP5 ADD SWAP2 SWAP1 SWAP2 MSTORE PUSH1 0x60 DUP4 ADD MSTORE PUSH1 0x80 DUP3 ADD MSTORE PUSH1 0xA0 ADD PUSH2 0x19E JUMP JUMPDEST CALLVALUE DUP1 ISZERO PUSH2 0x528 JUMPI PUSH1 0x0 DUP1 REVERT JUMPDEST POP PUSH2 0x170 PUSH2 0x537 CALLDATASIZE PUSH1 0x4 PUSH2 0x1C5B JUMP JUMPDEST PUSH2 0x157D JUMP JUMPDEST CALLVALUE DUP1 ISZERO PUSH2 0x548 JUMPI PUSH1 0x0 DUP1 REVERT JUMPDEST POP PUSH2 0x170 PUSH2 0x557 CALLDATASIZE PUSH1 0x4 PUSH2 0x1B3F JUMP JUMPDEST PUSH2 0x1832 JUMP JUMPDEST CALLVALUE DUP1 ISZERO PUSH2 0x568 JUMPI PUSH1 0x0 DUP1 REVERT JUMPDEST POP PUSH2 0x27D PUSH2 0x577 CALLDATASIZE PUSH1 0x4 PUSH2 0x1B3F JUMP JUMPDEST PUSH1 0x1 PUSH1 0x1 PUSH1 0xA0 SHL SUB AND BALANCE SWAP1 JUMP JUMPDEST PUSH1 0xF DUP1 SLOAD PUSH1 0x1 PUSH1 0x1 PUSH1 0xA0 SHL SUB DUP1 DUP13 AND PUSH1 0x1 PUSH1 0x1 PUSH1 0xA0 SHL SUB NOT SWAP3 DUP4 AND OR SWAP1 SWAP3 SSTORE PUSH1 0x10 DUP1 SLOAD DUP12 DUP5 AND SWAP1 DUP4 AND DUP2 OR SWAP1 SWAP2 SSTORE PUSH1 0x11 DUP1 SLOAD SWAP4 DUP12 AND SWAP4 SWAP1 SWAP3 AND SWAP3 SWAP1 SWAP3 OR SWAP1 SSTORE PUSH1 0x40 DUP1 MLOAD PUSH4 0x313CE567 PUSH1 0xE0 SHL DUP2 MSTORE SWAP1 MLOAD PUSH4 0x313CE567 SWAP2 PUSH1 0x4 DUP1 DUP3 ADD SWAP3 PUSH1 0x20 SWAP3 SWAP1 SWAP2 SWAP1 DUP3 SWAP1 SUB ADD DUP2 DUP7 DUP1 EXTCODESIZE ISZERO DUP1 ISZERO PUSH2 0x5F9 JUMPI PUSH1 0x0 DUP1 REVERT JUMPDEST POP GAS STATICCALL ISZERO DUP1 ISZERO PUSH2 0x60D JUMPI RETURNDATASIZE PUSH1 0x0 DUP1 RETURNDATACOPY RETURNDATASIZE PUSH1 0x0 REVERT JUMPDEST POP POP POP POP PUSH1 0x40 MLOAD RETURNDATASIZE PUSH1 0x1F NOT PUSH1 0x1F DUP3 ADD AND DUP3 ADD DUP1 PUSH1 0x40 MSTORE POP DUP2 ADD SWAP1 PUSH2 0x631 SWAP2 SWAP1 PUSH2 0x1CAE JUMP JUMPDEST PUSH2 0x63C SWAP1 PUSH1 0xA PUSH2 0x1DED JUMP JUMPDEST DUP7 MLOAD PUSH2 0x648 SWAP2 SWAP1 PUSH2 0x1E95 JUMP JUMPDEST PUSH1 0x12 SSTORE PUSH1 0x20 DUP1 DUP8 ADD MLOAD PUSH1 0x13 SSTORE PUSH1 0x40 DUP1 DUP9 ADD MLOAD PUSH1 0x14 SSTORE PUSH1 0x60 DUP9 ADD MLOAD PUSH1 0x15 SSTORE PUSH1 0x11 SLOAD DUP2 MLOAD PUSH4 0x313CE567 PUSH1 0xE0 SHL DUP2 MSTORE SWAP2 MLOAD PUSH1 0x1 PUSH1 0x1 PUSH1 0xA0 SHL SUB SWAP1 SWAP2 AND SWAP3 PUSH4 0x313CE567 SWAP3 PUSH1 0x4 DUP1 DUP3 ADD SWAP4 SWAP2 DUP3 SWAP1 SUB ADD DUP2 DUP7 DUP1 EXTCODESIZE ISZERO DUP1 ISZERO PUSH2 0x6A3 JUMPI PUSH1 0x0 DUP1 REVERT JUMPDEST POP GAS STATICCALL ISZERO DUP1 ISZERO PUSH2 0x6B7 JUMPI RETURNDATASIZE PUSH1 0x0 DUP1 RETURNDATACOPY RETURNDATASIZE PUSH1 0x0 REVERT JUMPDEST POP POP POP POP PUSH1 0x40 MLOAD RETURNDATASIZE PUSH1 0x1F NOT PUSH1 0x1F DUP3 ADD AND DUP3 ADD DUP1 PUSH1 0x40 MSTORE POP DUP2 ADD SWAP1 PUSH2 0x6DB SWAP2 SWAP1 PUSH2 0x1CAE JUMP JUMPDEST PUSH2 0x6E6 SWAP1 PUSH1 0xA PUSH2 0x1DED JUMP JUMPDEST PUSH1 0x80 DUP8 ADD MLOAD PUSH2 0x6F5 SWAP2 SWAP1 PUSH2 0x1E95 JUMP JUMPDEST PUSH1 0x16 SSTORE PUSH1 0x11 SLOAD PUSH1 0x40 DUP1 MLOAD PUSH4 0x313CE567 PUSH1 0xE0 SHL DUP2 MSTORE SWAP1 MLOAD PUSH1 0x1 PUSH1 0x1 PUSH1 0xA0 SHL SUB SWAP1 SWAP3 AND SWAP2 PUSH4 0x313CE567 SWAP2 PUSH1 0x4 DUP1 DUP3 ADD SWAP3 PUSH1 0x20 SWAP3 SWAP1 SWAP2 SWAP1 DUP3 SWAP1 SUB ADD DUP2 DUP7 DUP1 EXTCODESIZE ISZERO DUP1 ISZERO PUSH2 0x73D JUMPI PUSH1 0x0 DUP1 REVERT JUMPDEST POP GAS STATICCALL ISZERO DUP1 ISZERO PUSH2 0x751 JUMPI RETURNDATASIZE PUSH1 0x0 DUP1 RETURNDATACOPY RETURNDATASIZE PUSH1 0x0 REVERT JUMPDEST POP POP POP POP PUSH1 0x40 MLOAD RETURNDATASIZE PUSH1 0x1F NOT PUSH1 0x1F DUP3 ADD AND DUP3 ADD DUP1 PUSH1 0x40 MSTORE POP DUP2 ADD SWAP1 PUSH2 0x775 SWAP2 SWAP1 PUSH2 0x1CAE JUMP JUMPDEST PUSH2 0x780 SWAP1 PUSH1 0xA PUSH2 0x1DED JUMP JUMPDEST PUSH1 0xA0 DUP8 ADD MLOAD PUSH2 0x78F SWAP2 SWAP1 PUSH2 0x1E95 JUMP JUMPDEST PUSH1 0xD SSTORE PUSH1 0x11 SLOAD PUSH1 0x40 DUP1 MLOAD PUSH4 0x313CE567 PUSH1 0xE0 SHL DUP2 MSTORE SWAP1 MLOAD PUSH1 0x1 PUSH1 0x1 PUSH1 0xA0 SHL SUB SWAP1 SWAP3 AND SWAP2 PUSH4 0x313CE567 SWAP2 PUSH1 0x4 DUP1 DUP3 ADD SWAP3 PUSH1 0x20 SWAP3 SWAP1 SWAP2 SWAP1 DUP3 SWAP1 SUB ADD DUP2 DUP7 DUP1 EXTCODESIZE ISZERO DUP1 ISZERO PUSH2 0x7D7 JUMPI PUSH1 0x0 DUP1 REVERT JUMPDEST POP GAS STATICCALL ISZERO DUP1 ISZERO PUSH2 0x7EB JUMPI RETURNDATASIZE PUSH1 0x0 DUP1 RETURNDATACOPY RETURNDATASIZE PUSH1 0x0 REVERT JUMPDEST POP POP POP POP PUSH1 0x40 MLOAD RETURNDATASIZE PUSH1 0x1F NOT PUSH1 0x1F DUP3 ADD AND DUP3 ADD DUP1 PUSH1 0x40 MSTORE POP DUP2 ADD SWAP1 PUSH2 0x80F SWAP2 SWAP1 PUSH2 0x1CAE JUMP JUMPDEST PUSH2 0x81A SWAP1 PUSH1 0xA PUSH2 0x1DED JUMP JUMPDEST PUSH1 0xC0 DUP8 ADD MLOAD PUSH2 0x829 SWAP2 SWAP1 PUSH2 0x1E95 JUMP JUMPDEST PUSH1 0xE SSTORE PUSH1 0x11 SLOAD PUSH1 0x1B SLOAD PUSH1 0x19 DUP1 SLOAD PUSH1 0xFF NOT AND PUSH1 0x1 PUSH1 0x1 PUSH1 0xA0 SHL SUB SWAP3 DUP4 AND SWAP3 SWAP1 SWAP4 AND SWAP2 DUP3 EQ SWAP3 SWAP1 SWAP3 OR SWAP1 SWAP2 SSTORE PUSH1 0x40 DUP1 MLOAD PUSH4 0x313CE567 PUSH1 0xE0 SHL DUP2 MSTORE SWAP1 MLOAD PUSH4 0x313CE567 SWAP2 PUSH1 0x4 DUP1 DUP3 ADD SWAP3 PUSH1 0x20 SWAP3 SWAP1 SWAP2 SWAP1 DUP3 SWAP1 SUB ADD DUP2 DUP7 DUP1 EXTCODESIZE ISZERO DUP1 ISZERO PUSH2 0x889 JUMPI PUSH1 0x0 DUP1 REVERT JUMPDEST POP GAS STATICCALL ISZERO DUP1 ISZERO PUSH2 0x89D JUMPI RETURNDATASIZE PUSH1 0x0 DUP1 RETURNDATACOPY RETURNDATASIZE PUSH1 0x0 REVERT JUMPDEST POP POP POP POP PUSH1 0x40 MLOAD RETURNDATASIZE PUSH1 0x1F NOT PUSH1 0x1F DUP3 ADD AND DUP3 ADD DUP1 PUSH1 0x40 MSTORE POP DUP2 ADD SWAP1 PUSH2 0x8C1 SWAP2 SWAP1 PUSH2 0x1CAE JUMP JUMPDEST PUSH2 0x8CC SWAP1 PUSH1 0xA PUSH2 0x1DED JUMP JUMPDEST PUSH1 0xD SLOAD PUSH1 0x12 SLOAD PUSH2 0x8DB SWAP2 PUSH2 0x1918 JUMP JUMPDEST PUSH2 0x8E5 SWAP2 SWAP1 PUSH2 0x1D88 JUMP JUMPDEST PUSH1 0x1A SSTORE PUSH1 0x1F SWAP3 SWAP1 SWAP3 SSTORE PUSH1 0x17 SWAP4 SWAP1 SWAP4 SSTORE PUSH1 0x18 SWAP2 SWAP1 SWAP2 SSTORE PUSH1 0x20 DUP1 SLOAD PUSH1 0x1 PUSH1 0x1 PUSH1 0xA0 SHL SUB NOT AND PUSH1 0x1 PUSH1 0x1 PUSH1 0xA0 SHL SUB SWAP1 SWAP4 AND SWAP3 SWAP1 SWAP3 OR SWAP1 SWAP2 SSTORE PUSH1 0x21 SSTORE POP POP POP POP JUMP JUMPDEST PUSH1 0x13 SLOAD PUSH1 0x0 SWAP1 TIMESTAMP LT ISZERO PUSH2 0x936 JUMPI POP PUSH1 0x0 SWAP1 JUMP JUMPDEST PUSH1 0x14 SLOAD TIMESTAMP GT ISZERO PUSH2 0x946 JUMPI POP PUSH1 0x2 SWAP1 JUMP JUMPDEST POP PUSH1 0x1 SWAP1 JUMP JUMPDEST PUSH1 0x1 SLOAD PUSH1 0x1 PUSH1 0x1 PUSH1 0xA0 SHL SUB AND CALLER EQ PUSH2 0x9AB JUMPI PUSH1 0x40 MLOAD PUSH3 0x461BCD PUSH1 0xE5 SHL DUP2 MSTORE PUSH1 0x20 PUSH1 0x4 DUP3 ADD DUP2 SWAP1 MSTORE PUSH1 0x24 DUP3 ADD MSTORE PUSH32 0x4F776E61626C653A2063616C6C6572206973206E6F7420746865206F776E6572 PUSH1 0x44 DUP3 ADD MSTORE PUSH1 0x64 ADD JUMPDEST PUSH1 0x40 MLOAD DUP1 SWAP2 SUB SWAP1 REVERT JUMPDEST PUSH2 0x9B5 PUSH1 0x0 PUSH2 0x1924 JUMP JUMPDEST JUMP JUMPDEST PUSH1 0x40 MLOAD CALLER SWAP1 SELFBALANCE DUP1 ISZERO PUSH2 0x8FC MUL SWAP2 PUSH1 0x0 DUP2 DUP2 DUP2 DUP6 DUP9 DUP9 CALL SWAP4 POP POP POP POP ISZERO DUP1 ISZERO PUSH2 0x9E3 JUMPI RETURNDATASIZE PUSH1 0x0 DUP1 RETURNDATACOPY RETURNDATASIZE PUSH1 0x0 REVERT JUMPDEST POP JUMP JUMPDEST PUSH1 0xF SLOAD PUSH1 0x1 PUSH1 0x1 PUSH1 0xA0 SHL SUB AND CALLER PUSH1 0x1 PUSH1 0x1 PUSH1 0xA0 SHL SUB AND EQ PUSH2 0xA3E JUMPI PUSH1 0x40 MLOAD PUSH3 0x461BCD PUSH1 0xE5 SHL DUP2 MSTORE PUSH1 0x20 PUSH1 0x4 DUP3 ADD MSTORE PUSH1 0x12 PUSH1 0x24 DUP3 ADD MSTORE PUSH18 0x27B7363C90383932B9B0B6329037BBB732B9 PUSH1 0x71 SHL PUSH1 0x44 DUP3 ADD MSTORE PUSH1 0x64 ADD PUSH2 0x9A2 JUMP JUMPDEST PUSH1 0x2 PUSH1 0x0 SLOAD EQ ISZERO PUSH2 0xA61 JUMPI PUSH1 0x40 MLOAD PUSH3 0x461BCD PUSH1 0xE5 SHL DUP2 MSTORE PUSH1 0x4 ADD PUSH2 0x9A2 SWAP1 PUSH2 0x1D39 JUMP JUMPDEST PUSH1 0x2 PUSH1 0x0 SWAP1 DUP2 SSTORE PUSH1 0x10 SLOAD PUSH1 0x40 MLOAD PUSH4 0x70A08231 PUSH1 0xE0 SHL DUP2 MSTORE ADDRESS PUSH1 0x4 DUP3 ADD MSTORE PUSH1 0x1 PUSH1 0x1 PUSH1 0xA0 SHL SUB SWAP1 SWAP2 AND SWAP1 PUSH4 0x70A08231 SWAP1 PUSH1 0x24 ADD PUSH1 0x20 PUSH1 0x40 MLOAD DUP1 DUP4 SUB DUP2 DUP7 DUP1 EXTCODESIZE ISZERO DUP1 ISZERO PUSH2 0xAAB JUMPI PUSH1 0x0 DUP1 REVERT JUMPDEST POP GAS STATICCALL ISZERO DUP1 ISZERO PUSH2 0xABF JUMPI RETURNDATASIZE PUSH1 0x0 DUP1 RETURNDATACOPY RETURNDATASIZE PUSH1 0x0 REVERT JUMPDEST POP POP POP POP PUSH1 0x40 MLOAD RETURNDATASIZE PUSH1 0x1F NOT PUSH1 0x1F DUP3 ADD AND DUP3 ADD DUP1 PUSH1 0x40 MSTORE POP DUP2 ADD SWAP1 PUSH2 0xAE3 SWAP2 SWAP1 PUSH2 0x1CAE JUMP JUMPDEST PUSH1 0x8 SLOAD PUSH1 0x4 SLOAD SWAP2 SWAP3 POP PUSH1 0x0 SWAP2 PUSH2 0xAF8 SWAP2 PUSH2 0x1976 JUMP JUMPDEST PUSH1 0x4 SLOAD SWAP1 SWAP2 POP ISZERO PUSH2 0xB21 JUMPI PUSH1 0x8 SLOAD PUSH1 0x5 SLOAD PUSH2 0xB1E SWAP2 PUSH2 0xB17 SWAP2 SWAP1 PUSH2 0x1976 JUMP JUMPDEST DUP4 SWAP1 PUSH2 0x1976 JUMP JUMPDEST SWAP2 POP JUMPDEST PUSH1 0xB SLOAD PUSH1 0xFF AND ISZERO PUSH2 0xB74 JUMPI PUSH1 0x40 MLOAD PUSH3 0x461BCD PUSH1 0xE5 SHL DUP2 MSTORE PUSH1 0x20 PUSH1 0x4 DUP3 ADD MSTORE PUSH1 0x1D PUSH1 0x24 DUP3 ADD MSTORE PUSH32 0x4E6F7468696E6720666F72206F776E657220636C61696D20746F6B656E000000 PUSH1 0x44 DUP3 ADD MSTORE PUSH1 0x64 ADD PUSH2 0x9A2 JUMP JUMPDEST PUSH1 0xB SLOAD PUSH2 0x100 SWAP1 DIV PUSH1 0xFF AND ISZERO PUSH2 0xBCC JUMPI PUSH1 0x40 MLOAD PUSH3 0x461BCD PUSH1 0xE5 SHL DUP2 MSTORE PUSH1 0x20 PUSH1 0x4 DUP3 ADD MSTORE PUSH1 0x1E PUSH1 0x24 DUP3 ADD MSTORE PUSH32 0x4E6F7468696E6720666F72206F776E657220726566756E6420746F6B656E0000 PUSH1 0x44 DUP3 ADD MSTORE PUSH1 0x64 ADD PUSH2 0x9A2 JUMP JUMPDEST PUSH1 0xB DUP1 SLOAD PUSH1 0xFF NOT AND PUSH1 0x1 OR SWAP1 SSTORE PUSH1 0x0 PUSH1 0x1A SSTORE PUSH1 0x10 SLOAD PUSH1 0xF SLOAD PUSH1 0x40 MLOAD PUSH4 0xA9059CBB PUSH1 0xE0 SHL DUP2 MSTORE PUSH1 0x1 PUSH1 0x1 PUSH1 0xA0 SHL SUB SWAP2 DUP3 AND PUSH1 0x4 DUP3 ADD MSTORE PUSH1 0x24 DUP2 ADD DUP6 SWAP1 MSTORE SWAP2 AND SWAP1 PUSH4 0xA9059CBB SWAP1 PUSH1 0x44 ADD PUSH1 0x20 PUSH1 0x40 MLOAD DUP1 DUP4 SUB DUP2 PUSH1 0x0 DUP8 DUP1 EXTCODESIZE ISZERO DUP1 ISZERO PUSH2 0xC2E JUMPI PUSH1 0x0 DUP1 REVERT JUMPDEST POP GAS CALL ISZERO DUP1 ISZERO PUSH2 0xC42 JUMPI RETURNDATASIZE PUSH1 0x0 DUP1 RETURNDATACOPY RETURNDATASIZE PUSH1 0x0 REVERT JUMPDEST POP POP POP POP PUSH1 0x40 MLOAD RETURNDATASIZE PUSH1 0x1F NOT PUSH1 0x1F DUP3 ADD AND DUP3 ADD DUP1 PUSH1 0x40 MSTORE POP DUP2 ADD SWAP1 PUSH2 0xC66 SWAP2 SWAP1 PUSH2 0x1C78 JUMP JUMPDEST POP PUSH1 0xF SLOAD PUSH1 0x40 MLOAD PUSH1 0x1 PUSH1 0x1 PUSH1 0xA0 SHL SUB SWAP1 SWAP2 AND SWAP1 DUP3 ISZERO PUSH2 0x8FC MUL SWAP1 DUP4 SWAP1 PUSH1 0x0 DUP2 DUP2 DUP2 DUP6 DUP9 DUP9 CALL SWAP4 POP POP POP POP ISZERO DUP1 ISZERO PUSH2 0xCA1 JUMPI RETURNDATASIZE PUSH1 0x0 DUP1 RETURNDATACOPY RETURNDATASIZE PUSH1 0x0 REVERT JUMPDEST POP POP PUSH1 0x1 PUSH1 0x0 SSTORE POP JUMP JUMPDEST PUSH1 0x2 PUSH1 0x0 SLOAD EQ ISZERO PUSH2 0xCCE JUMPI PUSH1 0x40 MLOAD PUSH3 0x461BCD PUSH1 0xE5 SHL DUP2 MSTORE PUSH1 0x4 ADD PUSH2 0x9A2 SWAP1 PUSH2 0x1D39 JUMP JUMPDEST PUSH1 0x2 PUSH1 0x0 SWAP1 DUP2 SSTORE PUSH1 0x7 SLOAD PUSH1 0x4 SLOAD PUSH2 0xCE5 SWAP2 SWAP1 PUSH2 0x1EB4 JUMP JUMPDEST GT PUSH2 0xD02 JUMPI PUSH1 0x40 MLOAD PUSH3 0x461BCD PUSH1 0xE5 SHL DUP2 MSTORE PUSH1 0x4 ADD PUSH2 0x9A2 SWAP1 PUSH2 0x1D02 JUMP JUMPDEST CALLER PUSH1 0x0 SWAP1 DUP2 MSTORE PUSH1 0x2 PUSH1 0x20 MSTORE PUSH1 0x40 SWAP1 KECCAK256 DUP1 SLOAD PUSH2 0xD59 JUMPI PUSH1 0x40 MLOAD PUSH3 0x461BCD PUSH1 0xE5 SHL DUP2 MSTORE PUSH1 0x20 PUSH1 0x4 DUP3 ADD MSTORE PUSH1 0x17 PUSH1 0x24 DUP3 ADD MSTORE PUSH23 0x165BDD481A185D99481B9BDD08189BDD59DA1D081E595D PUSH1 0x4A SHL PUSH1 0x44 DUP3 ADD MSTORE PUSH1 0x64 ADD PUSH2 0x9A2 JUMP JUMPDEST PUSH1 0x4 DUP2 ADD SLOAD DUP2 SLOAD GT PUSH2 0xD9E JUMPI PUSH1 0x40 MLOAD PUSH3 0x461BCD PUSH1 0xE5 SHL DUP2 MSTORE PUSH1 0x20 PUSH1 0x4 DUP3 ADD MSTORE PUSH1 0xE PUSH1 0x24 DUP3 ADD MSTORE PUSH14 0x165BDD481C99599D5B9908185B1B PUSH1 0x92 SHL PUSH1 0x44 DUP3 ADD MSTORE PUSH1 0x64 ADD PUSH2 0x9A2 JUMP JUMPDEST DUP1 SLOAD PUSH1 0x17 SLOAD PUSH1 0x0 SWAP2 PUSH2 0xDC9 SWAP2 PUSH2 0x3E8 SWAP2 PUSH2 0xDC3 SWAP2 PUSH2 0xDBD SWAP1 DUP5 SWAP1 PUSH2 0x1976 JUMP JUMPDEST SWAP1 PUSH2 0x1918 JUMP JUMPDEST SWAP1 PUSH2 0x1982 JUMP JUMPDEST PUSH1 0x20 SLOAD DUP4 SLOAD SWAP2 SWAP3 POP PUSH1 0x1 PUSH1 0x1 PUSH1 0xA0 SHL SUB AND SWAP1 PUSH2 0x8FC SWAP1 PUSH2 0xDE9 SWAP1 DUP5 PUSH2 0x1976 JUMP JUMPDEST PUSH1 0x40 MLOAD DUP2 ISZERO SWAP1 SWAP3 MUL SWAP2 PUSH1 0x0 DUP2 DUP2 DUP2 DUP6 DUP9 DUP9 CALL SWAP4 POP POP POP POP ISZERO DUP1 ISZERO PUSH2 0xE11 JUMPI RETURNDATASIZE PUSH1 0x0 DUP1 RETURNDATACOPY RETURNDATASIZE PUSH1 0x0 REVERT JUMPDEST POP DUP2 SLOAD PUSH2 0xE1E SWAP1 DUP3 PUSH2 0x1976 JUMP JUMPDEST PUSH1 0x1E PUSH1 0x0 DUP3 DUP3 SLOAD PUSH2 0xE2F SWAP2 SWAP1 PUSH2 0x1D70 JUMP JUMPDEST SWAP1 SWAP2 SSTORE POP POP PUSH1 0x7 DUP1 SLOAD DUP3 SWAP2 SWAP1 PUSH1 0x0 SWAP1 PUSH2 0xE49 SWAP1 DUP5 SWAP1 PUSH2 0x1D70 JUMP JUMPDEST SWAP3 POP POP DUP2 SWAP1 SSTORE POP DUP1 DUP3 PUSH1 0x4 ADD PUSH1 0x0 DUP3 DUP3 SLOAD PUSH2 0xE64 SWAP2 SWAP1 PUSH2 0x1D70 JUMP JUMPDEST SWAP1 SWAP2 SSTORE POP POP TIMESTAMP PUSH1 0x2 DUP4 ADD SSTORE PUSH1 0x3 DUP3 ADD SLOAD PUSH1 0x1 DUP4 ADD SLOAD PUSH2 0xE83 SWAP2 SWAP1 PUSH2 0x1EB4 JUMP JUMPDEST PUSH1 0x8 DUP1 SLOAD PUSH1 0x0 SWAP1 PUSH2 0xE95 SWAP1 DUP5 SWAP1 PUSH2 0x1D70 JUMP JUMPDEST SWAP1 SWAP2 SSTORE POP POP PUSH1 0x40 MLOAD CALLER SWAP1 DUP3 ISZERO PUSH2 0x8FC MUL SWAP1 DUP4 SWAP1 PUSH1 0x0 DUP2 DUP2 DUP2 DUP6 DUP9 DUP9 CALL SWAP4 POP POP POP POP ISZERO DUP1 ISZERO PUSH2 0xCA1 JUMPI RETURNDATASIZE PUSH1 0x0 DUP1 RETURNDATACOPY RETURNDATASIZE PUSH1 0x0 REVERT JUMPDEST PUSH1 0x2 PUSH1 0x0 SLOAD EQ ISZERO PUSH2 0xEEA JUMPI PUSH1 0x40 MLOAD PUSH3 0x461BCD PUSH1 0xE5 SHL DUP2 MSTORE PUSH1 0x4 ADD PUSH2 0x9A2 SWAP1 PUSH2 0x1D39 JUMP JUMPDEST PUSH1 0x2 PUSH1 0x0 SWAP1 DUP2 SSTORE PUSH1 0x6 SLOAD PUSH1 0x5 SLOAD PUSH2 0xF01 SWAP2 SWAP1 PUSH2 0x1EB4 JUMP JUMPDEST GT PUSH2 0xF1E JUMPI PUSH1 0x40 MLOAD PUSH3 0x461BCD PUSH1 0xE5 SHL DUP2 MSTORE PUSH1 0x4 ADD PUSH2 0x9A2 SWAP1 PUSH2 0x1D02 JUMP JUMPDEST CALLER PUSH1 0x0 SWAP1 DUP2 MSTORE PUSH1 0x2 PUSH1 0x20 MSTORE PUSH1 0x40 SWAP1 KECCAK256 PUSH1 0x1 DUP2 ADD SLOAD PUSH2 0xF78 JUMPI PUSH1 0x40 MLOAD PUSH3 0x461BCD PUSH1 0xE5 SHL DUP2 MSTORE PUSH1 0x20 PUSH1 0x4 DUP3 ADD MSTORE PUSH1 0x17 PUSH1 0x24 DUP3 ADD MSTORE PUSH23 0x165BDD481A185D99481B9BDD08189BDD59DA1D081E595D PUSH1 0x4A SHL PUSH1 0x44 DUP3 ADD MSTORE PUSH1 0x64 ADD PUSH2 0x9A2 JUMP JUMPDEST DUP1 PUSH1 0x3 ADD SLOAD DUP2 PUSH1 0x1 ADD SLOAD GT PUSH2 0xFC0 JUMPI PUSH1 0x40 MLOAD PUSH3 0x461BCD PUSH1 0xE5 SHL DUP2 MSTORE PUSH1 0x20 PUSH1 0x4 DUP3 ADD MSTORE PUSH1 0xE PUSH1 0x24 DUP3 ADD MSTORE PUSH14 0x165BDD4818DB185A5B48185B1B1B PUSH1 0x92 SHL PUSH1 0x44 DUP3 ADD MSTORE PUSH1 0x64 ADD PUSH2 0x9A2 JUMP JUMPDEST PUSH1 0x0 PUSH2 0xFEA PUSH2 0x3E8 PUSH2 0xDC3 DUP5 PUSH1 0x1 ADD SLOAD PUSH2 0xDBD PUSH1 0xF PUSH1 0x9 ADD SLOAD PUSH2 0x3E8 PUSH2 0x1976 SWAP1 SWAP2 SWAP1 PUSH4 0xFFFFFFFF AND JUMP JUMPDEST PUSH1 0x10 SLOAD PUSH1 0x20 SLOAD PUSH1 0x1 DUP6 ADD SLOAD SWAP3 SWAP4 POP PUSH1 0x1 PUSH1 0x1 PUSH1 0xA0 SHL SUB SWAP2 DUP3 AND SWAP3 PUSH4 0xA9059CBB SWAP3 SWAP1 SWAP2 AND SWAP1 PUSH2 0x1018 SWAP1 DUP6 PUSH2 0x1976 JUMP JUMPDEST PUSH1 0x40 MLOAD PUSH1 0x1 PUSH1 0x1 PUSH1 0xE0 SHL SUB NOT PUSH1 0xE0 DUP6 SWAP1 SHL AND DUP2 MSTORE PUSH1 0x1 PUSH1 0x1 PUSH1 0xA0 SHL SUB SWAP1 SWAP3 AND PUSH1 0x4 DUP4 ADD MSTORE PUSH1 0x24 DUP3 ADD MSTORE PUSH1 0x44 ADD PUSH1 0x20 PUSH1 0x40 MLOAD DUP1 DUP4 SUB DUP2 PUSH1 0x0 DUP8 DUP1 EXTCODESIZE ISZERO DUP1 ISZERO PUSH2 0x105E JUMPI PUSH1 0x0 DUP1 REVERT JUMPDEST POP GAS CALL ISZERO DUP1 ISZERO PUSH2 0x1072 JUMPI RETURNDATASIZE PUSH1 0x0 DUP1 RETURNDATACOPY RETURNDATASIZE PUSH1 0x0 REVERT JUMPDEST POP POP POP POP PUSH1 0x40 MLOAD RETURNDATASIZE PUSH1 0x1F NOT PUSH1 0x1F DUP3 ADD AND DUP3 ADD DUP1 PUSH1 0x40 MSTORE POP DUP2 ADD SWAP1 PUSH2 0x1096 SWAP2 SWAP1 PUSH2 0x1C78 JUMP JUMPDEST POP PUSH1 0x1 DUP3 ADD SLOAD PUSH1 0x6 DUP1 SLOAD PUSH1 0x0 SWAP1 PUSH2 0x10AE SWAP1 DUP5 SWAP1 PUSH2 0x1D70 JUMP JUMPDEST SWAP1 SWAP2 SSTORE POP POP PUSH1 0x1 DUP3 ADD SLOAD PUSH1 0x1A DUP1 SLOAD PUSH1 0x0 SWAP1 PUSH2 0x10CA SWAP1 DUP5 SWAP1 PUSH2 0x1EB4 JUMP JUMPDEST SWAP3 POP POP DUP2 SWAP1 SSTORE POP DUP1 DUP3 PUSH1 0x3 ADD PUSH1 0x0 DUP3 DUP3 SLOAD PUSH2 0x10E5 SWAP2 SWAP1 PUSH2 0x1D70 JUMP JUMPDEST SWAP1 SWAP2 SSTORE POP POP TIMESTAMP PUSH1 0x2 DUP4 ADD SSTORE PUSH1 0x4 DUP3 ADD SLOAD DUP3 SLOAD PUSH2 0x1101 SWAP2 SWAP1 PUSH2 0x1EB4 JUMP JUMPDEST PUSH1 0x9 DUP1 SLOAD PUSH1 0x0 SWAP1 PUSH2 0x1113 SWAP1 DUP5 SWAP1 PUSH2 0x1D70 JUMP JUMPDEST SWAP1 SWAP2 SSTORE POP POP PUSH1 0x10 SLOAD PUSH1 0x40 MLOAD PUSH4 0xA9059CBB PUSH1 0xE0 SHL DUP2 MSTORE CALLER PUSH1 0x4 DUP3 ADD MSTORE PUSH1 0x24 DUP2 ADD DUP4 SWAP1 MSTORE PUSH1 0x1 PUSH1 0x1 PUSH1 0xA0 SHL SUB SWAP1 SWAP2 AND SWAP1 PUSH4 0xA9059CBB SWAP1 PUSH1 0x44 ADD PUSH1 0x20 PUSH1 0x40 MLOAD DUP1 DUP4 SUB DUP2 PUSH1 0x0 DUP8 DUP1 EXTCODESIZE ISZERO DUP1 ISZERO PUSH2 0x1164 JUMPI PUSH1 0x0 DUP1 REVERT JUMPDEST POP GAS CALL ISZERO DUP1 ISZERO PUSH2 0x1178 JUMPI RETURNDATASIZE PUSH1 0x0 DUP1 RETURNDATACOPY RETURNDATASIZE PUSH1 0x0 REVERT JUMPDEST POP POP POP POP PUSH1 0x40 MLOAD RETURNDATASIZE PUSH1 0x1F NOT PUSH1 0x1F DUP3 ADD AND DUP3 ADD DUP1 PUSH1 0x40 MSTORE POP DUP2 ADD SWAP1 PUSH2 0xCA1 SWAP2 SWAP1 PUSH2 0x1C78 JUMP JUMPDEST PUSH1 0x2 PUSH1 0x0 SLOAD EQ ISZERO PUSH2 0x11BF JUMPI PUSH1 0x40 MLOAD PUSH3 0x461BCD PUSH1 0xE5 SHL DUP2 MSTORE PUSH1 0x4 ADD PUSH2 0x9A2 SWAP1 PUSH2 0x1D39 JUMP JUMPDEST PUSH1 0x2 PUSH1 0x0 DUP2 DUP2 SSTORE CALLER DUP2 MSTORE PUSH1 0x20 SWAP2 SWAP1 SWAP2 MSTORE PUSH1 0x40 DUP2 KECCAK256 SWAP1 DUP3 SWAP1 DUP2 SWAP1 PUSH2 0x3E8 CALLVALUE DUP4 GT ISZERO PUSH2 0x122B JUMPI PUSH1 0x40 MLOAD PUSH3 0x461BCD PUSH1 0xE5 SHL DUP2 MSTORE PUSH1 0x20 PUSH1 0x4 DUP3 ADD MSTORE PUSH1 0x1A PUSH1 0x24 DUP3 ADD MSTORE PUSH32 0x506C656173652070726F76696465206E617669746520636F696E000000000000 PUSH1 0x44 DUP3 ADD MSTORE PUSH1 0x64 ADD PUSH2 0x9A2 JUMP JUMPDEST PUSH1 0x15 SLOAD DUP4 LT ISZERO PUSH2 0x1270 JUMPI PUSH1 0x40 MLOAD PUSH3 0x461BCD PUSH1 0xE5 SHL DUP2 MSTORE PUSH1 0x20 PUSH1 0x4 DUP3 ADD MSTORE PUSH1 0x10 PUSH1 0x24 DUP3 ADD MSTORE PUSH16 0x4E6F7420656E6F7567682076616C7565 PUSH1 0x80 SHL PUSH1 0x44 DUP3 ADD MSTORE PUSH1 0x64 ADD PUSH2 0x9A2 JUMP JUMPDEST PUSH1 0x16 SLOAD DUP4 GT ISZERO PUSH2 0x12B3 JUMPI PUSH1 0x40 MLOAD PUSH3 0x461BCD PUSH1 0xE5 SHL DUP2 MSTORE PUSH1 0x20 PUSH1 0x4 DUP3 ADD MSTORE PUSH1 0xE PUSH1 0x24 DUP3 ADD MSTORE PUSH14 0x4F766572666C6F772076616C7565 PUSH1 0x90 SHL PUSH1 0x44 DUP3 ADD MSTORE PUSH1 0x64 ADD PUSH2 0x9A2 JUMP JUMPDEST PUSH2 0x12BB PUSH2 0x156B JUMP JUMPDEST PUSH2 0x12EB JUMPI PUSH2 0x12DC DUP2 PUSH2 0xDC3 DUP6 PUSH2 0xDBD PUSH1 0x1F SLOAD DUP7 PUSH2 0x1976 SWAP1 SWAP2 SWAP1 PUSH4 0xFFFFFFFF AND JUMP JUMPDEST SWAP3 POP PUSH2 0x12E8 DUP4 DUP6 PUSH2 0x1EB4 JUMP JUMPDEST SWAP2 POP JUMPDEST DUP5 SLOAD PUSH1 0x16 SLOAD PUSH1 0x0 SWAP2 PUSH2 0x12FC SWAP2 PUSH2 0x1EB4 JUMP JUMPDEST PUSH1 0x4 SLOAD PUSH1 0x1A SLOAD SWAP2 SWAP3 POP PUSH1 0x0 SWAP2 PUSH2 0x1312 SWAP2 SWAP1 PUSH2 0x1EB4 JUMP JUMPDEST SWAP1 POP PUSH1 0x0 DUP2 DUP4 GT PUSH2 0x1323 JUMPI DUP3 PUSH2 0x1325 JUMP JUMPDEST DUP2 JUMPDEST SWAP1 POP DUP1 DUP7 GT ISZERO PUSH2 0x1369 JUMPI PUSH1 0x40 MLOAD PUSH3 0x461BCD PUSH1 0xE5 SHL DUP2 MSTORE PUSH1 0x20 PUSH1 0x4 DUP3 ADD MSTORE PUSH1 0xF PUSH1 0x24 DUP3 ADD MSTORE PUSH15 0x53616C652069732073756363657373 PUSH1 0x88 SHL PUSH1 0x44 DUP3 ADD MSTORE PUSH1 0x64 ADD PUSH2 0x9A2 JUMP JUMPDEST PUSH1 0x0 PUSH2 0x1410 PUSH1 0xF PUSH1 0x2 ADD PUSH1 0x0 SWAP1 SLOAD SWAP1 PUSH2 0x100 EXP SWAP1 DIV PUSH1 0x1 PUSH1 0x1 PUSH1 0xA0 SHL SUB AND PUSH1 0x1 PUSH1 0x1 PUSH1 0xA0 SHL SUB AND PUSH4 0x313CE567 PUSH1 0x40 MLOAD DUP2 PUSH4 0xFFFFFFFF AND PUSH1 0xE0 SHL DUP2 MSTORE PUSH1 0x4 ADD PUSH1 0x20 PUSH1 0x40 MLOAD DUP1 DUP4 SUB DUP2 DUP7 DUP1 EXTCODESIZE ISZERO DUP1 ISZERO PUSH2 0x13BF JUMPI PUSH1 0x0 DUP1 REVERT JUMPDEST POP GAS STATICCALL ISZERO DUP1 ISZERO PUSH2 0x13D3 JUMPI RETURNDATASIZE PUSH1 0x0 DUP1 RETURNDATACOPY RETURNDATASIZE PUSH1 0x0 REVERT JUMPDEST POP POP POP POP PUSH1 0x40 MLOAD RETURNDATASIZE PUSH1 0x1F NOT PUSH1 0x1F DUP3 ADD AND DUP3 ADD DUP1 PUSH1 0x40 MSTORE POP DUP2 ADD SWAP1 PUSH2 0x13F7 SWAP2 SWAP1 PUSH2 0x1CAE JUMP JUMPDEST PUSH2 0x1402 SWAP1 PUSH1 0xA PUSH2 0x1DED JUMP JUMPDEST PUSH1 0x12 SLOAD PUSH2 0xDC3 SWAP1 DUP11 SWAP1 PUSH2 0x1918 JUMP JUMPDEST SWAP1 POP DUP7 DUP10 PUSH1 0x0 ADD PUSH1 0x0 DUP3 DUP3 SLOAD PUSH2 0x1426 SWAP2 SWAP1 PUSH2 0x1D70 JUMP JUMPDEST SWAP3 POP POP DUP2 SWAP1 SSTORE POP DUP1 DUP10 PUSH1 0x1 ADD PUSH1 0x0 DUP3 DUP3 SLOAD PUSH2 0x1441 SWAP2 SWAP1 PUSH2 0x1D70 JUMP JUMPDEST SWAP1 SWAP2 SSTORE POP POP PUSH1 0x4 DUP1 SLOAD DUP9 SWAP2 SWAP1 PUSH1 0x0 SWAP1 PUSH2 0x145B SWAP1 DUP5 SWAP1 PUSH2 0x1D70 JUMP JUMPDEST SWAP1 SWAP2 SSTORE POP POP PUSH1 0x5 DUP1 SLOAD DUP3 SWAP2 SWAP1 PUSH1 0x0 SWAP1 PUSH2 0x1475 SWAP1 DUP5 SWAP1 PUSH2 0x1D70 JUMP JUMPDEST SWAP1 SWAP2 SSTORE POP POP PUSH1 0xA DUP1 SLOAD SWAP1 PUSH1 0x0 PUSH2 0x148A DUP4 PUSH2 0x1ECB JUMP JUMPDEST SWAP1 SWAP2 SSTORE POP POP CALLER PUSH1 0x0 SWAP1 DUP2 MSTORE PUSH1 0x3 PUSH1 0x20 MSTORE PUSH1 0x40 DUP2 KECCAK256 DUP1 SLOAD DUP9 SWAP3 SWAP1 PUSH2 0x14AE SWAP1 DUP5 SWAP1 PUSH2 0x1D70 JUMP JUMPDEST SWAP3 POP POP DUP2 SWAP1 SSTORE POP DUP6 PUSH1 0x1E PUSH1 0x0 DUP3 DUP3 SLOAD PUSH2 0x14C7 SWAP2 SWAP1 PUSH2 0x1D70 JUMP JUMPDEST SWAP1 SWAP2 SSTORE POP POP PUSH1 0x19 SLOAD PUSH1 0xFF AND DUP1 ISZERO PUSH2 0x14E7 JUMPI POP CALLVALUE PUSH2 0x14E4 DUP8 DUP10 PUSH2 0x1D70 JUMP JUMPDEST GT ISZERO JUMPDEST ISZERO PUSH2 0x152F JUMPI CALLER PUSH2 0x8FC DUP8 PUSH2 0x14FB DUP11 CALLVALUE PUSH2 0x1EB4 JUMP JUMPDEST PUSH2 0x1505 SWAP2 SWAP1 PUSH2 0x1EB4 JUMP JUMPDEST PUSH1 0x40 MLOAD DUP2 ISZERO SWAP1 SWAP3 MUL SWAP2 PUSH1 0x0 DUP2 DUP2 DUP2 DUP6 DUP9 DUP9 CALL SWAP4 POP POP POP POP ISZERO DUP1 ISZERO PUSH2 0x152D JUMPI RETURNDATASIZE PUSH1 0x0 DUP1 RETURNDATACOPY RETURNDATASIZE PUSH1 0x0 REVERT JUMPDEST POP JUMPDEST PUSH1 0x19 SLOAD PUSH1 0xFF AND PUSH2 0x155A JUMPI PUSH1 0x11 SLOAD PUSH2 0x155A SWAP1 PUSH1 0x1 PUSH1 0x1 PUSH1 0xA0 SHL SUB AND CALLER ADDRESS PUSH2 0x1555 DUP11 DUP13 PUSH2 0x1D70 JUMP JUMPDEST PUSH2 0x198E JUMP JUMPDEST POP POP PUSH1 0x1 PUSH1 0x0 SSTORE POP POP POP POP POP POP POP POP JUMP JUMPDEST PUSH1 0x0 PUSH2 0x1578 PUSH1 0x1C CALLER PUSH2 0x1ABE JUMP JUMPDEST SWAP1 POP SWAP1 JUMP JUMPDEST DUP1 ISZERO PUSH2 0x1719 JUMPI PUSH1 0x6 SLOAD PUSH1 0x5 SLOAD PUSH1 0x0 SWAP2 PUSH2 0x1595 SWAP2 PUSH2 0x1EB4 JUMP JUMPDEST GT PUSH2 0x15B2 JUMPI PUSH1 0x40 MLOAD PUSH3 0x461BCD PUSH1 0xE5 SHL DUP2 MSTORE PUSH1 0x4 ADD PUSH2 0x9A2 SWAP1 PUSH2 0x1D02 JUMP JUMPDEST CALLER PUSH1 0x0 SWAP1 DUP2 MSTORE PUSH1 0x2 PUSH1 0x20 MSTORE PUSH1 0x40 SWAP1 KECCAK256 PUSH1 0x3 DUP2 ADD SLOAD PUSH1 0x1 DUP3 ADD SLOAD GT PUSH2 0x1624 JUMPI PUSH1 0x40 MLOAD PUSH3 0x461BCD PUSH1 0xE5 SHL DUP2 MSTORE PUSH1 0x20 PUSH1 0x4 DUP3 ADD MSTORE PUSH1 0x24 DUP1 DUP3 ADD MSTORE PUSH32 0x596F7520636C61696D20616C6C206F722068617665206E6F7420626F75676874 PUSH1 0x44 DUP3 ADD MSTORE PUSH4 0x81E595D PUSH1 0xE2 SHL PUSH1 0x64 DUP3 ADD MSTORE PUSH1 0x84 ADD PUSH2 0x9A2 JUMP JUMPDEST PUSH1 0x10 SLOAD PUSH1 0x1 DUP3 ADD SLOAD PUSH1 0x40 MLOAD PUSH4 0xA9059CBB PUSH1 0xE0 SHL DUP2 MSTORE CALLER PUSH1 0x4 DUP3 ADD MSTORE PUSH1 0x24 DUP2 ADD SWAP2 SWAP1 SWAP2 MSTORE PUSH1 0x1 PUSH1 0x1 PUSH1 0xA0 SHL SUB SWAP1 SWAP2 AND SWAP1 PUSH4 0xA9059CBB SWAP1 PUSH1 0x44 ADD PUSH1 0x20 PUSH1 0x40 MLOAD DUP1 DUP4 SUB DUP2 PUSH1 0x0 DUP8 DUP1 EXTCODESIZE ISZERO DUP1 ISZERO PUSH2 0x1676 JUMPI PUSH1 0x0 DUP1 REVERT JUMPDEST POP GAS CALL ISZERO DUP1 ISZERO PUSH2 0x168A JUMPI RETURNDATASIZE PUSH1 0x0 DUP1 RETURNDATACOPY RETURNDATASIZE PUSH1 0x0 REVERT JUMPDEST POP POP POP POP PUSH1 0x40 MLOAD RETURNDATASIZE PUSH1 0x1F NOT PUSH1 0x1F DUP3 ADD AND DUP3 ADD DUP1 PUSH1 0x40 MSTORE POP DUP2 ADD SWAP1 PUSH2 0x16AE SWAP2 SWAP1 PUSH2 0x1C78 JUMP JUMPDEST POP PUSH1 0x1 DUP2 ADD SLOAD PUSH1 0x6 DUP1 SLOAD PUSH1 0x0 SWAP1 PUSH2 0x16C6 SWAP1 DUP5 SWAP1 PUSH2 0x1D70 JUMP JUMPDEST SWAP1 SWAP2 SSTORE POP POP PUSH1 0x1 DUP2 ADD SLOAD PUSH1 0x1A DUP1 SLOAD PUSH1 0x0 SWAP1 PUSH2 0x16E2 SWAP1 DUP5 SWAP1 PUSH2 0x1EB4 JUMP JUMPDEST SWAP1 SWAP2 SSTORE POP POP PUSH1 0x1 DUP2 ADD SLOAD PUSH1 0x3 DUP3 ADD DUP1 SLOAD PUSH1 0x0 SWAP1 PUSH2 0x1700 SWAP1 DUP5 SWAP1 PUSH2 0x1D70 JUMP JUMPDEST SWAP1 SWAP2 SSTORE POP POP PUSH1 0x0 DUP1 DUP3 SSTORE PUSH1 0x1 DUP3 ADD SSTORE TIMESTAMP PUSH1 0x2 SWAP1 SWAP2 ADD SSTORE POP JUMP JUMPDEST PUSH1 0x7 SLOAD PUSH1 0x4 SLOAD PUSH1 0x0 SWAP2 PUSH2 0x172B SWAP2 PUSH2 0x1EB4 JUMP JUMPDEST GT PUSH2 0x1748 JUMPI PUSH1 0x40 MLOAD PUSH3 0x461BCD PUSH1 0xE5 SHL DUP2 MSTORE PUSH1 0x4 ADD PUSH2 0x9A2 SWAP1 PUSH2 0x1D02 JUMP JUMPDEST CALLER PUSH1 0x0 SWAP1 DUP2 MSTORE PUSH1 0x2 PUSH1 0x20 MSTORE PUSH1 0x40 SWAP1 KECCAK256 DUP1 SLOAD PUSH2 0x17B3 JUMPI PUSH1 0x40 MLOAD PUSH3 0x461BCD PUSH1 0xE5 SHL DUP2 MSTORE PUSH1 0x20 PUSH1 0x4 DUP3 ADD MSTORE PUSH1 0x25 PUSH1 0x24 DUP3 ADD MSTORE PUSH32 0x596F7520726566756E6420616C6C206F722068617665206E6F7420626F756768 PUSH1 0x44 DUP3 ADD MSTORE PUSH5 0x1D081E595D PUSH1 0xDA SHL PUSH1 0x64 DUP3 ADD MSTORE PUSH1 0x84 ADD PUSH2 0x9A2 JUMP JUMPDEST DUP1 SLOAD PUSH2 0x17BF DUP2 DUP1 PUSH2 0x1EB4 JUMP JUMPDEST PUSH1 0x1E PUSH1 0x0 DUP3 DUP3 SLOAD PUSH2 0x17D0 SWAP2 SWAP1 PUSH2 0x1D70 JUMP JUMPDEST SWAP1 SWAP2 SSTORE POP POP PUSH1 0x7 DUP1 SLOAD DUP3 SWAP2 SWAP1 PUSH1 0x0 SWAP1 PUSH2 0x17EA SWAP1 DUP5 SWAP1 PUSH2 0x1D70 JUMP JUMPDEST SWAP1 SWAP2 SSTORE POP POP PUSH1 0x0 DUP1 DUP4 SSTORE PUSH1 0x1 DUP4 ADD DUP2 SWAP1 SSTORE TIMESTAMP PUSH1 0x2 DUP5 ADD SSTORE PUSH1 0x40 MLOAD CALLER SWAP2 DUP4 ISZERO PUSH2 0x8FC MUL SWAP2 DUP5 SWAP2 DUP2 DUP2 DUP2 DUP6 DUP9 DUP9 CALL SWAP4 POP POP POP POP ISZERO DUP1 ISZERO PUSH2 0x182C JUMPI RETURNDATASIZE PUSH1 0x0 DUP1 RETURNDATACOPY RETURNDATASIZE PUSH1 0x0 REVERT JUMPDEST POP POP POP POP JUMP JUMPDEST PUSH1 0x1 SLOAD PUSH1 0x1 PUSH1 0x1 PUSH1 0xA0 SHL SUB AND CALLER EQ PUSH2 0x188C JUMPI PUSH1 0x40 MLOAD PUSH3 0x461BCD PUSH1 0xE5 SHL DUP2 MSTORE PUSH1 0x20 PUSH1 0x4 DUP3 ADD DUP2 SWAP1 MSTORE PUSH1 0x24 DUP3 ADD MSTORE PUSH32 0x4F776E61626C653A2063616C6C6572206973206E6F7420746865206F776E6572 PUSH1 0x44 DUP3 ADD MSTORE PUSH1 0x64 ADD PUSH2 0x9A2 JUMP JUMPDEST PUSH1 0x1 PUSH1 0x1 PUSH1 0xA0 SHL SUB DUP2 AND PUSH2 0x18F1 JUMPI PUSH1 0x40 MLOAD PUSH3 0x461BCD PUSH1 0xE5 SHL DUP2 MSTORE PUSH1 0x20 PUSH1 0x4 DUP3 ADD MSTORE PUSH1 0x26 PUSH1 0x24 DUP3 ADD MSTORE PUSH32 0x4F776E61626C653A206E6577206F776E657220697320746865207A65726F2061 PUSH1 0x44 DUP3 ADD MSTORE PUSH6 0x646472657373 PUSH1 0xD0 SHL PUSH1 0x64 DUP3 ADD MSTORE PUSH1 0x84 ADD PUSH2 0x9A2 JUMP JUMPDEST PUSH2 0x9E3 DUP2 PUSH2 0x1924 JUMP JUMPDEST PUSH1 0x0 PUSH2 0x190F DUP4 PUSH1 0x1 PUSH1 0x1 PUSH1 0xA0 SHL SUB DUP5 AND PUSH2 0x1AE0 JUMP JUMPDEST SWAP1 POP JUMPDEST SWAP3 SWAP2 POP POP JUMP JUMPDEST PUSH1 0x0 PUSH2 0x190F DUP3 DUP5 PUSH2 0x1E95 JUMP JUMPDEST PUSH1 0x1 DUP1 SLOAD PUSH1 0x1 PUSH1 0x1 PUSH1 0xA0 SHL SUB DUP4 DUP2 AND PUSH1 0x1 PUSH1 0x1 PUSH1 0xA0 SHL SUB NOT DUP4 AND DUP2 OR SWAP1 SWAP4 SSTORE PUSH1 0x40 MLOAD SWAP2 AND SWAP2 SWAP1 DUP3 SWAP1 PUSH32 0x8BE0079C531659141344CD1FD0A4F28419497F9722A3DAAFE3B4186F6B6457E0 SWAP1 PUSH1 0x0 SWAP1 LOG3 POP POP JUMP JUMPDEST PUSH1 0x0 PUSH2 0x190F DUP3 DUP5 PUSH2 0x1EB4 JUMP JUMPDEST PUSH1 0x0 PUSH2 0x190F DUP3 DUP5 PUSH2 0x1D88 JUMP JUMPDEST PUSH1 0x40 DUP1 MLOAD PUSH1 0x1 PUSH1 0x1 PUSH1 0xA0 SHL SUB DUP6 DUP2 AND PUSH1 0x24 DUP4 ADD MSTORE DUP5 DUP2 AND PUSH1 0x44 DUP4 ADD MSTORE PUSH1 0x64 DUP1 DUP4 ADD DUP6 SWAP1 MSTORE DUP4 MLOAD DUP1 DUP5 SUB SWAP1 SWAP2 ADD DUP2 MSTORE PUSH1 0x84 SWAP1 SWAP3 ADD DUP4 MSTORE PUSH1 0x20 DUP3 ADD DUP1 MLOAD PUSH1 0x1 PUSH1 0x1 PUSH1 0xE0 SHL SUB AND PUSH4 0x23B872DD PUSH1 0xE0 SHL OR SWAP1 MSTORE SWAP2 MLOAD PUSH1 0x0 SWAP3 DUP4 SWAP3 SWAP1 DUP9 AND SWAP2 PUSH2 0x19F2 SWAP2 SWAP1 PUSH2 0x1CC7 JUMP JUMPDEST PUSH1 0x0 PUSH1 0x40 MLOAD DUP1 DUP4 SUB DUP2 PUSH1 0x0 DUP7 GAS CALL SWAP2 POP POP RETURNDATASIZE DUP1 PUSH1 0x0 DUP2 EQ PUSH2 0x1A2F JUMPI PUSH1 0x40 MLOAD SWAP2 POP PUSH1 0x1F NOT PUSH1 0x3F RETURNDATASIZE ADD AND DUP3 ADD PUSH1 0x40 MSTORE RETURNDATASIZE DUP3 MSTORE RETURNDATASIZE PUSH1 0x0 PUSH1 0x20 DUP5 ADD RETURNDATACOPY PUSH2 0x1A34 JUMP JUMPDEST PUSH1 0x60 SWAP2 POP JUMPDEST POP SWAP2 POP SWAP2 POP DUP2 DUP1 ISZERO PUSH2 0x1A5E JUMPI POP DUP1 MLOAD ISZERO DUP1 PUSH2 0x1A5E JUMPI POP DUP1 DUP1 PUSH1 0x20 ADD SWAP1 MLOAD DUP2 ADD SWAP1 PUSH2 0x1A5E SWAP2 SWAP1 PUSH2 0x1C78 JUMP JUMPDEST PUSH2 0x1AB6 JUMPI PUSH1 0x40 MLOAD PUSH3 0x461BCD PUSH1 0xE5 SHL DUP2 MSTORE PUSH1 0x20 PUSH1 0x4 DUP3 ADD MSTORE PUSH1 0x24 DUP1 DUP3 ADD MSTORE PUSH32 0x5472616E7366657248656C7065723A205452414E534645525F46524F4D5F4641 PUSH1 0x44 DUP3 ADD MSTORE PUSH4 0x12531151 PUSH1 0xE2 SHL PUSH1 0x64 DUP3 ADD MSTORE PUSH1 0x84 ADD PUSH2 0x9A2 JUMP JUMPDEST POP POP POP POP POP POP JUMP JUMPDEST PUSH1 0x1 PUSH1 0x1 PUSH1 0xA0 SHL SUB DUP2 AND PUSH1 0x0 SWAP1 DUP2 MSTORE PUSH1 0x1 DUP4 ADD PUSH1 0x20 MSTORE PUSH1 0x40 DUP2 KECCAK256 SLOAD ISZERO ISZERO PUSH2 0x190F JUMP JUMPDEST PUSH1 0x0 DUP2 DUP2 MSTORE PUSH1 0x1 DUP4 ADD PUSH1 0x20 MSTORE PUSH1 0x40 DUP2 KECCAK256 SLOAD PUSH2 0x1B27 JUMPI POP DUP2 SLOAD PUSH1 0x1 DUP2 DUP2 ADD DUP5 SSTORE PUSH1 0x0 DUP5 DUP2 MSTORE PUSH1 0x20 DUP1 DUP3 KECCAK256 SWAP1 SWAP4 ADD DUP5 SWAP1 SSTORE DUP5 SLOAD DUP5 DUP3 MSTORE DUP3 DUP7 ADD SWAP1 SWAP4 MSTORE PUSH1 0x40 SWAP1 KECCAK256 SWAP2 SWAP1 SWAP2 SSTORE PUSH2 0x1912 JUMP JUMPDEST POP PUSH1 0x0 PUSH2 0x1912 JUMP JUMPDEST DUP1 CALLDATALOAD PUSH2 0x1B3A DUP2 PUSH2 0x1F12 JUMP JUMPDEST SWAP2 SWAP1 POP JUMP JUMPDEST PUSH1 0x0 PUSH1 0x20 DUP3 DUP5 SUB SLT ISZERO PUSH2 0x1B51 JUMPI PUSH1 0x0 DUP1 REVERT JUMPDEST DUP2 CALLDATALOAD PUSH2 0x1B5C DUP2 PUSH2 0x1F12 JUMP JUMPDEST SWAP4 SWAP3 POP POP POP JUMP JUMPDEST PUSH1 0x0 DUP1 PUSH1 0x0 DUP1 PUSH1 0x0 DUP1 PUSH1 0x0 DUP1 PUSH1 0x0 PUSH2 0x1E0 DUP11 DUP13 SUB SLT ISZERO PUSH2 0x1B82 JUMPI PUSH1 0x0 DUP1 REVERT JUMPDEST DUP10 CALLDATALOAD PUSH2 0x1B8D DUP2 PUSH2 0x1F12 JUMP JUMPDEST SWAP9 POP PUSH1 0x20 DUP11 DUP2 ADD CALLDATALOAD PUSH2 0x1B9E DUP2 PUSH2 0x1F12 JUMP JUMPDEST SWAP9 POP PUSH1 0x40 DUP12 ADD CALLDATALOAD PUSH2 0x1BAE DUP2 PUSH2 0x1F12 JUMP JUMPDEST SWAP8 POP PUSH1 0x7F DUP12 ADD DUP13 SGT PUSH2 0x1BBF JUMPI PUSH1 0x0 DUP1 REVERT JUMPDEST PUSH1 0x40 MLOAD PUSH1 0xE0 DUP2 ADD DUP2 DUP2 LT PUSH8 0xFFFFFFFFFFFFFFFF DUP3 GT OR ISZERO PUSH2 0x1BE2 JUMPI PUSH2 0x1BE2 PUSH2 0x1EFC JUMP JUMPDEST PUSH1 0x40 MSTORE DUP1 PUSH1 0x60 DUP14 ADD PUSH2 0x140 DUP15 ADD DUP16 DUP2 GT ISZERO PUSH2 0x1BFC JUMPI PUSH1 0x0 DUP1 REVERT JUMPDEST PUSH1 0x0 JUMPDEST PUSH1 0x7 DUP2 LT ISZERO PUSH2 0x1C1C JUMPI DUP3 CALLDATALOAD DUP5 MSTORE SWAP3 DUP6 ADD SWAP3 SWAP2 DUP6 ADD SWAP2 PUSH1 0x1 ADD PUSH2 0x1BFF JUMP JUMPDEST POP SWAP3 SWAP10 POP POP SWAP1 CALLDATALOAD SWAP7 POP POP POP PUSH2 0x160 DUP11 ADD CALLDATALOAD SWAP4 POP PUSH2 0x180 DUP11 ADD CALLDATALOAD SWAP3 POP PUSH2 0x1C44 PUSH2 0x1A0 DUP12 ADD PUSH2 0x1B2F JUMP JUMPDEST SWAP2 POP PUSH2 0x1C0 DUP11 ADD CALLDATALOAD SWAP1 POP SWAP3 SWAP6 SWAP9 POP SWAP3 SWAP6 SWAP9 POP SWAP3 SWAP6 SWAP9 JUMP JUMPDEST PUSH1 0x0 PUSH1 0x20 DUP3 DUP5 SUB SLT ISZERO PUSH2 0x1C6D JUMPI PUSH1 0x0 DUP1 REVERT JUMPDEST DUP2 CALLDATALOAD PUSH2 0x1B5C DUP2 PUSH2 0x1F27 JUMP JUMPDEST PUSH1 0x0 PUSH1 0x20 DUP3 DUP5 SUB SLT ISZERO PUSH2 0x1C8A JUMPI PUSH1 0x0 DUP1 REVERT JUMPDEST DUP2 MLOAD PUSH2 0x1B5C DUP2 PUSH2 0x1F27 JUMP JUMPDEST PUSH1 0x0 PUSH1 0x20 DUP3 DUP5 SUB SLT ISZERO PUSH2 0x1CA7 JUMPI PUSH1 0x0 DUP1 REVERT JUMPDEST POP CALLDATALOAD SWAP2 SWAP1 POP JUMP JUMPDEST PUSH1 0x0 PUSH1 0x20 DUP3 DUP5 SUB SLT ISZERO PUSH2 0x1CC0 JUMPI PUSH1 0x0 DUP1 REVERT JUMPDEST POP MLOAD SWAP2 SWAP1 POP JUMP JUMPDEST PUSH1 0x0 DUP3 MLOAD PUSH1 0x0 JUMPDEST DUP2 DUP2 LT ISZERO PUSH2 0x1CE8 JUMPI PUSH1 0x20 DUP2 DUP7 ADD DUP2 ADD MLOAD DUP6 DUP4 ADD MSTORE ADD PUSH2 0x1CCE JUMP JUMPDEST DUP2 DUP2 GT ISZERO PUSH2 0x1CF7 JUMPI PUSH1 0x0 DUP3 DUP6 ADD MSTORE JUMPDEST POP SWAP2 SWAP1 SWAP2 ADD SWAP3 SWAP2 POP POP JUMP JUMPDEST PUSH1 0x20 DUP1 DUP3 MSTORE PUSH1 0x1B SWAP1 DUP3 ADD MSTORE PUSH32 0x416C6C20746F6B656E20686173206265656E2077697468647261770000000000 PUSH1 0x40 DUP3 ADD MSTORE PUSH1 0x60 ADD SWAP1 JUMP JUMPDEST PUSH1 0x20 DUP1 DUP3 MSTORE PUSH1 0x1F SWAP1 DUP3 ADD MSTORE PUSH32 0x5265656E7472616E637947756172643A207265656E7472616E742063616C6C00 PUSH1 0x40 DUP3 ADD MSTORE PUSH1 0x60 ADD SWAP1 JUMP JUMPDEST PUSH1 0x0 DUP3 NOT DUP3 GT ISZERO PUSH2 0x1D83 JUMPI PUSH2 0x1D83 PUSH2 0x1EE6 JUMP JUMPDEST POP ADD SWAP1 JUMP JUMPDEST PUSH1 0x0 DUP3 PUSH2 0x1DA5 JUMPI PUSH4 0x4E487B71 PUSH1 0xE0 SHL PUSH1 0x0 MSTORE PUSH1 0x12 PUSH1 0x4 MSTORE PUSH1 0x24 PUSH1 0x0 REVERT JUMPDEST POP DIV SWAP1 JUMP JUMPDEST PUSH1 0x1 DUP2 DUP2 JUMPDEST DUP1 DUP6 GT ISZERO PUSH2 0x1DE5 JUMPI DUP2 PUSH1 0x0 NOT DIV DUP3 GT ISZERO PUSH2 0x1DCB JUMPI PUSH2 0x1DCB PUSH2 0x1EE6 JUMP JUMPDEST DUP1 DUP6 AND ISZERO PUSH2 0x1DD8 JUMPI SWAP2 DUP2 MUL SWAP2 JUMPDEST SWAP4 DUP5 SHR SWAP4 SWAP1 DUP1 MUL SWAP1 PUSH2 0x1DAF JUMP JUMPDEST POP SWAP3 POP SWAP3 SWAP1 POP JUMP JUMPDEST PUSH1 0x0 PUSH2 0x190F DUP4 DUP4 PUSH1 0x0 DUP3 PUSH2 0x1E03 JUMPI POP PUSH1 0x1 PUSH2 0x1912 JUMP JUMPDEST DUP2 PUSH2 0x1E10 JUMPI POP PUSH1 0x0 PUSH2 0x1912 JUMP JUMPDEST DUP2 PUSH1 0x1 DUP2 EQ PUSH2 0x1E26 JUMPI PUSH1 0x2 DUP2 EQ PUSH2 0x1E30 JUMPI PUSH2 0x1E4C JUMP JUMPDEST PUSH1 0x1 SWAP2 POP POP PUSH2 0x1912 JUMP JUMPDEST PUSH1 0xFF DUP5 GT ISZERO PUSH2 0x1E41 JUMPI PUSH2 0x1E41 PUSH2 0x1EE6 JUMP JUMPDEST POP POP PUSH1 0x1 DUP3 SHL PUSH2 0x1912 JUMP JUMPDEST POP PUSH1 0x20 DUP4 LT PUSH2 0x133 DUP4 LT AND PUSH1 0x4E DUP5 LT PUSH1 0xB DUP5 LT AND OR ISZERO PUSH2 0x1E6F JUMPI POP DUP2 DUP2 EXP PUSH2 0x1912 JUMP JUMPDEST PUSH2 0x1E79 DUP4 DUP4 PUSH2 0x1DAA JUMP JUMPDEST DUP1 PUSH1 0x0 NOT DIV DUP3 GT ISZERO PUSH2 0x1E8D JUMPI PUSH2 0x1E8D PUSH2 0x1EE6 JUMP JUMPDEST MUL SWAP4 SWAP3 POP POP POP JUMP JUMPDEST PUSH1 0x0 DUP2 PUSH1 0x0 NOT DIV DUP4 GT DUP3 ISZERO ISZERO AND ISZERO PUSH2 0x1EAF JUMPI PUSH2 0x1EAF PUSH2 0x1EE6 JUMP JUMPDEST POP MUL SWAP1 JUMP JUMPDEST PUSH1 0x0 DUP3 DUP3 LT ISZERO PUSH2 0x1EC6 JUMPI PUSH2 0x1EC6 PUSH2 0x1EE6 JUMP JUMPDEST POP SUB SWAP1 JUMP JUMPDEST PUSH1 0x0 PUSH1 0x0 NOT DUP3 EQ ISZERO PUSH2 0x1EDF JUMPI PUSH2 0x1EDF PUSH2 0x1EE6 JUMP JUMPDEST POP PUSH1 0x1 ADD SWAP1 JUMP JUMPDEST PUSH4 0x4E487B71 PUSH1 0xE0 SHL PUSH1 0x0 MSTORE PUSH1 0x11 PUSH1 0x4 MSTORE PUSH1 0x24 PUSH1 0x0 REVERT JUMPDEST PUSH4 0x4E487B71 PUSH1 0xE0 SHL PUSH1 0x0 MSTORE PUSH1 0x41 PUSH1 0x4 MSTORE PUSH1 0x24 PUSH1 0x0 REVERT JUMPDEST PUSH1 0x1 PUSH1 0x1 PUSH1 0xA0 SHL SUB DUP2 AND DUP2 EQ PUSH2 0x9E3 JUMPI PUSH1 0x0 DUP1 REVERT JUMPDEST DUP1 ISZERO ISZERO DUP2 EQ PUSH2 0x9E3 JUMPI PUSH1 0x0 DUP1 REVERT INVALID LOG2 PUSH5 0x6970667358 0x22 SLT KECCAK256 CALLVALUE SWAP13 INVALID 0x26 PC 0xAE 0xB5 CHAINID 0x25 0xAA 0xB9 KECCAK256 PUSH20 0x800547F729AEEA80323A37156A5D9B1379C23764 PUSH20 0x6F6C634300080500330000000000000000000000 "
				},
				"gasEstimates": {
					"creation": {
						"codeDepositCost": "1608600",
						"executionCost": "infinite",
						"totalCost": "infinite"
					},
					"external": {
						"WETH()": "2426",
						"adminReceiveFee()": "2448",
						"backToken()": "infinite",
						"buyerInfo(address)": "11126",
						"checkAdminAddress()": "2499",
						"deposit(uint256)": "infinite",
						"feeAnyone()": "2429",
						"feeCreateSale()": "2339",
						"getBalance(address)": "3094",
						"initialSaleInfor(address,address,address,uint256[7],uint256,uint256,uint256,address,uint256)": "infinite",
						"owner()": "2442",
						"ownerClaimAndRefundToken()": "infinite",
						"presaleGenator()": "2426",
						"presaleStatus()": "17307",
						"renounceOwnership()": "28162",
						"saleInfor()": "25832",
						"saleTotalSupply()": "4463",
						"status()": "4577",
						"totalFee()": "2385",
						"transferOwnership(address)": "infinite",
						"userClaimEmergency()": "infinite",
						"userClaimOrRefundWhenSaleSuccess(bool)": "infinite",
						"userFee(address)": "2536",
						"userRefundEmergency()": "infinite"
					}
				},
				"methodIdentifiers": {
					"WETH()": "ad5c4648",
					"adminReceiveFee()": "ae2b0965",
					"backToken()": "861faf5f",
					"buyerInfo(address)": "e2d3f423",
					"checkAdminAddress()": "cad5b0f7",
					"deposit(uint256)": "b6b55f25",
					"feeAnyone()": "3b5ef2ad",
					"feeCreateSale()": "d4c1dee9",
					"getBalance(address)": "f8b2cb4f",
					"initialSaleInfor(address,address,address,uint256[7],uint256,uint256,uint256,address,uint256)": "0a9c5ddb",
					"owner()": "8da5cb5b",
					"ownerClaimAndRefundToken()": "8edf18e6",
					"presaleGenator()": "8b84e714",
					"presaleStatus()": "acfb2355",
					"renounceOwnership()": "715018a6",
					"saleInfor()": "18856a2f",
					"saleTotalSupply()": "12e5d0b9",
					"status()": "200d2ed2",
					"totalFee()": "1df4ccfc",
					"transferOwnership(address)": "f2fde38b",
					"userClaimEmergency()": "ab33985a",
					"userClaimOrRefundWhenSaleSuccess(bool)": "eb002bb0",
					"userFee(address)": "56c5f349",
					"userRefundEmergency()": "95661e70"
				}
			},
			"storageLayout": {
				"storage": [
					{
						"astId": 2620,
						"contract": "Ethereum/Presale.sol:Presale",
						"label": "_status",
						"offset": 0,
						"slot": "0",
						"type": "t_uint256"
					},
					{
						"astId": 2512,
						"contract": "Ethereum/Presale.sol:Presale",
						"label": "_owner",
						"offset": 0,
						"slot": "1",
						"type": "t_address"
					},
					{
						"astId": 778,
						"contract": "Ethereum/Presale.sol:Presale",
						"label": "buyerInfo",
						"offset": 0,
						"slot": "2",
						"type": "t_mapping(t_address,t_struct(BuyerInfo)751_storage)"
					},
					{
						"astId": 782,
						"contract": "Ethereum/Presale.sol:Presale",
						"label": "userFee",
						"offset": 0,
						"slot": "3",
						"type": "t_mapping(t_address,t_uint256)"
					},
					{
						"astId": 785,
						"contract": "Ethereum/Presale.sol:Presale",
						"label": "presaleStatus",
						"offset": 0,
						"slot": "4",
						"type": "t_struct(PresaleStatus)773_storage"
					},
					{
						"astId": 788,
						"contract": "Ethereum/Presale.sol:Presale",
						"label": "saleTotalSupply",
						"offset": 0,
						"slot": "13",
						"type": "t_struct(SaleTotalSupply)740_storage"
					},
					{
						"astId": 791,
						"contract": "Ethereum/Presale.sol:Presale",
						"label": "saleInfor",
						"offset": 0,
						"slot": "15",
						"type": "t_struct(SaleInfor)735_storage"
					},
					{
						"astId": 794,
						"contract": "Ethereum/Presale.sol:Presale",
						"label": "WETH",
						"offset": 0,
						"slot": "27",
						"type": "t_contract(IERC20)663"
					},
					{
						"astId": 797,
						"contract": "Ethereum/Presale.sol:Presale",
						"label": "admins",
						"offset": 0,
						"slot": "28",
						"type": "t_struct(AddressSet)2217_storage"
					},
					{
						"astId": 799,
						"contract": "Ethereum/Presale.sol:Presale",
						"label": "totalFee",
						"offset": 0,
						"slot": "30",
						"type": "t_uint256"
					},
					{
						"astId": 801,
						"contract": "Ethereum/Presale.sol:Presale",
						"label": "feeAnyone",
						"offset": 0,
						"slot": "31",
						"type": "t_uint256"
					},
					{
						"astId": 803,
						"contract": "Ethereum/Presale.sol:Presale",
						"label": "adminReceiveFee",
						"offset": 0,
						"slot": "32",
						"type": "t_address"
					},
					{
						"astId": 805,
						"contract": "Ethereum/Presale.sol:Presale",
						"label": "feeCreateSale",
						"offset": 0,
						"slot": "33",
						"type": "t_uint256"
					},
					{
						"astId": 807,
						"contract": "Ethereum/Presale.sol:Presale",
						"label": "presaleGenator",
						"offset": 0,
						"slot": "34",
						"type": "t_address"
					}
				],
				"types": {
					"t_address": {
						"encoding": "inplace",
						"label": "address",
						"numberOfBytes": "20"
					},
					"t_address_payable": {
						"encoding": "inplace",
						"label": "address payable",
						"numberOfBytes": "20"
					},
					"t_array(t_address)dyn_storage": {
						"base": "t_address",
						"encoding": "dynamic_array",
						"label": "address[]",
						"numberOfBytes": "32"
					},
					"t_array(t_bytes32)dyn_storage": {
						"base": "t_bytes32",
						"encoding": "dynamic_array",
						"label": "bytes32[]",
						"numberOfBytes": "32"
					},
					"t_bool": {
						"encoding": "inplace",
						"label": "bool",
						"numberOfBytes": "1"
					},
					"t_bytes32": {
						"encoding": "inplace",
						"label": "bytes32",
						"numberOfBytes": "32"
					},
					"t_contract(ERC20)585": {
						"encoding": "inplace",
						"label": "contract ERC20",
						"numberOfBytes": "20"
					},
					"t_contract(IERC20)663": {
						"encoding": "inplace",
						"label": "contract IERC20",
						"numberOfBytes": "20"
					},
					"t_mapping(t_address,t_struct(BuyerInfo)751_storage)": {
						"encoding": "mapping",
						"key": "t_address",
						"label": "mapping(address => struct Presale.BuyerInfo)",
						"numberOfBytes": "32",
						"value": "t_struct(BuyerInfo)751_storage"
					},
					"t_mapping(t_address,t_uint256)": {
						"encoding": "mapping",
						"key": "t_address",
						"label": "mapping(address => uint256)",
						"numberOfBytes": "32",
						"value": "t_uint256"
					},
					"t_mapping(t_bytes32,t_uint256)": {
						"encoding": "mapping",
						"key": "t_bytes32",
						"label": "mapping(bytes32 => uint256)",
						"numberOfBytes": "32",
						"value": "t_uint256"
					},
					"t_struct(AddressSet)2217_storage": {
						"encoding": "inplace",
						"label": "struct EnumerableSet.AddressSet",
						"members": [
							{
								"astId": 2216,
								"contract": "Ethereum/Presale.sol:Presale",
								"label": "_inner",
								"offset": 0,
								"slot": "0",
								"type": "t_struct(Set)1916_storage"
							}
						],
						"numberOfBytes": "64"
					},
					"t_struct(BuyerInfo)751_storage": {
						"encoding": "inplace",
						"label": "struct Presale.BuyerInfo",
						"members": [
							{
								"astId": 742,
								"contract": "Ethereum/Presale.sol:Presale",
								"label": "baseDeposit",
								"offset": 0,
								"slot": "0",
								"type": "t_uint256"
							},
							{
								"astId": 744,
								"contract": "Ethereum/Presale.sol:Presale",
								"label": "tokenOwner",
								"offset": 0,
								"slot": "1",
								"type": "t_uint256"
							},
							{
								"astId": 746,
								"contract": "Ethereum/Presale.sol:Presale",
								"label": "lastWithDraw",
								"offset": 0,
								"slot": "2",
								"type": "t_uint256"
							},
							{
								"astId": 748,
								"contract": "Ethereum/Presale.sol:Presale",
								"label": "totalTokenWithDraw",
								"offset": 0,
								"slot": "3",
								"type": "t_uint256"
							},
							{
								"astId": 750,
								"contract": "Ethereum/Presale.sol:Presale",
								"label": "totalBaseWithDraw",
								"offset": 0,
								"slot": "4",
								"type": "t_uint256"
							}
						],
						"numberOfBytes": "160"
					},
					"t_struct(PresaleStatus)773_storage": {
						"encoding": "inplace",
						"label": "struct Presale.PresaleStatus",
						"members": [
							{
								"astId": 753,
								"contract": "Ethereum/Presale.sol:Presale",
								"label": "totalBaseCollected",
								"offset": 0,
								"slot": "0",
								"type": "t_uint256"
							},
							{
								"astId": 755,
								"contract": "Ethereum/Presale.sol:Presale",
								"label": "totalTokenSold",
								"offset": 0,
								"slot": "1",
								"type": "t_uint256"
							},
							{
								"astId": 757,
								"contract": "Ethereum/Presale.sol:Presale",
								"label": "totalTokenWithDraw",
								"offset": 0,
								"slot": "2",
								"type": "t_uint256"
							},
							{
								"astId": 759,
								"contract": "Ethereum/Presale.sol:Presale",
								"label": "totalBaseWithDraw",
								"offset": 0,
								"slot": "3",
								"type": "t_uint256"
							},
							{
								"astId": 761,
								"contract": "Ethereum/Presale.sol:Presale",
								"label": "totalTokenBackForAdmin",
								"offset": 0,
								"slot": "4",
								"type": "t_uint256"
							},
							{
								"astId": 763,
								"contract": "Ethereum/Presale.sol:Presale",
								"label": "totalBaseBackForAdmin",
								"offset": 0,
								"slot": "5",
								"type": "t_uint256"
							},
							{
								"astId": 765,
								"contract": "Ethereum/Presale.sol:Presale",
								"label": "numberBuyer",
								"offset": 0,
								"slot": "6",
								"type": "t_uint256"
							},
							{
								"astId": 767,
								"contract": "Ethereum/Presale.sol:Presale",
								"label": "isOwnerClaimSaleToken",
								"offset": 0,
								"slot": "7",
								"type": "t_bool"
							},
							{
								"astId": 769,
								"contract": "Ethereum/Presale.sol:Presale",
								"label": "isOwnerRefundBaseToken",
								"offset": 1,
								"slot": "7",
								"type": "t_bool"
							},
							{
								"astId": 772,
								"contract": "Ethereum/Presale.sol:Presale",
								"label": "admin",
								"offset": 0,
								"slot": "8",
								"type": "t_array(t_address)dyn_storage"
							}
						],
						"numberOfBytes": "288"
					},
					"t_struct(SaleInfor)735_storage": {
						"encoding": "inplace",
						"label": "struct Presale.SaleInfor",
						"members": [
							{
								"astId": 710,
								"contract": "Ethereum/Presale.sol:Presale",
								"label": "presaleOwner",
								"offset": 0,
								"slot": "0",
								"type": "t_address_payable"
							},
							{
								"astId": 713,
								"contract": "Ethereum/Presale.sol:Presale",
								"label": "saleToken",
								"offset": 0,
								"slot": "1",
								"type": "t_contract(ERC20)585"
							},
							{
								"astId": 716,
								"contract": "Ethereum/Presale.sol:Presale",
								"label": "baseToken",
								"offset": 0,
								"slot": "2",
								"type": "t_contract(ERC20)585"
							},
							{
								"astId": 718,
								"contract": "Ethereum/Presale.sol:Presale",
								"label": "tokenPrice",
								"offset": 0,
								"slot": "3",
								"type": "t_uint256"
							},
							{
								"astId": 720,
								"contract": "Ethereum/Presale.sol:Presale",
								"label": "startSale",
								"offset": 0,
								"slot": "4",
								"type": "t_uint256"
							},
							{
								"astId": 722,
								"contract": "Ethereum/Presale.sol:Presale",
								"label": "endSale",
								"offset": 0,
								"slot": "5",
								"type": "t_uint256"
							},
							{
								"astId": 724,
								"contract": "Ethereum/Presale.sol:Presale",
								"label": "minSpendPerBuyer",
								"offset": 0,
								"slot": "6",
								"type": "t_uint256"
							},
							{
								"astId": 726,
								"contract": "Ethereum/Presale.sol:Presale",
								"label": "maxSpendPerBuyer",
								"offset": 0,
								"slot": "7",
								"type": "t_uint256"
							},
							{
								"astId": 728,
								"contract": "Ethereum/Presale.sol:Presale",
								"label": "refundFee",
								"offset": 0,
								"slot": "8",
								"type": "t_uint256"
							},
							{
								"astId": 730,
								"contract": "Ethereum/Presale.sol:Presale",
								"label": "claimFee",
								"offset": 0,
								"slot": "9",
								"type": "t_uint256"
							},
							{
								"astId": 732,
								"contract": "Ethereum/Presale.sol:Presale",
								"label": "saleIsBaseToken",
								"offset": 0,
								"slot": "10",
								"type": "t_bool"
							},
							{
								"astId": 734,
								"contract": "Ethereum/Presale.sol:Presale",
								"label": "amountTokenForSale",
								"offset": 0,
								"slot": "11",
								"type": "t_uint256"
							}
						],
						"numberOfBytes": "384"
					},
					"t_struct(SaleTotalSupply)740_storage": {
						"encoding": "inplace",
						"label": "struct Presale.SaleTotalSupply",
						"members": [
							{
								"astId": 737,
								"contract": "Ethereum/Presale.sol:Presale",
								"label": "hardCap",
								"offset": 0,
								"slot": "0",
								"type": "t_uint256"
							},
							{
								"astId": 739,
								"contract": "Ethereum/Presale.sol:Presale",
								"label": "softCap",
								"offset": 0,
								"slot": "1",
								"type": "t_uint256"
							}
						],
						"numberOfBytes": "64"
					},
					"t_struct(Set)1916_storage": {
						"encoding": "inplace",
						"label": "struct EnumerableSet.Set",
						"members": [
							{
								"astId": 1911,
								"contract": "Ethereum/Presale.sol:Presale",
								"label": "_values",
								"offset": 0,
								"slot": "0",
								"type": "t_array(t_bytes32)dyn_storage"
							},
							{
								"astId": 1915,
								"contract": "Ethereum/Presale.sol:Presale",
								"label": "_indexes",
								"offset": 0,
								"slot": "1",
								"type": "t_mapping(t_bytes32,t_uint256)"
							}
						],
						"numberOfBytes": "64"
					},
					"t_uint256": {
						"encoding": "inplace",
						"label": "uint256",
						"numberOfBytes": "32"
					}
				}
			},
			"userdoc": {
				"kind": "user",
				"methods": {},
				"version": 1
			}
		}
	}
}