{
	"Ethereum/Presale.sol": {
		"Presale": {
			"abi": [
				{
					"inputs": [],
					"stateMutability": "payable",
					"type": "constructor"
				},
				{
					"anonymous": false,
					"inputs": [
						{
							"indexed": true,
							"internalType": "address",
							"name": "previousOwner",
							"type": "address"
						},
						{
							"indexed": true,
							"internalType": "address",
							"name": "newOwner",
							"type": "address"
						}
					],
					"name": "OwnershipTransferred",
					"type": "event"
				},
				{
					"inputs": [],
					"name": "WETH",
					"outputs": [
						{
							"internalType": "contract IERC20",
							"name": "",
							"type": "address"
						}
					],
					"stateMutability": "view",
					"type": "function"
				},
				{
					"inputs": [],
					"name": "backToken",
					"outputs": [],
					"stateMutability": "payable",
					"type": "function"
				},
				{
					"inputs": [
						{
							"internalType": "address",
							"name": "",
							"type": "address"
						}
					],
					"name": "buyerInfo",
					"outputs": [
						{
							"internalType": "uint256",
							"name": "baseDeposit",
							"type": "uint256"
						},
						{
							"internalType": "uint256",
							"name": "tokenOwner",
							"type": "uint256"
						},
						{
							"internalType": "uint256",
							"name": "lastWithDraw",
							"type": "uint256"
						},
						{
							"internalType": "uint256",
							"name": "totalTokenWithDraw",
							"type": "uint256"
						}
					],
					"stateMutability": "view",
					"type": "function"
				},
				{
					"inputs": [],
					"name": "checkAdminAddress",
					"outputs": [
						{
							"internalType": "bool",
							"name": "",
							"type": "bool"
						}
					],
					"stateMutability": "view",
					"type": "function"
				},
				{
					"inputs": [
						{
							"internalType": "uint256",
							"name": "_amount",
							"type": "uint256"
						}
					],
					"name": "deposit",
					"outputs": [],
					"stateMutability": "payable",
					"type": "function"
				},
				{
					"inputs": [],
					"name": "feeAnyone",
					"outputs": [
						{
							"internalType": "uint256",
							"name": "",
							"type": "uint256"
						}
					],
					"stateMutability": "view",
					"type": "function"
				},
				{
					"inputs": [
						{
							"internalType": "address",
							"name": "_address",
							"type": "address"
						}
					],
					"name": "getBalance",
					"outputs": [
						{
							"internalType": "uint256",
							"name": "",
							"type": "uint256"
						}
					],
					"stateMutability": "view",
					"type": "function"
				},
				{
					"inputs": [
						{
							"internalType": "address payable",
							"name": "_presaleOwner",
							"type": "address"
						},
						{
							"internalType": "contract ERC20",
							"name": "_saleToken",
							"type": "address"
						},
						{
							"internalType": "contract ERC20",
							"name": "_baseTOken",
							"type": "address"
						},
						{
							"internalType": "uint256[9]",
							"name": "datas",
							"type": "uint256[9]"
						}
					],
					"name": "initialSaleInfor",
					"outputs": [],
					"stateMutability": "nonpayable",
					"type": "function"
				},
				{
					"inputs": [],
					"name": "owner",
					"outputs": [
						{
							"internalType": "address",
							"name": "",
							"type": "address"
						}
					],
					"stateMutability": "view",
					"type": "function"
				},
				{
					"inputs": [],
					"name": "presaleStatus",
					"outputs": [
						{
							"internalType": "uint256",
							"name": "totalBaseCollected",
							"type": "uint256"
						},
						{
							"internalType": "uint256",
							"name": "totalTokenSold",
							"type": "uint256"
						},
						{
							"internalType": "uint256",
							"name": "totalTokenWithDraw",
							"type": "uint256"
						},
						{
							"internalType": "uint256",
							"name": "totalBaseWithDraw",
							"type": "uint256"
						},
						{
							"internalType": "uint256",
							"name": "numberBuyer",
							"type": "uint256"
						},
						{
							"internalType": "uint256",
							"name": "totalFee",
							"type": "uint256"
						}
					],
					"stateMutability": "view",
					"type": "function"
				},
				{
					"inputs": [],
					"name": "renounceOwnership",
					"outputs": [],
					"stateMutability": "nonpayable",
					"type": "function"
				},
				{
					"inputs": [],
					"name": "saleInfor",
					"outputs": [
						{
							"internalType": "address payable",
							"name": "presaleOwner",
							"type": "address"
						},
						{
							"internalType": "contract ERC20",
							"name": "saleToken",
							"type": "address"
						},
						{
							"internalType": "contract ERC20",
							"name": "baseToken",
							"type": "address"
						},
						{
							"internalType": "uint256",
							"name": "tokenPrice",
							"type": "uint256"
						},
						{
							"internalType": "uint256",
							"name": "startSale",
							"type": "uint256"
						},
						{
							"internalType": "uint256",
							"name": "endSale",
							"type": "uint256"
						},
						{
							"internalType": "uint256",
							"name": "minSpendPerBuyer",
							"type": "uint256"
						},
						{
							"internalType": "uint256",
							"name": "maxSpendPerBuyer",
							"type": "uint256"
						},
						{
							"internalType": "uint256",
							"name": "refundFee",
							"type": "uint256"
						},
						{
							"internalType": "uint256",
							"name": "claimFee",
							"type": "uint256"
						},
						{
							"internalType": "bool",
							"name": "saleIsBaseToken",
							"type": "bool"
						},
						{
							"internalType": "uint256",
							"name": "amountTokenForSale",
							"type": "uint256"
						}
					],
					"stateMutability": "view",
					"type": "function"
				},
				{
					"inputs": [],
					"name": "saleTotalSupply",
					"outputs": [
						{
							"internalType": "uint256",
							"name": "hardCap",
							"type": "uint256"
						},
						{
							"internalType": "uint256",
							"name": "softCap",
							"type": "uint256"
						}
					],
					"stateMutability": "view",
					"type": "function"
				},
				{
					"inputs": [],
					"name": "status",
					"outputs": [
						{
							"internalType": "uint256",
							"name": "",
							"type": "uint256"
						}
					],
					"stateMutability": "view",
					"type": "function"
				},
				{
					"inputs": [],
					"name": "totalFee",
					"outputs": [
						{
							"internalType": "uint256",
							"name": "",
							"type": "uint256"
						}
					],
					"stateMutability": "view",
					"type": "function"
				},
				{
					"inputs": [
						{
							"internalType": "address",
							"name": "newOwner",
							"type": "address"
						}
					],
					"name": "transferOwnership",
					"outputs": [],
					"stateMutability": "nonpayable",
					"type": "function"
				},
				{
					"inputs": [],
					"name": "userClaimEmergency",
					"outputs": [],
					"stateMutability": "nonpayable",
					"type": "function"
				},
				{
					"inputs": [
						{
							"internalType": "address",
							"name": "",
							"type": "address"
						}
					],
					"name": "userFee",
					"outputs": [
						{
							"internalType": "uint256",
							"name": "",
							"type": "uint256"
						}
					],
					"stateMutability": "view",
					"type": "function"
				},
				{
					"inputs": [],
					"name": "userRefundEmergency",
					"outputs": [],
					"stateMutability": "nonpayable",
					"type": "function"
				}
			],
			"devdoc": {
				"kind": "dev",
				"methods": {
					"owner()": {
						"details": "Returns the address of the current owner."
					},
					"renounceOwnership()": {
						"details": "Leaves the contract without owner. It will not be possible to call `onlyOwner` functions anymore. Can only be called by the current owner. NOTE: Renouncing ownership will leave the contract without an owner, thereby removing any functionality that is only available to the owner."
					},
					"transferOwnership(address)": {
						"details": "Transfers ownership of the contract to a new account (`newOwner`). Can only be called by the current owner."
					}
				},
				"version": 1
			},
			"evm": {
				"assembly": "    /* \"Ethereum/Presale.sol\":370:7851  contract Presale is ReentrancyGuard, Ownable{\r... */\n  mstore(0x40, 0x80)\n    /* \"Utils/ReentrancyGuard.sol\":1734:1735  1 */\n  0x01\n    /* \"Utils/ReentrancyGuard.sol\":1845:1852  _status */\n  0x00\n    /* \"Utils/ReentrancyGuard.sol\":1845:1867  _status = _NOT_ENTERED */\n  sstore\n    /* \"Utils/Ownable.sol\":942:974  _transferOwnership(_msgSender()) */\n  tag_6\n    /* \"Utils/Context.sol\":736:746  msg.sender */\n  caller\n    /* \"Utils/Ownable.sol\":942:960  _transferOwnership */\n  tag_9\n    /* \"Utils/Ownable.sol\":942:974  _transferOwnership(_msgSender()) */\n  jump\t// in\ntag_6:\n    /* \"Ethereum/Presale.sol\":2062:2066  WETH */\n  0x19\n    /* \"Ethereum/Presale.sol\":2062:2118  WETH = ERC20(0xc778417E063141139Fce010982780140Aa0cD5Ab) */\n  dup1\n  sload\n    /* \"Ethereum/Presale.sol\":2075:2117  0xc778417E063141139Fce010982780140Aa0cD5Ab */\n  0xc778417e063141139fce010982780140aa0cd5ab\n  not(sub(shl(0xa0, 0x01), 0x01))\n    /* \"Ethereum/Presale.sol\":2062:2118  WETH = ERC20(0xc778417E063141139Fce010982780140Aa0cD5Ab) */\n  swap1\n  swap2\n  and\n  or\n  swap1\n  sstore\n    /* \"Ethereum/Presale.sol\":2129:2183  admins.add(0x6Ccb41eedA5a073076F3E7dC1614C185b5fA41eD) */\n  tag_11\n    /* \"Ethereum/Presale.sol\":2129:2135  admins */\n  0x1b\n    /* \"Ethereum/Presale.sol\":2140:2182  0x6Ccb41eedA5a073076F3E7dC1614C185b5fA41eD */\n  0x6ccb41eeda5a073076f3e7dc1614c185b5fa41ed\n    /* \"Ethereum/Presale.sol\":2129:2139  admins.add */\n  tag_12\n  0x20\n  swap1\n  dup2\n  shl\n  tag_0_108\n  or\n    /* \"Ethereum/Presale.sol\":2129:2183  admins.add(0x6Ccb41eedA5a073076F3E7dC1614C185b5fA41eD) */\n  swap1\n  shr\n  jump\t// in\ntag_11:\n  pop\n    /* \"Ethereum/Presale.sol\":2194:2248  admins.add(0x4f0B12bBF40Fc182559822A5b1dB6D34dbC3E016) */\n  tag_13\n    /* \"Ethereum/Presale.sol\":2205:2247  0x4f0B12bBF40Fc182559822A5b1dB6D34dbC3E016 */\n  0x4f0b12bbf40fc182559822a5b1db6d34dbc3e016\n    /* \"Ethereum/Presale.sol\":2194:2200  admins */\n  0x1b\n    /* \"Ethereum/Presale.sol\":2194:2204  admins.add */\n  or(tag_0_108, shl(0x20, tag_12))\n  swap1\n    /* \"Ethereum/Presale.sol\":2194:2248  admins.add(0x4f0B12bBF40Fc182559822A5b1dB6D34dbC3E016) */\n  swap2\n  swap1\n  0x20\n  shr\n  jump\t// in\ntag_13:\n  pop\n    /* \"Ethereum/Presale.sol\":2271:2273  20 */\n  0x14\n    /* \"Ethereum/Presale.sol\":2259:2268  feeAnyone */\n  0x1a\n    /* \"Ethereum/Presale.sol\":2259:2273  feeAnyone = 20 */\n  sstore\n    /* \"Ethereum/Presale.sol\":370:7851  contract Presale is ReentrancyGuard, Ownable{\r... */\n  jump(tag_14)\n    /* \"Utils/Ownable.sol\":2333:2524  function _transferOwnership(address newOwner) internal virtual {\r... */\ntag_9:\n    /* \"Utils/Ownable.sol\":2426:2432  _owner */\n  0x01\n  dup1\n  sload\n  sub(shl(0xa0, 0x01), 0x01)\n    /* \"Utils/Ownable.sol\":2443:2460  _owner = newOwner */\n  dup4\n  dup2\n  and\n  not(sub(shl(0xa0, 0x01), 0x01))\n  dup4\n  and\n  dup2\n  or\n  swap1\n  swap4\n  sstore\n    /* \"Utils/Ownable.sol\":2476:2516  OwnershipTransferred(oldOwner, newOwner) */\n  mload(0x40)\n    /* \"Utils/Ownable.sol\":2426:2432  _owner */\n  swap2\n  and\n  swap2\n    /* \"Utils/Ownable.sol\":2443:2460  _owner = newOwner */\n  swap1\n    /* \"Utils/Ownable.sol\":2426:2432  _owner */\n  dup3\n  swap1\n    /* \"Utils/Ownable.sol\":2476:2516  OwnershipTransferred(oldOwner, newOwner) */\n  0x8be0079c531659141344cd1fd0a4f28419497f9722a3daafe3b4186f6b6457e0\n  swap1\n    /* \"Utils/Ownable.sol\":2407:2423  address oldOwner */\n  0x00\n  swap1\n    /* \"Utils/Ownable.sol\":2476:2516  OwnershipTransferred(oldOwner, newOwner) */\n  log3\n    /* \"Utils/Ownable.sol\":2396:2524  {\r... */\n  pop\n    /* \"Utils/Ownable.sol\":2333:2524  function _transferOwnership(address newOwner) internal virtual {\r... */\n  pop\n  jump\t// out\n    /* \"Utils/EnumerableSet.sol\":8259:8411  function add(AddressSet storage set, address value) internal returns (bool) {\r... */\ntag_12:\n    /* \"Utils/EnumerableSet.sol\":8329:8333  bool */\n  0x00\n    /* \"Utils/EnumerableSet.sol\":8353:8403  _add(set._inner, bytes32(uint256(uint160(value)))) */\n  tag_18\n    /* \"Utils/EnumerableSet.sol\":8358:8361  set */\n  dup4\n  sub(shl(0xa0, 0x01), 0x01)\n    /* \"Utils/EnumerableSet.sol\":8378:8401  uint256(uint160(value)) */\n  dup5\n  and\n    /* \"Utils/EnumerableSet.sol\":8353:8357  _add */\n  tag_19\n    /* \"Utils/EnumerableSet.sol\":8353:8403  _add(set._inner, bytes32(uint256(uint160(value)))) */\n  jump\t// in\ntag_18:\n    /* \"Utils/EnumerableSet.sol\":8346:8403  return _add(set._inner, bytes32(uint256(uint160(value)))) */\n  swap1\n  pop\n    /* \"Utils/EnumerableSet.sol\":8259:8411  function add(AddressSet storage set, address value) internal returns (bool) {\r... */\ntag_17:\n  swap3\n  swap2\n  pop\n  pop\n  jump\t// out\n    /* \"Utils/EnumerableSet.sol\":2174:2588  function _add(Set storage set, bytes32 value) private returns (bool) {\r... */\ntag_19:\n    /* \"Utils/EnumerableSet.sol\":2237:2241  bool */\n  0x00\n    /* \"Utils/EnumerableSet.sol\":4367:4386  set._indexes[value] */\n  dup2\n  dup2\n  mstore\n    /* \"Utils/EnumerableSet.sol\":4367:4379  set._indexes */\n  0x01\n  dup4\n  add\n    /* \"Utils/EnumerableSet.sol\":4367:4386  set._indexes[value] */\n  0x20\n  mstore\n  0x40\n  dup2\n  keccak256\n  sload\n    /* \"Utils/EnumerableSet.sol\":2254:2581  if (!_contains(set, value)) {\r... */\n  tag_23\n  jumpi\n  pop\n    /* \"Utils/EnumerableSet.sol\":2297:2320  set._values.push(value) */\n  dup2\n  sload\n  0x01\n  dup2\n  dup2\n  add\n  dup5\n  sstore\n    /* \"Utils/EnumerableSet.sol\":2297:2308  set._values */\n  0x00\n    /* \"Utils/EnumerableSet.sol\":2297:2320  set._values.push(value) */\n  dup5\n  dup2\n  mstore\n  0x20\n  dup1\n  dup3\n  keccak256\n  swap1\n  swap4\n  add\n  dup5\n  swap1\n  sstore\n    /* \"Utils/EnumerableSet.sol\":2480:2498  set._values.length */\n  dup5\n  sload\n    /* \"Utils/EnumerableSet.sol\":2458:2477  set._indexes[value] */\n  dup5\n  dup3\n  mstore\n    /* \"Utils/EnumerableSet.sol\":2458:2470  set._indexes */\n  dup3\n  dup7\n  add\n    /* \"Utils/EnumerableSet.sol\":2458:2477  set._indexes[value] */\n  swap1\n  swap4\n  mstore\n  0x40\n  swap1\n  keccak256\n    /* \"Utils/EnumerableSet.sol\":2458:2498  set._indexes[value] = set._values.length */\n  swap2\n  swap1\n  swap2\n  sstore\n    /* \"Utils/EnumerableSet.sol\":2513:2524  return true */\n  jump(tag_17)\n    /* \"Utils/EnumerableSet.sol\":2254:2581  if (!_contains(set, value)) {\r... */\ntag_23:\n  pop\n    /* \"Utils/EnumerableSet.sol\":2564:2569  false */\n  0x00\n    /* \"Utils/EnumerableSet.sol\":2557:2569  return false */\n  jump(tag_17)\n    /* \"Ethereum/Presale.sol\":370:7851  contract Presale is ReentrancyGuard, Ownable{\r... */\ntag_14:\n  dataSize(sub_0)\n  dup1\n  dataOffset(sub_0)\n  0x00\n  codecopy\n  0x00\n  return\nstop\n\nsub_0: assembly {\n        /* \"Ethereum/Presale.sol\":370:7851  contract Presale is ReentrancyGuard, Ownable{\r... */\n      mstore(0x40, 0x80)\n      jumpi(tag_1, lt(calldatasize, 0x04))\n      shr(0xe0, calldataload(0x00))\n      dup1\n      0x8f1eae4c\n      gt\n      tag_21\n      jumpi\n      dup1\n      0xb6b55f25\n      gt\n      tag_22\n      jumpi\n      dup1\n      0xb6b55f25\n      eq\n      tag_16\n      jumpi\n      dup1\n      0xcad5b0f7\n      eq\n      tag_17\n      jumpi\n      dup1\n      0xe2d3f423\n      eq\n      tag_18\n      jumpi\n      dup1\n      0xf2fde38b\n      eq\n      tag_19\n      jumpi\n      dup1\n      0xf8b2cb4f\n      eq\n      tag_20\n      jumpi\n      0x00\n      dup1\n      revert\n    tag_22:\n      dup1\n      0x8f1eae4c\n      eq\n      tag_11\n      jumpi\n      dup1\n      0x95661e70\n      eq\n      tag_12\n      jumpi\n      dup1\n      0xab33985a\n      eq\n      tag_13\n      jumpi\n      dup1\n      0xacfb2355\n      eq\n      tag_14\n      jumpi\n      dup1\n      0xad5c4648\n      eq\n      tag_15\n      jumpi\n      0x00\n      dup1\n      revert\n    tag_21:\n      dup1\n      0x3b5ef2ad\n      gt\n      tag_23\n      jumpi\n      dup1\n      0x3b5ef2ad\n      eq\n      tag_6\n      jumpi\n      dup1\n      0x56c5f349\n      eq\n      tag_7\n      jumpi\n      dup1\n      0x715018a6\n      eq\n      tag_8\n      jumpi\n      dup1\n      0x861faf5f\n      eq\n      tag_9\n      jumpi\n      dup1\n      0x8da5cb5b\n      eq\n      tag_10\n      jumpi\n      0x00\n      dup1\n      revert\n    tag_23:\n      dup1\n      0x12e5d0b9\n      eq\n      tag_2\n      jumpi\n      dup1\n      0x18856a2f\n      eq\n      tag_3\n      jumpi\n      dup1\n      0x1df4ccfc\n      eq\n      tag_4\n      jumpi\n      dup1\n      0x200d2ed2\n      eq\n      tag_5\n      jumpi\n    tag_1:\n      0x00\n      dup1\n      revert\n        /* \"Ethereum/Presale.sol\":1576:1614  SaleTotalSupply public saleTotalSupply */\n    tag_2:\n      callvalue\n      dup1\n      iszero\n      tag_24\n      jumpi\n      0x00\n      dup1\n      revert\n    tag_24:\n      pop\n      sload(0x0b)\n      sload(0x0c)\n      tag_25\n      swap2\n      swap1\n      dup3\n      jump\n    tag_25:\n      0x40\n      dup1\n      mload\n        /* \"#utility.yul\":9761:9786   */\n      swap3\n      dup4\n      mstore\n        /* \"#utility.yul\":9817:9819   */\n      0x20\n        /* \"#utility.yul\":9802:9820   */\n      dup4\n      add\n        /* \"#utility.yul\":9795:9829   */\n      swap2\n      swap1\n      swap2\n      mstore\n        /* \"#utility.yul\":9734:9752   */\n      add\n        /* \"Ethereum/Presale.sol\":1576:1614  SaleTotalSupply public saleTotalSupply */\n    tag_27:\n      mload(0x40)\n      dup1\n      swap2\n      sub\n      swap1\n      return\n        /* \"Ethereum/Presale.sol\":1621:1647  SaleInfor public saleInfor */\n    tag_3:\n      callvalue\n      dup1\n      iszero\n      tag_29\n      jumpi\n      0x00\n      dup1\n      revert\n    tag_29:\n      pop\n      sload(0x0d)\n      sload(0x0e)\n      sload(0x0f)\n      sload(0x10)\n      sload(0x11)\n      sload(0x12)\n      sload(0x13)\n      sload(0x14)\n      sload(0x15)\n      sload(0x16)\n      sload(0x17)\n      sload(0x18)\n      tag_30\n      swap12\n      sub(shl(0xa0, 0x01), 0x01)\n      swap1\n      dup2\n      and\n      swap12\n      dup2\n      and\n      swap11\n      and\n      swap9\n      swap8\n      swap7\n      swap6\n      swap5\n      swap4\n      swap3\n      swap2\n      0xff\n      and\n      swap1\n      dup13\n      jump\n    tag_30:\n      0x40\n      dup1\n      mload\n      sub(shl(0xa0, 0x01), 0x01)\n        /* \"#utility.yul\":3376:3391   */\n      swap14\n      dup15\n      and\n        /* \"#utility.yul\":3358:3392   */\n      dup2\n      mstore\n        /* \"#utility.yul\":3428:3443   */\n      swap12\n      dup14\n      and\n        /* \"#utility.yul\":3423:3425   */\n      0x20\n        /* \"#utility.yul\":3408:3426   */\n      dup14\n      add\n        /* \"#utility.yul\":3401:3444   */\n      mstore\n        /* \"#utility.yul\":3480:3495   */\n      swap10\n      swap1\n      swap12\n      and\n        /* \"#utility.yul\":3460:3478   */\n      swap9\n      dup11\n      add\n        /* \"#utility.yul\":3453:3496   */\n      swap9\n      swap1\n      swap9\n      mstore\n        /* \"#utility.yul\":3527:3529   */\n      0x60\n        /* \"#utility.yul\":3512:3530   */\n      dup10\n      add\n        /* \"#utility.yul\":3505:3539   */\n      swap7\n      swap1\n      swap7\n      mstore\n        /* \"#utility.yul\":3570:3573   */\n      0x80\n        /* \"#utility.yul\":3555:3574   */\n      dup9\n      add\n        /* \"#utility.yul\":3548:3583   */\n      swap5\n      swap1\n      swap5\n      mstore\n        /* \"#utility.yul\":3338:3341   */\n      0xa0\n        /* \"#utility.yul\":3599:3618   */\n      dup8\n      add\n        /* \"#utility.yul\":3592:3627   */\n      swap3\n      swap1\n      swap3\n      mstore\n        /* \"#utility.yul\":3658:3661   */\n      0xc0\n        /* \"#utility.yul\":3643:3662   */\n      dup7\n      add\n        /* \"#utility.yul\":3636:3671   */\n      mstore\n        /* \"#utility.yul\":3702:3705   */\n      0xe0\n        /* \"#utility.yul\":3687:3706   */\n      dup6\n      add\n        /* \"#utility.yul\":3680:3715   */\n      mstore\n        /* \"#utility.yul\":3746:3749   */\n      0x0100\n        /* \"#utility.yul\":3731:3750   */\n      dup5\n      add\n        /* \"#utility.yul\":3724:3759   */\n      mstore\n        /* \"#utility.yul\":3790:3793   */\n      0x0120\n        /* \"#utility.yul\":3775:3794   */\n      dup4\n      add\n        /* \"#utility.yul\":3768:3803   */\n      mstore\n        /* \"#utility.yul\":3847:3862   */\n      iszero\n        /* \"#utility.yul\":3840:3863   */\n      iszero\n        /* \"#utility.yul\":3834:3837   */\n      0x0140\n        /* \"#utility.yul\":3819:3838   */\n      dup3\n      add\n        /* \"#utility.yul\":3812:3864   */\n      mstore\n        /* \"#utility.yul\":3895:3898   */\n      0x0160\n        /* \"#utility.yul\":3880:3899   */\n      dup2\n      add\n        /* \"#utility.yul\":3873:3909   */\n      swap2\n      swap1\n      swap2\n      mstore\n        /* \"#utility.yul\":3307:3310   */\n      0x0180\n        /* \"#utility.yul\":3292:3311   */\n      add\n        /* \"Ethereum/Presale.sol\":1621:1647  SaleInfor public saleInfor */\n      tag_27\n        /* \"#utility.yul\":3274:3915   */\n      jump\n        /* \"Ethereum/Presale.sol\":1757:1780  uint256 public totalFee */\n    tag_4:\n      callvalue\n      dup1\n      iszero\n      tag_34\n      jumpi\n      0x00\n      dup1\n      revert\n    tag_34:\n      pop\n      tag_35\n      sload(0x1d)\n      dup2\n      jump\n    tag_35:\n      mload(0x40)\n        /* \"#utility.yul\":9551:9576   */\n      swap1\n      dup2\n      mstore\n        /* \"#utility.yul\":9539:9541   */\n      0x20\n        /* \"#utility.yul\":9524:9542   */\n      add\n        /* \"Ethereum/Presale.sol\":1757:1780  uint256 public totalFee */\n      tag_27\n        /* \"#utility.yul\":9506:9582   */\n      jump\n        /* \"Ethereum/Presale.sol\":3488:3825  function status() public view returns(uint256) {\r... */\n    tag_5:\n      callvalue\n      dup1\n      iszero\n      tag_39\n      jumpi\n      0x00\n      dup1\n      revert\n    tag_39:\n      pop\n      tag_35\n      tag_41\n      jump\t// in\n        /* \"Ethereum/Presale.sol\":1679:1703  uint256 public feeAnyone */\n    tag_6:\n      callvalue\n      dup1\n      iszero\n      tag_43\n      jumpi\n      0x00\n      dup1\n      revert\n    tag_43:\n      pop\n      tag_35\n      sload(0x1a)\n      dup2\n      jump\n        /* \"Ethereum/Presale.sol\":1486:1528  mapping(address => uint256) public userFee */\n    tag_7:\n      callvalue\n      dup1\n      iszero\n      tag_47\n      jumpi\n      0x00\n      dup1\n      revert\n    tag_47:\n      pop\n      tag_35\n      tag_49\n      calldatasize\n      0x04\n      tag_50\n      jump\t// in\n    tag_49:\n      mstore(0x20, 0x03)\n      0x00\n      swap1\n      dup2\n      mstore\n      0x40\n      swap1\n      keccak256\n      sload\n      dup2\n      jump\n        /* \"Utils/Ownable.sol\":1714:1817  function renounceOwnership() public virtual onlyOwner {\r... */\n    tag_8:\n      callvalue\n      dup1\n      iszero\n      tag_53\n      jumpi\n      0x00\n      dup1\n      revert\n    tag_53:\n      pop\n      tag_54\n      tag_55\n      jump\t// in\n    tag_54:\n      stop\n        /* \"Ethereum/Presale.sol\":7740:7848  function backToken() external payable {\r... */\n    tag_9:\n      tag_54\n      tag_57\n      jump\t// in\n        /* \"Utils/Ownable.sol\":1063:1150  function owner() public view virtual returns (address) {\r... */\n    tag_10:\n      callvalue\n      dup1\n      iszero\n      tag_58\n      jumpi\n      0x00\n      dup1\n      revert\n    tag_58:\n      pop\n        /* \"Utils/Ownable.sol\":1136:1142  _owner */\n      and(sub(shl(0xa0, 0x01), 0x01), sload(0x01))\n        /* \"Utils/Ownable.sol\":1063:1150  function owner() public view virtual returns (address) {\r... */\n    tag_59:\n      mload(0x40)\n      sub(shl(0xa0, 0x01), 0x01)\n        /* \"#utility.yul\":2783:2815   */\n      swap1\n      swap2\n      and\n        /* \"#utility.yul\":2765:2816   */\n      dup2\n      mstore\n        /* \"#utility.yul\":2753:2755   */\n      0x20\n        /* \"#utility.yul\":2738:2756   */\n      add\n        /* \"Utils/Ownable.sol\":1063:1150  function owner() public view virtual returns (address) {\r... */\n      tag_27\n        /* \"#utility.yul\":2720:2822   */\n      jump\n        /* \"Ethereum/Presale.sol\":2289:3479  function initialSaleInfor(\r... */\n    tag_11:\n      callvalue\n      dup1\n      iszero\n      tag_63\n      jumpi\n      0x00\n      dup1\n      revert\n    tag_63:\n      pop\n      tag_54\n      tag_65\n      calldatasize\n      0x04\n      tag_66\n      jump\t// in\n    tag_65:\n      tag_67\n      jump\t// in\n        /* \"Ethereum/Presale.sol\":6969:7610  function userRefundEmergency() external nonReentrant {\r... */\n    tag_12:\n      callvalue\n      dup1\n      iszero\n      tag_68\n      jumpi\n      0x00\n      dup1\n      revert\n    tag_68:\n      pop\n      tag_54\n      tag_70\n      jump\t// in\n        /* \"Ethereum/Presale.sol\":6086:6961  function userClaimEmergency() external nonReentrant {\r... */\n    tag_13:\n      callvalue\n      dup1\n      iszero\n      tag_71\n      jumpi\n      0x00\n      dup1\n      revert\n    tag_71:\n      pop\n      tag_54\n      tag_73\n      jump\t// in\n        /* \"Ethereum/Presale.sol\":1535:1569  PresaleStatus public presaleStatus */\n    tag_14:\n      callvalue\n      dup1\n      iszero\n      tag_74\n      jumpi\n      0x00\n      dup1\n      revert\n    tag_74:\n      pop\n      sload(0x04)\n      sload(0x05)\n      sload(0x06)\n      sload(0x07)\n      sload(0x08)\n      sload(0x09)\n      tag_75\n      swap6\n      swap5\n      swap4\n      swap3\n      swap2\n      swap1\n      dup7\n      jump\n    tag_75:\n      0x40\n      dup1\n      mload\n        /* \"#utility.yul\":10523:10548   */\n      swap7\n      dup8\n      mstore\n        /* \"#utility.yul\":10579:10581   */\n      0x20\n        /* \"#utility.yul\":10564:10582   */\n      dup8\n      add\n        /* \"#utility.yul\":10557:10591   */\n      swap6\n      swap1\n      swap6\n      mstore\n        /* \"#utility.yul\":10607:10625   */\n      swap4\n      dup6\n      add\n        /* \"#utility.yul\":10600:10634   */\n      swap3\n      swap1\n      swap3\n      mstore\n        /* \"#utility.yul\":10665:10667   */\n      0x60\n        /* \"#utility.yul\":10650:10668   */\n      dup5\n      add\n        /* \"#utility.yul\":10643:10677   */\n      mstore\n        /* \"#utility.yul\":10708:10711   */\n      0x80\n        /* \"#utility.yul\":10693:10712   */\n      dup4\n      add\n        /* \"#utility.yul\":10686:10721   */\n      mstore\n        /* \"#utility.yul\":10752:10755   */\n      0xa0\n        /* \"#utility.yul\":10737:10756   */\n      dup3\n      add\n        /* \"#utility.yul\":10730:10765   */\n      mstore\n        /* \"#utility.yul\":10510:10513   */\n      0xc0\n        /* \"#utility.yul\":10495:10514   */\n      add\n        /* \"Ethereum/Presale.sol\":1535:1569  PresaleStatus public presaleStatus */\n      tag_27\n        /* \"#utility.yul\":10477:10771   */\n      jump\n        /* \"Ethereum/Presale.sol\":1654:1672  IERC20 public WETH */\n    tag_15:\n      callvalue\n      dup1\n      iszero\n      tag_79\n      jumpi\n      0x00\n      dup1\n      revert\n    tag_79:\n      pop\n      sload(0x19)\n      tag_59\n      swap1\n      sub(shl(0xa0, 0x01), 0x01)\n      and\n      dup2\n      jump\n        /* \"Ethereum/Presale.sol\":3952:6078  function deposit(uint256 _amount) external payable nonReentrant {\r... */\n    tag_16:\n      tag_54\n      tag_85\n      calldatasize\n      0x04\n      tag_86\n      jump\t// in\n    tag_85:\n      tag_87\n      jump\t// in\n        /* \"Ethereum/Presale.sol\":3834:3944  function checkAdminAddress() public view returns(bool) {\r... */\n    tag_17:\n      callvalue\n      dup1\n      iszero\n      tag_88\n      jumpi\n      0x00\n      dup1\n      revert\n    tag_88:\n      pop\n      tag_89\n      tag_90\n      jump\t// in\n    tag_89:\n      mload(0x40)\n        /* \"#utility.yul\":4744:4758   */\n      swap1\n      iszero\n        /* \"#utility.yul\":4737:4759   */\n      iszero\n        /* \"#utility.yul\":4719:4760   */\n      dup2\n      mstore\n        /* \"#utility.yul\":4707:4709   */\n      0x20\n        /* \"#utility.yul\":4692:4710   */\n      add\n        /* \"Ethereum/Presale.sol\":3834:3944  function checkAdminAddress() public view returns(bool) {\r... */\n      tag_27\n        /* \"#utility.yul\":4674:4766   */\n      jump\n        /* \"Ethereum/Presale.sol\":1433:1479  mapping(address => BuyerInfo) public buyerInfo */\n    tag_18:\n      callvalue\n      dup1\n      iszero\n      tag_93\n      jumpi\n      0x00\n      dup1\n      revert\n    tag_93:\n      pop\n      tag_94\n      tag_95\n      calldatasize\n      0x04\n      tag_50\n      jump\t// in\n    tag_95:\n      0x02\n      0x20\n      dup2\n      swap1\n      mstore\n      0x00\n      swap2\n      dup3\n      mstore\n      0x40\n      swap1\n      swap2\n      keccak256\n      dup1\n      sload\n      0x01\n      dup3\n      add\n      sload\n      swap3\n      dup3\n      add\n      sload\n      0x03\n      swap1\n      swap3\n      add\n      sload\n      swap1\n      swap3\n      swap2\n      swap1\n      dup5\n      jump\n    tag_94:\n      0x40\n      dup1\n      mload\n        /* \"#utility.yul\":10071:10096   */\n      swap5\n      dup6\n      mstore\n        /* \"#utility.yul\":10127:10129   */\n      0x20\n        /* \"#utility.yul\":10112:10130   */\n      dup6\n      add\n        /* \"#utility.yul\":10105:10139   */\n      swap4\n      swap1\n      swap4\n      mstore\n        /* \"#utility.yul\":10155:10173   */\n      swap2\n      dup4\n      add\n        /* \"#utility.yul\":10148:10182   */\n      mstore\n        /* \"#utility.yul\":10213:10215   */\n      0x60\n        /* \"#utility.yul\":10198:10216   */\n      dup3\n      add\n        /* \"#utility.yul\":10191:10225   */\n      mstore\n        /* \"#utility.yul\":10058:10061   */\n      0x80\n        /* \"#utility.yul\":10043:10062   */\n      add\n        /* \"Ethereum/Presale.sol\":1433:1479  mapping(address => BuyerInfo) public buyerInfo */\n      tag_27\n        /* \"#utility.yul\":10025:10231   */\n      jump\n        /* \"Utils/Ownable.sol\":1972:2173  function transferOwnership(address newOwner) public virtual onlyOwner {\r... */\n    tag_19:\n      callvalue\n      dup1\n      iszero\n      tag_99\n      jumpi\n      0x00\n      dup1\n      revert\n    tag_99:\n      pop\n      tag_54\n      tag_101\n      calldatasize\n      0x04\n      tag_50\n      jump\t// in\n    tag_101:\n      tag_102\n      jump\t// in\n        /* \"Ethereum/Presale.sol\":7618:7729  function getBalance(address _address) external view returns(uint256) {\r... */\n    tag_20:\n      callvalue\n      dup1\n      iszero\n      tag_103\n      jumpi\n      0x00\n      dup1\n      revert\n    tag_103:\n      pop\n      tag_35\n      tag_105\n      calldatasize\n      0x04\n      tag_50\n      jump\t// in\n    tag_105:\n      sub(shl(0xa0, 0x01), 0x01)\n        /* \"Ethereum/Presale.sol\":7705:7721  _address.balance */\n      and\n      balance\n      swap1\n        /* \"Ethereum/Presale.sol\":7618:7729  function getBalance(address _address) external view returns(uint256) {\r... */\n      jump\n        /* \"Ethereum/Presale.sol\":3488:3825  function status() public view returns(uint256) {\r... */\n    tag_41:\n        /* \"Ethereum/Presale.sol\":3567:3586  saleInfor.startSale */\n      sload(0x11)\n        /* \"Ethereum/Presale.sol\":3526:3533  uint256 */\n      0x00\n      swap1\n        /* \"Ethereum/Presale.sol\":3549:3564  block.timestamp */\n      timestamp\n        /* \"Ethereum/Presale.sol\":3549:3586  block.timestamp < saleInfor.startSale */\n      lt\n        /* \"Ethereum/Presale.sol\":3546:3818  if(block.timestamp < saleInfor.startSale) {\r... */\n      iszero\n      tag_110\n      jumpi\n      pop\n        /* \"Ethereum/Presale.sol\":3610:3611  0 */\n      0x00\n      swap1\n        /* \"Ethereum/Presale.sol\":3488:3825  function status() public view returns(uint256) {\r... */\n      jump\t// out\n        /* \"Ethereum/Presale.sol\":3546:3818  if(block.timestamp < saleInfor.startSale) {\r... */\n    tag_110:\n        /* \"Ethereum/Presale.sol\":3677:3694  saleInfor.endSale */\n      sload(0x12)\n        /* \"Ethereum/Presale.sol\":3659:3674  block.timestamp */\n      timestamp\n        /* \"Ethereum/Presale.sol\":3659:3694  block.timestamp > saleInfor.endSale */\n      gt\n        /* \"Ethereum/Presale.sol\":3656:3807  if(block.timestamp > saleInfor.endSale) {\r... */\n      iszero\n      tag_112\n      jumpi\n      pop\n        /* \"Ethereum/Presale.sol\":3722:3723  2 */\n      0x02\n      swap1\n        /* \"Ethereum/Presale.sol\":3488:3825  function status() public view returns(uint256) {\r... */\n      jump\t// out\n        /* \"Ethereum/Presale.sol\":3656:3807  if(block.timestamp > saleInfor.endSale) {\r... */\n    tag_112:\n      pop\n        /* \"Ethereum/Presale.sol\":3780:3781  1 */\n      0x01\n      swap1\n        /* \"Ethereum/Presale.sol\":3488:3825  function status() public view returns(uint256) {\r... */\n      jump\t// out\n        /* \"Utils/Ownable.sol\":1714:1817  function renounceOwnership() public virtual onlyOwner {\r... */\n    tag_55:\n        /* \"Utils/Ownable.sol\":1136:1142  _owner */\n      and(sub(shl(0xa0, 0x01), 0x01), sload(0x01))\n        /* \"Utils/Context.sol\":736:746  msg.sender */\n      caller\n        /* \"Utils/Ownable.sol\":1283:1306  owner() == _msgSender() */\n      eq\n        /* \"Utils/Ownable.sol\":1275:1343  require(owner() == _msgSender(), \"Ownable: caller is not the owner\") */\n      tag_118\n      jumpi\n      mload(0x40)\n      shl(0xe5, 0x461bcd)\n      dup2\n      mstore\n        /* \"#utility.yul\":8137:8139   */\n      0x20\n        /* \"Utils/Ownable.sol\":1275:1343  require(owner() == _msgSender(), \"Ownable: caller is not the owner\") */\n      0x04\n      dup3\n      add\n        /* \"#utility.yul\":8119:8140   */\n      dup2\n      swap1\n      mstore\n        /* \"#utility.yul\":8156:8174   */\n      0x24\n      dup3\n      add\n        /* \"#utility.yul\":8149:8179   */\n      mstore\n        /* \"#utility.yul\":8215:8249   */\n      0x4f776e61626c653a2063616c6c6572206973206e6f7420746865206f776e6572\n        /* \"#utility.yul\":8195:8213   */\n      0x44\n      dup3\n      add\n        /* \"#utility.yul\":8188:8250   */\n      mstore\n        /* \"#utility.yul\":8267:8285   */\n      0x64\n      add\n        /* \"Utils/Ownable.sol\":1275:1343  require(owner() == _msgSender(), \"Ownable: caller is not the owner\") */\n    tag_119:\n      mload(0x40)\n      dup1\n      swap2\n      sub\n      swap1\n      revert\n    tag_118:\n        /* \"Utils/Ownable.sol\":1779:1809  _transferOwnership(address(0)) */\n      tag_122\n        /* \"Utils/Ownable.sol\":1806:1807  0 */\n      0x00\n        /* \"Utils/Ownable.sol\":1779:1797  _transferOwnership */\n      tag_123\n        /* \"Utils/Ownable.sol\":1779:1809  _transferOwnership(address(0)) */\n      jump\t// in\n    tag_122:\n        /* \"Utils/Ownable.sol\":1714:1817  function renounceOwnership() public virtual onlyOwner {\r... */\n      jump\t// out\n        /* \"Ethereum/Presale.sol\":7740:7848  function backToken() external payable {\r... */\n    tag_57:\n        /* \"Ethereum/Presale.sol\":7789:7840  payable(msg.sender).transfer(address(this).balance) */\n      mload(0x40)\n        /* \"Ethereum/Presale.sol\":7797:7807  msg.sender */\n      caller\n      swap1\n        /* \"Ethereum/Presale.sol\":7818:7839  address(this).balance */\n      selfbalance\n        /* \"Ethereum/Presale.sol\":7789:7840  payable(msg.sender).transfer(address(this).balance) */\n      dup1\n      iszero\n      0x08fc\n      mul\n      swap2\n      0x00\n      dup2\n      dup2\n      dup2\n        /* \"Ethereum/Presale.sol\":7818:7839  address(this).balance */\n      dup6\n        /* \"Ethereum/Presale.sol\":7797:7807  msg.sender */\n      dup9\n        /* \"Ethereum/Presale.sol\":7789:7840  payable(msg.sender).transfer(address(this).balance) */\n      dup9\n      call\n      swap4\n      pop\n      pop\n      pop\n      pop\n      iszero\n      dup1\n      iszero\n      tag_126\n      jumpi\n      returndatasize\n      0x00\n      dup1\n      returndatacopy\n      revert(0x00, returndatasize)\n    tag_126:\n      pop\n        /* \"Ethereum/Presale.sol\":7740:7848  function backToken() external payable {\r... */\n      jump\t// out\n        /* \"Ethereum/Presale.sol\":2289:3479  function initialSaleInfor(\r... */\n    tag_67:\n        /* \"Ethereum/Presale.sol\":2470:2479  saleInfor */\n      0x0d\n        /* \"Ethereum/Presale.sol\":2470:2508  saleInfor.presaleOwner = _presaleOwner */\n      dup1\n      sload\n      sub(shl(0xa0, 0x01), 0x01)\n      dup1\n      dup8\n      and\n      not(sub(shl(0xa0, 0x01), 0x01))\n      swap3\n      dup4\n      and\n      or\n      swap1\n      swap3\n      sstore\n        /* \"Ethereum/Presale.sol\":2519:2538  saleInfor.saleToken */\n      0x0e\n        /* \"Ethereum/Presale.sol\":2519:2551  saleInfor.saleToken = _saleToken */\n      dup1\n      sload\n      dup7\n      dup5\n      and\n      swap1\n      dup4\n      and\n      dup2\n      or\n      swap1\n      swap2\n      sstore\n        /* \"Ethereum/Presale.sol\":2562:2581  saleInfor.baseToken */\n      0x0f\n        /* \"Ethereum/Presale.sol\":2562:2594  saleInfor.baseToken = _baseTOken */\n      dup1\n      sload\n      swap4\n      dup7\n      and\n      swap4\n      swap1\n      swap3\n      and\n      swap3\n      swap1\n      swap3\n      or\n      swap1\n      sstore\n        /* \"Ethereum/Presale.sol\":2652:2689  ERC20(saleInfor.saleToken).decimals() */\n      0x40\n      dup1\n      mload\n      shl(0xe0, 0x313ce567)\n      dup2\n      mstore\n      swap1\n      mload\n        /* \"Ethereum/Presale.sol\":2652:2687  ERC20(saleInfor.saleToken).decimals */\n      0x313ce567\n      swap2\n        /* \"Ethereum/Presale.sol\":2652:2689  ERC20(saleInfor.saleToken).decimals() */\n      0x04\n      dup1\n      dup3\n      add\n      swap3\n      0x20\n      swap3\n      swap1\n      swap2\n      swap1\n      dup3\n      swap1\n      sub\n      add\n      dup2\n        /* \"Ethereum/Presale.sol\":2519:2551  saleInfor.saleToken = _saleToken */\n      dup7\n        /* \"Ethereum/Presale.sol\":2652:2689  ERC20(saleInfor.saleToken).decimals() */\n      dup1\n      extcodesize\n      iszero\n      dup1\n      iszero\n      tag_129\n      jumpi\n      0x00\n      dup1\n      revert\n    tag_129:\n      pop\n      gas\n      staticcall\n      iszero\n      dup1\n      iszero\n      tag_131\n      jumpi\n      returndatasize\n      0x00\n      dup1\n      returndatacopy\n      revert(0x00, returndatasize)\n    tag_131:\n      pop\n      pop\n      pop\n      pop\n      mload(0x40)\n      returndatasize\n      not(0x1f)\n      0x1f\n      dup3\n      add\n      and\n      dup3\n      add\n      dup1\n      0x40\n      mstore\n      pop\n      dup2\n      add\n      swap1\n      tag_132\n      swap2\n      swap1\n      tag_133\n      jump\t// in\n    tag_132:\n        /* \"Ethereum/Presale.sol\":2639:2690  10** uint256(ERC20(saleInfor.saleToken).decimals()) */\n      tag_134\n      swap1\n        /* \"Ethereum/Presale.sol\":2639:2641  10 */\n      0x0a\n        /* \"Ethereum/Presale.sol\":2639:2690  10** uint256(ERC20(saleInfor.saleToken).decimals()) */\n      tag_135\n      jump\t// in\n    tag_134:\n        /* \"Ethereum/Presale.sol\":2628:2636  datas[0] */\n      dup2\n      mload\n        /* \"Ethereum/Presale.sol\":2628:2690  datas[0] * 10** uint256(ERC20(saleInfor.saleToken).decimals()) */\n      tag_139\n      swap2\n      swap1\n      tag_140\n      jump\t// in\n    tag_139:\n        /* \"Ethereum/Presale.sol\":2605:2625  saleInfor.tokenPrice */\n      0x10\n        /* \"Ethereum/Presale.sol\":2605:2690  saleInfor.tokenPrice = datas[0] * 10** uint256(ERC20(saleInfor.saleToken).decimals()) */\n      sstore\n        /* \"Ethereum/Presale.sol\":2723:2731  datas[1] */\n      0x20\n      dup1\n      dup3\n      add\n      mload\n        /* \"Ethereum/Presale.sol\":2701:2720  saleInfor.startSale */\n      0x11\n        /* \"Ethereum/Presale.sol\":2701:2731  saleInfor.startSale = datas[1] */\n      sstore\n        /* \"Ethereum/Presale.sol\":2762:2770  datas[2] */\n      0x40\n      dup1\n      dup4\n      add\n      mload\n        /* \"Ethereum/Presale.sol\":2742:2759  saleInfor.endSale */\n      0x12\n        /* \"Ethereum/Presale.sol\":2742:2770  saleInfor.endSale = datas[2] */\n      sstore\n        /* \"Ethereum/Presale.sol\":2810:2818  datas[3] */\n      0x60\n      dup4\n      add\n      mload\n        /* \"Ethereum/Presale.sol\":2781:2807  saleInfor.minSpendPerBuyer */\n      0x13\n        /* \"Ethereum/Presale.sol\":2781:2818  saleInfor.minSpendPerBuyer = datas[3] */\n      sstore\n        /* \"Ethereum/Presale.sol\":2889:2908  saleInfor.baseToken */\n      sload(0x0f)\n        /* \"Ethereum/Presale.sol\":2883:2920  ERC20(saleInfor.baseToken).decimals() */\n      dup2\n      mload\n      shl(0xe0, 0x313ce567)\n      dup2\n      mstore\n      swap2\n      mload\n      sub(shl(0xa0, 0x01), 0x01)\n        /* \"Ethereum/Presale.sol\":2889:2908  saleInfor.baseToken */\n      swap1\n      swap2\n      and\n      swap3\n        /* \"Ethereum/Presale.sol\":2883:2918  ERC20(saleInfor.baseToken).decimals */\n      0x313ce567\n      swap3\n        /* \"Ethereum/Presale.sol\":2883:2920  ERC20(saleInfor.baseToken).decimals() */\n      0x04\n      dup1\n      dup3\n      add\n      swap4\n      swap2\n      dup3\n      swap1\n      sub\n      add\n      dup2\n        /* \"Ethereum/Presale.sol\":2889:2908  saleInfor.baseToken */\n      dup7\n        /* \"Ethereum/Presale.sol\":2883:2920  ERC20(saleInfor.baseToken).decimals() */\n      dup1\n      extcodesize\n      iszero\n      dup1\n      iszero\n      tag_147\n      jumpi\n      0x00\n      dup1\n      revert\n    tag_147:\n      pop\n      gas\n      staticcall\n      iszero\n      dup1\n      iszero\n      tag_149\n      jumpi\n      returndatasize\n      0x00\n      dup1\n      returndatacopy\n      revert(0x00, returndatasize)\n    tag_149:\n      pop\n      pop\n      pop\n      pop\n      mload(0x40)\n      returndatasize\n      not(0x1f)\n      0x1f\n      dup3\n      add\n      and\n      dup3\n      add\n      dup1\n      0x40\n      mstore\n      pop\n      dup2\n      add\n      swap1\n      tag_150\n      swap2\n      swap1\n      tag_133\n      jump\t// in\n    tag_150:\n        /* \"Ethereum/Presale.sol\":2869:2921  10 ** uint256(ERC20(saleInfor.baseToken).decimals()) */\n      tag_151\n      swap1\n        /* \"Ethereum/Presale.sol\":2869:2871  10 */\n      0x0a\n        /* \"Ethereum/Presale.sol\":2869:2921  10 ** uint256(ERC20(saleInfor.baseToken).decimals()) */\n      tag_135\n      jump\t// in\n    tag_151:\n        /* \"Ethereum/Presale.sol\":2858:2866  datas[4] */\n      0x80\n      dup3\n      add\n      mload\n        /* \"Ethereum/Presale.sol\":2858:2921  datas[4] * 10 ** uint256(ERC20(saleInfor.baseToken).decimals()) */\n      tag_154\n      swap2\n      swap1\n      tag_140\n      jump\t// in\n    tag_154:\n        /* \"Ethereum/Presale.sol\":2829:2855  saleInfor.maxSpendPerBuyer */\n      0x14\n        /* \"Ethereum/Presale.sol\":2829:2921  saleInfor.maxSpendPerBuyer = datas[4] * 10 ** uint256(ERC20(saleInfor.baseToken).decimals()) */\n      sstore\n        /* \"Ethereum/Presale.sol\":2954:2962  datas[5] */\n      0xa0\n      dup2\n      add\n      mload\n        /* \"Ethereum/Presale.sol\":2932:2951  saleInfor.refundFee */\n      0x15\n        /* \"Ethereum/Presale.sol\":2932:2962  saleInfor.refundFee = datas[5] */\n      sstore\n        /* \"Ethereum/Presale.sol\":2994:3002  datas[6] */\n      0xc0\n      dup2\n      add\n      mload\n        /* \"Ethereum/Presale.sol\":2973:2991  saleInfor.claimFee */\n      0x16\n        /* \"Ethereum/Presale.sol\":2973:3002  saleInfor.claimFee = datas[6] */\n      sstore\n        /* \"Ethereum/Presale.sol\":3070:3089  saleInfor.baseToken */\n      sload(0x0f)\n        /* \"Ethereum/Presale.sol\":3064:3101  ERC20(saleInfor.baseToken).decimals() */\n      0x40\n      dup1\n      mload\n      shl(0xe0, 0x313ce567)\n      dup2\n      mstore\n      swap1\n      mload\n      sub(shl(0xa0, 0x01), 0x01)\n        /* \"Ethereum/Presale.sol\":3070:3089  saleInfor.baseToken */\n      swap1\n      swap3\n      and\n      swap2\n        /* \"Ethereum/Presale.sol\":3064:3099  ERC20(saleInfor.baseToken).decimals */\n      0x313ce567\n      swap2\n        /* \"Ethereum/Presale.sol\":3064:3101  ERC20(saleInfor.baseToken).decimals() */\n      0x04\n      dup1\n      dup3\n      add\n      swap3\n        /* \"Ethereum/Presale.sol\":2954:2962  datas[5] */\n      0x20\n      swap3\n        /* \"Ethereum/Presale.sol\":3064:3101  ERC20(saleInfor.baseToken).decimals() */\n      swap1\n      swap2\n      swap1\n      dup3\n      swap1\n      sub\n      add\n      dup2\n        /* \"Ethereum/Presale.sol\":3070:3089  saleInfor.baseToken */\n      dup7\n        /* \"Ethereum/Presale.sol\":3064:3101  ERC20(saleInfor.baseToken).decimals() */\n      dup1\n      extcodesize\n      iszero\n      dup1\n      iszero\n      tag_159\n      jumpi\n      0x00\n      dup1\n      revert\n    tag_159:\n      pop\n      gas\n      staticcall\n      iszero\n      dup1\n      iszero\n      tag_161\n      jumpi\n      returndatasize\n      0x00\n      dup1\n      returndatacopy\n      revert(0x00, returndatasize)\n    tag_161:\n      pop\n      pop\n      pop\n      pop\n      mload(0x40)\n      returndatasize\n      not(0x1f)\n      0x1f\n      dup3\n      add\n      and\n      dup3\n      add\n      dup1\n      0x40\n      mstore\n      pop\n      dup2\n      add\n      swap1\n      tag_162\n      swap2\n      swap1\n      tag_133\n      jump\t// in\n    tag_162:\n        /* \"Ethereum/Presale.sol\":3050:3102  10 ** uint256(ERC20(saleInfor.baseToken).decimals()) */\n      tag_163\n      swap1\n        /* \"Ethereum/Presale.sol\":3050:3052  10 */\n      0x0a\n        /* \"Ethereum/Presale.sol\":3050:3102  10 ** uint256(ERC20(saleInfor.baseToken).decimals()) */\n      tag_135\n      jump\t// in\n    tag_163:\n        /* \"Ethereum/Presale.sol\":3039:3047  datas[7] */\n      0xe0\n      dup3\n      add\n      mload\n        /* \"Ethereum/Presale.sol\":3039:3102  datas[7] * 10 ** uint256(ERC20(saleInfor.baseToken).decimals()) */\n      tag_166\n      swap2\n      swap1\n      tag_140\n      jump\t// in\n    tag_166:\n        /* \"Ethereum/Presale.sol\":3013:3028  saleTotalSupply */\n      0x0b\n        /* \"Ethereum/Presale.sol\":3013:3102  saleTotalSupply.hardCap = datas[7] * 10 ** uint256(ERC20(saleInfor.baseToken).decimals()) */\n      sstore\n        /* \"Ethereum/Presale.sol\":3169:3188  saleInfor.baseToken */\n      sload(0x0f)\n        /* \"Ethereum/Presale.sol\":3163:3200  ERC20(saleInfor.baseToken).decimals() */\n      0x40\n      dup1\n      mload\n      shl(0xe0, 0x313ce567)\n      dup2\n      mstore\n      swap1\n      mload\n      sub(shl(0xa0, 0x01), 0x01)\n        /* \"Ethereum/Presale.sol\":3169:3188  saleInfor.baseToken */\n      swap1\n      swap3\n      and\n      swap2\n        /* \"Ethereum/Presale.sol\":3163:3198  ERC20(saleInfor.baseToken).decimals */\n      0x313ce567\n      swap2\n        /* \"Ethereum/Presale.sol\":3163:3200  ERC20(saleInfor.baseToken).decimals() */\n      0x04\n      dup1\n      dup3\n      add\n      swap3\n      0x20\n      swap3\n      swap1\n      swap2\n      swap1\n      dup3\n      swap1\n      sub\n      add\n      dup2\n        /* \"Ethereum/Presale.sol\":3169:3188  saleInfor.baseToken */\n      dup7\n        /* \"Ethereum/Presale.sol\":3163:3200  ERC20(saleInfor.baseToken).decimals() */\n      dup1\n      extcodesize\n      iszero\n      dup1\n      iszero\n      tag_167\n      jumpi\n      0x00\n      dup1\n      revert\n    tag_167:\n      pop\n      gas\n      staticcall\n      iszero\n      dup1\n      iszero\n      tag_169\n      jumpi\n      returndatasize\n      0x00\n      dup1\n      returndatacopy\n      revert(0x00, returndatasize)\n    tag_169:\n      pop\n      pop\n      pop\n      pop\n      mload(0x40)\n      returndatasize\n      not(0x1f)\n      0x1f\n      dup3\n      add\n      and\n      dup3\n      add\n      dup1\n      0x40\n      mstore\n      pop\n      dup2\n      add\n      swap1\n      tag_170\n      swap2\n      swap1\n      tag_133\n      jump\t// in\n    tag_170:\n        /* \"Ethereum/Presale.sol\":3150:3201  10** uint256(ERC20(saleInfor.baseToken).decimals()) */\n      tag_171\n      swap1\n        /* \"Ethereum/Presale.sol\":3150:3152  10 */\n      0x0a\n        /* \"Ethereum/Presale.sol\":3150:3201  10** uint256(ERC20(saleInfor.baseToken).decimals()) */\n      tag_135\n      jump\t// in\n    tag_171:\n        /* \"Ethereum/Presale.sol\":3139:3147  datas[8] */\n      0x0100\n      dup3\n      add\n      mload\n        /* \"Ethereum/Presale.sol\":3139:3201  datas[8] * 10** uint256(ERC20(saleInfor.baseToken).decimals()) */\n      tag_174\n      swap2\n      swap1\n      tag_140\n      jump\t// in\n    tag_174:\n        /* \"Ethereum/Presale.sol\":3113:3136  saleTotalSupply.softCap */\n      0x0c\n        /* \"Ethereum/Presale.sol\":3113:3201  saleTotalSupply.softCap = datas[8] * 10** uint256(ERC20(saleInfor.baseToken).decimals()) */\n      sstore\n        /* \"Ethereum/Presale.sol\":3265:3284  saleInfor.baseToken */\n      sload(0x0f)\n        /* \"Ethereum/Presale.sol\":3248:3252  WETH */\n      sload(0x19)\n        /* \"Ethereum/Presale.sol\":3212:3237  saleInfor.saleIsBaseToken */\n      0x17\n        /* \"Ethereum/Presale.sol\":3212:3285  saleInfor.saleIsBaseToken = address(WETH) == address(saleInfor.baseToken) */\n      dup1\n      sload\n      not(0xff)\n      and\n      sub(shl(0xa0, 0x01), 0x01)\n        /* \"Ethereum/Presale.sol\":3248:3252  WETH */\n      swap3\n      dup4\n      and\n        /* \"Ethereum/Presale.sol\":3265:3284  saleInfor.baseToken */\n      swap3\n      swap1\n      swap4\n      and\n        /* \"Ethereum/Presale.sol\":3240:3285  address(WETH) == address(saleInfor.baseToken) */\n      swap2\n      dup3\n      eq\n        /* \"Ethereum/Presale.sol\":3212:3285  saleInfor.saleIsBaseToken = address(WETH) == address(saleInfor.baseToken) */\n      swap3\n      swap1\n      swap3\n      or\n      swap1\n      swap2\n      sstore\n        /* \"Ethereum/Presale.sol\":3432:3469  ERC20(saleInfor.baseToken).decimals() */\n      0x40\n      dup1\n      mload\n      shl(0xe0, 0x313ce567)\n      dup2\n      mstore\n      swap1\n      mload\n        /* \"Ethereum/Presale.sol\":3432:3467  ERC20(saleInfor.baseToken).decimals */\n      0x313ce567\n      swap2\n        /* \"Ethereum/Presale.sol\":3432:3469  ERC20(saleInfor.baseToken).decimals() */\n      0x04\n      dup1\n      dup3\n      add\n      swap3\n      0x20\n      swap3\n      swap1\n      swap2\n      swap1\n      dup3\n      swap1\n      sub\n      add\n      dup2\n        /* \"Ethereum/Presale.sol\":3265:3284  saleInfor.baseToken */\n      dup7\n        /* \"Ethereum/Presale.sol\":3432:3469  ERC20(saleInfor.baseToken).decimals() */\n      dup1\n      extcodesize\n      iszero\n      dup1\n      iszero\n      tag_175\n      jumpi\n      0x00\n      dup1\n      revert\n    tag_175:\n      pop\n      gas\n      staticcall\n      iszero\n      dup1\n      iszero\n      tag_177\n      jumpi\n      returndatasize\n      0x00\n      dup1\n      returndatacopy\n      revert(0x00, returndatasize)\n    tag_177:\n      pop\n      pop\n      pop\n      pop\n      mload(0x40)\n      returndatasize\n      not(0x1f)\n      0x1f\n      dup3\n      add\n      and\n      dup3\n      add\n      dup1\n      0x40\n      mstore\n      pop\n      dup2\n      add\n      swap1\n      tag_178\n      swap2\n      swap1\n      tag_133\n      jump\t// in\n    tag_178:\n        /* \"Ethereum/Presale.sol\":3419:3470  10** uint256(ERC20(saleInfor.baseToken).decimals()) */\n      tag_179\n      swap1\n        /* \"Ethereum/Presale.sol\":3419:3421  10 */\n      0x0a\n        /* \"Ethereum/Presale.sol\":3419:3470  10** uint256(ERC20(saleInfor.baseToken).decimals()) */\n      tag_135\n      jump\t// in\n    tag_179:\n        /* \"Ethereum/Presale.sol\":3352:3367  saleTotalSupply */\n      0x0b\n        /* \"Ethereum/Presale.sol\":3352:3375  saleTotalSupply.hardCap */\n      sload\n        /* \"Ethereum/Presale.sol\":3327:3347  saleInfor.tokenPrice */\n      sload(0x10)\n        /* \"Ethereum/Presale.sol\":3327:3376  saleInfor.tokenPrice.mul(saleTotalSupply.hardCap) */\n      tag_180\n      swap2\n        /* \"Ethereum/Presale.sol\":3327:3351  saleInfor.tokenPrice.mul */\n      tag_181\n        /* \"Ethereum/Presale.sol\":3327:3376  saleInfor.tokenPrice.mul(saleTotalSupply.hardCap) */\n      jump\t// in\n    tag_180:\n        /* \"Ethereum/Presale.sol\":3327:3471  saleInfor.tokenPrice.mul(saleTotalSupply.hardCap)/\r... */\n      tag_182\n      swap2\n      swap1\n      tag_183\n      jump\t// in\n    tag_182:\n        /* \"Ethereum/Presale.sol\":3296:3324  saleInfor.amountTokenForSale */\n      0x18\n        /* \"Ethereum/Presale.sol\":3296:3471  saleInfor.amountTokenForSale = saleInfor.tokenPrice.mul(saleTotalSupply.hardCap)/\r... */\n      sstore\n      pop\n      pop\n      pop\n      pop\n        /* \"Ethereum/Presale.sol\":2289:3479  function initialSaleInfor(\r... */\n      jump\t// out\n        /* \"Ethereum/Presale.sol\":6969:7610  function userRefundEmergency() external nonReentrant {\r... */\n    tag_70:\n        /* \"Utils/ReentrancyGuard.sol\":1778:1779  2 */\n      0x02\n        /* \"Utils/ReentrancyGuard.sol\":2376:2383  _status */\n      sload(0x00)\n        /* \"Utils/ReentrancyGuard.sol\":2376:2395  _status != _ENTERED */\n      eq\n      iszero\n        /* \"Utils/ReentrancyGuard.sol\":2368:2431  require(_status != _ENTERED, \"ReentrancyGuard: reentrant call\") */\n      tag_185\n      jumpi\n      mload(0x40)\n      shl(0xe5, 0x461bcd)\n      dup2\n      mstore\n      0x04\n      add\n      tag_119\n      swap1\n      tag_187\n      jump\t// in\n    tag_185:\n        /* \"Utils/ReentrancyGuard.sol\":1778:1779  2 */\n      0x02\n        /* \"Utils/ReentrancyGuard.sol\":2509:2516  _status */\n      0x00\n        /* \"Utils/ReentrancyGuard.sol\":2509:2527  _status = _ENTERED */\n      sstore\n        /* \"Ethereum/Presale.sol\":7041:7049  status() */\n      tag_189\n        /* \"Ethereum/Presale.sol\":7041:7047  status */\n      tag_41\n        /* \"Ethereum/Presale.sol\":7041:7049  status() */\n      jump\t// in\n    tag_189:\n        /* \"Ethereum/Presale.sol\":7053:7054  1 */\n      0x01\n        /* \"Ethereum/Presale.sol\":7041:7054  status() == 1 */\n      eq\n        /* \"Ethereum/Presale.sol\":7033:7071  require(status() == 1, \"Sale sucesss\") */\n      tag_190\n      jumpi\n      mload(0x40)\n      shl(0xe5, 0x461bcd)\n      dup2\n      mstore\n        /* \"#utility.yul\":7796:7798   */\n      0x20\n        /* \"Ethereum/Presale.sol\":7033:7071  require(status() == 1, \"Sale sucesss\") */\n      0x04\n      dup3\n      add\n        /* \"#utility.yul\":7778:7799   */\n      mstore\n        /* \"#utility.yul\":7835:7837   */\n      0x0c\n        /* \"#utility.yul\":7815:7833   */\n      0x24\n      dup3\n      add\n        /* \"#utility.yul\":7808:7838   */\n      mstore\n      shl(0xa0, 0x53616c652073756365737373)\n        /* \"#utility.yul\":7854:7872   */\n      0x44\n      dup3\n      add\n        /* \"#utility.yul\":7847:7889   */\n      mstore\n        /* \"#utility.yul\":7906:7924   */\n      0x64\n      add\n        /* \"Ethereum/Presale.sol\":7033:7071  require(status() == 1, \"Sale sucesss\") */\n      tag_119\n        /* \"#utility.yul\":7768:7930   */\n      jump\n        /* \"Ethereum/Presale.sol\":7033:7071  require(status() == 1, \"Sale sucesss\") */\n    tag_190:\n        /* \"Ethereum/Presale.sol\":7125:7156  presaleStatus.totalBaseWithDraw */\n      sload(0x07)\n        /* \"Ethereum/Presale.sol\":7125:7138  presaleStatus */\n      0x04\n        /* \"Ethereum/Presale.sol\":7090:7122  presaleStatus.totalBaseCollected */\n      sload\n        /* \"Ethereum/Presale.sol\":7159:7160  0 */\n      0x00\n      swap2\n        /* \"Ethereum/Presale.sol\":7090:7156  presaleStatus.totalBaseCollected - presaleStatus.totalBaseWithDraw */\n      tag_193\n      swap2\n      tag_194\n      jump\t// in\n    tag_193:\n        /* \"Ethereum/Presale.sol\":7090:7160  presaleStatus.totalBaseCollected - presaleStatus.totalBaseWithDraw > 0 */\n      gt\n        /* \"Ethereum/Presale.sol\":7082:7219  require(presaleStatus.totalBaseCollected - presaleStatus.totalBaseWithDraw > 0, \r... */\n      tag_195\n      jumpi\n      mload(0x40)\n      shl(0xe5, 0x461bcd)\n      dup2\n      mstore\n        /* \"#utility.yul\":5195:5197   */\n      0x20\n        /* \"Ethereum/Presale.sol\":7082:7219  require(presaleStatus.totalBaseCollected - presaleStatus.totalBaseWithDraw > 0, \r... */\n      0x04\n      dup3\n      add\n        /* \"#utility.yul\":5177:5198   */\n      mstore\n        /* \"#utility.yul\":5234:5236   */\n      0x1b\n        /* \"#utility.yul\":5214:5232   */\n      0x24\n      dup3\n      add\n        /* \"#utility.yul\":5207:5237   */\n      mstore\n        /* \"#utility.yul\":5273:5302   */\n      0x416c6c20746f6b656e20686173206265656e2077697468647261770000000000\n        /* \"#utility.yul\":5253:5271   */\n      0x44\n      dup3\n      add\n        /* \"#utility.yul\":5246:5303   */\n      mstore\n        /* \"#utility.yul\":5320:5338   */\n      0x64\n      add\n        /* \"Ethereum/Presale.sol\":7082:7219  require(presaleStatus.totalBaseCollected - presaleStatus.totalBaseWithDraw > 0, \r... */\n      tag_119\n        /* \"#utility.yul\":5167:5344   */\n      jump\n        /* \"Ethereum/Presale.sol\":7082:7219  require(presaleStatus.totalBaseCollected - presaleStatus.totalBaseWithDraw > 0, \r... */\n    tag_195:\n        /* \"Ethereum/Presale.sol\":7267:7277  msg.sender */\n      caller\n        /* \"Ethereum/Presale.sol\":7231:7254  BuyerInfo storage buyer */\n      0x00\n        /* \"Ethereum/Presale.sol\":7257:7278  buyerInfo[msg.sender] */\n      swap1\n      dup2\n      mstore\n        /* \"Ethereum/Presale.sol\":7257:7266  buyerInfo */\n      0x02\n        /* \"Ethereum/Presale.sol\":7257:7278  buyerInfo[msg.sender] */\n      0x20\n      mstore\n      0x40\n      swap1\n      keccak256\n        /* \"Ethereum/Presale.sol\":7297:7314  buyer.baseDeposit */\n      dup1\n      sload\n        /* \"Ethereum/Presale.sol\":7289:7360  require(buyer.baseDeposit > 0, \"You refund all or have not bought yet\") */\n      tag_198\n      jumpi\n      mload(0x40)\n      shl(0xe5, 0x461bcd)\n      dup2\n      mstore\n        /* \"#utility.yul\":5958:5960   */\n      0x20\n        /* \"Ethereum/Presale.sol\":7289:7360  require(buyer.baseDeposit > 0, \"You refund all or have not bought yet\") */\n      0x04\n      dup3\n      add\n        /* \"#utility.yul\":5940:5961   */\n      mstore\n        /* \"#utility.yul\":5997:5999   */\n      0x25\n        /* \"#utility.yul\":5977:5995   */\n      0x24\n      dup3\n      add\n        /* \"#utility.yul\":5970:6000   */\n      mstore\n        /* \"#utility.yul\":6036:6070   */\n      0x596f7520726566756e6420616c6c206f722068617665206e6f7420626f756768\n        /* \"#utility.yul\":6016:6034   */\n      0x44\n      dup3\n      add\n        /* \"#utility.yul\":6009:6071   */\n      mstore\n      shl(0xda, 0x1d081e595d)\n        /* \"#utility.yul\":6087:6105   */\n      0x64\n      dup3\n      add\n        /* \"#utility.yul\":6080:6115   */\n      mstore\n        /* \"#utility.yul\":6132:6151   */\n      0x84\n      add\n        /* \"Ethereum/Presale.sol\":7289:7360  require(buyer.baseDeposit > 0, \"You refund all or have not bought yet\") */\n      tag_119\n        /* \"#utility.yul\":5930:6157   */\n      jump\n        /* \"Ethereum/Presale.sol\":7289:7360  require(buyer.baseDeposit > 0, \"You refund all or have not bought yet\") */\n    tag_198:\n        /* \"Ethereum/Presale.sol\":7473:7490  buyer.baseDeposit */\n      dup1\n      sload\n        /* \"Ethereum/Presale.sol\":7414:7433  saleInfor.refundFee */\n      sload(0x15)\n        /* \"Ethereum/Presale.sol\":7371:7391  uint256 amountRefund */\n      0x00\n      swap2\n        /* \"Ethereum/Presale.sol\":7394:7544  ((uint256(1000).sub(saleInfor.refundFee))\r... */\n      tag_201\n      swap2\n        /* \"Ethereum/Presale.sol\":7538:7542  1000 */\n      0x03e8\n      swap2\n        /* \"Ethereum/Presale.sol\":7395:7491  (uint256(1000).sub(saleInfor.refundFee))\r... */\n      tag_202\n      swap2\n        /* \"Ethereum/Presale.sol\":7396:7434  uint256(1000).sub(saleInfor.refundFee) */\n      tag_203\n      swap1\n        /* \"Ethereum/Presale.sol\":7538:7542  1000 */\n      dup5\n      swap1\n        /* \"Ethereum/Presale.sol\":7396:7413  uint256(1000).sub */\n      tag_204\n        /* \"Ethereum/Presale.sol\":7396:7434  uint256(1000).sub(saleInfor.refundFee) */\n      jump\t// in\n    tag_203:\n        /* \"Ethereum/Presale.sol\":7395:7472  (uint256(1000).sub(saleInfor.refundFee))\r... */\n      swap1\n      tag_181\n        /* \"Ethereum/Presale.sol\":7395:7491  (uint256(1000).sub(saleInfor.refundFee))\r... */\n      jump\t// in\n    tag_202:\n        /* \"Ethereum/Presale.sol\":7394:7529  ((uint256(1000).sub(saleInfor.refundFee))\r... */\n      swap1\n      tag_205\n        /* \"Ethereum/Presale.sol\":7394:7544  ((uint256(1000).sub(saleInfor.refundFee))\r... */\n      jump\t// in\n    tag_201:\n        /* \"Ethereum/Presale.sol\":7371:7544  uint256 amountRefund = ((uint256(1000).sub(saleInfor.refundFee))\r... */\n      swap1\n      pop\n        /* \"Ethereum/Presale.sol\":7590:7602  amountRefund */\n      dup1\n        /* \"Ethereum/Presale.sol\":7555:7568  presaleStatus */\n      0x04\n        /* \"Ethereum/Presale.sol\":7555:7586  presaleStatus.totalBaseWithDraw */\n      0x03\n      add\n      0x00\n        /* \"Ethereum/Presale.sol\":7555:7602  presaleStatus.totalBaseWithDraw += amountRefund */\n      dup3\n      dup3\n      sload\n      tag_206\n      swap2\n      swap1\n      tag_207\n      jump\t// in\n    tag_206:\n      swap1\n      swap2\n      sstore\n      pop\n      pop\n        /* \"Utils/ReentrancyGuard.sol\":1734:1735  1 */\n      0x01\n        /* \"Utils/ReentrancyGuard.sol\":2688:2695  _status */\n      0x00\n        /* \"Utils/ReentrancyGuard.sol\":2688:2710  _status = _NOT_ENTERED */\n      sstore\n      pop\n      pop\n        /* \"Ethereum/Presale.sol\":6969:7610  function userRefundEmergency() external nonReentrant {\r... */\n      jump\t// out\n        /* \"Ethereum/Presale.sol\":6086:6961  function userClaimEmergency() external nonReentrant {\r... */\n    tag_73:\n        /* \"Utils/ReentrancyGuard.sol\":1778:1779  2 */\n      0x02\n        /* \"Utils/ReentrancyGuard.sol\":2376:2383  _status */\n      sload(0x00)\n        /* \"Utils/ReentrancyGuard.sol\":2376:2395  _status != _ENTERED */\n      eq\n      iszero\n        /* \"Utils/ReentrancyGuard.sol\":2368:2431  require(_status != _ENTERED, \"ReentrancyGuard: reentrant call\") */\n      tag_209\n      jumpi\n      mload(0x40)\n      shl(0xe5, 0x461bcd)\n      dup2\n      mstore\n      0x04\n      add\n      tag_119\n      swap1\n      tag_187\n      jump\t// in\n    tag_209:\n        /* \"Utils/ReentrancyGuard.sol\":1778:1779  2 */\n      0x02\n        /* \"Utils/ReentrancyGuard.sol\":2509:2516  _status */\n      0x00\n        /* \"Utils/ReentrancyGuard.sol\":2509:2527  _status = _ENTERED */\n      sstore\n        /* \"Ethereum/Presale.sol\":6157:6165  status() */\n      tag_212\n        /* \"Ethereum/Presale.sol\":6157:6163  status */\n      tag_41\n        /* \"Ethereum/Presale.sol\":6157:6165  status() */\n      jump\t// in\n    tag_212:\n        /* \"Ethereum/Presale.sol\":6169:6170  1 */\n      0x01\n        /* \"Ethereum/Presale.sol\":6157:6170  status() == 1 */\n      eq\n        /* \"Ethereum/Presale.sol\":6149:6187  require(status() == 1, \"Sale sucesss\") */\n      tag_213\n      jumpi\n      mload(0x40)\n      shl(0xe5, 0x461bcd)\n      dup2\n      mstore\n        /* \"#utility.yul\":7796:7798   */\n      0x20\n        /* \"Ethereum/Presale.sol\":6149:6187  require(status() == 1, \"Sale sucesss\") */\n      0x04\n      dup3\n      add\n        /* \"#utility.yul\":7778:7799   */\n      mstore\n        /* \"#utility.yul\":7835:7837   */\n      0x0c\n        /* \"#utility.yul\":7815:7833   */\n      0x24\n      dup3\n      add\n        /* \"#utility.yul\":7808:7838   */\n      mstore\n      shl(0xa0, 0x53616c652073756365737373)\n        /* \"#utility.yul\":7854:7872   */\n      0x44\n      dup3\n      add\n        /* \"#utility.yul\":7847:7889   */\n      mstore\n        /* \"#utility.yul\":7906:7924   */\n      0x64\n      add\n        /* \"Ethereum/Presale.sol\":6149:6187  require(status() == 1, \"Sale sucesss\") */\n      tag_119\n        /* \"#utility.yul\":7768:7930   */\n      jump\n        /* \"Ethereum/Presale.sol\":6149:6187  require(status() == 1, \"Sale sucesss\") */\n    tag_213:\n        /* \"Ethereum/Presale.sol\":6238:6270  presaleStatus.totalTokenWithDraw */\n      sload(0x06)\n        /* \"Ethereum/Presale.sol\":6207:6235  presaleStatus.totalTokenSold */\n      sload(0x05)\n        /* \"Ethereum/Presale.sol\":6273:6274  0 */\n      0x00\n      swap2\n        /* \"Ethereum/Presale.sol\":6207:6270  presaleStatus.totalTokenSold - presaleStatus.totalTokenWithDraw */\n      tag_215\n      swap2\n      tag_194\n      jump\t// in\n    tag_215:\n        /* \"Ethereum/Presale.sol\":6207:6274  presaleStatus.totalTokenSold - presaleStatus.totalTokenWithDraw > 0 */\n      gt\n        /* \"Ethereum/Presale.sol\":6199:6333  require(presaleStatus.totalTokenSold - presaleStatus.totalTokenWithDraw > 0, \r... */\n      tag_216\n      jumpi\n      mload(0x40)\n      shl(0xe5, 0x461bcd)\n      dup2\n      mstore\n        /* \"#utility.yul\":5195:5197   */\n      0x20\n        /* \"Ethereum/Presale.sol\":6199:6333  require(presaleStatus.totalTokenSold - presaleStatus.totalTokenWithDraw > 0, \r... */\n      0x04\n      dup3\n      add\n        /* \"#utility.yul\":5177:5198   */\n      mstore\n        /* \"#utility.yul\":5234:5236   */\n      0x1b\n        /* \"#utility.yul\":5214:5232   */\n      0x24\n      dup3\n      add\n        /* \"#utility.yul\":5207:5237   */\n      mstore\n        /* \"#utility.yul\":5273:5302   */\n      0x416c6c20746f6b656e20686173206265656e2077697468647261770000000000\n        /* \"#utility.yul\":5253:5271   */\n      0x44\n      dup3\n      add\n        /* \"#utility.yul\":5246:5303   */\n      mstore\n        /* \"#utility.yul\":5320:5338   */\n      0x64\n      add\n        /* \"Ethereum/Presale.sol\":6199:6333  require(presaleStatus.totalTokenSold - presaleStatus.totalTokenWithDraw > 0, \r... */\n      tag_119\n        /* \"#utility.yul\":5167:5344   */\n      jump\n        /* \"Ethereum/Presale.sol\":6199:6333  require(presaleStatus.totalTokenSold - presaleStatus.totalTokenWithDraw > 0, \r... */\n    tag_216:\n        /* \"Ethereum/Presale.sol\":6380:6390  msg.sender */\n      caller\n        /* \"Ethereum/Presale.sol\":6344:6367  BuyerInfo storage buyer */\n      0x00\n        /* \"Ethereum/Presale.sol\":6370:6391  buyerInfo[msg.sender] */\n      swap1\n      dup2\n      mstore\n        /* \"Ethereum/Presale.sol\":6370:6379  buyerInfo */\n      0x02\n        /* \"Ethereum/Presale.sol\":6370:6391  buyerInfo[msg.sender] */\n      0x20\n      mstore\n      0x40\n      swap1\n      keccak256\n        /* \"Ethereum/Presale.sol\":6429:6453  buyer.totalTokenWithDraw */\n      0x03\n      dup2\n      add\n      sload\n        /* \"Ethereum/Presale.sol\":6410:6426  buyer.tokenOwner */\n      0x01\n      dup3\n      add\n      sload\n        /* \"Ethereum/Presale.sol\":6410:6453  buyer.tokenOwner > buyer.totalTokenWithDraw */\n      gt\n        /* \"Ethereum/Presale.sol\":6402:6494  require(buyer.tokenOwner > buyer.totalTokenWithDraw, \"You claim all or have not bought yet\") */\n      tag_218\n      jumpi\n      mload(0x40)\n      shl(0xe5, 0x461bcd)\n      dup2\n      mstore\n        /* \"#utility.yul\":7046:7048   */\n      0x20\n        /* \"Ethereum/Presale.sol\":6402:6494  require(buyer.tokenOwner > buyer.totalTokenWithDraw, \"You claim all or have not bought yet\") */\n      0x04\n      dup3\n      add\n        /* \"#utility.yul\":7028:7049   */\n      mstore\n        /* \"#utility.yul\":7085:7087   */\n      0x24\n        /* \"#utility.yul\":7065:7083   */\n      dup1\n      dup3\n      add\n        /* \"#utility.yul\":7058:7088   */\n      mstore\n        /* \"#utility.yul\":7124:7158   */\n      0x596f7520636c61696d20616c6c206f722068617665206e6f7420626f75676874\n        /* \"#utility.yul\":7104:7122   */\n      0x44\n      dup3\n      add\n        /* \"#utility.yul\":7097:7159   */\n      mstore\n      shl(0xe2, 0x081e595d)\n        /* \"#utility.yul\":7175:7193   */\n      0x64\n      dup3\n      add\n        /* \"#utility.yul\":7168:7202   */\n      mstore\n        /* \"#utility.yul\":7219:7238   */\n      0x84\n      add\n        /* \"Ethereum/Presale.sol\":6402:6494  require(buyer.tokenOwner > buyer.totalTokenWithDraw, \"You claim all or have not bought yet\") */\n      tag_119\n        /* \"#utility.yul\":7018:7244   */\n      jump\n        /* \"Ethereum/Presale.sol\":6402:6494  require(buyer.tokenOwner > buyer.totalTokenWithDraw, \"You claim all or have not bought yet\") */\n    tag_218:\n        /* \"Ethereum/Presale.sol\":6505:6524  uint256 amountClaim */\n      0x00\n        /* \"Ethereum/Presale.sol\":6527:6663  ((uint256(1000).sub(saleInfor.claimFee))\r... */\n      tag_221\n        /* \"Ethereum/Presale.sol\":6657:6661  1000 */\n      0x03e8\n        /* \"Ethereum/Presale.sol\":6528:6616  (uint256(1000).sub(saleInfor.claimFee))\r... */\n      tag_202\n        /* \"Ethereum/Presale.sol\":6599:6604  buyer */\n      dup5\n        /* \"Ethereum/Presale.sol\":6599:6615  buyer.tokenOwner */\n      0x01\n      add\n      sload\n        /* \"Ethereum/Presale.sol\":6529:6566  uint256(1000).sub(saleInfor.claimFee) */\n      tag_203\n        /* \"Ethereum/Presale.sol\":6547:6556  saleInfor */\n      0x0d\n        /* \"Ethereum/Presale.sol\":6547:6565  saleInfor.claimFee */\n      0x09\n      add\n      sload\n        /* \"Ethereum/Presale.sol\":6537:6541  1000 */\n      0x03e8\n        /* \"Ethereum/Presale.sol\":6529:6546  uint256(1000).sub */\n      tag_204\n      swap1\n        /* \"Ethereum/Presale.sol\":6529:6566  uint256(1000).sub(saleInfor.claimFee) */\n      swap2\n      swap1\n      0xffffffff\n      and\n      jump\t// in\n        /* \"Ethereum/Presale.sol\":6527:6663  ((uint256(1000).sub(saleInfor.claimFee))\r... */\n    tag_221:\n        /* \"Ethereum/Presale.sol\":6505:6663  uint256 amountClaim = ((uint256(1000).sub(saleInfor.claimFee))\r... */\n      swap1\n      pop\n        /* \"Ethereum/Presale.sol\":6710:6721  amountClaim */\n      dup1\n        /* \"Ethereum/Presale.sol\":6674:6687  presaleStatus */\n      0x04\n        /* \"Ethereum/Presale.sol\":6674:6706  presaleStatus.totalTokenWithDraw */\n      0x02\n      add\n      0x00\n        /* \"Ethereum/Presale.sol\":6674:6721  presaleStatus.totalTokenWithDraw += amountClaim */\n      dup3\n      dup3\n      sload\n      tag_224\n      swap2\n      swap1\n      tag_207\n      jump\t// in\n    tag_224:\n      swap3\n      pop\n      pop\n      dup2\n      swap1\n      sstore\n      pop\n        /* \"Ethereum/Presale.sol\":6760:6771  amountClaim */\n      dup1\n        /* \"Ethereum/Presale.sol\":6732:6737  buyer */\n      dup3\n        /* \"Ethereum/Presale.sol\":6732:6756  buyer.totalTokenWithDraw */\n      0x03\n      add\n      0x00\n        /* \"Ethereum/Presale.sol\":6732:6771  buyer.totalTokenWithDraw += amountClaim */\n      dup3\n      dup3\n      sload\n      tag_225\n      swap2\n      swap1\n      tag_207\n      jump\t// in\n    tag_225:\n      swap1\n      swap2\n      sstore\n      pop\n      pop\n        /* \"Ethereum/Presale.sol\":6803:6804  0 */\n      0x00\n        /* \"Ethereum/Presale.sol\":6782:6804  buyer.baseDeposit  = 0 */\n      dup1\n      dup4\n      sstore\n        /* \"Ethereum/Presale.sol\":6815:6831  buyer.tokenOwner */\n      0x01\n      dup4\n      add\n        /* \"Ethereum/Presale.sol\":6815:6835  buyer.tokenOwner = 0 */\n      sstore\n        /* \"Ethereum/Presale.sol\":6867:6882  block.timestamp */\n      timestamp\n        /* \"Ethereum/Presale.sol\":6846:6864  buyer.lastWithDraw */\n      0x02\n      dup4\n      add\n        /* \"Ethereum/Presale.sol\":6846:6882  buyer.lastWithDraw = block.timestamp */\n      sstore\n        /* \"Ethereum/Presale.sol\":6899:6918  saleInfor.saleToken */\n      sload(0x0e)\n        /* \"Ethereum/Presale.sol\":6893:6953  ERC20(saleInfor.saleToken).transfer(msg.sender, amountClaim) */\n      mload(0x40)\n      shl(0xe0, 0xa9059cbb)\n      dup2\n      mstore\n        /* \"Ethereum/Presale.sol\":6929:6939  msg.sender */\n      caller\n        /* \"Ethereum/Presale.sol\":6893:6953  ERC20(saleInfor.saleToken).transfer(msg.sender, amountClaim) */\n      0x04\n      dup3\n      add\n        /* \"#utility.yul\":4474:4525   */\n      mstore\n        /* \"#utility.yul\":4541:4559   */\n      0x24\n      dup2\n      add\n        /* \"#utility.yul\":4534:4568   */\n      dup4\n      swap1\n      mstore\n      sub(shl(0xa0, 0x01), 0x01)\n        /* \"Ethereum/Presale.sol\":6899:6918  saleInfor.saleToken */\n      swap1\n      swap2\n      and\n      swap1\n        /* \"Ethereum/Presale.sol\":6893:6928  ERC20(saleInfor.saleToken).transfer */\n      0xa9059cbb\n      swap1\n        /* \"#utility.yul\":4447:4465   */\n      0x44\n      add\n        /* \"Ethereum/Presale.sol\":6893:6953  ERC20(saleInfor.saleToken).transfer(msg.sender, amountClaim) */\n      0x20\n      mload(0x40)\n      dup1\n      dup4\n      sub\n      dup2\n      0x00\n      dup8\n      dup1\n      extcodesize\n      iszero\n      dup1\n      iszero\n      tag_228\n      jumpi\n      0x00\n      dup1\n      revert\n    tag_228:\n      pop\n      gas\n      call\n      iszero\n      dup1\n      iszero\n      tag_230\n      jumpi\n      returndatasize\n      0x00\n      dup1\n      returndatacopy\n      revert(0x00, returndatasize)\n    tag_230:\n      pop\n      pop\n      pop\n      pop\n      mload(0x40)\n      returndatasize\n      not(0x1f)\n      0x1f\n      dup3\n      add\n      and\n      dup3\n      add\n      dup1\n      0x40\n      mstore\n      pop\n      dup2\n      add\n      swap1\n      tag_231\n      swap2\n      swap1\n      tag_232\n      jump\t// in\n    tag_231:\n      pop\n      pop\n        /* \"Utils/ReentrancyGuard.sol\":1734:1735  1 */\n      0x01\n        /* \"Utils/ReentrancyGuard.sol\":2688:2695  _status */\n      0x00\n        /* \"Utils/ReentrancyGuard.sol\":2688:2710  _status = _NOT_ENTERED */\n      sstore\n      pop\n        /* \"Ethereum/Presale.sol\":6086:6961  function userClaimEmergency() external nonReentrant {\r... */\n      jump\t// out\n        /* \"Ethereum/Presale.sol\":3952:6078  function deposit(uint256 _amount) external payable nonReentrant {\r... */\n    tag_87:\n        /* \"Utils/ReentrancyGuard.sol\":1778:1779  2 */\n      0x02\n        /* \"Utils/ReentrancyGuard.sol\":2376:2383  _status */\n      sload(0x00)\n        /* \"Utils/ReentrancyGuard.sol\":2376:2395  _status != _ENTERED */\n      eq\n      iszero\n        /* \"Utils/ReentrancyGuard.sol\":2368:2431  require(_status != _ENTERED, \"ReentrancyGuard: reentrant call\") */\n      tag_234\n      jumpi\n      mload(0x40)\n      shl(0xe5, 0x461bcd)\n      dup2\n      mstore\n      0x04\n      add\n      tag_119\n      swap1\n      tag_187\n      jump\t// in\n    tag_234:\n        /* \"Utils/ReentrancyGuard.sol\":1778:1779  2 */\n      0x02\n        /* \"Utils/ReentrancyGuard.sol\":2509:2516  _status */\n      0x00\n        /* \"Utils/ReentrancyGuard.sol\":2509:2527  _status = _ENTERED */\n      sstore\n        /* \"Ethereum/Presale.sol\":4035:4043  status() */\n      tag_237\n        /* \"Ethereum/Presale.sol\":4035:4041  status */\n      tag_41\n        /* \"Ethereum/Presale.sol\":4035:4043  status() */\n      jump\t// in\n    tag_237:\n        /* \"Ethereum/Presale.sol\":4047:4048  1 */\n      0x01\n        /* \"Ethereum/Presale.sol\":4035:4048  status() == 1 */\n      eq\n        /* \"Ethereum/Presale.sol\":4027:4063  require(status() == 1, \"Not active\") */\n      tag_238\n      jumpi\n      mload(0x40)\n      shl(0xe5, 0x461bcd)\n      dup2\n      mstore\n        /* \"#utility.yul\":6707:6709   */\n      0x20\n        /* \"Ethereum/Presale.sol\":4027:4063  require(status() == 1, \"Not active\") */\n      0x04\n      dup3\n      add\n        /* \"#utility.yul\":6689:6710   */\n      mstore\n        /* \"#utility.yul\":6746:6748   */\n      0x0a\n        /* \"#utility.yul\":6726:6744   */\n      0x24\n      dup3\n      add\n        /* \"#utility.yul\":6719:6749   */\n      mstore\n      shl(0xb0, 0x4e6f7420616374697665)\n        /* \"#utility.yul\":6765:6783   */\n      0x44\n      dup3\n      add\n        /* \"#utility.yul\":6758:6798   */\n      mstore\n        /* \"#utility.yul\":6815:6833   */\n      0x64\n      add\n        /* \"Ethereum/Presale.sol\":4027:4063  require(status() == 1, \"Not active\") */\n      tag_119\n        /* \"#utility.yul\":6679:6839   */\n      jump\n        /* \"Ethereum/Presale.sol\":4027:4063  require(status() == 1, \"Not active\") */\n    tag_238:\n        /* \"Ethereum/Presale.sol\":4120:4130  msg.sender */\n      caller\n        /* \"Ethereum/Presale.sol\":4084:4107  BuyerInfo storage buyer */\n      0x00\n        /* \"Ethereum/Presale.sol\":4110:4131  buyerInfo[msg.sender] */\n      swap1\n      dup2\n      mstore\n        /* \"Ethereum/Presale.sol\":4110:4119  buyerInfo */\n      0x02\n        /* \"Ethereum/Presale.sol\":4110:4131  buyerInfo[msg.sender] */\n      0x20\n      mstore\n      0x40\n      dup2\n      keccak256\n        /* \"Ethereum/Presale.sol\":4316:4342  saleInfor.minSpendPerBuyer */\n      sload(0x13)\n        /* \"Ethereum/Presale.sol\":4110:4131  buyerInfo[msg.sender] */\n      swap1\n      swap2\n        /* \"Ethereum/Presale.sol\":4162:4169  _amount */\n      dup4\n      swap2\n      dup3\n      swap2\n        /* \"Ethereum/Presale.sol\":4084:4107  BuyerInfo storage buyer */\n      swap1\n        /* \"Ethereum/Presale.sol\":4275:4279  1000 */\n      0x03e8\n      swap1\n        /* \"Ethereum/Presale.sol\":4298:4342  real_amount_in >= saleInfor.minSpendPerBuyer */\n      dup4\n      lt\n      iszero\n        /* \"Ethereum/Presale.sol\":4290:4391  require(real_amount_in >= saleInfor.minSpendPerBuyer, \r... */\n      tag_241\n      jumpi\n      mload(0x40)\n      shl(0xe5, 0x461bcd)\n      dup2\n      mstore\n        /* \"#utility.yul\":7451:7453   */\n      0x20\n        /* \"Ethereum/Presale.sol\":4290:4391  require(real_amount_in >= saleInfor.minSpendPerBuyer, \r... */\n      0x04\n      dup3\n      add\n        /* \"#utility.yul\":7433:7454   */\n      mstore\n        /* \"#utility.yul\":7490:7492   */\n      0x10\n        /* \"#utility.yul\":7470:7488   */\n      0x24\n      dup3\n      add\n        /* \"#utility.yul\":7463:7493   */\n      mstore\n      shl(0x80, 0x4e6f7420656e6f7567682076616c7565)\n        /* \"#utility.yul\":7509:7527   */\n      0x44\n      dup3\n      add\n        /* \"#utility.yul\":7502:7548   */\n      mstore\n        /* \"#utility.yul\":7565:7583   */\n      0x64\n      add\n        /* \"Ethereum/Presale.sol\":4290:4391  require(real_amount_in >= saleInfor.minSpendPerBuyer, \r... */\n      tag_119\n        /* \"#utility.yul\":7423:7589   */\n      jump\n        /* \"Ethereum/Presale.sol\":4290:4391  require(real_amount_in >= saleInfor.minSpendPerBuyer, \r... */\n    tag_241:\n        /* \"Ethereum/Presale.sol\":4428:4454  saleInfor.maxSpendPerBuyer */\n      sload(0x14)\n        /* \"Ethereum/Presale.sol\":4410:4454  real_amount_in <= saleInfor.maxSpendPerBuyer */\n      dup4\n      gt\n      iszero\n        /* \"Ethereum/Presale.sol\":4402:4501  require(real_amount_in <= saleInfor.maxSpendPerBuyer, \r... */\n      tag_244\n      jumpi\n      mload(0x40)\n      shl(0xe5, 0x461bcd)\n      dup2\n      mstore\n        /* \"#utility.yul\":6364:6366   */\n      0x20\n        /* \"Ethereum/Presale.sol\":4402:4501  require(real_amount_in <= saleInfor.maxSpendPerBuyer, \r... */\n      0x04\n      dup3\n      add\n        /* \"#utility.yul\":6346:6367   */\n      mstore\n        /* \"#utility.yul\":6403:6405   */\n      0x0e\n        /* \"#utility.yul\":6383:6401   */\n      0x24\n      dup3\n      add\n        /* \"#utility.yul\":6376:6406   */\n      mstore\n      shl(0x90, 0x4f766572666c6f772076616c7565)\n        /* \"#utility.yul\":6422:6440   */\n      0x44\n      dup3\n      add\n        /* \"#utility.yul\":6415:6459   */\n      mstore\n        /* \"#utility.yul\":6476:6494   */\n      0x64\n      add\n        /* \"Ethereum/Presale.sol\":4402:4501  require(real_amount_in <= saleInfor.maxSpendPerBuyer, \r... */\n      tag_119\n        /* \"#utility.yul\":6336:6500   */\n      jump\n        /* \"Ethereum/Presale.sol\":4402:4501  require(real_amount_in <= saleInfor.maxSpendPerBuyer, \r... */\n    tag_244:\n        /* \"Ethereum/Presale.sol\":4516:4535  checkAdminAddress() */\n      tag_247\n        /* \"Ethereum/Presale.sol\":4516:4533  checkAdminAddress */\n      tag_90\n        /* \"Ethereum/Presale.sol\":4516:4535  checkAdminAddress() */\n      jump\t// in\n    tag_247:\n        /* \"Ethereum/Presale.sol\":4512:4778  if(!checkAdminAddress()) {\r... */\n      tag_248\n      jumpi\n        /* \"Ethereum/Presale.sol\":4569:4702  ((fullPercenFee.sub(feeAnyone))\r... */\n      tag_249\n        /* \"Ethereum/Presale.sol\":4688:4701  fullPercenFee */\n      dup2\n        /* \"Ethereum/Presale.sol\":4570:4651  (fullPercenFee.sub(feeAnyone))\r... */\n      tag_202\n        /* \"Ethereum/Presale.sol\":4636:4650  real_amount_in */\n      dup6\n        /* \"Ethereum/Presale.sol\":4571:4599  fullPercenFee.sub(feeAnyone) */\n      tag_203\n        /* \"Ethereum/Presale.sol\":4589:4598  feeAnyone */\n      sload(0x1a)\n        /* \"Ethereum/Presale.sol\":4571:4584  fullPercenFee */\n      dup7\n        /* \"Ethereum/Presale.sol\":4571:4588  fullPercenFee.sub */\n      tag_204\n      swap1\n        /* \"Ethereum/Presale.sol\":4571:4599  fullPercenFee.sub(feeAnyone) */\n      swap2\n      swap1\n      0xffffffff\n      and\n      jump\t// in\n        /* \"Ethereum/Presale.sol\":4569:4702  ((fullPercenFee.sub(feeAnyone))\r... */\n    tag_249:\n        /* \"Ethereum/Presale.sol\":4552:4702  real_amount_in = ((fullPercenFee.sub(feeAnyone))\r... */\n      swap3\n      pop\n        /* \"Ethereum/Presale.sol\":4723:4749  amount_in - real_amount_in */\n      tag_252\n        /* \"Ethereum/Presale.sol\":4552:4702  real_amount_in = ((fullPercenFee.sub(feeAnyone))\r... */\n      dup4\n        /* \"Ethereum/Presale.sol\":4723:4732  amount_in */\n      dup6\n        /* \"Ethereum/Presale.sol\":4723:4749  amount_in - real_amount_in */\n      tag_194\n      jump\t// in\n    tag_252:\n        /* \"Ethereum/Presale.sol\":4717:4749  fee = amount_in - real_amount_in */\n      swap2\n      pop\n        /* \"Ethereum/Presale.sol\":4512:4778  if(!checkAdminAddress()) {\r... */\n    tag_248:\n        /* \"Ethereum/Presale.sol\":4843:4860  buyer.baseDeposit */\n      dup5\n      sload\n        /* \"Ethereum/Presale.sol\":4814:4840  saleInfor.maxSpendPerBuyer */\n      sload(0x14)\n        /* \"Ethereum/Presale.sol\":4788:4811  uint256 remainingByUser */\n      0x00\n      swap2\n        /* \"Ethereum/Presale.sol\":4814:4860  saleInfor.maxSpendPerBuyer - buyer.baseDeposit */\n      tag_253\n      swap2\n      tag_194\n      jump\t// in\n    tag_253:\n        /* \"Ethereum/Presale.sol\":4928:4941  presaleStatus */\n      0x04\n        /* \"Ethereum/Presale.sol\":4928:4960  presaleStatus.totalBaseCollected */\n      sload\n        /* \"Ethereum/Presale.sol\":4897:4925  saleInfor.amountTokenForSale */\n      sload(0x18)\n        /* \"Ethereum/Presale.sol\":4788:4860  uint256 remainingByUser = saleInfor.maxSpendPerBuyer - buyer.baseDeposit */\n      swap2\n      swap3\n      pop\n        /* \"Ethereum/Presale.sol\":4871:4894  uint256 remainingByPool */\n      0x00\n      swap2\n        /* \"Ethereum/Presale.sol\":4897:4960  saleInfor.amountTokenForSale - presaleStatus.totalBaseCollected */\n      tag_254\n      swap2\n        /* \"Ethereum/Presale.sol\":4928:4960  presaleStatus.totalBaseCollected */\n      swap1\n        /* \"Ethereum/Presale.sol\":4897:4960  saleInfor.amountTokenForSale - presaleStatus.totalBaseCollected */\n      tag_194\n      jump\t// in\n    tag_254:\n        /* \"Ethereum/Presale.sol\":4871:4960  uint256 remainingByPool = saleInfor.amountTokenForSale - presaleStatus.totalBaseCollected */\n      swap1\n      pop\n        /* \"Ethereum/Presale.sol\":4971:4988  uint256 allowance */\n      0x00\n        /* \"Ethereum/Presale.sol\":5009:5024  remainingByPool */\n      dup2\n        /* \"Ethereum/Presale.sol\":4991:5006  remainingByUser */\n      dup4\n        /* \"Ethereum/Presale.sol\":4991:5024  remainingByUser > remainingByPool */\n      gt\n        /* \"Ethereum/Presale.sol\":4991:5060  remainingByUser > remainingByPool ? remainingByPool : remainingByUser */\n      tag_255\n      jumpi\n        /* \"Ethereum/Presale.sol\":5045:5060  remainingByUser */\n      dup3\n        /* \"Ethereum/Presale.sol\":4991:5060  remainingByUser > remainingByPool ? remainingByPool : remainingByUser */\n      jump(tag_256)\n    tag_255:\n        /* \"Ethereum/Presale.sol\":5027:5042  remainingByPool */\n      dup2\n        /* \"Ethereum/Presale.sol\":4991:5060  remainingByUser > remainingByPool ? remainingByPool : remainingByUser */\n    tag_256:\n        /* \"Ethereum/Presale.sol\":4971:5060  uint256 allowance = remainingByUser > remainingByPool ? remainingByPool : remainingByUser */\n      swap1\n      pop\n        /* \"Ethereum/Presale.sol\":5097:5106  allowance */\n      dup1\n        /* \"Ethereum/Presale.sol\":5079:5093  real_amount_in */\n      dup7\n        /* \"Ethereum/Presale.sol\":5079:5106  real_amount_in <= allowance */\n      gt\n      iszero\n        /* \"Ethereum/Presale.sol\":5071:5126  require(real_amount_in <= allowance, \"Sale is success\") */\n      tag_257\n      jumpi\n      mload(0x40)\n      shl(0xe5, 0x461bcd)\n      dup2\n      mstore\n        /* \"#utility.yul\":9263:9265   */\n      0x20\n        /* \"Ethereum/Presale.sol\":5071:5126  require(real_amount_in <= allowance, \"Sale is success\") */\n      0x04\n      dup3\n      add\n        /* \"#utility.yul\":9245:9266   */\n      mstore\n        /* \"#utility.yul\":9302:9304   */\n      0x0f\n        /* \"#utility.yul\":9282:9300   */\n      0x24\n      dup3\n      add\n        /* \"#utility.yul\":9275:9305   */\n      mstore\n      shl(0x88, 0x53616c652069732073756363657373)\n        /* \"#utility.yul\":9321:9339   */\n      0x44\n      dup3\n      add\n        /* \"#utility.yul\":9314:9359   */\n      mstore\n        /* \"#utility.yul\":9376:9394   */\n      0x64\n      add\n        /* \"Ethereum/Presale.sol\":5071:5126  require(real_amount_in <= allowance, \"Sale is success\") */\n      tag_119\n        /* \"#utility.yul\":9235:9400   */\n      jump\n        /* \"Ethereum/Presale.sol\":5071:5126  require(real_amount_in <= allowance, \"Sale is success\") */\n    tag_257:\n        /* \"Ethereum/Presale.sol\":5137:5154  uint256 tokenSold */\n      0x00\n        /* \"Ethereum/Presale.sol\":5158:5316  real_amount_in.\r... */\n      tag_260\n        /* \"Ethereum/Presale.sol\":5283:5292  saleInfor */\n      0x0d\n        /* \"Ethereum/Presale.sol\":5283:5302  saleInfor.baseToken */\n      0x02\n      add\n      0x00\n      swap1\n      sload\n      swap1\n      0x0100\n      exp\n      swap1\n      div\n      sub(shl(0xa0, 0x01), 0x01)\n      and\n      sub(shl(0xa0, 0x01), 0x01)\n        /* \"Ethereum/Presale.sol\":5277:5312  ERC20(saleInfor.baseToken).decimals */\n      and\n      0x313ce567\n        /* \"Ethereum/Presale.sol\":5277:5314  ERC20(saleInfor.baseToken).decimals() */\n      mload(0x40)\n      dup2\n      0xffffffff\n      and\n      0xe0\n      shl\n      dup2\n      mstore\n      0x04\n      add\n      0x20\n      mload(0x40)\n      dup1\n      dup4\n      sub\n      dup2\n      dup7\n      dup1\n      extcodesize\n      iszero\n      dup1\n      iszero\n      tag_261\n      jumpi\n      0x00\n      dup1\n      revert\n    tag_261:\n      pop\n      gas\n      staticcall\n      iszero\n      dup1\n      iszero\n      tag_263\n      jumpi\n      returndatasize\n      0x00\n      dup1\n      returndatacopy\n      revert(0x00, returndatasize)\n    tag_263:\n      pop\n      pop\n      pop\n      pop\n      mload(0x40)\n      returndatasize\n      not(0x1f)\n      0x1f\n      dup3\n      add\n      and\n      dup3\n      add\n      dup1\n      0x40\n      mstore\n      pop\n      dup2\n      add\n      swap1\n      tag_264\n      swap2\n      swap1\n      tag_133\n      jump\t// in\n    tag_264:\n        /* \"Ethereum/Presale.sol\":5263:5315  10 ** uint256(ERC20(saleInfor.baseToken).decimals()) */\n      tag_265\n      swap1\n        /* \"Ethereum/Presale.sol\":5263:5265  10 */\n      0x0a\n        /* \"Ethereum/Presale.sol\":5263:5315  10 ** uint256(ERC20(saleInfor.baseToken).decimals()) */\n      tag_135\n      jump\t// in\n    tag_265:\n        /* \"Ethereum/Presale.sol\":5207:5227  saleInfor.tokenPrice */\n      sload(0x10)\n        /* \"Ethereum/Presale.sol\":5158:5228  real_amount_in.\r... */\n      tag_202\n      swap1\n        /* \"Ethereum/Presale.sol\":5158:5172  real_amount_in */\n      dup11\n      swap1\n        /* \"Ethereum/Presale.sol\":5158:5206  real_amount_in.\r... */\n      tag_181\n        /* \"Ethereum/Presale.sol\":5158:5228  real_amount_in.\r... */\n      jump\t// in\n        /* \"Ethereum/Presale.sol\":5158:5316  real_amount_in.\r... */\n    tag_260:\n        /* \"Ethereum/Presale.sol\":5137:5317  uint256 tokenSold = (real_amount_in.\r... */\n      swap1\n      pop\n        /* \"Ethereum/Presale.sol\":5366:5375  amount_in */\n      dup8\n        /* \"Ethereum/Presale.sol\":5345:5350  buyer */\n      dup10\n        /* \"Ethereum/Presale.sol\":5345:5362  buyer.baseDeposit */\n      0x00\n      add\n      0x00\n        /* \"Ethereum/Presale.sol\":5345:5375  buyer.baseDeposit += amount_in */\n      dup3\n      dup3\n      sload\n      tag_267\n      swap2\n      swap1\n      tag_207\n      jump\t// in\n    tag_267:\n      swap3\n      pop\n      pop\n      dup2\n      swap1\n      sstore\n      pop\n        /* \"Ethereum/Presale.sol\":5406:5415  tokenSold */\n      dup1\n        /* \"Ethereum/Presale.sol\":5386:5391  buyer */\n      dup10\n        /* \"Ethereum/Presale.sol\":5386:5402  buyer.tokenOwner */\n      0x01\n      add\n      0x00\n        /* \"Ethereum/Presale.sol\":5386:5415  buyer.tokenOwner += tokenSold */\n      dup3\n      dup3\n      sload\n      tag_268\n      swap2\n      swap1\n      tag_207\n      jump\t// in\n    tag_268:\n      swap1\n      swap2\n      sstore\n      pop\n      pop\n        /* \"Ethereum/Presale.sol\":5426:5439  presaleStatus */\n      0x04\n        /* \"Ethereum/Presale.sol\":5426:5476  presaleStatus.totalBaseCollected += real_amount_in */\n      dup1\n      sload\n        /* \"Ethereum/Presale.sol\":5462:5476  real_amount_in */\n      dup9\n      swap2\n        /* \"Ethereum/Presale.sol\":5426:5439  presaleStatus */\n      swap1\n        /* \"Ethereum/Presale.sol\":5426:5458  presaleStatus.totalBaseCollected */\n      0x00\n      swap1\n        /* \"Ethereum/Presale.sol\":5426:5476  presaleStatus.totalBaseCollected += real_amount_in */\n      tag_269\n      swap1\n        /* \"Ethereum/Presale.sol\":5462:5476  real_amount_in */\n      dup5\n      swap1\n        /* \"Ethereum/Presale.sol\":5426:5476  presaleStatus.totalBaseCollected += real_amount_in */\n      tag_207\n      jump\t// in\n    tag_269:\n      swap1\n      swap2\n      sstore\n      pop\n      pop\n        /* \"Ethereum/Presale.sol\":5487:5515  presaleStatus.totalTokenSold */\n      0x05\n        /* \"Ethereum/Presale.sol\":5487:5528  presaleStatus.totalTokenSold += tokenSold */\n      dup1\n      sload\n        /* \"Ethereum/Presale.sol\":5519:5528  tokenSold */\n      dup3\n      swap2\n        /* \"Ethereum/Presale.sol\":5487:5515  presaleStatus.totalTokenSold */\n      swap1\n      0x00\n      swap1\n        /* \"Ethereum/Presale.sol\":5487:5528  presaleStatus.totalTokenSold += tokenSold */\n      tag_270\n      swap1\n        /* \"Ethereum/Presale.sol\":5519:5528  tokenSold */\n      dup5\n      swap1\n        /* \"Ethereum/Presale.sol\":5487:5528  presaleStatus.totalTokenSold += tokenSold */\n      tag_207\n      jump\t// in\n    tag_270:\n      swap1\n      swap2\n      sstore\n      pop\n      pop\n        /* \"Ethereum/Presale.sol\":5539:5564  presaleStatus.numberBuyer */\n      0x08\n        /* \"Ethereum/Presale.sol\":5539:5566  presaleStatus.numberBuyer++ */\n      dup1\n      sload\n      swap1\n        /* \"Ethereum/Presale.sol\":5539:5564  presaleStatus.numberBuyer */\n      0x00\n        /* \"Ethereum/Presale.sol\":5539:5566  presaleStatus.numberBuyer++ */\n      tag_271\n      dup4\n      tag_272\n      jump\t// in\n    tag_271:\n      swap1\n      swap2\n      sstore\n      pop\n      pop\n        /* \"Ethereum/Presale.sol\":5585:5595  msg.sender */\n      caller\n        /* \"Ethereum/Presale.sol\":5577:5596  userFee[msg.sender] */\n      0x00\n      swap1\n      dup2\n      mstore\n        /* \"Ethereum/Presale.sol\":5577:5584  userFee */\n      0x03\n        /* \"Ethereum/Presale.sol\":5577:5596  userFee[msg.sender] */\n      0x20\n      mstore\n      0x40\n      dup2\n      keccak256\n        /* \"Ethereum/Presale.sol\":5577:5603  userFee[msg.sender] += fee */\n      dup1\n      sload\n        /* \"Ethereum/Presale.sol\":5600:5603  fee */\n      dup9\n      swap3\n        /* \"Ethereum/Presale.sol\":5577:5596  userFee[msg.sender] */\n      swap1\n        /* \"Ethereum/Presale.sol\":5577:5603  userFee[msg.sender] += fee */\n      tag_273\n      swap1\n        /* \"Ethereum/Presale.sol\":5600:5603  fee */\n      dup5\n      swap1\n        /* \"Ethereum/Presale.sol\":5577:5603  userFee[msg.sender] += fee */\n      tag_207\n      jump\t// in\n    tag_273:\n      swap3\n      pop\n      pop\n      dup2\n      swap1\n      sstore\n      pop\n        /* \"Ethereum/Presale.sol\":5626:5629  fee */\n      dup6\n        /* \"Ethereum/Presale.sol\":5614:5622  totalFee */\n      0x1d\n      0x00\n        /* \"Ethereum/Presale.sol\":5614:5629  totalFee += fee */\n      dup3\n      dup3\n      sload\n      tag_274\n      swap2\n      swap1\n      tag_207\n      jump\t// in\n    tag_274:\n      swap1\n      swap2\n      sstore\n      pop\n      pop\n        /* \"Ethereum/Presale.sol\":5645:5670  saleInfor.saleIsBaseToken */\n      and(0xff, sload(0x17))\n        /* \"Ethereum/Presale.sol\":5645:5706  saleInfor.saleIsBaseToken && real_amount_in + fee < msg.value */\n      dup1\n      iszero\n      tag_275\n      jumpi\n      pop\n        /* \"Ethereum/Presale.sol\":5697:5706  msg.value */\n      callvalue\n        /* \"Ethereum/Presale.sol\":5674:5694  real_amount_in + fee */\n      tag_276\n        /* \"Ethereum/Presale.sol\":5691:5694  fee */\n      dup8\n        /* \"Ethereum/Presale.sol\":5674:5688  real_amount_in */\n      dup10\n        /* \"Ethereum/Presale.sol\":5674:5694  real_amount_in + fee */\n      tag_207\n      jump\t// in\n    tag_276:\n        /* \"Ethereum/Presale.sol\":5674:5706  real_amount_in + fee < msg.value */\n      lt\n        /* \"Ethereum/Presale.sol\":5645:5706  saleInfor.saleIsBaseToken && real_amount_in + fee < msg.value */\n    tag_275:\n        /* \"Ethereum/Presale.sol\":5642:5797  if(saleInfor.saleIsBaseToken && real_amount_in + fee < msg.value) {\r... */\n      iszero\n      tag_277\n      jumpi\n        /* \"Ethereum/Presale.sol\":5731:5741  msg.sender */\n      caller\n        /* \"Ethereum/Presale.sol\":5723:5785  payable(msg.sender).transfer(msg.value - real_amount_in - fee) */\n      0x08fc\n        /* \"Ethereum/Presale.sol\":5781:5784  fee */\n      dup8\n        /* \"Ethereum/Presale.sol\":5752:5778  msg.value - real_amount_in */\n      tag_278\n        /* \"Ethereum/Presale.sol\":5764:5778  real_amount_in */\n      dup11\n        /* \"Ethereum/Presale.sol\":5752:5761  msg.value */\n      callvalue\n        /* \"Ethereum/Presale.sol\":5752:5778  msg.value - real_amount_in */\n      tag_194\n      jump\t// in\n    tag_278:\n        /* \"Ethereum/Presale.sol\":5752:5784  msg.value - real_amount_in - fee */\n      tag_279\n      swap2\n      swap1\n      tag_194\n      jump\t// in\n    tag_279:\n        /* \"Ethereum/Presale.sol\":5723:5785  payable(msg.sender).transfer(msg.value - real_amount_in - fee) */\n      mload(0x40)\n      dup2\n      iszero\n      swap1\n      swap3\n      mul\n      swap2\n      0x00\n      dup2\n      dup2\n      dup2\n      dup6\n      dup9\n      dup9\n      call\n      swap4\n      pop\n      pop\n      pop\n      pop\n      iszero\n      dup1\n      iszero\n      tag_281\n      jumpi\n      returndatasize\n      0x00\n      dup1\n      returndatacopy\n      revert(0x00, returndatasize)\n    tag_281:\n      pop\n        /* \"Ethereum/Presale.sol\":5642:5797  if(saleInfor.saleIsBaseToken && real_amount_in + fee < msg.value) {\r... */\n    tag_277:\n        /* \"Ethereum/Presale.sol\":5812:5837  saleInfor.saleIsBaseToken */\n      and(0xff, sload(0x17))\n        /* \"Ethereum/Presale.sol\":5808:6059  if(!saleInfor.saleIsBaseToken) {\r... */\n      tag_283\n      jumpi\n        /* \"Ethereum/Presale.sol\":5912:5931  saleInfor.baseToken */\n      sload(0x0f)\n        /* \"Ethereum/Presale.sol\":5854:6047  TransferHelper.safeTransferFrom(\r... */\n      tag_283\n      swap1\n      sub(shl(0xa0, 0x01), 0x01)\n        /* \"Ethereum/Presale.sol\":5912:5931  saleInfor.baseToken */\n      and\n        /* \"Ethereum/Presale.sol\":5951:5961  msg.sender */\n      caller\n        /* \"Ethereum/Presale.sol\":5988:5992  this */\n      address\n        /* \"Ethereum/Presale.sol\":6012:6032  real_amount_in + fee */\n      tag_284\n        /* \"Ethereum/Presale.sol\":6029:6032  fee */\n      dup11\n        /* \"Ethereum/Presale.sol\":6012:6026  real_amount_in */\n      dup13\n        /* \"Ethereum/Presale.sol\":6012:6032  real_amount_in + fee */\n      tag_207\n      jump\t// in\n    tag_284:\n        /* \"Ethereum/Presale.sol\":5854:5885  TransferHelper.safeTransferFrom */\n      tag_285\n        /* \"Ethereum/Presale.sol\":5854:6047  TransferHelper.safeTransferFrom(\r... */\n      jump\t// in\n    tag_283:\n      pop\n      pop\n        /* \"Utils/ReentrancyGuard.sol\":1734:1735  1 */\n      0x01\n        /* \"Utils/ReentrancyGuard.sol\":2688:2695  _status */\n      0x00\n        /* \"Utils/ReentrancyGuard.sol\":2688:2710  _status = _NOT_ENTERED */\n      sstore\n      pop\n      pop\n      pop\n      pop\n      pop\n      pop\n      pop\n      pop\n        /* \"Ethereum/Presale.sol\":3952:6078  function deposit(uint256 _amount) external payable nonReentrant {\r... */\n      jump\t// out\n        /* \"Ethereum/Presale.sol\":3834:3944  function checkAdminAddress() public view returns(bool) {\r... */\n    tag_90:\n        /* \"Ethereum/Presale.sol\":3883:3887  bool */\n      0x00\n        /* \"Ethereum/Presale.sol\":3907:3936  admins.contains(_msgSender()) */\n      tag_287\n        /* \"Ethereum/Presale.sol\":3907:3913  admins */\n      0x1b\n        /* \"Utils/Context.sol\":736:746  msg.sender */\n      caller\n        /* \"Ethereum/Presale.sol\":3907:3922  admins.contains */\n      tag_289\n        /* \"Ethereum/Presale.sol\":3907:3936  admins.contains(_msgSender()) */\n      jump\t// in\n    tag_287:\n        /* \"Ethereum/Presale.sol\":3900:3936  return admins.contains(_msgSender()) */\n      swap1\n      pop\n        /* \"Ethereum/Presale.sol\":3834:3944  function checkAdminAddress() public view returns(bool) {\r... */\n      swap1\n      jump\t// out\n        /* \"Utils/Ownable.sol\":1972:2173  function transferOwnership(address newOwner) public virtual onlyOwner {\r... */\n    tag_102:\n        /* \"Utils/Ownable.sol\":1136:1142  _owner */\n      and(sub(shl(0xa0, 0x01), 0x01), sload(0x01))\n        /* \"Utils/Context.sol\":736:746  msg.sender */\n      caller\n        /* \"Utils/Ownable.sol\":1283:1306  owner() == _msgSender() */\n      eq\n        /* \"Utils/Ownable.sol\":1275:1343  require(owner() == _msgSender(), \"Ownable: caller is not the owner\") */\n      tag_293\n      jumpi\n      mload(0x40)\n      shl(0xe5, 0x461bcd)\n      dup2\n      mstore\n        /* \"#utility.yul\":8137:8139   */\n      0x20\n        /* \"Utils/Ownable.sol\":1275:1343  require(owner() == _msgSender(), \"Ownable: caller is not the owner\") */\n      0x04\n      dup3\n      add\n        /* \"#utility.yul\":8119:8140   */\n      dup2\n      swap1\n      mstore\n        /* \"#utility.yul\":8156:8174   */\n      0x24\n      dup3\n      add\n        /* \"#utility.yul\":8149:8179   */\n      mstore\n        /* \"#utility.yul\":8215:8249   */\n      0x4f776e61626c653a2063616c6c6572206973206e6f7420746865206f776e6572\n        /* \"#utility.yul\":8195:8213   */\n      0x44\n      dup3\n      add\n        /* \"#utility.yul\":8188:8250   */\n      mstore\n        /* \"#utility.yul\":8267:8285   */\n      0x64\n      add\n        /* \"Utils/Ownable.sol\":1275:1343  require(owner() == _msgSender(), \"Ownable: caller is not the owner\") */\n      tag_119\n        /* \"#utility.yul\":8109:8291   */\n      jump\n        /* \"Utils/Ownable.sol\":1275:1343  require(owner() == _msgSender(), \"Ownable: caller is not the owner\") */\n    tag_293:\n      sub(shl(0xa0, 0x01), 0x01)\n        /* \"Utils/Ownable.sol\":2061:2083  newOwner != address(0) */\n      dup2\n      and\n        /* \"Utils/Ownable.sol\":2053:2126  require(newOwner != address(0), \"Ownable: new owner is the zero address\") */\n      tag_296\n      jumpi\n      mload(0x40)\n      shl(0xe5, 0x461bcd)\n      dup2\n      mstore\n        /* \"#utility.yul\":5551:5553   */\n      0x20\n        /* \"Utils/Ownable.sol\":2053:2126  require(newOwner != address(0), \"Ownable: new owner is the zero address\") */\n      0x04\n      dup3\n      add\n        /* \"#utility.yul\":5533:5554   */\n      mstore\n        /* \"#utility.yul\":5590:5592   */\n      0x26\n        /* \"#utility.yul\":5570:5588   */\n      0x24\n      dup3\n      add\n        /* \"#utility.yul\":5563:5593   */\n      mstore\n        /* \"#utility.yul\":5629:5663   */\n      0x4f776e61626c653a206e6577206f776e657220697320746865207a65726f2061\n        /* \"#utility.yul\":5609:5627   */\n      0x44\n      dup3\n      add\n        /* \"#utility.yul\":5602:5664   */\n      mstore\n      shl(0xd0, 0x646472657373)\n        /* \"#utility.yul\":5680:5698   */\n      0x64\n      dup3\n      add\n        /* \"#utility.yul\":5673:5709   */\n      mstore\n        /* \"#utility.yul\":5726:5745   */\n      0x84\n      add\n        /* \"Utils/Ownable.sol\":2053:2126  require(newOwner != address(0), \"Ownable: new owner is the zero address\") */\n      tag_119\n        /* \"#utility.yul\":5523:5751   */\n      jump\n        /* \"Utils/Ownable.sol\":2053:2126  require(newOwner != address(0), \"Ownable: new owner is the zero address\") */\n    tag_296:\n        /* \"Utils/Ownable.sol\":2137:2165  _transferOwnership(newOwner) */\n      tag_126\n        /* \"Utils/Ownable.sol\":2156:2164  newOwner */\n      dup2\n        /* \"Utils/Ownable.sol\":2137:2155  _transferOwnership */\n      tag_123\n        /* \"Utils/Ownable.sol\":2137:2165  _transferOwnership(newOwner) */\n      jump\t// in\n        /* \"Utils/EnumerableSet.sol\":8259:8411  function add(AddressSet storage set, address value) internal returns (bool) {\r... */\n    tag_108:\n        /* \"Utils/EnumerableSet.sol\":8329:8333  bool */\n      0x00\n        /* \"Utils/EnumerableSet.sol\":8353:8403  _add(set._inner, bytes32(uint256(uint160(value)))) */\n      tag_302\n        /* \"Utils/EnumerableSet.sol\":8358:8361  set */\n      dup4\n      sub(shl(0xa0, 0x01), 0x01)\n        /* \"Utils/EnumerableSet.sol\":8378:8401  uint256(uint160(value)) */\n      dup5\n      and\n        /* \"Utils/EnumerableSet.sol\":8353:8357  _add */\n      tag_303\n        /* \"Utils/EnumerableSet.sol\":8353:8403  _add(set._inner, bytes32(uint256(uint160(value)))) */\n      jump\t// in\n    tag_302:\n        /* \"Utils/EnumerableSet.sol\":8346:8403  return _add(set._inner, bytes32(uint256(uint160(value)))) */\n      swap1\n      pop\n        /* \"Utils/EnumerableSet.sol\":8259:8411  function add(AddressSet storage set, address value) internal returns (bool) {\r... */\n    tag_301:\n      swap3\n      swap2\n      pop\n      pop\n      jump\t// out\n        /* \"Utils/Ownable.sol\":2333:2524  function _transferOwnership(address newOwner) internal virtual {\r... */\n    tag_123:\n        /* \"Utils/Ownable.sol\":2426:2432  _owner */\n      0x01\n      dup1\n      sload\n      sub(shl(0xa0, 0x01), 0x01)\n        /* \"Utils/Ownable.sol\":2443:2460  _owner = newOwner */\n      dup4\n      dup2\n      and\n      not(sub(shl(0xa0, 0x01), 0x01))\n      dup4\n      and\n      dup2\n      or\n      swap1\n      swap4\n      sstore\n        /* \"Utils/Ownable.sol\":2476:2516  OwnershipTransferred(oldOwner, newOwner) */\n      mload(0x40)\n        /* \"Utils/Ownable.sol\":2426:2432  _owner */\n      swap2\n      and\n      swap2\n        /* \"Utils/Ownable.sol\":2443:2460  _owner = newOwner */\n      swap1\n        /* \"Utils/Ownable.sol\":2426:2432  _owner */\n      dup3\n      swap1\n        /* \"Utils/Ownable.sol\":2476:2516  OwnershipTransferred(oldOwner, newOwner) */\n      0x8be0079c531659141344cd1fd0a4f28419497f9722a3daafe3b4186f6b6457e0\n      swap1\n        /* \"Utils/Ownable.sol\":2407:2423  address oldOwner */\n      0x00\n      swap1\n        /* \"Utils/Ownable.sol\":2476:2516  OwnershipTransferred(oldOwner, newOwner) */\n      log3\n        /* \"Utils/Ownable.sol\":2396:2524  {\r... */\n      pop\n        /* \"Utils/Ownable.sol\":2333:2524  function _transferOwnership(address newOwner) internal virtual {\r... */\n      pop\n      jump\t// out\n        /* \"Utils/SafeMath.sol\":3585:3683  function mul(uint256 a, uint256 b) internal pure returns (uint256) {\r... */\n    tag_181:\n        /* \"Utils/SafeMath.sol\":3643:3650  uint256 */\n      0x00\n        /* \"Utils/SafeMath.sol\":3670:3675  a * b */\n      tag_302\n        /* \"Utils/SafeMath.sol\":3674:3675  b */\n      dup3\n        /* \"Utils/SafeMath.sol\":3670:3671  a */\n      dup5\n        /* \"Utils/SafeMath.sol\":3670:3675  a * b */\n      tag_140\n      jump\t// in\n        /* \"Utils/SafeMath.sol\":3228:3326  function sub(uint256 a, uint256 b) internal pure returns (uint256) {\r... */\n    tag_204:\n        /* \"Utils/SafeMath.sol\":3286:3293  uint256 */\n      0x00\n        /* \"Utils/SafeMath.sol\":3313:3318  a - b */\n      tag_302\n        /* \"Utils/SafeMath.sol\":3317:3318  b */\n      dup3\n        /* \"Utils/SafeMath.sol\":3313:3314  a */\n      dup5\n        /* \"Utils/SafeMath.sol\":3313:3318  a - b */\n      tag_194\n      jump\t// in\n        /* \"Utils/SafeMath.sol\":3984:4082  function div(uint256 a, uint256 b) internal pure returns (uint256) {\r... */\n    tag_205:\n        /* \"Utils/SafeMath.sol\":4042:4049  uint256 */\n      0x00\n        /* \"Utils/SafeMath.sol\":4069:4074  a / b */\n      tag_302\n        /* \"Utils/SafeMath.sol\":4073:4074  b */\n      dup3\n        /* \"Utils/SafeMath.sol\":4069:4070  a */\n      dup5\n        /* \"Utils/SafeMath.sol\":4069:4074  a / b */\n      tag_183\n      jump\t// in\n        /* \"Utils/TransferHelper.sol\":1073:1503  function safeTransferFrom(\r... */\n    tag_285:\n        /* \"Utils/TransferHelper.sol\":1279:1330  abi.encodeWithSelector(0x23b872dd, from, to, value) */\n      0x40\n      dup1\n      mload\n      sub(shl(0xa0, 0x01), 0x01)\n        /* \"#utility.yul\":4178:4193   */\n      dup6\n      dup2\n      and\n        /* \"Utils/TransferHelper.sol\":1279:1330  abi.encodeWithSelector(0x23b872dd, from, to, value) */\n      0x24\n      dup4\n      add\n        /* \"#utility.yul\":4160:4194   */\n      mstore\n        /* \"#utility.yul\":4230:4245   */\n      dup5\n      dup2\n      and\n        /* \"#utility.yul\":4210:4228   */\n      0x44\n      dup4\n      add\n        /* \"#utility.yul\":4203:4246   */\n      mstore\n        /* \"#utility.yul\":4262:4280   */\n      0x64\n      dup1\n      dup4\n      add\n        /* \"#utility.yul\":4255:4289   */\n      dup6\n      swap1\n      mstore\n        /* \"Utils/TransferHelper.sol\":1279:1330  abi.encodeWithSelector(0x23b872dd, from, to, value) */\n      dup4\n      mload\n      dup1\n      dup5\n      sub\n      swap1\n      swap2\n      add\n      dup2\n      mstore\n        /* \"#utility.yul\":4095:4113   */\n      0x84\n      swap1\n      swap3\n      add\n        /* \"Utils/TransferHelper.sol\":1279:1330  abi.encodeWithSelector(0x23b872dd, from, to, value) */\n      dup4\n      mstore\n      0x20\n      dup3\n      add\n      dup1\n      mload\n      sub(shl(0xe0, 0x01), 0x01)\n      and\n      shl(0xe0, 0x23b872dd)\n      or\n      swap1\n      mstore\n        /* \"Utils/TransferHelper.sol\":1254:1341  token.call(\r... */\n      swap2\n      mload\n      0x00\n      swap3\n      dup4\n      swap3\n        /* \"Utils/TransferHelper.sol\":1254:1264  token.call */\n      swap1\n      dup9\n      and\n      swap2\n        /* \"Utils/TransferHelper.sol\":1254:1341  token.call(\r... */\n      tag_315\n      swap2\n        /* \"Utils/TransferHelper.sol\":1279:1330  abi.encodeWithSelector(0x23b872dd, from, to, value) */\n      swap1\n        /* \"Utils/TransferHelper.sol\":1254:1341  token.call(\r... */\n      tag_316\n      jump\t// in\n    tag_315:\n      0x00\n      mload(0x40)\n      dup1\n      dup4\n      sub\n      dup2\n      0x00\n      dup7\n      gas\n      call\n      swap2\n      pop\n      pop\n      returndatasize\n      dup1\n      0x00\n      dup2\n      eq\n      tag_319\n      jumpi\n      mload(0x40)\n      swap2\n      pop\n      and(add(returndatasize, 0x3f), not(0x1f))\n      dup3\n      add\n      0x40\n      mstore\n      returndatasize\n      dup3\n      mstore\n      returndatasize\n      0x00\n      0x20\n      dup5\n      add\n      returndatacopy\n      jump(tag_318)\n    tag_319:\n      0x60\n      swap2\n      pop\n    tag_318:\n      pop\n        /* \"Utils/TransferHelper.sol\":1218:1341  (bool success, bytes memory data) = token.call(\r... */\n      swap2\n      pop\n      swap2\n      pop\n        /* \"Utils/TransferHelper.sol\":1374:1381  success */\n      dup2\n        /* \"Utils/TransferHelper.sol\":1374:1431  success && (data.length == 0 || abi.decode(data, (bool))) */\n      dup1\n      iszero\n      tag_322\n      jumpi\n      pop\n        /* \"Utils/TransferHelper.sol\":1386:1397  data.length */\n      dup1\n      mload\n        /* \"Utils/TransferHelper.sol\":1386:1402  data.length == 0 */\n      iszero\n      dup1\n        /* \"Utils/TransferHelper.sol\":1386:1430  data.length == 0 || abi.decode(data, (bool)) */\n      tag_322\n      jumpi\n      pop\n        /* \"Utils/TransferHelper.sol\":1417:1421  data */\n      dup1\n        /* \"Utils/TransferHelper.sol\":1406:1430  abi.decode(data, (bool)) */\n      dup1\n      0x20\n      add\n      swap1\n      mload\n      dup2\n      add\n      swap1\n      tag_322\n      swap2\n      swap1\n      tag_232\n      jump\t// in\n    tag_322:\n        /* \"Utils/TransferHelper.sol\":1352:1495  require(\r... */\n      tag_323\n      jumpi\n      mload(0x40)\n      shl(0xe5, 0x461bcd)\n      dup2\n      mstore\n        /* \"#utility.yul\":8498:8500   */\n      0x20\n        /* \"Utils/TransferHelper.sol\":1352:1495  require(\r... */\n      0x04\n      dup3\n      add\n        /* \"#utility.yul\":8480:8501   */\n      mstore\n        /* \"#utility.yul\":8537:8539   */\n      0x24\n        /* \"#utility.yul\":8517:8535   */\n      dup1\n      dup3\n      add\n        /* \"#utility.yul\":8510:8540   */\n      mstore\n        /* \"#utility.yul\":8576:8610   */\n      0x5472616e7366657248656c7065723a205452414e534645525f46524f4d5f4641\n        /* \"#utility.yul\":8556:8574   */\n      0x44\n      dup3\n      add\n        /* \"#utility.yul\":8549:8611   */\n      mstore\n      shl(0xe2, 0x12531151)\n        /* \"#utility.yul\":8627:8645   */\n      0x64\n      dup3\n      add\n        /* \"#utility.yul\":8620:8654   */\n      mstore\n        /* \"#utility.yul\":8671:8690   */\n      0x84\n      add\n        /* \"Utils/TransferHelper.sol\":1352:1495  require(\r... */\n      tag_119\n        /* \"#utility.yul\":8470:8696   */\n      jump\n        /* \"Utils/TransferHelper.sol\":1352:1495  require(\r... */\n    tag_323:\n        /* \"Utils/TransferHelper.sol\":1207:1503  {\r... */\n      pop\n      pop\n        /* \"Utils/TransferHelper.sol\":1073:1503  function safeTransferFrom(\r... */\n      pop\n      pop\n      pop\n      pop\n      jump\t// out\n        /* \"Utils/EnumerableSet.sol\":8831:8998  function contains(AddressSet storage set, address value) internal view returns (bool) {\r... */\n    tag_289:\n      sub(shl(0xa0, 0x01), 0x01)\n        /* \"Utils/EnumerableSet.sol\":8965:8988  uint256(uint160(value)) */\n      dup2\n      and\n        /* \"Utils/EnumerableSet.sol\":8911:8915  bool */\n      0x00\n        /* \"Utils/EnumerableSet.sol\":4367:4386  set._indexes[value] */\n      swap1\n      dup2\n      mstore\n        /* \"Utils/EnumerableSet.sol\":4367:4379  set._indexes */\n      0x01\n      dup4\n      add\n        /* \"Utils/EnumerableSet.sol\":4367:4386  set._indexes[value] */\n      0x20\n      mstore\n      0x40\n      dup2\n      keccak256\n      sload\n        /* \"Utils/EnumerableSet.sol\":4367:4391  set._indexes[value] != 0 */\n      iszero\n      iszero\n        /* \"Utils/EnumerableSet.sol\":8935:8990  _contains(set._inner, bytes32(uint256(uint160(value)))) */\n      tag_302\n        /* \"Utils/EnumerableSet.sol\":4270:4399  function _contains(Set storage set, bytes32 value) private view returns (bool) {\r... */\n      jump\n        /* \"Utils/EnumerableSet.sol\":2174:2588  function _add(Set storage set, bytes32 value) private returns (bool) {\r... */\n    tag_303:\n        /* \"Utils/EnumerableSet.sol\":2237:2241  bool */\n      0x00\n        /* \"Utils/EnumerableSet.sol\":4367:4386  set._indexes[value] */\n      dup2\n      dup2\n      mstore\n        /* \"Utils/EnumerableSet.sol\":4367:4379  set._indexes */\n      0x01\n      dup4\n      add\n        /* \"Utils/EnumerableSet.sol\":4367:4386  set._indexes[value] */\n      0x20\n      mstore\n      0x40\n      dup2\n      keccak256\n      sload\n        /* \"Utils/EnumerableSet.sol\":2254:2581  if (!_contains(set, value)) {\r... */\n      tag_331\n      jumpi\n      pop\n        /* \"Utils/EnumerableSet.sol\":2297:2320  set._values.push(value) */\n      dup2\n      sload\n      0x01\n      dup2\n      dup2\n      add\n      dup5\n      sstore\n        /* \"Utils/EnumerableSet.sol\":2297:2308  set._values */\n      0x00\n        /* \"Utils/EnumerableSet.sol\":2297:2320  set._values.push(value) */\n      dup5\n      dup2\n      mstore\n      0x20\n      dup1\n      dup3\n      keccak256\n      swap1\n      swap4\n      add\n      dup5\n      swap1\n      sstore\n        /* \"Utils/EnumerableSet.sol\":2480:2498  set._values.length */\n      dup5\n      sload\n        /* \"Utils/EnumerableSet.sol\":2458:2477  set._indexes[value] */\n      dup5\n      dup3\n      mstore\n        /* \"Utils/EnumerableSet.sol\":2458:2470  set._indexes */\n      dup3\n      dup7\n      add\n        /* \"Utils/EnumerableSet.sol\":2458:2477  set._indexes[value] */\n      swap1\n      swap4\n      mstore\n      0x40\n      swap1\n      keccak256\n        /* \"Utils/EnumerableSet.sol\":2458:2498  set._indexes[value] = set._values.length */\n      swap2\n      swap1\n      swap2\n      sstore\n        /* \"Utils/EnumerableSet.sol\":2513:2524  return true */\n      jump(tag_301)\n        /* \"Utils/EnumerableSet.sol\":2254:2581  if (!_contains(set, value)) {\r... */\n    tag_331:\n      pop\n        /* \"Utils/EnumerableSet.sol\":2564:2569  false */\n      0x00\n        /* \"Utils/EnumerableSet.sol\":2557:2569  return false */\n      jump(tag_301)\n        /* \"#utility.yul\":14:261   */\n    tag_50:\n        /* \"#utility.yul\":73:79   */\n      0x00\n        /* \"#utility.yul\":126:128   */\n      0x20\n        /* \"#utility.yul\":114:123   */\n      dup3\n        /* \"#utility.yul\":105:112   */\n      dup5\n        /* \"#utility.yul\":101:124   */\n      sub\n        /* \"#utility.yul\":97:129   */\n      slt\n        /* \"#utility.yul\":94:96   */\n      iszero\n      tag_337\n      jumpi\n        /* \"#utility.yul\":142:143   */\n      0x00\n        /* \"#utility.yul\":139:140   */\n      dup1\n        /* \"#utility.yul\":132:144   */\n      revert\n        /* \"#utility.yul\":94:96   */\n    tag_337:\n        /* \"#utility.yul\":181:190   */\n      dup2\n        /* \"#utility.yul\":168:191   */\n      calldataload\n        /* \"#utility.yul\":200:231   */\n      tag_338\n        /* \"#utility.yul\":225:230   */\n      dup2\n        /* \"#utility.yul\":200:231   */\n      tag_339\n      jump\t// in\n    tag_338:\n        /* \"#utility.yul\":250:255   */\n      swap4\n        /* \"#utility.yul\":84:261   */\n      swap3\n      pop\n      pop\n      pop\n      jump\t// out\n        /* \"#utility.yul\":266:1527   */\n    tag_66:\n        /* \"#utility.yul\":409:415   */\n      0x00\n        /* \"#utility.yul\":417:423   */\n      dup1\n        /* \"#utility.yul\":425:431   */\n      0x00\n        /* \"#utility.yul\":433:439   */\n      dup1\n        /* \"#utility.yul\":464:467   */\n      0x0180\n        /* \"#utility.yul\":508:510   */\n      dup1\n        /* \"#utility.yul\":496:505   */\n      dup7\n        /* \"#utility.yul\":487:494   */\n      dup9\n        /* \"#utility.yul\":483:506   */\n      sub\n        /* \"#utility.yul\":479:511   */\n      slt\n        /* \"#utility.yul\":476:478   */\n      iszero\n      tag_341\n      jumpi\n        /* \"#utility.yul\":524:525   */\n      0x00\n        /* \"#utility.yul\":521:522   */\n      dup1\n        /* \"#utility.yul\":514:526   */\n      revert\n        /* \"#utility.yul\":476:478   */\n    tag_341:\n        /* \"#utility.yul\":563:572   */\n      dup6\n        /* \"#utility.yul\":550:573   */\n      calldataload\n        /* \"#utility.yul\":582:613   */\n      tag_342\n        /* \"#utility.yul\":607:612   */\n      dup2\n        /* \"#utility.yul\":582:613   */\n      tag_339\n      jump\t// in\n    tag_342:\n        /* \"#utility.yul\":632:637   */\n      swap5\n      pop\n        /* \"#utility.yul\":656:658   */\n      0x20\n        /* \"#utility.yul\":695:713   */\n      dup7\n      dup2\n      add\n        /* \"#utility.yul\":682:714   */\n      calldataload\n        /* \"#utility.yul\":723:756   */\n      tag_343\n        /* \"#utility.yul\":682:714   */\n      dup2\n        /* \"#utility.yul\":723:756   */\n      tag_339\n      jump\t// in\n    tag_343:\n        /* \"#utility.yul\":775:782   */\n      swap5\n      pop\n        /* \"#utility.yul\":834:836   */\n      0x40\n        /* \"#utility.yul\":819:837   */\n      dup8\n      add\n        /* \"#utility.yul\":806:838   */\n      calldataload\n        /* \"#utility.yul\":847:880   */\n      tag_344\n        /* \"#utility.yul\":806:838   */\n      dup2\n        /* \"#utility.yul\":847:880   */\n      tag_339\n      jump\t// in\n    tag_344:\n        /* \"#utility.yul\":899:906   */\n      swap4\n      pop\n        /* \"#utility.yul\":944:947   */\n      0x7f\n        /* \"#utility.yul\":929:948   */\n      dup8\n      add\n        /* \"#utility.yul\":925:958   */\n      dup9\n      sgt\n        /* \"#utility.yul\":915:917   */\n      tag_345\n      jumpi\n        /* \"#utility.yul\":972:973   */\n      0x00\n        /* \"#utility.yul\":969:970   */\n      dup1\n        /* \"#utility.yul\":962:974   */\n      revert\n        /* \"#utility.yul\":915:917   */\n    tag_345:\n        /* \"#utility.yul\":1005:1007   */\n      0x40\n        /* \"#utility.yul\":999:1008   */\n      mload\n        /* \"#utility.yul\":1047:1050   */\n      0x0120\n        /* \"#utility.yul\":1039:1045   */\n      dup2\n        /* \"#utility.yul\":1035:1051   */\n      add\n        /* \"#utility.yul\":1117:1123   */\n      dup2\n        /* \"#utility.yul\":1105:1115   */\n      dup2\n        /* \"#utility.yul\":1102:1124   */\n      lt\n        /* \"#utility.yul\":1081:1099   */\n      0xffffffffffffffff\n        /* \"#utility.yul\":1069:1079   */\n      dup3\n        /* \"#utility.yul\":1066:1100   */\n      gt\n        /* \"#utility.yul\":1063:1125   */\n      or\n        /* \"#utility.yul\":1060:1062   */\n      iszero\n      tag_347\n      jumpi\n        /* \"#utility.yul\":1128:1146   */\n      tag_347\n      tag_348\n      jump\t// in\n    tag_347:\n        /* \"#utility.yul\":1164:1166   */\n      0x40\n        /* \"#utility.yul\":1157:1179   */\n      mstore\n        /* \"#utility.yul\":1199:1205   */\n      dup1\n        /* \"#utility.yul\":1240:1242   */\n      0x60\n        /* \"#utility.yul\":1225:1243   */\n      dup10\n      add\n        /* \"#utility.yul\":1258:1276   */\n      dup5\n      dup11\n      add\n        /* \"#utility.yul\":1255:1286   */\n      dup12\n      lt\n        /* \"#utility.yul\":1252:1254   */\n      iszero\n      tag_349\n      jumpi\n        /* \"#utility.yul\":1299:1300   */\n      0x00\n        /* \"#utility.yul\":1296:1297   */\n      dup1\n        /* \"#utility.yul\":1289:1301   */\n      revert\n        /* \"#utility.yul\":1252:1254   */\n    tag_349:\n        /* \"#utility.yul\":1321:1322   */\n      0x00\n        /* \"#utility.yul\":1312:1322   */\n      swap5\n      pop\n        /* \"#utility.yul\":1331:1496   */\n    tag_350:\n        /* \"#utility.yul\":1345:1349   */\n      0x09\n        /* \"#utility.yul\":1342:1343   */\n      dup6\n        /* \"#utility.yul\":1339:1350   */\n      lt\n        /* \"#utility.yul\":1331:1496   */\n      iszero\n      tag_352\n      jumpi\n        /* \"#utility.yul\":1404:1421   */\n      dup1\n      calldataload\n        /* \"#utility.yul\":1392:1422   */\n      dup3\n      mstore\n        /* \"#utility.yul\":1365:1366   */\n      0x01\n        /* \"#utility.yul\":1358:1367   */\n      swap5\n      swap1\n      swap5\n      add\n      swap4\n        /* \"#utility.yul\":1442:1454   */\n      swap1\n      dup4\n      add\n      swap1\n        /* \"#utility.yul\":1474:1486   */\n      dup4\n      add\n        /* \"#utility.yul\":1331:1496   */\n      jump(tag_350)\n    tag_352:\n        /* \"#utility.yul\":1335:1338   */\n      pop\n      pop\n        /* \"#utility.yul\":1515:1521   */\n      dup1\n        /* \"#utility.yul\":1505:1521   */\n      swap4\n      pop\n      pop\n      pop\n      pop\n        /* \"#utility.yul\":444:1527   */\n      swap3\n      swap6\n      swap2\n      swap5\n      pop\n      swap3\n      pop\n      jump\t// out\n        /* \"#utility.yul\":1532:1809   */\n    tag_232:\n        /* \"#utility.yul\":1599:1605   */\n      0x00\n        /* \"#utility.yul\":1652:1654   */\n      0x20\n        /* \"#utility.yul\":1640:1649   */\n      dup3\n        /* \"#utility.yul\":1631:1638   */\n      dup5\n        /* \"#utility.yul\":1627:1650   */\n      sub\n        /* \"#utility.yul\":1623:1655   */\n      slt\n        /* \"#utility.yul\":1620:1622   */\n      iszero\n      tag_354\n      jumpi\n        /* \"#utility.yul\":1668:1669   */\n      0x00\n        /* \"#utility.yul\":1665:1666   */\n      dup1\n        /* \"#utility.yul\":1658:1670   */\n      revert\n        /* \"#utility.yul\":1620:1622   */\n    tag_354:\n        /* \"#utility.yul\":1700:1709   */\n      dup2\n        /* \"#utility.yul\":1694:1710   */\n      mload\n        /* \"#utility.yul\":1753:1758   */\n      dup1\n        /* \"#utility.yul\":1746:1759   */\n      iszero\n        /* \"#utility.yul\":1739:1760   */\n      iszero\n        /* \"#utility.yul\":1732:1737   */\n      dup2\n        /* \"#utility.yul\":1729:1761   */\n      eq\n        /* \"#utility.yul\":1719:1721   */\n      tag_338\n      jumpi\n        /* \"#utility.yul\":1775:1776   */\n      0x00\n        /* \"#utility.yul\":1772:1773   */\n      dup1\n        /* \"#utility.yul\":1765:1777   */\n      revert\n        /* \"#utility.yul\":1814:1994   */\n    tag_86:\n        /* \"#utility.yul\":1873:1879   */\n      0x00\n        /* \"#utility.yul\":1926:1928   */\n      0x20\n        /* \"#utility.yul\":1914:1923   */\n      dup3\n        /* \"#utility.yul\":1905:1912   */\n      dup5\n        /* \"#utility.yul\":1901:1924   */\n      sub\n        /* \"#utility.yul\":1897:1929   */\n      slt\n        /* \"#utility.yul\":1894:1896   */\n      iszero\n      tag_357\n      jumpi\n        /* \"#utility.yul\":1942:1943   */\n      0x00\n        /* \"#utility.yul\":1939:1940   */\n      dup1\n        /* \"#utility.yul\":1932:1944   */\n      revert\n        /* \"#utility.yul\":1894:1896   */\n    tag_357:\n      pop\n        /* \"#utility.yul\":1965:1988   */\n      calldataload\n      swap2\n        /* \"#utility.yul\":1884:1994   */\n      swap1\n      pop\n      jump\t// out\n        /* \"#utility.yul\":1999:2183   */\n    tag_133:\n        /* \"#utility.yul\":2069:2075   */\n      0x00\n        /* \"#utility.yul\":2122:2124   */\n      0x20\n        /* \"#utility.yul\":2110:2119   */\n      dup3\n        /* \"#utility.yul\":2101:2108   */\n      dup5\n        /* \"#utility.yul\":2097:2120   */\n      sub\n        /* \"#utility.yul\":2093:2125   */\n      slt\n        /* \"#utility.yul\":2090:2092   */\n      iszero\n      tag_359\n      jumpi\n        /* \"#utility.yul\":2138:2139   */\n      0x00\n        /* \"#utility.yul\":2135:2136   */\n      dup1\n        /* \"#utility.yul\":2128:2140   */\n      revert\n        /* \"#utility.yul\":2090:2092   */\n    tag_359:\n      pop\n        /* \"#utility.yul\":2161:2177   */\n      mload\n      swap2\n        /* \"#utility.yul\":2080:2183   */\n      swap1\n      pop\n      jump\t// out\n        /* \"#utility.yul\":2188:2614   */\n    tag_316:\n        /* \"#utility.yul\":2317:2320   */\n      0x00\n        /* \"#utility.yul\":2355:2361   */\n      dup3\n        /* \"#utility.yul\":2349:2362   */\n      mload\n        /* \"#utility.yul\":2380:2381   */\n      0x00\n        /* \"#utility.yul\":2390:2519   */\n    tag_361:\n        /* \"#utility.yul\":2404:2410   */\n      dup2\n        /* \"#utility.yul\":2401:2402   */\n      dup2\n        /* \"#utility.yul\":2398:2411   */\n      lt\n        /* \"#utility.yul\":2390:2519   */\n      iszero\n      tag_363\n      jumpi\n        /* \"#utility.yul\":2502:2506   */\n      0x20\n        /* \"#utility.yul\":2486:2500   */\n      dup2\n      dup7\n      add\n        /* \"#utility.yul\":2482:2507   */\n      dup2\n      add\n        /* \"#utility.yul\":2476:2508   */\n      mload\n        /* \"#utility.yul\":2463:2474   */\n      dup6\n      dup4\n      add\n        /* \"#utility.yul\":2456:2509   */\n      mstore\n        /* \"#utility.yul\":2419:2431   */\n      add\n        /* \"#utility.yul\":2390:2519   */\n      jump(tag_361)\n    tag_363:\n        /* \"#utility.yul\":2537:2543   */\n      dup2\n        /* \"#utility.yul\":2534:2535   */\n      dup2\n        /* \"#utility.yul\":2531:2544   */\n      gt\n        /* \"#utility.yul\":2528:2530   */\n      iszero\n      tag_364\n      jumpi\n        /* \"#utility.yul\":2572:2573   */\n      0x00\n        /* \"#utility.yul\":2563:2569   */\n      dup3\n        /* \"#utility.yul\":2558:2561   */\n      dup6\n        /* \"#utility.yul\":2554:2570   */\n      add\n        /* \"#utility.yul\":2547:2574   */\n      mstore\n        /* \"#utility.yul\":2528:2530   */\n    tag_364:\n      pop\n        /* \"#utility.yul\":2592:2608   */\n      swap2\n      swap1\n      swap2\n      add\n      swap3\n        /* \"#utility.yul\":2325:2614   */\n      swap2\n      pop\n      pop\n      jump\t// out\n        /* \"#utility.yul\":8701:9056   */\n    tag_187:\n        /* \"#utility.yul\":8903:8905   */\n      0x20\n        /* \"#utility.yul\":8885:8906   */\n      dup1\n      dup3\n      mstore\n        /* \"#utility.yul\":8942:8944   */\n      0x1f\n        /* \"#utility.yul\":8922:8940   */\n      swap1\n      dup3\n      add\n        /* \"#utility.yul\":8915:8945   */\n      mstore\n        /* \"#utility.yul\":8981:9014   */\n      0x5265656e7472616e637947756172643a207265656e7472616e742063616c6c00\n        /* \"#utility.yul\":8976:8978   */\n      0x40\n        /* \"#utility.yul\":8961:8979   */\n      dup3\n      add\n        /* \"#utility.yul\":8954:9015   */\n      mstore\n        /* \"#utility.yul\":9047:9049   */\n      0x60\n        /* \"#utility.yul\":9032:9050   */\n      add\n      swap1\n        /* \"#utility.yul\":8875:9056   */\n      jump\t// out\n        /* \"#utility.yul\":10776:10904   */\n    tag_207:\n        /* \"#utility.yul\":10816:10819   */\n      0x00\n        /* \"#utility.yul\":10847:10848   */\n      dup3\n        /* \"#utility.yul\":10843:10849   */\n      not\n        /* \"#utility.yul\":10840:10841   */\n      dup3\n        /* \"#utility.yul\":10837:10850   */\n      gt\n        /* \"#utility.yul\":10834:10836   */\n      iszero\n      tag_389\n      jumpi\n        /* \"#utility.yul\":10853:10871   */\n      tag_389\n      tag_390\n      jump\t// in\n    tag_389:\n      pop\n        /* \"#utility.yul\":10889:10898   */\n      add\n      swap1\n        /* \"#utility.yul\":10824:10904   */\n      jump\t// out\n        /* \"#utility.yul\":10909:11126   */\n    tag_183:\n        /* \"#utility.yul\":10949:10950   */\n      0x00\n        /* \"#utility.yul\":10975:10976   */\n      dup3\n        /* \"#utility.yul\":10965:10967   */\n      tag_392\n      jumpi\n        /* \"#utility.yul\":11019:11029   */\n      0x4e487b71\n        /* \"#utility.yul\":11014:11017   */\n      0xe0\n        /* \"#utility.yul\":11010:11030   */\n      shl\n        /* \"#utility.yul\":11007:11008   */\n      0x00\n        /* \"#utility.yul\":11000:11031   */\n      mstore\n        /* \"#utility.yul\":11054:11058   */\n      0x12\n        /* \"#utility.yul\":11051:11052   */\n      0x04\n        /* \"#utility.yul\":11044:11059   */\n      mstore\n        /* \"#utility.yul\":11082:11086   */\n      0x24\n        /* \"#utility.yul\":11079:11080   */\n      0x00\n        /* \"#utility.yul\":11072:11087   */\n      revert\n        /* \"#utility.yul\":10965:10967   */\n    tag_392:\n      pop\n        /* \"#utility.yul\":11111:11120   */\n      div\n      swap1\n        /* \"#utility.yul\":10955:11126   */\n      jump\t// out\n        /* \"#utility.yul\":11131:11553   */\n    tag_393:\n        /* \"#utility.yul\":11220:11221   */\n      0x01\n        /* \"#utility.yul\":11263:11268   */\n      dup2\n        /* \"#utility.yul\":11220:11221   */\n      dup2\n        /* \"#utility.yul\":11277:11547   */\n    tag_395:\n        /* \"#utility.yul\":11298:11305   */\n      dup1\n        /* \"#utility.yul\":11288:11296   */\n      dup6\n        /* \"#utility.yul\":11285:11306   */\n      gt\n        /* \"#utility.yul\":11277:11547   */\n      iszero\n      tag_397\n      jumpi\n        /* \"#utility.yul\":11357:11361   */\n      dup2\n        /* \"#utility.yul\":11353:11354   */\n      0x00\n        /* \"#utility.yul\":11349:11355   */\n      not\n        /* \"#utility.yul\":11345:11362   */\n      div\n        /* \"#utility.yul\":11339:11343   */\n      dup3\n        /* \"#utility.yul\":11336:11363   */\n      gt\n        /* \"#utility.yul\":11333:11335   */\n      iszero\n      tag_399\n      jumpi\n        /* \"#utility.yul\":11366:11384   */\n      tag_399\n      tag_390\n      jump\t// in\n    tag_399:\n        /* \"#utility.yul\":11416:11423   */\n      dup1\n        /* \"#utility.yul\":11406:11414   */\n      dup6\n        /* \"#utility.yul\":11402:11424   */\n      and\n        /* \"#utility.yul\":11399:11401   */\n      iszero\n      tag_400\n      jumpi\n        /* \"#utility.yul\":11436:11452   */\n      swap2\n      dup2\n      mul\n      swap2\n        /* \"#utility.yul\":11399:11401   */\n    tag_400:\n        /* \"#utility.yul\":11515:11537   */\n      swap4\n      dup5\n      shr\n      swap4\n        /* \"#utility.yul\":11475:11490   */\n      swap1\n      dup1\n      mul\n      swap1\n        /* \"#utility.yul\":11277:11547   */\n      jump(tag_395)\n    tag_397:\n        /* \"#utility.yul\":11281:11284   */\n      pop\n        /* \"#utility.yul\":11195:11553   */\n      swap3\n      pop\n      swap3\n      swap1\n      pop\n      jump\t// out\n        /* \"#utility.yul\":11558:11689   */\n    tag_135:\n        /* \"#utility.yul\":11618:11623   */\n      0x00\n        /* \"#utility.yul\":11647:11683   */\n      tag_302\n        /* \"#utility.yul\":11674:11682   */\n      dup4\n        /* \"#utility.yul\":11668:11672   */\n      dup4\n        /* \"#utility.yul\":11743:11748   */\n      0x00\n        /* \"#utility.yul\":11773:11781   */\n      dup3\n        /* \"#utility.yul\":11763:11765   */\n      tag_405\n      jumpi\n      pop\n        /* \"#utility.yul\":11814:11815   */\n      0x01\n        /* \"#utility.yul\":11828:11833   */\n      jump(tag_301)\n        /* \"#utility.yul\":11763:11765   */\n    tag_405:\n        /* \"#utility.yul\":11862:11866   */\n      dup2\n        /* \"#utility.yul\":11852:11854   */\n      tag_406\n      jumpi\n      pop\n        /* \"#utility.yul\":11899:11900   */\n      0x00\n        /* \"#utility.yul\":11913:11918   */\n      jump(tag_301)\n        /* \"#utility.yul\":11852:11854   */\n    tag_406:\n        /* \"#utility.yul\":11944:11948   */\n      dup2\n        /* \"#utility.yul\":11962:11963   */\n      0x01\n        /* \"#utility.yul\":11957:12016   */\n      dup2\n      eq\n      tag_408\n      jumpi\n        /* \"#utility.yul\":12030:12031   */\n      0x02\n        /* \"#utility.yul\":12025:12155   */\n      dup2\n      eq\n      tag_409\n      jumpi\n        /* \"#utility.yul\":11937:12155   */\n      jump(tag_407)\n        /* \"#utility.yul\":11957:12016   */\n    tag_408:\n        /* \"#utility.yul\":11987:11988   */\n      0x01\n        /* \"#utility.yul\":11978:11988   */\n      swap2\n      pop\n        /* \"#utility.yul\":12001:12006   */\n      pop\n      jump(tag_301)\n        /* \"#utility.yul\":12025:12155   */\n    tag_409:\n        /* \"#utility.yul\":12062:12065   */\n      0xff\n        /* \"#utility.yul\":12052:12060   */\n      dup5\n        /* \"#utility.yul\":12049:12066   */\n      gt\n        /* \"#utility.yul\":12046:12048   */\n      iszero\n      tag_411\n      jumpi\n        /* \"#utility.yul\":12069:12087   */\n      tag_411\n      tag_390\n      jump\t// in\n    tag_411:\n      pop\n      pop\n        /* \"#utility.yul\":12125:12126   */\n      0x01\n        /* \"#utility.yul\":12111:12127   */\n      dup3\n      shl\n        /* \"#utility.yul\":12140:12145   */\n      jump(tag_301)\n        /* \"#utility.yul\":11937:12155   */\n    tag_407:\n      pop\n        /* \"#utility.yul\":12239:12241   */\n      0x20\n        /* \"#utility.yul\":12229:12237   */\n      dup4\n        /* \"#utility.yul\":12226:12242   */\n      lt\n        /* \"#utility.yul\":12220:12223   */\n      0x0133\n        /* \"#utility.yul\":12214:12218   */\n      dup4\n        /* \"#utility.yul\":12211:12224   */\n      lt\n        /* \"#utility.yul\":12207:12243   */\n      and\n        /* \"#utility.yul\":12201:12203   */\n      0x4e\n        /* \"#utility.yul\":12191:12199   */\n      dup5\n        /* \"#utility.yul\":12188:12204   */\n      lt\n        /* \"#utility.yul\":12183:12185   */\n      0x0b\n        /* \"#utility.yul\":12177:12181   */\n      dup5\n        /* \"#utility.yul\":12174:12186   */\n      lt\n        /* \"#utility.yul\":12170:12205   */\n      and\n        /* \"#utility.yul\":12167:12244   */\n      or\n        /* \"#utility.yul\":12164:12166   */\n      iszero\n      tag_412\n      jumpi\n      pop\n        /* \"#utility.yul\":12276:12295   */\n      dup2\n      dup2\n      exp\n        /* \"#utility.yul\":12308:12313   */\n      jump(tag_301)\n        /* \"#utility.yul\":12164:12166   */\n    tag_412:\n        /* \"#utility.yul\":12355:12389   */\n      tag_413\n        /* \"#utility.yul\":12380:12388   */\n      dup4\n        /* \"#utility.yul\":12374:12378   */\n      dup4\n        /* \"#utility.yul\":12355:12389   */\n      tag_393\n      jump\t// in\n    tag_413:\n        /* \"#utility.yul\":12425:12431   */\n      dup1\n        /* \"#utility.yul\":12421:12422   */\n      0x00\n        /* \"#utility.yul\":12417:12423   */\n      not\n        /* \"#utility.yul\":12413:12432   */\n      div\n        /* \"#utility.yul\":12404:12411   */\n      dup3\n        /* \"#utility.yul\":12401:12433   */\n      gt\n        /* \"#utility.yul\":12398:12400   */\n      iszero\n      tag_415\n      jumpi\n        /* \"#utility.yul\":12436:12454   */\n      tag_415\n      tag_390\n      jump\t// in\n    tag_415:\n        /* \"#utility.yul\":12474:12494   */\n      mul\n      swap4\n        /* \"#utility.yul\":11753:12500   */\n      swap3\n      pop\n      pop\n      pop\n      jump\t// out\n        /* \"#utility.yul\":12505:12673   */\n    tag_140:\n        /* \"#utility.yul\":12545:12552   */\n      0x00\n        /* \"#utility.yul\":12611:12612   */\n      dup2\n        /* \"#utility.yul\":12607:12608   */\n      0x00\n        /* \"#utility.yul\":12603:12609   */\n      not\n        /* \"#utility.yul\":12599:12613   */\n      div\n        /* \"#utility.yul\":12596:12597   */\n      dup4\n        /* \"#utility.yul\":12593:12614   */\n      gt\n        /* \"#utility.yul\":12588:12589   */\n      dup3\n        /* \"#utility.yul\":12581:12590   */\n      iszero\n        /* \"#utility.yul\":12574:12591   */\n      iszero\n        /* \"#utility.yul\":12570:12615   */\n      and\n        /* \"#utility.yul\":12567:12569   */\n      iszero\n      tag_418\n      jumpi\n        /* \"#utility.yul\":12618:12636   */\n      tag_418\n      tag_390\n      jump\t// in\n    tag_418:\n      pop\n        /* \"#utility.yul\":12658:12667   */\n      mul\n      swap1\n        /* \"#utility.yul\":12557:12673   */\n      jump\t// out\n        /* \"#utility.yul\":12678:12803   */\n    tag_194:\n        /* \"#utility.yul\":12718:12722   */\n      0x00\n        /* \"#utility.yul\":12746:12747   */\n      dup3\n        /* \"#utility.yul\":12743:12744   */\n      dup3\n        /* \"#utility.yul\":12740:12748   */\n      lt\n        /* \"#utility.yul\":12737:12739   */\n      iszero\n      tag_421\n      jumpi\n        /* \"#utility.yul\":12751:12769   */\n      tag_421\n      tag_390\n      jump\t// in\n    tag_421:\n      pop\n        /* \"#utility.yul\":12788:12797   */\n      sub\n      swap1\n        /* \"#utility.yul\":12727:12803   */\n      jump\t// out\n        /* \"#utility.yul\":12808:12943   */\n    tag_272:\n        /* \"#utility.yul\":12847:12850   */\n      0x00\n      not(0x00)\n        /* \"#utility.yul\":12868:12885   */\n      dup3\n      eq\n        /* \"#utility.yul\":12865:12867   */\n      iszero\n      tag_424\n      jumpi\n        /* \"#utility.yul\":12888:12906   */\n      tag_424\n      tag_390\n      jump\t// in\n    tag_424:\n      pop\n        /* \"#utility.yul\":12935:12936   */\n      0x01\n        /* \"#utility.yul\":12924:12937   */\n      add\n      swap1\n        /* \"#utility.yul\":12855:12943   */\n      jump\t// out\n        /* \"#utility.yul\":12948:13075   */\n    tag_390:\n        /* \"#utility.yul\":13009:13019   */\n      0x4e487b71\n        /* \"#utility.yul\":13004:13007   */\n      0xe0\n        /* \"#utility.yul\":13000:13020   */\n      shl\n        /* \"#utility.yul\":12997:12998   */\n      0x00\n        /* \"#utility.yul\":12990:13021   */\n      mstore\n        /* \"#utility.yul\":13040:13044   */\n      0x11\n        /* \"#utility.yul\":13037:13038   */\n      0x04\n        /* \"#utility.yul\":13030:13045   */\n      mstore\n        /* \"#utility.yul\":13064:13068   */\n      0x24\n        /* \"#utility.yul\":13061:13062   */\n      0x00\n        /* \"#utility.yul\":13054:13069   */\n      revert\n        /* \"#utility.yul\":13212:13339   */\n    tag_348:\n        /* \"#utility.yul\":13273:13283   */\n      0x4e487b71\n        /* \"#utility.yul\":13268:13271   */\n      0xe0\n        /* \"#utility.yul\":13264:13284   */\n      shl\n        /* \"#utility.yul\":13261:13262   */\n      0x00\n        /* \"#utility.yul\":13254:13285   */\n      mstore\n        /* \"#utility.yul\":13304:13308   */\n      0x41\n        /* \"#utility.yul\":13301:13302   */\n      0x04\n        /* \"#utility.yul\":13294:13309   */\n      mstore\n        /* \"#utility.yul\":13328:13332   */\n      0x24\n        /* \"#utility.yul\":13325:13326   */\n      0x00\n        /* \"#utility.yul\":13318:13333   */\n      revert\n        /* \"#utility.yul\":13344:13475   */\n    tag_339:\n      sub(shl(0xa0, 0x01), 0x01)\n        /* \"#utility.yul\":13419:13450   */\n      dup2\n      and\n        /* \"#utility.yul\":13409:13451   */\n      dup2\n      eq\n        /* \"#utility.yul\":13399:13401   */\n      tag_126\n      jumpi\n        /* \"#utility.yul\":13465:13466   */\n      0x00\n        /* \"#utility.yul\":13462:13463   */\n      dup1\n        /* \"#utility.yul\":13455:13467   */\n      revert\n\n    auxdata: 0xa2646970667358221220e847636a6d5faa2e798f62127c74f8b3c55cfbfdb354efe3256cbb91c6659d5f64736f6c63430008050033\n}\n",
				"bytecode": {
					"linkReferences": {},
					"object": "608060405260016000556200001433620000a5565b6019805473c778417e063141139fce010982780140aa0cd5ab6001600160a01b031990911617905562000069601b736ccb41eeda5a073076f3e7dc1614c185b5fa41ed620000f7602090811b6200112417901c565b5062000099734f0b12bbf40fc182559822a5b1db6d34dbc3e016601b620000f760201b620011241790919060201c565b506014601a5562000169565b600180546001600160a01b038381166001600160a01b0319831681179093556040519116919082907f8be0079c531659141344cd1fd0a4f28419497f9722a3daafe3b4186f6b6457e090600090a35050565b60006200010e836001600160a01b03841662000117565b90505b92915050565b6000818152600183016020526040812054620001605750815460018181018455600084815260208082209093018490558454848252828601909352604090209190915562000111565b50600062000111565b6116f580620001796000396000f3fe6080604052600436106101145760003560e01c80638f1eae4c116100a0578063b6b55f2511610064578063b6b55f251461039d578063cad5b0f7146103b0578063e2d3f423146103d5578063f2fde38b14610439578063f8b2cb4f1461045957600080fd5b80638f1eae4c146102db57806395661e70146102fb578063ab33985a14610310578063acfb235514610325578063ad5c46481461037d57600080fd5b80633b5ef2ad116100e75780633b5ef2ad1461024757806356c5f3491461025d578063715018a61461028a578063861faf5f146102a15780638da5cb5b146102a957600080fd5b806312e5d0b91461011957806318856a2f1461014e5780631df4ccfc1461020e578063200d2ed214610232575b600080fd5b34801561012557600080fd5b50600b54600c54610134919082565b604080519283526020830191909152015b60405180910390f35b34801561015a57600080fd5b50600d54600e54600f546010546011546012546013546014546015546016546017546018546101a29b6001600160a01b039081169b81169a16989796959493929160ff16908c565b604080516001600160a01b039d8e1681529b8d1660208d015299909b16988a01989098526060890196909652608088019490945260a087019290925260c086015260e0850152610100840152610120830152151561014082015261016081019190915261018001610145565b34801561021a57600080fd5b50610224601d5481565b604051908152602001610145565b34801561023e57600080fd5b50610224610481565b34801561025357600080fd5b50610224601a5481565b34801561026957600080fd5b50610224610278366004611359565b60036020526000908152604090205481565b34801561029657600080fd5b5061029f6104aa565b005b61029f610515565b3480156102b557600080fd5b506001546001600160a01b03165b6040516001600160a01b039091168152602001610145565b3480156102e757600080fd5b5061029f6102f636600461137d565b610544565b34801561030757600080fd5b5061029f6108bf565b34801561031c57600080fd5b5061029f610a47565b34801561033157600080fd5b5060045460055460065460075460085460095461035095949392919086565b604080519687526020870195909552938501929092526060840152608083015260a082015260c001610145565b34801561038957600080fd5b506019546102c3906001600160a01b031681565b61029f6103ab366004611464565b610c85565b3480156103bc57600080fd5b506103c561104a565b6040519015158152602001610145565b3480156103e157600080fd5b506104196103f0366004611359565b600260208190526000918252604090912080546001820154928201546003909201549092919084565b604080519485526020850193909352918301526060820152608001610145565b34801561044557600080fd5b5061029f610454366004611359565b61105c565b34801561046557600080fd5b50610224610474366004611359565b6001600160a01b03163190565b6011546000904210156104945750600090565b6012544211156104a45750600290565b50600190565b6001546001600160a01b031633146105095760405162461bcd60e51b815260206004820181905260248201527f4f776e61626c653a2063616c6c6572206973206e6f7420746865206f776e657260448201526064015b60405180910390fd5b6105136000611142565b565b60405133904780156108fc02916000818181858888f19350505050158015610541573d6000803e3d6000fd5b50565b600d80546001600160a01b038087166001600160a01b031992831617909255600e80548684169083168117909155600f8054938616939092169290921790556040805163313ce56760e01b8152905163313ce56791600480820192602092909190829003018186803b1580156105b957600080fd5b505afa1580156105cd573d6000803e3d6000fd5b505050506040513d601f19601f820116820180604052508101906105f1919061147d565b6105fc90600a611585565b8151610608919061162d565b6010556020808201516011556040808301516012556060830151601355600f54815163313ce56760e01b815291516001600160a01b039091169263313ce5679260048082019391829003018186803b15801561066357600080fd5b505afa158015610677573d6000803e3d6000fd5b505050506040513d601f19601f8201168201806040525081019061069b919061147d565b6106a690600a611585565b60808201516106b5919061162d565b60145560a081015160155560c0810151601655600f546040805163313ce56760e01b815290516001600160a01b039092169163313ce56791600480820192602092909190829003018186803b15801561070d57600080fd5b505afa158015610721573d6000803e3d6000fd5b505050506040513d601f19601f82011682018060405250810190610745919061147d565b61075090600a611585565b60e082015161075f919061162d565b600b55600f546040805163313ce56760e01b815290516001600160a01b039092169163313ce56791600480820192602092909190829003018186803b1580156107a757600080fd5b505afa1580156107bb573d6000803e3d6000fd5b505050506040513d601f19601f820116820180604052508101906107df919061147d565b6107ea90600a611585565b6101008201516107fa919061162d565b600c55600f546019546017805460ff19166001600160a01b0392831692909316918214929092179091556040805163313ce56760e01b8152905163313ce56791600480820192602092909190829003018186803b15801561085a57600080fd5b505afa15801561086e573d6000803e3d6000fd5b505050506040513d601f19601f82011682018060405250810190610892919061147d565b61089d90600a611585565b600b546010546108ac91611194565b6108b69190611520565b60185550505050565b600260005414156108e25760405162461bcd60e51b8152600401610500906114d1565b60026000556108ef610481565b60011461092d5760405162461bcd60e51b815260206004820152600c60248201526b53616c65207375636573737360a01b6044820152606401610500565b60075460045460009161093f9161164c565b1161098c5760405162461bcd60e51b815260206004820152601b60248201527f416c6c20746f6b656e20686173206265656e20776974686472617700000000006044820152606401610500565b33600090815260026020526040902080546109f75760405162461bcd60e51b815260206004820152602560248201527f596f7520726566756e6420616c6c206f722068617665206e6f7420626f7567686044820152641d081e595d60da1b6064820152608401610500565b8054601554600091610a22916103e891610a1c91610a169084906111a0565b90611194565b906111ac565b90508060046003016000828254610a399190611508565b909155505060016000555050565b60026000541415610a6a5760405162461bcd60e51b8152600401610500906114d1565b6002600055610a77610481565b600114610ab55760405162461bcd60e51b815260206004820152600c60248201526b53616c65207375636573737360a01b6044820152606401610500565b600654600554600091610ac79161164c565b11610b145760405162461bcd60e51b815260206004820152601b60248201527f416c6c20746f6b656e20686173206265656e20776974686472617700000000006044820152606401610500565b3360009081526002602052604090206003810154600182015411610b865760405162461bcd60e51b8152602060048201526024808201527f596f7520636c61696d20616c6c206f722068617665206e6f7420626f75676874604482015263081e595d60e21b6064820152608401610500565b6000610bb06103e8610a1c8460010154610a16600d600901546103e86111a090919063ffffffff16565b90508060046002016000828254610bc79190611508565b9250508190555080826003016000828254610be29190611508565b909155505060008083556001830155426002830155600e5460405163a9059cbb60e01b8152336004820152602481018390526001600160a01b039091169063a9059cbb90604401602060405180830381600087803b158015610c4357600080fd5b505af1158015610c57573d6000803e3d6000fd5b505050506040513d601f19601f82011682018060405250810190610c7b9190611442565b5050600160005550565b60026000541415610ca85760405162461bcd60e51b8152600401610500906114d1565b6002600055610cb5610481565b600114610cf15760405162461bcd60e51b815260206004820152600a6024820152694e6f742061637469766560b01b6044820152606401610500565b336000908152600260205260408120601354909183918291906103e890831015610d505760405162461bcd60e51b815260206004820152601060248201526f4e6f7420656e6f7567682076616c756560801b6044820152606401610500565b601454831115610d935760405162461bcd60e51b815260206004820152600e60248201526d4f766572666c6f772076616c756560901b6044820152606401610500565b610d9b61104a565b610dcb57610dbc81610a1c85610a16601a54866111a090919063ffffffff16565b9250610dc8838561164c565b91505b8454601454600091610ddc9161164c565b600454601854919250600091610df2919061164c565b90506000818311610e035782610e05565b815b905080861115610e495760405162461bcd60e51b815260206004820152600f60248201526e53616c65206973207375636365737360881b6044820152606401610500565b6000610ef0600d60020160009054906101000a90046001600160a01b03166001600160a01b031663313ce5676040518163ffffffff1660e01b815260040160206040518083038186803b158015610e9f57600080fd5b505afa158015610eb3573d6000803e3d6000fd5b505050506040513d601f19601f82011682018060405250810190610ed7919061147d565b610ee290600a611585565b601054610a1c908a90611194565b905087896000016000828254610f069190611508565b9250508190555080896001016000828254610f219190611508565b909155505060048054889190600090610f3b908490611508565b909155505060058054829190600090610f55908490611508565b909155505060088054906000610f6a83611663565b90915550503360009081526003602052604081208054889290610f8e908490611508565b9250508190555085601d6000828254610fa79190611508565b909155505060175460ff168015610fc6575034610fc48789611508565b105b1561100e57336108fc87610fda8a3461164c565b610fe4919061164c565b6040518115909202916000818181858888f1935050505015801561100c573d6000803e3d6000fd5b505b60175460ff1661103957600f54611039906001600160a01b031633306110348a8c611508565b6111b8565b505060016000555050505050505050565b6000611057601b336112e8565b905090565b6001546001600160a01b031633146110b65760405162461bcd60e51b815260206004820181905260248201527f4f776e61626c653a2063616c6c6572206973206e6f7420746865206f776e65726044820152606401610500565b6001600160a01b03811661111b5760405162461bcd60e51b815260206004820152602660248201527f4f776e61626c653a206e6577206f776e657220697320746865207a65726f206160448201526564647265737360d01b6064820152608401610500565b61054181611142565b6000611139836001600160a01b03841661130a565b90505b92915050565b600180546001600160a01b038381166001600160a01b0319831681179093556040519116919082907f8be0079c531659141344cd1fd0a4f28419497f9722a3daafe3b4186f6b6457e090600090a35050565b6000611139828461162d565b6000611139828461164c565b60006111398284611520565b604080516001600160a01b0385811660248301528481166044830152606480830185905283518084039091018152608490920183526020820180516001600160e01b03166323b872dd60e01b179052915160009283929088169161121c9190611496565b6000604051808303816000865af19150503d8060008114611259576040519150601f19603f3d011682016040523d82523d6000602084013e61125e565b606091505b50915091508180156112885750805115806112885750808060200190518101906112889190611442565b6112e05760405162461bcd60e51b8152602060048201526024808201527f5472616e7366657248656c7065723a205452414e534645525f46524f4d5f46416044820152631253115160e21b6064820152608401610500565b505050505050565b6001600160a01b03811660009081526001830160205260408120541515611139565b60008181526001830160205260408120546113515750815460018181018455600084815260208082209093018490558454848252828601909352604090209190915561113c565b50600061113c565b60006020828403121561136b57600080fd5b8135611376816116aa565b9392505050565b60008060008061018080868803121561139557600080fd5b85356113a0816116aa565b94506020868101356113b1816116aa565b945060408701356113c1816116aa565b9350607f870188136113d257600080fd5b604051610120810181811067ffffffffffffffff821117156113f6576113f6611694565b6040528060608901848a018b101561140d57600080fd5b600094505b6009851015611431578035825260019490940193908301908301611412565b505080935050505092959194509250565b60006020828403121561145457600080fd5b8151801515811461137657600080fd5b60006020828403121561147657600080fd5b5035919050565b60006020828403121561148f57600080fd5b5051919050565b6000825160005b818110156114b7576020818601810151858301520161149d565b818111156114c6576000828501525b509190910192915050565b6020808252601f908201527f5265656e7472616e637947756172643a207265656e7472616e742063616c6c00604082015260600190565b6000821982111561151b5761151b61167e565b500190565b60008261153d57634e487b7160e01b600052601260045260246000fd5b500490565b600181815b8085111561157d5781600019048211156115635761156361167e565b8085161561157057918102915b93841c9390800290611547565b509250929050565b6000611139838360008261159b5750600161113c565b816115a85750600061113c565b81600181146115be57600281146115c8576115e4565b600191505061113c565b60ff8411156115d9576115d961167e565b50506001821b61113c565b5060208310610133831016604e8410600b8410161715611607575081810a61113c565b6116118383611542565b80600019048211156116255761162561167e565b029392505050565b60008160001904831182151516156116475761164761167e565b500290565b60008282101561165e5761165e61167e565b500390565b60006000198214156116775761167761167e565b5060010190565b634e487b7160e01b600052601160045260246000fd5b634e487b7160e01b600052604160045260246000fd5b6001600160a01b038116811461054157600080fdfea2646970667358221220e847636a6d5faa2e798f62127c74f8b3c55cfbfdb354efe3256cbb91c6659d5f64736f6c63430008050033",
					"opcodes": "PUSH1 0x80 PUSH1 0x40 MSTORE PUSH1 0x1 PUSH1 0x0 SSTORE PUSH3 0x14 CALLER PUSH3 0xA5 JUMP JUMPDEST PUSH1 0x19 DUP1 SLOAD PUSH20 0xC778417E063141139FCE010982780140AA0CD5AB PUSH1 0x1 PUSH1 0x1 PUSH1 0xA0 SHL SUB NOT SWAP1 SWAP2 AND OR SWAP1 SSTORE PUSH3 0x69 PUSH1 0x1B PUSH20 0x6CCB41EEDA5A073076F3E7DC1614C185B5FA41ED PUSH3 0xF7 PUSH1 0x20 SWAP1 DUP2 SHL PUSH3 0x1124 OR SWAP1 SHR JUMP JUMPDEST POP PUSH3 0x99 PUSH20 0x4F0B12BBF40FC182559822A5B1DB6D34DBC3E016 PUSH1 0x1B PUSH3 0xF7 PUSH1 0x20 SHL PUSH3 0x1124 OR SWAP1 SWAP2 SWAP1 PUSH1 0x20 SHR JUMP JUMPDEST POP PUSH1 0x14 PUSH1 0x1A SSTORE PUSH3 0x169 JUMP JUMPDEST PUSH1 0x1 DUP1 SLOAD PUSH1 0x1 PUSH1 0x1 PUSH1 0xA0 SHL SUB DUP4 DUP2 AND PUSH1 0x1 PUSH1 0x1 PUSH1 0xA0 SHL SUB NOT DUP4 AND DUP2 OR SWAP1 SWAP4 SSTORE PUSH1 0x40 MLOAD SWAP2 AND SWAP2 SWAP1 DUP3 SWAP1 PUSH32 0x8BE0079C531659141344CD1FD0A4F28419497F9722A3DAAFE3B4186F6B6457E0 SWAP1 PUSH1 0x0 SWAP1 LOG3 POP POP JUMP JUMPDEST PUSH1 0x0 PUSH3 0x10E DUP4 PUSH1 0x1 PUSH1 0x1 PUSH1 0xA0 SHL SUB DUP5 AND PUSH3 0x117 JUMP JUMPDEST SWAP1 POP JUMPDEST SWAP3 SWAP2 POP POP JUMP JUMPDEST PUSH1 0x0 DUP2 DUP2 MSTORE PUSH1 0x1 DUP4 ADD PUSH1 0x20 MSTORE PUSH1 0x40 DUP2 KECCAK256 SLOAD PUSH3 0x160 JUMPI POP DUP2 SLOAD PUSH1 0x1 DUP2 DUP2 ADD DUP5 SSTORE PUSH1 0x0 DUP5 DUP2 MSTORE PUSH1 0x20 DUP1 DUP3 KECCAK256 SWAP1 SWAP4 ADD DUP5 SWAP1 SSTORE DUP5 SLOAD DUP5 DUP3 MSTORE DUP3 DUP7 ADD SWAP1 SWAP4 MSTORE PUSH1 0x40 SWAP1 KECCAK256 SWAP2 SWAP1 SWAP2 SSTORE PUSH3 0x111 JUMP JUMPDEST POP PUSH1 0x0 PUSH3 0x111 JUMP JUMPDEST PUSH2 0x16F5 DUP1 PUSH3 0x179 PUSH1 0x0 CODECOPY PUSH1 0x0 RETURN INVALID PUSH1 0x80 PUSH1 0x40 MSTORE PUSH1 0x4 CALLDATASIZE LT PUSH2 0x114 JUMPI PUSH1 0x0 CALLDATALOAD PUSH1 0xE0 SHR DUP1 PUSH4 0x8F1EAE4C GT PUSH2 0xA0 JUMPI DUP1 PUSH4 0xB6B55F25 GT PUSH2 0x64 JUMPI DUP1 PUSH4 0xB6B55F25 EQ PUSH2 0x39D JUMPI DUP1 PUSH4 0xCAD5B0F7 EQ PUSH2 0x3B0 JUMPI DUP1 PUSH4 0xE2D3F423 EQ PUSH2 0x3D5 JUMPI DUP1 PUSH4 0xF2FDE38B EQ PUSH2 0x439 JUMPI DUP1 PUSH4 0xF8B2CB4F EQ PUSH2 0x459 JUMPI PUSH1 0x0 DUP1 REVERT JUMPDEST DUP1 PUSH4 0x8F1EAE4C EQ PUSH2 0x2DB JUMPI DUP1 PUSH4 0x95661E70 EQ PUSH2 0x2FB JUMPI DUP1 PUSH4 0xAB33985A EQ PUSH2 0x310 JUMPI DUP1 PUSH4 0xACFB2355 EQ PUSH2 0x325 JUMPI DUP1 PUSH4 0xAD5C4648 EQ PUSH2 0x37D JUMPI PUSH1 0x0 DUP1 REVERT JUMPDEST DUP1 PUSH4 0x3B5EF2AD GT PUSH2 0xE7 JUMPI DUP1 PUSH4 0x3B5EF2AD EQ PUSH2 0x247 JUMPI DUP1 PUSH4 0x56C5F349 EQ PUSH2 0x25D JUMPI DUP1 PUSH4 0x715018A6 EQ PUSH2 0x28A JUMPI DUP1 PUSH4 0x861FAF5F EQ PUSH2 0x2A1 JUMPI DUP1 PUSH4 0x8DA5CB5B EQ PUSH2 0x2A9 JUMPI PUSH1 0x0 DUP1 REVERT JUMPDEST DUP1 PUSH4 0x12E5D0B9 EQ PUSH2 0x119 JUMPI DUP1 PUSH4 0x18856A2F EQ PUSH2 0x14E JUMPI DUP1 PUSH4 0x1DF4CCFC EQ PUSH2 0x20E JUMPI DUP1 PUSH4 0x200D2ED2 EQ PUSH2 0x232 JUMPI JUMPDEST PUSH1 0x0 DUP1 REVERT JUMPDEST CALLVALUE DUP1 ISZERO PUSH2 0x125 JUMPI PUSH1 0x0 DUP1 REVERT JUMPDEST POP PUSH1 0xB SLOAD PUSH1 0xC SLOAD PUSH2 0x134 SWAP2 SWAP1 DUP3 JUMP JUMPDEST PUSH1 0x40 DUP1 MLOAD SWAP3 DUP4 MSTORE PUSH1 0x20 DUP4 ADD SWAP2 SWAP1 SWAP2 MSTORE ADD JUMPDEST PUSH1 0x40 MLOAD DUP1 SWAP2 SUB SWAP1 RETURN JUMPDEST CALLVALUE DUP1 ISZERO PUSH2 0x15A JUMPI PUSH1 0x0 DUP1 REVERT JUMPDEST POP PUSH1 0xD SLOAD PUSH1 0xE SLOAD PUSH1 0xF SLOAD PUSH1 0x10 SLOAD PUSH1 0x11 SLOAD PUSH1 0x12 SLOAD PUSH1 0x13 SLOAD PUSH1 0x14 SLOAD PUSH1 0x15 SLOAD PUSH1 0x16 SLOAD PUSH1 0x17 SLOAD PUSH1 0x18 SLOAD PUSH2 0x1A2 SWAP12 PUSH1 0x1 PUSH1 0x1 PUSH1 0xA0 SHL SUB SWAP1 DUP2 AND SWAP12 DUP2 AND SWAP11 AND SWAP9 SWAP8 SWAP7 SWAP6 SWAP5 SWAP4 SWAP3 SWAP2 PUSH1 0xFF AND SWAP1 DUP13 JUMP JUMPDEST PUSH1 0x40 DUP1 MLOAD PUSH1 0x1 PUSH1 0x1 PUSH1 0xA0 SHL SUB SWAP14 DUP15 AND DUP2 MSTORE SWAP12 DUP14 AND PUSH1 0x20 DUP14 ADD MSTORE SWAP10 SWAP1 SWAP12 AND SWAP9 DUP11 ADD SWAP9 SWAP1 SWAP9 MSTORE PUSH1 0x60 DUP10 ADD SWAP7 SWAP1 SWAP7 MSTORE PUSH1 0x80 DUP9 ADD SWAP5 SWAP1 SWAP5 MSTORE PUSH1 0xA0 DUP8 ADD SWAP3 SWAP1 SWAP3 MSTORE PUSH1 0xC0 DUP7 ADD MSTORE PUSH1 0xE0 DUP6 ADD MSTORE PUSH2 0x100 DUP5 ADD MSTORE PUSH2 0x120 DUP4 ADD MSTORE ISZERO ISZERO PUSH2 0x140 DUP3 ADD MSTORE PUSH2 0x160 DUP2 ADD SWAP2 SWAP1 SWAP2 MSTORE PUSH2 0x180 ADD PUSH2 0x145 JUMP JUMPDEST CALLVALUE DUP1 ISZERO PUSH2 0x21A JUMPI PUSH1 0x0 DUP1 REVERT JUMPDEST POP PUSH2 0x224 PUSH1 0x1D SLOAD DUP2 JUMP JUMPDEST PUSH1 0x40 MLOAD SWAP1 DUP2 MSTORE PUSH1 0x20 ADD PUSH2 0x145 JUMP JUMPDEST CALLVALUE DUP1 ISZERO PUSH2 0x23E JUMPI PUSH1 0x0 DUP1 REVERT JUMPDEST POP PUSH2 0x224 PUSH2 0x481 JUMP JUMPDEST CALLVALUE DUP1 ISZERO PUSH2 0x253 JUMPI PUSH1 0x0 DUP1 REVERT JUMPDEST POP PUSH2 0x224 PUSH1 0x1A SLOAD DUP2 JUMP JUMPDEST CALLVALUE DUP1 ISZERO PUSH2 0x269 JUMPI PUSH1 0x0 DUP1 REVERT JUMPDEST POP PUSH2 0x224 PUSH2 0x278 CALLDATASIZE PUSH1 0x4 PUSH2 0x1359 JUMP JUMPDEST PUSH1 0x3 PUSH1 0x20 MSTORE PUSH1 0x0 SWAP1 DUP2 MSTORE PUSH1 0x40 SWAP1 KECCAK256 SLOAD DUP2 JUMP JUMPDEST CALLVALUE DUP1 ISZERO PUSH2 0x296 JUMPI PUSH1 0x0 DUP1 REVERT JUMPDEST POP PUSH2 0x29F PUSH2 0x4AA JUMP JUMPDEST STOP JUMPDEST PUSH2 0x29F PUSH2 0x515 JUMP JUMPDEST CALLVALUE DUP1 ISZERO PUSH2 0x2B5 JUMPI PUSH1 0x0 DUP1 REVERT JUMPDEST POP PUSH1 0x1 SLOAD PUSH1 0x1 PUSH1 0x1 PUSH1 0xA0 SHL SUB AND JUMPDEST PUSH1 0x40 MLOAD PUSH1 0x1 PUSH1 0x1 PUSH1 0xA0 SHL SUB SWAP1 SWAP2 AND DUP2 MSTORE PUSH1 0x20 ADD PUSH2 0x145 JUMP JUMPDEST CALLVALUE DUP1 ISZERO PUSH2 0x2E7 JUMPI PUSH1 0x0 DUP1 REVERT JUMPDEST POP PUSH2 0x29F PUSH2 0x2F6 CALLDATASIZE PUSH1 0x4 PUSH2 0x137D JUMP JUMPDEST PUSH2 0x544 JUMP JUMPDEST CALLVALUE DUP1 ISZERO PUSH2 0x307 JUMPI PUSH1 0x0 DUP1 REVERT JUMPDEST POP PUSH2 0x29F PUSH2 0x8BF JUMP JUMPDEST CALLVALUE DUP1 ISZERO PUSH2 0x31C JUMPI PUSH1 0x0 DUP1 REVERT JUMPDEST POP PUSH2 0x29F PUSH2 0xA47 JUMP JUMPDEST CALLVALUE DUP1 ISZERO PUSH2 0x331 JUMPI PUSH1 0x0 DUP1 REVERT JUMPDEST POP PUSH1 0x4 SLOAD PUSH1 0x5 SLOAD PUSH1 0x6 SLOAD PUSH1 0x7 SLOAD PUSH1 0x8 SLOAD PUSH1 0x9 SLOAD PUSH2 0x350 SWAP6 SWAP5 SWAP4 SWAP3 SWAP2 SWAP1 DUP7 JUMP JUMPDEST PUSH1 0x40 DUP1 MLOAD SWAP7 DUP8 MSTORE PUSH1 0x20 DUP8 ADD SWAP6 SWAP1 SWAP6 MSTORE SWAP4 DUP6 ADD SWAP3 SWAP1 SWAP3 MSTORE PUSH1 0x60 DUP5 ADD MSTORE PUSH1 0x80 DUP4 ADD MSTORE PUSH1 0xA0 DUP3 ADD MSTORE PUSH1 0xC0 ADD PUSH2 0x145 JUMP JUMPDEST CALLVALUE DUP1 ISZERO PUSH2 0x389 JUMPI PUSH1 0x0 DUP1 REVERT JUMPDEST POP PUSH1 0x19 SLOAD PUSH2 0x2C3 SWAP1 PUSH1 0x1 PUSH1 0x1 PUSH1 0xA0 SHL SUB AND DUP2 JUMP JUMPDEST PUSH2 0x29F PUSH2 0x3AB CALLDATASIZE PUSH1 0x4 PUSH2 0x1464 JUMP JUMPDEST PUSH2 0xC85 JUMP JUMPDEST CALLVALUE DUP1 ISZERO PUSH2 0x3BC JUMPI PUSH1 0x0 DUP1 REVERT JUMPDEST POP PUSH2 0x3C5 PUSH2 0x104A JUMP JUMPDEST PUSH1 0x40 MLOAD SWAP1 ISZERO ISZERO DUP2 MSTORE PUSH1 0x20 ADD PUSH2 0x145 JUMP JUMPDEST CALLVALUE DUP1 ISZERO PUSH2 0x3E1 JUMPI PUSH1 0x0 DUP1 REVERT JUMPDEST POP PUSH2 0x419 PUSH2 0x3F0 CALLDATASIZE PUSH1 0x4 PUSH2 0x1359 JUMP JUMPDEST PUSH1 0x2 PUSH1 0x20 DUP2 SWAP1 MSTORE PUSH1 0x0 SWAP2 DUP3 MSTORE PUSH1 0x40 SWAP1 SWAP2 KECCAK256 DUP1 SLOAD PUSH1 0x1 DUP3 ADD SLOAD SWAP3 DUP3 ADD SLOAD PUSH1 0x3 SWAP1 SWAP3 ADD SLOAD SWAP1 SWAP3 SWAP2 SWAP1 DUP5 JUMP JUMPDEST PUSH1 0x40 DUP1 MLOAD SWAP5 DUP6 MSTORE PUSH1 0x20 DUP6 ADD SWAP4 SWAP1 SWAP4 MSTORE SWAP2 DUP4 ADD MSTORE PUSH1 0x60 DUP3 ADD MSTORE PUSH1 0x80 ADD PUSH2 0x145 JUMP JUMPDEST CALLVALUE DUP1 ISZERO PUSH2 0x445 JUMPI PUSH1 0x0 DUP1 REVERT JUMPDEST POP PUSH2 0x29F PUSH2 0x454 CALLDATASIZE PUSH1 0x4 PUSH2 0x1359 JUMP JUMPDEST PUSH2 0x105C JUMP JUMPDEST CALLVALUE DUP1 ISZERO PUSH2 0x465 JUMPI PUSH1 0x0 DUP1 REVERT JUMPDEST POP PUSH2 0x224 PUSH2 0x474 CALLDATASIZE PUSH1 0x4 PUSH2 0x1359 JUMP JUMPDEST PUSH1 0x1 PUSH1 0x1 PUSH1 0xA0 SHL SUB AND BALANCE SWAP1 JUMP JUMPDEST PUSH1 0x11 SLOAD PUSH1 0x0 SWAP1 TIMESTAMP LT ISZERO PUSH2 0x494 JUMPI POP PUSH1 0x0 SWAP1 JUMP JUMPDEST PUSH1 0x12 SLOAD TIMESTAMP GT ISZERO PUSH2 0x4A4 JUMPI POP PUSH1 0x2 SWAP1 JUMP JUMPDEST POP PUSH1 0x1 SWAP1 JUMP JUMPDEST PUSH1 0x1 SLOAD PUSH1 0x1 PUSH1 0x1 PUSH1 0xA0 SHL SUB AND CALLER EQ PUSH2 0x509 JUMPI PUSH1 0x40 MLOAD PUSH3 0x461BCD PUSH1 0xE5 SHL DUP2 MSTORE PUSH1 0x20 PUSH1 0x4 DUP3 ADD DUP2 SWAP1 MSTORE PUSH1 0x24 DUP3 ADD MSTORE PUSH32 0x4F776E61626C653A2063616C6C6572206973206E6F7420746865206F776E6572 PUSH1 0x44 DUP3 ADD MSTORE PUSH1 0x64 ADD JUMPDEST PUSH1 0x40 MLOAD DUP1 SWAP2 SUB SWAP1 REVERT JUMPDEST PUSH2 0x513 PUSH1 0x0 PUSH2 0x1142 JUMP JUMPDEST JUMP JUMPDEST PUSH1 0x40 MLOAD CALLER SWAP1 SELFBALANCE DUP1 ISZERO PUSH2 0x8FC MUL SWAP2 PUSH1 0x0 DUP2 DUP2 DUP2 DUP6 DUP9 DUP9 CALL SWAP4 POP POP POP POP ISZERO DUP1 ISZERO PUSH2 0x541 JUMPI RETURNDATASIZE PUSH1 0x0 DUP1 RETURNDATACOPY RETURNDATASIZE PUSH1 0x0 REVERT JUMPDEST POP JUMP JUMPDEST PUSH1 0xD DUP1 SLOAD PUSH1 0x1 PUSH1 0x1 PUSH1 0xA0 SHL SUB DUP1 DUP8 AND PUSH1 0x1 PUSH1 0x1 PUSH1 0xA0 SHL SUB NOT SWAP3 DUP4 AND OR SWAP1 SWAP3 SSTORE PUSH1 0xE DUP1 SLOAD DUP7 DUP5 AND SWAP1 DUP4 AND DUP2 OR SWAP1 SWAP2 SSTORE PUSH1 0xF DUP1 SLOAD SWAP4 DUP7 AND SWAP4 SWAP1 SWAP3 AND SWAP3 SWAP1 SWAP3 OR SWAP1 SSTORE PUSH1 0x40 DUP1 MLOAD PUSH4 0x313CE567 PUSH1 0xE0 SHL DUP2 MSTORE SWAP1 MLOAD PUSH4 0x313CE567 SWAP2 PUSH1 0x4 DUP1 DUP3 ADD SWAP3 PUSH1 0x20 SWAP3 SWAP1 SWAP2 SWAP1 DUP3 SWAP1 SUB ADD DUP2 DUP7 DUP1 EXTCODESIZE ISZERO DUP1 ISZERO PUSH2 0x5B9 JUMPI PUSH1 0x0 DUP1 REVERT JUMPDEST POP GAS STATICCALL ISZERO DUP1 ISZERO PUSH2 0x5CD JUMPI RETURNDATASIZE PUSH1 0x0 DUP1 RETURNDATACOPY RETURNDATASIZE PUSH1 0x0 REVERT JUMPDEST POP POP POP POP PUSH1 0x40 MLOAD RETURNDATASIZE PUSH1 0x1F NOT PUSH1 0x1F DUP3 ADD AND DUP3 ADD DUP1 PUSH1 0x40 MSTORE POP DUP2 ADD SWAP1 PUSH2 0x5F1 SWAP2 SWAP1 PUSH2 0x147D JUMP JUMPDEST PUSH2 0x5FC SWAP1 PUSH1 0xA PUSH2 0x1585 JUMP JUMPDEST DUP2 MLOAD PUSH2 0x608 SWAP2 SWAP1 PUSH2 0x162D JUMP JUMPDEST PUSH1 0x10 SSTORE PUSH1 0x20 DUP1 DUP3 ADD MLOAD PUSH1 0x11 SSTORE PUSH1 0x40 DUP1 DUP4 ADD MLOAD PUSH1 0x12 SSTORE PUSH1 0x60 DUP4 ADD MLOAD PUSH1 0x13 SSTORE PUSH1 0xF SLOAD DUP2 MLOAD PUSH4 0x313CE567 PUSH1 0xE0 SHL DUP2 MSTORE SWAP2 MLOAD PUSH1 0x1 PUSH1 0x1 PUSH1 0xA0 SHL SUB SWAP1 SWAP2 AND SWAP3 PUSH4 0x313CE567 SWAP3 PUSH1 0x4 DUP1 DUP3 ADD SWAP4 SWAP2 DUP3 SWAP1 SUB ADD DUP2 DUP7 DUP1 EXTCODESIZE ISZERO DUP1 ISZERO PUSH2 0x663 JUMPI PUSH1 0x0 DUP1 REVERT JUMPDEST POP GAS STATICCALL ISZERO DUP1 ISZERO PUSH2 0x677 JUMPI RETURNDATASIZE PUSH1 0x0 DUP1 RETURNDATACOPY RETURNDATASIZE PUSH1 0x0 REVERT JUMPDEST POP POP POP POP PUSH1 0x40 MLOAD RETURNDATASIZE PUSH1 0x1F NOT PUSH1 0x1F DUP3 ADD AND DUP3 ADD DUP1 PUSH1 0x40 MSTORE POP DUP2 ADD SWAP1 PUSH2 0x69B SWAP2 SWAP1 PUSH2 0x147D JUMP JUMPDEST PUSH2 0x6A6 SWAP1 PUSH1 0xA PUSH2 0x1585 JUMP JUMPDEST PUSH1 0x80 DUP3 ADD MLOAD PUSH2 0x6B5 SWAP2 SWAP1 PUSH2 0x162D JUMP JUMPDEST PUSH1 0x14 SSTORE PUSH1 0xA0 DUP2 ADD MLOAD PUSH1 0x15 SSTORE PUSH1 0xC0 DUP2 ADD MLOAD PUSH1 0x16 SSTORE PUSH1 0xF SLOAD PUSH1 0x40 DUP1 MLOAD PUSH4 0x313CE567 PUSH1 0xE0 SHL DUP2 MSTORE SWAP1 MLOAD PUSH1 0x1 PUSH1 0x1 PUSH1 0xA0 SHL SUB SWAP1 SWAP3 AND SWAP2 PUSH4 0x313CE567 SWAP2 PUSH1 0x4 DUP1 DUP3 ADD SWAP3 PUSH1 0x20 SWAP3 SWAP1 SWAP2 SWAP1 DUP3 SWAP1 SUB ADD DUP2 DUP7 DUP1 EXTCODESIZE ISZERO DUP1 ISZERO PUSH2 0x70D JUMPI PUSH1 0x0 DUP1 REVERT JUMPDEST POP GAS STATICCALL ISZERO DUP1 ISZERO PUSH2 0x721 JUMPI RETURNDATASIZE PUSH1 0x0 DUP1 RETURNDATACOPY RETURNDATASIZE PUSH1 0x0 REVERT JUMPDEST POP POP POP POP PUSH1 0x40 MLOAD RETURNDATASIZE PUSH1 0x1F NOT PUSH1 0x1F DUP3 ADD AND DUP3 ADD DUP1 PUSH1 0x40 MSTORE POP DUP2 ADD SWAP1 PUSH2 0x745 SWAP2 SWAP1 PUSH2 0x147D JUMP JUMPDEST PUSH2 0x750 SWAP1 PUSH1 0xA PUSH2 0x1585 JUMP JUMPDEST PUSH1 0xE0 DUP3 ADD MLOAD PUSH2 0x75F SWAP2 SWAP1 PUSH2 0x162D JUMP JUMPDEST PUSH1 0xB SSTORE PUSH1 0xF SLOAD PUSH1 0x40 DUP1 MLOAD PUSH4 0x313CE567 PUSH1 0xE0 SHL DUP2 MSTORE SWAP1 MLOAD PUSH1 0x1 PUSH1 0x1 PUSH1 0xA0 SHL SUB SWAP1 SWAP3 AND SWAP2 PUSH4 0x313CE567 SWAP2 PUSH1 0x4 DUP1 DUP3 ADD SWAP3 PUSH1 0x20 SWAP3 SWAP1 SWAP2 SWAP1 DUP3 SWAP1 SUB ADD DUP2 DUP7 DUP1 EXTCODESIZE ISZERO DUP1 ISZERO PUSH2 0x7A7 JUMPI PUSH1 0x0 DUP1 REVERT JUMPDEST POP GAS STATICCALL ISZERO DUP1 ISZERO PUSH2 0x7BB JUMPI RETURNDATASIZE PUSH1 0x0 DUP1 RETURNDATACOPY RETURNDATASIZE PUSH1 0x0 REVERT JUMPDEST POP POP POP POP PUSH1 0x40 MLOAD RETURNDATASIZE PUSH1 0x1F NOT PUSH1 0x1F DUP3 ADD AND DUP3 ADD DUP1 PUSH1 0x40 MSTORE POP DUP2 ADD SWAP1 PUSH2 0x7DF SWAP2 SWAP1 PUSH2 0x147D JUMP JUMPDEST PUSH2 0x7EA SWAP1 PUSH1 0xA PUSH2 0x1585 JUMP JUMPDEST PUSH2 0x100 DUP3 ADD MLOAD PUSH2 0x7FA SWAP2 SWAP1 PUSH2 0x162D JUMP JUMPDEST PUSH1 0xC SSTORE PUSH1 0xF SLOAD PUSH1 0x19 SLOAD PUSH1 0x17 DUP1 SLOAD PUSH1 0xFF NOT AND PUSH1 0x1 PUSH1 0x1 PUSH1 0xA0 SHL SUB SWAP3 DUP4 AND SWAP3 SWAP1 SWAP4 AND SWAP2 DUP3 EQ SWAP3 SWAP1 SWAP3 OR SWAP1 SWAP2 SSTORE PUSH1 0x40 DUP1 MLOAD PUSH4 0x313CE567 PUSH1 0xE0 SHL DUP2 MSTORE SWAP1 MLOAD PUSH4 0x313CE567 SWAP2 PUSH1 0x4 DUP1 DUP3 ADD SWAP3 PUSH1 0x20 SWAP3 SWAP1 SWAP2 SWAP1 DUP3 SWAP1 SUB ADD DUP2 DUP7 DUP1 EXTCODESIZE ISZERO DUP1 ISZERO PUSH2 0x85A JUMPI PUSH1 0x0 DUP1 REVERT JUMPDEST POP GAS STATICCALL ISZERO DUP1 ISZERO PUSH2 0x86E JUMPI RETURNDATASIZE PUSH1 0x0 DUP1 RETURNDATACOPY RETURNDATASIZE PUSH1 0x0 REVERT JUMPDEST POP POP POP POP PUSH1 0x40 MLOAD RETURNDATASIZE PUSH1 0x1F NOT PUSH1 0x1F DUP3 ADD AND DUP3 ADD DUP1 PUSH1 0x40 MSTORE POP DUP2 ADD SWAP1 PUSH2 0x892 SWAP2 SWAP1 PUSH2 0x147D JUMP JUMPDEST PUSH2 0x89D SWAP1 PUSH1 0xA PUSH2 0x1585 JUMP JUMPDEST PUSH1 0xB SLOAD PUSH1 0x10 SLOAD PUSH2 0x8AC SWAP2 PUSH2 0x1194 JUMP JUMPDEST PUSH2 0x8B6 SWAP2 SWAP1 PUSH2 0x1520 JUMP JUMPDEST PUSH1 0x18 SSTORE POP POP POP POP JUMP JUMPDEST PUSH1 0x2 PUSH1 0x0 SLOAD EQ ISZERO PUSH2 0x8E2 JUMPI PUSH1 0x40 MLOAD PUSH3 0x461BCD PUSH1 0xE5 SHL DUP2 MSTORE PUSH1 0x4 ADD PUSH2 0x500 SWAP1 PUSH2 0x14D1 JUMP JUMPDEST PUSH1 0x2 PUSH1 0x0 SSTORE PUSH2 0x8EF PUSH2 0x481 JUMP JUMPDEST PUSH1 0x1 EQ PUSH2 0x92D JUMPI PUSH1 0x40 MLOAD PUSH3 0x461BCD PUSH1 0xE5 SHL DUP2 MSTORE PUSH1 0x20 PUSH1 0x4 DUP3 ADD MSTORE PUSH1 0xC PUSH1 0x24 DUP3 ADD MSTORE PUSH12 0x53616C652073756365737373 PUSH1 0xA0 SHL PUSH1 0x44 DUP3 ADD MSTORE PUSH1 0x64 ADD PUSH2 0x500 JUMP JUMPDEST PUSH1 0x7 SLOAD PUSH1 0x4 SLOAD PUSH1 0x0 SWAP2 PUSH2 0x93F SWAP2 PUSH2 0x164C JUMP JUMPDEST GT PUSH2 0x98C JUMPI PUSH1 0x40 MLOAD PUSH3 0x461BCD PUSH1 0xE5 SHL DUP2 MSTORE PUSH1 0x20 PUSH1 0x4 DUP3 ADD MSTORE PUSH1 0x1B PUSH1 0x24 DUP3 ADD MSTORE PUSH32 0x416C6C20746F6B656E20686173206265656E2077697468647261770000000000 PUSH1 0x44 DUP3 ADD MSTORE PUSH1 0x64 ADD PUSH2 0x500 JUMP JUMPDEST CALLER PUSH1 0x0 SWAP1 DUP2 MSTORE PUSH1 0x2 PUSH1 0x20 MSTORE PUSH1 0x40 SWAP1 KECCAK256 DUP1 SLOAD PUSH2 0x9F7 JUMPI PUSH1 0x40 MLOAD PUSH3 0x461BCD PUSH1 0xE5 SHL DUP2 MSTORE PUSH1 0x20 PUSH1 0x4 DUP3 ADD MSTORE PUSH1 0x25 PUSH1 0x24 DUP3 ADD MSTORE PUSH32 0x596F7520726566756E6420616C6C206F722068617665206E6F7420626F756768 PUSH1 0x44 DUP3 ADD MSTORE PUSH5 0x1D081E595D PUSH1 0xDA SHL PUSH1 0x64 DUP3 ADD MSTORE PUSH1 0x84 ADD PUSH2 0x500 JUMP JUMPDEST DUP1 SLOAD PUSH1 0x15 SLOAD PUSH1 0x0 SWAP2 PUSH2 0xA22 SWAP2 PUSH2 0x3E8 SWAP2 PUSH2 0xA1C SWAP2 PUSH2 0xA16 SWAP1 DUP5 SWAP1 PUSH2 0x11A0 JUMP JUMPDEST SWAP1 PUSH2 0x1194 JUMP JUMPDEST SWAP1 PUSH2 0x11AC JUMP JUMPDEST SWAP1 POP DUP1 PUSH1 0x4 PUSH1 0x3 ADD PUSH1 0x0 DUP3 DUP3 SLOAD PUSH2 0xA39 SWAP2 SWAP1 PUSH2 0x1508 JUMP JUMPDEST SWAP1 SWAP2 SSTORE POP POP PUSH1 0x1 PUSH1 0x0 SSTORE POP POP JUMP JUMPDEST PUSH1 0x2 PUSH1 0x0 SLOAD EQ ISZERO PUSH2 0xA6A JUMPI PUSH1 0x40 MLOAD PUSH3 0x461BCD PUSH1 0xE5 SHL DUP2 MSTORE PUSH1 0x4 ADD PUSH2 0x500 SWAP1 PUSH2 0x14D1 JUMP JUMPDEST PUSH1 0x2 PUSH1 0x0 SSTORE PUSH2 0xA77 PUSH2 0x481 JUMP JUMPDEST PUSH1 0x1 EQ PUSH2 0xAB5 JUMPI PUSH1 0x40 MLOAD PUSH3 0x461BCD PUSH1 0xE5 SHL DUP2 MSTORE PUSH1 0x20 PUSH1 0x4 DUP3 ADD MSTORE PUSH1 0xC PUSH1 0x24 DUP3 ADD MSTORE PUSH12 0x53616C652073756365737373 PUSH1 0xA0 SHL PUSH1 0x44 DUP3 ADD MSTORE PUSH1 0x64 ADD PUSH2 0x500 JUMP JUMPDEST PUSH1 0x6 SLOAD PUSH1 0x5 SLOAD PUSH1 0x0 SWAP2 PUSH2 0xAC7 SWAP2 PUSH2 0x164C JUMP JUMPDEST GT PUSH2 0xB14 JUMPI PUSH1 0x40 MLOAD PUSH3 0x461BCD PUSH1 0xE5 SHL DUP2 MSTORE PUSH1 0x20 PUSH1 0x4 DUP3 ADD MSTORE PUSH1 0x1B PUSH1 0x24 DUP3 ADD MSTORE PUSH32 0x416C6C20746F6B656E20686173206265656E2077697468647261770000000000 PUSH1 0x44 DUP3 ADD MSTORE PUSH1 0x64 ADD PUSH2 0x500 JUMP JUMPDEST CALLER PUSH1 0x0 SWAP1 DUP2 MSTORE PUSH1 0x2 PUSH1 0x20 MSTORE PUSH1 0x40 SWAP1 KECCAK256 PUSH1 0x3 DUP2 ADD SLOAD PUSH1 0x1 DUP3 ADD SLOAD GT PUSH2 0xB86 JUMPI PUSH1 0x40 MLOAD PUSH3 0x461BCD PUSH1 0xE5 SHL DUP2 MSTORE PUSH1 0x20 PUSH1 0x4 DUP3 ADD MSTORE PUSH1 0x24 DUP1 DUP3 ADD MSTORE PUSH32 0x596F7520636C61696D20616C6C206F722068617665206E6F7420626F75676874 PUSH1 0x44 DUP3 ADD MSTORE PUSH4 0x81E595D PUSH1 0xE2 SHL PUSH1 0x64 DUP3 ADD MSTORE PUSH1 0x84 ADD PUSH2 0x500 JUMP JUMPDEST PUSH1 0x0 PUSH2 0xBB0 PUSH2 0x3E8 PUSH2 0xA1C DUP5 PUSH1 0x1 ADD SLOAD PUSH2 0xA16 PUSH1 0xD PUSH1 0x9 ADD SLOAD PUSH2 0x3E8 PUSH2 0x11A0 SWAP1 SWAP2 SWAP1 PUSH4 0xFFFFFFFF AND JUMP JUMPDEST SWAP1 POP DUP1 PUSH1 0x4 PUSH1 0x2 ADD PUSH1 0x0 DUP3 DUP3 SLOAD PUSH2 0xBC7 SWAP2 SWAP1 PUSH2 0x1508 JUMP JUMPDEST SWAP3 POP POP DUP2 SWAP1 SSTORE POP DUP1 DUP3 PUSH1 0x3 ADD PUSH1 0x0 DUP3 DUP3 SLOAD PUSH2 0xBE2 SWAP2 SWAP1 PUSH2 0x1508 JUMP JUMPDEST SWAP1 SWAP2 SSTORE POP POP PUSH1 0x0 DUP1 DUP4 SSTORE PUSH1 0x1 DUP4 ADD SSTORE TIMESTAMP PUSH1 0x2 DUP4 ADD SSTORE PUSH1 0xE SLOAD PUSH1 0x40 MLOAD PUSH4 0xA9059CBB PUSH1 0xE0 SHL DUP2 MSTORE CALLER PUSH1 0x4 DUP3 ADD MSTORE PUSH1 0x24 DUP2 ADD DUP4 SWAP1 MSTORE PUSH1 0x1 PUSH1 0x1 PUSH1 0xA0 SHL SUB SWAP1 SWAP2 AND SWAP1 PUSH4 0xA9059CBB SWAP1 PUSH1 0x44 ADD PUSH1 0x20 PUSH1 0x40 MLOAD DUP1 DUP4 SUB DUP2 PUSH1 0x0 DUP8 DUP1 EXTCODESIZE ISZERO DUP1 ISZERO PUSH2 0xC43 JUMPI PUSH1 0x0 DUP1 REVERT JUMPDEST POP GAS CALL ISZERO DUP1 ISZERO PUSH2 0xC57 JUMPI RETURNDATASIZE PUSH1 0x0 DUP1 RETURNDATACOPY RETURNDATASIZE PUSH1 0x0 REVERT JUMPDEST POP POP POP POP PUSH1 0x40 MLOAD RETURNDATASIZE PUSH1 0x1F NOT PUSH1 0x1F DUP3 ADD AND DUP3 ADD DUP1 PUSH1 0x40 MSTORE POP DUP2 ADD SWAP1 PUSH2 0xC7B SWAP2 SWAP1 PUSH2 0x1442 JUMP JUMPDEST POP POP PUSH1 0x1 PUSH1 0x0 SSTORE POP JUMP JUMPDEST PUSH1 0x2 PUSH1 0x0 SLOAD EQ ISZERO PUSH2 0xCA8 JUMPI PUSH1 0x40 MLOAD PUSH3 0x461BCD PUSH1 0xE5 SHL DUP2 MSTORE PUSH1 0x4 ADD PUSH2 0x500 SWAP1 PUSH2 0x14D1 JUMP JUMPDEST PUSH1 0x2 PUSH1 0x0 SSTORE PUSH2 0xCB5 PUSH2 0x481 JUMP JUMPDEST PUSH1 0x1 EQ PUSH2 0xCF1 JUMPI PUSH1 0x40 MLOAD PUSH3 0x461BCD PUSH1 0xE5 SHL DUP2 MSTORE PUSH1 0x20 PUSH1 0x4 DUP3 ADD MSTORE PUSH1 0xA PUSH1 0x24 DUP3 ADD MSTORE PUSH10 0x4E6F7420616374697665 PUSH1 0xB0 SHL PUSH1 0x44 DUP3 ADD MSTORE PUSH1 0x64 ADD PUSH2 0x500 JUMP JUMPDEST CALLER PUSH1 0x0 SWAP1 DUP2 MSTORE PUSH1 0x2 PUSH1 0x20 MSTORE PUSH1 0x40 DUP2 KECCAK256 PUSH1 0x13 SLOAD SWAP1 SWAP2 DUP4 SWAP2 DUP3 SWAP2 SWAP1 PUSH2 0x3E8 SWAP1 DUP4 LT ISZERO PUSH2 0xD50 JUMPI PUSH1 0x40 MLOAD PUSH3 0x461BCD PUSH1 0xE5 SHL DUP2 MSTORE PUSH1 0x20 PUSH1 0x4 DUP3 ADD MSTORE PUSH1 0x10 PUSH1 0x24 DUP3 ADD MSTORE PUSH16 0x4E6F7420656E6F7567682076616C7565 PUSH1 0x80 SHL PUSH1 0x44 DUP3 ADD MSTORE PUSH1 0x64 ADD PUSH2 0x500 JUMP JUMPDEST PUSH1 0x14 SLOAD DUP4 GT ISZERO PUSH2 0xD93 JUMPI PUSH1 0x40 MLOAD PUSH3 0x461BCD PUSH1 0xE5 SHL DUP2 MSTORE PUSH1 0x20 PUSH1 0x4 DUP3 ADD MSTORE PUSH1 0xE PUSH1 0x24 DUP3 ADD MSTORE PUSH14 0x4F766572666C6F772076616C7565 PUSH1 0x90 SHL PUSH1 0x44 DUP3 ADD MSTORE PUSH1 0x64 ADD PUSH2 0x500 JUMP JUMPDEST PUSH2 0xD9B PUSH2 0x104A JUMP JUMPDEST PUSH2 0xDCB JUMPI PUSH2 0xDBC DUP2 PUSH2 0xA1C DUP6 PUSH2 0xA16 PUSH1 0x1A SLOAD DUP7 PUSH2 0x11A0 SWAP1 SWAP2 SWAP1 PUSH4 0xFFFFFFFF AND JUMP JUMPDEST SWAP3 POP PUSH2 0xDC8 DUP4 DUP6 PUSH2 0x164C JUMP JUMPDEST SWAP2 POP JUMPDEST DUP5 SLOAD PUSH1 0x14 SLOAD PUSH1 0x0 SWAP2 PUSH2 0xDDC SWAP2 PUSH2 0x164C JUMP JUMPDEST PUSH1 0x4 SLOAD PUSH1 0x18 SLOAD SWAP2 SWAP3 POP PUSH1 0x0 SWAP2 PUSH2 0xDF2 SWAP2 SWAP1 PUSH2 0x164C JUMP JUMPDEST SWAP1 POP PUSH1 0x0 DUP2 DUP4 GT PUSH2 0xE03 JUMPI DUP3 PUSH2 0xE05 JUMP JUMPDEST DUP2 JUMPDEST SWAP1 POP DUP1 DUP7 GT ISZERO PUSH2 0xE49 JUMPI PUSH1 0x40 MLOAD PUSH3 0x461BCD PUSH1 0xE5 SHL DUP2 MSTORE PUSH1 0x20 PUSH1 0x4 DUP3 ADD MSTORE PUSH1 0xF PUSH1 0x24 DUP3 ADD MSTORE PUSH15 0x53616C652069732073756363657373 PUSH1 0x88 SHL PUSH1 0x44 DUP3 ADD MSTORE PUSH1 0x64 ADD PUSH2 0x500 JUMP JUMPDEST PUSH1 0x0 PUSH2 0xEF0 PUSH1 0xD PUSH1 0x2 ADD PUSH1 0x0 SWAP1 SLOAD SWAP1 PUSH2 0x100 EXP SWAP1 DIV PUSH1 0x1 PUSH1 0x1 PUSH1 0xA0 SHL SUB AND PUSH1 0x1 PUSH1 0x1 PUSH1 0xA0 SHL SUB AND PUSH4 0x313CE567 PUSH1 0x40 MLOAD DUP2 PUSH4 0xFFFFFFFF AND PUSH1 0xE0 SHL DUP2 MSTORE PUSH1 0x4 ADD PUSH1 0x20 PUSH1 0x40 MLOAD DUP1 DUP4 SUB DUP2 DUP7 DUP1 EXTCODESIZE ISZERO DUP1 ISZERO PUSH2 0xE9F JUMPI PUSH1 0x0 DUP1 REVERT JUMPDEST POP GAS STATICCALL ISZERO DUP1 ISZERO PUSH2 0xEB3 JUMPI RETURNDATASIZE PUSH1 0x0 DUP1 RETURNDATACOPY RETURNDATASIZE PUSH1 0x0 REVERT JUMPDEST POP POP POP POP PUSH1 0x40 MLOAD RETURNDATASIZE PUSH1 0x1F NOT PUSH1 0x1F DUP3 ADD AND DUP3 ADD DUP1 PUSH1 0x40 MSTORE POP DUP2 ADD SWAP1 PUSH2 0xED7 SWAP2 SWAP1 PUSH2 0x147D JUMP JUMPDEST PUSH2 0xEE2 SWAP1 PUSH1 0xA PUSH2 0x1585 JUMP JUMPDEST PUSH1 0x10 SLOAD PUSH2 0xA1C SWAP1 DUP11 SWAP1 PUSH2 0x1194 JUMP JUMPDEST SWAP1 POP DUP8 DUP10 PUSH1 0x0 ADD PUSH1 0x0 DUP3 DUP3 SLOAD PUSH2 0xF06 SWAP2 SWAP1 PUSH2 0x1508 JUMP JUMPDEST SWAP3 POP POP DUP2 SWAP1 SSTORE POP DUP1 DUP10 PUSH1 0x1 ADD PUSH1 0x0 DUP3 DUP3 SLOAD PUSH2 0xF21 SWAP2 SWAP1 PUSH2 0x1508 JUMP JUMPDEST SWAP1 SWAP2 SSTORE POP POP PUSH1 0x4 DUP1 SLOAD DUP9 SWAP2 SWAP1 PUSH1 0x0 SWAP1 PUSH2 0xF3B SWAP1 DUP5 SWAP1 PUSH2 0x1508 JUMP JUMPDEST SWAP1 SWAP2 SSTORE POP POP PUSH1 0x5 DUP1 SLOAD DUP3 SWAP2 SWAP1 PUSH1 0x0 SWAP1 PUSH2 0xF55 SWAP1 DUP5 SWAP1 PUSH2 0x1508 JUMP JUMPDEST SWAP1 SWAP2 SSTORE POP POP PUSH1 0x8 DUP1 SLOAD SWAP1 PUSH1 0x0 PUSH2 0xF6A DUP4 PUSH2 0x1663 JUMP JUMPDEST SWAP1 SWAP2 SSTORE POP POP CALLER PUSH1 0x0 SWAP1 DUP2 MSTORE PUSH1 0x3 PUSH1 0x20 MSTORE PUSH1 0x40 DUP2 KECCAK256 DUP1 SLOAD DUP9 SWAP3 SWAP1 PUSH2 0xF8E SWAP1 DUP5 SWAP1 PUSH2 0x1508 JUMP JUMPDEST SWAP3 POP POP DUP2 SWAP1 SSTORE POP DUP6 PUSH1 0x1D PUSH1 0x0 DUP3 DUP3 SLOAD PUSH2 0xFA7 SWAP2 SWAP1 PUSH2 0x1508 JUMP JUMPDEST SWAP1 SWAP2 SSTORE POP POP PUSH1 0x17 SLOAD PUSH1 0xFF AND DUP1 ISZERO PUSH2 0xFC6 JUMPI POP CALLVALUE PUSH2 0xFC4 DUP8 DUP10 PUSH2 0x1508 JUMP JUMPDEST LT JUMPDEST ISZERO PUSH2 0x100E JUMPI CALLER PUSH2 0x8FC DUP8 PUSH2 0xFDA DUP11 CALLVALUE PUSH2 0x164C JUMP JUMPDEST PUSH2 0xFE4 SWAP2 SWAP1 PUSH2 0x164C JUMP JUMPDEST PUSH1 0x40 MLOAD DUP2 ISZERO SWAP1 SWAP3 MUL SWAP2 PUSH1 0x0 DUP2 DUP2 DUP2 DUP6 DUP9 DUP9 CALL SWAP4 POP POP POP POP ISZERO DUP1 ISZERO PUSH2 0x100C JUMPI RETURNDATASIZE PUSH1 0x0 DUP1 RETURNDATACOPY RETURNDATASIZE PUSH1 0x0 REVERT JUMPDEST POP JUMPDEST PUSH1 0x17 SLOAD PUSH1 0xFF AND PUSH2 0x1039 JUMPI PUSH1 0xF SLOAD PUSH2 0x1039 SWAP1 PUSH1 0x1 PUSH1 0x1 PUSH1 0xA0 SHL SUB AND CALLER ADDRESS PUSH2 0x1034 DUP11 DUP13 PUSH2 0x1508 JUMP JUMPDEST PUSH2 0x11B8 JUMP JUMPDEST POP POP PUSH1 0x1 PUSH1 0x0 SSTORE POP POP POP POP POP POP POP POP JUMP JUMPDEST PUSH1 0x0 PUSH2 0x1057 PUSH1 0x1B CALLER PUSH2 0x12E8 JUMP JUMPDEST SWAP1 POP SWAP1 JUMP JUMPDEST PUSH1 0x1 SLOAD PUSH1 0x1 PUSH1 0x1 PUSH1 0xA0 SHL SUB AND CALLER EQ PUSH2 0x10B6 JUMPI PUSH1 0x40 MLOAD PUSH3 0x461BCD PUSH1 0xE5 SHL DUP2 MSTORE PUSH1 0x20 PUSH1 0x4 DUP3 ADD DUP2 SWAP1 MSTORE PUSH1 0x24 DUP3 ADD MSTORE PUSH32 0x4F776E61626C653A2063616C6C6572206973206E6F7420746865206F776E6572 PUSH1 0x44 DUP3 ADD MSTORE PUSH1 0x64 ADD PUSH2 0x500 JUMP JUMPDEST PUSH1 0x1 PUSH1 0x1 PUSH1 0xA0 SHL SUB DUP2 AND PUSH2 0x111B JUMPI PUSH1 0x40 MLOAD PUSH3 0x461BCD PUSH1 0xE5 SHL DUP2 MSTORE PUSH1 0x20 PUSH1 0x4 DUP3 ADD MSTORE PUSH1 0x26 PUSH1 0x24 DUP3 ADD MSTORE PUSH32 0x4F776E61626C653A206E6577206F776E657220697320746865207A65726F2061 PUSH1 0x44 DUP3 ADD MSTORE PUSH6 0x646472657373 PUSH1 0xD0 SHL PUSH1 0x64 DUP3 ADD MSTORE PUSH1 0x84 ADD PUSH2 0x500 JUMP JUMPDEST PUSH2 0x541 DUP2 PUSH2 0x1142 JUMP JUMPDEST PUSH1 0x0 PUSH2 0x1139 DUP4 PUSH1 0x1 PUSH1 0x1 PUSH1 0xA0 SHL SUB DUP5 AND PUSH2 0x130A JUMP JUMPDEST SWAP1 POP JUMPDEST SWAP3 SWAP2 POP POP JUMP JUMPDEST PUSH1 0x1 DUP1 SLOAD PUSH1 0x1 PUSH1 0x1 PUSH1 0xA0 SHL SUB DUP4 DUP2 AND PUSH1 0x1 PUSH1 0x1 PUSH1 0xA0 SHL SUB NOT DUP4 AND DUP2 OR SWAP1 SWAP4 SSTORE PUSH1 0x40 MLOAD SWAP2 AND SWAP2 SWAP1 DUP3 SWAP1 PUSH32 0x8BE0079C531659141344CD1FD0A4F28419497F9722A3DAAFE3B4186F6B6457E0 SWAP1 PUSH1 0x0 SWAP1 LOG3 POP POP JUMP JUMPDEST PUSH1 0x0 PUSH2 0x1139 DUP3 DUP5 PUSH2 0x162D JUMP JUMPDEST PUSH1 0x0 PUSH2 0x1139 DUP3 DUP5 PUSH2 0x164C JUMP JUMPDEST PUSH1 0x0 PUSH2 0x1139 DUP3 DUP5 PUSH2 0x1520 JUMP JUMPDEST PUSH1 0x40 DUP1 MLOAD PUSH1 0x1 PUSH1 0x1 PUSH1 0xA0 SHL SUB DUP6 DUP2 AND PUSH1 0x24 DUP4 ADD MSTORE DUP5 DUP2 AND PUSH1 0x44 DUP4 ADD MSTORE PUSH1 0x64 DUP1 DUP4 ADD DUP6 SWAP1 MSTORE DUP4 MLOAD DUP1 DUP5 SUB SWAP1 SWAP2 ADD DUP2 MSTORE PUSH1 0x84 SWAP1 SWAP3 ADD DUP4 MSTORE PUSH1 0x20 DUP3 ADD DUP1 MLOAD PUSH1 0x1 PUSH1 0x1 PUSH1 0xE0 SHL SUB AND PUSH4 0x23B872DD PUSH1 0xE0 SHL OR SWAP1 MSTORE SWAP2 MLOAD PUSH1 0x0 SWAP3 DUP4 SWAP3 SWAP1 DUP9 AND SWAP2 PUSH2 0x121C SWAP2 SWAP1 PUSH2 0x1496 JUMP JUMPDEST PUSH1 0x0 PUSH1 0x40 MLOAD DUP1 DUP4 SUB DUP2 PUSH1 0x0 DUP7 GAS CALL SWAP2 POP POP RETURNDATASIZE DUP1 PUSH1 0x0 DUP2 EQ PUSH2 0x1259 JUMPI PUSH1 0x40 MLOAD SWAP2 POP PUSH1 0x1F NOT PUSH1 0x3F RETURNDATASIZE ADD AND DUP3 ADD PUSH1 0x40 MSTORE RETURNDATASIZE DUP3 MSTORE RETURNDATASIZE PUSH1 0x0 PUSH1 0x20 DUP5 ADD RETURNDATACOPY PUSH2 0x125E JUMP JUMPDEST PUSH1 0x60 SWAP2 POP JUMPDEST POP SWAP2 POP SWAP2 POP DUP2 DUP1 ISZERO PUSH2 0x1288 JUMPI POP DUP1 MLOAD ISZERO DUP1 PUSH2 0x1288 JUMPI POP DUP1 DUP1 PUSH1 0x20 ADD SWAP1 MLOAD DUP2 ADD SWAP1 PUSH2 0x1288 SWAP2 SWAP1 PUSH2 0x1442 JUMP JUMPDEST PUSH2 0x12E0 JUMPI PUSH1 0x40 MLOAD PUSH3 0x461BCD PUSH1 0xE5 SHL DUP2 MSTORE PUSH1 0x20 PUSH1 0x4 DUP3 ADD MSTORE PUSH1 0x24 DUP1 DUP3 ADD MSTORE PUSH32 0x5472616E7366657248656C7065723A205452414E534645525F46524F4D5F4641 PUSH1 0x44 DUP3 ADD MSTORE PUSH4 0x12531151 PUSH1 0xE2 SHL PUSH1 0x64 DUP3 ADD MSTORE PUSH1 0x84 ADD PUSH2 0x500 JUMP JUMPDEST POP POP POP POP POP POP JUMP JUMPDEST PUSH1 0x1 PUSH1 0x1 PUSH1 0xA0 SHL SUB DUP2 AND PUSH1 0x0 SWAP1 DUP2 MSTORE PUSH1 0x1 DUP4 ADD PUSH1 0x20 MSTORE PUSH1 0x40 DUP2 KECCAK256 SLOAD ISZERO ISZERO PUSH2 0x1139 JUMP JUMPDEST PUSH1 0x0 DUP2 DUP2 MSTORE PUSH1 0x1 DUP4 ADD PUSH1 0x20 MSTORE PUSH1 0x40 DUP2 KECCAK256 SLOAD PUSH2 0x1351 JUMPI POP DUP2 SLOAD PUSH1 0x1 DUP2 DUP2 ADD DUP5 SSTORE PUSH1 0x0 DUP5 DUP2 MSTORE PUSH1 0x20 DUP1 DUP3 KECCAK256 SWAP1 SWAP4 ADD DUP5 SWAP1 SSTORE DUP5 SLOAD DUP5 DUP3 MSTORE DUP3 DUP7 ADD SWAP1 SWAP4 MSTORE PUSH1 0x40 SWAP1 KECCAK256 SWAP2 SWAP1 SWAP2 SSTORE PUSH2 0x113C JUMP JUMPDEST POP PUSH1 0x0 PUSH2 0x113C JUMP JUMPDEST PUSH1 0x0 PUSH1 0x20 DUP3 DUP5 SUB SLT ISZERO PUSH2 0x136B JUMPI PUSH1 0x0 DUP1 REVERT JUMPDEST DUP2 CALLDATALOAD PUSH2 0x1376 DUP2 PUSH2 0x16AA JUMP JUMPDEST SWAP4 SWAP3 POP POP POP JUMP JUMPDEST PUSH1 0x0 DUP1 PUSH1 0x0 DUP1 PUSH2 0x180 DUP1 DUP7 DUP9 SUB SLT ISZERO PUSH2 0x1395 JUMPI PUSH1 0x0 DUP1 REVERT JUMPDEST DUP6 CALLDATALOAD PUSH2 0x13A0 DUP2 PUSH2 0x16AA JUMP JUMPDEST SWAP5 POP PUSH1 0x20 DUP7 DUP2 ADD CALLDATALOAD PUSH2 0x13B1 DUP2 PUSH2 0x16AA JUMP JUMPDEST SWAP5 POP PUSH1 0x40 DUP8 ADD CALLDATALOAD PUSH2 0x13C1 DUP2 PUSH2 0x16AA JUMP JUMPDEST SWAP4 POP PUSH1 0x7F DUP8 ADD DUP9 SGT PUSH2 0x13D2 JUMPI PUSH1 0x0 DUP1 REVERT JUMPDEST PUSH1 0x40 MLOAD PUSH2 0x120 DUP2 ADD DUP2 DUP2 LT PUSH8 0xFFFFFFFFFFFFFFFF DUP3 GT OR ISZERO PUSH2 0x13F6 JUMPI PUSH2 0x13F6 PUSH2 0x1694 JUMP JUMPDEST PUSH1 0x40 MSTORE DUP1 PUSH1 0x60 DUP10 ADD DUP5 DUP11 ADD DUP12 LT ISZERO PUSH2 0x140D JUMPI PUSH1 0x0 DUP1 REVERT JUMPDEST PUSH1 0x0 SWAP5 POP JUMPDEST PUSH1 0x9 DUP6 LT ISZERO PUSH2 0x1431 JUMPI DUP1 CALLDATALOAD DUP3 MSTORE PUSH1 0x1 SWAP5 SWAP1 SWAP5 ADD SWAP4 SWAP1 DUP4 ADD SWAP1 DUP4 ADD PUSH2 0x1412 JUMP JUMPDEST POP POP DUP1 SWAP4 POP POP POP POP SWAP3 SWAP6 SWAP2 SWAP5 POP SWAP3 POP JUMP JUMPDEST PUSH1 0x0 PUSH1 0x20 DUP3 DUP5 SUB SLT ISZERO PUSH2 0x1454 JUMPI PUSH1 0x0 DUP1 REVERT JUMPDEST DUP2 MLOAD DUP1 ISZERO ISZERO DUP2 EQ PUSH2 0x1376 JUMPI PUSH1 0x0 DUP1 REVERT JUMPDEST PUSH1 0x0 PUSH1 0x20 DUP3 DUP5 SUB SLT ISZERO PUSH2 0x1476 JUMPI PUSH1 0x0 DUP1 REVERT JUMPDEST POP CALLDATALOAD SWAP2 SWAP1 POP JUMP JUMPDEST PUSH1 0x0 PUSH1 0x20 DUP3 DUP5 SUB SLT ISZERO PUSH2 0x148F JUMPI PUSH1 0x0 DUP1 REVERT JUMPDEST POP MLOAD SWAP2 SWAP1 POP JUMP JUMPDEST PUSH1 0x0 DUP3 MLOAD PUSH1 0x0 JUMPDEST DUP2 DUP2 LT ISZERO PUSH2 0x14B7 JUMPI PUSH1 0x20 DUP2 DUP7 ADD DUP2 ADD MLOAD DUP6 DUP4 ADD MSTORE ADD PUSH2 0x149D JUMP JUMPDEST DUP2 DUP2 GT ISZERO PUSH2 0x14C6 JUMPI PUSH1 0x0 DUP3 DUP6 ADD MSTORE JUMPDEST POP SWAP2 SWAP1 SWAP2 ADD SWAP3 SWAP2 POP POP JUMP JUMPDEST PUSH1 0x20 DUP1 DUP3 MSTORE PUSH1 0x1F SWAP1 DUP3 ADD MSTORE PUSH32 0x5265656E7472616E637947756172643A207265656E7472616E742063616C6C00 PUSH1 0x40 DUP3 ADD MSTORE PUSH1 0x60 ADD SWAP1 JUMP JUMPDEST PUSH1 0x0 DUP3 NOT DUP3 GT ISZERO PUSH2 0x151B JUMPI PUSH2 0x151B PUSH2 0x167E JUMP JUMPDEST POP ADD SWAP1 JUMP JUMPDEST PUSH1 0x0 DUP3 PUSH2 0x153D JUMPI PUSH4 0x4E487B71 PUSH1 0xE0 SHL PUSH1 0x0 MSTORE PUSH1 0x12 PUSH1 0x4 MSTORE PUSH1 0x24 PUSH1 0x0 REVERT JUMPDEST POP DIV SWAP1 JUMP JUMPDEST PUSH1 0x1 DUP2 DUP2 JUMPDEST DUP1 DUP6 GT ISZERO PUSH2 0x157D JUMPI DUP2 PUSH1 0x0 NOT DIV DUP3 GT ISZERO PUSH2 0x1563 JUMPI PUSH2 0x1563 PUSH2 0x167E JUMP JUMPDEST DUP1 DUP6 AND ISZERO PUSH2 0x1570 JUMPI SWAP2 DUP2 MUL SWAP2 JUMPDEST SWAP4 DUP5 SHR SWAP4 SWAP1 DUP1 MUL SWAP1 PUSH2 0x1547 JUMP JUMPDEST POP SWAP3 POP SWAP3 SWAP1 POP JUMP JUMPDEST PUSH1 0x0 PUSH2 0x1139 DUP4 DUP4 PUSH1 0x0 DUP3 PUSH2 0x159B JUMPI POP PUSH1 0x1 PUSH2 0x113C JUMP JUMPDEST DUP2 PUSH2 0x15A8 JUMPI POP PUSH1 0x0 PUSH2 0x113C JUMP JUMPDEST DUP2 PUSH1 0x1 DUP2 EQ PUSH2 0x15BE JUMPI PUSH1 0x2 DUP2 EQ PUSH2 0x15C8 JUMPI PUSH2 0x15E4 JUMP JUMPDEST PUSH1 0x1 SWAP2 POP POP PUSH2 0x113C JUMP JUMPDEST PUSH1 0xFF DUP5 GT ISZERO PUSH2 0x15D9 JUMPI PUSH2 0x15D9 PUSH2 0x167E JUMP JUMPDEST POP POP PUSH1 0x1 DUP3 SHL PUSH2 0x113C JUMP JUMPDEST POP PUSH1 0x20 DUP4 LT PUSH2 0x133 DUP4 LT AND PUSH1 0x4E DUP5 LT PUSH1 0xB DUP5 LT AND OR ISZERO PUSH2 0x1607 JUMPI POP DUP2 DUP2 EXP PUSH2 0x113C JUMP JUMPDEST PUSH2 0x1611 DUP4 DUP4 PUSH2 0x1542 JUMP JUMPDEST DUP1 PUSH1 0x0 NOT DIV DUP3 GT ISZERO PUSH2 0x1625 JUMPI PUSH2 0x1625 PUSH2 0x167E JUMP JUMPDEST MUL SWAP4 SWAP3 POP POP POP JUMP JUMPDEST PUSH1 0x0 DUP2 PUSH1 0x0 NOT DIV DUP4 GT DUP3 ISZERO ISZERO AND ISZERO PUSH2 0x1647 JUMPI PUSH2 0x1647 PUSH2 0x167E JUMP JUMPDEST POP MUL SWAP1 JUMP JUMPDEST PUSH1 0x0 DUP3 DUP3 LT ISZERO PUSH2 0x165E JUMPI PUSH2 0x165E PUSH2 0x167E JUMP JUMPDEST POP SUB SWAP1 JUMP JUMPDEST PUSH1 0x0 PUSH1 0x0 NOT DUP3 EQ ISZERO PUSH2 0x1677 JUMPI PUSH2 0x1677 PUSH2 0x167E JUMP JUMPDEST POP PUSH1 0x1 ADD SWAP1 JUMP JUMPDEST PUSH4 0x4E487B71 PUSH1 0xE0 SHL PUSH1 0x0 MSTORE PUSH1 0x11 PUSH1 0x4 MSTORE PUSH1 0x24 PUSH1 0x0 REVERT JUMPDEST PUSH4 0x4E487B71 PUSH1 0xE0 SHL PUSH1 0x0 MSTORE PUSH1 0x41 PUSH1 0x4 MSTORE PUSH1 0x24 PUSH1 0x0 REVERT JUMPDEST PUSH1 0x1 PUSH1 0x1 PUSH1 0xA0 SHL SUB DUP2 AND DUP2 EQ PUSH2 0x541 JUMPI PUSH1 0x0 DUP1 REVERT INVALID LOG2 PUSH5 0x6970667358 0x22 SLT KECCAK256 0xE8 SELFBALANCE PUSH4 0x6A6D5FAA 0x2E PUSH26 0x8F62127C74F8B3C55CFBFDB354EFE3256CBB91C6659D5F64736F PUSH13 0x63430008050033000000000000 "
				},
				"gasEstimates": {
					"creation": {
						"codeDepositCost": "1175400",
						"executionCost": "infinite",
						"totalCost": "infinite"
					},
					"external": {
						"WETH()": "2448",
						"backToken()": "infinite",
						"buyerInfo(address)": "8990",
						"checkAdminAddress()": "2521",
						"deposit(uint256)": "infinite",
						"feeAnyone()": "2318",
						"getBalance(address)": "3072",
						"initialSaleInfor(address,address,address,uint256[9])": "infinite",
						"owner()": "2431",
						"presaleStatus()": "13013",
						"renounceOwnership()": "28184",
						"saleInfor()": "25810",
						"saleTotalSupply()": "4441",
						"status()": "4555",
						"totalFee()": "2363",
						"transferOwnership(address)": "infinite",
						"userClaimEmergency()": "infinite",
						"userFee(address)": "2558",
						"userRefundEmergency()": "infinite"
					}
				},
				"methodIdentifiers": {
					"WETH()": "ad5c4648",
					"backToken()": "861faf5f",
					"buyerInfo(address)": "e2d3f423",
					"checkAdminAddress()": "cad5b0f7",
					"deposit(uint256)": "b6b55f25",
					"feeAnyone()": "3b5ef2ad",
					"getBalance(address)": "f8b2cb4f",
					"initialSaleInfor(address,address,address,uint256[9])": "8f1eae4c",
					"owner()": "8da5cb5b",
					"presaleStatus()": "acfb2355",
					"renounceOwnership()": "715018a6",
					"saleInfor()": "18856a2f",
					"saleTotalSupply()": "12e5d0b9",
					"status()": "200d2ed2",
					"totalFee()": "1df4ccfc",
					"transferOwnership(address)": "f2fde38b",
					"userClaimEmergency()": "ab33985a",
					"userFee(address)": "56c5f349",
					"userRefundEmergency()": "95661e70"
				}
			},
			"storageLayout": {
				"storage": [
					{
						"astId": 2245,
						"contract": "Ethereum/Presale.sol:Presale",
						"label": "_status",
						"offset": 0,
						"slot": "0",
						"type": "t_uint256"
					},
					{
						"astId": 2137,
						"contract": "Ethereum/Presale.sol:Presale",
						"label": "_owner",
						"offset": 0,
						"slot": "1",
						"type": "t_address"
					},
					{
						"astId": 770,
						"contract": "Ethereum/Presale.sol:Presale",
						"label": "buyerInfo",
						"offset": 0,
						"slot": "2",
						"type": "t_mapping(t_address,t_struct(BuyerInfo)749_storage)"
					},
					{
						"astId": 774,
						"contract": "Ethereum/Presale.sol:Presale",
						"label": "userFee",
						"offset": 0,
						"slot": "3",
						"type": "t_mapping(t_address,t_uint256)"
					},
					{
						"astId": 777,
						"contract": "Ethereum/Presale.sol:Presale",
						"label": "presaleStatus",
						"offset": 0,
						"slot": "4",
						"type": "t_struct(PresaleStatus)765_storage"
					},
					{
						"astId": 780,
						"contract": "Ethereum/Presale.sol:Presale",
						"label": "saleTotalSupply",
						"offset": 0,
						"slot": "11",
						"type": "t_struct(SaleTotalSupply)740_storage"
					},
					{
						"astId": 783,
						"contract": "Ethereum/Presale.sol:Presale",
						"label": "saleInfor",
						"offset": 0,
						"slot": "13",
						"type": "t_struct(SaleInfor)735_storage"
					},
					{
						"astId": 786,
						"contract": "Ethereum/Presale.sol:Presale",
						"label": "WETH",
						"offset": 0,
						"slot": "25",
						"type": "t_contract(IERC20)663"
					},
					{
						"astId": 788,
						"contract": "Ethereum/Presale.sol:Presale",
						"label": "feeAnyone",
						"offset": 0,
						"slot": "26",
						"type": "t_uint256"
					},
					{
						"astId": 791,
						"contract": "Ethereum/Presale.sol:Presale",
						"label": "admins",
						"offset": 0,
						"slot": "27",
						"type": "t_struct(AddressSet)1842_storage"
					},
					{
						"astId": 793,
						"contract": "Ethereum/Presale.sol:Presale",
						"label": "totalFee",
						"offset": 0,
						"slot": "29",
						"type": "t_uint256"
					}
				],
				"types": {
					"t_address": {
						"encoding": "inplace",
						"label": "address",
						"numberOfBytes": "20"
					},
					"t_address_payable": {
						"encoding": "inplace",
						"label": "address payable",
						"numberOfBytes": "20"
					},
					"t_array(t_address)dyn_storage": {
						"base": "t_address",
						"encoding": "dynamic_array",
						"label": "address[]",
						"numberOfBytes": "32"
					},
					"t_array(t_bytes32)dyn_storage": {
						"base": "t_bytes32",
						"encoding": "dynamic_array",
						"label": "bytes32[]",
						"numberOfBytes": "32"
					},
					"t_bool": {
						"encoding": "inplace",
						"label": "bool",
						"numberOfBytes": "1"
					},
					"t_bytes32": {
						"encoding": "inplace",
						"label": "bytes32",
						"numberOfBytes": "32"
					},
					"t_contract(ERC20)585": {
						"encoding": "inplace",
						"label": "contract ERC20",
						"numberOfBytes": "20"
					},
					"t_contract(IERC20)663": {
						"encoding": "inplace",
						"label": "contract IERC20",
						"numberOfBytes": "20"
					},
					"t_mapping(t_address,t_struct(BuyerInfo)749_storage)": {
						"encoding": "mapping",
						"key": "t_address",
						"label": "mapping(address => struct Presale.BuyerInfo)",
						"numberOfBytes": "32",
						"value": "t_struct(BuyerInfo)749_storage"
					},
					"t_mapping(t_address,t_uint256)": {
						"encoding": "mapping",
						"key": "t_address",
						"label": "mapping(address => uint256)",
						"numberOfBytes": "32",
						"value": "t_uint256"
					},
					"t_mapping(t_bytes32,t_uint256)": {
						"encoding": "mapping",
						"key": "t_bytes32",
						"label": "mapping(bytes32 => uint256)",
						"numberOfBytes": "32",
						"value": "t_uint256"
					},
					"t_struct(AddressSet)1842_storage": {
						"encoding": "inplace",
						"label": "struct EnumerableSet.AddressSet",
						"members": [
							{
								"astId": 1841,
								"contract": "Ethereum/Presale.sol:Presale",
								"label": "_inner",
								"offset": 0,
								"slot": "0",
								"type": "t_struct(Set)1541_storage"
							}
						],
						"numberOfBytes": "64"
					},
					"t_struct(BuyerInfo)749_storage": {
						"encoding": "inplace",
						"label": "struct Presale.BuyerInfo",
						"members": [
							{
								"astId": 742,
								"contract": "Ethereum/Presale.sol:Presale",
								"label": "baseDeposit",
								"offset": 0,
								"slot": "0",
								"type": "t_uint256"
							},
							{
								"astId": 744,
								"contract": "Ethereum/Presale.sol:Presale",
								"label": "tokenOwner",
								"offset": 0,
								"slot": "1",
								"type": "t_uint256"
							},
							{
								"astId": 746,
								"contract": "Ethereum/Presale.sol:Presale",
								"label": "lastWithDraw",
								"offset": 0,
								"slot": "2",
								"type": "t_uint256"
							},
							{
								"astId": 748,
								"contract": "Ethereum/Presale.sol:Presale",
								"label": "totalTokenWithDraw",
								"offset": 0,
								"slot": "3",
								"type": "t_uint256"
							}
						],
						"numberOfBytes": "128"
					},
					"t_struct(PresaleStatus)765_storage": {
						"encoding": "inplace",
						"label": "struct Presale.PresaleStatus",
						"members": [
							{
								"astId": 751,
								"contract": "Ethereum/Presale.sol:Presale",
								"label": "totalBaseCollected",
								"offset": 0,
								"slot": "0",
								"type": "t_uint256"
							},
							{
								"astId": 753,
								"contract": "Ethereum/Presale.sol:Presale",
								"label": "totalTokenSold",
								"offset": 0,
								"slot": "1",
								"type": "t_uint256"
							},
							{
								"astId": 755,
								"contract": "Ethereum/Presale.sol:Presale",
								"label": "totalTokenWithDraw",
								"offset": 0,
								"slot": "2",
								"type": "t_uint256"
							},
							{
								"astId": 757,
								"contract": "Ethereum/Presale.sol:Presale",
								"label": "totalBaseWithDraw",
								"offset": 0,
								"slot": "3",
								"type": "t_uint256"
							},
							{
								"astId": 759,
								"contract": "Ethereum/Presale.sol:Presale",
								"label": "numberBuyer",
								"offset": 0,
								"slot": "4",
								"type": "t_uint256"
							},
							{
								"astId": 761,
								"contract": "Ethereum/Presale.sol:Presale",
								"label": "totalFee",
								"offset": 0,
								"slot": "5",
								"type": "t_uint256"
							},
							{
								"astId": 764,
								"contract": "Ethereum/Presale.sol:Presale",
								"label": "admin",
								"offset": 0,
								"slot": "6",
								"type": "t_array(t_address)dyn_storage"
							}
						],
						"numberOfBytes": "224"
					},
					"t_struct(SaleInfor)735_storage": {
						"encoding": "inplace",
						"label": "struct Presale.SaleInfor",
						"members": [
							{
								"astId": 710,
								"contract": "Ethereum/Presale.sol:Presale",
								"label": "presaleOwner",
								"offset": 0,
								"slot": "0",
								"type": "t_address_payable"
							},
							{
								"astId": 713,
								"contract": "Ethereum/Presale.sol:Presale",
								"label": "saleToken",
								"offset": 0,
								"slot": "1",
								"type": "t_contract(ERC20)585"
							},
							{
								"astId": 716,
								"contract": "Ethereum/Presale.sol:Presale",
								"label": "baseToken",
								"offset": 0,
								"slot": "2",
								"type": "t_contract(ERC20)585"
							},
							{
								"astId": 718,
								"contract": "Ethereum/Presale.sol:Presale",
								"label": "tokenPrice",
								"offset": 0,
								"slot": "3",
								"type": "t_uint256"
							},
							{
								"astId": 720,
								"contract": "Ethereum/Presale.sol:Presale",
								"label": "startSale",
								"offset": 0,
								"slot": "4",
								"type": "t_uint256"
							},
							{
								"astId": 722,
								"contract": "Ethereum/Presale.sol:Presale",
								"label": "endSale",
								"offset": 0,
								"slot": "5",
								"type": "t_uint256"
							},
							{
								"astId": 724,
								"contract": "Ethereum/Presale.sol:Presale",
								"label": "minSpendPerBuyer",
								"offset": 0,
								"slot": "6",
								"type": "t_uint256"
							},
							{
								"astId": 726,
								"contract": "Ethereum/Presale.sol:Presale",
								"label": "maxSpendPerBuyer",
								"offset": 0,
								"slot": "7",
								"type": "t_uint256"
							},
							{
								"astId": 728,
								"contract": "Ethereum/Presale.sol:Presale",
								"label": "refundFee",
								"offset": 0,
								"slot": "8",
								"type": "t_uint256"
							},
							{
								"astId": 730,
								"contract": "Ethereum/Presale.sol:Presale",
								"label": "claimFee",
								"offset": 0,
								"slot": "9",
								"type": "t_uint256"
							},
							{
								"astId": 732,
								"contract": "Ethereum/Presale.sol:Presale",
								"label": "saleIsBaseToken",
								"offset": 0,
								"slot": "10",
								"type": "t_bool"
							},
							{
								"astId": 734,
								"contract": "Ethereum/Presale.sol:Presale",
								"label": "amountTokenForSale",
								"offset": 0,
								"slot": "11",
								"type": "t_uint256"
							}
						],
						"numberOfBytes": "384"
					},
					"t_struct(SaleTotalSupply)740_storage": {
						"encoding": "inplace",
						"label": "struct Presale.SaleTotalSupply",
						"members": [
							{
								"astId": 737,
								"contract": "Ethereum/Presale.sol:Presale",
								"label": "hardCap",
								"offset": 0,
								"slot": "0",
								"type": "t_uint256"
							},
							{
								"astId": 739,
								"contract": "Ethereum/Presale.sol:Presale",
								"label": "softCap",
								"offset": 0,
								"slot": "1",
								"type": "t_uint256"
							}
						],
						"numberOfBytes": "64"
					},
					"t_struct(Set)1541_storage": {
						"encoding": "inplace",
						"label": "struct EnumerableSet.Set",
						"members": [
							{
								"astId": 1536,
								"contract": "Ethereum/Presale.sol:Presale",
								"label": "_values",
								"offset": 0,
								"slot": "0",
								"type": "t_array(t_bytes32)dyn_storage"
							},
							{
								"astId": 1540,
								"contract": "Ethereum/Presale.sol:Presale",
								"label": "_indexes",
								"offset": 0,
								"slot": "1",
								"type": "t_mapping(t_bytes32,t_uint256)"
							}
						],
						"numberOfBytes": "64"
					},
					"t_uint256": {
						"encoding": "inplace",
						"label": "uint256",
						"numberOfBytes": "32"
					}
				}
			},
			"userdoc": {
				"kind": "user",
				"methods": {},
				"version": 1
			}
		}
	}
}