{
	"Ethereum/Presale.sol": {
		"Presale": {
			"abi": [
				{
					"inputs": [],
					"stateMutability": "payable",
					"type": "constructor"
				},
				{
					"anonymous": false,
					"inputs": [
						{
							"indexed": true,
							"internalType": "address",
							"name": "previousOwner",
							"type": "address"
						},
						{
							"indexed": true,
							"internalType": "address",
							"name": "newOwner",
							"type": "address"
						}
					],
					"name": "OwnershipTransferred",
					"type": "event"
				},
				{
					"inputs": [],
					"name": "WETH",
					"outputs": [
						{
							"internalType": "contract IERC20",
							"name": "",
							"type": "address"
						}
					],
					"stateMutability": "view",
					"type": "function"
				},
				{
					"inputs": [],
					"name": "adminReceiveFee",
					"outputs": [
						{
							"internalType": "address",
							"name": "",
							"type": "address"
						}
					],
					"stateMutability": "view",
					"type": "function"
				},
				{
					"inputs": [],
					"name": "backToken",
					"outputs": [],
					"stateMutability": "payable",
					"type": "function"
				},
				{
					"inputs": [
						{
							"internalType": "address",
							"name": "",
							"type": "address"
						}
					],
					"name": "buyerInfo",
					"outputs": [
						{
							"internalType": "uint256",
							"name": "baseDeposit",
							"type": "uint256"
						},
						{
							"internalType": "uint256",
							"name": "tokenOwner",
							"type": "uint256"
						},
						{
							"internalType": "uint256",
							"name": "lastWithDraw",
							"type": "uint256"
						},
						{
							"internalType": "uint256",
							"name": "totalTokenWithDraw",
							"type": "uint256"
						},
						{
							"internalType": "uint256",
							"name": "totalBaseWithDraw",
							"type": "uint256"
						}
					],
					"stateMutability": "view",
					"type": "function"
				},
				{
					"inputs": [],
					"name": "checkAdminAddress",
					"outputs": [
						{
							"internalType": "bool",
							"name": "",
							"type": "bool"
						}
					],
					"stateMutability": "view",
					"type": "function"
				},
				{
					"inputs": [
						{
							"internalType": "uint256",
							"name": "_amount",
							"type": "uint256"
						}
					],
					"name": "deposit",
					"outputs": [],
					"stateMutability": "payable",
					"type": "function"
				},
				{
					"inputs": [],
					"name": "feeAnyone",
					"outputs": [
						{
							"internalType": "uint256",
							"name": "",
							"type": "uint256"
						}
					],
					"stateMutability": "view",
					"type": "function"
				},
				{
					"inputs": [],
					"name": "feeCreateSale",
					"outputs": [
						{
							"internalType": "uint256",
							"name": "",
							"type": "uint256"
						}
					],
					"stateMutability": "view",
					"type": "function"
				},
				{
					"inputs": [
						{
							"internalType": "address",
							"name": "_address",
							"type": "address"
						}
					],
					"name": "getBalance",
					"outputs": [
						{
							"internalType": "uint256",
							"name": "",
							"type": "uint256"
						}
					],
					"stateMutability": "view",
					"type": "function"
				},
				{
					"inputs": [
						{
							"internalType": "address payable",
							"name": "_presaleOwner",
							"type": "address"
						},
						{
							"internalType": "contract ERC20",
							"name": "_saleToken",
							"type": "address"
						},
						{
							"internalType": "contract ERC20",
							"name": "_baseTOken",
							"type": "address"
						},
						{
							"internalType": "uint256[9]",
							"name": "datas",
							"type": "uint256[9]"
						},
						{
							"internalType": "uint256",
							"name": "_feeAnyone",
							"type": "uint256"
						}
					],
					"name": "initialSaleInfor",
					"outputs": [],
					"stateMutability": "nonpayable",
					"type": "function"
				},
				{
					"inputs": [],
					"name": "owner",
					"outputs": [
						{
							"internalType": "address",
							"name": "",
							"type": "address"
						}
					],
					"stateMutability": "view",
					"type": "function"
				},
				{
					"inputs": [],
					"name": "ownerClaimAndRefundToken",
					"outputs": [],
					"stateMutability": "nonpayable",
					"type": "function"
				},
				{
					"inputs": [],
					"name": "presaleStatus",
					"outputs": [
						{
							"internalType": "uint256",
							"name": "totalBaseCollected",
							"type": "uint256"
						},
						{
							"internalType": "uint256",
							"name": "totalTokenSold",
							"type": "uint256"
						},
						{
							"internalType": "uint256",
							"name": "totalTokenWithDraw",
							"type": "uint256"
						},
						{
							"internalType": "uint256",
							"name": "totalBaseWithDraw",
							"type": "uint256"
						},
						{
							"internalType": "uint256",
							"name": "totalTokenBackForAdmin",
							"type": "uint256"
						},
						{
							"internalType": "uint256",
							"name": "totalBaseBackForAdmin",
							"type": "uint256"
						},
						{
							"internalType": "uint256",
							"name": "numberBuyer",
							"type": "uint256"
						},
						{
							"internalType": "bool",
							"name": "isOwnerClaimSaleToken",
							"type": "bool"
						},
						{
							"internalType": "bool",
							"name": "isOwnerRefundBaseToken",
							"type": "bool"
						}
					],
					"stateMutability": "view",
					"type": "function"
				},
				{
					"inputs": [],
					"name": "renounceOwnership",
					"outputs": [],
					"stateMutability": "nonpayable",
					"type": "function"
				},
				{
					"inputs": [],
					"name": "saleInfor",
					"outputs": [
						{
							"internalType": "address payable",
							"name": "presaleOwner",
							"type": "address"
						},
						{
							"internalType": "contract ERC20",
							"name": "saleToken",
							"type": "address"
						},
						{
							"internalType": "contract ERC20",
							"name": "baseToken",
							"type": "address"
						},
						{
							"internalType": "uint256",
							"name": "tokenPrice",
							"type": "uint256"
						},
						{
							"internalType": "uint256",
							"name": "startSale",
							"type": "uint256"
						},
						{
							"internalType": "uint256",
							"name": "endSale",
							"type": "uint256"
						},
						{
							"internalType": "uint256",
							"name": "minSpendPerBuyer",
							"type": "uint256"
						},
						{
							"internalType": "uint256",
							"name": "maxSpendPerBuyer",
							"type": "uint256"
						},
						{
							"internalType": "uint256",
							"name": "refundFee",
							"type": "uint256"
						},
						{
							"internalType": "uint256",
							"name": "claimFee",
							"type": "uint256"
						},
						{
							"internalType": "bool",
							"name": "saleIsBaseToken",
							"type": "bool"
						},
						{
							"internalType": "uint256",
							"name": "amountTokenForSale",
							"type": "uint256"
						}
					],
					"stateMutability": "view",
					"type": "function"
				},
				{
					"inputs": [],
					"name": "saleTotalSupply",
					"outputs": [
						{
							"internalType": "uint256",
							"name": "hardCap",
							"type": "uint256"
						},
						{
							"internalType": "uint256",
							"name": "softCap",
							"type": "uint256"
						}
					],
					"stateMutability": "view",
					"type": "function"
				},
				{
					"inputs": [],
					"name": "status",
					"outputs": [
						{
							"internalType": "uint256",
							"name": "",
							"type": "uint256"
						}
					],
					"stateMutability": "view",
					"type": "function"
				},
				{
					"inputs": [],
					"name": "totalFee",
					"outputs": [
						{
							"internalType": "uint256",
							"name": "",
							"type": "uint256"
						}
					],
					"stateMutability": "view",
					"type": "function"
				},
				{
					"inputs": [
						{
							"internalType": "address",
							"name": "newOwner",
							"type": "address"
						}
					],
					"name": "transferOwnership",
					"outputs": [],
					"stateMutability": "nonpayable",
					"type": "function"
				},
				{
					"inputs": [],
					"name": "userClaimEmergency",
					"outputs": [],
					"stateMutability": "nonpayable",
					"type": "function"
				},
				{
					"inputs": [
						{
							"internalType": "bool",
							"name": "isClaim",
							"type": "bool"
						}
					],
					"name": "userClaimOrRefundWhenSaleSuccess",
					"outputs": [],
					"stateMutability": "nonpayable",
					"type": "function"
				},
				{
					"inputs": [
						{
							"internalType": "address",
							"name": "",
							"type": "address"
						}
					],
					"name": "userFee",
					"outputs": [
						{
							"internalType": "uint256",
							"name": "",
							"type": "uint256"
						}
					],
					"stateMutability": "view",
					"type": "function"
				},
				{
					"inputs": [],
					"name": "userRefundEmergency",
					"outputs": [],
					"stateMutability": "nonpayable",
					"type": "function"
				}
			],
			"devdoc": {
				"kind": "dev",
				"methods": {
					"owner()": {
						"details": "Returns the address of the current owner."
					},
					"renounceOwnership()": {
						"details": "Leaves the contract without owner. It will not be possible to call `onlyOwner` functions anymore. Can only be called by the current owner. NOTE: Renouncing ownership will leave the contract without an owner, thereby removing any functionality that is only available to the owner."
					},
					"transferOwnership(address)": {
						"details": "Transfers ownership of the contract to a new account (`newOwner`). Can only be called by the current owner."
					}
				},
				"version": 1
			},
			"evm": {
				"assembly": "    /* \"Ethereum/Presale.sol\":370:11642  contract Presale is ReentrancyGuard, Ownable{\r... */\n  mstore(0x40, 0x80)\n    /* \"Utils/ReentrancyGuard.sol\":1734:1735  1 */\n  0x01\n    /* \"Utils/ReentrancyGuard.sol\":1845:1852  _status */\n  0x00\n    /* \"Utils/ReentrancyGuard.sol\":1845:1867  _status = _NOT_ENTERED */\n  sstore\n    /* \"Utils/Ownable.sol\":942:974  _transferOwnership(_msgSender()) */\n  tag_6\n    /* \"Utils/Context.sol\":736:746  msg.sender */\n  caller\n    /* \"Utils/Ownable.sol\":942:960  _transferOwnership */\n  tag_9\n    /* \"Utils/Ownable.sol\":942:974  _transferOwnership(_msgSender()) */\n  jump\t// in\ntag_6:\n    /* \"Ethereum/Presale.sol\":2438:2442  WETH */\n  0x1b\n    /* \"Ethereum/Presale.sol\":2438:2494  WETH = ERC20(0xc778417E063141139Fce010982780140Aa0cD5Ab) */\n  dup1\n  sload\n    /* \"Ethereum/Presale.sol\":2451:2493  0xc778417E063141139Fce010982780140Aa0cD5Ab */\n  0xc778417e063141139fce010982780140aa0cd5ab\n  not(sub(shl(0xa0, 0x01), 0x01))\n    /* \"Ethereum/Presale.sol\":2438:2494  WETH = ERC20(0xc778417E063141139Fce010982780140Aa0cD5Ab) */\n  swap1\n  swap2\n  and\n  or\n  swap1\n  sstore\n    /* \"Ethereum/Presale.sol\":2505:2559  admins.add(0x6Ccb41eedA5a073076F3E7dC1614C185b5fA41eD) */\n  tag_11\n    /* \"Ethereum/Presale.sol\":2505:2511  admins */\n  0x1c\n    /* \"Ethereum/Presale.sol\":2516:2558  0x6Ccb41eedA5a073076F3E7dC1614C185b5fA41eD */\n  0x6ccb41eeda5a073076f3e7dc1614c185b5fa41ed\n    /* \"Ethereum/Presale.sol\":2505:2515  admins.add */\n  tag_12\n  0x20\n  swap1\n  dup2\n  shl\n  tag_0_128\n  or\n    /* \"Ethereum/Presale.sol\":2505:2559  admins.add(0x6Ccb41eedA5a073076F3E7dC1614C185b5fA41eD) */\n  swap1\n  shr\n  jump\t// in\ntag_11:\n  pop\n    /* \"Ethereum/Presale.sol\":2570:2624  admins.add(0x4f0B12bBF40Fc182559822A5b1dB6D34dbC3E016) */\n  tag_13\n    /* \"Ethereum/Presale.sol\":2581:2623  0x4f0B12bBF40Fc182559822A5b1dB6D34dbC3E016 */\n  0x4f0b12bbf40fc182559822a5b1db6d34dbc3e016\n    /* \"Ethereum/Presale.sol\":2570:2576  admins */\n  0x1c\n    /* \"Ethereum/Presale.sol\":2570:2580  admins.add */\n  or(tag_0_128, shl(0x20, tag_12))\n  swap1\n    /* \"Ethereum/Presale.sol\":2570:2624  admins.add(0x4f0B12bBF40Fc182559822A5b1dB6D34dbC3E016) */\n  swap2\n  swap1\n  0x20\n  shr\n  jump\t// in\ntag_13:\n  pop\n    /* \"Ethereum/Presale.sol\":370:11642  contract Presale is ReentrancyGuard, Ownable{\r... */\n  jump(tag_14)\n    /* \"Utils/Ownable.sol\":2333:2524  function _transferOwnership(address newOwner) internal virtual {\r... */\ntag_9:\n    /* \"Utils/Ownable.sol\":2426:2432  _owner */\n  0x01\n  dup1\n  sload\n  sub(shl(0xa0, 0x01), 0x01)\n    /* \"Utils/Ownable.sol\":2443:2460  _owner = newOwner */\n  dup4\n  dup2\n  and\n  not(sub(shl(0xa0, 0x01), 0x01))\n  dup4\n  and\n  dup2\n  or\n  swap1\n  swap4\n  sstore\n    /* \"Utils/Ownable.sol\":2476:2516  OwnershipTransferred(oldOwner, newOwner) */\n  mload(0x40)\n    /* \"Utils/Ownable.sol\":2426:2432  _owner */\n  swap2\n  and\n  swap2\n    /* \"Utils/Ownable.sol\":2443:2460  _owner = newOwner */\n  swap1\n    /* \"Utils/Ownable.sol\":2426:2432  _owner */\n  dup3\n  swap1\n    /* \"Utils/Ownable.sol\":2476:2516  OwnershipTransferred(oldOwner, newOwner) */\n  0x8be0079c531659141344cd1fd0a4f28419497f9722a3daafe3b4186f6b6457e0\n  swap1\n    /* \"Utils/Ownable.sol\":2407:2423  address oldOwner */\n  0x00\n  swap1\n    /* \"Utils/Ownable.sol\":2476:2516  OwnershipTransferred(oldOwner, newOwner) */\n  log3\n    /* \"Utils/Ownable.sol\":2396:2524  {\r... */\n  pop\n    /* \"Utils/Ownable.sol\":2333:2524  function _transferOwnership(address newOwner) internal virtual {\r... */\n  pop\n  jump\t// out\n    /* \"Utils/EnumerableSet.sol\":8259:8411  function add(AddressSet storage set, address value) internal returns (bool) {\r... */\ntag_12:\n    /* \"Utils/EnumerableSet.sol\":8329:8333  bool */\n  0x00\n    /* \"Utils/EnumerableSet.sol\":8353:8403  _add(set._inner, bytes32(uint256(uint160(value)))) */\n  tag_18\n    /* \"Utils/EnumerableSet.sol\":8358:8361  set */\n  dup4\n  sub(shl(0xa0, 0x01), 0x01)\n    /* \"Utils/EnumerableSet.sol\":8378:8401  uint256(uint160(value)) */\n  dup5\n  and\n    /* \"Utils/EnumerableSet.sol\":8353:8357  _add */\n  tag_19\n    /* \"Utils/EnumerableSet.sol\":8353:8403  _add(set._inner, bytes32(uint256(uint160(value)))) */\n  jump\t// in\ntag_18:\n    /* \"Utils/EnumerableSet.sol\":8346:8403  return _add(set._inner, bytes32(uint256(uint160(value)))) */\n  swap1\n  pop\n    /* \"Utils/EnumerableSet.sol\":8259:8411  function add(AddressSet storage set, address value) internal returns (bool) {\r... */\ntag_17:\n  swap3\n  swap2\n  pop\n  pop\n  jump\t// out\n    /* \"Utils/EnumerableSet.sol\":2174:2588  function _add(Set storage set, bytes32 value) private returns (bool) {\r... */\ntag_19:\n    /* \"Utils/EnumerableSet.sol\":2237:2241  bool */\n  0x00\n    /* \"Utils/EnumerableSet.sol\":4367:4386  set._indexes[value] */\n  dup2\n  dup2\n  mstore\n    /* \"Utils/EnumerableSet.sol\":4367:4379  set._indexes */\n  0x01\n  dup4\n  add\n    /* \"Utils/EnumerableSet.sol\":4367:4386  set._indexes[value] */\n  0x20\n  mstore\n  0x40\n  dup2\n  keccak256\n  sload\n    /* \"Utils/EnumerableSet.sol\":2254:2581  if (!_contains(set, value)) {\r... */\n  tag_23\n  jumpi\n  pop\n    /* \"Utils/EnumerableSet.sol\":2297:2320  set._values.push(value) */\n  dup2\n  sload\n  0x01\n  dup2\n  dup2\n  add\n  dup5\n  sstore\n    /* \"Utils/EnumerableSet.sol\":2297:2308  set._values */\n  0x00\n    /* \"Utils/EnumerableSet.sol\":2297:2320  set._values.push(value) */\n  dup5\n  dup2\n  mstore\n  0x20\n  dup1\n  dup3\n  keccak256\n  swap1\n  swap4\n  add\n  dup5\n  swap1\n  sstore\n    /* \"Utils/EnumerableSet.sol\":2480:2498  set._values.length */\n  dup5\n  sload\n    /* \"Utils/EnumerableSet.sol\":2458:2477  set._indexes[value] */\n  dup5\n  dup3\n  mstore\n    /* \"Utils/EnumerableSet.sol\":2458:2470  set._indexes */\n  dup3\n  dup7\n  add\n    /* \"Utils/EnumerableSet.sol\":2458:2477  set._indexes[value] */\n  swap1\n  swap4\n  mstore\n  0x40\n  swap1\n  keccak256\n    /* \"Utils/EnumerableSet.sol\":2458:2498  set._indexes[value] = set._values.length */\n  swap2\n  swap1\n  swap2\n  sstore\n    /* \"Utils/EnumerableSet.sol\":2513:2524  return true */\n  jump(tag_17)\n    /* \"Utils/EnumerableSet.sol\":2254:2581  if (!_contains(set, value)) {\r... */\ntag_23:\n  pop\n    /* \"Utils/EnumerableSet.sol\":2564:2569  false */\n  0x00\n    /* \"Utils/EnumerableSet.sol\":2557:2569  return false */\n  jump(tag_17)\n    /* \"Ethereum/Presale.sol\":370:11642  contract Presale is ReentrancyGuard, Ownable{\r... */\ntag_14:\n  dataSize(sub_0)\n  dup1\n  dataOffset(sub_0)\n  0x00\n  codecopy\n  0x00\n  return\nstop\n\nsub_0: assembly {\n        /* \"Ethereum/Presale.sol\":370:11642  contract Presale is ReentrancyGuard, Ownable{\r... */\n      mstore(0x40, 0x80)\n      jumpi(tag_1, lt(calldatasize, 0x04))\n      shr(0xe0, calldataload(0x00))\n      dup1\n      0xa8c9ed15\n      gt\n      tag_25\n      jumpi\n      dup1\n      0xcad5b0f7\n      gt\n      tag_26\n      jumpi\n      dup1\n      0xcad5b0f7\n      eq\n      tag_19\n      jumpi\n      dup1\n      0xd4c1dee9\n      eq\n      tag_20\n      jumpi\n      dup1\n      0xe2d3f423\n      eq\n      tag_21\n      jumpi\n      dup1\n      0xeb002bb0\n      eq\n      tag_22\n      jumpi\n      dup1\n      0xf2fde38b\n      eq\n      tag_23\n      jumpi\n      dup1\n      0xf8b2cb4f\n      eq\n      tag_24\n      jumpi\n      0x00\n      dup1\n      revert\n    tag_26:\n      dup1\n      0xa8c9ed15\n      eq\n      tag_13\n      jumpi\n      dup1\n      0xab33985a\n      eq\n      tag_14\n      jumpi\n      dup1\n      0xacfb2355\n      eq\n      tag_15\n      jumpi\n      dup1\n      0xad5c4648\n      eq\n      tag_16\n      jumpi\n      dup1\n      0xae2b0965\n      eq\n      tag_17\n      jumpi\n      dup1\n      0xb6b55f25\n      eq\n      tag_18\n      jumpi\n      0x00\n      dup1\n      revert\n    tag_25:\n      dup1\n      0x56c5f349\n      gt\n      tag_27\n      jumpi\n      dup1\n      0x56c5f349\n      eq\n      tag_7\n      jumpi\n      dup1\n      0x715018a6\n      eq\n      tag_8\n      jumpi\n      dup1\n      0x861faf5f\n      eq\n      tag_9\n      jumpi\n      dup1\n      0x8da5cb5b\n      eq\n      tag_10\n      jumpi\n      dup1\n      0x8edf18e6\n      eq\n      tag_11\n      jumpi\n      dup1\n      0x95661e70\n      eq\n      tag_12\n      jumpi\n      0x00\n      dup1\n      revert\n    tag_27:\n      dup1\n      0x12e5d0b9\n      eq\n      tag_2\n      jumpi\n      dup1\n      0x18856a2f\n      eq\n      tag_3\n      jumpi\n      dup1\n      0x1df4ccfc\n      eq\n      tag_4\n      jumpi\n      dup1\n      0x200d2ed2\n      eq\n      tag_5\n      jumpi\n      dup1\n      0x3b5ef2ad\n      eq\n      tag_6\n      jumpi\n    tag_1:\n      0x00\n      dup1\n      revert\n        /* \"Ethereum/Presale.sol\":1741:1779  SaleTotalSupply public saleTotalSupply */\n    tag_2:\n      callvalue\n      dup1\n      iszero\n      tag_28\n      jumpi\n      0x00\n      dup1\n      revert\n    tag_28:\n      pop\n      sload(0x0d)\n      sload(0x0e)\n      tag_29\n      swap2\n      swap1\n      dup3\n      jump\n    tag_29:\n      0x40\n      dup1\n      mload\n        /* \"#utility.yul\":12092:12117   */\n      swap3\n      dup4\n      mstore\n        /* \"#utility.yul\":12148:12150   */\n      0x20\n        /* \"#utility.yul\":12133:12151   */\n      dup4\n      add\n        /* \"#utility.yul\":12126:12160   */\n      swap2\n      swap1\n      swap2\n      mstore\n        /* \"#utility.yul\":12065:12083   */\n      add\n        /* \"Ethereum/Presale.sol\":1741:1779  SaleTotalSupply public saleTotalSupply */\n    tag_31:\n      mload(0x40)\n      dup1\n      swap2\n      sub\n      swap1\n      return\n        /* \"Ethereum/Presale.sol\":1786:1812  SaleInfor public saleInfor */\n    tag_3:\n      callvalue\n      dup1\n      iszero\n      tag_33\n      jumpi\n      0x00\n      dup1\n      revert\n    tag_33:\n      pop\n      sload(0x0f)\n      sload(0x10)\n      sload(0x11)\n      sload(0x12)\n      sload(0x13)\n      sload(0x14)\n      sload(0x15)\n      sload(0x16)\n      sload(0x17)\n      sload(0x18)\n      sload(0x19)\n      sload(0x1a)\n      tag_34\n      swap12\n      sub(shl(0xa0, 0x01), 0x01)\n      swap1\n      dup2\n      and\n      swap12\n      dup2\n      and\n      swap11\n      and\n      swap9\n      swap8\n      swap7\n      swap6\n      swap5\n      swap4\n      swap3\n      swap2\n      0xff\n      and\n      swap1\n      dup13\n      jump\n    tag_34:\n      0x40\n      dup1\n      mload\n      sub(shl(0xa0, 0x01), 0x01)\n        /* \"#utility.yul\":3643:3658   */\n      swap14\n      dup15\n      and\n        /* \"#utility.yul\":3625:3659   */\n      dup2\n      mstore\n        /* \"#utility.yul\":3695:3710   */\n      swap12\n      dup14\n      and\n        /* \"#utility.yul\":3690:3692   */\n      0x20\n        /* \"#utility.yul\":3675:3693   */\n      dup14\n      add\n        /* \"#utility.yul\":3668:3711   */\n      mstore\n        /* \"#utility.yul\":3747:3762   */\n      swap10\n      swap1\n      swap12\n      and\n        /* \"#utility.yul\":3727:3745   */\n      swap9\n      dup11\n      add\n        /* \"#utility.yul\":3720:3763   */\n      swap9\n      swap1\n      swap9\n      mstore\n        /* \"#utility.yul\":3794:3796   */\n      0x60\n        /* \"#utility.yul\":3779:3797   */\n      dup10\n      add\n        /* \"#utility.yul\":3772:3806   */\n      swap7\n      swap1\n      swap7\n      mstore\n        /* \"#utility.yul\":3837:3840   */\n      0x80\n        /* \"#utility.yul\":3822:3841   */\n      dup9\n      add\n        /* \"#utility.yul\":3815:3850   */\n      swap5\n      swap1\n      swap5\n      mstore\n        /* \"#utility.yul\":3605:3608   */\n      0xa0\n        /* \"#utility.yul\":3866:3885   */\n      dup8\n      add\n        /* \"#utility.yul\":3859:3894   */\n      swap3\n      swap1\n      swap3\n      mstore\n        /* \"#utility.yul\":3925:3928   */\n      0xc0\n        /* \"#utility.yul\":3910:3929   */\n      dup7\n      add\n        /* \"#utility.yul\":3903:3938   */\n      mstore\n        /* \"#utility.yul\":3969:3972   */\n      0xe0\n        /* \"#utility.yul\":3954:3973   */\n      dup6\n      add\n        /* \"#utility.yul\":3947:3982   */\n      mstore\n        /* \"#utility.yul\":4013:4016   */\n      0x0100\n        /* \"#utility.yul\":3998:4017   */\n      dup5\n      add\n        /* \"#utility.yul\":3991:4026   */\n      mstore\n        /* \"#utility.yul\":4057:4060   */\n      0x0120\n        /* \"#utility.yul\":4042:4061   */\n      dup4\n      add\n        /* \"#utility.yul\":4035:4070   */\n      mstore\n        /* \"#utility.yul\":4114:4129   */\n      iszero\n        /* \"#utility.yul\":4107:4130   */\n      iszero\n        /* \"#utility.yul\":4101:4104   */\n      0x0140\n        /* \"#utility.yul\":4086:4105   */\n      dup3\n      add\n        /* \"#utility.yul\":4079:4131   */\n      mstore\n        /* \"#utility.yul\":4162:4165   */\n      0x0160\n        /* \"#utility.yul\":4147:4166   */\n      dup2\n      add\n        /* \"#utility.yul\":4140:4176   */\n      swap2\n      swap1\n      swap2\n      mstore\n        /* \"#utility.yul\":3574:3577   */\n      0x0180\n        /* \"#utility.yul\":3559:3578   */\n      add\n        /* \"Ethereum/Presale.sol\":1786:1812  SaleInfor public saleInfor */\n      tag_31\n        /* \"#utility.yul\":3541:4182   */\n      jump\n        /* \"Ethereum/Presale.sol\":1891:1914  uint256 public totalFee */\n    tag_4:\n      callvalue\n      dup1\n      iszero\n      tag_38\n      jumpi\n      0x00\n      dup1\n      revert\n    tag_38:\n      pop\n      tag_39\n      sload(0x1e)\n      dup2\n      jump\n    tag_39:\n      mload(0x40)\n        /* \"#utility.yul\":11882:11907   */\n      swap1\n      dup2\n      mstore\n        /* \"#utility.yul\":11870:11872   */\n      0x20\n        /* \"#utility.yul\":11855:11873   */\n      add\n        /* \"Ethereum/Presale.sol\":1891:1914  uint256 public totalFee */\n      tag_31\n        /* \"#utility.yul\":11837:11913   */\n      jump\n        /* \"Ethereum/Presale.sol\":3903:4240  function status() public view returns(uint256) {\r... */\n    tag_5:\n      callvalue\n      dup1\n      iszero\n      tag_43\n      jumpi\n      0x00\n      dup1\n      revert\n    tag_43:\n      pop\n      tag_39\n      tag_45\n      jump\t// in\n        /* \"Ethereum/Presale.sol\":1921:1945  uint256 public feeAnyone */\n    tag_6:\n      callvalue\n      dup1\n      iszero\n      tag_47\n      jumpi\n      0x00\n      dup1\n      revert\n    tag_47:\n      pop\n      tag_39\n      sload(0x1f)\n      dup2\n      jump\n        /* \"Ethereum/Presale.sol\":1651:1693  mapping(address => uint256) public userFee */\n    tag_7:\n      callvalue\n      dup1\n      iszero\n      tag_51\n      jumpi\n      0x00\n      dup1\n      revert\n    tag_51:\n      pop\n      tag_39\n      tag_53\n      calldatasize\n      0x04\n      tag_54\n      jump\t// in\n    tag_53:\n      mstore(0x20, 0x03)\n      0x00\n      swap1\n      dup2\n      mstore\n      0x40\n      swap1\n      keccak256\n      sload\n      dup2\n      jump\n        /* \"Utils/Ownable.sol\":1714:1817  function renounceOwnership() public virtual onlyOwner {\r... */\n    tag_8:\n      callvalue\n      dup1\n      iszero\n      tag_57\n      jumpi\n      0x00\n      dup1\n      revert\n    tag_57:\n      pop\n      tag_58\n      tag_59\n      jump\t// in\n    tag_58:\n      stop\n        /* \"Ethereum/Presale.sol\":11531:11639  function backToken() external payable {\r... */\n    tag_9:\n      tag_58\n      tag_61\n      jump\t// in\n        /* \"Utils/Ownable.sol\":1063:1150  function owner() public view virtual returns (address) {\r... */\n    tag_10:\n      callvalue\n      dup1\n      iszero\n      tag_62\n      jumpi\n      0x00\n      dup1\n      revert\n    tag_62:\n      pop\n        /* \"Utils/Ownable.sol\":1136:1142  _owner */\n      and(sub(shl(0xa0, 0x01), 0x01), sload(0x01))\n        /* \"Utils/Ownable.sol\":1063:1150  function owner() public view virtual returns (address) {\r... */\n    tag_63:\n      mload(0x40)\n      sub(shl(0xa0, 0x01), 0x01)\n        /* \"#utility.yul\":3050:3082   */\n      swap1\n      swap2\n      and\n        /* \"#utility.yul\":3032:3083   */\n      dup2\n      mstore\n        /* \"#utility.yul\":3020:3022   */\n      0x20\n        /* \"#utility.yul\":3005:3023   */\n      add\n        /* \"Utils/Ownable.sol\":1063:1150  function owner() public view virtual returns (address) {\r... */\n      tag_31\n        /* \"#utility.yul\":2987:3089   */\n      jump\n        /* \"Ethereum/Presale.sol\":8618:9820  function ownerClaimAndRefundToken() external onlyPresaleOwner nonReentrant{\r... */\n    tag_11:\n      callvalue\n      dup1\n      iszero\n      tag_67\n      jumpi\n      0x00\n      dup1\n      revert\n    tag_67:\n      pop\n      tag_58\n      tag_69\n      jump\t// in\n        /* \"Ethereum/Presale.sol\":7599:8610  function userRefundEmergency() external nonReentrant {\r... */\n    tag_12:\n      callvalue\n      dup1\n      iszero\n      tag_70\n      jumpi\n      0x00\n      dup1\n      revert\n    tag_70:\n      pop\n      tag_58\n      tag_72\n      jump\t// in\n        /* \"Ethereum/Presale.sol\":2640:3894  function initialSaleInfor(\r... */\n    tag_13:\n      callvalue\n      dup1\n      iszero\n      tag_73\n      jumpi\n      0x00\n      dup1\n      revert\n    tag_73:\n      pop\n      tag_58\n      tag_75\n      calldatasize\n      0x04\n      tag_76\n      jump\t// in\n    tag_75:\n      tag_77\n      jump\t// in\n        /* \"Ethereum/Presale.sol\":6587:7591  function userClaimEmergency() external nonReentrant {\r... */\n    tag_14:\n      callvalue\n      dup1\n      iszero\n      tag_78\n      jumpi\n      0x00\n      dup1\n      revert\n    tag_78:\n      pop\n      tag_58\n      tag_80\n      jump\t// in\n        /* \"Ethereum/Presale.sol\":1700:1734  PresaleStatus public presaleStatus */\n    tag_15:\n      callvalue\n      dup1\n      iszero\n      tag_81\n      jumpi\n      0x00\n      dup1\n      revert\n    tag_81:\n      pop\n      sload(0x04)\n      sload(0x05)\n      sload(0x06)\n      sload(0x07)\n      sload(0x08)\n      sload(0x09)\n      sload(0x0a)\n      sload(0x0b)\n      tag_82\n      swap8\n      swap7\n      swap6\n      swap5\n      swap4\n      swap3\n      swap2\n      swap1\n      0xff\n      dup1\n      dup3\n      and\n      swap2\n      0x0100\n      swap1\n      div\n      and\n      dup10\n      jump\n    tag_82:\n      0x40\n      dup1\n      mload\n        /* \"#utility.yul\":12998:13023   */\n      swap10\n      dup11\n      mstore\n        /* \"#utility.yul\":13054:13056   */\n      0x20\n        /* \"#utility.yul\":13039:13057   */\n      dup11\n      add\n        /* \"#utility.yul\":13032:13066   */\n      swap9\n      swap1\n      swap9\n      mstore\n        /* \"#utility.yul\":13082:13100   */\n      swap7\n      dup9\n      add\n        /* \"#utility.yul\":13075:13109   */\n      swap6\n      swap1\n      swap6\n      mstore\n        /* \"#utility.yul\":13140:13142   */\n      0x60\n        /* \"#utility.yul\":13125:13143   */\n      dup8\n      add\n        /* \"#utility.yul\":13118:13152   */\n      swap4\n      swap1\n      swap4\n      mstore\n        /* \"#utility.yul\":13183:13186   */\n      0x80\n        /* \"#utility.yul\":13168:13187   */\n      dup7\n      add\n        /* \"#utility.yul\":13161:13196   */\n      swap2\n      swap1\n      swap2\n      mstore\n        /* \"#utility.yul\":13227:13230   */\n      0xa0\n        /* \"#utility.yul\":13212:13231   */\n      dup6\n      add\n        /* \"#utility.yul\":13205:13240   */\n      mstore\n        /* \"#utility.yul\":13271:13274   */\n      0xc0\n        /* \"#utility.yul\":13256:13275   */\n      dup5\n      add\n        /* \"#utility.yul\":13249:13284   */\n      mstore\n        /* \"#utility.yul\":13328:13342   */\n      iszero\n        /* \"#utility.yul\":13321:13343   */\n      iszero\n        /* \"#utility.yul\":13315:13318   */\n      0xe0\n        /* \"#utility.yul\":13300:13319   */\n      dup4\n      add\n        /* \"#utility.yul\":13293:13344   */\n      mstore\n        /* \"#utility.yul\":13388:13402   */\n      iszero\n        /* \"#utility.yul\":13381:13403   */\n      iszero\n        /* \"#utility.yul\":13375:13378   */\n      0x0100\n        /* \"#utility.yul\":13360:13379   */\n      dup3\n      add\n        /* \"#utility.yul\":13353:13404   */\n      mstore\n        /* \"#utility.yul\":12985:12988   */\n      0x0120\n        /* \"#utility.yul\":12970:12989   */\n      add\n        /* \"Ethereum/Presale.sol\":1700:1734  PresaleStatus public presaleStatus */\n      tag_31\n        /* \"#utility.yul\":12952:13410   */\n      jump\n        /* \"Ethereum/Presale.sol\":1819:1837  IERC20 public WETH */\n    tag_16:\n      callvalue\n      dup1\n      iszero\n      tag_86\n      jumpi\n      0x00\n      dup1\n      revert\n    tag_86:\n      pop\n      sload(0x1b)\n      tag_63\n      swap1\n      sub(shl(0xa0, 0x01), 0x01)\n      and\n      dup2\n      jump\n        /* \"Ethereum/Presale.sol\":1952:1982  address public adminReceiveFee */\n    tag_17:\n      callvalue\n      dup1\n      iszero\n      tag_91\n      jumpi\n      0x00\n      dup1\n      revert\n    tag_91:\n      pop\n      sload(0x20)\n      tag_63\n      swap1\n      sub(shl(0xa0, 0x01), 0x01)\n      and\n      dup2\n      jump\n        /* \"Ethereum/Presale.sol\":4367:6579  function deposit(uint256 _amount) external payable nonReentrant {\r... */\n    tag_18:\n      tag_58\n      tag_96\n      calldatasize\n      0x04\n      tag_97\n      jump\t// in\n    tag_96:\n      tag_98\n      jump\t// in\n        /* \"Ethereum/Presale.sol\":4249:4359  function checkAdminAddress() public view returns(bool) {\r... */\n    tag_19:\n      callvalue\n      dup1\n      iszero\n      tag_99\n      jumpi\n      0x00\n      dup1\n      revert\n    tag_99:\n      pop\n      tag_100\n      tag_101\n      jump\t// in\n    tag_100:\n      mload(0x40)\n        /* \"#utility.yul\":5298:5312   */\n      swap1\n      iszero\n        /* \"#utility.yul\":5291:5313   */\n      iszero\n        /* \"#utility.yul\":5273:5314   */\n      dup2\n      mstore\n        /* \"#utility.yul\":5261:5263   */\n      0x20\n        /* \"#utility.yul\":5246:5264   */\n      add\n        /* \"Ethereum/Presale.sol\":4249:4359  function checkAdminAddress() public view returns(bool) {\r... */\n      tag_31\n        /* \"#utility.yul\":5228:5320   */\n      jump\n        /* \"Ethereum/Presale.sol\":1990:2018  uint256 public feeCreateSale */\n    tag_20:\n      callvalue\n      dup1\n      iszero\n      tag_104\n      jumpi\n      0x00\n      dup1\n      revert\n    tag_104:\n      pop\n      tag_39\n      sload(0x21)\n      dup2\n      jump\n        /* \"Ethereum/Presale.sol\":1598:1644  mapping(address => BuyerInfo) public buyerInfo */\n    tag_21:\n      callvalue\n      dup1\n      iszero\n      tag_108\n      jumpi\n      0x00\n      dup1\n      revert\n    tag_108:\n      pop\n      tag_109\n      tag_110\n      calldatasize\n      0x04\n      tag_54\n      jump\t// in\n    tag_110:\n      0x02\n      0x20\n      dup2\n      swap1\n      mstore\n      0x00\n      swap2\n      dup3\n      mstore\n      0x40\n      swap1\n      swap2\n      keccak256\n      dup1\n      sload\n      0x01\n      dup3\n      add\n      sload\n      swap3\n      dup3\n      add\n      sload\n      0x03\n      dup4\n      add\n      sload\n      0x04\n      swap1\n      swap4\n      add\n      sload\n      swap2\n      swap4\n      swap3\n      swap1\n      swap2\n      dup6\n      jump\n    tag_109:\n      0x40\n      dup1\n      mload\n        /* \"#utility.yul\":12430:12455   */\n      swap6\n      dup7\n      mstore\n        /* \"#utility.yul\":12486:12488   */\n      0x20\n        /* \"#utility.yul\":12471:12489   */\n      dup7\n      add\n        /* \"#utility.yul\":12464:12498   */\n      swap5\n      swap1\n      swap5\n      mstore\n        /* \"#utility.yul\":12514:12532   */\n      swap3\n      dup5\n      add\n        /* \"#utility.yul\":12507:12541   */\n      swap2\n      swap1\n      swap2\n      mstore\n        /* \"#utility.yul\":12572:12574   */\n      0x60\n        /* \"#utility.yul\":12557:12575   */\n      dup4\n      add\n        /* \"#utility.yul\":12550:12584   */\n      mstore\n        /* \"#utility.yul\":12615:12618   */\n      0x80\n        /* \"#utility.yul\":12600:12619   */\n      dup3\n      add\n        /* \"#utility.yul\":12593:12628   */\n      mstore\n        /* \"#utility.yul\":12417:12420   */\n      0xa0\n        /* \"#utility.yul\":12402:12421   */\n      add\n        /* \"Ethereum/Presale.sol\":1598:1644  mapping(address => BuyerInfo) public buyerInfo */\n      tag_31\n        /* \"#utility.yul\":12384:12634   */\n      jump\n        /* \"Ethereum/Presale.sol\":9828:11401  function userClaimOrRefundWhenSaleSuccess(bool isClaim) external {\r... */\n    tag_22:\n      callvalue\n      dup1\n      iszero\n      tag_114\n      jumpi\n      0x00\n      dup1\n      revert\n    tag_114:\n      pop\n      tag_58\n      tag_116\n      calldatasize\n      0x04\n      tag_117\n      jump\t// in\n    tag_116:\n      tag_118\n      jump\t// in\n        /* \"Utils/Ownable.sol\":1972:2173  function transferOwnership(address newOwner) public virtual onlyOwner {\r... */\n    tag_23:\n      callvalue\n      dup1\n      iszero\n      tag_119\n      jumpi\n      0x00\n      dup1\n      revert\n    tag_119:\n      pop\n      tag_58\n      tag_121\n      calldatasize\n      0x04\n      tag_54\n      jump\t// in\n    tag_121:\n      tag_122\n      jump\t// in\n        /* \"Ethereum/Presale.sol\":11409:11520  function getBalance(address _address) external view returns(uint256) {\r... */\n    tag_24:\n      callvalue\n      dup1\n      iszero\n      tag_123\n      jumpi\n      0x00\n      dup1\n      revert\n    tag_123:\n      pop\n      tag_39\n      tag_125\n      calldatasize\n      0x04\n      tag_54\n      jump\t// in\n    tag_125:\n      sub(shl(0xa0, 0x01), 0x01)\n        /* \"Ethereum/Presale.sol\":11496:11512  _address.balance */\n      and\n      balance\n      swap1\n        /* \"Ethereum/Presale.sol\":11409:11520  function getBalance(address _address) external view returns(uint256) {\r... */\n      jump\n        /* \"Ethereum/Presale.sol\":3903:4240  function status() public view returns(uint256) {\r... */\n    tag_45:\n        /* \"Ethereum/Presale.sol\":3982:4001  saleInfor.startSale */\n      sload(0x13)\n        /* \"Ethereum/Presale.sol\":3941:3948  uint256 */\n      0x00\n      swap1\n        /* \"Ethereum/Presale.sol\":3964:3979  block.timestamp */\n      timestamp\n        /* \"Ethereum/Presale.sol\":3964:4001  block.timestamp < saleInfor.startSale */\n      lt\n        /* \"Ethereum/Presale.sol\":3961:4233  if(block.timestamp < saleInfor.startSale) {\r... */\n      iszero\n      tag_130\n      jumpi\n      pop\n        /* \"Ethereum/Presale.sol\":4025:4026  0 */\n      0x00\n      swap1\n        /* \"Ethereum/Presale.sol\":3903:4240  function status() public view returns(uint256) {\r... */\n      jump\t// out\n        /* \"Ethereum/Presale.sol\":3961:4233  if(block.timestamp < saleInfor.startSale) {\r... */\n    tag_130:\n        /* \"Ethereum/Presale.sol\":4092:4109  saleInfor.endSale */\n      sload(0x14)\n        /* \"Ethereum/Presale.sol\":4074:4089  block.timestamp */\n      timestamp\n        /* \"Ethereum/Presale.sol\":4074:4109  block.timestamp > saleInfor.endSale */\n      gt\n        /* \"Ethereum/Presale.sol\":4071:4222  if(block.timestamp > saleInfor.endSale) {\r... */\n      iszero\n      tag_132\n      jumpi\n      pop\n        /* \"Ethereum/Presale.sol\":4137:4138  2 */\n      0x02\n      swap1\n        /* \"Ethereum/Presale.sol\":3903:4240  function status() public view returns(uint256) {\r... */\n      jump\t// out\n        /* \"Ethereum/Presale.sol\":4071:4222  if(block.timestamp > saleInfor.endSale) {\r... */\n    tag_132:\n      pop\n        /* \"Ethereum/Presale.sol\":4195:4196  1 */\n      0x01\n      swap1\n        /* \"Ethereum/Presale.sol\":3903:4240  function status() public view returns(uint256) {\r... */\n      jump\t// out\n        /* \"Utils/Ownable.sol\":1714:1817  function renounceOwnership() public virtual onlyOwner {\r... */\n    tag_59:\n        /* \"Utils/Ownable.sol\":1136:1142  _owner */\n      and(sub(shl(0xa0, 0x01), 0x01), sload(0x01))\n        /* \"Utils/Context.sol\":736:746  msg.sender */\n      caller\n        /* \"Utils/Ownable.sol\":1283:1306  owner() == _msgSender() */\n      eq\n        /* \"Utils/Ownable.sol\":1275:1343  require(owner() == _msgSender(), \"Ownable: caller is not the owner\") */\n      tag_138\n      jumpi\n      mload(0x40)\n      shl(0xe5, 0x461bcd)\n      dup2\n      mstore\n        /* \"#utility.yul\":9767:9769   */\n      0x20\n        /* \"Utils/Ownable.sol\":1275:1343  require(owner() == _msgSender(), \"Ownable: caller is not the owner\") */\n      0x04\n      dup3\n      add\n        /* \"#utility.yul\":9749:9770   */\n      dup2\n      swap1\n      mstore\n        /* \"#utility.yul\":9786:9804   */\n      0x24\n      dup3\n      add\n        /* \"#utility.yul\":9779:9809   */\n      mstore\n        /* \"#utility.yul\":9845:9879   */\n      0x4f776e61626c653a2063616c6c6572206973206e6f7420746865206f776e6572\n        /* \"#utility.yul\":9825:9843   */\n      0x44\n      dup3\n      add\n        /* \"#utility.yul\":9818:9880   */\n      mstore\n        /* \"#utility.yul\":9897:9915   */\n      0x64\n      add\n        /* \"Utils/Ownable.sol\":1275:1343  require(owner() == _msgSender(), \"Ownable: caller is not the owner\") */\n    tag_139:\n      mload(0x40)\n      dup1\n      swap2\n      sub\n      swap1\n      revert\n    tag_138:\n        /* \"Utils/Ownable.sol\":1779:1809  _transferOwnership(address(0)) */\n      tag_142\n        /* \"Utils/Ownable.sol\":1806:1807  0 */\n      0x00\n        /* \"Utils/Ownable.sol\":1779:1797  _transferOwnership */\n      tag_143\n        /* \"Utils/Ownable.sol\":1779:1809  _transferOwnership(address(0)) */\n      jump\t// in\n    tag_142:\n        /* \"Utils/Ownable.sol\":1714:1817  function renounceOwnership() public virtual onlyOwner {\r... */\n      jump\t// out\n        /* \"Ethereum/Presale.sol\":11531:11639  function backToken() external payable {\r... */\n    tag_61:\n        /* \"Ethereum/Presale.sol\":11580:11631  payable(msg.sender).transfer(address(this).balance) */\n      mload(0x40)\n        /* \"Ethereum/Presale.sol\":11588:11598  msg.sender */\n      caller\n      swap1\n        /* \"Ethereum/Presale.sol\":11609:11630  address(this).balance */\n      selfbalance\n        /* \"Ethereum/Presale.sol\":11580:11631  payable(msg.sender).transfer(address(this).balance) */\n      dup1\n      iszero\n      0x08fc\n      mul\n      swap2\n      0x00\n      dup2\n      dup2\n      dup2\n        /* \"Ethereum/Presale.sol\":11609:11630  address(this).balance */\n      dup6\n        /* \"Ethereum/Presale.sol\":11588:11598  msg.sender */\n      dup9\n        /* \"Ethereum/Presale.sol\":11580:11631  payable(msg.sender).transfer(address(this).balance) */\n      dup9\n      call\n      swap4\n      pop\n      pop\n      pop\n      pop\n      iszero\n      dup1\n      iszero\n      tag_146\n      jumpi\n      returndatasize\n      0x00\n      dup1\n      returndatacopy\n      revert(0x00, returndatasize)\n    tag_146:\n      pop\n        /* \"Ethereum/Presale.sol\":11531:11639  function backToken() external payable {\r... */\n      jump\t// out\n        /* \"Ethereum/Presale.sol\":8618:9820  function ownerClaimAndRefundToken() external onlyPresaleOwner nonReentrant{\r... */\n    tag_69:\n        /* \"Ethereum/Presale.sol\":2203:2212  saleInfor */\n      0x0f\n        /* \"Ethereum/Presale.sol\":2203:2225  saleInfor.presaleOwner */\n      sload\n      sub(shl(0xa0, 0x01), 0x01)\n      and\n        /* \"Utils/Context.sol\":736:746  msg.sender */\n      caller\n      sub(shl(0xa0, 0x01), 0x01)\n        /* \"Ethereum/Presale.sol\":2187:2225  _msgSender() == saleInfor.presaleOwner */\n      and\n      eq\n        /* \"Ethereum/Presale.sol\":2179:2248  require(_msgSender() == saleInfor.presaleOwner, \"Only presale owner\") */\n      tag_150\n      jumpi\n      mload(0x40)\n      shl(0xe5, 0x461bcd)\n      dup2\n      mstore\n        /* \"#utility.yul\":9420:9422   */\n      0x20\n        /* \"Ethereum/Presale.sol\":2179:2248  require(_msgSender() == saleInfor.presaleOwner, \"Only presale owner\") */\n      0x04\n      dup3\n      add\n        /* \"#utility.yul\":9402:9423   */\n      mstore\n        /* \"#utility.yul\":9459:9461   */\n      0x12\n        /* \"#utility.yul\":9439:9457   */\n      0x24\n      dup3\n      add\n        /* \"#utility.yul\":9432:9462   */\n      mstore\n      shl(0x71, 0x27b7363c90383932b9b0b6329037bbb732b9)\n        /* \"#utility.yul\":9478:9496   */\n      0x44\n      dup3\n      add\n        /* \"#utility.yul\":9471:9519   */\n      mstore\n        /* \"#utility.yul\":9536:9554   */\n      0x64\n      add\n        /* \"Ethereum/Presale.sol\":2179:2248  require(_msgSender() == saleInfor.presaleOwner, \"Only presale owner\") */\n      tag_139\n        /* \"#utility.yul\":9392:9560   */\n      jump\n        /* \"Ethereum/Presale.sol\":2179:2248  require(_msgSender() == saleInfor.presaleOwner, \"Only presale owner\") */\n    tag_150:\n        /* \"Utils/ReentrancyGuard.sol\":1778:1779  2 */\n      0x02\n        /* \"Utils/ReentrancyGuard.sol\":2376:2383  _status */\n      sload(0x00)\n        /* \"Utils/ReentrancyGuard.sol\":2376:2395  _status != _ENTERED */\n      eq\n      iszero\n        /* \"Utils/ReentrancyGuard.sol\":2368:2431  require(_status != _ENTERED, \"ReentrancyGuard: reentrant call\") */\n      tag_154\n      jumpi\n      mload(0x40)\n      shl(0xe5, 0x461bcd)\n      dup2\n      mstore\n      0x04\n      add\n      tag_139\n      swap1\n      tag_156\n      jump\t// in\n    tag_154:\n        /* \"Utils/ReentrancyGuard.sol\":1778:1779  2 */\n      0x02\n        /* \"Utils/ReentrancyGuard.sol\":2509:2516  _status */\n      0x00\n        /* \"Utils/ReentrancyGuard.sol\":2509:2527  _status = _ENTERED */\n      swap1\n      dup2\n      sstore\n        /* \"Ethereum/Presale.sol\":8801:8820  saleInfor.saleToken */\n      sload(0x10)\n        /* \"Ethereum/Presale.sol\":8795:8846  ERC20(saleInfor.saleToken).balanceOf(address(this)) */\n      mload(0x40)\n      shl(0xe0, 0x70a08231)\n      dup2\n      mstore\n        /* \"Ethereum/Presale.sol\":8840:8844  this */\n      address\n        /* \"Ethereum/Presale.sol\":8795:8846  ERC20(saleInfor.saleToken).balanceOf(address(this)) */\n      0x04\n      dup3\n      add\n        /* \"#utility.yul\":3032:3083   */\n      mstore\n      sub(shl(0xa0, 0x01), 0x01)\n        /* \"Ethereum/Presale.sol\":8801:8820  saleInfor.saleToken */\n      swap1\n      swap2\n      and\n      swap1\n        /* \"Ethereum/Presale.sol\":8795:8831  ERC20(saleInfor.saleToken).balanceOf */\n      0x70a08231\n      swap1\n        /* \"#utility.yul\":3005:3023   */\n      0x24\n      add\n        /* \"Ethereum/Presale.sol\":8795:8846  ERC20(saleInfor.saleToken).balanceOf(address(this)) */\n      0x20\n      mload(0x40)\n      dup1\n      dup4\n      sub\n      dup2\n      dup7\n      dup1\n      extcodesize\n      iszero\n      dup1\n      iszero\n      tag_159\n      jumpi\n      0x00\n      dup1\n      revert\n    tag_159:\n      pop\n      gas\n      staticcall\n      iszero\n      dup1\n      iszero\n      tag_161\n      jumpi\n      returndatasize\n      0x00\n      dup1\n      returndatacopy\n      revert(0x00, returndatasize)\n    tag_161:\n      pop\n      pop\n      pop\n      pop\n      mload(0x40)\n      returndatasize\n      not(0x1f)\n      0x1f\n      dup3\n      add\n      and\n      dup3\n      add\n      dup1\n      0x40\n      mstore\n      pop\n      dup2\n      add\n      swap1\n      tag_162\n      swap2\n      swap1\n      tag_163\n      jump\t// in\n    tag_162:\n        /* \"Ethereum/Presale.sol\":8983:9019  presaleStatus.totalTokenBackForAdmin */\n      sload(0x08)\n        /* \"Ethereum/Presale.sol\":8983:8996  presaleStatus */\n      0x04\n        /* \"Ethereum/Presale.sol\":8897:8929  presaleStatus.totalBaseCollected */\n      sload\n        /* \"Ethereum/Presale.sol\":8763:8846  uint256 amountOwnerClaimToken = ERC20(saleInfor.saleToken).balanceOf(address(this)) */\n      swap2\n      swap3\n      pop\n        /* \"Ethereum/Presale.sol\":8858:8893  uint256 amountOwnerRefundNativeCoin */\n      0x00\n      swap2\n        /* \"Ethereum/Presale.sol\":8897:9069  presaleStatus.totalBaseCollected\r... */\n      tag_164\n      swap2\n        /* \"Ethereum/Presale.sol\":8897:8982  presaleStatus.totalBaseCollected\r... */\n      tag_165\n        /* \"Ethereum/Presale.sol\":8897:9069  presaleStatus.totalBaseCollected\r... */\n      jump\t// in\n    tag_164:\n        /* \"Ethereum/Presale.sol\":9084:9097  presaleStatus */\n      0x04\n        /* \"Ethereum/Presale.sol\":9084:9116  presaleStatus.totalBaseCollected */\n      sload\n        /* \"Ethereum/Presale.sol\":8858:9070  uint256 amountOwnerRefundNativeCoin = (presaleStatus.totalBaseCollected\r... */\n      swap1\n      swap2\n      pop\n        /* \"Ethereum/Presale.sol\":9084:9121  presaleStatus.totalBaseCollected != 0 */\n      iszero\n        /* \"Ethereum/Presale.sol\":9081:9364  if(presaleStatus.totalBaseCollected != 0){\r... */\n      tag_166\n      jumpi\n        /* \"Ethereum/Presale.sol\":9296:9332  presaleStatus.totalTokenBackForAdmin */\n      sload(0x08)\n        /* \"Ethereum/Presale.sol\":9225:9253  presaleStatus.totalTokenSold */\n      sload(0x05)\n        /* \"Ethereum/Presale.sol\":9161:9334  amountOwnerClaimToken\r... */\n      tag_167\n      swap2\n        /* \"Ethereum/Presale.sol\":9225:9333  presaleStatus.totalTokenSold\r... */\n      tag_168\n      swap2\n        /* \"Ethereum/Presale.sol\":9225:9253  presaleStatus.totalTokenSold */\n      swap1\n        /* \"Ethereum/Presale.sol\":9225:9295  presaleStatus.totalTokenSold\r... */\n      tag_165\n        /* \"Ethereum/Presale.sol\":9225:9333  presaleStatus.totalTokenSold\r... */\n      jump\t// in\n    tag_168:\n        /* \"Ethereum/Presale.sol\":9161:9182  amountOwnerClaimToken */\n      dup4\n      swap1\n        /* \"Ethereum/Presale.sol\":9161:9224  amountOwnerClaimToken\r... */\n      tag_165\n        /* \"Ethereum/Presale.sol\":9161:9334  amountOwnerClaimToken\r... */\n      jump\t// in\n    tag_167:\n        /* \"Ethereum/Presale.sol\":9137:9334  amountOwnerClaimToken = amountOwnerClaimToken\r... */\n      swap2\n      pop\n        /* \"Ethereum/Presale.sol\":9081:9364  if(presaleStatus.totalBaseCollected != 0){\r... */\n    tag_166:\n        /* \"Ethereum/Presale.sol\":9383:9418  presaleStatus.isOwnerClaimSaleToken */\n      and(0xff, sload(0x0b))\n        /* \"Ethereum/Presale.sol\":9382:9418  !presaleStatus.isOwnerClaimSaleToken */\n      iszero\n        /* \"Ethereum/Presale.sol\":9374:9452  require(!presaleStatus.isOwnerClaimSaleToken, \"Nothing for owner claim token\") */\n      tag_169\n      jumpi\n      mload(0x40)\n      shl(0xe5, 0x461bcd)\n      dup2\n      mstore\n        /* \"#utility.yul\":10876:10878   */\n      0x20\n        /* \"Ethereum/Presale.sol\":9374:9452  require(!presaleStatus.isOwnerClaimSaleToken, \"Nothing for owner claim token\") */\n      0x04\n      dup3\n      add\n        /* \"#utility.yul\":10858:10879   */\n      mstore\n        /* \"#utility.yul\":10915:10917   */\n      0x1d\n        /* \"#utility.yul\":10895:10913   */\n      0x24\n      dup3\n      add\n        /* \"#utility.yul\":10888:10918   */\n      mstore\n        /* \"#utility.yul\":10954:10985   */\n      0x4e6f7468696e6720666f72206f776e657220636c61696d20746f6b656e000000\n        /* \"#utility.yul\":10934:10952   */\n      0x44\n      dup3\n      add\n        /* \"#utility.yul\":10927:10986   */\n      mstore\n        /* \"#utility.yul\":11003:11021   */\n      0x64\n      add\n        /* \"Ethereum/Presale.sol\":9374:9452  require(!presaleStatus.isOwnerClaimSaleToken, \"Nothing for owner claim token\") */\n      tag_139\n        /* \"#utility.yul\":10848:11027   */\n      jump\n        /* \"Ethereum/Presale.sol\":9374:9452  require(!presaleStatus.isOwnerClaimSaleToken, \"Nothing for owner claim token\") */\n    tag_169:\n        /* \"Ethereum/Presale.sol\":9472:9508  presaleStatus.isOwnerRefundBaseToken */\n      sload(0x0b)\n      0x0100\n      swap1\n      div\n      0xff\n      and\n        /* \"Ethereum/Presale.sol\":9471:9508  !presaleStatus.isOwnerRefundBaseToken */\n      iszero\n        /* \"Ethereum/Presale.sol\":9463:9543  require(!presaleStatus.isOwnerRefundBaseToken, \"Nothing for owner refund token\") */\n      tag_172\n      jumpi\n      mload(0x40)\n      shl(0xe5, 0x461bcd)\n      dup2\n      mstore\n        /* \"#utility.yul\":7219:7221   */\n      0x20\n        /* \"Ethereum/Presale.sol\":9463:9543  require(!presaleStatus.isOwnerRefundBaseToken, \"Nothing for owner refund token\") */\n      0x04\n      dup3\n      add\n        /* \"#utility.yul\":7201:7222   */\n      mstore\n        /* \"#utility.yul\":7258:7260   */\n      0x1e\n        /* \"#utility.yul\":7238:7256   */\n      0x24\n      dup3\n      add\n        /* \"#utility.yul\":7231:7261   */\n      mstore\n        /* \"#utility.yul\":7297:7329   */\n      0x4e6f7468696e6720666f72206f776e657220726566756e6420746f6b656e0000\n        /* \"#utility.yul\":7277:7295   */\n      0x44\n      dup3\n      add\n        /* \"#utility.yul\":7270:7330   */\n      mstore\n        /* \"#utility.yul\":7347:7365   */\n      0x64\n      add\n        /* \"Ethereum/Presale.sol\":9463:9543  require(!presaleStatus.isOwnerRefundBaseToken, \"Nothing for owner refund token\") */\n      tag_139\n        /* \"#utility.yul\":7191:7371   */\n      jump\n        /* \"Ethereum/Presale.sol\":9463:9543  require(!presaleStatus.isOwnerRefundBaseToken, \"Nothing for owner refund token\") */\n    tag_172:\n        /* \"Ethereum/Presale.sol\":9554:9589  presaleStatus.isOwnerClaimSaleToken */\n      0x0b\n        /* \"Ethereum/Presale.sol\":9554:9596  presaleStatus.isOwnerClaimSaleToken = true */\n      dup1\n      sload\n      not(0xff)\n      and\n        /* \"Ethereum/Presale.sol\":9592:9596  true */\n      0x01\n        /* \"Ethereum/Presale.sol\":9554:9596  presaleStatus.isOwnerClaimSaleToken = true */\n      or\n      swap1\n      sstore\n      0x00\n        /* \"Ethereum/Presale.sol\":9607:9635  saleInfor.amountTokenForSale */\n      0x1a\n        /* \"Ethereum/Presale.sol\":9607:9639  saleInfor.amountTokenForSale = 0 */\n      sstore\n        /* \"Ethereum/Presale.sol\":9656:9675  saleInfor.saleToken */\n      sload(0x10)\n        /* \"Ethereum/Presale.sol\":9607:9616  saleInfor */\n      0x0f\n        /* \"Ethereum/Presale.sol\":9686:9708  saleInfor.presaleOwner */\n      sload\n        /* \"Ethereum/Presale.sol\":9650:9732  ERC20(saleInfor.saleToken).transfer(saleInfor.presaleOwner, amountOwnerClaimToken) */\n      mload(0x40)\n      shl(0xe0, 0xa9059cbb)\n      dup2\n      mstore\n      sub(shl(0xa0, 0x01), 0x01)\n        /* \"Ethereum/Presale.sol\":9686:9708  saleInfor.presaleOwner */\n      swap2\n      dup3\n      and\n        /* \"Ethereum/Presale.sol\":9554:9567  presaleStatus */\n      0x04\n        /* \"Ethereum/Presale.sol\":9650:9732  ERC20(saleInfor.saleToken).transfer(saleInfor.presaleOwner, amountOwnerClaimToken) */\n      dup3\n      add\n        /* \"#utility.yul\":4369:4420   */\n      mstore\n        /* \"#utility.yul\":4436:4454   */\n      0x24\n      dup2\n      add\n        /* \"#utility.yul\":4429:4463   */\n      dup6\n      swap1\n      mstore\n        /* \"Ethereum/Presale.sol\":9656:9675  saleInfor.saleToken */\n      swap2\n      and\n      swap1\n        /* \"Ethereum/Presale.sol\":9650:9685  ERC20(saleInfor.saleToken).transfer */\n      0xa9059cbb\n      swap1\n        /* \"#utility.yul\":4342:4360   */\n      0x44\n      add\n        /* \"Ethereum/Presale.sol\":9650:9732  ERC20(saleInfor.saleToken).transfer(saleInfor.presaleOwner, amountOwnerClaimToken) */\n      0x20\n      mload(0x40)\n      dup1\n      dup4\n      sub\n      dup2\n      0x00\n      dup8\n      dup1\n      extcodesize\n      iszero\n      dup1\n      iszero\n      tag_177\n      jumpi\n      0x00\n      dup1\n      revert\n    tag_177:\n      pop\n      gas\n      call\n      iszero\n      dup1\n      iszero\n      tag_179\n      jumpi\n      returndatasize\n      0x00\n      dup1\n      returndatacopy\n      revert(0x00, returndatasize)\n    tag_179:\n      pop\n      pop\n      pop\n      pop\n      mload(0x40)\n      returndatasize\n      not(0x1f)\n      0x1f\n      dup3\n      add\n      and\n      dup3\n      add\n      dup1\n      0x40\n      mstore\n      pop\n      dup2\n      add\n      swap1\n      tag_180\n      swap2\n      swap1\n      tag_181\n      jump\t// in\n    tag_180:\n      pop\n        /* \"Ethereum/Presale.sol\":9751:9760  saleInfor */\n      0x0f\n        /* \"Ethereum/Presale.sol\":9751:9773  saleInfor.presaleOwner */\n      sload\n        /* \"Ethereum/Presale.sol\":9743:9812  payable(saleInfor.presaleOwner).transfer(amountOwnerRefundNativeCoin) */\n      mload(0x40)\n      sub(shl(0xa0, 0x01), 0x01)\n        /* \"Ethereum/Presale.sol\":9751:9773  saleInfor.presaleOwner */\n      swap1\n      swap2\n      and\n      swap1\n        /* \"Ethereum/Presale.sol\":9743:9812  payable(saleInfor.presaleOwner).transfer(amountOwnerRefundNativeCoin) */\n      dup3\n      iszero\n      0x08fc\n      mul\n      swap1\n        /* \"Ethereum/Presale.sol\":9784:9811  amountOwnerRefundNativeCoin */\n      dup4\n      swap1\n        /* \"Ethereum/Presale.sol\":9751:9773  saleInfor.presaleOwner */\n      0x00\n        /* \"Ethereum/Presale.sol\":9743:9812  payable(saleInfor.presaleOwner).transfer(amountOwnerRefundNativeCoin) */\n      dup2\n        /* \"Ethereum/Presale.sol\":9751:9773  saleInfor.presaleOwner */\n      dup2\n        /* \"Ethereum/Presale.sol\":9743:9812  payable(saleInfor.presaleOwner).transfer(amountOwnerRefundNativeCoin) */\n      dup2\n        /* \"Ethereum/Presale.sol\":9784:9811  amountOwnerRefundNativeCoin */\n      dup6\n        /* \"Ethereum/Presale.sol\":9751:9773  saleInfor.presaleOwner */\n      dup9\n        /* \"Ethereum/Presale.sol\":9743:9812  payable(saleInfor.presaleOwner).transfer(amountOwnerRefundNativeCoin) */\n      dup9\n      call\n      swap4\n      pop\n      pop\n      pop\n      pop\n      iszero\n      dup1\n      iszero\n      tag_183\n      jumpi\n      returndatasize\n      0x00\n      dup1\n      returndatacopy\n      revert(0x00, returndatasize)\n    tag_183:\n      pop\n      pop\n        /* \"Utils/ReentrancyGuard.sol\":1734:1735  1 */\n      0x01\n        /* \"Utils/ReentrancyGuard.sol\":2688:2695  _status */\n      0x00\n        /* \"Utils/ReentrancyGuard.sol\":2688:2710  _status = _NOT_ENTERED */\n      sstore\n      pop\n        /* \"Ethereum/Presale.sol\":8618:9820  function ownerClaimAndRefundToken() external onlyPresaleOwner nonReentrant{\r... */\n      jump\t// out\n        /* \"Ethereum/Presale.sol\":7599:8610  function userRefundEmergency() external nonReentrant {\r... */\n    tag_72:\n        /* \"Utils/ReentrancyGuard.sol\":1778:1779  2 */\n      0x02\n        /* \"Utils/ReentrancyGuard.sol\":2376:2383  _status */\n      sload(0x00)\n        /* \"Utils/ReentrancyGuard.sol\":2376:2395  _status != _ENTERED */\n      eq\n      iszero\n        /* \"Utils/ReentrancyGuard.sol\":2368:2431  require(_status != _ENTERED, \"ReentrancyGuard: reentrant call\") */\n      tag_185\n      jumpi\n      mload(0x40)\n      shl(0xe5, 0x461bcd)\n      dup2\n      mstore\n      0x04\n      add\n      tag_139\n      swap1\n      tag_156\n      jump\t// in\n    tag_185:\n        /* \"Utils/ReentrancyGuard.sol\":1778:1779  2 */\n      0x02\n        /* \"Utils/ReentrancyGuard.sol\":2509:2516  _status */\n      0x00\n        /* \"Utils/ReentrancyGuard.sol\":2509:2527  _status = _ENTERED */\n      swap1\n      dup2\n      sstore\n        /* \"Ethereum/Presale.sol\":7758:7789  presaleStatus.totalBaseWithDraw */\n      sload(0x07)\n        /* \"Ethereum/Presale.sol\":7758:7771  presaleStatus */\n      0x04\n        /* \"Ethereum/Presale.sol\":7723:7755  presaleStatus.totalBaseCollected */\n      sload\n        /* \"Ethereum/Presale.sol\":7723:7789  presaleStatus.totalBaseCollected - presaleStatus.totalBaseWithDraw */\n      tag_188\n      swap2\n        /* \"Ethereum/Presale.sol\":7758:7789  presaleStatus.totalBaseWithDraw */\n      swap1\n        /* \"Ethereum/Presale.sol\":7723:7789  presaleStatus.totalBaseCollected - presaleStatus.totalBaseWithDraw */\n      tag_189\n      jump\t// in\n    tag_188:\n        /* \"Ethereum/Presale.sol\":7723:7793  presaleStatus.totalBaseCollected - presaleStatus.totalBaseWithDraw > 0 */\n      gt\n        /* \"Ethereum/Presale.sol\":7715:7852  require(presaleStatus.totalBaseCollected - presaleStatus.totalBaseWithDraw > 0, \r... */\n      tag_190\n      jumpi\n      mload(0x40)\n      shl(0xe5, 0x461bcd)\n      dup2\n      mstore\n      0x04\n      add\n      tag_139\n      swap1\n      tag_192\n      jump\t// in\n    tag_190:\n        /* \"Ethereum/Presale.sol\":7900:7910  msg.sender */\n      caller\n        /* \"Ethereum/Presale.sol\":7864:7887  BuyerInfo storage buyer */\n      0x00\n        /* \"Ethereum/Presale.sol\":7890:7911  buyerInfo[msg.sender] */\n      swap1\n      dup2\n      mstore\n        /* \"Ethereum/Presale.sol\":7890:7899  buyerInfo */\n      0x02\n        /* \"Ethereum/Presale.sol\":7890:7911  buyerInfo[msg.sender] */\n      0x20\n      mstore\n      0x40\n      swap1\n      keccak256\n        /* \"Ethereum/Presale.sol\":7930:7947  buyer.baseDeposit */\n      dup1\n      sload\n        /* \"Ethereum/Presale.sol\":7922:7979  require(buyer.baseDeposit > 0, \"You have not bought yet\") */\n      tag_193\n      jumpi\n      mload(0x40)\n      shl(0xe5, 0x461bcd)\n      dup2\n      mstore\n        /* \"#utility.yul\":5749:5751   */\n      0x20\n        /* \"Ethereum/Presale.sol\":7922:7979  require(buyer.baseDeposit > 0, \"You have not bought yet\") */\n      0x04\n      dup3\n      add\n        /* \"#utility.yul\":5731:5752   */\n      mstore\n        /* \"#utility.yul\":5788:5790   */\n      0x17\n        /* \"#utility.yul\":5768:5786   */\n      0x24\n      dup3\n      add\n        /* \"#utility.yul\":5761:5791   */\n      mstore\n      shl(0x4a, 0x165bdd481a185d99481b9bdd08189bdd59da1d081e595d)\n        /* \"#utility.yul\":5807:5825   */\n      0x44\n      dup3\n      add\n        /* \"#utility.yul\":5800:5853   */\n      mstore\n        /* \"#utility.yul\":5870:5888   */\n      0x64\n      add\n        /* \"Ethereum/Presale.sol\":7922:7979  require(buyer.baseDeposit > 0, \"You have not bought yet\") */\n      tag_139\n        /* \"#utility.yul\":5721:5894   */\n      jump\n        /* \"Ethereum/Presale.sol\":7922:7979  require(buyer.baseDeposit > 0, \"You have not bought yet\") */\n    tag_193:\n        /* \"Ethereum/Presale.sol\":8018:8041  buyer.totalBaseWithDraw */\n      0x04\n      dup2\n      add\n      sload\n        /* \"Ethereum/Presale.sol\":7998:8015  buyer.baseDeposit */\n      dup2\n      sload\n        /* \"Ethereum/Presale.sol\":7998:8041  buyer.baseDeposit > buyer.totalBaseWithDraw */\n      gt\n        /* \"Ethereum/Presale.sol\":7990:8060  require(buyer.baseDeposit > buyer.totalBaseWithDraw, \"You refund all\") */\n      tag_196\n      jumpi\n      mload(0x40)\n      shl(0xe5, 0x461bcd)\n      dup2\n      mstore\n        /* \"#utility.yul\":10128:10130   */\n      0x20\n        /* \"Ethereum/Presale.sol\":7990:8060  require(buyer.baseDeposit > buyer.totalBaseWithDraw, \"You refund all\") */\n      0x04\n      dup3\n      add\n        /* \"#utility.yul\":10110:10131   */\n      mstore\n        /* \"#utility.yul\":10167:10169   */\n      0x0e\n        /* \"#utility.yul\":10147:10165   */\n      0x24\n      dup3\n      add\n        /* \"#utility.yul\":10140:10170   */\n      mstore\n      shl(0x92, 0x165bdd481c99599d5b9908185b1b)\n        /* \"#utility.yul\":10186:10204   */\n      0x44\n      dup3\n      add\n        /* \"#utility.yul\":10179:10223   */\n      mstore\n        /* \"#utility.yul\":10240:10258   */\n      0x64\n      add\n        /* \"Ethereum/Presale.sol\":7990:8060  require(buyer.baseDeposit > buyer.totalBaseWithDraw, \"You refund all\") */\n      tag_139\n        /* \"#utility.yul\":10100:10264   */\n      jump\n        /* \"Ethereum/Presale.sol\":7990:8060  require(buyer.baseDeposit > buyer.totalBaseWithDraw, \"You refund all\") */\n    tag_196:\n        /* \"Ethereum/Presale.sol\":8173:8190  buyer.baseDeposit */\n      dup1\n      sload\n        /* \"Ethereum/Presale.sol\":8114:8133  saleInfor.refundFee */\n      sload(0x17)\n        /* \"Ethereum/Presale.sol\":8071:8091  uint256 amountRefund */\n      0x00\n      swap2\n        /* \"Ethereum/Presale.sol\":8094:8244  ((uint256(1000).sub(saleInfor.refundFee))\r... */\n      tag_199\n      swap2\n        /* \"Ethereum/Presale.sol\":8238:8242  1000 */\n      0x03e8\n      swap2\n        /* \"Ethereum/Presale.sol\":8095:8191  (uint256(1000).sub(saleInfor.refundFee))\r... */\n      tag_200\n      swap2\n        /* \"Ethereum/Presale.sol\":8096:8134  uint256(1000).sub(saleInfor.refundFee) */\n      tag_201\n      swap1\n        /* \"Ethereum/Presale.sol\":8238:8242  1000 */\n      dup5\n      swap1\n        /* \"Ethereum/Presale.sol\":8096:8113  uint256(1000).sub */\n      tag_165\n        /* \"Ethereum/Presale.sol\":8096:8134  uint256(1000).sub(saleInfor.refundFee) */\n      jump\t// in\n    tag_201:\n        /* \"Ethereum/Presale.sol\":8095:8172  (uint256(1000).sub(saleInfor.refundFee))\r... */\n      swap1\n      tag_202\n        /* \"Ethereum/Presale.sol\":8095:8191  (uint256(1000).sub(saleInfor.refundFee))\r... */\n      jump\t// in\n    tag_200:\n        /* \"Ethereum/Presale.sol\":8094:8229  ((uint256(1000).sub(saleInfor.refundFee))\r... */\n      swap1\n      tag_203\n        /* \"Ethereum/Presale.sol\":8094:8244  ((uint256(1000).sub(saleInfor.refundFee))\r... */\n      jump\t// in\n    tag_199:\n        /* \"Ethereum/Presale.sol\":8267:8284  buyer.baseDeposit */\n      dup3\n      sload\n        /* \"Ethereum/Presale.sol\":8071:8244  uint256 amountRefund = ((uint256(1000).sub(saleInfor.refundFee))\r... */\n      swap1\n      swap2\n      pop\n        /* \"Ethereum/Presale.sol\":8267:8299  buyer.baseDeposit - amountRefund */\n      tag_204\n      swap1\n        /* \"Ethereum/Presale.sol\":8071:8244  uint256 amountRefund = ((uint256(1000).sub(saleInfor.refundFee))\r... */\n      dup3\n      swap1\n        /* \"Ethereum/Presale.sol\":8267:8299  buyer.baseDeposit - amountRefund */\n      tag_189\n      jump\t// in\n    tag_204:\n        /* \"Ethereum/Presale.sol\":8255:8263  totalFee */\n      0x1e\n      0x00\n        /* \"Ethereum/Presale.sol\":8255:8299  totalFee += buyer.baseDeposit - amountRefund */\n      dup3\n      dup3\n      sload\n      tag_205\n      swap2\n      swap1\n      tag_206\n      jump\t// in\n    tag_205:\n      swap1\n      swap2\n      sstore\n      pop\n      pop\n        /* \"Ethereum/Presale.sol\":8310:8341  presaleStatus.totalBaseWithDraw */\n      0x07\n        /* \"Ethereum/Presale.sol\":8310:8357  presaleStatus.totalBaseWithDraw += amountRefund */\n      dup1\n      sload\n        /* \"Ethereum/Presale.sol\":8345:8357  amountRefund */\n      dup3\n      swap2\n        /* \"Ethereum/Presale.sol\":8310:8341  presaleStatus.totalBaseWithDraw */\n      swap1\n      0x00\n      swap1\n        /* \"Ethereum/Presale.sol\":8310:8357  presaleStatus.totalBaseWithDraw += amountRefund */\n      tag_207\n      swap1\n        /* \"Ethereum/Presale.sol\":8345:8357  amountRefund */\n      dup5\n      swap1\n        /* \"Ethereum/Presale.sol\":8310:8357  presaleStatus.totalBaseWithDraw += amountRefund */\n      tag_206\n      jump\t// in\n    tag_207:\n      swap3\n      pop\n      pop\n      dup2\n      swap1\n      sstore\n      pop\n        /* \"Ethereum/Presale.sol\":8395:8407  amountRefund */\n      dup1\n        /* \"Ethereum/Presale.sol\":8368:8373  buyer */\n      dup3\n        /* \"Ethereum/Presale.sol\":8368:8391  buyer.totalBaseWithDraw */\n      0x04\n      add\n      0x00\n        /* \"Ethereum/Presale.sol\":8368:8407  buyer.totalBaseWithDraw += amountRefund */\n      dup3\n      dup3\n      sload\n      tag_208\n      swap2\n      swap1\n      tag_206\n      jump\t// in\n    tag_208:\n      swap1\n      swap2\n      sstore\n      pop\n      pop\n        /* \"Ethereum/Presale.sol\":8439:8454  block.timestamp */\n      timestamp\n        /* \"Ethereum/Presale.sol\":8418:8436  buyer.lastWithDraw */\n      0x02\n      dup4\n      add\n        /* \"Ethereum/Presale.sol\":8418:8454  buyer.lastWithDraw = block.timestamp */\n      sstore\n        /* \"Ethereum/Presale.sol\":8524:8548  buyer.totalTokenWithDraw */\n      0x03\n      dup3\n      add\n      sload\n        /* \"Ethereum/Presale.sol\":8505:8521  buyer.tokenOwner */\n      0x01\n      dup4\n      add\n      sload\n        /* \"Ethereum/Presale.sol\":8505:8548  buyer.tokenOwner - buyer.totalTokenWithDraw */\n      tag_209\n      swap2\n        /* \"Ethereum/Presale.sol\":8524:8548  buyer.totalTokenWithDraw */\n      swap1\n        /* \"Ethereum/Presale.sol\":8505:8548  buyer.tokenOwner - buyer.totalTokenWithDraw */\n      tag_189\n      jump\t// in\n    tag_209:\n        /* \"Ethereum/Presale.sol\":8465:8501  presaleStatus.totalTokenBackForAdmin */\n      0x08\n        /* \"Ethereum/Presale.sol\":8465:8548  presaleStatus.totalTokenBackForAdmin += buyer.tokenOwner - buyer.totalTokenWithDraw */\n      dup1\n      sload\n        /* \"Ethereum/Presale.sol\":8465:8501  presaleStatus.totalTokenBackForAdmin */\n      0x00\n      swap1\n        /* \"Ethereum/Presale.sol\":8465:8548  presaleStatus.totalTokenBackForAdmin += buyer.tokenOwner - buyer.totalTokenWithDraw */\n      tag_210\n      swap1\n      dup5\n      swap1\n      tag_206\n      jump\t// in\n    tag_210:\n      swap1\n      swap2\n      sstore\n      pop\n      pop\n        /* \"Ethereum/Presale.sol\":8560:8602  payable(msg.sender).transfer(amountRefund) */\n      mload(0x40)\n        /* \"Ethereum/Presale.sol\":8568:8578  msg.sender */\n      caller\n      swap1\n        /* \"Ethereum/Presale.sol\":8560:8602  payable(msg.sender).transfer(amountRefund) */\n      dup3\n      iszero\n      0x08fc\n      mul\n      swap1\n        /* \"Ethereum/Presale.sol\":8589:8601  amountRefund */\n      dup4\n      swap1\n        /* \"Ethereum/Presale.sol\":8560:8602  payable(msg.sender).transfer(amountRefund) */\n      0x00\n      dup2\n      dup2\n      dup2\n        /* \"Ethereum/Presale.sol\":8589:8601  amountRefund */\n      dup6\n        /* \"Ethereum/Presale.sol\":8568:8578  msg.sender */\n      dup9\n        /* \"Ethereum/Presale.sol\":8560:8602  payable(msg.sender).transfer(amountRefund) */\n      dup9\n      call\n      swap4\n      pop\n      pop\n      pop\n      pop\n      iszero\n      dup1\n      iszero\n      tag_183\n      jumpi\n      returndatasize\n      0x00\n      dup1\n      returndatacopy\n      revert(0x00, returndatasize)\n        /* \"Ethereum/Presale.sol\":2640:3894  function initialSaleInfor(\r... */\n    tag_77:\n        /* \"Ethereum/Presale.sol\":2850:2859  saleInfor */\n      0x0f\n        /* \"Ethereum/Presale.sol\":2850:2888  saleInfor.presaleOwner = _presaleOwner */\n      dup1\n      sload\n      sub(shl(0xa0, 0x01), 0x01)\n      dup1\n      dup9\n      and\n      not(sub(shl(0xa0, 0x01), 0x01))\n      swap3\n      dup4\n      and\n      or\n      swap1\n      swap3\n      sstore\n        /* \"Ethereum/Presale.sol\":2899:2918  saleInfor.saleToken */\n      0x10\n        /* \"Ethereum/Presale.sol\":2899:2931  saleInfor.saleToken = _saleToken */\n      dup1\n      sload\n      dup8\n      dup5\n      and\n      swap1\n      dup4\n      and\n      dup2\n      or\n      swap1\n      swap2\n      sstore\n        /* \"Ethereum/Presale.sol\":2942:2961  saleInfor.baseToken */\n      0x11\n        /* \"Ethereum/Presale.sol\":2942:2974  saleInfor.baseToken = _baseTOken */\n      dup1\n      sload\n      swap4\n      dup8\n      and\n      swap4\n      swap1\n      swap3\n      and\n      swap3\n      swap1\n      swap3\n      or\n      swap1\n      sstore\n        /* \"Ethereum/Presale.sol\":3032:3069  ERC20(saleInfor.saleToken).decimals() */\n      0x40\n      dup1\n      mload\n      shl(0xe0, 0x313ce567)\n      dup2\n      mstore\n      swap1\n      mload\n        /* \"Ethereum/Presale.sol\":3032:3067  ERC20(saleInfor.saleToken).decimals */\n      0x313ce567\n      swap2\n        /* \"Ethereum/Presale.sol\":3032:3069  ERC20(saleInfor.saleToken).decimals() */\n      0x04\n      dup1\n      dup3\n      add\n      swap3\n      0x20\n      swap3\n      swap1\n      swap2\n      swap1\n      dup3\n      swap1\n      sub\n      add\n      dup2\n        /* \"Ethereum/Presale.sol\":2899:2931  saleInfor.saleToken = _saleToken */\n      dup7\n        /* \"Ethereum/Presale.sol\":3032:3069  ERC20(saleInfor.saleToken).decimals() */\n      dup1\n      extcodesize\n      iszero\n      dup1\n      iszero\n      tag_214\n      jumpi\n      0x00\n      dup1\n      revert\n    tag_214:\n      pop\n      gas\n      staticcall\n      iszero\n      dup1\n      iszero\n      tag_216\n      jumpi\n      returndatasize\n      0x00\n      dup1\n      returndatacopy\n      revert(0x00, returndatasize)\n    tag_216:\n      pop\n      pop\n      pop\n      pop\n      mload(0x40)\n      returndatasize\n      not(0x1f)\n      0x1f\n      dup3\n      add\n      and\n      dup3\n      add\n      dup1\n      0x40\n      mstore\n      pop\n      dup2\n      add\n      swap1\n      tag_217\n      swap2\n      swap1\n      tag_163\n      jump\t// in\n    tag_217:\n        /* \"Ethereum/Presale.sol\":3019:3070  10** uint256(ERC20(saleInfor.saleToken).decimals()) */\n      tag_218\n      swap1\n        /* \"Ethereum/Presale.sol\":3019:3021  10 */\n      0x0a\n        /* \"Ethereum/Presale.sol\":3019:3070  10** uint256(ERC20(saleInfor.saleToken).decimals()) */\n      tag_219\n      jump\t// in\n    tag_218:\n        /* \"Ethereum/Presale.sol\":3008:3016  datas[0] */\n      dup3\n      mload\n        /* \"Ethereum/Presale.sol\":3008:3070  datas[0] * 10** uint256(ERC20(saleInfor.saleToken).decimals()) */\n      tag_223\n      swap2\n      swap1\n      tag_224\n      jump\t// in\n    tag_223:\n        /* \"Ethereum/Presale.sol\":2985:3005  saleInfor.tokenPrice */\n      0x12\n        /* \"Ethereum/Presale.sol\":2985:3070  saleInfor.tokenPrice = datas[0] * 10** uint256(ERC20(saleInfor.saleToken).decimals()) */\n      sstore\n        /* \"Ethereum/Presale.sol\":3103:3111  datas[1] */\n      0x20\n      dup1\n      dup4\n      add\n      mload\n        /* \"Ethereum/Presale.sol\":3081:3100  saleInfor.startSale */\n      0x13\n        /* \"Ethereum/Presale.sol\":3081:3111  saleInfor.startSale = datas[1] */\n      sstore\n        /* \"Ethereum/Presale.sol\":3142:3150  datas[2] */\n      0x40\n      dup1\n      dup5\n      add\n      mload\n        /* \"Ethereum/Presale.sol\":3122:3139  saleInfor.endSale */\n      0x14\n        /* \"Ethereum/Presale.sol\":3122:3150  saleInfor.endSale = datas[2] */\n      sstore\n        /* \"Ethereum/Presale.sol\":3190:3198  datas[3] */\n      0x60\n      dup5\n      add\n      mload\n        /* \"Ethereum/Presale.sol\":3161:3187  saleInfor.minSpendPerBuyer */\n      0x15\n        /* \"Ethereum/Presale.sol\":3161:3198  saleInfor.minSpendPerBuyer = datas[3] */\n      sstore\n        /* \"Ethereum/Presale.sol\":3269:3288  saleInfor.baseToken */\n      sload(0x11)\n        /* \"Ethereum/Presale.sol\":3263:3300  ERC20(saleInfor.baseToken).decimals() */\n      dup2\n      mload\n      shl(0xe0, 0x313ce567)\n      dup2\n      mstore\n      swap2\n      mload\n      sub(shl(0xa0, 0x01), 0x01)\n        /* \"Ethereum/Presale.sol\":3269:3288  saleInfor.baseToken */\n      swap1\n      swap2\n      and\n      swap3\n        /* \"Ethereum/Presale.sol\":3263:3298  ERC20(saleInfor.baseToken).decimals */\n      0x313ce567\n      swap3\n        /* \"Ethereum/Presale.sol\":3263:3300  ERC20(saleInfor.baseToken).decimals() */\n      0x04\n      dup1\n      dup3\n      add\n      swap4\n      swap2\n      dup3\n      swap1\n      sub\n      add\n      dup2\n        /* \"Ethereum/Presale.sol\":3269:3288  saleInfor.baseToken */\n      dup7\n        /* \"Ethereum/Presale.sol\":3263:3300  ERC20(saleInfor.baseToken).decimals() */\n      dup1\n      extcodesize\n      iszero\n      dup1\n      iszero\n      tag_231\n      jumpi\n      0x00\n      dup1\n      revert\n    tag_231:\n      pop\n      gas\n      staticcall\n      iszero\n      dup1\n      iszero\n      tag_233\n      jumpi\n      returndatasize\n      0x00\n      dup1\n      returndatacopy\n      revert(0x00, returndatasize)\n    tag_233:\n      pop\n      pop\n      pop\n      pop\n      mload(0x40)\n      returndatasize\n      not(0x1f)\n      0x1f\n      dup3\n      add\n      and\n      dup3\n      add\n      dup1\n      0x40\n      mstore\n      pop\n      dup2\n      add\n      swap1\n      tag_234\n      swap2\n      swap1\n      tag_163\n      jump\t// in\n    tag_234:\n        /* \"Ethereum/Presale.sol\":3249:3301  10 ** uint256(ERC20(saleInfor.baseToken).decimals()) */\n      tag_235\n      swap1\n        /* \"Ethereum/Presale.sol\":3249:3251  10 */\n      0x0a\n        /* \"Ethereum/Presale.sol\":3249:3301  10 ** uint256(ERC20(saleInfor.baseToken).decimals()) */\n      tag_219\n      jump\t// in\n    tag_235:\n        /* \"Ethereum/Presale.sol\":3238:3246  datas[4] */\n      0x80\n      dup4\n      add\n      mload\n        /* \"Ethereum/Presale.sol\":3238:3301  datas[4] * 10 ** uint256(ERC20(saleInfor.baseToken).decimals()) */\n      tag_238\n      swap2\n      swap1\n      tag_224\n      jump\t// in\n    tag_238:\n        /* \"Ethereum/Presale.sol\":3209:3235  saleInfor.maxSpendPerBuyer */\n      0x16\n        /* \"Ethereum/Presale.sol\":3209:3301  saleInfor.maxSpendPerBuyer = datas[4] * 10 ** uint256(ERC20(saleInfor.baseToken).decimals()) */\n      sstore\n        /* \"Ethereum/Presale.sol\":3334:3342  datas[5] */\n      0xa0\n      dup3\n      add\n      mload\n        /* \"Ethereum/Presale.sol\":3312:3331  saleInfor.refundFee */\n      0x17\n        /* \"Ethereum/Presale.sol\":3312:3342  saleInfor.refundFee = datas[5] */\n      sstore\n        /* \"Ethereum/Presale.sol\":3374:3382  datas[6] */\n      0xc0\n      dup3\n      add\n      mload\n        /* \"Ethereum/Presale.sol\":3353:3371  saleInfor.claimFee */\n      0x18\n        /* \"Ethereum/Presale.sol\":3353:3382  saleInfor.claimFee = datas[6] */\n      sstore\n        /* \"Ethereum/Presale.sol\":3450:3469  saleInfor.baseToken */\n      sload(0x11)\n        /* \"Ethereum/Presale.sol\":3444:3481  ERC20(saleInfor.baseToken).decimals() */\n      0x40\n      dup1\n      mload\n      shl(0xe0, 0x313ce567)\n      dup2\n      mstore\n      swap1\n      mload\n      sub(shl(0xa0, 0x01), 0x01)\n        /* \"Ethereum/Presale.sol\":3450:3469  saleInfor.baseToken */\n      swap1\n      swap3\n      and\n      swap2\n        /* \"Ethereum/Presale.sol\":3444:3479  ERC20(saleInfor.baseToken).decimals */\n      0x313ce567\n      swap2\n        /* \"Ethereum/Presale.sol\":3444:3481  ERC20(saleInfor.baseToken).decimals() */\n      0x04\n      dup1\n      dup3\n      add\n      swap3\n        /* \"Ethereum/Presale.sol\":3334:3342  datas[5] */\n      0x20\n      swap3\n        /* \"Ethereum/Presale.sol\":3444:3481  ERC20(saleInfor.baseToken).decimals() */\n      swap1\n      swap2\n      swap1\n      dup3\n      swap1\n      sub\n      add\n      dup2\n        /* \"Ethereum/Presale.sol\":3450:3469  saleInfor.baseToken */\n      dup7\n        /* \"Ethereum/Presale.sol\":3444:3481  ERC20(saleInfor.baseToken).decimals() */\n      dup1\n      extcodesize\n      iszero\n      dup1\n      iszero\n      tag_243\n      jumpi\n      0x00\n      dup1\n      revert\n    tag_243:\n      pop\n      gas\n      staticcall\n      iszero\n      dup1\n      iszero\n      tag_245\n      jumpi\n      returndatasize\n      0x00\n      dup1\n      returndatacopy\n      revert(0x00, returndatasize)\n    tag_245:\n      pop\n      pop\n      pop\n      pop\n      mload(0x40)\n      returndatasize\n      not(0x1f)\n      0x1f\n      dup3\n      add\n      and\n      dup3\n      add\n      dup1\n      0x40\n      mstore\n      pop\n      dup2\n      add\n      swap1\n      tag_246\n      swap2\n      swap1\n      tag_163\n      jump\t// in\n    tag_246:\n        /* \"Ethereum/Presale.sol\":3430:3482  10 ** uint256(ERC20(saleInfor.baseToken).decimals()) */\n      tag_247\n      swap1\n        /* \"Ethereum/Presale.sol\":3430:3432  10 */\n      0x0a\n        /* \"Ethereum/Presale.sol\":3430:3482  10 ** uint256(ERC20(saleInfor.baseToken).decimals()) */\n      tag_219\n      jump\t// in\n    tag_247:\n        /* \"Ethereum/Presale.sol\":3419:3427  datas[7] */\n      0xe0\n      dup4\n      add\n      mload\n        /* \"Ethereum/Presale.sol\":3419:3482  datas[7] * 10 ** uint256(ERC20(saleInfor.baseToken).decimals()) */\n      tag_250\n      swap2\n      swap1\n      tag_224\n      jump\t// in\n    tag_250:\n        /* \"Ethereum/Presale.sol\":3393:3408  saleTotalSupply */\n      0x0d\n        /* \"Ethereum/Presale.sol\":3393:3482  saleTotalSupply.hardCap = datas[7] * 10 ** uint256(ERC20(saleInfor.baseToken).decimals()) */\n      sstore\n        /* \"Ethereum/Presale.sol\":3549:3568  saleInfor.baseToken */\n      sload(0x11)\n        /* \"Ethereum/Presale.sol\":3543:3580  ERC20(saleInfor.baseToken).decimals() */\n      0x40\n      dup1\n      mload\n      shl(0xe0, 0x313ce567)\n      dup2\n      mstore\n      swap1\n      mload\n      sub(shl(0xa0, 0x01), 0x01)\n        /* \"Ethereum/Presale.sol\":3549:3568  saleInfor.baseToken */\n      swap1\n      swap3\n      and\n      swap2\n        /* \"Ethereum/Presale.sol\":3543:3578  ERC20(saleInfor.baseToken).decimals */\n      0x313ce567\n      swap2\n        /* \"Ethereum/Presale.sol\":3543:3580  ERC20(saleInfor.baseToken).decimals() */\n      0x04\n      dup1\n      dup3\n      add\n      swap3\n      0x20\n      swap3\n      swap1\n      swap2\n      swap1\n      dup3\n      swap1\n      sub\n      add\n      dup2\n        /* \"Ethereum/Presale.sol\":3549:3568  saleInfor.baseToken */\n      dup7\n        /* \"Ethereum/Presale.sol\":3543:3580  ERC20(saleInfor.baseToken).decimals() */\n      dup1\n      extcodesize\n      iszero\n      dup1\n      iszero\n      tag_251\n      jumpi\n      0x00\n      dup1\n      revert\n    tag_251:\n      pop\n      gas\n      staticcall\n      iszero\n      dup1\n      iszero\n      tag_253\n      jumpi\n      returndatasize\n      0x00\n      dup1\n      returndatacopy\n      revert(0x00, returndatasize)\n    tag_253:\n      pop\n      pop\n      pop\n      pop\n      mload(0x40)\n      returndatasize\n      not(0x1f)\n      0x1f\n      dup3\n      add\n      and\n      dup3\n      add\n      dup1\n      0x40\n      mstore\n      pop\n      dup2\n      add\n      swap1\n      tag_254\n      swap2\n      swap1\n      tag_163\n      jump\t// in\n    tag_254:\n        /* \"Ethereum/Presale.sol\":3530:3581  10** uint256(ERC20(saleInfor.baseToken).decimals()) */\n      tag_255\n      swap1\n        /* \"Ethereum/Presale.sol\":3530:3532  10 */\n      0x0a\n        /* \"Ethereum/Presale.sol\":3530:3581  10** uint256(ERC20(saleInfor.baseToken).decimals()) */\n      tag_219\n      jump\t// in\n    tag_255:\n        /* \"Ethereum/Presale.sol\":3519:3527  datas[8] */\n      0x0100\n      dup4\n      add\n      mload\n        /* \"Ethereum/Presale.sol\":3519:3581  datas[8] * 10** uint256(ERC20(saleInfor.baseToken).decimals()) */\n      tag_258\n      swap2\n      swap1\n      tag_224\n      jump\t// in\n    tag_258:\n        /* \"Ethereum/Presale.sol\":3493:3516  saleTotalSupply.softCap */\n      0x0e\n        /* \"Ethereum/Presale.sol\":3493:3581  saleTotalSupply.softCap = datas[8] * 10** uint256(ERC20(saleInfor.baseToken).decimals()) */\n      sstore\n        /* \"Ethereum/Presale.sol\":3645:3664  saleInfor.baseToken */\n      sload(0x11)\n        /* \"Ethereum/Presale.sol\":3628:3632  WETH */\n      sload(0x1b)\n        /* \"Ethereum/Presale.sol\":3592:3617  saleInfor.saleIsBaseToken */\n      0x19\n        /* \"Ethereum/Presale.sol\":3592:3665  saleInfor.saleIsBaseToken = address(WETH) == address(saleInfor.baseToken) */\n      dup1\n      sload\n      not(0xff)\n      and\n      sub(shl(0xa0, 0x01), 0x01)\n        /* \"Ethereum/Presale.sol\":3628:3632  WETH */\n      swap3\n      dup4\n      and\n        /* \"Ethereum/Presale.sol\":3645:3664  saleInfor.baseToken */\n      swap3\n      swap1\n      swap4\n      and\n        /* \"Ethereum/Presale.sol\":3620:3665  address(WETH) == address(saleInfor.baseToken) */\n      swap2\n      dup3\n      eq\n        /* \"Ethereum/Presale.sol\":3592:3665  saleInfor.saleIsBaseToken = address(WETH) == address(saleInfor.baseToken) */\n      swap3\n      swap1\n      swap3\n      or\n      swap1\n      swap2\n      sstore\n        /* \"Ethereum/Presale.sol\":3812:3849  ERC20(saleInfor.baseToken).decimals() */\n      0x40\n      dup1\n      mload\n      shl(0xe0, 0x313ce567)\n      dup2\n      mstore\n      swap1\n      mload\n        /* \"Ethereum/Presale.sol\":3812:3847  ERC20(saleInfor.baseToken).decimals */\n      0x313ce567\n      swap2\n        /* \"Ethereum/Presale.sol\":3812:3849  ERC20(saleInfor.baseToken).decimals() */\n      0x04\n      dup1\n      dup3\n      add\n      swap3\n      0x20\n      swap3\n      swap1\n      swap2\n      swap1\n      dup3\n      swap1\n      sub\n      add\n      dup2\n        /* \"Ethereum/Presale.sol\":3645:3664  saleInfor.baseToken */\n      dup7\n        /* \"Ethereum/Presale.sol\":3812:3849  ERC20(saleInfor.baseToken).decimals() */\n      dup1\n      extcodesize\n      iszero\n      dup1\n      iszero\n      tag_259\n      jumpi\n      0x00\n      dup1\n      revert\n    tag_259:\n      pop\n      gas\n      staticcall\n      iszero\n      dup1\n      iszero\n      tag_261\n      jumpi\n      returndatasize\n      0x00\n      dup1\n      returndatacopy\n      revert(0x00, returndatasize)\n    tag_261:\n      pop\n      pop\n      pop\n      pop\n      mload(0x40)\n      returndatasize\n      not(0x1f)\n      0x1f\n      dup3\n      add\n      and\n      dup3\n      add\n      dup1\n      0x40\n      mstore\n      pop\n      dup2\n      add\n      swap1\n      tag_262\n      swap2\n      swap1\n      tag_163\n      jump\t// in\n    tag_262:\n        /* \"Ethereum/Presale.sol\":3799:3850  10** uint256(ERC20(saleInfor.baseToken).decimals()) */\n      tag_263\n      swap1\n        /* \"Ethereum/Presale.sol\":3799:3801  10 */\n      0x0a\n        /* \"Ethereum/Presale.sol\":3799:3850  10** uint256(ERC20(saleInfor.baseToken).decimals()) */\n      tag_219\n      jump\t// in\n    tag_263:\n        /* \"Ethereum/Presale.sol\":3732:3747  saleTotalSupply */\n      0x0d\n        /* \"Ethereum/Presale.sol\":3732:3755  saleTotalSupply.hardCap */\n      sload\n        /* \"Ethereum/Presale.sol\":3707:3727  saleInfor.tokenPrice */\n      sload(0x12)\n        /* \"Ethereum/Presale.sol\":3707:3756  saleInfor.tokenPrice.mul(saleTotalSupply.hardCap) */\n      tag_264\n      swap2\n        /* \"Ethereum/Presale.sol\":3707:3731  saleInfor.tokenPrice.mul */\n      tag_202\n        /* \"Ethereum/Presale.sol\":3707:3756  saleInfor.tokenPrice.mul(saleTotalSupply.hardCap) */\n      jump\t// in\n    tag_264:\n        /* \"Ethereum/Presale.sol\":3707:3851  saleInfor.tokenPrice.mul(saleTotalSupply.hardCap)/\r... */\n      tag_265\n      swap2\n      swap1\n      tag_266\n      jump\t// in\n    tag_265:\n        /* \"Ethereum/Presale.sol\":3676:3704  saleInfor.amountTokenForSale */\n      0x1a\n        /* \"Ethereum/Presale.sol\":3676:3851  saleInfor.amountTokenForSale = saleInfor.tokenPrice.mul(saleTotalSupply.hardCap)/\r... */\n      sstore\n        /* \"Ethereum/Presale.sol\":3862:3871  feeAnyone */\n      0x1f\n        /* \"Ethereum/Presale.sol\":3862:3884  feeAnyone = _feeAnyone */\n      sstore\n      pop\n      pop\n      pop\n      pop\n        /* \"Ethereum/Presale.sol\":2640:3894  function initialSaleInfor(\r... */\n      jump\t// out\n        /* \"Ethereum/Presale.sol\":6587:7591  function userClaimEmergency() external nonReentrant {\r... */\n    tag_80:\n        /* \"Utils/ReentrancyGuard.sol\":1778:1779  2 */\n      0x02\n        /* \"Utils/ReentrancyGuard.sol\":2376:2383  _status */\n      sload(0x00)\n        /* \"Utils/ReentrancyGuard.sol\":2376:2395  _status != _ENTERED */\n      eq\n      iszero\n        /* \"Utils/ReentrancyGuard.sol\":2368:2431  require(_status != _ENTERED, \"ReentrancyGuard: reentrant call\") */\n      tag_268\n      jumpi\n      mload(0x40)\n      shl(0xe5, 0x461bcd)\n      dup2\n      mstore\n      0x04\n      add\n      tag_139\n      swap1\n      tag_156\n      jump\t// in\n    tag_268:\n        /* \"Utils/ReentrancyGuard.sol\":1778:1779  2 */\n      0x02\n        /* \"Utils/ReentrancyGuard.sol\":2509:2516  _status */\n      0x00\n        /* \"Utils/ReentrancyGuard.sol\":2509:2527  _status = _ENTERED */\n      swap1\n      dup2\n      sstore\n        /* \"Ethereum/Presale.sol\":6742:6774  presaleStatus.totalTokenWithDraw */\n      sload(0x06)\n        /* \"Ethereum/Presale.sol\":6711:6739  presaleStatus.totalTokenSold */\n      sload(0x05)\n        /* \"Ethereum/Presale.sol\":6711:6774  presaleStatus.totalTokenSold - presaleStatus.totalTokenWithDraw */\n      tag_271\n      swap2\n        /* \"Ethereum/Presale.sol\":6742:6774  presaleStatus.totalTokenWithDraw */\n      swap1\n        /* \"Ethereum/Presale.sol\":6711:6774  presaleStatus.totalTokenSold - presaleStatus.totalTokenWithDraw */\n      tag_189\n      jump\t// in\n    tag_271:\n        /* \"Ethereum/Presale.sol\":6711:6778  presaleStatus.totalTokenSold - presaleStatus.totalTokenWithDraw > 0 */\n      gt\n        /* \"Ethereum/Presale.sol\":6703:6837  require(presaleStatus.totalTokenSold - presaleStatus.totalTokenWithDraw > 0, \r... */\n      tag_272\n      jumpi\n      mload(0x40)\n      shl(0xe5, 0x461bcd)\n      dup2\n      mstore\n      0x04\n      add\n      tag_139\n      swap1\n      tag_192\n      jump\t// in\n    tag_272:\n        /* \"Ethereum/Presale.sol\":6884:6894  msg.sender */\n      caller\n        /* \"Ethereum/Presale.sol\":6848:6871  BuyerInfo storage buyer */\n      0x00\n        /* \"Ethereum/Presale.sol\":6874:6895  buyerInfo[msg.sender] */\n      swap1\n      dup2\n      mstore\n        /* \"Ethereum/Presale.sol\":6874:6883  buyerInfo */\n      0x02\n        /* \"Ethereum/Presale.sol\":6874:6895  buyerInfo[msg.sender] */\n      0x20\n      mstore\n      0x40\n      swap1\n      keccak256\n        /* \"Ethereum/Presale.sol\":6914:6930  buyer.tokenOwner */\n      0x01\n      dup2\n      add\n      sload\n        /* \"Ethereum/Presale.sol\":6906:6962  require(buyer.tokenOwner > 0, \"You have not bought yet\") */\n      tag_274\n      jumpi\n      mload(0x40)\n      shl(0xe5, 0x461bcd)\n      dup2\n      mstore\n        /* \"#utility.yul\":5749:5751   */\n      0x20\n        /* \"Ethereum/Presale.sol\":6906:6962  require(buyer.tokenOwner > 0, \"You have not bought yet\") */\n      0x04\n      dup3\n      add\n        /* \"#utility.yul\":5731:5752   */\n      mstore\n        /* \"#utility.yul\":5788:5790   */\n      0x17\n        /* \"#utility.yul\":5768:5786   */\n      0x24\n      dup3\n      add\n        /* \"#utility.yul\":5761:5791   */\n      mstore\n      shl(0x4a, 0x165bdd481a185d99481b9bdd08189bdd59da1d081e595d)\n        /* \"#utility.yul\":5807:5825   */\n      0x44\n      dup3\n      add\n        /* \"#utility.yul\":5800:5853   */\n      mstore\n        /* \"#utility.yul\":5870:5888   */\n      0x64\n      add\n        /* \"Ethereum/Presale.sol\":6906:6962  require(buyer.tokenOwner > 0, \"You have not bought yet\") */\n      tag_139\n        /* \"#utility.yul\":5721:5894   */\n      jump\n        /* \"Ethereum/Presale.sol\":6906:6962  require(buyer.tokenOwner > 0, \"You have not bought yet\") */\n    tag_274:\n        /* \"Ethereum/Presale.sol\":7000:7005  buyer */\n      dup1\n        /* \"Ethereum/Presale.sol\":7000:7024  buyer.totalTokenWithDraw */\n      0x03\n      add\n      sload\n        /* \"Ethereum/Presale.sol\":6981:6986  buyer */\n      dup2\n        /* \"Ethereum/Presale.sol\":6981:6997  buyer.tokenOwner */\n      0x01\n      add\n      sload\n        /* \"Ethereum/Presale.sol\":6981:7024  buyer.tokenOwner > buyer.totalTokenWithDraw */\n      gt\n        /* \"Ethereum/Presale.sol\":6973:7043  require(buyer.tokenOwner > buyer.totalTokenWithDraw, \"You claim alll\") */\n      tag_276\n      jumpi\n      mload(0x40)\n      shl(0xe5, 0x461bcd)\n      dup2\n      mstore\n        /* \"#utility.yul\":7578:7580   */\n      0x20\n        /* \"Ethereum/Presale.sol\":6973:7043  require(buyer.tokenOwner > buyer.totalTokenWithDraw, \"You claim alll\") */\n      0x04\n      dup3\n      add\n        /* \"#utility.yul\":7560:7581   */\n      mstore\n        /* \"#utility.yul\":7617:7619   */\n      0x0e\n        /* \"#utility.yul\":7597:7615   */\n      0x24\n      dup3\n      add\n        /* \"#utility.yul\":7590:7620   */\n      mstore\n      shl(0x92, 0x165bdd4818db185a5b48185b1b1b)\n        /* \"#utility.yul\":7636:7654   */\n      0x44\n      dup3\n      add\n        /* \"#utility.yul\":7629:7673   */\n      mstore\n        /* \"#utility.yul\":7690:7708   */\n      0x64\n      add\n        /* \"Ethereum/Presale.sol\":6973:7043  require(buyer.tokenOwner > buyer.totalTokenWithDraw, \"You claim alll\") */\n      tag_139\n        /* \"#utility.yul\":7550:7714   */\n      jump\n        /* \"Ethereum/Presale.sol\":6973:7043  require(buyer.tokenOwner > buyer.totalTokenWithDraw, \"You claim alll\") */\n    tag_276:\n        /* \"Ethereum/Presale.sol\":7054:7073  uint256 amountClaim */\n      0x00\n        /* \"Ethereum/Presale.sol\":7076:7212  ((uint256(1000).sub(saleInfor.claimFee))\r... */\n      tag_279\n        /* \"Ethereum/Presale.sol\":7206:7210  1000 */\n      0x03e8\n        /* \"Ethereum/Presale.sol\":7077:7165  (uint256(1000).sub(saleInfor.claimFee))\r... */\n      tag_200\n        /* \"Ethereum/Presale.sol\":7148:7153  buyer */\n      dup5\n        /* \"Ethereum/Presale.sol\":7148:7164  buyer.tokenOwner */\n      0x01\n      add\n      sload\n        /* \"Ethereum/Presale.sol\":7078:7115  uint256(1000).sub(saleInfor.claimFee) */\n      tag_201\n        /* \"Ethereum/Presale.sol\":7096:7105  saleInfor */\n      0x0f\n        /* \"Ethereum/Presale.sol\":7096:7114  saleInfor.claimFee */\n      0x09\n      add\n      sload\n        /* \"Ethereum/Presale.sol\":7086:7090  1000 */\n      0x03e8\n        /* \"Ethereum/Presale.sol\":7078:7095  uint256(1000).sub */\n      tag_165\n      swap1\n        /* \"Ethereum/Presale.sol\":7078:7115  uint256(1000).sub(saleInfor.claimFee) */\n      swap2\n      swap1\n      0xffffffff\n      and\n      jump\t// in\n        /* \"Ethereum/Presale.sol\":7076:7212  ((uint256(1000).sub(saleInfor.claimFee))\r... */\n    tag_279:\n        /* \"Ethereum/Presale.sol\":7054:7212  uint256 amountClaim = ((uint256(1000).sub(saleInfor.claimFee))\r... */\n      swap1\n      pop\n        /* \"Ethereum/Presale.sol\":7259:7270  amountClaim */\n      dup1\n        /* \"Ethereum/Presale.sol\":7223:7236  presaleStatus */\n      0x04\n        /* \"Ethereum/Presale.sol\":7223:7255  presaleStatus.totalTokenWithDraw */\n      0x02\n      add\n      0x00\n        /* \"Ethereum/Presale.sol\":7223:7270  presaleStatus.totalTokenWithDraw += amountClaim */\n      dup3\n      dup3\n      sload\n      tag_282\n      swap2\n      swap1\n      tag_206\n      jump\t// in\n    tag_282:\n      swap1\n      swap2\n      sstore\n      pop\n      pop\n        /* \"Ethereum/Presale.sol\":7281:7309  saleInfor.amountTokenForSale */\n      0x1a\n        /* \"Ethereum/Presale.sol\":7281:7324  saleInfor.amountTokenForSale -= amountClaim */\n      dup1\n      sload\n        /* \"Ethereum/Presale.sol\":7313:7324  amountClaim */\n      dup3\n      swap2\n        /* \"Ethereum/Presale.sol\":7281:7309  saleInfor.amountTokenForSale */\n      swap1\n      0x00\n      swap1\n        /* \"Ethereum/Presale.sol\":7281:7324  saleInfor.amountTokenForSale -= amountClaim */\n      tag_283\n      swap1\n        /* \"Ethereum/Presale.sol\":7313:7324  amountClaim */\n      dup5\n      swap1\n        /* \"Ethereum/Presale.sol\":7281:7324  saleInfor.amountTokenForSale -= amountClaim */\n      tag_189\n      jump\t// in\n    tag_283:\n      swap3\n      pop\n      pop\n      dup2\n      swap1\n      sstore\n      pop\n        /* \"Ethereum/Presale.sol\":7363:7374  amountClaim */\n      dup1\n        /* \"Ethereum/Presale.sol\":7335:7340  buyer */\n      dup3\n        /* \"Ethereum/Presale.sol\":7335:7359  buyer.totalTokenWithDraw */\n      0x03\n      add\n      0x00\n        /* \"Ethereum/Presale.sol\":7335:7374  buyer.totalTokenWithDraw += amountClaim */\n      dup3\n      dup3\n      sload\n      tag_284\n      swap2\n      swap1\n      tag_206\n      jump\t// in\n    tag_284:\n      swap1\n      swap2\n      sstore\n      pop\n      pop\n        /* \"Ethereum/Presale.sol\":7406:7421  block.timestamp */\n      timestamp\n        /* \"Ethereum/Presale.sol\":7385:7403  buyer.lastWithDraw */\n      0x02\n      dup4\n      add\n        /* \"Ethereum/Presale.sol\":7385:7421  buyer.lastWithDraw = block.timestamp */\n      sstore\n        /* \"Ethereum/Presale.sol\":7489:7512  buyer.totalBaseWithDraw */\n      0x04\n      dup3\n      add\n      sload\n        /* \"Ethereum/Presale.sol\":7471:7488  buyer.baseDeposit */\n      dup3\n      sload\n        /* \"Ethereum/Presale.sol\":7471:7512  buyer.baseDeposit-buyer.totalBaseWithDraw */\n      tag_285\n      swap2\n        /* \"Ethereum/Presale.sol\":7489:7512  buyer.totalBaseWithDraw */\n      swap1\n        /* \"Ethereum/Presale.sol\":7471:7512  buyer.baseDeposit-buyer.totalBaseWithDraw */\n      tag_189\n      jump\t// in\n    tag_285:\n        /* \"Ethereum/Presale.sol\":7432:7467  presaleStatus.totalBaseBackForAdmin */\n      0x09\n        /* \"Ethereum/Presale.sol\":7432:7512  presaleStatus.totalBaseBackForAdmin += buyer.baseDeposit-buyer.totalBaseWithDraw */\n      dup1\n      sload\n        /* \"Ethereum/Presale.sol\":7432:7467  presaleStatus.totalBaseBackForAdmin */\n      0x00\n      swap1\n        /* \"Ethereum/Presale.sol\":7432:7512  presaleStatus.totalBaseBackForAdmin += buyer.baseDeposit-buyer.totalBaseWithDraw */\n      tag_286\n      swap1\n      dup5\n      swap1\n      tag_206\n      jump\t// in\n    tag_286:\n      swap1\n      swap2\n      sstore\n      pop\n      pop\n        /* \"Ethereum/Presale.sol\":7529:7548  saleInfor.saleToken */\n      sload(0x10)\n        /* \"Ethereum/Presale.sol\":7523:7583  ERC20(saleInfor.saleToken).transfer(msg.sender, amountClaim) */\n      mload(0x40)\n      shl(0xe0, 0xa9059cbb)\n      dup2\n      mstore\n        /* \"Ethereum/Presale.sol\":7559:7569  msg.sender */\n      caller\n        /* \"Ethereum/Presale.sol\":7523:7583  ERC20(saleInfor.saleToken).transfer(msg.sender, amountClaim) */\n      0x04\n      dup3\n      add\n        /* \"#utility.yul\":4369:4420   */\n      mstore\n        /* \"#utility.yul\":4436:4454   */\n      0x24\n      dup2\n      add\n        /* \"#utility.yul\":4429:4463   */\n      dup4\n      swap1\n      mstore\n      sub(shl(0xa0, 0x01), 0x01)\n        /* \"Ethereum/Presale.sol\":7529:7548  saleInfor.saleToken */\n      swap1\n      swap2\n      and\n      swap1\n        /* \"Ethereum/Presale.sol\":7523:7558  ERC20(saleInfor.saleToken).transfer */\n      0xa9059cbb\n      swap1\n        /* \"#utility.yul\":4342:4360   */\n      0x44\n      add\n        /* \"Ethereum/Presale.sol\":7523:7583  ERC20(saleInfor.saleToken).transfer(msg.sender, amountClaim) */\n      0x20\n      mload(0x40)\n      dup1\n      dup4\n      sub\n      dup2\n      0x00\n      dup8\n      dup1\n      extcodesize\n      iszero\n      dup1\n      iszero\n      tag_289\n      jumpi\n      0x00\n      dup1\n      revert\n    tag_289:\n      pop\n      gas\n      call\n      iszero\n      dup1\n      iszero\n      tag_291\n      jumpi\n      returndatasize\n      0x00\n      dup1\n      returndatacopy\n      revert(0x00, returndatasize)\n    tag_291:\n      pop\n      pop\n      pop\n      pop\n      mload(0x40)\n      returndatasize\n      not(0x1f)\n      0x1f\n      dup3\n      add\n      and\n      dup3\n      add\n      dup1\n      0x40\n      mstore\n      pop\n      dup2\n      add\n      swap1\n      tag_183\n      swap2\n      swap1\n      tag_181\n      jump\t// in\n        /* \"Ethereum/Presale.sol\":4367:6579  function deposit(uint256 _amount) external payable nonReentrant {\r... */\n    tag_98:\n        /* \"Utils/ReentrancyGuard.sol\":1778:1779  2 */\n      0x02\n        /* \"Utils/ReentrancyGuard.sol\":2376:2383  _status */\n      sload(0x00)\n        /* \"Utils/ReentrancyGuard.sol\":2376:2395  _status != _ENTERED */\n      eq\n      iszero\n        /* \"Utils/ReentrancyGuard.sol\":2368:2431  require(_status != _ENTERED, \"ReentrancyGuard: reentrant call\") */\n      tag_294\n      jumpi\n      mload(0x40)\n      shl(0xe5, 0x461bcd)\n      dup2\n      mstore\n      0x04\n      add\n      tag_139\n      swap1\n      tag_156\n      jump\t// in\n    tag_294:\n        /* \"Utils/ReentrancyGuard.sol\":1778:1779  2 */\n      0x02\n        /* \"Utils/ReentrancyGuard.sol\":2509:2516  _status */\n      0x00\n        /* \"Utils/ReentrancyGuard.sol\":2509:2527  _status = _ENTERED */\n      dup2\n      dup2\n      sstore\n        /* \"Ethereum/Presale.sol\":4538:4548  msg.sender */\n      caller\n        /* \"Ethereum/Presale.sol\":4528:4549  buyerInfo[msg.sender] */\n      dup2\n      mstore\n      0x20\n      swap2\n      swap1\n      swap2\n      mstore\n      0x40\n      dup2\n      keccak256\n      swap1\n        /* \"Ethereum/Presale.sol\":4580:4587  _amount */\n      dup3\n      swap1\n      dup2\n      swap1\n        /* \"Ethereum/Presale.sol\":4693:4697  1000 */\n      0x03e8\n        /* \"Ethereum/Presale.sol\":4716:4725  msg.value */\n      callvalue\n        /* \"Ethereum/Presale.sol\":4716:4743  msg.value >= real_amount_in */\n      dup4\n      gt\n      iszero\n        /* \"Ethereum/Presale.sol\":4708:4774  require(msg.value >= real_amount_in, \"Please provide navite coin\") */\n      tag_297\n      jumpi\n      mload(0x40)\n      shl(0xe5, 0x461bcd)\n      dup2\n      mstore\n        /* \"#utility.yul\":6101:6103   */\n      0x20\n        /* \"Ethereum/Presale.sol\":4708:4774  require(msg.value >= real_amount_in, \"Please provide navite coin\") */\n      0x04\n      dup3\n      add\n        /* \"#utility.yul\":6083:6104   */\n      mstore\n        /* \"#utility.yul\":6140:6142   */\n      0x1a\n        /* \"#utility.yul\":6120:6138   */\n      0x24\n      dup3\n      add\n        /* \"#utility.yul\":6113:6143   */\n      mstore\n        /* \"#utility.yul\":6179:6207   */\n      0x506c656173652070726f76696465206e617669746520636f696e000000000000\n        /* \"#utility.yul\":6159:6177   */\n      0x44\n      dup3\n      add\n        /* \"#utility.yul\":6152:6208   */\n      mstore\n        /* \"#utility.yul\":6225:6243   */\n      0x64\n      add\n        /* \"Ethereum/Presale.sol\":4708:4774  require(msg.value >= real_amount_in, \"Please provide navite coin\") */\n      tag_139\n        /* \"#utility.yul\":6073:6249   */\n      jump\n        /* \"Ethereum/Presale.sol\":4708:4774  require(msg.value >= real_amount_in, \"Please provide navite coin\") */\n    tag_297:\n        /* \"Ethereum/Presale.sol\":4811:4837  saleInfor.minSpendPerBuyer */\n      sload(0x15)\n        /* \"Ethereum/Presale.sol\":4793:4837  real_amount_in >= saleInfor.minSpendPerBuyer */\n      dup4\n      lt\n      iszero\n        /* \"Ethereum/Presale.sol\":4785:4886  require(real_amount_in >= saleInfor.minSpendPerBuyer, \r... */\n      tag_300\n      jumpi\n      mload(0x40)\n      shl(0xe5, 0x461bcd)\n      dup2\n      mstore\n        /* \"#utility.yul\":9075:9077   */\n      0x20\n        /* \"Ethereum/Presale.sol\":4785:4886  require(real_amount_in >= saleInfor.minSpendPerBuyer, \r... */\n      0x04\n      dup3\n      add\n        /* \"#utility.yul\":9057:9078   */\n      mstore\n        /* \"#utility.yul\":9114:9116   */\n      0x10\n        /* \"#utility.yul\":9094:9112   */\n      0x24\n      dup3\n      add\n        /* \"#utility.yul\":9087:9117   */\n      mstore\n      shl(0x80, 0x4e6f7420656e6f7567682076616c7565)\n        /* \"#utility.yul\":9133:9151   */\n      0x44\n      dup3\n      add\n        /* \"#utility.yul\":9126:9172   */\n      mstore\n        /* \"#utility.yul\":9189:9207   */\n      0x64\n      add\n        /* \"Ethereum/Presale.sol\":4785:4886  require(real_amount_in >= saleInfor.minSpendPerBuyer, \r... */\n      tag_139\n        /* \"#utility.yul\":9047:9213   */\n      jump\n        /* \"Ethereum/Presale.sol\":4785:4886  require(real_amount_in >= saleInfor.minSpendPerBuyer, \r... */\n    tag_300:\n        /* \"Ethereum/Presale.sol\":4923:4949  saleInfor.maxSpendPerBuyer */\n      sload(0x16)\n        /* \"Ethereum/Presale.sol\":4905:4949  real_amount_in <= saleInfor.maxSpendPerBuyer */\n      dup4\n      gt\n      iszero\n        /* \"Ethereum/Presale.sol\":4897:4996  require(real_amount_in <= saleInfor.maxSpendPerBuyer, \r... */\n      tag_303\n      jumpi\n      mload(0x40)\n      shl(0xe5, 0x461bcd)\n      dup2\n      mstore\n        /* \"#utility.yul\":8327:8329   */\n      0x20\n        /* \"Ethereum/Presale.sol\":4897:4996  require(real_amount_in <= saleInfor.maxSpendPerBuyer, \r... */\n      0x04\n      dup3\n      add\n        /* \"#utility.yul\":8309:8330   */\n      mstore\n        /* \"#utility.yul\":8366:8368   */\n      0x0e\n        /* \"#utility.yul\":8346:8364   */\n      0x24\n      dup3\n      add\n        /* \"#utility.yul\":8339:8369   */\n      mstore\n      shl(0x90, 0x4f766572666c6f772076616c7565)\n        /* \"#utility.yul\":8385:8403   */\n      0x44\n      dup3\n      add\n        /* \"#utility.yul\":8378:8422   */\n      mstore\n        /* \"#utility.yul\":8439:8457   */\n      0x64\n      add\n        /* \"Ethereum/Presale.sol\":4897:4996  require(real_amount_in <= saleInfor.maxSpendPerBuyer, \r... */\n      tag_139\n        /* \"#utility.yul\":8299:8463   */\n      jump\n        /* \"Ethereum/Presale.sol\":4897:4996  require(real_amount_in <= saleInfor.maxSpendPerBuyer, \r... */\n    tag_303:\n        /* \"Ethereum/Presale.sol\":5011:5030  checkAdminAddress() */\n      tag_306\n        /* \"Ethereum/Presale.sol\":5011:5028  checkAdminAddress */\n      tag_101\n        /* \"Ethereum/Presale.sol\":5011:5030  checkAdminAddress() */\n      jump\t// in\n    tag_306:\n        /* \"Ethereum/Presale.sol\":5007:5273  if(!checkAdminAddress()) {\r... */\n      tag_307\n      jumpi\n        /* \"Ethereum/Presale.sol\":5064:5197  ((fullPercenFee.sub(feeAnyone))\r... */\n      tag_308\n        /* \"Ethereum/Presale.sol\":5183:5196  fullPercenFee */\n      dup2\n        /* \"Ethereum/Presale.sol\":5065:5146  (fullPercenFee.sub(feeAnyone))\r... */\n      tag_200\n        /* \"Ethereum/Presale.sol\":5131:5145  real_amount_in */\n      dup6\n        /* \"Ethereum/Presale.sol\":5066:5094  fullPercenFee.sub(feeAnyone) */\n      tag_201\n        /* \"Ethereum/Presale.sol\":5084:5093  feeAnyone */\n      sload(0x1f)\n        /* \"Ethereum/Presale.sol\":5066:5079  fullPercenFee */\n      dup7\n        /* \"Ethereum/Presale.sol\":5066:5083  fullPercenFee.sub */\n      tag_165\n      swap1\n        /* \"Ethereum/Presale.sol\":5066:5094  fullPercenFee.sub(feeAnyone) */\n      swap2\n      swap1\n      0xffffffff\n      and\n      jump\t// in\n        /* \"Ethereum/Presale.sol\":5064:5197  ((fullPercenFee.sub(feeAnyone))\r... */\n    tag_308:\n        /* \"Ethereum/Presale.sol\":5047:5197  real_amount_in = ((fullPercenFee.sub(feeAnyone))\r... */\n      swap3\n      pop\n        /* \"Ethereum/Presale.sol\":5218:5244  amount_in - real_amount_in */\n      tag_311\n        /* \"Ethereum/Presale.sol\":5047:5197  real_amount_in = ((fullPercenFee.sub(feeAnyone))\r... */\n      dup4\n        /* \"Ethereum/Presale.sol\":5218:5227  amount_in */\n      dup6\n        /* \"Ethereum/Presale.sol\":5218:5244  amount_in - real_amount_in */\n      tag_189\n      jump\t// in\n    tag_311:\n        /* \"Ethereum/Presale.sol\":5212:5244  fee = amount_in - real_amount_in */\n      swap2\n      pop\n        /* \"Ethereum/Presale.sol\":5007:5273  if(!checkAdminAddress()) {\r... */\n    tag_307:\n        /* \"Ethereum/Presale.sol\":5338:5355  buyer.baseDeposit */\n      dup5\n      sload\n        /* \"Ethereum/Presale.sol\":5309:5335  saleInfor.maxSpendPerBuyer */\n      sload(0x16)\n        /* \"Ethereum/Presale.sol\":5283:5306  uint256 remainingByUser */\n      0x00\n      swap2\n        /* \"Ethereum/Presale.sol\":5309:5355  saleInfor.maxSpendPerBuyer - buyer.baseDeposit */\n      tag_312\n      swap2\n      tag_189\n      jump\t// in\n    tag_312:\n        /* \"Ethereum/Presale.sol\":5423:5436  presaleStatus */\n      0x04\n        /* \"Ethereum/Presale.sol\":5423:5455  presaleStatus.totalBaseCollected */\n      sload\n        /* \"Ethereum/Presale.sol\":5392:5420  saleInfor.amountTokenForSale */\n      sload(0x1a)\n        /* \"Ethereum/Presale.sol\":5283:5355  uint256 remainingByUser = saleInfor.maxSpendPerBuyer - buyer.baseDeposit */\n      swap2\n      swap3\n      pop\n        /* \"Ethereum/Presale.sol\":5366:5389  uint256 remainingByPool */\n      0x00\n      swap2\n        /* \"Ethereum/Presale.sol\":5392:5455  saleInfor.amountTokenForSale - presaleStatus.totalBaseCollected */\n      tag_313\n      swap2\n        /* \"Ethereum/Presale.sol\":5423:5455  presaleStatus.totalBaseCollected */\n      swap1\n        /* \"Ethereum/Presale.sol\":5392:5455  saleInfor.amountTokenForSale - presaleStatus.totalBaseCollected */\n      tag_189\n      jump\t// in\n    tag_313:\n        /* \"Ethereum/Presale.sol\":5366:5455  uint256 remainingByPool = saleInfor.amountTokenForSale - presaleStatus.totalBaseCollected */\n      swap1\n      pop\n        /* \"Ethereum/Presale.sol\":5466:5483  uint256 allowance */\n      0x00\n        /* \"Ethereum/Presale.sol\":5504:5519  remainingByPool */\n      dup2\n        /* \"Ethereum/Presale.sol\":5486:5501  remainingByUser */\n      dup4\n        /* \"Ethereum/Presale.sol\":5486:5519  remainingByUser > remainingByPool */\n      gt\n        /* \"Ethereum/Presale.sol\":5486:5555  remainingByUser > remainingByPool ? remainingByPool : remainingByUser */\n      tag_314\n      jumpi\n        /* \"Ethereum/Presale.sol\":5540:5555  remainingByUser */\n      dup3\n        /* \"Ethereum/Presale.sol\":5486:5555  remainingByUser > remainingByPool ? remainingByPool : remainingByUser */\n      jump(tag_315)\n    tag_314:\n        /* \"Ethereum/Presale.sol\":5522:5537  remainingByPool */\n      dup2\n        /* \"Ethereum/Presale.sol\":5486:5555  remainingByUser > remainingByPool ? remainingByPool : remainingByUser */\n    tag_315:\n        /* \"Ethereum/Presale.sol\":5466:5555  uint256 allowance = remainingByUser > remainingByPool ? remainingByPool : remainingByUser */\n      swap1\n      pop\n        /* \"Ethereum/Presale.sol\":5592:5601  allowance */\n      dup1\n        /* \"Ethereum/Presale.sol\":5574:5588  real_amount_in */\n      dup7\n        /* \"Ethereum/Presale.sol\":5574:5601  real_amount_in <= allowance */\n      gt\n      iszero\n        /* \"Ethereum/Presale.sol\":5566:5621  require(real_amount_in <= allowance, \"Sale is success\") */\n      tag_316\n      jumpi\n      mload(0x40)\n      shl(0xe5, 0x461bcd)\n      dup2\n      mstore\n        /* \"#utility.yul\":11594:11596   */\n      0x20\n        /* \"Ethereum/Presale.sol\":5566:5621  require(real_amount_in <= allowance, \"Sale is success\") */\n      0x04\n      dup3\n      add\n        /* \"#utility.yul\":11576:11597   */\n      mstore\n        /* \"#utility.yul\":11633:11635   */\n      0x0f\n        /* \"#utility.yul\":11613:11631   */\n      0x24\n      dup3\n      add\n        /* \"#utility.yul\":11606:11636   */\n      mstore\n      shl(0x88, 0x53616c652069732073756363657373)\n        /* \"#utility.yul\":11652:11670   */\n      0x44\n      dup3\n      add\n        /* \"#utility.yul\":11645:11690   */\n      mstore\n        /* \"#utility.yul\":11707:11725   */\n      0x64\n      add\n        /* \"Ethereum/Presale.sol\":5566:5621  require(real_amount_in <= allowance, \"Sale is success\") */\n      tag_139\n        /* \"#utility.yul\":11566:11731   */\n      jump\n        /* \"Ethereum/Presale.sol\":5566:5621  require(real_amount_in <= allowance, \"Sale is success\") */\n    tag_316:\n        /* \"Ethereum/Presale.sol\":5632:5649  uint256 tokenSold */\n      0x00\n        /* \"Ethereum/Presale.sol\":5653:5811  real_amount_in.\r... */\n      tag_319\n        /* \"Ethereum/Presale.sol\":5778:5787  saleInfor */\n      0x0f\n        /* \"Ethereum/Presale.sol\":5778:5797  saleInfor.baseToken */\n      0x02\n      add\n      0x00\n      swap1\n      sload\n      swap1\n      0x0100\n      exp\n      swap1\n      div\n      sub(shl(0xa0, 0x01), 0x01)\n      and\n      sub(shl(0xa0, 0x01), 0x01)\n        /* \"Ethereum/Presale.sol\":5772:5807  ERC20(saleInfor.baseToken).decimals */\n      and\n      0x313ce567\n        /* \"Ethereum/Presale.sol\":5772:5809  ERC20(saleInfor.baseToken).decimals() */\n      mload(0x40)\n      dup2\n      0xffffffff\n      and\n      0xe0\n      shl\n      dup2\n      mstore\n      0x04\n      add\n      0x20\n      mload(0x40)\n      dup1\n      dup4\n      sub\n      dup2\n      dup7\n      dup1\n      extcodesize\n      iszero\n      dup1\n      iszero\n      tag_320\n      jumpi\n      0x00\n      dup1\n      revert\n    tag_320:\n      pop\n      gas\n      staticcall\n      iszero\n      dup1\n      iszero\n      tag_322\n      jumpi\n      returndatasize\n      0x00\n      dup1\n      returndatacopy\n      revert(0x00, returndatasize)\n    tag_322:\n      pop\n      pop\n      pop\n      pop\n      mload(0x40)\n      returndatasize\n      not(0x1f)\n      0x1f\n      dup3\n      add\n      and\n      dup3\n      add\n      dup1\n      0x40\n      mstore\n      pop\n      dup2\n      add\n      swap1\n      tag_323\n      swap2\n      swap1\n      tag_163\n      jump\t// in\n    tag_323:\n        /* \"Ethereum/Presale.sol\":5758:5810  10 ** uint256(ERC20(saleInfor.baseToken).decimals()) */\n      tag_324\n      swap1\n        /* \"Ethereum/Presale.sol\":5758:5760  10 */\n      0x0a\n        /* \"Ethereum/Presale.sol\":5758:5810  10 ** uint256(ERC20(saleInfor.baseToken).decimals()) */\n      tag_219\n      jump\t// in\n    tag_324:\n        /* \"Ethereum/Presale.sol\":5702:5722  saleInfor.tokenPrice */\n      sload(0x12)\n        /* \"Ethereum/Presale.sol\":5653:5723  real_amount_in.\r... */\n      tag_200\n      swap1\n        /* \"Ethereum/Presale.sol\":5653:5667  real_amount_in */\n      dup11\n      swap1\n        /* \"Ethereum/Presale.sol\":5653:5701  real_amount_in.\r... */\n      tag_202\n        /* \"Ethereum/Presale.sol\":5653:5723  real_amount_in.\r... */\n      jump\t// in\n        /* \"Ethereum/Presale.sol\":5653:5811  real_amount_in.\r... */\n    tag_319:\n        /* \"Ethereum/Presale.sol\":5632:5812  uint256 tokenSold = (real_amount_in.\r... */\n      swap1\n      pop\n        /* \"Ethereum/Presale.sol\":5861:5875  real_amount_in */\n      dup7\n        /* \"Ethereum/Presale.sol\":5840:5845  buyer */\n      dup10\n        /* \"Ethereum/Presale.sol\":5840:5857  buyer.baseDeposit */\n      0x00\n      add\n      0x00\n        /* \"Ethereum/Presale.sol\":5840:5875  buyer.baseDeposit += real_amount_in */\n      dup3\n      dup3\n      sload\n      tag_326\n      swap2\n      swap1\n      tag_206\n      jump\t// in\n    tag_326:\n      swap3\n      pop\n      pop\n      dup2\n      swap1\n      sstore\n      pop\n        /* \"Ethereum/Presale.sol\":5906:5915  tokenSold */\n      dup1\n        /* \"Ethereum/Presale.sol\":5886:5891  buyer */\n      dup10\n        /* \"Ethereum/Presale.sol\":5886:5902  buyer.tokenOwner */\n      0x01\n      add\n      0x00\n        /* \"Ethereum/Presale.sol\":5886:5915  buyer.tokenOwner += tokenSold */\n      dup3\n      dup3\n      sload\n      tag_327\n      swap2\n      swap1\n      tag_206\n      jump\t// in\n    tag_327:\n      swap1\n      swap2\n      sstore\n      pop\n      pop\n        /* \"Ethereum/Presale.sol\":5926:5939  presaleStatus */\n      0x04\n        /* \"Ethereum/Presale.sol\":5926:5976  presaleStatus.totalBaseCollected += real_amount_in */\n      dup1\n      sload\n        /* \"Ethereum/Presale.sol\":5962:5976  real_amount_in */\n      dup9\n      swap2\n        /* \"Ethereum/Presale.sol\":5926:5939  presaleStatus */\n      swap1\n        /* \"Ethereum/Presale.sol\":5926:5958  presaleStatus.totalBaseCollected */\n      0x00\n      swap1\n        /* \"Ethereum/Presale.sol\":5926:5976  presaleStatus.totalBaseCollected += real_amount_in */\n      tag_328\n      swap1\n        /* \"Ethereum/Presale.sol\":5962:5976  real_amount_in */\n      dup5\n      swap1\n        /* \"Ethereum/Presale.sol\":5926:5976  presaleStatus.totalBaseCollected += real_amount_in */\n      tag_206\n      jump\t// in\n    tag_328:\n      swap1\n      swap2\n      sstore\n      pop\n      pop\n        /* \"Ethereum/Presale.sol\":5987:6015  presaleStatus.totalTokenSold */\n      0x05\n        /* \"Ethereum/Presale.sol\":5987:6028  presaleStatus.totalTokenSold += tokenSold */\n      dup1\n      sload\n        /* \"Ethereum/Presale.sol\":6019:6028  tokenSold */\n      dup3\n      swap2\n        /* \"Ethereum/Presale.sol\":5987:6015  presaleStatus.totalTokenSold */\n      swap1\n      0x00\n      swap1\n        /* \"Ethereum/Presale.sol\":5987:6028  presaleStatus.totalTokenSold += tokenSold */\n      tag_329\n      swap1\n        /* \"Ethereum/Presale.sol\":6019:6028  tokenSold */\n      dup5\n      swap1\n        /* \"Ethereum/Presale.sol\":5987:6028  presaleStatus.totalTokenSold += tokenSold */\n      tag_206\n      jump\t// in\n    tag_329:\n      swap1\n      swap2\n      sstore\n      pop\n      pop\n        /* \"Ethereum/Presale.sol\":6039:6064  presaleStatus.numberBuyer */\n      0x0a\n        /* \"Ethereum/Presale.sol\":6039:6066  presaleStatus.numberBuyer++ */\n      dup1\n      sload\n      swap1\n        /* \"Ethereum/Presale.sol\":6039:6064  presaleStatus.numberBuyer */\n      0x00\n        /* \"Ethereum/Presale.sol\":6039:6066  presaleStatus.numberBuyer++ */\n      tag_330\n      dup4\n      tag_331\n      jump\t// in\n    tag_330:\n      swap1\n      swap2\n      sstore\n      pop\n      pop\n        /* \"Ethereum/Presale.sol\":6085:6095  msg.sender */\n      caller\n        /* \"Ethereum/Presale.sol\":6077:6096  userFee[msg.sender] */\n      0x00\n      swap1\n      dup2\n      mstore\n        /* \"Ethereum/Presale.sol\":6077:6084  userFee */\n      0x03\n        /* \"Ethereum/Presale.sol\":6077:6096  userFee[msg.sender] */\n      0x20\n      mstore\n      0x40\n      dup2\n      keccak256\n        /* \"Ethereum/Presale.sol\":6077:6103  userFee[msg.sender] += fee */\n      dup1\n      sload\n        /* \"Ethereum/Presale.sol\":6100:6103  fee */\n      dup9\n      swap3\n        /* \"Ethereum/Presale.sol\":6077:6096  userFee[msg.sender] */\n      swap1\n        /* \"Ethereum/Presale.sol\":6077:6103  userFee[msg.sender] += fee */\n      tag_332\n      swap1\n        /* \"Ethereum/Presale.sol\":6100:6103  fee */\n      dup5\n      swap1\n        /* \"Ethereum/Presale.sol\":6077:6103  userFee[msg.sender] += fee */\n      tag_206\n      jump\t// in\n    tag_332:\n      swap3\n      pop\n      pop\n      dup2\n      swap1\n      sstore\n      pop\n        /* \"Ethereum/Presale.sol\":6126:6129  fee */\n      dup6\n        /* \"Ethereum/Presale.sol\":6114:6122  totalFee */\n      0x1e\n      0x00\n        /* \"Ethereum/Presale.sol\":6114:6129  totalFee += fee */\n      dup3\n      dup3\n      sload\n      tag_333\n      swap2\n      swap1\n      tag_206\n      jump\t// in\n    tag_333:\n      swap1\n      swap2\n      sstore\n      pop\n      pop\n        /* \"Ethereum/Presale.sol\":6145:6170  saleInfor.saleIsBaseToken */\n      and(0xff, sload(0x19))\n        /* \"Ethereum/Presale.sol\":6145:6207  saleInfor.saleIsBaseToken && real_amount_in + fee <= msg.value */\n      dup1\n      iszero\n      tag_334\n      jumpi\n      pop\n        /* \"Ethereum/Presale.sol\":6198:6207  msg.value */\n      callvalue\n        /* \"Ethereum/Presale.sol\":6174:6194  real_amount_in + fee */\n      tag_335\n        /* \"Ethereum/Presale.sol\":6191:6194  fee */\n      dup8\n        /* \"Ethereum/Presale.sol\":6174:6188  real_amount_in */\n      dup10\n        /* \"Ethereum/Presale.sol\":6174:6194  real_amount_in + fee */\n      tag_206\n      jump\t// in\n    tag_335:\n        /* \"Ethereum/Presale.sol\":6174:6207  real_amount_in + fee <= msg.value */\n      gt\n      iszero\n        /* \"Ethereum/Presale.sol\":6145:6207  saleInfor.saleIsBaseToken && real_amount_in + fee <= msg.value */\n    tag_334:\n        /* \"Ethereum/Presale.sol\":6142:6298  if(saleInfor.saleIsBaseToken && real_amount_in + fee <= msg.value) {\r... */\n      iszero\n      tag_336\n      jumpi\n        /* \"Ethereum/Presale.sol\":6232:6242  msg.sender */\n      caller\n        /* \"Ethereum/Presale.sol\":6224:6286  payable(msg.sender).transfer(msg.value - real_amount_in - fee) */\n      0x08fc\n        /* \"Ethereum/Presale.sol\":6282:6285  fee */\n      dup8\n        /* \"Ethereum/Presale.sol\":6253:6279  msg.value - real_amount_in */\n      tag_337\n        /* \"Ethereum/Presale.sol\":6265:6279  real_amount_in */\n      dup11\n        /* \"Ethereum/Presale.sol\":6253:6262  msg.value */\n      callvalue\n        /* \"Ethereum/Presale.sol\":6253:6279  msg.value - real_amount_in */\n      tag_189\n      jump\t// in\n    tag_337:\n        /* \"Ethereum/Presale.sol\":6253:6285  msg.value - real_amount_in - fee */\n      tag_338\n      swap2\n      swap1\n      tag_189\n      jump\t// in\n    tag_338:\n        /* \"Ethereum/Presale.sol\":6224:6286  payable(msg.sender).transfer(msg.value - real_amount_in - fee) */\n      mload(0x40)\n      dup2\n      iszero\n      swap1\n      swap3\n      mul\n      swap2\n      0x00\n      dup2\n      dup2\n      dup2\n      dup6\n      dup9\n      dup9\n      call\n      swap4\n      pop\n      pop\n      pop\n      pop\n      iszero\n      dup1\n      iszero\n      tag_340\n      jumpi\n      returndatasize\n      0x00\n      dup1\n      returndatacopy\n      revert(0x00, returndatasize)\n    tag_340:\n      pop\n        /* \"Ethereum/Presale.sol\":6142:6298  if(saleInfor.saleIsBaseToken && real_amount_in + fee <= msg.value) {\r... */\n    tag_336:\n        /* \"Ethereum/Presale.sol\":6313:6338  saleInfor.saleIsBaseToken */\n      and(0xff, sload(0x19))\n        /* \"Ethereum/Presale.sol\":6309:6560  if(!saleInfor.saleIsBaseToken) {\r... */\n      tag_342\n      jumpi\n        /* \"Ethereum/Presale.sol\":6413:6432  saleInfor.baseToken */\n      sload(0x11)\n        /* \"Ethereum/Presale.sol\":6355:6548  TransferHelper.safeTransferFrom(\r... */\n      tag_342\n      swap1\n      sub(shl(0xa0, 0x01), 0x01)\n        /* \"Ethereum/Presale.sol\":6413:6432  saleInfor.baseToken */\n      and\n        /* \"Ethereum/Presale.sol\":6452:6462  msg.sender */\n      caller\n        /* \"Ethereum/Presale.sol\":6489:6493  this */\n      address\n        /* \"Ethereum/Presale.sol\":6513:6533  real_amount_in + fee */\n      tag_343\n        /* \"Ethereum/Presale.sol\":6530:6533  fee */\n      dup11\n        /* \"Ethereum/Presale.sol\":6513:6527  real_amount_in */\n      dup13\n        /* \"Ethereum/Presale.sol\":6513:6533  real_amount_in + fee */\n      tag_206\n      jump\t// in\n    tag_343:\n        /* \"Ethereum/Presale.sol\":6355:6386  TransferHelper.safeTransferFrom */\n      tag_344\n        /* \"Ethereum/Presale.sol\":6355:6548  TransferHelper.safeTransferFrom(\r... */\n      jump\t// in\n    tag_342:\n      pop\n      pop\n        /* \"Utils/ReentrancyGuard.sol\":1734:1735  1 */\n      0x01\n        /* \"Utils/ReentrancyGuard.sol\":2688:2695  _status */\n      0x00\n        /* \"Utils/ReentrancyGuard.sol\":2688:2710  _status = _NOT_ENTERED */\n      sstore\n      pop\n      pop\n      pop\n      pop\n      pop\n      pop\n      pop\n      pop\n        /* \"Ethereum/Presale.sol\":4367:6579  function deposit(uint256 _amount) external payable nonReentrant {\r... */\n      jump\t// out\n        /* \"Ethereum/Presale.sol\":4249:4359  function checkAdminAddress() public view returns(bool) {\r... */\n    tag_101:\n        /* \"Ethereum/Presale.sol\":4298:4302  bool */\n      0x00\n        /* \"Ethereum/Presale.sol\":4322:4351  admins.contains(_msgSender()) */\n      tag_346\n        /* \"Ethereum/Presale.sol\":4322:4328  admins */\n      0x1c\n        /* \"Utils/Context.sol\":736:746  msg.sender */\n      caller\n        /* \"Ethereum/Presale.sol\":4322:4337  admins.contains */\n      tag_348\n        /* \"Ethereum/Presale.sol\":4322:4351  admins.contains(_msgSender()) */\n      jump\t// in\n    tag_346:\n        /* \"Ethereum/Presale.sol\":4315:4351  return admins.contains(_msgSender()) */\n      swap1\n      pop\n        /* \"Ethereum/Presale.sol\":4249:4359  function checkAdminAddress() public view returns(bool) {\r... */\n      swap1\n      jump\t// out\n        /* \"Ethereum/Presale.sol\":9828:11401  function userClaimOrRefundWhenSaleSuccess(bool isClaim) external {\r... */\n    tag_118:\n        /* \"Ethereum/Presale.sol\":9968:9975  isClaim */\n      dup1\n        /* \"Ethereum/Presale.sol\":9965:11394  if(isClaim){\r... */\n      iszero\n      tag_350\n      jumpi\n        /* \"Ethereum/Presale.sol\":10030:10062  presaleStatus.totalTokenWithDraw */\n      sload(0x06)\n        /* \"Ethereum/Presale.sol\":9999:10027  presaleStatus.totalTokenSold */\n      sload(0x05)\n        /* \"Ethereum/Presale.sol\":10065:10066  0 */\n      0x00\n      swap2\n        /* \"Ethereum/Presale.sol\":9999:10062  presaleStatus.totalTokenSold - presaleStatus.totalTokenWithDraw */\n      tag_351\n      swap2\n      tag_189\n      jump\t// in\n    tag_351:\n        /* \"Ethereum/Presale.sol\":9999:10066  presaleStatus.totalTokenSold - presaleStatus.totalTokenWithDraw > 0 */\n      gt\n        /* \"Ethereum/Presale.sol\":9991:10130  require(presaleStatus.totalTokenSold - presaleStatus.totalTokenWithDraw > 0, \r... */\n      tag_352\n      jumpi\n      mload(0x40)\n      shl(0xe5, 0x461bcd)\n      dup2\n      mstore\n      0x04\n      add\n      tag_139\n      swap1\n      tag_192\n      jump\t// in\n    tag_352:\n        /* \"Ethereum/Presale.sol\":10181:10191  msg.sender */\n      caller\n        /* \"Ethereum/Presale.sol\":10145:10168  BuyerInfo storage buyer */\n      0x00\n        /* \"Ethereum/Presale.sol\":10171:10192  buyerInfo[msg.sender] */\n      swap1\n      dup2\n      mstore\n        /* \"Ethereum/Presale.sol\":10171:10180  buyerInfo */\n      0x02\n        /* \"Ethereum/Presale.sol\":10171:10192  buyerInfo[msg.sender] */\n      0x20\n      mstore\n      0x40\n      swap1\n      keccak256\n        /* \"Ethereum/Presale.sol\":10234:10258  buyer.totalTokenWithDraw */\n      0x03\n      dup2\n      add\n      sload\n        /* \"Ethereum/Presale.sol\":10215:10231  buyer.tokenOwner */\n      0x01\n      dup3\n      add\n      sload\n        /* \"Ethereum/Presale.sol\":10215:10258  buyer.tokenOwner > buyer.totalTokenWithDraw */\n      gt\n        /* \"Ethereum/Presale.sol\":10207:10299  require(buyer.tokenOwner > buyer.totalTokenWithDraw, \"You claim all or have not bought yet\") */\n      tag_354\n      jumpi\n      mload(0x40)\n      shl(0xe5, 0x461bcd)\n      dup2\n      mstore\n        /* \"#utility.yul\":8670:8672   */\n      0x20\n        /* \"Ethereum/Presale.sol\":10207:10299  require(buyer.tokenOwner > buyer.totalTokenWithDraw, \"You claim all or have not bought yet\") */\n      0x04\n      dup3\n      add\n        /* \"#utility.yul\":8652:8673   */\n      mstore\n        /* \"#utility.yul\":8709:8711   */\n      0x24\n        /* \"#utility.yul\":8689:8707   */\n      dup1\n      dup3\n      add\n        /* \"#utility.yul\":8682:8712   */\n      mstore\n        /* \"#utility.yul\":8748:8782   */\n      0x596f7520636c61696d20616c6c206f722068617665206e6f7420626f75676874\n        /* \"#utility.yul\":8728:8746   */\n      0x44\n      dup3\n      add\n        /* \"#utility.yul\":8721:8783   */\n      mstore\n      shl(0xe2, 0x081e595d)\n        /* \"#utility.yul\":8799:8817   */\n      0x64\n      dup3\n      add\n        /* \"#utility.yul\":8792:8826   */\n      mstore\n        /* \"#utility.yul\":8843:8862   */\n      0x84\n      add\n        /* \"Ethereum/Presale.sol\":10207:10299  require(buyer.tokenOwner > buyer.totalTokenWithDraw, \"You claim all or have not bought yet\") */\n      tag_139\n        /* \"#utility.yul\":8642:8868   */\n      jump\n        /* \"Ethereum/Presale.sol\":10207:10299  require(buyer.tokenOwner > buyer.totalTokenWithDraw, \"You claim all or have not bought yet\") */\n    tag_354:\n        /* \"Ethereum/Presale.sol\":10320:10339  saleInfor.saleToken */\n      sload(0x10)\n      0x01\n        /* \"Ethereum/Presale.sol\":10362:10378  buyer.tokenOwner */\n      dup3\n      add\n      sload\n        /* \"Ethereum/Presale.sol\":10314:10379  ERC20(saleInfor.saleToken).transfer(msg.sender, buyer.tokenOwner) */\n      mload(0x40)\n      shl(0xe0, 0xa9059cbb)\n      dup2\n      mstore\n        /* \"Ethereum/Presale.sol\":10350:10360  msg.sender */\n      caller\n        /* \"Ethereum/Presale.sol\":10314:10379  ERC20(saleInfor.saleToken).transfer(msg.sender, buyer.tokenOwner) */\n      0x04\n      dup3\n      add\n        /* \"#utility.yul\":4369:4420   */\n      mstore\n        /* \"#utility.yul\":4436:4454   */\n      0x24\n      dup2\n      add\n        /* \"#utility.yul\":4429:4463   */\n      swap2\n      swap1\n      swap2\n      mstore\n      sub(shl(0xa0, 0x01), 0x01)\n        /* \"Ethereum/Presale.sol\":10320:10339  saleInfor.saleToken */\n      swap1\n      swap2\n      and\n      swap1\n        /* \"Ethereum/Presale.sol\":10314:10349  ERC20(saleInfor.saleToken).transfer */\n      0xa9059cbb\n      swap1\n        /* \"#utility.yul\":4342:4360   */\n      0x44\n      add\n        /* \"Ethereum/Presale.sol\":10314:10379  ERC20(saleInfor.saleToken).transfer(msg.sender, buyer.tokenOwner) */\n      0x20\n      mload(0x40)\n      dup1\n      dup4\n      sub\n      dup2\n      0x00\n      dup8\n      dup1\n      extcodesize\n      iszero\n      dup1\n      iszero\n      tag_358\n      jumpi\n      0x00\n      dup1\n      revert\n    tag_358:\n      pop\n      gas\n      call\n      iszero\n      dup1\n      iszero\n      tag_360\n      jumpi\n      returndatasize\n      0x00\n      dup1\n      returndatacopy\n      revert(0x00, returndatasize)\n    tag_360:\n      pop\n      pop\n      pop\n      pop\n      mload(0x40)\n      returndatasize\n      not(0x1f)\n      0x1f\n      dup3\n      add\n      and\n      dup3\n      add\n      dup1\n      0x40\n      mstore\n      pop\n      dup2\n      add\n      swap1\n      tag_361\n      swap2\n      swap1\n      tag_181\n      jump\t// in\n    tag_361:\n      pop\n        /* \"Ethereum/Presale.sol\":10430:10446  buyer.tokenOwner */\n      0x01\n      dup2\n      add\n      sload\n        /* \"Ethereum/Presale.sol\":10394:10426  presaleStatus.totalTokenWithDraw */\n      0x06\n        /* \"Ethereum/Presale.sol\":10394:10446  presaleStatus.totalTokenWithDraw += buyer.tokenOwner */\n      dup1\n      sload\n        /* \"Ethereum/Presale.sol\":10394:10426  presaleStatus.totalTokenWithDraw */\n      0x00\n      swap1\n        /* \"Ethereum/Presale.sol\":10394:10446  presaleStatus.totalTokenWithDraw += buyer.tokenOwner */\n      tag_362\n      swap1\n        /* \"Ethereum/Presale.sol\":10430:10446  buyer.tokenOwner */\n      dup5\n      swap1\n        /* \"Ethereum/Presale.sol\":10394:10446  presaleStatus.totalTokenWithDraw += buyer.tokenOwner */\n      tag_206\n      jump\t// in\n    tag_362:\n      swap1\n      swap2\n      sstore\n      pop\n      pop\n        /* \"Ethereum/Presale.sol\":10493:10509  buyer.tokenOwner */\n      0x01\n      dup2\n      add\n      sload\n        /* \"Ethereum/Presale.sol\":10461:10489  saleInfor.amountTokenForSale */\n      0x1a\n        /* \"Ethereum/Presale.sol\":10461:10509  saleInfor.amountTokenForSale -= buyer.tokenOwner */\n      dup1\n      sload\n        /* \"Ethereum/Presale.sol\":10461:10489  saleInfor.amountTokenForSale */\n      0x00\n      swap1\n        /* \"Ethereum/Presale.sol\":10461:10509  saleInfor.amountTokenForSale -= buyer.tokenOwner */\n      tag_363\n      swap1\n        /* \"Ethereum/Presale.sol\":10493:10509  buyer.tokenOwner */\n      dup5\n      swap1\n        /* \"Ethereum/Presale.sol\":10461:10509  saleInfor.amountTokenForSale -= buyer.tokenOwner */\n      tag_189\n      jump\t// in\n    tag_363:\n      swap1\n      swap2\n      sstore\n      pop\n      pop\n        /* \"Ethereum/Presale.sol\":10552:10568  buyer.tokenOwner */\n      0x01\n      dup2\n      add\n      sload\n        /* \"Ethereum/Presale.sol\":10524:10548  buyer.totalTokenWithDraw */\n      0x03\n      dup3\n      add\n        /* \"Ethereum/Presale.sol\":10524:10568  buyer.totalTokenWithDraw += buyer.tokenOwner */\n      dup1\n      sload\n        /* \"Ethereum/Presale.sol\":10524:10548  buyer.totalTokenWithDraw */\n      0x00\n      swap1\n        /* \"Ethereum/Presale.sol\":10524:10568  buyer.totalTokenWithDraw += buyer.tokenOwner */\n      tag_364\n      swap1\n        /* \"Ethereum/Presale.sol\":10552:10568  buyer.tokenOwner */\n      dup5\n      swap1\n        /* \"Ethereum/Presale.sol\":10524:10568  buyer.totalTokenWithDraw += buyer.tokenOwner */\n      tag_206\n      jump\t// in\n    tag_364:\n      swap1\n      swap2\n      sstore\n      pop\n      pop\n        /* \"Ethereum/Presale.sol\":10603:10604  0 */\n      0x00\n        /* \"Ethereum/Presale.sol\":10583:10604  buyer.baseDeposit = 0 */\n      dup1\n      dup3\n      sstore\n        /* \"Ethereum/Presale.sol\":10619:10635  buyer.tokenOwner */\n      0x01\n      dup3\n      add\n        /* \"Ethereum/Presale.sol\":10619:10639  buyer.tokenOwner = 0 */\n      sstore\n        /* \"Ethereum/Presale.sol\":10675:10690  block.timestamp */\n      timestamp\n        /* \"Ethereum/Presale.sol\":10654:10672  buyer.lastWithDraw */\n      0x02\n      swap1\n      swap2\n      add\n        /* \"Ethereum/Presale.sol\":10654:10690  buyer.lastWithDraw = block.timestamp */\n      sstore\n        /* \"Ethereum/Presale.sol\":11580:11631  payable(msg.sender).transfer(address(this).balance) */\n      pop\n        /* \"Ethereum/Presale.sol\":11531:11639  function backToken() external payable {\r... */\n      jump\t// out\n        /* \"Ethereum/Presale.sol\":9965:11394  if(isClaim){\r... */\n    tag_350:\n        /* \"Ethereum/Presale.sol\":10778:10809  presaleStatus.totalBaseWithDraw */\n      sload(0x07)\n        /* \"Ethereum/Presale.sol\":10778:10791  presaleStatus */\n      0x04\n        /* \"Ethereum/Presale.sol\":10743:10775  presaleStatus.totalBaseCollected */\n      sload\n        /* \"Ethereum/Presale.sol\":10812:10813  0 */\n      0x00\n      swap2\n        /* \"Ethereum/Presale.sol\":10743:10809  presaleStatus.totalBaseCollected - presaleStatus.totalBaseWithDraw */\n      tag_366\n      swap2\n      tag_189\n      jump\t// in\n    tag_366:\n        /* \"Ethereum/Presale.sol\":10743:10813  presaleStatus.totalBaseCollected - presaleStatus.totalBaseWithDraw > 0 */\n      gt\n        /* \"Ethereum/Presale.sol\":10735:10877  require(presaleStatus.totalBaseCollected - presaleStatus.totalBaseWithDraw > 0, \r... */\n      tag_367\n      jumpi\n      mload(0x40)\n      shl(0xe5, 0x461bcd)\n      dup2\n      mstore\n      0x04\n      add\n      tag_139\n      swap1\n      tag_192\n      jump\t// in\n    tag_367:\n        /* \"Ethereum/Presale.sol\":10929:10939  msg.sender */\n      caller\n        /* \"Ethereum/Presale.sol\":10893:10916  BuyerInfo storage buyer */\n      0x00\n        /* \"Ethereum/Presale.sol\":10919:10940  buyerInfo[msg.sender] */\n      swap1\n      dup2\n      mstore\n        /* \"Ethereum/Presale.sol\":10919:10928  buyerInfo */\n      0x02\n        /* \"Ethereum/Presale.sol\":10919:10940  buyerInfo[msg.sender] */\n      0x20\n      mstore\n      0x40\n      swap1\n      keccak256\n        /* \"Ethereum/Presale.sol\":10963:10980  buyer.baseDeposit */\n      dup1\n      sload\n        /* \"Ethereum/Presale.sol\":10955:11026  require(buyer.baseDeposit > 0, \"You refund all or have not bought yet\") */\n      tag_369\n      jumpi\n      mload(0x40)\n      shl(0xe5, 0x461bcd)\n      dup2\n      mstore\n        /* \"#utility.yul\":7921:7923   */\n      0x20\n        /* \"Ethereum/Presale.sol\":10955:11026  require(buyer.baseDeposit > 0, \"You refund all or have not bought yet\") */\n      0x04\n      dup3\n      add\n        /* \"#utility.yul\":7903:7924   */\n      mstore\n        /* \"#utility.yul\":7960:7962   */\n      0x25\n        /* \"#utility.yul\":7940:7958   */\n      0x24\n      dup3\n      add\n        /* \"#utility.yul\":7933:7963   */\n      mstore\n        /* \"#utility.yul\":7999:8033   */\n      0x596f7520726566756e6420616c6c206f722068617665206e6f7420626f756768\n        /* \"#utility.yul\":7979:7997   */\n      0x44\n      dup3\n      add\n        /* \"#utility.yul\":7972:8034   */\n      mstore\n      shl(0xda, 0x1d081e595d)\n        /* \"#utility.yul\":8050:8068   */\n      0x64\n      dup3\n      add\n        /* \"#utility.yul\":8043:8078   */\n      mstore\n        /* \"#utility.yul\":8095:8114   */\n      0x84\n      add\n        /* \"Ethereum/Presale.sol\":10955:11026  require(buyer.baseDeposit > 0, \"You refund all or have not bought yet\") */\n      tag_139\n        /* \"#utility.yul\":7893:8120   */\n      jump\n        /* \"Ethereum/Presale.sol\":10955:11026  require(buyer.baseDeposit > 0, \"You refund all or have not bought yet\") */\n    tag_369:\n        /* \"Ethereum/Presale.sol\":11064:11081  buyer.baseDeposit */\n      dup1\n      sload\n        /* \"Ethereum/Presale.sol\":11108:11140  buyer.baseDeposit - amountRefund */\n      tag_372\n        /* \"Ethereum/Presale.sol\":11064:11081  buyer.baseDeposit */\n      dup2\n      dup1\n        /* \"Ethereum/Presale.sol\":11108:11140  buyer.baseDeposit - amountRefund */\n      tag_189\n      jump\t// in\n    tag_372:\n        /* \"Ethereum/Presale.sol\":11096:11104  totalFee */\n      0x1e\n      0x00\n        /* \"Ethereum/Presale.sol\":11096:11140  totalFee += buyer.baseDeposit - amountRefund */\n      dup3\n      dup3\n      sload\n      tag_373\n      swap2\n      swap1\n      tag_206\n      jump\t// in\n    tag_373:\n      swap1\n      swap2\n      sstore\n      pop\n      pop\n        /* \"Ethereum/Presale.sol\":11155:11186  presaleStatus.totalBaseWithDraw */\n      0x07\n        /* \"Ethereum/Presale.sol\":11155:11202  presaleStatus.totalBaseWithDraw += amountRefund */\n      dup1\n      sload\n        /* \"Ethereum/Presale.sol\":11190:11202  amountRefund */\n      dup3\n      swap2\n        /* \"Ethereum/Presale.sol\":11155:11186  presaleStatus.totalBaseWithDraw */\n      swap1\n      0x00\n      swap1\n        /* \"Ethereum/Presale.sol\":11155:11202  presaleStatus.totalBaseWithDraw += amountRefund */\n      tag_374\n      swap1\n        /* \"Ethereum/Presale.sol\":11190:11202  amountRefund */\n      dup5\n      swap1\n        /* \"Ethereum/Presale.sol\":11155:11202  presaleStatus.totalBaseWithDraw += amountRefund */\n      tag_206\n      jump\t// in\n    tag_374:\n      swap1\n      swap2\n      sstore\n      pop\n      pop\n        /* \"Ethereum/Presale.sol\":11238:11239  0 */\n      0x00\n        /* \"Ethereum/Presale.sol\":11217:11239  buyer.baseDeposit  = 0 */\n      dup1\n      dup4\n      sstore\n        /* \"Ethereum/Presale.sol\":11254:11270  buyer.tokenOwner */\n      0x01\n      dup4\n      add\n        /* \"Ethereum/Presale.sol\":11254:11274  buyer.tokenOwner = 0 */\n      dup2\n      swap1\n      sstore\n        /* \"Ethereum/Presale.sol\":11310:11325  block.timestamp */\n      timestamp\n        /* \"Ethereum/Presale.sol\":11289:11307  buyer.lastWithDraw */\n      0x02\n      dup5\n      add\n        /* \"Ethereum/Presale.sol\":11289:11325  buyer.lastWithDraw = block.timestamp */\n      sstore\n        /* \"Ethereum/Presale.sol\":11340:11382  payable(msg.sender).transfer(amountRefund) */\n      mload(0x40)\n        /* \"Ethereum/Presale.sol\":11348:11358  msg.sender */\n      caller\n      swap2\n        /* \"Ethereum/Presale.sol\":11340:11382  payable(msg.sender).transfer(amountRefund) */\n      dup4\n      iszero\n      0x08fc\n      mul\n      swap2\n        /* \"Ethereum/Presale.sol\":11369:11381  amountRefund */\n      dup5\n      swap2\n        /* \"Ethereum/Presale.sol\":11340:11382  payable(msg.sender).transfer(amountRefund) */\n      dup2\n        /* \"Ethereum/Presale.sol\":11238:11239  0 */\n      dup2\n        /* \"Ethereum/Presale.sol\":11340:11382  payable(msg.sender).transfer(amountRefund) */\n      dup2\n        /* \"Ethereum/Presale.sol\":11369:11381  amountRefund */\n      dup6\n        /* \"Ethereum/Presale.sol\":11348:11358  msg.sender */\n      dup9\n        /* \"Ethereum/Presale.sol\":11340:11382  payable(msg.sender).transfer(amountRefund) */\n      dup9\n      call\n      swap4\n      pop\n      pop\n      pop\n      pop\n      iszero\n      dup1\n      iszero\n      tag_376\n      jumpi\n      returndatasize\n      0x00\n      dup1\n      returndatacopy\n      revert(0x00, returndatasize)\n    tag_376:\n      pop\n        /* \"Ethereum/Presale.sol\":10720:11394  {\r... */\n      pop\n      pop\n        /* \"Ethereum/Presale.sol\":9828:11401  function userClaimOrRefundWhenSaleSuccess(bool isClaim) external {\r... */\n      pop\n      jump\t// out\n        /* \"Utils/Ownable.sol\":1972:2173  function transferOwnership(address newOwner) public virtual onlyOwner {\r... */\n    tag_122:\n        /* \"Utils/Ownable.sol\":1136:1142  _owner */\n      and(sub(shl(0xa0, 0x01), 0x01), sload(0x01))\n        /* \"Utils/Context.sol\":736:746  msg.sender */\n      caller\n        /* \"Utils/Ownable.sol\":1283:1306  owner() == _msgSender() */\n      eq\n        /* \"Utils/Ownable.sol\":1275:1343  require(owner() == _msgSender(), \"Ownable: caller is not the owner\") */\n      tag_380\n      jumpi\n      mload(0x40)\n      shl(0xe5, 0x461bcd)\n      dup2\n      mstore\n        /* \"#utility.yul\":9767:9769   */\n      0x20\n        /* \"Utils/Ownable.sol\":1275:1343  require(owner() == _msgSender(), \"Ownable: caller is not the owner\") */\n      0x04\n      dup3\n      add\n        /* \"#utility.yul\":9749:9770   */\n      dup2\n      swap1\n      mstore\n        /* \"#utility.yul\":9786:9804   */\n      0x24\n      dup3\n      add\n        /* \"#utility.yul\":9779:9809   */\n      mstore\n        /* \"#utility.yul\":9845:9879   */\n      0x4f776e61626c653a2063616c6c6572206973206e6f7420746865206f776e6572\n        /* \"#utility.yul\":9825:9843   */\n      0x44\n      dup3\n      add\n        /* \"#utility.yul\":9818:9880   */\n      mstore\n        /* \"#utility.yul\":9897:9915   */\n      0x64\n      add\n        /* \"Utils/Ownable.sol\":1275:1343  require(owner() == _msgSender(), \"Ownable: caller is not the owner\") */\n      tag_139\n        /* \"#utility.yul\":9739:9921   */\n      jump\n        /* \"Utils/Ownable.sol\":1275:1343  require(owner() == _msgSender(), \"Ownable: caller is not the owner\") */\n    tag_380:\n      sub(shl(0xa0, 0x01), 0x01)\n        /* \"Utils/Ownable.sol\":2061:2083  newOwner != address(0) */\n      dup2\n      and\n        /* \"Utils/Ownable.sol\":2053:2126  require(newOwner != address(0), \"Ownable: new owner is the zero address\") */\n      tag_383\n      jumpi\n      mload(0x40)\n      shl(0xe5, 0x461bcd)\n      dup2\n      mstore\n        /* \"#utility.yul\":6812:6814   */\n      0x20\n        /* \"Utils/Ownable.sol\":2053:2126  require(newOwner != address(0), \"Ownable: new owner is the zero address\") */\n      0x04\n      dup3\n      add\n        /* \"#utility.yul\":6794:6815   */\n      mstore\n        /* \"#utility.yul\":6851:6853   */\n      0x26\n        /* \"#utility.yul\":6831:6849   */\n      0x24\n      dup3\n      add\n        /* \"#utility.yul\":6824:6854   */\n      mstore\n        /* \"#utility.yul\":6890:6924   */\n      0x4f776e61626c653a206e6577206f776e657220697320746865207a65726f2061\n        /* \"#utility.yul\":6870:6888   */\n      0x44\n      dup3\n      add\n        /* \"#utility.yul\":6863:6925   */\n      mstore\n      shl(0xd0, 0x646472657373)\n        /* \"#utility.yul\":6941:6959   */\n      0x64\n      dup3\n      add\n        /* \"#utility.yul\":6934:6970   */\n      mstore\n        /* \"#utility.yul\":6987:7006   */\n      0x84\n      add\n        /* \"Utils/Ownable.sol\":2053:2126  require(newOwner != address(0), \"Ownable: new owner is the zero address\") */\n      tag_139\n        /* \"#utility.yul\":6784:7012   */\n      jump\n        /* \"Utils/Ownable.sol\":2053:2126  require(newOwner != address(0), \"Ownable: new owner is the zero address\") */\n    tag_383:\n        /* \"Utils/Ownable.sol\":2137:2165  _transferOwnership(newOwner) */\n      tag_146\n        /* \"Utils/Ownable.sol\":2156:2164  newOwner */\n      dup2\n        /* \"Utils/Ownable.sol\":2137:2155  _transferOwnership */\n      tag_143\n        /* \"Utils/Ownable.sol\":2137:2165  _transferOwnership(newOwner) */\n      jump\t// in\n        /* \"Utils/EnumerableSet.sol\":8259:8411  function add(AddressSet storage set, address value) internal returns (bool) {\r... */\n    tag_128:\n        /* \"Utils/EnumerableSet.sol\":8329:8333  bool */\n      0x00\n        /* \"Utils/EnumerableSet.sol\":8353:8403  _add(set._inner, bytes32(uint256(uint160(value)))) */\n      tag_389\n        /* \"Utils/EnumerableSet.sol\":8358:8361  set */\n      dup4\n      sub(shl(0xa0, 0x01), 0x01)\n        /* \"Utils/EnumerableSet.sol\":8378:8401  uint256(uint160(value)) */\n      dup5\n      and\n        /* \"Utils/EnumerableSet.sol\":8353:8357  _add */\n      tag_390\n        /* \"Utils/EnumerableSet.sol\":8353:8403  _add(set._inner, bytes32(uint256(uint160(value)))) */\n      jump\t// in\n    tag_389:\n        /* \"Utils/EnumerableSet.sol\":8346:8403  return _add(set._inner, bytes32(uint256(uint160(value)))) */\n      swap1\n      pop\n        /* \"Utils/EnumerableSet.sol\":8259:8411  function add(AddressSet storage set, address value) internal returns (bool) {\r... */\n    tag_388:\n      swap3\n      swap2\n      pop\n      pop\n      jump\t// out\n        /* \"Utils/Ownable.sol\":2333:2524  function _transferOwnership(address newOwner) internal virtual {\r... */\n    tag_143:\n        /* \"Utils/Ownable.sol\":2426:2432  _owner */\n      0x01\n      dup1\n      sload\n      sub(shl(0xa0, 0x01), 0x01)\n        /* \"Utils/Ownable.sol\":2443:2460  _owner = newOwner */\n      dup4\n      dup2\n      and\n      not(sub(shl(0xa0, 0x01), 0x01))\n      dup4\n      and\n      dup2\n      or\n      swap1\n      swap4\n      sstore\n        /* \"Utils/Ownable.sol\":2476:2516  OwnershipTransferred(oldOwner, newOwner) */\n      mload(0x40)\n        /* \"Utils/Ownable.sol\":2426:2432  _owner */\n      swap2\n      and\n      swap2\n        /* \"Utils/Ownable.sol\":2443:2460  _owner = newOwner */\n      swap1\n        /* \"Utils/Ownable.sol\":2426:2432  _owner */\n      dup3\n      swap1\n        /* \"Utils/Ownable.sol\":2476:2516  OwnershipTransferred(oldOwner, newOwner) */\n      0x8be0079c531659141344cd1fd0a4f28419497f9722a3daafe3b4186f6b6457e0\n      swap1\n        /* \"Utils/Ownable.sol\":2407:2423  address oldOwner */\n      0x00\n      swap1\n        /* \"Utils/Ownable.sol\":2476:2516  OwnershipTransferred(oldOwner, newOwner) */\n      log3\n        /* \"Utils/Ownable.sol\":2396:2524  {\r... */\n      pop\n        /* \"Utils/Ownable.sol\":2333:2524  function _transferOwnership(address newOwner) internal virtual {\r... */\n      pop\n      jump\t// out\n        /* \"Utils/SafeMath.sol\":3228:3326  function sub(uint256 a, uint256 b) internal pure returns (uint256) {\r... */\n    tag_165:\n        /* \"Utils/SafeMath.sol\":3286:3293  uint256 */\n      0x00\n        /* \"Utils/SafeMath.sol\":3313:3318  a - b */\n      tag_389\n        /* \"Utils/SafeMath.sol\":3317:3318  b */\n      dup3\n        /* \"Utils/SafeMath.sol\":3313:3314  a */\n      dup5\n        /* \"Utils/SafeMath.sol\":3313:3318  a - b */\n      tag_189\n      jump\t// in\n        /* \"Utils/SafeMath.sol\":3585:3683  function mul(uint256 a, uint256 b) internal pure returns (uint256) {\r... */\n    tag_202:\n        /* \"Utils/SafeMath.sol\":3643:3650  uint256 */\n      0x00\n        /* \"Utils/SafeMath.sol\":3670:3675  a * b */\n      tag_389\n        /* \"Utils/SafeMath.sol\":3674:3675  b */\n      dup3\n        /* \"Utils/SafeMath.sol\":3670:3671  a */\n      dup5\n        /* \"Utils/SafeMath.sol\":3670:3675  a * b */\n      tag_224\n      jump\t// in\n        /* \"Utils/SafeMath.sol\":3984:4082  function div(uint256 a, uint256 b) internal pure returns (uint256) {\r... */\n    tag_203:\n        /* \"Utils/SafeMath.sol\":4042:4049  uint256 */\n      0x00\n        /* \"Utils/SafeMath.sol\":4069:4074  a / b */\n      tag_389\n        /* \"Utils/SafeMath.sol\":4073:4074  b */\n      dup3\n        /* \"Utils/SafeMath.sol\":4069:4070  a */\n      dup5\n        /* \"Utils/SafeMath.sol\":4069:4074  a / b */\n      tag_266\n      jump\t// in\n        /* \"Utils/TransferHelper.sol\":1073:1503  function safeTransferFrom(\r... */\n    tag_344:\n        /* \"Utils/TransferHelper.sol\":1279:1330  abi.encodeWithSelector(0x23b872dd, from, to, value) */\n      0x40\n      dup1\n      mload\n      sub(shl(0xa0, 0x01), 0x01)\n        /* \"#utility.yul\":4732:4747   */\n      dup6\n      dup2\n      and\n        /* \"Utils/TransferHelper.sol\":1279:1330  abi.encodeWithSelector(0x23b872dd, from, to, value) */\n      0x24\n      dup4\n      add\n        /* \"#utility.yul\":4714:4748   */\n      mstore\n        /* \"#utility.yul\":4784:4799   */\n      dup5\n      dup2\n      and\n        /* \"#utility.yul\":4764:4782   */\n      0x44\n      dup4\n      add\n        /* \"#utility.yul\":4757:4800   */\n      mstore\n        /* \"#utility.yul\":4816:4834   */\n      0x64\n      dup1\n      dup4\n      add\n        /* \"#utility.yul\":4809:4843   */\n      dup6\n      swap1\n      mstore\n        /* \"Utils/TransferHelper.sol\":1279:1330  abi.encodeWithSelector(0x23b872dd, from, to, value) */\n      dup4\n      mload\n      dup1\n      dup5\n      sub\n      swap1\n      swap2\n      add\n      dup2\n      mstore\n        /* \"#utility.yul\":4649:4667   */\n      0x84\n      swap1\n      swap3\n      add\n        /* \"Utils/TransferHelper.sol\":1279:1330  abi.encodeWithSelector(0x23b872dd, from, to, value) */\n      dup4\n      mstore\n      0x20\n      dup3\n      add\n      dup1\n      mload\n      sub(shl(0xe0, 0x01), 0x01)\n      and\n      shl(0xe0, 0x23b872dd)\n      or\n      swap1\n      mstore\n        /* \"Utils/TransferHelper.sol\":1254:1341  token.call(\r... */\n      swap2\n      mload\n      0x00\n      swap3\n      dup4\n      swap3\n        /* \"Utils/TransferHelper.sol\":1254:1264  token.call */\n      swap1\n      dup9\n      and\n      swap2\n        /* \"Utils/TransferHelper.sol\":1254:1341  token.call(\r... */\n      tag_402\n      swap2\n        /* \"Utils/TransferHelper.sol\":1279:1330  abi.encodeWithSelector(0x23b872dd, from, to, value) */\n      swap1\n        /* \"Utils/TransferHelper.sol\":1254:1341  token.call(\r... */\n      tag_403\n      jump\t// in\n    tag_402:\n      0x00\n      mload(0x40)\n      dup1\n      dup4\n      sub\n      dup2\n      0x00\n      dup7\n      gas\n      call\n      swap2\n      pop\n      pop\n      returndatasize\n      dup1\n      0x00\n      dup2\n      eq\n      tag_406\n      jumpi\n      mload(0x40)\n      swap2\n      pop\n      and(add(returndatasize, 0x3f), not(0x1f))\n      dup3\n      add\n      0x40\n      mstore\n      returndatasize\n      dup3\n      mstore\n      returndatasize\n      0x00\n      0x20\n      dup5\n      add\n      returndatacopy\n      jump(tag_405)\n    tag_406:\n      0x60\n      swap2\n      pop\n    tag_405:\n      pop\n        /* \"Utils/TransferHelper.sol\":1218:1341  (bool success, bytes memory data) = token.call(\r... */\n      swap2\n      pop\n      swap2\n      pop\n        /* \"Utils/TransferHelper.sol\":1374:1381  success */\n      dup2\n        /* \"Utils/TransferHelper.sol\":1374:1431  success && (data.length == 0 || abi.decode(data, (bool))) */\n      dup1\n      iszero\n      tag_409\n      jumpi\n      pop\n        /* \"Utils/TransferHelper.sol\":1386:1397  data.length */\n      dup1\n      mload\n        /* \"Utils/TransferHelper.sol\":1386:1402  data.length == 0 */\n      iszero\n      dup1\n        /* \"Utils/TransferHelper.sol\":1386:1430  data.length == 0 || abi.decode(data, (bool)) */\n      tag_409\n      jumpi\n      pop\n        /* \"Utils/TransferHelper.sol\":1417:1421  data */\n      dup1\n        /* \"Utils/TransferHelper.sol\":1406:1430  abi.decode(data, (bool)) */\n      dup1\n      0x20\n      add\n      swap1\n      mload\n      dup2\n      add\n      swap1\n      tag_409\n      swap2\n      swap1\n      tag_181\n      jump\t// in\n    tag_409:\n        /* \"Utils/TransferHelper.sol\":1352:1495  require(\r... */\n      tag_410\n      jumpi\n      mload(0x40)\n      shl(0xe5, 0x461bcd)\n      dup2\n      mstore\n        /* \"#utility.yul\":10471:10473   */\n      0x20\n        /* \"Utils/TransferHelper.sol\":1352:1495  require(\r... */\n      0x04\n      dup3\n      add\n        /* \"#utility.yul\":10453:10474   */\n      mstore\n        /* \"#utility.yul\":10510:10512   */\n      0x24\n        /* \"#utility.yul\":10490:10508   */\n      dup1\n      dup3\n      add\n        /* \"#utility.yul\":10483:10513   */\n      mstore\n        /* \"#utility.yul\":10549:10583   */\n      0x5472616e7366657248656c7065723a205452414e534645525f46524f4d5f4641\n        /* \"#utility.yul\":10529:10547   */\n      0x44\n      dup3\n      add\n        /* \"#utility.yul\":10522:10584   */\n      mstore\n      shl(0xe2, 0x12531151)\n        /* \"#utility.yul\":10600:10618   */\n      0x64\n      dup3\n      add\n        /* \"#utility.yul\":10593:10627   */\n      mstore\n        /* \"#utility.yul\":10644:10663   */\n      0x84\n      add\n        /* \"Utils/TransferHelper.sol\":1352:1495  require(\r... */\n      tag_139\n        /* \"#utility.yul\":10443:10669   */\n      jump\n        /* \"Utils/TransferHelper.sol\":1352:1495  require(\r... */\n    tag_410:\n        /* \"Utils/TransferHelper.sol\":1207:1503  {\r... */\n      pop\n      pop\n        /* \"Utils/TransferHelper.sol\":1073:1503  function safeTransferFrom(\r... */\n      pop\n      pop\n      pop\n      pop\n      jump\t// out\n        /* \"Utils/EnumerableSet.sol\":8831:8998  function contains(AddressSet storage set, address value) internal view returns (bool) {\r... */\n    tag_348:\n      sub(shl(0xa0, 0x01), 0x01)\n        /* \"Utils/EnumerableSet.sol\":8965:8988  uint256(uint160(value)) */\n      dup2\n      and\n        /* \"Utils/EnumerableSet.sol\":8911:8915  bool */\n      0x00\n        /* \"Utils/EnumerableSet.sol\":4367:4386  set._indexes[value] */\n      swap1\n      dup2\n      mstore\n        /* \"Utils/EnumerableSet.sol\":4367:4379  set._indexes */\n      0x01\n      dup4\n      add\n        /* \"Utils/EnumerableSet.sol\":4367:4386  set._indexes[value] */\n      0x20\n      mstore\n      0x40\n      dup2\n      keccak256\n      sload\n        /* \"Utils/EnumerableSet.sol\":4367:4391  set._indexes[value] != 0 */\n      iszero\n      iszero\n        /* \"Utils/EnumerableSet.sol\":8935:8990  _contains(set._inner, bytes32(uint256(uint160(value)))) */\n      tag_389\n        /* \"Utils/EnumerableSet.sol\":4270:4399  function _contains(Set storage set, bytes32 value) private view returns (bool) {\r... */\n      jump\n        /* \"Utils/EnumerableSet.sol\":2174:2588  function _add(Set storage set, bytes32 value) private returns (bool) {\r... */\n    tag_390:\n        /* \"Utils/EnumerableSet.sol\":2237:2241  bool */\n      0x00\n        /* \"Utils/EnumerableSet.sol\":4367:4386  set._indexes[value] */\n      dup2\n      dup2\n      mstore\n        /* \"Utils/EnumerableSet.sol\":4367:4379  set._indexes */\n      0x01\n      dup4\n      add\n        /* \"Utils/EnumerableSet.sol\":4367:4386  set._indexes[value] */\n      0x20\n      mstore\n      0x40\n      dup2\n      keccak256\n      sload\n        /* \"Utils/EnumerableSet.sol\":2254:2581  if (!_contains(set, value)) {\r... */\n      tag_418\n      jumpi\n      pop\n        /* \"Utils/EnumerableSet.sol\":2297:2320  set._values.push(value) */\n      dup2\n      sload\n      0x01\n      dup2\n      dup2\n      add\n      dup5\n      sstore\n        /* \"Utils/EnumerableSet.sol\":2297:2308  set._values */\n      0x00\n        /* \"Utils/EnumerableSet.sol\":2297:2320  set._values.push(value) */\n      dup5\n      dup2\n      mstore\n      0x20\n      dup1\n      dup3\n      keccak256\n      swap1\n      swap4\n      add\n      dup5\n      swap1\n      sstore\n        /* \"Utils/EnumerableSet.sol\":2480:2498  set._values.length */\n      dup5\n      sload\n        /* \"Utils/EnumerableSet.sol\":2458:2477  set._indexes[value] */\n      dup5\n      dup3\n      mstore\n        /* \"Utils/EnumerableSet.sol\":2458:2470  set._indexes */\n      dup3\n      dup7\n      add\n        /* \"Utils/EnumerableSet.sol\":2458:2477  set._indexes[value] */\n      swap1\n      swap4\n      mstore\n      0x40\n      swap1\n      keccak256\n        /* \"Utils/EnumerableSet.sol\":2458:2498  set._indexes[value] = set._values.length */\n      swap2\n      swap1\n      swap2\n      sstore\n        /* \"Utils/EnumerableSet.sol\":2513:2524  return true */\n      jump(tag_388)\n        /* \"Utils/EnumerableSet.sol\":2254:2581  if (!_contains(set, value)) {\r... */\n    tag_418:\n      pop\n        /* \"Utils/EnumerableSet.sol\":2564:2569  false */\n      0x00\n        /* \"Utils/EnumerableSet.sol\":2557:2569  return false */\n      jump(tag_388)\n        /* \"#utility.yul\":14:261   */\n    tag_54:\n        /* \"#utility.yul\":73:79   */\n      0x00\n        /* \"#utility.yul\":126:128   */\n      0x20\n        /* \"#utility.yul\":114:123   */\n      dup3\n        /* \"#utility.yul\":105:112   */\n      dup5\n        /* \"#utility.yul\":101:124   */\n      sub\n        /* \"#utility.yul\":97:129   */\n      slt\n        /* \"#utility.yul\":94:96   */\n      iszero\n      tag_424\n      jumpi\n        /* \"#utility.yul\":142:143   */\n      0x00\n        /* \"#utility.yul\":139:140   */\n      dup1\n        /* \"#utility.yul\":132:144   */\n      revert\n        /* \"#utility.yul\":94:96   */\n    tag_424:\n        /* \"#utility.yul\":181:190   */\n      dup2\n        /* \"#utility.yul\":168:191   */\n      calldataload\n        /* \"#utility.yul\":200:231   */\n      tag_425\n        /* \"#utility.yul\":225:230   */\n      dup2\n        /* \"#utility.yul\":200:231   */\n      tag_426\n      jump\t// in\n    tag_425:\n        /* \"#utility.yul\":250:255   */\n      swap4\n        /* \"#utility.yul\":84:261   */\n      swap3\n      pop\n      pop\n      pop\n      jump\t// out\n        /* \"#utility.yul\":266:1580   */\n    tag_76:\n        /* \"#utility.yul\":418:424   */\n      0x00\n        /* \"#utility.yul\":426:432   */\n      dup1\n        /* \"#utility.yul\":434:440   */\n      0x00\n        /* \"#utility.yul\":442:448   */\n      dup1\n        /* \"#utility.yul\":450:456   */\n      0x00\n        /* \"#utility.yul\":503:506   */\n      0x01a0\n        /* \"#utility.yul\":491:500   */\n      dup7\n        /* \"#utility.yul\":482:489   */\n      dup9\n        /* \"#utility.yul\":478:501   */\n      sub\n        /* \"#utility.yul\":474:507   */\n      slt\n        /* \"#utility.yul\":471:473   */\n      iszero\n      tag_428\n      jumpi\n        /* \"#utility.yul\":520:521   */\n      0x00\n        /* \"#utility.yul\":517:518   */\n      dup1\n        /* \"#utility.yul\":510:522   */\n      revert\n        /* \"#utility.yul\":471:473   */\n    tag_428:\n        /* \"#utility.yul\":559:568   */\n      dup6\n        /* \"#utility.yul\":546:569   */\n      calldataload\n        /* \"#utility.yul\":578:609   */\n      tag_429\n        /* \"#utility.yul\":603:608   */\n      dup2\n        /* \"#utility.yul\":578:609   */\n      tag_426\n      jump\t// in\n    tag_429:\n        /* \"#utility.yul\":628:633   */\n      swap5\n      pop\n        /* \"#utility.yul\":652:654   */\n      0x20\n        /* \"#utility.yul\":691:709   */\n      dup7\n      dup2\n      add\n        /* \"#utility.yul\":678:710   */\n      calldataload\n        /* \"#utility.yul\":719:752   */\n      tag_430\n        /* \"#utility.yul\":678:710   */\n      dup2\n        /* \"#utility.yul\":719:752   */\n      tag_426\n      jump\t// in\n    tag_430:\n        /* \"#utility.yul\":771:778   */\n      swap5\n      pop\n        /* \"#utility.yul\":830:832   */\n      0x40\n        /* \"#utility.yul\":815:833   */\n      dup8\n      add\n        /* \"#utility.yul\":802:834   */\n      calldataload\n        /* \"#utility.yul\":843:876   */\n      tag_431\n        /* \"#utility.yul\":802:834   */\n      dup2\n        /* \"#utility.yul\":843:876   */\n      tag_426\n      jump\t// in\n    tag_431:\n        /* \"#utility.yul\":895:902   */\n      swap4\n      pop\n        /* \"#utility.yul\":940:943   */\n      0x7f\n        /* \"#utility.yul\":925:944   */\n      dup8\n      add\n        /* \"#utility.yul\":921:954   */\n      dup9\n      sgt\n        /* \"#utility.yul\":911:913   */\n      tag_432\n      jumpi\n        /* \"#utility.yul\":968:969   */\n      0x00\n        /* \"#utility.yul\":965:966   */\n      dup1\n        /* \"#utility.yul\":958:970   */\n      revert\n        /* \"#utility.yul\":911:913   */\n    tag_432:\n        /* \"#utility.yul\":1001:1003   */\n      0x40\n        /* \"#utility.yul\":995:1004   */\n      mload\n        /* \"#utility.yul\":1043:1046   */\n      0x0120\n        /* \"#utility.yul\":1035:1041   */\n      dup2\n        /* \"#utility.yul\":1031:1047   */\n      add\n        /* \"#utility.yul\":1113:1119   */\n      dup2\n        /* \"#utility.yul\":1101:1111   */\n      dup2\n        /* \"#utility.yul\":1098:1120   */\n      lt\n        /* \"#utility.yul\":1077:1095   */\n      0xffffffffffffffff\n        /* \"#utility.yul\":1065:1075   */\n      dup3\n        /* \"#utility.yul\":1062:1096   */\n      gt\n        /* \"#utility.yul\":1059:1121   */\n      or\n        /* \"#utility.yul\":1056:1058   */\n      iszero\n      tag_434\n      jumpi\n        /* \"#utility.yul\":1124:1142   */\n      tag_434\n      tag_435\n      jump\t// in\n    tag_434:\n        /* \"#utility.yul\":1160:1162   */\n      0x40\n        /* \"#utility.yul\":1153:1175   */\n      mstore\n        /* \"#utility.yul\":1195:1201   */\n      dup1\n        /* \"#utility.yul\":1236:1238   */\n      0x60\n        /* \"#utility.yul\":1221:1239   */\n      dup10\n      add\n        /* \"#utility.yul\":1273:1276   */\n      0x0180\n        /* \"#utility.yul\":1258:1277   */\n      dup11\n      add\n        /* \"#utility.yul\":1289:1304   */\n      dup12\n      dup2\n      gt\n        /* \"#utility.yul\":1286:1288   */\n      iszero\n      tag_436\n      jumpi\n        /* \"#utility.yul\":1317:1318   */\n      0x00\n        /* \"#utility.yul\":1314:1315   */\n      dup1\n        /* \"#utility.yul\":1307:1319   */\n      revert\n        /* \"#utility.yul\":1286:1288   */\n    tag_436:\n        /* \"#utility.yul\":1339:1340   */\n      0x00\n        /* \"#utility.yul\":1349:1514   */\n    tag_437:\n        /* \"#utility.yul\":1363:1367   */\n      0x09\n        /* \"#utility.yul\":1360:1361   */\n      dup2\n        /* \"#utility.yul\":1357:1368   */\n      lt\n        /* \"#utility.yul\":1349:1514   */\n      iszero\n      tag_439\n      jumpi\n        /* \"#utility.yul\":1422:1439   */\n      dup3\n      calldataload\n        /* \"#utility.yul\":1410:1440   */\n      dup5\n      mstore\n        /* \"#utility.yul\":1460:1472   */\n      swap3\n      dup6\n      add\n      swap3\n        /* \"#utility.yul\":1492:1504   */\n      swap2\n      dup6\n      add\n      swap2\n        /* \"#utility.yul\":1383:1384   */\n      0x01\n        /* \"#utility.yul\":1376:1385   */\n      add\n        /* \"#utility.yul\":1349:1514   */\n      jump(tag_437)\n    tag_439:\n      pop\n        /* \"#utility.yul\":461:1580   */\n      swap9\n      swap12\n      swap8\n      swap11\n      pop\n      swap6\n      swap9\n      pop\n        /* \"#utility.yul\":1533:1539   */\n      swap1\n      swap7\n        /* \"#utility.yul\":1558:1574   */\n      calldataload\n      swap6\n        /* \"#utility.yul\":461:1580   */\n      swap5\n      pop\n      pop\n      pop\n      pop\n      pop\n      jump\t// out\n        /* \"#utility.yul\":1585:1826   */\n    tag_117:\n        /* \"#utility.yul\":1641:1647   */\n      0x00\n        /* \"#utility.yul\":1694:1696   */\n      0x20\n        /* \"#utility.yul\":1682:1691   */\n      dup3\n        /* \"#utility.yul\":1673:1680   */\n      dup5\n        /* \"#utility.yul\":1669:1692   */\n      sub\n        /* \"#utility.yul\":1665:1697   */\n      slt\n        /* \"#utility.yul\":1662:1664   */\n      iszero\n      tag_441\n      jumpi\n        /* \"#utility.yul\":1710:1711   */\n      0x00\n        /* \"#utility.yul\":1707:1708   */\n      dup1\n        /* \"#utility.yul\":1700:1712   */\n      revert\n        /* \"#utility.yul\":1662:1664   */\n    tag_441:\n        /* \"#utility.yul\":1749:1758   */\n      dup2\n        /* \"#utility.yul\":1736:1759   */\n      calldataload\n        /* \"#utility.yul\":1768:1796   */\n      tag_425\n        /* \"#utility.yul\":1790:1795   */\n      dup2\n        /* \"#utility.yul\":1768:1796   */\n      tag_443\n      jump\t// in\n        /* \"#utility.yul\":1831:2076   */\n    tag_181:\n        /* \"#utility.yul\":1898:1904   */\n      0x00\n        /* \"#utility.yul\":1951:1953   */\n      0x20\n        /* \"#utility.yul\":1939:1948   */\n      dup3\n        /* \"#utility.yul\":1930:1937   */\n      dup5\n        /* \"#utility.yul\":1926:1949   */\n      sub\n        /* \"#utility.yul\":1922:1954   */\n      slt\n        /* \"#utility.yul\":1919:1921   */\n      iszero\n      tag_445\n      jumpi\n        /* \"#utility.yul\":1967:1968   */\n      0x00\n        /* \"#utility.yul\":1964:1965   */\n      dup1\n        /* \"#utility.yul\":1957:1969   */\n      revert\n        /* \"#utility.yul\":1919:1921   */\n    tag_445:\n        /* \"#utility.yul\":1999:2008   */\n      dup2\n        /* \"#utility.yul\":1993:2009   */\n      mload\n        /* \"#utility.yul\":2018:2046   */\n      tag_425\n        /* \"#utility.yul\":2040:2045   */\n      dup2\n        /* \"#utility.yul\":2018:2046   */\n      tag_443\n      jump\t// in\n        /* \"#utility.yul\":2081:2261   */\n    tag_97:\n        /* \"#utility.yul\":2140:2146   */\n      0x00\n        /* \"#utility.yul\":2193:2195   */\n      0x20\n        /* \"#utility.yul\":2181:2190   */\n      dup3\n        /* \"#utility.yul\":2172:2179   */\n      dup5\n        /* \"#utility.yul\":2168:2191   */\n      sub\n        /* \"#utility.yul\":2164:2196   */\n      slt\n        /* \"#utility.yul\":2161:2163   */\n      iszero\n      tag_448\n      jumpi\n        /* \"#utility.yul\":2209:2210   */\n      0x00\n        /* \"#utility.yul\":2206:2207   */\n      dup1\n        /* \"#utility.yul\":2199:2211   */\n      revert\n        /* \"#utility.yul\":2161:2163   */\n    tag_448:\n      pop\n        /* \"#utility.yul\":2232:2255   */\n      calldataload\n      swap2\n        /* \"#utility.yul\":2151:2261   */\n      swap1\n      pop\n      jump\t// out\n        /* \"#utility.yul\":2266:2450   */\n    tag_163:\n        /* \"#utility.yul\":2336:2342   */\n      0x00\n        /* \"#utility.yul\":2389:2391   */\n      0x20\n        /* \"#utility.yul\":2377:2386   */\n      dup3\n        /* \"#utility.yul\":2368:2375   */\n      dup5\n        /* \"#utility.yul\":2364:2387   */\n      sub\n        /* \"#utility.yul\":2360:2392   */\n      slt\n        /* \"#utility.yul\":2357:2359   */\n      iszero\n      tag_450\n      jumpi\n        /* \"#utility.yul\":2405:2406   */\n      0x00\n        /* \"#utility.yul\":2402:2403   */\n      dup1\n        /* \"#utility.yul\":2395:2407   */\n      revert\n        /* \"#utility.yul\":2357:2359   */\n    tag_450:\n      pop\n        /* \"#utility.yul\":2428:2444   */\n      mload\n      swap2\n        /* \"#utility.yul\":2347:2450   */\n      swap1\n      pop\n      jump\t// out\n        /* \"#utility.yul\":2455:2881   */\n    tag_403:\n        /* \"#utility.yul\":2584:2587   */\n      0x00\n        /* \"#utility.yul\":2622:2628   */\n      dup3\n        /* \"#utility.yul\":2616:2629   */\n      mload\n        /* \"#utility.yul\":2647:2648   */\n      0x00\n        /* \"#utility.yul\":2657:2786   */\n    tag_452:\n        /* \"#utility.yul\":2671:2677   */\n      dup2\n        /* \"#utility.yul\":2668:2669   */\n      dup2\n        /* \"#utility.yul\":2665:2678   */\n      lt\n        /* \"#utility.yul\":2657:2786   */\n      iszero\n      tag_454\n      jumpi\n        /* \"#utility.yul\":2769:2773   */\n      0x20\n        /* \"#utility.yul\":2753:2767   */\n      dup2\n      dup7\n      add\n        /* \"#utility.yul\":2749:2774   */\n      dup2\n      add\n        /* \"#utility.yul\":2743:2775   */\n      mload\n        /* \"#utility.yul\":2730:2741   */\n      dup6\n      dup4\n      add\n        /* \"#utility.yul\":2723:2776   */\n      mstore\n        /* \"#utility.yul\":2686:2698   */\n      add\n        /* \"#utility.yul\":2657:2786   */\n      jump(tag_452)\n    tag_454:\n        /* \"#utility.yul\":2804:2810   */\n      dup2\n        /* \"#utility.yul\":2801:2802   */\n      dup2\n        /* \"#utility.yul\":2798:2811   */\n      gt\n        /* \"#utility.yul\":2795:2797   */\n      iszero\n      tag_455\n      jumpi\n        /* \"#utility.yul\":2839:2840   */\n      0x00\n        /* \"#utility.yul\":2830:2836   */\n      dup3\n        /* \"#utility.yul\":2825:2828   */\n      dup6\n        /* \"#utility.yul\":2821:2837   */\n      add\n        /* \"#utility.yul\":2814:2841   */\n      mstore\n        /* \"#utility.yul\":2795:2797   */\n    tag_455:\n      pop\n        /* \"#utility.yul\":2859:2875   */\n      swap2\n      swap1\n      swap2\n      add\n      swap3\n        /* \"#utility.yul\":2592:2881   */\n      swap2\n      pop\n      pop\n      jump\t// out\n        /* \"#utility.yul\":6254:6605   */\n    tag_192:\n        /* \"#utility.yul\":6456:6458   */\n      0x20\n        /* \"#utility.yul\":6438:6459   */\n      dup1\n      dup3\n      mstore\n        /* \"#utility.yul\":6495:6497   */\n      0x1b\n        /* \"#utility.yul\":6475:6493   */\n      swap1\n      dup3\n      add\n        /* \"#utility.yul\":6468:6498   */\n      mstore\n        /* \"#utility.yul\":6534:6563   */\n      0x416c6c20746f6b656e20686173206265656e2077697468647261770000000000\n        /* \"#utility.yul\":6529:6531   */\n      0x40\n        /* \"#utility.yul\":6514:6532   */\n      dup3\n      add\n        /* \"#utility.yul\":6507:6564   */\n      mstore\n        /* \"#utility.yul\":6596:6598   */\n      0x60\n        /* \"#utility.yul\":6581:6599   */\n      add\n      swap1\n        /* \"#utility.yul\":6428:6605   */\n      jump\t// out\n        /* \"#utility.yul\":11032:11387   */\n    tag_156:\n        /* \"#utility.yul\":11234:11236   */\n      0x20\n        /* \"#utility.yul\":11216:11237   */\n      dup1\n      dup3\n      mstore\n        /* \"#utility.yul\":11273:11275   */\n      0x1f\n        /* \"#utility.yul\":11253:11271   */\n      swap1\n      dup3\n      add\n        /* \"#utility.yul\":11246:11276   */\n      mstore\n        /* \"#utility.yul\":11312:11345   */\n      0x5265656e7472616e637947756172643a207265656e7472616e742063616c6c00\n        /* \"#utility.yul\":11307:11309   */\n      0x40\n        /* \"#utility.yul\":11292:11310   */\n      dup3\n      add\n        /* \"#utility.yul\":11285:11346   */\n      mstore\n        /* \"#utility.yul\":11378:11380   */\n      0x60\n        /* \"#utility.yul\":11363:11381   */\n      add\n      swap1\n        /* \"#utility.yul\":11206:11387   */\n      jump\t// out\n        /* \"#utility.yul\":13415:13543   */\n    tag_206:\n        /* \"#utility.yul\":13455:13458   */\n      0x00\n        /* \"#utility.yul\":13486:13487   */\n      dup3\n        /* \"#utility.yul\":13482:13488   */\n      not\n        /* \"#utility.yul\":13479:13480   */\n      dup3\n        /* \"#utility.yul\":13476:13489   */\n      gt\n        /* \"#utility.yul\":13473:13475   */\n      iszero\n      tag_486\n      jumpi\n        /* \"#utility.yul\":13492:13510   */\n      tag_486\n      tag_487\n      jump\t// in\n    tag_486:\n      pop\n        /* \"#utility.yul\":13528:13537   */\n      add\n      swap1\n        /* \"#utility.yul\":13463:13543   */\n      jump\t// out\n        /* \"#utility.yul\":13548:13765   */\n    tag_266:\n        /* \"#utility.yul\":13588:13589   */\n      0x00\n        /* \"#utility.yul\":13614:13615   */\n      dup3\n        /* \"#utility.yul\":13604:13606   */\n      tag_489\n      jumpi\n        /* \"#utility.yul\":13658:13668   */\n      0x4e487b71\n        /* \"#utility.yul\":13653:13656   */\n      0xe0\n        /* \"#utility.yul\":13649:13669   */\n      shl\n        /* \"#utility.yul\":13646:13647   */\n      0x00\n        /* \"#utility.yul\":13639:13670   */\n      mstore\n        /* \"#utility.yul\":13693:13697   */\n      0x12\n        /* \"#utility.yul\":13690:13691   */\n      0x04\n        /* \"#utility.yul\":13683:13698   */\n      mstore\n        /* \"#utility.yul\":13721:13725   */\n      0x24\n        /* \"#utility.yul\":13718:13719   */\n      0x00\n        /* \"#utility.yul\":13711:13726   */\n      revert\n        /* \"#utility.yul\":13604:13606   */\n    tag_489:\n      pop\n        /* \"#utility.yul\":13750:13759   */\n      div\n      swap1\n        /* \"#utility.yul\":13594:13765   */\n      jump\t// out\n        /* \"#utility.yul\":13770:14192   */\n    tag_490:\n        /* \"#utility.yul\":13859:13860   */\n      0x01\n        /* \"#utility.yul\":13902:13907   */\n      dup2\n        /* \"#utility.yul\":13859:13860   */\n      dup2\n        /* \"#utility.yul\":13916:14186   */\n    tag_492:\n        /* \"#utility.yul\":13937:13944   */\n      dup1\n        /* \"#utility.yul\":13927:13935   */\n      dup6\n        /* \"#utility.yul\":13924:13945   */\n      gt\n        /* \"#utility.yul\":13916:14186   */\n      iszero\n      tag_494\n      jumpi\n        /* \"#utility.yul\":13996:14000   */\n      dup2\n        /* \"#utility.yul\":13992:13993   */\n      0x00\n        /* \"#utility.yul\":13988:13994   */\n      not\n        /* \"#utility.yul\":13984:14001   */\n      div\n        /* \"#utility.yul\":13978:13982   */\n      dup3\n        /* \"#utility.yul\":13975:14002   */\n      gt\n        /* \"#utility.yul\":13972:13974   */\n      iszero\n      tag_496\n      jumpi\n        /* \"#utility.yul\":14005:14023   */\n      tag_496\n      tag_487\n      jump\t// in\n    tag_496:\n        /* \"#utility.yul\":14055:14062   */\n      dup1\n        /* \"#utility.yul\":14045:14053   */\n      dup6\n        /* \"#utility.yul\":14041:14063   */\n      and\n        /* \"#utility.yul\":14038:14040   */\n      iszero\n      tag_497\n      jumpi\n        /* \"#utility.yul\":14075:14091   */\n      swap2\n      dup2\n      mul\n      swap2\n        /* \"#utility.yul\":14038:14040   */\n    tag_497:\n        /* \"#utility.yul\":14154:14176   */\n      swap4\n      dup5\n      shr\n      swap4\n        /* \"#utility.yul\":14114:14129   */\n      swap1\n      dup1\n      mul\n      swap1\n        /* \"#utility.yul\":13916:14186   */\n      jump(tag_492)\n    tag_494:\n        /* \"#utility.yul\":13920:13923   */\n      pop\n        /* \"#utility.yul\":13834:14192   */\n      swap3\n      pop\n      swap3\n      swap1\n      pop\n      jump\t// out\n        /* \"#utility.yul\":14197:14328   */\n    tag_219:\n        /* \"#utility.yul\":14257:14262   */\n      0x00\n        /* \"#utility.yul\":14286:14322   */\n      tag_389\n        /* \"#utility.yul\":14313:14321   */\n      dup4\n        /* \"#utility.yul\":14307:14311   */\n      dup4\n        /* \"#utility.yul\":14382:14387   */\n      0x00\n        /* \"#utility.yul\":14412:14420   */\n      dup3\n        /* \"#utility.yul\":14402:14404   */\n      tag_502\n      jumpi\n      pop\n        /* \"#utility.yul\":14453:14454   */\n      0x01\n        /* \"#utility.yul\":14467:14472   */\n      jump(tag_388)\n        /* \"#utility.yul\":14402:14404   */\n    tag_502:\n        /* \"#utility.yul\":14501:14505   */\n      dup2\n        /* \"#utility.yul\":14491:14493   */\n      tag_503\n      jumpi\n      pop\n        /* \"#utility.yul\":14538:14539   */\n      0x00\n        /* \"#utility.yul\":14552:14557   */\n      jump(tag_388)\n        /* \"#utility.yul\":14491:14493   */\n    tag_503:\n        /* \"#utility.yul\":14583:14587   */\n      dup2\n        /* \"#utility.yul\":14601:14602   */\n      0x01\n        /* \"#utility.yul\":14596:14655   */\n      dup2\n      eq\n      tag_505\n      jumpi\n        /* \"#utility.yul\":14669:14670   */\n      0x02\n        /* \"#utility.yul\":14664:14794   */\n      dup2\n      eq\n      tag_506\n      jumpi\n        /* \"#utility.yul\":14576:14794   */\n      jump(tag_504)\n        /* \"#utility.yul\":14596:14655   */\n    tag_505:\n        /* \"#utility.yul\":14626:14627   */\n      0x01\n        /* \"#utility.yul\":14617:14627   */\n      swap2\n      pop\n        /* \"#utility.yul\":14640:14645   */\n      pop\n      jump(tag_388)\n        /* \"#utility.yul\":14664:14794   */\n    tag_506:\n        /* \"#utility.yul\":14701:14704   */\n      0xff\n        /* \"#utility.yul\":14691:14699   */\n      dup5\n        /* \"#utility.yul\":14688:14705   */\n      gt\n        /* \"#utility.yul\":14685:14687   */\n      iszero\n      tag_508\n      jumpi\n        /* \"#utility.yul\":14708:14726   */\n      tag_508\n      tag_487\n      jump\t// in\n    tag_508:\n      pop\n      pop\n        /* \"#utility.yul\":14764:14765   */\n      0x01\n        /* \"#utility.yul\":14750:14766   */\n      dup3\n      shl\n        /* \"#utility.yul\":14779:14784   */\n      jump(tag_388)\n        /* \"#utility.yul\":14576:14794   */\n    tag_504:\n      pop\n        /* \"#utility.yul\":14878:14880   */\n      0x20\n        /* \"#utility.yul\":14868:14876   */\n      dup4\n        /* \"#utility.yul\":14865:14881   */\n      lt\n        /* \"#utility.yul\":14859:14862   */\n      0x0133\n        /* \"#utility.yul\":14853:14857   */\n      dup4\n        /* \"#utility.yul\":14850:14863   */\n      lt\n        /* \"#utility.yul\":14846:14882   */\n      and\n        /* \"#utility.yul\":14840:14842   */\n      0x4e\n        /* \"#utility.yul\":14830:14838   */\n      dup5\n        /* \"#utility.yul\":14827:14843   */\n      lt\n        /* \"#utility.yul\":14822:14824   */\n      0x0b\n        /* \"#utility.yul\":14816:14820   */\n      dup5\n        /* \"#utility.yul\":14813:14825   */\n      lt\n        /* \"#utility.yul\":14809:14844   */\n      and\n        /* \"#utility.yul\":14806:14883   */\n      or\n        /* \"#utility.yul\":14803:14805   */\n      iszero\n      tag_509\n      jumpi\n      pop\n        /* \"#utility.yul\":14915:14934   */\n      dup2\n      dup2\n      exp\n        /* \"#utility.yul\":14947:14952   */\n      jump(tag_388)\n        /* \"#utility.yul\":14803:14805   */\n    tag_509:\n        /* \"#utility.yul\":14994:15028   */\n      tag_510\n        /* \"#utility.yul\":15019:15027   */\n      dup4\n        /* \"#utility.yul\":15013:15017   */\n      dup4\n        /* \"#utility.yul\":14994:15028   */\n      tag_490\n      jump\t// in\n    tag_510:\n        /* \"#utility.yul\":15064:15070   */\n      dup1\n        /* \"#utility.yul\":15060:15061   */\n      0x00\n        /* \"#utility.yul\":15056:15062   */\n      not\n        /* \"#utility.yul\":15052:15071   */\n      div\n        /* \"#utility.yul\":15043:15050   */\n      dup3\n        /* \"#utility.yul\":15040:15072   */\n      gt\n        /* \"#utility.yul\":15037:15039   */\n      iszero\n      tag_512\n      jumpi\n        /* \"#utility.yul\":15075:15093   */\n      tag_512\n      tag_487\n      jump\t// in\n    tag_512:\n        /* \"#utility.yul\":15113:15133   */\n      mul\n      swap4\n        /* \"#utility.yul\":14392:15139   */\n      swap3\n      pop\n      pop\n      pop\n      jump\t// out\n        /* \"#utility.yul\":15144:15312   */\n    tag_224:\n        /* \"#utility.yul\":15184:15191   */\n      0x00\n        /* \"#utility.yul\":15250:15251   */\n      dup2\n        /* \"#utility.yul\":15246:15247   */\n      0x00\n        /* \"#utility.yul\":15242:15248   */\n      not\n        /* \"#utility.yul\":15238:15252   */\n      div\n        /* \"#utility.yul\":15235:15236   */\n      dup4\n        /* \"#utility.yul\":15232:15253   */\n      gt\n        /* \"#utility.yul\":15227:15228   */\n      dup3\n        /* \"#utility.yul\":15220:15229   */\n      iszero\n        /* \"#utility.yul\":15213:15230   */\n      iszero\n        /* \"#utility.yul\":15209:15254   */\n      and\n        /* \"#utility.yul\":15206:15208   */\n      iszero\n      tag_515\n      jumpi\n        /* \"#utility.yul\":15257:15275   */\n      tag_515\n      tag_487\n      jump\t// in\n    tag_515:\n      pop\n        /* \"#utility.yul\":15297:15306   */\n      mul\n      swap1\n        /* \"#utility.yul\":15196:15312   */\n      jump\t// out\n        /* \"#utility.yul\":15317:15442   */\n    tag_189:\n        /* \"#utility.yul\":15357:15361   */\n      0x00\n        /* \"#utility.yul\":15385:15386   */\n      dup3\n        /* \"#utility.yul\":15382:15383   */\n      dup3\n        /* \"#utility.yul\":15379:15387   */\n      lt\n        /* \"#utility.yul\":15376:15378   */\n      iszero\n      tag_518\n      jumpi\n        /* \"#utility.yul\":15390:15408   */\n      tag_518\n      tag_487\n      jump\t// in\n    tag_518:\n      pop\n        /* \"#utility.yul\":15427:15436   */\n      sub\n      swap1\n        /* \"#utility.yul\":15366:15442   */\n      jump\t// out\n        /* \"#utility.yul\":15447:15582   */\n    tag_331:\n        /* \"#utility.yul\":15486:15489   */\n      0x00\n      not(0x00)\n        /* \"#utility.yul\":15507:15524   */\n      dup3\n      eq\n        /* \"#utility.yul\":15504:15506   */\n      iszero\n      tag_521\n      jumpi\n        /* \"#utility.yul\":15527:15545   */\n      tag_521\n      tag_487\n      jump\t// in\n    tag_521:\n      pop\n        /* \"#utility.yul\":15574:15575   */\n      0x01\n        /* \"#utility.yul\":15563:15576   */\n      add\n      swap1\n        /* \"#utility.yul\":15494:15582   */\n      jump\t// out\n        /* \"#utility.yul\":15587:15714   */\n    tag_487:\n        /* \"#utility.yul\":15648:15658   */\n      0x4e487b71\n        /* \"#utility.yul\":15643:15646   */\n      0xe0\n        /* \"#utility.yul\":15639:15659   */\n      shl\n        /* \"#utility.yul\":15636:15637   */\n      0x00\n        /* \"#utility.yul\":15629:15660   */\n      mstore\n        /* \"#utility.yul\":15679:15683   */\n      0x11\n        /* \"#utility.yul\":15676:15677   */\n      0x04\n        /* \"#utility.yul\":15669:15684   */\n      mstore\n        /* \"#utility.yul\":15703:15707   */\n      0x24\n        /* \"#utility.yul\":15700:15701   */\n      0x00\n        /* \"#utility.yul\":15693:15708   */\n      revert\n        /* \"#utility.yul\":15851:15978   */\n    tag_435:\n        /* \"#utility.yul\":15912:15922   */\n      0x4e487b71\n        /* \"#utility.yul\":15907:15910   */\n      0xe0\n        /* \"#utility.yul\":15903:15923   */\n      shl\n        /* \"#utility.yul\":15900:15901   */\n      0x00\n        /* \"#utility.yul\":15893:15924   */\n      mstore\n        /* \"#utility.yul\":15943:15947   */\n      0x41\n        /* \"#utility.yul\":15940:15941   */\n      0x04\n        /* \"#utility.yul\":15933:15948   */\n      mstore\n        /* \"#utility.yul\":15967:15971   */\n      0x24\n        /* \"#utility.yul\":15964:15965   */\n      0x00\n        /* \"#utility.yul\":15957:15972   */\n      revert\n        /* \"#utility.yul\":15983:16114   */\n    tag_426:\n      sub(shl(0xa0, 0x01), 0x01)\n        /* \"#utility.yul\":16058:16089   */\n      dup2\n      and\n        /* \"#utility.yul\":16048:16090   */\n      dup2\n      eq\n        /* \"#utility.yul\":16038:16040   */\n      tag_146\n      jumpi\n        /* \"#utility.yul\":16104:16105   */\n      0x00\n        /* \"#utility.yul\":16101:16102   */\n      dup1\n        /* \"#utility.yul\":16094:16106   */\n      revert\n        /* \"#utility.yul\":16119:16237   */\n    tag_443:\n        /* \"#utility.yul\":16205:16210   */\n      dup1\n        /* \"#utility.yul\":16198:16211   */\n      iszero\n        /* \"#utility.yul\":16191:16212   */\n      iszero\n        /* \"#utility.yul\":16184:16189   */\n      dup2\n        /* \"#utility.yul\":16181:16213   */\n      eq\n        /* \"#utility.yul\":16171:16173   */\n      tag_146\n      jumpi\n        /* \"#utility.yul\":16227:16228   */\n      0x00\n        /* \"#utility.yul\":16224:16225   */\n      dup1\n        /* \"#utility.yul\":16217:16229   */\n      revert\n\n    auxdata: 0xa2646970667358221220402021907dca013eff0af5ab54ef566d739698875c44ef88ace8b1f37cc12d3d64736f6c63430008050033\n}\n",
				"bytecode": {
					"linkReferences": {},
					"object": "608060405260016000556200001433620000a0565b601b805473c778417e063141139fce010982780140aa0cd5ab6001600160a01b031990911617905562000069601c736ccb41eeda5a073076f3e7dc1614c185b5fa41ed620000f2602090811b620017b617901c565b5062000099734f0b12bbf40fc182559822a5b1db6d34dbc3e016601c620000f260201b620017b61790919060201c565b5062000164565b600180546001600160a01b038381166001600160a01b0319831681179093556040519116919082907f8be0079c531659141344cd1fd0a4f28419497f9722a3daafe3b4186f6b6457e090600090a35050565b600062000109836001600160a01b03841662000112565b90505b92915050565b60008181526001830160205260408120546200015b575081546001818101845560008481526020808220909301849055845484825282860190935260409020919091556200010c565b5060006200010c565b611de880620001746000396000f3fe6080604052600436106101405760003560e01c8063a8c9ed15116100b6578063cad5b0f71161006f578063cad5b0f714610440578063d4c1dee914610465578063e2d3f4231461047b578063eb002bb0146104ed578063f2fde38b1461050d578063f8b2cb4f1461052d57600080fd5b8063a8c9ed1514610331578063ab33985a14610351578063acfb235514610366578063ad5c4648146103ed578063ae2b09651461040d578063b6b55f251461042d57600080fd5b806356c5f3491161010857806356c5f34914610289578063715018a6146102b6578063861faf5f146102cd5780638da5cb5b146102d55780638edf18e61461030757806395661e701461031c57600080fd5b806312e5d0b91461014557806318856a2f1461017a5780631df4ccfc1461023a578063200d2ed21461025e5780633b5ef2ad14610273575b600080fd5b34801561015157600080fd5b50600d54600e54610160919082565b604080519283526020830191909152015b60405180910390f35b34801561018657600080fd5b50600f54601054601154601254601354601454601554601654601754601854601954601a546101ce9b6001600160a01b039081169b81169a16989796959493929160ff16908c565b604080516001600160a01b039d8e1681529b8d1660208d015299909b16988a01989098526060890196909652608088019490945260a087019290925260c086015260e0850152610100840152610120830152151561014082015261016081019190915261018001610171565b34801561024657600080fd5b50610250601e5481565b604051908152602001610171565b34801561026a57600080fd5b50610250610555565b34801561027f57600080fd5b50610250601f5481565b34801561029557600080fd5b506102506102a43660046119eb565b60036020526000908152604090205481565b3480156102c257600080fd5b506102cb61057e565b005b6102cb6105e9565b3480156102e157600080fd5b506001546001600160a01b03165b6040516001600160a01b039091168152602001610171565b34801561031357600080fd5b506102cb610618565b34801561032857600080fd5b506102cb6108dd565b34801561033d57600080fd5b506102cb61034c366004611a0f565b610ab4565b34801561035d57600080fd5b506102cb610e32565b34801561037257600080fd5b50600454600554600654600754600854600954600a54600b546103a5979695949392919060ff8082169161010090041689565b60408051998a5260208a0198909852968801959095526060870193909352608086019190915260a085015260c0840152151560e0830152151561010082015261012001610171565b3480156103f957600080fd5b50601b546102ef906001600160a01b031681565b34801561041957600080fd5b506020546102ef906001600160a01b031681565b6102cb61043b366004611b12565b611058565b34801561044c57600080fd5b50610455611427565b6040519015158152602001610171565b34801561047157600080fd5b5061025060215481565b34801561048757600080fd5b506104c56104963660046119eb565b600260208190526000918252604090912080546001820154928201546003830154600490930154919392909185565b604080519586526020860194909452928401919091526060830152608082015260a001610171565b3480156104f957600080fd5b506102cb610508366004611ad8565b611439565b34801561051957600080fd5b506102cb6105283660046119eb565b6116ee565b34801561053957600080fd5b506102506105483660046119eb565b6001600160a01b03163190565b6013546000904210156105685750600090565b6014544211156105785750600290565b50600190565b6001546001600160a01b031633146105dd5760405162461bcd60e51b815260206004820181905260248201527f4f776e61626c653a2063616c6c6572206973206e6f7420746865206f776e657260448201526064015b60405180910390fd5b6105e760006117d4565b565b60405133904780156108fc02916000818181858888f19350505050158015610615573d6000803e3d6000fd5b50565b600f546001600160a01b0316336001600160a01b0316146106705760405162461bcd60e51b815260206004820152601260248201527127b7363c90383932b9b0b6329037bbb732b960711b60448201526064016105d4565b600260005414156106935760405162461bcd60e51b81526004016105d490611bb6565b600260009081556010546040516370a0823160e01b81523060048201526001600160a01b03909116906370a082319060240160206040518083038186803b1580156106dd57600080fd5b505afa1580156106f1573d6000803e3d6000fd5b505050506040513d601f19601f820116820180604052508101906107159190611b2b565b60085460045491925060009161072a91611826565b6004549091501561075357600854600554610750916107499190611826565b8390611826565b91505b600b5460ff16156107a65760405162461bcd60e51b815260206004820152601d60248201527f4e6f7468696e6720666f72206f776e657220636c61696d20746f6b656e00000060448201526064016105d4565b600b54610100900460ff16156107fe5760405162461bcd60e51b815260206004820152601e60248201527f4e6f7468696e6720666f72206f776e657220726566756e6420746f6b656e000060448201526064016105d4565b600b805460ff191660011790556000601a55601054600f5460405163a9059cbb60e01b81526001600160a01b0391821660048201526024810185905291169063a9059cbb90604401602060405180830381600087803b15801561086057600080fd5b505af1158015610874573d6000803e3d6000fd5b505050506040513d601f19601f820116820180604052508101906108989190611af5565b50600f546040516001600160a01b039091169082156108fc029083906000818181858888f193505050501580156108d3573d6000803e3d6000fd5b5050600160005550565b600260005414156109005760405162461bcd60e51b81526004016105d490611bb6565b600260009081556007546004546109179190611d31565b116109345760405162461bcd60e51b81526004016105d490611b7f565b336000908152600260205260409020805461098b5760405162461bcd60e51b8152602060048201526017602482015276165bdd481a185d99481b9bdd08189bdd59da1d081e595d604a1b60448201526064016105d4565b60048101548154116109d05760405162461bcd60e51b815260206004820152600e60248201526d165bdd481c99599d5b9908185b1b60921b60448201526064016105d4565b80546017546000916109fb916103e8916109f5916109ef908490611826565b90611832565b9061183e565b8254909150610a0b908290611d31565b601e6000828254610a1c9190611bed565b909155505060078054829190600090610a36908490611bed565b9250508190555080826004016000828254610a519190611bed565b909155505042600283015560038201546001830154610a709190611d31565b60088054600090610a82908490611bed565b9091555050604051339082156108fc029083906000818181858888f193505050501580156108d3573d6000803e3d6000fd5b600f80546001600160a01b038088166001600160a01b03199283161790925560108054878416908316811790915560118054938716939092169290921790556040805163313ce56760e01b8152905163313ce56791600480820192602092909190829003018186803b158015610b2957600080fd5b505afa158015610b3d573d6000803e3d6000fd5b505050506040513d601f19601f82011682018060405250810190610b619190611b2b565b610b6c90600a611c6a565b8251610b789190611d12565b6012556020808301516013556040808401516014556060840151601555601154815163313ce56760e01b815291516001600160a01b039091169263313ce5679260048082019391829003018186803b158015610bd357600080fd5b505afa158015610be7573d6000803e3d6000fd5b505050506040513d601f19601f82011682018060405250810190610c0b9190611b2b565b610c1690600a611c6a565b6080830151610c259190611d12565b60165560a082015160175560c08201516018556011546040805163313ce56760e01b815290516001600160a01b039092169163313ce56791600480820192602092909190829003018186803b158015610c7d57600080fd5b505afa158015610c91573d6000803e3d6000fd5b505050506040513d601f19601f82011682018060405250810190610cb59190611b2b565b610cc090600a611c6a565b60e0830151610ccf9190611d12565b600d556011546040805163313ce56760e01b815290516001600160a01b039092169163313ce56791600480820192602092909190829003018186803b158015610d1757600080fd5b505afa158015610d2b573d6000803e3d6000fd5b505050506040513d601f19601f82011682018060405250810190610d4f9190611b2b565b610d5a90600a611c6a565b610100830151610d6a9190611d12565b600e55601154601b546019805460ff19166001600160a01b0392831692909316918214929092179091556040805163313ce56760e01b8152905163313ce56791600480820192602092909190829003018186803b158015610dca57600080fd5b505afa158015610dde573d6000803e3d6000fd5b505050506040513d601f19601f82011682018060405250810190610e029190611b2b565b610e0d90600a611c6a565b600d54601254610e1c91611832565b610e269190611c05565b601a55601f5550505050565b60026000541415610e555760405162461bcd60e51b81526004016105d490611bb6565b60026000908155600654600554610e6c9190611d31565b11610e895760405162461bcd60e51b81526004016105d490611b7f565b3360009081526002602052604090206001810154610ee35760405162461bcd60e51b8152602060048201526017602482015276165bdd481a185d99481b9bdd08189bdd59da1d081e595d604a1b60448201526064016105d4565b8060030154816001015411610f2b5760405162461bcd60e51b815260206004820152600e60248201526d165bdd4818db185a5b48185b1b1b60921b60448201526064016105d4565b6000610f556103e86109f584600101546109ef600f600901546103e861182690919063ffffffff16565b90508060046002016000828254610f6c9190611bed565b9091555050601a8054829190600090610f86908490611d31565b9250508190555080826003016000828254610fa19190611bed565b909155505042600283015560048201548254610fbd9190611d31565b60098054600090610fcf908490611bed565b909155505060105460405163a9059cbb60e01b8152336004820152602481018390526001600160a01b039091169063a9059cbb90604401602060405180830381600087803b15801561102057600080fd5b505af1158015611034573d6000803e3d6000fd5b505050506040513d601f19601f820116820180604052508101906108d39190611af5565b6002600054141561107b5760405162461bcd60e51b81526004016105d490611bb6565b600260008181553381526020919091526040812090829081906103e8348311156110e75760405162461bcd60e51b815260206004820152601a60248201527f506c656173652070726f76696465206e617669746520636f696e00000000000060448201526064016105d4565b60155483101561112c5760405162461bcd60e51b815260206004820152601060248201526f4e6f7420656e6f7567682076616c756560801b60448201526064016105d4565b60165483111561116f5760405162461bcd60e51b815260206004820152600e60248201526d4f766572666c6f772076616c756560901b60448201526064016105d4565b611177611427565b6111a757611198816109f5856109ef601f548661182690919063ffffffff16565b92506111a48385611d31565b91505b84546016546000916111b891611d31565b600454601a549192506000916111ce9190611d31565b905060008183116111df57826111e1565b815b9050808611156112255760405162461bcd60e51b815260206004820152600f60248201526e53616c65206973207375636365737360881b60448201526064016105d4565b60006112cc600f60020160009054906101000a90046001600160a01b03166001600160a01b031663313ce5676040518163ffffffff1660e01b815260040160206040518083038186803b15801561127b57600080fd5b505afa15801561128f573d6000803e3d6000fd5b505050506040513d601f19601f820116820180604052508101906112b39190611b2b565b6112be90600a611c6a565b6012546109f5908a90611832565b9050868960000160008282546112e29190611bed565b92505081905550808960010160008282546112fd9190611bed565b909155505060048054889190600090611317908490611bed565b909155505060058054829190600090611331908490611bed565b9091555050600a805490600061134683611d48565b9091555050336000908152600360205260408120805488929061136a908490611bed565b9250508190555085601e60008282546113839190611bed565b909155505060195460ff1680156113a35750346113a08789611bed565b11155b156113eb57336108fc876113b78a34611d31565b6113c19190611d31565b6040518115909202916000818181858888f193505050501580156113e9573d6000803e3d6000fd5b505b60195460ff1661141657601154611416906001600160a01b031633306114118a8c611bed565b61184a565b505060016000555050505050505050565b6000611434601c3361197a565b905090565b80156115d55760065460055460009161145191611d31565b1161146e5760405162461bcd60e51b81526004016105d490611b7f565b33600090815260026020526040902060038101546001820154116114e05760405162461bcd60e51b8152602060048201526024808201527f596f7520636c61696d20616c6c206f722068617665206e6f7420626f75676874604482015263081e595d60e21b60648201526084016105d4565b601054600182015460405163a9059cbb60e01b815233600482015260248101919091526001600160a01b039091169063a9059cbb90604401602060405180830381600087803b15801561153257600080fd5b505af1158015611546573d6000803e3d6000fd5b505050506040513d601f19601f8201168201806040525081019061156a9190611af5565b50600181015460068054600090611582908490611bed565b90915550506001810154601a805460009061159e908490611d31565b909155505060018101546003820180546000906115bc908490611bed565b9091555050600080825560018201554260029091015550565b6007546004546000916115e791611d31565b116116045760405162461bcd60e51b81526004016105d490611b7f565b336000908152600260205260409020805461166f5760405162461bcd60e51b815260206004820152602560248201527f596f7520726566756e6420616c6c206f722068617665206e6f7420626f7567686044820152641d081e595d60da1b60648201526084016105d4565b805461167b8180611d31565b601e600082825461168c9190611bed565b9091555050600780548291906000906116a6908490611bed565b9091555050600080835560018301819055426002840155604051339183156108fc02918491818181858888f193505050501580156116e8573d6000803e3d6000fd5b50505050565b6001546001600160a01b031633146117485760405162461bcd60e51b815260206004820181905260248201527f4f776e61626c653a2063616c6c6572206973206e6f7420746865206f776e657260448201526064016105d4565b6001600160a01b0381166117ad5760405162461bcd60e51b815260206004820152602660248201527f4f776e61626c653a206e6577206f776e657220697320746865207a65726f206160448201526564647265737360d01b60648201526084016105d4565b610615816117d4565b60006117cb836001600160a01b03841661199c565b90505b92915050565b600180546001600160a01b038381166001600160a01b0319831681179093556040519116919082907f8be0079c531659141344cd1fd0a4f28419497f9722a3daafe3b4186f6b6457e090600090a35050565b60006117cb8284611d31565b60006117cb8284611d12565b60006117cb8284611c05565b604080516001600160a01b0385811660248301528481166044830152606480830185905283518084039091018152608490920183526020820180516001600160e01b03166323b872dd60e01b17905291516000928392908816916118ae9190611b44565b6000604051808303816000865af19150503d80600081146118eb576040519150601f19603f3d011682016040523d82523d6000602084013e6118f0565b606091505b509150915081801561191a57508051158061191a57508080602001905181019061191a9190611af5565b6119725760405162461bcd60e51b8152602060048201526024808201527f5472616e7366657248656c7065723a205452414e534645525f46524f4d5f46416044820152631253115160e21b60648201526084016105d4565b505050505050565b6001600160a01b038116600090815260018301602052604081205415156117cb565b60008181526001830160205260408120546119e3575081546001818101845560008481526020808220909301849055845484825282860190935260409020919091556117ce565b5060006117ce565b6000602082840312156119fd57600080fd5b8135611a0881611d8f565b9392505050565b60008060008060006101a08688031215611a2857600080fd5b8535611a3381611d8f565b9450602086810135611a4481611d8f565b94506040870135611a5481611d8f565b9350607f87018813611a6557600080fd5b604051610120810181811067ffffffffffffffff82111715611a8957611a89611d79565b60405280606089016101808a018b811115611aa357600080fd5b60005b6009811015611ac357823584529285019291850191600101611aa6565b50989b979a5095985090963595945050505050565b600060208284031215611aea57600080fd5b8135611a0881611da4565b600060208284031215611b0757600080fd5b8151611a0881611da4565b600060208284031215611b2457600080fd5b5035919050565b600060208284031215611b3d57600080fd5b5051919050565b6000825160005b81811015611b655760208186018101518583015201611b4b565b81811115611b74576000828501525b509190910192915050565b6020808252601b908201527f416c6c20746f6b656e20686173206265656e2077697468647261770000000000604082015260600190565b6020808252601f908201527f5265656e7472616e637947756172643a207265656e7472616e742063616c6c00604082015260600190565b60008219821115611c0057611c00611d63565b500190565b600082611c2257634e487b7160e01b600052601260045260246000fd5b500490565b600181815b80851115611c62578160001904821115611c4857611c48611d63565b80851615611c5557918102915b93841c9390800290611c2c565b509250929050565b60006117cb8383600082611c80575060016117ce565b81611c8d575060006117ce565b8160018114611ca35760028114611cad57611cc9565b60019150506117ce565b60ff841115611cbe57611cbe611d63565b50506001821b6117ce565b5060208310610133831016604e8410600b8410161715611cec575081810a6117ce565b611cf68383611c27565b8060001904821115611d0a57611d0a611d63565b029392505050565b6000816000190483118215151615611d2c57611d2c611d63565b500290565b600082821015611d4357611d43611d63565b500390565b6000600019821415611d5c57611d5c611d63565b5060010190565b634e487b7160e01b600052601160045260246000fd5b634e487b7160e01b600052604160045260246000fd5b6001600160a01b038116811461061557600080fd5b801515811461061557600080fdfea2646970667358221220402021907dca013eff0af5ab54ef566d739698875c44ef88ace8b1f37cc12d3d64736f6c63430008050033",
					"opcodes": "PUSH1 0x80 PUSH1 0x40 MSTORE PUSH1 0x1 PUSH1 0x0 SSTORE PUSH3 0x14 CALLER PUSH3 0xA0 JUMP JUMPDEST PUSH1 0x1B DUP1 SLOAD PUSH20 0xC778417E063141139FCE010982780140AA0CD5AB PUSH1 0x1 PUSH1 0x1 PUSH1 0xA0 SHL SUB NOT SWAP1 SWAP2 AND OR SWAP1 SSTORE PUSH3 0x69 PUSH1 0x1C PUSH20 0x6CCB41EEDA5A073076F3E7DC1614C185B5FA41ED PUSH3 0xF2 PUSH1 0x20 SWAP1 DUP2 SHL PUSH3 0x17B6 OR SWAP1 SHR JUMP JUMPDEST POP PUSH3 0x99 PUSH20 0x4F0B12BBF40FC182559822A5B1DB6D34DBC3E016 PUSH1 0x1C PUSH3 0xF2 PUSH1 0x20 SHL PUSH3 0x17B6 OR SWAP1 SWAP2 SWAP1 PUSH1 0x20 SHR JUMP JUMPDEST POP PUSH3 0x164 JUMP JUMPDEST PUSH1 0x1 DUP1 SLOAD PUSH1 0x1 PUSH1 0x1 PUSH1 0xA0 SHL SUB DUP4 DUP2 AND PUSH1 0x1 PUSH1 0x1 PUSH1 0xA0 SHL SUB NOT DUP4 AND DUP2 OR SWAP1 SWAP4 SSTORE PUSH1 0x40 MLOAD SWAP2 AND SWAP2 SWAP1 DUP3 SWAP1 PUSH32 0x8BE0079C531659141344CD1FD0A4F28419497F9722A3DAAFE3B4186F6B6457E0 SWAP1 PUSH1 0x0 SWAP1 LOG3 POP POP JUMP JUMPDEST PUSH1 0x0 PUSH3 0x109 DUP4 PUSH1 0x1 PUSH1 0x1 PUSH1 0xA0 SHL SUB DUP5 AND PUSH3 0x112 JUMP JUMPDEST SWAP1 POP JUMPDEST SWAP3 SWAP2 POP POP JUMP JUMPDEST PUSH1 0x0 DUP2 DUP2 MSTORE PUSH1 0x1 DUP4 ADD PUSH1 0x20 MSTORE PUSH1 0x40 DUP2 KECCAK256 SLOAD PUSH3 0x15B JUMPI POP DUP2 SLOAD PUSH1 0x1 DUP2 DUP2 ADD DUP5 SSTORE PUSH1 0x0 DUP5 DUP2 MSTORE PUSH1 0x20 DUP1 DUP3 KECCAK256 SWAP1 SWAP4 ADD DUP5 SWAP1 SSTORE DUP5 SLOAD DUP5 DUP3 MSTORE DUP3 DUP7 ADD SWAP1 SWAP4 MSTORE PUSH1 0x40 SWAP1 KECCAK256 SWAP2 SWAP1 SWAP2 SSTORE PUSH3 0x10C JUMP JUMPDEST POP PUSH1 0x0 PUSH3 0x10C JUMP JUMPDEST PUSH2 0x1DE8 DUP1 PUSH3 0x174 PUSH1 0x0 CODECOPY PUSH1 0x0 RETURN INVALID PUSH1 0x80 PUSH1 0x40 MSTORE PUSH1 0x4 CALLDATASIZE LT PUSH2 0x140 JUMPI PUSH1 0x0 CALLDATALOAD PUSH1 0xE0 SHR DUP1 PUSH4 0xA8C9ED15 GT PUSH2 0xB6 JUMPI DUP1 PUSH4 0xCAD5B0F7 GT PUSH2 0x6F JUMPI DUP1 PUSH4 0xCAD5B0F7 EQ PUSH2 0x440 JUMPI DUP1 PUSH4 0xD4C1DEE9 EQ PUSH2 0x465 JUMPI DUP1 PUSH4 0xE2D3F423 EQ PUSH2 0x47B JUMPI DUP1 PUSH4 0xEB002BB0 EQ PUSH2 0x4ED JUMPI DUP1 PUSH4 0xF2FDE38B EQ PUSH2 0x50D JUMPI DUP1 PUSH4 0xF8B2CB4F EQ PUSH2 0x52D JUMPI PUSH1 0x0 DUP1 REVERT JUMPDEST DUP1 PUSH4 0xA8C9ED15 EQ PUSH2 0x331 JUMPI DUP1 PUSH4 0xAB33985A EQ PUSH2 0x351 JUMPI DUP1 PUSH4 0xACFB2355 EQ PUSH2 0x366 JUMPI DUP1 PUSH4 0xAD5C4648 EQ PUSH2 0x3ED JUMPI DUP1 PUSH4 0xAE2B0965 EQ PUSH2 0x40D JUMPI DUP1 PUSH4 0xB6B55F25 EQ PUSH2 0x42D JUMPI PUSH1 0x0 DUP1 REVERT JUMPDEST DUP1 PUSH4 0x56C5F349 GT PUSH2 0x108 JUMPI DUP1 PUSH4 0x56C5F349 EQ PUSH2 0x289 JUMPI DUP1 PUSH4 0x715018A6 EQ PUSH2 0x2B6 JUMPI DUP1 PUSH4 0x861FAF5F EQ PUSH2 0x2CD JUMPI DUP1 PUSH4 0x8DA5CB5B EQ PUSH2 0x2D5 JUMPI DUP1 PUSH4 0x8EDF18E6 EQ PUSH2 0x307 JUMPI DUP1 PUSH4 0x95661E70 EQ PUSH2 0x31C JUMPI PUSH1 0x0 DUP1 REVERT JUMPDEST DUP1 PUSH4 0x12E5D0B9 EQ PUSH2 0x145 JUMPI DUP1 PUSH4 0x18856A2F EQ PUSH2 0x17A JUMPI DUP1 PUSH4 0x1DF4CCFC EQ PUSH2 0x23A JUMPI DUP1 PUSH4 0x200D2ED2 EQ PUSH2 0x25E JUMPI DUP1 PUSH4 0x3B5EF2AD EQ PUSH2 0x273 JUMPI JUMPDEST PUSH1 0x0 DUP1 REVERT JUMPDEST CALLVALUE DUP1 ISZERO PUSH2 0x151 JUMPI PUSH1 0x0 DUP1 REVERT JUMPDEST POP PUSH1 0xD SLOAD PUSH1 0xE SLOAD PUSH2 0x160 SWAP2 SWAP1 DUP3 JUMP JUMPDEST PUSH1 0x40 DUP1 MLOAD SWAP3 DUP4 MSTORE PUSH1 0x20 DUP4 ADD SWAP2 SWAP1 SWAP2 MSTORE ADD JUMPDEST PUSH1 0x40 MLOAD DUP1 SWAP2 SUB SWAP1 RETURN JUMPDEST CALLVALUE DUP1 ISZERO PUSH2 0x186 JUMPI PUSH1 0x0 DUP1 REVERT JUMPDEST POP PUSH1 0xF SLOAD PUSH1 0x10 SLOAD PUSH1 0x11 SLOAD PUSH1 0x12 SLOAD PUSH1 0x13 SLOAD PUSH1 0x14 SLOAD PUSH1 0x15 SLOAD PUSH1 0x16 SLOAD PUSH1 0x17 SLOAD PUSH1 0x18 SLOAD PUSH1 0x19 SLOAD PUSH1 0x1A SLOAD PUSH2 0x1CE SWAP12 PUSH1 0x1 PUSH1 0x1 PUSH1 0xA0 SHL SUB SWAP1 DUP2 AND SWAP12 DUP2 AND SWAP11 AND SWAP9 SWAP8 SWAP7 SWAP6 SWAP5 SWAP4 SWAP3 SWAP2 PUSH1 0xFF AND SWAP1 DUP13 JUMP JUMPDEST PUSH1 0x40 DUP1 MLOAD PUSH1 0x1 PUSH1 0x1 PUSH1 0xA0 SHL SUB SWAP14 DUP15 AND DUP2 MSTORE SWAP12 DUP14 AND PUSH1 0x20 DUP14 ADD MSTORE SWAP10 SWAP1 SWAP12 AND SWAP9 DUP11 ADD SWAP9 SWAP1 SWAP9 MSTORE PUSH1 0x60 DUP10 ADD SWAP7 SWAP1 SWAP7 MSTORE PUSH1 0x80 DUP9 ADD SWAP5 SWAP1 SWAP5 MSTORE PUSH1 0xA0 DUP8 ADD SWAP3 SWAP1 SWAP3 MSTORE PUSH1 0xC0 DUP7 ADD MSTORE PUSH1 0xE0 DUP6 ADD MSTORE PUSH2 0x100 DUP5 ADD MSTORE PUSH2 0x120 DUP4 ADD MSTORE ISZERO ISZERO PUSH2 0x140 DUP3 ADD MSTORE PUSH2 0x160 DUP2 ADD SWAP2 SWAP1 SWAP2 MSTORE PUSH2 0x180 ADD PUSH2 0x171 JUMP JUMPDEST CALLVALUE DUP1 ISZERO PUSH2 0x246 JUMPI PUSH1 0x0 DUP1 REVERT JUMPDEST POP PUSH2 0x250 PUSH1 0x1E SLOAD DUP2 JUMP JUMPDEST PUSH1 0x40 MLOAD SWAP1 DUP2 MSTORE PUSH1 0x20 ADD PUSH2 0x171 JUMP JUMPDEST CALLVALUE DUP1 ISZERO PUSH2 0x26A JUMPI PUSH1 0x0 DUP1 REVERT JUMPDEST POP PUSH2 0x250 PUSH2 0x555 JUMP JUMPDEST CALLVALUE DUP1 ISZERO PUSH2 0x27F JUMPI PUSH1 0x0 DUP1 REVERT JUMPDEST POP PUSH2 0x250 PUSH1 0x1F SLOAD DUP2 JUMP JUMPDEST CALLVALUE DUP1 ISZERO PUSH2 0x295 JUMPI PUSH1 0x0 DUP1 REVERT JUMPDEST POP PUSH2 0x250 PUSH2 0x2A4 CALLDATASIZE PUSH1 0x4 PUSH2 0x19EB JUMP JUMPDEST PUSH1 0x3 PUSH1 0x20 MSTORE PUSH1 0x0 SWAP1 DUP2 MSTORE PUSH1 0x40 SWAP1 KECCAK256 SLOAD DUP2 JUMP JUMPDEST CALLVALUE DUP1 ISZERO PUSH2 0x2C2 JUMPI PUSH1 0x0 DUP1 REVERT JUMPDEST POP PUSH2 0x2CB PUSH2 0x57E JUMP JUMPDEST STOP JUMPDEST PUSH2 0x2CB PUSH2 0x5E9 JUMP JUMPDEST CALLVALUE DUP1 ISZERO PUSH2 0x2E1 JUMPI PUSH1 0x0 DUP1 REVERT JUMPDEST POP PUSH1 0x1 SLOAD PUSH1 0x1 PUSH1 0x1 PUSH1 0xA0 SHL SUB AND JUMPDEST PUSH1 0x40 MLOAD PUSH1 0x1 PUSH1 0x1 PUSH1 0xA0 SHL SUB SWAP1 SWAP2 AND DUP2 MSTORE PUSH1 0x20 ADD PUSH2 0x171 JUMP JUMPDEST CALLVALUE DUP1 ISZERO PUSH2 0x313 JUMPI PUSH1 0x0 DUP1 REVERT JUMPDEST POP PUSH2 0x2CB PUSH2 0x618 JUMP JUMPDEST CALLVALUE DUP1 ISZERO PUSH2 0x328 JUMPI PUSH1 0x0 DUP1 REVERT JUMPDEST POP PUSH2 0x2CB PUSH2 0x8DD JUMP JUMPDEST CALLVALUE DUP1 ISZERO PUSH2 0x33D JUMPI PUSH1 0x0 DUP1 REVERT JUMPDEST POP PUSH2 0x2CB PUSH2 0x34C CALLDATASIZE PUSH1 0x4 PUSH2 0x1A0F JUMP JUMPDEST PUSH2 0xAB4 JUMP JUMPDEST CALLVALUE DUP1 ISZERO PUSH2 0x35D JUMPI PUSH1 0x0 DUP1 REVERT JUMPDEST POP PUSH2 0x2CB PUSH2 0xE32 JUMP JUMPDEST CALLVALUE DUP1 ISZERO PUSH2 0x372 JUMPI PUSH1 0x0 DUP1 REVERT JUMPDEST POP PUSH1 0x4 SLOAD PUSH1 0x5 SLOAD PUSH1 0x6 SLOAD PUSH1 0x7 SLOAD PUSH1 0x8 SLOAD PUSH1 0x9 SLOAD PUSH1 0xA SLOAD PUSH1 0xB SLOAD PUSH2 0x3A5 SWAP8 SWAP7 SWAP6 SWAP5 SWAP4 SWAP3 SWAP2 SWAP1 PUSH1 0xFF DUP1 DUP3 AND SWAP2 PUSH2 0x100 SWAP1 DIV AND DUP10 JUMP JUMPDEST PUSH1 0x40 DUP1 MLOAD SWAP10 DUP11 MSTORE PUSH1 0x20 DUP11 ADD SWAP9 SWAP1 SWAP9 MSTORE SWAP7 DUP9 ADD SWAP6 SWAP1 SWAP6 MSTORE PUSH1 0x60 DUP8 ADD SWAP4 SWAP1 SWAP4 MSTORE PUSH1 0x80 DUP7 ADD SWAP2 SWAP1 SWAP2 MSTORE PUSH1 0xA0 DUP6 ADD MSTORE PUSH1 0xC0 DUP5 ADD MSTORE ISZERO ISZERO PUSH1 0xE0 DUP4 ADD MSTORE ISZERO ISZERO PUSH2 0x100 DUP3 ADD MSTORE PUSH2 0x120 ADD PUSH2 0x171 JUMP JUMPDEST CALLVALUE DUP1 ISZERO PUSH2 0x3F9 JUMPI PUSH1 0x0 DUP1 REVERT JUMPDEST POP PUSH1 0x1B SLOAD PUSH2 0x2EF SWAP1 PUSH1 0x1 PUSH1 0x1 PUSH1 0xA0 SHL SUB AND DUP2 JUMP JUMPDEST CALLVALUE DUP1 ISZERO PUSH2 0x419 JUMPI PUSH1 0x0 DUP1 REVERT JUMPDEST POP PUSH1 0x20 SLOAD PUSH2 0x2EF SWAP1 PUSH1 0x1 PUSH1 0x1 PUSH1 0xA0 SHL SUB AND DUP2 JUMP JUMPDEST PUSH2 0x2CB PUSH2 0x43B CALLDATASIZE PUSH1 0x4 PUSH2 0x1B12 JUMP JUMPDEST PUSH2 0x1058 JUMP JUMPDEST CALLVALUE DUP1 ISZERO PUSH2 0x44C JUMPI PUSH1 0x0 DUP1 REVERT JUMPDEST POP PUSH2 0x455 PUSH2 0x1427 JUMP JUMPDEST PUSH1 0x40 MLOAD SWAP1 ISZERO ISZERO DUP2 MSTORE PUSH1 0x20 ADD PUSH2 0x171 JUMP JUMPDEST CALLVALUE DUP1 ISZERO PUSH2 0x471 JUMPI PUSH1 0x0 DUP1 REVERT JUMPDEST POP PUSH2 0x250 PUSH1 0x21 SLOAD DUP2 JUMP JUMPDEST CALLVALUE DUP1 ISZERO PUSH2 0x487 JUMPI PUSH1 0x0 DUP1 REVERT JUMPDEST POP PUSH2 0x4C5 PUSH2 0x496 CALLDATASIZE PUSH1 0x4 PUSH2 0x19EB JUMP JUMPDEST PUSH1 0x2 PUSH1 0x20 DUP2 SWAP1 MSTORE PUSH1 0x0 SWAP2 DUP3 MSTORE PUSH1 0x40 SWAP1 SWAP2 KECCAK256 DUP1 SLOAD PUSH1 0x1 DUP3 ADD SLOAD SWAP3 DUP3 ADD SLOAD PUSH1 0x3 DUP4 ADD SLOAD PUSH1 0x4 SWAP1 SWAP4 ADD SLOAD SWAP2 SWAP4 SWAP3 SWAP1 SWAP2 DUP6 JUMP JUMPDEST PUSH1 0x40 DUP1 MLOAD SWAP6 DUP7 MSTORE PUSH1 0x20 DUP7 ADD SWAP5 SWAP1 SWAP5 MSTORE SWAP3 DUP5 ADD SWAP2 SWAP1 SWAP2 MSTORE PUSH1 0x60 DUP4 ADD MSTORE PUSH1 0x80 DUP3 ADD MSTORE PUSH1 0xA0 ADD PUSH2 0x171 JUMP JUMPDEST CALLVALUE DUP1 ISZERO PUSH2 0x4F9 JUMPI PUSH1 0x0 DUP1 REVERT JUMPDEST POP PUSH2 0x2CB PUSH2 0x508 CALLDATASIZE PUSH1 0x4 PUSH2 0x1AD8 JUMP JUMPDEST PUSH2 0x1439 JUMP JUMPDEST CALLVALUE DUP1 ISZERO PUSH2 0x519 JUMPI PUSH1 0x0 DUP1 REVERT JUMPDEST POP PUSH2 0x2CB PUSH2 0x528 CALLDATASIZE PUSH1 0x4 PUSH2 0x19EB JUMP JUMPDEST PUSH2 0x16EE JUMP JUMPDEST CALLVALUE DUP1 ISZERO PUSH2 0x539 JUMPI PUSH1 0x0 DUP1 REVERT JUMPDEST POP PUSH2 0x250 PUSH2 0x548 CALLDATASIZE PUSH1 0x4 PUSH2 0x19EB JUMP JUMPDEST PUSH1 0x1 PUSH1 0x1 PUSH1 0xA0 SHL SUB AND BALANCE SWAP1 JUMP JUMPDEST PUSH1 0x13 SLOAD PUSH1 0x0 SWAP1 TIMESTAMP LT ISZERO PUSH2 0x568 JUMPI POP PUSH1 0x0 SWAP1 JUMP JUMPDEST PUSH1 0x14 SLOAD TIMESTAMP GT ISZERO PUSH2 0x578 JUMPI POP PUSH1 0x2 SWAP1 JUMP JUMPDEST POP PUSH1 0x1 SWAP1 JUMP JUMPDEST PUSH1 0x1 SLOAD PUSH1 0x1 PUSH1 0x1 PUSH1 0xA0 SHL SUB AND CALLER EQ PUSH2 0x5DD JUMPI PUSH1 0x40 MLOAD PUSH3 0x461BCD PUSH1 0xE5 SHL DUP2 MSTORE PUSH1 0x20 PUSH1 0x4 DUP3 ADD DUP2 SWAP1 MSTORE PUSH1 0x24 DUP3 ADD MSTORE PUSH32 0x4F776E61626C653A2063616C6C6572206973206E6F7420746865206F776E6572 PUSH1 0x44 DUP3 ADD MSTORE PUSH1 0x64 ADD JUMPDEST PUSH1 0x40 MLOAD DUP1 SWAP2 SUB SWAP1 REVERT JUMPDEST PUSH2 0x5E7 PUSH1 0x0 PUSH2 0x17D4 JUMP JUMPDEST JUMP JUMPDEST PUSH1 0x40 MLOAD CALLER SWAP1 SELFBALANCE DUP1 ISZERO PUSH2 0x8FC MUL SWAP2 PUSH1 0x0 DUP2 DUP2 DUP2 DUP6 DUP9 DUP9 CALL SWAP4 POP POP POP POP ISZERO DUP1 ISZERO PUSH2 0x615 JUMPI RETURNDATASIZE PUSH1 0x0 DUP1 RETURNDATACOPY RETURNDATASIZE PUSH1 0x0 REVERT JUMPDEST POP JUMP JUMPDEST PUSH1 0xF SLOAD PUSH1 0x1 PUSH1 0x1 PUSH1 0xA0 SHL SUB AND CALLER PUSH1 0x1 PUSH1 0x1 PUSH1 0xA0 SHL SUB AND EQ PUSH2 0x670 JUMPI PUSH1 0x40 MLOAD PUSH3 0x461BCD PUSH1 0xE5 SHL DUP2 MSTORE PUSH1 0x20 PUSH1 0x4 DUP3 ADD MSTORE PUSH1 0x12 PUSH1 0x24 DUP3 ADD MSTORE PUSH18 0x27B7363C90383932B9B0B6329037BBB732B9 PUSH1 0x71 SHL PUSH1 0x44 DUP3 ADD MSTORE PUSH1 0x64 ADD PUSH2 0x5D4 JUMP JUMPDEST PUSH1 0x2 PUSH1 0x0 SLOAD EQ ISZERO PUSH2 0x693 JUMPI PUSH1 0x40 MLOAD PUSH3 0x461BCD PUSH1 0xE5 SHL DUP2 MSTORE PUSH1 0x4 ADD PUSH2 0x5D4 SWAP1 PUSH2 0x1BB6 JUMP JUMPDEST PUSH1 0x2 PUSH1 0x0 SWAP1 DUP2 SSTORE PUSH1 0x10 SLOAD PUSH1 0x40 MLOAD PUSH4 0x70A08231 PUSH1 0xE0 SHL DUP2 MSTORE ADDRESS PUSH1 0x4 DUP3 ADD MSTORE PUSH1 0x1 PUSH1 0x1 PUSH1 0xA0 SHL SUB SWAP1 SWAP2 AND SWAP1 PUSH4 0x70A08231 SWAP1 PUSH1 0x24 ADD PUSH1 0x20 PUSH1 0x40 MLOAD DUP1 DUP4 SUB DUP2 DUP7 DUP1 EXTCODESIZE ISZERO DUP1 ISZERO PUSH2 0x6DD JUMPI PUSH1 0x0 DUP1 REVERT JUMPDEST POP GAS STATICCALL ISZERO DUP1 ISZERO PUSH2 0x6F1 JUMPI RETURNDATASIZE PUSH1 0x0 DUP1 RETURNDATACOPY RETURNDATASIZE PUSH1 0x0 REVERT JUMPDEST POP POP POP POP PUSH1 0x40 MLOAD RETURNDATASIZE PUSH1 0x1F NOT PUSH1 0x1F DUP3 ADD AND DUP3 ADD DUP1 PUSH1 0x40 MSTORE POP DUP2 ADD SWAP1 PUSH2 0x715 SWAP2 SWAP1 PUSH2 0x1B2B JUMP JUMPDEST PUSH1 0x8 SLOAD PUSH1 0x4 SLOAD SWAP2 SWAP3 POP PUSH1 0x0 SWAP2 PUSH2 0x72A SWAP2 PUSH2 0x1826 JUMP JUMPDEST PUSH1 0x4 SLOAD SWAP1 SWAP2 POP ISZERO PUSH2 0x753 JUMPI PUSH1 0x8 SLOAD PUSH1 0x5 SLOAD PUSH2 0x750 SWAP2 PUSH2 0x749 SWAP2 SWAP1 PUSH2 0x1826 JUMP JUMPDEST DUP4 SWAP1 PUSH2 0x1826 JUMP JUMPDEST SWAP2 POP JUMPDEST PUSH1 0xB SLOAD PUSH1 0xFF AND ISZERO PUSH2 0x7A6 JUMPI PUSH1 0x40 MLOAD PUSH3 0x461BCD PUSH1 0xE5 SHL DUP2 MSTORE PUSH1 0x20 PUSH1 0x4 DUP3 ADD MSTORE PUSH1 0x1D PUSH1 0x24 DUP3 ADD MSTORE PUSH32 0x4E6F7468696E6720666F72206F776E657220636C61696D20746F6B656E000000 PUSH1 0x44 DUP3 ADD MSTORE PUSH1 0x64 ADD PUSH2 0x5D4 JUMP JUMPDEST PUSH1 0xB SLOAD PUSH2 0x100 SWAP1 DIV PUSH1 0xFF AND ISZERO PUSH2 0x7FE JUMPI PUSH1 0x40 MLOAD PUSH3 0x461BCD PUSH1 0xE5 SHL DUP2 MSTORE PUSH1 0x20 PUSH1 0x4 DUP3 ADD MSTORE PUSH1 0x1E PUSH1 0x24 DUP3 ADD MSTORE PUSH32 0x4E6F7468696E6720666F72206F776E657220726566756E6420746F6B656E0000 PUSH1 0x44 DUP3 ADD MSTORE PUSH1 0x64 ADD PUSH2 0x5D4 JUMP JUMPDEST PUSH1 0xB DUP1 SLOAD PUSH1 0xFF NOT AND PUSH1 0x1 OR SWAP1 SSTORE PUSH1 0x0 PUSH1 0x1A SSTORE PUSH1 0x10 SLOAD PUSH1 0xF SLOAD PUSH1 0x40 MLOAD PUSH4 0xA9059CBB PUSH1 0xE0 SHL DUP2 MSTORE PUSH1 0x1 PUSH1 0x1 PUSH1 0xA0 SHL SUB SWAP2 DUP3 AND PUSH1 0x4 DUP3 ADD MSTORE PUSH1 0x24 DUP2 ADD DUP6 SWAP1 MSTORE SWAP2 AND SWAP1 PUSH4 0xA9059CBB SWAP1 PUSH1 0x44 ADD PUSH1 0x20 PUSH1 0x40 MLOAD DUP1 DUP4 SUB DUP2 PUSH1 0x0 DUP8 DUP1 EXTCODESIZE ISZERO DUP1 ISZERO PUSH2 0x860 JUMPI PUSH1 0x0 DUP1 REVERT JUMPDEST POP GAS CALL ISZERO DUP1 ISZERO PUSH2 0x874 JUMPI RETURNDATASIZE PUSH1 0x0 DUP1 RETURNDATACOPY RETURNDATASIZE PUSH1 0x0 REVERT JUMPDEST POP POP POP POP PUSH1 0x40 MLOAD RETURNDATASIZE PUSH1 0x1F NOT PUSH1 0x1F DUP3 ADD AND DUP3 ADD DUP1 PUSH1 0x40 MSTORE POP DUP2 ADD SWAP1 PUSH2 0x898 SWAP2 SWAP1 PUSH2 0x1AF5 JUMP JUMPDEST POP PUSH1 0xF SLOAD PUSH1 0x40 MLOAD PUSH1 0x1 PUSH1 0x1 PUSH1 0xA0 SHL SUB SWAP1 SWAP2 AND SWAP1 DUP3 ISZERO PUSH2 0x8FC MUL SWAP1 DUP4 SWAP1 PUSH1 0x0 DUP2 DUP2 DUP2 DUP6 DUP9 DUP9 CALL SWAP4 POP POP POP POP ISZERO DUP1 ISZERO PUSH2 0x8D3 JUMPI RETURNDATASIZE PUSH1 0x0 DUP1 RETURNDATACOPY RETURNDATASIZE PUSH1 0x0 REVERT JUMPDEST POP POP PUSH1 0x1 PUSH1 0x0 SSTORE POP JUMP JUMPDEST PUSH1 0x2 PUSH1 0x0 SLOAD EQ ISZERO PUSH2 0x900 JUMPI PUSH1 0x40 MLOAD PUSH3 0x461BCD PUSH1 0xE5 SHL DUP2 MSTORE PUSH1 0x4 ADD PUSH2 0x5D4 SWAP1 PUSH2 0x1BB6 JUMP JUMPDEST PUSH1 0x2 PUSH1 0x0 SWAP1 DUP2 SSTORE PUSH1 0x7 SLOAD PUSH1 0x4 SLOAD PUSH2 0x917 SWAP2 SWAP1 PUSH2 0x1D31 JUMP JUMPDEST GT PUSH2 0x934 JUMPI PUSH1 0x40 MLOAD PUSH3 0x461BCD PUSH1 0xE5 SHL DUP2 MSTORE PUSH1 0x4 ADD PUSH2 0x5D4 SWAP1 PUSH2 0x1B7F JUMP JUMPDEST CALLER PUSH1 0x0 SWAP1 DUP2 MSTORE PUSH1 0x2 PUSH1 0x20 MSTORE PUSH1 0x40 SWAP1 KECCAK256 DUP1 SLOAD PUSH2 0x98B JUMPI PUSH1 0x40 MLOAD PUSH3 0x461BCD PUSH1 0xE5 SHL DUP2 MSTORE PUSH1 0x20 PUSH1 0x4 DUP3 ADD MSTORE PUSH1 0x17 PUSH1 0x24 DUP3 ADD MSTORE PUSH23 0x165BDD481A185D99481B9BDD08189BDD59DA1D081E595D PUSH1 0x4A SHL PUSH1 0x44 DUP3 ADD MSTORE PUSH1 0x64 ADD PUSH2 0x5D4 JUMP JUMPDEST PUSH1 0x4 DUP2 ADD SLOAD DUP2 SLOAD GT PUSH2 0x9D0 JUMPI PUSH1 0x40 MLOAD PUSH3 0x461BCD PUSH1 0xE5 SHL DUP2 MSTORE PUSH1 0x20 PUSH1 0x4 DUP3 ADD MSTORE PUSH1 0xE PUSH1 0x24 DUP3 ADD MSTORE PUSH14 0x165BDD481C99599D5B9908185B1B PUSH1 0x92 SHL PUSH1 0x44 DUP3 ADD MSTORE PUSH1 0x64 ADD PUSH2 0x5D4 JUMP JUMPDEST DUP1 SLOAD PUSH1 0x17 SLOAD PUSH1 0x0 SWAP2 PUSH2 0x9FB SWAP2 PUSH2 0x3E8 SWAP2 PUSH2 0x9F5 SWAP2 PUSH2 0x9EF SWAP1 DUP5 SWAP1 PUSH2 0x1826 JUMP JUMPDEST SWAP1 PUSH2 0x1832 JUMP JUMPDEST SWAP1 PUSH2 0x183E JUMP JUMPDEST DUP3 SLOAD SWAP1 SWAP2 POP PUSH2 0xA0B SWAP1 DUP3 SWAP1 PUSH2 0x1D31 JUMP JUMPDEST PUSH1 0x1E PUSH1 0x0 DUP3 DUP3 SLOAD PUSH2 0xA1C SWAP2 SWAP1 PUSH2 0x1BED JUMP JUMPDEST SWAP1 SWAP2 SSTORE POP POP PUSH1 0x7 DUP1 SLOAD DUP3 SWAP2 SWAP1 PUSH1 0x0 SWAP1 PUSH2 0xA36 SWAP1 DUP5 SWAP1 PUSH2 0x1BED JUMP JUMPDEST SWAP3 POP POP DUP2 SWAP1 SSTORE POP DUP1 DUP3 PUSH1 0x4 ADD PUSH1 0x0 DUP3 DUP3 SLOAD PUSH2 0xA51 SWAP2 SWAP1 PUSH2 0x1BED JUMP JUMPDEST SWAP1 SWAP2 SSTORE POP POP TIMESTAMP PUSH1 0x2 DUP4 ADD SSTORE PUSH1 0x3 DUP3 ADD SLOAD PUSH1 0x1 DUP4 ADD SLOAD PUSH2 0xA70 SWAP2 SWAP1 PUSH2 0x1D31 JUMP JUMPDEST PUSH1 0x8 DUP1 SLOAD PUSH1 0x0 SWAP1 PUSH2 0xA82 SWAP1 DUP5 SWAP1 PUSH2 0x1BED JUMP JUMPDEST SWAP1 SWAP2 SSTORE POP POP PUSH1 0x40 MLOAD CALLER SWAP1 DUP3 ISZERO PUSH2 0x8FC MUL SWAP1 DUP4 SWAP1 PUSH1 0x0 DUP2 DUP2 DUP2 DUP6 DUP9 DUP9 CALL SWAP4 POP POP POP POP ISZERO DUP1 ISZERO PUSH2 0x8D3 JUMPI RETURNDATASIZE PUSH1 0x0 DUP1 RETURNDATACOPY RETURNDATASIZE PUSH1 0x0 REVERT JUMPDEST PUSH1 0xF DUP1 SLOAD PUSH1 0x1 PUSH1 0x1 PUSH1 0xA0 SHL SUB DUP1 DUP9 AND PUSH1 0x1 PUSH1 0x1 PUSH1 0xA0 SHL SUB NOT SWAP3 DUP4 AND OR SWAP1 SWAP3 SSTORE PUSH1 0x10 DUP1 SLOAD DUP8 DUP5 AND SWAP1 DUP4 AND DUP2 OR SWAP1 SWAP2 SSTORE PUSH1 0x11 DUP1 SLOAD SWAP4 DUP8 AND SWAP4 SWAP1 SWAP3 AND SWAP3 SWAP1 SWAP3 OR SWAP1 SSTORE PUSH1 0x40 DUP1 MLOAD PUSH4 0x313CE567 PUSH1 0xE0 SHL DUP2 MSTORE SWAP1 MLOAD PUSH4 0x313CE567 SWAP2 PUSH1 0x4 DUP1 DUP3 ADD SWAP3 PUSH1 0x20 SWAP3 SWAP1 SWAP2 SWAP1 DUP3 SWAP1 SUB ADD DUP2 DUP7 DUP1 EXTCODESIZE ISZERO DUP1 ISZERO PUSH2 0xB29 JUMPI PUSH1 0x0 DUP1 REVERT JUMPDEST POP GAS STATICCALL ISZERO DUP1 ISZERO PUSH2 0xB3D JUMPI RETURNDATASIZE PUSH1 0x0 DUP1 RETURNDATACOPY RETURNDATASIZE PUSH1 0x0 REVERT JUMPDEST POP POP POP POP PUSH1 0x40 MLOAD RETURNDATASIZE PUSH1 0x1F NOT PUSH1 0x1F DUP3 ADD AND DUP3 ADD DUP1 PUSH1 0x40 MSTORE POP DUP2 ADD SWAP1 PUSH2 0xB61 SWAP2 SWAP1 PUSH2 0x1B2B JUMP JUMPDEST PUSH2 0xB6C SWAP1 PUSH1 0xA PUSH2 0x1C6A JUMP JUMPDEST DUP3 MLOAD PUSH2 0xB78 SWAP2 SWAP1 PUSH2 0x1D12 JUMP JUMPDEST PUSH1 0x12 SSTORE PUSH1 0x20 DUP1 DUP4 ADD MLOAD PUSH1 0x13 SSTORE PUSH1 0x40 DUP1 DUP5 ADD MLOAD PUSH1 0x14 SSTORE PUSH1 0x60 DUP5 ADD MLOAD PUSH1 0x15 SSTORE PUSH1 0x11 SLOAD DUP2 MLOAD PUSH4 0x313CE567 PUSH1 0xE0 SHL DUP2 MSTORE SWAP2 MLOAD PUSH1 0x1 PUSH1 0x1 PUSH1 0xA0 SHL SUB SWAP1 SWAP2 AND SWAP3 PUSH4 0x313CE567 SWAP3 PUSH1 0x4 DUP1 DUP3 ADD SWAP4 SWAP2 DUP3 SWAP1 SUB ADD DUP2 DUP7 DUP1 EXTCODESIZE ISZERO DUP1 ISZERO PUSH2 0xBD3 JUMPI PUSH1 0x0 DUP1 REVERT JUMPDEST POP GAS STATICCALL ISZERO DUP1 ISZERO PUSH2 0xBE7 JUMPI RETURNDATASIZE PUSH1 0x0 DUP1 RETURNDATACOPY RETURNDATASIZE PUSH1 0x0 REVERT JUMPDEST POP POP POP POP PUSH1 0x40 MLOAD RETURNDATASIZE PUSH1 0x1F NOT PUSH1 0x1F DUP3 ADD AND DUP3 ADD DUP1 PUSH1 0x40 MSTORE POP DUP2 ADD SWAP1 PUSH2 0xC0B SWAP2 SWAP1 PUSH2 0x1B2B JUMP JUMPDEST PUSH2 0xC16 SWAP1 PUSH1 0xA PUSH2 0x1C6A JUMP JUMPDEST PUSH1 0x80 DUP4 ADD MLOAD PUSH2 0xC25 SWAP2 SWAP1 PUSH2 0x1D12 JUMP JUMPDEST PUSH1 0x16 SSTORE PUSH1 0xA0 DUP3 ADD MLOAD PUSH1 0x17 SSTORE PUSH1 0xC0 DUP3 ADD MLOAD PUSH1 0x18 SSTORE PUSH1 0x11 SLOAD PUSH1 0x40 DUP1 MLOAD PUSH4 0x313CE567 PUSH1 0xE0 SHL DUP2 MSTORE SWAP1 MLOAD PUSH1 0x1 PUSH1 0x1 PUSH1 0xA0 SHL SUB SWAP1 SWAP3 AND SWAP2 PUSH4 0x313CE567 SWAP2 PUSH1 0x4 DUP1 DUP3 ADD SWAP3 PUSH1 0x20 SWAP3 SWAP1 SWAP2 SWAP1 DUP3 SWAP1 SUB ADD DUP2 DUP7 DUP1 EXTCODESIZE ISZERO DUP1 ISZERO PUSH2 0xC7D JUMPI PUSH1 0x0 DUP1 REVERT JUMPDEST POP GAS STATICCALL ISZERO DUP1 ISZERO PUSH2 0xC91 JUMPI RETURNDATASIZE PUSH1 0x0 DUP1 RETURNDATACOPY RETURNDATASIZE PUSH1 0x0 REVERT JUMPDEST POP POP POP POP PUSH1 0x40 MLOAD RETURNDATASIZE PUSH1 0x1F NOT PUSH1 0x1F DUP3 ADD AND DUP3 ADD DUP1 PUSH1 0x40 MSTORE POP DUP2 ADD SWAP1 PUSH2 0xCB5 SWAP2 SWAP1 PUSH2 0x1B2B JUMP JUMPDEST PUSH2 0xCC0 SWAP1 PUSH1 0xA PUSH2 0x1C6A JUMP JUMPDEST PUSH1 0xE0 DUP4 ADD MLOAD PUSH2 0xCCF SWAP2 SWAP1 PUSH2 0x1D12 JUMP JUMPDEST PUSH1 0xD SSTORE PUSH1 0x11 SLOAD PUSH1 0x40 DUP1 MLOAD PUSH4 0x313CE567 PUSH1 0xE0 SHL DUP2 MSTORE SWAP1 MLOAD PUSH1 0x1 PUSH1 0x1 PUSH1 0xA0 SHL SUB SWAP1 SWAP3 AND SWAP2 PUSH4 0x313CE567 SWAP2 PUSH1 0x4 DUP1 DUP3 ADD SWAP3 PUSH1 0x20 SWAP3 SWAP1 SWAP2 SWAP1 DUP3 SWAP1 SUB ADD DUP2 DUP7 DUP1 EXTCODESIZE ISZERO DUP1 ISZERO PUSH2 0xD17 JUMPI PUSH1 0x0 DUP1 REVERT JUMPDEST POP GAS STATICCALL ISZERO DUP1 ISZERO PUSH2 0xD2B JUMPI RETURNDATASIZE PUSH1 0x0 DUP1 RETURNDATACOPY RETURNDATASIZE PUSH1 0x0 REVERT JUMPDEST POP POP POP POP PUSH1 0x40 MLOAD RETURNDATASIZE PUSH1 0x1F NOT PUSH1 0x1F DUP3 ADD AND DUP3 ADD DUP1 PUSH1 0x40 MSTORE POP DUP2 ADD SWAP1 PUSH2 0xD4F SWAP2 SWAP1 PUSH2 0x1B2B JUMP JUMPDEST PUSH2 0xD5A SWAP1 PUSH1 0xA PUSH2 0x1C6A JUMP JUMPDEST PUSH2 0x100 DUP4 ADD MLOAD PUSH2 0xD6A SWAP2 SWAP1 PUSH2 0x1D12 JUMP JUMPDEST PUSH1 0xE SSTORE PUSH1 0x11 SLOAD PUSH1 0x1B SLOAD PUSH1 0x19 DUP1 SLOAD PUSH1 0xFF NOT AND PUSH1 0x1 PUSH1 0x1 PUSH1 0xA0 SHL SUB SWAP3 DUP4 AND SWAP3 SWAP1 SWAP4 AND SWAP2 DUP3 EQ SWAP3 SWAP1 SWAP3 OR SWAP1 SWAP2 SSTORE PUSH1 0x40 DUP1 MLOAD PUSH4 0x313CE567 PUSH1 0xE0 SHL DUP2 MSTORE SWAP1 MLOAD PUSH4 0x313CE567 SWAP2 PUSH1 0x4 DUP1 DUP3 ADD SWAP3 PUSH1 0x20 SWAP3 SWAP1 SWAP2 SWAP1 DUP3 SWAP1 SUB ADD DUP2 DUP7 DUP1 EXTCODESIZE ISZERO DUP1 ISZERO PUSH2 0xDCA JUMPI PUSH1 0x0 DUP1 REVERT JUMPDEST POP GAS STATICCALL ISZERO DUP1 ISZERO PUSH2 0xDDE JUMPI RETURNDATASIZE PUSH1 0x0 DUP1 RETURNDATACOPY RETURNDATASIZE PUSH1 0x0 REVERT JUMPDEST POP POP POP POP PUSH1 0x40 MLOAD RETURNDATASIZE PUSH1 0x1F NOT PUSH1 0x1F DUP3 ADD AND DUP3 ADD DUP1 PUSH1 0x40 MSTORE POP DUP2 ADD SWAP1 PUSH2 0xE02 SWAP2 SWAP1 PUSH2 0x1B2B JUMP JUMPDEST PUSH2 0xE0D SWAP1 PUSH1 0xA PUSH2 0x1C6A JUMP JUMPDEST PUSH1 0xD SLOAD PUSH1 0x12 SLOAD PUSH2 0xE1C SWAP2 PUSH2 0x1832 JUMP JUMPDEST PUSH2 0xE26 SWAP2 SWAP1 PUSH2 0x1C05 JUMP JUMPDEST PUSH1 0x1A SSTORE PUSH1 0x1F SSTORE POP POP POP POP JUMP JUMPDEST PUSH1 0x2 PUSH1 0x0 SLOAD EQ ISZERO PUSH2 0xE55 JUMPI PUSH1 0x40 MLOAD PUSH3 0x461BCD PUSH1 0xE5 SHL DUP2 MSTORE PUSH1 0x4 ADD PUSH2 0x5D4 SWAP1 PUSH2 0x1BB6 JUMP JUMPDEST PUSH1 0x2 PUSH1 0x0 SWAP1 DUP2 SSTORE PUSH1 0x6 SLOAD PUSH1 0x5 SLOAD PUSH2 0xE6C SWAP2 SWAP1 PUSH2 0x1D31 JUMP JUMPDEST GT PUSH2 0xE89 JUMPI PUSH1 0x40 MLOAD PUSH3 0x461BCD PUSH1 0xE5 SHL DUP2 MSTORE PUSH1 0x4 ADD PUSH2 0x5D4 SWAP1 PUSH2 0x1B7F JUMP JUMPDEST CALLER PUSH1 0x0 SWAP1 DUP2 MSTORE PUSH1 0x2 PUSH1 0x20 MSTORE PUSH1 0x40 SWAP1 KECCAK256 PUSH1 0x1 DUP2 ADD SLOAD PUSH2 0xEE3 JUMPI PUSH1 0x40 MLOAD PUSH3 0x461BCD PUSH1 0xE5 SHL DUP2 MSTORE PUSH1 0x20 PUSH1 0x4 DUP3 ADD MSTORE PUSH1 0x17 PUSH1 0x24 DUP3 ADD MSTORE PUSH23 0x165BDD481A185D99481B9BDD08189BDD59DA1D081E595D PUSH1 0x4A SHL PUSH1 0x44 DUP3 ADD MSTORE PUSH1 0x64 ADD PUSH2 0x5D4 JUMP JUMPDEST DUP1 PUSH1 0x3 ADD SLOAD DUP2 PUSH1 0x1 ADD SLOAD GT PUSH2 0xF2B JUMPI PUSH1 0x40 MLOAD PUSH3 0x461BCD PUSH1 0xE5 SHL DUP2 MSTORE PUSH1 0x20 PUSH1 0x4 DUP3 ADD MSTORE PUSH1 0xE PUSH1 0x24 DUP3 ADD MSTORE PUSH14 0x165BDD4818DB185A5B48185B1B1B PUSH1 0x92 SHL PUSH1 0x44 DUP3 ADD MSTORE PUSH1 0x64 ADD PUSH2 0x5D4 JUMP JUMPDEST PUSH1 0x0 PUSH2 0xF55 PUSH2 0x3E8 PUSH2 0x9F5 DUP5 PUSH1 0x1 ADD SLOAD PUSH2 0x9EF PUSH1 0xF PUSH1 0x9 ADD SLOAD PUSH2 0x3E8 PUSH2 0x1826 SWAP1 SWAP2 SWAP1 PUSH4 0xFFFFFFFF AND JUMP JUMPDEST SWAP1 POP DUP1 PUSH1 0x4 PUSH1 0x2 ADD PUSH1 0x0 DUP3 DUP3 SLOAD PUSH2 0xF6C SWAP2 SWAP1 PUSH2 0x1BED JUMP JUMPDEST SWAP1 SWAP2 SSTORE POP POP PUSH1 0x1A DUP1 SLOAD DUP3 SWAP2 SWAP1 PUSH1 0x0 SWAP1 PUSH2 0xF86 SWAP1 DUP5 SWAP1 PUSH2 0x1D31 JUMP JUMPDEST SWAP3 POP POP DUP2 SWAP1 SSTORE POP DUP1 DUP3 PUSH1 0x3 ADD PUSH1 0x0 DUP3 DUP3 SLOAD PUSH2 0xFA1 SWAP2 SWAP1 PUSH2 0x1BED JUMP JUMPDEST SWAP1 SWAP2 SSTORE POP POP TIMESTAMP PUSH1 0x2 DUP4 ADD SSTORE PUSH1 0x4 DUP3 ADD SLOAD DUP3 SLOAD PUSH2 0xFBD SWAP2 SWAP1 PUSH2 0x1D31 JUMP JUMPDEST PUSH1 0x9 DUP1 SLOAD PUSH1 0x0 SWAP1 PUSH2 0xFCF SWAP1 DUP5 SWAP1 PUSH2 0x1BED JUMP JUMPDEST SWAP1 SWAP2 SSTORE POP POP PUSH1 0x10 SLOAD PUSH1 0x40 MLOAD PUSH4 0xA9059CBB PUSH1 0xE0 SHL DUP2 MSTORE CALLER PUSH1 0x4 DUP3 ADD MSTORE PUSH1 0x24 DUP2 ADD DUP4 SWAP1 MSTORE PUSH1 0x1 PUSH1 0x1 PUSH1 0xA0 SHL SUB SWAP1 SWAP2 AND SWAP1 PUSH4 0xA9059CBB SWAP1 PUSH1 0x44 ADD PUSH1 0x20 PUSH1 0x40 MLOAD DUP1 DUP4 SUB DUP2 PUSH1 0x0 DUP8 DUP1 EXTCODESIZE ISZERO DUP1 ISZERO PUSH2 0x1020 JUMPI PUSH1 0x0 DUP1 REVERT JUMPDEST POP GAS CALL ISZERO DUP1 ISZERO PUSH2 0x1034 JUMPI RETURNDATASIZE PUSH1 0x0 DUP1 RETURNDATACOPY RETURNDATASIZE PUSH1 0x0 REVERT JUMPDEST POP POP POP POP PUSH1 0x40 MLOAD RETURNDATASIZE PUSH1 0x1F NOT PUSH1 0x1F DUP3 ADD AND DUP3 ADD DUP1 PUSH1 0x40 MSTORE POP DUP2 ADD SWAP1 PUSH2 0x8D3 SWAP2 SWAP1 PUSH2 0x1AF5 JUMP JUMPDEST PUSH1 0x2 PUSH1 0x0 SLOAD EQ ISZERO PUSH2 0x107B JUMPI PUSH1 0x40 MLOAD PUSH3 0x461BCD PUSH1 0xE5 SHL DUP2 MSTORE PUSH1 0x4 ADD PUSH2 0x5D4 SWAP1 PUSH2 0x1BB6 JUMP JUMPDEST PUSH1 0x2 PUSH1 0x0 DUP2 DUP2 SSTORE CALLER DUP2 MSTORE PUSH1 0x20 SWAP2 SWAP1 SWAP2 MSTORE PUSH1 0x40 DUP2 KECCAK256 SWAP1 DUP3 SWAP1 DUP2 SWAP1 PUSH2 0x3E8 CALLVALUE DUP4 GT ISZERO PUSH2 0x10E7 JUMPI PUSH1 0x40 MLOAD PUSH3 0x461BCD PUSH1 0xE5 SHL DUP2 MSTORE PUSH1 0x20 PUSH1 0x4 DUP3 ADD MSTORE PUSH1 0x1A PUSH1 0x24 DUP3 ADD MSTORE PUSH32 0x506C656173652070726F76696465206E617669746520636F696E000000000000 PUSH1 0x44 DUP3 ADD MSTORE PUSH1 0x64 ADD PUSH2 0x5D4 JUMP JUMPDEST PUSH1 0x15 SLOAD DUP4 LT ISZERO PUSH2 0x112C JUMPI PUSH1 0x40 MLOAD PUSH3 0x461BCD PUSH1 0xE5 SHL DUP2 MSTORE PUSH1 0x20 PUSH1 0x4 DUP3 ADD MSTORE PUSH1 0x10 PUSH1 0x24 DUP3 ADD MSTORE PUSH16 0x4E6F7420656E6F7567682076616C7565 PUSH1 0x80 SHL PUSH1 0x44 DUP3 ADD MSTORE PUSH1 0x64 ADD PUSH2 0x5D4 JUMP JUMPDEST PUSH1 0x16 SLOAD DUP4 GT ISZERO PUSH2 0x116F JUMPI PUSH1 0x40 MLOAD PUSH3 0x461BCD PUSH1 0xE5 SHL DUP2 MSTORE PUSH1 0x20 PUSH1 0x4 DUP3 ADD MSTORE PUSH1 0xE PUSH1 0x24 DUP3 ADD MSTORE PUSH14 0x4F766572666C6F772076616C7565 PUSH1 0x90 SHL PUSH1 0x44 DUP3 ADD MSTORE PUSH1 0x64 ADD PUSH2 0x5D4 JUMP JUMPDEST PUSH2 0x1177 PUSH2 0x1427 JUMP JUMPDEST PUSH2 0x11A7 JUMPI PUSH2 0x1198 DUP2 PUSH2 0x9F5 DUP6 PUSH2 0x9EF PUSH1 0x1F SLOAD DUP7 PUSH2 0x1826 SWAP1 SWAP2 SWAP1 PUSH4 0xFFFFFFFF AND JUMP JUMPDEST SWAP3 POP PUSH2 0x11A4 DUP4 DUP6 PUSH2 0x1D31 JUMP JUMPDEST SWAP2 POP JUMPDEST DUP5 SLOAD PUSH1 0x16 SLOAD PUSH1 0x0 SWAP2 PUSH2 0x11B8 SWAP2 PUSH2 0x1D31 JUMP JUMPDEST PUSH1 0x4 SLOAD PUSH1 0x1A SLOAD SWAP2 SWAP3 POP PUSH1 0x0 SWAP2 PUSH2 0x11CE SWAP2 SWAP1 PUSH2 0x1D31 JUMP JUMPDEST SWAP1 POP PUSH1 0x0 DUP2 DUP4 GT PUSH2 0x11DF JUMPI DUP3 PUSH2 0x11E1 JUMP JUMPDEST DUP2 JUMPDEST SWAP1 POP DUP1 DUP7 GT ISZERO PUSH2 0x1225 JUMPI PUSH1 0x40 MLOAD PUSH3 0x461BCD PUSH1 0xE5 SHL DUP2 MSTORE PUSH1 0x20 PUSH1 0x4 DUP3 ADD MSTORE PUSH1 0xF PUSH1 0x24 DUP3 ADD MSTORE PUSH15 0x53616C652069732073756363657373 PUSH1 0x88 SHL PUSH1 0x44 DUP3 ADD MSTORE PUSH1 0x64 ADD PUSH2 0x5D4 JUMP JUMPDEST PUSH1 0x0 PUSH2 0x12CC PUSH1 0xF PUSH1 0x2 ADD PUSH1 0x0 SWAP1 SLOAD SWAP1 PUSH2 0x100 EXP SWAP1 DIV PUSH1 0x1 PUSH1 0x1 PUSH1 0xA0 SHL SUB AND PUSH1 0x1 PUSH1 0x1 PUSH1 0xA0 SHL SUB AND PUSH4 0x313CE567 PUSH1 0x40 MLOAD DUP2 PUSH4 0xFFFFFFFF AND PUSH1 0xE0 SHL DUP2 MSTORE PUSH1 0x4 ADD PUSH1 0x20 PUSH1 0x40 MLOAD DUP1 DUP4 SUB DUP2 DUP7 DUP1 EXTCODESIZE ISZERO DUP1 ISZERO PUSH2 0x127B JUMPI PUSH1 0x0 DUP1 REVERT JUMPDEST POP GAS STATICCALL ISZERO DUP1 ISZERO PUSH2 0x128F JUMPI RETURNDATASIZE PUSH1 0x0 DUP1 RETURNDATACOPY RETURNDATASIZE PUSH1 0x0 REVERT JUMPDEST POP POP POP POP PUSH1 0x40 MLOAD RETURNDATASIZE PUSH1 0x1F NOT PUSH1 0x1F DUP3 ADD AND DUP3 ADD DUP1 PUSH1 0x40 MSTORE POP DUP2 ADD SWAP1 PUSH2 0x12B3 SWAP2 SWAP1 PUSH2 0x1B2B JUMP JUMPDEST PUSH2 0x12BE SWAP1 PUSH1 0xA PUSH2 0x1C6A JUMP JUMPDEST PUSH1 0x12 SLOAD PUSH2 0x9F5 SWAP1 DUP11 SWAP1 PUSH2 0x1832 JUMP JUMPDEST SWAP1 POP DUP7 DUP10 PUSH1 0x0 ADD PUSH1 0x0 DUP3 DUP3 SLOAD PUSH2 0x12E2 SWAP2 SWAP1 PUSH2 0x1BED JUMP JUMPDEST SWAP3 POP POP DUP2 SWAP1 SSTORE POP DUP1 DUP10 PUSH1 0x1 ADD PUSH1 0x0 DUP3 DUP3 SLOAD PUSH2 0x12FD SWAP2 SWAP1 PUSH2 0x1BED JUMP JUMPDEST SWAP1 SWAP2 SSTORE POP POP PUSH1 0x4 DUP1 SLOAD DUP9 SWAP2 SWAP1 PUSH1 0x0 SWAP1 PUSH2 0x1317 SWAP1 DUP5 SWAP1 PUSH2 0x1BED JUMP JUMPDEST SWAP1 SWAP2 SSTORE POP POP PUSH1 0x5 DUP1 SLOAD DUP3 SWAP2 SWAP1 PUSH1 0x0 SWAP1 PUSH2 0x1331 SWAP1 DUP5 SWAP1 PUSH2 0x1BED JUMP JUMPDEST SWAP1 SWAP2 SSTORE POP POP PUSH1 0xA DUP1 SLOAD SWAP1 PUSH1 0x0 PUSH2 0x1346 DUP4 PUSH2 0x1D48 JUMP JUMPDEST SWAP1 SWAP2 SSTORE POP POP CALLER PUSH1 0x0 SWAP1 DUP2 MSTORE PUSH1 0x3 PUSH1 0x20 MSTORE PUSH1 0x40 DUP2 KECCAK256 DUP1 SLOAD DUP9 SWAP3 SWAP1 PUSH2 0x136A SWAP1 DUP5 SWAP1 PUSH2 0x1BED JUMP JUMPDEST SWAP3 POP POP DUP2 SWAP1 SSTORE POP DUP6 PUSH1 0x1E PUSH1 0x0 DUP3 DUP3 SLOAD PUSH2 0x1383 SWAP2 SWAP1 PUSH2 0x1BED JUMP JUMPDEST SWAP1 SWAP2 SSTORE POP POP PUSH1 0x19 SLOAD PUSH1 0xFF AND DUP1 ISZERO PUSH2 0x13A3 JUMPI POP CALLVALUE PUSH2 0x13A0 DUP8 DUP10 PUSH2 0x1BED JUMP JUMPDEST GT ISZERO JUMPDEST ISZERO PUSH2 0x13EB JUMPI CALLER PUSH2 0x8FC DUP8 PUSH2 0x13B7 DUP11 CALLVALUE PUSH2 0x1D31 JUMP JUMPDEST PUSH2 0x13C1 SWAP2 SWAP1 PUSH2 0x1D31 JUMP JUMPDEST PUSH1 0x40 MLOAD DUP2 ISZERO SWAP1 SWAP3 MUL SWAP2 PUSH1 0x0 DUP2 DUP2 DUP2 DUP6 DUP9 DUP9 CALL SWAP4 POP POP POP POP ISZERO DUP1 ISZERO PUSH2 0x13E9 JUMPI RETURNDATASIZE PUSH1 0x0 DUP1 RETURNDATACOPY RETURNDATASIZE PUSH1 0x0 REVERT JUMPDEST POP JUMPDEST PUSH1 0x19 SLOAD PUSH1 0xFF AND PUSH2 0x1416 JUMPI PUSH1 0x11 SLOAD PUSH2 0x1416 SWAP1 PUSH1 0x1 PUSH1 0x1 PUSH1 0xA0 SHL SUB AND CALLER ADDRESS PUSH2 0x1411 DUP11 DUP13 PUSH2 0x1BED JUMP JUMPDEST PUSH2 0x184A JUMP JUMPDEST POP POP PUSH1 0x1 PUSH1 0x0 SSTORE POP POP POP POP POP POP POP POP JUMP JUMPDEST PUSH1 0x0 PUSH2 0x1434 PUSH1 0x1C CALLER PUSH2 0x197A JUMP JUMPDEST SWAP1 POP SWAP1 JUMP JUMPDEST DUP1 ISZERO PUSH2 0x15D5 JUMPI PUSH1 0x6 SLOAD PUSH1 0x5 SLOAD PUSH1 0x0 SWAP2 PUSH2 0x1451 SWAP2 PUSH2 0x1D31 JUMP JUMPDEST GT PUSH2 0x146E JUMPI PUSH1 0x40 MLOAD PUSH3 0x461BCD PUSH1 0xE5 SHL DUP2 MSTORE PUSH1 0x4 ADD PUSH2 0x5D4 SWAP1 PUSH2 0x1B7F JUMP JUMPDEST CALLER PUSH1 0x0 SWAP1 DUP2 MSTORE PUSH1 0x2 PUSH1 0x20 MSTORE PUSH1 0x40 SWAP1 KECCAK256 PUSH1 0x3 DUP2 ADD SLOAD PUSH1 0x1 DUP3 ADD SLOAD GT PUSH2 0x14E0 JUMPI PUSH1 0x40 MLOAD PUSH3 0x461BCD PUSH1 0xE5 SHL DUP2 MSTORE PUSH1 0x20 PUSH1 0x4 DUP3 ADD MSTORE PUSH1 0x24 DUP1 DUP3 ADD MSTORE PUSH32 0x596F7520636C61696D20616C6C206F722068617665206E6F7420626F75676874 PUSH1 0x44 DUP3 ADD MSTORE PUSH4 0x81E595D PUSH1 0xE2 SHL PUSH1 0x64 DUP3 ADD MSTORE PUSH1 0x84 ADD PUSH2 0x5D4 JUMP JUMPDEST PUSH1 0x10 SLOAD PUSH1 0x1 DUP3 ADD SLOAD PUSH1 0x40 MLOAD PUSH4 0xA9059CBB PUSH1 0xE0 SHL DUP2 MSTORE CALLER PUSH1 0x4 DUP3 ADD MSTORE PUSH1 0x24 DUP2 ADD SWAP2 SWAP1 SWAP2 MSTORE PUSH1 0x1 PUSH1 0x1 PUSH1 0xA0 SHL SUB SWAP1 SWAP2 AND SWAP1 PUSH4 0xA9059CBB SWAP1 PUSH1 0x44 ADD PUSH1 0x20 PUSH1 0x40 MLOAD DUP1 DUP4 SUB DUP2 PUSH1 0x0 DUP8 DUP1 EXTCODESIZE ISZERO DUP1 ISZERO PUSH2 0x1532 JUMPI PUSH1 0x0 DUP1 REVERT JUMPDEST POP GAS CALL ISZERO DUP1 ISZERO PUSH2 0x1546 JUMPI RETURNDATASIZE PUSH1 0x0 DUP1 RETURNDATACOPY RETURNDATASIZE PUSH1 0x0 REVERT JUMPDEST POP POP POP POP PUSH1 0x40 MLOAD RETURNDATASIZE PUSH1 0x1F NOT PUSH1 0x1F DUP3 ADD AND DUP3 ADD DUP1 PUSH1 0x40 MSTORE POP DUP2 ADD SWAP1 PUSH2 0x156A SWAP2 SWAP1 PUSH2 0x1AF5 JUMP JUMPDEST POP PUSH1 0x1 DUP2 ADD SLOAD PUSH1 0x6 DUP1 SLOAD PUSH1 0x0 SWAP1 PUSH2 0x1582 SWAP1 DUP5 SWAP1 PUSH2 0x1BED JUMP JUMPDEST SWAP1 SWAP2 SSTORE POP POP PUSH1 0x1 DUP2 ADD SLOAD PUSH1 0x1A DUP1 SLOAD PUSH1 0x0 SWAP1 PUSH2 0x159E SWAP1 DUP5 SWAP1 PUSH2 0x1D31 JUMP JUMPDEST SWAP1 SWAP2 SSTORE POP POP PUSH1 0x1 DUP2 ADD SLOAD PUSH1 0x3 DUP3 ADD DUP1 SLOAD PUSH1 0x0 SWAP1 PUSH2 0x15BC SWAP1 DUP5 SWAP1 PUSH2 0x1BED JUMP JUMPDEST SWAP1 SWAP2 SSTORE POP POP PUSH1 0x0 DUP1 DUP3 SSTORE PUSH1 0x1 DUP3 ADD SSTORE TIMESTAMP PUSH1 0x2 SWAP1 SWAP2 ADD SSTORE POP JUMP JUMPDEST PUSH1 0x7 SLOAD PUSH1 0x4 SLOAD PUSH1 0x0 SWAP2 PUSH2 0x15E7 SWAP2 PUSH2 0x1D31 JUMP JUMPDEST GT PUSH2 0x1604 JUMPI PUSH1 0x40 MLOAD PUSH3 0x461BCD PUSH1 0xE5 SHL DUP2 MSTORE PUSH1 0x4 ADD PUSH2 0x5D4 SWAP1 PUSH2 0x1B7F JUMP JUMPDEST CALLER PUSH1 0x0 SWAP1 DUP2 MSTORE PUSH1 0x2 PUSH1 0x20 MSTORE PUSH1 0x40 SWAP1 KECCAK256 DUP1 SLOAD PUSH2 0x166F JUMPI PUSH1 0x40 MLOAD PUSH3 0x461BCD PUSH1 0xE5 SHL DUP2 MSTORE PUSH1 0x20 PUSH1 0x4 DUP3 ADD MSTORE PUSH1 0x25 PUSH1 0x24 DUP3 ADD MSTORE PUSH32 0x596F7520726566756E6420616C6C206F722068617665206E6F7420626F756768 PUSH1 0x44 DUP3 ADD MSTORE PUSH5 0x1D081E595D PUSH1 0xDA SHL PUSH1 0x64 DUP3 ADD MSTORE PUSH1 0x84 ADD PUSH2 0x5D4 JUMP JUMPDEST DUP1 SLOAD PUSH2 0x167B DUP2 DUP1 PUSH2 0x1D31 JUMP JUMPDEST PUSH1 0x1E PUSH1 0x0 DUP3 DUP3 SLOAD PUSH2 0x168C SWAP2 SWAP1 PUSH2 0x1BED JUMP JUMPDEST SWAP1 SWAP2 SSTORE POP POP PUSH1 0x7 DUP1 SLOAD DUP3 SWAP2 SWAP1 PUSH1 0x0 SWAP1 PUSH2 0x16A6 SWAP1 DUP5 SWAP1 PUSH2 0x1BED JUMP JUMPDEST SWAP1 SWAP2 SSTORE POP POP PUSH1 0x0 DUP1 DUP4 SSTORE PUSH1 0x1 DUP4 ADD DUP2 SWAP1 SSTORE TIMESTAMP PUSH1 0x2 DUP5 ADD SSTORE PUSH1 0x40 MLOAD CALLER SWAP2 DUP4 ISZERO PUSH2 0x8FC MUL SWAP2 DUP5 SWAP2 DUP2 DUP2 DUP2 DUP6 DUP9 DUP9 CALL SWAP4 POP POP POP POP ISZERO DUP1 ISZERO PUSH2 0x16E8 JUMPI RETURNDATASIZE PUSH1 0x0 DUP1 RETURNDATACOPY RETURNDATASIZE PUSH1 0x0 REVERT JUMPDEST POP POP POP POP JUMP JUMPDEST PUSH1 0x1 SLOAD PUSH1 0x1 PUSH1 0x1 PUSH1 0xA0 SHL SUB AND CALLER EQ PUSH2 0x1748 JUMPI PUSH1 0x40 MLOAD PUSH3 0x461BCD PUSH1 0xE5 SHL DUP2 MSTORE PUSH1 0x20 PUSH1 0x4 DUP3 ADD DUP2 SWAP1 MSTORE PUSH1 0x24 DUP3 ADD MSTORE PUSH32 0x4F776E61626C653A2063616C6C6572206973206E6F7420746865206F776E6572 PUSH1 0x44 DUP3 ADD MSTORE PUSH1 0x64 ADD PUSH2 0x5D4 JUMP JUMPDEST PUSH1 0x1 PUSH1 0x1 PUSH1 0xA0 SHL SUB DUP2 AND PUSH2 0x17AD JUMPI PUSH1 0x40 MLOAD PUSH3 0x461BCD PUSH1 0xE5 SHL DUP2 MSTORE PUSH1 0x20 PUSH1 0x4 DUP3 ADD MSTORE PUSH1 0x26 PUSH1 0x24 DUP3 ADD MSTORE PUSH32 0x4F776E61626C653A206E6577206F776E657220697320746865207A65726F2061 PUSH1 0x44 DUP3 ADD MSTORE PUSH6 0x646472657373 PUSH1 0xD0 SHL PUSH1 0x64 DUP3 ADD MSTORE PUSH1 0x84 ADD PUSH2 0x5D4 JUMP JUMPDEST PUSH2 0x615 DUP2 PUSH2 0x17D4 JUMP JUMPDEST PUSH1 0x0 PUSH2 0x17CB DUP4 PUSH1 0x1 PUSH1 0x1 PUSH1 0xA0 SHL SUB DUP5 AND PUSH2 0x199C JUMP JUMPDEST SWAP1 POP JUMPDEST SWAP3 SWAP2 POP POP JUMP JUMPDEST PUSH1 0x1 DUP1 SLOAD PUSH1 0x1 PUSH1 0x1 PUSH1 0xA0 SHL SUB DUP4 DUP2 AND PUSH1 0x1 PUSH1 0x1 PUSH1 0xA0 SHL SUB NOT DUP4 AND DUP2 OR SWAP1 SWAP4 SSTORE PUSH1 0x40 MLOAD SWAP2 AND SWAP2 SWAP1 DUP3 SWAP1 PUSH32 0x8BE0079C531659141344CD1FD0A4F28419497F9722A3DAAFE3B4186F6B6457E0 SWAP1 PUSH1 0x0 SWAP1 LOG3 POP POP JUMP JUMPDEST PUSH1 0x0 PUSH2 0x17CB DUP3 DUP5 PUSH2 0x1D31 JUMP JUMPDEST PUSH1 0x0 PUSH2 0x17CB DUP3 DUP5 PUSH2 0x1D12 JUMP JUMPDEST PUSH1 0x0 PUSH2 0x17CB DUP3 DUP5 PUSH2 0x1C05 JUMP JUMPDEST PUSH1 0x40 DUP1 MLOAD PUSH1 0x1 PUSH1 0x1 PUSH1 0xA0 SHL SUB DUP6 DUP2 AND PUSH1 0x24 DUP4 ADD MSTORE DUP5 DUP2 AND PUSH1 0x44 DUP4 ADD MSTORE PUSH1 0x64 DUP1 DUP4 ADD DUP6 SWAP1 MSTORE DUP4 MLOAD DUP1 DUP5 SUB SWAP1 SWAP2 ADD DUP2 MSTORE PUSH1 0x84 SWAP1 SWAP3 ADD DUP4 MSTORE PUSH1 0x20 DUP3 ADD DUP1 MLOAD PUSH1 0x1 PUSH1 0x1 PUSH1 0xE0 SHL SUB AND PUSH4 0x23B872DD PUSH1 0xE0 SHL OR SWAP1 MSTORE SWAP2 MLOAD PUSH1 0x0 SWAP3 DUP4 SWAP3 SWAP1 DUP9 AND SWAP2 PUSH2 0x18AE SWAP2 SWAP1 PUSH2 0x1B44 JUMP JUMPDEST PUSH1 0x0 PUSH1 0x40 MLOAD DUP1 DUP4 SUB DUP2 PUSH1 0x0 DUP7 GAS CALL SWAP2 POP POP RETURNDATASIZE DUP1 PUSH1 0x0 DUP2 EQ PUSH2 0x18EB JUMPI PUSH1 0x40 MLOAD SWAP2 POP PUSH1 0x1F NOT PUSH1 0x3F RETURNDATASIZE ADD AND DUP3 ADD PUSH1 0x40 MSTORE RETURNDATASIZE DUP3 MSTORE RETURNDATASIZE PUSH1 0x0 PUSH1 0x20 DUP5 ADD RETURNDATACOPY PUSH2 0x18F0 JUMP JUMPDEST PUSH1 0x60 SWAP2 POP JUMPDEST POP SWAP2 POP SWAP2 POP DUP2 DUP1 ISZERO PUSH2 0x191A JUMPI POP DUP1 MLOAD ISZERO DUP1 PUSH2 0x191A JUMPI POP DUP1 DUP1 PUSH1 0x20 ADD SWAP1 MLOAD DUP2 ADD SWAP1 PUSH2 0x191A SWAP2 SWAP1 PUSH2 0x1AF5 JUMP JUMPDEST PUSH2 0x1972 JUMPI PUSH1 0x40 MLOAD PUSH3 0x461BCD PUSH1 0xE5 SHL DUP2 MSTORE PUSH1 0x20 PUSH1 0x4 DUP3 ADD MSTORE PUSH1 0x24 DUP1 DUP3 ADD MSTORE PUSH32 0x5472616E7366657248656C7065723A205452414E534645525F46524F4D5F4641 PUSH1 0x44 DUP3 ADD MSTORE PUSH4 0x12531151 PUSH1 0xE2 SHL PUSH1 0x64 DUP3 ADD MSTORE PUSH1 0x84 ADD PUSH2 0x5D4 JUMP JUMPDEST POP POP POP POP POP POP JUMP JUMPDEST PUSH1 0x1 PUSH1 0x1 PUSH1 0xA0 SHL SUB DUP2 AND PUSH1 0x0 SWAP1 DUP2 MSTORE PUSH1 0x1 DUP4 ADD PUSH1 0x20 MSTORE PUSH1 0x40 DUP2 KECCAK256 SLOAD ISZERO ISZERO PUSH2 0x17CB JUMP JUMPDEST PUSH1 0x0 DUP2 DUP2 MSTORE PUSH1 0x1 DUP4 ADD PUSH1 0x20 MSTORE PUSH1 0x40 DUP2 KECCAK256 SLOAD PUSH2 0x19E3 JUMPI POP DUP2 SLOAD PUSH1 0x1 DUP2 DUP2 ADD DUP5 SSTORE PUSH1 0x0 DUP5 DUP2 MSTORE PUSH1 0x20 DUP1 DUP3 KECCAK256 SWAP1 SWAP4 ADD DUP5 SWAP1 SSTORE DUP5 SLOAD DUP5 DUP3 MSTORE DUP3 DUP7 ADD SWAP1 SWAP4 MSTORE PUSH1 0x40 SWAP1 KECCAK256 SWAP2 SWAP1 SWAP2 SSTORE PUSH2 0x17CE JUMP JUMPDEST POP PUSH1 0x0 PUSH2 0x17CE JUMP JUMPDEST PUSH1 0x0 PUSH1 0x20 DUP3 DUP5 SUB SLT ISZERO PUSH2 0x19FD JUMPI PUSH1 0x0 DUP1 REVERT JUMPDEST DUP2 CALLDATALOAD PUSH2 0x1A08 DUP2 PUSH2 0x1D8F JUMP JUMPDEST SWAP4 SWAP3 POP POP POP JUMP JUMPDEST PUSH1 0x0 DUP1 PUSH1 0x0 DUP1 PUSH1 0x0 PUSH2 0x1A0 DUP7 DUP9 SUB SLT ISZERO PUSH2 0x1A28 JUMPI PUSH1 0x0 DUP1 REVERT JUMPDEST DUP6 CALLDATALOAD PUSH2 0x1A33 DUP2 PUSH2 0x1D8F JUMP JUMPDEST SWAP5 POP PUSH1 0x20 DUP7 DUP2 ADD CALLDATALOAD PUSH2 0x1A44 DUP2 PUSH2 0x1D8F JUMP JUMPDEST SWAP5 POP PUSH1 0x40 DUP8 ADD CALLDATALOAD PUSH2 0x1A54 DUP2 PUSH2 0x1D8F JUMP JUMPDEST SWAP4 POP PUSH1 0x7F DUP8 ADD DUP9 SGT PUSH2 0x1A65 JUMPI PUSH1 0x0 DUP1 REVERT JUMPDEST PUSH1 0x40 MLOAD PUSH2 0x120 DUP2 ADD DUP2 DUP2 LT PUSH8 0xFFFFFFFFFFFFFFFF DUP3 GT OR ISZERO PUSH2 0x1A89 JUMPI PUSH2 0x1A89 PUSH2 0x1D79 JUMP JUMPDEST PUSH1 0x40 MSTORE DUP1 PUSH1 0x60 DUP10 ADD PUSH2 0x180 DUP11 ADD DUP12 DUP2 GT ISZERO PUSH2 0x1AA3 JUMPI PUSH1 0x0 DUP1 REVERT JUMPDEST PUSH1 0x0 JUMPDEST PUSH1 0x9 DUP2 LT ISZERO PUSH2 0x1AC3 JUMPI DUP3 CALLDATALOAD DUP5 MSTORE SWAP3 DUP6 ADD SWAP3 SWAP2 DUP6 ADD SWAP2 PUSH1 0x1 ADD PUSH2 0x1AA6 JUMP JUMPDEST POP SWAP9 SWAP12 SWAP8 SWAP11 POP SWAP6 SWAP9 POP SWAP1 SWAP7 CALLDATALOAD SWAP6 SWAP5 POP POP POP POP POP JUMP JUMPDEST PUSH1 0x0 PUSH1 0x20 DUP3 DUP5 SUB SLT ISZERO PUSH2 0x1AEA JUMPI PUSH1 0x0 DUP1 REVERT JUMPDEST DUP2 CALLDATALOAD PUSH2 0x1A08 DUP2 PUSH2 0x1DA4 JUMP JUMPDEST PUSH1 0x0 PUSH1 0x20 DUP3 DUP5 SUB SLT ISZERO PUSH2 0x1B07 JUMPI PUSH1 0x0 DUP1 REVERT JUMPDEST DUP2 MLOAD PUSH2 0x1A08 DUP2 PUSH2 0x1DA4 JUMP JUMPDEST PUSH1 0x0 PUSH1 0x20 DUP3 DUP5 SUB SLT ISZERO PUSH2 0x1B24 JUMPI PUSH1 0x0 DUP1 REVERT JUMPDEST POP CALLDATALOAD SWAP2 SWAP1 POP JUMP JUMPDEST PUSH1 0x0 PUSH1 0x20 DUP3 DUP5 SUB SLT ISZERO PUSH2 0x1B3D JUMPI PUSH1 0x0 DUP1 REVERT JUMPDEST POP MLOAD SWAP2 SWAP1 POP JUMP JUMPDEST PUSH1 0x0 DUP3 MLOAD PUSH1 0x0 JUMPDEST DUP2 DUP2 LT ISZERO PUSH2 0x1B65 JUMPI PUSH1 0x20 DUP2 DUP7 ADD DUP2 ADD MLOAD DUP6 DUP4 ADD MSTORE ADD PUSH2 0x1B4B JUMP JUMPDEST DUP2 DUP2 GT ISZERO PUSH2 0x1B74 JUMPI PUSH1 0x0 DUP3 DUP6 ADD MSTORE JUMPDEST POP SWAP2 SWAP1 SWAP2 ADD SWAP3 SWAP2 POP POP JUMP JUMPDEST PUSH1 0x20 DUP1 DUP3 MSTORE PUSH1 0x1B SWAP1 DUP3 ADD MSTORE PUSH32 0x416C6C20746F6B656E20686173206265656E2077697468647261770000000000 PUSH1 0x40 DUP3 ADD MSTORE PUSH1 0x60 ADD SWAP1 JUMP JUMPDEST PUSH1 0x20 DUP1 DUP3 MSTORE PUSH1 0x1F SWAP1 DUP3 ADD MSTORE PUSH32 0x5265656E7472616E637947756172643A207265656E7472616E742063616C6C00 PUSH1 0x40 DUP3 ADD MSTORE PUSH1 0x60 ADD SWAP1 JUMP JUMPDEST PUSH1 0x0 DUP3 NOT DUP3 GT ISZERO PUSH2 0x1C00 JUMPI PUSH2 0x1C00 PUSH2 0x1D63 JUMP JUMPDEST POP ADD SWAP1 JUMP JUMPDEST PUSH1 0x0 DUP3 PUSH2 0x1C22 JUMPI PUSH4 0x4E487B71 PUSH1 0xE0 SHL PUSH1 0x0 MSTORE PUSH1 0x12 PUSH1 0x4 MSTORE PUSH1 0x24 PUSH1 0x0 REVERT JUMPDEST POP DIV SWAP1 JUMP JUMPDEST PUSH1 0x1 DUP2 DUP2 JUMPDEST DUP1 DUP6 GT ISZERO PUSH2 0x1C62 JUMPI DUP2 PUSH1 0x0 NOT DIV DUP3 GT ISZERO PUSH2 0x1C48 JUMPI PUSH2 0x1C48 PUSH2 0x1D63 JUMP JUMPDEST DUP1 DUP6 AND ISZERO PUSH2 0x1C55 JUMPI SWAP2 DUP2 MUL SWAP2 JUMPDEST SWAP4 DUP5 SHR SWAP4 SWAP1 DUP1 MUL SWAP1 PUSH2 0x1C2C JUMP JUMPDEST POP SWAP3 POP SWAP3 SWAP1 POP JUMP JUMPDEST PUSH1 0x0 PUSH2 0x17CB DUP4 DUP4 PUSH1 0x0 DUP3 PUSH2 0x1C80 JUMPI POP PUSH1 0x1 PUSH2 0x17CE JUMP JUMPDEST DUP2 PUSH2 0x1C8D JUMPI POP PUSH1 0x0 PUSH2 0x17CE JUMP JUMPDEST DUP2 PUSH1 0x1 DUP2 EQ PUSH2 0x1CA3 JUMPI PUSH1 0x2 DUP2 EQ PUSH2 0x1CAD JUMPI PUSH2 0x1CC9 JUMP JUMPDEST PUSH1 0x1 SWAP2 POP POP PUSH2 0x17CE JUMP JUMPDEST PUSH1 0xFF DUP5 GT ISZERO PUSH2 0x1CBE JUMPI PUSH2 0x1CBE PUSH2 0x1D63 JUMP JUMPDEST POP POP PUSH1 0x1 DUP3 SHL PUSH2 0x17CE JUMP JUMPDEST POP PUSH1 0x20 DUP4 LT PUSH2 0x133 DUP4 LT AND PUSH1 0x4E DUP5 LT PUSH1 0xB DUP5 LT AND OR ISZERO PUSH2 0x1CEC JUMPI POP DUP2 DUP2 EXP PUSH2 0x17CE JUMP JUMPDEST PUSH2 0x1CF6 DUP4 DUP4 PUSH2 0x1C27 JUMP JUMPDEST DUP1 PUSH1 0x0 NOT DIV DUP3 GT ISZERO PUSH2 0x1D0A JUMPI PUSH2 0x1D0A PUSH2 0x1D63 JUMP JUMPDEST MUL SWAP4 SWAP3 POP POP POP JUMP JUMPDEST PUSH1 0x0 DUP2 PUSH1 0x0 NOT DIV DUP4 GT DUP3 ISZERO ISZERO AND ISZERO PUSH2 0x1D2C JUMPI PUSH2 0x1D2C PUSH2 0x1D63 JUMP JUMPDEST POP MUL SWAP1 JUMP JUMPDEST PUSH1 0x0 DUP3 DUP3 LT ISZERO PUSH2 0x1D43 JUMPI PUSH2 0x1D43 PUSH2 0x1D63 JUMP JUMPDEST POP SUB SWAP1 JUMP JUMPDEST PUSH1 0x0 PUSH1 0x0 NOT DUP3 EQ ISZERO PUSH2 0x1D5C JUMPI PUSH2 0x1D5C PUSH2 0x1D63 JUMP JUMPDEST POP PUSH1 0x1 ADD SWAP1 JUMP JUMPDEST PUSH4 0x4E487B71 PUSH1 0xE0 SHL PUSH1 0x0 MSTORE PUSH1 0x11 PUSH1 0x4 MSTORE PUSH1 0x24 PUSH1 0x0 REVERT JUMPDEST PUSH4 0x4E487B71 PUSH1 0xE0 SHL PUSH1 0x0 MSTORE PUSH1 0x41 PUSH1 0x4 MSTORE PUSH1 0x24 PUSH1 0x0 REVERT JUMPDEST PUSH1 0x1 PUSH1 0x1 PUSH1 0xA0 SHL SUB DUP2 AND DUP2 EQ PUSH2 0x615 JUMPI PUSH1 0x0 DUP1 REVERT JUMPDEST DUP1 ISZERO ISZERO DUP2 EQ PUSH2 0x615 JUMPI PUSH1 0x0 DUP1 REVERT INVALID LOG2 PUSH5 0x6970667358 0x22 SLT KECCAK256 BLOCKHASH KECCAK256 0x21 SWAP1 PUSH30 0xCA013EFF0AF5AB54EF566D739698875C44EF88ACE8B1F37CC12D3D64736F PUSH13 0x63430008050033000000000000 "
				},
				"gasEstimates": {
					"creation": {
						"codeDepositCost": "1531200",
						"executionCost": "infinite",
						"totalCost": "infinite"
					},
					"external": {
						"WETH()": "2426",
						"adminReceiveFee()": "2448",
						"backToken()": "infinite",
						"buyerInfo(address)": "11126",
						"checkAdminAddress()": "2499",
						"deposit(uint256)": "infinite",
						"feeAnyone()": "2407",
						"feeCreateSale()": "2339",
						"getBalance(address)": "3094",
						"initialSaleInfor(address,address,address,uint256[9],uint256)": "infinite",
						"owner()": "2409",
						"ownerClaimAndRefundToken()": "infinite",
						"presaleStatus()": "17307",
						"renounceOwnership()": "28162",
						"saleInfor()": "25810",
						"saleTotalSupply()": "4441",
						"status()": "4555",
						"totalFee()": "2363",
						"transferOwnership(address)": "infinite",
						"userClaimEmergency()": "infinite",
						"userClaimOrRefundWhenSaleSuccess(bool)": "infinite",
						"userFee(address)": "2536",
						"userRefundEmergency()": "infinite"
					}
				},
				"methodIdentifiers": {
					"WETH()": "ad5c4648",
					"adminReceiveFee()": "ae2b0965",
					"backToken()": "861faf5f",
					"buyerInfo(address)": "e2d3f423",
					"checkAdminAddress()": "cad5b0f7",
					"deposit(uint256)": "b6b55f25",
					"feeAnyone()": "3b5ef2ad",
					"feeCreateSale()": "d4c1dee9",
					"getBalance(address)": "f8b2cb4f",
					"initialSaleInfor(address,address,address,uint256[9],uint256)": "a8c9ed15",
					"owner()": "8da5cb5b",
					"ownerClaimAndRefundToken()": "8edf18e6",
					"presaleStatus()": "acfb2355",
					"renounceOwnership()": "715018a6",
					"saleInfor()": "18856a2f",
					"saleTotalSupply()": "12e5d0b9",
					"status()": "200d2ed2",
					"totalFee()": "1df4ccfc",
					"transferOwnership(address)": "f2fde38b",
					"userClaimEmergency()": "ab33985a",
					"userClaimOrRefundWhenSaleSuccess(bool)": "eb002bb0",
					"userFee(address)": "56c5f349",
					"userRefundEmergency()": "95661e70"
				}
			},
			"storageLayout": {
				"storage": [
					{
						"astId": 2572,
						"contract": "Ethereum/Presale.sol:Presale",
						"label": "_status",
						"offset": 0,
						"slot": "0",
						"type": "t_uint256"
					},
					{
						"astId": 2464,
						"contract": "Ethereum/Presale.sol:Presale",
						"label": "_owner",
						"offset": 0,
						"slot": "1",
						"type": "t_address"
					},
					{
						"astId": 778,
						"contract": "Ethereum/Presale.sol:Presale",
						"label": "buyerInfo",
						"offset": 0,
						"slot": "2",
						"type": "t_mapping(t_address,t_struct(BuyerInfo)751_storage)"
					},
					{
						"astId": 782,
						"contract": "Ethereum/Presale.sol:Presale",
						"label": "userFee",
						"offset": 0,
						"slot": "3",
						"type": "t_mapping(t_address,t_uint256)"
					},
					{
						"astId": 785,
						"contract": "Ethereum/Presale.sol:Presale",
						"label": "presaleStatus",
						"offset": 0,
						"slot": "4",
						"type": "t_struct(PresaleStatus)773_storage"
					},
					{
						"astId": 788,
						"contract": "Ethereum/Presale.sol:Presale",
						"label": "saleTotalSupply",
						"offset": 0,
						"slot": "13",
						"type": "t_struct(SaleTotalSupply)740_storage"
					},
					{
						"astId": 791,
						"contract": "Ethereum/Presale.sol:Presale",
						"label": "saleInfor",
						"offset": 0,
						"slot": "15",
						"type": "t_struct(SaleInfor)735_storage"
					},
					{
						"astId": 794,
						"contract": "Ethereum/Presale.sol:Presale",
						"label": "WETH",
						"offset": 0,
						"slot": "27",
						"type": "t_contract(IERC20)663"
					},
					{
						"astId": 797,
						"contract": "Ethereum/Presale.sol:Presale",
						"label": "admins",
						"offset": 0,
						"slot": "28",
						"type": "t_struct(AddressSet)2169_storage"
					},
					{
						"astId": 799,
						"contract": "Ethereum/Presale.sol:Presale",
						"label": "totalFee",
						"offset": 0,
						"slot": "30",
						"type": "t_uint256"
					},
					{
						"astId": 801,
						"contract": "Ethereum/Presale.sol:Presale",
						"label": "feeAnyone",
						"offset": 0,
						"slot": "31",
						"type": "t_uint256"
					},
					{
						"astId": 803,
						"contract": "Ethereum/Presale.sol:Presale",
						"label": "adminReceiveFee",
						"offset": 0,
						"slot": "32",
						"type": "t_address"
					},
					{
						"astId": 805,
						"contract": "Ethereum/Presale.sol:Presale",
						"label": "feeCreateSale",
						"offset": 0,
						"slot": "33",
						"type": "t_uint256"
					}
				],
				"types": {
					"t_address": {
						"encoding": "inplace",
						"label": "address",
						"numberOfBytes": "20"
					},
					"t_address_payable": {
						"encoding": "inplace",
						"label": "address payable",
						"numberOfBytes": "20"
					},
					"t_array(t_address)dyn_storage": {
						"base": "t_address",
						"encoding": "dynamic_array",
						"label": "address[]",
						"numberOfBytes": "32"
					},
					"t_array(t_bytes32)dyn_storage": {
						"base": "t_bytes32",
						"encoding": "dynamic_array",
						"label": "bytes32[]",
						"numberOfBytes": "32"
					},
					"t_bool": {
						"encoding": "inplace",
						"label": "bool",
						"numberOfBytes": "1"
					},
					"t_bytes32": {
						"encoding": "inplace",
						"label": "bytes32",
						"numberOfBytes": "32"
					},
					"t_contract(ERC20)585": {
						"encoding": "inplace",
						"label": "contract ERC20",
						"numberOfBytes": "20"
					},
					"t_contract(IERC20)663": {
						"encoding": "inplace",
						"label": "contract IERC20",
						"numberOfBytes": "20"
					},
					"t_mapping(t_address,t_struct(BuyerInfo)751_storage)": {
						"encoding": "mapping",
						"key": "t_address",
						"label": "mapping(address => struct Presale.BuyerInfo)",
						"numberOfBytes": "32",
						"value": "t_struct(BuyerInfo)751_storage"
					},
					"t_mapping(t_address,t_uint256)": {
						"encoding": "mapping",
						"key": "t_address",
						"label": "mapping(address => uint256)",
						"numberOfBytes": "32",
						"value": "t_uint256"
					},
					"t_mapping(t_bytes32,t_uint256)": {
						"encoding": "mapping",
						"key": "t_bytes32",
						"label": "mapping(bytes32 => uint256)",
						"numberOfBytes": "32",
						"value": "t_uint256"
					},
					"t_struct(AddressSet)2169_storage": {
						"encoding": "inplace",
						"label": "struct EnumerableSet.AddressSet",
						"members": [
							{
								"astId": 2168,
								"contract": "Ethereum/Presale.sol:Presale",
								"label": "_inner",
								"offset": 0,
								"slot": "0",
								"type": "t_struct(Set)1868_storage"
							}
						],
						"numberOfBytes": "64"
					},
					"t_struct(BuyerInfo)751_storage": {
						"encoding": "inplace",
						"label": "struct Presale.BuyerInfo",
						"members": [
							{
								"astId": 742,
								"contract": "Ethereum/Presale.sol:Presale",
								"label": "baseDeposit",
								"offset": 0,
								"slot": "0",
								"type": "t_uint256"
							},
							{
								"astId": 744,
								"contract": "Ethereum/Presale.sol:Presale",
								"label": "tokenOwner",
								"offset": 0,
								"slot": "1",
								"type": "t_uint256"
							},
							{
								"astId": 746,
								"contract": "Ethereum/Presale.sol:Presale",
								"label": "lastWithDraw",
								"offset": 0,
								"slot": "2",
								"type": "t_uint256"
							},
							{
								"astId": 748,
								"contract": "Ethereum/Presale.sol:Presale",
								"label": "totalTokenWithDraw",
								"offset": 0,
								"slot": "3",
								"type": "t_uint256"
							},
							{
								"astId": 750,
								"contract": "Ethereum/Presale.sol:Presale",
								"label": "totalBaseWithDraw",
								"offset": 0,
								"slot": "4",
								"type": "t_uint256"
							}
						],
						"numberOfBytes": "160"
					},
					"t_struct(PresaleStatus)773_storage": {
						"encoding": "inplace",
						"label": "struct Presale.PresaleStatus",
						"members": [
							{
								"astId": 753,
								"contract": "Ethereum/Presale.sol:Presale",
								"label": "totalBaseCollected",
								"offset": 0,
								"slot": "0",
								"type": "t_uint256"
							},
							{
								"astId": 755,
								"contract": "Ethereum/Presale.sol:Presale",
								"label": "totalTokenSold",
								"offset": 0,
								"slot": "1",
								"type": "t_uint256"
							},
							{
								"astId": 757,
								"contract": "Ethereum/Presale.sol:Presale",
								"label": "totalTokenWithDraw",
								"offset": 0,
								"slot": "2",
								"type": "t_uint256"
							},
							{
								"astId": 759,
								"contract": "Ethereum/Presale.sol:Presale",
								"label": "totalBaseWithDraw",
								"offset": 0,
								"slot": "3",
								"type": "t_uint256"
							},
							{
								"astId": 761,
								"contract": "Ethereum/Presale.sol:Presale",
								"label": "totalTokenBackForAdmin",
								"offset": 0,
								"slot": "4",
								"type": "t_uint256"
							},
							{
								"astId": 763,
								"contract": "Ethereum/Presale.sol:Presale",
								"label": "totalBaseBackForAdmin",
								"offset": 0,
								"slot": "5",
								"type": "t_uint256"
							},
							{
								"astId": 765,
								"contract": "Ethereum/Presale.sol:Presale",
								"label": "numberBuyer",
								"offset": 0,
								"slot": "6",
								"type": "t_uint256"
							},
							{
								"astId": 767,
								"contract": "Ethereum/Presale.sol:Presale",
								"label": "isOwnerClaimSaleToken",
								"offset": 0,
								"slot": "7",
								"type": "t_bool"
							},
							{
								"astId": 769,
								"contract": "Ethereum/Presale.sol:Presale",
								"label": "isOwnerRefundBaseToken",
								"offset": 1,
								"slot": "7",
								"type": "t_bool"
							},
							{
								"astId": 772,
								"contract": "Ethereum/Presale.sol:Presale",
								"label": "admin",
								"offset": 0,
								"slot": "8",
								"type": "t_array(t_address)dyn_storage"
							}
						],
						"numberOfBytes": "288"
					},
					"t_struct(SaleInfor)735_storage": {
						"encoding": "inplace",
						"label": "struct Presale.SaleInfor",
						"members": [
							{
								"astId": 710,
								"contract": "Ethereum/Presale.sol:Presale",
								"label": "presaleOwner",
								"offset": 0,
								"slot": "0",
								"type": "t_address_payable"
							},
							{
								"astId": 713,
								"contract": "Ethereum/Presale.sol:Presale",
								"label": "saleToken",
								"offset": 0,
								"slot": "1",
								"type": "t_contract(ERC20)585"
							},
							{
								"astId": 716,
								"contract": "Ethereum/Presale.sol:Presale",
								"label": "baseToken",
								"offset": 0,
								"slot": "2",
								"type": "t_contract(ERC20)585"
							},
							{
								"astId": 718,
								"contract": "Ethereum/Presale.sol:Presale",
								"label": "tokenPrice",
								"offset": 0,
								"slot": "3",
								"type": "t_uint256"
							},
							{
								"astId": 720,
								"contract": "Ethereum/Presale.sol:Presale",
								"label": "startSale",
								"offset": 0,
								"slot": "4",
								"type": "t_uint256"
							},
							{
								"astId": 722,
								"contract": "Ethereum/Presale.sol:Presale",
								"label": "endSale",
								"offset": 0,
								"slot": "5",
								"type": "t_uint256"
							},
							{
								"astId": 724,
								"contract": "Ethereum/Presale.sol:Presale",
								"label": "minSpendPerBuyer",
								"offset": 0,
								"slot": "6",
								"type": "t_uint256"
							},
							{
								"astId": 726,
								"contract": "Ethereum/Presale.sol:Presale",
								"label": "maxSpendPerBuyer",
								"offset": 0,
								"slot": "7",
								"type": "t_uint256"
							},
							{
								"astId": 728,
								"contract": "Ethereum/Presale.sol:Presale",
								"label": "refundFee",
								"offset": 0,
								"slot": "8",
								"type": "t_uint256"
							},
							{
								"astId": 730,
								"contract": "Ethereum/Presale.sol:Presale",
								"label": "claimFee",
								"offset": 0,
								"slot": "9",
								"type": "t_uint256"
							},
							{
								"astId": 732,
								"contract": "Ethereum/Presale.sol:Presale",
								"label": "saleIsBaseToken",
								"offset": 0,
								"slot": "10",
								"type": "t_bool"
							},
							{
								"astId": 734,
								"contract": "Ethereum/Presale.sol:Presale",
								"label": "amountTokenForSale",
								"offset": 0,
								"slot": "11",
								"type": "t_uint256"
							}
						],
						"numberOfBytes": "384"
					},
					"t_struct(SaleTotalSupply)740_storage": {
						"encoding": "inplace",
						"label": "struct Presale.SaleTotalSupply",
						"members": [
							{
								"astId": 737,
								"contract": "Ethereum/Presale.sol:Presale",
								"label": "hardCap",
								"offset": 0,
								"slot": "0",
								"type": "t_uint256"
							},
							{
								"astId": 739,
								"contract": "Ethereum/Presale.sol:Presale",
								"label": "softCap",
								"offset": 0,
								"slot": "1",
								"type": "t_uint256"
							}
						],
						"numberOfBytes": "64"
					},
					"t_struct(Set)1868_storage": {
						"encoding": "inplace",
						"label": "struct EnumerableSet.Set",
						"members": [
							{
								"astId": 1863,
								"contract": "Ethereum/Presale.sol:Presale",
								"label": "_values",
								"offset": 0,
								"slot": "0",
								"type": "t_array(t_bytes32)dyn_storage"
							},
							{
								"astId": 1867,
								"contract": "Ethereum/Presale.sol:Presale",
								"label": "_indexes",
								"offset": 0,
								"slot": "1",
								"type": "t_mapping(t_bytes32,t_uint256)"
							}
						],
						"numberOfBytes": "64"
					},
					"t_uint256": {
						"encoding": "inplace",
						"label": "uint256",
						"numberOfBytes": "32"
					}
				}
			},
			"userdoc": {
				"kind": "user",
				"methods": {},
				"version": 1
			}
		}
	}
}