{
	"Ethereum/Presale.sol": {
		"Presale": {
			"abi": [
				{
					"inputs": [],
					"stateMutability": "payable",
					"type": "constructor"
				},
				{
					"anonymous": false,
					"inputs": [
						{
							"indexed": true,
							"internalType": "address",
							"name": "previousOwner",
							"type": "address"
						},
						{
							"indexed": true,
							"internalType": "address",
							"name": "newOwner",
							"type": "address"
						}
					],
					"name": "OwnershipTransferred",
					"type": "event"
				},
				{
					"inputs": [],
					"name": "WETH",
					"outputs": [
						{
							"internalType": "contract IERC20",
							"name": "",
							"type": "address"
						}
					],
					"stateMutability": "view",
					"type": "function"
				},
				{
					"inputs": [],
					"name": "backToken",
					"outputs": [],
					"stateMutability": "payable",
					"type": "function"
				},
				{
					"inputs": [
						{
							"internalType": "address",
							"name": "",
							"type": "address"
						}
					],
					"name": "buyerInfo",
					"outputs": [
						{
							"internalType": "uint256",
							"name": "baseDeposit",
							"type": "uint256"
						},
						{
							"internalType": "uint256",
							"name": "tokenOwner",
							"type": "uint256"
						},
						{
							"internalType": "uint256",
							"name": "lastWithDraw",
							"type": "uint256"
						},
						{
							"internalType": "uint256",
							"name": "totalTokenWithDraw",
							"type": "uint256"
						}
					],
					"stateMutability": "view",
					"type": "function"
				},
				{
					"inputs": [],
					"name": "checkAdminAddress",
					"outputs": [
						{
							"internalType": "bool",
							"name": "",
							"type": "bool"
						}
					],
					"stateMutability": "view",
					"type": "function"
				},
				{
					"inputs": [
						{
							"internalType": "uint256",
							"name": "_amount",
							"type": "uint256"
						}
					],
					"name": "deposit",
					"outputs": [],
					"stateMutability": "payable",
					"type": "function"
				},
				{
					"inputs": [],
					"name": "feeAnyone",
					"outputs": [
						{
							"internalType": "uint256",
							"name": "",
							"type": "uint256"
						}
					],
					"stateMutability": "view",
					"type": "function"
				},
				{
					"inputs": [
						{
							"internalType": "address",
							"name": "_address",
							"type": "address"
						}
					],
					"name": "getBalance",
					"outputs": [
						{
							"internalType": "uint256",
							"name": "",
							"type": "uint256"
						}
					],
					"stateMutability": "view",
					"type": "function"
				},
				{
					"inputs": [
						{
							"internalType": "address payable",
							"name": "_presaleOwner",
							"type": "address"
						},
						{
							"internalType": "contract ERC20",
							"name": "_saleToken",
							"type": "address"
						},
						{
							"internalType": "contract ERC20",
							"name": "_baseTOken",
							"type": "address"
						},
						{
							"internalType": "uint256[9]",
							"name": "datas",
							"type": "uint256[9]"
						}
					],
					"name": "initialSaleInfor",
					"outputs": [],
					"stateMutability": "nonpayable",
					"type": "function"
				},
				{
					"inputs": [],
					"name": "owner",
					"outputs": [
						{
							"internalType": "address",
							"name": "",
							"type": "address"
						}
					],
					"stateMutability": "view",
					"type": "function"
				},
				{
					"inputs": [],
					"name": "ownerClaimToken",
					"outputs": [],
					"stateMutability": "nonpayable",
					"type": "function"
				},
				{
					"inputs": [],
					"name": "presaleStatus",
					"outputs": [
						{
							"internalType": "uint256",
							"name": "totalBaseCollected",
							"type": "uint256"
						},
						{
							"internalType": "uint256",
							"name": "totalTokenSold",
							"type": "uint256"
						},
						{
							"internalType": "uint256",
							"name": "totalTokenWithDraw",
							"type": "uint256"
						},
						{
							"internalType": "uint256",
							"name": "totalBaseWithDraw",
							"type": "uint256"
						},
						{
							"internalType": "uint256",
							"name": "numberBuyer",
							"type": "uint256"
						},
						{
							"internalType": "bool",
							"name": "isOwnerClaimSaleToken",
							"type": "bool"
						},
						{
							"internalType": "bool",
							"name": "isOwnerRefundBaseToken",
							"type": "bool"
						}
					],
					"stateMutability": "view",
					"type": "function"
				},
				{
					"inputs": [],
					"name": "renounceOwnership",
					"outputs": [],
					"stateMutability": "nonpayable",
					"type": "function"
				},
				{
					"inputs": [],
					"name": "saleInfor",
					"outputs": [
						{
							"internalType": "address payable",
							"name": "presaleOwner",
							"type": "address"
						},
						{
							"internalType": "contract ERC20",
							"name": "saleToken",
							"type": "address"
						},
						{
							"internalType": "contract ERC20",
							"name": "baseToken",
							"type": "address"
						},
						{
							"internalType": "uint256",
							"name": "tokenPrice",
							"type": "uint256"
						},
						{
							"internalType": "uint256",
							"name": "startSale",
							"type": "uint256"
						},
						{
							"internalType": "uint256",
							"name": "endSale",
							"type": "uint256"
						},
						{
							"internalType": "uint256",
							"name": "minSpendPerBuyer",
							"type": "uint256"
						},
						{
							"internalType": "uint256",
							"name": "maxSpendPerBuyer",
							"type": "uint256"
						},
						{
							"internalType": "uint256",
							"name": "refundFee",
							"type": "uint256"
						},
						{
							"internalType": "uint256",
							"name": "claimFee",
							"type": "uint256"
						},
						{
							"internalType": "bool",
							"name": "saleIsBaseToken",
							"type": "bool"
						},
						{
							"internalType": "uint256",
							"name": "amountTokenForSale",
							"type": "uint256"
						}
					],
					"stateMutability": "view",
					"type": "function"
				},
				{
					"inputs": [],
					"name": "saleTotalSupply",
					"outputs": [
						{
							"internalType": "uint256",
							"name": "hardCap",
							"type": "uint256"
						},
						{
							"internalType": "uint256",
							"name": "softCap",
							"type": "uint256"
						}
					],
					"stateMutability": "view",
					"type": "function"
				},
				{
					"inputs": [],
					"name": "status",
					"outputs": [
						{
							"internalType": "uint256",
							"name": "",
							"type": "uint256"
						}
					],
					"stateMutability": "view",
					"type": "function"
				},
				{
					"inputs": [],
					"name": "totalFee",
					"outputs": [
						{
							"internalType": "uint256",
							"name": "",
							"type": "uint256"
						}
					],
					"stateMutability": "view",
					"type": "function"
				},
				{
					"inputs": [
						{
							"internalType": "address",
							"name": "newOwner",
							"type": "address"
						}
					],
					"name": "transferOwnership",
					"outputs": [],
					"stateMutability": "nonpayable",
					"type": "function"
				},
				{
					"inputs": [],
					"name": "userClaimEmergency",
					"outputs": [],
					"stateMutability": "nonpayable",
					"type": "function"
				},
				{
					"inputs": [
						{
							"internalType": "address",
							"name": "",
							"type": "address"
						}
					],
					"name": "userFee",
					"outputs": [
						{
							"internalType": "uint256",
							"name": "",
							"type": "uint256"
						}
					],
					"stateMutability": "view",
					"type": "function"
				},
				{
					"inputs": [],
					"name": "userRefundEmergency",
					"outputs": [],
					"stateMutability": "nonpayable",
					"type": "function"
				}
			],
			"devdoc": {
				"kind": "dev",
				"methods": {
					"owner()": {
						"details": "Returns the address of the current owner."
					},
					"renounceOwnership()": {
						"details": "Leaves the contract without owner. It will not be possible to call `onlyOwner` functions anymore. Can only be called by the current owner. NOTE: Renouncing ownership will leave the contract without an owner, thereby removing any functionality that is only available to the owner."
					},
					"transferOwnership(address)": {
						"details": "Transfers ownership of the contract to a new account (`newOwner`). Can only be called by the current owner."
					}
				},
				"version": 1
			},
			"evm": {
				"assembly": "    /* \"Ethereum/Presale.sol\":370:8722  contract Presale is ReentrancyGuard, Ownable{\r... */\n  mstore(0x40, 0x80)\n    /* \"Utils/ReentrancyGuard.sol\":1734:1735  1 */\n  0x01\n    /* \"Utils/ReentrancyGuard.sol\":1845:1852  _status */\n  0x00\n    /* \"Utils/ReentrancyGuard.sol\":1845:1867  _status = _NOT_ENTERED */\n  sstore\n    /* \"Utils/Ownable.sol\":942:974  _transferOwnership(_msgSender()) */\n  tag_6\n    /* \"Utils/Context.sol\":736:746  msg.sender */\n  caller\n    /* \"Utils/Ownable.sol\":942:960  _transferOwnership */\n  tag_9\n    /* \"Utils/Ownable.sol\":942:974  _transferOwnership(_msgSender()) */\n  jump\t// in\ntag_6:\n    /* \"Ethereum/Presale.sol\":2246:2250  WETH */\n  0x19\n    /* \"Ethereum/Presale.sol\":2246:2302  WETH = ERC20(0xc778417E063141139Fce010982780140Aa0cD5Ab) */\n  dup1\n  sload\n    /* \"Ethereum/Presale.sol\":2259:2301  0xc778417E063141139Fce010982780140Aa0cD5Ab */\n  0xc778417e063141139fce010982780140aa0cd5ab\n  not(sub(shl(0xa0, 0x01), 0x01))\n    /* \"Ethereum/Presale.sol\":2246:2302  WETH = ERC20(0xc778417E063141139Fce010982780140Aa0cD5Ab) */\n  swap1\n  swap2\n  and\n  or\n  swap1\n  sstore\n    /* \"Ethereum/Presale.sol\":2313:2367  admins.add(0x6Ccb41eedA5a073076F3E7dC1614C185b5fA41eD) */\n  tag_11\n    /* \"Ethereum/Presale.sol\":2313:2319  admins */\n  0x1b\n    /* \"Ethereum/Presale.sol\":2324:2366  0x6Ccb41eedA5a073076F3E7dC1614C185b5fA41eD */\n  0x6ccb41eeda5a073076f3e7dc1614c185b5fa41ed\n    /* \"Ethereum/Presale.sol\":2313:2323  admins.add */\n  tag_12\n  0x20\n  swap1\n  dup2\n  shl\n  tag_0_112\n  or\n    /* \"Ethereum/Presale.sol\":2313:2367  admins.add(0x6Ccb41eedA5a073076F3E7dC1614C185b5fA41eD) */\n  swap1\n  shr\n  jump\t// in\ntag_11:\n  pop\n    /* \"Ethereum/Presale.sol\":2378:2432  admins.add(0x4f0B12bBF40Fc182559822A5b1dB6D34dbC3E016) */\n  tag_13\n    /* \"Ethereum/Presale.sol\":2389:2431  0x4f0B12bBF40Fc182559822A5b1dB6D34dbC3E016 */\n  0x4f0b12bbf40fc182559822a5b1db6d34dbc3e016\n    /* \"Ethereum/Presale.sol\":2378:2384  admins */\n  0x1b\n    /* \"Ethereum/Presale.sol\":2378:2388  admins.add */\n  or(tag_0_112, shl(0x20, tag_12))\n  swap1\n    /* \"Ethereum/Presale.sol\":2378:2432  admins.add(0x4f0B12bBF40Fc182559822A5b1dB6D34dbC3E016) */\n  swap2\n  swap1\n  0x20\n  shr\n  jump\t// in\ntag_13:\n  pop\n    /* \"Ethereum/Presale.sol\":2455:2457  20 */\n  0x14\n    /* \"Ethereum/Presale.sol\":2443:2452  feeAnyone */\n  0x1a\n    /* \"Ethereum/Presale.sol\":2443:2457  feeAnyone = 20 */\n  sstore\n    /* \"Ethereum/Presale.sol\":370:8722  contract Presale is ReentrancyGuard, Ownable{\r... */\n  jump(tag_14)\n    /* \"Utils/Ownable.sol\":2333:2524  function _transferOwnership(address newOwner) internal virtual {\r... */\ntag_9:\n    /* \"Utils/Ownable.sol\":2426:2432  _owner */\n  0x01\n  dup1\n  sload\n  sub(shl(0xa0, 0x01), 0x01)\n    /* \"Utils/Ownable.sol\":2443:2460  _owner = newOwner */\n  dup4\n  dup2\n  and\n  not(sub(shl(0xa0, 0x01), 0x01))\n  dup4\n  and\n  dup2\n  or\n  swap1\n  swap4\n  sstore\n    /* \"Utils/Ownable.sol\":2476:2516  OwnershipTransferred(oldOwner, newOwner) */\n  mload(0x40)\n    /* \"Utils/Ownable.sol\":2426:2432  _owner */\n  swap2\n  and\n  swap2\n    /* \"Utils/Ownable.sol\":2443:2460  _owner = newOwner */\n  swap1\n    /* \"Utils/Ownable.sol\":2426:2432  _owner */\n  dup3\n  swap1\n    /* \"Utils/Ownable.sol\":2476:2516  OwnershipTransferred(oldOwner, newOwner) */\n  0x8be0079c531659141344cd1fd0a4f28419497f9722a3daafe3b4186f6b6457e0\n  swap1\n    /* \"Utils/Ownable.sol\":2407:2423  address oldOwner */\n  0x00\n  swap1\n    /* \"Utils/Ownable.sol\":2476:2516  OwnershipTransferred(oldOwner, newOwner) */\n  log3\n    /* \"Utils/Ownable.sol\":2396:2524  {\r... */\n  pop\n    /* \"Utils/Ownable.sol\":2333:2524  function _transferOwnership(address newOwner) internal virtual {\r... */\n  pop\n  jump\t// out\n    /* \"Utils/EnumerableSet.sol\":8259:8411  function add(AddressSet storage set, address value) internal returns (bool) {\r... */\ntag_12:\n    /* \"Utils/EnumerableSet.sol\":8329:8333  bool */\n  0x00\n    /* \"Utils/EnumerableSet.sol\":8353:8403  _add(set._inner, bytes32(uint256(uint160(value)))) */\n  tag_18\n    /* \"Utils/EnumerableSet.sol\":8358:8361  set */\n  dup4\n  sub(shl(0xa0, 0x01), 0x01)\n    /* \"Utils/EnumerableSet.sol\":8378:8401  uint256(uint160(value)) */\n  dup5\n  and\n    /* \"Utils/EnumerableSet.sol\":8353:8357  _add */\n  tag_19\n    /* \"Utils/EnumerableSet.sol\":8353:8403  _add(set._inner, bytes32(uint256(uint160(value)))) */\n  jump\t// in\ntag_18:\n    /* \"Utils/EnumerableSet.sol\":8346:8403  return _add(set._inner, bytes32(uint256(uint160(value)))) */\n  swap1\n  pop\n    /* \"Utils/EnumerableSet.sol\":8259:8411  function add(AddressSet storage set, address value) internal returns (bool) {\r... */\ntag_17:\n  swap3\n  swap2\n  pop\n  pop\n  jump\t// out\n    /* \"Utils/EnumerableSet.sol\":2174:2588  function _add(Set storage set, bytes32 value) private returns (bool) {\r... */\ntag_19:\n    /* \"Utils/EnumerableSet.sol\":2237:2241  bool */\n  0x00\n    /* \"Utils/EnumerableSet.sol\":4367:4386  set._indexes[value] */\n  dup2\n  dup2\n  mstore\n    /* \"Utils/EnumerableSet.sol\":4367:4379  set._indexes */\n  0x01\n  dup4\n  add\n    /* \"Utils/EnumerableSet.sol\":4367:4386  set._indexes[value] */\n  0x20\n  mstore\n  0x40\n  dup2\n  keccak256\n  sload\n    /* \"Utils/EnumerableSet.sol\":2254:2581  if (!_contains(set, value)) {\r... */\n  tag_23\n  jumpi\n  pop\n    /* \"Utils/EnumerableSet.sol\":2297:2320  set._values.push(value) */\n  dup2\n  sload\n  0x01\n  dup2\n  dup2\n  add\n  dup5\n  sstore\n    /* \"Utils/EnumerableSet.sol\":2297:2308  set._values */\n  0x00\n    /* \"Utils/EnumerableSet.sol\":2297:2320  set._values.push(value) */\n  dup5\n  dup2\n  mstore\n  0x20\n  dup1\n  dup3\n  keccak256\n  swap1\n  swap4\n  add\n  dup5\n  swap1\n  sstore\n    /* \"Utils/EnumerableSet.sol\":2480:2498  set._values.length */\n  dup5\n  sload\n    /* \"Utils/EnumerableSet.sol\":2458:2477  set._indexes[value] */\n  dup5\n  dup3\n  mstore\n    /* \"Utils/EnumerableSet.sol\":2458:2470  set._indexes */\n  dup3\n  dup7\n  add\n    /* \"Utils/EnumerableSet.sol\":2458:2477  set._indexes[value] */\n  swap1\n  swap4\n  mstore\n  0x40\n  swap1\n  keccak256\n    /* \"Utils/EnumerableSet.sol\":2458:2498  set._indexes[value] = set._values.length */\n  swap2\n  swap1\n  swap2\n  sstore\n    /* \"Utils/EnumerableSet.sol\":2513:2524  return true */\n  jump(tag_17)\n    /* \"Utils/EnumerableSet.sol\":2254:2581  if (!_contains(set, value)) {\r... */\ntag_23:\n  pop\n    /* \"Utils/EnumerableSet.sol\":2564:2569  false */\n  0x00\n    /* \"Utils/EnumerableSet.sol\":2557:2569  return false */\n  jump(tag_17)\n    /* \"Ethereum/Presale.sol\":370:8722  contract Presale is ReentrancyGuard, Ownable{\r... */\ntag_14:\n  dataSize(sub_0)\n  dup1\n  dataOffset(sub_0)\n  0x00\n  codecopy\n  0x00\n  return\nstop\n\nsub_0: assembly {\n        /* \"Ethereum/Presale.sol\":370:8722  contract Presale is ReentrancyGuard, Ownable{\r... */\n      mstore(0x40, 0x80)\n      jumpi(tag_1, lt(calldatasize, 0x04))\n      shr(0xe0, calldataload(0x00))\n      dup1\n      0x8f1eae4c\n      gt\n      tag_22\n      jumpi\n      dup1\n      0xb6b55f25\n      gt\n      tag_23\n      jumpi\n      dup1\n      0xb6b55f25\n      eq\n      tag_17\n      jumpi\n      dup1\n      0xcad5b0f7\n      eq\n      tag_18\n      jumpi\n      dup1\n      0xe2d3f423\n      eq\n      tag_19\n      jumpi\n      dup1\n      0xf2fde38b\n      eq\n      tag_20\n      jumpi\n      dup1\n      0xf8b2cb4f\n      eq\n      tag_21\n      jumpi\n      0x00\n      dup1\n      revert\n    tag_23:\n      dup1\n      0x8f1eae4c\n      eq\n      tag_12\n      jumpi\n      dup1\n      0x95661e70\n      eq\n      tag_13\n      jumpi\n      dup1\n      0xab33985a\n      eq\n      tag_14\n      jumpi\n      dup1\n      0xacfb2355\n      eq\n      tag_15\n      jumpi\n      dup1\n      0xad5c4648\n      eq\n      tag_16\n      jumpi\n      0x00\n      dup1\n      revert\n    tag_22:\n      dup1\n      0x42d8a9da\n      gt\n      tag_24\n      jumpi\n      dup1\n      0x42d8a9da\n      eq\n      tag_7\n      jumpi\n      dup1\n      0x56c5f349\n      eq\n      tag_8\n      jumpi\n      dup1\n      0x715018a6\n      eq\n      tag_9\n      jumpi\n      dup1\n      0x861faf5f\n      eq\n      tag_10\n      jumpi\n      dup1\n      0x8da5cb5b\n      eq\n      tag_11\n      jumpi\n      0x00\n      dup1\n      revert\n    tag_24:\n      dup1\n      0x12e5d0b9\n      eq\n      tag_2\n      jumpi\n      dup1\n      0x18856a2f\n      eq\n      tag_3\n      jumpi\n      dup1\n      0x1df4ccfc\n      eq\n      tag_4\n      jumpi\n      dup1\n      0x200d2ed2\n      eq\n      tag_5\n      jumpi\n      dup1\n      0x3b5ef2ad\n      eq\n      tag_6\n      jumpi\n    tag_1:\n      0x00\n      dup1\n      revert\n        /* \"Ethereum/Presale.sol\":1624:1662  SaleTotalSupply public saleTotalSupply */\n    tag_2:\n      callvalue\n      dup1\n      iszero\n      tag_25\n      jumpi\n      0x00\n      dup1\n      revert\n    tag_25:\n      pop\n      sload(0x0b)\n      sload(0x0c)\n      tag_26\n      swap2\n      swap1\n      dup3\n      jump\n    tag_26:\n      0x40\n      dup1\n      mload\n        /* \"#utility.yul\":11102:11127   */\n      swap3\n      dup4\n      mstore\n        /* \"#utility.yul\":11158:11160   */\n      0x20\n        /* \"#utility.yul\":11143:11161   */\n      dup4\n      add\n        /* \"#utility.yul\":11136:11170   */\n      swap2\n      swap1\n      swap2\n      mstore\n        /* \"#utility.yul\":11075:11093   */\n      add\n        /* \"Ethereum/Presale.sol\":1624:1662  SaleTotalSupply public saleTotalSupply */\n    tag_28:\n      mload(0x40)\n      dup1\n      swap2\n      sub\n      swap1\n      return\n        /* \"Ethereum/Presale.sol\":1669:1695  SaleInfor public saleInfor */\n    tag_3:\n      callvalue\n      dup1\n      iszero\n      tag_30\n      jumpi\n      0x00\n      dup1\n      revert\n    tag_30:\n      pop\n      sload(0x0d)\n      sload(0x0e)\n      sload(0x0f)\n      sload(0x10)\n      sload(0x11)\n      sload(0x12)\n      sload(0x13)\n      sload(0x14)\n      sload(0x15)\n      sload(0x16)\n      sload(0x17)\n      sload(0x18)\n      tag_31\n      swap12\n      sub(shl(0xa0, 0x01), 0x01)\n      swap1\n      dup2\n      and\n      swap12\n      dup2\n      and\n      swap11\n      and\n      swap9\n      swap8\n      swap7\n      swap6\n      swap5\n      swap4\n      swap3\n      swap2\n      0xff\n      and\n      swap1\n      dup13\n      jump\n    tag_31:\n      0x40\n      dup1\n      mload\n      sub(shl(0xa0, 0x01), 0x01)\n        /* \"#utility.yul\":3376:3391   */\n      swap14\n      dup15\n      and\n        /* \"#utility.yul\":3358:3392   */\n      dup2\n      mstore\n        /* \"#utility.yul\":3428:3443   */\n      swap12\n      dup14\n      and\n        /* \"#utility.yul\":3423:3425   */\n      0x20\n        /* \"#utility.yul\":3408:3426   */\n      dup14\n      add\n        /* \"#utility.yul\":3401:3444   */\n      mstore\n        /* \"#utility.yul\":3480:3495   */\n      swap10\n      swap1\n      swap12\n      and\n        /* \"#utility.yul\":3460:3478   */\n      swap9\n      dup11\n      add\n        /* \"#utility.yul\":3453:3496   */\n      swap9\n      swap1\n      swap9\n      mstore\n        /* \"#utility.yul\":3527:3529   */\n      0x60\n        /* \"#utility.yul\":3512:3530   */\n      dup10\n      add\n        /* \"#utility.yul\":3505:3539   */\n      swap7\n      swap1\n      swap7\n      mstore\n        /* \"#utility.yul\":3570:3573   */\n      0x80\n        /* \"#utility.yul\":3555:3574   */\n      dup9\n      add\n        /* \"#utility.yul\":3548:3583   */\n      swap5\n      swap1\n      swap5\n      mstore\n        /* \"#utility.yul\":3338:3341   */\n      0xa0\n        /* \"#utility.yul\":3599:3618   */\n      dup8\n      add\n        /* \"#utility.yul\":3592:3627   */\n      swap3\n      swap1\n      swap3\n      mstore\n        /* \"#utility.yul\":3658:3661   */\n      0xc0\n        /* \"#utility.yul\":3643:3662   */\n      dup7\n      add\n        /* \"#utility.yul\":3636:3671   */\n      mstore\n        /* \"#utility.yul\":3702:3705   */\n      0xe0\n        /* \"#utility.yul\":3687:3706   */\n      dup6\n      add\n        /* \"#utility.yul\":3680:3715   */\n      mstore\n        /* \"#utility.yul\":3746:3749   */\n      0x0100\n        /* \"#utility.yul\":3731:3750   */\n      dup5\n      add\n        /* \"#utility.yul\":3724:3759   */\n      mstore\n        /* \"#utility.yul\":3790:3793   */\n      0x0120\n        /* \"#utility.yul\":3775:3794   */\n      dup4\n      add\n        /* \"#utility.yul\":3768:3803   */\n      mstore\n        /* \"#utility.yul\":3847:3862   */\n      iszero\n        /* \"#utility.yul\":3840:3863   */\n      iszero\n        /* \"#utility.yul\":3834:3837   */\n      0x0140\n        /* \"#utility.yul\":3819:3838   */\n      dup3\n      add\n        /* \"#utility.yul\":3812:3864   */\n      mstore\n        /* \"#utility.yul\":3895:3898   */\n      0x0160\n        /* \"#utility.yul\":3880:3899   */\n      dup2\n      add\n        /* \"#utility.yul\":3873:3909   */\n      swap2\n      swap1\n      swap2\n      mstore\n        /* \"#utility.yul\":3307:3310   */\n      0x0180\n        /* \"#utility.yul\":3292:3311   */\n      add\n        /* \"Ethereum/Presale.sol\":1669:1695  SaleInfor public saleInfor */\n      tag_28\n        /* \"#utility.yul\":3274:3915   */\n      jump\n        /* \"Ethereum/Presale.sol\":1805:1828  uint256 public totalFee */\n    tag_4:\n      callvalue\n      dup1\n      iszero\n      tag_35\n      jumpi\n      0x00\n      dup1\n      revert\n    tag_35:\n      pop\n      tag_36\n      sload(0x1d)\n      dup2\n      jump\n    tag_36:\n      mload(0x40)\n        /* \"#utility.yul\":10892:10917   */\n      swap1\n      dup2\n      mstore\n        /* \"#utility.yul\":10880:10882   */\n      0x20\n        /* \"#utility.yul\":10865:10883   */\n      add\n        /* \"Ethereum/Presale.sol\":1805:1828  uint256 public totalFee */\n      tag_28\n        /* \"#utility.yul\":10847:10923   */\n      jump\n        /* \"Ethereum/Presale.sol\":3672:4009  function status() public view returns(uint256) {\r... */\n    tag_5:\n      callvalue\n      dup1\n      iszero\n      tag_40\n      jumpi\n      0x00\n      dup1\n      revert\n    tag_40:\n      pop\n      tag_36\n      tag_42\n      jump\t// in\n        /* \"Ethereum/Presale.sol\":1727:1751  uint256 public feeAnyone */\n    tag_6:\n      callvalue\n      dup1\n      iszero\n      tag_44\n      jumpi\n      0x00\n      dup1\n      revert\n    tag_44:\n      pop\n      tag_36\n      sload(0x1a)\n      dup2\n      jump\n        /* \"Ethereum/Presale.sol\":8021:8481  function ownerClaimToken() external nonReentrant onlyPresaleOwner {\r... */\n    tag_7:\n      callvalue\n      dup1\n      iszero\n      tag_48\n      jumpi\n      0x00\n      dup1\n      revert\n    tag_48:\n      pop\n      tag_49\n      tag_50\n      jump\t// in\n    tag_49:\n      stop\n        /* \"Ethereum/Presale.sol\":1534:1576  mapping(address => uint256) public userFee */\n    tag_8:\n      callvalue\n      dup1\n      iszero\n      tag_51\n      jumpi\n      0x00\n      dup1\n      revert\n    tag_51:\n      pop\n      tag_36\n      tag_53\n      calldatasize\n      0x04\n      tag_54\n      jump\t// in\n    tag_53:\n      mstore(0x20, 0x03)\n      0x00\n      swap1\n      dup2\n      mstore\n      0x40\n      swap1\n      keccak256\n      sload\n      dup2\n      jump\n        /* \"Utils/Ownable.sol\":1714:1817  function renounceOwnership() public virtual onlyOwner {\r... */\n    tag_9:\n      callvalue\n      dup1\n      iszero\n      tag_57\n      jumpi\n      0x00\n      dup1\n      revert\n    tag_57:\n      pop\n      tag_49\n      tag_59\n      jump\t// in\n        /* \"Ethereum/Presale.sol\":8611:8719  function backToken() external payable {\r... */\n    tag_10:\n      tag_49\n      tag_61\n      jump\t// in\n        /* \"Utils/Ownable.sol\":1063:1150  function owner() public view virtual returns (address) {\r... */\n    tag_11:\n      callvalue\n      dup1\n      iszero\n      tag_62\n      jumpi\n      0x00\n      dup1\n      revert\n    tag_62:\n      pop\n        /* \"Utils/Ownable.sol\":1136:1142  _owner */\n      and(sub(shl(0xa0, 0x01), 0x01), sload(0x01))\n        /* \"Utils/Ownable.sol\":1063:1150  function owner() public view virtual returns (address) {\r... */\n    tag_63:\n      mload(0x40)\n      sub(shl(0xa0, 0x01), 0x01)\n        /* \"#utility.yul\":2783:2815   */\n      swap1\n      swap2\n      and\n        /* \"#utility.yul\":2765:2816   */\n      dup2\n      mstore\n        /* \"#utility.yul\":2753:2755   */\n      0x20\n        /* \"#utility.yul\":2738:2756   */\n      add\n        /* \"Utils/Ownable.sol\":1063:1150  function owner() public view virtual returns (address) {\r... */\n      tag_28\n        /* \"#utility.yul\":2720:2822   */\n      jump\n        /* \"Ethereum/Presale.sol\":2473:3663  function initialSaleInfor(\r... */\n    tag_12:\n      callvalue\n      dup1\n      iszero\n      tag_67\n      jumpi\n      0x00\n      dup1\n      revert\n    tag_67:\n      pop\n      tag_49\n      tag_69\n      calldatasize\n      0x04\n      tag_70\n      jump\t// in\n    tag_69:\n      tag_71\n      jump\t// in\n        /* \"Ethereum/Presale.sol\":7153:8013  function userRefundEmergency() external nonReentrant {\r... */\n    tag_13:\n      callvalue\n      dup1\n      iszero\n      tag_72\n      jumpi\n      0x00\n      dup1\n      revert\n    tag_72:\n      pop\n      tag_49\n      tag_74\n      jump\t// in\n        /* \"Ethereum/Presale.sol\":6270:7145  function userClaimEmergency() external nonReentrant {\r... */\n    tag_14:\n      callvalue\n      dup1\n      iszero\n      tag_75\n      jumpi\n      0x00\n      dup1\n      revert\n    tag_75:\n      pop\n      tag_49\n      tag_77\n      jump\t// in\n        /* \"Ethereum/Presale.sol\":1583:1617  PresaleStatus public presaleStatus */\n    tag_15:\n      callvalue\n      dup1\n      iszero\n      tag_78\n      jumpi\n      0x00\n      dup1\n      revert\n    tag_78:\n      pop\n      sload(0x04)\n      sload(0x05)\n      sload(0x06)\n      sload(0x07)\n      sload(0x08)\n      sload(0x09)\n      tag_79\n      swap6\n      swap5\n      swap4\n      swap3\n      swap2\n      swap1\n      0xff\n      dup1\n      dup3\n      and\n      swap2\n      0x0100\n      swap1\n      div\n      and\n      dup8\n      jump\n    tag_79:\n      0x40\n      dup1\n      mload\n        /* \"#utility.yul\":11880:11905   */\n      swap8\n      dup9\n      mstore\n        /* \"#utility.yul\":11936:11938   */\n      0x20\n        /* \"#utility.yul\":11921:11939   */\n      dup9\n      add\n        /* \"#utility.yul\":11914:11948   */\n      swap7\n      swap1\n      swap7\n      mstore\n        /* \"#utility.yul\":11964:11982   */\n      swap5\n      dup7\n      add\n        /* \"#utility.yul\":11957:11991   */\n      swap4\n      swap1\n      swap4\n      mstore\n        /* \"#utility.yul\":12022:12024   */\n      0x60\n        /* \"#utility.yul\":12007:12025   */\n      dup6\n      add\n        /* \"#utility.yul\":12000:12034   */\n      swap2\n      swap1\n      swap2\n      mstore\n        /* \"#utility.yul\":12065:12068   */\n      0x80\n        /* \"#utility.yul\":12050:12069   */\n      dup5\n      add\n        /* \"#utility.yul\":12043:12078   */\n      mstore\n        /* \"#utility.yul\":12122:12136   */\n      iszero\n        /* \"#utility.yul\":12115:12137   */\n      iszero\n        /* \"#utility.yul\":12109:12112   */\n      0xa0\n        /* \"#utility.yul\":12094:12113   */\n      dup4\n      add\n        /* \"#utility.yul\":12087:12138   */\n      mstore\n        /* \"#utility.yul\":12182:12196   */\n      iszero\n        /* \"#utility.yul\":12175:12197   */\n      iszero\n        /* \"#utility.yul\":12169:12172   */\n      0xc0\n        /* \"#utility.yul\":12154:12173   */\n      dup3\n      add\n        /* \"#utility.yul\":12147:12198   */\n      mstore\n        /* \"#utility.yul\":11867:11870   */\n      0xe0\n        /* \"#utility.yul\":11852:11871   */\n      add\n        /* \"Ethereum/Presale.sol\":1583:1617  PresaleStatus public presaleStatus */\n      tag_28\n        /* \"#utility.yul\":11834:12204   */\n      jump\n        /* \"Ethereum/Presale.sol\":1702:1720  IERC20 public WETH */\n    tag_16:\n      callvalue\n      dup1\n      iszero\n      tag_83\n      jumpi\n      0x00\n      dup1\n      revert\n    tag_83:\n      pop\n      sload(0x19)\n      tag_63\n      swap1\n      sub(shl(0xa0, 0x01), 0x01)\n      and\n      dup2\n      jump\n        /* \"Ethereum/Presale.sol\":4136:6262  function deposit(uint256 _amount) external payable nonReentrant {\r... */\n    tag_17:\n      tag_49\n      tag_89\n      calldatasize\n      0x04\n      tag_90\n      jump\t// in\n    tag_89:\n      tag_91\n      jump\t// in\n        /* \"Ethereum/Presale.sol\":4018:4128  function checkAdminAddress() public view returns(bool) {\r... */\n    tag_18:\n      callvalue\n      dup1\n      iszero\n      tag_92\n      jumpi\n      0x00\n      dup1\n      revert\n    tag_92:\n      pop\n      tag_93\n      tag_94\n      jump\t// in\n    tag_93:\n      mload(0x40)\n        /* \"#utility.yul\":5031:5045   */\n      swap1\n      iszero\n        /* \"#utility.yul\":5024:5046   */\n      iszero\n        /* \"#utility.yul\":5006:5047   */\n      dup2\n      mstore\n        /* \"#utility.yul\":4994:4996   */\n      0x20\n        /* \"#utility.yul\":4979:4997   */\n      add\n        /* \"Ethereum/Presale.sol\":4018:4128  function checkAdminAddress() public view returns(bool) {\r... */\n      tag_28\n        /* \"#utility.yul\":4961:5053   */\n      jump\n        /* \"Ethereum/Presale.sol\":1481:1527  mapping(address => BuyerInfo) public buyerInfo */\n    tag_19:\n      callvalue\n      dup1\n      iszero\n      tag_97\n      jumpi\n      0x00\n      dup1\n      revert\n    tag_97:\n      pop\n      tag_98\n      tag_99\n      calldatasize\n      0x04\n      tag_54\n      jump\t// in\n    tag_99:\n      0x02\n      0x20\n      dup2\n      swap1\n      mstore\n      0x00\n      swap2\n      dup3\n      mstore\n      0x40\n      swap1\n      swap2\n      keccak256\n      dup1\n      sload\n      0x01\n      dup3\n      add\n      sload\n      swap3\n      dup3\n      add\n      sload\n      0x03\n      swap1\n      swap3\n      add\n      sload\n      swap1\n      swap3\n      swap2\n      swap1\n      dup5\n      jump\n    tag_98:\n      0x40\n      dup1\n      mload\n        /* \"#utility.yul\":11412:11437   */\n      swap5\n      dup6\n      mstore\n        /* \"#utility.yul\":11468:11470   */\n      0x20\n        /* \"#utility.yul\":11453:11471   */\n      dup6\n      add\n        /* \"#utility.yul\":11446:11480   */\n      swap4\n      swap1\n      swap4\n      mstore\n        /* \"#utility.yul\":11496:11514   */\n      swap2\n      dup4\n      add\n        /* \"#utility.yul\":11489:11523   */\n      mstore\n        /* \"#utility.yul\":11554:11556   */\n      0x60\n        /* \"#utility.yul\":11539:11557   */\n      dup3\n      add\n        /* \"#utility.yul\":11532:11566   */\n      mstore\n        /* \"#utility.yul\":11399:11402   */\n      0x80\n        /* \"#utility.yul\":11384:11403   */\n      add\n        /* \"Ethereum/Presale.sol\":1481:1527  mapping(address => BuyerInfo) public buyerInfo */\n      tag_28\n        /* \"#utility.yul\":11366:11572   */\n      jump\n        /* \"Utils/Ownable.sol\":1972:2173  function transferOwnership(address newOwner) public virtual onlyOwner {\r... */\n    tag_20:\n      callvalue\n      dup1\n      iszero\n      tag_103\n      jumpi\n      0x00\n      dup1\n      revert\n    tag_103:\n      pop\n      tag_49\n      tag_105\n      calldatasize\n      0x04\n      tag_54\n      jump\t// in\n    tag_105:\n      tag_106\n      jump\t// in\n        /* \"Ethereum/Presale.sol\":8489:8600  function getBalance(address _address) external view returns(uint256) {\r... */\n    tag_21:\n      callvalue\n      dup1\n      iszero\n      tag_107\n      jumpi\n      0x00\n      dup1\n      revert\n    tag_107:\n      pop\n      tag_36\n      tag_109\n      calldatasize\n      0x04\n      tag_54\n      jump\t// in\n    tag_109:\n      sub(shl(0xa0, 0x01), 0x01)\n        /* \"Ethereum/Presale.sol\":8576:8592  _address.balance */\n      and\n      balance\n      swap1\n        /* \"Ethereum/Presale.sol\":8489:8600  function getBalance(address _address) external view returns(uint256) {\r... */\n      jump\n        /* \"Ethereum/Presale.sol\":3672:4009  function status() public view returns(uint256) {\r... */\n    tag_42:\n        /* \"Ethereum/Presale.sol\":3751:3770  saleInfor.startSale */\n      sload(0x11)\n        /* \"Ethereum/Presale.sol\":3710:3717  uint256 */\n      0x00\n      swap1\n        /* \"Ethereum/Presale.sol\":3733:3748  block.timestamp */\n      timestamp\n        /* \"Ethereum/Presale.sol\":3733:3770  block.timestamp < saleInfor.startSale */\n      lt\n        /* \"Ethereum/Presale.sol\":3730:4002  if(block.timestamp < saleInfor.startSale) {\r... */\n      iszero\n      tag_114\n      jumpi\n      pop\n        /* \"Ethereum/Presale.sol\":3794:3795  0 */\n      0x00\n      swap1\n        /* \"Ethereum/Presale.sol\":3672:4009  function status() public view returns(uint256) {\r... */\n      jump\t// out\n        /* \"Ethereum/Presale.sol\":3730:4002  if(block.timestamp < saleInfor.startSale) {\r... */\n    tag_114:\n        /* \"Ethereum/Presale.sol\":3861:3878  saleInfor.endSale */\n      sload(0x12)\n        /* \"Ethereum/Presale.sol\":3843:3858  block.timestamp */\n      timestamp\n        /* \"Ethereum/Presale.sol\":3843:3878  block.timestamp > saleInfor.endSale */\n      gt\n        /* \"Ethereum/Presale.sol\":3840:3991  if(block.timestamp > saleInfor.endSale) {\r... */\n      iszero\n      tag_116\n      jumpi\n      pop\n        /* \"Ethereum/Presale.sol\":3906:3907  2 */\n      0x02\n      swap1\n        /* \"Ethereum/Presale.sol\":3672:4009  function status() public view returns(uint256) {\r... */\n      jump\t// out\n        /* \"Ethereum/Presale.sol\":3840:3991  if(block.timestamp > saleInfor.endSale) {\r... */\n    tag_116:\n      pop\n        /* \"Ethereum/Presale.sol\":3964:3965  1 */\n      0x01\n      swap1\n        /* \"Ethereum/Presale.sol\":3672:4009  function status() public view returns(uint256) {\r... */\n      jump\t// out\n        /* \"Ethereum/Presale.sol\":8021:8481  function ownerClaimToken() external nonReentrant onlyPresaleOwner {\r... */\n    tag_50:\n        /* \"Utils/ReentrancyGuard.sol\":1778:1779  2 */\n      0x02\n        /* \"Utils/ReentrancyGuard.sol\":2376:2383  _status */\n      sload(0x00)\n        /* \"Utils/ReentrancyGuard.sol\":2376:2395  _status != _ENTERED */\n      eq\n      iszero\n        /* \"Utils/ReentrancyGuard.sol\":2368:2431  require(_status != _ENTERED, \"ReentrancyGuard: reentrant call\") */\n      tag_119\n      jumpi\n      mload(0x40)\n      shl(0xe5, 0x461bcd)\n      dup2\n      mstore\n      0x04\n      add\n      tag_120\n      swap1\n      tag_121\n      jump\t// in\n    tag_120:\n      mload(0x40)\n      dup1\n      swap2\n      sub\n      swap1\n      revert\n    tag_119:\n        /* \"Utils/ReentrancyGuard.sol\":1778:1779  2 */\n      0x02\n        /* \"Utils/ReentrancyGuard.sol\":2509:2516  _status */\n      0x00\n        /* \"Utils/ReentrancyGuard.sol\":2509:2527  _status = _ENTERED */\n      sstore\n        /* \"Ethereum/Presale.sol\":2011:2020  saleInfor */\n      0x0d\n        /* \"Ethereum/Presale.sol\":2011:2033  saleInfor.presaleOwner */\n      sload\n      sub(shl(0xa0, 0x01), 0x01)\n      and\n        /* \"Utils/Context.sol\":736:746  msg.sender */\n      caller\n      sub(shl(0xa0, 0x01), 0x01)\n        /* \"Ethereum/Presale.sol\":1995:2033  _msgSender() == saleInfor.presaleOwner */\n      and\n      eq\n        /* \"Ethereum/Presale.sol\":1987:2056  require(_msgSender() == saleInfor.presaleOwner, \"Only presale owner\") */\n      tag_125\n      jumpi\n      mload(0x40)\n      shl(0xe5, 0x461bcd)\n      dup2\n      mstore\n        /* \"#utility.yul\":8424:8426   */\n      0x20\n        /* \"Ethereum/Presale.sol\":1987:2056  require(_msgSender() == saleInfor.presaleOwner, \"Only presale owner\") */\n      0x04\n      dup3\n      add\n        /* \"#utility.yul\":8406:8427   */\n      mstore\n        /* \"#utility.yul\":8463:8465   */\n      0x12\n        /* \"#utility.yul\":8443:8461   */\n      0x24\n      dup3\n      add\n        /* \"#utility.yul\":8436:8466   */\n      mstore\n      shl(0x71, 0x27b7363c90383932b9b0b6329037bbb732b9)\n        /* \"#utility.yul\":8482:8500   */\n      0x44\n      dup3\n      add\n        /* \"#utility.yul\":8475:8523   */\n      mstore\n        /* \"#utility.yul\":8540:8558   */\n      0x64\n      add\n        /* \"Ethereum/Presale.sol\":1987:2056  require(_msgSender() == saleInfor.presaleOwner, \"Only presale owner\") */\n      tag_120\n        /* \"#utility.yul\":8396:8564   */\n      jump\n        /* \"Ethereum/Presale.sol\":1987:2056  require(_msgSender() == saleInfor.presaleOwner, \"Only presale owner\") */\n    tag_125:\n        /* \"Ethereum/Presale.sol\":8106:8114  status() */\n      tag_129\n        /* \"Ethereum/Presale.sol\":8106:8112  status */\n      tag_42\n        /* \"Ethereum/Presale.sol\":8106:8114  status() */\n      jump\t// in\n    tag_129:\n        /* \"Ethereum/Presale.sol\":8118:8119  2 */\n      0x02\n        /* \"Ethereum/Presale.sol\":8106:8119  status() == 2 */\n      eq\n        /* \"Ethereum/Presale.sol\":8098:8144  require(status() == 2, \"Sale not yet sucesss\") */\n      tag_130\n      jumpi\n      mload(0x40)\n      shl(0xe5, 0x461bcd)\n      dup2\n      mstore\n        /* \"#utility.yul\":9132:9134   */\n      0x20\n        /* \"Ethereum/Presale.sol\":8098:8144  require(status() == 2, \"Sale not yet sucesss\") */\n      0x04\n      dup3\n      add\n        /* \"#utility.yul\":9114:9135   */\n      mstore\n        /* \"#utility.yul\":9171:9173   */\n      0x14\n        /* \"#utility.yul\":9151:9169   */\n      0x24\n      dup3\n      add\n        /* \"#utility.yul\":9144:9174   */\n      mstore\n      shl(0x60, 0x53616c65206e6f74207965742073756365737373)\n        /* \"#utility.yul\":9190:9208   */\n      0x44\n      dup3\n      add\n        /* \"#utility.yul\":9183:9233   */\n      mstore\n        /* \"#utility.yul\":9250:9268   */\n      0x64\n      add\n        /* \"Ethereum/Presale.sol\":8098:8144  require(status() == 2, \"Sale not yet sucesss\") */\n      tag_120\n        /* \"#utility.yul\":9104:9274   */\n      jump\n        /* \"Ethereum/Presale.sol\":8098:8144  require(status() == 2, \"Sale not yet sucesss\") */\n    tag_130:\n        /* \"Ethereum/Presale.sol\":8164:8199  presaleStatus.isOwnerClaimSaleToken */\n      and(0xff, sload(0x09))\n        /* \"Ethereum/Presale.sol\":8163:8199  !presaleStatus.isOwnerClaimSaleToken */\n      iszero\n        /* \"Ethereum/Presale.sol\":8155:8233  require(!presaleStatus.isOwnerClaimSaleToken, \"Nothing for owner claim token\") */\n      tag_133\n      jumpi\n      mload(0x40)\n      shl(0xe5, 0x461bcd)\n      dup2\n      mstore\n        /* \"#utility.yul\":9886:9888   */\n      0x20\n        /* \"Ethereum/Presale.sol\":8155:8233  require(!presaleStatus.isOwnerClaimSaleToken, \"Nothing for owner claim token\") */\n      0x04\n      dup3\n      add\n        /* \"#utility.yul\":9868:9889   */\n      mstore\n        /* \"#utility.yul\":9925:9927   */\n      0x1d\n        /* \"#utility.yul\":9905:9923   */\n      0x24\n      dup3\n      add\n        /* \"#utility.yul\":9898:9928   */\n      mstore\n        /* \"#utility.yul\":9964:9995   */\n      0x4e6f7468696e6720666f72206f776e657220636c61696d20746f6b656e000000\n        /* \"#utility.yul\":9944:9962   */\n      0x44\n      dup3\n      add\n        /* \"#utility.yul\":9937:9996   */\n      mstore\n        /* \"#utility.yul\":10013:10031   */\n      0x64\n      add\n        /* \"Ethereum/Presale.sol\":8155:8233  require(!presaleStatus.isOwnerClaimSaleToken, \"Nothing for owner claim token\") */\n      tag_120\n        /* \"#utility.yul\":9858:10037   */\n      jump\n        /* \"Ethereum/Presale.sol\":8155:8233  require(!presaleStatus.isOwnerClaimSaleToken, \"Nothing for owner claim token\") */\n    tag_133:\n        /* \"Ethereum/Presale.sol\":8282:8301  saleInfor.saleToken */\n      sload(0x0e)\n        /* \"Ethereum/Presale.sol\":8276:8327  ERC20(saleInfor.saleToken).balanceOf(address(this)) */\n      mload(0x40)\n      shl(0xe0, 0x70a08231)\n      dup2\n      mstore\n        /* \"Ethereum/Presale.sol\":8321:8325  this */\n      address\n        /* \"Ethereum/Presale.sol\":8276:8327  ERC20(saleInfor.saleToken).balanceOf(address(this)) */\n      0x04\n      dup3\n      add\n        /* \"#utility.yul\":2765:2816   */\n      mstore\n        /* \"Ethereum/Presale.sol\":8244:8273  uint256 amountOwnerClaimToken */\n      0x00\n      swap2\n      sub(shl(0xa0, 0x01), 0x01)\n        /* \"Ethereum/Presale.sol\":8282:8301  saleInfor.saleToken */\n      and\n      swap1\n        /* \"Ethereum/Presale.sol\":8276:8312  ERC20(saleInfor.saleToken).balanceOf */\n      0x70a08231\n      swap1\n        /* \"#utility.yul\":2738:2756   */\n      0x24\n      add\n        /* \"Ethereum/Presale.sol\":8276:8327  ERC20(saleInfor.saleToken).balanceOf(address(this)) */\n      0x20\n      mload(0x40)\n      dup1\n      dup4\n      sub\n      dup2\n      dup7\n      dup1\n      extcodesize\n      iszero\n      dup1\n      iszero\n      tag_137\n      jumpi\n      0x00\n      dup1\n      revert\n    tag_137:\n      pop\n      gas\n      staticcall\n      iszero\n      dup1\n      iszero\n      tag_139\n      jumpi\n      returndatasize\n      0x00\n      dup1\n      returndatacopy\n      revert(0x00, returndatasize)\n    tag_139:\n      pop\n      pop\n      pop\n      pop\n      mload(0x40)\n      returndatasize\n      not(0x1f)\n      0x1f\n      dup3\n      add\n      and\n      dup3\n      add\n      dup1\n      0x40\n      mstore\n      pop\n      dup2\n      add\n      swap1\n      tag_140\n      swap2\n      swap1\n      tag_141\n      jump\t// in\n    tag_140:\n        /* \"Ethereum/Presale.sol\":8344:8363  saleInfor.saleToken */\n      sload(0x0e)\n        /* \"Ethereum/Presale.sol\":8344:8353  saleInfor */\n      0x0d\n        /* \"Ethereum/Presale.sol\":8374:8396  saleInfor.presaleOwner */\n      sload\n        /* \"Ethereum/Presale.sol\":8338:8420  ERC20(saleInfor.saleToken).transfer(saleInfor.presaleOwner, amountOwnerClaimToken) */\n      mload(0x40)\n      shl(0xe0, 0xa9059cbb)\n      dup2\n      mstore\n      sub(shl(0xa0, 0x01), 0x01)\n        /* \"Ethereum/Presale.sol\":8374:8396  saleInfor.presaleOwner */\n      swap2\n      dup3\n      and\n        /* \"Ethereum/Presale.sol\":8338:8420  ERC20(saleInfor.saleToken).transfer(saleInfor.presaleOwner, amountOwnerClaimToken) */\n      0x04\n      dup3\n      add\n        /* \"#utility.yul\":4102:4153   */\n      mstore\n        /* \"#utility.yul\":4169:4187   */\n      0x24\n      dup2\n      add\n        /* \"#utility.yul\":4162:4196   */\n      dup5\n      swap1\n      mstore\n        /* \"Ethereum/Presale.sol\":8244:8327  uint256 amountOwnerClaimToken = ERC20(saleInfor.saleToken).balanceOf(address(this)) */\n      swap3\n      swap4\n      pop\n        /* \"Ethereum/Presale.sol\":8344:8363  saleInfor.saleToken */\n      and\n      swap1\n        /* \"Ethereum/Presale.sol\":8338:8373  ERC20(saleInfor.saleToken).transfer */\n      0xa9059cbb\n      swap1\n        /* \"#utility.yul\":4075:4093   */\n      0x44\n      add\n        /* \"Ethereum/Presale.sol\":8338:8420  ERC20(saleInfor.saleToken).transfer(saleInfor.presaleOwner, amountOwnerClaimToken) */\n      0x20\n      mload(0x40)\n      dup1\n      dup4\n      sub\n      dup2\n      0x00\n      dup8\n      dup1\n      extcodesize\n      iszero\n      dup1\n      iszero\n      tag_144\n      jumpi\n      0x00\n      dup1\n      revert\n    tag_144:\n      pop\n      gas\n      call\n      iszero\n      dup1\n      iszero\n      tag_146\n      jumpi\n      returndatasize\n      0x00\n      dup1\n      returndatacopy\n      revert(0x00, returndatasize)\n    tag_146:\n      pop\n      pop\n      pop\n      pop\n      mload(0x40)\n      returndatasize\n      not(0x1f)\n      0x1f\n      dup3\n      add\n      and\n      dup3\n      add\n      dup1\n      0x40\n      mstore\n      pop\n      dup2\n      add\n      swap1\n      tag_147\n      swap2\n      swap1\n      tag_148\n      jump\t// in\n    tag_147:\n      pop\n      pop\n        /* \"Ethereum/Presale.sol\":8431:8466  presaleStatus.isOwnerClaimSaleToken */\n      0x09\n        /* \"Ethereum/Presale.sol\":8431:8473  presaleStatus.isOwnerClaimSaleToken = true */\n      dup1\n      sload\n      not(0xff)\n      and\n        /* \"Ethereum/Presale.sol\":8469:8473  true */\n      0x01\n        /* \"Ethereum/Presale.sol\":8431:8473  presaleStatus.isOwnerClaimSaleToken = true */\n      swap1\n      dup2\n      or\n      swap1\n      swap2\n      sstore\n        /* \"Ethereum/Presale.sol\":8431:8466  presaleStatus.isOwnerClaimSaleToken */\n      0x00\n        /* \"Utils/ReentrancyGuard.sol\":2688:2710  _status = _NOT_ENTERED */\n      sstore\n        /* \"Ethereum/Presale.sol\":8021:8481  function ownerClaimToken() external nonReentrant onlyPresaleOwner {\r... */\n      jump\t// out\n        /* \"Utils/Ownable.sol\":1714:1817  function renounceOwnership() public virtual onlyOwner {\r... */\n    tag_59:\n        /* \"Utils/Ownable.sol\":1136:1142  _owner */\n      and(sub(shl(0xa0, 0x01), 0x01), sload(0x01))\n        /* \"Utils/Context.sol\":736:746  msg.sender */\n      caller\n        /* \"Utils/Ownable.sol\":1283:1306  owner() == _msgSender() */\n      eq\n        /* \"Utils/Ownable.sol\":1275:1343  require(owner() == _msgSender(), \"Ownable: caller is not the owner\") */\n      tag_152\n      jumpi\n      mload(0x40)\n      shl(0xe5, 0x461bcd)\n      dup2\n      mstore\n        /* \"#utility.yul\":8771:8773   */\n      0x20\n        /* \"Utils/Ownable.sol\":1275:1343  require(owner() == _msgSender(), \"Ownable: caller is not the owner\") */\n      0x04\n      dup3\n      add\n        /* \"#utility.yul\":8753:8774   */\n      dup2\n      swap1\n      mstore\n        /* \"#utility.yul\":8790:8808   */\n      0x24\n      dup3\n      add\n        /* \"#utility.yul\":8783:8813   */\n      mstore\n        /* \"#utility.yul\":8849:8883   */\n      0x4f776e61626c653a2063616c6c6572206973206e6f7420746865206f776e6572\n        /* \"#utility.yul\":8829:8847   */\n      0x44\n      dup3\n      add\n        /* \"#utility.yul\":8822:8884   */\n      mstore\n        /* \"#utility.yul\":8901:8919   */\n      0x64\n      add\n        /* \"Utils/Ownable.sol\":1275:1343  require(owner() == _msgSender(), \"Ownable: caller is not the owner\") */\n      tag_120\n        /* \"#utility.yul\":8743:8925   */\n      jump\n        /* \"Utils/Ownable.sol\":1275:1343  require(owner() == _msgSender(), \"Ownable: caller is not the owner\") */\n    tag_152:\n        /* \"Utils/Ownable.sol\":1779:1809  _transferOwnership(address(0)) */\n      tag_156\n        /* \"Utils/Ownable.sol\":1806:1807  0 */\n      0x00\n        /* \"Utils/Ownable.sol\":1779:1797  _transferOwnership */\n      tag_157\n        /* \"Utils/Ownable.sol\":1779:1809  _transferOwnership(address(0)) */\n      jump\t// in\n    tag_156:\n        /* \"Utils/Ownable.sol\":1714:1817  function renounceOwnership() public virtual onlyOwner {\r... */\n      jump\t// out\n        /* \"Ethereum/Presale.sol\":8611:8719  function backToken() external payable {\r... */\n    tag_61:\n        /* \"Ethereum/Presale.sol\":8660:8711  payable(msg.sender).transfer(address(this).balance) */\n      mload(0x40)\n        /* \"Ethereum/Presale.sol\":8668:8678  msg.sender */\n      caller\n      swap1\n        /* \"Ethereum/Presale.sol\":8689:8710  address(this).balance */\n      selfbalance\n        /* \"Ethereum/Presale.sol\":8660:8711  payable(msg.sender).transfer(address(this).balance) */\n      dup1\n      iszero\n      0x08fc\n      mul\n      swap2\n      0x00\n      dup2\n      dup2\n      dup2\n        /* \"Ethereum/Presale.sol\":8689:8710  address(this).balance */\n      dup6\n        /* \"Ethereum/Presale.sol\":8668:8678  msg.sender */\n      dup9\n        /* \"Ethereum/Presale.sol\":8660:8711  payable(msg.sender).transfer(address(this).balance) */\n      dup9\n      call\n      swap4\n      pop\n      pop\n      pop\n      pop\n      iszero\n      dup1\n      iszero\n      tag_160\n      jumpi\n      returndatasize\n      0x00\n      dup1\n      returndatacopy\n      revert(0x00, returndatasize)\n    tag_160:\n      pop\n        /* \"Ethereum/Presale.sol\":8611:8719  function backToken() external payable {\r... */\n      jump\t// out\n        /* \"Ethereum/Presale.sol\":2473:3663  function initialSaleInfor(\r... */\n    tag_71:\n        /* \"Ethereum/Presale.sol\":2654:2663  saleInfor */\n      0x0d\n        /* \"Ethereum/Presale.sol\":2654:2692  saleInfor.presaleOwner = _presaleOwner */\n      dup1\n      sload\n      sub(shl(0xa0, 0x01), 0x01)\n      dup1\n      dup8\n      and\n      not(sub(shl(0xa0, 0x01), 0x01))\n      swap3\n      dup4\n      and\n      or\n      swap1\n      swap3\n      sstore\n        /* \"Ethereum/Presale.sol\":2703:2722  saleInfor.saleToken */\n      0x0e\n        /* \"Ethereum/Presale.sol\":2703:2735  saleInfor.saleToken = _saleToken */\n      dup1\n      sload\n      dup7\n      dup5\n      and\n      swap1\n      dup4\n      and\n      dup2\n      or\n      swap1\n      swap2\n      sstore\n        /* \"Ethereum/Presale.sol\":2746:2765  saleInfor.baseToken */\n      0x0f\n        /* \"Ethereum/Presale.sol\":2746:2778  saleInfor.baseToken = _baseTOken */\n      dup1\n      sload\n      swap4\n      dup7\n      and\n      swap4\n      swap1\n      swap3\n      and\n      swap3\n      swap1\n      swap3\n      or\n      swap1\n      sstore\n        /* \"Ethereum/Presale.sol\":2836:2873  ERC20(saleInfor.saleToken).decimals() */\n      0x40\n      dup1\n      mload\n      shl(0xe0, 0x313ce567)\n      dup2\n      mstore\n      swap1\n      mload\n        /* \"Ethereum/Presale.sol\":2836:2871  ERC20(saleInfor.saleToken).decimals */\n      0x313ce567\n      swap2\n        /* \"Ethereum/Presale.sol\":2836:2873  ERC20(saleInfor.saleToken).decimals() */\n      0x04\n      dup1\n      dup3\n      add\n      swap3\n      0x20\n      swap3\n      swap1\n      swap2\n      swap1\n      dup3\n      swap1\n      sub\n      add\n      dup2\n        /* \"Ethereum/Presale.sol\":2703:2735  saleInfor.saleToken = _saleToken */\n      dup7\n        /* \"Ethereum/Presale.sol\":2836:2873  ERC20(saleInfor.saleToken).decimals() */\n      dup1\n      extcodesize\n      iszero\n      dup1\n      iszero\n      tag_163\n      jumpi\n      0x00\n      dup1\n      revert\n    tag_163:\n      pop\n      gas\n      staticcall\n      iszero\n      dup1\n      iszero\n      tag_165\n      jumpi\n      returndatasize\n      0x00\n      dup1\n      returndatacopy\n      revert(0x00, returndatasize)\n    tag_165:\n      pop\n      pop\n      pop\n      pop\n      mload(0x40)\n      returndatasize\n      not(0x1f)\n      0x1f\n      dup3\n      add\n      and\n      dup3\n      add\n      dup1\n      0x40\n      mstore\n      pop\n      dup2\n      add\n      swap1\n      tag_166\n      swap2\n      swap1\n      tag_141\n      jump\t// in\n    tag_166:\n        /* \"Ethereum/Presale.sol\":2823:2874  10** uint256(ERC20(saleInfor.saleToken).decimals()) */\n      tag_167\n      swap1\n        /* \"Ethereum/Presale.sol\":2823:2825  10 */\n      0x0a\n        /* \"Ethereum/Presale.sol\":2823:2874  10** uint256(ERC20(saleInfor.saleToken).decimals()) */\n      tag_168\n      jump\t// in\n    tag_167:\n        /* \"Ethereum/Presale.sol\":2812:2820  datas[0] */\n      dup2\n      mload\n        /* \"Ethereum/Presale.sol\":2812:2874  datas[0] * 10** uint256(ERC20(saleInfor.saleToken).decimals()) */\n      tag_172\n      swap2\n      swap1\n      tag_173\n      jump\t// in\n    tag_172:\n        /* \"Ethereum/Presale.sol\":2789:2809  saleInfor.tokenPrice */\n      0x10\n        /* \"Ethereum/Presale.sol\":2789:2874  saleInfor.tokenPrice = datas[0] * 10** uint256(ERC20(saleInfor.saleToken).decimals()) */\n      sstore\n        /* \"Ethereum/Presale.sol\":2907:2915  datas[1] */\n      0x20\n      dup1\n      dup3\n      add\n      mload\n        /* \"Ethereum/Presale.sol\":2885:2904  saleInfor.startSale */\n      0x11\n        /* \"Ethereum/Presale.sol\":2885:2915  saleInfor.startSale = datas[1] */\n      sstore\n        /* \"Ethereum/Presale.sol\":2946:2954  datas[2] */\n      0x40\n      dup1\n      dup4\n      add\n      mload\n        /* \"Ethereum/Presale.sol\":2926:2943  saleInfor.endSale */\n      0x12\n        /* \"Ethereum/Presale.sol\":2926:2954  saleInfor.endSale = datas[2] */\n      sstore\n        /* \"Ethereum/Presale.sol\":2994:3002  datas[3] */\n      0x60\n      dup4\n      add\n      mload\n        /* \"Ethereum/Presale.sol\":2965:2991  saleInfor.minSpendPerBuyer */\n      0x13\n        /* \"Ethereum/Presale.sol\":2965:3002  saleInfor.minSpendPerBuyer = datas[3] */\n      sstore\n        /* \"Ethereum/Presale.sol\":3073:3092  saleInfor.baseToken */\n      sload(0x0f)\n        /* \"Ethereum/Presale.sol\":3067:3104  ERC20(saleInfor.baseToken).decimals() */\n      dup2\n      mload\n      shl(0xe0, 0x313ce567)\n      dup2\n      mstore\n      swap2\n      mload\n      sub(shl(0xa0, 0x01), 0x01)\n        /* \"Ethereum/Presale.sol\":3073:3092  saleInfor.baseToken */\n      swap1\n      swap2\n      and\n      swap3\n        /* \"Ethereum/Presale.sol\":3067:3102  ERC20(saleInfor.baseToken).decimals */\n      0x313ce567\n      swap3\n        /* \"Ethereum/Presale.sol\":3067:3104  ERC20(saleInfor.baseToken).decimals() */\n      0x04\n      dup1\n      dup3\n      add\n      swap4\n      swap2\n      dup3\n      swap1\n      sub\n      add\n      dup2\n        /* \"Ethereum/Presale.sol\":3073:3092  saleInfor.baseToken */\n      dup7\n        /* \"Ethereum/Presale.sol\":3067:3104  ERC20(saleInfor.baseToken).decimals() */\n      dup1\n      extcodesize\n      iszero\n      dup1\n      iszero\n      tag_180\n      jumpi\n      0x00\n      dup1\n      revert\n    tag_180:\n      pop\n      gas\n      staticcall\n      iszero\n      dup1\n      iszero\n      tag_182\n      jumpi\n      returndatasize\n      0x00\n      dup1\n      returndatacopy\n      revert(0x00, returndatasize)\n    tag_182:\n      pop\n      pop\n      pop\n      pop\n      mload(0x40)\n      returndatasize\n      not(0x1f)\n      0x1f\n      dup3\n      add\n      and\n      dup3\n      add\n      dup1\n      0x40\n      mstore\n      pop\n      dup2\n      add\n      swap1\n      tag_183\n      swap2\n      swap1\n      tag_141\n      jump\t// in\n    tag_183:\n        /* \"Ethereum/Presale.sol\":3053:3105  10 ** uint256(ERC20(saleInfor.baseToken).decimals()) */\n      tag_184\n      swap1\n        /* \"Ethereum/Presale.sol\":3053:3055  10 */\n      0x0a\n        /* \"Ethereum/Presale.sol\":3053:3105  10 ** uint256(ERC20(saleInfor.baseToken).decimals()) */\n      tag_168\n      jump\t// in\n    tag_184:\n        /* \"Ethereum/Presale.sol\":3042:3050  datas[4] */\n      0x80\n      dup3\n      add\n      mload\n        /* \"Ethereum/Presale.sol\":3042:3105  datas[4] * 10 ** uint256(ERC20(saleInfor.baseToken).decimals()) */\n      tag_187\n      swap2\n      swap1\n      tag_173\n      jump\t// in\n    tag_187:\n        /* \"Ethereum/Presale.sol\":3013:3039  saleInfor.maxSpendPerBuyer */\n      0x14\n        /* \"Ethereum/Presale.sol\":3013:3105  saleInfor.maxSpendPerBuyer = datas[4] * 10 ** uint256(ERC20(saleInfor.baseToken).decimals()) */\n      sstore\n        /* \"Ethereum/Presale.sol\":3138:3146  datas[5] */\n      0xa0\n      dup2\n      add\n      mload\n        /* \"Ethereum/Presale.sol\":3116:3135  saleInfor.refundFee */\n      0x15\n        /* \"Ethereum/Presale.sol\":3116:3146  saleInfor.refundFee = datas[5] */\n      sstore\n        /* \"Ethereum/Presale.sol\":3178:3186  datas[6] */\n      0xc0\n      dup2\n      add\n      mload\n        /* \"Ethereum/Presale.sol\":3157:3175  saleInfor.claimFee */\n      0x16\n        /* \"Ethereum/Presale.sol\":3157:3186  saleInfor.claimFee = datas[6] */\n      sstore\n        /* \"Ethereum/Presale.sol\":3254:3273  saleInfor.baseToken */\n      sload(0x0f)\n        /* \"Ethereum/Presale.sol\":3248:3285  ERC20(saleInfor.baseToken).decimals() */\n      0x40\n      dup1\n      mload\n      shl(0xe0, 0x313ce567)\n      dup2\n      mstore\n      swap1\n      mload\n      sub(shl(0xa0, 0x01), 0x01)\n        /* \"Ethereum/Presale.sol\":3254:3273  saleInfor.baseToken */\n      swap1\n      swap3\n      and\n      swap2\n        /* \"Ethereum/Presale.sol\":3248:3283  ERC20(saleInfor.baseToken).decimals */\n      0x313ce567\n      swap2\n        /* \"Ethereum/Presale.sol\":3248:3285  ERC20(saleInfor.baseToken).decimals() */\n      0x04\n      dup1\n      dup3\n      add\n      swap3\n        /* \"Ethereum/Presale.sol\":3138:3146  datas[5] */\n      0x20\n      swap3\n        /* \"Ethereum/Presale.sol\":3248:3285  ERC20(saleInfor.baseToken).decimals() */\n      swap1\n      swap2\n      swap1\n      dup3\n      swap1\n      sub\n      add\n      dup2\n        /* \"Ethereum/Presale.sol\":3254:3273  saleInfor.baseToken */\n      dup7\n        /* \"Ethereum/Presale.sol\":3248:3285  ERC20(saleInfor.baseToken).decimals() */\n      dup1\n      extcodesize\n      iszero\n      dup1\n      iszero\n      tag_192\n      jumpi\n      0x00\n      dup1\n      revert\n    tag_192:\n      pop\n      gas\n      staticcall\n      iszero\n      dup1\n      iszero\n      tag_194\n      jumpi\n      returndatasize\n      0x00\n      dup1\n      returndatacopy\n      revert(0x00, returndatasize)\n    tag_194:\n      pop\n      pop\n      pop\n      pop\n      mload(0x40)\n      returndatasize\n      not(0x1f)\n      0x1f\n      dup3\n      add\n      and\n      dup3\n      add\n      dup1\n      0x40\n      mstore\n      pop\n      dup2\n      add\n      swap1\n      tag_195\n      swap2\n      swap1\n      tag_141\n      jump\t// in\n    tag_195:\n        /* \"Ethereum/Presale.sol\":3234:3286  10 ** uint256(ERC20(saleInfor.baseToken).decimals()) */\n      tag_196\n      swap1\n        /* \"Ethereum/Presale.sol\":3234:3236  10 */\n      0x0a\n        /* \"Ethereum/Presale.sol\":3234:3286  10 ** uint256(ERC20(saleInfor.baseToken).decimals()) */\n      tag_168\n      jump\t// in\n    tag_196:\n        /* \"Ethereum/Presale.sol\":3223:3231  datas[7] */\n      0xe0\n      dup3\n      add\n      mload\n        /* \"Ethereum/Presale.sol\":3223:3286  datas[7] * 10 ** uint256(ERC20(saleInfor.baseToken).decimals()) */\n      tag_199\n      swap2\n      swap1\n      tag_173\n      jump\t// in\n    tag_199:\n        /* \"Ethereum/Presale.sol\":3197:3212  saleTotalSupply */\n      0x0b\n        /* \"Ethereum/Presale.sol\":3197:3286  saleTotalSupply.hardCap = datas[7] * 10 ** uint256(ERC20(saleInfor.baseToken).decimals()) */\n      sstore\n        /* \"Ethereum/Presale.sol\":3353:3372  saleInfor.baseToken */\n      sload(0x0f)\n        /* \"Ethereum/Presale.sol\":3347:3384  ERC20(saleInfor.baseToken).decimals() */\n      0x40\n      dup1\n      mload\n      shl(0xe0, 0x313ce567)\n      dup2\n      mstore\n      swap1\n      mload\n      sub(shl(0xa0, 0x01), 0x01)\n        /* \"Ethereum/Presale.sol\":3353:3372  saleInfor.baseToken */\n      swap1\n      swap3\n      and\n      swap2\n        /* \"Ethereum/Presale.sol\":3347:3382  ERC20(saleInfor.baseToken).decimals */\n      0x313ce567\n      swap2\n        /* \"Ethereum/Presale.sol\":3347:3384  ERC20(saleInfor.baseToken).decimals() */\n      0x04\n      dup1\n      dup3\n      add\n      swap3\n      0x20\n      swap3\n      swap1\n      swap2\n      swap1\n      dup3\n      swap1\n      sub\n      add\n      dup2\n        /* \"Ethereum/Presale.sol\":3353:3372  saleInfor.baseToken */\n      dup7\n        /* \"Ethereum/Presale.sol\":3347:3384  ERC20(saleInfor.baseToken).decimals() */\n      dup1\n      extcodesize\n      iszero\n      dup1\n      iszero\n      tag_200\n      jumpi\n      0x00\n      dup1\n      revert\n    tag_200:\n      pop\n      gas\n      staticcall\n      iszero\n      dup1\n      iszero\n      tag_202\n      jumpi\n      returndatasize\n      0x00\n      dup1\n      returndatacopy\n      revert(0x00, returndatasize)\n    tag_202:\n      pop\n      pop\n      pop\n      pop\n      mload(0x40)\n      returndatasize\n      not(0x1f)\n      0x1f\n      dup3\n      add\n      and\n      dup3\n      add\n      dup1\n      0x40\n      mstore\n      pop\n      dup2\n      add\n      swap1\n      tag_203\n      swap2\n      swap1\n      tag_141\n      jump\t// in\n    tag_203:\n        /* \"Ethereum/Presale.sol\":3334:3385  10** uint256(ERC20(saleInfor.baseToken).decimals()) */\n      tag_204\n      swap1\n        /* \"Ethereum/Presale.sol\":3334:3336  10 */\n      0x0a\n        /* \"Ethereum/Presale.sol\":3334:3385  10** uint256(ERC20(saleInfor.baseToken).decimals()) */\n      tag_168\n      jump\t// in\n    tag_204:\n        /* \"Ethereum/Presale.sol\":3323:3331  datas[8] */\n      0x0100\n      dup3\n      add\n      mload\n        /* \"Ethereum/Presale.sol\":3323:3385  datas[8] * 10** uint256(ERC20(saleInfor.baseToken).decimals()) */\n      tag_207\n      swap2\n      swap1\n      tag_173\n      jump\t// in\n    tag_207:\n        /* \"Ethereum/Presale.sol\":3297:3320  saleTotalSupply.softCap */\n      0x0c\n        /* \"Ethereum/Presale.sol\":3297:3385  saleTotalSupply.softCap = datas[8] * 10** uint256(ERC20(saleInfor.baseToken).decimals()) */\n      sstore\n        /* \"Ethereum/Presale.sol\":3449:3468  saleInfor.baseToken */\n      sload(0x0f)\n        /* \"Ethereum/Presale.sol\":3432:3436  WETH */\n      sload(0x19)\n        /* \"Ethereum/Presale.sol\":3396:3421  saleInfor.saleIsBaseToken */\n      0x17\n        /* \"Ethereum/Presale.sol\":3396:3469  saleInfor.saleIsBaseToken = address(WETH) == address(saleInfor.baseToken) */\n      dup1\n      sload\n      not(0xff)\n      and\n      sub(shl(0xa0, 0x01), 0x01)\n        /* \"Ethereum/Presale.sol\":3432:3436  WETH */\n      swap3\n      dup4\n      and\n        /* \"Ethereum/Presale.sol\":3449:3468  saleInfor.baseToken */\n      swap3\n      swap1\n      swap4\n      and\n        /* \"Ethereum/Presale.sol\":3424:3469  address(WETH) == address(saleInfor.baseToken) */\n      swap2\n      dup3\n      eq\n        /* \"Ethereum/Presale.sol\":3396:3469  saleInfor.saleIsBaseToken = address(WETH) == address(saleInfor.baseToken) */\n      swap3\n      swap1\n      swap3\n      or\n      swap1\n      swap2\n      sstore\n        /* \"Ethereum/Presale.sol\":3616:3653  ERC20(saleInfor.baseToken).decimals() */\n      0x40\n      dup1\n      mload\n      shl(0xe0, 0x313ce567)\n      dup2\n      mstore\n      swap1\n      mload\n        /* \"Ethereum/Presale.sol\":3616:3651  ERC20(saleInfor.baseToken).decimals */\n      0x313ce567\n      swap2\n        /* \"Ethereum/Presale.sol\":3616:3653  ERC20(saleInfor.baseToken).decimals() */\n      0x04\n      dup1\n      dup3\n      add\n      swap3\n      0x20\n      swap3\n      swap1\n      swap2\n      swap1\n      dup3\n      swap1\n      sub\n      add\n      dup2\n        /* \"Ethereum/Presale.sol\":3449:3468  saleInfor.baseToken */\n      dup7\n        /* \"Ethereum/Presale.sol\":3616:3653  ERC20(saleInfor.baseToken).decimals() */\n      dup1\n      extcodesize\n      iszero\n      dup1\n      iszero\n      tag_208\n      jumpi\n      0x00\n      dup1\n      revert\n    tag_208:\n      pop\n      gas\n      staticcall\n      iszero\n      dup1\n      iszero\n      tag_210\n      jumpi\n      returndatasize\n      0x00\n      dup1\n      returndatacopy\n      revert(0x00, returndatasize)\n    tag_210:\n      pop\n      pop\n      pop\n      pop\n      mload(0x40)\n      returndatasize\n      not(0x1f)\n      0x1f\n      dup3\n      add\n      and\n      dup3\n      add\n      dup1\n      0x40\n      mstore\n      pop\n      dup2\n      add\n      swap1\n      tag_211\n      swap2\n      swap1\n      tag_141\n      jump\t// in\n    tag_211:\n        /* \"Ethereum/Presale.sol\":3603:3654  10** uint256(ERC20(saleInfor.baseToken).decimals()) */\n      tag_212\n      swap1\n        /* \"Ethereum/Presale.sol\":3603:3605  10 */\n      0x0a\n        /* \"Ethereum/Presale.sol\":3603:3654  10** uint256(ERC20(saleInfor.baseToken).decimals()) */\n      tag_168\n      jump\t// in\n    tag_212:\n        /* \"Ethereum/Presale.sol\":3536:3551  saleTotalSupply */\n      0x0b\n        /* \"Ethereum/Presale.sol\":3536:3559  saleTotalSupply.hardCap */\n      sload\n        /* \"Ethereum/Presale.sol\":3511:3531  saleInfor.tokenPrice */\n      sload(0x10)\n        /* \"Ethereum/Presale.sol\":3511:3560  saleInfor.tokenPrice.mul(saleTotalSupply.hardCap) */\n      tag_213\n      swap2\n        /* \"Ethereum/Presale.sol\":3511:3535  saleInfor.tokenPrice.mul */\n      tag_214\n        /* \"Ethereum/Presale.sol\":3511:3560  saleInfor.tokenPrice.mul(saleTotalSupply.hardCap) */\n      jump\t// in\n    tag_213:\n        /* \"Ethereum/Presale.sol\":3511:3655  saleInfor.tokenPrice.mul(saleTotalSupply.hardCap)/\r... */\n      tag_215\n      swap2\n      swap1\n      tag_216\n      jump\t// in\n    tag_215:\n        /* \"Ethereum/Presale.sol\":3480:3508  saleInfor.amountTokenForSale */\n      0x18\n        /* \"Ethereum/Presale.sol\":3480:3655  saleInfor.amountTokenForSale = saleInfor.tokenPrice.mul(saleTotalSupply.hardCap)/\r... */\n      sstore\n      pop\n      pop\n      pop\n      pop\n        /* \"Ethereum/Presale.sol\":2473:3663  function initialSaleInfor(\r... */\n      jump\t// out\n        /* \"Ethereum/Presale.sol\":7153:8013  function userRefundEmergency() external nonReentrant {\r... */\n    tag_74:\n        /* \"Utils/ReentrancyGuard.sol\":1778:1779  2 */\n      0x02\n        /* \"Utils/ReentrancyGuard.sol\":2376:2383  _status */\n      sload(0x00)\n        /* \"Utils/ReentrancyGuard.sol\":2376:2395  _status != _ENTERED */\n      eq\n      iszero\n        /* \"Utils/ReentrancyGuard.sol\":2368:2431  require(_status != _ENTERED, \"ReentrancyGuard: reentrant call\") */\n      tag_218\n      jumpi\n      mload(0x40)\n      shl(0xe5, 0x461bcd)\n      dup2\n      mstore\n      0x04\n      add\n      tag_120\n      swap1\n      tag_121\n      jump\t// in\n    tag_218:\n        /* \"Utils/ReentrancyGuard.sol\":1778:1779  2 */\n      0x02\n        /* \"Utils/ReentrancyGuard.sol\":2509:2516  _status */\n      0x00\n        /* \"Utils/ReentrancyGuard.sol\":2509:2527  _status = _ENTERED */\n      sstore\n        /* \"Ethereum/Presale.sol\":7225:7233  status() */\n      tag_221\n        /* \"Ethereum/Presale.sol\":7225:7231  status */\n      tag_42\n        /* \"Ethereum/Presale.sol\":7225:7233  status() */\n      jump\t// in\n    tag_221:\n        /* \"Ethereum/Presale.sol\":7237:7238  1 */\n      0x01\n        /* \"Ethereum/Presale.sol\":7225:7238  status() == 1 */\n      eq\n        /* \"Ethereum/Presale.sol\":7217:7255  require(status() == 1, \"Sale sucesss\") */\n      tag_222\n      jumpi\n      mload(0x40)\n      shl(0xe5, 0x461bcd)\n      dup2\n      mstore\n        /* \"#utility.yul\":8083:8085   */\n      0x20\n        /* \"Ethereum/Presale.sol\":7217:7255  require(status() == 1, \"Sale sucesss\") */\n      0x04\n      dup3\n      add\n        /* \"#utility.yul\":8065:8086   */\n      mstore\n        /* \"#utility.yul\":8122:8124   */\n      0x0c\n        /* \"#utility.yul\":8102:8120   */\n      0x24\n      dup3\n      add\n        /* \"#utility.yul\":8095:8125   */\n      mstore\n      shl(0xa0, 0x53616c652073756365737373)\n        /* \"#utility.yul\":8141:8159   */\n      0x44\n      dup3\n      add\n        /* \"#utility.yul\":8134:8176   */\n      mstore\n        /* \"#utility.yul\":8193:8211   */\n      0x64\n      add\n        /* \"Ethereum/Presale.sol\":7217:7255  require(status() == 1, \"Sale sucesss\") */\n      tag_120\n        /* \"#utility.yul\":8055:8217   */\n      jump\n        /* \"Ethereum/Presale.sol\":7217:7255  require(status() == 1, \"Sale sucesss\") */\n    tag_222:\n        /* \"Ethereum/Presale.sol\":7309:7340  presaleStatus.totalBaseWithDraw */\n      sload(0x07)\n        /* \"Ethereum/Presale.sol\":7309:7322  presaleStatus */\n      0x04\n        /* \"Ethereum/Presale.sol\":7274:7306  presaleStatus.totalBaseCollected */\n      sload\n        /* \"Ethereum/Presale.sol\":7343:7344  0 */\n      0x00\n      swap2\n        /* \"Ethereum/Presale.sol\":7274:7340  presaleStatus.totalBaseCollected - presaleStatus.totalBaseWithDraw */\n      tag_225\n      swap2\n      tag_226\n      jump\t// in\n    tag_225:\n        /* \"Ethereum/Presale.sol\":7274:7344  presaleStatus.totalBaseCollected - presaleStatus.totalBaseWithDraw > 0 */\n      gt\n        /* \"Ethereum/Presale.sol\":7266:7403  require(presaleStatus.totalBaseCollected - presaleStatus.totalBaseWithDraw > 0, \r... */\n      tag_227\n      jumpi\n      mload(0x40)\n      shl(0xe5, 0x461bcd)\n      dup2\n      mstore\n        /* \"#utility.yul\":5482:5484   */\n      0x20\n        /* \"Ethereum/Presale.sol\":7266:7403  require(presaleStatus.totalBaseCollected - presaleStatus.totalBaseWithDraw > 0, \r... */\n      0x04\n      dup3\n      add\n        /* \"#utility.yul\":5464:5485   */\n      mstore\n        /* \"#utility.yul\":5521:5523   */\n      0x1b\n        /* \"#utility.yul\":5501:5519   */\n      0x24\n      dup3\n      add\n        /* \"#utility.yul\":5494:5524   */\n      mstore\n        /* \"#utility.yul\":5560:5589   */\n      0x416c6c20746f6b656e20686173206265656e2077697468647261770000000000\n        /* \"#utility.yul\":5540:5558   */\n      0x44\n      dup3\n      add\n        /* \"#utility.yul\":5533:5590   */\n      mstore\n        /* \"#utility.yul\":5607:5625   */\n      0x64\n      add\n        /* \"Ethereum/Presale.sol\":7266:7403  require(presaleStatus.totalBaseCollected - presaleStatus.totalBaseWithDraw > 0, \r... */\n      tag_120\n        /* \"#utility.yul\":5454:5631   */\n      jump\n        /* \"Ethereum/Presale.sol\":7266:7403  require(presaleStatus.totalBaseCollected - presaleStatus.totalBaseWithDraw > 0, \r... */\n    tag_227:\n        /* \"Ethereum/Presale.sol\":7451:7461  msg.sender */\n      caller\n        /* \"Ethereum/Presale.sol\":7415:7438  BuyerInfo storage buyer */\n      0x00\n        /* \"Ethereum/Presale.sol\":7441:7462  buyerInfo[msg.sender] */\n      swap1\n      dup2\n      mstore\n        /* \"Ethereum/Presale.sol\":7441:7450  buyerInfo */\n      0x02\n        /* \"Ethereum/Presale.sol\":7441:7462  buyerInfo[msg.sender] */\n      0x20\n      mstore\n      0x40\n      swap1\n      keccak256\n        /* \"Ethereum/Presale.sol\":7481:7498  buyer.baseDeposit */\n      dup1\n      sload\n        /* \"Ethereum/Presale.sol\":7473:7544  require(buyer.baseDeposit > 0, \"You refund all or have not bought yet\") */\n      tag_230\n      jumpi\n      mload(0x40)\n      shl(0xe5, 0x461bcd)\n      dup2\n      mstore\n        /* \"#utility.yul\":6245:6247   */\n      0x20\n        /* \"Ethereum/Presale.sol\":7473:7544  require(buyer.baseDeposit > 0, \"You refund all or have not bought yet\") */\n      0x04\n      dup3\n      add\n        /* \"#utility.yul\":6227:6248   */\n      mstore\n        /* \"#utility.yul\":6284:6286   */\n      0x25\n        /* \"#utility.yul\":6264:6282   */\n      0x24\n      dup3\n      add\n        /* \"#utility.yul\":6257:6287   */\n      mstore\n        /* \"#utility.yul\":6323:6357   */\n      0x596f7520726566756e6420616c6c206f722068617665206e6f7420626f756768\n        /* \"#utility.yul\":6303:6321   */\n      0x44\n      dup3\n      add\n        /* \"#utility.yul\":6296:6358   */\n      mstore\n      shl(0xda, 0x1d081e595d)\n        /* \"#utility.yul\":6374:6392   */\n      0x64\n      dup3\n      add\n        /* \"#utility.yul\":6367:6402   */\n      mstore\n        /* \"#utility.yul\":6419:6438   */\n      0x84\n      add\n        /* \"Ethereum/Presale.sol\":7473:7544  require(buyer.baseDeposit > 0, \"You refund all or have not bought yet\") */\n      tag_120\n        /* \"#utility.yul\":6217:6444   */\n      jump\n        /* \"Ethereum/Presale.sol\":7473:7544  require(buyer.baseDeposit > 0, \"You refund all or have not bought yet\") */\n    tag_230:\n        /* \"Ethereum/Presale.sol\":7657:7674  buyer.baseDeposit */\n      dup1\n      sload\n        /* \"Ethereum/Presale.sol\":7598:7617  saleInfor.refundFee */\n      sload(0x15)\n        /* \"Ethereum/Presale.sol\":7555:7575  uint256 amountRefund */\n      0x00\n      swap2\n        /* \"Ethereum/Presale.sol\":7578:7728  ((uint256(1000).sub(saleInfor.refundFee))\r... */\n      tag_233\n      swap2\n        /* \"Ethereum/Presale.sol\":7722:7726  1000 */\n      0x03e8\n      swap2\n        /* \"Ethereum/Presale.sol\":7579:7675  (uint256(1000).sub(saleInfor.refundFee))\r... */\n      tag_234\n      swap2\n        /* \"Ethereum/Presale.sol\":7580:7618  uint256(1000).sub(saleInfor.refundFee) */\n      tag_235\n      swap1\n        /* \"Ethereum/Presale.sol\":7722:7726  1000 */\n      dup5\n      swap1\n        /* \"Ethereum/Presale.sol\":7580:7597  uint256(1000).sub */\n      tag_236\n        /* \"Ethereum/Presale.sol\":7580:7618  uint256(1000).sub(saleInfor.refundFee) */\n      jump\t// in\n    tag_235:\n        /* \"Ethereum/Presale.sol\":7579:7656  (uint256(1000).sub(saleInfor.refundFee))\r... */\n      swap1\n      tag_214\n        /* \"Ethereum/Presale.sol\":7579:7675  (uint256(1000).sub(saleInfor.refundFee))\r... */\n      jump\t// in\n    tag_234:\n        /* \"Ethereum/Presale.sol\":7578:7713  ((uint256(1000).sub(saleInfor.refundFee))\r... */\n      swap1\n      tag_237\n        /* \"Ethereum/Presale.sol\":7578:7728  ((uint256(1000).sub(saleInfor.refundFee))\r... */\n      jump\t// in\n    tag_233:\n        /* \"Ethereum/Presale.sol\":7751:7768  buyer.baseDeposit */\n      dup3\n      sload\n        /* \"Ethereum/Presale.sol\":7555:7728  uint256 amountRefund = ((uint256(1000).sub(saleInfor.refundFee))\r... */\n      swap1\n      swap2\n      pop\n        /* \"Ethereum/Presale.sol\":7751:7783  buyer.baseDeposit - amountRefund */\n      tag_238\n      swap1\n        /* \"Ethereum/Presale.sol\":7555:7728  uint256 amountRefund = ((uint256(1000).sub(saleInfor.refundFee))\r... */\n      dup3\n      swap1\n        /* \"Ethereum/Presale.sol\":7751:7783  buyer.baseDeposit - amountRefund */\n      tag_226\n      jump\t// in\n    tag_238:\n        /* \"Ethereum/Presale.sol\":7739:7747  totalFee */\n      0x1d\n      0x00\n        /* \"Ethereum/Presale.sol\":7739:7783  totalFee += buyer.baseDeposit - amountRefund */\n      dup3\n      dup3\n      sload\n      tag_239\n      swap2\n      swap1\n      tag_240\n      jump\t// in\n    tag_239:\n      swap1\n      swap2\n      sstore\n      pop\n      pop\n        /* \"Ethereum/Presale.sol\":7794:7825  presaleStatus.totalBaseWithDraw */\n      0x07\n        /* \"Ethereum/Presale.sol\":7794:7841  presaleStatus.totalBaseWithDraw += amountRefund */\n      dup1\n      sload\n        /* \"Ethereum/Presale.sol\":7829:7841  amountRefund */\n      dup3\n      swap2\n        /* \"Ethereum/Presale.sol\":7794:7825  presaleStatus.totalBaseWithDraw */\n      swap1\n      0x00\n      swap1\n        /* \"Ethereum/Presale.sol\":7794:7841  presaleStatus.totalBaseWithDraw += amountRefund */\n      tag_241\n      swap1\n        /* \"Ethereum/Presale.sol\":7829:7841  amountRefund */\n      dup5\n      swap1\n        /* \"Ethereum/Presale.sol\":7794:7841  presaleStatus.totalBaseWithDraw += amountRefund */\n      tag_240\n      jump\t// in\n    tag_241:\n      swap1\n      swap2\n      sstore\n      pop\n      pop\n        /* \"Ethereum/Presale.sol\":7873:7874  0 */\n      0x00\n        /* \"Ethereum/Presale.sol\":7852:7874  buyer.baseDeposit  = 0 */\n      dup1\n      dup4\n      sstore\n        /* \"Ethereum/Presale.sol\":7885:7901  buyer.tokenOwner */\n      0x01\n      dup4\n      add\n        /* \"Ethereum/Presale.sol\":7885:7905  buyer.tokenOwner = 0 */\n      dup2\n      swap1\n      sstore\n        /* \"Ethereum/Presale.sol\":7937:7952  block.timestamp */\n      timestamp\n        /* \"Ethereum/Presale.sol\":7916:7934  buyer.lastWithDraw */\n      0x02\n      dup5\n      add\n        /* \"Ethereum/Presale.sol\":7916:7952  buyer.lastWithDraw = block.timestamp */\n      sstore\n        /* \"Ethereum/Presale.sol\":7963:8005  payable(msg.sender).transfer(amountRefund) */\n      mload(0x40)\n        /* \"Ethereum/Presale.sol\":7971:7981  msg.sender */\n      caller\n      swap2\n        /* \"Ethereum/Presale.sol\":7963:8005  payable(msg.sender).transfer(amountRefund) */\n      dup4\n      iszero\n      0x08fc\n      mul\n      swap2\n        /* \"Ethereum/Presale.sol\":7992:8004  amountRefund */\n      dup5\n      swap2\n        /* \"Ethereum/Presale.sol\":7963:8005  payable(msg.sender).transfer(amountRefund) */\n      dup2\n        /* \"Ethereum/Presale.sol\":7873:7874  0 */\n      dup2\n        /* \"Ethereum/Presale.sol\":7963:8005  payable(msg.sender).transfer(amountRefund) */\n      dup2\n        /* \"Ethereum/Presale.sol\":7992:8004  amountRefund */\n      dup6\n        /* \"Ethereum/Presale.sol\":7971:7981  msg.sender */\n      dup9\n        /* \"Ethereum/Presale.sol\":7963:8005  payable(msg.sender).transfer(amountRefund) */\n      dup9\n      call\n      swap4\n      pop\n      pop\n      pop\n      pop\n      iszero\n      dup1\n      iszero\n      tag_243\n      jumpi\n      returndatasize\n      0x00\n      dup1\n      returndatacopy\n      revert(0x00, returndatasize)\n    tag_243:\n      pop\n      pop\n        /* \"Utils/ReentrancyGuard.sol\":1734:1735  1 */\n      0x01\n        /* \"Utils/ReentrancyGuard.sol\":2688:2695  _status */\n      0x00\n        /* \"Utils/ReentrancyGuard.sol\":2688:2710  _status = _NOT_ENTERED */\n      sstore\n      pop\n        /* \"Ethereum/Presale.sol\":7153:8013  function userRefundEmergency() external nonReentrant {\r... */\n      jump\t// out\n        /* \"Ethereum/Presale.sol\":6270:7145  function userClaimEmergency() external nonReentrant {\r... */\n    tag_77:\n        /* \"Utils/ReentrancyGuard.sol\":1778:1779  2 */\n      0x02\n        /* \"Utils/ReentrancyGuard.sol\":2376:2383  _status */\n      sload(0x00)\n        /* \"Utils/ReentrancyGuard.sol\":2376:2395  _status != _ENTERED */\n      eq\n      iszero\n        /* \"Utils/ReentrancyGuard.sol\":2368:2431  require(_status != _ENTERED, \"ReentrancyGuard: reentrant call\") */\n      tag_245\n      jumpi\n      mload(0x40)\n      shl(0xe5, 0x461bcd)\n      dup2\n      mstore\n      0x04\n      add\n      tag_120\n      swap1\n      tag_121\n      jump\t// in\n    tag_245:\n        /* \"Utils/ReentrancyGuard.sol\":1778:1779  2 */\n      0x02\n        /* \"Utils/ReentrancyGuard.sol\":2509:2516  _status */\n      0x00\n        /* \"Utils/ReentrancyGuard.sol\":2509:2527  _status = _ENTERED */\n      sstore\n        /* \"Ethereum/Presale.sol\":6341:6349  status() */\n      tag_248\n        /* \"Ethereum/Presale.sol\":6341:6347  status */\n      tag_42\n        /* \"Ethereum/Presale.sol\":6341:6349  status() */\n      jump\t// in\n    tag_248:\n        /* \"Ethereum/Presale.sol\":6353:6354  1 */\n      0x01\n        /* \"Ethereum/Presale.sol\":6341:6354  status() == 1 */\n      eq\n        /* \"Ethereum/Presale.sol\":6333:6371  require(status() == 1, \"Sale sucesss\") */\n      tag_249\n      jumpi\n      mload(0x40)\n      shl(0xe5, 0x461bcd)\n      dup2\n      mstore\n        /* \"#utility.yul\":8083:8085   */\n      0x20\n        /* \"Ethereum/Presale.sol\":6333:6371  require(status() == 1, \"Sale sucesss\") */\n      0x04\n      dup3\n      add\n        /* \"#utility.yul\":8065:8086   */\n      mstore\n        /* \"#utility.yul\":8122:8124   */\n      0x0c\n        /* \"#utility.yul\":8102:8120   */\n      0x24\n      dup3\n      add\n        /* \"#utility.yul\":8095:8125   */\n      mstore\n      shl(0xa0, 0x53616c652073756365737373)\n        /* \"#utility.yul\":8141:8159   */\n      0x44\n      dup3\n      add\n        /* \"#utility.yul\":8134:8176   */\n      mstore\n        /* \"#utility.yul\":8193:8211   */\n      0x64\n      add\n        /* \"Ethereum/Presale.sol\":6333:6371  require(status() == 1, \"Sale sucesss\") */\n      tag_120\n        /* \"#utility.yul\":8055:8217   */\n      jump\n        /* \"Ethereum/Presale.sol\":6333:6371  require(status() == 1, \"Sale sucesss\") */\n    tag_249:\n        /* \"Ethereum/Presale.sol\":6422:6454  presaleStatus.totalTokenWithDraw */\n      sload(0x06)\n        /* \"Ethereum/Presale.sol\":6391:6419  presaleStatus.totalTokenSold */\n      sload(0x05)\n        /* \"Ethereum/Presale.sol\":6457:6458  0 */\n      0x00\n      swap2\n        /* \"Ethereum/Presale.sol\":6391:6454  presaleStatus.totalTokenSold - presaleStatus.totalTokenWithDraw */\n      tag_251\n      swap2\n      tag_226\n      jump\t// in\n    tag_251:\n        /* \"Ethereum/Presale.sol\":6391:6458  presaleStatus.totalTokenSold - presaleStatus.totalTokenWithDraw > 0 */\n      gt\n        /* \"Ethereum/Presale.sol\":6383:6517  require(presaleStatus.totalTokenSold - presaleStatus.totalTokenWithDraw > 0, \r... */\n      tag_252\n      jumpi\n      mload(0x40)\n      shl(0xe5, 0x461bcd)\n      dup2\n      mstore\n        /* \"#utility.yul\":5482:5484   */\n      0x20\n        /* \"Ethereum/Presale.sol\":6383:6517  require(presaleStatus.totalTokenSold - presaleStatus.totalTokenWithDraw > 0, \r... */\n      0x04\n      dup3\n      add\n        /* \"#utility.yul\":5464:5485   */\n      mstore\n        /* \"#utility.yul\":5521:5523   */\n      0x1b\n        /* \"#utility.yul\":5501:5519   */\n      0x24\n      dup3\n      add\n        /* \"#utility.yul\":5494:5524   */\n      mstore\n        /* \"#utility.yul\":5560:5589   */\n      0x416c6c20746f6b656e20686173206265656e2077697468647261770000000000\n        /* \"#utility.yul\":5540:5558   */\n      0x44\n      dup3\n      add\n        /* \"#utility.yul\":5533:5590   */\n      mstore\n        /* \"#utility.yul\":5607:5625   */\n      0x64\n      add\n        /* \"Ethereum/Presale.sol\":6383:6517  require(presaleStatus.totalTokenSold - presaleStatus.totalTokenWithDraw > 0, \r... */\n      tag_120\n        /* \"#utility.yul\":5454:5631   */\n      jump\n        /* \"Ethereum/Presale.sol\":6383:6517  require(presaleStatus.totalTokenSold - presaleStatus.totalTokenWithDraw > 0, \r... */\n    tag_252:\n        /* \"Ethereum/Presale.sol\":6564:6574  msg.sender */\n      caller\n        /* \"Ethereum/Presale.sol\":6528:6551  BuyerInfo storage buyer */\n      0x00\n        /* \"Ethereum/Presale.sol\":6554:6575  buyerInfo[msg.sender] */\n      swap1\n      dup2\n      mstore\n        /* \"Ethereum/Presale.sol\":6554:6563  buyerInfo */\n      0x02\n        /* \"Ethereum/Presale.sol\":6554:6575  buyerInfo[msg.sender] */\n      0x20\n      mstore\n      0x40\n      swap1\n      keccak256\n        /* \"Ethereum/Presale.sol\":6613:6637  buyer.totalTokenWithDraw */\n      0x03\n      dup2\n      add\n      sload\n        /* \"Ethereum/Presale.sol\":6594:6610  buyer.tokenOwner */\n      0x01\n      dup3\n      add\n      sload\n        /* \"Ethereum/Presale.sol\":6594:6637  buyer.tokenOwner > buyer.totalTokenWithDraw */\n      gt\n        /* \"Ethereum/Presale.sol\":6586:6678  require(buyer.tokenOwner > buyer.totalTokenWithDraw, \"You claim all or have not bought yet\") */\n      tag_254\n      jumpi\n      mload(0x40)\n      shl(0xe5, 0x461bcd)\n      dup2\n      mstore\n        /* \"#utility.yul\":7333:7335   */\n      0x20\n        /* \"Ethereum/Presale.sol\":6586:6678  require(buyer.tokenOwner > buyer.totalTokenWithDraw, \"You claim all or have not bought yet\") */\n      0x04\n      dup3\n      add\n        /* \"#utility.yul\":7315:7336   */\n      mstore\n        /* \"#utility.yul\":7372:7374   */\n      0x24\n        /* \"#utility.yul\":7352:7370   */\n      dup1\n      dup3\n      add\n        /* \"#utility.yul\":7345:7375   */\n      mstore\n        /* \"#utility.yul\":7411:7445   */\n      0x596f7520636c61696d20616c6c206f722068617665206e6f7420626f75676874\n        /* \"#utility.yul\":7391:7409   */\n      0x44\n      dup3\n      add\n        /* \"#utility.yul\":7384:7446   */\n      mstore\n      shl(0xe2, 0x081e595d)\n        /* \"#utility.yul\":7462:7480   */\n      0x64\n      dup3\n      add\n        /* \"#utility.yul\":7455:7489   */\n      mstore\n        /* \"#utility.yul\":7506:7525   */\n      0x84\n      add\n        /* \"Ethereum/Presale.sol\":6586:6678  require(buyer.tokenOwner > buyer.totalTokenWithDraw, \"You claim all or have not bought yet\") */\n      tag_120\n        /* \"#utility.yul\":7305:7531   */\n      jump\n        /* \"Ethereum/Presale.sol\":6586:6678  require(buyer.tokenOwner > buyer.totalTokenWithDraw, \"You claim all or have not bought yet\") */\n    tag_254:\n        /* \"Ethereum/Presale.sol\":6689:6708  uint256 amountClaim */\n      0x00\n        /* \"Ethereum/Presale.sol\":6711:6847  ((uint256(1000).sub(saleInfor.claimFee))\r... */\n      tag_257\n        /* \"Ethereum/Presale.sol\":6841:6845  1000 */\n      0x03e8\n        /* \"Ethereum/Presale.sol\":6712:6800  (uint256(1000).sub(saleInfor.claimFee))\r... */\n      tag_234\n        /* \"Ethereum/Presale.sol\":6783:6788  buyer */\n      dup5\n        /* \"Ethereum/Presale.sol\":6783:6799  buyer.tokenOwner */\n      0x01\n      add\n      sload\n        /* \"Ethereum/Presale.sol\":6713:6750  uint256(1000).sub(saleInfor.claimFee) */\n      tag_235\n        /* \"Ethereum/Presale.sol\":6731:6740  saleInfor */\n      0x0d\n        /* \"Ethereum/Presale.sol\":6731:6749  saleInfor.claimFee */\n      0x09\n      add\n      sload\n        /* \"Ethereum/Presale.sol\":6721:6725  1000 */\n      0x03e8\n        /* \"Ethereum/Presale.sol\":6713:6730  uint256(1000).sub */\n      tag_236\n      swap1\n        /* \"Ethereum/Presale.sol\":6713:6750  uint256(1000).sub(saleInfor.claimFee) */\n      swap2\n      swap1\n      0xffffffff\n      and\n      jump\t// in\n        /* \"Ethereum/Presale.sol\":6711:6847  ((uint256(1000).sub(saleInfor.claimFee))\r... */\n    tag_257:\n        /* \"Ethereum/Presale.sol\":6689:6847  uint256 amountClaim = ((uint256(1000).sub(saleInfor.claimFee))\r... */\n      swap1\n      pop\n        /* \"Ethereum/Presale.sol\":6894:6905  amountClaim */\n      dup1\n        /* \"Ethereum/Presale.sol\":6858:6871  presaleStatus */\n      0x04\n        /* \"Ethereum/Presale.sol\":6858:6890  presaleStatus.totalTokenWithDraw */\n      0x02\n      add\n      0x00\n        /* \"Ethereum/Presale.sol\":6858:6905  presaleStatus.totalTokenWithDraw += amountClaim */\n      dup3\n      dup3\n      sload\n      tag_260\n      swap2\n      swap1\n      tag_240\n      jump\t// in\n    tag_260:\n      swap3\n      pop\n      pop\n      dup2\n      swap1\n      sstore\n      pop\n        /* \"Ethereum/Presale.sol\":6944:6955  amountClaim */\n      dup1\n        /* \"Ethereum/Presale.sol\":6916:6921  buyer */\n      dup3\n        /* \"Ethereum/Presale.sol\":6916:6940  buyer.totalTokenWithDraw */\n      0x03\n      add\n      0x00\n        /* \"Ethereum/Presale.sol\":6916:6955  buyer.totalTokenWithDraw += amountClaim */\n      dup3\n      dup3\n      sload\n      tag_261\n      swap2\n      swap1\n      tag_240\n      jump\t// in\n    tag_261:\n      swap1\n      swap2\n      sstore\n      pop\n      pop\n        /* \"Ethereum/Presale.sol\":6987:6988  0 */\n      0x00\n        /* \"Ethereum/Presale.sol\":6966:6988  buyer.baseDeposit  = 0 */\n      dup1\n      dup4\n      sstore\n        /* \"Ethereum/Presale.sol\":6999:7015  buyer.tokenOwner */\n      0x01\n      dup4\n      add\n        /* \"Ethereum/Presale.sol\":6999:7019  buyer.tokenOwner = 0 */\n      sstore\n        /* \"Ethereum/Presale.sol\":7051:7066  block.timestamp */\n      timestamp\n        /* \"Ethereum/Presale.sol\":7030:7048  buyer.lastWithDraw */\n      0x02\n      dup4\n      add\n        /* \"Ethereum/Presale.sol\":7030:7066  buyer.lastWithDraw = block.timestamp */\n      sstore\n        /* \"Ethereum/Presale.sol\":7083:7102  saleInfor.saleToken */\n      sload(0x0e)\n        /* \"Ethereum/Presale.sol\":7077:7137  ERC20(saleInfor.saleToken).transfer(msg.sender, amountClaim) */\n      mload(0x40)\n      shl(0xe0, 0xa9059cbb)\n      dup2\n      mstore\n        /* \"Ethereum/Presale.sol\":7113:7123  msg.sender */\n      caller\n        /* \"Ethereum/Presale.sol\":7077:7137  ERC20(saleInfor.saleToken).transfer(msg.sender, amountClaim) */\n      0x04\n      dup3\n      add\n        /* \"#utility.yul\":4102:4153   */\n      mstore\n        /* \"#utility.yul\":4169:4187   */\n      0x24\n      dup2\n      add\n        /* \"#utility.yul\":4162:4196   */\n      dup4\n      swap1\n      mstore\n      sub(shl(0xa0, 0x01), 0x01)\n        /* \"Ethereum/Presale.sol\":7083:7102  saleInfor.saleToken */\n      swap1\n      swap2\n      and\n      swap1\n        /* \"Ethereum/Presale.sol\":7077:7112  ERC20(saleInfor.saleToken).transfer */\n      0xa9059cbb\n      swap1\n        /* \"#utility.yul\":4075:4093   */\n      0x44\n      add\n        /* \"Ethereum/Presale.sol\":7077:7137  ERC20(saleInfor.saleToken).transfer(msg.sender, amountClaim) */\n      0x20\n      mload(0x40)\n      dup1\n      dup4\n      sub\n      dup2\n      0x00\n      dup8\n      dup1\n      extcodesize\n      iszero\n      dup1\n      iszero\n      tag_264\n      jumpi\n      0x00\n      dup1\n      revert\n    tag_264:\n      pop\n      gas\n      call\n      iszero\n      dup1\n      iszero\n      tag_266\n      jumpi\n      returndatasize\n      0x00\n      dup1\n      returndatacopy\n      revert(0x00, returndatasize)\n    tag_266:\n      pop\n      pop\n      pop\n      pop\n      mload(0x40)\n      returndatasize\n      not(0x1f)\n      0x1f\n      dup3\n      add\n      and\n      dup3\n      add\n      dup1\n      0x40\n      mstore\n      pop\n      dup2\n      add\n      swap1\n      tag_243\n      swap2\n      swap1\n      tag_148\n      jump\t// in\n        /* \"Ethereum/Presale.sol\":4136:6262  function deposit(uint256 _amount) external payable nonReentrant {\r... */\n    tag_91:\n        /* \"Utils/ReentrancyGuard.sol\":1778:1779  2 */\n      0x02\n        /* \"Utils/ReentrancyGuard.sol\":2376:2383  _status */\n      sload(0x00)\n        /* \"Utils/ReentrancyGuard.sol\":2376:2395  _status != _ENTERED */\n      eq\n      iszero\n        /* \"Utils/ReentrancyGuard.sol\":2368:2431  require(_status != _ENTERED, \"ReentrancyGuard: reentrant call\") */\n      tag_269\n      jumpi\n      mload(0x40)\n      shl(0xe5, 0x461bcd)\n      dup2\n      mstore\n      0x04\n      add\n      tag_120\n      swap1\n      tag_121\n      jump\t// in\n    tag_269:\n        /* \"Utils/ReentrancyGuard.sol\":1778:1779  2 */\n      0x02\n        /* \"Utils/ReentrancyGuard.sol\":2509:2516  _status */\n      0x00\n        /* \"Utils/ReentrancyGuard.sol\":2509:2527  _status = _ENTERED */\n      sstore\n        /* \"Ethereum/Presale.sol\":4219:4227  status() */\n      tag_272\n        /* \"Ethereum/Presale.sol\":4219:4225  status */\n      tag_42\n        /* \"Ethereum/Presale.sol\":4219:4227  status() */\n      jump\t// in\n    tag_272:\n        /* \"Ethereum/Presale.sol\":4231:4232  1 */\n      0x01\n        /* \"Ethereum/Presale.sol\":4219:4232  status() == 1 */\n      eq\n        /* \"Ethereum/Presale.sol\":4211:4247  require(status() == 1, \"Not active\") */\n      tag_273\n      jumpi\n      mload(0x40)\n      shl(0xe5, 0x461bcd)\n      dup2\n      mstore\n        /* \"#utility.yul\":6994:6996   */\n      0x20\n        /* \"Ethereum/Presale.sol\":4211:4247  require(status() == 1, \"Not active\") */\n      0x04\n      dup3\n      add\n        /* \"#utility.yul\":6976:6997   */\n      mstore\n        /* \"#utility.yul\":7033:7035   */\n      0x0a\n        /* \"#utility.yul\":7013:7031   */\n      0x24\n      dup3\n      add\n        /* \"#utility.yul\":7006:7036   */\n      mstore\n      shl(0xb0, 0x4e6f7420616374697665)\n        /* \"#utility.yul\":7052:7070   */\n      0x44\n      dup3\n      add\n        /* \"#utility.yul\":7045:7085   */\n      mstore\n        /* \"#utility.yul\":7102:7120   */\n      0x64\n      add\n        /* \"Ethereum/Presale.sol\":4211:4247  require(status() == 1, \"Not active\") */\n      tag_120\n        /* \"#utility.yul\":6966:7126   */\n      jump\n        /* \"Ethereum/Presale.sol\":4211:4247  require(status() == 1, \"Not active\") */\n    tag_273:\n        /* \"Ethereum/Presale.sol\":4304:4314  msg.sender */\n      caller\n        /* \"Ethereum/Presale.sol\":4268:4291  BuyerInfo storage buyer */\n      0x00\n        /* \"Ethereum/Presale.sol\":4294:4315  buyerInfo[msg.sender] */\n      swap1\n      dup2\n      mstore\n        /* \"Ethereum/Presale.sol\":4294:4303  buyerInfo */\n      0x02\n        /* \"Ethereum/Presale.sol\":4294:4315  buyerInfo[msg.sender] */\n      0x20\n      mstore\n      0x40\n      dup2\n      keccak256\n        /* \"Ethereum/Presale.sol\":4500:4526  saleInfor.minSpendPerBuyer */\n      sload(0x13)\n        /* \"Ethereum/Presale.sol\":4294:4315  buyerInfo[msg.sender] */\n      swap1\n      swap2\n        /* \"Ethereum/Presale.sol\":4346:4353  _amount */\n      dup4\n      swap2\n      dup3\n      swap2\n        /* \"Ethereum/Presale.sol\":4268:4291  BuyerInfo storage buyer */\n      swap1\n        /* \"Ethereum/Presale.sol\":4459:4463  1000 */\n      0x03e8\n      swap1\n        /* \"Ethereum/Presale.sol\":4482:4526  real_amount_in >= saleInfor.minSpendPerBuyer */\n      dup4\n      lt\n      iszero\n        /* \"Ethereum/Presale.sol\":4474:4575  require(real_amount_in >= saleInfor.minSpendPerBuyer, \r... */\n      tag_276\n      jumpi\n      mload(0x40)\n      shl(0xe5, 0x461bcd)\n      dup2\n      mstore\n        /* \"#utility.yul\":7738:7740   */\n      0x20\n        /* \"Ethereum/Presale.sol\":4474:4575  require(real_amount_in >= saleInfor.minSpendPerBuyer, \r... */\n      0x04\n      dup3\n      add\n        /* \"#utility.yul\":7720:7741   */\n      mstore\n        /* \"#utility.yul\":7777:7779   */\n      0x10\n        /* \"#utility.yul\":7757:7775   */\n      0x24\n      dup3\n      add\n        /* \"#utility.yul\":7750:7780   */\n      mstore\n      shl(0x80, 0x4e6f7420656e6f7567682076616c7565)\n        /* \"#utility.yul\":7796:7814   */\n      0x44\n      dup3\n      add\n        /* \"#utility.yul\":7789:7835   */\n      mstore\n        /* \"#utility.yul\":7852:7870   */\n      0x64\n      add\n        /* \"Ethereum/Presale.sol\":4474:4575  require(real_amount_in >= saleInfor.minSpendPerBuyer, \r... */\n      tag_120\n        /* \"#utility.yul\":7710:7876   */\n      jump\n        /* \"Ethereum/Presale.sol\":4474:4575  require(real_amount_in >= saleInfor.minSpendPerBuyer, \r... */\n    tag_276:\n        /* \"Ethereum/Presale.sol\":4612:4638  saleInfor.maxSpendPerBuyer */\n      sload(0x14)\n        /* \"Ethereum/Presale.sol\":4594:4638  real_amount_in <= saleInfor.maxSpendPerBuyer */\n      dup4\n      gt\n      iszero\n        /* \"Ethereum/Presale.sol\":4586:4685  require(real_amount_in <= saleInfor.maxSpendPerBuyer, \r... */\n      tag_279\n      jumpi\n      mload(0x40)\n      shl(0xe5, 0x461bcd)\n      dup2\n      mstore\n        /* \"#utility.yul\":6651:6653   */\n      0x20\n        /* \"Ethereum/Presale.sol\":4586:4685  require(real_amount_in <= saleInfor.maxSpendPerBuyer, \r... */\n      0x04\n      dup3\n      add\n        /* \"#utility.yul\":6633:6654   */\n      mstore\n        /* \"#utility.yul\":6690:6692   */\n      0x0e\n        /* \"#utility.yul\":6670:6688   */\n      0x24\n      dup3\n      add\n        /* \"#utility.yul\":6663:6693   */\n      mstore\n      shl(0x90, 0x4f766572666c6f772076616c7565)\n        /* \"#utility.yul\":6709:6727   */\n      0x44\n      dup3\n      add\n        /* \"#utility.yul\":6702:6746   */\n      mstore\n        /* \"#utility.yul\":6763:6781   */\n      0x64\n      add\n        /* \"Ethereum/Presale.sol\":4586:4685  require(real_amount_in <= saleInfor.maxSpendPerBuyer, \r... */\n      tag_120\n        /* \"#utility.yul\":6623:6787   */\n      jump\n        /* \"Ethereum/Presale.sol\":4586:4685  require(real_amount_in <= saleInfor.maxSpendPerBuyer, \r... */\n    tag_279:\n        /* \"Ethereum/Presale.sol\":4700:4719  checkAdminAddress() */\n      tag_282\n        /* \"Ethereum/Presale.sol\":4700:4717  checkAdminAddress */\n      tag_94\n        /* \"Ethereum/Presale.sol\":4700:4719  checkAdminAddress() */\n      jump\t// in\n    tag_282:\n        /* \"Ethereum/Presale.sol\":4696:4962  if(!checkAdminAddress()) {\r... */\n      tag_283\n      jumpi\n        /* \"Ethereum/Presale.sol\":4753:4886  ((fullPercenFee.sub(feeAnyone))\r... */\n      tag_284\n        /* \"Ethereum/Presale.sol\":4872:4885  fullPercenFee */\n      dup2\n        /* \"Ethereum/Presale.sol\":4754:4835  (fullPercenFee.sub(feeAnyone))\r... */\n      tag_234\n        /* \"Ethereum/Presale.sol\":4820:4834  real_amount_in */\n      dup6\n        /* \"Ethereum/Presale.sol\":4755:4783  fullPercenFee.sub(feeAnyone) */\n      tag_235\n        /* \"Ethereum/Presale.sol\":4773:4782  feeAnyone */\n      sload(0x1a)\n        /* \"Ethereum/Presale.sol\":4755:4768  fullPercenFee */\n      dup7\n        /* \"Ethereum/Presale.sol\":4755:4772  fullPercenFee.sub */\n      tag_236\n      swap1\n        /* \"Ethereum/Presale.sol\":4755:4783  fullPercenFee.sub(feeAnyone) */\n      swap2\n      swap1\n      0xffffffff\n      and\n      jump\t// in\n        /* \"Ethereum/Presale.sol\":4753:4886  ((fullPercenFee.sub(feeAnyone))\r... */\n    tag_284:\n        /* \"Ethereum/Presale.sol\":4736:4886  real_amount_in = ((fullPercenFee.sub(feeAnyone))\r... */\n      swap3\n      pop\n        /* \"Ethereum/Presale.sol\":4907:4933  amount_in - real_amount_in */\n      tag_287\n        /* \"Ethereum/Presale.sol\":4736:4886  real_amount_in = ((fullPercenFee.sub(feeAnyone))\r... */\n      dup4\n        /* \"Ethereum/Presale.sol\":4907:4916  amount_in */\n      dup6\n        /* \"Ethereum/Presale.sol\":4907:4933  amount_in - real_amount_in */\n      tag_226\n      jump\t// in\n    tag_287:\n        /* \"Ethereum/Presale.sol\":4901:4933  fee = amount_in - real_amount_in */\n      swap2\n      pop\n        /* \"Ethereum/Presale.sol\":4696:4962  if(!checkAdminAddress()) {\r... */\n    tag_283:\n        /* \"Ethereum/Presale.sol\":5027:5044  buyer.baseDeposit */\n      dup5\n      sload\n        /* \"Ethereum/Presale.sol\":4998:5024  saleInfor.maxSpendPerBuyer */\n      sload(0x14)\n        /* \"Ethereum/Presale.sol\":4972:4995  uint256 remainingByUser */\n      0x00\n      swap2\n        /* \"Ethereum/Presale.sol\":4998:5044  saleInfor.maxSpendPerBuyer - buyer.baseDeposit */\n      tag_288\n      swap2\n      tag_226\n      jump\t// in\n    tag_288:\n        /* \"Ethereum/Presale.sol\":5112:5125  presaleStatus */\n      0x04\n        /* \"Ethereum/Presale.sol\":5112:5144  presaleStatus.totalBaseCollected */\n      sload\n        /* \"Ethereum/Presale.sol\":5081:5109  saleInfor.amountTokenForSale */\n      sload(0x18)\n        /* \"Ethereum/Presale.sol\":4972:5044  uint256 remainingByUser = saleInfor.maxSpendPerBuyer - buyer.baseDeposit */\n      swap2\n      swap3\n      pop\n        /* \"Ethereum/Presale.sol\":5055:5078  uint256 remainingByPool */\n      0x00\n      swap2\n        /* \"Ethereum/Presale.sol\":5081:5144  saleInfor.amountTokenForSale - presaleStatus.totalBaseCollected */\n      tag_289\n      swap2\n        /* \"Ethereum/Presale.sol\":5112:5144  presaleStatus.totalBaseCollected */\n      swap1\n        /* \"Ethereum/Presale.sol\":5081:5144  saleInfor.amountTokenForSale - presaleStatus.totalBaseCollected */\n      tag_226\n      jump\t// in\n    tag_289:\n        /* \"Ethereum/Presale.sol\":5055:5144  uint256 remainingByPool = saleInfor.amountTokenForSale - presaleStatus.totalBaseCollected */\n      swap1\n      pop\n        /* \"Ethereum/Presale.sol\":5155:5172  uint256 allowance */\n      0x00\n        /* \"Ethereum/Presale.sol\":5193:5208  remainingByPool */\n      dup2\n        /* \"Ethereum/Presale.sol\":5175:5190  remainingByUser */\n      dup4\n        /* \"Ethereum/Presale.sol\":5175:5208  remainingByUser > remainingByPool */\n      gt\n        /* \"Ethereum/Presale.sol\":5175:5244  remainingByUser > remainingByPool ? remainingByPool : remainingByUser */\n      tag_290\n      jumpi\n        /* \"Ethereum/Presale.sol\":5229:5244  remainingByUser */\n      dup3\n        /* \"Ethereum/Presale.sol\":5175:5244  remainingByUser > remainingByPool ? remainingByPool : remainingByUser */\n      jump(tag_291)\n    tag_290:\n        /* \"Ethereum/Presale.sol\":5211:5226  remainingByPool */\n      dup2\n        /* \"Ethereum/Presale.sol\":5175:5244  remainingByUser > remainingByPool ? remainingByPool : remainingByUser */\n    tag_291:\n        /* \"Ethereum/Presale.sol\":5155:5244  uint256 allowance = remainingByUser > remainingByPool ? remainingByPool : remainingByUser */\n      swap1\n      pop\n        /* \"Ethereum/Presale.sol\":5281:5290  allowance */\n      dup1\n        /* \"Ethereum/Presale.sol\":5263:5277  real_amount_in */\n      dup7\n        /* \"Ethereum/Presale.sol\":5263:5290  real_amount_in <= allowance */\n      gt\n      iszero\n        /* \"Ethereum/Presale.sol\":5255:5310  require(real_amount_in <= allowance, \"Sale is success\") */\n      tag_292\n      jumpi\n      mload(0x40)\n      shl(0xe5, 0x461bcd)\n      dup2\n      mstore\n        /* \"#utility.yul\":10604:10606   */\n      0x20\n        /* \"Ethereum/Presale.sol\":5255:5310  require(real_amount_in <= allowance, \"Sale is success\") */\n      0x04\n      dup3\n      add\n        /* \"#utility.yul\":10586:10607   */\n      mstore\n        /* \"#utility.yul\":10643:10645   */\n      0x0f\n        /* \"#utility.yul\":10623:10641   */\n      0x24\n      dup3\n      add\n        /* \"#utility.yul\":10616:10646   */\n      mstore\n      shl(0x88, 0x53616c652069732073756363657373)\n        /* \"#utility.yul\":10662:10680   */\n      0x44\n      dup3\n      add\n        /* \"#utility.yul\":10655:10700   */\n      mstore\n        /* \"#utility.yul\":10717:10735   */\n      0x64\n      add\n        /* \"Ethereum/Presale.sol\":5255:5310  require(real_amount_in <= allowance, \"Sale is success\") */\n      tag_120\n        /* \"#utility.yul\":10576:10741   */\n      jump\n        /* \"Ethereum/Presale.sol\":5255:5310  require(real_amount_in <= allowance, \"Sale is success\") */\n    tag_292:\n        /* \"Ethereum/Presale.sol\":5321:5338  uint256 tokenSold */\n      0x00\n        /* \"Ethereum/Presale.sol\":5342:5500  real_amount_in.\r... */\n      tag_295\n        /* \"Ethereum/Presale.sol\":5467:5476  saleInfor */\n      0x0d\n        /* \"Ethereum/Presale.sol\":5467:5486  saleInfor.baseToken */\n      0x02\n      add\n      0x00\n      swap1\n      sload\n      swap1\n      0x0100\n      exp\n      swap1\n      div\n      sub(shl(0xa0, 0x01), 0x01)\n      and\n      sub(shl(0xa0, 0x01), 0x01)\n        /* \"Ethereum/Presale.sol\":5461:5496  ERC20(saleInfor.baseToken).decimals */\n      and\n      0x313ce567\n        /* \"Ethereum/Presale.sol\":5461:5498  ERC20(saleInfor.baseToken).decimals() */\n      mload(0x40)\n      dup2\n      0xffffffff\n      and\n      0xe0\n      shl\n      dup2\n      mstore\n      0x04\n      add\n      0x20\n      mload(0x40)\n      dup1\n      dup4\n      sub\n      dup2\n      dup7\n      dup1\n      extcodesize\n      iszero\n      dup1\n      iszero\n      tag_296\n      jumpi\n      0x00\n      dup1\n      revert\n    tag_296:\n      pop\n      gas\n      staticcall\n      iszero\n      dup1\n      iszero\n      tag_298\n      jumpi\n      returndatasize\n      0x00\n      dup1\n      returndatacopy\n      revert(0x00, returndatasize)\n    tag_298:\n      pop\n      pop\n      pop\n      pop\n      mload(0x40)\n      returndatasize\n      not(0x1f)\n      0x1f\n      dup3\n      add\n      and\n      dup3\n      add\n      dup1\n      0x40\n      mstore\n      pop\n      dup2\n      add\n      swap1\n      tag_299\n      swap2\n      swap1\n      tag_141\n      jump\t// in\n    tag_299:\n        /* \"Ethereum/Presale.sol\":5447:5499  10 ** uint256(ERC20(saleInfor.baseToken).decimals()) */\n      tag_300\n      swap1\n        /* \"Ethereum/Presale.sol\":5447:5449  10 */\n      0x0a\n        /* \"Ethereum/Presale.sol\":5447:5499  10 ** uint256(ERC20(saleInfor.baseToken).decimals()) */\n      tag_168\n      jump\t// in\n    tag_300:\n        /* \"Ethereum/Presale.sol\":5391:5411  saleInfor.tokenPrice */\n      sload(0x10)\n        /* \"Ethereum/Presale.sol\":5342:5412  real_amount_in.\r... */\n      tag_234\n      swap1\n        /* \"Ethereum/Presale.sol\":5342:5356  real_amount_in */\n      dup11\n      swap1\n        /* \"Ethereum/Presale.sol\":5342:5390  real_amount_in.\r... */\n      tag_214\n        /* \"Ethereum/Presale.sol\":5342:5412  real_amount_in.\r... */\n      jump\t// in\n        /* \"Ethereum/Presale.sol\":5342:5500  real_amount_in.\r... */\n    tag_295:\n        /* \"Ethereum/Presale.sol\":5321:5501  uint256 tokenSold = (real_amount_in.\r... */\n      swap1\n      pop\n        /* \"Ethereum/Presale.sol\":5550:5559  amount_in */\n      dup8\n        /* \"Ethereum/Presale.sol\":5529:5534  buyer */\n      dup10\n        /* \"Ethereum/Presale.sol\":5529:5546  buyer.baseDeposit */\n      0x00\n      add\n      0x00\n        /* \"Ethereum/Presale.sol\":5529:5559  buyer.baseDeposit += amount_in */\n      dup3\n      dup3\n      sload\n      tag_302\n      swap2\n      swap1\n      tag_240\n      jump\t// in\n    tag_302:\n      swap3\n      pop\n      pop\n      dup2\n      swap1\n      sstore\n      pop\n        /* \"Ethereum/Presale.sol\":5590:5599  tokenSold */\n      dup1\n        /* \"Ethereum/Presale.sol\":5570:5575  buyer */\n      dup10\n        /* \"Ethereum/Presale.sol\":5570:5586  buyer.tokenOwner */\n      0x01\n      add\n      0x00\n        /* \"Ethereum/Presale.sol\":5570:5599  buyer.tokenOwner += tokenSold */\n      dup3\n      dup3\n      sload\n      tag_303\n      swap2\n      swap1\n      tag_240\n      jump\t// in\n    tag_303:\n      swap1\n      swap2\n      sstore\n      pop\n      pop\n        /* \"Ethereum/Presale.sol\":5610:5623  presaleStatus */\n      0x04\n        /* \"Ethereum/Presale.sol\":5610:5660  presaleStatus.totalBaseCollected += real_amount_in */\n      dup1\n      sload\n        /* \"Ethereum/Presale.sol\":5646:5660  real_amount_in */\n      dup9\n      swap2\n        /* \"Ethereum/Presale.sol\":5610:5623  presaleStatus */\n      swap1\n        /* \"Ethereum/Presale.sol\":5610:5642  presaleStatus.totalBaseCollected */\n      0x00\n      swap1\n        /* \"Ethereum/Presale.sol\":5610:5660  presaleStatus.totalBaseCollected += real_amount_in */\n      tag_304\n      swap1\n        /* \"Ethereum/Presale.sol\":5646:5660  real_amount_in */\n      dup5\n      swap1\n        /* \"Ethereum/Presale.sol\":5610:5660  presaleStatus.totalBaseCollected += real_amount_in */\n      tag_240\n      jump\t// in\n    tag_304:\n      swap1\n      swap2\n      sstore\n      pop\n      pop\n        /* \"Ethereum/Presale.sol\":5671:5699  presaleStatus.totalTokenSold */\n      0x05\n        /* \"Ethereum/Presale.sol\":5671:5712  presaleStatus.totalTokenSold += tokenSold */\n      dup1\n      sload\n        /* \"Ethereum/Presale.sol\":5703:5712  tokenSold */\n      dup3\n      swap2\n        /* \"Ethereum/Presale.sol\":5671:5699  presaleStatus.totalTokenSold */\n      swap1\n      0x00\n      swap1\n        /* \"Ethereum/Presale.sol\":5671:5712  presaleStatus.totalTokenSold += tokenSold */\n      tag_305\n      swap1\n        /* \"Ethereum/Presale.sol\":5703:5712  tokenSold */\n      dup5\n      swap1\n        /* \"Ethereum/Presale.sol\":5671:5712  presaleStatus.totalTokenSold += tokenSold */\n      tag_240\n      jump\t// in\n    tag_305:\n      swap1\n      swap2\n      sstore\n      pop\n      pop\n        /* \"Ethereum/Presale.sol\":5723:5748  presaleStatus.numberBuyer */\n      0x08\n        /* \"Ethereum/Presale.sol\":5723:5750  presaleStatus.numberBuyer++ */\n      dup1\n      sload\n      swap1\n        /* \"Ethereum/Presale.sol\":5723:5748  presaleStatus.numberBuyer */\n      0x00\n        /* \"Ethereum/Presale.sol\":5723:5750  presaleStatus.numberBuyer++ */\n      tag_306\n      dup4\n      tag_307\n      jump\t// in\n    tag_306:\n      swap1\n      swap2\n      sstore\n      pop\n      pop\n        /* \"Ethereum/Presale.sol\":5769:5779  msg.sender */\n      caller\n        /* \"Ethereum/Presale.sol\":5761:5780  userFee[msg.sender] */\n      0x00\n      swap1\n      dup2\n      mstore\n        /* \"Ethereum/Presale.sol\":5761:5768  userFee */\n      0x03\n        /* \"Ethereum/Presale.sol\":5761:5780  userFee[msg.sender] */\n      0x20\n      mstore\n      0x40\n      dup2\n      keccak256\n        /* \"Ethereum/Presale.sol\":5761:5787  userFee[msg.sender] += fee */\n      dup1\n      sload\n        /* \"Ethereum/Presale.sol\":5784:5787  fee */\n      dup9\n      swap3\n        /* \"Ethereum/Presale.sol\":5761:5780  userFee[msg.sender] */\n      swap1\n        /* \"Ethereum/Presale.sol\":5761:5787  userFee[msg.sender] += fee */\n      tag_308\n      swap1\n        /* \"Ethereum/Presale.sol\":5784:5787  fee */\n      dup5\n      swap1\n        /* \"Ethereum/Presale.sol\":5761:5787  userFee[msg.sender] += fee */\n      tag_240\n      jump\t// in\n    tag_308:\n      swap3\n      pop\n      pop\n      dup2\n      swap1\n      sstore\n      pop\n        /* \"Ethereum/Presale.sol\":5810:5813  fee */\n      dup6\n        /* \"Ethereum/Presale.sol\":5798:5806  totalFee */\n      0x1d\n      0x00\n        /* \"Ethereum/Presale.sol\":5798:5813  totalFee += fee */\n      dup3\n      dup3\n      sload\n      tag_309\n      swap2\n      swap1\n      tag_240\n      jump\t// in\n    tag_309:\n      swap1\n      swap2\n      sstore\n      pop\n      pop\n        /* \"Ethereum/Presale.sol\":5829:5854  saleInfor.saleIsBaseToken */\n      and(0xff, sload(0x17))\n        /* \"Ethereum/Presale.sol\":5829:5890  saleInfor.saleIsBaseToken && real_amount_in + fee < msg.value */\n      dup1\n      iszero\n      tag_310\n      jumpi\n      pop\n        /* \"Ethereum/Presale.sol\":5881:5890  msg.value */\n      callvalue\n        /* \"Ethereum/Presale.sol\":5858:5878  real_amount_in + fee */\n      tag_311\n        /* \"Ethereum/Presale.sol\":5875:5878  fee */\n      dup8\n        /* \"Ethereum/Presale.sol\":5858:5872  real_amount_in */\n      dup10\n        /* \"Ethereum/Presale.sol\":5858:5878  real_amount_in + fee */\n      tag_240\n      jump\t// in\n    tag_311:\n        /* \"Ethereum/Presale.sol\":5858:5890  real_amount_in + fee < msg.value */\n      lt\n        /* \"Ethereum/Presale.sol\":5829:5890  saleInfor.saleIsBaseToken && real_amount_in + fee < msg.value */\n    tag_310:\n        /* \"Ethereum/Presale.sol\":5826:5981  if(saleInfor.saleIsBaseToken && real_amount_in + fee < msg.value) {\r... */\n      iszero\n      tag_312\n      jumpi\n        /* \"Ethereum/Presale.sol\":5915:5925  msg.sender */\n      caller\n        /* \"Ethereum/Presale.sol\":5907:5969  payable(msg.sender).transfer(msg.value - real_amount_in - fee) */\n      0x08fc\n        /* \"Ethereum/Presale.sol\":5965:5968  fee */\n      dup8\n        /* \"Ethereum/Presale.sol\":5936:5962  msg.value - real_amount_in */\n      tag_313\n        /* \"Ethereum/Presale.sol\":5948:5962  real_amount_in */\n      dup11\n        /* \"Ethereum/Presale.sol\":5936:5945  msg.value */\n      callvalue\n        /* \"Ethereum/Presale.sol\":5936:5962  msg.value - real_amount_in */\n      tag_226\n      jump\t// in\n    tag_313:\n        /* \"Ethereum/Presale.sol\":5936:5968  msg.value - real_amount_in - fee */\n      tag_314\n      swap2\n      swap1\n      tag_226\n      jump\t// in\n    tag_314:\n        /* \"Ethereum/Presale.sol\":5907:5969  payable(msg.sender).transfer(msg.value - real_amount_in - fee) */\n      mload(0x40)\n      dup2\n      iszero\n      swap1\n      swap3\n      mul\n      swap2\n      0x00\n      dup2\n      dup2\n      dup2\n      dup6\n      dup9\n      dup9\n      call\n      swap4\n      pop\n      pop\n      pop\n      pop\n      iszero\n      dup1\n      iszero\n      tag_316\n      jumpi\n      returndatasize\n      0x00\n      dup1\n      returndatacopy\n      revert(0x00, returndatasize)\n    tag_316:\n      pop\n        /* \"Ethereum/Presale.sol\":5826:5981  if(saleInfor.saleIsBaseToken && real_amount_in + fee < msg.value) {\r... */\n    tag_312:\n        /* \"Ethereum/Presale.sol\":5996:6021  saleInfor.saleIsBaseToken */\n      and(0xff, sload(0x17))\n        /* \"Ethereum/Presale.sol\":5992:6243  if(!saleInfor.saleIsBaseToken) {\r... */\n      tag_318\n      jumpi\n        /* \"Ethereum/Presale.sol\":6096:6115  saleInfor.baseToken */\n      sload(0x0f)\n        /* \"Ethereum/Presale.sol\":6038:6231  TransferHelper.safeTransferFrom(\r... */\n      tag_318\n      swap1\n      sub(shl(0xa0, 0x01), 0x01)\n        /* \"Ethereum/Presale.sol\":6096:6115  saleInfor.baseToken */\n      and\n        /* \"Ethereum/Presale.sol\":6135:6145  msg.sender */\n      caller\n        /* \"Ethereum/Presale.sol\":6172:6176  this */\n      address\n        /* \"Ethereum/Presale.sol\":6196:6216  real_amount_in + fee */\n      tag_319\n        /* \"Ethereum/Presale.sol\":6213:6216  fee */\n      dup11\n        /* \"Ethereum/Presale.sol\":6196:6210  real_amount_in */\n      dup13\n        /* \"Ethereum/Presale.sol\":6196:6216  real_amount_in + fee */\n      tag_240\n      jump\t// in\n    tag_319:\n        /* \"Ethereum/Presale.sol\":6038:6069  TransferHelper.safeTransferFrom */\n      tag_320\n        /* \"Ethereum/Presale.sol\":6038:6231  TransferHelper.safeTransferFrom(\r... */\n      jump\t// in\n    tag_318:\n      pop\n      pop\n        /* \"Utils/ReentrancyGuard.sol\":1734:1735  1 */\n      0x01\n        /* \"Utils/ReentrancyGuard.sol\":2688:2695  _status */\n      0x00\n        /* \"Utils/ReentrancyGuard.sol\":2688:2710  _status = _NOT_ENTERED */\n      sstore\n      pop\n      pop\n      pop\n      pop\n      pop\n      pop\n      pop\n      pop\n        /* \"Ethereum/Presale.sol\":4136:6262  function deposit(uint256 _amount) external payable nonReentrant {\r... */\n      jump\t// out\n        /* \"Ethereum/Presale.sol\":4018:4128  function checkAdminAddress() public view returns(bool) {\r... */\n    tag_94:\n        /* \"Ethereum/Presale.sol\":4067:4071  bool */\n      0x00\n        /* \"Ethereum/Presale.sol\":4091:4120  admins.contains(_msgSender()) */\n      tag_322\n        /* \"Ethereum/Presale.sol\":4091:4097  admins */\n      0x1b\n        /* \"Utils/Context.sol\":736:746  msg.sender */\n      caller\n        /* \"Ethereum/Presale.sol\":4091:4106  admins.contains */\n      tag_324\n        /* \"Ethereum/Presale.sol\":4091:4120  admins.contains(_msgSender()) */\n      jump\t// in\n    tag_322:\n        /* \"Ethereum/Presale.sol\":4084:4120  return admins.contains(_msgSender()) */\n      swap1\n      pop\n        /* \"Ethereum/Presale.sol\":4018:4128  function checkAdminAddress() public view returns(bool) {\r... */\n      swap1\n      jump\t// out\n        /* \"Utils/Ownable.sol\":1972:2173  function transferOwnership(address newOwner) public virtual onlyOwner {\r... */\n    tag_106:\n        /* \"Utils/Ownable.sol\":1136:1142  _owner */\n      and(sub(shl(0xa0, 0x01), 0x01), sload(0x01))\n        /* \"Utils/Context.sol\":736:746  msg.sender */\n      caller\n        /* \"Utils/Ownable.sol\":1283:1306  owner() == _msgSender() */\n      eq\n        /* \"Utils/Ownable.sol\":1275:1343  require(owner() == _msgSender(), \"Ownable: caller is not the owner\") */\n      tag_328\n      jumpi\n      mload(0x40)\n      shl(0xe5, 0x461bcd)\n      dup2\n      mstore\n        /* \"#utility.yul\":8771:8773   */\n      0x20\n        /* \"Utils/Ownable.sol\":1275:1343  require(owner() == _msgSender(), \"Ownable: caller is not the owner\") */\n      0x04\n      dup3\n      add\n        /* \"#utility.yul\":8753:8774   */\n      dup2\n      swap1\n      mstore\n        /* \"#utility.yul\":8790:8808   */\n      0x24\n      dup3\n      add\n        /* \"#utility.yul\":8783:8813   */\n      mstore\n        /* \"#utility.yul\":8849:8883   */\n      0x4f776e61626c653a2063616c6c6572206973206e6f7420746865206f776e6572\n        /* \"#utility.yul\":8829:8847   */\n      0x44\n      dup3\n      add\n        /* \"#utility.yul\":8822:8884   */\n      mstore\n        /* \"#utility.yul\":8901:8919   */\n      0x64\n      add\n        /* \"Utils/Ownable.sol\":1275:1343  require(owner() == _msgSender(), \"Ownable: caller is not the owner\") */\n      tag_120\n        /* \"#utility.yul\":8743:8925   */\n      jump\n        /* \"Utils/Ownable.sol\":1275:1343  require(owner() == _msgSender(), \"Ownable: caller is not the owner\") */\n    tag_328:\n      sub(shl(0xa0, 0x01), 0x01)\n        /* \"Utils/Ownable.sol\":2061:2083  newOwner != address(0) */\n      dup2\n      and\n        /* \"Utils/Ownable.sol\":2053:2126  require(newOwner != address(0), \"Ownable: new owner is the zero address\") */\n      tag_331\n      jumpi\n      mload(0x40)\n      shl(0xe5, 0x461bcd)\n      dup2\n      mstore\n        /* \"#utility.yul\":5838:5840   */\n      0x20\n        /* \"Utils/Ownable.sol\":2053:2126  require(newOwner != address(0), \"Ownable: new owner is the zero address\") */\n      0x04\n      dup3\n      add\n        /* \"#utility.yul\":5820:5841   */\n      mstore\n        /* \"#utility.yul\":5877:5879   */\n      0x26\n        /* \"#utility.yul\":5857:5875   */\n      0x24\n      dup3\n      add\n        /* \"#utility.yul\":5850:5880   */\n      mstore\n        /* \"#utility.yul\":5916:5950   */\n      0x4f776e61626c653a206e6577206f776e657220697320746865207a65726f2061\n        /* \"#utility.yul\":5896:5914   */\n      0x44\n      dup3\n      add\n        /* \"#utility.yul\":5889:5951   */\n      mstore\n      shl(0xd0, 0x646472657373)\n        /* \"#utility.yul\":5967:5985   */\n      0x64\n      dup3\n      add\n        /* \"#utility.yul\":5960:5996   */\n      mstore\n        /* \"#utility.yul\":6013:6032   */\n      0x84\n      add\n        /* \"Utils/Ownable.sol\":2053:2126  require(newOwner != address(0), \"Ownable: new owner is the zero address\") */\n      tag_120\n        /* \"#utility.yul\":5810:6038   */\n      jump\n        /* \"Utils/Ownable.sol\":2053:2126  require(newOwner != address(0), \"Ownable: new owner is the zero address\") */\n    tag_331:\n        /* \"Utils/Ownable.sol\":2137:2165  _transferOwnership(newOwner) */\n      tag_160\n        /* \"Utils/Ownable.sol\":2156:2164  newOwner */\n      dup2\n        /* \"Utils/Ownable.sol\":2137:2155  _transferOwnership */\n      tag_157\n        /* \"Utils/Ownable.sol\":2137:2165  _transferOwnership(newOwner) */\n      jump\t// in\n        /* \"Utils/EnumerableSet.sol\":8259:8411  function add(AddressSet storage set, address value) internal returns (bool) {\r... */\n    tag_112:\n        /* \"Utils/EnumerableSet.sol\":8329:8333  bool */\n      0x00\n        /* \"Utils/EnumerableSet.sol\":8353:8403  _add(set._inner, bytes32(uint256(uint160(value)))) */\n      tag_337\n        /* \"Utils/EnumerableSet.sol\":8358:8361  set */\n      dup4\n      sub(shl(0xa0, 0x01), 0x01)\n        /* \"Utils/EnumerableSet.sol\":8378:8401  uint256(uint160(value)) */\n      dup5\n      and\n        /* \"Utils/EnumerableSet.sol\":8353:8357  _add */\n      tag_338\n        /* \"Utils/EnumerableSet.sol\":8353:8403  _add(set._inner, bytes32(uint256(uint160(value)))) */\n      jump\t// in\n    tag_337:\n        /* \"Utils/EnumerableSet.sol\":8346:8403  return _add(set._inner, bytes32(uint256(uint160(value)))) */\n      swap1\n      pop\n        /* \"Utils/EnumerableSet.sol\":8259:8411  function add(AddressSet storage set, address value) internal returns (bool) {\r... */\n    tag_336:\n      swap3\n      swap2\n      pop\n      pop\n      jump\t// out\n        /* \"Utils/Ownable.sol\":2333:2524  function _transferOwnership(address newOwner) internal virtual {\r... */\n    tag_157:\n        /* \"Utils/Ownable.sol\":2426:2432  _owner */\n      0x01\n      dup1\n      sload\n      sub(shl(0xa0, 0x01), 0x01)\n        /* \"Utils/Ownable.sol\":2443:2460  _owner = newOwner */\n      dup4\n      dup2\n      and\n      not(sub(shl(0xa0, 0x01), 0x01))\n      dup4\n      and\n      dup2\n      or\n      swap1\n      swap4\n      sstore\n        /* \"Utils/Ownable.sol\":2476:2516  OwnershipTransferred(oldOwner, newOwner) */\n      mload(0x40)\n        /* \"Utils/Ownable.sol\":2426:2432  _owner */\n      swap2\n      and\n      swap2\n        /* \"Utils/Ownable.sol\":2443:2460  _owner = newOwner */\n      swap1\n        /* \"Utils/Ownable.sol\":2426:2432  _owner */\n      dup3\n      swap1\n        /* \"Utils/Ownable.sol\":2476:2516  OwnershipTransferred(oldOwner, newOwner) */\n      0x8be0079c531659141344cd1fd0a4f28419497f9722a3daafe3b4186f6b6457e0\n      swap1\n        /* \"Utils/Ownable.sol\":2407:2423  address oldOwner */\n      0x00\n      swap1\n        /* \"Utils/Ownable.sol\":2476:2516  OwnershipTransferred(oldOwner, newOwner) */\n      log3\n        /* \"Utils/Ownable.sol\":2396:2524  {\r... */\n      pop\n        /* \"Utils/Ownable.sol\":2333:2524  function _transferOwnership(address newOwner) internal virtual {\r... */\n      pop\n      jump\t// out\n        /* \"Utils/SafeMath.sol\":3585:3683  function mul(uint256 a, uint256 b) internal pure returns (uint256) {\r... */\n    tag_214:\n        /* \"Utils/SafeMath.sol\":3643:3650  uint256 */\n      0x00\n        /* \"Utils/SafeMath.sol\":3670:3675  a * b */\n      tag_337\n        /* \"Utils/SafeMath.sol\":3674:3675  b */\n      dup3\n        /* \"Utils/SafeMath.sol\":3670:3671  a */\n      dup5\n        /* \"Utils/SafeMath.sol\":3670:3675  a * b */\n      tag_173\n      jump\t// in\n        /* \"Utils/SafeMath.sol\":3228:3326  function sub(uint256 a, uint256 b) internal pure returns (uint256) {\r... */\n    tag_236:\n        /* \"Utils/SafeMath.sol\":3286:3293  uint256 */\n      0x00\n        /* \"Utils/SafeMath.sol\":3313:3318  a - b */\n      tag_337\n        /* \"Utils/SafeMath.sol\":3317:3318  b */\n      dup3\n        /* \"Utils/SafeMath.sol\":3313:3314  a */\n      dup5\n        /* \"Utils/SafeMath.sol\":3313:3318  a - b */\n      tag_226\n      jump\t// in\n        /* \"Utils/SafeMath.sol\":3984:4082  function div(uint256 a, uint256 b) internal pure returns (uint256) {\r... */\n    tag_237:\n        /* \"Utils/SafeMath.sol\":4042:4049  uint256 */\n      0x00\n        /* \"Utils/SafeMath.sol\":4069:4074  a / b */\n      tag_337\n        /* \"Utils/SafeMath.sol\":4073:4074  b */\n      dup3\n        /* \"Utils/SafeMath.sol\":4069:4070  a */\n      dup5\n        /* \"Utils/SafeMath.sol\":4069:4074  a / b */\n      tag_216\n      jump\t// in\n        /* \"Utils/TransferHelper.sol\":1073:1503  function safeTransferFrom(\r... */\n    tag_320:\n        /* \"Utils/TransferHelper.sol\":1279:1330  abi.encodeWithSelector(0x23b872dd, from, to, value) */\n      0x40\n      dup1\n      mload\n      sub(shl(0xa0, 0x01), 0x01)\n        /* \"#utility.yul\":4465:4480   */\n      dup6\n      dup2\n      and\n        /* \"Utils/TransferHelper.sol\":1279:1330  abi.encodeWithSelector(0x23b872dd, from, to, value) */\n      0x24\n      dup4\n      add\n        /* \"#utility.yul\":4447:4481   */\n      mstore\n        /* \"#utility.yul\":4517:4532   */\n      dup5\n      dup2\n      and\n        /* \"#utility.yul\":4497:4515   */\n      0x44\n      dup4\n      add\n        /* \"#utility.yul\":4490:4533   */\n      mstore\n        /* \"#utility.yul\":4549:4567   */\n      0x64\n      dup1\n      dup4\n      add\n        /* \"#utility.yul\":4542:4576   */\n      dup6\n      swap1\n      mstore\n        /* \"Utils/TransferHelper.sol\":1279:1330  abi.encodeWithSelector(0x23b872dd, from, to, value) */\n      dup4\n      mload\n      dup1\n      dup5\n      sub\n      swap1\n      swap2\n      add\n      dup2\n      mstore\n        /* \"#utility.yul\":4382:4400   */\n      0x84\n      swap1\n      swap3\n      add\n        /* \"Utils/TransferHelper.sol\":1279:1330  abi.encodeWithSelector(0x23b872dd, from, to, value) */\n      dup4\n      mstore\n      0x20\n      dup3\n      add\n      dup1\n      mload\n      sub(shl(0xe0, 0x01), 0x01)\n      and\n      shl(0xe0, 0x23b872dd)\n      or\n      swap1\n      mstore\n        /* \"Utils/TransferHelper.sol\":1254:1341  token.call(\r... */\n      swap2\n      mload\n      0x00\n      swap3\n      dup4\n      swap3\n        /* \"Utils/TransferHelper.sol\":1254:1264  token.call */\n      swap1\n      dup9\n      and\n      swap2\n        /* \"Utils/TransferHelper.sol\":1254:1341  token.call(\r... */\n      tag_350\n      swap2\n        /* \"Utils/TransferHelper.sol\":1279:1330  abi.encodeWithSelector(0x23b872dd, from, to, value) */\n      swap1\n        /* \"Utils/TransferHelper.sol\":1254:1341  token.call(\r... */\n      tag_351\n      jump\t// in\n    tag_350:\n      0x00\n      mload(0x40)\n      dup1\n      dup4\n      sub\n      dup2\n      0x00\n      dup7\n      gas\n      call\n      swap2\n      pop\n      pop\n      returndatasize\n      dup1\n      0x00\n      dup2\n      eq\n      tag_354\n      jumpi\n      mload(0x40)\n      swap2\n      pop\n      and(add(returndatasize, 0x3f), not(0x1f))\n      dup3\n      add\n      0x40\n      mstore\n      returndatasize\n      dup3\n      mstore\n      returndatasize\n      0x00\n      0x20\n      dup5\n      add\n      returndatacopy\n      jump(tag_353)\n    tag_354:\n      0x60\n      swap2\n      pop\n    tag_353:\n      pop\n        /* \"Utils/TransferHelper.sol\":1218:1341  (bool success, bytes memory data) = token.call(\r... */\n      swap2\n      pop\n      swap2\n      pop\n        /* \"Utils/TransferHelper.sol\":1374:1381  success */\n      dup2\n        /* \"Utils/TransferHelper.sol\":1374:1431  success && (data.length == 0 || abi.decode(data, (bool))) */\n      dup1\n      iszero\n      tag_357\n      jumpi\n      pop\n        /* \"Utils/TransferHelper.sol\":1386:1397  data.length */\n      dup1\n      mload\n        /* \"Utils/TransferHelper.sol\":1386:1402  data.length == 0 */\n      iszero\n      dup1\n        /* \"Utils/TransferHelper.sol\":1386:1430  data.length == 0 || abi.decode(data, (bool)) */\n      tag_357\n      jumpi\n      pop\n        /* \"Utils/TransferHelper.sol\":1417:1421  data */\n      dup1\n        /* \"Utils/TransferHelper.sol\":1406:1430  abi.decode(data, (bool)) */\n      dup1\n      0x20\n      add\n      swap1\n      mload\n      dup2\n      add\n      swap1\n      tag_357\n      swap2\n      swap1\n      tag_148\n      jump\t// in\n    tag_357:\n        /* \"Utils/TransferHelper.sol\":1352:1495  require(\r... */\n      tag_358\n      jumpi\n      mload(0x40)\n      shl(0xe5, 0x461bcd)\n      dup2\n      mstore\n        /* \"#utility.yul\":9481:9483   */\n      0x20\n        /* \"Utils/TransferHelper.sol\":1352:1495  require(\r... */\n      0x04\n      dup3\n      add\n        /* \"#utility.yul\":9463:9484   */\n      mstore\n        /* \"#utility.yul\":9520:9522   */\n      0x24\n        /* \"#utility.yul\":9500:9518   */\n      dup1\n      dup3\n      add\n        /* \"#utility.yul\":9493:9523   */\n      mstore\n        /* \"#utility.yul\":9559:9593   */\n      0x5472616e7366657248656c7065723a205452414e534645525f46524f4d5f4641\n        /* \"#utility.yul\":9539:9557   */\n      0x44\n      dup3\n      add\n        /* \"#utility.yul\":9532:9594   */\n      mstore\n      shl(0xe2, 0x12531151)\n        /* \"#utility.yul\":9610:9628   */\n      0x64\n      dup3\n      add\n        /* \"#utility.yul\":9603:9637   */\n      mstore\n        /* \"#utility.yul\":9654:9673   */\n      0x84\n      add\n        /* \"Utils/TransferHelper.sol\":1352:1495  require(\r... */\n      tag_120\n        /* \"#utility.yul\":9453:9679   */\n      jump\n        /* \"Utils/TransferHelper.sol\":1352:1495  require(\r... */\n    tag_358:\n        /* \"Utils/TransferHelper.sol\":1207:1503  {\r... */\n      pop\n      pop\n        /* \"Utils/TransferHelper.sol\":1073:1503  function safeTransferFrom(\r... */\n      pop\n      pop\n      pop\n      pop\n      jump\t// out\n        /* \"Utils/EnumerableSet.sol\":8831:8998  function contains(AddressSet storage set, address value) internal view returns (bool) {\r... */\n    tag_324:\n      sub(shl(0xa0, 0x01), 0x01)\n        /* \"Utils/EnumerableSet.sol\":8965:8988  uint256(uint160(value)) */\n      dup2\n      and\n        /* \"Utils/EnumerableSet.sol\":8911:8915  bool */\n      0x00\n        /* \"Utils/EnumerableSet.sol\":4367:4386  set._indexes[value] */\n      swap1\n      dup2\n      mstore\n        /* \"Utils/EnumerableSet.sol\":4367:4379  set._indexes */\n      0x01\n      dup4\n      add\n        /* \"Utils/EnumerableSet.sol\":4367:4386  set._indexes[value] */\n      0x20\n      mstore\n      0x40\n      dup2\n      keccak256\n      sload\n        /* \"Utils/EnumerableSet.sol\":4367:4391  set._indexes[value] != 0 */\n      iszero\n      iszero\n        /* \"Utils/EnumerableSet.sol\":8935:8990  _contains(set._inner, bytes32(uint256(uint160(value)))) */\n      tag_337\n        /* \"Utils/EnumerableSet.sol\":4270:4399  function _contains(Set storage set, bytes32 value) private view returns (bool) {\r... */\n      jump\n        /* \"Utils/EnumerableSet.sol\":2174:2588  function _add(Set storage set, bytes32 value) private returns (bool) {\r... */\n    tag_338:\n        /* \"Utils/EnumerableSet.sol\":2237:2241  bool */\n      0x00\n        /* \"Utils/EnumerableSet.sol\":4367:4386  set._indexes[value] */\n      dup2\n      dup2\n      mstore\n        /* \"Utils/EnumerableSet.sol\":4367:4379  set._indexes */\n      0x01\n      dup4\n      add\n        /* \"Utils/EnumerableSet.sol\":4367:4386  set._indexes[value] */\n      0x20\n      mstore\n      0x40\n      dup2\n      keccak256\n      sload\n        /* \"Utils/EnumerableSet.sol\":2254:2581  if (!_contains(set, value)) {\r... */\n      tag_366\n      jumpi\n      pop\n        /* \"Utils/EnumerableSet.sol\":2297:2320  set._values.push(value) */\n      dup2\n      sload\n      0x01\n      dup2\n      dup2\n      add\n      dup5\n      sstore\n        /* \"Utils/EnumerableSet.sol\":2297:2308  set._values */\n      0x00\n        /* \"Utils/EnumerableSet.sol\":2297:2320  set._values.push(value) */\n      dup5\n      dup2\n      mstore\n      0x20\n      dup1\n      dup3\n      keccak256\n      swap1\n      swap4\n      add\n      dup5\n      swap1\n      sstore\n        /* \"Utils/EnumerableSet.sol\":2480:2498  set._values.length */\n      dup5\n      sload\n        /* \"Utils/EnumerableSet.sol\":2458:2477  set._indexes[value] */\n      dup5\n      dup3\n      mstore\n        /* \"Utils/EnumerableSet.sol\":2458:2470  set._indexes */\n      dup3\n      dup7\n      add\n        /* \"Utils/EnumerableSet.sol\":2458:2477  set._indexes[value] */\n      swap1\n      swap4\n      mstore\n      0x40\n      swap1\n      keccak256\n        /* \"Utils/EnumerableSet.sol\":2458:2498  set._indexes[value] = set._values.length */\n      swap2\n      swap1\n      swap2\n      sstore\n        /* \"Utils/EnumerableSet.sol\":2513:2524  return true */\n      jump(tag_336)\n        /* \"Utils/EnumerableSet.sol\":2254:2581  if (!_contains(set, value)) {\r... */\n    tag_366:\n      pop\n        /* \"Utils/EnumerableSet.sol\":2564:2569  false */\n      0x00\n        /* \"Utils/EnumerableSet.sol\":2557:2569  return false */\n      jump(tag_336)\n        /* \"#utility.yul\":14:261   */\n    tag_54:\n        /* \"#utility.yul\":73:79   */\n      0x00\n        /* \"#utility.yul\":126:128   */\n      0x20\n        /* \"#utility.yul\":114:123   */\n      dup3\n        /* \"#utility.yul\":105:112   */\n      dup5\n        /* \"#utility.yul\":101:124   */\n      sub\n        /* \"#utility.yul\":97:129   */\n      slt\n        /* \"#utility.yul\":94:96   */\n      iszero\n      tag_372\n      jumpi\n        /* \"#utility.yul\":142:143   */\n      0x00\n        /* \"#utility.yul\":139:140   */\n      dup1\n        /* \"#utility.yul\":132:144   */\n      revert\n        /* \"#utility.yul\":94:96   */\n    tag_372:\n        /* \"#utility.yul\":181:190   */\n      dup2\n        /* \"#utility.yul\":168:191   */\n      calldataload\n        /* \"#utility.yul\":200:231   */\n      tag_373\n        /* \"#utility.yul\":225:230   */\n      dup2\n        /* \"#utility.yul\":200:231   */\n      tag_374\n      jump\t// in\n    tag_373:\n        /* \"#utility.yul\":250:255   */\n      swap4\n        /* \"#utility.yul\":84:261   */\n      swap3\n      pop\n      pop\n      pop\n      jump\t// out\n        /* \"#utility.yul\":266:1527   */\n    tag_70:\n        /* \"#utility.yul\":409:415   */\n      0x00\n        /* \"#utility.yul\":417:423   */\n      dup1\n        /* \"#utility.yul\":425:431   */\n      0x00\n        /* \"#utility.yul\":433:439   */\n      dup1\n        /* \"#utility.yul\":464:467   */\n      0x0180\n        /* \"#utility.yul\":508:510   */\n      dup1\n        /* \"#utility.yul\":496:505   */\n      dup7\n        /* \"#utility.yul\":487:494   */\n      dup9\n        /* \"#utility.yul\":483:506   */\n      sub\n        /* \"#utility.yul\":479:511   */\n      slt\n        /* \"#utility.yul\":476:478   */\n      iszero\n      tag_376\n      jumpi\n        /* \"#utility.yul\":524:525   */\n      0x00\n        /* \"#utility.yul\":521:522   */\n      dup1\n        /* \"#utility.yul\":514:526   */\n      revert\n        /* \"#utility.yul\":476:478   */\n    tag_376:\n        /* \"#utility.yul\":563:572   */\n      dup6\n        /* \"#utility.yul\":550:573   */\n      calldataload\n        /* \"#utility.yul\":582:613   */\n      tag_377\n        /* \"#utility.yul\":607:612   */\n      dup2\n        /* \"#utility.yul\":582:613   */\n      tag_374\n      jump\t// in\n    tag_377:\n        /* \"#utility.yul\":632:637   */\n      swap5\n      pop\n        /* \"#utility.yul\":656:658   */\n      0x20\n        /* \"#utility.yul\":695:713   */\n      dup7\n      dup2\n      add\n        /* \"#utility.yul\":682:714   */\n      calldataload\n        /* \"#utility.yul\":723:756   */\n      tag_378\n        /* \"#utility.yul\":682:714   */\n      dup2\n        /* \"#utility.yul\":723:756   */\n      tag_374\n      jump\t// in\n    tag_378:\n        /* \"#utility.yul\":775:782   */\n      swap5\n      pop\n        /* \"#utility.yul\":834:836   */\n      0x40\n        /* \"#utility.yul\":819:837   */\n      dup8\n      add\n        /* \"#utility.yul\":806:838   */\n      calldataload\n        /* \"#utility.yul\":847:880   */\n      tag_379\n        /* \"#utility.yul\":806:838   */\n      dup2\n        /* \"#utility.yul\":847:880   */\n      tag_374\n      jump\t// in\n    tag_379:\n        /* \"#utility.yul\":899:906   */\n      swap4\n      pop\n        /* \"#utility.yul\":944:947   */\n      0x7f\n        /* \"#utility.yul\":929:948   */\n      dup8\n      add\n        /* \"#utility.yul\":925:958   */\n      dup9\n      sgt\n        /* \"#utility.yul\":915:917   */\n      tag_380\n      jumpi\n        /* \"#utility.yul\":972:973   */\n      0x00\n        /* \"#utility.yul\":969:970   */\n      dup1\n        /* \"#utility.yul\":962:974   */\n      revert\n        /* \"#utility.yul\":915:917   */\n    tag_380:\n        /* \"#utility.yul\":1005:1007   */\n      0x40\n        /* \"#utility.yul\":999:1008   */\n      mload\n        /* \"#utility.yul\":1047:1050   */\n      0x0120\n        /* \"#utility.yul\":1039:1045   */\n      dup2\n        /* \"#utility.yul\":1035:1051   */\n      add\n        /* \"#utility.yul\":1117:1123   */\n      dup2\n        /* \"#utility.yul\":1105:1115   */\n      dup2\n        /* \"#utility.yul\":1102:1124   */\n      lt\n        /* \"#utility.yul\":1081:1099   */\n      0xffffffffffffffff\n        /* \"#utility.yul\":1069:1079   */\n      dup3\n        /* \"#utility.yul\":1066:1100   */\n      gt\n        /* \"#utility.yul\":1063:1125   */\n      or\n        /* \"#utility.yul\":1060:1062   */\n      iszero\n      tag_382\n      jumpi\n        /* \"#utility.yul\":1128:1146   */\n      tag_382\n      tag_383\n      jump\t// in\n    tag_382:\n        /* \"#utility.yul\":1164:1166   */\n      0x40\n        /* \"#utility.yul\":1157:1179   */\n      mstore\n        /* \"#utility.yul\":1199:1205   */\n      dup1\n        /* \"#utility.yul\":1240:1242   */\n      0x60\n        /* \"#utility.yul\":1225:1243   */\n      dup10\n      add\n        /* \"#utility.yul\":1258:1276   */\n      dup5\n      dup11\n      add\n        /* \"#utility.yul\":1255:1286   */\n      dup12\n      lt\n        /* \"#utility.yul\":1252:1254   */\n      iszero\n      tag_384\n      jumpi\n        /* \"#utility.yul\":1299:1300   */\n      0x00\n        /* \"#utility.yul\":1296:1297   */\n      dup1\n        /* \"#utility.yul\":1289:1301   */\n      revert\n        /* \"#utility.yul\":1252:1254   */\n    tag_384:\n        /* \"#utility.yul\":1321:1322   */\n      0x00\n        /* \"#utility.yul\":1312:1322   */\n      swap5\n      pop\n        /* \"#utility.yul\":1331:1496   */\n    tag_385:\n        /* \"#utility.yul\":1345:1349   */\n      0x09\n        /* \"#utility.yul\":1342:1343   */\n      dup6\n        /* \"#utility.yul\":1339:1350   */\n      lt\n        /* \"#utility.yul\":1331:1496   */\n      iszero\n      tag_387\n      jumpi\n        /* \"#utility.yul\":1404:1421   */\n      dup1\n      calldataload\n        /* \"#utility.yul\":1392:1422   */\n      dup3\n      mstore\n        /* \"#utility.yul\":1365:1366   */\n      0x01\n        /* \"#utility.yul\":1358:1367   */\n      swap5\n      swap1\n      swap5\n      add\n      swap4\n        /* \"#utility.yul\":1442:1454   */\n      swap1\n      dup4\n      add\n      swap1\n        /* \"#utility.yul\":1474:1486   */\n      dup4\n      add\n        /* \"#utility.yul\":1331:1496   */\n      jump(tag_385)\n    tag_387:\n        /* \"#utility.yul\":1335:1338   */\n      pop\n      pop\n        /* \"#utility.yul\":1515:1521   */\n      dup1\n        /* \"#utility.yul\":1505:1521   */\n      swap4\n      pop\n      pop\n      pop\n      pop\n        /* \"#utility.yul\":444:1527   */\n      swap3\n      swap6\n      swap2\n      swap5\n      pop\n      swap3\n      pop\n      jump\t// out\n        /* \"#utility.yul\":1532:1809   */\n    tag_148:\n        /* \"#utility.yul\":1599:1605   */\n      0x00\n        /* \"#utility.yul\":1652:1654   */\n      0x20\n        /* \"#utility.yul\":1640:1649   */\n      dup3\n        /* \"#utility.yul\":1631:1638   */\n      dup5\n        /* \"#utility.yul\":1627:1650   */\n      sub\n        /* \"#utility.yul\":1623:1655   */\n      slt\n        /* \"#utility.yul\":1620:1622   */\n      iszero\n      tag_389\n      jumpi\n        /* \"#utility.yul\":1668:1669   */\n      0x00\n        /* \"#utility.yul\":1665:1666   */\n      dup1\n        /* \"#utility.yul\":1658:1670   */\n      revert\n        /* \"#utility.yul\":1620:1622   */\n    tag_389:\n        /* \"#utility.yul\":1700:1709   */\n      dup2\n        /* \"#utility.yul\":1694:1710   */\n      mload\n        /* \"#utility.yul\":1753:1758   */\n      dup1\n        /* \"#utility.yul\":1746:1759   */\n      iszero\n        /* \"#utility.yul\":1739:1760   */\n      iszero\n        /* \"#utility.yul\":1732:1737   */\n      dup2\n        /* \"#utility.yul\":1729:1761   */\n      eq\n        /* \"#utility.yul\":1719:1721   */\n      tag_373\n      jumpi\n        /* \"#utility.yul\":1775:1776   */\n      0x00\n        /* \"#utility.yul\":1772:1773   */\n      dup1\n        /* \"#utility.yul\":1765:1777   */\n      revert\n        /* \"#utility.yul\":1814:1994   */\n    tag_90:\n        /* \"#utility.yul\":1873:1879   */\n      0x00\n        /* \"#utility.yul\":1926:1928   */\n      0x20\n        /* \"#utility.yul\":1914:1923   */\n      dup3\n        /* \"#utility.yul\":1905:1912   */\n      dup5\n        /* \"#utility.yul\":1901:1924   */\n      sub\n        /* \"#utility.yul\":1897:1929   */\n      slt\n        /* \"#utility.yul\":1894:1896   */\n      iszero\n      tag_392\n      jumpi\n        /* \"#utility.yul\":1942:1943   */\n      0x00\n        /* \"#utility.yul\":1939:1940   */\n      dup1\n        /* \"#utility.yul\":1932:1944   */\n      revert\n        /* \"#utility.yul\":1894:1896   */\n    tag_392:\n      pop\n        /* \"#utility.yul\":1965:1988   */\n      calldataload\n      swap2\n        /* \"#utility.yul\":1884:1994   */\n      swap1\n      pop\n      jump\t// out\n        /* \"#utility.yul\":1999:2183   */\n    tag_141:\n        /* \"#utility.yul\":2069:2075   */\n      0x00\n        /* \"#utility.yul\":2122:2124   */\n      0x20\n        /* \"#utility.yul\":2110:2119   */\n      dup3\n        /* \"#utility.yul\":2101:2108   */\n      dup5\n        /* \"#utility.yul\":2097:2120   */\n      sub\n        /* \"#utility.yul\":2093:2125   */\n      slt\n        /* \"#utility.yul\":2090:2092   */\n      iszero\n      tag_394\n      jumpi\n        /* \"#utility.yul\":2138:2139   */\n      0x00\n        /* \"#utility.yul\":2135:2136   */\n      dup1\n        /* \"#utility.yul\":2128:2140   */\n      revert\n        /* \"#utility.yul\":2090:2092   */\n    tag_394:\n      pop\n        /* \"#utility.yul\":2161:2177   */\n      mload\n      swap2\n        /* \"#utility.yul\":2080:2183   */\n      swap1\n      pop\n      jump\t// out\n        /* \"#utility.yul\":2188:2614   */\n    tag_351:\n        /* \"#utility.yul\":2317:2320   */\n      0x00\n        /* \"#utility.yul\":2355:2361   */\n      dup3\n        /* \"#utility.yul\":2349:2362   */\n      mload\n        /* \"#utility.yul\":2380:2381   */\n      0x00\n        /* \"#utility.yul\":2390:2519   */\n    tag_396:\n        /* \"#utility.yul\":2404:2410   */\n      dup2\n        /* \"#utility.yul\":2401:2402   */\n      dup2\n        /* \"#utility.yul\":2398:2411   */\n      lt\n        /* \"#utility.yul\":2390:2519   */\n      iszero\n      tag_398\n      jumpi\n        /* \"#utility.yul\":2502:2506   */\n      0x20\n        /* \"#utility.yul\":2486:2500   */\n      dup2\n      dup7\n      add\n        /* \"#utility.yul\":2482:2507   */\n      dup2\n      add\n        /* \"#utility.yul\":2476:2508   */\n      mload\n        /* \"#utility.yul\":2463:2474   */\n      dup6\n      dup4\n      add\n        /* \"#utility.yul\":2456:2509   */\n      mstore\n        /* \"#utility.yul\":2419:2431   */\n      add\n        /* \"#utility.yul\":2390:2519   */\n      jump(tag_396)\n    tag_398:\n        /* \"#utility.yul\":2537:2543   */\n      dup2\n        /* \"#utility.yul\":2534:2535   */\n      dup2\n        /* \"#utility.yul\":2531:2544   */\n      gt\n        /* \"#utility.yul\":2528:2530   */\n      iszero\n      tag_399\n      jumpi\n        /* \"#utility.yul\":2572:2573   */\n      0x00\n        /* \"#utility.yul\":2563:2569   */\n      dup3\n        /* \"#utility.yul\":2558:2561   */\n      dup6\n        /* \"#utility.yul\":2554:2570   */\n      add\n        /* \"#utility.yul\":2547:2574   */\n      mstore\n        /* \"#utility.yul\":2528:2530   */\n    tag_399:\n      pop\n        /* \"#utility.yul\":2592:2608   */\n      swap2\n      swap1\n      swap2\n      add\n      swap3\n        /* \"#utility.yul\":2325:2614   */\n      swap2\n      pop\n      pop\n      jump\t// out\n        /* \"#utility.yul\":10042:10397   */\n    tag_121:\n        /* \"#utility.yul\":10244:10246   */\n      0x20\n        /* \"#utility.yul\":10226:10247   */\n      dup1\n      dup3\n      mstore\n        /* \"#utility.yul\":10283:10285   */\n      0x1f\n        /* \"#utility.yul\":10263:10281   */\n      swap1\n      dup3\n      add\n        /* \"#utility.yul\":10256:10286   */\n      mstore\n        /* \"#utility.yul\":10322:10355   */\n      0x5265656e7472616e637947756172643a207265656e7472616e742063616c6c00\n        /* \"#utility.yul\":10317:10319   */\n      0x40\n        /* \"#utility.yul\":10302:10320   */\n      dup3\n      add\n        /* \"#utility.yul\":10295:10356   */\n      mstore\n        /* \"#utility.yul\":10388:10390   */\n      0x60\n        /* \"#utility.yul\":10373:10391   */\n      add\n      swap1\n        /* \"#utility.yul\":10216:10397   */\n      jump\t// out\n        /* \"#utility.yul\":12209:12337   */\n    tag_240:\n        /* \"#utility.yul\":12249:12252   */\n      0x00\n        /* \"#utility.yul\":12280:12281   */\n      dup3\n        /* \"#utility.yul\":12276:12282   */\n      not\n        /* \"#utility.yul\":12273:12274   */\n      dup3\n        /* \"#utility.yul\":12270:12283   */\n      gt\n        /* \"#utility.yul\":12267:12269   */\n      iszero\n      tag_428\n      jumpi\n        /* \"#utility.yul\":12286:12304   */\n      tag_428\n      tag_429\n      jump\t// in\n    tag_428:\n      pop\n        /* \"#utility.yul\":12322:12331   */\n      add\n      swap1\n        /* \"#utility.yul\":12257:12337   */\n      jump\t// out\n        /* \"#utility.yul\":12342:12559   */\n    tag_216:\n        /* \"#utility.yul\":12382:12383   */\n      0x00\n        /* \"#utility.yul\":12408:12409   */\n      dup3\n        /* \"#utility.yul\":12398:12400   */\n      tag_431\n      jumpi\n        /* \"#utility.yul\":12452:12462   */\n      0x4e487b71\n        /* \"#utility.yul\":12447:12450   */\n      0xe0\n        /* \"#utility.yul\":12443:12463   */\n      shl\n        /* \"#utility.yul\":12440:12441   */\n      0x00\n        /* \"#utility.yul\":12433:12464   */\n      mstore\n        /* \"#utility.yul\":12487:12491   */\n      0x12\n        /* \"#utility.yul\":12484:12485   */\n      0x04\n        /* \"#utility.yul\":12477:12492   */\n      mstore\n        /* \"#utility.yul\":12515:12519   */\n      0x24\n        /* \"#utility.yul\":12512:12513   */\n      0x00\n        /* \"#utility.yul\":12505:12520   */\n      revert\n        /* \"#utility.yul\":12398:12400   */\n    tag_431:\n      pop\n        /* \"#utility.yul\":12544:12553   */\n      div\n      swap1\n        /* \"#utility.yul\":12388:12559   */\n      jump\t// out\n        /* \"#utility.yul\":12564:12986   */\n    tag_432:\n        /* \"#utility.yul\":12653:12654   */\n      0x01\n        /* \"#utility.yul\":12696:12701   */\n      dup2\n        /* \"#utility.yul\":12653:12654   */\n      dup2\n        /* \"#utility.yul\":12710:12980   */\n    tag_434:\n        /* \"#utility.yul\":12731:12738   */\n      dup1\n        /* \"#utility.yul\":12721:12729   */\n      dup6\n        /* \"#utility.yul\":12718:12739   */\n      gt\n        /* \"#utility.yul\":12710:12980   */\n      iszero\n      tag_436\n      jumpi\n        /* \"#utility.yul\":12790:12794   */\n      dup2\n        /* \"#utility.yul\":12786:12787   */\n      0x00\n        /* \"#utility.yul\":12782:12788   */\n      not\n        /* \"#utility.yul\":12778:12795   */\n      div\n        /* \"#utility.yul\":12772:12776   */\n      dup3\n        /* \"#utility.yul\":12769:12796   */\n      gt\n        /* \"#utility.yul\":12766:12768   */\n      iszero\n      tag_438\n      jumpi\n        /* \"#utility.yul\":12799:12817   */\n      tag_438\n      tag_429\n      jump\t// in\n    tag_438:\n        /* \"#utility.yul\":12849:12856   */\n      dup1\n        /* \"#utility.yul\":12839:12847   */\n      dup6\n        /* \"#utility.yul\":12835:12857   */\n      and\n        /* \"#utility.yul\":12832:12834   */\n      iszero\n      tag_439\n      jumpi\n        /* \"#utility.yul\":12869:12885   */\n      swap2\n      dup2\n      mul\n      swap2\n        /* \"#utility.yul\":12832:12834   */\n    tag_439:\n        /* \"#utility.yul\":12948:12970   */\n      swap4\n      dup5\n      shr\n      swap4\n        /* \"#utility.yul\":12908:12923   */\n      swap1\n      dup1\n      mul\n      swap1\n        /* \"#utility.yul\":12710:12980   */\n      jump(tag_434)\n    tag_436:\n        /* \"#utility.yul\":12714:12717   */\n      pop\n        /* \"#utility.yul\":12628:12986   */\n      swap3\n      pop\n      swap3\n      swap1\n      pop\n      jump\t// out\n        /* \"#utility.yul\":12991:13122   */\n    tag_168:\n        /* \"#utility.yul\":13051:13056   */\n      0x00\n        /* \"#utility.yul\":13080:13116   */\n      tag_337\n        /* \"#utility.yul\":13107:13115   */\n      dup4\n        /* \"#utility.yul\":13101:13105   */\n      dup4\n        /* \"#utility.yul\":13176:13181   */\n      0x00\n        /* \"#utility.yul\":13206:13214   */\n      dup3\n        /* \"#utility.yul\":13196:13198   */\n      tag_444\n      jumpi\n      pop\n        /* \"#utility.yul\":13247:13248   */\n      0x01\n        /* \"#utility.yul\":13261:13266   */\n      jump(tag_336)\n        /* \"#utility.yul\":13196:13198   */\n    tag_444:\n        /* \"#utility.yul\":13295:13299   */\n      dup2\n        /* \"#utility.yul\":13285:13287   */\n      tag_445\n      jumpi\n      pop\n        /* \"#utility.yul\":13332:13333   */\n      0x00\n        /* \"#utility.yul\":13346:13351   */\n      jump(tag_336)\n        /* \"#utility.yul\":13285:13287   */\n    tag_445:\n        /* \"#utility.yul\":13377:13381   */\n      dup2\n        /* \"#utility.yul\":13395:13396   */\n      0x01\n        /* \"#utility.yul\":13390:13449   */\n      dup2\n      eq\n      tag_447\n      jumpi\n        /* \"#utility.yul\":13463:13464   */\n      0x02\n        /* \"#utility.yul\":13458:13588   */\n      dup2\n      eq\n      tag_448\n      jumpi\n        /* \"#utility.yul\":13370:13588   */\n      jump(tag_446)\n        /* \"#utility.yul\":13390:13449   */\n    tag_447:\n        /* \"#utility.yul\":13420:13421   */\n      0x01\n        /* \"#utility.yul\":13411:13421   */\n      swap2\n      pop\n        /* \"#utility.yul\":13434:13439   */\n      pop\n      jump(tag_336)\n        /* \"#utility.yul\":13458:13588   */\n    tag_448:\n        /* \"#utility.yul\":13495:13498   */\n      0xff\n        /* \"#utility.yul\":13485:13493   */\n      dup5\n        /* \"#utility.yul\":13482:13499   */\n      gt\n        /* \"#utility.yul\":13479:13481   */\n      iszero\n      tag_450\n      jumpi\n        /* \"#utility.yul\":13502:13520   */\n      tag_450\n      tag_429\n      jump\t// in\n    tag_450:\n      pop\n      pop\n        /* \"#utility.yul\":13558:13559   */\n      0x01\n        /* \"#utility.yul\":13544:13560   */\n      dup3\n      shl\n        /* \"#utility.yul\":13573:13578   */\n      jump(tag_336)\n        /* \"#utility.yul\":13370:13588   */\n    tag_446:\n      pop\n        /* \"#utility.yul\":13672:13674   */\n      0x20\n        /* \"#utility.yul\":13662:13670   */\n      dup4\n        /* \"#utility.yul\":13659:13675   */\n      lt\n        /* \"#utility.yul\":13653:13656   */\n      0x0133\n        /* \"#utility.yul\":13647:13651   */\n      dup4\n        /* \"#utility.yul\":13644:13657   */\n      lt\n        /* \"#utility.yul\":13640:13676   */\n      and\n        /* \"#utility.yul\":13634:13636   */\n      0x4e\n        /* \"#utility.yul\":13624:13632   */\n      dup5\n        /* \"#utility.yul\":13621:13637   */\n      lt\n        /* \"#utility.yul\":13616:13618   */\n      0x0b\n        /* \"#utility.yul\":13610:13614   */\n      dup5\n        /* \"#utility.yul\":13607:13619   */\n      lt\n        /* \"#utility.yul\":13603:13638   */\n      and\n        /* \"#utility.yul\":13600:13677   */\n      or\n        /* \"#utility.yul\":13597:13599   */\n      iszero\n      tag_451\n      jumpi\n      pop\n        /* \"#utility.yul\":13709:13728   */\n      dup2\n      dup2\n      exp\n        /* \"#utility.yul\":13741:13746   */\n      jump(tag_336)\n        /* \"#utility.yul\":13597:13599   */\n    tag_451:\n        /* \"#utility.yul\":13788:13822   */\n      tag_452\n        /* \"#utility.yul\":13813:13821   */\n      dup4\n        /* \"#utility.yul\":13807:13811   */\n      dup4\n        /* \"#utility.yul\":13788:13822   */\n      tag_432\n      jump\t// in\n    tag_452:\n        /* \"#utility.yul\":13858:13864   */\n      dup1\n        /* \"#utility.yul\":13854:13855   */\n      0x00\n        /* \"#utility.yul\":13850:13856   */\n      not\n        /* \"#utility.yul\":13846:13865   */\n      div\n        /* \"#utility.yul\":13837:13844   */\n      dup3\n        /* \"#utility.yul\":13834:13866   */\n      gt\n        /* \"#utility.yul\":13831:13833   */\n      iszero\n      tag_454\n      jumpi\n        /* \"#utility.yul\":13869:13887   */\n      tag_454\n      tag_429\n      jump\t// in\n    tag_454:\n        /* \"#utility.yul\":13907:13927   */\n      mul\n      swap4\n        /* \"#utility.yul\":13186:13933   */\n      swap3\n      pop\n      pop\n      pop\n      jump\t// out\n        /* \"#utility.yul\":13938:14106   */\n    tag_173:\n        /* \"#utility.yul\":13978:13985   */\n      0x00\n        /* \"#utility.yul\":14044:14045   */\n      dup2\n        /* \"#utility.yul\":14040:14041   */\n      0x00\n        /* \"#utility.yul\":14036:14042   */\n      not\n        /* \"#utility.yul\":14032:14046   */\n      div\n        /* \"#utility.yul\":14029:14030   */\n      dup4\n        /* \"#utility.yul\":14026:14047   */\n      gt\n        /* \"#utility.yul\":14021:14022   */\n      dup3\n        /* \"#utility.yul\":14014:14023   */\n      iszero\n        /* \"#utility.yul\":14007:14024   */\n      iszero\n        /* \"#utility.yul\":14003:14048   */\n      and\n        /* \"#utility.yul\":14000:14002   */\n      iszero\n      tag_457\n      jumpi\n        /* \"#utility.yul\":14051:14069   */\n      tag_457\n      tag_429\n      jump\t// in\n    tag_457:\n      pop\n        /* \"#utility.yul\":14091:14100   */\n      mul\n      swap1\n        /* \"#utility.yul\":13990:14106   */\n      jump\t// out\n        /* \"#utility.yul\":14111:14236   */\n    tag_226:\n        /* \"#utility.yul\":14151:14155   */\n      0x00\n        /* \"#utility.yul\":14179:14180   */\n      dup3\n        /* \"#utility.yul\":14176:14177   */\n      dup3\n        /* \"#utility.yul\":14173:14181   */\n      lt\n        /* \"#utility.yul\":14170:14172   */\n      iszero\n      tag_460\n      jumpi\n        /* \"#utility.yul\":14184:14202   */\n      tag_460\n      tag_429\n      jump\t// in\n    tag_460:\n      pop\n        /* \"#utility.yul\":14221:14230   */\n      sub\n      swap1\n        /* \"#utility.yul\":14160:14236   */\n      jump\t// out\n        /* \"#utility.yul\":14241:14376   */\n    tag_307:\n        /* \"#utility.yul\":14280:14283   */\n      0x00\n      not(0x00)\n        /* \"#utility.yul\":14301:14318   */\n      dup3\n      eq\n        /* \"#utility.yul\":14298:14300   */\n      iszero\n      tag_463\n      jumpi\n        /* \"#utility.yul\":14321:14339   */\n      tag_463\n      tag_429\n      jump\t// in\n    tag_463:\n      pop\n        /* \"#utility.yul\":14368:14369   */\n      0x01\n        /* \"#utility.yul\":14357:14370   */\n      add\n      swap1\n        /* \"#utility.yul\":14288:14376   */\n      jump\t// out\n        /* \"#utility.yul\":14381:14508   */\n    tag_429:\n        /* \"#utility.yul\":14442:14452   */\n      0x4e487b71\n        /* \"#utility.yul\":14437:14440   */\n      0xe0\n        /* \"#utility.yul\":14433:14453   */\n      shl\n        /* \"#utility.yul\":14430:14431   */\n      0x00\n        /* \"#utility.yul\":14423:14454   */\n      mstore\n        /* \"#utility.yul\":14473:14477   */\n      0x11\n        /* \"#utility.yul\":14470:14471   */\n      0x04\n        /* \"#utility.yul\":14463:14478   */\n      mstore\n        /* \"#utility.yul\":14497:14501   */\n      0x24\n        /* \"#utility.yul\":14494:14495   */\n      0x00\n        /* \"#utility.yul\":14487:14502   */\n      revert\n        /* \"#utility.yul\":14645:14772   */\n    tag_383:\n        /* \"#utility.yul\":14706:14716   */\n      0x4e487b71\n        /* \"#utility.yul\":14701:14704   */\n      0xe0\n        /* \"#utility.yul\":14697:14717   */\n      shl\n        /* \"#utility.yul\":14694:14695   */\n      0x00\n        /* \"#utility.yul\":14687:14718   */\n      mstore\n        /* \"#utility.yul\":14737:14741   */\n      0x41\n        /* \"#utility.yul\":14734:14735   */\n      0x04\n        /* \"#utility.yul\":14727:14742   */\n      mstore\n        /* \"#utility.yul\":14761:14765   */\n      0x24\n        /* \"#utility.yul\":14758:14759   */\n      0x00\n        /* \"#utility.yul\":14751:14766   */\n      revert\n        /* \"#utility.yul\":14777:14908   */\n    tag_374:\n      sub(shl(0xa0, 0x01), 0x01)\n        /* \"#utility.yul\":14852:14883   */\n      dup2\n      and\n        /* \"#utility.yul\":14842:14884   */\n      dup2\n      eq\n        /* \"#utility.yul\":14832:14834   */\n      tag_160\n      jumpi\n        /* \"#utility.yul\":14898:14899   */\n      0x00\n        /* \"#utility.yul\":14895:14896   */\n      dup1\n        /* \"#utility.yul\":14888:14900   */\n      revert\n\n    auxdata: 0xa2646970667358221220b4e51c0cc7eed49d0349c291238df926bb994c349570aea27404263c36e1eed164736f6c63430008050033\n}\n",
				"bytecode": {
					"linkReferences": {},
					"object": "608060405260016000556200001433620000a5565b6019805473c778417e063141139fce010982780140aa0cd5ab6001600160a01b031990911617905562000069601b736ccb41eeda5a073076f3e7dc1614c185b5fa41ed620000f7602090811b620013f617901c565b5062000099734f0b12bbf40fc182559822a5b1db6d34dbc3e016601b620000f760201b620013f61790919060201c565b506014601a5562000169565b600180546001600160a01b038381166001600160a01b0319831681179093556040519116919082907f8be0079c531659141344cd1fd0a4f28419497f9722a3daafe3b4186f6b6457e090600090a35050565b60006200010e836001600160a01b03841662000117565b90505b92915050565b6000818152600183016020526040812054620001605750815460018181018455600084815260208082209093018490558454848252828601909352604090209190915562000111565b50600062000111565b6119c780620001796000396000f3fe60806040526004361061011f5760003560e01c80638f1eae4c116100a0578063b6b55f2511610064578063b6b55f25146103d5578063cad5b0f7146103e8578063e2d3f4231461040d578063f2fde38b14610471578063f8b2cb4f1461049157600080fd5b80638f1eae4c146102fb57806395661e701461031b578063ab33985a14610330578063acfb235514610345578063ad5c4648146103b557600080fd5b806342d8a9da116100e757806342d8a9da1461026857806356c5f3491461027f578063715018a6146102ac578063861faf5f146102c15780638da5cb5b146102c957600080fd5b806312e5d0b91461012457806318856a2f146101595780631df4ccfc14610219578063200d2ed21461023d5780633b5ef2ad14610252575b600080fd5b34801561013057600080fd5b50600b54600c5461013f919082565b604080519283526020830191909152015b60405180910390f35b34801561016557600080fd5b50600d54600e54600f546010546011546012546013546014546015546016546017546018546101ad9b6001600160a01b039081169b81169a16989796959493929160ff16908c565b604080516001600160a01b039d8e1681529b8d1660208d015299909b16988a01989098526060890196909652608088019490945260a087019290925260c086015260e0850152610100840152610120830152151561014082015261016081019190915261018001610150565b34801561022557600080fd5b5061022f601d5481565b604051908152602001610150565b34801561024957600080fd5b5061022f6104b9565b34801561025e57600080fd5b5061022f601a5481565b34801561027457600080fd5b5061027d6104e2565b005b34801561028b57600080fd5b5061022f61029a36600461162b565b60036020526000908152604090205481565b3480156102b857600080fd5b5061027d610729565b61027d61078f565b3480156102d557600080fd5b506001546001600160a01b03165b6040516001600160a01b039091168152602001610150565b34801561030757600080fd5b5061027d61031636600461164f565b6107be565b34801561032757600080fd5b5061027d610b39565b34801561033c57600080fd5b5061027d610d23565b34801561035157600080fd5b5060045460055460065460075460085460095461037c95949392919060ff8082169161010090041687565b6040805197885260208801969096529486019390935260608501919091526080840152151560a0830152151560c082015260e001610150565b3480156103c157600080fd5b506019546102e3906001600160a01b031681565b61027d6103e3366004611736565b610f57565b3480156103f457600080fd5b506103fd61131c565b6040519015158152602001610150565b34801561041957600080fd5b5061045161042836600461162b565b600260208190526000918252604090912080546001820154928201546003909201549092919084565b604080519485526020850193909352918301526060820152608001610150565b34801561047d57600080fd5b5061027d61048c36600461162b565b61132e565b34801561049d57600080fd5b5061022f6104ac36600461162b565b6001600160a01b03163190565b6011546000904210156104cc5750600090565b6012544211156104dc5750600290565b50600190565b6002600054141561050e5760405162461bcd60e51b8152600401610505906117a3565b60405180910390fd5b6002600055600d546001600160a01b0316336001600160a01b03161461056b5760405162461bcd60e51b815260206004820152601260248201527127b7363c90383932b9b0b6329037bbb732b960711b6044820152606401610505565b6105736104b9565b6002146105b95760405162461bcd60e51b815260206004820152601460248201527353616c65206e6f7420796574207375636573737360601b6044820152606401610505565b60095460ff161561060c5760405162461bcd60e51b815260206004820152601d60248201527f4e6f7468696e6720666f72206f776e657220636c61696d20746f6b656e0000006044820152606401610505565b600e546040516370a0823160e01b81523060048201526000916001600160a01b0316906370a082319060240160206040518083038186803b15801561065057600080fd5b505afa158015610664573d6000803e3d6000fd5b505050506040513d601f19601f82011682018060405250810190610688919061174f565b600e54600d5460405163a9059cbb60e01b81526001600160a01b03918216600482015260248101849052929350169063a9059cbb90604401602060405180830381600087803b1580156106da57600080fd5b505af11580156106ee573d6000803e3d6000fd5b505050506040513d601f19601f820116820180604052508101906107129190611714565b50506009805460ff19166001908117909155600055565b6001546001600160a01b031633146107835760405162461bcd60e51b815260206004820181905260248201527f4f776e61626c653a2063616c6c6572206973206e6f7420746865206f776e65726044820152606401610505565b61078d6000611414565b565b60405133904780156108fc02916000818181858888f193505050501580156107bb573d6000803e3d6000fd5b50565b600d80546001600160a01b038087166001600160a01b031992831617909255600e80548684169083168117909155600f8054938616939092169290921790556040805163313ce56760e01b8152905163313ce56791600480820192602092909190829003018186803b15801561083357600080fd5b505afa158015610847573d6000803e3d6000fd5b505050506040513d601f19601f8201168201806040525081019061086b919061174f565b61087690600a611857565b815161088291906118ff565b6010556020808201516011556040808301516012556060830151601355600f54815163313ce56760e01b815291516001600160a01b039091169263313ce5679260048082019391829003018186803b1580156108dd57600080fd5b505afa1580156108f1573d6000803e3d6000fd5b505050506040513d601f19601f82011682018060405250810190610915919061174f565b61092090600a611857565b608082015161092f91906118ff565b60145560a081015160155560c0810151601655600f546040805163313ce56760e01b815290516001600160a01b039092169163313ce56791600480820192602092909190829003018186803b15801561098757600080fd5b505afa15801561099b573d6000803e3d6000fd5b505050506040513d601f19601f820116820180604052508101906109bf919061174f565b6109ca90600a611857565b60e08201516109d991906118ff565b600b55600f546040805163313ce56760e01b815290516001600160a01b039092169163313ce56791600480820192602092909190829003018186803b158015610a2157600080fd5b505afa158015610a35573d6000803e3d6000fd5b505050506040513d601f19601f82011682018060405250810190610a59919061174f565b610a6490600a611857565b610100820151610a7491906118ff565b600c55600f546019546017805460ff19166001600160a01b0392831692909316918214929092179091556040805163313ce56760e01b8152905163313ce56791600480820192602092909190829003018186803b158015610ad457600080fd5b505afa158015610ae8573d6000803e3d6000fd5b505050506040513d601f19601f82011682018060405250810190610b0c919061174f565b610b1790600a611857565b600b54601054610b2691611466565b610b3091906117f2565b60185550505050565b60026000541415610b5c5760405162461bcd60e51b8152600401610505906117a3565b6002600055610b696104b9565b600114610ba75760405162461bcd60e51b815260206004820152600c60248201526b53616c65207375636573737360a01b6044820152606401610505565b600754600454600091610bb99161191e565b11610c065760405162461bcd60e51b815260206004820152601b60248201527f416c6c20746f6b656e20686173206265656e20776974686472617700000000006044820152606401610505565b3360009081526002602052604090208054610c715760405162461bcd60e51b815260206004820152602560248201527f596f7520726566756e6420616c6c206f722068617665206e6f7420626f7567686044820152641d081e595d60da1b6064820152608401610505565b8054601554600091610c9c916103e891610c9691610c90908490611472565b90611466565b9061147e565b8254909150610cac90829061191e565b601d6000828254610cbd91906117da565b909155505060078054829190600090610cd79084906117da565b9091555050600080835560018301819055426002840155604051339183156108fc02918491818181858888f19350505050158015610d19573d6000803e3d6000fd5b5050600160005550565b60026000541415610d465760405162461bcd60e51b8152600401610505906117a3565b6002600055610d536104b9565b600114610d915760405162461bcd60e51b815260206004820152600c60248201526b53616c65207375636573737360a01b6044820152606401610505565b600654600554600091610da39161191e565b11610df05760405162461bcd60e51b815260206004820152601b60248201527f416c6c20746f6b656e20686173206265656e20776974686472617700000000006044820152606401610505565b3360009081526002602052604090206003810154600182015411610e625760405162461bcd60e51b8152602060048201526024808201527f596f7520636c61696d20616c6c206f722068617665206e6f7420626f75676874604482015263081e595d60e21b6064820152608401610505565b6000610e8c6103e8610c968460010154610c90600d600901546103e861147290919063ffffffff16565b90508060046002016000828254610ea391906117da565b9250508190555080826003016000828254610ebe91906117da565b909155505060008083556001830155426002830155600e5460405163a9059cbb60e01b8152336004820152602481018390526001600160a01b039091169063a9059cbb90604401602060405180830381600087803b158015610f1f57600080fd5b505af1158015610f33573d6000803e3d6000fd5b505050506040513d601f19601f82011682018060405250810190610d199190611714565b60026000541415610f7a5760405162461bcd60e51b8152600401610505906117a3565b6002600055610f876104b9565b600114610fc35760405162461bcd60e51b815260206004820152600a6024820152694e6f742061637469766560b01b6044820152606401610505565b336000908152600260205260408120601354909183918291906103e8908310156110225760405162461bcd60e51b815260206004820152601060248201526f4e6f7420656e6f7567682076616c756560801b6044820152606401610505565b6014548311156110655760405162461bcd60e51b815260206004820152600e60248201526d4f766572666c6f772076616c756560901b6044820152606401610505565b61106d61131c565b61109d5761108e81610c9685610c90601a548661147290919063ffffffff16565b925061109a838561191e565b91505b84546014546000916110ae9161191e565b6004546018549192506000916110c4919061191e565b905060008183116110d557826110d7565b815b90508086111561111b5760405162461bcd60e51b815260206004820152600f60248201526e53616c65206973207375636365737360881b6044820152606401610505565b60006111c2600d60020160009054906101000a90046001600160a01b03166001600160a01b031663313ce5676040518163ffffffff1660e01b815260040160206040518083038186803b15801561117157600080fd5b505afa158015611185573d6000803e3d6000fd5b505050506040513d601f19601f820116820180604052508101906111a9919061174f565b6111b490600a611857565b601054610c96908a90611466565b9050878960000160008282546111d891906117da565b92505081905550808960010160008282546111f391906117da565b90915550506004805488919060009061120d9084906117da565b9091555050600580548291906000906112279084906117da565b90915550506008805490600061123c83611935565b909155505033600090815260036020526040812080548892906112609084906117da565b9250508190555085601d600082825461127991906117da565b909155505060175460ff16801561129857503461129687896117da565b105b156112e057336108fc876112ac8a3461191e565b6112b6919061191e565b6040518115909202916000818181858888f193505050501580156112de573d6000803e3d6000fd5b505b60175460ff1661130b57600f5461130b906001600160a01b031633306113068a8c6117da565b61148a565b505060016000555050505050505050565b6000611329601b336115ba565b905090565b6001546001600160a01b031633146113885760405162461bcd60e51b815260206004820181905260248201527f4f776e61626c653a2063616c6c6572206973206e6f7420746865206f776e65726044820152606401610505565b6001600160a01b0381166113ed5760405162461bcd60e51b815260206004820152602660248201527f4f776e61626c653a206e6577206f776e657220697320746865207a65726f206160448201526564647265737360d01b6064820152608401610505565b6107bb81611414565b600061140b836001600160a01b0384166115dc565b90505b92915050565b600180546001600160a01b038381166001600160a01b0319831681179093556040519116919082907f8be0079c531659141344cd1fd0a4f28419497f9722a3daafe3b4186f6b6457e090600090a35050565b600061140b82846118ff565b600061140b828461191e565b600061140b82846117f2565b604080516001600160a01b0385811660248301528481166044830152606480830185905283518084039091018152608490920183526020820180516001600160e01b03166323b872dd60e01b17905291516000928392908816916114ee9190611768565b6000604051808303816000865af19150503d806000811461152b576040519150601f19603f3d011682016040523d82523d6000602084013e611530565b606091505b509150915081801561155a57508051158061155a57508080602001905181019061155a9190611714565b6115b25760405162461bcd60e51b8152602060048201526024808201527f5472616e7366657248656c7065723a205452414e534645525f46524f4d5f46416044820152631253115160e21b6064820152608401610505565b505050505050565b6001600160a01b0381166000908152600183016020526040812054151561140b565b60008181526001830160205260408120546116235750815460018181018455600084815260208082209093018490558454848252828601909352604090209190915561140e565b50600061140e565b60006020828403121561163d57600080fd5b81356116488161197c565b9392505050565b60008060008061018080868803121561166757600080fd5b85356116728161197c565b94506020868101356116838161197c565b945060408701356116938161197c565b9350607f870188136116a457600080fd5b604051610120810181811067ffffffffffffffff821117156116c8576116c8611966565b6040528060608901848a018b10156116df57600080fd5b600094505b60098510156117035780358252600194909401939083019083016116e4565b505080935050505092959194509250565b60006020828403121561172657600080fd5b8151801515811461164857600080fd5b60006020828403121561174857600080fd5b5035919050565b60006020828403121561176157600080fd5b5051919050565b6000825160005b81811015611789576020818601810151858301520161176f565b81811115611798576000828501525b509190910192915050565b6020808252601f908201527f5265656e7472616e637947756172643a207265656e7472616e742063616c6c00604082015260600190565b600082198211156117ed576117ed611950565b500190565b60008261180f57634e487b7160e01b600052601260045260246000fd5b500490565b600181815b8085111561184f57816000190482111561183557611835611950565b8085161561184257918102915b93841c9390800290611819565b509250929050565b600061140b838360008261186d5750600161140e565b8161187a5750600061140e565b8160018114611890576002811461189a576118b6565b600191505061140e565b60ff8411156118ab576118ab611950565b50506001821b61140e565b5060208310610133831016604e8410600b84101617156118d9575081810a61140e565b6118e38383611814565b80600019048211156118f7576118f7611950565b029392505050565b600081600019048311821515161561191957611919611950565b500290565b60008282101561193057611930611950565b500390565b600060001982141561194957611949611950565b5060010190565b634e487b7160e01b600052601160045260246000fd5b634e487b7160e01b600052604160045260246000fd5b6001600160a01b03811681146107bb57600080fdfea2646970667358221220b4e51c0cc7eed49d0349c291238df926bb994c349570aea27404263c36e1eed164736f6c63430008050033",
					"opcodes": "PUSH1 0x80 PUSH1 0x40 MSTORE PUSH1 0x1 PUSH1 0x0 SSTORE PUSH3 0x14 CALLER PUSH3 0xA5 JUMP JUMPDEST PUSH1 0x19 DUP1 SLOAD PUSH20 0xC778417E063141139FCE010982780140AA0CD5AB PUSH1 0x1 PUSH1 0x1 PUSH1 0xA0 SHL SUB NOT SWAP1 SWAP2 AND OR SWAP1 SSTORE PUSH3 0x69 PUSH1 0x1B PUSH20 0x6CCB41EEDA5A073076F3E7DC1614C185B5FA41ED PUSH3 0xF7 PUSH1 0x20 SWAP1 DUP2 SHL PUSH3 0x13F6 OR SWAP1 SHR JUMP JUMPDEST POP PUSH3 0x99 PUSH20 0x4F0B12BBF40FC182559822A5B1DB6D34DBC3E016 PUSH1 0x1B PUSH3 0xF7 PUSH1 0x20 SHL PUSH3 0x13F6 OR SWAP1 SWAP2 SWAP1 PUSH1 0x20 SHR JUMP JUMPDEST POP PUSH1 0x14 PUSH1 0x1A SSTORE PUSH3 0x169 JUMP JUMPDEST PUSH1 0x1 DUP1 SLOAD PUSH1 0x1 PUSH1 0x1 PUSH1 0xA0 SHL SUB DUP4 DUP2 AND PUSH1 0x1 PUSH1 0x1 PUSH1 0xA0 SHL SUB NOT DUP4 AND DUP2 OR SWAP1 SWAP4 SSTORE PUSH1 0x40 MLOAD SWAP2 AND SWAP2 SWAP1 DUP3 SWAP1 PUSH32 0x8BE0079C531659141344CD1FD0A4F28419497F9722A3DAAFE3B4186F6B6457E0 SWAP1 PUSH1 0x0 SWAP1 LOG3 POP POP JUMP JUMPDEST PUSH1 0x0 PUSH3 0x10E DUP4 PUSH1 0x1 PUSH1 0x1 PUSH1 0xA0 SHL SUB DUP5 AND PUSH3 0x117 JUMP JUMPDEST SWAP1 POP JUMPDEST SWAP3 SWAP2 POP POP JUMP JUMPDEST PUSH1 0x0 DUP2 DUP2 MSTORE PUSH1 0x1 DUP4 ADD PUSH1 0x20 MSTORE PUSH1 0x40 DUP2 KECCAK256 SLOAD PUSH3 0x160 JUMPI POP DUP2 SLOAD PUSH1 0x1 DUP2 DUP2 ADD DUP5 SSTORE PUSH1 0x0 DUP5 DUP2 MSTORE PUSH1 0x20 DUP1 DUP3 KECCAK256 SWAP1 SWAP4 ADD DUP5 SWAP1 SSTORE DUP5 SLOAD DUP5 DUP3 MSTORE DUP3 DUP7 ADD SWAP1 SWAP4 MSTORE PUSH1 0x40 SWAP1 KECCAK256 SWAP2 SWAP1 SWAP2 SSTORE PUSH3 0x111 JUMP JUMPDEST POP PUSH1 0x0 PUSH3 0x111 JUMP JUMPDEST PUSH2 0x19C7 DUP1 PUSH3 0x179 PUSH1 0x0 CODECOPY PUSH1 0x0 RETURN INVALID PUSH1 0x80 PUSH1 0x40 MSTORE PUSH1 0x4 CALLDATASIZE LT PUSH2 0x11F JUMPI PUSH1 0x0 CALLDATALOAD PUSH1 0xE0 SHR DUP1 PUSH4 0x8F1EAE4C GT PUSH2 0xA0 JUMPI DUP1 PUSH4 0xB6B55F25 GT PUSH2 0x64 JUMPI DUP1 PUSH4 0xB6B55F25 EQ PUSH2 0x3D5 JUMPI DUP1 PUSH4 0xCAD5B0F7 EQ PUSH2 0x3E8 JUMPI DUP1 PUSH4 0xE2D3F423 EQ PUSH2 0x40D JUMPI DUP1 PUSH4 0xF2FDE38B EQ PUSH2 0x471 JUMPI DUP1 PUSH4 0xF8B2CB4F EQ PUSH2 0x491 JUMPI PUSH1 0x0 DUP1 REVERT JUMPDEST DUP1 PUSH4 0x8F1EAE4C EQ PUSH2 0x2FB JUMPI DUP1 PUSH4 0x95661E70 EQ PUSH2 0x31B JUMPI DUP1 PUSH4 0xAB33985A EQ PUSH2 0x330 JUMPI DUP1 PUSH4 0xACFB2355 EQ PUSH2 0x345 JUMPI DUP1 PUSH4 0xAD5C4648 EQ PUSH2 0x3B5 JUMPI PUSH1 0x0 DUP1 REVERT JUMPDEST DUP1 PUSH4 0x42D8A9DA GT PUSH2 0xE7 JUMPI DUP1 PUSH4 0x42D8A9DA EQ PUSH2 0x268 JUMPI DUP1 PUSH4 0x56C5F349 EQ PUSH2 0x27F JUMPI DUP1 PUSH4 0x715018A6 EQ PUSH2 0x2AC JUMPI DUP1 PUSH4 0x861FAF5F EQ PUSH2 0x2C1 JUMPI DUP1 PUSH4 0x8DA5CB5B EQ PUSH2 0x2C9 JUMPI PUSH1 0x0 DUP1 REVERT JUMPDEST DUP1 PUSH4 0x12E5D0B9 EQ PUSH2 0x124 JUMPI DUP1 PUSH4 0x18856A2F EQ PUSH2 0x159 JUMPI DUP1 PUSH4 0x1DF4CCFC EQ PUSH2 0x219 JUMPI DUP1 PUSH4 0x200D2ED2 EQ PUSH2 0x23D JUMPI DUP1 PUSH4 0x3B5EF2AD EQ PUSH2 0x252 JUMPI JUMPDEST PUSH1 0x0 DUP1 REVERT JUMPDEST CALLVALUE DUP1 ISZERO PUSH2 0x130 JUMPI PUSH1 0x0 DUP1 REVERT JUMPDEST POP PUSH1 0xB SLOAD PUSH1 0xC SLOAD PUSH2 0x13F SWAP2 SWAP1 DUP3 JUMP JUMPDEST PUSH1 0x40 DUP1 MLOAD SWAP3 DUP4 MSTORE PUSH1 0x20 DUP4 ADD SWAP2 SWAP1 SWAP2 MSTORE ADD JUMPDEST PUSH1 0x40 MLOAD DUP1 SWAP2 SUB SWAP1 RETURN JUMPDEST CALLVALUE DUP1 ISZERO PUSH2 0x165 JUMPI PUSH1 0x0 DUP1 REVERT JUMPDEST POP PUSH1 0xD SLOAD PUSH1 0xE SLOAD PUSH1 0xF SLOAD PUSH1 0x10 SLOAD PUSH1 0x11 SLOAD PUSH1 0x12 SLOAD PUSH1 0x13 SLOAD PUSH1 0x14 SLOAD PUSH1 0x15 SLOAD PUSH1 0x16 SLOAD PUSH1 0x17 SLOAD PUSH1 0x18 SLOAD PUSH2 0x1AD SWAP12 PUSH1 0x1 PUSH1 0x1 PUSH1 0xA0 SHL SUB SWAP1 DUP2 AND SWAP12 DUP2 AND SWAP11 AND SWAP9 SWAP8 SWAP7 SWAP6 SWAP5 SWAP4 SWAP3 SWAP2 PUSH1 0xFF AND SWAP1 DUP13 JUMP JUMPDEST PUSH1 0x40 DUP1 MLOAD PUSH1 0x1 PUSH1 0x1 PUSH1 0xA0 SHL SUB SWAP14 DUP15 AND DUP2 MSTORE SWAP12 DUP14 AND PUSH1 0x20 DUP14 ADD MSTORE SWAP10 SWAP1 SWAP12 AND SWAP9 DUP11 ADD SWAP9 SWAP1 SWAP9 MSTORE PUSH1 0x60 DUP10 ADD SWAP7 SWAP1 SWAP7 MSTORE PUSH1 0x80 DUP9 ADD SWAP5 SWAP1 SWAP5 MSTORE PUSH1 0xA0 DUP8 ADD SWAP3 SWAP1 SWAP3 MSTORE PUSH1 0xC0 DUP7 ADD MSTORE PUSH1 0xE0 DUP6 ADD MSTORE PUSH2 0x100 DUP5 ADD MSTORE PUSH2 0x120 DUP4 ADD MSTORE ISZERO ISZERO PUSH2 0x140 DUP3 ADD MSTORE PUSH2 0x160 DUP2 ADD SWAP2 SWAP1 SWAP2 MSTORE PUSH2 0x180 ADD PUSH2 0x150 JUMP JUMPDEST CALLVALUE DUP1 ISZERO PUSH2 0x225 JUMPI PUSH1 0x0 DUP1 REVERT JUMPDEST POP PUSH2 0x22F PUSH1 0x1D SLOAD DUP2 JUMP JUMPDEST PUSH1 0x40 MLOAD SWAP1 DUP2 MSTORE PUSH1 0x20 ADD PUSH2 0x150 JUMP JUMPDEST CALLVALUE DUP1 ISZERO PUSH2 0x249 JUMPI PUSH1 0x0 DUP1 REVERT JUMPDEST POP PUSH2 0x22F PUSH2 0x4B9 JUMP JUMPDEST CALLVALUE DUP1 ISZERO PUSH2 0x25E JUMPI PUSH1 0x0 DUP1 REVERT JUMPDEST POP PUSH2 0x22F PUSH1 0x1A SLOAD DUP2 JUMP JUMPDEST CALLVALUE DUP1 ISZERO PUSH2 0x274 JUMPI PUSH1 0x0 DUP1 REVERT JUMPDEST POP PUSH2 0x27D PUSH2 0x4E2 JUMP JUMPDEST STOP JUMPDEST CALLVALUE DUP1 ISZERO PUSH2 0x28B JUMPI PUSH1 0x0 DUP1 REVERT JUMPDEST POP PUSH2 0x22F PUSH2 0x29A CALLDATASIZE PUSH1 0x4 PUSH2 0x162B JUMP JUMPDEST PUSH1 0x3 PUSH1 0x20 MSTORE PUSH1 0x0 SWAP1 DUP2 MSTORE PUSH1 0x40 SWAP1 KECCAK256 SLOAD DUP2 JUMP JUMPDEST CALLVALUE DUP1 ISZERO PUSH2 0x2B8 JUMPI PUSH1 0x0 DUP1 REVERT JUMPDEST POP PUSH2 0x27D PUSH2 0x729 JUMP JUMPDEST PUSH2 0x27D PUSH2 0x78F JUMP JUMPDEST CALLVALUE DUP1 ISZERO PUSH2 0x2D5 JUMPI PUSH1 0x0 DUP1 REVERT JUMPDEST POP PUSH1 0x1 SLOAD PUSH1 0x1 PUSH1 0x1 PUSH1 0xA0 SHL SUB AND JUMPDEST PUSH1 0x40 MLOAD PUSH1 0x1 PUSH1 0x1 PUSH1 0xA0 SHL SUB SWAP1 SWAP2 AND DUP2 MSTORE PUSH1 0x20 ADD PUSH2 0x150 JUMP JUMPDEST CALLVALUE DUP1 ISZERO PUSH2 0x307 JUMPI PUSH1 0x0 DUP1 REVERT JUMPDEST POP PUSH2 0x27D PUSH2 0x316 CALLDATASIZE PUSH1 0x4 PUSH2 0x164F JUMP JUMPDEST PUSH2 0x7BE JUMP JUMPDEST CALLVALUE DUP1 ISZERO PUSH2 0x327 JUMPI PUSH1 0x0 DUP1 REVERT JUMPDEST POP PUSH2 0x27D PUSH2 0xB39 JUMP JUMPDEST CALLVALUE DUP1 ISZERO PUSH2 0x33C JUMPI PUSH1 0x0 DUP1 REVERT JUMPDEST POP PUSH2 0x27D PUSH2 0xD23 JUMP JUMPDEST CALLVALUE DUP1 ISZERO PUSH2 0x351 JUMPI PUSH1 0x0 DUP1 REVERT JUMPDEST POP PUSH1 0x4 SLOAD PUSH1 0x5 SLOAD PUSH1 0x6 SLOAD PUSH1 0x7 SLOAD PUSH1 0x8 SLOAD PUSH1 0x9 SLOAD PUSH2 0x37C SWAP6 SWAP5 SWAP4 SWAP3 SWAP2 SWAP1 PUSH1 0xFF DUP1 DUP3 AND SWAP2 PUSH2 0x100 SWAP1 DIV AND DUP8 JUMP JUMPDEST PUSH1 0x40 DUP1 MLOAD SWAP8 DUP9 MSTORE PUSH1 0x20 DUP9 ADD SWAP7 SWAP1 SWAP7 MSTORE SWAP5 DUP7 ADD SWAP4 SWAP1 SWAP4 MSTORE PUSH1 0x60 DUP6 ADD SWAP2 SWAP1 SWAP2 MSTORE PUSH1 0x80 DUP5 ADD MSTORE ISZERO ISZERO PUSH1 0xA0 DUP4 ADD MSTORE ISZERO ISZERO PUSH1 0xC0 DUP3 ADD MSTORE PUSH1 0xE0 ADD PUSH2 0x150 JUMP JUMPDEST CALLVALUE DUP1 ISZERO PUSH2 0x3C1 JUMPI PUSH1 0x0 DUP1 REVERT JUMPDEST POP PUSH1 0x19 SLOAD PUSH2 0x2E3 SWAP1 PUSH1 0x1 PUSH1 0x1 PUSH1 0xA0 SHL SUB AND DUP2 JUMP JUMPDEST PUSH2 0x27D PUSH2 0x3E3 CALLDATASIZE PUSH1 0x4 PUSH2 0x1736 JUMP JUMPDEST PUSH2 0xF57 JUMP JUMPDEST CALLVALUE DUP1 ISZERO PUSH2 0x3F4 JUMPI PUSH1 0x0 DUP1 REVERT JUMPDEST POP PUSH2 0x3FD PUSH2 0x131C JUMP JUMPDEST PUSH1 0x40 MLOAD SWAP1 ISZERO ISZERO DUP2 MSTORE PUSH1 0x20 ADD PUSH2 0x150 JUMP JUMPDEST CALLVALUE DUP1 ISZERO PUSH2 0x419 JUMPI PUSH1 0x0 DUP1 REVERT JUMPDEST POP PUSH2 0x451 PUSH2 0x428 CALLDATASIZE PUSH1 0x4 PUSH2 0x162B JUMP JUMPDEST PUSH1 0x2 PUSH1 0x20 DUP2 SWAP1 MSTORE PUSH1 0x0 SWAP2 DUP3 MSTORE PUSH1 0x40 SWAP1 SWAP2 KECCAK256 DUP1 SLOAD PUSH1 0x1 DUP3 ADD SLOAD SWAP3 DUP3 ADD SLOAD PUSH1 0x3 SWAP1 SWAP3 ADD SLOAD SWAP1 SWAP3 SWAP2 SWAP1 DUP5 JUMP JUMPDEST PUSH1 0x40 DUP1 MLOAD SWAP5 DUP6 MSTORE PUSH1 0x20 DUP6 ADD SWAP4 SWAP1 SWAP4 MSTORE SWAP2 DUP4 ADD MSTORE PUSH1 0x60 DUP3 ADD MSTORE PUSH1 0x80 ADD PUSH2 0x150 JUMP JUMPDEST CALLVALUE DUP1 ISZERO PUSH2 0x47D JUMPI PUSH1 0x0 DUP1 REVERT JUMPDEST POP PUSH2 0x27D PUSH2 0x48C CALLDATASIZE PUSH1 0x4 PUSH2 0x162B JUMP JUMPDEST PUSH2 0x132E JUMP JUMPDEST CALLVALUE DUP1 ISZERO PUSH2 0x49D JUMPI PUSH1 0x0 DUP1 REVERT JUMPDEST POP PUSH2 0x22F PUSH2 0x4AC CALLDATASIZE PUSH1 0x4 PUSH2 0x162B JUMP JUMPDEST PUSH1 0x1 PUSH1 0x1 PUSH1 0xA0 SHL SUB AND BALANCE SWAP1 JUMP JUMPDEST PUSH1 0x11 SLOAD PUSH1 0x0 SWAP1 TIMESTAMP LT ISZERO PUSH2 0x4CC JUMPI POP PUSH1 0x0 SWAP1 JUMP JUMPDEST PUSH1 0x12 SLOAD TIMESTAMP GT ISZERO PUSH2 0x4DC JUMPI POP PUSH1 0x2 SWAP1 JUMP JUMPDEST POP PUSH1 0x1 SWAP1 JUMP JUMPDEST PUSH1 0x2 PUSH1 0x0 SLOAD EQ ISZERO PUSH2 0x50E JUMPI PUSH1 0x40 MLOAD PUSH3 0x461BCD PUSH1 0xE5 SHL DUP2 MSTORE PUSH1 0x4 ADD PUSH2 0x505 SWAP1 PUSH2 0x17A3 JUMP JUMPDEST PUSH1 0x40 MLOAD DUP1 SWAP2 SUB SWAP1 REVERT JUMPDEST PUSH1 0x2 PUSH1 0x0 SSTORE PUSH1 0xD SLOAD PUSH1 0x1 PUSH1 0x1 PUSH1 0xA0 SHL SUB AND CALLER PUSH1 0x1 PUSH1 0x1 PUSH1 0xA0 SHL SUB AND EQ PUSH2 0x56B JUMPI PUSH1 0x40 MLOAD PUSH3 0x461BCD PUSH1 0xE5 SHL DUP2 MSTORE PUSH1 0x20 PUSH1 0x4 DUP3 ADD MSTORE PUSH1 0x12 PUSH1 0x24 DUP3 ADD MSTORE PUSH18 0x27B7363C90383932B9B0B6329037BBB732B9 PUSH1 0x71 SHL PUSH1 0x44 DUP3 ADD MSTORE PUSH1 0x64 ADD PUSH2 0x505 JUMP JUMPDEST PUSH2 0x573 PUSH2 0x4B9 JUMP JUMPDEST PUSH1 0x2 EQ PUSH2 0x5B9 JUMPI PUSH1 0x40 MLOAD PUSH3 0x461BCD PUSH1 0xE5 SHL DUP2 MSTORE PUSH1 0x20 PUSH1 0x4 DUP3 ADD MSTORE PUSH1 0x14 PUSH1 0x24 DUP3 ADD MSTORE PUSH20 0x53616C65206E6F74207965742073756365737373 PUSH1 0x60 SHL PUSH1 0x44 DUP3 ADD MSTORE PUSH1 0x64 ADD PUSH2 0x505 JUMP JUMPDEST PUSH1 0x9 SLOAD PUSH1 0xFF AND ISZERO PUSH2 0x60C JUMPI PUSH1 0x40 MLOAD PUSH3 0x461BCD PUSH1 0xE5 SHL DUP2 MSTORE PUSH1 0x20 PUSH1 0x4 DUP3 ADD MSTORE PUSH1 0x1D PUSH1 0x24 DUP3 ADD MSTORE PUSH32 0x4E6F7468696E6720666F72206F776E657220636C61696D20746F6B656E000000 PUSH1 0x44 DUP3 ADD MSTORE PUSH1 0x64 ADD PUSH2 0x505 JUMP JUMPDEST PUSH1 0xE SLOAD PUSH1 0x40 MLOAD PUSH4 0x70A08231 PUSH1 0xE0 SHL DUP2 MSTORE ADDRESS PUSH1 0x4 DUP3 ADD MSTORE PUSH1 0x0 SWAP2 PUSH1 0x1 PUSH1 0x1 PUSH1 0xA0 SHL SUB AND SWAP1 PUSH4 0x70A08231 SWAP1 PUSH1 0x24 ADD PUSH1 0x20 PUSH1 0x40 MLOAD DUP1 DUP4 SUB DUP2 DUP7 DUP1 EXTCODESIZE ISZERO DUP1 ISZERO PUSH2 0x650 JUMPI PUSH1 0x0 DUP1 REVERT JUMPDEST POP GAS STATICCALL ISZERO DUP1 ISZERO PUSH2 0x664 JUMPI RETURNDATASIZE PUSH1 0x0 DUP1 RETURNDATACOPY RETURNDATASIZE PUSH1 0x0 REVERT JUMPDEST POP POP POP POP PUSH1 0x40 MLOAD RETURNDATASIZE PUSH1 0x1F NOT PUSH1 0x1F DUP3 ADD AND DUP3 ADD DUP1 PUSH1 0x40 MSTORE POP DUP2 ADD SWAP1 PUSH2 0x688 SWAP2 SWAP1 PUSH2 0x174F JUMP JUMPDEST PUSH1 0xE SLOAD PUSH1 0xD SLOAD PUSH1 0x40 MLOAD PUSH4 0xA9059CBB PUSH1 0xE0 SHL DUP2 MSTORE PUSH1 0x1 PUSH1 0x1 PUSH1 0xA0 SHL SUB SWAP2 DUP3 AND PUSH1 0x4 DUP3 ADD MSTORE PUSH1 0x24 DUP2 ADD DUP5 SWAP1 MSTORE SWAP3 SWAP4 POP AND SWAP1 PUSH4 0xA9059CBB SWAP1 PUSH1 0x44 ADD PUSH1 0x20 PUSH1 0x40 MLOAD DUP1 DUP4 SUB DUP2 PUSH1 0x0 DUP8 DUP1 EXTCODESIZE ISZERO DUP1 ISZERO PUSH2 0x6DA JUMPI PUSH1 0x0 DUP1 REVERT JUMPDEST POP GAS CALL ISZERO DUP1 ISZERO PUSH2 0x6EE JUMPI RETURNDATASIZE PUSH1 0x0 DUP1 RETURNDATACOPY RETURNDATASIZE PUSH1 0x0 REVERT JUMPDEST POP POP POP POP PUSH1 0x40 MLOAD RETURNDATASIZE PUSH1 0x1F NOT PUSH1 0x1F DUP3 ADD AND DUP3 ADD DUP1 PUSH1 0x40 MSTORE POP DUP2 ADD SWAP1 PUSH2 0x712 SWAP2 SWAP1 PUSH2 0x1714 JUMP JUMPDEST POP POP PUSH1 0x9 DUP1 SLOAD PUSH1 0xFF NOT AND PUSH1 0x1 SWAP1 DUP2 OR SWAP1 SWAP2 SSTORE PUSH1 0x0 SSTORE JUMP JUMPDEST PUSH1 0x1 SLOAD PUSH1 0x1 PUSH1 0x1 PUSH1 0xA0 SHL SUB AND CALLER EQ PUSH2 0x783 JUMPI PUSH1 0x40 MLOAD PUSH3 0x461BCD PUSH1 0xE5 SHL DUP2 MSTORE PUSH1 0x20 PUSH1 0x4 DUP3 ADD DUP2 SWAP1 MSTORE PUSH1 0x24 DUP3 ADD MSTORE PUSH32 0x4F776E61626C653A2063616C6C6572206973206E6F7420746865206F776E6572 PUSH1 0x44 DUP3 ADD MSTORE PUSH1 0x64 ADD PUSH2 0x505 JUMP JUMPDEST PUSH2 0x78D PUSH1 0x0 PUSH2 0x1414 JUMP JUMPDEST JUMP JUMPDEST PUSH1 0x40 MLOAD CALLER SWAP1 SELFBALANCE DUP1 ISZERO PUSH2 0x8FC MUL SWAP2 PUSH1 0x0 DUP2 DUP2 DUP2 DUP6 DUP9 DUP9 CALL SWAP4 POP POP POP POP ISZERO DUP1 ISZERO PUSH2 0x7BB JUMPI RETURNDATASIZE PUSH1 0x0 DUP1 RETURNDATACOPY RETURNDATASIZE PUSH1 0x0 REVERT JUMPDEST POP JUMP JUMPDEST PUSH1 0xD DUP1 SLOAD PUSH1 0x1 PUSH1 0x1 PUSH1 0xA0 SHL SUB DUP1 DUP8 AND PUSH1 0x1 PUSH1 0x1 PUSH1 0xA0 SHL SUB NOT SWAP3 DUP4 AND OR SWAP1 SWAP3 SSTORE PUSH1 0xE DUP1 SLOAD DUP7 DUP5 AND SWAP1 DUP4 AND DUP2 OR SWAP1 SWAP2 SSTORE PUSH1 0xF DUP1 SLOAD SWAP4 DUP7 AND SWAP4 SWAP1 SWAP3 AND SWAP3 SWAP1 SWAP3 OR SWAP1 SSTORE PUSH1 0x40 DUP1 MLOAD PUSH4 0x313CE567 PUSH1 0xE0 SHL DUP2 MSTORE SWAP1 MLOAD PUSH4 0x313CE567 SWAP2 PUSH1 0x4 DUP1 DUP3 ADD SWAP3 PUSH1 0x20 SWAP3 SWAP1 SWAP2 SWAP1 DUP3 SWAP1 SUB ADD DUP2 DUP7 DUP1 EXTCODESIZE ISZERO DUP1 ISZERO PUSH2 0x833 JUMPI PUSH1 0x0 DUP1 REVERT JUMPDEST POP GAS STATICCALL ISZERO DUP1 ISZERO PUSH2 0x847 JUMPI RETURNDATASIZE PUSH1 0x0 DUP1 RETURNDATACOPY RETURNDATASIZE PUSH1 0x0 REVERT JUMPDEST POP POP POP POP PUSH1 0x40 MLOAD RETURNDATASIZE PUSH1 0x1F NOT PUSH1 0x1F DUP3 ADD AND DUP3 ADD DUP1 PUSH1 0x40 MSTORE POP DUP2 ADD SWAP1 PUSH2 0x86B SWAP2 SWAP1 PUSH2 0x174F JUMP JUMPDEST PUSH2 0x876 SWAP1 PUSH1 0xA PUSH2 0x1857 JUMP JUMPDEST DUP2 MLOAD PUSH2 0x882 SWAP2 SWAP1 PUSH2 0x18FF JUMP JUMPDEST PUSH1 0x10 SSTORE PUSH1 0x20 DUP1 DUP3 ADD MLOAD PUSH1 0x11 SSTORE PUSH1 0x40 DUP1 DUP4 ADD MLOAD PUSH1 0x12 SSTORE PUSH1 0x60 DUP4 ADD MLOAD PUSH1 0x13 SSTORE PUSH1 0xF SLOAD DUP2 MLOAD PUSH4 0x313CE567 PUSH1 0xE0 SHL DUP2 MSTORE SWAP2 MLOAD PUSH1 0x1 PUSH1 0x1 PUSH1 0xA0 SHL SUB SWAP1 SWAP2 AND SWAP3 PUSH4 0x313CE567 SWAP3 PUSH1 0x4 DUP1 DUP3 ADD SWAP4 SWAP2 DUP3 SWAP1 SUB ADD DUP2 DUP7 DUP1 EXTCODESIZE ISZERO DUP1 ISZERO PUSH2 0x8DD JUMPI PUSH1 0x0 DUP1 REVERT JUMPDEST POP GAS STATICCALL ISZERO DUP1 ISZERO PUSH2 0x8F1 JUMPI RETURNDATASIZE PUSH1 0x0 DUP1 RETURNDATACOPY RETURNDATASIZE PUSH1 0x0 REVERT JUMPDEST POP POP POP POP PUSH1 0x40 MLOAD RETURNDATASIZE PUSH1 0x1F NOT PUSH1 0x1F DUP3 ADD AND DUP3 ADD DUP1 PUSH1 0x40 MSTORE POP DUP2 ADD SWAP1 PUSH2 0x915 SWAP2 SWAP1 PUSH2 0x174F JUMP JUMPDEST PUSH2 0x920 SWAP1 PUSH1 0xA PUSH2 0x1857 JUMP JUMPDEST PUSH1 0x80 DUP3 ADD MLOAD PUSH2 0x92F SWAP2 SWAP1 PUSH2 0x18FF JUMP JUMPDEST PUSH1 0x14 SSTORE PUSH1 0xA0 DUP2 ADD MLOAD PUSH1 0x15 SSTORE PUSH1 0xC0 DUP2 ADD MLOAD PUSH1 0x16 SSTORE PUSH1 0xF SLOAD PUSH1 0x40 DUP1 MLOAD PUSH4 0x313CE567 PUSH1 0xE0 SHL DUP2 MSTORE SWAP1 MLOAD PUSH1 0x1 PUSH1 0x1 PUSH1 0xA0 SHL SUB SWAP1 SWAP3 AND SWAP2 PUSH4 0x313CE567 SWAP2 PUSH1 0x4 DUP1 DUP3 ADD SWAP3 PUSH1 0x20 SWAP3 SWAP1 SWAP2 SWAP1 DUP3 SWAP1 SUB ADD DUP2 DUP7 DUP1 EXTCODESIZE ISZERO DUP1 ISZERO PUSH2 0x987 JUMPI PUSH1 0x0 DUP1 REVERT JUMPDEST POP GAS STATICCALL ISZERO DUP1 ISZERO PUSH2 0x99B JUMPI RETURNDATASIZE PUSH1 0x0 DUP1 RETURNDATACOPY RETURNDATASIZE PUSH1 0x0 REVERT JUMPDEST POP POP POP POP PUSH1 0x40 MLOAD RETURNDATASIZE PUSH1 0x1F NOT PUSH1 0x1F DUP3 ADD AND DUP3 ADD DUP1 PUSH1 0x40 MSTORE POP DUP2 ADD SWAP1 PUSH2 0x9BF SWAP2 SWAP1 PUSH2 0x174F JUMP JUMPDEST PUSH2 0x9CA SWAP1 PUSH1 0xA PUSH2 0x1857 JUMP JUMPDEST PUSH1 0xE0 DUP3 ADD MLOAD PUSH2 0x9D9 SWAP2 SWAP1 PUSH2 0x18FF JUMP JUMPDEST PUSH1 0xB SSTORE PUSH1 0xF SLOAD PUSH1 0x40 DUP1 MLOAD PUSH4 0x313CE567 PUSH1 0xE0 SHL DUP2 MSTORE SWAP1 MLOAD PUSH1 0x1 PUSH1 0x1 PUSH1 0xA0 SHL SUB SWAP1 SWAP3 AND SWAP2 PUSH4 0x313CE567 SWAP2 PUSH1 0x4 DUP1 DUP3 ADD SWAP3 PUSH1 0x20 SWAP3 SWAP1 SWAP2 SWAP1 DUP3 SWAP1 SUB ADD DUP2 DUP7 DUP1 EXTCODESIZE ISZERO DUP1 ISZERO PUSH2 0xA21 JUMPI PUSH1 0x0 DUP1 REVERT JUMPDEST POP GAS STATICCALL ISZERO DUP1 ISZERO PUSH2 0xA35 JUMPI RETURNDATASIZE PUSH1 0x0 DUP1 RETURNDATACOPY RETURNDATASIZE PUSH1 0x0 REVERT JUMPDEST POP POP POP POP PUSH1 0x40 MLOAD RETURNDATASIZE PUSH1 0x1F NOT PUSH1 0x1F DUP3 ADD AND DUP3 ADD DUP1 PUSH1 0x40 MSTORE POP DUP2 ADD SWAP1 PUSH2 0xA59 SWAP2 SWAP1 PUSH2 0x174F JUMP JUMPDEST PUSH2 0xA64 SWAP1 PUSH1 0xA PUSH2 0x1857 JUMP JUMPDEST PUSH2 0x100 DUP3 ADD MLOAD PUSH2 0xA74 SWAP2 SWAP1 PUSH2 0x18FF JUMP JUMPDEST PUSH1 0xC SSTORE PUSH1 0xF SLOAD PUSH1 0x19 SLOAD PUSH1 0x17 DUP1 SLOAD PUSH1 0xFF NOT AND PUSH1 0x1 PUSH1 0x1 PUSH1 0xA0 SHL SUB SWAP3 DUP4 AND SWAP3 SWAP1 SWAP4 AND SWAP2 DUP3 EQ SWAP3 SWAP1 SWAP3 OR SWAP1 SWAP2 SSTORE PUSH1 0x40 DUP1 MLOAD PUSH4 0x313CE567 PUSH1 0xE0 SHL DUP2 MSTORE SWAP1 MLOAD PUSH4 0x313CE567 SWAP2 PUSH1 0x4 DUP1 DUP3 ADD SWAP3 PUSH1 0x20 SWAP3 SWAP1 SWAP2 SWAP1 DUP3 SWAP1 SUB ADD DUP2 DUP7 DUP1 EXTCODESIZE ISZERO DUP1 ISZERO PUSH2 0xAD4 JUMPI PUSH1 0x0 DUP1 REVERT JUMPDEST POP GAS STATICCALL ISZERO DUP1 ISZERO PUSH2 0xAE8 JUMPI RETURNDATASIZE PUSH1 0x0 DUP1 RETURNDATACOPY RETURNDATASIZE PUSH1 0x0 REVERT JUMPDEST POP POP POP POP PUSH1 0x40 MLOAD RETURNDATASIZE PUSH1 0x1F NOT PUSH1 0x1F DUP3 ADD AND DUP3 ADD DUP1 PUSH1 0x40 MSTORE POP DUP2 ADD SWAP1 PUSH2 0xB0C SWAP2 SWAP1 PUSH2 0x174F JUMP JUMPDEST PUSH2 0xB17 SWAP1 PUSH1 0xA PUSH2 0x1857 JUMP JUMPDEST PUSH1 0xB SLOAD PUSH1 0x10 SLOAD PUSH2 0xB26 SWAP2 PUSH2 0x1466 JUMP JUMPDEST PUSH2 0xB30 SWAP2 SWAP1 PUSH2 0x17F2 JUMP JUMPDEST PUSH1 0x18 SSTORE POP POP POP POP JUMP JUMPDEST PUSH1 0x2 PUSH1 0x0 SLOAD EQ ISZERO PUSH2 0xB5C JUMPI PUSH1 0x40 MLOAD PUSH3 0x461BCD PUSH1 0xE5 SHL DUP2 MSTORE PUSH1 0x4 ADD PUSH2 0x505 SWAP1 PUSH2 0x17A3 JUMP JUMPDEST PUSH1 0x2 PUSH1 0x0 SSTORE PUSH2 0xB69 PUSH2 0x4B9 JUMP JUMPDEST PUSH1 0x1 EQ PUSH2 0xBA7 JUMPI PUSH1 0x40 MLOAD PUSH3 0x461BCD PUSH1 0xE5 SHL DUP2 MSTORE PUSH1 0x20 PUSH1 0x4 DUP3 ADD MSTORE PUSH1 0xC PUSH1 0x24 DUP3 ADD MSTORE PUSH12 0x53616C652073756365737373 PUSH1 0xA0 SHL PUSH1 0x44 DUP3 ADD MSTORE PUSH1 0x64 ADD PUSH2 0x505 JUMP JUMPDEST PUSH1 0x7 SLOAD PUSH1 0x4 SLOAD PUSH1 0x0 SWAP2 PUSH2 0xBB9 SWAP2 PUSH2 0x191E JUMP JUMPDEST GT PUSH2 0xC06 JUMPI PUSH1 0x40 MLOAD PUSH3 0x461BCD PUSH1 0xE5 SHL DUP2 MSTORE PUSH1 0x20 PUSH1 0x4 DUP3 ADD MSTORE PUSH1 0x1B PUSH1 0x24 DUP3 ADD MSTORE PUSH32 0x416C6C20746F6B656E20686173206265656E2077697468647261770000000000 PUSH1 0x44 DUP3 ADD MSTORE PUSH1 0x64 ADD PUSH2 0x505 JUMP JUMPDEST CALLER PUSH1 0x0 SWAP1 DUP2 MSTORE PUSH1 0x2 PUSH1 0x20 MSTORE PUSH1 0x40 SWAP1 KECCAK256 DUP1 SLOAD PUSH2 0xC71 JUMPI PUSH1 0x40 MLOAD PUSH3 0x461BCD PUSH1 0xE5 SHL DUP2 MSTORE PUSH1 0x20 PUSH1 0x4 DUP3 ADD MSTORE PUSH1 0x25 PUSH1 0x24 DUP3 ADD MSTORE PUSH32 0x596F7520726566756E6420616C6C206F722068617665206E6F7420626F756768 PUSH1 0x44 DUP3 ADD MSTORE PUSH5 0x1D081E595D PUSH1 0xDA SHL PUSH1 0x64 DUP3 ADD MSTORE PUSH1 0x84 ADD PUSH2 0x505 JUMP JUMPDEST DUP1 SLOAD PUSH1 0x15 SLOAD PUSH1 0x0 SWAP2 PUSH2 0xC9C SWAP2 PUSH2 0x3E8 SWAP2 PUSH2 0xC96 SWAP2 PUSH2 0xC90 SWAP1 DUP5 SWAP1 PUSH2 0x1472 JUMP JUMPDEST SWAP1 PUSH2 0x1466 JUMP JUMPDEST SWAP1 PUSH2 0x147E JUMP JUMPDEST DUP3 SLOAD SWAP1 SWAP2 POP PUSH2 0xCAC SWAP1 DUP3 SWAP1 PUSH2 0x191E JUMP JUMPDEST PUSH1 0x1D PUSH1 0x0 DUP3 DUP3 SLOAD PUSH2 0xCBD SWAP2 SWAP1 PUSH2 0x17DA JUMP JUMPDEST SWAP1 SWAP2 SSTORE POP POP PUSH1 0x7 DUP1 SLOAD DUP3 SWAP2 SWAP1 PUSH1 0x0 SWAP1 PUSH2 0xCD7 SWAP1 DUP5 SWAP1 PUSH2 0x17DA JUMP JUMPDEST SWAP1 SWAP2 SSTORE POP POP PUSH1 0x0 DUP1 DUP4 SSTORE PUSH1 0x1 DUP4 ADD DUP2 SWAP1 SSTORE TIMESTAMP PUSH1 0x2 DUP5 ADD SSTORE PUSH1 0x40 MLOAD CALLER SWAP2 DUP4 ISZERO PUSH2 0x8FC MUL SWAP2 DUP5 SWAP2 DUP2 DUP2 DUP2 DUP6 DUP9 DUP9 CALL SWAP4 POP POP POP POP ISZERO DUP1 ISZERO PUSH2 0xD19 JUMPI RETURNDATASIZE PUSH1 0x0 DUP1 RETURNDATACOPY RETURNDATASIZE PUSH1 0x0 REVERT JUMPDEST POP POP PUSH1 0x1 PUSH1 0x0 SSTORE POP JUMP JUMPDEST PUSH1 0x2 PUSH1 0x0 SLOAD EQ ISZERO PUSH2 0xD46 JUMPI PUSH1 0x40 MLOAD PUSH3 0x461BCD PUSH1 0xE5 SHL DUP2 MSTORE PUSH1 0x4 ADD PUSH2 0x505 SWAP1 PUSH2 0x17A3 JUMP JUMPDEST PUSH1 0x2 PUSH1 0x0 SSTORE PUSH2 0xD53 PUSH2 0x4B9 JUMP JUMPDEST PUSH1 0x1 EQ PUSH2 0xD91 JUMPI PUSH1 0x40 MLOAD PUSH3 0x461BCD PUSH1 0xE5 SHL DUP2 MSTORE PUSH1 0x20 PUSH1 0x4 DUP3 ADD MSTORE PUSH1 0xC PUSH1 0x24 DUP3 ADD MSTORE PUSH12 0x53616C652073756365737373 PUSH1 0xA0 SHL PUSH1 0x44 DUP3 ADD MSTORE PUSH1 0x64 ADD PUSH2 0x505 JUMP JUMPDEST PUSH1 0x6 SLOAD PUSH1 0x5 SLOAD PUSH1 0x0 SWAP2 PUSH2 0xDA3 SWAP2 PUSH2 0x191E JUMP JUMPDEST GT PUSH2 0xDF0 JUMPI PUSH1 0x40 MLOAD PUSH3 0x461BCD PUSH1 0xE5 SHL DUP2 MSTORE PUSH1 0x20 PUSH1 0x4 DUP3 ADD MSTORE PUSH1 0x1B PUSH1 0x24 DUP3 ADD MSTORE PUSH32 0x416C6C20746F6B656E20686173206265656E2077697468647261770000000000 PUSH1 0x44 DUP3 ADD MSTORE PUSH1 0x64 ADD PUSH2 0x505 JUMP JUMPDEST CALLER PUSH1 0x0 SWAP1 DUP2 MSTORE PUSH1 0x2 PUSH1 0x20 MSTORE PUSH1 0x40 SWAP1 KECCAK256 PUSH1 0x3 DUP2 ADD SLOAD PUSH1 0x1 DUP3 ADD SLOAD GT PUSH2 0xE62 JUMPI PUSH1 0x40 MLOAD PUSH3 0x461BCD PUSH1 0xE5 SHL DUP2 MSTORE PUSH1 0x20 PUSH1 0x4 DUP3 ADD MSTORE PUSH1 0x24 DUP1 DUP3 ADD MSTORE PUSH32 0x596F7520636C61696D20616C6C206F722068617665206E6F7420626F75676874 PUSH1 0x44 DUP3 ADD MSTORE PUSH4 0x81E595D PUSH1 0xE2 SHL PUSH1 0x64 DUP3 ADD MSTORE PUSH1 0x84 ADD PUSH2 0x505 JUMP JUMPDEST PUSH1 0x0 PUSH2 0xE8C PUSH2 0x3E8 PUSH2 0xC96 DUP5 PUSH1 0x1 ADD SLOAD PUSH2 0xC90 PUSH1 0xD PUSH1 0x9 ADD SLOAD PUSH2 0x3E8 PUSH2 0x1472 SWAP1 SWAP2 SWAP1 PUSH4 0xFFFFFFFF AND JUMP JUMPDEST SWAP1 POP DUP1 PUSH1 0x4 PUSH1 0x2 ADD PUSH1 0x0 DUP3 DUP3 SLOAD PUSH2 0xEA3 SWAP2 SWAP1 PUSH2 0x17DA JUMP JUMPDEST SWAP3 POP POP DUP2 SWAP1 SSTORE POP DUP1 DUP3 PUSH1 0x3 ADD PUSH1 0x0 DUP3 DUP3 SLOAD PUSH2 0xEBE SWAP2 SWAP1 PUSH2 0x17DA JUMP JUMPDEST SWAP1 SWAP2 SSTORE POP POP PUSH1 0x0 DUP1 DUP4 SSTORE PUSH1 0x1 DUP4 ADD SSTORE TIMESTAMP PUSH1 0x2 DUP4 ADD SSTORE PUSH1 0xE SLOAD PUSH1 0x40 MLOAD PUSH4 0xA9059CBB PUSH1 0xE0 SHL DUP2 MSTORE CALLER PUSH1 0x4 DUP3 ADD MSTORE PUSH1 0x24 DUP2 ADD DUP4 SWAP1 MSTORE PUSH1 0x1 PUSH1 0x1 PUSH1 0xA0 SHL SUB SWAP1 SWAP2 AND SWAP1 PUSH4 0xA9059CBB SWAP1 PUSH1 0x44 ADD PUSH1 0x20 PUSH1 0x40 MLOAD DUP1 DUP4 SUB DUP2 PUSH1 0x0 DUP8 DUP1 EXTCODESIZE ISZERO DUP1 ISZERO PUSH2 0xF1F JUMPI PUSH1 0x0 DUP1 REVERT JUMPDEST POP GAS CALL ISZERO DUP1 ISZERO PUSH2 0xF33 JUMPI RETURNDATASIZE PUSH1 0x0 DUP1 RETURNDATACOPY RETURNDATASIZE PUSH1 0x0 REVERT JUMPDEST POP POP POP POP PUSH1 0x40 MLOAD RETURNDATASIZE PUSH1 0x1F NOT PUSH1 0x1F DUP3 ADD AND DUP3 ADD DUP1 PUSH1 0x40 MSTORE POP DUP2 ADD SWAP1 PUSH2 0xD19 SWAP2 SWAP1 PUSH2 0x1714 JUMP JUMPDEST PUSH1 0x2 PUSH1 0x0 SLOAD EQ ISZERO PUSH2 0xF7A JUMPI PUSH1 0x40 MLOAD PUSH3 0x461BCD PUSH1 0xE5 SHL DUP2 MSTORE PUSH1 0x4 ADD PUSH2 0x505 SWAP1 PUSH2 0x17A3 JUMP JUMPDEST PUSH1 0x2 PUSH1 0x0 SSTORE PUSH2 0xF87 PUSH2 0x4B9 JUMP JUMPDEST PUSH1 0x1 EQ PUSH2 0xFC3 JUMPI PUSH1 0x40 MLOAD PUSH3 0x461BCD PUSH1 0xE5 SHL DUP2 MSTORE PUSH1 0x20 PUSH1 0x4 DUP3 ADD MSTORE PUSH1 0xA PUSH1 0x24 DUP3 ADD MSTORE PUSH10 0x4E6F7420616374697665 PUSH1 0xB0 SHL PUSH1 0x44 DUP3 ADD MSTORE PUSH1 0x64 ADD PUSH2 0x505 JUMP JUMPDEST CALLER PUSH1 0x0 SWAP1 DUP2 MSTORE PUSH1 0x2 PUSH1 0x20 MSTORE PUSH1 0x40 DUP2 KECCAK256 PUSH1 0x13 SLOAD SWAP1 SWAP2 DUP4 SWAP2 DUP3 SWAP2 SWAP1 PUSH2 0x3E8 SWAP1 DUP4 LT ISZERO PUSH2 0x1022 JUMPI PUSH1 0x40 MLOAD PUSH3 0x461BCD PUSH1 0xE5 SHL DUP2 MSTORE PUSH1 0x20 PUSH1 0x4 DUP3 ADD MSTORE PUSH1 0x10 PUSH1 0x24 DUP3 ADD MSTORE PUSH16 0x4E6F7420656E6F7567682076616C7565 PUSH1 0x80 SHL PUSH1 0x44 DUP3 ADD MSTORE PUSH1 0x64 ADD PUSH2 0x505 JUMP JUMPDEST PUSH1 0x14 SLOAD DUP4 GT ISZERO PUSH2 0x1065 JUMPI PUSH1 0x40 MLOAD PUSH3 0x461BCD PUSH1 0xE5 SHL DUP2 MSTORE PUSH1 0x20 PUSH1 0x4 DUP3 ADD MSTORE PUSH1 0xE PUSH1 0x24 DUP3 ADD MSTORE PUSH14 0x4F766572666C6F772076616C7565 PUSH1 0x90 SHL PUSH1 0x44 DUP3 ADD MSTORE PUSH1 0x64 ADD PUSH2 0x505 JUMP JUMPDEST PUSH2 0x106D PUSH2 0x131C JUMP JUMPDEST PUSH2 0x109D JUMPI PUSH2 0x108E DUP2 PUSH2 0xC96 DUP6 PUSH2 0xC90 PUSH1 0x1A SLOAD DUP7 PUSH2 0x1472 SWAP1 SWAP2 SWAP1 PUSH4 0xFFFFFFFF AND JUMP JUMPDEST SWAP3 POP PUSH2 0x109A DUP4 DUP6 PUSH2 0x191E JUMP JUMPDEST SWAP2 POP JUMPDEST DUP5 SLOAD PUSH1 0x14 SLOAD PUSH1 0x0 SWAP2 PUSH2 0x10AE SWAP2 PUSH2 0x191E JUMP JUMPDEST PUSH1 0x4 SLOAD PUSH1 0x18 SLOAD SWAP2 SWAP3 POP PUSH1 0x0 SWAP2 PUSH2 0x10C4 SWAP2 SWAP1 PUSH2 0x191E JUMP JUMPDEST SWAP1 POP PUSH1 0x0 DUP2 DUP4 GT PUSH2 0x10D5 JUMPI DUP3 PUSH2 0x10D7 JUMP JUMPDEST DUP2 JUMPDEST SWAP1 POP DUP1 DUP7 GT ISZERO PUSH2 0x111B JUMPI PUSH1 0x40 MLOAD PUSH3 0x461BCD PUSH1 0xE5 SHL DUP2 MSTORE PUSH1 0x20 PUSH1 0x4 DUP3 ADD MSTORE PUSH1 0xF PUSH1 0x24 DUP3 ADD MSTORE PUSH15 0x53616C652069732073756363657373 PUSH1 0x88 SHL PUSH1 0x44 DUP3 ADD MSTORE PUSH1 0x64 ADD PUSH2 0x505 JUMP JUMPDEST PUSH1 0x0 PUSH2 0x11C2 PUSH1 0xD PUSH1 0x2 ADD PUSH1 0x0 SWAP1 SLOAD SWAP1 PUSH2 0x100 EXP SWAP1 DIV PUSH1 0x1 PUSH1 0x1 PUSH1 0xA0 SHL SUB AND PUSH1 0x1 PUSH1 0x1 PUSH1 0xA0 SHL SUB AND PUSH4 0x313CE567 PUSH1 0x40 MLOAD DUP2 PUSH4 0xFFFFFFFF AND PUSH1 0xE0 SHL DUP2 MSTORE PUSH1 0x4 ADD PUSH1 0x20 PUSH1 0x40 MLOAD DUP1 DUP4 SUB DUP2 DUP7 DUP1 EXTCODESIZE ISZERO DUP1 ISZERO PUSH2 0x1171 JUMPI PUSH1 0x0 DUP1 REVERT JUMPDEST POP GAS STATICCALL ISZERO DUP1 ISZERO PUSH2 0x1185 JUMPI RETURNDATASIZE PUSH1 0x0 DUP1 RETURNDATACOPY RETURNDATASIZE PUSH1 0x0 REVERT JUMPDEST POP POP POP POP PUSH1 0x40 MLOAD RETURNDATASIZE PUSH1 0x1F NOT PUSH1 0x1F DUP3 ADD AND DUP3 ADD DUP1 PUSH1 0x40 MSTORE POP DUP2 ADD SWAP1 PUSH2 0x11A9 SWAP2 SWAP1 PUSH2 0x174F JUMP JUMPDEST PUSH2 0x11B4 SWAP1 PUSH1 0xA PUSH2 0x1857 JUMP JUMPDEST PUSH1 0x10 SLOAD PUSH2 0xC96 SWAP1 DUP11 SWAP1 PUSH2 0x1466 JUMP JUMPDEST SWAP1 POP DUP8 DUP10 PUSH1 0x0 ADD PUSH1 0x0 DUP3 DUP3 SLOAD PUSH2 0x11D8 SWAP2 SWAP1 PUSH2 0x17DA JUMP JUMPDEST SWAP3 POP POP DUP2 SWAP1 SSTORE POP DUP1 DUP10 PUSH1 0x1 ADD PUSH1 0x0 DUP3 DUP3 SLOAD PUSH2 0x11F3 SWAP2 SWAP1 PUSH2 0x17DA JUMP JUMPDEST SWAP1 SWAP2 SSTORE POP POP PUSH1 0x4 DUP1 SLOAD DUP9 SWAP2 SWAP1 PUSH1 0x0 SWAP1 PUSH2 0x120D SWAP1 DUP5 SWAP1 PUSH2 0x17DA JUMP JUMPDEST SWAP1 SWAP2 SSTORE POP POP PUSH1 0x5 DUP1 SLOAD DUP3 SWAP2 SWAP1 PUSH1 0x0 SWAP1 PUSH2 0x1227 SWAP1 DUP5 SWAP1 PUSH2 0x17DA JUMP JUMPDEST SWAP1 SWAP2 SSTORE POP POP PUSH1 0x8 DUP1 SLOAD SWAP1 PUSH1 0x0 PUSH2 0x123C DUP4 PUSH2 0x1935 JUMP JUMPDEST SWAP1 SWAP2 SSTORE POP POP CALLER PUSH1 0x0 SWAP1 DUP2 MSTORE PUSH1 0x3 PUSH1 0x20 MSTORE PUSH1 0x40 DUP2 KECCAK256 DUP1 SLOAD DUP9 SWAP3 SWAP1 PUSH2 0x1260 SWAP1 DUP5 SWAP1 PUSH2 0x17DA JUMP JUMPDEST SWAP3 POP POP DUP2 SWAP1 SSTORE POP DUP6 PUSH1 0x1D PUSH1 0x0 DUP3 DUP3 SLOAD PUSH2 0x1279 SWAP2 SWAP1 PUSH2 0x17DA JUMP JUMPDEST SWAP1 SWAP2 SSTORE POP POP PUSH1 0x17 SLOAD PUSH1 0xFF AND DUP1 ISZERO PUSH2 0x1298 JUMPI POP CALLVALUE PUSH2 0x1296 DUP8 DUP10 PUSH2 0x17DA JUMP JUMPDEST LT JUMPDEST ISZERO PUSH2 0x12E0 JUMPI CALLER PUSH2 0x8FC DUP8 PUSH2 0x12AC DUP11 CALLVALUE PUSH2 0x191E JUMP JUMPDEST PUSH2 0x12B6 SWAP2 SWAP1 PUSH2 0x191E JUMP JUMPDEST PUSH1 0x40 MLOAD DUP2 ISZERO SWAP1 SWAP3 MUL SWAP2 PUSH1 0x0 DUP2 DUP2 DUP2 DUP6 DUP9 DUP9 CALL SWAP4 POP POP POP POP ISZERO DUP1 ISZERO PUSH2 0x12DE JUMPI RETURNDATASIZE PUSH1 0x0 DUP1 RETURNDATACOPY RETURNDATASIZE PUSH1 0x0 REVERT JUMPDEST POP JUMPDEST PUSH1 0x17 SLOAD PUSH1 0xFF AND PUSH2 0x130B JUMPI PUSH1 0xF SLOAD PUSH2 0x130B SWAP1 PUSH1 0x1 PUSH1 0x1 PUSH1 0xA0 SHL SUB AND CALLER ADDRESS PUSH2 0x1306 DUP11 DUP13 PUSH2 0x17DA JUMP JUMPDEST PUSH2 0x148A JUMP JUMPDEST POP POP PUSH1 0x1 PUSH1 0x0 SSTORE POP POP POP POP POP POP POP POP JUMP JUMPDEST PUSH1 0x0 PUSH2 0x1329 PUSH1 0x1B CALLER PUSH2 0x15BA JUMP JUMPDEST SWAP1 POP SWAP1 JUMP JUMPDEST PUSH1 0x1 SLOAD PUSH1 0x1 PUSH1 0x1 PUSH1 0xA0 SHL SUB AND CALLER EQ PUSH2 0x1388 JUMPI PUSH1 0x40 MLOAD PUSH3 0x461BCD PUSH1 0xE5 SHL DUP2 MSTORE PUSH1 0x20 PUSH1 0x4 DUP3 ADD DUP2 SWAP1 MSTORE PUSH1 0x24 DUP3 ADD MSTORE PUSH32 0x4F776E61626C653A2063616C6C6572206973206E6F7420746865206F776E6572 PUSH1 0x44 DUP3 ADD MSTORE PUSH1 0x64 ADD PUSH2 0x505 JUMP JUMPDEST PUSH1 0x1 PUSH1 0x1 PUSH1 0xA0 SHL SUB DUP2 AND PUSH2 0x13ED JUMPI PUSH1 0x40 MLOAD PUSH3 0x461BCD PUSH1 0xE5 SHL DUP2 MSTORE PUSH1 0x20 PUSH1 0x4 DUP3 ADD MSTORE PUSH1 0x26 PUSH1 0x24 DUP3 ADD MSTORE PUSH32 0x4F776E61626C653A206E6577206F776E657220697320746865207A65726F2061 PUSH1 0x44 DUP3 ADD MSTORE PUSH6 0x646472657373 PUSH1 0xD0 SHL PUSH1 0x64 DUP3 ADD MSTORE PUSH1 0x84 ADD PUSH2 0x505 JUMP JUMPDEST PUSH2 0x7BB DUP2 PUSH2 0x1414 JUMP JUMPDEST PUSH1 0x0 PUSH2 0x140B DUP4 PUSH1 0x1 PUSH1 0x1 PUSH1 0xA0 SHL SUB DUP5 AND PUSH2 0x15DC JUMP JUMPDEST SWAP1 POP JUMPDEST SWAP3 SWAP2 POP POP JUMP JUMPDEST PUSH1 0x1 DUP1 SLOAD PUSH1 0x1 PUSH1 0x1 PUSH1 0xA0 SHL SUB DUP4 DUP2 AND PUSH1 0x1 PUSH1 0x1 PUSH1 0xA0 SHL SUB NOT DUP4 AND DUP2 OR SWAP1 SWAP4 SSTORE PUSH1 0x40 MLOAD SWAP2 AND SWAP2 SWAP1 DUP3 SWAP1 PUSH32 0x8BE0079C531659141344CD1FD0A4F28419497F9722A3DAAFE3B4186F6B6457E0 SWAP1 PUSH1 0x0 SWAP1 LOG3 POP POP JUMP JUMPDEST PUSH1 0x0 PUSH2 0x140B DUP3 DUP5 PUSH2 0x18FF JUMP JUMPDEST PUSH1 0x0 PUSH2 0x140B DUP3 DUP5 PUSH2 0x191E JUMP JUMPDEST PUSH1 0x0 PUSH2 0x140B DUP3 DUP5 PUSH2 0x17F2 JUMP JUMPDEST PUSH1 0x40 DUP1 MLOAD PUSH1 0x1 PUSH1 0x1 PUSH1 0xA0 SHL SUB DUP6 DUP2 AND PUSH1 0x24 DUP4 ADD MSTORE DUP5 DUP2 AND PUSH1 0x44 DUP4 ADD MSTORE PUSH1 0x64 DUP1 DUP4 ADD DUP6 SWAP1 MSTORE DUP4 MLOAD DUP1 DUP5 SUB SWAP1 SWAP2 ADD DUP2 MSTORE PUSH1 0x84 SWAP1 SWAP3 ADD DUP4 MSTORE PUSH1 0x20 DUP3 ADD DUP1 MLOAD PUSH1 0x1 PUSH1 0x1 PUSH1 0xE0 SHL SUB AND PUSH4 0x23B872DD PUSH1 0xE0 SHL OR SWAP1 MSTORE SWAP2 MLOAD PUSH1 0x0 SWAP3 DUP4 SWAP3 SWAP1 DUP9 AND SWAP2 PUSH2 0x14EE SWAP2 SWAP1 PUSH2 0x1768 JUMP JUMPDEST PUSH1 0x0 PUSH1 0x40 MLOAD DUP1 DUP4 SUB DUP2 PUSH1 0x0 DUP7 GAS CALL SWAP2 POP POP RETURNDATASIZE DUP1 PUSH1 0x0 DUP2 EQ PUSH2 0x152B JUMPI PUSH1 0x40 MLOAD SWAP2 POP PUSH1 0x1F NOT PUSH1 0x3F RETURNDATASIZE ADD AND DUP3 ADD PUSH1 0x40 MSTORE RETURNDATASIZE DUP3 MSTORE RETURNDATASIZE PUSH1 0x0 PUSH1 0x20 DUP5 ADD RETURNDATACOPY PUSH2 0x1530 JUMP JUMPDEST PUSH1 0x60 SWAP2 POP JUMPDEST POP SWAP2 POP SWAP2 POP DUP2 DUP1 ISZERO PUSH2 0x155A JUMPI POP DUP1 MLOAD ISZERO DUP1 PUSH2 0x155A JUMPI POP DUP1 DUP1 PUSH1 0x20 ADD SWAP1 MLOAD DUP2 ADD SWAP1 PUSH2 0x155A SWAP2 SWAP1 PUSH2 0x1714 JUMP JUMPDEST PUSH2 0x15B2 JUMPI PUSH1 0x40 MLOAD PUSH3 0x461BCD PUSH1 0xE5 SHL DUP2 MSTORE PUSH1 0x20 PUSH1 0x4 DUP3 ADD MSTORE PUSH1 0x24 DUP1 DUP3 ADD MSTORE PUSH32 0x5472616E7366657248656C7065723A205452414E534645525F46524F4D5F4641 PUSH1 0x44 DUP3 ADD MSTORE PUSH4 0x12531151 PUSH1 0xE2 SHL PUSH1 0x64 DUP3 ADD MSTORE PUSH1 0x84 ADD PUSH2 0x505 JUMP JUMPDEST POP POP POP POP POP POP JUMP JUMPDEST PUSH1 0x1 PUSH1 0x1 PUSH1 0xA0 SHL SUB DUP2 AND PUSH1 0x0 SWAP1 DUP2 MSTORE PUSH1 0x1 DUP4 ADD PUSH1 0x20 MSTORE PUSH1 0x40 DUP2 KECCAK256 SLOAD ISZERO ISZERO PUSH2 0x140B JUMP JUMPDEST PUSH1 0x0 DUP2 DUP2 MSTORE PUSH1 0x1 DUP4 ADD PUSH1 0x20 MSTORE PUSH1 0x40 DUP2 KECCAK256 SLOAD PUSH2 0x1623 JUMPI POP DUP2 SLOAD PUSH1 0x1 DUP2 DUP2 ADD DUP5 SSTORE PUSH1 0x0 DUP5 DUP2 MSTORE PUSH1 0x20 DUP1 DUP3 KECCAK256 SWAP1 SWAP4 ADD DUP5 SWAP1 SSTORE DUP5 SLOAD DUP5 DUP3 MSTORE DUP3 DUP7 ADD SWAP1 SWAP4 MSTORE PUSH1 0x40 SWAP1 KECCAK256 SWAP2 SWAP1 SWAP2 SSTORE PUSH2 0x140E JUMP JUMPDEST POP PUSH1 0x0 PUSH2 0x140E JUMP JUMPDEST PUSH1 0x0 PUSH1 0x20 DUP3 DUP5 SUB SLT ISZERO PUSH2 0x163D JUMPI PUSH1 0x0 DUP1 REVERT JUMPDEST DUP2 CALLDATALOAD PUSH2 0x1648 DUP2 PUSH2 0x197C JUMP JUMPDEST SWAP4 SWAP3 POP POP POP JUMP JUMPDEST PUSH1 0x0 DUP1 PUSH1 0x0 DUP1 PUSH2 0x180 DUP1 DUP7 DUP9 SUB SLT ISZERO PUSH2 0x1667 JUMPI PUSH1 0x0 DUP1 REVERT JUMPDEST DUP6 CALLDATALOAD PUSH2 0x1672 DUP2 PUSH2 0x197C JUMP JUMPDEST SWAP5 POP PUSH1 0x20 DUP7 DUP2 ADD CALLDATALOAD PUSH2 0x1683 DUP2 PUSH2 0x197C JUMP JUMPDEST SWAP5 POP PUSH1 0x40 DUP8 ADD CALLDATALOAD PUSH2 0x1693 DUP2 PUSH2 0x197C JUMP JUMPDEST SWAP4 POP PUSH1 0x7F DUP8 ADD DUP9 SGT PUSH2 0x16A4 JUMPI PUSH1 0x0 DUP1 REVERT JUMPDEST PUSH1 0x40 MLOAD PUSH2 0x120 DUP2 ADD DUP2 DUP2 LT PUSH8 0xFFFFFFFFFFFFFFFF DUP3 GT OR ISZERO PUSH2 0x16C8 JUMPI PUSH2 0x16C8 PUSH2 0x1966 JUMP JUMPDEST PUSH1 0x40 MSTORE DUP1 PUSH1 0x60 DUP10 ADD DUP5 DUP11 ADD DUP12 LT ISZERO PUSH2 0x16DF JUMPI PUSH1 0x0 DUP1 REVERT JUMPDEST PUSH1 0x0 SWAP5 POP JUMPDEST PUSH1 0x9 DUP6 LT ISZERO PUSH2 0x1703 JUMPI DUP1 CALLDATALOAD DUP3 MSTORE PUSH1 0x1 SWAP5 SWAP1 SWAP5 ADD SWAP4 SWAP1 DUP4 ADD SWAP1 DUP4 ADD PUSH2 0x16E4 JUMP JUMPDEST POP POP DUP1 SWAP4 POP POP POP POP SWAP3 SWAP6 SWAP2 SWAP5 POP SWAP3 POP JUMP JUMPDEST PUSH1 0x0 PUSH1 0x20 DUP3 DUP5 SUB SLT ISZERO PUSH2 0x1726 JUMPI PUSH1 0x0 DUP1 REVERT JUMPDEST DUP2 MLOAD DUP1 ISZERO ISZERO DUP2 EQ PUSH2 0x1648 JUMPI PUSH1 0x0 DUP1 REVERT JUMPDEST PUSH1 0x0 PUSH1 0x20 DUP3 DUP5 SUB SLT ISZERO PUSH2 0x1748 JUMPI PUSH1 0x0 DUP1 REVERT JUMPDEST POP CALLDATALOAD SWAP2 SWAP1 POP JUMP JUMPDEST PUSH1 0x0 PUSH1 0x20 DUP3 DUP5 SUB SLT ISZERO PUSH2 0x1761 JUMPI PUSH1 0x0 DUP1 REVERT JUMPDEST POP MLOAD SWAP2 SWAP1 POP JUMP JUMPDEST PUSH1 0x0 DUP3 MLOAD PUSH1 0x0 JUMPDEST DUP2 DUP2 LT ISZERO PUSH2 0x1789 JUMPI PUSH1 0x20 DUP2 DUP7 ADD DUP2 ADD MLOAD DUP6 DUP4 ADD MSTORE ADD PUSH2 0x176F JUMP JUMPDEST DUP2 DUP2 GT ISZERO PUSH2 0x1798 JUMPI PUSH1 0x0 DUP3 DUP6 ADD MSTORE JUMPDEST POP SWAP2 SWAP1 SWAP2 ADD SWAP3 SWAP2 POP POP JUMP JUMPDEST PUSH1 0x20 DUP1 DUP3 MSTORE PUSH1 0x1F SWAP1 DUP3 ADD MSTORE PUSH32 0x5265656E7472616E637947756172643A207265656E7472616E742063616C6C00 PUSH1 0x40 DUP3 ADD MSTORE PUSH1 0x60 ADD SWAP1 JUMP JUMPDEST PUSH1 0x0 DUP3 NOT DUP3 GT ISZERO PUSH2 0x17ED JUMPI PUSH2 0x17ED PUSH2 0x1950 JUMP JUMPDEST POP ADD SWAP1 JUMP JUMPDEST PUSH1 0x0 DUP3 PUSH2 0x180F JUMPI PUSH4 0x4E487B71 PUSH1 0xE0 SHL PUSH1 0x0 MSTORE PUSH1 0x12 PUSH1 0x4 MSTORE PUSH1 0x24 PUSH1 0x0 REVERT JUMPDEST POP DIV SWAP1 JUMP JUMPDEST PUSH1 0x1 DUP2 DUP2 JUMPDEST DUP1 DUP6 GT ISZERO PUSH2 0x184F JUMPI DUP2 PUSH1 0x0 NOT DIV DUP3 GT ISZERO PUSH2 0x1835 JUMPI PUSH2 0x1835 PUSH2 0x1950 JUMP JUMPDEST DUP1 DUP6 AND ISZERO PUSH2 0x1842 JUMPI SWAP2 DUP2 MUL SWAP2 JUMPDEST SWAP4 DUP5 SHR SWAP4 SWAP1 DUP1 MUL SWAP1 PUSH2 0x1819 JUMP JUMPDEST POP SWAP3 POP SWAP3 SWAP1 POP JUMP JUMPDEST PUSH1 0x0 PUSH2 0x140B DUP4 DUP4 PUSH1 0x0 DUP3 PUSH2 0x186D JUMPI POP PUSH1 0x1 PUSH2 0x140E JUMP JUMPDEST DUP2 PUSH2 0x187A JUMPI POP PUSH1 0x0 PUSH2 0x140E JUMP JUMPDEST DUP2 PUSH1 0x1 DUP2 EQ PUSH2 0x1890 JUMPI PUSH1 0x2 DUP2 EQ PUSH2 0x189A JUMPI PUSH2 0x18B6 JUMP JUMPDEST PUSH1 0x1 SWAP2 POP POP PUSH2 0x140E JUMP JUMPDEST PUSH1 0xFF DUP5 GT ISZERO PUSH2 0x18AB JUMPI PUSH2 0x18AB PUSH2 0x1950 JUMP JUMPDEST POP POP PUSH1 0x1 DUP3 SHL PUSH2 0x140E JUMP JUMPDEST POP PUSH1 0x20 DUP4 LT PUSH2 0x133 DUP4 LT AND PUSH1 0x4E DUP5 LT PUSH1 0xB DUP5 LT AND OR ISZERO PUSH2 0x18D9 JUMPI POP DUP2 DUP2 EXP PUSH2 0x140E JUMP JUMPDEST PUSH2 0x18E3 DUP4 DUP4 PUSH2 0x1814 JUMP JUMPDEST DUP1 PUSH1 0x0 NOT DIV DUP3 GT ISZERO PUSH2 0x18F7 JUMPI PUSH2 0x18F7 PUSH2 0x1950 JUMP JUMPDEST MUL SWAP4 SWAP3 POP POP POP JUMP JUMPDEST PUSH1 0x0 DUP2 PUSH1 0x0 NOT DIV DUP4 GT DUP3 ISZERO ISZERO AND ISZERO PUSH2 0x1919 JUMPI PUSH2 0x1919 PUSH2 0x1950 JUMP JUMPDEST POP MUL SWAP1 JUMP JUMPDEST PUSH1 0x0 DUP3 DUP3 LT ISZERO PUSH2 0x1930 JUMPI PUSH2 0x1930 PUSH2 0x1950 JUMP JUMPDEST POP SUB SWAP1 JUMP JUMPDEST PUSH1 0x0 PUSH1 0x0 NOT DUP3 EQ ISZERO PUSH2 0x1949 JUMPI PUSH2 0x1949 PUSH2 0x1950 JUMP JUMPDEST POP PUSH1 0x1 ADD SWAP1 JUMP JUMPDEST PUSH4 0x4E487B71 PUSH1 0xE0 SHL PUSH1 0x0 MSTORE PUSH1 0x11 PUSH1 0x4 MSTORE PUSH1 0x24 PUSH1 0x0 REVERT JUMPDEST PUSH4 0x4E487B71 PUSH1 0xE0 SHL PUSH1 0x0 MSTORE PUSH1 0x41 PUSH1 0x4 MSTORE PUSH1 0x24 PUSH1 0x0 REVERT JUMPDEST PUSH1 0x1 PUSH1 0x1 PUSH1 0xA0 SHL SUB DUP2 AND DUP2 EQ PUSH2 0x7BB JUMPI PUSH1 0x0 DUP1 REVERT INVALID LOG2 PUSH5 0x6970667358 0x22 SLT KECCAK256 0xB4 0xE5 SHR 0xC 0xC7 0xEE 0xD4 SWAP14 SUB 0x49 0xC2 SWAP2 0x23 DUP14 0xF9 0x26 0xBB SWAP10 0x4C CALLVALUE SWAP6 PUSH17 0xAEA27404263C36E1EED164736F6C634300 ADDMOD SDIV STOP CALLER "
				},
				"gasEstimates": {
					"creation": {
						"codeDepositCost": "1319800",
						"executionCost": "infinite",
						"totalCost": "infinite"
					},
					"external": {
						"WETH()": "2448",
						"backToken()": "infinite",
						"buyerInfo(address)": "8990",
						"checkAdminAddress()": "2521",
						"deposit(uint256)": "infinite",
						"feeAnyone()": "2407",
						"getBalance(address)": "3072",
						"initialSaleInfor(address,address,address,uint256[9])": "infinite",
						"owner()": "2431",
						"ownerClaimToken()": "infinite",
						"presaleStatus()": "13078",
						"renounceOwnership()": "28184",
						"saleInfor()": "25810",
						"saleTotalSupply()": "4441",
						"status()": "4555",
						"totalFee()": "2363",
						"transferOwnership(address)": "infinite",
						"userClaimEmergency()": "infinite",
						"userFee(address)": "2558",
						"userRefundEmergency()": "infinite"
					}
				},
				"methodIdentifiers": {
					"WETH()": "ad5c4648",
					"backToken()": "861faf5f",
					"buyerInfo(address)": "e2d3f423",
					"checkAdminAddress()": "cad5b0f7",
					"deposit(uint256)": "b6b55f25",
					"feeAnyone()": "3b5ef2ad",
					"getBalance(address)": "f8b2cb4f",
					"initialSaleInfor(address,address,address,uint256[9])": "8f1eae4c",
					"owner()": "8da5cb5b",
					"ownerClaimToken()": "42d8a9da",
					"presaleStatus()": "acfb2355",
					"renounceOwnership()": "715018a6",
					"saleInfor()": "18856a2f",
					"saleTotalSupply()": "12e5d0b9",
					"status()": "200d2ed2",
					"totalFee()": "1df4ccfc",
					"transferOwnership(address)": "f2fde38b",
					"userClaimEmergency()": "ab33985a",
					"userFee(address)": "56c5f349",
					"userRefundEmergency()": "95661e70"
				}
			},
			"storageLayout": {
				"storage": [
					{
						"astId": 2347,
						"contract": "Ethereum/Presale.sol:Presale",
						"label": "_status",
						"offset": 0,
						"slot": "0",
						"type": "t_uint256"
					},
					{
						"astId": 2239,
						"contract": "Ethereum/Presale.sol:Presale",
						"label": "_owner",
						"offset": 0,
						"slot": "1",
						"type": "t_address"
					},
					{
						"astId": 772,
						"contract": "Ethereum/Presale.sol:Presale",
						"label": "buyerInfo",
						"offset": 0,
						"slot": "2",
						"type": "t_mapping(t_address,t_struct(BuyerInfo)749_storage)"
					},
					{
						"astId": 776,
						"contract": "Ethereum/Presale.sol:Presale",
						"label": "userFee",
						"offset": 0,
						"slot": "3",
						"type": "t_mapping(t_address,t_uint256)"
					},
					{
						"astId": 779,
						"contract": "Ethereum/Presale.sol:Presale",
						"label": "presaleStatus",
						"offset": 0,
						"slot": "4",
						"type": "t_struct(PresaleStatus)767_storage"
					},
					{
						"astId": 782,
						"contract": "Ethereum/Presale.sol:Presale",
						"label": "saleTotalSupply",
						"offset": 0,
						"slot": "11",
						"type": "t_struct(SaleTotalSupply)740_storage"
					},
					{
						"astId": 785,
						"contract": "Ethereum/Presale.sol:Presale",
						"label": "saleInfor",
						"offset": 0,
						"slot": "13",
						"type": "t_struct(SaleInfor)735_storage"
					},
					{
						"astId": 788,
						"contract": "Ethereum/Presale.sol:Presale",
						"label": "WETH",
						"offset": 0,
						"slot": "25",
						"type": "t_contract(IERC20)663"
					},
					{
						"astId": 790,
						"contract": "Ethereum/Presale.sol:Presale",
						"label": "feeAnyone",
						"offset": 0,
						"slot": "26",
						"type": "t_uint256"
					},
					{
						"astId": 793,
						"contract": "Ethereum/Presale.sol:Presale",
						"label": "admins",
						"offset": 0,
						"slot": "27",
						"type": "t_struct(AddressSet)1944_storage"
					},
					{
						"astId": 795,
						"contract": "Ethereum/Presale.sol:Presale",
						"label": "totalFee",
						"offset": 0,
						"slot": "29",
						"type": "t_uint256"
					}
				],
				"types": {
					"t_address": {
						"encoding": "inplace",
						"label": "address",
						"numberOfBytes": "20"
					},
					"t_address_payable": {
						"encoding": "inplace",
						"label": "address payable",
						"numberOfBytes": "20"
					},
					"t_array(t_address)dyn_storage": {
						"base": "t_address",
						"encoding": "dynamic_array",
						"label": "address[]",
						"numberOfBytes": "32"
					},
					"t_array(t_bytes32)dyn_storage": {
						"base": "t_bytes32",
						"encoding": "dynamic_array",
						"label": "bytes32[]",
						"numberOfBytes": "32"
					},
					"t_bool": {
						"encoding": "inplace",
						"label": "bool",
						"numberOfBytes": "1"
					},
					"t_bytes32": {
						"encoding": "inplace",
						"label": "bytes32",
						"numberOfBytes": "32"
					},
					"t_contract(ERC20)585": {
						"encoding": "inplace",
						"label": "contract ERC20",
						"numberOfBytes": "20"
					},
					"t_contract(IERC20)663": {
						"encoding": "inplace",
						"label": "contract IERC20",
						"numberOfBytes": "20"
					},
					"t_mapping(t_address,t_struct(BuyerInfo)749_storage)": {
						"encoding": "mapping",
						"key": "t_address",
						"label": "mapping(address => struct Presale.BuyerInfo)",
						"numberOfBytes": "32",
						"value": "t_struct(BuyerInfo)749_storage"
					},
					"t_mapping(t_address,t_uint256)": {
						"encoding": "mapping",
						"key": "t_address",
						"label": "mapping(address => uint256)",
						"numberOfBytes": "32",
						"value": "t_uint256"
					},
					"t_mapping(t_bytes32,t_uint256)": {
						"encoding": "mapping",
						"key": "t_bytes32",
						"label": "mapping(bytes32 => uint256)",
						"numberOfBytes": "32",
						"value": "t_uint256"
					},
					"t_struct(AddressSet)1944_storage": {
						"encoding": "inplace",
						"label": "struct EnumerableSet.AddressSet",
						"members": [
							{
								"astId": 1943,
								"contract": "Ethereum/Presale.sol:Presale",
								"label": "_inner",
								"offset": 0,
								"slot": "0",
								"type": "t_struct(Set)1643_storage"
							}
						],
						"numberOfBytes": "64"
					},
					"t_struct(BuyerInfo)749_storage": {
						"encoding": "inplace",
						"label": "struct Presale.BuyerInfo",
						"members": [
							{
								"astId": 742,
								"contract": "Ethereum/Presale.sol:Presale",
								"label": "baseDeposit",
								"offset": 0,
								"slot": "0",
								"type": "t_uint256"
							},
							{
								"astId": 744,
								"contract": "Ethereum/Presale.sol:Presale",
								"label": "tokenOwner",
								"offset": 0,
								"slot": "1",
								"type": "t_uint256"
							},
							{
								"astId": 746,
								"contract": "Ethereum/Presale.sol:Presale",
								"label": "lastWithDraw",
								"offset": 0,
								"slot": "2",
								"type": "t_uint256"
							},
							{
								"astId": 748,
								"contract": "Ethereum/Presale.sol:Presale",
								"label": "totalTokenWithDraw",
								"offset": 0,
								"slot": "3",
								"type": "t_uint256"
							}
						],
						"numberOfBytes": "128"
					},
					"t_struct(PresaleStatus)767_storage": {
						"encoding": "inplace",
						"label": "struct Presale.PresaleStatus",
						"members": [
							{
								"astId": 751,
								"contract": "Ethereum/Presale.sol:Presale",
								"label": "totalBaseCollected",
								"offset": 0,
								"slot": "0",
								"type": "t_uint256"
							},
							{
								"astId": 753,
								"contract": "Ethereum/Presale.sol:Presale",
								"label": "totalTokenSold",
								"offset": 0,
								"slot": "1",
								"type": "t_uint256"
							},
							{
								"astId": 755,
								"contract": "Ethereum/Presale.sol:Presale",
								"label": "totalTokenWithDraw",
								"offset": 0,
								"slot": "2",
								"type": "t_uint256"
							},
							{
								"astId": 757,
								"contract": "Ethereum/Presale.sol:Presale",
								"label": "totalBaseWithDraw",
								"offset": 0,
								"slot": "3",
								"type": "t_uint256"
							},
							{
								"astId": 759,
								"contract": "Ethereum/Presale.sol:Presale",
								"label": "numberBuyer",
								"offset": 0,
								"slot": "4",
								"type": "t_uint256"
							},
							{
								"astId": 761,
								"contract": "Ethereum/Presale.sol:Presale",
								"label": "isOwnerClaimSaleToken",
								"offset": 0,
								"slot": "5",
								"type": "t_bool"
							},
							{
								"astId": 763,
								"contract": "Ethereum/Presale.sol:Presale",
								"label": "isOwnerRefundBaseToken",
								"offset": 1,
								"slot": "5",
								"type": "t_bool"
							},
							{
								"astId": 766,
								"contract": "Ethereum/Presale.sol:Presale",
								"label": "admin",
								"offset": 0,
								"slot": "6",
								"type": "t_array(t_address)dyn_storage"
							}
						],
						"numberOfBytes": "224"
					},
					"t_struct(SaleInfor)735_storage": {
						"encoding": "inplace",
						"label": "struct Presale.SaleInfor",
						"members": [
							{
								"astId": 710,
								"contract": "Ethereum/Presale.sol:Presale",
								"label": "presaleOwner",
								"offset": 0,
								"slot": "0",
								"type": "t_address_payable"
							},
							{
								"astId": 713,
								"contract": "Ethereum/Presale.sol:Presale",
								"label": "saleToken",
								"offset": 0,
								"slot": "1",
								"type": "t_contract(ERC20)585"
							},
							{
								"astId": 716,
								"contract": "Ethereum/Presale.sol:Presale",
								"label": "baseToken",
								"offset": 0,
								"slot": "2",
								"type": "t_contract(ERC20)585"
							},
							{
								"astId": 718,
								"contract": "Ethereum/Presale.sol:Presale",
								"label": "tokenPrice",
								"offset": 0,
								"slot": "3",
								"type": "t_uint256"
							},
							{
								"astId": 720,
								"contract": "Ethereum/Presale.sol:Presale",
								"label": "startSale",
								"offset": 0,
								"slot": "4",
								"type": "t_uint256"
							},
							{
								"astId": 722,
								"contract": "Ethereum/Presale.sol:Presale",
								"label": "endSale",
								"offset": 0,
								"slot": "5",
								"type": "t_uint256"
							},
							{
								"astId": 724,
								"contract": "Ethereum/Presale.sol:Presale",
								"label": "minSpendPerBuyer",
								"offset": 0,
								"slot": "6",
								"type": "t_uint256"
							},
							{
								"astId": 726,
								"contract": "Ethereum/Presale.sol:Presale",
								"label": "maxSpendPerBuyer",
								"offset": 0,
								"slot": "7",
								"type": "t_uint256"
							},
							{
								"astId": 728,
								"contract": "Ethereum/Presale.sol:Presale",
								"label": "refundFee",
								"offset": 0,
								"slot": "8",
								"type": "t_uint256"
							},
							{
								"astId": 730,
								"contract": "Ethereum/Presale.sol:Presale",
								"label": "claimFee",
								"offset": 0,
								"slot": "9",
								"type": "t_uint256"
							},
							{
								"astId": 732,
								"contract": "Ethereum/Presale.sol:Presale",
								"label": "saleIsBaseToken",
								"offset": 0,
								"slot": "10",
								"type": "t_bool"
							},
							{
								"astId": 734,
								"contract": "Ethereum/Presale.sol:Presale",
								"label": "amountTokenForSale",
								"offset": 0,
								"slot": "11",
								"type": "t_uint256"
							}
						],
						"numberOfBytes": "384"
					},
					"t_struct(SaleTotalSupply)740_storage": {
						"encoding": "inplace",
						"label": "struct Presale.SaleTotalSupply",
						"members": [
							{
								"astId": 737,
								"contract": "Ethereum/Presale.sol:Presale",
								"label": "hardCap",
								"offset": 0,
								"slot": "0",
								"type": "t_uint256"
							},
							{
								"astId": 739,
								"contract": "Ethereum/Presale.sol:Presale",
								"label": "softCap",
								"offset": 0,
								"slot": "1",
								"type": "t_uint256"
							}
						],
						"numberOfBytes": "64"
					},
					"t_struct(Set)1643_storage": {
						"encoding": "inplace",
						"label": "struct EnumerableSet.Set",
						"members": [
							{
								"astId": 1638,
								"contract": "Ethereum/Presale.sol:Presale",
								"label": "_values",
								"offset": 0,
								"slot": "0",
								"type": "t_array(t_bytes32)dyn_storage"
							},
							{
								"astId": 1642,
								"contract": "Ethereum/Presale.sol:Presale",
								"label": "_indexes",
								"offset": 0,
								"slot": "1",
								"type": "t_mapping(t_bytes32,t_uint256)"
							}
						],
						"numberOfBytes": "64"
					},
					"t_uint256": {
						"encoding": "inplace",
						"label": "uint256",
						"numberOfBytes": "32"
					}
				}
			},
			"userdoc": {
				"kind": "user",
				"methods": {},
				"version": 1
			}
		}
	}
}