{
	"Ethereum/PresaleSettings.sol": {
		"PresaleSettings": {
			"abi": [
				{
					"inputs": [],
					"stateMutability": "nonpayable",
					"type": "constructor"
				},
				{
					"anonymous": false,
					"inputs": [
						{
							"indexed": true,
							"internalType": "address",
							"name": "previousOwner",
							"type": "address"
						},
						{
							"indexed": true,
							"internalType": "address",
							"name": "newOwner",
							"type": "address"
						}
					],
					"name": "OwnershipTransferred",
					"type": "event"
				},
				{
					"inputs": [],
					"name": "getBaseReceiveFeeAddress",
					"outputs": [
						{
							"internalType": "address",
							"name": "",
							"type": "address"
						}
					],
					"stateMutability": "view",
					"type": "function"
				},
				{
					"inputs": [],
					"name": "getClaimFee",
					"outputs": [
						{
							"internalType": "uint256",
							"name": "",
							"type": "uint256"
						}
					],
					"stateMutability": "view",
					"type": "function"
				},
				{
					"inputs": [],
					"name": "getFeeCreatePresale",
					"outputs": [
						{
							"internalType": "uint256",
							"name": "",
							"type": "uint256"
						}
					],
					"stateMutability": "view",
					"type": "function"
				},
				{
					"inputs": [],
					"name": "getRefundFee",
					"outputs": [
						{
							"internalType": "uint256",
							"name": "",
							"type": "uint256"
						}
					],
					"stateMutability": "view",
					"type": "function"
				},
				{
					"inputs": [],
					"name": "getTokenReceiveFeeAddress",
					"outputs": [
						{
							"internalType": "address",
							"name": "",
							"type": "address"
						}
					],
					"stateMutability": "view",
					"type": "function"
				},
				{
					"inputs": [],
					"name": "owner",
					"outputs": [
						{
							"internalType": "address",
							"name": "",
							"type": "address"
						}
					],
					"stateMutability": "view",
					"type": "function"
				},
				{
					"inputs": [],
					"name": "renounceOwnership",
					"outputs": [],
					"stateMutability": "nonpayable",
					"type": "function"
				},
				{
					"inputs": [],
					"name": "settingFee",
					"outputs": [
						{
							"internalType": "uint256",
							"name": "refundFee",
							"type": "uint256"
						},
						{
							"internalType": "uint256",
							"name": "claimFee",
							"type": "uint256"
						},
						{
							"internalType": "address payable",
							"name": "baseReceiveFeeAddress",
							"type": "address"
						},
						{
							"internalType": "address payable",
							"name": "tokenReceiveFeeAddress",
							"type": "address"
						},
						{
							"internalType": "uint256",
							"name": "feeCreatePresale",
							"type": "uint256"
						},
						{
							"internalType": "uint256",
							"name": "feeAnyone",
							"type": "uint256"
						}
					],
					"stateMutability": "view",
					"type": "function"
				},
				{
					"inputs": [
						{
							"internalType": "address",
							"name": "newOwner",
							"type": "address"
						}
					],
					"name": "transferOwnership",
					"outputs": [],
					"stateMutability": "nonpayable",
					"type": "function"
				},
				{
					"inputs": [
						{
							"internalType": "uint256",
							"name": "_refundFee",
							"type": "uint256"
						},
						{
							"internalType": "uint256",
							"name": "_claimFee",
							"type": "uint256"
						},
						{
							"internalType": "address payable",
							"name": "_baseReceiveFeeAddress",
							"type": "address"
						},
						{
							"internalType": "address payable",
							"name": "_tokenReceiveFeeAddress",
							"type": "address"
						},
						{
							"internalType": "uint256",
							"name": "_feeCreatePresale",
							"type": "uint256"
						}
					],
					"name": "update",
					"outputs": [],
					"stateMutability": "nonpayable",
					"type": "function"
				}
			],
			"devdoc": {
				"kind": "dev",
				"methods": {
					"owner()": {
						"details": "Returns the address of the current owner."
					},
					"renounceOwnership()": {
						"details": "Leaves the contract without owner. It will not be possible to call `onlyOwner` functions anymore. Can only be called by the current owner. NOTE: Renouncing ownership will leave the contract without an owner, thereby removing any functionality that is only available to the owner."
					},
					"transferOwnership(address)": {
						"details": "Transfers ownership of the contract to a new account (`newOwner`). Can only be called by the current owner."
					}
				},
				"version": 1
			},
			"evm": {
				"assembly": "    /* \"Ethereum/PresaleSettings.sol\":134:1955  contract PresaleSettings is Ownable {\r... */\n  mstore(0x40, 0x80)\n    /* \"Ethereum/PresaleSettings.sol\":517:820  constructor() {\r... */\n  callvalue\n  dup1\n  iszero\n  tag_1\n  jumpi\n  0x00\n  dup1\n  revert\ntag_1:\n  pop\n    /* \"Utils/Ownable.sol\":942:974  _transferOwnership(_msgSender()) */\n  tag_5\n    /* \"Utils/Context.sol\":736:746  msg.sender */\n  caller\n    /* \"Utils/Ownable.sol\":942:960  _transferOwnership */\n  tag_8\n    /* \"Utils/Ownable.sol\":942:974  _transferOwnership(_msgSender()) */\n  jump\t// in\ntag_5:\n    /* \"Ethereum/PresaleSettings.sol\":565:568  100 */\n  0x64\n    /* \"Ethereum/PresaleSettings.sol\":542:552  settingFee */\n  0x01\n    /* \"Ethereum/PresaleSettings.sol\":542:568  settingFee.refundFee = 100 */\n  sstore\n    /* \"Ethereum/PresaleSettings.sol\":609:611  50 */\n  0x32\n    /* \"Ethereum/PresaleSettings.sol\":587:606  settingFee.claimFee */\n  0x02\n    /* \"Ethereum/PresaleSettings.sol\":587:611  settingFee.claimFee = 50 */\n  sstore\n    /* \"Ethereum/PresaleSettings.sol\":660:667  1 ether */\n  0x0de0b6b3a7640000\n    /* \"Ethereum/PresaleSettings.sol\":630:657  settingFee.feeCreatePresale */\n  0x05\n    /* \"Ethereum/PresaleSettings.sol\":630:667  settingFee.feeCreatePresale = 1 ether */\n  sstore\n    /* \"Ethereum/PresaleSettings.sol\":688:720  settingFee.baseReceiveFeeAddress */\n  0x03\n    /* \"Ethereum/PresaleSettings.sol\":688:744  settingFee.baseReceiveFeeAddress = payable(_msgSender()) */\n  dup1\n  sload\n    /* \"Utils/Context.sol\":736:746  msg.sender */\n  caller\n  not(sub(shl(0xa0, 0x01), 0x01))\n    /* \"Ethereum/PresaleSettings.sol\":688:744  settingFee.baseReceiveFeeAddress = payable(_msgSender()) */\n  swap2\n  dup3\n  and\n  dup2\n  or\n  swap1\n  swap3\n  sstore\n    /* \"Ethereum/PresaleSettings.sol\":755:788  settingFee.tokenReceiveFeeAddress */\n  0x04\n    /* \"Ethereum/PresaleSettings.sol\":755:812  settingFee.tokenReceiveFeeAddress = payable(_msgSender()) */\n  dup1\n  sload\n  swap1\n  swap2\n  and\n  swap1\n  swap2\n  or\n  swap1\n  sstore\n    /* \"Ethereum/PresaleSettings.sol\":134:1955  contract PresaleSettings is Ownable {\r... */\n  jump(tag_12)\n    /* \"Utils/Ownable.sol\":2333:2524  function _transferOwnership(address newOwner) internal virtual {\r... */\ntag_8:\n    /* \"Utils/Ownable.sol\":2407:2423  address oldOwner */\n  0x00\n    /* \"Utils/Ownable.sol\":2426:2432  _owner */\n  dup1\n  sload\n  sub(shl(0xa0, 0x01), 0x01)\n    /* \"Utils/Ownable.sol\":2443:2460  _owner = newOwner */\n  dup4\n  dup2\n  and\n  not(sub(shl(0xa0, 0x01), 0x01))\n  dup4\n  and\n  dup2\n  or\n  dup5\n  sstore\n    /* \"Utils/Ownable.sol\":2476:2516  OwnershipTransferred(oldOwner, newOwner) */\n  mload(0x40)\n    /* \"Utils/Ownable.sol\":2426:2432  _owner */\n  swap2\n  swap1\n  swap3\n  and\n  swap3\n  dup4\n  swap2\n    /* \"Utils/Ownable.sol\":2476:2516  OwnershipTransferred(oldOwner, newOwner) */\n  0x8be0079c531659141344cd1fd0a4f28419497f9722a3daafe3b4186f6b6457e0\n  swap2\n    /* \"Utils/Ownable.sol\":2407:2423  address oldOwner */\n  swap1\n    /* \"Utils/Ownable.sol\":2476:2516  OwnershipTransferred(oldOwner, newOwner) */\n  log3\n    /* \"Utils/Ownable.sol\":2396:2524  {\r... */\n  pop\n    /* \"Utils/Ownable.sol\":2333:2524  function _transferOwnership(address newOwner) internal virtual {\r... */\n  pop\n  jump\t// out\n    /* \"Ethereum/PresaleSettings.sol\":134:1955  contract PresaleSettings is Ownable {\r... */\ntag_12:\n  dataSize(sub_0)\n  dup1\n  dataOffset(sub_0)\n  0x00\n  codecopy\n  0x00\n  return\nstop\n\nsub_0: assembly {\n        /* \"Ethereum/PresaleSettings.sol\":134:1955  contract PresaleSettings is Ownable {\r... */\n      mstore(0x40, 0x80)\n      callvalue\n      dup1\n      iszero\n      tag_1\n      jumpi\n      0x00\n      dup1\n      revert\n    tag_1:\n      pop\n      jumpi(tag_2, lt(calldatasize, 0x04))\n      shr(0xe0, calldataload(0x00))\n      dup1\n      0x836807fc\n      gt\n      tag_13\n      jumpi\n      dup1\n      0x836807fc\n      eq\n      tag_8\n      jumpi\n      dup1\n      0x8da5cb5b\n      eq\n      tag_9\n      jumpi\n      dup1\n      0xaf2a75be\n      eq\n      tag_10\n      jumpi\n      dup1\n      0xdb03c400\n      eq\n      tag_11\n      jumpi\n      dup1\n      0xf2fde38b\n      eq\n      tag_12\n      jumpi\n      0x00\n      dup1\n      revert\n    tag_13:\n      dup1\n      0x08697ce5\n      eq\n      tag_3\n      jumpi\n      dup1\n      0x4f2d7e7a\n      eq\n      tag_4\n      jumpi\n      dup1\n      0x4f361c9a\n      eq\n      tag_5\n      jumpi\n      dup1\n      0x52ddffc3\n      eq\n      tag_6\n      jumpi\n      dup1\n      0x715018a6\n      eq\n      tag_7\n      jumpi\n    tag_2:\n      0x00\n      dup1\n      revert\n        /* \"Ethereum/PresaleSettings.sol\":1161:1284  function getBaseReceiveFeeAddress() public view returns(address) {\r... */\n    tag_3:\n        /* \"Ethereum/PresaleSettings.sol\":1244:1276  settingFee.baseReceiveFeeAddress */\n      and(sub(shl(0xa0, 0x01), 0x01), sload(0x03))\n        /* \"Ethereum/PresaleSettings.sol\":1161:1284  function getBaseReceiveFeeAddress() public view returns(address) {\r... */\n    tag_14:\n      mload(0x40)\n      sub(shl(0xa0, 0x01), 0x01)\n        /* \"#utility.yul\":1045:1077   */\n      swap1\n      swap2\n      and\n        /* \"#utility.yul\":1027:1078   */\n      dup2\n      mstore\n        /* \"#utility.yul\":1015:1017   */\n      0x20\n        /* \"#utility.yul\":1000:1018   */\n      add\n        /* \"Ethereum/PresaleSettings.sol\":1161:1284  function getBaseReceiveFeeAddress() public view returns(address) {\r... */\n    tag_16:\n      mload(0x40)\n      dup1\n      swap2\n      sub\n      swap1\n      return\n        /* \"Ethereum/PresaleSettings.sol\":1425:1952  function update(\r... */\n    tag_4:\n      tag_18\n      tag_19\n      calldatasize\n      0x04\n      tag_20\n      jump\t// in\n    tag_19:\n      tag_21\n      jump\t// in\n    tag_18:\n      stop\n        /* \"Ethereum/PresaleSettings.sol\":935:1032  function getClaimFee() public view returns(uint256) {\r... */\n    tag_5:\n        /* \"Ethereum/PresaleSettings.sol\":1005:1024  settingFee.claimFee */\n      sload(0x02)\n        /* \"Ethereum/PresaleSettings.sol\":935:1032  function getClaimFee() public view returns(uint256) {\r... */\n    tag_22:\n      mload(0x40)\n        /* \"#utility.yul\":2003:2028   */\n      swap1\n      dup2\n      mstore\n        /* \"#utility.yul\":1991:1993   */\n      0x20\n        /* \"#utility.yul\":1976:1994   */\n      add\n        /* \"Ethereum/PresaleSettings.sol\":935:1032  function getClaimFee() public view returns(uint256) {\r... */\n      tag_16\n        /* \"#utility.yul\":1958:2034   */\n      jump\n        /* \"Ethereum/PresaleSettings.sol\":1040:1153  function getFeeCreatePresale() public view returns(uint256) {\r... */\n    tag_6:\n        /* \"Ethereum/PresaleSettings.sol\":1118:1145  settingFee.feeCreatePresale */\n      sload(0x05)\n        /* \"Ethereum/PresaleSettings.sol\":1040:1153  function getFeeCreatePresale() public view returns(uint256) {\r... */\n      jump(tag_22)\n        /* \"Utils/Ownable.sol\":1714:1817  function renounceOwnership() public virtual onlyOwner {\r... */\n    tag_7:\n      tag_18\n      tag_30\n      jump\t// in\n        /* \"Ethereum/PresaleSettings.sol\":828:927  function getRefundFee() public view returns(uint256) {\r... */\n    tag_8:\n        /* \"Ethereum/PresaleSettings.sol\":899:909  settingFee */\n      0x01\n        /* \"Ethereum/PresaleSettings.sol\":899:919  settingFee.refundFee */\n      sload\n        /* \"Ethereum/PresaleSettings.sol\":828:927  function getRefundFee() public view returns(uint256) {\r... */\n      jump(tag_22)\n        /* \"Utils/Ownable.sol\":1063:1150  function owner() public view virtual returns (address) {\r... */\n    tag_9:\n        /* \"Utils/Ownable.sol\":1109:1116  address */\n      0x00\n        /* \"Utils/Ownable.sol\":1136:1142  _owner */\n      sload\n      sub(shl(0xa0, 0x01), 0x01)\n      and\n        /* \"Utils/Ownable.sol\":1063:1150  function owner() public view virtual returns (address) {\r... */\n      jump(tag_14)\n        /* \"Ethereum/PresaleSettings.sol\":1292:1417  function getTokenReceiveFeeAddress() public view returns(address) {\r... */\n    tag_10:\n        /* \"Ethereum/PresaleSettings.sol\":1376:1409  settingFee.tokenReceiveFeeAddress */\n      and(sub(shl(0xa0, 0x01), 0x01), sload(0x04))\n        /* \"Ethereum/PresaleSettings.sol\":1292:1417  function getTokenReceiveFeeAddress() public view returns(address) {\r... */\n      jump(tag_14)\n        /* \"Ethereum/PresaleSettings.sol\":480:508  SettingFee public settingFee */\n    tag_11:\n      sload(0x01)\n      sload(0x02)\n      sload(0x03)\n      sload(0x04)\n      sload(0x05)\n      sload(0x06)\n      tag_40\n      swap6\n      swap5\n      swap4\n      sub(shl(0xa0, 0x01), 0x01)\n      swap1\n      dup2\n      and\n      swap4\n      and\n      swap2\n      swap1\n      dup7\n      jump\n    tag_40:\n      0x40\n      dup1\n      mload\n        /* \"#utility.yul\":2358:2383   */\n      swap7\n      dup8\n      mstore\n        /* \"#utility.yul\":2414:2416   */\n      0x20\n        /* \"#utility.yul\":2399:2417   */\n      dup8\n      add\n        /* \"#utility.yul\":2392:2426   */\n      swap6\n      swap1\n      swap6\n      mstore\n      sub(shl(0xa0, 0x01), 0x01)\n        /* \"#utility.yul\":2500:2515   */\n      swap4\n      dup5\n      and\n        /* \"#utility.yul\":2480:2498   */\n      swap5\n      dup7\n      add\n        /* \"#utility.yul\":2473:2516   */\n      swap5\n      swap1\n      swap5\n      mstore\n        /* \"#utility.yul\":2552:2567   */\n      swap2\n      and\n        /* \"#utility.yul\":2547:2549   */\n      0x60\n        /* \"#utility.yul\":2532:2550   */\n      dup5\n      add\n        /* \"#utility.yul\":2525:2568   */\n      mstore\n        /* \"#utility.yul\":2599:2602   */\n      0x80\n        /* \"#utility.yul\":2584:2603   */\n      dup4\n      add\n        /* \"#utility.yul\":2577:2612   */\n      mstore\n        /* \"#utility.yul\":2453:2456   */\n      0xa0\n        /* \"#utility.yul\":2628:2647   */\n      dup3\n      add\n        /* \"#utility.yul\":2621:2656   */\n      mstore\n        /* \"#utility.yul\":2345:2348   */\n      0xc0\n        /* \"#utility.yul\":2330:2349   */\n      add\n        /* \"Ethereum/PresaleSettings.sol\":480:508  SettingFee public settingFee */\n      tag_16\n        /* \"#utility.yul\":2312:2662   */\n      jump\n        /* \"Utils/Ownable.sol\":1972:2173  function transferOwnership(address newOwner) public virtual onlyOwner {\r... */\n    tag_12:\n      tag_18\n      tag_45\n      calldatasize\n      0x04\n      tag_46\n      jump\t// in\n    tag_45:\n      tag_47\n      jump\t// in\n        /* \"Ethereum/PresaleSettings.sol\":1425:1952  function update(\r... */\n    tag_21:\n        /* \"Utils/Ownable.sol\":1109:1116  address */\n      0x00\n        /* \"Utils/Ownable.sol\":1136:1142  _owner */\n      sload\n      sub(shl(0xa0, 0x01), 0x01)\n      and\n        /* \"Utils/Context.sol\":736:746  msg.sender */\n      caller\n        /* \"Utils/Ownable.sol\":1283:1306  owner() == _msgSender() */\n      eq\n        /* \"Utils/Ownable.sol\":1275:1343  require(owner() == _msgSender(), \"Ownable: caller is not the owner\") */\n      tag_53\n      jumpi\n      mload(0x40)\n      shl(0xe5, 0x461bcd)\n      dup2\n      mstore\n      0x04\n      add\n      tag_54\n      swap1\n      tag_55\n      jump\t// in\n    tag_54:\n      mload(0x40)\n      dup1\n      swap2\n      sub\n      swap1\n      revert\n    tag_53:\n        /* \"Ethereum/PresaleSettings.sol\":1670:1680  settingFee */\n      0x01\n        /* \"Ethereum/PresaleSettings.sol\":1670:1703  settingFee.refundFee = _refundFee */\n      swap5\n      swap1\n      swap5\n      sstore\n        /* \"Ethereum/PresaleSettings.sol\":1715:1734  settingFee.claimFee */\n      0x02\n        /* \"Ethereum/PresaleSettings.sol\":1715:1746  settingFee.claimFee = _claimFee */\n      swap3\n      swap1\n      swap3\n      sstore\n        /* \"Ethereum/PresaleSettings.sol\":1758:1785  settingFee.feeCreatePresale */\n      0x05\n        /* \"Ethereum/PresaleSettings.sol\":1758:1805  settingFee.feeCreatePresale = _feeCreatePresale */\n      swap3\n      swap1\n      swap3\n      sstore\n        /* \"Ethereum/PresaleSettings.sol\":1817:1849  settingFee.baseReceiveFeeAddress */\n      0x03\n        /* \"Ethereum/PresaleSettings.sol\":1817:1874  settingFee.baseReceiveFeeAddress = _baseReceiveFeeAddress */\n      dup1\n      sload\n      sub(shl(0xa0, 0x01), 0x01)\n      swap4\n      dup5\n      and\n      not(sub(shl(0xa0, 0x01), 0x01))\n      swap2\n      dup3\n      and\n      or\n      swap1\n      swap2\n      sstore\n        /* \"Ethereum/PresaleSettings.sol\":1758:1785  settingFee.feeCreatePresale */\n      0x04\n        /* \"Ethereum/PresaleSettings.sol\":1885:1944  settingFee.tokenReceiveFeeAddress = _tokenReceiveFeeAddress */\n      dup1\n      sload\n      swap3\n      swap1\n      swap4\n      and\n      swap2\n      and\n      or\n      swap1\n      sstore\n        /* \"Ethereum/PresaleSettings.sol\":1425:1952  function update(\r... */\n      jump\t// out\n        /* \"Utils/Ownable.sol\":1714:1817  function renounceOwnership() public virtual onlyOwner {\r... */\n    tag_30:\n        /* \"Utils/Ownable.sol\":1109:1116  address */\n      0x00\n        /* \"Utils/Ownable.sol\":1136:1142  _owner */\n      sload\n      sub(shl(0xa0, 0x01), 0x01)\n      and\n        /* \"Utils/Context.sol\":736:746  msg.sender */\n      caller\n        /* \"Utils/Ownable.sol\":1283:1306  owner() == _msgSender() */\n      eq\n        /* \"Utils/Ownable.sol\":1275:1343  require(owner() == _msgSender(), \"Ownable: caller is not the owner\") */\n      tag_62\n      jumpi\n      mload(0x40)\n      shl(0xe5, 0x461bcd)\n      dup2\n      mstore\n      0x04\n      add\n      tag_54\n      swap1\n      tag_55\n      jump\t// in\n    tag_62:\n        /* \"Utils/Ownable.sol\":1779:1809  _transferOwnership(address(0)) */\n      tag_65\n        /* \"Utils/Ownable.sol\":1806:1807  0 */\n      0x00\n        /* \"Utils/Ownable.sol\":1779:1797  _transferOwnership */\n      tag_66\n        /* \"Utils/Ownable.sol\":1779:1809  _transferOwnership(address(0)) */\n      jump\t// in\n    tag_65:\n        /* \"Utils/Ownable.sol\":1714:1817  function renounceOwnership() public virtual onlyOwner {\r... */\n      jump\t// out\n        /* \"Utils/Ownable.sol\":1972:2173  function transferOwnership(address newOwner) public virtual onlyOwner {\r... */\n    tag_47:\n        /* \"Utils/Ownable.sol\":1109:1116  address */\n      0x00\n        /* \"Utils/Ownable.sol\":1136:1142  _owner */\n      sload\n      sub(shl(0xa0, 0x01), 0x01)\n      and\n        /* \"Utils/Context.sol\":736:746  msg.sender */\n      caller\n        /* \"Utils/Ownable.sol\":1283:1306  owner() == _msgSender() */\n      eq\n        /* \"Utils/Ownable.sol\":1275:1343  require(owner() == _msgSender(), \"Ownable: caller is not the owner\") */\n      tag_73\n      jumpi\n      mload(0x40)\n      shl(0xe5, 0x461bcd)\n      dup2\n      mstore\n      0x04\n      add\n      tag_54\n      swap1\n      tag_55\n      jump\t// in\n    tag_73:\n      sub(shl(0xa0, 0x01), 0x01)\n        /* \"Utils/Ownable.sol\":2061:2083  newOwner != address(0) */\n      dup2\n      and\n        /* \"Utils/Ownable.sol\":2053:2126  require(newOwner != address(0), \"Ownable: new owner is the zero address\") */\n      tag_76\n      jumpi\n      mload(0x40)\n      shl(0xe5, 0x461bcd)\n      dup2\n      mstore\n        /* \"#utility.yul\":1291:1293   */\n      0x20\n        /* \"Utils/Ownable.sol\":2053:2126  require(newOwner != address(0), \"Ownable: new owner is the zero address\") */\n      0x04\n      dup3\n      add\n        /* \"#utility.yul\":1273:1294   */\n      mstore\n        /* \"#utility.yul\":1330:1332   */\n      0x26\n        /* \"#utility.yul\":1310:1328   */\n      0x24\n      dup3\n      add\n        /* \"#utility.yul\":1303:1333   */\n      mstore\n        /* \"#utility.yul\":1369:1403   */\n      0x4f776e61626c653a206e6577206f776e657220697320746865207a65726f2061\n        /* \"#utility.yul\":1349:1367   */\n      0x44\n      dup3\n      add\n        /* \"#utility.yul\":1342:1404   */\n      mstore\n      shl(0xd0, 0x646472657373)\n        /* \"#utility.yul\":1420:1438   */\n      0x64\n      dup3\n      add\n        /* \"#utility.yul\":1413:1449   */\n      mstore\n        /* \"#utility.yul\":1466:1485   */\n      0x84\n      add\n        /* \"Utils/Ownable.sol\":2053:2126  require(newOwner != address(0), \"Ownable: new owner is the zero address\") */\n      tag_54\n        /* \"#utility.yul\":1263:1491   */\n      jump\n        /* \"Utils/Ownable.sol\":2053:2126  require(newOwner != address(0), \"Ownable: new owner is the zero address\") */\n    tag_76:\n        /* \"Utils/Ownable.sol\":2137:2165  _transferOwnership(newOwner) */\n      tag_79\n        /* \"Utils/Ownable.sol\":2156:2164  newOwner */\n      dup2\n        /* \"Utils/Ownable.sol\":2137:2155  _transferOwnership */\n      tag_66\n        /* \"Utils/Ownable.sol\":2137:2165  _transferOwnership(newOwner) */\n      jump\t// in\n    tag_79:\n        /* \"Utils/Ownable.sol\":1972:2173  function transferOwnership(address newOwner) public virtual onlyOwner {\r... */\n      pop\n      jump\t// out\n        /* \"Utils/Ownable.sol\":2333:2524  function _transferOwnership(address newOwner) internal virtual {\r... */\n    tag_66:\n        /* \"Utils/Ownable.sol\":2407:2423  address oldOwner */\n      0x00\n        /* \"Utils/Ownable.sol\":2426:2432  _owner */\n      dup1\n      sload\n      sub(shl(0xa0, 0x01), 0x01)\n        /* \"Utils/Ownable.sol\":2443:2460  _owner = newOwner */\n      dup4\n      dup2\n      and\n      not(sub(shl(0xa0, 0x01), 0x01))\n      dup4\n      and\n      dup2\n      or\n      dup5\n      sstore\n        /* \"Utils/Ownable.sol\":2476:2516  OwnershipTransferred(oldOwner, newOwner) */\n      mload(0x40)\n        /* \"Utils/Ownable.sol\":2426:2432  _owner */\n      swap2\n      swap1\n      swap3\n      and\n      swap3\n      dup4\n      swap2\n        /* \"Utils/Ownable.sol\":2476:2516  OwnershipTransferred(oldOwner, newOwner) */\n      0x8be0079c531659141344cd1fd0a4f28419497f9722a3daafe3b4186f6b6457e0\n      swap2\n        /* \"Utils/Ownable.sol\":2407:2423  address oldOwner */\n      swap1\n        /* \"Utils/Ownable.sol\":2476:2516  OwnershipTransferred(oldOwner, newOwner) */\n      log3\n        /* \"Utils/Ownable.sol\":2396:2524  {\r... */\n      pop\n        /* \"Utils/Ownable.sol\":2333:2524  function _transferOwnership(address newOwner) internal virtual {\r... */\n      pop\n      jump\t// out\n        /* \"#utility.yul\":14:261   */\n    tag_46:\n        /* \"#utility.yul\":73:79   */\n      0x00\n        /* \"#utility.yul\":126:128   */\n      0x20\n        /* \"#utility.yul\":114:123   */\n      dup3\n        /* \"#utility.yul\":105:112   */\n      dup5\n        /* \"#utility.yul\":101:124   */\n      sub\n        /* \"#utility.yul\":97:129   */\n      slt\n        /* \"#utility.yul\":94:96   */\n      iszero\n      tag_84\n      jumpi\n        /* \"#utility.yul\":142:143   */\n      0x00\n        /* \"#utility.yul\":139:140   */\n      dup1\n        /* \"#utility.yul\":132:144   */\n      revert\n        /* \"#utility.yul\":94:96   */\n    tag_84:\n        /* \"#utility.yul\":181:190   */\n      dup2\n        /* \"#utility.yul\":168:191   */\n      calldataload\n        /* \"#utility.yul\":200:231   */\n      tag_85\n        /* \"#utility.yul\":225:230   */\n      dup2\n        /* \"#utility.yul\":200:231   */\n      tag_86\n      jump\t// in\n    tag_85:\n        /* \"#utility.yul\":250:255   */\n      swap4\n        /* \"#utility.yul\":84:261   */\n      swap3\n      pop\n      pop\n      pop\n      jump\t// out\n        /* \"#utility.yul\":266:876   */\n    tag_20:\n        /* \"#utility.yul\":377:383   */\n      0x00\n        /* \"#utility.yul\":385:391   */\n      dup1\n        /* \"#utility.yul\":393:399   */\n      0x00\n        /* \"#utility.yul\":401:407   */\n      dup1\n        /* \"#utility.yul\":409:415   */\n      0x00\n        /* \"#utility.yul\":462:465   */\n      0xa0\n        /* \"#utility.yul\":450:459   */\n      dup7\n        /* \"#utility.yul\":441:448   */\n      dup9\n        /* \"#utility.yul\":437:460   */\n      sub\n        /* \"#utility.yul\":433:466   */\n      slt\n        /* \"#utility.yul\":430:432   */\n      iszero\n      tag_88\n      jumpi\n        /* \"#utility.yul\":479:480   */\n      0x00\n        /* \"#utility.yul\":476:477   */\n      dup1\n        /* \"#utility.yul\":469:481   */\n      revert\n        /* \"#utility.yul\":430:432   */\n    tag_88:\n        /* \"#utility.yul\":515:524   */\n      dup6\n        /* \"#utility.yul\":502:525   */\n      calldataload\n        /* \"#utility.yul\":492:525   */\n      swap5\n      pop\n        /* \"#utility.yul\":572:574   */\n      0x20\n        /* \"#utility.yul\":561:570   */\n      dup7\n        /* \"#utility.yul\":557:575   */\n      add\n        /* \"#utility.yul\":544:576   */\n      calldataload\n        /* \"#utility.yul\":534:576   */\n      swap4\n      pop\n        /* \"#utility.yul\":626:628   */\n      0x40\n        /* \"#utility.yul\":615:624   */\n      dup7\n        /* \"#utility.yul\":611:629   */\n      add\n        /* \"#utility.yul\":598:630   */\n      calldataload\n        /* \"#utility.yul\":639:670   */\n      tag_89\n        /* \"#utility.yul\":664:669   */\n      dup2\n        /* \"#utility.yul\":639:670   */\n      tag_86\n      jump\t// in\n    tag_89:\n        /* \"#utility.yul\":689:694   */\n      swap3\n      pop\n        /* \"#utility.yul\":746:748   */\n      0x60\n        /* \"#utility.yul\":731:749   */\n      dup7\n      add\n        /* \"#utility.yul\":718:750   */\n      calldataload\n        /* \"#utility.yul\":759:792   */\n      tag_90\n        /* \"#utility.yul\":718:750   */\n      dup2\n        /* \"#utility.yul\":759:792   */\n      tag_86\n      jump\t// in\n    tag_90:\n        /* \"#utility.yul\":420:876   */\n      swap5\n      swap8\n      swap4\n      swap7\n      pop\n      swap2\n      swap5\n        /* \"#utility.yul\":865:868   */\n      0x80\n        /* \"#utility.yul\":850:869   */\n      add\n        /* \"#utility.yul\":837:870   */\n      calldataload\n      swap3\n        /* \"#utility.yul\":420:876   */\n      swap2\n      pop\n      pop\n      jump\t// out\n        /* \"#utility.yul\":1496:1852   */\n    tag_55:\n        /* \"#utility.yul\":1698:1700   */\n      0x20\n        /* \"#utility.yul\":1680:1701   */\n      dup1\n      dup3\n      mstore\n        /* \"#utility.yul\":1717:1735   */\n      dup2\n      dup2\n      add\n        /* \"#utility.yul\":1710:1740   */\n      mstore\n        /* \"#utility.yul\":1776:1810   */\n      0x4f776e61626c653a2063616c6c6572206973206e6f7420746865206f776e6572\n        /* \"#utility.yul\":1771:1773   */\n      0x40\n        /* \"#utility.yul\":1756:1774   */\n      dup3\n      add\n        /* \"#utility.yul\":1749:1811   */\n      mstore\n        /* \"#utility.yul\":1843:1845   */\n      0x60\n        /* \"#utility.yul\":1828:1846   */\n      add\n      swap1\n        /* \"#utility.yul\":1670:1852   */\n      jump\t// out\n        /* \"#utility.yul\":2667:2798   */\n    tag_86:\n      sub(shl(0xa0, 0x01), 0x01)\n        /* \"#utility.yul\":2742:2773   */\n      dup2\n      and\n        /* \"#utility.yul\":2732:2774   */\n      dup2\n      eq\n        /* \"#utility.yul\":2722:2724   */\n      tag_79\n      jumpi\n        /* \"#utility.yul\":2788:2789   */\n      0x00\n        /* \"#utility.yul\":2785:2786   */\n      dup1\n        /* \"#utility.yul\":2778:2790   */\n      revert\n\n    auxdata: 0xa2646970667358221220ac5327b8218fa46b4af3502250a8d552f5df55849bad113193a5101224402f9364736f6c63430008050033\n}\n",
				"bytecode": {
					"linkReferences": {},
					"object": "608060405234801561001057600080fd5b5061001a33610057565b60646001556032600255670de0b6b3a764000060055560038054336001600160a01b031991821681179092556004805490911690911790556100a7565b600080546001600160a01b038381166001600160a01b0319831681178455604051919092169283917f8be0079c531659141344cd1fd0a4f28419497f9722a3daafe3b4186f6b6457e09190a35050565b61042f806100b66000396000f3fe608060405234801561001057600080fd5b506004361061009e5760003560e01c8063836807fc11610066578063836807fc146101045780638da5cb5b1461010c578063af2a75be1461011d578063db03c4001461012e578063f2fde38b1461019257600080fd5b806308697ce5146100a35780634f2d7e7a146100cd5780634f361c9a146100e257806352ddffc3146100f4578063715018a6146100fc575b600080fd5b6003546001600160a01b03165b6040516001600160a01b0390911681526020015b60405180910390f35b6100e06100db36600461035d565b6101a5565b005b6002545b6040519081526020016100c4565b6005546100e6565b6100e0610218565b6001546100e6565b6000546001600160a01b03166100b0565b6004546001600160a01b03166100b0565b6001546002546003546004546005546006546101589594936001600160a01b039081169316919086565b6040805196875260208701959095526001600160a01b039384169486019490945291166060840152608083015260a082015260c0016100c4565b6100e06101a0366004610339565b61024e565b6000546001600160a01b031633146101d85760405162461bcd60e51b81526004016101cf906103af565b60405180910390fd5b600194909455600292909255600592909255600380546001600160a01b039384166001600160a01b03199182161790915560048054929093169116179055565b6000546001600160a01b031633146102425760405162461bcd60e51b81526004016101cf906103af565b61024c60006102e9565b565b6000546001600160a01b031633146102785760405162461bcd60e51b81526004016101cf906103af565b6001600160a01b0381166102dd5760405162461bcd60e51b815260206004820152602660248201527f4f776e61626c653a206e6577206f776e657220697320746865207a65726f206160448201526564647265737360d01b60648201526084016101cf565b6102e6816102e9565b50565b600080546001600160a01b038381166001600160a01b0319831681178455604051919092169283917f8be0079c531659141344cd1fd0a4f28419497f9722a3daafe3b4186f6b6457e09190a35050565b60006020828403121561034b57600080fd5b8135610356816103e4565b9392505050565b600080600080600060a0868803121561037557600080fd5b8535945060208601359350604086013561038e816103e4565b9250606086013561039e816103e4565b949793965091946080013592915050565b6020808252818101527f4f776e61626c653a2063616c6c6572206973206e6f7420746865206f776e6572604082015260600190565b6001600160a01b03811681146102e657600080fdfea2646970667358221220ac5327b8218fa46b4af3502250a8d552f5df55849bad113193a5101224402f9364736f6c63430008050033",
					"opcodes": "PUSH1 0x80 PUSH1 0x40 MSTORE CALLVALUE DUP1 ISZERO PUSH2 0x10 JUMPI PUSH1 0x0 DUP1 REVERT JUMPDEST POP PUSH2 0x1A CALLER PUSH2 0x57 JUMP JUMPDEST PUSH1 0x64 PUSH1 0x1 SSTORE PUSH1 0x32 PUSH1 0x2 SSTORE PUSH8 0xDE0B6B3A7640000 PUSH1 0x5 SSTORE PUSH1 0x3 DUP1 SLOAD CALLER PUSH1 0x1 PUSH1 0x1 PUSH1 0xA0 SHL SUB NOT SWAP2 DUP3 AND DUP2 OR SWAP1 SWAP3 SSTORE PUSH1 0x4 DUP1 SLOAD SWAP1 SWAP2 AND SWAP1 SWAP2 OR SWAP1 SSTORE PUSH2 0xA7 JUMP JUMPDEST PUSH1 0x0 DUP1 SLOAD PUSH1 0x1 PUSH1 0x1 PUSH1 0xA0 SHL SUB DUP4 DUP2 AND PUSH1 0x1 PUSH1 0x1 PUSH1 0xA0 SHL SUB NOT DUP4 AND DUP2 OR DUP5 SSTORE PUSH1 0x40 MLOAD SWAP2 SWAP1 SWAP3 AND SWAP3 DUP4 SWAP2 PUSH32 0x8BE0079C531659141344CD1FD0A4F28419497F9722A3DAAFE3B4186F6B6457E0 SWAP2 SWAP1 LOG3 POP POP JUMP JUMPDEST PUSH2 0x42F DUP1 PUSH2 0xB6 PUSH1 0x0 CODECOPY PUSH1 0x0 RETURN INVALID PUSH1 0x80 PUSH1 0x40 MSTORE CALLVALUE DUP1 ISZERO PUSH2 0x10 JUMPI PUSH1 0x0 DUP1 REVERT JUMPDEST POP PUSH1 0x4 CALLDATASIZE LT PUSH2 0x9E JUMPI PUSH1 0x0 CALLDATALOAD PUSH1 0xE0 SHR DUP1 PUSH4 0x836807FC GT PUSH2 0x66 JUMPI DUP1 PUSH4 0x836807FC EQ PUSH2 0x104 JUMPI DUP1 PUSH4 0x8DA5CB5B EQ PUSH2 0x10C JUMPI DUP1 PUSH4 0xAF2A75BE EQ PUSH2 0x11D JUMPI DUP1 PUSH4 0xDB03C400 EQ PUSH2 0x12E JUMPI DUP1 PUSH4 0xF2FDE38B EQ PUSH2 0x192 JUMPI PUSH1 0x0 DUP1 REVERT JUMPDEST DUP1 PUSH4 0x8697CE5 EQ PUSH2 0xA3 JUMPI DUP1 PUSH4 0x4F2D7E7A EQ PUSH2 0xCD JUMPI DUP1 PUSH4 0x4F361C9A EQ PUSH2 0xE2 JUMPI DUP1 PUSH4 0x52DDFFC3 EQ PUSH2 0xF4 JUMPI DUP1 PUSH4 0x715018A6 EQ PUSH2 0xFC JUMPI JUMPDEST PUSH1 0x0 DUP1 REVERT JUMPDEST PUSH1 0x3 SLOAD PUSH1 0x1 PUSH1 0x1 PUSH1 0xA0 SHL SUB AND JUMPDEST PUSH1 0x40 MLOAD PUSH1 0x1 PUSH1 0x1 PUSH1 0xA0 SHL SUB SWAP1 SWAP2 AND DUP2 MSTORE PUSH1 0x20 ADD JUMPDEST PUSH1 0x40 MLOAD DUP1 SWAP2 SUB SWAP1 RETURN JUMPDEST PUSH2 0xE0 PUSH2 0xDB CALLDATASIZE PUSH1 0x4 PUSH2 0x35D JUMP JUMPDEST PUSH2 0x1A5 JUMP JUMPDEST STOP JUMPDEST PUSH1 0x2 SLOAD JUMPDEST PUSH1 0x40 MLOAD SWAP1 DUP2 MSTORE PUSH1 0x20 ADD PUSH2 0xC4 JUMP JUMPDEST PUSH1 0x5 SLOAD PUSH2 0xE6 JUMP JUMPDEST PUSH2 0xE0 PUSH2 0x218 JUMP JUMPDEST PUSH1 0x1 SLOAD PUSH2 0xE6 JUMP JUMPDEST PUSH1 0x0 SLOAD PUSH1 0x1 PUSH1 0x1 PUSH1 0xA0 SHL SUB AND PUSH2 0xB0 JUMP JUMPDEST PUSH1 0x4 SLOAD PUSH1 0x1 PUSH1 0x1 PUSH1 0xA0 SHL SUB AND PUSH2 0xB0 JUMP JUMPDEST PUSH1 0x1 SLOAD PUSH1 0x2 SLOAD PUSH1 0x3 SLOAD PUSH1 0x4 SLOAD PUSH1 0x5 SLOAD PUSH1 0x6 SLOAD PUSH2 0x158 SWAP6 SWAP5 SWAP4 PUSH1 0x1 PUSH1 0x1 PUSH1 0xA0 SHL SUB SWAP1 DUP2 AND SWAP4 AND SWAP2 SWAP1 DUP7 JUMP JUMPDEST PUSH1 0x40 DUP1 MLOAD SWAP7 DUP8 MSTORE PUSH1 0x20 DUP8 ADD SWAP6 SWAP1 SWAP6 MSTORE PUSH1 0x1 PUSH1 0x1 PUSH1 0xA0 SHL SUB SWAP4 DUP5 AND SWAP5 DUP7 ADD SWAP5 SWAP1 SWAP5 MSTORE SWAP2 AND PUSH1 0x60 DUP5 ADD MSTORE PUSH1 0x80 DUP4 ADD MSTORE PUSH1 0xA0 DUP3 ADD MSTORE PUSH1 0xC0 ADD PUSH2 0xC4 JUMP JUMPDEST PUSH2 0xE0 PUSH2 0x1A0 CALLDATASIZE PUSH1 0x4 PUSH2 0x339 JUMP JUMPDEST PUSH2 0x24E JUMP JUMPDEST PUSH1 0x0 SLOAD PUSH1 0x1 PUSH1 0x1 PUSH1 0xA0 SHL SUB AND CALLER EQ PUSH2 0x1D8 JUMPI PUSH1 0x40 MLOAD PUSH3 0x461BCD PUSH1 0xE5 SHL DUP2 MSTORE PUSH1 0x4 ADD PUSH2 0x1CF SWAP1 PUSH2 0x3AF JUMP JUMPDEST PUSH1 0x40 MLOAD DUP1 SWAP2 SUB SWAP1 REVERT JUMPDEST PUSH1 0x1 SWAP5 SWAP1 SWAP5 SSTORE PUSH1 0x2 SWAP3 SWAP1 SWAP3 SSTORE PUSH1 0x5 SWAP3 SWAP1 SWAP3 SSTORE PUSH1 0x3 DUP1 SLOAD PUSH1 0x1 PUSH1 0x1 PUSH1 0xA0 SHL SUB SWAP4 DUP5 AND PUSH1 0x1 PUSH1 0x1 PUSH1 0xA0 SHL SUB NOT SWAP2 DUP3 AND OR SWAP1 SWAP2 SSTORE PUSH1 0x4 DUP1 SLOAD SWAP3 SWAP1 SWAP4 AND SWAP2 AND OR SWAP1 SSTORE JUMP JUMPDEST PUSH1 0x0 SLOAD PUSH1 0x1 PUSH1 0x1 PUSH1 0xA0 SHL SUB AND CALLER EQ PUSH2 0x242 JUMPI PUSH1 0x40 MLOAD PUSH3 0x461BCD PUSH1 0xE5 SHL DUP2 MSTORE PUSH1 0x4 ADD PUSH2 0x1CF SWAP1 PUSH2 0x3AF JUMP JUMPDEST PUSH2 0x24C PUSH1 0x0 PUSH2 0x2E9 JUMP JUMPDEST JUMP JUMPDEST PUSH1 0x0 SLOAD PUSH1 0x1 PUSH1 0x1 PUSH1 0xA0 SHL SUB AND CALLER EQ PUSH2 0x278 JUMPI PUSH1 0x40 MLOAD PUSH3 0x461BCD PUSH1 0xE5 SHL DUP2 MSTORE PUSH1 0x4 ADD PUSH2 0x1CF SWAP1 PUSH2 0x3AF JUMP JUMPDEST PUSH1 0x1 PUSH1 0x1 PUSH1 0xA0 SHL SUB DUP2 AND PUSH2 0x2DD JUMPI PUSH1 0x40 MLOAD PUSH3 0x461BCD PUSH1 0xE5 SHL DUP2 MSTORE PUSH1 0x20 PUSH1 0x4 DUP3 ADD MSTORE PUSH1 0x26 PUSH1 0x24 DUP3 ADD MSTORE PUSH32 0x4F776E61626C653A206E6577206F776E657220697320746865207A65726F2061 PUSH1 0x44 DUP3 ADD MSTORE PUSH6 0x646472657373 PUSH1 0xD0 SHL PUSH1 0x64 DUP3 ADD MSTORE PUSH1 0x84 ADD PUSH2 0x1CF JUMP JUMPDEST PUSH2 0x2E6 DUP2 PUSH2 0x2E9 JUMP JUMPDEST POP JUMP JUMPDEST PUSH1 0x0 DUP1 SLOAD PUSH1 0x1 PUSH1 0x1 PUSH1 0xA0 SHL SUB DUP4 DUP2 AND PUSH1 0x1 PUSH1 0x1 PUSH1 0xA0 SHL SUB NOT DUP4 AND DUP2 OR DUP5 SSTORE PUSH1 0x40 MLOAD SWAP2 SWAP1 SWAP3 AND SWAP3 DUP4 SWAP2 PUSH32 0x8BE0079C531659141344CD1FD0A4F28419497F9722A3DAAFE3B4186F6B6457E0 SWAP2 SWAP1 LOG3 POP POP JUMP JUMPDEST PUSH1 0x0 PUSH1 0x20 DUP3 DUP5 SUB SLT ISZERO PUSH2 0x34B JUMPI PUSH1 0x0 DUP1 REVERT JUMPDEST DUP2 CALLDATALOAD PUSH2 0x356 DUP2 PUSH2 0x3E4 JUMP JUMPDEST SWAP4 SWAP3 POP POP POP JUMP JUMPDEST PUSH1 0x0 DUP1 PUSH1 0x0 DUP1 PUSH1 0x0 PUSH1 0xA0 DUP7 DUP9 SUB SLT ISZERO PUSH2 0x375 JUMPI PUSH1 0x0 DUP1 REVERT JUMPDEST DUP6 CALLDATALOAD SWAP5 POP PUSH1 0x20 DUP7 ADD CALLDATALOAD SWAP4 POP PUSH1 0x40 DUP7 ADD CALLDATALOAD PUSH2 0x38E DUP2 PUSH2 0x3E4 JUMP JUMPDEST SWAP3 POP PUSH1 0x60 DUP7 ADD CALLDATALOAD PUSH2 0x39E DUP2 PUSH2 0x3E4 JUMP JUMPDEST SWAP5 SWAP8 SWAP4 SWAP7 POP SWAP2 SWAP5 PUSH1 0x80 ADD CALLDATALOAD SWAP3 SWAP2 POP POP JUMP JUMPDEST PUSH1 0x20 DUP1 DUP3 MSTORE DUP2 DUP2 ADD MSTORE PUSH32 0x4F776E61626C653A2063616C6C6572206973206E6F7420746865206F776E6572 PUSH1 0x40 DUP3 ADD MSTORE PUSH1 0x60 ADD SWAP1 JUMP JUMPDEST PUSH1 0x1 PUSH1 0x1 PUSH1 0xA0 SHL SUB DUP2 AND DUP2 EQ PUSH2 0x2E6 JUMPI PUSH1 0x0 DUP1 REVERT INVALID LOG2 PUSH5 0x6970667358 0x22 SLT KECCAK256 0xAC MSTORE8 0x27 0xB8 0x21 DUP16 LOG4 PUSH12 0x4AF3502250A8D552F5DF5584 SWAP12 0xAD GT BALANCE SWAP4 0xA5 LT SLT 0x24 BLOCKHASH 0x2F SWAP4 PUSH5 0x736F6C6343 STOP ADDMOD SDIV STOP CALLER "
				},
				"gasEstimates": {
					"creation": {
						"codeDepositCost": "214200",
						"executionCost": "140890",
						"totalCost": "355090"
					},
					"external": {
						"getBaseReceiveFeeAddress()": "2310",
						"getClaimFee()": "2326",
						"getFeeCreatePresale()": "2359",
						"getRefundFee()": "2292",
						"getTokenReceiveFeeAddress()": "2364",
						"owner()": "2342",
						"renounceOwnership()": "28203",
						"settingFee()": "13047",
						"transferOwnership(address)": "infinite",
						"update(uint256,uint256,address,address,uint256)": "infinite"
					}
				},
				"methodIdentifiers": {
					"getBaseReceiveFeeAddress()": "08697ce5",
					"getClaimFee()": "4f361c9a",
					"getFeeCreatePresale()": "52ddffc3",
					"getRefundFee()": "836807fc",
					"getTokenReceiveFeeAddress()": "af2a75be",
					"owner()": "8da5cb5b",
					"renounceOwnership()": "715018a6",
					"settingFee()": "db03c400",
					"transferOwnership(address)": "f2fde38b",
					"update(uint256,uint256,address,address,uint256)": "4f2d7e7a"
				}
			},
			"storageLayout": {
				"storage": [
					{
						"astId": 788,
						"contract": "Ethereum/PresaleSettings.sol:PresaleSettings",
						"label": "_owner",
						"offset": 0,
						"slot": "0",
						"type": "t_address"
					},
					{
						"astId": 25,
						"contract": "Ethereum/PresaleSettings.sol:PresaleSettings",
						"label": "settingFee",
						"offset": 0,
						"slot": "1",
						"type": "t_struct(SettingFee)22_storage"
					}
				],
				"types": {
					"t_address": {
						"encoding": "inplace",
						"label": "address",
						"numberOfBytes": "20"
					},
					"t_address_payable": {
						"encoding": "inplace",
						"label": "address payable",
						"numberOfBytes": "20"
					},
					"t_struct(SettingFee)22_storage": {
						"encoding": "inplace",
						"label": "struct PresaleSettings.SettingFee",
						"members": [
							{
								"astId": 11,
								"contract": "Ethereum/PresaleSettings.sol:PresaleSettings",
								"label": "refundFee",
								"offset": 0,
								"slot": "0",
								"type": "t_uint256"
							},
							{
								"astId": 13,
								"contract": "Ethereum/PresaleSettings.sol:PresaleSettings",
								"label": "claimFee",
								"offset": 0,
								"slot": "1",
								"type": "t_uint256"
							},
							{
								"astId": 15,
								"contract": "Ethereum/PresaleSettings.sol:PresaleSettings",
								"label": "baseReceiveFeeAddress",
								"offset": 0,
								"slot": "2",
								"type": "t_address_payable"
							},
							{
								"astId": 17,
								"contract": "Ethereum/PresaleSettings.sol:PresaleSettings",
								"label": "tokenReceiveFeeAddress",
								"offset": 0,
								"slot": "3",
								"type": "t_address_payable"
							},
							{
								"astId": 19,
								"contract": "Ethereum/PresaleSettings.sol:PresaleSettings",
								"label": "feeCreatePresale",
								"offset": 0,
								"slot": "4",
								"type": "t_uint256"
							},
							{
								"astId": 21,
								"contract": "Ethereum/PresaleSettings.sol:PresaleSettings",
								"label": "feeAnyone",
								"offset": 0,
								"slot": "5",
								"type": "t_uint256"
							}
						],
						"numberOfBytes": "192"
					},
					"t_uint256": {
						"encoding": "inplace",
						"label": "uint256",
						"numberOfBytes": "32"
					}
				}
			},
			"userdoc": {
				"kind": "user",
				"methods": {},
				"version": 1
			}
		}
	}
}