{
	"Ethereum/Presale.sol": {
		"Presale": {
			"abi": [
				{
					"inputs": [],
					"stateMutability": "payable",
					"type": "constructor"
				},
				{
					"anonymous": false,
					"inputs": [
						{
							"indexed": true,
							"internalType": "address",
							"name": "previousOwner",
							"type": "address"
						},
						{
							"indexed": true,
							"internalType": "address",
							"name": "newOwner",
							"type": "address"
						}
					],
					"name": "OwnershipTransferred",
					"type": "event"
				},
				{
					"inputs": [],
					"name": "WETH",
					"outputs": [
						{
							"internalType": "contract IERC20",
							"name": "",
							"type": "address"
						}
					],
					"stateMutability": "view",
					"type": "function"
				},
				{
					"inputs": [],
					"name": "backToken",
					"outputs": [],
					"stateMutability": "payable",
					"type": "function"
				},
				{
					"inputs": [
						{
							"internalType": "address",
							"name": "",
							"type": "address"
						}
					],
					"name": "buyerInfo",
					"outputs": [
						{
							"internalType": "uint256",
							"name": "baseDeposit",
							"type": "uint256"
						},
						{
							"internalType": "uint256",
							"name": "tokenOwner",
							"type": "uint256"
						},
						{
							"internalType": "uint256",
							"name": "lastWithDraw",
							"type": "uint256"
						},
						{
							"internalType": "uint256",
							"name": "totalTokenWithDraw",
							"type": "uint256"
						},
						{
							"internalType": "bool",
							"name": "isRefund",
							"type": "bool"
						},
						{
							"internalType": "bool",
							"name": "isClaim",
							"type": "bool"
						}
					],
					"stateMutability": "view",
					"type": "function"
				},
				{
					"inputs": [],
					"name": "checkAdminAddress",
					"outputs": [
						{
							"internalType": "bool",
							"name": "",
							"type": "bool"
						}
					],
					"stateMutability": "view",
					"type": "function"
				},
				{
					"inputs": [
						{
							"internalType": "uint256",
							"name": "_amount",
							"type": "uint256"
						}
					],
					"name": "deposit",
					"outputs": [
						{
							"internalType": "uint256",
							"name": "",
							"type": "uint256"
						}
					],
					"stateMutability": "view",
					"type": "function"
				},
				{
					"inputs": [],
					"name": "feeAnyone",
					"outputs": [
						{
							"internalType": "uint256",
							"name": "",
							"type": "uint256"
						}
					],
					"stateMutability": "view",
					"type": "function"
				},
				{
					"inputs": [
						{
							"internalType": "address",
							"name": "_address",
							"type": "address"
						}
					],
					"name": "getBalance",
					"outputs": [
						{
							"internalType": "uint256",
							"name": "",
							"type": "uint256"
						}
					],
					"stateMutability": "view",
					"type": "function"
				},
				{
					"inputs": [
						{
							"internalType": "address payable",
							"name": "_presaleOwner",
							"type": "address"
						},
						{
							"internalType": "contract ERC20",
							"name": "_saleToken",
							"type": "address"
						},
						{
							"internalType": "contract ERC20",
							"name": "_baseTOken",
							"type": "address"
						},
						{
							"internalType": "uint256[]",
							"name": "datas",
							"type": "uint256[]"
						}
					],
					"name": "initialSaleInfor",
					"outputs": [],
					"stateMutability": "nonpayable",
					"type": "function"
				},
				{
					"inputs": [],
					"name": "owner",
					"outputs": [
						{
							"internalType": "address",
							"name": "",
							"type": "address"
						}
					],
					"stateMutability": "view",
					"type": "function"
				},
				{
					"inputs": [],
					"name": "presaleStatus",
					"outputs": [
						{
							"internalType": "uint256",
							"name": "totalBaseCollected",
							"type": "uint256"
						},
						{
							"internalType": "uint256",
							"name": "totalTokenSold",
							"type": "uint256"
						},
						{
							"internalType": "uint256",
							"name": "totalTokenWithDraw",
							"type": "uint256"
						},
						{
							"internalType": "uint256",
							"name": "totalBaseWithDraw",
							"type": "uint256"
						},
						{
							"internalType": "uint256",
							"name": "numByer",
							"type": "uint256"
						},
						{
							"internalType": "uint256",
							"name": "totalFee",
							"type": "uint256"
						}
					],
					"stateMutability": "view",
					"type": "function"
				},
				{
					"inputs": [],
					"name": "renounceOwnership",
					"outputs": [],
					"stateMutability": "nonpayable",
					"type": "function"
				},
				{
					"inputs": [],
					"name": "saleInfor",
					"outputs": [
						{
							"internalType": "address payable",
							"name": "presaleOwner",
							"type": "address"
						},
						{
							"internalType": "contract ERC20",
							"name": "saleToken",
							"type": "address"
						},
						{
							"internalType": "contract ERC20",
							"name": "baseToken",
							"type": "address"
						},
						{
							"internalType": "uint256",
							"name": "tokenPrice",
							"type": "uint256"
						},
						{
							"internalType": "uint256",
							"name": "startSale",
							"type": "uint256"
						},
						{
							"internalType": "uint256",
							"name": "endSale",
							"type": "uint256"
						},
						{
							"internalType": "uint256",
							"name": "minSpendPerBuyer",
							"type": "uint256"
						},
						{
							"internalType": "uint256",
							"name": "maxSpendPerBuyer",
							"type": "uint256"
						},
						{
							"internalType": "uint256",
							"name": "refundFee",
							"type": "uint256"
						},
						{
							"internalType": "uint256",
							"name": "claimFee",
							"type": "uint256"
						},
						{
							"internalType": "bool",
							"name": "saleIsBaseToken",
							"type": "bool"
						}
					],
					"stateMutability": "view",
					"type": "function"
				},
				{
					"inputs": [],
					"name": "status",
					"outputs": [
						{
							"internalType": "uint256",
							"name": "",
							"type": "uint256"
						}
					],
					"stateMutability": "view",
					"type": "function"
				},
				{
					"inputs": [
						{
							"internalType": "uint256",
							"name": "amount",
							"type": "uint256"
						}
					],
					"name": "transferETH",
					"outputs": [],
					"stateMutability": "payable",
					"type": "function"
				},
				{
					"inputs": [
						{
							"internalType": "address",
							"name": "newOwner",
							"type": "address"
						}
					],
					"name": "transferOwnership",
					"outputs": [],
					"stateMutability": "nonpayable",
					"type": "function"
				},
				{
					"inputs": [
						{
							"internalType": "address",
							"name": "",
							"type": "address"
						}
					],
					"name": "userFee",
					"outputs": [
						{
							"internalType": "uint256",
							"name": "",
							"type": "uint256"
						}
					],
					"stateMutability": "view",
					"type": "function"
				}
			],
			"devdoc": {
				"kind": "dev",
				"methods": {
					"owner()": {
						"details": "Returns the address of the current owner."
					},
					"renounceOwnership()": {
						"details": "Leaves the contract without owner. It will not be possible to call `onlyOwner` functions anymore. Can only be called by the current owner. NOTE: Renouncing ownership will leave the contract without an owner, thereby removing any functionality that is only available to the owner."
					},
					"transferOwnership(address)": {
						"details": "Transfers ownership of the contract to a new account (`newOwner`). Can only be called by the current owner."
					}
				},
				"version": 1
			},
			"evm": {
				"assembly": "    /* \"Ethereum/Presale.sol\":338:4603  contract Presale is ReentrancyGuard, Ownable{\r... */\n  mstore(0x40, 0x80)\n    /* \"Utils/ReentrancyGuard.sol\":1734:1735  1 */\n  0x01\n    /* \"Utils/ReentrancyGuard.sol\":1845:1852  _status */\n  0x00\n    /* \"Utils/ReentrancyGuard.sol\":1845:1867  _status = _NOT_ENTERED */\n  sstore\n    /* \"Utils/Ownable.sol\":942:974  _transferOwnership(_msgSender()) */\n  tag_6\n    /* \"Utils/Context.sol\":736:746  msg.sender */\n  caller\n    /* \"Utils/Ownable.sol\":942:960  _transferOwnership */\n  tag_9\n    /* \"Utils/Ownable.sol\":942:974  _transferOwnership(_msgSender()) */\n  jump\t// in\ntag_6:\n    /* \"Ethereum/Presale.sol\":1866:1870  WETH */\n  0x16\n    /* \"Ethereum/Presale.sol\":1866:1922  WETH = ERC20(0xc778417E063141139Fce010982780140Aa0cD5Ab) */\n  dup1\n  sload\n    /* \"Ethereum/Presale.sol\":1879:1921  0xc778417E063141139Fce010982780140Aa0cD5Ab */\n  0xc778417e063141139fce010982780140aa0cd5ab\n  not(sub(shl(0xa0, 0x01), 0x01))\n    /* \"Ethereum/Presale.sol\":1866:1922  WETH = ERC20(0xc778417E063141139Fce010982780140Aa0cD5Ab) */\n  swap1\n  swap2\n  and\n  or\n  swap1\n  sstore\n    /* \"Ethereum/Presale.sol\":1933:1987  admins.add(0x6Ccb41eedA5a073076F3E7dC1614C185b5fA41eD) */\n  tag_11\n    /* \"Ethereum/Presale.sol\":1933:1939  admins */\n  0x18\n    /* \"Ethereum/Presale.sol\":1944:1986  0x6Ccb41eedA5a073076F3E7dC1614C185b5fA41eD */\n  0x6ccb41eeda5a073076f3e7dc1614c185b5fa41ed\n    /* \"Ethereum/Presale.sol\":1933:1943  admins.add */\n  tag_12\n  0x20\n  swap1\n  dup2\n  shl\n  tag_0_95\n  or\n    /* \"Ethereum/Presale.sol\":1933:1987  admins.add(0x6Ccb41eedA5a073076F3E7dC1614C185b5fA41eD) */\n  swap1\n  shr\n  jump\t// in\ntag_11:\n  pop\n    /* \"Ethereum/Presale.sol\":1998:2052  admins.add(0x4f0B12bBF40Fc182559822A5b1dB6D34dbC3E016) */\n  tag_13\n    /* \"Ethereum/Presale.sol\":2009:2051  0x4f0B12bBF40Fc182559822A5b1dB6D34dbC3E016 */\n  0x4f0b12bbf40fc182559822a5b1db6d34dbc3e016\n    /* \"Ethereum/Presale.sol\":1998:2004  admins */\n  0x18\n    /* \"Ethereum/Presale.sol\":1998:2008  admins.add */\n  or(tag_0_95, shl(0x20, tag_12))\n  swap1\n    /* \"Ethereum/Presale.sol\":1998:2052  admins.add(0x4f0B12bBF40Fc182559822A5b1dB6D34dbC3E016) */\n  swap2\n  swap1\n  0x20\n  shr\n  jump\t// in\ntag_13:\n  pop\n    /* \"Ethereum/Presale.sol\":2075:2077  20 */\n  0x14\n    /* \"Ethereum/Presale.sol\":2063:2072  feeAnyone */\n  0x17\n    /* \"Ethereum/Presale.sol\":2063:2077  feeAnyone = 20 */\n  sstore\n    /* \"Ethereum/Presale.sol\":338:4603  contract Presale is ReentrancyGuard, Ownable{\r... */\n  jump(tag_14)\n    /* \"Utils/Ownable.sol\":2333:2524  function _transferOwnership(address newOwner) internal virtual {\r... */\ntag_9:\n    /* \"Utils/Ownable.sol\":2426:2432  _owner */\n  0x01\n  dup1\n  sload\n  sub(shl(0xa0, 0x01), 0x01)\n    /* \"Utils/Ownable.sol\":2443:2460  _owner = newOwner */\n  dup4\n  dup2\n  and\n  not(sub(shl(0xa0, 0x01), 0x01))\n  dup4\n  and\n  dup2\n  or\n  swap1\n  swap4\n  sstore\n    /* \"Utils/Ownable.sol\":2476:2516  OwnershipTransferred(oldOwner, newOwner) */\n  mload(0x40)\n    /* \"Utils/Ownable.sol\":2426:2432  _owner */\n  swap2\n  and\n  swap2\n    /* \"Utils/Ownable.sol\":2443:2460  _owner = newOwner */\n  swap1\n    /* \"Utils/Ownable.sol\":2426:2432  _owner */\n  dup3\n  swap1\n    /* \"Utils/Ownable.sol\":2476:2516  OwnershipTransferred(oldOwner, newOwner) */\n  0x8be0079c531659141344cd1fd0a4f28419497f9722a3daafe3b4186f6b6457e0\n  swap1\n    /* \"Utils/Ownable.sol\":2407:2423  address oldOwner */\n  0x00\n  swap1\n    /* \"Utils/Ownable.sol\":2476:2516  OwnershipTransferred(oldOwner, newOwner) */\n  log3\n    /* \"Utils/Ownable.sol\":2333:2524  function _transferOwnership(address newOwner) internal virtual {\r... */\n  pop\n  pop\n  jump\t// out\n    /* \"Utils/EnumerableSet.sol\":8259:8411  function add(AddressSet storage set, address value) internal returns (bool) {\r... */\ntag_12:\n    /* \"Utils/EnumerableSet.sol\":8329:8333  bool */\n  0x00\n    /* \"Utils/EnumerableSet.sol\":8353:8403  _add(set._inner, bytes32(uint256(uint160(value)))) */\n  tag_18\n    /* \"Utils/EnumerableSet.sol\":8358:8361  set */\n  dup4\n  sub(shl(0xa0, 0x01), 0x01)\n    /* \"Utils/EnumerableSet.sol\":8378:8401  uint256(uint160(value)) */\n  dup5\n  and\n    /* \"Utils/EnumerableSet.sol\":8353:8357  _add */\n  tag_19\n    /* \"Utils/EnumerableSet.sol\":8353:8403  _add(set._inner, bytes32(uint256(uint160(value)))) */\n  jump\t// in\ntag_18:\n    /* \"Utils/EnumerableSet.sol\":8346:8403  return _add(set._inner, bytes32(uint256(uint160(value)))) */\n  swap1\n  pop\n    /* \"Utils/EnumerableSet.sol\":8259:8411  function add(AddressSet storage set, address value) internal returns (bool) {\r... */\ntag_17:\n  swap3\n  swap2\n  pop\n  pop\n  jump\t// out\n    /* \"Utils/EnumerableSet.sol\":2174:2588  function _add(Set storage set, bytes32 value) private returns (bool) {\r... */\ntag_19:\n    /* \"Utils/EnumerableSet.sol\":2237:2241  bool */\n  0x00\n    /* \"Utils/EnumerableSet.sol\":4367:4386  set._indexes[value] */\n  dup2\n  dup2\n  mstore\n    /* \"Utils/EnumerableSet.sol\":4367:4379  set._indexes */\n  0x01\n  dup4\n  add\n    /* \"Utils/EnumerableSet.sol\":4367:4386  set._indexes[value] */\n  0x20\n  mstore\n  0x40\n  dup2\n  keccak256\n  sload\n    /* \"Utils/EnumerableSet.sol\":2254:2581  if (!_contains(set, value)) {\r... */\n  tag_23\n  jumpi\n  pop\n    /* \"Utils/EnumerableSet.sol\":2297:2320  set._values.push(value) */\n  dup2\n  sload\n  0x01\n  dup2\n  dup2\n  add\n  dup5\n  sstore\n    /* \"Utils/EnumerableSet.sol\":2297:2308  set._values */\n  0x00\n    /* \"Utils/EnumerableSet.sol\":2297:2320  set._values.push(value) */\n  dup5\n  dup2\n  mstore\n  0x20\n  dup1\n  dup3\n  keccak256\n  swap1\n  swap4\n  add\n  dup5\n  swap1\n  sstore\n    /* \"Utils/EnumerableSet.sol\":2480:2498  set._values.length */\n  dup5\n  sload\n    /* \"Utils/EnumerableSet.sol\":2458:2477  set._indexes[value] */\n  dup5\n  dup3\n  mstore\n    /* \"Utils/EnumerableSet.sol\":2458:2470  set._indexes */\n  dup3\n  dup7\n  add\n    /* \"Utils/EnumerableSet.sol\":2458:2477  set._indexes[value] */\n  swap1\n  swap4\n  mstore\n  0x40\n  swap1\n  keccak256\n    /* \"Utils/EnumerableSet.sol\":2458:2498  set._indexes[value] = set._values.length */\n  swap2\n  swap1\n  swap2\n  sstore\n    /* \"Utils/EnumerableSet.sol\":2513:2524  return true */\n  jump(tag_17)\n    /* \"Utils/EnumerableSet.sol\":2254:2581  if (!_contains(set, value)) {\r... */\ntag_23:\n  pop\n    /* \"Utils/EnumerableSet.sol\":2564:2569  false */\n  0x00\n    /* \"Utils/EnumerableSet.sol\":2557:2569  return false */\n  jump(tag_17)\n    /* \"Ethereum/Presale.sol\":338:4603  contract Presale is ReentrancyGuard, Ownable{\r... */\ntag_14:\n  dataSize(sub_0)\n  dup1\n  dataOffset(sub_0)\n  0x00\n  codecopy\n  0x00\n  return\nstop\n\nsub_0: assembly {\n        /* \"Ethereum/Presale.sol\":338:4603  contract Presale is ReentrancyGuard, Ownable{\r... */\n      mstore(0x40, 0x80)\n      jumpi(tag_1, lt(calldatasize, 0x04))\n      shr(0xe0, calldataload(0x00))\n      dup1\n      0x8da5cb5b\n      gt\n      tag_18\n      jumpi\n      dup1\n      0xcad5b0f7\n      gt\n      tag_19\n      jumpi\n      dup1\n      0xcad5b0f7\n      eq\n      tag_14\n      jumpi\n      dup1\n      0xe2d3f423\n      eq\n      tag_15\n      jumpi\n      dup1\n      0xf2fde38b\n      eq\n      tag_16\n      jumpi\n      dup1\n      0xf8b2cb4f\n      eq\n      tag_17\n      jumpi\n      0x00\n      dup1\n      revert\n    tag_19:\n      dup1\n      0x8da5cb5b\n      eq\n      tag_10\n      jumpi\n      dup1\n      0xacfb2355\n      eq\n      tag_11\n      jumpi\n      dup1\n      0xad5c4648\n      eq\n      tag_12\n      jumpi\n      dup1\n      0xb6b55f25\n      eq\n      tag_13\n      jumpi\n      0x00\n      dup1\n      revert\n    tag_18:\n      dup1\n      0x56c5f349\n      gt\n      tag_20\n      jumpi\n      dup1\n      0x56c5f349\n      eq\n      tag_6\n      jumpi\n      dup1\n      0x715018a6\n      eq\n      tag_7\n      jumpi\n      dup1\n      0x82374b9f\n      eq\n      tag_8\n      jumpi\n      dup1\n      0x861faf5f\n      eq\n      tag_9\n      jumpi\n      0x00\n      dup1\n      revert\n    tag_20:\n      dup1\n      0x18856a2f\n      eq\n      tag_2\n      jumpi\n      dup1\n      0x200d2ed2\n      eq\n      tag_3\n      jumpi\n      dup1\n      0x3b5ef2ad\n      eq\n      tag_4\n      jumpi\n      dup1\n      0x4329db46\n      eq\n      tag_5\n      jumpi\n    tag_1:\n      0x00\n      dup1\n      revert\n        /* \"Ethereum/Presale.sol\":1455:1481  SaleInfor public saleInfor */\n    tag_2:\n      callvalue\n      dup1\n      iszero\n      tag_21\n      jumpi\n      0x00\n      dup1\n      revert\n    tag_21:\n      pop\n      sload(0x0b)\n      sload(0x0c)\n      sload(0x0d)\n      sload(0x0e)\n      sload(0x0f)\n      sload(0x10)\n      sload(0x11)\n      sload(0x12)\n      sload(0x13)\n      sload(0x14)\n      sload(0x15)\n      tag_22\n      swap11\n      sub(shl(0xa0, 0x01), 0x01)\n      swap1\n      dup2\n      and\n      swap11\n      dup2\n      and\n      swap10\n      and\n      swap8\n      swap7\n      swap6\n      swap5\n      swap4\n      swap3\n      swap2\n      swap1\n      0xff\n      and\n      dup12\n      jump\n    tag_22:\n      0x40\n      dup1\n      mload\n      sub(shl(0xa0, 0x01), 0x01)\n        /* \"#utility.yul\":3026:3041   */\n      swap13\n      dup14\n      and\n        /* \"#utility.yul\":3008:3042   */\n      dup2\n      mstore\n        /* \"#utility.yul\":3078:3093   */\n      swap11\n      dup13\n      and\n        /* \"#utility.yul\":3073:3075   */\n      0x20\n        /* \"#utility.yul\":3058:3076   */\n      dup13\n      add\n        /* \"#utility.yul\":3051:3094   */\n      mstore\n        /* \"#utility.yul\":3130:3145   */\n      swap9\n      swap1\n      swap11\n      and\n        /* \"#utility.yul\":3110:3128   */\n      swap8\n      dup10\n      add\n        /* \"#utility.yul\":3103:3146   */\n      swap8\n      swap1\n      swap8\n      mstore\n        /* \"#utility.yul\":3177:3179   */\n      0x60\n        /* \"#utility.yul\":3162:3180   */\n      dup9\n      add\n        /* \"#utility.yul\":3155:3189   */\n      swap6\n      swap1\n      swap6\n      mstore\n        /* \"#utility.yul\":3220:3223   */\n      0x80\n        /* \"#utility.yul\":3205:3224   */\n      dup8\n      add\n        /* \"#utility.yul\":3198:3233   */\n      swap4\n      swap1\n      swap4\n      mstore\n        /* \"#utility.yul\":2988:2991   */\n      0xa0\n        /* \"#utility.yul\":3249:3268   */\n      dup7\n      add\n        /* \"#utility.yul\":3242:3277   */\n      swap2\n      swap1\n      swap2\n      mstore\n        /* \"#utility.yul\":3308:3311   */\n      0xc0\n        /* \"#utility.yul\":3293:3312   */\n      dup6\n      add\n        /* \"#utility.yul\":3286:3321   */\n      mstore\n        /* \"#utility.yul\":3352:3355   */\n      0xe0\n        /* \"#utility.yul\":3337:3356   */\n      dup5\n      add\n        /* \"#utility.yul\":3330:3365   */\n      mstore\n        /* \"#utility.yul\":3396:3399   */\n      0x0100\n        /* \"#utility.yul\":3381:3400   */\n      dup4\n      add\n        /* \"#utility.yul\":3374:3409   */\n      mstore\n        /* \"#utility.yul\":3440:3443   */\n      0x0120\n        /* \"#utility.yul\":3425:3444   */\n      dup3\n      add\n        /* \"#utility.yul\":3418:3453   */\n      mstore\n        /* \"#utility.yul\":3497:3512   */\n      swap1\n      iszero\n        /* \"#utility.yul\":3490:3513   */\n      iszero\n        /* \"#utility.yul\":3484:3487   */\n      0x0140\n        /* \"#utility.yul\":3469:3488   */\n      dup3\n      add\n        /* \"#utility.yul\":3462:3514   */\n      mstore\n        /* \"#utility.yul\":2957:2960   */\n      0x0160\n        /* \"#utility.yul\":2942:2961   */\n      add\n        /* \"Ethereum/Presale.sol\":1455:1481  SaleInfor public saleInfor */\n    tag_24:\n      mload(0x40)\n      dup1\n      swap2\n      sub\n      swap1\n      return\n        /* \"Ethereum/Presale.sol\":2799:3136  function status() public view returns(uint256) {\r... */\n    tag_3:\n      callvalue\n      dup1\n      iszero\n      tag_26\n      jumpi\n      0x00\n      dup1\n      revert\n    tag_26:\n      pop\n      tag_27\n      tag_28\n      jump\t// in\n    tag_27:\n      mload(0x40)\n        /* \"#utility.yul\":5537:5562   */\n      swap1\n      dup2\n      mstore\n        /* \"#utility.yul\":5525:5527   */\n      0x20\n        /* \"#utility.yul\":5510:5528   */\n      add\n        /* \"Ethereum/Presale.sol\":2799:3136  function status() public view returns(uint256) {\r... */\n      tag_24\n        /* \"#utility.yul\":5492:5568   */\n      jump\n        /* \"Ethereum/Presale.sol\":1513:1537  uint256 public feeAnyone */\n    tag_4:\n      callvalue\n      dup1\n      iszero\n      tag_31\n      jumpi\n      0x00\n      dup1\n      revert\n    tag_31:\n      pop\n      tag_27\n      sload(0x17)\n      dup2\n      jump\n        /* \"Ethereum/Presale.sol\":4477:4598  function transferETH(uint256 amount) external payable {\r... */\n    tag_5:\n      tag_35\n      tag_36\n      calldatasize\n      0x04\n      tag_37\n      jump\t// in\n    tag_36:\n      tag_38\n      jump\t// in\n    tag_35:\n      stop\n        /* \"Ethereum/Presale.sol\":1365:1407  mapping(address => uint256) public userFee */\n    tag_6:\n      callvalue\n      dup1\n      iszero\n      tag_39\n      jumpi\n      0x00\n      dup1\n      revert\n    tag_39:\n      pop\n      tag_27\n      tag_41\n      calldatasize\n      0x04\n      tag_42\n      jump\t// in\n    tag_41:\n      mstore(0x20, 0x03)\n      0x00\n      swap1\n      dup2\n      mstore\n      0x40\n      swap1\n      keccak256\n      sload\n      dup2\n      jump\n        /* \"Utils/Ownable.sol\":1714:1817  function renounceOwnership() public virtual onlyOwner {\r... */\n    tag_7:\n      callvalue\n      dup1\n      iszero\n      tag_45\n      jumpi\n      0x00\n      dup1\n      revert\n    tag_45:\n      pop\n      tag_35\n      tag_47\n      jump\t// in\n        /* \"Ethereum/Presale.sol\":2093:2790  function initialSaleInfor(\r... */\n    tag_8:\n      callvalue\n      dup1\n      iszero\n      tag_48\n      jumpi\n      0x00\n      dup1\n      revert\n    tag_48:\n      pop\n      tag_35\n      tag_50\n      calldatasize\n      0x04\n      tag_51\n      jump\t// in\n    tag_50:\n      tag_52\n      jump\t// in\n        /* \"Ethereum/Presale.sol\":4361:4469  function backToken() external payable {\r... */\n    tag_9:\n      tag_35\n      tag_54\n      jump\t// in\n        /* \"Utils/Ownable.sol\":1063:1150  function owner() public view virtual returns (address) {\r... */\n    tag_10:\n      callvalue\n      dup1\n      iszero\n      tag_55\n      jumpi\n      0x00\n      dup1\n      revert\n    tag_55:\n      pop\n        /* \"Utils/Ownable.sol\":1136:1142  _owner */\n      and(sub(shl(0xa0, 0x01), 0x01), sload(0x01))\n        /* \"Utils/Ownable.sol\":1063:1150  function owner() public view virtual returns (address) {\r... */\n    tag_56:\n      mload(0x40)\n      sub(shl(0xa0, 0x01), 0x01)\n        /* \"#utility.yul\":2462:2494   */\n      swap1\n      swap2\n      and\n        /* \"#utility.yul\":2444:2495   */\n      dup2\n      mstore\n        /* \"#utility.yul\":2432:2434   */\n      0x20\n        /* \"#utility.yul\":2417:2435   */\n      add\n        /* \"Utils/Ownable.sol\":1063:1150  function owner() public view virtual returns (address) {\r... */\n      tag_24\n        /* \"#utility.yul\":2399:2501   */\n      jump\n        /* \"Ethereum/Presale.sol\":1414:1448  PresaleStatus public presaleStatus */\n    tag_11:\n      callvalue\n      dup1\n      iszero\n      tag_60\n      jumpi\n      0x00\n      dup1\n      revert\n    tag_60:\n      pop\n      sload(0x04)\n      sload(0x05)\n      sload(0x06)\n      sload(0x07)\n      sload(0x08)\n      sload(0x09)\n      tag_61\n      swap6\n      swap5\n      swap4\n      swap3\n      swap2\n      swap1\n      dup7\n      jump\n    tag_61:\n      0x40\n      dup1\n      mload\n        /* \"#utility.yul\":6420:6445   */\n      swap7\n      dup8\n      mstore\n        /* \"#utility.yul\":6476:6478   */\n      0x20\n        /* \"#utility.yul\":6461:6479   */\n      dup8\n      add\n        /* \"#utility.yul\":6454:6488   */\n      swap6\n      swap1\n      swap6\n      mstore\n        /* \"#utility.yul\":6504:6522   */\n      swap4\n      dup6\n      add\n        /* \"#utility.yul\":6497:6531   */\n      swap3\n      swap1\n      swap3\n      mstore\n        /* \"#utility.yul\":6562:6564   */\n      0x60\n        /* \"#utility.yul\":6547:6565   */\n      dup5\n      add\n        /* \"#utility.yul\":6540:6574   */\n      mstore\n        /* \"#utility.yul\":6605:6608   */\n      0x80\n        /* \"#utility.yul\":6590:6609   */\n      dup4\n      add\n        /* \"#utility.yul\":6583:6618   */\n      mstore\n        /* \"#utility.yul\":6649:6652   */\n      0xa0\n        /* \"#utility.yul\":6634:6653   */\n      dup3\n      add\n        /* \"#utility.yul\":6627:6662   */\n      mstore\n        /* \"#utility.yul\":6407:6410   */\n      0xc0\n        /* \"#utility.yul\":6392:6411   */\n      add\n        /* \"Ethereum/Presale.sol\":1414:1448  PresaleStatus public presaleStatus */\n      tag_24\n        /* \"#utility.yul\":6374:6668   */\n      jump\n        /* \"Ethereum/Presale.sol\":1488:1506  IERC20 public WETH */\n    tag_12:\n      callvalue\n      dup1\n      iszero\n      tag_65\n      jumpi\n      0x00\n      dup1\n      revert\n    tag_65:\n      pop\n      sload(0x16)\n      tag_56\n      swap1\n      sub(shl(0xa0, 0x01), 0x01)\n      and\n      dup2\n      jump\n        /* \"Ethereum/Presale.sol\":3263:4231  function deposit(uint256 _amount) external view returns(uint256) {\r... */\n    tag_13:\n      callvalue\n      dup1\n      iszero\n      tag_70\n      jumpi\n      0x00\n      dup1\n      revert\n    tag_70:\n      pop\n      tag_27\n      tag_72\n      calldatasize\n      0x04\n      tag_37\n      jump\t// in\n    tag_72:\n      tag_73\n      jump\t// in\n        /* \"Ethereum/Presale.sol\":3145:3255  function checkAdminAddress() public view returns(bool) {\r... */\n    tag_14:\n      callvalue\n      dup1\n      iszero\n      tag_75\n      jumpi\n      0x00\n      dup1\n      revert\n    tag_75:\n      pop\n      tag_76\n      tag_77\n      jump\t// in\n    tag_76:\n      mload(0x40)\n        /* \"#utility.yul\":3690:3704   */\n      swap1\n      iszero\n        /* \"#utility.yul\":3683:3705   */\n      iszero\n        /* \"#utility.yul\":3665:3706   */\n      dup2\n      mstore\n        /* \"#utility.yul\":3653:3655   */\n      0x20\n        /* \"#utility.yul\":3638:3656   */\n      add\n        /* \"Ethereum/Presale.sol\":3145:3255  function checkAdminAddress() public view returns(bool) {\r... */\n      tag_24\n        /* \"#utility.yul\":3620:3712   */\n      jump\n        /* \"Ethereum/Presale.sol\":1312:1358  mapping(address => BuyerInfo) public buyerInfo */\n    tag_15:\n      callvalue\n      dup1\n      iszero\n      tag_80\n      jumpi\n      0x00\n      dup1\n      revert\n    tag_80:\n      pop\n      tag_81\n      tag_82\n      calldatasize\n      0x04\n      tag_42\n      jump\t// in\n    tag_82:\n      0x02\n      0x20\n      dup2\n      swap1\n      mstore\n      0x00\n      swap2\n      dup3\n      mstore\n      0x40\n      swap1\n      swap2\n      keccak256\n      dup1\n      sload\n      0x01\n      dup3\n      add\n      sload\n      swap3\n      dup3\n      add\n      sload\n      0x03\n      dup4\n      add\n      sload\n      0x04\n      swap1\n      swap4\n      add\n      sload\n      swap2\n      swap4\n      swap3\n      swap1\n      swap2\n      0xff\n      dup1\n      dup3\n      and\n      swap2\n      0x0100\n      swap1\n      div\n      and\n      dup7\n      jump\n    tag_81:\n      0x40\n      dup1\n      mload\n        /* \"#utility.yul\":5848:5873   */\n      swap7\n      dup8\n      mstore\n        /* \"#utility.yul\":5904:5906   */\n      0x20\n        /* \"#utility.yul\":5889:5907   */\n      dup8\n      add\n        /* \"#utility.yul\":5882:5916   */\n      swap6\n      swap1\n      swap6\n      mstore\n        /* \"#utility.yul\":5932:5950   */\n      swap4\n      dup6\n      add\n        /* \"#utility.yul\":5925:5959   */\n      swap3\n      swap1\n      swap3\n      mstore\n        /* \"#utility.yul\":5990:5992   */\n      0x60\n        /* \"#utility.yul\":5975:5993   */\n      dup5\n      add\n        /* \"#utility.yul\":5968:6002   */\n      mstore\n        /* \"#utility.yul\":6046:6060   */\n      iszero\n        /* \"#utility.yul\":6039:6061   */\n      iszero\n        /* \"#utility.yul\":6033:6036   */\n      0x80\n        /* \"#utility.yul\":6018:6037   */\n      dup4\n      add\n        /* \"#utility.yul\":6011:6062   */\n      mstore\n        /* \"#utility.yul\":6106:6120   */\n      iszero\n        /* \"#utility.yul\":6099:6121   */\n      iszero\n        /* \"#utility.yul\":6093:6096   */\n      0xa0\n        /* \"#utility.yul\":6078:6097   */\n      dup3\n      add\n        /* \"#utility.yul\":6071:6122   */\n      mstore\n        /* \"#utility.yul\":5835:5838   */\n      0xc0\n        /* \"#utility.yul\":5820:5839   */\n      add\n        /* \"Ethereum/Presale.sol\":1312:1358  mapping(address => BuyerInfo) public buyerInfo */\n      tag_24\n        /* \"#utility.yul\":5802:6128   */\n      jump\n        /* \"Utils/Ownable.sol\":1972:2173  function transferOwnership(address newOwner) public virtual onlyOwner {\r... */\n    tag_16:\n      callvalue\n      dup1\n      iszero\n      tag_86\n      jumpi\n      0x00\n      dup1\n      revert\n    tag_86:\n      pop\n      tag_35\n      tag_88\n      calldatasize\n      0x04\n      tag_42\n      jump\t// in\n    tag_88:\n      tag_89\n      jump\t// in\n        /* \"Ethereum/Presale.sol\":4239:4350  function getBalance(address _address) external view returns(uint256) {\r... */\n    tag_17:\n      callvalue\n      dup1\n      iszero\n      tag_90\n      jumpi\n      0x00\n      dup1\n      revert\n    tag_90:\n      pop\n      tag_27\n      tag_92\n      calldatasize\n      0x04\n      tag_42\n      jump\t// in\n    tag_92:\n      sub(shl(0xa0, 0x01), 0x01)\n        /* \"Ethereum/Presale.sol\":4326:4342  _address.balance */\n      and\n      balance\n      swap1\n        /* \"Ethereum/Presale.sol\":4239:4350  function getBalance(address _address) external view returns(uint256) {\r... */\n      jump\n        /* \"Ethereum/Presale.sol\":2799:3136  function status() public view returns(uint256) {\r... */\n    tag_28:\n        /* \"Ethereum/Presale.sol\":2878:2897  saleInfor.startSale */\n      sload(0x0f)\n        /* \"Ethereum/Presale.sol\":2837:2844  uint256 */\n      0x00\n      swap1\n        /* \"Ethereum/Presale.sol\":2860:2875  block.timestamp */\n      timestamp\n        /* \"Ethereum/Presale.sol\":2860:2897  block.timestamp < saleInfor.startSale */\n      lt\n        /* \"Ethereum/Presale.sol\":2857:3129  if(block.timestamp < saleInfor.startSale) {\r... */\n      iszero\n      tag_97\n      jumpi\n      pop\n        /* \"Ethereum/Presale.sol\":2921:2922  0 */\n      0x00\n      swap1\n        /* \"Ethereum/Presale.sol\":2799:3136  function status() public view returns(uint256) {\r... */\n      jump\t// out\n        /* \"Ethereum/Presale.sol\":2857:3129  if(block.timestamp < saleInfor.startSale) {\r... */\n    tag_97:\n        /* \"Ethereum/Presale.sol\":2988:3005  saleInfor.endSale */\n      sload(0x10)\n        /* \"Ethereum/Presale.sol\":2970:2985  block.timestamp */\n      timestamp\n        /* \"Ethereum/Presale.sol\":2970:3005  block.timestamp > saleInfor.endSale */\n      gt\n        /* \"Ethereum/Presale.sol\":2967:3118  if(block.timestamp > saleInfor.endSale) {\r... */\n      iszero\n      tag_99\n      jumpi\n      pop\n        /* \"Ethereum/Presale.sol\":3033:3034  2 */\n      0x02\n      swap1\n        /* \"Ethereum/Presale.sol\":2799:3136  function status() public view returns(uint256) {\r... */\n      jump\t// out\n        /* \"Ethereum/Presale.sol\":2967:3118  if(block.timestamp > saleInfor.endSale) {\r... */\n    tag_99:\n      pop\n        /* \"Ethereum/Presale.sol\":3091:3092  1 */\n      0x01\n      swap1\n        /* \"Ethereum/Presale.sol\":2799:3136  function status() public view returns(uint256) {\r... */\n      jump\t// out\n        /* \"Ethereum/Presale.sol\":4477:4598  function transferETH(uint256 amount) external payable {\r... */\n    tag_38:\n        /* \"Ethereum/Presale.sol\":4550:4560  msg.sender */\n      caller\n        /* \"Ethereum/Presale.sol\":4542:4590  payable(msg.sender).transfer(msg.value - amount) */\n      0x08fc\n        /* \"Ethereum/Presale.sol\":4571:4589  msg.value - amount */\n      tag_102\n        /* \"Ethereum/Presale.sol\":4583:4589  amount */\n      dup4\n        /* \"Ethereum/Presale.sol\":4571:4580  msg.value */\n      callvalue\n        /* \"Ethereum/Presale.sol\":4571:4589  msg.value - amount */\n      tag_103\n      jump\t// in\n    tag_102:\n        /* \"Ethereum/Presale.sol\":4542:4590  payable(msg.sender).transfer(msg.value - amount) */\n      mload(0x40)\n      dup2\n      iszero\n      swap1\n      swap3\n      mul\n      swap2\n      0x00\n      dup2\n      dup2\n      dup2\n      dup6\n      dup9\n      dup9\n      call\n      swap4\n      pop\n      pop\n      pop\n      pop\n      iszero\n      dup1\n      iszero\n      tag_105\n      jumpi\n      returndatasize\n      0x00\n      dup1\n      returndatacopy\n      revert(0x00, returndatasize)\n    tag_105:\n      pop\n        /* \"Ethereum/Presale.sol\":4477:4598  function transferETH(uint256 amount) external payable {\r... */\n      pop\n      jump\t// out\n        /* \"Utils/Ownable.sol\":1714:1817  function renounceOwnership() public virtual onlyOwner {\r... */\n    tag_47:\n        /* \"Utils/Ownable.sol\":1136:1142  _owner */\n      and(sub(shl(0xa0, 0x01), 0x01), sload(0x01))\n        /* \"Utils/Context.sol\":736:746  msg.sender */\n      caller\n        /* \"Utils/Ownable.sol\":1283:1306  owner() == _msgSender() */\n      eq\n        /* \"Utils/Ownable.sol\":1275:1343  require(owner() == _msgSender(), \"Ownable: caller is not the owner\") */\n      tag_110\n      jumpi\n      mload(0x40)\n      shl(0xe5, 0x461bcd)\n      dup2\n      mstore\n        /* \"#utility.yul\":5232:5234   */\n      0x20\n        /* \"Utils/Ownable.sol\":1275:1343  require(owner() == _msgSender(), \"Ownable: caller is not the owner\") */\n      0x04\n      dup3\n      add\n        /* \"#utility.yul\":5214:5235   */\n      dup2\n      swap1\n      mstore\n        /* \"#utility.yul\":5251:5269   */\n      0x24\n      dup3\n      add\n        /* \"#utility.yul\":5244:5274   */\n      mstore\n        /* \"#utility.yul\":5310:5344   */\n      0x4f776e61626c653a2063616c6c6572206973206e6f7420746865206f776e6572\n        /* \"#utility.yul\":5290:5308   */\n      0x44\n      dup3\n      add\n        /* \"#utility.yul\":5283:5345   */\n      mstore\n        /* \"#utility.yul\":5362:5380   */\n      0x64\n      add\n        /* \"Utils/Ownable.sol\":1275:1343  require(owner() == _msgSender(), \"Ownable: caller is not the owner\") */\n    tag_111:\n      mload(0x40)\n      dup1\n      swap2\n      sub\n      swap1\n      revert\n    tag_110:\n        /* \"Utils/Ownable.sol\":1779:1809  _transferOwnership(address(0)) */\n      tag_114\n        /* \"Utils/Ownable.sol\":1806:1807  0 */\n      0x00\n        /* \"Utils/Ownable.sol\":1779:1797  _transferOwnership */\n      tag_115\n        /* \"Utils/Ownable.sol\":1779:1809  _transferOwnership(address(0)) */\n      jump\t// in\n    tag_114:\n        /* \"Utils/Ownable.sol\":1714:1817  function renounceOwnership() public virtual onlyOwner {\r... */\n      jump\t// out\n        /* \"Ethereum/Presale.sol\":2093:2790  function initialSaleInfor(\r... */\n    tag_52:\n        /* \"Ethereum/Presale.sol\":2273:2282  saleInfor */\n      0x0b\n        /* \"Ethereum/Presale.sol\":2273:2311  saleInfor.presaleOwner = _presaleOwner */\n      dup1\n      sload\n      sub(shl(0xa0, 0x01), 0x01)\n      dup1\n      dup8\n      and\n      not(sub(shl(0xa0, 0x01), 0x01))\n      swap3\n      dup4\n      and\n      or\n      swap1\n      swap3\n      sstore\n        /* \"Ethereum/Presale.sol\":2322:2341  saleInfor.saleToken */\n      0x0c\n        /* \"Ethereum/Presale.sol\":2322:2354  saleInfor.saleToken = _saleToken */\n      dup1\n      sload\n      dup7\n      dup5\n      and\n      swap1\n      dup4\n      and\n      or\n      swap1\n      sstore\n        /* \"Ethereum/Presale.sol\":2365:2384  saleInfor.baseToken */\n      0x0d\n        /* \"Ethereum/Presale.sol\":2365:2397  saleInfor.baseToken = _baseTOken */\n      dup1\n      sload\n      swap3\n      dup6\n      and\n      swap3\n      swap1\n      swap2\n      and\n      swap2\n      swap1\n      swap2\n      or\n      swap1\n      sstore\n        /* \"Ethereum/Presale.sol\":2433:2441  datas[0] */\n      dup1\n      mload\n        /* \"Ethereum/Presale.sol\":2433:2438  datas */\n      dup2\n      swap1\n        /* \"Ethereum/Presale.sol\":2273:2295  saleInfor.presaleOwner */\n      0x00\n      swap1\n        /* \"Ethereum/Presale.sol\":2433:2441  datas[0] */\n      tag_117\n      jumpi\n      mstore(0x00, shl(0xe0, 0x4e487b71))\n      mstore(0x04, 0x32)\n      revert(0x00, 0x24)\n    tag_117:\n      0x20\n      mul\n      0x20\n      add\n      add\n      mload\n        /* \"Ethereum/Presale.sol\":2410:2419  saleInfor */\n      0x0b\n        /* \"Ethereum/Presale.sol\":2410:2430  saleInfor.tokenPrice */\n      0x03\n      add\n        /* \"Ethereum/Presale.sol\":2410:2441  saleInfor.tokenPrice = datas[0] */\n      dup2\n      swap1\n      sstore\n      pop\n        /* \"Ethereum/Presale.sol\":2474:2479  datas */\n      dup1\n        /* \"Ethereum/Presale.sol\":2480:2481  1 */\n      0x01\n        /* \"Ethereum/Presale.sol\":2474:2482  datas[1] */\n      dup2\n      mload\n      dup2\n      lt\n      tag_118\n      jumpi\n      mstore(0x00, shl(0xe0, 0x4e487b71))\n      mstore(0x04, 0x32)\n      revert(0x00, 0x24)\n    tag_118:\n      0x20\n      mul\n      0x20\n      add\n      add\n      mload\n        /* \"Ethereum/Presale.sol\":2452:2461  saleInfor */\n      0x0b\n        /* \"Ethereum/Presale.sol\":2452:2471  saleInfor.startSale */\n      0x04\n      add\n        /* \"Ethereum/Presale.sol\":2452:2482  saleInfor.startSale = datas[1] */\n      dup2\n      swap1\n      sstore\n      pop\n        /* \"Ethereum/Presale.sol\":2513:2518  datas */\n      dup1\n        /* \"Ethereum/Presale.sol\":2519:2520  2 */\n      0x02\n        /* \"Ethereum/Presale.sol\":2513:2521  datas[2] */\n      dup2\n      mload\n      dup2\n      lt\n      tag_119\n      jumpi\n      mstore(0x00, shl(0xe0, 0x4e487b71))\n      mstore(0x04, 0x32)\n      revert(0x00, 0x24)\n    tag_119:\n      0x20\n      mul\n      0x20\n      add\n      add\n      mload\n        /* \"Ethereum/Presale.sol\":2493:2502  saleInfor */\n      0x0b\n        /* \"Ethereum/Presale.sol\":2493:2510  saleInfor.endSale */\n      0x05\n      add\n        /* \"Ethereum/Presale.sol\":2493:2521  saleInfor.endSale = datas[2] */\n      dup2\n      swap1\n      sstore\n      pop\n        /* \"Ethereum/Presale.sol\":2561:2566  datas */\n      dup1\n        /* \"Ethereum/Presale.sol\":2567:2568  3 */\n      0x03\n        /* \"Ethereum/Presale.sol\":2561:2569  datas[3] */\n      dup2\n      mload\n      dup2\n      lt\n      tag_120\n      jumpi\n      mstore(0x00, shl(0xe0, 0x4e487b71))\n      mstore(0x04, 0x32)\n      revert(0x00, 0x24)\n    tag_120:\n      0x20\n      mul\n      0x20\n      add\n      add\n      mload\n        /* \"Ethereum/Presale.sol\":2532:2541  saleInfor */\n      0x0b\n        /* \"Ethereum/Presale.sol\":2532:2558  saleInfor.minSpendPerBuyer */\n      0x06\n      add\n        /* \"Ethereum/Presale.sol\":2532:2569  saleInfor.minSpendPerBuyer = datas[3] */\n      dup2\n      swap1\n      sstore\n      pop\n        /* \"Ethereum/Presale.sol\":2609:2614  datas */\n      dup1\n        /* \"Ethereum/Presale.sol\":2615:2616  4 */\n      0x04\n        /* \"Ethereum/Presale.sol\":2609:2617  datas[4] */\n      dup2\n      mload\n      dup2\n      lt\n      tag_121\n      jumpi\n      mstore(0x00, shl(0xe0, 0x4e487b71))\n      mstore(0x04, 0x32)\n      revert(0x00, 0x24)\n    tag_121:\n      0x20\n      mul\n      0x20\n      add\n      add\n      mload\n        /* \"Ethereum/Presale.sol\":2580:2589  saleInfor */\n      0x0b\n        /* \"Ethereum/Presale.sol\":2580:2606  saleInfor.maxSpendPerBuyer */\n      0x07\n      add\n        /* \"Ethereum/Presale.sol\":2580:2617  saleInfor.maxSpendPerBuyer = datas[4] */\n      dup2\n      swap1\n      sstore\n      pop\n        /* \"Ethereum/Presale.sol\":2650:2655  datas */\n      dup1\n        /* \"Ethereum/Presale.sol\":2656:2657  5 */\n      0x05\n        /* \"Ethereum/Presale.sol\":2650:2658  datas[5] */\n      dup2\n      mload\n      dup2\n      lt\n      tag_122\n      jumpi\n      mstore(0x00, shl(0xe0, 0x4e487b71))\n      mstore(0x04, 0x32)\n      revert(0x00, 0x24)\n    tag_122:\n      0x20\n      mul\n      0x20\n      add\n      add\n      mload\n        /* \"Ethereum/Presale.sol\":2628:2637  saleInfor */\n      0x0b\n        /* \"Ethereum/Presale.sol\":2628:2647  saleInfor.refundFee */\n      0x08\n      add\n        /* \"Ethereum/Presale.sol\":2628:2658  saleInfor.refundFee = datas[5] */\n      dup2\n      swap1\n      sstore\n      pop\n        /* \"Ethereum/Presale.sol\":2690:2695  datas */\n      dup1\n        /* \"Ethereum/Presale.sol\":2696:2697  6 */\n      0x06\n        /* \"Ethereum/Presale.sol\":2690:2698  datas[6] */\n      dup2\n      mload\n      dup2\n      lt\n      tag_123\n      jumpi\n      mstore(0x00, shl(0xe0, 0x4e487b71))\n      mstore(0x04, 0x32)\n      revert(0x00, 0x24)\n    tag_123:\n      0x20\n      swap1\n      dup2\n      mul\n      swap2\n      swap1\n      swap2\n      add\n      add\n      mload\n        /* \"Ethereum/Presale.sol\":2669:2687  saleInfor.claimFee */\n      0x14\n        /* \"Ethereum/Presale.sol\":2669:2698  saleInfor.claimFee = datas[6] */\n      sstore\n      pop\n      pop\n        /* \"Ethereum/Presale.sol\":2762:2781  saleInfor.baseToken */\n      sload(0x0d)\n        /* \"Ethereum/Presale.sol\":2745:2749  WETH */\n      sload(0x16)\n        /* \"Ethereum/Presale.sol\":2709:2734  saleInfor.saleIsBaseToken */\n      0x15\n        /* \"Ethereum/Presale.sol\":2709:2782  saleInfor.saleIsBaseToken = address(WETH) == address(saleInfor.baseToken) */\n      dup1\n      sload\n      sub(shl(0xa0, 0x01), 0x01)\n        /* \"Ethereum/Presale.sol\":2762:2781  saleInfor.baseToken */\n      swap4\n      dup5\n      and\n        /* \"Ethereum/Presale.sol\":2745:2749  WETH */\n      swap4\n      swap1\n      swap3\n      and\n        /* \"Ethereum/Presale.sol\":2737:2782  address(WETH) == address(saleInfor.baseToken) */\n      swap3\n      swap1\n      swap3\n      eq\n      not(0xff)\n        /* \"Ethereum/Presale.sol\":2709:2782  saleInfor.saleIsBaseToken = address(WETH) == address(saleInfor.baseToken) */\n      swap1\n      swap2\n      and\n      or\n      swap1\n      sstore\n      pop\n      pop\n        /* \"Ethereum/Presale.sol\":2093:2790  function initialSaleInfor(\r... */\n      jump\t// out\n        /* \"Ethereum/Presale.sol\":4361:4469  function backToken() external payable {\r... */\n    tag_54:\n        /* \"Ethereum/Presale.sol\":4410:4461  payable(msg.sender).transfer(address(this).balance) */\n      mload(0x40)\n        /* \"Ethereum/Presale.sol\":4418:4428  msg.sender */\n      caller\n      swap1\n        /* \"Ethereum/Presale.sol\":4439:4460  address(this).balance */\n      selfbalance\n        /* \"Ethereum/Presale.sol\":4410:4461  payable(msg.sender).transfer(address(this).balance) */\n      dup1\n      iszero\n      0x08fc\n      mul\n      swap2\n      0x00\n      dup2\n      dup2\n      dup2\n        /* \"Ethereum/Presale.sol\":4439:4460  address(this).balance */\n      dup6\n        /* \"Ethereum/Presale.sol\":4418:4428  msg.sender */\n      dup9\n        /* \"Ethereum/Presale.sol\":4410:4461  payable(msg.sender).transfer(address(this).balance) */\n      dup9\n      call\n      swap4\n      pop\n      pop\n      pop\n      pop\n      iszero\n      dup1\n      iszero\n      tag_126\n      jumpi\n      returndatasize\n      0x00\n      dup1\n      returndatacopy\n      revert(0x00, returndatasize)\n    tag_126:\n      pop\n        /* \"Ethereum/Presale.sol\":4361:4469  function backToken() external payable {\r... */\n      jump\t// out\n        /* \"Ethereum/Presale.sol\":3263:4231  function deposit(uint256 _amount) external view returns(uint256) {\r... */\n    tag_73:\n        /* \"Ethereum/Presale.sol\":3319:3326  uint256 */\n      0x00\n        /* \"Ethereum/Presale.sol\":3347:3355  status() */\n      tag_129\n        /* \"Ethereum/Presale.sol\":3347:3353  status */\n      tag_28\n        /* \"Ethereum/Presale.sol\":3347:3355  status() */\n      jump\t// in\n    tag_129:\n        /* \"Ethereum/Presale.sol\":3359:3360  1 */\n      0x01\n        /* \"Ethereum/Presale.sol\":3347:3360  status() == 1 */\n      eq\n        /* \"Ethereum/Presale.sol\":3339:3375  require(status() == 1, \"NOT ACTIVE\") */\n      tag_130\n      jumpi\n      mload(0x40)\n      shl(0xe5, 0x461bcd)\n      dup2\n      mstore\n        /* \"#utility.yul\":4548:4550   */\n      0x20\n        /* \"Ethereum/Presale.sol\":3339:3375  require(status() == 1, \"NOT ACTIVE\") */\n      0x04\n      dup3\n      add\n        /* \"#utility.yul\":4530:4551   */\n      mstore\n        /* \"#utility.yul\":4587:4589   */\n      0x0a\n        /* \"#utility.yul\":4567:4585   */\n      0x24\n      dup3\n      add\n        /* \"#utility.yul\":4560:4590   */\n      mstore\n      shl(0xb0, 0x4e4f5420414354495645)\n        /* \"#utility.yul\":4606:4624   */\n      0x44\n      dup3\n      add\n        /* \"#utility.yul\":4599:4639   */\n      mstore\n        /* \"#utility.yul\":4656:4674   */\n      0x64\n      add\n        /* \"Ethereum/Presale.sol\":3339:3375  require(status() == 1, \"NOT ACTIVE\") */\n      tag_111\n        /* \"#utility.yul\":4520:4680   */\n      jump\n        /* \"Ethereum/Presale.sol\":3339:3375  require(status() == 1, \"NOT ACTIVE\") */\n    tag_130:\n        /* \"Ethereum/Presale.sol\":3432:3442  msg.sender */\n      caller\n        /* \"Ethereum/Presale.sol\":3396:3419  BuyerInfo storage buyer */\n      0x00\n        /* \"Ethereum/Presale.sol\":3422:3443  buyerInfo[msg.sender] */\n      swap1\n      dup2\n      mstore\n        /* \"Ethereum/Presale.sol\":3422:3431  buyerInfo */\n      0x02\n        /* \"Ethereum/Presale.sol\":3422:3443  buyerInfo[msg.sender] */\n      0x20\n      mstore\n      0x40\n      dup2\n      keccak256\n        /* \"Ethereum/Presale.sol\":3628:3654  saleInfor.minSpendPerBuyer */\n      sload(0x11)\n        /* \"Ethereum/Presale.sol\":3422:3443  buyerInfo[msg.sender] */\n      swap1\n      swap2\n        /* \"Ethereum/Presale.sol\":3474:3481  _amount */\n      dup5\n      swap2\n      dup3\n      swap2\n        /* \"Ethereum/Presale.sol\":3396:3419  BuyerInfo storage buyer */\n      swap1\n        /* \"Ethereum/Presale.sol\":3587:3591  1000 */\n      0x03e8\n      swap1\n        /* \"Ethereum/Presale.sol\":3610:3654  real_amount_in >= saleInfor.minSpendPerBuyer */\n      dup4\n      lt\n      iszero\n        /* \"Ethereum/Presale.sol\":3602:3703  require(real_amount_in >= saleInfor.minSpendPerBuyer, \r... */\n      tag_133\n      jumpi\n      mload(0x40)\n      shl(0xe5, 0x461bcd)\n      dup2\n      mstore\n        /* \"#utility.yul\":4887:4889   */\n      0x20\n        /* \"Ethereum/Presale.sol\":3602:3703  require(real_amount_in >= saleInfor.minSpendPerBuyer, \r... */\n      0x04\n      dup3\n      add\n        /* \"#utility.yul\":4869:4890   */\n      mstore\n        /* \"#utility.yul\":4926:4928   */\n      0x10\n        /* \"#utility.yul\":4906:4924   */\n      0x24\n      dup3\n      add\n        /* \"#utility.yul\":4899:4929   */\n      mstore\n      shl(0x80, 0x4e6f7420656e6f7567682076616c7565)\n        /* \"#utility.yul\":4945:4963   */\n      0x44\n      dup3\n      add\n        /* \"#utility.yul\":4938:4984   */\n      mstore\n        /* \"#utility.yul\":5001:5019   */\n      0x64\n      add\n        /* \"Ethereum/Presale.sol\":3602:3703  require(real_amount_in >= saleInfor.minSpendPerBuyer, \r... */\n      tag_111\n        /* \"#utility.yul\":4859:5025   */\n      jump\n        /* \"Ethereum/Presale.sol\":3602:3703  require(real_amount_in >= saleInfor.minSpendPerBuyer, \r... */\n    tag_133:\n        /* \"Ethereum/Presale.sol\":3718:3737  checkAdminAddress() */\n      tag_136\n        /* \"Ethereum/Presale.sol\":3718:3735  checkAdminAddress */\n      tag_77\n        /* \"Ethereum/Presale.sol\":3718:3737  checkAdminAddress() */\n      jump\t// in\n    tag_136:\n        /* \"Ethereum/Presale.sol\":3714:3916  if(!checkAdminAddress()) {\r... */\n      tag_137\n      jumpi\n        /* \"Ethereum/Presale.sol\":3771:3904  ((fullPercenFee.sub(feeAnyone))\r... */\n      tag_138\n        /* \"Ethereum/Presale.sol\":3890:3903  fullPercenFee */\n      dup2\n        /* \"Ethereum/Presale.sol\":3772:3853  (fullPercenFee.sub(feeAnyone))\r... */\n      tag_139\n        /* \"Ethereum/Presale.sol\":3838:3852  real_amount_in */\n      dup6\n        /* \"Ethereum/Presale.sol\":3773:3801  fullPercenFee.sub(feeAnyone) */\n      tag_140\n        /* \"Ethereum/Presale.sol\":3791:3800  feeAnyone */\n      sload(0x17)\n        /* \"Ethereum/Presale.sol\":3773:3786  fullPercenFee */\n      dup7\n        /* \"Ethereum/Presale.sol\":3773:3790  fullPercenFee.sub */\n      tag_141\n      swap1\n        /* \"Ethereum/Presale.sol\":3773:3801  fullPercenFee.sub(feeAnyone) */\n      swap2\n      swap1\n      0xffffffff\n      and\n      jump\t// in\n    tag_140:\n        /* \"Ethereum/Presale.sol\":3772:3837  (fullPercenFee.sub(feeAnyone))\r... */\n      swap1\n      tag_142\n        /* \"Ethereum/Presale.sol\":3772:3853  (fullPercenFee.sub(feeAnyone))\r... */\n      jump\t// in\n    tag_139:\n        /* \"Ethereum/Presale.sol\":3771:3889  ((fullPercenFee.sub(feeAnyone))\r... */\n      swap1\n      tag_143\n        /* \"Ethereum/Presale.sol\":3771:3904  ((fullPercenFee.sub(feeAnyone))\r... */\n      jump\t// in\n    tag_138:\n        /* \"Ethereum/Presale.sol\":3754:3904  real_amount_in = ((fullPercenFee.sub(feeAnyone))\r... */\n      swap3\n      pop\n        /* \"Ethereum/Presale.sol\":3714:3916  if(!checkAdminAddress()) {\r... */\n    tag_137:\n        /* \"Ethereum/Presale.sol\":3946:3972  saleInfor.maxSpendPerBuyer */\n      sload(0x12)\n        /* \"Ethereum/Presale.sol\":3926:3943  uint256 remaining */\n      0x00\n      swap1\n        /* \"Ethereum/Presale.sol\":3946:3989  saleInfor.maxSpendPerBuyer - real_amount_in */\n      tag_144\n      swap1\n        /* \"Ethereum/Presale.sol\":3975:3989  real_amount_in */\n      dup6\n      swap1\n        /* \"Ethereum/Presale.sol\":3946:3989  saleInfor.maxSpendPerBuyer - real_amount_in */\n      tag_103\n      jump\t// in\n    tag_144:\n        /* \"Ethereum/Presale.sol\":4146:4165  saleInfor.baseToken */\n      sload(0x0d)\n        /* \"Ethereum/Presale.sol\":4140:4177  ERC20(saleInfor.baseToken).decimals() */\n      0x40\n      dup1\n      mload\n      shl(0xe0, 0x313ce567)\n      dup2\n      mstore\n      swap1\n      mload\n        /* \"Ethereum/Presale.sol\":3926:3989  uint256 remaining = saleInfor.maxSpendPerBuyer - real_amount_in */\n      swap3\n      swap4\n      pop\n        /* \"Ethereum/Presale.sol\":4000:4017  uint256 tokenSold */\n      0x00\n      swap3\n        /* \"Ethereum/Presale.sol\":4021:4179  real_amount_in.\r... */\n      tag_145\n      swap3\n      sub(shl(0xa0, 0x01), 0x01)\n        /* \"Ethereum/Presale.sol\":4146:4165  saleInfor.baseToken */\n      and\n      swap2\n        /* \"Ethereum/Presale.sol\":4140:4175  ERC20(saleInfor.baseToken).decimals */\n      0x313ce567\n      swap2\n        /* \"Ethereum/Presale.sol\":4140:4177  ERC20(saleInfor.baseToken).decimals() */\n      0x04\n      dup1\n      dup4\n      add\n      swap3\n      0x20\n      swap3\n      swap2\n      swap1\n      dup3\n      swap1\n      sub\n      add\n      dup2\n        /* \"Ethereum/Presale.sol\":4146:4165  saleInfor.baseToken */\n      dup7\n        /* \"Ethereum/Presale.sol\":4140:4177  ERC20(saleInfor.baseToken).decimals() */\n      dup1\n      extcodesize\n      iszero\n      dup1\n      iszero\n      tag_146\n      jumpi\n      0x00\n      dup1\n      revert\n    tag_146:\n      pop\n      gas\n      staticcall\n      iszero\n      dup1\n      iszero\n      tag_148\n      jumpi\n      returndatasize\n      0x00\n      dup1\n      returndatacopy\n      revert(0x00, returndatasize)\n    tag_148:\n      pop\n      pop\n      pop\n      pop\n      mload(0x40)\n      returndatasize\n      not(0x1f)\n      0x1f\n      dup3\n      add\n      and\n      dup3\n      add\n      dup1\n      0x40\n      mstore\n      pop\n      dup2\n      add\n      swap1\n      tag_149\n      swap2\n      swap1\n      tag_150\n      jump\t// in\n    tag_149:\n        /* \"Ethereum/Presale.sol\":4126:4178  10 ** uint256(ERC20(saleInfor.baseToken).decimals()) */\n      tag_151\n      swap1\n        /* \"Ethereum/Presale.sol\":4126:4128  10 */\n      0x0a\n        /* \"Ethereum/Presale.sol\":4126:4178  10 ** uint256(ERC20(saleInfor.baseToken).decimals()) */\n      tag_152\n      jump\t// in\n    tag_151:\n        /* \"Ethereum/Presale.sol\":4070:4090  saleInfor.tokenPrice */\n      sload(0x0e)\n        /* \"Ethereum/Presale.sol\":4021:4091  real_amount_in.\r... */\n      tag_139\n      swap1\n        /* \"Ethereum/Presale.sol\":4021:4035  real_amount_in */\n      dup9\n      swap1\n        /* \"Ethereum/Presale.sol\":4021:4069  real_amount_in.\r... */\n      tag_142\n        /* \"Ethereum/Presale.sol\":4021:4091  real_amount_in.\r... */\n      jump\t// in\n        /* \"Ethereum/Presale.sol\":4021:4179  real_amount_in.\r... */\n    tag_145:\n        /* \"Ethereum/Presale.sol\":4000:4180  uint256 tokenSold = (real_amount_in.\r... */\n      swap10\n        /* \"Ethereum/Presale.sol\":3263:4231  function deposit(uint256 _amount) external view returns(uint256) {\r... */\n      swap9\n      pop\n      pop\n      pop\n      pop\n      pop\n      pop\n      pop\n      pop\n      pop\n      jump\t// out\n        /* \"Ethereum/Presale.sol\":3145:3255  function checkAdminAddress() public view returns(bool) {\r... */\n    tag_77:\n        /* \"Ethereum/Presale.sol\":3194:3198  bool */\n      0x00\n        /* \"Ethereum/Presale.sol\":3218:3247  admins.contains(_msgSender()) */\n      tag_155\n        /* \"Ethereum/Presale.sol\":3218:3224  admins */\n      0x18\n        /* \"Utils/Context.sol\":736:746  msg.sender */\n      caller\n        /* \"Ethereum/Presale.sol\":3218:3233  admins.contains */\n      tag_157\n        /* \"Ethereum/Presale.sol\":3218:3247  admins.contains(_msgSender()) */\n      jump\t// in\n    tag_155:\n        /* \"Ethereum/Presale.sol\":3211:3247  return admins.contains(_msgSender()) */\n      swap1\n      pop\n        /* \"Ethereum/Presale.sol\":3145:3255  function checkAdminAddress() public view returns(bool) {\r... */\n      swap1\n      jump\t// out\n        /* \"Utils/Ownable.sol\":1972:2173  function transferOwnership(address newOwner) public virtual onlyOwner {\r... */\n    tag_89:\n        /* \"Utils/Ownable.sol\":1136:1142  _owner */\n      and(sub(shl(0xa0, 0x01), 0x01), sload(0x01))\n        /* \"Utils/Context.sol\":736:746  msg.sender */\n      caller\n        /* \"Utils/Ownable.sol\":1283:1306  owner() == _msgSender() */\n      eq\n        /* \"Utils/Ownable.sol\":1275:1343  require(owner() == _msgSender(), \"Ownable: caller is not the owner\") */\n      tag_161\n      jumpi\n      mload(0x40)\n      shl(0xe5, 0x461bcd)\n      dup2\n      mstore\n        /* \"#utility.yul\":5232:5234   */\n      0x20\n        /* \"Utils/Ownable.sol\":1275:1343  require(owner() == _msgSender(), \"Ownable: caller is not the owner\") */\n      0x04\n      dup3\n      add\n        /* \"#utility.yul\":5214:5235   */\n      dup2\n      swap1\n      mstore\n        /* \"#utility.yul\":5251:5269   */\n      0x24\n      dup3\n      add\n        /* \"#utility.yul\":5244:5274   */\n      mstore\n        /* \"#utility.yul\":5310:5344   */\n      0x4f776e61626c653a2063616c6c6572206973206e6f7420746865206f776e6572\n        /* \"#utility.yul\":5290:5308   */\n      0x44\n      dup3\n      add\n        /* \"#utility.yul\":5283:5345   */\n      mstore\n        /* \"#utility.yul\":5362:5380   */\n      0x64\n      add\n        /* \"Utils/Ownable.sol\":1275:1343  require(owner() == _msgSender(), \"Ownable: caller is not the owner\") */\n      tag_111\n        /* \"#utility.yul\":5204:5386   */\n      jump\n        /* \"Utils/Ownable.sol\":1275:1343  require(owner() == _msgSender(), \"Ownable: caller is not the owner\") */\n    tag_161:\n      sub(shl(0xa0, 0x01), 0x01)\n        /* \"Utils/Ownable.sol\":2061:2083  newOwner != address(0) */\n      dup2\n      and\n        /* \"Utils/Ownable.sol\":2053:2126  require(newOwner != address(0), \"Ownable: new owner is the zero address\") */\n      tag_164\n      jumpi\n      mload(0x40)\n      shl(0xe5, 0x461bcd)\n      dup2\n      mstore\n        /* \"#utility.yul\":4141:4143   */\n      0x20\n        /* \"Utils/Ownable.sol\":2053:2126  require(newOwner != address(0), \"Ownable: new owner is the zero address\") */\n      0x04\n      dup3\n      add\n        /* \"#utility.yul\":4123:4144   */\n      mstore\n        /* \"#utility.yul\":4180:4182   */\n      0x26\n        /* \"#utility.yul\":4160:4178   */\n      0x24\n      dup3\n      add\n        /* \"#utility.yul\":4153:4183   */\n      mstore\n        /* \"#utility.yul\":4219:4253   */\n      0x4f776e61626c653a206e6577206f776e657220697320746865207a65726f2061\n        /* \"#utility.yul\":4199:4217   */\n      0x44\n      dup3\n      add\n        /* \"#utility.yul\":4192:4254   */\n      mstore\n      shl(0xd0, 0x646472657373)\n        /* \"#utility.yul\":4270:4288   */\n      0x64\n      dup3\n      add\n        /* \"#utility.yul\":4263:4299   */\n      mstore\n        /* \"#utility.yul\":4316:4335   */\n      0x84\n      add\n        /* \"Utils/Ownable.sol\":2053:2126  require(newOwner != address(0), \"Ownable: new owner is the zero address\") */\n      tag_111\n        /* \"#utility.yul\":4113:4341   */\n      jump\n        /* \"Utils/Ownable.sol\":2053:2126  require(newOwner != address(0), \"Ownable: new owner is the zero address\") */\n    tag_164:\n        /* \"Utils/Ownable.sol\":2137:2165  _transferOwnership(newOwner) */\n      tag_126\n        /* \"Utils/Ownable.sol\":2156:2164  newOwner */\n      dup2\n        /* \"Utils/Ownable.sol\":2137:2155  _transferOwnership */\n      tag_115\n        /* \"Utils/Ownable.sol\":2137:2165  _transferOwnership(newOwner) */\n      jump\t// in\n        /* \"Utils/EnumerableSet.sol\":8259:8411  function add(AddressSet storage set, address value) internal returns (bool) {\r... */\n    tag_95:\n        /* \"Utils/EnumerableSet.sol\":8329:8333  bool */\n      0x00\n        /* \"Utils/EnumerableSet.sol\":8353:8403  _add(set._inner, bytes32(uint256(uint160(value)))) */\n      tag_170\n        /* \"Utils/EnumerableSet.sol\":8358:8361  set */\n      dup4\n      sub(shl(0xa0, 0x01), 0x01)\n        /* \"Utils/EnumerableSet.sol\":8378:8401  uint256(uint160(value)) */\n      dup5\n      and\n        /* \"Utils/EnumerableSet.sol\":8353:8357  _add */\n      tag_171\n        /* \"Utils/EnumerableSet.sol\":8353:8403  _add(set._inner, bytes32(uint256(uint160(value)))) */\n      jump\t// in\n    tag_170:\n        /* \"Utils/EnumerableSet.sol\":8346:8403  return _add(set._inner, bytes32(uint256(uint160(value)))) */\n      swap1\n      pop\n        /* \"Utils/EnumerableSet.sol\":8259:8411  function add(AddressSet storage set, address value) internal returns (bool) {\r... */\n    tag_169:\n      swap3\n      swap2\n      pop\n      pop\n      jump\t// out\n        /* \"Utils/Ownable.sol\":2333:2524  function _transferOwnership(address newOwner) internal virtual {\r... */\n    tag_115:\n        /* \"Utils/Ownable.sol\":2426:2432  _owner */\n      0x01\n      dup1\n      sload\n      sub(shl(0xa0, 0x01), 0x01)\n        /* \"Utils/Ownable.sol\":2443:2460  _owner = newOwner */\n      dup4\n      dup2\n      and\n      not(sub(shl(0xa0, 0x01), 0x01))\n      dup4\n      and\n      dup2\n      or\n      swap1\n      swap4\n      sstore\n        /* \"Utils/Ownable.sol\":2476:2516  OwnershipTransferred(oldOwner, newOwner) */\n      mload(0x40)\n        /* \"Utils/Ownable.sol\":2426:2432  _owner */\n      swap2\n      and\n      swap2\n        /* \"Utils/Ownable.sol\":2443:2460  _owner = newOwner */\n      swap1\n        /* \"Utils/Ownable.sol\":2426:2432  _owner */\n      dup3\n      swap1\n        /* \"Utils/Ownable.sol\":2476:2516  OwnershipTransferred(oldOwner, newOwner) */\n      0x8be0079c531659141344cd1fd0a4f28419497f9722a3daafe3b4186f6b6457e0\n      swap1\n        /* \"Utils/Ownable.sol\":2407:2423  address oldOwner */\n      0x00\n      swap1\n        /* \"Utils/Ownable.sol\":2476:2516  OwnershipTransferred(oldOwner, newOwner) */\n      log3\n        /* \"Utils/Ownable.sol\":2333:2524  function _transferOwnership(address newOwner) internal virtual {\r... */\n      pop\n      pop\n      jump\t// out\n        /* \"Utils/SafeMath.sol\":3228:3326  function sub(uint256 a, uint256 b) internal pure returns (uint256) {\r... */\n    tag_141:\n        /* \"Utils/SafeMath.sol\":3286:3293  uint256 */\n      0x00\n        /* \"Utils/SafeMath.sol\":3313:3318  a - b */\n      tag_170\n        /* \"Utils/SafeMath.sol\":3317:3318  b */\n      dup3\n        /* \"Utils/SafeMath.sol\":3313:3314  a */\n      dup5\n        /* \"Utils/SafeMath.sol\":3313:3318  a - b */\n      tag_103\n      jump\t// in\n        /* \"Utils/SafeMath.sol\":3585:3683  function mul(uint256 a, uint256 b) internal pure returns (uint256) {\r... */\n    tag_142:\n        /* \"Utils/SafeMath.sol\":3643:3650  uint256 */\n      0x00\n        /* \"Utils/SafeMath.sol\":3670:3675  a * b */\n      tag_170\n        /* \"Utils/SafeMath.sol\":3674:3675  b */\n      dup3\n        /* \"Utils/SafeMath.sol\":3670:3671  a */\n      dup5\n        /* \"Utils/SafeMath.sol\":3670:3675  a * b */\n      tag_178\n      jump\t// in\n        /* \"Utils/SafeMath.sol\":3984:4082  function div(uint256 a, uint256 b) internal pure returns (uint256) {\r... */\n    tag_143:\n        /* \"Utils/SafeMath.sol\":4042:4049  uint256 */\n      0x00\n        /* \"Utils/SafeMath.sol\":4069:4074  a / b */\n      tag_170\n        /* \"Utils/SafeMath.sol\":4073:4074  b */\n      dup3\n        /* \"Utils/SafeMath.sol\":4069:4070  a */\n      dup5\n        /* \"Utils/SafeMath.sol\":4069:4074  a / b */\n      tag_181\n      jump\t// in\n        /* \"Utils/EnumerableSet.sol\":8831:8998  function contains(AddressSet storage set, address value) internal view returns (bool) {\r... */\n    tag_157:\n      sub(shl(0xa0, 0x01), 0x01)\n        /* \"Utils/EnumerableSet.sol\":8965:8988  uint256(uint160(value)) */\n      dup2\n      and\n        /* \"Utils/EnumerableSet.sol\":8911:8915  bool */\n      0x00\n        /* \"Utils/EnumerableSet.sol\":4367:4386  set._indexes[value] */\n      swap1\n      dup2\n      mstore\n        /* \"Utils/EnumerableSet.sol\":4367:4379  set._indexes */\n      0x01\n      dup4\n      add\n        /* \"Utils/EnumerableSet.sol\":4367:4386  set._indexes[value] */\n      0x20\n      mstore\n      0x40\n      dup2\n      keccak256\n      sload\n        /* \"Utils/EnumerableSet.sol\":4367:4391  set._indexes[value] != 0 */\n      iszero\n      iszero\n        /* \"Utils/EnumerableSet.sol\":8935:8990  _contains(set._inner, bytes32(uint256(uint160(value)))) */\n      tag_170\n        /* \"Utils/EnumerableSet.sol\":4270:4399  function _contains(Set storage set, bytes32 value) private view returns (bool) {\r... */\n      jump\n        /* \"Utils/EnumerableSet.sol\":2174:2588  function _add(Set storage set, bytes32 value) private returns (bool) {\r... */\n    tag_171:\n        /* \"Utils/EnumerableSet.sol\":2237:2241  bool */\n      0x00\n        /* \"Utils/EnumerableSet.sol\":4367:4386  set._indexes[value] */\n      dup2\n      dup2\n      mstore\n        /* \"Utils/EnumerableSet.sol\":4367:4379  set._indexes */\n      0x01\n      dup4\n      add\n        /* \"Utils/EnumerableSet.sol\":4367:4386  set._indexes[value] */\n      0x20\n      mstore\n      0x40\n      dup2\n      keccak256\n      sload\n        /* \"Utils/EnumerableSet.sol\":2254:2581  if (!_contains(set, value)) {\r... */\n      tag_187\n      jumpi\n      pop\n        /* \"Utils/EnumerableSet.sol\":2297:2320  set._values.push(value) */\n      dup2\n      sload\n      0x01\n      dup2\n      dup2\n      add\n      dup5\n      sstore\n        /* \"Utils/EnumerableSet.sol\":2297:2308  set._values */\n      0x00\n        /* \"Utils/EnumerableSet.sol\":2297:2320  set._values.push(value) */\n      dup5\n      dup2\n      mstore\n      0x20\n      dup1\n      dup3\n      keccak256\n      swap1\n      swap4\n      add\n      dup5\n      swap1\n      sstore\n        /* \"Utils/EnumerableSet.sol\":2480:2498  set._values.length */\n      dup5\n      sload\n        /* \"Utils/EnumerableSet.sol\":2458:2477  set._indexes[value] */\n      dup5\n      dup3\n      mstore\n        /* \"Utils/EnumerableSet.sol\":2458:2470  set._indexes */\n      dup3\n      dup7\n      add\n        /* \"Utils/EnumerableSet.sol\":2458:2477  set._indexes[value] */\n      swap1\n      swap4\n      mstore\n      0x40\n      swap1\n      keccak256\n        /* \"Utils/EnumerableSet.sol\":2458:2498  set._indexes[value] = set._values.length */\n      swap2\n      swap1\n      swap2\n      sstore\n        /* \"Utils/EnumerableSet.sol\":2513:2524  return true */\n      jump(tag_169)\n        /* \"Utils/EnumerableSet.sol\":2254:2581  if (!_contains(set, value)) {\r... */\n    tag_187:\n      pop\n        /* \"Utils/EnumerableSet.sol\":2564:2569  false */\n      0x00\n        /* \"Utils/EnumerableSet.sol\":2557:2569  return false */\n      jump(tag_169)\n        /* \"#utility.yul\":14:271   */\n    tag_42:\n        /* \"#utility.yul\":73:79   */\n      0x00\n        /* \"#utility.yul\":126:128   */\n      0x20\n        /* \"#utility.yul\":114:123   */\n      dup3\n        /* \"#utility.yul\":105:112   */\n      dup5\n        /* \"#utility.yul\":101:124   */\n      sub\n        /* \"#utility.yul\":97:129   */\n      slt\n        /* \"#utility.yul\":94:96   */\n      iszero\n      tag_193\n      jumpi\n        /* \"#utility.yul\":147:153   */\n      dup1\n        /* \"#utility.yul\":139:145   */\n      dup2\n        /* \"#utility.yul\":132:154   */\n      revert\n        /* \"#utility.yul\":94:96   */\n    tag_193:\n        /* \"#utility.yul\":191:200   */\n      dup2\n        /* \"#utility.yul\":178:201   */\n      calldataload\n        /* \"#utility.yul\":210:241   */\n      tag_194\n        /* \"#utility.yul\":235:240   */\n      dup2\n        /* \"#utility.yul\":210:241   */\n      tag_195\n      jump\t// in\n    tag_194:\n        /* \"#utility.yul\":260:265   */\n      swap4\n        /* \"#utility.yul\":84:271   */\n      swap3\n      pop\n      pop\n      pop\n      jump\t// out\n        /* \"#utility.yul\":276:1899   */\n    tag_51:\n        /* \"#utility.yul\":421:427   */\n      0x00\n        /* \"#utility.yul\":429:435   */\n      dup1\n        /* \"#utility.yul\":437:443   */\n      0x00\n        /* \"#utility.yul\":445:451   */\n      dup1\n        /* \"#utility.yul\":498:501   */\n      0x80\n        /* \"#utility.yul\":486:495   */\n      dup6\n        /* \"#utility.yul\":477:484   */\n      dup8\n        /* \"#utility.yul\":473:496   */\n      sub\n        /* \"#utility.yul\":469:502   */\n      slt\n        /* \"#utility.yul\":466:468   */\n      iszero\n      tag_197\n      jumpi\n        /* \"#utility.yul\":520:526   */\n      dup3\n        /* \"#utility.yul\":512:518   */\n      dup4\n        /* \"#utility.yul\":505:527   */\n      revert\n        /* \"#utility.yul\":466:468   */\n    tag_197:\n        /* \"#utility.yul\":564:573   */\n      dup5\n        /* \"#utility.yul\":551:574   */\n      calldataload\n        /* \"#utility.yul\":583:614   */\n      tag_198\n        /* \"#utility.yul\":608:613   */\n      dup2\n        /* \"#utility.yul\":583:614   */\n      tag_195\n      jump\t// in\n    tag_198:\n        /* \"#utility.yul\":633:638   */\n      swap4\n      pop\n        /* \"#utility.yul\":657:659   */\n      0x20\n        /* \"#utility.yul\":696:714   */\n      dup6\n      dup2\n      add\n        /* \"#utility.yul\":683:715   */\n      calldataload\n        /* \"#utility.yul\":724:757   */\n      tag_199\n        /* \"#utility.yul\":683:715   */\n      dup2\n        /* \"#utility.yul\":724:757   */\n      tag_195\n      jump\t// in\n    tag_199:\n        /* \"#utility.yul\":776:783   */\n      swap4\n      pop\n        /* \"#utility.yul\":835:837   */\n      0x40\n        /* \"#utility.yul\":820:838   */\n      dup7\n      add\n        /* \"#utility.yul\":807:839   */\n      calldataload\n        /* \"#utility.yul\":848:881   */\n      tag_200\n        /* \"#utility.yul\":807:839   */\n      dup2\n        /* \"#utility.yul\":848:881   */\n      tag_195\n      jump\t// in\n    tag_200:\n        /* \"#utility.yul\":900:907   */\n      swap3\n      pop\n        /* \"#utility.yul\":958:960   */\n      0x60\n        /* \"#utility.yul\":943:961   */\n      dup7\n      add\n        /* \"#utility.yul\":930:962   */\n      calldataload\n        /* \"#utility.yul\":981:999   */\n      0xffffffffffffffff\n        /* \"#utility.yul\":1011:1025   */\n      dup1\n      dup3\n      gt\n        /* \"#utility.yul\":1008:1010   */\n      iszero\n      tag_201\n      jumpi\n        /* \"#utility.yul\":1043:1049   */\n      dup4\n        /* \"#utility.yul\":1035:1041   */\n      dup5\n        /* \"#utility.yul\":1028:1050   */\n      revert\n        /* \"#utility.yul\":1008:1010   */\n    tag_201:\n        /* \"#utility.yul\":1086:1092   */\n      dup2\n        /* \"#utility.yul\":1075:1084   */\n      dup9\n        /* \"#utility.yul\":1071:1093   */\n      add\n        /* \"#utility.yul\":1061:1093   */\n      swap2\n      pop\n        /* \"#utility.yul\":1131:1138   */\n      dup9\n        /* \"#utility.yul\":1124:1128   */\n      0x1f\n        /* \"#utility.yul\":1120:1122   */\n      dup4\n        /* \"#utility.yul\":1116:1129   */\n      add\n        /* \"#utility.yul\":1112:1139   */\n      slt\n        /* \"#utility.yul\":1102:1104   */\n      tag_202\n      jumpi\n        /* \"#utility.yul\":1158:1164   */\n      dup4\n        /* \"#utility.yul\":1150:1156   */\n      dup5\n        /* \"#utility.yul\":1143:1165   */\n      revert\n        /* \"#utility.yul\":1102:1104   */\n    tag_202:\n        /* \"#utility.yul\":1199:1201   */\n      dup2\n        /* \"#utility.yul\":1186:1202   */\n      calldataload\n        /* \"#utility.yul\":1221:1223   */\n      dup2\n        /* \"#utility.yul\":1217:1219   */\n      dup2\n        /* \"#utility.yul\":1214:1224   */\n      gt\n        /* \"#utility.yul\":1211:1213   */\n      iszero\n      tag_204\n      jumpi\n        /* \"#utility.yul\":1227:1245   */\n      tag_204\n      tag_205\n      jump\t// in\n    tag_204:\n        /* \"#utility.yul\":1273:1275   */\n      dup1\n        /* \"#utility.yul\":1270:1271   */\n      0x05\n        /* \"#utility.yul\":1266:1276   */\n      shl\n        /* \"#utility.yul\":1305:1307   */\n      0x40\n        /* \"#utility.yul\":1299:1308   */\n      mload\n        /* \"#utility.yul\":1368:1370   */\n      0x1f\n        /* \"#utility.yul\":1364:1371   */\n      not\n        /* \"#utility.yul\":1359:1361   */\n      0x3f\n        /* \"#utility.yul\":1355:1357   */\n      dup4\n        /* \"#utility.yul\":1351:1362   */\n      add\n        /* \"#utility.yul\":1347:1372   */\n      and\n        /* \"#utility.yul\":1339:1345   */\n      dup2\n        /* \"#utility.yul\":1335:1373   */\n      add\n        /* \"#utility.yul\":1423:1429   */\n      dup2\n        /* \"#utility.yul\":1411:1421   */\n      dup2\n        /* \"#utility.yul\":1408:1430   */\n      lt\n        /* \"#utility.yul\":1403:1405   */\n      dup6\n        /* \"#utility.yul\":1391:1401   */\n      dup3\n        /* \"#utility.yul\":1388:1406   */\n      gt\n        /* \"#utility.yul\":1385:1431   */\n      or\n        /* \"#utility.yul\":1382:1384   */\n      iszero\n      tag_207\n      jumpi\n        /* \"#utility.yul\":1434:1452   */\n      tag_207\n      tag_205\n      jump\t// in\n    tag_207:\n        /* \"#utility.yul\":1470:1472   */\n      0x40\n        /* \"#utility.yul\":1463:1485   */\n      mstore\n        /* \"#utility.yul\":1520:1538   */\n      dup3\n      dup2\n      mstore\n        /* \"#utility.yul\":1554:1569   */\n      dup6\n      dup2\n      add\n      swap4\n      pop\n        /* \"#utility.yul\":1589:1600   */\n      dup5\n      dup7\n      add\n        /* \"#utility.yul\":1619:1630   */\n      dup3\n      dup7\n      add\n        /* \"#utility.yul\":1615:1635   */\n      dup8\n      add\n        /* \"#utility.yul\":1612:1645   */\n      dup14\n      lt\n        /* \"#utility.yul\":1609:1611   */\n      iszero\n      tag_208\n      jumpi\n        /* \"#utility.yul\":1663:1669   */\n      dup8\n        /* \"#utility.yul\":1655:1661   */\n      dup9\n        /* \"#utility.yul\":1648:1670   */\n      revert\n        /* \"#utility.yul\":1609:1611   */\n    tag_208:\n        /* \"#utility.yul\":1690:1696   */\n      dup8\n        /* \"#utility.yul\":1681:1696   */\n      swap6\n      pop\n        /* \"#utility.yul\":1705:1868   */\n    tag_209:\n        /* \"#utility.yul\":1719:1721   */\n      dup4\n        /* \"#utility.yul\":1716:1717   */\n      dup7\n        /* \"#utility.yul\":1713:1722   */\n      lt\n        /* \"#utility.yul\":1705:1868   */\n      iszero\n      tag_211\n      jumpi\n        /* \"#utility.yul\":1776:1793   */\n      dup1\n      calldataload\n        /* \"#utility.yul\":1764:1794   */\n      dup6\n      mstore\n        /* \"#utility.yul\":1737:1738   */\n      0x01\n        /* \"#utility.yul\":1730:1739   */\n      swap6\n      swap1\n      swap6\n      add\n      swap5\n        /* \"#utility.yul\":1814:1826   */\n      swap4\n      dup7\n      add\n      swap4\n        /* \"#utility.yul\":1846:1858   */\n      dup7\n      add\n        /* \"#utility.yul\":1705:1868   */\n      jump(tag_209)\n    tag_211:\n      pop\n        /* \"#utility.yul\":456:1899   */\n      swap9\n      swap12\n      swap8\n      swap11\n      pop\n      swap6\n      swap9\n      pop\n      pop\n      pop\n      pop\n      pop\n      pop\n      pop\n      jump\t// out\n        /* \"#utility.yul\":1904:2094   */\n    tag_37:\n        /* \"#utility.yul\":1963:1969   */\n      0x00\n        /* \"#utility.yul\":2016:2018   */\n      0x20\n        /* \"#utility.yul\":2004:2013   */\n      dup3\n        /* \"#utility.yul\":1995:2002   */\n      dup5\n        /* \"#utility.yul\":1991:2014   */\n      sub\n        /* \"#utility.yul\":1987:2019   */\n      slt\n        /* \"#utility.yul\":1984:1986   */\n      iszero\n      tag_213\n      jumpi\n        /* \"#utility.yul\":2037:2043   */\n      dup1\n        /* \"#utility.yul\":2029:2035   */\n      dup2\n        /* \"#utility.yul\":2022:2044   */\n      revert\n        /* \"#utility.yul\":1984:1986   */\n    tag_213:\n      pop\n        /* \"#utility.yul\":2065:2088   */\n      calldataload\n      swap2\n        /* \"#utility.yul\":1974:2094   */\n      swap1\n      pop\n      jump\t// out\n        /* \"#utility.yul\":2099:2293   */\n    tag_150:\n        /* \"#utility.yul\":2169:2175   */\n      0x00\n        /* \"#utility.yul\":2222:2224   */\n      0x20\n        /* \"#utility.yul\":2210:2219   */\n      dup3\n        /* \"#utility.yul\":2201:2208   */\n      dup5\n        /* \"#utility.yul\":2197:2220   */\n      sub\n        /* \"#utility.yul\":2193:2225   */\n      slt\n        /* \"#utility.yul\":2190:2192   */\n      iszero\n      tag_215\n      jumpi\n        /* \"#utility.yul\":2243:2249   */\n      dup1\n        /* \"#utility.yul\":2235:2241   */\n      dup2\n        /* \"#utility.yul\":2228:2250   */\n      revert\n        /* \"#utility.yul\":2190:2192   */\n    tag_215:\n      pop\n        /* \"#utility.yul\":2271:2287   */\n      mload\n      swap2\n        /* \"#utility.yul\":2180:2293   */\n      swap1\n      pop\n      jump\t// out\n        /* \"#utility.yul\":6673:6890   */\n    tag_181:\n        /* \"#utility.yul\":6713:6714   */\n      0x00\n        /* \"#utility.yul\":6739:6740   */\n      dup3\n        /* \"#utility.yul\":6729:6731   */\n      tag_228\n      jumpi\n      shl(0xe0, 0x4e487b71)\n        /* \"#utility.yul\":6764:6795   */\n      dup2\n      mstore\n        /* \"#utility.yul\":6818:6822   */\n      0x12\n        /* \"#utility.yul\":6815:6816   */\n      0x04\n        /* \"#utility.yul\":6808:6823   */\n      mstore\n        /* \"#utility.yul\":6846:6850   */\n      0x24\n        /* \"#utility.yul\":6771:6772   */\n      dup2\n        /* \"#utility.yul\":6836:6851   */\n      revert\n        /* \"#utility.yul\":6729:6731   */\n    tag_228:\n      pop\n        /* \"#utility.yul\":6875:6884   */\n      div\n      swap1\n        /* \"#utility.yul\":6719:6890   */\n      jump\t// out\n        /* \"#utility.yul\":6895:7317   */\n    tag_229:\n        /* \"#utility.yul\":6984:6985   */\n      0x01\n        /* \"#utility.yul\":7027:7032   */\n      dup2\n        /* \"#utility.yul\":6984:6985   */\n      dup2\n        /* \"#utility.yul\":7041:7311   */\n    tag_231:\n        /* \"#utility.yul\":7062:7069   */\n      dup1\n        /* \"#utility.yul\":7052:7060   */\n      dup6\n        /* \"#utility.yul\":7049:7070   */\n      gt\n        /* \"#utility.yul\":7041:7311   */\n      iszero\n      tag_233\n      jumpi\n        /* \"#utility.yul\":7121:7125   */\n      dup2\n        /* \"#utility.yul\":7117:7118   */\n      0x00\n        /* \"#utility.yul\":7113:7119   */\n      not\n        /* \"#utility.yul\":7109:7126   */\n      div\n        /* \"#utility.yul\":7103:7107   */\n      dup3\n        /* \"#utility.yul\":7100:7127   */\n      gt\n        /* \"#utility.yul\":7097:7099   */\n      iszero\n      tag_235\n      jumpi\n        /* \"#utility.yul\":7130:7148   */\n      tag_235\n      tag_236\n      jump\t// in\n    tag_235:\n        /* \"#utility.yul\":7180:7187   */\n      dup1\n        /* \"#utility.yul\":7170:7178   */\n      dup6\n        /* \"#utility.yul\":7166:7188   */\n      and\n        /* \"#utility.yul\":7163:7165   */\n      iszero\n      tag_237\n      jumpi\n        /* \"#utility.yul\":7200:7216   */\n      swap2\n      dup2\n      mul\n      swap2\n        /* \"#utility.yul\":7163:7165   */\n    tag_237:\n        /* \"#utility.yul\":7279:7301   */\n      swap4\n      dup5\n      shr\n      swap4\n        /* \"#utility.yul\":7239:7254   */\n      swap1\n      dup1\n      mul\n      swap1\n        /* \"#utility.yul\":7041:7311   */\n      jump(tag_231)\n    tag_233:\n        /* \"#utility.yul\":7045:7048   */\n      pop\n        /* \"#utility.yul\":6959:7317   */\n      swap3\n      pop\n      swap3\n      swap1\n      pop\n      jump\t// out\n        /* \"#utility.yul\":7322:7453   */\n    tag_152:\n        /* \"#utility.yul\":7382:7387   */\n      0x00\n        /* \"#utility.yul\":7411:7447   */\n      tag_170\n        /* \"#utility.yul\":7438:7446   */\n      dup4\n        /* \"#utility.yul\":7432:7436   */\n      dup4\n        /* \"#utility.yul\":7507:7512   */\n      0x00\n        /* \"#utility.yul\":7537:7545   */\n      dup3\n        /* \"#utility.yul\":7527:7529   */\n      tag_242\n      jumpi\n      pop\n        /* \"#utility.yul\":7578:7579   */\n      0x01\n        /* \"#utility.yul\":7592:7597   */\n      jump(tag_169)\n        /* \"#utility.yul\":7527:7529   */\n    tag_242:\n        /* \"#utility.yul\":7626:7630   */\n      dup2\n        /* \"#utility.yul\":7616:7618   */\n      tag_243\n      jumpi\n      pop\n        /* \"#utility.yul\":7663:7664   */\n      0x00\n        /* \"#utility.yul\":7677:7682   */\n      jump(tag_169)\n        /* \"#utility.yul\":7616:7618   */\n    tag_243:\n        /* \"#utility.yul\":7708:7712   */\n      dup2\n        /* \"#utility.yul\":7726:7727   */\n      0x01\n        /* \"#utility.yul\":7721:7780   */\n      dup2\n      eq\n      tag_245\n      jumpi\n        /* \"#utility.yul\":7794:7795   */\n      0x02\n        /* \"#utility.yul\":7789:7919   */\n      dup2\n      eq\n      tag_246\n      jumpi\n        /* \"#utility.yul\":7701:7919   */\n      jump(tag_244)\n        /* \"#utility.yul\":7721:7780   */\n    tag_245:\n        /* \"#utility.yul\":7751:7752   */\n      0x01\n        /* \"#utility.yul\":7742:7752   */\n      swap2\n      pop\n        /* \"#utility.yul\":7765:7770   */\n      pop\n      jump(tag_169)\n        /* \"#utility.yul\":7789:7919   */\n    tag_246:\n        /* \"#utility.yul\":7826:7829   */\n      0xff\n        /* \"#utility.yul\":7816:7824   */\n      dup5\n        /* \"#utility.yul\":7813:7830   */\n      gt\n        /* \"#utility.yul\":7810:7812   */\n      iszero\n      tag_248\n      jumpi\n        /* \"#utility.yul\":7833:7851   */\n      tag_248\n      tag_236\n      jump\t// in\n    tag_248:\n      pop\n      pop\n        /* \"#utility.yul\":7889:7890   */\n      0x01\n        /* \"#utility.yul\":7875:7891   */\n      dup3\n      shl\n        /* \"#utility.yul\":7904:7909   */\n      jump(tag_169)\n        /* \"#utility.yul\":7701:7919   */\n    tag_244:\n      pop\n        /* \"#utility.yul\":8003:8005   */\n      0x20\n        /* \"#utility.yul\":7993:8001   */\n      dup4\n        /* \"#utility.yul\":7990:8006   */\n      lt\n        /* \"#utility.yul\":7984:7987   */\n      0x0133\n        /* \"#utility.yul\":7978:7982   */\n      dup4\n        /* \"#utility.yul\":7975:7988   */\n      lt\n        /* \"#utility.yul\":7971:8007   */\n      and\n        /* \"#utility.yul\":7965:7967   */\n      0x4e\n        /* \"#utility.yul\":7955:7963   */\n      dup5\n        /* \"#utility.yul\":7952:7968   */\n      lt\n        /* \"#utility.yul\":7947:7949   */\n      0x0b\n        /* \"#utility.yul\":7941:7945   */\n      dup5\n        /* \"#utility.yul\":7938:7950   */\n      lt\n        /* \"#utility.yul\":7934:7969   */\n      and\n        /* \"#utility.yul\":7931:8008   */\n      or\n        /* \"#utility.yul\":7928:7930   */\n      iszero\n      tag_249\n      jumpi\n      pop\n        /* \"#utility.yul\":8040:8059   */\n      dup2\n      dup2\n      exp\n        /* \"#utility.yul\":8072:8077   */\n      jump(tag_169)\n        /* \"#utility.yul\":7928:7930   */\n    tag_249:\n        /* \"#utility.yul\":8119:8153   */\n      tag_250\n        /* \"#utility.yul\":8144:8152   */\n      dup4\n        /* \"#utility.yul\":8138:8142   */\n      dup4\n        /* \"#utility.yul\":8119:8153   */\n      tag_229\n      jump\t// in\n    tag_250:\n        /* \"#utility.yul\":8189:8195   */\n      dup1\n        /* \"#utility.yul\":8185:8186   */\n      0x00\n        /* \"#utility.yul\":8181:8187   */\n      not\n        /* \"#utility.yul\":8177:8196   */\n      div\n        /* \"#utility.yul\":8168:8175   */\n      dup3\n        /* \"#utility.yul\":8165:8197   */\n      gt\n        /* \"#utility.yul\":8162:8164   */\n      iszero\n      tag_252\n      jumpi\n        /* \"#utility.yul\":8200:8218   */\n      tag_252\n      tag_236\n      jump\t// in\n    tag_252:\n        /* \"#utility.yul\":8238:8258   */\n      mul\n      swap4\n        /* \"#utility.yul\":7517:8264   */\n      swap3\n      pop\n      pop\n      pop\n      jump\t// out\n        /* \"#utility.yul\":8269:8437   */\n    tag_178:\n        /* \"#utility.yul\":8309:8316   */\n      0x00\n        /* \"#utility.yul\":8375:8376   */\n      dup2\n        /* \"#utility.yul\":8371:8372   */\n      0x00\n        /* \"#utility.yul\":8367:8373   */\n      not\n        /* \"#utility.yul\":8363:8377   */\n      div\n        /* \"#utility.yul\":8360:8361   */\n      dup4\n        /* \"#utility.yul\":8357:8378   */\n      gt\n        /* \"#utility.yul\":8352:8353   */\n      dup3\n        /* \"#utility.yul\":8345:8354   */\n      iszero\n        /* \"#utility.yul\":8338:8355   */\n      iszero\n        /* \"#utility.yul\":8334:8379   */\n      and\n        /* \"#utility.yul\":8331:8333   */\n      iszero\n      tag_255\n      jumpi\n        /* \"#utility.yul\":8382:8400   */\n      tag_255\n      tag_236\n      jump\t// in\n    tag_255:\n      pop\n        /* \"#utility.yul\":8422:8431   */\n      mul\n      swap1\n        /* \"#utility.yul\":8321:8437   */\n      jump\t// out\n        /* \"#utility.yul\":8442:8567   */\n    tag_103:\n        /* \"#utility.yul\":8482:8486   */\n      0x00\n        /* \"#utility.yul\":8510:8511   */\n      dup3\n        /* \"#utility.yul\":8507:8508   */\n      dup3\n        /* \"#utility.yul\":8504:8512   */\n      lt\n        /* \"#utility.yul\":8501:8503   */\n      iszero\n      tag_258\n      jumpi\n        /* \"#utility.yul\":8515:8533   */\n      tag_258\n      tag_236\n      jump\t// in\n    tag_258:\n      pop\n        /* \"#utility.yul\":8552:8561   */\n      sub\n      swap1\n        /* \"#utility.yul\":8491:8567   */\n      jump\t// out\n        /* \"#utility.yul\":8572:8699   */\n    tag_236:\n        /* \"#utility.yul\":8633:8643   */\n      0x4e487b71\n        /* \"#utility.yul\":8628:8631   */\n      0xe0\n        /* \"#utility.yul\":8624:8644   */\n      shl\n        /* \"#utility.yul\":8621:8622   */\n      0x00\n        /* \"#utility.yul\":8614:8645   */\n      mstore\n        /* \"#utility.yul\":8664:8668   */\n      0x11\n        /* \"#utility.yul\":8661:8662   */\n      0x04\n        /* \"#utility.yul\":8654:8669   */\n      mstore\n        /* \"#utility.yul\":8688:8692   */\n      0x24\n        /* \"#utility.yul\":8685:8686   */\n      0x00\n        /* \"#utility.yul\":8678:8693   */\n      revert\n        /* \"#utility.yul\":8704:8831   */\n    tag_205:\n        /* \"#utility.yul\":8765:8775   */\n      0x4e487b71\n        /* \"#utility.yul\":8760:8763   */\n      0xe0\n        /* \"#utility.yul\":8756:8776   */\n      shl\n        /* \"#utility.yul\":8753:8754   */\n      0x00\n        /* \"#utility.yul\":8746:8777   */\n      mstore\n        /* \"#utility.yul\":8796:8800   */\n      0x41\n        /* \"#utility.yul\":8793:8794   */\n      0x04\n        /* \"#utility.yul\":8786:8801   */\n      mstore\n        /* \"#utility.yul\":8820:8824   */\n      0x24\n        /* \"#utility.yul\":8817:8818   */\n      0x00\n        /* \"#utility.yul\":8810:8825   */\n      revert\n        /* \"#utility.yul\":8836:8967   */\n    tag_195:\n      sub(shl(0xa0, 0x01), 0x01)\n        /* \"#utility.yul\":8911:8942   */\n      dup2\n      and\n        /* \"#utility.yul\":8901:8943   */\n      dup2\n      eq\n        /* \"#utility.yul\":8891:8893   */\n      tag_126\n      jumpi\n        /* \"#utility.yul\":8957:8958   */\n      0x00\n        /* \"#utility.yul\":8954:8955   */\n      dup1\n        /* \"#utility.yul\":8947:8959   */\n      revert\n\n    auxdata: 0xa2646970667358221220b54a11de3ce6aabbdcee24eedbeb7edffb73494ee091f1506956de4e618a29f664736f6c63430008040033\n}\n",
				"bytecode": {
					"linkReferences": {},
					"object": "608060405260016000556100123361009c565b6016805473c778417e063141139fce010982780140aa0cd5ab6001600160a01b03199091161790556100646018736ccb41eeda5a073076f3e7dc1614c185b5fa41ed6100ee602090811b61095a17901c565b50610091734f0b12bbf40fc182559822a5b1db6d34dbc3e01660186100ee60201b61095a1790919060201c565b50601460175561015b565b600180546001600160a01b038381166001600160a01b0319831681179093556040519116919082907f8be0079c531659141344cd1fd0a4f28419497f9722a3daafe3b4186f6b6457e090600090a35050565b6000610103836001600160a01b03841661010c565b90505b92915050565b600081815260018301602052604081205461015357508154600181810184556000848152602080822090930184905584548482528286019093526040902091909155610106565b506000610106565b610d628061016a6000396000f3fe6080604052600436106100f35760003560e01c80638da5cb5b1161008a578063cad5b0f711610059578063cad5b0f714610333578063e2d3f42314610358578063f2fde38b146103df578063f8b2cb4f146103ff57600080fd5b80638da5cb5b14610269578063acfb23551461029b578063ad5c4648146102f3578063b6b55f251461031357600080fd5b806356c5f349116100c657806356c5f349146101ff578063715018a61461022c57806382374b9f14610241578063861faf5f1461026157600080fd5b806318856a2f146100f8578063200d2ed2146101b15780633b5ef2ad146101d45780634329db46146101ea575b600080fd5b34801561010457600080fd5b50600b54600c54600d54600e54600f546010546011546012546013546014546015546101489a6001600160a01b039081169a81169916979695949392919060ff168b565b604080516001600160a01b039c8d1681529a8c1660208c015298909a16978901979097526060880195909552608087019390935260a086019190915260c085015260e0840152610100830152610120820152901515610140820152610160015b60405180910390f35b3480156101bd57600080fd5b506101c6610427565b6040519081526020016101a8565b3480156101e057600080fd5b506101c660175481565b6101fd6101f8366004610b7a565b610450565b005b34801561020b57600080fd5b506101c661021a366004610a5f565b60036020526000908152604090205481565b34801561023857600080fd5b506101fd61048a565b34801561024d57600080fd5b506101fd61025c366004610a82565b6104f5565b6101fd6106b9565b34801561027557600080fd5b506001546001600160a01b03165b6040516001600160a01b0390911681526020016101a8565b3480156102a757600080fd5b506004546005546006546007546008546009546102c695949392919086565b604080519687526020870195909552938501929092526060840152608083015260a082015260c0016101a8565b3480156102ff57600080fd5b50601654610283906001600160a01b031681565b34801561031f57600080fd5b506101c661032e366004610b7a565b6106e8565b34801561033f57600080fd5b50610348610880565b60405190151581526020016101a8565b34801561036457600080fd5b506103ae610373366004610a5f565b600260208190526000918252604090912080546001820154928201546003830154600490930154919392909160ff8082169161010090041686565b60408051968752602087019590955293850192909252606084015215156080830152151560a082015260c0016101a8565b3480156103eb57600080fd5b506101fd6103fa366004610a5f565b610892565b34801561040b57600080fd5b506101c661041a366004610a5f565b6001600160a01b03163190565b600f5460009042101561043a5750600090565b60105442111561044a5750600290565b50600190565b336108fc61045e8334610cd4565b6040518115909202916000818181858888f19350505050158015610486573d6000803e3d6000fd5b5050565b6001546001600160a01b031633146104e95760405162461bcd60e51b815260206004820181905260248201527f4f776e61626c653a2063616c6c6572206973206e6f7420746865206f776e657260448201526064015b60405180910390fd5b6104f36000610978565b565b600b80546001600160a01b038087166001600160a01b031992831617909255600c8054868416908316179055600d8054928516929091169190911790558051819060009061055357634e487b7160e01b600052603260045260246000fd5b6020026020010151600b600301819055508060018151811061058557634e487b7160e01b600052603260045260246000fd5b6020026020010151600b60040181905550806002815181106105b757634e487b7160e01b600052603260045260246000fd5b6020026020010151600b60050181905550806003815181106105e957634e487b7160e01b600052603260045260246000fd5b6020026020010151600b600601819055508060048151811061061b57634e487b7160e01b600052603260045260246000fd5b6020026020010151600b600701819055508060058151811061064d57634e487b7160e01b600052603260045260246000fd5b6020026020010151600b600801819055508060068151811061067f57634e487b7160e01b600052603260045260246000fd5b60209081029190910101516014555050600d54601654601580546001600160a01b03938416939092169290921460ff199091161790555050565b60405133904780156108fc02916000818181858888f193505050501580156106e5573d6000803e3d6000fd5b50565b60006106f2610427565b60011461072e5760405162461bcd60e51b815260206004820152600a6024820152694e4f542041435449564560b01b60448201526064016104e0565b336000908152600260205260408120601154909184918291906103e89083101561078d5760405162461bcd60e51b815260206004820152601060248201526f4e6f7420656e6f7567682076616c756560801b60448201526064016104e0565b610795610880565b6107c5576107c2816107bc856107b6601754866109ca90919063ffffffff16565b906109d6565b906109e2565b92505b6012546000906107d6908590610cd4565b600d546040805163313ce56760e01b81529051929350600092610873926001600160a01b03169163313ce567916004808301926020929190829003018186803b15801561082257600080fd5b505afa158015610836573d6000803e3d6000fd5b505050506040513d601f19601f8201168201806040525081019061085a9190610b92565b61086590600a610c0d565b600e546107bc9088906109d6565b9998505050505050505050565b600061088d6018336109ee565b905090565b6001546001600160a01b031633146108ec5760405162461bcd60e51b815260206004820181905260248201527f4f776e61626c653a2063616c6c6572206973206e6f7420746865206f776e657260448201526064016104e0565b6001600160a01b0381166109515760405162461bcd60e51b815260206004820152602660248201527f4f776e61626c653a206e6577206f776e657220697320746865207a65726f206160448201526564647265737360d01b60648201526084016104e0565b6106e581610978565b600061096f836001600160a01b038416610a10565b90505b92915050565b600180546001600160a01b038381166001600160a01b0319831681179093556040519116919082907f8be0079c531659141344cd1fd0a4f28419497f9722a3daafe3b4186f6b6457e090600090a35050565b600061096f8284610cd4565b600061096f8284610cb5565b600061096f8284610baa565b6001600160a01b0381166000908152600183016020526040812054151561096f565b6000818152600183016020526040812054610a5757508154600181810184556000848152602080822090930184905584548482528286019093526040902091909155610972565b506000610972565b600060208284031215610a70578081fd5b8135610a7b81610d17565b9392505050565b60008060008060808587031215610a97578283fd5b8435610aa281610d17565b9350602085810135610ab381610d17565b93506040860135610ac381610d17565b9250606086013567ffffffffffffffff80821115610adf578384fd5b818801915088601f830112610af2578384fd5b813581811115610b0457610b04610d01565b8060051b604051601f19603f83011681018181108582111715610b2957610b29610d01565b604052828152858101935084860182860187018d1015610b47578788fd5b8795505b83861015610b69578035855260019590950194938601938601610b4b565b50989b979a50959850505050505050565b600060208284031215610b8b578081fd5b5035919050565b600060208284031215610ba3578081fd5b5051919050565b600082610bc557634e487b7160e01b81526012600452602481fd5b500490565b600181815b80851115610c05578160001904821115610beb57610beb610ceb565b80851615610bf857918102915b93841c9390800290610bcf565b509250929050565b600061096f8383600082610c2357506001610972565b81610c3057506000610972565b8160018114610c465760028114610c5057610c6c565b6001915050610972565b60ff841115610c6157610c61610ceb565b50506001821b610972565b5060208310610133831016604e8410600b8410161715610c8f575081810a610972565b610c998383610bca565b8060001904821115610cad57610cad610ceb565b029392505050565b6000816000190483118215151615610ccf57610ccf610ceb565b500290565b600082821015610ce657610ce6610ceb565b500390565b634e487b7160e01b600052601160045260246000fd5b634e487b7160e01b600052604160045260246000fd5b6001600160a01b03811681146106e557600080fdfea2646970667358221220b54a11de3ce6aabbdcee24eedbeb7edffb73494ee091f1506956de4e618a29f664736f6c63430008040033",
					"opcodes": "PUSH1 0x80 PUSH1 0x40 MSTORE PUSH1 0x1 PUSH1 0x0 SSTORE PUSH2 0x12 CALLER PUSH2 0x9C JUMP JUMPDEST PUSH1 0x16 DUP1 SLOAD PUSH20 0xC778417E063141139FCE010982780140AA0CD5AB PUSH1 0x1 PUSH1 0x1 PUSH1 0xA0 SHL SUB NOT SWAP1 SWAP2 AND OR SWAP1 SSTORE PUSH2 0x64 PUSH1 0x18 PUSH20 0x6CCB41EEDA5A073076F3E7DC1614C185B5FA41ED PUSH2 0xEE PUSH1 0x20 SWAP1 DUP2 SHL PUSH2 0x95A OR SWAP1 SHR JUMP JUMPDEST POP PUSH2 0x91 PUSH20 0x4F0B12BBF40FC182559822A5B1DB6D34DBC3E016 PUSH1 0x18 PUSH2 0xEE PUSH1 0x20 SHL PUSH2 0x95A OR SWAP1 SWAP2 SWAP1 PUSH1 0x20 SHR JUMP JUMPDEST POP PUSH1 0x14 PUSH1 0x17 SSTORE PUSH2 0x15B JUMP JUMPDEST PUSH1 0x1 DUP1 SLOAD PUSH1 0x1 PUSH1 0x1 PUSH1 0xA0 SHL SUB DUP4 DUP2 AND PUSH1 0x1 PUSH1 0x1 PUSH1 0xA0 SHL SUB NOT DUP4 AND DUP2 OR SWAP1 SWAP4 SSTORE PUSH1 0x40 MLOAD SWAP2 AND SWAP2 SWAP1 DUP3 SWAP1 PUSH32 0x8BE0079C531659141344CD1FD0A4F28419497F9722A3DAAFE3B4186F6B6457E0 SWAP1 PUSH1 0x0 SWAP1 LOG3 POP POP JUMP JUMPDEST PUSH1 0x0 PUSH2 0x103 DUP4 PUSH1 0x1 PUSH1 0x1 PUSH1 0xA0 SHL SUB DUP5 AND PUSH2 0x10C JUMP JUMPDEST SWAP1 POP JUMPDEST SWAP3 SWAP2 POP POP JUMP JUMPDEST PUSH1 0x0 DUP2 DUP2 MSTORE PUSH1 0x1 DUP4 ADD PUSH1 0x20 MSTORE PUSH1 0x40 DUP2 KECCAK256 SLOAD PUSH2 0x153 JUMPI POP DUP2 SLOAD PUSH1 0x1 DUP2 DUP2 ADD DUP5 SSTORE PUSH1 0x0 DUP5 DUP2 MSTORE PUSH1 0x20 DUP1 DUP3 KECCAK256 SWAP1 SWAP4 ADD DUP5 SWAP1 SSTORE DUP5 SLOAD DUP5 DUP3 MSTORE DUP3 DUP7 ADD SWAP1 SWAP4 MSTORE PUSH1 0x40 SWAP1 KECCAK256 SWAP2 SWAP1 SWAP2 SSTORE PUSH2 0x106 JUMP JUMPDEST POP PUSH1 0x0 PUSH2 0x106 JUMP JUMPDEST PUSH2 0xD62 DUP1 PUSH2 0x16A PUSH1 0x0 CODECOPY PUSH1 0x0 RETURN INVALID PUSH1 0x80 PUSH1 0x40 MSTORE PUSH1 0x4 CALLDATASIZE LT PUSH2 0xF3 JUMPI PUSH1 0x0 CALLDATALOAD PUSH1 0xE0 SHR DUP1 PUSH4 0x8DA5CB5B GT PUSH2 0x8A JUMPI DUP1 PUSH4 0xCAD5B0F7 GT PUSH2 0x59 JUMPI DUP1 PUSH4 0xCAD5B0F7 EQ PUSH2 0x333 JUMPI DUP1 PUSH4 0xE2D3F423 EQ PUSH2 0x358 JUMPI DUP1 PUSH4 0xF2FDE38B EQ PUSH2 0x3DF JUMPI DUP1 PUSH4 0xF8B2CB4F EQ PUSH2 0x3FF JUMPI PUSH1 0x0 DUP1 REVERT JUMPDEST DUP1 PUSH4 0x8DA5CB5B EQ PUSH2 0x269 JUMPI DUP1 PUSH4 0xACFB2355 EQ PUSH2 0x29B JUMPI DUP1 PUSH4 0xAD5C4648 EQ PUSH2 0x2F3 JUMPI DUP1 PUSH4 0xB6B55F25 EQ PUSH2 0x313 JUMPI PUSH1 0x0 DUP1 REVERT JUMPDEST DUP1 PUSH4 0x56C5F349 GT PUSH2 0xC6 JUMPI DUP1 PUSH4 0x56C5F349 EQ PUSH2 0x1FF JUMPI DUP1 PUSH4 0x715018A6 EQ PUSH2 0x22C JUMPI DUP1 PUSH4 0x82374B9F EQ PUSH2 0x241 JUMPI DUP1 PUSH4 0x861FAF5F EQ PUSH2 0x261 JUMPI PUSH1 0x0 DUP1 REVERT JUMPDEST DUP1 PUSH4 0x18856A2F EQ PUSH2 0xF8 JUMPI DUP1 PUSH4 0x200D2ED2 EQ PUSH2 0x1B1 JUMPI DUP1 PUSH4 0x3B5EF2AD EQ PUSH2 0x1D4 JUMPI DUP1 PUSH4 0x4329DB46 EQ PUSH2 0x1EA JUMPI JUMPDEST PUSH1 0x0 DUP1 REVERT JUMPDEST CALLVALUE DUP1 ISZERO PUSH2 0x104 JUMPI PUSH1 0x0 DUP1 REVERT JUMPDEST POP PUSH1 0xB SLOAD PUSH1 0xC SLOAD PUSH1 0xD SLOAD PUSH1 0xE SLOAD PUSH1 0xF SLOAD PUSH1 0x10 SLOAD PUSH1 0x11 SLOAD PUSH1 0x12 SLOAD PUSH1 0x13 SLOAD PUSH1 0x14 SLOAD PUSH1 0x15 SLOAD PUSH2 0x148 SWAP11 PUSH1 0x1 PUSH1 0x1 PUSH1 0xA0 SHL SUB SWAP1 DUP2 AND SWAP11 DUP2 AND SWAP10 AND SWAP8 SWAP7 SWAP6 SWAP5 SWAP4 SWAP3 SWAP2 SWAP1 PUSH1 0xFF AND DUP12 JUMP JUMPDEST PUSH1 0x40 DUP1 MLOAD PUSH1 0x1 PUSH1 0x1 PUSH1 0xA0 SHL SUB SWAP13 DUP14 AND DUP2 MSTORE SWAP11 DUP13 AND PUSH1 0x20 DUP13 ADD MSTORE SWAP9 SWAP1 SWAP11 AND SWAP8 DUP10 ADD SWAP8 SWAP1 SWAP8 MSTORE PUSH1 0x60 DUP9 ADD SWAP6 SWAP1 SWAP6 MSTORE PUSH1 0x80 DUP8 ADD SWAP4 SWAP1 SWAP4 MSTORE PUSH1 0xA0 DUP7 ADD SWAP2 SWAP1 SWAP2 MSTORE PUSH1 0xC0 DUP6 ADD MSTORE PUSH1 0xE0 DUP5 ADD MSTORE PUSH2 0x100 DUP4 ADD MSTORE PUSH2 0x120 DUP3 ADD MSTORE SWAP1 ISZERO ISZERO PUSH2 0x140 DUP3 ADD MSTORE PUSH2 0x160 ADD JUMPDEST PUSH1 0x40 MLOAD DUP1 SWAP2 SUB SWAP1 RETURN JUMPDEST CALLVALUE DUP1 ISZERO PUSH2 0x1BD JUMPI PUSH1 0x0 DUP1 REVERT JUMPDEST POP PUSH2 0x1C6 PUSH2 0x427 JUMP JUMPDEST PUSH1 0x40 MLOAD SWAP1 DUP2 MSTORE PUSH1 0x20 ADD PUSH2 0x1A8 JUMP JUMPDEST CALLVALUE DUP1 ISZERO PUSH2 0x1E0 JUMPI PUSH1 0x0 DUP1 REVERT JUMPDEST POP PUSH2 0x1C6 PUSH1 0x17 SLOAD DUP2 JUMP JUMPDEST PUSH2 0x1FD PUSH2 0x1F8 CALLDATASIZE PUSH1 0x4 PUSH2 0xB7A JUMP JUMPDEST PUSH2 0x450 JUMP JUMPDEST STOP JUMPDEST CALLVALUE DUP1 ISZERO PUSH2 0x20B JUMPI PUSH1 0x0 DUP1 REVERT JUMPDEST POP PUSH2 0x1C6 PUSH2 0x21A CALLDATASIZE PUSH1 0x4 PUSH2 0xA5F JUMP JUMPDEST PUSH1 0x3 PUSH1 0x20 MSTORE PUSH1 0x0 SWAP1 DUP2 MSTORE PUSH1 0x40 SWAP1 KECCAK256 SLOAD DUP2 JUMP JUMPDEST CALLVALUE DUP1 ISZERO PUSH2 0x238 JUMPI PUSH1 0x0 DUP1 REVERT JUMPDEST POP PUSH2 0x1FD PUSH2 0x48A JUMP JUMPDEST CALLVALUE DUP1 ISZERO PUSH2 0x24D JUMPI PUSH1 0x0 DUP1 REVERT JUMPDEST POP PUSH2 0x1FD PUSH2 0x25C CALLDATASIZE PUSH1 0x4 PUSH2 0xA82 JUMP JUMPDEST PUSH2 0x4F5 JUMP JUMPDEST PUSH2 0x1FD PUSH2 0x6B9 JUMP JUMPDEST CALLVALUE DUP1 ISZERO PUSH2 0x275 JUMPI PUSH1 0x0 DUP1 REVERT JUMPDEST POP PUSH1 0x1 SLOAD PUSH1 0x1 PUSH1 0x1 PUSH1 0xA0 SHL SUB AND JUMPDEST PUSH1 0x40 MLOAD PUSH1 0x1 PUSH1 0x1 PUSH1 0xA0 SHL SUB SWAP1 SWAP2 AND DUP2 MSTORE PUSH1 0x20 ADD PUSH2 0x1A8 JUMP JUMPDEST CALLVALUE DUP1 ISZERO PUSH2 0x2A7 JUMPI PUSH1 0x0 DUP1 REVERT JUMPDEST POP PUSH1 0x4 SLOAD PUSH1 0x5 SLOAD PUSH1 0x6 SLOAD PUSH1 0x7 SLOAD PUSH1 0x8 SLOAD PUSH1 0x9 SLOAD PUSH2 0x2C6 SWAP6 SWAP5 SWAP4 SWAP3 SWAP2 SWAP1 DUP7 JUMP JUMPDEST PUSH1 0x40 DUP1 MLOAD SWAP7 DUP8 MSTORE PUSH1 0x20 DUP8 ADD SWAP6 SWAP1 SWAP6 MSTORE SWAP4 DUP6 ADD SWAP3 SWAP1 SWAP3 MSTORE PUSH1 0x60 DUP5 ADD MSTORE PUSH1 0x80 DUP4 ADD MSTORE PUSH1 0xA0 DUP3 ADD MSTORE PUSH1 0xC0 ADD PUSH2 0x1A8 JUMP JUMPDEST CALLVALUE DUP1 ISZERO PUSH2 0x2FF JUMPI PUSH1 0x0 DUP1 REVERT JUMPDEST POP PUSH1 0x16 SLOAD PUSH2 0x283 SWAP1 PUSH1 0x1 PUSH1 0x1 PUSH1 0xA0 SHL SUB AND DUP2 JUMP JUMPDEST CALLVALUE DUP1 ISZERO PUSH2 0x31F JUMPI PUSH1 0x0 DUP1 REVERT JUMPDEST POP PUSH2 0x1C6 PUSH2 0x32E CALLDATASIZE PUSH1 0x4 PUSH2 0xB7A JUMP JUMPDEST PUSH2 0x6E8 JUMP JUMPDEST CALLVALUE DUP1 ISZERO PUSH2 0x33F JUMPI PUSH1 0x0 DUP1 REVERT JUMPDEST POP PUSH2 0x348 PUSH2 0x880 JUMP JUMPDEST PUSH1 0x40 MLOAD SWAP1 ISZERO ISZERO DUP2 MSTORE PUSH1 0x20 ADD PUSH2 0x1A8 JUMP JUMPDEST CALLVALUE DUP1 ISZERO PUSH2 0x364 JUMPI PUSH1 0x0 DUP1 REVERT JUMPDEST POP PUSH2 0x3AE PUSH2 0x373 CALLDATASIZE PUSH1 0x4 PUSH2 0xA5F JUMP JUMPDEST PUSH1 0x2 PUSH1 0x20 DUP2 SWAP1 MSTORE PUSH1 0x0 SWAP2 DUP3 MSTORE PUSH1 0x40 SWAP1 SWAP2 KECCAK256 DUP1 SLOAD PUSH1 0x1 DUP3 ADD SLOAD SWAP3 DUP3 ADD SLOAD PUSH1 0x3 DUP4 ADD SLOAD PUSH1 0x4 SWAP1 SWAP4 ADD SLOAD SWAP2 SWAP4 SWAP3 SWAP1 SWAP2 PUSH1 0xFF DUP1 DUP3 AND SWAP2 PUSH2 0x100 SWAP1 DIV AND DUP7 JUMP JUMPDEST PUSH1 0x40 DUP1 MLOAD SWAP7 DUP8 MSTORE PUSH1 0x20 DUP8 ADD SWAP6 SWAP1 SWAP6 MSTORE SWAP4 DUP6 ADD SWAP3 SWAP1 SWAP3 MSTORE PUSH1 0x60 DUP5 ADD MSTORE ISZERO ISZERO PUSH1 0x80 DUP4 ADD MSTORE ISZERO ISZERO PUSH1 0xA0 DUP3 ADD MSTORE PUSH1 0xC0 ADD PUSH2 0x1A8 JUMP JUMPDEST CALLVALUE DUP1 ISZERO PUSH2 0x3EB JUMPI PUSH1 0x0 DUP1 REVERT JUMPDEST POP PUSH2 0x1FD PUSH2 0x3FA CALLDATASIZE PUSH1 0x4 PUSH2 0xA5F JUMP JUMPDEST PUSH2 0x892 JUMP JUMPDEST CALLVALUE DUP1 ISZERO PUSH2 0x40B JUMPI PUSH1 0x0 DUP1 REVERT JUMPDEST POP PUSH2 0x1C6 PUSH2 0x41A CALLDATASIZE PUSH1 0x4 PUSH2 0xA5F JUMP JUMPDEST PUSH1 0x1 PUSH1 0x1 PUSH1 0xA0 SHL SUB AND BALANCE SWAP1 JUMP JUMPDEST PUSH1 0xF SLOAD PUSH1 0x0 SWAP1 TIMESTAMP LT ISZERO PUSH2 0x43A JUMPI POP PUSH1 0x0 SWAP1 JUMP JUMPDEST PUSH1 0x10 SLOAD TIMESTAMP GT ISZERO PUSH2 0x44A JUMPI POP PUSH1 0x2 SWAP1 JUMP JUMPDEST POP PUSH1 0x1 SWAP1 JUMP JUMPDEST CALLER PUSH2 0x8FC PUSH2 0x45E DUP4 CALLVALUE PUSH2 0xCD4 JUMP JUMPDEST PUSH1 0x40 MLOAD DUP2 ISZERO SWAP1 SWAP3 MUL SWAP2 PUSH1 0x0 DUP2 DUP2 DUP2 DUP6 DUP9 DUP9 CALL SWAP4 POP POP POP POP ISZERO DUP1 ISZERO PUSH2 0x486 JUMPI RETURNDATASIZE PUSH1 0x0 DUP1 RETURNDATACOPY RETURNDATASIZE PUSH1 0x0 REVERT JUMPDEST POP POP JUMP JUMPDEST PUSH1 0x1 SLOAD PUSH1 0x1 PUSH1 0x1 PUSH1 0xA0 SHL SUB AND CALLER EQ PUSH2 0x4E9 JUMPI PUSH1 0x40 MLOAD PUSH3 0x461BCD PUSH1 0xE5 SHL DUP2 MSTORE PUSH1 0x20 PUSH1 0x4 DUP3 ADD DUP2 SWAP1 MSTORE PUSH1 0x24 DUP3 ADD MSTORE PUSH32 0x4F776E61626C653A2063616C6C6572206973206E6F7420746865206F776E6572 PUSH1 0x44 DUP3 ADD MSTORE PUSH1 0x64 ADD JUMPDEST PUSH1 0x40 MLOAD DUP1 SWAP2 SUB SWAP1 REVERT JUMPDEST PUSH2 0x4F3 PUSH1 0x0 PUSH2 0x978 JUMP JUMPDEST JUMP JUMPDEST PUSH1 0xB DUP1 SLOAD PUSH1 0x1 PUSH1 0x1 PUSH1 0xA0 SHL SUB DUP1 DUP8 AND PUSH1 0x1 PUSH1 0x1 PUSH1 0xA0 SHL SUB NOT SWAP3 DUP4 AND OR SWAP1 SWAP3 SSTORE PUSH1 0xC DUP1 SLOAD DUP7 DUP5 AND SWAP1 DUP4 AND OR SWAP1 SSTORE PUSH1 0xD DUP1 SLOAD SWAP3 DUP6 AND SWAP3 SWAP1 SWAP2 AND SWAP2 SWAP1 SWAP2 OR SWAP1 SSTORE DUP1 MLOAD DUP2 SWAP1 PUSH1 0x0 SWAP1 PUSH2 0x553 JUMPI PUSH4 0x4E487B71 PUSH1 0xE0 SHL PUSH1 0x0 MSTORE PUSH1 0x32 PUSH1 0x4 MSTORE PUSH1 0x24 PUSH1 0x0 REVERT JUMPDEST PUSH1 0x20 MUL PUSH1 0x20 ADD ADD MLOAD PUSH1 0xB PUSH1 0x3 ADD DUP2 SWAP1 SSTORE POP DUP1 PUSH1 0x1 DUP2 MLOAD DUP2 LT PUSH2 0x585 JUMPI PUSH4 0x4E487B71 PUSH1 0xE0 SHL PUSH1 0x0 MSTORE PUSH1 0x32 PUSH1 0x4 MSTORE PUSH1 0x24 PUSH1 0x0 REVERT JUMPDEST PUSH1 0x20 MUL PUSH1 0x20 ADD ADD MLOAD PUSH1 0xB PUSH1 0x4 ADD DUP2 SWAP1 SSTORE POP DUP1 PUSH1 0x2 DUP2 MLOAD DUP2 LT PUSH2 0x5B7 JUMPI PUSH4 0x4E487B71 PUSH1 0xE0 SHL PUSH1 0x0 MSTORE PUSH1 0x32 PUSH1 0x4 MSTORE PUSH1 0x24 PUSH1 0x0 REVERT JUMPDEST PUSH1 0x20 MUL PUSH1 0x20 ADD ADD MLOAD PUSH1 0xB PUSH1 0x5 ADD DUP2 SWAP1 SSTORE POP DUP1 PUSH1 0x3 DUP2 MLOAD DUP2 LT PUSH2 0x5E9 JUMPI PUSH4 0x4E487B71 PUSH1 0xE0 SHL PUSH1 0x0 MSTORE PUSH1 0x32 PUSH1 0x4 MSTORE PUSH1 0x24 PUSH1 0x0 REVERT JUMPDEST PUSH1 0x20 MUL PUSH1 0x20 ADD ADD MLOAD PUSH1 0xB PUSH1 0x6 ADD DUP2 SWAP1 SSTORE POP DUP1 PUSH1 0x4 DUP2 MLOAD DUP2 LT PUSH2 0x61B JUMPI PUSH4 0x4E487B71 PUSH1 0xE0 SHL PUSH1 0x0 MSTORE PUSH1 0x32 PUSH1 0x4 MSTORE PUSH1 0x24 PUSH1 0x0 REVERT JUMPDEST PUSH1 0x20 MUL PUSH1 0x20 ADD ADD MLOAD PUSH1 0xB PUSH1 0x7 ADD DUP2 SWAP1 SSTORE POP DUP1 PUSH1 0x5 DUP2 MLOAD DUP2 LT PUSH2 0x64D JUMPI PUSH4 0x4E487B71 PUSH1 0xE0 SHL PUSH1 0x0 MSTORE PUSH1 0x32 PUSH1 0x4 MSTORE PUSH1 0x24 PUSH1 0x0 REVERT JUMPDEST PUSH1 0x20 MUL PUSH1 0x20 ADD ADD MLOAD PUSH1 0xB PUSH1 0x8 ADD DUP2 SWAP1 SSTORE POP DUP1 PUSH1 0x6 DUP2 MLOAD DUP2 LT PUSH2 0x67F JUMPI PUSH4 0x4E487B71 PUSH1 0xE0 SHL PUSH1 0x0 MSTORE PUSH1 0x32 PUSH1 0x4 MSTORE PUSH1 0x24 PUSH1 0x0 REVERT JUMPDEST PUSH1 0x20 SWAP1 DUP2 MUL SWAP2 SWAP1 SWAP2 ADD ADD MLOAD PUSH1 0x14 SSTORE POP POP PUSH1 0xD SLOAD PUSH1 0x16 SLOAD PUSH1 0x15 DUP1 SLOAD PUSH1 0x1 PUSH1 0x1 PUSH1 0xA0 SHL SUB SWAP4 DUP5 AND SWAP4 SWAP1 SWAP3 AND SWAP3 SWAP1 SWAP3 EQ PUSH1 0xFF NOT SWAP1 SWAP2 AND OR SWAP1 SSTORE POP POP JUMP JUMPDEST PUSH1 0x40 MLOAD CALLER SWAP1 SELFBALANCE DUP1 ISZERO PUSH2 0x8FC MUL SWAP2 PUSH1 0x0 DUP2 DUP2 DUP2 DUP6 DUP9 DUP9 CALL SWAP4 POP POP POP POP ISZERO DUP1 ISZERO PUSH2 0x6E5 JUMPI RETURNDATASIZE PUSH1 0x0 DUP1 RETURNDATACOPY RETURNDATASIZE PUSH1 0x0 REVERT JUMPDEST POP JUMP JUMPDEST PUSH1 0x0 PUSH2 0x6F2 PUSH2 0x427 JUMP JUMPDEST PUSH1 0x1 EQ PUSH2 0x72E JUMPI PUSH1 0x40 MLOAD PUSH3 0x461BCD PUSH1 0xE5 SHL DUP2 MSTORE PUSH1 0x20 PUSH1 0x4 DUP3 ADD MSTORE PUSH1 0xA PUSH1 0x24 DUP3 ADD MSTORE PUSH10 0x4E4F5420414354495645 PUSH1 0xB0 SHL PUSH1 0x44 DUP3 ADD MSTORE PUSH1 0x64 ADD PUSH2 0x4E0 JUMP JUMPDEST CALLER PUSH1 0x0 SWAP1 DUP2 MSTORE PUSH1 0x2 PUSH1 0x20 MSTORE PUSH1 0x40 DUP2 KECCAK256 PUSH1 0x11 SLOAD SWAP1 SWAP2 DUP5 SWAP2 DUP3 SWAP2 SWAP1 PUSH2 0x3E8 SWAP1 DUP4 LT ISZERO PUSH2 0x78D JUMPI PUSH1 0x40 MLOAD PUSH3 0x461BCD PUSH1 0xE5 SHL DUP2 MSTORE PUSH1 0x20 PUSH1 0x4 DUP3 ADD MSTORE PUSH1 0x10 PUSH1 0x24 DUP3 ADD MSTORE PUSH16 0x4E6F7420656E6F7567682076616C7565 PUSH1 0x80 SHL PUSH1 0x44 DUP3 ADD MSTORE PUSH1 0x64 ADD PUSH2 0x4E0 JUMP JUMPDEST PUSH2 0x795 PUSH2 0x880 JUMP JUMPDEST PUSH2 0x7C5 JUMPI PUSH2 0x7C2 DUP2 PUSH2 0x7BC DUP6 PUSH2 0x7B6 PUSH1 0x17 SLOAD DUP7 PUSH2 0x9CA SWAP1 SWAP2 SWAP1 PUSH4 0xFFFFFFFF AND JUMP JUMPDEST SWAP1 PUSH2 0x9D6 JUMP JUMPDEST SWAP1 PUSH2 0x9E2 JUMP JUMPDEST SWAP3 POP JUMPDEST PUSH1 0x12 SLOAD PUSH1 0x0 SWAP1 PUSH2 0x7D6 SWAP1 DUP6 SWAP1 PUSH2 0xCD4 JUMP JUMPDEST PUSH1 0xD SLOAD PUSH1 0x40 DUP1 MLOAD PUSH4 0x313CE567 PUSH1 0xE0 SHL DUP2 MSTORE SWAP1 MLOAD SWAP3 SWAP4 POP PUSH1 0x0 SWAP3 PUSH2 0x873 SWAP3 PUSH1 0x1 PUSH1 0x1 PUSH1 0xA0 SHL SUB AND SWAP2 PUSH4 0x313CE567 SWAP2 PUSH1 0x4 DUP1 DUP4 ADD SWAP3 PUSH1 0x20 SWAP3 SWAP2 SWAP1 DUP3 SWAP1 SUB ADD DUP2 DUP7 DUP1 EXTCODESIZE ISZERO DUP1 ISZERO PUSH2 0x822 JUMPI PUSH1 0x0 DUP1 REVERT JUMPDEST POP GAS STATICCALL ISZERO DUP1 ISZERO PUSH2 0x836 JUMPI RETURNDATASIZE PUSH1 0x0 DUP1 RETURNDATACOPY RETURNDATASIZE PUSH1 0x0 REVERT JUMPDEST POP POP POP POP PUSH1 0x40 MLOAD RETURNDATASIZE PUSH1 0x1F NOT PUSH1 0x1F DUP3 ADD AND DUP3 ADD DUP1 PUSH1 0x40 MSTORE POP DUP2 ADD SWAP1 PUSH2 0x85A SWAP2 SWAP1 PUSH2 0xB92 JUMP JUMPDEST PUSH2 0x865 SWAP1 PUSH1 0xA PUSH2 0xC0D JUMP JUMPDEST PUSH1 0xE SLOAD PUSH2 0x7BC SWAP1 DUP9 SWAP1 PUSH2 0x9D6 JUMP JUMPDEST SWAP10 SWAP9 POP POP POP POP POP POP POP POP POP JUMP JUMPDEST PUSH1 0x0 PUSH2 0x88D PUSH1 0x18 CALLER PUSH2 0x9EE JUMP JUMPDEST SWAP1 POP SWAP1 JUMP JUMPDEST PUSH1 0x1 SLOAD PUSH1 0x1 PUSH1 0x1 PUSH1 0xA0 SHL SUB AND CALLER EQ PUSH2 0x8EC JUMPI PUSH1 0x40 MLOAD PUSH3 0x461BCD PUSH1 0xE5 SHL DUP2 MSTORE PUSH1 0x20 PUSH1 0x4 DUP3 ADD DUP2 SWAP1 MSTORE PUSH1 0x24 DUP3 ADD MSTORE PUSH32 0x4F776E61626C653A2063616C6C6572206973206E6F7420746865206F776E6572 PUSH1 0x44 DUP3 ADD MSTORE PUSH1 0x64 ADD PUSH2 0x4E0 JUMP JUMPDEST PUSH1 0x1 PUSH1 0x1 PUSH1 0xA0 SHL SUB DUP2 AND PUSH2 0x951 JUMPI PUSH1 0x40 MLOAD PUSH3 0x461BCD PUSH1 0xE5 SHL DUP2 MSTORE PUSH1 0x20 PUSH1 0x4 DUP3 ADD MSTORE PUSH1 0x26 PUSH1 0x24 DUP3 ADD MSTORE PUSH32 0x4F776E61626C653A206E6577206F776E657220697320746865207A65726F2061 PUSH1 0x44 DUP3 ADD MSTORE PUSH6 0x646472657373 PUSH1 0xD0 SHL PUSH1 0x64 DUP3 ADD MSTORE PUSH1 0x84 ADD PUSH2 0x4E0 JUMP JUMPDEST PUSH2 0x6E5 DUP2 PUSH2 0x978 JUMP JUMPDEST PUSH1 0x0 PUSH2 0x96F DUP4 PUSH1 0x1 PUSH1 0x1 PUSH1 0xA0 SHL SUB DUP5 AND PUSH2 0xA10 JUMP JUMPDEST SWAP1 POP JUMPDEST SWAP3 SWAP2 POP POP JUMP JUMPDEST PUSH1 0x1 DUP1 SLOAD PUSH1 0x1 PUSH1 0x1 PUSH1 0xA0 SHL SUB DUP4 DUP2 AND PUSH1 0x1 PUSH1 0x1 PUSH1 0xA0 SHL SUB NOT DUP4 AND DUP2 OR SWAP1 SWAP4 SSTORE PUSH1 0x40 MLOAD SWAP2 AND SWAP2 SWAP1 DUP3 SWAP1 PUSH32 0x8BE0079C531659141344CD1FD0A4F28419497F9722A3DAAFE3B4186F6B6457E0 SWAP1 PUSH1 0x0 SWAP1 LOG3 POP POP JUMP JUMPDEST PUSH1 0x0 PUSH2 0x96F DUP3 DUP5 PUSH2 0xCD4 JUMP JUMPDEST PUSH1 0x0 PUSH2 0x96F DUP3 DUP5 PUSH2 0xCB5 JUMP JUMPDEST PUSH1 0x0 PUSH2 0x96F DUP3 DUP5 PUSH2 0xBAA JUMP JUMPDEST PUSH1 0x1 PUSH1 0x1 PUSH1 0xA0 SHL SUB DUP2 AND PUSH1 0x0 SWAP1 DUP2 MSTORE PUSH1 0x1 DUP4 ADD PUSH1 0x20 MSTORE PUSH1 0x40 DUP2 KECCAK256 SLOAD ISZERO ISZERO PUSH2 0x96F JUMP JUMPDEST PUSH1 0x0 DUP2 DUP2 MSTORE PUSH1 0x1 DUP4 ADD PUSH1 0x20 MSTORE PUSH1 0x40 DUP2 KECCAK256 SLOAD PUSH2 0xA57 JUMPI POP DUP2 SLOAD PUSH1 0x1 DUP2 DUP2 ADD DUP5 SSTORE PUSH1 0x0 DUP5 DUP2 MSTORE PUSH1 0x20 DUP1 DUP3 KECCAK256 SWAP1 SWAP4 ADD DUP5 SWAP1 SSTORE DUP5 SLOAD DUP5 DUP3 MSTORE DUP3 DUP7 ADD SWAP1 SWAP4 MSTORE PUSH1 0x40 SWAP1 KECCAK256 SWAP2 SWAP1 SWAP2 SSTORE PUSH2 0x972 JUMP JUMPDEST POP PUSH1 0x0 PUSH2 0x972 JUMP JUMPDEST PUSH1 0x0 PUSH1 0x20 DUP3 DUP5 SUB SLT ISZERO PUSH2 0xA70 JUMPI DUP1 DUP2 REVERT JUMPDEST DUP2 CALLDATALOAD PUSH2 0xA7B DUP2 PUSH2 0xD17 JUMP JUMPDEST SWAP4 SWAP3 POP POP POP JUMP JUMPDEST PUSH1 0x0 DUP1 PUSH1 0x0 DUP1 PUSH1 0x80 DUP6 DUP8 SUB SLT ISZERO PUSH2 0xA97 JUMPI DUP3 DUP4 REVERT JUMPDEST DUP5 CALLDATALOAD PUSH2 0xAA2 DUP2 PUSH2 0xD17 JUMP JUMPDEST SWAP4 POP PUSH1 0x20 DUP6 DUP2 ADD CALLDATALOAD PUSH2 0xAB3 DUP2 PUSH2 0xD17 JUMP JUMPDEST SWAP4 POP PUSH1 0x40 DUP7 ADD CALLDATALOAD PUSH2 0xAC3 DUP2 PUSH2 0xD17 JUMP JUMPDEST SWAP3 POP PUSH1 0x60 DUP7 ADD CALLDATALOAD PUSH8 0xFFFFFFFFFFFFFFFF DUP1 DUP3 GT ISZERO PUSH2 0xADF JUMPI DUP4 DUP5 REVERT JUMPDEST DUP2 DUP9 ADD SWAP2 POP DUP9 PUSH1 0x1F DUP4 ADD SLT PUSH2 0xAF2 JUMPI DUP4 DUP5 REVERT JUMPDEST DUP2 CALLDATALOAD DUP2 DUP2 GT ISZERO PUSH2 0xB04 JUMPI PUSH2 0xB04 PUSH2 0xD01 JUMP JUMPDEST DUP1 PUSH1 0x5 SHL PUSH1 0x40 MLOAD PUSH1 0x1F NOT PUSH1 0x3F DUP4 ADD AND DUP2 ADD DUP2 DUP2 LT DUP6 DUP3 GT OR ISZERO PUSH2 0xB29 JUMPI PUSH2 0xB29 PUSH2 0xD01 JUMP JUMPDEST PUSH1 0x40 MSTORE DUP3 DUP2 MSTORE DUP6 DUP2 ADD SWAP4 POP DUP5 DUP7 ADD DUP3 DUP7 ADD DUP8 ADD DUP14 LT ISZERO PUSH2 0xB47 JUMPI DUP8 DUP9 REVERT JUMPDEST DUP8 SWAP6 POP JUMPDEST DUP4 DUP7 LT ISZERO PUSH2 0xB69 JUMPI DUP1 CALLDATALOAD DUP6 MSTORE PUSH1 0x1 SWAP6 SWAP1 SWAP6 ADD SWAP5 SWAP4 DUP7 ADD SWAP4 DUP7 ADD PUSH2 0xB4B JUMP JUMPDEST POP SWAP9 SWAP12 SWAP8 SWAP11 POP SWAP6 SWAP9 POP POP POP POP POP POP POP JUMP JUMPDEST PUSH1 0x0 PUSH1 0x20 DUP3 DUP5 SUB SLT ISZERO PUSH2 0xB8B JUMPI DUP1 DUP2 REVERT JUMPDEST POP CALLDATALOAD SWAP2 SWAP1 POP JUMP JUMPDEST PUSH1 0x0 PUSH1 0x20 DUP3 DUP5 SUB SLT ISZERO PUSH2 0xBA3 JUMPI DUP1 DUP2 REVERT JUMPDEST POP MLOAD SWAP2 SWAP1 POP JUMP JUMPDEST PUSH1 0x0 DUP3 PUSH2 0xBC5 JUMPI PUSH4 0x4E487B71 PUSH1 0xE0 SHL DUP2 MSTORE PUSH1 0x12 PUSH1 0x4 MSTORE PUSH1 0x24 DUP2 REVERT JUMPDEST POP DIV SWAP1 JUMP JUMPDEST PUSH1 0x1 DUP2 DUP2 JUMPDEST DUP1 DUP6 GT ISZERO PUSH2 0xC05 JUMPI DUP2 PUSH1 0x0 NOT DIV DUP3 GT ISZERO PUSH2 0xBEB JUMPI PUSH2 0xBEB PUSH2 0xCEB JUMP JUMPDEST DUP1 DUP6 AND ISZERO PUSH2 0xBF8 JUMPI SWAP2 DUP2 MUL SWAP2 JUMPDEST SWAP4 DUP5 SHR SWAP4 SWAP1 DUP1 MUL SWAP1 PUSH2 0xBCF JUMP JUMPDEST POP SWAP3 POP SWAP3 SWAP1 POP JUMP JUMPDEST PUSH1 0x0 PUSH2 0x96F DUP4 DUP4 PUSH1 0x0 DUP3 PUSH2 0xC23 JUMPI POP PUSH1 0x1 PUSH2 0x972 JUMP JUMPDEST DUP2 PUSH2 0xC30 JUMPI POP PUSH1 0x0 PUSH2 0x972 JUMP JUMPDEST DUP2 PUSH1 0x1 DUP2 EQ PUSH2 0xC46 JUMPI PUSH1 0x2 DUP2 EQ PUSH2 0xC50 JUMPI PUSH2 0xC6C JUMP JUMPDEST PUSH1 0x1 SWAP2 POP POP PUSH2 0x972 JUMP JUMPDEST PUSH1 0xFF DUP5 GT ISZERO PUSH2 0xC61 JUMPI PUSH2 0xC61 PUSH2 0xCEB JUMP JUMPDEST POP POP PUSH1 0x1 DUP3 SHL PUSH2 0x972 JUMP JUMPDEST POP PUSH1 0x20 DUP4 LT PUSH2 0x133 DUP4 LT AND PUSH1 0x4E DUP5 LT PUSH1 0xB DUP5 LT AND OR ISZERO PUSH2 0xC8F JUMPI POP DUP2 DUP2 EXP PUSH2 0x972 JUMP JUMPDEST PUSH2 0xC99 DUP4 DUP4 PUSH2 0xBCA JUMP JUMPDEST DUP1 PUSH1 0x0 NOT DIV DUP3 GT ISZERO PUSH2 0xCAD JUMPI PUSH2 0xCAD PUSH2 0xCEB JUMP JUMPDEST MUL SWAP4 SWAP3 POP POP POP JUMP JUMPDEST PUSH1 0x0 DUP2 PUSH1 0x0 NOT DIV DUP4 GT DUP3 ISZERO ISZERO AND ISZERO PUSH2 0xCCF JUMPI PUSH2 0xCCF PUSH2 0xCEB JUMP JUMPDEST POP MUL SWAP1 JUMP JUMPDEST PUSH1 0x0 DUP3 DUP3 LT ISZERO PUSH2 0xCE6 JUMPI PUSH2 0xCE6 PUSH2 0xCEB JUMP JUMPDEST POP SUB SWAP1 JUMP JUMPDEST PUSH4 0x4E487B71 PUSH1 0xE0 SHL PUSH1 0x0 MSTORE PUSH1 0x11 PUSH1 0x4 MSTORE PUSH1 0x24 PUSH1 0x0 REVERT JUMPDEST PUSH4 0x4E487B71 PUSH1 0xE0 SHL PUSH1 0x0 MSTORE PUSH1 0x41 PUSH1 0x4 MSTORE PUSH1 0x24 PUSH1 0x0 REVERT JUMPDEST PUSH1 0x1 PUSH1 0x1 PUSH1 0xA0 SHL SUB DUP2 AND DUP2 EQ PUSH2 0x6E5 JUMPI PUSH1 0x0 DUP1 REVERT INVALID LOG2 PUSH5 0x6970667358 0x22 SLT KECCAK256 0xB5 0x4A GT 0xDE EXTCODECOPY 0xE6 0xAA 0xBB 0xDC 0xEE 0x24 0xEE 0xDB 0xEB PUSH31 0xDFFB73494EE091F1506956DE4E618A29F664736F6C63430008040033000000 "
				},
				"gasEstimates": {
					"creation": {
						"codeDepositCost": "685200",
						"executionCost": "infinite",
						"totalCost": "infinite"
					},
					"external": {
						"WETH()": "1104",
						"backToken()": "infinite",
						"buyerInfo(address)": "4660",
						"checkAdminAddress()": "1199",
						"deposit(uint256)": "infinite",
						"feeAnyone()": "1063",
						"getBalance(address)": "1150",
						"initialSaleInfor(address,address,address,uint256[])": "infinite",
						"owner()": "1043",
						"presaleStatus()": "5169",
						"renounceOwnership()": "23462",
						"saleInfor()": "9350",
						"status()": "1911",
						"transferETH(uint256)": "infinite",
						"transferOwnership(address)": "infinite",
						"userFee(address)": "1236"
					}
				},
				"methodIdentifiers": {
					"WETH()": "ad5c4648",
					"backToken()": "861faf5f",
					"buyerInfo(address)": "e2d3f423",
					"checkAdminAddress()": "cad5b0f7",
					"deposit(uint256)": "b6b55f25",
					"feeAnyone()": "3b5ef2ad",
					"getBalance(address)": "f8b2cb4f",
					"initialSaleInfor(address,address,address,uint256[])": "82374b9f",
					"owner()": "8da5cb5b",
					"presaleStatus()": "acfb2355",
					"renounceOwnership()": "715018a6",
					"saleInfor()": "18856a2f",
					"status()": "200d2ed2",
					"transferETH(uint256)": "4329db46",
					"transferOwnership(address)": "f2fde38b",
					"userFee(address)": "56c5f349"
				}
			},
			"storageLayout": {
				"storage": [
					{
						"astId": 1863,
						"contract": "Ethereum/Presale.sol:Presale",
						"label": "_status",
						"offset": 0,
						"slot": "0",
						"type": "t_uint256"
					},
					{
						"astId": 1755,
						"contract": "Ethereum/Presale.sol:Presale",
						"label": "_owner",
						"offset": 0,
						"slot": "1",
						"type": "t_address"
					},
					{
						"astId": 766,
						"contract": "Ethereum/Presale.sol:Presale",
						"label": "buyerInfo",
						"offset": 0,
						"slot": "2",
						"type": "t_mapping(t_address,t_struct(BuyerInfo)745_storage)"
					},
					{
						"astId": 770,
						"contract": "Ethereum/Presale.sol:Presale",
						"label": "userFee",
						"offset": 0,
						"slot": "3",
						"type": "t_mapping(t_address,t_uint256)"
					},
					{
						"astId": 773,
						"contract": "Ethereum/Presale.sol:Presale",
						"label": "presaleStatus",
						"offset": 0,
						"slot": "4",
						"type": "t_struct(PresaleStatus)761_storage"
					},
					{
						"astId": 776,
						"contract": "Ethereum/Presale.sol:Presale",
						"label": "saleInfor",
						"offset": 0,
						"slot": "11",
						"type": "t_struct(SaleInfor)732_storage"
					},
					{
						"astId": 779,
						"contract": "Ethereum/Presale.sol:Presale",
						"label": "WETH",
						"offset": 0,
						"slot": "22",
						"type": "t_contract(IERC20)663"
					},
					{
						"astId": 781,
						"contract": "Ethereum/Presale.sol:Presale",
						"label": "feeAnyone",
						"offset": 0,
						"slot": "23",
						"type": "t_uint256"
					},
					{
						"astId": 784,
						"contract": "Ethereum/Presale.sol:Presale",
						"label": "admins",
						"offset": 0,
						"slot": "24",
						"type": "t_struct(AddressSet)1460_storage"
					}
				],
				"types": {
					"t_address": {
						"encoding": "inplace",
						"label": "address",
						"numberOfBytes": "20"
					},
					"t_address_payable": {
						"encoding": "inplace",
						"label": "address payable",
						"numberOfBytes": "20"
					},
					"t_array(t_address)dyn_storage": {
						"base": "t_address",
						"encoding": "dynamic_array",
						"label": "address[]",
						"numberOfBytes": "32"
					},
					"t_array(t_bytes32)dyn_storage": {
						"base": "t_bytes32",
						"encoding": "dynamic_array",
						"label": "bytes32[]",
						"numberOfBytes": "32"
					},
					"t_bool": {
						"encoding": "inplace",
						"label": "bool",
						"numberOfBytes": "1"
					},
					"t_bytes32": {
						"encoding": "inplace",
						"label": "bytes32",
						"numberOfBytes": "32"
					},
					"t_contract(ERC20)585": {
						"encoding": "inplace",
						"label": "contract ERC20",
						"numberOfBytes": "20"
					},
					"t_contract(IERC20)663": {
						"encoding": "inplace",
						"label": "contract IERC20",
						"numberOfBytes": "20"
					},
					"t_mapping(t_address,t_struct(BuyerInfo)745_storage)": {
						"encoding": "mapping",
						"key": "t_address",
						"label": "mapping(address => struct Presale.BuyerInfo)",
						"numberOfBytes": "32",
						"value": "t_struct(BuyerInfo)745_storage"
					},
					"t_mapping(t_address,t_uint256)": {
						"encoding": "mapping",
						"key": "t_address",
						"label": "mapping(address => uint256)",
						"numberOfBytes": "32",
						"value": "t_uint256"
					},
					"t_mapping(t_bytes32,t_uint256)": {
						"encoding": "mapping",
						"key": "t_bytes32",
						"label": "mapping(bytes32 => uint256)",
						"numberOfBytes": "32",
						"value": "t_uint256"
					},
					"t_struct(AddressSet)1460_storage": {
						"encoding": "inplace",
						"label": "struct EnumerableSet.AddressSet",
						"members": [
							{
								"astId": 1459,
								"contract": "Ethereum/Presale.sol:Presale",
								"label": "_inner",
								"offset": 0,
								"slot": "0",
								"type": "t_struct(Set)1159_storage"
							}
						],
						"numberOfBytes": "64"
					},
					"t_struct(BuyerInfo)745_storage": {
						"encoding": "inplace",
						"label": "struct Presale.BuyerInfo",
						"members": [
							{
								"astId": 734,
								"contract": "Ethereum/Presale.sol:Presale",
								"label": "baseDeposit",
								"offset": 0,
								"slot": "0",
								"type": "t_uint256"
							},
							{
								"astId": 736,
								"contract": "Ethereum/Presale.sol:Presale",
								"label": "tokenOwner",
								"offset": 0,
								"slot": "1",
								"type": "t_uint256"
							},
							{
								"astId": 738,
								"contract": "Ethereum/Presale.sol:Presale",
								"label": "lastWithDraw",
								"offset": 0,
								"slot": "2",
								"type": "t_uint256"
							},
							{
								"astId": 740,
								"contract": "Ethereum/Presale.sol:Presale",
								"label": "totalTokenWithDraw",
								"offset": 0,
								"slot": "3",
								"type": "t_uint256"
							},
							{
								"astId": 742,
								"contract": "Ethereum/Presale.sol:Presale",
								"label": "isRefund",
								"offset": 0,
								"slot": "4",
								"type": "t_bool"
							},
							{
								"astId": 744,
								"contract": "Ethereum/Presale.sol:Presale",
								"label": "isClaim",
								"offset": 1,
								"slot": "4",
								"type": "t_bool"
							}
						],
						"numberOfBytes": "160"
					},
					"t_struct(PresaleStatus)761_storage": {
						"encoding": "inplace",
						"label": "struct Presale.PresaleStatus",
						"members": [
							{
								"astId": 747,
								"contract": "Ethereum/Presale.sol:Presale",
								"label": "totalBaseCollected",
								"offset": 0,
								"slot": "0",
								"type": "t_uint256"
							},
							{
								"astId": 749,
								"contract": "Ethereum/Presale.sol:Presale",
								"label": "totalTokenSold",
								"offset": 0,
								"slot": "1",
								"type": "t_uint256"
							},
							{
								"astId": 751,
								"contract": "Ethereum/Presale.sol:Presale",
								"label": "totalTokenWithDraw",
								"offset": 0,
								"slot": "2",
								"type": "t_uint256"
							},
							{
								"astId": 753,
								"contract": "Ethereum/Presale.sol:Presale",
								"label": "totalBaseWithDraw",
								"offset": 0,
								"slot": "3",
								"type": "t_uint256"
							},
							{
								"astId": 755,
								"contract": "Ethereum/Presale.sol:Presale",
								"label": "numByer",
								"offset": 0,
								"slot": "4",
								"type": "t_uint256"
							},
							{
								"astId": 757,
								"contract": "Ethereum/Presale.sol:Presale",
								"label": "totalFee",
								"offset": 0,
								"slot": "5",
								"type": "t_uint256"
							},
							{
								"astId": 760,
								"contract": "Ethereum/Presale.sol:Presale",
								"label": "admin",
								"offset": 0,
								"slot": "6",
								"type": "t_array(t_address)dyn_storage"
							}
						],
						"numberOfBytes": "224"
					},
					"t_struct(SaleInfor)732_storage": {
						"encoding": "inplace",
						"label": "struct Presale.SaleInfor",
						"members": [
							{
								"astId": 709,
								"contract": "Ethereum/Presale.sol:Presale",
								"label": "presaleOwner",
								"offset": 0,
								"slot": "0",
								"type": "t_address_payable"
							},
							{
								"astId": 712,
								"contract": "Ethereum/Presale.sol:Presale",
								"label": "saleToken",
								"offset": 0,
								"slot": "1",
								"type": "t_contract(ERC20)585"
							},
							{
								"astId": 715,
								"contract": "Ethereum/Presale.sol:Presale",
								"label": "baseToken",
								"offset": 0,
								"slot": "2",
								"type": "t_contract(ERC20)585"
							},
							{
								"astId": 717,
								"contract": "Ethereum/Presale.sol:Presale",
								"label": "tokenPrice",
								"offset": 0,
								"slot": "3",
								"type": "t_uint256"
							},
							{
								"astId": 719,
								"contract": "Ethereum/Presale.sol:Presale",
								"label": "startSale",
								"offset": 0,
								"slot": "4",
								"type": "t_uint256"
							},
							{
								"astId": 721,
								"contract": "Ethereum/Presale.sol:Presale",
								"label": "endSale",
								"offset": 0,
								"slot": "5",
								"type": "t_uint256"
							},
							{
								"astId": 723,
								"contract": "Ethereum/Presale.sol:Presale",
								"label": "minSpendPerBuyer",
								"offset": 0,
								"slot": "6",
								"type": "t_uint256"
							},
							{
								"astId": 725,
								"contract": "Ethereum/Presale.sol:Presale",
								"label": "maxSpendPerBuyer",
								"offset": 0,
								"slot": "7",
								"type": "t_uint256"
							},
							{
								"astId": 727,
								"contract": "Ethereum/Presale.sol:Presale",
								"label": "refundFee",
								"offset": 0,
								"slot": "8",
								"type": "t_uint256"
							},
							{
								"astId": 729,
								"contract": "Ethereum/Presale.sol:Presale",
								"label": "claimFee",
								"offset": 0,
								"slot": "9",
								"type": "t_uint256"
							},
							{
								"astId": 731,
								"contract": "Ethereum/Presale.sol:Presale",
								"label": "saleIsBaseToken",
								"offset": 0,
								"slot": "10",
								"type": "t_bool"
							}
						],
						"numberOfBytes": "352"
					},
					"t_struct(Set)1159_storage": {
						"encoding": "inplace",
						"label": "struct EnumerableSet.Set",
						"members": [
							{
								"astId": 1154,
								"contract": "Ethereum/Presale.sol:Presale",
								"label": "_values",
								"offset": 0,
								"slot": "0",
								"type": "t_array(t_bytes32)dyn_storage"
							},
							{
								"astId": 1158,
								"contract": "Ethereum/Presale.sol:Presale",
								"label": "_indexes",
								"offset": 0,
								"slot": "1",
								"type": "t_mapping(t_bytes32,t_uint256)"
							}
						],
						"numberOfBytes": "64"
					},
					"t_uint256": {
						"encoding": "inplace",
						"label": "uint256",
						"numberOfBytes": "32"
					}
				}
			},
			"userdoc": {
				"kind": "user",
				"methods": {},
				"version": 1
			}
		}
	}
}