{
	"Ethereum/Presale.sol": {
		"Presale": {
			"abi": [
				{
					"inputs": [],
					"stateMutability": "payable",
					"type": "constructor"
				},
				{
					"anonymous": false,
					"inputs": [
						{
							"indexed": true,
							"internalType": "address",
							"name": "previousOwner",
							"type": "address"
						},
						{
							"indexed": true,
							"internalType": "address",
							"name": "newOwner",
							"type": "address"
						}
					],
					"name": "OwnershipTransferred",
					"type": "event"
				},
				{
					"inputs": [],
					"name": "WETH",
					"outputs": [
						{
							"internalType": "contract IERC20",
							"name": "",
							"type": "address"
						}
					],
					"stateMutability": "view",
					"type": "function"
				},
				{
					"inputs": [],
					"name": "backToken",
					"outputs": [],
					"stateMutability": "payable",
					"type": "function"
				},
				{
					"inputs": [
						{
							"internalType": "address",
							"name": "",
							"type": "address"
						}
					],
					"name": "buyerInfo",
					"outputs": [
						{
							"internalType": "uint256",
							"name": "baseDeposit",
							"type": "uint256"
						},
						{
							"internalType": "uint256",
							"name": "tokenOwner",
							"type": "uint256"
						},
						{
							"internalType": "uint256",
							"name": "lastWithDraw",
							"type": "uint256"
						},
						{
							"internalType": "uint256",
							"name": "totalTokenWithDraw",
							"type": "uint256"
						},
						{
							"internalType": "uint256",
							"name": "totalBaseWithDraw",
							"type": "uint256"
						}
					],
					"stateMutability": "view",
					"type": "function"
				},
				{
					"inputs": [],
					"name": "checkAdminAddress",
					"outputs": [
						{
							"internalType": "bool",
							"name": "",
							"type": "bool"
						}
					],
					"stateMutability": "view",
					"type": "function"
				},
				{
					"inputs": [
						{
							"internalType": "uint256",
							"name": "_amount",
							"type": "uint256"
						}
					],
					"name": "deposit",
					"outputs": [],
					"stateMutability": "payable",
					"type": "function"
				},
				{
					"inputs": [],
					"name": "feeAnyone",
					"outputs": [
						{
							"internalType": "uint256",
							"name": "",
							"type": "uint256"
						}
					],
					"stateMutability": "view",
					"type": "function"
				},
				{
					"inputs": [
						{
							"internalType": "address",
							"name": "_address",
							"type": "address"
						}
					],
					"name": "getBalance",
					"outputs": [
						{
							"internalType": "uint256",
							"name": "",
							"type": "uint256"
						}
					],
					"stateMutability": "view",
					"type": "function"
				},
				{
					"inputs": [
						{
							"internalType": "address payable",
							"name": "_presaleOwner",
							"type": "address"
						},
						{
							"internalType": "contract ERC20",
							"name": "_saleToken",
							"type": "address"
						},
						{
							"internalType": "contract ERC20",
							"name": "_baseTOken",
							"type": "address"
						},
						{
							"internalType": "uint256[9]",
							"name": "datas",
							"type": "uint256[9]"
						}
					],
					"name": "initialSaleInfor",
					"outputs": [],
					"stateMutability": "nonpayable",
					"type": "function"
				},
				{
					"inputs": [],
					"name": "owner",
					"outputs": [
						{
							"internalType": "address",
							"name": "",
							"type": "address"
						}
					],
					"stateMutability": "view",
					"type": "function"
				},
				{
					"inputs": [],
					"name": "ownerClaimAndRefundToken",
					"outputs": [],
					"stateMutability": "nonpayable",
					"type": "function"
				},
				{
					"inputs": [],
					"name": "presaleStatus",
					"outputs": [
						{
							"internalType": "uint256",
							"name": "totalBaseCollected",
							"type": "uint256"
						},
						{
							"internalType": "uint256",
							"name": "totalTokenSold",
							"type": "uint256"
						},
						{
							"internalType": "uint256",
							"name": "totalTokenWithDraw",
							"type": "uint256"
						},
						{
							"internalType": "uint256",
							"name": "totalBaseWithDraw",
							"type": "uint256"
						},
						{
							"internalType": "uint256",
							"name": "numberBuyer",
							"type": "uint256"
						},
						{
							"internalType": "bool",
							"name": "isOwnerClaimSaleToken",
							"type": "bool"
						},
						{
							"internalType": "bool",
							"name": "isOwnerRefundBaseToken",
							"type": "bool"
						}
					],
					"stateMutability": "view",
					"type": "function"
				},
				{
					"inputs": [],
					"name": "renounceOwnership",
					"outputs": [],
					"stateMutability": "nonpayable",
					"type": "function"
				},
				{
					"inputs": [],
					"name": "saleInfor",
					"outputs": [
						{
							"internalType": "address payable",
							"name": "presaleOwner",
							"type": "address"
						},
						{
							"internalType": "contract ERC20",
							"name": "saleToken",
							"type": "address"
						},
						{
							"internalType": "contract ERC20",
							"name": "baseToken",
							"type": "address"
						},
						{
							"internalType": "uint256",
							"name": "tokenPrice",
							"type": "uint256"
						},
						{
							"internalType": "uint256",
							"name": "startSale",
							"type": "uint256"
						},
						{
							"internalType": "uint256",
							"name": "endSale",
							"type": "uint256"
						},
						{
							"internalType": "uint256",
							"name": "minSpendPerBuyer",
							"type": "uint256"
						},
						{
							"internalType": "uint256",
							"name": "maxSpendPerBuyer",
							"type": "uint256"
						},
						{
							"internalType": "uint256",
							"name": "refundFee",
							"type": "uint256"
						},
						{
							"internalType": "uint256",
							"name": "claimFee",
							"type": "uint256"
						},
						{
							"internalType": "bool",
							"name": "saleIsBaseToken",
							"type": "bool"
						},
						{
							"internalType": "uint256",
							"name": "amountTokenForSale",
							"type": "uint256"
						}
					],
					"stateMutability": "view",
					"type": "function"
				},
				{
					"inputs": [],
					"name": "saleTotalSupply",
					"outputs": [
						{
							"internalType": "uint256",
							"name": "hardCap",
							"type": "uint256"
						},
						{
							"internalType": "uint256",
							"name": "softCap",
							"type": "uint256"
						}
					],
					"stateMutability": "view",
					"type": "function"
				},
				{
					"inputs": [],
					"name": "status",
					"outputs": [
						{
							"internalType": "uint256",
							"name": "",
							"type": "uint256"
						}
					],
					"stateMutability": "view",
					"type": "function"
				},
				{
					"inputs": [],
					"name": "totalFee",
					"outputs": [
						{
							"internalType": "uint256",
							"name": "",
							"type": "uint256"
						}
					],
					"stateMutability": "view",
					"type": "function"
				},
				{
					"inputs": [
						{
							"internalType": "address",
							"name": "newOwner",
							"type": "address"
						}
					],
					"name": "transferOwnership",
					"outputs": [],
					"stateMutability": "nonpayable",
					"type": "function"
				},
				{
					"inputs": [],
					"name": "userClaimEmergency",
					"outputs": [],
					"stateMutability": "nonpayable",
					"type": "function"
				},
				{
					"inputs": [
						{
							"internalType": "bool",
							"name": "isClaim",
							"type": "bool"
						}
					],
					"name": "userClaimOrRefundWhenSaleSuccess",
					"outputs": [],
					"stateMutability": "nonpayable",
					"type": "function"
				},
				{
					"inputs": [
						{
							"internalType": "address",
							"name": "",
							"type": "address"
						}
					],
					"name": "userFee",
					"outputs": [
						{
							"internalType": "uint256",
							"name": "",
							"type": "uint256"
						}
					],
					"stateMutability": "view",
					"type": "function"
				},
				{
					"inputs": [],
					"name": "userRefundEmergency",
					"outputs": [],
					"stateMutability": "nonpayable",
					"type": "function"
				}
			],
			"devdoc": {
				"kind": "dev",
				"methods": {
					"owner()": {
						"details": "Returns the address of the current owner."
					},
					"renounceOwnership()": {
						"details": "Leaves the contract without owner. It will not be possible to call `onlyOwner` functions anymore. Can only be called by the current owner. NOTE: Renouncing ownership will leave the contract without an owner, thereby removing any functionality that is only available to the owner."
					},
					"transferOwnership(address)": {
						"details": "Transfers ownership of the contract to a new account (`newOwner`). Can only be called by the current owner."
					}
				},
				"version": 1
			},
			"evm": {
				"assembly": "    /* \"Ethereum/Presale.sol\":370:11332  contract Presale is ReentrancyGuard, Ownable{\r... */\n  mstore(0x40, 0x80)\n    /* \"Utils/ReentrancyGuard.sol\":1734:1735  1 */\n  0x01\n    /* \"Utils/ReentrancyGuard.sol\":1845:1852  _status */\n  0x00\n    /* \"Utils/ReentrancyGuard.sol\":1845:1867  _status = _NOT_ENTERED */\n  sstore\n    /* \"Utils/Ownable.sol\":942:974  _transferOwnership(_msgSender()) */\n  tag_6\n    /* \"Utils/Context.sol\":736:746  msg.sender */\n  caller\n    /* \"Utils/Ownable.sol\":942:960  _transferOwnership */\n  tag_9\n    /* \"Utils/Ownable.sol\":942:974  _transferOwnership(_msgSender()) */\n  jump\t// in\ntag_6:\n    /* \"Ethereum/Presale.sol\":2282:2286  WETH */\n  0x19\n    /* \"Ethereum/Presale.sol\":2282:2338  WETH = ERC20(0xc778417E063141139Fce010982780140Aa0cD5Ab) */\n  dup1\n  sload\n    /* \"Ethereum/Presale.sol\":2295:2337  0xc778417E063141139Fce010982780140Aa0cD5Ab */\n  0xc778417e063141139fce010982780140aa0cd5ab\n  not(sub(shl(0xa0, 0x01), 0x01))\n    /* \"Ethereum/Presale.sol\":2282:2338  WETH = ERC20(0xc778417E063141139Fce010982780140Aa0cD5Ab) */\n  swap1\n  swap2\n  and\n  or\n  swap1\n  sstore\n    /* \"Ethereum/Presale.sol\":2349:2403  admins.add(0x6Ccb41eedA5a073076F3E7dC1614C185b5fA41eD) */\n  tag_11\n    /* \"Ethereum/Presale.sol\":2349:2355  admins */\n  0x1b\n    /* \"Ethereum/Presale.sol\":2360:2402  0x6Ccb41eedA5a073076F3E7dC1614C185b5fA41eD */\n  0x6ccb41eeda5a073076f3e7dc1614c185b5fa41ed\n    /* \"Ethereum/Presale.sol\":2349:2359  admins.add */\n  tag_12\n  0x20\n  swap1\n  dup2\n  shl\n  tag_0_118\n  or\n    /* \"Ethereum/Presale.sol\":2349:2403  admins.add(0x6Ccb41eedA5a073076F3E7dC1614C185b5fA41eD) */\n  swap1\n  shr\n  jump\t// in\ntag_11:\n  pop\n    /* \"Ethereum/Presale.sol\":2414:2468  admins.add(0x4f0B12bBF40Fc182559822A5b1dB6D34dbC3E016) */\n  tag_13\n    /* \"Ethereum/Presale.sol\":2425:2467  0x4f0B12bBF40Fc182559822A5b1dB6D34dbC3E016 */\n  0x4f0b12bbf40fc182559822a5b1db6d34dbc3e016\n    /* \"Ethereum/Presale.sol\":2414:2420  admins */\n  0x1b\n    /* \"Ethereum/Presale.sol\":2414:2424  admins.add */\n  or(tag_0_118, shl(0x20, tag_12))\n  swap1\n    /* \"Ethereum/Presale.sol\":2414:2468  admins.add(0x4f0B12bBF40Fc182559822A5b1dB6D34dbC3E016) */\n  swap2\n  swap1\n  0x20\n  shr\n  jump\t// in\ntag_13:\n  pop\n    /* \"Ethereum/Presale.sol\":2491:2493  20 */\n  0x14\n    /* \"Ethereum/Presale.sol\":2479:2488  feeAnyone */\n  0x1a\n    /* \"Ethereum/Presale.sol\":2479:2493  feeAnyone = 20 */\n  sstore\n    /* \"Ethereum/Presale.sol\":370:11332  contract Presale is ReentrancyGuard, Ownable{\r... */\n  jump(tag_14)\n    /* \"Utils/Ownable.sol\":2333:2524  function _transferOwnership(address newOwner) internal virtual {\r... */\ntag_9:\n    /* \"Utils/Ownable.sol\":2426:2432  _owner */\n  0x01\n  dup1\n  sload\n  sub(shl(0xa0, 0x01), 0x01)\n    /* \"Utils/Ownable.sol\":2443:2460  _owner = newOwner */\n  dup4\n  dup2\n  and\n  not(sub(shl(0xa0, 0x01), 0x01))\n  dup4\n  and\n  dup2\n  or\n  swap1\n  swap4\n  sstore\n    /* \"Utils/Ownable.sol\":2476:2516  OwnershipTransferred(oldOwner, newOwner) */\n  mload(0x40)\n    /* \"Utils/Ownable.sol\":2426:2432  _owner */\n  swap2\n  and\n  swap2\n    /* \"Utils/Ownable.sol\":2443:2460  _owner = newOwner */\n  swap1\n    /* \"Utils/Ownable.sol\":2426:2432  _owner */\n  dup3\n  swap1\n    /* \"Utils/Ownable.sol\":2476:2516  OwnershipTransferred(oldOwner, newOwner) */\n  0x8be0079c531659141344cd1fd0a4f28419497f9722a3daafe3b4186f6b6457e0\n  swap1\n    /* \"Utils/Ownable.sol\":2407:2423  address oldOwner */\n  0x00\n  swap1\n    /* \"Utils/Ownable.sol\":2476:2516  OwnershipTransferred(oldOwner, newOwner) */\n  log3\n    /* \"Utils/Ownable.sol\":2396:2524  {\r... */\n  pop\n    /* \"Utils/Ownable.sol\":2333:2524  function _transferOwnership(address newOwner) internal virtual {\r... */\n  pop\n  jump\t// out\n    /* \"Utils/EnumerableSet.sol\":8259:8411  function add(AddressSet storage set, address value) internal returns (bool) {\r... */\ntag_12:\n    /* \"Utils/EnumerableSet.sol\":8329:8333  bool */\n  0x00\n    /* \"Utils/EnumerableSet.sol\":8353:8403  _add(set._inner, bytes32(uint256(uint160(value)))) */\n  tag_18\n    /* \"Utils/EnumerableSet.sol\":8358:8361  set */\n  dup4\n  sub(shl(0xa0, 0x01), 0x01)\n    /* \"Utils/EnumerableSet.sol\":8378:8401  uint256(uint160(value)) */\n  dup5\n  and\n    /* \"Utils/EnumerableSet.sol\":8353:8357  _add */\n  tag_19\n    /* \"Utils/EnumerableSet.sol\":8353:8403  _add(set._inner, bytes32(uint256(uint160(value)))) */\n  jump\t// in\ntag_18:\n    /* \"Utils/EnumerableSet.sol\":8346:8403  return _add(set._inner, bytes32(uint256(uint160(value)))) */\n  swap1\n  pop\n    /* \"Utils/EnumerableSet.sol\":8259:8411  function add(AddressSet storage set, address value) internal returns (bool) {\r... */\ntag_17:\n  swap3\n  swap2\n  pop\n  pop\n  jump\t// out\n    /* \"Utils/EnumerableSet.sol\":2174:2588  function _add(Set storage set, bytes32 value) private returns (bool) {\r... */\ntag_19:\n    /* \"Utils/EnumerableSet.sol\":2237:2241  bool */\n  0x00\n    /* \"Utils/EnumerableSet.sol\":4367:4386  set._indexes[value] */\n  dup2\n  dup2\n  mstore\n    /* \"Utils/EnumerableSet.sol\":4367:4379  set._indexes */\n  0x01\n  dup4\n  add\n    /* \"Utils/EnumerableSet.sol\":4367:4386  set._indexes[value] */\n  0x20\n  mstore\n  0x40\n  dup2\n  keccak256\n  sload\n    /* \"Utils/EnumerableSet.sol\":2254:2581  if (!_contains(set, value)) {\r... */\n  tag_23\n  jumpi\n  pop\n    /* \"Utils/EnumerableSet.sol\":2297:2320  set._values.push(value) */\n  dup2\n  sload\n  0x01\n  dup2\n  dup2\n  add\n  dup5\n  sstore\n    /* \"Utils/EnumerableSet.sol\":2297:2308  set._values */\n  0x00\n    /* \"Utils/EnumerableSet.sol\":2297:2320  set._values.push(value) */\n  dup5\n  dup2\n  mstore\n  0x20\n  dup1\n  dup3\n  keccak256\n  swap1\n  swap4\n  add\n  dup5\n  swap1\n  sstore\n    /* \"Utils/EnumerableSet.sol\":2480:2498  set._values.length */\n  dup5\n  sload\n    /* \"Utils/EnumerableSet.sol\":2458:2477  set._indexes[value] */\n  dup5\n  dup3\n  mstore\n    /* \"Utils/EnumerableSet.sol\":2458:2470  set._indexes */\n  dup3\n  dup7\n  add\n    /* \"Utils/EnumerableSet.sol\":2458:2477  set._indexes[value] */\n  swap1\n  swap4\n  mstore\n  0x40\n  swap1\n  keccak256\n    /* \"Utils/EnumerableSet.sol\":2458:2498  set._indexes[value] = set._values.length */\n  swap2\n  swap1\n  swap2\n  sstore\n    /* \"Utils/EnumerableSet.sol\":2513:2524  return true */\n  jump(tag_17)\n    /* \"Utils/EnumerableSet.sol\":2254:2581  if (!_contains(set, value)) {\r... */\ntag_23:\n  pop\n    /* \"Utils/EnumerableSet.sol\":2564:2569  false */\n  0x00\n    /* \"Utils/EnumerableSet.sol\":2557:2569  return false */\n  jump(tag_17)\n    /* \"Ethereum/Presale.sol\":370:11332  contract Presale is ReentrancyGuard, Ownable{\r... */\ntag_14:\n  dataSize(sub_0)\n  dup1\n  dataOffset(sub_0)\n  0x00\n  codecopy\n  0x00\n  return\nstop\n\nsub_0: assembly {\n        /* \"Ethereum/Presale.sol\":370:11332  contract Presale is ReentrancyGuard, Ownable{\r... */\n      mstore(0x40, 0x80)\n      jumpi(tag_1, lt(calldatasize, 0x04))\n      shr(0xe0, calldataload(0x00))\n      dup1\n      0x8f1eae4c\n      gt\n      tag_23\n      jumpi\n      dup1\n      0xb6b55f25\n      gt\n      tag_24\n      jumpi\n      dup1\n      0xb6b55f25\n      eq\n      tag_17\n      jumpi\n      dup1\n      0xcad5b0f7\n      eq\n      tag_18\n      jumpi\n      dup1\n      0xe2d3f423\n      eq\n      tag_19\n      jumpi\n      dup1\n      0xeb002bb0\n      eq\n      tag_20\n      jumpi\n      dup1\n      0xf2fde38b\n      eq\n      tag_21\n      jumpi\n      dup1\n      0xf8b2cb4f\n      eq\n      tag_22\n      jumpi\n      0x00\n      dup1\n      revert\n    tag_24:\n      dup1\n      0x8f1eae4c\n      eq\n      tag_12\n      jumpi\n      dup1\n      0x95661e70\n      eq\n      tag_13\n      jumpi\n      dup1\n      0xab33985a\n      eq\n      tag_14\n      jumpi\n      dup1\n      0xacfb2355\n      eq\n      tag_15\n      jumpi\n      dup1\n      0xad5c4648\n      eq\n      tag_16\n      jumpi\n      0x00\n      dup1\n      revert\n    tag_23:\n      dup1\n      0x56c5f349\n      gt\n      tag_25\n      jumpi\n      dup1\n      0x56c5f349\n      eq\n      tag_7\n      jumpi\n      dup1\n      0x715018a6\n      eq\n      tag_8\n      jumpi\n      dup1\n      0x861faf5f\n      eq\n      tag_9\n      jumpi\n      dup1\n      0x8da5cb5b\n      eq\n      tag_10\n      jumpi\n      dup1\n      0x8edf18e6\n      eq\n      tag_11\n      jumpi\n      0x00\n      dup1\n      revert\n    tag_25:\n      dup1\n      0x12e5d0b9\n      eq\n      tag_2\n      jumpi\n      dup1\n      0x18856a2f\n      eq\n      tag_3\n      jumpi\n      dup1\n      0x1df4ccfc\n      eq\n      tag_4\n      jumpi\n      dup1\n      0x200d2ed2\n      eq\n      tag_5\n      jumpi\n      dup1\n      0x3b5ef2ad\n      eq\n      tag_6\n      jumpi\n    tag_1:\n      0x00\n      dup1\n      revert\n        /* \"Ethereum/Presale.sol\":1660:1698  SaleTotalSupply public saleTotalSupply */\n    tag_2:\n      callvalue\n      dup1\n      iszero\n      tag_26\n      jumpi\n      0x00\n      dup1\n      revert\n    tag_26:\n      pop\n      sload(0x0b)\n      sload(0x0c)\n      tag_27\n      swap2\n      swap1\n      dup3\n      jump\n    tag_27:\n      0x40\n      dup1\n      mload\n        /* \"#utility.yul\":12380:12405   */\n      swap3\n      dup4\n      mstore\n        /* \"#utility.yul\":12436:12438   */\n      0x20\n        /* \"#utility.yul\":12421:12439   */\n      dup4\n      add\n        /* \"#utility.yul\":12414:12448   */\n      swap2\n      swap1\n      swap2\n      mstore\n        /* \"#utility.yul\":12353:12371   */\n      add\n        /* \"Ethereum/Presale.sol\":1660:1698  SaleTotalSupply public saleTotalSupply */\n    tag_29:\n      mload(0x40)\n      dup1\n      swap2\n      sub\n      swap1\n      return\n        /* \"Ethereum/Presale.sol\":1705:1731  SaleInfor public saleInfor */\n    tag_3:\n      callvalue\n      dup1\n      iszero\n      tag_31\n      jumpi\n      0x00\n      dup1\n      revert\n    tag_31:\n      pop\n      sload(0x0d)\n      sload(0x0e)\n      sload(0x0f)\n      sload(0x10)\n      sload(0x11)\n      sload(0x12)\n      sload(0x13)\n      sload(0x14)\n      sload(0x15)\n      sload(0x16)\n      sload(0x17)\n      sload(0x18)\n      tag_32\n      swap12\n      sub(shl(0xa0, 0x01), 0x01)\n      swap1\n      dup2\n      and\n      swap12\n      dup2\n      and\n      swap11\n      and\n      swap9\n      swap8\n      swap7\n      swap6\n      swap5\n      swap4\n      swap3\n      swap2\n      0xff\n      and\n      swap1\n      dup13\n      jump\n    tag_32:\n      0x40\n      dup1\n      mload\n      sub(shl(0xa0, 0x01), 0x01)\n        /* \"#utility.yul\":3590:3605   */\n      swap14\n      dup15\n      and\n        /* \"#utility.yul\":3572:3606   */\n      dup2\n      mstore\n        /* \"#utility.yul\":3642:3657   */\n      swap12\n      dup14\n      and\n        /* \"#utility.yul\":3637:3639   */\n      0x20\n        /* \"#utility.yul\":3622:3640   */\n      dup14\n      add\n        /* \"#utility.yul\":3615:3658   */\n      mstore\n        /* \"#utility.yul\":3694:3709   */\n      swap10\n      swap1\n      swap12\n      and\n        /* \"#utility.yul\":3674:3692   */\n      swap9\n      dup11\n      add\n        /* \"#utility.yul\":3667:3710   */\n      swap9\n      swap1\n      swap9\n      mstore\n        /* \"#utility.yul\":3741:3743   */\n      0x60\n        /* \"#utility.yul\":3726:3744   */\n      dup10\n      add\n        /* \"#utility.yul\":3719:3753   */\n      swap7\n      swap1\n      swap7\n      mstore\n        /* \"#utility.yul\":3784:3787   */\n      0x80\n        /* \"#utility.yul\":3769:3788   */\n      dup9\n      add\n        /* \"#utility.yul\":3762:3797   */\n      swap5\n      swap1\n      swap5\n      mstore\n        /* \"#utility.yul\":3552:3555   */\n      0xa0\n        /* \"#utility.yul\":3813:3832   */\n      dup8\n      add\n        /* \"#utility.yul\":3806:3841   */\n      swap3\n      swap1\n      swap3\n      mstore\n        /* \"#utility.yul\":3872:3875   */\n      0xc0\n        /* \"#utility.yul\":3857:3876   */\n      dup7\n      add\n        /* \"#utility.yul\":3850:3885   */\n      mstore\n        /* \"#utility.yul\":3916:3919   */\n      0xe0\n        /* \"#utility.yul\":3901:3920   */\n      dup6\n      add\n        /* \"#utility.yul\":3894:3929   */\n      mstore\n        /* \"#utility.yul\":3960:3963   */\n      0x0100\n        /* \"#utility.yul\":3945:3964   */\n      dup5\n      add\n        /* \"#utility.yul\":3938:3973   */\n      mstore\n        /* \"#utility.yul\":4004:4007   */\n      0x0120\n        /* \"#utility.yul\":3989:4008   */\n      dup4\n      add\n        /* \"#utility.yul\":3982:4017   */\n      mstore\n        /* \"#utility.yul\":4061:4076   */\n      iszero\n        /* \"#utility.yul\":4054:4077   */\n      iszero\n        /* \"#utility.yul\":4048:4051   */\n      0x0140\n        /* \"#utility.yul\":4033:4052   */\n      dup3\n      add\n        /* \"#utility.yul\":4026:4078   */\n      mstore\n        /* \"#utility.yul\":4109:4112   */\n      0x0160\n        /* \"#utility.yul\":4094:4113   */\n      dup2\n      add\n        /* \"#utility.yul\":4087:4123   */\n      swap2\n      swap1\n      swap2\n      mstore\n        /* \"#utility.yul\":3521:3524   */\n      0x0180\n        /* \"#utility.yul\":3506:3525   */\n      add\n        /* \"Ethereum/Presale.sol\":1705:1731  SaleInfor public saleInfor */\n      tag_29\n        /* \"#utility.yul\":3488:4129   */\n      jump\n        /* \"Ethereum/Presale.sol\":1841:1864  uint256 public totalFee */\n    tag_4:\n      callvalue\n      dup1\n      iszero\n      tag_36\n      jumpi\n      0x00\n      dup1\n      revert\n    tag_36:\n      pop\n      tag_37\n      sload(0x1d)\n      dup2\n      jump\n    tag_37:\n      mload(0x40)\n        /* \"#utility.yul\":12170:12195   */\n      swap1\n      dup2\n      mstore\n        /* \"#utility.yul\":12158:12160   */\n      0x20\n        /* \"#utility.yul\":12143:12161   */\n      add\n        /* \"Ethereum/Presale.sol\":1841:1864  uint256 public totalFee */\n      tag_29\n        /* \"#utility.yul\":12125:12201   */\n      jump\n        /* \"Ethereum/Presale.sol\":3708:4045  function status() public view returns(uint256) {\r... */\n    tag_5:\n      callvalue\n      dup1\n      iszero\n      tag_41\n      jumpi\n      0x00\n      dup1\n      revert\n    tag_41:\n      pop\n      tag_37\n      tag_43\n      jump\t// in\n        /* \"Ethereum/Presale.sol\":1763:1787  uint256 public feeAnyone */\n    tag_6:\n      callvalue\n      dup1\n      iszero\n      tag_45\n      jumpi\n      0x00\n      dup1\n      revert\n    tag_45:\n      pop\n      tag_37\n      sload(0x1a)\n      dup2\n      jump\n        /* \"Ethereum/Presale.sol\":1570:1612  mapping(address => uint256) public userFee */\n    tag_7:\n      callvalue\n      dup1\n      iszero\n      tag_49\n      jumpi\n      0x00\n      dup1\n      revert\n    tag_49:\n      pop\n      tag_37\n      tag_51\n      calldatasize\n      0x04\n      tag_52\n      jump\t// in\n    tag_51:\n      mstore(0x20, 0x03)\n      0x00\n      swap1\n      dup2\n      mstore\n      0x40\n      swap1\n      keccak256\n      sload\n      dup2\n      jump\n        /* \"Utils/Ownable.sol\":1714:1817  function renounceOwnership() public virtual onlyOwner {\r... */\n    tag_8:\n      callvalue\n      dup1\n      iszero\n      tag_55\n      jumpi\n      0x00\n      dup1\n      revert\n    tag_55:\n      pop\n      tag_56\n      tag_57\n      jump\t// in\n    tag_56:\n      stop\n        /* \"Ethereum/Presale.sol\":11221:11329  function backToken() external payable {\r... */\n    tag_9:\n      tag_56\n      tag_59\n      jump\t// in\n        /* \"Utils/Ownable.sol\":1063:1150  function owner() public view virtual returns (address) {\r... */\n    tag_10:\n      callvalue\n      dup1\n      iszero\n      tag_60\n      jumpi\n      0x00\n      dup1\n      revert\n    tag_60:\n      pop\n        /* \"Utils/Ownable.sol\":1136:1142  _owner */\n      and(sub(shl(0xa0, 0x01), 0x01), sload(0x01))\n        /* \"Utils/Ownable.sol\":1063:1150  function owner() public view virtual returns (address) {\r... */\n    tag_61:\n      mload(0x40)\n      sub(shl(0xa0, 0x01), 0x01)\n        /* \"#utility.yul\":2997:3029   */\n      swap1\n      swap2\n      and\n        /* \"#utility.yul\":2979:3030   */\n      dup2\n      mstore\n        /* \"#utility.yul\":2967:2969   */\n      0x20\n        /* \"#utility.yul\":2952:2970   */\n      add\n        /* \"Utils/Ownable.sol\":1063:1150  function owner() public view virtual returns (address) {\r... */\n      tag_29\n        /* \"#utility.yul\":2934:3036   */\n      jump\n        /* \"Ethereum/Presale.sol\":8126:9510  function ownerClaimAndRefundToken() external onlyPresaleOwner nonReentrant{\r... */\n    tag_11:\n      callvalue\n      dup1\n      iszero\n      tag_65\n      jumpi\n      0x00\n      dup1\n      revert\n    tag_65:\n      pop\n      tag_56\n      tag_67\n      jump\t// in\n        /* \"Ethereum/Presale.sol\":2509:3699  function initialSaleInfor(\r... */\n    tag_12:\n      callvalue\n      dup1\n      iszero\n      tag_68\n      jumpi\n      0x00\n      dup1\n      revert\n    tag_68:\n      pop\n      tag_56\n      tag_70\n      calldatasize\n      0x04\n      tag_71\n      jump\t// in\n    tag_70:\n      tag_72\n      jump\t// in\n        /* \"Ethereum/Presale.sol\":7255:8118  function userRefundEmergency() external nonReentrant {\r... */\n    tag_13:\n      callvalue\n      dup1\n      iszero\n      tag_73\n      jumpi\n      0x00\n      dup1\n      revert\n    tag_73:\n      pop\n      tag_56\n      tag_75\n      jump\t// in\n        /* \"Ethereum/Presale.sol\":6387:7247  function userClaimEmergency() external nonReentrant {\r... */\n    tag_14:\n      callvalue\n      dup1\n      iszero\n      tag_76\n      jumpi\n      0x00\n      dup1\n      revert\n    tag_76:\n      pop\n      tag_56\n      tag_78\n      jump\t// in\n        /* \"Ethereum/Presale.sol\":1619:1653  PresaleStatus public presaleStatus */\n    tag_15:\n      callvalue\n      dup1\n      iszero\n      tag_79\n      jumpi\n      0x00\n      dup1\n      revert\n    tag_79:\n      pop\n      sload(0x04)\n      sload(0x05)\n      sload(0x06)\n      sload(0x07)\n      sload(0x08)\n      sload(0x09)\n      tag_80\n      swap6\n      swap5\n      swap4\n      swap3\n      swap2\n      swap1\n      0xff\n      dup1\n      dup3\n      and\n      swap2\n      0x0100\n      swap1\n      div\n      and\n      dup8\n      jump\n    tag_80:\n      0x40\n      dup1\n      mload\n        /* \"#utility.yul\":13230:13255   */\n      swap8\n      dup9\n      mstore\n        /* \"#utility.yul\":13286:13288   */\n      0x20\n        /* \"#utility.yul\":13271:13289   */\n      dup9\n      add\n        /* \"#utility.yul\":13264:13298   */\n      swap7\n      swap1\n      swap7\n      mstore\n        /* \"#utility.yul\":13314:13332   */\n      swap5\n      dup7\n      add\n        /* \"#utility.yul\":13307:13341   */\n      swap4\n      swap1\n      swap4\n      mstore\n        /* \"#utility.yul\":13372:13374   */\n      0x60\n        /* \"#utility.yul\":13357:13375   */\n      dup6\n      add\n        /* \"#utility.yul\":13350:13384   */\n      swap2\n      swap1\n      swap2\n      mstore\n        /* \"#utility.yul\":13415:13418   */\n      0x80\n        /* \"#utility.yul\":13400:13419   */\n      dup5\n      add\n        /* \"#utility.yul\":13393:13428   */\n      mstore\n        /* \"#utility.yul\":13472:13486   */\n      iszero\n        /* \"#utility.yul\":13465:13487   */\n      iszero\n        /* \"#utility.yul\":13459:13462   */\n      0xa0\n        /* \"#utility.yul\":13444:13463   */\n      dup4\n      add\n        /* \"#utility.yul\":13437:13488   */\n      mstore\n        /* \"#utility.yul\":13532:13546   */\n      iszero\n        /* \"#utility.yul\":13525:13547   */\n      iszero\n        /* \"#utility.yul\":13519:13522   */\n      0xc0\n        /* \"#utility.yul\":13504:13523   */\n      dup3\n      add\n        /* \"#utility.yul\":13497:13548   */\n      mstore\n        /* \"#utility.yul\":13217:13220   */\n      0xe0\n        /* \"#utility.yul\":13202:13221   */\n      add\n        /* \"Ethereum/Presale.sol\":1619:1653  PresaleStatus public presaleStatus */\n      tag_29\n        /* \"#utility.yul\":13184:13554   */\n      jump\n        /* \"Ethereum/Presale.sol\":1738:1756  IERC20 public WETH */\n    tag_16:\n      callvalue\n      dup1\n      iszero\n      tag_84\n      jumpi\n      0x00\n      dup1\n      revert\n    tag_84:\n      pop\n      sload(0x19)\n      tag_61\n      swap1\n      sub(shl(0xa0, 0x01), 0x01)\n      and\n      dup2\n      jump\n        /* \"Ethereum/Presale.sol\":4172:6379  function deposit(uint256 _amount) external payable nonReentrant {\r... */\n    tag_17:\n      tag_56\n      tag_90\n      calldatasize\n      0x04\n      tag_91\n      jump\t// in\n    tag_90:\n      tag_92\n      jump\t// in\n        /* \"Ethereum/Presale.sol\":4054:4164  function checkAdminAddress() public view returns(bool) {\r... */\n    tag_18:\n      callvalue\n      dup1\n      iszero\n      tag_93\n      jumpi\n      0x00\n      dup1\n      revert\n    tag_93:\n      pop\n      tag_94\n      tag_95\n      jump\t// in\n    tag_94:\n      mload(0x40)\n        /* \"#utility.yul\":5245:5259   */\n      swap1\n      iszero\n        /* \"#utility.yul\":5238:5260   */\n      iszero\n        /* \"#utility.yul\":5220:5261   */\n      dup2\n      mstore\n        /* \"#utility.yul\":5208:5210   */\n      0x20\n        /* \"#utility.yul\":5193:5211   */\n      add\n        /* \"Ethereum/Presale.sol\":4054:4164  function checkAdminAddress() public view returns(bool) {\r... */\n      tag_29\n        /* \"#utility.yul\":5175:5267   */\n      jump\n        /* \"Ethereum/Presale.sol\":1517:1563  mapping(address => BuyerInfo) public buyerInfo */\n    tag_19:\n      callvalue\n      dup1\n      iszero\n      tag_98\n      jumpi\n      0x00\n      dup1\n      revert\n    tag_98:\n      pop\n      tag_99\n      tag_100\n      calldatasize\n      0x04\n      tag_52\n      jump\t// in\n    tag_100:\n      0x02\n      0x20\n      dup2\n      swap1\n      mstore\n      0x00\n      swap2\n      dup3\n      mstore\n      0x40\n      swap1\n      swap2\n      keccak256\n      dup1\n      sload\n      0x01\n      dup3\n      add\n      sload\n      swap3\n      dup3\n      add\n      sload\n      0x03\n      dup4\n      add\n      sload\n      0x04\n      swap1\n      swap4\n      add\n      sload\n      swap2\n      swap4\n      swap3\n      swap1\n      swap2\n      dup6\n      jump\n    tag_99:\n      0x40\n      dup1\n      mload\n        /* \"#utility.yul\":12718:12743   */\n      swap6\n      dup7\n      mstore\n        /* \"#utility.yul\":12774:12776   */\n      0x20\n        /* \"#utility.yul\":12759:12777   */\n      dup7\n      add\n        /* \"#utility.yul\":12752:12786   */\n      swap5\n      swap1\n      swap5\n      mstore\n        /* \"#utility.yul\":12802:12820   */\n      swap3\n      dup5\n      add\n        /* \"#utility.yul\":12795:12829   */\n      swap2\n      swap1\n      swap2\n      mstore\n        /* \"#utility.yul\":12860:12862   */\n      0x60\n        /* \"#utility.yul\":12845:12863   */\n      dup4\n      add\n        /* \"#utility.yul\":12838:12872   */\n      mstore\n        /* \"#utility.yul\":12903:12906   */\n      0x80\n        /* \"#utility.yul\":12888:12907   */\n      dup3\n      add\n        /* \"#utility.yul\":12881:12916   */\n      mstore\n        /* \"#utility.yul\":12705:12708   */\n      0xa0\n        /* \"#utility.yul\":12690:12709   */\n      add\n        /* \"Ethereum/Presale.sol\":1517:1563  mapping(address => BuyerInfo) public buyerInfo */\n      tag_29\n        /* \"#utility.yul\":12672:12922   */\n      jump\n        /* \"Ethereum/Presale.sol\":9518:11091  function userClaimOrRefundWhenSaleSuccess(bool isClaim) external {\r... */\n    tag_20:\n      callvalue\n      dup1\n      iszero\n      tag_104\n      jumpi\n      0x00\n      dup1\n      revert\n    tag_104:\n      pop\n      tag_56\n      tag_106\n      calldatasize\n      0x04\n      tag_107\n      jump\t// in\n    tag_106:\n      tag_108\n      jump\t// in\n        /* \"Utils/Ownable.sol\":1972:2173  function transferOwnership(address newOwner) public virtual onlyOwner {\r... */\n    tag_21:\n      callvalue\n      dup1\n      iszero\n      tag_109\n      jumpi\n      0x00\n      dup1\n      revert\n    tag_109:\n      pop\n      tag_56\n      tag_111\n      calldatasize\n      0x04\n      tag_52\n      jump\t// in\n    tag_111:\n      tag_112\n      jump\t// in\n        /* \"Ethereum/Presale.sol\":11099:11210  function getBalance(address _address) external view returns(uint256) {\r... */\n    tag_22:\n      callvalue\n      dup1\n      iszero\n      tag_113\n      jumpi\n      0x00\n      dup1\n      revert\n    tag_113:\n      pop\n      tag_37\n      tag_115\n      calldatasize\n      0x04\n      tag_52\n      jump\t// in\n    tag_115:\n      sub(shl(0xa0, 0x01), 0x01)\n        /* \"Ethereum/Presale.sol\":11186:11202  _address.balance */\n      and\n      balance\n      swap1\n        /* \"Ethereum/Presale.sol\":11099:11210  function getBalance(address _address) external view returns(uint256) {\r... */\n      jump\n        /* \"Ethereum/Presale.sol\":3708:4045  function status() public view returns(uint256) {\r... */\n    tag_43:\n        /* \"Ethereum/Presale.sol\":3787:3806  saleInfor.startSale */\n      sload(0x11)\n        /* \"Ethereum/Presale.sol\":3746:3753  uint256 */\n      0x00\n      swap1\n        /* \"Ethereum/Presale.sol\":3769:3784  block.timestamp */\n      timestamp\n        /* \"Ethereum/Presale.sol\":3769:3806  block.timestamp < saleInfor.startSale */\n      lt\n        /* \"Ethereum/Presale.sol\":3766:4038  if(block.timestamp < saleInfor.startSale) {\r... */\n      iszero\n      tag_120\n      jumpi\n      pop\n        /* \"Ethereum/Presale.sol\":3830:3831  0 */\n      0x00\n      swap1\n        /* \"Ethereum/Presale.sol\":3708:4045  function status() public view returns(uint256) {\r... */\n      jump\t// out\n        /* \"Ethereum/Presale.sol\":3766:4038  if(block.timestamp < saleInfor.startSale) {\r... */\n    tag_120:\n        /* \"Ethereum/Presale.sol\":3897:3914  saleInfor.endSale */\n      sload(0x12)\n        /* \"Ethereum/Presale.sol\":3879:3894  block.timestamp */\n      timestamp\n        /* \"Ethereum/Presale.sol\":3879:3914  block.timestamp > saleInfor.endSale */\n      gt\n        /* \"Ethereum/Presale.sol\":3876:4027  if(block.timestamp > saleInfor.endSale) {\r... */\n      iszero\n      tag_122\n      jumpi\n      pop\n        /* \"Ethereum/Presale.sol\":3942:3943  2 */\n      0x02\n      swap1\n        /* \"Ethereum/Presale.sol\":3708:4045  function status() public view returns(uint256) {\r... */\n      jump\t// out\n        /* \"Ethereum/Presale.sol\":3876:4027  if(block.timestamp > saleInfor.endSale) {\r... */\n    tag_122:\n      pop\n        /* \"Ethereum/Presale.sol\":4000:4001  1 */\n      0x01\n      swap1\n        /* \"Ethereum/Presale.sol\":3708:4045  function status() public view returns(uint256) {\r... */\n      jump\t// out\n        /* \"Utils/Ownable.sol\":1714:1817  function renounceOwnership() public virtual onlyOwner {\r... */\n    tag_57:\n        /* \"Utils/Ownable.sol\":1136:1142  _owner */\n      and(sub(shl(0xa0, 0x01), 0x01), sload(0x01))\n        /* \"Utils/Context.sol\":736:746  msg.sender */\n      caller\n        /* \"Utils/Ownable.sol\":1283:1306  owner() == _msgSender() */\n      eq\n        /* \"Utils/Ownable.sol\":1275:1343  require(owner() == _msgSender(), \"Ownable: caller is not the owner\") */\n      tag_128\n      jumpi\n      mload(0x40)\n      shl(0xe5, 0x461bcd)\n      dup2\n      mstore\n        /* \"#utility.yul\":10055:10057   */\n      0x20\n        /* \"Utils/Ownable.sol\":1275:1343  require(owner() == _msgSender(), \"Ownable: caller is not the owner\") */\n      0x04\n      dup3\n      add\n        /* \"#utility.yul\":10037:10058   */\n      dup2\n      swap1\n      mstore\n        /* \"#utility.yul\":10074:10092   */\n      0x24\n      dup3\n      add\n        /* \"#utility.yul\":10067:10097   */\n      mstore\n        /* \"#utility.yul\":10133:10167   */\n      0x4f776e61626c653a2063616c6c6572206973206e6f7420746865206f776e6572\n        /* \"#utility.yul\":10113:10131   */\n      0x44\n      dup3\n      add\n        /* \"#utility.yul\":10106:10168   */\n      mstore\n        /* \"#utility.yul\":10185:10203   */\n      0x64\n      add\n        /* \"Utils/Ownable.sol\":1275:1343  require(owner() == _msgSender(), \"Ownable: caller is not the owner\") */\n    tag_129:\n      mload(0x40)\n      dup1\n      swap2\n      sub\n      swap1\n      revert\n    tag_128:\n        /* \"Utils/Ownable.sol\":1779:1809  _transferOwnership(address(0)) */\n      tag_132\n        /* \"Utils/Ownable.sol\":1806:1807  0 */\n      0x00\n        /* \"Utils/Ownable.sol\":1779:1797  _transferOwnership */\n      tag_133\n        /* \"Utils/Ownable.sol\":1779:1809  _transferOwnership(address(0)) */\n      jump\t// in\n    tag_132:\n        /* \"Utils/Ownable.sol\":1714:1817  function renounceOwnership() public virtual onlyOwner {\r... */\n      jump\t// out\n        /* \"Ethereum/Presale.sol\":11221:11329  function backToken() external payable {\r... */\n    tag_59:\n        /* \"Ethereum/Presale.sol\":11270:11321  payable(msg.sender).transfer(address(this).balance) */\n      mload(0x40)\n        /* \"Ethereum/Presale.sol\":11278:11288  msg.sender */\n      caller\n      swap1\n        /* \"Ethereum/Presale.sol\":11299:11320  address(this).balance */\n      selfbalance\n        /* \"Ethereum/Presale.sol\":11270:11321  payable(msg.sender).transfer(address(this).balance) */\n      dup1\n      iszero\n      0x08fc\n      mul\n      swap2\n      0x00\n      dup2\n      dup2\n      dup2\n        /* \"Ethereum/Presale.sol\":11299:11320  address(this).balance */\n      dup6\n        /* \"Ethereum/Presale.sol\":11278:11288  msg.sender */\n      dup9\n        /* \"Ethereum/Presale.sol\":11270:11321  payable(msg.sender).transfer(address(this).balance) */\n      dup9\n      call\n      swap4\n      pop\n      pop\n      pop\n      pop\n      iszero\n      dup1\n      iszero\n      tag_136\n      jumpi\n      returndatasize\n      0x00\n      dup1\n      returndatacopy\n      revert(0x00, returndatasize)\n    tag_136:\n      pop\n        /* \"Ethereum/Presale.sol\":11221:11329  function backToken() external payable {\r... */\n      jump\t// out\n        /* \"Ethereum/Presale.sol\":8126:9510  function ownerClaimAndRefundToken() external onlyPresaleOwner nonReentrant{\r... */\n    tag_67:\n        /* \"Ethereum/Presale.sol\":2047:2056  saleInfor */\n      0x0d\n        /* \"Ethereum/Presale.sol\":2047:2069  saleInfor.presaleOwner */\n      sload\n      sub(shl(0xa0, 0x01), 0x01)\n      and\n        /* \"Utils/Context.sol\":736:746  msg.sender */\n      caller\n      sub(shl(0xa0, 0x01), 0x01)\n        /* \"Ethereum/Presale.sol\":2031:2069  _msgSender() == saleInfor.presaleOwner */\n      and\n      eq\n        /* \"Ethereum/Presale.sol\":2023:2092  require(_msgSender() == saleInfor.presaleOwner, \"Only presale owner\") */\n      tag_140\n      jumpi\n      mload(0x40)\n      shl(0xe5, 0x461bcd)\n      dup2\n      mstore\n        /* \"#utility.yul\":9708:9710   */\n      0x20\n        /* \"Ethereum/Presale.sol\":2023:2092  require(_msgSender() == saleInfor.presaleOwner, \"Only presale owner\") */\n      0x04\n      dup3\n      add\n        /* \"#utility.yul\":9690:9711   */\n      mstore\n        /* \"#utility.yul\":9747:9749   */\n      0x12\n        /* \"#utility.yul\":9727:9745   */\n      0x24\n      dup3\n      add\n        /* \"#utility.yul\":9720:9750   */\n      mstore\n      shl(0x71, 0x27b7363c90383932b9b0b6329037bbb732b9)\n        /* \"#utility.yul\":9766:9784   */\n      0x44\n      dup3\n      add\n        /* \"#utility.yul\":9759:9807   */\n      mstore\n        /* \"#utility.yul\":9824:9842   */\n      0x64\n      add\n        /* \"Ethereum/Presale.sol\":2023:2092  require(_msgSender() == saleInfor.presaleOwner, \"Only presale owner\") */\n      tag_129\n        /* \"#utility.yul\":9680:9848   */\n      jump\n        /* \"Ethereum/Presale.sol\":2023:2092  require(_msgSender() == saleInfor.presaleOwner, \"Only presale owner\") */\n    tag_140:\n        /* \"Utils/ReentrancyGuard.sol\":1778:1779  2 */\n      0x02\n        /* \"Utils/ReentrancyGuard.sol\":2376:2383  _status */\n      sload(0x00)\n        /* \"Utils/ReentrancyGuard.sol\":2376:2395  _status != _ENTERED */\n      eq\n      iszero\n        /* \"Utils/ReentrancyGuard.sol\":2368:2431  require(_status != _ENTERED, \"ReentrancyGuard: reentrant call\") */\n      tag_144\n      jumpi\n      mload(0x40)\n      shl(0xe5, 0x461bcd)\n      dup2\n      mstore\n      0x04\n      add\n      tag_129\n      swap1\n      tag_146\n      jump\t// in\n    tag_144:\n        /* \"Utils/ReentrancyGuard.sol\":1778:1779  2 */\n      0x02\n        /* \"Utils/ReentrancyGuard.sol\":2509:2516  _status */\n      0x00\n        /* \"Utils/ReentrancyGuard.sol\":2509:2527  _status = _ENTERED */\n      swap1\n      dup2\n      sstore\n        /* \"Ethereum/Presale.sol\":8309:8328  saleInfor.saleToken */\n      sload(0x0e)\n        /* \"Ethereum/Presale.sol\":8303:8354  ERC20(saleInfor.saleToken).balanceOf(address(this)) */\n      mload(0x40)\n      shl(0xe0, 0x70a08231)\n      dup2\n      mstore\n        /* \"Ethereum/Presale.sol\":8348:8352  this */\n      address\n        /* \"Ethereum/Presale.sol\":8303:8354  ERC20(saleInfor.saleToken).balanceOf(address(this)) */\n      0x04\n      dup3\n      add\n        /* \"#utility.yul\":2979:3030   */\n      mstore\n      sub(shl(0xa0, 0x01), 0x01)\n        /* \"Ethereum/Presale.sol\":8309:8328  saleInfor.saleToken */\n      swap1\n      swap2\n      and\n      swap1\n        /* \"Ethereum/Presale.sol\":8303:8339  ERC20(saleInfor.saleToken).balanceOf */\n      0x70a08231\n      swap1\n        /* \"#utility.yul\":2952:2970   */\n      0x24\n      add\n        /* \"Ethereum/Presale.sol\":8303:8354  ERC20(saleInfor.saleToken).balanceOf(address(this)) */\n      0x20\n      mload(0x40)\n      dup1\n      dup4\n      sub\n      dup2\n      dup7\n      dup1\n      extcodesize\n      iszero\n      dup1\n      iszero\n      tag_149\n      jumpi\n      0x00\n      dup1\n      revert\n    tag_149:\n      pop\n      gas\n      staticcall\n      iszero\n      dup1\n      iszero\n      tag_151\n      jumpi\n      returndatasize\n      0x00\n      dup1\n      returndatacopy\n      revert(0x00, returndatasize)\n    tag_151:\n      pop\n      pop\n      pop\n      pop\n      mload(0x40)\n      returndatasize\n      not(0x1f)\n      0x1f\n      dup3\n      add\n      and\n      dup3\n      add\n      dup1\n      0x40\n      mstore\n      pop\n      dup2\n      add\n      swap1\n      tag_152\n      swap2\n      swap1\n      tag_153\n      jump\t// in\n    tag_152:\n        /* \"Ethereum/Presale.sol\":8441:8454  presaleStatus */\n      0x04\n        /* \"Ethereum/Presale.sol\":8441:8473  presaleStatus.totalBaseCollected */\n      sload\n        /* \"Ethereum/Presale.sol\":8271:8354  uint256 amountOwnerClaimToken = ERC20(saleInfor.saleToken).balanceOf(address(this)) */\n      swap1\n      swap2\n      pop\n        /* \"Ethereum/Presale.sol\":8405:8426  address(this).balance */\n      selfbalance\n      swap1\n        /* \"Ethereum/Presale.sol\":8441:8478  presaleStatus.totalBaseCollected != 0 */\n      iszero\n        /* \"Ethereum/Presale.sol\":8438:8952  if(presaleStatus.totalBaseCollected != 0){\r... */\n      tag_154\n      jumpi\n        /* \"Ethereum/Presale.sol\":8653:8685  presaleStatus.totalTokenWithDraw */\n      sload(0x06)\n        /* \"Ethereum/Presale.sol\":8582:8610  presaleStatus.totalTokenSold */\n      sload(0x05)\n        /* \"Ethereum/Presale.sol\":8518:8687  amountOwnerClaimToken\r... */\n      tag_155\n      swap2\n        /* \"Ethereum/Presale.sol\":8582:8686  presaleStatus.totalTokenSold\r... */\n      tag_156\n      swap2\n        /* \"Ethereum/Presale.sol\":8582:8610  presaleStatus.totalTokenSold */\n      swap1\n        /* \"Ethereum/Presale.sol\":8582:8652  presaleStatus.totalTokenSold\r... */\n      tag_157\n        /* \"Ethereum/Presale.sol\":8582:8686  presaleStatus.totalTokenSold\r... */\n      jump\t// in\n    tag_156:\n        /* \"Ethereum/Presale.sol\":8518:8539  amountOwnerClaimToken */\n      dup4\n      swap1\n        /* \"Ethereum/Presale.sol\":8518:8581  amountOwnerClaimToken\r... */\n      tag_157\n        /* \"Ethereum/Presale.sol\":8518:8687  amountOwnerClaimToken\r... */\n      jump\t// in\n    tag_155:\n        /* \"Ethereum/Presale.sol\":8887:8918  presaleStatus.totalBaseWithDraw */\n      sload(0x07)\n        /* \"Ethereum/Presale.sol\":8887:8900  presaleStatus */\n      0x04\n        /* \"Ethereum/Presale.sol\":8807:8839  presaleStatus.totalBaseCollected */\n      sload\n        /* \"Ethereum/Presale.sol\":8494:8687  amountOwnerClaimToken = amountOwnerClaimToken\r... */\n      swap2\n      swap4\n      pop\n        /* \"Ethereum/Presale.sol\":8732:8920  amountOwnerRefundNativeCoin\r... */\n      tag_158\n      swap2\n        /* \"Ethereum/Presale.sol\":8807:8919  presaleStatus.totalBaseCollected\r... */\n      tag_159\n      swap2\n        /* \"Ethereum/Presale.sol\":8807:8886  presaleStatus.totalBaseCollected\r... */\n      tag_157\n        /* \"Ethereum/Presale.sol\":8807:8919  presaleStatus.totalBaseCollected\r... */\n      jump\t// in\n    tag_159:\n        /* \"Ethereum/Presale.sol\":8732:8759  amountOwnerRefundNativeCoin */\n      dup3\n      swap1\n        /* \"Ethereum/Presale.sol\":8732:8806  amountOwnerRefundNativeCoin\r... */\n      tag_157\n        /* \"Ethereum/Presale.sol\":8732:8920  amountOwnerRefundNativeCoin\r... */\n      jump\t// in\n    tag_158:\n        /* \"Ethereum/Presale.sol\":8702:8920  amountOwnerRefundNativeCoin = amountOwnerRefundNativeCoin\r... */\n      swap1\n      pop\n        /* \"Ethereum/Presale.sol\":8438:8952  if(presaleStatus.totalBaseCollected != 0){\r... */\n    tag_154:\n        /* \"Ethereum/Presale.sol\":8971:9006  presaleStatus.isOwnerClaimSaleToken */\n      and(0xff, sload(0x09))\n        /* \"Ethereum/Presale.sol\":8970:9006  !presaleStatus.isOwnerClaimSaleToken */\n      iszero\n        /* \"Ethereum/Presale.sol\":8962:9040  require(!presaleStatus.isOwnerClaimSaleToken, \"Nothing for owner claim token\") */\n      tag_160\n      jumpi\n      mload(0x40)\n      shl(0xe5, 0x461bcd)\n      dup2\n      mstore\n        /* \"#utility.yul\":11164:11166   */\n      0x20\n        /* \"Ethereum/Presale.sol\":8962:9040  require(!presaleStatus.isOwnerClaimSaleToken, \"Nothing for owner claim token\") */\n      0x04\n      dup3\n      add\n        /* \"#utility.yul\":11146:11167   */\n      mstore\n        /* \"#utility.yul\":11203:11205   */\n      0x1d\n        /* \"#utility.yul\":11183:11201   */\n      0x24\n      dup3\n      add\n        /* \"#utility.yul\":11176:11206   */\n      mstore\n        /* \"#utility.yul\":11242:11273   */\n      0x4e6f7468696e6720666f72206f776e657220636c61696d20746f6b656e000000\n        /* \"#utility.yul\":11222:11240   */\n      0x44\n      dup3\n      add\n        /* \"#utility.yul\":11215:11274   */\n      mstore\n        /* \"#utility.yul\":11291:11309   */\n      0x64\n      add\n        /* \"Ethereum/Presale.sol\":8962:9040  require(!presaleStatus.isOwnerClaimSaleToken, \"Nothing for owner claim token\") */\n      tag_129\n        /* \"#utility.yul\":11136:11315   */\n      jump\n        /* \"Ethereum/Presale.sol\":8962:9040  require(!presaleStatus.isOwnerClaimSaleToken, \"Nothing for owner claim token\") */\n    tag_160:\n        /* \"Ethereum/Presale.sol\":9060:9096  presaleStatus.isOwnerRefundBaseToken */\n      sload(0x09)\n      0x0100\n      swap1\n      div\n      0xff\n      and\n        /* \"Ethereum/Presale.sol\":9059:9096  !presaleStatus.isOwnerRefundBaseToken */\n      iszero\n        /* \"Ethereum/Presale.sol\":9051:9131  require(!presaleStatus.isOwnerRefundBaseToken, \"Nothing for owner refund token\") */\n      tag_163\n      jumpi\n      mload(0x40)\n      shl(0xe5, 0x461bcd)\n      dup2\n      mstore\n        /* \"#utility.yul\":7166:7168   */\n      0x20\n        /* \"Ethereum/Presale.sol\":9051:9131  require(!presaleStatus.isOwnerRefundBaseToken, \"Nothing for owner refund token\") */\n      0x04\n      dup3\n      add\n        /* \"#utility.yul\":7148:7169   */\n      mstore\n        /* \"#utility.yul\":7205:7207   */\n      0x1e\n        /* \"#utility.yul\":7185:7203   */\n      0x24\n      dup3\n      add\n        /* \"#utility.yul\":7178:7208   */\n      mstore\n        /* \"#utility.yul\":7244:7276   */\n      0x4e6f7468696e6720666f72206f776e657220726566756e6420746f6b656e0000\n        /* \"#utility.yul\":7224:7242   */\n      0x44\n      dup3\n      add\n        /* \"#utility.yul\":7217:7277   */\n      mstore\n        /* \"#utility.yul\":7294:7312   */\n      0x64\n      add\n        /* \"Ethereum/Presale.sol\":9051:9131  require(!presaleStatus.isOwnerRefundBaseToken, \"Nothing for owner refund token\") */\n      tag_129\n        /* \"#utility.yul\":7138:7318   */\n      jump\n        /* \"Ethereum/Presale.sol\":9051:9131  require(!presaleStatus.isOwnerRefundBaseToken, \"Nothing for owner refund token\") */\n    tag_163:\n        /* \"Ethereum/Presale.sol\":9142:9177  presaleStatus.isOwnerClaimSaleToken */\n      0x09\n        /* \"Ethereum/Presale.sol\":9142:9184  presaleStatus.isOwnerClaimSaleToken = true */\n      dup1\n      sload\n      not(0xff)\n      and\n        /* \"Ethereum/Presale.sol\":9180:9184  true */\n      0x01\n        /* \"Ethereum/Presale.sol\":9142:9184  presaleStatus.isOwnerClaimSaleToken = true */\n      or\n      swap1\n      sstore\n        /* \"Ethereum/Presale.sol\":9142:9177  presaleStatus.isOwnerClaimSaleToken */\n      0x00\n        /* \"Ethereum/Presale.sol\":9195:9223  saleInfor.amountTokenForSale */\n      0x18\n        /* \"Ethereum/Presale.sol\":9195:9227  saleInfor.amountTokenForSale = 0 */\n      sstore\n        /* \"Ethereum/Presale.sol\":9244:9263  saleInfor.saleToken */\n      sload(0x0e)\n        /* \"Ethereum/Presale.sol\":9195:9204  saleInfor */\n      0x0d\n        /* \"Ethereum/Presale.sol\":9274:9296  saleInfor.presaleOwner */\n      sload\n        /* \"Ethereum/Presale.sol\":9388:9420  presaleStatus.totalTokenWithDraw */\n      sload(0x06)\n        /* \"Ethereum/Presale.sol\":9142:9177  presaleStatus.isOwnerClaimSaleToken */\n      0x05\n        /* \"Ethereum/Presale.sol\":9339:9367  presaleStatus.totalTokenSold */\n      sload\n      sub(shl(0xa0, 0x01), 0x01)\n        /* \"Ethereum/Presale.sol\":9244:9263  saleInfor.saleToken */\n      swap4\n      dup5\n      and\n      swap4\n        /* \"Ethereum/Presale.sol\":9238:9273  ERC20(saleInfor.saleToken).transfer */\n      0xa9059cbb\n      swap4\n        /* \"Ethereum/Presale.sol\":9274:9296  saleInfor.presaleOwner */\n      and\n      swap2\n        /* \"Ethereum/Presale.sol\":9312:9421  (amountOwnerClaimToken.sub(presaleStatus.totalTokenSold))\r... */\n      tag_166\n      swap2\n        /* \"Ethereum/Presale.sol\":9313:9368  amountOwnerClaimToken.sub(presaleStatus.totalTokenSold) */\n      tag_167\n      swap1\n        /* \"Ethereum/Presale.sol\":9313:9334  amountOwnerClaimToken */\n      dup9\n      swap1\n        /* \"Ethereum/Presale.sol\":9313:9338  amountOwnerClaimToken.sub */\n      tag_157\n        /* \"Ethereum/Presale.sol\":9313:9368  amountOwnerClaimToken.sub(presaleStatus.totalTokenSold) */\n      jump\t// in\n    tag_167:\n        /* \"Ethereum/Presale.sol\":9312:9387  (amountOwnerClaimToken.sub(presaleStatus.totalTokenSold))\r... */\n      swap1\n      tag_157\n        /* \"Ethereum/Presale.sol\":9312:9421  (amountOwnerClaimToken.sub(presaleStatus.totalTokenSold))\r... */\n      jump\t// in\n    tag_166:\n        /* \"Ethereum/Presale.sol\":9238:9422  ERC20(saleInfor.saleToken).transfer(saleInfor.presaleOwner, \r... */\n      mload(0x40)\n      not(sub(shl(0xe0, 0x01), 0x01))\n      0xe0\n      dup6\n      swap1\n      shl\n      and\n      dup2\n      mstore\n      sub(shl(0xa0, 0x01), 0x01)\n        /* \"#utility.yul\":4334:4366   */\n      swap1\n      swap3\n      and\n        /* \"Ethereum/Presale.sol\":9238:9422  ERC20(saleInfor.saleToken).transfer(saleInfor.presaleOwner, \r... */\n      0x04\n      dup4\n      add\n        /* \"#utility.yul\":4316:4367   */\n      mstore\n        /* \"#utility.yul\":4383:4401   */\n      0x24\n      dup3\n      add\n        /* \"#utility.yul\":4376:4410   */\n      mstore\n        /* \"#utility.yul\":4289:4307   */\n      0x44\n      add\n        /* \"Ethereum/Presale.sol\":9238:9422  ERC20(saleInfor.saleToken).transfer(saleInfor.presaleOwner, \r... */\n      0x20\n      mload(0x40)\n      dup1\n      dup4\n      sub\n      dup2\n      0x00\n      dup8\n      dup1\n      extcodesize\n      iszero\n      dup1\n      iszero\n      tag_170\n      jumpi\n      0x00\n      dup1\n      revert\n    tag_170:\n      pop\n      gas\n      call\n      iszero\n      dup1\n      iszero\n      tag_172\n      jumpi\n      returndatasize\n      0x00\n      dup1\n      returndatacopy\n      revert(0x00, returndatasize)\n    tag_172:\n      pop\n      pop\n      pop\n      pop\n      mload(0x40)\n      returndatasize\n      not(0x1f)\n      0x1f\n      dup3\n      add\n      and\n      dup3\n      add\n      dup1\n      0x40\n      mstore\n      pop\n      dup2\n      add\n      swap1\n      tag_173\n      swap2\n      swap1\n      tag_174\n      jump\t// in\n    tag_173:\n      pop\n        /* \"Ethereum/Presale.sol\":9441:9450  saleInfor */\n      0x0d\n        /* \"Ethereum/Presale.sol\":9441:9463  saleInfor.presaleOwner */\n      sload\n        /* \"Ethereum/Presale.sol\":9433:9502  payable(saleInfor.presaleOwner).transfer(amountOwnerRefundNativeCoin) */\n      mload(0x40)\n      sub(shl(0xa0, 0x01), 0x01)\n        /* \"Ethereum/Presale.sol\":9441:9463  saleInfor.presaleOwner */\n      swap1\n      swap2\n      and\n      swap1\n        /* \"Ethereum/Presale.sol\":9433:9502  payable(saleInfor.presaleOwner).transfer(amountOwnerRefundNativeCoin) */\n      dup3\n      iszero\n      0x08fc\n      mul\n      swap1\n        /* \"Ethereum/Presale.sol\":9474:9501  amountOwnerRefundNativeCoin */\n      dup4\n      swap1\n        /* \"Ethereum/Presale.sol\":9441:9463  saleInfor.presaleOwner */\n      0x00\n        /* \"Ethereum/Presale.sol\":9433:9502  payable(saleInfor.presaleOwner).transfer(amountOwnerRefundNativeCoin) */\n      dup2\n        /* \"Ethereum/Presale.sol\":9441:9463  saleInfor.presaleOwner */\n      dup2\n        /* \"Ethereum/Presale.sol\":9433:9502  payable(saleInfor.presaleOwner).transfer(amountOwnerRefundNativeCoin) */\n      dup2\n        /* \"Ethereum/Presale.sol\":9474:9501  amountOwnerRefundNativeCoin */\n      dup6\n        /* \"Ethereum/Presale.sol\":9441:9463  saleInfor.presaleOwner */\n      dup9\n        /* \"Ethereum/Presale.sol\":9433:9502  payable(saleInfor.presaleOwner).transfer(amountOwnerRefundNativeCoin) */\n      dup9\n      call\n      swap4\n      pop\n      pop\n      pop\n      pop\n      iszero\n      dup1\n      iszero\n      tag_176\n      jumpi\n      returndatasize\n      0x00\n      dup1\n      returndatacopy\n      revert(0x00, returndatasize)\n    tag_176:\n      pop\n      pop\n        /* \"Utils/ReentrancyGuard.sol\":1734:1735  1 */\n      0x01\n        /* \"Utils/ReentrancyGuard.sol\":2688:2695  _status */\n      0x00\n        /* \"Utils/ReentrancyGuard.sol\":2688:2710  _status = _NOT_ENTERED */\n      sstore\n      pop\n        /* \"Ethereum/Presale.sol\":8126:9510  function ownerClaimAndRefundToken() external onlyPresaleOwner nonReentrant{\r... */\n      jump\t// out\n        /* \"Ethereum/Presale.sol\":2509:3699  function initialSaleInfor(\r... */\n    tag_72:\n        /* \"Ethereum/Presale.sol\":2690:2699  saleInfor */\n      0x0d\n        /* \"Ethereum/Presale.sol\":2690:2728  saleInfor.presaleOwner = _presaleOwner */\n      dup1\n      sload\n      sub(shl(0xa0, 0x01), 0x01)\n      dup1\n      dup8\n      and\n      not(sub(shl(0xa0, 0x01), 0x01))\n      swap3\n      dup4\n      and\n      or\n      swap1\n      swap3\n      sstore\n        /* \"Ethereum/Presale.sol\":2739:2758  saleInfor.saleToken */\n      0x0e\n        /* \"Ethereum/Presale.sol\":2739:2771  saleInfor.saleToken = _saleToken */\n      dup1\n      sload\n      dup7\n      dup5\n      and\n      swap1\n      dup4\n      and\n      dup2\n      or\n      swap1\n      swap2\n      sstore\n        /* \"Ethereum/Presale.sol\":2782:2801  saleInfor.baseToken */\n      0x0f\n        /* \"Ethereum/Presale.sol\":2782:2814  saleInfor.baseToken = _baseTOken */\n      dup1\n      sload\n      swap4\n      dup7\n      and\n      swap4\n      swap1\n      swap3\n      and\n      swap3\n      swap1\n      swap3\n      or\n      swap1\n      sstore\n        /* \"Ethereum/Presale.sol\":2872:2909  ERC20(saleInfor.saleToken).decimals() */\n      0x40\n      dup1\n      mload\n      shl(0xe0, 0x313ce567)\n      dup2\n      mstore\n      swap1\n      mload\n        /* \"Ethereum/Presale.sol\":2872:2907  ERC20(saleInfor.saleToken).decimals */\n      0x313ce567\n      swap2\n        /* \"Ethereum/Presale.sol\":2872:2909  ERC20(saleInfor.saleToken).decimals() */\n      0x04\n      dup1\n      dup3\n      add\n      swap3\n      0x20\n      swap3\n      swap1\n      swap2\n      swap1\n      dup3\n      swap1\n      sub\n      add\n      dup2\n        /* \"Ethereum/Presale.sol\":2739:2771  saleInfor.saleToken = _saleToken */\n      dup7\n        /* \"Ethereum/Presale.sol\":2872:2909  ERC20(saleInfor.saleToken).decimals() */\n      dup1\n      extcodesize\n      iszero\n      dup1\n      iszero\n      tag_178\n      jumpi\n      0x00\n      dup1\n      revert\n    tag_178:\n      pop\n      gas\n      staticcall\n      iszero\n      dup1\n      iszero\n      tag_180\n      jumpi\n      returndatasize\n      0x00\n      dup1\n      returndatacopy\n      revert(0x00, returndatasize)\n    tag_180:\n      pop\n      pop\n      pop\n      pop\n      mload(0x40)\n      returndatasize\n      not(0x1f)\n      0x1f\n      dup3\n      add\n      and\n      dup3\n      add\n      dup1\n      0x40\n      mstore\n      pop\n      dup2\n      add\n      swap1\n      tag_181\n      swap2\n      swap1\n      tag_153\n      jump\t// in\n    tag_181:\n        /* \"Ethereum/Presale.sol\":2859:2910  10** uint256(ERC20(saleInfor.saleToken).decimals()) */\n      tag_182\n      swap1\n        /* \"Ethereum/Presale.sol\":2859:2861  10 */\n      0x0a\n        /* \"Ethereum/Presale.sol\":2859:2910  10** uint256(ERC20(saleInfor.saleToken).decimals()) */\n      tag_183\n      jump\t// in\n    tag_182:\n        /* \"Ethereum/Presale.sol\":2848:2856  datas[0] */\n      dup2\n      mload\n        /* \"Ethereum/Presale.sol\":2848:2910  datas[0] * 10** uint256(ERC20(saleInfor.saleToken).decimals()) */\n      tag_187\n      swap2\n      swap1\n      tag_188\n      jump\t// in\n    tag_187:\n        /* \"Ethereum/Presale.sol\":2825:2845  saleInfor.tokenPrice */\n      0x10\n        /* \"Ethereum/Presale.sol\":2825:2910  saleInfor.tokenPrice = datas[0] * 10** uint256(ERC20(saleInfor.saleToken).decimals()) */\n      sstore\n        /* \"Ethereum/Presale.sol\":2943:2951  datas[1] */\n      0x20\n      dup1\n      dup3\n      add\n      mload\n        /* \"Ethereum/Presale.sol\":2921:2940  saleInfor.startSale */\n      0x11\n        /* \"Ethereum/Presale.sol\":2921:2951  saleInfor.startSale = datas[1] */\n      sstore\n        /* \"Ethereum/Presale.sol\":2982:2990  datas[2] */\n      0x40\n      dup1\n      dup4\n      add\n      mload\n        /* \"Ethereum/Presale.sol\":2962:2979  saleInfor.endSale */\n      0x12\n        /* \"Ethereum/Presale.sol\":2962:2990  saleInfor.endSale = datas[2] */\n      sstore\n        /* \"Ethereum/Presale.sol\":3030:3038  datas[3] */\n      0x60\n      dup4\n      add\n      mload\n        /* \"Ethereum/Presale.sol\":3001:3027  saleInfor.minSpendPerBuyer */\n      0x13\n        /* \"Ethereum/Presale.sol\":3001:3038  saleInfor.minSpendPerBuyer = datas[3] */\n      sstore\n        /* \"Ethereum/Presale.sol\":3109:3128  saleInfor.baseToken */\n      sload(0x0f)\n        /* \"Ethereum/Presale.sol\":3103:3140  ERC20(saleInfor.baseToken).decimals() */\n      dup2\n      mload\n      shl(0xe0, 0x313ce567)\n      dup2\n      mstore\n      swap2\n      mload\n      sub(shl(0xa0, 0x01), 0x01)\n        /* \"Ethereum/Presale.sol\":3109:3128  saleInfor.baseToken */\n      swap1\n      swap2\n      and\n      swap3\n        /* \"Ethereum/Presale.sol\":3103:3138  ERC20(saleInfor.baseToken).decimals */\n      0x313ce567\n      swap3\n        /* \"Ethereum/Presale.sol\":3103:3140  ERC20(saleInfor.baseToken).decimals() */\n      0x04\n      dup1\n      dup3\n      add\n      swap4\n      swap2\n      dup3\n      swap1\n      sub\n      add\n      dup2\n        /* \"Ethereum/Presale.sol\":3109:3128  saleInfor.baseToken */\n      dup7\n        /* \"Ethereum/Presale.sol\":3103:3140  ERC20(saleInfor.baseToken).decimals() */\n      dup1\n      extcodesize\n      iszero\n      dup1\n      iszero\n      tag_195\n      jumpi\n      0x00\n      dup1\n      revert\n    tag_195:\n      pop\n      gas\n      staticcall\n      iszero\n      dup1\n      iszero\n      tag_197\n      jumpi\n      returndatasize\n      0x00\n      dup1\n      returndatacopy\n      revert(0x00, returndatasize)\n    tag_197:\n      pop\n      pop\n      pop\n      pop\n      mload(0x40)\n      returndatasize\n      not(0x1f)\n      0x1f\n      dup3\n      add\n      and\n      dup3\n      add\n      dup1\n      0x40\n      mstore\n      pop\n      dup2\n      add\n      swap1\n      tag_198\n      swap2\n      swap1\n      tag_153\n      jump\t// in\n    tag_198:\n        /* \"Ethereum/Presale.sol\":3089:3141  10 ** uint256(ERC20(saleInfor.baseToken).decimals()) */\n      tag_199\n      swap1\n        /* \"Ethereum/Presale.sol\":3089:3091  10 */\n      0x0a\n        /* \"Ethereum/Presale.sol\":3089:3141  10 ** uint256(ERC20(saleInfor.baseToken).decimals()) */\n      tag_183\n      jump\t// in\n    tag_199:\n        /* \"Ethereum/Presale.sol\":3078:3086  datas[4] */\n      0x80\n      dup3\n      add\n      mload\n        /* \"Ethereum/Presale.sol\":3078:3141  datas[4] * 10 ** uint256(ERC20(saleInfor.baseToken).decimals()) */\n      tag_202\n      swap2\n      swap1\n      tag_188\n      jump\t// in\n    tag_202:\n        /* \"Ethereum/Presale.sol\":3049:3075  saleInfor.maxSpendPerBuyer */\n      0x14\n        /* \"Ethereum/Presale.sol\":3049:3141  saleInfor.maxSpendPerBuyer = datas[4] * 10 ** uint256(ERC20(saleInfor.baseToken).decimals()) */\n      sstore\n        /* \"Ethereum/Presale.sol\":3174:3182  datas[5] */\n      0xa0\n      dup2\n      add\n      mload\n        /* \"Ethereum/Presale.sol\":3152:3171  saleInfor.refundFee */\n      0x15\n        /* \"Ethereum/Presale.sol\":3152:3182  saleInfor.refundFee = datas[5] */\n      sstore\n        /* \"Ethereum/Presale.sol\":3214:3222  datas[6] */\n      0xc0\n      dup2\n      add\n      mload\n        /* \"Ethereum/Presale.sol\":3193:3211  saleInfor.claimFee */\n      0x16\n        /* \"Ethereum/Presale.sol\":3193:3222  saleInfor.claimFee = datas[6] */\n      sstore\n        /* \"Ethereum/Presale.sol\":3290:3309  saleInfor.baseToken */\n      sload(0x0f)\n        /* \"Ethereum/Presale.sol\":3284:3321  ERC20(saleInfor.baseToken).decimals() */\n      0x40\n      dup1\n      mload\n      shl(0xe0, 0x313ce567)\n      dup2\n      mstore\n      swap1\n      mload\n      sub(shl(0xa0, 0x01), 0x01)\n        /* \"Ethereum/Presale.sol\":3290:3309  saleInfor.baseToken */\n      swap1\n      swap3\n      and\n      swap2\n        /* \"Ethereum/Presale.sol\":3284:3319  ERC20(saleInfor.baseToken).decimals */\n      0x313ce567\n      swap2\n        /* \"Ethereum/Presale.sol\":3284:3321  ERC20(saleInfor.baseToken).decimals() */\n      0x04\n      dup1\n      dup3\n      add\n      swap3\n        /* \"Ethereum/Presale.sol\":3174:3182  datas[5] */\n      0x20\n      swap3\n        /* \"Ethereum/Presale.sol\":3284:3321  ERC20(saleInfor.baseToken).decimals() */\n      swap1\n      swap2\n      swap1\n      dup3\n      swap1\n      sub\n      add\n      dup2\n        /* \"Ethereum/Presale.sol\":3290:3309  saleInfor.baseToken */\n      dup7\n        /* \"Ethereum/Presale.sol\":3284:3321  ERC20(saleInfor.baseToken).decimals() */\n      dup1\n      extcodesize\n      iszero\n      dup1\n      iszero\n      tag_207\n      jumpi\n      0x00\n      dup1\n      revert\n    tag_207:\n      pop\n      gas\n      staticcall\n      iszero\n      dup1\n      iszero\n      tag_209\n      jumpi\n      returndatasize\n      0x00\n      dup1\n      returndatacopy\n      revert(0x00, returndatasize)\n    tag_209:\n      pop\n      pop\n      pop\n      pop\n      mload(0x40)\n      returndatasize\n      not(0x1f)\n      0x1f\n      dup3\n      add\n      and\n      dup3\n      add\n      dup1\n      0x40\n      mstore\n      pop\n      dup2\n      add\n      swap1\n      tag_210\n      swap2\n      swap1\n      tag_153\n      jump\t// in\n    tag_210:\n        /* \"Ethereum/Presale.sol\":3270:3322  10 ** uint256(ERC20(saleInfor.baseToken).decimals()) */\n      tag_211\n      swap1\n        /* \"Ethereum/Presale.sol\":3270:3272  10 */\n      0x0a\n        /* \"Ethereum/Presale.sol\":3270:3322  10 ** uint256(ERC20(saleInfor.baseToken).decimals()) */\n      tag_183\n      jump\t// in\n    tag_211:\n        /* \"Ethereum/Presale.sol\":3259:3267  datas[7] */\n      0xe0\n      dup3\n      add\n      mload\n        /* \"Ethereum/Presale.sol\":3259:3322  datas[7] * 10 ** uint256(ERC20(saleInfor.baseToken).decimals()) */\n      tag_214\n      swap2\n      swap1\n      tag_188\n      jump\t// in\n    tag_214:\n        /* \"Ethereum/Presale.sol\":3233:3248  saleTotalSupply */\n      0x0b\n        /* \"Ethereum/Presale.sol\":3233:3322  saleTotalSupply.hardCap = datas[7] * 10 ** uint256(ERC20(saleInfor.baseToken).decimals()) */\n      sstore\n        /* \"Ethereum/Presale.sol\":3389:3408  saleInfor.baseToken */\n      sload(0x0f)\n        /* \"Ethereum/Presale.sol\":3383:3420  ERC20(saleInfor.baseToken).decimals() */\n      0x40\n      dup1\n      mload\n      shl(0xe0, 0x313ce567)\n      dup2\n      mstore\n      swap1\n      mload\n      sub(shl(0xa0, 0x01), 0x01)\n        /* \"Ethereum/Presale.sol\":3389:3408  saleInfor.baseToken */\n      swap1\n      swap3\n      and\n      swap2\n        /* \"Ethereum/Presale.sol\":3383:3418  ERC20(saleInfor.baseToken).decimals */\n      0x313ce567\n      swap2\n        /* \"Ethereum/Presale.sol\":3383:3420  ERC20(saleInfor.baseToken).decimals() */\n      0x04\n      dup1\n      dup3\n      add\n      swap3\n      0x20\n      swap3\n      swap1\n      swap2\n      swap1\n      dup3\n      swap1\n      sub\n      add\n      dup2\n        /* \"Ethereum/Presale.sol\":3389:3408  saleInfor.baseToken */\n      dup7\n        /* \"Ethereum/Presale.sol\":3383:3420  ERC20(saleInfor.baseToken).decimals() */\n      dup1\n      extcodesize\n      iszero\n      dup1\n      iszero\n      tag_215\n      jumpi\n      0x00\n      dup1\n      revert\n    tag_215:\n      pop\n      gas\n      staticcall\n      iszero\n      dup1\n      iszero\n      tag_217\n      jumpi\n      returndatasize\n      0x00\n      dup1\n      returndatacopy\n      revert(0x00, returndatasize)\n    tag_217:\n      pop\n      pop\n      pop\n      pop\n      mload(0x40)\n      returndatasize\n      not(0x1f)\n      0x1f\n      dup3\n      add\n      and\n      dup3\n      add\n      dup1\n      0x40\n      mstore\n      pop\n      dup2\n      add\n      swap1\n      tag_218\n      swap2\n      swap1\n      tag_153\n      jump\t// in\n    tag_218:\n        /* \"Ethereum/Presale.sol\":3370:3421  10** uint256(ERC20(saleInfor.baseToken).decimals()) */\n      tag_219\n      swap1\n        /* \"Ethereum/Presale.sol\":3370:3372  10 */\n      0x0a\n        /* \"Ethereum/Presale.sol\":3370:3421  10** uint256(ERC20(saleInfor.baseToken).decimals()) */\n      tag_183\n      jump\t// in\n    tag_219:\n        /* \"Ethereum/Presale.sol\":3359:3367  datas[8] */\n      0x0100\n      dup3\n      add\n      mload\n        /* \"Ethereum/Presale.sol\":3359:3421  datas[8] * 10** uint256(ERC20(saleInfor.baseToken).decimals()) */\n      tag_222\n      swap2\n      swap1\n      tag_188\n      jump\t// in\n    tag_222:\n        /* \"Ethereum/Presale.sol\":3333:3356  saleTotalSupply.softCap */\n      0x0c\n        /* \"Ethereum/Presale.sol\":3333:3421  saleTotalSupply.softCap = datas[8] * 10** uint256(ERC20(saleInfor.baseToken).decimals()) */\n      sstore\n        /* \"Ethereum/Presale.sol\":3485:3504  saleInfor.baseToken */\n      sload(0x0f)\n        /* \"Ethereum/Presale.sol\":3468:3472  WETH */\n      sload(0x19)\n        /* \"Ethereum/Presale.sol\":3432:3457  saleInfor.saleIsBaseToken */\n      0x17\n        /* \"Ethereum/Presale.sol\":3432:3505  saleInfor.saleIsBaseToken = address(WETH) == address(saleInfor.baseToken) */\n      dup1\n      sload\n      not(0xff)\n      and\n      sub(shl(0xa0, 0x01), 0x01)\n        /* \"Ethereum/Presale.sol\":3468:3472  WETH */\n      swap3\n      dup4\n      and\n        /* \"Ethereum/Presale.sol\":3485:3504  saleInfor.baseToken */\n      swap3\n      swap1\n      swap4\n      and\n        /* \"Ethereum/Presale.sol\":3460:3505  address(WETH) == address(saleInfor.baseToken) */\n      swap2\n      dup3\n      eq\n        /* \"Ethereum/Presale.sol\":3432:3505  saleInfor.saleIsBaseToken = address(WETH) == address(saleInfor.baseToken) */\n      swap3\n      swap1\n      swap3\n      or\n      swap1\n      swap2\n      sstore\n        /* \"Ethereum/Presale.sol\":3652:3689  ERC20(saleInfor.baseToken).decimals() */\n      0x40\n      dup1\n      mload\n      shl(0xe0, 0x313ce567)\n      dup2\n      mstore\n      swap1\n      mload\n        /* \"Ethereum/Presale.sol\":3652:3687  ERC20(saleInfor.baseToken).decimals */\n      0x313ce567\n      swap2\n        /* \"Ethereum/Presale.sol\":3652:3689  ERC20(saleInfor.baseToken).decimals() */\n      0x04\n      dup1\n      dup3\n      add\n      swap3\n      0x20\n      swap3\n      swap1\n      swap2\n      swap1\n      dup3\n      swap1\n      sub\n      add\n      dup2\n        /* \"Ethereum/Presale.sol\":3485:3504  saleInfor.baseToken */\n      dup7\n        /* \"Ethereum/Presale.sol\":3652:3689  ERC20(saleInfor.baseToken).decimals() */\n      dup1\n      extcodesize\n      iszero\n      dup1\n      iszero\n      tag_223\n      jumpi\n      0x00\n      dup1\n      revert\n    tag_223:\n      pop\n      gas\n      staticcall\n      iszero\n      dup1\n      iszero\n      tag_225\n      jumpi\n      returndatasize\n      0x00\n      dup1\n      returndatacopy\n      revert(0x00, returndatasize)\n    tag_225:\n      pop\n      pop\n      pop\n      pop\n      mload(0x40)\n      returndatasize\n      not(0x1f)\n      0x1f\n      dup3\n      add\n      and\n      dup3\n      add\n      dup1\n      0x40\n      mstore\n      pop\n      dup2\n      add\n      swap1\n      tag_226\n      swap2\n      swap1\n      tag_153\n      jump\t// in\n    tag_226:\n        /* \"Ethereum/Presale.sol\":3639:3690  10** uint256(ERC20(saleInfor.baseToken).decimals()) */\n      tag_227\n      swap1\n        /* \"Ethereum/Presale.sol\":3639:3641  10 */\n      0x0a\n        /* \"Ethereum/Presale.sol\":3639:3690  10** uint256(ERC20(saleInfor.baseToken).decimals()) */\n      tag_183\n      jump\t// in\n    tag_227:\n        /* \"Ethereum/Presale.sol\":3572:3587  saleTotalSupply */\n      0x0b\n        /* \"Ethereum/Presale.sol\":3572:3595  saleTotalSupply.hardCap */\n      sload\n        /* \"Ethereum/Presale.sol\":3547:3567  saleInfor.tokenPrice */\n      sload(0x10)\n        /* \"Ethereum/Presale.sol\":3547:3596  saleInfor.tokenPrice.mul(saleTotalSupply.hardCap) */\n      tag_228\n      swap2\n        /* \"Ethereum/Presale.sol\":3547:3571  saleInfor.tokenPrice.mul */\n      tag_229\n        /* \"Ethereum/Presale.sol\":3547:3596  saleInfor.tokenPrice.mul(saleTotalSupply.hardCap) */\n      jump\t// in\n    tag_228:\n        /* \"Ethereum/Presale.sol\":3547:3691  saleInfor.tokenPrice.mul(saleTotalSupply.hardCap)/\r... */\n      tag_230\n      swap2\n      swap1\n      tag_231\n      jump\t// in\n    tag_230:\n        /* \"Ethereum/Presale.sol\":3516:3544  saleInfor.amountTokenForSale */\n      0x18\n        /* \"Ethereum/Presale.sol\":3516:3691  saleInfor.amountTokenForSale = saleInfor.tokenPrice.mul(saleTotalSupply.hardCap)/\r... */\n      sstore\n      pop\n      pop\n      pop\n      pop\n        /* \"Ethereum/Presale.sol\":2509:3699  function initialSaleInfor(\r... */\n      jump\t// out\n        /* \"Ethereum/Presale.sol\":7255:8118  function userRefundEmergency() external nonReentrant {\r... */\n    tag_75:\n        /* \"Utils/ReentrancyGuard.sol\":1778:1779  2 */\n      0x02\n        /* \"Utils/ReentrancyGuard.sol\":2376:2383  _status */\n      sload(0x00)\n        /* \"Utils/ReentrancyGuard.sol\":2376:2395  _status != _ENTERED */\n      eq\n      iszero\n        /* \"Utils/ReentrancyGuard.sol\":2368:2431  require(_status != _ENTERED, \"ReentrancyGuard: reentrant call\") */\n      tag_233\n      jumpi\n      mload(0x40)\n      shl(0xe5, 0x461bcd)\n      dup2\n      mstore\n      0x04\n      add\n      tag_129\n      swap1\n      tag_146\n      jump\t// in\n    tag_233:\n        /* \"Utils/ReentrancyGuard.sol\":1778:1779  2 */\n      0x02\n        /* \"Utils/ReentrancyGuard.sol\":2509:2516  _status */\n      0x00\n        /* \"Utils/ReentrancyGuard.sol\":2509:2527  _status = _ENTERED */\n      sstore\n        /* \"Ethereum/Presale.sol\":7327:7335  status() */\n      tag_236\n        /* \"Ethereum/Presale.sol\":7327:7333  status */\n      tag_43\n        /* \"Ethereum/Presale.sol\":7327:7335  status() */\n      jump\t// in\n    tag_236:\n        /* \"Ethereum/Presale.sol\":7339:7340  1 */\n      0x01\n        /* \"Ethereum/Presale.sol\":7327:7340  status() == 1 */\n      eq\n        /* \"Ethereum/Presale.sol\":7319:7357  require(status() == 1, \"Sale sucesss\") */\n      tag_237\n      jumpi\n      mload(0x40)\n      shl(0xe5, 0x461bcd)\n      dup2\n      mstore\n        /* \"#utility.yul\":9367:9369   */\n      0x20\n        /* \"Ethereum/Presale.sol\":7319:7357  require(status() == 1, \"Sale sucesss\") */\n      0x04\n      dup3\n      add\n        /* \"#utility.yul\":9349:9370   */\n      mstore\n        /* \"#utility.yul\":9406:9408   */\n      0x0c\n        /* \"#utility.yul\":9386:9404   */\n      0x24\n      dup3\n      add\n        /* \"#utility.yul\":9379:9409   */\n      mstore\n      shl(0xa0, 0x53616c652073756365737373)\n        /* \"#utility.yul\":9425:9443   */\n      0x44\n      dup3\n      add\n        /* \"#utility.yul\":9418:9460   */\n      mstore\n        /* \"#utility.yul\":9477:9495   */\n      0x64\n      add\n        /* \"Ethereum/Presale.sol\":7319:7357  require(status() == 1, \"Sale sucesss\") */\n      tag_129\n        /* \"#utility.yul\":9339:9501   */\n      jump\n        /* \"Ethereum/Presale.sol\":7319:7357  require(status() == 1, \"Sale sucesss\") */\n    tag_237:\n        /* \"Ethereum/Presale.sol\":7411:7442  presaleStatus.totalBaseWithDraw */\n      sload(0x07)\n        /* \"Ethereum/Presale.sol\":7411:7424  presaleStatus */\n      0x04\n        /* \"Ethereum/Presale.sol\":7376:7408  presaleStatus.totalBaseCollected */\n      sload\n        /* \"Ethereum/Presale.sol\":7445:7446  0 */\n      0x00\n      swap2\n        /* \"Ethereum/Presale.sol\":7376:7442  presaleStatus.totalBaseCollected - presaleStatus.totalBaseWithDraw */\n      tag_240\n      swap2\n      tag_241\n      jump\t// in\n    tag_240:\n        /* \"Ethereum/Presale.sol\":7376:7446  presaleStatus.totalBaseCollected - presaleStatus.totalBaseWithDraw > 0 */\n      gt\n        /* \"Ethereum/Presale.sol\":7368:7505  require(presaleStatus.totalBaseCollected - presaleStatus.totalBaseWithDraw > 0, \r... */\n      tag_242\n      jumpi\n      mload(0x40)\n      shl(0xe5, 0x461bcd)\n      dup2\n      mstore\n      0x04\n      add\n      tag_129\n      swap1\n      tag_244\n      jump\t// in\n    tag_242:\n        /* \"Ethereum/Presale.sol\":7553:7563  msg.sender */\n      caller\n        /* \"Ethereum/Presale.sol\":7517:7540  BuyerInfo storage buyer */\n      0x00\n        /* \"Ethereum/Presale.sol\":7543:7564  buyerInfo[msg.sender] */\n      swap1\n      dup2\n      mstore\n        /* \"Ethereum/Presale.sol\":7543:7552  buyerInfo */\n      0x02\n        /* \"Ethereum/Presale.sol\":7543:7564  buyerInfo[msg.sender] */\n      0x20\n      mstore\n      0x40\n      swap1\n      keccak256\n        /* \"Ethereum/Presale.sol\":7583:7600  buyer.baseDeposit */\n      dup1\n      sload\n        /* \"Ethereum/Presale.sol\":7575:7632  require(buyer.baseDeposit > 0, \"You have not bought yet\") */\n      tag_245\n      jumpi\n      mload(0x40)\n      shl(0xe5, 0x461bcd)\n      dup2\n      mstore\n        /* \"#utility.yul\":5696:5698   */\n      0x20\n        /* \"Ethereum/Presale.sol\":7575:7632  require(buyer.baseDeposit > 0, \"You have not bought yet\") */\n      0x04\n      dup3\n      add\n        /* \"#utility.yul\":5678:5699   */\n      mstore\n        /* \"#utility.yul\":5735:5737   */\n      0x17\n        /* \"#utility.yul\":5715:5733   */\n      0x24\n      dup3\n      add\n        /* \"#utility.yul\":5708:5738   */\n      mstore\n      shl(0x4a, 0x165bdd481a185d99481b9bdd08189bdd59da1d081e595d)\n        /* \"#utility.yul\":5754:5772   */\n      0x44\n      dup3\n      add\n        /* \"#utility.yul\":5747:5800   */\n      mstore\n        /* \"#utility.yul\":5817:5835   */\n      0x64\n      add\n        /* \"Ethereum/Presale.sol\":7575:7632  require(buyer.baseDeposit > 0, \"You have not bought yet\") */\n      tag_129\n        /* \"#utility.yul\":5668:5841   */\n      jump\n        /* \"Ethereum/Presale.sol\":7575:7632  require(buyer.baseDeposit > 0, \"You have not bought yet\") */\n    tag_245:\n        /* \"Ethereum/Presale.sol\":7671:7694  buyer.totalBaseWithDraw */\n      0x04\n      dup2\n      add\n      sload\n        /* \"Ethereum/Presale.sol\":7651:7668  buyer.baseDeposit */\n      dup2\n      sload\n        /* \"Ethereum/Presale.sol\":7651:7694  buyer.baseDeposit > buyer.totalBaseWithDraw */\n      gt\n        /* \"Ethereum/Presale.sol\":7643:7713  require(buyer.baseDeposit > buyer.totalBaseWithDraw, \"You refund all\") */\n      tag_248\n      jumpi\n      mload(0x40)\n      shl(0xe5, 0x461bcd)\n      dup2\n      mstore\n        /* \"#utility.yul\":10416:10418   */\n      0x20\n        /* \"Ethereum/Presale.sol\":7643:7713  require(buyer.baseDeposit > buyer.totalBaseWithDraw, \"You refund all\") */\n      0x04\n      dup3\n      add\n        /* \"#utility.yul\":10398:10419   */\n      mstore\n        /* \"#utility.yul\":10455:10457   */\n      0x0e\n        /* \"#utility.yul\":10435:10453   */\n      0x24\n      dup3\n      add\n        /* \"#utility.yul\":10428:10458   */\n      mstore\n      shl(0x92, 0x165bdd481c99599d5b9908185b1b)\n        /* \"#utility.yul\":10474:10492   */\n      0x44\n      dup3\n      add\n        /* \"#utility.yul\":10467:10511   */\n      mstore\n        /* \"#utility.yul\":10528:10546   */\n      0x64\n      add\n        /* \"Ethereum/Presale.sol\":7643:7713  require(buyer.baseDeposit > buyer.totalBaseWithDraw, \"You refund all\") */\n      tag_129\n        /* \"#utility.yul\":10388:10552   */\n      jump\n        /* \"Ethereum/Presale.sol\":7643:7713  require(buyer.baseDeposit > buyer.totalBaseWithDraw, \"You refund all\") */\n    tag_248:\n        /* \"Ethereum/Presale.sol\":7826:7843  buyer.baseDeposit */\n      dup1\n      sload\n        /* \"Ethereum/Presale.sol\":7767:7786  saleInfor.refundFee */\n      sload(0x15)\n        /* \"Ethereum/Presale.sol\":7724:7744  uint256 amountRefund */\n      0x00\n      swap2\n        /* \"Ethereum/Presale.sol\":7747:7897  ((uint256(1000).sub(saleInfor.refundFee))\r... */\n      tag_251\n      swap2\n        /* \"Ethereum/Presale.sol\":7891:7895  1000 */\n      0x03e8\n      swap2\n        /* \"Ethereum/Presale.sol\":7748:7844  (uint256(1000).sub(saleInfor.refundFee))\r... */\n      tag_252\n      swap2\n        /* \"Ethereum/Presale.sol\":7749:7787  uint256(1000).sub(saleInfor.refundFee) */\n      tag_253\n      swap1\n        /* \"Ethereum/Presale.sol\":7891:7895  1000 */\n      dup5\n      swap1\n        /* \"Ethereum/Presale.sol\":7749:7766  uint256(1000).sub */\n      tag_157\n        /* \"Ethereum/Presale.sol\":7749:7787  uint256(1000).sub(saleInfor.refundFee) */\n      jump\t// in\n    tag_253:\n        /* \"Ethereum/Presale.sol\":7748:7825  (uint256(1000).sub(saleInfor.refundFee))\r... */\n      swap1\n      tag_229\n        /* \"Ethereum/Presale.sol\":7748:7844  (uint256(1000).sub(saleInfor.refundFee))\r... */\n      jump\t// in\n    tag_252:\n        /* \"Ethereum/Presale.sol\":7747:7882  ((uint256(1000).sub(saleInfor.refundFee))\r... */\n      swap1\n      tag_254\n        /* \"Ethereum/Presale.sol\":7747:7897  ((uint256(1000).sub(saleInfor.refundFee))\r... */\n      jump\t// in\n    tag_251:\n        /* \"Ethereum/Presale.sol\":7920:7937  buyer.baseDeposit */\n      dup3\n      sload\n        /* \"Ethereum/Presale.sol\":7724:7897  uint256 amountRefund = ((uint256(1000).sub(saleInfor.refundFee))\r... */\n      swap1\n      swap2\n      pop\n        /* \"Ethereum/Presale.sol\":7920:7952  buyer.baseDeposit - amountRefund */\n      tag_255\n      swap1\n        /* \"Ethereum/Presale.sol\":7724:7897  uint256 amountRefund = ((uint256(1000).sub(saleInfor.refundFee))\r... */\n      dup3\n      swap1\n        /* \"Ethereum/Presale.sol\":7920:7952  buyer.baseDeposit - amountRefund */\n      tag_241\n      jump\t// in\n    tag_255:\n        /* \"Ethereum/Presale.sol\":7908:7916  totalFee */\n      0x1d\n      0x00\n        /* \"Ethereum/Presale.sol\":7908:7952  totalFee += buyer.baseDeposit - amountRefund */\n      dup3\n      dup3\n      sload\n      tag_256\n      swap2\n      swap1\n      tag_257\n      jump\t// in\n    tag_256:\n      swap1\n      swap2\n      sstore\n      pop\n      pop\n        /* \"Ethereum/Presale.sol\":7963:7994  presaleStatus.totalBaseWithDraw */\n      0x07\n        /* \"Ethereum/Presale.sol\":7963:8010  presaleStatus.totalBaseWithDraw += amountRefund */\n      dup1\n      sload\n        /* \"Ethereum/Presale.sol\":7998:8010  amountRefund */\n      dup3\n      swap2\n        /* \"Ethereum/Presale.sol\":7963:7994  presaleStatus.totalBaseWithDraw */\n      swap1\n      0x00\n      swap1\n        /* \"Ethereum/Presale.sol\":7963:8010  presaleStatus.totalBaseWithDraw += amountRefund */\n      tag_258\n      swap1\n        /* \"Ethereum/Presale.sol\":7998:8010  amountRefund */\n      dup5\n      swap1\n        /* \"Ethereum/Presale.sol\":7963:8010  presaleStatus.totalBaseWithDraw += amountRefund */\n      tag_257\n      jump\t// in\n    tag_258:\n      swap1\n      swap2\n      sstore\n      pop\n      pop\n        /* \"Ethereum/Presale.sol\":8042:8057  block.timestamp */\n      timestamp\n        /* \"Ethereum/Presale.sol\":8021:8039  buyer.lastWithDraw */\n      0x02\n      dup4\n      add\n        /* \"Ethereum/Presale.sol\":8021:8057  buyer.lastWithDraw = block.timestamp */\n      sstore\n        /* \"Ethereum/Presale.sol\":8068:8110  payable(msg.sender).transfer(amountRefund) */\n      mload(0x40)\n        /* \"Ethereum/Presale.sol\":8076:8086  msg.sender */\n      caller\n      swap1\n        /* \"Ethereum/Presale.sol\":8068:8110  payable(msg.sender).transfer(amountRefund) */\n      dup3\n      iszero\n      0x08fc\n      mul\n      swap1\n        /* \"Ethereum/Presale.sol\":8097:8109  amountRefund */\n      dup4\n      swap1\n        /* \"Ethereum/Presale.sol\":8068:8110  payable(msg.sender).transfer(amountRefund) */\n      0x00\n      dup2\n      dup2\n      dup2\n        /* \"Ethereum/Presale.sol\":8097:8109  amountRefund */\n      dup6\n        /* \"Ethereum/Presale.sol\":8076:8086  msg.sender */\n      dup9\n        /* \"Ethereum/Presale.sol\":8068:8110  payable(msg.sender).transfer(amountRefund) */\n      dup9\n      call\n      swap4\n      pop\n      pop\n      pop\n      pop\n      iszero\n      dup1\n      iszero\n      tag_176\n      jumpi\n      returndatasize\n      0x00\n      dup1\n      returndatacopy\n      revert(0x00, returndatasize)\n        /* \"Ethereum/Presale.sol\":6387:7247  function userClaimEmergency() external nonReentrant {\r... */\n    tag_78:\n        /* \"Utils/ReentrancyGuard.sol\":1778:1779  2 */\n      0x02\n        /* \"Utils/ReentrancyGuard.sol\":2376:2383  _status */\n      sload(0x00)\n        /* \"Utils/ReentrancyGuard.sol\":2376:2395  _status != _ENTERED */\n      eq\n      iszero\n        /* \"Utils/ReentrancyGuard.sol\":2368:2431  require(_status != _ENTERED, \"ReentrancyGuard: reentrant call\") */\n      tag_262\n      jumpi\n      mload(0x40)\n      shl(0xe5, 0x461bcd)\n      dup2\n      mstore\n      0x04\n      add\n      tag_129\n      swap1\n      tag_146\n      jump\t// in\n    tag_262:\n        /* \"Utils/ReentrancyGuard.sol\":1778:1779  2 */\n      0x02\n        /* \"Utils/ReentrancyGuard.sol\":2509:2516  _status */\n      0x00\n        /* \"Utils/ReentrancyGuard.sol\":2509:2527  _status = _ENTERED */\n      sstore\n        /* \"Ethereum/Presale.sol\":6458:6466  status() */\n      tag_265\n        /* \"Ethereum/Presale.sol\":6458:6464  status */\n      tag_43\n        /* \"Ethereum/Presale.sol\":6458:6466  status() */\n      jump\t// in\n    tag_265:\n        /* \"Ethereum/Presale.sol\":6470:6471  1 */\n      0x01\n        /* \"Ethereum/Presale.sol\":6458:6471  status() == 1 */\n      eq\n        /* \"Ethereum/Presale.sol\":6450:6488  require(status() == 1, \"Sale sucesss\") */\n      tag_266\n      jumpi\n      mload(0x40)\n      shl(0xe5, 0x461bcd)\n      dup2\n      mstore\n        /* \"#utility.yul\":9367:9369   */\n      0x20\n        /* \"Ethereum/Presale.sol\":6450:6488  require(status() == 1, \"Sale sucesss\") */\n      0x04\n      dup3\n      add\n        /* \"#utility.yul\":9349:9370   */\n      mstore\n        /* \"#utility.yul\":9406:9408   */\n      0x0c\n        /* \"#utility.yul\":9386:9404   */\n      0x24\n      dup3\n      add\n        /* \"#utility.yul\":9379:9409   */\n      mstore\n      shl(0xa0, 0x53616c652073756365737373)\n        /* \"#utility.yul\":9425:9443   */\n      0x44\n      dup3\n      add\n        /* \"#utility.yul\":9418:9460   */\n      mstore\n        /* \"#utility.yul\":9477:9495   */\n      0x64\n      add\n        /* \"Ethereum/Presale.sol\":6450:6488  require(status() == 1, \"Sale sucesss\") */\n      tag_129\n        /* \"#utility.yul\":9339:9501   */\n      jump\n        /* \"Ethereum/Presale.sol\":6450:6488  require(status() == 1, \"Sale sucesss\") */\n    tag_266:\n        /* \"Ethereum/Presale.sol\":6539:6571  presaleStatus.totalTokenWithDraw */\n      sload(0x06)\n        /* \"Ethereum/Presale.sol\":6508:6536  presaleStatus.totalTokenSold */\n      sload(0x05)\n        /* \"Ethereum/Presale.sol\":6574:6575  0 */\n      0x00\n      swap2\n        /* \"Ethereum/Presale.sol\":6508:6571  presaleStatus.totalTokenSold - presaleStatus.totalTokenWithDraw */\n      tag_268\n      swap2\n      tag_241\n      jump\t// in\n    tag_268:\n        /* \"Ethereum/Presale.sol\":6508:6575  presaleStatus.totalTokenSold - presaleStatus.totalTokenWithDraw > 0 */\n      gt\n        /* \"Ethereum/Presale.sol\":6500:6634  require(presaleStatus.totalTokenSold - presaleStatus.totalTokenWithDraw > 0, \r... */\n      tag_269\n      jumpi\n      mload(0x40)\n      shl(0xe5, 0x461bcd)\n      dup2\n      mstore\n      0x04\n      add\n      tag_129\n      swap1\n      tag_244\n      jump\t// in\n    tag_269:\n        /* \"Ethereum/Presale.sol\":6681:6691  msg.sender */\n      caller\n        /* \"Ethereum/Presale.sol\":6645:6668  BuyerInfo storage buyer */\n      0x00\n        /* \"Ethereum/Presale.sol\":6671:6692  buyerInfo[msg.sender] */\n      swap1\n      dup2\n      mstore\n        /* \"Ethereum/Presale.sol\":6671:6680  buyerInfo */\n      0x02\n        /* \"Ethereum/Presale.sol\":6671:6692  buyerInfo[msg.sender] */\n      0x20\n      mstore\n      0x40\n      swap1\n      keccak256\n        /* \"Ethereum/Presale.sol\":6711:6727  buyer.tokenOwner */\n      0x01\n      dup2\n      add\n      sload\n        /* \"Ethereum/Presale.sol\":6703:6759  require(buyer.tokenOwner > 0, \"You have not bought yet\") */\n      tag_271\n      jumpi\n      mload(0x40)\n      shl(0xe5, 0x461bcd)\n      dup2\n      mstore\n        /* \"#utility.yul\":5696:5698   */\n      0x20\n        /* \"Ethereum/Presale.sol\":6703:6759  require(buyer.tokenOwner > 0, \"You have not bought yet\") */\n      0x04\n      dup3\n      add\n        /* \"#utility.yul\":5678:5699   */\n      mstore\n        /* \"#utility.yul\":5735:5737   */\n      0x17\n        /* \"#utility.yul\":5715:5733   */\n      0x24\n      dup3\n      add\n        /* \"#utility.yul\":5708:5738   */\n      mstore\n      shl(0x4a, 0x165bdd481a185d99481b9bdd08189bdd59da1d081e595d)\n        /* \"#utility.yul\":5754:5772   */\n      0x44\n      dup3\n      add\n        /* \"#utility.yul\":5747:5800   */\n      mstore\n        /* \"#utility.yul\":5817:5835   */\n      0x64\n      add\n        /* \"Ethereum/Presale.sol\":6703:6759  require(buyer.tokenOwner > 0, \"You have not bought yet\") */\n      tag_129\n        /* \"#utility.yul\":5668:5841   */\n      jump\n        /* \"Ethereum/Presale.sol\":6703:6759  require(buyer.tokenOwner > 0, \"You have not bought yet\") */\n    tag_271:\n        /* \"Ethereum/Presale.sol\":6797:6802  buyer */\n      dup1\n        /* \"Ethereum/Presale.sol\":6797:6821  buyer.totalTokenWithDraw */\n      0x03\n      add\n      sload\n        /* \"Ethereum/Presale.sol\":6778:6783  buyer */\n      dup2\n        /* \"Ethereum/Presale.sol\":6778:6794  buyer.tokenOwner */\n      0x01\n      add\n      sload\n        /* \"Ethereum/Presale.sol\":6778:6821  buyer.tokenOwner > buyer.totalTokenWithDraw */\n      gt\n        /* \"Ethereum/Presale.sol\":6770:6840  require(buyer.tokenOwner > buyer.totalTokenWithDraw, \"You claim alll\") */\n      tag_273\n      jumpi\n      mload(0x40)\n      shl(0xe5, 0x461bcd)\n      dup2\n      mstore\n        /* \"#utility.yul\":7525:7527   */\n      0x20\n        /* \"Ethereum/Presale.sol\":6770:6840  require(buyer.tokenOwner > buyer.totalTokenWithDraw, \"You claim alll\") */\n      0x04\n      dup3\n      add\n        /* \"#utility.yul\":7507:7528   */\n      mstore\n        /* \"#utility.yul\":7564:7566   */\n      0x0e\n        /* \"#utility.yul\":7544:7562   */\n      0x24\n      dup3\n      add\n        /* \"#utility.yul\":7537:7567   */\n      mstore\n      shl(0x92, 0x165bdd4818db185a5b48185b1b1b)\n        /* \"#utility.yul\":7583:7601   */\n      0x44\n      dup3\n      add\n        /* \"#utility.yul\":7576:7620   */\n      mstore\n        /* \"#utility.yul\":7637:7655   */\n      0x64\n      add\n        /* \"Ethereum/Presale.sol\":6770:6840  require(buyer.tokenOwner > buyer.totalTokenWithDraw, \"You claim alll\") */\n      tag_129\n        /* \"#utility.yul\":7497:7661   */\n      jump\n        /* \"Ethereum/Presale.sol\":6770:6840  require(buyer.tokenOwner > buyer.totalTokenWithDraw, \"You claim alll\") */\n    tag_273:\n        /* \"Ethereum/Presale.sol\":6851:6870  uint256 amountClaim */\n      0x00\n        /* \"Ethereum/Presale.sol\":6873:7009  ((uint256(1000).sub(saleInfor.claimFee))\r... */\n      tag_276\n        /* \"Ethereum/Presale.sol\":7003:7007  1000 */\n      0x03e8\n        /* \"Ethereum/Presale.sol\":6874:6962  (uint256(1000).sub(saleInfor.claimFee))\r... */\n      tag_252\n        /* \"Ethereum/Presale.sol\":6945:6950  buyer */\n      dup5\n        /* \"Ethereum/Presale.sol\":6945:6961  buyer.tokenOwner */\n      0x01\n      add\n      sload\n        /* \"Ethereum/Presale.sol\":6875:6912  uint256(1000).sub(saleInfor.claimFee) */\n      tag_253\n        /* \"Ethereum/Presale.sol\":6893:6902  saleInfor */\n      0x0d\n        /* \"Ethereum/Presale.sol\":6893:6911  saleInfor.claimFee */\n      0x09\n      add\n      sload\n        /* \"Ethereum/Presale.sol\":6883:6887  1000 */\n      0x03e8\n        /* \"Ethereum/Presale.sol\":6875:6892  uint256(1000).sub */\n      tag_157\n      swap1\n        /* \"Ethereum/Presale.sol\":6875:6912  uint256(1000).sub(saleInfor.claimFee) */\n      swap2\n      swap1\n      0xffffffff\n      and\n      jump\t// in\n        /* \"Ethereum/Presale.sol\":6873:7009  ((uint256(1000).sub(saleInfor.claimFee))\r... */\n    tag_276:\n        /* \"Ethereum/Presale.sol\":6851:7009  uint256 amountClaim = ((uint256(1000).sub(saleInfor.claimFee))\r... */\n      swap1\n      pop\n        /* \"Ethereum/Presale.sol\":7056:7067  amountClaim */\n      dup1\n        /* \"Ethereum/Presale.sol\":7020:7033  presaleStatus */\n      0x04\n        /* \"Ethereum/Presale.sol\":7020:7052  presaleStatus.totalTokenWithDraw */\n      0x02\n      add\n      0x00\n        /* \"Ethereum/Presale.sol\":7020:7067  presaleStatus.totalTokenWithDraw += amountClaim */\n      dup3\n      dup3\n      sload\n      tag_279\n      swap2\n      swap1\n      tag_257\n      jump\t// in\n    tag_279:\n      swap1\n      swap2\n      sstore\n      pop\n      pop\n        /* \"Ethereum/Presale.sol\":7078:7106  saleInfor.amountTokenForSale */\n      0x18\n        /* \"Ethereum/Presale.sol\":7078:7121  saleInfor.amountTokenForSale -= amountClaim */\n      dup1\n      sload\n        /* \"Ethereum/Presale.sol\":7110:7121  amountClaim */\n      dup3\n      swap2\n        /* \"Ethereum/Presale.sol\":7078:7106  saleInfor.amountTokenForSale */\n      swap1\n      0x00\n      swap1\n        /* \"Ethereum/Presale.sol\":7078:7121  saleInfor.amountTokenForSale -= amountClaim */\n      tag_280\n      swap1\n        /* \"Ethereum/Presale.sol\":7110:7121  amountClaim */\n      dup5\n      swap1\n        /* \"Ethereum/Presale.sol\":7078:7121  saleInfor.amountTokenForSale -= amountClaim */\n      tag_241\n      jump\t// in\n    tag_280:\n      swap1\n      swap2\n      sstore\n      pop\n      pop\n        /* \"Ethereum/Presale.sol\":7153:7168  block.timestamp */\n      timestamp\n        /* \"Ethereum/Presale.sol\":7132:7150  buyer.lastWithDraw */\n      0x02\n      dup4\n      add\n        /* \"Ethereum/Presale.sol\":7132:7168  buyer.lastWithDraw = block.timestamp */\n      sstore\n        /* \"Ethereum/Presale.sol\":7185:7204  saleInfor.saleToken */\n      sload(0x0e)\n        /* \"Ethereum/Presale.sol\":7179:7239  ERC20(saleInfor.saleToken).transfer(msg.sender, amountClaim) */\n      mload(0x40)\n      shl(0xe0, 0xa9059cbb)\n      dup2\n      mstore\n        /* \"Ethereum/Presale.sol\":7215:7225  msg.sender */\n      caller\n        /* \"Ethereum/Presale.sol\":7179:7239  ERC20(saleInfor.saleToken).transfer(msg.sender, amountClaim) */\n      0x04\n      dup3\n      add\n        /* \"#utility.yul\":4316:4367   */\n      mstore\n        /* \"#utility.yul\":4383:4401   */\n      0x24\n      dup2\n      add\n        /* \"#utility.yul\":4376:4410   */\n      dup4\n      swap1\n      mstore\n      sub(shl(0xa0, 0x01), 0x01)\n        /* \"Ethereum/Presale.sol\":7185:7204  saleInfor.saleToken */\n      swap1\n      swap2\n      and\n      swap1\n        /* \"Ethereum/Presale.sol\":7179:7214  ERC20(saleInfor.saleToken).transfer */\n      0xa9059cbb\n      swap1\n        /* \"#utility.yul\":4289:4307   */\n      0x44\n      add\n        /* \"Ethereum/Presale.sol\":7179:7239  ERC20(saleInfor.saleToken).transfer(msg.sender, amountClaim) */\n      0x20\n      mload(0x40)\n      dup1\n      dup4\n      sub\n      dup2\n      0x00\n      dup8\n      dup1\n      extcodesize\n      iszero\n      dup1\n      iszero\n      tag_283\n      jumpi\n      0x00\n      dup1\n      revert\n    tag_283:\n      pop\n      gas\n      call\n      iszero\n      dup1\n      iszero\n      tag_285\n      jumpi\n      returndatasize\n      0x00\n      dup1\n      returndatacopy\n      revert(0x00, returndatasize)\n    tag_285:\n      pop\n      pop\n      pop\n      pop\n      mload(0x40)\n      returndatasize\n      not(0x1f)\n      0x1f\n      dup3\n      add\n      and\n      dup3\n      add\n      dup1\n      0x40\n      mstore\n      pop\n      dup2\n      add\n      swap1\n      tag_176\n      swap2\n      swap1\n      tag_174\n      jump\t// in\n        /* \"Ethereum/Presale.sol\":4172:6379  function deposit(uint256 _amount) external payable nonReentrant {\r... */\n    tag_92:\n        /* \"Utils/ReentrancyGuard.sol\":1778:1779  2 */\n      0x02\n        /* \"Utils/ReentrancyGuard.sol\":2376:2383  _status */\n      sload(0x00)\n        /* \"Utils/ReentrancyGuard.sol\":2376:2395  _status != _ENTERED */\n      eq\n      iszero\n        /* \"Utils/ReentrancyGuard.sol\":2368:2431  require(_status != _ENTERED, \"ReentrancyGuard: reentrant call\") */\n      tag_288\n      jumpi\n      mload(0x40)\n      shl(0xe5, 0x461bcd)\n      dup2\n      mstore\n      0x04\n      add\n      tag_129\n      swap1\n      tag_146\n      jump\t// in\n    tag_288:\n        /* \"Utils/ReentrancyGuard.sol\":1778:1779  2 */\n      0x02\n        /* \"Utils/ReentrancyGuard.sol\":2509:2516  _status */\n      0x00\n        /* \"Utils/ReentrancyGuard.sol\":2509:2527  _status = _ENTERED */\n      dup2\n      dup2\n      sstore\n        /* \"Ethereum/Presale.sol\":4343:4353  msg.sender */\n      caller\n        /* \"Ethereum/Presale.sol\":4333:4354  buyerInfo[msg.sender] */\n      dup2\n      mstore\n      0x20\n      swap2\n      swap1\n      swap2\n      mstore\n      0x40\n      dup2\n      keccak256\n      swap1\n        /* \"Ethereum/Presale.sol\":4385:4392  _amount */\n      dup3\n      swap1\n      dup2\n      swap1\n        /* \"Ethereum/Presale.sol\":4498:4502  1000 */\n      0x03e8\n        /* \"Ethereum/Presale.sol\":4521:4530  msg.value */\n      callvalue\n        /* \"Ethereum/Presale.sol\":4521:4548  msg.value >= real_amount_in */\n      dup4\n      gt\n      iszero\n        /* \"Ethereum/Presale.sol\":4513:4579  require(msg.value >= real_amount_in, \"Please provide navite coin\") */\n      tag_291\n      jumpi\n      mload(0x40)\n      shl(0xe5, 0x461bcd)\n      dup2\n      mstore\n        /* \"#utility.yul\":6048:6050   */\n      0x20\n        /* \"Ethereum/Presale.sol\":4513:4579  require(msg.value >= real_amount_in, \"Please provide navite coin\") */\n      0x04\n      dup3\n      add\n        /* \"#utility.yul\":6030:6051   */\n      mstore\n        /* \"#utility.yul\":6087:6089   */\n      0x1a\n        /* \"#utility.yul\":6067:6085   */\n      0x24\n      dup3\n      add\n        /* \"#utility.yul\":6060:6090   */\n      mstore\n        /* \"#utility.yul\":6126:6154   */\n      0x506c656173652070726f76696465206e617669746520636f696e000000000000\n        /* \"#utility.yul\":6106:6124   */\n      0x44\n      dup3\n      add\n        /* \"#utility.yul\":6099:6155   */\n      mstore\n        /* \"#utility.yul\":6172:6190   */\n      0x64\n      add\n        /* \"Ethereum/Presale.sol\":4513:4579  require(msg.value >= real_amount_in, \"Please provide navite coin\") */\n      tag_129\n        /* \"#utility.yul\":6020:6196   */\n      jump\n        /* \"Ethereum/Presale.sol\":4513:4579  require(msg.value >= real_amount_in, \"Please provide navite coin\") */\n    tag_291:\n        /* \"Ethereum/Presale.sol\":4616:4642  saleInfor.minSpendPerBuyer */\n      sload(0x13)\n        /* \"Ethereum/Presale.sol\":4598:4642  real_amount_in >= saleInfor.minSpendPerBuyer */\n      dup4\n      lt\n      iszero\n        /* \"Ethereum/Presale.sol\":4590:4691  require(real_amount_in >= saleInfor.minSpendPerBuyer, \r... */\n      tag_294\n      jumpi\n      mload(0x40)\n      shl(0xe5, 0x461bcd)\n      dup2\n      mstore\n        /* \"#utility.yul\":9022:9024   */\n      0x20\n        /* \"Ethereum/Presale.sol\":4590:4691  require(real_amount_in >= saleInfor.minSpendPerBuyer, \r... */\n      0x04\n      dup3\n      add\n        /* \"#utility.yul\":9004:9025   */\n      mstore\n        /* \"#utility.yul\":9061:9063   */\n      0x10\n        /* \"#utility.yul\":9041:9059   */\n      0x24\n      dup3\n      add\n        /* \"#utility.yul\":9034:9064   */\n      mstore\n      shl(0x80, 0x4e6f7420656e6f7567682076616c7565)\n        /* \"#utility.yul\":9080:9098   */\n      0x44\n      dup3\n      add\n        /* \"#utility.yul\":9073:9119   */\n      mstore\n        /* \"#utility.yul\":9136:9154   */\n      0x64\n      add\n        /* \"Ethereum/Presale.sol\":4590:4691  require(real_amount_in >= saleInfor.minSpendPerBuyer, \r... */\n      tag_129\n        /* \"#utility.yul\":8994:9160   */\n      jump\n        /* \"Ethereum/Presale.sol\":4590:4691  require(real_amount_in >= saleInfor.minSpendPerBuyer, \r... */\n    tag_294:\n        /* \"Ethereum/Presale.sol\":4728:4754  saleInfor.maxSpendPerBuyer */\n      sload(0x14)\n        /* \"Ethereum/Presale.sol\":4710:4754  real_amount_in <= saleInfor.maxSpendPerBuyer */\n      dup4\n      gt\n      iszero\n        /* \"Ethereum/Presale.sol\":4702:4801  require(real_amount_in <= saleInfor.maxSpendPerBuyer, \r... */\n      tag_297\n      jumpi\n      mload(0x40)\n      shl(0xe5, 0x461bcd)\n      dup2\n      mstore\n        /* \"#utility.yul\":8274:8276   */\n      0x20\n        /* \"Ethereum/Presale.sol\":4702:4801  require(real_amount_in <= saleInfor.maxSpendPerBuyer, \r... */\n      0x04\n      dup3\n      add\n        /* \"#utility.yul\":8256:8277   */\n      mstore\n        /* \"#utility.yul\":8313:8315   */\n      0x0e\n        /* \"#utility.yul\":8293:8311   */\n      0x24\n      dup3\n      add\n        /* \"#utility.yul\":8286:8316   */\n      mstore\n      shl(0x90, 0x4f766572666c6f772076616c7565)\n        /* \"#utility.yul\":8332:8350   */\n      0x44\n      dup3\n      add\n        /* \"#utility.yul\":8325:8369   */\n      mstore\n        /* \"#utility.yul\":8386:8404   */\n      0x64\n      add\n        /* \"Ethereum/Presale.sol\":4702:4801  require(real_amount_in <= saleInfor.maxSpendPerBuyer, \r... */\n      tag_129\n        /* \"#utility.yul\":8246:8410   */\n      jump\n        /* \"Ethereum/Presale.sol\":4702:4801  require(real_amount_in <= saleInfor.maxSpendPerBuyer, \r... */\n    tag_297:\n        /* \"Ethereum/Presale.sol\":4816:4835  checkAdminAddress() */\n      tag_300\n        /* \"Ethereum/Presale.sol\":4816:4833  checkAdminAddress */\n      tag_95\n        /* \"Ethereum/Presale.sol\":4816:4835  checkAdminAddress() */\n      jump\t// in\n    tag_300:\n        /* \"Ethereum/Presale.sol\":4812:5078  if(!checkAdminAddress()) {\r... */\n      tag_301\n      jumpi\n        /* \"Ethereum/Presale.sol\":4869:5002  ((fullPercenFee.sub(feeAnyone))\r... */\n      tag_302\n        /* \"Ethereum/Presale.sol\":4988:5001  fullPercenFee */\n      dup2\n        /* \"Ethereum/Presale.sol\":4870:4951  (fullPercenFee.sub(feeAnyone))\r... */\n      tag_252\n        /* \"Ethereum/Presale.sol\":4936:4950  real_amount_in */\n      dup6\n        /* \"Ethereum/Presale.sol\":4871:4899  fullPercenFee.sub(feeAnyone) */\n      tag_253\n        /* \"Ethereum/Presale.sol\":4889:4898  feeAnyone */\n      sload(0x1a)\n        /* \"Ethereum/Presale.sol\":4871:4884  fullPercenFee */\n      dup7\n        /* \"Ethereum/Presale.sol\":4871:4888  fullPercenFee.sub */\n      tag_157\n      swap1\n        /* \"Ethereum/Presale.sol\":4871:4899  fullPercenFee.sub(feeAnyone) */\n      swap2\n      swap1\n      0xffffffff\n      and\n      jump\t// in\n        /* \"Ethereum/Presale.sol\":4869:5002  ((fullPercenFee.sub(feeAnyone))\r... */\n    tag_302:\n        /* \"Ethereum/Presale.sol\":4852:5002  real_amount_in = ((fullPercenFee.sub(feeAnyone))\r... */\n      swap3\n      pop\n        /* \"Ethereum/Presale.sol\":5023:5049  amount_in - real_amount_in */\n      tag_305\n        /* \"Ethereum/Presale.sol\":4852:5002  real_amount_in = ((fullPercenFee.sub(feeAnyone))\r... */\n      dup4\n        /* \"Ethereum/Presale.sol\":5023:5032  amount_in */\n      dup6\n        /* \"Ethereum/Presale.sol\":5023:5049  amount_in - real_amount_in */\n      tag_241\n      jump\t// in\n    tag_305:\n        /* \"Ethereum/Presale.sol\":5017:5049  fee = amount_in - real_amount_in */\n      swap2\n      pop\n        /* \"Ethereum/Presale.sol\":4812:5078  if(!checkAdminAddress()) {\r... */\n    tag_301:\n        /* \"Ethereum/Presale.sol\":5143:5160  buyer.baseDeposit */\n      dup5\n      sload\n        /* \"Ethereum/Presale.sol\":5114:5140  saleInfor.maxSpendPerBuyer */\n      sload(0x14)\n        /* \"Ethereum/Presale.sol\":5088:5111  uint256 remainingByUser */\n      0x00\n      swap2\n        /* \"Ethereum/Presale.sol\":5114:5160  saleInfor.maxSpendPerBuyer - buyer.baseDeposit */\n      tag_306\n      swap2\n      tag_241\n      jump\t// in\n    tag_306:\n        /* \"Ethereum/Presale.sol\":5228:5241  presaleStatus */\n      0x04\n        /* \"Ethereum/Presale.sol\":5228:5260  presaleStatus.totalBaseCollected */\n      sload\n        /* \"Ethereum/Presale.sol\":5197:5225  saleInfor.amountTokenForSale */\n      sload(0x18)\n        /* \"Ethereum/Presale.sol\":5088:5160  uint256 remainingByUser = saleInfor.maxSpendPerBuyer - buyer.baseDeposit */\n      swap2\n      swap3\n      pop\n        /* \"Ethereum/Presale.sol\":5171:5194  uint256 remainingByPool */\n      0x00\n      swap2\n        /* \"Ethereum/Presale.sol\":5197:5260  saleInfor.amountTokenForSale - presaleStatus.totalBaseCollected */\n      tag_307\n      swap2\n        /* \"Ethereum/Presale.sol\":5228:5260  presaleStatus.totalBaseCollected */\n      swap1\n        /* \"Ethereum/Presale.sol\":5197:5260  saleInfor.amountTokenForSale - presaleStatus.totalBaseCollected */\n      tag_241\n      jump\t// in\n    tag_307:\n        /* \"Ethereum/Presale.sol\":5171:5260  uint256 remainingByPool = saleInfor.amountTokenForSale - presaleStatus.totalBaseCollected */\n      swap1\n      pop\n        /* \"Ethereum/Presale.sol\":5271:5288  uint256 allowance */\n      0x00\n        /* \"Ethereum/Presale.sol\":5309:5324  remainingByPool */\n      dup2\n        /* \"Ethereum/Presale.sol\":5291:5306  remainingByUser */\n      dup4\n        /* \"Ethereum/Presale.sol\":5291:5324  remainingByUser > remainingByPool */\n      gt\n        /* \"Ethereum/Presale.sol\":5291:5360  remainingByUser > remainingByPool ? remainingByPool : remainingByUser */\n      tag_308\n      jumpi\n        /* \"Ethereum/Presale.sol\":5345:5360  remainingByUser */\n      dup3\n        /* \"Ethereum/Presale.sol\":5291:5360  remainingByUser > remainingByPool ? remainingByPool : remainingByUser */\n      jump(tag_309)\n    tag_308:\n        /* \"Ethereum/Presale.sol\":5327:5342  remainingByPool */\n      dup2\n        /* \"Ethereum/Presale.sol\":5291:5360  remainingByUser > remainingByPool ? remainingByPool : remainingByUser */\n    tag_309:\n        /* \"Ethereum/Presale.sol\":5271:5360  uint256 allowance = remainingByUser > remainingByPool ? remainingByPool : remainingByUser */\n      swap1\n      pop\n        /* \"Ethereum/Presale.sol\":5397:5406  allowance */\n      dup1\n        /* \"Ethereum/Presale.sol\":5379:5393  real_amount_in */\n      dup7\n        /* \"Ethereum/Presale.sol\":5379:5406  real_amount_in <= allowance */\n      gt\n      iszero\n        /* \"Ethereum/Presale.sol\":5371:5426  require(real_amount_in <= allowance, \"Sale is success\") */\n      tag_310\n      jumpi\n      mload(0x40)\n      shl(0xe5, 0x461bcd)\n      dup2\n      mstore\n        /* \"#utility.yul\":11882:11884   */\n      0x20\n        /* \"Ethereum/Presale.sol\":5371:5426  require(real_amount_in <= allowance, \"Sale is success\") */\n      0x04\n      dup3\n      add\n        /* \"#utility.yul\":11864:11885   */\n      mstore\n        /* \"#utility.yul\":11921:11923   */\n      0x0f\n        /* \"#utility.yul\":11901:11919   */\n      0x24\n      dup3\n      add\n        /* \"#utility.yul\":11894:11924   */\n      mstore\n      shl(0x88, 0x53616c652069732073756363657373)\n        /* \"#utility.yul\":11940:11958   */\n      0x44\n      dup3\n      add\n        /* \"#utility.yul\":11933:11978   */\n      mstore\n        /* \"#utility.yul\":11995:12013   */\n      0x64\n      add\n        /* \"Ethereum/Presale.sol\":5371:5426  require(real_amount_in <= allowance, \"Sale is success\") */\n      tag_129\n        /* \"#utility.yul\":11854:12019   */\n      jump\n        /* \"Ethereum/Presale.sol\":5371:5426  require(real_amount_in <= allowance, \"Sale is success\") */\n    tag_310:\n        /* \"Ethereum/Presale.sol\":5437:5454  uint256 tokenSold */\n      0x00\n        /* \"Ethereum/Presale.sol\":5458:5616  real_amount_in.\r... */\n      tag_313\n        /* \"Ethereum/Presale.sol\":5583:5592  saleInfor */\n      0x0d\n        /* \"Ethereum/Presale.sol\":5583:5602  saleInfor.baseToken */\n      0x02\n      add\n      0x00\n      swap1\n      sload\n      swap1\n      0x0100\n      exp\n      swap1\n      div\n      sub(shl(0xa0, 0x01), 0x01)\n      and\n      sub(shl(0xa0, 0x01), 0x01)\n        /* \"Ethereum/Presale.sol\":5577:5612  ERC20(saleInfor.baseToken).decimals */\n      and\n      0x313ce567\n        /* \"Ethereum/Presale.sol\":5577:5614  ERC20(saleInfor.baseToken).decimals() */\n      mload(0x40)\n      dup2\n      0xffffffff\n      and\n      0xe0\n      shl\n      dup2\n      mstore\n      0x04\n      add\n      0x20\n      mload(0x40)\n      dup1\n      dup4\n      sub\n      dup2\n      dup7\n      dup1\n      extcodesize\n      iszero\n      dup1\n      iszero\n      tag_314\n      jumpi\n      0x00\n      dup1\n      revert\n    tag_314:\n      pop\n      gas\n      staticcall\n      iszero\n      dup1\n      iszero\n      tag_316\n      jumpi\n      returndatasize\n      0x00\n      dup1\n      returndatacopy\n      revert(0x00, returndatasize)\n    tag_316:\n      pop\n      pop\n      pop\n      pop\n      mload(0x40)\n      returndatasize\n      not(0x1f)\n      0x1f\n      dup3\n      add\n      and\n      dup3\n      add\n      dup1\n      0x40\n      mstore\n      pop\n      dup2\n      add\n      swap1\n      tag_317\n      swap2\n      swap1\n      tag_153\n      jump\t// in\n    tag_317:\n        /* \"Ethereum/Presale.sol\":5563:5615  10 ** uint256(ERC20(saleInfor.baseToken).decimals()) */\n      tag_318\n      swap1\n        /* \"Ethereum/Presale.sol\":5563:5565  10 */\n      0x0a\n        /* \"Ethereum/Presale.sol\":5563:5615  10 ** uint256(ERC20(saleInfor.baseToken).decimals()) */\n      tag_183\n      jump\t// in\n    tag_318:\n        /* \"Ethereum/Presale.sol\":5507:5527  saleInfor.tokenPrice */\n      sload(0x10)\n        /* \"Ethereum/Presale.sol\":5458:5528  real_amount_in.\r... */\n      tag_252\n      swap1\n        /* \"Ethereum/Presale.sol\":5458:5472  real_amount_in */\n      dup11\n      swap1\n        /* \"Ethereum/Presale.sol\":5458:5506  real_amount_in.\r... */\n      tag_229\n        /* \"Ethereum/Presale.sol\":5458:5528  real_amount_in.\r... */\n      jump\t// in\n        /* \"Ethereum/Presale.sol\":5458:5616  real_amount_in.\r... */\n    tag_313:\n        /* \"Ethereum/Presale.sol\":5437:5617  uint256 tokenSold = (real_amount_in.\r... */\n      swap1\n      pop\n        /* \"Ethereum/Presale.sol\":5666:5675  amount_in */\n      dup8\n        /* \"Ethereum/Presale.sol\":5645:5650  buyer */\n      dup10\n        /* \"Ethereum/Presale.sol\":5645:5662  buyer.baseDeposit */\n      0x00\n      add\n      0x00\n        /* \"Ethereum/Presale.sol\":5645:5675  buyer.baseDeposit += amount_in */\n      dup3\n      dup3\n      sload\n      tag_320\n      swap2\n      swap1\n      tag_257\n      jump\t// in\n    tag_320:\n      swap3\n      pop\n      pop\n      dup2\n      swap1\n      sstore\n      pop\n        /* \"Ethereum/Presale.sol\":5706:5715  tokenSold */\n      dup1\n        /* \"Ethereum/Presale.sol\":5686:5691  buyer */\n      dup10\n        /* \"Ethereum/Presale.sol\":5686:5702  buyer.tokenOwner */\n      0x01\n      add\n      0x00\n        /* \"Ethereum/Presale.sol\":5686:5715  buyer.tokenOwner += tokenSold */\n      dup3\n      dup3\n      sload\n      tag_321\n      swap2\n      swap1\n      tag_257\n      jump\t// in\n    tag_321:\n      swap1\n      swap2\n      sstore\n      pop\n      pop\n        /* \"Ethereum/Presale.sol\":5726:5739  presaleStatus */\n      0x04\n        /* \"Ethereum/Presale.sol\":5726:5776  presaleStatus.totalBaseCollected += real_amount_in */\n      dup1\n      sload\n        /* \"Ethereum/Presale.sol\":5762:5776  real_amount_in */\n      dup9\n      swap2\n        /* \"Ethereum/Presale.sol\":5726:5739  presaleStatus */\n      swap1\n        /* \"Ethereum/Presale.sol\":5726:5758  presaleStatus.totalBaseCollected */\n      0x00\n      swap1\n        /* \"Ethereum/Presale.sol\":5726:5776  presaleStatus.totalBaseCollected += real_amount_in */\n      tag_322\n      swap1\n        /* \"Ethereum/Presale.sol\":5762:5776  real_amount_in */\n      dup5\n      swap1\n        /* \"Ethereum/Presale.sol\":5726:5776  presaleStatus.totalBaseCollected += real_amount_in */\n      tag_257\n      jump\t// in\n    tag_322:\n      swap1\n      swap2\n      sstore\n      pop\n      pop\n        /* \"Ethereum/Presale.sol\":5787:5815  presaleStatus.totalTokenSold */\n      0x05\n        /* \"Ethereum/Presale.sol\":5787:5828  presaleStatus.totalTokenSold += tokenSold */\n      dup1\n      sload\n        /* \"Ethereum/Presale.sol\":5819:5828  tokenSold */\n      dup3\n      swap2\n        /* \"Ethereum/Presale.sol\":5787:5815  presaleStatus.totalTokenSold */\n      swap1\n      0x00\n      swap1\n        /* \"Ethereum/Presale.sol\":5787:5828  presaleStatus.totalTokenSold += tokenSold */\n      tag_323\n      swap1\n        /* \"Ethereum/Presale.sol\":5819:5828  tokenSold */\n      dup5\n      swap1\n        /* \"Ethereum/Presale.sol\":5787:5828  presaleStatus.totalTokenSold += tokenSold */\n      tag_257\n      jump\t// in\n    tag_323:\n      swap1\n      swap2\n      sstore\n      pop\n      pop\n        /* \"Ethereum/Presale.sol\":5839:5864  presaleStatus.numberBuyer */\n      0x08\n        /* \"Ethereum/Presale.sol\":5839:5866  presaleStatus.numberBuyer++ */\n      dup1\n      sload\n      swap1\n        /* \"Ethereum/Presale.sol\":5839:5864  presaleStatus.numberBuyer */\n      0x00\n        /* \"Ethereum/Presale.sol\":5839:5866  presaleStatus.numberBuyer++ */\n      tag_324\n      dup4\n      tag_325\n      jump\t// in\n    tag_324:\n      swap1\n      swap2\n      sstore\n      pop\n      pop\n        /* \"Ethereum/Presale.sol\":5885:5895  msg.sender */\n      caller\n        /* \"Ethereum/Presale.sol\":5877:5896  userFee[msg.sender] */\n      0x00\n      swap1\n      dup2\n      mstore\n        /* \"Ethereum/Presale.sol\":5877:5884  userFee */\n      0x03\n        /* \"Ethereum/Presale.sol\":5877:5896  userFee[msg.sender] */\n      0x20\n      mstore\n      0x40\n      dup2\n      keccak256\n        /* \"Ethereum/Presale.sol\":5877:5903  userFee[msg.sender] += fee */\n      dup1\n      sload\n        /* \"Ethereum/Presale.sol\":5900:5903  fee */\n      dup9\n      swap3\n        /* \"Ethereum/Presale.sol\":5877:5896  userFee[msg.sender] */\n      swap1\n        /* \"Ethereum/Presale.sol\":5877:5903  userFee[msg.sender] += fee */\n      tag_326\n      swap1\n        /* \"Ethereum/Presale.sol\":5900:5903  fee */\n      dup5\n      swap1\n        /* \"Ethereum/Presale.sol\":5877:5903  userFee[msg.sender] += fee */\n      tag_257\n      jump\t// in\n    tag_326:\n      swap3\n      pop\n      pop\n      dup2\n      swap1\n      sstore\n      pop\n        /* \"Ethereum/Presale.sol\":5926:5929  fee */\n      dup6\n        /* \"Ethereum/Presale.sol\":5914:5922  totalFee */\n      0x1d\n      0x00\n        /* \"Ethereum/Presale.sol\":5914:5929  totalFee += fee */\n      dup3\n      dup3\n      sload\n      tag_327\n      swap2\n      swap1\n      tag_257\n      jump\t// in\n    tag_327:\n      swap1\n      swap2\n      sstore\n      pop\n      pop\n        /* \"Ethereum/Presale.sol\":5945:5970  saleInfor.saleIsBaseToken */\n      and(0xff, sload(0x17))\n        /* \"Ethereum/Presale.sol\":5945:6007  saleInfor.saleIsBaseToken && real_amount_in + fee <= msg.value */\n      dup1\n      iszero\n      tag_328\n      jumpi\n      pop\n        /* \"Ethereum/Presale.sol\":5998:6007  msg.value */\n      callvalue\n        /* \"Ethereum/Presale.sol\":5974:5994  real_amount_in + fee */\n      tag_329\n        /* \"Ethereum/Presale.sol\":5991:5994  fee */\n      dup8\n        /* \"Ethereum/Presale.sol\":5974:5988  real_amount_in */\n      dup10\n        /* \"Ethereum/Presale.sol\":5974:5994  real_amount_in + fee */\n      tag_257\n      jump\t// in\n    tag_329:\n        /* \"Ethereum/Presale.sol\":5974:6007  real_amount_in + fee <= msg.value */\n      gt\n      iszero\n        /* \"Ethereum/Presale.sol\":5945:6007  saleInfor.saleIsBaseToken && real_amount_in + fee <= msg.value */\n    tag_328:\n        /* \"Ethereum/Presale.sol\":5942:6098  if(saleInfor.saleIsBaseToken && real_amount_in + fee <= msg.value) {\r... */\n      iszero\n      tag_330\n      jumpi\n        /* \"Ethereum/Presale.sol\":6032:6042  msg.sender */\n      caller\n        /* \"Ethereum/Presale.sol\":6024:6086  payable(msg.sender).transfer(msg.value - real_amount_in - fee) */\n      0x08fc\n        /* \"Ethereum/Presale.sol\":6082:6085  fee */\n      dup8\n        /* \"Ethereum/Presale.sol\":6053:6079  msg.value - real_amount_in */\n      tag_331\n        /* \"Ethereum/Presale.sol\":6065:6079  real_amount_in */\n      dup11\n        /* \"Ethereum/Presale.sol\":6053:6062  msg.value */\n      callvalue\n        /* \"Ethereum/Presale.sol\":6053:6079  msg.value - real_amount_in */\n      tag_241\n      jump\t// in\n    tag_331:\n        /* \"Ethereum/Presale.sol\":6053:6085  msg.value - real_amount_in - fee */\n      tag_332\n      swap2\n      swap1\n      tag_241\n      jump\t// in\n    tag_332:\n        /* \"Ethereum/Presale.sol\":6024:6086  payable(msg.sender).transfer(msg.value - real_amount_in - fee) */\n      mload(0x40)\n      dup2\n      iszero\n      swap1\n      swap3\n      mul\n      swap2\n      0x00\n      dup2\n      dup2\n      dup2\n      dup6\n      dup9\n      dup9\n      call\n      swap4\n      pop\n      pop\n      pop\n      pop\n      iszero\n      dup1\n      iszero\n      tag_334\n      jumpi\n      returndatasize\n      0x00\n      dup1\n      returndatacopy\n      revert(0x00, returndatasize)\n    tag_334:\n      pop\n        /* \"Ethereum/Presale.sol\":5942:6098  if(saleInfor.saleIsBaseToken && real_amount_in + fee <= msg.value) {\r... */\n    tag_330:\n        /* \"Ethereum/Presale.sol\":6113:6138  saleInfor.saleIsBaseToken */\n      and(0xff, sload(0x17))\n        /* \"Ethereum/Presale.sol\":6109:6360  if(!saleInfor.saleIsBaseToken) {\r... */\n      tag_336\n      jumpi\n        /* \"Ethereum/Presale.sol\":6213:6232  saleInfor.baseToken */\n      sload(0x0f)\n        /* \"Ethereum/Presale.sol\":6155:6348  TransferHelper.safeTransferFrom(\r... */\n      tag_336\n      swap1\n      sub(shl(0xa0, 0x01), 0x01)\n        /* \"Ethereum/Presale.sol\":6213:6232  saleInfor.baseToken */\n      and\n        /* \"Ethereum/Presale.sol\":6252:6262  msg.sender */\n      caller\n        /* \"Ethereum/Presale.sol\":6289:6293  this */\n      address\n        /* \"Ethereum/Presale.sol\":6313:6333  real_amount_in + fee */\n      tag_337\n        /* \"Ethereum/Presale.sol\":6330:6333  fee */\n      dup11\n        /* \"Ethereum/Presale.sol\":6313:6327  real_amount_in */\n      dup13\n        /* \"Ethereum/Presale.sol\":6313:6333  real_amount_in + fee */\n      tag_257\n      jump\t// in\n    tag_337:\n        /* \"Ethereum/Presale.sol\":6155:6186  TransferHelper.safeTransferFrom */\n      tag_338\n        /* \"Ethereum/Presale.sol\":6155:6348  TransferHelper.safeTransferFrom(\r... */\n      jump\t// in\n    tag_336:\n      pop\n      pop\n        /* \"Utils/ReentrancyGuard.sol\":1734:1735  1 */\n      0x01\n        /* \"Utils/ReentrancyGuard.sol\":2688:2695  _status */\n      0x00\n        /* \"Utils/ReentrancyGuard.sol\":2688:2710  _status = _NOT_ENTERED */\n      sstore\n      pop\n      pop\n      pop\n      pop\n      pop\n      pop\n      pop\n      pop\n        /* \"Ethereum/Presale.sol\":4172:6379  function deposit(uint256 _amount) external payable nonReentrant {\r... */\n      jump\t// out\n        /* \"Ethereum/Presale.sol\":4054:4164  function checkAdminAddress() public view returns(bool) {\r... */\n    tag_95:\n        /* \"Ethereum/Presale.sol\":4103:4107  bool */\n      0x00\n        /* \"Ethereum/Presale.sol\":4127:4156  admins.contains(_msgSender()) */\n      tag_340\n        /* \"Ethereum/Presale.sol\":4127:4133  admins */\n      0x1b\n        /* \"Utils/Context.sol\":736:746  msg.sender */\n      caller\n        /* \"Ethereum/Presale.sol\":4127:4142  admins.contains */\n      tag_342\n        /* \"Ethereum/Presale.sol\":4127:4156  admins.contains(_msgSender()) */\n      jump\t// in\n    tag_340:\n        /* \"Ethereum/Presale.sol\":4120:4156  return admins.contains(_msgSender()) */\n      swap1\n      pop\n        /* \"Ethereum/Presale.sol\":4054:4164  function checkAdminAddress() public view returns(bool) {\r... */\n      swap1\n      jump\t// out\n        /* \"Ethereum/Presale.sol\":9518:11091  function userClaimOrRefundWhenSaleSuccess(bool isClaim) external {\r... */\n    tag_108:\n        /* \"Ethereum/Presale.sol\":9658:9665  isClaim */\n      dup1\n        /* \"Ethereum/Presale.sol\":9655:11084  if(isClaim){\r... */\n      iszero\n      tag_344\n      jumpi\n        /* \"Ethereum/Presale.sol\":9720:9752  presaleStatus.totalTokenWithDraw */\n      sload(0x06)\n        /* \"Ethereum/Presale.sol\":9689:9717  presaleStatus.totalTokenSold */\n      sload(0x05)\n        /* \"Ethereum/Presale.sol\":9755:9756  0 */\n      0x00\n      swap2\n        /* \"Ethereum/Presale.sol\":9689:9752  presaleStatus.totalTokenSold - presaleStatus.totalTokenWithDraw */\n      tag_345\n      swap2\n      tag_241\n      jump\t// in\n    tag_345:\n        /* \"Ethereum/Presale.sol\":9689:9756  presaleStatus.totalTokenSold - presaleStatus.totalTokenWithDraw > 0 */\n      gt\n        /* \"Ethereum/Presale.sol\":9681:9820  require(presaleStatus.totalTokenSold - presaleStatus.totalTokenWithDraw > 0, \r... */\n      tag_346\n      jumpi\n      mload(0x40)\n      shl(0xe5, 0x461bcd)\n      dup2\n      mstore\n      0x04\n      add\n      tag_129\n      swap1\n      tag_244\n      jump\t// in\n    tag_346:\n        /* \"Ethereum/Presale.sol\":9871:9881  msg.sender */\n      caller\n        /* \"Ethereum/Presale.sol\":9835:9858  BuyerInfo storage buyer */\n      0x00\n        /* \"Ethereum/Presale.sol\":9861:9882  buyerInfo[msg.sender] */\n      swap1\n      dup2\n      mstore\n        /* \"Ethereum/Presale.sol\":9861:9870  buyerInfo */\n      0x02\n        /* \"Ethereum/Presale.sol\":9861:9882  buyerInfo[msg.sender] */\n      0x20\n      mstore\n      0x40\n      swap1\n      keccak256\n        /* \"Ethereum/Presale.sol\":9924:9948  buyer.totalTokenWithDraw */\n      0x03\n      dup2\n      add\n      sload\n        /* \"Ethereum/Presale.sol\":9905:9921  buyer.tokenOwner */\n      0x01\n      dup3\n      add\n      sload\n        /* \"Ethereum/Presale.sol\":9905:9948  buyer.tokenOwner > buyer.totalTokenWithDraw */\n      gt\n        /* \"Ethereum/Presale.sol\":9897:9989  require(buyer.tokenOwner > buyer.totalTokenWithDraw, \"You claim all or have not bought yet\") */\n      tag_348\n      jumpi\n      mload(0x40)\n      shl(0xe5, 0x461bcd)\n      dup2\n      mstore\n        /* \"#utility.yul\":8617:8619   */\n      0x20\n        /* \"Ethereum/Presale.sol\":9897:9989  require(buyer.tokenOwner > buyer.totalTokenWithDraw, \"You claim all or have not bought yet\") */\n      0x04\n      dup3\n      add\n        /* \"#utility.yul\":8599:8620   */\n      mstore\n        /* \"#utility.yul\":8656:8658   */\n      0x24\n        /* \"#utility.yul\":8636:8654   */\n      dup1\n      dup3\n      add\n        /* \"#utility.yul\":8629:8659   */\n      mstore\n        /* \"#utility.yul\":8695:8729   */\n      0x596f7520636c61696d20616c6c206f722068617665206e6f7420626f75676874\n        /* \"#utility.yul\":8675:8693   */\n      0x44\n      dup3\n      add\n        /* \"#utility.yul\":8668:8730   */\n      mstore\n      shl(0xe2, 0x081e595d)\n        /* \"#utility.yul\":8746:8764   */\n      0x64\n      dup3\n      add\n        /* \"#utility.yul\":8739:8773   */\n      mstore\n        /* \"#utility.yul\":8790:8809   */\n      0x84\n      add\n        /* \"Ethereum/Presale.sol\":9897:9989  require(buyer.tokenOwner > buyer.totalTokenWithDraw, \"You claim all or have not bought yet\") */\n      tag_129\n        /* \"#utility.yul\":8589:8815   */\n      jump\n        /* \"Ethereum/Presale.sol\":9897:9989  require(buyer.tokenOwner > buyer.totalTokenWithDraw, \"You claim all or have not bought yet\") */\n    tag_348:\n        /* \"Ethereum/Presale.sol\":10010:10029  saleInfor.saleToken */\n      sload(0x0e)\n      0x01\n        /* \"Ethereum/Presale.sol\":10052:10068  buyer.tokenOwner */\n      dup3\n      add\n      sload\n        /* \"Ethereum/Presale.sol\":10004:10069  ERC20(saleInfor.saleToken).transfer(msg.sender, buyer.tokenOwner) */\n      mload(0x40)\n      shl(0xe0, 0xa9059cbb)\n      dup2\n      mstore\n        /* \"Ethereum/Presale.sol\":10040:10050  msg.sender */\n      caller\n        /* \"Ethereum/Presale.sol\":10004:10069  ERC20(saleInfor.saleToken).transfer(msg.sender, buyer.tokenOwner) */\n      0x04\n      dup3\n      add\n        /* \"#utility.yul\":4316:4367   */\n      mstore\n        /* \"#utility.yul\":4383:4401   */\n      0x24\n      dup2\n      add\n        /* \"#utility.yul\":4376:4410   */\n      swap2\n      swap1\n      swap2\n      mstore\n      sub(shl(0xa0, 0x01), 0x01)\n        /* \"Ethereum/Presale.sol\":10010:10029  saleInfor.saleToken */\n      swap1\n      swap2\n      and\n      swap1\n        /* \"Ethereum/Presale.sol\":10004:10039  ERC20(saleInfor.saleToken).transfer */\n      0xa9059cbb\n      swap1\n        /* \"#utility.yul\":4289:4307   */\n      0x44\n      add\n        /* \"Ethereum/Presale.sol\":10004:10069  ERC20(saleInfor.saleToken).transfer(msg.sender, buyer.tokenOwner) */\n      0x20\n      mload(0x40)\n      dup1\n      dup4\n      sub\n      dup2\n      0x00\n      dup8\n      dup1\n      extcodesize\n      iszero\n      dup1\n      iszero\n      tag_352\n      jumpi\n      0x00\n      dup1\n      revert\n    tag_352:\n      pop\n      gas\n      call\n      iszero\n      dup1\n      iszero\n      tag_354\n      jumpi\n      returndatasize\n      0x00\n      dup1\n      returndatacopy\n      revert(0x00, returndatasize)\n    tag_354:\n      pop\n      pop\n      pop\n      pop\n      mload(0x40)\n      returndatasize\n      not(0x1f)\n      0x1f\n      dup3\n      add\n      and\n      dup3\n      add\n      dup1\n      0x40\n      mstore\n      pop\n      dup2\n      add\n      swap1\n      tag_355\n      swap2\n      swap1\n      tag_174\n      jump\t// in\n    tag_355:\n      pop\n        /* \"Ethereum/Presale.sol\":10120:10136  buyer.tokenOwner */\n      0x01\n      dup2\n      add\n      sload\n        /* \"Ethereum/Presale.sol\":10084:10116  presaleStatus.totalTokenWithDraw */\n      0x06\n        /* \"Ethereum/Presale.sol\":10084:10136  presaleStatus.totalTokenWithDraw += buyer.tokenOwner */\n      dup1\n      sload\n        /* \"Ethereum/Presale.sol\":10084:10116  presaleStatus.totalTokenWithDraw */\n      0x00\n      swap1\n        /* \"Ethereum/Presale.sol\":10084:10136  presaleStatus.totalTokenWithDraw += buyer.tokenOwner */\n      tag_356\n      swap1\n        /* \"Ethereum/Presale.sol\":10120:10136  buyer.tokenOwner */\n      dup5\n      swap1\n        /* \"Ethereum/Presale.sol\":10084:10136  presaleStatus.totalTokenWithDraw += buyer.tokenOwner */\n      tag_257\n      jump\t// in\n    tag_356:\n      swap1\n      swap2\n      sstore\n      pop\n      pop\n        /* \"Ethereum/Presale.sol\":10183:10199  buyer.tokenOwner */\n      0x01\n      dup2\n      add\n      sload\n        /* \"Ethereum/Presale.sol\":10151:10179  saleInfor.amountTokenForSale */\n      0x18\n        /* \"Ethereum/Presale.sol\":10151:10199  saleInfor.amountTokenForSale -= buyer.tokenOwner */\n      dup1\n      sload\n        /* \"Ethereum/Presale.sol\":10151:10179  saleInfor.amountTokenForSale */\n      0x00\n      swap1\n        /* \"Ethereum/Presale.sol\":10151:10199  saleInfor.amountTokenForSale -= buyer.tokenOwner */\n      tag_357\n      swap1\n        /* \"Ethereum/Presale.sol\":10183:10199  buyer.tokenOwner */\n      dup5\n      swap1\n        /* \"Ethereum/Presale.sol\":10151:10199  saleInfor.amountTokenForSale -= buyer.tokenOwner */\n      tag_241\n      jump\t// in\n    tag_357:\n      swap1\n      swap2\n      sstore\n      pop\n      pop\n        /* \"Ethereum/Presale.sol\":10242:10258  buyer.tokenOwner */\n      0x01\n      dup2\n      add\n      sload\n        /* \"Ethereum/Presale.sol\":10214:10238  buyer.totalTokenWithDraw */\n      0x03\n      dup3\n      add\n        /* \"Ethereum/Presale.sol\":10214:10258  buyer.totalTokenWithDraw += buyer.tokenOwner */\n      dup1\n      sload\n        /* \"Ethereum/Presale.sol\":10214:10238  buyer.totalTokenWithDraw */\n      0x00\n      swap1\n        /* \"Ethereum/Presale.sol\":10214:10258  buyer.totalTokenWithDraw += buyer.tokenOwner */\n      tag_358\n      swap1\n        /* \"Ethereum/Presale.sol\":10242:10258  buyer.tokenOwner */\n      dup5\n      swap1\n        /* \"Ethereum/Presale.sol\":10214:10258  buyer.totalTokenWithDraw += buyer.tokenOwner */\n      tag_257\n      jump\t// in\n    tag_358:\n      swap1\n      swap2\n      sstore\n      pop\n      pop\n        /* \"Ethereum/Presale.sol\":10293:10294  0 */\n      0x00\n        /* \"Ethereum/Presale.sol\":10273:10294  buyer.baseDeposit = 0 */\n      dup1\n      dup3\n      sstore\n        /* \"Ethereum/Presale.sol\":10309:10325  buyer.tokenOwner */\n      0x01\n      dup3\n      add\n        /* \"Ethereum/Presale.sol\":10309:10329  buyer.tokenOwner = 0 */\n      sstore\n        /* \"Ethereum/Presale.sol\":10365:10380  block.timestamp */\n      timestamp\n        /* \"Ethereum/Presale.sol\":10344:10362  buyer.lastWithDraw */\n      0x02\n      swap1\n      swap2\n      add\n        /* \"Ethereum/Presale.sol\":10344:10380  buyer.lastWithDraw = block.timestamp */\n      sstore\n        /* \"Ethereum/Presale.sol\":11270:11321  payable(msg.sender).transfer(address(this).balance) */\n      pop\n        /* \"Ethereum/Presale.sol\":11221:11329  function backToken() external payable {\r... */\n      jump\t// out\n        /* \"Ethereum/Presale.sol\":9655:11084  if(isClaim){\r... */\n    tag_344:\n        /* \"Ethereum/Presale.sol\":10468:10499  presaleStatus.totalBaseWithDraw */\n      sload(0x07)\n        /* \"Ethereum/Presale.sol\":10468:10481  presaleStatus */\n      0x04\n        /* \"Ethereum/Presale.sol\":10433:10465  presaleStatus.totalBaseCollected */\n      sload\n        /* \"Ethereum/Presale.sol\":10502:10503  0 */\n      0x00\n      swap2\n        /* \"Ethereum/Presale.sol\":10433:10499  presaleStatus.totalBaseCollected - presaleStatus.totalBaseWithDraw */\n      tag_360\n      swap2\n      tag_241\n      jump\t// in\n    tag_360:\n        /* \"Ethereum/Presale.sol\":10433:10503  presaleStatus.totalBaseCollected - presaleStatus.totalBaseWithDraw > 0 */\n      gt\n        /* \"Ethereum/Presale.sol\":10425:10567  require(presaleStatus.totalBaseCollected - presaleStatus.totalBaseWithDraw > 0, \r... */\n      tag_361\n      jumpi\n      mload(0x40)\n      shl(0xe5, 0x461bcd)\n      dup2\n      mstore\n      0x04\n      add\n      tag_129\n      swap1\n      tag_244\n      jump\t// in\n    tag_361:\n        /* \"Ethereum/Presale.sol\":10619:10629  msg.sender */\n      caller\n        /* \"Ethereum/Presale.sol\":10583:10606  BuyerInfo storage buyer */\n      0x00\n        /* \"Ethereum/Presale.sol\":10609:10630  buyerInfo[msg.sender] */\n      swap1\n      dup2\n      mstore\n        /* \"Ethereum/Presale.sol\":10609:10618  buyerInfo */\n      0x02\n        /* \"Ethereum/Presale.sol\":10609:10630  buyerInfo[msg.sender] */\n      0x20\n      mstore\n      0x40\n      swap1\n      keccak256\n        /* \"Ethereum/Presale.sol\":10653:10670  buyer.baseDeposit */\n      dup1\n      sload\n        /* \"Ethereum/Presale.sol\":10645:10716  require(buyer.baseDeposit > 0, \"You refund all or have not bought yet\") */\n      tag_363\n      jumpi\n      mload(0x40)\n      shl(0xe5, 0x461bcd)\n      dup2\n      mstore\n        /* \"#utility.yul\":7868:7870   */\n      0x20\n        /* \"Ethereum/Presale.sol\":10645:10716  require(buyer.baseDeposit > 0, \"You refund all or have not bought yet\") */\n      0x04\n      dup3\n      add\n        /* \"#utility.yul\":7850:7871   */\n      mstore\n        /* \"#utility.yul\":7907:7909   */\n      0x25\n        /* \"#utility.yul\":7887:7905   */\n      0x24\n      dup3\n      add\n        /* \"#utility.yul\":7880:7910   */\n      mstore\n        /* \"#utility.yul\":7946:7980   */\n      0x596f7520726566756e6420616c6c206f722068617665206e6f7420626f756768\n        /* \"#utility.yul\":7926:7944   */\n      0x44\n      dup3\n      add\n        /* \"#utility.yul\":7919:7981   */\n      mstore\n      shl(0xda, 0x1d081e595d)\n        /* \"#utility.yul\":7997:8015   */\n      0x64\n      dup3\n      add\n        /* \"#utility.yul\":7990:8025   */\n      mstore\n        /* \"#utility.yul\":8042:8061   */\n      0x84\n      add\n        /* \"Ethereum/Presale.sol\":10645:10716  require(buyer.baseDeposit > 0, \"You refund all or have not bought yet\") */\n      tag_129\n        /* \"#utility.yul\":7840:8067   */\n      jump\n        /* \"Ethereum/Presale.sol\":10645:10716  require(buyer.baseDeposit > 0, \"You refund all or have not bought yet\") */\n    tag_363:\n        /* \"Ethereum/Presale.sol\":10754:10771  buyer.baseDeposit */\n      dup1\n      sload\n        /* \"Ethereum/Presale.sol\":10798:10830  buyer.baseDeposit - amountRefund */\n      tag_366\n        /* \"Ethereum/Presale.sol\":10754:10771  buyer.baseDeposit */\n      dup2\n      dup1\n        /* \"Ethereum/Presale.sol\":10798:10830  buyer.baseDeposit - amountRefund */\n      tag_241\n      jump\t// in\n    tag_366:\n        /* \"Ethereum/Presale.sol\":10786:10794  totalFee */\n      0x1d\n      0x00\n        /* \"Ethereum/Presale.sol\":10786:10830  totalFee += buyer.baseDeposit - amountRefund */\n      dup3\n      dup3\n      sload\n      tag_367\n      swap2\n      swap1\n      tag_257\n      jump\t// in\n    tag_367:\n      swap1\n      swap2\n      sstore\n      pop\n      pop\n        /* \"Ethereum/Presale.sol\":10845:10876  presaleStatus.totalBaseWithDraw */\n      0x07\n        /* \"Ethereum/Presale.sol\":10845:10892  presaleStatus.totalBaseWithDraw += amountRefund */\n      dup1\n      sload\n        /* \"Ethereum/Presale.sol\":10880:10892  amountRefund */\n      dup3\n      swap2\n        /* \"Ethereum/Presale.sol\":10845:10876  presaleStatus.totalBaseWithDraw */\n      swap1\n      0x00\n      swap1\n        /* \"Ethereum/Presale.sol\":10845:10892  presaleStatus.totalBaseWithDraw += amountRefund */\n      tag_368\n      swap1\n        /* \"Ethereum/Presale.sol\":10880:10892  amountRefund */\n      dup5\n      swap1\n        /* \"Ethereum/Presale.sol\":10845:10892  presaleStatus.totalBaseWithDraw += amountRefund */\n      tag_257\n      jump\t// in\n    tag_368:\n      swap1\n      swap2\n      sstore\n      pop\n      pop\n        /* \"Ethereum/Presale.sol\":10928:10929  0 */\n      0x00\n        /* \"Ethereum/Presale.sol\":10907:10929  buyer.baseDeposit  = 0 */\n      dup1\n      dup4\n      sstore\n        /* \"Ethereum/Presale.sol\":10944:10960  buyer.tokenOwner */\n      0x01\n      dup4\n      add\n        /* \"Ethereum/Presale.sol\":10944:10964  buyer.tokenOwner = 0 */\n      dup2\n      swap1\n      sstore\n        /* \"Ethereum/Presale.sol\":11000:11015  block.timestamp */\n      timestamp\n        /* \"Ethereum/Presale.sol\":10979:10997  buyer.lastWithDraw */\n      0x02\n      dup5\n      add\n        /* \"Ethereum/Presale.sol\":10979:11015  buyer.lastWithDraw = block.timestamp */\n      sstore\n        /* \"Ethereum/Presale.sol\":11030:11072  payable(msg.sender).transfer(amountRefund) */\n      mload(0x40)\n        /* \"Ethereum/Presale.sol\":11038:11048  msg.sender */\n      caller\n      swap2\n        /* \"Ethereum/Presale.sol\":11030:11072  payable(msg.sender).transfer(amountRefund) */\n      dup4\n      iszero\n      0x08fc\n      mul\n      swap2\n        /* \"Ethereum/Presale.sol\":11059:11071  amountRefund */\n      dup5\n      swap2\n        /* \"Ethereum/Presale.sol\":11030:11072  payable(msg.sender).transfer(amountRefund) */\n      dup2\n        /* \"Ethereum/Presale.sol\":10928:10929  0 */\n      dup2\n        /* \"Ethereum/Presale.sol\":11030:11072  payable(msg.sender).transfer(amountRefund) */\n      dup2\n        /* \"Ethereum/Presale.sol\":11059:11071  amountRefund */\n      dup6\n        /* \"Ethereum/Presale.sol\":11038:11048  msg.sender */\n      dup9\n        /* \"Ethereum/Presale.sol\":11030:11072  payable(msg.sender).transfer(amountRefund) */\n      dup9\n      call\n      swap4\n      pop\n      pop\n      pop\n      pop\n      iszero\n      dup1\n      iszero\n      tag_370\n      jumpi\n      returndatasize\n      0x00\n      dup1\n      returndatacopy\n      revert(0x00, returndatasize)\n    tag_370:\n      pop\n        /* \"Ethereum/Presale.sol\":10410:11084  {\r... */\n      pop\n      pop\n        /* \"Ethereum/Presale.sol\":9518:11091  function userClaimOrRefundWhenSaleSuccess(bool isClaim) external {\r... */\n      pop\n      jump\t// out\n        /* \"Utils/Ownable.sol\":1972:2173  function transferOwnership(address newOwner) public virtual onlyOwner {\r... */\n    tag_112:\n        /* \"Utils/Ownable.sol\":1136:1142  _owner */\n      and(sub(shl(0xa0, 0x01), 0x01), sload(0x01))\n        /* \"Utils/Context.sol\":736:746  msg.sender */\n      caller\n        /* \"Utils/Ownable.sol\":1283:1306  owner() == _msgSender() */\n      eq\n        /* \"Utils/Ownable.sol\":1275:1343  require(owner() == _msgSender(), \"Ownable: caller is not the owner\") */\n      tag_374\n      jumpi\n      mload(0x40)\n      shl(0xe5, 0x461bcd)\n      dup2\n      mstore\n        /* \"#utility.yul\":10055:10057   */\n      0x20\n        /* \"Utils/Ownable.sol\":1275:1343  require(owner() == _msgSender(), \"Ownable: caller is not the owner\") */\n      0x04\n      dup3\n      add\n        /* \"#utility.yul\":10037:10058   */\n      dup2\n      swap1\n      mstore\n        /* \"#utility.yul\":10074:10092   */\n      0x24\n      dup3\n      add\n        /* \"#utility.yul\":10067:10097   */\n      mstore\n        /* \"#utility.yul\":10133:10167   */\n      0x4f776e61626c653a2063616c6c6572206973206e6f7420746865206f776e6572\n        /* \"#utility.yul\":10113:10131   */\n      0x44\n      dup3\n      add\n        /* \"#utility.yul\":10106:10168   */\n      mstore\n        /* \"#utility.yul\":10185:10203   */\n      0x64\n      add\n        /* \"Utils/Ownable.sol\":1275:1343  require(owner() == _msgSender(), \"Ownable: caller is not the owner\") */\n      tag_129\n        /* \"#utility.yul\":10027:10209   */\n      jump\n        /* \"Utils/Ownable.sol\":1275:1343  require(owner() == _msgSender(), \"Ownable: caller is not the owner\") */\n    tag_374:\n      sub(shl(0xa0, 0x01), 0x01)\n        /* \"Utils/Ownable.sol\":2061:2083  newOwner != address(0) */\n      dup2\n      and\n        /* \"Utils/Ownable.sol\":2053:2126  require(newOwner != address(0), \"Ownable: new owner is the zero address\") */\n      tag_377\n      jumpi\n      mload(0x40)\n      shl(0xe5, 0x461bcd)\n      dup2\n      mstore\n        /* \"#utility.yul\":6759:6761   */\n      0x20\n        /* \"Utils/Ownable.sol\":2053:2126  require(newOwner != address(0), \"Ownable: new owner is the zero address\") */\n      0x04\n      dup3\n      add\n        /* \"#utility.yul\":6741:6762   */\n      mstore\n        /* \"#utility.yul\":6798:6800   */\n      0x26\n        /* \"#utility.yul\":6778:6796   */\n      0x24\n      dup3\n      add\n        /* \"#utility.yul\":6771:6801   */\n      mstore\n        /* \"#utility.yul\":6837:6871   */\n      0x4f776e61626c653a206e6577206f776e657220697320746865207a65726f2061\n        /* \"#utility.yul\":6817:6835   */\n      0x44\n      dup3\n      add\n        /* \"#utility.yul\":6810:6872   */\n      mstore\n      shl(0xd0, 0x646472657373)\n        /* \"#utility.yul\":6888:6906   */\n      0x64\n      dup3\n      add\n        /* \"#utility.yul\":6881:6917   */\n      mstore\n        /* \"#utility.yul\":6934:6953   */\n      0x84\n      add\n        /* \"Utils/Ownable.sol\":2053:2126  require(newOwner != address(0), \"Ownable: new owner is the zero address\") */\n      tag_129\n        /* \"#utility.yul\":6731:6959   */\n      jump\n        /* \"Utils/Ownable.sol\":2053:2126  require(newOwner != address(0), \"Ownable: new owner is the zero address\") */\n    tag_377:\n        /* \"Utils/Ownable.sol\":2137:2165  _transferOwnership(newOwner) */\n      tag_136\n        /* \"Utils/Ownable.sol\":2156:2164  newOwner */\n      dup2\n        /* \"Utils/Ownable.sol\":2137:2155  _transferOwnership */\n      tag_133\n        /* \"Utils/Ownable.sol\":2137:2165  _transferOwnership(newOwner) */\n      jump\t// in\n        /* \"Utils/EnumerableSet.sol\":8259:8411  function add(AddressSet storage set, address value) internal returns (bool) {\r... */\n    tag_118:\n        /* \"Utils/EnumerableSet.sol\":8329:8333  bool */\n      0x00\n        /* \"Utils/EnumerableSet.sol\":8353:8403  _add(set._inner, bytes32(uint256(uint160(value)))) */\n      tag_383\n        /* \"Utils/EnumerableSet.sol\":8358:8361  set */\n      dup4\n      sub(shl(0xa0, 0x01), 0x01)\n        /* \"Utils/EnumerableSet.sol\":8378:8401  uint256(uint160(value)) */\n      dup5\n      and\n        /* \"Utils/EnumerableSet.sol\":8353:8357  _add */\n      tag_384\n        /* \"Utils/EnumerableSet.sol\":8353:8403  _add(set._inner, bytes32(uint256(uint160(value)))) */\n      jump\t// in\n    tag_383:\n        /* \"Utils/EnumerableSet.sol\":8346:8403  return _add(set._inner, bytes32(uint256(uint160(value)))) */\n      swap1\n      pop\n        /* \"Utils/EnumerableSet.sol\":8259:8411  function add(AddressSet storage set, address value) internal returns (bool) {\r... */\n    tag_382:\n      swap3\n      swap2\n      pop\n      pop\n      jump\t// out\n        /* \"Utils/Ownable.sol\":2333:2524  function _transferOwnership(address newOwner) internal virtual {\r... */\n    tag_133:\n        /* \"Utils/Ownable.sol\":2426:2432  _owner */\n      0x01\n      dup1\n      sload\n      sub(shl(0xa0, 0x01), 0x01)\n        /* \"Utils/Ownable.sol\":2443:2460  _owner = newOwner */\n      dup4\n      dup2\n      and\n      not(sub(shl(0xa0, 0x01), 0x01))\n      dup4\n      and\n      dup2\n      or\n      swap1\n      swap4\n      sstore\n        /* \"Utils/Ownable.sol\":2476:2516  OwnershipTransferred(oldOwner, newOwner) */\n      mload(0x40)\n        /* \"Utils/Ownable.sol\":2426:2432  _owner */\n      swap2\n      and\n      swap2\n        /* \"Utils/Ownable.sol\":2443:2460  _owner = newOwner */\n      swap1\n        /* \"Utils/Ownable.sol\":2426:2432  _owner */\n      dup3\n      swap1\n        /* \"Utils/Ownable.sol\":2476:2516  OwnershipTransferred(oldOwner, newOwner) */\n      0x8be0079c531659141344cd1fd0a4f28419497f9722a3daafe3b4186f6b6457e0\n      swap1\n        /* \"Utils/Ownable.sol\":2407:2423  address oldOwner */\n      0x00\n      swap1\n        /* \"Utils/Ownable.sol\":2476:2516  OwnershipTransferred(oldOwner, newOwner) */\n      log3\n        /* \"Utils/Ownable.sol\":2396:2524  {\r... */\n      pop\n        /* \"Utils/Ownable.sol\":2333:2524  function _transferOwnership(address newOwner) internal virtual {\r... */\n      pop\n      jump\t// out\n        /* \"Utils/SafeMath.sol\":3228:3326  function sub(uint256 a, uint256 b) internal pure returns (uint256) {\r... */\n    tag_157:\n        /* \"Utils/SafeMath.sol\":3286:3293  uint256 */\n      0x00\n        /* \"Utils/SafeMath.sol\":3313:3318  a - b */\n      tag_383\n        /* \"Utils/SafeMath.sol\":3317:3318  b */\n      dup3\n        /* \"Utils/SafeMath.sol\":3313:3314  a */\n      dup5\n        /* \"Utils/SafeMath.sol\":3313:3318  a - b */\n      tag_241\n      jump\t// in\n        /* \"Utils/SafeMath.sol\":3585:3683  function mul(uint256 a, uint256 b) internal pure returns (uint256) {\r... */\n    tag_229:\n        /* \"Utils/SafeMath.sol\":3643:3650  uint256 */\n      0x00\n        /* \"Utils/SafeMath.sol\":3670:3675  a * b */\n      tag_383\n        /* \"Utils/SafeMath.sol\":3674:3675  b */\n      dup3\n        /* \"Utils/SafeMath.sol\":3670:3671  a */\n      dup5\n        /* \"Utils/SafeMath.sol\":3670:3675  a * b */\n      tag_188\n      jump\t// in\n        /* \"Utils/SafeMath.sol\":3984:4082  function div(uint256 a, uint256 b) internal pure returns (uint256) {\r... */\n    tag_254:\n        /* \"Utils/SafeMath.sol\":4042:4049  uint256 */\n      0x00\n        /* \"Utils/SafeMath.sol\":4069:4074  a / b */\n      tag_383\n        /* \"Utils/SafeMath.sol\":4073:4074  b */\n      dup3\n        /* \"Utils/SafeMath.sol\":4069:4070  a */\n      dup5\n        /* \"Utils/SafeMath.sol\":4069:4074  a / b */\n      tag_231\n      jump\t// in\n        /* \"Utils/TransferHelper.sol\":1073:1503  function safeTransferFrom(\r... */\n    tag_338:\n        /* \"Utils/TransferHelper.sol\":1279:1330  abi.encodeWithSelector(0x23b872dd, from, to, value) */\n      0x40\n      dup1\n      mload\n      sub(shl(0xa0, 0x01), 0x01)\n        /* \"#utility.yul\":4679:4694   */\n      dup6\n      dup2\n      and\n        /* \"Utils/TransferHelper.sol\":1279:1330  abi.encodeWithSelector(0x23b872dd, from, to, value) */\n      0x24\n      dup4\n      add\n        /* \"#utility.yul\":4661:4695   */\n      mstore\n        /* \"#utility.yul\":4731:4746   */\n      dup5\n      dup2\n      and\n        /* \"#utility.yul\":4711:4729   */\n      0x44\n      dup4\n      add\n        /* \"#utility.yul\":4704:4747   */\n      mstore\n        /* \"#utility.yul\":4763:4781   */\n      0x64\n      dup1\n      dup4\n      add\n        /* \"#utility.yul\":4756:4790   */\n      dup6\n      swap1\n      mstore\n        /* \"Utils/TransferHelper.sol\":1279:1330  abi.encodeWithSelector(0x23b872dd, from, to, value) */\n      dup4\n      mload\n      dup1\n      dup5\n      sub\n      swap1\n      swap2\n      add\n      dup2\n      mstore\n        /* \"#utility.yul\":4596:4614   */\n      0x84\n      swap1\n      swap3\n      add\n        /* \"Utils/TransferHelper.sol\":1279:1330  abi.encodeWithSelector(0x23b872dd, from, to, value) */\n      dup4\n      mstore\n      0x20\n      dup3\n      add\n      dup1\n      mload\n      sub(shl(0xe0, 0x01), 0x01)\n      and\n      shl(0xe0, 0x23b872dd)\n      or\n      swap1\n      mstore\n        /* \"Utils/TransferHelper.sol\":1254:1341  token.call(\r... */\n      swap2\n      mload\n      0x00\n      swap3\n      dup4\n      swap3\n        /* \"Utils/TransferHelper.sol\":1254:1264  token.call */\n      swap1\n      dup9\n      and\n      swap2\n        /* \"Utils/TransferHelper.sol\":1254:1341  token.call(\r... */\n      tag_396\n      swap2\n        /* \"Utils/TransferHelper.sol\":1279:1330  abi.encodeWithSelector(0x23b872dd, from, to, value) */\n      swap1\n        /* \"Utils/TransferHelper.sol\":1254:1341  token.call(\r... */\n      tag_397\n      jump\t// in\n    tag_396:\n      0x00\n      mload(0x40)\n      dup1\n      dup4\n      sub\n      dup2\n      0x00\n      dup7\n      gas\n      call\n      swap2\n      pop\n      pop\n      returndatasize\n      dup1\n      0x00\n      dup2\n      eq\n      tag_400\n      jumpi\n      mload(0x40)\n      swap2\n      pop\n      and(add(returndatasize, 0x3f), not(0x1f))\n      dup3\n      add\n      0x40\n      mstore\n      returndatasize\n      dup3\n      mstore\n      returndatasize\n      0x00\n      0x20\n      dup5\n      add\n      returndatacopy\n      jump(tag_399)\n    tag_400:\n      0x60\n      swap2\n      pop\n    tag_399:\n      pop\n        /* \"Utils/TransferHelper.sol\":1218:1341  (bool success, bytes memory data) = token.call(\r... */\n      swap2\n      pop\n      swap2\n      pop\n        /* \"Utils/TransferHelper.sol\":1374:1381  success */\n      dup2\n        /* \"Utils/TransferHelper.sol\":1374:1431  success && (data.length == 0 || abi.decode(data, (bool))) */\n      dup1\n      iszero\n      tag_403\n      jumpi\n      pop\n        /* \"Utils/TransferHelper.sol\":1386:1397  data.length */\n      dup1\n      mload\n        /* \"Utils/TransferHelper.sol\":1386:1402  data.length == 0 */\n      iszero\n      dup1\n        /* \"Utils/TransferHelper.sol\":1386:1430  data.length == 0 || abi.decode(data, (bool)) */\n      tag_403\n      jumpi\n      pop\n        /* \"Utils/TransferHelper.sol\":1417:1421  data */\n      dup1\n        /* \"Utils/TransferHelper.sol\":1406:1430  abi.decode(data, (bool)) */\n      dup1\n      0x20\n      add\n      swap1\n      mload\n      dup2\n      add\n      swap1\n      tag_403\n      swap2\n      swap1\n      tag_174\n      jump\t// in\n    tag_403:\n        /* \"Utils/TransferHelper.sol\":1352:1495  require(\r... */\n      tag_404\n      jumpi\n      mload(0x40)\n      shl(0xe5, 0x461bcd)\n      dup2\n      mstore\n        /* \"#utility.yul\":10759:10761   */\n      0x20\n        /* \"Utils/TransferHelper.sol\":1352:1495  require(\r... */\n      0x04\n      dup3\n      add\n        /* \"#utility.yul\":10741:10762   */\n      mstore\n        /* \"#utility.yul\":10798:10800   */\n      0x24\n        /* \"#utility.yul\":10778:10796   */\n      dup1\n      dup3\n      add\n        /* \"#utility.yul\":10771:10801   */\n      mstore\n        /* \"#utility.yul\":10837:10871   */\n      0x5472616e7366657248656c7065723a205452414e534645525f46524f4d5f4641\n        /* \"#utility.yul\":10817:10835   */\n      0x44\n      dup3\n      add\n        /* \"#utility.yul\":10810:10872   */\n      mstore\n      shl(0xe2, 0x12531151)\n        /* \"#utility.yul\":10888:10906   */\n      0x64\n      dup3\n      add\n        /* \"#utility.yul\":10881:10915   */\n      mstore\n        /* \"#utility.yul\":10932:10951   */\n      0x84\n      add\n        /* \"Utils/TransferHelper.sol\":1352:1495  require(\r... */\n      tag_129\n        /* \"#utility.yul\":10731:10957   */\n      jump\n        /* \"Utils/TransferHelper.sol\":1352:1495  require(\r... */\n    tag_404:\n        /* \"Utils/TransferHelper.sol\":1207:1503  {\r... */\n      pop\n      pop\n        /* \"Utils/TransferHelper.sol\":1073:1503  function safeTransferFrom(\r... */\n      pop\n      pop\n      pop\n      pop\n      jump\t// out\n        /* \"Utils/EnumerableSet.sol\":8831:8998  function contains(AddressSet storage set, address value) internal view returns (bool) {\r... */\n    tag_342:\n      sub(shl(0xa0, 0x01), 0x01)\n        /* \"Utils/EnumerableSet.sol\":8965:8988  uint256(uint160(value)) */\n      dup2\n      and\n        /* \"Utils/EnumerableSet.sol\":8911:8915  bool */\n      0x00\n        /* \"Utils/EnumerableSet.sol\":4367:4386  set._indexes[value] */\n      swap1\n      dup2\n      mstore\n        /* \"Utils/EnumerableSet.sol\":4367:4379  set._indexes */\n      0x01\n      dup4\n      add\n        /* \"Utils/EnumerableSet.sol\":4367:4386  set._indexes[value] */\n      0x20\n      mstore\n      0x40\n      dup2\n      keccak256\n      sload\n        /* \"Utils/EnumerableSet.sol\":4367:4391  set._indexes[value] != 0 */\n      iszero\n      iszero\n        /* \"Utils/EnumerableSet.sol\":8935:8990  _contains(set._inner, bytes32(uint256(uint160(value)))) */\n      tag_383\n        /* \"Utils/EnumerableSet.sol\":4270:4399  function _contains(Set storage set, bytes32 value) private view returns (bool) {\r... */\n      jump\n        /* \"Utils/EnumerableSet.sol\":2174:2588  function _add(Set storage set, bytes32 value) private returns (bool) {\r... */\n    tag_384:\n        /* \"Utils/EnumerableSet.sol\":2237:2241  bool */\n      0x00\n        /* \"Utils/EnumerableSet.sol\":4367:4386  set._indexes[value] */\n      dup2\n      dup2\n      mstore\n        /* \"Utils/EnumerableSet.sol\":4367:4379  set._indexes */\n      0x01\n      dup4\n      add\n        /* \"Utils/EnumerableSet.sol\":4367:4386  set._indexes[value] */\n      0x20\n      mstore\n      0x40\n      dup2\n      keccak256\n      sload\n        /* \"Utils/EnumerableSet.sol\":2254:2581  if (!_contains(set, value)) {\r... */\n      tag_412\n      jumpi\n      pop\n        /* \"Utils/EnumerableSet.sol\":2297:2320  set._values.push(value) */\n      dup2\n      sload\n      0x01\n      dup2\n      dup2\n      add\n      dup5\n      sstore\n        /* \"Utils/EnumerableSet.sol\":2297:2308  set._values */\n      0x00\n        /* \"Utils/EnumerableSet.sol\":2297:2320  set._values.push(value) */\n      dup5\n      dup2\n      mstore\n      0x20\n      dup1\n      dup3\n      keccak256\n      swap1\n      swap4\n      add\n      dup5\n      swap1\n      sstore\n        /* \"Utils/EnumerableSet.sol\":2480:2498  set._values.length */\n      dup5\n      sload\n        /* \"Utils/EnumerableSet.sol\":2458:2477  set._indexes[value] */\n      dup5\n      dup3\n      mstore\n        /* \"Utils/EnumerableSet.sol\":2458:2470  set._indexes */\n      dup3\n      dup7\n      add\n        /* \"Utils/EnumerableSet.sol\":2458:2477  set._indexes[value] */\n      swap1\n      swap4\n      mstore\n      0x40\n      swap1\n      keccak256\n        /* \"Utils/EnumerableSet.sol\":2458:2498  set._indexes[value] = set._values.length */\n      swap2\n      swap1\n      swap2\n      sstore\n        /* \"Utils/EnumerableSet.sol\":2513:2524  return true */\n      jump(tag_382)\n        /* \"Utils/EnumerableSet.sol\":2254:2581  if (!_contains(set, value)) {\r... */\n    tag_412:\n      pop\n        /* \"Utils/EnumerableSet.sol\":2564:2569  false */\n      0x00\n        /* \"Utils/EnumerableSet.sol\":2557:2569  return false */\n      jump(tag_382)\n        /* \"#utility.yul\":14:261   */\n    tag_52:\n        /* \"#utility.yul\":73:79   */\n      0x00\n        /* \"#utility.yul\":126:128   */\n      0x20\n        /* \"#utility.yul\":114:123   */\n      dup3\n        /* \"#utility.yul\":105:112   */\n      dup5\n        /* \"#utility.yul\":101:124   */\n      sub\n        /* \"#utility.yul\":97:129   */\n      slt\n        /* \"#utility.yul\":94:96   */\n      iszero\n      tag_418\n      jumpi\n        /* \"#utility.yul\":142:143   */\n      0x00\n        /* \"#utility.yul\":139:140   */\n      dup1\n        /* \"#utility.yul\":132:144   */\n      revert\n        /* \"#utility.yul\":94:96   */\n    tag_418:\n        /* \"#utility.yul\":181:190   */\n      dup2\n        /* \"#utility.yul\":168:191   */\n      calldataload\n        /* \"#utility.yul\":200:231   */\n      tag_419\n        /* \"#utility.yul\":225:230   */\n      dup2\n        /* \"#utility.yul\":200:231   */\n      tag_420\n      jump\t// in\n    tag_419:\n        /* \"#utility.yul\":250:255   */\n      swap4\n        /* \"#utility.yul\":84:261   */\n      swap3\n      pop\n      pop\n      pop\n      jump\t// out\n        /* \"#utility.yul\":266:1527   */\n    tag_71:\n        /* \"#utility.yul\":409:415   */\n      0x00\n        /* \"#utility.yul\":417:423   */\n      dup1\n        /* \"#utility.yul\":425:431   */\n      0x00\n        /* \"#utility.yul\":433:439   */\n      dup1\n        /* \"#utility.yul\":464:467   */\n      0x0180\n        /* \"#utility.yul\":508:510   */\n      dup1\n        /* \"#utility.yul\":496:505   */\n      dup7\n        /* \"#utility.yul\":487:494   */\n      dup9\n        /* \"#utility.yul\":483:506   */\n      sub\n        /* \"#utility.yul\":479:511   */\n      slt\n        /* \"#utility.yul\":476:478   */\n      iszero\n      tag_422\n      jumpi\n        /* \"#utility.yul\":524:525   */\n      0x00\n        /* \"#utility.yul\":521:522   */\n      dup1\n        /* \"#utility.yul\":514:526   */\n      revert\n        /* \"#utility.yul\":476:478   */\n    tag_422:\n        /* \"#utility.yul\":563:572   */\n      dup6\n        /* \"#utility.yul\":550:573   */\n      calldataload\n        /* \"#utility.yul\":582:613   */\n      tag_423\n        /* \"#utility.yul\":607:612   */\n      dup2\n        /* \"#utility.yul\":582:613   */\n      tag_420\n      jump\t// in\n    tag_423:\n        /* \"#utility.yul\":632:637   */\n      swap5\n      pop\n        /* \"#utility.yul\":656:658   */\n      0x20\n        /* \"#utility.yul\":695:713   */\n      dup7\n      dup2\n      add\n        /* \"#utility.yul\":682:714   */\n      calldataload\n        /* \"#utility.yul\":723:756   */\n      tag_424\n        /* \"#utility.yul\":682:714   */\n      dup2\n        /* \"#utility.yul\":723:756   */\n      tag_420\n      jump\t// in\n    tag_424:\n        /* \"#utility.yul\":775:782   */\n      swap5\n      pop\n        /* \"#utility.yul\":834:836   */\n      0x40\n        /* \"#utility.yul\":819:837   */\n      dup8\n      add\n        /* \"#utility.yul\":806:838   */\n      calldataload\n        /* \"#utility.yul\":847:880   */\n      tag_425\n        /* \"#utility.yul\":806:838   */\n      dup2\n        /* \"#utility.yul\":847:880   */\n      tag_420\n      jump\t// in\n    tag_425:\n        /* \"#utility.yul\":899:906   */\n      swap4\n      pop\n        /* \"#utility.yul\":944:947   */\n      0x7f\n        /* \"#utility.yul\":929:948   */\n      dup8\n      add\n        /* \"#utility.yul\":925:958   */\n      dup9\n      sgt\n        /* \"#utility.yul\":915:917   */\n      tag_426\n      jumpi\n        /* \"#utility.yul\":972:973   */\n      0x00\n        /* \"#utility.yul\":969:970   */\n      dup1\n        /* \"#utility.yul\":962:974   */\n      revert\n        /* \"#utility.yul\":915:917   */\n    tag_426:\n        /* \"#utility.yul\":1005:1007   */\n      0x40\n        /* \"#utility.yul\":999:1008   */\n      mload\n        /* \"#utility.yul\":1047:1050   */\n      0x0120\n        /* \"#utility.yul\":1039:1045   */\n      dup2\n        /* \"#utility.yul\":1035:1051   */\n      add\n        /* \"#utility.yul\":1117:1123   */\n      dup2\n        /* \"#utility.yul\":1105:1115   */\n      dup2\n        /* \"#utility.yul\":1102:1124   */\n      lt\n        /* \"#utility.yul\":1081:1099   */\n      0xffffffffffffffff\n        /* \"#utility.yul\":1069:1079   */\n      dup3\n        /* \"#utility.yul\":1066:1100   */\n      gt\n        /* \"#utility.yul\":1063:1125   */\n      or\n        /* \"#utility.yul\":1060:1062   */\n      iszero\n      tag_428\n      jumpi\n        /* \"#utility.yul\":1128:1146   */\n      tag_428\n      tag_429\n      jump\t// in\n    tag_428:\n        /* \"#utility.yul\":1164:1166   */\n      0x40\n        /* \"#utility.yul\":1157:1179   */\n      mstore\n        /* \"#utility.yul\":1199:1205   */\n      dup1\n        /* \"#utility.yul\":1240:1242   */\n      0x60\n        /* \"#utility.yul\":1225:1243   */\n      dup10\n      add\n        /* \"#utility.yul\":1258:1276   */\n      dup5\n      dup11\n      add\n        /* \"#utility.yul\":1255:1286   */\n      dup12\n      lt\n        /* \"#utility.yul\":1252:1254   */\n      iszero\n      tag_430\n      jumpi\n        /* \"#utility.yul\":1299:1300   */\n      0x00\n        /* \"#utility.yul\":1296:1297   */\n      dup1\n        /* \"#utility.yul\":1289:1301   */\n      revert\n        /* \"#utility.yul\":1252:1254   */\n    tag_430:\n        /* \"#utility.yul\":1321:1322   */\n      0x00\n        /* \"#utility.yul\":1312:1322   */\n      swap5\n      pop\n        /* \"#utility.yul\":1331:1496   */\n    tag_431:\n        /* \"#utility.yul\":1345:1349   */\n      0x09\n        /* \"#utility.yul\":1342:1343   */\n      dup6\n        /* \"#utility.yul\":1339:1350   */\n      lt\n        /* \"#utility.yul\":1331:1496   */\n      iszero\n      tag_433\n      jumpi\n        /* \"#utility.yul\":1404:1421   */\n      dup1\n      calldataload\n        /* \"#utility.yul\":1392:1422   */\n      dup3\n      mstore\n        /* \"#utility.yul\":1365:1366   */\n      0x01\n        /* \"#utility.yul\":1358:1367   */\n      swap5\n      swap1\n      swap5\n      add\n      swap4\n        /* \"#utility.yul\":1442:1454   */\n      swap1\n      dup4\n      add\n      swap1\n        /* \"#utility.yul\":1474:1486   */\n      dup4\n      add\n        /* \"#utility.yul\":1331:1496   */\n      jump(tag_431)\n    tag_433:\n        /* \"#utility.yul\":1335:1338   */\n      pop\n      pop\n        /* \"#utility.yul\":1515:1521   */\n      dup1\n        /* \"#utility.yul\":1505:1521   */\n      swap4\n      pop\n      pop\n      pop\n      pop\n        /* \"#utility.yul\":444:1527   */\n      swap3\n      swap6\n      swap2\n      swap5\n      pop\n      swap3\n      pop\n      jump\t// out\n        /* \"#utility.yul\":1532:1773   */\n    tag_107:\n        /* \"#utility.yul\":1588:1594   */\n      0x00\n        /* \"#utility.yul\":1641:1643   */\n      0x20\n        /* \"#utility.yul\":1629:1638   */\n      dup3\n        /* \"#utility.yul\":1620:1627   */\n      dup5\n        /* \"#utility.yul\":1616:1639   */\n      sub\n        /* \"#utility.yul\":1612:1644   */\n      slt\n        /* \"#utility.yul\":1609:1611   */\n      iszero\n      tag_435\n      jumpi\n        /* \"#utility.yul\":1657:1658   */\n      0x00\n        /* \"#utility.yul\":1654:1655   */\n      dup1\n        /* \"#utility.yul\":1647:1659   */\n      revert\n        /* \"#utility.yul\":1609:1611   */\n    tag_435:\n        /* \"#utility.yul\":1696:1705   */\n      dup2\n        /* \"#utility.yul\":1683:1706   */\n      calldataload\n        /* \"#utility.yul\":1715:1743   */\n      tag_419\n        /* \"#utility.yul\":1737:1742   */\n      dup2\n        /* \"#utility.yul\":1715:1743   */\n      tag_437\n      jump\t// in\n        /* \"#utility.yul\":1778:2023   */\n    tag_174:\n        /* \"#utility.yul\":1845:1851   */\n      0x00\n        /* \"#utility.yul\":1898:1900   */\n      0x20\n        /* \"#utility.yul\":1886:1895   */\n      dup3\n        /* \"#utility.yul\":1877:1884   */\n      dup5\n        /* \"#utility.yul\":1873:1896   */\n      sub\n        /* \"#utility.yul\":1869:1901   */\n      slt\n        /* \"#utility.yul\":1866:1868   */\n      iszero\n      tag_439\n      jumpi\n        /* \"#utility.yul\":1914:1915   */\n      0x00\n        /* \"#utility.yul\":1911:1912   */\n      dup1\n        /* \"#utility.yul\":1904:1916   */\n      revert\n        /* \"#utility.yul\":1866:1868   */\n    tag_439:\n        /* \"#utility.yul\":1946:1955   */\n      dup2\n        /* \"#utility.yul\":1940:1956   */\n      mload\n        /* \"#utility.yul\":1965:1993   */\n      tag_419\n        /* \"#utility.yul\":1987:1992   */\n      dup2\n        /* \"#utility.yul\":1965:1993   */\n      tag_437\n      jump\t// in\n        /* \"#utility.yul\":2028:2208   */\n    tag_91:\n        /* \"#utility.yul\":2087:2093   */\n      0x00\n        /* \"#utility.yul\":2140:2142   */\n      0x20\n        /* \"#utility.yul\":2128:2137   */\n      dup3\n        /* \"#utility.yul\":2119:2126   */\n      dup5\n        /* \"#utility.yul\":2115:2138   */\n      sub\n        /* \"#utility.yul\":2111:2143   */\n      slt\n        /* \"#utility.yul\":2108:2110   */\n      iszero\n      tag_442\n      jumpi\n        /* \"#utility.yul\":2156:2157   */\n      0x00\n        /* \"#utility.yul\":2153:2154   */\n      dup1\n        /* \"#utility.yul\":2146:2158   */\n      revert\n        /* \"#utility.yul\":2108:2110   */\n    tag_442:\n      pop\n        /* \"#utility.yul\":2179:2202   */\n      calldataload\n      swap2\n        /* \"#utility.yul\":2098:2208   */\n      swap1\n      pop\n      jump\t// out\n        /* \"#utility.yul\":2213:2397   */\n    tag_153:\n        /* \"#utility.yul\":2283:2289   */\n      0x00\n        /* \"#utility.yul\":2336:2338   */\n      0x20\n        /* \"#utility.yul\":2324:2333   */\n      dup3\n        /* \"#utility.yul\":2315:2322   */\n      dup5\n        /* \"#utility.yul\":2311:2334   */\n      sub\n        /* \"#utility.yul\":2307:2339   */\n      slt\n        /* \"#utility.yul\":2304:2306   */\n      iszero\n      tag_444\n      jumpi\n        /* \"#utility.yul\":2352:2353   */\n      0x00\n        /* \"#utility.yul\":2349:2350   */\n      dup1\n        /* \"#utility.yul\":2342:2354   */\n      revert\n        /* \"#utility.yul\":2304:2306   */\n    tag_444:\n      pop\n        /* \"#utility.yul\":2375:2391   */\n      mload\n      swap2\n        /* \"#utility.yul\":2294:2397   */\n      swap1\n      pop\n      jump\t// out\n        /* \"#utility.yul\":2402:2828   */\n    tag_397:\n        /* \"#utility.yul\":2531:2534   */\n      0x00\n        /* \"#utility.yul\":2569:2575   */\n      dup3\n        /* \"#utility.yul\":2563:2576   */\n      mload\n        /* \"#utility.yul\":2594:2595   */\n      0x00\n        /* \"#utility.yul\":2604:2733   */\n    tag_446:\n        /* \"#utility.yul\":2618:2624   */\n      dup2\n        /* \"#utility.yul\":2615:2616   */\n      dup2\n        /* \"#utility.yul\":2612:2625   */\n      lt\n        /* \"#utility.yul\":2604:2733   */\n      iszero\n      tag_448\n      jumpi\n        /* \"#utility.yul\":2716:2720   */\n      0x20\n        /* \"#utility.yul\":2700:2714   */\n      dup2\n      dup7\n      add\n        /* \"#utility.yul\":2696:2721   */\n      dup2\n      add\n        /* \"#utility.yul\":2690:2722   */\n      mload\n        /* \"#utility.yul\":2677:2688   */\n      dup6\n      dup4\n      add\n        /* \"#utility.yul\":2670:2723   */\n      mstore\n        /* \"#utility.yul\":2633:2645   */\n      add\n        /* \"#utility.yul\":2604:2733   */\n      jump(tag_446)\n    tag_448:\n        /* \"#utility.yul\":2751:2757   */\n      dup2\n        /* \"#utility.yul\":2748:2749   */\n      dup2\n        /* \"#utility.yul\":2745:2758   */\n      gt\n        /* \"#utility.yul\":2742:2744   */\n      iszero\n      tag_449\n      jumpi\n        /* \"#utility.yul\":2786:2787   */\n      0x00\n        /* \"#utility.yul\":2777:2783   */\n      dup3\n        /* \"#utility.yul\":2772:2775   */\n      dup6\n        /* \"#utility.yul\":2768:2784   */\n      add\n        /* \"#utility.yul\":2761:2788   */\n      mstore\n        /* \"#utility.yul\":2742:2744   */\n    tag_449:\n      pop\n        /* \"#utility.yul\":2806:2822   */\n      swap2\n      swap1\n      swap2\n      add\n      swap3\n        /* \"#utility.yul\":2539:2828   */\n      swap2\n      pop\n      pop\n      jump\t// out\n        /* \"#utility.yul\":6201:6552   */\n    tag_244:\n        /* \"#utility.yul\":6403:6405   */\n      0x20\n        /* \"#utility.yul\":6385:6406   */\n      dup1\n      dup3\n      mstore\n        /* \"#utility.yul\":6442:6444   */\n      0x1b\n        /* \"#utility.yul\":6422:6440   */\n      swap1\n      dup3\n      add\n        /* \"#utility.yul\":6415:6445   */\n      mstore\n        /* \"#utility.yul\":6481:6510   */\n      0x416c6c20746f6b656e20686173206265656e2077697468647261770000000000\n        /* \"#utility.yul\":6476:6478   */\n      0x40\n        /* \"#utility.yul\":6461:6479   */\n      dup3\n      add\n        /* \"#utility.yul\":6454:6511   */\n      mstore\n        /* \"#utility.yul\":6543:6545   */\n      0x60\n        /* \"#utility.yul\":6528:6546   */\n      add\n      swap1\n        /* \"#utility.yul\":6375:6552   */\n      jump\t// out\n        /* \"#utility.yul\":11320:11675   */\n    tag_146:\n        /* \"#utility.yul\":11522:11524   */\n      0x20\n        /* \"#utility.yul\":11504:11525   */\n      dup1\n      dup3\n      mstore\n        /* \"#utility.yul\":11561:11563   */\n      0x1f\n        /* \"#utility.yul\":11541:11559   */\n      swap1\n      dup3\n      add\n        /* \"#utility.yul\":11534:11564   */\n      mstore\n        /* \"#utility.yul\":11600:11633   */\n      0x5265656e7472616e637947756172643a207265656e7472616e742063616c6c00\n        /* \"#utility.yul\":11595:11597   */\n      0x40\n        /* \"#utility.yul\":11580:11598   */\n      dup3\n      add\n        /* \"#utility.yul\":11573:11634   */\n      mstore\n        /* \"#utility.yul\":11666:11668   */\n      0x60\n        /* \"#utility.yul\":11651:11669   */\n      add\n      swap1\n        /* \"#utility.yul\":11494:11675   */\n      jump\t// out\n        /* \"#utility.yul\":13559:13687   */\n    tag_257:\n        /* \"#utility.yul\":13599:13602   */\n      0x00\n        /* \"#utility.yul\":13630:13631   */\n      dup3\n        /* \"#utility.yul\":13626:13632   */\n      not\n        /* \"#utility.yul\":13623:13624   */\n      dup3\n        /* \"#utility.yul\":13620:13633   */\n      gt\n        /* \"#utility.yul\":13617:13619   */\n      iszero\n      tag_481\n      jumpi\n        /* \"#utility.yul\":13636:13654   */\n      tag_481\n      tag_482\n      jump\t// in\n    tag_481:\n      pop\n        /* \"#utility.yul\":13672:13681   */\n      add\n      swap1\n        /* \"#utility.yul\":13607:13687   */\n      jump\t// out\n        /* \"#utility.yul\":13692:13909   */\n    tag_231:\n        /* \"#utility.yul\":13732:13733   */\n      0x00\n        /* \"#utility.yul\":13758:13759   */\n      dup3\n        /* \"#utility.yul\":13748:13750   */\n      tag_484\n      jumpi\n        /* \"#utility.yul\":13802:13812   */\n      0x4e487b71\n        /* \"#utility.yul\":13797:13800   */\n      0xe0\n        /* \"#utility.yul\":13793:13813   */\n      shl\n        /* \"#utility.yul\":13790:13791   */\n      0x00\n        /* \"#utility.yul\":13783:13814   */\n      mstore\n        /* \"#utility.yul\":13837:13841   */\n      0x12\n        /* \"#utility.yul\":13834:13835   */\n      0x04\n        /* \"#utility.yul\":13827:13842   */\n      mstore\n        /* \"#utility.yul\":13865:13869   */\n      0x24\n        /* \"#utility.yul\":13862:13863   */\n      0x00\n        /* \"#utility.yul\":13855:13870   */\n      revert\n        /* \"#utility.yul\":13748:13750   */\n    tag_484:\n      pop\n        /* \"#utility.yul\":13894:13903   */\n      div\n      swap1\n        /* \"#utility.yul\":13738:13909   */\n      jump\t// out\n        /* \"#utility.yul\":13914:14336   */\n    tag_485:\n        /* \"#utility.yul\":14003:14004   */\n      0x01\n        /* \"#utility.yul\":14046:14051   */\n      dup2\n        /* \"#utility.yul\":14003:14004   */\n      dup2\n        /* \"#utility.yul\":14060:14330   */\n    tag_487:\n        /* \"#utility.yul\":14081:14088   */\n      dup1\n        /* \"#utility.yul\":14071:14079   */\n      dup6\n        /* \"#utility.yul\":14068:14089   */\n      gt\n        /* \"#utility.yul\":14060:14330   */\n      iszero\n      tag_489\n      jumpi\n        /* \"#utility.yul\":14140:14144   */\n      dup2\n        /* \"#utility.yul\":14136:14137   */\n      0x00\n        /* \"#utility.yul\":14132:14138   */\n      not\n        /* \"#utility.yul\":14128:14145   */\n      div\n        /* \"#utility.yul\":14122:14126   */\n      dup3\n        /* \"#utility.yul\":14119:14146   */\n      gt\n        /* \"#utility.yul\":14116:14118   */\n      iszero\n      tag_491\n      jumpi\n        /* \"#utility.yul\":14149:14167   */\n      tag_491\n      tag_482\n      jump\t// in\n    tag_491:\n        /* \"#utility.yul\":14199:14206   */\n      dup1\n        /* \"#utility.yul\":14189:14197   */\n      dup6\n        /* \"#utility.yul\":14185:14207   */\n      and\n        /* \"#utility.yul\":14182:14184   */\n      iszero\n      tag_492\n      jumpi\n        /* \"#utility.yul\":14219:14235   */\n      swap2\n      dup2\n      mul\n      swap2\n        /* \"#utility.yul\":14182:14184   */\n    tag_492:\n        /* \"#utility.yul\":14298:14320   */\n      swap4\n      dup5\n      shr\n      swap4\n        /* \"#utility.yul\":14258:14273   */\n      swap1\n      dup1\n      mul\n      swap1\n        /* \"#utility.yul\":14060:14330   */\n      jump(tag_487)\n    tag_489:\n        /* \"#utility.yul\":14064:14067   */\n      pop\n        /* \"#utility.yul\":13978:14336   */\n      swap3\n      pop\n      swap3\n      swap1\n      pop\n      jump\t// out\n        /* \"#utility.yul\":14341:14472   */\n    tag_183:\n        /* \"#utility.yul\":14401:14406   */\n      0x00\n        /* \"#utility.yul\":14430:14466   */\n      tag_383\n        /* \"#utility.yul\":14457:14465   */\n      dup4\n        /* \"#utility.yul\":14451:14455   */\n      dup4\n        /* \"#utility.yul\":14526:14531   */\n      0x00\n        /* \"#utility.yul\":14556:14564   */\n      dup3\n        /* \"#utility.yul\":14546:14548   */\n      tag_497\n      jumpi\n      pop\n        /* \"#utility.yul\":14597:14598   */\n      0x01\n        /* \"#utility.yul\":14611:14616   */\n      jump(tag_382)\n        /* \"#utility.yul\":14546:14548   */\n    tag_497:\n        /* \"#utility.yul\":14645:14649   */\n      dup2\n        /* \"#utility.yul\":14635:14637   */\n      tag_498\n      jumpi\n      pop\n        /* \"#utility.yul\":14682:14683   */\n      0x00\n        /* \"#utility.yul\":14696:14701   */\n      jump(tag_382)\n        /* \"#utility.yul\":14635:14637   */\n    tag_498:\n        /* \"#utility.yul\":14727:14731   */\n      dup2\n        /* \"#utility.yul\":14745:14746   */\n      0x01\n        /* \"#utility.yul\":14740:14799   */\n      dup2\n      eq\n      tag_500\n      jumpi\n        /* \"#utility.yul\":14813:14814   */\n      0x02\n        /* \"#utility.yul\":14808:14938   */\n      dup2\n      eq\n      tag_501\n      jumpi\n        /* \"#utility.yul\":14720:14938   */\n      jump(tag_499)\n        /* \"#utility.yul\":14740:14799   */\n    tag_500:\n        /* \"#utility.yul\":14770:14771   */\n      0x01\n        /* \"#utility.yul\":14761:14771   */\n      swap2\n      pop\n        /* \"#utility.yul\":14784:14789   */\n      pop\n      jump(tag_382)\n        /* \"#utility.yul\":14808:14938   */\n    tag_501:\n        /* \"#utility.yul\":14845:14848   */\n      0xff\n        /* \"#utility.yul\":14835:14843   */\n      dup5\n        /* \"#utility.yul\":14832:14849   */\n      gt\n        /* \"#utility.yul\":14829:14831   */\n      iszero\n      tag_503\n      jumpi\n        /* \"#utility.yul\":14852:14870   */\n      tag_503\n      tag_482\n      jump\t// in\n    tag_503:\n      pop\n      pop\n        /* \"#utility.yul\":14908:14909   */\n      0x01\n        /* \"#utility.yul\":14894:14910   */\n      dup3\n      shl\n        /* \"#utility.yul\":14923:14928   */\n      jump(tag_382)\n        /* \"#utility.yul\":14720:14938   */\n    tag_499:\n      pop\n        /* \"#utility.yul\":15022:15024   */\n      0x20\n        /* \"#utility.yul\":15012:15020   */\n      dup4\n        /* \"#utility.yul\":15009:15025   */\n      lt\n        /* \"#utility.yul\":15003:15006   */\n      0x0133\n        /* \"#utility.yul\":14997:15001   */\n      dup4\n        /* \"#utility.yul\":14994:15007   */\n      lt\n        /* \"#utility.yul\":14990:15026   */\n      and\n        /* \"#utility.yul\":14984:14986   */\n      0x4e\n        /* \"#utility.yul\":14974:14982   */\n      dup5\n        /* \"#utility.yul\":14971:14987   */\n      lt\n        /* \"#utility.yul\":14966:14968   */\n      0x0b\n        /* \"#utility.yul\":14960:14964   */\n      dup5\n        /* \"#utility.yul\":14957:14969   */\n      lt\n        /* \"#utility.yul\":14953:14988   */\n      and\n        /* \"#utility.yul\":14950:15027   */\n      or\n        /* \"#utility.yul\":14947:14949   */\n      iszero\n      tag_504\n      jumpi\n      pop\n        /* \"#utility.yul\":15059:15078   */\n      dup2\n      dup2\n      exp\n        /* \"#utility.yul\":15091:15096   */\n      jump(tag_382)\n        /* \"#utility.yul\":14947:14949   */\n    tag_504:\n        /* \"#utility.yul\":15138:15172   */\n      tag_505\n        /* \"#utility.yul\":15163:15171   */\n      dup4\n        /* \"#utility.yul\":15157:15161   */\n      dup4\n        /* \"#utility.yul\":15138:15172   */\n      tag_485\n      jump\t// in\n    tag_505:\n        /* \"#utility.yul\":15208:15214   */\n      dup1\n        /* \"#utility.yul\":15204:15205   */\n      0x00\n        /* \"#utility.yul\":15200:15206   */\n      not\n        /* \"#utility.yul\":15196:15215   */\n      div\n        /* \"#utility.yul\":15187:15194   */\n      dup3\n        /* \"#utility.yul\":15184:15216   */\n      gt\n        /* \"#utility.yul\":15181:15183   */\n      iszero\n      tag_507\n      jumpi\n        /* \"#utility.yul\":15219:15237   */\n      tag_507\n      tag_482\n      jump\t// in\n    tag_507:\n        /* \"#utility.yul\":15257:15277   */\n      mul\n      swap4\n        /* \"#utility.yul\":14536:15283   */\n      swap3\n      pop\n      pop\n      pop\n      jump\t// out\n        /* \"#utility.yul\":15288:15456   */\n    tag_188:\n        /* \"#utility.yul\":15328:15335   */\n      0x00\n        /* \"#utility.yul\":15394:15395   */\n      dup2\n        /* \"#utility.yul\":15390:15391   */\n      0x00\n        /* \"#utility.yul\":15386:15392   */\n      not\n        /* \"#utility.yul\":15382:15396   */\n      div\n        /* \"#utility.yul\":15379:15380   */\n      dup4\n        /* \"#utility.yul\":15376:15397   */\n      gt\n        /* \"#utility.yul\":15371:15372   */\n      dup3\n        /* \"#utility.yul\":15364:15373   */\n      iszero\n        /* \"#utility.yul\":15357:15374   */\n      iszero\n        /* \"#utility.yul\":15353:15398   */\n      and\n        /* \"#utility.yul\":15350:15352   */\n      iszero\n      tag_510\n      jumpi\n        /* \"#utility.yul\":15401:15419   */\n      tag_510\n      tag_482\n      jump\t// in\n    tag_510:\n      pop\n        /* \"#utility.yul\":15441:15450   */\n      mul\n      swap1\n        /* \"#utility.yul\":15340:15456   */\n      jump\t// out\n        /* \"#utility.yul\":15461:15586   */\n    tag_241:\n        /* \"#utility.yul\":15501:15505   */\n      0x00\n        /* \"#utility.yul\":15529:15530   */\n      dup3\n        /* \"#utility.yul\":15526:15527   */\n      dup3\n        /* \"#utility.yul\":15523:15531   */\n      lt\n        /* \"#utility.yul\":15520:15522   */\n      iszero\n      tag_513\n      jumpi\n        /* \"#utility.yul\":15534:15552   */\n      tag_513\n      tag_482\n      jump\t// in\n    tag_513:\n      pop\n        /* \"#utility.yul\":15571:15580   */\n      sub\n      swap1\n        /* \"#utility.yul\":15510:15586   */\n      jump\t// out\n        /* \"#utility.yul\":15591:15726   */\n    tag_325:\n        /* \"#utility.yul\":15630:15633   */\n      0x00\n      not(0x00)\n        /* \"#utility.yul\":15651:15668   */\n      dup3\n      eq\n        /* \"#utility.yul\":15648:15650   */\n      iszero\n      tag_516\n      jumpi\n        /* \"#utility.yul\":15671:15689   */\n      tag_516\n      tag_482\n      jump\t// in\n    tag_516:\n      pop\n        /* \"#utility.yul\":15718:15719   */\n      0x01\n        /* \"#utility.yul\":15707:15720   */\n      add\n      swap1\n        /* \"#utility.yul\":15638:15726   */\n      jump\t// out\n        /* \"#utility.yul\":15731:15858   */\n    tag_482:\n        /* \"#utility.yul\":15792:15802   */\n      0x4e487b71\n        /* \"#utility.yul\":15787:15790   */\n      0xe0\n        /* \"#utility.yul\":15783:15803   */\n      shl\n        /* \"#utility.yul\":15780:15781   */\n      0x00\n        /* \"#utility.yul\":15773:15804   */\n      mstore\n        /* \"#utility.yul\":15823:15827   */\n      0x11\n        /* \"#utility.yul\":15820:15821   */\n      0x04\n        /* \"#utility.yul\":15813:15828   */\n      mstore\n        /* \"#utility.yul\":15847:15851   */\n      0x24\n        /* \"#utility.yul\":15844:15845   */\n      0x00\n        /* \"#utility.yul\":15837:15852   */\n      revert\n        /* \"#utility.yul\":15995:16122   */\n    tag_429:\n        /* \"#utility.yul\":16056:16066   */\n      0x4e487b71\n        /* \"#utility.yul\":16051:16054   */\n      0xe0\n        /* \"#utility.yul\":16047:16067   */\n      shl\n        /* \"#utility.yul\":16044:16045   */\n      0x00\n        /* \"#utility.yul\":16037:16068   */\n      mstore\n        /* \"#utility.yul\":16087:16091   */\n      0x41\n        /* \"#utility.yul\":16084:16085   */\n      0x04\n        /* \"#utility.yul\":16077:16092   */\n      mstore\n        /* \"#utility.yul\":16111:16115   */\n      0x24\n        /* \"#utility.yul\":16108:16109   */\n      0x00\n        /* \"#utility.yul\":16101:16116   */\n      revert\n        /* \"#utility.yul\":16127:16258   */\n    tag_420:\n      sub(shl(0xa0, 0x01), 0x01)\n        /* \"#utility.yul\":16202:16233   */\n      dup2\n      and\n        /* \"#utility.yul\":16192:16234   */\n      dup2\n      eq\n        /* \"#utility.yul\":16182:16184   */\n      tag_136\n      jumpi\n        /* \"#utility.yul\":16248:16249   */\n      0x00\n        /* \"#utility.yul\":16245:16246   */\n      dup1\n        /* \"#utility.yul\":16238:16250   */\n      revert\n        /* \"#utility.yul\":16263:16381   */\n    tag_437:\n        /* \"#utility.yul\":16349:16354   */\n      dup1\n        /* \"#utility.yul\":16342:16355   */\n      iszero\n        /* \"#utility.yul\":16335:16356   */\n      iszero\n        /* \"#utility.yul\":16328:16333   */\n      dup2\n        /* \"#utility.yul\":16325:16357   */\n      eq\n        /* \"#utility.yul\":16315:16317   */\n      tag_136\n      jumpi\n        /* \"#utility.yul\":16371:16372   */\n      0x00\n        /* \"#utility.yul\":16368:16369   */\n      dup1\n        /* \"#utility.yul\":16361:16373   */\n      revert\n\n    auxdata: 0xa26469706673582212202e2fb452219c4d7e6f3ef7efc11cc2f79f2cb720c0f48bf07d1650c9cb9c4e4464736f6c63430008050033\n}\n",
				"bytecode": {
					"linkReferences": {},
					"object": "608060405260016000556200001433620000a5565b6019805473c778417e063141139fce010982780140aa0cd5ab6001600160a01b031990911617905562000069601b736ccb41eeda5a073076f3e7dc1614c185b5fa41ed620000f7602090811b6200178817901c565b5062000099734f0b12bbf40fc182559822a5b1db6d34dbc3e016601b620000f760201b620017881790919060201c565b506014601a5562000169565b600180546001600160a01b038381166001600160a01b0319831681179093556040519116919082907f8be0079c531659141344cd1fd0a4f28419497f9722a3daafe3b4186f6b6457e090600090a35050565b60006200010e836001600160a01b03841662000117565b90505b92915050565b6000818152600183016020526040812054620001605750815460018181018455600084815260208082209093018490558454848252828601909352604090209190915562000111565b50600062000111565b611db680620001796000396000f3fe60806040526004361061012a5760003560e01c80638f1eae4c116100ab578063b6b55f251161006f578063b6b55f25146103e0578063cad5b0f7146103f3578063e2d3f42314610418578063eb002bb01461048a578063f2fde38b146104aa578063f8b2cb4f146104ca57600080fd5b80638f1eae4c1461030657806395661e7014610326578063ab33985a1461033b578063acfb235514610350578063ad5c4648146103c057600080fd5b806356c5f349116100f257806356c5f34914610273578063715018a6146102a0578063861faf5f146102b75780638da5cb5b146102bf5780638edf18e6146102f157600080fd5b806312e5d0b91461012f57806318856a2f146101645780631df4ccfc14610224578063200d2ed2146102485780633b5ef2ad1461025d575b600080fd5b34801561013b57600080fd5b50600b54600c5461014a919082565b604080519283526020830191909152015b60405180910390f35b34801561017057600080fd5b50600d54600e54600f546010546011546012546013546014546015546016546017546018546101b89b6001600160a01b039081169b81169a16989796959493929160ff16908c565b604080516001600160a01b039d8e1681529b8d1660208d015299909b16988a01989098526060890196909652608088019490945260a087019290925260c086015260e085015261010084015261012083015215156101408201526101608101919091526101800161015b565b34801561023057600080fd5b5061023a601d5481565b60405190815260200161015b565b34801561025457600080fd5b5061023a6104f2565b34801561026957600080fd5b5061023a601a5481565b34801561027f57600080fd5b5061023a61028e3660046119bd565b60036020526000908152604090205481565b3480156102ac57600080fd5b506102b561051b565b005b6102b5610586565b3480156102cb57600080fd5b506001546001600160a01b03165b6040516001600160a01b03909116815260200161015b565b3480156102fd57600080fd5b506102b56105b5565b34801561031257600080fd5b506102b56103213660046119e1565b6108af565b34801561033257600080fd5b506102b5610c2a565b34801561034757600080fd5b506102b5610e01565b34801561035c57600080fd5b5060045460055460065460075460085460095461038795949392919060ff8082169161010090041687565b6040805197885260208801969096529486019390935260608501919091526080840152151560a0830152151560c082015260e00161015b565b3480156103cc57600080fd5b506019546102d9906001600160a01b031681565b6102b56103ee366004611ae0565b61102a565b3480156103ff57600080fd5b506104086113f9565b604051901515815260200161015b565b34801561042457600080fd5b506104626104333660046119bd565b600260208190526000918252604090912080546001820154928201546003830154600490930154919392909185565b604080519586526020860194909452928401919091526060830152608082015260a00161015b565b34801561049657600080fd5b506102b56104a5366004611aa6565b61140b565b3480156104b657600080fd5b506102b56104c53660046119bd565b6116c0565b3480156104d657600080fd5b5061023a6104e53660046119bd565b6001600160a01b03163190565b6011546000904210156105055750600090565b6012544211156105155750600290565b50600190565b6001546001600160a01b0316331461057a5760405162461bcd60e51b815260206004820181905260248201527f4f776e61626c653a2063616c6c6572206973206e6f7420746865206f776e657260448201526064015b60405180910390fd5b61058460006117a6565b565b60405133904780156108fc02916000818181858888f193505050501580156105b2573d6000803e3d6000fd5b50565b600d546001600160a01b0316336001600160a01b03161461060d5760405162461bcd60e51b815260206004820152601260248201527127b7363c90383932b9b0b6329037bbb732b960711b6044820152606401610571565b600260005414156106305760405162461bcd60e51b815260040161057190611b84565b60026000908155600e546040516370a0823160e01b81523060048201526001600160a01b03909116906370a082319060240160206040518083038186803b15801561067a57600080fd5b505afa15801561068e573d6000803e3d6000fd5b505050506040513d601f19601f820116820180604052508101906106b29190611af9565b6004549091504790156106fa576006546005546106da916106d391906117f8565b83906117f8565b6007546004549193506106f7916106f0916117f8565b82906117f8565b90505b60095460ff161561074d5760405162461bcd60e51b815260206004820152601d60248201527f4e6f7468696e6720666f72206f776e657220636c61696d20746f6b656e0000006044820152606401610571565b600954610100900460ff16156107a55760405162461bcd60e51b815260206004820152601e60248201527f4e6f7468696e6720666f72206f776e657220726566756e6420746f6b656e00006044820152606401610571565b6009805460ff191660011790556000601855600e54600d546006546005546001600160a01b039384169363a9059cbb9316916107ec916107e69088906117f8565b906117f8565b6040516001600160e01b031960e085901b1681526001600160a01b0390921660048301526024820152604401602060405180830381600087803b15801561083257600080fd5b505af1158015610846573d6000803e3d6000fd5b505050506040513d601f19601f8201168201806040525081019061086a9190611ac3565b50600d546040516001600160a01b039091169082156108fc029083906000818181858888f193505050501580156108a5573d6000803e3d6000fd5b5050600160005550565b600d80546001600160a01b038087166001600160a01b031992831617909255600e80548684169083168117909155600f8054938616939092169290921790556040805163313ce56760e01b8152905163313ce56791600480820192602092909190829003018186803b15801561092457600080fd5b505afa158015610938573d6000803e3d6000fd5b505050506040513d601f19601f8201168201806040525081019061095c9190611af9565b61096790600a611c38565b81516109739190611ce0565b6010556020808201516011556040808301516012556060830151601355600f54815163313ce56760e01b815291516001600160a01b039091169263313ce5679260048082019391829003018186803b1580156109ce57600080fd5b505afa1580156109e2573d6000803e3d6000fd5b505050506040513d601f19601f82011682018060405250810190610a069190611af9565b610a1190600a611c38565b6080820151610a209190611ce0565b60145560a081015160155560c0810151601655600f546040805163313ce56760e01b815290516001600160a01b039092169163313ce56791600480820192602092909190829003018186803b158015610a7857600080fd5b505afa158015610a8c573d6000803e3d6000fd5b505050506040513d601f19601f82011682018060405250810190610ab09190611af9565b610abb90600a611c38565b60e0820151610aca9190611ce0565b600b55600f546040805163313ce56760e01b815290516001600160a01b039092169163313ce56791600480820192602092909190829003018186803b158015610b1257600080fd5b505afa158015610b26573d6000803e3d6000fd5b505050506040513d601f19601f82011682018060405250810190610b4a9190611af9565b610b5590600a611c38565b610100820151610b659190611ce0565b600c55600f546019546017805460ff19166001600160a01b0392831692909316918214929092179091556040805163313ce56760e01b8152905163313ce56791600480820192602092909190829003018186803b158015610bc557600080fd5b505afa158015610bd9573d6000803e3d6000fd5b505050506040513d601f19601f82011682018060405250810190610bfd9190611af9565b610c0890600a611c38565b600b54601054610c1791611804565b610c219190611bd3565b60185550505050565b60026000541415610c4d5760405162461bcd60e51b815260040161057190611b84565b6002600055610c5a6104f2565b600114610c985760405162461bcd60e51b815260206004820152600c60248201526b53616c65207375636573737360a01b6044820152606401610571565b600754600454600091610caa91611cff565b11610cc75760405162461bcd60e51b815260040161057190611b4d565b3360009081526002602052604090208054610d1e5760405162461bcd60e51b8152602060048201526017602482015276165bdd481a185d99481b9bdd08189bdd59da1d081e595d604a1b6044820152606401610571565b6004810154815411610d635760405162461bcd60e51b815260206004820152600e60248201526d165bdd481c99599d5b9908185b1b60921b6044820152606401610571565b8054601554600091610d8e916103e891610d8891610d829084906117f8565b90611804565b90611810565b8254909150610d9e908290611cff565b601d6000828254610daf9190611bbb565b909155505060078054829190600090610dc9908490611bbb565b9091555050426002830155604051339082156108fc029083906000818181858888f193505050501580156108a5573d6000803e3d6000fd5b60026000541415610e245760405162461bcd60e51b815260040161057190611b84565b6002600055610e316104f2565b600114610e6f5760405162461bcd60e51b815260206004820152600c60248201526b53616c65207375636573737360a01b6044820152606401610571565b600654600554600091610e8191611cff565b11610e9e5760405162461bcd60e51b815260040161057190611b4d565b3360009081526002602052604090206001810154610ef85760405162461bcd60e51b8152602060048201526017602482015276165bdd481a185d99481b9bdd08189bdd59da1d081e595d604a1b6044820152606401610571565b8060030154816001015411610f405760405162461bcd60e51b815260206004820152600e60248201526d165bdd4818db185a5b48185b1b1b60921b6044820152606401610571565b6000610f6a6103e8610d888460010154610d82600d600901546103e86117f890919063ffffffff16565b90508060046002016000828254610f819190611bbb565b909155505060188054829190600090610f9b908490611cff565b9091555050426002830155600e5460405163a9059cbb60e01b8152336004820152602481018390526001600160a01b039091169063a9059cbb90604401602060405180830381600087803b158015610ff257600080fd5b505af1158015611006573d6000803e3d6000fd5b505050506040513d601f19601f820116820180604052508101906108a59190611ac3565b6002600054141561104d5760405162461bcd60e51b815260040161057190611b84565b600260008181553381526020919091526040812090829081906103e8348311156110b95760405162461bcd60e51b815260206004820152601a60248201527f506c656173652070726f76696465206e617669746520636f696e0000000000006044820152606401610571565b6013548310156110fe5760405162461bcd60e51b815260206004820152601060248201526f4e6f7420656e6f7567682076616c756560801b6044820152606401610571565b6014548311156111415760405162461bcd60e51b815260206004820152600e60248201526d4f766572666c6f772076616c756560901b6044820152606401610571565b6111496113f9565b6111795761116a81610d8885610d82601a54866117f890919063ffffffff16565b92506111768385611cff565b91505b845460145460009161118a91611cff565b6004546018549192506000916111a09190611cff565b905060008183116111b157826111b3565b815b9050808611156111f75760405162461bcd60e51b815260206004820152600f60248201526e53616c65206973207375636365737360881b6044820152606401610571565b600061129e600d60020160009054906101000a90046001600160a01b03166001600160a01b031663313ce5676040518163ffffffff1660e01b815260040160206040518083038186803b15801561124d57600080fd5b505afa158015611261573d6000803e3d6000fd5b505050506040513d601f19601f820116820180604052508101906112859190611af9565b61129090600a611c38565b601054610d88908a90611804565b9050878960000160008282546112b49190611bbb565b92505081905550808960010160008282546112cf9190611bbb565b9091555050600480548891906000906112e9908490611bbb565b909155505060058054829190600090611303908490611bbb565b90915550506008805490600061131883611d16565b9091555050336000908152600360205260408120805488929061133c908490611bbb565b9250508190555085601d60008282546113559190611bbb565b909155505060175460ff1680156113755750346113728789611bbb565b11155b156113bd57336108fc876113898a34611cff565b6113939190611cff565b6040518115909202916000818181858888f193505050501580156113bb573d6000803e3d6000fd5b505b60175460ff166113e857600f546113e8906001600160a01b031633306113e38a8c611bbb565b61181c565b505060016000555050505050505050565b6000611406601b3361194c565b905090565b80156115a75760065460055460009161142391611cff565b116114405760405162461bcd60e51b815260040161057190611b4d565b33600090815260026020526040902060038101546001820154116114b25760405162461bcd60e51b8152602060048201526024808201527f596f7520636c61696d20616c6c206f722068617665206e6f7420626f75676874604482015263081e595d60e21b6064820152608401610571565b600e54600182015460405163a9059cbb60e01b815233600482015260248101919091526001600160a01b039091169063a9059cbb90604401602060405180830381600087803b15801561150457600080fd5b505af1158015611518573d6000803e3d6000fd5b505050506040513d601f19601f8201168201806040525081019061153c9190611ac3565b50600181015460068054600090611554908490611bbb565b9091555050600181015460188054600090611570908490611cff565b9091555050600181015460038201805460009061158e908490611bbb565b9091555050600080825560018201554260029091015550565b6007546004546000916115b991611cff565b116115d65760405162461bcd60e51b815260040161057190611b4d565b33600090815260026020526040902080546116415760405162461bcd60e51b815260206004820152602560248201527f596f7520726566756e6420616c6c206f722068617665206e6f7420626f7567686044820152641d081e595d60da1b6064820152608401610571565b805461164d8180611cff565b601d600082825461165e9190611bbb565b909155505060078054829190600090611678908490611bbb565b9091555050600080835560018301819055426002840155604051339183156108fc02918491818181858888f193505050501580156116ba573d6000803e3d6000fd5b50505050565b6001546001600160a01b0316331461171a5760405162461bcd60e51b815260206004820181905260248201527f4f776e61626c653a2063616c6c6572206973206e6f7420746865206f776e65726044820152606401610571565b6001600160a01b03811661177f5760405162461bcd60e51b815260206004820152602660248201527f4f776e61626c653a206e6577206f776e657220697320746865207a65726f206160448201526564647265737360d01b6064820152608401610571565b6105b2816117a6565b600061179d836001600160a01b03841661196e565b90505b92915050565b600180546001600160a01b038381166001600160a01b0319831681179093556040519116919082907f8be0079c531659141344cd1fd0a4f28419497f9722a3daafe3b4186f6b6457e090600090a35050565b600061179d8284611cff565b600061179d8284611ce0565b600061179d8284611bd3565b604080516001600160a01b0385811660248301528481166044830152606480830185905283518084039091018152608490920183526020820180516001600160e01b03166323b872dd60e01b17905291516000928392908816916118809190611b12565b6000604051808303816000865af19150503d80600081146118bd576040519150601f19603f3d011682016040523d82523d6000602084013e6118c2565b606091505b50915091508180156118ec5750805115806118ec5750808060200190518101906118ec9190611ac3565b6119445760405162461bcd60e51b8152602060048201526024808201527f5472616e7366657248656c7065723a205452414e534645525f46524f4d5f46416044820152631253115160e21b6064820152608401610571565b505050505050565b6001600160a01b0381166000908152600183016020526040812054151561179d565b60008181526001830160205260408120546119b5575081546001818101845560008481526020808220909301849055845484825282860190935260409020919091556117a0565b5060006117a0565b6000602082840312156119cf57600080fd5b81356119da81611d5d565b9392505050565b6000806000806101808086880312156119f957600080fd5b8535611a0481611d5d565b9450602086810135611a1581611d5d565b94506040870135611a2581611d5d565b9350607f87018813611a3657600080fd5b604051610120810181811067ffffffffffffffff82111715611a5a57611a5a611d47565b6040528060608901848a018b1015611a7157600080fd5b600094505b6009851015611a95578035825260019490940193908301908301611a76565b505080935050505092959194509250565b600060208284031215611ab857600080fd5b81356119da81611d72565b600060208284031215611ad557600080fd5b81516119da81611d72565b600060208284031215611af257600080fd5b5035919050565b600060208284031215611b0b57600080fd5b5051919050565b6000825160005b81811015611b335760208186018101518583015201611b19565b81811115611b42576000828501525b509190910192915050565b6020808252601b908201527f416c6c20746f6b656e20686173206265656e2077697468647261770000000000604082015260600190565b6020808252601f908201527f5265656e7472616e637947756172643a207265656e7472616e742063616c6c00604082015260600190565b60008219821115611bce57611bce611d31565b500190565b600082611bf057634e487b7160e01b600052601260045260246000fd5b500490565b600181815b80851115611c30578160001904821115611c1657611c16611d31565b80851615611c2357918102915b93841c9390800290611bfa565b509250929050565b600061179d8383600082611c4e575060016117a0565b81611c5b575060006117a0565b8160018114611c715760028114611c7b57611c97565b60019150506117a0565b60ff841115611c8c57611c8c611d31565b50506001821b6117a0565b5060208310610133831016604e8410600b8410161715611cba575081810a6117a0565b611cc48383611bf5565b8060001904821115611cd857611cd8611d31565b029392505050565b6000816000190483118215151615611cfa57611cfa611d31565b500290565b600082821015611d1157611d11611d31565b500390565b6000600019821415611d2a57611d2a611d31565b5060010190565b634e487b7160e01b600052601160045260246000fd5b634e487b7160e01b600052604160045260246000fd5b6001600160a01b03811681146105b257600080fd5b80151581146105b257600080fdfea26469706673582212202e2fb452219c4d7e6f3ef7efc11cc2f79f2cb720c0f48bf07d1650c9cb9c4e4464736f6c63430008050033",
					"opcodes": "PUSH1 0x80 PUSH1 0x40 MSTORE PUSH1 0x1 PUSH1 0x0 SSTORE PUSH3 0x14 CALLER PUSH3 0xA5 JUMP JUMPDEST PUSH1 0x19 DUP1 SLOAD PUSH20 0xC778417E063141139FCE010982780140AA0CD5AB PUSH1 0x1 PUSH1 0x1 PUSH1 0xA0 SHL SUB NOT SWAP1 SWAP2 AND OR SWAP1 SSTORE PUSH3 0x69 PUSH1 0x1B PUSH20 0x6CCB41EEDA5A073076F3E7DC1614C185B5FA41ED PUSH3 0xF7 PUSH1 0x20 SWAP1 DUP2 SHL PUSH3 0x1788 OR SWAP1 SHR JUMP JUMPDEST POP PUSH3 0x99 PUSH20 0x4F0B12BBF40FC182559822A5B1DB6D34DBC3E016 PUSH1 0x1B PUSH3 0xF7 PUSH1 0x20 SHL PUSH3 0x1788 OR SWAP1 SWAP2 SWAP1 PUSH1 0x20 SHR JUMP JUMPDEST POP PUSH1 0x14 PUSH1 0x1A SSTORE PUSH3 0x169 JUMP JUMPDEST PUSH1 0x1 DUP1 SLOAD PUSH1 0x1 PUSH1 0x1 PUSH1 0xA0 SHL SUB DUP4 DUP2 AND PUSH1 0x1 PUSH1 0x1 PUSH1 0xA0 SHL SUB NOT DUP4 AND DUP2 OR SWAP1 SWAP4 SSTORE PUSH1 0x40 MLOAD SWAP2 AND SWAP2 SWAP1 DUP3 SWAP1 PUSH32 0x8BE0079C531659141344CD1FD0A4F28419497F9722A3DAAFE3B4186F6B6457E0 SWAP1 PUSH1 0x0 SWAP1 LOG3 POP POP JUMP JUMPDEST PUSH1 0x0 PUSH3 0x10E DUP4 PUSH1 0x1 PUSH1 0x1 PUSH1 0xA0 SHL SUB DUP5 AND PUSH3 0x117 JUMP JUMPDEST SWAP1 POP JUMPDEST SWAP3 SWAP2 POP POP JUMP JUMPDEST PUSH1 0x0 DUP2 DUP2 MSTORE PUSH1 0x1 DUP4 ADD PUSH1 0x20 MSTORE PUSH1 0x40 DUP2 KECCAK256 SLOAD PUSH3 0x160 JUMPI POP DUP2 SLOAD PUSH1 0x1 DUP2 DUP2 ADD DUP5 SSTORE PUSH1 0x0 DUP5 DUP2 MSTORE PUSH1 0x20 DUP1 DUP3 KECCAK256 SWAP1 SWAP4 ADD DUP5 SWAP1 SSTORE DUP5 SLOAD DUP5 DUP3 MSTORE DUP3 DUP7 ADD SWAP1 SWAP4 MSTORE PUSH1 0x40 SWAP1 KECCAK256 SWAP2 SWAP1 SWAP2 SSTORE PUSH3 0x111 JUMP JUMPDEST POP PUSH1 0x0 PUSH3 0x111 JUMP JUMPDEST PUSH2 0x1DB6 DUP1 PUSH3 0x179 PUSH1 0x0 CODECOPY PUSH1 0x0 RETURN INVALID PUSH1 0x80 PUSH1 0x40 MSTORE PUSH1 0x4 CALLDATASIZE LT PUSH2 0x12A JUMPI PUSH1 0x0 CALLDATALOAD PUSH1 0xE0 SHR DUP1 PUSH4 0x8F1EAE4C GT PUSH2 0xAB JUMPI DUP1 PUSH4 0xB6B55F25 GT PUSH2 0x6F JUMPI DUP1 PUSH4 0xB6B55F25 EQ PUSH2 0x3E0 JUMPI DUP1 PUSH4 0xCAD5B0F7 EQ PUSH2 0x3F3 JUMPI DUP1 PUSH4 0xE2D3F423 EQ PUSH2 0x418 JUMPI DUP1 PUSH4 0xEB002BB0 EQ PUSH2 0x48A JUMPI DUP1 PUSH4 0xF2FDE38B EQ PUSH2 0x4AA JUMPI DUP1 PUSH4 0xF8B2CB4F EQ PUSH2 0x4CA JUMPI PUSH1 0x0 DUP1 REVERT JUMPDEST DUP1 PUSH4 0x8F1EAE4C EQ PUSH2 0x306 JUMPI DUP1 PUSH4 0x95661E70 EQ PUSH2 0x326 JUMPI DUP1 PUSH4 0xAB33985A EQ PUSH2 0x33B JUMPI DUP1 PUSH4 0xACFB2355 EQ PUSH2 0x350 JUMPI DUP1 PUSH4 0xAD5C4648 EQ PUSH2 0x3C0 JUMPI PUSH1 0x0 DUP1 REVERT JUMPDEST DUP1 PUSH4 0x56C5F349 GT PUSH2 0xF2 JUMPI DUP1 PUSH4 0x56C5F349 EQ PUSH2 0x273 JUMPI DUP1 PUSH4 0x715018A6 EQ PUSH2 0x2A0 JUMPI DUP1 PUSH4 0x861FAF5F EQ PUSH2 0x2B7 JUMPI DUP1 PUSH4 0x8DA5CB5B EQ PUSH2 0x2BF JUMPI DUP1 PUSH4 0x8EDF18E6 EQ PUSH2 0x2F1 JUMPI PUSH1 0x0 DUP1 REVERT JUMPDEST DUP1 PUSH4 0x12E5D0B9 EQ PUSH2 0x12F JUMPI DUP1 PUSH4 0x18856A2F EQ PUSH2 0x164 JUMPI DUP1 PUSH4 0x1DF4CCFC EQ PUSH2 0x224 JUMPI DUP1 PUSH4 0x200D2ED2 EQ PUSH2 0x248 JUMPI DUP1 PUSH4 0x3B5EF2AD EQ PUSH2 0x25D JUMPI JUMPDEST PUSH1 0x0 DUP1 REVERT JUMPDEST CALLVALUE DUP1 ISZERO PUSH2 0x13B JUMPI PUSH1 0x0 DUP1 REVERT JUMPDEST POP PUSH1 0xB SLOAD PUSH1 0xC SLOAD PUSH2 0x14A SWAP2 SWAP1 DUP3 JUMP JUMPDEST PUSH1 0x40 DUP1 MLOAD SWAP3 DUP4 MSTORE PUSH1 0x20 DUP4 ADD SWAP2 SWAP1 SWAP2 MSTORE ADD JUMPDEST PUSH1 0x40 MLOAD DUP1 SWAP2 SUB SWAP1 RETURN JUMPDEST CALLVALUE DUP1 ISZERO PUSH2 0x170 JUMPI PUSH1 0x0 DUP1 REVERT JUMPDEST POP PUSH1 0xD SLOAD PUSH1 0xE SLOAD PUSH1 0xF SLOAD PUSH1 0x10 SLOAD PUSH1 0x11 SLOAD PUSH1 0x12 SLOAD PUSH1 0x13 SLOAD PUSH1 0x14 SLOAD PUSH1 0x15 SLOAD PUSH1 0x16 SLOAD PUSH1 0x17 SLOAD PUSH1 0x18 SLOAD PUSH2 0x1B8 SWAP12 PUSH1 0x1 PUSH1 0x1 PUSH1 0xA0 SHL SUB SWAP1 DUP2 AND SWAP12 DUP2 AND SWAP11 AND SWAP9 SWAP8 SWAP7 SWAP6 SWAP5 SWAP4 SWAP3 SWAP2 PUSH1 0xFF AND SWAP1 DUP13 JUMP JUMPDEST PUSH1 0x40 DUP1 MLOAD PUSH1 0x1 PUSH1 0x1 PUSH1 0xA0 SHL SUB SWAP14 DUP15 AND DUP2 MSTORE SWAP12 DUP14 AND PUSH1 0x20 DUP14 ADD MSTORE SWAP10 SWAP1 SWAP12 AND SWAP9 DUP11 ADD SWAP9 SWAP1 SWAP9 MSTORE PUSH1 0x60 DUP10 ADD SWAP7 SWAP1 SWAP7 MSTORE PUSH1 0x80 DUP9 ADD SWAP5 SWAP1 SWAP5 MSTORE PUSH1 0xA0 DUP8 ADD SWAP3 SWAP1 SWAP3 MSTORE PUSH1 0xC0 DUP7 ADD MSTORE PUSH1 0xE0 DUP6 ADD MSTORE PUSH2 0x100 DUP5 ADD MSTORE PUSH2 0x120 DUP4 ADD MSTORE ISZERO ISZERO PUSH2 0x140 DUP3 ADD MSTORE PUSH2 0x160 DUP2 ADD SWAP2 SWAP1 SWAP2 MSTORE PUSH2 0x180 ADD PUSH2 0x15B JUMP JUMPDEST CALLVALUE DUP1 ISZERO PUSH2 0x230 JUMPI PUSH1 0x0 DUP1 REVERT JUMPDEST POP PUSH2 0x23A PUSH1 0x1D SLOAD DUP2 JUMP JUMPDEST PUSH1 0x40 MLOAD SWAP1 DUP2 MSTORE PUSH1 0x20 ADD PUSH2 0x15B JUMP JUMPDEST CALLVALUE DUP1 ISZERO PUSH2 0x254 JUMPI PUSH1 0x0 DUP1 REVERT JUMPDEST POP PUSH2 0x23A PUSH2 0x4F2 JUMP JUMPDEST CALLVALUE DUP1 ISZERO PUSH2 0x269 JUMPI PUSH1 0x0 DUP1 REVERT JUMPDEST POP PUSH2 0x23A PUSH1 0x1A SLOAD DUP2 JUMP JUMPDEST CALLVALUE DUP1 ISZERO PUSH2 0x27F JUMPI PUSH1 0x0 DUP1 REVERT JUMPDEST POP PUSH2 0x23A PUSH2 0x28E CALLDATASIZE PUSH1 0x4 PUSH2 0x19BD JUMP JUMPDEST PUSH1 0x3 PUSH1 0x20 MSTORE PUSH1 0x0 SWAP1 DUP2 MSTORE PUSH1 0x40 SWAP1 KECCAK256 SLOAD DUP2 JUMP JUMPDEST CALLVALUE DUP1 ISZERO PUSH2 0x2AC JUMPI PUSH1 0x0 DUP1 REVERT JUMPDEST POP PUSH2 0x2B5 PUSH2 0x51B JUMP JUMPDEST STOP JUMPDEST PUSH2 0x2B5 PUSH2 0x586 JUMP JUMPDEST CALLVALUE DUP1 ISZERO PUSH2 0x2CB JUMPI PUSH1 0x0 DUP1 REVERT JUMPDEST POP PUSH1 0x1 SLOAD PUSH1 0x1 PUSH1 0x1 PUSH1 0xA0 SHL SUB AND JUMPDEST PUSH1 0x40 MLOAD PUSH1 0x1 PUSH1 0x1 PUSH1 0xA0 SHL SUB SWAP1 SWAP2 AND DUP2 MSTORE PUSH1 0x20 ADD PUSH2 0x15B JUMP JUMPDEST CALLVALUE DUP1 ISZERO PUSH2 0x2FD JUMPI PUSH1 0x0 DUP1 REVERT JUMPDEST POP PUSH2 0x2B5 PUSH2 0x5B5 JUMP JUMPDEST CALLVALUE DUP1 ISZERO PUSH2 0x312 JUMPI PUSH1 0x0 DUP1 REVERT JUMPDEST POP PUSH2 0x2B5 PUSH2 0x321 CALLDATASIZE PUSH1 0x4 PUSH2 0x19E1 JUMP JUMPDEST PUSH2 0x8AF JUMP JUMPDEST CALLVALUE DUP1 ISZERO PUSH2 0x332 JUMPI PUSH1 0x0 DUP1 REVERT JUMPDEST POP PUSH2 0x2B5 PUSH2 0xC2A JUMP JUMPDEST CALLVALUE DUP1 ISZERO PUSH2 0x347 JUMPI PUSH1 0x0 DUP1 REVERT JUMPDEST POP PUSH2 0x2B5 PUSH2 0xE01 JUMP JUMPDEST CALLVALUE DUP1 ISZERO PUSH2 0x35C JUMPI PUSH1 0x0 DUP1 REVERT JUMPDEST POP PUSH1 0x4 SLOAD PUSH1 0x5 SLOAD PUSH1 0x6 SLOAD PUSH1 0x7 SLOAD PUSH1 0x8 SLOAD PUSH1 0x9 SLOAD PUSH2 0x387 SWAP6 SWAP5 SWAP4 SWAP3 SWAP2 SWAP1 PUSH1 0xFF DUP1 DUP3 AND SWAP2 PUSH2 0x100 SWAP1 DIV AND DUP8 JUMP JUMPDEST PUSH1 0x40 DUP1 MLOAD SWAP8 DUP9 MSTORE PUSH1 0x20 DUP9 ADD SWAP7 SWAP1 SWAP7 MSTORE SWAP5 DUP7 ADD SWAP4 SWAP1 SWAP4 MSTORE PUSH1 0x60 DUP6 ADD SWAP2 SWAP1 SWAP2 MSTORE PUSH1 0x80 DUP5 ADD MSTORE ISZERO ISZERO PUSH1 0xA0 DUP4 ADD MSTORE ISZERO ISZERO PUSH1 0xC0 DUP3 ADD MSTORE PUSH1 0xE0 ADD PUSH2 0x15B JUMP JUMPDEST CALLVALUE DUP1 ISZERO PUSH2 0x3CC JUMPI PUSH1 0x0 DUP1 REVERT JUMPDEST POP PUSH1 0x19 SLOAD PUSH2 0x2D9 SWAP1 PUSH1 0x1 PUSH1 0x1 PUSH1 0xA0 SHL SUB AND DUP2 JUMP JUMPDEST PUSH2 0x2B5 PUSH2 0x3EE CALLDATASIZE PUSH1 0x4 PUSH2 0x1AE0 JUMP JUMPDEST PUSH2 0x102A JUMP JUMPDEST CALLVALUE DUP1 ISZERO PUSH2 0x3FF JUMPI PUSH1 0x0 DUP1 REVERT JUMPDEST POP PUSH2 0x408 PUSH2 0x13F9 JUMP JUMPDEST PUSH1 0x40 MLOAD SWAP1 ISZERO ISZERO DUP2 MSTORE PUSH1 0x20 ADD PUSH2 0x15B JUMP JUMPDEST CALLVALUE DUP1 ISZERO PUSH2 0x424 JUMPI PUSH1 0x0 DUP1 REVERT JUMPDEST POP PUSH2 0x462 PUSH2 0x433 CALLDATASIZE PUSH1 0x4 PUSH2 0x19BD JUMP JUMPDEST PUSH1 0x2 PUSH1 0x20 DUP2 SWAP1 MSTORE PUSH1 0x0 SWAP2 DUP3 MSTORE PUSH1 0x40 SWAP1 SWAP2 KECCAK256 DUP1 SLOAD PUSH1 0x1 DUP3 ADD SLOAD SWAP3 DUP3 ADD SLOAD PUSH1 0x3 DUP4 ADD SLOAD PUSH1 0x4 SWAP1 SWAP4 ADD SLOAD SWAP2 SWAP4 SWAP3 SWAP1 SWAP2 DUP6 JUMP JUMPDEST PUSH1 0x40 DUP1 MLOAD SWAP6 DUP7 MSTORE PUSH1 0x20 DUP7 ADD SWAP5 SWAP1 SWAP5 MSTORE SWAP3 DUP5 ADD SWAP2 SWAP1 SWAP2 MSTORE PUSH1 0x60 DUP4 ADD MSTORE PUSH1 0x80 DUP3 ADD MSTORE PUSH1 0xA0 ADD PUSH2 0x15B JUMP JUMPDEST CALLVALUE DUP1 ISZERO PUSH2 0x496 JUMPI PUSH1 0x0 DUP1 REVERT JUMPDEST POP PUSH2 0x2B5 PUSH2 0x4A5 CALLDATASIZE PUSH1 0x4 PUSH2 0x1AA6 JUMP JUMPDEST PUSH2 0x140B JUMP JUMPDEST CALLVALUE DUP1 ISZERO PUSH2 0x4B6 JUMPI PUSH1 0x0 DUP1 REVERT JUMPDEST POP PUSH2 0x2B5 PUSH2 0x4C5 CALLDATASIZE PUSH1 0x4 PUSH2 0x19BD JUMP JUMPDEST PUSH2 0x16C0 JUMP JUMPDEST CALLVALUE DUP1 ISZERO PUSH2 0x4D6 JUMPI PUSH1 0x0 DUP1 REVERT JUMPDEST POP PUSH2 0x23A PUSH2 0x4E5 CALLDATASIZE PUSH1 0x4 PUSH2 0x19BD JUMP JUMPDEST PUSH1 0x1 PUSH1 0x1 PUSH1 0xA0 SHL SUB AND BALANCE SWAP1 JUMP JUMPDEST PUSH1 0x11 SLOAD PUSH1 0x0 SWAP1 TIMESTAMP LT ISZERO PUSH2 0x505 JUMPI POP PUSH1 0x0 SWAP1 JUMP JUMPDEST PUSH1 0x12 SLOAD TIMESTAMP GT ISZERO PUSH2 0x515 JUMPI POP PUSH1 0x2 SWAP1 JUMP JUMPDEST POP PUSH1 0x1 SWAP1 JUMP JUMPDEST PUSH1 0x1 SLOAD PUSH1 0x1 PUSH1 0x1 PUSH1 0xA0 SHL SUB AND CALLER EQ PUSH2 0x57A JUMPI PUSH1 0x40 MLOAD PUSH3 0x461BCD PUSH1 0xE5 SHL DUP2 MSTORE PUSH1 0x20 PUSH1 0x4 DUP3 ADD DUP2 SWAP1 MSTORE PUSH1 0x24 DUP3 ADD MSTORE PUSH32 0x4F776E61626C653A2063616C6C6572206973206E6F7420746865206F776E6572 PUSH1 0x44 DUP3 ADD MSTORE PUSH1 0x64 ADD JUMPDEST PUSH1 0x40 MLOAD DUP1 SWAP2 SUB SWAP1 REVERT JUMPDEST PUSH2 0x584 PUSH1 0x0 PUSH2 0x17A6 JUMP JUMPDEST JUMP JUMPDEST PUSH1 0x40 MLOAD CALLER SWAP1 SELFBALANCE DUP1 ISZERO PUSH2 0x8FC MUL SWAP2 PUSH1 0x0 DUP2 DUP2 DUP2 DUP6 DUP9 DUP9 CALL SWAP4 POP POP POP POP ISZERO DUP1 ISZERO PUSH2 0x5B2 JUMPI RETURNDATASIZE PUSH1 0x0 DUP1 RETURNDATACOPY RETURNDATASIZE PUSH1 0x0 REVERT JUMPDEST POP JUMP JUMPDEST PUSH1 0xD SLOAD PUSH1 0x1 PUSH1 0x1 PUSH1 0xA0 SHL SUB AND CALLER PUSH1 0x1 PUSH1 0x1 PUSH1 0xA0 SHL SUB AND EQ PUSH2 0x60D JUMPI PUSH1 0x40 MLOAD PUSH3 0x461BCD PUSH1 0xE5 SHL DUP2 MSTORE PUSH1 0x20 PUSH1 0x4 DUP3 ADD MSTORE PUSH1 0x12 PUSH1 0x24 DUP3 ADD MSTORE PUSH18 0x27B7363C90383932B9B0B6329037BBB732B9 PUSH1 0x71 SHL PUSH1 0x44 DUP3 ADD MSTORE PUSH1 0x64 ADD PUSH2 0x571 JUMP JUMPDEST PUSH1 0x2 PUSH1 0x0 SLOAD EQ ISZERO PUSH2 0x630 JUMPI PUSH1 0x40 MLOAD PUSH3 0x461BCD PUSH1 0xE5 SHL DUP2 MSTORE PUSH1 0x4 ADD PUSH2 0x571 SWAP1 PUSH2 0x1B84 JUMP JUMPDEST PUSH1 0x2 PUSH1 0x0 SWAP1 DUP2 SSTORE PUSH1 0xE SLOAD PUSH1 0x40 MLOAD PUSH4 0x70A08231 PUSH1 0xE0 SHL DUP2 MSTORE ADDRESS PUSH1 0x4 DUP3 ADD MSTORE PUSH1 0x1 PUSH1 0x1 PUSH1 0xA0 SHL SUB SWAP1 SWAP2 AND SWAP1 PUSH4 0x70A08231 SWAP1 PUSH1 0x24 ADD PUSH1 0x20 PUSH1 0x40 MLOAD DUP1 DUP4 SUB DUP2 DUP7 DUP1 EXTCODESIZE ISZERO DUP1 ISZERO PUSH2 0x67A JUMPI PUSH1 0x0 DUP1 REVERT JUMPDEST POP GAS STATICCALL ISZERO DUP1 ISZERO PUSH2 0x68E JUMPI RETURNDATASIZE PUSH1 0x0 DUP1 RETURNDATACOPY RETURNDATASIZE PUSH1 0x0 REVERT JUMPDEST POP POP POP POP PUSH1 0x40 MLOAD RETURNDATASIZE PUSH1 0x1F NOT PUSH1 0x1F DUP3 ADD AND DUP3 ADD DUP1 PUSH1 0x40 MSTORE POP DUP2 ADD SWAP1 PUSH2 0x6B2 SWAP2 SWAP1 PUSH2 0x1AF9 JUMP JUMPDEST PUSH1 0x4 SLOAD SWAP1 SWAP2 POP SELFBALANCE SWAP1 ISZERO PUSH2 0x6FA JUMPI PUSH1 0x6 SLOAD PUSH1 0x5 SLOAD PUSH2 0x6DA SWAP2 PUSH2 0x6D3 SWAP2 SWAP1 PUSH2 0x17F8 JUMP JUMPDEST DUP4 SWAP1 PUSH2 0x17F8 JUMP JUMPDEST PUSH1 0x7 SLOAD PUSH1 0x4 SLOAD SWAP2 SWAP4 POP PUSH2 0x6F7 SWAP2 PUSH2 0x6F0 SWAP2 PUSH2 0x17F8 JUMP JUMPDEST DUP3 SWAP1 PUSH2 0x17F8 JUMP JUMPDEST SWAP1 POP JUMPDEST PUSH1 0x9 SLOAD PUSH1 0xFF AND ISZERO PUSH2 0x74D JUMPI PUSH1 0x40 MLOAD PUSH3 0x461BCD PUSH1 0xE5 SHL DUP2 MSTORE PUSH1 0x20 PUSH1 0x4 DUP3 ADD MSTORE PUSH1 0x1D PUSH1 0x24 DUP3 ADD MSTORE PUSH32 0x4E6F7468696E6720666F72206F776E657220636C61696D20746F6B656E000000 PUSH1 0x44 DUP3 ADD MSTORE PUSH1 0x64 ADD PUSH2 0x571 JUMP JUMPDEST PUSH1 0x9 SLOAD PUSH2 0x100 SWAP1 DIV PUSH1 0xFF AND ISZERO PUSH2 0x7A5 JUMPI PUSH1 0x40 MLOAD PUSH3 0x461BCD PUSH1 0xE5 SHL DUP2 MSTORE PUSH1 0x20 PUSH1 0x4 DUP3 ADD MSTORE PUSH1 0x1E PUSH1 0x24 DUP3 ADD MSTORE PUSH32 0x4E6F7468696E6720666F72206F776E657220726566756E6420746F6B656E0000 PUSH1 0x44 DUP3 ADD MSTORE PUSH1 0x64 ADD PUSH2 0x571 JUMP JUMPDEST PUSH1 0x9 DUP1 SLOAD PUSH1 0xFF NOT AND PUSH1 0x1 OR SWAP1 SSTORE PUSH1 0x0 PUSH1 0x18 SSTORE PUSH1 0xE SLOAD PUSH1 0xD SLOAD PUSH1 0x6 SLOAD PUSH1 0x5 SLOAD PUSH1 0x1 PUSH1 0x1 PUSH1 0xA0 SHL SUB SWAP4 DUP5 AND SWAP4 PUSH4 0xA9059CBB SWAP4 AND SWAP2 PUSH2 0x7EC SWAP2 PUSH2 0x7E6 SWAP1 DUP9 SWAP1 PUSH2 0x17F8 JUMP JUMPDEST SWAP1 PUSH2 0x17F8 JUMP JUMPDEST PUSH1 0x40 MLOAD PUSH1 0x1 PUSH1 0x1 PUSH1 0xE0 SHL SUB NOT PUSH1 0xE0 DUP6 SWAP1 SHL AND DUP2 MSTORE PUSH1 0x1 PUSH1 0x1 PUSH1 0xA0 SHL SUB SWAP1 SWAP3 AND PUSH1 0x4 DUP4 ADD MSTORE PUSH1 0x24 DUP3 ADD MSTORE PUSH1 0x44 ADD PUSH1 0x20 PUSH1 0x40 MLOAD DUP1 DUP4 SUB DUP2 PUSH1 0x0 DUP8 DUP1 EXTCODESIZE ISZERO DUP1 ISZERO PUSH2 0x832 JUMPI PUSH1 0x0 DUP1 REVERT JUMPDEST POP GAS CALL ISZERO DUP1 ISZERO PUSH2 0x846 JUMPI RETURNDATASIZE PUSH1 0x0 DUP1 RETURNDATACOPY RETURNDATASIZE PUSH1 0x0 REVERT JUMPDEST POP POP POP POP PUSH1 0x40 MLOAD RETURNDATASIZE PUSH1 0x1F NOT PUSH1 0x1F DUP3 ADD AND DUP3 ADD DUP1 PUSH1 0x40 MSTORE POP DUP2 ADD SWAP1 PUSH2 0x86A SWAP2 SWAP1 PUSH2 0x1AC3 JUMP JUMPDEST POP PUSH1 0xD SLOAD PUSH1 0x40 MLOAD PUSH1 0x1 PUSH1 0x1 PUSH1 0xA0 SHL SUB SWAP1 SWAP2 AND SWAP1 DUP3 ISZERO PUSH2 0x8FC MUL SWAP1 DUP4 SWAP1 PUSH1 0x0 DUP2 DUP2 DUP2 DUP6 DUP9 DUP9 CALL SWAP4 POP POP POP POP ISZERO DUP1 ISZERO PUSH2 0x8A5 JUMPI RETURNDATASIZE PUSH1 0x0 DUP1 RETURNDATACOPY RETURNDATASIZE PUSH1 0x0 REVERT JUMPDEST POP POP PUSH1 0x1 PUSH1 0x0 SSTORE POP JUMP JUMPDEST PUSH1 0xD DUP1 SLOAD PUSH1 0x1 PUSH1 0x1 PUSH1 0xA0 SHL SUB DUP1 DUP8 AND PUSH1 0x1 PUSH1 0x1 PUSH1 0xA0 SHL SUB NOT SWAP3 DUP4 AND OR SWAP1 SWAP3 SSTORE PUSH1 0xE DUP1 SLOAD DUP7 DUP5 AND SWAP1 DUP4 AND DUP2 OR SWAP1 SWAP2 SSTORE PUSH1 0xF DUP1 SLOAD SWAP4 DUP7 AND SWAP4 SWAP1 SWAP3 AND SWAP3 SWAP1 SWAP3 OR SWAP1 SSTORE PUSH1 0x40 DUP1 MLOAD PUSH4 0x313CE567 PUSH1 0xE0 SHL DUP2 MSTORE SWAP1 MLOAD PUSH4 0x313CE567 SWAP2 PUSH1 0x4 DUP1 DUP3 ADD SWAP3 PUSH1 0x20 SWAP3 SWAP1 SWAP2 SWAP1 DUP3 SWAP1 SUB ADD DUP2 DUP7 DUP1 EXTCODESIZE ISZERO DUP1 ISZERO PUSH2 0x924 JUMPI PUSH1 0x0 DUP1 REVERT JUMPDEST POP GAS STATICCALL ISZERO DUP1 ISZERO PUSH2 0x938 JUMPI RETURNDATASIZE PUSH1 0x0 DUP1 RETURNDATACOPY RETURNDATASIZE PUSH1 0x0 REVERT JUMPDEST POP POP POP POP PUSH1 0x40 MLOAD RETURNDATASIZE PUSH1 0x1F NOT PUSH1 0x1F DUP3 ADD AND DUP3 ADD DUP1 PUSH1 0x40 MSTORE POP DUP2 ADD SWAP1 PUSH2 0x95C SWAP2 SWAP1 PUSH2 0x1AF9 JUMP JUMPDEST PUSH2 0x967 SWAP1 PUSH1 0xA PUSH2 0x1C38 JUMP JUMPDEST DUP2 MLOAD PUSH2 0x973 SWAP2 SWAP1 PUSH2 0x1CE0 JUMP JUMPDEST PUSH1 0x10 SSTORE PUSH1 0x20 DUP1 DUP3 ADD MLOAD PUSH1 0x11 SSTORE PUSH1 0x40 DUP1 DUP4 ADD MLOAD PUSH1 0x12 SSTORE PUSH1 0x60 DUP4 ADD MLOAD PUSH1 0x13 SSTORE PUSH1 0xF SLOAD DUP2 MLOAD PUSH4 0x313CE567 PUSH1 0xE0 SHL DUP2 MSTORE SWAP2 MLOAD PUSH1 0x1 PUSH1 0x1 PUSH1 0xA0 SHL SUB SWAP1 SWAP2 AND SWAP3 PUSH4 0x313CE567 SWAP3 PUSH1 0x4 DUP1 DUP3 ADD SWAP4 SWAP2 DUP3 SWAP1 SUB ADD DUP2 DUP7 DUP1 EXTCODESIZE ISZERO DUP1 ISZERO PUSH2 0x9CE JUMPI PUSH1 0x0 DUP1 REVERT JUMPDEST POP GAS STATICCALL ISZERO DUP1 ISZERO PUSH2 0x9E2 JUMPI RETURNDATASIZE PUSH1 0x0 DUP1 RETURNDATACOPY RETURNDATASIZE PUSH1 0x0 REVERT JUMPDEST POP POP POP POP PUSH1 0x40 MLOAD RETURNDATASIZE PUSH1 0x1F NOT PUSH1 0x1F DUP3 ADD AND DUP3 ADD DUP1 PUSH1 0x40 MSTORE POP DUP2 ADD SWAP1 PUSH2 0xA06 SWAP2 SWAP1 PUSH2 0x1AF9 JUMP JUMPDEST PUSH2 0xA11 SWAP1 PUSH1 0xA PUSH2 0x1C38 JUMP JUMPDEST PUSH1 0x80 DUP3 ADD MLOAD PUSH2 0xA20 SWAP2 SWAP1 PUSH2 0x1CE0 JUMP JUMPDEST PUSH1 0x14 SSTORE PUSH1 0xA0 DUP2 ADD MLOAD PUSH1 0x15 SSTORE PUSH1 0xC0 DUP2 ADD MLOAD PUSH1 0x16 SSTORE PUSH1 0xF SLOAD PUSH1 0x40 DUP1 MLOAD PUSH4 0x313CE567 PUSH1 0xE0 SHL DUP2 MSTORE SWAP1 MLOAD PUSH1 0x1 PUSH1 0x1 PUSH1 0xA0 SHL SUB SWAP1 SWAP3 AND SWAP2 PUSH4 0x313CE567 SWAP2 PUSH1 0x4 DUP1 DUP3 ADD SWAP3 PUSH1 0x20 SWAP3 SWAP1 SWAP2 SWAP1 DUP3 SWAP1 SUB ADD DUP2 DUP7 DUP1 EXTCODESIZE ISZERO DUP1 ISZERO PUSH2 0xA78 JUMPI PUSH1 0x0 DUP1 REVERT JUMPDEST POP GAS STATICCALL ISZERO DUP1 ISZERO PUSH2 0xA8C JUMPI RETURNDATASIZE PUSH1 0x0 DUP1 RETURNDATACOPY RETURNDATASIZE PUSH1 0x0 REVERT JUMPDEST POP POP POP POP PUSH1 0x40 MLOAD RETURNDATASIZE PUSH1 0x1F NOT PUSH1 0x1F DUP3 ADD AND DUP3 ADD DUP1 PUSH1 0x40 MSTORE POP DUP2 ADD SWAP1 PUSH2 0xAB0 SWAP2 SWAP1 PUSH2 0x1AF9 JUMP JUMPDEST PUSH2 0xABB SWAP1 PUSH1 0xA PUSH2 0x1C38 JUMP JUMPDEST PUSH1 0xE0 DUP3 ADD MLOAD PUSH2 0xACA SWAP2 SWAP1 PUSH2 0x1CE0 JUMP JUMPDEST PUSH1 0xB SSTORE PUSH1 0xF SLOAD PUSH1 0x40 DUP1 MLOAD PUSH4 0x313CE567 PUSH1 0xE0 SHL DUP2 MSTORE SWAP1 MLOAD PUSH1 0x1 PUSH1 0x1 PUSH1 0xA0 SHL SUB SWAP1 SWAP3 AND SWAP2 PUSH4 0x313CE567 SWAP2 PUSH1 0x4 DUP1 DUP3 ADD SWAP3 PUSH1 0x20 SWAP3 SWAP1 SWAP2 SWAP1 DUP3 SWAP1 SUB ADD DUP2 DUP7 DUP1 EXTCODESIZE ISZERO DUP1 ISZERO PUSH2 0xB12 JUMPI PUSH1 0x0 DUP1 REVERT JUMPDEST POP GAS STATICCALL ISZERO DUP1 ISZERO PUSH2 0xB26 JUMPI RETURNDATASIZE PUSH1 0x0 DUP1 RETURNDATACOPY RETURNDATASIZE PUSH1 0x0 REVERT JUMPDEST POP POP POP POP PUSH1 0x40 MLOAD RETURNDATASIZE PUSH1 0x1F NOT PUSH1 0x1F DUP3 ADD AND DUP3 ADD DUP1 PUSH1 0x40 MSTORE POP DUP2 ADD SWAP1 PUSH2 0xB4A SWAP2 SWAP1 PUSH2 0x1AF9 JUMP JUMPDEST PUSH2 0xB55 SWAP1 PUSH1 0xA PUSH2 0x1C38 JUMP JUMPDEST PUSH2 0x100 DUP3 ADD MLOAD PUSH2 0xB65 SWAP2 SWAP1 PUSH2 0x1CE0 JUMP JUMPDEST PUSH1 0xC SSTORE PUSH1 0xF SLOAD PUSH1 0x19 SLOAD PUSH1 0x17 DUP1 SLOAD PUSH1 0xFF NOT AND PUSH1 0x1 PUSH1 0x1 PUSH1 0xA0 SHL SUB SWAP3 DUP4 AND SWAP3 SWAP1 SWAP4 AND SWAP2 DUP3 EQ SWAP3 SWAP1 SWAP3 OR SWAP1 SWAP2 SSTORE PUSH1 0x40 DUP1 MLOAD PUSH4 0x313CE567 PUSH1 0xE0 SHL DUP2 MSTORE SWAP1 MLOAD PUSH4 0x313CE567 SWAP2 PUSH1 0x4 DUP1 DUP3 ADD SWAP3 PUSH1 0x20 SWAP3 SWAP1 SWAP2 SWAP1 DUP3 SWAP1 SUB ADD DUP2 DUP7 DUP1 EXTCODESIZE ISZERO DUP1 ISZERO PUSH2 0xBC5 JUMPI PUSH1 0x0 DUP1 REVERT JUMPDEST POP GAS STATICCALL ISZERO DUP1 ISZERO PUSH2 0xBD9 JUMPI RETURNDATASIZE PUSH1 0x0 DUP1 RETURNDATACOPY RETURNDATASIZE PUSH1 0x0 REVERT JUMPDEST POP POP POP POP PUSH1 0x40 MLOAD RETURNDATASIZE PUSH1 0x1F NOT PUSH1 0x1F DUP3 ADD AND DUP3 ADD DUP1 PUSH1 0x40 MSTORE POP DUP2 ADD SWAP1 PUSH2 0xBFD SWAP2 SWAP1 PUSH2 0x1AF9 JUMP JUMPDEST PUSH2 0xC08 SWAP1 PUSH1 0xA PUSH2 0x1C38 JUMP JUMPDEST PUSH1 0xB SLOAD PUSH1 0x10 SLOAD PUSH2 0xC17 SWAP2 PUSH2 0x1804 JUMP JUMPDEST PUSH2 0xC21 SWAP2 SWAP1 PUSH2 0x1BD3 JUMP JUMPDEST PUSH1 0x18 SSTORE POP POP POP POP JUMP JUMPDEST PUSH1 0x2 PUSH1 0x0 SLOAD EQ ISZERO PUSH2 0xC4D JUMPI PUSH1 0x40 MLOAD PUSH3 0x461BCD PUSH1 0xE5 SHL DUP2 MSTORE PUSH1 0x4 ADD PUSH2 0x571 SWAP1 PUSH2 0x1B84 JUMP JUMPDEST PUSH1 0x2 PUSH1 0x0 SSTORE PUSH2 0xC5A PUSH2 0x4F2 JUMP JUMPDEST PUSH1 0x1 EQ PUSH2 0xC98 JUMPI PUSH1 0x40 MLOAD PUSH3 0x461BCD PUSH1 0xE5 SHL DUP2 MSTORE PUSH1 0x20 PUSH1 0x4 DUP3 ADD MSTORE PUSH1 0xC PUSH1 0x24 DUP3 ADD MSTORE PUSH12 0x53616C652073756365737373 PUSH1 0xA0 SHL PUSH1 0x44 DUP3 ADD MSTORE PUSH1 0x64 ADD PUSH2 0x571 JUMP JUMPDEST PUSH1 0x7 SLOAD PUSH1 0x4 SLOAD PUSH1 0x0 SWAP2 PUSH2 0xCAA SWAP2 PUSH2 0x1CFF JUMP JUMPDEST GT PUSH2 0xCC7 JUMPI PUSH1 0x40 MLOAD PUSH3 0x461BCD PUSH1 0xE5 SHL DUP2 MSTORE PUSH1 0x4 ADD PUSH2 0x571 SWAP1 PUSH2 0x1B4D JUMP JUMPDEST CALLER PUSH1 0x0 SWAP1 DUP2 MSTORE PUSH1 0x2 PUSH1 0x20 MSTORE PUSH1 0x40 SWAP1 KECCAK256 DUP1 SLOAD PUSH2 0xD1E JUMPI PUSH1 0x40 MLOAD PUSH3 0x461BCD PUSH1 0xE5 SHL DUP2 MSTORE PUSH1 0x20 PUSH1 0x4 DUP3 ADD MSTORE PUSH1 0x17 PUSH1 0x24 DUP3 ADD MSTORE PUSH23 0x165BDD481A185D99481B9BDD08189BDD59DA1D081E595D PUSH1 0x4A SHL PUSH1 0x44 DUP3 ADD MSTORE PUSH1 0x64 ADD PUSH2 0x571 JUMP JUMPDEST PUSH1 0x4 DUP2 ADD SLOAD DUP2 SLOAD GT PUSH2 0xD63 JUMPI PUSH1 0x40 MLOAD PUSH3 0x461BCD PUSH1 0xE5 SHL DUP2 MSTORE PUSH1 0x20 PUSH1 0x4 DUP3 ADD MSTORE PUSH1 0xE PUSH1 0x24 DUP3 ADD MSTORE PUSH14 0x165BDD481C99599D5B9908185B1B PUSH1 0x92 SHL PUSH1 0x44 DUP3 ADD MSTORE PUSH1 0x64 ADD PUSH2 0x571 JUMP JUMPDEST DUP1 SLOAD PUSH1 0x15 SLOAD PUSH1 0x0 SWAP2 PUSH2 0xD8E SWAP2 PUSH2 0x3E8 SWAP2 PUSH2 0xD88 SWAP2 PUSH2 0xD82 SWAP1 DUP5 SWAP1 PUSH2 0x17F8 JUMP JUMPDEST SWAP1 PUSH2 0x1804 JUMP JUMPDEST SWAP1 PUSH2 0x1810 JUMP JUMPDEST DUP3 SLOAD SWAP1 SWAP2 POP PUSH2 0xD9E SWAP1 DUP3 SWAP1 PUSH2 0x1CFF JUMP JUMPDEST PUSH1 0x1D PUSH1 0x0 DUP3 DUP3 SLOAD PUSH2 0xDAF SWAP2 SWAP1 PUSH2 0x1BBB JUMP JUMPDEST SWAP1 SWAP2 SSTORE POP POP PUSH1 0x7 DUP1 SLOAD DUP3 SWAP2 SWAP1 PUSH1 0x0 SWAP1 PUSH2 0xDC9 SWAP1 DUP5 SWAP1 PUSH2 0x1BBB JUMP JUMPDEST SWAP1 SWAP2 SSTORE POP POP TIMESTAMP PUSH1 0x2 DUP4 ADD SSTORE PUSH1 0x40 MLOAD CALLER SWAP1 DUP3 ISZERO PUSH2 0x8FC MUL SWAP1 DUP4 SWAP1 PUSH1 0x0 DUP2 DUP2 DUP2 DUP6 DUP9 DUP9 CALL SWAP4 POP POP POP POP ISZERO DUP1 ISZERO PUSH2 0x8A5 JUMPI RETURNDATASIZE PUSH1 0x0 DUP1 RETURNDATACOPY RETURNDATASIZE PUSH1 0x0 REVERT JUMPDEST PUSH1 0x2 PUSH1 0x0 SLOAD EQ ISZERO PUSH2 0xE24 JUMPI PUSH1 0x40 MLOAD PUSH3 0x461BCD PUSH1 0xE5 SHL DUP2 MSTORE PUSH1 0x4 ADD PUSH2 0x571 SWAP1 PUSH2 0x1B84 JUMP JUMPDEST PUSH1 0x2 PUSH1 0x0 SSTORE PUSH2 0xE31 PUSH2 0x4F2 JUMP JUMPDEST PUSH1 0x1 EQ PUSH2 0xE6F JUMPI PUSH1 0x40 MLOAD PUSH3 0x461BCD PUSH1 0xE5 SHL DUP2 MSTORE PUSH1 0x20 PUSH1 0x4 DUP3 ADD MSTORE PUSH1 0xC PUSH1 0x24 DUP3 ADD MSTORE PUSH12 0x53616C652073756365737373 PUSH1 0xA0 SHL PUSH1 0x44 DUP3 ADD MSTORE PUSH1 0x64 ADD PUSH2 0x571 JUMP JUMPDEST PUSH1 0x6 SLOAD PUSH1 0x5 SLOAD PUSH1 0x0 SWAP2 PUSH2 0xE81 SWAP2 PUSH2 0x1CFF JUMP JUMPDEST GT PUSH2 0xE9E JUMPI PUSH1 0x40 MLOAD PUSH3 0x461BCD PUSH1 0xE5 SHL DUP2 MSTORE PUSH1 0x4 ADD PUSH2 0x571 SWAP1 PUSH2 0x1B4D JUMP JUMPDEST CALLER PUSH1 0x0 SWAP1 DUP2 MSTORE PUSH1 0x2 PUSH1 0x20 MSTORE PUSH1 0x40 SWAP1 KECCAK256 PUSH1 0x1 DUP2 ADD SLOAD PUSH2 0xEF8 JUMPI PUSH1 0x40 MLOAD PUSH3 0x461BCD PUSH1 0xE5 SHL DUP2 MSTORE PUSH1 0x20 PUSH1 0x4 DUP3 ADD MSTORE PUSH1 0x17 PUSH1 0x24 DUP3 ADD MSTORE PUSH23 0x165BDD481A185D99481B9BDD08189BDD59DA1D081E595D PUSH1 0x4A SHL PUSH1 0x44 DUP3 ADD MSTORE PUSH1 0x64 ADD PUSH2 0x571 JUMP JUMPDEST DUP1 PUSH1 0x3 ADD SLOAD DUP2 PUSH1 0x1 ADD SLOAD GT PUSH2 0xF40 JUMPI PUSH1 0x40 MLOAD PUSH3 0x461BCD PUSH1 0xE5 SHL DUP2 MSTORE PUSH1 0x20 PUSH1 0x4 DUP3 ADD MSTORE PUSH1 0xE PUSH1 0x24 DUP3 ADD MSTORE PUSH14 0x165BDD4818DB185A5B48185B1B1B PUSH1 0x92 SHL PUSH1 0x44 DUP3 ADD MSTORE PUSH1 0x64 ADD PUSH2 0x571 JUMP JUMPDEST PUSH1 0x0 PUSH2 0xF6A PUSH2 0x3E8 PUSH2 0xD88 DUP5 PUSH1 0x1 ADD SLOAD PUSH2 0xD82 PUSH1 0xD PUSH1 0x9 ADD SLOAD PUSH2 0x3E8 PUSH2 0x17F8 SWAP1 SWAP2 SWAP1 PUSH4 0xFFFFFFFF AND JUMP JUMPDEST SWAP1 POP DUP1 PUSH1 0x4 PUSH1 0x2 ADD PUSH1 0x0 DUP3 DUP3 SLOAD PUSH2 0xF81 SWAP2 SWAP1 PUSH2 0x1BBB JUMP JUMPDEST SWAP1 SWAP2 SSTORE POP POP PUSH1 0x18 DUP1 SLOAD DUP3 SWAP2 SWAP1 PUSH1 0x0 SWAP1 PUSH2 0xF9B SWAP1 DUP5 SWAP1 PUSH2 0x1CFF JUMP JUMPDEST SWAP1 SWAP2 SSTORE POP POP TIMESTAMP PUSH1 0x2 DUP4 ADD SSTORE PUSH1 0xE SLOAD PUSH1 0x40 MLOAD PUSH4 0xA9059CBB PUSH1 0xE0 SHL DUP2 MSTORE CALLER PUSH1 0x4 DUP3 ADD MSTORE PUSH1 0x24 DUP2 ADD DUP4 SWAP1 MSTORE PUSH1 0x1 PUSH1 0x1 PUSH1 0xA0 SHL SUB SWAP1 SWAP2 AND SWAP1 PUSH4 0xA9059CBB SWAP1 PUSH1 0x44 ADD PUSH1 0x20 PUSH1 0x40 MLOAD DUP1 DUP4 SUB DUP2 PUSH1 0x0 DUP8 DUP1 EXTCODESIZE ISZERO DUP1 ISZERO PUSH2 0xFF2 JUMPI PUSH1 0x0 DUP1 REVERT JUMPDEST POP GAS CALL ISZERO DUP1 ISZERO PUSH2 0x1006 JUMPI RETURNDATASIZE PUSH1 0x0 DUP1 RETURNDATACOPY RETURNDATASIZE PUSH1 0x0 REVERT JUMPDEST POP POP POP POP PUSH1 0x40 MLOAD RETURNDATASIZE PUSH1 0x1F NOT PUSH1 0x1F DUP3 ADD AND DUP3 ADD DUP1 PUSH1 0x40 MSTORE POP DUP2 ADD SWAP1 PUSH2 0x8A5 SWAP2 SWAP1 PUSH2 0x1AC3 JUMP JUMPDEST PUSH1 0x2 PUSH1 0x0 SLOAD EQ ISZERO PUSH2 0x104D JUMPI PUSH1 0x40 MLOAD PUSH3 0x461BCD PUSH1 0xE5 SHL DUP2 MSTORE PUSH1 0x4 ADD PUSH2 0x571 SWAP1 PUSH2 0x1B84 JUMP JUMPDEST PUSH1 0x2 PUSH1 0x0 DUP2 DUP2 SSTORE CALLER DUP2 MSTORE PUSH1 0x20 SWAP2 SWAP1 SWAP2 MSTORE PUSH1 0x40 DUP2 KECCAK256 SWAP1 DUP3 SWAP1 DUP2 SWAP1 PUSH2 0x3E8 CALLVALUE DUP4 GT ISZERO PUSH2 0x10B9 JUMPI PUSH1 0x40 MLOAD PUSH3 0x461BCD PUSH1 0xE5 SHL DUP2 MSTORE PUSH1 0x20 PUSH1 0x4 DUP3 ADD MSTORE PUSH1 0x1A PUSH1 0x24 DUP3 ADD MSTORE PUSH32 0x506C656173652070726F76696465206E617669746520636F696E000000000000 PUSH1 0x44 DUP3 ADD MSTORE PUSH1 0x64 ADD PUSH2 0x571 JUMP JUMPDEST PUSH1 0x13 SLOAD DUP4 LT ISZERO PUSH2 0x10FE JUMPI PUSH1 0x40 MLOAD PUSH3 0x461BCD PUSH1 0xE5 SHL DUP2 MSTORE PUSH1 0x20 PUSH1 0x4 DUP3 ADD MSTORE PUSH1 0x10 PUSH1 0x24 DUP3 ADD MSTORE PUSH16 0x4E6F7420656E6F7567682076616C7565 PUSH1 0x80 SHL PUSH1 0x44 DUP3 ADD MSTORE PUSH1 0x64 ADD PUSH2 0x571 JUMP JUMPDEST PUSH1 0x14 SLOAD DUP4 GT ISZERO PUSH2 0x1141 JUMPI PUSH1 0x40 MLOAD PUSH3 0x461BCD PUSH1 0xE5 SHL DUP2 MSTORE PUSH1 0x20 PUSH1 0x4 DUP3 ADD MSTORE PUSH1 0xE PUSH1 0x24 DUP3 ADD MSTORE PUSH14 0x4F766572666C6F772076616C7565 PUSH1 0x90 SHL PUSH1 0x44 DUP3 ADD MSTORE PUSH1 0x64 ADD PUSH2 0x571 JUMP JUMPDEST PUSH2 0x1149 PUSH2 0x13F9 JUMP JUMPDEST PUSH2 0x1179 JUMPI PUSH2 0x116A DUP2 PUSH2 0xD88 DUP6 PUSH2 0xD82 PUSH1 0x1A SLOAD DUP7 PUSH2 0x17F8 SWAP1 SWAP2 SWAP1 PUSH4 0xFFFFFFFF AND JUMP JUMPDEST SWAP3 POP PUSH2 0x1176 DUP4 DUP6 PUSH2 0x1CFF JUMP JUMPDEST SWAP2 POP JUMPDEST DUP5 SLOAD PUSH1 0x14 SLOAD PUSH1 0x0 SWAP2 PUSH2 0x118A SWAP2 PUSH2 0x1CFF JUMP JUMPDEST PUSH1 0x4 SLOAD PUSH1 0x18 SLOAD SWAP2 SWAP3 POP PUSH1 0x0 SWAP2 PUSH2 0x11A0 SWAP2 SWAP1 PUSH2 0x1CFF JUMP JUMPDEST SWAP1 POP PUSH1 0x0 DUP2 DUP4 GT PUSH2 0x11B1 JUMPI DUP3 PUSH2 0x11B3 JUMP JUMPDEST DUP2 JUMPDEST SWAP1 POP DUP1 DUP7 GT ISZERO PUSH2 0x11F7 JUMPI PUSH1 0x40 MLOAD PUSH3 0x461BCD PUSH1 0xE5 SHL DUP2 MSTORE PUSH1 0x20 PUSH1 0x4 DUP3 ADD MSTORE PUSH1 0xF PUSH1 0x24 DUP3 ADD MSTORE PUSH15 0x53616C652069732073756363657373 PUSH1 0x88 SHL PUSH1 0x44 DUP3 ADD MSTORE PUSH1 0x64 ADD PUSH2 0x571 JUMP JUMPDEST PUSH1 0x0 PUSH2 0x129E PUSH1 0xD PUSH1 0x2 ADD PUSH1 0x0 SWAP1 SLOAD SWAP1 PUSH2 0x100 EXP SWAP1 DIV PUSH1 0x1 PUSH1 0x1 PUSH1 0xA0 SHL SUB AND PUSH1 0x1 PUSH1 0x1 PUSH1 0xA0 SHL SUB AND PUSH4 0x313CE567 PUSH1 0x40 MLOAD DUP2 PUSH4 0xFFFFFFFF AND PUSH1 0xE0 SHL DUP2 MSTORE PUSH1 0x4 ADD PUSH1 0x20 PUSH1 0x40 MLOAD DUP1 DUP4 SUB DUP2 DUP7 DUP1 EXTCODESIZE ISZERO DUP1 ISZERO PUSH2 0x124D JUMPI PUSH1 0x0 DUP1 REVERT JUMPDEST POP GAS STATICCALL ISZERO DUP1 ISZERO PUSH2 0x1261 JUMPI RETURNDATASIZE PUSH1 0x0 DUP1 RETURNDATACOPY RETURNDATASIZE PUSH1 0x0 REVERT JUMPDEST POP POP POP POP PUSH1 0x40 MLOAD RETURNDATASIZE PUSH1 0x1F NOT PUSH1 0x1F DUP3 ADD AND DUP3 ADD DUP1 PUSH1 0x40 MSTORE POP DUP2 ADD SWAP1 PUSH2 0x1285 SWAP2 SWAP1 PUSH2 0x1AF9 JUMP JUMPDEST PUSH2 0x1290 SWAP1 PUSH1 0xA PUSH2 0x1C38 JUMP JUMPDEST PUSH1 0x10 SLOAD PUSH2 0xD88 SWAP1 DUP11 SWAP1 PUSH2 0x1804 JUMP JUMPDEST SWAP1 POP DUP8 DUP10 PUSH1 0x0 ADD PUSH1 0x0 DUP3 DUP3 SLOAD PUSH2 0x12B4 SWAP2 SWAP1 PUSH2 0x1BBB JUMP JUMPDEST SWAP3 POP POP DUP2 SWAP1 SSTORE POP DUP1 DUP10 PUSH1 0x1 ADD PUSH1 0x0 DUP3 DUP3 SLOAD PUSH2 0x12CF SWAP2 SWAP1 PUSH2 0x1BBB JUMP JUMPDEST SWAP1 SWAP2 SSTORE POP POP PUSH1 0x4 DUP1 SLOAD DUP9 SWAP2 SWAP1 PUSH1 0x0 SWAP1 PUSH2 0x12E9 SWAP1 DUP5 SWAP1 PUSH2 0x1BBB JUMP JUMPDEST SWAP1 SWAP2 SSTORE POP POP PUSH1 0x5 DUP1 SLOAD DUP3 SWAP2 SWAP1 PUSH1 0x0 SWAP1 PUSH2 0x1303 SWAP1 DUP5 SWAP1 PUSH2 0x1BBB JUMP JUMPDEST SWAP1 SWAP2 SSTORE POP POP PUSH1 0x8 DUP1 SLOAD SWAP1 PUSH1 0x0 PUSH2 0x1318 DUP4 PUSH2 0x1D16 JUMP JUMPDEST SWAP1 SWAP2 SSTORE POP POP CALLER PUSH1 0x0 SWAP1 DUP2 MSTORE PUSH1 0x3 PUSH1 0x20 MSTORE PUSH1 0x40 DUP2 KECCAK256 DUP1 SLOAD DUP9 SWAP3 SWAP1 PUSH2 0x133C SWAP1 DUP5 SWAP1 PUSH2 0x1BBB JUMP JUMPDEST SWAP3 POP POP DUP2 SWAP1 SSTORE POP DUP6 PUSH1 0x1D PUSH1 0x0 DUP3 DUP3 SLOAD PUSH2 0x1355 SWAP2 SWAP1 PUSH2 0x1BBB JUMP JUMPDEST SWAP1 SWAP2 SSTORE POP POP PUSH1 0x17 SLOAD PUSH1 0xFF AND DUP1 ISZERO PUSH2 0x1375 JUMPI POP CALLVALUE PUSH2 0x1372 DUP8 DUP10 PUSH2 0x1BBB JUMP JUMPDEST GT ISZERO JUMPDEST ISZERO PUSH2 0x13BD JUMPI CALLER PUSH2 0x8FC DUP8 PUSH2 0x1389 DUP11 CALLVALUE PUSH2 0x1CFF JUMP JUMPDEST PUSH2 0x1393 SWAP2 SWAP1 PUSH2 0x1CFF JUMP JUMPDEST PUSH1 0x40 MLOAD DUP2 ISZERO SWAP1 SWAP3 MUL SWAP2 PUSH1 0x0 DUP2 DUP2 DUP2 DUP6 DUP9 DUP9 CALL SWAP4 POP POP POP POP ISZERO DUP1 ISZERO PUSH2 0x13BB JUMPI RETURNDATASIZE PUSH1 0x0 DUP1 RETURNDATACOPY RETURNDATASIZE PUSH1 0x0 REVERT JUMPDEST POP JUMPDEST PUSH1 0x17 SLOAD PUSH1 0xFF AND PUSH2 0x13E8 JUMPI PUSH1 0xF SLOAD PUSH2 0x13E8 SWAP1 PUSH1 0x1 PUSH1 0x1 PUSH1 0xA0 SHL SUB AND CALLER ADDRESS PUSH2 0x13E3 DUP11 DUP13 PUSH2 0x1BBB JUMP JUMPDEST PUSH2 0x181C JUMP JUMPDEST POP POP PUSH1 0x1 PUSH1 0x0 SSTORE POP POP POP POP POP POP POP POP JUMP JUMPDEST PUSH1 0x0 PUSH2 0x1406 PUSH1 0x1B CALLER PUSH2 0x194C JUMP JUMPDEST SWAP1 POP SWAP1 JUMP JUMPDEST DUP1 ISZERO PUSH2 0x15A7 JUMPI PUSH1 0x6 SLOAD PUSH1 0x5 SLOAD PUSH1 0x0 SWAP2 PUSH2 0x1423 SWAP2 PUSH2 0x1CFF JUMP JUMPDEST GT PUSH2 0x1440 JUMPI PUSH1 0x40 MLOAD PUSH3 0x461BCD PUSH1 0xE5 SHL DUP2 MSTORE PUSH1 0x4 ADD PUSH2 0x571 SWAP1 PUSH2 0x1B4D JUMP JUMPDEST CALLER PUSH1 0x0 SWAP1 DUP2 MSTORE PUSH1 0x2 PUSH1 0x20 MSTORE PUSH1 0x40 SWAP1 KECCAK256 PUSH1 0x3 DUP2 ADD SLOAD PUSH1 0x1 DUP3 ADD SLOAD GT PUSH2 0x14B2 JUMPI PUSH1 0x40 MLOAD PUSH3 0x461BCD PUSH1 0xE5 SHL DUP2 MSTORE PUSH1 0x20 PUSH1 0x4 DUP3 ADD MSTORE PUSH1 0x24 DUP1 DUP3 ADD MSTORE PUSH32 0x596F7520636C61696D20616C6C206F722068617665206E6F7420626F75676874 PUSH1 0x44 DUP3 ADD MSTORE PUSH4 0x81E595D PUSH1 0xE2 SHL PUSH1 0x64 DUP3 ADD MSTORE PUSH1 0x84 ADD PUSH2 0x571 JUMP JUMPDEST PUSH1 0xE SLOAD PUSH1 0x1 DUP3 ADD SLOAD PUSH1 0x40 MLOAD PUSH4 0xA9059CBB PUSH1 0xE0 SHL DUP2 MSTORE CALLER PUSH1 0x4 DUP3 ADD MSTORE PUSH1 0x24 DUP2 ADD SWAP2 SWAP1 SWAP2 MSTORE PUSH1 0x1 PUSH1 0x1 PUSH1 0xA0 SHL SUB SWAP1 SWAP2 AND SWAP1 PUSH4 0xA9059CBB SWAP1 PUSH1 0x44 ADD PUSH1 0x20 PUSH1 0x40 MLOAD DUP1 DUP4 SUB DUP2 PUSH1 0x0 DUP8 DUP1 EXTCODESIZE ISZERO DUP1 ISZERO PUSH2 0x1504 JUMPI PUSH1 0x0 DUP1 REVERT JUMPDEST POP GAS CALL ISZERO DUP1 ISZERO PUSH2 0x1518 JUMPI RETURNDATASIZE PUSH1 0x0 DUP1 RETURNDATACOPY RETURNDATASIZE PUSH1 0x0 REVERT JUMPDEST POP POP POP POP PUSH1 0x40 MLOAD RETURNDATASIZE PUSH1 0x1F NOT PUSH1 0x1F DUP3 ADD AND DUP3 ADD DUP1 PUSH1 0x40 MSTORE POP DUP2 ADD SWAP1 PUSH2 0x153C SWAP2 SWAP1 PUSH2 0x1AC3 JUMP JUMPDEST POP PUSH1 0x1 DUP2 ADD SLOAD PUSH1 0x6 DUP1 SLOAD PUSH1 0x0 SWAP1 PUSH2 0x1554 SWAP1 DUP5 SWAP1 PUSH2 0x1BBB JUMP JUMPDEST SWAP1 SWAP2 SSTORE POP POP PUSH1 0x1 DUP2 ADD SLOAD PUSH1 0x18 DUP1 SLOAD PUSH1 0x0 SWAP1 PUSH2 0x1570 SWAP1 DUP5 SWAP1 PUSH2 0x1CFF JUMP JUMPDEST SWAP1 SWAP2 SSTORE POP POP PUSH1 0x1 DUP2 ADD SLOAD PUSH1 0x3 DUP3 ADD DUP1 SLOAD PUSH1 0x0 SWAP1 PUSH2 0x158E SWAP1 DUP5 SWAP1 PUSH2 0x1BBB JUMP JUMPDEST SWAP1 SWAP2 SSTORE POP POP PUSH1 0x0 DUP1 DUP3 SSTORE PUSH1 0x1 DUP3 ADD SSTORE TIMESTAMP PUSH1 0x2 SWAP1 SWAP2 ADD SSTORE POP JUMP JUMPDEST PUSH1 0x7 SLOAD PUSH1 0x4 SLOAD PUSH1 0x0 SWAP2 PUSH2 0x15B9 SWAP2 PUSH2 0x1CFF JUMP JUMPDEST GT PUSH2 0x15D6 JUMPI PUSH1 0x40 MLOAD PUSH3 0x461BCD PUSH1 0xE5 SHL DUP2 MSTORE PUSH1 0x4 ADD PUSH2 0x571 SWAP1 PUSH2 0x1B4D JUMP JUMPDEST CALLER PUSH1 0x0 SWAP1 DUP2 MSTORE PUSH1 0x2 PUSH1 0x20 MSTORE PUSH1 0x40 SWAP1 KECCAK256 DUP1 SLOAD PUSH2 0x1641 JUMPI PUSH1 0x40 MLOAD PUSH3 0x461BCD PUSH1 0xE5 SHL DUP2 MSTORE PUSH1 0x20 PUSH1 0x4 DUP3 ADD MSTORE PUSH1 0x25 PUSH1 0x24 DUP3 ADD MSTORE PUSH32 0x596F7520726566756E6420616C6C206F722068617665206E6F7420626F756768 PUSH1 0x44 DUP3 ADD MSTORE PUSH5 0x1D081E595D PUSH1 0xDA SHL PUSH1 0x64 DUP3 ADD MSTORE PUSH1 0x84 ADD PUSH2 0x571 JUMP JUMPDEST DUP1 SLOAD PUSH2 0x164D DUP2 DUP1 PUSH2 0x1CFF JUMP JUMPDEST PUSH1 0x1D PUSH1 0x0 DUP3 DUP3 SLOAD PUSH2 0x165E SWAP2 SWAP1 PUSH2 0x1BBB JUMP JUMPDEST SWAP1 SWAP2 SSTORE POP POP PUSH1 0x7 DUP1 SLOAD DUP3 SWAP2 SWAP1 PUSH1 0x0 SWAP1 PUSH2 0x1678 SWAP1 DUP5 SWAP1 PUSH2 0x1BBB JUMP JUMPDEST SWAP1 SWAP2 SSTORE POP POP PUSH1 0x0 DUP1 DUP4 SSTORE PUSH1 0x1 DUP4 ADD DUP2 SWAP1 SSTORE TIMESTAMP PUSH1 0x2 DUP5 ADD SSTORE PUSH1 0x40 MLOAD CALLER SWAP2 DUP4 ISZERO PUSH2 0x8FC MUL SWAP2 DUP5 SWAP2 DUP2 DUP2 DUP2 DUP6 DUP9 DUP9 CALL SWAP4 POP POP POP POP ISZERO DUP1 ISZERO PUSH2 0x16BA JUMPI RETURNDATASIZE PUSH1 0x0 DUP1 RETURNDATACOPY RETURNDATASIZE PUSH1 0x0 REVERT JUMPDEST POP POP POP POP JUMP JUMPDEST PUSH1 0x1 SLOAD PUSH1 0x1 PUSH1 0x1 PUSH1 0xA0 SHL SUB AND CALLER EQ PUSH2 0x171A JUMPI PUSH1 0x40 MLOAD PUSH3 0x461BCD PUSH1 0xE5 SHL DUP2 MSTORE PUSH1 0x20 PUSH1 0x4 DUP3 ADD DUP2 SWAP1 MSTORE PUSH1 0x24 DUP3 ADD MSTORE PUSH32 0x4F776E61626C653A2063616C6C6572206973206E6F7420746865206F776E6572 PUSH1 0x44 DUP3 ADD MSTORE PUSH1 0x64 ADD PUSH2 0x571 JUMP JUMPDEST PUSH1 0x1 PUSH1 0x1 PUSH1 0xA0 SHL SUB DUP2 AND PUSH2 0x177F JUMPI PUSH1 0x40 MLOAD PUSH3 0x461BCD PUSH1 0xE5 SHL DUP2 MSTORE PUSH1 0x20 PUSH1 0x4 DUP3 ADD MSTORE PUSH1 0x26 PUSH1 0x24 DUP3 ADD MSTORE PUSH32 0x4F776E61626C653A206E6577206F776E657220697320746865207A65726F2061 PUSH1 0x44 DUP3 ADD MSTORE PUSH6 0x646472657373 PUSH1 0xD0 SHL PUSH1 0x64 DUP3 ADD MSTORE PUSH1 0x84 ADD PUSH2 0x571 JUMP JUMPDEST PUSH2 0x5B2 DUP2 PUSH2 0x17A6 JUMP JUMPDEST PUSH1 0x0 PUSH2 0x179D DUP4 PUSH1 0x1 PUSH1 0x1 PUSH1 0xA0 SHL SUB DUP5 AND PUSH2 0x196E JUMP JUMPDEST SWAP1 POP JUMPDEST SWAP3 SWAP2 POP POP JUMP JUMPDEST PUSH1 0x1 DUP1 SLOAD PUSH1 0x1 PUSH1 0x1 PUSH1 0xA0 SHL SUB DUP4 DUP2 AND PUSH1 0x1 PUSH1 0x1 PUSH1 0xA0 SHL SUB NOT DUP4 AND DUP2 OR SWAP1 SWAP4 SSTORE PUSH1 0x40 MLOAD SWAP2 AND SWAP2 SWAP1 DUP3 SWAP1 PUSH32 0x8BE0079C531659141344CD1FD0A4F28419497F9722A3DAAFE3B4186F6B6457E0 SWAP1 PUSH1 0x0 SWAP1 LOG3 POP POP JUMP JUMPDEST PUSH1 0x0 PUSH2 0x179D DUP3 DUP5 PUSH2 0x1CFF JUMP JUMPDEST PUSH1 0x0 PUSH2 0x179D DUP3 DUP5 PUSH2 0x1CE0 JUMP JUMPDEST PUSH1 0x0 PUSH2 0x179D DUP3 DUP5 PUSH2 0x1BD3 JUMP JUMPDEST PUSH1 0x40 DUP1 MLOAD PUSH1 0x1 PUSH1 0x1 PUSH1 0xA0 SHL SUB DUP6 DUP2 AND PUSH1 0x24 DUP4 ADD MSTORE DUP5 DUP2 AND PUSH1 0x44 DUP4 ADD MSTORE PUSH1 0x64 DUP1 DUP4 ADD DUP6 SWAP1 MSTORE DUP4 MLOAD DUP1 DUP5 SUB SWAP1 SWAP2 ADD DUP2 MSTORE PUSH1 0x84 SWAP1 SWAP3 ADD DUP4 MSTORE PUSH1 0x20 DUP3 ADD DUP1 MLOAD PUSH1 0x1 PUSH1 0x1 PUSH1 0xE0 SHL SUB AND PUSH4 0x23B872DD PUSH1 0xE0 SHL OR SWAP1 MSTORE SWAP2 MLOAD PUSH1 0x0 SWAP3 DUP4 SWAP3 SWAP1 DUP9 AND SWAP2 PUSH2 0x1880 SWAP2 SWAP1 PUSH2 0x1B12 JUMP JUMPDEST PUSH1 0x0 PUSH1 0x40 MLOAD DUP1 DUP4 SUB DUP2 PUSH1 0x0 DUP7 GAS CALL SWAP2 POP POP RETURNDATASIZE DUP1 PUSH1 0x0 DUP2 EQ PUSH2 0x18BD JUMPI PUSH1 0x40 MLOAD SWAP2 POP PUSH1 0x1F NOT PUSH1 0x3F RETURNDATASIZE ADD AND DUP3 ADD PUSH1 0x40 MSTORE RETURNDATASIZE DUP3 MSTORE RETURNDATASIZE PUSH1 0x0 PUSH1 0x20 DUP5 ADD RETURNDATACOPY PUSH2 0x18C2 JUMP JUMPDEST PUSH1 0x60 SWAP2 POP JUMPDEST POP SWAP2 POP SWAP2 POP DUP2 DUP1 ISZERO PUSH2 0x18EC JUMPI POP DUP1 MLOAD ISZERO DUP1 PUSH2 0x18EC JUMPI POP DUP1 DUP1 PUSH1 0x20 ADD SWAP1 MLOAD DUP2 ADD SWAP1 PUSH2 0x18EC SWAP2 SWAP1 PUSH2 0x1AC3 JUMP JUMPDEST PUSH2 0x1944 JUMPI PUSH1 0x40 MLOAD PUSH3 0x461BCD PUSH1 0xE5 SHL DUP2 MSTORE PUSH1 0x20 PUSH1 0x4 DUP3 ADD MSTORE PUSH1 0x24 DUP1 DUP3 ADD MSTORE PUSH32 0x5472616E7366657248656C7065723A205452414E534645525F46524F4D5F4641 PUSH1 0x44 DUP3 ADD MSTORE PUSH4 0x12531151 PUSH1 0xE2 SHL PUSH1 0x64 DUP3 ADD MSTORE PUSH1 0x84 ADD PUSH2 0x571 JUMP JUMPDEST POP POP POP POP POP POP JUMP JUMPDEST PUSH1 0x1 PUSH1 0x1 PUSH1 0xA0 SHL SUB DUP2 AND PUSH1 0x0 SWAP1 DUP2 MSTORE PUSH1 0x1 DUP4 ADD PUSH1 0x20 MSTORE PUSH1 0x40 DUP2 KECCAK256 SLOAD ISZERO ISZERO PUSH2 0x179D JUMP JUMPDEST PUSH1 0x0 DUP2 DUP2 MSTORE PUSH1 0x1 DUP4 ADD PUSH1 0x20 MSTORE PUSH1 0x40 DUP2 KECCAK256 SLOAD PUSH2 0x19B5 JUMPI POP DUP2 SLOAD PUSH1 0x1 DUP2 DUP2 ADD DUP5 SSTORE PUSH1 0x0 DUP5 DUP2 MSTORE PUSH1 0x20 DUP1 DUP3 KECCAK256 SWAP1 SWAP4 ADD DUP5 SWAP1 SSTORE DUP5 SLOAD DUP5 DUP3 MSTORE DUP3 DUP7 ADD SWAP1 SWAP4 MSTORE PUSH1 0x40 SWAP1 KECCAK256 SWAP2 SWAP1 SWAP2 SSTORE PUSH2 0x17A0 JUMP JUMPDEST POP PUSH1 0x0 PUSH2 0x17A0 JUMP JUMPDEST PUSH1 0x0 PUSH1 0x20 DUP3 DUP5 SUB SLT ISZERO PUSH2 0x19CF JUMPI PUSH1 0x0 DUP1 REVERT JUMPDEST DUP2 CALLDATALOAD PUSH2 0x19DA DUP2 PUSH2 0x1D5D JUMP JUMPDEST SWAP4 SWAP3 POP POP POP JUMP JUMPDEST PUSH1 0x0 DUP1 PUSH1 0x0 DUP1 PUSH2 0x180 DUP1 DUP7 DUP9 SUB SLT ISZERO PUSH2 0x19F9 JUMPI PUSH1 0x0 DUP1 REVERT JUMPDEST DUP6 CALLDATALOAD PUSH2 0x1A04 DUP2 PUSH2 0x1D5D JUMP JUMPDEST SWAP5 POP PUSH1 0x20 DUP7 DUP2 ADD CALLDATALOAD PUSH2 0x1A15 DUP2 PUSH2 0x1D5D JUMP JUMPDEST SWAP5 POP PUSH1 0x40 DUP8 ADD CALLDATALOAD PUSH2 0x1A25 DUP2 PUSH2 0x1D5D JUMP JUMPDEST SWAP4 POP PUSH1 0x7F DUP8 ADD DUP9 SGT PUSH2 0x1A36 JUMPI PUSH1 0x0 DUP1 REVERT JUMPDEST PUSH1 0x40 MLOAD PUSH2 0x120 DUP2 ADD DUP2 DUP2 LT PUSH8 0xFFFFFFFFFFFFFFFF DUP3 GT OR ISZERO PUSH2 0x1A5A JUMPI PUSH2 0x1A5A PUSH2 0x1D47 JUMP JUMPDEST PUSH1 0x40 MSTORE DUP1 PUSH1 0x60 DUP10 ADD DUP5 DUP11 ADD DUP12 LT ISZERO PUSH2 0x1A71 JUMPI PUSH1 0x0 DUP1 REVERT JUMPDEST PUSH1 0x0 SWAP5 POP JUMPDEST PUSH1 0x9 DUP6 LT ISZERO PUSH2 0x1A95 JUMPI DUP1 CALLDATALOAD DUP3 MSTORE PUSH1 0x1 SWAP5 SWAP1 SWAP5 ADD SWAP4 SWAP1 DUP4 ADD SWAP1 DUP4 ADD PUSH2 0x1A76 JUMP JUMPDEST POP POP DUP1 SWAP4 POP POP POP POP SWAP3 SWAP6 SWAP2 SWAP5 POP SWAP3 POP JUMP JUMPDEST PUSH1 0x0 PUSH1 0x20 DUP3 DUP5 SUB SLT ISZERO PUSH2 0x1AB8 JUMPI PUSH1 0x0 DUP1 REVERT JUMPDEST DUP2 CALLDATALOAD PUSH2 0x19DA DUP2 PUSH2 0x1D72 JUMP JUMPDEST PUSH1 0x0 PUSH1 0x20 DUP3 DUP5 SUB SLT ISZERO PUSH2 0x1AD5 JUMPI PUSH1 0x0 DUP1 REVERT JUMPDEST DUP2 MLOAD PUSH2 0x19DA DUP2 PUSH2 0x1D72 JUMP JUMPDEST PUSH1 0x0 PUSH1 0x20 DUP3 DUP5 SUB SLT ISZERO PUSH2 0x1AF2 JUMPI PUSH1 0x0 DUP1 REVERT JUMPDEST POP CALLDATALOAD SWAP2 SWAP1 POP JUMP JUMPDEST PUSH1 0x0 PUSH1 0x20 DUP3 DUP5 SUB SLT ISZERO PUSH2 0x1B0B JUMPI PUSH1 0x0 DUP1 REVERT JUMPDEST POP MLOAD SWAP2 SWAP1 POP JUMP JUMPDEST PUSH1 0x0 DUP3 MLOAD PUSH1 0x0 JUMPDEST DUP2 DUP2 LT ISZERO PUSH2 0x1B33 JUMPI PUSH1 0x20 DUP2 DUP7 ADD DUP2 ADD MLOAD DUP6 DUP4 ADD MSTORE ADD PUSH2 0x1B19 JUMP JUMPDEST DUP2 DUP2 GT ISZERO PUSH2 0x1B42 JUMPI PUSH1 0x0 DUP3 DUP6 ADD MSTORE JUMPDEST POP SWAP2 SWAP1 SWAP2 ADD SWAP3 SWAP2 POP POP JUMP JUMPDEST PUSH1 0x20 DUP1 DUP3 MSTORE PUSH1 0x1B SWAP1 DUP3 ADD MSTORE PUSH32 0x416C6C20746F6B656E20686173206265656E2077697468647261770000000000 PUSH1 0x40 DUP3 ADD MSTORE PUSH1 0x60 ADD SWAP1 JUMP JUMPDEST PUSH1 0x20 DUP1 DUP3 MSTORE PUSH1 0x1F SWAP1 DUP3 ADD MSTORE PUSH32 0x5265656E7472616E637947756172643A207265656E7472616E742063616C6C00 PUSH1 0x40 DUP3 ADD MSTORE PUSH1 0x60 ADD SWAP1 JUMP JUMPDEST PUSH1 0x0 DUP3 NOT DUP3 GT ISZERO PUSH2 0x1BCE JUMPI PUSH2 0x1BCE PUSH2 0x1D31 JUMP JUMPDEST POP ADD SWAP1 JUMP JUMPDEST PUSH1 0x0 DUP3 PUSH2 0x1BF0 JUMPI PUSH4 0x4E487B71 PUSH1 0xE0 SHL PUSH1 0x0 MSTORE PUSH1 0x12 PUSH1 0x4 MSTORE PUSH1 0x24 PUSH1 0x0 REVERT JUMPDEST POP DIV SWAP1 JUMP JUMPDEST PUSH1 0x1 DUP2 DUP2 JUMPDEST DUP1 DUP6 GT ISZERO PUSH2 0x1C30 JUMPI DUP2 PUSH1 0x0 NOT DIV DUP3 GT ISZERO PUSH2 0x1C16 JUMPI PUSH2 0x1C16 PUSH2 0x1D31 JUMP JUMPDEST DUP1 DUP6 AND ISZERO PUSH2 0x1C23 JUMPI SWAP2 DUP2 MUL SWAP2 JUMPDEST SWAP4 DUP5 SHR SWAP4 SWAP1 DUP1 MUL SWAP1 PUSH2 0x1BFA JUMP JUMPDEST POP SWAP3 POP SWAP3 SWAP1 POP JUMP JUMPDEST PUSH1 0x0 PUSH2 0x179D DUP4 DUP4 PUSH1 0x0 DUP3 PUSH2 0x1C4E JUMPI POP PUSH1 0x1 PUSH2 0x17A0 JUMP JUMPDEST DUP2 PUSH2 0x1C5B JUMPI POP PUSH1 0x0 PUSH2 0x17A0 JUMP JUMPDEST DUP2 PUSH1 0x1 DUP2 EQ PUSH2 0x1C71 JUMPI PUSH1 0x2 DUP2 EQ PUSH2 0x1C7B JUMPI PUSH2 0x1C97 JUMP JUMPDEST PUSH1 0x1 SWAP2 POP POP PUSH2 0x17A0 JUMP JUMPDEST PUSH1 0xFF DUP5 GT ISZERO PUSH2 0x1C8C JUMPI PUSH2 0x1C8C PUSH2 0x1D31 JUMP JUMPDEST POP POP PUSH1 0x1 DUP3 SHL PUSH2 0x17A0 JUMP JUMPDEST POP PUSH1 0x20 DUP4 LT PUSH2 0x133 DUP4 LT AND PUSH1 0x4E DUP5 LT PUSH1 0xB DUP5 LT AND OR ISZERO PUSH2 0x1CBA JUMPI POP DUP2 DUP2 EXP PUSH2 0x17A0 JUMP JUMPDEST PUSH2 0x1CC4 DUP4 DUP4 PUSH2 0x1BF5 JUMP JUMPDEST DUP1 PUSH1 0x0 NOT DIV DUP3 GT ISZERO PUSH2 0x1CD8 JUMPI PUSH2 0x1CD8 PUSH2 0x1D31 JUMP JUMPDEST MUL SWAP4 SWAP3 POP POP POP JUMP JUMPDEST PUSH1 0x0 DUP2 PUSH1 0x0 NOT DIV DUP4 GT DUP3 ISZERO ISZERO AND ISZERO PUSH2 0x1CFA JUMPI PUSH2 0x1CFA PUSH2 0x1D31 JUMP JUMPDEST POP MUL SWAP1 JUMP JUMPDEST PUSH1 0x0 DUP3 DUP3 LT ISZERO PUSH2 0x1D11 JUMPI PUSH2 0x1D11 PUSH2 0x1D31 JUMP JUMPDEST POP SUB SWAP1 JUMP JUMPDEST PUSH1 0x0 PUSH1 0x0 NOT DUP3 EQ ISZERO PUSH2 0x1D2A JUMPI PUSH2 0x1D2A PUSH2 0x1D31 JUMP JUMPDEST POP PUSH1 0x1 ADD SWAP1 JUMP JUMPDEST PUSH4 0x4E487B71 PUSH1 0xE0 SHL PUSH1 0x0 MSTORE PUSH1 0x11 PUSH1 0x4 MSTORE PUSH1 0x24 PUSH1 0x0 REVERT JUMPDEST PUSH4 0x4E487B71 PUSH1 0xE0 SHL PUSH1 0x0 MSTORE PUSH1 0x41 PUSH1 0x4 MSTORE PUSH1 0x24 PUSH1 0x0 REVERT JUMPDEST PUSH1 0x1 PUSH1 0x1 PUSH1 0xA0 SHL SUB DUP2 AND DUP2 EQ PUSH2 0x5B2 JUMPI PUSH1 0x0 DUP1 REVERT JUMPDEST DUP1 ISZERO ISZERO DUP2 EQ PUSH2 0x5B2 JUMPI PUSH1 0x0 DUP1 REVERT INVALID LOG2 PUSH5 0x6970667358 0x22 SLT KECCAK256 0x2E 0x2F 0xB4 MSTORE 0x21 SWAP13 0x4D PUSH31 0x6F3EF7EFC11CC2F79F2CB720C0F48BF07D1650C9CB9C4E4464736F6C634300 ADDMOD SDIV STOP CALLER "
				},
				"gasEstimates": {
					"creation": {
						"codeDepositCost": "1521200",
						"executionCost": "infinite",
						"totalCost": "infinite"
					},
					"external": {
						"WETH()": "2448",
						"backToken()": "infinite",
						"buyerInfo(address)": "11126",
						"checkAdminAddress()": "2521",
						"deposit(uint256)": "infinite",
						"feeAnyone()": "2407",
						"getBalance(address)": "3094",
						"initialSaleInfor(address,address,address,uint256[9])": "infinite",
						"owner()": "2409",
						"ownerClaimAndRefundToken()": "infinite",
						"presaleStatus()": "13078",
						"renounceOwnership()": "28162",
						"saleInfor()": "25810",
						"saleTotalSupply()": "4441",
						"status()": "4555",
						"totalFee()": "2363",
						"transferOwnership(address)": "infinite",
						"userClaimEmergency()": "infinite",
						"userClaimOrRefundWhenSaleSuccess(bool)": "infinite",
						"userFee(address)": "2536",
						"userRefundEmergency()": "infinite"
					}
				},
				"methodIdentifiers": {
					"WETH()": "ad5c4648",
					"backToken()": "861faf5f",
					"buyerInfo(address)": "e2d3f423",
					"checkAdminAddress()": "cad5b0f7",
					"deposit(uint256)": "b6b55f25",
					"feeAnyone()": "3b5ef2ad",
					"getBalance(address)": "f8b2cb4f",
					"initialSaleInfor(address,address,address,uint256[9])": "8f1eae4c",
					"owner()": "8da5cb5b",
					"ownerClaimAndRefundToken()": "8edf18e6",
					"presaleStatus()": "acfb2355",
					"renounceOwnership()": "715018a6",
					"saleInfor()": "18856a2f",
					"saleTotalSupply()": "12e5d0b9",
					"status()": "200d2ed2",
					"totalFee()": "1df4ccfc",
					"transferOwnership(address)": "f2fde38b",
					"userClaimEmergency()": "ab33985a",
					"userClaimOrRefundWhenSaleSuccess(bool)": "eb002bb0",
					"userFee(address)": "56c5f349",
					"userRefundEmergency()": "95661e70"
				}
			},
			"storageLayout": {
				"storage": [
					{
						"astId": 2566,
						"contract": "Ethereum/Presale.sol:Presale",
						"label": "_status",
						"offset": 0,
						"slot": "0",
						"type": "t_uint256"
					},
					{
						"astId": 2458,
						"contract": "Ethereum/Presale.sol:Presale",
						"label": "_owner",
						"offset": 0,
						"slot": "1",
						"type": "t_address"
					},
					{
						"astId": 774,
						"contract": "Ethereum/Presale.sol:Presale",
						"label": "buyerInfo",
						"offset": 0,
						"slot": "2",
						"type": "t_mapping(t_address,t_struct(BuyerInfo)751_storage)"
					},
					{
						"astId": 778,
						"contract": "Ethereum/Presale.sol:Presale",
						"label": "userFee",
						"offset": 0,
						"slot": "3",
						"type": "t_mapping(t_address,t_uint256)"
					},
					{
						"astId": 781,
						"contract": "Ethereum/Presale.sol:Presale",
						"label": "presaleStatus",
						"offset": 0,
						"slot": "4",
						"type": "t_struct(PresaleStatus)769_storage"
					},
					{
						"astId": 784,
						"contract": "Ethereum/Presale.sol:Presale",
						"label": "saleTotalSupply",
						"offset": 0,
						"slot": "11",
						"type": "t_struct(SaleTotalSupply)740_storage"
					},
					{
						"astId": 787,
						"contract": "Ethereum/Presale.sol:Presale",
						"label": "saleInfor",
						"offset": 0,
						"slot": "13",
						"type": "t_struct(SaleInfor)735_storage"
					},
					{
						"astId": 790,
						"contract": "Ethereum/Presale.sol:Presale",
						"label": "WETH",
						"offset": 0,
						"slot": "25",
						"type": "t_contract(IERC20)663"
					},
					{
						"astId": 792,
						"contract": "Ethereum/Presale.sol:Presale",
						"label": "feeAnyone",
						"offset": 0,
						"slot": "26",
						"type": "t_uint256"
					},
					{
						"astId": 795,
						"contract": "Ethereum/Presale.sol:Presale",
						"label": "admins",
						"offset": 0,
						"slot": "27",
						"type": "t_struct(AddressSet)2163_storage"
					},
					{
						"astId": 797,
						"contract": "Ethereum/Presale.sol:Presale",
						"label": "totalFee",
						"offset": 0,
						"slot": "29",
						"type": "t_uint256"
					}
				],
				"types": {
					"t_address": {
						"encoding": "inplace",
						"label": "address",
						"numberOfBytes": "20"
					},
					"t_address_payable": {
						"encoding": "inplace",
						"label": "address payable",
						"numberOfBytes": "20"
					},
					"t_array(t_address)dyn_storage": {
						"base": "t_address",
						"encoding": "dynamic_array",
						"label": "address[]",
						"numberOfBytes": "32"
					},
					"t_array(t_bytes32)dyn_storage": {
						"base": "t_bytes32",
						"encoding": "dynamic_array",
						"label": "bytes32[]",
						"numberOfBytes": "32"
					},
					"t_bool": {
						"encoding": "inplace",
						"label": "bool",
						"numberOfBytes": "1"
					},
					"t_bytes32": {
						"encoding": "inplace",
						"label": "bytes32",
						"numberOfBytes": "32"
					},
					"t_contract(ERC20)585": {
						"encoding": "inplace",
						"label": "contract ERC20",
						"numberOfBytes": "20"
					},
					"t_contract(IERC20)663": {
						"encoding": "inplace",
						"label": "contract IERC20",
						"numberOfBytes": "20"
					},
					"t_mapping(t_address,t_struct(BuyerInfo)751_storage)": {
						"encoding": "mapping",
						"key": "t_address",
						"label": "mapping(address => struct Presale.BuyerInfo)",
						"numberOfBytes": "32",
						"value": "t_struct(BuyerInfo)751_storage"
					},
					"t_mapping(t_address,t_uint256)": {
						"encoding": "mapping",
						"key": "t_address",
						"label": "mapping(address => uint256)",
						"numberOfBytes": "32",
						"value": "t_uint256"
					},
					"t_mapping(t_bytes32,t_uint256)": {
						"encoding": "mapping",
						"key": "t_bytes32",
						"label": "mapping(bytes32 => uint256)",
						"numberOfBytes": "32",
						"value": "t_uint256"
					},
					"t_struct(AddressSet)2163_storage": {
						"encoding": "inplace",
						"label": "struct EnumerableSet.AddressSet",
						"members": [
							{
								"astId": 2162,
								"contract": "Ethereum/Presale.sol:Presale",
								"label": "_inner",
								"offset": 0,
								"slot": "0",
								"type": "t_struct(Set)1862_storage"
							}
						],
						"numberOfBytes": "64"
					},
					"t_struct(BuyerInfo)751_storage": {
						"encoding": "inplace",
						"label": "struct Presale.BuyerInfo",
						"members": [
							{
								"astId": 742,
								"contract": "Ethereum/Presale.sol:Presale",
								"label": "baseDeposit",
								"offset": 0,
								"slot": "0",
								"type": "t_uint256"
							},
							{
								"astId": 744,
								"contract": "Ethereum/Presale.sol:Presale",
								"label": "tokenOwner",
								"offset": 0,
								"slot": "1",
								"type": "t_uint256"
							},
							{
								"astId": 746,
								"contract": "Ethereum/Presale.sol:Presale",
								"label": "lastWithDraw",
								"offset": 0,
								"slot": "2",
								"type": "t_uint256"
							},
							{
								"astId": 748,
								"contract": "Ethereum/Presale.sol:Presale",
								"label": "totalTokenWithDraw",
								"offset": 0,
								"slot": "3",
								"type": "t_uint256"
							},
							{
								"astId": 750,
								"contract": "Ethereum/Presale.sol:Presale",
								"label": "totalBaseWithDraw",
								"offset": 0,
								"slot": "4",
								"type": "t_uint256"
							}
						],
						"numberOfBytes": "160"
					},
					"t_struct(PresaleStatus)769_storage": {
						"encoding": "inplace",
						"label": "struct Presale.PresaleStatus",
						"members": [
							{
								"astId": 753,
								"contract": "Ethereum/Presale.sol:Presale",
								"label": "totalBaseCollected",
								"offset": 0,
								"slot": "0",
								"type": "t_uint256"
							},
							{
								"astId": 755,
								"contract": "Ethereum/Presale.sol:Presale",
								"label": "totalTokenSold",
								"offset": 0,
								"slot": "1",
								"type": "t_uint256"
							},
							{
								"astId": 757,
								"contract": "Ethereum/Presale.sol:Presale",
								"label": "totalTokenWithDraw",
								"offset": 0,
								"slot": "2",
								"type": "t_uint256"
							},
							{
								"astId": 759,
								"contract": "Ethereum/Presale.sol:Presale",
								"label": "totalBaseWithDraw",
								"offset": 0,
								"slot": "3",
								"type": "t_uint256"
							},
							{
								"astId": 761,
								"contract": "Ethereum/Presale.sol:Presale",
								"label": "numberBuyer",
								"offset": 0,
								"slot": "4",
								"type": "t_uint256"
							},
							{
								"astId": 763,
								"contract": "Ethereum/Presale.sol:Presale",
								"label": "isOwnerClaimSaleToken",
								"offset": 0,
								"slot": "5",
								"type": "t_bool"
							},
							{
								"astId": 765,
								"contract": "Ethereum/Presale.sol:Presale",
								"label": "isOwnerRefundBaseToken",
								"offset": 1,
								"slot": "5",
								"type": "t_bool"
							},
							{
								"astId": 768,
								"contract": "Ethereum/Presale.sol:Presale",
								"label": "admin",
								"offset": 0,
								"slot": "6",
								"type": "t_array(t_address)dyn_storage"
							}
						],
						"numberOfBytes": "224"
					},
					"t_struct(SaleInfor)735_storage": {
						"encoding": "inplace",
						"label": "struct Presale.SaleInfor",
						"members": [
							{
								"astId": 710,
								"contract": "Ethereum/Presale.sol:Presale",
								"label": "presaleOwner",
								"offset": 0,
								"slot": "0",
								"type": "t_address_payable"
							},
							{
								"astId": 713,
								"contract": "Ethereum/Presale.sol:Presale",
								"label": "saleToken",
								"offset": 0,
								"slot": "1",
								"type": "t_contract(ERC20)585"
							},
							{
								"astId": 716,
								"contract": "Ethereum/Presale.sol:Presale",
								"label": "baseToken",
								"offset": 0,
								"slot": "2",
								"type": "t_contract(ERC20)585"
							},
							{
								"astId": 718,
								"contract": "Ethereum/Presale.sol:Presale",
								"label": "tokenPrice",
								"offset": 0,
								"slot": "3",
								"type": "t_uint256"
							},
							{
								"astId": 720,
								"contract": "Ethereum/Presale.sol:Presale",
								"label": "startSale",
								"offset": 0,
								"slot": "4",
								"type": "t_uint256"
							},
							{
								"astId": 722,
								"contract": "Ethereum/Presale.sol:Presale",
								"label": "endSale",
								"offset": 0,
								"slot": "5",
								"type": "t_uint256"
							},
							{
								"astId": 724,
								"contract": "Ethereum/Presale.sol:Presale",
								"label": "minSpendPerBuyer",
								"offset": 0,
								"slot": "6",
								"type": "t_uint256"
							},
							{
								"astId": 726,
								"contract": "Ethereum/Presale.sol:Presale",
								"label": "maxSpendPerBuyer",
								"offset": 0,
								"slot": "7",
								"type": "t_uint256"
							},
							{
								"astId": 728,
								"contract": "Ethereum/Presale.sol:Presale",
								"label": "refundFee",
								"offset": 0,
								"slot": "8",
								"type": "t_uint256"
							},
							{
								"astId": 730,
								"contract": "Ethereum/Presale.sol:Presale",
								"label": "claimFee",
								"offset": 0,
								"slot": "9",
								"type": "t_uint256"
							},
							{
								"astId": 732,
								"contract": "Ethereum/Presale.sol:Presale",
								"label": "saleIsBaseToken",
								"offset": 0,
								"slot": "10",
								"type": "t_bool"
							},
							{
								"astId": 734,
								"contract": "Ethereum/Presale.sol:Presale",
								"label": "amountTokenForSale",
								"offset": 0,
								"slot": "11",
								"type": "t_uint256"
							}
						],
						"numberOfBytes": "384"
					},
					"t_struct(SaleTotalSupply)740_storage": {
						"encoding": "inplace",
						"label": "struct Presale.SaleTotalSupply",
						"members": [
							{
								"astId": 737,
								"contract": "Ethereum/Presale.sol:Presale",
								"label": "hardCap",
								"offset": 0,
								"slot": "0",
								"type": "t_uint256"
							},
							{
								"astId": 739,
								"contract": "Ethereum/Presale.sol:Presale",
								"label": "softCap",
								"offset": 0,
								"slot": "1",
								"type": "t_uint256"
							}
						],
						"numberOfBytes": "64"
					},
					"t_struct(Set)1862_storage": {
						"encoding": "inplace",
						"label": "struct EnumerableSet.Set",
						"members": [
							{
								"astId": 1857,
								"contract": "Ethereum/Presale.sol:Presale",
								"label": "_values",
								"offset": 0,
								"slot": "0",
								"type": "t_array(t_bytes32)dyn_storage"
							},
							{
								"astId": 1861,
								"contract": "Ethereum/Presale.sol:Presale",
								"label": "_indexes",
								"offset": 0,
								"slot": "1",
								"type": "t_mapping(t_bytes32,t_uint256)"
							}
						],
						"numberOfBytes": "64"
					},
					"t_uint256": {
						"encoding": "inplace",
						"label": "uint256",
						"numberOfBytes": "32"
					}
				}
			},
			"userdoc": {
				"kind": "user",
				"methods": {},
				"version": 1
			}
		}
	}
}