{
	"Ethereum/Presale.sol": {
		"Presale": {
			"abi": [
				{
					"inputs": [],
					"name": "STATUS",
					"outputs": [
						{
							"internalType": "uint256",
							"name": "totalBaseCollected",
							"type": "uint256"
						},
						{
							"internalType": "uint256",
							"name": "totalTokenSold",
							"type": "uint256"
						},
						{
							"internalType": "uint256",
							"name": "totalTokenWithDraw",
							"type": "uint256"
						},
						{
							"internalType": "uint256",
							"name": "totalBaseWithDraw",
							"type": "uint256"
						},
						{
							"internalType": "uint256",
							"name": "numByer",
							"type": "uint256"
						},
						{
							"internalType": "uint256",
							"name": "totalFee",
							"type": "uint256"
						}
					],
					"stateMutability": "view",
					"type": "function"
				},
				{
					"inputs": [
						{
							"internalType": "address",
							"name": "",
							"type": "address"
						}
					],
					"name": "buyerInfo",
					"outputs": [
						{
							"internalType": "address payable",
							"name": "buyer",
							"type": "address"
						},
						{
							"internalType": "uint256",
							"name": "baseDeposit",
							"type": "uint256"
						},
						{
							"internalType": "uint256",
							"name": "tokenOwner",
							"type": "uint256"
						},
						{
							"internalType": "uint256",
							"name": "lastWithDraw",
							"type": "uint256"
						},
						{
							"internalType": "uint256",
							"name": "totalTokenWithDraw",
							"type": "uint256"
						},
						{
							"internalType": "bool",
							"name": "isRefund",
							"type": "bool"
						},
						{
							"internalType": "bool",
							"name": "isClaim",
							"type": "bool"
						}
					],
					"stateMutability": "view",
					"type": "function"
				},
				{
					"inputs": [
						{
							"internalType": "address payable",
							"name": "_presaleOwner",
							"type": "address"
						},
						{
							"internalType": "contract IERC20",
							"name": "_saleToken",
							"type": "address"
						},
						{
							"internalType": "contract IERC20",
							"name": "_baseTOken",
							"type": "address"
						},
						{
							"internalType": "uint256[9]",
							"name": "datas",
							"type": "uint256[9]"
						}
					],
					"name": "initialSaleInfor",
					"outputs": [],
					"stateMutability": "nonpayable",
					"type": "function"
				},
				{
					"inputs": [
						{
							"internalType": "address",
							"name": "",
							"type": "address"
						}
					],
					"name": "userFee",
					"outputs": [
						{
							"internalType": "uint256",
							"name": "",
							"type": "uint256"
						}
					],
					"stateMutability": "view",
					"type": "function"
				}
			],
			"devdoc": {
				"kind": "dev",
				"methods": {},
				"version": 1
			},
			"evm": {
				"assembly": "    /* \"Ethereum/Presale.sol\":153:1375  contract Presale{\r... */\n  mstore(0x40, 0x80)\n  callvalue\n  dup1\n  iszero\n  tag_1\n  jumpi\n  0x00\n  dup1\n  revert\ntag_1:\n  pop\n  dataSize(sub_0)\n  dup1\n  dataOffset(sub_0)\n  0x00\n  codecopy\n  0x00\n  return\nstop\n\nsub_0: assembly {\n        /* \"Ethereum/Presale.sol\":153:1375  contract Presale{\r... */\n      mstore(0x40, 0x80)\n      callvalue\n      dup1\n      iszero\n      tag_1\n      jumpi\n      0x00\n      dup1\n      revert\n    tag_1:\n      pop\n      jumpi(tag_2, lt(calldatasize, 0x04))\n      shr(0xe0, calldataload(0x00))\n      dup1\n      0x56c5f349\n      eq\n      tag_3\n      jumpi\n      dup1\n      0x8f1eae4c\n      eq\n      tag_4\n      jumpi\n      dup1\n      0xe2d3f423\n      eq\n      tag_5\n      jumpi\n      dup1\n      0xe33865b3\n      eq\n      tag_6\n      jumpi\n    tag_2:\n      0x00\n      dup1\n      revert\n        /* \"Ethereum/Presale.sol\":1105:1147  mapping(address => uint256) public userFee */\n    tag_3:\n      tag_7\n      0x04\n      dup1\n      calldatasize\n      sub\n      dup2\n      add\n      swap1\n      tag_8\n      swap2\n      swap1\n      tag_9\n      jump\t// in\n    tag_8:\n      tag_10\n      jump\t// in\n    tag_7:\n      mload(0x40)\n      tag_11\n      swap2\n      swap1\n      tag_12\n      jump\t// in\n    tag_11:\n      mload(0x40)\n      dup1\n      swap2\n      sub\n      swap1\n      return\n        /* \"Ethereum/Presale.sol\":1190:1372  function initialSaleInfor(\r... */\n    tag_4:\n      tag_13\n      0x04\n      dup1\n      calldatasize\n      sub\n      dup2\n      add\n      swap1\n      tag_14\n      swap2\n      swap1\n      tag_15\n      jump\t// in\n    tag_14:\n      tag_16\n      jump\t// in\n    tag_13:\n      stop\n        /* \"Ethereum/Presale.sol\":1052:1098  mapping(address => BuyerInfo) public buyerInfo */\n    tag_5:\n      tag_17\n      0x04\n      dup1\n      calldatasize\n      sub\n      dup2\n      add\n      swap1\n      tag_18\n      swap2\n      swap1\n      tag_9\n      jump\t// in\n    tag_18:\n      tag_19\n      jump\t// in\n    tag_17:\n      mload(0x40)\n      tag_20\n      swap8\n      swap7\n      swap6\n      swap5\n      swap4\n      swap3\n      swap2\n      swap1\n      tag_21\n      jump\t// in\n    tag_20:\n      mload(0x40)\n      dup1\n      swap2\n      sub\n      swap1\n      return\n        /* \"Ethereum/Presale.sol\":1154:1181  PresaleStatus public STATUS */\n    tag_6:\n      tag_22\n      tag_23\n      jump\t// in\n    tag_22:\n      mload(0x40)\n      tag_24\n      swap7\n      swap6\n      swap5\n      swap4\n      swap3\n      swap2\n      swap1\n      tag_25\n      jump\t// in\n    tag_24:\n      mload(0x40)\n      dup1\n      swap2\n      sub\n      swap1\n      return\n        /* \"Ethereum/Presale.sol\":1105:1147  mapping(address => uint256) public userFee */\n    tag_10:\n      mstore(0x20, 0x01)\n      dup1\n      0x00\n      mstore\n      keccak256(0x00, 0x40)\n      0x00\n      swap2\n      pop\n      swap1\n      pop\n      sload\n      dup2\n      jump\t// out\n        /* \"Ethereum/Presale.sol\":1190:1372  function initialSaleInfor(\r... */\n    tag_16:\n      pop\n      pop\n      pop\n      pop\n      jump\t// out\n        /* \"Ethereum/Presale.sol\":1052:1098  mapping(address => BuyerInfo) public buyerInfo */\n    tag_19:\n      mstore(0x20, 0x00)\n      dup1\n      0x00\n      mstore\n      keccak256(0x00, 0x40)\n      0x00\n      swap2\n      pop\n      swap1\n      pop\n      dup1\n      0x00\n      add\n      0x00\n      swap1\n      sload\n      swap1\n      0x0100\n      exp\n      swap1\n      div\n      0xffffffffffffffffffffffffffffffffffffffff\n      and\n      swap1\n      dup1\n      0x01\n      add\n      sload\n      swap1\n      dup1\n      0x02\n      add\n      sload\n      swap1\n      dup1\n      0x03\n      add\n      sload\n      swap1\n      dup1\n      0x04\n      add\n      sload\n      swap1\n      dup1\n      0x05\n      add\n      0x00\n      swap1\n      sload\n      swap1\n      0x0100\n      exp\n      swap1\n      div\n      0xff\n      and\n      swap1\n      dup1\n      0x05\n      add\n      0x01\n      swap1\n      sload\n      swap1\n      0x0100\n      exp\n      swap1\n      div\n      0xff\n      and\n      swap1\n      pop\n      dup8\n      jump\t// out\n        /* \"Ethereum/Presale.sol\":1154:1181  PresaleStatus public STATUS */\n    tag_23:\n      0x02\n      dup1\n      0x00\n      add\n      sload\n      swap1\n      dup1\n      0x01\n      add\n      sload\n      swap1\n      dup1\n      0x02\n      add\n      sload\n      swap1\n      dup1\n      0x03\n      add\n      sload\n      swap1\n      dup1\n      0x04\n      add\n      sload\n      swap1\n      dup1\n      0x05\n      add\n      sload\n      swap1\n      pop\n      dup7\n      jump\t// out\n        /* \"#utility.yul\":25:590   */\n    tag_28:\n      0x00\n        /* \"#utility.yul\":144:222   */\n      tag_30\n        /* \"#utility.yul\":159:221   */\n      tag_31\n        /* \"#utility.yul\":214:220   */\n      dup5\n        /* \"#utility.yul\":159:221   */\n      tag_32\n      jump\t// in\n    tag_31:\n        /* \"#utility.yul\":144:222   */\n      tag_33\n      jump\t// in\n    tag_30:\n        /* \"#utility.yul\":135:222   */\n      swap1\n      pop\n        /* \"#utility.yul\":242:247   */\n      dup1\n        /* \"#utility.yul\":268:274   */\n      dup3\n        /* \"#utility.yul\":318:321   */\n      dup6\n        /* \"#utility.yul\":310:314   */\n      0x20\n        /* \"#utility.yul\":302:308   */\n      dup7\n        /* \"#utility.yul\":298:315   */\n      mul\n        /* \"#utility.yul\":293:296   */\n      dup3\n        /* \"#utility.yul\":289:316   */\n      add\n        /* \"#utility.yul\":286:322   */\n      gt\n        /* \"#utility.yul\":283:285   */\n      iszero\n      tag_34\n      jumpi\n        /* \"#utility.yul\":335:336   */\n      0x00\n        /* \"#utility.yul\":332:333   */\n      dup1\n        /* \"#utility.yul\":325:337   */\n      revert\n        /* \"#utility.yul\":283:285   */\n    tag_34:\n        /* \"#utility.yul\":363:364   */\n      0x00\n        /* \"#utility.yul\":348:584   */\n    tag_35:\n        /* \"#utility.yul\":373:379   */\n      dup6\n        /* \"#utility.yul\":370:371   */\n      dup2\n        /* \"#utility.yul\":367:380   */\n      lt\n        /* \"#utility.yul\":348:584   */\n      iszero\n      tag_37\n      jumpi\n        /* \"#utility.yul\":440:443   */\n      dup2\n        /* \"#utility.yul\":468:505   */\n      tag_38\n        /* \"#utility.yul\":501:504   */\n      dup9\n        /* \"#utility.yul\":489:499   */\n      dup3\n        /* \"#utility.yul\":468:505   */\n      tag_39\n      jump\t// in\n    tag_38:\n        /* \"#utility.yul\":463:466   */\n      dup5\n        /* \"#utility.yul\":456:506   */\n      mstore\n        /* \"#utility.yul\":535:539   */\n      0x20\n        /* \"#utility.yul\":530:533   */\n      dup5\n        /* \"#utility.yul\":526:540   */\n      add\n        /* \"#utility.yul\":519:540   */\n      swap4\n      pop\n        /* \"#utility.yul\":569:573   */\n      0x20\n        /* \"#utility.yul\":564:567   */\n      dup4\n        /* \"#utility.yul\":560:574   */\n      add\n        /* \"#utility.yul\":553:574   */\n      swap3\n      pop\n        /* \"#utility.yul\":408:584   */\n      pop\n        /* \"#utility.yul\":395:396   */\n      0x01\n        /* \"#utility.yul\":392:393   */\n      dup2\n        /* \"#utility.yul\":388:397   */\n      add\n        /* \"#utility.yul\":383:397   */\n      swap1\n      pop\n        /* \"#utility.yul\":348:584   */\n      jump(tag_35)\n    tag_37:\n        /* \"#utility.yul\":352:366   */\n      pop\n        /* \"#utility.yul\":125:590   */\n      pop\n      pop\n      swap4\n      swap3\n      pop\n      pop\n      pop\n      jump\t// out\n        /* \"#utility.yul\":596:735   */\n    tag_40:\n      0x00\n        /* \"#utility.yul\":680:686   */\n      dup2\n        /* \"#utility.yul\":667:687   */\n      calldataload\n        /* \"#utility.yul\":658:687   */\n      swap1\n      pop\n        /* \"#utility.yul\":696:729   */\n      tag_42\n        /* \"#utility.yul\":723:728   */\n      dup2\n        /* \"#utility.yul\":696:729   */\n      tag_43\n      jump\t// in\n    tag_42:\n        /* \"#utility.yul\":648:735   */\n      swap3\n      swap2\n      pop\n      pop\n      jump\t// out\n        /* \"#utility.yul\":741:896   */\n    tag_44:\n      0x00\n        /* \"#utility.yul\":833:839   */\n      dup2\n        /* \"#utility.yul\":820:840   */\n      calldataload\n        /* \"#utility.yul\":811:840   */\n      swap1\n      pop\n        /* \"#utility.yul\":849:890   */\n      tag_46\n        /* \"#utility.yul\":884:889   */\n      dup2\n        /* \"#utility.yul\":849:890   */\n      tag_47\n      jump\t// in\n    tag_46:\n        /* \"#utility.yul\":801:896   */\n      swap3\n      swap2\n      pop\n      pop\n      jump\t// out\n        /* \"#utility.yul\":920:1192   */\n    tag_48:\n      0x00\n        /* \"#utility.yul\":1038:1041   */\n      dup3\n        /* \"#utility.yul\":1031:1035   */\n      0x1f\n        /* \"#utility.yul\":1023:1029   */\n      dup4\n        /* \"#utility.yul\":1019:1036   */\n      add\n        /* \"#utility.yul\":1015:1042   */\n      slt\n        /* \"#utility.yul\":1005:1007   */\n      tag_50\n      jumpi\n        /* \"#utility.yul\":1056:1057   */\n      0x00\n        /* \"#utility.yul\":1053:1054   */\n      dup1\n        /* \"#utility.yul\":1046:1058   */\n      revert\n        /* \"#utility.yul\":1005:1007   */\n    tag_50:\n        /* \"#utility.yul\":1083:1087   */\n      0x09\n        /* \"#utility.yul\":1105:1186   */\n      tag_51\n        /* \"#utility.yul\":1182:1185   */\n      dup5\n        /* \"#utility.yul\":1174:1180   */\n      dup3\n        /* \"#utility.yul\":1166:1172   */\n      dup6\n        /* \"#utility.yul\":1105:1186   */\n      tag_28\n      jump\t// in\n    tag_51:\n        /* \"#utility.yul\":1096:1186   */\n      swap2\n      pop\n        /* \"#utility.yul\":995:1192   */\n      pop\n      swap3\n      swap2\n      pop\n      pop\n      jump\t// out\n        /* \"#utility.yul\":1198:1363   */\n    tag_52:\n      0x00\n        /* \"#utility.yul\":1295:1301   */\n      dup2\n        /* \"#utility.yul\":1282:1302   */\n      calldataload\n        /* \"#utility.yul\":1273:1302   */\n      swap1\n      pop\n        /* \"#utility.yul\":1311:1357   */\n      tag_54\n        /* \"#utility.yul\":1351:1356   */\n      dup2\n        /* \"#utility.yul\":1311:1357   */\n      tag_55\n      jump\t// in\n    tag_54:\n        /* \"#utility.yul\":1263:1363   */\n      swap3\n      swap2\n      pop\n      pop\n      jump\t// out\n        /* \"#utility.yul\":1369:1508   */\n    tag_39:\n      0x00\n        /* \"#utility.yul\":1453:1459   */\n      dup2\n        /* \"#utility.yul\":1440:1460   */\n      calldataload\n        /* \"#utility.yul\":1431:1460   */\n      swap1\n      pop\n        /* \"#utility.yul\":1469:1502   */\n      tag_57\n        /* \"#utility.yul\":1496:1501   */\n      dup2\n        /* \"#utility.yul\":1469:1502   */\n      tag_58\n      jump\t// in\n    tag_57:\n        /* \"#utility.yul\":1421:1508   */\n      swap3\n      swap2\n      pop\n      pop\n      jump\t// out\n        /* \"#utility.yul\":1514:1776   */\n    tag_9:\n      0x00\n        /* \"#utility.yul\":1622:1624   */\n      0x20\n        /* \"#utility.yul\":1610:1619   */\n      dup3\n        /* \"#utility.yul\":1601:1608   */\n      dup5\n        /* \"#utility.yul\":1597:1620   */\n      sub\n        /* \"#utility.yul\":1593:1625   */\n      slt\n        /* \"#utility.yul\":1590:1592   */\n      iszero\n      tag_60\n      jumpi\n        /* \"#utility.yul\":1638:1639   */\n      0x00\n        /* \"#utility.yul\":1635:1636   */\n      dup1\n        /* \"#utility.yul\":1628:1640   */\n      revert\n        /* \"#utility.yul\":1590:1592   */\n    tag_60:\n        /* \"#utility.yul\":1681:1682   */\n      0x00\n        /* \"#utility.yul\":1706:1759   */\n      tag_61\n        /* \"#utility.yul\":1751:1758   */\n      dup5\n        /* \"#utility.yul\":1742:1748   */\n      dup3\n        /* \"#utility.yul\":1731:1740   */\n      dup6\n        /* \"#utility.yul\":1727:1749   */\n      add\n        /* \"#utility.yul\":1706:1759   */\n      tag_40\n      jump\t// in\n    tag_61:\n        /* \"#utility.yul\":1696:1759   */\n      swap2\n      pop\n        /* \"#utility.yul\":1652:1769   */\n      pop\n        /* \"#utility.yul\":1580:1776   */\n      swap3\n      swap2\n      pop\n      pop\n      jump\t// out\n        /* \"#utility.yul\":1782:2594   */\n    tag_15:\n      0x00\n      dup1\n      0x00\n      dup1\n        /* \"#utility.yul\":1998:2001   */\n      0x0180\n        /* \"#utility.yul\":1986:1995   */\n      dup6\n        /* \"#utility.yul\":1977:1984   */\n      dup8\n        /* \"#utility.yul\":1973:1996   */\n      sub\n        /* \"#utility.yul\":1969:2002   */\n      slt\n        /* \"#utility.yul\":1966:1968   */\n      iszero\n      tag_63\n      jumpi\n        /* \"#utility.yul\":2015:2016   */\n      0x00\n        /* \"#utility.yul\":2012:2013   */\n      dup1\n        /* \"#utility.yul\":2005:2017   */\n      revert\n        /* \"#utility.yul\":1966:1968   */\n    tag_63:\n        /* \"#utility.yul\":2058:2059   */\n      0x00\n        /* \"#utility.yul\":2083:2144   */\n      tag_64\n        /* \"#utility.yul\":2136:2143   */\n      dup8\n        /* \"#utility.yul\":2127:2133   */\n      dup3\n        /* \"#utility.yul\":2116:2125   */\n      dup9\n        /* \"#utility.yul\":2112:2134   */\n      add\n        /* \"#utility.yul\":2083:2144   */\n      tag_44\n      jump\t// in\n    tag_64:\n        /* \"#utility.yul\":2073:2144   */\n      swap5\n      pop\n        /* \"#utility.yul\":2029:2154   */\n      pop\n        /* \"#utility.yul\":2193:2195   */\n      0x20\n        /* \"#utility.yul\":2219:2285   */\n      tag_65\n        /* \"#utility.yul\":2277:2284   */\n      dup8\n        /* \"#utility.yul\":2268:2274   */\n      dup3\n        /* \"#utility.yul\":2257:2266   */\n      dup9\n        /* \"#utility.yul\":2253:2275   */\n      add\n        /* \"#utility.yul\":2219:2285   */\n      tag_52\n      jump\t// in\n    tag_65:\n        /* \"#utility.yul\":2209:2285   */\n      swap4\n      pop\n        /* \"#utility.yul\":2164:2295   */\n      pop\n        /* \"#utility.yul\":2334:2336   */\n      0x40\n        /* \"#utility.yul\":2360:2426   */\n      tag_66\n        /* \"#utility.yul\":2418:2425   */\n      dup8\n        /* \"#utility.yul\":2409:2415   */\n      dup3\n        /* \"#utility.yul\":2398:2407   */\n      dup9\n        /* \"#utility.yul\":2394:2416   */\n      add\n        /* \"#utility.yul\":2360:2426   */\n      tag_52\n      jump\t// in\n    tag_66:\n        /* \"#utility.yul\":2350:2426   */\n      swap3\n      pop\n        /* \"#utility.yul\":2305:2436   */\n      pop\n        /* \"#utility.yul\":2475:2477   */\n      0x60\n        /* \"#utility.yul\":2501:2577   */\n      tag_67\n        /* \"#utility.yul\":2569:2576   */\n      dup8\n        /* \"#utility.yul\":2560:2566   */\n      dup3\n        /* \"#utility.yul\":2549:2558   */\n      dup9\n        /* \"#utility.yul\":2545:2567   */\n      add\n        /* \"#utility.yul\":2501:2577   */\n      tag_48\n      jump\t// in\n    tag_67:\n        /* \"#utility.yul\":2491:2577   */\n      swap2\n      pop\n        /* \"#utility.yul\":2446:2587   */\n      pop\n        /* \"#utility.yul\":1956:2594   */\n      swap3\n      swap6\n      swap2\n      swap5\n      pop\n      swap3\n      pop\n      jump\t// out\n        /* \"#utility.yul\":2600:2742   */\n    tag_68:\n        /* \"#utility.yul\":2703:2735   */\n      tag_70\n        /* \"#utility.yul\":2729:2734   */\n      dup2\n        /* \"#utility.yul\":2703:2735   */\n      tag_71\n      jump\t// in\n    tag_70:\n        /* \"#utility.yul\":2698:2701   */\n      dup3\n        /* \"#utility.yul\":2691:2736   */\n      mstore\n        /* \"#utility.yul\":2681:2742   */\n      pop\n      pop\n      jump\t// out\n        /* \"#utility.yul\":2748:2857   */\n    tag_72:\n        /* \"#utility.yul\":2829:2850   */\n      tag_74\n        /* \"#utility.yul\":2844:2849   */\n      dup2\n        /* \"#utility.yul\":2829:2850   */\n      tag_75\n      jump\t// in\n    tag_74:\n        /* \"#utility.yul\":2824:2827   */\n      dup3\n        /* \"#utility.yul\":2817:2851   */\n      mstore\n        /* \"#utility.yul\":2807:2857   */\n      pop\n      pop\n      jump\t// out\n        /* \"#utility.yul\":2863:2981   */\n    tag_76:\n        /* \"#utility.yul\":2950:2974   */\n      tag_78\n        /* \"#utility.yul\":2968:2973   */\n      dup2\n        /* \"#utility.yul\":2950:2974   */\n      tag_79\n      jump\t// in\n    tag_78:\n        /* \"#utility.yul\":2945:2948   */\n      dup3\n        /* \"#utility.yul\":2938:2975   */\n      mstore\n        /* \"#utility.yul\":2928:2981   */\n      pop\n      pop\n      jump\t// out\n        /* \"#utility.yul\":2987:3881   */\n    tag_21:\n      0x00\n        /* \"#utility.yul\":3290:3293   */\n      0xe0\n        /* \"#utility.yul\":3279:3288   */\n      dup3\n        /* \"#utility.yul\":3275:3294   */\n      add\n        /* \"#utility.yul\":3267:3294   */\n      swap1\n      pop\n        /* \"#utility.yul\":3304:3391   */\n      tag_81\n        /* \"#utility.yul\":3388:3389   */\n      0x00\n        /* \"#utility.yul\":3377:3386   */\n      dup4\n        /* \"#utility.yul\":3373:3390   */\n      add\n        /* \"#utility.yul\":3364:3370   */\n      dup11\n        /* \"#utility.yul\":3304:3391   */\n      tag_68\n      jump\t// in\n    tag_81:\n        /* \"#utility.yul\":3401:3473   */\n      tag_82\n        /* \"#utility.yul\":3469:3471   */\n      0x20\n        /* \"#utility.yul\":3458:3467   */\n      dup4\n        /* \"#utility.yul\":3454:3472   */\n      add\n        /* \"#utility.yul\":3445:3451   */\n      dup10\n        /* \"#utility.yul\":3401:3473   */\n      tag_76\n      jump\t// in\n    tag_82:\n        /* \"#utility.yul\":3483:3555   */\n      tag_83\n        /* \"#utility.yul\":3551:3553   */\n      0x40\n        /* \"#utility.yul\":3540:3549   */\n      dup4\n        /* \"#utility.yul\":3536:3554   */\n      add\n        /* \"#utility.yul\":3527:3533   */\n      dup9\n        /* \"#utility.yul\":3483:3555   */\n      tag_76\n      jump\t// in\n    tag_83:\n        /* \"#utility.yul\":3565:3637   */\n      tag_84\n        /* \"#utility.yul\":3633:3635   */\n      0x60\n        /* \"#utility.yul\":3622:3631   */\n      dup4\n        /* \"#utility.yul\":3618:3636   */\n      add\n        /* \"#utility.yul\":3609:3615   */\n      dup8\n        /* \"#utility.yul\":3565:3637   */\n      tag_76\n      jump\t// in\n    tag_84:\n        /* \"#utility.yul\":3647:3720   */\n      tag_85\n        /* \"#utility.yul\":3715:3718   */\n      0x80\n        /* \"#utility.yul\":3704:3713   */\n      dup4\n        /* \"#utility.yul\":3700:3719   */\n      add\n        /* \"#utility.yul\":3691:3697   */\n      dup7\n        /* \"#utility.yul\":3647:3720   */\n      tag_76\n      jump\t// in\n    tag_85:\n        /* \"#utility.yul\":3730:3797   */\n      tag_86\n        /* \"#utility.yul\":3792:3795   */\n      0xa0\n        /* \"#utility.yul\":3781:3790   */\n      dup4\n        /* \"#utility.yul\":3777:3796   */\n      add\n        /* \"#utility.yul\":3768:3774   */\n      dup6\n        /* \"#utility.yul\":3730:3797   */\n      tag_72\n      jump\t// in\n    tag_86:\n        /* \"#utility.yul\":3807:3874   */\n      tag_87\n        /* \"#utility.yul\":3869:3872   */\n      0xc0\n        /* \"#utility.yul\":3858:3867   */\n      dup4\n        /* \"#utility.yul\":3854:3873   */\n      add\n        /* \"#utility.yul\":3845:3851   */\n      dup5\n        /* \"#utility.yul\":3807:3874   */\n      tag_72\n      jump\t// in\n    tag_87:\n        /* \"#utility.yul\":3257:3881   */\n      swap9\n      swap8\n      pop\n      pop\n      pop\n      pop\n      pop\n      pop\n      pop\n      pop\n      jump\t// out\n        /* \"#utility.yul\":3887:4109   */\n    tag_12:\n      0x00\n        /* \"#utility.yul\":4018:4020   */\n      0x20\n        /* \"#utility.yul\":4007:4016   */\n      dup3\n        /* \"#utility.yul\":4003:4021   */\n      add\n        /* \"#utility.yul\":3995:4021   */\n      swap1\n      pop\n        /* \"#utility.yul\":4031:4102   */\n      tag_89\n        /* \"#utility.yul\":4099:4100   */\n      0x00\n        /* \"#utility.yul\":4088:4097   */\n      dup4\n        /* \"#utility.yul\":4084:4101   */\n      add\n        /* \"#utility.yul\":4075:4081   */\n      dup5\n        /* \"#utility.yul\":4031:4102   */\n      tag_76\n      jump\t// in\n    tag_89:\n        /* \"#utility.yul\":3985:4109   */\n      swap3\n      swap2\n      pop\n      pop\n      jump\t// out\n        /* \"#utility.yul\":4115:4890   */\n    tag_25:\n      0x00\n        /* \"#utility.yul\":4386:4389   */\n      0xc0\n        /* \"#utility.yul\":4375:4384   */\n      dup3\n        /* \"#utility.yul\":4371:4390   */\n      add\n        /* \"#utility.yul\":4363:4390   */\n      swap1\n      pop\n        /* \"#utility.yul\":4400:4471   */\n      tag_91\n        /* \"#utility.yul\":4468:4469   */\n      0x00\n        /* \"#utility.yul\":4457:4466   */\n      dup4\n        /* \"#utility.yul\":4453:4470   */\n      add\n        /* \"#utility.yul\":4444:4450   */\n      dup10\n        /* \"#utility.yul\":4400:4471   */\n      tag_76\n      jump\t// in\n    tag_91:\n        /* \"#utility.yul\":4481:4553   */\n      tag_92\n        /* \"#utility.yul\":4549:4551   */\n      0x20\n        /* \"#utility.yul\":4538:4547   */\n      dup4\n        /* \"#utility.yul\":4534:4552   */\n      add\n        /* \"#utility.yul\":4525:4531   */\n      dup9\n        /* \"#utility.yul\":4481:4553   */\n      tag_76\n      jump\t// in\n    tag_92:\n        /* \"#utility.yul\":4563:4635   */\n      tag_93\n        /* \"#utility.yul\":4631:4633   */\n      0x40\n        /* \"#utility.yul\":4620:4629   */\n      dup4\n        /* \"#utility.yul\":4616:4634   */\n      add\n        /* \"#utility.yul\":4607:4613   */\n      dup8\n        /* \"#utility.yul\":4563:4635   */\n      tag_76\n      jump\t// in\n    tag_93:\n        /* \"#utility.yul\":4645:4717   */\n      tag_94\n        /* \"#utility.yul\":4713:4715   */\n      0x60\n        /* \"#utility.yul\":4702:4711   */\n      dup4\n        /* \"#utility.yul\":4698:4716   */\n      add\n        /* \"#utility.yul\":4689:4695   */\n      dup7\n        /* \"#utility.yul\":4645:4717   */\n      tag_76\n      jump\t// in\n    tag_94:\n        /* \"#utility.yul\":4727:4800   */\n      tag_95\n        /* \"#utility.yul\":4795:4798   */\n      0x80\n        /* \"#utility.yul\":4784:4793   */\n      dup4\n        /* \"#utility.yul\":4780:4799   */\n      add\n        /* \"#utility.yul\":4771:4777   */\n      dup6\n        /* \"#utility.yul\":4727:4800   */\n      tag_76\n      jump\t// in\n    tag_95:\n        /* \"#utility.yul\":4810:4883   */\n      tag_96\n        /* \"#utility.yul\":4878:4881   */\n      0xa0\n        /* \"#utility.yul\":4867:4876   */\n      dup4\n        /* \"#utility.yul\":4863:4882   */\n      add\n        /* \"#utility.yul\":4854:4860   */\n      dup5\n        /* \"#utility.yul\":4810:4883   */\n      tag_76\n      jump\t// in\n    tag_96:\n        /* \"#utility.yul\":4353:4890   */\n      swap8\n      swap7\n      pop\n      pop\n      pop\n      pop\n      pop\n      pop\n      pop\n      jump\t// out\n        /* \"#utility.yul\":4896:5179   */\n    tag_33:\n      0x00\n        /* \"#utility.yul\":4962:4964   */\n      0x40\n        /* \"#utility.yul\":4956:4965   */\n      mload\n        /* \"#utility.yul\":4946:4965   */\n      swap1\n      pop\n        /* \"#utility.yul\":5004:5008   */\n      dup2\n        /* \"#utility.yul\":4996:5002   */\n      dup2\n        /* \"#utility.yul\":4992:5009   */\n      add\n        /* \"#utility.yul\":5111:5117   */\n      dup2\n        /* \"#utility.yul\":5099:5109   */\n      dup2\n        /* \"#utility.yul\":5096:5118   */\n      lt\n        /* \"#utility.yul\":5075:5093   */\n      0xffffffffffffffff\n        /* \"#utility.yul\":5063:5073   */\n      dup3\n        /* \"#utility.yul\":5060:5094   */\n      gt\n        /* \"#utility.yul\":5057:5119   */\n      or\n        /* \"#utility.yul\":5054:5056   */\n      iszero\n      tag_98\n      jumpi\n        /* \"#utility.yul\":5122:5140   */\n      tag_99\n      tag_100\n      jump\t// in\n    tag_99:\n        /* \"#utility.yul\":5054:5056   */\n    tag_98:\n        /* \"#utility.yul\":5162:5172   */\n      dup1\n        /* \"#utility.yul\":5158:5160   */\n      0x40\n        /* \"#utility.yul\":5151:5173   */\n      mstore\n        /* \"#utility.yul\":4936:5179   */\n      pop\n      swap2\n      swap1\n      pop\n      jump\t// out\n        /* \"#utility.yul\":5185:5434   */\n    tag_32:\n      0x00\n        /* \"#utility.yul\":5350:5368   */\n      0xffffffffffffffff\n        /* \"#utility.yul\":5342:5348   */\n      dup3\n        /* \"#utility.yul\":5339:5369   */\n      gt\n        /* \"#utility.yul\":5336:5338   */\n      iszero\n      tag_102\n      jumpi\n        /* \"#utility.yul\":5372:5390   */\n      tag_103\n      tag_100\n      jump\t// in\n    tag_103:\n        /* \"#utility.yul\":5336:5338   */\n    tag_102:\n        /* \"#utility.yul\":5422:5426   */\n      0x20\n        /* \"#utility.yul\":5414:5420   */\n      dup3\n        /* \"#utility.yul\":5410:5427   */\n      mul\n        /* \"#utility.yul\":5402:5427   */\n      swap1\n      pop\n        /* \"#utility.yul\":5265:5434   */\n      swap2\n      swap1\n      pop\n      jump\t// out\n        /* \"#utility.yul\":5440:5536   */\n    tag_104:\n      0x00\n        /* \"#utility.yul\":5506:5530   */\n      tag_106\n        /* \"#utility.yul\":5524:5529   */\n      dup3\n        /* \"#utility.yul\":5506:5530   */\n      tag_107\n      jump\t// in\n    tag_106:\n        /* \"#utility.yul\":5495:5530   */\n      swap1\n      pop\n        /* \"#utility.yul\":5485:5536   */\n      swap2\n      swap1\n      pop\n      jump\t// out\n        /* \"#utility.yul\":5542:5646   */\n    tag_71:\n      0x00\n        /* \"#utility.yul\":5616:5640   */\n      tag_109\n        /* \"#utility.yul\":5634:5639   */\n      dup3\n        /* \"#utility.yul\":5616:5640   */\n      tag_107\n      jump\t// in\n    tag_109:\n        /* \"#utility.yul\":5605:5640   */\n      swap1\n      pop\n        /* \"#utility.yul\":5595:5646   */\n      swap2\n      swap1\n      pop\n      jump\t// out\n        /* \"#utility.yul\":5652:5742   */\n    tag_75:\n      0x00\n        /* \"#utility.yul\":5729:5734   */\n      dup2\n        /* \"#utility.yul\":5722:5735   */\n      iszero\n        /* \"#utility.yul\":5715:5736   */\n      iszero\n        /* \"#utility.yul\":5704:5736   */\n      swap1\n      pop\n        /* \"#utility.yul\":5694:5742   */\n      swap2\n      swap1\n      pop\n      jump\t// out\n        /* \"#utility.yul\":5748:5857   */\n    tag_111:\n      0x00\n        /* \"#utility.yul\":5827:5851   */\n      tag_113\n        /* \"#utility.yul\":5845:5850   */\n      dup3\n        /* \"#utility.yul\":5827:5851   */\n      tag_104\n      jump\t// in\n    tag_113:\n        /* \"#utility.yul\":5816:5851   */\n      swap1\n      pop\n        /* \"#utility.yul\":5806:5857   */\n      swap2\n      swap1\n      pop\n      jump\t// out\n        /* \"#utility.yul\":5863:5989   */\n    tag_107:\n      0x00\n        /* \"#utility.yul\":5940:5982   */\n      0xffffffffffffffffffffffffffffffffffffffff\n        /* \"#utility.yul\":5933:5938   */\n      dup3\n        /* \"#utility.yul\":5929:5983   */\n      and\n        /* \"#utility.yul\":5918:5983   */\n      swap1\n      pop\n        /* \"#utility.yul\":5908:5989   */\n      swap2\n      swap1\n      pop\n      jump\t// out\n        /* \"#utility.yul\":5995:6072   */\n    tag_79:\n      0x00\n        /* \"#utility.yul\":6061:6066   */\n      dup2\n        /* \"#utility.yul\":6050:6066   */\n      swap1\n      pop\n        /* \"#utility.yul\":6040:6072   */\n      swap2\n      swap1\n      pop\n      jump\t// out\n        /* \"#utility.yul\":6078:6258   */\n    tag_100:\n        /* \"#utility.yul\":6126:6203   */\n      0x4e487b7100000000000000000000000000000000000000000000000000000000\n        /* \"#utility.yul\":6123:6124   */\n      0x00\n        /* \"#utility.yul\":6116:6204   */\n      mstore\n        /* \"#utility.yul\":6223:6227   */\n      0x41\n        /* \"#utility.yul\":6220:6221   */\n      0x04\n        /* \"#utility.yul\":6213:6228   */\n      mstore\n        /* \"#utility.yul\":6247:6251   */\n      0x24\n        /* \"#utility.yul\":6244:6245   */\n      0x00\n        /* \"#utility.yul\":6237:6252   */\n      revert\n        /* \"#utility.yul\":6264:6386   */\n    tag_43:\n        /* \"#utility.yul\":6337:6361   */\n      tag_118\n        /* \"#utility.yul\":6355:6360   */\n      dup2\n        /* \"#utility.yul\":6337:6361   */\n      tag_104\n      jump\t// in\n    tag_118:\n        /* \"#utility.yul\":6330:6335   */\n      dup2\n        /* \"#utility.yul\":6327:6362   */\n      eq\n        /* \"#utility.yul\":6317:6319   */\n      tag_119\n      jumpi\n        /* \"#utility.yul\":6376:6377   */\n      0x00\n        /* \"#utility.yul\":6373:6374   */\n      dup1\n        /* \"#utility.yul\":6366:6378   */\n      revert\n        /* \"#utility.yul\":6317:6319   */\n    tag_119:\n        /* \"#utility.yul\":6307:6386   */\n      pop\n      jump\t// out\n        /* \"#utility.yul\":6392:6530   */\n    tag_47:\n        /* \"#utility.yul\":6473:6505   */\n      tag_121\n        /* \"#utility.yul\":6499:6504   */\n      dup2\n        /* \"#utility.yul\":6473:6505   */\n      tag_71\n      jump\t// in\n    tag_121:\n        /* \"#utility.yul\":6466:6471   */\n      dup2\n        /* \"#utility.yul\":6463:6506   */\n      eq\n        /* \"#utility.yul\":6453:6455   */\n      tag_122\n      jumpi\n        /* \"#utility.yul\":6520:6521   */\n      0x00\n        /* \"#utility.yul\":6517:6518   */\n      dup1\n        /* \"#utility.yul\":6510:6522   */\n      revert\n        /* \"#utility.yul\":6453:6455   */\n    tag_122:\n        /* \"#utility.yul\":6443:6530   */\n      pop\n      jump\t// out\n        /* \"#utility.yul\":6536:6684   */\n    tag_55:\n        /* \"#utility.yul\":6622:6659   */\n      tag_124\n        /* \"#utility.yul\":6653:6658   */\n      dup2\n        /* \"#utility.yul\":6622:6659   */\n      tag_111\n      jump\t// in\n    tag_124:\n        /* \"#utility.yul\":6615:6620   */\n      dup2\n        /* \"#utility.yul\":6612:6660   */\n      eq\n        /* \"#utility.yul\":6602:6604   */\n      tag_125\n      jumpi\n        /* \"#utility.yul\":6674:6675   */\n      0x00\n        /* \"#utility.yul\":6671:6672   */\n      dup1\n        /* \"#utility.yul\":6664:6676   */\n      revert\n        /* \"#utility.yul\":6602:6604   */\n    tag_125:\n        /* \"#utility.yul\":6592:6684   */\n      pop\n      jump\t// out\n        /* \"#utility.yul\":6690:6812   */\n    tag_58:\n        /* \"#utility.yul\":6763:6787   */\n      tag_127\n        /* \"#utility.yul\":6781:6786   */\n      dup2\n        /* \"#utility.yul\":6763:6787   */\n      tag_79\n      jump\t// in\n    tag_127:\n        /* \"#utility.yul\":6756:6761   */\n      dup2\n        /* \"#utility.yul\":6753:6788   */\n      eq\n        /* \"#utility.yul\":6743:6745   */\n      tag_128\n      jumpi\n        /* \"#utility.yul\":6802:6803   */\n      0x00\n        /* \"#utility.yul\":6799:6800   */\n      dup1\n        /* \"#utility.yul\":6792:6804   */\n      revert\n        /* \"#utility.yul\":6743:6745   */\n    tag_128:\n        /* \"#utility.yul\":6733:6812   */\n      pop\n      jump\t// out\n\n    auxdata: 0xa2646970667358221220ac51d3426645efc11bf2831db0118eb377ac3d61f21e6e1b6ea3da95f0f865b564736f6c63430008000033\n}\n",
				"bytecode": {
					"linkReferences": {},
					"object": "608060405234801561001057600080fd5b506105c1806100206000396000f3fe608060405234801561001057600080fd5b506004361061004c5760003560e01c806356c5f349146100515780638f1eae4c14610081578063e2d3f4231461009d578063e33865b3146100d3575b600080fd5b61006b60048036038101906100669190610298565b6100f6565b60405161007891906103c1565b60405180910390f35b61009b600480360381019061009691906102c1565b61010e565b005b6100b760048036038101906100b29190610298565b610114565b6040516100ca9796959493929190610352565b60405180910390f35b6100db610190565b6040516100ed969594939291906103dc565b60405180910390f35b60016020528060005260406000206000915090505481565b50505050565b60006020528060005260406000206000915090508060000160009054906101000a900473ffffffffffffffffffffffffffffffffffffffff16908060010154908060020154908060030154908060040154908060050160009054906101000a900460ff16908060050160019054906101000a900460ff16905087565b60028060000154908060010154908060020154908060030154908060040154908060050154905086565b60006101cd6101c88461046e565b61043d565b905080828560208602820111156101e357600080fd5b60005b8581101561021357816101f98882610283565b8452602084019350602083019250506001810190506101e6565b5050509392505050565b60008135905061022c8161052f565b92915050565b60008135905061024181610546565b92915050565b600082601f83011261025857600080fd5b60096102658482856101ba565b91505092915050565b60008135905061027d8161055d565b92915050565b60008135905061029281610574565b92915050565b6000602082840312156102aa57600080fd5b60006102b88482850161021d565b91505092915050565b60008060008061018085870312156102d857600080fd5b60006102e687828801610232565b94505060206102f78782880161026e565b93505060406103088782880161026e565b925050606061031987828801610247565b91505092959194509250565b61032e816104a6565b82525050565b61033d816104b8565b82525050565b61034c816104f6565b82525050565b600060e082019050610367600083018a610325565b6103746020830189610343565b6103816040830188610343565b61038e6060830187610343565b61039b6080830186610343565b6103a860a0830185610334565b6103b560c0830184610334565b98975050505050505050565b60006020820190506103d66000830184610343565b92915050565b600060c0820190506103f16000830189610343565b6103fe6020830188610343565b61040b6040830187610343565b6104186060830186610343565b6104256080830185610343565b61043260a0830184610343565b979650505050505050565b6000604051905081810181811067ffffffffffffffff8211171561046457610463610500565b5b8060405250919050565b600067ffffffffffffffff82111561048957610488610500565b5b602082029050919050565b600061049f826104d6565b9050919050565b60006104b1826104d6565b9050919050565b60008115159050919050565b60006104cf82610494565b9050919050565b600073ffffffffffffffffffffffffffffffffffffffff82169050919050565b6000819050919050565b7f4e487b7100000000000000000000000000000000000000000000000000000000600052604160045260246000fd5b61053881610494565b811461054357600080fd5b50565b61054f816104a6565b811461055a57600080fd5b50565b610566816104c4565b811461057157600080fd5b50565b61057d816104f6565b811461058857600080fd5b5056fea2646970667358221220ac51d3426645efc11bf2831db0118eb377ac3d61f21e6e1b6ea3da95f0f865b564736f6c63430008000033",
					"opcodes": "PUSH1 0x80 PUSH1 0x40 MSTORE CALLVALUE DUP1 ISZERO PUSH2 0x10 JUMPI PUSH1 0x0 DUP1 REVERT JUMPDEST POP PUSH2 0x5C1 DUP1 PUSH2 0x20 PUSH1 0x0 CODECOPY PUSH1 0x0 RETURN INVALID PUSH1 0x80 PUSH1 0x40 MSTORE CALLVALUE DUP1 ISZERO PUSH2 0x10 JUMPI PUSH1 0x0 DUP1 REVERT JUMPDEST POP PUSH1 0x4 CALLDATASIZE LT PUSH2 0x4C JUMPI PUSH1 0x0 CALLDATALOAD PUSH1 0xE0 SHR DUP1 PUSH4 0x56C5F349 EQ PUSH2 0x51 JUMPI DUP1 PUSH4 0x8F1EAE4C EQ PUSH2 0x81 JUMPI DUP1 PUSH4 0xE2D3F423 EQ PUSH2 0x9D JUMPI DUP1 PUSH4 0xE33865B3 EQ PUSH2 0xD3 JUMPI JUMPDEST PUSH1 0x0 DUP1 REVERT JUMPDEST PUSH2 0x6B PUSH1 0x4 DUP1 CALLDATASIZE SUB DUP2 ADD SWAP1 PUSH2 0x66 SWAP2 SWAP1 PUSH2 0x298 JUMP JUMPDEST PUSH2 0xF6 JUMP JUMPDEST PUSH1 0x40 MLOAD PUSH2 0x78 SWAP2 SWAP1 PUSH2 0x3C1 JUMP JUMPDEST PUSH1 0x40 MLOAD DUP1 SWAP2 SUB SWAP1 RETURN JUMPDEST PUSH2 0x9B PUSH1 0x4 DUP1 CALLDATASIZE SUB DUP2 ADD SWAP1 PUSH2 0x96 SWAP2 SWAP1 PUSH2 0x2C1 JUMP JUMPDEST PUSH2 0x10E JUMP JUMPDEST STOP JUMPDEST PUSH2 0xB7 PUSH1 0x4 DUP1 CALLDATASIZE SUB DUP2 ADD SWAP1 PUSH2 0xB2 SWAP2 SWAP1 PUSH2 0x298 JUMP JUMPDEST PUSH2 0x114 JUMP JUMPDEST PUSH1 0x40 MLOAD PUSH2 0xCA SWAP8 SWAP7 SWAP6 SWAP5 SWAP4 SWAP3 SWAP2 SWAP1 PUSH2 0x352 JUMP JUMPDEST PUSH1 0x40 MLOAD DUP1 SWAP2 SUB SWAP1 RETURN JUMPDEST PUSH2 0xDB PUSH2 0x190 JUMP JUMPDEST PUSH1 0x40 MLOAD PUSH2 0xED SWAP7 SWAP6 SWAP5 SWAP4 SWAP3 SWAP2 SWAP1 PUSH2 0x3DC JUMP JUMPDEST PUSH1 0x40 MLOAD DUP1 SWAP2 SUB SWAP1 RETURN JUMPDEST PUSH1 0x1 PUSH1 0x20 MSTORE DUP1 PUSH1 0x0 MSTORE PUSH1 0x40 PUSH1 0x0 KECCAK256 PUSH1 0x0 SWAP2 POP SWAP1 POP SLOAD DUP2 JUMP JUMPDEST POP POP POP POP JUMP JUMPDEST PUSH1 0x0 PUSH1 0x20 MSTORE DUP1 PUSH1 0x0 MSTORE PUSH1 0x40 PUSH1 0x0 KECCAK256 PUSH1 0x0 SWAP2 POP SWAP1 POP DUP1 PUSH1 0x0 ADD PUSH1 0x0 SWAP1 SLOAD SWAP1 PUSH2 0x100 EXP SWAP1 DIV PUSH20 0xFFFFFFFFFFFFFFFFFFFFFFFFFFFFFFFFFFFFFFFF AND SWAP1 DUP1 PUSH1 0x1 ADD SLOAD SWAP1 DUP1 PUSH1 0x2 ADD SLOAD SWAP1 DUP1 PUSH1 0x3 ADD SLOAD SWAP1 DUP1 PUSH1 0x4 ADD SLOAD SWAP1 DUP1 PUSH1 0x5 ADD PUSH1 0x0 SWAP1 SLOAD SWAP1 PUSH2 0x100 EXP SWAP1 DIV PUSH1 0xFF AND SWAP1 DUP1 PUSH1 0x5 ADD PUSH1 0x1 SWAP1 SLOAD SWAP1 PUSH2 0x100 EXP SWAP1 DIV PUSH1 0xFF AND SWAP1 POP DUP8 JUMP JUMPDEST PUSH1 0x2 DUP1 PUSH1 0x0 ADD SLOAD SWAP1 DUP1 PUSH1 0x1 ADD SLOAD SWAP1 DUP1 PUSH1 0x2 ADD SLOAD SWAP1 DUP1 PUSH1 0x3 ADD SLOAD SWAP1 DUP1 PUSH1 0x4 ADD SLOAD SWAP1 DUP1 PUSH1 0x5 ADD SLOAD SWAP1 POP DUP7 JUMP JUMPDEST PUSH1 0x0 PUSH2 0x1CD PUSH2 0x1C8 DUP5 PUSH2 0x46E JUMP JUMPDEST PUSH2 0x43D JUMP JUMPDEST SWAP1 POP DUP1 DUP3 DUP6 PUSH1 0x20 DUP7 MUL DUP3 ADD GT ISZERO PUSH2 0x1E3 JUMPI PUSH1 0x0 DUP1 REVERT JUMPDEST PUSH1 0x0 JUMPDEST DUP6 DUP2 LT ISZERO PUSH2 0x213 JUMPI DUP2 PUSH2 0x1F9 DUP9 DUP3 PUSH2 0x283 JUMP JUMPDEST DUP5 MSTORE PUSH1 0x20 DUP5 ADD SWAP4 POP PUSH1 0x20 DUP4 ADD SWAP3 POP POP PUSH1 0x1 DUP2 ADD SWAP1 POP PUSH2 0x1E6 JUMP JUMPDEST POP POP POP SWAP4 SWAP3 POP POP POP JUMP JUMPDEST PUSH1 0x0 DUP2 CALLDATALOAD SWAP1 POP PUSH2 0x22C DUP2 PUSH2 0x52F JUMP JUMPDEST SWAP3 SWAP2 POP POP JUMP JUMPDEST PUSH1 0x0 DUP2 CALLDATALOAD SWAP1 POP PUSH2 0x241 DUP2 PUSH2 0x546 JUMP JUMPDEST SWAP3 SWAP2 POP POP JUMP JUMPDEST PUSH1 0x0 DUP3 PUSH1 0x1F DUP4 ADD SLT PUSH2 0x258 JUMPI PUSH1 0x0 DUP1 REVERT JUMPDEST PUSH1 0x9 PUSH2 0x265 DUP5 DUP3 DUP6 PUSH2 0x1BA JUMP JUMPDEST SWAP2 POP POP SWAP3 SWAP2 POP POP JUMP JUMPDEST PUSH1 0x0 DUP2 CALLDATALOAD SWAP1 POP PUSH2 0x27D DUP2 PUSH2 0x55D JUMP JUMPDEST SWAP3 SWAP2 POP POP JUMP JUMPDEST PUSH1 0x0 DUP2 CALLDATALOAD SWAP1 POP PUSH2 0x292 DUP2 PUSH2 0x574 JUMP JUMPDEST SWAP3 SWAP2 POP POP JUMP JUMPDEST PUSH1 0x0 PUSH1 0x20 DUP3 DUP5 SUB SLT ISZERO PUSH2 0x2AA JUMPI PUSH1 0x0 DUP1 REVERT JUMPDEST PUSH1 0x0 PUSH2 0x2B8 DUP5 DUP3 DUP6 ADD PUSH2 0x21D JUMP JUMPDEST SWAP2 POP POP SWAP3 SWAP2 POP POP JUMP JUMPDEST PUSH1 0x0 DUP1 PUSH1 0x0 DUP1 PUSH2 0x180 DUP6 DUP8 SUB SLT ISZERO PUSH2 0x2D8 JUMPI PUSH1 0x0 DUP1 REVERT JUMPDEST PUSH1 0x0 PUSH2 0x2E6 DUP8 DUP3 DUP9 ADD PUSH2 0x232 JUMP JUMPDEST SWAP5 POP POP PUSH1 0x20 PUSH2 0x2F7 DUP8 DUP3 DUP9 ADD PUSH2 0x26E JUMP JUMPDEST SWAP4 POP POP PUSH1 0x40 PUSH2 0x308 DUP8 DUP3 DUP9 ADD PUSH2 0x26E JUMP JUMPDEST SWAP3 POP POP PUSH1 0x60 PUSH2 0x319 DUP8 DUP3 DUP9 ADD PUSH2 0x247 JUMP JUMPDEST SWAP2 POP POP SWAP3 SWAP6 SWAP2 SWAP5 POP SWAP3 POP JUMP JUMPDEST PUSH2 0x32E DUP2 PUSH2 0x4A6 JUMP JUMPDEST DUP3 MSTORE POP POP JUMP JUMPDEST PUSH2 0x33D DUP2 PUSH2 0x4B8 JUMP JUMPDEST DUP3 MSTORE POP POP JUMP JUMPDEST PUSH2 0x34C DUP2 PUSH2 0x4F6 JUMP JUMPDEST DUP3 MSTORE POP POP JUMP JUMPDEST PUSH1 0x0 PUSH1 0xE0 DUP3 ADD SWAP1 POP PUSH2 0x367 PUSH1 0x0 DUP4 ADD DUP11 PUSH2 0x325 JUMP JUMPDEST PUSH2 0x374 PUSH1 0x20 DUP4 ADD DUP10 PUSH2 0x343 JUMP JUMPDEST PUSH2 0x381 PUSH1 0x40 DUP4 ADD DUP9 PUSH2 0x343 JUMP JUMPDEST PUSH2 0x38E PUSH1 0x60 DUP4 ADD DUP8 PUSH2 0x343 JUMP JUMPDEST PUSH2 0x39B PUSH1 0x80 DUP4 ADD DUP7 PUSH2 0x343 JUMP JUMPDEST PUSH2 0x3A8 PUSH1 0xA0 DUP4 ADD DUP6 PUSH2 0x334 JUMP JUMPDEST PUSH2 0x3B5 PUSH1 0xC0 DUP4 ADD DUP5 PUSH2 0x334 JUMP JUMPDEST SWAP9 SWAP8 POP POP POP POP POP POP POP POP JUMP JUMPDEST PUSH1 0x0 PUSH1 0x20 DUP3 ADD SWAP1 POP PUSH2 0x3D6 PUSH1 0x0 DUP4 ADD DUP5 PUSH2 0x343 JUMP JUMPDEST SWAP3 SWAP2 POP POP JUMP JUMPDEST PUSH1 0x0 PUSH1 0xC0 DUP3 ADD SWAP1 POP PUSH2 0x3F1 PUSH1 0x0 DUP4 ADD DUP10 PUSH2 0x343 JUMP JUMPDEST PUSH2 0x3FE PUSH1 0x20 DUP4 ADD DUP9 PUSH2 0x343 JUMP JUMPDEST PUSH2 0x40B PUSH1 0x40 DUP4 ADD DUP8 PUSH2 0x343 JUMP JUMPDEST PUSH2 0x418 PUSH1 0x60 DUP4 ADD DUP7 PUSH2 0x343 JUMP JUMPDEST PUSH2 0x425 PUSH1 0x80 DUP4 ADD DUP6 PUSH2 0x343 JUMP JUMPDEST PUSH2 0x432 PUSH1 0xA0 DUP4 ADD DUP5 PUSH2 0x343 JUMP JUMPDEST SWAP8 SWAP7 POP POP POP POP POP POP POP JUMP JUMPDEST PUSH1 0x0 PUSH1 0x40 MLOAD SWAP1 POP DUP2 DUP2 ADD DUP2 DUP2 LT PUSH8 0xFFFFFFFFFFFFFFFF DUP3 GT OR ISZERO PUSH2 0x464 JUMPI PUSH2 0x463 PUSH2 0x500 JUMP JUMPDEST JUMPDEST DUP1 PUSH1 0x40 MSTORE POP SWAP2 SWAP1 POP JUMP JUMPDEST PUSH1 0x0 PUSH8 0xFFFFFFFFFFFFFFFF DUP3 GT ISZERO PUSH2 0x489 JUMPI PUSH2 0x488 PUSH2 0x500 JUMP JUMPDEST JUMPDEST PUSH1 0x20 DUP3 MUL SWAP1 POP SWAP2 SWAP1 POP JUMP JUMPDEST PUSH1 0x0 PUSH2 0x49F DUP3 PUSH2 0x4D6 JUMP JUMPDEST SWAP1 POP SWAP2 SWAP1 POP JUMP JUMPDEST PUSH1 0x0 PUSH2 0x4B1 DUP3 PUSH2 0x4D6 JUMP JUMPDEST SWAP1 POP SWAP2 SWAP1 POP JUMP JUMPDEST PUSH1 0x0 DUP2 ISZERO ISZERO SWAP1 POP SWAP2 SWAP1 POP JUMP JUMPDEST PUSH1 0x0 PUSH2 0x4CF DUP3 PUSH2 0x494 JUMP JUMPDEST SWAP1 POP SWAP2 SWAP1 POP JUMP JUMPDEST PUSH1 0x0 PUSH20 0xFFFFFFFFFFFFFFFFFFFFFFFFFFFFFFFFFFFFFFFF DUP3 AND SWAP1 POP SWAP2 SWAP1 POP JUMP JUMPDEST PUSH1 0x0 DUP2 SWAP1 POP SWAP2 SWAP1 POP JUMP JUMPDEST PUSH32 0x4E487B7100000000000000000000000000000000000000000000000000000000 PUSH1 0x0 MSTORE PUSH1 0x41 PUSH1 0x4 MSTORE PUSH1 0x24 PUSH1 0x0 REVERT JUMPDEST PUSH2 0x538 DUP2 PUSH2 0x494 JUMP JUMPDEST DUP2 EQ PUSH2 0x543 JUMPI PUSH1 0x0 DUP1 REVERT JUMPDEST POP JUMP JUMPDEST PUSH2 0x54F DUP2 PUSH2 0x4A6 JUMP JUMPDEST DUP2 EQ PUSH2 0x55A JUMPI PUSH1 0x0 DUP1 REVERT JUMPDEST POP JUMP JUMPDEST PUSH2 0x566 DUP2 PUSH2 0x4C4 JUMP JUMPDEST DUP2 EQ PUSH2 0x571 JUMPI PUSH1 0x0 DUP1 REVERT JUMPDEST POP JUMP JUMPDEST PUSH2 0x57D DUP2 PUSH2 0x4F6 JUMP JUMPDEST DUP2 EQ PUSH2 0x588 JUMPI PUSH1 0x0 DUP1 REVERT JUMPDEST POP JUMP INVALID LOG2 PUSH5 0x6970667358 0x22 SLT KECCAK256 0xAC MLOAD 0xD3 TIMESTAMP PUSH7 0x45EFC11BF2831D 0xB0 GT DUP15 0xB3 PUSH24 0xAC3D61F21E6E1B6EA3DA95F0F865B564736F6C6343000800 STOP CALLER "
				},
				"gasEstimates": {
					"creation": {
						"codeDepositCost": "294600",
						"executionCost": "337",
						"totalCost": "294937"
					},
					"external": {
						"STATUS()": "infinite",
						"buyerInfo(address)": "infinite",
						"initialSaleInfor(address,address,address,uint256[9])": "infinite",
						"userFee(address)": "1492"
					}
				},
				"methodIdentifiers": {
					"STATUS()": "e33865b3",
					"buyerInfo(address)": "e2d3f423",
					"initialSaleInfor(address,address,address,uint256[9])": "8f1eae4c",
					"userFee(address)": "56c5f349"
				}
			},
			"storageLayout": {
				"storage": [
					{
						"astId": 140,
						"contract": "Ethereum/Presale.sol:Presale",
						"label": "buyerInfo",
						"offset": 0,
						"slot": "0",
						"type": "t_mapping(t_address,t_struct(BuyerInfo)122_storage)"
					},
					{
						"astId": 144,
						"contract": "Ethereum/Presale.sol:Presale",
						"label": "userFee",
						"offset": 0,
						"slot": "1",
						"type": "t_mapping(t_address,t_uint256)"
					},
					{
						"astId": 147,
						"contract": "Ethereum/Presale.sol:Presale",
						"label": "STATUS",
						"offset": 0,
						"slot": "2",
						"type": "t_struct(PresaleStatus)135_storage"
					}
				],
				"types": {
					"t_address": {
						"encoding": "inplace",
						"label": "address",
						"numberOfBytes": "20"
					},
					"t_address_payable": {
						"encoding": "inplace",
						"label": "address payable",
						"numberOfBytes": "20"
					},
					"t_bool": {
						"encoding": "inplace",
						"label": "bool",
						"numberOfBytes": "1"
					},
					"t_mapping(t_address,t_struct(BuyerInfo)122_storage)": {
						"encoding": "mapping",
						"key": "t_address",
						"label": "mapping(address => struct Presale.BuyerInfo)",
						"numberOfBytes": "32",
						"value": "t_struct(BuyerInfo)122_storage"
					},
					"t_mapping(t_address,t_uint256)": {
						"encoding": "mapping",
						"key": "t_address",
						"label": "mapping(address => uint256)",
						"numberOfBytes": "32",
						"value": "t_uint256"
					},
					"t_struct(BuyerInfo)122_storage": {
						"encoding": "inplace",
						"label": "struct Presale.BuyerInfo",
						"members": [
							{
								"astId": 109,
								"contract": "Ethereum/Presale.sol:Presale",
								"label": "buyer",
								"offset": 0,
								"slot": "0",
								"type": "t_address_payable"
							},
							{
								"astId": 111,
								"contract": "Ethereum/Presale.sol:Presale",
								"label": "baseDeposit",
								"offset": 0,
								"slot": "1",
								"type": "t_uint256"
							},
							{
								"astId": 113,
								"contract": "Ethereum/Presale.sol:Presale",
								"label": "tokenOwner",
								"offset": 0,
								"slot": "2",
								"type": "t_uint256"
							},
							{
								"astId": 115,
								"contract": "Ethereum/Presale.sol:Presale",
								"label": "lastWithDraw",
								"offset": 0,
								"slot": "3",
								"type": "t_uint256"
							},
							{
								"astId": 117,
								"contract": "Ethereum/Presale.sol:Presale",
								"label": "totalTokenWithDraw",
								"offset": 0,
								"slot": "4",
								"type": "t_uint256"
							},
							{
								"astId": 119,
								"contract": "Ethereum/Presale.sol:Presale",
								"label": "isRefund",
								"offset": 0,
								"slot": "5",
								"type": "t_bool"
							},
							{
								"astId": 121,
								"contract": "Ethereum/Presale.sol:Presale",
								"label": "isClaim",
								"offset": 1,
								"slot": "5",
								"type": "t_bool"
							}
						],
						"numberOfBytes": "192"
					},
					"t_struct(PresaleStatus)135_storage": {
						"encoding": "inplace",
						"label": "struct Presale.PresaleStatus",
						"members": [
							{
								"astId": 124,
								"contract": "Ethereum/Presale.sol:Presale",
								"label": "totalBaseCollected",
								"offset": 0,
								"slot": "0",
								"type": "t_uint256"
							},
							{
								"astId": 126,
								"contract": "Ethereum/Presale.sol:Presale",
								"label": "totalTokenSold",
								"offset": 0,
								"slot": "1",
								"type": "t_uint256"
							},
							{
								"astId": 128,
								"contract": "Ethereum/Presale.sol:Presale",
								"label": "totalTokenWithDraw",
								"offset": 0,
								"slot": "2",
								"type": "t_uint256"
							},
							{
								"astId": 130,
								"contract": "Ethereum/Presale.sol:Presale",
								"label": "totalBaseWithDraw",
								"offset": 0,
								"slot": "3",
								"type": "t_uint256"
							},
							{
								"astId": 132,
								"contract": "Ethereum/Presale.sol:Presale",
								"label": "numByer",
								"offset": 0,
								"slot": "4",
								"type": "t_uint256"
							},
							{
								"astId": 134,
								"contract": "Ethereum/Presale.sol:Presale",
								"label": "totalFee",
								"offset": 0,
								"slot": "5",
								"type": "t_uint256"
							}
						],
						"numberOfBytes": "192"
					},
					"t_uint256": {
						"encoding": "inplace",
						"label": "uint256",
						"numberOfBytes": "32"
					}
				}
			},
			"userdoc": {
				"kind": "user",
				"methods": {},
				"version": 1
			}
		}
	}
}