{
	"Ethereum/Presale.sol": {
		"Presale": {
			"abi": [
				{
					"inputs": [
						{
							"internalType": "uint256",
							"name": "amount",
							"type": "uint256"
						}
					],
					"name": "depodit",
					"outputs": [],
					"stateMutability": "payable",
					"type": "function"
				}
			],
			"devdoc": {
				"kind": "dev",
				"methods": {},
				"version": 1
			},
			"evm": {
				"assembly": "    /* \"Ethereum/Presale.sol\":232:3127  contract Presale is ReentrancyGuard{\r... */\n  mstore(0x40, 0x80)\n  callvalue\n  dup1\n  iszero\n  tag_1\n  jumpi\n  0x00\n  dup1\n  revert\ntag_1:\n  pop\n    /* \"Utils/ReentrancyGuard.sol\":1734:1735  1 */\n  0x01\n    /* \"Utils/ReentrancyGuard.sol\":1845:1852  _status */\n  0x00\n    /* \"Utils/ReentrancyGuard.sol\":1845:1867  _status = _NOT_ENTERED */\n  dup2\n  swap1\n  sstore\n  pop\n    /* \"Ethereum/Presale.sol\":232:3127  contract Presale is ReentrancyGuard{\r... */\n  dataSize(sub_0)\n  dup1\n  dataOffset(sub_0)\n  0x00\n  codecopy\n  0x00\n  return\nstop\n\nsub_0: assembly {\n        /* \"Ethereum/Presale.sol\":232:3127  contract Presale is ReentrancyGuard{\r... */\n      mstore(0x40, 0x80)\n      jumpi(tag_1, lt(calldatasize, 0x04))\n      shr(0xe0, calldataload(0x00))\n      dup1\n      0x79647833\n      eq\n      tag_2\n      jumpi\n    tag_1:\n      0x00\n      dup1\n      revert\n        /* \"Ethereum/Presale.sol\":2583:2867  function depodit(uint256 amount) external payable nonReentrant {\r... */\n    tag_2:\n      tag_3\n      0x04\n      dup1\n      calldatasize\n      sub\n      dup2\n      add\n      swap1\n      tag_4\n      swap2\n      swap1\n      tag_5\n      jump\t// in\n    tag_4:\n      tag_6\n      jump\t// in\n    tag_3:\n      stop\n    tag_6:\n        /* \"Utils/ReentrancyGuard.sol\":1778:1779  2 */\n      0x02\n        /* \"Utils/ReentrancyGuard.sol\":2376:2383  _status */\n      sload(0x00)\n        /* \"Utils/ReentrancyGuard.sol\":2376:2395  _status != _ENTERED */\n      eq\n      iszero\n        /* \"Utils/ReentrancyGuard.sol\":2368:2431  require(_status != _ENTERED, \"ReentrancyGuard: reentrant call\") */\n      tag_8\n      jumpi\n      mload(0x40)\n      0x08c379a000000000000000000000000000000000000000000000000000000000\n      dup2\n      mstore\n      0x04\n      add\n      tag_9\n      swap1\n      tag_10\n      jump\t// in\n    tag_9:\n      mload(0x40)\n      dup1\n      swap2\n      sub\n      swap1\n      revert\n    tag_8:\n        /* \"Utils/ReentrancyGuard.sol\":1778:1779  2 */\n      0x02\n        /* \"Utils/ReentrancyGuard.sol\":2509:2516  _status */\n      0x00\n        /* \"Utils/ReentrancyGuard.sol\":2509:2527  _status = _ENTERED */\n      dup2\n      swap1\n      sstore\n      pop\n        /* \"Ethereum/Presale.sol\":2657:2859  TransferHelper.safeTransferFrom(\r... */\n      tag_12\n        /* \"Ethereum/Presale.sol\":2715:2757  0xc778417E063141139Fce010982780140Aa0cD5Ab */\n      0xc778417e063141139fce010982780140aa0cd5ab\n        /* \"Ethereum/Presale.sol\":2777:2787  msg.sender */\n      caller\n        /* \"Ethereum/Presale.sol\":2814:2818  this */\n      address\n        /* \"Ethereum/Presale.sol\":2838:2844  amount */\n      dup5\n        /* \"Ethereum/Presale.sol\":2657:2688  TransferHelper.safeTransferFrom */\n      tag_13\n        /* \"Ethereum/Presale.sol\":2657:2859  TransferHelper.safeTransferFrom(\r... */\n      jump\t// in\n    tag_12:\n        /* \"Utils/ReentrancyGuard.sol\":1734:1735  1 */\n      0x01\n        /* \"Utils/ReentrancyGuard.sol\":2688:2695  _status */\n      0x00\n        /* \"Utils/ReentrancyGuard.sol\":2688:2710  _status = _NOT_ENTERED */\n      dup2\n      swap1\n      sstore\n      pop\n        /* \"Ethereum/Presale.sol\":2583:2867  function depodit(uint256 amount) external payable nonReentrant {\r... */\n      pop\n      jump\t// out\n        /* \"Utils/TransferHelper.sol\":1072:1502  function safeTransferFrom(\r... */\n    tag_13:\n        /* \"Utils/TransferHelper.sol\":1218:1230  bool success */\n      0x00\n        /* \"Utils/TransferHelper.sol\":1232:1249  bytes memory data */\n      dup1\n        /* \"Utils/TransferHelper.sol\":1253:1258  token */\n      dup6\n        /* \"Utils/TransferHelper.sol\":1253:1263  token.call */\n      0xffffffffffffffffffffffffffffffffffffffff\n      and\n        /* \"Utils/TransferHelper.sol\":1301:1311  0x23b872dd */\n      0x23b872dd\n        /* \"Utils/TransferHelper.sol\":1313:1317  from */\n      dup7\n        /* \"Utils/TransferHelper.sol\":1319:1321  to */\n      dup7\n        /* \"Utils/TransferHelper.sol\":1323:1328  value */\n      dup7\n        /* \"Utils/TransferHelper.sol\":1278:1329  abi.encodeWithSelector(0x23b872dd, from, to, value) */\n      add(0x24, mload(0x40))\n      tag_15\n      swap4\n      swap3\n      swap2\n      swap1\n      tag_16\n      jump\t// in\n    tag_15:\n      mload(0x40)\n      0x20\n      dup2\n      dup4\n      sub\n      sub\n      dup2\n      mstore\n      swap1\n      0x40\n      mstore\n      swap1\n      0xe0\n      shl\n      0x20\n      dup3\n      add\n      dup1\n      mload\n      0xffffffffffffffffffffffffffffffffffffffffffffffffffffffff\n      dup4\n      dup2\n      dup4\n      and\n      or\n      dup4\n      mstore\n      pop\n      pop\n      pop\n      pop\n        /* \"Utils/TransferHelper.sol\":1253:1340  token.call(\r... */\n      mload(0x40)\n      tag_17\n      swap2\n      swap1\n      tag_18\n      jump\t// in\n    tag_17:\n      0x00\n      mload(0x40)\n      dup1\n      dup4\n      sub\n      dup2\n      0x00\n      dup7\n      gas\n      call\n      swap2\n      pop\n      pop\n      returndatasize\n      dup1\n      0x00\n      dup2\n      eq\n      tag_21\n      jumpi\n      mload(0x40)\n      swap2\n      pop\n      and(add(returndatasize, 0x3f), not(0x1f))\n      dup3\n      add\n      0x40\n      mstore\n      returndatasize\n      dup3\n      mstore\n      returndatasize\n      0x00\n      0x20\n      dup5\n      add\n      returndatacopy\n      jump(tag_20)\n    tag_21:\n      0x60\n      swap2\n      pop\n    tag_20:\n      pop\n        /* \"Utils/TransferHelper.sol\":1217:1340  (bool success, bytes memory data) = token.call(\r... */\n      swap2\n      pop\n      swap2\n      pop\n        /* \"Utils/TransferHelper.sol\":1373:1380  success */\n      dup2\n        /* \"Utils/TransferHelper.sol\":1373:1430  success && (data.length == 0 || abi.decode(data, (bool))) */\n      dup1\n      iszero\n      tag_22\n      jumpi\n      pop\n        /* \"Utils/TransferHelper.sol\":1400:1401  0 */\n      0x00\n        /* \"Utils/TransferHelper.sol\":1385:1389  data */\n      dup2\n        /* \"Utils/TransferHelper.sol\":1385:1396  data.length */\n      mload\n        /* \"Utils/TransferHelper.sol\":1385:1401  data.length == 0 */\n      eq\n        /* \"Utils/TransferHelper.sol\":1385:1429  data.length == 0 || abi.decode(data, (bool)) */\n      dup1\n      tag_23\n      jumpi\n      pop\n        /* \"Utils/TransferHelper.sol\":1416:1420  data */\n      dup1\n        /* \"Utils/TransferHelper.sol\":1405:1429  abi.decode(data, (bool)) */\n      dup1\n      0x20\n      add\n      swap1\n      mload\n      dup2\n      add\n      swap1\n      tag_24\n      swap2\n      swap1\n      tag_25\n      jump\t// in\n    tag_24:\n        /* \"Utils/TransferHelper.sol\":1385:1429  data.length == 0 || abi.decode(data, (bool)) */\n    tag_23:\n        /* \"Utils/TransferHelper.sol\":1373:1430  success && (data.length == 0 || abi.decode(data, (bool))) */\n    tag_22:\n        /* \"Utils/TransferHelper.sol\":1351:1494  require(\r... */\n      tag_26\n      jumpi\n      mload(0x40)\n      0x08c379a000000000000000000000000000000000000000000000000000000000\n      dup2\n      mstore\n      0x04\n      add\n      tag_27\n      swap1\n      tag_28\n      jump\t// in\n    tag_27:\n      mload(0x40)\n      dup1\n      swap2\n      sub\n      swap1\n      revert\n    tag_26:\n        /* \"Utils/TransferHelper.sol\":1072:1502  function safeTransferFrom(\r... */\n      pop\n      pop\n      pop\n      pop\n      pop\n      pop\n      jump\t// out\n        /* \"#utility.yul\":7:144   */\n    tag_30:\n        /* \"#utility.yul\":61:66   */\n      0x00\n        /* \"#utility.yul\":92:98   */\n      dup2\n        /* \"#utility.yul\":86:99   */\n      mload\n        /* \"#utility.yul\":77:99   */\n      swap1\n      pop\n        /* \"#utility.yul\":108:138   */\n      tag_32\n        /* \"#utility.yul\":132:137   */\n      dup2\n        /* \"#utility.yul\":108:138   */\n      tag_33\n      jump\t// in\n    tag_32:\n        /* \"#utility.yul\":67:144   */\n      swap3\n      swap2\n      pop\n      pop\n      jump\t// out\n        /* \"#utility.yul\":150:289   */\n    tag_34:\n        /* \"#utility.yul\":196:201   */\n      0x00\n        /* \"#utility.yul\":234:240   */\n      dup2\n        /* \"#utility.yul\":221:241   */\n      calldataload\n        /* \"#utility.yul\":212:241   */\n      swap1\n      pop\n        /* \"#utility.yul\":250:283   */\n      tag_36\n        /* \"#utility.yul\":277:282   */\n      dup2\n        /* \"#utility.yul\":250:283   */\n      tag_37\n      jump\t// in\n    tag_36:\n        /* \"#utility.yul\":202:289   */\n      swap3\n      swap2\n      pop\n      pop\n      jump\t// out\n        /* \"#utility.yul\":295:573   */\n    tag_25:\n        /* \"#utility.yul\":362:368   */\n      0x00\n        /* \"#utility.yul\":411:413   */\n      0x20\n        /* \"#utility.yul\":399:408   */\n      dup3\n        /* \"#utility.yul\":390:397   */\n      dup5\n        /* \"#utility.yul\":386:409   */\n      sub\n        /* \"#utility.yul\":382:414   */\n      slt\n        /* \"#utility.yul\":379:381   */\n      iszero\n      tag_39\n      jumpi\n        /* \"#utility.yul\":427:428   */\n      0x00\n        /* \"#utility.yul\":424:425   */\n      dup1\n        /* \"#utility.yul\":417:429   */\n      revert\n        /* \"#utility.yul\":379:381   */\n    tag_39:\n        /* \"#utility.yul\":470:471   */\n      0x00\n        /* \"#utility.yul\":495:556   */\n      tag_40\n        /* \"#utility.yul\":548:555   */\n      dup5\n        /* \"#utility.yul\":539:545   */\n      dup3\n        /* \"#utility.yul\":528:537   */\n      dup6\n        /* \"#utility.yul\":524:546   */\n      add\n        /* \"#utility.yul\":495:556   */\n      tag_30\n      jump\t// in\n    tag_40:\n        /* \"#utility.yul\":485:556   */\n      swap2\n      pop\n        /* \"#utility.yul\":441:566   */\n      pop\n        /* \"#utility.yul\":369:573   */\n      swap3\n      swap2\n      pop\n      pop\n      jump\t// out\n        /* \"#utility.yul\":579:841   */\n    tag_5:\n        /* \"#utility.yul\":638:644   */\n      0x00\n        /* \"#utility.yul\":687:689   */\n      0x20\n        /* \"#utility.yul\":675:684   */\n      dup3\n        /* \"#utility.yul\":666:673   */\n      dup5\n        /* \"#utility.yul\":662:685   */\n      sub\n        /* \"#utility.yul\":658:690   */\n      slt\n        /* \"#utility.yul\":655:657   */\n      iszero\n      tag_42\n      jumpi\n        /* \"#utility.yul\":703:704   */\n      0x00\n        /* \"#utility.yul\":700:701   */\n      dup1\n        /* \"#utility.yul\":693:705   */\n      revert\n        /* \"#utility.yul\":655:657   */\n    tag_42:\n        /* \"#utility.yul\":746:747   */\n      0x00\n        /* \"#utility.yul\":771:824   */\n      tag_43\n        /* \"#utility.yul\":816:823   */\n      dup5\n        /* \"#utility.yul\":807:813   */\n      dup3\n        /* \"#utility.yul\":796:805   */\n      dup6\n        /* \"#utility.yul\":792:814   */\n      add\n        /* \"#utility.yul\":771:824   */\n      tag_34\n      jump\t// in\n    tag_43:\n        /* \"#utility.yul\":761:824   */\n      swap2\n      pop\n        /* \"#utility.yul\":717:834   */\n      pop\n        /* \"#utility.yul\":645:841   */\n      swap3\n      swap2\n      pop\n      pop\n      jump\t// out\n        /* \"#utility.yul\":847:965   */\n    tag_44:\n        /* \"#utility.yul\":934:958   */\n      tag_46\n        /* \"#utility.yul\":952:957   */\n      dup2\n        /* \"#utility.yul\":934:958   */\n      tag_47\n      jump\t// in\n    tag_46:\n        /* \"#utility.yul\":929:932   */\n      dup3\n        /* \"#utility.yul\":922:959   */\n      mstore\n        /* \"#utility.yul\":912:965   */\n      pop\n      pop\n      jump\t// out\n        /* \"#utility.yul\":971:1344   */\n    tag_48:\n        /* \"#utility.yul\":1075:1078   */\n      0x00\n        /* \"#utility.yul\":1103:1141   */\n      tag_50\n        /* \"#utility.yul\":1135:1140   */\n      dup3\n        /* \"#utility.yul\":1103:1141   */\n      tag_51\n      jump\t// in\n    tag_50:\n        /* \"#utility.yul\":1157:1245   */\n      tag_52\n        /* \"#utility.yul\":1238:1244   */\n      dup2\n        /* \"#utility.yul\":1233:1236   */\n      dup6\n        /* \"#utility.yul\":1157:1245   */\n      tag_53\n      jump\t// in\n    tag_52:\n        /* \"#utility.yul\":1150:1245   */\n      swap4\n      pop\n        /* \"#utility.yul\":1254:1306   */\n      tag_54\n        /* \"#utility.yul\":1299:1305   */\n      dup2\n        /* \"#utility.yul\":1294:1297   */\n      dup6\n        /* \"#utility.yul\":1287:1291   */\n      0x20\n        /* \"#utility.yul\":1280:1285   */\n      dup7\n        /* \"#utility.yul\":1276:1292   */\n      add\n        /* \"#utility.yul\":1254:1306   */\n      tag_55\n      jump\t// in\n    tag_54:\n        /* \"#utility.yul\":1331:1337   */\n      dup1\n        /* \"#utility.yul\":1326:1329   */\n      dup5\n        /* \"#utility.yul\":1322:1338   */\n      add\n        /* \"#utility.yul\":1315:1338   */\n      swap2\n      pop\n        /* \"#utility.yul\":1079:1344   */\n      pop\n      swap3\n      swap2\n      pop\n      pop\n      jump\t// out\n        /* \"#utility.yul\":1350:1716   */\n    tag_56:\n        /* \"#utility.yul\":1492:1495   */\n      0x00\n        /* \"#utility.yul\":1513:1580   */\n      tag_58\n        /* \"#utility.yul\":1577:1579   */\n      0x24\n        /* \"#utility.yul\":1572:1575   */\n      dup4\n        /* \"#utility.yul\":1513:1580   */\n      tag_59\n      jump\t// in\n    tag_58:\n        /* \"#utility.yul\":1506:1580   */\n      swap2\n      pop\n        /* \"#utility.yul\":1589:1682   */\n      tag_60\n        /* \"#utility.yul\":1678:1681   */\n      dup3\n        /* \"#utility.yul\":1589:1682   */\n      tag_61\n      jump\t// in\n    tag_60:\n        /* \"#utility.yul\":1707:1709   */\n      0x40\n        /* \"#utility.yul\":1702:1705   */\n      dup3\n        /* \"#utility.yul\":1698:1710   */\n      add\n        /* \"#utility.yul\":1691:1710   */\n      swap1\n      pop\n        /* \"#utility.yul\":1496:1716   */\n      swap2\n      swap1\n      pop\n      jump\t// out\n        /* \"#utility.yul\":1722:2088   */\n    tag_62:\n        /* \"#utility.yul\":1864:1867   */\n      0x00\n        /* \"#utility.yul\":1885:1952   */\n      tag_64\n        /* \"#utility.yul\":1949:1951   */\n      0x1f\n        /* \"#utility.yul\":1944:1947   */\n      dup4\n        /* \"#utility.yul\":1885:1952   */\n      tag_59\n      jump\t// in\n    tag_64:\n        /* \"#utility.yul\":1878:1952   */\n      swap2\n      pop\n        /* \"#utility.yul\":1961:2054   */\n      tag_65\n        /* \"#utility.yul\":2050:2053   */\n      dup3\n        /* \"#utility.yul\":1961:2054   */\n      tag_66\n      jump\t// in\n    tag_65:\n        /* \"#utility.yul\":2079:2081   */\n      0x20\n        /* \"#utility.yul\":2074:2077   */\n      dup3\n        /* \"#utility.yul\":2070:2082   */\n      add\n        /* \"#utility.yul\":2063:2082   */\n      swap1\n      pop\n        /* \"#utility.yul\":1868:2088   */\n      swap2\n      swap1\n      pop\n      jump\t// out\n        /* \"#utility.yul\":2094:2212   */\n    tag_67:\n        /* \"#utility.yul\":2181:2205   */\n      tag_69\n        /* \"#utility.yul\":2199:2204   */\n      dup2\n        /* \"#utility.yul\":2181:2205   */\n      tag_70\n      jump\t// in\n    tag_69:\n        /* \"#utility.yul\":2176:2179   */\n      dup3\n        /* \"#utility.yul\":2169:2206   */\n      mstore\n        /* \"#utility.yul\":2159:2212   */\n      pop\n      pop\n      jump\t// out\n        /* \"#utility.yul\":2218:2489   */\n    tag_18:\n        /* \"#utility.yul\":2348:2351   */\n      0x00\n        /* \"#utility.yul\":2370:2463   */\n      tag_72\n        /* \"#utility.yul\":2459:2462   */\n      dup3\n        /* \"#utility.yul\":2450:2456   */\n      dup5\n        /* \"#utility.yul\":2370:2463   */\n      tag_48\n      jump\t// in\n    tag_72:\n        /* \"#utility.yul\":2363:2463   */\n      swap2\n      pop\n        /* \"#utility.yul\":2480:2483   */\n      dup2\n        /* \"#utility.yul\":2473:2483   */\n      swap1\n      pop\n        /* \"#utility.yul\":2352:2489   */\n      swap3\n      swap2\n      pop\n      pop\n      jump\t// out\n        /* \"#utility.yul\":2495:2937   */\n    tag_16:\n        /* \"#utility.yul\":2644:2648   */\n      0x00\n        /* \"#utility.yul\":2682:2684   */\n      0x60\n        /* \"#utility.yul\":2671:2680   */\n      dup3\n        /* \"#utility.yul\":2667:2685   */\n      add\n        /* \"#utility.yul\":2659:2685   */\n      swap1\n      pop\n        /* \"#utility.yul\":2695:2766   */\n      tag_74\n        /* \"#utility.yul\":2763:2764   */\n      0x00\n        /* \"#utility.yul\":2752:2761   */\n      dup4\n        /* \"#utility.yul\":2748:2765   */\n      add\n        /* \"#utility.yul\":2739:2745   */\n      dup7\n        /* \"#utility.yul\":2695:2766   */\n      tag_44\n      jump\t// in\n    tag_74:\n        /* \"#utility.yul\":2776:2848   */\n      tag_75\n        /* \"#utility.yul\":2844:2846   */\n      0x20\n        /* \"#utility.yul\":2833:2842   */\n      dup4\n        /* \"#utility.yul\":2829:2847   */\n      add\n        /* \"#utility.yul\":2820:2826   */\n      dup6\n        /* \"#utility.yul\":2776:2848   */\n      tag_44\n      jump\t// in\n    tag_75:\n        /* \"#utility.yul\":2858:2930   */\n      tag_76\n        /* \"#utility.yul\":2926:2928   */\n      0x40\n        /* \"#utility.yul\":2915:2924   */\n      dup4\n        /* \"#utility.yul\":2911:2929   */\n      add\n        /* \"#utility.yul\":2902:2908   */\n      dup5\n        /* \"#utility.yul\":2858:2930   */\n      tag_67\n      jump\t// in\n    tag_76:\n        /* \"#utility.yul\":2649:2937   */\n      swap5\n      swap4\n      pop\n      pop\n      pop\n      pop\n      jump\t// out\n        /* \"#utility.yul\":2943:3362   */\n    tag_28:\n        /* \"#utility.yul\":3109:3113   */\n      0x00\n        /* \"#utility.yul\":3147:3149   */\n      0x20\n        /* \"#utility.yul\":3136:3145   */\n      dup3\n        /* \"#utility.yul\":3132:3150   */\n      add\n        /* \"#utility.yul\":3124:3150   */\n      swap1\n      pop\n        /* \"#utility.yul\":3196:3205   */\n      dup2\n        /* \"#utility.yul\":3190:3194   */\n      dup2\n        /* \"#utility.yul\":3186:3206   */\n      sub\n        /* \"#utility.yul\":3182:3183   */\n      0x00\n        /* \"#utility.yul\":3171:3180   */\n      dup4\n        /* \"#utility.yul\":3167:3184   */\n      add\n        /* \"#utility.yul\":3160:3207   */\n      mstore\n        /* \"#utility.yul\":3224:3355   */\n      tag_78\n        /* \"#utility.yul\":3350:3354   */\n      dup2\n        /* \"#utility.yul\":3224:3355   */\n      tag_56\n      jump\t// in\n    tag_78:\n        /* \"#utility.yul\":3216:3355   */\n      swap1\n      pop\n        /* \"#utility.yul\":3114:3362   */\n      swap2\n      swap1\n      pop\n      jump\t// out\n        /* \"#utility.yul\":3368:3787   */\n    tag_10:\n        /* \"#utility.yul\":3534:3538   */\n      0x00\n        /* \"#utility.yul\":3572:3574   */\n      0x20\n        /* \"#utility.yul\":3561:3570   */\n      dup3\n        /* \"#utility.yul\":3557:3575   */\n      add\n        /* \"#utility.yul\":3549:3575   */\n      swap1\n      pop\n        /* \"#utility.yul\":3621:3630   */\n      dup2\n        /* \"#utility.yul\":3615:3619   */\n      dup2\n        /* \"#utility.yul\":3611:3631   */\n      sub\n        /* \"#utility.yul\":3607:3608   */\n      0x00\n        /* \"#utility.yul\":3596:3605   */\n      dup4\n        /* \"#utility.yul\":3592:3609   */\n      add\n        /* \"#utility.yul\":3585:3632   */\n      mstore\n        /* \"#utility.yul\":3649:3780   */\n      tag_80\n        /* \"#utility.yul\":3775:3779   */\n      dup2\n        /* \"#utility.yul\":3649:3780   */\n      tag_62\n      jump\t// in\n    tag_80:\n        /* \"#utility.yul\":3641:3780   */\n      swap1\n      pop\n        /* \"#utility.yul\":3539:3787   */\n      swap2\n      swap1\n      pop\n      jump\t// out\n        /* \"#utility.yul\":3793:3891   */\n    tag_51:\n        /* \"#utility.yul\":3844:3850   */\n      0x00\n        /* \"#utility.yul\":3878:3883   */\n      dup2\n        /* \"#utility.yul\":3872:3884   */\n      mload\n        /* \"#utility.yul\":3862:3884   */\n      swap1\n      pop\n        /* \"#utility.yul\":3851:3891   */\n      swap2\n      swap1\n      pop\n      jump\t// out\n        /* \"#utility.yul\":3897:4044   */\n    tag_53:\n        /* \"#utility.yul\":3998:4009   */\n      0x00\n        /* \"#utility.yul\":4035:4038   */\n      dup2\n        /* \"#utility.yul\":4020:4038   */\n      swap1\n      pop\n        /* \"#utility.yul\":4010:4044   */\n      swap3\n      swap2\n      pop\n      pop\n      jump\t// out\n        /* \"#utility.yul\":4050:4219   */\n    tag_59:\n        /* \"#utility.yul\":4134:4145   */\n      0x00\n        /* \"#utility.yul\":4168:4174   */\n      dup3\n        /* \"#utility.yul\":4163:4166   */\n      dup3\n        /* \"#utility.yul\":4156:4175   */\n      mstore\n        /* \"#utility.yul\":4208:4212   */\n      0x20\n        /* \"#utility.yul\":4203:4206   */\n      dup3\n        /* \"#utility.yul\":4199:4213   */\n      add\n        /* \"#utility.yul\":4184:4213   */\n      swap1\n      pop\n        /* \"#utility.yul\":4146:4219   */\n      swap3\n      swap2\n      pop\n      pop\n      jump\t// out\n        /* \"#utility.yul\":4225:4321   */\n    tag_47:\n        /* \"#utility.yul\":4262:4269   */\n      0x00\n        /* \"#utility.yul\":4291:4315   */\n      tag_85\n        /* \"#utility.yul\":4309:4314   */\n      dup3\n        /* \"#utility.yul\":4291:4315   */\n      tag_86\n      jump\t// in\n    tag_85:\n        /* \"#utility.yul\":4280:4315   */\n      swap1\n      pop\n        /* \"#utility.yul\":4270:4321   */\n      swap2\n      swap1\n      pop\n      jump\t// out\n        /* \"#utility.yul\":4327:4417   */\n    tag_87:\n        /* \"#utility.yul\":4361:4368   */\n      0x00\n        /* \"#utility.yul\":4404:4409   */\n      dup2\n        /* \"#utility.yul\":4397:4410   */\n      iszero\n        /* \"#utility.yul\":4390:4411   */\n      iszero\n        /* \"#utility.yul\":4379:4411   */\n      swap1\n      pop\n        /* \"#utility.yul\":4369:4417   */\n      swap2\n      swap1\n      pop\n      jump\t// out\n        /* \"#utility.yul\":4423:4549   */\n    tag_86:\n        /* \"#utility.yul\":4460:4467   */\n      0x00\n        /* \"#utility.yul\":4500:4542   */\n      0xffffffffffffffffffffffffffffffffffffffff\n        /* \"#utility.yul\":4493:4498   */\n      dup3\n        /* \"#utility.yul\":4489:4543   */\n      and\n        /* \"#utility.yul\":4478:4543   */\n      swap1\n      pop\n        /* \"#utility.yul\":4468:4549   */\n      swap2\n      swap1\n      pop\n      jump\t// out\n        /* \"#utility.yul\":4555:4632   */\n    tag_70:\n        /* \"#utility.yul\":4592:4599   */\n      0x00\n        /* \"#utility.yul\":4621:4626   */\n      dup2\n        /* \"#utility.yul\":4610:4626   */\n      swap1\n      pop\n        /* \"#utility.yul\":4600:4632   */\n      swap2\n      swap1\n      pop\n      jump\t// out\n        /* \"#utility.yul\":4638:4945   */\n    tag_55:\n        /* \"#utility.yul\":4706:4707   */\n      0x00\n        /* \"#utility.yul\":4716:4829   */\n    tag_92:\n        /* \"#utility.yul\":4730:4736   */\n      dup4\n        /* \"#utility.yul\":4727:4728   */\n      dup2\n        /* \"#utility.yul\":4724:4737   */\n      lt\n        /* \"#utility.yul\":4716:4829   */\n      iszero\n      tag_94\n      jumpi\n        /* \"#utility.yul\":4815:4816   */\n      dup1\n        /* \"#utility.yul\":4810:4813   */\n      dup3\n        /* \"#utility.yul\":4806:4817   */\n      add\n        /* \"#utility.yul\":4800:4818   */\n      mload\n        /* \"#utility.yul\":4796:4797   */\n      dup2\n        /* \"#utility.yul\":4791:4794   */\n      dup5\n        /* \"#utility.yul\":4787:4798   */\n      add\n        /* \"#utility.yul\":4780:4819   */\n      mstore\n        /* \"#utility.yul\":4752:4754   */\n      0x20\n        /* \"#utility.yul\":4749:4750   */\n      dup2\n        /* \"#utility.yul\":4745:4755   */\n      add\n        /* \"#utility.yul\":4740:4755   */\n      swap1\n      pop\n        /* \"#utility.yul\":4716:4829   */\n      jump(tag_92)\n    tag_94:\n        /* \"#utility.yul\":4847:4853   */\n      dup4\n        /* \"#utility.yul\":4844:4845   */\n      dup2\n        /* \"#utility.yul\":4841:4854   */\n      gt\n        /* \"#utility.yul\":4838:4840   */\n      iszero\n      tag_95\n      jumpi\n        /* \"#utility.yul\":4927:4928   */\n      0x00\n        /* \"#utility.yul\":4918:4924   */\n      dup5\n        /* \"#utility.yul\":4913:4916   */\n      dup5\n        /* \"#utility.yul\":4909:4925   */\n      add\n        /* \"#utility.yul\":4902:4929   */\n      mstore\n        /* \"#utility.yul\":4838:4840   */\n    tag_95:\n        /* \"#utility.yul\":4687:4945   */\n      pop\n      pop\n      pop\n      pop\n      jump\t// out\n        /* \"#utility.yul\":4951:5174   */\n    tag_61:\n        /* \"#utility.yul\":5091:5125   */\n      0x5472616e7366657248656c7065723a205452414e534645525f46524f4d5f4641\n        /* \"#utility.yul\":5087:5088   */\n      0x00\n        /* \"#utility.yul\":5079:5085   */\n      dup3\n        /* \"#utility.yul\":5075:5089   */\n      add\n        /* \"#utility.yul\":5068:5126   */\n      mstore\n        /* \"#utility.yul\":5160:5166   */\n      0x494c454400000000000000000000000000000000000000000000000000000000\n        /* \"#utility.yul\":5155:5157   */\n      0x20\n        /* \"#utility.yul\":5147:5153   */\n      dup3\n        /* \"#utility.yul\":5143:5158   */\n      add\n        /* \"#utility.yul\":5136:5167   */\n      mstore\n        /* \"#utility.yul\":5057:5174   */\n      pop\n      jump\t// out\n        /* \"#utility.yul\":5180:5361   */\n    tag_66:\n        /* \"#utility.yul\":5320:5353   */\n      0x5265656e7472616e637947756172643a207265656e7472616e742063616c6c00\n        /* \"#utility.yul\":5316:5317   */\n      0x00\n        /* \"#utility.yul\":5308:5314   */\n      dup3\n        /* \"#utility.yul\":5304:5318   */\n      add\n        /* \"#utility.yul\":5297:5354   */\n      mstore\n        /* \"#utility.yul\":5286:5361   */\n      pop\n      jump\t// out\n        /* \"#utility.yul\":5367:5483   */\n    tag_33:\n        /* \"#utility.yul\":5437:5458   */\n      tag_99\n        /* \"#utility.yul\":5452:5457   */\n      dup2\n        /* \"#utility.yul\":5437:5458   */\n      tag_87\n      jump\t// in\n    tag_99:\n        /* \"#utility.yul\":5430:5435   */\n      dup2\n        /* \"#utility.yul\":5427:5459   */\n      eq\n        /* \"#utility.yul\":5417:5419   */\n      tag_100\n      jumpi\n        /* \"#utility.yul\":5473:5474   */\n      0x00\n        /* \"#utility.yul\":5470:5471   */\n      dup1\n        /* \"#utility.yul\":5463:5475   */\n      revert\n        /* \"#utility.yul\":5417:5419   */\n    tag_100:\n        /* \"#utility.yul\":5407:5483   */\n      pop\n      jump\t// out\n        /* \"#utility.yul\":5489:5611   */\n    tag_37:\n        /* \"#utility.yul\":5562:5586   */\n      tag_102\n        /* \"#utility.yul\":5580:5585   */\n      dup2\n        /* \"#utility.yul\":5562:5586   */\n      tag_70\n      jump\t// in\n    tag_102:\n        /* \"#utility.yul\":5555:5560   */\n      dup2\n        /* \"#utility.yul\":5552:5587   */\n      eq\n        /* \"#utility.yul\":5542:5544   */\n      tag_103\n      jumpi\n        /* \"#utility.yul\":5601:5602   */\n      0x00\n        /* \"#utility.yul\":5598:5599   */\n      dup1\n        /* \"#utility.yul\":5591:5603   */\n      revert\n        /* \"#utility.yul\":5542:5544   */\n    tag_103:\n        /* \"#utility.yul\":5532:5611   */\n      pop\n      jump\t// out\n\n    auxdata: 0xa26469706673582212202093a30ca4f1a8d0fad7f2ddfcfb04b497a753ab3c36d75af380e7716db5b39c64736f6c63430008040033\n}\n",
				"bytecode": {
					"linkReferences": {},
					"object": "608060405234801561001057600080fd5b50600160008190555061050e806100286000396000f3fe60806040526004361061001e5760003560e01c80637964783314610023575b600080fd5b61003d60048036038101906100389190610244565b61003f565b005b60026000541415610085576040517f08c379a000000000000000000000000000000000000000000000000000000000815260040161007c90610370565b60405180910390fd5b60026000819055506100ad73c778417e063141139fce010982780140aa0cd5ab3330846100b8565b600160008190555050565b6000808573ffffffffffffffffffffffffffffffffffffffff166323b872dd8686866040516024016100ec93929190610319565b6040516020818303038152906040529060e01b6020820180517bffffffffffffffffffffffffffffffffffffffffffffffffffffffff838183161783525050505060405161013a9190610302565b6000604051808303816000865af19150503d8060008114610177576040519150601f19603f3d011682016040523d82523d6000602084013e61017c565b606091505b50915091508180156101aa57506000815114806101a95750808060200190518101906101a8919061021b565b5b5b6101e9576040517f08c379a00000000000000000000000000000000000000000000000000000000081526004016101e090610350565b60405180910390fd5b505050505050565b600081519050610200816104aa565b92915050565b600081359050610215816104c1565b92915050565b60006020828403121561022d57600080fd5b600061023b848285016101f1565b91505092915050565b60006020828403121561025657600080fd5b600061026484828501610206565b91505092915050565b610276816103b7565b82525050565b600061028782610390565b610291818561039b565b93506102a18185602086016103ff565b80840191505092915050565b60006102ba6024836103a6565b91506102c582610432565b604082019050919050565b60006102dd601f836103a6565b91506102e882610481565b602082019050919050565b6102fc816103f5565b82525050565b600061030e828461027c565b915081905092915050565b600060608201905061032e600083018661026d565b61033b602083018561026d565b61034860408301846102f3565b949350505050565b60006020820190508181036000830152610369816102ad565b9050919050565b60006020820190508181036000830152610389816102d0565b9050919050565b600081519050919050565b600081905092915050565b600082825260208201905092915050565b60006103c2826103d5565b9050919050565b60008115159050919050565b600073ffffffffffffffffffffffffffffffffffffffff82169050919050565b6000819050919050565b60005b8381101561041d578082015181840152602081019050610402565b8381111561042c576000848401525b50505050565b7f5472616e7366657248656c7065723a205452414e534645525f46524f4d5f464160008201527f494c454400000000000000000000000000000000000000000000000000000000602082015250565b7f5265656e7472616e637947756172643a207265656e7472616e742063616c6c00600082015250565b6104b3816103c9565b81146104be57600080fd5b50565b6104ca816103f5565b81146104d557600080fd5b5056fea26469706673582212202093a30ca4f1a8d0fad7f2ddfcfb04b497a753ab3c36d75af380e7716db5b39c64736f6c63430008040033",
					"opcodes": "PUSH1 0x80 PUSH1 0x40 MSTORE CALLVALUE DUP1 ISZERO PUSH2 0x10 JUMPI PUSH1 0x0 DUP1 REVERT JUMPDEST POP PUSH1 0x1 PUSH1 0x0 DUP2 SWAP1 SSTORE POP PUSH2 0x50E DUP1 PUSH2 0x28 PUSH1 0x0 CODECOPY PUSH1 0x0 RETURN INVALID PUSH1 0x80 PUSH1 0x40 MSTORE PUSH1 0x4 CALLDATASIZE LT PUSH2 0x1E JUMPI PUSH1 0x0 CALLDATALOAD PUSH1 0xE0 SHR DUP1 PUSH4 0x79647833 EQ PUSH2 0x23 JUMPI JUMPDEST PUSH1 0x0 DUP1 REVERT JUMPDEST PUSH2 0x3D PUSH1 0x4 DUP1 CALLDATASIZE SUB DUP2 ADD SWAP1 PUSH2 0x38 SWAP2 SWAP1 PUSH2 0x244 JUMP JUMPDEST PUSH2 0x3F JUMP JUMPDEST STOP JUMPDEST PUSH1 0x2 PUSH1 0x0 SLOAD EQ ISZERO PUSH2 0x85 JUMPI PUSH1 0x40 MLOAD PUSH32 0x8C379A000000000000000000000000000000000000000000000000000000000 DUP2 MSTORE PUSH1 0x4 ADD PUSH2 0x7C SWAP1 PUSH2 0x370 JUMP JUMPDEST PUSH1 0x40 MLOAD DUP1 SWAP2 SUB SWAP1 REVERT JUMPDEST PUSH1 0x2 PUSH1 0x0 DUP2 SWAP1 SSTORE POP PUSH2 0xAD PUSH20 0xC778417E063141139FCE010982780140AA0CD5AB CALLER ADDRESS DUP5 PUSH2 0xB8 JUMP JUMPDEST PUSH1 0x1 PUSH1 0x0 DUP2 SWAP1 SSTORE POP POP JUMP JUMPDEST PUSH1 0x0 DUP1 DUP6 PUSH20 0xFFFFFFFFFFFFFFFFFFFFFFFFFFFFFFFFFFFFFFFF AND PUSH4 0x23B872DD DUP7 DUP7 DUP7 PUSH1 0x40 MLOAD PUSH1 0x24 ADD PUSH2 0xEC SWAP4 SWAP3 SWAP2 SWAP1 PUSH2 0x319 JUMP JUMPDEST PUSH1 0x40 MLOAD PUSH1 0x20 DUP2 DUP4 SUB SUB DUP2 MSTORE SWAP1 PUSH1 0x40 MSTORE SWAP1 PUSH1 0xE0 SHL PUSH1 0x20 DUP3 ADD DUP1 MLOAD PUSH28 0xFFFFFFFFFFFFFFFFFFFFFFFFFFFFFFFFFFFFFFFFFFFFFFFFFFFFFFFF DUP4 DUP2 DUP4 AND OR DUP4 MSTORE POP POP POP POP PUSH1 0x40 MLOAD PUSH2 0x13A SWAP2 SWAP1 PUSH2 0x302 JUMP JUMPDEST PUSH1 0x0 PUSH1 0x40 MLOAD DUP1 DUP4 SUB DUP2 PUSH1 0x0 DUP7 GAS CALL SWAP2 POP POP RETURNDATASIZE DUP1 PUSH1 0x0 DUP2 EQ PUSH2 0x177 JUMPI PUSH1 0x40 MLOAD SWAP2 POP PUSH1 0x1F NOT PUSH1 0x3F RETURNDATASIZE ADD AND DUP3 ADD PUSH1 0x40 MSTORE RETURNDATASIZE DUP3 MSTORE RETURNDATASIZE PUSH1 0x0 PUSH1 0x20 DUP5 ADD RETURNDATACOPY PUSH2 0x17C JUMP JUMPDEST PUSH1 0x60 SWAP2 POP JUMPDEST POP SWAP2 POP SWAP2 POP DUP2 DUP1 ISZERO PUSH2 0x1AA JUMPI POP PUSH1 0x0 DUP2 MLOAD EQ DUP1 PUSH2 0x1A9 JUMPI POP DUP1 DUP1 PUSH1 0x20 ADD SWAP1 MLOAD DUP2 ADD SWAP1 PUSH2 0x1A8 SWAP2 SWAP1 PUSH2 0x21B JUMP JUMPDEST JUMPDEST JUMPDEST PUSH2 0x1E9 JUMPI PUSH1 0x40 MLOAD PUSH32 0x8C379A000000000000000000000000000000000000000000000000000000000 DUP2 MSTORE PUSH1 0x4 ADD PUSH2 0x1E0 SWAP1 PUSH2 0x350 JUMP JUMPDEST PUSH1 0x40 MLOAD DUP1 SWAP2 SUB SWAP1 REVERT JUMPDEST POP POP POP POP POP POP JUMP JUMPDEST PUSH1 0x0 DUP2 MLOAD SWAP1 POP PUSH2 0x200 DUP2 PUSH2 0x4AA JUMP JUMPDEST SWAP3 SWAP2 POP POP JUMP JUMPDEST PUSH1 0x0 DUP2 CALLDATALOAD SWAP1 POP PUSH2 0x215 DUP2 PUSH2 0x4C1 JUMP JUMPDEST SWAP3 SWAP2 POP POP JUMP JUMPDEST PUSH1 0x0 PUSH1 0x20 DUP3 DUP5 SUB SLT ISZERO PUSH2 0x22D JUMPI PUSH1 0x0 DUP1 REVERT JUMPDEST PUSH1 0x0 PUSH2 0x23B DUP5 DUP3 DUP6 ADD PUSH2 0x1F1 JUMP JUMPDEST SWAP2 POP POP SWAP3 SWAP2 POP POP JUMP JUMPDEST PUSH1 0x0 PUSH1 0x20 DUP3 DUP5 SUB SLT ISZERO PUSH2 0x256 JUMPI PUSH1 0x0 DUP1 REVERT JUMPDEST PUSH1 0x0 PUSH2 0x264 DUP5 DUP3 DUP6 ADD PUSH2 0x206 JUMP JUMPDEST SWAP2 POP POP SWAP3 SWAP2 POP POP JUMP JUMPDEST PUSH2 0x276 DUP2 PUSH2 0x3B7 JUMP JUMPDEST DUP3 MSTORE POP POP JUMP JUMPDEST PUSH1 0x0 PUSH2 0x287 DUP3 PUSH2 0x390 JUMP JUMPDEST PUSH2 0x291 DUP2 DUP6 PUSH2 0x39B JUMP JUMPDEST SWAP4 POP PUSH2 0x2A1 DUP2 DUP6 PUSH1 0x20 DUP7 ADD PUSH2 0x3FF JUMP JUMPDEST DUP1 DUP5 ADD SWAP2 POP POP SWAP3 SWAP2 POP POP JUMP JUMPDEST PUSH1 0x0 PUSH2 0x2BA PUSH1 0x24 DUP4 PUSH2 0x3A6 JUMP JUMPDEST SWAP2 POP PUSH2 0x2C5 DUP3 PUSH2 0x432 JUMP JUMPDEST PUSH1 0x40 DUP3 ADD SWAP1 POP SWAP2 SWAP1 POP JUMP JUMPDEST PUSH1 0x0 PUSH2 0x2DD PUSH1 0x1F DUP4 PUSH2 0x3A6 JUMP JUMPDEST SWAP2 POP PUSH2 0x2E8 DUP3 PUSH2 0x481 JUMP JUMPDEST PUSH1 0x20 DUP3 ADD SWAP1 POP SWAP2 SWAP1 POP JUMP JUMPDEST PUSH2 0x2FC DUP2 PUSH2 0x3F5 JUMP JUMPDEST DUP3 MSTORE POP POP JUMP JUMPDEST PUSH1 0x0 PUSH2 0x30E DUP3 DUP5 PUSH2 0x27C JUMP JUMPDEST SWAP2 POP DUP2 SWAP1 POP SWAP3 SWAP2 POP POP JUMP JUMPDEST PUSH1 0x0 PUSH1 0x60 DUP3 ADD SWAP1 POP PUSH2 0x32E PUSH1 0x0 DUP4 ADD DUP7 PUSH2 0x26D JUMP JUMPDEST PUSH2 0x33B PUSH1 0x20 DUP4 ADD DUP6 PUSH2 0x26D JUMP JUMPDEST PUSH2 0x348 PUSH1 0x40 DUP4 ADD DUP5 PUSH2 0x2F3 JUMP JUMPDEST SWAP5 SWAP4 POP POP POP POP JUMP JUMPDEST PUSH1 0x0 PUSH1 0x20 DUP3 ADD SWAP1 POP DUP2 DUP2 SUB PUSH1 0x0 DUP4 ADD MSTORE PUSH2 0x369 DUP2 PUSH2 0x2AD JUMP JUMPDEST SWAP1 POP SWAP2 SWAP1 POP JUMP JUMPDEST PUSH1 0x0 PUSH1 0x20 DUP3 ADD SWAP1 POP DUP2 DUP2 SUB PUSH1 0x0 DUP4 ADD MSTORE PUSH2 0x389 DUP2 PUSH2 0x2D0 JUMP JUMPDEST SWAP1 POP SWAP2 SWAP1 POP JUMP JUMPDEST PUSH1 0x0 DUP2 MLOAD SWAP1 POP SWAP2 SWAP1 POP JUMP JUMPDEST PUSH1 0x0 DUP2 SWAP1 POP SWAP3 SWAP2 POP POP JUMP JUMPDEST PUSH1 0x0 DUP3 DUP3 MSTORE PUSH1 0x20 DUP3 ADD SWAP1 POP SWAP3 SWAP2 POP POP JUMP JUMPDEST PUSH1 0x0 PUSH2 0x3C2 DUP3 PUSH2 0x3D5 JUMP JUMPDEST SWAP1 POP SWAP2 SWAP1 POP JUMP JUMPDEST PUSH1 0x0 DUP2 ISZERO ISZERO SWAP1 POP SWAP2 SWAP1 POP JUMP JUMPDEST PUSH1 0x0 PUSH20 0xFFFFFFFFFFFFFFFFFFFFFFFFFFFFFFFFFFFFFFFF DUP3 AND SWAP1 POP SWAP2 SWAP1 POP JUMP JUMPDEST PUSH1 0x0 DUP2 SWAP1 POP SWAP2 SWAP1 POP JUMP JUMPDEST PUSH1 0x0 JUMPDEST DUP4 DUP2 LT ISZERO PUSH2 0x41D JUMPI DUP1 DUP3 ADD MLOAD DUP2 DUP5 ADD MSTORE PUSH1 0x20 DUP2 ADD SWAP1 POP PUSH2 0x402 JUMP JUMPDEST DUP4 DUP2 GT ISZERO PUSH2 0x42C JUMPI PUSH1 0x0 DUP5 DUP5 ADD MSTORE JUMPDEST POP POP POP POP JUMP JUMPDEST PUSH32 0x5472616E7366657248656C7065723A205452414E534645525F46524F4D5F4641 PUSH1 0x0 DUP3 ADD MSTORE PUSH32 0x494C454400000000000000000000000000000000000000000000000000000000 PUSH1 0x20 DUP3 ADD MSTORE POP JUMP JUMPDEST PUSH32 0x5265656E7472616E637947756172643A207265656E7472616E742063616C6C00 PUSH1 0x0 DUP3 ADD MSTORE POP JUMP JUMPDEST PUSH2 0x4B3 DUP2 PUSH2 0x3C9 JUMP JUMPDEST DUP2 EQ PUSH2 0x4BE JUMPI PUSH1 0x0 DUP1 REVERT JUMPDEST POP JUMP JUMPDEST PUSH2 0x4CA DUP2 PUSH2 0x3F5 JUMP JUMPDEST DUP2 EQ PUSH2 0x4D5 JUMPI PUSH1 0x0 DUP1 REVERT JUMPDEST POP JUMP INVALID LOG2 PUSH5 0x6970667358 0x22 SLT KECCAK256 KECCAK256 SWAP4 LOG3 0xC LOG4 CALL 0xA8 0xD0 STATICCALL 0xD7 CALLCODE 0xDD 0xFC 0xFB DIV 0xB4 SWAP8 0xA7 MSTORE8 0xAB EXTCODECOPY CALLDATASIZE 0xD7 GAS RETURN DUP1 0xE7 PUSH18 0x6DB5B39C64736F6C63430008040033000000 "
				},
				"gasEstimates": {
					"creation": {
						"codeDepositCost": "258800",
						"executionCost": "20314",
						"totalCost": "279114"
					},
					"external": {
						"depodit(uint256)": "infinite"
					}
				},
				"methodIdentifiers": {
					"depodit(uint256)": "79647833"
				}
			},
			"storageLayout": {
				"storage": [
					{
						"astId": 120,
						"contract": "Ethereum/Presale.sol:Presale",
						"label": "_status",
						"offset": 0,
						"slot": "0",
						"type": "t_uint256"
					}
				],
				"types": {
					"t_uint256": {
						"encoding": "inplace",
						"label": "uint256",
						"numberOfBytes": "32"
					}
				}
			},
			"userdoc": {
				"kind": "user",
				"methods": {},
				"version": 1
			}
		}
	}
}