{
	"Ethereum/Presale.sol": {
		"Presale": {
			"abi": [
				{
					"inputs": [],
					"name": "STATUS",
					"outputs": [
						{
							"internalType": "uint256",
							"name": "totalBaseCollected",
							"type": "uint256"
						},
						{
							"internalType": "uint256",
							"name": "totalTokenSold",
							"type": "uint256"
						},
						{
							"internalType": "uint256",
							"name": "totalTokenWithDraw",
							"type": "uint256"
						},
						{
							"internalType": "uint256",
							"name": "totalBaseWithDraw",
							"type": "uint256"
						},
						{
							"internalType": "uint256",
							"name": "numByer",
							"type": "uint256"
						},
						{
							"internalType": "uint256",
							"name": "totalFee",
							"type": "uint256"
						}
					],
					"stateMutability": "view",
					"type": "function"
				},
				{
					"inputs": [
						{
							"internalType": "address",
							"name": "",
							"type": "address"
						}
					],
					"name": "buyerInfo",
					"outputs": [
						{
							"internalType": "address payable",
							"name": "buyer",
							"type": "address"
						},
						{
							"internalType": "uint256",
							"name": "baseDeposit",
							"type": "uint256"
						},
						{
							"internalType": "uint256",
							"name": "tokenOwner",
							"type": "uint256"
						},
						{
							"internalType": "uint256",
							"name": "lastWithDraw",
							"type": "uint256"
						},
						{
							"internalType": "uint256",
							"name": "totalTokenWithDraw",
							"type": "uint256"
						},
						{
							"internalType": "bool",
							"name": "isRefund",
							"type": "bool"
						},
						{
							"internalType": "bool",
							"name": "isClaim",
							"type": "bool"
						}
					],
					"stateMutability": "view",
					"type": "function"
				},
				{
					"inputs": [
						{
							"internalType": "address payable",
							"name": "_presaleOwner",
							"type": "address"
						},
						{
							"internalType": "contract IERC20",
							"name": "_saleToken",
							"type": "address"
						},
						{
							"internalType": "contract IERC20",
							"name": "_baseTOken",
							"type": "address"
						}
					],
					"name": "initialSaleInfor",
					"outputs": [],
					"stateMutability": "nonpayable",
					"type": "function"
				},
				{
					"inputs": [
						{
							"internalType": "address",
							"name": "",
							"type": "address"
						}
					],
					"name": "userFee",
					"outputs": [
						{
							"internalType": "uint256",
							"name": "",
							"type": "uint256"
						}
					],
					"stateMutability": "view",
					"type": "function"
				}
			],
			"devdoc": {
				"kind": "dev",
				"methods": {},
				"version": 1
			},
			"evm": {
				"assembly": "    /* \"Ethereum/Presale.sol\":153:1341  contract Presale{\r... */\n  mstore(0x40, 0x80)\n  callvalue\n  dup1\n  iszero\n  tag_1\n  jumpi\n  0x00\n  dup1\n  revert\ntag_1:\n  pop\n  dataSize(sub_0)\n  dup1\n  dataOffset(sub_0)\n  0x00\n  codecopy\n  0x00\n  return\nstop\n\nsub_0: assembly {\n        /* \"Ethereum/Presale.sol\":153:1341  contract Presale{\r... */\n      mstore(0x40, 0x80)\n      callvalue\n      dup1\n      iszero\n      tag_1\n      jumpi\n      0x00\n      dup1\n      revert\n    tag_1:\n      pop\n      jumpi(tag_2, lt(calldatasize, 0x04))\n      shr(0xe0, calldataload(0x00))\n      dup1\n      0x56c5f349\n      eq\n      tag_3\n      jumpi\n      dup1\n      0xbb5068b4\n      eq\n      tag_4\n      jumpi\n      dup1\n      0xe2d3f423\n      eq\n      tag_5\n      jumpi\n      dup1\n      0xe33865b3\n      eq\n      tag_6\n      jumpi\n    tag_2:\n      0x00\n      dup1\n      revert\n        /* \"Ethereum/Presale.sol\":1105:1147  mapping(address => uint256) public userFee */\n    tag_3:\n      tag_7\n      0x04\n      dup1\n      calldatasize\n      sub\n      dup2\n      add\n      swap1\n      tag_8\n      swap2\n      swap1\n      tag_9\n      jump\t// in\n    tag_8:\n      tag_10\n      jump\t// in\n    tag_7:\n      mload(0x40)\n      tag_11\n      swap2\n      swap1\n      tag_12\n      jump\t// in\n    tag_11:\n      mload(0x40)\n      dup1\n      swap2\n      sub\n      swap1\n      return\n        /* \"Ethereum/Presale.sol\":1190:1338  function initialSaleInfor(\r... */\n    tag_4:\n      tag_13\n      0x04\n      dup1\n      calldatasize\n      sub\n      dup2\n      add\n      swap1\n      tag_14\n      swap2\n      swap1\n      tag_15\n      jump\t// in\n    tag_14:\n      tag_16\n      jump\t// in\n    tag_13:\n      stop\n        /* \"Ethereum/Presale.sol\":1052:1098  mapping(address => BuyerInfo) public buyerInfo */\n    tag_5:\n      tag_17\n      0x04\n      dup1\n      calldatasize\n      sub\n      dup2\n      add\n      swap1\n      tag_18\n      swap2\n      swap1\n      tag_9\n      jump\t// in\n    tag_18:\n      tag_19\n      jump\t// in\n    tag_17:\n      mload(0x40)\n      tag_20\n      swap8\n      swap7\n      swap6\n      swap5\n      swap4\n      swap3\n      swap2\n      swap1\n      tag_21\n      jump\t// in\n    tag_20:\n      mload(0x40)\n      dup1\n      swap2\n      sub\n      swap1\n      return\n        /* \"Ethereum/Presale.sol\":1154:1181  PresaleStatus public STATUS */\n    tag_6:\n      tag_22\n      tag_23\n      jump\t// in\n    tag_22:\n      mload(0x40)\n      tag_24\n      swap7\n      swap6\n      swap5\n      swap4\n      swap3\n      swap2\n      swap1\n      tag_25\n      jump\t// in\n    tag_24:\n      mload(0x40)\n      dup1\n      swap2\n      sub\n      swap1\n      return\n        /* \"Ethereum/Presale.sol\":1105:1147  mapping(address => uint256) public userFee */\n    tag_10:\n      mstore(0x20, 0x01)\n      dup1\n      0x00\n      mstore\n      keccak256(0x00, 0x40)\n      0x00\n      swap2\n      pop\n      swap1\n      pop\n      sload\n      dup2\n      jump\t// out\n        /* \"Ethereum/Presale.sol\":1190:1338  function initialSaleInfor(\r... */\n    tag_16:\n      pop\n      pop\n      pop\n      jump\t// out\n        /* \"Ethereum/Presale.sol\":1052:1098  mapping(address => BuyerInfo) public buyerInfo */\n    tag_19:\n      mstore(0x20, 0x00)\n      dup1\n      0x00\n      mstore\n      keccak256(0x00, 0x40)\n      0x00\n      swap2\n      pop\n      swap1\n      pop\n      dup1\n      0x00\n      add\n      0x00\n      swap1\n      sload\n      swap1\n      0x0100\n      exp\n      swap1\n      div\n      0xffffffffffffffffffffffffffffffffffffffff\n      and\n      swap1\n      dup1\n      0x01\n      add\n      sload\n      swap1\n      dup1\n      0x02\n      add\n      sload\n      swap1\n      dup1\n      0x03\n      add\n      sload\n      swap1\n      dup1\n      0x04\n      add\n      sload\n      swap1\n      dup1\n      0x05\n      add\n      0x00\n      swap1\n      sload\n      swap1\n      0x0100\n      exp\n      swap1\n      div\n      0xff\n      and\n      swap1\n      dup1\n      0x05\n      add\n      0x01\n      swap1\n      sload\n      swap1\n      0x0100\n      exp\n      swap1\n      div\n      0xff\n      and\n      swap1\n      pop\n      dup8\n      jump\t// out\n        /* \"Ethereum/Presale.sol\":1154:1181  PresaleStatus public STATUS */\n    tag_23:\n      0x02\n      dup1\n      0x00\n      add\n      sload\n      swap1\n      dup1\n      0x01\n      add\n      sload\n      swap1\n      dup1\n      0x02\n      add\n      sload\n      swap1\n      dup1\n      0x03\n      add\n      sload\n      swap1\n      dup1\n      0x04\n      add\n      sload\n      swap1\n      dup1\n      0x05\n      add\n      sload\n      swap1\n      pop\n      dup7\n      jump\t// out\n        /* \"#utility.yul\":7:146   */\n    tag_28:\n      0x00\n        /* \"#utility.yul\":91:97   */\n      dup2\n        /* \"#utility.yul\":78:98   */\n      calldataload\n        /* \"#utility.yul\":69:98   */\n      swap1\n      pop\n        /* \"#utility.yul\":107:140   */\n      tag_30\n        /* \"#utility.yul\":134:139   */\n      dup2\n        /* \"#utility.yul\":107:140   */\n      tag_31\n      jump\t// in\n    tag_30:\n        /* \"#utility.yul\":59:146   */\n      swap3\n      swap2\n      pop\n      pop\n      jump\t// out\n        /* \"#utility.yul\":152:307   */\n    tag_32:\n      0x00\n        /* \"#utility.yul\":244:250   */\n      dup2\n        /* \"#utility.yul\":231:251   */\n      calldataload\n        /* \"#utility.yul\":222:251   */\n      swap1\n      pop\n        /* \"#utility.yul\":260:301   */\n      tag_34\n        /* \"#utility.yul\":295:300   */\n      dup2\n        /* \"#utility.yul\":260:301   */\n      tag_35\n      jump\t// in\n    tag_34:\n        /* \"#utility.yul\":212:307   */\n      swap3\n      swap2\n      pop\n      pop\n      jump\t// out\n        /* \"#utility.yul\":313:478   */\n    tag_36:\n      0x00\n        /* \"#utility.yul\":410:416   */\n      dup2\n        /* \"#utility.yul\":397:417   */\n      calldataload\n        /* \"#utility.yul\":388:417   */\n      swap1\n      pop\n        /* \"#utility.yul\":426:472   */\n      tag_38\n        /* \"#utility.yul\":466:471   */\n      dup2\n        /* \"#utility.yul\":426:472   */\n      tag_39\n      jump\t// in\n    tag_38:\n        /* \"#utility.yul\":378:478   */\n      swap3\n      swap2\n      pop\n      pop\n      jump\t// out\n        /* \"#utility.yul\":484:746   */\n    tag_9:\n      0x00\n        /* \"#utility.yul\":592:594   */\n      0x20\n        /* \"#utility.yul\":580:589   */\n      dup3\n        /* \"#utility.yul\":571:578   */\n      dup5\n        /* \"#utility.yul\":567:590   */\n      sub\n        /* \"#utility.yul\":563:595   */\n      slt\n        /* \"#utility.yul\":560:562   */\n      iszero\n      tag_41\n      jumpi\n        /* \"#utility.yul\":608:609   */\n      0x00\n        /* \"#utility.yul\":605:606   */\n      dup1\n        /* \"#utility.yul\":598:610   */\n      revert\n        /* \"#utility.yul\":560:562   */\n    tag_41:\n        /* \"#utility.yul\":651:652   */\n      0x00\n        /* \"#utility.yul\":676:729   */\n      tag_42\n        /* \"#utility.yul\":721:728   */\n      dup5\n        /* \"#utility.yul\":712:718   */\n      dup3\n        /* \"#utility.yul\":701:710   */\n      dup6\n        /* \"#utility.yul\":697:719   */\n      add\n        /* \"#utility.yul\":676:729   */\n      tag_28\n      jump\t// in\n    tag_42:\n        /* \"#utility.yul\":666:729   */\n      swap2\n      pop\n        /* \"#utility.yul\":622:739   */\n      pop\n        /* \"#utility.yul\":550:746   */\n      swap3\n      swap2\n      pop\n      pop\n      jump\t// out\n        /* \"#utility.yul\":752:1372   */\n    tag_15:\n      0x00\n      dup1\n      0x00\n        /* \"#utility.yul\":928:930   */\n      0x60\n        /* \"#utility.yul\":916:925   */\n      dup5\n        /* \"#utility.yul\":907:914   */\n      dup7\n        /* \"#utility.yul\":903:926   */\n      sub\n        /* \"#utility.yul\":899:931   */\n      slt\n        /* \"#utility.yul\":896:898   */\n      iszero\n      tag_44\n      jumpi\n        /* \"#utility.yul\":944:945   */\n      0x00\n        /* \"#utility.yul\":941:942   */\n      dup1\n        /* \"#utility.yul\":934:946   */\n      revert\n        /* \"#utility.yul\":896:898   */\n    tag_44:\n        /* \"#utility.yul\":987:988   */\n      0x00\n        /* \"#utility.yul\":1012:1073   */\n      tag_45\n        /* \"#utility.yul\":1065:1072   */\n      dup7\n        /* \"#utility.yul\":1056:1062   */\n      dup3\n        /* \"#utility.yul\":1045:1054   */\n      dup8\n        /* \"#utility.yul\":1041:1063   */\n      add\n        /* \"#utility.yul\":1012:1073   */\n      tag_32\n      jump\t// in\n    tag_45:\n        /* \"#utility.yul\":1002:1073   */\n      swap4\n      pop\n        /* \"#utility.yul\":958:1083   */\n      pop\n        /* \"#utility.yul\":1122:1124   */\n      0x20\n        /* \"#utility.yul\":1148:1214   */\n      tag_46\n        /* \"#utility.yul\":1206:1213   */\n      dup7\n        /* \"#utility.yul\":1197:1203   */\n      dup3\n        /* \"#utility.yul\":1186:1195   */\n      dup8\n        /* \"#utility.yul\":1182:1204   */\n      add\n        /* \"#utility.yul\":1148:1214   */\n      tag_36\n      jump\t// in\n    tag_46:\n        /* \"#utility.yul\":1138:1214   */\n      swap3\n      pop\n        /* \"#utility.yul\":1093:1224   */\n      pop\n        /* \"#utility.yul\":1263:1265   */\n      0x40\n        /* \"#utility.yul\":1289:1355   */\n      tag_47\n        /* \"#utility.yul\":1347:1354   */\n      dup7\n        /* \"#utility.yul\":1338:1344   */\n      dup3\n        /* \"#utility.yul\":1327:1336   */\n      dup8\n        /* \"#utility.yul\":1323:1345   */\n      add\n        /* \"#utility.yul\":1289:1355   */\n      tag_36\n      jump\t// in\n    tag_47:\n        /* \"#utility.yul\":1279:1355   */\n      swap2\n      pop\n        /* \"#utility.yul\":1234:1365   */\n      pop\n        /* \"#utility.yul\":886:1372   */\n      swap3\n      pop\n      swap3\n      pop\n      swap3\n      jump\t// out\n        /* \"#utility.yul\":1378:1520   */\n    tag_48:\n        /* \"#utility.yul\":1481:1513   */\n      tag_50\n        /* \"#utility.yul\":1507:1512   */\n      dup2\n        /* \"#utility.yul\":1481:1513   */\n      tag_51\n      jump\t// in\n    tag_50:\n        /* \"#utility.yul\":1476:1479   */\n      dup3\n        /* \"#utility.yul\":1469:1514   */\n      mstore\n        /* \"#utility.yul\":1459:1520   */\n      pop\n      pop\n      jump\t// out\n        /* \"#utility.yul\":1526:1635   */\n    tag_52:\n        /* \"#utility.yul\":1607:1628   */\n      tag_54\n        /* \"#utility.yul\":1622:1627   */\n      dup2\n        /* \"#utility.yul\":1607:1628   */\n      tag_55\n      jump\t// in\n    tag_54:\n        /* \"#utility.yul\":1602:1605   */\n      dup3\n        /* \"#utility.yul\":1595:1629   */\n      mstore\n        /* \"#utility.yul\":1585:1635   */\n      pop\n      pop\n      jump\t// out\n        /* \"#utility.yul\":1641:1759   */\n    tag_56:\n        /* \"#utility.yul\":1728:1752   */\n      tag_58\n        /* \"#utility.yul\":1746:1751   */\n      dup2\n        /* \"#utility.yul\":1728:1752   */\n      tag_59\n      jump\t// in\n    tag_58:\n        /* \"#utility.yul\":1723:1726   */\n      dup3\n        /* \"#utility.yul\":1716:1753   */\n      mstore\n        /* \"#utility.yul\":1706:1759   */\n      pop\n      pop\n      jump\t// out\n        /* \"#utility.yul\":1765:2659   */\n    tag_21:\n      0x00\n        /* \"#utility.yul\":2068:2071   */\n      0xe0\n        /* \"#utility.yul\":2057:2066   */\n      dup3\n        /* \"#utility.yul\":2053:2072   */\n      add\n        /* \"#utility.yul\":2045:2072   */\n      swap1\n      pop\n        /* \"#utility.yul\":2082:2169   */\n      tag_61\n        /* \"#utility.yul\":2166:2167   */\n      0x00\n        /* \"#utility.yul\":2155:2164   */\n      dup4\n        /* \"#utility.yul\":2151:2168   */\n      add\n        /* \"#utility.yul\":2142:2148   */\n      dup11\n        /* \"#utility.yul\":2082:2169   */\n      tag_48\n      jump\t// in\n    tag_61:\n        /* \"#utility.yul\":2179:2251   */\n      tag_62\n        /* \"#utility.yul\":2247:2249   */\n      0x20\n        /* \"#utility.yul\":2236:2245   */\n      dup4\n        /* \"#utility.yul\":2232:2250   */\n      add\n        /* \"#utility.yul\":2223:2229   */\n      dup10\n        /* \"#utility.yul\":2179:2251   */\n      tag_56\n      jump\t// in\n    tag_62:\n        /* \"#utility.yul\":2261:2333   */\n      tag_63\n        /* \"#utility.yul\":2329:2331   */\n      0x40\n        /* \"#utility.yul\":2318:2327   */\n      dup4\n        /* \"#utility.yul\":2314:2332   */\n      add\n        /* \"#utility.yul\":2305:2311   */\n      dup9\n        /* \"#utility.yul\":2261:2333   */\n      tag_56\n      jump\t// in\n    tag_63:\n        /* \"#utility.yul\":2343:2415   */\n      tag_64\n        /* \"#utility.yul\":2411:2413   */\n      0x60\n        /* \"#utility.yul\":2400:2409   */\n      dup4\n        /* \"#utility.yul\":2396:2414   */\n      add\n        /* \"#utility.yul\":2387:2393   */\n      dup8\n        /* \"#utility.yul\":2343:2415   */\n      tag_56\n      jump\t// in\n    tag_64:\n        /* \"#utility.yul\":2425:2498   */\n      tag_65\n        /* \"#utility.yul\":2493:2496   */\n      0x80\n        /* \"#utility.yul\":2482:2491   */\n      dup4\n        /* \"#utility.yul\":2478:2497   */\n      add\n        /* \"#utility.yul\":2469:2475   */\n      dup7\n        /* \"#utility.yul\":2425:2498   */\n      tag_56\n      jump\t// in\n    tag_65:\n        /* \"#utility.yul\":2508:2575   */\n      tag_66\n        /* \"#utility.yul\":2570:2573   */\n      0xa0\n        /* \"#utility.yul\":2559:2568   */\n      dup4\n        /* \"#utility.yul\":2555:2574   */\n      add\n        /* \"#utility.yul\":2546:2552   */\n      dup6\n        /* \"#utility.yul\":2508:2575   */\n      tag_52\n      jump\t// in\n    tag_66:\n        /* \"#utility.yul\":2585:2652   */\n      tag_67\n        /* \"#utility.yul\":2647:2650   */\n      0xc0\n        /* \"#utility.yul\":2636:2645   */\n      dup4\n        /* \"#utility.yul\":2632:2651   */\n      add\n        /* \"#utility.yul\":2623:2629   */\n      dup5\n        /* \"#utility.yul\":2585:2652   */\n      tag_52\n      jump\t// in\n    tag_67:\n        /* \"#utility.yul\":2035:2659   */\n      swap9\n      swap8\n      pop\n      pop\n      pop\n      pop\n      pop\n      pop\n      pop\n      pop\n      jump\t// out\n        /* \"#utility.yul\":2665:2887   */\n    tag_12:\n      0x00\n        /* \"#utility.yul\":2796:2798   */\n      0x20\n        /* \"#utility.yul\":2785:2794   */\n      dup3\n        /* \"#utility.yul\":2781:2799   */\n      add\n        /* \"#utility.yul\":2773:2799   */\n      swap1\n      pop\n        /* \"#utility.yul\":2809:2880   */\n      tag_69\n        /* \"#utility.yul\":2877:2878   */\n      0x00\n        /* \"#utility.yul\":2866:2875   */\n      dup4\n        /* \"#utility.yul\":2862:2879   */\n      add\n        /* \"#utility.yul\":2853:2859   */\n      dup5\n        /* \"#utility.yul\":2809:2880   */\n      tag_56\n      jump\t// in\n    tag_69:\n        /* \"#utility.yul\":2763:2887   */\n      swap3\n      swap2\n      pop\n      pop\n      jump\t// out\n        /* \"#utility.yul\":2893:3668   */\n    tag_25:\n      0x00\n        /* \"#utility.yul\":3164:3167   */\n      0xc0\n        /* \"#utility.yul\":3153:3162   */\n      dup3\n        /* \"#utility.yul\":3149:3168   */\n      add\n        /* \"#utility.yul\":3141:3168   */\n      swap1\n      pop\n        /* \"#utility.yul\":3178:3249   */\n      tag_71\n        /* \"#utility.yul\":3246:3247   */\n      0x00\n        /* \"#utility.yul\":3235:3244   */\n      dup4\n        /* \"#utility.yul\":3231:3248   */\n      add\n        /* \"#utility.yul\":3222:3228   */\n      dup10\n        /* \"#utility.yul\":3178:3249   */\n      tag_56\n      jump\t// in\n    tag_71:\n        /* \"#utility.yul\":3259:3331   */\n      tag_72\n        /* \"#utility.yul\":3327:3329   */\n      0x20\n        /* \"#utility.yul\":3316:3325   */\n      dup4\n        /* \"#utility.yul\":3312:3330   */\n      add\n        /* \"#utility.yul\":3303:3309   */\n      dup9\n        /* \"#utility.yul\":3259:3331   */\n      tag_56\n      jump\t// in\n    tag_72:\n        /* \"#utility.yul\":3341:3413   */\n      tag_73\n        /* \"#utility.yul\":3409:3411   */\n      0x40\n        /* \"#utility.yul\":3398:3407   */\n      dup4\n        /* \"#utility.yul\":3394:3412   */\n      add\n        /* \"#utility.yul\":3385:3391   */\n      dup8\n        /* \"#utility.yul\":3341:3413   */\n      tag_56\n      jump\t// in\n    tag_73:\n        /* \"#utility.yul\":3423:3495   */\n      tag_74\n        /* \"#utility.yul\":3491:3493   */\n      0x60\n        /* \"#utility.yul\":3480:3489   */\n      dup4\n        /* \"#utility.yul\":3476:3494   */\n      add\n        /* \"#utility.yul\":3467:3473   */\n      dup7\n        /* \"#utility.yul\":3423:3495   */\n      tag_56\n      jump\t// in\n    tag_74:\n        /* \"#utility.yul\":3505:3578   */\n      tag_75\n        /* \"#utility.yul\":3573:3576   */\n      0x80\n        /* \"#utility.yul\":3562:3571   */\n      dup4\n        /* \"#utility.yul\":3558:3577   */\n      add\n        /* \"#utility.yul\":3549:3555   */\n      dup6\n        /* \"#utility.yul\":3505:3578   */\n      tag_56\n      jump\t// in\n    tag_75:\n        /* \"#utility.yul\":3588:3661   */\n      tag_76\n        /* \"#utility.yul\":3656:3659   */\n      0xa0\n        /* \"#utility.yul\":3645:3654   */\n      dup4\n        /* \"#utility.yul\":3641:3660   */\n      add\n        /* \"#utility.yul\":3632:3638   */\n      dup5\n        /* \"#utility.yul\":3588:3661   */\n      tag_56\n      jump\t// in\n    tag_76:\n        /* \"#utility.yul\":3131:3668   */\n      swap8\n      swap7\n      pop\n      pop\n      pop\n      pop\n      pop\n      pop\n      pop\n      jump\t// out\n        /* \"#utility.yul\":3674:3770   */\n    tag_77:\n      0x00\n        /* \"#utility.yul\":3740:3764   */\n      tag_79\n        /* \"#utility.yul\":3758:3763   */\n      dup3\n        /* \"#utility.yul\":3740:3764   */\n      tag_80\n      jump\t// in\n    tag_79:\n        /* \"#utility.yul\":3729:3764   */\n      swap1\n      pop\n        /* \"#utility.yul\":3719:3770   */\n      swap2\n      swap1\n      pop\n      jump\t// out\n        /* \"#utility.yul\":3776:3880   */\n    tag_51:\n      0x00\n        /* \"#utility.yul\":3850:3874   */\n      tag_82\n        /* \"#utility.yul\":3868:3873   */\n      dup3\n        /* \"#utility.yul\":3850:3874   */\n      tag_80\n      jump\t// in\n    tag_82:\n        /* \"#utility.yul\":3839:3874   */\n      swap1\n      pop\n        /* \"#utility.yul\":3829:3880   */\n      swap2\n      swap1\n      pop\n      jump\t// out\n        /* \"#utility.yul\":3886:3976   */\n    tag_55:\n      0x00\n        /* \"#utility.yul\":3963:3968   */\n      dup2\n        /* \"#utility.yul\":3956:3969   */\n      iszero\n        /* \"#utility.yul\":3949:3970   */\n      iszero\n        /* \"#utility.yul\":3938:3970   */\n      swap1\n      pop\n        /* \"#utility.yul\":3928:3976   */\n      swap2\n      swap1\n      pop\n      jump\t// out\n        /* \"#utility.yul\":3982:4091   */\n    tag_84:\n      0x00\n        /* \"#utility.yul\":4061:4085   */\n      tag_86\n        /* \"#utility.yul\":4079:4084   */\n      dup3\n        /* \"#utility.yul\":4061:4085   */\n      tag_77\n      jump\t// in\n    tag_86:\n        /* \"#utility.yul\":4050:4085   */\n      swap1\n      pop\n        /* \"#utility.yul\":4040:4091   */\n      swap2\n      swap1\n      pop\n      jump\t// out\n        /* \"#utility.yul\":4097:4223   */\n    tag_80:\n      0x00\n        /* \"#utility.yul\":4174:4216   */\n      0xffffffffffffffffffffffffffffffffffffffff\n        /* \"#utility.yul\":4167:4172   */\n      dup3\n        /* \"#utility.yul\":4163:4217   */\n      and\n        /* \"#utility.yul\":4152:4217   */\n      swap1\n      pop\n        /* \"#utility.yul\":4142:4223   */\n      swap2\n      swap1\n      pop\n      jump\t// out\n        /* \"#utility.yul\":4229:4306   */\n    tag_59:\n      0x00\n        /* \"#utility.yul\":4295:4300   */\n      dup2\n        /* \"#utility.yul\":4284:4300   */\n      swap1\n      pop\n        /* \"#utility.yul\":4274:4306   */\n      swap2\n      swap1\n      pop\n      jump\t// out\n        /* \"#utility.yul\":4312:4434   */\n    tag_31:\n        /* \"#utility.yul\":4385:4409   */\n      tag_90\n        /* \"#utility.yul\":4403:4408   */\n      dup2\n        /* \"#utility.yul\":4385:4409   */\n      tag_77\n      jump\t// in\n    tag_90:\n        /* \"#utility.yul\":4378:4383   */\n      dup2\n        /* \"#utility.yul\":4375:4410   */\n      eq\n        /* \"#utility.yul\":4365:4367   */\n      tag_91\n      jumpi\n        /* \"#utility.yul\":4424:4425   */\n      0x00\n        /* \"#utility.yul\":4421:4422   */\n      dup1\n        /* \"#utility.yul\":4414:4426   */\n      revert\n        /* \"#utility.yul\":4365:4367   */\n    tag_91:\n        /* \"#utility.yul\":4355:4434   */\n      pop\n      jump\t// out\n        /* \"#utility.yul\":4440:4578   */\n    tag_35:\n        /* \"#utility.yul\":4521:4553   */\n      tag_93\n        /* \"#utility.yul\":4547:4552   */\n      dup2\n        /* \"#utility.yul\":4521:4553   */\n      tag_51\n      jump\t// in\n    tag_93:\n        /* \"#utility.yul\":4514:4519   */\n      dup2\n        /* \"#utility.yul\":4511:4554   */\n      eq\n        /* \"#utility.yul\":4501:4503   */\n      tag_94\n      jumpi\n        /* \"#utility.yul\":4568:4569   */\n      0x00\n        /* \"#utility.yul\":4565:4566   */\n      dup1\n        /* \"#utility.yul\":4558:4570   */\n      revert\n        /* \"#utility.yul\":4501:4503   */\n    tag_94:\n        /* \"#utility.yul\":4491:4578   */\n      pop\n      jump\t// out\n        /* \"#utility.yul\":4584:4732   */\n    tag_39:\n        /* \"#utility.yul\":4670:4707   */\n      tag_96\n        /* \"#utility.yul\":4701:4706   */\n      dup2\n        /* \"#utility.yul\":4670:4707   */\n      tag_84\n      jump\t// in\n    tag_96:\n        /* \"#utility.yul\":4663:4668   */\n      dup2\n        /* \"#utility.yul\":4660:4708   */\n      eq\n        /* \"#utility.yul\":4650:4652   */\n      tag_97\n      jumpi\n        /* \"#utility.yul\":4722:4723   */\n      0x00\n        /* \"#utility.yul\":4719:4720   */\n      dup1\n        /* \"#utility.yul\":4712:4724   */\n      revert\n        /* \"#utility.yul\":4650:4652   */\n    tag_97:\n        /* \"#utility.yul\":4640:4732   */\n      pop\n      jump\t// out\n\n    auxdata: 0xa2646970667358221220aad14de47cf11061414b788f54516726d42499de8291dceaaedb266392814b1064736f6c63430008000033\n}\n",
				"bytecode": {
					"linkReferences": {},
					"object": "608060405234801561001057600080fd5b5061046f806100206000396000f3fe608060405234801561001057600080fd5b506004361061004c5760003560e01c806356c5f34914610051578063bb5068b414610081578063e2d3f4231461009d578063e33865b3146100d3575b600080fd5b61006b600480360381019061006691906101f8565b6100f6565b604051610078919061030c565b60405180910390f35b61009b60048036038101906100969190610221565b61010e565b005b6100b760048036038101906100b291906101f8565b610113565b6040516100ca979695949392919061029d565b60405180910390f35b6100db61018f565b6040516100ed96959493929190610327565b60405180910390f35b60016020528060005260406000206000915090505481565b505050565b60006020528060005260406000206000915090508060000160009054906101000a900473ffffffffffffffffffffffffffffffffffffffff16908060010154908060020154908060030154908060040154908060050160009054906101000a900460ff16908060050160019054906101000a900460ff16905087565b60028060000154908060010154908060020154908060030154908060040154908060050154905086565b6000813590506101c8816103f4565b92915050565b6000813590506101dd8161040b565b92915050565b6000813590506101f281610422565b92915050565b60006020828403121561020a57600080fd5b6000610218848285016101b9565b91505092915050565b60008060006060848603121561023657600080fd5b6000610244868287016101ce565b9350506020610255868287016101e3565b9250506040610266868287016101e3565b9150509250925092565b6102798161039a565b82525050565b610288816103ac565b82525050565b610297816103ea565b82525050565b600060e0820190506102b2600083018a610270565b6102bf602083018961028e565b6102cc604083018861028e565b6102d9606083018761028e565b6102e6608083018661028e565b6102f360a083018561027f565b61030060c083018461027f565b98975050505050505050565b6000602082019050610321600083018461028e565b92915050565b600060c08201905061033c600083018961028e565b610349602083018861028e565b610356604083018761028e565b610363606083018661028e565b610370608083018561028e565b61037d60a083018461028e565b979650505050505050565b6000610393826103ca565b9050919050565b60006103a5826103ca565b9050919050565b60008115159050919050565b60006103c382610388565b9050919050565b600073ffffffffffffffffffffffffffffffffffffffff82169050919050565b6000819050919050565b6103fd81610388565b811461040857600080fd5b50565b6104148161039a565b811461041f57600080fd5b50565b61042b816103b8565b811461043657600080fd5b5056fea2646970667358221220aad14de47cf11061414b788f54516726d42499de8291dceaaedb266392814b1064736f6c63430008000033",
					"opcodes": "PUSH1 0x80 PUSH1 0x40 MSTORE CALLVALUE DUP1 ISZERO PUSH2 0x10 JUMPI PUSH1 0x0 DUP1 REVERT JUMPDEST POP PUSH2 0x46F DUP1 PUSH2 0x20 PUSH1 0x0 CODECOPY PUSH1 0x0 RETURN INVALID PUSH1 0x80 PUSH1 0x40 MSTORE CALLVALUE DUP1 ISZERO PUSH2 0x10 JUMPI PUSH1 0x0 DUP1 REVERT JUMPDEST POP PUSH1 0x4 CALLDATASIZE LT PUSH2 0x4C JUMPI PUSH1 0x0 CALLDATALOAD PUSH1 0xE0 SHR DUP1 PUSH4 0x56C5F349 EQ PUSH2 0x51 JUMPI DUP1 PUSH4 0xBB5068B4 EQ PUSH2 0x81 JUMPI DUP1 PUSH4 0xE2D3F423 EQ PUSH2 0x9D JUMPI DUP1 PUSH4 0xE33865B3 EQ PUSH2 0xD3 JUMPI JUMPDEST PUSH1 0x0 DUP1 REVERT JUMPDEST PUSH2 0x6B PUSH1 0x4 DUP1 CALLDATASIZE SUB DUP2 ADD SWAP1 PUSH2 0x66 SWAP2 SWAP1 PUSH2 0x1F8 JUMP JUMPDEST PUSH2 0xF6 JUMP JUMPDEST PUSH1 0x40 MLOAD PUSH2 0x78 SWAP2 SWAP1 PUSH2 0x30C JUMP JUMPDEST PUSH1 0x40 MLOAD DUP1 SWAP2 SUB SWAP1 RETURN JUMPDEST PUSH2 0x9B PUSH1 0x4 DUP1 CALLDATASIZE SUB DUP2 ADD SWAP1 PUSH2 0x96 SWAP2 SWAP1 PUSH2 0x221 JUMP JUMPDEST PUSH2 0x10E JUMP JUMPDEST STOP JUMPDEST PUSH2 0xB7 PUSH1 0x4 DUP1 CALLDATASIZE SUB DUP2 ADD SWAP1 PUSH2 0xB2 SWAP2 SWAP1 PUSH2 0x1F8 JUMP JUMPDEST PUSH2 0x113 JUMP JUMPDEST PUSH1 0x40 MLOAD PUSH2 0xCA SWAP8 SWAP7 SWAP6 SWAP5 SWAP4 SWAP3 SWAP2 SWAP1 PUSH2 0x29D JUMP JUMPDEST PUSH1 0x40 MLOAD DUP1 SWAP2 SUB SWAP1 RETURN JUMPDEST PUSH2 0xDB PUSH2 0x18F JUMP JUMPDEST PUSH1 0x40 MLOAD PUSH2 0xED SWAP7 SWAP6 SWAP5 SWAP4 SWAP3 SWAP2 SWAP1 PUSH2 0x327 JUMP JUMPDEST PUSH1 0x40 MLOAD DUP1 SWAP2 SUB SWAP1 RETURN JUMPDEST PUSH1 0x1 PUSH1 0x20 MSTORE DUP1 PUSH1 0x0 MSTORE PUSH1 0x40 PUSH1 0x0 KECCAK256 PUSH1 0x0 SWAP2 POP SWAP1 POP SLOAD DUP2 JUMP JUMPDEST POP POP POP JUMP JUMPDEST PUSH1 0x0 PUSH1 0x20 MSTORE DUP1 PUSH1 0x0 MSTORE PUSH1 0x40 PUSH1 0x0 KECCAK256 PUSH1 0x0 SWAP2 POP SWAP1 POP DUP1 PUSH1 0x0 ADD PUSH1 0x0 SWAP1 SLOAD SWAP1 PUSH2 0x100 EXP SWAP1 DIV PUSH20 0xFFFFFFFFFFFFFFFFFFFFFFFFFFFFFFFFFFFFFFFF AND SWAP1 DUP1 PUSH1 0x1 ADD SLOAD SWAP1 DUP1 PUSH1 0x2 ADD SLOAD SWAP1 DUP1 PUSH1 0x3 ADD SLOAD SWAP1 DUP1 PUSH1 0x4 ADD SLOAD SWAP1 DUP1 PUSH1 0x5 ADD PUSH1 0x0 SWAP1 SLOAD SWAP1 PUSH2 0x100 EXP SWAP1 DIV PUSH1 0xFF AND SWAP1 DUP1 PUSH1 0x5 ADD PUSH1 0x1 SWAP1 SLOAD SWAP1 PUSH2 0x100 EXP SWAP1 DIV PUSH1 0xFF AND SWAP1 POP DUP8 JUMP JUMPDEST PUSH1 0x2 DUP1 PUSH1 0x0 ADD SLOAD SWAP1 DUP1 PUSH1 0x1 ADD SLOAD SWAP1 DUP1 PUSH1 0x2 ADD SLOAD SWAP1 DUP1 PUSH1 0x3 ADD SLOAD SWAP1 DUP1 PUSH1 0x4 ADD SLOAD SWAP1 DUP1 PUSH1 0x5 ADD SLOAD SWAP1 POP DUP7 JUMP JUMPDEST PUSH1 0x0 DUP2 CALLDATALOAD SWAP1 POP PUSH2 0x1C8 DUP2 PUSH2 0x3F4 JUMP JUMPDEST SWAP3 SWAP2 POP POP JUMP JUMPDEST PUSH1 0x0 DUP2 CALLDATALOAD SWAP1 POP PUSH2 0x1DD DUP2 PUSH2 0x40B JUMP JUMPDEST SWAP3 SWAP2 POP POP JUMP JUMPDEST PUSH1 0x0 DUP2 CALLDATALOAD SWAP1 POP PUSH2 0x1F2 DUP2 PUSH2 0x422 JUMP JUMPDEST SWAP3 SWAP2 POP POP JUMP JUMPDEST PUSH1 0x0 PUSH1 0x20 DUP3 DUP5 SUB SLT ISZERO PUSH2 0x20A JUMPI PUSH1 0x0 DUP1 REVERT JUMPDEST PUSH1 0x0 PUSH2 0x218 DUP5 DUP3 DUP6 ADD PUSH2 0x1B9 JUMP JUMPDEST SWAP2 POP POP SWAP3 SWAP2 POP POP JUMP JUMPDEST PUSH1 0x0 DUP1 PUSH1 0x0 PUSH1 0x60 DUP5 DUP7 SUB SLT ISZERO PUSH2 0x236 JUMPI PUSH1 0x0 DUP1 REVERT JUMPDEST PUSH1 0x0 PUSH2 0x244 DUP7 DUP3 DUP8 ADD PUSH2 0x1CE JUMP JUMPDEST SWAP4 POP POP PUSH1 0x20 PUSH2 0x255 DUP7 DUP3 DUP8 ADD PUSH2 0x1E3 JUMP JUMPDEST SWAP3 POP POP PUSH1 0x40 PUSH2 0x266 DUP7 DUP3 DUP8 ADD PUSH2 0x1E3 JUMP JUMPDEST SWAP2 POP POP SWAP3 POP SWAP3 POP SWAP3 JUMP JUMPDEST PUSH2 0x279 DUP2 PUSH2 0x39A JUMP JUMPDEST DUP3 MSTORE POP POP JUMP JUMPDEST PUSH2 0x288 DUP2 PUSH2 0x3AC JUMP JUMPDEST DUP3 MSTORE POP POP JUMP JUMPDEST PUSH2 0x297 DUP2 PUSH2 0x3EA JUMP JUMPDEST DUP3 MSTORE POP POP JUMP JUMPDEST PUSH1 0x0 PUSH1 0xE0 DUP3 ADD SWAP1 POP PUSH2 0x2B2 PUSH1 0x0 DUP4 ADD DUP11 PUSH2 0x270 JUMP JUMPDEST PUSH2 0x2BF PUSH1 0x20 DUP4 ADD DUP10 PUSH2 0x28E JUMP JUMPDEST PUSH2 0x2CC PUSH1 0x40 DUP4 ADD DUP9 PUSH2 0x28E JUMP JUMPDEST PUSH2 0x2D9 PUSH1 0x60 DUP4 ADD DUP8 PUSH2 0x28E JUMP JUMPDEST PUSH2 0x2E6 PUSH1 0x80 DUP4 ADD DUP7 PUSH2 0x28E JUMP JUMPDEST PUSH2 0x2F3 PUSH1 0xA0 DUP4 ADD DUP6 PUSH2 0x27F JUMP JUMPDEST PUSH2 0x300 PUSH1 0xC0 DUP4 ADD DUP5 PUSH2 0x27F JUMP JUMPDEST SWAP9 SWAP8 POP POP POP POP POP POP POP POP JUMP JUMPDEST PUSH1 0x0 PUSH1 0x20 DUP3 ADD SWAP1 POP PUSH2 0x321 PUSH1 0x0 DUP4 ADD DUP5 PUSH2 0x28E JUMP JUMPDEST SWAP3 SWAP2 POP POP JUMP JUMPDEST PUSH1 0x0 PUSH1 0xC0 DUP3 ADD SWAP1 POP PUSH2 0x33C PUSH1 0x0 DUP4 ADD DUP10 PUSH2 0x28E JUMP JUMPDEST PUSH2 0x349 PUSH1 0x20 DUP4 ADD DUP9 PUSH2 0x28E JUMP JUMPDEST PUSH2 0x356 PUSH1 0x40 DUP4 ADD DUP8 PUSH2 0x28E JUMP JUMPDEST PUSH2 0x363 PUSH1 0x60 DUP4 ADD DUP7 PUSH2 0x28E JUMP JUMPDEST PUSH2 0x370 PUSH1 0x80 DUP4 ADD DUP6 PUSH2 0x28E JUMP JUMPDEST PUSH2 0x37D PUSH1 0xA0 DUP4 ADD DUP5 PUSH2 0x28E JUMP JUMPDEST SWAP8 SWAP7 POP POP POP POP POP POP POP JUMP JUMPDEST PUSH1 0x0 PUSH2 0x393 DUP3 PUSH2 0x3CA JUMP JUMPDEST SWAP1 POP SWAP2 SWAP1 POP JUMP JUMPDEST PUSH1 0x0 PUSH2 0x3A5 DUP3 PUSH2 0x3CA JUMP JUMPDEST SWAP1 POP SWAP2 SWAP1 POP JUMP JUMPDEST PUSH1 0x0 DUP2 ISZERO ISZERO SWAP1 POP SWAP2 SWAP1 POP JUMP JUMPDEST PUSH1 0x0 PUSH2 0x3C3 DUP3 PUSH2 0x388 JUMP JUMPDEST SWAP1 POP SWAP2 SWAP1 POP JUMP JUMPDEST PUSH1 0x0 PUSH20 0xFFFFFFFFFFFFFFFFFFFFFFFFFFFFFFFFFFFFFFFF DUP3 AND SWAP1 POP SWAP2 SWAP1 POP JUMP JUMPDEST PUSH1 0x0 DUP2 SWAP1 POP SWAP2 SWAP1 POP JUMP JUMPDEST PUSH2 0x3FD DUP2 PUSH2 0x388 JUMP JUMPDEST DUP2 EQ PUSH2 0x408 JUMPI PUSH1 0x0 DUP1 REVERT JUMPDEST POP JUMP JUMPDEST PUSH2 0x414 DUP2 PUSH2 0x39A JUMP JUMPDEST DUP2 EQ PUSH2 0x41F JUMPI PUSH1 0x0 DUP1 REVERT JUMPDEST POP JUMP JUMPDEST PUSH2 0x42B DUP2 PUSH2 0x3B8 JUMP JUMPDEST DUP2 EQ PUSH2 0x436 JUMPI PUSH1 0x0 DUP1 REVERT JUMPDEST POP JUMP INVALID LOG2 PUSH5 0x6970667358 0x22 SLT KECCAK256 0xAA 0xD1 0x4D 0xE4 PUSH29 0xF11061414B788F54516726D42499DE8291DCEAAEDB266392814B106473 PUSH16 0x6C634300080000330000000000000000 "
				},
				"gasEstimates": {
					"creation": {
						"codeDepositCost": "227000",
						"executionCost": "269",
						"totalCost": "227269"
					},
					"external": {
						"STATUS()": "infinite",
						"buyerInfo(address)": "infinite",
						"initialSaleInfor(address,address,address)": "infinite",
						"userFee(address)": "1492"
					}
				},
				"methodIdentifiers": {
					"STATUS()": "e33865b3",
					"buyerInfo(address)": "e2d3f423",
					"initialSaleInfor(address,address,address)": "bb5068b4",
					"userFee(address)": "56c5f349"
				}
			},
			"storageLayout": {
				"storage": [
					{
						"astId": 140,
						"contract": "Ethereum/Presale.sol:Presale",
						"label": "buyerInfo",
						"offset": 0,
						"slot": "0",
						"type": "t_mapping(t_address,t_struct(BuyerInfo)122_storage)"
					},
					{
						"astId": 144,
						"contract": "Ethereum/Presale.sol:Presale",
						"label": "userFee",
						"offset": 0,
						"slot": "1",
						"type": "t_mapping(t_address,t_uint256)"
					},
					{
						"astId": 147,
						"contract": "Ethereum/Presale.sol:Presale",
						"label": "STATUS",
						"offset": 0,
						"slot": "2",
						"type": "t_struct(PresaleStatus)135_storage"
					}
				],
				"types": {
					"t_address": {
						"encoding": "inplace",
						"label": "address",
						"numberOfBytes": "20"
					},
					"t_address_payable": {
						"encoding": "inplace",
						"label": "address payable",
						"numberOfBytes": "20"
					},
					"t_bool": {
						"encoding": "inplace",
						"label": "bool",
						"numberOfBytes": "1"
					},
					"t_mapping(t_address,t_struct(BuyerInfo)122_storage)": {
						"encoding": "mapping",
						"key": "t_address",
						"label": "mapping(address => struct Presale.BuyerInfo)",
						"numberOfBytes": "32",
						"value": "t_struct(BuyerInfo)122_storage"
					},
					"t_mapping(t_address,t_uint256)": {
						"encoding": "mapping",
						"key": "t_address",
						"label": "mapping(address => uint256)",
						"numberOfBytes": "32",
						"value": "t_uint256"
					},
					"t_struct(BuyerInfo)122_storage": {
						"encoding": "inplace",
						"label": "struct Presale.BuyerInfo",
						"members": [
							{
								"astId": 109,
								"contract": "Ethereum/Presale.sol:Presale",
								"label": "buyer",
								"offset": 0,
								"slot": "0",
								"type": "t_address_payable"
							},
							{
								"astId": 111,
								"contract": "Ethereum/Presale.sol:Presale",
								"label": "baseDeposit",
								"offset": 0,
								"slot": "1",
								"type": "t_uint256"
							},
							{
								"astId": 113,
								"contract": "Ethereum/Presale.sol:Presale",
								"label": "tokenOwner",
								"offset": 0,
								"slot": "2",
								"type": "t_uint256"
							},
							{
								"astId": 115,
								"contract": "Ethereum/Presale.sol:Presale",
								"label": "lastWithDraw",
								"offset": 0,
								"slot": "3",
								"type": "t_uint256"
							},
							{
								"astId": 117,
								"contract": "Ethereum/Presale.sol:Presale",
								"label": "totalTokenWithDraw",
								"offset": 0,
								"slot": "4",
								"type": "t_uint256"
							},
							{
								"astId": 119,
								"contract": "Ethereum/Presale.sol:Presale",
								"label": "isRefund",
								"offset": 0,
								"slot": "5",
								"type": "t_bool"
							},
							{
								"astId": 121,
								"contract": "Ethereum/Presale.sol:Presale",
								"label": "isClaim",
								"offset": 1,
								"slot": "5",
								"type": "t_bool"
							}
						],
						"numberOfBytes": "192"
					},
					"t_struct(PresaleStatus)135_storage": {
						"encoding": "inplace",
						"label": "struct Presale.PresaleStatus",
						"members": [
							{
								"astId": 124,
								"contract": "Ethereum/Presale.sol:Presale",
								"label": "totalBaseCollected",
								"offset": 0,
								"slot": "0",
								"type": "t_uint256"
							},
							{
								"astId": 126,
								"contract": "Ethereum/Presale.sol:Presale",
								"label": "totalTokenSold",
								"offset": 0,
								"slot": "1",
								"type": "t_uint256"
							},
							{
								"astId": 128,
								"contract": "Ethereum/Presale.sol:Presale",
								"label": "totalTokenWithDraw",
								"offset": 0,
								"slot": "2",
								"type": "t_uint256"
							},
							{
								"astId": 130,
								"contract": "Ethereum/Presale.sol:Presale",
								"label": "totalBaseWithDraw",
								"offset": 0,
								"slot": "3",
								"type": "t_uint256"
							},
							{
								"astId": 132,
								"contract": "Ethereum/Presale.sol:Presale",
								"label": "numByer",
								"offset": 0,
								"slot": "4",
								"type": "t_uint256"
							},
							{
								"astId": 134,
								"contract": "Ethereum/Presale.sol:Presale",
								"label": "totalFee",
								"offset": 0,
								"slot": "5",
								"type": "t_uint256"
							}
						],
						"numberOfBytes": "192"
					},
					"t_uint256": {
						"encoding": "inplace",
						"label": "uint256",
						"numberOfBytes": "32"
					}
				}
			},
			"userdoc": {
				"kind": "user",
				"methods": {},
				"version": 1
			}
		}
	}
}