{
	"Ethereum/PresaleSettings.sol": {
		"PresaleSettings": {
			"abi": [
				{
					"inputs": [],
					"stateMutability": "nonpayable",
					"type": "constructor"
				},
				{
					"anonymous": false,
					"inputs": [
						{
							"indexed": true,
							"internalType": "address",
							"name": "previousOwner",
							"type": "address"
						},
						{
							"indexed": true,
							"internalType": "address",
							"name": "newOwner",
							"type": "address"
						}
					],
					"name": "OwnershipTransferred",
					"type": "event"
				},
				{
					"inputs": [],
					"name": "SETTINGS",
					"outputs": [
						{
							"internalType": "uint256",
							"name": "BASE_FEE",
							"type": "uint256"
						},
						{
							"internalType": "uint256",
							"name": "TOKEN_FEE",
							"type": "uint256"
						},
						{
							"internalType": "address payable",
							"name": "ETH_FEE_ADDRESS",
							"type": "address"
						},
						{
							"internalType": "address payable",
							"name": "TOKEN_FEE_ADDRESS",
							"type": "address"
						},
						{
							"internalType": "uint256",
							"name": "ETH_CREATION_FEE",
							"type": "uint256"
						}
					],
					"stateMutability": "view",
					"type": "function"
				},
				{
					"inputs": [],
					"name": "getBaseFee",
					"outputs": [
						{
							"internalType": "uint256",
							"name": "",
							"type": "uint256"
						}
					],
					"stateMutability": "view",
					"type": "function"
				},
				{
					"inputs": [],
					"name": "getEthAddress",
					"outputs": [
						{
							"internalType": "address payable",
							"name": "",
							"type": "address"
						}
					],
					"stateMutability": "view",
					"type": "function"
				},
				{
					"inputs": [],
					"name": "getEthCreationFee",
					"outputs": [
						{
							"internalType": "uint256",
							"name": "",
							"type": "uint256"
						}
					],
					"stateMutability": "view",
					"type": "function"
				},
				{
					"inputs": [],
					"name": "getTokenAddress",
					"outputs": [
						{
							"internalType": "address payable",
							"name": "",
							"type": "address"
						}
					],
					"stateMutability": "view",
					"type": "function"
				},
				{
					"inputs": [],
					"name": "getTokenFee",
					"outputs": [
						{
							"internalType": "uint256",
							"name": "",
							"type": "uint256"
						}
					],
					"stateMutability": "view",
					"type": "function"
				},
				{
					"inputs": [],
					"name": "owner",
					"outputs": [
						{
							"internalType": "address",
							"name": "",
							"type": "address"
						}
					],
					"stateMutability": "view",
					"type": "function"
				},
				{
					"inputs": [],
					"name": "renounceOwnership",
					"outputs": [],
					"stateMutability": "nonpayable",
					"type": "function"
				},
				{
					"inputs": [
						{
							"internalType": "address payable",
							"name": "_ethAddress",
							"type": "address"
						},
						{
							"internalType": "address payable",
							"name": "_tokenFeeAddress",
							"type": "address"
						}
					],
					"name": "setFeeAddresses",
					"outputs": [],
					"stateMutability": "nonpayable",
					"type": "function"
				},
				{
					"inputs": [
						{
							"internalType": "uint256",
							"name": "_baseFee",
							"type": "uint256"
						},
						{
							"internalType": "uint256",
							"name": "_tokenFee",
							"type": "uint256"
						},
						{
							"internalType": "uint256",
							"name": "_ethCreationFee",
							"type": "uint256"
						}
					],
					"name": "setFees",
					"outputs": [],
					"stateMutability": "nonpayable",
					"type": "function"
				},
				{
					"inputs": [
						{
							"internalType": "address",
							"name": "newOwner",
							"type": "address"
						}
					],
					"name": "transferOwnership",
					"outputs": [],
					"stateMutability": "nonpayable",
					"type": "function"
				}
			],
			"devdoc": {
				"kind": "dev",
				"methods": {
					"owner()": {
						"details": "Returns the address of the current owner."
					},
					"renounceOwnership()": {
						"details": "Leaves the contract without owner. It will not be possible to call `onlyOwner` functions anymore. Can only be called by the current owner. NOTE: Renouncing ownership will leave the contract without an owner, thereby removing any functionality that is only available to the owner."
					},
					"transferOwnership(address)": {
						"details": "Transfers ownership of the contract to a new account (`newOwner`). Can only be called by the current owner."
					}
				},
				"version": 1
			},
			"evm": {
				"assembly": "    /* \"Ethereum/PresaleSettings.sol\":134:1994  contract PresaleSettings is Ownable {\r... */\n  mstore(0x40, 0x80)\n    /* \"Ethereum/PresaleSettings.sol\":586:874  constructor() {\r... */\n  callvalue\n  dup1\n  iszero\n  tag_1\n  jumpi\n  0x00\n  dup1\n  revert\ntag_1:\n  pop\n    /* \"Utils/Ownable.sol\":942:974  _transferOwnership(_msgSender()) */\n  tag_5\n    /* \"Utils/Context.sol\":736:746  msg.sender */\n  caller\n    /* \"Utils/Ownable.sol\":942:960  _transferOwnership */\n  tag_8\n    /* \"Utils/Ownable.sol\":942:974  _transferOwnership(_msgSender()) */\n  jump\t// in\ntag_5:\n    /* \"Ethereum/PresaleSettings.sol\":631:633  50 */\n  0x32\n    /* \"Ethereum/PresaleSettings.sol\":611:619  SETTINGS */\n  0x01\n    /* \"Ethereum/PresaleSettings.sol\":611:633  SETTINGS.BASE_FEE = 50 */\n  sstore\n    /* \"Ethereum/PresaleSettings.sol\":611:628  SETTINGS.BASE_FEE */\n  0x00\n    /* \"Ethereum/PresaleSettings.sol\":650:668  SETTINGS.TOKEN_FEE */\n  0x02\n    /* \"Ethereum/PresaleSettings.sol\":650:672  SETTINGS.TOKEN_FEE = 0 */\n  sstore\n    /* \"Ethereum/PresaleSettings.sol\":717:735  500000000000000000 */\n  0x06f05b59d3b20000\n    /* \"Ethereum/PresaleSettings.sol\":689:714  SETTINGS.ETH_CREATION_FEE */\n  0x05\n    /* \"Ethereum/PresaleSettings.sol\":689:735  SETTINGS.ETH_CREATION_FEE = 500000000000000000 */\n  sstore\n    /* \"Ethereum/PresaleSettings.sol\":757:781  SETTINGS.ETH_FEE_ADDRESS */\n  0x03\n    /* \"Ethereum/PresaleSettings.sol\":757:805  SETTINGS.ETH_FEE_ADDRESS = payable(_msgSender()) */\n  dup1\n  sload\n    /* \"Utils/Context.sol\":736:746  msg.sender */\n  caller\n  not(sub(shl(0xa0, 0x01), 0x01))\n    /* \"Ethereum/PresaleSettings.sol\":757:805  SETTINGS.ETH_FEE_ADDRESS = payable(_msgSender()) */\n  swap2\n  dup3\n  and\n  dup2\n  or\n  swap1\n  swap3\n  sstore\n    /* \"Ethereum/PresaleSettings.sol\":816:842  SETTINGS.TOKEN_FEE_ADDRESS */\n  0x04\n    /* \"Ethereum/PresaleSettings.sol\":816:866  SETTINGS.TOKEN_FEE_ADDRESS = payable(_msgSender()) */\n  dup1\n  sload\n  swap1\n  swap2\n  and\n  swap1\n  swap2\n  or\n  swap1\n  sstore\n    /* \"Ethereum/PresaleSettings.sol\":134:1994  contract PresaleSettings is Ownable {\r... */\n  jump(tag_12)\n    /* \"Utils/Ownable.sol\":2333:2524  function _transferOwnership(address newOwner) internal virtual {\r... */\ntag_8:\n    /* \"Utils/Ownable.sol\":2407:2423  address oldOwner */\n  0x00\n    /* \"Utils/Ownable.sol\":2426:2432  _owner */\n  dup1\n  sload\n  sub(shl(0xa0, 0x01), 0x01)\n    /* \"Utils/Ownable.sol\":2443:2460  _owner = newOwner */\n  dup4\n  dup2\n  and\n  not(sub(shl(0xa0, 0x01), 0x01))\n  dup4\n  and\n  dup2\n  or\n  dup5\n  sstore\n    /* \"Utils/Ownable.sol\":2476:2516  OwnershipTransferred(oldOwner, newOwner) */\n  mload(0x40)\n    /* \"Utils/Ownable.sol\":2426:2432  _owner */\n  swap2\n  swap1\n  swap3\n  and\n  swap3\n  dup4\n  swap2\n    /* \"Utils/Ownable.sol\":2476:2516  OwnershipTransferred(oldOwner, newOwner) */\n  0x8be0079c531659141344cd1fd0a4f28419497f9722a3daafe3b4186f6b6457e0\n  swap2\n    /* \"Utils/Ownable.sol\":2407:2423  address oldOwner */\n  swap1\n    /* \"Utils/Ownable.sol\":2476:2516  OwnershipTransferred(oldOwner, newOwner) */\n  log3\n    /* \"Utils/Ownable.sol\":2396:2524  {\r... */\n  pop\n    /* \"Utils/Ownable.sol\":2333:2524  function _transferOwnership(address newOwner) internal virtual {\r... */\n  pop\n  jump\t// out\n    /* \"Ethereum/PresaleSettings.sol\":134:1994  contract PresaleSettings is Ownable {\r... */\ntag_12:\n  dataSize(sub_0)\n  dup1\n  dataOffset(sub_0)\n  0x00\n  codecopy\n  0x00\n  return\nstop\n\nsub_0: assembly {\n        /* \"Ethereum/PresaleSettings.sol\":134:1994  contract PresaleSettings is Ownable {\r... */\n      mstore(0x40, 0x80)\n      callvalue\n      dup1\n      iszero\n      tag_1\n      jumpi\n      0x00\n      dup1\n      revert\n    tag_1:\n      pop\n      jumpi(tag_2, lt(calldatasize, 0x04))\n      shr(0xe0, calldataload(0x00))\n      dup1\n      0x715018a6\n      gt\n      tag_14\n      jumpi\n      dup1\n      0x715018a6\n      eq\n      tag_8\n      jumpi\n      dup1\n      0x8da5cb5b\n      eq\n      tag_9\n      jumpi\n      dup1\n      0xade97ab5\n      eq\n      tag_10\n      jumpi\n      dup1\n      0xcec10c11\n      eq\n      tag_11\n      jumpi\n      dup1\n      0xe38ef7a3\n      eq\n      tag_12\n      jumpi\n      dup1\n      0xf2fde38b\n      eq\n      tag_13\n      jumpi\n      0x00\n      dup1\n      revert\n    tag_14:\n      dup1\n      0x10fe9ae8\n      eq\n      tag_3\n      jumpi\n      dup1\n      0x11c84120\n      eq\n      tag_4\n      jumpi\n      dup1\n      0x15e812ad\n      eq\n      tag_5\n      jumpi\n      dup1\n      0x24785172\n      eq\n      tag_6\n      jumpi\n      dup1\n      0x35546850\n      eq\n      tag_7\n      jumpi\n    tag_2:\n      0x00\n      dup1\n      revert\n        /* \"Ethereum/PresaleSettings.sol\":1337:1456  function getTokenAddress() external view returns (address payable) {\r... */\n    tag_3:\n        /* \"Ethereum/PresaleSettings.sol\":1422:1448  SETTINGS.TOKEN_FEE_ADDRESS */\n      and(sub(shl(0xa0, 0x01), 0x01), sload(0x04))\n        /* \"Ethereum/PresaleSettings.sol\":1337:1456  function getTokenAddress() external view returns (address payable) {\r... */\n    tag_15:\n      mload(0x40)\n      sub(shl(0xa0, 0x01), 0x01)\n        /* \"#utility.yul\":1160:1192   */\n      swap1\n      swap2\n      and\n        /* \"#utility.yul\":1142:1193   */\n      dup2\n      mstore\n        /* \"#utility.yul\":1130:1132   */\n      0x20\n        /* \"#utility.yul\":1115:1133   */\n      add\n        /* \"Ethereum/PresaleSettings.sol\":1337:1456  function getTokenAddress() external view returns (address payable) {\r... */\n    tag_17:\n      mload(0x40)\n      dup1\n      swap2\n      sub\n      swap1\n      return\n        /* \"Ethereum/PresaleSettings.sol\":1464:1709  function setFeeAddresses(\r... */\n    tag_4:\n      tag_19\n      tag_20\n      calldatasize\n      0x04\n      tag_21\n      jump\t// in\n    tag_20:\n      tag_22\n      jump\t// in\n    tag_19:\n      stop\n        /* \"Ethereum/PresaleSettings.sol\":882:979  function getBaseFee() external view returns (uint256) {\r... */\n    tag_5:\n        /* \"Ethereum/PresaleSettings.sol\":954:962  SETTINGS */\n      0x01\n        /* \"Ethereum/PresaleSettings.sol\":954:971  SETTINGS.BASE_FEE */\n      sload\n        /* \"Ethereum/PresaleSettings.sol\":882:979  function getBaseFee() external view returns (uint256) {\r... */\n    tag_23:\n      mload(0x40)\n        /* \"#utility.yul\":2342:2367   */\n      swap1\n      dup2\n      mstore\n        /* \"#utility.yul\":2330:2332   */\n      0x20\n        /* \"#utility.yul\":2315:2333   */\n      add\n        /* \"Ethereum/PresaleSettings.sol\":882:979  function getBaseFee() external view returns (uint256) {\r... */\n      tag_17\n        /* \"#utility.yul\":2297:2373   */\n      jump\n        /* \"Ethereum/PresaleSettings.sol\":1214:1329  function getEthAddress() external view returns (address payable) {\r... */\n    tag_6:\n        /* \"Ethereum/PresaleSettings.sol\":1297:1321  SETTINGS.ETH_FEE_ADDRESS */\n      and(sub(shl(0xa0, 0x01), 0x01), sload(0x03))\n        /* \"Ethereum/PresaleSettings.sol\":1214:1329  function getEthAddress() external view returns (address payable) {\r... */\n      jump(tag_15)\n        /* \"Ethereum/PresaleSettings.sol\":987:1086  function getTokenFee() external view returns (uint256) {\r... */\n    tag_7:\n        /* \"Ethereum/PresaleSettings.sol\":1060:1078  SETTINGS.TOKEN_FEE */\n      sload(0x02)\n        /* \"Ethereum/PresaleSettings.sol\":987:1086  function getTokenFee() external view returns (uint256) {\r... */\n      jump(tag_23)\n        /* \"Utils/Ownable.sol\":1714:1817  function renounceOwnership() public virtual onlyOwner {\r... */\n    tag_8:\n      tag_19\n      tag_34\n      jump\t// in\n        /* \"Utils/Ownable.sol\":1063:1150  function owner() public view virtual returns (address) {\r... */\n    tag_9:\n        /* \"Utils/Ownable.sol\":1109:1116  address */\n      0x00\n        /* \"Utils/Ownable.sol\":1136:1142  _owner */\n      sload\n      sub(shl(0xa0, 0x01), 0x01)\n      and\n        /* \"Utils/Ownable.sol\":1063:1150  function owner() public view virtual returns (address) {\r... */\n      jump(tag_15)\n        /* \"Ethereum/PresaleSettings.sol\":553:577  Settings public SETTINGS */\n    tag_10:\n      sload(0x01)\n      sload(0x02)\n      sload(0x03)\n      sload(0x04)\n      sload(0x05)\n      tag_39\n      swap5\n      swap4\n      swap3\n      sub(shl(0xa0, 0x01), 0x01)\n      swap1\n      dup2\n      and\n      swap3\n      and\n      swap1\n      dup6\n      jump\n    tag_39:\n      0x40\n      dup1\n      mload\n        /* \"#utility.yul\":2669:2694   */\n      swap6\n      dup7\n      mstore\n        /* \"#utility.yul\":2725:2727   */\n      0x20\n        /* \"#utility.yul\":2710:2728   */\n      dup7\n      add\n        /* \"#utility.yul\":2703:2737   */\n      swap5\n      swap1\n      swap5\n      mstore\n      sub(shl(0xa0, 0x01), 0x01)\n        /* \"#utility.yul\":2811:2826   */\n      swap3\n      dup4\n      and\n        /* \"#utility.yul\":2791:2809   */\n      swap4\n      dup6\n      add\n        /* \"#utility.yul\":2784:2827   */\n      swap4\n      swap1\n      swap4\n      mstore\n        /* \"#utility.yul\":2863:2878   */\n      and\n        /* \"#utility.yul\":2858:2860   */\n      0x60\n        /* \"#utility.yul\":2843:2861   */\n      dup4\n      add\n        /* \"#utility.yul\":2836:2879   */\n      mstore\n        /* \"#utility.yul\":2910:2913   */\n      0x80\n        /* \"#utility.yul\":2895:2914   */\n      dup3\n      add\n        /* \"#utility.yul\":2888:2923   */\n      mstore\n        /* \"#utility.yul\":2656:2659   */\n      0xa0\n        /* \"#utility.yul\":2641:2660   */\n      add\n        /* \"Ethereum/PresaleSettings.sol\":553:577  Settings public SETTINGS */\n      tag_17\n        /* \"#utility.yul\":2623:2929   */\n      jump\n        /* \"Ethereum/PresaleSettings.sol\":1717:1991  function setFees(\r... */\n    tag_11:\n      tag_19\n      tag_44\n      calldatasize\n      0x04\n      tag_45\n      jump\t// in\n    tag_44:\n      tag_46\n      jump\t// in\n        /* \"Ethereum/PresaleSettings.sol\":1094:1206  function getEthCreationFee() external view returns (uint256) {\r... */\n    tag_12:\n        /* \"Ethereum/PresaleSettings.sol\":1173:1198  SETTINGS.ETH_CREATION_FEE */\n      sload(0x05)\n        /* \"Ethereum/PresaleSettings.sol\":1094:1206  function getEthCreationFee() external view returns (uint256) {\r... */\n      jump(tag_23)\n        /* \"Utils/Ownable.sol\":1972:2173  function transferOwnership(address newOwner) public virtual onlyOwner {\r... */\n    tag_13:\n      tag_19\n      tag_51\n      calldatasize\n      0x04\n      tag_52\n      jump\t// in\n    tag_51:\n      tag_53\n      jump\t// in\n        /* \"Ethereum/PresaleSettings.sol\":1464:1709  function setFeeAddresses(\r... */\n    tag_22:\n        /* \"Utils/Ownable.sol\":1109:1116  address */\n      0x00\n        /* \"Utils/Ownable.sol\":1136:1142  _owner */\n      sload\n      sub(shl(0xa0, 0x01), 0x01)\n      and\n        /* \"Utils/Context.sol\":736:746  msg.sender */\n      caller\n        /* \"Utils/Ownable.sol\":1283:1306  owner() == _msgSender() */\n      eq\n        /* \"Utils/Ownable.sol\":1275:1343  require(owner() == _msgSender(), \"Ownable: caller is not the owner\") */\n      tag_59\n      jumpi\n      mload(0x40)\n      shl(0xe5, 0x461bcd)\n      dup2\n      mstore\n      0x04\n      add\n      tag_60\n      swap1\n      tag_61\n      jump\t// in\n    tag_60:\n      mload(0x40)\n      dup1\n      swap2\n      sub\n      swap1\n      revert\n    tag_59:\n        /* \"Ethereum/PresaleSettings.sol\":1607:1631  SETTINGS.ETH_FEE_ADDRESS */\n      0x03\n        /* \"Ethereum/PresaleSettings.sol\":1607:1645  SETTINGS.ETH_FEE_ADDRESS = _ethAddress */\n      dup1\n      sload\n      sub(shl(0xa0, 0x01), 0x01)\n      swap4\n      dup5\n      and\n      not(sub(shl(0xa0, 0x01), 0x01))\n      swap2\n      dup3\n      and\n      or\n      swap1\n      swap2\n      sstore\n        /* \"Ethereum/PresaleSettings.sol\":1656:1682  SETTINGS.TOKEN_FEE_ADDRESS */\n      0x04\n        /* \"Ethereum/PresaleSettings.sol\":1656:1701  SETTINGS.TOKEN_FEE_ADDRESS = _tokenFeeAddress */\n      dup1\n      sload\n      swap3\n      swap1\n      swap4\n      and\n      swap2\n      and\n      or\n      swap1\n      sstore\n        /* \"Ethereum/PresaleSettings.sol\":1464:1709  function setFeeAddresses(\r... */\n      jump\t// out\n        /* \"Utils/Ownable.sol\":1714:1817  function renounceOwnership() public virtual onlyOwner {\r... */\n    tag_34:\n        /* \"Utils/Ownable.sol\":1109:1116  address */\n      0x00\n        /* \"Utils/Ownable.sol\":1136:1142  _owner */\n      sload\n      sub(shl(0xa0, 0x01), 0x01)\n      and\n        /* \"Utils/Context.sol\":736:746  msg.sender */\n      caller\n        /* \"Utils/Ownable.sol\":1283:1306  owner() == _msgSender() */\n      eq\n        /* \"Utils/Ownable.sol\":1275:1343  require(owner() == _msgSender(), \"Ownable: caller is not the owner\") */\n      tag_69\n      jumpi\n      mload(0x40)\n      shl(0xe5, 0x461bcd)\n      dup2\n      mstore\n      0x04\n      add\n      tag_60\n      swap1\n      tag_61\n      jump\t// in\n    tag_69:\n        /* \"Utils/Ownable.sol\":1779:1809  _transferOwnership(address(0)) */\n      tag_72\n        /* \"Utils/Ownable.sol\":1806:1807  0 */\n      0x00\n        /* \"Utils/Ownable.sol\":1779:1797  _transferOwnership */\n      tag_73\n        /* \"Utils/Ownable.sol\":1779:1809  _transferOwnership(address(0)) */\n      jump\t// in\n    tag_72:\n        /* \"Utils/Ownable.sol\":1714:1817  function renounceOwnership() public virtual onlyOwner {\r... */\n      jump\t// out\n        /* \"Ethereum/PresaleSettings.sol\":1717:1991  function setFees(\r... */\n    tag_46:\n        /* \"Utils/Ownable.sol\":1109:1116  address */\n      0x00\n        /* \"Utils/Ownable.sol\":1136:1142  _owner */\n      sload\n      sub(shl(0xa0, 0x01), 0x01)\n      and\n        /* \"Utils/Context.sol\":736:746  msg.sender */\n      caller\n        /* \"Utils/Ownable.sol\":1283:1306  owner() == _msgSender() */\n      eq\n        /* \"Utils/Ownable.sol\":1275:1343  require(owner() == _msgSender(), \"Ownable: caller is not the owner\") */\n      tag_78\n      jumpi\n      mload(0x40)\n      shl(0xe5, 0x461bcd)\n      dup2\n      mstore\n      0x04\n      add\n      tag_60\n      swap1\n      tag_61\n      jump\t// in\n    tag_78:\n        /* \"Ethereum/PresaleSettings.sol\":1860:1868  SETTINGS */\n      0x01\n        /* \"Ethereum/PresaleSettings.sol\":1860:1888  SETTINGS.BASE_FEE = _baseFee */\n      swap3\n      swap1\n      swap3\n      sstore\n        /* \"Ethereum/PresaleSettings.sol\":1899:1917  SETTINGS.TOKEN_FEE */\n      0x02\n        /* \"Ethereum/PresaleSettings.sol\":1899:1929  SETTINGS.TOKEN_FEE = _tokenFee */\n      sstore\n        /* \"Ethereum/PresaleSettings.sol\":1940:1965  SETTINGS.ETH_CREATION_FEE */\n      0x05\n        /* \"Ethereum/PresaleSettings.sol\":1940:1983  SETTINGS.ETH_CREATION_FEE = _ethCreationFee */\n      sstore\n        /* \"Ethereum/PresaleSettings.sol\":1717:1991  function setFees(\r... */\n      jump\t// out\n        /* \"Utils/Ownable.sol\":1972:2173  function transferOwnership(address newOwner) public virtual onlyOwner {\r... */\n    tag_53:\n        /* \"Utils/Ownable.sol\":1109:1116  address */\n      0x00\n        /* \"Utils/Ownable.sol\":1136:1142  _owner */\n      sload\n      sub(shl(0xa0, 0x01), 0x01)\n      and\n        /* \"Utils/Context.sol\":736:746  msg.sender */\n      caller\n        /* \"Utils/Ownable.sol\":1283:1306  owner() == _msgSender() */\n      eq\n        /* \"Utils/Ownable.sol\":1275:1343  require(owner() == _msgSender(), \"Ownable: caller is not the owner\") */\n      tag_85\n      jumpi\n      mload(0x40)\n      shl(0xe5, 0x461bcd)\n      dup2\n      mstore\n      0x04\n      add\n      tag_60\n      swap1\n      tag_61\n      jump\t// in\n    tag_85:\n      sub(shl(0xa0, 0x01), 0x01)\n        /* \"Utils/Ownable.sol\":2061:2083  newOwner != address(0) */\n      dup2\n      and\n        /* \"Utils/Ownable.sol\":2053:2126  require(newOwner != address(0), \"Ownable: new owner is the zero address\") */\n      tag_88\n      jumpi\n      mload(0x40)\n      shl(0xe5, 0x461bcd)\n      dup2\n      mstore\n        /* \"#utility.yul\":1630:1632   */\n      0x20\n        /* \"Utils/Ownable.sol\":2053:2126  require(newOwner != address(0), \"Ownable: new owner is the zero address\") */\n      0x04\n      dup3\n      add\n        /* \"#utility.yul\":1612:1633   */\n      mstore\n        /* \"#utility.yul\":1669:1671   */\n      0x26\n        /* \"#utility.yul\":1649:1667   */\n      0x24\n      dup3\n      add\n        /* \"#utility.yul\":1642:1672   */\n      mstore\n        /* \"#utility.yul\":1708:1742   */\n      0x4f776e61626c653a206e6577206f776e657220697320746865207a65726f2061\n        /* \"#utility.yul\":1688:1706   */\n      0x44\n      dup3\n      add\n        /* \"#utility.yul\":1681:1743   */\n      mstore\n      shl(0xd0, 0x646472657373)\n        /* \"#utility.yul\":1759:1777   */\n      0x64\n      dup3\n      add\n        /* \"#utility.yul\":1752:1788   */\n      mstore\n        /* \"#utility.yul\":1805:1824   */\n      0x84\n      add\n        /* \"Utils/Ownable.sol\":2053:2126  require(newOwner != address(0), \"Ownable: new owner is the zero address\") */\n      tag_60\n        /* \"#utility.yul\":1602:1830   */\n      jump\n        /* \"Utils/Ownable.sol\":2053:2126  require(newOwner != address(0), \"Ownable: new owner is the zero address\") */\n    tag_88:\n        /* \"Utils/Ownable.sol\":2137:2165  _transferOwnership(newOwner) */\n      tag_91\n        /* \"Utils/Ownable.sol\":2156:2164  newOwner */\n      dup2\n        /* \"Utils/Ownable.sol\":2137:2155  _transferOwnership */\n      tag_73\n        /* \"Utils/Ownable.sol\":2137:2165  _transferOwnership(newOwner) */\n      jump\t// in\n    tag_91:\n        /* \"Utils/Ownable.sol\":1972:2173  function transferOwnership(address newOwner) public virtual onlyOwner {\r... */\n      pop\n      jump\t// out\n        /* \"Utils/Ownable.sol\":2333:2524  function _transferOwnership(address newOwner) internal virtual {\r... */\n    tag_73:\n        /* \"Utils/Ownable.sol\":2407:2423  address oldOwner */\n      0x00\n        /* \"Utils/Ownable.sol\":2426:2432  _owner */\n      dup1\n      sload\n      sub(shl(0xa0, 0x01), 0x01)\n        /* \"Utils/Ownable.sol\":2443:2460  _owner = newOwner */\n      dup4\n      dup2\n      and\n      not(sub(shl(0xa0, 0x01), 0x01))\n      dup4\n      and\n      dup2\n      or\n      dup5\n      sstore\n        /* \"Utils/Ownable.sol\":2476:2516  OwnershipTransferred(oldOwner, newOwner) */\n      mload(0x40)\n        /* \"Utils/Ownable.sol\":2426:2432  _owner */\n      swap2\n      swap1\n      swap3\n      and\n      swap3\n      dup4\n      swap2\n        /* \"Utils/Ownable.sol\":2476:2516  OwnershipTransferred(oldOwner, newOwner) */\n      0x8be0079c531659141344cd1fd0a4f28419497f9722a3daafe3b4186f6b6457e0\n      swap2\n        /* \"Utils/Ownable.sol\":2407:2423  address oldOwner */\n      swap1\n        /* \"Utils/Ownable.sol\":2476:2516  OwnershipTransferred(oldOwner, newOwner) */\n      log3\n        /* \"Utils/Ownable.sol\":2396:2524  {\r... */\n      pop\n        /* \"Utils/Ownable.sol\":2333:2524  function _transferOwnership(address newOwner) internal virtual {\r... */\n      pop\n      jump\t// out\n        /* \"#utility.yul\":14:261   */\n    tag_52:\n        /* \"#utility.yul\":73:79   */\n      0x00\n        /* \"#utility.yul\":126:128   */\n      0x20\n        /* \"#utility.yul\":114:123   */\n      dup3\n        /* \"#utility.yul\":105:112   */\n      dup5\n        /* \"#utility.yul\":101:124   */\n      sub\n        /* \"#utility.yul\":97:129   */\n      slt\n        /* \"#utility.yul\":94:96   */\n      iszero\n      tag_96\n      jumpi\n        /* \"#utility.yul\":142:143   */\n      0x00\n        /* \"#utility.yul\":139:140   */\n      dup1\n        /* \"#utility.yul\":132:144   */\n      revert\n        /* \"#utility.yul\":94:96   */\n    tag_96:\n        /* \"#utility.yul\":181:190   */\n      dup2\n        /* \"#utility.yul\":168:191   */\n      calldataload\n        /* \"#utility.yul\":200:231   */\n      tag_97\n        /* \"#utility.yul\":225:230   */\n      dup2\n        /* \"#utility.yul\":200:231   */\n      tag_98\n      jump\t// in\n    tag_97:\n        /* \"#utility.yul\":250:255   */\n      swap4\n        /* \"#utility.yul\":84:261   */\n      swap3\n      pop\n      pop\n      pop\n      jump\t// out\n        /* \"#utility.yul\":266:670   */\n    tag_21:\n        /* \"#utility.yul\":350:356   */\n      0x00\n        /* \"#utility.yul\":358:364   */\n      dup1\n        /* \"#utility.yul\":411:413   */\n      0x40\n        /* \"#utility.yul\":399:408   */\n      dup4\n        /* \"#utility.yul\":390:397   */\n      dup6\n        /* \"#utility.yul\":386:409   */\n      sub\n        /* \"#utility.yul\":382:414   */\n      slt\n        /* \"#utility.yul\":379:381   */\n      iszero\n      tag_100\n      jumpi\n        /* \"#utility.yul\":427:428   */\n      0x00\n        /* \"#utility.yul\":424:425   */\n      dup1\n        /* \"#utility.yul\":417:429   */\n      revert\n        /* \"#utility.yul\":379:381   */\n    tag_100:\n        /* \"#utility.yul\":466:475   */\n      dup3\n        /* \"#utility.yul\":453:476   */\n      calldataload\n        /* \"#utility.yul\":485:516   */\n      tag_101\n        /* \"#utility.yul\":510:515   */\n      dup2\n        /* \"#utility.yul\":485:516   */\n      tag_98\n      jump\t// in\n    tag_101:\n        /* \"#utility.yul\":535:540   */\n      swap2\n      pop\n        /* \"#utility.yul\":592:594   */\n      0x20\n        /* \"#utility.yul\":577:595   */\n      dup4\n      add\n        /* \"#utility.yul\":564:596   */\n      calldataload\n        /* \"#utility.yul\":605:638   */\n      tag_102\n        /* \"#utility.yul\":564:596   */\n      dup2\n        /* \"#utility.yul\":605:638   */\n      tag_98\n      jump\t// in\n    tag_102:\n        /* \"#utility.yul\":657:664   */\n      dup1\n        /* \"#utility.yul\":647:664   */\n      swap2\n      pop\n      pop\n        /* \"#utility.yul\":369:670   */\n      swap3\n      pop\n      swap3\n      swap1\n      pop\n      jump\t// out\n        /* \"#utility.yul\":675:991   */\n    tag_45:\n        /* \"#utility.yul\":752:758   */\n      0x00\n        /* \"#utility.yul\":760:766   */\n      dup1\n        /* \"#utility.yul\":768:774   */\n      0x00\n        /* \"#utility.yul\":821:823   */\n      0x60\n        /* \"#utility.yul\":809:818   */\n      dup5\n        /* \"#utility.yul\":800:807   */\n      dup7\n        /* \"#utility.yul\":796:819   */\n      sub\n        /* \"#utility.yul\":792:824   */\n      slt\n        /* \"#utility.yul\":789:791   */\n      iszero\n      tag_104\n      jumpi\n        /* \"#utility.yul\":837:838   */\n      0x00\n        /* \"#utility.yul\":834:835   */\n      dup1\n        /* \"#utility.yul\":827:839   */\n      revert\n        /* \"#utility.yul\":789:791   */\n    tag_104:\n      pop\n      pop\n        /* \"#utility.yul\":860:883   */\n      dup2\n      calldataload\n      swap4\n        /* \"#utility.yul\":930:932   */\n      0x20\n        /* \"#utility.yul\":915:933   */\n      dup4\n      add\n        /* \"#utility.yul\":902:934   */\n      calldataload\n      swap4\n      pop\n        /* \"#utility.yul\":981:983   */\n      0x40\n        /* \"#utility.yul\":966:984   */\n      swap1\n      swap3\n      add\n        /* \"#utility.yul\":953:985   */\n      calldataload\n      swap2\n        /* \"#utility.yul\":779:991   */\n      swap1\n      pop\n      jump\t// out\n        /* \"#utility.yul\":1835:2191   */\n    tag_61:\n        /* \"#utility.yul\":2037:2039   */\n      0x20\n        /* \"#utility.yul\":2019:2040   */\n      dup1\n      dup3\n      mstore\n        /* \"#utility.yul\":2056:2074   */\n      dup2\n      dup2\n      add\n        /* \"#utility.yul\":2049:2079   */\n      mstore\n        /* \"#utility.yul\":2115:2149   */\n      0x4f776e61626c653a2063616c6c6572206973206e6f7420746865206f776e6572\n        /* \"#utility.yul\":2110:2112   */\n      0x40\n        /* \"#utility.yul\":2095:2113   */\n      dup3\n      add\n        /* \"#utility.yul\":2088:2150   */\n      mstore\n        /* \"#utility.yul\":2182:2184   */\n      0x60\n        /* \"#utility.yul\":2167:2185   */\n      add\n      swap1\n        /* \"#utility.yul\":2009:2191   */\n      jump\t// out\n        /* \"#utility.yul\":2934:3065   */\n    tag_98:\n      sub(shl(0xa0, 0x01), 0x01)\n        /* \"#utility.yul\":3009:3040   */\n      dup2\n      and\n        /* \"#utility.yul\":2999:3041   */\n      dup2\n      eq\n        /* \"#utility.yul\":2989:2991   */\n      tag_91\n      jumpi\n        /* \"#utility.yul\":3055:3056   */\n      0x00\n        /* \"#utility.yul\":3052:3053   */\n      dup1\n        /* \"#utility.yul\":3045:3057   */\n      revert\n\n    auxdata: 0xa2646970667358221220f60669e70be6688732a9a7df085ee8f0a6aec8c33b073809981393632e4408a364736f6c63430008050033\n}\n",
				"bytecode": {
					"linkReferences": {},
					"object": "608060405234801561001057600080fd5b5061001a33610057565b603260015560006002556706f05b59d3b2000060055560038054336001600160a01b031991821681179092556004805490911690911790556100a7565b600080546001600160a01b038381166001600160a01b0319831681178455604051919092169283917f8be0079c531659141344cd1fd0a4f28419497f9722a3daafe3b4186f6b6457e09190a35050565b61047c806100b66000396000f3fe608060405234801561001057600080fd5b50600436106100a95760003560e01c8063715018a611610071578063715018a6146101185780638da5cb5b14610120578063ade97ab514610131578063cec10c111461018b578063e38ef7a31461019e578063f2fde38b146101a657600080fd5b806310fe9ae8146100ae57806311c84120146100d857806315e812ad146100ed57806324785172146100ff5780633554685014610110575b600080fd5b6004546001600160a01b03165b6040516001600160a01b0390911681526020015b60405180910390f35b6100eb6100e6366004610397565b6101b9565b005b6001545b6040519081526020016100cf565b6003546001600160a01b03166100bb565b6002546100f1565b6100eb61021a565b6000546001600160a01b03166100bb565b6001546002546003546004546005546101579493926001600160a01b0390811692169085565b6040805195865260208601949094526001600160a01b0392831693850193909352166060830152608082015260a0016100cf565b6100eb6101993660046103d0565b610250565b6005546100f1565b6100eb6101b4366004610373565b610288565b6000546001600160a01b031633146101ec5760405162461bcd60e51b81526004016101e3906103fc565b60405180910390fd5b600380546001600160a01b039384166001600160a01b03199182161790915560048054929093169116179055565b6000546001600160a01b031633146102445760405162461bcd60e51b81526004016101e3906103fc565b61024e6000610323565b565b6000546001600160a01b0316331461027a5760405162461bcd60e51b81526004016101e3906103fc565b600192909255600255600555565b6000546001600160a01b031633146102b25760405162461bcd60e51b81526004016101e3906103fc565b6001600160a01b0381166103175760405162461bcd60e51b815260206004820152602660248201527f4f776e61626c653a206e6577206f776e657220697320746865207a65726f206160448201526564647265737360d01b60648201526084016101e3565b61032081610323565b50565b600080546001600160a01b038381166001600160a01b0319831681178455604051919092169283917f8be0079c531659141344cd1fd0a4f28419497f9722a3daafe3b4186f6b6457e09190a35050565b60006020828403121561038557600080fd5b813561039081610431565b9392505050565b600080604083850312156103aa57600080fd5b82356103b581610431565b915060208301356103c581610431565b809150509250929050565b6000806000606084860312156103e557600080fd5b505081359360208301359350604090920135919050565b6020808252818101527f4f776e61626c653a2063616c6c6572206973206e6f7420746865206f776e6572604082015260600190565b6001600160a01b038116811461032057600080fdfea2646970667358221220f60669e70be6688732a9a7df085ee8f0a6aec8c33b073809981393632e4408a364736f6c63430008050033",
					"opcodes": "PUSH1 0x80 PUSH1 0x40 MSTORE CALLVALUE DUP1 ISZERO PUSH2 0x10 JUMPI PUSH1 0x0 DUP1 REVERT JUMPDEST POP PUSH2 0x1A CALLER PUSH2 0x57 JUMP JUMPDEST PUSH1 0x32 PUSH1 0x1 SSTORE PUSH1 0x0 PUSH1 0x2 SSTORE PUSH8 0x6F05B59D3B20000 PUSH1 0x5 SSTORE PUSH1 0x3 DUP1 SLOAD CALLER PUSH1 0x1 PUSH1 0x1 PUSH1 0xA0 SHL SUB NOT SWAP2 DUP3 AND DUP2 OR SWAP1 SWAP3 SSTORE PUSH1 0x4 DUP1 SLOAD SWAP1 SWAP2 AND SWAP1 SWAP2 OR SWAP1 SSTORE PUSH2 0xA7 JUMP JUMPDEST PUSH1 0x0 DUP1 SLOAD PUSH1 0x1 PUSH1 0x1 PUSH1 0xA0 SHL SUB DUP4 DUP2 AND PUSH1 0x1 PUSH1 0x1 PUSH1 0xA0 SHL SUB NOT DUP4 AND DUP2 OR DUP5 SSTORE PUSH1 0x40 MLOAD SWAP2 SWAP1 SWAP3 AND SWAP3 DUP4 SWAP2 PUSH32 0x8BE0079C531659141344CD1FD0A4F28419497F9722A3DAAFE3B4186F6B6457E0 SWAP2 SWAP1 LOG3 POP POP JUMP JUMPDEST PUSH2 0x47C DUP1 PUSH2 0xB6 PUSH1 0x0 CODECOPY PUSH1 0x0 RETURN INVALID PUSH1 0x80 PUSH1 0x40 MSTORE CALLVALUE DUP1 ISZERO PUSH2 0x10 JUMPI PUSH1 0x0 DUP1 REVERT JUMPDEST POP PUSH1 0x4 CALLDATASIZE LT PUSH2 0xA9 JUMPI PUSH1 0x0 CALLDATALOAD PUSH1 0xE0 SHR DUP1 PUSH4 0x715018A6 GT PUSH2 0x71 JUMPI DUP1 PUSH4 0x715018A6 EQ PUSH2 0x118 JUMPI DUP1 PUSH4 0x8DA5CB5B EQ PUSH2 0x120 JUMPI DUP1 PUSH4 0xADE97AB5 EQ PUSH2 0x131 JUMPI DUP1 PUSH4 0xCEC10C11 EQ PUSH2 0x18B JUMPI DUP1 PUSH4 0xE38EF7A3 EQ PUSH2 0x19E JUMPI DUP1 PUSH4 0xF2FDE38B EQ PUSH2 0x1A6 JUMPI PUSH1 0x0 DUP1 REVERT JUMPDEST DUP1 PUSH4 0x10FE9AE8 EQ PUSH2 0xAE JUMPI DUP1 PUSH4 0x11C84120 EQ PUSH2 0xD8 JUMPI DUP1 PUSH4 0x15E812AD EQ PUSH2 0xED JUMPI DUP1 PUSH4 0x24785172 EQ PUSH2 0xFF JUMPI DUP1 PUSH4 0x35546850 EQ PUSH2 0x110 JUMPI JUMPDEST PUSH1 0x0 DUP1 REVERT JUMPDEST PUSH1 0x4 SLOAD PUSH1 0x1 PUSH1 0x1 PUSH1 0xA0 SHL SUB AND JUMPDEST PUSH1 0x40 MLOAD PUSH1 0x1 PUSH1 0x1 PUSH1 0xA0 SHL SUB SWAP1 SWAP2 AND DUP2 MSTORE PUSH1 0x20 ADD JUMPDEST PUSH1 0x40 MLOAD DUP1 SWAP2 SUB SWAP1 RETURN JUMPDEST PUSH2 0xEB PUSH2 0xE6 CALLDATASIZE PUSH1 0x4 PUSH2 0x397 JUMP JUMPDEST PUSH2 0x1B9 JUMP JUMPDEST STOP JUMPDEST PUSH1 0x1 SLOAD JUMPDEST PUSH1 0x40 MLOAD SWAP1 DUP2 MSTORE PUSH1 0x20 ADD PUSH2 0xCF JUMP JUMPDEST PUSH1 0x3 SLOAD PUSH1 0x1 PUSH1 0x1 PUSH1 0xA0 SHL SUB AND PUSH2 0xBB JUMP JUMPDEST PUSH1 0x2 SLOAD PUSH2 0xF1 JUMP JUMPDEST PUSH2 0xEB PUSH2 0x21A JUMP JUMPDEST PUSH1 0x0 SLOAD PUSH1 0x1 PUSH1 0x1 PUSH1 0xA0 SHL SUB AND PUSH2 0xBB JUMP JUMPDEST PUSH1 0x1 SLOAD PUSH1 0x2 SLOAD PUSH1 0x3 SLOAD PUSH1 0x4 SLOAD PUSH1 0x5 SLOAD PUSH2 0x157 SWAP5 SWAP4 SWAP3 PUSH1 0x1 PUSH1 0x1 PUSH1 0xA0 SHL SUB SWAP1 DUP2 AND SWAP3 AND SWAP1 DUP6 JUMP JUMPDEST PUSH1 0x40 DUP1 MLOAD SWAP6 DUP7 MSTORE PUSH1 0x20 DUP7 ADD SWAP5 SWAP1 SWAP5 MSTORE PUSH1 0x1 PUSH1 0x1 PUSH1 0xA0 SHL SUB SWAP3 DUP4 AND SWAP4 DUP6 ADD SWAP4 SWAP1 SWAP4 MSTORE AND PUSH1 0x60 DUP4 ADD MSTORE PUSH1 0x80 DUP3 ADD MSTORE PUSH1 0xA0 ADD PUSH2 0xCF JUMP JUMPDEST PUSH2 0xEB PUSH2 0x199 CALLDATASIZE PUSH1 0x4 PUSH2 0x3D0 JUMP JUMPDEST PUSH2 0x250 JUMP JUMPDEST PUSH1 0x5 SLOAD PUSH2 0xF1 JUMP JUMPDEST PUSH2 0xEB PUSH2 0x1B4 CALLDATASIZE PUSH1 0x4 PUSH2 0x373 JUMP JUMPDEST PUSH2 0x288 JUMP JUMPDEST PUSH1 0x0 SLOAD PUSH1 0x1 PUSH1 0x1 PUSH1 0xA0 SHL SUB AND CALLER EQ PUSH2 0x1EC JUMPI PUSH1 0x40 MLOAD PUSH3 0x461BCD PUSH1 0xE5 SHL DUP2 MSTORE PUSH1 0x4 ADD PUSH2 0x1E3 SWAP1 PUSH2 0x3FC JUMP JUMPDEST PUSH1 0x40 MLOAD DUP1 SWAP2 SUB SWAP1 REVERT JUMPDEST PUSH1 0x3 DUP1 SLOAD PUSH1 0x1 PUSH1 0x1 PUSH1 0xA0 SHL SUB SWAP4 DUP5 AND PUSH1 0x1 PUSH1 0x1 PUSH1 0xA0 SHL SUB NOT SWAP2 DUP3 AND OR SWAP1 SWAP2 SSTORE PUSH1 0x4 DUP1 SLOAD SWAP3 SWAP1 SWAP4 AND SWAP2 AND OR SWAP1 SSTORE JUMP JUMPDEST PUSH1 0x0 SLOAD PUSH1 0x1 PUSH1 0x1 PUSH1 0xA0 SHL SUB AND CALLER EQ PUSH2 0x244 JUMPI PUSH1 0x40 MLOAD PUSH3 0x461BCD PUSH1 0xE5 SHL DUP2 MSTORE PUSH1 0x4 ADD PUSH2 0x1E3 SWAP1 PUSH2 0x3FC JUMP JUMPDEST PUSH2 0x24E PUSH1 0x0 PUSH2 0x323 JUMP JUMPDEST JUMP JUMPDEST PUSH1 0x0 SLOAD PUSH1 0x1 PUSH1 0x1 PUSH1 0xA0 SHL SUB AND CALLER EQ PUSH2 0x27A JUMPI PUSH1 0x40 MLOAD PUSH3 0x461BCD PUSH1 0xE5 SHL DUP2 MSTORE PUSH1 0x4 ADD PUSH2 0x1E3 SWAP1 PUSH2 0x3FC JUMP JUMPDEST PUSH1 0x1 SWAP3 SWAP1 SWAP3 SSTORE PUSH1 0x2 SSTORE PUSH1 0x5 SSTORE JUMP JUMPDEST PUSH1 0x0 SLOAD PUSH1 0x1 PUSH1 0x1 PUSH1 0xA0 SHL SUB AND CALLER EQ PUSH2 0x2B2 JUMPI PUSH1 0x40 MLOAD PUSH3 0x461BCD PUSH1 0xE5 SHL DUP2 MSTORE PUSH1 0x4 ADD PUSH2 0x1E3 SWAP1 PUSH2 0x3FC JUMP JUMPDEST PUSH1 0x1 PUSH1 0x1 PUSH1 0xA0 SHL SUB DUP2 AND PUSH2 0x317 JUMPI PUSH1 0x40 MLOAD PUSH3 0x461BCD PUSH1 0xE5 SHL DUP2 MSTORE PUSH1 0x20 PUSH1 0x4 DUP3 ADD MSTORE PUSH1 0x26 PUSH1 0x24 DUP3 ADD MSTORE PUSH32 0x4F776E61626C653A206E6577206F776E657220697320746865207A65726F2061 PUSH1 0x44 DUP3 ADD MSTORE PUSH6 0x646472657373 PUSH1 0xD0 SHL PUSH1 0x64 DUP3 ADD MSTORE PUSH1 0x84 ADD PUSH2 0x1E3 JUMP JUMPDEST PUSH2 0x320 DUP2 PUSH2 0x323 JUMP JUMPDEST POP JUMP JUMPDEST PUSH1 0x0 DUP1 SLOAD PUSH1 0x1 PUSH1 0x1 PUSH1 0xA0 SHL SUB DUP4 DUP2 AND PUSH1 0x1 PUSH1 0x1 PUSH1 0xA0 SHL SUB NOT DUP4 AND DUP2 OR DUP5 SSTORE PUSH1 0x40 MLOAD SWAP2 SWAP1 SWAP3 AND SWAP3 DUP4 SWAP2 PUSH32 0x8BE0079C531659141344CD1FD0A4F28419497F9722A3DAAFE3B4186F6B6457E0 SWAP2 SWAP1 LOG3 POP POP JUMP JUMPDEST PUSH1 0x0 PUSH1 0x20 DUP3 DUP5 SUB SLT ISZERO PUSH2 0x385 JUMPI PUSH1 0x0 DUP1 REVERT JUMPDEST DUP2 CALLDATALOAD PUSH2 0x390 DUP2 PUSH2 0x431 JUMP JUMPDEST SWAP4 SWAP3 POP POP POP JUMP JUMPDEST PUSH1 0x0 DUP1 PUSH1 0x40 DUP4 DUP6 SUB SLT ISZERO PUSH2 0x3AA JUMPI PUSH1 0x0 DUP1 REVERT JUMPDEST DUP3 CALLDATALOAD PUSH2 0x3B5 DUP2 PUSH2 0x431 JUMP JUMPDEST SWAP2 POP PUSH1 0x20 DUP4 ADD CALLDATALOAD PUSH2 0x3C5 DUP2 PUSH2 0x431 JUMP JUMPDEST DUP1 SWAP2 POP POP SWAP3 POP SWAP3 SWAP1 POP JUMP JUMPDEST PUSH1 0x0 DUP1 PUSH1 0x0 PUSH1 0x60 DUP5 DUP7 SUB SLT ISZERO PUSH2 0x3E5 JUMPI PUSH1 0x0 DUP1 REVERT JUMPDEST POP POP DUP2 CALLDATALOAD SWAP4 PUSH1 0x20 DUP4 ADD CALLDATALOAD SWAP4 POP PUSH1 0x40 SWAP1 SWAP3 ADD CALLDATALOAD SWAP2 SWAP1 POP JUMP JUMPDEST PUSH1 0x20 DUP1 DUP3 MSTORE DUP2 DUP2 ADD MSTORE PUSH32 0x4F776E61626C653A2063616C6C6572206973206E6F7420746865206F776E6572 PUSH1 0x40 DUP3 ADD MSTORE PUSH1 0x60 ADD SWAP1 JUMP JUMPDEST PUSH1 0x1 PUSH1 0x1 PUSH1 0xA0 SHL SUB DUP2 AND DUP2 EQ PUSH2 0x320 JUMPI PUSH1 0x0 DUP1 REVERT INVALID LOG2 PUSH5 0x6970667358 0x22 SLT KECCAK256 0xF6 MOD PUSH10 0xE70BE6688732A9A7DF08 0x5E 0xE8 CREATE 0xA6 0xAE 0xC8 0xC3 EXTCODESIZE SMOD CODESIZE MULMOD SWAP9 SGT SWAP4 PUSH4 0x2E4408A3 PUSH5 0x736F6C6343 STOP ADDMOD SDIV STOP CALLER "
				},
				"gasEstimates": {
					"creation": {
						"codeDepositCost": "229600",
						"executionCost": "123802",
						"totalCost": "353402"
					},
					"external": {
						"SETTINGS()": "10901",
						"getBaseFee()": "2326",
						"getEthAddress()": "2387",
						"getEthCreationFee()": "2380",
						"getTokenAddress()": "2310",
						"getTokenFee()": "2381",
						"owner()": "2342",
						"renounceOwnership()": "28114",
						"setFeeAddresses(address,address)": "infinite",
						"setFees(uint256,uint256,uint256)": "68791",
						"transferOwnership(address)": "infinite"
					}
				},
				"methodIdentifiers": {
					"SETTINGS()": "ade97ab5",
					"getBaseFee()": "15e812ad",
					"getEthAddress()": "24785172",
					"getEthCreationFee()": "e38ef7a3",
					"getTokenAddress()": "10fe9ae8",
					"getTokenFee()": "35546850",
					"owner()": "8da5cb5b",
					"renounceOwnership()": "715018a6",
					"setFeeAddresses(address,address)": "11c84120",
					"setFees(uint256,uint256,uint256)": "cec10c11",
					"transferOwnership(address)": "f2fde38b"
				}
			},
			"storageLayout": {
				"storage": [
					{
						"astId": 792,
						"contract": "Ethereum/PresaleSettings.sol:PresaleSettings",
						"label": "_owner",
						"offset": 0,
						"slot": "0",
						"type": "t_address"
					},
					{
						"astId": 23,
						"contract": "Ethereum/PresaleSettings.sol:PresaleSettings",
						"label": "SETTINGS",
						"offset": 0,
						"slot": "1",
						"type": "t_struct(Settings)20_storage"
					}
				],
				"types": {
					"t_address": {
						"encoding": "inplace",
						"label": "address",
						"numberOfBytes": "20"
					},
					"t_address_payable": {
						"encoding": "inplace",
						"label": "address payable",
						"numberOfBytes": "20"
					},
					"t_struct(Settings)20_storage": {
						"encoding": "inplace",
						"label": "struct PresaleSettings.Settings",
						"members": [
							{
								"astId": 11,
								"contract": "Ethereum/PresaleSettings.sol:PresaleSettings",
								"label": "BASE_FEE",
								"offset": 0,
								"slot": "0",
								"type": "t_uint256"
							},
							{
								"astId": 13,
								"contract": "Ethereum/PresaleSettings.sol:PresaleSettings",
								"label": "TOKEN_FEE",
								"offset": 0,
								"slot": "1",
								"type": "t_uint256"
							},
							{
								"astId": 15,
								"contract": "Ethereum/PresaleSettings.sol:PresaleSettings",
								"label": "ETH_FEE_ADDRESS",
								"offset": 0,
								"slot": "2",
								"type": "t_address_payable"
							},
							{
								"astId": 17,
								"contract": "Ethereum/PresaleSettings.sol:PresaleSettings",
								"label": "TOKEN_FEE_ADDRESS",
								"offset": 0,
								"slot": "3",
								"type": "t_address_payable"
							},
							{
								"astId": 19,
								"contract": "Ethereum/PresaleSettings.sol:PresaleSettings",
								"label": "ETH_CREATION_FEE",
								"offset": 0,
								"slot": "4",
								"type": "t_uint256"
							}
						],
						"numberOfBytes": "160"
					},
					"t_uint256": {
						"encoding": "inplace",
						"label": "uint256",
						"numberOfBytes": "32"
					}
				}
			},
			"userdoc": {
				"kind": "user",
				"methods": {},
				"version": 1
			}
		}
	}
}