{
	"Ethereum/Presale.sol": {
		"Presale": {
			"abi": [
				{
					"inputs": [
						{
							"internalType": "address",
							"name": "token",
							"type": "address"
						},
						{
							"internalType": "address",
							"name": "from",
							"type": "address"
						},
						{
							"internalType": "address",
							"name": "to",
							"type": "address"
						},
						{
							"internalType": "uint256",
							"name": "value",
							"type": "uint256"
						}
					],
					"name": "depodit",
					"outputs": [],
					"stateMutability": "payable",
					"type": "function"
				},
				{
					"inputs": [
						{
							"internalType": "uint256",
							"name": "amount",
							"type": "uint256"
						}
					],
					"name": "transferETH",
					"outputs": [],
					"stateMutability": "payable",
					"type": "function"
				}
			],
			"devdoc": {
				"kind": "dev",
				"methods": {},
				"version": 1
			},
			"evm": {
				"assembly": "    /* \"Ethereum/Presale.sol\":232:3254  contract Presale is ReentrancyGuard{\r... */\n  mstore(0x40, 0x80)\n  callvalue\n  dup1\n  iszero\n  tag_1\n  jumpi\n  0x00\n  dup1\n  revert\ntag_1:\n  pop\n    /* \"Utils/ReentrancyGuard.sol\":1734:1735  1 */\n  0x01\n    /* \"Utils/ReentrancyGuard.sol\":1845:1852  _status */\n  0x00\n    /* \"Utils/ReentrancyGuard.sol\":1845:1867  _status = _NOT_ENTERED */\n  dup2\n  swap1\n  sstore\n  pop\n    /* \"Ethereum/Presale.sol\":232:3254  contract Presale is ReentrancyGuard{\r... */\n  dataSize(sub_0)\n  dup1\n  dataOffset(sub_0)\n  0x00\n  codecopy\n  0x00\n  return\nstop\n\nsub_0: assembly {\n        /* \"Ethereum/Presale.sol\":232:3254  contract Presale is ReentrancyGuard{\r... */\n      mstore(0x40, 0x80)\n      jumpi(tag_1, lt(calldatasize, 0x04))\n      shr(0xe0, calldataload(0x00))\n      dup1\n      0x4329db46\n      eq\n      tag_2\n      jumpi\n      dup1\n      0xd0387e37\n      eq\n      tag_3\n      jumpi\n    tag_1:\n      0x00\n      dup1\n      revert\n        /* \"Ethereum/Presale.sol\":3128:3249  function transferETH(uint256 amount) external payable {\r... */\n    tag_2:\n      tag_4\n      0x04\n      dup1\n      calldatasize\n      sub\n      dup2\n      add\n      swap1\n      tag_5\n      swap2\n      swap1\n      tag_6\n      jump\t// in\n    tag_5:\n      tag_7\n      jump\t// in\n    tag_4:\n      stop\n        /* \"Ethereum/Presale.sol\":2583:2809  function depodit(\r... */\n    tag_3:\n      tag_8\n      0x04\n      dup1\n      calldatasize\n      sub\n      dup2\n      add\n      swap1\n      tag_9\n      swap2\n      swap1\n      tag_10\n      jump\t// in\n    tag_9:\n      tag_11\n      jump\t// in\n    tag_8:\n      stop\n        /* \"Ethereum/Presale.sol\":3128:3249  function transferETH(uint256 amount) external payable {\r... */\n    tag_7:\n        /* \"Ethereum/Presale.sol\":3201:3211  msg.sender */\n      caller\n        /* \"Ethereum/Presale.sol\":3193:3221  payable(msg.sender).transfer */\n      0xffffffffffffffffffffffffffffffffffffffff\n      and\n        /* \"Ethereum/Presale.sol\":3193:3241  payable(msg.sender).transfer(msg.value - amount) */\n      0x08fc\n        /* \"Ethereum/Presale.sol\":3234:3240  amount */\n      dup3\n        /* \"Ethereum/Presale.sol\":3222:3231  msg.value */\n      callvalue\n        /* \"Ethereum/Presale.sol\":3222:3240  msg.value - amount */\n      tag_13\n      swap2\n      swap1\n      tag_14\n      jump\t// in\n    tag_13:\n        /* \"Ethereum/Presale.sol\":3193:3241  payable(msg.sender).transfer(msg.value - amount) */\n      swap1\n      dup2\n      iszero\n      mul\n      swap1\n      mload(0x40)\n      0x00\n      mload(0x40)\n      dup1\n      dup4\n      sub\n      dup2\n      dup6\n      dup9\n      dup9\n      call\n      swap4\n      pop\n      pop\n      pop\n      pop\n      iszero\n      dup1\n      iszero\n      tag_16\n      jumpi\n      returndatasize\n      0x00\n      dup1\n      returndatacopy\n      revert(0x00, returndatasize)\n    tag_16:\n      pop\n        /* \"Ethereum/Presale.sol\":3128:3249  function transferETH(uint256 amount) external payable {\r... */\n      pop\n      jump\t// out\n        /* \"Ethereum/Presale.sol\":2583:2809  function depodit(\r... */\n    tag_11:\n        /* \"Utils/ReentrancyGuard.sol\":1778:1779  2 */\n      0x02\n        /* \"Utils/ReentrancyGuard.sol\":2376:2383  _status */\n      sload(0x00)\n        /* \"Utils/ReentrancyGuard.sol\":2376:2395  _status != _ENTERED */\n      eq\n      iszero\n        /* \"Utils/ReentrancyGuard.sol\":2368:2431  require(_status != _ENTERED, \"ReentrancyGuard: reentrant call\") */\n      tag_18\n      jumpi\n      mload(0x40)\n      0x08c379a000000000000000000000000000000000000000000000000000000000\n      dup2\n      mstore\n      0x04\n      add\n      tag_19\n      swap1\n      tag_20\n      jump\t// in\n    tag_19:\n      mload(0x40)\n      dup1\n      swap2\n      sub\n      swap1\n      revert\n    tag_18:\n        /* \"Utils/ReentrancyGuard.sol\":1778:1779  2 */\n      0x02\n        /* \"Utils/ReentrancyGuard.sol\":2509:2516  _status */\n      0x00\n        /* \"Utils/ReentrancyGuard.sol\":2509:2527  _status = _ENTERED */\n      dup2\n      swap1\n      sstore\n      pop\n        /* \"Ethereum/Presale.sol\":2746:2801  TransferHelper.safeTransferFrom(token, from, to, value) */\n      tag_22\n        /* \"Ethereum/Presale.sol\":2778:2783  token */\n      dup5\n        /* \"Ethereum/Presale.sol\":2785:2789  from */\n      dup5\n        /* \"Ethereum/Presale.sol\":2791:2793  to */\n      dup5\n        /* \"Ethereum/Presale.sol\":2795:2800  value */\n      dup5\n        /* \"Ethereum/Presale.sol\":2746:2777  TransferHelper.safeTransferFrom */\n      tag_23\n        /* \"Ethereum/Presale.sol\":2746:2801  TransferHelper.safeTransferFrom(token, from, to, value) */\n      jump\t// in\n    tag_22:\n        /* \"Utils/ReentrancyGuard.sol\":1734:1735  1 */\n      0x01\n        /* \"Utils/ReentrancyGuard.sol\":2688:2695  _status */\n      0x00\n        /* \"Utils/ReentrancyGuard.sol\":2688:2710  _status = _NOT_ENTERED */\n      dup2\n      swap1\n      sstore\n      pop\n        /* \"Ethereum/Presale.sol\":2583:2809  function depodit(\r... */\n      pop\n      pop\n      pop\n      pop\n      jump\t// out\n        /* \"Utils/TransferHelper.sol\":1152:1650  function safeTransferFrom(\r... */\n    tag_23:\n        /* \"Utils/TransferHelper.sol\":1377:1389  bool success */\n      0x00\n        /* \"Utils/TransferHelper.sol\":1391:1408  bytes memory data */\n      dup1\n        /* \"Utils/TransferHelper.sol\":1412:1417  token */\n      dup6\n        /* \"Utils/TransferHelper.sol\":1412:1422  token.call */\n      0xffffffffffffffffffffffffffffffffffffffff\n      and\n        /* \"Utils/TransferHelper.sol\":1446:1456  0x23b872dd */\n      0x23b872dd\n        /* \"Utils/TransferHelper.sol\":1458:1462  from */\n      dup7\n        /* \"Utils/TransferHelper.sol\":1464:1466  to */\n      dup7\n        /* \"Utils/TransferHelper.sol\":1468:1473  value */\n      dup7\n        /* \"Utils/TransferHelper.sol\":1423:1474  abi.encodeWithSelector(0x23b872dd, from, to, value) */\n      add(0x24, mload(0x40))\n      tag_25\n      swap4\n      swap3\n      swap2\n      swap1\n      tag_26\n      jump\t// in\n    tag_25:\n      mload(0x40)\n      0x20\n      dup2\n      dup4\n      sub\n      sub\n      dup2\n      mstore\n      swap1\n      0x40\n      mstore\n      swap1\n      0xe0\n      shl\n      0x20\n      dup3\n      add\n      dup1\n      mload\n      0xffffffffffffffffffffffffffffffffffffffffffffffffffffffff\n      dup4\n      dup2\n      dup4\n      and\n      or\n      dup4\n      mstore\n      pop\n      pop\n      pop\n      pop\n        /* \"Utils/TransferHelper.sol\":1412:1475  token.call(abi.encodeWithSelector(0x23b872dd, from, to, value)) */\n      mload(0x40)\n      tag_27\n      swap2\n      swap1\n      tag_28\n      jump\t// in\n    tag_27:\n      0x00\n      mload(0x40)\n      dup1\n      dup4\n      sub\n      dup2\n      0x00\n      dup7\n      gas\n      call\n      swap2\n      pop\n      pop\n      returndatasize\n      dup1\n      0x00\n      dup2\n      eq\n      tag_31\n      jumpi\n      mload(0x40)\n      swap2\n      pop\n      and(add(returndatasize, 0x3f), not(0x1f))\n      dup3\n      add\n      0x40\n      mstore\n      returndatasize\n      dup3\n      mstore\n      returndatasize\n      0x00\n      0x20\n      dup5\n      add\n      returndatacopy\n      jump(tag_30)\n    tag_31:\n      0x60\n      swap2\n      pop\n    tag_30:\n      pop\n        /* \"Utils/TransferHelper.sol\":1376:1475  (bool success, bytes memory data) = token.call(abi.encodeWithSelector(0x23b872dd, from, to, value)) */\n      swap2\n      pop\n      swap2\n      pop\n        /* \"Utils/TransferHelper.sol\":1508:1515  success */\n      dup2\n        /* \"Utils/TransferHelper.sol\":1508:1565  success && (data.length == 0 || abi.decode(data, (bool))) */\n      dup1\n      iszero\n      tag_32\n      jumpi\n      pop\n        /* \"Utils/TransferHelper.sol\":1535:1536  0 */\n      0x00\n        /* \"Utils/TransferHelper.sol\":1520:1524  data */\n      dup2\n        /* \"Utils/TransferHelper.sol\":1520:1531  data.length */\n      mload\n        /* \"Utils/TransferHelper.sol\":1520:1536  data.length == 0 */\n      eq\n        /* \"Utils/TransferHelper.sol\":1520:1564  data.length == 0 || abi.decode(data, (bool)) */\n      dup1\n      tag_33\n      jumpi\n      pop\n        /* \"Utils/TransferHelper.sol\":1551:1555  data */\n      dup1\n        /* \"Utils/TransferHelper.sol\":1540:1564  abi.decode(data, (bool)) */\n      dup1\n      0x20\n      add\n      swap1\n      mload\n      dup2\n      add\n      swap1\n      tag_34\n      swap2\n      swap1\n      tag_35\n      jump\t// in\n    tag_34:\n        /* \"Utils/TransferHelper.sol\":1520:1564  data.length == 0 || abi.decode(data, (bool)) */\n    tag_33:\n        /* \"Utils/TransferHelper.sol\":1508:1565  success && (data.length == 0 || abi.decode(data, (bool))) */\n    tag_32:\n        /* \"Utils/TransferHelper.sol\":1486:1642  require(\r... */\n      tag_36\n      jumpi\n      mload(0x40)\n      0x08c379a000000000000000000000000000000000000000000000000000000000\n      dup2\n      mstore\n      0x04\n      add\n      tag_37\n      swap1\n      tag_38\n      jump\t// in\n    tag_37:\n      mload(0x40)\n      dup1\n      swap2\n      sub\n      swap1\n      revert\n    tag_36:\n        /* \"Utils/TransferHelper.sol\":1152:1650  function safeTransferFrom(\r... */\n      pop\n      pop\n      pop\n      pop\n      pop\n      pop\n      jump\t// out\n        /* \"#utility.yul\":7:146   */\n    tag_40:\n        /* \"#utility.yul\":53:58   */\n      0x00\n        /* \"#utility.yul\":91:97   */\n      dup2\n        /* \"#utility.yul\":78:98   */\n      calldataload\n        /* \"#utility.yul\":69:98   */\n      swap1\n      pop\n        /* \"#utility.yul\":107:140   */\n      tag_42\n        /* \"#utility.yul\":134:139   */\n      dup2\n        /* \"#utility.yul\":107:140   */\n      tag_43\n      jump\t// in\n    tag_42:\n        /* \"#utility.yul\":59:146   */\n      swap3\n      swap2\n      pop\n      pop\n      jump\t// out\n        /* \"#utility.yul\":152:289   */\n    tag_44:\n        /* \"#utility.yul\":206:211   */\n      0x00\n        /* \"#utility.yul\":237:243   */\n      dup2\n        /* \"#utility.yul\":231:244   */\n      mload\n        /* \"#utility.yul\":222:244   */\n      swap1\n      pop\n        /* \"#utility.yul\":253:283   */\n      tag_46\n        /* \"#utility.yul\":277:282   */\n      dup2\n        /* \"#utility.yul\":253:283   */\n      tag_47\n      jump\t// in\n    tag_46:\n        /* \"#utility.yul\":212:289   */\n      swap3\n      swap2\n      pop\n      pop\n      jump\t// out\n        /* \"#utility.yul\":295:434   */\n    tag_48:\n        /* \"#utility.yul\":341:346   */\n      0x00\n        /* \"#utility.yul\":379:385   */\n      dup2\n        /* \"#utility.yul\":366:386   */\n      calldataload\n        /* \"#utility.yul\":357:386   */\n      swap1\n      pop\n        /* \"#utility.yul\":395:428   */\n      tag_50\n        /* \"#utility.yul\":422:427   */\n      dup2\n        /* \"#utility.yul\":395:428   */\n      tag_51\n      jump\t// in\n    tag_50:\n        /* \"#utility.yul\":347:434   */\n      swap3\n      swap2\n      pop\n      pop\n      jump\t// out\n        /* \"#utility.yul\":440:1138   */\n    tag_10:\n        /* \"#utility.yul\":526:532   */\n      0x00\n        /* \"#utility.yul\":534:540   */\n      dup1\n        /* \"#utility.yul\":542:548   */\n      0x00\n        /* \"#utility.yul\":550:556   */\n      dup1\n        /* \"#utility.yul\":599:602   */\n      0x80\n        /* \"#utility.yul\":587:596   */\n      dup6\n        /* \"#utility.yul\":578:585   */\n      dup8\n        /* \"#utility.yul\":574:597   */\n      sub\n        /* \"#utility.yul\":570:603   */\n      slt\n        /* \"#utility.yul\":567:569   */\n      iszero\n      tag_53\n      jumpi\n        /* \"#utility.yul\":616:617   */\n      0x00\n        /* \"#utility.yul\":613:614   */\n      dup1\n        /* \"#utility.yul\":606:618   */\n      revert\n        /* \"#utility.yul\":567:569   */\n    tag_53:\n        /* \"#utility.yul\":659:660   */\n      0x00\n        /* \"#utility.yul\":684:737   */\n      tag_54\n        /* \"#utility.yul\":729:736   */\n      dup8\n        /* \"#utility.yul\":720:726   */\n      dup3\n        /* \"#utility.yul\":709:718   */\n      dup9\n        /* \"#utility.yul\":705:727   */\n      add\n        /* \"#utility.yul\":684:737   */\n      tag_40\n      jump\t// in\n    tag_54:\n        /* \"#utility.yul\":674:737   */\n      swap5\n      pop\n        /* \"#utility.yul\":630:747   */\n      pop\n        /* \"#utility.yul\":786:788   */\n      0x20\n        /* \"#utility.yul\":812:865   */\n      tag_55\n        /* \"#utility.yul\":857:864   */\n      dup8\n        /* \"#utility.yul\":848:854   */\n      dup3\n        /* \"#utility.yul\":837:846   */\n      dup9\n        /* \"#utility.yul\":833:855   */\n      add\n        /* \"#utility.yul\":812:865   */\n      tag_40\n      jump\t// in\n    tag_55:\n        /* \"#utility.yul\":802:865   */\n      swap4\n      pop\n        /* \"#utility.yul\":757:875   */\n      pop\n        /* \"#utility.yul\":914:916   */\n      0x40\n        /* \"#utility.yul\":940:993   */\n      tag_56\n        /* \"#utility.yul\":985:992   */\n      dup8\n        /* \"#utility.yul\":976:982   */\n      dup3\n        /* \"#utility.yul\":965:974   */\n      dup9\n        /* \"#utility.yul\":961:983   */\n      add\n        /* \"#utility.yul\":940:993   */\n      tag_40\n      jump\t// in\n    tag_56:\n        /* \"#utility.yul\":930:993   */\n      swap3\n      pop\n        /* \"#utility.yul\":885:1003   */\n      pop\n        /* \"#utility.yul\":1042:1044   */\n      0x60\n        /* \"#utility.yul\":1068:1121   */\n      tag_57\n        /* \"#utility.yul\":1113:1120   */\n      dup8\n        /* \"#utility.yul\":1104:1110   */\n      dup3\n        /* \"#utility.yul\":1093:1102   */\n      dup9\n        /* \"#utility.yul\":1089:1111   */\n      add\n        /* \"#utility.yul\":1068:1121   */\n      tag_48\n      jump\t// in\n    tag_57:\n        /* \"#utility.yul\":1058:1121   */\n      swap2\n      pop\n        /* \"#utility.yul\":1013:1131   */\n      pop\n        /* \"#utility.yul\":557:1138   */\n      swap3\n      swap6\n      swap2\n      swap5\n      pop\n      swap3\n      pop\n      jump\t// out\n        /* \"#utility.yul\":1144:1422   */\n    tag_35:\n        /* \"#utility.yul\":1211:1217   */\n      0x00\n        /* \"#utility.yul\":1260:1262   */\n      0x20\n        /* \"#utility.yul\":1248:1257   */\n      dup3\n        /* \"#utility.yul\":1239:1246   */\n      dup5\n        /* \"#utility.yul\":1235:1258   */\n      sub\n        /* \"#utility.yul\":1231:1263   */\n      slt\n        /* \"#utility.yul\":1228:1230   */\n      iszero\n      tag_59\n      jumpi\n        /* \"#utility.yul\":1276:1277   */\n      0x00\n        /* \"#utility.yul\":1273:1274   */\n      dup1\n        /* \"#utility.yul\":1266:1278   */\n      revert\n        /* \"#utility.yul\":1228:1230   */\n    tag_59:\n        /* \"#utility.yul\":1319:1320   */\n      0x00\n        /* \"#utility.yul\":1344:1405   */\n      tag_60\n        /* \"#utility.yul\":1397:1404   */\n      dup5\n        /* \"#utility.yul\":1388:1394   */\n      dup3\n        /* \"#utility.yul\":1377:1386   */\n      dup6\n        /* \"#utility.yul\":1373:1395   */\n      add\n        /* \"#utility.yul\":1344:1405   */\n      tag_44\n      jump\t// in\n    tag_60:\n        /* \"#utility.yul\":1334:1405   */\n      swap2\n      pop\n        /* \"#utility.yul\":1290:1415   */\n      pop\n        /* \"#utility.yul\":1218:1422   */\n      swap3\n      swap2\n      pop\n      pop\n      jump\t// out\n        /* \"#utility.yul\":1428:1690   */\n    tag_6:\n        /* \"#utility.yul\":1487:1493   */\n      0x00\n        /* \"#utility.yul\":1536:1538   */\n      0x20\n        /* \"#utility.yul\":1524:1533   */\n      dup3\n        /* \"#utility.yul\":1515:1522   */\n      dup5\n        /* \"#utility.yul\":1511:1534   */\n      sub\n        /* \"#utility.yul\":1507:1539   */\n      slt\n        /* \"#utility.yul\":1504:1506   */\n      iszero\n      tag_62\n      jumpi\n        /* \"#utility.yul\":1552:1553   */\n      0x00\n        /* \"#utility.yul\":1549:1550   */\n      dup1\n        /* \"#utility.yul\":1542:1554   */\n      revert\n        /* \"#utility.yul\":1504:1506   */\n    tag_62:\n        /* \"#utility.yul\":1595:1596   */\n      0x00\n        /* \"#utility.yul\":1620:1673   */\n      tag_63\n        /* \"#utility.yul\":1665:1672   */\n      dup5\n        /* \"#utility.yul\":1656:1662   */\n      dup3\n        /* \"#utility.yul\":1645:1654   */\n      dup6\n        /* \"#utility.yul\":1641:1663   */\n      add\n        /* \"#utility.yul\":1620:1673   */\n      tag_48\n      jump\t// in\n    tag_63:\n        /* \"#utility.yul\":1610:1673   */\n      swap2\n      pop\n        /* \"#utility.yul\":1566:1683   */\n      pop\n        /* \"#utility.yul\":1494:1690   */\n      swap3\n      swap2\n      pop\n      pop\n      jump\t// out\n        /* \"#utility.yul\":1696:1814   */\n    tag_64:\n        /* \"#utility.yul\":1783:1807   */\n      tag_66\n        /* \"#utility.yul\":1801:1806   */\n      dup2\n        /* \"#utility.yul\":1783:1807   */\n      tag_67\n      jump\t// in\n    tag_66:\n        /* \"#utility.yul\":1778:1781   */\n      dup3\n        /* \"#utility.yul\":1771:1808   */\n      mstore\n        /* \"#utility.yul\":1761:1814   */\n      pop\n      pop\n      jump\t// out\n        /* \"#utility.yul\":1820:2193   */\n    tag_68:\n        /* \"#utility.yul\":1924:1927   */\n      0x00\n        /* \"#utility.yul\":1952:1990   */\n      tag_70\n        /* \"#utility.yul\":1984:1989   */\n      dup3\n        /* \"#utility.yul\":1952:1990   */\n      tag_71\n      jump\t// in\n    tag_70:\n        /* \"#utility.yul\":2006:2094   */\n      tag_72\n        /* \"#utility.yul\":2087:2093   */\n      dup2\n        /* \"#utility.yul\":2082:2085   */\n      dup6\n        /* \"#utility.yul\":2006:2094   */\n      tag_73\n      jump\t// in\n    tag_72:\n        /* \"#utility.yul\":1999:2094   */\n      swap4\n      pop\n        /* \"#utility.yul\":2103:2155   */\n      tag_74\n        /* \"#utility.yul\":2148:2154   */\n      dup2\n        /* \"#utility.yul\":2143:2146   */\n      dup6\n        /* \"#utility.yul\":2136:2140   */\n      0x20\n        /* \"#utility.yul\":2129:2134   */\n      dup7\n        /* \"#utility.yul\":2125:2141   */\n      add\n        /* \"#utility.yul\":2103:2155   */\n      tag_75\n      jump\t// in\n    tag_74:\n        /* \"#utility.yul\":2180:2186   */\n      dup1\n        /* \"#utility.yul\":2175:2178   */\n      dup5\n        /* \"#utility.yul\":2171:2187   */\n      add\n        /* \"#utility.yul\":2164:2187   */\n      swap2\n      pop\n        /* \"#utility.yul\":1928:2193   */\n      pop\n      swap3\n      swap2\n      pop\n      pop\n      jump\t// out\n        /* \"#utility.yul\":2199:2565   */\n    tag_76:\n        /* \"#utility.yul\":2341:2344   */\n      0x00\n        /* \"#utility.yul\":2362:2429   */\n      tag_78\n        /* \"#utility.yul\":2426:2428   */\n      0x31\n        /* \"#utility.yul\":2421:2424   */\n      dup4\n        /* \"#utility.yul\":2362:2429   */\n      tag_79\n      jump\t// in\n    tag_78:\n        /* \"#utility.yul\":2355:2429   */\n      swap2\n      pop\n        /* \"#utility.yul\":2438:2531   */\n      tag_80\n        /* \"#utility.yul\":2527:2530   */\n      dup3\n        /* \"#utility.yul\":2438:2531   */\n      tag_81\n      jump\t// in\n    tag_80:\n        /* \"#utility.yul\":2556:2558   */\n      0x40\n        /* \"#utility.yul\":2551:2554   */\n      dup3\n        /* \"#utility.yul\":2547:2559   */\n      add\n        /* \"#utility.yul\":2540:2559   */\n      swap1\n      pop\n        /* \"#utility.yul\":2345:2565   */\n      swap2\n      swap1\n      pop\n      jump\t// out\n        /* \"#utility.yul\":2571:2937   */\n    tag_82:\n        /* \"#utility.yul\":2713:2716   */\n      0x00\n        /* \"#utility.yul\":2734:2801   */\n      tag_84\n        /* \"#utility.yul\":2798:2800   */\n      0x1f\n        /* \"#utility.yul\":2793:2796   */\n      dup4\n        /* \"#utility.yul\":2734:2801   */\n      tag_79\n      jump\t// in\n    tag_84:\n        /* \"#utility.yul\":2727:2801   */\n      swap2\n      pop\n        /* \"#utility.yul\":2810:2903   */\n      tag_85\n        /* \"#utility.yul\":2899:2902   */\n      dup3\n        /* \"#utility.yul\":2810:2903   */\n      tag_86\n      jump\t// in\n    tag_85:\n        /* \"#utility.yul\":2928:2930   */\n      0x20\n        /* \"#utility.yul\":2923:2926   */\n      dup3\n        /* \"#utility.yul\":2919:2931   */\n      add\n        /* \"#utility.yul\":2912:2931   */\n      swap1\n      pop\n        /* \"#utility.yul\":2717:2937   */\n      swap2\n      swap1\n      pop\n      jump\t// out\n        /* \"#utility.yul\":2943:3061   */\n    tag_87:\n        /* \"#utility.yul\":3030:3054   */\n      tag_89\n        /* \"#utility.yul\":3048:3053   */\n      dup2\n        /* \"#utility.yul\":3030:3054   */\n      tag_90\n      jump\t// in\n    tag_89:\n        /* \"#utility.yul\":3025:3028   */\n      dup3\n        /* \"#utility.yul\":3018:3055   */\n      mstore\n        /* \"#utility.yul\":3008:3061   */\n      pop\n      pop\n      jump\t// out\n        /* \"#utility.yul\":3067:3338   */\n    tag_28:\n        /* \"#utility.yul\":3197:3200   */\n      0x00\n        /* \"#utility.yul\":3219:3312   */\n      tag_92\n        /* \"#utility.yul\":3308:3311   */\n      dup3\n        /* \"#utility.yul\":3299:3305   */\n      dup5\n        /* \"#utility.yul\":3219:3312   */\n      tag_68\n      jump\t// in\n    tag_92:\n        /* \"#utility.yul\":3212:3312   */\n      swap2\n      pop\n        /* \"#utility.yul\":3329:3332   */\n      dup2\n        /* \"#utility.yul\":3322:3332   */\n      swap1\n      pop\n        /* \"#utility.yul\":3201:3338   */\n      swap3\n      swap2\n      pop\n      pop\n      jump\t// out\n        /* \"#utility.yul\":3344:3786   */\n    tag_26:\n        /* \"#utility.yul\":3493:3497   */\n      0x00\n        /* \"#utility.yul\":3531:3533   */\n      0x60\n        /* \"#utility.yul\":3520:3529   */\n      dup3\n        /* \"#utility.yul\":3516:3534   */\n      add\n        /* \"#utility.yul\":3508:3534   */\n      swap1\n      pop\n        /* \"#utility.yul\":3544:3615   */\n      tag_94\n        /* \"#utility.yul\":3612:3613   */\n      0x00\n        /* \"#utility.yul\":3601:3610   */\n      dup4\n        /* \"#utility.yul\":3597:3614   */\n      add\n        /* \"#utility.yul\":3588:3594   */\n      dup7\n        /* \"#utility.yul\":3544:3615   */\n      tag_64\n      jump\t// in\n    tag_94:\n        /* \"#utility.yul\":3625:3697   */\n      tag_95\n        /* \"#utility.yul\":3693:3695   */\n      0x20\n        /* \"#utility.yul\":3682:3691   */\n      dup4\n        /* \"#utility.yul\":3678:3696   */\n      add\n        /* \"#utility.yul\":3669:3675   */\n      dup6\n        /* \"#utility.yul\":3625:3697   */\n      tag_64\n      jump\t// in\n    tag_95:\n        /* \"#utility.yul\":3707:3779   */\n      tag_96\n        /* \"#utility.yul\":3775:3777   */\n      0x40\n        /* \"#utility.yul\":3764:3773   */\n      dup4\n        /* \"#utility.yul\":3760:3778   */\n      add\n        /* \"#utility.yul\":3751:3757   */\n      dup5\n        /* \"#utility.yul\":3707:3779   */\n      tag_87\n      jump\t// in\n    tag_96:\n        /* \"#utility.yul\":3498:3786   */\n      swap5\n      swap4\n      pop\n      pop\n      pop\n      pop\n      jump\t// out\n        /* \"#utility.yul\":3792:4211   */\n    tag_38:\n        /* \"#utility.yul\":3958:3962   */\n      0x00\n        /* \"#utility.yul\":3996:3998   */\n      0x20\n        /* \"#utility.yul\":3985:3994   */\n      dup3\n        /* \"#utility.yul\":3981:3999   */\n      add\n        /* \"#utility.yul\":3973:3999   */\n      swap1\n      pop\n        /* \"#utility.yul\":4045:4054   */\n      dup2\n        /* \"#utility.yul\":4039:4043   */\n      dup2\n        /* \"#utility.yul\":4035:4055   */\n      sub\n        /* \"#utility.yul\":4031:4032   */\n      0x00\n        /* \"#utility.yul\":4020:4029   */\n      dup4\n        /* \"#utility.yul\":4016:4033   */\n      add\n        /* \"#utility.yul\":4009:4056   */\n      mstore\n        /* \"#utility.yul\":4073:4204   */\n      tag_98\n        /* \"#utility.yul\":4199:4203   */\n      dup2\n        /* \"#utility.yul\":4073:4204   */\n      tag_76\n      jump\t// in\n    tag_98:\n        /* \"#utility.yul\":4065:4204   */\n      swap1\n      pop\n        /* \"#utility.yul\":3963:4211   */\n      swap2\n      swap1\n      pop\n      jump\t// out\n        /* \"#utility.yul\":4217:4636   */\n    tag_20:\n        /* \"#utility.yul\":4383:4387   */\n      0x00\n        /* \"#utility.yul\":4421:4423   */\n      0x20\n        /* \"#utility.yul\":4410:4419   */\n      dup3\n        /* \"#utility.yul\":4406:4424   */\n      add\n        /* \"#utility.yul\":4398:4424   */\n      swap1\n      pop\n        /* \"#utility.yul\":4470:4479   */\n      dup2\n        /* \"#utility.yul\":4464:4468   */\n      dup2\n        /* \"#utility.yul\":4460:4480   */\n      sub\n        /* \"#utility.yul\":4456:4457   */\n      0x00\n        /* \"#utility.yul\":4445:4454   */\n      dup4\n        /* \"#utility.yul\":4441:4458   */\n      add\n        /* \"#utility.yul\":4434:4481   */\n      mstore\n        /* \"#utility.yul\":4498:4629   */\n      tag_100\n        /* \"#utility.yul\":4624:4628   */\n      dup2\n        /* \"#utility.yul\":4498:4629   */\n      tag_82\n      jump\t// in\n    tag_100:\n        /* \"#utility.yul\":4490:4629   */\n      swap1\n      pop\n        /* \"#utility.yul\":4388:4636   */\n      swap2\n      swap1\n      pop\n      jump\t// out\n        /* \"#utility.yul\":4642:4740   */\n    tag_71:\n        /* \"#utility.yul\":4693:4699   */\n      0x00\n        /* \"#utility.yul\":4727:4732   */\n      dup2\n        /* \"#utility.yul\":4721:4733   */\n      mload\n        /* \"#utility.yul\":4711:4733   */\n      swap1\n      pop\n        /* \"#utility.yul\":4700:4740   */\n      swap2\n      swap1\n      pop\n      jump\t// out\n        /* \"#utility.yul\":4746:4893   */\n    tag_73:\n        /* \"#utility.yul\":4847:4858   */\n      0x00\n        /* \"#utility.yul\":4884:4887   */\n      dup2\n        /* \"#utility.yul\":4869:4887   */\n      swap1\n      pop\n        /* \"#utility.yul\":4859:4893   */\n      swap3\n      swap2\n      pop\n      pop\n      jump\t// out\n        /* \"#utility.yul\":4899:5068   */\n    tag_79:\n        /* \"#utility.yul\":4983:4994   */\n      0x00\n        /* \"#utility.yul\":5017:5023   */\n      dup3\n        /* \"#utility.yul\":5012:5015   */\n      dup3\n        /* \"#utility.yul\":5005:5024   */\n      mstore\n        /* \"#utility.yul\":5057:5061   */\n      0x20\n        /* \"#utility.yul\":5052:5055   */\n      dup3\n        /* \"#utility.yul\":5048:5062   */\n      add\n        /* \"#utility.yul\":5033:5062   */\n      swap1\n      pop\n        /* \"#utility.yul\":4995:5068   */\n      swap3\n      swap2\n      pop\n      pop\n      jump\t// out\n        /* \"#utility.yul\":5074:5265   */\n    tag_14:\n        /* \"#utility.yul\":5114:5118   */\n      0x00\n        /* \"#utility.yul\":5134:5154   */\n      tag_105\n        /* \"#utility.yul\":5152:5153   */\n      dup3\n        /* \"#utility.yul\":5134:5154   */\n      tag_90\n      jump\t// in\n    tag_105:\n        /* \"#utility.yul\":5129:5154   */\n      swap2\n      pop\n        /* \"#utility.yul\":5168:5188   */\n      tag_106\n        /* \"#utility.yul\":5186:5187   */\n      dup4\n        /* \"#utility.yul\":5168:5188   */\n      tag_90\n      jump\t// in\n    tag_106:\n        /* \"#utility.yul\":5163:5188   */\n      swap3\n      pop\n        /* \"#utility.yul\":5207:5208   */\n      dup3\n        /* \"#utility.yul\":5204:5205   */\n      dup3\n        /* \"#utility.yul\":5201:5209   */\n      lt\n        /* \"#utility.yul\":5198:5200   */\n      iszero\n      tag_107\n      jumpi\n        /* \"#utility.yul\":5212:5230   */\n      tag_108\n      tag_109\n      jump\t// in\n    tag_108:\n        /* \"#utility.yul\":5198:5200   */\n    tag_107:\n        /* \"#utility.yul\":5257:5258   */\n      dup3\n        /* \"#utility.yul\":5254:5255   */\n      dup3\n        /* \"#utility.yul\":5250:5259   */\n      sub\n        /* \"#utility.yul\":5242:5259   */\n      swap1\n      pop\n        /* \"#utility.yul\":5119:5265   */\n      swap3\n      swap2\n      pop\n      pop\n      jump\t// out\n        /* \"#utility.yul\":5271:5367   */\n    tag_67:\n        /* \"#utility.yul\":5308:5315   */\n      0x00\n        /* \"#utility.yul\":5337:5361   */\n      tag_111\n        /* \"#utility.yul\":5355:5360   */\n      dup3\n        /* \"#utility.yul\":5337:5361   */\n      tag_112\n      jump\t// in\n    tag_111:\n        /* \"#utility.yul\":5326:5361   */\n      swap1\n      pop\n        /* \"#utility.yul\":5316:5367   */\n      swap2\n      swap1\n      pop\n      jump\t// out\n        /* \"#utility.yul\":5373:5463   */\n    tag_113:\n        /* \"#utility.yul\":5407:5414   */\n      0x00\n        /* \"#utility.yul\":5450:5455   */\n      dup2\n        /* \"#utility.yul\":5443:5456   */\n      iszero\n        /* \"#utility.yul\":5436:5457   */\n      iszero\n        /* \"#utility.yul\":5425:5457   */\n      swap1\n      pop\n        /* \"#utility.yul\":5415:5463   */\n      swap2\n      swap1\n      pop\n      jump\t// out\n        /* \"#utility.yul\":5469:5595   */\n    tag_112:\n        /* \"#utility.yul\":5506:5513   */\n      0x00\n        /* \"#utility.yul\":5546:5588   */\n      0xffffffffffffffffffffffffffffffffffffffff\n        /* \"#utility.yul\":5539:5544   */\n      dup3\n        /* \"#utility.yul\":5535:5589   */\n      and\n        /* \"#utility.yul\":5524:5589   */\n      swap1\n      pop\n        /* \"#utility.yul\":5514:5595   */\n      swap2\n      swap1\n      pop\n      jump\t// out\n        /* \"#utility.yul\":5601:5678   */\n    tag_90:\n        /* \"#utility.yul\":5638:5645   */\n      0x00\n        /* \"#utility.yul\":5667:5672   */\n      dup2\n        /* \"#utility.yul\":5656:5672   */\n      swap1\n      pop\n        /* \"#utility.yul\":5646:5678   */\n      swap2\n      swap1\n      pop\n      jump\t// out\n        /* \"#utility.yul\":5684:5991   */\n    tag_75:\n        /* \"#utility.yul\":5752:5753   */\n      0x00\n        /* \"#utility.yul\":5762:5875   */\n    tag_118:\n        /* \"#utility.yul\":5776:5782   */\n      dup4\n        /* \"#utility.yul\":5773:5774   */\n      dup2\n        /* \"#utility.yul\":5770:5783   */\n      lt\n        /* \"#utility.yul\":5762:5875   */\n      iszero\n      tag_120\n      jumpi\n        /* \"#utility.yul\":5861:5862   */\n      dup1\n        /* \"#utility.yul\":5856:5859   */\n      dup3\n        /* \"#utility.yul\":5852:5863   */\n      add\n        /* \"#utility.yul\":5846:5864   */\n      mload\n        /* \"#utility.yul\":5842:5843   */\n      dup2\n        /* \"#utility.yul\":5837:5840   */\n      dup5\n        /* \"#utility.yul\":5833:5844   */\n      add\n        /* \"#utility.yul\":5826:5865   */\n      mstore\n        /* \"#utility.yul\":5798:5800   */\n      0x20\n        /* \"#utility.yul\":5795:5796   */\n      dup2\n        /* \"#utility.yul\":5791:5801   */\n      add\n        /* \"#utility.yul\":5786:5801   */\n      swap1\n      pop\n        /* \"#utility.yul\":5762:5875   */\n      jump(tag_118)\n    tag_120:\n        /* \"#utility.yul\":5893:5899   */\n      dup4\n        /* \"#utility.yul\":5890:5891   */\n      dup2\n        /* \"#utility.yul\":5887:5900   */\n      gt\n        /* \"#utility.yul\":5884:5886   */\n      iszero\n      tag_121\n      jumpi\n        /* \"#utility.yul\":5973:5974   */\n      0x00\n        /* \"#utility.yul\":5964:5970   */\n      dup5\n        /* \"#utility.yul\":5959:5962   */\n      dup5\n        /* \"#utility.yul\":5955:5971   */\n      add\n        /* \"#utility.yul\":5948:5975   */\n      mstore\n        /* \"#utility.yul\":5884:5886   */\n    tag_121:\n        /* \"#utility.yul\":5733:5991   */\n      pop\n      pop\n      pop\n      pop\n      jump\t// out\n        /* \"#utility.yul\":5997:6177   */\n    tag_109:\n        /* \"#utility.yul\":6045:6122   */\n      0x4e487b7100000000000000000000000000000000000000000000000000000000\n        /* \"#utility.yul\":6042:6043   */\n      0x00\n        /* \"#utility.yul\":6035:6123   */\n      mstore\n        /* \"#utility.yul\":6142:6146   */\n      0x11\n        /* \"#utility.yul\":6139:6140   */\n      0x04\n        /* \"#utility.yul\":6132:6147   */\n      mstore\n        /* \"#utility.yul\":6166:6170   */\n      0x24\n        /* \"#utility.yul\":6163:6164   */\n      0x00\n        /* \"#utility.yul\":6156:6171   */\n      revert\n        /* \"#utility.yul\":6183:6419   */\n    tag_81:\n        /* \"#utility.yul\":6323:6357   */\n      0x5472616e7366657248656c7065723a3a7472616e7366657246726f6d3a207472\n        /* \"#utility.yul\":6319:6320   */\n      0x00\n        /* \"#utility.yul\":6311:6317   */\n      dup3\n        /* \"#utility.yul\":6307:6321   */\n      add\n        /* \"#utility.yul\":6300:6358   */\n      mstore\n        /* \"#utility.yul\":6392:6411   */\n      0x616e7366657246726f6d206661696c6564000000000000000000000000000000\n        /* \"#utility.yul\":6387:6389   */\n      0x20\n        /* \"#utility.yul\":6379:6385   */\n      dup3\n        /* \"#utility.yul\":6375:6390   */\n      add\n        /* \"#utility.yul\":6368:6412   */\n      mstore\n        /* \"#utility.yul\":6289:6419   */\n      pop\n      jump\t// out\n        /* \"#utility.yul\":6425:6606   */\n    tag_86:\n        /* \"#utility.yul\":6565:6598   */\n      0x5265656e7472616e637947756172643a207265656e7472616e742063616c6c00\n        /* \"#utility.yul\":6561:6562   */\n      0x00\n        /* \"#utility.yul\":6553:6559   */\n      dup3\n        /* \"#utility.yul\":6549:6563   */\n      add\n        /* \"#utility.yul\":6542:6599   */\n      mstore\n        /* \"#utility.yul\":6531:6606   */\n      pop\n      jump\t// out\n        /* \"#utility.yul\":6612:6734   */\n    tag_43:\n        /* \"#utility.yul\":6685:6709   */\n      tag_126\n        /* \"#utility.yul\":6703:6708   */\n      dup2\n        /* \"#utility.yul\":6685:6709   */\n      tag_67\n      jump\t// in\n    tag_126:\n        /* \"#utility.yul\":6678:6683   */\n      dup2\n        /* \"#utility.yul\":6675:6710   */\n      eq\n        /* \"#utility.yul\":6665:6667   */\n      tag_127\n      jumpi\n        /* \"#utility.yul\":6724:6725   */\n      0x00\n        /* \"#utility.yul\":6721:6722   */\n      dup1\n        /* \"#utility.yul\":6714:6726   */\n      revert\n        /* \"#utility.yul\":6665:6667   */\n    tag_127:\n        /* \"#utility.yul\":6655:6734   */\n      pop\n      jump\t// out\n        /* \"#utility.yul\":6740:6856   */\n    tag_47:\n        /* \"#utility.yul\":6810:6831   */\n      tag_129\n        /* \"#utility.yul\":6825:6830   */\n      dup2\n        /* \"#utility.yul\":6810:6831   */\n      tag_113\n      jump\t// in\n    tag_129:\n        /* \"#utility.yul\":6803:6808   */\n      dup2\n        /* \"#utility.yul\":6800:6832   */\n      eq\n        /* \"#utility.yul\":6790:6792   */\n      tag_130\n      jumpi\n        /* \"#utility.yul\":6846:6847   */\n      0x00\n        /* \"#utility.yul\":6843:6844   */\n      dup1\n        /* \"#utility.yul\":6836:6848   */\n      revert\n        /* \"#utility.yul\":6790:6792   */\n    tag_130:\n        /* \"#utility.yul\":6780:6856   */\n      pop\n      jump\t// out\n        /* \"#utility.yul\":6862:6984   */\n    tag_51:\n        /* \"#utility.yul\":6935:6959   */\n      tag_132\n        /* \"#utility.yul\":6953:6958   */\n      dup2\n        /* \"#utility.yul\":6935:6959   */\n      tag_90\n      jump\t// in\n    tag_132:\n        /* \"#utility.yul\":6928:6933   */\n      dup2\n        /* \"#utility.yul\":6925:6960   */\n      eq\n        /* \"#utility.yul\":6915:6917   */\n      tag_133\n      jumpi\n        /* \"#utility.yul\":6974:6975   */\n      0x00\n        /* \"#utility.yul\":6971:6972   */\n      dup1\n        /* \"#utility.yul\":6964:6976   */\n      revert\n        /* \"#utility.yul\":6915:6917   */\n    tag_133:\n        /* \"#utility.yul\":6905:6984   */\n      pop\n      jump\t// out\n\n    auxdata: 0xa2646970667358221220ed6113357ca6a6d40dfb2e3acf6846afebfe84f4e6dfbec63ff531deec7f1c1864736f6c63430008040033\n}\n",
				"bytecode": {
					"linkReferences": {},
					"object": "608060405234801561001057600080fd5b50600160008190555061066b806100286000396000f3fe6080604052600436106100295760003560e01c80634329db461461002e578063d0387e371461004a575b600080fd5b61004860048036038101906100439190610327565b610066565b005b610064600480360381019061005f919061029b565b6100bb565b005b3373ffffffffffffffffffffffffffffffffffffffff166108fc823461008c919061049a565b9081150290604051600060405180830381858888f193505050501580156100b7573d6000803e3d6000fd5b5050565b60026000541415610101576040517f08c379a00000000000000000000000000000000000000000000000000000000081526004016100f890610453565b60405180910390fd5b600260008190555061011584848484610123565b600160008190555050505050565b6000808573ffffffffffffffffffffffffffffffffffffffff166323b872dd868686604051602401610157939291906103fc565b6040516020818303038152906040529060e01b6020820180517bffffffffffffffffffffffffffffffffffffffffffffffffffffffff83818316178352505050506040516101a591906103e5565b6000604051808303816000865af19150503d80600081146101e2576040519150601f19603f3d011682016040523d82523d6000602084013e6101e7565b606091505b5091509150818015610215575060008151148061021457508080602001905181019061021391906102fe565b5b5b610254576040517f08c379a000000000000000000000000000000000000000000000000000000000815260040161024b90610433565b60405180910390fd5b505050505050565b60008135905061026b816105f0565b92915050565b60008151905061028081610607565b92915050565b6000813590506102958161061e565b92915050565b600080600080608085870312156102b157600080fd5b60006102bf8782880161025c565b94505060206102d08782880161025c565b93505060406102e18782880161025c565b92505060606102f287828801610286565b91505092959194509250565b60006020828403121561031057600080fd5b600061031e84828501610271565b91505092915050565b60006020828403121561033957600080fd5b600061034784828501610286565b91505092915050565b610359816104ce565b82525050565b600061036a82610473565b610374818561047e565b9350610384818560208601610516565b80840191505092915050565b600061039d603183610489565b91506103a882610578565b604082019050919050565b60006103c0601f83610489565b91506103cb826105c7565b602082019050919050565b6103df8161050c565b82525050565b60006103f1828461035f565b915081905092915050565b60006060820190506104116000830186610350565b61041e6020830185610350565b61042b60408301846103d6565b949350505050565b6000602082019050818103600083015261044c81610390565b9050919050565b6000602082019050818103600083015261046c816103b3565b9050919050565b600081519050919050565b600081905092915050565b600082825260208201905092915050565b60006104a58261050c565b91506104b08361050c565b9250828210156104c3576104c2610549565b5b828203905092915050565b60006104d9826104ec565b9050919050565b60008115159050919050565b600073ffffffffffffffffffffffffffffffffffffffff82169050919050565b6000819050919050565b60005b83811015610534578082015181840152602081019050610519565b83811115610543576000848401525b50505050565b7f4e487b7100000000000000000000000000000000000000000000000000000000600052601160045260246000fd5b7f5472616e7366657248656c7065723a3a7472616e7366657246726f6d3a20747260008201527f616e7366657246726f6d206661696c6564000000000000000000000000000000602082015250565b7f5265656e7472616e637947756172643a207265656e7472616e742063616c6c00600082015250565b6105f9816104ce565b811461060457600080fd5b50565b610610816104e0565b811461061b57600080fd5b50565b6106278161050c565b811461063257600080fd5b5056fea2646970667358221220ed6113357ca6a6d40dfb2e3acf6846afebfe84f4e6dfbec63ff531deec7f1c1864736f6c63430008040033",
					"opcodes": "PUSH1 0x80 PUSH1 0x40 MSTORE CALLVALUE DUP1 ISZERO PUSH2 0x10 JUMPI PUSH1 0x0 DUP1 REVERT JUMPDEST POP PUSH1 0x1 PUSH1 0x0 DUP2 SWAP1 SSTORE POP PUSH2 0x66B DUP1 PUSH2 0x28 PUSH1 0x0 CODECOPY PUSH1 0x0 RETURN INVALID PUSH1 0x80 PUSH1 0x40 MSTORE PUSH1 0x4 CALLDATASIZE LT PUSH2 0x29 JUMPI PUSH1 0x0 CALLDATALOAD PUSH1 0xE0 SHR DUP1 PUSH4 0x4329DB46 EQ PUSH2 0x2E JUMPI DUP1 PUSH4 0xD0387E37 EQ PUSH2 0x4A JUMPI JUMPDEST PUSH1 0x0 DUP1 REVERT JUMPDEST PUSH2 0x48 PUSH1 0x4 DUP1 CALLDATASIZE SUB DUP2 ADD SWAP1 PUSH2 0x43 SWAP2 SWAP1 PUSH2 0x327 JUMP JUMPDEST PUSH2 0x66 JUMP JUMPDEST STOP JUMPDEST PUSH2 0x64 PUSH1 0x4 DUP1 CALLDATASIZE SUB DUP2 ADD SWAP1 PUSH2 0x5F SWAP2 SWAP1 PUSH2 0x29B JUMP JUMPDEST PUSH2 0xBB JUMP JUMPDEST STOP JUMPDEST CALLER PUSH20 0xFFFFFFFFFFFFFFFFFFFFFFFFFFFFFFFFFFFFFFFF AND PUSH2 0x8FC DUP3 CALLVALUE PUSH2 0x8C SWAP2 SWAP1 PUSH2 0x49A JUMP JUMPDEST SWAP1 DUP2 ISZERO MUL SWAP1 PUSH1 0x40 MLOAD PUSH1 0x0 PUSH1 0x40 MLOAD DUP1 DUP4 SUB DUP2 DUP6 DUP9 DUP9 CALL SWAP4 POP POP POP POP ISZERO DUP1 ISZERO PUSH2 0xB7 JUMPI RETURNDATASIZE PUSH1 0x0 DUP1 RETURNDATACOPY RETURNDATASIZE PUSH1 0x0 REVERT JUMPDEST POP POP JUMP JUMPDEST PUSH1 0x2 PUSH1 0x0 SLOAD EQ ISZERO PUSH2 0x101 JUMPI PUSH1 0x40 MLOAD PUSH32 0x8C379A000000000000000000000000000000000000000000000000000000000 DUP2 MSTORE PUSH1 0x4 ADD PUSH2 0xF8 SWAP1 PUSH2 0x453 JUMP JUMPDEST PUSH1 0x40 MLOAD DUP1 SWAP2 SUB SWAP1 REVERT JUMPDEST PUSH1 0x2 PUSH1 0x0 DUP2 SWAP1 SSTORE POP PUSH2 0x115 DUP5 DUP5 DUP5 DUP5 PUSH2 0x123 JUMP JUMPDEST PUSH1 0x1 PUSH1 0x0 DUP2 SWAP1 SSTORE POP POP POP POP POP JUMP JUMPDEST PUSH1 0x0 DUP1 DUP6 PUSH20 0xFFFFFFFFFFFFFFFFFFFFFFFFFFFFFFFFFFFFFFFF AND PUSH4 0x23B872DD DUP7 DUP7 DUP7 PUSH1 0x40 MLOAD PUSH1 0x24 ADD PUSH2 0x157 SWAP4 SWAP3 SWAP2 SWAP1 PUSH2 0x3FC JUMP JUMPDEST PUSH1 0x40 MLOAD PUSH1 0x20 DUP2 DUP4 SUB SUB DUP2 MSTORE SWAP1 PUSH1 0x40 MSTORE SWAP1 PUSH1 0xE0 SHL PUSH1 0x20 DUP3 ADD DUP1 MLOAD PUSH28 0xFFFFFFFFFFFFFFFFFFFFFFFFFFFFFFFFFFFFFFFFFFFFFFFFFFFFFFFF DUP4 DUP2 DUP4 AND OR DUP4 MSTORE POP POP POP POP PUSH1 0x40 MLOAD PUSH2 0x1A5 SWAP2 SWAP1 PUSH2 0x3E5 JUMP JUMPDEST PUSH1 0x0 PUSH1 0x40 MLOAD DUP1 DUP4 SUB DUP2 PUSH1 0x0 DUP7 GAS CALL SWAP2 POP POP RETURNDATASIZE DUP1 PUSH1 0x0 DUP2 EQ PUSH2 0x1E2 JUMPI PUSH1 0x40 MLOAD SWAP2 POP PUSH1 0x1F NOT PUSH1 0x3F RETURNDATASIZE ADD AND DUP3 ADD PUSH1 0x40 MSTORE RETURNDATASIZE DUP3 MSTORE RETURNDATASIZE PUSH1 0x0 PUSH1 0x20 DUP5 ADD RETURNDATACOPY PUSH2 0x1E7 JUMP JUMPDEST PUSH1 0x60 SWAP2 POP JUMPDEST POP SWAP2 POP SWAP2 POP DUP2 DUP1 ISZERO PUSH2 0x215 JUMPI POP PUSH1 0x0 DUP2 MLOAD EQ DUP1 PUSH2 0x214 JUMPI POP DUP1 DUP1 PUSH1 0x20 ADD SWAP1 MLOAD DUP2 ADD SWAP1 PUSH2 0x213 SWAP2 SWAP1 PUSH2 0x2FE JUMP JUMPDEST JUMPDEST JUMPDEST PUSH2 0x254 JUMPI PUSH1 0x40 MLOAD PUSH32 0x8C379A000000000000000000000000000000000000000000000000000000000 DUP2 MSTORE PUSH1 0x4 ADD PUSH2 0x24B SWAP1 PUSH2 0x433 JUMP JUMPDEST PUSH1 0x40 MLOAD DUP1 SWAP2 SUB SWAP1 REVERT JUMPDEST POP POP POP POP POP POP JUMP JUMPDEST PUSH1 0x0 DUP2 CALLDATALOAD SWAP1 POP PUSH2 0x26B DUP2 PUSH2 0x5F0 JUMP JUMPDEST SWAP3 SWAP2 POP POP JUMP JUMPDEST PUSH1 0x0 DUP2 MLOAD SWAP1 POP PUSH2 0x280 DUP2 PUSH2 0x607 JUMP JUMPDEST SWAP3 SWAP2 POP POP JUMP JUMPDEST PUSH1 0x0 DUP2 CALLDATALOAD SWAP1 POP PUSH2 0x295 DUP2 PUSH2 0x61E JUMP JUMPDEST SWAP3 SWAP2 POP POP JUMP JUMPDEST PUSH1 0x0 DUP1 PUSH1 0x0 DUP1 PUSH1 0x80 DUP6 DUP8 SUB SLT ISZERO PUSH2 0x2B1 JUMPI PUSH1 0x0 DUP1 REVERT JUMPDEST PUSH1 0x0 PUSH2 0x2BF DUP8 DUP3 DUP9 ADD PUSH2 0x25C JUMP JUMPDEST SWAP5 POP POP PUSH1 0x20 PUSH2 0x2D0 DUP8 DUP3 DUP9 ADD PUSH2 0x25C JUMP JUMPDEST SWAP4 POP POP PUSH1 0x40 PUSH2 0x2E1 DUP8 DUP3 DUP9 ADD PUSH2 0x25C JUMP JUMPDEST SWAP3 POP POP PUSH1 0x60 PUSH2 0x2F2 DUP8 DUP3 DUP9 ADD PUSH2 0x286 JUMP JUMPDEST SWAP2 POP POP SWAP3 SWAP6 SWAP2 SWAP5 POP SWAP3 POP JUMP JUMPDEST PUSH1 0x0 PUSH1 0x20 DUP3 DUP5 SUB SLT ISZERO PUSH2 0x310 JUMPI PUSH1 0x0 DUP1 REVERT JUMPDEST PUSH1 0x0 PUSH2 0x31E DUP5 DUP3 DUP6 ADD PUSH2 0x271 JUMP JUMPDEST SWAP2 POP POP SWAP3 SWAP2 POP POP JUMP JUMPDEST PUSH1 0x0 PUSH1 0x20 DUP3 DUP5 SUB SLT ISZERO PUSH2 0x339 JUMPI PUSH1 0x0 DUP1 REVERT JUMPDEST PUSH1 0x0 PUSH2 0x347 DUP5 DUP3 DUP6 ADD PUSH2 0x286 JUMP JUMPDEST SWAP2 POP POP SWAP3 SWAP2 POP POP JUMP JUMPDEST PUSH2 0x359 DUP2 PUSH2 0x4CE JUMP JUMPDEST DUP3 MSTORE POP POP JUMP JUMPDEST PUSH1 0x0 PUSH2 0x36A DUP3 PUSH2 0x473 JUMP JUMPDEST PUSH2 0x374 DUP2 DUP6 PUSH2 0x47E JUMP JUMPDEST SWAP4 POP PUSH2 0x384 DUP2 DUP6 PUSH1 0x20 DUP7 ADD PUSH2 0x516 JUMP JUMPDEST DUP1 DUP5 ADD SWAP2 POP POP SWAP3 SWAP2 POP POP JUMP JUMPDEST PUSH1 0x0 PUSH2 0x39D PUSH1 0x31 DUP4 PUSH2 0x489 JUMP JUMPDEST SWAP2 POP PUSH2 0x3A8 DUP3 PUSH2 0x578 JUMP JUMPDEST PUSH1 0x40 DUP3 ADD SWAP1 POP SWAP2 SWAP1 POP JUMP JUMPDEST PUSH1 0x0 PUSH2 0x3C0 PUSH1 0x1F DUP4 PUSH2 0x489 JUMP JUMPDEST SWAP2 POP PUSH2 0x3CB DUP3 PUSH2 0x5C7 JUMP JUMPDEST PUSH1 0x20 DUP3 ADD SWAP1 POP SWAP2 SWAP1 POP JUMP JUMPDEST PUSH2 0x3DF DUP2 PUSH2 0x50C JUMP JUMPDEST DUP3 MSTORE POP POP JUMP JUMPDEST PUSH1 0x0 PUSH2 0x3F1 DUP3 DUP5 PUSH2 0x35F JUMP JUMPDEST SWAP2 POP DUP2 SWAP1 POP SWAP3 SWAP2 POP POP JUMP JUMPDEST PUSH1 0x0 PUSH1 0x60 DUP3 ADD SWAP1 POP PUSH2 0x411 PUSH1 0x0 DUP4 ADD DUP7 PUSH2 0x350 JUMP JUMPDEST PUSH2 0x41E PUSH1 0x20 DUP4 ADD DUP6 PUSH2 0x350 JUMP JUMPDEST PUSH2 0x42B PUSH1 0x40 DUP4 ADD DUP5 PUSH2 0x3D6 JUMP JUMPDEST SWAP5 SWAP4 POP POP POP POP JUMP JUMPDEST PUSH1 0x0 PUSH1 0x20 DUP3 ADD SWAP1 POP DUP2 DUP2 SUB PUSH1 0x0 DUP4 ADD MSTORE PUSH2 0x44C DUP2 PUSH2 0x390 JUMP JUMPDEST SWAP1 POP SWAP2 SWAP1 POP JUMP JUMPDEST PUSH1 0x0 PUSH1 0x20 DUP3 ADD SWAP1 POP DUP2 DUP2 SUB PUSH1 0x0 DUP4 ADD MSTORE PUSH2 0x46C DUP2 PUSH2 0x3B3 JUMP JUMPDEST SWAP1 POP SWAP2 SWAP1 POP JUMP JUMPDEST PUSH1 0x0 DUP2 MLOAD SWAP1 POP SWAP2 SWAP1 POP JUMP JUMPDEST PUSH1 0x0 DUP2 SWAP1 POP SWAP3 SWAP2 POP POP JUMP JUMPDEST PUSH1 0x0 DUP3 DUP3 MSTORE PUSH1 0x20 DUP3 ADD SWAP1 POP SWAP3 SWAP2 POP POP JUMP JUMPDEST PUSH1 0x0 PUSH2 0x4A5 DUP3 PUSH2 0x50C JUMP JUMPDEST SWAP2 POP PUSH2 0x4B0 DUP4 PUSH2 0x50C JUMP JUMPDEST SWAP3 POP DUP3 DUP3 LT ISZERO PUSH2 0x4C3 JUMPI PUSH2 0x4C2 PUSH2 0x549 JUMP JUMPDEST JUMPDEST DUP3 DUP3 SUB SWAP1 POP SWAP3 SWAP2 POP POP JUMP JUMPDEST PUSH1 0x0 PUSH2 0x4D9 DUP3 PUSH2 0x4EC JUMP JUMPDEST SWAP1 POP SWAP2 SWAP1 POP JUMP JUMPDEST PUSH1 0x0 DUP2 ISZERO ISZERO SWAP1 POP SWAP2 SWAP1 POP JUMP JUMPDEST PUSH1 0x0 PUSH20 0xFFFFFFFFFFFFFFFFFFFFFFFFFFFFFFFFFFFFFFFF DUP3 AND SWAP1 POP SWAP2 SWAP1 POP JUMP JUMPDEST PUSH1 0x0 DUP2 SWAP1 POP SWAP2 SWAP1 POP JUMP JUMPDEST PUSH1 0x0 JUMPDEST DUP4 DUP2 LT ISZERO PUSH2 0x534 JUMPI DUP1 DUP3 ADD MLOAD DUP2 DUP5 ADD MSTORE PUSH1 0x20 DUP2 ADD SWAP1 POP PUSH2 0x519 JUMP JUMPDEST DUP4 DUP2 GT ISZERO PUSH2 0x543 JUMPI PUSH1 0x0 DUP5 DUP5 ADD MSTORE JUMPDEST POP POP POP POP JUMP JUMPDEST PUSH32 0x4E487B7100000000000000000000000000000000000000000000000000000000 PUSH1 0x0 MSTORE PUSH1 0x11 PUSH1 0x4 MSTORE PUSH1 0x24 PUSH1 0x0 REVERT JUMPDEST PUSH32 0x5472616E7366657248656C7065723A3A7472616E7366657246726F6D3A207472 PUSH1 0x0 DUP3 ADD MSTORE PUSH32 0x616E7366657246726F6D206661696C6564000000000000000000000000000000 PUSH1 0x20 DUP3 ADD MSTORE POP JUMP JUMPDEST PUSH32 0x5265656E7472616E637947756172643A207265656E7472616E742063616C6C00 PUSH1 0x0 DUP3 ADD MSTORE POP JUMP JUMPDEST PUSH2 0x5F9 DUP2 PUSH2 0x4CE JUMP JUMPDEST DUP2 EQ PUSH2 0x604 JUMPI PUSH1 0x0 DUP1 REVERT JUMPDEST POP JUMP JUMPDEST PUSH2 0x610 DUP2 PUSH2 0x4E0 JUMP JUMPDEST DUP2 EQ PUSH2 0x61B JUMPI PUSH1 0x0 DUP1 REVERT JUMPDEST POP JUMP JUMPDEST PUSH2 0x627 DUP2 PUSH2 0x50C JUMP JUMPDEST DUP2 EQ PUSH2 0x632 JUMPI PUSH1 0x0 DUP1 REVERT JUMPDEST POP JUMP INVALID LOG2 PUSH5 0x6970667358 0x22 SLT KECCAK256 0xED PUSH2 0x1335 PUSH29 0xA6A6D40DFB2E3ACF6846AFEBFE84F4E6DFBEC63FF531DEEC7F1C186473 PUSH16 0x6C634300080400330000000000000000 "
				},
				"gasEstimates": {
					"creation": {
						"codeDepositCost": "328600",
						"executionCost": "20382",
						"totalCost": "348982"
					},
					"external": {
						"depodit(address,address,address,uint256)": "infinite",
						"transferETH(uint256)": "infinite"
					}
				},
				"methodIdentifiers": {
					"depodit(address,address,address,uint256)": "d0387e37",
					"transferETH(uint256)": "4329db46"
				}
			},
			"storageLayout": {
				"storage": [
					{
						"astId": 137,
						"contract": "Ethereum/Presale.sol:Presale",
						"label": "_status",
						"offset": 0,
						"slot": "0",
						"type": "t_uint256"
					}
				],
				"types": {
					"t_uint256": {
						"encoding": "inplace",
						"label": "uint256",
						"numberOfBytes": "32"
					}
				}
			},
			"userdoc": {
				"kind": "user",
				"methods": {},
				"version": 1
			}
		}
	}
}