{
	"Ethereum/Presale.sol": {
		"Presale": {
			"abi": [
				{
					"inputs": [],
					"stateMutability": "payable",
					"type": "constructor"
				},
				{
					"anonymous": false,
					"inputs": [
						{
							"indexed": true,
							"internalType": "address",
							"name": "previousOwner",
							"type": "address"
						},
						{
							"indexed": true,
							"internalType": "address",
							"name": "newOwner",
							"type": "address"
						}
					],
					"name": "OwnershipTransferred",
					"type": "event"
				},
				{
					"inputs": [],
					"name": "WETH",
					"outputs": [
						{
							"internalType": "contract IERC20",
							"name": "",
							"type": "address"
						}
					],
					"stateMutability": "view",
					"type": "function"
				},
				{
					"inputs": [],
					"name": "backToken",
					"outputs": [],
					"stateMutability": "payable",
					"type": "function"
				},
				{
					"inputs": [
						{
							"internalType": "address",
							"name": "",
							"type": "address"
						}
					],
					"name": "buyerInfo",
					"outputs": [
						{
							"internalType": "uint256",
							"name": "baseDeposit",
							"type": "uint256"
						},
						{
							"internalType": "uint256",
							"name": "tokenOwner",
							"type": "uint256"
						},
						{
							"internalType": "uint256",
							"name": "lastWithDraw",
							"type": "uint256"
						},
						{
							"internalType": "uint256",
							"name": "totalTokenWithDraw",
							"type": "uint256"
						}
					],
					"stateMutability": "view",
					"type": "function"
				},
				{
					"inputs": [],
					"name": "checkAdminAddress",
					"outputs": [
						{
							"internalType": "bool",
							"name": "",
							"type": "bool"
						}
					],
					"stateMutability": "view",
					"type": "function"
				},
				{
					"inputs": [
						{
							"internalType": "uint256",
							"name": "_amount",
							"type": "uint256"
						}
					],
					"name": "deposit",
					"outputs": [],
					"stateMutability": "payable",
					"type": "function"
				},
				{
					"inputs": [],
					"name": "feeAnyone",
					"outputs": [
						{
							"internalType": "uint256",
							"name": "",
							"type": "uint256"
						}
					],
					"stateMutability": "view",
					"type": "function"
				},
				{
					"inputs": [
						{
							"internalType": "address",
							"name": "_address",
							"type": "address"
						}
					],
					"name": "getBalance",
					"outputs": [
						{
							"internalType": "uint256",
							"name": "",
							"type": "uint256"
						}
					],
					"stateMutability": "view",
					"type": "function"
				},
				{
					"inputs": [
						{
							"internalType": "address payable",
							"name": "_presaleOwner",
							"type": "address"
						},
						{
							"internalType": "contract ERC20",
							"name": "_saleToken",
							"type": "address"
						},
						{
							"internalType": "contract ERC20",
							"name": "_baseTOken",
							"type": "address"
						},
						{
							"internalType": "uint256[9]",
							"name": "datas",
							"type": "uint256[9]"
						}
					],
					"name": "initialSaleInfor",
					"outputs": [],
					"stateMutability": "nonpayable",
					"type": "function"
				},
				{
					"inputs": [],
					"name": "owner",
					"outputs": [
						{
							"internalType": "address",
							"name": "",
							"type": "address"
						}
					],
					"stateMutability": "view",
					"type": "function"
				},
				{
					"inputs": [],
					"name": "ownerClaimToken",
					"outputs": [],
					"stateMutability": "nonpayable",
					"type": "function"
				},
				{
					"inputs": [],
					"name": "presaleStatus",
					"outputs": [
						{
							"internalType": "uint256",
							"name": "totalBaseCollected",
							"type": "uint256"
						},
						{
							"internalType": "uint256",
							"name": "totalTokenSold",
							"type": "uint256"
						},
						{
							"internalType": "uint256",
							"name": "totalTokenWithDraw",
							"type": "uint256"
						},
						{
							"internalType": "uint256",
							"name": "totalBaseWithDraw",
							"type": "uint256"
						},
						{
							"internalType": "uint256",
							"name": "numberBuyer",
							"type": "uint256"
						},
						{
							"internalType": "bool",
							"name": "isOwnerWithdrawSaleToken",
							"type": "bool"
						},
						{
							"internalType": "bool",
							"name": "isOwnerRefundBaseToken",
							"type": "bool"
						}
					],
					"stateMutability": "view",
					"type": "function"
				},
				{
					"inputs": [],
					"name": "renounceOwnership",
					"outputs": [],
					"stateMutability": "nonpayable",
					"type": "function"
				},
				{
					"inputs": [],
					"name": "saleInfor",
					"outputs": [
						{
							"internalType": "address payable",
							"name": "presaleOwner",
							"type": "address"
						},
						{
							"internalType": "contract ERC20",
							"name": "saleToken",
							"type": "address"
						},
						{
							"internalType": "contract ERC20",
							"name": "baseToken",
							"type": "address"
						},
						{
							"internalType": "uint256",
							"name": "tokenPrice",
							"type": "uint256"
						},
						{
							"internalType": "uint256",
							"name": "startSale",
							"type": "uint256"
						},
						{
							"internalType": "uint256",
							"name": "endSale",
							"type": "uint256"
						},
						{
							"internalType": "uint256",
							"name": "minSpendPerBuyer",
							"type": "uint256"
						},
						{
							"internalType": "uint256",
							"name": "maxSpendPerBuyer",
							"type": "uint256"
						},
						{
							"internalType": "uint256",
							"name": "refundFee",
							"type": "uint256"
						},
						{
							"internalType": "uint256",
							"name": "claimFee",
							"type": "uint256"
						},
						{
							"internalType": "bool",
							"name": "saleIsBaseToken",
							"type": "bool"
						},
						{
							"internalType": "uint256",
							"name": "amountTokenForSale",
							"type": "uint256"
						}
					],
					"stateMutability": "view",
					"type": "function"
				},
				{
					"inputs": [],
					"name": "saleTotalSupply",
					"outputs": [
						{
							"internalType": "uint256",
							"name": "hardCap",
							"type": "uint256"
						},
						{
							"internalType": "uint256",
							"name": "softCap",
							"type": "uint256"
						}
					],
					"stateMutability": "view",
					"type": "function"
				},
				{
					"inputs": [],
					"name": "status",
					"outputs": [
						{
							"internalType": "uint256",
							"name": "",
							"type": "uint256"
						}
					],
					"stateMutability": "view",
					"type": "function"
				},
				{
					"inputs": [],
					"name": "totalFee",
					"outputs": [
						{
							"internalType": "uint256",
							"name": "",
							"type": "uint256"
						}
					],
					"stateMutability": "view",
					"type": "function"
				},
				{
					"inputs": [
						{
							"internalType": "address",
							"name": "newOwner",
							"type": "address"
						}
					],
					"name": "transferOwnership",
					"outputs": [],
					"stateMutability": "nonpayable",
					"type": "function"
				},
				{
					"inputs": [],
					"name": "userClaimEmergency",
					"outputs": [],
					"stateMutability": "nonpayable",
					"type": "function"
				},
				{
					"inputs": [
						{
							"internalType": "address",
							"name": "",
							"type": "address"
						}
					],
					"name": "userFee",
					"outputs": [
						{
							"internalType": "uint256",
							"name": "",
							"type": "uint256"
						}
					],
					"stateMutability": "view",
					"type": "function"
				},
				{
					"inputs": [],
					"name": "userRefundEmergency",
					"outputs": [],
					"stateMutability": "nonpayable",
					"type": "function"
				}
			],
			"devdoc": {
				"kind": "dev",
				"methods": {
					"owner()": {
						"details": "Returns the address of the current owner."
					},
					"renounceOwnership()": {
						"details": "Leaves the contract without owner. It will not be possible to call `onlyOwner` functions anymore. Can only be called by the current owner. NOTE: Renouncing ownership will leave the contract without an owner, thereby removing any functionality that is only available to the owner."
					},
					"transferOwnership(address)": {
						"details": "Transfers ownership of the contract to a new account (`newOwner`). Can only be called by the current owner."
					}
				},
				"version": 1
			},
			"evm": {
				"assembly": "    /* \"Ethereum/Presale.sol\":370:8245  contract Presale is ReentrancyGuard, Ownable{\r... */\n  mstore(0x40, 0x80)\n    /* \"Utils/ReentrancyGuard.sol\":1734:1735  1 */\n  0x01\n    /* \"Utils/ReentrancyGuard.sol\":1845:1852  _status */\n  0x00\n    /* \"Utils/ReentrancyGuard.sol\":1845:1867  _status = _NOT_ENTERED */\n  sstore\n    /* \"Utils/Ownable.sol\":942:974  _transferOwnership(_msgSender()) */\n  tag_6\n    /* \"Utils/Context.sol\":736:746  msg.sender */\n  caller\n    /* \"Utils/Ownable.sol\":942:960  _transferOwnership */\n  tag_9\n    /* \"Utils/Ownable.sol\":942:974  _transferOwnership(_msgSender()) */\n  jump\t// in\ntag_6:\n    /* \"Ethereum/Presale.sol\":2113:2117  WETH */\n  0x19\n    /* \"Ethereum/Presale.sol\":2113:2169  WETH = ERC20(0xc778417E063141139Fce010982780140Aa0cD5Ab) */\n  dup1\n  sload\n    /* \"Ethereum/Presale.sol\":2126:2168  0xc778417E063141139Fce010982780140Aa0cD5Ab */\n  0xc778417e063141139fce010982780140aa0cd5ab\n  not(sub(shl(0xa0, 0x01), 0x01))\n    /* \"Ethereum/Presale.sol\":2113:2169  WETH = ERC20(0xc778417E063141139Fce010982780140Aa0cD5Ab) */\n  swap1\n  swap2\n  and\n  or\n  swap1\n  sstore\n    /* \"Ethereum/Presale.sol\":2180:2234  admins.add(0x6Ccb41eedA5a073076F3E7dC1614C185b5fA41eD) */\n  tag_11\n    /* \"Ethereum/Presale.sol\":2180:2186  admins */\n  0x1b\n    /* \"Ethereum/Presale.sol\":2191:2233  0x6Ccb41eedA5a073076F3E7dC1614C185b5fA41eD */\n  0x6ccb41eeda5a073076f3e7dc1614c185b5fa41ed\n    /* \"Ethereum/Presale.sol\":2180:2190  admins.add */\n  tag_12\n  0x20\n  swap1\n  dup2\n  shl\n  tag_0_112\n  or\n    /* \"Ethereum/Presale.sol\":2180:2234  admins.add(0x6Ccb41eedA5a073076F3E7dC1614C185b5fA41eD) */\n  swap1\n  shr\n  jump\t// in\ntag_11:\n  pop\n    /* \"Ethereum/Presale.sol\":2245:2299  admins.add(0x4f0B12bBF40Fc182559822A5b1dB6D34dbC3E016) */\n  tag_13\n    /* \"Ethereum/Presale.sol\":2256:2298  0x4f0B12bBF40Fc182559822A5b1dB6D34dbC3E016 */\n  0x4f0b12bbf40fc182559822a5b1db6d34dbc3e016\n    /* \"Ethereum/Presale.sol\":2245:2251  admins */\n  0x1b\n    /* \"Ethereum/Presale.sol\":2245:2255  admins.add */\n  or(tag_0_112, shl(0x20, tag_12))\n  swap1\n    /* \"Ethereum/Presale.sol\":2245:2299  admins.add(0x4f0B12bBF40Fc182559822A5b1dB6D34dbC3E016) */\n  swap2\n  swap1\n  0x20\n  shr\n  jump\t// in\ntag_13:\n  pop\n    /* \"Ethereum/Presale.sol\":2322:2324  20 */\n  0x14\n    /* \"Ethereum/Presale.sol\":2310:2319  feeAnyone */\n  0x1a\n    /* \"Ethereum/Presale.sol\":2310:2324  feeAnyone = 20 */\n  sstore\n    /* \"Ethereum/Presale.sol\":370:8245  contract Presale is ReentrancyGuard, Ownable{\r... */\n  jump(tag_14)\n    /* \"Utils/Ownable.sol\":2333:2524  function _transferOwnership(address newOwner) internal virtual {\r... */\ntag_9:\n    /* \"Utils/Ownable.sol\":2426:2432  _owner */\n  0x01\n  dup1\n  sload\n  sub(shl(0xa0, 0x01), 0x01)\n    /* \"Utils/Ownable.sol\":2443:2460  _owner = newOwner */\n  dup4\n  dup2\n  and\n  not(sub(shl(0xa0, 0x01), 0x01))\n  dup4\n  and\n  dup2\n  or\n  swap1\n  swap4\n  sstore\n    /* \"Utils/Ownable.sol\":2476:2516  OwnershipTransferred(oldOwner, newOwner) */\n  mload(0x40)\n    /* \"Utils/Ownable.sol\":2426:2432  _owner */\n  swap2\n  and\n  swap2\n    /* \"Utils/Ownable.sol\":2443:2460  _owner = newOwner */\n  swap1\n    /* \"Utils/Ownable.sol\":2426:2432  _owner */\n  dup3\n  swap1\n    /* \"Utils/Ownable.sol\":2476:2516  OwnershipTransferred(oldOwner, newOwner) */\n  0x8be0079c531659141344cd1fd0a4f28419497f9722a3daafe3b4186f6b6457e0\n  swap1\n    /* \"Utils/Ownable.sol\":2407:2423  address oldOwner */\n  0x00\n  swap1\n    /* \"Utils/Ownable.sol\":2476:2516  OwnershipTransferred(oldOwner, newOwner) */\n  log3\n    /* \"Utils/Ownable.sol\":2396:2524  {\r... */\n  pop\n    /* \"Utils/Ownable.sol\":2333:2524  function _transferOwnership(address newOwner) internal virtual {\r... */\n  pop\n  jump\t// out\n    /* \"Utils/EnumerableSet.sol\":8259:8411  function add(AddressSet storage set, address value) internal returns (bool) {\r... */\ntag_12:\n    /* \"Utils/EnumerableSet.sol\":8329:8333  bool */\n  0x00\n    /* \"Utils/EnumerableSet.sol\":8353:8403  _add(set._inner, bytes32(uint256(uint160(value)))) */\n  tag_18\n    /* \"Utils/EnumerableSet.sol\":8358:8361  set */\n  dup4\n  sub(shl(0xa0, 0x01), 0x01)\n    /* \"Utils/EnumerableSet.sol\":8378:8401  uint256(uint160(value)) */\n  dup5\n  and\n    /* \"Utils/EnumerableSet.sol\":8353:8357  _add */\n  tag_19\n    /* \"Utils/EnumerableSet.sol\":8353:8403  _add(set._inner, bytes32(uint256(uint160(value)))) */\n  jump\t// in\ntag_18:\n    /* \"Utils/EnumerableSet.sol\":8346:8403  return _add(set._inner, bytes32(uint256(uint160(value)))) */\n  swap1\n  pop\n    /* \"Utils/EnumerableSet.sol\":8259:8411  function add(AddressSet storage set, address value) internal returns (bool) {\r... */\ntag_17:\n  swap3\n  swap2\n  pop\n  pop\n  jump\t// out\n    /* \"Utils/EnumerableSet.sol\":2174:2588  function _add(Set storage set, bytes32 value) private returns (bool) {\r... */\ntag_19:\n    /* \"Utils/EnumerableSet.sol\":2237:2241  bool */\n  0x00\n    /* \"Utils/EnumerableSet.sol\":4367:4386  set._indexes[value] */\n  dup2\n  dup2\n  mstore\n    /* \"Utils/EnumerableSet.sol\":4367:4379  set._indexes */\n  0x01\n  dup4\n  add\n    /* \"Utils/EnumerableSet.sol\":4367:4386  set._indexes[value] */\n  0x20\n  mstore\n  0x40\n  dup2\n  keccak256\n  sload\n    /* \"Utils/EnumerableSet.sol\":2254:2581  if (!_contains(set, value)) {\r... */\n  tag_23\n  jumpi\n  pop\n    /* \"Utils/EnumerableSet.sol\":2297:2320  set._values.push(value) */\n  dup2\n  sload\n  0x01\n  dup2\n  dup2\n  add\n  dup5\n  sstore\n    /* \"Utils/EnumerableSet.sol\":2297:2308  set._values */\n  0x00\n    /* \"Utils/EnumerableSet.sol\":2297:2320  set._values.push(value) */\n  dup5\n  dup2\n  mstore\n  0x20\n  dup1\n  dup3\n  keccak256\n  swap1\n  swap4\n  add\n  dup5\n  swap1\n  sstore\n    /* \"Utils/EnumerableSet.sol\":2480:2498  set._values.length */\n  dup5\n  sload\n    /* \"Utils/EnumerableSet.sol\":2458:2477  set._indexes[value] */\n  dup5\n  dup3\n  mstore\n    /* \"Utils/EnumerableSet.sol\":2458:2470  set._indexes */\n  dup3\n  dup7\n  add\n    /* \"Utils/EnumerableSet.sol\":2458:2477  set._indexes[value] */\n  swap1\n  swap4\n  mstore\n  0x40\n  swap1\n  keccak256\n    /* \"Utils/EnumerableSet.sol\":2458:2498  set._indexes[value] = set._values.length */\n  swap2\n  swap1\n  swap2\n  sstore\n    /* \"Utils/EnumerableSet.sol\":2513:2524  return true */\n  jump(tag_17)\n    /* \"Utils/EnumerableSet.sol\":2254:2581  if (!_contains(set, value)) {\r... */\ntag_23:\n  pop\n    /* \"Utils/EnumerableSet.sol\":2564:2569  false */\n  0x00\n    /* \"Utils/EnumerableSet.sol\":2557:2569  return false */\n  jump(tag_17)\n    /* \"Ethereum/Presale.sol\":370:8245  contract Presale is ReentrancyGuard, Ownable{\r... */\ntag_14:\n  dataSize(sub_0)\n  dup1\n  dataOffset(sub_0)\n  0x00\n  codecopy\n  0x00\n  return\nstop\n\nsub_0: assembly {\n        /* \"Ethereum/Presale.sol\":370:8245  contract Presale is ReentrancyGuard, Ownable{\r... */\n      mstore(0x40, 0x80)\n      jumpi(tag_1, lt(calldatasize, 0x04))\n      shr(0xe0, calldataload(0x00))\n      dup1\n      0x8f1eae4c\n      gt\n      tag_22\n      jumpi\n      dup1\n      0xb6b55f25\n      gt\n      tag_23\n      jumpi\n      dup1\n      0xb6b55f25\n      eq\n      tag_17\n      jumpi\n      dup1\n      0xcad5b0f7\n      eq\n      tag_18\n      jumpi\n      dup1\n      0xe2d3f423\n      eq\n      tag_19\n      jumpi\n      dup1\n      0xf2fde38b\n      eq\n      tag_20\n      jumpi\n      dup1\n      0xf8b2cb4f\n      eq\n      tag_21\n      jumpi\n      0x00\n      dup1\n      revert\n    tag_23:\n      dup1\n      0x8f1eae4c\n      eq\n      tag_12\n      jumpi\n      dup1\n      0x95661e70\n      eq\n      tag_13\n      jumpi\n      dup1\n      0xab33985a\n      eq\n      tag_14\n      jumpi\n      dup1\n      0xacfb2355\n      eq\n      tag_15\n      jumpi\n      dup1\n      0xad5c4648\n      eq\n      tag_16\n      jumpi\n      0x00\n      dup1\n      revert\n    tag_22:\n      dup1\n      0x42d8a9da\n      gt\n      tag_24\n      jumpi\n      dup1\n      0x42d8a9da\n      eq\n      tag_7\n      jumpi\n      dup1\n      0x56c5f349\n      eq\n      tag_8\n      jumpi\n      dup1\n      0x715018a6\n      eq\n      tag_9\n      jumpi\n      dup1\n      0x861faf5f\n      eq\n      tag_10\n      jumpi\n      dup1\n      0x8da5cb5b\n      eq\n      tag_11\n      jumpi\n      0x00\n      dup1\n      revert\n    tag_24:\n      dup1\n      0x12e5d0b9\n      eq\n      tag_2\n      jumpi\n      dup1\n      0x18856a2f\n      eq\n      tag_3\n      jumpi\n      dup1\n      0x1df4ccfc\n      eq\n      tag_4\n      jumpi\n      dup1\n      0x200d2ed2\n      eq\n      tag_5\n      jumpi\n      dup1\n      0x3b5ef2ad\n      eq\n      tag_6\n      jumpi\n    tag_1:\n      0x00\n      dup1\n      revert\n        /* \"Ethereum/Presale.sol\":1627:1665  SaleTotalSupply public saleTotalSupply */\n    tag_2:\n      callvalue\n      dup1\n      iszero\n      tag_25\n      jumpi\n      0x00\n      dup1\n      revert\n    tag_25:\n      pop\n      sload(0x0b)\n      sload(0x0c)\n      tag_26\n      swap2\n      swap1\n      dup3\n      jump\n    tag_26:\n      0x40\n      dup1\n      mload\n        /* \"#utility.yul\":10110:10135   */\n      swap3\n      dup4\n      mstore\n        /* \"#utility.yul\":10166:10168   */\n      0x20\n        /* \"#utility.yul\":10151:10169   */\n      dup4\n      add\n        /* \"#utility.yul\":10144:10178   */\n      swap2\n      swap1\n      swap2\n      mstore\n        /* \"#utility.yul\":10083:10101   */\n      add\n        /* \"Ethereum/Presale.sol\":1627:1665  SaleTotalSupply public saleTotalSupply */\n    tag_28:\n      mload(0x40)\n      dup1\n      swap2\n      sub\n      swap1\n      return\n        /* \"Ethereum/Presale.sol\":1672:1698  SaleInfor public saleInfor */\n    tag_3:\n      callvalue\n      dup1\n      iszero\n      tag_30\n      jumpi\n      0x00\n      dup1\n      revert\n    tag_30:\n      pop\n      sload(0x0d)\n      sload(0x0e)\n      sload(0x0f)\n      sload(0x10)\n      sload(0x11)\n      sload(0x12)\n      sload(0x13)\n      sload(0x14)\n      sload(0x15)\n      sload(0x16)\n      sload(0x17)\n      sload(0x18)\n      tag_31\n      swap12\n      sub(shl(0xa0, 0x01), 0x01)\n      swap1\n      dup2\n      and\n      swap12\n      dup2\n      and\n      swap11\n      and\n      swap9\n      swap8\n      swap7\n      swap6\n      swap5\n      swap4\n      swap3\n      swap2\n      0xff\n      and\n      swap1\n      dup13\n      jump\n    tag_31:\n      0x40\n      dup1\n      mload\n      sub(shl(0xa0, 0x01), 0x01)\n        /* \"#utility.yul\":3376:3391   */\n      swap14\n      dup15\n      and\n        /* \"#utility.yul\":3358:3392   */\n      dup2\n      mstore\n        /* \"#utility.yul\":3428:3443   */\n      swap12\n      dup14\n      and\n        /* \"#utility.yul\":3423:3425   */\n      0x20\n        /* \"#utility.yul\":3408:3426   */\n      dup14\n      add\n        /* \"#utility.yul\":3401:3444   */\n      mstore\n        /* \"#utility.yul\":3480:3495   */\n      swap10\n      swap1\n      swap12\n      and\n        /* \"#utility.yul\":3460:3478   */\n      swap9\n      dup11\n      add\n        /* \"#utility.yul\":3453:3496   */\n      swap9\n      swap1\n      swap9\n      mstore\n        /* \"#utility.yul\":3527:3529   */\n      0x60\n        /* \"#utility.yul\":3512:3530   */\n      dup10\n      add\n        /* \"#utility.yul\":3505:3539   */\n      swap7\n      swap1\n      swap7\n      mstore\n        /* \"#utility.yul\":3570:3573   */\n      0x80\n        /* \"#utility.yul\":3555:3574   */\n      dup9\n      add\n        /* \"#utility.yul\":3548:3583   */\n      swap5\n      swap1\n      swap5\n      mstore\n        /* \"#utility.yul\":3338:3341   */\n      0xa0\n        /* \"#utility.yul\":3599:3618   */\n      dup8\n      add\n        /* \"#utility.yul\":3592:3627   */\n      swap3\n      swap1\n      swap3\n      mstore\n        /* \"#utility.yul\":3658:3661   */\n      0xc0\n        /* \"#utility.yul\":3643:3662   */\n      dup7\n      add\n        /* \"#utility.yul\":3636:3671   */\n      mstore\n        /* \"#utility.yul\":3702:3705   */\n      0xe0\n        /* \"#utility.yul\":3687:3706   */\n      dup6\n      add\n        /* \"#utility.yul\":3680:3715   */\n      mstore\n        /* \"#utility.yul\":3746:3749   */\n      0x0100\n        /* \"#utility.yul\":3731:3750   */\n      dup5\n      add\n        /* \"#utility.yul\":3724:3759   */\n      mstore\n        /* \"#utility.yul\":3790:3793   */\n      0x0120\n        /* \"#utility.yul\":3775:3794   */\n      dup4\n      add\n        /* \"#utility.yul\":3768:3803   */\n      mstore\n        /* \"#utility.yul\":3847:3862   */\n      iszero\n        /* \"#utility.yul\":3840:3863   */\n      iszero\n        /* \"#utility.yul\":3834:3837   */\n      0x0140\n        /* \"#utility.yul\":3819:3838   */\n      dup3\n      add\n        /* \"#utility.yul\":3812:3864   */\n      mstore\n        /* \"#utility.yul\":3895:3898   */\n      0x0160\n        /* \"#utility.yul\":3880:3899   */\n      dup2\n      add\n        /* \"#utility.yul\":3873:3909   */\n      swap2\n      swap1\n      swap2\n      mstore\n        /* \"#utility.yul\":3307:3310   */\n      0x0180\n        /* \"#utility.yul\":3292:3311   */\n      add\n        /* \"Ethereum/Presale.sol\":1672:1698  SaleInfor public saleInfor */\n      tag_28\n        /* \"#utility.yul\":3274:3915   */\n      jump\n        /* \"Ethereum/Presale.sol\":1808:1831  uint256 public totalFee */\n    tag_4:\n      callvalue\n      dup1\n      iszero\n      tag_35\n      jumpi\n      0x00\n      dup1\n      revert\n    tag_35:\n      pop\n      tag_36\n      sload(0x1d)\n      dup2\n      jump\n    tag_36:\n      mload(0x40)\n        /* \"#utility.yul\":9900:9925   */\n      swap1\n      dup2\n      mstore\n        /* \"#utility.yul\":9888:9890   */\n      0x20\n        /* \"#utility.yul\":9873:9891   */\n      add\n        /* \"Ethereum/Presale.sol\":1808:1831  uint256 public totalFee */\n      tag_28\n        /* \"#utility.yul\":9855:9931   */\n      jump\n        /* \"Ethereum/Presale.sol\":3539:3876  function status() public view returns(uint256) {\r... */\n    tag_5:\n      callvalue\n      dup1\n      iszero\n      tag_40\n      jumpi\n      0x00\n      dup1\n      revert\n    tag_40:\n      pop\n      tag_36\n      tag_42\n      jump\t// in\n        /* \"Ethereum/Presale.sol\":1730:1754  uint256 public feeAnyone */\n    tag_6:\n      callvalue\n      dup1\n      iszero\n      tag_44\n      jumpi\n      0x00\n      dup1\n      revert\n    tag_44:\n      pop\n      tag_36\n      sload(0x1a)\n      dup2\n      jump\n        /* \"Ethereum/Presale.sol\":7888:8004  function ownerClaimToken() external nonReentrant {\r... */\n    tag_7:\n      callvalue\n      dup1\n      iszero\n      tag_48\n      jumpi\n      0x00\n      dup1\n      revert\n    tag_48:\n      pop\n      tag_49\n      tag_50\n      jump\t// in\n    tag_49:\n      stop\n        /* \"Ethereum/Presale.sol\":1537:1579  mapping(address => uint256) public userFee */\n    tag_8:\n      callvalue\n      dup1\n      iszero\n      tag_51\n      jumpi\n      0x00\n      dup1\n      revert\n    tag_51:\n      pop\n      tag_36\n      tag_53\n      calldatasize\n      0x04\n      tag_54\n      jump\t// in\n    tag_53:\n      mstore(0x20, 0x03)\n      0x00\n      swap1\n      dup2\n      mstore\n      0x40\n      swap1\n      keccak256\n      sload\n      dup2\n      jump\n        /* \"Utils/Ownable.sol\":1714:1817  function renounceOwnership() public virtual onlyOwner {\r... */\n    tag_9:\n      callvalue\n      dup1\n      iszero\n      tag_57\n      jumpi\n      0x00\n      dup1\n      revert\n    tag_57:\n      pop\n      tag_49\n      tag_59\n      jump\t// in\n        /* \"Ethereum/Presale.sol\":8134:8242  function backToken() external payable {\r... */\n    tag_10:\n      tag_49\n      tag_61\n      jump\t// in\n        /* \"Utils/Ownable.sol\":1063:1150  function owner() public view virtual returns (address) {\r... */\n    tag_11:\n      callvalue\n      dup1\n      iszero\n      tag_62\n      jumpi\n      0x00\n      dup1\n      revert\n    tag_62:\n      pop\n        /* \"Utils/Ownable.sol\":1136:1142  _owner */\n      and(sub(shl(0xa0, 0x01), 0x01), sload(0x01))\n        /* \"Utils/Ownable.sol\":1063:1150  function owner() public view virtual returns (address) {\r... */\n    tag_63:\n      mload(0x40)\n      sub(shl(0xa0, 0x01), 0x01)\n        /* \"#utility.yul\":2783:2815   */\n      swap1\n      swap2\n      and\n        /* \"#utility.yul\":2765:2816   */\n      dup2\n      mstore\n        /* \"#utility.yul\":2753:2755   */\n      0x20\n        /* \"#utility.yul\":2738:2756   */\n      add\n        /* \"Utils/Ownable.sol\":1063:1150  function owner() public view virtual returns (address) {\r... */\n      tag_28\n        /* \"#utility.yul\":2720:2822   */\n      jump\n        /* \"Ethereum/Presale.sol\":2340:3530  function initialSaleInfor(\r... */\n    tag_12:\n      callvalue\n      dup1\n      iszero\n      tag_67\n      jumpi\n      0x00\n      dup1\n      revert\n    tag_67:\n      pop\n      tag_49\n      tag_69\n      calldatasize\n      0x04\n      tag_70\n      jump\t// in\n    tag_69:\n      tag_71\n      jump\t// in\n        /* \"Ethereum/Presale.sol\":7020:7880  function userRefundEmergency() external nonReentrant {\r... */\n    tag_13:\n      callvalue\n      dup1\n      iszero\n      tag_72\n      jumpi\n      0x00\n      dup1\n      revert\n    tag_72:\n      pop\n      tag_49\n      tag_74\n      jump\t// in\n        /* \"Ethereum/Presale.sol\":6137:7012  function userClaimEmergency() external nonReentrant {\r... */\n    tag_14:\n      callvalue\n      dup1\n      iszero\n      tag_75\n      jumpi\n      0x00\n      dup1\n      revert\n    tag_75:\n      pop\n      tag_49\n      tag_77\n      jump\t// in\n        /* \"Ethereum/Presale.sol\":1586:1620  PresaleStatus public presaleStatus */\n    tag_15:\n      callvalue\n      dup1\n      iszero\n      tag_78\n      jumpi\n      0x00\n      dup1\n      revert\n    tag_78:\n      pop\n      sload(0x04)\n      sload(0x05)\n      sload(0x06)\n      sload(0x07)\n      sload(0x08)\n      sload(0x09)\n      tag_79\n      swap6\n      swap5\n      swap4\n      swap3\n      swap2\n      swap1\n      0xff\n      dup1\n      dup3\n      and\n      swap2\n      0x0100\n      swap1\n      div\n      and\n      dup8\n      jump\n    tag_79:\n      0x40\n      dup1\n      mload\n        /* \"#utility.yul\":10888:10913   */\n      swap8\n      dup9\n      mstore\n        /* \"#utility.yul\":10944:10946   */\n      0x20\n        /* \"#utility.yul\":10929:10947   */\n      dup9\n      add\n        /* \"#utility.yul\":10922:10956   */\n      swap7\n      swap1\n      swap7\n      mstore\n        /* \"#utility.yul\":10972:10990   */\n      swap5\n      dup7\n      add\n        /* \"#utility.yul\":10965:10999   */\n      swap4\n      swap1\n      swap4\n      mstore\n        /* \"#utility.yul\":11030:11032   */\n      0x60\n        /* \"#utility.yul\":11015:11033   */\n      dup6\n      add\n        /* \"#utility.yul\":11008:11042   */\n      swap2\n      swap1\n      swap2\n      mstore\n        /* \"#utility.yul\":11073:11076   */\n      0x80\n        /* \"#utility.yul\":11058:11077   */\n      dup5\n      add\n        /* \"#utility.yul\":11051:11086   */\n      mstore\n        /* \"#utility.yul\":11130:11144   */\n      iszero\n        /* \"#utility.yul\":11123:11145   */\n      iszero\n        /* \"#utility.yul\":11117:11120   */\n      0xa0\n        /* \"#utility.yul\":11102:11121   */\n      dup4\n      add\n        /* \"#utility.yul\":11095:11146   */\n      mstore\n        /* \"#utility.yul\":11190:11204   */\n      iszero\n        /* \"#utility.yul\":11183:11205   */\n      iszero\n        /* \"#utility.yul\":11177:11180   */\n      0xc0\n        /* \"#utility.yul\":11162:11181   */\n      dup3\n      add\n        /* \"#utility.yul\":11155:11206   */\n      mstore\n        /* \"#utility.yul\":10875:10878   */\n      0xe0\n        /* \"#utility.yul\":10860:10879   */\n      add\n        /* \"Ethereum/Presale.sol\":1586:1620  PresaleStatus public presaleStatus */\n      tag_28\n        /* \"#utility.yul\":10842:11212   */\n      jump\n        /* \"Ethereum/Presale.sol\":1705:1723  IERC20 public WETH */\n    tag_16:\n      callvalue\n      dup1\n      iszero\n      tag_83\n      jumpi\n      0x00\n      dup1\n      revert\n    tag_83:\n      pop\n      sload(0x19)\n      tag_63\n      swap1\n      sub(shl(0xa0, 0x01), 0x01)\n      and\n      dup2\n      jump\n        /* \"Ethereum/Presale.sol\":4003:6129  function deposit(uint256 _amount) external payable nonReentrant {\r... */\n    tag_17:\n      tag_49\n      tag_89\n      calldatasize\n      0x04\n      tag_90\n      jump\t// in\n    tag_89:\n      tag_91\n      jump\t// in\n        /* \"Ethereum/Presale.sol\":3885:3995  function checkAdminAddress() public view returns(bool) {\r... */\n    tag_18:\n      callvalue\n      dup1\n      iszero\n      tag_92\n      jumpi\n      0x00\n      dup1\n      revert\n    tag_92:\n      pop\n      tag_93\n      tag_94\n      jump\t// in\n    tag_93:\n      mload(0x40)\n        /* \"#utility.yul\":4744:4758   */\n      swap1\n      iszero\n        /* \"#utility.yul\":4737:4759   */\n      iszero\n        /* \"#utility.yul\":4719:4760   */\n      dup2\n      mstore\n        /* \"#utility.yul\":4707:4709   */\n      0x20\n        /* \"#utility.yul\":4692:4710   */\n      add\n        /* \"Ethereum/Presale.sol\":3885:3995  function checkAdminAddress() public view returns(bool) {\r... */\n      tag_28\n        /* \"#utility.yul\":4674:4766   */\n      jump\n        /* \"Ethereum/Presale.sol\":1484:1530  mapping(address => BuyerInfo) public buyerInfo */\n    tag_19:\n      callvalue\n      dup1\n      iszero\n      tag_97\n      jumpi\n      0x00\n      dup1\n      revert\n    tag_97:\n      pop\n      tag_98\n      tag_99\n      calldatasize\n      0x04\n      tag_54\n      jump\t// in\n    tag_99:\n      0x02\n      0x20\n      dup2\n      swap1\n      mstore\n      0x00\n      swap2\n      dup3\n      mstore\n      0x40\n      swap1\n      swap2\n      keccak256\n      dup1\n      sload\n      0x01\n      dup3\n      add\n      sload\n      swap3\n      dup3\n      add\n      sload\n      0x03\n      swap1\n      swap3\n      add\n      sload\n      swap1\n      swap3\n      swap2\n      swap1\n      dup5\n      jump\n    tag_98:\n      0x40\n      dup1\n      mload\n        /* \"#utility.yul\":10420:10445   */\n      swap5\n      dup6\n      mstore\n        /* \"#utility.yul\":10476:10478   */\n      0x20\n        /* \"#utility.yul\":10461:10479   */\n      dup6\n      add\n        /* \"#utility.yul\":10454:10488   */\n      swap4\n      swap1\n      swap4\n      mstore\n        /* \"#utility.yul\":10504:10522   */\n      swap2\n      dup4\n      add\n        /* \"#utility.yul\":10497:10531   */\n      mstore\n        /* \"#utility.yul\":10562:10564   */\n      0x60\n        /* \"#utility.yul\":10547:10565   */\n      dup3\n      add\n        /* \"#utility.yul\":10540:10574   */\n      mstore\n        /* \"#utility.yul\":10407:10410   */\n      0x80\n        /* \"#utility.yul\":10392:10411   */\n      add\n        /* \"Ethereum/Presale.sol\":1484:1530  mapping(address => BuyerInfo) public buyerInfo */\n      tag_28\n        /* \"#utility.yul\":10374:10580   */\n      jump\n        /* \"Utils/Ownable.sol\":1972:2173  function transferOwnership(address newOwner) public virtual onlyOwner {\r... */\n    tag_20:\n      callvalue\n      dup1\n      iszero\n      tag_103\n      jumpi\n      0x00\n      dup1\n      revert\n    tag_103:\n      pop\n      tag_49\n      tag_105\n      calldatasize\n      0x04\n      tag_54\n      jump\t// in\n    tag_105:\n      tag_106\n      jump\t// in\n        /* \"Ethereum/Presale.sol\":8012:8123  function getBalance(address _address) external view returns(uint256) {\r... */\n    tag_21:\n      callvalue\n      dup1\n      iszero\n      tag_107\n      jumpi\n      0x00\n      dup1\n      revert\n    tag_107:\n      pop\n      tag_36\n      tag_109\n      calldatasize\n      0x04\n      tag_54\n      jump\t// in\n    tag_109:\n      sub(shl(0xa0, 0x01), 0x01)\n        /* \"Ethereum/Presale.sol\":8099:8115  _address.balance */\n      and\n      balance\n      swap1\n        /* \"Ethereum/Presale.sol\":8012:8123  function getBalance(address _address) external view returns(uint256) {\r... */\n      jump\n        /* \"Ethereum/Presale.sol\":3539:3876  function status() public view returns(uint256) {\r... */\n    tag_42:\n        /* \"Ethereum/Presale.sol\":3618:3637  saleInfor.startSale */\n      sload(0x11)\n        /* \"Ethereum/Presale.sol\":3577:3584  uint256 */\n      0x00\n      swap1\n        /* \"Ethereum/Presale.sol\":3600:3615  block.timestamp */\n      timestamp\n        /* \"Ethereum/Presale.sol\":3600:3637  block.timestamp < saleInfor.startSale */\n      lt\n        /* \"Ethereum/Presale.sol\":3597:3869  if(block.timestamp < saleInfor.startSale) {\r... */\n      iszero\n      tag_114\n      jumpi\n      pop\n        /* \"Ethereum/Presale.sol\":3661:3662  0 */\n      0x00\n      swap1\n        /* \"Ethereum/Presale.sol\":3539:3876  function status() public view returns(uint256) {\r... */\n      jump\t// out\n        /* \"Ethereum/Presale.sol\":3597:3869  if(block.timestamp < saleInfor.startSale) {\r... */\n    tag_114:\n        /* \"Ethereum/Presale.sol\":3728:3745  saleInfor.endSale */\n      sload(0x12)\n        /* \"Ethereum/Presale.sol\":3710:3725  block.timestamp */\n      timestamp\n        /* \"Ethereum/Presale.sol\":3710:3745  block.timestamp > saleInfor.endSale */\n      gt\n        /* \"Ethereum/Presale.sol\":3707:3858  if(block.timestamp > saleInfor.endSale) {\r... */\n      iszero\n      tag_116\n      jumpi\n      pop\n        /* \"Ethereum/Presale.sol\":3773:3774  2 */\n      0x02\n      swap1\n        /* \"Ethereum/Presale.sol\":3539:3876  function status() public view returns(uint256) {\r... */\n      jump\t// out\n        /* \"Ethereum/Presale.sol\":3707:3858  if(block.timestamp > saleInfor.endSale) {\r... */\n    tag_116:\n      pop\n        /* \"Ethereum/Presale.sol\":3831:3832  1 */\n      0x01\n      swap1\n        /* \"Ethereum/Presale.sol\":3539:3876  function status() public view returns(uint256) {\r... */\n      jump\t// out\n        /* \"Ethereum/Presale.sol\":7888:8004  function ownerClaimToken() external nonReentrant {\r... */\n    tag_50:\n        /* \"Utils/ReentrancyGuard.sol\":1778:1779  2 */\n      0x02\n        /* \"Utils/ReentrancyGuard.sol\":2376:2383  _status */\n      sload(0x00)\n        /* \"Utils/ReentrancyGuard.sol\":2376:2395  _status != _ENTERED */\n      eq\n      iszero\n        /* \"Utils/ReentrancyGuard.sol\":2368:2431  require(_status != _ENTERED, \"ReentrancyGuard: reentrant call\") */\n      tag_119\n      jumpi\n      mload(0x40)\n      shl(0xe5, 0x461bcd)\n      dup2\n      mstore\n      0x04\n      add\n      tag_120\n      swap1\n      tag_121\n      jump\t// in\n    tag_120:\n      mload(0x40)\n      dup1\n      swap2\n      sub\n      swap1\n      revert\n    tag_119:\n        /* \"Utils/ReentrancyGuard.sol\":1778:1779  2 */\n      0x02\n        /* \"Utils/ReentrancyGuard.sol\":2509:2516  _status */\n      0x00\n        /* \"Utils/ReentrancyGuard.sol\":2509:2527  _status = _ENTERED */\n      sstore\n        /* \"Ethereum/Presale.sol\":7956:7964  status() */\n      tag_123\n        /* \"Ethereum/Presale.sol\":7956:7962  status */\n      tag_42\n        /* \"Ethereum/Presale.sol\":7956:7964  status() */\n      jump\t// in\n    tag_123:\n        /* \"Ethereum/Presale.sol\":7968:7969  2 */\n      0x02\n        /* \"Ethereum/Presale.sol\":7956:7969  status() == 2 */\n      eq\n        /* \"Ethereum/Presale.sol\":7948:7994  require(status() == 2, \"Sale not yet sucesss\") */\n      tag_124\n      jumpi\n      mload(0x40)\n      shl(0xe5, 0x461bcd)\n      dup2\n      mstore\n        /* \"#utility.yul\":8498:8500   */\n      0x20\n        /* \"Ethereum/Presale.sol\":7948:7994  require(status() == 2, \"Sale not yet sucesss\") */\n      0x04\n      dup3\n      add\n        /* \"#utility.yul\":8480:8501   */\n      mstore\n        /* \"#utility.yul\":8537:8539   */\n      0x14\n        /* \"#utility.yul\":8517:8535   */\n      0x24\n      dup3\n      add\n        /* \"#utility.yul\":8510:8540   */\n      mstore\n      shl(0x60, 0x53616c65206e6f74207965742073756365737373)\n        /* \"#utility.yul\":8556:8574   */\n      0x44\n      dup3\n      add\n        /* \"#utility.yul\":8549:8599   */\n      mstore\n        /* \"#utility.yul\":8616:8634   */\n      0x64\n      add\n        /* \"Ethereum/Presale.sol\":7948:7994  require(status() == 2, \"Sale not yet sucesss\") */\n      tag_120\n        /* \"#utility.yul\":8470:8640   */\n      jump\n        /* \"Ethereum/Presale.sol\":7948:7994  require(status() == 2, \"Sale not yet sucesss\") */\n    tag_124:\n        /* \"Utils/ReentrancyGuard.sol\":1734:1735  1 */\n      0x01\n        /* \"Utils/ReentrancyGuard.sol\":2688:2695  _status */\n      0x00\n        /* \"Utils/ReentrancyGuard.sol\":2688:2710  _status = _NOT_ENTERED */\n      sstore\n        /* \"Ethereum/Presale.sol\":7888:8004  function ownerClaimToken() external nonReentrant {\r... */\n      jump\t// out\n        /* \"Utils/Ownable.sol\":1714:1817  function renounceOwnership() public virtual onlyOwner {\r... */\n    tag_59:\n        /* \"Utils/Ownable.sol\":1136:1142  _owner */\n      and(sub(shl(0xa0, 0x01), 0x01), sload(0x01))\n        /* \"Utils/Context.sol\":736:746  msg.sender */\n      caller\n        /* \"Utils/Ownable.sol\":1283:1306  owner() == _msgSender() */\n      eq\n        /* \"Utils/Ownable.sol\":1275:1343  require(owner() == _msgSender(), \"Ownable: caller is not the owner\") */\n      tag_131\n      jumpi\n      mload(0x40)\n      shl(0xe5, 0x461bcd)\n      dup2\n      mstore\n        /* \"#utility.yul\":8137:8139   */\n      0x20\n        /* \"Utils/Ownable.sol\":1275:1343  require(owner() == _msgSender(), \"Ownable: caller is not the owner\") */\n      0x04\n      dup3\n      add\n        /* \"#utility.yul\":8119:8140   */\n      dup2\n      swap1\n      mstore\n        /* \"#utility.yul\":8156:8174   */\n      0x24\n      dup3\n      add\n        /* \"#utility.yul\":8149:8179   */\n      mstore\n        /* \"#utility.yul\":8215:8249   */\n      0x4f776e61626c653a2063616c6c6572206973206e6f7420746865206f776e6572\n        /* \"#utility.yul\":8195:8213   */\n      0x44\n      dup3\n      add\n        /* \"#utility.yul\":8188:8250   */\n      mstore\n        /* \"#utility.yul\":8267:8285   */\n      0x64\n      add\n        /* \"Utils/Ownable.sol\":1275:1343  require(owner() == _msgSender(), \"Ownable: caller is not the owner\") */\n      tag_120\n        /* \"#utility.yul\":8109:8291   */\n      jump\n        /* \"Utils/Ownable.sol\":1275:1343  require(owner() == _msgSender(), \"Ownable: caller is not the owner\") */\n    tag_131:\n        /* \"Utils/Ownable.sol\":1779:1809  _transferOwnership(address(0)) */\n      tag_135\n        /* \"Utils/Ownable.sol\":1806:1807  0 */\n      0x00\n        /* \"Utils/Ownable.sol\":1779:1797  _transferOwnership */\n      tag_136\n        /* \"Utils/Ownable.sol\":1779:1809  _transferOwnership(address(0)) */\n      jump\t// in\n    tag_135:\n        /* \"Utils/Ownable.sol\":1714:1817  function renounceOwnership() public virtual onlyOwner {\r... */\n      jump\t// out\n        /* \"Ethereum/Presale.sol\":8134:8242  function backToken() external payable {\r... */\n    tag_61:\n        /* \"Ethereum/Presale.sol\":8183:8234  payable(msg.sender).transfer(address(this).balance) */\n      mload(0x40)\n        /* \"Ethereum/Presale.sol\":8191:8201  msg.sender */\n      caller\n      swap1\n        /* \"Ethereum/Presale.sol\":8212:8233  address(this).balance */\n      selfbalance\n        /* \"Ethereum/Presale.sol\":8183:8234  payable(msg.sender).transfer(address(this).balance) */\n      dup1\n      iszero\n      0x08fc\n      mul\n      swap2\n      0x00\n      dup2\n      dup2\n      dup2\n        /* \"Ethereum/Presale.sol\":8212:8233  address(this).balance */\n      dup6\n        /* \"Ethereum/Presale.sol\":8191:8201  msg.sender */\n      dup9\n        /* \"Ethereum/Presale.sol\":8183:8234  payable(msg.sender).transfer(address(this).balance) */\n      dup9\n      call\n      swap4\n      pop\n      pop\n      pop\n      pop\n      iszero\n      dup1\n      iszero\n      tag_139\n      jumpi\n      returndatasize\n      0x00\n      dup1\n      returndatacopy\n      revert(0x00, returndatasize)\n    tag_139:\n      pop\n        /* \"Ethereum/Presale.sol\":8134:8242  function backToken() external payable {\r... */\n      jump\t// out\n        /* \"Ethereum/Presale.sol\":2340:3530  function initialSaleInfor(\r... */\n    tag_71:\n        /* \"Ethereum/Presale.sol\":2521:2530  saleInfor */\n      0x0d\n        /* \"Ethereum/Presale.sol\":2521:2559  saleInfor.presaleOwner = _presaleOwner */\n      dup1\n      sload\n      sub(shl(0xa0, 0x01), 0x01)\n      dup1\n      dup8\n      and\n      not(sub(shl(0xa0, 0x01), 0x01))\n      swap3\n      dup4\n      and\n      or\n      swap1\n      swap3\n      sstore\n        /* \"Ethereum/Presale.sol\":2570:2589  saleInfor.saleToken */\n      0x0e\n        /* \"Ethereum/Presale.sol\":2570:2602  saleInfor.saleToken = _saleToken */\n      dup1\n      sload\n      dup7\n      dup5\n      and\n      swap1\n      dup4\n      and\n      dup2\n      or\n      swap1\n      swap2\n      sstore\n        /* \"Ethereum/Presale.sol\":2613:2632  saleInfor.baseToken */\n      0x0f\n        /* \"Ethereum/Presale.sol\":2613:2645  saleInfor.baseToken = _baseTOken */\n      dup1\n      sload\n      swap4\n      dup7\n      and\n      swap4\n      swap1\n      swap3\n      and\n      swap3\n      swap1\n      swap3\n      or\n      swap1\n      sstore\n        /* \"Ethereum/Presale.sol\":2703:2740  ERC20(saleInfor.saleToken).decimals() */\n      0x40\n      dup1\n      mload\n      shl(0xe0, 0x313ce567)\n      dup2\n      mstore\n      swap1\n      mload\n        /* \"Ethereum/Presale.sol\":2703:2738  ERC20(saleInfor.saleToken).decimals */\n      0x313ce567\n      swap2\n        /* \"Ethereum/Presale.sol\":2703:2740  ERC20(saleInfor.saleToken).decimals() */\n      0x04\n      dup1\n      dup3\n      add\n      swap3\n      0x20\n      swap3\n      swap1\n      swap2\n      swap1\n      dup3\n      swap1\n      sub\n      add\n      dup2\n        /* \"Ethereum/Presale.sol\":2570:2602  saleInfor.saleToken = _saleToken */\n      dup7\n        /* \"Ethereum/Presale.sol\":2703:2740  ERC20(saleInfor.saleToken).decimals() */\n      dup1\n      extcodesize\n      iszero\n      dup1\n      iszero\n      tag_142\n      jumpi\n      0x00\n      dup1\n      revert\n    tag_142:\n      pop\n      gas\n      staticcall\n      iszero\n      dup1\n      iszero\n      tag_144\n      jumpi\n      returndatasize\n      0x00\n      dup1\n      returndatacopy\n      revert(0x00, returndatasize)\n    tag_144:\n      pop\n      pop\n      pop\n      pop\n      mload(0x40)\n      returndatasize\n      not(0x1f)\n      0x1f\n      dup3\n      add\n      and\n      dup3\n      add\n      dup1\n      0x40\n      mstore\n      pop\n      dup2\n      add\n      swap1\n      tag_145\n      swap2\n      swap1\n      tag_146\n      jump\t// in\n    tag_145:\n        /* \"Ethereum/Presale.sol\":2690:2741  10** uint256(ERC20(saleInfor.saleToken).decimals()) */\n      tag_147\n      swap1\n        /* \"Ethereum/Presale.sol\":2690:2692  10 */\n      0x0a\n        /* \"Ethereum/Presale.sol\":2690:2741  10** uint256(ERC20(saleInfor.saleToken).decimals()) */\n      tag_148\n      jump\t// in\n    tag_147:\n        /* \"Ethereum/Presale.sol\":2679:2687  datas[0] */\n      dup2\n      mload\n        /* \"Ethereum/Presale.sol\":2679:2741  datas[0] * 10** uint256(ERC20(saleInfor.saleToken).decimals()) */\n      tag_152\n      swap2\n      swap1\n      tag_153\n      jump\t// in\n    tag_152:\n        /* \"Ethereum/Presale.sol\":2656:2676  saleInfor.tokenPrice */\n      0x10\n        /* \"Ethereum/Presale.sol\":2656:2741  saleInfor.tokenPrice = datas[0] * 10** uint256(ERC20(saleInfor.saleToken).decimals()) */\n      sstore\n        /* \"Ethereum/Presale.sol\":2774:2782  datas[1] */\n      0x20\n      dup1\n      dup3\n      add\n      mload\n        /* \"Ethereum/Presale.sol\":2752:2771  saleInfor.startSale */\n      0x11\n        /* \"Ethereum/Presale.sol\":2752:2782  saleInfor.startSale = datas[1] */\n      sstore\n        /* \"Ethereum/Presale.sol\":2813:2821  datas[2] */\n      0x40\n      dup1\n      dup4\n      add\n      mload\n        /* \"Ethereum/Presale.sol\":2793:2810  saleInfor.endSale */\n      0x12\n        /* \"Ethereum/Presale.sol\":2793:2821  saleInfor.endSale = datas[2] */\n      sstore\n        /* \"Ethereum/Presale.sol\":2861:2869  datas[3] */\n      0x60\n      dup4\n      add\n      mload\n        /* \"Ethereum/Presale.sol\":2832:2858  saleInfor.minSpendPerBuyer */\n      0x13\n        /* \"Ethereum/Presale.sol\":2832:2869  saleInfor.minSpendPerBuyer = datas[3] */\n      sstore\n        /* \"Ethereum/Presale.sol\":2940:2959  saleInfor.baseToken */\n      sload(0x0f)\n        /* \"Ethereum/Presale.sol\":2934:2971  ERC20(saleInfor.baseToken).decimals() */\n      dup2\n      mload\n      shl(0xe0, 0x313ce567)\n      dup2\n      mstore\n      swap2\n      mload\n      sub(shl(0xa0, 0x01), 0x01)\n        /* \"Ethereum/Presale.sol\":2940:2959  saleInfor.baseToken */\n      swap1\n      swap2\n      and\n      swap3\n        /* \"Ethereum/Presale.sol\":2934:2969  ERC20(saleInfor.baseToken).decimals */\n      0x313ce567\n      swap3\n        /* \"Ethereum/Presale.sol\":2934:2971  ERC20(saleInfor.baseToken).decimals() */\n      0x04\n      dup1\n      dup3\n      add\n      swap4\n      swap2\n      dup3\n      swap1\n      sub\n      add\n      dup2\n        /* \"Ethereum/Presale.sol\":2940:2959  saleInfor.baseToken */\n      dup7\n        /* \"Ethereum/Presale.sol\":2934:2971  ERC20(saleInfor.baseToken).decimals() */\n      dup1\n      extcodesize\n      iszero\n      dup1\n      iszero\n      tag_160\n      jumpi\n      0x00\n      dup1\n      revert\n    tag_160:\n      pop\n      gas\n      staticcall\n      iszero\n      dup1\n      iszero\n      tag_162\n      jumpi\n      returndatasize\n      0x00\n      dup1\n      returndatacopy\n      revert(0x00, returndatasize)\n    tag_162:\n      pop\n      pop\n      pop\n      pop\n      mload(0x40)\n      returndatasize\n      not(0x1f)\n      0x1f\n      dup3\n      add\n      and\n      dup3\n      add\n      dup1\n      0x40\n      mstore\n      pop\n      dup2\n      add\n      swap1\n      tag_163\n      swap2\n      swap1\n      tag_146\n      jump\t// in\n    tag_163:\n        /* \"Ethereum/Presale.sol\":2920:2972  10 ** uint256(ERC20(saleInfor.baseToken).decimals()) */\n      tag_164\n      swap1\n        /* \"Ethereum/Presale.sol\":2920:2922  10 */\n      0x0a\n        /* \"Ethereum/Presale.sol\":2920:2972  10 ** uint256(ERC20(saleInfor.baseToken).decimals()) */\n      tag_148\n      jump\t// in\n    tag_164:\n        /* \"Ethereum/Presale.sol\":2909:2917  datas[4] */\n      0x80\n      dup3\n      add\n      mload\n        /* \"Ethereum/Presale.sol\":2909:2972  datas[4] * 10 ** uint256(ERC20(saleInfor.baseToken).decimals()) */\n      tag_167\n      swap2\n      swap1\n      tag_153\n      jump\t// in\n    tag_167:\n        /* \"Ethereum/Presale.sol\":2880:2906  saleInfor.maxSpendPerBuyer */\n      0x14\n        /* \"Ethereum/Presale.sol\":2880:2972  saleInfor.maxSpendPerBuyer = datas[4] * 10 ** uint256(ERC20(saleInfor.baseToken).decimals()) */\n      sstore\n        /* \"Ethereum/Presale.sol\":3005:3013  datas[5] */\n      0xa0\n      dup2\n      add\n      mload\n        /* \"Ethereum/Presale.sol\":2983:3002  saleInfor.refundFee */\n      0x15\n        /* \"Ethereum/Presale.sol\":2983:3013  saleInfor.refundFee = datas[5] */\n      sstore\n        /* \"Ethereum/Presale.sol\":3045:3053  datas[6] */\n      0xc0\n      dup2\n      add\n      mload\n        /* \"Ethereum/Presale.sol\":3024:3042  saleInfor.claimFee */\n      0x16\n        /* \"Ethereum/Presale.sol\":3024:3053  saleInfor.claimFee = datas[6] */\n      sstore\n        /* \"Ethereum/Presale.sol\":3121:3140  saleInfor.baseToken */\n      sload(0x0f)\n        /* \"Ethereum/Presale.sol\":3115:3152  ERC20(saleInfor.baseToken).decimals() */\n      0x40\n      dup1\n      mload\n      shl(0xe0, 0x313ce567)\n      dup2\n      mstore\n      swap1\n      mload\n      sub(shl(0xa0, 0x01), 0x01)\n        /* \"Ethereum/Presale.sol\":3121:3140  saleInfor.baseToken */\n      swap1\n      swap3\n      and\n      swap2\n        /* \"Ethereum/Presale.sol\":3115:3150  ERC20(saleInfor.baseToken).decimals */\n      0x313ce567\n      swap2\n        /* \"Ethereum/Presale.sol\":3115:3152  ERC20(saleInfor.baseToken).decimals() */\n      0x04\n      dup1\n      dup3\n      add\n      swap3\n        /* \"Ethereum/Presale.sol\":3005:3013  datas[5] */\n      0x20\n      swap3\n        /* \"Ethereum/Presale.sol\":3115:3152  ERC20(saleInfor.baseToken).decimals() */\n      swap1\n      swap2\n      swap1\n      dup3\n      swap1\n      sub\n      add\n      dup2\n        /* \"Ethereum/Presale.sol\":3121:3140  saleInfor.baseToken */\n      dup7\n        /* \"Ethereum/Presale.sol\":3115:3152  ERC20(saleInfor.baseToken).decimals() */\n      dup1\n      extcodesize\n      iszero\n      dup1\n      iszero\n      tag_172\n      jumpi\n      0x00\n      dup1\n      revert\n    tag_172:\n      pop\n      gas\n      staticcall\n      iszero\n      dup1\n      iszero\n      tag_174\n      jumpi\n      returndatasize\n      0x00\n      dup1\n      returndatacopy\n      revert(0x00, returndatasize)\n    tag_174:\n      pop\n      pop\n      pop\n      pop\n      mload(0x40)\n      returndatasize\n      not(0x1f)\n      0x1f\n      dup3\n      add\n      and\n      dup3\n      add\n      dup1\n      0x40\n      mstore\n      pop\n      dup2\n      add\n      swap1\n      tag_175\n      swap2\n      swap1\n      tag_146\n      jump\t// in\n    tag_175:\n        /* \"Ethereum/Presale.sol\":3101:3153  10 ** uint256(ERC20(saleInfor.baseToken).decimals()) */\n      tag_176\n      swap1\n        /* \"Ethereum/Presale.sol\":3101:3103  10 */\n      0x0a\n        /* \"Ethereum/Presale.sol\":3101:3153  10 ** uint256(ERC20(saleInfor.baseToken).decimals()) */\n      tag_148\n      jump\t// in\n    tag_176:\n        /* \"Ethereum/Presale.sol\":3090:3098  datas[7] */\n      0xe0\n      dup3\n      add\n      mload\n        /* \"Ethereum/Presale.sol\":3090:3153  datas[7] * 10 ** uint256(ERC20(saleInfor.baseToken).decimals()) */\n      tag_179\n      swap2\n      swap1\n      tag_153\n      jump\t// in\n    tag_179:\n        /* \"Ethereum/Presale.sol\":3064:3079  saleTotalSupply */\n      0x0b\n        /* \"Ethereum/Presale.sol\":3064:3153  saleTotalSupply.hardCap = datas[7] * 10 ** uint256(ERC20(saleInfor.baseToken).decimals()) */\n      sstore\n        /* \"Ethereum/Presale.sol\":3220:3239  saleInfor.baseToken */\n      sload(0x0f)\n        /* \"Ethereum/Presale.sol\":3214:3251  ERC20(saleInfor.baseToken).decimals() */\n      0x40\n      dup1\n      mload\n      shl(0xe0, 0x313ce567)\n      dup2\n      mstore\n      swap1\n      mload\n      sub(shl(0xa0, 0x01), 0x01)\n        /* \"Ethereum/Presale.sol\":3220:3239  saleInfor.baseToken */\n      swap1\n      swap3\n      and\n      swap2\n        /* \"Ethereum/Presale.sol\":3214:3249  ERC20(saleInfor.baseToken).decimals */\n      0x313ce567\n      swap2\n        /* \"Ethereum/Presale.sol\":3214:3251  ERC20(saleInfor.baseToken).decimals() */\n      0x04\n      dup1\n      dup3\n      add\n      swap3\n      0x20\n      swap3\n      swap1\n      swap2\n      swap1\n      dup3\n      swap1\n      sub\n      add\n      dup2\n        /* \"Ethereum/Presale.sol\":3220:3239  saleInfor.baseToken */\n      dup7\n        /* \"Ethereum/Presale.sol\":3214:3251  ERC20(saleInfor.baseToken).decimals() */\n      dup1\n      extcodesize\n      iszero\n      dup1\n      iszero\n      tag_180\n      jumpi\n      0x00\n      dup1\n      revert\n    tag_180:\n      pop\n      gas\n      staticcall\n      iszero\n      dup1\n      iszero\n      tag_182\n      jumpi\n      returndatasize\n      0x00\n      dup1\n      returndatacopy\n      revert(0x00, returndatasize)\n    tag_182:\n      pop\n      pop\n      pop\n      pop\n      mload(0x40)\n      returndatasize\n      not(0x1f)\n      0x1f\n      dup3\n      add\n      and\n      dup3\n      add\n      dup1\n      0x40\n      mstore\n      pop\n      dup2\n      add\n      swap1\n      tag_183\n      swap2\n      swap1\n      tag_146\n      jump\t// in\n    tag_183:\n        /* \"Ethereum/Presale.sol\":3201:3252  10** uint256(ERC20(saleInfor.baseToken).decimals()) */\n      tag_184\n      swap1\n        /* \"Ethereum/Presale.sol\":3201:3203  10 */\n      0x0a\n        /* \"Ethereum/Presale.sol\":3201:3252  10** uint256(ERC20(saleInfor.baseToken).decimals()) */\n      tag_148\n      jump\t// in\n    tag_184:\n        /* \"Ethereum/Presale.sol\":3190:3198  datas[8] */\n      0x0100\n      dup3\n      add\n      mload\n        /* \"Ethereum/Presale.sol\":3190:3252  datas[8] * 10** uint256(ERC20(saleInfor.baseToken).decimals()) */\n      tag_187\n      swap2\n      swap1\n      tag_153\n      jump\t// in\n    tag_187:\n        /* \"Ethereum/Presale.sol\":3164:3187  saleTotalSupply.softCap */\n      0x0c\n        /* \"Ethereum/Presale.sol\":3164:3252  saleTotalSupply.softCap = datas[8] * 10** uint256(ERC20(saleInfor.baseToken).decimals()) */\n      sstore\n        /* \"Ethereum/Presale.sol\":3316:3335  saleInfor.baseToken */\n      sload(0x0f)\n        /* \"Ethereum/Presale.sol\":3299:3303  WETH */\n      sload(0x19)\n        /* \"Ethereum/Presale.sol\":3263:3288  saleInfor.saleIsBaseToken */\n      0x17\n        /* \"Ethereum/Presale.sol\":3263:3336  saleInfor.saleIsBaseToken = address(WETH) == address(saleInfor.baseToken) */\n      dup1\n      sload\n      not(0xff)\n      and\n      sub(shl(0xa0, 0x01), 0x01)\n        /* \"Ethereum/Presale.sol\":3299:3303  WETH */\n      swap3\n      dup4\n      and\n        /* \"Ethereum/Presale.sol\":3316:3335  saleInfor.baseToken */\n      swap3\n      swap1\n      swap4\n      and\n        /* \"Ethereum/Presale.sol\":3291:3336  address(WETH) == address(saleInfor.baseToken) */\n      swap2\n      dup3\n      eq\n        /* \"Ethereum/Presale.sol\":3263:3336  saleInfor.saleIsBaseToken = address(WETH) == address(saleInfor.baseToken) */\n      swap3\n      swap1\n      swap3\n      or\n      swap1\n      swap2\n      sstore\n        /* \"Ethereum/Presale.sol\":3483:3520  ERC20(saleInfor.baseToken).decimals() */\n      0x40\n      dup1\n      mload\n      shl(0xe0, 0x313ce567)\n      dup2\n      mstore\n      swap1\n      mload\n        /* \"Ethereum/Presale.sol\":3483:3518  ERC20(saleInfor.baseToken).decimals */\n      0x313ce567\n      swap2\n        /* \"Ethereum/Presale.sol\":3483:3520  ERC20(saleInfor.baseToken).decimals() */\n      0x04\n      dup1\n      dup3\n      add\n      swap3\n      0x20\n      swap3\n      swap1\n      swap2\n      swap1\n      dup3\n      swap1\n      sub\n      add\n      dup2\n        /* \"Ethereum/Presale.sol\":3316:3335  saleInfor.baseToken */\n      dup7\n        /* \"Ethereum/Presale.sol\":3483:3520  ERC20(saleInfor.baseToken).decimals() */\n      dup1\n      extcodesize\n      iszero\n      dup1\n      iszero\n      tag_188\n      jumpi\n      0x00\n      dup1\n      revert\n    tag_188:\n      pop\n      gas\n      staticcall\n      iszero\n      dup1\n      iszero\n      tag_190\n      jumpi\n      returndatasize\n      0x00\n      dup1\n      returndatacopy\n      revert(0x00, returndatasize)\n    tag_190:\n      pop\n      pop\n      pop\n      pop\n      mload(0x40)\n      returndatasize\n      not(0x1f)\n      0x1f\n      dup3\n      add\n      and\n      dup3\n      add\n      dup1\n      0x40\n      mstore\n      pop\n      dup2\n      add\n      swap1\n      tag_191\n      swap2\n      swap1\n      tag_146\n      jump\t// in\n    tag_191:\n        /* \"Ethereum/Presale.sol\":3470:3521  10** uint256(ERC20(saleInfor.baseToken).decimals()) */\n      tag_192\n      swap1\n        /* \"Ethereum/Presale.sol\":3470:3472  10 */\n      0x0a\n        /* \"Ethereum/Presale.sol\":3470:3521  10** uint256(ERC20(saleInfor.baseToken).decimals()) */\n      tag_148\n      jump\t// in\n    tag_192:\n        /* \"Ethereum/Presale.sol\":3403:3418  saleTotalSupply */\n      0x0b\n        /* \"Ethereum/Presale.sol\":3403:3426  saleTotalSupply.hardCap */\n      sload\n        /* \"Ethereum/Presale.sol\":3378:3398  saleInfor.tokenPrice */\n      sload(0x10)\n        /* \"Ethereum/Presale.sol\":3378:3427  saleInfor.tokenPrice.mul(saleTotalSupply.hardCap) */\n      tag_193\n      swap2\n        /* \"Ethereum/Presale.sol\":3378:3402  saleInfor.tokenPrice.mul */\n      tag_194\n        /* \"Ethereum/Presale.sol\":3378:3427  saleInfor.tokenPrice.mul(saleTotalSupply.hardCap) */\n      jump\t// in\n    tag_193:\n        /* \"Ethereum/Presale.sol\":3378:3522  saleInfor.tokenPrice.mul(saleTotalSupply.hardCap)/\r... */\n      tag_195\n      swap2\n      swap1\n      tag_196\n      jump\t// in\n    tag_195:\n        /* \"Ethereum/Presale.sol\":3347:3375  saleInfor.amountTokenForSale */\n      0x18\n        /* \"Ethereum/Presale.sol\":3347:3522  saleInfor.amountTokenForSale = saleInfor.tokenPrice.mul(saleTotalSupply.hardCap)/\r... */\n      sstore\n      pop\n      pop\n      pop\n      pop\n        /* \"Ethereum/Presale.sol\":2340:3530  function initialSaleInfor(\r... */\n      jump\t// out\n        /* \"Ethereum/Presale.sol\":7020:7880  function userRefundEmergency() external nonReentrant {\r... */\n    tag_74:\n        /* \"Utils/ReentrancyGuard.sol\":1778:1779  2 */\n      0x02\n        /* \"Utils/ReentrancyGuard.sol\":2376:2383  _status */\n      sload(0x00)\n        /* \"Utils/ReentrancyGuard.sol\":2376:2395  _status != _ENTERED */\n      eq\n      iszero\n        /* \"Utils/ReentrancyGuard.sol\":2368:2431  require(_status != _ENTERED, \"ReentrancyGuard: reentrant call\") */\n      tag_198\n      jumpi\n      mload(0x40)\n      shl(0xe5, 0x461bcd)\n      dup2\n      mstore\n      0x04\n      add\n      tag_120\n      swap1\n      tag_121\n      jump\t// in\n    tag_198:\n        /* \"Utils/ReentrancyGuard.sol\":1778:1779  2 */\n      0x02\n        /* \"Utils/ReentrancyGuard.sol\":2509:2516  _status */\n      0x00\n        /* \"Utils/ReentrancyGuard.sol\":2509:2527  _status = _ENTERED */\n      sstore\n        /* \"Ethereum/Presale.sol\":7092:7100  status() */\n      tag_201\n        /* \"Ethereum/Presale.sol\":7092:7098  status */\n      tag_42\n        /* \"Ethereum/Presale.sol\":7092:7100  status() */\n      jump\t// in\n    tag_201:\n        /* \"Ethereum/Presale.sol\":7104:7105  1 */\n      0x01\n        /* \"Ethereum/Presale.sol\":7092:7105  status() == 1 */\n      eq\n        /* \"Ethereum/Presale.sol\":7084:7122  require(status() == 1, \"Sale sucesss\") */\n      tag_202\n      jumpi\n      mload(0x40)\n      shl(0xe5, 0x461bcd)\n      dup2\n      mstore\n        /* \"#utility.yul\":7796:7798   */\n      0x20\n        /* \"Ethereum/Presale.sol\":7084:7122  require(status() == 1, \"Sale sucesss\") */\n      0x04\n      dup3\n      add\n        /* \"#utility.yul\":7778:7799   */\n      mstore\n        /* \"#utility.yul\":7835:7837   */\n      0x0c\n        /* \"#utility.yul\":7815:7833   */\n      0x24\n      dup3\n      add\n        /* \"#utility.yul\":7808:7838   */\n      mstore\n      shl(0xa0, 0x53616c652073756365737373)\n        /* \"#utility.yul\":7854:7872   */\n      0x44\n      dup3\n      add\n        /* \"#utility.yul\":7847:7889   */\n      mstore\n        /* \"#utility.yul\":7906:7924   */\n      0x64\n      add\n        /* \"Ethereum/Presale.sol\":7084:7122  require(status() == 1, \"Sale sucesss\") */\n      tag_120\n        /* \"#utility.yul\":7768:7930   */\n      jump\n        /* \"Ethereum/Presale.sol\":7084:7122  require(status() == 1, \"Sale sucesss\") */\n    tag_202:\n        /* \"Ethereum/Presale.sol\":7176:7207  presaleStatus.totalBaseWithDraw */\n      sload(0x07)\n        /* \"Ethereum/Presale.sol\":7176:7189  presaleStatus */\n      0x04\n        /* \"Ethereum/Presale.sol\":7141:7173  presaleStatus.totalBaseCollected */\n      sload\n        /* \"Ethereum/Presale.sol\":7210:7211  0 */\n      0x00\n      swap2\n        /* \"Ethereum/Presale.sol\":7141:7207  presaleStatus.totalBaseCollected - presaleStatus.totalBaseWithDraw */\n      tag_205\n      swap2\n      tag_206\n      jump\t// in\n    tag_205:\n        /* \"Ethereum/Presale.sol\":7141:7211  presaleStatus.totalBaseCollected - presaleStatus.totalBaseWithDraw > 0 */\n      gt\n        /* \"Ethereum/Presale.sol\":7133:7270  require(presaleStatus.totalBaseCollected - presaleStatus.totalBaseWithDraw > 0, \r... */\n      tag_207\n      jumpi\n      mload(0x40)\n      shl(0xe5, 0x461bcd)\n      dup2\n      mstore\n        /* \"#utility.yul\":5195:5197   */\n      0x20\n        /* \"Ethereum/Presale.sol\":7133:7270  require(presaleStatus.totalBaseCollected - presaleStatus.totalBaseWithDraw > 0, \r... */\n      0x04\n      dup3\n      add\n        /* \"#utility.yul\":5177:5198   */\n      mstore\n        /* \"#utility.yul\":5234:5236   */\n      0x1b\n        /* \"#utility.yul\":5214:5232   */\n      0x24\n      dup3\n      add\n        /* \"#utility.yul\":5207:5237   */\n      mstore\n        /* \"#utility.yul\":5273:5302   */\n      0x416c6c20746f6b656e20686173206265656e2077697468647261770000000000\n        /* \"#utility.yul\":5253:5271   */\n      0x44\n      dup3\n      add\n        /* \"#utility.yul\":5246:5303   */\n      mstore\n        /* \"#utility.yul\":5320:5338   */\n      0x64\n      add\n        /* \"Ethereum/Presale.sol\":7133:7270  require(presaleStatus.totalBaseCollected - presaleStatus.totalBaseWithDraw > 0, \r... */\n      tag_120\n        /* \"#utility.yul\":5167:5344   */\n      jump\n        /* \"Ethereum/Presale.sol\":7133:7270  require(presaleStatus.totalBaseCollected - presaleStatus.totalBaseWithDraw > 0, \r... */\n    tag_207:\n        /* \"Ethereum/Presale.sol\":7318:7328  msg.sender */\n      caller\n        /* \"Ethereum/Presale.sol\":7282:7305  BuyerInfo storage buyer */\n      0x00\n        /* \"Ethereum/Presale.sol\":7308:7329  buyerInfo[msg.sender] */\n      swap1\n      dup2\n      mstore\n        /* \"Ethereum/Presale.sol\":7308:7317  buyerInfo */\n      0x02\n        /* \"Ethereum/Presale.sol\":7308:7329  buyerInfo[msg.sender] */\n      0x20\n      mstore\n      0x40\n      swap1\n      keccak256\n        /* \"Ethereum/Presale.sol\":7348:7365  buyer.baseDeposit */\n      dup1\n      sload\n        /* \"Ethereum/Presale.sol\":7340:7411  require(buyer.baseDeposit > 0, \"You refund all or have not bought yet\") */\n      tag_210\n      jumpi\n      mload(0x40)\n      shl(0xe5, 0x461bcd)\n      dup2\n      mstore\n        /* \"#utility.yul\":5958:5960   */\n      0x20\n        /* \"Ethereum/Presale.sol\":7340:7411  require(buyer.baseDeposit > 0, \"You refund all or have not bought yet\") */\n      0x04\n      dup3\n      add\n        /* \"#utility.yul\":5940:5961   */\n      mstore\n        /* \"#utility.yul\":5997:5999   */\n      0x25\n        /* \"#utility.yul\":5977:5995   */\n      0x24\n      dup3\n      add\n        /* \"#utility.yul\":5970:6000   */\n      mstore\n        /* \"#utility.yul\":6036:6070   */\n      0x596f7520726566756e6420616c6c206f722068617665206e6f7420626f756768\n        /* \"#utility.yul\":6016:6034   */\n      0x44\n      dup3\n      add\n        /* \"#utility.yul\":6009:6071   */\n      mstore\n      shl(0xda, 0x1d081e595d)\n        /* \"#utility.yul\":6087:6105   */\n      0x64\n      dup3\n      add\n        /* \"#utility.yul\":6080:6115   */\n      mstore\n        /* \"#utility.yul\":6132:6151   */\n      0x84\n      add\n        /* \"Ethereum/Presale.sol\":7340:7411  require(buyer.baseDeposit > 0, \"You refund all or have not bought yet\") */\n      tag_120\n        /* \"#utility.yul\":5930:6157   */\n      jump\n        /* \"Ethereum/Presale.sol\":7340:7411  require(buyer.baseDeposit > 0, \"You refund all or have not bought yet\") */\n    tag_210:\n        /* \"Ethereum/Presale.sol\":7524:7541  buyer.baseDeposit */\n      dup1\n      sload\n        /* \"Ethereum/Presale.sol\":7465:7484  saleInfor.refundFee */\n      sload(0x15)\n        /* \"Ethereum/Presale.sol\":7422:7442  uint256 amountRefund */\n      0x00\n      swap2\n        /* \"Ethereum/Presale.sol\":7445:7595  ((uint256(1000).sub(saleInfor.refundFee))\r... */\n      tag_213\n      swap2\n        /* \"Ethereum/Presale.sol\":7589:7593  1000 */\n      0x03e8\n      swap2\n        /* \"Ethereum/Presale.sol\":7446:7542  (uint256(1000).sub(saleInfor.refundFee))\r... */\n      tag_214\n      swap2\n        /* \"Ethereum/Presale.sol\":7447:7485  uint256(1000).sub(saleInfor.refundFee) */\n      tag_215\n      swap1\n        /* \"Ethereum/Presale.sol\":7589:7593  1000 */\n      dup5\n      swap1\n        /* \"Ethereum/Presale.sol\":7447:7464  uint256(1000).sub */\n      tag_216\n        /* \"Ethereum/Presale.sol\":7447:7485  uint256(1000).sub(saleInfor.refundFee) */\n      jump\t// in\n    tag_215:\n        /* \"Ethereum/Presale.sol\":7446:7523  (uint256(1000).sub(saleInfor.refundFee))\r... */\n      swap1\n      tag_194\n        /* \"Ethereum/Presale.sol\":7446:7542  (uint256(1000).sub(saleInfor.refundFee))\r... */\n      jump\t// in\n    tag_214:\n        /* \"Ethereum/Presale.sol\":7445:7580  ((uint256(1000).sub(saleInfor.refundFee))\r... */\n      swap1\n      tag_217\n        /* \"Ethereum/Presale.sol\":7445:7595  ((uint256(1000).sub(saleInfor.refundFee))\r... */\n      jump\t// in\n    tag_213:\n        /* \"Ethereum/Presale.sol\":7618:7635  buyer.baseDeposit */\n      dup3\n      sload\n        /* \"Ethereum/Presale.sol\":7422:7595  uint256 amountRefund = ((uint256(1000).sub(saleInfor.refundFee))\r... */\n      swap1\n      swap2\n      pop\n        /* \"Ethereum/Presale.sol\":7618:7650  buyer.baseDeposit - amountRefund */\n      tag_218\n      swap1\n        /* \"Ethereum/Presale.sol\":7422:7595  uint256 amountRefund = ((uint256(1000).sub(saleInfor.refundFee))\r... */\n      dup3\n      swap1\n        /* \"Ethereum/Presale.sol\":7618:7650  buyer.baseDeposit - amountRefund */\n      tag_206\n      jump\t// in\n    tag_218:\n        /* \"Ethereum/Presale.sol\":7606:7614  totalFee */\n      0x1d\n      0x00\n        /* \"Ethereum/Presale.sol\":7606:7650  totalFee += buyer.baseDeposit - amountRefund */\n      dup3\n      dup3\n      sload\n      tag_219\n      swap2\n      swap1\n      tag_220\n      jump\t// in\n    tag_219:\n      swap1\n      swap2\n      sstore\n      pop\n      pop\n        /* \"Ethereum/Presale.sol\":7661:7692  presaleStatus.totalBaseWithDraw */\n      0x07\n        /* \"Ethereum/Presale.sol\":7661:7708  presaleStatus.totalBaseWithDraw += amountRefund */\n      dup1\n      sload\n        /* \"Ethereum/Presale.sol\":7696:7708  amountRefund */\n      dup3\n      swap2\n        /* \"Ethereum/Presale.sol\":7661:7692  presaleStatus.totalBaseWithDraw */\n      swap1\n      0x00\n      swap1\n        /* \"Ethereum/Presale.sol\":7661:7708  presaleStatus.totalBaseWithDraw += amountRefund */\n      tag_221\n      swap1\n        /* \"Ethereum/Presale.sol\":7696:7708  amountRefund */\n      dup5\n      swap1\n        /* \"Ethereum/Presale.sol\":7661:7708  presaleStatus.totalBaseWithDraw += amountRefund */\n      tag_220\n      jump\t// in\n    tag_221:\n      swap1\n      swap2\n      sstore\n      pop\n      pop\n        /* \"Ethereum/Presale.sol\":7740:7741  0 */\n      0x00\n        /* \"Ethereum/Presale.sol\":7719:7741  buyer.baseDeposit  = 0 */\n      dup1\n      dup4\n      sstore\n        /* \"Ethereum/Presale.sol\":7752:7768  buyer.tokenOwner */\n      0x01\n      dup4\n      add\n        /* \"Ethereum/Presale.sol\":7752:7772  buyer.tokenOwner = 0 */\n      dup2\n      swap1\n      sstore\n        /* \"Ethereum/Presale.sol\":7804:7819  block.timestamp */\n      timestamp\n        /* \"Ethereum/Presale.sol\":7783:7801  buyer.lastWithDraw */\n      0x02\n      dup5\n      add\n        /* \"Ethereum/Presale.sol\":7783:7819  buyer.lastWithDraw = block.timestamp */\n      sstore\n        /* \"Ethereum/Presale.sol\":7830:7872  payable(msg.sender).transfer(amountRefund) */\n      mload(0x40)\n        /* \"Ethereum/Presale.sol\":7838:7848  msg.sender */\n      caller\n      swap2\n        /* \"Ethereum/Presale.sol\":7830:7872  payable(msg.sender).transfer(amountRefund) */\n      dup4\n      iszero\n      0x08fc\n      mul\n      swap2\n        /* \"Ethereum/Presale.sol\":7859:7871  amountRefund */\n      dup5\n      swap2\n        /* \"Ethereum/Presale.sol\":7830:7872  payable(msg.sender).transfer(amountRefund) */\n      dup2\n        /* \"Ethereum/Presale.sol\":7740:7741  0 */\n      dup2\n        /* \"Ethereum/Presale.sol\":7830:7872  payable(msg.sender).transfer(amountRefund) */\n      dup2\n        /* \"Ethereum/Presale.sol\":7859:7871  amountRefund */\n      dup6\n        /* \"Ethereum/Presale.sol\":7838:7848  msg.sender */\n      dup9\n        /* \"Ethereum/Presale.sol\":7830:7872  payable(msg.sender).transfer(amountRefund) */\n      dup9\n      call\n      swap4\n      pop\n      pop\n      pop\n      pop\n      iszero\n      dup1\n      iszero\n      tag_223\n      jumpi\n      returndatasize\n      0x00\n      dup1\n      returndatacopy\n      revert(0x00, returndatasize)\n    tag_223:\n      pop\n      pop\n        /* \"Utils/ReentrancyGuard.sol\":1734:1735  1 */\n      0x01\n        /* \"Utils/ReentrancyGuard.sol\":2688:2695  _status */\n      0x00\n        /* \"Utils/ReentrancyGuard.sol\":2688:2710  _status = _NOT_ENTERED */\n      sstore\n      pop\n        /* \"Ethereum/Presale.sol\":7020:7880  function userRefundEmergency() external nonReentrant {\r... */\n      jump\t// out\n        /* \"Ethereum/Presale.sol\":6137:7012  function userClaimEmergency() external nonReentrant {\r... */\n    tag_77:\n        /* \"Utils/ReentrancyGuard.sol\":1778:1779  2 */\n      0x02\n        /* \"Utils/ReentrancyGuard.sol\":2376:2383  _status */\n      sload(0x00)\n        /* \"Utils/ReentrancyGuard.sol\":2376:2395  _status != _ENTERED */\n      eq\n      iszero\n        /* \"Utils/ReentrancyGuard.sol\":2368:2431  require(_status != _ENTERED, \"ReentrancyGuard: reentrant call\") */\n      tag_225\n      jumpi\n      mload(0x40)\n      shl(0xe5, 0x461bcd)\n      dup2\n      mstore\n      0x04\n      add\n      tag_120\n      swap1\n      tag_121\n      jump\t// in\n    tag_225:\n        /* \"Utils/ReentrancyGuard.sol\":1778:1779  2 */\n      0x02\n        /* \"Utils/ReentrancyGuard.sol\":2509:2516  _status */\n      0x00\n        /* \"Utils/ReentrancyGuard.sol\":2509:2527  _status = _ENTERED */\n      sstore\n        /* \"Ethereum/Presale.sol\":6208:6216  status() */\n      tag_228\n        /* \"Ethereum/Presale.sol\":6208:6214  status */\n      tag_42\n        /* \"Ethereum/Presale.sol\":6208:6216  status() */\n      jump\t// in\n    tag_228:\n        /* \"Ethereum/Presale.sol\":6220:6221  1 */\n      0x01\n        /* \"Ethereum/Presale.sol\":6208:6221  status() == 1 */\n      eq\n        /* \"Ethereum/Presale.sol\":6200:6238  require(status() == 1, \"Sale sucesss\") */\n      tag_229\n      jumpi\n      mload(0x40)\n      shl(0xe5, 0x461bcd)\n      dup2\n      mstore\n        /* \"#utility.yul\":7796:7798   */\n      0x20\n        /* \"Ethereum/Presale.sol\":6200:6238  require(status() == 1, \"Sale sucesss\") */\n      0x04\n      dup3\n      add\n        /* \"#utility.yul\":7778:7799   */\n      mstore\n        /* \"#utility.yul\":7835:7837   */\n      0x0c\n        /* \"#utility.yul\":7815:7833   */\n      0x24\n      dup3\n      add\n        /* \"#utility.yul\":7808:7838   */\n      mstore\n      shl(0xa0, 0x53616c652073756365737373)\n        /* \"#utility.yul\":7854:7872   */\n      0x44\n      dup3\n      add\n        /* \"#utility.yul\":7847:7889   */\n      mstore\n        /* \"#utility.yul\":7906:7924   */\n      0x64\n      add\n        /* \"Ethereum/Presale.sol\":6200:6238  require(status() == 1, \"Sale sucesss\") */\n      tag_120\n        /* \"#utility.yul\":7768:7930   */\n      jump\n        /* \"Ethereum/Presale.sol\":6200:6238  require(status() == 1, \"Sale sucesss\") */\n    tag_229:\n        /* \"Ethereum/Presale.sol\":6289:6321  presaleStatus.totalTokenWithDraw */\n      sload(0x06)\n        /* \"Ethereum/Presale.sol\":6258:6286  presaleStatus.totalTokenSold */\n      sload(0x05)\n        /* \"Ethereum/Presale.sol\":6324:6325  0 */\n      0x00\n      swap2\n        /* \"Ethereum/Presale.sol\":6258:6321  presaleStatus.totalTokenSold - presaleStatus.totalTokenWithDraw */\n      tag_231\n      swap2\n      tag_206\n      jump\t// in\n    tag_231:\n        /* \"Ethereum/Presale.sol\":6258:6325  presaleStatus.totalTokenSold - presaleStatus.totalTokenWithDraw > 0 */\n      gt\n        /* \"Ethereum/Presale.sol\":6250:6384  require(presaleStatus.totalTokenSold - presaleStatus.totalTokenWithDraw > 0, \r... */\n      tag_232\n      jumpi\n      mload(0x40)\n      shl(0xe5, 0x461bcd)\n      dup2\n      mstore\n        /* \"#utility.yul\":5195:5197   */\n      0x20\n        /* \"Ethereum/Presale.sol\":6250:6384  require(presaleStatus.totalTokenSold - presaleStatus.totalTokenWithDraw > 0, \r... */\n      0x04\n      dup3\n      add\n        /* \"#utility.yul\":5177:5198   */\n      mstore\n        /* \"#utility.yul\":5234:5236   */\n      0x1b\n        /* \"#utility.yul\":5214:5232   */\n      0x24\n      dup3\n      add\n        /* \"#utility.yul\":5207:5237   */\n      mstore\n        /* \"#utility.yul\":5273:5302   */\n      0x416c6c20746f6b656e20686173206265656e2077697468647261770000000000\n        /* \"#utility.yul\":5253:5271   */\n      0x44\n      dup3\n      add\n        /* \"#utility.yul\":5246:5303   */\n      mstore\n        /* \"#utility.yul\":5320:5338   */\n      0x64\n      add\n        /* \"Ethereum/Presale.sol\":6250:6384  require(presaleStatus.totalTokenSold - presaleStatus.totalTokenWithDraw > 0, \r... */\n      tag_120\n        /* \"#utility.yul\":5167:5344   */\n      jump\n        /* \"Ethereum/Presale.sol\":6250:6384  require(presaleStatus.totalTokenSold - presaleStatus.totalTokenWithDraw > 0, \r... */\n    tag_232:\n        /* \"Ethereum/Presale.sol\":6431:6441  msg.sender */\n      caller\n        /* \"Ethereum/Presale.sol\":6395:6418  BuyerInfo storage buyer */\n      0x00\n        /* \"Ethereum/Presale.sol\":6421:6442  buyerInfo[msg.sender] */\n      swap1\n      dup2\n      mstore\n        /* \"Ethereum/Presale.sol\":6421:6430  buyerInfo */\n      0x02\n        /* \"Ethereum/Presale.sol\":6421:6442  buyerInfo[msg.sender] */\n      0x20\n      mstore\n      0x40\n      swap1\n      keccak256\n        /* \"Ethereum/Presale.sol\":6480:6504  buyer.totalTokenWithDraw */\n      0x03\n      dup2\n      add\n      sload\n        /* \"Ethereum/Presale.sol\":6461:6477  buyer.tokenOwner */\n      0x01\n      dup3\n      add\n      sload\n        /* \"Ethereum/Presale.sol\":6461:6504  buyer.tokenOwner > buyer.totalTokenWithDraw */\n      gt\n        /* \"Ethereum/Presale.sol\":6453:6545  require(buyer.tokenOwner > buyer.totalTokenWithDraw, \"You claim all or have not bought yet\") */\n      tag_234\n      jumpi\n      mload(0x40)\n      shl(0xe5, 0x461bcd)\n      dup2\n      mstore\n        /* \"#utility.yul\":7046:7048   */\n      0x20\n        /* \"Ethereum/Presale.sol\":6453:6545  require(buyer.tokenOwner > buyer.totalTokenWithDraw, \"You claim all or have not bought yet\") */\n      0x04\n      dup3\n      add\n        /* \"#utility.yul\":7028:7049   */\n      mstore\n        /* \"#utility.yul\":7085:7087   */\n      0x24\n        /* \"#utility.yul\":7065:7083   */\n      dup1\n      dup3\n      add\n        /* \"#utility.yul\":7058:7088   */\n      mstore\n        /* \"#utility.yul\":7124:7158   */\n      0x596f7520636c61696d20616c6c206f722068617665206e6f7420626f75676874\n        /* \"#utility.yul\":7104:7122   */\n      0x44\n      dup3\n      add\n        /* \"#utility.yul\":7097:7159   */\n      mstore\n      shl(0xe2, 0x081e595d)\n        /* \"#utility.yul\":7175:7193   */\n      0x64\n      dup3\n      add\n        /* \"#utility.yul\":7168:7202   */\n      mstore\n        /* \"#utility.yul\":7219:7238   */\n      0x84\n      add\n        /* \"Ethereum/Presale.sol\":6453:6545  require(buyer.tokenOwner > buyer.totalTokenWithDraw, \"You claim all or have not bought yet\") */\n      tag_120\n        /* \"#utility.yul\":7018:7244   */\n      jump\n        /* \"Ethereum/Presale.sol\":6453:6545  require(buyer.tokenOwner > buyer.totalTokenWithDraw, \"You claim all or have not bought yet\") */\n    tag_234:\n        /* \"Ethereum/Presale.sol\":6556:6575  uint256 amountClaim */\n      0x00\n        /* \"Ethereum/Presale.sol\":6578:6714  ((uint256(1000).sub(saleInfor.claimFee))\r... */\n      tag_237\n        /* \"Ethereum/Presale.sol\":6708:6712  1000 */\n      0x03e8\n        /* \"Ethereum/Presale.sol\":6579:6667  (uint256(1000).sub(saleInfor.claimFee))\r... */\n      tag_214\n        /* \"Ethereum/Presale.sol\":6650:6655  buyer */\n      dup5\n        /* \"Ethereum/Presale.sol\":6650:6666  buyer.tokenOwner */\n      0x01\n      add\n      sload\n        /* \"Ethereum/Presale.sol\":6580:6617  uint256(1000).sub(saleInfor.claimFee) */\n      tag_215\n        /* \"Ethereum/Presale.sol\":6598:6607  saleInfor */\n      0x0d\n        /* \"Ethereum/Presale.sol\":6598:6616  saleInfor.claimFee */\n      0x09\n      add\n      sload\n        /* \"Ethereum/Presale.sol\":6588:6592  1000 */\n      0x03e8\n        /* \"Ethereum/Presale.sol\":6580:6597  uint256(1000).sub */\n      tag_216\n      swap1\n        /* \"Ethereum/Presale.sol\":6580:6617  uint256(1000).sub(saleInfor.claimFee) */\n      swap2\n      swap1\n      0xffffffff\n      and\n      jump\t// in\n        /* \"Ethereum/Presale.sol\":6578:6714  ((uint256(1000).sub(saleInfor.claimFee))\r... */\n    tag_237:\n        /* \"Ethereum/Presale.sol\":6556:6714  uint256 amountClaim = ((uint256(1000).sub(saleInfor.claimFee))\r... */\n      swap1\n      pop\n        /* \"Ethereum/Presale.sol\":6761:6772  amountClaim */\n      dup1\n        /* \"Ethereum/Presale.sol\":6725:6738  presaleStatus */\n      0x04\n        /* \"Ethereum/Presale.sol\":6725:6757  presaleStatus.totalTokenWithDraw */\n      0x02\n      add\n      0x00\n        /* \"Ethereum/Presale.sol\":6725:6772  presaleStatus.totalTokenWithDraw += amountClaim */\n      dup3\n      dup3\n      sload\n      tag_240\n      swap2\n      swap1\n      tag_220\n      jump\t// in\n    tag_240:\n      swap3\n      pop\n      pop\n      dup2\n      swap1\n      sstore\n      pop\n        /* \"Ethereum/Presale.sol\":6811:6822  amountClaim */\n      dup1\n        /* \"Ethereum/Presale.sol\":6783:6788  buyer */\n      dup3\n        /* \"Ethereum/Presale.sol\":6783:6807  buyer.totalTokenWithDraw */\n      0x03\n      add\n      0x00\n        /* \"Ethereum/Presale.sol\":6783:6822  buyer.totalTokenWithDraw += amountClaim */\n      dup3\n      dup3\n      sload\n      tag_241\n      swap2\n      swap1\n      tag_220\n      jump\t// in\n    tag_241:\n      swap1\n      swap2\n      sstore\n      pop\n      pop\n        /* \"Ethereum/Presale.sol\":6854:6855  0 */\n      0x00\n        /* \"Ethereum/Presale.sol\":6833:6855  buyer.baseDeposit  = 0 */\n      dup1\n      dup4\n      sstore\n        /* \"Ethereum/Presale.sol\":6866:6882  buyer.tokenOwner */\n      0x01\n      dup4\n      add\n        /* \"Ethereum/Presale.sol\":6866:6886  buyer.tokenOwner = 0 */\n      sstore\n        /* \"Ethereum/Presale.sol\":6918:6933  block.timestamp */\n      timestamp\n        /* \"Ethereum/Presale.sol\":6897:6915  buyer.lastWithDraw */\n      0x02\n      dup4\n      add\n        /* \"Ethereum/Presale.sol\":6897:6933  buyer.lastWithDraw = block.timestamp */\n      sstore\n        /* \"Ethereum/Presale.sol\":6950:6969  saleInfor.saleToken */\n      sload(0x0e)\n        /* \"Ethereum/Presale.sol\":6944:7004  ERC20(saleInfor.saleToken).transfer(msg.sender, amountClaim) */\n      mload(0x40)\n      shl(0xe0, 0xa9059cbb)\n      dup2\n      mstore\n        /* \"Ethereum/Presale.sol\":6980:6990  msg.sender */\n      caller\n        /* \"Ethereum/Presale.sol\":6944:7004  ERC20(saleInfor.saleToken).transfer(msg.sender, amountClaim) */\n      0x04\n      dup3\n      add\n        /* \"#utility.yul\":4474:4525   */\n      mstore\n        /* \"#utility.yul\":4541:4559   */\n      0x24\n      dup2\n      add\n        /* \"#utility.yul\":4534:4568   */\n      dup4\n      swap1\n      mstore\n      sub(shl(0xa0, 0x01), 0x01)\n        /* \"Ethereum/Presale.sol\":6950:6969  saleInfor.saleToken */\n      swap1\n      swap2\n      and\n      swap1\n        /* \"Ethereum/Presale.sol\":6944:6979  ERC20(saleInfor.saleToken).transfer */\n      0xa9059cbb\n      swap1\n        /* \"#utility.yul\":4447:4465   */\n      0x44\n      add\n        /* \"Ethereum/Presale.sol\":6944:7004  ERC20(saleInfor.saleToken).transfer(msg.sender, amountClaim) */\n      0x20\n      mload(0x40)\n      dup1\n      dup4\n      sub\n      dup2\n      0x00\n      dup8\n      dup1\n      extcodesize\n      iszero\n      dup1\n      iszero\n      tag_244\n      jumpi\n      0x00\n      dup1\n      revert\n    tag_244:\n      pop\n      gas\n      call\n      iszero\n      dup1\n      iszero\n      tag_246\n      jumpi\n      returndatasize\n      0x00\n      dup1\n      returndatacopy\n      revert(0x00, returndatasize)\n    tag_246:\n      pop\n      pop\n      pop\n      pop\n      mload(0x40)\n      returndatasize\n      not(0x1f)\n      0x1f\n      dup3\n      add\n      and\n      dup3\n      add\n      dup1\n      0x40\n      mstore\n      pop\n      dup2\n      add\n      swap1\n      tag_223\n      swap2\n      swap1\n      tag_248\n      jump\t// in\n        /* \"Ethereum/Presale.sol\":4003:6129  function deposit(uint256 _amount) external payable nonReentrant {\r... */\n    tag_91:\n        /* \"Utils/ReentrancyGuard.sol\":1778:1779  2 */\n      0x02\n        /* \"Utils/ReentrancyGuard.sol\":2376:2383  _status */\n      sload(0x00)\n        /* \"Utils/ReentrancyGuard.sol\":2376:2395  _status != _ENTERED */\n      eq\n      iszero\n        /* \"Utils/ReentrancyGuard.sol\":2368:2431  require(_status != _ENTERED, \"ReentrancyGuard: reentrant call\") */\n      tag_250\n      jumpi\n      mload(0x40)\n      shl(0xe5, 0x461bcd)\n      dup2\n      mstore\n      0x04\n      add\n      tag_120\n      swap1\n      tag_121\n      jump\t// in\n    tag_250:\n        /* \"Utils/ReentrancyGuard.sol\":1778:1779  2 */\n      0x02\n        /* \"Utils/ReentrancyGuard.sol\":2509:2516  _status */\n      0x00\n        /* \"Utils/ReentrancyGuard.sol\":2509:2527  _status = _ENTERED */\n      sstore\n        /* \"Ethereum/Presale.sol\":4086:4094  status() */\n      tag_253\n        /* \"Ethereum/Presale.sol\":4086:4092  status */\n      tag_42\n        /* \"Ethereum/Presale.sol\":4086:4094  status() */\n      jump\t// in\n    tag_253:\n        /* \"Ethereum/Presale.sol\":4098:4099  1 */\n      0x01\n        /* \"Ethereum/Presale.sol\":4086:4099  status() == 1 */\n      eq\n        /* \"Ethereum/Presale.sol\":4078:4114  require(status() == 1, \"Not active\") */\n      tag_254\n      jumpi\n      mload(0x40)\n      shl(0xe5, 0x461bcd)\n      dup2\n      mstore\n        /* \"#utility.yul\":6707:6709   */\n      0x20\n        /* \"Ethereum/Presale.sol\":4078:4114  require(status() == 1, \"Not active\") */\n      0x04\n      dup3\n      add\n        /* \"#utility.yul\":6689:6710   */\n      mstore\n        /* \"#utility.yul\":6746:6748   */\n      0x0a\n        /* \"#utility.yul\":6726:6744   */\n      0x24\n      dup3\n      add\n        /* \"#utility.yul\":6719:6749   */\n      mstore\n      shl(0xb0, 0x4e6f7420616374697665)\n        /* \"#utility.yul\":6765:6783   */\n      0x44\n      dup3\n      add\n        /* \"#utility.yul\":6758:6798   */\n      mstore\n        /* \"#utility.yul\":6815:6833   */\n      0x64\n      add\n        /* \"Ethereum/Presale.sol\":4078:4114  require(status() == 1, \"Not active\") */\n      tag_120\n        /* \"#utility.yul\":6679:6839   */\n      jump\n        /* \"Ethereum/Presale.sol\":4078:4114  require(status() == 1, \"Not active\") */\n    tag_254:\n        /* \"Ethereum/Presale.sol\":4171:4181  msg.sender */\n      caller\n        /* \"Ethereum/Presale.sol\":4135:4158  BuyerInfo storage buyer */\n      0x00\n        /* \"Ethereum/Presale.sol\":4161:4182  buyerInfo[msg.sender] */\n      swap1\n      dup2\n      mstore\n        /* \"Ethereum/Presale.sol\":4161:4170  buyerInfo */\n      0x02\n        /* \"Ethereum/Presale.sol\":4161:4182  buyerInfo[msg.sender] */\n      0x20\n      mstore\n      0x40\n      dup2\n      keccak256\n        /* \"Ethereum/Presale.sol\":4367:4393  saleInfor.minSpendPerBuyer */\n      sload(0x13)\n        /* \"Ethereum/Presale.sol\":4161:4182  buyerInfo[msg.sender] */\n      swap1\n      swap2\n        /* \"Ethereum/Presale.sol\":4213:4220  _amount */\n      dup4\n      swap2\n      dup3\n      swap2\n        /* \"Ethereum/Presale.sol\":4135:4158  BuyerInfo storage buyer */\n      swap1\n        /* \"Ethereum/Presale.sol\":4326:4330  1000 */\n      0x03e8\n      swap1\n        /* \"Ethereum/Presale.sol\":4349:4393  real_amount_in >= saleInfor.minSpendPerBuyer */\n      dup4\n      lt\n      iszero\n        /* \"Ethereum/Presale.sol\":4341:4442  require(real_amount_in >= saleInfor.minSpendPerBuyer, \r... */\n      tag_257\n      jumpi\n      mload(0x40)\n      shl(0xe5, 0x461bcd)\n      dup2\n      mstore\n        /* \"#utility.yul\":7451:7453   */\n      0x20\n        /* \"Ethereum/Presale.sol\":4341:4442  require(real_amount_in >= saleInfor.minSpendPerBuyer, \r... */\n      0x04\n      dup3\n      add\n        /* \"#utility.yul\":7433:7454   */\n      mstore\n        /* \"#utility.yul\":7490:7492   */\n      0x10\n        /* \"#utility.yul\":7470:7488   */\n      0x24\n      dup3\n      add\n        /* \"#utility.yul\":7463:7493   */\n      mstore\n      shl(0x80, 0x4e6f7420656e6f7567682076616c7565)\n        /* \"#utility.yul\":7509:7527   */\n      0x44\n      dup3\n      add\n        /* \"#utility.yul\":7502:7548   */\n      mstore\n        /* \"#utility.yul\":7565:7583   */\n      0x64\n      add\n        /* \"Ethereum/Presale.sol\":4341:4442  require(real_amount_in >= saleInfor.minSpendPerBuyer, \r... */\n      tag_120\n        /* \"#utility.yul\":7423:7589   */\n      jump\n        /* \"Ethereum/Presale.sol\":4341:4442  require(real_amount_in >= saleInfor.minSpendPerBuyer, \r... */\n    tag_257:\n        /* \"Ethereum/Presale.sol\":4479:4505  saleInfor.maxSpendPerBuyer */\n      sload(0x14)\n        /* \"Ethereum/Presale.sol\":4461:4505  real_amount_in <= saleInfor.maxSpendPerBuyer */\n      dup4\n      gt\n      iszero\n        /* \"Ethereum/Presale.sol\":4453:4552  require(real_amount_in <= saleInfor.maxSpendPerBuyer, \r... */\n      tag_260\n      jumpi\n      mload(0x40)\n      shl(0xe5, 0x461bcd)\n      dup2\n      mstore\n        /* \"#utility.yul\":6364:6366   */\n      0x20\n        /* \"Ethereum/Presale.sol\":4453:4552  require(real_amount_in <= saleInfor.maxSpendPerBuyer, \r... */\n      0x04\n      dup3\n      add\n        /* \"#utility.yul\":6346:6367   */\n      mstore\n        /* \"#utility.yul\":6403:6405   */\n      0x0e\n        /* \"#utility.yul\":6383:6401   */\n      0x24\n      dup3\n      add\n        /* \"#utility.yul\":6376:6406   */\n      mstore\n      shl(0x90, 0x4f766572666c6f772076616c7565)\n        /* \"#utility.yul\":6422:6440   */\n      0x44\n      dup3\n      add\n        /* \"#utility.yul\":6415:6459   */\n      mstore\n        /* \"#utility.yul\":6476:6494   */\n      0x64\n      add\n        /* \"Ethereum/Presale.sol\":4453:4552  require(real_amount_in <= saleInfor.maxSpendPerBuyer, \r... */\n      tag_120\n        /* \"#utility.yul\":6336:6500   */\n      jump\n        /* \"Ethereum/Presale.sol\":4453:4552  require(real_amount_in <= saleInfor.maxSpendPerBuyer, \r... */\n    tag_260:\n        /* \"Ethereum/Presale.sol\":4567:4586  checkAdminAddress() */\n      tag_263\n        /* \"Ethereum/Presale.sol\":4567:4584  checkAdminAddress */\n      tag_94\n        /* \"Ethereum/Presale.sol\":4567:4586  checkAdminAddress() */\n      jump\t// in\n    tag_263:\n        /* \"Ethereum/Presale.sol\":4563:4829  if(!checkAdminAddress()) {\r... */\n      tag_264\n      jumpi\n        /* \"Ethereum/Presale.sol\":4620:4753  ((fullPercenFee.sub(feeAnyone))\r... */\n      tag_265\n        /* \"Ethereum/Presale.sol\":4739:4752  fullPercenFee */\n      dup2\n        /* \"Ethereum/Presale.sol\":4621:4702  (fullPercenFee.sub(feeAnyone))\r... */\n      tag_214\n        /* \"Ethereum/Presale.sol\":4687:4701  real_amount_in */\n      dup6\n        /* \"Ethereum/Presale.sol\":4622:4650  fullPercenFee.sub(feeAnyone) */\n      tag_215\n        /* \"Ethereum/Presale.sol\":4640:4649  feeAnyone */\n      sload(0x1a)\n        /* \"Ethereum/Presale.sol\":4622:4635  fullPercenFee */\n      dup7\n        /* \"Ethereum/Presale.sol\":4622:4639  fullPercenFee.sub */\n      tag_216\n      swap1\n        /* \"Ethereum/Presale.sol\":4622:4650  fullPercenFee.sub(feeAnyone) */\n      swap2\n      swap1\n      0xffffffff\n      and\n      jump\t// in\n        /* \"Ethereum/Presale.sol\":4620:4753  ((fullPercenFee.sub(feeAnyone))\r... */\n    tag_265:\n        /* \"Ethereum/Presale.sol\":4603:4753  real_amount_in = ((fullPercenFee.sub(feeAnyone))\r... */\n      swap3\n      pop\n        /* \"Ethereum/Presale.sol\":4774:4800  amount_in - real_amount_in */\n      tag_268\n        /* \"Ethereum/Presale.sol\":4603:4753  real_amount_in = ((fullPercenFee.sub(feeAnyone))\r... */\n      dup4\n        /* \"Ethereum/Presale.sol\":4774:4783  amount_in */\n      dup6\n        /* \"Ethereum/Presale.sol\":4774:4800  amount_in - real_amount_in */\n      tag_206\n      jump\t// in\n    tag_268:\n        /* \"Ethereum/Presale.sol\":4768:4800  fee = amount_in - real_amount_in */\n      swap2\n      pop\n        /* \"Ethereum/Presale.sol\":4563:4829  if(!checkAdminAddress()) {\r... */\n    tag_264:\n        /* \"Ethereum/Presale.sol\":4894:4911  buyer.baseDeposit */\n      dup5\n      sload\n        /* \"Ethereum/Presale.sol\":4865:4891  saleInfor.maxSpendPerBuyer */\n      sload(0x14)\n        /* \"Ethereum/Presale.sol\":4839:4862  uint256 remainingByUser */\n      0x00\n      swap2\n        /* \"Ethereum/Presale.sol\":4865:4911  saleInfor.maxSpendPerBuyer - buyer.baseDeposit */\n      tag_269\n      swap2\n      tag_206\n      jump\t// in\n    tag_269:\n        /* \"Ethereum/Presale.sol\":4979:4992  presaleStatus */\n      0x04\n        /* \"Ethereum/Presale.sol\":4979:5011  presaleStatus.totalBaseCollected */\n      sload\n        /* \"Ethereum/Presale.sol\":4948:4976  saleInfor.amountTokenForSale */\n      sload(0x18)\n        /* \"Ethereum/Presale.sol\":4839:4911  uint256 remainingByUser = saleInfor.maxSpendPerBuyer - buyer.baseDeposit */\n      swap2\n      swap3\n      pop\n        /* \"Ethereum/Presale.sol\":4922:4945  uint256 remainingByPool */\n      0x00\n      swap2\n        /* \"Ethereum/Presale.sol\":4948:5011  saleInfor.amountTokenForSale - presaleStatus.totalBaseCollected */\n      tag_270\n      swap2\n        /* \"Ethereum/Presale.sol\":4979:5011  presaleStatus.totalBaseCollected */\n      swap1\n        /* \"Ethereum/Presale.sol\":4948:5011  saleInfor.amountTokenForSale - presaleStatus.totalBaseCollected */\n      tag_206\n      jump\t// in\n    tag_270:\n        /* \"Ethereum/Presale.sol\":4922:5011  uint256 remainingByPool = saleInfor.amountTokenForSale - presaleStatus.totalBaseCollected */\n      swap1\n      pop\n        /* \"Ethereum/Presale.sol\":5022:5039  uint256 allowance */\n      0x00\n        /* \"Ethereum/Presale.sol\":5060:5075  remainingByPool */\n      dup2\n        /* \"Ethereum/Presale.sol\":5042:5057  remainingByUser */\n      dup4\n        /* \"Ethereum/Presale.sol\":5042:5075  remainingByUser > remainingByPool */\n      gt\n        /* \"Ethereum/Presale.sol\":5042:5111  remainingByUser > remainingByPool ? remainingByPool : remainingByUser */\n      tag_271\n      jumpi\n        /* \"Ethereum/Presale.sol\":5096:5111  remainingByUser */\n      dup3\n        /* \"Ethereum/Presale.sol\":5042:5111  remainingByUser > remainingByPool ? remainingByPool : remainingByUser */\n      jump(tag_272)\n    tag_271:\n        /* \"Ethereum/Presale.sol\":5078:5093  remainingByPool */\n      dup2\n        /* \"Ethereum/Presale.sol\":5042:5111  remainingByUser > remainingByPool ? remainingByPool : remainingByUser */\n    tag_272:\n        /* \"Ethereum/Presale.sol\":5022:5111  uint256 allowance = remainingByUser > remainingByPool ? remainingByPool : remainingByUser */\n      swap1\n      pop\n        /* \"Ethereum/Presale.sol\":5148:5157  allowance */\n      dup1\n        /* \"Ethereum/Presale.sol\":5130:5144  real_amount_in */\n      dup7\n        /* \"Ethereum/Presale.sol\":5130:5157  real_amount_in <= allowance */\n      gt\n      iszero\n        /* \"Ethereum/Presale.sol\":5122:5177  require(real_amount_in <= allowance, \"Sale is success\") */\n      tag_273\n      jumpi\n      mload(0x40)\n      shl(0xe5, 0x461bcd)\n      dup2\n      mstore\n        /* \"#utility.yul\":9612:9614   */\n      0x20\n        /* \"Ethereum/Presale.sol\":5122:5177  require(real_amount_in <= allowance, \"Sale is success\") */\n      0x04\n      dup3\n      add\n        /* \"#utility.yul\":9594:9615   */\n      mstore\n        /* \"#utility.yul\":9651:9653   */\n      0x0f\n        /* \"#utility.yul\":9631:9649   */\n      0x24\n      dup3\n      add\n        /* \"#utility.yul\":9624:9654   */\n      mstore\n      shl(0x88, 0x53616c652069732073756363657373)\n        /* \"#utility.yul\":9670:9688   */\n      0x44\n      dup3\n      add\n        /* \"#utility.yul\":9663:9708   */\n      mstore\n        /* \"#utility.yul\":9725:9743   */\n      0x64\n      add\n        /* \"Ethereum/Presale.sol\":5122:5177  require(real_amount_in <= allowance, \"Sale is success\") */\n      tag_120\n        /* \"#utility.yul\":9584:9749   */\n      jump\n        /* \"Ethereum/Presale.sol\":5122:5177  require(real_amount_in <= allowance, \"Sale is success\") */\n    tag_273:\n        /* \"Ethereum/Presale.sol\":5188:5205  uint256 tokenSold */\n      0x00\n        /* \"Ethereum/Presale.sol\":5209:5367  real_amount_in.\r... */\n      tag_276\n        /* \"Ethereum/Presale.sol\":5334:5343  saleInfor */\n      0x0d\n        /* \"Ethereum/Presale.sol\":5334:5353  saleInfor.baseToken */\n      0x02\n      add\n      0x00\n      swap1\n      sload\n      swap1\n      0x0100\n      exp\n      swap1\n      div\n      sub(shl(0xa0, 0x01), 0x01)\n      and\n      sub(shl(0xa0, 0x01), 0x01)\n        /* \"Ethereum/Presale.sol\":5328:5363  ERC20(saleInfor.baseToken).decimals */\n      and\n      0x313ce567\n        /* \"Ethereum/Presale.sol\":5328:5365  ERC20(saleInfor.baseToken).decimals() */\n      mload(0x40)\n      dup2\n      0xffffffff\n      and\n      0xe0\n      shl\n      dup2\n      mstore\n      0x04\n      add\n      0x20\n      mload(0x40)\n      dup1\n      dup4\n      sub\n      dup2\n      dup7\n      dup1\n      extcodesize\n      iszero\n      dup1\n      iszero\n      tag_277\n      jumpi\n      0x00\n      dup1\n      revert\n    tag_277:\n      pop\n      gas\n      staticcall\n      iszero\n      dup1\n      iszero\n      tag_279\n      jumpi\n      returndatasize\n      0x00\n      dup1\n      returndatacopy\n      revert(0x00, returndatasize)\n    tag_279:\n      pop\n      pop\n      pop\n      pop\n      mload(0x40)\n      returndatasize\n      not(0x1f)\n      0x1f\n      dup3\n      add\n      and\n      dup3\n      add\n      dup1\n      0x40\n      mstore\n      pop\n      dup2\n      add\n      swap1\n      tag_280\n      swap2\n      swap1\n      tag_146\n      jump\t// in\n    tag_280:\n        /* \"Ethereum/Presale.sol\":5314:5366  10 ** uint256(ERC20(saleInfor.baseToken).decimals()) */\n      tag_281\n      swap1\n        /* \"Ethereum/Presale.sol\":5314:5316  10 */\n      0x0a\n        /* \"Ethereum/Presale.sol\":5314:5366  10 ** uint256(ERC20(saleInfor.baseToken).decimals()) */\n      tag_148\n      jump\t// in\n    tag_281:\n        /* \"Ethereum/Presale.sol\":5258:5278  saleInfor.tokenPrice */\n      sload(0x10)\n        /* \"Ethereum/Presale.sol\":5209:5279  real_amount_in.\r... */\n      tag_214\n      swap1\n        /* \"Ethereum/Presale.sol\":5209:5223  real_amount_in */\n      dup11\n      swap1\n        /* \"Ethereum/Presale.sol\":5209:5257  real_amount_in.\r... */\n      tag_194\n        /* \"Ethereum/Presale.sol\":5209:5279  real_amount_in.\r... */\n      jump\t// in\n        /* \"Ethereum/Presale.sol\":5209:5367  real_amount_in.\r... */\n    tag_276:\n        /* \"Ethereum/Presale.sol\":5188:5368  uint256 tokenSold = (real_amount_in.\r... */\n      swap1\n      pop\n        /* \"Ethereum/Presale.sol\":5417:5426  amount_in */\n      dup8\n        /* \"Ethereum/Presale.sol\":5396:5401  buyer */\n      dup10\n        /* \"Ethereum/Presale.sol\":5396:5413  buyer.baseDeposit */\n      0x00\n      add\n      0x00\n        /* \"Ethereum/Presale.sol\":5396:5426  buyer.baseDeposit += amount_in */\n      dup3\n      dup3\n      sload\n      tag_283\n      swap2\n      swap1\n      tag_220\n      jump\t// in\n    tag_283:\n      swap3\n      pop\n      pop\n      dup2\n      swap1\n      sstore\n      pop\n        /* \"Ethereum/Presale.sol\":5457:5466  tokenSold */\n      dup1\n        /* \"Ethereum/Presale.sol\":5437:5442  buyer */\n      dup10\n        /* \"Ethereum/Presale.sol\":5437:5453  buyer.tokenOwner */\n      0x01\n      add\n      0x00\n        /* \"Ethereum/Presale.sol\":5437:5466  buyer.tokenOwner += tokenSold */\n      dup3\n      dup3\n      sload\n      tag_284\n      swap2\n      swap1\n      tag_220\n      jump\t// in\n    tag_284:\n      swap1\n      swap2\n      sstore\n      pop\n      pop\n        /* \"Ethereum/Presale.sol\":5477:5490  presaleStatus */\n      0x04\n        /* \"Ethereum/Presale.sol\":5477:5527  presaleStatus.totalBaseCollected += real_amount_in */\n      dup1\n      sload\n        /* \"Ethereum/Presale.sol\":5513:5527  real_amount_in */\n      dup9\n      swap2\n        /* \"Ethereum/Presale.sol\":5477:5490  presaleStatus */\n      swap1\n        /* \"Ethereum/Presale.sol\":5477:5509  presaleStatus.totalBaseCollected */\n      0x00\n      swap1\n        /* \"Ethereum/Presale.sol\":5477:5527  presaleStatus.totalBaseCollected += real_amount_in */\n      tag_285\n      swap1\n        /* \"Ethereum/Presale.sol\":5513:5527  real_amount_in */\n      dup5\n      swap1\n        /* \"Ethereum/Presale.sol\":5477:5527  presaleStatus.totalBaseCollected += real_amount_in */\n      tag_220\n      jump\t// in\n    tag_285:\n      swap1\n      swap2\n      sstore\n      pop\n      pop\n        /* \"Ethereum/Presale.sol\":5538:5566  presaleStatus.totalTokenSold */\n      0x05\n        /* \"Ethereum/Presale.sol\":5538:5579  presaleStatus.totalTokenSold += tokenSold */\n      dup1\n      sload\n        /* \"Ethereum/Presale.sol\":5570:5579  tokenSold */\n      dup3\n      swap2\n        /* \"Ethereum/Presale.sol\":5538:5566  presaleStatus.totalTokenSold */\n      swap1\n      0x00\n      swap1\n        /* \"Ethereum/Presale.sol\":5538:5579  presaleStatus.totalTokenSold += tokenSold */\n      tag_286\n      swap1\n        /* \"Ethereum/Presale.sol\":5570:5579  tokenSold */\n      dup5\n      swap1\n        /* \"Ethereum/Presale.sol\":5538:5579  presaleStatus.totalTokenSold += tokenSold */\n      tag_220\n      jump\t// in\n    tag_286:\n      swap1\n      swap2\n      sstore\n      pop\n      pop\n        /* \"Ethereum/Presale.sol\":5590:5615  presaleStatus.numberBuyer */\n      0x08\n        /* \"Ethereum/Presale.sol\":5590:5617  presaleStatus.numberBuyer++ */\n      dup1\n      sload\n      swap1\n        /* \"Ethereum/Presale.sol\":5590:5615  presaleStatus.numberBuyer */\n      0x00\n        /* \"Ethereum/Presale.sol\":5590:5617  presaleStatus.numberBuyer++ */\n      tag_287\n      dup4\n      tag_288\n      jump\t// in\n    tag_287:\n      swap1\n      swap2\n      sstore\n      pop\n      pop\n        /* \"Ethereum/Presale.sol\":5636:5646  msg.sender */\n      caller\n        /* \"Ethereum/Presale.sol\":5628:5647  userFee[msg.sender] */\n      0x00\n      swap1\n      dup2\n      mstore\n        /* \"Ethereum/Presale.sol\":5628:5635  userFee */\n      0x03\n        /* \"Ethereum/Presale.sol\":5628:5647  userFee[msg.sender] */\n      0x20\n      mstore\n      0x40\n      dup2\n      keccak256\n        /* \"Ethereum/Presale.sol\":5628:5654  userFee[msg.sender] += fee */\n      dup1\n      sload\n        /* \"Ethereum/Presale.sol\":5651:5654  fee */\n      dup9\n      swap3\n        /* \"Ethereum/Presale.sol\":5628:5647  userFee[msg.sender] */\n      swap1\n        /* \"Ethereum/Presale.sol\":5628:5654  userFee[msg.sender] += fee */\n      tag_289\n      swap1\n        /* \"Ethereum/Presale.sol\":5651:5654  fee */\n      dup5\n      swap1\n        /* \"Ethereum/Presale.sol\":5628:5654  userFee[msg.sender] += fee */\n      tag_220\n      jump\t// in\n    tag_289:\n      swap3\n      pop\n      pop\n      dup2\n      swap1\n      sstore\n      pop\n        /* \"Ethereum/Presale.sol\":5677:5680  fee */\n      dup6\n        /* \"Ethereum/Presale.sol\":5665:5673  totalFee */\n      0x1d\n      0x00\n        /* \"Ethereum/Presale.sol\":5665:5680  totalFee += fee */\n      dup3\n      dup3\n      sload\n      tag_290\n      swap2\n      swap1\n      tag_220\n      jump\t// in\n    tag_290:\n      swap1\n      swap2\n      sstore\n      pop\n      pop\n        /* \"Ethereum/Presale.sol\":5696:5721  saleInfor.saleIsBaseToken */\n      and(0xff, sload(0x17))\n        /* \"Ethereum/Presale.sol\":5696:5757  saleInfor.saleIsBaseToken && real_amount_in + fee < msg.value */\n      dup1\n      iszero\n      tag_291\n      jumpi\n      pop\n        /* \"Ethereum/Presale.sol\":5748:5757  msg.value */\n      callvalue\n        /* \"Ethereum/Presale.sol\":5725:5745  real_amount_in + fee */\n      tag_292\n        /* \"Ethereum/Presale.sol\":5742:5745  fee */\n      dup8\n        /* \"Ethereum/Presale.sol\":5725:5739  real_amount_in */\n      dup10\n        /* \"Ethereum/Presale.sol\":5725:5745  real_amount_in + fee */\n      tag_220\n      jump\t// in\n    tag_292:\n        /* \"Ethereum/Presale.sol\":5725:5757  real_amount_in + fee < msg.value */\n      lt\n        /* \"Ethereum/Presale.sol\":5696:5757  saleInfor.saleIsBaseToken && real_amount_in + fee < msg.value */\n    tag_291:\n        /* \"Ethereum/Presale.sol\":5693:5848  if(saleInfor.saleIsBaseToken && real_amount_in + fee < msg.value) {\r... */\n      iszero\n      tag_293\n      jumpi\n        /* \"Ethereum/Presale.sol\":5782:5792  msg.sender */\n      caller\n        /* \"Ethereum/Presale.sol\":5774:5836  payable(msg.sender).transfer(msg.value - real_amount_in - fee) */\n      0x08fc\n        /* \"Ethereum/Presale.sol\":5832:5835  fee */\n      dup8\n        /* \"Ethereum/Presale.sol\":5803:5829  msg.value - real_amount_in */\n      tag_294\n        /* \"Ethereum/Presale.sol\":5815:5829  real_amount_in */\n      dup11\n        /* \"Ethereum/Presale.sol\":5803:5812  msg.value */\n      callvalue\n        /* \"Ethereum/Presale.sol\":5803:5829  msg.value - real_amount_in */\n      tag_206\n      jump\t// in\n    tag_294:\n        /* \"Ethereum/Presale.sol\":5803:5835  msg.value - real_amount_in - fee */\n      tag_295\n      swap2\n      swap1\n      tag_206\n      jump\t// in\n    tag_295:\n        /* \"Ethereum/Presale.sol\":5774:5836  payable(msg.sender).transfer(msg.value - real_amount_in - fee) */\n      mload(0x40)\n      dup2\n      iszero\n      swap1\n      swap3\n      mul\n      swap2\n      0x00\n      dup2\n      dup2\n      dup2\n      dup6\n      dup9\n      dup9\n      call\n      swap4\n      pop\n      pop\n      pop\n      pop\n      iszero\n      dup1\n      iszero\n      tag_297\n      jumpi\n      returndatasize\n      0x00\n      dup1\n      returndatacopy\n      revert(0x00, returndatasize)\n    tag_297:\n      pop\n        /* \"Ethereum/Presale.sol\":5693:5848  if(saleInfor.saleIsBaseToken && real_amount_in + fee < msg.value) {\r... */\n    tag_293:\n        /* \"Ethereum/Presale.sol\":5863:5888  saleInfor.saleIsBaseToken */\n      and(0xff, sload(0x17))\n        /* \"Ethereum/Presale.sol\":5859:6110  if(!saleInfor.saleIsBaseToken) {\r... */\n      tag_299\n      jumpi\n        /* \"Ethereum/Presale.sol\":5963:5982  saleInfor.baseToken */\n      sload(0x0f)\n        /* \"Ethereum/Presale.sol\":5905:6098  TransferHelper.safeTransferFrom(\r... */\n      tag_299\n      swap1\n      sub(shl(0xa0, 0x01), 0x01)\n        /* \"Ethereum/Presale.sol\":5963:5982  saleInfor.baseToken */\n      and\n        /* \"Ethereum/Presale.sol\":6002:6012  msg.sender */\n      caller\n        /* \"Ethereum/Presale.sol\":6039:6043  this */\n      address\n        /* \"Ethereum/Presale.sol\":6063:6083  real_amount_in + fee */\n      tag_300\n        /* \"Ethereum/Presale.sol\":6080:6083  fee */\n      dup11\n        /* \"Ethereum/Presale.sol\":6063:6077  real_amount_in */\n      dup13\n        /* \"Ethereum/Presale.sol\":6063:6083  real_amount_in + fee */\n      tag_220\n      jump\t// in\n    tag_300:\n        /* \"Ethereum/Presale.sol\":5905:5936  TransferHelper.safeTransferFrom */\n      tag_301\n        /* \"Ethereum/Presale.sol\":5905:6098  TransferHelper.safeTransferFrom(\r... */\n      jump\t// in\n    tag_299:\n      pop\n      pop\n        /* \"Utils/ReentrancyGuard.sol\":1734:1735  1 */\n      0x01\n        /* \"Utils/ReentrancyGuard.sol\":2688:2695  _status */\n      0x00\n        /* \"Utils/ReentrancyGuard.sol\":2688:2710  _status = _NOT_ENTERED */\n      sstore\n      pop\n      pop\n      pop\n      pop\n      pop\n      pop\n      pop\n      pop\n        /* \"Ethereum/Presale.sol\":4003:6129  function deposit(uint256 _amount) external payable nonReentrant {\r... */\n      jump\t// out\n        /* \"Ethereum/Presale.sol\":3885:3995  function checkAdminAddress() public view returns(bool) {\r... */\n    tag_94:\n        /* \"Ethereum/Presale.sol\":3934:3938  bool */\n      0x00\n        /* \"Ethereum/Presale.sol\":3958:3987  admins.contains(_msgSender()) */\n      tag_303\n        /* \"Ethereum/Presale.sol\":3958:3964  admins */\n      0x1b\n        /* \"Utils/Context.sol\":736:746  msg.sender */\n      caller\n        /* \"Ethereum/Presale.sol\":3958:3973  admins.contains */\n      tag_305\n        /* \"Ethereum/Presale.sol\":3958:3987  admins.contains(_msgSender()) */\n      jump\t// in\n    tag_303:\n        /* \"Ethereum/Presale.sol\":3951:3987  return admins.contains(_msgSender()) */\n      swap1\n      pop\n        /* \"Ethereum/Presale.sol\":3885:3995  function checkAdminAddress() public view returns(bool) {\r... */\n      swap1\n      jump\t// out\n        /* \"Utils/Ownable.sol\":1972:2173  function transferOwnership(address newOwner) public virtual onlyOwner {\r... */\n    tag_106:\n        /* \"Utils/Ownable.sol\":1136:1142  _owner */\n      and(sub(shl(0xa0, 0x01), 0x01), sload(0x01))\n        /* \"Utils/Context.sol\":736:746  msg.sender */\n      caller\n        /* \"Utils/Ownable.sol\":1283:1306  owner() == _msgSender() */\n      eq\n        /* \"Utils/Ownable.sol\":1275:1343  require(owner() == _msgSender(), \"Ownable: caller is not the owner\") */\n      tag_309\n      jumpi\n      mload(0x40)\n      shl(0xe5, 0x461bcd)\n      dup2\n      mstore\n        /* \"#utility.yul\":8137:8139   */\n      0x20\n        /* \"Utils/Ownable.sol\":1275:1343  require(owner() == _msgSender(), \"Ownable: caller is not the owner\") */\n      0x04\n      dup3\n      add\n        /* \"#utility.yul\":8119:8140   */\n      dup2\n      swap1\n      mstore\n        /* \"#utility.yul\":8156:8174   */\n      0x24\n      dup3\n      add\n        /* \"#utility.yul\":8149:8179   */\n      mstore\n        /* \"#utility.yul\":8215:8249   */\n      0x4f776e61626c653a2063616c6c6572206973206e6f7420746865206f776e6572\n        /* \"#utility.yul\":8195:8213   */\n      0x44\n      dup3\n      add\n        /* \"#utility.yul\":8188:8250   */\n      mstore\n        /* \"#utility.yul\":8267:8285   */\n      0x64\n      add\n        /* \"Utils/Ownable.sol\":1275:1343  require(owner() == _msgSender(), \"Ownable: caller is not the owner\") */\n      tag_120\n        /* \"#utility.yul\":8109:8291   */\n      jump\n        /* \"Utils/Ownable.sol\":1275:1343  require(owner() == _msgSender(), \"Ownable: caller is not the owner\") */\n    tag_309:\n      sub(shl(0xa0, 0x01), 0x01)\n        /* \"Utils/Ownable.sol\":2061:2083  newOwner != address(0) */\n      dup2\n      and\n        /* \"Utils/Ownable.sol\":2053:2126  require(newOwner != address(0), \"Ownable: new owner is the zero address\") */\n      tag_312\n      jumpi\n      mload(0x40)\n      shl(0xe5, 0x461bcd)\n      dup2\n      mstore\n        /* \"#utility.yul\":5551:5553   */\n      0x20\n        /* \"Utils/Ownable.sol\":2053:2126  require(newOwner != address(0), \"Ownable: new owner is the zero address\") */\n      0x04\n      dup3\n      add\n        /* \"#utility.yul\":5533:5554   */\n      mstore\n        /* \"#utility.yul\":5590:5592   */\n      0x26\n        /* \"#utility.yul\":5570:5588   */\n      0x24\n      dup3\n      add\n        /* \"#utility.yul\":5563:5593   */\n      mstore\n        /* \"#utility.yul\":5629:5663   */\n      0x4f776e61626c653a206e6577206f776e657220697320746865207a65726f2061\n        /* \"#utility.yul\":5609:5627   */\n      0x44\n      dup3\n      add\n        /* \"#utility.yul\":5602:5664   */\n      mstore\n      shl(0xd0, 0x646472657373)\n        /* \"#utility.yul\":5680:5698   */\n      0x64\n      dup3\n      add\n        /* \"#utility.yul\":5673:5709   */\n      mstore\n        /* \"#utility.yul\":5726:5745   */\n      0x84\n      add\n        /* \"Utils/Ownable.sol\":2053:2126  require(newOwner != address(0), \"Ownable: new owner is the zero address\") */\n      tag_120\n        /* \"#utility.yul\":5523:5751   */\n      jump\n        /* \"Utils/Ownable.sol\":2053:2126  require(newOwner != address(0), \"Ownable: new owner is the zero address\") */\n    tag_312:\n        /* \"Utils/Ownable.sol\":2137:2165  _transferOwnership(newOwner) */\n      tag_139\n        /* \"Utils/Ownable.sol\":2156:2164  newOwner */\n      dup2\n        /* \"Utils/Ownable.sol\":2137:2155  _transferOwnership */\n      tag_136\n        /* \"Utils/Ownable.sol\":2137:2165  _transferOwnership(newOwner) */\n      jump\t// in\n        /* \"Utils/EnumerableSet.sol\":8259:8411  function add(AddressSet storage set, address value) internal returns (bool) {\r... */\n    tag_112:\n        /* \"Utils/EnumerableSet.sol\":8329:8333  bool */\n      0x00\n        /* \"Utils/EnumerableSet.sol\":8353:8403  _add(set._inner, bytes32(uint256(uint160(value)))) */\n      tag_318\n        /* \"Utils/EnumerableSet.sol\":8358:8361  set */\n      dup4\n      sub(shl(0xa0, 0x01), 0x01)\n        /* \"Utils/EnumerableSet.sol\":8378:8401  uint256(uint160(value)) */\n      dup5\n      and\n        /* \"Utils/EnumerableSet.sol\":8353:8357  _add */\n      tag_319\n        /* \"Utils/EnumerableSet.sol\":8353:8403  _add(set._inner, bytes32(uint256(uint160(value)))) */\n      jump\t// in\n    tag_318:\n        /* \"Utils/EnumerableSet.sol\":8346:8403  return _add(set._inner, bytes32(uint256(uint160(value)))) */\n      swap1\n      pop\n        /* \"Utils/EnumerableSet.sol\":8259:8411  function add(AddressSet storage set, address value) internal returns (bool) {\r... */\n    tag_317:\n      swap3\n      swap2\n      pop\n      pop\n      jump\t// out\n        /* \"Utils/Ownable.sol\":2333:2524  function _transferOwnership(address newOwner) internal virtual {\r... */\n    tag_136:\n        /* \"Utils/Ownable.sol\":2426:2432  _owner */\n      0x01\n      dup1\n      sload\n      sub(shl(0xa0, 0x01), 0x01)\n        /* \"Utils/Ownable.sol\":2443:2460  _owner = newOwner */\n      dup4\n      dup2\n      and\n      not(sub(shl(0xa0, 0x01), 0x01))\n      dup4\n      and\n      dup2\n      or\n      swap1\n      swap4\n      sstore\n        /* \"Utils/Ownable.sol\":2476:2516  OwnershipTransferred(oldOwner, newOwner) */\n      mload(0x40)\n        /* \"Utils/Ownable.sol\":2426:2432  _owner */\n      swap2\n      and\n      swap2\n        /* \"Utils/Ownable.sol\":2443:2460  _owner = newOwner */\n      swap1\n        /* \"Utils/Ownable.sol\":2426:2432  _owner */\n      dup3\n      swap1\n        /* \"Utils/Ownable.sol\":2476:2516  OwnershipTransferred(oldOwner, newOwner) */\n      0x8be0079c531659141344cd1fd0a4f28419497f9722a3daafe3b4186f6b6457e0\n      swap1\n        /* \"Utils/Ownable.sol\":2407:2423  address oldOwner */\n      0x00\n      swap1\n        /* \"Utils/Ownable.sol\":2476:2516  OwnershipTransferred(oldOwner, newOwner) */\n      log3\n        /* \"Utils/Ownable.sol\":2396:2524  {\r... */\n      pop\n        /* \"Utils/Ownable.sol\":2333:2524  function _transferOwnership(address newOwner) internal virtual {\r... */\n      pop\n      jump\t// out\n        /* \"Utils/SafeMath.sol\":3585:3683  function mul(uint256 a, uint256 b) internal pure returns (uint256) {\r... */\n    tag_194:\n        /* \"Utils/SafeMath.sol\":3643:3650  uint256 */\n      0x00\n        /* \"Utils/SafeMath.sol\":3670:3675  a * b */\n      tag_318\n        /* \"Utils/SafeMath.sol\":3674:3675  b */\n      dup3\n        /* \"Utils/SafeMath.sol\":3670:3671  a */\n      dup5\n        /* \"Utils/SafeMath.sol\":3670:3675  a * b */\n      tag_153\n      jump\t// in\n        /* \"Utils/SafeMath.sol\":3228:3326  function sub(uint256 a, uint256 b) internal pure returns (uint256) {\r... */\n    tag_216:\n        /* \"Utils/SafeMath.sol\":3286:3293  uint256 */\n      0x00\n        /* \"Utils/SafeMath.sol\":3313:3318  a - b */\n      tag_318\n        /* \"Utils/SafeMath.sol\":3317:3318  b */\n      dup3\n        /* \"Utils/SafeMath.sol\":3313:3314  a */\n      dup5\n        /* \"Utils/SafeMath.sol\":3313:3318  a - b */\n      tag_206\n      jump\t// in\n        /* \"Utils/SafeMath.sol\":3984:4082  function div(uint256 a, uint256 b) internal pure returns (uint256) {\r... */\n    tag_217:\n        /* \"Utils/SafeMath.sol\":4042:4049  uint256 */\n      0x00\n        /* \"Utils/SafeMath.sol\":4069:4074  a / b */\n      tag_318\n        /* \"Utils/SafeMath.sol\":4073:4074  b */\n      dup3\n        /* \"Utils/SafeMath.sol\":4069:4070  a */\n      dup5\n        /* \"Utils/SafeMath.sol\":4069:4074  a / b */\n      tag_196\n      jump\t// in\n        /* \"Utils/TransferHelper.sol\":1073:1503  function safeTransferFrom(\r... */\n    tag_301:\n        /* \"Utils/TransferHelper.sol\":1279:1330  abi.encodeWithSelector(0x23b872dd, from, to, value) */\n      0x40\n      dup1\n      mload\n      sub(shl(0xa0, 0x01), 0x01)\n        /* \"#utility.yul\":4178:4193   */\n      dup6\n      dup2\n      and\n        /* \"Utils/TransferHelper.sol\":1279:1330  abi.encodeWithSelector(0x23b872dd, from, to, value) */\n      0x24\n      dup4\n      add\n        /* \"#utility.yul\":4160:4194   */\n      mstore\n        /* \"#utility.yul\":4230:4245   */\n      dup5\n      dup2\n      and\n        /* \"#utility.yul\":4210:4228   */\n      0x44\n      dup4\n      add\n        /* \"#utility.yul\":4203:4246   */\n      mstore\n        /* \"#utility.yul\":4262:4280   */\n      0x64\n      dup1\n      dup4\n      add\n        /* \"#utility.yul\":4255:4289   */\n      dup6\n      swap1\n      mstore\n        /* \"Utils/TransferHelper.sol\":1279:1330  abi.encodeWithSelector(0x23b872dd, from, to, value) */\n      dup4\n      mload\n      dup1\n      dup5\n      sub\n      swap1\n      swap2\n      add\n      dup2\n      mstore\n        /* \"#utility.yul\":4095:4113   */\n      0x84\n      swap1\n      swap3\n      add\n        /* \"Utils/TransferHelper.sol\":1279:1330  abi.encodeWithSelector(0x23b872dd, from, to, value) */\n      dup4\n      mstore\n      0x20\n      dup3\n      add\n      dup1\n      mload\n      sub(shl(0xe0, 0x01), 0x01)\n      and\n      shl(0xe0, 0x23b872dd)\n      or\n      swap1\n      mstore\n        /* \"Utils/TransferHelper.sol\":1254:1341  token.call(\r... */\n      swap2\n      mload\n      0x00\n      swap3\n      dup4\n      swap3\n        /* \"Utils/TransferHelper.sol\":1254:1264  token.call */\n      swap1\n      dup9\n      and\n      swap2\n        /* \"Utils/TransferHelper.sol\":1254:1341  token.call(\r... */\n      tag_331\n      swap2\n        /* \"Utils/TransferHelper.sol\":1279:1330  abi.encodeWithSelector(0x23b872dd, from, to, value) */\n      swap1\n        /* \"Utils/TransferHelper.sol\":1254:1341  token.call(\r... */\n      tag_332\n      jump\t// in\n    tag_331:\n      0x00\n      mload(0x40)\n      dup1\n      dup4\n      sub\n      dup2\n      0x00\n      dup7\n      gas\n      call\n      swap2\n      pop\n      pop\n      returndatasize\n      dup1\n      0x00\n      dup2\n      eq\n      tag_335\n      jumpi\n      mload(0x40)\n      swap2\n      pop\n      and(add(returndatasize, 0x3f), not(0x1f))\n      dup3\n      add\n      0x40\n      mstore\n      returndatasize\n      dup3\n      mstore\n      returndatasize\n      0x00\n      0x20\n      dup5\n      add\n      returndatacopy\n      jump(tag_334)\n    tag_335:\n      0x60\n      swap2\n      pop\n    tag_334:\n      pop\n        /* \"Utils/TransferHelper.sol\":1218:1341  (bool success, bytes memory data) = token.call(\r... */\n      swap2\n      pop\n      swap2\n      pop\n        /* \"Utils/TransferHelper.sol\":1374:1381  success */\n      dup2\n        /* \"Utils/TransferHelper.sol\":1374:1431  success && (data.length == 0 || abi.decode(data, (bool))) */\n      dup1\n      iszero\n      tag_338\n      jumpi\n      pop\n        /* \"Utils/TransferHelper.sol\":1386:1397  data.length */\n      dup1\n      mload\n        /* \"Utils/TransferHelper.sol\":1386:1402  data.length == 0 */\n      iszero\n      dup1\n        /* \"Utils/TransferHelper.sol\":1386:1430  data.length == 0 || abi.decode(data, (bool)) */\n      tag_338\n      jumpi\n      pop\n        /* \"Utils/TransferHelper.sol\":1417:1421  data */\n      dup1\n        /* \"Utils/TransferHelper.sol\":1406:1430  abi.decode(data, (bool)) */\n      dup1\n      0x20\n      add\n      swap1\n      mload\n      dup2\n      add\n      swap1\n      tag_338\n      swap2\n      swap1\n      tag_248\n      jump\t// in\n    tag_338:\n        /* \"Utils/TransferHelper.sol\":1352:1495  require(\r... */\n      tag_339\n      jumpi\n      mload(0x40)\n      shl(0xe5, 0x461bcd)\n      dup2\n      mstore\n        /* \"#utility.yul\":8847:8849   */\n      0x20\n        /* \"Utils/TransferHelper.sol\":1352:1495  require(\r... */\n      0x04\n      dup3\n      add\n        /* \"#utility.yul\":8829:8850   */\n      mstore\n        /* \"#utility.yul\":8886:8888   */\n      0x24\n        /* \"#utility.yul\":8866:8884   */\n      dup1\n      dup3\n      add\n        /* \"#utility.yul\":8859:8889   */\n      mstore\n        /* \"#utility.yul\":8925:8959   */\n      0x5472616e7366657248656c7065723a205452414e534645525f46524f4d5f4641\n        /* \"#utility.yul\":8905:8923   */\n      0x44\n      dup3\n      add\n        /* \"#utility.yul\":8898:8960   */\n      mstore\n      shl(0xe2, 0x12531151)\n        /* \"#utility.yul\":8976:8994   */\n      0x64\n      dup3\n      add\n        /* \"#utility.yul\":8969:9003   */\n      mstore\n        /* \"#utility.yul\":9020:9039   */\n      0x84\n      add\n        /* \"Utils/TransferHelper.sol\":1352:1495  require(\r... */\n      tag_120\n        /* \"#utility.yul\":8819:9045   */\n      jump\n        /* \"Utils/TransferHelper.sol\":1352:1495  require(\r... */\n    tag_339:\n        /* \"Utils/TransferHelper.sol\":1207:1503  {\r... */\n      pop\n      pop\n        /* \"Utils/TransferHelper.sol\":1073:1503  function safeTransferFrom(\r... */\n      pop\n      pop\n      pop\n      pop\n      jump\t// out\n        /* \"Utils/EnumerableSet.sol\":8831:8998  function contains(AddressSet storage set, address value) internal view returns (bool) {\r... */\n    tag_305:\n      sub(shl(0xa0, 0x01), 0x01)\n        /* \"Utils/EnumerableSet.sol\":8965:8988  uint256(uint160(value)) */\n      dup2\n      and\n        /* \"Utils/EnumerableSet.sol\":8911:8915  bool */\n      0x00\n        /* \"Utils/EnumerableSet.sol\":4367:4386  set._indexes[value] */\n      swap1\n      dup2\n      mstore\n        /* \"Utils/EnumerableSet.sol\":4367:4379  set._indexes */\n      0x01\n      dup4\n      add\n        /* \"Utils/EnumerableSet.sol\":4367:4386  set._indexes[value] */\n      0x20\n      mstore\n      0x40\n      dup2\n      keccak256\n      sload\n        /* \"Utils/EnumerableSet.sol\":4367:4391  set._indexes[value] != 0 */\n      iszero\n      iszero\n        /* \"Utils/EnumerableSet.sol\":8935:8990  _contains(set._inner, bytes32(uint256(uint160(value)))) */\n      tag_318\n        /* \"Utils/EnumerableSet.sol\":4270:4399  function _contains(Set storage set, bytes32 value) private view returns (bool) {\r... */\n      jump\n        /* \"Utils/EnumerableSet.sol\":2174:2588  function _add(Set storage set, bytes32 value) private returns (bool) {\r... */\n    tag_319:\n        /* \"Utils/EnumerableSet.sol\":2237:2241  bool */\n      0x00\n        /* \"Utils/EnumerableSet.sol\":4367:4386  set._indexes[value] */\n      dup2\n      dup2\n      mstore\n        /* \"Utils/EnumerableSet.sol\":4367:4379  set._indexes */\n      0x01\n      dup4\n      add\n        /* \"Utils/EnumerableSet.sol\":4367:4386  set._indexes[value] */\n      0x20\n      mstore\n      0x40\n      dup2\n      keccak256\n      sload\n        /* \"Utils/EnumerableSet.sol\":2254:2581  if (!_contains(set, value)) {\r... */\n      tag_347\n      jumpi\n      pop\n        /* \"Utils/EnumerableSet.sol\":2297:2320  set._values.push(value) */\n      dup2\n      sload\n      0x01\n      dup2\n      dup2\n      add\n      dup5\n      sstore\n        /* \"Utils/EnumerableSet.sol\":2297:2308  set._values */\n      0x00\n        /* \"Utils/EnumerableSet.sol\":2297:2320  set._values.push(value) */\n      dup5\n      dup2\n      mstore\n      0x20\n      dup1\n      dup3\n      keccak256\n      swap1\n      swap4\n      add\n      dup5\n      swap1\n      sstore\n        /* \"Utils/EnumerableSet.sol\":2480:2498  set._values.length */\n      dup5\n      sload\n        /* \"Utils/EnumerableSet.sol\":2458:2477  set._indexes[value] */\n      dup5\n      dup3\n      mstore\n        /* \"Utils/EnumerableSet.sol\":2458:2470  set._indexes */\n      dup3\n      dup7\n      add\n        /* \"Utils/EnumerableSet.sol\":2458:2477  set._indexes[value] */\n      swap1\n      swap4\n      mstore\n      0x40\n      swap1\n      keccak256\n        /* \"Utils/EnumerableSet.sol\":2458:2498  set._indexes[value] = set._values.length */\n      swap2\n      swap1\n      swap2\n      sstore\n        /* \"Utils/EnumerableSet.sol\":2513:2524  return true */\n      jump(tag_317)\n        /* \"Utils/EnumerableSet.sol\":2254:2581  if (!_contains(set, value)) {\r... */\n    tag_347:\n      pop\n        /* \"Utils/EnumerableSet.sol\":2564:2569  false */\n      0x00\n        /* \"Utils/EnumerableSet.sol\":2557:2569  return false */\n      jump(tag_317)\n        /* \"#utility.yul\":14:261   */\n    tag_54:\n        /* \"#utility.yul\":73:79   */\n      0x00\n        /* \"#utility.yul\":126:128   */\n      0x20\n        /* \"#utility.yul\":114:123   */\n      dup3\n        /* \"#utility.yul\":105:112   */\n      dup5\n        /* \"#utility.yul\":101:124   */\n      sub\n        /* \"#utility.yul\":97:129   */\n      slt\n        /* \"#utility.yul\":94:96   */\n      iszero\n      tag_353\n      jumpi\n        /* \"#utility.yul\":142:143   */\n      0x00\n        /* \"#utility.yul\":139:140   */\n      dup1\n        /* \"#utility.yul\":132:144   */\n      revert\n        /* \"#utility.yul\":94:96   */\n    tag_353:\n        /* \"#utility.yul\":181:190   */\n      dup2\n        /* \"#utility.yul\":168:191   */\n      calldataload\n        /* \"#utility.yul\":200:231   */\n      tag_354\n        /* \"#utility.yul\":225:230   */\n      dup2\n        /* \"#utility.yul\":200:231   */\n      tag_355\n      jump\t// in\n    tag_354:\n        /* \"#utility.yul\":250:255   */\n      swap4\n        /* \"#utility.yul\":84:261   */\n      swap3\n      pop\n      pop\n      pop\n      jump\t// out\n        /* \"#utility.yul\":266:1527   */\n    tag_70:\n        /* \"#utility.yul\":409:415   */\n      0x00\n        /* \"#utility.yul\":417:423   */\n      dup1\n        /* \"#utility.yul\":425:431   */\n      0x00\n        /* \"#utility.yul\":433:439   */\n      dup1\n        /* \"#utility.yul\":464:467   */\n      0x0180\n        /* \"#utility.yul\":508:510   */\n      dup1\n        /* \"#utility.yul\":496:505   */\n      dup7\n        /* \"#utility.yul\":487:494   */\n      dup9\n        /* \"#utility.yul\":483:506   */\n      sub\n        /* \"#utility.yul\":479:511   */\n      slt\n        /* \"#utility.yul\":476:478   */\n      iszero\n      tag_357\n      jumpi\n        /* \"#utility.yul\":524:525   */\n      0x00\n        /* \"#utility.yul\":521:522   */\n      dup1\n        /* \"#utility.yul\":514:526   */\n      revert\n        /* \"#utility.yul\":476:478   */\n    tag_357:\n        /* \"#utility.yul\":563:572   */\n      dup6\n        /* \"#utility.yul\":550:573   */\n      calldataload\n        /* \"#utility.yul\":582:613   */\n      tag_358\n        /* \"#utility.yul\":607:612   */\n      dup2\n        /* \"#utility.yul\":582:613   */\n      tag_355\n      jump\t// in\n    tag_358:\n        /* \"#utility.yul\":632:637   */\n      swap5\n      pop\n        /* \"#utility.yul\":656:658   */\n      0x20\n        /* \"#utility.yul\":695:713   */\n      dup7\n      dup2\n      add\n        /* \"#utility.yul\":682:714   */\n      calldataload\n        /* \"#utility.yul\":723:756   */\n      tag_359\n        /* \"#utility.yul\":682:714   */\n      dup2\n        /* \"#utility.yul\":723:756   */\n      tag_355\n      jump\t// in\n    tag_359:\n        /* \"#utility.yul\":775:782   */\n      swap5\n      pop\n        /* \"#utility.yul\":834:836   */\n      0x40\n        /* \"#utility.yul\":819:837   */\n      dup8\n      add\n        /* \"#utility.yul\":806:838   */\n      calldataload\n        /* \"#utility.yul\":847:880   */\n      tag_360\n        /* \"#utility.yul\":806:838   */\n      dup2\n        /* \"#utility.yul\":847:880   */\n      tag_355\n      jump\t// in\n    tag_360:\n        /* \"#utility.yul\":899:906   */\n      swap4\n      pop\n        /* \"#utility.yul\":944:947   */\n      0x7f\n        /* \"#utility.yul\":929:948   */\n      dup8\n      add\n        /* \"#utility.yul\":925:958   */\n      dup9\n      sgt\n        /* \"#utility.yul\":915:917   */\n      tag_361\n      jumpi\n        /* \"#utility.yul\":972:973   */\n      0x00\n        /* \"#utility.yul\":969:970   */\n      dup1\n        /* \"#utility.yul\":962:974   */\n      revert\n        /* \"#utility.yul\":915:917   */\n    tag_361:\n        /* \"#utility.yul\":1005:1007   */\n      0x40\n        /* \"#utility.yul\":999:1008   */\n      mload\n        /* \"#utility.yul\":1047:1050   */\n      0x0120\n        /* \"#utility.yul\":1039:1045   */\n      dup2\n        /* \"#utility.yul\":1035:1051   */\n      add\n        /* \"#utility.yul\":1117:1123   */\n      dup2\n        /* \"#utility.yul\":1105:1115   */\n      dup2\n        /* \"#utility.yul\":1102:1124   */\n      lt\n        /* \"#utility.yul\":1081:1099   */\n      0xffffffffffffffff\n        /* \"#utility.yul\":1069:1079   */\n      dup3\n        /* \"#utility.yul\":1066:1100   */\n      gt\n        /* \"#utility.yul\":1063:1125   */\n      or\n        /* \"#utility.yul\":1060:1062   */\n      iszero\n      tag_363\n      jumpi\n        /* \"#utility.yul\":1128:1146   */\n      tag_363\n      tag_364\n      jump\t// in\n    tag_363:\n        /* \"#utility.yul\":1164:1166   */\n      0x40\n        /* \"#utility.yul\":1157:1179   */\n      mstore\n        /* \"#utility.yul\":1199:1205   */\n      dup1\n        /* \"#utility.yul\":1240:1242   */\n      0x60\n        /* \"#utility.yul\":1225:1243   */\n      dup10\n      add\n        /* \"#utility.yul\":1258:1276   */\n      dup5\n      dup11\n      add\n        /* \"#utility.yul\":1255:1286   */\n      dup12\n      lt\n        /* \"#utility.yul\":1252:1254   */\n      iszero\n      tag_365\n      jumpi\n        /* \"#utility.yul\":1299:1300   */\n      0x00\n        /* \"#utility.yul\":1296:1297   */\n      dup1\n        /* \"#utility.yul\":1289:1301   */\n      revert\n        /* \"#utility.yul\":1252:1254   */\n    tag_365:\n        /* \"#utility.yul\":1321:1322   */\n      0x00\n        /* \"#utility.yul\":1312:1322   */\n      swap5\n      pop\n        /* \"#utility.yul\":1331:1496   */\n    tag_366:\n        /* \"#utility.yul\":1345:1349   */\n      0x09\n        /* \"#utility.yul\":1342:1343   */\n      dup6\n        /* \"#utility.yul\":1339:1350   */\n      lt\n        /* \"#utility.yul\":1331:1496   */\n      iszero\n      tag_368\n      jumpi\n        /* \"#utility.yul\":1404:1421   */\n      dup1\n      calldataload\n        /* \"#utility.yul\":1392:1422   */\n      dup3\n      mstore\n        /* \"#utility.yul\":1365:1366   */\n      0x01\n        /* \"#utility.yul\":1358:1367   */\n      swap5\n      swap1\n      swap5\n      add\n      swap4\n        /* \"#utility.yul\":1442:1454   */\n      swap1\n      dup4\n      add\n      swap1\n        /* \"#utility.yul\":1474:1486   */\n      dup4\n      add\n        /* \"#utility.yul\":1331:1496   */\n      jump(tag_366)\n    tag_368:\n        /* \"#utility.yul\":1335:1338   */\n      pop\n      pop\n        /* \"#utility.yul\":1515:1521   */\n      dup1\n        /* \"#utility.yul\":1505:1521   */\n      swap4\n      pop\n      pop\n      pop\n      pop\n        /* \"#utility.yul\":444:1527   */\n      swap3\n      swap6\n      swap2\n      swap5\n      pop\n      swap3\n      pop\n      jump\t// out\n        /* \"#utility.yul\":1532:1809   */\n    tag_248:\n        /* \"#utility.yul\":1599:1605   */\n      0x00\n        /* \"#utility.yul\":1652:1654   */\n      0x20\n        /* \"#utility.yul\":1640:1649   */\n      dup3\n        /* \"#utility.yul\":1631:1638   */\n      dup5\n        /* \"#utility.yul\":1627:1650   */\n      sub\n        /* \"#utility.yul\":1623:1655   */\n      slt\n        /* \"#utility.yul\":1620:1622   */\n      iszero\n      tag_370\n      jumpi\n        /* \"#utility.yul\":1668:1669   */\n      0x00\n        /* \"#utility.yul\":1665:1666   */\n      dup1\n        /* \"#utility.yul\":1658:1670   */\n      revert\n        /* \"#utility.yul\":1620:1622   */\n    tag_370:\n        /* \"#utility.yul\":1700:1709   */\n      dup2\n        /* \"#utility.yul\":1694:1710   */\n      mload\n        /* \"#utility.yul\":1753:1758   */\n      dup1\n        /* \"#utility.yul\":1746:1759   */\n      iszero\n        /* \"#utility.yul\":1739:1760   */\n      iszero\n        /* \"#utility.yul\":1732:1737   */\n      dup2\n        /* \"#utility.yul\":1729:1761   */\n      eq\n        /* \"#utility.yul\":1719:1721   */\n      tag_354\n      jumpi\n        /* \"#utility.yul\":1775:1776   */\n      0x00\n        /* \"#utility.yul\":1772:1773   */\n      dup1\n        /* \"#utility.yul\":1765:1777   */\n      revert\n        /* \"#utility.yul\":1814:1994   */\n    tag_90:\n        /* \"#utility.yul\":1873:1879   */\n      0x00\n        /* \"#utility.yul\":1926:1928   */\n      0x20\n        /* \"#utility.yul\":1914:1923   */\n      dup3\n        /* \"#utility.yul\":1905:1912   */\n      dup5\n        /* \"#utility.yul\":1901:1924   */\n      sub\n        /* \"#utility.yul\":1897:1929   */\n      slt\n        /* \"#utility.yul\":1894:1896   */\n      iszero\n      tag_373\n      jumpi\n        /* \"#utility.yul\":1942:1943   */\n      0x00\n        /* \"#utility.yul\":1939:1940   */\n      dup1\n        /* \"#utility.yul\":1932:1944   */\n      revert\n        /* \"#utility.yul\":1894:1896   */\n    tag_373:\n      pop\n        /* \"#utility.yul\":1965:1988   */\n      calldataload\n      swap2\n        /* \"#utility.yul\":1884:1994   */\n      swap1\n      pop\n      jump\t// out\n        /* \"#utility.yul\":1999:2183   */\n    tag_146:\n        /* \"#utility.yul\":2069:2075   */\n      0x00\n        /* \"#utility.yul\":2122:2124   */\n      0x20\n        /* \"#utility.yul\":2110:2119   */\n      dup3\n        /* \"#utility.yul\":2101:2108   */\n      dup5\n        /* \"#utility.yul\":2097:2120   */\n      sub\n        /* \"#utility.yul\":2093:2125   */\n      slt\n        /* \"#utility.yul\":2090:2092   */\n      iszero\n      tag_375\n      jumpi\n        /* \"#utility.yul\":2138:2139   */\n      0x00\n        /* \"#utility.yul\":2135:2136   */\n      dup1\n        /* \"#utility.yul\":2128:2140   */\n      revert\n        /* \"#utility.yul\":2090:2092   */\n    tag_375:\n      pop\n        /* \"#utility.yul\":2161:2177   */\n      mload\n      swap2\n        /* \"#utility.yul\":2080:2183   */\n      swap1\n      pop\n      jump\t// out\n        /* \"#utility.yul\":2188:2614   */\n    tag_332:\n        /* \"#utility.yul\":2317:2320   */\n      0x00\n        /* \"#utility.yul\":2355:2361   */\n      dup3\n        /* \"#utility.yul\":2349:2362   */\n      mload\n        /* \"#utility.yul\":2380:2381   */\n      0x00\n        /* \"#utility.yul\":2390:2519   */\n    tag_377:\n        /* \"#utility.yul\":2404:2410   */\n      dup2\n        /* \"#utility.yul\":2401:2402   */\n      dup2\n        /* \"#utility.yul\":2398:2411   */\n      lt\n        /* \"#utility.yul\":2390:2519   */\n      iszero\n      tag_379\n      jumpi\n        /* \"#utility.yul\":2502:2506   */\n      0x20\n        /* \"#utility.yul\":2486:2500   */\n      dup2\n      dup7\n      add\n        /* \"#utility.yul\":2482:2507   */\n      dup2\n      add\n        /* \"#utility.yul\":2476:2508   */\n      mload\n        /* \"#utility.yul\":2463:2474   */\n      dup6\n      dup4\n      add\n        /* \"#utility.yul\":2456:2509   */\n      mstore\n        /* \"#utility.yul\":2419:2431   */\n      add\n        /* \"#utility.yul\":2390:2519   */\n      jump(tag_377)\n    tag_379:\n        /* \"#utility.yul\":2537:2543   */\n      dup2\n        /* \"#utility.yul\":2534:2535   */\n      dup2\n        /* \"#utility.yul\":2531:2544   */\n      gt\n        /* \"#utility.yul\":2528:2530   */\n      iszero\n      tag_380\n      jumpi\n        /* \"#utility.yul\":2572:2573   */\n      0x00\n        /* \"#utility.yul\":2563:2569   */\n      dup3\n        /* \"#utility.yul\":2558:2561   */\n      dup6\n        /* \"#utility.yul\":2554:2570   */\n      add\n        /* \"#utility.yul\":2547:2574   */\n      mstore\n        /* \"#utility.yul\":2528:2530   */\n    tag_380:\n      pop\n        /* \"#utility.yul\":2592:2608   */\n      swap2\n      swap1\n      swap2\n      add\n      swap3\n        /* \"#utility.yul\":2325:2614   */\n      swap2\n      pop\n      pop\n      jump\t// out\n        /* \"#utility.yul\":9050:9405   */\n    tag_121:\n        /* \"#utility.yul\":9252:9254   */\n      0x20\n        /* \"#utility.yul\":9234:9255   */\n      dup1\n      dup3\n      mstore\n        /* \"#utility.yul\":9291:9293   */\n      0x1f\n        /* \"#utility.yul\":9271:9289   */\n      swap1\n      dup3\n      add\n        /* \"#utility.yul\":9264:9294   */\n      mstore\n        /* \"#utility.yul\":9330:9363   */\n      0x5265656e7472616e637947756172643a207265656e7472616e742063616c6c00\n        /* \"#utility.yul\":9325:9327   */\n      0x40\n        /* \"#utility.yul\":9310:9328   */\n      dup3\n      add\n        /* \"#utility.yul\":9303:9364   */\n      mstore\n        /* \"#utility.yul\":9396:9398   */\n      0x60\n        /* \"#utility.yul\":9381:9399   */\n      add\n      swap1\n        /* \"#utility.yul\":9224:9405   */\n      jump\t// out\n        /* \"#utility.yul\":11217:11345   */\n    tag_220:\n        /* \"#utility.yul\":11257:11260   */\n      0x00\n        /* \"#utility.yul\":11288:11289   */\n      dup3\n        /* \"#utility.yul\":11284:11290   */\n      not\n        /* \"#utility.yul\":11281:11282   */\n      dup3\n        /* \"#utility.yul\":11278:11291   */\n      gt\n        /* \"#utility.yul\":11275:11277   */\n      iszero\n      tag_406\n      jumpi\n        /* \"#utility.yul\":11294:11312   */\n      tag_406\n      tag_407\n      jump\t// in\n    tag_406:\n      pop\n        /* \"#utility.yul\":11330:11339   */\n      add\n      swap1\n        /* \"#utility.yul\":11265:11345   */\n      jump\t// out\n        /* \"#utility.yul\":11350:11567   */\n    tag_196:\n        /* \"#utility.yul\":11390:11391   */\n      0x00\n        /* \"#utility.yul\":11416:11417   */\n      dup3\n        /* \"#utility.yul\":11406:11408   */\n      tag_409\n      jumpi\n        /* \"#utility.yul\":11460:11470   */\n      0x4e487b71\n        /* \"#utility.yul\":11455:11458   */\n      0xe0\n        /* \"#utility.yul\":11451:11471   */\n      shl\n        /* \"#utility.yul\":11448:11449   */\n      0x00\n        /* \"#utility.yul\":11441:11472   */\n      mstore\n        /* \"#utility.yul\":11495:11499   */\n      0x12\n        /* \"#utility.yul\":11492:11493   */\n      0x04\n        /* \"#utility.yul\":11485:11500   */\n      mstore\n        /* \"#utility.yul\":11523:11527   */\n      0x24\n        /* \"#utility.yul\":11520:11521   */\n      0x00\n        /* \"#utility.yul\":11513:11528   */\n      revert\n        /* \"#utility.yul\":11406:11408   */\n    tag_409:\n      pop\n        /* \"#utility.yul\":11552:11561   */\n      div\n      swap1\n        /* \"#utility.yul\":11396:11567   */\n      jump\t// out\n        /* \"#utility.yul\":11572:11994   */\n    tag_410:\n        /* \"#utility.yul\":11661:11662   */\n      0x01\n        /* \"#utility.yul\":11704:11709   */\n      dup2\n        /* \"#utility.yul\":11661:11662   */\n      dup2\n        /* \"#utility.yul\":11718:11988   */\n    tag_412:\n        /* \"#utility.yul\":11739:11746   */\n      dup1\n        /* \"#utility.yul\":11729:11737   */\n      dup6\n        /* \"#utility.yul\":11726:11747   */\n      gt\n        /* \"#utility.yul\":11718:11988   */\n      iszero\n      tag_414\n      jumpi\n        /* \"#utility.yul\":11798:11802   */\n      dup2\n        /* \"#utility.yul\":11794:11795   */\n      0x00\n        /* \"#utility.yul\":11790:11796   */\n      not\n        /* \"#utility.yul\":11786:11803   */\n      div\n        /* \"#utility.yul\":11780:11784   */\n      dup3\n        /* \"#utility.yul\":11777:11804   */\n      gt\n        /* \"#utility.yul\":11774:11776   */\n      iszero\n      tag_416\n      jumpi\n        /* \"#utility.yul\":11807:11825   */\n      tag_416\n      tag_407\n      jump\t// in\n    tag_416:\n        /* \"#utility.yul\":11857:11864   */\n      dup1\n        /* \"#utility.yul\":11847:11855   */\n      dup6\n        /* \"#utility.yul\":11843:11865   */\n      and\n        /* \"#utility.yul\":11840:11842   */\n      iszero\n      tag_417\n      jumpi\n        /* \"#utility.yul\":11877:11893   */\n      swap2\n      dup2\n      mul\n      swap2\n        /* \"#utility.yul\":11840:11842   */\n    tag_417:\n        /* \"#utility.yul\":11956:11978   */\n      swap4\n      dup5\n      shr\n      swap4\n        /* \"#utility.yul\":11916:11931   */\n      swap1\n      dup1\n      mul\n      swap1\n        /* \"#utility.yul\":11718:11988   */\n      jump(tag_412)\n    tag_414:\n        /* \"#utility.yul\":11722:11725   */\n      pop\n        /* \"#utility.yul\":11636:11994   */\n      swap3\n      pop\n      swap3\n      swap1\n      pop\n      jump\t// out\n        /* \"#utility.yul\":11999:12130   */\n    tag_148:\n        /* \"#utility.yul\":12059:12064   */\n      0x00\n        /* \"#utility.yul\":12088:12124   */\n      tag_318\n        /* \"#utility.yul\":12115:12123   */\n      dup4\n        /* \"#utility.yul\":12109:12113   */\n      dup4\n        /* \"#utility.yul\":12184:12189   */\n      0x00\n        /* \"#utility.yul\":12214:12222   */\n      dup3\n        /* \"#utility.yul\":12204:12206   */\n      tag_422\n      jumpi\n      pop\n        /* \"#utility.yul\":12255:12256   */\n      0x01\n        /* \"#utility.yul\":12269:12274   */\n      jump(tag_317)\n        /* \"#utility.yul\":12204:12206   */\n    tag_422:\n        /* \"#utility.yul\":12303:12307   */\n      dup2\n        /* \"#utility.yul\":12293:12295   */\n      tag_423\n      jumpi\n      pop\n        /* \"#utility.yul\":12340:12341   */\n      0x00\n        /* \"#utility.yul\":12354:12359   */\n      jump(tag_317)\n        /* \"#utility.yul\":12293:12295   */\n    tag_423:\n        /* \"#utility.yul\":12385:12389   */\n      dup2\n        /* \"#utility.yul\":12403:12404   */\n      0x01\n        /* \"#utility.yul\":12398:12457   */\n      dup2\n      eq\n      tag_425\n      jumpi\n        /* \"#utility.yul\":12471:12472   */\n      0x02\n        /* \"#utility.yul\":12466:12596   */\n      dup2\n      eq\n      tag_426\n      jumpi\n        /* \"#utility.yul\":12378:12596   */\n      jump(tag_424)\n        /* \"#utility.yul\":12398:12457   */\n    tag_425:\n        /* \"#utility.yul\":12428:12429   */\n      0x01\n        /* \"#utility.yul\":12419:12429   */\n      swap2\n      pop\n        /* \"#utility.yul\":12442:12447   */\n      pop\n      jump(tag_317)\n        /* \"#utility.yul\":12466:12596   */\n    tag_426:\n        /* \"#utility.yul\":12503:12506   */\n      0xff\n        /* \"#utility.yul\":12493:12501   */\n      dup5\n        /* \"#utility.yul\":12490:12507   */\n      gt\n        /* \"#utility.yul\":12487:12489   */\n      iszero\n      tag_428\n      jumpi\n        /* \"#utility.yul\":12510:12528   */\n      tag_428\n      tag_407\n      jump\t// in\n    tag_428:\n      pop\n      pop\n        /* \"#utility.yul\":12566:12567   */\n      0x01\n        /* \"#utility.yul\":12552:12568   */\n      dup3\n      shl\n        /* \"#utility.yul\":12581:12586   */\n      jump(tag_317)\n        /* \"#utility.yul\":12378:12596   */\n    tag_424:\n      pop\n        /* \"#utility.yul\":12680:12682   */\n      0x20\n        /* \"#utility.yul\":12670:12678   */\n      dup4\n        /* \"#utility.yul\":12667:12683   */\n      lt\n        /* \"#utility.yul\":12661:12664   */\n      0x0133\n        /* \"#utility.yul\":12655:12659   */\n      dup4\n        /* \"#utility.yul\":12652:12665   */\n      lt\n        /* \"#utility.yul\":12648:12684   */\n      and\n        /* \"#utility.yul\":12642:12644   */\n      0x4e\n        /* \"#utility.yul\":12632:12640   */\n      dup5\n        /* \"#utility.yul\":12629:12645   */\n      lt\n        /* \"#utility.yul\":12624:12626   */\n      0x0b\n        /* \"#utility.yul\":12618:12622   */\n      dup5\n        /* \"#utility.yul\":12615:12627   */\n      lt\n        /* \"#utility.yul\":12611:12646   */\n      and\n        /* \"#utility.yul\":12608:12685   */\n      or\n        /* \"#utility.yul\":12605:12607   */\n      iszero\n      tag_429\n      jumpi\n      pop\n        /* \"#utility.yul\":12717:12736   */\n      dup2\n      dup2\n      exp\n        /* \"#utility.yul\":12749:12754   */\n      jump(tag_317)\n        /* \"#utility.yul\":12605:12607   */\n    tag_429:\n        /* \"#utility.yul\":12796:12830   */\n      tag_430\n        /* \"#utility.yul\":12821:12829   */\n      dup4\n        /* \"#utility.yul\":12815:12819   */\n      dup4\n        /* \"#utility.yul\":12796:12830   */\n      tag_410\n      jump\t// in\n    tag_430:\n        /* \"#utility.yul\":12866:12872   */\n      dup1\n        /* \"#utility.yul\":12862:12863   */\n      0x00\n        /* \"#utility.yul\":12858:12864   */\n      not\n        /* \"#utility.yul\":12854:12873   */\n      div\n        /* \"#utility.yul\":12845:12852   */\n      dup3\n        /* \"#utility.yul\":12842:12874   */\n      gt\n        /* \"#utility.yul\":12839:12841   */\n      iszero\n      tag_432\n      jumpi\n        /* \"#utility.yul\":12877:12895   */\n      tag_432\n      tag_407\n      jump\t// in\n    tag_432:\n        /* \"#utility.yul\":12915:12935   */\n      mul\n      swap4\n        /* \"#utility.yul\":12194:12941   */\n      swap3\n      pop\n      pop\n      pop\n      jump\t// out\n        /* \"#utility.yul\":12946:13114   */\n    tag_153:\n        /* \"#utility.yul\":12986:12993   */\n      0x00\n        /* \"#utility.yul\":13052:13053   */\n      dup2\n        /* \"#utility.yul\":13048:13049   */\n      0x00\n        /* \"#utility.yul\":13044:13050   */\n      not\n        /* \"#utility.yul\":13040:13054   */\n      div\n        /* \"#utility.yul\":13037:13038   */\n      dup4\n        /* \"#utility.yul\":13034:13055   */\n      gt\n        /* \"#utility.yul\":13029:13030   */\n      dup3\n        /* \"#utility.yul\":13022:13031   */\n      iszero\n        /* \"#utility.yul\":13015:13032   */\n      iszero\n        /* \"#utility.yul\":13011:13056   */\n      and\n        /* \"#utility.yul\":13008:13010   */\n      iszero\n      tag_435\n      jumpi\n        /* \"#utility.yul\":13059:13077   */\n      tag_435\n      tag_407\n      jump\t// in\n    tag_435:\n      pop\n        /* \"#utility.yul\":13099:13108   */\n      mul\n      swap1\n        /* \"#utility.yul\":12998:13114   */\n      jump\t// out\n        /* \"#utility.yul\":13119:13244   */\n    tag_206:\n        /* \"#utility.yul\":13159:13163   */\n      0x00\n        /* \"#utility.yul\":13187:13188   */\n      dup3\n        /* \"#utility.yul\":13184:13185   */\n      dup3\n        /* \"#utility.yul\":13181:13189   */\n      lt\n        /* \"#utility.yul\":13178:13180   */\n      iszero\n      tag_438\n      jumpi\n        /* \"#utility.yul\":13192:13210   */\n      tag_438\n      tag_407\n      jump\t// in\n    tag_438:\n      pop\n        /* \"#utility.yul\":13229:13238   */\n      sub\n      swap1\n        /* \"#utility.yul\":13168:13244   */\n      jump\t// out\n        /* \"#utility.yul\":13249:13384   */\n    tag_288:\n        /* \"#utility.yul\":13288:13291   */\n      0x00\n      not(0x00)\n        /* \"#utility.yul\":13309:13326   */\n      dup3\n      eq\n        /* \"#utility.yul\":13306:13308   */\n      iszero\n      tag_441\n      jumpi\n        /* \"#utility.yul\":13329:13347   */\n      tag_441\n      tag_407\n      jump\t// in\n    tag_441:\n      pop\n        /* \"#utility.yul\":13376:13377   */\n      0x01\n        /* \"#utility.yul\":13365:13378   */\n      add\n      swap1\n        /* \"#utility.yul\":13296:13384   */\n      jump\t// out\n        /* \"#utility.yul\":13389:13516   */\n    tag_407:\n        /* \"#utility.yul\":13450:13460   */\n      0x4e487b71\n        /* \"#utility.yul\":13445:13448   */\n      0xe0\n        /* \"#utility.yul\":13441:13461   */\n      shl\n        /* \"#utility.yul\":13438:13439   */\n      0x00\n        /* \"#utility.yul\":13431:13462   */\n      mstore\n        /* \"#utility.yul\":13481:13485   */\n      0x11\n        /* \"#utility.yul\":13478:13479   */\n      0x04\n        /* \"#utility.yul\":13471:13486   */\n      mstore\n        /* \"#utility.yul\":13505:13509   */\n      0x24\n        /* \"#utility.yul\":13502:13503   */\n      0x00\n        /* \"#utility.yul\":13495:13510   */\n      revert\n        /* \"#utility.yul\":13653:13780   */\n    tag_364:\n        /* \"#utility.yul\":13714:13724   */\n      0x4e487b71\n        /* \"#utility.yul\":13709:13712   */\n      0xe0\n        /* \"#utility.yul\":13705:13725   */\n      shl\n        /* \"#utility.yul\":13702:13703   */\n      0x00\n        /* \"#utility.yul\":13695:13726   */\n      mstore\n        /* \"#utility.yul\":13745:13749   */\n      0x41\n        /* \"#utility.yul\":13742:13743   */\n      0x04\n        /* \"#utility.yul\":13735:13750   */\n      mstore\n        /* \"#utility.yul\":13769:13773   */\n      0x24\n        /* \"#utility.yul\":13766:13767   */\n      0x00\n        /* \"#utility.yul\":13759:13774   */\n      revert\n        /* \"#utility.yul\":13785:13916   */\n    tag_355:\n      sub(shl(0xa0, 0x01), 0x01)\n        /* \"#utility.yul\":13860:13891   */\n      dup2\n      and\n        /* \"#utility.yul\":13850:13892   */\n      dup2\n      eq\n        /* \"#utility.yul\":13840:13842   */\n      tag_139\n      jumpi\n        /* \"#utility.yul\":13906:13907   */\n      0x00\n        /* \"#utility.yul\":13903:13904   */\n      dup1\n        /* \"#utility.yul\":13896:13908   */\n      revert\n\n    auxdata: 0xa264697066735822122089767492f0423921adfcdc46fd2d6453007c956a367a934677196d3f0471eb3264736f6c63430008050033\n}\n",
				"bytecode": {
					"linkReferences": {},
					"object": "608060405260016000556200001433620000a5565b6019805473c778417e063141139fce010982780140aa0cd5ab6001600160a01b031990911617905562000069601b736ccb41eeda5a073076f3e7dc1614c185b5fa41ed620000f7602090811b6200123517901c565b5062000099734f0b12bbf40fc182559822a5b1db6d34dbc3e016601b620000f760201b620012351790919060201c565b506014601a5562000169565b600180546001600160a01b038381166001600160a01b0319831681179093556040519116919082907f8be0079c531659141344cd1fd0a4f28419497f9722a3daafe3b4186f6b6457e090600090a35050565b60006200010e836001600160a01b03841662000117565b90505b92915050565b6000818152600183016020526040812054620001605750815460018181018455600084815260208082209093018490558454848252828601909352604090209190915562000111565b50600062000111565b61180680620001796000396000f3fe60806040526004361061011f5760003560e01c80638f1eae4c116100a0578063b6b55f2511610064578063b6b55f25146103d5578063cad5b0f7146103e8578063e2d3f4231461040d578063f2fde38b14610471578063f8b2cb4f1461049157600080fd5b80638f1eae4c146102fb57806395661e701461031b578063ab33985a14610330578063acfb235514610345578063ad5c4648146103b557600080fd5b806342d8a9da116100e757806342d8a9da1461026857806356c5f3491461027f578063715018a6146102ac578063861faf5f146102c15780638da5cb5b146102c957600080fd5b806312e5d0b91461012457806318856a2f146101595780631df4ccfc14610219578063200d2ed21461023d5780633b5ef2ad14610252575b600080fd5b34801561013057600080fd5b50600b54600c5461013f919082565b604080519283526020830191909152015b60405180910390f35b34801561016557600080fd5b50600d54600e54600f546010546011546012546013546014546015546016546017546018546101ad9b6001600160a01b039081169b81169a16989796959493929160ff16908c565b604080516001600160a01b039d8e1681529b8d1660208d015299909b16988a01989098526060890196909652608088019490945260a087019290925260c086015260e0850152610100840152610120830152151561014082015261016081019190915261018001610150565b34801561022557600080fd5b5061022f601d5481565b604051908152602001610150565b34801561024957600080fd5b5061022f6104b9565b34801561025e57600080fd5b5061022f601a5481565b34801561027457600080fd5b5061027d6104e2565b005b34801561028b57600080fd5b5061022f61029a36600461146a565b60036020526000908152604090205481565b3480156102b857600080fd5b5061027d610568565b61027d6105ce565b3480156102d557600080fd5b506001546001600160a01b03165b6040516001600160a01b039091168152602001610150565b34801561030757600080fd5b5061027d61031636600461148e565b6105fd565b34801561032757600080fd5b5061027d610978565b34801561033c57600080fd5b5061027d610b62565b34801561035157600080fd5b5060045460055460065460075460085460095461037c95949392919060ff8082169161010090041687565b6040805197885260208801969096529486019390935260608501919091526080840152151560a0830152151560c082015260e001610150565b3480156103c157600080fd5b506019546102e3906001600160a01b031681565b61027d6103e3366004611575565b610d96565b3480156103f457600080fd5b506103fd61115b565b6040519015158152602001610150565b34801561041957600080fd5b5061045161042836600461146a565b600260208190526000918252604090912080546001820154928201546003909201549092919084565b604080519485526020850193909352918301526060820152608001610150565b34801561047d57600080fd5b5061027d61048c36600461146a565b61116d565b34801561049d57600080fd5b5061022f6104ac36600461146a565b6001600160a01b03163190565b6011546000904210156104cc5750600090565b6012544211156104dc5750600290565b50600190565b6002600054141561050e5760405162461bcd60e51b8152600401610505906115e2565b60405180910390fd5b600260005561051b6104b9565b6002146105615760405162461bcd60e51b815260206004820152601460248201527353616c65206e6f7420796574207375636573737360601b6044820152606401610505565b6001600055565b6001546001600160a01b031633146105c25760405162461bcd60e51b815260206004820181905260248201527f4f776e61626c653a2063616c6c6572206973206e6f7420746865206f776e65726044820152606401610505565b6105cc6000611253565b565b60405133904780156108fc02916000818181858888f193505050501580156105fa573d6000803e3d6000fd5b50565b600d80546001600160a01b038087166001600160a01b031992831617909255600e80548684169083168117909155600f8054938616939092169290921790556040805163313ce56760e01b8152905163313ce56791600480820192602092909190829003018186803b15801561067257600080fd5b505afa158015610686573d6000803e3d6000fd5b505050506040513d601f19601f820116820180604052508101906106aa919061158e565b6106b590600a611696565b81516106c1919061173e565b6010556020808201516011556040808301516012556060830151601355600f54815163313ce56760e01b815291516001600160a01b039091169263313ce5679260048082019391829003018186803b15801561071c57600080fd5b505afa158015610730573d6000803e3d6000fd5b505050506040513d601f19601f82011682018060405250810190610754919061158e565b61075f90600a611696565b608082015161076e919061173e565b60145560a081015160155560c0810151601655600f546040805163313ce56760e01b815290516001600160a01b039092169163313ce56791600480820192602092909190829003018186803b1580156107c657600080fd5b505afa1580156107da573d6000803e3d6000fd5b505050506040513d601f19601f820116820180604052508101906107fe919061158e565b61080990600a611696565b60e0820151610818919061173e565b600b55600f546040805163313ce56760e01b815290516001600160a01b039092169163313ce56791600480820192602092909190829003018186803b15801561086057600080fd5b505afa158015610874573d6000803e3d6000fd5b505050506040513d601f19601f82011682018060405250810190610898919061158e565b6108a390600a611696565b6101008201516108b3919061173e565b600c55600f546019546017805460ff19166001600160a01b0392831692909316918214929092179091556040805163313ce56760e01b8152905163313ce56791600480820192602092909190829003018186803b15801561091357600080fd5b505afa158015610927573d6000803e3d6000fd5b505050506040513d601f19601f8201168201806040525081019061094b919061158e565b61095690600a611696565b600b54601054610965916112a5565b61096f9190611631565b60185550505050565b6002600054141561099b5760405162461bcd60e51b8152600401610505906115e2565b60026000556109a86104b9565b6001146109e65760405162461bcd60e51b815260206004820152600c60248201526b53616c65207375636573737360a01b6044820152606401610505565b6007546004546000916109f89161175d565b11610a455760405162461bcd60e51b815260206004820152601b60248201527f416c6c20746f6b656e20686173206265656e20776974686472617700000000006044820152606401610505565b3360009081526002602052604090208054610ab05760405162461bcd60e51b815260206004820152602560248201527f596f7520726566756e6420616c6c206f722068617665206e6f7420626f7567686044820152641d081e595d60da1b6064820152608401610505565b8054601554600091610adb916103e891610ad591610acf9084906112b1565b906112a5565b906112bd565b8254909150610aeb90829061175d565b601d6000828254610afc9190611619565b909155505060078054829190600090610b16908490611619565b9091555050600080835560018301819055426002840155604051339183156108fc02918491818181858888f19350505050158015610b58573d6000803e3d6000fd5b5050600160005550565b60026000541415610b855760405162461bcd60e51b8152600401610505906115e2565b6002600055610b926104b9565b600114610bd05760405162461bcd60e51b815260206004820152600c60248201526b53616c65207375636573737360a01b6044820152606401610505565b600654600554600091610be29161175d565b11610c2f5760405162461bcd60e51b815260206004820152601b60248201527f416c6c20746f6b656e20686173206265656e20776974686472617700000000006044820152606401610505565b3360009081526002602052604090206003810154600182015411610ca15760405162461bcd60e51b8152602060048201526024808201527f596f7520636c61696d20616c6c206f722068617665206e6f7420626f75676874604482015263081e595d60e21b6064820152608401610505565b6000610ccb6103e8610ad58460010154610acf600d600901546103e86112b190919063ffffffff16565b90508060046002016000828254610ce29190611619565b9250508190555080826003016000828254610cfd9190611619565b909155505060008083556001830155426002830155600e5460405163a9059cbb60e01b8152336004820152602481018390526001600160a01b039091169063a9059cbb90604401602060405180830381600087803b158015610d5e57600080fd5b505af1158015610d72573d6000803e3d6000fd5b505050506040513d601f19601f82011682018060405250810190610b589190611553565b60026000541415610db95760405162461bcd60e51b8152600401610505906115e2565b6002600055610dc66104b9565b600114610e025760405162461bcd60e51b815260206004820152600a6024820152694e6f742061637469766560b01b6044820152606401610505565b336000908152600260205260408120601354909183918291906103e890831015610e615760405162461bcd60e51b815260206004820152601060248201526f4e6f7420656e6f7567682076616c756560801b6044820152606401610505565b601454831115610ea45760405162461bcd60e51b815260206004820152600e60248201526d4f766572666c6f772076616c756560901b6044820152606401610505565b610eac61115b565b610edc57610ecd81610ad585610acf601a54866112b190919063ffffffff16565b9250610ed9838561175d565b91505b8454601454600091610eed9161175d565b600454601854919250600091610f03919061175d565b90506000818311610f145782610f16565b815b905080861115610f5a5760405162461bcd60e51b815260206004820152600f60248201526e53616c65206973207375636365737360881b6044820152606401610505565b6000611001600d60020160009054906101000a90046001600160a01b03166001600160a01b031663313ce5676040518163ffffffff1660e01b815260040160206040518083038186803b158015610fb057600080fd5b505afa158015610fc4573d6000803e3d6000fd5b505050506040513d601f19601f82011682018060405250810190610fe8919061158e565b610ff390600a611696565b601054610ad5908a906112a5565b9050878960000160008282546110179190611619565b92505081905550808960010160008282546110329190611619565b90915550506004805488919060009061104c908490611619565b909155505060058054829190600090611066908490611619565b90915550506008805490600061107b83611774565b9091555050336000908152600360205260408120805488929061109f908490611619565b9250508190555085601d60008282546110b89190611619565b909155505060175460ff1680156110d75750346110d58789611619565b105b1561111f57336108fc876110eb8a3461175d565b6110f5919061175d565b6040518115909202916000818181858888f1935050505015801561111d573d6000803e3d6000fd5b505b60175460ff1661114a57600f5461114a906001600160a01b031633306111458a8c611619565b6112c9565b505060016000555050505050505050565b6000611168601b336113f9565b905090565b6001546001600160a01b031633146111c75760405162461bcd60e51b815260206004820181905260248201527f4f776e61626c653a2063616c6c6572206973206e6f7420746865206f776e65726044820152606401610505565b6001600160a01b03811661122c5760405162461bcd60e51b815260206004820152602660248201527f4f776e61626c653a206e6577206f776e657220697320746865207a65726f206160448201526564647265737360d01b6064820152608401610505565b6105fa81611253565b600061124a836001600160a01b03841661141b565b90505b92915050565b600180546001600160a01b038381166001600160a01b0319831681179093556040519116919082907f8be0079c531659141344cd1fd0a4f28419497f9722a3daafe3b4186f6b6457e090600090a35050565b600061124a828461173e565b600061124a828461175d565b600061124a8284611631565b604080516001600160a01b0385811660248301528481166044830152606480830185905283518084039091018152608490920183526020820180516001600160e01b03166323b872dd60e01b179052915160009283929088169161132d91906115a7565b6000604051808303816000865af19150503d806000811461136a576040519150601f19603f3d011682016040523d82523d6000602084013e61136f565b606091505b50915091508180156113995750805115806113995750808060200190518101906113999190611553565b6113f15760405162461bcd60e51b8152602060048201526024808201527f5472616e7366657248656c7065723a205452414e534645525f46524f4d5f46416044820152631253115160e21b6064820152608401610505565b505050505050565b6001600160a01b0381166000908152600183016020526040812054151561124a565b60008181526001830160205260408120546114625750815460018181018455600084815260208082209093018490558454848252828601909352604090209190915561124d565b50600061124d565b60006020828403121561147c57600080fd5b8135611487816117bb565b9392505050565b6000806000806101808086880312156114a657600080fd5b85356114b1816117bb565b94506020868101356114c2816117bb565b945060408701356114d2816117bb565b9350607f870188136114e357600080fd5b604051610120810181811067ffffffffffffffff82111715611507576115076117a5565b6040528060608901848a018b101561151e57600080fd5b600094505b6009851015611542578035825260019490940193908301908301611523565b505080935050505092959194509250565b60006020828403121561156557600080fd5b8151801515811461148757600080fd5b60006020828403121561158757600080fd5b5035919050565b6000602082840312156115a057600080fd5b5051919050565b6000825160005b818110156115c857602081860181015185830152016115ae565b818111156115d7576000828501525b509190910192915050565b6020808252601f908201527f5265656e7472616e637947756172643a207265656e7472616e742063616c6c00604082015260600190565b6000821982111561162c5761162c61178f565b500190565b60008261164e57634e487b7160e01b600052601260045260246000fd5b500490565b600181815b8085111561168e5781600019048211156116745761167461178f565b8085161561168157918102915b93841c9390800290611658565b509250929050565b600061124a83836000826116ac5750600161124d565b816116b95750600061124d565b81600181146116cf57600281146116d9576116f5565b600191505061124d565b60ff8411156116ea576116ea61178f565b50506001821b61124d565b5060208310610133831016604e8410600b8410161715611718575081810a61124d565b6117228383611653565b80600019048211156117365761173661178f565b029392505050565b60008160001904831182151516156117585761175861178f565b500290565b60008282101561176f5761176f61178f565b500390565b60006000198214156117885761178861178f565b5060010190565b634e487b7160e01b600052601160045260246000fd5b634e487b7160e01b600052604160045260246000fd5b6001600160a01b03811681146105fa57600080fdfea264697066735822122089767492f0423921adfcdc46fd2d6453007c956a367a934677196d3f0471eb3264736f6c63430008050033",
					"opcodes": "PUSH1 0x80 PUSH1 0x40 MSTORE PUSH1 0x1 PUSH1 0x0 SSTORE PUSH3 0x14 CALLER PUSH3 0xA5 JUMP JUMPDEST PUSH1 0x19 DUP1 SLOAD PUSH20 0xC778417E063141139FCE010982780140AA0CD5AB PUSH1 0x1 PUSH1 0x1 PUSH1 0xA0 SHL SUB NOT SWAP1 SWAP2 AND OR SWAP1 SSTORE PUSH3 0x69 PUSH1 0x1B PUSH20 0x6CCB41EEDA5A073076F3E7DC1614C185B5FA41ED PUSH3 0xF7 PUSH1 0x20 SWAP1 DUP2 SHL PUSH3 0x1235 OR SWAP1 SHR JUMP JUMPDEST POP PUSH3 0x99 PUSH20 0x4F0B12BBF40FC182559822A5B1DB6D34DBC3E016 PUSH1 0x1B PUSH3 0xF7 PUSH1 0x20 SHL PUSH3 0x1235 OR SWAP1 SWAP2 SWAP1 PUSH1 0x20 SHR JUMP JUMPDEST POP PUSH1 0x14 PUSH1 0x1A SSTORE PUSH3 0x169 JUMP JUMPDEST PUSH1 0x1 DUP1 SLOAD PUSH1 0x1 PUSH1 0x1 PUSH1 0xA0 SHL SUB DUP4 DUP2 AND PUSH1 0x1 PUSH1 0x1 PUSH1 0xA0 SHL SUB NOT DUP4 AND DUP2 OR SWAP1 SWAP4 SSTORE PUSH1 0x40 MLOAD SWAP2 AND SWAP2 SWAP1 DUP3 SWAP1 PUSH32 0x8BE0079C531659141344CD1FD0A4F28419497F9722A3DAAFE3B4186F6B6457E0 SWAP1 PUSH1 0x0 SWAP1 LOG3 POP POP JUMP JUMPDEST PUSH1 0x0 PUSH3 0x10E DUP4 PUSH1 0x1 PUSH1 0x1 PUSH1 0xA0 SHL SUB DUP5 AND PUSH3 0x117 JUMP JUMPDEST SWAP1 POP JUMPDEST SWAP3 SWAP2 POP POP JUMP JUMPDEST PUSH1 0x0 DUP2 DUP2 MSTORE PUSH1 0x1 DUP4 ADD PUSH1 0x20 MSTORE PUSH1 0x40 DUP2 KECCAK256 SLOAD PUSH3 0x160 JUMPI POP DUP2 SLOAD PUSH1 0x1 DUP2 DUP2 ADD DUP5 SSTORE PUSH1 0x0 DUP5 DUP2 MSTORE PUSH1 0x20 DUP1 DUP3 KECCAK256 SWAP1 SWAP4 ADD DUP5 SWAP1 SSTORE DUP5 SLOAD DUP5 DUP3 MSTORE DUP3 DUP7 ADD SWAP1 SWAP4 MSTORE PUSH1 0x40 SWAP1 KECCAK256 SWAP2 SWAP1 SWAP2 SSTORE PUSH3 0x111 JUMP JUMPDEST POP PUSH1 0x0 PUSH3 0x111 JUMP JUMPDEST PUSH2 0x1806 DUP1 PUSH3 0x179 PUSH1 0x0 CODECOPY PUSH1 0x0 RETURN INVALID PUSH1 0x80 PUSH1 0x40 MSTORE PUSH1 0x4 CALLDATASIZE LT PUSH2 0x11F JUMPI PUSH1 0x0 CALLDATALOAD PUSH1 0xE0 SHR DUP1 PUSH4 0x8F1EAE4C GT PUSH2 0xA0 JUMPI DUP1 PUSH4 0xB6B55F25 GT PUSH2 0x64 JUMPI DUP1 PUSH4 0xB6B55F25 EQ PUSH2 0x3D5 JUMPI DUP1 PUSH4 0xCAD5B0F7 EQ PUSH2 0x3E8 JUMPI DUP1 PUSH4 0xE2D3F423 EQ PUSH2 0x40D JUMPI DUP1 PUSH4 0xF2FDE38B EQ PUSH2 0x471 JUMPI DUP1 PUSH4 0xF8B2CB4F EQ PUSH2 0x491 JUMPI PUSH1 0x0 DUP1 REVERT JUMPDEST DUP1 PUSH4 0x8F1EAE4C EQ PUSH2 0x2FB JUMPI DUP1 PUSH4 0x95661E70 EQ PUSH2 0x31B JUMPI DUP1 PUSH4 0xAB33985A EQ PUSH2 0x330 JUMPI DUP1 PUSH4 0xACFB2355 EQ PUSH2 0x345 JUMPI DUP1 PUSH4 0xAD5C4648 EQ PUSH2 0x3B5 JUMPI PUSH1 0x0 DUP1 REVERT JUMPDEST DUP1 PUSH4 0x42D8A9DA GT PUSH2 0xE7 JUMPI DUP1 PUSH4 0x42D8A9DA EQ PUSH2 0x268 JUMPI DUP1 PUSH4 0x56C5F349 EQ PUSH2 0x27F JUMPI DUP1 PUSH4 0x715018A6 EQ PUSH2 0x2AC JUMPI DUP1 PUSH4 0x861FAF5F EQ PUSH2 0x2C1 JUMPI DUP1 PUSH4 0x8DA5CB5B EQ PUSH2 0x2C9 JUMPI PUSH1 0x0 DUP1 REVERT JUMPDEST DUP1 PUSH4 0x12E5D0B9 EQ PUSH2 0x124 JUMPI DUP1 PUSH4 0x18856A2F EQ PUSH2 0x159 JUMPI DUP1 PUSH4 0x1DF4CCFC EQ PUSH2 0x219 JUMPI DUP1 PUSH4 0x200D2ED2 EQ PUSH2 0x23D JUMPI DUP1 PUSH4 0x3B5EF2AD EQ PUSH2 0x252 JUMPI JUMPDEST PUSH1 0x0 DUP1 REVERT JUMPDEST CALLVALUE DUP1 ISZERO PUSH2 0x130 JUMPI PUSH1 0x0 DUP1 REVERT JUMPDEST POP PUSH1 0xB SLOAD PUSH1 0xC SLOAD PUSH2 0x13F SWAP2 SWAP1 DUP3 JUMP JUMPDEST PUSH1 0x40 DUP1 MLOAD SWAP3 DUP4 MSTORE PUSH1 0x20 DUP4 ADD SWAP2 SWAP1 SWAP2 MSTORE ADD JUMPDEST PUSH1 0x40 MLOAD DUP1 SWAP2 SUB SWAP1 RETURN JUMPDEST CALLVALUE DUP1 ISZERO PUSH2 0x165 JUMPI PUSH1 0x0 DUP1 REVERT JUMPDEST POP PUSH1 0xD SLOAD PUSH1 0xE SLOAD PUSH1 0xF SLOAD PUSH1 0x10 SLOAD PUSH1 0x11 SLOAD PUSH1 0x12 SLOAD PUSH1 0x13 SLOAD PUSH1 0x14 SLOAD PUSH1 0x15 SLOAD PUSH1 0x16 SLOAD PUSH1 0x17 SLOAD PUSH1 0x18 SLOAD PUSH2 0x1AD SWAP12 PUSH1 0x1 PUSH1 0x1 PUSH1 0xA0 SHL SUB SWAP1 DUP2 AND SWAP12 DUP2 AND SWAP11 AND SWAP9 SWAP8 SWAP7 SWAP6 SWAP5 SWAP4 SWAP3 SWAP2 PUSH1 0xFF AND SWAP1 DUP13 JUMP JUMPDEST PUSH1 0x40 DUP1 MLOAD PUSH1 0x1 PUSH1 0x1 PUSH1 0xA0 SHL SUB SWAP14 DUP15 AND DUP2 MSTORE SWAP12 DUP14 AND PUSH1 0x20 DUP14 ADD MSTORE SWAP10 SWAP1 SWAP12 AND SWAP9 DUP11 ADD SWAP9 SWAP1 SWAP9 MSTORE PUSH1 0x60 DUP10 ADD SWAP7 SWAP1 SWAP7 MSTORE PUSH1 0x80 DUP9 ADD SWAP5 SWAP1 SWAP5 MSTORE PUSH1 0xA0 DUP8 ADD SWAP3 SWAP1 SWAP3 MSTORE PUSH1 0xC0 DUP7 ADD MSTORE PUSH1 0xE0 DUP6 ADD MSTORE PUSH2 0x100 DUP5 ADD MSTORE PUSH2 0x120 DUP4 ADD MSTORE ISZERO ISZERO PUSH2 0x140 DUP3 ADD MSTORE PUSH2 0x160 DUP2 ADD SWAP2 SWAP1 SWAP2 MSTORE PUSH2 0x180 ADD PUSH2 0x150 JUMP JUMPDEST CALLVALUE DUP1 ISZERO PUSH2 0x225 JUMPI PUSH1 0x0 DUP1 REVERT JUMPDEST POP PUSH2 0x22F PUSH1 0x1D SLOAD DUP2 JUMP JUMPDEST PUSH1 0x40 MLOAD SWAP1 DUP2 MSTORE PUSH1 0x20 ADD PUSH2 0x150 JUMP JUMPDEST CALLVALUE DUP1 ISZERO PUSH2 0x249 JUMPI PUSH1 0x0 DUP1 REVERT JUMPDEST POP PUSH2 0x22F PUSH2 0x4B9 JUMP JUMPDEST CALLVALUE DUP1 ISZERO PUSH2 0x25E JUMPI PUSH1 0x0 DUP1 REVERT JUMPDEST POP PUSH2 0x22F PUSH1 0x1A SLOAD DUP2 JUMP JUMPDEST CALLVALUE DUP1 ISZERO PUSH2 0x274 JUMPI PUSH1 0x0 DUP1 REVERT JUMPDEST POP PUSH2 0x27D PUSH2 0x4E2 JUMP JUMPDEST STOP JUMPDEST CALLVALUE DUP1 ISZERO PUSH2 0x28B JUMPI PUSH1 0x0 DUP1 REVERT JUMPDEST POP PUSH2 0x22F PUSH2 0x29A CALLDATASIZE PUSH1 0x4 PUSH2 0x146A JUMP JUMPDEST PUSH1 0x3 PUSH1 0x20 MSTORE PUSH1 0x0 SWAP1 DUP2 MSTORE PUSH1 0x40 SWAP1 KECCAK256 SLOAD DUP2 JUMP JUMPDEST CALLVALUE DUP1 ISZERO PUSH2 0x2B8 JUMPI PUSH1 0x0 DUP1 REVERT JUMPDEST POP PUSH2 0x27D PUSH2 0x568 JUMP JUMPDEST PUSH2 0x27D PUSH2 0x5CE JUMP JUMPDEST CALLVALUE DUP1 ISZERO PUSH2 0x2D5 JUMPI PUSH1 0x0 DUP1 REVERT JUMPDEST POP PUSH1 0x1 SLOAD PUSH1 0x1 PUSH1 0x1 PUSH1 0xA0 SHL SUB AND JUMPDEST PUSH1 0x40 MLOAD PUSH1 0x1 PUSH1 0x1 PUSH1 0xA0 SHL SUB SWAP1 SWAP2 AND DUP2 MSTORE PUSH1 0x20 ADD PUSH2 0x150 JUMP JUMPDEST CALLVALUE DUP1 ISZERO PUSH2 0x307 JUMPI PUSH1 0x0 DUP1 REVERT JUMPDEST POP PUSH2 0x27D PUSH2 0x316 CALLDATASIZE PUSH1 0x4 PUSH2 0x148E JUMP JUMPDEST PUSH2 0x5FD JUMP JUMPDEST CALLVALUE DUP1 ISZERO PUSH2 0x327 JUMPI PUSH1 0x0 DUP1 REVERT JUMPDEST POP PUSH2 0x27D PUSH2 0x978 JUMP JUMPDEST CALLVALUE DUP1 ISZERO PUSH2 0x33C JUMPI PUSH1 0x0 DUP1 REVERT JUMPDEST POP PUSH2 0x27D PUSH2 0xB62 JUMP JUMPDEST CALLVALUE DUP1 ISZERO PUSH2 0x351 JUMPI PUSH1 0x0 DUP1 REVERT JUMPDEST POP PUSH1 0x4 SLOAD PUSH1 0x5 SLOAD PUSH1 0x6 SLOAD PUSH1 0x7 SLOAD PUSH1 0x8 SLOAD PUSH1 0x9 SLOAD PUSH2 0x37C SWAP6 SWAP5 SWAP4 SWAP3 SWAP2 SWAP1 PUSH1 0xFF DUP1 DUP3 AND SWAP2 PUSH2 0x100 SWAP1 DIV AND DUP8 JUMP JUMPDEST PUSH1 0x40 DUP1 MLOAD SWAP8 DUP9 MSTORE PUSH1 0x20 DUP9 ADD SWAP7 SWAP1 SWAP7 MSTORE SWAP5 DUP7 ADD SWAP4 SWAP1 SWAP4 MSTORE PUSH1 0x60 DUP6 ADD SWAP2 SWAP1 SWAP2 MSTORE PUSH1 0x80 DUP5 ADD MSTORE ISZERO ISZERO PUSH1 0xA0 DUP4 ADD MSTORE ISZERO ISZERO PUSH1 0xC0 DUP3 ADD MSTORE PUSH1 0xE0 ADD PUSH2 0x150 JUMP JUMPDEST CALLVALUE DUP1 ISZERO PUSH2 0x3C1 JUMPI PUSH1 0x0 DUP1 REVERT JUMPDEST POP PUSH1 0x19 SLOAD PUSH2 0x2E3 SWAP1 PUSH1 0x1 PUSH1 0x1 PUSH1 0xA0 SHL SUB AND DUP2 JUMP JUMPDEST PUSH2 0x27D PUSH2 0x3E3 CALLDATASIZE PUSH1 0x4 PUSH2 0x1575 JUMP JUMPDEST PUSH2 0xD96 JUMP JUMPDEST CALLVALUE DUP1 ISZERO PUSH2 0x3F4 JUMPI PUSH1 0x0 DUP1 REVERT JUMPDEST POP PUSH2 0x3FD PUSH2 0x115B JUMP JUMPDEST PUSH1 0x40 MLOAD SWAP1 ISZERO ISZERO DUP2 MSTORE PUSH1 0x20 ADD PUSH2 0x150 JUMP JUMPDEST CALLVALUE DUP1 ISZERO PUSH2 0x419 JUMPI PUSH1 0x0 DUP1 REVERT JUMPDEST POP PUSH2 0x451 PUSH2 0x428 CALLDATASIZE PUSH1 0x4 PUSH2 0x146A JUMP JUMPDEST PUSH1 0x2 PUSH1 0x20 DUP2 SWAP1 MSTORE PUSH1 0x0 SWAP2 DUP3 MSTORE PUSH1 0x40 SWAP1 SWAP2 KECCAK256 DUP1 SLOAD PUSH1 0x1 DUP3 ADD SLOAD SWAP3 DUP3 ADD SLOAD PUSH1 0x3 SWAP1 SWAP3 ADD SLOAD SWAP1 SWAP3 SWAP2 SWAP1 DUP5 JUMP JUMPDEST PUSH1 0x40 DUP1 MLOAD SWAP5 DUP6 MSTORE PUSH1 0x20 DUP6 ADD SWAP4 SWAP1 SWAP4 MSTORE SWAP2 DUP4 ADD MSTORE PUSH1 0x60 DUP3 ADD MSTORE PUSH1 0x80 ADD PUSH2 0x150 JUMP JUMPDEST CALLVALUE DUP1 ISZERO PUSH2 0x47D JUMPI PUSH1 0x0 DUP1 REVERT JUMPDEST POP PUSH2 0x27D PUSH2 0x48C CALLDATASIZE PUSH1 0x4 PUSH2 0x146A JUMP JUMPDEST PUSH2 0x116D JUMP JUMPDEST CALLVALUE DUP1 ISZERO PUSH2 0x49D JUMPI PUSH1 0x0 DUP1 REVERT JUMPDEST POP PUSH2 0x22F PUSH2 0x4AC CALLDATASIZE PUSH1 0x4 PUSH2 0x146A JUMP JUMPDEST PUSH1 0x1 PUSH1 0x1 PUSH1 0xA0 SHL SUB AND BALANCE SWAP1 JUMP JUMPDEST PUSH1 0x11 SLOAD PUSH1 0x0 SWAP1 TIMESTAMP LT ISZERO PUSH2 0x4CC JUMPI POP PUSH1 0x0 SWAP1 JUMP JUMPDEST PUSH1 0x12 SLOAD TIMESTAMP GT ISZERO PUSH2 0x4DC JUMPI POP PUSH1 0x2 SWAP1 JUMP JUMPDEST POP PUSH1 0x1 SWAP1 JUMP JUMPDEST PUSH1 0x2 PUSH1 0x0 SLOAD EQ ISZERO PUSH2 0x50E JUMPI PUSH1 0x40 MLOAD PUSH3 0x461BCD PUSH1 0xE5 SHL DUP2 MSTORE PUSH1 0x4 ADD PUSH2 0x505 SWAP1 PUSH2 0x15E2 JUMP JUMPDEST PUSH1 0x40 MLOAD DUP1 SWAP2 SUB SWAP1 REVERT JUMPDEST PUSH1 0x2 PUSH1 0x0 SSTORE PUSH2 0x51B PUSH2 0x4B9 JUMP JUMPDEST PUSH1 0x2 EQ PUSH2 0x561 JUMPI PUSH1 0x40 MLOAD PUSH3 0x461BCD PUSH1 0xE5 SHL DUP2 MSTORE PUSH1 0x20 PUSH1 0x4 DUP3 ADD MSTORE PUSH1 0x14 PUSH1 0x24 DUP3 ADD MSTORE PUSH20 0x53616C65206E6F74207965742073756365737373 PUSH1 0x60 SHL PUSH1 0x44 DUP3 ADD MSTORE PUSH1 0x64 ADD PUSH2 0x505 JUMP JUMPDEST PUSH1 0x1 PUSH1 0x0 SSTORE JUMP JUMPDEST PUSH1 0x1 SLOAD PUSH1 0x1 PUSH1 0x1 PUSH1 0xA0 SHL SUB AND CALLER EQ PUSH2 0x5C2 JUMPI PUSH1 0x40 MLOAD PUSH3 0x461BCD PUSH1 0xE5 SHL DUP2 MSTORE PUSH1 0x20 PUSH1 0x4 DUP3 ADD DUP2 SWAP1 MSTORE PUSH1 0x24 DUP3 ADD MSTORE PUSH32 0x4F776E61626C653A2063616C6C6572206973206E6F7420746865206F776E6572 PUSH1 0x44 DUP3 ADD MSTORE PUSH1 0x64 ADD PUSH2 0x505 JUMP JUMPDEST PUSH2 0x5CC PUSH1 0x0 PUSH2 0x1253 JUMP JUMPDEST JUMP JUMPDEST PUSH1 0x40 MLOAD CALLER SWAP1 SELFBALANCE DUP1 ISZERO PUSH2 0x8FC MUL SWAP2 PUSH1 0x0 DUP2 DUP2 DUP2 DUP6 DUP9 DUP9 CALL SWAP4 POP POP POP POP ISZERO DUP1 ISZERO PUSH2 0x5FA JUMPI RETURNDATASIZE PUSH1 0x0 DUP1 RETURNDATACOPY RETURNDATASIZE PUSH1 0x0 REVERT JUMPDEST POP JUMP JUMPDEST PUSH1 0xD DUP1 SLOAD PUSH1 0x1 PUSH1 0x1 PUSH1 0xA0 SHL SUB DUP1 DUP8 AND PUSH1 0x1 PUSH1 0x1 PUSH1 0xA0 SHL SUB NOT SWAP3 DUP4 AND OR SWAP1 SWAP3 SSTORE PUSH1 0xE DUP1 SLOAD DUP7 DUP5 AND SWAP1 DUP4 AND DUP2 OR SWAP1 SWAP2 SSTORE PUSH1 0xF DUP1 SLOAD SWAP4 DUP7 AND SWAP4 SWAP1 SWAP3 AND SWAP3 SWAP1 SWAP3 OR SWAP1 SSTORE PUSH1 0x40 DUP1 MLOAD PUSH4 0x313CE567 PUSH1 0xE0 SHL DUP2 MSTORE SWAP1 MLOAD PUSH4 0x313CE567 SWAP2 PUSH1 0x4 DUP1 DUP3 ADD SWAP3 PUSH1 0x20 SWAP3 SWAP1 SWAP2 SWAP1 DUP3 SWAP1 SUB ADD DUP2 DUP7 DUP1 EXTCODESIZE ISZERO DUP1 ISZERO PUSH2 0x672 JUMPI PUSH1 0x0 DUP1 REVERT JUMPDEST POP GAS STATICCALL ISZERO DUP1 ISZERO PUSH2 0x686 JUMPI RETURNDATASIZE PUSH1 0x0 DUP1 RETURNDATACOPY RETURNDATASIZE PUSH1 0x0 REVERT JUMPDEST POP POP POP POP PUSH1 0x40 MLOAD RETURNDATASIZE PUSH1 0x1F NOT PUSH1 0x1F DUP3 ADD AND DUP3 ADD DUP1 PUSH1 0x40 MSTORE POP DUP2 ADD SWAP1 PUSH2 0x6AA SWAP2 SWAP1 PUSH2 0x158E JUMP JUMPDEST PUSH2 0x6B5 SWAP1 PUSH1 0xA PUSH2 0x1696 JUMP JUMPDEST DUP2 MLOAD PUSH2 0x6C1 SWAP2 SWAP1 PUSH2 0x173E JUMP JUMPDEST PUSH1 0x10 SSTORE PUSH1 0x20 DUP1 DUP3 ADD MLOAD PUSH1 0x11 SSTORE PUSH1 0x40 DUP1 DUP4 ADD MLOAD PUSH1 0x12 SSTORE PUSH1 0x60 DUP4 ADD MLOAD PUSH1 0x13 SSTORE PUSH1 0xF SLOAD DUP2 MLOAD PUSH4 0x313CE567 PUSH1 0xE0 SHL DUP2 MSTORE SWAP2 MLOAD PUSH1 0x1 PUSH1 0x1 PUSH1 0xA0 SHL SUB SWAP1 SWAP2 AND SWAP3 PUSH4 0x313CE567 SWAP3 PUSH1 0x4 DUP1 DUP3 ADD SWAP4 SWAP2 DUP3 SWAP1 SUB ADD DUP2 DUP7 DUP1 EXTCODESIZE ISZERO DUP1 ISZERO PUSH2 0x71C JUMPI PUSH1 0x0 DUP1 REVERT JUMPDEST POP GAS STATICCALL ISZERO DUP1 ISZERO PUSH2 0x730 JUMPI RETURNDATASIZE PUSH1 0x0 DUP1 RETURNDATACOPY RETURNDATASIZE PUSH1 0x0 REVERT JUMPDEST POP POP POP POP PUSH1 0x40 MLOAD RETURNDATASIZE PUSH1 0x1F NOT PUSH1 0x1F DUP3 ADD AND DUP3 ADD DUP1 PUSH1 0x40 MSTORE POP DUP2 ADD SWAP1 PUSH2 0x754 SWAP2 SWAP1 PUSH2 0x158E JUMP JUMPDEST PUSH2 0x75F SWAP1 PUSH1 0xA PUSH2 0x1696 JUMP JUMPDEST PUSH1 0x80 DUP3 ADD MLOAD PUSH2 0x76E SWAP2 SWAP1 PUSH2 0x173E JUMP JUMPDEST PUSH1 0x14 SSTORE PUSH1 0xA0 DUP2 ADD MLOAD PUSH1 0x15 SSTORE PUSH1 0xC0 DUP2 ADD MLOAD PUSH1 0x16 SSTORE PUSH1 0xF SLOAD PUSH1 0x40 DUP1 MLOAD PUSH4 0x313CE567 PUSH1 0xE0 SHL DUP2 MSTORE SWAP1 MLOAD PUSH1 0x1 PUSH1 0x1 PUSH1 0xA0 SHL SUB SWAP1 SWAP3 AND SWAP2 PUSH4 0x313CE567 SWAP2 PUSH1 0x4 DUP1 DUP3 ADD SWAP3 PUSH1 0x20 SWAP3 SWAP1 SWAP2 SWAP1 DUP3 SWAP1 SUB ADD DUP2 DUP7 DUP1 EXTCODESIZE ISZERO DUP1 ISZERO PUSH2 0x7C6 JUMPI PUSH1 0x0 DUP1 REVERT JUMPDEST POP GAS STATICCALL ISZERO DUP1 ISZERO PUSH2 0x7DA JUMPI RETURNDATASIZE PUSH1 0x0 DUP1 RETURNDATACOPY RETURNDATASIZE PUSH1 0x0 REVERT JUMPDEST POP POP POP POP PUSH1 0x40 MLOAD RETURNDATASIZE PUSH1 0x1F NOT PUSH1 0x1F DUP3 ADD AND DUP3 ADD DUP1 PUSH1 0x40 MSTORE POP DUP2 ADD SWAP1 PUSH2 0x7FE SWAP2 SWAP1 PUSH2 0x158E JUMP JUMPDEST PUSH2 0x809 SWAP1 PUSH1 0xA PUSH2 0x1696 JUMP JUMPDEST PUSH1 0xE0 DUP3 ADD MLOAD PUSH2 0x818 SWAP2 SWAP1 PUSH2 0x173E JUMP JUMPDEST PUSH1 0xB SSTORE PUSH1 0xF SLOAD PUSH1 0x40 DUP1 MLOAD PUSH4 0x313CE567 PUSH1 0xE0 SHL DUP2 MSTORE SWAP1 MLOAD PUSH1 0x1 PUSH1 0x1 PUSH1 0xA0 SHL SUB SWAP1 SWAP3 AND SWAP2 PUSH4 0x313CE567 SWAP2 PUSH1 0x4 DUP1 DUP3 ADD SWAP3 PUSH1 0x20 SWAP3 SWAP1 SWAP2 SWAP1 DUP3 SWAP1 SUB ADD DUP2 DUP7 DUP1 EXTCODESIZE ISZERO DUP1 ISZERO PUSH2 0x860 JUMPI PUSH1 0x0 DUP1 REVERT JUMPDEST POP GAS STATICCALL ISZERO DUP1 ISZERO PUSH2 0x874 JUMPI RETURNDATASIZE PUSH1 0x0 DUP1 RETURNDATACOPY RETURNDATASIZE PUSH1 0x0 REVERT JUMPDEST POP POP POP POP PUSH1 0x40 MLOAD RETURNDATASIZE PUSH1 0x1F NOT PUSH1 0x1F DUP3 ADD AND DUP3 ADD DUP1 PUSH1 0x40 MSTORE POP DUP2 ADD SWAP1 PUSH2 0x898 SWAP2 SWAP1 PUSH2 0x158E JUMP JUMPDEST PUSH2 0x8A3 SWAP1 PUSH1 0xA PUSH2 0x1696 JUMP JUMPDEST PUSH2 0x100 DUP3 ADD MLOAD PUSH2 0x8B3 SWAP2 SWAP1 PUSH2 0x173E JUMP JUMPDEST PUSH1 0xC SSTORE PUSH1 0xF SLOAD PUSH1 0x19 SLOAD PUSH1 0x17 DUP1 SLOAD PUSH1 0xFF NOT AND PUSH1 0x1 PUSH1 0x1 PUSH1 0xA0 SHL SUB SWAP3 DUP4 AND SWAP3 SWAP1 SWAP4 AND SWAP2 DUP3 EQ SWAP3 SWAP1 SWAP3 OR SWAP1 SWAP2 SSTORE PUSH1 0x40 DUP1 MLOAD PUSH4 0x313CE567 PUSH1 0xE0 SHL DUP2 MSTORE SWAP1 MLOAD PUSH4 0x313CE567 SWAP2 PUSH1 0x4 DUP1 DUP3 ADD SWAP3 PUSH1 0x20 SWAP3 SWAP1 SWAP2 SWAP1 DUP3 SWAP1 SUB ADD DUP2 DUP7 DUP1 EXTCODESIZE ISZERO DUP1 ISZERO PUSH2 0x913 JUMPI PUSH1 0x0 DUP1 REVERT JUMPDEST POP GAS STATICCALL ISZERO DUP1 ISZERO PUSH2 0x927 JUMPI RETURNDATASIZE PUSH1 0x0 DUP1 RETURNDATACOPY RETURNDATASIZE PUSH1 0x0 REVERT JUMPDEST POP POP POP POP PUSH1 0x40 MLOAD RETURNDATASIZE PUSH1 0x1F NOT PUSH1 0x1F DUP3 ADD AND DUP3 ADD DUP1 PUSH1 0x40 MSTORE POP DUP2 ADD SWAP1 PUSH2 0x94B SWAP2 SWAP1 PUSH2 0x158E JUMP JUMPDEST PUSH2 0x956 SWAP1 PUSH1 0xA PUSH2 0x1696 JUMP JUMPDEST PUSH1 0xB SLOAD PUSH1 0x10 SLOAD PUSH2 0x965 SWAP2 PUSH2 0x12A5 JUMP JUMPDEST PUSH2 0x96F SWAP2 SWAP1 PUSH2 0x1631 JUMP JUMPDEST PUSH1 0x18 SSTORE POP POP POP POP JUMP JUMPDEST PUSH1 0x2 PUSH1 0x0 SLOAD EQ ISZERO PUSH2 0x99B JUMPI PUSH1 0x40 MLOAD PUSH3 0x461BCD PUSH1 0xE5 SHL DUP2 MSTORE PUSH1 0x4 ADD PUSH2 0x505 SWAP1 PUSH2 0x15E2 JUMP JUMPDEST PUSH1 0x2 PUSH1 0x0 SSTORE PUSH2 0x9A8 PUSH2 0x4B9 JUMP JUMPDEST PUSH1 0x1 EQ PUSH2 0x9E6 JUMPI PUSH1 0x40 MLOAD PUSH3 0x461BCD PUSH1 0xE5 SHL DUP2 MSTORE PUSH1 0x20 PUSH1 0x4 DUP3 ADD MSTORE PUSH1 0xC PUSH1 0x24 DUP3 ADD MSTORE PUSH12 0x53616C652073756365737373 PUSH1 0xA0 SHL PUSH1 0x44 DUP3 ADD MSTORE PUSH1 0x64 ADD PUSH2 0x505 JUMP JUMPDEST PUSH1 0x7 SLOAD PUSH1 0x4 SLOAD PUSH1 0x0 SWAP2 PUSH2 0x9F8 SWAP2 PUSH2 0x175D JUMP JUMPDEST GT PUSH2 0xA45 JUMPI PUSH1 0x40 MLOAD PUSH3 0x461BCD PUSH1 0xE5 SHL DUP2 MSTORE PUSH1 0x20 PUSH1 0x4 DUP3 ADD MSTORE PUSH1 0x1B PUSH1 0x24 DUP3 ADD MSTORE PUSH32 0x416C6C20746F6B656E20686173206265656E2077697468647261770000000000 PUSH1 0x44 DUP3 ADD MSTORE PUSH1 0x64 ADD PUSH2 0x505 JUMP JUMPDEST CALLER PUSH1 0x0 SWAP1 DUP2 MSTORE PUSH1 0x2 PUSH1 0x20 MSTORE PUSH1 0x40 SWAP1 KECCAK256 DUP1 SLOAD PUSH2 0xAB0 JUMPI PUSH1 0x40 MLOAD PUSH3 0x461BCD PUSH1 0xE5 SHL DUP2 MSTORE PUSH1 0x20 PUSH1 0x4 DUP3 ADD MSTORE PUSH1 0x25 PUSH1 0x24 DUP3 ADD MSTORE PUSH32 0x596F7520726566756E6420616C6C206F722068617665206E6F7420626F756768 PUSH1 0x44 DUP3 ADD MSTORE PUSH5 0x1D081E595D PUSH1 0xDA SHL PUSH1 0x64 DUP3 ADD MSTORE PUSH1 0x84 ADD PUSH2 0x505 JUMP JUMPDEST DUP1 SLOAD PUSH1 0x15 SLOAD PUSH1 0x0 SWAP2 PUSH2 0xADB SWAP2 PUSH2 0x3E8 SWAP2 PUSH2 0xAD5 SWAP2 PUSH2 0xACF SWAP1 DUP5 SWAP1 PUSH2 0x12B1 JUMP JUMPDEST SWAP1 PUSH2 0x12A5 JUMP JUMPDEST SWAP1 PUSH2 0x12BD JUMP JUMPDEST DUP3 SLOAD SWAP1 SWAP2 POP PUSH2 0xAEB SWAP1 DUP3 SWAP1 PUSH2 0x175D JUMP JUMPDEST PUSH1 0x1D PUSH1 0x0 DUP3 DUP3 SLOAD PUSH2 0xAFC SWAP2 SWAP1 PUSH2 0x1619 JUMP JUMPDEST SWAP1 SWAP2 SSTORE POP POP PUSH1 0x7 DUP1 SLOAD DUP3 SWAP2 SWAP1 PUSH1 0x0 SWAP1 PUSH2 0xB16 SWAP1 DUP5 SWAP1 PUSH2 0x1619 JUMP JUMPDEST SWAP1 SWAP2 SSTORE POP POP PUSH1 0x0 DUP1 DUP4 SSTORE PUSH1 0x1 DUP4 ADD DUP2 SWAP1 SSTORE TIMESTAMP PUSH1 0x2 DUP5 ADD SSTORE PUSH1 0x40 MLOAD CALLER SWAP2 DUP4 ISZERO PUSH2 0x8FC MUL SWAP2 DUP5 SWAP2 DUP2 DUP2 DUP2 DUP6 DUP9 DUP9 CALL SWAP4 POP POP POP POP ISZERO DUP1 ISZERO PUSH2 0xB58 JUMPI RETURNDATASIZE PUSH1 0x0 DUP1 RETURNDATACOPY RETURNDATASIZE PUSH1 0x0 REVERT JUMPDEST POP POP PUSH1 0x1 PUSH1 0x0 SSTORE POP JUMP JUMPDEST PUSH1 0x2 PUSH1 0x0 SLOAD EQ ISZERO PUSH2 0xB85 JUMPI PUSH1 0x40 MLOAD PUSH3 0x461BCD PUSH1 0xE5 SHL DUP2 MSTORE PUSH1 0x4 ADD PUSH2 0x505 SWAP1 PUSH2 0x15E2 JUMP JUMPDEST PUSH1 0x2 PUSH1 0x0 SSTORE PUSH2 0xB92 PUSH2 0x4B9 JUMP JUMPDEST PUSH1 0x1 EQ PUSH2 0xBD0 JUMPI PUSH1 0x40 MLOAD PUSH3 0x461BCD PUSH1 0xE5 SHL DUP2 MSTORE PUSH1 0x20 PUSH1 0x4 DUP3 ADD MSTORE PUSH1 0xC PUSH1 0x24 DUP3 ADD MSTORE PUSH12 0x53616C652073756365737373 PUSH1 0xA0 SHL PUSH1 0x44 DUP3 ADD MSTORE PUSH1 0x64 ADD PUSH2 0x505 JUMP JUMPDEST PUSH1 0x6 SLOAD PUSH1 0x5 SLOAD PUSH1 0x0 SWAP2 PUSH2 0xBE2 SWAP2 PUSH2 0x175D JUMP JUMPDEST GT PUSH2 0xC2F JUMPI PUSH1 0x40 MLOAD PUSH3 0x461BCD PUSH1 0xE5 SHL DUP2 MSTORE PUSH1 0x20 PUSH1 0x4 DUP3 ADD MSTORE PUSH1 0x1B PUSH1 0x24 DUP3 ADD MSTORE PUSH32 0x416C6C20746F6B656E20686173206265656E2077697468647261770000000000 PUSH1 0x44 DUP3 ADD MSTORE PUSH1 0x64 ADD PUSH2 0x505 JUMP JUMPDEST CALLER PUSH1 0x0 SWAP1 DUP2 MSTORE PUSH1 0x2 PUSH1 0x20 MSTORE PUSH1 0x40 SWAP1 KECCAK256 PUSH1 0x3 DUP2 ADD SLOAD PUSH1 0x1 DUP3 ADD SLOAD GT PUSH2 0xCA1 JUMPI PUSH1 0x40 MLOAD PUSH3 0x461BCD PUSH1 0xE5 SHL DUP2 MSTORE PUSH1 0x20 PUSH1 0x4 DUP3 ADD MSTORE PUSH1 0x24 DUP1 DUP3 ADD MSTORE PUSH32 0x596F7520636C61696D20616C6C206F722068617665206E6F7420626F75676874 PUSH1 0x44 DUP3 ADD MSTORE PUSH4 0x81E595D PUSH1 0xE2 SHL PUSH1 0x64 DUP3 ADD MSTORE PUSH1 0x84 ADD PUSH2 0x505 JUMP JUMPDEST PUSH1 0x0 PUSH2 0xCCB PUSH2 0x3E8 PUSH2 0xAD5 DUP5 PUSH1 0x1 ADD SLOAD PUSH2 0xACF PUSH1 0xD PUSH1 0x9 ADD SLOAD PUSH2 0x3E8 PUSH2 0x12B1 SWAP1 SWAP2 SWAP1 PUSH4 0xFFFFFFFF AND JUMP JUMPDEST SWAP1 POP DUP1 PUSH1 0x4 PUSH1 0x2 ADD PUSH1 0x0 DUP3 DUP3 SLOAD PUSH2 0xCE2 SWAP2 SWAP1 PUSH2 0x1619 JUMP JUMPDEST SWAP3 POP POP DUP2 SWAP1 SSTORE POP DUP1 DUP3 PUSH1 0x3 ADD PUSH1 0x0 DUP3 DUP3 SLOAD PUSH2 0xCFD SWAP2 SWAP1 PUSH2 0x1619 JUMP JUMPDEST SWAP1 SWAP2 SSTORE POP POP PUSH1 0x0 DUP1 DUP4 SSTORE PUSH1 0x1 DUP4 ADD SSTORE TIMESTAMP PUSH1 0x2 DUP4 ADD SSTORE PUSH1 0xE SLOAD PUSH1 0x40 MLOAD PUSH4 0xA9059CBB PUSH1 0xE0 SHL DUP2 MSTORE CALLER PUSH1 0x4 DUP3 ADD MSTORE PUSH1 0x24 DUP2 ADD DUP4 SWAP1 MSTORE PUSH1 0x1 PUSH1 0x1 PUSH1 0xA0 SHL SUB SWAP1 SWAP2 AND SWAP1 PUSH4 0xA9059CBB SWAP1 PUSH1 0x44 ADD PUSH1 0x20 PUSH1 0x40 MLOAD DUP1 DUP4 SUB DUP2 PUSH1 0x0 DUP8 DUP1 EXTCODESIZE ISZERO DUP1 ISZERO PUSH2 0xD5E JUMPI PUSH1 0x0 DUP1 REVERT JUMPDEST POP GAS CALL ISZERO DUP1 ISZERO PUSH2 0xD72 JUMPI RETURNDATASIZE PUSH1 0x0 DUP1 RETURNDATACOPY RETURNDATASIZE PUSH1 0x0 REVERT JUMPDEST POP POP POP POP PUSH1 0x40 MLOAD RETURNDATASIZE PUSH1 0x1F NOT PUSH1 0x1F DUP3 ADD AND DUP3 ADD DUP1 PUSH1 0x40 MSTORE POP DUP2 ADD SWAP1 PUSH2 0xB58 SWAP2 SWAP1 PUSH2 0x1553 JUMP JUMPDEST PUSH1 0x2 PUSH1 0x0 SLOAD EQ ISZERO PUSH2 0xDB9 JUMPI PUSH1 0x40 MLOAD PUSH3 0x461BCD PUSH1 0xE5 SHL DUP2 MSTORE PUSH1 0x4 ADD PUSH2 0x505 SWAP1 PUSH2 0x15E2 JUMP JUMPDEST PUSH1 0x2 PUSH1 0x0 SSTORE PUSH2 0xDC6 PUSH2 0x4B9 JUMP JUMPDEST PUSH1 0x1 EQ PUSH2 0xE02 JUMPI PUSH1 0x40 MLOAD PUSH3 0x461BCD PUSH1 0xE5 SHL DUP2 MSTORE PUSH1 0x20 PUSH1 0x4 DUP3 ADD MSTORE PUSH1 0xA PUSH1 0x24 DUP3 ADD MSTORE PUSH10 0x4E6F7420616374697665 PUSH1 0xB0 SHL PUSH1 0x44 DUP3 ADD MSTORE PUSH1 0x64 ADD PUSH2 0x505 JUMP JUMPDEST CALLER PUSH1 0x0 SWAP1 DUP2 MSTORE PUSH1 0x2 PUSH1 0x20 MSTORE PUSH1 0x40 DUP2 KECCAK256 PUSH1 0x13 SLOAD SWAP1 SWAP2 DUP4 SWAP2 DUP3 SWAP2 SWAP1 PUSH2 0x3E8 SWAP1 DUP4 LT ISZERO PUSH2 0xE61 JUMPI PUSH1 0x40 MLOAD PUSH3 0x461BCD PUSH1 0xE5 SHL DUP2 MSTORE PUSH1 0x20 PUSH1 0x4 DUP3 ADD MSTORE PUSH1 0x10 PUSH1 0x24 DUP3 ADD MSTORE PUSH16 0x4E6F7420656E6F7567682076616C7565 PUSH1 0x80 SHL PUSH1 0x44 DUP3 ADD MSTORE PUSH1 0x64 ADD PUSH2 0x505 JUMP JUMPDEST PUSH1 0x14 SLOAD DUP4 GT ISZERO PUSH2 0xEA4 JUMPI PUSH1 0x40 MLOAD PUSH3 0x461BCD PUSH1 0xE5 SHL DUP2 MSTORE PUSH1 0x20 PUSH1 0x4 DUP3 ADD MSTORE PUSH1 0xE PUSH1 0x24 DUP3 ADD MSTORE PUSH14 0x4F766572666C6F772076616C7565 PUSH1 0x90 SHL PUSH1 0x44 DUP3 ADD MSTORE PUSH1 0x64 ADD PUSH2 0x505 JUMP JUMPDEST PUSH2 0xEAC PUSH2 0x115B JUMP JUMPDEST PUSH2 0xEDC JUMPI PUSH2 0xECD DUP2 PUSH2 0xAD5 DUP6 PUSH2 0xACF PUSH1 0x1A SLOAD DUP7 PUSH2 0x12B1 SWAP1 SWAP2 SWAP1 PUSH4 0xFFFFFFFF AND JUMP JUMPDEST SWAP3 POP PUSH2 0xED9 DUP4 DUP6 PUSH2 0x175D JUMP JUMPDEST SWAP2 POP JUMPDEST DUP5 SLOAD PUSH1 0x14 SLOAD PUSH1 0x0 SWAP2 PUSH2 0xEED SWAP2 PUSH2 0x175D JUMP JUMPDEST PUSH1 0x4 SLOAD PUSH1 0x18 SLOAD SWAP2 SWAP3 POP PUSH1 0x0 SWAP2 PUSH2 0xF03 SWAP2 SWAP1 PUSH2 0x175D JUMP JUMPDEST SWAP1 POP PUSH1 0x0 DUP2 DUP4 GT PUSH2 0xF14 JUMPI DUP3 PUSH2 0xF16 JUMP JUMPDEST DUP2 JUMPDEST SWAP1 POP DUP1 DUP7 GT ISZERO PUSH2 0xF5A JUMPI PUSH1 0x40 MLOAD PUSH3 0x461BCD PUSH1 0xE5 SHL DUP2 MSTORE PUSH1 0x20 PUSH1 0x4 DUP3 ADD MSTORE PUSH1 0xF PUSH1 0x24 DUP3 ADD MSTORE PUSH15 0x53616C652069732073756363657373 PUSH1 0x88 SHL PUSH1 0x44 DUP3 ADD MSTORE PUSH1 0x64 ADD PUSH2 0x505 JUMP JUMPDEST PUSH1 0x0 PUSH2 0x1001 PUSH1 0xD PUSH1 0x2 ADD PUSH1 0x0 SWAP1 SLOAD SWAP1 PUSH2 0x100 EXP SWAP1 DIV PUSH1 0x1 PUSH1 0x1 PUSH1 0xA0 SHL SUB AND PUSH1 0x1 PUSH1 0x1 PUSH1 0xA0 SHL SUB AND PUSH4 0x313CE567 PUSH1 0x40 MLOAD DUP2 PUSH4 0xFFFFFFFF AND PUSH1 0xE0 SHL DUP2 MSTORE PUSH1 0x4 ADD PUSH1 0x20 PUSH1 0x40 MLOAD DUP1 DUP4 SUB DUP2 DUP7 DUP1 EXTCODESIZE ISZERO DUP1 ISZERO PUSH2 0xFB0 JUMPI PUSH1 0x0 DUP1 REVERT JUMPDEST POP GAS STATICCALL ISZERO DUP1 ISZERO PUSH2 0xFC4 JUMPI RETURNDATASIZE PUSH1 0x0 DUP1 RETURNDATACOPY RETURNDATASIZE PUSH1 0x0 REVERT JUMPDEST POP POP POP POP PUSH1 0x40 MLOAD RETURNDATASIZE PUSH1 0x1F NOT PUSH1 0x1F DUP3 ADD AND DUP3 ADD DUP1 PUSH1 0x40 MSTORE POP DUP2 ADD SWAP1 PUSH2 0xFE8 SWAP2 SWAP1 PUSH2 0x158E JUMP JUMPDEST PUSH2 0xFF3 SWAP1 PUSH1 0xA PUSH2 0x1696 JUMP JUMPDEST PUSH1 0x10 SLOAD PUSH2 0xAD5 SWAP1 DUP11 SWAP1 PUSH2 0x12A5 JUMP JUMPDEST SWAP1 POP DUP8 DUP10 PUSH1 0x0 ADD PUSH1 0x0 DUP3 DUP3 SLOAD PUSH2 0x1017 SWAP2 SWAP1 PUSH2 0x1619 JUMP JUMPDEST SWAP3 POP POP DUP2 SWAP1 SSTORE POP DUP1 DUP10 PUSH1 0x1 ADD PUSH1 0x0 DUP3 DUP3 SLOAD PUSH2 0x1032 SWAP2 SWAP1 PUSH2 0x1619 JUMP JUMPDEST SWAP1 SWAP2 SSTORE POP POP PUSH1 0x4 DUP1 SLOAD DUP9 SWAP2 SWAP1 PUSH1 0x0 SWAP1 PUSH2 0x104C SWAP1 DUP5 SWAP1 PUSH2 0x1619 JUMP JUMPDEST SWAP1 SWAP2 SSTORE POP POP PUSH1 0x5 DUP1 SLOAD DUP3 SWAP2 SWAP1 PUSH1 0x0 SWAP1 PUSH2 0x1066 SWAP1 DUP5 SWAP1 PUSH2 0x1619 JUMP JUMPDEST SWAP1 SWAP2 SSTORE POP POP PUSH1 0x8 DUP1 SLOAD SWAP1 PUSH1 0x0 PUSH2 0x107B DUP4 PUSH2 0x1774 JUMP JUMPDEST SWAP1 SWAP2 SSTORE POP POP CALLER PUSH1 0x0 SWAP1 DUP2 MSTORE PUSH1 0x3 PUSH1 0x20 MSTORE PUSH1 0x40 DUP2 KECCAK256 DUP1 SLOAD DUP9 SWAP3 SWAP1 PUSH2 0x109F SWAP1 DUP5 SWAP1 PUSH2 0x1619 JUMP JUMPDEST SWAP3 POP POP DUP2 SWAP1 SSTORE POP DUP6 PUSH1 0x1D PUSH1 0x0 DUP3 DUP3 SLOAD PUSH2 0x10B8 SWAP2 SWAP1 PUSH2 0x1619 JUMP JUMPDEST SWAP1 SWAP2 SSTORE POP POP PUSH1 0x17 SLOAD PUSH1 0xFF AND DUP1 ISZERO PUSH2 0x10D7 JUMPI POP CALLVALUE PUSH2 0x10D5 DUP8 DUP10 PUSH2 0x1619 JUMP JUMPDEST LT JUMPDEST ISZERO PUSH2 0x111F JUMPI CALLER PUSH2 0x8FC DUP8 PUSH2 0x10EB DUP11 CALLVALUE PUSH2 0x175D JUMP JUMPDEST PUSH2 0x10F5 SWAP2 SWAP1 PUSH2 0x175D JUMP JUMPDEST PUSH1 0x40 MLOAD DUP2 ISZERO SWAP1 SWAP3 MUL SWAP2 PUSH1 0x0 DUP2 DUP2 DUP2 DUP6 DUP9 DUP9 CALL SWAP4 POP POP POP POP ISZERO DUP1 ISZERO PUSH2 0x111D JUMPI RETURNDATASIZE PUSH1 0x0 DUP1 RETURNDATACOPY RETURNDATASIZE PUSH1 0x0 REVERT JUMPDEST POP JUMPDEST PUSH1 0x17 SLOAD PUSH1 0xFF AND PUSH2 0x114A JUMPI PUSH1 0xF SLOAD PUSH2 0x114A SWAP1 PUSH1 0x1 PUSH1 0x1 PUSH1 0xA0 SHL SUB AND CALLER ADDRESS PUSH2 0x1145 DUP11 DUP13 PUSH2 0x1619 JUMP JUMPDEST PUSH2 0x12C9 JUMP JUMPDEST POP POP PUSH1 0x1 PUSH1 0x0 SSTORE POP POP POP POP POP POP POP POP JUMP JUMPDEST PUSH1 0x0 PUSH2 0x1168 PUSH1 0x1B CALLER PUSH2 0x13F9 JUMP JUMPDEST SWAP1 POP SWAP1 JUMP JUMPDEST PUSH1 0x1 SLOAD PUSH1 0x1 PUSH1 0x1 PUSH1 0xA0 SHL SUB AND CALLER EQ PUSH2 0x11C7 JUMPI PUSH1 0x40 MLOAD PUSH3 0x461BCD PUSH1 0xE5 SHL DUP2 MSTORE PUSH1 0x20 PUSH1 0x4 DUP3 ADD DUP2 SWAP1 MSTORE PUSH1 0x24 DUP3 ADD MSTORE PUSH32 0x4F776E61626C653A2063616C6C6572206973206E6F7420746865206F776E6572 PUSH1 0x44 DUP3 ADD MSTORE PUSH1 0x64 ADD PUSH2 0x505 JUMP JUMPDEST PUSH1 0x1 PUSH1 0x1 PUSH1 0xA0 SHL SUB DUP2 AND PUSH2 0x122C JUMPI PUSH1 0x40 MLOAD PUSH3 0x461BCD PUSH1 0xE5 SHL DUP2 MSTORE PUSH1 0x20 PUSH1 0x4 DUP3 ADD MSTORE PUSH1 0x26 PUSH1 0x24 DUP3 ADD MSTORE PUSH32 0x4F776E61626C653A206E6577206F776E657220697320746865207A65726F2061 PUSH1 0x44 DUP3 ADD MSTORE PUSH6 0x646472657373 PUSH1 0xD0 SHL PUSH1 0x64 DUP3 ADD MSTORE PUSH1 0x84 ADD PUSH2 0x505 JUMP JUMPDEST PUSH2 0x5FA DUP2 PUSH2 0x1253 JUMP JUMPDEST PUSH1 0x0 PUSH2 0x124A DUP4 PUSH1 0x1 PUSH1 0x1 PUSH1 0xA0 SHL SUB DUP5 AND PUSH2 0x141B JUMP JUMPDEST SWAP1 POP JUMPDEST SWAP3 SWAP2 POP POP JUMP JUMPDEST PUSH1 0x1 DUP1 SLOAD PUSH1 0x1 PUSH1 0x1 PUSH1 0xA0 SHL SUB DUP4 DUP2 AND PUSH1 0x1 PUSH1 0x1 PUSH1 0xA0 SHL SUB NOT DUP4 AND DUP2 OR SWAP1 SWAP4 SSTORE PUSH1 0x40 MLOAD SWAP2 AND SWAP2 SWAP1 DUP3 SWAP1 PUSH32 0x8BE0079C531659141344CD1FD0A4F28419497F9722A3DAAFE3B4186F6B6457E0 SWAP1 PUSH1 0x0 SWAP1 LOG3 POP POP JUMP JUMPDEST PUSH1 0x0 PUSH2 0x124A DUP3 DUP5 PUSH2 0x173E JUMP JUMPDEST PUSH1 0x0 PUSH2 0x124A DUP3 DUP5 PUSH2 0x175D JUMP JUMPDEST PUSH1 0x0 PUSH2 0x124A DUP3 DUP5 PUSH2 0x1631 JUMP JUMPDEST PUSH1 0x40 DUP1 MLOAD PUSH1 0x1 PUSH1 0x1 PUSH1 0xA0 SHL SUB DUP6 DUP2 AND PUSH1 0x24 DUP4 ADD MSTORE DUP5 DUP2 AND PUSH1 0x44 DUP4 ADD MSTORE PUSH1 0x64 DUP1 DUP4 ADD DUP6 SWAP1 MSTORE DUP4 MLOAD DUP1 DUP5 SUB SWAP1 SWAP2 ADD DUP2 MSTORE PUSH1 0x84 SWAP1 SWAP3 ADD DUP4 MSTORE PUSH1 0x20 DUP3 ADD DUP1 MLOAD PUSH1 0x1 PUSH1 0x1 PUSH1 0xE0 SHL SUB AND PUSH4 0x23B872DD PUSH1 0xE0 SHL OR SWAP1 MSTORE SWAP2 MLOAD PUSH1 0x0 SWAP3 DUP4 SWAP3 SWAP1 DUP9 AND SWAP2 PUSH2 0x132D SWAP2 SWAP1 PUSH2 0x15A7 JUMP JUMPDEST PUSH1 0x0 PUSH1 0x40 MLOAD DUP1 DUP4 SUB DUP2 PUSH1 0x0 DUP7 GAS CALL SWAP2 POP POP RETURNDATASIZE DUP1 PUSH1 0x0 DUP2 EQ PUSH2 0x136A JUMPI PUSH1 0x40 MLOAD SWAP2 POP PUSH1 0x1F NOT PUSH1 0x3F RETURNDATASIZE ADD AND DUP3 ADD PUSH1 0x40 MSTORE RETURNDATASIZE DUP3 MSTORE RETURNDATASIZE PUSH1 0x0 PUSH1 0x20 DUP5 ADD RETURNDATACOPY PUSH2 0x136F JUMP JUMPDEST PUSH1 0x60 SWAP2 POP JUMPDEST POP SWAP2 POP SWAP2 POP DUP2 DUP1 ISZERO PUSH2 0x1399 JUMPI POP DUP1 MLOAD ISZERO DUP1 PUSH2 0x1399 JUMPI POP DUP1 DUP1 PUSH1 0x20 ADD SWAP1 MLOAD DUP2 ADD SWAP1 PUSH2 0x1399 SWAP2 SWAP1 PUSH2 0x1553 JUMP JUMPDEST PUSH2 0x13F1 JUMPI PUSH1 0x40 MLOAD PUSH3 0x461BCD PUSH1 0xE5 SHL DUP2 MSTORE PUSH1 0x20 PUSH1 0x4 DUP3 ADD MSTORE PUSH1 0x24 DUP1 DUP3 ADD MSTORE PUSH32 0x5472616E7366657248656C7065723A205452414E534645525F46524F4D5F4641 PUSH1 0x44 DUP3 ADD MSTORE PUSH4 0x12531151 PUSH1 0xE2 SHL PUSH1 0x64 DUP3 ADD MSTORE PUSH1 0x84 ADD PUSH2 0x505 JUMP JUMPDEST POP POP POP POP POP POP JUMP JUMPDEST PUSH1 0x1 PUSH1 0x1 PUSH1 0xA0 SHL SUB DUP2 AND PUSH1 0x0 SWAP1 DUP2 MSTORE PUSH1 0x1 DUP4 ADD PUSH1 0x20 MSTORE PUSH1 0x40 DUP2 KECCAK256 SLOAD ISZERO ISZERO PUSH2 0x124A JUMP JUMPDEST PUSH1 0x0 DUP2 DUP2 MSTORE PUSH1 0x1 DUP4 ADD PUSH1 0x20 MSTORE PUSH1 0x40 DUP2 KECCAK256 SLOAD PUSH2 0x1462 JUMPI POP DUP2 SLOAD PUSH1 0x1 DUP2 DUP2 ADD DUP5 SSTORE PUSH1 0x0 DUP5 DUP2 MSTORE PUSH1 0x20 DUP1 DUP3 KECCAK256 SWAP1 SWAP4 ADD DUP5 SWAP1 SSTORE DUP5 SLOAD DUP5 DUP3 MSTORE DUP3 DUP7 ADD SWAP1 SWAP4 MSTORE PUSH1 0x40 SWAP1 KECCAK256 SWAP2 SWAP1 SWAP2 SSTORE PUSH2 0x124D JUMP JUMPDEST POP PUSH1 0x0 PUSH2 0x124D JUMP JUMPDEST PUSH1 0x0 PUSH1 0x20 DUP3 DUP5 SUB SLT ISZERO PUSH2 0x147C JUMPI PUSH1 0x0 DUP1 REVERT JUMPDEST DUP2 CALLDATALOAD PUSH2 0x1487 DUP2 PUSH2 0x17BB JUMP JUMPDEST SWAP4 SWAP3 POP POP POP JUMP JUMPDEST PUSH1 0x0 DUP1 PUSH1 0x0 DUP1 PUSH2 0x180 DUP1 DUP7 DUP9 SUB SLT ISZERO PUSH2 0x14A6 JUMPI PUSH1 0x0 DUP1 REVERT JUMPDEST DUP6 CALLDATALOAD PUSH2 0x14B1 DUP2 PUSH2 0x17BB JUMP JUMPDEST SWAP5 POP PUSH1 0x20 DUP7 DUP2 ADD CALLDATALOAD PUSH2 0x14C2 DUP2 PUSH2 0x17BB JUMP JUMPDEST SWAP5 POP PUSH1 0x40 DUP8 ADD CALLDATALOAD PUSH2 0x14D2 DUP2 PUSH2 0x17BB JUMP JUMPDEST SWAP4 POP PUSH1 0x7F DUP8 ADD DUP9 SGT PUSH2 0x14E3 JUMPI PUSH1 0x0 DUP1 REVERT JUMPDEST PUSH1 0x40 MLOAD PUSH2 0x120 DUP2 ADD DUP2 DUP2 LT PUSH8 0xFFFFFFFFFFFFFFFF DUP3 GT OR ISZERO PUSH2 0x1507 JUMPI PUSH2 0x1507 PUSH2 0x17A5 JUMP JUMPDEST PUSH1 0x40 MSTORE DUP1 PUSH1 0x60 DUP10 ADD DUP5 DUP11 ADD DUP12 LT ISZERO PUSH2 0x151E JUMPI PUSH1 0x0 DUP1 REVERT JUMPDEST PUSH1 0x0 SWAP5 POP JUMPDEST PUSH1 0x9 DUP6 LT ISZERO PUSH2 0x1542 JUMPI DUP1 CALLDATALOAD DUP3 MSTORE PUSH1 0x1 SWAP5 SWAP1 SWAP5 ADD SWAP4 SWAP1 DUP4 ADD SWAP1 DUP4 ADD PUSH2 0x1523 JUMP JUMPDEST POP POP DUP1 SWAP4 POP POP POP POP SWAP3 SWAP6 SWAP2 SWAP5 POP SWAP3 POP JUMP JUMPDEST PUSH1 0x0 PUSH1 0x20 DUP3 DUP5 SUB SLT ISZERO PUSH2 0x1565 JUMPI PUSH1 0x0 DUP1 REVERT JUMPDEST DUP2 MLOAD DUP1 ISZERO ISZERO DUP2 EQ PUSH2 0x1487 JUMPI PUSH1 0x0 DUP1 REVERT JUMPDEST PUSH1 0x0 PUSH1 0x20 DUP3 DUP5 SUB SLT ISZERO PUSH2 0x1587 JUMPI PUSH1 0x0 DUP1 REVERT JUMPDEST POP CALLDATALOAD SWAP2 SWAP1 POP JUMP JUMPDEST PUSH1 0x0 PUSH1 0x20 DUP3 DUP5 SUB SLT ISZERO PUSH2 0x15A0 JUMPI PUSH1 0x0 DUP1 REVERT JUMPDEST POP MLOAD SWAP2 SWAP1 POP JUMP JUMPDEST PUSH1 0x0 DUP3 MLOAD PUSH1 0x0 JUMPDEST DUP2 DUP2 LT ISZERO PUSH2 0x15C8 JUMPI PUSH1 0x20 DUP2 DUP7 ADD DUP2 ADD MLOAD DUP6 DUP4 ADD MSTORE ADD PUSH2 0x15AE JUMP JUMPDEST DUP2 DUP2 GT ISZERO PUSH2 0x15D7 JUMPI PUSH1 0x0 DUP3 DUP6 ADD MSTORE JUMPDEST POP SWAP2 SWAP1 SWAP2 ADD SWAP3 SWAP2 POP POP JUMP JUMPDEST PUSH1 0x20 DUP1 DUP3 MSTORE PUSH1 0x1F SWAP1 DUP3 ADD MSTORE PUSH32 0x5265656E7472616E637947756172643A207265656E7472616E742063616C6C00 PUSH1 0x40 DUP3 ADD MSTORE PUSH1 0x60 ADD SWAP1 JUMP JUMPDEST PUSH1 0x0 DUP3 NOT DUP3 GT ISZERO PUSH2 0x162C JUMPI PUSH2 0x162C PUSH2 0x178F JUMP JUMPDEST POP ADD SWAP1 JUMP JUMPDEST PUSH1 0x0 DUP3 PUSH2 0x164E JUMPI PUSH4 0x4E487B71 PUSH1 0xE0 SHL PUSH1 0x0 MSTORE PUSH1 0x12 PUSH1 0x4 MSTORE PUSH1 0x24 PUSH1 0x0 REVERT JUMPDEST POP DIV SWAP1 JUMP JUMPDEST PUSH1 0x1 DUP2 DUP2 JUMPDEST DUP1 DUP6 GT ISZERO PUSH2 0x168E JUMPI DUP2 PUSH1 0x0 NOT DIV DUP3 GT ISZERO PUSH2 0x1674 JUMPI PUSH2 0x1674 PUSH2 0x178F JUMP JUMPDEST DUP1 DUP6 AND ISZERO PUSH2 0x1681 JUMPI SWAP2 DUP2 MUL SWAP2 JUMPDEST SWAP4 DUP5 SHR SWAP4 SWAP1 DUP1 MUL SWAP1 PUSH2 0x1658 JUMP JUMPDEST POP SWAP3 POP SWAP3 SWAP1 POP JUMP JUMPDEST PUSH1 0x0 PUSH2 0x124A DUP4 DUP4 PUSH1 0x0 DUP3 PUSH2 0x16AC JUMPI POP PUSH1 0x1 PUSH2 0x124D JUMP JUMPDEST DUP2 PUSH2 0x16B9 JUMPI POP PUSH1 0x0 PUSH2 0x124D JUMP JUMPDEST DUP2 PUSH1 0x1 DUP2 EQ PUSH2 0x16CF JUMPI PUSH1 0x2 DUP2 EQ PUSH2 0x16D9 JUMPI PUSH2 0x16F5 JUMP JUMPDEST PUSH1 0x1 SWAP2 POP POP PUSH2 0x124D JUMP JUMPDEST PUSH1 0xFF DUP5 GT ISZERO PUSH2 0x16EA JUMPI PUSH2 0x16EA PUSH2 0x178F JUMP JUMPDEST POP POP PUSH1 0x1 DUP3 SHL PUSH2 0x124D JUMP JUMPDEST POP PUSH1 0x20 DUP4 LT PUSH2 0x133 DUP4 LT AND PUSH1 0x4E DUP5 LT PUSH1 0xB DUP5 LT AND OR ISZERO PUSH2 0x1718 JUMPI POP DUP2 DUP2 EXP PUSH2 0x124D JUMP JUMPDEST PUSH2 0x1722 DUP4 DUP4 PUSH2 0x1653 JUMP JUMPDEST DUP1 PUSH1 0x0 NOT DIV DUP3 GT ISZERO PUSH2 0x1736 JUMPI PUSH2 0x1736 PUSH2 0x178F JUMP JUMPDEST MUL SWAP4 SWAP3 POP POP POP JUMP JUMPDEST PUSH1 0x0 DUP2 PUSH1 0x0 NOT DIV DUP4 GT DUP3 ISZERO ISZERO AND ISZERO PUSH2 0x1758 JUMPI PUSH2 0x1758 PUSH2 0x178F JUMP JUMPDEST POP MUL SWAP1 JUMP JUMPDEST PUSH1 0x0 DUP3 DUP3 LT ISZERO PUSH2 0x176F JUMPI PUSH2 0x176F PUSH2 0x178F JUMP JUMPDEST POP SUB SWAP1 JUMP JUMPDEST PUSH1 0x0 PUSH1 0x0 NOT DUP3 EQ ISZERO PUSH2 0x1788 JUMPI PUSH2 0x1788 PUSH2 0x178F JUMP JUMPDEST POP PUSH1 0x1 ADD SWAP1 JUMP JUMPDEST PUSH4 0x4E487B71 PUSH1 0xE0 SHL PUSH1 0x0 MSTORE PUSH1 0x11 PUSH1 0x4 MSTORE PUSH1 0x24 PUSH1 0x0 REVERT JUMPDEST PUSH4 0x4E487B71 PUSH1 0xE0 SHL PUSH1 0x0 MSTORE PUSH1 0x41 PUSH1 0x4 MSTORE PUSH1 0x24 PUSH1 0x0 REVERT JUMPDEST PUSH1 0x1 PUSH1 0x1 PUSH1 0xA0 SHL SUB DUP2 AND DUP2 EQ PUSH2 0x5FA JUMPI PUSH1 0x0 DUP1 REVERT INVALID LOG2 PUSH5 0x6970667358 0x22 SLT KECCAK256 DUP10 PUSH23 0x7492F0423921ADFCDC46FD2D6453007C956A367A934677 NOT PUSH14 0x3F0471EB3264736F6C6343000805 STOP CALLER "
				},
				"gasEstimates": {
					"creation": {
						"codeDepositCost": "1230000",
						"executionCost": "infinite",
						"totalCost": "infinite"
					},
					"external": {
						"WETH()": "2448",
						"backToken()": "infinite",
						"buyerInfo(address)": "8990",
						"checkAdminAddress()": "2521",
						"deposit(uint256)": "infinite",
						"feeAnyone()": "2407",
						"getBalance(address)": "3072",
						"initialSaleInfor(address,address,address,uint256[9])": "infinite",
						"owner()": "2431",
						"ownerClaimToken()": "33712",
						"presaleStatus()": "13078",
						"renounceOwnership()": "28184",
						"saleInfor()": "25810",
						"saleTotalSupply()": "4441",
						"status()": "4555",
						"totalFee()": "2363",
						"transferOwnership(address)": "infinite",
						"userClaimEmergency()": "infinite",
						"userFee(address)": "2558",
						"userRefundEmergency()": "infinite"
					}
				},
				"methodIdentifiers": {
					"WETH()": "ad5c4648",
					"backToken()": "861faf5f",
					"buyerInfo(address)": "e2d3f423",
					"checkAdminAddress()": "cad5b0f7",
					"deposit(uint256)": "b6b55f25",
					"feeAnyone()": "3b5ef2ad",
					"getBalance(address)": "f8b2cb4f",
					"initialSaleInfor(address,address,address,uint256[9])": "8f1eae4c",
					"owner()": "8da5cb5b",
					"ownerClaimToken()": "42d8a9da",
					"presaleStatus()": "acfb2355",
					"renounceOwnership()": "715018a6",
					"saleInfor()": "18856a2f",
					"saleTotalSupply()": "12e5d0b9",
					"status()": "200d2ed2",
					"totalFee()": "1df4ccfc",
					"transferOwnership(address)": "f2fde38b",
					"userClaimEmergency()": "ab33985a",
					"userFee(address)": "56c5f349",
					"userRefundEmergency()": "95661e70"
				}
			},
			"storageLayout": {
				"storage": [
					{
						"astId": 2296,
						"contract": "Ethereum/Presale.sol:Presale",
						"label": "_status",
						"offset": 0,
						"slot": "0",
						"type": "t_uint256"
					},
					{
						"astId": 2188,
						"contract": "Ethereum/Presale.sol:Presale",
						"label": "_owner",
						"offset": 0,
						"slot": "1",
						"type": "t_address"
					},
					{
						"astId": 772,
						"contract": "Ethereum/Presale.sol:Presale",
						"label": "buyerInfo",
						"offset": 0,
						"slot": "2",
						"type": "t_mapping(t_address,t_struct(BuyerInfo)749_storage)"
					},
					{
						"astId": 776,
						"contract": "Ethereum/Presale.sol:Presale",
						"label": "userFee",
						"offset": 0,
						"slot": "3",
						"type": "t_mapping(t_address,t_uint256)"
					},
					{
						"astId": 779,
						"contract": "Ethereum/Presale.sol:Presale",
						"label": "presaleStatus",
						"offset": 0,
						"slot": "4",
						"type": "t_struct(PresaleStatus)767_storage"
					},
					{
						"astId": 782,
						"contract": "Ethereum/Presale.sol:Presale",
						"label": "saleTotalSupply",
						"offset": 0,
						"slot": "11",
						"type": "t_struct(SaleTotalSupply)740_storage"
					},
					{
						"astId": 785,
						"contract": "Ethereum/Presale.sol:Presale",
						"label": "saleInfor",
						"offset": 0,
						"slot": "13",
						"type": "t_struct(SaleInfor)735_storage"
					},
					{
						"astId": 788,
						"contract": "Ethereum/Presale.sol:Presale",
						"label": "WETH",
						"offset": 0,
						"slot": "25",
						"type": "t_contract(IERC20)663"
					},
					{
						"astId": 790,
						"contract": "Ethereum/Presale.sol:Presale",
						"label": "feeAnyone",
						"offset": 0,
						"slot": "26",
						"type": "t_uint256"
					},
					{
						"astId": 793,
						"contract": "Ethereum/Presale.sol:Presale",
						"label": "admins",
						"offset": 0,
						"slot": "27",
						"type": "t_struct(AddressSet)1893_storage"
					},
					{
						"astId": 795,
						"contract": "Ethereum/Presale.sol:Presale",
						"label": "totalFee",
						"offset": 0,
						"slot": "29",
						"type": "t_uint256"
					}
				],
				"types": {
					"t_address": {
						"encoding": "inplace",
						"label": "address",
						"numberOfBytes": "20"
					},
					"t_address_payable": {
						"encoding": "inplace",
						"label": "address payable",
						"numberOfBytes": "20"
					},
					"t_array(t_address)dyn_storage": {
						"base": "t_address",
						"encoding": "dynamic_array",
						"label": "address[]",
						"numberOfBytes": "32"
					},
					"t_array(t_bytes32)dyn_storage": {
						"base": "t_bytes32",
						"encoding": "dynamic_array",
						"label": "bytes32[]",
						"numberOfBytes": "32"
					},
					"t_bool": {
						"encoding": "inplace",
						"label": "bool",
						"numberOfBytes": "1"
					},
					"t_bytes32": {
						"encoding": "inplace",
						"label": "bytes32",
						"numberOfBytes": "32"
					},
					"t_contract(ERC20)585": {
						"encoding": "inplace",
						"label": "contract ERC20",
						"numberOfBytes": "20"
					},
					"t_contract(IERC20)663": {
						"encoding": "inplace",
						"label": "contract IERC20",
						"numberOfBytes": "20"
					},
					"t_mapping(t_address,t_struct(BuyerInfo)749_storage)": {
						"encoding": "mapping",
						"key": "t_address",
						"label": "mapping(address => struct Presale.BuyerInfo)",
						"numberOfBytes": "32",
						"value": "t_struct(BuyerInfo)749_storage"
					},
					"t_mapping(t_address,t_uint256)": {
						"encoding": "mapping",
						"key": "t_address",
						"label": "mapping(address => uint256)",
						"numberOfBytes": "32",
						"value": "t_uint256"
					},
					"t_mapping(t_bytes32,t_uint256)": {
						"encoding": "mapping",
						"key": "t_bytes32",
						"label": "mapping(bytes32 => uint256)",
						"numberOfBytes": "32",
						"value": "t_uint256"
					},
					"t_struct(AddressSet)1893_storage": {
						"encoding": "inplace",
						"label": "struct EnumerableSet.AddressSet",
						"members": [
							{
								"astId": 1892,
								"contract": "Ethereum/Presale.sol:Presale",
								"label": "_inner",
								"offset": 0,
								"slot": "0",
								"type": "t_struct(Set)1592_storage"
							}
						],
						"numberOfBytes": "64"
					},
					"t_struct(BuyerInfo)749_storage": {
						"encoding": "inplace",
						"label": "struct Presale.BuyerInfo",
						"members": [
							{
								"astId": 742,
								"contract": "Ethereum/Presale.sol:Presale",
								"label": "baseDeposit",
								"offset": 0,
								"slot": "0",
								"type": "t_uint256"
							},
							{
								"astId": 744,
								"contract": "Ethereum/Presale.sol:Presale",
								"label": "tokenOwner",
								"offset": 0,
								"slot": "1",
								"type": "t_uint256"
							},
							{
								"astId": 746,
								"contract": "Ethereum/Presale.sol:Presale",
								"label": "lastWithDraw",
								"offset": 0,
								"slot": "2",
								"type": "t_uint256"
							},
							{
								"astId": 748,
								"contract": "Ethereum/Presale.sol:Presale",
								"label": "totalTokenWithDraw",
								"offset": 0,
								"slot": "3",
								"type": "t_uint256"
							}
						],
						"numberOfBytes": "128"
					},
					"t_struct(PresaleStatus)767_storage": {
						"encoding": "inplace",
						"label": "struct Presale.PresaleStatus",
						"members": [
							{
								"astId": 751,
								"contract": "Ethereum/Presale.sol:Presale",
								"label": "totalBaseCollected",
								"offset": 0,
								"slot": "0",
								"type": "t_uint256"
							},
							{
								"astId": 753,
								"contract": "Ethereum/Presale.sol:Presale",
								"label": "totalTokenSold",
								"offset": 0,
								"slot": "1",
								"type": "t_uint256"
							},
							{
								"astId": 755,
								"contract": "Ethereum/Presale.sol:Presale",
								"label": "totalTokenWithDraw",
								"offset": 0,
								"slot": "2",
								"type": "t_uint256"
							},
							{
								"astId": 757,
								"contract": "Ethereum/Presale.sol:Presale",
								"label": "totalBaseWithDraw",
								"offset": 0,
								"slot": "3",
								"type": "t_uint256"
							},
							{
								"astId": 759,
								"contract": "Ethereum/Presale.sol:Presale",
								"label": "numberBuyer",
								"offset": 0,
								"slot": "4",
								"type": "t_uint256"
							},
							{
								"astId": 761,
								"contract": "Ethereum/Presale.sol:Presale",
								"label": "isOwnerWithdrawSaleToken",
								"offset": 0,
								"slot": "5",
								"type": "t_bool"
							},
							{
								"astId": 763,
								"contract": "Ethereum/Presale.sol:Presale",
								"label": "isOwnerRefundBaseToken",
								"offset": 1,
								"slot": "5",
								"type": "t_bool"
							},
							{
								"astId": 766,
								"contract": "Ethereum/Presale.sol:Presale",
								"label": "admin",
								"offset": 0,
								"slot": "6",
								"type": "t_array(t_address)dyn_storage"
							}
						],
						"numberOfBytes": "224"
					},
					"t_struct(SaleInfor)735_storage": {
						"encoding": "inplace",
						"label": "struct Presale.SaleInfor",
						"members": [
							{
								"astId": 710,
								"contract": "Ethereum/Presale.sol:Presale",
								"label": "presaleOwner",
								"offset": 0,
								"slot": "0",
								"type": "t_address_payable"
							},
							{
								"astId": 713,
								"contract": "Ethereum/Presale.sol:Presale",
								"label": "saleToken",
								"offset": 0,
								"slot": "1",
								"type": "t_contract(ERC20)585"
							},
							{
								"astId": 716,
								"contract": "Ethereum/Presale.sol:Presale",
								"label": "baseToken",
								"offset": 0,
								"slot": "2",
								"type": "t_contract(ERC20)585"
							},
							{
								"astId": 718,
								"contract": "Ethereum/Presale.sol:Presale",
								"label": "tokenPrice",
								"offset": 0,
								"slot": "3",
								"type": "t_uint256"
							},
							{
								"astId": 720,
								"contract": "Ethereum/Presale.sol:Presale",
								"label": "startSale",
								"offset": 0,
								"slot": "4",
								"type": "t_uint256"
							},
							{
								"astId": 722,
								"contract": "Ethereum/Presale.sol:Presale",
								"label": "endSale",
								"offset": 0,
								"slot": "5",
								"type": "t_uint256"
							},
							{
								"astId": 724,
								"contract": "Ethereum/Presale.sol:Presale",
								"label": "minSpendPerBuyer",
								"offset": 0,
								"slot": "6",
								"type": "t_uint256"
							},
							{
								"astId": 726,
								"contract": "Ethereum/Presale.sol:Presale",
								"label": "maxSpendPerBuyer",
								"offset": 0,
								"slot": "7",
								"type": "t_uint256"
							},
							{
								"astId": 728,
								"contract": "Ethereum/Presale.sol:Presale",
								"label": "refundFee",
								"offset": 0,
								"slot": "8",
								"type": "t_uint256"
							},
							{
								"astId": 730,
								"contract": "Ethereum/Presale.sol:Presale",
								"label": "claimFee",
								"offset": 0,
								"slot": "9",
								"type": "t_uint256"
							},
							{
								"astId": 732,
								"contract": "Ethereum/Presale.sol:Presale",
								"label": "saleIsBaseToken",
								"offset": 0,
								"slot": "10",
								"type": "t_bool"
							},
							{
								"astId": 734,
								"contract": "Ethereum/Presale.sol:Presale",
								"label": "amountTokenForSale",
								"offset": 0,
								"slot": "11",
								"type": "t_uint256"
							}
						],
						"numberOfBytes": "384"
					},
					"t_struct(SaleTotalSupply)740_storage": {
						"encoding": "inplace",
						"label": "struct Presale.SaleTotalSupply",
						"members": [
							{
								"astId": 737,
								"contract": "Ethereum/Presale.sol:Presale",
								"label": "hardCap",
								"offset": 0,
								"slot": "0",
								"type": "t_uint256"
							},
							{
								"astId": 739,
								"contract": "Ethereum/Presale.sol:Presale",
								"label": "softCap",
								"offset": 0,
								"slot": "1",
								"type": "t_uint256"
							}
						],
						"numberOfBytes": "64"
					},
					"t_struct(Set)1592_storage": {
						"encoding": "inplace",
						"label": "struct EnumerableSet.Set",
						"members": [
							{
								"astId": 1587,
								"contract": "Ethereum/Presale.sol:Presale",
								"label": "_values",
								"offset": 0,
								"slot": "0",
								"type": "t_array(t_bytes32)dyn_storage"
							},
							{
								"astId": 1591,
								"contract": "Ethereum/Presale.sol:Presale",
								"label": "_indexes",
								"offset": 0,
								"slot": "1",
								"type": "t_mapping(t_bytes32,t_uint256)"
							}
						],
						"numberOfBytes": "64"
					},
					"t_uint256": {
						"encoding": "inplace",
						"label": "uint256",
						"numberOfBytes": "32"
					}
				}
			},
			"userdoc": {
				"kind": "user",
				"methods": {},
				"version": 1
			}
		}
	}
}