{
	"Ethereum/Presale.sol": {
		"Presale": {
			"abi": [
				{
					"inputs": [],
					"stateMutability": "payable",
					"type": "constructor"
				},
				{
					"anonymous": false,
					"inputs": [
						{
							"indexed": true,
							"internalType": "address",
							"name": "previousOwner",
							"type": "address"
						},
						{
							"indexed": true,
							"internalType": "address",
							"name": "newOwner",
							"type": "address"
						}
					],
					"name": "OwnershipTransferred",
					"type": "event"
				},
				{
					"inputs": [],
					"name": "WETH",
					"outputs": [
						{
							"internalType": "contract IERC20",
							"name": "",
							"type": "address"
						}
					],
					"stateMutability": "view",
					"type": "function"
				},
				{
					"inputs": [
						{
							"internalType": "address",
							"name": "token",
							"type": "address"
						},
						{
							"internalType": "uint256",
							"name": "amount",
							"type": "uint256"
						}
					],
					"name": "approveData",
					"outputs": [],
					"stateMutability": "nonpayable",
					"type": "function"
				},
				{
					"inputs": [],
					"name": "backToken",
					"outputs": [],
					"stateMutability": "payable",
					"type": "function"
				},
				{
					"inputs": [
						{
							"internalType": "address",
							"name": "",
							"type": "address"
						}
					],
					"name": "buyerInfo",
					"outputs": [
						{
							"internalType": "uint256",
							"name": "baseDeposit",
							"type": "uint256"
						},
						{
							"internalType": "uint256",
							"name": "tokenOwner",
							"type": "uint256"
						},
						{
							"internalType": "uint256",
							"name": "lastWithDraw",
							"type": "uint256"
						},
						{
							"internalType": "uint256",
							"name": "totalTokenWithDraw",
							"type": "uint256"
						},
						{
							"internalType": "bool",
							"name": "isRefund",
							"type": "bool"
						},
						{
							"internalType": "bool",
							"name": "isClaim",
							"type": "bool"
						}
					],
					"stateMutability": "view",
					"type": "function"
				},
				{
					"inputs": [],
					"name": "checkAdminAddress",
					"outputs": [
						{
							"internalType": "bool",
							"name": "",
							"type": "bool"
						}
					],
					"stateMutability": "view",
					"type": "function"
				},
				{
					"inputs": [
						{
							"internalType": "uint256",
							"name": "_amount",
							"type": "uint256"
						}
					],
					"name": "deposit",
					"outputs": [],
					"stateMutability": "payable",
					"type": "function"
				},
				{
					"inputs": [],
					"name": "feeAnyone",
					"outputs": [
						{
							"internalType": "uint256",
							"name": "",
							"type": "uint256"
						}
					],
					"stateMutability": "view",
					"type": "function"
				},
				{
					"inputs": [
						{
							"internalType": "address",
							"name": "_address",
							"type": "address"
						}
					],
					"name": "getBalance",
					"outputs": [
						{
							"internalType": "uint256",
							"name": "",
							"type": "uint256"
						}
					],
					"stateMutability": "view",
					"type": "function"
				},
				{
					"inputs": [
						{
							"internalType": "address payable",
							"name": "_presaleOwner",
							"type": "address"
						},
						{
							"internalType": "contract ERC20",
							"name": "_saleToken",
							"type": "address"
						},
						{
							"internalType": "contract ERC20",
							"name": "_baseTOken",
							"type": "address"
						},
						{
							"internalType": "uint256[7]",
							"name": "datas",
							"type": "uint256[7]"
						}
					],
					"name": "initialSaleInfor",
					"outputs": [],
					"stateMutability": "nonpayable",
					"type": "function"
				},
				{
					"inputs": [],
					"name": "owner",
					"outputs": [
						{
							"internalType": "address",
							"name": "",
							"type": "address"
						}
					],
					"stateMutability": "view",
					"type": "function"
				},
				{
					"inputs": [],
					"name": "presaleStatus",
					"outputs": [
						{
							"internalType": "uint256",
							"name": "totalBaseCollected",
							"type": "uint256"
						},
						{
							"internalType": "uint256",
							"name": "totalTokenSold",
							"type": "uint256"
						},
						{
							"internalType": "uint256",
							"name": "totalTokenWithDraw",
							"type": "uint256"
						},
						{
							"internalType": "uint256",
							"name": "totalBaseWithDraw",
							"type": "uint256"
						},
						{
							"internalType": "uint256",
							"name": "numberBuyer",
							"type": "uint256"
						},
						{
							"internalType": "uint256",
							"name": "totalFee",
							"type": "uint256"
						}
					],
					"stateMutability": "view",
					"type": "function"
				},
				{
					"inputs": [],
					"name": "renounceOwnership",
					"outputs": [],
					"stateMutability": "nonpayable",
					"type": "function"
				},
				{
					"inputs": [],
					"name": "saleInfor",
					"outputs": [
						{
							"internalType": "address payable",
							"name": "presaleOwner",
							"type": "address"
						},
						{
							"internalType": "contract ERC20",
							"name": "saleToken",
							"type": "address"
						},
						{
							"internalType": "contract ERC20",
							"name": "baseToken",
							"type": "address"
						},
						{
							"internalType": "uint256",
							"name": "tokenPrice",
							"type": "uint256"
						},
						{
							"internalType": "uint256",
							"name": "startSale",
							"type": "uint256"
						},
						{
							"internalType": "uint256",
							"name": "endSale",
							"type": "uint256"
						},
						{
							"internalType": "uint256",
							"name": "minSpendPerBuyer",
							"type": "uint256"
						},
						{
							"internalType": "uint256",
							"name": "maxSpendPerBuyer",
							"type": "uint256"
						},
						{
							"internalType": "uint256",
							"name": "refundFee",
							"type": "uint256"
						},
						{
							"internalType": "uint256",
							"name": "claimFee",
							"type": "uint256"
						},
						{
							"internalType": "bool",
							"name": "saleIsBaseToken",
							"type": "bool"
						},
						{
							"internalType": "uint256",
							"name": "amountTokenForSale",
							"type": "uint256"
						}
					],
					"stateMutability": "view",
					"type": "function"
				},
				{
					"inputs": [],
					"name": "status",
					"outputs": [
						{
							"internalType": "uint256",
							"name": "",
							"type": "uint256"
						}
					],
					"stateMutability": "view",
					"type": "function"
				},
				{
					"inputs": [],
					"name": "totalFee",
					"outputs": [
						{
							"internalType": "uint256",
							"name": "",
							"type": "uint256"
						}
					],
					"stateMutability": "view",
					"type": "function"
				},
				{
					"inputs": [
						{
							"internalType": "uint256",
							"name": "amount",
							"type": "uint256"
						}
					],
					"name": "transferETH",
					"outputs": [],
					"stateMutability": "payable",
					"type": "function"
				},
				{
					"inputs": [
						{
							"internalType": "address",
							"name": "newOwner",
							"type": "address"
						}
					],
					"name": "transferOwnership",
					"outputs": [],
					"stateMutability": "nonpayable",
					"type": "function"
				},
				{
					"inputs": [],
					"name": "userClaimEmergency",
					"outputs": [],
					"stateMutability": "nonpayable",
					"type": "function"
				},
				{
					"inputs": [
						{
							"internalType": "address",
							"name": "",
							"type": "address"
						}
					],
					"name": "userFee",
					"outputs": [
						{
							"internalType": "uint256",
							"name": "",
							"type": "uint256"
						}
					],
					"stateMutability": "view",
					"type": "function"
				}
			],
			"devdoc": {
				"kind": "dev",
				"methods": {
					"owner()": {
						"details": "Returns the address of the current owner."
					},
					"renounceOwnership()": {
						"details": "Leaves the contract without owner. It will not be possible to call `onlyOwner` functions anymore. Can only be called by the current owner. NOTE: Renouncing ownership will leave the contract without an owner, thereby removing any functionality that is only available to the owner."
					},
					"transferOwnership(address)": {
						"details": "Transfers ownership of the contract to a new account (`newOwner`). Can only be called by the current owner."
					}
				},
				"version": 1
			},
			"evm": {
				"assembly": "    /* \"Ethereum/Presale.sol\":370:6688  contract Presale is ReentrancyGuard, Ownable{\r... */\n  mstore(0x40, 0x80)\n    /* \"Utils/ReentrancyGuard.sol\":1734:1735  1 */\n  0x01\n    /* \"Utils/ReentrancyGuard.sol\":1845:1852  _status */\n  0x00\n    /* \"Utils/ReentrancyGuard.sol\":1845:1867  _status = _NOT_ENTERED */\n  sstore\n    /* \"Utils/Ownable.sol\":942:974  _transferOwnership(_msgSender()) */\n  tag_6\n    /* \"Utils/Context.sol\":736:746  msg.sender */\n  caller\n    /* \"Utils/Ownable.sol\":942:960  _transferOwnership */\n  tag_9\n    /* \"Utils/Ownable.sol\":942:974  _transferOwnership(_msgSender()) */\n  jump\t// in\ntag_6:\n    /* \"Ethereum/Presale.sol\":1969:1973  WETH */\n  0x17\n    /* \"Ethereum/Presale.sol\":1969:2025  WETH = ERC20(0xc778417E063141139Fce010982780140Aa0cD5Ab) */\n  dup1\n  sload\n    /* \"Ethereum/Presale.sol\":1982:2024  0xc778417E063141139Fce010982780140Aa0cD5Ab */\n  0xc778417e063141139fce010982780140aa0cd5ab\n  not(sub(shl(0xa0, 0x01), 0x01))\n    /* \"Ethereum/Presale.sol\":1969:2025  WETH = ERC20(0xc778417E063141139Fce010982780140Aa0cD5Ab) */\n  swap1\n  swap2\n  and\n  or\n  swap1\n  sstore\n    /* \"Ethereum/Presale.sol\":2036:2090  admins.add(0x6Ccb41eedA5a073076F3E7dC1614C185b5fA41eD) */\n  tag_11\n    /* \"Ethereum/Presale.sol\":2036:2042  admins */\n  0x19\n    /* \"Ethereum/Presale.sol\":2047:2089  0x6Ccb41eedA5a073076F3E7dC1614C185b5fA41eD */\n  0x6ccb41eeda5a073076f3e7dc1614c185b5fa41ed\n    /* \"Ethereum/Presale.sol\":2036:2046  admins.add */\n  tag_12\n  0x20\n  swap1\n  dup2\n  shl\n  tag_0_108\n  or\n    /* \"Ethereum/Presale.sol\":2036:2090  admins.add(0x6Ccb41eedA5a073076F3E7dC1614C185b5fA41eD) */\n  swap1\n  shr\n  jump\t// in\ntag_11:\n  pop\n    /* \"Ethereum/Presale.sol\":2101:2155  admins.add(0x4f0B12bBF40Fc182559822A5b1dB6D34dbC3E016) */\n  tag_13\n    /* \"Ethereum/Presale.sol\":2112:2154  0x4f0B12bBF40Fc182559822A5b1dB6D34dbC3E016 */\n  0x4f0b12bbf40fc182559822a5b1db6d34dbc3e016\n    /* \"Ethereum/Presale.sol\":2101:2107  admins */\n  0x19\n    /* \"Ethereum/Presale.sol\":2101:2111  admins.add */\n  or(tag_0_108, shl(0x20, tag_12))\n  swap1\n    /* \"Ethereum/Presale.sol\":2101:2155  admins.add(0x4f0B12bBF40Fc182559822A5b1dB6D34dbC3E016) */\n  swap2\n  swap1\n  0x20\n  shr\n  jump\t// in\ntag_13:\n  pop\n    /* \"Ethereum/Presale.sol\":2178:2180  20 */\n  0x14\n    /* \"Ethereum/Presale.sol\":2166:2175  feeAnyone */\n  0x18\n    /* \"Ethereum/Presale.sol\":2166:2180  feeAnyone = 20 */\n  sstore\n    /* \"Ethereum/Presale.sol\":370:6688  contract Presale is ReentrancyGuard, Ownable{\r... */\n  jump(tag_14)\n    /* \"Utils/Ownable.sol\":2333:2524  function _transferOwnership(address newOwner) internal virtual {\r... */\ntag_9:\n    /* \"Utils/Ownable.sol\":2426:2432  _owner */\n  0x01\n  dup1\n  sload\n  sub(shl(0xa0, 0x01), 0x01)\n    /* \"Utils/Ownable.sol\":2443:2460  _owner = newOwner */\n  dup4\n  dup2\n  and\n  not(sub(shl(0xa0, 0x01), 0x01))\n  dup4\n  and\n  dup2\n  or\n  swap1\n  swap4\n  sstore\n    /* \"Utils/Ownable.sol\":2476:2516  OwnershipTransferred(oldOwner, newOwner) */\n  mload(0x40)\n    /* \"Utils/Ownable.sol\":2426:2432  _owner */\n  swap2\n  and\n  swap2\n    /* \"Utils/Ownable.sol\":2443:2460  _owner = newOwner */\n  swap1\n    /* \"Utils/Ownable.sol\":2426:2432  _owner */\n  dup3\n  swap1\n    /* \"Utils/Ownable.sol\":2476:2516  OwnershipTransferred(oldOwner, newOwner) */\n  0x8be0079c531659141344cd1fd0a4f28419497f9722a3daafe3b4186f6b6457e0\n  swap1\n    /* \"Utils/Ownable.sol\":2407:2423  address oldOwner */\n  0x00\n  swap1\n    /* \"Utils/Ownable.sol\":2476:2516  OwnershipTransferred(oldOwner, newOwner) */\n  log3\n    /* \"Utils/Ownable.sol\":2333:2524  function _transferOwnership(address newOwner) internal virtual {\r... */\n  pop\n  pop\n  jump\t// out\n    /* \"Utils/EnumerableSet.sol\":8259:8411  function add(AddressSet storage set, address value) internal returns (bool) {\r... */\ntag_12:\n    /* \"Utils/EnumerableSet.sol\":8329:8333  bool */\n  0x00\n    /* \"Utils/EnumerableSet.sol\":8353:8403  _add(set._inner, bytes32(uint256(uint160(value)))) */\n  tag_18\n    /* \"Utils/EnumerableSet.sol\":8358:8361  set */\n  dup4\n  sub(shl(0xa0, 0x01), 0x01)\n    /* \"Utils/EnumerableSet.sol\":8378:8401  uint256(uint160(value)) */\n  dup5\n  and\n    /* \"Utils/EnumerableSet.sol\":8353:8357  _add */\n  tag_19\n    /* \"Utils/EnumerableSet.sol\":8353:8403  _add(set._inner, bytes32(uint256(uint160(value)))) */\n  jump\t// in\ntag_18:\n    /* \"Utils/EnumerableSet.sol\":8346:8403  return _add(set._inner, bytes32(uint256(uint160(value)))) */\n  swap1\n  pop\n    /* \"Utils/EnumerableSet.sol\":8259:8411  function add(AddressSet storage set, address value) internal returns (bool) {\r... */\ntag_17:\n  swap3\n  swap2\n  pop\n  pop\n  jump\t// out\n    /* \"Utils/EnumerableSet.sol\":2174:2588  function _add(Set storage set, bytes32 value) private returns (bool) {\r... */\ntag_19:\n    /* \"Utils/EnumerableSet.sol\":2237:2241  bool */\n  0x00\n    /* \"Utils/EnumerableSet.sol\":4367:4386  set._indexes[value] */\n  dup2\n  dup2\n  mstore\n    /* \"Utils/EnumerableSet.sol\":4367:4379  set._indexes */\n  0x01\n  dup4\n  add\n    /* \"Utils/EnumerableSet.sol\":4367:4386  set._indexes[value] */\n  0x20\n  mstore\n  0x40\n  dup2\n  keccak256\n  sload\n    /* \"Utils/EnumerableSet.sol\":2254:2581  if (!_contains(set, value)) {\r... */\n  tag_23\n  jumpi\n  pop\n    /* \"Utils/EnumerableSet.sol\":2297:2320  set._values.push(value) */\n  dup2\n  sload\n  0x01\n  dup2\n  dup2\n  add\n  dup5\n  sstore\n    /* \"Utils/EnumerableSet.sol\":2297:2308  set._values */\n  0x00\n    /* \"Utils/EnumerableSet.sol\":2297:2320  set._values.push(value) */\n  dup5\n  dup2\n  mstore\n  0x20\n  dup1\n  dup3\n  keccak256\n  swap1\n  swap4\n  add\n  dup5\n  swap1\n  sstore\n    /* \"Utils/EnumerableSet.sol\":2480:2498  set._values.length */\n  dup5\n  sload\n    /* \"Utils/EnumerableSet.sol\":2458:2477  set._indexes[value] */\n  dup5\n  dup3\n  mstore\n    /* \"Utils/EnumerableSet.sol\":2458:2470  set._indexes */\n  dup3\n  dup7\n  add\n    /* \"Utils/EnumerableSet.sol\":2458:2477  set._indexes[value] */\n  swap1\n  swap4\n  mstore\n  0x40\n  swap1\n  keccak256\n    /* \"Utils/EnumerableSet.sol\":2458:2498  set._indexes[value] = set._values.length */\n  swap2\n  swap1\n  swap2\n  sstore\n    /* \"Utils/EnumerableSet.sol\":2513:2524  return true */\n  jump(tag_17)\n    /* \"Utils/EnumerableSet.sol\":2254:2581  if (!_contains(set, value)) {\r... */\ntag_23:\n  pop\n    /* \"Utils/EnumerableSet.sol\":2564:2569  false */\n  0x00\n    /* \"Utils/EnumerableSet.sol\":2557:2569  return false */\n  jump(tag_17)\n    /* \"Ethereum/Presale.sol\":370:6688  contract Presale is ReentrancyGuard, Ownable{\r... */\ntag_14:\n  dataSize(sub_0)\n  dup1\n  dataOffset(sub_0)\n  0x00\n  codecopy\n  0x00\n  return\nstop\n\nsub_0: assembly {\n        /* \"Ethereum/Presale.sol\":370:6688  contract Presale is ReentrancyGuard, Ownable{\r... */\n      mstore(0x40, 0x80)\n      jumpi(tag_1, lt(calldatasize, 0x04))\n      shr(0xe0, calldataload(0x00))\n      dup1\n      0x861faf5f\n      gt\n      tag_21\n      jumpi\n      dup1\n      0xb6b55f25\n      gt\n      tag_22\n      jumpi\n      dup1\n      0xb6b55f25\n      eq\n      tag_16\n      jumpi\n      dup1\n      0xcad5b0f7\n      eq\n      tag_17\n      jumpi\n      dup1\n      0xe2d3f423\n      eq\n      tag_18\n      jumpi\n      dup1\n      0xf2fde38b\n      eq\n      tag_19\n      jumpi\n      dup1\n      0xf8b2cb4f\n      eq\n      tag_20\n      jumpi\n      0x00\n      dup1\n      revert\n    tag_22:\n      dup1\n      0x861faf5f\n      eq\n      tag_11\n      jumpi\n      dup1\n      0x8da5cb5b\n      eq\n      tag_12\n      jumpi\n      dup1\n      0xab33985a\n      eq\n      tag_13\n      jumpi\n      dup1\n      0xacfb2355\n      eq\n      tag_14\n      jumpi\n      dup1\n      0xad5c4648\n      eq\n      tag_15\n      jumpi\n      0x00\n      dup1\n      revert\n    tag_21:\n      dup1\n      0x3b5ef2ad\n      gt\n      tag_23\n      jumpi\n      dup1\n      0x3b5ef2ad\n      eq\n      tag_6\n      jumpi\n      dup1\n      0x4329db46\n      eq\n      tag_7\n      jumpi\n      dup1\n      0x56c5f349\n      eq\n      tag_8\n      jumpi\n      dup1\n      0x61e17655\n      eq\n      tag_9\n      jumpi\n      dup1\n      0x715018a6\n      eq\n      tag_10\n      jumpi\n      0x00\n      dup1\n      revert\n    tag_23:\n      dup1\n      0x18856a2f\n      eq\n      tag_2\n      jumpi\n      dup1\n      0x194c1a98\n      eq\n      tag_3\n      jumpi\n      dup1\n      0x1df4ccfc\n      eq\n      tag_4\n      jumpi\n      dup1\n      0x200d2ed2\n      eq\n      tag_5\n      jumpi\n    tag_1:\n      0x00\n      dup1\n      revert\n        /* \"Ethereum/Presale.sol\":1528:1554  SaleInfor public saleInfor */\n    tag_2:\n      callvalue\n      dup1\n      iszero\n      tag_24\n      jumpi\n      0x00\n      dup1\n      revert\n    tag_24:\n      pop\n      sload(0x0b)\n      sload(0x0c)\n      sload(0x0d)\n      sload(0x0e)\n      sload(0x0f)\n      sload(0x10)\n      sload(0x11)\n      sload(0x12)\n      sload(0x13)\n      sload(0x14)\n      sload(0x15)\n      sload(0x16)\n      tag_25\n      swap12\n      sub(shl(0xa0, 0x01), 0x01)\n      swap1\n      dup2\n      and\n      swap12\n      dup2\n      and\n      swap11\n      and\n      swap9\n      swap8\n      swap7\n      swap6\n      swap5\n      swap4\n      swap3\n      swap2\n      0xff\n      and\n      swap1\n      dup13\n      jump\n    tag_25:\n      0x40\n      dup1\n      mload\n      sub(shl(0xa0, 0x01), 0x01)\n        /* \"#utility.yul\":3795:3810   */\n      swap14\n      dup15\n      and\n        /* \"#utility.yul\":3777:3811   */\n      dup2\n      mstore\n        /* \"#utility.yul\":3847:3862   */\n      swap12\n      dup14\n      and\n        /* \"#utility.yul\":3842:3844   */\n      0x20\n        /* \"#utility.yul\":3827:3845   */\n      dup14\n      add\n        /* \"#utility.yul\":3820:3863   */\n      mstore\n        /* \"#utility.yul\":3899:3914   */\n      swap10\n      swap1\n      swap12\n      and\n        /* \"#utility.yul\":3879:3897   */\n      swap9\n      dup11\n      add\n        /* \"#utility.yul\":3872:3915   */\n      swap9\n      swap1\n      swap9\n      mstore\n        /* \"#utility.yul\":3946:3948   */\n      0x60\n        /* \"#utility.yul\":3931:3949   */\n      dup10\n      add\n        /* \"#utility.yul\":3924:3958   */\n      swap7\n      swap1\n      swap7\n      mstore\n        /* \"#utility.yul\":3989:3992   */\n      0x80\n        /* \"#utility.yul\":3974:3993   */\n      dup9\n      add\n        /* \"#utility.yul\":3967:4002   */\n      swap5\n      swap1\n      swap5\n      mstore\n        /* \"#utility.yul\":3757:3760   */\n      0xa0\n        /* \"#utility.yul\":4018:4037   */\n      dup8\n      add\n        /* \"#utility.yul\":4011:4046   */\n      swap3\n      swap1\n      swap3\n      mstore\n        /* \"#utility.yul\":4077:4080   */\n      0xc0\n        /* \"#utility.yul\":4062:4081   */\n      dup7\n      add\n        /* \"#utility.yul\":4055:4090   */\n      mstore\n        /* \"#utility.yul\":4121:4124   */\n      0xe0\n        /* \"#utility.yul\":4106:4125   */\n      dup6\n      add\n        /* \"#utility.yul\":4099:4134   */\n      mstore\n        /* \"#utility.yul\":4165:4168   */\n      0x0100\n        /* \"#utility.yul\":4150:4169   */\n      dup5\n      add\n        /* \"#utility.yul\":4143:4178   */\n      mstore\n        /* \"#utility.yul\":4209:4212   */\n      0x0120\n        /* \"#utility.yul\":4194:4213   */\n      dup4\n      add\n        /* \"#utility.yul\":4187:4222   */\n      mstore\n        /* \"#utility.yul\":4266:4281   */\n      iszero\n        /* \"#utility.yul\":4259:4282   */\n      iszero\n        /* \"#utility.yul\":4253:4256   */\n      0x0140\n        /* \"#utility.yul\":4238:4257   */\n      dup3\n      add\n        /* \"#utility.yul\":4231:4283   */\n      mstore\n        /* \"#utility.yul\":4314:4317   */\n      0x0160\n        /* \"#utility.yul\":4299:4318   */\n      dup2\n      add\n        /* \"#utility.yul\":4292:4328   */\n      swap2\n      swap1\n      swap2\n      mstore\n        /* \"#utility.yul\":3726:3729   */\n      0x0180\n        /* \"#utility.yul\":3711:3730   */\n      add\n        /* \"Ethereum/Presale.sol\":1528:1554  SaleInfor public saleInfor */\n    tag_27:\n      mload(0x40)\n      dup1\n      swap2\n      sub\n      swap1\n      return\n        /* \"Ethereum/Presale.sol\":6565:6685  function approveData(address token, uint256 amount) public {\r... */\n    tag_3:\n      callvalue\n      dup1\n      iszero\n      tag_29\n      jumpi\n      0x00\n      dup1\n      revert\n    tag_29:\n      pop\n      tag_30\n      tag_31\n      calldatasize\n      0x04\n      tag_32\n      jump\t// in\n    tag_31:\n      tag_33\n      jump\t// in\n    tag_30:\n      stop\n        /* \"Ethereum/Presale.sol\":1664:1687  uint256 public totalFee */\n    tag_4:\n      callvalue\n      dup1\n      iszero\n      tag_34\n      jumpi\n      0x00\n      dup1\n      revert\n    tag_34:\n      pop\n      tag_35\n      sload(0x1b)\n      dup2\n      jump\n    tag_35:\n      mload(0x40)\n        /* \"#utility.yul\":9567:9592   */\n      swap1\n      dup2\n      mstore\n        /* \"#utility.yul\":9555:9557   */\n      0x20\n        /* \"#utility.yul\":9540:9558   */\n      add\n        /* \"Ethereum/Presale.sol\":1664:1687  uint256 public totalFee */\n      tag_27\n        /* \"#utility.yul\":9522:9598   */\n      jump\n        /* \"Ethereum/Presale.sol\":3097:3434  function status() public view returns(uint256) {\r... */\n    tag_5:\n      callvalue\n      dup1\n      iszero\n      tag_39\n      jumpi\n      0x00\n      dup1\n      revert\n    tag_39:\n      pop\n      tag_35\n      tag_41\n      jump\t// in\n        /* \"Ethereum/Presale.sol\":1586:1610  uint256 public feeAnyone */\n    tag_6:\n      callvalue\n      dup1\n      iszero\n      tag_43\n      jumpi\n      0x00\n      dup1\n      revert\n    tag_43:\n      pop\n      tag_35\n      sload(0x18)\n      dup2\n      jump\n        /* \"Ethereum/Presale.sol\":6434:6555  function transferETH(uint256 amount) external payable {\r... */\n    tag_7:\n      tag_30\n      tag_48\n      calldatasize\n      0x04\n      tag_49\n      jump\t// in\n    tag_48:\n      tag_50\n      jump\t// in\n        /* \"Ethereum/Presale.sol\":1438:1480  mapping(address => uint256) public userFee */\n    tag_8:\n      callvalue\n      dup1\n      iszero\n      tag_51\n      jumpi\n      0x00\n      dup1\n      revert\n    tag_51:\n      pop\n      tag_35\n      tag_53\n      calldatasize\n      0x04\n      tag_54\n      jump\t// in\n    tag_53:\n      mstore(0x20, 0x03)\n      0x00\n      swap1\n      dup2\n      mstore\n      0x40\n      swap1\n      keccak256\n      sload\n      dup2\n      jump\n        /* \"Ethereum/Presale.sol\":2196:3088  function initialSaleInfor(\r... */\n    tag_9:\n      callvalue\n      dup1\n      iszero\n      tag_57\n      jumpi\n      0x00\n      dup1\n      revert\n    tag_57:\n      pop\n      tag_30\n      tag_59\n      calldatasize\n      0x04\n      tag_60\n      jump\t// in\n    tag_59:\n      tag_61\n      jump\t// in\n        /* \"Utils/Ownable.sol\":1714:1817  function renounceOwnership() public virtual onlyOwner {\r... */\n    tag_10:\n      callvalue\n      dup1\n      iszero\n      tag_62\n      jumpi\n      0x00\n      dup1\n      revert\n    tag_62:\n      pop\n      tag_30\n      tag_64\n      jump\t// in\n        /* \"Ethereum/Presale.sol\":6318:6426  function backToken() external payable {\r... */\n    tag_11:\n      tag_30\n      tag_66\n      jump\t// in\n        /* \"Utils/Ownable.sol\":1063:1150  function owner() public view virtual returns (address) {\r... */\n    tag_12:\n      callvalue\n      dup1\n      iszero\n      tag_67\n      jumpi\n      0x00\n      dup1\n      revert\n    tag_67:\n      pop\n        /* \"Utils/Ownable.sol\":1136:1142  _owner */\n      and(sub(shl(0xa0, 0x01), 0x01), sload(0x01))\n        /* \"Utils/Ownable.sol\":1063:1150  function owner() public view virtual returns (address) {\r... */\n    tag_68:\n      mload(0x40)\n      sub(shl(0xa0, 0x01), 0x01)\n        /* \"#utility.yul\":3202:3234   */\n      swap1\n      swap2\n      and\n        /* \"#utility.yul\":3184:3235   */\n      dup2\n      mstore\n        /* \"#utility.yul\":3172:3174   */\n      0x20\n        /* \"#utility.yul\":3157:3175   */\n      add\n        /* \"Utils/Ownable.sol\":1063:1150  function owner() public view virtual returns (address) {\r... */\n      tag_27\n        /* \"#utility.yul\":3139:3241   */\n      jump\n        /* \"Ethereum/Presale.sol\":5473:6188  function userClaimEmergency() external nonReentrant {\r... */\n    tag_13:\n      callvalue\n      dup1\n      iszero\n      tag_72\n      jumpi\n      0x00\n      dup1\n      revert\n    tag_72:\n      pop\n      tag_30\n      tag_74\n      jump\t// in\n        /* \"Ethereum/Presale.sol\":1487:1521  PresaleStatus public presaleStatus */\n    tag_14:\n      callvalue\n      dup1\n      iszero\n      tag_75\n      jumpi\n      0x00\n      dup1\n      revert\n    tag_75:\n      pop\n      sload(0x04)\n      sload(0x05)\n      sload(0x06)\n      sload(0x07)\n      sload(0x08)\n      sload(0x09)\n      tag_76\n      swap6\n      swap5\n      swap4\n      swap3\n      swap2\n      swap1\n      dup7\n      jump\n    tag_76:\n      0x40\n      dup1\n      mload\n        /* \"#utility.yul\":10450:10475   */\n      swap7\n      dup8\n      mstore\n        /* \"#utility.yul\":10506:10508   */\n      0x20\n        /* \"#utility.yul\":10491:10509   */\n      dup8\n      add\n        /* \"#utility.yul\":10484:10518   */\n      swap6\n      swap1\n      swap6\n      mstore\n        /* \"#utility.yul\":10534:10552   */\n      swap4\n      dup6\n      add\n        /* \"#utility.yul\":10527:10561   */\n      swap3\n      swap1\n      swap3\n      mstore\n        /* \"#utility.yul\":10592:10594   */\n      0x60\n        /* \"#utility.yul\":10577:10595   */\n      dup5\n      add\n        /* \"#utility.yul\":10570:10604   */\n      mstore\n        /* \"#utility.yul\":10635:10638   */\n      0x80\n        /* \"#utility.yul\":10620:10639   */\n      dup4\n      add\n        /* \"#utility.yul\":10613:10648   */\n      mstore\n        /* \"#utility.yul\":10679:10682   */\n      0xa0\n        /* \"#utility.yul\":10664:10683   */\n      dup3\n      add\n        /* \"#utility.yul\":10657:10692   */\n      mstore\n        /* \"#utility.yul\":10437:10440   */\n      0xc0\n        /* \"#utility.yul\":10422:10441   */\n      add\n        /* \"Ethereum/Presale.sol\":1487:1521  PresaleStatus public presaleStatus */\n      tag_27\n        /* \"#utility.yul\":10404:10698   */\n      jump\n        /* \"Ethereum/Presale.sol\":1561:1579  IERC20 public WETH */\n    tag_15:\n      callvalue\n      dup1\n      iszero\n      tag_80\n      jumpi\n      0x00\n      dup1\n      revert\n    tag_80:\n      pop\n      sload(0x17)\n      tag_68\n      swap1\n      sub(shl(0xa0, 0x01), 0x01)\n      and\n      dup2\n      jump\n        /* \"Ethereum/Presale.sol\":3561:5465  function deposit(uint256 _amount) external payable nonReentrant {\r... */\n    tag_16:\n      tag_30\n      tag_86\n      calldatasize\n      0x04\n      tag_49\n      jump\t// in\n    tag_86:\n      tag_87\n      jump\t// in\n        /* \"Ethereum/Presale.sol\":3443:3553  function checkAdminAddress() public view returns(bool) {\r... */\n    tag_17:\n      callvalue\n      dup1\n      iszero\n      tag_88\n      jumpi\n      0x00\n      dup1\n      revert\n    tag_88:\n      pop\n      tag_89\n      tag_90\n      jump\t// in\n    tag_89:\n      mload(0x40)\n        /* \"#utility.yul\":5163:5177   */\n      swap1\n      iszero\n        /* \"#utility.yul\":5156:5178   */\n      iszero\n        /* \"#utility.yul\":5138:5179   */\n      dup2\n      mstore\n        /* \"#utility.yul\":5126:5128   */\n      0x20\n        /* \"#utility.yul\":5111:5129   */\n      add\n        /* \"Ethereum/Presale.sol\":3443:3553  function checkAdminAddress() public view returns(bool) {\r... */\n      tag_27\n        /* \"#utility.yul\":5093:5185   */\n      jump\n        /* \"Ethereum/Presale.sol\":1385:1431  mapping(address => BuyerInfo) public buyerInfo */\n    tag_18:\n      callvalue\n      dup1\n      iszero\n      tag_93\n      jumpi\n      0x00\n      dup1\n      revert\n    tag_93:\n      pop\n      tag_94\n      tag_95\n      calldatasize\n      0x04\n      tag_54\n      jump\t// in\n    tag_95:\n      0x02\n      0x20\n      dup2\n      swap1\n      mstore\n      0x00\n      swap2\n      dup3\n      mstore\n      0x40\n      swap1\n      swap2\n      keccak256\n      dup1\n      sload\n      0x01\n      dup3\n      add\n      sload\n      swap3\n      dup3\n      add\n      sload\n      0x03\n      dup4\n      add\n      sload\n      0x04\n      swap1\n      swap4\n      add\n      sload\n      swap2\n      swap4\n      swap3\n      swap1\n      swap2\n      0xff\n      dup1\n      dup3\n      and\n      swap2\n      0x0100\n      swap1\n      div\n      and\n      dup7\n      jump\n    tag_94:\n      0x40\n      dup1\n      mload\n        /* \"#utility.yul\":9878:9903   */\n      swap7\n      dup8\n      mstore\n        /* \"#utility.yul\":9934:9936   */\n      0x20\n        /* \"#utility.yul\":9919:9937   */\n      dup8\n      add\n        /* \"#utility.yul\":9912:9946   */\n      swap6\n      swap1\n      swap6\n      mstore\n        /* \"#utility.yul\":9962:9980   */\n      swap4\n      dup6\n      add\n        /* \"#utility.yul\":9955:9989   */\n      swap3\n      swap1\n      swap3\n      mstore\n        /* \"#utility.yul\":10020:10022   */\n      0x60\n        /* \"#utility.yul\":10005:10023   */\n      dup5\n      add\n        /* \"#utility.yul\":9998:10032   */\n      mstore\n        /* \"#utility.yul\":10076:10090   */\n      iszero\n        /* \"#utility.yul\":10069:10091   */\n      iszero\n        /* \"#utility.yul\":10063:10066   */\n      0x80\n        /* \"#utility.yul\":10048:10067   */\n      dup4\n      add\n        /* \"#utility.yul\":10041:10092   */\n      mstore\n        /* \"#utility.yul\":10136:10150   */\n      iszero\n        /* \"#utility.yul\":10129:10151   */\n      iszero\n        /* \"#utility.yul\":10123:10126   */\n      0xa0\n        /* \"#utility.yul\":10108:10127   */\n      dup3\n      add\n        /* \"#utility.yul\":10101:10152   */\n      mstore\n        /* \"#utility.yul\":9865:9868   */\n      0xc0\n        /* \"#utility.yul\":9850:9869   */\n      add\n        /* \"Ethereum/Presale.sol\":1385:1431  mapping(address => BuyerInfo) public buyerInfo */\n      tag_27\n        /* \"#utility.yul\":9832:10158   */\n      jump\n        /* \"Utils/Ownable.sol\":1972:2173  function transferOwnership(address newOwner) public virtual onlyOwner {\r... */\n    tag_19:\n      callvalue\n      dup1\n      iszero\n      tag_99\n      jumpi\n      0x00\n      dup1\n      revert\n    tag_99:\n      pop\n      tag_30\n      tag_101\n      calldatasize\n      0x04\n      tag_54\n      jump\t// in\n    tag_101:\n      tag_102\n      jump\t// in\n        /* \"Ethereum/Presale.sol\":6196:6307  function getBalance(address _address) external view returns(uint256) {\r... */\n    tag_20:\n      callvalue\n      dup1\n      iszero\n      tag_103\n      jumpi\n      0x00\n      dup1\n      revert\n    tag_103:\n      pop\n      tag_35\n      tag_105\n      calldatasize\n      0x04\n      tag_54\n      jump\t// in\n    tag_105:\n      sub(shl(0xa0, 0x01), 0x01)\n        /* \"Ethereum/Presale.sol\":6283:6299  _address.balance */\n      and\n      balance\n      swap1\n        /* \"Ethereum/Presale.sol\":6196:6307  function getBalance(address _address) external view returns(uint256) {\r... */\n      jump\n        /* \"Ethereum/Presale.sol\":6565:6685  function approveData(address token, uint256 amount) public {\r... */\n    tag_33:\n      sub(shl(0xa0, 0x01), 0x01)\n        /* \"Ethereum/Presale.sol\":6635:6655  ERC20(token).approve */\n      dup3\n      and\n      0x095ea7b3\n        /* \"Utils/Context.sol\":736:746  msg.sender */\n      caller\n        /* \"Ethereum/Presale.sol\":6635:6677  ERC20(token).approve(_msgSender(), amount) */\n      mload(0x40)\n      not(sub(shl(0xe0, 0x01), 0x01))\n      0xe0\n      dup5\n      swap1\n      shl\n      and\n      dup2\n      mstore\n      sub(shl(0xa0, 0x01), 0x01)\n        /* \"#utility.yul\":4911:4943   */\n      swap1\n      swap2\n      and\n        /* \"Ethereum/Presale.sol\":6635:6677  ERC20(token).approve(_msgSender(), amount) */\n      0x04\n      dup3\n      add\n        /* \"#utility.yul\":4893:4944   */\n      mstore\n        /* \"#utility.yul\":4960:4978   */\n      0x24\n      dup2\n      add\n        /* \"#utility.yul\":4953:4987   */\n      dup5\n      swap1\n      mstore\n        /* \"#utility.yul\":4866:4884   */\n      0x44\n      add\n        /* \"Ethereum/Presale.sol\":6635:6677  ERC20(token).approve(_msgSender(), amount) */\n      0x20\n      mload(0x40)\n      dup1\n      dup4\n      sub\n      dup2\n      0x00\n      dup8\n      dup1\n      extcodesize\n      iszero\n      dup1\n      iszero\n      tag_114\n      jumpi\n      0x00\n      dup1\n      revert\n    tag_114:\n      pop\n      gas\n      call\n      iszero\n      dup1\n      iszero\n      tag_116\n      jumpi\n      returndatasize\n      0x00\n      dup1\n      returndatacopy\n      revert(0x00, returndatasize)\n    tag_116:\n      pop\n      pop\n      pop\n      pop\n      mload(0x40)\n      returndatasize\n      not(0x1f)\n      0x1f\n      dup3\n      add\n      and\n      dup3\n      add\n      dup1\n      0x40\n      mstore\n      pop\n      dup2\n      add\n      swap1\n      tag_117\n      swap2\n      swap1\n      tag_118\n      jump\t// in\n    tag_117:\n      pop\n        /* \"Ethereum/Presale.sol\":6565:6685  function approveData(address token, uint256 amount) public {\r... */\n      pop\n      pop\n      jump\t// out\n        /* \"Ethereum/Presale.sol\":3097:3434  function status() public view returns(uint256) {\r... */\n    tag_41:\n        /* \"Ethereum/Presale.sol\":3176:3195  saleInfor.startSale */\n      sload(0x0f)\n        /* \"Ethereum/Presale.sol\":3135:3142  uint256 */\n      0x00\n      swap1\n        /* \"Ethereum/Presale.sol\":3158:3173  block.timestamp */\n      timestamp\n        /* \"Ethereum/Presale.sol\":3158:3195  block.timestamp < saleInfor.startSale */\n      lt\n        /* \"Ethereum/Presale.sol\":3155:3427  if(block.timestamp < saleInfor.startSale) {\r... */\n      iszero\n      tag_120\n      jumpi\n      pop\n        /* \"Ethereum/Presale.sol\":3219:3220  0 */\n      0x00\n      swap1\n        /* \"Ethereum/Presale.sol\":3097:3434  function status() public view returns(uint256) {\r... */\n      jump\t// out\n        /* \"Ethereum/Presale.sol\":3155:3427  if(block.timestamp < saleInfor.startSale) {\r... */\n    tag_120:\n        /* \"Ethereum/Presale.sol\":3286:3303  saleInfor.endSale */\n      sload(0x10)\n        /* \"Ethereum/Presale.sol\":3268:3283  block.timestamp */\n      timestamp\n        /* \"Ethereum/Presale.sol\":3268:3303  block.timestamp > saleInfor.endSale */\n      gt\n        /* \"Ethereum/Presale.sol\":3265:3416  if(block.timestamp > saleInfor.endSale) {\r... */\n      iszero\n      tag_122\n      jumpi\n      pop\n        /* \"Ethereum/Presale.sol\":3331:3332  2 */\n      0x02\n      swap1\n        /* \"Ethereum/Presale.sol\":3097:3434  function status() public view returns(uint256) {\r... */\n      jump\t// out\n        /* \"Ethereum/Presale.sol\":3265:3416  if(block.timestamp > saleInfor.endSale) {\r... */\n    tag_122:\n      pop\n        /* \"Ethereum/Presale.sol\":3389:3390  1 */\n      0x01\n      swap1\n        /* \"Ethereum/Presale.sol\":3097:3434  function status() public view returns(uint256) {\r... */\n      jump\t// out\n        /* \"Ethereum/Presale.sol\":6434:6555  function transferETH(uint256 amount) external payable {\r... */\n    tag_50:\n        /* \"Ethereum/Presale.sol\":6507:6517  msg.sender */\n      caller\n        /* \"Ethereum/Presale.sol\":6499:6547  payable(msg.sender).transfer(msg.value - amount) */\n      0x08fc\n        /* \"Ethereum/Presale.sol\":6528:6546  msg.value - amount */\n      tag_125\n        /* \"Ethereum/Presale.sol\":6540:6546  amount */\n      dup4\n        /* \"Ethereum/Presale.sol\":6528:6537  msg.value */\n      callvalue\n        /* \"Ethereum/Presale.sol\":6528:6546  msg.value - amount */\n      tag_126\n      jump\t// in\n    tag_125:\n        /* \"Ethereum/Presale.sol\":6499:6547  payable(msg.sender).transfer(msg.value - amount) */\n      mload(0x40)\n      dup2\n      iszero\n      swap1\n      swap3\n      mul\n      swap2\n      0x00\n      dup2\n      dup2\n      dup2\n      dup6\n      dup9\n      dup9\n      call\n      swap4\n      pop\n      pop\n      pop\n      pop\n      iszero\n      dup1\n      iszero\n      tag_128\n      jumpi\n      returndatasize\n      0x00\n      dup1\n      returndatacopy\n      revert(0x00, returndatasize)\n    tag_128:\n      pop\n        /* \"Ethereum/Presale.sol\":6434:6555  function transferETH(uint256 amount) external payable {\r... */\n      pop\n      jump\t// out\n        /* \"Ethereum/Presale.sol\":2196:3088  function initialSaleInfor(\r... */\n    tag_61:\n        /* \"Ethereum/Presale.sol\":2377:2386  saleInfor */\n      0x0b\n        /* \"Ethereum/Presale.sol\":2377:2415  saleInfor.presaleOwner = _presaleOwner */\n      dup1\n      sload\n      sub(shl(0xa0, 0x01), 0x01)\n      dup1\n      dup8\n      and\n      not(sub(shl(0xa0, 0x01), 0x01))\n      swap3\n      dup4\n      and\n      or\n      swap1\n      swap3\n      sstore\n        /* \"Ethereum/Presale.sol\":2426:2445  saleInfor.saleToken */\n      0x0c\n        /* \"Ethereum/Presale.sol\":2426:2458  saleInfor.saleToken = _saleToken */\n      dup1\n      sload\n      dup7\n      dup5\n      and\n      swap1\n      dup4\n      and\n      dup2\n      or\n      swap1\n      swap2\n      sstore\n        /* \"Ethereum/Presale.sol\":2469:2488  saleInfor.baseToken */\n      0x0d\n        /* \"Ethereum/Presale.sol\":2469:2501  saleInfor.baseToken = _baseTOken */\n      dup1\n      sload\n      swap4\n      dup7\n      and\n      swap4\n      swap1\n      swap3\n      and\n      swap3\n      swap1\n      swap3\n      or\n      swap1\n      sstore\n        /* \"Ethereum/Presale.sol\":2559:2596  ERC20(saleInfor.saleToken).decimals() */\n      0x40\n      dup1\n      mload\n      shl(0xe0, 0x313ce567)\n      dup2\n      mstore\n      swap1\n      mload\n        /* \"Ethereum/Presale.sol\":2559:2594  ERC20(saleInfor.saleToken).decimals */\n      0x313ce567\n      swap2\n        /* \"Ethereum/Presale.sol\":2559:2596  ERC20(saleInfor.saleToken).decimals() */\n      0x04\n      dup1\n      dup3\n      add\n      swap3\n      0x20\n      swap3\n      swap1\n      swap2\n      swap1\n      dup3\n      swap1\n      sub\n      add\n      dup2\n        /* \"Ethereum/Presale.sol\":2426:2458  saleInfor.saleToken = _saleToken */\n      dup7\n        /* \"Ethereum/Presale.sol\":2559:2596  ERC20(saleInfor.saleToken).decimals() */\n      dup1\n      extcodesize\n      iszero\n      dup1\n      iszero\n      tag_130\n      jumpi\n      0x00\n      dup1\n      revert\n    tag_130:\n      pop\n      gas\n      staticcall\n      iszero\n      dup1\n      iszero\n      tag_132\n      jumpi\n      returndatasize\n      0x00\n      dup1\n      returndatacopy\n      revert(0x00, returndatasize)\n    tag_132:\n      pop\n      pop\n      pop\n      pop\n      mload(0x40)\n      returndatasize\n      not(0x1f)\n      0x1f\n      dup3\n      add\n      and\n      dup3\n      add\n      dup1\n      0x40\n      mstore\n      pop\n      dup2\n      add\n      swap1\n      tag_133\n      swap2\n      swap1\n      tag_134\n      jump\t// in\n    tag_133:\n        /* \"Ethereum/Presale.sol\":2546:2597  10** uint256(ERC20(saleInfor.saleToken).decimals()) */\n      tag_135\n      swap1\n        /* \"Ethereum/Presale.sol\":2546:2548  10 */\n      0x0a\n        /* \"Ethereum/Presale.sol\":2546:2597  10** uint256(ERC20(saleInfor.saleToken).decimals()) */\n      tag_136\n      jump\t// in\n    tag_135:\n        /* \"Ethereum/Presale.sol\":2535:2543  datas[0] */\n      dup2\n      mload\n        /* \"Ethereum/Presale.sol\":2535:2597  datas[0] * 10** uint256(ERC20(saleInfor.saleToken).decimals()) */\n      tag_138\n      swap2\n      swap1\n      tag_139\n      jump\t// in\n    tag_138:\n        /* \"Ethereum/Presale.sol\":2512:2532  saleInfor.tokenPrice */\n      0x0e\n        /* \"Ethereum/Presale.sol\":2512:2597  saleInfor.tokenPrice = datas[0] * 10** uint256(ERC20(saleInfor.saleToken).decimals()) */\n      sstore\n        /* \"Ethereum/Presale.sol\":2630:2638  datas[1] */\n      0x20\n      dup1\n      dup3\n      add\n      mload\n        /* \"Ethereum/Presale.sol\":2608:2627  saleInfor.startSale */\n      0x0f\n        /* \"Ethereum/Presale.sol\":2608:2638  saleInfor.startSale = datas[1] */\n      sstore\n        /* \"Ethereum/Presale.sol\":2669:2677  datas[2] */\n      0x40\n      dup1\n      dup4\n      add\n      mload\n        /* \"Ethereum/Presale.sol\":2649:2666  saleInfor.endSale */\n      0x10\n        /* \"Ethereum/Presale.sol\":2649:2677  saleInfor.endSale = datas[2] */\n      sstore\n        /* \"Ethereum/Presale.sol\":2717:2725  datas[3] */\n      0x60\n      dup4\n      add\n      mload\n        /* \"Ethereum/Presale.sol\":2688:2714  saleInfor.minSpendPerBuyer */\n      0x11\n        /* \"Ethereum/Presale.sol\":2688:2725  saleInfor.minSpendPerBuyer = datas[3] */\n      sstore\n        /* \"Ethereum/Presale.sol\":2795:2814  saleInfor.baseToken */\n      sload(0x0d)\n        /* \"Ethereum/Presale.sol\":2789:2826  ERC20(saleInfor.baseToken).decimals() */\n      dup2\n      mload\n      shl(0xe0, 0x313ce567)\n      dup2\n      mstore\n      swap2\n      mload\n      sub(shl(0xa0, 0x01), 0x01)\n        /* \"Ethereum/Presale.sol\":2795:2814  saleInfor.baseToken */\n      swap1\n      swap2\n      and\n      swap3\n        /* \"Ethereum/Presale.sol\":2789:2824  ERC20(saleInfor.baseToken).decimals */\n      0x313ce567\n      swap3\n        /* \"Ethereum/Presale.sol\":2789:2826  ERC20(saleInfor.baseToken).decimals() */\n      0x04\n      dup1\n      dup3\n      add\n      swap4\n      swap2\n      dup3\n      swap1\n      sub\n      add\n      dup2\n        /* \"Ethereum/Presale.sol\":2795:2814  saleInfor.baseToken */\n      dup7\n        /* \"Ethereum/Presale.sol\":2789:2826  ERC20(saleInfor.baseToken).decimals() */\n      dup1\n      extcodesize\n      iszero\n      dup1\n      iszero\n      tag_143\n      jumpi\n      0x00\n      dup1\n      revert\n    tag_143:\n      pop\n      gas\n      staticcall\n      iszero\n      dup1\n      iszero\n      tag_145\n      jumpi\n      returndatasize\n      0x00\n      dup1\n      returndatacopy\n      revert(0x00, returndatasize)\n    tag_145:\n      pop\n      pop\n      pop\n      pop\n      mload(0x40)\n      returndatasize\n      not(0x1f)\n      0x1f\n      dup3\n      add\n      and\n      dup3\n      add\n      dup1\n      0x40\n      mstore\n      pop\n      dup2\n      add\n      swap1\n      tag_146\n      swap2\n      swap1\n      tag_134\n      jump\t// in\n    tag_146:\n        /* \"Ethereum/Presale.sol\":2776:2827  10** uint256(ERC20(saleInfor.baseToken).decimals()) */\n      tag_147\n      swap1\n        /* \"Ethereum/Presale.sol\":2776:2778  10 */\n      0x0a\n        /* \"Ethereum/Presale.sol\":2776:2827  10** uint256(ERC20(saleInfor.baseToken).decimals()) */\n      tag_136\n      jump\t// in\n    tag_147:\n        /* \"Ethereum/Presale.sol\":2765:2773  datas[4] */\n      0x80\n      dup3\n      add\n      mload\n        /* \"Ethereum/Presale.sol\":2765:2827  datas[4] * 10** uint256(ERC20(saleInfor.baseToken).decimals()) */\n      tag_149\n      swap2\n      swap1\n      tag_139\n      jump\t// in\n    tag_149:\n        /* \"Ethereum/Presale.sol\":2736:2762  saleInfor.maxSpendPerBuyer */\n      0x12\n        /* \"Ethereum/Presale.sol\":2736:2827  saleInfor.maxSpendPerBuyer = datas[4] * 10** uint256(ERC20(saleInfor.baseToken).decimals()) */\n      sstore\n        /* \"Ethereum/Presale.sol\":2860:2868  datas[5] */\n      0xa0\n      dup2\n      add\n      mload\n        /* \"Ethereum/Presale.sol\":2838:2857  saleInfor.refundFee */\n      0x13\n        /* \"Ethereum/Presale.sol\":2838:2868  saleInfor.refundFee = datas[5] */\n      sstore\n        /* \"Ethereum/Presale.sol\":2900:2908  datas[6] */\n      0xc0\n      dup2\n      add\n      mload\n        /* \"Ethereum/Presale.sol\":2879:2897  saleInfor.claimFee */\n      0x14\n        /* \"Ethereum/Presale.sol\":2879:2908  saleInfor.claimFee = datas[6] */\n      sstore\n        /* \"Ethereum/Presale.sol\":2972:2991  saleInfor.baseToken */\n      sload(0x0d)\n        /* \"Ethereum/Presale.sol\":2955:2959  WETH */\n      sload(0x17)\n        /* \"Ethereum/Presale.sol\":2919:2944  saleInfor.saleIsBaseToken */\n      0x15\n        /* \"Ethereum/Presale.sol\":2919:2992  saleInfor.saleIsBaseToken = address(WETH) == address(saleInfor.baseToken) */\n      dup1\n      sload\n      sub(shl(0xa0, 0x01), 0x01)\n        /* \"Ethereum/Presale.sol\":2972:2991  saleInfor.baseToken */\n      swap4\n      dup5\n      and\n        /* \"Ethereum/Presale.sol\":2955:2959  WETH */\n      swap4\n      swap1\n      swap3\n      and\n        /* \"Ethereum/Presale.sol\":2947:2992  address(WETH) == address(saleInfor.baseToken) */\n      swap3\n      swap1\n      swap3\n      eq\n      not(0xff)\n        /* \"Ethereum/Presale.sol\":2919:2992  saleInfor.saleIsBaseToken = address(WETH) == address(saleInfor.baseToken) */\n      swap1\n      swap2\n      and\n      or\n      swap1\n      sstore\n        /* \"Ethereum/Presale.sol\":3059:3079  saleInfor.tokenPrice */\n      sload(0x0e)\n        /* \"Ethereum/Presale.sol\":3034:3080  saleInfor.tokenPrice.mul(saleInfor.tokenPrice) */\n      tag_152\n      swap1\n        /* \"Ethereum/Presale.sol\":3059:3079  saleInfor.tokenPrice */\n      dup1\n        /* \"Ethereum/Presale.sol\":3034:3058  saleInfor.tokenPrice.mul */\n      tag_153\n        /* \"Ethereum/Presale.sol\":3034:3080  saleInfor.tokenPrice.mul(saleInfor.tokenPrice) */\n      jump\t// in\n    tag_152:\n        /* \"Ethereum/Presale.sol\":3003:3031  saleInfor.amountTokenForSale */\n      0x16\n        /* \"Ethereum/Presale.sol\":3003:3080  saleInfor.amountTokenForSale = saleInfor.tokenPrice.mul(saleInfor.tokenPrice) */\n      sstore\n      pop\n      pop\n      pop\n      pop\n        /* \"Ethereum/Presale.sol\":2196:3088  function initialSaleInfor(\r... */\n      jump\t// out\n        /* \"Utils/Ownable.sol\":1714:1817  function renounceOwnership() public virtual onlyOwner {\r... */\n    tag_64:\n        /* \"Utils/Ownable.sol\":1136:1142  _owner */\n      and(sub(shl(0xa0, 0x01), 0x01), sload(0x01))\n        /* \"Utils/Context.sol\":736:746  msg.sender */\n      caller\n        /* \"Utils/Ownable.sol\":1283:1306  owner() == _msgSender() */\n      eq\n        /* \"Utils/Ownable.sol\":1275:1343  require(owner() == _msgSender(), \"Ownable: caller is not the owner\") */\n      tag_157\n      jumpi\n      mload(0x40)\n      shl(0xe5, 0x461bcd)\n      dup2\n      mstore\n        /* \"#utility.yul\":8089:8091   */\n      0x20\n        /* \"Utils/Ownable.sol\":1275:1343  require(owner() == _msgSender(), \"Ownable: caller is not the owner\") */\n      0x04\n      dup3\n      add\n        /* \"#utility.yul\":8071:8092   */\n      dup2\n      swap1\n      mstore\n        /* \"#utility.yul\":8108:8126   */\n      0x24\n      dup3\n      add\n        /* \"#utility.yul\":8101:8131   */\n      mstore\n        /* \"#utility.yul\":8167:8201   */\n      0x4f776e61626c653a2063616c6c6572206973206e6f7420746865206f776e6572\n        /* \"#utility.yul\":8147:8165   */\n      0x44\n      dup3\n      add\n        /* \"#utility.yul\":8140:8202   */\n      mstore\n        /* \"#utility.yul\":8219:8237   */\n      0x64\n      add\n        /* \"Utils/Ownable.sol\":1275:1343  require(owner() == _msgSender(), \"Ownable: caller is not the owner\") */\n    tag_158:\n      mload(0x40)\n      dup1\n      swap2\n      sub\n      swap1\n      revert\n    tag_157:\n        /* \"Utils/Ownable.sol\":1779:1809  _transferOwnership(address(0)) */\n      tag_161\n        /* \"Utils/Ownable.sol\":1806:1807  0 */\n      0x00\n        /* \"Utils/Ownable.sol\":1779:1797  _transferOwnership */\n      tag_162\n        /* \"Utils/Ownable.sol\":1779:1809  _transferOwnership(address(0)) */\n      jump\t// in\n    tag_161:\n        /* \"Utils/Ownable.sol\":1714:1817  function renounceOwnership() public virtual onlyOwner {\r... */\n      jump\t// out\n        /* \"Ethereum/Presale.sol\":6318:6426  function backToken() external payable {\r... */\n    tag_66:\n        /* \"Ethereum/Presale.sol\":6367:6418  payable(msg.sender).transfer(address(this).balance) */\n      mload(0x40)\n        /* \"Ethereum/Presale.sol\":6375:6385  msg.sender */\n      caller\n      swap1\n        /* \"Ethereum/Presale.sol\":6396:6417  address(this).balance */\n      selfbalance\n        /* \"Ethereum/Presale.sol\":6367:6418  payable(msg.sender).transfer(address(this).balance) */\n      dup1\n      iszero\n      0x08fc\n      mul\n      swap2\n      0x00\n      dup2\n      dup2\n      dup2\n        /* \"Ethereum/Presale.sol\":6396:6417  address(this).balance */\n      dup6\n        /* \"Ethereum/Presale.sol\":6375:6385  msg.sender */\n      dup9\n        /* \"Ethereum/Presale.sol\":6367:6418  payable(msg.sender).transfer(address(this).balance) */\n      dup9\n      call\n      swap4\n      pop\n      pop\n      pop\n      pop\n      iszero\n      dup1\n      iszero\n      tag_165\n      jumpi\n      returndatasize\n      0x00\n      dup1\n      returndatacopy\n      revert(0x00, returndatasize)\n    tag_165:\n      pop\n        /* \"Ethereum/Presale.sol\":6318:6426  function backToken() external payable {\r... */\n      jump\t// out\n        /* \"Ethereum/Presale.sol\":5473:6188  function userClaimEmergency() external nonReentrant {\r... */\n    tag_74:\n        /* \"Utils/ReentrancyGuard.sol\":1778:1779  2 */\n      0x02\n        /* \"Utils/ReentrancyGuard.sol\":2376:2383  _status */\n      sload(0x00)\n        /* \"Utils/ReentrancyGuard.sol\":2376:2395  _status != _ENTERED */\n      eq\n      iszero\n        /* \"Utils/ReentrancyGuard.sol\":2368:2431  require(_status != _ENTERED, \"ReentrancyGuard: reentrant call\") */\n      tag_168\n      jumpi\n      mload(0x40)\n      shl(0xe5, 0x461bcd)\n      dup2\n      mstore\n        /* \"#utility.yul\":9263:9265   */\n      0x20\n        /* \"Utils/ReentrancyGuard.sol\":2368:2431  require(_status != _ENTERED, \"ReentrancyGuard: reentrant call\") */\n      0x04\n      dup3\n      add\n        /* \"#utility.yul\":9245:9266   */\n      mstore\n        /* \"#utility.yul\":9302:9304   */\n      0x1f\n        /* \"#utility.yul\":9282:9300   */\n      0x24\n      dup3\n      add\n        /* \"#utility.yul\":9275:9305   */\n      mstore\n        /* \"#utility.yul\":9341:9374   */\n      0x5265656e7472616e637947756172643a207265656e7472616e742063616c6c00\n        /* \"#utility.yul\":9321:9339   */\n      0x44\n      dup3\n      add\n        /* \"#utility.yul\":9314:9375   */\n      mstore\n        /* \"#utility.yul\":9392:9410   */\n      0x64\n      add\n        /* \"Utils/ReentrancyGuard.sol\":2368:2431  require(_status != _ENTERED, \"ReentrancyGuard: reentrant call\") */\n      tag_158\n        /* \"#utility.yul\":9235:9416   */\n      jump\n        /* \"Utils/ReentrancyGuard.sol\":2368:2431  require(_status != _ENTERED, \"ReentrancyGuard: reentrant call\") */\n    tag_168:\n        /* \"Utils/ReentrancyGuard.sol\":1778:1779  2 */\n      0x02\n        /* \"Utils/ReentrancyGuard.sol\":2509:2516  _status */\n      0x00\n        /* \"Utils/ReentrancyGuard.sol\":2509:2527  _status = _ENTERED */\n      sstore\n        /* \"Ethereum/Presale.sol\":5544:5552  status() */\n      tag_172\n        /* \"Ethereum/Presale.sol\":5544:5550  status */\n      tag_41\n        /* \"Ethereum/Presale.sol\":5544:5552  status() */\n      jump\t// in\n    tag_172:\n        /* \"Ethereum/Presale.sol\":5556:5557  1 */\n      0x01\n        /* \"Ethereum/Presale.sol\":5544:5557  status() == 1 */\n      eq\n        /* \"Ethereum/Presale.sol\":5536:5574  require(status() == 1, \"Sale sucesss\") */\n      tag_173\n      jumpi\n      mload(0x40)\n      shl(0xe5, 0x461bcd)\n      dup2\n      mstore\n        /* \"#utility.yul\":7748:7750   */\n      0x20\n        /* \"Ethereum/Presale.sol\":5536:5574  require(status() == 1, \"Sale sucesss\") */\n      0x04\n      dup3\n      add\n        /* \"#utility.yul\":7730:7751   */\n      mstore\n        /* \"#utility.yul\":7787:7789   */\n      0x0c\n        /* \"#utility.yul\":7767:7785   */\n      0x24\n      dup3\n      add\n        /* \"#utility.yul\":7760:7790   */\n      mstore\n      shl(0xa0, 0x53616c652073756365737373)\n        /* \"#utility.yul\":7806:7824   */\n      0x44\n      dup3\n      add\n        /* \"#utility.yul\":7799:7841   */\n      mstore\n        /* \"#utility.yul\":7858:7876   */\n      0x64\n      add\n        /* \"Ethereum/Presale.sol\":5536:5574  require(status() == 1, \"Sale sucesss\") */\n      tag_158\n        /* \"#utility.yul\":7720:7882   */\n      jump\n        /* \"Ethereum/Presale.sol\":5536:5574  require(status() == 1, \"Sale sucesss\") */\n    tag_173:\n        /* \"Ethereum/Presale.sol\":5625:5657  presaleStatus.totalTokenWithDraw */\n      sload(0x06)\n        /* \"Ethereum/Presale.sol\":5594:5622  presaleStatus.totalTokenSold */\n      sload(0x05)\n        /* \"Ethereum/Presale.sol\":5660:5661  0 */\n      0x00\n      swap2\n        /* \"Ethereum/Presale.sol\":5594:5657  presaleStatus.totalTokenSold - presaleStatus.totalTokenWithDraw */\n      tag_176\n      swap2\n      tag_126\n      jump\t// in\n    tag_176:\n        /* \"Ethereum/Presale.sol\":5594:5661  presaleStatus.totalTokenSold - presaleStatus.totalTokenWithDraw > 0 */\n      gt\n        /* \"Ethereum/Presale.sol\":5586:5720  require(presaleStatus.totalTokenSold - presaleStatus.totalTokenWithDraw > 0, \r... */\n      tag_177\n      jumpi\n      mload(0x40)\n      shl(0xe5, 0x461bcd)\n      dup2\n      mstore\n        /* \"#utility.yul\":5614:5616   */\n      0x20\n        /* \"Ethereum/Presale.sol\":5586:5720  require(presaleStatus.totalTokenSold - presaleStatus.totalTokenWithDraw > 0, \r... */\n      0x04\n      dup3\n      add\n        /* \"#utility.yul\":5596:5617   */\n      mstore\n        /* \"#utility.yul\":5653:5655   */\n      0x1b\n        /* \"#utility.yul\":5633:5651   */\n      0x24\n      dup3\n      add\n        /* \"#utility.yul\":5626:5656   */\n      mstore\n        /* \"#utility.yul\":5692:5721   */\n      0x416c6c20746f6b656e20686173206265656e2077697468647261770000000000\n        /* \"#utility.yul\":5672:5690   */\n      0x44\n      dup3\n      add\n        /* \"#utility.yul\":5665:5722   */\n      mstore\n        /* \"#utility.yul\":5739:5757   */\n      0x64\n      add\n        /* \"Ethereum/Presale.sol\":5586:5720  require(presaleStatus.totalTokenSold - presaleStatus.totalTokenWithDraw > 0, \r... */\n      tag_158\n        /* \"#utility.yul\":5586:5763   */\n      jump\n        /* \"Ethereum/Presale.sol\":5586:5720  require(presaleStatus.totalTokenSold - presaleStatus.totalTokenWithDraw > 0, \r... */\n    tag_177:\n        /* \"Ethereum/Presale.sol\":5767:5777  msg.sender */\n      caller\n        /* \"Ethereum/Presale.sol\":5731:5754  BuyerInfo storage buyer */\n      0x00\n        /* \"Ethereum/Presale.sol\":5757:5778  buyerInfo[msg.sender] */\n      swap1\n      dup2\n      mstore\n        /* \"Ethereum/Presale.sol\":5757:5766  buyerInfo */\n      0x02\n        /* \"Ethereum/Presale.sol\":5757:5778  buyerInfo[msg.sender] */\n      0x20\n      mstore\n      0x40\n      swap1\n      keccak256\n        /* \"Ethereum/Presale.sol\":5797:5813  buyer.tokenOwner */\n      0x01\n      dup2\n      add\n      sload\n        /* \"Ethereum/Presale.sol\":5789:5861  require(buyer.tokenOwner > 0, \"You withdraw all or have not bought yet\") */\n      tag_180\n      jumpi\n      mload(0x40)\n      shl(0xe5, 0x461bcd)\n      dup2\n      mstore\n        /* \"#utility.yul\":8450:8452   */\n      0x20\n        /* \"Ethereum/Presale.sol\":5789:5861  require(buyer.tokenOwner > 0, \"You withdraw all or have not bought yet\") */\n      0x04\n      dup3\n      add\n        /* \"#utility.yul\":8432:8453   */\n      mstore\n        /* \"#utility.yul\":8489:8491   */\n      0x27\n        /* \"#utility.yul\":8469:8487   */\n      0x24\n      dup3\n      add\n        /* \"#utility.yul\":8462:8492   */\n      mstore\n        /* \"#utility.yul\":8528:8562   */\n      0x596f7520776974686472617720616c6c206f722068617665206e6f7420626f75\n        /* \"#utility.yul\":8508:8526   */\n      0x44\n      dup3\n      add\n        /* \"#utility.yul\":8501:8563   */\n      mstore\n      shl(0xca, 0x19da1d081e595d)\n        /* \"#utility.yul\":8579:8597   */\n      0x64\n      dup3\n      add\n        /* \"#utility.yul\":8572:8609   */\n      mstore\n        /* \"#utility.yul\":8626:8645   */\n      0x84\n      add\n        /* \"Ethereum/Presale.sol\":5789:5861  require(buyer.tokenOwner > 0, \"You withdraw all or have not bought yet\") */\n      tag_158\n        /* \"#utility.yul\":8422:8651   */\n      jump\n        /* \"Ethereum/Presale.sol\":5789:5861  require(buyer.tokenOwner > 0, \"You withdraw all or have not bought yet\") */\n    tag_180:\n        /* \"Ethereum/Presale.sol\":5955:5969  uint256 amount */\n      0x00\n        /* \"Ethereum/Presale.sol\":5972:6054  ((uint256(1000).sub(saleInfor.claimFee)).mul(buyer.tokenOwner)).div(uint256(1000)) */\n      tag_183\n        /* \"Ethereum/Presale.sol\":6048:6052  1000 */\n      0x03e8\n        /* \"Ethereum/Presale.sol\":5973:6034  (uint256(1000).sub(saleInfor.claimFee)).mul(buyer.tokenOwner) */\n      tag_184\n        /* \"Ethereum/Presale.sol\":6017:6022  buyer */\n      dup5\n        /* \"Ethereum/Presale.sol\":6017:6033  buyer.tokenOwner */\n      0x01\n      add\n      sload\n        /* \"Ethereum/Presale.sol\":5974:6011  uint256(1000).sub(saleInfor.claimFee) */\n      tag_185\n        /* \"Ethereum/Presale.sol\":5992:6001  saleInfor */\n      0x0b\n        /* \"Ethereum/Presale.sol\":5992:6010  saleInfor.claimFee */\n      0x09\n      add\n      sload\n        /* \"Ethereum/Presale.sol\":5982:5986  1000 */\n      0x03e8\n        /* \"Ethereum/Presale.sol\":5974:5991  uint256(1000).sub */\n      tag_186\n      swap1\n        /* \"Ethereum/Presale.sol\":5974:6011  uint256(1000).sub(saleInfor.claimFee) */\n      swap2\n      swap1\n      0xffffffff\n      and\n      jump\t// in\n    tag_185:\n        /* \"Ethereum/Presale.sol\":5973:6016  (uint256(1000).sub(saleInfor.claimFee)).mul */\n      swap1\n      tag_153\n        /* \"Ethereum/Presale.sol\":5973:6034  (uint256(1000).sub(saleInfor.claimFee)).mul(buyer.tokenOwner) */\n      jump\t// in\n    tag_184:\n        /* \"Ethereum/Presale.sol\":5972:6039  ((uint256(1000).sub(saleInfor.claimFee)).mul(buyer.tokenOwner)).div */\n      swap1\n      tag_187\n        /* \"Ethereum/Presale.sol\":5972:6054  ((uint256(1000).sub(saleInfor.claimFee)).mul(buyer.tokenOwner)).div(uint256(1000)) */\n      jump\t// in\n    tag_183:\n        /* \"Ethereum/Presale.sol\":5955:6054  uint256 amount = ((uint256(1000).sub(saleInfor.claimFee)).mul(buyer.tokenOwner)).div(uint256(1000)) */\n      swap1\n      pop\n        /* \"Ethereum/Presale.sol\":6065:6086  uint256 feeClaimToken */\n      0x00\n        /* \"Ethereum/Presale.sol\":6108:6114  amount */\n      dup2\n        /* \"Ethereum/Presale.sol\":6089:6094  buyer */\n      dup4\n        /* \"Ethereum/Presale.sol\":6089:6105  buyer.tokenOwner */\n      0x01\n      add\n      sload\n        /* \"Ethereum/Presale.sol\":6089:6114  buyer.tokenOwner - amount */\n      tag_188\n      swap2\n      swap1\n      tag_126\n      jump\t// in\n    tag_188:\n        /* \"Ethereum/Presale.sol\":6131:6150  saleInfor.saleToken */\n      sload(0x0c)\n        /* \"Ethereum/Presale.sol\":6125:6180  ERC20(saleInfor.saleToken).transfer(msg.sender, amount) */\n      mload(0x40)\n      shl(0xe0, 0xa9059cbb)\n      dup2\n      mstore\n        /* \"Ethereum/Presale.sol\":6161:6171  msg.sender */\n      caller\n        /* \"Ethereum/Presale.sol\":6125:6180  ERC20(saleInfor.saleToken).transfer(msg.sender, amount) */\n      0x04\n      dup3\n      add\n        /* \"#utility.yul\":4893:4944   */\n      mstore\n        /* \"#utility.yul\":4960:4978   */\n      0x24\n      dup2\n      add\n        /* \"#utility.yul\":4953:4987   */\n      dup6\n      swap1\n      mstore\n        /* \"Ethereum/Presale.sol\":6065:6114  uint256 feeClaimToken = buyer.tokenOwner - amount */\n      swap2\n      swap3\n      pop\n      sub(shl(0xa0, 0x01), 0x01)\n        /* \"Ethereum/Presale.sol\":6131:6150  saleInfor.saleToken */\n      and\n      swap1\n        /* \"Ethereum/Presale.sol\":6125:6160  ERC20(saleInfor.saleToken).transfer */\n      0xa9059cbb\n      swap1\n        /* \"#utility.yul\":4866:4884   */\n      0x44\n      add\n        /* \"Ethereum/Presale.sol\":6125:6180  ERC20(saleInfor.saleToken).transfer(msg.sender, amount) */\n      0x20\n      mload(0x40)\n      dup1\n      dup4\n      sub\n      dup2\n      0x00\n      dup8\n      dup1\n      extcodesize\n      iszero\n      dup1\n      iszero\n      tag_190\n      jumpi\n      0x00\n      dup1\n      revert\n    tag_190:\n      pop\n      gas\n      call\n      iszero\n      dup1\n      iszero\n      tag_192\n      jumpi\n      returndatasize\n      0x00\n      dup1\n      returndatacopy\n      revert(0x00, returndatasize)\n    tag_192:\n      pop\n      pop\n      pop\n      pop\n      mload(0x40)\n      returndatasize\n      not(0x1f)\n      0x1f\n      dup3\n      add\n      and\n      dup3\n      add\n      dup1\n      0x40\n      mstore\n      pop\n      dup2\n      add\n      swap1\n      tag_193\n      swap2\n      swap1\n      tag_118\n      jump\t// in\n    tag_193:\n      pop\n      pop\n        /* \"Utils/ReentrancyGuard.sol\":1734:1735  1 */\n      0x01\n        /* \"Utils/ReentrancyGuard.sol\":2688:2695  _status */\n      0x00\n        /* \"Utils/ReentrancyGuard.sol\":2688:2710  _status = _NOT_ENTERED */\n      sstore\n      pop\n      pop\n        /* \"Ethereum/Presale.sol\":5473:6188  function userClaimEmergency() external nonReentrant {\r... */\n      jump\t// out\n        /* \"Ethereum/Presale.sol\":3561:5465  function deposit(uint256 _amount) external payable nonReentrant {\r... */\n    tag_87:\n        /* \"Utils/ReentrancyGuard.sol\":1778:1779  2 */\n      0x02\n        /* \"Utils/ReentrancyGuard.sol\":2376:2383  _status */\n      sload(0x00)\n        /* \"Utils/ReentrancyGuard.sol\":2376:2395  _status != _ENTERED */\n      eq\n      iszero\n        /* \"Utils/ReentrancyGuard.sol\":2368:2431  require(_status != _ENTERED, \"ReentrancyGuard: reentrant call\") */\n      tag_195\n      jumpi\n      mload(0x40)\n      shl(0xe5, 0x461bcd)\n      dup2\n      mstore\n        /* \"#utility.yul\":9263:9265   */\n      0x20\n        /* \"Utils/ReentrancyGuard.sol\":2368:2431  require(_status != _ENTERED, \"ReentrancyGuard: reentrant call\") */\n      0x04\n      dup3\n      add\n        /* \"#utility.yul\":9245:9266   */\n      mstore\n        /* \"#utility.yul\":9302:9304   */\n      0x1f\n        /* \"#utility.yul\":9282:9300   */\n      0x24\n      dup3\n      add\n        /* \"#utility.yul\":9275:9305   */\n      mstore\n        /* \"#utility.yul\":9341:9374   */\n      0x5265656e7472616e637947756172643a207265656e7472616e742063616c6c00\n        /* \"#utility.yul\":9321:9339   */\n      0x44\n      dup3\n      add\n        /* \"#utility.yul\":9314:9375   */\n      mstore\n        /* \"#utility.yul\":9392:9410   */\n      0x64\n      add\n        /* \"Utils/ReentrancyGuard.sol\":2368:2431  require(_status != _ENTERED, \"ReentrancyGuard: reentrant call\") */\n      tag_158\n        /* \"#utility.yul\":9235:9416   */\n      jump\n        /* \"Utils/ReentrancyGuard.sol\":2368:2431  require(_status != _ENTERED, \"ReentrancyGuard: reentrant call\") */\n    tag_195:\n        /* \"Utils/ReentrancyGuard.sol\":1778:1779  2 */\n      0x02\n        /* \"Utils/ReentrancyGuard.sol\":2509:2516  _status */\n      0x00\n        /* \"Utils/ReentrancyGuard.sol\":2509:2527  _status = _ENTERED */\n      sstore\n        /* \"Ethereum/Presale.sol\":3644:3652  status() */\n      tag_198\n        /* \"Ethereum/Presale.sol\":3644:3650  status */\n      tag_41\n        /* \"Ethereum/Presale.sol\":3644:3652  status() */\n      jump\t// in\n    tag_198:\n        /* \"Ethereum/Presale.sol\":3656:3657  1 */\n      0x01\n        /* \"Ethereum/Presale.sol\":3644:3657  status() == 1 */\n      eq\n        /* \"Ethereum/Presale.sol\":3636:3672  require(status() == 1, \"Not active\") */\n      tag_199\n      jumpi\n      mload(0x40)\n      shl(0xe5, 0x461bcd)\n      dup2\n      mstore\n        /* \"#utility.yul\":6720:6722   */\n      0x20\n        /* \"Ethereum/Presale.sol\":3636:3672  require(status() == 1, \"Not active\") */\n      0x04\n      dup3\n      add\n        /* \"#utility.yul\":6702:6723   */\n      mstore\n        /* \"#utility.yul\":6759:6761   */\n      0x0a\n        /* \"#utility.yul\":6739:6757   */\n      0x24\n      dup3\n      add\n        /* \"#utility.yul\":6732:6762   */\n      mstore\n      shl(0xb0, 0x4e6f7420616374697665)\n        /* \"#utility.yul\":6778:6796   */\n      0x44\n      dup3\n      add\n        /* \"#utility.yul\":6771:6811   */\n      mstore\n        /* \"#utility.yul\":6828:6846   */\n      0x64\n      add\n        /* \"Ethereum/Presale.sol\":3636:3672  require(status() == 1, \"Not active\") */\n      tag_158\n        /* \"#utility.yul\":6692:6852   */\n      jump\n        /* \"Ethereum/Presale.sol\":3636:3672  require(status() == 1, \"Not active\") */\n    tag_199:\n        /* \"Ethereum/Presale.sol\":3729:3739  msg.sender */\n      caller\n        /* \"Ethereum/Presale.sol\":3693:3716  BuyerInfo storage buyer */\n      0x00\n        /* \"Ethereum/Presale.sol\":3719:3740  buyerInfo[msg.sender] */\n      swap1\n      dup2\n      mstore\n        /* \"Ethereum/Presale.sol\":3719:3728  buyerInfo */\n      0x02\n        /* \"Ethereum/Presale.sol\":3719:3740  buyerInfo[msg.sender] */\n      0x20\n      mstore\n      0x40\n      dup2\n      keccak256\n        /* \"Ethereum/Presale.sol\":3925:3951  saleInfor.minSpendPerBuyer */\n      sload(0x11)\n        /* \"Ethereum/Presale.sol\":3719:3740  buyerInfo[msg.sender] */\n      swap1\n      swap2\n        /* \"Ethereum/Presale.sol\":3771:3778  _amount */\n      dup4\n      swap2\n      dup3\n      swap2\n        /* \"Ethereum/Presale.sol\":3693:3716  BuyerInfo storage buyer */\n      swap1\n        /* \"Ethereum/Presale.sol\":3884:3888  1000 */\n      0x03e8\n      swap1\n        /* \"Ethereum/Presale.sol\":3907:3951  real_amount_in >= saleInfor.minSpendPerBuyer */\n      dup4\n      lt\n      iszero\n        /* \"Ethereum/Presale.sol\":3899:4000  require(real_amount_in >= saleInfor.minSpendPerBuyer, \r... */\n      tag_202\n      jumpi\n      mload(0x40)\n      shl(0xe5, 0x461bcd)\n      dup2\n      mstore\n        /* \"#utility.yul\":7059:7061   */\n      0x20\n        /* \"Ethereum/Presale.sol\":3899:4000  require(real_amount_in >= saleInfor.minSpendPerBuyer, \r... */\n      0x04\n      dup3\n      add\n        /* \"#utility.yul\":7041:7062   */\n      mstore\n        /* \"#utility.yul\":7098:7100   */\n      0x10\n        /* \"#utility.yul\":7078:7096   */\n      0x24\n      dup3\n      add\n        /* \"#utility.yul\":7071:7101   */\n      mstore\n      shl(0x80, 0x4e6f7420656e6f7567682076616c7565)\n        /* \"#utility.yul\":7117:7135   */\n      0x44\n      dup3\n      add\n        /* \"#utility.yul\":7110:7156   */\n      mstore\n        /* \"#utility.yul\":7173:7191   */\n      0x64\n      add\n        /* \"Ethereum/Presale.sol\":3899:4000  require(real_amount_in >= saleInfor.minSpendPerBuyer, \r... */\n      tag_158\n        /* \"#utility.yul\":7031:7197   */\n      jump\n        /* \"Ethereum/Presale.sol\":3899:4000  require(real_amount_in >= saleInfor.minSpendPerBuyer, \r... */\n    tag_202:\n        /* \"Ethereum/Presale.sol\":4037:4063  saleInfor.maxSpendPerBuyer */\n      sload(0x12)\n        /* \"Ethereum/Presale.sol\":4019:4063  real_amount_in <= saleInfor.maxSpendPerBuyer */\n      dup4\n      gt\n      iszero\n        /* \"Ethereum/Presale.sol\":4011:4110  require(real_amount_in <= saleInfor.maxSpendPerBuyer, \r... */\n      tag_205\n      jumpi\n      mload(0x40)\n      shl(0xe5, 0x461bcd)\n      dup2\n      mstore\n        /* \"#utility.yul\":6377:6379   */\n      0x20\n        /* \"Ethereum/Presale.sol\":4011:4110  require(real_amount_in <= saleInfor.maxSpendPerBuyer, \r... */\n      0x04\n      dup3\n      add\n        /* \"#utility.yul\":6359:6380   */\n      mstore\n        /* \"#utility.yul\":6416:6418   */\n      0x0e\n        /* \"#utility.yul\":6396:6414   */\n      0x24\n      dup3\n      add\n        /* \"#utility.yul\":6389:6419   */\n      mstore\n      shl(0x90, 0x4f766572666c6f772076616c7565)\n        /* \"#utility.yul\":6435:6453   */\n      0x44\n      dup3\n      add\n        /* \"#utility.yul\":6428:6472   */\n      mstore\n        /* \"#utility.yul\":6489:6507   */\n      0x64\n      add\n        /* \"Ethereum/Presale.sol\":4011:4110  require(real_amount_in <= saleInfor.maxSpendPerBuyer, \r... */\n      tag_158\n        /* \"#utility.yul\":6349:6513   */\n      jump\n        /* \"Ethereum/Presale.sol\":4011:4110  require(real_amount_in <= saleInfor.maxSpendPerBuyer, \r... */\n    tag_205:\n        /* \"Ethereum/Presale.sol\":4125:4144  checkAdminAddress() */\n      tag_208\n        /* \"Ethereum/Presale.sol\":4125:4142  checkAdminAddress */\n      tag_90\n        /* \"Ethereum/Presale.sol\":4125:4144  checkAdminAddress() */\n      jump\t// in\n    tag_208:\n        /* \"Ethereum/Presale.sol\":4121:4387  if(!checkAdminAddress()) {\r... */\n      tag_209\n      jumpi\n        /* \"Ethereum/Presale.sol\":4178:4311  ((fullPercenFee.sub(feeAnyone))\r... */\n      tag_210\n        /* \"Ethereum/Presale.sol\":4297:4310  fullPercenFee */\n      dup2\n        /* \"Ethereum/Presale.sol\":4179:4260  (fullPercenFee.sub(feeAnyone))\r... */\n      tag_184\n        /* \"Ethereum/Presale.sol\":4245:4259  real_amount_in */\n      dup6\n        /* \"Ethereum/Presale.sol\":4180:4208  fullPercenFee.sub(feeAnyone) */\n      tag_185\n        /* \"Ethereum/Presale.sol\":4198:4207  feeAnyone */\n      sload(0x18)\n        /* \"Ethereum/Presale.sol\":4180:4193  fullPercenFee */\n      dup7\n        /* \"Ethereum/Presale.sol\":4180:4197  fullPercenFee.sub */\n      tag_186\n      swap1\n        /* \"Ethereum/Presale.sol\":4180:4208  fullPercenFee.sub(feeAnyone) */\n      swap2\n      swap1\n      0xffffffff\n      and\n      jump\t// in\n        /* \"Ethereum/Presale.sol\":4178:4311  ((fullPercenFee.sub(feeAnyone))\r... */\n    tag_210:\n        /* \"Ethereum/Presale.sol\":4161:4311  real_amount_in = ((fullPercenFee.sub(feeAnyone))\r... */\n      swap3\n      pop\n        /* \"Ethereum/Presale.sol\":4332:4358  amount_in - real_amount_in */\n      tag_213\n        /* \"Ethereum/Presale.sol\":4161:4311  real_amount_in = ((fullPercenFee.sub(feeAnyone))\r... */\n      dup4\n        /* \"Ethereum/Presale.sol\":4332:4341  amount_in */\n      dup6\n        /* \"Ethereum/Presale.sol\":4332:4358  amount_in - real_amount_in */\n      tag_126\n      jump\t// in\n    tag_213:\n        /* \"Ethereum/Presale.sol\":4326:4358  fee = amount_in - real_amount_in */\n      swap2\n      pop\n        /* \"Ethereum/Presale.sol\":4121:4387  if(!checkAdminAddress()) {\r... */\n    tag_209:\n        /* \"Ethereum/Presale.sol\":4446:4459  presaleStatus */\n      0x04\n        /* \"Ethereum/Presale.sol\":4446:4478  presaleStatus.totalBaseCollected */\n      sload\n        /* \"Ethereum/Presale.sol\":4417:4443  saleInfor.maxSpendPerBuyer */\n      sload(0x12)\n        /* \"Ethereum/Presale.sol\":4397:4414  uint256 remaining */\n      0x00\n      swap2\n        /* \"Ethereum/Presale.sol\":4417:4478  saleInfor.maxSpendPerBuyer - presaleStatus.totalBaseCollected */\n      tag_214\n      swap2\n      tag_126\n      jump\t// in\n    tag_214:\n        /* \"Ethereum/Presale.sol\":4397:4478  uint256 remaining = saleInfor.maxSpendPerBuyer - presaleStatus.totalBaseCollected */\n      swap1\n      pop\n        /* \"Ethereum/Presale.sol\":4509:4510  0 */\n      0x00\n        /* \"Ethereum/Presale.sol\":4497:4506  remaining */\n      dup2\n        /* \"Ethereum/Presale.sol\":4497:4510  remaining > 0 */\n      gt\n        /* \"Ethereum/Presale.sol\":4489:4530  require(remaining > 0, \"Sale is Success\") */\n      tag_215\n      jumpi\n      mload(0x40)\n      shl(0xe5, 0x461bcd)\n      dup2\n      mstore\n        /* \"#utility.yul\":7404:7406   */\n      0x20\n        /* \"Ethereum/Presale.sol\":4489:4530  require(remaining > 0, \"Sale is Success\") */\n      0x04\n      dup3\n      add\n        /* \"#utility.yul\":7386:7407   */\n      mstore\n        /* \"#utility.yul\":7443:7445   */\n      0x0f\n        /* \"#utility.yul\":7423:7441   */\n      0x24\n      dup3\n      add\n        /* \"#utility.yul\":7416:7446   */\n      mstore\n      shl(0x88, 0x53616c652069732053756363657373)\n        /* \"#utility.yul\":7462:7480   */\n      0x44\n      dup3\n      add\n        /* \"#utility.yul\":7455:7500   */\n      mstore\n        /* \"#utility.yul\":7517:7535   */\n      0x64\n      add\n        /* \"Ethereum/Presale.sol\":4489:4530  require(remaining > 0, \"Sale is Success\") */\n      tag_158\n        /* \"#utility.yul\":7376:7541   */\n      jump\n        /* \"Ethereum/Presale.sol\":4489:4530  require(remaining > 0, \"Sale is Success\") */\n    tag_215:\n        /* \"Ethereum/Presale.sol\":4541:4558  uint256 tokenSold */\n      0x00\n        /* \"Ethereum/Presale.sol\":4562:4720  real_amount_in.\r... */\n      tag_218\n        /* \"Ethereum/Presale.sol\":4687:4696  saleInfor */\n      0x0b\n        /* \"Ethereum/Presale.sol\":4687:4706  saleInfor.baseToken */\n      0x02\n      add\n      0x00\n      swap1\n      sload\n      swap1\n      0x0100\n      exp\n      swap1\n      div\n      sub(shl(0xa0, 0x01), 0x01)\n      and\n      sub(shl(0xa0, 0x01), 0x01)\n        /* \"Ethereum/Presale.sol\":4681:4716  ERC20(saleInfor.baseToken).decimals */\n      and\n      0x313ce567\n        /* \"Ethereum/Presale.sol\":4681:4718  ERC20(saleInfor.baseToken).decimals() */\n      mload(0x40)\n      dup2\n      0xffffffff\n      and\n      0xe0\n      shl\n      dup2\n      mstore\n      0x04\n      add\n      0x20\n      mload(0x40)\n      dup1\n      dup4\n      sub\n      dup2\n      dup7\n      dup1\n      extcodesize\n      iszero\n      dup1\n      iszero\n      tag_219\n      jumpi\n      0x00\n      dup1\n      revert\n    tag_219:\n      pop\n      gas\n      staticcall\n      iszero\n      dup1\n      iszero\n      tag_221\n      jumpi\n      returndatasize\n      0x00\n      dup1\n      returndatacopy\n      revert(0x00, returndatasize)\n    tag_221:\n      pop\n      pop\n      pop\n      pop\n      mload(0x40)\n      returndatasize\n      not(0x1f)\n      0x1f\n      dup3\n      add\n      and\n      dup3\n      add\n      dup1\n      0x40\n      mstore\n      pop\n      dup2\n      add\n      swap1\n      tag_222\n      swap2\n      swap1\n      tag_134\n      jump\t// in\n    tag_222:\n        /* \"Ethereum/Presale.sol\":4667:4719  10 ** uint256(ERC20(saleInfor.baseToken).decimals()) */\n      tag_223\n      swap1\n        /* \"Ethereum/Presale.sol\":4667:4669  10 */\n      0x0a\n        /* \"Ethereum/Presale.sol\":4667:4719  10 ** uint256(ERC20(saleInfor.baseToken).decimals()) */\n      tag_136\n      jump\t// in\n    tag_223:\n        /* \"Ethereum/Presale.sol\":4611:4631  saleInfor.tokenPrice */\n      sload(0x0e)\n        /* \"Ethereum/Presale.sol\":4562:4632  real_amount_in.\r... */\n      tag_184\n      swap1\n        /* \"Ethereum/Presale.sol\":4562:4576  real_amount_in */\n      dup9\n      swap1\n        /* \"Ethereum/Presale.sol\":4562:4610  real_amount_in.\r... */\n      tag_153\n        /* \"Ethereum/Presale.sol\":4562:4632  real_amount_in.\r... */\n      jump\t// in\n        /* \"Ethereum/Presale.sol\":4562:4720  real_amount_in.\r... */\n    tag_218:\n        /* \"Ethereum/Presale.sol\":4541:4721  uint256 tokenSold = (real_amount_in.\r... */\n      swap1\n      pop\n        /* \"Ethereum/Presale.sol\":4753:4762  amount_in */\n      dup6\n        /* \"Ethereum/Presale.sol\":4732:4737  buyer */\n      dup8\n        /* \"Ethereum/Presale.sol\":4732:4749  buyer.baseDeposit */\n      0x00\n      add\n      0x00\n        /* \"Ethereum/Presale.sol\":4732:4762  buyer.baseDeposit += amount_in */\n      dup3\n      dup3\n      sload\n      tag_225\n      swap2\n      swap1\n      tag_226\n      jump\t// in\n    tag_225:\n      swap3\n      pop\n      pop\n      dup2\n      swap1\n      sstore\n      pop\n        /* \"Ethereum/Presale.sol\":4793:4802  tokenSold */\n      dup1\n        /* \"Ethereum/Presale.sol\":4773:4778  buyer */\n      dup8\n        /* \"Ethereum/Presale.sol\":4773:4789  buyer.tokenOwner */\n      0x01\n      add\n      0x00\n        /* \"Ethereum/Presale.sol\":4773:4802  buyer.tokenOwner += tokenSold */\n      dup3\n      dup3\n      sload\n      tag_227\n      swap2\n      swap1\n      tag_226\n      jump\t// in\n    tag_227:\n      swap1\n      swap2\n      sstore\n      pop\n      pop\n        /* \"Ethereum/Presale.sol\":4813:4826  presaleStatus */\n      0x04\n        /* \"Ethereum/Presale.sol\":4813:4863  presaleStatus.totalBaseCollected += real_amount_in */\n      dup1\n      sload\n        /* \"Ethereum/Presale.sol\":4849:4863  real_amount_in */\n      dup7\n      swap2\n        /* \"Ethereum/Presale.sol\":4813:4826  presaleStatus */\n      swap1\n        /* \"Ethereum/Presale.sol\":4813:4845  presaleStatus.totalBaseCollected */\n      0x00\n      swap1\n        /* \"Ethereum/Presale.sol\":4813:4863  presaleStatus.totalBaseCollected += real_amount_in */\n      tag_228\n      swap1\n        /* \"Ethereum/Presale.sol\":4849:4863  real_amount_in */\n      dup5\n      swap1\n        /* \"Ethereum/Presale.sol\":4813:4863  presaleStatus.totalBaseCollected += real_amount_in */\n      tag_226\n      jump\t// in\n    tag_228:\n      swap1\n      swap2\n      sstore\n      pop\n      pop\n        /* \"Ethereum/Presale.sol\":4874:4902  presaleStatus.totalTokenSold */\n      0x05\n        /* \"Ethereum/Presale.sol\":4874:4915  presaleStatus.totalTokenSold += tokenSold */\n      dup1\n      sload\n        /* \"Ethereum/Presale.sol\":4906:4915  tokenSold */\n      dup3\n      swap2\n        /* \"Ethereum/Presale.sol\":4874:4902  presaleStatus.totalTokenSold */\n      swap1\n      0x00\n      swap1\n        /* \"Ethereum/Presale.sol\":4874:4915  presaleStatus.totalTokenSold += tokenSold */\n      tag_229\n      swap1\n        /* \"Ethereum/Presale.sol\":4906:4915  tokenSold */\n      dup5\n      swap1\n        /* \"Ethereum/Presale.sol\":4874:4915  presaleStatus.totalTokenSold += tokenSold */\n      tag_226\n      jump\t// in\n    tag_229:\n      swap1\n      swap2\n      sstore\n      pop\n      pop\n        /* \"Ethereum/Presale.sol\":4926:4951  presaleStatus.numberBuyer */\n      0x08\n        /* \"Ethereum/Presale.sol\":4926:4953  presaleStatus.numberBuyer++ */\n      dup1\n      sload\n      swap1\n        /* \"Ethereum/Presale.sol\":4926:4951  presaleStatus.numberBuyer */\n      0x00\n        /* \"Ethereum/Presale.sol\":4926:4953  presaleStatus.numberBuyer++ */\n      tag_230\n      dup4\n      tag_231\n      jump\t// in\n    tag_230:\n      swap1\n      swap2\n      sstore\n      pop\n      pop\n        /* \"Ethereum/Presale.sol\":4972:4982  msg.sender */\n      caller\n        /* \"Ethereum/Presale.sol\":4964:4983  userFee[msg.sender] */\n      0x00\n      swap1\n      dup2\n      mstore\n        /* \"Ethereum/Presale.sol\":4964:4971  userFee */\n      0x03\n        /* \"Ethereum/Presale.sol\":4964:4983  userFee[msg.sender] */\n      0x20\n      mstore\n      0x40\n      dup2\n      keccak256\n        /* \"Ethereum/Presale.sol\":4964:4990  userFee[msg.sender] += fee */\n      dup1\n      sload\n        /* \"Ethereum/Presale.sol\":4987:4990  fee */\n      dup7\n      swap3\n        /* \"Ethereum/Presale.sol\":4964:4983  userFee[msg.sender] */\n      swap1\n        /* \"Ethereum/Presale.sol\":4964:4990  userFee[msg.sender] += fee */\n      tag_232\n      swap1\n        /* \"Ethereum/Presale.sol\":4987:4990  fee */\n      dup5\n      swap1\n        /* \"Ethereum/Presale.sol\":4964:4990  userFee[msg.sender] += fee */\n      tag_226\n      jump\t// in\n    tag_232:\n      swap3\n      pop\n      pop\n      dup2\n      swap1\n      sstore\n      pop\n        /* \"Ethereum/Presale.sol\":5013:5016  fee */\n      dup4\n        /* \"Ethereum/Presale.sol\":5001:5009  totalFee */\n      0x1b\n      0x00\n        /* \"Ethereum/Presale.sol\":5001:5016  totalFee += fee */\n      dup3\n      dup3\n      sload\n      tag_233\n      swap2\n      swap1\n      tag_226\n      jump\t// in\n    tag_233:\n      swap1\n      swap2\n      sstore\n      pop\n      pop\n        /* \"Ethereum/Presale.sol\":5032:5057  saleInfor.saleIsBaseToken */\n      and(0xff, sload(0x15))\n        /* \"Ethereum/Presale.sol\":5032:5093  saleInfor.saleIsBaseToken && real_amount_in + fee < msg.value */\n      dup1\n      iszero\n      tag_234\n      jumpi\n      pop\n        /* \"Ethereum/Presale.sol\":5084:5093  msg.value */\n      callvalue\n        /* \"Ethereum/Presale.sol\":5061:5081  real_amount_in + fee */\n      tag_235\n        /* \"Ethereum/Presale.sol\":5078:5081  fee */\n      dup6\n        /* \"Ethereum/Presale.sol\":5061:5075  real_amount_in */\n      dup8\n        /* \"Ethereum/Presale.sol\":5061:5081  real_amount_in + fee */\n      tag_226\n      jump\t// in\n    tag_235:\n        /* \"Ethereum/Presale.sol\":5061:5093  real_amount_in + fee < msg.value */\n      lt\n        /* \"Ethereum/Presale.sol\":5032:5093  saleInfor.saleIsBaseToken && real_amount_in + fee < msg.value */\n    tag_234:\n        /* \"Ethereum/Presale.sol\":5029:5184  if(saleInfor.saleIsBaseToken && real_amount_in + fee < msg.value) {\r... */\n      iszero\n      tag_236\n      jumpi\n        /* \"Ethereum/Presale.sol\":5118:5128  msg.sender */\n      caller\n        /* \"Ethereum/Presale.sol\":5110:5172  payable(msg.sender).transfer(msg.value - real_amount_in - fee) */\n      0x08fc\n        /* \"Ethereum/Presale.sol\":5168:5171  fee */\n      dup6\n        /* \"Ethereum/Presale.sol\":5139:5165  msg.value - real_amount_in */\n      tag_237\n        /* \"Ethereum/Presale.sol\":5151:5165  real_amount_in */\n      dup9\n        /* \"Ethereum/Presale.sol\":5139:5148  msg.value */\n      callvalue\n        /* \"Ethereum/Presale.sol\":5139:5165  msg.value - real_amount_in */\n      tag_126\n      jump\t// in\n    tag_237:\n        /* \"Ethereum/Presale.sol\":5139:5171  msg.value - real_amount_in - fee */\n      tag_238\n      swap2\n      swap1\n      tag_126\n      jump\t// in\n    tag_238:\n        /* \"Ethereum/Presale.sol\":5110:5172  payable(msg.sender).transfer(msg.value - real_amount_in - fee) */\n      mload(0x40)\n      dup2\n      iszero\n      swap1\n      swap3\n      mul\n      swap2\n      0x00\n      dup2\n      dup2\n      dup2\n      dup6\n      dup9\n      dup9\n      call\n      swap4\n      pop\n      pop\n      pop\n      pop\n      iszero\n      dup1\n      iszero\n      tag_240\n      jumpi\n      returndatasize\n      0x00\n      dup1\n      returndatacopy\n      revert(0x00, returndatasize)\n    tag_240:\n      pop\n        /* \"Ethereum/Presale.sol\":5029:5184  if(saleInfor.saleIsBaseToken && real_amount_in + fee < msg.value) {\r... */\n    tag_236:\n        /* \"Ethereum/Presale.sol\":5199:5224  saleInfor.saleIsBaseToken */\n      and(0xff, sload(0x15))\n        /* \"Ethereum/Presale.sol\":5195:5446  if(!saleInfor.saleIsBaseToken) {\r... */\n      tag_242\n      jumpi\n        /* \"Ethereum/Presale.sol\":5299:5318  saleInfor.baseToken */\n      sload(0x0d)\n        /* \"Ethereum/Presale.sol\":5241:5434  TransferHelper.safeTransferFrom(\r... */\n      tag_242\n      swap1\n      sub(shl(0xa0, 0x01), 0x01)\n        /* \"Ethereum/Presale.sol\":5299:5318  saleInfor.baseToken */\n      and\n        /* \"Ethereum/Presale.sol\":5338:5348  msg.sender */\n      caller\n        /* \"Ethereum/Presale.sol\":5375:5379  this */\n      address\n        /* \"Ethereum/Presale.sol\":5399:5419  real_amount_in + fee */\n      tag_243\n        /* \"Ethereum/Presale.sol\":5416:5419  fee */\n      dup9\n        /* \"Ethereum/Presale.sol\":5399:5413  real_amount_in */\n      dup11\n        /* \"Ethereum/Presale.sol\":5399:5419  real_amount_in + fee */\n      tag_226\n      jump\t// in\n    tag_243:\n        /* \"Ethereum/Presale.sol\":5241:5272  TransferHelper.safeTransferFrom */\n      tag_244\n        /* \"Ethereum/Presale.sol\":5241:5434  TransferHelper.safeTransferFrom(\r... */\n      jump\t// in\n    tag_242:\n      pop\n      pop\n        /* \"Utils/ReentrancyGuard.sol\":1734:1735  1 */\n      0x01\n        /* \"Utils/ReentrancyGuard.sol\":2688:2695  _status */\n      0x00\n        /* \"Utils/ReentrancyGuard.sol\":2688:2710  _status = _NOT_ENTERED */\n      sstore\n      pop\n      pop\n      pop\n      pop\n      pop\n      pop\n        /* \"Ethereum/Presale.sol\":3561:5465  function deposit(uint256 _amount) external payable nonReentrant {\r... */\n      jump\t// out\n        /* \"Ethereum/Presale.sol\":3443:3553  function checkAdminAddress() public view returns(bool) {\r... */\n    tag_90:\n        /* \"Ethereum/Presale.sol\":3492:3496  bool */\n      0x00\n        /* \"Ethereum/Presale.sol\":3516:3545  admins.contains(_msgSender()) */\n      tag_246\n        /* \"Ethereum/Presale.sol\":3516:3522  admins */\n      0x19\n        /* \"Utils/Context.sol\":736:746  msg.sender */\n      caller\n        /* \"Ethereum/Presale.sol\":3516:3531  admins.contains */\n      tag_248\n        /* \"Ethereum/Presale.sol\":3516:3545  admins.contains(_msgSender()) */\n      jump\t// in\n    tag_246:\n        /* \"Ethereum/Presale.sol\":3509:3545  return admins.contains(_msgSender()) */\n      swap1\n      pop\n        /* \"Ethereum/Presale.sol\":3443:3553  function checkAdminAddress() public view returns(bool) {\r... */\n      swap1\n      jump\t// out\n        /* \"Utils/Ownable.sol\":1972:2173  function transferOwnership(address newOwner) public virtual onlyOwner {\r... */\n    tag_102:\n        /* \"Utils/Ownable.sol\":1136:1142  _owner */\n      and(sub(shl(0xa0, 0x01), 0x01), sload(0x01))\n        /* \"Utils/Context.sol\":736:746  msg.sender */\n      caller\n        /* \"Utils/Ownable.sol\":1283:1306  owner() == _msgSender() */\n      eq\n        /* \"Utils/Ownable.sol\":1275:1343  require(owner() == _msgSender(), \"Ownable: caller is not the owner\") */\n      tag_252\n      jumpi\n      mload(0x40)\n      shl(0xe5, 0x461bcd)\n      dup2\n      mstore\n        /* \"#utility.yul\":8089:8091   */\n      0x20\n        /* \"Utils/Ownable.sol\":1275:1343  require(owner() == _msgSender(), \"Ownable: caller is not the owner\") */\n      0x04\n      dup3\n      add\n        /* \"#utility.yul\":8071:8092   */\n      dup2\n      swap1\n      mstore\n        /* \"#utility.yul\":8108:8126   */\n      0x24\n      dup3\n      add\n        /* \"#utility.yul\":8101:8131   */\n      mstore\n        /* \"#utility.yul\":8167:8201   */\n      0x4f776e61626c653a2063616c6c6572206973206e6f7420746865206f776e6572\n        /* \"#utility.yul\":8147:8165   */\n      0x44\n      dup3\n      add\n        /* \"#utility.yul\":8140:8202   */\n      mstore\n        /* \"#utility.yul\":8219:8237   */\n      0x64\n      add\n        /* \"Utils/Ownable.sol\":1275:1343  require(owner() == _msgSender(), \"Ownable: caller is not the owner\") */\n      tag_158\n        /* \"#utility.yul\":8061:8243   */\n      jump\n        /* \"Utils/Ownable.sol\":1275:1343  require(owner() == _msgSender(), \"Ownable: caller is not the owner\") */\n    tag_252:\n      sub(shl(0xa0, 0x01), 0x01)\n        /* \"Utils/Ownable.sol\":2061:2083  newOwner != address(0) */\n      dup2\n      and\n        /* \"Utils/Ownable.sol\":2053:2126  require(newOwner != address(0), \"Ownable: new owner is the zero address\") */\n      tag_255\n      jumpi\n      mload(0x40)\n      shl(0xe5, 0x461bcd)\n      dup2\n      mstore\n        /* \"#utility.yul\":5970:5972   */\n      0x20\n        /* \"Utils/Ownable.sol\":2053:2126  require(newOwner != address(0), \"Ownable: new owner is the zero address\") */\n      0x04\n      dup3\n      add\n        /* \"#utility.yul\":5952:5973   */\n      mstore\n        /* \"#utility.yul\":6009:6011   */\n      0x26\n        /* \"#utility.yul\":5989:6007   */\n      0x24\n      dup3\n      add\n        /* \"#utility.yul\":5982:6012   */\n      mstore\n        /* \"#utility.yul\":6048:6082   */\n      0x4f776e61626c653a206e6577206f776e657220697320746865207a65726f2061\n        /* \"#utility.yul\":6028:6046   */\n      0x44\n      dup3\n      add\n        /* \"#utility.yul\":6021:6083   */\n      mstore\n      shl(0xd0, 0x646472657373)\n        /* \"#utility.yul\":6099:6117   */\n      0x64\n      dup3\n      add\n        /* \"#utility.yul\":6092:6128   */\n      mstore\n        /* \"#utility.yul\":6145:6164   */\n      0x84\n      add\n        /* \"Utils/Ownable.sol\":2053:2126  require(newOwner != address(0), \"Ownable: new owner is the zero address\") */\n      tag_158\n        /* \"#utility.yul\":5942:6170   */\n      jump\n        /* \"Utils/Ownable.sol\":2053:2126  require(newOwner != address(0), \"Ownable: new owner is the zero address\") */\n    tag_255:\n        /* \"Utils/Ownable.sol\":2137:2165  _transferOwnership(newOwner) */\n      tag_165\n        /* \"Utils/Ownable.sol\":2156:2164  newOwner */\n      dup2\n        /* \"Utils/Ownable.sol\":2137:2155  _transferOwnership */\n      tag_162\n        /* \"Utils/Ownable.sol\":2137:2165  _transferOwnership(newOwner) */\n      jump\t// in\n        /* \"Utils/EnumerableSet.sol\":8259:8411  function add(AddressSet storage set, address value) internal returns (bool) {\r... */\n    tag_108:\n        /* \"Utils/EnumerableSet.sol\":8329:8333  bool */\n      0x00\n        /* \"Utils/EnumerableSet.sol\":8353:8403  _add(set._inner, bytes32(uint256(uint160(value)))) */\n      tag_261\n        /* \"Utils/EnumerableSet.sol\":8358:8361  set */\n      dup4\n      sub(shl(0xa0, 0x01), 0x01)\n        /* \"Utils/EnumerableSet.sol\":8378:8401  uint256(uint160(value)) */\n      dup5\n      and\n        /* \"Utils/EnumerableSet.sol\":8353:8357  _add */\n      tag_262\n        /* \"Utils/EnumerableSet.sol\":8353:8403  _add(set._inner, bytes32(uint256(uint160(value)))) */\n      jump\t// in\n    tag_261:\n        /* \"Utils/EnumerableSet.sol\":8346:8403  return _add(set._inner, bytes32(uint256(uint160(value)))) */\n      swap1\n      pop\n        /* \"Utils/EnumerableSet.sol\":8259:8411  function add(AddressSet storage set, address value) internal returns (bool) {\r... */\n    tag_260:\n      swap3\n      swap2\n      pop\n      pop\n      jump\t// out\n        /* \"Utils/SafeMath.sol\":3585:3683  function mul(uint256 a, uint256 b) internal pure returns (uint256) {\r... */\n    tag_153:\n        /* \"Utils/SafeMath.sol\":3643:3650  uint256 */\n      0x00\n        /* \"Utils/SafeMath.sol\":3670:3675  a * b */\n      tag_261\n        /* \"Utils/SafeMath.sol\":3674:3675  b */\n      dup3\n        /* \"Utils/SafeMath.sol\":3670:3671  a */\n      dup5\n        /* \"Utils/SafeMath.sol\":3670:3675  a * b */\n      tag_139\n      jump\t// in\n        /* \"Utils/Ownable.sol\":2333:2524  function _transferOwnership(address newOwner) internal virtual {\r... */\n    tag_162:\n        /* \"Utils/Ownable.sol\":2426:2432  _owner */\n      0x01\n      dup1\n      sload\n      sub(shl(0xa0, 0x01), 0x01)\n        /* \"Utils/Ownable.sol\":2443:2460  _owner = newOwner */\n      dup4\n      dup2\n      and\n      not(sub(shl(0xa0, 0x01), 0x01))\n      dup4\n      and\n      dup2\n      or\n      swap1\n      swap4\n      sstore\n        /* \"Utils/Ownable.sol\":2476:2516  OwnershipTransferred(oldOwner, newOwner) */\n      mload(0x40)\n        /* \"Utils/Ownable.sol\":2426:2432  _owner */\n      swap2\n      and\n      swap2\n        /* \"Utils/Ownable.sol\":2443:2460  _owner = newOwner */\n      swap1\n        /* \"Utils/Ownable.sol\":2426:2432  _owner */\n      dup3\n      swap1\n        /* \"Utils/Ownable.sol\":2476:2516  OwnershipTransferred(oldOwner, newOwner) */\n      0x8be0079c531659141344cd1fd0a4f28419497f9722a3daafe3b4186f6b6457e0\n      swap1\n        /* \"Utils/Ownable.sol\":2407:2423  address oldOwner */\n      0x00\n      swap1\n        /* \"Utils/Ownable.sol\":2476:2516  OwnershipTransferred(oldOwner, newOwner) */\n      log3\n        /* \"Utils/Ownable.sol\":2333:2524  function _transferOwnership(address newOwner) internal virtual {\r... */\n      pop\n      pop\n      jump\t// out\n        /* \"Utils/SafeMath.sol\":3228:3326  function sub(uint256 a, uint256 b) internal pure returns (uint256) {\r... */\n    tag_186:\n        /* \"Utils/SafeMath.sol\":3286:3293  uint256 */\n      0x00\n        /* \"Utils/SafeMath.sol\":3313:3318  a - b */\n      tag_261\n        /* \"Utils/SafeMath.sol\":3317:3318  b */\n      dup3\n        /* \"Utils/SafeMath.sol\":3313:3314  a */\n      dup5\n        /* \"Utils/SafeMath.sol\":3313:3318  a - b */\n      tag_126\n      jump\t// in\n        /* \"Utils/SafeMath.sol\":3984:4082  function div(uint256 a, uint256 b) internal pure returns (uint256) {\r... */\n    tag_187:\n        /* \"Utils/SafeMath.sol\":4042:4049  uint256 */\n      0x00\n        /* \"Utils/SafeMath.sol\":4069:4074  a / b */\n      tag_261\n        /* \"Utils/SafeMath.sol\":4073:4074  b */\n      dup3\n        /* \"Utils/SafeMath.sol\":4069:4070  a */\n      dup5\n        /* \"Utils/SafeMath.sol\":4069:4074  a / b */\n      tag_271\n      jump\t// in\n        /* \"Utils/TransferHelper.sol\":1073:1503  function safeTransferFrom(\r... */\n    tag_244:\n        /* \"Utils/TransferHelper.sol\":1279:1330  abi.encodeWithSelector(0x23b872dd, from, to, value) */\n      0x40\n      dup1\n      mload\n      sub(shl(0xa0, 0x01), 0x01)\n        /* \"#utility.yul\":4597:4612   */\n      dup6\n      dup2\n      and\n        /* \"Utils/TransferHelper.sol\":1279:1330  abi.encodeWithSelector(0x23b872dd, from, to, value) */\n      0x24\n      dup4\n      add\n        /* \"#utility.yul\":4579:4613   */\n      mstore\n        /* \"#utility.yul\":4649:4664   */\n      dup5\n      dup2\n      and\n        /* \"#utility.yul\":4629:4647   */\n      0x44\n      dup4\n      add\n        /* \"#utility.yul\":4622:4665   */\n      mstore\n        /* \"#utility.yul\":4681:4699   */\n      0x64\n      dup1\n      dup4\n      add\n        /* \"#utility.yul\":4674:4708   */\n      dup6\n      swap1\n      mstore\n        /* \"Utils/TransferHelper.sol\":1279:1330  abi.encodeWithSelector(0x23b872dd, from, to, value) */\n      dup4\n      mload\n      dup1\n      dup5\n      sub\n      swap1\n      swap2\n      add\n      dup2\n      mstore\n        /* \"#utility.yul\":4514:4532   */\n      0x84\n      swap1\n      swap3\n      add\n        /* \"Utils/TransferHelper.sol\":1279:1330  abi.encodeWithSelector(0x23b872dd, from, to, value) */\n      dup4\n      mstore\n      0x20\n      dup3\n      add\n      dup1\n      mload\n      sub(shl(0xe0, 0x01), 0x01)\n      and\n      shl(0xe0, 0x23b872dd)\n      or\n      swap1\n      mstore\n        /* \"Utils/TransferHelper.sol\":1254:1341  token.call(\r... */\n      swap2\n      mload\n      0x00\n      swap3\n      dup4\n      swap3\n        /* \"Utils/TransferHelper.sol\":1254:1264  token.call */\n      swap1\n      dup9\n      and\n      swap2\n        /* \"Utils/TransferHelper.sol\":1254:1341  token.call(\r... */\n      tag_275\n      swap2\n        /* \"Utils/TransferHelper.sol\":1279:1330  abi.encodeWithSelector(0x23b872dd, from, to, value) */\n      swap1\n        /* \"Utils/TransferHelper.sol\":1254:1341  token.call(\r... */\n      tag_276\n      jump\t// in\n    tag_275:\n      0x00\n      mload(0x40)\n      dup1\n      dup4\n      sub\n      dup2\n      0x00\n      dup7\n      gas\n      call\n      swap2\n      pop\n      pop\n      returndatasize\n      dup1\n      0x00\n      dup2\n      eq\n      tag_279\n      jumpi\n      mload(0x40)\n      swap2\n      pop\n      and(add(returndatasize, 0x3f), not(0x1f))\n      dup3\n      add\n      0x40\n      mstore\n      returndatasize\n      dup3\n      mstore\n      returndatasize\n      0x00\n      0x20\n      dup5\n      add\n      returndatacopy\n      jump(tag_278)\n    tag_279:\n      0x60\n      swap2\n      pop\n    tag_278:\n      pop\n        /* \"Utils/TransferHelper.sol\":1218:1341  (bool success, bytes memory data) = token.call(\r... */\n      swap2\n      pop\n      swap2\n      pop\n        /* \"Utils/TransferHelper.sol\":1374:1381  success */\n      dup2\n        /* \"Utils/TransferHelper.sol\":1374:1431  success && (data.length == 0 || abi.decode(data, (bool))) */\n      dup1\n      iszero\n      tag_282\n      jumpi\n      pop\n        /* \"Utils/TransferHelper.sol\":1386:1397  data.length */\n      dup1\n      mload\n        /* \"Utils/TransferHelper.sol\":1386:1402  data.length == 0 */\n      iszero\n      dup1\n        /* \"Utils/TransferHelper.sol\":1386:1430  data.length == 0 || abi.decode(data, (bool)) */\n      tag_282\n      jumpi\n      pop\n        /* \"Utils/TransferHelper.sol\":1417:1421  data */\n      dup1\n        /* \"Utils/TransferHelper.sol\":1406:1430  abi.decode(data, (bool)) */\n      dup1\n      0x20\n      add\n      swap1\n      mload\n      dup2\n      add\n      swap1\n      tag_282\n      swap2\n      swap1\n      tag_118\n      jump\t// in\n    tag_282:\n        /* \"Utils/TransferHelper.sol\":1352:1495  require(\r... */\n      tag_283\n      jumpi\n      mload(0x40)\n      shl(0xe5, 0x461bcd)\n      dup2\n      mstore\n        /* \"#utility.yul\":8858:8860   */\n      0x20\n        /* \"Utils/TransferHelper.sol\":1352:1495  require(\r... */\n      0x04\n      dup3\n      add\n        /* \"#utility.yul\":8840:8861   */\n      mstore\n        /* \"#utility.yul\":8897:8899   */\n      0x24\n        /* \"#utility.yul\":8877:8895   */\n      dup1\n      dup3\n      add\n        /* \"#utility.yul\":8870:8900   */\n      mstore\n        /* \"#utility.yul\":8936:8970   */\n      0x5472616e7366657248656c7065723a205452414e534645525f46524f4d5f4641\n        /* \"#utility.yul\":8916:8934   */\n      0x44\n      dup3\n      add\n        /* \"#utility.yul\":8909:8971   */\n      mstore\n      shl(0xe2, 0x12531151)\n        /* \"#utility.yul\":8987:9005   */\n      0x64\n      dup3\n      add\n        /* \"#utility.yul\":8980:9014   */\n      mstore\n        /* \"#utility.yul\":9031:9050   */\n      0x84\n      add\n        /* \"Utils/TransferHelper.sol\":1352:1495  require(\r... */\n      tag_158\n        /* \"#utility.yul\":8830:9056   */\n      jump\n        /* \"Utils/TransferHelper.sol\":1352:1495  require(\r... */\n    tag_283:\n        /* \"Utils/TransferHelper.sol\":1073:1503  function safeTransferFrom(\r... */\n      pop\n      pop\n      pop\n      pop\n      pop\n      pop\n      jump\t// out\n        /* \"Utils/EnumerableSet.sol\":8831:8998  function contains(AddressSet storage set, address value) internal view returns (bool) {\r... */\n    tag_248:\n      sub(shl(0xa0, 0x01), 0x01)\n        /* \"Utils/EnumerableSet.sol\":8965:8988  uint256(uint160(value)) */\n      dup2\n      and\n        /* \"Utils/EnumerableSet.sol\":8911:8915  bool */\n      0x00\n        /* \"Utils/EnumerableSet.sol\":4367:4386  set._indexes[value] */\n      swap1\n      dup2\n      mstore\n        /* \"Utils/EnumerableSet.sol\":4367:4379  set._indexes */\n      0x01\n      dup4\n      add\n        /* \"Utils/EnumerableSet.sol\":4367:4386  set._indexes[value] */\n      0x20\n      mstore\n      0x40\n      dup2\n      keccak256\n      sload\n        /* \"Utils/EnumerableSet.sol\":4367:4391  set._indexes[value] != 0 */\n      iszero\n      iszero\n        /* \"Utils/EnumerableSet.sol\":8935:8990  _contains(set._inner, bytes32(uint256(uint160(value)))) */\n      tag_261\n        /* \"Utils/EnumerableSet.sol\":4270:4399  function _contains(Set storage set, bytes32 value) private view returns (bool) {\r... */\n      jump\n        /* \"Utils/EnumerableSet.sol\":2174:2588  function _add(Set storage set, bytes32 value) private returns (bool) {\r... */\n    tag_262:\n        /* \"Utils/EnumerableSet.sol\":2237:2241  bool */\n      0x00\n        /* \"Utils/EnumerableSet.sol\":4367:4386  set._indexes[value] */\n      dup2\n      dup2\n      mstore\n        /* \"Utils/EnumerableSet.sol\":4367:4379  set._indexes */\n      0x01\n      dup4\n      add\n        /* \"Utils/EnumerableSet.sol\":4367:4386  set._indexes[value] */\n      0x20\n      mstore\n      0x40\n      dup2\n      keccak256\n      sload\n        /* \"Utils/EnumerableSet.sol\":2254:2581  if (!_contains(set, value)) {\r... */\n      tag_291\n      jumpi\n      pop\n        /* \"Utils/EnumerableSet.sol\":2297:2320  set._values.push(value) */\n      dup2\n      sload\n      0x01\n      dup2\n      dup2\n      add\n      dup5\n      sstore\n        /* \"Utils/EnumerableSet.sol\":2297:2308  set._values */\n      0x00\n        /* \"Utils/EnumerableSet.sol\":2297:2320  set._values.push(value) */\n      dup5\n      dup2\n      mstore\n      0x20\n      dup1\n      dup3\n      keccak256\n      swap1\n      swap4\n      add\n      dup5\n      swap1\n      sstore\n        /* \"Utils/EnumerableSet.sol\":2480:2498  set._values.length */\n      dup5\n      sload\n        /* \"Utils/EnumerableSet.sol\":2458:2477  set._indexes[value] */\n      dup5\n      dup3\n      mstore\n        /* \"Utils/EnumerableSet.sol\":2458:2470  set._indexes */\n      dup3\n      dup7\n      add\n        /* \"Utils/EnumerableSet.sol\":2458:2477  set._indexes[value] */\n      swap1\n      swap4\n      mstore\n      0x40\n      swap1\n      keccak256\n        /* \"Utils/EnumerableSet.sol\":2458:2498  set._indexes[value] = set._values.length */\n      swap2\n      swap1\n      swap2\n      sstore\n        /* \"Utils/EnumerableSet.sol\":2513:2524  return true */\n      jump(tag_260)\n        /* \"Utils/EnumerableSet.sol\":2254:2581  if (!_contains(set, value)) {\r... */\n    tag_291:\n      pop\n        /* \"Utils/EnumerableSet.sol\":2564:2569  false */\n      0x00\n        /* \"Utils/EnumerableSet.sol\":2557:2569  return false */\n      jump(tag_260)\n        /* \"#utility.yul\":14:271   */\n    tag_54:\n        /* \"#utility.yul\":73:79   */\n      0x00\n        /* \"#utility.yul\":126:128   */\n      0x20\n        /* \"#utility.yul\":114:123   */\n      dup3\n        /* \"#utility.yul\":105:112   */\n      dup5\n        /* \"#utility.yul\":101:124   */\n      sub\n        /* \"#utility.yul\":97:129   */\n      slt\n        /* \"#utility.yul\":94:96   */\n      iszero\n      tag_297\n      jumpi\n        /* \"#utility.yul\":147:153   */\n      dup1\n        /* \"#utility.yul\":139:145   */\n      dup2\n        /* \"#utility.yul\":132:154   */\n      revert\n        /* \"#utility.yul\":94:96   */\n    tag_297:\n        /* \"#utility.yul\":191:200   */\n      dup2\n        /* \"#utility.yul\":178:201   */\n      calldataload\n        /* \"#utility.yul\":210:241   */\n      tag_298\n        /* \"#utility.yul\":235:240   */\n      dup2\n        /* \"#utility.yul\":210:241   */\n      tag_299\n      jump\t// in\n    tag_298:\n        /* \"#utility.yul\":260:265   */\n      swap4\n        /* \"#utility.yul\":84:271   */\n      swap3\n      pop\n      pop\n      pop\n      jump\t// out\n        /* \"#utility.yul\":276:1572   */\n    tag_60:\n        /* \"#utility.yul\":419:425   */\n      0x00\n        /* \"#utility.yul\":427:433   */\n      dup1\n        /* \"#utility.yul\":435:441   */\n      0x00\n        /* \"#utility.yul\":443:449   */\n      dup1\n        /* \"#utility.yul\":474:477   */\n      0x0140\n        /* \"#utility.yul\":518:520   */\n      dup1\n        /* \"#utility.yul\":506:515   */\n      dup7\n        /* \"#utility.yul\":497:504   */\n      dup9\n        /* \"#utility.yul\":493:516   */\n      sub\n        /* \"#utility.yul\":489:521   */\n      slt\n        /* \"#utility.yul\":486:488   */\n      iszero\n      tag_301\n      jumpi\n        /* \"#utility.yul\":539:545   */\n      dup4\n        /* \"#utility.yul\":531:537   */\n      dup5\n        /* \"#utility.yul\":524:546   */\n      revert\n        /* \"#utility.yul\":486:488   */\n    tag_301:\n        /* \"#utility.yul\":583:592   */\n      dup6\n        /* \"#utility.yul\":570:593   */\n      calldataload\n        /* \"#utility.yul\":602:633   */\n      tag_302\n        /* \"#utility.yul\":627:632   */\n      dup2\n        /* \"#utility.yul\":602:633   */\n      tag_299\n      jump\t// in\n    tag_302:\n        /* \"#utility.yul\":652:657   */\n      swap5\n      pop\n        /* \"#utility.yul\":676:678   */\n      0x20\n        /* \"#utility.yul\":715:733   */\n      dup7\n      dup2\n      add\n        /* \"#utility.yul\":702:734   */\n      calldataload\n        /* \"#utility.yul\":743:776   */\n      tag_303\n        /* \"#utility.yul\":702:734   */\n      dup2\n        /* \"#utility.yul\":743:776   */\n      tag_299\n      jump\t// in\n    tag_303:\n        /* \"#utility.yul\":795:802   */\n      swap5\n      pop\n        /* \"#utility.yul\":854:856   */\n      0x40\n        /* \"#utility.yul\":839:857   */\n      dup8\n      add\n        /* \"#utility.yul\":826:858   */\n      calldataload\n        /* \"#utility.yul\":867:900   */\n      tag_304\n        /* \"#utility.yul\":826:858   */\n      dup2\n        /* \"#utility.yul\":867:900   */\n      tag_299\n      jump\t// in\n    tag_304:\n        /* \"#utility.yul\":919:926   */\n      swap4\n      pop\n        /* \"#utility.yul\":964:967   */\n      0x7f\n        /* \"#utility.yul\":949:968   */\n      dup8\n      add\n        /* \"#utility.yul\":945:978   */\n      dup9\n      sgt\n        /* \"#utility.yul\":935:937   */\n      tag_305\n      jumpi\n        /* \"#utility.yul\":997:1003   */\n      dup3\n        /* \"#utility.yul\":989:995   */\n      dup4\n        /* \"#utility.yul\":982:1004   */\n      revert\n        /* \"#utility.yul\":935:937   */\n    tag_305:\n        /* \"#utility.yul\":1035:1037   */\n      0x40\n        /* \"#utility.yul\":1029:1038   */\n      mload\n        /* \"#utility.yul\":1077:1080   */\n      0xe0\n        /* \"#utility.yul\":1069:1075   */\n      dup2\n        /* \"#utility.yul\":1065:1081   */\n      add\n        /* \"#utility.yul\":1147:1153   */\n      dup2\n        /* \"#utility.yul\":1135:1145   */\n      dup2\n        /* \"#utility.yul\":1132:1154   */\n      lt\n        /* \"#utility.yul\":1111:1129   */\n      0xffffffffffffffff\n        /* \"#utility.yul\":1099:1109   */\n      dup3\n        /* \"#utility.yul\":1096:1130   */\n      gt\n        /* \"#utility.yul\":1093:1155   */\n      or\n        /* \"#utility.yul\":1090:1092   */\n      iszero\n      tag_307\n      jumpi\n        /* \"#utility.yul\":1158:1176   */\n      tag_307\n      tag_308\n      jump\t// in\n    tag_307:\n        /* \"#utility.yul\":1194:1196   */\n      0x40\n        /* \"#utility.yul\":1187:1209   */\n      mstore\n        /* \"#utility.yul\":1229:1235   */\n      dup1\n        /* \"#utility.yul\":1270:1272   */\n      0x60\n        /* \"#utility.yul\":1255:1273   */\n      dup10\n      add\n        /* \"#utility.yul\":1288:1306   */\n      dup5\n      dup11\n      add\n        /* \"#utility.yul\":1285:1316   */\n      dup12\n      lt\n        /* \"#utility.yul\":1282:1284   */\n      iszero\n      tag_309\n      jumpi\n        /* \"#utility.yul\":1334:1340   */\n      dup6\n        /* \"#utility.yul\":1326:1332   */\n      dup7\n        /* \"#utility.yul\":1319:1341   */\n      revert\n        /* \"#utility.yul\":1282:1284   */\n    tag_309:\n        /* \"#utility.yul\":1361:1367   */\n      dup6\n        /* \"#utility.yul\":1352:1367   */\n      swap5\n      pop\n        /* \"#utility.yul\":1376:1541   */\n    tag_310:\n        /* \"#utility.yul\":1390:1394   */\n      0x07\n        /* \"#utility.yul\":1387:1388   */\n      dup6\n        /* \"#utility.yul\":1384:1395   */\n      lt\n        /* \"#utility.yul\":1376:1541   */\n      iszero\n      tag_312\n      jumpi\n        /* \"#utility.yul\":1449:1466   */\n      dup1\n      calldataload\n        /* \"#utility.yul\":1437:1467   */\n      dup3\n      mstore\n        /* \"#utility.yul\":1410:1411   */\n      0x01\n        /* \"#utility.yul\":1403:1412   */\n      swap5\n      swap1\n      swap5\n      add\n      swap4\n        /* \"#utility.yul\":1487:1499   */\n      swap1\n      dup4\n      add\n      swap1\n        /* \"#utility.yul\":1519:1531   */\n      dup4\n      add\n        /* \"#utility.yul\":1376:1541   */\n      jump(tag_310)\n    tag_312:\n        /* \"#utility.yul\":1380:1383   */\n      pop\n      pop\n        /* \"#utility.yul\":1560:1566   */\n      dup1\n        /* \"#utility.yul\":1550:1566   */\n      swap4\n      pop\n      pop\n      pop\n      pop\n        /* \"#utility.yul\":454:1572   */\n      swap3\n      swap6\n      swap2\n      swap5\n      pop\n      swap3\n      pop\n      jump\t// out\n        /* \"#utility.yul\":1577:1902   */\n    tag_32:\n        /* \"#utility.yul\":1645:1651   */\n      0x00\n        /* \"#utility.yul\":1653:1659   */\n      dup1\n        /* \"#utility.yul\":1706:1708   */\n      0x40\n        /* \"#utility.yul\":1694:1703   */\n      dup4\n        /* \"#utility.yul\":1685:1692   */\n      dup6\n        /* \"#utility.yul\":1681:1704   */\n      sub\n        /* \"#utility.yul\":1677:1709   */\n      slt\n        /* \"#utility.yul\":1674:1676   */\n      iszero\n      tag_314\n      jumpi\n        /* \"#utility.yul\":1727:1733   */\n      dup2\n        /* \"#utility.yul\":1719:1725   */\n      dup3\n        /* \"#utility.yul\":1712:1734   */\n      revert\n        /* \"#utility.yul\":1674:1676   */\n    tag_314:\n        /* \"#utility.yul\":1771:1780   */\n      dup3\n        /* \"#utility.yul\":1758:1781   */\n      calldataload\n        /* \"#utility.yul\":1790:1821   */\n      tag_315\n        /* \"#utility.yul\":1815:1820   */\n      dup2\n        /* \"#utility.yul\":1790:1821   */\n      tag_299\n      jump\t// in\n    tag_315:\n        /* \"#utility.yul\":1840:1845   */\n      swap5\n        /* \"#utility.yul\":1892:1894   */\n      0x20\n        /* \"#utility.yul\":1877:1895   */\n      swap4\n      swap1\n      swap4\n      add\n        /* \"#utility.yul\":1864:1896   */\n      calldataload\n      swap4\n      pop\n      pop\n      pop\n        /* \"#utility.yul\":1664:1902   */\n      jump\t// out\n        /* \"#utility.yul\":1907:2204   */\n    tag_118:\n        /* \"#utility.yul\":1974:1980   */\n      0x00\n        /* \"#utility.yul\":2027:2029   */\n      0x20\n        /* \"#utility.yul\":2015:2024   */\n      dup3\n        /* \"#utility.yul\":2006:2013   */\n      dup5\n        /* \"#utility.yul\":2002:2025   */\n      sub\n        /* \"#utility.yul\":1998:2030   */\n      slt\n        /* \"#utility.yul\":1995:1997   */\n      iszero\n      tag_317\n      jumpi\n        /* \"#utility.yul\":2048:2054   */\n      dup1\n        /* \"#utility.yul\":2040:2046   */\n      dup2\n        /* \"#utility.yul\":2033:2055   */\n      revert\n        /* \"#utility.yul\":1995:1997   */\n    tag_317:\n        /* \"#utility.yul\":2085:2094   */\n      dup2\n        /* \"#utility.yul\":2079:2095   */\n      mload\n        /* \"#utility.yul\":2138:2143   */\n      dup1\n        /* \"#utility.yul\":2131:2144   */\n      iszero\n        /* \"#utility.yul\":2124:2145   */\n      iszero\n        /* \"#utility.yul\":2117:2122   */\n      dup2\n        /* \"#utility.yul\":2114:2146   */\n      eq\n        /* \"#utility.yul\":2104:2106   */\n      tag_298\n      jumpi\n        /* \"#utility.yul\":2165:2171   */\n      dup2\n        /* \"#utility.yul\":2157:2163   */\n      dup3\n        /* \"#utility.yul\":2150:2172   */\n      revert\n        /* \"#utility.yul\":2209:2399   */\n    tag_49:\n        /* \"#utility.yul\":2268:2274   */\n      0x00\n        /* \"#utility.yul\":2321:2323   */\n      0x20\n        /* \"#utility.yul\":2309:2318   */\n      dup3\n        /* \"#utility.yul\":2300:2307   */\n      dup5\n        /* \"#utility.yul\":2296:2319   */\n      sub\n        /* \"#utility.yul\":2292:2324   */\n      slt\n        /* \"#utility.yul\":2289:2291   */\n      iszero\n      tag_320\n      jumpi\n        /* \"#utility.yul\":2342:2348   */\n      dup1\n        /* \"#utility.yul\":2334:2340   */\n      dup2\n        /* \"#utility.yul\":2327:2349   */\n      revert\n        /* \"#utility.yul\":2289:2291   */\n    tag_320:\n      pop\n        /* \"#utility.yul\":2370:2393   */\n      calldataload\n      swap2\n        /* \"#utility.yul\":2279:2399   */\n      swap1\n      pop\n      jump\t// out\n        /* \"#utility.yul\":2404:2598   */\n    tag_134:\n        /* \"#utility.yul\":2474:2480   */\n      0x00\n        /* \"#utility.yul\":2527:2529   */\n      0x20\n        /* \"#utility.yul\":2515:2524   */\n      dup3\n        /* \"#utility.yul\":2506:2513   */\n      dup5\n        /* \"#utility.yul\":2502:2525   */\n      sub\n        /* \"#utility.yul\":2498:2530   */\n      slt\n        /* \"#utility.yul\":2495:2497   */\n      iszero\n      tag_322\n      jumpi\n        /* \"#utility.yul\":2548:2554   */\n      dup1\n        /* \"#utility.yul\":2540:2546   */\n      dup2\n        /* \"#utility.yul\":2533:2555   */\n      revert\n        /* \"#utility.yul\":2495:2497   */\n    tag_322:\n      pop\n        /* \"#utility.yul\":2576:2592   */\n      mload\n      swap2\n        /* \"#utility.yul\":2485:2598   */\n      swap1\n      pop\n      jump\t// out\n        /* \"#utility.yul\":2603:3033   */\n    tag_276:\n        /* \"#utility.yul\":2732:2735   */\n      0x00\n        /* \"#utility.yul\":2770:2776   */\n      dup3\n        /* \"#utility.yul\":2764:2777   */\n      mload\n        /* \"#utility.yul\":2795:2798   */\n      dup2\n        /* \"#utility.yul\":2807:2936   */\n    tag_324:\n        /* \"#utility.yul\":2821:2827   */\n      dup2\n        /* \"#utility.yul\":2818:2819   */\n      dup2\n        /* \"#utility.yul\":2815:2828   */\n      lt\n        /* \"#utility.yul\":2807:2936   */\n      iszero\n      tag_326\n      jumpi\n        /* \"#utility.yul\":2919:2923   */\n      0x20\n        /* \"#utility.yul\":2903:2917   */\n      dup2\n      dup7\n      add\n        /* \"#utility.yul\":2899:2924   */\n      dup2\n      add\n        /* \"#utility.yul\":2893:2925   */\n      mload\n        /* \"#utility.yul\":2880:2891   */\n      dup6\n      dup4\n      add\n        /* \"#utility.yul\":2873:2926   */\n      mstore\n        /* \"#utility.yul\":2836:2848   */\n      add\n        /* \"#utility.yul\":2807:2936   */\n      jump(tag_324)\n    tag_326:\n        /* \"#utility.yul\":2954:2960   */\n      dup2\n        /* \"#utility.yul\":2951:2952   */\n      dup2\n        /* \"#utility.yul\":2948:2961   */\n      gt\n        /* \"#utility.yul\":2945:2947   */\n      iszero\n      tag_327\n      jumpi\n        /* \"#utility.yul\":2989:2992   */\n      dup3\n        /* \"#utility.yul\":2980:2986   */\n      dup3\n        /* \"#utility.yul\":2975:2978   */\n      dup6\n        /* \"#utility.yul\":2971:2987   */\n      add\n        /* \"#utility.yul\":2964:2993   */\n      mstore\n        /* \"#utility.yul\":2945:2947   */\n    tag_327:\n      pop\n        /* \"#utility.yul\":3011:3027   */\n      swap2\n      swap1\n      swap2\n      add\n      swap3\n        /* \"#utility.yul\":2740:3033   */\n      swap2\n      pop\n      pop\n      jump\t// out\n        /* \"#utility.yul\":10703:10831   */\n    tag_226:\n        /* \"#utility.yul\":10743:10746   */\n      0x00\n        /* \"#utility.yul\":10774:10775   */\n      dup3\n        /* \"#utility.yul\":10770:10776   */\n      not\n        /* \"#utility.yul\":10767:10768   */\n      dup3\n        /* \"#utility.yul\":10764:10777   */\n      gt\n        /* \"#utility.yul\":10761:10763   */\n      iszero\n      tag_350\n      jumpi\n        /* \"#utility.yul\":10780:10798   */\n      tag_350\n      tag_351\n      jump\t// in\n    tag_350:\n      pop\n        /* \"#utility.yul\":10816:10825   */\n      add\n      swap1\n        /* \"#utility.yul\":10751:10831   */\n      jump\t// out\n        /* \"#utility.yul\":10836:11053   */\n    tag_271:\n        /* \"#utility.yul\":10876:10877   */\n      0x00\n        /* \"#utility.yul\":10902:10903   */\n      dup3\n        /* \"#utility.yul\":10892:10894   */\n      tag_353\n      jumpi\n      shl(0xe0, 0x4e487b71)\n        /* \"#utility.yul\":10927:10958   */\n      dup2\n      mstore\n        /* \"#utility.yul\":10981:10985   */\n      0x12\n        /* \"#utility.yul\":10978:10979   */\n      0x04\n        /* \"#utility.yul\":10971:10986   */\n      mstore\n        /* \"#utility.yul\":11009:11013   */\n      0x24\n        /* \"#utility.yul\":10934:10935   */\n      dup2\n        /* \"#utility.yul\":10999:11014   */\n      revert\n        /* \"#utility.yul\":10892:10894   */\n    tag_353:\n      pop\n        /* \"#utility.yul\":11038:11047   */\n      div\n      swap1\n        /* \"#utility.yul\":10882:11053   */\n      jump\t// out\n        /* \"#utility.yul\":11058:11480   */\n    tag_354:\n        /* \"#utility.yul\":11147:11148   */\n      0x01\n        /* \"#utility.yul\":11190:11195   */\n      dup2\n        /* \"#utility.yul\":11147:11148   */\n      dup2\n        /* \"#utility.yul\":11204:11474   */\n    tag_356:\n        /* \"#utility.yul\":11225:11232   */\n      dup1\n        /* \"#utility.yul\":11215:11223   */\n      dup6\n        /* \"#utility.yul\":11212:11233   */\n      gt\n        /* \"#utility.yul\":11204:11474   */\n      iszero\n      tag_358\n      jumpi\n        /* \"#utility.yul\":11284:11288   */\n      dup2\n        /* \"#utility.yul\":11280:11281   */\n      0x00\n        /* \"#utility.yul\":11276:11282   */\n      not\n        /* \"#utility.yul\":11272:11289   */\n      div\n        /* \"#utility.yul\":11266:11270   */\n      dup3\n        /* \"#utility.yul\":11263:11290   */\n      gt\n        /* \"#utility.yul\":11260:11262   */\n      iszero\n      tag_360\n      jumpi\n        /* \"#utility.yul\":11293:11311   */\n      tag_360\n      tag_351\n      jump\t// in\n    tag_360:\n        /* \"#utility.yul\":11343:11350   */\n      dup1\n        /* \"#utility.yul\":11333:11341   */\n      dup6\n        /* \"#utility.yul\":11329:11351   */\n      and\n        /* \"#utility.yul\":11326:11328   */\n      iszero\n      tag_361\n      jumpi\n        /* \"#utility.yul\":11363:11379   */\n      swap2\n      dup2\n      mul\n      swap2\n        /* \"#utility.yul\":11326:11328   */\n    tag_361:\n        /* \"#utility.yul\":11442:11464   */\n      swap4\n      dup5\n      shr\n      swap4\n        /* \"#utility.yul\":11402:11417   */\n      swap1\n      dup1\n      mul\n      swap1\n        /* \"#utility.yul\":11204:11474   */\n      jump(tag_356)\n    tag_358:\n        /* \"#utility.yul\":11208:11211   */\n      pop\n        /* \"#utility.yul\":11122:11480   */\n      swap3\n      pop\n      swap3\n      swap1\n      pop\n      jump\t// out\n        /* \"#utility.yul\":11485:11616   */\n    tag_136:\n        /* \"#utility.yul\":11545:11550   */\n      0x00\n        /* \"#utility.yul\":11574:11610   */\n      tag_261\n        /* \"#utility.yul\":11601:11609   */\n      dup4\n        /* \"#utility.yul\":11595:11599   */\n      dup4\n        /* \"#utility.yul\":11670:11675   */\n      0x00\n        /* \"#utility.yul\":11700:11708   */\n      dup3\n        /* \"#utility.yul\":11690:11692   */\n      tag_366\n      jumpi\n      pop\n        /* \"#utility.yul\":11741:11742   */\n      0x01\n        /* \"#utility.yul\":11755:11760   */\n      jump(tag_260)\n        /* \"#utility.yul\":11690:11692   */\n    tag_366:\n        /* \"#utility.yul\":11789:11793   */\n      dup2\n        /* \"#utility.yul\":11779:11781   */\n      tag_367\n      jumpi\n      pop\n        /* \"#utility.yul\":11826:11827   */\n      0x00\n        /* \"#utility.yul\":11840:11845   */\n      jump(tag_260)\n        /* \"#utility.yul\":11779:11781   */\n    tag_367:\n        /* \"#utility.yul\":11871:11875   */\n      dup2\n        /* \"#utility.yul\":11889:11890   */\n      0x01\n        /* \"#utility.yul\":11884:11943   */\n      dup2\n      eq\n      tag_369\n      jumpi\n        /* \"#utility.yul\":11957:11958   */\n      0x02\n        /* \"#utility.yul\":11952:12082   */\n      dup2\n      eq\n      tag_370\n      jumpi\n        /* \"#utility.yul\":11864:12082   */\n      jump(tag_368)\n        /* \"#utility.yul\":11884:11943   */\n    tag_369:\n        /* \"#utility.yul\":11914:11915   */\n      0x01\n        /* \"#utility.yul\":11905:11915   */\n      swap2\n      pop\n        /* \"#utility.yul\":11928:11933   */\n      pop\n      jump(tag_260)\n        /* \"#utility.yul\":11952:12082   */\n    tag_370:\n        /* \"#utility.yul\":11989:11992   */\n      0xff\n        /* \"#utility.yul\":11979:11987   */\n      dup5\n        /* \"#utility.yul\":11976:11993   */\n      gt\n        /* \"#utility.yul\":11973:11975   */\n      iszero\n      tag_372\n      jumpi\n        /* \"#utility.yul\":11996:12014   */\n      tag_372\n      tag_351\n      jump\t// in\n    tag_372:\n      pop\n      pop\n        /* \"#utility.yul\":12052:12053   */\n      0x01\n        /* \"#utility.yul\":12038:12054   */\n      dup3\n      shl\n        /* \"#utility.yul\":12067:12072   */\n      jump(tag_260)\n        /* \"#utility.yul\":11864:12082   */\n    tag_368:\n      pop\n        /* \"#utility.yul\":12166:12168   */\n      0x20\n        /* \"#utility.yul\":12156:12164   */\n      dup4\n        /* \"#utility.yul\":12153:12169   */\n      lt\n        /* \"#utility.yul\":12147:12150   */\n      0x0133\n        /* \"#utility.yul\":12141:12145   */\n      dup4\n        /* \"#utility.yul\":12138:12151   */\n      lt\n        /* \"#utility.yul\":12134:12170   */\n      and\n        /* \"#utility.yul\":12128:12130   */\n      0x4e\n        /* \"#utility.yul\":12118:12126   */\n      dup5\n        /* \"#utility.yul\":12115:12131   */\n      lt\n        /* \"#utility.yul\":12110:12112   */\n      0x0b\n        /* \"#utility.yul\":12104:12108   */\n      dup5\n        /* \"#utility.yul\":12101:12113   */\n      lt\n        /* \"#utility.yul\":12097:12132   */\n      and\n        /* \"#utility.yul\":12094:12171   */\n      or\n        /* \"#utility.yul\":12091:12093   */\n      iszero\n      tag_373\n      jumpi\n      pop\n        /* \"#utility.yul\":12203:12222   */\n      dup2\n      dup2\n      exp\n        /* \"#utility.yul\":12235:12240   */\n      jump(tag_260)\n        /* \"#utility.yul\":12091:12093   */\n    tag_373:\n        /* \"#utility.yul\":12282:12316   */\n      tag_374\n        /* \"#utility.yul\":12307:12315   */\n      dup4\n        /* \"#utility.yul\":12301:12305   */\n      dup4\n        /* \"#utility.yul\":12282:12316   */\n      tag_354\n      jump\t// in\n    tag_374:\n        /* \"#utility.yul\":12352:12358   */\n      dup1\n        /* \"#utility.yul\":12348:12349   */\n      0x00\n        /* \"#utility.yul\":12344:12350   */\n      not\n        /* \"#utility.yul\":12340:12359   */\n      div\n        /* \"#utility.yul\":12331:12338   */\n      dup3\n        /* \"#utility.yul\":12328:12360   */\n      gt\n        /* \"#utility.yul\":12325:12327   */\n      iszero\n      tag_376\n      jumpi\n        /* \"#utility.yul\":12363:12381   */\n      tag_376\n      tag_351\n      jump\t// in\n    tag_376:\n        /* \"#utility.yul\":12401:12421   */\n      mul\n      swap4\n        /* \"#utility.yul\":11680:12427   */\n      swap3\n      pop\n      pop\n      pop\n      jump\t// out\n        /* \"#utility.yul\":12432:12600   */\n    tag_139:\n        /* \"#utility.yul\":12472:12479   */\n      0x00\n        /* \"#utility.yul\":12538:12539   */\n      dup2\n        /* \"#utility.yul\":12534:12535   */\n      0x00\n        /* \"#utility.yul\":12530:12536   */\n      not\n        /* \"#utility.yul\":12526:12540   */\n      div\n        /* \"#utility.yul\":12523:12524   */\n      dup4\n        /* \"#utility.yul\":12520:12541   */\n      gt\n        /* \"#utility.yul\":12515:12516   */\n      dup3\n        /* \"#utility.yul\":12508:12517   */\n      iszero\n        /* \"#utility.yul\":12501:12518   */\n      iszero\n        /* \"#utility.yul\":12497:12542   */\n      and\n        /* \"#utility.yul\":12494:12496   */\n      iszero\n      tag_379\n      jumpi\n        /* \"#utility.yul\":12545:12563   */\n      tag_379\n      tag_351\n      jump\t// in\n    tag_379:\n      pop\n        /* \"#utility.yul\":12585:12594   */\n      mul\n      swap1\n        /* \"#utility.yul\":12484:12600   */\n      jump\t// out\n        /* \"#utility.yul\":12605:12730   */\n    tag_126:\n        /* \"#utility.yul\":12645:12649   */\n      0x00\n        /* \"#utility.yul\":12673:12674   */\n      dup3\n        /* \"#utility.yul\":12670:12671   */\n      dup3\n        /* \"#utility.yul\":12667:12675   */\n      lt\n        /* \"#utility.yul\":12664:12666   */\n      iszero\n      tag_382\n      jumpi\n        /* \"#utility.yul\":12678:12696   */\n      tag_382\n      tag_351\n      jump\t// in\n    tag_382:\n      pop\n        /* \"#utility.yul\":12715:12724   */\n      sub\n      swap1\n        /* \"#utility.yul\":12654:12730   */\n      jump\t// out\n        /* \"#utility.yul\":12735:12870   */\n    tag_231:\n        /* \"#utility.yul\":12774:12777   */\n      0x00\n      not(0x00)\n        /* \"#utility.yul\":12795:12812   */\n      dup3\n      eq\n        /* \"#utility.yul\":12792:12794   */\n      iszero\n      tag_385\n      jumpi\n        /* \"#utility.yul\":12815:12833   */\n      tag_385\n      tag_351\n      jump\t// in\n    tag_385:\n      pop\n        /* \"#utility.yul\":12862:12863   */\n      0x01\n        /* \"#utility.yul\":12851:12864   */\n      add\n      swap1\n        /* \"#utility.yul\":12782:12870   */\n      jump\t// out\n        /* \"#utility.yul\":12875:13002   */\n    tag_351:\n        /* \"#utility.yul\":12936:12946   */\n      0x4e487b71\n        /* \"#utility.yul\":12931:12934   */\n      0xe0\n        /* \"#utility.yul\":12927:12947   */\n      shl\n        /* \"#utility.yul\":12924:12925   */\n      0x00\n        /* \"#utility.yul\":12917:12948   */\n      mstore\n        /* \"#utility.yul\":12967:12971   */\n      0x11\n        /* \"#utility.yul\":12964:12965   */\n      0x04\n        /* \"#utility.yul\":12957:12972   */\n      mstore\n        /* \"#utility.yul\":12991:12995   */\n      0x24\n        /* \"#utility.yul\":12988:12989   */\n      0x00\n        /* \"#utility.yul\":12981:12996   */\n      revert\n        /* \"#utility.yul\":13007:13134   */\n    tag_308:\n        /* \"#utility.yul\":13068:13078   */\n      0x4e487b71\n        /* \"#utility.yul\":13063:13066   */\n      0xe0\n        /* \"#utility.yul\":13059:13079   */\n      shl\n        /* \"#utility.yul\":13056:13057   */\n      0x00\n        /* \"#utility.yul\":13049:13080   */\n      mstore\n        /* \"#utility.yul\":13099:13103   */\n      0x41\n        /* \"#utility.yul\":13096:13097   */\n      0x04\n        /* \"#utility.yul\":13089:13104   */\n      mstore\n        /* \"#utility.yul\":13123:13127   */\n      0x24\n        /* \"#utility.yul\":13120:13121   */\n      0x00\n        /* \"#utility.yul\":13113:13128   */\n      revert\n        /* \"#utility.yul\":13139:13270   */\n    tag_299:\n      sub(shl(0xa0, 0x01), 0x01)\n        /* \"#utility.yul\":13214:13245   */\n      dup2\n      and\n        /* \"#utility.yul\":13204:13246   */\n      dup2\n      eq\n        /* \"#utility.yul\":13194:13196   */\n      tag_165\n      jumpi\n        /* \"#utility.yul\":13260:13261   */\n      0x00\n        /* \"#utility.yul\":13257:13258   */\n      dup1\n        /* \"#utility.yul\":13250:13262   */\n      revert\n\n    auxdata: 0xa264697066735822122048148ea6c5223ee7d79cec22d7c62079601dd0653a456f3f343045394d63c52264736f6c63430008040033\n}\n",
				"bytecode": {
					"linkReferences": {},
					"object": "608060405260016000556200001433620000a5565b6017805473c778417e063141139fce010982780140aa0cd5ab6001600160a01b0319909116179055620000696019736ccb41eeda5a073076f3e7dc1614c185b5fa41ed620000f7602090811b62000ed017901c565b5062000099734f0b12bbf40fc182559822a5b1db6d34dbc3e0166019620000f760201b62000ed01790919060201c565b50601460185562000169565b600180546001600160a01b038381166001600160a01b0319831681179093556040519116919082907f8be0079c531659141344cd1fd0a4f28419497f9722a3daafe3b4186f6b6457e090600090a35050565b60006200010e836001600160a01b03841662000117565b90505b92915050565b6000818152600183016020526040812054620001605750815460018181018455600084815260208082209093018490558454848252828601909352604090209190915562000111565b50600062000111565b61148780620001796000396000f3fe6080604052600436106101145760003560e01c8063861faf5f116100a0578063b6b55f2511610064578063b6b55f251461038b578063cad5b0f71461039e578063e2d3f423146103c3578063f2fde38b1461044a578063f8b2cb4f1461046a57600080fd5b8063861faf5f146102c45780638da5cb5b146102cc578063ab33985a146102fe578063acfb235514610313578063ad5c46481461036b57600080fd5b80633b5ef2ad116100e75780633b5ef2ad146102395780634329db461461024f57806356c5f3491461026257806361e176551461028f578063715018a6146102af57600080fd5b806318856a2f14610119578063194c1a98146101de5780631df4ccfc14610200578063200d2ed214610224575b600080fd5b34801561012557600080fd5b50600b54600c54600d54600e54600f5460105460115460125460135460145460155460165461016d9b6001600160a01b039081169b81169a16989796959493929160ff16908c565b604080516001600160a01b039d8e1681529b8d1660208d015299909b16988a01989098526060890196909652608088019490945260a087019290925260c086015260e08501526101008401526101208301521515610140820152610160810191909152610180015b60405180910390f35b3480156101ea57600080fd5b506101fe6101f93660046111e8565b610492565b005b34801561020c57600080fd5b50610216601b5481565b6040519081526020016101d5565b34801561023057600080fd5b50610216610527565b34801561024557600080fd5b5061021660185481565b6101fe61025d366004611233565b610550565b34801561026e57600080fd5b5061021661027d366004611105565b60036020526000908152604090205481565b34801561029b57600080fd5b506101fe6102aa366004611128565b61058a565b3480156102bb57600080fd5b506101fe61074a565b6101fe6107b5565b3480156102d857600080fd5b506001546001600160a01b03165b6040516001600160a01b0390911681526020016101d5565b34801561030a57600080fd5b506101fe6107e4565b34801561031f57600080fd5b5060045460055460065460075460085460095461033e95949392919086565b604080519687526020870195909552938501929092526060840152608083015260a082015260c0016101d5565b34801561037757600080fd5b506017546102e6906001600160a01b031681565b6101fe610399366004611233565b610a2b565b3480156103aa57600080fd5b506103b3610df6565b60405190151581526020016101d5565b3480156103cf57600080fd5b506104196103de366004611105565b600260208190526000918252604090912080546001820154928201546003830154600490930154919392909160ff8082169161010090041686565b60408051968752602087019590955293850192909252606084015215156080830152151560a082015260c0016101d5565b34801561045657600080fd5b506101fe610465366004611105565b610e08565b34801561047657600080fd5b50610216610485366004611105565b6001600160a01b03163190565b6001600160a01b03821663095ea7b3336040516001600160e01b031960e084901b1681526001600160a01b03909116600482015260248101849052604401602060405180830381600087803b1580156104ea57600080fd5b505af11580156104fe573d6000803e3d6000fd5b505050506040513d601f19601f820116820180604052508101906105229190611213565b505050565b600f5460009042101561053a5750600090565b60105442111561054a5750600290565b50600190565b336108fc61055e83346113de565b6040518115909202916000818181858888f19350505050158015610586573d6000803e3d6000fd5b5050565b600b80546001600160a01b038087166001600160a01b031992831617909255600c80548684169083168117909155600d8054938616939092169290921790556040805163313ce56760e01b8152905163313ce56791600480820192602092909190829003018186803b1580156105ff57600080fd5b505afa158015610613573d6000803e3d6000fd5b505050506040513d601f19601f82011682018060405250810190610637919061124b565b61064290600a611317565b815161064e91906113bf565b600e55602080820151600f556040808301516010556060830151601155600d54815163313ce56760e01b815291516001600160a01b039091169263313ce5679260048082019391829003018186803b1580156106a957600080fd5b505afa1580156106bd573d6000803e3d6000fd5b505050506040513d601f19601f820116820180604052508101906106e1919061124b565b6106ec90600a611317565b60808201516106fb91906113bf565b60125560a081015160135560c0810151601455600d54601754601580546001600160a01b03938416939092169290921460ff19909116179055600e546107419080610eee565b60165550505050565b6001546001600160a01b031633146107a95760405162461bcd60e51b815260206004820181905260248201527f4f776e61626c653a2063616c6c6572206973206e6f7420746865206f776e657260448201526064015b60405180910390fd5b6107b36000610efa565b565b60405133904780156108fc02916000818181858888f193505050501580156107e1573d6000803e3d6000fd5b50565b600260005414156108375760405162461bcd60e51b815260206004820152601f60248201527f5265656e7472616e637947756172643a207265656e7472616e742063616c6c0060448201526064016107a0565b6002600055610844610527565b6001146108825760405162461bcd60e51b815260206004820152600c60248201526b53616c65207375636573737360a01b60448201526064016107a0565b600654600554600091610894916113de565b116108e15760405162461bcd60e51b815260206004820152601b60248201527f416c6c20746f6b656e20686173206265656e207769746864726177000000000060448201526064016107a0565b33600090815260026020526040902060018101546109515760405162461bcd60e51b815260206004820152602760248201527f596f7520776974686472617720616c6c206f722068617665206e6f7420626f7560448201526619da1d081e595d60ca1b60648201526084016107a0565b60006109876103e8610981846001015461097b600b600901546103e8610f4c90919063ffffffff16565b90610eee565b90610f58565b9050600081836001015461099b91906113de565b600c5460405163a9059cbb60e01b8152336004820152602481018590529192506001600160a01b03169063a9059cbb90604401602060405180830381600087803b1580156109e857600080fd5b505af11580156109fc573d6000803e3d6000fd5b505050506040513d601f19601f82011682018060405250810190610a209190611213565b505060016000555050565b60026000541415610a7e5760405162461bcd60e51b815260206004820152601f60248201527f5265656e7472616e637947756172643a207265656e7472616e742063616c6c0060448201526064016107a0565b6002600055610a8b610527565b600114610ac75760405162461bcd60e51b815260206004820152600a6024820152694e6f742061637469766560b01b60448201526064016107a0565b336000908152600260205260408120601154909183918291906103e890831015610b265760405162461bcd60e51b815260206004820152601060248201526f4e6f7420656e6f7567682076616c756560801b60448201526064016107a0565b601254831115610b695760405162461bcd60e51b815260206004820152600e60248201526d4f766572666c6f772076616c756560901b60448201526064016107a0565b610b71610df6565b610ba157610b92816109818561097b60185486610f4c90919063ffffffff16565b9250610b9e83856113de565b91505b600454601254600091610bb3916113de565b905060008111610bf75760405162461bcd60e51b815260206004820152600f60248201526e53616c65206973205375636365737360881b60448201526064016107a0565b6000610c9e600b60020160009054906101000a90046001600160a01b03166001600160a01b031663313ce5676040518163ffffffff1660e01b815260040160206040518083038186803b158015610c4d57600080fd5b505afa158015610c61573d6000803e3d6000fd5b505050506040513d601f19601f82011682018060405250810190610c85919061124b565b610c9090600a611317565b600e54610981908890610eee565b905085876000016000828254610cb4919061129c565b9250508190555080876001016000828254610ccf919061129c565b909155505060048054869190600090610ce990849061129c565b909155505060058054829190600090610d0390849061129c565b909155505060088054906000610d18836113f5565b90915550503360009081526003602052604081208054869290610d3c90849061129c565b9250508190555083601b6000828254610d55919061129c565b909155505060155460ff168015610d74575034610d72858761129c565b105b15610dbc57336108fc85610d8888346113de565b610d9291906113de565b6040518115909202916000818181858888f19350505050158015610dba573d6000803e3d6000fd5b505b60155460ff16610de757600d54610de7906001600160a01b03163330610de2888a61129c565b610f64565b50506001600055505050505050565b6000610e03601933611094565b905090565b6001546001600160a01b03163314610e625760405162461bcd60e51b815260206004820181905260248201527f4f776e61626c653a2063616c6c6572206973206e6f7420746865206f776e657260448201526064016107a0565b6001600160a01b038116610ec75760405162461bcd60e51b815260206004820152602660248201527f4f776e61626c653a206e6577206f776e657220697320746865207a65726f206160448201526564647265737360d01b60648201526084016107a0565b6107e181610efa565b6000610ee5836001600160a01b0384166110b6565b90505b92915050565b6000610ee582846113bf565b600180546001600160a01b038381166001600160a01b0319831681179093556040519116919082907f8be0079c531659141344cd1fd0a4f28419497f9722a3daafe3b4186f6b6457e090600090a35050565b6000610ee582846113de565b6000610ee582846112b4565b604080516001600160a01b0385811660248301528481166044830152606480830185905283518084039091018152608490920183526020820180516001600160e01b03166323b872dd60e01b1790529151600092839290881691610fc89190611263565b6000604051808303816000865af19150503d8060008114611005576040519150601f19603f3d011682016040523d82523d6000602084013e61100a565b606091505b50915091508180156110345750805115806110345750808060200190518101906110349190611213565b61108c5760405162461bcd60e51b8152602060048201526024808201527f5472616e7366657248656c7065723a205452414e534645525f46524f4d5f46416044820152631253115160e21b60648201526084016107a0565b505050505050565b6001600160a01b03811660009081526001830160205260408120541515610ee5565b60008181526001830160205260408120546110fd57508154600181810184556000848152602080822090930184905584548482528286019093526040902091909155610ee8565b506000610ee8565b600060208284031215611116578081fd5b81356111218161143c565b9392505050565b60008060008061014080868803121561113f578384fd5b853561114a8161143c565b945060208681013561115b8161143c565b9450604087013561116b8161143c565b9350607f8701881361117b578283fd5b60405160e0810181811067ffffffffffffffff8211171561119e5761119e611426565b6040528060608901848a018b10156111b4578586fd5b8594505b60078510156111d75780358252600194909401939083019083016111b8565b505080935050505092959194509250565b600080604083850312156111fa578182fd5b82356112058161143c565b946020939093013593505050565b600060208284031215611224578081fd5b81518015158114611121578182fd5b600060208284031215611244578081fd5b5035919050565b60006020828403121561125c578081fd5b5051919050565b60008251815b818110156112835760208186018101518583015201611269565b818111156112915782828501525b509190910192915050565b600082198211156112af576112af611410565b500190565b6000826112cf57634e487b7160e01b81526012600452602481fd5b500490565b600181815b8085111561130f5781600019048211156112f5576112f5611410565b8085161561130257918102915b93841c93908002906112d9565b509250929050565b6000610ee5838360008261132d57506001610ee8565b8161133a57506000610ee8565b8160018114611350576002811461135a57611376565b6001915050610ee8565b60ff84111561136b5761136b611410565b50506001821b610ee8565b5060208310610133831016604e8410600b8410161715611399575081810a610ee8565b6113a383836112d4565b80600019048211156113b7576113b7611410565b029392505050565b60008160001904831182151516156113d9576113d9611410565b500290565b6000828210156113f0576113f0611410565b500390565b600060001982141561140957611409611410565b5060010190565b634e487b7160e01b600052601160045260246000fd5b634e487b7160e01b600052604160045260246000fd5b6001600160a01b03811681146107e157600080fdfea264697066735822122048148ea6c5223ee7d79cec22d7c62079601dd0653a456f3f343045394d63c52264736f6c63430008040033",
					"opcodes": "PUSH1 0x80 PUSH1 0x40 MSTORE PUSH1 0x1 PUSH1 0x0 SSTORE PUSH3 0x14 CALLER PUSH3 0xA5 JUMP JUMPDEST PUSH1 0x17 DUP1 SLOAD PUSH20 0xC778417E063141139FCE010982780140AA0CD5AB PUSH1 0x1 PUSH1 0x1 PUSH1 0xA0 SHL SUB NOT SWAP1 SWAP2 AND OR SWAP1 SSTORE PUSH3 0x69 PUSH1 0x19 PUSH20 0x6CCB41EEDA5A073076F3E7DC1614C185B5FA41ED PUSH3 0xF7 PUSH1 0x20 SWAP1 DUP2 SHL PUSH3 0xED0 OR SWAP1 SHR JUMP JUMPDEST POP PUSH3 0x99 PUSH20 0x4F0B12BBF40FC182559822A5B1DB6D34DBC3E016 PUSH1 0x19 PUSH3 0xF7 PUSH1 0x20 SHL PUSH3 0xED0 OR SWAP1 SWAP2 SWAP1 PUSH1 0x20 SHR JUMP JUMPDEST POP PUSH1 0x14 PUSH1 0x18 SSTORE PUSH3 0x169 JUMP JUMPDEST PUSH1 0x1 DUP1 SLOAD PUSH1 0x1 PUSH1 0x1 PUSH1 0xA0 SHL SUB DUP4 DUP2 AND PUSH1 0x1 PUSH1 0x1 PUSH1 0xA0 SHL SUB NOT DUP4 AND DUP2 OR SWAP1 SWAP4 SSTORE PUSH1 0x40 MLOAD SWAP2 AND SWAP2 SWAP1 DUP3 SWAP1 PUSH32 0x8BE0079C531659141344CD1FD0A4F28419497F9722A3DAAFE3B4186F6B6457E0 SWAP1 PUSH1 0x0 SWAP1 LOG3 POP POP JUMP JUMPDEST PUSH1 0x0 PUSH3 0x10E DUP4 PUSH1 0x1 PUSH1 0x1 PUSH1 0xA0 SHL SUB DUP5 AND PUSH3 0x117 JUMP JUMPDEST SWAP1 POP JUMPDEST SWAP3 SWAP2 POP POP JUMP JUMPDEST PUSH1 0x0 DUP2 DUP2 MSTORE PUSH1 0x1 DUP4 ADD PUSH1 0x20 MSTORE PUSH1 0x40 DUP2 KECCAK256 SLOAD PUSH3 0x160 JUMPI POP DUP2 SLOAD PUSH1 0x1 DUP2 DUP2 ADD DUP5 SSTORE PUSH1 0x0 DUP5 DUP2 MSTORE PUSH1 0x20 DUP1 DUP3 KECCAK256 SWAP1 SWAP4 ADD DUP5 SWAP1 SSTORE DUP5 SLOAD DUP5 DUP3 MSTORE DUP3 DUP7 ADD SWAP1 SWAP4 MSTORE PUSH1 0x40 SWAP1 KECCAK256 SWAP2 SWAP1 SWAP2 SSTORE PUSH3 0x111 JUMP JUMPDEST POP PUSH1 0x0 PUSH3 0x111 JUMP JUMPDEST PUSH2 0x1487 DUP1 PUSH3 0x179 PUSH1 0x0 CODECOPY PUSH1 0x0 RETURN INVALID PUSH1 0x80 PUSH1 0x40 MSTORE PUSH1 0x4 CALLDATASIZE LT PUSH2 0x114 JUMPI PUSH1 0x0 CALLDATALOAD PUSH1 0xE0 SHR DUP1 PUSH4 0x861FAF5F GT PUSH2 0xA0 JUMPI DUP1 PUSH4 0xB6B55F25 GT PUSH2 0x64 JUMPI DUP1 PUSH4 0xB6B55F25 EQ PUSH2 0x38B JUMPI DUP1 PUSH4 0xCAD5B0F7 EQ PUSH2 0x39E JUMPI DUP1 PUSH4 0xE2D3F423 EQ PUSH2 0x3C3 JUMPI DUP1 PUSH4 0xF2FDE38B EQ PUSH2 0x44A JUMPI DUP1 PUSH4 0xF8B2CB4F EQ PUSH2 0x46A JUMPI PUSH1 0x0 DUP1 REVERT JUMPDEST DUP1 PUSH4 0x861FAF5F EQ PUSH2 0x2C4 JUMPI DUP1 PUSH4 0x8DA5CB5B EQ PUSH2 0x2CC JUMPI DUP1 PUSH4 0xAB33985A EQ PUSH2 0x2FE JUMPI DUP1 PUSH4 0xACFB2355 EQ PUSH2 0x313 JUMPI DUP1 PUSH4 0xAD5C4648 EQ PUSH2 0x36B JUMPI PUSH1 0x0 DUP1 REVERT JUMPDEST DUP1 PUSH4 0x3B5EF2AD GT PUSH2 0xE7 JUMPI DUP1 PUSH4 0x3B5EF2AD EQ PUSH2 0x239 JUMPI DUP1 PUSH4 0x4329DB46 EQ PUSH2 0x24F JUMPI DUP1 PUSH4 0x56C5F349 EQ PUSH2 0x262 JUMPI DUP1 PUSH4 0x61E17655 EQ PUSH2 0x28F JUMPI DUP1 PUSH4 0x715018A6 EQ PUSH2 0x2AF JUMPI PUSH1 0x0 DUP1 REVERT JUMPDEST DUP1 PUSH4 0x18856A2F EQ PUSH2 0x119 JUMPI DUP1 PUSH4 0x194C1A98 EQ PUSH2 0x1DE JUMPI DUP1 PUSH4 0x1DF4CCFC EQ PUSH2 0x200 JUMPI DUP1 PUSH4 0x200D2ED2 EQ PUSH2 0x224 JUMPI JUMPDEST PUSH1 0x0 DUP1 REVERT JUMPDEST CALLVALUE DUP1 ISZERO PUSH2 0x125 JUMPI PUSH1 0x0 DUP1 REVERT JUMPDEST POP PUSH1 0xB SLOAD PUSH1 0xC SLOAD PUSH1 0xD SLOAD PUSH1 0xE SLOAD PUSH1 0xF SLOAD PUSH1 0x10 SLOAD PUSH1 0x11 SLOAD PUSH1 0x12 SLOAD PUSH1 0x13 SLOAD PUSH1 0x14 SLOAD PUSH1 0x15 SLOAD PUSH1 0x16 SLOAD PUSH2 0x16D SWAP12 PUSH1 0x1 PUSH1 0x1 PUSH1 0xA0 SHL SUB SWAP1 DUP2 AND SWAP12 DUP2 AND SWAP11 AND SWAP9 SWAP8 SWAP7 SWAP6 SWAP5 SWAP4 SWAP3 SWAP2 PUSH1 0xFF AND SWAP1 DUP13 JUMP JUMPDEST PUSH1 0x40 DUP1 MLOAD PUSH1 0x1 PUSH1 0x1 PUSH1 0xA0 SHL SUB SWAP14 DUP15 AND DUP2 MSTORE SWAP12 DUP14 AND PUSH1 0x20 DUP14 ADD MSTORE SWAP10 SWAP1 SWAP12 AND SWAP9 DUP11 ADD SWAP9 SWAP1 SWAP9 MSTORE PUSH1 0x60 DUP10 ADD SWAP7 SWAP1 SWAP7 MSTORE PUSH1 0x80 DUP9 ADD SWAP5 SWAP1 SWAP5 MSTORE PUSH1 0xA0 DUP8 ADD SWAP3 SWAP1 SWAP3 MSTORE PUSH1 0xC0 DUP7 ADD MSTORE PUSH1 0xE0 DUP6 ADD MSTORE PUSH2 0x100 DUP5 ADD MSTORE PUSH2 0x120 DUP4 ADD MSTORE ISZERO ISZERO PUSH2 0x140 DUP3 ADD MSTORE PUSH2 0x160 DUP2 ADD SWAP2 SWAP1 SWAP2 MSTORE PUSH2 0x180 ADD JUMPDEST PUSH1 0x40 MLOAD DUP1 SWAP2 SUB SWAP1 RETURN JUMPDEST CALLVALUE DUP1 ISZERO PUSH2 0x1EA JUMPI PUSH1 0x0 DUP1 REVERT JUMPDEST POP PUSH2 0x1FE PUSH2 0x1F9 CALLDATASIZE PUSH1 0x4 PUSH2 0x11E8 JUMP JUMPDEST PUSH2 0x492 JUMP JUMPDEST STOP JUMPDEST CALLVALUE DUP1 ISZERO PUSH2 0x20C JUMPI PUSH1 0x0 DUP1 REVERT JUMPDEST POP PUSH2 0x216 PUSH1 0x1B SLOAD DUP2 JUMP JUMPDEST PUSH1 0x40 MLOAD SWAP1 DUP2 MSTORE PUSH1 0x20 ADD PUSH2 0x1D5 JUMP JUMPDEST CALLVALUE DUP1 ISZERO PUSH2 0x230 JUMPI PUSH1 0x0 DUP1 REVERT JUMPDEST POP PUSH2 0x216 PUSH2 0x527 JUMP JUMPDEST CALLVALUE DUP1 ISZERO PUSH2 0x245 JUMPI PUSH1 0x0 DUP1 REVERT JUMPDEST POP PUSH2 0x216 PUSH1 0x18 SLOAD DUP2 JUMP JUMPDEST PUSH2 0x1FE PUSH2 0x25D CALLDATASIZE PUSH1 0x4 PUSH2 0x1233 JUMP JUMPDEST PUSH2 0x550 JUMP JUMPDEST CALLVALUE DUP1 ISZERO PUSH2 0x26E JUMPI PUSH1 0x0 DUP1 REVERT JUMPDEST POP PUSH2 0x216 PUSH2 0x27D CALLDATASIZE PUSH1 0x4 PUSH2 0x1105 JUMP JUMPDEST PUSH1 0x3 PUSH1 0x20 MSTORE PUSH1 0x0 SWAP1 DUP2 MSTORE PUSH1 0x40 SWAP1 KECCAK256 SLOAD DUP2 JUMP JUMPDEST CALLVALUE DUP1 ISZERO PUSH2 0x29B JUMPI PUSH1 0x0 DUP1 REVERT JUMPDEST POP PUSH2 0x1FE PUSH2 0x2AA CALLDATASIZE PUSH1 0x4 PUSH2 0x1128 JUMP JUMPDEST PUSH2 0x58A JUMP JUMPDEST CALLVALUE DUP1 ISZERO PUSH2 0x2BB JUMPI PUSH1 0x0 DUP1 REVERT JUMPDEST POP PUSH2 0x1FE PUSH2 0x74A JUMP JUMPDEST PUSH2 0x1FE PUSH2 0x7B5 JUMP JUMPDEST CALLVALUE DUP1 ISZERO PUSH2 0x2D8 JUMPI PUSH1 0x0 DUP1 REVERT JUMPDEST POP PUSH1 0x1 SLOAD PUSH1 0x1 PUSH1 0x1 PUSH1 0xA0 SHL SUB AND JUMPDEST PUSH1 0x40 MLOAD PUSH1 0x1 PUSH1 0x1 PUSH1 0xA0 SHL SUB SWAP1 SWAP2 AND DUP2 MSTORE PUSH1 0x20 ADD PUSH2 0x1D5 JUMP JUMPDEST CALLVALUE DUP1 ISZERO PUSH2 0x30A JUMPI PUSH1 0x0 DUP1 REVERT JUMPDEST POP PUSH2 0x1FE PUSH2 0x7E4 JUMP JUMPDEST CALLVALUE DUP1 ISZERO PUSH2 0x31F JUMPI PUSH1 0x0 DUP1 REVERT JUMPDEST POP PUSH1 0x4 SLOAD PUSH1 0x5 SLOAD PUSH1 0x6 SLOAD PUSH1 0x7 SLOAD PUSH1 0x8 SLOAD PUSH1 0x9 SLOAD PUSH2 0x33E SWAP6 SWAP5 SWAP4 SWAP3 SWAP2 SWAP1 DUP7 JUMP JUMPDEST PUSH1 0x40 DUP1 MLOAD SWAP7 DUP8 MSTORE PUSH1 0x20 DUP8 ADD SWAP6 SWAP1 SWAP6 MSTORE SWAP4 DUP6 ADD SWAP3 SWAP1 SWAP3 MSTORE PUSH1 0x60 DUP5 ADD MSTORE PUSH1 0x80 DUP4 ADD MSTORE PUSH1 0xA0 DUP3 ADD MSTORE PUSH1 0xC0 ADD PUSH2 0x1D5 JUMP JUMPDEST CALLVALUE DUP1 ISZERO PUSH2 0x377 JUMPI PUSH1 0x0 DUP1 REVERT JUMPDEST POP PUSH1 0x17 SLOAD PUSH2 0x2E6 SWAP1 PUSH1 0x1 PUSH1 0x1 PUSH1 0xA0 SHL SUB AND DUP2 JUMP JUMPDEST PUSH2 0x1FE PUSH2 0x399 CALLDATASIZE PUSH1 0x4 PUSH2 0x1233 JUMP JUMPDEST PUSH2 0xA2B JUMP JUMPDEST CALLVALUE DUP1 ISZERO PUSH2 0x3AA JUMPI PUSH1 0x0 DUP1 REVERT JUMPDEST POP PUSH2 0x3B3 PUSH2 0xDF6 JUMP JUMPDEST PUSH1 0x40 MLOAD SWAP1 ISZERO ISZERO DUP2 MSTORE PUSH1 0x20 ADD PUSH2 0x1D5 JUMP JUMPDEST CALLVALUE DUP1 ISZERO PUSH2 0x3CF JUMPI PUSH1 0x0 DUP1 REVERT JUMPDEST POP PUSH2 0x419 PUSH2 0x3DE CALLDATASIZE PUSH1 0x4 PUSH2 0x1105 JUMP JUMPDEST PUSH1 0x2 PUSH1 0x20 DUP2 SWAP1 MSTORE PUSH1 0x0 SWAP2 DUP3 MSTORE PUSH1 0x40 SWAP1 SWAP2 KECCAK256 DUP1 SLOAD PUSH1 0x1 DUP3 ADD SLOAD SWAP3 DUP3 ADD SLOAD PUSH1 0x3 DUP4 ADD SLOAD PUSH1 0x4 SWAP1 SWAP4 ADD SLOAD SWAP2 SWAP4 SWAP3 SWAP1 SWAP2 PUSH1 0xFF DUP1 DUP3 AND SWAP2 PUSH2 0x100 SWAP1 DIV AND DUP7 JUMP JUMPDEST PUSH1 0x40 DUP1 MLOAD SWAP7 DUP8 MSTORE PUSH1 0x20 DUP8 ADD SWAP6 SWAP1 SWAP6 MSTORE SWAP4 DUP6 ADD SWAP3 SWAP1 SWAP3 MSTORE PUSH1 0x60 DUP5 ADD MSTORE ISZERO ISZERO PUSH1 0x80 DUP4 ADD MSTORE ISZERO ISZERO PUSH1 0xA0 DUP3 ADD MSTORE PUSH1 0xC0 ADD PUSH2 0x1D5 JUMP JUMPDEST CALLVALUE DUP1 ISZERO PUSH2 0x456 JUMPI PUSH1 0x0 DUP1 REVERT JUMPDEST POP PUSH2 0x1FE PUSH2 0x465 CALLDATASIZE PUSH1 0x4 PUSH2 0x1105 JUMP JUMPDEST PUSH2 0xE08 JUMP JUMPDEST CALLVALUE DUP1 ISZERO PUSH2 0x476 JUMPI PUSH1 0x0 DUP1 REVERT JUMPDEST POP PUSH2 0x216 PUSH2 0x485 CALLDATASIZE PUSH1 0x4 PUSH2 0x1105 JUMP JUMPDEST PUSH1 0x1 PUSH1 0x1 PUSH1 0xA0 SHL SUB AND BALANCE SWAP1 JUMP JUMPDEST PUSH1 0x1 PUSH1 0x1 PUSH1 0xA0 SHL SUB DUP3 AND PUSH4 0x95EA7B3 CALLER PUSH1 0x40 MLOAD PUSH1 0x1 PUSH1 0x1 PUSH1 0xE0 SHL SUB NOT PUSH1 0xE0 DUP5 SWAP1 SHL AND DUP2 MSTORE PUSH1 0x1 PUSH1 0x1 PUSH1 0xA0 SHL SUB SWAP1 SWAP2 AND PUSH1 0x4 DUP3 ADD MSTORE PUSH1 0x24 DUP2 ADD DUP5 SWAP1 MSTORE PUSH1 0x44 ADD PUSH1 0x20 PUSH1 0x40 MLOAD DUP1 DUP4 SUB DUP2 PUSH1 0x0 DUP8 DUP1 EXTCODESIZE ISZERO DUP1 ISZERO PUSH2 0x4EA JUMPI PUSH1 0x0 DUP1 REVERT JUMPDEST POP GAS CALL ISZERO DUP1 ISZERO PUSH2 0x4FE JUMPI RETURNDATASIZE PUSH1 0x0 DUP1 RETURNDATACOPY RETURNDATASIZE PUSH1 0x0 REVERT JUMPDEST POP POP POP POP PUSH1 0x40 MLOAD RETURNDATASIZE PUSH1 0x1F NOT PUSH1 0x1F DUP3 ADD AND DUP3 ADD DUP1 PUSH1 0x40 MSTORE POP DUP2 ADD SWAP1 PUSH2 0x522 SWAP2 SWAP1 PUSH2 0x1213 JUMP JUMPDEST POP POP POP JUMP JUMPDEST PUSH1 0xF SLOAD PUSH1 0x0 SWAP1 TIMESTAMP LT ISZERO PUSH2 0x53A JUMPI POP PUSH1 0x0 SWAP1 JUMP JUMPDEST PUSH1 0x10 SLOAD TIMESTAMP GT ISZERO PUSH2 0x54A JUMPI POP PUSH1 0x2 SWAP1 JUMP JUMPDEST POP PUSH1 0x1 SWAP1 JUMP JUMPDEST CALLER PUSH2 0x8FC PUSH2 0x55E DUP4 CALLVALUE PUSH2 0x13DE JUMP JUMPDEST PUSH1 0x40 MLOAD DUP2 ISZERO SWAP1 SWAP3 MUL SWAP2 PUSH1 0x0 DUP2 DUP2 DUP2 DUP6 DUP9 DUP9 CALL SWAP4 POP POP POP POP ISZERO DUP1 ISZERO PUSH2 0x586 JUMPI RETURNDATASIZE PUSH1 0x0 DUP1 RETURNDATACOPY RETURNDATASIZE PUSH1 0x0 REVERT JUMPDEST POP POP JUMP JUMPDEST PUSH1 0xB DUP1 SLOAD PUSH1 0x1 PUSH1 0x1 PUSH1 0xA0 SHL SUB DUP1 DUP8 AND PUSH1 0x1 PUSH1 0x1 PUSH1 0xA0 SHL SUB NOT SWAP3 DUP4 AND OR SWAP1 SWAP3 SSTORE PUSH1 0xC DUP1 SLOAD DUP7 DUP5 AND SWAP1 DUP4 AND DUP2 OR SWAP1 SWAP2 SSTORE PUSH1 0xD DUP1 SLOAD SWAP4 DUP7 AND SWAP4 SWAP1 SWAP3 AND SWAP3 SWAP1 SWAP3 OR SWAP1 SSTORE PUSH1 0x40 DUP1 MLOAD PUSH4 0x313CE567 PUSH1 0xE0 SHL DUP2 MSTORE SWAP1 MLOAD PUSH4 0x313CE567 SWAP2 PUSH1 0x4 DUP1 DUP3 ADD SWAP3 PUSH1 0x20 SWAP3 SWAP1 SWAP2 SWAP1 DUP3 SWAP1 SUB ADD DUP2 DUP7 DUP1 EXTCODESIZE ISZERO DUP1 ISZERO PUSH2 0x5FF JUMPI PUSH1 0x0 DUP1 REVERT JUMPDEST POP GAS STATICCALL ISZERO DUP1 ISZERO PUSH2 0x613 JUMPI RETURNDATASIZE PUSH1 0x0 DUP1 RETURNDATACOPY RETURNDATASIZE PUSH1 0x0 REVERT JUMPDEST POP POP POP POP PUSH1 0x40 MLOAD RETURNDATASIZE PUSH1 0x1F NOT PUSH1 0x1F DUP3 ADD AND DUP3 ADD DUP1 PUSH1 0x40 MSTORE POP DUP2 ADD SWAP1 PUSH2 0x637 SWAP2 SWAP1 PUSH2 0x124B JUMP JUMPDEST PUSH2 0x642 SWAP1 PUSH1 0xA PUSH2 0x1317 JUMP JUMPDEST DUP2 MLOAD PUSH2 0x64E SWAP2 SWAP1 PUSH2 0x13BF JUMP JUMPDEST PUSH1 0xE SSTORE PUSH1 0x20 DUP1 DUP3 ADD MLOAD PUSH1 0xF SSTORE PUSH1 0x40 DUP1 DUP4 ADD MLOAD PUSH1 0x10 SSTORE PUSH1 0x60 DUP4 ADD MLOAD PUSH1 0x11 SSTORE PUSH1 0xD SLOAD DUP2 MLOAD PUSH4 0x313CE567 PUSH1 0xE0 SHL DUP2 MSTORE SWAP2 MLOAD PUSH1 0x1 PUSH1 0x1 PUSH1 0xA0 SHL SUB SWAP1 SWAP2 AND SWAP3 PUSH4 0x313CE567 SWAP3 PUSH1 0x4 DUP1 DUP3 ADD SWAP4 SWAP2 DUP3 SWAP1 SUB ADD DUP2 DUP7 DUP1 EXTCODESIZE ISZERO DUP1 ISZERO PUSH2 0x6A9 JUMPI PUSH1 0x0 DUP1 REVERT JUMPDEST POP GAS STATICCALL ISZERO DUP1 ISZERO PUSH2 0x6BD JUMPI RETURNDATASIZE PUSH1 0x0 DUP1 RETURNDATACOPY RETURNDATASIZE PUSH1 0x0 REVERT JUMPDEST POP POP POP POP PUSH1 0x40 MLOAD RETURNDATASIZE PUSH1 0x1F NOT PUSH1 0x1F DUP3 ADD AND DUP3 ADD DUP1 PUSH1 0x40 MSTORE POP DUP2 ADD SWAP1 PUSH2 0x6E1 SWAP2 SWAP1 PUSH2 0x124B JUMP JUMPDEST PUSH2 0x6EC SWAP1 PUSH1 0xA PUSH2 0x1317 JUMP JUMPDEST PUSH1 0x80 DUP3 ADD MLOAD PUSH2 0x6FB SWAP2 SWAP1 PUSH2 0x13BF JUMP JUMPDEST PUSH1 0x12 SSTORE PUSH1 0xA0 DUP2 ADD MLOAD PUSH1 0x13 SSTORE PUSH1 0xC0 DUP2 ADD MLOAD PUSH1 0x14 SSTORE PUSH1 0xD SLOAD PUSH1 0x17 SLOAD PUSH1 0x15 DUP1 SLOAD PUSH1 0x1 PUSH1 0x1 PUSH1 0xA0 SHL SUB SWAP4 DUP5 AND SWAP4 SWAP1 SWAP3 AND SWAP3 SWAP1 SWAP3 EQ PUSH1 0xFF NOT SWAP1 SWAP2 AND OR SWAP1 SSTORE PUSH1 0xE SLOAD PUSH2 0x741 SWAP1 DUP1 PUSH2 0xEEE JUMP JUMPDEST PUSH1 0x16 SSTORE POP POP POP POP JUMP JUMPDEST PUSH1 0x1 SLOAD PUSH1 0x1 PUSH1 0x1 PUSH1 0xA0 SHL SUB AND CALLER EQ PUSH2 0x7A9 JUMPI PUSH1 0x40 MLOAD PUSH3 0x461BCD PUSH1 0xE5 SHL DUP2 MSTORE PUSH1 0x20 PUSH1 0x4 DUP3 ADD DUP2 SWAP1 MSTORE PUSH1 0x24 DUP3 ADD MSTORE PUSH32 0x4F776E61626C653A2063616C6C6572206973206E6F7420746865206F776E6572 PUSH1 0x44 DUP3 ADD MSTORE PUSH1 0x64 ADD JUMPDEST PUSH1 0x40 MLOAD DUP1 SWAP2 SUB SWAP1 REVERT JUMPDEST PUSH2 0x7B3 PUSH1 0x0 PUSH2 0xEFA JUMP JUMPDEST JUMP JUMPDEST PUSH1 0x40 MLOAD CALLER SWAP1 SELFBALANCE DUP1 ISZERO PUSH2 0x8FC MUL SWAP2 PUSH1 0x0 DUP2 DUP2 DUP2 DUP6 DUP9 DUP9 CALL SWAP4 POP POP POP POP ISZERO DUP1 ISZERO PUSH2 0x7E1 JUMPI RETURNDATASIZE PUSH1 0x0 DUP1 RETURNDATACOPY RETURNDATASIZE PUSH1 0x0 REVERT JUMPDEST POP JUMP JUMPDEST PUSH1 0x2 PUSH1 0x0 SLOAD EQ ISZERO PUSH2 0x837 JUMPI PUSH1 0x40 MLOAD PUSH3 0x461BCD PUSH1 0xE5 SHL DUP2 MSTORE PUSH1 0x20 PUSH1 0x4 DUP3 ADD MSTORE PUSH1 0x1F PUSH1 0x24 DUP3 ADD MSTORE PUSH32 0x5265656E7472616E637947756172643A207265656E7472616E742063616C6C00 PUSH1 0x44 DUP3 ADD MSTORE PUSH1 0x64 ADD PUSH2 0x7A0 JUMP JUMPDEST PUSH1 0x2 PUSH1 0x0 SSTORE PUSH2 0x844 PUSH2 0x527 JUMP JUMPDEST PUSH1 0x1 EQ PUSH2 0x882 JUMPI PUSH1 0x40 MLOAD PUSH3 0x461BCD PUSH1 0xE5 SHL DUP2 MSTORE PUSH1 0x20 PUSH1 0x4 DUP3 ADD MSTORE PUSH1 0xC PUSH1 0x24 DUP3 ADD MSTORE PUSH12 0x53616C652073756365737373 PUSH1 0xA0 SHL PUSH1 0x44 DUP3 ADD MSTORE PUSH1 0x64 ADD PUSH2 0x7A0 JUMP JUMPDEST PUSH1 0x6 SLOAD PUSH1 0x5 SLOAD PUSH1 0x0 SWAP2 PUSH2 0x894 SWAP2 PUSH2 0x13DE JUMP JUMPDEST GT PUSH2 0x8E1 JUMPI PUSH1 0x40 MLOAD PUSH3 0x461BCD PUSH1 0xE5 SHL DUP2 MSTORE PUSH1 0x20 PUSH1 0x4 DUP3 ADD MSTORE PUSH1 0x1B PUSH1 0x24 DUP3 ADD MSTORE PUSH32 0x416C6C20746F6B656E20686173206265656E2077697468647261770000000000 PUSH1 0x44 DUP3 ADD MSTORE PUSH1 0x64 ADD PUSH2 0x7A0 JUMP JUMPDEST CALLER PUSH1 0x0 SWAP1 DUP2 MSTORE PUSH1 0x2 PUSH1 0x20 MSTORE PUSH1 0x40 SWAP1 KECCAK256 PUSH1 0x1 DUP2 ADD SLOAD PUSH2 0x951 JUMPI PUSH1 0x40 MLOAD PUSH3 0x461BCD PUSH1 0xE5 SHL DUP2 MSTORE PUSH1 0x20 PUSH1 0x4 DUP3 ADD MSTORE PUSH1 0x27 PUSH1 0x24 DUP3 ADD MSTORE PUSH32 0x596F7520776974686472617720616C6C206F722068617665206E6F7420626F75 PUSH1 0x44 DUP3 ADD MSTORE PUSH7 0x19DA1D081E595D PUSH1 0xCA SHL PUSH1 0x64 DUP3 ADD MSTORE PUSH1 0x84 ADD PUSH2 0x7A0 JUMP JUMPDEST PUSH1 0x0 PUSH2 0x987 PUSH2 0x3E8 PUSH2 0x981 DUP5 PUSH1 0x1 ADD SLOAD PUSH2 0x97B PUSH1 0xB PUSH1 0x9 ADD SLOAD PUSH2 0x3E8 PUSH2 0xF4C SWAP1 SWAP2 SWAP1 PUSH4 0xFFFFFFFF AND JUMP JUMPDEST SWAP1 PUSH2 0xEEE JUMP JUMPDEST SWAP1 PUSH2 0xF58 JUMP JUMPDEST SWAP1 POP PUSH1 0x0 DUP2 DUP4 PUSH1 0x1 ADD SLOAD PUSH2 0x99B SWAP2 SWAP1 PUSH2 0x13DE JUMP JUMPDEST PUSH1 0xC SLOAD PUSH1 0x40 MLOAD PUSH4 0xA9059CBB PUSH1 0xE0 SHL DUP2 MSTORE CALLER PUSH1 0x4 DUP3 ADD MSTORE PUSH1 0x24 DUP2 ADD DUP6 SWAP1 MSTORE SWAP2 SWAP3 POP PUSH1 0x1 PUSH1 0x1 PUSH1 0xA0 SHL SUB AND SWAP1 PUSH4 0xA9059CBB SWAP1 PUSH1 0x44 ADD PUSH1 0x20 PUSH1 0x40 MLOAD DUP1 DUP4 SUB DUP2 PUSH1 0x0 DUP8 DUP1 EXTCODESIZE ISZERO DUP1 ISZERO PUSH2 0x9E8 JUMPI PUSH1 0x0 DUP1 REVERT JUMPDEST POP GAS CALL ISZERO DUP1 ISZERO PUSH2 0x9FC JUMPI RETURNDATASIZE PUSH1 0x0 DUP1 RETURNDATACOPY RETURNDATASIZE PUSH1 0x0 REVERT JUMPDEST POP POP POP POP PUSH1 0x40 MLOAD RETURNDATASIZE PUSH1 0x1F NOT PUSH1 0x1F DUP3 ADD AND DUP3 ADD DUP1 PUSH1 0x40 MSTORE POP DUP2 ADD SWAP1 PUSH2 0xA20 SWAP2 SWAP1 PUSH2 0x1213 JUMP JUMPDEST POP POP PUSH1 0x1 PUSH1 0x0 SSTORE POP POP JUMP JUMPDEST PUSH1 0x2 PUSH1 0x0 SLOAD EQ ISZERO PUSH2 0xA7E JUMPI PUSH1 0x40 MLOAD PUSH3 0x461BCD PUSH1 0xE5 SHL DUP2 MSTORE PUSH1 0x20 PUSH1 0x4 DUP3 ADD MSTORE PUSH1 0x1F PUSH1 0x24 DUP3 ADD MSTORE PUSH32 0x5265656E7472616E637947756172643A207265656E7472616E742063616C6C00 PUSH1 0x44 DUP3 ADD MSTORE PUSH1 0x64 ADD PUSH2 0x7A0 JUMP JUMPDEST PUSH1 0x2 PUSH1 0x0 SSTORE PUSH2 0xA8B PUSH2 0x527 JUMP JUMPDEST PUSH1 0x1 EQ PUSH2 0xAC7 JUMPI PUSH1 0x40 MLOAD PUSH3 0x461BCD PUSH1 0xE5 SHL DUP2 MSTORE PUSH1 0x20 PUSH1 0x4 DUP3 ADD MSTORE PUSH1 0xA PUSH1 0x24 DUP3 ADD MSTORE PUSH10 0x4E6F7420616374697665 PUSH1 0xB0 SHL PUSH1 0x44 DUP3 ADD MSTORE PUSH1 0x64 ADD PUSH2 0x7A0 JUMP JUMPDEST CALLER PUSH1 0x0 SWAP1 DUP2 MSTORE PUSH1 0x2 PUSH1 0x20 MSTORE PUSH1 0x40 DUP2 KECCAK256 PUSH1 0x11 SLOAD SWAP1 SWAP2 DUP4 SWAP2 DUP3 SWAP2 SWAP1 PUSH2 0x3E8 SWAP1 DUP4 LT ISZERO PUSH2 0xB26 JUMPI PUSH1 0x40 MLOAD PUSH3 0x461BCD PUSH1 0xE5 SHL DUP2 MSTORE PUSH1 0x20 PUSH1 0x4 DUP3 ADD MSTORE PUSH1 0x10 PUSH1 0x24 DUP3 ADD MSTORE PUSH16 0x4E6F7420656E6F7567682076616C7565 PUSH1 0x80 SHL PUSH1 0x44 DUP3 ADD MSTORE PUSH1 0x64 ADD PUSH2 0x7A0 JUMP JUMPDEST PUSH1 0x12 SLOAD DUP4 GT ISZERO PUSH2 0xB69 JUMPI PUSH1 0x40 MLOAD PUSH3 0x461BCD PUSH1 0xE5 SHL DUP2 MSTORE PUSH1 0x20 PUSH1 0x4 DUP3 ADD MSTORE PUSH1 0xE PUSH1 0x24 DUP3 ADD MSTORE PUSH14 0x4F766572666C6F772076616C7565 PUSH1 0x90 SHL PUSH1 0x44 DUP3 ADD MSTORE PUSH1 0x64 ADD PUSH2 0x7A0 JUMP JUMPDEST PUSH2 0xB71 PUSH2 0xDF6 JUMP JUMPDEST PUSH2 0xBA1 JUMPI PUSH2 0xB92 DUP2 PUSH2 0x981 DUP6 PUSH2 0x97B PUSH1 0x18 SLOAD DUP7 PUSH2 0xF4C SWAP1 SWAP2 SWAP1 PUSH4 0xFFFFFFFF AND JUMP JUMPDEST SWAP3 POP PUSH2 0xB9E DUP4 DUP6 PUSH2 0x13DE JUMP JUMPDEST SWAP2 POP JUMPDEST PUSH1 0x4 SLOAD PUSH1 0x12 SLOAD PUSH1 0x0 SWAP2 PUSH2 0xBB3 SWAP2 PUSH2 0x13DE JUMP JUMPDEST SWAP1 POP PUSH1 0x0 DUP2 GT PUSH2 0xBF7 JUMPI PUSH1 0x40 MLOAD PUSH3 0x461BCD PUSH1 0xE5 SHL DUP2 MSTORE PUSH1 0x20 PUSH1 0x4 DUP3 ADD MSTORE PUSH1 0xF PUSH1 0x24 DUP3 ADD MSTORE PUSH15 0x53616C652069732053756363657373 PUSH1 0x88 SHL PUSH1 0x44 DUP3 ADD MSTORE PUSH1 0x64 ADD PUSH2 0x7A0 JUMP JUMPDEST PUSH1 0x0 PUSH2 0xC9E PUSH1 0xB PUSH1 0x2 ADD PUSH1 0x0 SWAP1 SLOAD SWAP1 PUSH2 0x100 EXP SWAP1 DIV PUSH1 0x1 PUSH1 0x1 PUSH1 0xA0 SHL SUB AND PUSH1 0x1 PUSH1 0x1 PUSH1 0xA0 SHL SUB AND PUSH4 0x313CE567 PUSH1 0x40 MLOAD DUP2 PUSH4 0xFFFFFFFF AND PUSH1 0xE0 SHL DUP2 MSTORE PUSH1 0x4 ADD PUSH1 0x20 PUSH1 0x40 MLOAD DUP1 DUP4 SUB DUP2 DUP7 DUP1 EXTCODESIZE ISZERO DUP1 ISZERO PUSH2 0xC4D JUMPI PUSH1 0x0 DUP1 REVERT JUMPDEST POP GAS STATICCALL ISZERO DUP1 ISZERO PUSH2 0xC61 JUMPI RETURNDATASIZE PUSH1 0x0 DUP1 RETURNDATACOPY RETURNDATASIZE PUSH1 0x0 REVERT JUMPDEST POP POP POP POP PUSH1 0x40 MLOAD RETURNDATASIZE PUSH1 0x1F NOT PUSH1 0x1F DUP3 ADD AND DUP3 ADD DUP1 PUSH1 0x40 MSTORE POP DUP2 ADD SWAP1 PUSH2 0xC85 SWAP2 SWAP1 PUSH2 0x124B JUMP JUMPDEST PUSH2 0xC90 SWAP1 PUSH1 0xA PUSH2 0x1317 JUMP JUMPDEST PUSH1 0xE SLOAD PUSH2 0x981 SWAP1 DUP9 SWAP1 PUSH2 0xEEE JUMP JUMPDEST SWAP1 POP DUP6 DUP8 PUSH1 0x0 ADD PUSH1 0x0 DUP3 DUP3 SLOAD PUSH2 0xCB4 SWAP2 SWAP1 PUSH2 0x129C JUMP JUMPDEST SWAP3 POP POP DUP2 SWAP1 SSTORE POP DUP1 DUP8 PUSH1 0x1 ADD PUSH1 0x0 DUP3 DUP3 SLOAD PUSH2 0xCCF SWAP2 SWAP1 PUSH2 0x129C JUMP JUMPDEST SWAP1 SWAP2 SSTORE POP POP PUSH1 0x4 DUP1 SLOAD DUP7 SWAP2 SWAP1 PUSH1 0x0 SWAP1 PUSH2 0xCE9 SWAP1 DUP5 SWAP1 PUSH2 0x129C JUMP JUMPDEST SWAP1 SWAP2 SSTORE POP POP PUSH1 0x5 DUP1 SLOAD DUP3 SWAP2 SWAP1 PUSH1 0x0 SWAP1 PUSH2 0xD03 SWAP1 DUP5 SWAP1 PUSH2 0x129C JUMP JUMPDEST SWAP1 SWAP2 SSTORE POP POP PUSH1 0x8 DUP1 SLOAD SWAP1 PUSH1 0x0 PUSH2 0xD18 DUP4 PUSH2 0x13F5 JUMP JUMPDEST SWAP1 SWAP2 SSTORE POP POP CALLER PUSH1 0x0 SWAP1 DUP2 MSTORE PUSH1 0x3 PUSH1 0x20 MSTORE PUSH1 0x40 DUP2 KECCAK256 DUP1 SLOAD DUP7 SWAP3 SWAP1 PUSH2 0xD3C SWAP1 DUP5 SWAP1 PUSH2 0x129C JUMP JUMPDEST SWAP3 POP POP DUP2 SWAP1 SSTORE POP DUP4 PUSH1 0x1B PUSH1 0x0 DUP3 DUP3 SLOAD PUSH2 0xD55 SWAP2 SWAP1 PUSH2 0x129C JUMP JUMPDEST SWAP1 SWAP2 SSTORE POP POP PUSH1 0x15 SLOAD PUSH1 0xFF AND DUP1 ISZERO PUSH2 0xD74 JUMPI POP CALLVALUE PUSH2 0xD72 DUP6 DUP8 PUSH2 0x129C JUMP JUMPDEST LT JUMPDEST ISZERO PUSH2 0xDBC JUMPI CALLER PUSH2 0x8FC DUP6 PUSH2 0xD88 DUP9 CALLVALUE PUSH2 0x13DE JUMP JUMPDEST PUSH2 0xD92 SWAP2 SWAP1 PUSH2 0x13DE JUMP JUMPDEST PUSH1 0x40 MLOAD DUP2 ISZERO SWAP1 SWAP3 MUL SWAP2 PUSH1 0x0 DUP2 DUP2 DUP2 DUP6 DUP9 DUP9 CALL SWAP4 POP POP POP POP ISZERO DUP1 ISZERO PUSH2 0xDBA JUMPI RETURNDATASIZE PUSH1 0x0 DUP1 RETURNDATACOPY RETURNDATASIZE PUSH1 0x0 REVERT JUMPDEST POP JUMPDEST PUSH1 0x15 SLOAD PUSH1 0xFF AND PUSH2 0xDE7 JUMPI PUSH1 0xD SLOAD PUSH2 0xDE7 SWAP1 PUSH1 0x1 PUSH1 0x1 PUSH1 0xA0 SHL SUB AND CALLER ADDRESS PUSH2 0xDE2 DUP9 DUP11 PUSH2 0x129C JUMP JUMPDEST PUSH2 0xF64 JUMP JUMPDEST POP POP PUSH1 0x1 PUSH1 0x0 SSTORE POP POP POP POP POP POP JUMP JUMPDEST PUSH1 0x0 PUSH2 0xE03 PUSH1 0x19 CALLER PUSH2 0x1094 JUMP JUMPDEST SWAP1 POP SWAP1 JUMP JUMPDEST PUSH1 0x1 SLOAD PUSH1 0x1 PUSH1 0x1 PUSH1 0xA0 SHL SUB AND CALLER EQ PUSH2 0xE62 JUMPI PUSH1 0x40 MLOAD PUSH3 0x461BCD PUSH1 0xE5 SHL DUP2 MSTORE PUSH1 0x20 PUSH1 0x4 DUP3 ADD DUP2 SWAP1 MSTORE PUSH1 0x24 DUP3 ADD MSTORE PUSH32 0x4F776E61626C653A2063616C6C6572206973206E6F7420746865206F776E6572 PUSH1 0x44 DUP3 ADD MSTORE PUSH1 0x64 ADD PUSH2 0x7A0 JUMP JUMPDEST PUSH1 0x1 PUSH1 0x1 PUSH1 0xA0 SHL SUB DUP2 AND PUSH2 0xEC7 JUMPI PUSH1 0x40 MLOAD PUSH3 0x461BCD PUSH1 0xE5 SHL DUP2 MSTORE PUSH1 0x20 PUSH1 0x4 DUP3 ADD MSTORE PUSH1 0x26 PUSH1 0x24 DUP3 ADD MSTORE PUSH32 0x4F776E61626C653A206E6577206F776E657220697320746865207A65726F2061 PUSH1 0x44 DUP3 ADD MSTORE PUSH6 0x646472657373 PUSH1 0xD0 SHL PUSH1 0x64 DUP3 ADD MSTORE PUSH1 0x84 ADD PUSH2 0x7A0 JUMP JUMPDEST PUSH2 0x7E1 DUP2 PUSH2 0xEFA JUMP JUMPDEST PUSH1 0x0 PUSH2 0xEE5 DUP4 PUSH1 0x1 PUSH1 0x1 PUSH1 0xA0 SHL SUB DUP5 AND PUSH2 0x10B6 JUMP JUMPDEST SWAP1 POP JUMPDEST SWAP3 SWAP2 POP POP JUMP JUMPDEST PUSH1 0x0 PUSH2 0xEE5 DUP3 DUP5 PUSH2 0x13BF JUMP JUMPDEST PUSH1 0x1 DUP1 SLOAD PUSH1 0x1 PUSH1 0x1 PUSH1 0xA0 SHL SUB DUP4 DUP2 AND PUSH1 0x1 PUSH1 0x1 PUSH1 0xA0 SHL SUB NOT DUP4 AND DUP2 OR SWAP1 SWAP4 SSTORE PUSH1 0x40 MLOAD SWAP2 AND SWAP2 SWAP1 DUP3 SWAP1 PUSH32 0x8BE0079C531659141344CD1FD0A4F28419497F9722A3DAAFE3B4186F6B6457E0 SWAP1 PUSH1 0x0 SWAP1 LOG3 POP POP JUMP JUMPDEST PUSH1 0x0 PUSH2 0xEE5 DUP3 DUP5 PUSH2 0x13DE JUMP JUMPDEST PUSH1 0x0 PUSH2 0xEE5 DUP3 DUP5 PUSH2 0x12B4 JUMP JUMPDEST PUSH1 0x40 DUP1 MLOAD PUSH1 0x1 PUSH1 0x1 PUSH1 0xA0 SHL SUB DUP6 DUP2 AND PUSH1 0x24 DUP4 ADD MSTORE DUP5 DUP2 AND PUSH1 0x44 DUP4 ADD MSTORE PUSH1 0x64 DUP1 DUP4 ADD DUP6 SWAP1 MSTORE DUP4 MLOAD DUP1 DUP5 SUB SWAP1 SWAP2 ADD DUP2 MSTORE PUSH1 0x84 SWAP1 SWAP3 ADD DUP4 MSTORE PUSH1 0x20 DUP3 ADD DUP1 MLOAD PUSH1 0x1 PUSH1 0x1 PUSH1 0xE0 SHL SUB AND PUSH4 0x23B872DD PUSH1 0xE0 SHL OR SWAP1 MSTORE SWAP2 MLOAD PUSH1 0x0 SWAP3 DUP4 SWAP3 SWAP1 DUP9 AND SWAP2 PUSH2 0xFC8 SWAP2 SWAP1 PUSH2 0x1263 JUMP JUMPDEST PUSH1 0x0 PUSH1 0x40 MLOAD DUP1 DUP4 SUB DUP2 PUSH1 0x0 DUP7 GAS CALL SWAP2 POP POP RETURNDATASIZE DUP1 PUSH1 0x0 DUP2 EQ PUSH2 0x1005 JUMPI PUSH1 0x40 MLOAD SWAP2 POP PUSH1 0x1F NOT PUSH1 0x3F RETURNDATASIZE ADD AND DUP3 ADD PUSH1 0x40 MSTORE RETURNDATASIZE DUP3 MSTORE RETURNDATASIZE PUSH1 0x0 PUSH1 0x20 DUP5 ADD RETURNDATACOPY PUSH2 0x100A JUMP JUMPDEST PUSH1 0x60 SWAP2 POP JUMPDEST POP SWAP2 POP SWAP2 POP DUP2 DUP1 ISZERO PUSH2 0x1034 JUMPI POP DUP1 MLOAD ISZERO DUP1 PUSH2 0x1034 JUMPI POP DUP1 DUP1 PUSH1 0x20 ADD SWAP1 MLOAD DUP2 ADD SWAP1 PUSH2 0x1034 SWAP2 SWAP1 PUSH2 0x1213 JUMP JUMPDEST PUSH2 0x108C JUMPI PUSH1 0x40 MLOAD PUSH3 0x461BCD PUSH1 0xE5 SHL DUP2 MSTORE PUSH1 0x20 PUSH1 0x4 DUP3 ADD MSTORE PUSH1 0x24 DUP1 DUP3 ADD MSTORE PUSH32 0x5472616E7366657248656C7065723A205452414E534645525F46524F4D5F4641 PUSH1 0x44 DUP3 ADD MSTORE PUSH4 0x12531151 PUSH1 0xE2 SHL PUSH1 0x64 DUP3 ADD MSTORE PUSH1 0x84 ADD PUSH2 0x7A0 JUMP JUMPDEST POP POP POP POP POP POP JUMP JUMPDEST PUSH1 0x1 PUSH1 0x1 PUSH1 0xA0 SHL SUB DUP2 AND PUSH1 0x0 SWAP1 DUP2 MSTORE PUSH1 0x1 DUP4 ADD PUSH1 0x20 MSTORE PUSH1 0x40 DUP2 KECCAK256 SLOAD ISZERO ISZERO PUSH2 0xEE5 JUMP JUMPDEST PUSH1 0x0 DUP2 DUP2 MSTORE PUSH1 0x1 DUP4 ADD PUSH1 0x20 MSTORE PUSH1 0x40 DUP2 KECCAK256 SLOAD PUSH2 0x10FD JUMPI POP DUP2 SLOAD PUSH1 0x1 DUP2 DUP2 ADD DUP5 SSTORE PUSH1 0x0 DUP5 DUP2 MSTORE PUSH1 0x20 DUP1 DUP3 KECCAK256 SWAP1 SWAP4 ADD DUP5 SWAP1 SSTORE DUP5 SLOAD DUP5 DUP3 MSTORE DUP3 DUP7 ADD SWAP1 SWAP4 MSTORE PUSH1 0x40 SWAP1 KECCAK256 SWAP2 SWAP1 SWAP2 SSTORE PUSH2 0xEE8 JUMP JUMPDEST POP PUSH1 0x0 PUSH2 0xEE8 JUMP JUMPDEST PUSH1 0x0 PUSH1 0x20 DUP3 DUP5 SUB SLT ISZERO PUSH2 0x1116 JUMPI DUP1 DUP2 REVERT JUMPDEST DUP2 CALLDATALOAD PUSH2 0x1121 DUP2 PUSH2 0x143C JUMP JUMPDEST SWAP4 SWAP3 POP POP POP JUMP JUMPDEST PUSH1 0x0 DUP1 PUSH1 0x0 DUP1 PUSH2 0x140 DUP1 DUP7 DUP9 SUB SLT ISZERO PUSH2 0x113F JUMPI DUP4 DUP5 REVERT JUMPDEST DUP6 CALLDATALOAD PUSH2 0x114A DUP2 PUSH2 0x143C JUMP JUMPDEST SWAP5 POP PUSH1 0x20 DUP7 DUP2 ADD CALLDATALOAD PUSH2 0x115B DUP2 PUSH2 0x143C JUMP JUMPDEST SWAP5 POP PUSH1 0x40 DUP8 ADD CALLDATALOAD PUSH2 0x116B DUP2 PUSH2 0x143C JUMP JUMPDEST SWAP4 POP PUSH1 0x7F DUP8 ADD DUP9 SGT PUSH2 0x117B JUMPI DUP3 DUP4 REVERT JUMPDEST PUSH1 0x40 MLOAD PUSH1 0xE0 DUP2 ADD DUP2 DUP2 LT PUSH8 0xFFFFFFFFFFFFFFFF DUP3 GT OR ISZERO PUSH2 0x119E JUMPI PUSH2 0x119E PUSH2 0x1426 JUMP JUMPDEST PUSH1 0x40 MSTORE DUP1 PUSH1 0x60 DUP10 ADD DUP5 DUP11 ADD DUP12 LT ISZERO PUSH2 0x11B4 JUMPI DUP6 DUP7 REVERT JUMPDEST DUP6 SWAP5 POP JUMPDEST PUSH1 0x7 DUP6 LT ISZERO PUSH2 0x11D7 JUMPI DUP1 CALLDATALOAD DUP3 MSTORE PUSH1 0x1 SWAP5 SWAP1 SWAP5 ADD SWAP4 SWAP1 DUP4 ADD SWAP1 DUP4 ADD PUSH2 0x11B8 JUMP JUMPDEST POP POP DUP1 SWAP4 POP POP POP POP SWAP3 SWAP6 SWAP2 SWAP5 POP SWAP3 POP JUMP JUMPDEST PUSH1 0x0 DUP1 PUSH1 0x40 DUP4 DUP6 SUB SLT ISZERO PUSH2 0x11FA JUMPI DUP2 DUP3 REVERT JUMPDEST DUP3 CALLDATALOAD PUSH2 0x1205 DUP2 PUSH2 0x143C JUMP JUMPDEST SWAP5 PUSH1 0x20 SWAP4 SWAP1 SWAP4 ADD CALLDATALOAD SWAP4 POP POP POP JUMP JUMPDEST PUSH1 0x0 PUSH1 0x20 DUP3 DUP5 SUB SLT ISZERO PUSH2 0x1224 JUMPI DUP1 DUP2 REVERT JUMPDEST DUP2 MLOAD DUP1 ISZERO ISZERO DUP2 EQ PUSH2 0x1121 JUMPI DUP2 DUP3 REVERT JUMPDEST PUSH1 0x0 PUSH1 0x20 DUP3 DUP5 SUB SLT ISZERO PUSH2 0x1244 JUMPI DUP1 DUP2 REVERT JUMPDEST POP CALLDATALOAD SWAP2 SWAP1 POP JUMP JUMPDEST PUSH1 0x0 PUSH1 0x20 DUP3 DUP5 SUB SLT ISZERO PUSH2 0x125C JUMPI DUP1 DUP2 REVERT JUMPDEST POP MLOAD SWAP2 SWAP1 POP JUMP JUMPDEST PUSH1 0x0 DUP3 MLOAD DUP2 JUMPDEST DUP2 DUP2 LT ISZERO PUSH2 0x1283 JUMPI PUSH1 0x20 DUP2 DUP7 ADD DUP2 ADD MLOAD DUP6 DUP4 ADD MSTORE ADD PUSH2 0x1269 JUMP JUMPDEST DUP2 DUP2 GT ISZERO PUSH2 0x1291 JUMPI DUP3 DUP3 DUP6 ADD MSTORE JUMPDEST POP SWAP2 SWAP1 SWAP2 ADD SWAP3 SWAP2 POP POP JUMP JUMPDEST PUSH1 0x0 DUP3 NOT DUP3 GT ISZERO PUSH2 0x12AF JUMPI PUSH2 0x12AF PUSH2 0x1410 JUMP JUMPDEST POP ADD SWAP1 JUMP JUMPDEST PUSH1 0x0 DUP3 PUSH2 0x12CF JUMPI PUSH4 0x4E487B71 PUSH1 0xE0 SHL DUP2 MSTORE PUSH1 0x12 PUSH1 0x4 MSTORE PUSH1 0x24 DUP2 REVERT JUMPDEST POP DIV SWAP1 JUMP JUMPDEST PUSH1 0x1 DUP2 DUP2 JUMPDEST DUP1 DUP6 GT ISZERO PUSH2 0x130F JUMPI DUP2 PUSH1 0x0 NOT DIV DUP3 GT ISZERO PUSH2 0x12F5 JUMPI PUSH2 0x12F5 PUSH2 0x1410 JUMP JUMPDEST DUP1 DUP6 AND ISZERO PUSH2 0x1302 JUMPI SWAP2 DUP2 MUL SWAP2 JUMPDEST SWAP4 DUP5 SHR SWAP4 SWAP1 DUP1 MUL SWAP1 PUSH2 0x12D9 JUMP JUMPDEST POP SWAP3 POP SWAP3 SWAP1 POP JUMP JUMPDEST PUSH1 0x0 PUSH2 0xEE5 DUP4 DUP4 PUSH1 0x0 DUP3 PUSH2 0x132D JUMPI POP PUSH1 0x1 PUSH2 0xEE8 JUMP JUMPDEST DUP2 PUSH2 0x133A JUMPI POP PUSH1 0x0 PUSH2 0xEE8 JUMP JUMPDEST DUP2 PUSH1 0x1 DUP2 EQ PUSH2 0x1350 JUMPI PUSH1 0x2 DUP2 EQ PUSH2 0x135A JUMPI PUSH2 0x1376 JUMP JUMPDEST PUSH1 0x1 SWAP2 POP POP PUSH2 0xEE8 JUMP JUMPDEST PUSH1 0xFF DUP5 GT ISZERO PUSH2 0x136B JUMPI PUSH2 0x136B PUSH2 0x1410 JUMP JUMPDEST POP POP PUSH1 0x1 DUP3 SHL PUSH2 0xEE8 JUMP JUMPDEST POP PUSH1 0x20 DUP4 LT PUSH2 0x133 DUP4 LT AND PUSH1 0x4E DUP5 LT PUSH1 0xB DUP5 LT AND OR ISZERO PUSH2 0x1399 JUMPI POP DUP2 DUP2 EXP PUSH2 0xEE8 JUMP JUMPDEST PUSH2 0x13A3 DUP4 DUP4 PUSH2 0x12D4 JUMP JUMPDEST DUP1 PUSH1 0x0 NOT DIV DUP3 GT ISZERO PUSH2 0x13B7 JUMPI PUSH2 0x13B7 PUSH2 0x1410 JUMP JUMPDEST MUL SWAP4 SWAP3 POP POP POP JUMP JUMPDEST PUSH1 0x0 DUP2 PUSH1 0x0 NOT DIV DUP4 GT DUP3 ISZERO ISZERO AND ISZERO PUSH2 0x13D9 JUMPI PUSH2 0x13D9 PUSH2 0x1410 JUMP JUMPDEST POP MUL SWAP1 JUMP JUMPDEST PUSH1 0x0 DUP3 DUP3 LT ISZERO PUSH2 0x13F0 JUMPI PUSH2 0x13F0 PUSH2 0x1410 JUMP JUMPDEST POP SUB SWAP1 JUMP JUMPDEST PUSH1 0x0 PUSH1 0x0 NOT DUP3 EQ ISZERO PUSH2 0x1409 JUMPI PUSH2 0x1409 PUSH2 0x1410 JUMP JUMPDEST POP PUSH1 0x1 ADD SWAP1 JUMP JUMPDEST PUSH4 0x4E487B71 PUSH1 0xE0 SHL PUSH1 0x0 MSTORE PUSH1 0x11 PUSH1 0x4 MSTORE PUSH1 0x24 PUSH1 0x0 REVERT JUMPDEST PUSH4 0x4E487B71 PUSH1 0xE0 SHL PUSH1 0x0 MSTORE PUSH1 0x41 PUSH1 0x4 MSTORE PUSH1 0x24 PUSH1 0x0 REVERT JUMPDEST PUSH1 0x1 PUSH1 0x1 PUSH1 0xA0 SHL SUB DUP2 AND DUP2 EQ PUSH2 0x7E1 JUMPI PUSH1 0x0 DUP1 REVERT INVALID LOG2 PUSH5 0x6970667358 0x22 SLT KECCAK256 0x48 EQ DUP15 0xA6 0xC5 0x22 RETURNDATACOPY 0xE7 0xD7 SWAP13 0xEC 0x22 0xD7 0xC6 KECCAK256 PUSH26 0x601DD0653A456F3F343045394D63C52264736F6C634300080400 CALLER "
				},
				"gasEstimates": {
					"creation": {
						"codeDepositCost": "1051000",
						"executionCost": "infinite",
						"totalCost": "infinite"
					},
					"external": {
						"WETH()": "1148",
						"approveData(address,uint256)": "infinite",
						"backToken()": "infinite",
						"buyerInfo(address)": "4682",
						"checkAdminAddress()": "1221",
						"deposit(uint256)": "infinite",
						"feeAnyone()": "1018",
						"getBalance(address)": "1172",
						"initialSaleInfor(address,address,address,uint256[7])": "infinite",
						"owner()": "1065",
						"presaleStatus()": "5213",
						"renounceOwnership()": "23528",
						"saleInfor()": "10177",
						"status()": "1955",
						"totalFee()": "1063",
						"transferETH(uint256)": "infinite",
						"transferOwnership(address)": "infinite",
						"userClaimEmergency()": "infinite",
						"userFee(address)": "1280"
					}
				},
				"methodIdentifiers": {
					"WETH()": "ad5c4648",
					"approveData(address,uint256)": "194c1a98",
					"backToken()": "861faf5f",
					"buyerInfo(address)": "e2d3f423",
					"checkAdminAddress()": "cad5b0f7",
					"deposit(uint256)": "b6b55f25",
					"feeAnyone()": "3b5ef2ad",
					"getBalance(address)": "f8b2cb4f",
					"initialSaleInfor(address,address,address,uint256[7])": "61e17655",
					"owner()": "8da5cb5b",
					"presaleStatus()": "acfb2355",
					"renounceOwnership()": "715018a6",
					"saleInfor()": "18856a2f",
					"status()": "200d2ed2",
					"totalFee()": "1df4ccfc",
					"transferETH(uint256)": "4329db46",
					"transferOwnership(address)": "f2fde38b",
					"userClaimEmergency()": "ab33985a",
					"userFee(address)": "56c5f349"
				}
			},
			"storageLayout": {
				"storage": [
					{
						"astId": 2111,
						"contract": "Ethereum/Presale.sol:Presale",
						"label": "_status",
						"offset": 0,
						"slot": "0",
						"type": "t_uint256"
					},
					{
						"astId": 2003,
						"contract": "Ethereum/Presale.sol:Presale",
						"label": "_owner",
						"offset": 0,
						"slot": "1",
						"type": "t_address"
					},
					{
						"astId": 769,
						"contract": "Ethereum/Presale.sol:Presale",
						"label": "buyerInfo",
						"offset": 0,
						"slot": "2",
						"type": "t_mapping(t_address,t_struct(BuyerInfo)748_storage)"
					},
					{
						"astId": 773,
						"contract": "Ethereum/Presale.sol:Presale",
						"label": "userFee",
						"offset": 0,
						"slot": "3",
						"type": "t_mapping(t_address,t_uint256)"
					},
					{
						"astId": 776,
						"contract": "Ethereum/Presale.sol:Presale",
						"label": "presaleStatus",
						"offset": 0,
						"slot": "4",
						"type": "t_struct(PresaleStatus)764_storage"
					},
					{
						"astId": 779,
						"contract": "Ethereum/Presale.sol:Presale",
						"label": "saleInfor",
						"offset": 0,
						"slot": "11",
						"type": "t_struct(SaleInfor)735_storage"
					},
					{
						"astId": 782,
						"contract": "Ethereum/Presale.sol:Presale",
						"label": "WETH",
						"offset": 0,
						"slot": "23",
						"type": "t_contract(IERC20)663"
					},
					{
						"astId": 784,
						"contract": "Ethereum/Presale.sol:Presale",
						"label": "feeAnyone",
						"offset": 0,
						"slot": "24",
						"type": "t_uint256"
					},
					{
						"astId": 787,
						"contract": "Ethereum/Presale.sol:Presale",
						"label": "admins",
						"offset": 0,
						"slot": "25",
						"type": "t_struct(AddressSet)1708_storage"
					},
					{
						"astId": 789,
						"contract": "Ethereum/Presale.sol:Presale",
						"label": "totalFee",
						"offset": 0,
						"slot": "27",
						"type": "t_uint256"
					}
				],
				"types": {
					"t_address": {
						"encoding": "inplace",
						"label": "address",
						"numberOfBytes": "20"
					},
					"t_address_payable": {
						"encoding": "inplace",
						"label": "address payable",
						"numberOfBytes": "20"
					},
					"t_array(t_address)dyn_storage": {
						"base": "t_address",
						"encoding": "dynamic_array",
						"label": "address[]",
						"numberOfBytes": "32"
					},
					"t_array(t_bytes32)dyn_storage": {
						"base": "t_bytes32",
						"encoding": "dynamic_array",
						"label": "bytes32[]",
						"numberOfBytes": "32"
					},
					"t_bool": {
						"encoding": "inplace",
						"label": "bool",
						"numberOfBytes": "1"
					},
					"t_bytes32": {
						"encoding": "inplace",
						"label": "bytes32",
						"numberOfBytes": "32"
					},
					"t_contract(ERC20)585": {
						"encoding": "inplace",
						"label": "contract ERC20",
						"numberOfBytes": "20"
					},
					"t_contract(IERC20)663": {
						"encoding": "inplace",
						"label": "contract IERC20",
						"numberOfBytes": "20"
					},
					"t_mapping(t_address,t_struct(BuyerInfo)748_storage)": {
						"encoding": "mapping",
						"key": "t_address",
						"label": "mapping(address => struct Presale.BuyerInfo)",
						"numberOfBytes": "32",
						"value": "t_struct(BuyerInfo)748_storage"
					},
					"t_mapping(t_address,t_uint256)": {
						"encoding": "mapping",
						"key": "t_address",
						"label": "mapping(address => uint256)",
						"numberOfBytes": "32",
						"value": "t_uint256"
					},
					"t_mapping(t_bytes32,t_uint256)": {
						"encoding": "mapping",
						"key": "t_bytes32",
						"label": "mapping(bytes32 => uint256)",
						"numberOfBytes": "32",
						"value": "t_uint256"
					},
					"t_struct(AddressSet)1708_storage": {
						"encoding": "inplace",
						"label": "struct EnumerableSet.AddressSet",
						"members": [
							{
								"astId": 1707,
								"contract": "Ethereum/Presale.sol:Presale",
								"label": "_inner",
								"offset": 0,
								"slot": "0",
								"type": "t_struct(Set)1407_storage"
							}
						],
						"numberOfBytes": "64"
					},
					"t_struct(BuyerInfo)748_storage": {
						"encoding": "inplace",
						"label": "struct Presale.BuyerInfo",
						"members": [
							{
								"astId": 737,
								"contract": "Ethereum/Presale.sol:Presale",
								"label": "baseDeposit",
								"offset": 0,
								"slot": "0",
								"type": "t_uint256"
							},
							{
								"astId": 739,
								"contract": "Ethereum/Presale.sol:Presale",
								"label": "tokenOwner",
								"offset": 0,
								"slot": "1",
								"type": "t_uint256"
							},
							{
								"astId": 741,
								"contract": "Ethereum/Presale.sol:Presale",
								"label": "lastWithDraw",
								"offset": 0,
								"slot": "2",
								"type": "t_uint256"
							},
							{
								"astId": 743,
								"contract": "Ethereum/Presale.sol:Presale",
								"label": "totalTokenWithDraw",
								"offset": 0,
								"slot": "3",
								"type": "t_uint256"
							},
							{
								"astId": 745,
								"contract": "Ethereum/Presale.sol:Presale",
								"label": "isRefund",
								"offset": 0,
								"slot": "4",
								"type": "t_bool"
							},
							{
								"astId": 747,
								"contract": "Ethereum/Presale.sol:Presale",
								"label": "isClaim",
								"offset": 1,
								"slot": "4",
								"type": "t_bool"
							}
						],
						"numberOfBytes": "160"
					},
					"t_struct(PresaleStatus)764_storage": {
						"encoding": "inplace",
						"label": "struct Presale.PresaleStatus",
						"members": [
							{
								"astId": 750,
								"contract": "Ethereum/Presale.sol:Presale",
								"label": "totalBaseCollected",
								"offset": 0,
								"slot": "0",
								"type": "t_uint256"
							},
							{
								"astId": 752,
								"contract": "Ethereum/Presale.sol:Presale",
								"label": "totalTokenSold",
								"offset": 0,
								"slot": "1",
								"type": "t_uint256"
							},
							{
								"astId": 754,
								"contract": "Ethereum/Presale.sol:Presale",
								"label": "totalTokenWithDraw",
								"offset": 0,
								"slot": "2",
								"type": "t_uint256"
							},
							{
								"astId": 756,
								"contract": "Ethereum/Presale.sol:Presale",
								"label": "totalBaseWithDraw",
								"offset": 0,
								"slot": "3",
								"type": "t_uint256"
							},
							{
								"astId": 758,
								"contract": "Ethereum/Presale.sol:Presale",
								"label": "numberBuyer",
								"offset": 0,
								"slot": "4",
								"type": "t_uint256"
							},
							{
								"astId": 760,
								"contract": "Ethereum/Presale.sol:Presale",
								"label": "totalFee",
								"offset": 0,
								"slot": "5",
								"type": "t_uint256"
							},
							{
								"astId": 763,
								"contract": "Ethereum/Presale.sol:Presale",
								"label": "admin",
								"offset": 0,
								"slot": "6",
								"type": "t_array(t_address)dyn_storage"
							}
						],
						"numberOfBytes": "224"
					},
					"t_struct(SaleInfor)735_storage": {
						"encoding": "inplace",
						"label": "struct Presale.SaleInfor",
						"members": [
							{
								"astId": 710,
								"contract": "Ethereum/Presale.sol:Presale",
								"label": "presaleOwner",
								"offset": 0,
								"slot": "0",
								"type": "t_address_payable"
							},
							{
								"astId": 713,
								"contract": "Ethereum/Presale.sol:Presale",
								"label": "saleToken",
								"offset": 0,
								"slot": "1",
								"type": "t_contract(ERC20)585"
							},
							{
								"astId": 716,
								"contract": "Ethereum/Presale.sol:Presale",
								"label": "baseToken",
								"offset": 0,
								"slot": "2",
								"type": "t_contract(ERC20)585"
							},
							{
								"astId": 718,
								"contract": "Ethereum/Presale.sol:Presale",
								"label": "tokenPrice",
								"offset": 0,
								"slot": "3",
								"type": "t_uint256"
							},
							{
								"astId": 720,
								"contract": "Ethereum/Presale.sol:Presale",
								"label": "startSale",
								"offset": 0,
								"slot": "4",
								"type": "t_uint256"
							},
							{
								"astId": 722,
								"contract": "Ethereum/Presale.sol:Presale",
								"label": "endSale",
								"offset": 0,
								"slot": "5",
								"type": "t_uint256"
							},
							{
								"astId": 724,
								"contract": "Ethereum/Presale.sol:Presale",
								"label": "minSpendPerBuyer",
								"offset": 0,
								"slot": "6",
								"type": "t_uint256"
							},
							{
								"astId": 726,
								"contract": "Ethereum/Presale.sol:Presale",
								"label": "maxSpendPerBuyer",
								"offset": 0,
								"slot": "7",
								"type": "t_uint256"
							},
							{
								"astId": 728,
								"contract": "Ethereum/Presale.sol:Presale",
								"label": "refundFee",
								"offset": 0,
								"slot": "8",
								"type": "t_uint256"
							},
							{
								"astId": 730,
								"contract": "Ethereum/Presale.sol:Presale",
								"label": "claimFee",
								"offset": 0,
								"slot": "9",
								"type": "t_uint256"
							},
							{
								"astId": 732,
								"contract": "Ethereum/Presale.sol:Presale",
								"label": "saleIsBaseToken",
								"offset": 0,
								"slot": "10",
								"type": "t_bool"
							},
							{
								"astId": 734,
								"contract": "Ethereum/Presale.sol:Presale",
								"label": "amountTokenForSale",
								"offset": 0,
								"slot": "11",
								"type": "t_uint256"
							}
						],
						"numberOfBytes": "384"
					},
					"t_struct(Set)1407_storage": {
						"encoding": "inplace",
						"label": "struct EnumerableSet.Set",
						"members": [
							{
								"astId": 1402,
								"contract": "Ethereum/Presale.sol:Presale",
								"label": "_values",
								"offset": 0,
								"slot": "0",
								"type": "t_array(t_bytes32)dyn_storage"
							},
							{
								"astId": 1406,
								"contract": "Ethereum/Presale.sol:Presale",
								"label": "_indexes",
								"offset": 0,
								"slot": "1",
								"type": "t_mapping(t_bytes32,t_uint256)"
							}
						],
						"numberOfBytes": "64"
					},
					"t_uint256": {
						"encoding": "inplace",
						"label": "uint256",
						"numberOfBytes": "32"
					}
				}
			},
			"userdoc": {
				"kind": "user",
				"methods": {},
				"version": 1
			}
		}
	}
}