{
	"Ethereum/Presale.sol": {
		"Presale": {
			"abi": [
				{
					"inputs": [
						{
							"internalType": "address",
							"name": "_presaleGenetor",
							"type": "address"
						}
					],
					"stateMutability": "payable",
					"type": "constructor"
				},
				{
					"anonymous": false,
					"inputs": [
						{
							"indexed": true,
							"internalType": "address",
							"name": "previousOwner",
							"type": "address"
						},
						{
							"indexed": true,
							"internalType": "address",
							"name": "newOwner",
							"type": "address"
						}
					],
					"name": "OwnershipTransferred",
					"type": "event"
				},
				{
					"inputs": [],
					"name": "WETH",
					"outputs": [
						{
							"internalType": "contract IERC20",
							"name": "",
							"type": "address"
						}
					],
					"stateMutability": "view",
					"type": "function"
				},
				{
					"inputs": [],
					"name": "adminReceiveFee",
					"outputs": [
						{
							"internalType": "address",
							"name": "",
							"type": "address"
						}
					],
					"stateMutability": "view",
					"type": "function"
				},
				{
					"inputs": [],
					"name": "backToken",
					"outputs": [],
					"stateMutability": "payable",
					"type": "function"
				},
				{
					"inputs": [
						{
							"internalType": "address",
							"name": "",
							"type": "address"
						}
					],
					"name": "buyerInfo",
					"outputs": [
						{
							"internalType": "uint256",
							"name": "baseDeposit",
							"type": "uint256"
						},
						{
							"internalType": "uint256",
							"name": "tokenOwner",
							"type": "uint256"
						},
						{
							"internalType": "uint256",
							"name": "lastWithDraw",
							"type": "uint256"
						},
						{
							"internalType": "uint256",
							"name": "totalTokenWithDraw",
							"type": "uint256"
						},
						{
							"internalType": "uint256",
							"name": "totalBaseWithDraw",
							"type": "uint256"
						}
					],
					"stateMutability": "view",
					"type": "function"
				},
				{
					"inputs": [],
					"name": "checkAdminAddress",
					"outputs": [
						{
							"internalType": "bool",
							"name": "",
							"type": "bool"
						}
					],
					"stateMutability": "view",
					"type": "function"
				},
				{
					"inputs": [
						{
							"internalType": "uint256",
							"name": "_amount",
							"type": "uint256"
						}
					],
					"name": "deposit",
					"outputs": [],
					"stateMutability": "payable",
					"type": "function"
				},
				{
					"inputs": [],
					"name": "feeAnyone",
					"outputs": [
						{
							"internalType": "uint256",
							"name": "",
							"type": "uint256"
						}
					],
					"stateMutability": "view",
					"type": "function"
				},
				{
					"inputs": [],
					"name": "feeCreateSale",
					"outputs": [
						{
							"internalType": "uint256",
							"name": "",
							"type": "uint256"
						}
					],
					"stateMutability": "view",
					"type": "function"
				},
				{
					"inputs": [
						{
							"internalType": "address",
							"name": "_address",
							"type": "address"
						}
					],
					"name": "getBalance",
					"outputs": [
						{
							"internalType": "uint256",
							"name": "",
							"type": "uint256"
						}
					],
					"stateMutability": "view",
					"type": "function"
				},
				{
					"inputs": [
						{
							"internalType": "address payable",
							"name": "_presaleOwner",
							"type": "address"
						},
						{
							"internalType": "contract ERC20",
							"name": "_saleToken",
							"type": "address"
						},
						{
							"internalType": "contract ERC20",
							"name": "_baseTOken",
							"type": "address"
						},
						{
							"internalType": "uint256[9]",
							"name": "datas",
							"type": "uint256[9]"
						},
						{
							"internalType": "uint256",
							"name": "_feeAnyone",
							"type": "uint256"
						},
						{
							"internalType": "address payable",
							"name": "_adminReceiveFee",
							"type": "address"
						},
						{
							"internalType": "uint256",
							"name": "_feeCreateSale",
							"type": "uint256"
						}
					],
					"name": "initialSaleInfor",
					"outputs": [],
					"stateMutability": "nonpayable",
					"type": "function"
				},
				{
					"inputs": [],
					"name": "owner",
					"outputs": [
						{
							"internalType": "address",
							"name": "",
							"type": "address"
						}
					],
					"stateMutability": "view",
					"type": "function"
				},
				{
					"inputs": [],
					"name": "ownerClaimAndRefundToken",
					"outputs": [],
					"stateMutability": "nonpayable",
					"type": "function"
				},
				{
					"inputs": [],
					"name": "presaleGenetor",
					"outputs": [
						{
							"internalType": "address",
							"name": "",
							"type": "address"
						}
					],
					"stateMutability": "view",
					"type": "function"
				},
				{
					"inputs": [],
					"name": "presaleStatus",
					"outputs": [
						{
							"internalType": "uint256",
							"name": "totalBaseCollected",
							"type": "uint256"
						},
						{
							"internalType": "uint256",
							"name": "totalTokenSold",
							"type": "uint256"
						},
						{
							"internalType": "uint256",
							"name": "totalTokenWithDraw",
							"type": "uint256"
						},
						{
							"internalType": "uint256",
							"name": "totalBaseWithDraw",
							"type": "uint256"
						},
						{
							"internalType": "uint256",
							"name": "totalTokenBackForAdmin",
							"type": "uint256"
						},
						{
							"internalType": "uint256",
							"name": "totalBaseBackForAdmin",
							"type": "uint256"
						},
						{
							"internalType": "uint256",
							"name": "numberBuyer",
							"type": "uint256"
						},
						{
							"internalType": "bool",
							"name": "isOwnerClaimSaleToken",
							"type": "bool"
						},
						{
							"internalType": "bool",
							"name": "isOwnerRefundBaseToken",
							"type": "bool"
						}
					],
					"stateMutability": "view",
					"type": "function"
				},
				{
					"inputs": [],
					"name": "renounceOwnership",
					"outputs": [],
					"stateMutability": "nonpayable",
					"type": "function"
				},
				{
					"inputs": [],
					"name": "saleInfor",
					"outputs": [
						{
							"internalType": "address payable",
							"name": "presaleOwner",
							"type": "address"
						},
						{
							"internalType": "contract ERC20",
							"name": "saleToken",
							"type": "address"
						},
						{
							"internalType": "contract ERC20",
							"name": "baseToken",
							"type": "address"
						},
						{
							"internalType": "uint256",
							"name": "tokenPrice",
							"type": "uint256"
						},
						{
							"internalType": "uint256",
							"name": "startSale",
							"type": "uint256"
						},
						{
							"internalType": "uint256",
							"name": "endSale",
							"type": "uint256"
						},
						{
							"internalType": "uint256",
							"name": "minSpendPerBuyer",
							"type": "uint256"
						},
						{
							"internalType": "uint256",
							"name": "maxSpendPerBuyer",
							"type": "uint256"
						},
						{
							"internalType": "uint256",
							"name": "refundFee",
							"type": "uint256"
						},
						{
							"internalType": "uint256",
							"name": "claimFee",
							"type": "uint256"
						},
						{
							"internalType": "bool",
							"name": "saleIsBaseToken",
							"type": "bool"
						},
						{
							"internalType": "uint256",
							"name": "amountTokenForSale",
							"type": "uint256"
						}
					],
					"stateMutability": "view",
					"type": "function"
				},
				{
					"inputs": [],
					"name": "saleTotalSupply",
					"outputs": [
						{
							"internalType": "uint256",
							"name": "hardCap",
							"type": "uint256"
						},
						{
							"internalType": "uint256",
							"name": "softCap",
							"type": "uint256"
						}
					],
					"stateMutability": "view",
					"type": "function"
				},
				{
					"inputs": [],
					"name": "status",
					"outputs": [
						{
							"internalType": "uint256",
							"name": "",
							"type": "uint256"
						}
					],
					"stateMutability": "view",
					"type": "function"
				},
				{
					"inputs": [],
					"name": "totalFee",
					"outputs": [
						{
							"internalType": "uint256",
							"name": "",
							"type": "uint256"
						}
					],
					"stateMutability": "view",
					"type": "function"
				},
				{
					"inputs": [
						{
							"internalType": "address",
							"name": "newOwner",
							"type": "address"
						}
					],
					"name": "transferOwnership",
					"outputs": [],
					"stateMutability": "nonpayable",
					"type": "function"
				},
				{
					"inputs": [],
					"name": "userClaimEmergency",
					"outputs": [],
					"stateMutability": "nonpayable",
					"type": "function"
				},
				{
					"inputs": [
						{
							"internalType": "bool",
							"name": "isClaim",
							"type": "bool"
						}
					],
					"name": "userClaimOrRefundWhenSaleSuccess",
					"outputs": [],
					"stateMutability": "nonpayable",
					"type": "function"
				},
				{
					"inputs": [
						{
							"internalType": "address",
							"name": "",
							"type": "address"
						}
					],
					"name": "userFee",
					"outputs": [
						{
							"internalType": "uint256",
							"name": "",
							"type": "uint256"
						}
					],
					"stateMutability": "view",
					"type": "function"
				},
				{
					"inputs": [],
					"name": "userRefundEmergency",
					"outputs": [],
					"stateMutability": "nonpayable",
					"type": "function"
				}
			],
			"devdoc": {
				"kind": "dev",
				"methods": {
					"owner()": {
						"details": "Returns the address of the current owner."
					},
					"renounceOwnership()": {
						"details": "Leaves the contract without owner. It will not be possible to call `onlyOwner` functions anymore. Can only be called by the current owner. NOTE: Renouncing ownership will leave the contract without an owner, thereby removing any functionality that is only available to the owner."
					},
					"transferOwnership(address)": {
						"details": "Transfers ownership of the contract to a new account (`newOwner`). Can only be called by the current owner."
					}
				},
				"version": 1
			},
			"evm": {
				"assembly": "    /* \"Ethereum/Presale.sol\":370:11906  contract Presale is ReentrancyGuard, Ownable{\r... */\n  mstore(0x40, 0x80)\n    /* \"Ethereum/Presale.sol\":2441:2734  constructor(address _presaleGenetor) payable {\r... */\n  mload(0x40)\n  sub(codesize, bytecodeSize)\n  dup1\n  bytecodeSize\n  dup4\n  codecopy\n  dup2\n  add\n  0x40\n  dup2\n  swap1\n  mstore\n  tag_1\n  swap2\n  tag_2\n  jump\t// in\ntag_1:\n    /* \"Utils/ReentrancyGuard.sol\":1734:1735  1 */\n  0x01\n    /* \"Utils/ReentrancyGuard.sol\":1845:1852  _status */\n  0x00\n    /* \"Utils/ReentrancyGuard.sol\":1845:1867  _status = _NOT_ENTERED */\n  sstore\n    /* \"Utils/Ownable.sol\":942:974  _transferOwnership(_msgSender()) */\n  tag_8\n    /* \"Utils/Context.sol\":736:746  msg.sender */\n  caller\n    /* \"Utils/Ownable.sol\":942:960  _transferOwnership */\n  tag_11\n    /* \"Utils/Ownable.sol\":942:974  _transferOwnership(_msgSender()) */\n  jump\t// in\ntag_8:\n    /* \"Ethereum/Presale.sol\":2497:2511  presaleGenetor */\n  0x22\n    /* \"Ethereum/Presale.sol\":2497:2529  presaleGenetor = _presaleGenetor */\n  dup1\n  sload\n  not(sub(shl(0xa0, 0x01), 0x01))\n  swap1\n  dup2\n  and\n  sub(shl(0xa0, 0x01), 0x01)\n  dup5\n  and\n  or\n  swap1\n  swap2\n  sstore\n    /* \"Ethereum/Presale.sol\":2540:2544  WETH */\n  0x1b\n    /* \"Ethereum/Presale.sol\":2540:2596  WETH = ERC20(0xc778417E063141139Fce010982780140Aa0cD5Ab) */\n  dup1\n  sload\n    /* \"Ethereum/Presale.sol\":2553:2595  0xc778417E063141139Fce010982780140Aa0cD5Ab */\n  0xc778417e063141139fce010982780140aa0cd5ab\n    /* \"Ethereum/Presale.sol\":2540:2596  WETH = ERC20(0xc778417E063141139Fce010982780140Aa0cD5Ab) */\n  swap3\n  and\n  swap2\n  swap1\n  swap2\n  or\n  swap1\n  sstore\n    /* \"Ethereum/Presale.sol\":2607:2661  admins.add(0x6Ccb41eedA5a073076F3E7dC1614C185b5fA41eD) */\n  tag_13\n    /* \"Ethereum/Presale.sol\":2607:2613  admins */\n  0x1c\n    /* \"Ethereum/Presale.sol\":2618:2660  0x6Ccb41eedA5a073076F3E7dC1614C185b5fA41eD */\n  0x6ccb41eeda5a073076f3e7dc1614c185b5fa41ed\n    /* \"Ethereum/Presale.sol\":2607:2617  admins.add */\n  tag_14\n  0x20\n  swap1\n  dup2\n  shl\n  tag_0_133\n  or\n    /* \"Ethereum/Presale.sol\":2607:2661  admins.add(0x6Ccb41eedA5a073076F3E7dC1614C185b5fA41eD) */\n  swap1\n  shr\n  jump\t// in\ntag_13:\n  pop\n    /* \"Ethereum/Presale.sol\":2672:2726  admins.add(0x4f0B12bBF40Fc182559822A5b1dB6D34dbC3E016) */\n  tag_15\n    /* \"Ethereum/Presale.sol\":2683:2725  0x4f0B12bBF40Fc182559822A5b1dB6D34dbC3E016 */\n  0x4f0b12bbf40fc182559822a5b1db6d34dbc3e016\n    /* \"Ethereum/Presale.sol\":2672:2678  admins */\n  0x1c\n    /* \"Ethereum/Presale.sol\":2672:2682  admins.add */\n  or(tag_0_133, shl(0x20, tag_14))\n  swap1\n    /* \"Ethereum/Presale.sol\":2672:2726  admins.add(0x4f0B12bBF40Fc182559822A5b1dB6D34dbC3E016) */\n  swap2\n  swap1\n  0x20\n  shr\n  jump\t// in\ntag_15:\n  pop\n    /* \"Ethereum/Presale.sol\":2441:2734  constructor(address _presaleGenetor) payable {\r... */\n  pop\n    /* \"Ethereum/Presale.sol\":370:11906  contract Presale is ReentrancyGuard, Ownable{\r... */\n  jump(tag_29)\n    /* \"Utils/Ownable.sol\":2333:2524  function _transferOwnership(address newOwner) internal virtual {\r... */\ntag_11:\n    /* \"Utils/Ownable.sol\":2426:2432  _owner */\n  0x01\n  dup1\n  sload\n  sub(shl(0xa0, 0x01), 0x01)\n    /* \"Utils/Ownable.sol\":2443:2460  _owner = newOwner */\n  dup4\n  dup2\n  and\n  not(sub(shl(0xa0, 0x01), 0x01))\n  dup4\n  and\n  dup2\n  or\n  swap1\n  swap4\n  sstore\n    /* \"Utils/Ownable.sol\":2476:2516  OwnershipTransferred(oldOwner, newOwner) */\n  mload(0x40)\n    /* \"Utils/Ownable.sol\":2426:2432  _owner */\n  swap2\n  and\n  swap2\n    /* \"Utils/Ownable.sol\":2443:2460  _owner = newOwner */\n  swap1\n    /* \"Utils/Ownable.sol\":2426:2432  _owner */\n  dup3\n  swap1\n    /* \"Utils/Ownable.sol\":2476:2516  OwnershipTransferred(oldOwner, newOwner) */\n  0x8be0079c531659141344cd1fd0a4f28419497f9722a3daafe3b4186f6b6457e0\n  swap1\n    /* \"Utils/Ownable.sol\":2407:2423  address oldOwner */\n  0x00\n  swap1\n    /* \"Utils/Ownable.sol\":2476:2516  OwnershipTransferred(oldOwner, newOwner) */\n  log3\n    /* \"Utils/Ownable.sol\":2396:2524  {\r... */\n  pop\n    /* \"Utils/Ownable.sol\":2333:2524  function _transferOwnership(address newOwner) internal virtual {\r... */\n  pop\n  jump\t// out\n    /* \"Utils/EnumerableSet.sol\":8259:8411  function add(AddressSet storage set, address value) internal returns (bool) {\r... */\ntag_14:\n    /* \"Utils/EnumerableSet.sol\":8329:8333  bool */\n  0x00\n    /* \"Utils/EnumerableSet.sol\":8353:8403  _add(set._inner, bytes32(uint256(uint160(value)))) */\n  tag_20\n    /* \"Utils/EnumerableSet.sol\":8358:8361  set */\n  dup4\n  sub(shl(0xa0, 0x01), 0x01)\n    /* \"Utils/EnumerableSet.sol\":8378:8401  uint256(uint160(value)) */\n  dup5\n  and\n    /* \"Utils/EnumerableSet.sol\":8353:8357  _add */\n  tag_21\n    /* \"Utils/EnumerableSet.sol\":8353:8403  _add(set._inner, bytes32(uint256(uint160(value)))) */\n  jump\t// in\ntag_20:\n    /* \"Utils/EnumerableSet.sol\":8346:8403  return _add(set._inner, bytes32(uint256(uint160(value)))) */\n  swap1\n  pop\n    /* \"Utils/EnumerableSet.sol\":8259:8411  function add(AddressSet storage set, address value) internal returns (bool) {\r... */\ntag_19:\n  swap3\n  swap2\n  pop\n  pop\n  jump\t// out\n    /* \"Utils/EnumerableSet.sol\":2174:2588  function _add(Set storage set, bytes32 value) private returns (bool) {\r... */\ntag_21:\n    /* \"Utils/EnumerableSet.sol\":2237:2241  bool */\n  0x00\n    /* \"Utils/EnumerableSet.sol\":4367:4386  set._indexes[value] */\n  dup2\n  dup2\n  mstore\n    /* \"Utils/EnumerableSet.sol\":4367:4379  set._indexes */\n  0x01\n  dup4\n  add\n    /* \"Utils/EnumerableSet.sol\":4367:4386  set._indexes[value] */\n  0x20\n  mstore\n  0x40\n  dup2\n  keccak256\n  sload\n    /* \"Utils/EnumerableSet.sol\":2254:2581  if (!_contains(set, value)) {\r... */\n  tag_25\n  jumpi\n  pop\n    /* \"Utils/EnumerableSet.sol\":2297:2320  set._values.push(value) */\n  dup2\n  sload\n  0x01\n  dup2\n  dup2\n  add\n  dup5\n  sstore\n    /* \"Utils/EnumerableSet.sol\":2297:2308  set._values */\n  0x00\n    /* \"Utils/EnumerableSet.sol\":2297:2320  set._values.push(value) */\n  dup5\n  dup2\n  mstore\n  0x20\n  dup1\n  dup3\n  keccak256\n  swap1\n  swap4\n  add\n  dup5\n  swap1\n  sstore\n    /* \"Utils/EnumerableSet.sol\":2480:2498  set._values.length */\n  dup5\n  sload\n    /* \"Utils/EnumerableSet.sol\":2458:2477  set._indexes[value] */\n  dup5\n  dup3\n  mstore\n    /* \"Utils/EnumerableSet.sol\":2458:2470  set._indexes */\n  dup3\n  dup7\n  add\n    /* \"Utils/EnumerableSet.sol\":2458:2477  set._indexes[value] */\n  swap1\n  swap4\n  mstore\n  0x40\n  swap1\n  keccak256\n    /* \"Utils/EnumerableSet.sol\":2458:2498  set._indexes[value] = set._values.length */\n  swap2\n  swap1\n  swap2\n  sstore\n    /* \"Utils/EnumerableSet.sol\":2513:2524  return true */\n  jump(tag_19)\n    /* \"Utils/EnumerableSet.sol\":2254:2581  if (!_contains(set, value)) {\r... */\ntag_25:\n  pop\n    /* \"Utils/EnumerableSet.sol\":2564:2569  false */\n  0x00\n    /* \"Utils/EnumerableSet.sol\":2557:2569  return false */\n  jump(tag_19)\n    /* \"#utility.yul\":14:304   */\ntag_2:\n    /* \"#utility.yul\":84:90   */\n  0x00\n    /* \"#utility.yul\":137:139   */\n  0x20\n    /* \"#utility.yul\":125:134   */\n  dup3\n    /* \"#utility.yul\":116:123   */\n  dup5\n    /* \"#utility.yul\":112:135   */\n  sub\n    /* \"#utility.yul\":108:140   */\n  slt\n    /* \"#utility.yul\":105:107   */\n  iszero\n  tag_31\n  jumpi\n    /* \"#utility.yul\":153:154   */\n  0x00\n    /* \"#utility.yul\":150:151   */\n  dup1\n    /* \"#utility.yul\":143:155   */\n  revert\n    /* \"#utility.yul\":105:107   */\ntag_31:\n    /* \"#utility.yul\":179:195   */\n  dup2\n  mload\n  sub(shl(0xa0, 0x01), 0x01)\n    /* \"#utility.yul\":224:255   */\n  dup2\n  and\n    /* \"#utility.yul\":214:256   */\n  dup2\n  eq\n    /* \"#utility.yul\":204:206   */\n  tag_32\n  jumpi\n    /* \"#utility.yul\":270:271   */\n  0x00\n    /* \"#utility.yul\":267:268   */\n  dup1\n    /* \"#utility.yul\":260:272   */\n  revert\n    /* \"#utility.yul\":204:206   */\ntag_32:\n    /* \"#utility.yul\":293:298   */\n  swap4\n    /* \"#utility.yul\":95:304   */\n  swap3\n  pop\n  pop\n  pop\n  jump\t// out\ntag_29:\n    /* \"Ethereum/Presale.sol\":370:11906  contract Presale is ReentrancyGuard, Ownable{\r... */\n  dataSize(sub_0)\n  dup1\n  dataOffset(sub_0)\n  0x00\n  codecopy\n  0x00\n  return\nstop\n\nsub_0: assembly {\n        /* \"Ethereum/Presale.sol\":370:11906  contract Presale is ReentrancyGuard, Ownable{\r... */\n      mstore(0x40, 0x80)\n      jumpi(tag_1, lt(calldatasize, 0x04))\n      shr(0xe0, calldataload(0x00))\n      dup1\n      0x9b25415c\n      gt\n      tag_26\n      jumpi\n      dup1\n      0xcad5b0f7\n      gt\n      tag_27\n      jumpi\n      dup1\n      0xcad5b0f7\n      eq\n      tag_20\n      jumpi\n      dup1\n      0xd4c1dee9\n      eq\n      tag_21\n      jumpi\n      dup1\n      0xe2d3f423\n      eq\n      tag_22\n      jumpi\n      dup1\n      0xeb002bb0\n      eq\n      tag_23\n      jumpi\n      dup1\n      0xf2fde38b\n      eq\n      tag_24\n      jumpi\n      dup1\n      0xf8b2cb4f\n      eq\n      tag_25\n      jumpi\n      0x00\n      dup1\n      revert\n    tag_27:\n      dup1\n      0x9b25415c\n      eq\n      tag_14\n      jumpi\n      dup1\n      0xab33985a\n      eq\n      tag_15\n      jumpi\n      dup1\n      0xacfb2355\n      eq\n      tag_16\n      jumpi\n      dup1\n      0xad5c4648\n      eq\n      tag_17\n      jumpi\n      dup1\n      0xae2b0965\n      eq\n      tag_18\n      jumpi\n      dup1\n      0xb6b55f25\n      eq\n      tag_19\n      jumpi\n      0x00\n      dup1\n      revert\n    tag_26:\n      dup1\n      0x56c5f349\n      gt\n      tag_28\n      jumpi\n      dup1\n      0x56c5f349\n      eq\n      tag_8\n      jumpi\n      dup1\n      0x715018a6\n      eq\n      tag_9\n      jumpi\n      dup1\n      0x861faf5f\n      eq\n      tag_10\n      jumpi\n      dup1\n      0x8da5cb5b\n      eq\n      tag_11\n      jumpi\n      dup1\n      0x8edf18e6\n      eq\n      tag_12\n      jumpi\n      dup1\n      0x95661e70\n      eq\n      tag_13\n      jumpi\n      0x00\n      dup1\n      revert\n    tag_28:\n      dup1\n      0x12e5d0b9\n      eq\n      tag_2\n      jumpi\n      dup1\n      0x18856a2f\n      eq\n      tag_3\n      jumpi\n      dup1\n      0x1df4ccfc\n      eq\n      tag_4\n      jumpi\n      dup1\n      0x200d2ed2\n      eq\n      tag_5\n      jumpi\n      dup1\n      0x29a79af6\n      eq\n      tag_6\n      jumpi\n      dup1\n      0x3b5ef2ad\n      eq\n      tag_7\n      jumpi\n    tag_1:\n      0x00\n      dup1\n      revert\n        /* \"Ethereum/Presale.sol\":1741:1779  SaleTotalSupply public saleTotalSupply */\n    tag_2:\n      callvalue\n      dup1\n      iszero\n      tag_29\n      jumpi\n      0x00\n      dup1\n      revert\n    tag_29:\n      pop\n      sload(0x0d)\n      sload(0x0e)\n      tag_30\n      swap2\n      swap1\n      dup3\n      jump\n    tag_30:\n      0x40\n      dup1\n      mload\n        /* \"#utility.yul\":12399:12424   */\n      swap3\n      dup4\n      mstore\n        /* \"#utility.yul\":12455:12457   */\n      0x20\n        /* \"#utility.yul\":12440:12458   */\n      dup4\n      add\n        /* \"#utility.yul\":12433:12467   */\n      swap2\n      swap1\n      swap2\n      mstore\n        /* \"#utility.yul\":12372:12390   */\n      add\n        /* \"Ethereum/Presale.sol\":1741:1779  SaleTotalSupply public saleTotalSupply */\n    tag_32:\n      mload(0x40)\n      dup1\n      swap2\n      sub\n      swap1\n      return\n        /* \"Ethereum/Presale.sol\":1786:1812  SaleInfor public saleInfor */\n    tag_3:\n      callvalue\n      dup1\n      iszero\n      tag_34\n      jumpi\n      0x00\n      dup1\n      revert\n    tag_34:\n      pop\n      sload(0x0f)\n      sload(0x10)\n      sload(0x11)\n      sload(0x12)\n      sload(0x13)\n      sload(0x14)\n      sload(0x15)\n      sload(0x16)\n      sload(0x17)\n      sload(0x18)\n      sload(0x19)\n      sload(0x1a)\n      tag_35\n      swap12\n      sub(shl(0xa0, 0x01), 0x01)\n      swap1\n      dup2\n      and\n      swap12\n      dup2\n      and\n      swap11\n      and\n      swap9\n      swap8\n      swap7\n      swap6\n      swap5\n      swap4\n      swap3\n      swap2\n      0xff\n      and\n      swap1\n      dup13\n      jump\n    tag_35:\n      0x40\n      dup1\n      mload\n      sub(shl(0xa0, 0x01), 0x01)\n        /* \"#utility.yul\":3950:3965   */\n      swap14\n      dup15\n      and\n        /* \"#utility.yul\":3932:3966   */\n      dup2\n      mstore\n        /* \"#utility.yul\":4002:4017   */\n      swap12\n      dup14\n      and\n        /* \"#utility.yul\":3997:3999   */\n      0x20\n        /* \"#utility.yul\":3982:4000   */\n      dup14\n      add\n        /* \"#utility.yul\":3975:4018   */\n      mstore\n        /* \"#utility.yul\":4054:4069   */\n      swap10\n      swap1\n      swap12\n      and\n        /* \"#utility.yul\":4034:4052   */\n      swap9\n      dup11\n      add\n        /* \"#utility.yul\":4027:4070   */\n      swap9\n      swap1\n      swap9\n      mstore\n        /* \"#utility.yul\":4101:4103   */\n      0x60\n        /* \"#utility.yul\":4086:4104   */\n      dup10\n      add\n        /* \"#utility.yul\":4079:4113   */\n      swap7\n      swap1\n      swap7\n      mstore\n        /* \"#utility.yul\":4144:4147   */\n      0x80\n        /* \"#utility.yul\":4129:4148   */\n      dup9\n      add\n        /* \"#utility.yul\":4122:4157   */\n      swap5\n      swap1\n      swap5\n      mstore\n        /* \"#utility.yul\":3912:3915   */\n      0xa0\n        /* \"#utility.yul\":4173:4192   */\n      dup8\n      add\n        /* \"#utility.yul\":4166:4201   */\n      swap3\n      swap1\n      swap3\n      mstore\n        /* \"#utility.yul\":4232:4235   */\n      0xc0\n        /* \"#utility.yul\":4217:4236   */\n      dup7\n      add\n        /* \"#utility.yul\":4210:4245   */\n      mstore\n        /* \"#utility.yul\":4276:4279   */\n      0xe0\n        /* \"#utility.yul\":4261:4280   */\n      dup6\n      add\n        /* \"#utility.yul\":4254:4289   */\n      mstore\n        /* \"#utility.yul\":4320:4323   */\n      0x0100\n        /* \"#utility.yul\":4305:4324   */\n      dup5\n      add\n        /* \"#utility.yul\":4298:4333   */\n      mstore\n        /* \"#utility.yul\":4364:4367   */\n      0x0120\n        /* \"#utility.yul\":4349:4368   */\n      dup4\n      add\n        /* \"#utility.yul\":4342:4377   */\n      mstore\n        /* \"#utility.yul\":4421:4436   */\n      iszero\n        /* \"#utility.yul\":4414:4437   */\n      iszero\n        /* \"#utility.yul\":4408:4411   */\n      0x0140\n        /* \"#utility.yul\":4393:4412   */\n      dup3\n      add\n        /* \"#utility.yul\":4386:4438   */\n      mstore\n        /* \"#utility.yul\":4469:4472   */\n      0x0160\n        /* \"#utility.yul\":4454:4473   */\n      dup2\n      add\n        /* \"#utility.yul\":4447:4483   */\n      swap2\n      swap1\n      swap2\n      mstore\n        /* \"#utility.yul\":3881:3884   */\n      0x0180\n        /* \"#utility.yul\":3866:3885   */\n      add\n        /* \"Ethereum/Presale.sol\":1786:1812  SaleInfor public saleInfor */\n      tag_32\n        /* \"#utility.yul\":3848:4489   */\n      jump\n        /* \"Ethereum/Presale.sol\":1891:1914  uint256 public totalFee */\n    tag_4:\n      callvalue\n      dup1\n      iszero\n      tag_39\n      jumpi\n      0x00\n      dup1\n      revert\n    tag_39:\n      pop\n      tag_40\n      sload(0x1e)\n      dup2\n      jump\n    tag_40:\n      mload(0x40)\n        /* \"#utility.yul\":12189:12214   */\n      swap1\n      dup2\n      mstore\n        /* \"#utility.yul\":12177:12179   */\n      0x20\n        /* \"#utility.yul\":12162:12180   */\n      add\n        /* \"Ethereum/Presale.sol\":1891:1914  uint256 public totalFee */\n      tag_32\n        /* \"#utility.yul\":12144:12220   */\n      jump\n        /* \"Ethereum/Presale.sol\":4167:4504  function status() public view returns(uint256) {\r... */\n    tag_5:\n      callvalue\n      dup1\n      iszero\n      tag_44\n      jumpi\n      0x00\n      dup1\n      revert\n    tag_44:\n      pop\n      tag_40\n      tag_46\n      jump\t// in\n        /* \"Ethereum/Presale.sol\":2025:2054  address public presaleGenetor */\n    tag_6:\n      callvalue\n      dup1\n      iszero\n      tag_48\n      jumpi\n      0x00\n      dup1\n      revert\n    tag_48:\n      pop\n      sload(0x22)\n      tag_49\n      swap1\n      sub(shl(0xa0, 0x01), 0x01)\n      and\n      dup2\n      jump\n    tag_49:\n      mload(0x40)\n      sub(shl(0xa0, 0x01), 0x01)\n        /* \"#utility.yul\":3357:3389   */\n      swap1\n      swap2\n      and\n        /* \"#utility.yul\":3339:3390   */\n      dup2\n      mstore\n        /* \"#utility.yul\":3327:3329   */\n      0x20\n        /* \"#utility.yul\":3312:3330   */\n      add\n        /* \"Ethereum/Presale.sol\":2025:2054  address public presaleGenetor */\n      tag_32\n        /* \"#utility.yul\":3294:3396   */\n      jump\n        /* \"Ethereum/Presale.sol\":1921:1945  uint256 public feeAnyone */\n    tag_7:\n      callvalue\n      dup1\n      iszero\n      tag_53\n      jumpi\n      0x00\n      dup1\n      revert\n    tag_53:\n      pop\n      tag_40\n      sload(0x1f)\n      dup2\n      jump\n        /* \"Ethereum/Presale.sol\":1651:1693  mapping(address => uint256) public userFee */\n    tag_8:\n      callvalue\n      dup1\n      iszero\n      tag_57\n      jumpi\n      0x00\n      dup1\n      revert\n    tag_57:\n      pop\n      tag_40\n      tag_59\n      calldatasize\n      0x04\n      tag_60\n      jump\t// in\n    tag_59:\n      mstore(0x20, 0x03)\n      0x00\n      swap1\n      dup2\n      mstore\n      0x40\n      swap1\n      keccak256\n      sload\n      dup2\n      jump\n        /* \"Utils/Ownable.sol\":1714:1817  function renounceOwnership() public virtual onlyOwner {\r... */\n    tag_9:\n      callvalue\n      dup1\n      iszero\n      tag_63\n      jumpi\n      0x00\n      dup1\n      revert\n    tag_63:\n      pop\n      tag_64\n      tag_65\n      jump\t// in\n    tag_64:\n      stop\n        /* \"Ethereum/Presale.sol\":11795:11903  function backToken() external payable {\r... */\n    tag_10:\n      tag_64\n      tag_67\n      jump\t// in\n        /* \"Utils/Ownable.sol\":1063:1150  function owner() public view virtual returns (address) {\r... */\n    tag_11:\n      callvalue\n      dup1\n      iszero\n      tag_68\n      jumpi\n      0x00\n      dup1\n      revert\n    tag_68:\n      pop\n        /* \"Utils/Ownable.sol\":1136:1142  _owner */\n      and(sub(shl(0xa0, 0x01), 0x01), sload(0x01))\n        /* \"Utils/Ownable.sol\":1063:1150  function owner() public view virtual returns (address) {\r... */\n      jump(tag_49)\n        /* \"Ethereum/Presale.sol\":8882:10084  function ownerClaimAndRefundToken() external onlyPresaleOwner nonReentrant{\r... */\n    tag_12:\n      callvalue\n      dup1\n      iszero\n      tag_72\n      jumpi\n      0x00\n      dup1\n      revert\n    tag_72:\n      pop\n      tag_64\n      tag_74\n      jump\t// in\n        /* \"Ethereum/Presale.sol\":7863:8874  function userRefundEmergency() external nonReentrant {\r... */\n    tag_13:\n      callvalue\n      dup1\n      iszero\n      tag_75\n      jumpi\n      0x00\n      dup1\n      revert\n    tag_75:\n      pop\n      tag_64\n      tag_77\n      jump\t// in\n        /* \"Ethereum/Presale.sol\":2742:4158  function initialSaleInfor(\r... */\n    tag_14:\n      callvalue\n      dup1\n      iszero\n      tag_78\n      jumpi\n      0x00\n      dup1\n      revert\n    tag_78:\n      pop\n      tag_64\n      tag_80\n      calldatasize\n      0x04\n      tag_81\n      jump\t// in\n    tag_80:\n      tag_82\n      jump\t// in\n        /* \"Ethereum/Presale.sol\":6851:7855  function userClaimEmergency() external nonReentrant {\r... */\n    tag_15:\n      callvalue\n      dup1\n      iszero\n      tag_83\n      jumpi\n      0x00\n      dup1\n      revert\n    tag_83:\n      pop\n      tag_64\n      tag_85\n      jump\t// in\n        /* \"Ethereum/Presale.sol\":1700:1734  PresaleStatus public presaleStatus */\n    tag_16:\n      callvalue\n      dup1\n      iszero\n      tag_86\n      jumpi\n      0x00\n      dup1\n      revert\n    tag_86:\n      pop\n      sload(0x04)\n      sload(0x05)\n      sload(0x06)\n      sload(0x07)\n      sload(0x08)\n      sload(0x09)\n      sload(0x0a)\n      sload(0x0b)\n      tag_87\n      swap8\n      swap7\n      swap6\n      swap5\n      swap4\n      swap3\n      swap2\n      swap1\n      0xff\n      dup1\n      dup3\n      and\n      swap2\n      0x0100\n      swap1\n      div\n      and\n      dup10\n      jump\n    tag_87:\n      0x40\n      dup1\n      mload\n        /* \"#utility.yul\":13305:13330   */\n      swap10\n      dup11\n      mstore\n        /* \"#utility.yul\":13361:13363   */\n      0x20\n        /* \"#utility.yul\":13346:13364   */\n      dup11\n      add\n        /* \"#utility.yul\":13339:13373   */\n      swap9\n      swap1\n      swap9\n      mstore\n        /* \"#utility.yul\":13389:13407   */\n      swap7\n      dup9\n      add\n        /* \"#utility.yul\":13382:13416   */\n      swap6\n      swap1\n      swap6\n      mstore\n        /* \"#utility.yul\":13447:13449   */\n      0x60\n        /* \"#utility.yul\":13432:13450   */\n      dup8\n      add\n        /* \"#utility.yul\":13425:13459   */\n      swap4\n      swap1\n      swap4\n      mstore\n        /* \"#utility.yul\":13490:13493   */\n      0x80\n        /* \"#utility.yul\":13475:13494   */\n      dup7\n      add\n        /* \"#utility.yul\":13468:13503   */\n      swap2\n      swap1\n      swap2\n      mstore\n        /* \"#utility.yul\":13534:13537   */\n      0xa0\n        /* \"#utility.yul\":13519:13538   */\n      dup6\n      add\n        /* \"#utility.yul\":13512:13547   */\n      mstore\n        /* \"#utility.yul\":13578:13581   */\n      0xc0\n        /* \"#utility.yul\":13563:13582   */\n      dup5\n      add\n        /* \"#utility.yul\":13556:13591   */\n      mstore\n        /* \"#utility.yul\":13635:13649   */\n      iszero\n        /* \"#utility.yul\":13628:13650   */\n      iszero\n        /* \"#utility.yul\":13622:13625   */\n      0xe0\n        /* \"#utility.yul\":13607:13626   */\n      dup4\n      add\n        /* \"#utility.yul\":13600:13651   */\n      mstore\n        /* \"#utility.yul\":13695:13709   */\n      iszero\n        /* \"#utility.yul\":13688:13710   */\n      iszero\n        /* \"#utility.yul\":13682:13685   */\n      0x0100\n        /* \"#utility.yul\":13667:13686   */\n      dup3\n      add\n        /* \"#utility.yul\":13660:13711   */\n      mstore\n        /* \"#utility.yul\":13292:13295   */\n      0x0120\n        /* \"#utility.yul\":13277:13296   */\n      add\n        /* \"Ethereum/Presale.sol\":1700:1734  PresaleStatus public presaleStatus */\n      tag_32\n        /* \"#utility.yul\":13259:13717   */\n      jump\n        /* \"Ethereum/Presale.sol\":1819:1837  IERC20 public WETH */\n    tag_17:\n      callvalue\n      dup1\n      iszero\n      tag_91\n      jumpi\n      0x00\n      dup1\n      revert\n    tag_91:\n      pop\n      sload(0x1b)\n      tag_49\n      swap1\n      sub(shl(0xa0, 0x01), 0x01)\n      and\n      dup2\n      jump\n        /* \"Ethereum/Presale.sol\":1952:1982  address public adminReceiveFee */\n    tag_18:\n      callvalue\n      dup1\n      iszero\n      tag_96\n      jumpi\n      0x00\n      dup1\n      revert\n    tag_96:\n      pop\n      sload(0x20)\n      tag_49\n      swap1\n      sub(shl(0xa0, 0x01), 0x01)\n      and\n      dup2\n      jump\n        /* \"Ethereum/Presale.sol\":4631:6843  function deposit(uint256 _amount) external payable nonReentrant {\r... */\n    tag_19:\n      tag_64\n      tag_101\n      calldatasize\n      0x04\n      tag_102\n      jump\t// in\n    tag_101:\n      tag_103\n      jump\t// in\n        /* \"Ethereum/Presale.sol\":4513:4623  function checkAdminAddress() public view returns(bool) {\r... */\n    tag_20:\n      callvalue\n      dup1\n      iszero\n      tag_104\n      jumpi\n      0x00\n      dup1\n      revert\n    tag_104:\n      pop\n      tag_105\n      tag_106\n      jump\t// in\n    tag_105:\n      mload(0x40)\n        /* \"#utility.yul\":5605:5619   */\n      swap1\n      iszero\n        /* \"#utility.yul\":5598:5620   */\n      iszero\n        /* \"#utility.yul\":5580:5621   */\n      dup2\n      mstore\n        /* \"#utility.yul\":5568:5570   */\n      0x20\n        /* \"#utility.yul\":5553:5571   */\n      add\n        /* \"Ethereum/Presale.sol\":4513:4623  function checkAdminAddress() public view returns(bool) {\r... */\n      tag_32\n        /* \"#utility.yul\":5535:5627   */\n      jump\n        /* \"Ethereum/Presale.sol\":1990:2018  uint256 public feeCreateSale */\n    tag_21:\n      callvalue\n      dup1\n      iszero\n      tag_109\n      jumpi\n      0x00\n      dup1\n      revert\n    tag_109:\n      pop\n      tag_40\n      sload(0x21)\n      dup2\n      jump\n        /* \"Ethereum/Presale.sol\":1598:1644  mapping(address => BuyerInfo) public buyerInfo */\n    tag_22:\n      callvalue\n      dup1\n      iszero\n      tag_113\n      jumpi\n      0x00\n      dup1\n      revert\n    tag_113:\n      pop\n      tag_114\n      tag_115\n      calldatasize\n      0x04\n      tag_60\n      jump\t// in\n    tag_115:\n      0x02\n      0x20\n      dup2\n      swap1\n      mstore\n      0x00\n      swap2\n      dup3\n      mstore\n      0x40\n      swap1\n      swap2\n      keccak256\n      dup1\n      sload\n      0x01\n      dup3\n      add\n      sload\n      swap3\n      dup3\n      add\n      sload\n      0x03\n      dup4\n      add\n      sload\n      0x04\n      swap1\n      swap4\n      add\n      sload\n      swap2\n      swap4\n      swap3\n      swap1\n      swap2\n      dup6\n      jump\n    tag_114:\n      0x40\n      dup1\n      mload\n        /* \"#utility.yul\":12737:12762   */\n      swap6\n      dup7\n      mstore\n        /* \"#utility.yul\":12793:12795   */\n      0x20\n        /* \"#utility.yul\":12778:12796   */\n      dup7\n      add\n        /* \"#utility.yul\":12771:12805   */\n      swap5\n      swap1\n      swap5\n      mstore\n        /* \"#utility.yul\":12821:12839   */\n      swap3\n      dup5\n      add\n        /* \"#utility.yul\":12814:12848   */\n      swap2\n      swap1\n      swap2\n      mstore\n        /* \"#utility.yul\":12879:12881   */\n      0x60\n        /* \"#utility.yul\":12864:12882   */\n      dup4\n      add\n        /* \"#utility.yul\":12857:12891   */\n      mstore\n        /* \"#utility.yul\":12922:12925   */\n      0x80\n        /* \"#utility.yul\":12907:12926   */\n      dup3\n      add\n        /* \"#utility.yul\":12900:12935   */\n      mstore\n        /* \"#utility.yul\":12724:12727   */\n      0xa0\n        /* \"#utility.yul\":12709:12728   */\n      add\n        /* \"Ethereum/Presale.sol\":1598:1644  mapping(address => BuyerInfo) public buyerInfo */\n      tag_32\n        /* \"#utility.yul\":12691:12941   */\n      jump\n        /* \"Ethereum/Presale.sol\":10092:11665  function userClaimOrRefundWhenSaleSuccess(bool isClaim) external {\r... */\n    tag_23:\n      callvalue\n      dup1\n      iszero\n      tag_119\n      jumpi\n      0x00\n      dup1\n      revert\n    tag_119:\n      pop\n      tag_64\n      tag_121\n      calldatasize\n      0x04\n      tag_122\n      jump\t// in\n    tag_121:\n      tag_123\n      jump\t// in\n        /* \"Utils/Ownable.sol\":1972:2173  function transferOwnership(address newOwner) public virtual onlyOwner {\r... */\n    tag_24:\n      callvalue\n      dup1\n      iszero\n      tag_124\n      jumpi\n      0x00\n      dup1\n      revert\n    tag_124:\n      pop\n      tag_64\n      tag_126\n      calldatasize\n      0x04\n      tag_60\n      jump\t// in\n    tag_126:\n      tag_127\n      jump\t// in\n        /* \"Ethereum/Presale.sol\":11673:11784  function getBalance(address _address) external view returns(uint256) {\r... */\n    tag_25:\n      callvalue\n      dup1\n      iszero\n      tag_128\n      jumpi\n      0x00\n      dup1\n      revert\n    tag_128:\n      pop\n      tag_40\n      tag_130\n      calldatasize\n      0x04\n      tag_60\n      jump\t// in\n    tag_130:\n      sub(shl(0xa0, 0x01), 0x01)\n        /* \"Ethereum/Presale.sol\":11760:11776  _address.balance */\n      and\n      balance\n      swap1\n        /* \"Ethereum/Presale.sol\":11673:11784  function getBalance(address _address) external view returns(uint256) {\r... */\n      jump\n        /* \"Ethereum/Presale.sol\":4167:4504  function status() public view returns(uint256) {\r... */\n    tag_46:\n        /* \"Ethereum/Presale.sol\":4246:4265  saleInfor.startSale */\n      sload(0x13)\n        /* \"Ethereum/Presale.sol\":4205:4212  uint256 */\n      0x00\n      swap1\n        /* \"Ethereum/Presale.sol\":4228:4243  block.timestamp */\n      timestamp\n        /* \"Ethereum/Presale.sol\":4228:4265  block.timestamp < saleInfor.startSale */\n      lt\n        /* \"Ethereum/Presale.sol\":4225:4497  if(block.timestamp < saleInfor.startSale) {\r... */\n      iszero\n      tag_135\n      jumpi\n      pop\n        /* \"Ethereum/Presale.sol\":4289:4290  0 */\n      0x00\n      swap1\n        /* \"Ethereum/Presale.sol\":4167:4504  function status() public view returns(uint256) {\r... */\n      jump\t// out\n        /* \"Ethereum/Presale.sol\":4225:4497  if(block.timestamp < saleInfor.startSale) {\r... */\n    tag_135:\n        /* \"Ethereum/Presale.sol\":4356:4373  saleInfor.endSale */\n      sload(0x14)\n        /* \"Ethereum/Presale.sol\":4338:4353  block.timestamp */\n      timestamp\n        /* \"Ethereum/Presale.sol\":4338:4373  block.timestamp > saleInfor.endSale */\n      gt\n        /* \"Ethereum/Presale.sol\":4335:4486  if(block.timestamp > saleInfor.endSale) {\r... */\n      iszero\n      tag_137\n      jumpi\n      pop\n        /* \"Ethereum/Presale.sol\":4401:4402  2 */\n      0x02\n      swap1\n        /* \"Ethereum/Presale.sol\":4167:4504  function status() public view returns(uint256) {\r... */\n      jump\t// out\n        /* \"Ethereum/Presale.sol\":4335:4486  if(block.timestamp > saleInfor.endSale) {\r... */\n    tag_137:\n      pop\n        /* \"Ethereum/Presale.sol\":4459:4460  1 */\n      0x01\n      swap1\n        /* \"Ethereum/Presale.sol\":4167:4504  function status() public view returns(uint256) {\r... */\n      jump\t// out\n        /* \"Utils/Ownable.sol\":1714:1817  function renounceOwnership() public virtual onlyOwner {\r... */\n    tag_65:\n        /* \"Utils/Ownable.sol\":1136:1142  _owner */\n      and(sub(shl(0xa0, 0x01), 0x01), sload(0x01))\n        /* \"Utils/Context.sol\":736:746  msg.sender */\n      caller\n        /* \"Utils/Ownable.sol\":1283:1306  owner() == _msgSender() */\n      eq\n        /* \"Utils/Ownable.sol\":1275:1343  require(owner() == _msgSender(), \"Ownable: caller is not the owner\") */\n      tag_143\n      jumpi\n      mload(0x40)\n      shl(0xe5, 0x461bcd)\n      dup2\n      mstore\n        /* \"#utility.yul\":10074:10076   */\n      0x20\n        /* \"Utils/Ownable.sol\":1275:1343  require(owner() == _msgSender(), \"Ownable: caller is not the owner\") */\n      0x04\n      dup3\n      add\n        /* \"#utility.yul\":10056:10077   */\n      dup2\n      swap1\n      mstore\n        /* \"#utility.yul\":10093:10111   */\n      0x24\n      dup3\n      add\n        /* \"#utility.yul\":10086:10116   */\n      mstore\n        /* \"#utility.yul\":10152:10186   */\n      0x4f776e61626c653a2063616c6c6572206973206e6f7420746865206f776e6572\n        /* \"#utility.yul\":10132:10150   */\n      0x44\n      dup3\n      add\n        /* \"#utility.yul\":10125:10187   */\n      mstore\n        /* \"#utility.yul\":10204:10222   */\n      0x64\n      add\n        /* \"Utils/Ownable.sol\":1275:1343  require(owner() == _msgSender(), \"Ownable: caller is not the owner\") */\n    tag_144:\n      mload(0x40)\n      dup1\n      swap2\n      sub\n      swap1\n      revert\n    tag_143:\n        /* \"Utils/Ownable.sol\":1779:1809  _transferOwnership(address(0)) */\n      tag_147\n        /* \"Utils/Ownable.sol\":1806:1807  0 */\n      0x00\n        /* \"Utils/Ownable.sol\":1779:1797  _transferOwnership */\n      tag_148\n        /* \"Utils/Ownable.sol\":1779:1809  _transferOwnership(address(0)) */\n      jump\t// in\n    tag_147:\n        /* \"Utils/Ownable.sol\":1714:1817  function renounceOwnership() public virtual onlyOwner {\r... */\n      jump\t// out\n        /* \"Ethereum/Presale.sol\":11795:11903  function backToken() external payable {\r... */\n    tag_67:\n        /* \"Ethereum/Presale.sol\":11844:11895  payable(msg.sender).transfer(address(this).balance) */\n      mload(0x40)\n        /* \"Ethereum/Presale.sol\":11852:11862  msg.sender */\n      caller\n      swap1\n        /* \"Ethereum/Presale.sol\":11873:11894  address(this).balance */\n      selfbalance\n        /* \"Ethereum/Presale.sol\":11844:11895  payable(msg.sender).transfer(address(this).balance) */\n      dup1\n      iszero\n      0x08fc\n      mul\n      swap2\n      0x00\n      dup2\n      dup2\n      dup2\n        /* \"Ethereum/Presale.sol\":11873:11894  address(this).balance */\n      dup6\n        /* \"Ethereum/Presale.sol\":11852:11862  msg.sender */\n      dup9\n        /* \"Ethereum/Presale.sol\":11844:11895  payable(msg.sender).transfer(address(this).balance) */\n      dup9\n      call\n      swap4\n      pop\n      pop\n      pop\n      pop\n      iszero\n      dup1\n      iszero\n      tag_151\n      jumpi\n      returndatasize\n      0x00\n      dup1\n      returndatacopy\n      revert(0x00, returndatasize)\n    tag_151:\n      pop\n        /* \"Ethereum/Presale.sol\":11795:11903  function backToken() external payable {\r... */\n      jump\t// out\n        /* \"Ethereum/Presale.sol\":8882:10084  function ownerClaimAndRefundToken() external onlyPresaleOwner nonReentrant{\r... */\n    tag_74:\n        /* \"Ethereum/Presale.sol\":2239:2248  saleInfor */\n      0x0f\n        /* \"Ethereum/Presale.sol\":2239:2261  saleInfor.presaleOwner */\n      sload\n      sub(shl(0xa0, 0x01), 0x01)\n      and\n        /* \"Utils/Context.sol\":736:746  msg.sender */\n      caller\n      sub(shl(0xa0, 0x01), 0x01)\n        /* \"Ethereum/Presale.sol\":2223:2261  _msgSender() == saleInfor.presaleOwner */\n      and\n      eq\n        /* \"Ethereum/Presale.sol\":2215:2284  require(_msgSender() == saleInfor.presaleOwner, \"Only presale owner\") */\n      tag_155\n      jumpi\n      mload(0x40)\n      shl(0xe5, 0x461bcd)\n      dup2\n      mstore\n        /* \"#utility.yul\":9727:9729   */\n      0x20\n        /* \"Ethereum/Presale.sol\":2215:2284  require(_msgSender() == saleInfor.presaleOwner, \"Only presale owner\") */\n      0x04\n      dup3\n      add\n        /* \"#utility.yul\":9709:9730   */\n      mstore\n        /* \"#utility.yul\":9766:9768   */\n      0x12\n        /* \"#utility.yul\":9746:9764   */\n      0x24\n      dup3\n      add\n        /* \"#utility.yul\":9739:9769   */\n      mstore\n      shl(0x71, 0x27b7363c90383932b9b0b6329037bbb732b9)\n        /* \"#utility.yul\":9785:9803   */\n      0x44\n      dup3\n      add\n        /* \"#utility.yul\":9778:9826   */\n      mstore\n        /* \"#utility.yul\":9843:9861   */\n      0x64\n      add\n        /* \"Ethereum/Presale.sol\":2215:2284  require(_msgSender() == saleInfor.presaleOwner, \"Only presale owner\") */\n      tag_144\n        /* \"#utility.yul\":9699:9867   */\n      jump\n        /* \"Ethereum/Presale.sol\":2215:2284  require(_msgSender() == saleInfor.presaleOwner, \"Only presale owner\") */\n    tag_155:\n        /* \"Utils/ReentrancyGuard.sol\":1778:1779  2 */\n      0x02\n        /* \"Utils/ReentrancyGuard.sol\":2376:2383  _status */\n      sload(0x00)\n        /* \"Utils/ReentrancyGuard.sol\":2376:2395  _status != _ENTERED */\n      eq\n      iszero\n        /* \"Utils/ReentrancyGuard.sol\":2368:2431  require(_status != _ENTERED, \"ReentrancyGuard: reentrant call\") */\n      tag_159\n      jumpi\n      mload(0x40)\n      shl(0xe5, 0x461bcd)\n      dup2\n      mstore\n      0x04\n      add\n      tag_144\n      swap1\n      tag_161\n      jump\t// in\n    tag_159:\n        /* \"Utils/ReentrancyGuard.sol\":1778:1779  2 */\n      0x02\n        /* \"Utils/ReentrancyGuard.sol\":2509:2516  _status */\n      0x00\n        /* \"Utils/ReentrancyGuard.sol\":2509:2527  _status = _ENTERED */\n      swap1\n      dup2\n      sstore\n        /* \"Ethereum/Presale.sol\":9065:9084  saleInfor.saleToken */\n      sload(0x10)\n        /* \"Ethereum/Presale.sol\":9059:9110  ERC20(saleInfor.saleToken).balanceOf(address(this)) */\n      mload(0x40)\n      shl(0xe0, 0x70a08231)\n      dup2\n      mstore\n        /* \"Ethereum/Presale.sol\":9104:9108  this */\n      address\n        /* \"Ethereum/Presale.sol\":9059:9110  ERC20(saleInfor.saleToken).balanceOf(address(this)) */\n      0x04\n      dup3\n      add\n        /* \"#utility.yul\":3339:3390   */\n      mstore\n      sub(shl(0xa0, 0x01), 0x01)\n        /* \"Ethereum/Presale.sol\":9065:9084  saleInfor.saleToken */\n      swap1\n      swap2\n      and\n      swap1\n        /* \"Ethereum/Presale.sol\":9059:9095  ERC20(saleInfor.saleToken).balanceOf */\n      0x70a08231\n      swap1\n        /* \"#utility.yul\":3312:3330   */\n      0x24\n      add\n        /* \"Ethereum/Presale.sol\":9059:9110  ERC20(saleInfor.saleToken).balanceOf(address(this)) */\n      0x20\n      mload(0x40)\n      dup1\n      dup4\n      sub\n      dup2\n      dup7\n      dup1\n      extcodesize\n      iszero\n      dup1\n      iszero\n      tag_164\n      jumpi\n      0x00\n      dup1\n      revert\n    tag_164:\n      pop\n      gas\n      staticcall\n      iszero\n      dup1\n      iszero\n      tag_166\n      jumpi\n      returndatasize\n      0x00\n      dup1\n      returndatacopy\n      revert(0x00, returndatasize)\n    tag_166:\n      pop\n      pop\n      pop\n      pop\n      mload(0x40)\n      returndatasize\n      not(0x1f)\n      0x1f\n      dup3\n      add\n      and\n      dup3\n      add\n      dup1\n      0x40\n      mstore\n      pop\n      dup2\n      add\n      swap1\n      tag_167\n      swap2\n      swap1\n      tag_168\n      jump\t// in\n    tag_167:\n        /* \"Ethereum/Presale.sol\":9247:9283  presaleStatus.totalTokenBackForAdmin */\n      sload(0x08)\n        /* \"Ethereum/Presale.sol\":9247:9260  presaleStatus */\n      0x04\n        /* \"Ethereum/Presale.sol\":9161:9193  presaleStatus.totalBaseCollected */\n      sload\n        /* \"Ethereum/Presale.sol\":9027:9110  uint256 amountOwnerClaimToken = ERC20(saleInfor.saleToken).balanceOf(address(this)) */\n      swap2\n      swap3\n      pop\n        /* \"Ethereum/Presale.sol\":9122:9157  uint256 amountOwnerRefundNativeCoin */\n      0x00\n      swap2\n        /* \"Ethereum/Presale.sol\":9161:9333  presaleStatus.totalBaseCollected\r... */\n      tag_169\n      swap2\n        /* \"Ethereum/Presale.sol\":9161:9246  presaleStatus.totalBaseCollected\r... */\n      tag_170\n        /* \"Ethereum/Presale.sol\":9161:9333  presaleStatus.totalBaseCollected\r... */\n      jump\t// in\n    tag_169:\n        /* \"Ethereum/Presale.sol\":9348:9361  presaleStatus */\n      0x04\n        /* \"Ethereum/Presale.sol\":9348:9380  presaleStatus.totalBaseCollected */\n      sload\n        /* \"Ethereum/Presale.sol\":9122:9334  uint256 amountOwnerRefundNativeCoin = (presaleStatus.totalBaseCollected\r... */\n      swap1\n      swap2\n      pop\n        /* \"Ethereum/Presale.sol\":9348:9385  presaleStatus.totalBaseCollected != 0 */\n      iszero\n        /* \"Ethereum/Presale.sol\":9345:9628  if(presaleStatus.totalBaseCollected != 0){\r... */\n      tag_171\n      jumpi\n        /* \"Ethereum/Presale.sol\":9560:9596  presaleStatus.totalTokenBackForAdmin */\n      sload(0x08)\n        /* \"Ethereum/Presale.sol\":9489:9517  presaleStatus.totalTokenSold */\n      sload(0x05)\n        /* \"Ethereum/Presale.sol\":9425:9598  amountOwnerClaimToken\r... */\n      tag_172\n      swap2\n        /* \"Ethereum/Presale.sol\":9489:9597  presaleStatus.totalTokenSold\r... */\n      tag_173\n      swap2\n        /* \"Ethereum/Presale.sol\":9489:9517  presaleStatus.totalTokenSold */\n      swap1\n        /* \"Ethereum/Presale.sol\":9489:9559  presaleStatus.totalTokenSold\r... */\n      tag_170\n        /* \"Ethereum/Presale.sol\":9489:9597  presaleStatus.totalTokenSold\r... */\n      jump\t// in\n    tag_173:\n        /* \"Ethereum/Presale.sol\":9425:9446  amountOwnerClaimToken */\n      dup4\n      swap1\n        /* \"Ethereum/Presale.sol\":9425:9488  amountOwnerClaimToken\r... */\n      tag_170\n        /* \"Ethereum/Presale.sol\":9425:9598  amountOwnerClaimToken\r... */\n      jump\t// in\n    tag_172:\n        /* \"Ethereum/Presale.sol\":9401:9598  amountOwnerClaimToken = amountOwnerClaimToken\r... */\n      swap2\n      pop\n        /* \"Ethereum/Presale.sol\":9345:9628  if(presaleStatus.totalBaseCollected != 0){\r... */\n    tag_171:\n        /* \"Ethereum/Presale.sol\":9647:9682  presaleStatus.isOwnerClaimSaleToken */\n      and(0xff, sload(0x0b))\n        /* \"Ethereum/Presale.sol\":9646:9682  !presaleStatus.isOwnerClaimSaleToken */\n      iszero\n        /* \"Ethereum/Presale.sol\":9638:9716  require(!presaleStatus.isOwnerClaimSaleToken, \"Nothing for owner claim token\") */\n      tag_174\n      jumpi\n      mload(0x40)\n      shl(0xe5, 0x461bcd)\n      dup2\n      mstore\n        /* \"#utility.yul\":11183:11185   */\n      0x20\n        /* \"Ethereum/Presale.sol\":9638:9716  require(!presaleStatus.isOwnerClaimSaleToken, \"Nothing for owner claim token\") */\n      0x04\n      dup3\n      add\n        /* \"#utility.yul\":11165:11186   */\n      mstore\n        /* \"#utility.yul\":11222:11224   */\n      0x1d\n        /* \"#utility.yul\":11202:11220   */\n      0x24\n      dup3\n      add\n        /* \"#utility.yul\":11195:11225   */\n      mstore\n        /* \"#utility.yul\":11261:11292   */\n      0x4e6f7468696e6720666f72206f776e657220636c61696d20746f6b656e000000\n        /* \"#utility.yul\":11241:11259   */\n      0x44\n      dup3\n      add\n        /* \"#utility.yul\":11234:11293   */\n      mstore\n        /* \"#utility.yul\":11310:11328   */\n      0x64\n      add\n        /* \"Ethereum/Presale.sol\":9638:9716  require(!presaleStatus.isOwnerClaimSaleToken, \"Nothing for owner claim token\") */\n      tag_144\n        /* \"#utility.yul\":11155:11334   */\n      jump\n        /* \"Ethereum/Presale.sol\":9638:9716  require(!presaleStatus.isOwnerClaimSaleToken, \"Nothing for owner claim token\") */\n    tag_174:\n        /* \"Ethereum/Presale.sol\":9736:9772  presaleStatus.isOwnerRefundBaseToken */\n      sload(0x0b)\n      0x0100\n      swap1\n      div\n      0xff\n      and\n        /* \"Ethereum/Presale.sol\":9735:9772  !presaleStatus.isOwnerRefundBaseToken */\n      iszero\n        /* \"Ethereum/Presale.sol\":9727:9807  require(!presaleStatus.isOwnerRefundBaseToken, \"Nothing for owner refund token\") */\n      tag_177\n      jumpi\n      mload(0x40)\n      shl(0xe5, 0x461bcd)\n      dup2\n      mstore\n        /* \"#utility.yul\":7526:7528   */\n      0x20\n        /* \"Ethereum/Presale.sol\":9727:9807  require(!presaleStatus.isOwnerRefundBaseToken, \"Nothing for owner refund token\") */\n      0x04\n      dup3\n      add\n        /* \"#utility.yul\":7508:7529   */\n      mstore\n        /* \"#utility.yul\":7565:7567   */\n      0x1e\n        /* \"#utility.yul\":7545:7563   */\n      0x24\n      dup3\n      add\n        /* \"#utility.yul\":7538:7568   */\n      mstore\n        /* \"#utility.yul\":7604:7636   */\n      0x4e6f7468696e6720666f72206f776e657220726566756e6420746f6b656e0000\n        /* \"#utility.yul\":7584:7602   */\n      0x44\n      dup3\n      add\n        /* \"#utility.yul\":7577:7637   */\n      mstore\n        /* \"#utility.yul\":7654:7672   */\n      0x64\n      add\n        /* \"Ethereum/Presale.sol\":9727:9807  require(!presaleStatus.isOwnerRefundBaseToken, \"Nothing for owner refund token\") */\n      tag_144\n        /* \"#utility.yul\":7498:7678   */\n      jump\n        /* \"Ethereum/Presale.sol\":9727:9807  require(!presaleStatus.isOwnerRefundBaseToken, \"Nothing for owner refund token\") */\n    tag_177:\n        /* \"Ethereum/Presale.sol\":9818:9853  presaleStatus.isOwnerClaimSaleToken */\n      0x0b\n        /* \"Ethereum/Presale.sol\":9818:9860  presaleStatus.isOwnerClaimSaleToken = true */\n      dup1\n      sload\n      not(0xff)\n      and\n        /* \"Ethereum/Presale.sol\":9856:9860  true */\n      0x01\n        /* \"Ethereum/Presale.sol\":9818:9860  presaleStatus.isOwnerClaimSaleToken = true */\n      or\n      swap1\n      sstore\n      0x00\n        /* \"Ethereum/Presale.sol\":9871:9899  saleInfor.amountTokenForSale */\n      0x1a\n        /* \"Ethereum/Presale.sol\":9871:9903  saleInfor.amountTokenForSale = 0 */\n      sstore\n        /* \"Ethereum/Presale.sol\":9920:9939  saleInfor.saleToken */\n      sload(0x10)\n        /* \"Ethereum/Presale.sol\":9871:9880  saleInfor */\n      0x0f\n        /* \"Ethereum/Presale.sol\":9950:9972  saleInfor.presaleOwner */\n      sload\n        /* \"Ethereum/Presale.sol\":9914:9996  ERC20(saleInfor.saleToken).transfer(saleInfor.presaleOwner, amountOwnerClaimToken) */\n      mload(0x40)\n      shl(0xe0, 0xa9059cbb)\n      dup2\n      mstore\n      sub(shl(0xa0, 0x01), 0x01)\n        /* \"Ethereum/Presale.sol\":9950:9972  saleInfor.presaleOwner */\n      swap2\n      dup3\n      and\n        /* \"Ethereum/Presale.sol\":9818:9831  presaleStatus */\n      0x04\n        /* \"Ethereum/Presale.sol\":9914:9996  ERC20(saleInfor.saleToken).transfer(saleInfor.presaleOwner, amountOwnerClaimToken) */\n      dup3\n      add\n        /* \"#utility.yul\":4676:4727   */\n      mstore\n        /* \"#utility.yul\":4743:4761   */\n      0x24\n      dup2\n      add\n        /* \"#utility.yul\":4736:4770   */\n      dup6\n      swap1\n      mstore\n        /* \"Ethereum/Presale.sol\":9920:9939  saleInfor.saleToken */\n      swap2\n      and\n      swap1\n        /* \"Ethereum/Presale.sol\":9914:9949  ERC20(saleInfor.saleToken).transfer */\n      0xa9059cbb\n      swap1\n        /* \"#utility.yul\":4649:4667   */\n      0x44\n      add\n        /* \"Ethereum/Presale.sol\":9914:9996  ERC20(saleInfor.saleToken).transfer(saleInfor.presaleOwner, amountOwnerClaimToken) */\n      0x20\n      mload(0x40)\n      dup1\n      dup4\n      sub\n      dup2\n      0x00\n      dup8\n      dup1\n      extcodesize\n      iszero\n      dup1\n      iszero\n      tag_182\n      jumpi\n      0x00\n      dup1\n      revert\n    tag_182:\n      pop\n      gas\n      call\n      iszero\n      dup1\n      iszero\n      tag_184\n      jumpi\n      returndatasize\n      0x00\n      dup1\n      returndatacopy\n      revert(0x00, returndatasize)\n    tag_184:\n      pop\n      pop\n      pop\n      pop\n      mload(0x40)\n      returndatasize\n      not(0x1f)\n      0x1f\n      dup3\n      add\n      and\n      dup3\n      add\n      dup1\n      0x40\n      mstore\n      pop\n      dup2\n      add\n      swap1\n      tag_185\n      swap2\n      swap1\n      tag_186\n      jump\t// in\n    tag_185:\n      pop\n        /* \"Ethereum/Presale.sol\":10015:10024  saleInfor */\n      0x0f\n        /* \"Ethereum/Presale.sol\":10015:10037  saleInfor.presaleOwner */\n      sload\n        /* \"Ethereum/Presale.sol\":10007:10076  payable(saleInfor.presaleOwner).transfer(amountOwnerRefundNativeCoin) */\n      mload(0x40)\n      sub(shl(0xa0, 0x01), 0x01)\n        /* \"Ethereum/Presale.sol\":10015:10037  saleInfor.presaleOwner */\n      swap1\n      swap2\n      and\n      swap1\n        /* \"Ethereum/Presale.sol\":10007:10076  payable(saleInfor.presaleOwner).transfer(amountOwnerRefundNativeCoin) */\n      dup3\n      iszero\n      0x08fc\n      mul\n      swap1\n        /* \"Ethereum/Presale.sol\":10048:10075  amountOwnerRefundNativeCoin */\n      dup4\n      swap1\n        /* \"Ethereum/Presale.sol\":10015:10037  saleInfor.presaleOwner */\n      0x00\n        /* \"Ethereum/Presale.sol\":10007:10076  payable(saleInfor.presaleOwner).transfer(amountOwnerRefundNativeCoin) */\n      dup2\n        /* \"Ethereum/Presale.sol\":10015:10037  saleInfor.presaleOwner */\n      dup2\n        /* \"Ethereum/Presale.sol\":10007:10076  payable(saleInfor.presaleOwner).transfer(amountOwnerRefundNativeCoin) */\n      dup2\n        /* \"Ethereum/Presale.sol\":10048:10075  amountOwnerRefundNativeCoin */\n      dup6\n        /* \"Ethereum/Presale.sol\":10015:10037  saleInfor.presaleOwner */\n      dup9\n        /* \"Ethereum/Presale.sol\":10007:10076  payable(saleInfor.presaleOwner).transfer(amountOwnerRefundNativeCoin) */\n      dup9\n      call\n      swap4\n      pop\n      pop\n      pop\n      pop\n      iszero\n      dup1\n      iszero\n      tag_188\n      jumpi\n      returndatasize\n      0x00\n      dup1\n      returndatacopy\n      revert(0x00, returndatasize)\n    tag_188:\n      pop\n      pop\n        /* \"Utils/ReentrancyGuard.sol\":1734:1735  1 */\n      0x01\n        /* \"Utils/ReentrancyGuard.sol\":2688:2695  _status */\n      0x00\n        /* \"Utils/ReentrancyGuard.sol\":2688:2710  _status = _NOT_ENTERED */\n      sstore\n      pop\n        /* \"Ethereum/Presale.sol\":8882:10084  function ownerClaimAndRefundToken() external onlyPresaleOwner nonReentrant{\r... */\n      jump\t// out\n        /* \"Ethereum/Presale.sol\":7863:8874  function userRefundEmergency() external nonReentrant {\r... */\n    tag_77:\n        /* \"Utils/ReentrancyGuard.sol\":1778:1779  2 */\n      0x02\n        /* \"Utils/ReentrancyGuard.sol\":2376:2383  _status */\n      sload(0x00)\n        /* \"Utils/ReentrancyGuard.sol\":2376:2395  _status != _ENTERED */\n      eq\n      iszero\n        /* \"Utils/ReentrancyGuard.sol\":2368:2431  require(_status != _ENTERED, \"ReentrancyGuard: reentrant call\") */\n      tag_190\n      jumpi\n      mload(0x40)\n      shl(0xe5, 0x461bcd)\n      dup2\n      mstore\n      0x04\n      add\n      tag_144\n      swap1\n      tag_161\n      jump\t// in\n    tag_190:\n        /* \"Utils/ReentrancyGuard.sol\":1778:1779  2 */\n      0x02\n        /* \"Utils/ReentrancyGuard.sol\":2509:2516  _status */\n      0x00\n        /* \"Utils/ReentrancyGuard.sol\":2509:2527  _status = _ENTERED */\n      swap1\n      dup2\n      sstore\n        /* \"Ethereum/Presale.sol\":8022:8053  presaleStatus.totalBaseWithDraw */\n      sload(0x07)\n        /* \"Ethereum/Presale.sol\":8022:8035  presaleStatus */\n      0x04\n        /* \"Ethereum/Presale.sol\":7987:8019  presaleStatus.totalBaseCollected */\n      sload\n        /* \"Ethereum/Presale.sol\":7987:8053  presaleStatus.totalBaseCollected - presaleStatus.totalBaseWithDraw */\n      tag_193\n      swap2\n        /* \"Ethereum/Presale.sol\":8022:8053  presaleStatus.totalBaseWithDraw */\n      swap1\n        /* \"Ethereum/Presale.sol\":7987:8053  presaleStatus.totalBaseCollected - presaleStatus.totalBaseWithDraw */\n      tag_194\n      jump\t// in\n    tag_193:\n        /* \"Ethereum/Presale.sol\":7987:8057  presaleStatus.totalBaseCollected - presaleStatus.totalBaseWithDraw > 0 */\n      gt\n        /* \"Ethereum/Presale.sol\":7979:8116  require(presaleStatus.totalBaseCollected - presaleStatus.totalBaseWithDraw > 0, \r... */\n      tag_195\n      jumpi\n      mload(0x40)\n      shl(0xe5, 0x461bcd)\n      dup2\n      mstore\n      0x04\n      add\n      tag_144\n      swap1\n      tag_197\n      jump\t// in\n    tag_195:\n        /* \"Ethereum/Presale.sol\":8164:8174  msg.sender */\n      caller\n        /* \"Ethereum/Presale.sol\":8128:8151  BuyerInfo storage buyer */\n      0x00\n        /* \"Ethereum/Presale.sol\":8154:8175  buyerInfo[msg.sender] */\n      swap1\n      dup2\n      mstore\n        /* \"Ethereum/Presale.sol\":8154:8163  buyerInfo */\n      0x02\n        /* \"Ethereum/Presale.sol\":8154:8175  buyerInfo[msg.sender] */\n      0x20\n      mstore\n      0x40\n      swap1\n      keccak256\n        /* \"Ethereum/Presale.sol\":8194:8211  buyer.baseDeposit */\n      dup1\n      sload\n        /* \"Ethereum/Presale.sol\":8186:8243  require(buyer.baseDeposit > 0, \"You have not bought yet\") */\n      tag_198\n      jumpi\n      mload(0x40)\n      shl(0xe5, 0x461bcd)\n      dup2\n      mstore\n        /* \"#utility.yul\":6056:6058   */\n      0x20\n        /* \"Ethereum/Presale.sol\":8186:8243  require(buyer.baseDeposit > 0, \"You have not bought yet\") */\n      0x04\n      dup3\n      add\n        /* \"#utility.yul\":6038:6059   */\n      mstore\n        /* \"#utility.yul\":6095:6097   */\n      0x17\n        /* \"#utility.yul\":6075:6093   */\n      0x24\n      dup3\n      add\n        /* \"#utility.yul\":6068:6098   */\n      mstore\n      shl(0x4a, 0x165bdd481a185d99481b9bdd08189bdd59da1d081e595d)\n        /* \"#utility.yul\":6114:6132   */\n      0x44\n      dup3\n      add\n        /* \"#utility.yul\":6107:6160   */\n      mstore\n        /* \"#utility.yul\":6177:6195   */\n      0x64\n      add\n        /* \"Ethereum/Presale.sol\":8186:8243  require(buyer.baseDeposit > 0, \"You have not bought yet\") */\n      tag_144\n        /* \"#utility.yul\":6028:6201   */\n      jump\n        /* \"Ethereum/Presale.sol\":8186:8243  require(buyer.baseDeposit > 0, \"You have not bought yet\") */\n    tag_198:\n        /* \"Ethereum/Presale.sol\":8282:8305  buyer.totalBaseWithDraw */\n      0x04\n      dup2\n      add\n      sload\n        /* \"Ethereum/Presale.sol\":8262:8279  buyer.baseDeposit */\n      dup2\n      sload\n        /* \"Ethereum/Presale.sol\":8262:8305  buyer.baseDeposit > buyer.totalBaseWithDraw */\n      gt\n        /* \"Ethereum/Presale.sol\":8254:8324  require(buyer.baseDeposit > buyer.totalBaseWithDraw, \"You refund all\") */\n      tag_201\n      jumpi\n      mload(0x40)\n      shl(0xe5, 0x461bcd)\n      dup2\n      mstore\n        /* \"#utility.yul\":10435:10437   */\n      0x20\n        /* \"Ethereum/Presale.sol\":8254:8324  require(buyer.baseDeposit > buyer.totalBaseWithDraw, \"You refund all\") */\n      0x04\n      dup3\n      add\n        /* \"#utility.yul\":10417:10438   */\n      mstore\n        /* \"#utility.yul\":10474:10476   */\n      0x0e\n        /* \"#utility.yul\":10454:10472   */\n      0x24\n      dup3\n      add\n        /* \"#utility.yul\":10447:10477   */\n      mstore\n      shl(0x92, 0x165bdd481c99599d5b9908185b1b)\n        /* \"#utility.yul\":10493:10511   */\n      0x44\n      dup3\n      add\n        /* \"#utility.yul\":10486:10530   */\n      mstore\n        /* \"#utility.yul\":10547:10565   */\n      0x64\n      add\n        /* \"Ethereum/Presale.sol\":8254:8324  require(buyer.baseDeposit > buyer.totalBaseWithDraw, \"You refund all\") */\n      tag_144\n        /* \"#utility.yul\":10407:10571   */\n      jump\n        /* \"Ethereum/Presale.sol\":8254:8324  require(buyer.baseDeposit > buyer.totalBaseWithDraw, \"You refund all\") */\n    tag_201:\n        /* \"Ethereum/Presale.sol\":8437:8454  buyer.baseDeposit */\n      dup1\n      sload\n        /* \"Ethereum/Presale.sol\":8378:8397  saleInfor.refundFee */\n      sload(0x17)\n        /* \"Ethereum/Presale.sol\":8335:8355  uint256 amountRefund */\n      0x00\n      swap2\n        /* \"Ethereum/Presale.sol\":8358:8508  ((uint256(1000).sub(saleInfor.refundFee))\r... */\n      tag_204\n      swap2\n        /* \"Ethereum/Presale.sol\":8502:8506  1000 */\n      0x03e8\n      swap2\n        /* \"Ethereum/Presale.sol\":8359:8455  (uint256(1000).sub(saleInfor.refundFee))\r... */\n      tag_205\n      swap2\n        /* \"Ethereum/Presale.sol\":8360:8398  uint256(1000).sub(saleInfor.refundFee) */\n      tag_206\n      swap1\n        /* \"Ethereum/Presale.sol\":8502:8506  1000 */\n      dup5\n      swap1\n        /* \"Ethereum/Presale.sol\":8360:8377  uint256(1000).sub */\n      tag_170\n        /* \"Ethereum/Presale.sol\":8360:8398  uint256(1000).sub(saleInfor.refundFee) */\n      jump\t// in\n    tag_206:\n        /* \"Ethereum/Presale.sol\":8359:8436  (uint256(1000).sub(saleInfor.refundFee))\r... */\n      swap1\n      tag_207\n        /* \"Ethereum/Presale.sol\":8359:8455  (uint256(1000).sub(saleInfor.refundFee))\r... */\n      jump\t// in\n    tag_205:\n        /* \"Ethereum/Presale.sol\":8358:8493  ((uint256(1000).sub(saleInfor.refundFee))\r... */\n      swap1\n      tag_208\n        /* \"Ethereum/Presale.sol\":8358:8508  ((uint256(1000).sub(saleInfor.refundFee))\r... */\n      jump\t// in\n    tag_204:\n        /* \"Ethereum/Presale.sol\":8531:8548  buyer.baseDeposit */\n      dup3\n      sload\n        /* \"Ethereum/Presale.sol\":8335:8508  uint256 amountRefund = ((uint256(1000).sub(saleInfor.refundFee))\r... */\n      swap1\n      swap2\n      pop\n        /* \"Ethereum/Presale.sol\":8531:8563  buyer.baseDeposit - amountRefund */\n      tag_209\n      swap1\n        /* \"Ethereum/Presale.sol\":8335:8508  uint256 amountRefund = ((uint256(1000).sub(saleInfor.refundFee))\r... */\n      dup3\n      swap1\n        /* \"Ethereum/Presale.sol\":8531:8563  buyer.baseDeposit - amountRefund */\n      tag_194\n      jump\t// in\n    tag_209:\n        /* \"Ethereum/Presale.sol\":8519:8527  totalFee */\n      0x1e\n      0x00\n        /* \"Ethereum/Presale.sol\":8519:8563  totalFee += buyer.baseDeposit - amountRefund */\n      dup3\n      dup3\n      sload\n      tag_210\n      swap2\n      swap1\n      tag_211\n      jump\t// in\n    tag_210:\n      swap1\n      swap2\n      sstore\n      pop\n      pop\n        /* \"Ethereum/Presale.sol\":8574:8605  presaleStatus.totalBaseWithDraw */\n      0x07\n        /* \"Ethereum/Presale.sol\":8574:8621  presaleStatus.totalBaseWithDraw += amountRefund */\n      dup1\n      sload\n        /* \"Ethereum/Presale.sol\":8609:8621  amountRefund */\n      dup3\n      swap2\n        /* \"Ethereum/Presale.sol\":8574:8605  presaleStatus.totalBaseWithDraw */\n      swap1\n      0x00\n      swap1\n        /* \"Ethereum/Presale.sol\":8574:8621  presaleStatus.totalBaseWithDraw += amountRefund */\n      tag_212\n      swap1\n        /* \"Ethereum/Presale.sol\":8609:8621  amountRefund */\n      dup5\n      swap1\n        /* \"Ethereum/Presale.sol\":8574:8621  presaleStatus.totalBaseWithDraw += amountRefund */\n      tag_211\n      jump\t// in\n    tag_212:\n      swap3\n      pop\n      pop\n      dup2\n      swap1\n      sstore\n      pop\n        /* \"Ethereum/Presale.sol\":8659:8671  amountRefund */\n      dup1\n        /* \"Ethereum/Presale.sol\":8632:8637  buyer */\n      dup3\n        /* \"Ethereum/Presale.sol\":8632:8655  buyer.totalBaseWithDraw */\n      0x04\n      add\n      0x00\n        /* \"Ethereum/Presale.sol\":8632:8671  buyer.totalBaseWithDraw += amountRefund */\n      dup3\n      dup3\n      sload\n      tag_213\n      swap2\n      swap1\n      tag_211\n      jump\t// in\n    tag_213:\n      swap1\n      swap2\n      sstore\n      pop\n      pop\n        /* \"Ethereum/Presale.sol\":8703:8718  block.timestamp */\n      timestamp\n        /* \"Ethereum/Presale.sol\":8682:8700  buyer.lastWithDraw */\n      0x02\n      dup4\n      add\n        /* \"Ethereum/Presale.sol\":8682:8718  buyer.lastWithDraw = block.timestamp */\n      sstore\n        /* \"Ethereum/Presale.sol\":8788:8812  buyer.totalTokenWithDraw */\n      0x03\n      dup3\n      add\n      sload\n        /* \"Ethereum/Presale.sol\":8769:8785  buyer.tokenOwner */\n      0x01\n      dup4\n      add\n      sload\n        /* \"Ethereum/Presale.sol\":8769:8812  buyer.tokenOwner - buyer.totalTokenWithDraw */\n      tag_214\n      swap2\n        /* \"Ethereum/Presale.sol\":8788:8812  buyer.totalTokenWithDraw */\n      swap1\n        /* \"Ethereum/Presale.sol\":8769:8812  buyer.tokenOwner - buyer.totalTokenWithDraw */\n      tag_194\n      jump\t// in\n    tag_214:\n        /* \"Ethereum/Presale.sol\":8729:8765  presaleStatus.totalTokenBackForAdmin */\n      0x08\n        /* \"Ethereum/Presale.sol\":8729:8812  presaleStatus.totalTokenBackForAdmin += buyer.tokenOwner - buyer.totalTokenWithDraw */\n      dup1\n      sload\n        /* \"Ethereum/Presale.sol\":8729:8765  presaleStatus.totalTokenBackForAdmin */\n      0x00\n      swap1\n        /* \"Ethereum/Presale.sol\":8729:8812  presaleStatus.totalTokenBackForAdmin += buyer.tokenOwner - buyer.totalTokenWithDraw */\n      tag_215\n      swap1\n      dup5\n      swap1\n      tag_211\n      jump\t// in\n    tag_215:\n      swap1\n      swap2\n      sstore\n      pop\n      pop\n        /* \"Ethereum/Presale.sol\":8824:8866  payable(msg.sender).transfer(amountRefund) */\n      mload(0x40)\n        /* \"Ethereum/Presale.sol\":8832:8842  msg.sender */\n      caller\n      swap1\n        /* \"Ethereum/Presale.sol\":8824:8866  payable(msg.sender).transfer(amountRefund) */\n      dup3\n      iszero\n      0x08fc\n      mul\n      swap1\n        /* \"Ethereum/Presale.sol\":8853:8865  amountRefund */\n      dup4\n      swap1\n        /* \"Ethereum/Presale.sol\":8824:8866  payable(msg.sender).transfer(amountRefund) */\n      0x00\n      dup2\n      dup2\n      dup2\n        /* \"Ethereum/Presale.sol\":8853:8865  amountRefund */\n      dup6\n        /* \"Ethereum/Presale.sol\":8832:8842  msg.sender */\n      dup9\n        /* \"Ethereum/Presale.sol\":8824:8866  payable(msg.sender).transfer(amountRefund) */\n      dup9\n      call\n      swap4\n      pop\n      pop\n      pop\n      pop\n      iszero\n      dup1\n      iszero\n      tag_188\n      jumpi\n      returndatasize\n      0x00\n      dup1\n      returndatacopy\n      revert(0x00, returndatasize)\n        /* \"Ethereum/Presale.sol\":2742:4158  function initialSaleInfor(\r... */\n    tag_82:\n        /* \"Ethereum/Presale.sol\":3028:3037  saleInfor */\n      0x0f\n        /* \"Ethereum/Presale.sol\":3028:3066  saleInfor.presaleOwner = _presaleOwner */\n      dup1\n      sload\n      sub(shl(0xa0, 0x01), 0x01)\n      dup1\n      dup11\n      and\n      not(sub(shl(0xa0, 0x01), 0x01))\n      swap3\n      dup4\n      and\n      or\n      swap1\n      swap3\n      sstore\n        /* \"Ethereum/Presale.sol\":3077:3096  saleInfor.saleToken */\n      0x10\n        /* \"Ethereum/Presale.sol\":3077:3109  saleInfor.saleToken = _saleToken */\n      dup1\n      sload\n      dup10\n      dup5\n      and\n      swap1\n      dup4\n      and\n      dup2\n      or\n      swap1\n      swap2\n      sstore\n        /* \"Ethereum/Presale.sol\":3120:3139  saleInfor.baseToken */\n      0x11\n        /* \"Ethereum/Presale.sol\":3120:3152  saleInfor.baseToken = _baseTOken */\n      dup1\n      sload\n      swap4\n      dup10\n      and\n      swap4\n      swap1\n      swap3\n      and\n      swap3\n      swap1\n      swap3\n      or\n      swap1\n      sstore\n        /* \"Ethereum/Presale.sol\":3210:3247  ERC20(saleInfor.saleToken).decimals() */\n      0x40\n      dup1\n      mload\n      shl(0xe0, 0x313ce567)\n      dup2\n      mstore\n      swap1\n      mload\n        /* \"Ethereum/Presale.sol\":3210:3245  ERC20(saleInfor.saleToken).decimals */\n      0x313ce567\n      swap2\n        /* \"Ethereum/Presale.sol\":3210:3247  ERC20(saleInfor.saleToken).decimals() */\n      0x04\n      dup1\n      dup3\n      add\n      swap3\n      0x20\n      swap3\n      swap1\n      swap2\n      swap1\n      dup3\n      swap1\n      sub\n      add\n      dup2\n        /* \"Ethereum/Presale.sol\":3077:3109  saleInfor.saleToken = _saleToken */\n      dup7\n        /* \"Ethereum/Presale.sol\":3210:3247  ERC20(saleInfor.saleToken).decimals() */\n      dup1\n      extcodesize\n      iszero\n      dup1\n      iszero\n      tag_219\n      jumpi\n      0x00\n      dup1\n      revert\n    tag_219:\n      pop\n      gas\n      staticcall\n      iszero\n      dup1\n      iszero\n      tag_221\n      jumpi\n      returndatasize\n      0x00\n      dup1\n      returndatacopy\n      revert(0x00, returndatasize)\n    tag_221:\n      pop\n      pop\n      pop\n      pop\n      mload(0x40)\n      returndatasize\n      not(0x1f)\n      0x1f\n      dup3\n      add\n      and\n      dup3\n      add\n      dup1\n      0x40\n      mstore\n      pop\n      dup2\n      add\n      swap1\n      tag_222\n      swap2\n      swap1\n      tag_168\n      jump\t// in\n    tag_222:\n        /* \"Ethereum/Presale.sol\":3197:3248  10** uint256(ERC20(saleInfor.saleToken).decimals()) */\n      tag_223\n      swap1\n        /* \"Ethereum/Presale.sol\":3197:3199  10 */\n      0x0a\n        /* \"Ethereum/Presale.sol\":3197:3248  10** uint256(ERC20(saleInfor.saleToken).decimals()) */\n      tag_224\n      jump\t// in\n    tag_223:\n        /* \"Ethereum/Presale.sol\":3186:3194  datas[0] */\n      dup5\n      mload\n        /* \"Ethereum/Presale.sol\":3186:3248  datas[0] * 10** uint256(ERC20(saleInfor.saleToken).decimals()) */\n      tag_228\n      swap2\n      swap1\n      tag_229\n      jump\t// in\n    tag_228:\n        /* \"Ethereum/Presale.sol\":3163:3183  saleInfor.tokenPrice */\n      0x12\n        /* \"Ethereum/Presale.sol\":3163:3248  saleInfor.tokenPrice = datas[0] * 10** uint256(ERC20(saleInfor.saleToken).decimals()) */\n      sstore\n        /* \"Ethereum/Presale.sol\":3281:3289  datas[1] */\n      0x20\n      dup1\n      dup6\n      add\n      mload\n        /* \"Ethereum/Presale.sol\":3259:3278  saleInfor.startSale */\n      0x13\n        /* \"Ethereum/Presale.sol\":3259:3289  saleInfor.startSale = datas[1] */\n      sstore\n        /* \"Ethereum/Presale.sol\":3320:3328  datas[2] */\n      0x40\n      dup1\n      dup7\n      add\n      mload\n        /* \"Ethereum/Presale.sol\":3300:3317  saleInfor.endSale */\n      0x14\n        /* \"Ethereum/Presale.sol\":3300:3328  saleInfor.endSale = datas[2] */\n      sstore\n        /* \"Ethereum/Presale.sol\":3368:3376  datas[3] */\n      0x60\n      dup7\n      add\n      mload\n        /* \"Ethereum/Presale.sol\":3339:3365  saleInfor.minSpendPerBuyer */\n      0x15\n        /* \"Ethereum/Presale.sol\":3339:3376  saleInfor.minSpendPerBuyer = datas[3] */\n      sstore\n        /* \"Ethereum/Presale.sol\":3447:3466  saleInfor.baseToken */\n      sload(0x11)\n        /* \"Ethereum/Presale.sol\":3441:3478  ERC20(saleInfor.baseToken).decimals() */\n      dup2\n      mload\n      shl(0xe0, 0x313ce567)\n      dup2\n      mstore\n      swap2\n      mload\n      sub(shl(0xa0, 0x01), 0x01)\n        /* \"Ethereum/Presale.sol\":3447:3466  saleInfor.baseToken */\n      swap1\n      swap2\n      and\n      swap3\n        /* \"Ethereum/Presale.sol\":3441:3476  ERC20(saleInfor.baseToken).decimals */\n      0x313ce567\n      swap3\n        /* \"Ethereum/Presale.sol\":3441:3478  ERC20(saleInfor.baseToken).decimals() */\n      0x04\n      dup1\n      dup3\n      add\n      swap4\n      swap2\n      dup3\n      swap1\n      sub\n      add\n      dup2\n        /* \"Ethereum/Presale.sol\":3447:3466  saleInfor.baseToken */\n      dup7\n        /* \"Ethereum/Presale.sol\":3441:3478  ERC20(saleInfor.baseToken).decimals() */\n      dup1\n      extcodesize\n      iszero\n      dup1\n      iszero\n      tag_236\n      jumpi\n      0x00\n      dup1\n      revert\n    tag_236:\n      pop\n      gas\n      staticcall\n      iszero\n      dup1\n      iszero\n      tag_238\n      jumpi\n      returndatasize\n      0x00\n      dup1\n      returndatacopy\n      revert(0x00, returndatasize)\n    tag_238:\n      pop\n      pop\n      pop\n      pop\n      mload(0x40)\n      returndatasize\n      not(0x1f)\n      0x1f\n      dup3\n      add\n      and\n      dup3\n      add\n      dup1\n      0x40\n      mstore\n      pop\n      dup2\n      add\n      swap1\n      tag_239\n      swap2\n      swap1\n      tag_168\n      jump\t// in\n    tag_239:\n        /* \"Ethereum/Presale.sol\":3427:3479  10 ** uint256(ERC20(saleInfor.baseToken).decimals()) */\n      tag_240\n      swap1\n        /* \"Ethereum/Presale.sol\":3427:3429  10 */\n      0x0a\n        /* \"Ethereum/Presale.sol\":3427:3479  10 ** uint256(ERC20(saleInfor.baseToken).decimals()) */\n      tag_224\n      jump\t// in\n    tag_240:\n        /* \"Ethereum/Presale.sol\":3416:3424  datas[4] */\n      0x80\n      dup6\n      add\n      mload\n        /* \"Ethereum/Presale.sol\":3416:3479  datas[4] * 10 ** uint256(ERC20(saleInfor.baseToken).decimals()) */\n      tag_243\n      swap2\n      swap1\n      tag_229\n      jump\t// in\n    tag_243:\n        /* \"Ethereum/Presale.sol\":3387:3413  saleInfor.maxSpendPerBuyer */\n      0x16\n        /* \"Ethereum/Presale.sol\":3387:3479  saleInfor.maxSpendPerBuyer = datas[4] * 10 ** uint256(ERC20(saleInfor.baseToken).decimals()) */\n      sstore\n        /* \"Ethereum/Presale.sol\":3512:3520  datas[5] */\n      0xa0\n      dup5\n      add\n      mload\n        /* \"Ethereum/Presale.sol\":3490:3509  saleInfor.refundFee */\n      0x17\n        /* \"Ethereum/Presale.sol\":3490:3520  saleInfor.refundFee = datas[5] */\n      sstore\n        /* \"Ethereum/Presale.sol\":3552:3560  datas[6] */\n      0xc0\n      dup5\n      add\n      mload\n        /* \"Ethereum/Presale.sol\":3531:3549  saleInfor.claimFee */\n      0x18\n        /* \"Ethereum/Presale.sol\":3531:3560  saleInfor.claimFee = datas[6] */\n      sstore\n        /* \"Ethereum/Presale.sol\":3628:3647  saleInfor.baseToken */\n      sload(0x11)\n        /* \"Ethereum/Presale.sol\":3622:3659  ERC20(saleInfor.baseToken).decimals() */\n      0x40\n      dup1\n      mload\n      shl(0xe0, 0x313ce567)\n      dup2\n      mstore\n      swap1\n      mload\n      sub(shl(0xa0, 0x01), 0x01)\n        /* \"Ethereum/Presale.sol\":3628:3647  saleInfor.baseToken */\n      swap1\n      swap3\n      and\n      swap2\n        /* \"Ethereum/Presale.sol\":3622:3657  ERC20(saleInfor.baseToken).decimals */\n      0x313ce567\n      swap2\n        /* \"Ethereum/Presale.sol\":3622:3659  ERC20(saleInfor.baseToken).decimals() */\n      0x04\n      dup1\n      dup3\n      add\n      swap3\n        /* \"Ethereum/Presale.sol\":3512:3520  datas[5] */\n      0x20\n      swap3\n        /* \"Ethereum/Presale.sol\":3622:3659  ERC20(saleInfor.baseToken).decimals() */\n      swap1\n      swap2\n      swap1\n      dup3\n      swap1\n      sub\n      add\n      dup2\n        /* \"Ethereum/Presale.sol\":3628:3647  saleInfor.baseToken */\n      dup7\n        /* \"Ethereum/Presale.sol\":3622:3659  ERC20(saleInfor.baseToken).decimals() */\n      dup1\n      extcodesize\n      iszero\n      dup1\n      iszero\n      tag_248\n      jumpi\n      0x00\n      dup1\n      revert\n    tag_248:\n      pop\n      gas\n      staticcall\n      iszero\n      dup1\n      iszero\n      tag_250\n      jumpi\n      returndatasize\n      0x00\n      dup1\n      returndatacopy\n      revert(0x00, returndatasize)\n    tag_250:\n      pop\n      pop\n      pop\n      pop\n      mload(0x40)\n      returndatasize\n      not(0x1f)\n      0x1f\n      dup3\n      add\n      and\n      dup3\n      add\n      dup1\n      0x40\n      mstore\n      pop\n      dup2\n      add\n      swap1\n      tag_251\n      swap2\n      swap1\n      tag_168\n      jump\t// in\n    tag_251:\n        /* \"Ethereum/Presale.sol\":3608:3660  10 ** uint256(ERC20(saleInfor.baseToken).decimals()) */\n      tag_252\n      swap1\n        /* \"Ethereum/Presale.sol\":3608:3610  10 */\n      0x0a\n        /* \"Ethereum/Presale.sol\":3608:3660  10 ** uint256(ERC20(saleInfor.baseToken).decimals()) */\n      tag_224\n      jump\t// in\n    tag_252:\n        /* \"Ethereum/Presale.sol\":3597:3605  datas[7] */\n      0xe0\n      dup6\n      add\n      mload\n        /* \"Ethereum/Presale.sol\":3597:3660  datas[7] * 10 ** uint256(ERC20(saleInfor.baseToken).decimals()) */\n      tag_255\n      swap2\n      swap1\n      tag_229\n      jump\t// in\n    tag_255:\n        /* \"Ethereum/Presale.sol\":3571:3586  saleTotalSupply */\n      0x0d\n        /* \"Ethereum/Presale.sol\":3571:3660  saleTotalSupply.hardCap = datas[7] * 10 ** uint256(ERC20(saleInfor.baseToken).decimals()) */\n      sstore\n        /* \"Ethereum/Presale.sol\":3727:3746  saleInfor.baseToken */\n      sload(0x11)\n        /* \"Ethereum/Presale.sol\":3721:3758  ERC20(saleInfor.baseToken).decimals() */\n      0x40\n      dup1\n      mload\n      shl(0xe0, 0x313ce567)\n      dup2\n      mstore\n      swap1\n      mload\n      sub(shl(0xa0, 0x01), 0x01)\n        /* \"Ethereum/Presale.sol\":3727:3746  saleInfor.baseToken */\n      swap1\n      swap3\n      and\n      swap2\n        /* \"Ethereum/Presale.sol\":3721:3756  ERC20(saleInfor.baseToken).decimals */\n      0x313ce567\n      swap2\n        /* \"Ethereum/Presale.sol\":3721:3758  ERC20(saleInfor.baseToken).decimals() */\n      0x04\n      dup1\n      dup3\n      add\n      swap3\n      0x20\n      swap3\n      swap1\n      swap2\n      swap1\n      dup3\n      swap1\n      sub\n      add\n      dup2\n        /* \"Ethereum/Presale.sol\":3727:3746  saleInfor.baseToken */\n      dup7\n        /* \"Ethereum/Presale.sol\":3721:3758  ERC20(saleInfor.baseToken).decimals() */\n      dup1\n      extcodesize\n      iszero\n      dup1\n      iszero\n      tag_256\n      jumpi\n      0x00\n      dup1\n      revert\n    tag_256:\n      pop\n      gas\n      staticcall\n      iszero\n      dup1\n      iszero\n      tag_258\n      jumpi\n      returndatasize\n      0x00\n      dup1\n      returndatacopy\n      revert(0x00, returndatasize)\n    tag_258:\n      pop\n      pop\n      pop\n      pop\n      mload(0x40)\n      returndatasize\n      not(0x1f)\n      0x1f\n      dup3\n      add\n      and\n      dup3\n      add\n      dup1\n      0x40\n      mstore\n      pop\n      dup2\n      add\n      swap1\n      tag_259\n      swap2\n      swap1\n      tag_168\n      jump\t// in\n    tag_259:\n        /* \"Ethereum/Presale.sol\":3708:3759  10** uint256(ERC20(saleInfor.baseToken).decimals()) */\n      tag_260\n      swap1\n        /* \"Ethereum/Presale.sol\":3708:3710  10 */\n      0x0a\n        /* \"Ethereum/Presale.sol\":3708:3759  10** uint256(ERC20(saleInfor.baseToken).decimals()) */\n      tag_224\n      jump\t// in\n    tag_260:\n        /* \"Ethereum/Presale.sol\":3697:3705  datas[8] */\n      0x0100\n      dup6\n      add\n      mload\n        /* \"Ethereum/Presale.sol\":3697:3759  datas[8] * 10** uint256(ERC20(saleInfor.baseToken).decimals()) */\n      tag_263\n      swap2\n      swap1\n      tag_229\n      jump\t// in\n    tag_263:\n        /* \"Ethereum/Presale.sol\":3671:3694  saleTotalSupply.softCap */\n      0x0e\n        /* \"Ethereum/Presale.sol\":3671:3759  saleTotalSupply.softCap = datas[8] * 10** uint256(ERC20(saleInfor.baseToken).decimals()) */\n      sstore\n        /* \"Ethereum/Presale.sol\":3823:3842  saleInfor.baseToken */\n      sload(0x11)\n        /* \"Ethereum/Presale.sol\":3806:3810  WETH */\n      sload(0x1b)\n        /* \"Ethereum/Presale.sol\":3770:3795  saleInfor.saleIsBaseToken */\n      0x19\n        /* \"Ethereum/Presale.sol\":3770:3843  saleInfor.saleIsBaseToken = address(WETH) == address(saleInfor.baseToken) */\n      dup1\n      sload\n      not(0xff)\n      and\n      sub(shl(0xa0, 0x01), 0x01)\n        /* \"Ethereum/Presale.sol\":3806:3810  WETH */\n      swap3\n      dup4\n      and\n        /* \"Ethereum/Presale.sol\":3823:3842  saleInfor.baseToken */\n      swap3\n      swap1\n      swap4\n      and\n        /* \"Ethereum/Presale.sol\":3798:3843  address(WETH) == address(saleInfor.baseToken) */\n      swap2\n      dup3\n      eq\n        /* \"Ethereum/Presale.sol\":3770:3843  saleInfor.saleIsBaseToken = address(WETH) == address(saleInfor.baseToken) */\n      swap3\n      swap1\n      swap3\n      or\n      swap1\n      swap2\n      sstore\n        /* \"Ethereum/Presale.sol\":3990:4027  ERC20(saleInfor.baseToken).decimals() */\n      0x40\n      dup1\n      mload\n      shl(0xe0, 0x313ce567)\n      dup2\n      mstore\n      swap1\n      mload\n        /* \"Ethereum/Presale.sol\":3990:4025  ERC20(saleInfor.baseToken).decimals */\n      0x313ce567\n      swap2\n        /* \"Ethereum/Presale.sol\":3990:4027  ERC20(saleInfor.baseToken).decimals() */\n      0x04\n      dup1\n      dup3\n      add\n      swap3\n      0x20\n      swap3\n      swap1\n      swap2\n      swap1\n      dup3\n      swap1\n      sub\n      add\n      dup2\n        /* \"Ethereum/Presale.sol\":3823:3842  saleInfor.baseToken */\n      dup7\n        /* \"Ethereum/Presale.sol\":3990:4027  ERC20(saleInfor.baseToken).decimals() */\n      dup1\n      extcodesize\n      iszero\n      dup1\n      iszero\n      tag_264\n      jumpi\n      0x00\n      dup1\n      revert\n    tag_264:\n      pop\n      gas\n      staticcall\n      iszero\n      dup1\n      iszero\n      tag_266\n      jumpi\n      returndatasize\n      0x00\n      dup1\n      returndatacopy\n      revert(0x00, returndatasize)\n    tag_266:\n      pop\n      pop\n      pop\n      pop\n      mload(0x40)\n      returndatasize\n      not(0x1f)\n      0x1f\n      dup3\n      add\n      and\n      dup3\n      add\n      dup1\n      0x40\n      mstore\n      pop\n      dup2\n      add\n      swap1\n      tag_267\n      swap2\n      swap1\n      tag_168\n      jump\t// in\n    tag_267:\n        /* \"Ethereum/Presale.sol\":3977:4028  10** uint256(ERC20(saleInfor.baseToken).decimals()) */\n      tag_268\n      swap1\n        /* \"Ethereum/Presale.sol\":3977:3979  10 */\n      0x0a\n        /* \"Ethereum/Presale.sol\":3977:4028  10** uint256(ERC20(saleInfor.baseToken).decimals()) */\n      tag_224\n      jump\t// in\n    tag_268:\n        /* \"Ethereum/Presale.sol\":3910:3925  saleTotalSupply */\n      0x0d\n        /* \"Ethereum/Presale.sol\":3910:3933  saleTotalSupply.hardCap */\n      sload\n        /* \"Ethereum/Presale.sol\":3885:3905  saleInfor.tokenPrice */\n      sload(0x12)\n        /* \"Ethereum/Presale.sol\":3885:3934  saleInfor.tokenPrice.mul(saleTotalSupply.hardCap) */\n      tag_269\n      swap2\n        /* \"Ethereum/Presale.sol\":3885:3909  saleInfor.tokenPrice.mul */\n      tag_207\n        /* \"Ethereum/Presale.sol\":3885:3934  saleInfor.tokenPrice.mul(saleTotalSupply.hardCap) */\n      jump\t// in\n    tag_269:\n        /* \"Ethereum/Presale.sol\":3885:4029  saleInfor.tokenPrice.mul(saleTotalSupply.hardCap)/\r... */\n      tag_270\n      swap2\n      swap1\n      tag_271\n      jump\t// in\n    tag_270:\n        /* \"Ethereum/Presale.sol\":3854:3882  saleInfor.amountTokenForSale */\n      0x1a\n        /* \"Ethereum/Presale.sol\":3854:4029  saleInfor.amountTokenForSale = saleInfor.tokenPrice.mul(saleTotalSupply.hardCap)/\r... */\n      sstore\n        /* \"Ethereum/Presale.sol\":4040:4049  feeAnyone */\n      0x1f\n        /* \"Ethereum/Presale.sol\":4040:4062  feeAnyone = _feeAnyone */\n      swap3\n      swap1\n      swap3\n      sstore\n        /* \"Ethereum/Presale.sol\":4073:4088  adminReceiveFee */\n      0x20\n        /* \"Ethereum/Presale.sol\":4073:4107  adminReceiveFee = _adminReceiveFee */\n      dup1\n      sload\n      not(sub(shl(0xa0, 0x01), 0x01))\n      and\n      sub(shl(0xa0, 0x01), 0x01)\n      swap3\n      swap1\n      swap3\n      and\n      swap2\n      swap1\n      swap2\n      or\n      swap1\n      sstore\n        /* \"Ethereum/Presale.sol\":4118:4131  feeCreateSale */\n      0x21\n        /* \"Ethereum/Presale.sol\":4118:4148  feeCreateSale = _feeCreateSale */\n      sstore\n      pop\n      pop\n      pop\n      pop\n        /* \"Ethereum/Presale.sol\":2742:4158  function initialSaleInfor(\r... */\n      jump\t// out\n        /* \"Ethereum/Presale.sol\":6851:7855  function userClaimEmergency() external nonReentrant {\r... */\n    tag_85:\n        /* \"Utils/ReentrancyGuard.sol\":1778:1779  2 */\n      0x02\n        /* \"Utils/ReentrancyGuard.sol\":2376:2383  _status */\n      sload(0x00)\n        /* \"Utils/ReentrancyGuard.sol\":2376:2395  _status != _ENTERED */\n      eq\n      iszero\n        /* \"Utils/ReentrancyGuard.sol\":2368:2431  require(_status != _ENTERED, \"ReentrancyGuard: reentrant call\") */\n      tag_273\n      jumpi\n      mload(0x40)\n      shl(0xe5, 0x461bcd)\n      dup2\n      mstore\n      0x04\n      add\n      tag_144\n      swap1\n      tag_161\n      jump\t// in\n    tag_273:\n        /* \"Utils/ReentrancyGuard.sol\":1778:1779  2 */\n      0x02\n        /* \"Utils/ReentrancyGuard.sol\":2509:2516  _status */\n      0x00\n        /* \"Utils/ReentrancyGuard.sol\":2509:2527  _status = _ENTERED */\n      swap1\n      dup2\n      sstore\n        /* \"Ethereum/Presale.sol\":7006:7038  presaleStatus.totalTokenWithDraw */\n      sload(0x06)\n        /* \"Ethereum/Presale.sol\":6975:7003  presaleStatus.totalTokenSold */\n      sload(0x05)\n        /* \"Ethereum/Presale.sol\":6975:7038  presaleStatus.totalTokenSold - presaleStatus.totalTokenWithDraw */\n      tag_276\n      swap2\n        /* \"Ethereum/Presale.sol\":7006:7038  presaleStatus.totalTokenWithDraw */\n      swap1\n        /* \"Ethereum/Presale.sol\":6975:7038  presaleStatus.totalTokenSold - presaleStatus.totalTokenWithDraw */\n      tag_194\n      jump\t// in\n    tag_276:\n        /* \"Ethereum/Presale.sol\":6975:7042  presaleStatus.totalTokenSold - presaleStatus.totalTokenWithDraw > 0 */\n      gt\n        /* \"Ethereum/Presale.sol\":6967:7101  require(presaleStatus.totalTokenSold - presaleStatus.totalTokenWithDraw > 0, \r... */\n      tag_277\n      jumpi\n      mload(0x40)\n      shl(0xe5, 0x461bcd)\n      dup2\n      mstore\n      0x04\n      add\n      tag_144\n      swap1\n      tag_197\n      jump\t// in\n    tag_277:\n        /* \"Ethereum/Presale.sol\":7148:7158  msg.sender */\n      caller\n        /* \"Ethereum/Presale.sol\":7112:7135  BuyerInfo storage buyer */\n      0x00\n        /* \"Ethereum/Presale.sol\":7138:7159  buyerInfo[msg.sender] */\n      swap1\n      dup2\n      mstore\n        /* \"Ethereum/Presale.sol\":7138:7147  buyerInfo */\n      0x02\n        /* \"Ethereum/Presale.sol\":7138:7159  buyerInfo[msg.sender] */\n      0x20\n      mstore\n      0x40\n      swap1\n      keccak256\n        /* \"Ethereum/Presale.sol\":7178:7194  buyer.tokenOwner */\n      0x01\n      dup2\n      add\n      sload\n        /* \"Ethereum/Presale.sol\":7170:7226  require(buyer.tokenOwner > 0, \"You have not bought yet\") */\n      tag_279\n      jumpi\n      mload(0x40)\n      shl(0xe5, 0x461bcd)\n      dup2\n      mstore\n        /* \"#utility.yul\":6056:6058   */\n      0x20\n        /* \"Ethereum/Presale.sol\":7170:7226  require(buyer.tokenOwner > 0, \"You have not bought yet\") */\n      0x04\n      dup3\n      add\n        /* \"#utility.yul\":6038:6059   */\n      mstore\n        /* \"#utility.yul\":6095:6097   */\n      0x17\n        /* \"#utility.yul\":6075:6093   */\n      0x24\n      dup3\n      add\n        /* \"#utility.yul\":6068:6098   */\n      mstore\n      shl(0x4a, 0x165bdd481a185d99481b9bdd08189bdd59da1d081e595d)\n        /* \"#utility.yul\":6114:6132   */\n      0x44\n      dup3\n      add\n        /* \"#utility.yul\":6107:6160   */\n      mstore\n        /* \"#utility.yul\":6177:6195   */\n      0x64\n      add\n        /* \"Ethereum/Presale.sol\":7170:7226  require(buyer.tokenOwner > 0, \"You have not bought yet\") */\n      tag_144\n        /* \"#utility.yul\":6028:6201   */\n      jump\n        /* \"Ethereum/Presale.sol\":7170:7226  require(buyer.tokenOwner > 0, \"You have not bought yet\") */\n    tag_279:\n        /* \"Ethereum/Presale.sol\":7264:7269  buyer */\n      dup1\n        /* \"Ethereum/Presale.sol\":7264:7288  buyer.totalTokenWithDraw */\n      0x03\n      add\n      sload\n        /* \"Ethereum/Presale.sol\":7245:7250  buyer */\n      dup2\n        /* \"Ethereum/Presale.sol\":7245:7261  buyer.tokenOwner */\n      0x01\n      add\n      sload\n        /* \"Ethereum/Presale.sol\":7245:7288  buyer.tokenOwner > buyer.totalTokenWithDraw */\n      gt\n        /* \"Ethereum/Presale.sol\":7237:7307  require(buyer.tokenOwner > buyer.totalTokenWithDraw, \"You claim alll\") */\n      tag_281\n      jumpi\n      mload(0x40)\n      shl(0xe5, 0x461bcd)\n      dup2\n      mstore\n        /* \"#utility.yul\":7885:7887   */\n      0x20\n        /* \"Ethereum/Presale.sol\":7237:7307  require(buyer.tokenOwner > buyer.totalTokenWithDraw, \"You claim alll\") */\n      0x04\n      dup3\n      add\n        /* \"#utility.yul\":7867:7888   */\n      mstore\n        /* \"#utility.yul\":7924:7926   */\n      0x0e\n        /* \"#utility.yul\":7904:7922   */\n      0x24\n      dup3\n      add\n        /* \"#utility.yul\":7897:7927   */\n      mstore\n      shl(0x92, 0x165bdd4818db185a5b48185b1b1b)\n        /* \"#utility.yul\":7943:7961   */\n      0x44\n      dup3\n      add\n        /* \"#utility.yul\":7936:7980   */\n      mstore\n        /* \"#utility.yul\":7997:8015   */\n      0x64\n      add\n        /* \"Ethereum/Presale.sol\":7237:7307  require(buyer.tokenOwner > buyer.totalTokenWithDraw, \"You claim alll\") */\n      tag_144\n        /* \"#utility.yul\":7857:8021   */\n      jump\n        /* \"Ethereum/Presale.sol\":7237:7307  require(buyer.tokenOwner > buyer.totalTokenWithDraw, \"You claim alll\") */\n    tag_281:\n        /* \"Ethereum/Presale.sol\":7318:7337  uint256 amountClaim */\n      0x00\n        /* \"Ethereum/Presale.sol\":7340:7476  ((uint256(1000).sub(saleInfor.claimFee))\r... */\n      tag_284\n        /* \"Ethereum/Presale.sol\":7470:7474  1000 */\n      0x03e8\n        /* \"Ethereum/Presale.sol\":7341:7429  (uint256(1000).sub(saleInfor.claimFee))\r... */\n      tag_205\n        /* \"Ethereum/Presale.sol\":7412:7417  buyer */\n      dup5\n        /* \"Ethereum/Presale.sol\":7412:7428  buyer.tokenOwner */\n      0x01\n      add\n      sload\n        /* \"Ethereum/Presale.sol\":7342:7379  uint256(1000).sub(saleInfor.claimFee) */\n      tag_206\n        /* \"Ethereum/Presale.sol\":7360:7369  saleInfor */\n      0x0f\n        /* \"Ethereum/Presale.sol\":7360:7378  saleInfor.claimFee */\n      0x09\n      add\n      sload\n        /* \"Ethereum/Presale.sol\":7350:7354  1000 */\n      0x03e8\n        /* \"Ethereum/Presale.sol\":7342:7359  uint256(1000).sub */\n      tag_170\n      swap1\n        /* \"Ethereum/Presale.sol\":7342:7379  uint256(1000).sub(saleInfor.claimFee) */\n      swap2\n      swap1\n      0xffffffff\n      and\n      jump\t// in\n        /* \"Ethereum/Presale.sol\":7340:7476  ((uint256(1000).sub(saleInfor.claimFee))\r... */\n    tag_284:\n        /* \"Ethereum/Presale.sol\":7318:7476  uint256 amountClaim = ((uint256(1000).sub(saleInfor.claimFee))\r... */\n      swap1\n      pop\n        /* \"Ethereum/Presale.sol\":7523:7534  amountClaim */\n      dup1\n        /* \"Ethereum/Presale.sol\":7487:7500  presaleStatus */\n      0x04\n        /* \"Ethereum/Presale.sol\":7487:7519  presaleStatus.totalTokenWithDraw */\n      0x02\n      add\n      0x00\n        /* \"Ethereum/Presale.sol\":7487:7534  presaleStatus.totalTokenWithDraw += amountClaim */\n      dup3\n      dup3\n      sload\n      tag_287\n      swap2\n      swap1\n      tag_211\n      jump\t// in\n    tag_287:\n      swap1\n      swap2\n      sstore\n      pop\n      pop\n        /* \"Ethereum/Presale.sol\":7545:7573  saleInfor.amountTokenForSale */\n      0x1a\n        /* \"Ethereum/Presale.sol\":7545:7588  saleInfor.amountTokenForSale -= amountClaim */\n      dup1\n      sload\n        /* \"Ethereum/Presale.sol\":7577:7588  amountClaim */\n      dup3\n      swap2\n        /* \"Ethereum/Presale.sol\":7545:7573  saleInfor.amountTokenForSale */\n      swap1\n      0x00\n      swap1\n        /* \"Ethereum/Presale.sol\":7545:7588  saleInfor.amountTokenForSale -= amountClaim */\n      tag_288\n      swap1\n        /* \"Ethereum/Presale.sol\":7577:7588  amountClaim */\n      dup5\n      swap1\n        /* \"Ethereum/Presale.sol\":7545:7588  saleInfor.amountTokenForSale -= amountClaim */\n      tag_194\n      jump\t// in\n    tag_288:\n      swap3\n      pop\n      pop\n      dup2\n      swap1\n      sstore\n      pop\n        /* \"Ethereum/Presale.sol\":7627:7638  amountClaim */\n      dup1\n        /* \"Ethereum/Presale.sol\":7599:7604  buyer */\n      dup3\n        /* \"Ethereum/Presale.sol\":7599:7623  buyer.totalTokenWithDraw */\n      0x03\n      add\n      0x00\n        /* \"Ethereum/Presale.sol\":7599:7638  buyer.totalTokenWithDraw += amountClaim */\n      dup3\n      dup3\n      sload\n      tag_289\n      swap2\n      swap1\n      tag_211\n      jump\t// in\n    tag_289:\n      swap1\n      swap2\n      sstore\n      pop\n      pop\n        /* \"Ethereum/Presale.sol\":7670:7685  block.timestamp */\n      timestamp\n        /* \"Ethereum/Presale.sol\":7649:7667  buyer.lastWithDraw */\n      0x02\n      dup4\n      add\n        /* \"Ethereum/Presale.sol\":7649:7685  buyer.lastWithDraw = block.timestamp */\n      sstore\n        /* \"Ethereum/Presale.sol\":7753:7776  buyer.totalBaseWithDraw */\n      0x04\n      dup3\n      add\n      sload\n        /* \"Ethereum/Presale.sol\":7735:7752  buyer.baseDeposit */\n      dup3\n      sload\n        /* \"Ethereum/Presale.sol\":7735:7776  buyer.baseDeposit-buyer.totalBaseWithDraw */\n      tag_290\n      swap2\n        /* \"Ethereum/Presale.sol\":7753:7776  buyer.totalBaseWithDraw */\n      swap1\n        /* \"Ethereum/Presale.sol\":7735:7776  buyer.baseDeposit-buyer.totalBaseWithDraw */\n      tag_194\n      jump\t// in\n    tag_290:\n        /* \"Ethereum/Presale.sol\":7696:7731  presaleStatus.totalBaseBackForAdmin */\n      0x09\n        /* \"Ethereum/Presale.sol\":7696:7776  presaleStatus.totalBaseBackForAdmin += buyer.baseDeposit-buyer.totalBaseWithDraw */\n      dup1\n      sload\n        /* \"Ethereum/Presale.sol\":7696:7731  presaleStatus.totalBaseBackForAdmin */\n      0x00\n      swap1\n        /* \"Ethereum/Presale.sol\":7696:7776  presaleStatus.totalBaseBackForAdmin += buyer.baseDeposit-buyer.totalBaseWithDraw */\n      tag_291\n      swap1\n      dup5\n      swap1\n      tag_211\n      jump\t// in\n    tag_291:\n      swap1\n      swap2\n      sstore\n      pop\n      pop\n        /* \"Ethereum/Presale.sol\":7793:7812  saleInfor.saleToken */\n      sload(0x10)\n        /* \"Ethereum/Presale.sol\":7787:7847  ERC20(saleInfor.saleToken).transfer(msg.sender, amountClaim) */\n      mload(0x40)\n      shl(0xe0, 0xa9059cbb)\n      dup2\n      mstore\n        /* \"Ethereum/Presale.sol\":7823:7833  msg.sender */\n      caller\n        /* \"Ethereum/Presale.sol\":7787:7847  ERC20(saleInfor.saleToken).transfer(msg.sender, amountClaim) */\n      0x04\n      dup3\n      add\n        /* \"#utility.yul\":4676:4727   */\n      mstore\n        /* \"#utility.yul\":4743:4761   */\n      0x24\n      dup2\n      add\n        /* \"#utility.yul\":4736:4770   */\n      dup4\n      swap1\n      mstore\n      sub(shl(0xa0, 0x01), 0x01)\n        /* \"Ethereum/Presale.sol\":7793:7812  saleInfor.saleToken */\n      swap1\n      swap2\n      and\n      swap1\n        /* \"Ethereum/Presale.sol\":7787:7822  ERC20(saleInfor.saleToken).transfer */\n      0xa9059cbb\n      swap1\n        /* \"#utility.yul\":4649:4667   */\n      0x44\n      add\n        /* \"Ethereum/Presale.sol\":7787:7847  ERC20(saleInfor.saleToken).transfer(msg.sender, amountClaim) */\n      0x20\n      mload(0x40)\n      dup1\n      dup4\n      sub\n      dup2\n      0x00\n      dup8\n      dup1\n      extcodesize\n      iszero\n      dup1\n      iszero\n      tag_294\n      jumpi\n      0x00\n      dup1\n      revert\n    tag_294:\n      pop\n      gas\n      call\n      iszero\n      dup1\n      iszero\n      tag_296\n      jumpi\n      returndatasize\n      0x00\n      dup1\n      returndatacopy\n      revert(0x00, returndatasize)\n    tag_296:\n      pop\n      pop\n      pop\n      pop\n      mload(0x40)\n      returndatasize\n      not(0x1f)\n      0x1f\n      dup3\n      add\n      and\n      dup3\n      add\n      dup1\n      0x40\n      mstore\n      pop\n      dup2\n      add\n      swap1\n      tag_188\n      swap2\n      swap1\n      tag_186\n      jump\t// in\n        /* \"Ethereum/Presale.sol\":4631:6843  function deposit(uint256 _amount) external payable nonReentrant {\r... */\n    tag_103:\n        /* \"Utils/ReentrancyGuard.sol\":1778:1779  2 */\n      0x02\n        /* \"Utils/ReentrancyGuard.sol\":2376:2383  _status */\n      sload(0x00)\n        /* \"Utils/ReentrancyGuard.sol\":2376:2395  _status != _ENTERED */\n      eq\n      iszero\n        /* \"Utils/ReentrancyGuard.sol\":2368:2431  require(_status != _ENTERED, \"ReentrancyGuard: reentrant call\") */\n      tag_299\n      jumpi\n      mload(0x40)\n      shl(0xe5, 0x461bcd)\n      dup2\n      mstore\n      0x04\n      add\n      tag_144\n      swap1\n      tag_161\n      jump\t// in\n    tag_299:\n        /* \"Utils/ReentrancyGuard.sol\":1778:1779  2 */\n      0x02\n        /* \"Utils/ReentrancyGuard.sol\":2509:2516  _status */\n      0x00\n        /* \"Utils/ReentrancyGuard.sol\":2509:2527  _status = _ENTERED */\n      dup2\n      dup2\n      sstore\n        /* \"Ethereum/Presale.sol\":4802:4812  msg.sender */\n      caller\n        /* \"Ethereum/Presale.sol\":4792:4813  buyerInfo[msg.sender] */\n      dup2\n      mstore\n      0x20\n      swap2\n      swap1\n      swap2\n      mstore\n      0x40\n      dup2\n      keccak256\n      swap1\n        /* \"Ethereum/Presale.sol\":4844:4851  _amount */\n      dup3\n      swap1\n      dup2\n      swap1\n        /* \"Ethereum/Presale.sol\":4957:4961  1000 */\n      0x03e8\n        /* \"Ethereum/Presale.sol\":4980:4989  msg.value */\n      callvalue\n        /* \"Ethereum/Presale.sol\":4980:5007  msg.value >= real_amount_in */\n      dup4\n      gt\n      iszero\n        /* \"Ethereum/Presale.sol\":4972:5038  require(msg.value >= real_amount_in, \"Please provide navite coin\") */\n      tag_302\n      jumpi\n      mload(0x40)\n      shl(0xe5, 0x461bcd)\n      dup2\n      mstore\n        /* \"#utility.yul\":6408:6410   */\n      0x20\n        /* \"Ethereum/Presale.sol\":4972:5038  require(msg.value >= real_amount_in, \"Please provide navite coin\") */\n      0x04\n      dup3\n      add\n        /* \"#utility.yul\":6390:6411   */\n      mstore\n        /* \"#utility.yul\":6447:6449   */\n      0x1a\n        /* \"#utility.yul\":6427:6445   */\n      0x24\n      dup3\n      add\n        /* \"#utility.yul\":6420:6450   */\n      mstore\n        /* \"#utility.yul\":6486:6514   */\n      0x506c656173652070726f76696465206e617669746520636f696e000000000000\n        /* \"#utility.yul\":6466:6484   */\n      0x44\n      dup3\n      add\n        /* \"#utility.yul\":6459:6515   */\n      mstore\n        /* \"#utility.yul\":6532:6550   */\n      0x64\n      add\n        /* \"Ethereum/Presale.sol\":4972:5038  require(msg.value >= real_amount_in, \"Please provide navite coin\") */\n      tag_144\n        /* \"#utility.yul\":6380:6556   */\n      jump\n        /* \"Ethereum/Presale.sol\":4972:5038  require(msg.value >= real_amount_in, \"Please provide navite coin\") */\n    tag_302:\n        /* \"Ethereum/Presale.sol\":5075:5101  saleInfor.minSpendPerBuyer */\n      sload(0x15)\n        /* \"Ethereum/Presale.sol\":5057:5101  real_amount_in >= saleInfor.minSpendPerBuyer */\n      dup4\n      lt\n      iszero\n        /* \"Ethereum/Presale.sol\":5049:5150  require(real_amount_in >= saleInfor.minSpendPerBuyer, \r... */\n      tag_305\n      jumpi\n      mload(0x40)\n      shl(0xe5, 0x461bcd)\n      dup2\n      mstore\n        /* \"#utility.yul\":9382:9384   */\n      0x20\n        /* \"Ethereum/Presale.sol\":5049:5150  require(real_amount_in >= saleInfor.minSpendPerBuyer, \r... */\n      0x04\n      dup3\n      add\n        /* \"#utility.yul\":9364:9385   */\n      mstore\n        /* \"#utility.yul\":9421:9423   */\n      0x10\n        /* \"#utility.yul\":9401:9419   */\n      0x24\n      dup3\n      add\n        /* \"#utility.yul\":9394:9424   */\n      mstore\n      shl(0x80, 0x4e6f7420656e6f7567682076616c7565)\n        /* \"#utility.yul\":9440:9458   */\n      0x44\n      dup3\n      add\n        /* \"#utility.yul\":9433:9479   */\n      mstore\n        /* \"#utility.yul\":9496:9514   */\n      0x64\n      add\n        /* \"Ethereum/Presale.sol\":5049:5150  require(real_amount_in >= saleInfor.minSpendPerBuyer, \r... */\n      tag_144\n        /* \"#utility.yul\":9354:9520   */\n      jump\n        /* \"Ethereum/Presale.sol\":5049:5150  require(real_amount_in >= saleInfor.minSpendPerBuyer, \r... */\n    tag_305:\n        /* \"Ethereum/Presale.sol\":5187:5213  saleInfor.maxSpendPerBuyer */\n      sload(0x16)\n        /* \"Ethereum/Presale.sol\":5169:5213  real_amount_in <= saleInfor.maxSpendPerBuyer */\n      dup4\n      gt\n      iszero\n        /* \"Ethereum/Presale.sol\":5161:5260  require(real_amount_in <= saleInfor.maxSpendPerBuyer, \r... */\n      tag_308\n      jumpi\n      mload(0x40)\n      shl(0xe5, 0x461bcd)\n      dup2\n      mstore\n        /* \"#utility.yul\":8634:8636   */\n      0x20\n        /* \"Ethereum/Presale.sol\":5161:5260  require(real_amount_in <= saleInfor.maxSpendPerBuyer, \r... */\n      0x04\n      dup3\n      add\n        /* \"#utility.yul\":8616:8637   */\n      mstore\n        /* \"#utility.yul\":8673:8675   */\n      0x0e\n        /* \"#utility.yul\":8653:8671   */\n      0x24\n      dup3\n      add\n        /* \"#utility.yul\":8646:8676   */\n      mstore\n      shl(0x90, 0x4f766572666c6f772076616c7565)\n        /* \"#utility.yul\":8692:8710   */\n      0x44\n      dup3\n      add\n        /* \"#utility.yul\":8685:8729   */\n      mstore\n        /* \"#utility.yul\":8746:8764   */\n      0x64\n      add\n        /* \"Ethereum/Presale.sol\":5161:5260  require(real_amount_in <= saleInfor.maxSpendPerBuyer, \r... */\n      tag_144\n        /* \"#utility.yul\":8606:8770   */\n      jump\n        /* \"Ethereum/Presale.sol\":5161:5260  require(real_amount_in <= saleInfor.maxSpendPerBuyer, \r... */\n    tag_308:\n        /* \"Ethereum/Presale.sol\":5275:5294  checkAdminAddress() */\n      tag_311\n        /* \"Ethereum/Presale.sol\":5275:5292  checkAdminAddress */\n      tag_106\n        /* \"Ethereum/Presale.sol\":5275:5294  checkAdminAddress() */\n      jump\t// in\n    tag_311:\n        /* \"Ethereum/Presale.sol\":5271:5537  if(!checkAdminAddress()) {\r... */\n      tag_312\n      jumpi\n        /* \"Ethereum/Presale.sol\":5328:5461  ((fullPercenFee.sub(feeAnyone))\r... */\n      tag_313\n        /* \"Ethereum/Presale.sol\":5447:5460  fullPercenFee */\n      dup2\n        /* \"Ethereum/Presale.sol\":5329:5410  (fullPercenFee.sub(feeAnyone))\r... */\n      tag_205\n        /* \"Ethereum/Presale.sol\":5395:5409  real_amount_in */\n      dup6\n        /* \"Ethereum/Presale.sol\":5330:5358  fullPercenFee.sub(feeAnyone) */\n      tag_206\n        /* \"Ethereum/Presale.sol\":5348:5357  feeAnyone */\n      sload(0x1f)\n        /* \"Ethereum/Presale.sol\":5330:5343  fullPercenFee */\n      dup7\n        /* \"Ethereum/Presale.sol\":5330:5347  fullPercenFee.sub */\n      tag_170\n      swap1\n        /* \"Ethereum/Presale.sol\":5330:5358  fullPercenFee.sub(feeAnyone) */\n      swap2\n      swap1\n      0xffffffff\n      and\n      jump\t// in\n        /* \"Ethereum/Presale.sol\":5328:5461  ((fullPercenFee.sub(feeAnyone))\r... */\n    tag_313:\n        /* \"Ethereum/Presale.sol\":5311:5461  real_amount_in = ((fullPercenFee.sub(feeAnyone))\r... */\n      swap3\n      pop\n        /* \"Ethereum/Presale.sol\":5482:5508  amount_in - real_amount_in */\n      tag_316\n        /* \"Ethereum/Presale.sol\":5311:5461  real_amount_in = ((fullPercenFee.sub(feeAnyone))\r... */\n      dup4\n        /* \"Ethereum/Presale.sol\":5482:5491  amount_in */\n      dup6\n        /* \"Ethereum/Presale.sol\":5482:5508  amount_in - real_amount_in */\n      tag_194\n      jump\t// in\n    tag_316:\n        /* \"Ethereum/Presale.sol\":5476:5508  fee = amount_in - real_amount_in */\n      swap2\n      pop\n        /* \"Ethereum/Presale.sol\":5271:5537  if(!checkAdminAddress()) {\r... */\n    tag_312:\n        /* \"Ethereum/Presale.sol\":5602:5619  buyer.baseDeposit */\n      dup5\n      sload\n        /* \"Ethereum/Presale.sol\":5573:5599  saleInfor.maxSpendPerBuyer */\n      sload(0x16)\n        /* \"Ethereum/Presale.sol\":5547:5570  uint256 remainingByUser */\n      0x00\n      swap2\n        /* \"Ethereum/Presale.sol\":5573:5619  saleInfor.maxSpendPerBuyer - buyer.baseDeposit */\n      tag_317\n      swap2\n      tag_194\n      jump\t// in\n    tag_317:\n        /* \"Ethereum/Presale.sol\":5687:5700  presaleStatus */\n      0x04\n        /* \"Ethereum/Presale.sol\":5687:5719  presaleStatus.totalBaseCollected */\n      sload\n        /* \"Ethereum/Presale.sol\":5656:5684  saleInfor.amountTokenForSale */\n      sload(0x1a)\n        /* \"Ethereum/Presale.sol\":5547:5619  uint256 remainingByUser = saleInfor.maxSpendPerBuyer - buyer.baseDeposit */\n      swap2\n      swap3\n      pop\n        /* \"Ethereum/Presale.sol\":5630:5653  uint256 remainingByPool */\n      0x00\n      swap2\n        /* \"Ethereum/Presale.sol\":5656:5719  saleInfor.amountTokenForSale - presaleStatus.totalBaseCollected */\n      tag_318\n      swap2\n        /* \"Ethereum/Presale.sol\":5687:5719  presaleStatus.totalBaseCollected */\n      swap1\n        /* \"Ethereum/Presale.sol\":5656:5719  saleInfor.amountTokenForSale - presaleStatus.totalBaseCollected */\n      tag_194\n      jump\t// in\n    tag_318:\n        /* \"Ethereum/Presale.sol\":5630:5719  uint256 remainingByPool = saleInfor.amountTokenForSale - presaleStatus.totalBaseCollected */\n      swap1\n      pop\n        /* \"Ethereum/Presale.sol\":5730:5747  uint256 allowance */\n      0x00\n        /* \"Ethereum/Presale.sol\":5768:5783  remainingByPool */\n      dup2\n        /* \"Ethereum/Presale.sol\":5750:5765  remainingByUser */\n      dup4\n        /* \"Ethereum/Presale.sol\":5750:5783  remainingByUser > remainingByPool */\n      gt\n        /* \"Ethereum/Presale.sol\":5750:5819  remainingByUser > remainingByPool ? remainingByPool : remainingByUser */\n      tag_319\n      jumpi\n        /* \"Ethereum/Presale.sol\":5804:5819  remainingByUser */\n      dup3\n        /* \"Ethereum/Presale.sol\":5750:5819  remainingByUser > remainingByPool ? remainingByPool : remainingByUser */\n      jump(tag_320)\n    tag_319:\n        /* \"Ethereum/Presale.sol\":5786:5801  remainingByPool */\n      dup2\n        /* \"Ethereum/Presale.sol\":5750:5819  remainingByUser > remainingByPool ? remainingByPool : remainingByUser */\n    tag_320:\n        /* \"Ethereum/Presale.sol\":5730:5819  uint256 allowance = remainingByUser > remainingByPool ? remainingByPool : remainingByUser */\n      swap1\n      pop\n        /* \"Ethereum/Presale.sol\":5856:5865  allowance */\n      dup1\n        /* \"Ethereum/Presale.sol\":5838:5852  real_amount_in */\n      dup7\n        /* \"Ethereum/Presale.sol\":5838:5865  real_amount_in <= allowance */\n      gt\n      iszero\n        /* \"Ethereum/Presale.sol\":5830:5885  require(real_amount_in <= allowance, \"Sale is success\") */\n      tag_321\n      jumpi\n      mload(0x40)\n      shl(0xe5, 0x461bcd)\n      dup2\n      mstore\n        /* \"#utility.yul\":11901:11903   */\n      0x20\n        /* \"Ethereum/Presale.sol\":5830:5885  require(real_amount_in <= allowance, \"Sale is success\") */\n      0x04\n      dup3\n      add\n        /* \"#utility.yul\":11883:11904   */\n      mstore\n        /* \"#utility.yul\":11940:11942   */\n      0x0f\n        /* \"#utility.yul\":11920:11938   */\n      0x24\n      dup3\n      add\n        /* \"#utility.yul\":11913:11943   */\n      mstore\n      shl(0x88, 0x53616c652069732073756363657373)\n        /* \"#utility.yul\":11959:11977   */\n      0x44\n      dup3\n      add\n        /* \"#utility.yul\":11952:11997   */\n      mstore\n        /* \"#utility.yul\":12014:12032   */\n      0x64\n      add\n        /* \"Ethereum/Presale.sol\":5830:5885  require(real_amount_in <= allowance, \"Sale is success\") */\n      tag_144\n        /* \"#utility.yul\":11873:12038   */\n      jump\n        /* \"Ethereum/Presale.sol\":5830:5885  require(real_amount_in <= allowance, \"Sale is success\") */\n    tag_321:\n        /* \"Ethereum/Presale.sol\":5896:5913  uint256 tokenSold */\n      0x00\n        /* \"Ethereum/Presale.sol\":5917:6075  real_amount_in.\r... */\n      tag_324\n        /* \"Ethereum/Presale.sol\":6042:6051  saleInfor */\n      0x0f\n        /* \"Ethereum/Presale.sol\":6042:6061  saleInfor.baseToken */\n      0x02\n      add\n      0x00\n      swap1\n      sload\n      swap1\n      0x0100\n      exp\n      swap1\n      div\n      sub(shl(0xa0, 0x01), 0x01)\n      and\n      sub(shl(0xa0, 0x01), 0x01)\n        /* \"Ethereum/Presale.sol\":6036:6071  ERC20(saleInfor.baseToken).decimals */\n      and\n      0x313ce567\n        /* \"Ethereum/Presale.sol\":6036:6073  ERC20(saleInfor.baseToken).decimals() */\n      mload(0x40)\n      dup2\n      0xffffffff\n      and\n      0xe0\n      shl\n      dup2\n      mstore\n      0x04\n      add\n      0x20\n      mload(0x40)\n      dup1\n      dup4\n      sub\n      dup2\n      dup7\n      dup1\n      extcodesize\n      iszero\n      dup1\n      iszero\n      tag_325\n      jumpi\n      0x00\n      dup1\n      revert\n    tag_325:\n      pop\n      gas\n      staticcall\n      iszero\n      dup1\n      iszero\n      tag_327\n      jumpi\n      returndatasize\n      0x00\n      dup1\n      returndatacopy\n      revert(0x00, returndatasize)\n    tag_327:\n      pop\n      pop\n      pop\n      pop\n      mload(0x40)\n      returndatasize\n      not(0x1f)\n      0x1f\n      dup3\n      add\n      and\n      dup3\n      add\n      dup1\n      0x40\n      mstore\n      pop\n      dup2\n      add\n      swap1\n      tag_328\n      swap2\n      swap1\n      tag_168\n      jump\t// in\n    tag_328:\n        /* \"Ethereum/Presale.sol\":6022:6074  10 ** uint256(ERC20(saleInfor.baseToken).decimals()) */\n      tag_329\n      swap1\n        /* \"Ethereum/Presale.sol\":6022:6024  10 */\n      0x0a\n        /* \"Ethereum/Presale.sol\":6022:6074  10 ** uint256(ERC20(saleInfor.baseToken).decimals()) */\n      tag_224\n      jump\t// in\n    tag_329:\n        /* \"Ethereum/Presale.sol\":5966:5986  saleInfor.tokenPrice */\n      sload(0x12)\n        /* \"Ethereum/Presale.sol\":5917:5987  real_amount_in.\r... */\n      tag_205\n      swap1\n        /* \"Ethereum/Presale.sol\":5917:5931  real_amount_in */\n      dup11\n      swap1\n        /* \"Ethereum/Presale.sol\":5917:5965  real_amount_in.\r... */\n      tag_207\n        /* \"Ethereum/Presale.sol\":5917:5987  real_amount_in.\r... */\n      jump\t// in\n        /* \"Ethereum/Presale.sol\":5917:6075  real_amount_in.\r... */\n    tag_324:\n        /* \"Ethereum/Presale.sol\":5896:6076  uint256 tokenSold = (real_amount_in.\r... */\n      swap1\n      pop\n        /* \"Ethereum/Presale.sol\":6125:6139  real_amount_in */\n      dup7\n        /* \"Ethereum/Presale.sol\":6104:6109  buyer */\n      dup10\n        /* \"Ethereum/Presale.sol\":6104:6121  buyer.baseDeposit */\n      0x00\n      add\n      0x00\n        /* \"Ethereum/Presale.sol\":6104:6139  buyer.baseDeposit += real_amount_in */\n      dup3\n      dup3\n      sload\n      tag_331\n      swap2\n      swap1\n      tag_211\n      jump\t// in\n    tag_331:\n      swap3\n      pop\n      pop\n      dup2\n      swap1\n      sstore\n      pop\n        /* \"Ethereum/Presale.sol\":6170:6179  tokenSold */\n      dup1\n        /* \"Ethereum/Presale.sol\":6150:6155  buyer */\n      dup10\n        /* \"Ethereum/Presale.sol\":6150:6166  buyer.tokenOwner */\n      0x01\n      add\n      0x00\n        /* \"Ethereum/Presale.sol\":6150:6179  buyer.tokenOwner += tokenSold */\n      dup3\n      dup3\n      sload\n      tag_332\n      swap2\n      swap1\n      tag_211\n      jump\t// in\n    tag_332:\n      swap1\n      swap2\n      sstore\n      pop\n      pop\n        /* \"Ethereum/Presale.sol\":6190:6203  presaleStatus */\n      0x04\n        /* \"Ethereum/Presale.sol\":6190:6240  presaleStatus.totalBaseCollected += real_amount_in */\n      dup1\n      sload\n        /* \"Ethereum/Presale.sol\":6226:6240  real_amount_in */\n      dup9\n      swap2\n        /* \"Ethereum/Presale.sol\":6190:6203  presaleStatus */\n      swap1\n        /* \"Ethereum/Presale.sol\":6190:6222  presaleStatus.totalBaseCollected */\n      0x00\n      swap1\n        /* \"Ethereum/Presale.sol\":6190:6240  presaleStatus.totalBaseCollected += real_amount_in */\n      tag_333\n      swap1\n        /* \"Ethereum/Presale.sol\":6226:6240  real_amount_in */\n      dup5\n      swap1\n        /* \"Ethereum/Presale.sol\":6190:6240  presaleStatus.totalBaseCollected += real_amount_in */\n      tag_211\n      jump\t// in\n    tag_333:\n      swap1\n      swap2\n      sstore\n      pop\n      pop\n        /* \"Ethereum/Presale.sol\":6251:6279  presaleStatus.totalTokenSold */\n      0x05\n        /* \"Ethereum/Presale.sol\":6251:6292  presaleStatus.totalTokenSold += tokenSold */\n      dup1\n      sload\n        /* \"Ethereum/Presale.sol\":6283:6292  tokenSold */\n      dup3\n      swap2\n        /* \"Ethereum/Presale.sol\":6251:6279  presaleStatus.totalTokenSold */\n      swap1\n      0x00\n      swap1\n        /* \"Ethereum/Presale.sol\":6251:6292  presaleStatus.totalTokenSold += tokenSold */\n      tag_334\n      swap1\n        /* \"Ethereum/Presale.sol\":6283:6292  tokenSold */\n      dup5\n      swap1\n        /* \"Ethereum/Presale.sol\":6251:6292  presaleStatus.totalTokenSold += tokenSold */\n      tag_211\n      jump\t// in\n    tag_334:\n      swap1\n      swap2\n      sstore\n      pop\n      pop\n        /* \"Ethereum/Presale.sol\":6303:6328  presaleStatus.numberBuyer */\n      0x0a\n        /* \"Ethereum/Presale.sol\":6303:6330  presaleStatus.numberBuyer++ */\n      dup1\n      sload\n      swap1\n        /* \"Ethereum/Presale.sol\":6303:6328  presaleStatus.numberBuyer */\n      0x00\n        /* \"Ethereum/Presale.sol\":6303:6330  presaleStatus.numberBuyer++ */\n      tag_335\n      dup4\n      tag_336\n      jump\t// in\n    tag_335:\n      swap1\n      swap2\n      sstore\n      pop\n      pop\n        /* \"Ethereum/Presale.sol\":6349:6359  msg.sender */\n      caller\n        /* \"Ethereum/Presale.sol\":6341:6360  userFee[msg.sender] */\n      0x00\n      swap1\n      dup2\n      mstore\n        /* \"Ethereum/Presale.sol\":6341:6348  userFee */\n      0x03\n        /* \"Ethereum/Presale.sol\":6341:6360  userFee[msg.sender] */\n      0x20\n      mstore\n      0x40\n      dup2\n      keccak256\n        /* \"Ethereum/Presale.sol\":6341:6367  userFee[msg.sender] += fee */\n      dup1\n      sload\n        /* \"Ethereum/Presale.sol\":6364:6367  fee */\n      dup9\n      swap3\n        /* \"Ethereum/Presale.sol\":6341:6360  userFee[msg.sender] */\n      swap1\n        /* \"Ethereum/Presale.sol\":6341:6367  userFee[msg.sender] += fee */\n      tag_337\n      swap1\n        /* \"Ethereum/Presale.sol\":6364:6367  fee */\n      dup5\n      swap1\n        /* \"Ethereum/Presale.sol\":6341:6367  userFee[msg.sender] += fee */\n      tag_211\n      jump\t// in\n    tag_337:\n      swap3\n      pop\n      pop\n      dup2\n      swap1\n      sstore\n      pop\n        /* \"Ethereum/Presale.sol\":6390:6393  fee */\n      dup6\n        /* \"Ethereum/Presale.sol\":6378:6386  totalFee */\n      0x1e\n      0x00\n        /* \"Ethereum/Presale.sol\":6378:6393  totalFee += fee */\n      dup3\n      dup3\n      sload\n      tag_338\n      swap2\n      swap1\n      tag_211\n      jump\t// in\n    tag_338:\n      swap1\n      swap2\n      sstore\n      pop\n      pop\n        /* \"Ethereum/Presale.sol\":6409:6434  saleInfor.saleIsBaseToken */\n      and(0xff, sload(0x19))\n        /* \"Ethereum/Presale.sol\":6409:6471  saleInfor.saleIsBaseToken && real_amount_in + fee <= msg.value */\n      dup1\n      iszero\n      tag_339\n      jumpi\n      pop\n        /* \"Ethereum/Presale.sol\":6462:6471  msg.value */\n      callvalue\n        /* \"Ethereum/Presale.sol\":6438:6458  real_amount_in + fee */\n      tag_340\n        /* \"Ethereum/Presale.sol\":6455:6458  fee */\n      dup8\n        /* \"Ethereum/Presale.sol\":6438:6452  real_amount_in */\n      dup10\n        /* \"Ethereum/Presale.sol\":6438:6458  real_amount_in + fee */\n      tag_211\n      jump\t// in\n    tag_340:\n        /* \"Ethereum/Presale.sol\":6438:6471  real_amount_in + fee <= msg.value */\n      gt\n      iszero\n        /* \"Ethereum/Presale.sol\":6409:6471  saleInfor.saleIsBaseToken && real_amount_in + fee <= msg.value */\n    tag_339:\n        /* \"Ethereum/Presale.sol\":6406:6562  if(saleInfor.saleIsBaseToken && real_amount_in + fee <= msg.value) {\r... */\n      iszero\n      tag_341\n      jumpi\n        /* \"Ethereum/Presale.sol\":6496:6506  msg.sender */\n      caller\n        /* \"Ethereum/Presale.sol\":6488:6550  payable(msg.sender).transfer(msg.value - real_amount_in - fee) */\n      0x08fc\n        /* \"Ethereum/Presale.sol\":6546:6549  fee */\n      dup8\n        /* \"Ethereum/Presale.sol\":6517:6543  msg.value - real_amount_in */\n      tag_342\n        /* \"Ethereum/Presale.sol\":6529:6543  real_amount_in */\n      dup11\n        /* \"Ethereum/Presale.sol\":6517:6526  msg.value */\n      callvalue\n        /* \"Ethereum/Presale.sol\":6517:6543  msg.value - real_amount_in */\n      tag_194\n      jump\t// in\n    tag_342:\n        /* \"Ethereum/Presale.sol\":6517:6549  msg.value - real_amount_in - fee */\n      tag_343\n      swap2\n      swap1\n      tag_194\n      jump\t// in\n    tag_343:\n        /* \"Ethereum/Presale.sol\":6488:6550  payable(msg.sender).transfer(msg.value - real_amount_in - fee) */\n      mload(0x40)\n      dup2\n      iszero\n      swap1\n      swap3\n      mul\n      swap2\n      0x00\n      dup2\n      dup2\n      dup2\n      dup6\n      dup9\n      dup9\n      call\n      swap4\n      pop\n      pop\n      pop\n      pop\n      iszero\n      dup1\n      iszero\n      tag_345\n      jumpi\n      returndatasize\n      0x00\n      dup1\n      returndatacopy\n      revert(0x00, returndatasize)\n    tag_345:\n      pop\n        /* \"Ethereum/Presale.sol\":6406:6562  if(saleInfor.saleIsBaseToken && real_amount_in + fee <= msg.value) {\r... */\n    tag_341:\n        /* \"Ethereum/Presale.sol\":6577:6602  saleInfor.saleIsBaseToken */\n      and(0xff, sload(0x19))\n        /* \"Ethereum/Presale.sol\":6573:6824  if(!saleInfor.saleIsBaseToken) {\r... */\n      tag_347\n      jumpi\n        /* \"Ethereum/Presale.sol\":6677:6696  saleInfor.baseToken */\n      sload(0x11)\n        /* \"Ethereum/Presale.sol\":6619:6812  TransferHelper.safeTransferFrom(\r... */\n      tag_347\n      swap1\n      sub(shl(0xa0, 0x01), 0x01)\n        /* \"Ethereum/Presale.sol\":6677:6696  saleInfor.baseToken */\n      and\n        /* \"Ethereum/Presale.sol\":6716:6726  msg.sender */\n      caller\n        /* \"Ethereum/Presale.sol\":6753:6757  this */\n      address\n        /* \"Ethereum/Presale.sol\":6777:6797  real_amount_in + fee */\n      tag_348\n        /* \"Ethereum/Presale.sol\":6794:6797  fee */\n      dup11\n        /* \"Ethereum/Presale.sol\":6777:6791  real_amount_in */\n      dup13\n        /* \"Ethereum/Presale.sol\":6777:6797  real_amount_in + fee */\n      tag_211\n      jump\t// in\n    tag_348:\n        /* \"Ethereum/Presale.sol\":6619:6650  TransferHelper.safeTransferFrom */\n      tag_349\n        /* \"Ethereum/Presale.sol\":6619:6812  TransferHelper.safeTransferFrom(\r... */\n      jump\t// in\n    tag_347:\n      pop\n      pop\n        /* \"Utils/ReentrancyGuard.sol\":1734:1735  1 */\n      0x01\n        /* \"Utils/ReentrancyGuard.sol\":2688:2695  _status */\n      0x00\n        /* \"Utils/ReentrancyGuard.sol\":2688:2710  _status = _NOT_ENTERED */\n      sstore\n      pop\n      pop\n      pop\n      pop\n      pop\n      pop\n      pop\n      pop\n        /* \"Ethereum/Presale.sol\":4631:6843  function deposit(uint256 _amount) external payable nonReentrant {\r... */\n      jump\t// out\n        /* \"Ethereum/Presale.sol\":4513:4623  function checkAdminAddress() public view returns(bool) {\r... */\n    tag_106:\n        /* \"Ethereum/Presale.sol\":4562:4566  bool */\n      0x00\n        /* \"Ethereum/Presale.sol\":4586:4615  admins.contains(_msgSender()) */\n      tag_351\n        /* \"Ethereum/Presale.sol\":4586:4592  admins */\n      0x1c\n        /* \"Utils/Context.sol\":736:746  msg.sender */\n      caller\n        /* \"Ethereum/Presale.sol\":4586:4601  admins.contains */\n      tag_353\n        /* \"Ethereum/Presale.sol\":4586:4615  admins.contains(_msgSender()) */\n      jump\t// in\n    tag_351:\n        /* \"Ethereum/Presale.sol\":4579:4615  return admins.contains(_msgSender()) */\n      swap1\n      pop\n        /* \"Ethereum/Presale.sol\":4513:4623  function checkAdminAddress() public view returns(bool) {\r... */\n      swap1\n      jump\t// out\n        /* \"Ethereum/Presale.sol\":10092:11665  function userClaimOrRefundWhenSaleSuccess(bool isClaim) external {\r... */\n    tag_123:\n        /* \"Ethereum/Presale.sol\":10232:10239  isClaim */\n      dup1\n        /* \"Ethereum/Presale.sol\":10229:11658  if(isClaim){\r... */\n      iszero\n      tag_355\n      jumpi\n        /* \"Ethereum/Presale.sol\":10294:10326  presaleStatus.totalTokenWithDraw */\n      sload(0x06)\n        /* \"Ethereum/Presale.sol\":10263:10291  presaleStatus.totalTokenSold */\n      sload(0x05)\n        /* \"Ethereum/Presale.sol\":10329:10330  0 */\n      0x00\n      swap2\n        /* \"Ethereum/Presale.sol\":10263:10326  presaleStatus.totalTokenSold - presaleStatus.totalTokenWithDraw */\n      tag_356\n      swap2\n      tag_194\n      jump\t// in\n    tag_356:\n        /* \"Ethereum/Presale.sol\":10263:10330  presaleStatus.totalTokenSold - presaleStatus.totalTokenWithDraw > 0 */\n      gt\n        /* \"Ethereum/Presale.sol\":10255:10394  require(presaleStatus.totalTokenSold - presaleStatus.totalTokenWithDraw > 0, \r... */\n      tag_357\n      jumpi\n      mload(0x40)\n      shl(0xe5, 0x461bcd)\n      dup2\n      mstore\n      0x04\n      add\n      tag_144\n      swap1\n      tag_197\n      jump\t// in\n    tag_357:\n        /* \"Ethereum/Presale.sol\":10445:10455  msg.sender */\n      caller\n        /* \"Ethereum/Presale.sol\":10409:10432  BuyerInfo storage buyer */\n      0x00\n        /* \"Ethereum/Presale.sol\":10435:10456  buyerInfo[msg.sender] */\n      swap1\n      dup2\n      mstore\n        /* \"Ethereum/Presale.sol\":10435:10444  buyerInfo */\n      0x02\n        /* \"Ethereum/Presale.sol\":10435:10456  buyerInfo[msg.sender] */\n      0x20\n      mstore\n      0x40\n      swap1\n      keccak256\n        /* \"Ethereum/Presale.sol\":10498:10522  buyer.totalTokenWithDraw */\n      0x03\n      dup2\n      add\n      sload\n        /* \"Ethereum/Presale.sol\":10479:10495  buyer.tokenOwner */\n      0x01\n      dup3\n      add\n      sload\n        /* \"Ethereum/Presale.sol\":10479:10522  buyer.tokenOwner > buyer.totalTokenWithDraw */\n      gt\n        /* \"Ethereum/Presale.sol\":10471:10563  require(buyer.tokenOwner > buyer.totalTokenWithDraw, \"You claim all or have not bought yet\") */\n      tag_359\n      jumpi\n      mload(0x40)\n      shl(0xe5, 0x461bcd)\n      dup2\n      mstore\n        /* \"#utility.yul\":8977:8979   */\n      0x20\n        /* \"Ethereum/Presale.sol\":10471:10563  require(buyer.tokenOwner > buyer.totalTokenWithDraw, \"You claim all or have not bought yet\") */\n      0x04\n      dup3\n      add\n        /* \"#utility.yul\":8959:8980   */\n      mstore\n        /* \"#utility.yul\":9016:9018   */\n      0x24\n        /* \"#utility.yul\":8996:9014   */\n      dup1\n      dup3\n      add\n        /* \"#utility.yul\":8989:9019   */\n      mstore\n        /* \"#utility.yul\":9055:9089   */\n      0x596f7520636c61696d20616c6c206f722068617665206e6f7420626f75676874\n        /* \"#utility.yul\":9035:9053   */\n      0x44\n      dup3\n      add\n        /* \"#utility.yul\":9028:9090   */\n      mstore\n      shl(0xe2, 0x081e595d)\n        /* \"#utility.yul\":9106:9124   */\n      0x64\n      dup3\n      add\n        /* \"#utility.yul\":9099:9133   */\n      mstore\n        /* \"#utility.yul\":9150:9169   */\n      0x84\n      add\n        /* \"Ethereum/Presale.sol\":10471:10563  require(buyer.tokenOwner > buyer.totalTokenWithDraw, \"You claim all or have not bought yet\") */\n      tag_144\n        /* \"#utility.yul\":8949:9175   */\n      jump\n        /* \"Ethereum/Presale.sol\":10471:10563  require(buyer.tokenOwner > buyer.totalTokenWithDraw, \"You claim all or have not bought yet\") */\n    tag_359:\n        /* \"Ethereum/Presale.sol\":10584:10603  saleInfor.saleToken */\n      sload(0x10)\n      0x01\n        /* \"Ethereum/Presale.sol\":10626:10642  buyer.tokenOwner */\n      dup3\n      add\n      sload\n        /* \"Ethereum/Presale.sol\":10578:10643  ERC20(saleInfor.saleToken).transfer(msg.sender, buyer.tokenOwner) */\n      mload(0x40)\n      shl(0xe0, 0xa9059cbb)\n      dup2\n      mstore\n        /* \"Ethereum/Presale.sol\":10614:10624  msg.sender */\n      caller\n        /* \"Ethereum/Presale.sol\":10578:10643  ERC20(saleInfor.saleToken).transfer(msg.sender, buyer.tokenOwner) */\n      0x04\n      dup3\n      add\n        /* \"#utility.yul\":4676:4727   */\n      mstore\n        /* \"#utility.yul\":4743:4761   */\n      0x24\n      dup2\n      add\n        /* \"#utility.yul\":4736:4770   */\n      swap2\n      swap1\n      swap2\n      mstore\n      sub(shl(0xa0, 0x01), 0x01)\n        /* \"Ethereum/Presale.sol\":10584:10603  saleInfor.saleToken */\n      swap1\n      swap2\n      and\n      swap1\n        /* \"Ethereum/Presale.sol\":10578:10613  ERC20(saleInfor.saleToken).transfer */\n      0xa9059cbb\n      swap1\n        /* \"#utility.yul\":4649:4667   */\n      0x44\n      add\n        /* \"Ethereum/Presale.sol\":10578:10643  ERC20(saleInfor.saleToken).transfer(msg.sender, buyer.tokenOwner) */\n      0x20\n      mload(0x40)\n      dup1\n      dup4\n      sub\n      dup2\n      0x00\n      dup8\n      dup1\n      extcodesize\n      iszero\n      dup1\n      iszero\n      tag_363\n      jumpi\n      0x00\n      dup1\n      revert\n    tag_363:\n      pop\n      gas\n      call\n      iszero\n      dup1\n      iszero\n      tag_365\n      jumpi\n      returndatasize\n      0x00\n      dup1\n      returndatacopy\n      revert(0x00, returndatasize)\n    tag_365:\n      pop\n      pop\n      pop\n      pop\n      mload(0x40)\n      returndatasize\n      not(0x1f)\n      0x1f\n      dup3\n      add\n      and\n      dup3\n      add\n      dup1\n      0x40\n      mstore\n      pop\n      dup2\n      add\n      swap1\n      tag_366\n      swap2\n      swap1\n      tag_186\n      jump\t// in\n    tag_366:\n      pop\n        /* \"Ethereum/Presale.sol\":10694:10710  buyer.tokenOwner */\n      0x01\n      dup2\n      add\n      sload\n        /* \"Ethereum/Presale.sol\":10658:10690  presaleStatus.totalTokenWithDraw */\n      0x06\n        /* \"Ethereum/Presale.sol\":10658:10710  presaleStatus.totalTokenWithDraw += buyer.tokenOwner */\n      dup1\n      sload\n        /* \"Ethereum/Presale.sol\":10658:10690  presaleStatus.totalTokenWithDraw */\n      0x00\n      swap1\n        /* \"Ethereum/Presale.sol\":10658:10710  presaleStatus.totalTokenWithDraw += buyer.tokenOwner */\n      tag_367\n      swap1\n        /* \"Ethereum/Presale.sol\":10694:10710  buyer.tokenOwner */\n      dup5\n      swap1\n        /* \"Ethereum/Presale.sol\":10658:10710  presaleStatus.totalTokenWithDraw += buyer.tokenOwner */\n      tag_211\n      jump\t// in\n    tag_367:\n      swap1\n      swap2\n      sstore\n      pop\n      pop\n        /* \"Ethereum/Presale.sol\":10757:10773  buyer.tokenOwner */\n      0x01\n      dup2\n      add\n      sload\n        /* \"Ethereum/Presale.sol\":10725:10753  saleInfor.amountTokenForSale */\n      0x1a\n        /* \"Ethereum/Presale.sol\":10725:10773  saleInfor.amountTokenForSale -= buyer.tokenOwner */\n      dup1\n      sload\n        /* \"Ethereum/Presale.sol\":10725:10753  saleInfor.amountTokenForSale */\n      0x00\n      swap1\n        /* \"Ethereum/Presale.sol\":10725:10773  saleInfor.amountTokenForSale -= buyer.tokenOwner */\n      tag_368\n      swap1\n        /* \"Ethereum/Presale.sol\":10757:10773  buyer.tokenOwner */\n      dup5\n      swap1\n        /* \"Ethereum/Presale.sol\":10725:10773  saleInfor.amountTokenForSale -= buyer.tokenOwner */\n      tag_194\n      jump\t// in\n    tag_368:\n      swap1\n      swap2\n      sstore\n      pop\n      pop\n        /* \"Ethereum/Presale.sol\":10816:10832  buyer.tokenOwner */\n      0x01\n      dup2\n      add\n      sload\n        /* \"Ethereum/Presale.sol\":10788:10812  buyer.totalTokenWithDraw */\n      0x03\n      dup3\n      add\n        /* \"Ethereum/Presale.sol\":10788:10832  buyer.totalTokenWithDraw += buyer.tokenOwner */\n      dup1\n      sload\n        /* \"Ethereum/Presale.sol\":10788:10812  buyer.totalTokenWithDraw */\n      0x00\n      swap1\n        /* \"Ethereum/Presale.sol\":10788:10832  buyer.totalTokenWithDraw += buyer.tokenOwner */\n      tag_369\n      swap1\n        /* \"Ethereum/Presale.sol\":10816:10832  buyer.tokenOwner */\n      dup5\n      swap1\n        /* \"Ethereum/Presale.sol\":10788:10832  buyer.totalTokenWithDraw += buyer.tokenOwner */\n      tag_211\n      jump\t// in\n    tag_369:\n      swap1\n      swap2\n      sstore\n      pop\n      pop\n        /* \"Ethereum/Presale.sol\":10867:10868  0 */\n      0x00\n        /* \"Ethereum/Presale.sol\":10847:10868  buyer.baseDeposit = 0 */\n      dup1\n      dup3\n      sstore\n        /* \"Ethereum/Presale.sol\":10883:10899  buyer.tokenOwner */\n      0x01\n      dup3\n      add\n        /* \"Ethereum/Presale.sol\":10883:10903  buyer.tokenOwner = 0 */\n      sstore\n        /* \"Ethereum/Presale.sol\":10939:10954  block.timestamp */\n      timestamp\n        /* \"Ethereum/Presale.sol\":10918:10936  buyer.lastWithDraw */\n      0x02\n      swap1\n      swap2\n      add\n        /* \"Ethereum/Presale.sol\":10918:10954  buyer.lastWithDraw = block.timestamp */\n      sstore\n        /* \"Ethereum/Presale.sol\":11844:11895  payable(msg.sender).transfer(address(this).balance) */\n      pop\n        /* \"Ethereum/Presale.sol\":11795:11903  function backToken() external payable {\r... */\n      jump\t// out\n        /* \"Ethereum/Presale.sol\":10229:11658  if(isClaim){\r... */\n    tag_355:\n        /* \"Ethereum/Presale.sol\":11042:11073  presaleStatus.totalBaseWithDraw */\n      sload(0x07)\n        /* \"Ethereum/Presale.sol\":11042:11055  presaleStatus */\n      0x04\n        /* \"Ethereum/Presale.sol\":11007:11039  presaleStatus.totalBaseCollected */\n      sload\n        /* \"Ethereum/Presale.sol\":11076:11077  0 */\n      0x00\n      swap2\n        /* \"Ethereum/Presale.sol\":11007:11073  presaleStatus.totalBaseCollected - presaleStatus.totalBaseWithDraw */\n      tag_371\n      swap2\n      tag_194\n      jump\t// in\n    tag_371:\n        /* \"Ethereum/Presale.sol\":11007:11077  presaleStatus.totalBaseCollected - presaleStatus.totalBaseWithDraw > 0 */\n      gt\n        /* \"Ethereum/Presale.sol\":10999:11141  require(presaleStatus.totalBaseCollected - presaleStatus.totalBaseWithDraw > 0, \r... */\n      tag_372\n      jumpi\n      mload(0x40)\n      shl(0xe5, 0x461bcd)\n      dup2\n      mstore\n      0x04\n      add\n      tag_144\n      swap1\n      tag_197\n      jump\t// in\n    tag_372:\n        /* \"Ethereum/Presale.sol\":11193:11203  msg.sender */\n      caller\n        /* \"Ethereum/Presale.sol\":11157:11180  BuyerInfo storage buyer */\n      0x00\n        /* \"Ethereum/Presale.sol\":11183:11204  buyerInfo[msg.sender] */\n      swap1\n      dup2\n      mstore\n        /* \"Ethereum/Presale.sol\":11183:11192  buyerInfo */\n      0x02\n        /* \"Ethereum/Presale.sol\":11183:11204  buyerInfo[msg.sender] */\n      0x20\n      mstore\n      0x40\n      swap1\n      keccak256\n        /* \"Ethereum/Presale.sol\":11227:11244  buyer.baseDeposit */\n      dup1\n      sload\n        /* \"Ethereum/Presale.sol\":11219:11290  require(buyer.baseDeposit > 0, \"You refund all or have not bought yet\") */\n      tag_374\n      jumpi\n      mload(0x40)\n      shl(0xe5, 0x461bcd)\n      dup2\n      mstore\n        /* \"#utility.yul\":8228:8230   */\n      0x20\n        /* \"Ethereum/Presale.sol\":11219:11290  require(buyer.baseDeposit > 0, \"You refund all or have not bought yet\") */\n      0x04\n      dup3\n      add\n        /* \"#utility.yul\":8210:8231   */\n      mstore\n        /* \"#utility.yul\":8267:8269   */\n      0x25\n        /* \"#utility.yul\":8247:8265   */\n      0x24\n      dup3\n      add\n        /* \"#utility.yul\":8240:8270   */\n      mstore\n        /* \"#utility.yul\":8306:8340   */\n      0x596f7520726566756e6420616c6c206f722068617665206e6f7420626f756768\n        /* \"#utility.yul\":8286:8304   */\n      0x44\n      dup3\n      add\n        /* \"#utility.yul\":8279:8341   */\n      mstore\n      shl(0xda, 0x1d081e595d)\n        /* \"#utility.yul\":8357:8375   */\n      0x64\n      dup3\n      add\n        /* \"#utility.yul\":8350:8385   */\n      mstore\n        /* \"#utility.yul\":8402:8421   */\n      0x84\n      add\n        /* \"Ethereum/Presale.sol\":11219:11290  require(buyer.baseDeposit > 0, \"You refund all or have not bought yet\") */\n      tag_144\n        /* \"#utility.yul\":8200:8427   */\n      jump\n        /* \"Ethereum/Presale.sol\":11219:11290  require(buyer.baseDeposit > 0, \"You refund all or have not bought yet\") */\n    tag_374:\n        /* \"Ethereum/Presale.sol\":11328:11345  buyer.baseDeposit */\n      dup1\n      sload\n        /* \"Ethereum/Presale.sol\":11372:11404  buyer.baseDeposit - amountRefund */\n      tag_377\n        /* \"Ethereum/Presale.sol\":11328:11345  buyer.baseDeposit */\n      dup2\n      dup1\n        /* \"Ethereum/Presale.sol\":11372:11404  buyer.baseDeposit - amountRefund */\n      tag_194\n      jump\t// in\n    tag_377:\n        /* \"Ethereum/Presale.sol\":11360:11368  totalFee */\n      0x1e\n      0x00\n        /* \"Ethereum/Presale.sol\":11360:11404  totalFee += buyer.baseDeposit - amountRefund */\n      dup3\n      dup3\n      sload\n      tag_378\n      swap2\n      swap1\n      tag_211\n      jump\t// in\n    tag_378:\n      swap1\n      swap2\n      sstore\n      pop\n      pop\n        /* \"Ethereum/Presale.sol\":11419:11450  presaleStatus.totalBaseWithDraw */\n      0x07\n        /* \"Ethereum/Presale.sol\":11419:11466  presaleStatus.totalBaseWithDraw += amountRefund */\n      dup1\n      sload\n        /* \"Ethereum/Presale.sol\":11454:11466  amountRefund */\n      dup3\n      swap2\n        /* \"Ethereum/Presale.sol\":11419:11450  presaleStatus.totalBaseWithDraw */\n      swap1\n      0x00\n      swap1\n        /* \"Ethereum/Presale.sol\":11419:11466  presaleStatus.totalBaseWithDraw += amountRefund */\n      tag_379\n      swap1\n        /* \"Ethereum/Presale.sol\":11454:11466  amountRefund */\n      dup5\n      swap1\n        /* \"Ethereum/Presale.sol\":11419:11466  presaleStatus.totalBaseWithDraw += amountRefund */\n      tag_211\n      jump\t// in\n    tag_379:\n      swap1\n      swap2\n      sstore\n      pop\n      pop\n        /* \"Ethereum/Presale.sol\":11502:11503  0 */\n      0x00\n        /* \"Ethereum/Presale.sol\":11481:11503  buyer.baseDeposit  = 0 */\n      dup1\n      dup4\n      sstore\n        /* \"Ethereum/Presale.sol\":11518:11534  buyer.tokenOwner */\n      0x01\n      dup4\n      add\n        /* \"Ethereum/Presale.sol\":11518:11538  buyer.tokenOwner = 0 */\n      dup2\n      swap1\n      sstore\n        /* \"Ethereum/Presale.sol\":11574:11589  block.timestamp */\n      timestamp\n        /* \"Ethereum/Presale.sol\":11553:11571  buyer.lastWithDraw */\n      0x02\n      dup5\n      add\n        /* \"Ethereum/Presale.sol\":11553:11589  buyer.lastWithDraw = block.timestamp */\n      sstore\n        /* \"Ethereum/Presale.sol\":11604:11646  payable(msg.sender).transfer(amountRefund) */\n      mload(0x40)\n        /* \"Ethereum/Presale.sol\":11612:11622  msg.sender */\n      caller\n      swap2\n        /* \"Ethereum/Presale.sol\":11604:11646  payable(msg.sender).transfer(amountRefund) */\n      dup4\n      iszero\n      0x08fc\n      mul\n      swap2\n        /* \"Ethereum/Presale.sol\":11633:11645  amountRefund */\n      dup5\n      swap2\n        /* \"Ethereum/Presale.sol\":11604:11646  payable(msg.sender).transfer(amountRefund) */\n      dup2\n        /* \"Ethereum/Presale.sol\":11502:11503  0 */\n      dup2\n        /* \"Ethereum/Presale.sol\":11604:11646  payable(msg.sender).transfer(amountRefund) */\n      dup2\n        /* \"Ethereum/Presale.sol\":11633:11645  amountRefund */\n      dup6\n        /* \"Ethereum/Presale.sol\":11612:11622  msg.sender */\n      dup9\n        /* \"Ethereum/Presale.sol\":11604:11646  payable(msg.sender).transfer(amountRefund) */\n      dup9\n      call\n      swap4\n      pop\n      pop\n      pop\n      pop\n      iszero\n      dup1\n      iszero\n      tag_381\n      jumpi\n      returndatasize\n      0x00\n      dup1\n      returndatacopy\n      revert(0x00, returndatasize)\n    tag_381:\n      pop\n        /* \"Ethereum/Presale.sol\":10984:11658  {\r... */\n      pop\n      pop\n        /* \"Ethereum/Presale.sol\":10092:11665  function userClaimOrRefundWhenSaleSuccess(bool isClaim) external {\r... */\n      pop\n      jump\t// out\n        /* \"Utils/Ownable.sol\":1972:2173  function transferOwnership(address newOwner) public virtual onlyOwner {\r... */\n    tag_127:\n        /* \"Utils/Ownable.sol\":1136:1142  _owner */\n      and(sub(shl(0xa0, 0x01), 0x01), sload(0x01))\n        /* \"Utils/Context.sol\":736:746  msg.sender */\n      caller\n        /* \"Utils/Ownable.sol\":1283:1306  owner() == _msgSender() */\n      eq\n        /* \"Utils/Ownable.sol\":1275:1343  require(owner() == _msgSender(), \"Ownable: caller is not the owner\") */\n      tag_385\n      jumpi\n      mload(0x40)\n      shl(0xe5, 0x461bcd)\n      dup2\n      mstore\n        /* \"#utility.yul\":10074:10076   */\n      0x20\n        /* \"Utils/Ownable.sol\":1275:1343  require(owner() == _msgSender(), \"Ownable: caller is not the owner\") */\n      0x04\n      dup3\n      add\n        /* \"#utility.yul\":10056:10077   */\n      dup2\n      swap1\n      mstore\n        /* \"#utility.yul\":10093:10111   */\n      0x24\n      dup3\n      add\n        /* \"#utility.yul\":10086:10116   */\n      mstore\n        /* \"#utility.yul\":10152:10186   */\n      0x4f776e61626c653a2063616c6c6572206973206e6f7420746865206f776e6572\n        /* \"#utility.yul\":10132:10150   */\n      0x44\n      dup3\n      add\n        /* \"#utility.yul\":10125:10187   */\n      mstore\n        /* \"#utility.yul\":10204:10222   */\n      0x64\n      add\n        /* \"Utils/Ownable.sol\":1275:1343  require(owner() == _msgSender(), \"Ownable: caller is not the owner\") */\n      tag_144\n        /* \"#utility.yul\":10046:10228   */\n      jump\n        /* \"Utils/Ownable.sol\":1275:1343  require(owner() == _msgSender(), \"Ownable: caller is not the owner\") */\n    tag_385:\n      sub(shl(0xa0, 0x01), 0x01)\n        /* \"Utils/Ownable.sol\":2061:2083  newOwner != address(0) */\n      dup2\n      and\n        /* \"Utils/Ownable.sol\":2053:2126  require(newOwner != address(0), \"Ownable: new owner is the zero address\") */\n      tag_388\n      jumpi\n      mload(0x40)\n      shl(0xe5, 0x461bcd)\n      dup2\n      mstore\n        /* \"#utility.yul\":7119:7121   */\n      0x20\n        /* \"Utils/Ownable.sol\":2053:2126  require(newOwner != address(0), \"Ownable: new owner is the zero address\") */\n      0x04\n      dup3\n      add\n        /* \"#utility.yul\":7101:7122   */\n      mstore\n        /* \"#utility.yul\":7158:7160   */\n      0x26\n        /* \"#utility.yul\":7138:7156   */\n      0x24\n      dup3\n      add\n        /* \"#utility.yul\":7131:7161   */\n      mstore\n        /* \"#utility.yul\":7197:7231   */\n      0x4f776e61626c653a206e6577206f776e657220697320746865207a65726f2061\n        /* \"#utility.yul\":7177:7195   */\n      0x44\n      dup3\n      add\n        /* \"#utility.yul\":7170:7232   */\n      mstore\n      shl(0xd0, 0x646472657373)\n        /* \"#utility.yul\":7248:7266   */\n      0x64\n      dup3\n      add\n        /* \"#utility.yul\":7241:7277   */\n      mstore\n        /* \"#utility.yul\":7294:7313   */\n      0x84\n      add\n        /* \"Utils/Ownable.sol\":2053:2126  require(newOwner != address(0), \"Ownable: new owner is the zero address\") */\n      tag_144\n        /* \"#utility.yul\":7091:7319   */\n      jump\n        /* \"Utils/Ownable.sol\":2053:2126  require(newOwner != address(0), \"Ownable: new owner is the zero address\") */\n    tag_388:\n        /* \"Utils/Ownable.sol\":2137:2165  _transferOwnership(newOwner) */\n      tag_151\n        /* \"Utils/Ownable.sol\":2156:2164  newOwner */\n      dup2\n        /* \"Utils/Ownable.sol\":2137:2155  _transferOwnership */\n      tag_148\n        /* \"Utils/Ownable.sol\":2137:2165  _transferOwnership(newOwner) */\n      jump\t// in\n        /* \"Utils/EnumerableSet.sol\":8259:8411  function add(AddressSet storage set, address value) internal returns (bool) {\r... */\n    tag_133:\n        /* \"Utils/EnumerableSet.sol\":8329:8333  bool */\n      0x00\n        /* \"Utils/EnumerableSet.sol\":8353:8403  _add(set._inner, bytes32(uint256(uint160(value)))) */\n      tag_394\n        /* \"Utils/EnumerableSet.sol\":8358:8361  set */\n      dup4\n      sub(shl(0xa0, 0x01), 0x01)\n        /* \"Utils/EnumerableSet.sol\":8378:8401  uint256(uint160(value)) */\n      dup5\n      and\n        /* \"Utils/EnumerableSet.sol\":8353:8357  _add */\n      tag_395\n        /* \"Utils/EnumerableSet.sol\":8353:8403  _add(set._inner, bytes32(uint256(uint160(value)))) */\n      jump\t// in\n    tag_394:\n        /* \"Utils/EnumerableSet.sol\":8346:8403  return _add(set._inner, bytes32(uint256(uint160(value)))) */\n      swap1\n      pop\n        /* \"Utils/EnumerableSet.sol\":8259:8411  function add(AddressSet storage set, address value) internal returns (bool) {\r... */\n    tag_393:\n      swap3\n      swap2\n      pop\n      pop\n      jump\t// out\n        /* \"Utils/Ownable.sol\":2333:2524  function _transferOwnership(address newOwner) internal virtual {\r... */\n    tag_148:\n        /* \"Utils/Ownable.sol\":2426:2432  _owner */\n      0x01\n      dup1\n      sload\n      sub(shl(0xa0, 0x01), 0x01)\n        /* \"Utils/Ownable.sol\":2443:2460  _owner = newOwner */\n      dup4\n      dup2\n      and\n      not(sub(shl(0xa0, 0x01), 0x01))\n      dup4\n      and\n      dup2\n      or\n      swap1\n      swap4\n      sstore\n        /* \"Utils/Ownable.sol\":2476:2516  OwnershipTransferred(oldOwner, newOwner) */\n      mload(0x40)\n        /* \"Utils/Ownable.sol\":2426:2432  _owner */\n      swap2\n      and\n      swap2\n        /* \"Utils/Ownable.sol\":2443:2460  _owner = newOwner */\n      swap1\n        /* \"Utils/Ownable.sol\":2426:2432  _owner */\n      dup3\n      swap1\n        /* \"Utils/Ownable.sol\":2476:2516  OwnershipTransferred(oldOwner, newOwner) */\n      0x8be0079c531659141344cd1fd0a4f28419497f9722a3daafe3b4186f6b6457e0\n      swap1\n        /* \"Utils/Ownable.sol\":2407:2423  address oldOwner */\n      0x00\n      swap1\n        /* \"Utils/Ownable.sol\":2476:2516  OwnershipTransferred(oldOwner, newOwner) */\n      log3\n        /* \"Utils/Ownable.sol\":2396:2524  {\r... */\n      pop\n        /* \"Utils/Ownable.sol\":2333:2524  function _transferOwnership(address newOwner) internal virtual {\r... */\n      pop\n      jump\t// out\n        /* \"Utils/SafeMath.sol\":3228:3326  function sub(uint256 a, uint256 b) internal pure returns (uint256) {\r... */\n    tag_170:\n        /* \"Utils/SafeMath.sol\":3286:3293  uint256 */\n      0x00\n        /* \"Utils/SafeMath.sol\":3313:3318  a - b */\n      tag_394\n        /* \"Utils/SafeMath.sol\":3317:3318  b */\n      dup3\n        /* \"Utils/SafeMath.sol\":3313:3314  a */\n      dup5\n        /* \"Utils/SafeMath.sol\":3313:3318  a - b */\n      tag_194\n      jump\t// in\n        /* \"Utils/SafeMath.sol\":3585:3683  function mul(uint256 a, uint256 b) internal pure returns (uint256) {\r... */\n    tag_207:\n        /* \"Utils/SafeMath.sol\":3643:3650  uint256 */\n      0x00\n        /* \"Utils/SafeMath.sol\":3670:3675  a * b */\n      tag_394\n        /* \"Utils/SafeMath.sol\":3674:3675  b */\n      dup3\n        /* \"Utils/SafeMath.sol\":3670:3671  a */\n      dup5\n        /* \"Utils/SafeMath.sol\":3670:3675  a * b */\n      tag_229\n      jump\t// in\n        /* \"Utils/SafeMath.sol\":3984:4082  function div(uint256 a, uint256 b) internal pure returns (uint256) {\r... */\n    tag_208:\n        /* \"Utils/SafeMath.sol\":4042:4049  uint256 */\n      0x00\n        /* \"Utils/SafeMath.sol\":4069:4074  a / b */\n      tag_394\n        /* \"Utils/SafeMath.sol\":4073:4074  b */\n      dup3\n        /* \"Utils/SafeMath.sol\":4069:4070  a */\n      dup5\n        /* \"Utils/SafeMath.sol\":4069:4074  a / b */\n      tag_271\n      jump\t// in\n        /* \"Utils/TransferHelper.sol\":1073:1503  function safeTransferFrom(\r... */\n    tag_349:\n        /* \"Utils/TransferHelper.sol\":1279:1330  abi.encodeWithSelector(0x23b872dd, from, to, value) */\n      0x40\n      dup1\n      mload\n      sub(shl(0xa0, 0x01), 0x01)\n        /* \"#utility.yul\":5039:5054   */\n      dup6\n      dup2\n      and\n        /* \"Utils/TransferHelper.sol\":1279:1330  abi.encodeWithSelector(0x23b872dd, from, to, value) */\n      0x24\n      dup4\n      add\n        /* \"#utility.yul\":5021:5055   */\n      mstore\n        /* \"#utility.yul\":5091:5106   */\n      dup5\n      dup2\n      and\n        /* \"#utility.yul\":5071:5089   */\n      0x44\n      dup4\n      add\n        /* \"#utility.yul\":5064:5107   */\n      mstore\n        /* \"#utility.yul\":5123:5141   */\n      0x64\n      dup1\n      dup4\n      add\n        /* \"#utility.yul\":5116:5150   */\n      dup6\n      swap1\n      mstore\n        /* \"Utils/TransferHelper.sol\":1279:1330  abi.encodeWithSelector(0x23b872dd, from, to, value) */\n      dup4\n      mload\n      dup1\n      dup5\n      sub\n      swap1\n      swap2\n      add\n      dup2\n      mstore\n        /* \"#utility.yul\":4956:4974   */\n      0x84\n      swap1\n      swap3\n      add\n        /* \"Utils/TransferHelper.sol\":1279:1330  abi.encodeWithSelector(0x23b872dd, from, to, value) */\n      dup4\n      mstore\n      0x20\n      dup3\n      add\n      dup1\n      mload\n      sub(shl(0xe0, 0x01), 0x01)\n      and\n      shl(0xe0, 0x23b872dd)\n      or\n      swap1\n      mstore\n        /* \"Utils/TransferHelper.sol\":1254:1341  token.call(\r... */\n      swap2\n      mload\n      0x00\n      swap3\n      dup4\n      swap3\n        /* \"Utils/TransferHelper.sol\":1254:1264  token.call */\n      swap1\n      dup9\n      and\n      swap2\n        /* \"Utils/TransferHelper.sol\":1254:1341  token.call(\r... */\n      tag_407\n      swap2\n        /* \"Utils/TransferHelper.sol\":1279:1330  abi.encodeWithSelector(0x23b872dd, from, to, value) */\n      swap1\n        /* \"Utils/TransferHelper.sol\":1254:1341  token.call(\r... */\n      tag_408\n      jump\t// in\n    tag_407:\n      0x00\n      mload(0x40)\n      dup1\n      dup4\n      sub\n      dup2\n      0x00\n      dup7\n      gas\n      call\n      swap2\n      pop\n      pop\n      returndatasize\n      dup1\n      0x00\n      dup2\n      eq\n      tag_411\n      jumpi\n      mload(0x40)\n      swap2\n      pop\n      and(add(returndatasize, 0x3f), not(0x1f))\n      dup3\n      add\n      0x40\n      mstore\n      returndatasize\n      dup3\n      mstore\n      returndatasize\n      0x00\n      0x20\n      dup5\n      add\n      returndatacopy\n      jump(tag_410)\n    tag_411:\n      0x60\n      swap2\n      pop\n    tag_410:\n      pop\n        /* \"Utils/TransferHelper.sol\":1218:1341  (bool success, bytes memory data) = token.call(\r... */\n      swap2\n      pop\n      swap2\n      pop\n        /* \"Utils/TransferHelper.sol\":1374:1381  success */\n      dup2\n        /* \"Utils/TransferHelper.sol\":1374:1431  success && (data.length == 0 || abi.decode(data, (bool))) */\n      dup1\n      iszero\n      tag_414\n      jumpi\n      pop\n        /* \"Utils/TransferHelper.sol\":1386:1397  data.length */\n      dup1\n      mload\n        /* \"Utils/TransferHelper.sol\":1386:1402  data.length == 0 */\n      iszero\n      dup1\n        /* \"Utils/TransferHelper.sol\":1386:1430  data.length == 0 || abi.decode(data, (bool)) */\n      tag_414\n      jumpi\n      pop\n        /* \"Utils/TransferHelper.sol\":1417:1421  data */\n      dup1\n        /* \"Utils/TransferHelper.sol\":1406:1430  abi.decode(data, (bool)) */\n      dup1\n      0x20\n      add\n      swap1\n      mload\n      dup2\n      add\n      swap1\n      tag_414\n      swap2\n      swap1\n      tag_186\n      jump\t// in\n    tag_414:\n        /* \"Utils/TransferHelper.sol\":1352:1495  require(\r... */\n      tag_415\n      jumpi\n      mload(0x40)\n      shl(0xe5, 0x461bcd)\n      dup2\n      mstore\n        /* \"#utility.yul\":10778:10780   */\n      0x20\n        /* \"Utils/TransferHelper.sol\":1352:1495  require(\r... */\n      0x04\n      dup3\n      add\n        /* \"#utility.yul\":10760:10781   */\n      mstore\n        /* \"#utility.yul\":10817:10819   */\n      0x24\n        /* \"#utility.yul\":10797:10815   */\n      dup1\n      dup3\n      add\n        /* \"#utility.yul\":10790:10820   */\n      mstore\n        /* \"#utility.yul\":10856:10890   */\n      0x5472616e7366657248656c7065723a205452414e534645525f46524f4d5f4641\n        /* \"#utility.yul\":10836:10854   */\n      0x44\n      dup3\n      add\n        /* \"#utility.yul\":10829:10891   */\n      mstore\n      shl(0xe2, 0x12531151)\n        /* \"#utility.yul\":10907:10925   */\n      0x64\n      dup3\n      add\n        /* \"#utility.yul\":10900:10934   */\n      mstore\n        /* \"#utility.yul\":10951:10970   */\n      0x84\n      add\n        /* \"Utils/TransferHelper.sol\":1352:1495  require(\r... */\n      tag_144\n        /* \"#utility.yul\":10750:10976   */\n      jump\n        /* \"Utils/TransferHelper.sol\":1352:1495  require(\r... */\n    tag_415:\n        /* \"Utils/TransferHelper.sol\":1207:1503  {\r... */\n      pop\n      pop\n        /* \"Utils/TransferHelper.sol\":1073:1503  function safeTransferFrom(\r... */\n      pop\n      pop\n      pop\n      pop\n      jump\t// out\n        /* \"Utils/EnumerableSet.sol\":8831:8998  function contains(AddressSet storage set, address value) internal view returns (bool) {\r... */\n    tag_353:\n      sub(shl(0xa0, 0x01), 0x01)\n        /* \"Utils/EnumerableSet.sol\":8965:8988  uint256(uint160(value)) */\n      dup2\n      and\n        /* \"Utils/EnumerableSet.sol\":8911:8915  bool */\n      0x00\n        /* \"Utils/EnumerableSet.sol\":4367:4386  set._indexes[value] */\n      swap1\n      dup2\n      mstore\n        /* \"Utils/EnumerableSet.sol\":4367:4379  set._indexes */\n      0x01\n      dup4\n      add\n        /* \"Utils/EnumerableSet.sol\":4367:4386  set._indexes[value] */\n      0x20\n      mstore\n      0x40\n      dup2\n      keccak256\n      sload\n        /* \"Utils/EnumerableSet.sol\":4367:4391  set._indexes[value] != 0 */\n      iszero\n      iszero\n        /* \"Utils/EnumerableSet.sol\":8935:8990  _contains(set._inner, bytes32(uint256(uint160(value)))) */\n      tag_394\n        /* \"Utils/EnumerableSet.sol\":4270:4399  function _contains(Set storage set, bytes32 value) private view returns (bool) {\r... */\n      jump\n        /* \"Utils/EnumerableSet.sol\":2174:2588  function _add(Set storage set, bytes32 value) private returns (bool) {\r... */\n    tag_395:\n        /* \"Utils/EnumerableSet.sol\":2237:2241  bool */\n      0x00\n        /* \"Utils/EnumerableSet.sol\":4367:4386  set._indexes[value] */\n      dup2\n      dup2\n      mstore\n        /* \"Utils/EnumerableSet.sol\":4367:4379  set._indexes */\n      0x01\n      dup4\n      add\n        /* \"Utils/EnumerableSet.sol\":4367:4386  set._indexes[value] */\n      0x20\n      mstore\n      0x40\n      dup2\n      keccak256\n      sload\n        /* \"Utils/EnumerableSet.sol\":2254:2581  if (!_contains(set, value)) {\r... */\n      tag_423\n      jumpi\n      pop\n        /* \"Utils/EnumerableSet.sol\":2297:2320  set._values.push(value) */\n      dup2\n      sload\n      0x01\n      dup2\n      dup2\n      add\n      dup5\n      sstore\n        /* \"Utils/EnumerableSet.sol\":2297:2308  set._values */\n      0x00\n        /* \"Utils/EnumerableSet.sol\":2297:2320  set._values.push(value) */\n      dup5\n      dup2\n      mstore\n      0x20\n      dup1\n      dup3\n      keccak256\n      swap1\n      swap4\n      add\n      dup5\n      swap1\n      sstore\n        /* \"Utils/EnumerableSet.sol\":2480:2498  set._values.length */\n      dup5\n      sload\n        /* \"Utils/EnumerableSet.sol\":2458:2477  set._indexes[value] */\n      dup5\n      dup3\n      mstore\n        /* \"Utils/EnumerableSet.sol\":2458:2470  set._indexes */\n      dup3\n      dup7\n      add\n        /* \"Utils/EnumerableSet.sol\":2458:2477  set._indexes[value] */\n      swap1\n      swap4\n      mstore\n      0x40\n      swap1\n      keccak256\n        /* \"Utils/EnumerableSet.sol\":2458:2498  set._indexes[value] = set._values.length */\n      swap2\n      swap1\n      swap2\n      sstore\n        /* \"Utils/EnumerableSet.sol\":2513:2524  return true */\n      jump(tag_393)\n        /* \"Utils/EnumerableSet.sol\":2254:2581  if (!_contains(set, value)) {\r... */\n    tag_423:\n      pop\n        /* \"Utils/EnumerableSet.sol\":2564:2569  false */\n      0x00\n        /* \"Utils/EnumerableSet.sol\":2557:2569  return false */\n      jump(tag_393)\n        /* \"#utility.yul\":14:156   */\n    tag_428:\n        /* \"#utility.yul\":90:110   */\n      dup1\n      calldataload\n        /* \"#utility.yul\":119:150   */\n      tag_430\n        /* \"#utility.yul\":90:110   */\n      dup2\n        /* \"#utility.yul\":119:150   */\n      tag_431\n      jump\t// in\n    tag_430:\n        /* \"#utility.yul\":71:156   */\n      swap2\n      swap1\n      pop\n      jump\t// out\n        /* \"#utility.yul\":161:408   */\n    tag_60:\n        /* \"#utility.yul\":220:226   */\n      0x00\n        /* \"#utility.yul\":273:275   */\n      0x20\n        /* \"#utility.yul\":261:270   */\n      dup3\n        /* \"#utility.yul\":252:259   */\n      dup5\n        /* \"#utility.yul\":248:271   */\n      sub\n        /* \"#utility.yul\":244:276   */\n      slt\n        /* \"#utility.yul\":241:243   */\n      iszero\n      tag_433\n      jumpi\n        /* \"#utility.yul\":289:290   */\n      0x00\n        /* \"#utility.yul\":286:287   */\n      dup1\n        /* \"#utility.yul\":279:291   */\n      revert\n        /* \"#utility.yul\":241:243   */\n    tag_433:\n        /* \"#utility.yul\":328:337   */\n      dup2\n        /* \"#utility.yul\":315:338   */\n      calldataload\n        /* \"#utility.yul\":347:378   */\n      tag_434\n        /* \"#utility.yul\":372:377   */\n      dup2\n        /* \"#utility.yul\":347:378   */\n      tag_431\n      jump\t// in\n    tag_434:\n        /* \"#utility.yul\":397:402   */\n      swap4\n        /* \"#utility.yul\":231:408   */\n      swap3\n      pop\n      pop\n      pop\n      jump\t// out\n        /* \"#utility.yul\":413:1887   */\n    tag_81:\n        /* \"#utility.yul\":591:597   */\n      0x00\n        /* \"#utility.yul\":599:605   */\n      dup1\n        /* \"#utility.yul\":607:613   */\n      0x00\n        /* \"#utility.yul\":615:621   */\n      dup1\n        /* \"#utility.yul\":623:629   */\n      0x00\n        /* \"#utility.yul\":631:637   */\n      dup1\n        /* \"#utility.yul\":639:645   */\n      0x00\n        /* \"#utility.yul\":692:695   */\n      0x01e0\n        /* \"#utility.yul\":680:689   */\n      dup9\n        /* \"#utility.yul\":671:678   */\n      dup11\n        /* \"#utility.yul\":667:690   */\n      sub\n        /* \"#utility.yul\":663:696   */\n      slt\n        /* \"#utility.yul\":660:662   */\n      iszero\n      tag_436\n      jumpi\n        /* \"#utility.yul\":709:710   */\n      0x00\n        /* \"#utility.yul\":706:707   */\n      dup1\n        /* \"#utility.yul\":699:711   */\n      revert\n        /* \"#utility.yul\":660:662   */\n    tag_436:\n        /* \"#utility.yul\":748:757   */\n      dup8\n        /* \"#utility.yul\":735:758   */\n      calldataload\n        /* \"#utility.yul\":767:798   */\n      tag_437\n        /* \"#utility.yul\":792:797   */\n      dup2\n        /* \"#utility.yul\":767:798   */\n      tag_431\n      jump\t// in\n    tag_437:\n        /* \"#utility.yul\":817:822   */\n      swap7\n      pop\n        /* \"#utility.yul\":841:843   */\n      0x20\n        /* \"#utility.yul\":880:898   */\n      dup9\n      dup2\n      add\n        /* \"#utility.yul\":867:899   */\n      calldataload\n        /* \"#utility.yul\":908:941   */\n      tag_438\n        /* \"#utility.yul\":867:899   */\n      dup2\n        /* \"#utility.yul\":908:941   */\n      tag_431\n      jump\t// in\n    tag_438:\n        /* \"#utility.yul\":960:967   */\n      swap7\n      pop\n        /* \"#utility.yul\":1019:1021   */\n      0x40\n        /* \"#utility.yul\":1004:1022   */\n      dup10\n      add\n        /* \"#utility.yul\":991:1023   */\n      calldataload\n        /* \"#utility.yul\":1032:1065   */\n      tag_439\n        /* \"#utility.yul\":991:1023   */\n      dup2\n        /* \"#utility.yul\":1032:1065   */\n      tag_431\n      jump\t// in\n    tag_439:\n        /* \"#utility.yul\":1084:1091   */\n      swap6\n      pop\n        /* \"#utility.yul\":1129:1132   */\n      0x7f\n        /* \"#utility.yul\":1114:1133   */\n      dup10\n      add\n        /* \"#utility.yul\":1110:1143   */\n      dup11\n      sgt\n        /* \"#utility.yul\":1100:1102   */\n      tag_440\n      jumpi\n        /* \"#utility.yul\":1157:1158   */\n      0x00\n        /* \"#utility.yul\":1154:1155   */\n      dup1\n        /* \"#utility.yul\":1147:1159   */\n      revert\n        /* \"#utility.yul\":1100:1102   */\n    tag_440:\n        /* \"#utility.yul\":1190:1192   */\n      0x40\n        /* \"#utility.yul\":1184:1193   */\n      mload\n        /* \"#utility.yul\":1232:1235   */\n      0x0120\n        /* \"#utility.yul\":1224:1230   */\n      dup2\n        /* \"#utility.yul\":1220:1236   */\n      add\n        /* \"#utility.yul\":1302:1308   */\n      dup2\n        /* \"#utility.yul\":1290:1300   */\n      dup2\n        /* \"#utility.yul\":1287:1309   */\n      lt\n        /* \"#utility.yul\":1266:1284   */\n      0xffffffffffffffff\n        /* \"#utility.yul\":1254:1264   */\n      dup3\n        /* \"#utility.yul\":1251:1285   */\n      gt\n        /* \"#utility.yul\":1248:1310   */\n      or\n        /* \"#utility.yul\":1245:1247   */\n      iszero\n      tag_442\n      jumpi\n        /* \"#utility.yul\":1313:1331   */\n      tag_442\n      tag_443\n      jump\t// in\n    tag_442:\n        /* \"#utility.yul\":1349:1351   */\n      0x40\n        /* \"#utility.yul\":1342:1364   */\n      mstore\n        /* \"#utility.yul\":1384:1390   */\n      dup1\n        /* \"#utility.yul\":1425:1427   */\n      0x60\n        /* \"#utility.yul\":1410:1428   */\n      dup12\n      add\n        /* \"#utility.yul\":1462:1465   */\n      0x0180\n        /* \"#utility.yul\":1447:1466   */\n      dup13\n      add\n        /* \"#utility.yul\":1478:1493   */\n      dup14\n      dup2\n      gt\n        /* \"#utility.yul\":1475:1477   */\n      iszero\n      tag_444\n      jumpi\n        /* \"#utility.yul\":1506:1507   */\n      0x00\n        /* \"#utility.yul\":1503:1504   */\n      dup1\n        /* \"#utility.yul\":1496:1508   */\n      revert\n        /* \"#utility.yul\":1475:1477   */\n    tag_444:\n        /* \"#utility.yul\":1528:1529   */\n      0x00\n        /* \"#utility.yul\":1538:1703   */\n    tag_445:\n        /* \"#utility.yul\":1552:1556   */\n      0x09\n        /* \"#utility.yul\":1549:1550   */\n      dup2\n        /* \"#utility.yul\":1546:1557   */\n      lt\n        /* \"#utility.yul\":1538:1703   */\n      iszero\n      tag_447\n      jumpi\n        /* \"#utility.yul\":1611:1628   */\n      dup3\n      calldataload\n        /* \"#utility.yul\":1599:1629   */\n      dup5\n      mstore\n        /* \"#utility.yul\":1649:1661   */\n      swap3\n      dup6\n      add\n      swap3\n        /* \"#utility.yul\":1681:1693   */\n      swap2\n      dup6\n      add\n      swap2\n        /* \"#utility.yul\":1572:1573   */\n      0x01\n        /* \"#utility.yul\":1565:1574   */\n      add\n        /* \"#utility.yul\":1538:1703   */\n      jump(tag_445)\n    tag_447:\n      pop\n        /* \"#utility.yul\":1722:1728   */\n      swap3\n      swap8\n      pop\n      pop\n        /* \"#utility.yul\":1747:1763   */\n      swap1\n      calldataload\n      swap5\n      pop\n        /* \"#utility.yul\":1782:1829   */\n      tag_448\n      swap2\n      pop\n      pop\n        /* \"#utility.yul\":1824:1827   */\n      0x01a0\n        /* \"#utility.yul\":1809:1828   */\n      dup10\n      add\n        /* \"#utility.yul\":1782:1829   */\n      tag_428\n      jump\t// in\n    tag_448:\n        /* \"#utility.yul\":1772:1829   */\n      swap2\n      pop\n        /* \"#utility.yul\":1876:1879   */\n      0x01c0\n        /* \"#utility.yul\":1865:1874   */\n      dup9\n        /* \"#utility.yul\":1861:1880   */\n      add\n        /* \"#utility.yul\":1848:1881   */\n      calldataload\n        /* \"#utility.yul\":1838:1881   */\n      swap1\n      pop\n        /* \"#utility.yul\":650:1887   */\n      swap3\n      swap6\n      swap9\n      swap2\n      swap5\n      swap8\n      pop\n      swap3\n      swap6\n      pop\n      jump\t// out\n        /* \"#utility.yul\":1892:2133   */\n    tag_122:\n        /* \"#utility.yul\":1948:1954   */\n      0x00\n        /* \"#utility.yul\":2001:2003   */\n      0x20\n        /* \"#utility.yul\":1989:1998   */\n      dup3\n        /* \"#utility.yul\":1980:1987   */\n      dup5\n        /* \"#utility.yul\":1976:1999   */\n      sub\n        /* \"#utility.yul\":1972:2004   */\n      slt\n        /* \"#utility.yul\":1969:1971   */\n      iszero\n      tag_450\n      jumpi\n        /* \"#utility.yul\":2017:2018   */\n      0x00\n        /* \"#utility.yul\":2014:2015   */\n      dup1\n        /* \"#utility.yul\":2007:2019   */\n      revert\n        /* \"#utility.yul\":1969:1971   */\n    tag_450:\n        /* \"#utility.yul\":2056:2065   */\n      dup2\n        /* \"#utility.yul\":2043:2066   */\n      calldataload\n        /* \"#utility.yul\":2075:2103   */\n      tag_434\n        /* \"#utility.yul\":2097:2102   */\n      dup2\n        /* \"#utility.yul\":2075:2103   */\n      tag_452\n      jump\t// in\n        /* \"#utility.yul\":2138:2383   */\n    tag_186:\n        /* \"#utility.yul\":2205:2211   */\n      0x00\n        /* \"#utility.yul\":2258:2260   */\n      0x20\n        /* \"#utility.yul\":2246:2255   */\n      dup3\n        /* \"#utility.yul\":2237:2244   */\n      dup5\n        /* \"#utility.yul\":2233:2256   */\n      sub\n        /* \"#utility.yul\":2229:2261   */\n      slt\n        /* \"#utility.yul\":2226:2228   */\n      iszero\n      tag_454\n      jumpi\n        /* \"#utility.yul\":2274:2275   */\n      0x00\n        /* \"#utility.yul\":2271:2272   */\n      dup1\n        /* \"#utility.yul\":2264:2276   */\n      revert\n        /* \"#utility.yul\":2226:2228   */\n    tag_454:\n        /* \"#utility.yul\":2306:2315   */\n      dup2\n        /* \"#utility.yul\":2300:2316   */\n      mload\n        /* \"#utility.yul\":2325:2353   */\n      tag_434\n        /* \"#utility.yul\":2347:2352   */\n      dup2\n        /* \"#utility.yul\":2325:2353   */\n      tag_452\n      jump\t// in\n        /* \"#utility.yul\":2388:2568   */\n    tag_102:\n        /* \"#utility.yul\":2447:2453   */\n      0x00\n        /* \"#utility.yul\":2500:2502   */\n      0x20\n        /* \"#utility.yul\":2488:2497   */\n      dup3\n        /* \"#utility.yul\":2479:2486   */\n      dup5\n        /* \"#utility.yul\":2475:2498   */\n      sub\n        /* \"#utility.yul\":2471:2503   */\n      slt\n        /* \"#utility.yul\":2468:2470   */\n      iszero\n      tag_457\n      jumpi\n        /* \"#utility.yul\":2516:2517   */\n      0x00\n        /* \"#utility.yul\":2513:2514   */\n      dup1\n        /* \"#utility.yul\":2506:2518   */\n      revert\n        /* \"#utility.yul\":2468:2470   */\n    tag_457:\n      pop\n        /* \"#utility.yul\":2539:2562   */\n      calldataload\n      swap2\n        /* \"#utility.yul\":2458:2568   */\n      swap1\n      pop\n      jump\t// out\n        /* \"#utility.yul\":2573:2757   */\n    tag_168:\n        /* \"#utility.yul\":2643:2649   */\n      0x00\n        /* \"#utility.yul\":2696:2698   */\n      0x20\n        /* \"#utility.yul\":2684:2693   */\n      dup3\n        /* \"#utility.yul\":2675:2682   */\n      dup5\n        /* \"#utility.yul\":2671:2694   */\n      sub\n        /* \"#utility.yul\":2667:2699   */\n      slt\n        /* \"#utility.yul\":2664:2666   */\n      iszero\n      tag_459\n      jumpi\n        /* \"#utility.yul\":2712:2713   */\n      0x00\n        /* \"#utility.yul\":2709:2710   */\n      dup1\n        /* \"#utility.yul\":2702:2714   */\n      revert\n        /* \"#utility.yul\":2664:2666   */\n    tag_459:\n      pop\n        /* \"#utility.yul\":2735:2751   */\n      mload\n      swap2\n        /* \"#utility.yul\":2654:2757   */\n      swap1\n      pop\n      jump\t// out\n        /* \"#utility.yul\":2762:3188   */\n    tag_408:\n        /* \"#utility.yul\":2891:2894   */\n      0x00\n        /* \"#utility.yul\":2929:2935   */\n      dup3\n        /* \"#utility.yul\":2923:2936   */\n      mload\n        /* \"#utility.yul\":2954:2955   */\n      0x00\n        /* \"#utility.yul\":2964:3093   */\n    tag_461:\n        /* \"#utility.yul\":2978:2984   */\n      dup2\n        /* \"#utility.yul\":2975:2976   */\n      dup2\n        /* \"#utility.yul\":2972:2985   */\n      lt\n        /* \"#utility.yul\":2964:3093   */\n      iszero\n      tag_463\n      jumpi\n        /* \"#utility.yul\":3076:3080   */\n      0x20\n        /* \"#utility.yul\":3060:3074   */\n      dup2\n      dup7\n      add\n        /* \"#utility.yul\":3056:3081   */\n      dup2\n      add\n        /* \"#utility.yul\":3050:3082   */\n      mload\n        /* \"#utility.yul\":3037:3048   */\n      dup6\n      dup4\n      add\n        /* \"#utility.yul\":3030:3083   */\n      mstore\n        /* \"#utility.yul\":2993:3005   */\n      add\n        /* \"#utility.yul\":2964:3093   */\n      jump(tag_461)\n    tag_463:\n        /* \"#utility.yul\":3111:3117   */\n      dup2\n        /* \"#utility.yul\":3108:3109   */\n      dup2\n        /* \"#utility.yul\":3105:3118   */\n      gt\n        /* \"#utility.yul\":3102:3104   */\n      iszero\n      tag_464\n      jumpi\n        /* \"#utility.yul\":3146:3147   */\n      0x00\n        /* \"#utility.yul\":3137:3143   */\n      dup3\n        /* \"#utility.yul\":3132:3135   */\n      dup6\n        /* \"#utility.yul\":3128:3144   */\n      add\n        /* \"#utility.yul\":3121:3148   */\n      mstore\n        /* \"#utility.yul\":3102:3104   */\n    tag_464:\n      pop\n        /* \"#utility.yul\":3166:3182   */\n      swap2\n      swap1\n      swap2\n      add\n      swap3\n        /* \"#utility.yul\":2899:3188   */\n      swap2\n      pop\n      pop\n      jump\t// out\n        /* \"#utility.yul\":6561:6912   */\n    tag_197:\n        /* \"#utility.yul\":6763:6765   */\n      0x20\n        /* \"#utility.yul\":6745:6766   */\n      dup1\n      dup3\n      mstore\n        /* \"#utility.yul\":6802:6804   */\n      0x1b\n        /* \"#utility.yul\":6782:6800   */\n      swap1\n      dup3\n      add\n        /* \"#utility.yul\":6775:6805   */\n      mstore\n        /* \"#utility.yul\":6841:6870   */\n      0x416c6c20746f6b656e20686173206265656e2077697468647261770000000000\n        /* \"#utility.yul\":6836:6838   */\n      0x40\n        /* \"#utility.yul\":6821:6839   */\n      dup3\n      add\n        /* \"#utility.yul\":6814:6871   */\n      mstore\n        /* \"#utility.yul\":6903:6905   */\n      0x60\n        /* \"#utility.yul\":6888:6906   */\n      add\n      swap1\n        /* \"#utility.yul\":6735:6912   */\n      jump\t// out\n        /* \"#utility.yul\":11339:11694   */\n    tag_161:\n        /* \"#utility.yul\":11541:11543   */\n      0x20\n        /* \"#utility.yul\":11523:11544   */\n      dup1\n      dup3\n      mstore\n        /* \"#utility.yul\":11580:11582   */\n      0x1f\n        /* \"#utility.yul\":11560:11578   */\n      swap1\n      dup3\n      add\n        /* \"#utility.yul\":11553:11583   */\n      mstore\n        /* \"#utility.yul\":11619:11652   */\n      0x5265656e7472616e637947756172643a207265656e7472616e742063616c6c00\n        /* \"#utility.yul\":11614:11616   */\n      0x40\n        /* \"#utility.yul\":11599:11617   */\n      dup3\n      add\n        /* \"#utility.yul\":11592:11653   */\n      mstore\n        /* \"#utility.yul\":11685:11687   */\n      0x60\n        /* \"#utility.yul\":11670:11688   */\n      add\n      swap1\n        /* \"#utility.yul\":11513:11694   */\n      jump\t// out\n        /* \"#utility.yul\":13722:13850   */\n    tag_211:\n        /* \"#utility.yul\":13762:13765   */\n      0x00\n        /* \"#utility.yul\":13793:13794   */\n      dup3\n        /* \"#utility.yul\":13789:13795   */\n      not\n        /* \"#utility.yul\":13786:13787   */\n      dup3\n        /* \"#utility.yul\":13783:13796   */\n      gt\n        /* \"#utility.yul\":13780:13782   */\n      iszero\n      tag_495\n      jumpi\n        /* \"#utility.yul\":13799:13817   */\n      tag_495\n      tag_496\n      jump\t// in\n    tag_495:\n      pop\n        /* \"#utility.yul\":13835:13844   */\n      add\n      swap1\n        /* \"#utility.yul\":13770:13850   */\n      jump\t// out\n        /* \"#utility.yul\":13855:14072   */\n    tag_271:\n        /* \"#utility.yul\":13895:13896   */\n      0x00\n        /* \"#utility.yul\":13921:13922   */\n      dup3\n        /* \"#utility.yul\":13911:13913   */\n      tag_498\n      jumpi\n        /* \"#utility.yul\":13965:13975   */\n      0x4e487b71\n        /* \"#utility.yul\":13960:13963   */\n      0xe0\n        /* \"#utility.yul\":13956:13976   */\n      shl\n        /* \"#utility.yul\":13953:13954   */\n      0x00\n        /* \"#utility.yul\":13946:13977   */\n      mstore\n        /* \"#utility.yul\":14000:14004   */\n      0x12\n        /* \"#utility.yul\":13997:13998   */\n      0x04\n        /* \"#utility.yul\":13990:14005   */\n      mstore\n        /* \"#utility.yul\":14028:14032   */\n      0x24\n        /* \"#utility.yul\":14025:14026   */\n      0x00\n        /* \"#utility.yul\":14018:14033   */\n      revert\n        /* \"#utility.yul\":13911:13913   */\n    tag_498:\n      pop\n        /* \"#utility.yul\":14057:14066   */\n      div\n      swap1\n        /* \"#utility.yul\":13901:14072   */\n      jump\t// out\n        /* \"#utility.yul\":14077:14499   */\n    tag_499:\n        /* \"#utility.yul\":14166:14167   */\n      0x01\n        /* \"#utility.yul\":14209:14214   */\n      dup2\n        /* \"#utility.yul\":14166:14167   */\n      dup2\n        /* \"#utility.yul\":14223:14493   */\n    tag_501:\n        /* \"#utility.yul\":14244:14251   */\n      dup1\n        /* \"#utility.yul\":14234:14242   */\n      dup6\n        /* \"#utility.yul\":14231:14252   */\n      gt\n        /* \"#utility.yul\":14223:14493   */\n      iszero\n      tag_503\n      jumpi\n        /* \"#utility.yul\":14303:14307   */\n      dup2\n        /* \"#utility.yul\":14299:14300   */\n      0x00\n        /* \"#utility.yul\":14295:14301   */\n      not\n        /* \"#utility.yul\":14291:14308   */\n      div\n        /* \"#utility.yul\":14285:14289   */\n      dup3\n        /* \"#utility.yul\":14282:14309   */\n      gt\n        /* \"#utility.yul\":14279:14281   */\n      iszero\n      tag_505\n      jumpi\n        /* \"#utility.yul\":14312:14330   */\n      tag_505\n      tag_496\n      jump\t// in\n    tag_505:\n        /* \"#utility.yul\":14362:14369   */\n      dup1\n        /* \"#utility.yul\":14352:14360   */\n      dup6\n        /* \"#utility.yul\":14348:14370   */\n      and\n        /* \"#utility.yul\":14345:14347   */\n      iszero\n      tag_506\n      jumpi\n        /* \"#utility.yul\":14382:14398   */\n      swap2\n      dup2\n      mul\n      swap2\n        /* \"#utility.yul\":14345:14347   */\n    tag_506:\n        /* \"#utility.yul\":14461:14483   */\n      swap4\n      dup5\n      shr\n      swap4\n        /* \"#utility.yul\":14421:14436   */\n      swap1\n      dup1\n      mul\n      swap1\n        /* \"#utility.yul\":14223:14493   */\n      jump(tag_501)\n    tag_503:\n        /* \"#utility.yul\":14227:14230   */\n      pop\n        /* \"#utility.yul\":14141:14499   */\n      swap3\n      pop\n      swap3\n      swap1\n      pop\n      jump\t// out\n        /* \"#utility.yul\":14504:14635   */\n    tag_224:\n        /* \"#utility.yul\":14564:14569   */\n      0x00\n        /* \"#utility.yul\":14593:14629   */\n      tag_394\n        /* \"#utility.yul\":14620:14628   */\n      dup4\n        /* \"#utility.yul\":14614:14618   */\n      dup4\n        /* \"#utility.yul\":14689:14694   */\n      0x00\n        /* \"#utility.yul\":14719:14727   */\n      dup3\n        /* \"#utility.yul\":14709:14711   */\n      tag_511\n      jumpi\n      pop\n        /* \"#utility.yul\":14760:14761   */\n      0x01\n        /* \"#utility.yul\":14774:14779   */\n      jump(tag_393)\n        /* \"#utility.yul\":14709:14711   */\n    tag_511:\n        /* \"#utility.yul\":14808:14812   */\n      dup2\n        /* \"#utility.yul\":14798:14800   */\n      tag_512\n      jumpi\n      pop\n        /* \"#utility.yul\":14845:14846   */\n      0x00\n        /* \"#utility.yul\":14859:14864   */\n      jump(tag_393)\n        /* \"#utility.yul\":14798:14800   */\n    tag_512:\n        /* \"#utility.yul\":14890:14894   */\n      dup2\n        /* \"#utility.yul\":14908:14909   */\n      0x01\n        /* \"#utility.yul\":14903:14962   */\n      dup2\n      eq\n      tag_514\n      jumpi\n        /* \"#utility.yul\":14976:14977   */\n      0x02\n        /* \"#utility.yul\":14971:15101   */\n      dup2\n      eq\n      tag_515\n      jumpi\n        /* \"#utility.yul\":14883:15101   */\n      jump(tag_513)\n        /* \"#utility.yul\":14903:14962   */\n    tag_514:\n        /* \"#utility.yul\":14933:14934   */\n      0x01\n        /* \"#utility.yul\":14924:14934   */\n      swap2\n      pop\n        /* \"#utility.yul\":14947:14952   */\n      pop\n      jump(tag_393)\n        /* \"#utility.yul\":14971:15101   */\n    tag_515:\n        /* \"#utility.yul\":15008:15011   */\n      0xff\n        /* \"#utility.yul\":14998:15006   */\n      dup5\n        /* \"#utility.yul\":14995:15012   */\n      gt\n        /* \"#utility.yul\":14992:14994   */\n      iszero\n      tag_517\n      jumpi\n        /* \"#utility.yul\":15015:15033   */\n      tag_517\n      tag_496\n      jump\t// in\n    tag_517:\n      pop\n      pop\n        /* \"#utility.yul\":15071:15072   */\n      0x01\n        /* \"#utility.yul\":15057:15073   */\n      dup3\n      shl\n        /* \"#utility.yul\":15086:15091   */\n      jump(tag_393)\n        /* \"#utility.yul\":14883:15101   */\n    tag_513:\n      pop\n        /* \"#utility.yul\":15185:15187   */\n      0x20\n        /* \"#utility.yul\":15175:15183   */\n      dup4\n        /* \"#utility.yul\":15172:15188   */\n      lt\n        /* \"#utility.yul\":15166:15169   */\n      0x0133\n        /* \"#utility.yul\":15160:15164   */\n      dup4\n        /* \"#utility.yul\":15157:15170   */\n      lt\n        /* \"#utility.yul\":15153:15189   */\n      and\n        /* \"#utility.yul\":15147:15149   */\n      0x4e\n        /* \"#utility.yul\":15137:15145   */\n      dup5\n        /* \"#utility.yul\":15134:15150   */\n      lt\n        /* \"#utility.yul\":15129:15131   */\n      0x0b\n        /* \"#utility.yul\":15123:15127   */\n      dup5\n        /* \"#utility.yul\":15120:15132   */\n      lt\n        /* \"#utility.yul\":15116:15151   */\n      and\n        /* \"#utility.yul\":15113:15190   */\n      or\n        /* \"#utility.yul\":15110:15112   */\n      iszero\n      tag_518\n      jumpi\n      pop\n        /* \"#utility.yul\":15222:15241   */\n      dup2\n      dup2\n      exp\n        /* \"#utility.yul\":15254:15259   */\n      jump(tag_393)\n        /* \"#utility.yul\":15110:15112   */\n    tag_518:\n        /* \"#utility.yul\":15301:15335   */\n      tag_519\n        /* \"#utility.yul\":15326:15334   */\n      dup4\n        /* \"#utility.yul\":15320:15324   */\n      dup4\n        /* \"#utility.yul\":15301:15335   */\n      tag_499\n      jump\t// in\n    tag_519:\n        /* \"#utility.yul\":15371:15377   */\n      dup1\n        /* \"#utility.yul\":15367:15368   */\n      0x00\n        /* \"#utility.yul\":15363:15369   */\n      not\n        /* \"#utility.yul\":15359:15378   */\n      div\n        /* \"#utility.yul\":15350:15357   */\n      dup3\n        /* \"#utility.yul\":15347:15379   */\n      gt\n        /* \"#utility.yul\":15344:15346   */\n      iszero\n      tag_521\n      jumpi\n        /* \"#utility.yul\":15382:15400   */\n      tag_521\n      tag_496\n      jump\t// in\n    tag_521:\n        /* \"#utility.yul\":15420:15440   */\n      mul\n      swap4\n        /* \"#utility.yul\":14699:15446   */\n      swap3\n      pop\n      pop\n      pop\n      jump\t// out\n        /* \"#utility.yul\":15451:15619   */\n    tag_229:\n        /* \"#utility.yul\":15491:15498   */\n      0x00\n        /* \"#utility.yul\":15557:15558   */\n      dup2\n        /* \"#utility.yul\":15553:15554   */\n      0x00\n        /* \"#utility.yul\":15549:15555   */\n      not\n        /* \"#utility.yul\":15545:15559   */\n      div\n        /* \"#utility.yul\":15542:15543   */\n      dup4\n        /* \"#utility.yul\":15539:15560   */\n      gt\n        /* \"#utility.yul\":15534:15535   */\n      dup3\n        /* \"#utility.yul\":15527:15536   */\n      iszero\n        /* \"#utility.yul\":15520:15537   */\n      iszero\n        /* \"#utility.yul\":15516:15561   */\n      and\n        /* \"#utility.yul\":15513:15515   */\n      iszero\n      tag_524\n      jumpi\n        /* \"#utility.yul\":15564:15582   */\n      tag_524\n      tag_496\n      jump\t// in\n    tag_524:\n      pop\n        /* \"#utility.yul\":15604:15613   */\n      mul\n      swap1\n        /* \"#utility.yul\":15503:15619   */\n      jump\t// out\n        /* \"#utility.yul\":15624:15749   */\n    tag_194:\n        /* \"#utility.yul\":15664:15668   */\n      0x00\n        /* \"#utility.yul\":15692:15693   */\n      dup3\n        /* \"#utility.yul\":15689:15690   */\n      dup3\n        /* \"#utility.yul\":15686:15694   */\n      lt\n        /* \"#utility.yul\":15683:15685   */\n      iszero\n      tag_527\n      jumpi\n        /* \"#utility.yul\":15697:15715   */\n      tag_527\n      tag_496\n      jump\t// in\n    tag_527:\n      pop\n        /* \"#utility.yul\":15734:15743   */\n      sub\n      swap1\n        /* \"#utility.yul\":15673:15749   */\n      jump\t// out\n        /* \"#utility.yul\":15754:15889   */\n    tag_336:\n        /* \"#utility.yul\":15793:15796   */\n      0x00\n      not(0x00)\n        /* \"#utility.yul\":15814:15831   */\n      dup3\n      eq\n        /* \"#utility.yul\":15811:15813   */\n      iszero\n      tag_530\n      jumpi\n        /* \"#utility.yul\":15834:15852   */\n      tag_530\n      tag_496\n      jump\t// in\n    tag_530:\n      pop\n        /* \"#utility.yul\":15881:15882   */\n      0x01\n        /* \"#utility.yul\":15870:15883   */\n      add\n      swap1\n        /* \"#utility.yul\":15801:15889   */\n      jump\t// out\n        /* \"#utility.yul\":15894:16021   */\n    tag_496:\n        /* \"#utility.yul\":15955:15965   */\n      0x4e487b71\n        /* \"#utility.yul\":15950:15953   */\n      0xe0\n        /* \"#utility.yul\":15946:15966   */\n      shl\n        /* \"#utility.yul\":15943:15944   */\n      0x00\n        /* \"#utility.yul\":15936:15967   */\n      mstore\n        /* \"#utility.yul\":15986:15990   */\n      0x11\n        /* \"#utility.yul\":15983:15984   */\n      0x04\n        /* \"#utility.yul\":15976:15991   */\n      mstore\n        /* \"#utility.yul\":16010:16014   */\n      0x24\n        /* \"#utility.yul\":16007:16008   */\n      0x00\n        /* \"#utility.yul\":16000:16015   */\n      revert\n        /* \"#utility.yul\":16158:16285   */\n    tag_443:\n        /* \"#utility.yul\":16219:16229   */\n      0x4e487b71\n        /* \"#utility.yul\":16214:16217   */\n      0xe0\n        /* \"#utility.yul\":16210:16230   */\n      shl\n        /* \"#utility.yul\":16207:16208   */\n      0x00\n        /* \"#utility.yul\":16200:16231   */\n      mstore\n        /* \"#utility.yul\":16250:16254   */\n      0x41\n        /* \"#utility.yul\":16247:16248   */\n      0x04\n        /* \"#utility.yul\":16240:16255   */\n      mstore\n        /* \"#utility.yul\":16274:16278   */\n      0x24\n        /* \"#utility.yul\":16271:16272   */\n      0x00\n        /* \"#utility.yul\":16264:16279   */\n      revert\n        /* \"#utility.yul\":16290:16421   */\n    tag_431:\n      sub(shl(0xa0, 0x01), 0x01)\n        /* \"#utility.yul\":16365:16396   */\n      dup2\n      and\n        /* \"#utility.yul\":16355:16397   */\n      dup2\n      eq\n        /* \"#utility.yul\":16345:16347   */\n      tag_151\n      jumpi\n        /* \"#utility.yul\":16411:16412   */\n      0x00\n        /* \"#utility.yul\":16408:16409   */\n      dup1\n        /* \"#utility.yul\":16401:16413   */\n      revert\n        /* \"#utility.yul\":16426:16544   */\n    tag_452:\n        /* \"#utility.yul\":16512:16517   */\n      dup1\n        /* \"#utility.yul\":16505:16518   */\n      iszero\n        /* \"#utility.yul\":16498:16519   */\n      iszero\n        /* \"#utility.yul\":16491:16496   */\n      dup2\n        /* \"#utility.yul\":16488:16520   */\n      eq\n        /* \"#utility.yul\":16478:16480   */\n      tag_151\n      jumpi\n        /* \"#utility.yul\":16534:16535   */\n      0x00\n        /* \"#utility.yul\":16531:16532   */\n      dup1\n        /* \"#utility.yul\":16524:16536   */\n      revert\n\n    auxdata: 0xa264697066735822122094a35e1733a41996391a0c50ae0dadd7dc256e07810dbf3f5b64fafe0307831164736f6c63430008050033\n}\n",
				"bytecode": {
					"linkReferences": {},
					"object": "60806040526040516200204a3803806200204a83398101604081905262000026916200019e565b60016000556200003633620000da565b602280546001600160a01b03199081166001600160a01b03841617909155601b805473c778417e063141139fce010982780140aa0cd5ab9216919091179055620000a2601c736ccb41eeda5a073076f3e7dc1614c185b5fa41ed6200012c602090811b6200180b17901c565b50620000d2734f0b12bbf40fc182559822a5b1db6d34dbc3e016601c6200012c60201b6200180b1790919060201c565b5050620001d0565b600180546001600160a01b038381166001600160a01b0319831681179093556040519116919082907f8be0079c531659141344cd1fd0a4f28419497f9722a3daafe3b4186f6b6457e090600090a35050565b600062000143836001600160a01b0384166200014c565b90505b92915050565b6000818152600183016020526040812054620001955750815460018181018455600084815260208082209093018490558454848252828601909352604090209190915562000146565b50600062000146565b600060208284031215620001b157600080fd5b81516001600160a01b0381168114620001c957600080fd5b9392505050565b611e6a80620001e06000396000f3fe60806040526004361061014b5760003560e01c80639b25415c116100b6578063cad5b0f71161006f578063cad5b0f71461046f578063d4c1dee914610494578063e2d3f423146104aa578063eb002bb01461051c578063f2fde38b1461053c578063f8b2cb4f1461055c57600080fd5b80639b25415c14610360578063ab33985a14610380578063acfb235514610395578063ad5c46481461041c578063ae2b09651461043c578063b6b55f251461045c57600080fd5b806356c5f3491161010857806356c5f349146102cc578063715018a6146102f9578063861faf5f146103105780638da5cb5b146103185780638edf18e61461033657806395661e701461034b57600080fd5b806312e5d0b91461015057806318856a2f146101855780631df4ccfc14610245578063200d2ed21461026957806329a79af61461027e5780633b5ef2ad146102b6575b600080fd5b34801561015c57600080fd5b50600d54600e5461016b919082565b604080519283526020830191909152015b60405180910390f35b34801561019157600080fd5b50600f54601054601154601254601354601454601554601654601754601854601954601a546101d99b6001600160a01b039081169b81169a16989796959493929160ff16908c565b604080516001600160a01b039d8e1681529b8d1660208d015299909b16988a01989098526060890196909652608088019490945260a087019290925260c086015260e085015261010084015261012083015215156101408201526101608101919091526101800161017c565b34801561025157600080fd5b5061025b601e5481565b60405190815260200161017c565b34801561027557600080fd5b5061025b610584565b34801561028a57600080fd5b5060225461029e906001600160a01b031681565b6040516001600160a01b03909116815260200161017c565b3480156102c257600080fd5b5061025b601f5481565b3480156102d857600080fd5b5061025b6102e7366004611a50565b60036020526000908152604090205481565b34801561030557600080fd5b5061030e6105ad565b005b61030e610618565b34801561032457600080fd5b506001546001600160a01b031661029e565b34801561034257600080fd5b5061030e610647565b34801561035757600080fd5b5061030e61090c565b34801561036c57600080fd5b5061030e61037b366004611a74565b610ae3565b34801561038c57600080fd5b5061030e610e87565b3480156103a157600080fd5b50600454600554600654600754600854600954600a54600b546103d4979695949392919060ff8082169161010090041689565b60408051998a5260208a0198909852968801959095526060870193909352608086019190915260a085015260c0840152151560e083015215156101008201526101200161017c565b34801561042857600080fd5b50601b5461029e906001600160a01b031681565b34801561044857600080fd5b5060205461029e906001600160a01b031681565b61030e61046a366004611b94565b6110ad565b34801561047b57600080fd5b5061048461147c565b604051901515815260200161017c565b3480156104a057600080fd5b5061025b60215481565b3480156104b657600080fd5b506104f46104c5366004611a50565b600260208190526000918252604090912080546001820154928201546003830154600490930154919392909185565b604080519586526020860194909452928401919091526060830152608082015260a00161017c565b34801561052857600080fd5b5061030e610537366004611b5a565b61148e565b34801561054857600080fd5b5061030e610557366004611a50565b611743565b34801561056857600080fd5b5061025b610577366004611a50565b6001600160a01b03163190565b6013546000904210156105975750600090565b6014544211156105a75750600290565b50600190565b6001546001600160a01b0316331461060c5760405162461bcd60e51b815260206004820181905260248201527f4f776e61626c653a2063616c6c6572206973206e6f7420746865206f776e657260448201526064015b60405180910390fd5b6106166000611829565b565b60405133904780156108fc02916000818181858888f19350505050158015610644573d6000803e3d6000fd5b50565b600f546001600160a01b0316336001600160a01b03161461069f5760405162461bcd60e51b815260206004820152601260248201527127b7363c90383932b9b0b6329037bbb732b960711b6044820152606401610603565b600260005414156106c25760405162461bcd60e51b815260040161060390611c38565b600260009081556010546040516370a0823160e01b81523060048201526001600160a01b03909116906370a082319060240160206040518083038186803b15801561070c57600080fd5b505afa158015610720573d6000803e3d6000fd5b505050506040513d601f19601f820116820180604052508101906107449190611bad565b6008546004549192506000916107599161187b565b600454909150156107825760085460055461077f91610778919061187b565b839061187b565b91505b600b5460ff16156107d55760405162461bcd60e51b815260206004820152601d60248201527f4e6f7468696e6720666f72206f776e657220636c61696d20746f6b656e0000006044820152606401610603565b600b54610100900460ff161561082d5760405162461bcd60e51b815260206004820152601e60248201527f4e6f7468696e6720666f72206f776e657220726566756e6420746f6b656e00006044820152606401610603565b600b805460ff191660011790556000601a55601054600f5460405163a9059cbb60e01b81526001600160a01b0391821660048201526024810185905291169063a9059cbb90604401602060405180830381600087803b15801561088f57600080fd5b505af11580156108a3573d6000803e3d6000fd5b505050506040513d601f19601f820116820180604052508101906108c79190611b77565b50600f546040516001600160a01b039091169082156108fc029083906000818181858888f19350505050158015610902573d6000803e3d6000fd5b5050600160005550565b6002600054141561092f5760405162461bcd60e51b815260040161060390611c38565b600260009081556007546004546109469190611db3565b116109635760405162461bcd60e51b815260040161060390611c01565b33600090815260026020526040902080546109ba5760405162461bcd60e51b8152602060048201526017602482015276165bdd481a185d99481b9bdd08189bdd59da1d081e595d604a1b6044820152606401610603565b60048101548154116109ff5760405162461bcd60e51b815260206004820152600e60248201526d165bdd481c99599d5b9908185b1b60921b6044820152606401610603565b8054601754600091610a2a916103e891610a2491610a1e90849061187b565b90611887565b90611893565b8254909150610a3a908290611db3565b601e6000828254610a4b9190611c6f565b909155505060078054829190600090610a65908490611c6f565b9250508190555080826004016000828254610a809190611c6f565b909155505042600283015560038201546001830154610a9f9190611db3565b60088054600090610ab1908490611c6f565b9091555050604051339082156108fc029083906000818181858888f19350505050158015610902573d6000803e3d6000fd5b600f80546001600160a01b03808a166001600160a01b03199283161790925560108054898416908316811790915560118054938916939092169290921790556040805163313ce56760e01b8152905163313ce56791600480820192602092909190829003018186803b158015610b5857600080fd5b505afa158015610b6c573d6000803e3d6000fd5b505050506040513d601f19601f82011682018060405250810190610b909190611bad565b610b9b90600a611cec565b8451610ba79190611d94565b6012556020808501516013556040808601516014556060860151601555601154815163313ce56760e01b815291516001600160a01b039091169263313ce5679260048082019391829003018186803b158015610c0257600080fd5b505afa158015610c16573d6000803e3d6000fd5b505050506040513d601f19601f82011682018060405250810190610c3a9190611bad565b610c4590600a611cec565b6080850151610c549190611d94565b60165560a084015160175560c08401516018556011546040805163313ce56760e01b815290516001600160a01b039092169163313ce56791600480820192602092909190829003018186803b158015610cac57600080fd5b505afa158015610cc0573d6000803e3d6000fd5b505050506040513d601f19601f82011682018060405250810190610ce49190611bad565b610cef90600a611cec565b60e0850151610cfe9190611d94565b600d556011546040805163313ce56760e01b815290516001600160a01b039092169163313ce56791600480820192602092909190829003018186803b158015610d4657600080fd5b505afa158015610d5a573d6000803e3d6000fd5b505050506040513d601f19601f82011682018060405250810190610d7e9190611bad565b610d8990600a611cec565b610100850151610d999190611d94565b600e55601154601b546019805460ff19166001600160a01b0392831692909316918214929092179091556040805163313ce56760e01b8152905163313ce56791600480820192602092909190829003018186803b158015610df957600080fd5b505afa158015610e0d573d6000803e3d6000fd5b505050506040513d601f19601f82011682018060405250810190610e319190611bad565b610e3c90600a611cec565b600d54601254610e4b91611887565b610e559190611c87565b601a55601f92909255602080546001600160a01b0319166001600160a01b039290921691909117905560215550505050565b60026000541415610eaa5760405162461bcd60e51b815260040161060390611c38565b60026000908155600654600554610ec19190611db3565b11610ede5760405162461bcd60e51b815260040161060390611c01565b3360009081526002602052604090206001810154610f385760405162461bcd60e51b8152602060048201526017602482015276165bdd481a185d99481b9bdd08189bdd59da1d081e595d604a1b6044820152606401610603565b8060030154816001015411610f805760405162461bcd60e51b815260206004820152600e60248201526d165bdd4818db185a5b48185b1b1b60921b6044820152606401610603565b6000610faa6103e8610a248460010154610a1e600f600901546103e861187b90919063ffffffff16565b90508060046002016000828254610fc19190611c6f565b9091555050601a8054829190600090610fdb908490611db3565b9250508190555080826003016000828254610ff69190611c6f565b9091555050426002830155600482015482546110129190611db3565b60098054600090611024908490611c6f565b909155505060105460405163a9059cbb60e01b8152336004820152602481018390526001600160a01b039091169063a9059cbb90604401602060405180830381600087803b15801561107557600080fd5b505af1158015611089573d6000803e3d6000fd5b505050506040513d601f19601f820116820180604052508101906109029190611b77565b600260005414156110d05760405162461bcd60e51b815260040161060390611c38565b600260008181553381526020919091526040812090829081906103e83483111561113c5760405162461bcd60e51b815260206004820152601a60248201527f506c656173652070726f76696465206e617669746520636f696e0000000000006044820152606401610603565b6015548310156111815760405162461bcd60e51b815260206004820152601060248201526f4e6f7420656e6f7567682076616c756560801b6044820152606401610603565b6016548311156111c45760405162461bcd60e51b815260206004820152600e60248201526d4f766572666c6f772076616c756560901b6044820152606401610603565b6111cc61147c565b6111fc576111ed81610a2485610a1e601f548661187b90919063ffffffff16565b92506111f98385611db3565b91505b845460165460009161120d91611db3565b600454601a549192506000916112239190611db3565b905060008183116112345782611236565b815b90508086111561127a5760405162461bcd60e51b815260206004820152600f60248201526e53616c65206973207375636365737360881b6044820152606401610603565b6000611321600f60020160009054906101000a90046001600160a01b03166001600160a01b031663313ce5676040518163ffffffff1660e01b815260040160206040518083038186803b1580156112d057600080fd5b505afa1580156112e4573d6000803e3d6000fd5b505050506040513d601f19601f820116820180604052508101906113089190611bad565b61131390600a611cec565b601254610a24908a90611887565b9050868960000160008282546113379190611c6f565b92505081905550808960010160008282546113529190611c6f565b90915550506004805488919060009061136c908490611c6f565b909155505060058054829190600090611386908490611c6f565b9091555050600a805490600061139b83611dca565b909155505033600090815260036020526040812080548892906113bf908490611c6f565b9250508190555085601e60008282546113d89190611c6f565b909155505060195460ff1680156113f85750346113f58789611c6f565b11155b1561144057336108fc8761140c8a34611db3565b6114169190611db3565b6040518115909202916000818181858888f1935050505015801561143e573d6000803e3d6000fd5b505b60195460ff1661146b5760115461146b906001600160a01b031633306114668a8c611c6f565b61189f565b505060016000555050505050505050565b6000611489601c336119cf565b905090565b801561162a576006546005546000916114a691611db3565b116114c35760405162461bcd60e51b815260040161060390611c01565b33600090815260026020526040902060038101546001820154116115355760405162461bcd60e51b8152602060048201526024808201527f596f7520636c61696d20616c6c206f722068617665206e6f7420626f75676874604482015263081e595d60e21b6064820152608401610603565b601054600182015460405163a9059cbb60e01b815233600482015260248101919091526001600160a01b039091169063a9059cbb90604401602060405180830381600087803b15801561158757600080fd5b505af115801561159b573d6000803e3d6000fd5b505050506040513d601f19601f820116820180604052508101906115bf9190611b77565b506001810154600680546000906115d7908490611c6f565b90915550506001810154601a80546000906115f3908490611db3565b90915550506001810154600382018054600090611611908490611c6f565b9091555050600080825560018201554260029091015550565b60075460045460009161163c91611db3565b116116595760405162461bcd60e51b815260040161060390611c01565b33600090815260026020526040902080546116c45760405162461bcd60e51b815260206004820152602560248201527f596f7520726566756e6420616c6c206f722068617665206e6f7420626f7567686044820152641d081e595d60da1b6064820152608401610603565b80546116d08180611db3565b601e60008282546116e19190611c6f565b9091555050600780548291906000906116fb908490611c6f565b9091555050600080835560018301819055426002840155604051339183156108fc02918491818181858888f1935050505015801561173d573d6000803e3d6000fd5b50505050565b6001546001600160a01b0316331461179d5760405162461bcd60e51b815260206004820181905260248201527f4f776e61626c653a2063616c6c6572206973206e6f7420746865206f776e65726044820152606401610603565b6001600160a01b0381166118025760405162461bcd60e51b815260206004820152602660248201527f4f776e61626c653a206e6577206f776e657220697320746865207a65726f206160448201526564647265737360d01b6064820152608401610603565b61064481611829565b6000611820836001600160a01b0384166119f1565b90505b92915050565b600180546001600160a01b038381166001600160a01b0319831681179093556040519116919082907f8be0079c531659141344cd1fd0a4f28419497f9722a3daafe3b4186f6b6457e090600090a35050565b60006118208284611db3565b60006118208284611d94565b60006118208284611c87565b604080516001600160a01b0385811660248301528481166044830152606480830185905283518084039091018152608490920183526020820180516001600160e01b03166323b872dd60e01b17905291516000928392908816916119039190611bc6565b6000604051808303816000865af19150503d8060008114611940576040519150601f19603f3d011682016040523d82523d6000602084013e611945565b606091505b509150915081801561196f57508051158061196f57508080602001905181019061196f9190611b77565b6119c75760405162461bcd60e51b8152602060048201526024808201527f5472616e7366657248656c7065723a205452414e534645525f46524f4d5f46416044820152631253115160e21b6064820152608401610603565b505050505050565b6001600160a01b03811660009081526001830160205260408120541515611820565b6000818152600183016020526040812054611a3857508154600181810184556000848152602080822090930184905584548482528286019093526040902091909155611823565b506000611823565b8035611a4b81611e11565b919050565b600060208284031215611a6257600080fd5b8135611a6d81611e11565b9392505050565b60008060008060008060006101e0888a031215611a9057600080fd5b8735611a9b81611e11565b9650602088810135611aac81611e11565b96506040890135611abc81611e11565b9550607f89018a13611acd57600080fd5b604051610120810181811067ffffffffffffffff82111715611af157611af1611dfb565b6040528060608b016101808c018d811115611b0b57600080fd5b60005b6009811015611b2b57823584529285019291850191600101611b0e565b509297505090359450611b449150506101a08901611a40565b91506101c0880135905092959891949750929550565b600060208284031215611b6c57600080fd5b8135611a6d81611e26565b600060208284031215611b8957600080fd5b8151611a6d81611e26565b600060208284031215611ba657600080fd5b5035919050565b600060208284031215611bbf57600080fd5b5051919050565b6000825160005b81811015611be75760208186018101518583015201611bcd565b81811115611bf6576000828501525b509190910192915050565b6020808252601b908201527f416c6c20746f6b656e20686173206265656e2077697468647261770000000000604082015260600190565b6020808252601f908201527f5265656e7472616e637947756172643a207265656e7472616e742063616c6c00604082015260600190565b60008219821115611c8257611c82611de5565b500190565b600082611ca457634e487b7160e01b600052601260045260246000fd5b500490565b600181815b80851115611ce4578160001904821115611cca57611cca611de5565b80851615611cd757918102915b93841c9390800290611cae565b509250929050565b60006118208383600082611d0257506001611823565b81611d0f57506000611823565b8160018114611d255760028114611d2f57611d4b565b6001915050611823565b60ff841115611d4057611d40611de5565b50506001821b611823565b5060208310610133831016604e8410600b8410161715611d6e575081810a611823565b611d788383611ca9565b8060001904821115611d8c57611d8c611de5565b029392505050565b6000816000190483118215151615611dae57611dae611de5565b500290565b600082821015611dc557611dc5611de5565b500390565b6000600019821415611dde57611dde611de5565b5060010190565b634e487b7160e01b600052601160045260246000fd5b634e487b7160e01b600052604160045260246000fd5b6001600160a01b038116811461064457600080fd5b801515811461064457600080fdfea264697066735822122094a35e1733a41996391a0c50ae0dadd7dc256e07810dbf3f5b64fafe0307831164736f6c63430008050033",
					"opcodes": "PUSH1 0x80 PUSH1 0x40 MSTORE PUSH1 0x40 MLOAD PUSH3 0x204A CODESIZE SUB DUP1 PUSH3 0x204A DUP4 CODECOPY DUP2 ADD PUSH1 0x40 DUP2 SWAP1 MSTORE PUSH3 0x26 SWAP2 PUSH3 0x19E JUMP JUMPDEST PUSH1 0x1 PUSH1 0x0 SSTORE PUSH3 0x36 CALLER PUSH3 0xDA JUMP JUMPDEST PUSH1 0x22 DUP1 SLOAD PUSH1 0x1 PUSH1 0x1 PUSH1 0xA0 SHL SUB NOT SWAP1 DUP2 AND PUSH1 0x1 PUSH1 0x1 PUSH1 0xA0 SHL SUB DUP5 AND OR SWAP1 SWAP2 SSTORE PUSH1 0x1B DUP1 SLOAD PUSH20 0xC778417E063141139FCE010982780140AA0CD5AB SWAP3 AND SWAP2 SWAP1 SWAP2 OR SWAP1 SSTORE PUSH3 0xA2 PUSH1 0x1C PUSH20 0x6CCB41EEDA5A073076F3E7DC1614C185B5FA41ED PUSH3 0x12C PUSH1 0x20 SWAP1 DUP2 SHL PUSH3 0x180B OR SWAP1 SHR JUMP JUMPDEST POP PUSH3 0xD2 PUSH20 0x4F0B12BBF40FC182559822A5B1DB6D34DBC3E016 PUSH1 0x1C PUSH3 0x12C PUSH1 0x20 SHL PUSH3 0x180B OR SWAP1 SWAP2 SWAP1 PUSH1 0x20 SHR JUMP JUMPDEST POP POP PUSH3 0x1D0 JUMP JUMPDEST PUSH1 0x1 DUP1 SLOAD PUSH1 0x1 PUSH1 0x1 PUSH1 0xA0 SHL SUB DUP4 DUP2 AND PUSH1 0x1 PUSH1 0x1 PUSH1 0xA0 SHL SUB NOT DUP4 AND DUP2 OR SWAP1 SWAP4 SSTORE PUSH1 0x40 MLOAD SWAP2 AND SWAP2 SWAP1 DUP3 SWAP1 PUSH32 0x8BE0079C531659141344CD1FD0A4F28419497F9722A3DAAFE3B4186F6B6457E0 SWAP1 PUSH1 0x0 SWAP1 LOG3 POP POP JUMP JUMPDEST PUSH1 0x0 PUSH3 0x143 DUP4 PUSH1 0x1 PUSH1 0x1 PUSH1 0xA0 SHL SUB DUP5 AND PUSH3 0x14C JUMP JUMPDEST SWAP1 POP JUMPDEST SWAP3 SWAP2 POP POP JUMP JUMPDEST PUSH1 0x0 DUP2 DUP2 MSTORE PUSH1 0x1 DUP4 ADD PUSH1 0x20 MSTORE PUSH1 0x40 DUP2 KECCAK256 SLOAD PUSH3 0x195 JUMPI POP DUP2 SLOAD PUSH1 0x1 DUP2 DUP2 ADD DUP5 SSTORE PUSH1 0x0 DUP5 DUP2 MSTORE PUSH1 0x20 DUP1 DUP3 KECCAK256 SWAP1 SWAP4 ADD DUP5 SWAP1 SSTORE DUP5 SLOAD DUP5 DUP3 MSTORE DUP3 DUP7 ADD SWAP1 SWAP4 MSTORE PUSH1 0x40 SWAP1 KECCAK256 SWAP2 SWAP1 SWAP2 SSTORE PUSH3 0x146 JUMP JUMPDEST POP PUSH1 0x0 PUSH3 0x146 JUMP JUMPDEST PUSH1 0x0 PUSH1 0x20 DUP3 DUP5 SUB SLT ISZERO PUSH3 0x1B1 JUMPI PUSH1 0x0 DUP1 REVERT JUMPDEST DUP2 MLOAD PUSH1 0x1 PUSH1 0x1 PUSH1 0xA0 SHL SUB DUP2 AND DUP2 EQ PUSH3 0x1C9 JUMPI PUSH1 0x0 DUP1 REVERT JUMPDEST SWAP4 SWAP3 POP POP POP JUMP JUMPDEST PUSH2 0x1E6A DUP1 PUSH3 0x1E0 PUSH1 0x0 CODECOPY PUSH1 0x0 RETURN INVALID PUSH1 0x80 PUSH1 0x40 MSTORE PUSH1 0x4 CALLDATASIZE LT PUSH2 0x14B JUMPI PUSH1 0x0 CALLDATALOAD PUSH1 0xE0 SHR DUP1 PUSH4 0x9B25415C GT PUSH2 0xB6 JUMPI DUP1 PUSH4 0xCAD5B0F7 GT PUSH2 0x6F JUMPI DUP1 PUSH4 0xCAD5B0F7 EQ PUSH2 0x46F JUMPI DUP1 PUSH4 0xD4C1DEE9 EQ PUSH2 0x494 JUMPI DUP1 PUSH4 0xE2D3F423 EQ PUSH2 0x4AA JUMPI DUP1 PUSH4 0xEB002BB0 EQ PUSH2 0x51C JUMPI DUP1 PUSH4 0xF2FDE38B EQ PUSH2 0x53C JUMPI DUP1 PUSH4 0xF8B2CB4F EQ PUSH2 0x55C JUMPI PUSH1 0x0 DUP1 REVERT JUMPDEST DUP1 PUSH4 0x9B25415C EQ PUSH2 0x360 JUMPI DUP1 PUSH4 0xAB33985A EQ PUSH2 0x380 JUMPI DUP1 PUSH4 0xACFB2355 EQ PUSH2 0x395 JUMPI DUP1 PUSH4 0xAD5C4648 EQ PUSH2 0x41C JUMPI DUP1 PUSH4 0xAE2B0965 EQ PUSH2 0x43C JUMPI DUP1 PUSH4 0xB6B55F25 EQ PUSH2 0x45C JUMPI PUSH1 0x0 DUP1 REVERT JUMPDEST DUP1 PUSH4 0x56C5F349 GT PUSH2 0x108 JUMPI DUP1 PUSH4 0x56C5F349 EQ PUSH2 0x2CC JUMPI DUP1 PUSH4 0x715018A6 EQ PUSH2 0x2F9 JUMPI DUP1 PUSH4 0x861FAF5F EQ PUSH2 0x310 JUMPI DUP1 PUSH4 0x8DA5CB5B EQ PUSH2 0x318 JUMPI DUP1 PUSH4 0x8EDF18E6 EQ PUSH2 0x336 JUMPI DUP1 PUSH4 0x95661E70 EQ PUSH2 0x34B JUMPI PUSH1 0x0 DUP1 REVERT JUMPDEST DUP1 PUSH4 0x12E5D0B9 EQ PUSH2 0x150 JUMPI DUP1 PUSH4 0x18856A2F EQ PUSH2 0x185 JUMPI DUP1 PUSH4 0x1DF4CCFC EQ PUSH2 0x245 JUMPI DUP1 PUSH4 0x200D2ED2 EQ PUSH2 0x269 JUMPI DUP1 PUSH4 0x29A79AF6 EQ PUSH2 0x27E JUMPI DUP1 PUSH4 0x3B5EF2AD EQ PUSH2 0x2B6 JUMPI JUMPDEST PUSH1 0x0 DUP1 REVERT JUMPDEST CALLVALUE DUP1 ISZERO PUSH2 0x15C JUMPI PUSH1 0x0 DUP1 REVERT JUMPDEST POP PUSH1 0xD SLOAD PUSH1 0xE SLOAD PUSH2 0x16B SWAP2 SWAP1 DUP3 JUMP JUMPDEST PUSH1 0x40 DUP1 MLOAD SWAP3 DUP4 MSTORE PUSH1 0x20 DUP4 ADD SWAP2 SWAP1 SWAP2 MSTORE ADD JUMPDEST PUSH1 0x40 MLOAD DUP1 SWAP2 SUB SWAP1 RETURN JUMPDEST CALLVALUE DUP1 ISZERO PUSH2 0x191 JUMPI PUSH1 0x0 DUP1 REVERT JUMPDEST POP PUSH1 0xF SLOAD PUSH1 0x10 SLOAD PUSH1 0x11 SLOAD PUSH1 0x12 SLOAD PUSH1 0x13 SLOAD PUSH1 0x14 SLOAD PUSH1 0x15 SLOAD PUSH1 0x16 SLOAD PUSH1 0x17 SLOAD PUSH1 0x18 SLOAD PUSH1 0x19 SLOAD PUSH1 0x1A SLOAD PUSH2 0x1D9 SWAP12 PUSH1 0x1 PUSH1 0x1 PUSH1 0xA0 SHL SUB SWAP1 DUP2 AND SWAP12 DUP2 AND SWAP11 AND SWAP9 SWAP8 SWAP7 SWAP6 SWAP5 SWAP4 SWAP3 SWAP2 PUSH1 0xFF AND SWAP1 DUP13 JUMP JUMPDEST PUSH1 0x40 DUP1 MLOAD PUSH1 0x1 PUSH1 0x1 PUSH1 0xA0 SHL SUB SWAP14 DUP15 AND DUP2 MSTORE SWAP12 DUP14 AND PUSH1 0x20 DUP14 ADD MSTORE SWAP10 SWAP1 SWAP12 AND SWAP9 DUP11 ADD SWAP9 SWAP1 SWAP9 MSTORE PUSH1 0x60 DUP10 ADD SWAP7 SWAP1 SWAP7 MSTORE PUSH1 0x80 DUP9 ADD SWAP5 SWAP1 SWAP5 MSTORE PUSH1 0xA0 DUP8 ADD SWAP3 SWAP1 SWAP3 MSTORE PUSH1 0xC0 DUP7 ADD MSTORE PUSH1 0xE0 DUP6 ADD MSTORE PUSH2 0x100 DUP5 ADD MSTORE PUSH2 0x120 DUP4 ADD MSTORE ISZERO ISZERO PUSH2 0x140 DUP3 ADD MSTORE PUSH2 0x160 DUP2 ADD SWAP2 SWAP1 SWAP2 MSTORE PUSH2 0x180 ADD PUSH2 0x17C JUMP JUMPDEST CALLVALUE DUP1 ISZERO PUSH2 0x251 JUMPI PUSH1 0x0 DUP1 REVERT JUMPDEST POP PUSH2 0x25B PUSH1 0x1E SLOAD DUP2 JUMP JUMPDEST PUSH1 0x40 MLOAD SWAP1 DUP2 MSTORE PUSH1 0x20 ADD PUSH2 0x17C JUMP JUMPDEST CALLVALUE DUP1 ISZERO PUSH2 0x275 JUMPI PUSH1 0x0 DUP1 REVERT JUMPDEST POP PUSH2 0x25B PUSH2 0x584 JUMP JUMPDEST CALLVALUE DUP1 ISZERO PUSH2 0x28A JUMPI PUSH1 0x0 DUP1 REVERT JUMPDEST POP PUSH1 0x22 SLOAD PUSH2 0x29E SWAP1 PUSH1 0x1 PUSH1 0x1 PUSH1 0xA0 SHL SUB AND DUP2 JUMP JUMPDEST PUSH1 0x40 MLOAD PUSH1 0x1 PUSH1 0x1 PUSH1 0xA0 SHL SUB SWAP1 SWAP2 AND DUP2 MSTORE PUSH1 0x20 ADD PUSH2 0x17C JUMP JUMPDEST CALLVALUE DUP1 ISZERO PUSH2 0x2C2 JUMPI PUSH1 0x0 DUP1 REVERT JUMPDEST POP PUSH2 0x25B PUSH1 0x1F SLOAD DUP2 JUMP JUMPDEST CALLVALUE DUP1 ISZERO PUSH2 0x2D8 JUMPI PUSH1 0x0 DUP1 REVERT JUMPDEST POP PUSH2 0x25B PUSH2 0x2E7 CALLDATASIZE PUSH1 0x4 PUSH2 0x1A50 JUMP JUMPDEST PUSH1 0x3 PUSH1 0x20 MSTORE PUSH1 0x0 SWAP1 DUP2 MSTORE PUSH1 0x40 SWAP1 KECCAK256 SLOAD DUP2 JUMP JUMPDEST CALLVALUE DUP1 ISZERO PUSH2 0x305 JUMPI PUSH1 0x0 DUP1 REVERT JUMPDEST POP PUSH2 0x30E PUSH2 0x5AD JUMP JUMPDEST STOP JUMPDEST PUSH2 0x30E PUSH2 0x618 JUMP JUMPDEST CALLVALUE DUP1 ISZERO PUSH2 0x324 JUMPI PUSH1 0x0 DUP1 REVERT JUMPDEST POP PUSH1 0x1 SLOAD PUSH1 0x1 PUSH1 0x1 PUSH1 0xA0 SHL SUB AND PUSH2 0x29E JUMP JUMPDEST CALLVALUE DUP1 ISZERO PUSH2 0x342 JUMPI PUSH1 0x0 DUP1 REVERT JUMPDEST POP PUSH2 0x30E PUSH2 0x647 JUMP JUMPDEST CALLVALUE DUP1 ISZERO PUSH2 0x357 JUMPI PUSH1 0x0 DUP1 REVERT JUMPDEST POP PUSH2 0x30E PUSH2 0x90C JUMP JUMPDEST CALLVALUE DUP1 ISZERO PUSH2 0x36C JUMPI PUSH1 0x0 DUP1 REVERT JUMPDEST POP PUSH2 0x30E PUSH2 0x37B CALLDATASIZE PUSH1 0x4 PUSH2 0x1A74 JUMP JUMPDEST PUSH2 0xAE3 JUMP JUMPDEST CALLVALUE DUP1 ISZERO PUSH2 0x38C JUMPI PUSH1 0x0 DUP1 REVERT JUMPDEST POP PUSH2 0x30E PUSH2 0xE87 JUMP JUMPDEST CALLVALUE DUP1 ISZERO PUSH2 0x3A1 JUMPI PUSH1 0x0 DUP1 REVERT JUMPDEST POP PUSH1 0x4 SLOAD PUSH1 0x5 SLOAD PUSH1 0x6 SLOAD PUSH1 0x7 SLOAD PUSH1 0x8 SLOAD PUSH1 0x9 SLOAD PUSH1 0xA SLOAD PUSH1 0xB SLOAD PUSH2 0x3D4 SWAP8 SWAP7 SWAP6 SWAP5 SWAP4 SWAP3 SWAP2 SWAP1 PUSH1 0xFF DUP1 DUP3 AND SWAP2 PUSH2 0x100 SWAP1 DIV AND DUP10 JUMP JUMPDEST PUSH1 0x40 DUP1 MLOAD SWAP10 DUP11 MSTORE PUSH1 0x20 DUP11 ADD SWAP9 SWAP1 SWAP9 MSTORE SWAP7 DUP9 ADD SWAP6 SWAP1 SWAP6 MSTORE PUSH1 0x60 DUP8 ADD SWAP4 SWAP1 SWAP4 MSTORE PUSH1 0x80 DUP7 ADD SWAP2 SWAP1 SWAP2 MSTORE PUSH1 0xA0 DUP6 ADD MSTORE PUSH1 0xC0 DUP5 ADD MSTORE ISZERO ISZERO PUSH1 0xE0 DUP4 ADD MSTORE ISZERO ISZERO PUSH2 0x100 DUP3 ADD MSTORE PUSH2 0x120 ADD PUSH2 0x17C JUMP JUMPDEST CALLVALUE DUP1 ISZERO PUSH2 0x428 JUMPI PUSH1 0x0 DUP1 REVERT JUMPDEST POP PUSH1 0x1B SLOAD PUSH2 0x29E SWAP1 PUSH1 0x1 PUSH1 0x1 PUSH1 0xA0 SHL SUB AND DUP2 JUMP JUMPDEST CALLVALUE DUP1 ISZERO PUSH2 0x448 JUMPI PUSH1 0x0 DUP1 REVERT JUMPDEST POP PUSH1 0x20 SLOAD PUSH2 0x29E SWAP1 PUSH1 0x1 PUSH1 0x1 PUSH1 0xA0 SHL SUB AND DUP2 JUMP JUMPDEST PUSH2 0x30E PUSH2 0x46A CALLDATASIZE PUSH1 0x4 PUSH2 0x1B94 JUMP JUMPDEST PUSH2 0x10AD JUMP JUMPDEST CALLVALUE DUP1 ISZERO PUSH2 0x47B JUMPI PUSH1 0x0 DUP1 REVERT JUMPDEST POP PUSH2 0x484 PUSH2 0x147C JUMP JUMPDEST PUSH1 0x40 MLOAD SWAP1 ISZERO ISZERO DUP2 MSTORE PUSH1 0x20 ADD PUSH2 0x17C JUMP JUMPDEST CALLVALUE DUP1 ISZERO PUSH2 0x4A0 JUMPI PUSH1 0x0 DUP1 REVERT JUMPDEST POP PUSH2 0x25B PUSH1 0x21 SLOAD DUP2 JUMP JUMPDEST CALLVALUE DUP1 ISZERO PUSH2 0x4B6 JUMPI PUSH1 0x0 DUP1 REVERT JUMPDEST POP PUSH2 0x4F4 PUSH2 0x4C5 CALLDATASIZE PUSH1 0x4 PUSH2 0x1A50 JUMP JUMPDEST PUSH1 0x2 PUSH1 0x20 DUP2 SWAP1 MSTORE PUSH1 0x0 SWAP2 DUP3 MSTORE PUSH1 0x40 SWAP1 SWAP2 KECCAK256 DUP1 SLOAD PUSH1 0x1 DUP3 ADD SLOAD SWAP3 DUP3 ADD SLOAD PUSH1 0x3 DUP4 ADD SLOAD PUSH1 0x4 SWAP1 SWAP4 ADD SLOAD SWAP2 SWAP4 SWAP3 SWAP1 SWAP2 DUP6 JUMP JUMPDEST PUSH1 0x40 DUP1 MLOAD SWAP6 DUP7 MSTORE PUSH1 0x20 DUP7 ADD SWAP5 SWAP1 SWAP5 MSTORE SWAP3 DUP5 ADD SWAP2 SWAP1 SWAP2 MSTORE PUSH1 0x60 DUP4 ADD MSTORE PUSH1 0x80 DUP3 ADD MSTORE PUSH1 0xA0 ADD PUSH2 0x17C JUMP JUMPDEST CALLVALUE DUP1 ISZERO PUSH2 0x528 JUMPI PUSH1 0x0 DUP1 REVERT JUMPDEST POP PUSH2 0x30E PUSH2 0x537 CALLDATASIZE PUSH1 0x4 PUSH2 0x1B5A JUMP JUMPDEST PUSH2 0x148E JUMP JUMPDEST CALLVALUE DUP1 ISZERO PUSH2 0x548 JUMPI PUSH1 0x0 DUP1 REVERT JUMPDEST POP PUSH2 0x30E PUSH2 0x557 CALLDATASIZE PUSH1 0x4 PUSH2 0x1A50 JUMP JUMPDEST PUSH2 0x1743 JUMP JUMPDEST CALLVALUE DUP1 ISZERO PUSH2 0x568 JUMPI PUSH1 0x0 DUP1 REVERT JUMPDEST POP PUSH2 0x25B PUSH2 0x577 CALLDATASIZE PUSH1 0x4 PUSH2 0x1A50 JUMP JUMPDEST PUSH1 0x1 PUSH1 0x1 PUSH1 0xA0 SHL SUB AND BALANCE SWAP1 JUMP JUMPDEST PUSH1 0x13 SLOAD PUSH1 0x0 SWAP1 TIMESTAMP LT ISZERO PUSH2 0x597 JUMPI POP PUSH1 0x0 SWAP1 JUMP JUMPDEST PUSH1 0x14 SLOAD TIMESTAMP GT ISZERO PUSH2 0x5A7 JUMPI POP PUSH1 0x2 SWAP1 JUMP JUMPDEST POP PUSH1 0x1 SWAP1 JUMP JUMPDEST PUSH1 0x1 SLOAD PUSH1 0x1 PUSH1 0x1 PUSH1 0xA0 SHL SUB AND CALLER EQ PUSH2 0x60C JUMPI PUSH1 0x40 MLOAD PUSH3 0x461BCD PUSH1 0xE5 SHL DUP2 MSTORE PUSH1 0x20 PUSH1 0x4 DUP3 ADD DUP2 SWAP1 MSTORE PUSH1 0x24 DUP3 ADD MSTORE PUSH32 0x4F776E61626C653A2063616C6C6572206973206E6F7420746865206F776E6572 PUSH1 0x44 DUP3 ADD MSTORE PUSH1 0x64 ADD JUMPDEST PUSH1 0x40 MLOAD DUP1 SWAP2 SUB SWAP1 REVERT JUMPDEST PUSH2 0x616 PUSH1 0x0 PUSH2 0x1829 JUMP JUMPDEST JUMP JUMPDEST PUSH1 0x40 MLOAD CALLER SWAP1 SELFBALANCE DUP1 ISZERO PUSH2 0x8FC MUL SWAP2 PUSH1 0x0 DUP2 DUP2 DUP2 DUP6 DUP9 DUP9 CALL SWAP4 POP POP POP POP ISZERO DUP1 ISZERO PUSH2 0x644 JUMPI RETURNDATASIZE PUSH1 0x0 DUP1 RETURNDATACOPY RETURNDATASIZE PUSH1 0x0 REVERT JUMPDEST POP JUMP JUMPDEST PUSH1 0xF SLOAD PUSH1 0x1 PUSH1 0x1 PUSH1 0xA0 SHL SUB AND CALLER PUSH1 0x1 PUSH1 0x1 PUSH1 0xA0 SHL SUB AND EQ PUSH2 0x69F JUMPI PUSH1 0x40 MLOAD PUSH3 0x461BCD PUSH1 0xE5 SHL DUP2 MSTORE PUSH1 0x20 PUSH1 0x4 DUP3 ADD MSTORE PUSH1 0x12 PUSH1 0x24 DUP3 ADD MSTORE PUSH18 0x27B7363C90383932B9B0B6329037BBB732B9 PUSH1 0x71 SHL PUSH1 0x44 DUP3 ADD MSTORE PUSH1 0x64 ADD PUSH2 0x603 JUMP JUMPDEST PUSH1 0x2 PUSH1 0x0 SLOAD EQ ISZERO PUSH2 0x6C2 JUMPI PUSH1 0x40 MLOAD PUSH3 0x461BCD PUSH1 0xE5 SHL DUP2 MSTORE PUSH1 0x4 ADD PUSH2 0x603 SWAP1 PUSH2 0x1C38 JUMP JUMPDEST PUSH1 0x2 PUSH1 0x0 SWAP1 DUP2 SSTORE PUSH1 0x10 SLOAD PUSH1 0x40 MLOAD PUSH4 0x70A08231 PUSH1 0xE0 SHL DUP2 MSTORE ADDRESS PUSH1 0x4 DUP3 ADD MSTORE PUSH1 0x1 PUSH1 0x1 PUSH1 0xA0 SHL SUB SWAP1 SWAP2 AND SWAP1 PUSH4 0x70A08231 SWAP1 PUSH1 0x24 ADD PUSH1 0x20 PUSH1 0x40 MLOAD DUP1 DUP4 SUB DUP2 DUP7 DUP1 EXTCODESIZE ISZERO DUP1 ISZERO PUSH2 0x70C JUMPI PUSH1 0x0 DUP1 REVERT JUMPDEST POP GAS STATICCALL ISZERO DUP1 ISZERO PUSH2 0x720 JUMPI RETURNDATASIZE PUSH1 0x0 DUP1 RETURNDATACOPY RETURNDATASIZE PUSH1 0x0 REVERT JUMPDEST POP POP POP POP PUSH1 0x40 MLOAD RETURNDATASIZE PUSH1 0x1F NOT PUSH1 0x1F DUP3 ADD AND DUP3 ADD DUP1 PUSH1 0x40 MSTORE POP DUP2 ADD SWAP1 PUSH2 0x744 SWAP2 SWAP1 PUSH2 0x1BAD JUMP JUMPDEST PUSH1 0x8 SLOAD PUSH1 0x4 SLOAD SWAP2 SWAP3 POP PUSH1 0x0 SWAP2 PUSH2 0x759 SWAP2 PUSH2 0x187B JUMP JUMPDEST PUSH1 0x4 SLOAD SWAP1 SWAP2 POP ISZERO PUSH2 0x782 JUMPI PUSH1 0x8 SLOAD PUSH1 0x5 SLOAD PUSH2 0x77F SWAP2 PUSH2 0x778 SWAP2 SWAP1 PUSH2 0x187B JUMP JUMPDEST DUP4 SWAP1 PUSH2 0x187B JUMP JUMPDEST SWAP2 POP JUMPDEST PUSH1 0xB SLOAD PUSH1 0xFF AND ISZERO PUSH2 0x7D5 JUMPI PUSH1 0x40 MLOAD PUSH3 0x461BCD PUSH1 0xE5 SHL DUP2 MSTORE PUSH1 0x20 PUSH1 0x4 DUP3 ADD MSTORE PUSH1 0x1D PUSH1 0x24 DUP3 ADD MSTORE PUSH32 0x4E6F7468696E6720666F72206F776E657220636C61696D20746F6B656E000000 PUSH1 0x44 DUP3 ADD MSTORE PUSH1 0x64 ADD PUSH2 0x603 JUMP JUMPDEST PUSH1 0xB SLOAD PUSH2 0x100 SWAP1 DIV PUSH1 0xFF AND ISZERO PUSH2 0x82D JUMPI PUSH1 0x40 MLOAD PUSH3 0x461BCD PUSH1 0xE5 SHL DUP2 MSTORE PUSH1 0x20 PUSH1 0x4 DUP3 ADD MSTORE PUSH1 0x1E PUSH1 0x24 DUP3 ADD MSTORE PUSH32 0x4E6F7468696E6720666F72206F776E657220726566756E6420746F6B656E0000 PUSH1 0x44 DUP3 ADD MSTORE PUSH1 0x64 ADD PUSH2 0x603 JUMP JUMPDEST PUSH1 0xB DUP1 SLOAD PUSH1 0xFF NOT AND PUSH1 0x1 OR SWAP1 SSTORE PUSH1 0x0 PUSH1 0x1A SSTORE PUSH1 0x10 SLOAD PUSH1 0xF SLOAD PUSH1 0x40 MLOAD PUSH4 0xA9059CBB PUSH1 0xE0 SHL DUP2 MSTORE PUSH1 0x1 PUSH1 0x1 PUSH1 0xA0 SHL SUB SWAP2 DUP3 AND PUSH1 0x4 DUP3 ADD MSTORE PUSH1 0x24 DUP2 ADD DUP6 SWAP1 MSTORE SWAP2 AND SWAP1 PUSH4 0xA9059CBB SWAP1 PUSH1 0x44 ADD PUSH1 0x20 PUSH1 0x40 MLOAD DUP1 DUP4 SUB DUP2 PUSH1 0x0 DUP8 DUP1 EXTCODESIZE ISZERO DUP1 ISZERO PUSH2 0x88F JUMPI PUSH1 0x0 DUP1 REVERT JUMPDEST POP GAS CALL ISZERO DUP1 ISZERO PUSH2 0x8A3 JUMPI RETURNDATASIZE PUSH1 0x0 DUP1 RETURNDATACOPY RETURNDATASIZE PUSH1 0x0 REVERT JUMPDEST POP POP POP POP PUSH1 0x40 MLOAD RETURNDATASIZE PUSH1 0x1F NOT PUSH1 0x1F DUP3 ADD AND DUP3 ADD DUP1 PUSH1 0x40 MSTORE POP DUP2 ADD SWAP1 PUSH2 0x8C7 SWAP2 SWAP1 PUSH2 0x1B77 JUMP JUMPDEST POP PUSH1 0xF SLOAD PUSH1 0x40 MLOAD PUSH1 0x1 PUSH1 0x1 PUSH1 0xA0 SHL SUB SWAP1 SWAP2 AND SWAP1 DUP3 ISZERO PUSH2 0x8FC MUL SWAP1 DUP4 SWAP1 PUSH1 0x0 DUP2 DUP2 DUP2 DUP6 DUP9 DUP9 CALL SWAP4 POP POP POP POP ISZERO DUP1 ISZERO PUSH2 0x902 JUMPI RETURNDATASIZE PUSH1 0x0 DUP1 RETURNDATACOPY RETURNDATASIZE PUSH1 0x0 REVERT JUMPDEST POP POP PUSH1 0x1 PUSH1 0x0 SSTORE POP JUMP JUMPDEST PUSH1 0x2 PUSH1 0x0 SLOAD EQ ISZERO PUSH2 0x92F JUMPI PUSH1 0x40 MLOAD PUSH3 0x461BCD PUSH1 0xE5 SHL DUP2 MSTORE PUSH1 0x4 ADD PUSH2 0x603 SWAP1 PUSH2 0x1C38 JUMP JUMPDEST PUSH1 0x2 PUSH1 0x0 SWAP1 DUP2 SSTORE PUSH1 0x7 SLOAD PUSH1 0x4 SLOAD PUSH2 0x946 SWAP2 SWAP1 PUSH2 0x1DB3 JUMP JUMPDEST GT PUSH2 0x963 JUMPI PUSH1 0x40 MLOAD PUSH3 0x461BCD PUSH1 0xE5 SHL DUP2 MSTORE PUSH1 0x4 ADD PUSH2 0x603 SWAP1 PUSH2 0x1C01 JUMP JUMPDEST CALLER PUSH1 0x0 SWAP1 DUP2 MSTORE PUSH1 0x2 PUSH1 0x20 MSTORE PUSH1 0x40 SWAP1 KECCAK256 DUP1 SLOAD PUSH2 0x9BA JUMPI PUSH1 0x40 MLOAD PUSH3 0x461BCD PUSH1 0xE5 SHL DUP2 MSTORE PUSH1 0x20 PUSH1 0x4 DUP3 ADD MSTORE PUSH1 0x17 PUSH1 0x24 DUP3 ADD MSTORE PUSH23 0x165BDD481A185D99481B9BDD08189BDD59DA1D081E595D PUSH1 0x4A SHL PUSH1 0x44 DUP3 ADD MSTORE PUSH1 0x64 ADD PUSH2 0x603 JUMP JUMPDEST PUSH1 0x4 DUP2 ADD SLOAD DUP2 SLOAD GT PUSH2 0x9FF JUMPI PUSH1 0x40 MLOAD PUSH3 0x461BCD PUSH1 0xE5 SHL DUP2 MSTORE PUSH1 0x20 PUSH1 0x4 DUP3 ADD MSTORE PUSH1 0xE PUSH1 0x24 DUP3 ADD MSTORE PUSH14 0x165BDD481C99599D5B9908185B1B PUSH1 0x92 SHL PUSH1 0x44 DUP3 ADD MSTORE PUSH1 0x64 ADD PUSH2 0x603 JUMP JUMPDEST DUP1 SLOAD PUSH1 0x17 SLOAD PUSH1 0x0 SWAP2 PUSH2 0xA2A SWAP2 PUSH2 0x3E8 SWAP2 PUSH2 0xA24 SWAP2 PUSH2 0xA1E SWAP1 DUP5 SWAP1 PUSH2 0x187B JUMP JUMPDEST SWAP1 PUSH2 0x1887 JUMP JUMPDEST SWAP1 PUSH2 0x1893 JUMP JUMPDEST DUP3 SLOAD SWAP1 SWAP2 POP PUSH2 0xA3A SWAP1 DUP3 SWAP1 PUSH2 0x1DB3 JUMP JUMPDEST PUSH1 0x1E PUSH1 0x0 DUP3 DUP3 SLOAD PUSH2 0xA4B SWAP2 SWAP1 PUSH2 0x1C6F JUMP JUMPDEST SWAP1 SWAP2 SSTORE POP POP PUSH1 0x7 DUP1 SLOAD DUP3 SWAP2 SWAP1 PUSH1 0x0 SWAP1 PUSH2 0xA65 SWAP1 DUP5 SWAP1 PUSH2 0x1C6F JUMP JUMPDEST SWAP3 POP POP DUP2 SWAP1 SSTORE POP DUP1 DUP3 PUSH1 0x4 ADD PUSH1 0x0 DUP3 DUP3 SLOAD PUSH2 0xA80 SWAP2 SWAP1 PUSH2 0x1C6F JUMP JUMPDEST SWAP1 SWAP2 SSTORE POP POP TIMESTAMP PUSH1 0x2 DUP4 ADD SSTORE PUSH1 0x3 DUP3 ADD SLOAD PUSH1 0x1 DUP4 ADD SLOAD PUSH2 0xA9F SWAP2 SWAP1 PUSH2 0x1DB3 JUMP JUMPDEST PUSH1 0x8 DUP1 SLOAD PUSH1 0x0 SWAP1 PUSH2 0xAB1 SWAP1 DUP5 SWAP1 PUSH2 0x1C6F JUMP JUMPDEST SWAP1 SWAP2 SSTORE POP POP PUSH1 0x40 MLOAD CALLER SWAP1 DUP3 ISZERO PUSH2 0x8FC MUL SWAP1 DUP4 SWAP1 PUSH1 0x0 DUP2 DUP2 DUP2 DUP6 DUP9 DUP9 CALL SWAP4 POP POP POP POP ISZERO DUP1 ISZERO PUSH2 0x902 JUMPI RETURNDATASIZE PUSH1 0x0 DUP1 RETURNDATACOPY RETURNDATASIZE PUSH1 0x0 REVERT JUMPDEST PUSH1 0xF DUP1 SLOAD PUSH1 0x1 PUSH1 0x1 PUSH1 0xA0 SHL SUB DUP1 DUP11 AND PUSH1 0x1 PUSH1 0x1 PUSH1 0xA0 SHL SUB NOT SWAP3 DUP4 AND OR SWAP1 SWAP3 SSTORE PUSH1 0x10 DUP1 SLOAD DUP10 DUP5 AND SWAP1 DUP4 AND DUP2 OR SWAP1 SWAP2 SSTORE PUSH1 0x11 DUP1 SLOAD SWAP4 DUP10 AND SWAP4 SWAP1 SWAP3 AND SWAP3 SWAP1 SWAP3 OR SWAP1 SSTORE PUSH1 0x40 DUP1 MLOAD PUSH4 0x313CE567 PUSH1 0xE0 SHL DUP2 MSTORE SWAP1 MLOAD PUSH4 0x313CE567 SWAP2 PUSH1 0x4 DUP1 DUP3 ADD SWAP3 PUSH1 0x20 SWAP3 SWAP1 SWAP2 SWAP1 DUP3 SWAP1 SUB ADD DUP2 DUP7 DUP1 EXTCODESIZE ISZERO DUP1 ISZERO PUSH2 0xB58 JUMPI PUSH1 0x0 DUP1 REVERT JUMPDEST POP GAS STATICCALL ISZERO DUP1 ISZERO PUSH2 0xB6C JUMPI RETURNDATASIZE PUSH1 0x0 DUP1 RETURNDATACOPY RETURNDATASIZE PUSH1 0x0 REVERT JUMPDEST POP POP POP POP PUSH1 0x40 MLOAD RETURNDATASIZE PUSH1 0x1F NOT PUSH1 0x1F DUP3 ADD AND DUP3 ADD DUP1 PUSH1 0x40 MSTORE POP DUP2 ADD SWAP1 PUSH2 0xB90 SWAP2 SWAP1 PUSH2 0x1BAD JUMP JUMPDEST PUSH2 0xB9B SWAP1 PUSH1 0xA PUSH2 0x1CEC JUMP JUMPDEST DUP5 MLOAD PUSH2 0xBA7 SWAP2 SWAP1 PUSH2 0x1D94 JUMP JUMPDEST PUSH1 0x12 SSTORE PUSH1 0x20 DUP1 DUP6 ADD MLOAD PUSH1 0x13 SSTORE PUSH1 0x40 DUP1 DUP7 ADD MLOAD PUSH1 0x14 SSTORE PUSH1 0x60 DUP7 ADD MLOAD PUSH1 0x15 SSTORE PUSH1 0x11 SLOAD DUP2 MLOAD PUSH4 0x313CE567 PUSH1 0xE0 SHL DUP2 MSTORE SWAP2 MLOAD PUSH1 0x1 PUSH1 0x1 PUSH1 0xA0 SHL SUB SWAP1 SWAP2 AND SWAP3 PUSH4 0x313CE567 SWAP3 PUSH1 0x4 DUP1 DUP3 ADD SWAP4 SWAP2 DUP3 SWAP1 SUB ADD DUP2 DUP7 DUP1 EXTCODESIZE ISZERO DUP1 ISZERO PUSH2 0xC02 JUMPI PUSH1 0x0 DUP1 REVERT JUMPDEST POP GAS STATICCALL ISZERO DUP1 ISZERO PUSH2 0xC16 JUMPI RETURNDATASIZE PUSH1 0x0 DUP1 RETURNDATACOPY RETURNDATASIZE PUSH1 0x0 REVERT JUMPDEST POP POP POP POP PUSH1 0x40 MLOAD RETURNDATASIZE PUSH1 0x1F NOT PUSH1 0x1F DUP3 ADD AND DUP3 ADD DUP1 PUSH1 0x40 MSTORE POP DUP2 ADD SWAP1 PUSH2 0xC3A SWAP2 SWAP1 PUSH2 0x1BAD JUMP JUMPDEST PUSH2 0xC45 SWAP1 PUSH1 0xA PUSH2 0x1CEC JUMP JUMPDEST PUSH1 0x80 DUP6 ADD MLOAD PUSH2 0xC54 SWAP2 SWAP1 PUSH2 0x1D94 JUMP JUMPDEST PUSH1 0x16 SSTORE PUSH1 0xA0 DUP5 ADD MLOAD PUSH1 0x17 SSTORE PUSH1 0xC0 DUP5 ADD MLOAD PUSH1 0x18 SSTORE PUSH1 0x11 SLOAD PUSH1 0x40 DUP1 MLOAD PUSH4 0x313CE567 PUSH1 0xE0 SHL DUP2 MSTORE SWAP1 MLOAD PUSH1 0x1 PUSH1 0x1 PUSH1 0xA0 SHL SUB SWAP1 SWAP3 AND SWAP2 PUSH4 0x313CE567 SWAP2 PUSH1 0x4 DUP1 DUP3 ADD SWAP3 PUSH1 0x20 SWAP3 SWAP1 SWAP2 SWAP1 DUP3 SWAP1 SUB ADD DUP2 DUP7 DUP1 EXTCODESIZE ISZERO DUP1 ISZERO PUSH2 0xCAC JUMPI PUSH1 0x0 DUP1 REVERT JUMPDEST POP GAS STATICCALL ISZERO DUP1 ISZERO PUSH2 0xCC0 JUMPI RETURNDATASIZE PUSH1 0x0 DUP1 RETURNDATACOPY RETURNDATASIZE PUSH1 0x0 REVERT JUMPDEST POP POP POP POP PUSH1 0x40 MLOAD RETURNDATASIZE PUSH1 0x1F NOT PUSH1 0x1F DUP3 ADD AND DUP3 ADD DUP1 PUSH1 0x40 MSTORE POP DUP2 ADD SWAP1 PUSH2 0xCE4 SWAP2 SWAP1 PUSH2 0x1BAD JUMP JUMPDEST PUSH2 0xCEF SWAP1 PUSH1 0xA PUSH2 0x1CEC JUMP JUMPDEST PUSH1 0xE0 DUP6 ADD MLOAD PUSH2 0xCFE SWAP2 SWAP1 PUSH2 0x1D94 JUMP JUMPDEST PUSH1 0xD SSTORE PUSH1 0x11 SLOAD PUSH1 0x40 DUP1 MLOAD PUSH4 0x313CE567 PUSH1 0xE0 SHL DUP2 MSTORE SWAP1 MLOAD PUSH1 0x1 PUSH1 0x1 PUSH1 0xA0 SHL SUB SWAP1 SWAP3 AND SWAP2 PUSH4 0x313CE567 SWAP2 PUSH1 0x4 DUP1 DUP3 ADD SWAP3 PUSH1 0x20 SWAP3 SWAP1 SWAP2 SWAP1 DUP3 SWAP1 SUB ADD DUP2 DUP7 DUP1 EXTCODESIZE ISZERO DUP1 ISZERO PUSH2 0xD46 JUMPI PUSH1 0x0 DUP1 REVERT JUMPDEST POP GAS STATICCALL ISZERO DUP1 ISZERO PUSH2 0xD5A JUMPI RETURNDATASIZE PUSH1 0x0 DUP1 RETURNDATACOPY RETURNDATASIZE PUSH1 0x0 REVERT JUMPDEST POP POP POP POP PUSH1 0x40 MLOAD RETURNDATASIZE PUSH1 0x1F NOT PUSH1 0x1F DUP3 ADD AND DUP3 ADD DUP1 PUSH1 0x40 MSTORE POP DUP2 ADD SWAP1 PUSH2 0xD7E SWAP2 SWAP1 PUSH2 0x1BAD JUMP JUMPDEST PUSH2 0xD89 SWAP1 PUSH1 0xA PUSH2 0x1CEC JUMP JUMPDEST PUSH2 0x100 DUP6 ADD MLOAD PUSH2 0xD99 SWAP2 SWAP1 PUSH2 0x1D94 JUMP JUMPDEST PUSH1 0xE SSTORE PUSH1 0x11 SLOAD PUSH1 0x1B SLOAD PUSH1 0x19 DUP1 SLOAD PUSH1 0xFF NOT AND PUSH1 0x1 PUSH1 0x1 PUSH1 0xA0 SHL SUB SWAP3 DUP4 AND SWAP3 SWAP1 SWAP4 AND SWAP2 DUP3 EQ SWAP3 SWAP1 SWAP3 OR SWAP1 SWAP2 SSTORE PUSH1 0x40 DUP1 MLOAD PUSH4 0x313CE567 PUSH1 0xE0 SHL DUP2 MSTORE SWAP1 MLOAD PUSH4 0x313CE567 SWAP2 PUSH1 0x4 DUP1 DUP3 ADD SWAP3 PUSH1 0x20 SWAP3 SWAP1 SWAP2 SWAP1 DUP3 SWAP1 SUB ADD DUP2 DUP7 DUP1 EXTCODESIZE ISZERO DUP1 ISZERO PUSH2 0xDF9 JUMPI PUSH1 0x0 DUP1 REVERT JUMPDEST POP GAS STATICCALL ISZERO DUP1 ISZERO PUSH2 0xE0D JUMPI RETURNDATASIZE PUSH1 0x0 DUP1 RETURNDATACOPY RETURNDATASIZE PUSH1 0x0 REVERT JUMPDEST POP POP POP POP PUSH1 0x40 MLOAD RETURNDATASIZE PUSH1 0x1F NOT PUSH1 0x1F DUP3 ADD AND DUP3 ADD DUP1 PUSH1 0x40 MSTORE POP DUP2 ADD SWAP1 PUSH2 0xE31 SWAP2 SWAP1 PUSH2 0x1BAD JUMP JUMPDEST PUSH2 0xE3C SWAP1 PUSH1 0xA PUSH2 0x1CEC JUMP JUMPDEST PUSH1 0xD SLOAD PUSH1 0x12 SLOAD PUSH2 0xE4B SWAP2 PUSH2 0x1887 JUMP JUMPDEST PUSH2 0xE55 SWAP2 SWAP1 PUSH2 0x1C87 JUMP JUMPDEST PUSH1 0x1A SSTORE PUSH1 0x1F SWAP3 SWAP1 SWAP3 SSTORE PUSH1 0x20 DUP1 SLOAD PUSH1 0x1 PUSH1 0x1 PUSH1 0xA0 SHL SUB NOT AND PUSH1 0x1 PUSH1 0x1 PUSH1 0xA0 SHL SUB SWAP3 SWAP1 SWAP3 AND SWAP2 SWAP1 SWAP2 OR SWAP1 SSTORE PUSH1 0x21 SSTORE POP POP POP POP JUMP JUMPDEST PUSH1 0x2 PUSH1 0x0 SLOAD EQ ISZERO PUSH2 0xEAA JUMPI PUSH1 0x40 MLOAD PUSH3 0x461BCD PUSH1 0xE5 SHL DUP2 MSTORE PUSH1 0x4 ADD PUSH2 0x603 SWAP1 PUSH2 0x1C38 JUMP JUMPDEST PUSH1 0x2 PUSH1 0x0 SWAP1 DUP2 SSTORE PUSH1 0x6 SLOAD PUSH1 0x5 SLOAD PUSH2 0xEC1 SWAP2 SWAP1 PUSH2 0x1DB3 JUMP JUMPDEST GT PUSH2 0xEDE JUMPI PUSH1 0x40 MLOAD PUSH3 0x461BCD PUSH1 0xE5 SHL DUP2 MSTORE PUSH1 0x4 ADD PUSH2 0x603 SWAP1 PUSH2 0x1C01 JUMP JUMPDEST CALLER PUSH1 0x0 SWAP1 DUP2 MSTORE PUSH1 0x2 PUSH1 0x20 MSTORE PUSH1 0x40 SWAP1 KECCAK256 PUSH1 0x1 DUP2 ADD SLOAD PUSH2 0xF38 JUMPI PUSH1 0x40 MLOAD PUSH3 0x461BCD PUSH1 0xE5 SHL DUP2 MSTORE PUSH1 0x20 PUSH1 0x4 DUP3 ADD MSTORE PUSH1 0x17 PUSH1 0x24 DUP3 ADD MSTORE PUSH23 0x165BDD481A185D99481B9BDD08189BDD59DA1D081E595D PUSH1 0x4A SHL PUSH1 0x44 DUP3 ADD MSTORE PUSH1 0x64 ADD PUSH2 0x603 JUMP JUMPDEST DUP1 PUSH1 0x3 ADD SLOAD DUP2 PUSH1 0x1 ADD SLOAD GT PUSH2 0xF80 JUMPI PUSH1 0x40 MLOAD PUSH3 0x461BCD PUSH1 0xE5 SHL DUP2 MSTORE PUSH1 0x20 PUSH1 0x4 DUP3 ADD MSTORE PUSH1 0xE PUSH1 0x24 DUP3 ADD MSTORE PUSH14 0x165BDD4818DB185A5B48185B1B1B PUSH1 0x92 SHL PUSH1 0x44 DUP3 ADD MSTORE PUSH1 0x64 ADD PUSH2 0x603 JUMP JUMPDEST PUSH1 0x0 PUSH2 0xFAA PUSH2 0x3E8 PUSH2 0xA24 DUP5 PUSH1 0x1 ADD SLOAD PUSH2 0xA1E PUSH1 0xF PUSH1 0x9 ADD SLOAD PUSH2 0x3E8 PUSH2 0x187B SWAP1 SWAP2 SWAP1 PUSH4 0xFFFFFFFF AND JUMP JUMPDEST SWAP1 POP DUP1 PUSH1 0x4 PUSH1 0x2 ADD PUSH1 0x0 DUP3 DUP3 SLOAD PUSH2 0xFC1 SWAP2 SWAP1 PUSH2 0x1C6F JUMP JUMPDEST SWAP1 SWAP2 SSTORE POP POP PUSH1 0x1A DUP1 SLOAD DUP3 SWAP2 SWAP1 PUSH1 0x0 SWAP1 PUSH2 0xFDB SWAP1 DUP5 SWAP1 PUSH2 0x1DB3 JUMP JUMPDEST SWAP3 POP POP DUP2 SWAP1 SSTORE POP DUP1 DUP3 PUSH1 0x3 ADD PUSH1 0x0 DUP3 DUP3 SLOAD PUSH2 0xFF6 SWAP2 SWAP1 PUSH2 0x1C6F JUMP JUMPDEST SWAP1 SWAP2 SSTORE POP POP TIMESTAMP PUSH1 0x2 DUP4 ADD SSTORE PUSH1 0x4 DUP3 ADD SLOAD DUP3 SLOAD PUSH2 0x1012 SWAP2 SWAP1 PUSH2 0x1DB3 JUMP JUMPDEST PUSH1 0x9 DUP1 SLOAD PUSH1 0x0 SWAP1 PUSH2 0x1024 SWAP1 DUP5 SWAP1 PUSH2 0x1C6F JUMP JUMPDEST SWAP1 SWAP2 SSTORE POP POP PUSH1 0x10 SLOAD PUSH1 0x40 MLOAD PUSH4 0xA9059CBB PUSH1 0xE0 SHL DUP2 MSTORE CALLER PUSH1 0x4 DUP3 ADD MSTORE PUSH1 0x24 DUP2 ADD DUP4 SWAP1 MSTORE PUSH1 0x1 PUSH1 0x1 PUSH1 0xA0 SHL SUB SWAP1 SWAP2 AND SWAP1 PUSH4 0xA9059CBB SWAP1 PUSH1 0x44 ADD PUSH1 0x20 PUSH1 0x40 MLOAD DUP1 DUP4 SUB DUP2 PUSH1 0x0 DUP8 DUP1 EXTCODESIZE ISZERO DUP1 ISZERO PUSH2 0x1075 JUMPI PUSH1 0x0 DUP1 REVERT JUMPDEST POP GAS CALL ISZERO DUP1 ISZERO PUSH2 0x1089 JUMPI RETURNDATASIZE PUSH1 0x0 DUP1 RETURNDATACOPY RETURNDATASIZE PUSH1 0x0 REVERT JUMPDEST POP POP POP POP PUSH1 0x40 MLOAD RETURNDATASIZE PUSH1 0x1F NOT PUSH1 0x1F DUP3 ADD AND DUP3 ADD DUP1 PUSH1 0x40 MSTORE POP DUP2 ADD SWAP1 PUSH2 0x902 SWAP2 SWAP1 PUSH2 0x1B77 JUMP JUMPDEST PUSH1 0x2 PUSH1 0x0 SLOAD EQ ISZERO PUSH2 0x10D0 JUMPI PUSH1 0x40 MLOAD PUSH3 0x461BCD PUSH1 0xE5 SHL DUP2 MSTORE PUSH1 0x4 ADD PUSH2 0x603 SWAP1 PUSH2 0x1C38 JUMP JUMPDEST PUSH1 0x2 PUSH1 0x0 DUP2 DUP2 SSTORE CALLER DUP2 MSTORE PUSH1 0x20 SWAP2 SWAP1 SWAP2 MSTORE PUSH1 0x40 DUP2 KECCAK256 SWAP1 DUP3 SWAP1 DUP2 SWAP1 PUSH2 0x3E8 CALLVALUE DUP4 GT ISZERO PUSH2 0x113C JUMPI PUSH1 0x40 MLOAD PUSH3 0x461BCD PUSH1 0xE5 SHL DUP2 MSTORE PUSH1 0x20 PUSH1 0x4 DUP3 ADD MSTORE PUSH1 0x1A PUSH1 0x24 DUP3 ADD MSTORE PUSH32 0x506C656173652070726F76696465206E617669746520636F696E000000000000 PUSH1 0x44 DUP3 ADD MSTORE PUSH1 0x64 ADD PUSH2 0x603 JUMP JUMPDEST PUSH1 0x15 SLOAD DUP4 LT ISZERO PUSH2 0x1181 JUMPI PUSH1 0x40 MLOAD PUSH3 0x461BCD PUSH1 0xE5 SHL DUP2 MSTORE PUSH1 0x20 PUSH1 0x4 DUP3 ADD MSTORE PUSH1 0x10 PUSH1 0x24 DUP3 ADD MSTORE PUSH16 0x4E6F7420656E6F7567682076616C7565 PUSH1 0x80 SHL PUSH1 0x44 DUP3 ADD MSTORE PUSH1 0x64 ADD PUSH2 0x603 JUMP JUMPDEST PUSH1 0x16 SLOAD DUP4 GT ISZERO PUSH2 0x11C4 JUMPI PUSH1 0x40 MLOAD PUSH3 0x461BCD PUSH1 0xE5 SHL DUP2 MSTORE PUSH1 0x20 PUSH1 0x4 DUP3 ADD MSTORE PUSH1 0xE PUSH1 0x24 DUP3 ADD MSTORE PUSH14 0x4F766572666C6F772076616C7565 PUSH1 0x90 SHL PUSH1 0x44 DUP3 ADD MSTORE PUSH1 0x64 ADD PUSH2 0x603 JUMP JUMPDEST PUSH2 0x11CC PUSH2 0x147C JUMP JUMPDEST PUSH2 0x11FC JUMPI PUSH2 0x11ED DUP2 PUSH2 0xA24 DUP6 PUSH2 0xA1E PUSH1 0x1F SLOAD DUP7 PUSH2 0x187B SWAP1 SWAP2 SWAP1 PUSH4 0xFFFFFFFF AND JUMP JUMPDEST SWAP3 POP PUSH2 0x11F9 DUP4 DUP6 PUSH2 0x1DB3 JUMP JUMPDEST SWAP2 POP JUMPDEST DUP5 SLOAD PUSH1 0x16 SLOAD PUSH1 0x0 SWAP2 PUSH2 0x120D SWAP2 PUSH2 0x1DB3 JUMP JUMPDEST PUSH1 0x4 SLOAD PUSH1 0x1A SLOAD SWAP2 SWAP3 POP PUSH1 0x0 SWAP2 PUSH2 0x1223 SWAP2 SWAP1 PUSH2 0x1DB3 JUMP JUMPDEST SWAP1 POP PUSH1 0x0 DUP2 DUP4 GT PUSH2 0x1234 JUMPI DUP3 PUSH2 0x1236 JUMP JUMPDEST DUP2 JUMPDEST SWAP1 POP DUP1 DUP7 GT ISZERO PUSH2 0x127A JUMPI PUSH1 0x40 MLOAD PUSH3 0x461BCD PUSH1 0xE5 SHL DUP2 MSTORE PUSH1 0x20 PUSH1 0x4 DUP3 ADD MSTORE PUSH1 0xF PUSH1 0x24 DUP3 ADD MSTORE PUSH15 0x53616C652069732073756363657373 PUSH1 0x88 SHL PUSH1 0x44 DUP3 ADD MSTORE PUSH1 0x64 ADD PUSH2 0x603 JUMP JUMPDEST PUSH1 0x0 PUSH2 0x1321 PUSH1 0xF PUSH1 0x2 ADD PUSH1 0x0 SWAP1 SLOAD SWAP1 PUSH2 0x100 EXP SWAP1 DIV PUSH1 0x1 PUSH1 0x1 PUSH1 0xA0 SHL SUB AND PUSH1 0x1 PUSH1 0x1 PUSH1 0xA0 SHL SUB AND PUSH4 0x313CE567 PUSH1 0x40 MLOAD DUP2 PUSH4 0xFFFFFFFF AND PUSH1 0xE0 SHL DUP2 MSTORE PUSH1 0x4 ADD PUSH1 0x20 PUSH1 0x40 MLOAD DUP1 DUP4 SUB DUP2 DUP7 DUP1 EXTCODESIZE ISZERO DUP1 ISZERO PUSH2 0x12D0 JUMPI PUSH1 0x0 DUP1 REVERT JUMPDEST POP GAS STATICCALL ISZERO DUP1 ISZERO PUSH2 0x12E4 JUMPI RETURNDATASIZE PUSH1 0x0 DUP1 RETURNDATACOPY RETURNDATASIZE PUSH1 0x0 REVERT JUMPDEST POP POP POP POP PUSH1 0x40 MLOAD RETURNDATASIZE PUSH1 0x1F NOT PUSH1 0x1F DUP3 ADD AND DUP3 ADD DUP1 PUSH1 0x40 MSTORE POP DUP2 ADD SWAP1 PUSH2 0x1308 SWAP2 SWAP1 PUSH2 0x1BAD JUMP JUMPDEST PUSH2 0x1313 SWAP1 PUSH1 0xA PUSH2 0x1CEC JUMP JUMPDEST PUSH1 0x12 SLOAD PUSH2 0xA24 SWAP1 DUP11 SWAP1 PUSH2 0x1887 JUMP JUMPDEST SWAP1 POP DUP7 DUP10 PUSH1 0x0 ADD PUSH1 0x0 DUP3 DUP3 SLOAD PUSH2 0x1337 SWAP2 SWAP1 PUSH2 0x1C6F JUMP JUMPDEST SWAP3 POP POP DUP2 SWAP1 SSTORE POP DUP1 DUP10 PUSH1 0x1 ADD PUSH1 0x0 DUP3 DUP3 SLOAD PUSH2 0x1352 SWAP2 SWAP1 PUSH2 0x1C6F JUMP JUMPDEST SWAP1 SWAP2 SSTORE POP POP PUSH1 0x4 DUP1 SLOAD DUP9 SWAP2 SWAP1 PUSH1 0x0 SWAP1 PUSH2 0x136C SWAP1 DUP5 SWAP1 PUSH2 0x1C6F JUMP JUMPDEST SWAP1 SWAP2 SSTORE POP POP PUSH1 0x5 DUP1 SLOAD DUP3 SWAP2 SWAP1 PUSH1 0x0 SWAP1 PUSH2 0x1386 SWAP1 DUP5 SWAP1 PUSH2 0x1C6F JUMP JUMPDEST SWAP1 SWAP2 SSTORE POP POP PUSH1 0xA DUP1 SLOAD SWAP1 PUSH1 0x0 PUSH2 0x139B DUP4 PUSH2 0x1DCA JUMP JUMPDEST SWAP1 SWAP2 SSTORE POP POP CALLER PUSH1 0x0 SWAP1 DUP2 MSTORE PUSH1 0x3 PUSH1 0x20 MSTORE PUSH1 0x40 DUP2 KECCAK256 DUP1 SLOAD DUP9 SWAP3 SWAP1 PUSH2 0x13BF SWAP1 DUP5 SWAP1 PUSH2 0x1C6F JUMP JUMPDEST SWAP3 POP POP DUP2 SWAP1 SSTORE POP DUP6 PUSH1 0x1E PUSH1 0x0 DUP3 DUP3 SLOAD PUSH2 0x13D8 SWAP2 SWAP1 PUSH2 0x1C6F JUMP JUMPDEST SWAP1 SWAP2 SSTORE POP POP PUSH1 0x19 SLOAD PUSH1 0xFF AND DUP1 ISZERO PUSH2 0x13F8 JUMPI POP CALLVALUE PUSH2 0x13F5 DUP8 DUP10 PUSH2 0x1C6F JUMP JUMPDEST GT ISZERO JUMPDEST ISZERO PUSH2 0x1440 JUMPI CALLER PUSH2 0x8FC DUP8 PUSH2 0x140C DUP11 CALLVALUE PUSH2 0x1DB3 JUMP JUMPDEST PUSH2 0x1416 SWAP2 SWAP1 PUSH2 0x1DB3 JUMP JUMPDEST PUSH1 0x40 MLOAD DUP2 ISZERO SWAP1 SWAP3 MUL SWAP2 PUSH1 0x0 DUP2 DUP2 DUP2 DUP6 DUP9 DUP9 CALL SWAP4 POP POP POP POP ISZERO DUP1 ISZERO PUSH2 0x143E JUMPI RETURNDATASIZE PUSH1 0x0 DUP1 RETURNDATACOPY RETURNDATASIZE PUSH1 0x0 REVERT JUMPDEST POP JUMPDEST PUSH1 0x19 SLOAD PUSH1 0xFF AND PUSH2 0x146B JUMPI PUSH1 0x11 SLOAD PUSH2 0x146B SWAP1 PUSH1 0x1 PUSH1 0x1 PUSH1 0xA0 SHL SUB AND CALLER ADDRESS PUSH2 0x1466 DUP11 DUP13 PUSH2 0x1C6F JUMP JUMPDEST PUSH2 0x189F JUMP JUMPDEST POP POP PUSH1 0x1 PUSH1 0x0 SSTORE POP POP POP POP POP POP POP POP JUMP JUMPDEST PUSH1 0x0 PUSH2 0x1489 PUSH1 0x1C CALLER PUSH2 0x19CF JUMP JUMPDEST SWAP1 POP SWAP1 JUMP JUMPDEST DUP1 ISZERO PUSH2 0x162A JUMPI PUSH1 0x6 SLOAD PUSH1 0x5 SLOAD PUSH1 0x0 SWAP2 PUSH2 0x14A6 SWAP2 PUSH2 0x1DB3 JUMP JUMPDEST GT PUSH2 0x14C3 JUMPI PUSH1 0x40 MLOAD PUSH3 0x461BCD PUSH1 0xE5 SHL DUP2 MSTORE PUSH1 0x4 ADD PUSH2 0x603 SWAP1 PUSH2 0x1C01 JUMP JUMPDEST CALLER PUSH1 0x0 SWAP1 DUP2 MSTORE PUSH1 0x2 PUSH1 0x20 MSTORE PUSH1 0x40 SWAP1 KECCAK256 PUSH1 0x3 DUP2 ADD SLOAD PUSH1 0x1 DUP3 ADD SLOAD GT PUSH2 0x1535 JUMPI PUSH1 0x40 MLOAD PUSH3 0x461BCD PUSH1 0xE5 SHL DUP2 MSTORE PUSH1 0x20 PUSH1 0x4 DUP3 ADD MSTORE PUSH1 0x24 DUP1 DUP3 ADD MSTORE PUSH32 0x596F7520636C61696D20616C6C206F722068617665206E6F7420626F75676874 PUSH1 0x44 DUP3 ADD MSTORE PUSH4 0x81E595D PUSH1 0xE2 SHL PUSH1 0x64 DUP3 ADD MSTORE PUSH1 0x84 ADD PUSH2 0x603 JUMP JUMPDEST PUSH1 0x10 SLOAD PUSH1 0x1 DUP3 ADD SLOAD PUSH1 0x40 MLOAD PUSH4 0xA9059CBB PUSH1 0xE0 SHL DUP2 MSTORE CALLER PUSH1 0x4 DUP3 ADD MSTORE PUSH1 0x24 DUP2 ADD SWAP2 SWAP1 SWAP2 MSTORE PUSH1 0x1 PUSH1 0x1 PUSH1 0xA0 SHL SUB SWAP1 SWAP2 AND SWAP1 PUSH4 0xA9059CBB SWAP1 PUSH1 0x44 ADD PUSH1 0x20 PUSH1 0x40 MLOAD DUP1 DUP4 SUB DUP2 PUSH1 0x0 DUP8 DUP1 EXTCODESIZE ISZERO DUP1 ISZERO PUSH2 0x1587 JUMPI PUSH1 0x0 DUP1 REVERT JUMPDEST POP GAS CALL ISZERO DUP1 ISZERO PUSH2 0x159B JUMPI RETURNDATASIZE PUSH1 0x0 DUP1 RETURNDATACOPY RETURNDATASIZE PUSH1 0x0 REVERT JUMPDEST POP POP POP POP PUSH1 0x40 MLOAD RETURNDATASIZE PUSH1 0x1F NOT PUSH1 0x1F DUP3 ADD AND DUP3 ADD DUP1 PUSH1 0x40 MSTORE POP DUP2 ADD SWAP1 PUSH2 0x15BF SWAP2 SWAP1 PUSH2 0x1B77 JUMP JUMPDEST POP PUSH1 0x1 DUP2 ADD SLOAD PUSH1 0x6 DUP1 SLOAD PUSH1 0x0 SWAP1 PUSH2 0x15D7 SWAP1 DUP5 SWAP1 PUSH2 0x1C6F JUMP JUMPDEST SWAP1 SWAP2 SSTORE POP POP PUSH1 0x1 DUP2 ADD SLOAD PUSH1 0x1A DUP1 SLOAD PUSH1 0x0 SWAP1 PUSH2 0x15F3 SWAP1 DUP5 SWAP1 PUSH2 0x1DB3 JUMP JUMPDEST SWAP1 SWAP2 SSTORE POP POP PUSH1 0x1 DUP2 ADD SLOAD PUSH1 0x3 DUP3 ADD DUP1 SLOAD PUSH1 0x0 SWAP1 PUSH2 0x1611 SWAP1 DUP5 SWAP1 PUSH2 0x1C6F JUMP JUMPDEST SWAP1 SWAP2 SSTORE POP POP PUSH1 0x0 DUP1 DUP3 SSTORE PUSH1 0x1 DUP3 ADD SSTORE TIMESTAMP PUSH1 0x2 SWAP1 SWAP2 ADD SSTORE POP JUMP JUMPDEST PUSH1 0x7 SLOAD PUSH1 0x4 SLOAD PUSH1 0x0 SWAP2 PUSH2 0x163C SWAP2 PUSH2 0x1DB3 JUMP JUMPDEST GT PUSH2 0x1659 JUMPI PUSH1 0x40 MLOAD PUSH3 0x461BCD PUSH1 0xE5 SHL DUP2 MSTORE PUSH1 0x4 ADD PUSH2 0x603 SWAP1 PUSH2 0x1C01 JUMP JUMPDEST CALLER PUSH1 0x0 SWAP1 DUP2 MSTORE PUSH1 0x2 PUSH1 0x20 MSTORE PUSH1 0x40 SWAP1 KECCAK256 DUP1 SLOAD PUSH2 0x16C4 JUMPI PUSH1 0x40 MLOAD PUSH3 0x461BCD PUSH1 0xE5 SHL DUP2 MSTORE PUSH1 0x20 PUSH1 0x4 DUP3 ADD MSTORE PUSH1 0x25 PUSH1 0x24 DUP3 ADD MSTORE PUSH32 0x596F7520726566756E6420616C6C206F722068617665206E6F7420626F756768 PUSH1 0x44 DUP3 ADD MSTORE PUSH5 0x1D081E595D PUSH1 0xDA SHL PUSH1 0x64 DUP3 ADD MSTORE PUSH1 0x84 ADD PUSH2 0x603 JUMP JUMPDEST DUP1 SLOAD PUSH2 0x16D0 DUP2 DUP1 PUSH2 0x1DB3 JUMP JUMPDEST PUSH1 0x1E PUSH1 0x0 DUP3 DUP3 SLOAD PUSH2 0x16E1 SWAP2 SWAP1 PUSH2 0x1C6F JUMP JUMPDEST SWAP1 SWAP2 SSTORE POP POP PUSH1 0x7 DUP1 SLOAD DUP3 SWAP2 SWAP1 PUSH1 0x0 SWAP1 PUSH2 0x16FB SWAP1 DUP5 SWAP1 PUSH2 0x1C6F JUMP JUMPDEST SWAP1 SWAP2 SSTORE POP POP PUSH1 0x0 DUP1 DUP4 SSTORE PUSH1 0x1 DUP4 ADD DUP2 SWAP1 SSTORE TIMESTAMP PUSH1 0x2 DUP5 ADD SSTORE PUSH1 0x40 MLOAD CALLER SWAP2 DUP4 ISZERO PUSH2 0x8FC MUL SWAP2 DUP5 SWAP2 DUP2 DUP2 DUP2 DUP6 DUP9 DUP9 CALL SWAP4 POP POP POP POP ISZERO DUP1 ISZERO PUSH2 0x173D JUMPI RETURNDATASIZE PUSH1 0x0 DUP1 RETURNDATACOPY RETURNDATASIZE PUSH1 0x0 REVERT JUMPDEST POP POP POP POP JUMP JUMPDEST PUSH1 0x1 SLOAD PUSH1 0x1 PUSH1 0x1 PUSH1 0xA0 SHL SUB AND CALLER EQ PUSH2 0x179D JUMPI PUSH1 0x40 MLOAD PUSH3 0x461BCD PUSH1 0xE5 SHL DUP2 MSTORE PUSH1 0x20 PUSH1 0x4 DUP3 ADD DUP2 SWAP1 MSTORE PUSH1 0x24 DUP3 ADD MSTORE PUSH32 0x4F776E61626C653A2063616C6C6572206973206E6F7420746865206F776E6572 PUSH1 0x44 DUP3 ADD MSTORE PUSH1 0x64 ADD PUSH2 0x603 JUMP JUMPDEST PUSH1 0x1 PUSH1 0x1 PUSH1 0xA0 SHL SUB DUP2 AND PUSH2 0x1802 JUMPI PUSH1 0x40 MLOAD PUSH3 0x461BCD PUSH1 0xE5 SHL DUP2 MSTORE PUSH1 0x20 PUSH1 0x4 DUP3 ADD MSTORE PUSH1 0x26 PUSH1 0x24 DUP3 ADD MSTORE PUSH32 0x4F776E61626C653A206E6577206F776E657220697320746865207A65726F2061 PUSH1 0x44 DUP3 ADD MSTORE PUSH6 0x646472657373 PUSH1 0xD0 SHL PUSH1 0x64 DUP3 ADD MSTORE PUSH1 0x84 ADD PUSH2 0x603 JUMP JUMPDEST PUSH2 0x644 DUP2 PUSH2 0x1829 JUMP JUMPDEST PUSH1 0x0 PUSH2 0x1820 DUP4 PUSH1 0x1 PUSH1 0x1 PUSH1 0xA0 SHL SUB DUP5 AND PUSH2 0x19F1 JUMP JUMPDEST SWAP1 POP JUMPDEST SWAP3 SWAP2 POP POP JUMP JUMPDEST PUSH1 0x1 DUP1 SLOAD PUSH1 0x1 PUSH1 0x1 PUSH1 0xA0 SHL SUB DUP4 DUP2 AND PUSH1 0x1 PUSH1 0x1 PUSH1 0xA0 SHL SUB NOT DUP4 AND DUP2 OR SWAP1 SWAP4 SSTORE PUSH1 0x40 MLOAD SWAP2 AND SWAP2 SWAP1 DUP3 SWAP1 PUSH32 0x8BE0079C531659141344CD1FD0A4F28419497F9722A3DAAFE3B4186F6B6457E0 SWAP1 PUSH1 0x0 SWAP1 LOG3 POP POP JUMP JUMPDEST PUSH1 0x0 PUSH2 0x1820 DUP3 DUP5 PUSH2 0x1DB3 JUMP JUMPDEST PUSH1 0x0 PUSH2 0x1820 DUP3 DUP5 PUSH2 0x1D94 JUMP JUMPDEST PUSH1 0x0 PUSH2 0x1820 DUP3 DUP5 PUSH2 0x1C87 JUMP JUMPDEST PUSH1 0x40 DUP1 MLOAD PUSH1 0x1 PUSH1 0x1 PUSH1 0xA0 SHL SUB DUP6 DUP2 AND PUSH1 0x24 DUP4 ADD MSTORE DUP5 DUP2 AND PUSH1 0x44 DUP4 ADD MSTORE PUSH1 0x64 DUP1 DUP4 ADD DUP6 SWAP1 MSTORE DUP4 MLOAD DUP1 DUP5 SUB SWAP1 SWAP2 ADD DUP2 MSTORE PUSH1 0x84 SWAP1 SWAP3 ADD DUP4 MSTORE PUSH1 0x20 DUP3 ADD DUP1 MLOAD PUSH1 0x1 PUSH1 0x1 PUSH1 0xE0 SHL SUB AND PUSH4 0x23B872DD PUSH1 0xE0 SHL OR SWAP1 MSTORE SWAP2 MLOAD PUSH1 0x0 SWAP3 DUP4 SWAP3 SWAP1 DUP9 AND SWAP2 PUSH2 0x1903 SWAP2 SWAP1 PUSH2 0x1BC6 JUMP JUMPDEST PUSH1 0x0 PUSH1 0x40 MLOAD DUP1 DUP4 SUB DUP2 PUSH1 0x0 DUP7 GAS CALL SWAP2 POP POP RETURNDATASIZE DUP1 PUSH1 0x0 DUP2 EQ PUSH2 0x1940 JUMPI PUSH1 0x40 MLOAD SWAP2 POP PUSH1 0x1F NOT PUSH1 0x3F RETURNDATASIZE ADD AND DUP3 ADD PUSH1 0x40 MSTORE RETURNDATASIZE DUP3 MSTORE RETURNDATASIZE PUSH1 0x0 PUSH1 0x20 DUP5 ADD RETURNDATACOPY PUSH2 0x1945 JUMP JUMPDEST PUSH1 0x60 SWAP2 POP JUMPDEST POP SWAP2 POP SWAP2 POP DUP2 DUP1 ISZERO PUSH2 0x196F JUMPI POP DUP1 MLOAD ISZERO DUP1 PUSH2 0x196F JUMPI POP DUP1 DUP1 PUSH1 0x20 ADD SWAP1 MLOAD DUP2 ADD SWAP1 PUSH2 0x196F SWAP2 SWAP1 PUSH2 0x1B77 JUMP JUMPDEST PUSH2 0x19C7 JUMPI PUSH1 0x40 MLOAD PUSH3 0x461BCD PUSH1 0xE5 SHL DUP2 MSTORE PUSH1 0x20 PUSH1 0x4 DUP3 ADD MSTORE PUSH1 0x24 DUP1 DUP3 ADD MSTORE PUSH32 0x5472616E7366657248656C7065723A205452414E534645525F46524F4D5F4641 PUSH1 0x44 DUP3 ADD MSTORE PUSH4 0x12531151 PUSH1 0xE2 SHL PUSH1 0x64 DUP3 ADD MSTORE PUSH1 0x84 ADD PUSH2 0x603 JUMP JUMPDEST POP POP POP POP POP POP JUMP JUMPDEST PUSH1 0x1 PUSH1 0x1 PUSH1 0xA0 SHL SUB DUP2 AND PUSH1 0x0 SWAP1 DUP2 MSTORE PUSH1 0x1 DUP4 ADD PUSH1 0x20 MSTORE PUSH1 0x40 DUP2 KECCAK256 SLOAD ISZERO ISZERO PUSH2 0x1820 JUMP JUMPDEST PUSH1 0x0 DUP2 DUP2 MSTORE PUSH1 0x1 DUP4 ADD PUSH1 0x20 MSTORE PUSH1 0x40 DUP2 KECCAK256 SLOAD PUSH2 0x1A38 JUMPI POP DUP2 SLOAD PUSH1 0x1 DUP2 DUP2 ADD DUP5 SSTORE PUSH1 0x0 DUP5 DUP2 MSTORE PUSH1 0x20 DUP1 DUP3 KECCAK256 SWAP1 SWAP4 ADD DUP5 SWAP1 SSTORE DUP5 SLOAD DUP5 DUP3 MSTORE DUP3 DUP7 ADD SWAP1 SWAP4 MSTORE PUSH1 0x40 SWAP1 KECCAK256 SWAP2 SWAP1 SWAP2 SSTORE PUSH2 0x1823 JUMP JUMPDEST POP PUSH1 0x0 PUSH2 0x1823 JUMP JUMPDEST DUP1 CALLDATALOAD PUSH2 0x1A4B DUP2 PUSH2 0x1E11 JUMP JUMPDEST SWAP2 SWAP1 POP JUMP JUMPDEST PUSH1 0x0 PUSH1 0x20 DUP3 DUP5 SUB SLT ISZERO PUSH2 0x1A62 JUMPI PUSH1 0x0 DUP1 REVERT JUMPDEST DUP2 CALLDATALOAD PUSH2 0x1A6D DUP2 PUSH2 0x1E11 JUMP JUMPDEST SWAP4 SWAP3 POP POP POP JUMP JUMPDEST PUSH1 0x0 DUP1 PUSH1 0x0 DUP1 PUSH1 0x0 DUP1 PUSH1 0x0 PUSH2 0x1E0 DUP9 DUP11 SUB SLT ISZERO PUSH2 0x1A90 JUMPI PUSH1 0x0 DUP1 REVERT JUMPDEST DUP8 CALLDATALOAD PUSH2 0x1A9B DUP2 PUSH2 0x1E11 JUMP JUMPDEST SWAP7 POP PUSH1 0x20 DUP9 DUP2 ADD CALLDATALOAD PUSH2 0x1AAC DUP2 PUSH2 0x1E11 JUMP JUMPDEST SWAP7 POP PUSH1 0x40 DUP10 ADD CALLDATALOAD PUSH2 0x1ABC DUP2 PUSH2 0x1E11 JUMP JUMPDEST SWAP6 POP PUSH1 0x7F DUP10 ADD DUP11 SGT PUSH2 0x1ACD JUMPI PUSH1 0x0 DUP1 REVERT JUMPDEST PUSH1 0x40 MLOAD PUSH2 0x120 DUP2 ADD DUP2 DUP2 LT PUSH8 0xFFFFFFFFFFFFFFFF DUP3 GT OR ISZERO PUSH2 0x1AF1 JUMPI PUSH2 0x1AF1 PUSH2 0x1DFB JUMP JUMPDEST PUSH1 0x40 MSTORE DUP1 PUSH1 0x60 DUP12 ADD PUSH2 0x180 DUP13 ADD DUP14 DUP2 GT ISZERO PUSH2 0x1B0B JUMPI PUSH1 0x0 DUP1 REVERT JUMPDEST PUSH1 0x0 JUMPDEST PUSH1 0x9 DUP2 LT ISZERO PUSH2 0x1B2B JUMPI DUP3 CALLDATALOAD DUP5 MSTORE SWAP3 DUP6 ADD SWAP3 SWAP2 DUP6 ADD SWAP2 PUSH1 0x1 ADD PUSH2 0x1B0E JUMP JUMPDEST POP SWAP3 SWAP8 POP POP SWAP1 CALLDATALOAD SWAP5 POP PUSH2 0x1B44 SWAP2 POP POP PUSH2 0x1A0 DUP10 ADD PUSH2 0x1A40 JUMP JUMPDEST SWAP2 POP PUSH2 0x1C0 DUP9 ADD CALLDATALOAD SWAP1 POP SWAP3 SWAP6 SWAP9 SWAP2 SWAP5 SWAP8 POP SWAP3 SWAP6 POP JUMP JUMPDEST PUSH1 0x0 PUSH1 0x20 DUP3 DUP5 SUB SLT ISZERO PUSH2 0x1B6C JUMPI PUSH1 0x0 DUP1 REVERT JUMPDEST DUP2 CALLDATALOAD PUSH2 0x1A6D DUP2 PUSH2 0x1E26 JUMP JUMPDEST PUSH1 0x0 PUSH1 0x20 DUP3 DUP5 SUB SLT ISZERO PUSH2 0x1B89 JUMPI PUSH1 0x0 DUP1 REVERT JUMPDEST DUP2 MLOAD PUSH2 0x1A6D DUP2 PUSH2 0x1E26 JUMP JUMPDEST PUSH1 0x0 PUSH1 0x20 DUP3 DUP5 SUB SLT ISZERO PUSH2 0x1BA6 JUMPI PUSH1 0x0 DUP1 REVERT JUMPDEST POP CALLDATALOAD SWAP2 SWAP1 POP JUMP JUMPDEST PUSH1 0x0 PUSH1 0x20 DUP3 DUP5 SUB SLT ISZERO PUSH2 0x1BBF JUMPI PUSH1 0x0 DUP1 REVERT JUMPDEST POP MLOAD SWAP2 SWAP1 POP JUMP JUMPDEST PUSH1 0x0 DUP3 MLOAD PUSH1 0x0 JUMPDEST DUP2 DUP2 LT ISZERO PUSH2 0x1BE7 JUMPI PUSH1 0x20 DUP2 DUP7 ADD DUP2 ADD MLOAD DUP6 DUP4 ADD MSTORE ADD PUSH2 0x1BCD JUMP JUMPDEST DUP2 DUP2 GT ISZERO PUSH2 0x1BF6 JUMPI PUSH1 0x0 DUP3 DUP6 ADD MSTORE JUMPDEST POP SWAP2 SWAP1 SWAP2 ADD SWAP3 SWAP2 POP POP JUMP JUMPDEST PUSH1 0x20 DUP1 DUP3 MSTORE PUSH1 0x1B SWAP1 DUP3 ADD MSTORE PUSH32 0x416C6C20746F6B656E20686173206265656E2077697468647261770000000000 PUSH1 0x40 DUP3 ADD MSTORE PUSH1 0x60 ADD SWAP1 JUMP JUMPDEST PUSH1 0x20 DUP1 DUP3 MSTORE PUSH1 0x1F SWAP1 DUP3 ADD MSTORE PUSH32 0x5265656E7472616E637947756172643A207265656E7472616E742063616C6C00 PUSH1 0x40 DUP3 ADD MSTORE PUSH1 0x60 ADD SWAP1 JUMP JUMPDEST PUSH1 0x0 DUP3 NOT DUP3 GT ISZERO PUSH2 0x1C82 JUMPI PUSH2 0x1C82 PUSH2 0x1DE5 JUMP JUMPDEST POP ADD SWAP1 JUMP JUMPDEST PUSH1 0x0 DUP3 PUSH2 0x1CA4 JUMPI PUSH4 0x4E487B71 PUSH1 0xE0 SHL PUSH1 0x0 MSTORE PUSH1 0x12 PUSH1 0x4 MSTORE PUSH1 0x24 PUSH1 0x0 REVERT JUMPDEST POP DIV SWAP1 JUMP JUMPDEST PUSH1 0x1 DUP2 DUP2 JUMPDEST DUP1 DUP6 GT ISZERO PUSH2 0x1CE4 JUMPI DUP2 PUSH1 0x0 NOT DIV DUP3 GT ISZERO PUSH2 0x1CCA JUMPI PUSH2 0x1CCA PUSH2 0x1DE5 JUMP JUMPDEST DUP1 DUP6 AND ISZERO PUSH2 0x1CD7 JUMPI SWAP2 DUP2 MUL SWAP2 JUMPDEST SWAP4 DUP5 SHR SWAP4 SWAP1 DUP1 MUL SWAP1 PUSH2 0x1CAE JUMP JUMPDEST POP SWAP3 POP SWAP3 SWAP1 POP JUMP JUMPDEST PUSH1 0x0 PUSH2 0x1820 DUP4 DUP4 PUSH1 0x0 DUP3 PUSH2 0x1D02 JUMPI POP PUSH1 0x1 PUSH2 0x1823 JUMP JUMPDEST DUP2 PUSH2 0x1D0F JUMPI POP PUSH1 0x0 PUSH2 0x1823 JUMP JUMPDEST DUP2 PUSH1 0x1 DUP2 EQ PUSH2 0x1D25 JUMPI PUSH1 0x2 DUP2 EQ PUSH2 0x1D2F JUMPI PUSH2 0x1D4B JUMP JUMPDEST PUSH1 0x1 SWAP2 POP POP PUSH2 0x1823 JUMP JUMPDEST PUSH1 0xFF DUP5 GT ISZERO PUSH2 0x1D40 JUMPI PUSH2 0x1D40 PUSH2 0x1DE5 JUMP JUMPDEST POP POP PUSH1 0x1 DUP3 SHL PUSH2 0x1823 JUMP JUMPDEST POP PUSH1 0x20 DUP4 LT PUSH2 0x133 DUP4 LT AND PUSH1 0x4E DUP5 LT PUSH1 0xB DUP5 LT AND OR ISZERO PUSH2 0x1D6E JUMPI POP DUP2 DUP2 EXP PUSH2 0x1823 JUMP JUMPDEST PUSH2 0x1D78 DUP4 DUP4 PUSH2 0x1CA9 JUMP JUMPDEST DUP1 PUSH1 0x0 NOT DIV DUP3 GT ISZERO PUSH2 0x1D8C JUMPI PUSH2 0x1D8C PUSH2 0x1DE5 JUMP JUMPDEST MUL SWAP4 SWAP3 POP POP POP JUMP JUMPDEST PUSH1 0x0 DUP2 PUSH1 0x0 NOT DIV DUP4 GT DUP3 ISZERO ISZERO AND ISZERO PUSH2 0x1DAE JUMPI PUSH2 0x1DAE PUSH2 0x1DE5 JUMP JUMPDEST POP MUL SWAP1 JUMP JUMPDEST PUSH1 0x0 DUP3 DUP3 LT ISZERO PUSH2 0x1DC5 JUMPI PUSH2 0x1DC5 PUSH2 0x1DE5 JUMP JUMPDEST POP SUB SWAP1 JUMP JUMPDEST PUSH1 0x0 PUSH1 0x0 NOT DUP3 EQ ISZERO PUSH2 0x1DDE JUMPI PUSH2 0x1DDE PUSH2 0x1DE5 JUMP JUMPDEST POP PUSH1 0x1 ADD SWAP1 JUMP JUMPDEST PUSH4 0x4E487B71 PUSH1 0xE0 SHL PUSH1 0x0 MSTORE PUSH1 0x11 PUSH1 0x4 MSTORE PUSH1 0x24 PUSH1 0x0 REVERT JUMPDEST PUSH4 0x4E487B71 PUSH1 0xE0 SHL PUSH1 0x0 MSTORE PUSH1 0x41 PUSH1 0x4 MSTORE PUSH1 0x24 PUSH1 0x0 REVERT JUMPDEST PUSH1 0x1 PUSH1 0x1 PUSH1 0xA0 SHL SUB DUP2 AND DUP2 EQ PUSH2 0x644 JUMPI PUSH1 0x0 DUP1 REVERT JUMPDEST DUP1 ISZERO ISZERO DUP2 EQ PUSH2 0x644 JUMPI PUSH1 0x0 DUP1 REVERT INVALID LOG2 PUSH5 0x6970667358 0x22 SLT KECCAK256 SWAP5 LOG3 0x5E OR CALLER LOG4 NOT SWAP7 CODECOPY BYTE 0xC POP 0xAE 0xD 0xAD 0xD7 0xDC 0x25 PUSH15 0x7810DBF3F5B64FAFE030783116473 PUSH16 0x6C634300080500330000000000000000 "
				},
				"gasEstimates": {
					"creation": {
						"codeDepositCost": "1557200",
						"executionCost": "infinite",
						"totalCost": "infinite"
					},
					"external": {
						"WETH()": "2426",
						"adminReceiveFee()": "2448",
						"backToken()": "infinite",
						"buyerInfo(address)": "11126",
						"checkAdminAddress()": "2499",
						"deposit(uint256)": "infinite",
						"feeAnyone()": "2429",
						"feeCreateSale()": "2339",
						"getBalance(address)": "3094",
						"initialSaleInfor(address,address,address,uint256[9],uint256,address,uint256)": "infinite",
						"owner()": "2420",
						"ownerClaimAndRefundToken()": "infinite",
						"presaleGenetor()": "2449",
						"presaleStatus()": "17307",
						"renounceOwnership()": "28162",
						"saleInfor()": "25810",
						"saleTotalSupply()": "4441",
						"status()": "4555",
						"totalFee()": "2363",
						"transferOwnership(address)": "infinite",
						"userClaimEmergency()": "infinite",
						"userClaimOrRefundWhenSaleSuccess(bool)": "infinite",
						"userFee(address)": "2536",
						"userRefundEmergency()": "infinite"
					}
				},
				"methodIdentifiers": {
					"WETH()": "ad5c4648",
					"adminReceiveFee()": "ae2b0965",
					"backToken()": "861faf5f",
					"buyerInfo(address)": "e2d3f423",
					"checkAdminAddress()": "cad5b0f7",
					"deposit(uint256)": "b6b55f25",
					"feeAnyone()": "3b5ef2ad",
					"feeCreateSale()": "d4c1dee9",
					"getBalance(address)": "f8b2cb4f",
					"initialSaleInfor(address,address,address,uint256[9],uint256,address,uint256)": "9b25415c",
					"owner()": "8da5cb5b",
					"ownerClaimAndRefundToken()": "8edf18e6",
					"presaleGenetor()": "29a79af6",
					"presaleStatus()": "acfb2355",
					"renounceOwnership()": "715018a6",
					"saleInfor()": "18856a2f",
					"saleTotalSupply()": "12e5d0b9",
					"status()": "200d2ed2",
					"totalFee()": "1df4ccfc",
					"transferOwnership(address)": "f2fde38b",
					"userClaimEmergency()": "ab33985a",
					"userClaimOrRefundWhenSaleSuccess(bool)": "eb002bb0",
					"userFee(address)": "56c5f349",
					"userRefundEmergency()": "95661e70"
				}
			},
			"storageLayout": {
				"storage": [
					{
						"astId": 2592,
						"contract": "Ethereum/Presale.sol:Presale",
						"label": "_status",
						"offset": 0,
						"slot": "0",
						"type": "t_uint256"
					},
					{
						"astId": 2484,
						"contract": "Ethereum/Presale.sol:Presale",
						"label": "_owner",
						"offset": 0,
						"slot": "1",
						"type": "t_address"
					},
					{
						"astId": 778,
						"contract": "Ethereum/Presale.sol:Presale",
						"label": "buyerInfo",
						"offset": 0,
						"slot": "2",
						"type": "t_mapping(t_address,t_struct(BuyerInfo)751_storage)"
					},
					{
						"astId": 782,
						"contract": "Ethereum/Presale.sol:Presale",
						"label": "userFee",
						"offset": 0,
						"slot": "3",
						"type": "t_mapping(t_address,t_uint256)"
					},
					{
						"astId": 785,
						"contract": "Ethereum/Presale.sol:Presale",
						"label": "presaleStatus",
						"offset": 0,
						"slot": "4",
						"type": "t_struct(PresaleStatus)773_storage"
					},
					{
						"astId": 788,
						"contract": "Ethereum/Presale.sol:Presale",
						"label": "saleTotalSupply",
						"offset": 0,
						"slot": "13",
						"type": "t_struct(SaleTotalSupply)740_storage"
					},
					{
						"astId": 791,
						"contract": "Ethereum/Presale.sol:Presale",
						"label": "saleInfor",
						"offset": 0,
						"slot": "15",
						"type": "t_struct(SaleInfor)735_storage"
					},
					{
						"astId": 794,
						"contract": "Ethereum/Presale.sol:Presale",
						"label": "WETH",
						"offset": 0,
						"slot": "27",
						"type": "t_contract(IERC20)663"
					},
					{
						"astId": 797,
						"contract": "Ethereum/Presale.sol:Presale",
						"label": "admins",
						"offset": 0,
						"slot": "28",
						"type": "t_struct(AddressSet)2189_storage"
					},
					{
						"astId": 799,
						"contract": "Ethereum/Presale.sol:Presale",
						"label": "totalFee",
						"offset": 0,
						"slot": "30",
						"type": "t_uint256"
					},
					{
						"astId": 801,
						"contract": "Ethereum/Presale.sol:Presale",
						"label": "feeAnyone",
						"offset": 0,
						"slot": "31",
						"type": "t_uint256"
					},
					{
						"astId": 803,
						"contract": "Ethereum/Presale.sol:Presale",
						"label": "adminReceiveFee",
						"offset": 0,
						"slot": "32",
						"type": "t_address"
					},
					{
						"astId": 805,
						"contract": "Ethereum/Presale.sol:Presale",
						"label": "feeCreateSale",
						"offset": 0,
						"slot": "33",
						"type": "t_uint256"
					},
					{
						"astId": 807,
						"contract": "Ethereum/Presale.sol:Presale",
						"label": "presaleGenetor",
						"offset": 0,
						"slot": "34",
						"type": "t_address"
					}
				],
				"types": {
					"t_address": {
						"encoding": "inplace",
						"label": "address",
						"numberOfBytes": "20"
					},
					"t_address_payable": {
						"encoding": "inplace",
						"label": "address payable",
						"numberOfBytes": "20"
					},
					"t_array(t_address)dyn_storage": {
						"base": "t_address",
						"encoding": "dynamic_array",
						"label": "address[]",
						"numberOfBytes": "32"
					},
					"t_array(t_bytes32)dyn_storage": {
						"base": "t_bytes32",
						"encoding": "dynamic_array",
						"label": "bytes32[]",
						"numberOfBytes": "32"
					},
					"t_bool": {
						"encoding": "inplace",
						"label": "bool",
						"numberOfBytes": "1"
					},
					"t_bytes32": {
						"encoding": "inplace",
						"label": "bytes32",
						"numberOfBytes": "32"
					},
					"t_contract(ERC20)585": {
						"encoding": "inplace",
						"label": "contract ERC20",
						"numberOfBytes": "20"
					},
					"t_contract(IERC20)663": {
						"encoding": "inplace",
						"label": "contract IERC20",
						"numberOfBytes": "20"
					},
					"t_mapping(t_address,t_struct(BuyerInfo)751_storage)": {
						"encoding": "mapping",
						"key": "t_address",
						"label": "mapping(address => struct Presale.BuyerInfo)",
						"numberOfBytes": "32",
						"value": "t_struct(BuyerInfo)751_storage"
					},
					"t_mapping(t_address,t_uint256)": {
						"encoding": "mapping",
						"key": "t_address",
						"label": "mapping(address => uint256)",
						"numberOfBytes": "32",
						"value": "t_uint256"
					},
					"t_mapping(t_bytes32,t_uint256)": {
						"encoding": "mapping",
						"key": "t_bytes32",
						"label": "mapping(bytes32 => uint256)",
						"numberOfBytes": "32",
						"value": "t_uint256"
					},
					"t_struct(AddressSet)2189_storage": {
						"encoding": "inplace",
						"label": "struct EnumerableSet.AddressSet",
						"members": [
							{
								"astId": 2188,
								"contract": "Ethereum/Presale.sol:Presale",
								"label": "_inner",
								"offset": 0,
								"slot": "0",
								"type": "t_struct(Set)1888_storage"
							}
						],
						"numberOfBytes": "64"
					},
					"t_struct(BuyerInfo)751_storage": {
						"encoding": "inplace",
						"label": "struct Presale.BuyerInfo",
						"members": [
							{
								"astId": 742,
								"contract": "Ethereum/Presale.sol:Presale",
								"label": "baseDeposit",
								"offset": 0,
								"slot": "0",
								"type": "t_uint256"
							},
							{
								"astId": 744,
								"contract": "Ethereum/Presale.sol:Presale",
								"label": "tokenOwner",
								"offset": 0,
								"slot": "1",
								"type": "t_uint256"
							},
							{
								"astId": 746,
								"contract": "Ethereum/Presale.sol:Presale",
								"label": "lastWithDraw",
								"offset": 0,
								"slot": "2",
								"type": "t_uint256"
							},
							{
								"astId": 748,
								"contract": "Ethereum/Presale.sol:Presale",
								"label": "totalTokenWithDraw",
								"offset": 0,
								"slot": "3",
								"type": "t_uint256"
							},
							{
								"astId": 750,
								"contract": "Ethereum/Presale.sol:Presale",
								"label": "totalBaseWithDraw",
								"offset": 0,
								"slot": "4",
								"type": "t_uint256"
							}
						],
						"numberOfBytes": "160"
					},
					"t_struct(PresaleStatus)773_storage": {
						"encoding": "inplace",
						"label": "struct Presale.PresaleStatus",
						"members": [
							{
								"astId": 753,
								"contract": "Ethereum/Presale.sol:Presale",
								"label": "totalBaseCollected",
								"offset": 0,
								"slot": "0",
								"type": "t_uint256"
							},
							{
								"astId": 755,
								"contract": "Ethereum/Presale.sol:Presale",
								"label": "totalTokenSold",
								"offset": 0,
								"slot": "1",
								"type": "t_uint256"
							},
							{
								"astId": 757,
								"contract": "Ethereum/Presale.sol:Presale",
								"label": "totalTokenWithDraw",
								"offset": 0,
								"slot": "2",
								"type": "t_uint256"
							},
							{
								"astId": 759,
								"contract": "Ethereum/Presale.sol:Presale",
								"label": "totalBaseWithDraw",
								"offset": 0,
								"slot": "3",
								"type": "t_uint256"
							},
							{
								"astId": 761,
								"contract": "Ethereum/Presale.sol:Presale",
								"label": "totalTokenBackForAdmin",
								"offset": 0,
								"slot": "4",
								"type": "t_uint256"
							},
							{
								"astId": 763,
								"contract": "Ethereum/Presale.sol:Presale",
								"label": "totalBaseBackForAdmin",
								"offset": 0,
								"slot": "5",
								"type": "t_uint256"
							},
							{
								"astId": 765,
								"contract": "Ethereum/Presale.sol:Presale",
								"label": "numberBuyer",
								"offset": 0,
								"slot": "6",
								"type": "t_uint256"
							},
							{
								"astId": 767,
								"contract": "Ethereum/Presale.sol:Presale",
								"label": "isOwnerClaimSaleToken",
								"offset": 0,
								"slot": "7",
								"type": "t_bool"
							},
							{
								"astId": 769,
								"contract": "Ethereum/Presale.sol:Presale",
								"label": "isOwnerRefundBaseToken",
								"offset": 1,
								"slot": "7",
								"type": "t_bool"
							},
							{
								"astId": 772,
								"contract": "Ethereum/Presale.sol:Presale",
								"label": "admin",
								"offset": 0,
								"slot": "8",
								"type": "t_array(t_address)dyn_storage"
							}
						],
						"numberOfBytes": "288"
					},
					"t_struct(SaleInfor)735_storage": {
						"encoding": "inplace",
						"label": "struct Presale.SaleInfor",
						"members": [
							{
								"astId": 710,
								"contract": "Ethereum/Presale.sol:Presale",
								"label": "presaleOwner",
								"offset": 0,
								"slot": "0",
								"type": "t_address_payable"
							},
							{
								"astId": 713,
								"contract": "Ethereum/Presale.sol:Presale",
								"label": "saleToken",
								"offset": 0,
								"slot": "1",
								"type": "t_contract(ERC20)585"
							},
							{
								"astId": 716,
								"contract": "Ethereum/Presale.sol:Presale",
								"label": "baseToken",
								"offset": 0,
								"slot": "2",
								"type": "t_contract(ERC20)585"
							},
							{
								"astId": 718,
								"contract": "Ethereum/Presale.sol:Presale",
								"label": "tokenPrice",
								"offset": 0,
								"slot": "3",
								"type": "t_uint256"
							},
							{
								"astId": 720,
								"contract": "Ethereum/Presale.sol:Presale",
								"label": "startSale",
								"offset": 0,
								"slot": "4",
								"type": "t_uint256"
							},
							{
								"astId": 722,
								"contract": "Ethereum/Presale.sol:Presale",
								"label": "endSale",
								"offset": 0,
								"slot": "5",
								"type": "t_uint256"
							},
							{
								"astId": 724,
								"contract": "Ethereum/Presale.sol:Presale",
								"label": "minSpendPerBuyer",
								"offset": 0,
								"slot": "6",
								"type": "t_uint256"
							},
							{
								"astId": 726,
								"contract": "Ethereum/Presale.sol:Presale",
								"label": "maxSpendPerBuyer",
								"offset": 0,
								"slot": "7",
								"type": "t_uint256"
							},
							{
								"astId": 728,
								"contract": "Ethereum/Presale.sol:Presale",
								"label": "refundFee",
								"offset": 0,
								"slot": "8",
								"type": "t_uint256"
							},
							{
								"astId": 730,
								"contract": "Ethereum/Presale.sol:Presale",
								"label": "claimFee",
								"offset": 0,
								"slot": "9",
								"type": "t_uint256"
							},
							{
								"astId": 732,
								"contract": "Ethereum/Presale.sol:Presale",
								"label": "saleIsBaseToken",
								"offset": 0,
								"slot": "10",
								"type": "t_bool"
							},
							{
								"astId": 734,
								"contract": "Ethereum/Presale.sol:Presale",
								"label": "amountTokenForSale",
								"offset": 0,
								"slot": "11",
								"type": "t_uint256"
							}
						],
						"numberOfBytes": "384"
					},
					"t_struct(SaleTotalSupply)740_storage": {
						"encoding": "inplace",
						"label": "struct Presale.SaleTotalSupply",
						"members": [
							{
								"astId": 737,
								"contract": "Ethereum/Presale.sol:Presale",
								"label": "hardCap",
								"offset": 0,
								"slot": "0",
								"type": "t_uint256"
							},
							{
								"astId": 739,
								"contract": "Ethereum/Presale.sol:Presale",
								"label": "softCap",
								"offset": 0,
								"slot": "1",
								"type": "t_uint256"
							}
						],
						"numberOfBytes": "64"
					},
					"t_struct(Set)1888_storage": {
						"encoding": "inplace",
						"label": "struct EnumerableSet.Set",
						"members": [
							{
								"astId": 1883,
								"contract": "Ethereum/Presale.sol:Presale",
								"label": "_values",
								"offset": 0,
								"slot": "0",
								"type": "t_array(t_bytes32)dyn_storage"
							},
							{
								"astId": 1887,
								"contract": "Ethereum/Presale.sol:Presale",
								"label": "_indexes",
								"offset": 0,
								"slot": "1",
								"type": "t_mapping(t_bytes32,t_uint256)"
							}
						],
						"numberOfBytes": "64"
					},
					"t_uint256": {
						"encoding": "inplace",
						"label": "uint256",
						"numberOfBytes": "32"
					}
				}
			},
			"userdoc": {
				"kind": "user",
				"methods": {},
				"version": 1
			}
		}
	}
}