{
	"Ethereum/Presale.sol": {
		"Presale": {
			"abi": [
				{
					"inputs": [],
					"stateMutability": "payable",
					"type": "constructor"
				},
				{
					"anonymous": false,
					"inputs": [
						{
							"indexed": true,
							"internalType": "address",
							"name": "previousOwner",
							"type": "address"
						},
						{
							"indexed": true,
							"internalType": "address",
							"name": "newOwner",
							"type": "address"
						}
					],
					"name": "OwnershipTransferred",
					"type": "event"
				},
				{
					"inputs": [],
					"name": "WETH",
					"outputs": [
						{
							"internalType": "contract IERC20",
							"name": "",
							"type": "address"
						}
					],
					"stateMutability": "view",
					"type": "function"
				},
				{
					"inputs": [],
					"name": "backToken",
					"outputs": [],
					"stateMutability": "payable",
					"type": "function"
				},
				{
					"inputs": [
						{
							"internalType": "address",
							"name": "",
							"type": "address"
						}
					],
					"name": "buyerInfo",
					"outputs": [
						{
							"internalType": "uint256",
							"name": "baseDeposit",
							"type": "uint256"
						},
						{
							"internalType": "uint256",
							"name": "tokenOwner",
							"type": "uint256"
						},
						{
							"internalType": "uint256",
							"name": "lastWithDraw",
							"type": "uint256"
						},
						{
							"internalType": "uint256",
							"name": "totalTokenWithDraw",
							"type": "uint256"
						},
						{
							"internalType": "bool",
							"name": "isRefund",
							"type": "bool"
						},
						{
							"internalType": "bool",
							"name": "isClaim",
							"type": "bool"
						}
					],
					"stateMutability": "view",
					"type": "function"
				},
				{
					"inputs": [],
					"name": "checkAdminAddress",
					"outputs": [
						{
							"internalType": "bool",
							"name": "",
							"type": "bool"
						}
					],
					"stateMutability": "view",
					"type": "function"
				},
				{
					"inputs": [
						{
							"internalType": "uint256",
							"name": "_amount",
							"type": "uint256"
						}
					],
					"name": "deposit",
					"outputs": [],
					"stateMutability": "payable",
					"type": "function"
				},
				{
					"inputs": [],
					"name": "feeAnyone",
					"outputs": [
						{
							"internalType": "uint256",
							"name": "",
							"type": "uint256"
						}
					],
					"stateMutability": "view",
					"type": "function"
				},
				{
					"inputs": [
						{
							"internalType": "address",
							"name": "_address",
							"type": "address"
						}
					],
					"name": "getBalance",
					"outputs": [
						{
							"internalType": "uint256",
							"name": "",
							"type": "uint256"
						}
					],
					"stateMutability": "view",
					"type": "function"
				},
				{
					"inputs": [
						{
							"internalType": "address payable",
							"name": "_presaleOwner",
							"type": "address"
						},
						{
							"internalType": "contract ERC20",
							"name": "_saleToken",
							"type": "address"
						},
						{
							"internalType": "contract ERC20",
							"name": "_baseTOken",
							"type": "address"
						},
						{
							"internalType": "uint256[9]",
							"name": "datas",
							"type": "uint256[9]"
						}
					],
					"name": "initialSaleInfor",
					"outputs": [],
					"stateMutability": "nonpayable",
					"type": "function"
				},
				{
					"inputs": [],
					"name": "owner",
					"outputs": [
						{
							"internalType": "address",
							"name": "",
							"type": "address"
						}
					],
					"stateMutability": "view",
					"type": "function"
				},
				{
					"inputs": [],
					"name": "presaleStatus",
					"outputs": [
						{
							"internalType": "uint256",
							"name": "totalBaseCollected",
							"type": "uint256"
						},
						{
							"internalType": "uint256",
							"name": "totalTokenSold",
							"type": "uint256"
						},
						{
							"internalType": "uint256",
							"name": "totalTokenWithDraw",
							"type": "uint256"
						},
						{
							"internalType": "uint256",
							"name": "totalBaseWithDraw",
							"type": "uint256"
						},
						{
							"internalType": "uint256",
							"name": "numberBuyer",
							"type": "uint256"
						},
						{
							"internalType": "uint256",
							"name": "totalFee",
							"type": "uint256"
						}
					],
					"stateMutability": "view",
					"type": "function"
				},
				{
					"inputs": [],
					"name": "renounceOwnership",
					"outputs": [],
					"stateMutability": "nonpayable",
					"type": "function"
				},
				{
					"inputs": [],
					"name": "saleInfor",
					"outputs": [
						{
							"internalType": "address payable",
							"name": "presaleOwner",
							"type": "address"
						},
						{
							"internalType": "contract ERC20",
							"name": "saleToken",
							"type": "address"
						},
						{
							"internalType": "contract ERC20",
							"name": "baseToken",
							"type": "address"
						},
						{
							"internalType": "uint256",
							"name": "tokenPrice",
							"type": "uint256"
						},
						{
							"internalType": "uint256",
							"name": "startSale",
							"type": "uint256"
						},
						{
							"internalType": "uint256",
							"name": "endSale",
							"type": "uint256"
						},
						{
							"internalType": "uint256",
							"name": "minSpendPerBuyer",
							"type": "uint256"
						},
						{
							"internalType": "uint256",
							"name": "maxSpendPerBuyer",
							"type": "uint256"
						},
						{
							"internalType": "uint256",
							"name": "refundFee",
							"type": "uint256"
						},
						{
							"internalType": "uint256",
							"name": "claimFee",
							"type": "uint256"
						},
						{
							"internalType": "bool",
							"name": "saleIsBaseToken",
							"type": "bool"
						},
						{
							"internalType": "uint256",
							"name": "amountTokenForSale",
							"type": "uint256"
						}
					],
					"stateMutability": "view",
					"type": "function"
				},
				{
					"inputs": [],
					"name": "saleTotalSupply",
					"outputs": [
						{
							"internalType": "uint256",
							"name": "hardCap",
							"type": "uint256"
						},
						{
							"internalType": "uint256",
							"name": "softCap",
							"type": "uint256"
						}
					],
					"stateMutability": "view",
					"type": "function"
				},
				{
					"inputs": [],
					"name": "status",
					"outputs": [
						{
							"internalType": "uint256",
							"name": "",
							"type": "uint256"
						}
					],
					"stateMutability": "view",
					"type": "function"
				},
				{
					"inputs": [],
					"name": "totalFee",
					"outputs": [
						{
							"internalType": "uint256",
							"name": "",
							"type": "uint256"
						}
					],
					"stateMutability": "view",
					"type": "function"
				},
				{
					"inputs": [
						{
							"internalType": "address",
							"name": "newOwner",
							"type": "address"
						}
					],
					"name": "transferOwnership",
					"outputs": [],
					"stateMutability": "nonpayable",
					"type": "function"
				},
				{
					"inputs": [],
					"name": "userClaimEmergency",
					"outputs": [],
					"stateMutability": "nonpayable",
					"type": "function"
				},
				{
					"inputs": [
						{
							"internalType": "address",
							"name": "",
							"type": "address"
						}
					],
					"name": "userFee",
					"outputs": [
						{
							"internalType": "uint256",
							"name": "",
							"type": "uint256"
						}
					],
					"stateMutability": "view",
					"type": "function"
				},
				{
					"inputs": [],
					"name": "userRefundEmergency",
					"outputs": [],
					"stateMutability": "nonpayable",
					"type": "function"
				}
			],
			"devdoc": {
				"kind": "dev",
				"methods": {
					"owner()": {
						"details": "Returns the address of the current owner."
					},
					"renounceOwnership()": {
						"details": "Leaves the contract without owner. It will not be possible to call `onlyOwner` functions anymore. Can only be called by the current owner. NOTE: Renouncing ownership will leave the contract without an owner, thereby removing any functionality that is only available to the owner."
					},
					"transferOwnership(address)": {
						"details": "Transfers ownership of the contract to a new account (`newOwner`). Can only be called by the current owner."
					}
				},
				"version": 1
			},
			"evm": {
				"assembly": "    /* \"Ethereum/Presale.sol\":370:7447  contract Presale is ReentrancyGuard, Ownable{\r... */\n  mstore(0x40, 0x80)\n    /* \"Utils/ReentrancyGuard.sol\":1734:1735  1 */\n  0x01\n    /* \"Utils/ReentrancyGuard.sol\":1845:1852  _status */\n  0x00\n    /* \"Utils/ReentrancyGuard.sol\":1845:1867  _status = _NOT_ENTERED */\n  sstore\n    /* \"Utils/Ownable.sol\":942:974  _transferOwnership(_msgSender()) */\n  tag_6\n    /* \"Utils/Context.sol\":736:746  msg.sender */\n  caller\n    /* \"Utils/Ownable.sol\":942:960  _transferOwnership */\n  tag_9\n    /* \"Utils/Ownable.sol\":942:974  _transferOwnership(_msgSender()) */\n  jump\t// in\ntag_6:\n    /* \"Ethereum/Presale.sol\":2109:2113  WETH */\n  0x19\n    /* \"Ethereum/Presale.sol\":2109:2165  WETH = ERC20(0xc778417E063141139Fce010982780140Aa0cD5Ab) */\n  dup1\n  sload\n    /* \"Ethereum/Presale.sol\":2122:2164  0xc778417E063141139Fce010982780140Aa0cD5Ab */\n  0xc778417e063141139fce010982780140aa0cd5ab\n  not(sub(shl(0xa0, 0x01), 0x01))\n    /* \"Ethereum/Presale.sol\":2109:2165  WETH = ERC20(0xc778417E063141139Fce010982780140Aa0cD5Ab) */\n  swap1\n  swap2\n  and\n  or\n  swap1\n  sstore\n    /* \"Ethereum/Presale.sol\":2176:2230  admins.add(0x6Ccb41eedA5a073076F3E7dC1614C185b5fA41eD) */\n  tag_11\n    /* \"Ethereum/Presale.sol\":2176:2182  admins */\n  0x1b\n    /* \"Ethereum/Presale.sol\":2187:2229  0x6Ccb41eedA5a073076F3E7dC1614C185b5fA41eD */\n  0x6ccb41eeda5a073076f3e7dc1614c185b5fa41ed\n    /* \"Ethereum/Presale.sol\":2176:2186  admins.add */\n  tag_12\n  0x20\n  swap1\n  dup2\n  shl\n  tag_0_108\n  or\n    /* \"Ethereum/Presale.sol\":2176:2230  admins.add(0x6Ccb41eedA5a073076F3E7dC1614C185b5fA41eD) */\n  swap1\n  shr\n  jump\t// in\ntag_11:\n  pop\n    /* \"Ethereum/Presale.sol\":2241:2295  admins.add(0x4f0B12bBF40Fc182559822A5b1dB6D34dbC3E016) */\n  tag_13\n    /* \"Ethereum/Presale.sol\":2252:2294  0x4f0B12bBF40Fc182559822A5b1dB6D34dbC3E016 */\n  0x4f0b12bbf40fc182559822a5b1db6d34dbc3e016\n    /* \"Ethereum/Presale.sol\":2241:2247  admins */\n  0x1b\n    /* \"Ethereum/Presale.sol\":2241:2251  admins.add */\n  or(tag_0_108, shl(0x20, tag_12))\n  swap1\n    /* \"Ethereum/Presale.sol\":2241:2295  admins.add(0x4f0B12bBF40Fc182559822A5b1dB6D34dbC3E016) */\n  swap2\n  swap1\n  0x20\n  shr\n  jump\t// in\ntag_13:\n  pop\n    /* \"Ethereum/Presale.sol\":2318:2320  20 */\n  0x14\n    /* \"Ethereum/Presale.sol\":2306:2315  feeAnyone */\n  0x1a\n    /* \"Ethereum/Presale.sol\":2306:2320  feeAnyone = 20 */\n  sstore\n    /* \"Ethereum/Presale.sol\":370:7447  contract Presale is ReentrancyGuard, Ownable{\r... */\n  jump(tag_14)\n    /* \"Utils/Ownable.sol\":2333:2524  function _transferOwnership(address newOwner) internal virtual {\r... */\ntag_9:\n    /* \"Utils/Ownable.sol\":2426:2432  _owner */\n  0x01\n  dup1\n  sload\n  sub(shl(0xa0, 0x01), 0x01)\n    /* \"Utils/Ownable.sol\":2443:2460  _owner = newOwner */\n  dup4\n  dup2\n  and\n  not(sub(shl(0xa0, 0x01), 0x01))\n  dup4\n  and\n  dup2\n  or\n  swap1\n  swap4\n  sstore\n    /* \"Utils/Ownable.sol\":2476:2516  OwnershipTransferred(oldOwner, newOwner) */\n  mload(0x40)\n    /* \"Utils/Ownable.sol\":2426:2432  _owner */\n  swap2\n  and\n  swap2\n    /* \"Utils/Ownable.sol\":2443:2460  _owner = newOwner */\n  swap1\n    /* \"Utils/Ownable.sol\":2426:2432  _owner */\n  dup3\n  swap1\n    /* \"Utils/Ownable.sol\":2476:2516  OwnershipTransferred(oldOwner, newOwner) */\n  0x8be0079c531659141344cd1fd0a4f28419497f9722a3daafe3b4186f6b6457e0\n  swap1\n    /* \"Utils/Ownable.sol\":2407:2423  address oldOwner */\n  0x00\n  swap1\n    /* \"Utils/Ownable.sol\":2476:2516  OwnershipTransferred(oldOwner, newOwner) */\n  log3\n    /* \"Utils/Ownable.sol\":2396:2524  {\r... */\n  pop\n    /* \"Utils/Ownable.sol\":2333:2524  function _transferOwnership(address newOwner) internal virtual {\r... */\n  pop\n  jump\t// out\n    /* \"Utils/EnumerableSet.sol\":8259:8411  function add(AddressSet storage set, address value) internal returns (bool) {\r... */\ntag_12:\n    /* \"Utils/EnumerableSet.sol\":8329:8333  bool */\n  0x00\n    /* \"Utils/EnumerableSet.sol\":8353:8403  _add(set._inner, bytes32(uint256(uint160(value)))) */\n  tag_18\n    /* \"Utils/EnumerableSet.sol\":8358:8361  set */\n  dup4\n  sub(shl(0xa0, 0x01), 0x01)\n    /* \"Utils/EnumerableSet.sol\":8378:8401  uint256(uint160(value)) */\n  dup5\n  and\n    /* \"Utils/EnumerableSet.sol\":8353:8357  _add */\n  tag_19\n    /* \"Utils/EnumerableSet.sol\":8353:8403  _add(set._inner, bytes32(uint256(uint160(value)))) */\n  jump\t// in\ntag_18:\n    /* \"Utils/EnumerableSet.sol\":8346:8403  return _add(set._inner, bytes32(uint256(uint160(value)))) */\n  swap1\n  pop\n    /* \"Utils/EnumerableSet.sol\":8259:8411  function add(AddressSet storage set, address value) internal returns (bool) {\r... */\ntag_17:\n  swap3\n  swap2\n  pop\n  pop\n  jump\t// out\n    /* \"Utils/EnumerableSet.sol\":2174:2588  function _add(Set storage set, bytes32 value) private returns (bool) {\r... */\ntag_19:\n    /* \"Utils/EnumerableSet.sol\":2237:2241  bool */\n  0x00\n    /* \"Utils/EnumerableSet.sol\":4367:4386  set._indexes[value] */\n  dup2\n  dup2\n  mstore\n    /* \"Utils/EnumerableSet.sol\":4367:4379  set._indexes */\n  0x01\n  dup4\n  add\n    /* \"Utils/EnumerableSet.sol\":4367:4386  set._indexes[value] */\n  0x20\n  mstore\n  0x40\n  dup2\n  keccak256\n  sload\n    /* \"Utils/EnumerableSet.sol\":2254:2581  if (!_contains(set, value)) {\r... */\n  tag_23\n  jumpi\n  pop\n    /* \"Utils/EnumerableSet.sol\":2297:2320  set._values.push(value) */\n  dup2\n  sload\n  0x01\n  dup2\n  dup2\n  add\n  dup5\n  sstore\n    /* \"Utils/EnumerableSet.sol\":2297:2308  set._values */\n  0x00\n    /* \"Utils/EnumerableSet.sol\":2297:2320  set._values.push(value) */\n  dup5\n  dup2\n  mstore\n  0x20\n  dup1\n  dup3\n  keccak256\n  swap1\n  swap4\n  add\n  dup5\n  swap1\n  sstore\n    /* \"Utils/EnumerableSet.sol\":2480:2498  set._values.length */\n  dup5\n  sload\n    /* \"Utils/EnumerableSet.sol\":2458:2477  set._indexes[value] */\n  dup5\n  dup3\n  mstore\n    /* \"Utils/EnumerableSet.sol\":2458:2470  set._indexes */\n  dup3\n  dup7\n  add\n    /* \"Utils/EnumerableSet.sol\":2458:2477  set._indexes[value] */\n  swap1\n  swap4\n  mstore\n  0x40\n  swap1\n  keccak256\n    /* \"Utils/EnumerableSet.sol\":2458:2498  set._indexes[value] = set._values.length */\n  swap2\n  swap1\n  swap2\n  sstore\n    /* \"Utils/EnumerableSet.sol\":2513:2524  return true */\n  jump(tag_17)\n    /* \"Utils/EnumerableSet.sol\":2254:2581  if (!_contains(set, value)) {\r... */\ntag_23:\n  pop\n    /* \"Utils/EnumerableSet.sol\":2564:2569  false */\n  0x00\n    /* \"Utils/EnumerableSet.sol\":2557:2569  return false */\n  jump(tag_17)\n    /* \"Ethereum/Presale.sol\":370:7447  contract Presale is ReentrancyGuard, Ownable{\r... */\ntag_14:\n  dataSize(sub_0)\n  dup1\n  dataOffset(sub_0)\n  0x00\n  codecopy\n  0x00\n  return\nstop\n\nsub_0: assembly {\n        /* \"Ethereum/Presale.sol\":370:7447  contract Presale is ReentrancyGuard, Ownable{\r... */\n      mstore(0x40, 0x80)\n      jumpi(tag_1, lt(calldatasize, 0x04))\n      shr(0xe0, calldataload(0x00))\n      dup1\n      0x8f1eae4c\n      gt\n      tag_21\n      jumpi\n      dup1\n      0xb6b55f25\n      gt\n      tag_22\n      jumpi\n      dup1\n      0xb6b55f25\n      eq\n      tag_16\n      jumpi\n      dup1\n      0xcad5b0f7\n      eq\n      tag_17\n      jumpi\n      dup1\n      0xe2d3f423\n      eq\n      tag_18\n      jumpi\n      dup1\n      0xf2fde38b\n      eq\n      tag_19\n      jumpi\n      dup1\n      0xf8b2cb4f\n      eq\n      tag_20\n      jumpi\n      0x00\n      dup1\n      revert\n    tag_22:\n      dup1\n      0x8f1eae4c\n      eq\n      tag_11\n      jumpi\n      dup1\n      0x95661e70\n      eq\n      tag_12\n      jumpi\n      dup1\n      0xab33985a\n      eq\n      tag_13\n      jumpi\n      dup1\n      0xacfb2355\n      eq\n      tag_14\n      jumpi\n      dup1\n      0xad5c4648\n      eq\n      tag_15\n      jumpi\n      0x00\n      dup1\n      revert\n    tag_21:\n      dup1\n      0x3b5ef2ad\n      gt\n      tag_23\n      jumpi\n      dup1\n      0x3b5ef2ad\n      eq\n      tag_6\n      jumpi\n      dup1\n      0x56c5f349\n      eq\n      tag_7\n      jumpi\n      dup1\n      0x715018a6\n      eq\n      tag_8\n      jumpi\n      dup1\n      0x861faf5f\n      eq\n      tag_9\n      jumpi\n      dup1\n      0x8da5cb5b\n      eq\n      tag_10\n      jumpi\n      0x00\n      dup1\n      revert\n    tag_23:\n      dup1\n      0x12e5d0b9\n      eq\n      tag_2\n      jumpi\n      dup1\n      0x18856a2f\n      eq\n      tag_3\n      jumpi\n      dup1\n      0x1df4ccfc\n      eq\n      tag_4\n      jumpi\n      dup1\n      0x200d2ed2\n      eq\n      tag_5\n      jumpi\n    tag_1:\n      0x00\n      dup1\n      revert\n        /* \"Ethereum/Presale.sol\":1623:1661  SaleTotalSupply public saleTotalSupply */\n    tag_2:\n      callvalue\n      dup1\n      iszero\n      tag_24\n      jumpi\n      0x00\n      dup1\n      revert\n    tag_24:\n      pop\n      sload(0x0b)\n      sload(0x0c)\n      tag_25\n      swap2\n      swap1\n      dup3\n      jump\n    tag_25:\n      0x40\n      dup1\n      mload\n        /* \"#utility.yul\":9358:9383   */\n      swap3\n      dup4\n      mstore\n        /* \"#utility.yul\":9414:9416   */\n      0x20\n        /* \"#utility.yul\":9399:9417   */\n      dup4\n      add\n        /* \"#utility.yul\":9392:9426   */\n      swap2\n      swap1\n      swap2\n      mstore\n        /* \"#utility.yul\":9331:9349   */\n      add\n        /* \"Ethereum/Presale.sol\":1623:1661  SaleTotalSupply public saleTotalSupply */\n    tag_27:\n      mload(0x40)\n      dup1\n      swap2\n      sub\n      swap1\n      return\n        /* \"Ethereum/Presale.sol\":1668:1694  SaleInfor public saleInfor */\n    tag_3:\n      callvalue\n      dup1\n      iszero\n      tag_29\n      jumpi\n      0x00\n      dup1\n      revert\n    tag_29:\n      pop\n      sload(0x0d)\n      sload(0x0e)\n      sload(0x0f)\n      sload(0x10)\n      sload(0x11)\n      sload(0x12)\n      sload(0x13)\n      sload(0x14)\n      sload(0x15)\n      sload(0x16)\n      sload(0x17)\n      sload(0x18)\n      tag_30\n      swap12\n      sub(shl(0xa0, 0x01), 0x01)\n      swap1\n      dup2\n      and\n      swap12\n      dup2\n      and\n      swap11\n      and\n      swap9\n      swap8\n      swap7\n      swap6\n      swap5\n      swap4\n      swap3\n      swap2\n      0xff\n      and\n      swap1\n      dup13\n      jump\n    tag_30:\n      0x40\n      dup1\n      mload\n      sub(shl(0xa0, 0x01), 0x01)\n        /* \"#utility.yul\":3376:3391   */\n      swap14\n      dup15\n      and\n        /* \"#utility.yul\":3358:3392   */\n      dup2\n      mstore\n        /* \"#utility.yul\":3428:3443   */\n      swap12\n      dup14\n      and\n        /* \"#utility.yul\":3423:3425   */\n      0x20\n        /* \"#utility.yul\":3408:3426   */\n      dup14\n      add\n        /* \"#utility.yul\":3401:3444   */\n      mstore\n        /* \"#utility.yul\":3480:3495   */\n      swap10\n      swap1\n      swap12\n      and\n        /* \"#utility.yul\":3460:3478   */\n      swap9\n      dup11\n      add\n        /* \"#utility.yul\":3453:3496   */\n      swap9\n      swap1\n      swap9\n      mstore\n        /* \"#utility.yul\":3527:3529   */\n      0x60\n        /* \"#utility.yul\":3512:3530   */\n      dup10\n      add\n        /* \"#utility.yul\":3505:3539   */\n      swap7\n      swap1\n      swap7\n      mstore\n        /* \"#utility.yul\":3570:3573   */\n      0x80\n        /* \"#utility.yul\":3555:3574   */\n      dup9\n      add\n        /* \"#utility.yul\":3548:3583   */\n      swap5\n      swap1\n      swap5\n      mstore\n        /* \"#utility.yul\":3338:3341   */\n      0xa0\n        /* \"#utility.yul\":3599:3618   */\n      dup8\n      add\n        /* \"#utility.yul\":3592:3627   */\n      swap3\n      swap1\n      swap3\n      mstore\n        /* \"#utility.yul\":3658:3661   */\n      0xc0\n        /* \"#utility.yul\":3643:3662   */\n      dup7\n      add\n        /* \"#utility.yul\":3636:3671   */\n      mstore\n        /* \"#utility.yul\":3702:3705   */\n      0xe0\n        /* \"#utility.yul\":3687:3706   */\n      dup6\n      add\n        /* \"#utility.yul\":3680:3715   */\n      mstore\n        /* \"#utility.yul\":3746:3749   */\n      0x0100\n        /* \"#utility.yul\":3731:3750   */\n      dup5\n      add\n        /* \"#utility.yul\":3724:3759   */\n      mstore\n        /* \"#utility.yul\":3790:3793   */\n      0x0120\n        /* \"#utility.yul\":3775:3794   */\n      dup4\n      add\n        /* \"#utility.yul\":3768:3803   */\n      mstore\n        /* \"#utility.yul\":3847:3862   */\n      iszero\n        /* \"#utility.yul\":3840:3863   */\n      iszero\n        /* \"#utility.yul\":3834:3837   */\n      0x0140\n        /* \"#utility.yul\":3819:3838   */\n      dup3\n      add\n        /* \"#utility.yul\":3812:3864   */\n      mstore\n        /* \"#utility.yul\":3895:3898   */\n      0x0160\n        /* \"#utility.yul\":3880:3899   */\n      dup2\n      add\n        /* \"#utility.yul\":3873:3909   */\n      swap2\n      swap1\n      swap2\n      mstore\n        /* \"#utility.yul\":3307:3310   */\n      0x0180\n        /* \"#utility.yul\":3292:3311   */\n      add\n        /* \"Ethereum/Presale.sol\":1668:1694  SaleInfor public saleInfor */\n      tag_27\n        /* \"#utility.yul\":3274:3915   */\n      jump\n        /* \"Ethereum/Presale.sol\":1804:1827  uint256 public totalFee */\n    tag_4:\n      callvalue\n      dup1\n      iszero\n      tag_34\n      jumpi\n      0x00\n      dup1\n      revert\n    tag_34:\n      pop\n      tag_35\n      sload(0x1d)\n      dup2\n      jump\n    tag_35:\n      mload(0x40)\n        /* \"#utility.yul\":9148:9173   */\n      swap1\n      dup2\n      mstore\n        /* \"#utility.yul\":9136:9138   */\n      0x20\n        /* \"#utility.yul\":9121:9139   */\n      add\n        /* \"Ethereum/Presale.sol\":1804:1827  uint256 public totalFee */\n      tag_27\n        /* \"#utility.yul\":9103:9179   */\n      jump\n        /* \"Ethereum/Presale.sol\":3535:3872  function status() public view returns(uint256) {\r... */\n    tag_5:\n      callvalue\n      dup1\n      iszero\n      tag_39\n      jumpi\n      0x00\n      dup1\n      revert\n    tag_39:\n      pop\n      tag_35\n      tag_41\n      jump\t// in\n        /* \"Ethereum/Presale.sol\":1726:1750  uint256 public feeAnyone */\n    tag_6:\n      callvalue\n      dup1\n      iszero\n      tag_43\n      jumpi\n      0x00\n      dup1\n      revert\n    tag_43:\n      pop\n      tag_35\n      sload(0x1a)\n      dup2\n      jump\n        /* \"Ethereum/Presale.sol\":1533:1575  mapping(address => uint256) public userFee */\n    tag_7:\n      callvalue\n      dup1\n      iszero\n      tag_47\n      jumpi\n      0x00\n      dup1\n      revert\n    tag_47:\n      pop\n      tag_35\n      tag_49\n      calldatasize\n      0x04\n      tag_50\n      jump\t// in\n    tag_49:\n      mstore(0x20, 0x03)\n      0x00\n      swap1\n      dup2\n      mstore\n      0x40\n      swap1\n      keccak256\n      sload\n      dup2\n      jump\n        /* \"Utils/Ownable.sol\":1714:1817  function renounceOwnership() public virtual onlyOwner {\r... */\n    tag_8:\n      callvalue\n      dup1\n      iszero\n      tag_53\n      jumpi\n      0x00\n      dup1\n      revert\n    tag_53:\n      pop\n      tag_54\n      tag_55\n      jump\t// in\n    tag_54:\n      stop\n        /* \"Ethereum/Presale.sol\":7336:7444  function backToken() external payable {\r... */\n    tag_9:\n      tag_54\n      tag_57\n      jump\t// in\n        /* \"Utils/Ownable.sol\":1063:1150  function owner() public view virtual returns (address) {\r... */\n    tag_10:\n      callvalue\n      dup1\n      iszero\n      tag_58\n      jumpi\n      0x00\n      dup1\n      revert\n    tag_58:\n      pop\n        /* \"Utils/Ownable.sol\":1136:1142  _owner */\n      and(sub(shl(0xa0, 0x01), 0x01), sload(0x01))\n        /* \"Utils/Ownable.sol\":1063:1150  function owner() public view virtual returns (address) {\r... */\n    tag_59:\n      mload(0x40)\n      sub(shl(0xa0, 0x01), 0x01)\n        /* \"#utility.yul\":2783:2815   */\n      swap1\n      swap2\n      and\n        /* \"#utility.yul\":2765:2816   */\n      dup2\n      mstore\n        /* \"#utility.yul\":2753:2755   */\n      0x20\n        /* \"#utility.yul\":2738:2756   */\n      add\n        /* \"Utils/Ownable.sol\":1063:1150  function owner() public view virtual returns (address) {\r... */\n      tag_27\n        /* \"#utility.yul\":2720:2822   */\n      jump\n        /* \"Ethereum/Presale.sol\":2336:3526  function initialSaleInfor(\r... */\n    tag_11:\n      callvalue\n      dup1\n      iszero\n      tag_63\n      jumpi\n      0x00\n      dup1\n      revert\n    tag_63:\n      pop\n      tag_54\n      tag_65\n      calldatasize\n      0x04\n      tag_66\n      jump\t// in\n    tag_65:\n      tag_67\n      jump\t// in\n        /* \"Ethereum/Presale.sol\":6949:7206  function userRefundEmergency() external nonReentrant {\r... */\n    tag_12:\n      callvalue\n      dup1\n      iszero\n      tag_68\n      jumpi\n      0x00\n      dup1\n      revert\n    tag_68:\n      pop\n      tag_54\n      tag_70\n      jump\t// in\n        /* \"Ethereum/Presale.sol\":6133:6941  function userClaimEmergency() external nonReentrant {\r... */\n    tag_13:\n      callvalue\n      dup1\n      iszero\n      tag_71\n      jumpi\n      0x00\n      dup1\n      revert\n    tag_71:\n      pop\n      tag_54\n      tag_73\n      jump\t// in\n        /* \"Ethereum/Presale.sol\":1582:1616  PresaleStatus public presaleStatus */\n    tag_14:\n      callvalue\n      dup1\n      iszero\n      tag_74\n      jumpi\n      0x00\n      dup1\n      revert\n    tag_74:\n      pop\n      sload(0x04)\n      sload(0x05)\n      sload(0x06)\n      sload(0x07)\n      sload(0x08)\n      sload(0x09)\n      tag_75\n      swap6\n      swap5\n      swap4\n      swap3\n      swap2\n      swap1\n      dup7\n      jump\n    tag_75:\n      0x40\n      dup1\n      mload\n        /* \"#utility.yul\":10284:10309   */\n      swap7\n      dup8\n      mstore\n        /* \"#utility.yul\":10340:10342   */\n      0x20\n        /* \"#utility.yul\":10325:10343   */\n      dup8\n      add\n        /* \"#utility.yul\":10318:10352   */\n      swap6\n      swap1\n      swap6\n      mstore\n        /* \"#utility.yul\":10368:10386   */\n      swap4\n      dup6\n      add\n        /* \"#utility.yul\":10361:10395   */\n      swap3\n      swap1\n      swap3\n      mstore\n        /* \"#utility.yul\":10426:10428   */\n      0x60\n        /* \"#utility.yul\":10411:10429   */\n      dup5\n      add\n        /* \"#utility.yul\":10404:10438   */\n      mstore\n        /* \"#utility.yul\":10469:10472   */\n      0x80\n        /* \"#utility.yul\":10454:10473   */\n      dup4\n      add\n        /* \"#utility.yul\":10447:10482   */\n      mstore\n        /* \"#utility.yul\":10513:10516   */\n      0xa0\n        /* \"#utility.yul\":10498:10517   */\n      dup3\n      add\n        /* \"#utility.yul\":10491:10526   */\n      mstore\n        /* \"#utility.yul\":10271:10274   */\n      0xc0\n        /* \"#utility.yul\":10256:10275   */\n      add\n        /* \"Ethereum/Presale.sol\":1582:1616  PresaleStatus public presaleStatus */\n      tag_27\n        /* \"#utility.yul\":10238:10532   */\n      jump\n        /* \"Ethereum/Presale.sol\":1701:1719  IERC20 public WETH */\n    tag_15:\n      callvalue\n      dup1\n      iszero\n      tag_79\n      jumpi\n      0x00\n      dup1\n      revert\n    tag_79:\n      pop\n      sload(0x19)\n      tag_59\n      swap1\n      sub(shl(0xa0, 0x01), 0x01)\n      and\n      dup2\n      jump\n        /* \"Ethereum/Presale.sol\":3999:6125  function deposit(uint256 _amount) external payable nonReentrant {\r... */\n    tag_16:\n      tag_54\n      tag_85\n      calldatasize\n      0x04\n      tag_86\n      jump\t// in\n    tag_85:\n      tag_87\n      jump\t// in\n        /* \"Ethereum/Presale.sol\":3881:3991  function checkAdminAddress() public view returns(bool) {\r... */\n    tag_17:\n      callvalue\n      dup1\n      iszero\n      tag_88\n      jumpi\n      0x00\n      dup1\n      revert\n    tag_88:\n      pop\n      tag_89\n      tag_90\n      jump\t// in\n    tag_89:\n      mload(0x40)\n        /* \"#utility.yul\":4744:4758   */\n      swap1\n      iszero\n        /* \"#utility.yul\":4737:4759   */\n      iszero\n        /* \"#utility.yul\":4719:4760   */\n      dup2\n      mstore\n        /* \"#utility.yul\":4707:4709   */\n      0x20\n        /* \"#utility.yul\":4692:4710   */\n      add\n        /* \"Ethereum/Presale.sol\":3881:3991  function checkAdminAddress() public view returns(bool) {\r... */\n      tag_27\n        /* \"#utility.yul\":4674:4766   */\n      jump\n        /* \"Ethereum/Presale.sol\":1480:1526  mapping(address => BuyerInfo) public buyerInfo */\n    tag_18:\n      callvalue\n      dup1\n      iszero\n      tag_93\n      jumpi\n      0x00\n      dup1\n      revert\n    tag_93:\n      pop\n      tag_94\n      tag_95\n      calldatasize\n      0x04\n      tag_50\n      jump\t// in\n    tag_95:\n      0x02\n      0x20\n      dup2\n      swap1\n      mstore\n      0x00\n      swap2\n      dup3\n      mstore\n      0x40\n      swap1\n      swap2\n      keccak256\n      dup1\n      sload\n      0x01\n      dup3\n      add\n      sload\n      swap3\n      dup3\n      add\n      sload\n      0x03\n      dup4\n      add\n      sload\n      0x04\n      swap1\n      swap4\n      add\n      sload\n      swap2\n      swap4\n      swap3\n      swap1\n      swap2\n      0xff\n      dup1\n      dup3\n      and\n      swap2\n      0x0100\n      swap1\n      div\n      and\n      dup7\n      jump\n    tag_94:\n      0x40\n      dup1\n      mload\n        /* \"#utility.yul\":9712:9737   */\n      swap7\n      dup8\n      mstore\n        /* \"#utility.yul\":9768:9770   */\n      0x20\n        /* \"#utility.yul\":9753:9771   */\n      dup8\n      add\n        /* \"#utility.yul\":9746:9780   */\n      swap6\n      swap1\n      swap6\n      mstore\n        /* \"#utility.yul\":9796:9814   */\n      swap4\n      dup6\n      add\n        /* \"#utility.yul\":9789:9823   */\n      swap3\n      swap1\n      swap3\n      mstore\n        /* \"#utility.yul\":9854:9856   */\n      0x60\n        /* \"#utility.yul\":9839:9857   */\n      dup5\n      add\n        /* \"#utility.yul\":9832:9866   */\n      mstore\n        /* \"#utility.yul\":9910:9924   */\n      iszero\n        /* \"#utility.yul\":9903:9925   */\n      iszero\n        /* \"#utility.yul\":9897:9900   */\n      0x80\n        /* \"#utility.yul\":9882:9901   */\n      dup4\n      add\n        /* \"#utility.yul\":9875:9926   */\n      mstore\n        /* \"#utility.yul\":9970:9984   */\n      iszero\n        /* \"#utility.yul\":9963:9985   */\n      iszero\n        /* \"#utility.yul\":9957:9960   */\n      0xa0\n        /* \"#utility.yul\":9942:9961   */\n      dup3\n      add\n        /* \"#utility.yul\":9935:9986   */\n      mstore\n        /* \"#utility.yul\":9699:9702   */\n      0xc0\n        /* \"#utility.yul\":9684:9703   */\n      add\n        /* \"Ethereum/Presale.sol\":1480:1526  mapping(address => BuyerInfo) public buyerInfo */\n      tag_27\n        /* \"#utility.yul\":9666:9992   */\n      jump\n        /* \"Utils/Ownable.sol\":1972:2173  function transferOwnership(address newOwner) public virtual onlyOwner {\r... */\n    tag_19:\n      callvalue\n      dup1\n      iszero\n      tag_99\n      jumpi\n      0x00\n      dup1\n      revert\n    tag_99:\n      pop\n      tag_54\n      tag_101\n      calldatasize\n      0x04\n      tag_50\n      jump\t// in\n    tag_101:\n      tag_102\n      jump\t// in\n        /* \"Ethereum/Presale.sol\":7214:7325  function getBalance(address _address) external view returns(uint256) {\r... */\n    tag_20:\n      callvalue\n      dup1\n      iszero\n      tag_103\n      jumpi\n      0x00\n      dup1\n      revert\n    tag_103:\n      pop\n      tag_35\n      tag_105\n      calldatasize\n      0x04\n      tag_50\n      jump\t// in\n    tag_105:\n      sub(shl(0xa0, 0x01), 0x01)\n        /* \"Ethereum/Presale.sol\":7301:7317  _address.balance */\n      and\n      balance\n      swap1\n        /* \"Ethereum/Presale.sol\":7214:7325  function getBalance(address _address) external view returns(uint256) {\r... */\n      jump\n        /* \"Ethereum/Presale.sol\":3535:3872  function status() public view returns(uint256) {\r... */\n    tag_41:\n        /* \"Ethereum/Presale.sol\":3614:3633  saleInfor.startSale */\n      sload(0x11)\n        /* \"Ethereum/Presale.sol\":3573:3580  uint256 */\n      0x00\n      swap1\n        /* \"Ethereum/Presale.sol\":3596:3611  block.timestamp */\n      timestamp\n        /* \"Ethereum/Presale.sol\":3596:3633  block.timestamp < saleInfor.startSale */\n      lt\n        /* \"Ethereum/Presale.sol\":3593:3865  if(block.timestamp < saleInfor.startSale) {\r... */\n      iszero\n      tag_110\n      jumpi\n      pop\n        /* \"Ethereum/Presale.sol\":3657:3658  0 */\n      0x00\n      swap1\n        /* \"Ethereum/Presale.sol\":3535:3872  function status() public view returns(uint256) {\r... */\n      jump\t// out\n        /* \"Ethereum/Presale.sol\":3593:3865  if(block.timestamp < saleInfor.startSale) {\r... */\n    tag_110:\n        /* \"Ethereum/Presale.sol\":3724:3741  saleInfor.endSale */\n      sload(0x12)\n        /* \"Ethereum/Presale.sol\":3706:3721  block.timestamp */\n      timestamp\n        /* \"Ethereum/Presale.sol\":3706:3741  block.timestamp > saleInfor.endSale */\n      gt\n        /* \"Ethereum/Presale.sol\":3703:3854  if(block.timestamp > saleInfor.endSale) {\r... */\n      iszero\n      tag_112\n      jumpi\n      pop\n        /* \"Ethereum/Presale.sol\":3769:3770  2 */\n      0x02\n      swap1\n        /* \"Ethereum/Presale.sol\":3535:3872  function status() public view returns(uint256) {\r... */\n      jump\t// out\n        /* \"Ethereum/Presale.sol\":3703:3854  if(block.timestamp > saleInfor.endSale) {\r... */\n    tag_112:\n      pop\n        /* \"Ethereum/Presale.sol\":3827:3828  1 */\n      0x01\n      swap1\n        /* \"Ethereum/Presale.sol\":3535:3872  function status() public view returns(uint256) {\r... */\n      jump\t// out\n        /* \"Utils/Ownable.sol\":1714:1817  function renounceOwnership() public virtual onlyOwner {\r... */\n    tag_55:\n        /* \"Utils/Ownable.sol\":1136:1142  _owner */\n      and(sub(shl(0xa0, 0x01), 0x01), sload(0x01))\n        /* \"Utils/Context.sol\":736:746  msg.sender */\n      caller\n        /* \"Utils/Ownable.sol\":1283:1306  owner() == _msgSender() */\n      eq\n        /* \"Utils/Ownable.sol\":1275:1343  require(owner() == _msgSender(), \"Ownable: caller is not the owner\") */\n      tag_118\n      jumpi\n      mload(0x40)\n      shl(0xe5, 0x461bcd)\n      dup2\n      mstore\n        /* \"#utility.yul\":7326:7328   */\n      0x20\n        /* \"Utils/Ownable.sol\":1275:1343  require(owner() == _msgSender(), \"Ownable: caller is not the owner\") */\n      0x04\n      dup3\n      add\n        /* \"#utility.yul\":7308:7329   */\n      dup2\n      swap1\n      mstore\n        /* \"#utility.yul\":7345:7363   */\n      0x24\n      dup3\n      add\n        /* \"#utility.yul\":7338:7368   */\n      mstore\n        /* \"#utility.yul\":7404:7438   */\n      0x4f776e61626c653a2063616c6c6572206973206e6f7420746865206f776e6572\n        /* \"#utility.yul\":7384:7402   */\n      0x44\n      dup3\n      add\n        /* \"#utility.yul\":7377:7439   */\n      mstore\n        /* \"#utility.yul\":7456:7474   */\n      0x64\n      add\n        /* \"Utils/Ownable.sol\":1275:1343  require(owner() == _msgSender(), \"Ownable: caller is not the owner\") */\n    tag_119:\n      mload(0x40)\n      dup1\n      swap2\n      sub\n      swap1\n      revert\n    tag_118:\n        /* \"Utils/Ownable.sol\":1779:1809  _transferOwnership(address(0)) */\n      tag_122\n        /* \"Utils/Ownable.sol\":1806:1807  0 */\n      0x00\n        /* \"Utils/Ownable.sol\":1779:1797  _transferOwnership */\n      tag_123\n        /* \"Utils/Ownable.sol\":1779:1809  _transferOwnership(address(0)) */\n      jump\t// in\n    tag_122:\n        /* \"Utils/Ownable.sol\":1714:1817  function renounceOwnership() public virtual onlyOwner {\r... */\n      jump\t// out\n        /* \"Ethereum/Presale.sol\":7336:7444  function backToken() external payable {\r... */\n    tag_57:\n        /* \"Ethereum/Presale.sol\":7385:7436  payable(msg.sender).transfer(address(this).balance) */\n      mload(0x40)\n        /* \"Ethereum/Presale.sol\":7393:7403  msg.sender */\n      caller\n      swap1\n        /* \"Ethereum/Presale.sol\":7414:7435  address(this).balance */\n      selfbalance\n        /* \"Ethereum/Presale.sol\":7385:7436  payable(msg.sender).transfer(address(this).balance) */\n      dup1\n      iszero\n      0x08fc\n      mul\n      swap2\n      0x00\n      dup2\n      dup2\n      dup2\n        /* \"Ethereum/Presale.sol\":7414:7435  address(this).balance */\n      dup6\n        /* \"Ethereum/Presale.sol\":7393:7403  msg.sender */\n      dup9\n        /* \"Ethereum/Presale.sol\":7385:7436  payable(msg.sender).transfer(address(this).balance) */\n      dup9\n      call\n      swap4\n      pop\n      pop\n      pop\n      pop\n      iszero\n      dup1\n      iszero\n      tag_126\n      jumpi\n      returndatasize\n      0x00\n      dup1\n      returndatacopy\n      revert(0x00, returndatasize)\n    tag_126:\n      pop\n        /* \"Ethereum/Presale.sol\":7336:7444  function backToken() external payable {\r... */\n      jump\t// out\n        /* \"Ethereum/Presale.sol\":2336:3526  function initialSaleInfor(\r... */\n    tag_67:\n        /* \"Ethereum/Presale.sol\":2517:2526  saleInfor */\n      0x0d\n        /* \"Ethereum/Presale.sol\":2517:2555  saleInfor.presaleOwner = _presaleOwner */\n      dup1\n      sload\n      sub(shl(0xa0, 0x01), 0x01)\n      dup1\n      dup8\n      and\n      not(sub(shl(0xa0, 0x01), 0x01))\n      swap3\n      dup4\n      and\n      or\n      swap1\n      swap3\n      sstore\n        /* \"Ethereum/Presale.sol\":2566:2585  saleInfor.saleToken */\n      0x0e\n        /* \"Ethereum/Presale.sol\":2566:2598  saleInfor.saleToken = _saleToken */\n      dup1\n      sload\n      dup7\n      dup5\n      and\n      swap1\n      dup4\n      and\n      dup2\n      or\n      swap1\n      swap2\n      sstore\n        /* \"Ethereum/Presale.sol\":2609:2628  saleInfor.baseToken */\n      0x0f\n        /* \"Ethereum/Presale.sol\":2609:2641  saleInfor.baseToken = _baseTOken */\n      dup1\n      sload\n      swap4\n      dup7\n      and\n      swap4\n      swap1\n      swap3\n      and\n      swap3\n      swap1\n      swap3\n      or\n      swap1\n      sstore\n        /* \"Ethereum/Presale.sol\":2699:2736  ERC20(saleInfor.saleToken).decimals() */\n      0x40\n      dup1\n      mload\n      shl(0xe0, 0x313ce567)\n      dup2\n      mstore\n      swap1\n      mload\n        /* \"Ethereum/Presale.sol\":2699:2734  ERC20(saleInfor.saleToken).decimals */\n      0x313ce567\n      swap2\n        /* \"Ethereum/Presale.sol\":2699:2736  ERC20(saleInfor.saleToken).decimals() */\n      0x04\n      dup1\n      dup3\n      add\n      swap3\n      0x20\n      swap3\n      swap1\n      swap2\n      swap1\n      dup3\n      swap1\n      sub\n      add\n      dup2\n        /* \"Ethereum/Presale.sol\":2566:2598  saleInfor.saleToken = _saleToken */\n      dup7\n        /* \"Ethereum/Presale.sol\":2699:2736  ERC20(saleInfor.saleToken).decimals() */\n      dup1\n      extcodesize\n      iszero\n      dup1\n      iszero\n      tag_129\n      jumpi\n      0x00\n      dup1\n      revert\n    tag_129:\n      pop\n      gas\n      staticcall\n      iszero\n      dup1\n      iszero\n      tag_131\n      jumpi\n      returndatasize\n      0x00\n      dup1\n      returndatacopy\n      revert(0x00, returndatasize)\n    tag_131:\n      pop\n      pop\n      pop\n      pop\n      mload(0x40)\n      returndatasize\n      not(0x1f)\n      0x1f\n      dup3\n      add\n      and\n      dup3\n      add\n      dup1\n      0x40\n      mstore\n      pop\n      dup2\n      add\n      swap1\n      tag_132\n      swap2\n      swap1\n      tag_133\n      jump\t// in\n    tag_132:\n        /* \"Ethereum/Presale.sol\":2686:2737  10** uint256(ERC20(saleInfor.saleToken).decimals()) */\n      tag_134\n      swap1\n        /* \"Ethereum/Presale.sol\":2686:2688  10 */\n      0x0a\n        /* \"Ethereum/Presale.sol\":2686:2737  10** uint256(ERC20(saleInfor.saleToken).decimals()) */\n      tag_135\n      jump\t// in\n    tag_134:\n        /* \"Ethereum/Presale.sol\":2675:2683  datas[0] */\n      dup2\n      mload\n        /* \"Ethereum/Presale.sol\":2675:2737  datas[0] * 10** uint256(ERC20(saleInfor.saleToken).decimals()) */\n      tag_139\n      swap2\n      swap1\n      tag_140\n      jump\t// in\n    tag_139:\n        /* \"Ethereum/Presale.sol\":2652:2672  saleInfor.tokenPrice */\n      0x10\n        /* \"Ethereum/Presale.sol\":2652:2737  saleInfor.tokenPrice = datas[0] * 10** uint256(ERC20(saleInfor.saleToken).decimals()) */\n      sstore\n        /* \"Ethereum/Presale.sol\":2770:2778  datas[1] */\n      0x20\n      dup1\n      dup3\n      add\n      mload\n        /* \"Ethereum/Presale.sol\":2748:2767  saleInfor.startSale */\n      0x11\n        /* \"Ethereum/Presale.sol\":2748:2778  saleInfor.startSale = datas[1] */\n      sstore\n        /* \"Ethereum/Presale.sol\":2809:2817  datas[2] */\n      0x40\n      dup1\n      dup4\n      add\n      mload\n        /* \"Ethereum/Presale.sol\":2789:2806  saleInfor.endSale */\n      0x12\n        /* \"Ethereum/Presale.sol\":2789:2817  saleInfor.endSale = datas[2] */\n      sstore\n        /* \"Ethereum/Presale.sol\":2857:2865  datas[3] */\n      0x60\n      dup4\n      add\n      mload\n        /* \"Ethereum/Presale.sol\":2828:2854  saleInfor.minSpendPerBuyer */\n      0x13\n        /* \"Ethereum/Presale.sol\":2828:2865  saleInfor.minSpendPerBuyer = datas[3] */\n      sstore\n        /* \"Ethereum/Presale.sol\":2936:2955  saleInfor.baseToken */\n      sload(0x0f)\n        /* \"Ethereum/Presale.sol\":2930:2967  ERC20(saleInfor.baseToken).decimals() */\n      dup2\n      mload\n      shl(0xe0, 0x313ce567)\n      dup2\n      mstore\n      swap2\n      mload\n      sub(shl(0xa0, 0x01), 0x01)\n        /* \"Ethereum/Presale.sol\":2936:2955  saleInfor.baseToken */\n      swap1\n      swap2\n      and\n      swap3\n        /* \"Ethereum/Presale.sol\":2930:2965  ERC20(saleInfor.baseToken).decimals */\n      0x313ce567\n      swap3\n        /* \"Ethereum/Presale.sol\":2930:2967  ERC20(saleInfor.baseToken).decimals() */\n      0x04\n      dup1\n      dup3\n      add\n      swap4\n      swap2\n      dup3\n      swap1\n      sub\n      add\n      dup2\n        /* \"Ethereum/Presale.sol\":2936:2955  saleInfor.baseToken */\n      dup7\n        /* \"Ethereum/Presale.sol\":2930:2967  ERC20(saleInfor.baseToken).decimals() */\n      dup1\n      extcodesize\n      iszero\n      dup1\n      iszero\n      tag_147\n      jumpi\n      0x00\n      dup1\n      revert\n    tag_147:\n      pop\n      gas\n      staticcall\n      iszero\n      dup1\n      iszero\n      tag_149\n      jumpi\n      returndatasize\n      0x00\n      dup1\n      returndatacopy\n      revert(0x00, returndatasize)\n    tag_149:\n      pop\n      pop\n      pop\n      pop\n      mload(0x40)\n      returndatasize\n      not(0x1f)\n      0x1f\n      dup3\n      add\n      and\n      dup3\n      add\n      dup1\n      0x40\n      mstore\n      pop\n      dup2\n      add\n      swap1\n      tag_150\n      swap2\n      swap1\n      tag_133\n      jump\t// in\n    tag_150:\n        /* \"Ethereum/Presale.sol\":2916:2968  10 ** uint256(ERC20(saleInfor.baseToken).decimals()) */\n      tag_151\n      swap1\n        /* \"Ethereum/Presale.sol\":2916:2918  10 */\n      0x0a\n        /* \"Ethereum/Presale.sol\":2916:2968  10 ** uint256(ERC20(saleInfor.baseToken).decimals()) */\n      tag_135\n      jump\t// in\n    tag_151:\n        /* \"Ethereum/Presale.sol\":2905:2913  datas[4] */\n      0x80\n      dup3\n      add\n      mload\n        /* \"Ethereum/Presale.sol\":2905:2968  datas[4] * 10 ** uint256(ERC20(saleInfor.baseToken).decimals()) */\n      tag_154\n      swap2\n      swap1\n      tag_140\n      jump\t// in\n    tag_154:\n        /* \"Ethereum/Presale.sol\":2876:2902  saleInfor.maxSpendPerBuyer */\n      0x14\n        /* \"Ethereum/Presale.sol\":2876:2968  saleInfor.maxSpendPerBuyer = datas[4] * 10 ** uint256(ERC20(saleInfor.baseToken).decimals()) */\n      sstore\n        /* \"Ethereum/Presale.sol\":3001:3009  datas[5] */\n      0xa0\n      dup2\n      add\n      mload\n        /* \"Ethereum/Presale.sol\":2979:2998  saleInfor.refundFee */\n      0x15\n        /* \"Ethereum/Presale.sol\":2979:3009  saleInfor.refundFee = datas[5] */\n      sstore\n        /* \"Ethereum/Presale.sol\":3041:3049  datas[6] */\n      0xc0\n      dup2\n      add\n      mload\n        /* \"Ethereum/Presale.sol\":3020:3038  saleInfor.claimFee */\n      0x16\n        /* \"Ethereum/Presale.sol\":3020:3049  saleInfor.claimFee = datas[6] */\n      sstore\n        /* \"Ethereum/Presale.sol\":3117:3136  saleInfor.baseToken */\n      sload(0x0f)\n        /* \"Ethereum/Presale.sol\":3111:3148  ERC20(saleInfor.baseToken).decimals() */\n      0x40\n      dup1\n      mload\n      shl(0xe0, 0x313ce567)\n      dup2\n      mstore\n      swap1\n      mload\n      sub(shl(0xa0, 0x01), 0x01)\n        /* \"Ethereum/Presale.sol\":3117:3136  saleInfor.baseToken */\n      swap1\n      swap3\n      and\n      swap2\n        /* \"Ethereum/Presale.sol\":3111:3146  ERC20(saleInfor.baseToken).decimals */\n      0x313ce567\n      swap2\n        /* \"Ethereum/Presale.sol\":3111:3148  ERC20(saleInfor.baseToken).decimals() */\n      0x04\n      dup1\n      dup3\n      add\n      swap3\n        /* \"Ethereum/Presale.sol\":3001:3009  datas[5] */\n      0x20\n      swap3\n        /* \"Ethereum/Presale.sol\":3111:3148  ERC20(saleInfor.baseToken).decimals() */\n      swap1\n      swap2\n      swap1\n      dup3\n      swap1\n      sub\n      add\n      dup2\n        /* \"Ethereum/Presale.sol\":3117:3136  saleInfor.baseToken */\n      dup7\n        /* \"Ethereum/Presale.sol\":3111:3148  ERC20(saleInfor.baseToken).decimals() */\n      dup1\n      extcodesize\n      iszero\n      dup1\n      iszero\n      tag_159\n      jumpi\n      0x00\n      dup1\n      revert\n    tag_159:\n      pop\n      gas\n      staticcall\n      iszero\n      dup1\n      iszero\n      tag_161\n      jumpi\n      returndatasize\n      0x00\n      dup1\n      returndatacopy\n      revert(0x00, returndatasize)\n    tag_161:\n      pop\n      pop\n      pop\n      pop\n      mload(0x40)\n      returndatasize\n      not(0x1f)\n      0x1f\n      dup3\n      add\n      and\n      dup3\n      add\n      dup1\n      0x40\n      mstore\n      pop\n      dup2\n      add\n      swap1\n      tag_162\n      swap2\n      swap1\n      tag_133\n      jump\t// in\n    tag_162:\n        /* \"Ethereum/Presale.sol\":3097:3149  10 ** uint256(ERC20(saleInfor.baseToken).decimals()) */\n      tag_163\n      swap1\n        /* \"Ethereum/Presale.sol\":3097:3099  10 */\n      0x0a\n        /* \"Ethereum/Presale.sol\":3097:3149  10 ** uint256(ERC20(saleInfor.baseToken).decimals()) */\n      tag_135\n      jump\t// in\n    tag_163:\n        /* \"Ethereum/Presale.sol\":3086:3094  datas[7] */\n      0xe0\n      dup3\n      add\n      mload\n        /* \"Ethereum/Presale.sol\":3086:3149  datas[7] * 10 ** uint256(ERC20(saleInfor.baseToken).decimals()) */\n      tag_166\n      swap2\n      swap1\n      tag_140\n      jump\t// in\n    tag_166:\n        /* \"Ethereum/Presale.sol\":3060:3075  saleTotalSupply */\n      0x0b\n        /* \"Ethereum/Presale.sol\":3060:3149  saleTotalSupply.hardCap = datas[7] * 10 ** uint256(ERC20(saleInfor.baseToken).decimals()) */\n      sstore\n        /* \"Ethereum/Presale.sol\":3216:3235  saleInfor.baseToken */\n      sload(0x0f)\n        /* \"Ethereum/Presale.sol\":3210:3247  ERC20(saleInfor.baseToken).decimals() */\n      0x40\n      dup1\n      mload\n      shl(0xe0, 0x313ce567)\n      dup2\n      mstore\n      swap1\n      mload\n      sub(shl(0xa0, 0x01), 0x01)\n        /* \"Ethereum/Presale.sol\":3216:3235  saleInfor.baseToken */\n      swap1\n      swap3\n      and\n      swap2\n        /* \"Ethereum/Presale.sol\":3210:3245  ERC20(saleInfor.baseToken).decimals */\n      0x313ce567\n      swap2\n        /* \"Ethereum/Presale.sol\":3210:3247  ERC20(saleInfor.baseToken).decimals() */\n      0x04\n      dup1\n      dup3\n      add\n      swap3\n      0x20\n      swap3\n      swap1\n      swap2\n      swap1\n      dup3\n      swap1\n      sub\n      add\n      dup2\n        /* \"Ethereum/Presale.sol\":3216:3235  saleInfor.baseToken */\n      dup7\n        /* \"Ethereum/Presale.sol\":3210:3247  ERC20(saleInfor.baseToken).decimals() */\n      dup1\n      extcodesize\n      iszero\n      dup1\n      iszero\n      tag_167\n      jumpi\n      0x00\n      dup1\n      revert\n    tag_167:\n      pop\n      gas\n      staticcall\n      iszero\n      dup1\n      iszero\n      tag_169\n      jumpi\n      returndatasize\n      0x00\n      dup1\n      returndatacopy\n      revert(0x00, returndatasize)\n    tag_169:\n      pop\n      pop\n      pop\n      pop\n      mload(0x40)\n      returndatasize\n      not(0x1f)\n      0x1f\n      dup3\n      add\n      and\n      dup3\n      add\n      dup1\n      0x40\n      mstore\n      pop\n      dup2\n      add\n      swap1\n      tag_170\n      swap2\n      swap1\n      tag_133\n      jump\t// in\n    tag_170:\n        /* \"Ethereum/Presale.sol\":3197:3248  10** uint256(ERC20(saleInfor.baseToken).decimals()) */\n      tag_171\n      swap1\n        /* \"Ethereum/Presale.sol\":3197:3199  10 */\n      0x0a\n        /* \"Ethereum/Presale.sol\":3197:3248  10** uint256(ERC20(saleInfor.baseToken).decimals()) */\n      tag_135\n      jump\t// in\n    tag_171:\n        /* \"Ethereum/Presale.sol\":3186:3194  datas[8] */\n      0x0100\n      dup3\n      add\n      mload\n        /* \"Ethereum/Presale.sol\":3186:3248  datas[8] * 10** uint256(ERC20(saleInfor.baseToken).decimals()) */\n      tag_174\n      swap2\n      swap1\n      tag_140\n      jump\t// in\n    tag_174:\n        /* \"Ethereum/Presale.sol\":3160:3183  saleTotalSupply.softCap */\n      0x0c\n        /* \"Ethereum/Presale.sol\":3160:3248  saleTotalSupply.softCap = datas[8] * 10** uint256(ERC20(saleInfor.baseToken).decimals()) */\n      sstore\n        /* \"Ethereum/Presale.sol\":3312:3331  saleInfor.baseToken */\n      sload(0x0f)\n        /* \"Ethereum/Presale.sol\":3295:3299  WETH */\n      sload(0x19)\n        /* \"Ethereum/Presale.sol\":3259:3284  saleInfor.saleIsBaseToken */\n      0x17\n        /* \"Ethereum/Presale.sol\":3259:3332  saleInfor.saleIsBaseToken = address(WETH) == address(saleInfor.baseToken) */\n      dup1\n      sload\n      not(0xff)\n      and\n      sub(shl(0xa0, 0x01), 0x01)\n        /* \"Ethereum/Presale.sol\":3295:3299  WETH */\n      swap3\n      dup4\n      and\n        /* \"Ethereum/Presale.sol\":3312:3331  saleInfor.baseToken */\n      swap3\n      swap1\n      swap4\n      and\n        /* \"Ethereum/Presale.sol\":3287:3332  address(WETH) == address(saleInfor.baseToken) */\n      swap2\n      dup3\n      eq\n        /* \"Ethereum/Presale.sol\":3259:3332  saleInfor.saleIsBaseToken = address(WETH) == address(saleInfor.baseToken) */\n      swap3\n      swap1\n      swap3\n      or\n      swap1\n      swap2\n      sstore\n        /* \"Ethereum/Presale.sol\":3479:3516  ERC20(saleInfor.baseToken).decimals() */\n      0x40\n      dup1\n      mload\n      shl(0xe0, 0x313ce567)\n      dup2\n      mstore\n      swap1\n      mload\n        /* \"Ethereum/Presale.sol\":3479:3514  ERC20(saleInfor.baseToken).decimals */\n      0x313ce567\n      swap2\n        /* \"Ethereum/Presale.sol\":3479:3516  ERC20(saleInfor.baseToken).decimals() */\n      0x04\n      dup1\n      dup3\n      add\n      swap3\n      0x20\n      swap3\n      swap1\n      swap2\n      swap1\n      dup3\n      swap1\n      sub\n      add\n      dup2\n        /* \"Ethereum/Presale.sol\":3312:3331  saleInfor.baseToken */\n      dup7\n        /* \"Ethereum/Presale.sol\":3479:3516  ERC20(saleInfor.baseToken).decimals() */\n      dup1\n      extcodesize\n      iszero\n      dup1\n      iszero\n      tag_175\n      jumpi\n      0x00\n      dup1\n      revert\n    tag_175:\n      pop\n      gas\n      staticcall\n      iszero\n      dup1\n      iszero\n      tag_177\n      jumpi\n      returndatasize\n      0x00\n      dup1\n      returndatacopy\n      revert(0x00, returndatasize)\n    tag_177:\n      pop\n      pop\n      pop\n      pop\n      mload(0x40)\n      returndatasize\n      not(0x1f)\n      0x1f\n      dup3\n      add\n      and\n      dup3\n      add\n      dup1\n      0x40\n      mstore\n      pop\n      dup2\n      add\n      swap1\n      tag_178\n      swap2\n      swap1\n      tag_133\n      jump\t// in\n    tag_178:\n        /* \"Ethereum/Presale.sol\":3466:3517  10** uint256(ERC20(saleInfor.baseToken).decimals()) */\n      tag_179\n      swap1\n        /* \"Ethereum/Presale.sol\":3466:3468  10 */\n      0x0a\n        /* \"Ethereum/Presale.sol\":3466:3517  10** uint256(ERC20(saleInfor.baseToken).decimals()) */\n      tag_135\n      jump\t// in\n    tag_179:\n        /* \"Ethereum/Presale.sol\":3399:3414  saleTotalSupply */\n      0x0b\n        /* \"Ethereum/Presale.sol\":3399:3422  saleTotalSupply.hardCap */\n      sload\n        /* \"Ethereum/Presale.sol\":3374:3394  saleInfor.tokenPrice */\n      sload(0x10)\n        /* \"Ethereum/Presale.sol\":3374:3423  saleInfor.tokenPrice.mul(saleTotalSupply.hardCap) */\n      tag_180\n      swap2\n        /* \"Ethereum/Presale.sol\":3374:3398  saleInfor.tokenPrice.mul */\n      tag_181\n        /* \"Ethereum/Presale.sol\":3374:3423  saleInfor.tokenPrice.mul(saleTotalSupply.hardCap) */\n      jump\t// in\n    tag_180:\n        /* \"Ethereum/Presale.sol\":3374:3518  saleInfor.tokenPrice.mul(saleTotalSupply.hardCap)/\r... */\n      tag_182\n      swap2\n      swap1\n      tag_183\n      jump\t// in\n    tag_182:\n        /* \"Ethereum/Presale.sol\":3343:3371  saleInfor.amountTokenForSale */\n      0x18\n        /* \"Ethereum/Presale.sol\":3343:3518  saleInfor.amountTokenForSale = saleInfor.tokenPrice.mul(saleTotalSupply.hardCap)/\r... */\n      sstore\n      pop\n      pop\n      pop\n      pop\n        /* \"Ethereum/Presale.sol\":2336:3526  function initialSaleInfor(\r... */\n      jump\t// out\n        /* \"Ethereum/Presale.sol\":6949:7206  function userRefundEmergency() external nonReentrant {\r... */\n    tag_70:\n        /* \"Utils/ReentrancyGuard.sol\":1778:1779  2 */\n      0x02\n        /* \"Utils/ReentrancyGuard.sol\":2376:2383  _status */\n      sload(0x00)\n        /* \"Utils/ReentrancyGuard.sol\":2376:2395  _status != _ENTERED */\n      eq\n      iszero\n        /* \"Utils/ReentrancyGuard.sol\":2368:2431  require(_status != _ENTERED, \"ReentrancyGuard: reentrant call\") */\n      tag_185\n      jumpi\n      mload(0x40)\n      shl(0xe5, 0x461bcd)\n      dup2\n      mstore\n      0x04\n      add\n      tag_119\n      swap1\n      tag_187\n      jump\t// in\n    tag_185:\n        /* \"Utils/ReentrancyGuard.sol\":1778:1779  2 */\n      0x02\n        /* \"Utils/ReentrancyGuard.sol\":2509:2516  _status */\n      0x00\n        /* \"Utils/ReentrancyGuard.sol\":2509:2527  _status = _ENTERED */\n      sstore\n        /* \"Ethereum/Presale.sol\":7020:7028  status() */\n      tag_189\n        /* \"Ethereum/Presale.sol\":7020:7026  status */\n      tag_41\n        /* \"Ethereum/Presale.sol\":7020:7028  status() */\n      jump\t// in\n    tag_189:\n        /* \"Ethereum/Presale.sol\":7032:7033  1 */\n      0x01\n        /* \"Ethereum/Presale.sol\":7020:7033  status() == 1 */\n      eq\n        /* \"Ethereum/Presale.sol\":7012:7050  require(status() == 1, \"Sale sucesss\") */\n      tag_190\n      jumpi\n      mload(0x40)\n      shl(0xe5, 0x461bcd)\n      dup2\n      mstore\n        /* \"#utility.yul\":6985:6987   */\n      0x20\n        /* \"Ethereum/Presale.sol\":7012:7050  require(status() == 1, \"Sale sucesss\") */\n      0x04\n      dup3\n      add\n        /* \"#utility.yul\":6967:6988   */\n      mstore\n        /* \"#utility.yul\":7024:7026   */\n      0x0c\n        /* \"#utility.yul\":7004:7022   */\n      0x24\n      dup3\n      add\n        /* \"#utility.yul\":6997:7027   */\n      mstore\n      shl(0xa0, 0x53616c652073756365737373)\n        /* \"#utility.yul\":7043:7061   */\n      0x44\n      dup3\n      add\n        /* \"#utility.yul\":7036:7078   */\n      mstore\n        /* \"#utility.yul\":7095:7113   */\n      0x64\n      add\n        /* \"Ethereum/Presale.sol\":7012:7050  require(status() == 1, \"Sale sucesss\") */\n      tag_119\n        /* \"#utility.yul\":6957:7119   */\n      jump\n        /* \"Ethereum/Presale.sol\":7012:7050  require(status() == 1, \"Sale sucesss\") */\n    tag_190:\n        /* \"Ethereum/Presale.sol\":7103:7134  presaleStatus.totalBaseWithDraw */\n      sload(0x07)\n        /* \"Ethereum/Presale.sol\":7103:7116  presaleStatus */\n      0x04\n        /* \"Ethereum/Presale.sol\":7068:7100  presaleStatus.totalBaseCollected */\n      sload\n        /* \"Ethereum/Presale.sol\":7137:7138  0 */\n      0x00\n      swap2\n        /* \"Ethereum/Presale.sol\":7068:7134  presaleStatus.totalBaseCollected - presaleStatus.totalBaseWithDraw */\n      tag_193\n      swap2\n      tag_194\n      jump\t// in\n    tag_193:\n        /* \"Ethereum/Presale.sol\":7068:7138  presaleStatus.totalBaseCollected - presaleStatus.totalBaseWithDraw > 0 */\n      gt\n        /* \"Ethereum/Presale.sol\":7060:7197  require(presaleStatus.totalBaseCollected - presaleStatus.totalBaseWithDraw > 0, \r... */\n      tag_195\n      jumpi\n      mload(0x40)\n      shl(0xe5, 0x461bcd)\n      dup2\n      mstore\n        /* \"#utility.yul\":5195:5197   */\n      0x20\n        /* \"Ethereum/Presale.sol\":7060:7197  require(presaleStatus.totalBaseCollected - presaleStatus.totalBaseWithDraw > 0, \r... */\n      0x04\n      dup3\n      add\n        /* \"#utility.yul\":5177:5198   */\n      mstore\n        /* \"#utility.yul\":5234:5236   */\n      0x1b\n        /* \"#utility.yul\":5214:5232   */\n      0x24\n      dup3\n      add\n        /* \"#utility.yul\":5207:5237   */\n      mstore\n        /* \"#utility.yul\":5273:5302   */\n      0x416c6c20746f6b656e20686173206265656e2077697468647261770000000000\n        /* \"#utility.yul\":5253:5271   */\n      0x44\n      dup3\n      add\n        /* \"#utility.yul\":5246:5303   */\n      mstore\n        /* \"#utility.yul\":5320:5338   */\n      0x64\n      add\n        /* \"Ethereum/Presale.sol\":7060:7197  require(presaleStatus.totalBaseCollected - presaleStatus.totalBaseWithDraw > 0, \r... */\n      tag_119\n        /* \"#utility.yul\":5167:5344   */\n      jump\n        /* \"Ethereum/Presale.sol\":7060:7197  require(presaleStatus.totalBaseCollected - presaleStatus.totalBaseWithDraw > 0, \r... */\n    tag_195:\n        /* \"Utils/ReentrancyGuard.sol\":1734:1735  1 */\n      0x01\n        /* \"Utils/ReentrancyGuard.sol\":2688:2695  _status */\n      0x00\n        /* \"Utils/ReentrancyGuard.sol\":2688:2710  _status = _NOT_ENTERED */\n      sstore\n        /* \"Ethereum/Presale.sol\":6949:7206  function userRefundEmergency() external nonReentrant {\r... */\n      jump\t// out\n        /* \"Ethereum/Presale.sol\":6133:6941  function userClaimEmergency() external nonReentrant {\r... */\n    tag_73:\n        /* \"Utils/ReentrancyGuard.sol\":1778:1779  2 */\n      0x02\n        /* \"Utils/ReentrancyGuard.sol\":2376:2383  _status */\n      sload(0x00)\n        /* \"Utils/ReentrancyGuard.sol\":2376:2395  _status != _ENTERED */\n      eq\n      iszero\n        /* \"Utils/ReentrancyGuard.sol\":2368:2431  require(_status != _ENTERED, \"ReentrancyGuard: reentrant call\") */\n      tag_199\n      jumpi\n      mload(0x40)\n      shl(0xe5, 0x461bcd)\n      dup2\n      mstore\n      0x04\n      add\n      tag_119\n      swap1\n      tag_187\n      jump\t// in\n    tag_199:\n        /* \"Utils/ReentrancyGuard.sol\":1778:1779  2 */\n      0x02\n        /* \"Utils/ReentrancyGuard.sol\":2509:2516  _status */\n      0x00\n        /* \"Utils/ReentrancyGuard.sol\":2509:2527  _status = _ENTERED */\n      sstore\n        /* \"Ethereum/Presale.sol\":6204:6212  status() */\n      tag_202\n        /* \"Ethereum/Presale.sol\":6204:6210  status */\n      tag_41\n        /* \"Ethereum/Presale.sol\":6204:6212  status() */\n      jump\t// in\n    tag_202:\n        /* \"Ethereum/Presale.sol\":6216:6217  1 */\n      0x01\n        /* \"Ethereum/Presale.sol\":6204:6217  status() == 1 */\n      eq\n        /* \"Ethereum/Presale.sol\":6196:6234  require(status() == 1, \"Sale sucesss\") */\n      tag_203\n      jumpi\n      mload(0x40)\n      shl(0xe5, 0x461bcd)\n      dup2\n      mstore\n        /* \"#utility.yul\":6985:6987   */\n      0x20\n        /* \"Ethereum/Presale.sol\":6196:6234  require(status() == 1, \"Sale sucesss\") */\n      0x04\n      dup3\n      add\n        /* \"#utility.yul\":6967:6988   */\n      mstore\n        /* \"#utility.yul\":7024:7026   */\n      0x0c\n        /* \"#utility.yul\":7004:7022   */\n      0x24\n      dup3\n      add\n        /* \"#utility.yul\":6997:7027   */\n      mstore\n      shl(0xa0, 0x53616c652073756365737373)\n        /* \"#utility.yul\":7043:7061   */\n      0x44\n      dup3\n      add\n        /* \"#utility.yul\":7036:7078   */\n      mstore\n        /* \"#utility.yul\":7095:7113   */\n      0x64\n      add\n        /* \"Ethereum/Presale.sol\":6196:6234  require(status() == 1, \"Sale sucesss\") */\n      tag_119\n        /* \"#utility.yul\":6957:7119   */\n      jump\n        /* \"Ethereum/Presale.sol\":6196:6234  require(status() == 1, \"Sale sucesss\") */\n    tag_203:\n        /* \"Ethereum/Presale.sol\":6285:6317  presaleStatus.totalTokenWithDraw */\n      sload(0x06)\n        /* \"Ethereum/Presale.sol\":6254:6282  presaleStatus.totalTokenSold */\n      sload(0x05)\n        /* \"Ethereum/Presale.sol\":6320:6321  0 */\n      0x00\n      swap2\n        /* \"Ethereum/Presale.sol\":6254:6317  presaleStatus.totalTokenSold - presaleStatus.totalTokenWithDraw */\n      tag_205\n      swap2\n      tag_194\n      jump\t// in\n    tag_205:\n        /* \"Ethereum/Presale.sol\":6254:6321  presaleStatus.totalTokenSold - presaleStatus.totalTokenWithDraw > 0 */\n      gt\n        /* \"Ethereum/Presale.sol\":6246:6380  require(presaleStatus.totalTokenSold - presaleStatus.totalTokenWithDraw > 0, \r... */\n      tag_206\n      jumpi\n      mload(0x40)\n      shl(0xe5, 0x461bcd)\n      dup2\n      mstore\n        /* \"#utility.yul\":5195:5197   */\n      0x20\n        /* \"Ethereum/Presale.sol\":6246:6380  require(presaleStatus.totalTokenSold - presaleStatus.totalTokenWithDraw > 0, \r... */\n      0x04\n      dup3\n      add\n        /* \"#utility.yul\":5177:5198   */\n      mstore\n        /* \"#utility.yul\":5234:5236   */\n      0x1b\n        /* \"#utility.yul\":5214:5232   */\n      0x24\n      dup3\n      add\n        /* \"#utility.yul\":5207:5237   */\n      mstore\n        /* \"#utility.yul\":5273:5302   */\n      0x416c6c20746f6b656e20686173206265656e2077697468647261770000000000\n        /* \"#utility.yul\":5253:5271   */\n      0x44\n      dup3\n      add\n        /* \"#utility.yul\":5246:5303   */\n      mstore\n        /* \"#utility.yul\":5320:5338   */\n      0x64\n      add\n        /* \"Ethereum/Presale.sol\":6246:6380  require(presaleStatus.totalTokenSold - presaleStatus.totalTokenWithDraw > 0, \r... */\n      tag_119\n        /* \"#utility.yul\":5167:5344   */\n      jump\n        /* \"Ethereum/Presale.sol\":6246:6380  require(presaleStatus.totalTokenSold - presaleStatus.totalTokenWithDraw > 0, \r... */\n    tag_206:\n        /* \"Ethereum/Presale.sol\":6427:6437  msg.sender */\n      caller\n        /* \"Ethereum/Presale.sol\":6391:6414  BuyerInfo storage buyer */\n      0x00\n        /* \"Ethereum/Presale.sol\":6417:6438  buyerInfo[msg.sender] */\n      swap1\n      dup2\n      mstore\n        /* \"Ethereum/Presale.sol\":6417:6426  buyerInfo */\n      0x02\n        /* \"Ethereum/Presale.sol\":6417:6438  buyerInfo[msg.sender] */\n      0x20\n      mstore\n      0x40\n      swap1\n      keccak256\n        /* \"Ethereum/Presale.sol\":6457:6473  buyer.tokenOwner */\n      0x01\n      dup2\n      add\n      sload\n        /* \"Ethereum/Presale.sol\":6449:6521  require(buyer.tokenOwner > 0, \"You withdraw all or have not bought yet\") */\n      tag_208\n      jumpi\n      mload(0x40)\n      shl(0xe5, 0x461bcd)\n      dup2\n      mstore\n        /* \"#utility.yul\":7687:7689   */\n      0x20\n        /* \"Ethereum/Presale.sol\":6449:6521  require(buyer.tokenOwner > 0, \"You withdraw all or have not bought yet\") */\n      0x04\n      dup3\n      add\n        /* \"#utility.yul\":7669:7690   */\n      mstore\n        /* \"#utility.yul\":7726:7728   */\n      0x27\n        /* \"#utility.yul\":7706:7724   */\n      0x24\n      dup3\n      add\n        /* \"#utility.yul\":7699:7729   */\n      mstore\n        /* \"#utility.yul\":7765:7799   */\n      0x596f7520776974686472617720616c6c206f722068617665206e6f7420626f75\n        /* \"#utility.yul\":7745:7763   */\n      0x44\n      dup3\n      add\n        /* \"#utility.yul\":7738:7800   */\n      mstore\n      shl(0xca, 0x19da1d081e595d)\n        /* \"#utility.yul\":7816:7834   */\n      0x64\n      dup3\n      add\n        /* \"#utility.yul\":7809:7846   */\n      mstore\n        /* \"#utility.yul\":7863:7882   */\n      0x84\n      add\n        /* \"Ethereum/Presale.sol\":6449:6521  require(buyer.tokenOwner > 0, \"You withdraw all or have not bought yet\") */\n      tag_119\n        /* \"#utility.yul\":7659:7888   */\n      jump\n        /* \"Ethereum/Presale.sol\":6449:6521  require(buyer.tokenOwner > 0, \"You withdraw all or have not bought yet\") */\n    tag_208:\n        /* \"Ethereum/Presale.sol\":6532:6551  uint256 amountClaim */\n      0x00\n        /* \"Ethereum/Presale.sol\":6554:6690  ((uint256(1000).sub(saleInfor.claimFee))\r... */\n      tag_211\n        /* \"Ethereum/Presale.sol\":6684:6688  1000 */\n      0x03e8\n        /* \"Ethereum/Presale.sol\":6555:6643  (uint256(1000).sub(saleInfor.claimFee))\r... */\n      tag_212\n        /* \"Ethereum/Presale.sol\":6626:6631  buyer */\n      dup5\n        /* \"Ethereum/Presale.sol\":6626:6642  buyer.tokenOwner */\n      0x01\n      add\n      sload\n        /* \"Ethereum/Presale.sol\":6556:6593  uint256(1000).sub(saleInfor.claimFee) */\n      tag_213\n        /* \"Ethereum/Presale.sol\":6574:6583  saleInfor */\n      0x0d\n        /* \"Ethereum/Presale.sol\":6574:6592  saleInfor.claimFee */\n      0x09\n      add\n      sload\n        /* \"Ethereum/Presale.sol\":6564:6568  1000 */\n      0x03e8\n        /* \"Ethereum/Presale.sol\":6556:6573  uint256(1000).sub */\n      tag_214\n      swap1\n        /* \"Ethereum/Presale.sol\":6556:6593  uint256(1000).sub(saleInfor.claimFee) */\n      swap2\n      swap1\n      0xffffffff\n      and\n      jump\t// in\n    tag_213:\n        /* \"Ethereum/Presale.sol\":6555:6625  (uint256(1000).sub(saleInfor.claimFee))\r... */\n      swap1\n      tag_181\n        /* \"Ethereum/Presale.sol\":6555:6643  (uint256(1000).sub(saleInfor.claimFee))\r... */\n      jump\t// in\n    tag_212:\n        /* \"Ethereum/Presale.sol\":6554:6675  ((uint256(1000).sub(saleInfor.claimFee))\r... */\n      swap1\n      tag_215\n        /* \"Ethereum/Presale.sol\":6554:6690  ((uint256(1000).sub(saleInfor.claimFee))\r... */\n      jump\t// in\n    tag_211:\n        /* \"Ethereum/Presale.sol\":6532:6690  uint256 amountClaim = ((uint256(1000).sub(saleInfor.claimFee))\r... */\n      swap1\n      pop\n        /* \"Ethereum/Presale.sol\":6737:6748  amountClaim */\n      dup1\n        /* \"Ethereum/Presale.sol\":6701:6714  presaleStatus */\n      0x04\n        /* \"Ethereum/Presale.sol\":6701:6733  presaleStatus.totalTokenWithDraw */\n      0x02\n      add\n      0x00\n        /* \"Ethereum/Presale.sol\":6701:6748  presaleStatus.totalTokenWithDraw += amountClaim */\n      dup3\n      dup3\n      sload\n      tag_216\n      swap2\n      swap1\n      tag_217\n      jump\t// in\n    tag_216:\n      swap3\n      pop\n      pop\n      dup2\n      swap1\n      sstore\n      pop\n        /* \"Ethereum/Presale.sol\":6787:6798  amountClaim */\n      dup1\n        /* \"Ethereum/Presale.sol\":6759:6764  buyer */\n      dup3\n        /* \"Ethereum/Presale.sol\":6759:6783  buyer.totalTokenWithDraw */\n      0x03\n      add\n      0x00\n        /* \"Ethereum/Presale.sol\":6759:6798  buyer.totalTokenWithDraw += amountClaim */\n      dup3\n      dup3\n      sload\n      tag_218\n      swap2\n      swap1\n      tag_217\n      jump\t// in\n    tag_218:\n      swap1\n      swap2\n      sstore\n      pop\n      pop\n        /* \"Ethereum/Presale.sol\":6830:6831  0 */\n      0x00\n        /* \"Ethereum/Presale.sol\":6809:6831  buyer.baseDeposit  = 0 */\n      dup1\n      dup4\n      sstore\n        /* \"Ethereum/Presale.sol\":6842:6858  buyer.tokenOwner */\n      0x01\n      dup4\n      add\n        /* \"Ethereum/Presale.sol\":6842:6862  buyer.tokenOwner = 0 */\n      sstore\n        /* \"Ethereum/Presale.sol\":6879:6898  saleInfor.saleToken */\n      sload(0x0e)\n        /* \"Ethereum/Presale.sol\":6873:6933  ERC20(saleInfor.saleToken).transfer(msg.sender, amountClaim) */\n      mload(0x40)\n      shl(0xe0, 0xa9059cbb)\n      dup2\n      mstore\n        /* \"Ethereum/Presale.sol\":6909:6919  msg.sender */\n      caller\n        /* \"Ethereum/Presale.sol\":6873:6933  ERC20(saleInfor.saleToken).transfer(msg.sender, amountClaim) */\n      0x04\n      dup3\n      add\n        /* \"#utility.yul\":4474:4525   */\n      mstore\n        /* \"#utility.yul\":4541:4559   */\n      0x24\n      dup2\n      add\n        /* \"#utility.yul\":4534:4568   */\n      dup4\n      swap1\n      mstore\n      sub(shl(0xa0, 0x01), 0x01)\n        /* \"Ethereum/Presale.sol\":6879:6898  saleInfor.saleToken */\n      swap1\n      swap2\n      and\n      swap1\n        /* \"Ethereum/Presale.sol\":6873:6908  ERC20(saleInfor.saleToken).transfer */\n      0xa9059cbb\n      swap1\n        /* \"#utility.yul\":4447:4465   */\n      0x44\n      add\n        /* \"Ethereum/Presale.sol\":6873:6933  ERC20(saleInfor.saleToken).transfer(msg.sender, amountClaim) */\n      0x20\n      mload(0x40)\n      dup1\n      dup4\n      sub\n      dup2\n      0x00\n      dup8\n      dup1\n      extcodesize\n      iszero\n      dup1\n      iszero\n      tag_221\n      jumpi\n      0x00\n      dup1\n      revert\n    tag_221:\n      pop\n      gas\n      call\n      iszero\n      dup1\n      iszero\n      tag_223\n      jumpi\n      returndatasize\n      0x00\n      dup1\n      returndatacopy\n      revert(0x00, returndatasize)\n    tag_223:\n      pop\n      pop\n      pop\n      pop\n      mload(0x40)\n      returndatasize\n      not(0x1f)\n      0x1f\n      dup3\n      add\n      and\n      dup3\n      add\n      dup1\n      0x40\n      mstore\n      pop\n      dup2\n      add\n      swap1\n      tag_224\n      swap2\n      swap1\n      tag_225\n      jump\t// in\n    tag_224:\n      pop\n      pop\n        /* \"Utils/ReentrancyGuard.sol\":1734:1735  1 */\n      0x01\n        /* \"Utils/ReentrancyGuard.sol\":2688:2695  _status */\n      0x00\n        /* \"Utils/ReentrancyGuard.sol\":2688:2710  _status = _NOT_ENTERED */\n      sstore\n      pop\n        /* \"Ethereum/Presale.sol\":6133:6941  function userClaimEmergency() external nonReentrant {\r... */\n      jump\t// out\n        /* \"Ethereum/Presale.sol\":3999:6125  function deposit(uint256 _amount) external payable nonReentrant {\r... */\n    tag_87:\n        /* \"Utils/ReentrancyGuard.sol\":1778:1779  2 */\n      0x02\n        /* \"Utils/ReentrancyGuard.sol\":2376:2383  _status */\n      sload(0x00)\n        /* \"Utils/ReentrancyGuard.sol\":2376:2395  _status != _ENTERED */\n      eq\n      iszero\n        /* \"Utils/ReentrancyGuard.sol\":2368:2431  require(_status != _ENTERED, \"ReentrancyGuard: reentrant call\") */\n      tag_227\n      jumpi\n      mload(0x40)\n      shl(0xe5, 0x461bcd)\n      dup2\n      mstore\n      0x04\n      add\n      tag_119\n      swap1\n      tag_187\n      jump\t// in\n    tag_227:\n        /* \"Utils/ReentrancyGuard.sol\":1778:1779  2 */\n      0x02\n        /* \"Utils/ReentrancyGuard.sol\":2509:2516  _status */\n      0x00\n        /* \"Utils/ReentrancyGuard.sol\":2509:2527  _status = _ENTERED */\n      sstore\n        /* \"Ethereum/Presale.sol\":4082:4090  status() */\n      tag_230\n        /* \"Ethereum/Presale.sol\":4082:4088  status */\n      tag_41\n        /* \"Ethereum/Presale.sol\":4082:4090  status() */\n      jump\t// in\n    tag_230:\n        /* \"Ethereum/Presale.sol\":4094:4095  1 */\n      0x01\n        /* \"Ethereum/Presale.sol\":4082:4095  status() == 1 */\n      eq\n        /* \"Ethereum/Presale.sol\":4074:4110  require(status() == 1, \"Not active\") */\n      tag_231\n      jumpi\n      mload(0x40)\n      shl(0xe5, 0x461bcd)\n      dup2\n      mstore\n        /* \"#utility.yul\":6301:6303   */\n      0x20\n        /* \"Ethereum/Presale.sol\":4074:4110  require(status() == 1, \"Not active\") */\n      0x04\n      dup3\n      add\n        /* \"#utility.yul\":6283:6304   */\n      mstore\n        /* \"#utility.yul\":6340:6342   */\n      0x0a\n        /* \"#utility.yul\":6320:6338   */\n      0x24\n      dup3\n      add\n        /* \"#utility.yul\":6313:6343   */\n      mstore\n      shl(0xb0, 0x4e6f7420616374697665)\n        /* \"#utility.yul\":6359:6377   */\n      0x44\n      dup3\n      add\n        /* \"#utility.yul\":6352:6392   */\n      mstore\n        /* \"#utility.yul\":6409:6427   */\n      0x64\n      add\n        /* \"Ethereum/Presale.sol\":4074:4110  require(status() == 1, \"Not active\") */\n      tag_119\n        /* \"#utility.yul\":6273:6433   */\n      jump\n        /* \"Ethereum/Presale.sol\":4074:4110  require(status() == 1, \"Not active\") */\n    tag_231:\n        /* \"Ethereum/Presale.sol\":4167:4177  msg.sender */\n      caller\n        /* \"Ethereum/Presale.sol\":4131:4154  BuyerInfo storage buyer */\n      0x00\n        /* \"Ethereum/Presale.sol\":4157:4178  buyerInfo[msg.sender] */\n      swap1\n      dup2\n      mstore\n        /* \"Ethereum/Presale.sol\":4157:4166  buyerInfo */\n      0x02\n        /* \"Ethereum/Presale.sol\":4157:4178  buyerInfo[msg.sender] */\n      0x20\n      mstore\n      0x40\n      dup2\n      keccak256\n        /* \"Ethereum/Presale.sol\":4363:4389  saleInfor.minSpendPerBuyer */\n      sload(0x13)\n        /* \"Ethereum/Presale.sol\":4157:4178  buyerInfo[msg.sender] */\n      swap1\n      swap2\n        /* \"Ethereum/Presale.sol\":4209:4216  _amount */\n      dup4\n      swap2\n      dup3\n      swap2\n        /* \"Ethereum/Presale.sol\":4131:4154  BuyerInfo storage buyer */\n      swap1\n        /* \"Ethereum/Presale.sol\":4322:4326  1000 */\n      0x03e8\n      swap1\n        /* \"Ethereum/Presale.sol\":4345:4389  real_amount_in >= saleInfor.minSpendPerBuyer */\n      dup4\n      lt\n      iszero\n        /* \"Ethereum/Presale.sol\":4337:4438  require(real_amount_in >= saleInfor.minSpendPerBuyer, \r... */\n      tag_234\n      jumpi\n      mload(0x40)\n      shl(0xe5, 0x461bcd)\n      dup2\n      mstore\n        /* \"#utility.yul\":6640:6642   */\n      0x20\n        /* \"Ethereum/Presale.sol\":4337:4438  require(real_amount_in >= saleInfor.minSpendPerBuyer, \r... */\n      0x04\n      dup3\n      add\n        /* \"#utility.yul\":6622:6643   */\n      mstore\n        /* \"#utility.yul\":6679:6681   */\n      0x10\n        /* \"#utility.yul\":6659:6677   */\n      0x24\n      dup3\n      add\n        /* \"#utility.yul\":6652:6682   */\n      mstore\n      shl(0x80, 0x4e6f7420656e6f7567682076616c7565)\n        /* \"#utility.yul\":6698:6716   */\n      0x44\n      dup3\n      add\n        /* \"#utility.yul\":6691:6737   */\n      mstore\n        /* \"#utility.yul\":6754:6772   */\n      0x64\n      add\n        /* \"Ethereum/Presale.sol\":4337:4438  require(real_amount_in >= saleInfor.minSpendPerBuyer, \r... */\n      tag_119\n        /* \"#utility.yul\":6612:6778   */\n      jump\n        /* \"Ethereum/Presale.sol\":4337:4438  require(real_amount_in >= saleInfor.minSpendPerBuyer, \r... */\n    tag_234:\n        /* \"Ethereum/Presale.sol\":4475:4501  saleInfor.maxSpendPerBuyer */\n      sload(0x14)\n        /* \"Ethereum/Presale.sol\":4457:4501  real_amount_in <= saleInfor.maxSpendPerBuyer */\n      dup4\n      gt\n      iszero\n        /* \"Ethereum/Presale.sol\":4449:4548  require(real_amount_in <= saleInfor.maxSpendPerBuyer, \r... */\n      tag_237\n      jumpi\n      mload(0x40)\n      shl(0xe5, 0x461bcd)\n      dup2\n      mstore\n        /* \"#utility.yul\":5958:5960   */\n      0x20\n        /* \"Ethereum/Presale.sol\":4449:4548  require(real_amount_in <= saleInfor.maxSpendPerBuyer, \r... */\n      0x04\n      dup3\n      add\n        /* \"#utility.yul\":5940:5961   */\n      mstore\n        /* \"#utility.yul\":5997:5999   */\n      0x0e\n        /* \"#utility.yul\":5977:5995   */\n      0x24\n      dup3\n      add\n        /* \"#utility.yul\":5970:6000   */\n      mstore\n      shl(0x90, 0x4f766572666c6f772076616c7565)\n        /* \"#utility.yul\":6016:6034   */\n      0x44\n      dup3\n      add\n        /* \"#utility.yul\":6009:6053   */\n      mstore\n        /* \"#utility.yul\":6070:6088   */\n      0x64\n      add\n        /* \"Ethereum/Presale.sol\":4449:4548  require(real_amount_in <= saleInfor.maxSpendPerBuyer, \r... */\n      tag_119\n        /* \"#utility.yul\":5930:6094   */\n      jump\n        /* \"Ethereum/Presale.sol\":4449:4548  require(real_amount_in <= saleInfor.maxSpendPerBuyer, \r... */\n    tag_237:\n        /* \"Ethereum/Presale.sol\":4563:4582  checkAdminAddress() */\n      tag_240\n        /* \"Ethereum/Presale.sol\":4563:4580  checkAdminAddress */\n      tag_90\n        /* \"Ethereum/Presale.sol\":4563:4582  checkAdminAddress() */\n      jump\t// in\n    tag_240:\n        /* \"Ethereum/Presale.sol\":4559:4825  if(!checkAdminAddress()) {\r... */\n      tag_241\n      jumpi\n        /* \"Ethereum/Presale.sol\":4616:4749  ((fullPercenFee.sub(feeAnyone))\r... */\n      tag_242\n        /* \"Ethereum/Presale.sol\":4735:4748  fullPercenFee */\n      dup2\n        /* \"Ethereum/Presale.sol\":4617:4698  (fullPercenFee.sub(feeAnyone))\r... */\n      tag_212\n        /* \"Ethereum/Presale.sol\":4683:4697  real_amount_in */\n      dup6\n        /* \"Ethereum/Presale.sol\":4618:4646  fullPercenFee.sub(feeAnyone) */\n      tag_213\n        /* \"Ethereum/Presale.sol\":4636:4645  feeAnyone */\n      sload(0x1a)\n        /* \"Ethereum/Presale.sol\":4618:4631  fullPercenFee */\n      dup7\n        /* \"Ethereum/Presale.sol\":4618:4635  fullPercenFee.sub */\n      tag_214\n      swap1\n        /* \"Ethereum/Presale.sol\":4618:4646  fullPercenFee.sub(feeAnyone) */\n      swap2\n      swap1\n      0xffffffff\n      and\n      jump\t// in\n        /* \"Ethereum/Presale.sol\":4616:4749  ((fullPercenFee.sub(feeAnyone))\r... */\n    tag_242:\n        /* \"Ethereum/Presale.sol\":4599:4749  real_amount_in = ((fullPercenFee.sub(feeAnyone))\r... */\n      swap3\n      pop\n        /* \"Ethereum/Presale.sol\":4770:4796  amount_in - real_amount_in */\n      tag_245\n        /* \"Ethereum/Presale.sol\":4599:4749  real_amount_in = ((fullPercenFee.sub(feeAnyone))\r... */\n      dup4\n        /* \"Ethereum/Presale.sol\":4770:4779  amount_in */\n      dup6\n        /* \"Ethereum/Presale.sol\":4770:4796  amount_in - real_amount_in */\n      tag_194\n      jump\t// in\n    tag_245:\n        /* \"Ethereum/Presale.sol\":4764:4796  fee = amount_in - real_amount_in */\n      swap2\n      pop\n        /* \"Ethereum/Presale.sol\":4559:4825  if(!checkAdminAddress()) {\r... */\n    tag_241:\n        /* \"Ethereum/Presale.sol\":4890:4907  buyer.baseDeposit */\n      dup5\n      sload\n        /* \"Ethereum/Presale.sol\":4861:4887  saleInfor.maxSpendPerBuyer */\n      sload(0x14)\n        /* \"Ethereum/Presale.sol\":4835:4858  uint256 remainingByUser */\n      0x00\n      swap2\n        /* \"Ethereum/Presale.sol\":4861:4907  saleInfor.maxSpendPerBuyer - buyer.baseDeposit */\n      tag_246\n      swap2\n      tag_194\n      jump\t// in\n    tag_246:\n        /* \"Ethereum/Presale.sol\":4975:4988  presaleStatus */\n      0x04\n        /* \"Ethereum/Presale.sol\":4975:5007  presaleStatus.totalBaseCollected */\n      sload\n        /* \"Ethereum/Presale.sol\":4944:4972  saleInfor.amountTokenForSale */\n      sload(0x18)\n        /* \"Ethereum/Presale.sol\":4835:4907  uint256 remainingByUser = saleInfor.maxSpendPerBuyer - buyer.baseDeposit */\n      swap2\n      swap3\n      pop\n        /* \"Ethereum/Presale.sol\":4918:4941  uint256 remainingByPool */\n      0x00\n      swap2\n        /* \"Ethereum/Presale.sol\":4944:5007  saleInfor.amountTokenForSale - presaleStatus.totalBaseCollected */\n      tag_247\n      swap2\n        /* \"Ethereum/Presale.sol\":4975:5007  presaleStatus.totalBaseCollected */\n      swap1\n        /* \"Ethereum/Presale.sol\":4944:5007  saleInfor.amountTokenForSale - presaleStatus.totalBaseCollected */\n      tag_194\n      jump\t// in\n    tag_247:\n        /* \"Ethereum/Presale.sol\":4918:5007  uint256 remainingByPool = saleInfor.amountTokenForSale - presaleStatus.totalBaseCollected */\n      swap1\n      pop\n        /* \"Ethereum/Presale.sol\":5018:5035  uint256 allowance */\n      0x00\n        /* \"Ethereum/Presale.sol\":5056:5071  remainingByPool */\n      dup2\n        /* \"Ethereum/Presale.sol\":5038:5053  remainingByUser */\n      dup4\n        /* \"Ethereum/Presale.sol\":5038:5071  remainingByUser > remainingByPool */\n      gt\n        /* \"Ethereum/Presale.sol\":5038:5107  remainingByUser > remainingByPool ? remainingByPool : remainingByUser */\n      tag_248\n      jumpi\n        /* \"Ethereum/Presale.sol\":5092:5107  remainingByUser */\n      dup3\n        /* \"Ethereum/Presale.sol\":5038:5107  remainingByUser > remainingByPool ? remainingByPool : remainingByUser */\n      jump(tag_249)\n    tag_248:\n        /* \"Ethereum/Presale.sol\":5074:5089  remainingByPool */\n      dup2\n        /* \"Ethereum/Presale.sol\":5038:5107  remainingByUser > remainingByPool ? remainingByPool : remainingByUser */\n    tag_249:\n        /* \"Ethereum/Presale.sol\":5018:5107  uint256 allowance = remainingByUser > remainingByPool ? remainingByPool : remainingByUser */\n      swap1\n      pop\n        /* \"Ethereum/Presale.sol\":5144:5153  allowance */\n      dup1\n        /* \"Ethereum/Presale.sol\":5126:5140  real_amount_in */\n      dup7\n        /* \"Ethereum/Presale.sol\":5126:5153  real_amount_in <= allowance */\n      gt\n      iszero\n        /* \"Ethereum/Presale.sol\":5118:5173  require(real_amount_in <= allowance, \"Sale is success\") */\n      tag_250\n      jumpi\n      mload(0x40)\n      shl(0xe5, 0x461bcd)\n      dup2\n      mstore\n        /* \"#utility.yul\":8860:8862   */\n      0x20\n        /* \"Ethereum/Presale.sol\":5118:5173  require(real_amount_in <= allowance, \"Sale is success\") */\n      0x04\n      dup3\n      add\n        /* \"#utility.yul\":8842:8863   */\n      mstore\n        /* \"#utility.yul\":8899:8901   */\n      0x0f\n        /* \"#utility.yul\":8879:8897   */\n      0x24\n      dup3\n      add\n        /* \"#utility.yul\":8872:8902   */\n      mstore\n      shl(0x88, 0x53616c652069732073756363657373)\n        /* \"#utility.yul\":8918:8936   */\n      0x44\n      dup3\n      add\n        /* \"#utility.yul\":8911:8956   */\n      mstore\n        /* \"#utility.yul\":8973:8991   */\n      0x64\n      add\n        /* \"Ethereum/Presale.sol\":5118:5173  require(real_amount_in <= allowance, \"Sale is success\") */\n      tag_119\n        /* \"#utility.yul\":8832:8997   */\n      jump\n        /* \"Ethereum/Presale.sol\":5118:5173  require(real_amount_in <= allowance, \"Sale is success\") */\n    tag_250:\n        /* \"Ethereum/Presale.sol\":5184:5201  uint256 tokenSold */\n      0x00\n        /* \"Ethereum/Presale.sol\":5205:5363  real_amount_in.\r... */\n      tag_253\n        /* \"Ethereum/Presale.sol\":5330:5339  saleInfor */\n      0x0d\n        /* \"Ethereum/Presale.sol\":5330:5349  saleInfor.baseToken */\n      0x02\n      add\n      0x00\n      swap1\n      sload\n      swap1\n      0x0100\n      exp\n      swap1\n      div\n      sub(shl(0xa0, 0x01), 0x01)\n      and\n      sub(shl(0xa0, 0x01), 0x01)\n        /* \"Ethereum/Presale.sol\":5324:5359  ERC20(saleInfor.baseToken).decimals */\n      and\n      0x313ce567\n        /* \"Ethereum/Presale.sol\":5324:5361  ERC20(saleInfor.baseToken).decimals() */\n      mload(0x40)\n      dup2\n      0xffffffff\n      and\n      0xe0\n      shl\n      dup2\n      mstore\n      0x04\n      add\n      0x20\n      mload(0x40)\n      dup1\n      dup4\n      sub\n      dup2\n      dup7\n      dup1\n      extcodesize\n      iszero\n      dup1\n      iszero\n      tag_254\n      jumpi\n      0x00\n      dup1\n      revert\n    tag_254:\n      pop\n      gas\n      staticcall\n      iszero\n      dup1\n      iszero\n      tag_256\n      jumpi\n      returndatasize\n      0x00\n      dup1\n      returndatacopy\n      revert(0x00, returndatasize)\n    tag_256:\n      pop\n      pop\n      pop\n      pop\n      mload(0x40)\n      returndatasize\n      not(0x1f)\n      0x1f\n      dup3\n      add\n      and\n      dup3\n      add\n      dup1\n      0x40\n      mstore\n      pop\n      dup2\n      add\n      swap1\n      tag_257\n      swap2\n      swap1\n      tag_133\n      jump\t// in\n    tag_257:\n        /* \"Ethereum/Presale.sol\":5310:5362  10 ** uint256(ERC20(saleInfor.baseToken).decimals()) */\n      tag_258\n      swap1\n        /* \"Ethereum/Presale.sol\":5310:5312  10 */\n      0x0a\n        /* \"Ethereum/Presale.sol\":5310:5362  10 ** uint256(ERC20(saleInfor.baseToken).decimals()) */\n      tag_135\n      jump\t// in\n    tag_258:\n        /* \"Ethereum/Presale.sol\":5254:5274  saleInfor.tokenPrice */\n      sload(0x10)\n        /* \"Ethereum/Presale.sol\":5205:5275  real_amount_in.\r... */\n      tag_212\n      swap1\n        /* \"Ethereum/Presale.sol\":5205:5219  real_amount_in */\n      dup11\n      swap1\n        /* \"Ethereum/Presale.sol\":5205:5253  real_amount_in.\r... */\n      tag_181\n        /* \"Ethereum/Presale.sol\":5205:5275  real_amount_in.\r... */\n      jump\t// in\n        /* \"Ethereum/Presale.sol\":5205:5363  real_amount_in.\r... */\n    tag_253:\n        /* \"Ethereum/Presale.sol\":5184:5364  uint256 tokenSold = (real_amount_in.\r... */\n      swap1\n      pop\n        /* \"Ethereum/Presale.sol\":5413:5422  amount_in */\n      dup8\n        /* \"Ethereum/Presale.sol\":5392:5397  buyer */\n      dup10\n        /* \"Ethereum/Presale.sol\":5392:5409  buyer.baseDeposit */\n      0x00\n      add\n      0x00\n        /* \"Ethereum/Presale.sol\":5392:5422  buyer.baseDeposit += amount_in */\n      dup3\n      dup3\n      sload\n      tag_260\n      swap2\n      swap1\n      tag_217\n      jump\t// in\n    tag_260:\n      swap3\n      pop\n      pop\n      dup2\n      swap1\n      sstore\n      pop\n        /* \"Ethereum/Presale.sol\":5453:5462  tokenSold */\n      dup1\n        /* \"Ethereum/Presale.sol\":5433:5438  buyer */\n      dup10\n        /* \"Ethereum/Presale.sol\":5433:5449  buyer.tokenOwner */\n      0x01\n      add\n      0x00\n        /* \"Ethereum/Presale.sol\":5433:5462  buyer.tokenOwner += tokenSold */\n      dup3\n      dup3\n      sload\n      tag_261\n      swap2\n      swap1\n      tag_217\n      jump\t// in\n    tag_261:\n      swap1\n      swap2\n      sstore\n      pop\n      pop\n        /* \"Ethereum/Presale.sol\":5473:5486  presaleStatus */\n      0x04\n        /* \"Ethereum/Presale.sol\":5473:5523  presaleStatus.totalBaseCollected += real_amount_in */\n      dup1\n      sload\n        /* \"Ethereum/Presale.sol\":5509:5523  real_amount_in */\n      dup9\n      swap2\n        /* \"Ethereum/Presale.sol\":5473:5486  presaleStatus */\n      swap1\n        /* \"Ethereum/Presale.sol\":5473:5505  presaleStatus.totalBaseCollected */\n      0x00\n      swap1\n        /* \"Ethereum/Presale.sol\":5473:5523  presaleStatus.totalBaseCollected += real_amount_in */\n      tag_262\n      swap1\n        /* \"Ethereum/Presale.sol\":5509:5523  real_amount_in */\n      dup5\n      swap1\n        /* \"Ethereum/Presale.sol\":5473:5523  presaleStatus.totalBaseCollected += real_amount_in */\n      tag_217\n      jump\t// in\n    tag_262:\n      swap1\n      swap2\n      sstore\n      pop\n      pop\n        /* \"Ethereum/Presale.sol\":5534:5562  presaleStatus.totalTokenSold */\n      0x05\n        /* \"Ethereum/Presale.sol\":5534:5575  presaleStatus.totalTokenSold += tokenSold */\n      dup1\n      sload\n        /* \"Ethereum/Presale.sol\":5566:5575  tokenSold */\n      dup3\n      swap2\n        /* \"Ethereum/Presale.sol\":5534:5562  presaleStatus.totalTokenSold */\n      swap1\n      0x00\n      swap1\n        /* \"Ethereum/Presale.sol\":5534:5575  presaleStatus.totalTokenSold += tokenSold */\n      tag_263\n      swap1\n        /* \"Ethereum/Presale.sol\":5566:5575  tokenSold */\n      dup5\n      swap1\n        /* \"Ethereum/Presale.sol\":5534:5575  presaleStatus.totalTokenSold += tokenSold */\n      tag_217\n      jump\t// in\n    tag_263:\n      swap1\n      swap2\n      sstore\n      pop\n      pop\n        /* \"Ethereum/Presale.sol\":5586:5611  presaleStatus.numberBuyer */\n      0x08\n        /* \"Ethereum/Presale.sol\":5586:5613  presaleStatus.numberBuyer++ */\n      dup1\n      sload\n      swap1\n        /* \"Ethereum/Presale.sol\":5586:5611  presaleStatus.numberBuyer */\n      0x00\n        /* \"Ethereum/Presale.sol\":5586:5613  presaleStatus.numberBuyer++ */\n      tag_264\n      dup4\n      tag_265\n      jump\t// in\n    tag_264:\n      swap1\n      swap2\n      sstore\n      pop\n      pop\n        /* \"Ethereum/Presale.sol\":5632:5642  msg.sender */\n      caller\n        /* \"Ethereum/Presale.sol\":5624:5643  userFee[msg.sender] */\n      0x00\n      swap1\n      dup2\n      mstore\n        /* \"Ethereum/Presale.sol\":5624:5631  userFee */\n      0x03\n        /* \"Ethereum/Presale.sol\":5624:5643  userFee[msg.sender] */\n      0x20\n      mstore\n      0x40\n      dup2\n      keccak256\n        /* \"Ethereum/Presale.sol\":5624:5650  userFee[msg.sender] += fee */\n      dup1\n      sload\n        /* \"Ethereum/Presale.sol\":5647:5650  fee */\n      dup9\n      swap3\n        /* \"Ethereum/Presale.sol\":5624:5643  userFee[msg.sender] */\n      swap1\n        /* \"Ethereum/Presale.sol\":5624:5650  userFee[msg.sender] += fee */\n      tag_266\n      swap1\n        /* \"Ethereum/Presale.sol\":5647:5650  fee */\n      dup5\n      swap1\n        /* \"Ethereum/Presale.sol\":5624:5650  userFee[msg.sender] += fee */\n      tag_217\n      jump\t// in\n    tag_266:\n      swap3\n      pop\n      pop\n      dup2\n      swap1\n      sstore\n      pop\n        /* \"Ethereum/Presale.sol\":5673:5676  fee */\n      dup6\n        /* \"Ethereum/Presale.sol\":5661:5669  totalFee */\n      0x1d\n      0x00\n        /* \"Ethereum/Presale.sol\":5661:5676  totalFee += fee */\n      dup3\n      dup3\n      sload\n      tag_267\n      swap2\n      swap1\n      tag_217\n      jump\t// in\n    tag_267:\n      swap1\n      swap2\n      sstore\n      pop\n      pop\n        /* \"Ethereum/Presale.sol\":5692:5717  saleInfor.saleIsBaseToken */\n      and(0xff, sload(0x17))\n        /* \"Ethereum/Presale.sol\":5692:5753  saleInfor.saleIsBaseToken && real_amount_in + fee < msg.value */\n      dup1\n      iszero\n      tag_268\n      jumpi\n      pop\n        /* \"Ethereum/Presale.sol\":5744:5753  msg.value */\n      callvalue\n        /* \"Ethereum/Presale.sol\":5721:5741  real_amount_in + fee */\n      tag_269\n        /* \"Ethereum/Presale.sol\":5738:5741  fee */\n      dup8\n        /* \"Ethereum/Presale.sol\":5721:5735  real_amount_in */\n      dup10\n        /* \"Ethereum/Presale.sol\":5721:5741  real_amount_in + fee */\n      tag_217\n      jump\t// in\n    tag_269:\n        /* \"Ethereum/Presale.sol\":5721:5753  real_amount_in + fee < msg.value */\n      lt\n        /* \"Ethereum/Presale.sol\":5692:5753  saleInfor.saleIsBaseToken && real_amount_in + fee < msg.value */\n    tag_268:\n        /* \"Ethereum/Presale.sol\":5689:5844  if(saleInfor.saleIsBaseToken && real_amount_in + fee < msg.value) {\r... */\n      iszero\n      tag_270\n      jumpi\n        /* \"Ethereum/Presale.sol\":5778:5788  msg.sender */\n      caller\n        /* \"Ethereum/Presale.sol\":5770:5832  payable(msg.sender).transfer(msg.value - real_amount_in - fee) */\n      0x08fc\n        /* \"Ethereum/Presale.sol\":5828:5831  fee */\n      dup8\n        /* \"Ethereum/Presale.sol\":5799:5825  msg.value - real_amount_in */\n      tag_271\n        /* \"Ethereum/Presale.sol\":5811:5825  real_amount_in */\n      dup11\n        /* \"Ethereum/Presale.sol\":5799:5808  msg.value */\n      callvalue\n        /* \"Ethereum/Presale.sol\":5799:5825  msg.value - real_amount_in */\n      tag_194\n      jump\t// in\n    tag_271:\n        /* \"Ethereum/Presale.sol\":5799:5831  msg.value - real_amount_in - fee */\n      tag_272\n      swap2\n      swap1\n      tag_194\n      jump\t// in\n    tag_272:\n        /* \"Ethereum/Presale.sol\":5770:5832  payable(msg.sender).transfer(msg.value - real_amount_in - fee) */\n      mload(0x40)\n      dup2\n      iszero\n      swap1\n      swap3\n      mul\n      swap2\n      0x00\n      dup2\n      dup2\n      dup2\n      dup6\n      dup9\n      dup9\n      call\n      swap4\n      pop\n      pop\n      pop\n      pop\n      iszero\n      dup1\n      iszero\n      tag_274\n      jumpi\n      returndatasize\n      0x00\n      dup1\n      returndatacopy\n      revert(0x00, returndatasize)\n    tag_274:\n      pop\n        /* \"Ethereum/Presale.sol\":5689:5844  if(saleInfor.saleIsBaseToken && real_amount_in + fee < msg.value) {\r... */\n    tag_270:\n        /* \"Ethereum/Presale.sol\":5859:5884  saleInfor.saleIsBaseToken */\n      and(0xff, sload(0x17))\n        /* \"Ethereum/Presale.sol\":5855:6106  if(!saleInfor.saleIsBaseToken) {\r... */\n      tag_276\n      jumpi\n        /* \"Ethereum/Presale.sol\":5959:5978  saleInfor.baseToken */\n      sload(0x0f)\n        /* \"Ethereum/Presale.sol\":5901:6094  TransferHelper.safeTransferFrom(\r... */\n      tag_276\n      swap1\n      sub(shl(0xa0, 0x01), 0x01)\n        /* \"Ethereum/Presale.sol\":5959:5978  saleInfor.baseToken */\n      and\n        /* \"Ethereum/Presale.sol\":5998:6008  msg.sender */\n      caller\n        /* \"Ethereum/Presale.sol\":6035:6039  this */\n      address\n        /* \"Ethereum/Presale.sol\":6059:6079  real_amount_in + fee */\n      tag_277\n        /* \"Ethereum/Presale.sol\":6076:6079  fee */\n      dup11\n        /* \"Ethereum/Presale.sol\":6059:6073  real_amount_in */\n      dup13\n        /* \"Ethereum/Presale.sol\":6059:6079  real_amount_in + fee */\n      tag_217\n      jump\t// in\n    tag_277:\n        /* \"Ethereum/Presale.sol\":5901:5932  TransferHelper.safeTransferFrom */\n      tag_278\n        /* \"Ethereum/Presale.sol\":5901:6094  TransferHelper.safeTransferFrom(\r... */\n      jump\t// in\n    tag_276:\n      pop\n      pop\n        /* \"Utils/ReentrancyGuard.sol\":1734:1735  1 */\n      0x01\n        /* \"Utils/ReentrancyGuard.sol\":2688:2695  _status */\n      0x00\n        /* \"Utils/ReentrancyGuard.sol\":2688:2710  _status = _NOT_ENTERED */\n      sstore\n      pop\n      pop\n      pop\n      pop\n      pop\n      pop\n      pop\n      pop\n        /* \"Ethereum/Presale.sol\":3999:6125  function deposit(uint256 _amount) external payable nonReentrant {\r... */\n      jump\t// out\n        /* \"Ethereum/Presale.sol\":3881:3991  function checkAdminAddress() public view returns(bool) {\r... */\n    tag_90:\n        /* \"Ethereum/Presale.sol\":3930:3934  bool */\n      0x00\n        /* \"Ethereum/Presale.sol\":3954:3983  admins.contains(_msgSender()) */\n      tag_280\n        /* \"Ethereum/Presale.sol\":3954:3960  admins */\n      0x1b\n        /* \"Utils/Context.sol\":736:746  msg.sender */\n      caller\n        /* \"Ethereum/Presale.sol\":3954:3969  admins.contains */\n      tag_282\n        /* \"Ethereum/Presale.sol\":3954:3983  admins.contains(_msgSender()) */\n      jump\t// in\n    tag_280:\n        /* \"Ethereum/Presale.sol\":3947:3983  return admins.contains(_msgSender()) */\n      swap1\n      pop\n        /* \"Ethereum/Presale.sol\":3881:3991  function checkAdminAddress() public view returns(bool) {\r... */\n      swap1\n      jump\t// out\n        /* \"Utils/Ownable.sol\":1972:2173  function transferOwnership(address newOwner) public virtual onlyOwner {\r... */\n    tag_102:\n        /* \"Utils/Ownable.sol\":1136:1142  _owner */\n      and(sub(shl(0xa0, 0x01), 0x01), sload(0x01))\n        /* \"Utils/Context.sol\":736:746  msg.sender */\n      caller\n        /* \"Utils/Ownable.sol\":1283:1306  owner() == _msgSender() */\n      eq\n        /* \"Utils/Ownable.sol\":1275:1343  require(owner() == _msgSender(), \"Ownable: caller is not the owner\") */\n      tag_286\n      jumpi\n      mload(0x40)\n      shl(0xe5, 0x461bcd)\n      dup2\n      mstore\n        /* \"#utility.yul\":7326:7328   */\n      0x20\n        /* \"Utils/Ownable.sol\":1275:1343  require(owner() == _msgSender(), \"Ownable: caller is not the owner\") */\n      0x04\n      dup3\n      add\n        /* \"#utility.yul\":7308:7329   */\n      dup2\n      swap1\n      mstore\n        /* \"#utility.yul\":7345:7363   */\n      0x24\n      dup3\n      add\n        /* \"#utility.yul\":7338:7368   */\n      mstore\n        /* \"#utility.yul\":7404:7438   */\n      0x4f776e61626c653a2063616c6c6572206973206e6f7420746865206f776e6572\n        /* \"#utility.yul\":7384:7402   */\n      0x44\n      dup3\n      add\n        /* \"#utility.yul\":7377:7439   */\n      mstore\n        /* \"#utility.yul\":7456:7474   */\n      0x64\n      add\n        /* \"Utils/Ownable.sol\":1275:1343  require(owner() == _msgSender(), \"Ownable: caller is not the owner\") */\n      tag_119\n        /* \"#utility.yul\":7298:7480   */\n      jump\n        /* \"Utils/Ownable.sol\":1275:1343  require(owner() == _msgSender(), \"Ownable: caller is not the owner\") */\n    tag_286:\n      sub(shl(0xa0, 0x01), 0x01)\n        /* \"Utils/Ownable.sol\":2061:2083  newOwner != address(0) */\n      dup2\n      and\n        /* \"Utils/Ownable.sol\":2053:2126  require(newOwner != address(0), \"Ownable: new owner is the zero address\") */\n      tag_289\n      jumpi\n      mload(0x40)\n      shl(0xe5, 0x461bcd)\n      dup2\n      mstore\n        /* \"#utility.yul\":5551:5553   */\n      0x20\n        /* \"Utils/Ownable.sol\":2053:2126  require(newOwner != address(0), \"Ownable: new owner is the zero address\") */\n      0x04\n      dup3\n      add\n        /* \"#utility.yul\":5533:5554   */\n      mstore\n        /* \"#utility.yul\":5590:5592   */\n      0x26\n        /* \"#utility.yul\":5570:5588   */\n      0x24\n      dup3\n      add\n        /* \"#utility.yul\":5563:5593   */\n      mstore\n        /* \"#utility.yul\":5629:5663   */\n      0x4f776e61626c653a206e6577206f776e657220697320746865207a65726f2061\n        /* \"#utility.yul\":5609:5627   */\n      0x44\n      dup3\n      add\n        /* \"#utility.yul\":5602:5664   */\n      mstore\n      shl(0xd0, 0x646472657373)\n        /* \"#utility.yul\":5680:5698   */\n      0x64\n      dup3\n      add\n        /* \"#utility.yul\":5673:5709   */\n      mstore\n        /* \"#utility.yul\":5726:5745   */\n      0x84\n      add\n        /* \"Utils/Ownable.sol\":2053:2126  require(newOwner != address(0), \"Ownable: new owner is the zero address\") */\n      tag_119\n        /* \"#utility.yul\":5523:5751   */\n      jump\n        /* \"Utils/Ownable.sol\":2053:2126  require(newOwner != address(0), \"Ownable: new owner is the zero address\") */\n    tag_289:\n        /* \"Utils/Ownable.sol\":2137:2165  _transferOwnership(newOwner) */\n      tag_126\n        /* \"Utils/Ownable.sol\":2156:2164  newOwner */\n      dup2\n        /* \"Utils/Ownable.sol\":2137:2155  _transferOwnership */\n      tag_123\n        /* \"Utils/Ownable.sol\":2137:2165  _transferOwnership(newOwner) */\n      jump\t// in\n        /* \"Utils/EnumerableSet.sol\":8259:8411  function add(AddressSet storage set, address value) internal returns (bool) {\r... */\n    tag_108:\n        /* \"Utils/EnumerableSet.sol\":8329:8333  bool */\n      0x00\n        /* \"Utils/EnumerableSet.sol\":8353:8403  _add(set._inner, bytes32(uint256(uint160(value)))) */\n      tag_295\n        /* \"Utils/EnumerableSet.sol\":8358:8361  set */\n      dup4\n      sub(shl(0xa0, 0x01), 0x01)\n        /* \"Utils/EnumerableSet.sol\":8378:8401  uint256(uint160(value)) */\n      dup5\n      and\n        /* \"Utils/EnumerableSet.sol\":8353:8357  _add */\n      tag_296\n        /* \"Utils/EnumerableSet.sol\":8353:8403  _add(set._inner, bytes32(uint256(uint160(value)))) */\n      jump\t// in\n    tag_295:\n        /* \"Utils/EnumerableSet.sol\":8346:8403  return _add(set._inner, bytes32(uint256(uint160(value)))) */\n      swap1\n      pop\n        /* \"Utils/EnumerableSet.sol\":8259:8411  function add(AddressSet storage set, address value) internal returns (bool) {\r... */\n    tag_294:\n      swap3\n      swap2\n      pop\n      pop\n      jump\t// out\n        /* \"Utils/Ownable.sol\":2333:2524  function _transferOwnership(address newOwner) internal virtual {\r... */\n    tag_123:\n        /* \"Utils/Ownable.sol\":2426:2432  _owner */\n      0x01\n      dup1\n      sload\n      sub(shl(0xa0, 0x01), 0x01)\n        /* \"Utils/Ownable.sol\":2443:2460  _owner = newOwner */\n      dup4\n      dup2\n      and\n      not(sub(shl(0xa0, 0x01), 0x01))\n      dup4\n      and\n      dup2\n      or\n      swap1\n      swap4\n      sstore\n        /* \"Utils/Ownable.sol\":2476:2516  OwnershipTransferred(oldOwner, newOwner) */\n      mload(0x40)\n        /* \"Utils/Ownable.sol\":2426:2432  _owner */\n      swap2\n      and\n      swap2\n        /* \"Utils/Ownable.sol\":2443:2460  _owner = newOwner */\n      swap1\n        /* \"Utils/Ownable.sol\":2426:2432  _owner */\n      dup3\n      swap1\n        /* \"Utils/Ownable.sol\":2476:2516  OwnershipTransferred(oldOwner, newOwner) */\n      0x8be0079c531659141344cd1fd0a4f28419497f9722a3daafe3b4186f6b6457e0\n      swap1\n        /* \"Utils/Ownable.sol\":2407:2423  address oldOwner */\n      0x00\n      swap1\n        /* \"Utils/Ownable.sol\":2476:2516  OwnershipTransferred(oldOwner, newOwner) */\n      log3\n        /* \"Utils/Ownable.sol\":2396:2524  {\r... */\n      pop\n        /* \"Utils/Ownable.sol\":2333:2524  function _transferOwnership(address newOwner) internal virtual {\r... */\n      pop\n      jump\t// out\n        /* \"Utils/SafeMath.sol\":3585:3683  function mul(uint256 a, uint256 b) internal pure returns (uint256) {\r... */\n    tag_181:\n        /* \"Utils/SafeMath.sol\":3643:3650  uint256 */\n      0x00\n        /* \"Utils/SafeMath.sol\":3670:3675  a * b */\n      tag_295\n        /* \"Utils/SafeMath.sol\":3674:3675  b */\n      dup3\n        /* \"Utils/SafeMath.sol\":3670:3671  a */\n      dup5\n        /* \"Utils/SafeMath.sol\":3670:3675  a * b */\n      tag_140\n      jump\t// in\n        /* \"Utils/SafeMath.sol\":3228:3326  function sub(uint256 a, uint256 b) internal pure returns (uint256) {\r... */\n    tag_214:\n        /* \"Utils/SafeMath.sol\":3286:3293  uint256 */\n      0x00\n        /* \"Utils/SafeMath.sol\":3313:3318  a - b */\n      tag_295\n        /* \"Utils/SafeMath.sol\":3317:3318  b */\n      dup3\n        /* \"Utils/SafeMath.sol\":3313:3314  a */\n      dup5\n        /* \"Utils/SafeMath.sol\":3313:3318  a - b */\n      tag_194\n      jump\t// in\n        /* \"Utils/SafeMath.sol\":3984:4082  function div(uint256 a, uint256 b) internal pure returns (uint256) {\r... */\n    tag_215:\n        /* \"Utils/SafeMath.sol\":4042:4049  uint256 */\n      0x00\n        /* \"Utils/SafeMath.sol\":4069:4074  a / b */\n      tag_295\n        /* \"Utils/SafeMath.sol\":4073:4074  b */\n      dup3\n        /* \"Utils/SafeMath.sol\":4069:4070  a */\n      dup5\n        /* \"Utils/SafeMath.sol\":4069:4074  a / b */\n      tag_183\n      jump\t// in\n        /* \"Utils/TransferHelper.sol\":1073:1503  function safeTransferFrom(\r... */\n    tag_278:\n        /* \"Utils/TransferHelper.sol\":1279:1330  abi.encodeWithSelector(0x23b872dd, from, to, value) */\n      0x40\n      dup1\n      mload\n      sub(shl(0xa0, 0x01), 0x01)\n        /* \"#utility.yul\":4178:4193   */\n      dup6\n      dup2\n      and\n        /* \"Utils/TransferHelper.sol\":1279:1330  abi.encodeWithSelector(0x23b872dd, from, to, value) */\n      0x24\n      dup4\n      add\n        /* \"#utility.yul\":4160:4194   */\n      mstore\n        /* \"#utility.yul\":4230:4245   */\n      dup5\n      dup2\n      and\n        /* \"#utility.yul\":4210:4228   */\n      0x44\n      dup4\n      add\n        /* \"#utility.yul\":4203:4246   */\n      mstore\n        /* \"#utility.yul\":4262:4280   */\n      0x64\n      dup1\n      dup4\n      add\n        /* \"#utility.yul\":4255:4289   */\n      dup6\n      swap1\n      mstore\n        /* \"Utils/TransferHelper.sol\":1279:1330  abi.encodeWithSelector(0x23b872dd, from, to, value) */\n      dup4\n      mload\n      dup1\n      dup5\n      sub\n      swap1\n      swap2\n      add\n      dup2\n      mstore\n        /* \"#utility.yul\":4095:4113   */\n      0x84\n      swap1\n      swap3\n      add\n        /* \"Utils/TransferHelper.sol\":1279:1330  abi.encodeWithSelector(0x23b872dd, from, to, value) */\n      dup4\n      mstore\n      0x20\n      dup3\n      add\n      dup1\n      mload\n      sub(shl(0xe0, 0x01), 0x01)\n      and\n      shl(0xe0, 0x23b872dd)\n      or\n      swap1\n      mstore\n        /* \"Utils/TransferHelper.sol\":1254:1341  token.call(\r... */\n      swap2\n      mload\n      0x00\n      swap3\n      dup4\n      swap3\n        /* \"Utils/TransferHelper.sol\":1254:1264  token.call */\n      swap1\n      dup9\n      and\n      swap2\n        /* \"Utils/TransferHelper.sol\":1254:1341  token.call(\r... */\n      tag_308\n      swap2\n        /* \"Utils/TransferHelper.sol\":1279:1330  abi.encodeWithSelector(0x23b872dd, from, to, value) */\n      swap1\n        /* \"Utils/TransferHelper.sol\":1254:1341  token.call(\r... */\n      tag_309\n      jump\t// in\n    tag_308:\n      0x00\n      mload(0x40)\n      dup1\n      dup4\n      sub\n      dup2\n      0x00\n      dup7\n      gas\n      call\n      swap2\n      pop\n      pop\n      returndatasize\n      dup1\n      0x00\n      dup2\n      eq\n      tag_312\n      jumpi\n      mload(0x40)\n      swap2\n      pop\n      and(add(returndatasize, 0x3f), not(0x1f))\n      dup3\n      add\n      0x40\n      mstore\n      returndatasize\n      dup3\n      mstore\n      returndatasize\n      0x00\n      0x20\n      dup5\n      add\n      returndatacopy\n      jump(tag_311)\n    tag_312:\n      0x60\n      swap2\n      pop\n    tag_311:\n      pop\n        /* \"Utils/TransferHelper.sol\":1218:1341  (bool success, bytes memory data) = token.call(\r... */\n      swap2\n      pop\n      swap2\n      pop\n        /* \"Utils/TransferHelper.sol\":1374:1381  success */\n      dup2\n        /* \"Utils/TransferHelper.sol\":1374:1431  success && (data.length == 0 || abi.decode(data, (bool))) */\n      dup1\n      iszero\n      tag_315\n      jumpi\n      pop\n        /* \"Utils/TransferHelper.sol\":1386:1397  data.length */\n      dup1\n      mload\n        /* \"Utils/TransferHelper.sol\":1386:1402  data.length == 0 */\n      iszero\n      dup1\n        /* \"Utils/TransferHelper.sol\":1386:1430  data.length == 0 || abi.decode(data, (bool)) */\n      tag_315\n      jumpi\n      pop\n        /* \"Utils/TransferHelper.sol\":1417:1421  data */\n      dup1\n        /* \"Utils/TransferHelper.sol\":1406:1430  abi.decode(data, (bool)) */\n      dup1\n      0x20\n      add\n      swap1\n      mload\n      dup2\n      add\n      swap1\n      tag_315\n      swap2\n      swap1\n      tag_225\n      jump\t// in\n    tag_315:\n        /* \"Utils/TransferHelper.sol\":1352:1495  require(\r... */\n      tag_316\n      jumpi\n      mload(0x40)\n      shl(0xe5, 0x461bcd)\n      dup2\n      mstore\n        /* \"#utility.yul\":8095:8097   */\n      0x20\n        /* \"Utils/TransferHelper.sol\":1352:1495  require(\r... */\n      0x04\n      dup3\n      add\n        /* \"#utility.yul\":8077:8098   */\n      mstore\n        /* \"#utility.yul\":8134:8136   */\n      0x24\n        /* \"#utility.yul\":8114:8132   */\n      dup1\n      dup3\n      add\n        /* \"#utility.yul\":8107:8137   */\n      mstore\n        /* \"#utility.yul\":8173:8207   */\n      0x5472616e7366657248656c7065723a205452414e534645525f46524f4d5f4641\n        /* \"#utility.yul\":8153:8171   */\n      0x44\n      dup3\n      add\n        /* \"#utility.yul\":8146:8208   */\n      mstore\n      shl(0xe2, 0x12531151)\n        /* \"#utility.yul\":8224:8242   */\n      0x64\n      dup3\n      add\n        /* \"#utility.yul\":8217:8251   */\n      mstore\n        /* \"#utility.yul\":8268:8287   */\n      0x84\n      add\n        /* \"Utils/TransferHelper.sol\":1352:1495  require(\r... */\n      tag_119\n        /* \"#utility.yul\":8067:8293   */\n      jump\n        /* \"Utils/TransferHelper.sol\":1352:1495  require(\r... */\n    tag_316:\n        /* \"Utils/TransferHelper.sol\":1207:1503  {\r... */\n      pop\n      pop\n        /* \"Utils/TransferHelper.sol\":1073:1503  function safeTransferFrom(\r... */\n      pop\n      pop\n      pop\n      pop\n      jump\t// out\n        /* \"Utils/EnumerableSet.sol\":8831:8998  function contains(AddressSet storage set, address value) internal view returns (bool) {\r... */\n    tag_282:\n      sub(shl(0xa0, 0x01), 0x01)\n        /* \"Utils/EnumerableSet.sol\":8965:8988  uint256(uint160(value)) */\n      dup2\n      and\n        /* \"Utils/EnumerableSet.sol\":8911:8915  bool */\n      0x00\n        /* \"Utils/EnumerableSet.sol\":4367:4386  set._indexes[value] */\n      swap1\n      dup2\n      mstore\n        /* \"Utils/EnumerableSet.sol\":4367:4379  set._indexes */\n      0x01\n      dup4\n      add\n        /* \"Utils/EnumerableSet.sol\":4367:4386  set._indexes[value] */\n      0x20\n      mstore\n      0x40\n      dup2\n      keccak256\n      sload\n        /* \"Utils/EnumerableSet.sol\":4367:4391  set._indexes[value] != 0 */\n      iszero\n      iszero\n        /* \"Utils/EnumerableSet.sol\":8935:8990  _contains(set._inner, bytes32(uint256(uint160(value)))) */\n      tag_295\n        /* \"Utils/EnumerableSet.sol\":4270:4399  function _contains(Set storage set, bytes32 value) private view returns (bool) {\r... */\n      jump\n        /* \"Utils/EnumerableSet.sol\":2174:2588  function _add(Set storage set, bytes32 value) private returns (bool) {\r... */\n    tag_296:\n        /* \"Utils/EnumerableSet.sol\":2237:2241  bool */\n      0x00\n        /* \"Utils/EnumerableSet.sol\":4367:4386  set._indexes[value] */\n      dup2\n      dup2\n      mstore\n        /* \"Utils/EnumerableSet.sol\":4367:4379  set._indexes */\n      0x01\n      dup4\n      add\n        /* \"Utils/EnumerableSet.sol\":4367:4386  set._indexes[value] */\n      0x20\n      mstore\n      0x40\n      dup2\n      keccak256\n      sload\n        /* \"Utils/EnumerableSet.sol\":2254:2581  if (!_contains(set, value)) {\r... */\n      tag_324\n      jumpi\n      pop\n        /* \"Utils/EnumerableSet.sol\":2297:2320  set._values.push(value) */\n      dup2\n      sload\n      0x01\n      dup2\n      dup2\n      add\n      dup5\n      sstore\n        /* \"Utils/EnumerableSet.sol\":2297:2308  set._values */\n      0x00\n        /* \"Utils/EnumerableSet.sol\":2297:2320  set._values.push(value) */\n      dup5\n      dup2\n      mstore\n      0x20\n      dup1\n      dup3\n      keccak256\n      swap1\n      swap4\n      add\n      dup5\n      swap1\n      sstore\n        /* \"Utils/EnumerableSet.sol\":2480:2498  set._values.length */\n      dup5\n      sload\n        /* \"Utils/EnumerableSet.sol\":2458:2477  set._indexes[value] */\n      dup5\n      dup3\n      mstore\n        /* \"Utils/EnumerableSet.sol\":2458:2470  set._indexes */\n      dup3\n      dup7\n      add\n        /* \"Utils/EnumerableSet.sol\":2458:2477  set._indexes[value] */\n      swap1\n      swap4\n      mstore\n      0x40\n      swap1\n      keccak256\n        /* \"Utils/EnumerableSet.sol\":2458:2498  set._indexes[value] = set._values.length */\n      swap2\n      swap1\n      swap2\n      sstore\n        /* \"Utils/EnumerableSet.sol\":2513:2524  return true */\n      jump(tag_294)\n        /* \"Utils/EnumerableSet.sol\":2254:2581  if (!_contains(set, value)) {\r... */\n    tag_324:\n      pop\n        /* \"Utils/EnumerableSet.sol\":2564:2569  false */\n      0x00\n        /* \"Utils/EnumerableSet.sol\":2557:2569  return false */\n      jump(tag_294)\n        /* \"#utility.yul\":14:261   */\n    tag_50:\n        /* \"#utility.yul\":73:79   */\n      0x00\n        /* \"#utility.yul\":126:128   */\n      0x20\n        /* \"#utility.yul\":114:123   */\n      dup3\n        /* \"#utility.yul\":105:112   */\n      dup5\n        /* \"#utility.yul\":101:124   */\n      sub\n        /* \"#utility.yul\":97:129   */\n      slt\n        /* \"#utility.yul\":94:96   */\n      iszero\n      tag_330\n      jumpi\n        /* \"#utility.yul\":142:143   */\n      0x00\n        /* \"#utility.yul\":139:140   */\n      dup1\n        /* \"#utility.yul\":132:144   */\n      revert\n        /* \"#utility.yul\":94:96   */\n    tag_330:\n        /* \"#utility.yul\":181:190   */\n      dup2\n        /* \"#utility.yul\":168:191   */\n      calldataload\n        /* \"#utility.yul\":200:231   */\n      tag_331\n        /* \"#utility.yul\":225:230   */\n      dup2\n        /* \"#utility.yul\":200:231   */\n      tag_332\n      jump\t// in\n    tag_331:\n        /* \"#utility.yul\":250:255   */\n      swap4\n        /* \"#utility.yul\":84:261   */\n      swap3\n      pop\n      pop\n      pop\n      jump\t// out\n        /* \"#utility.yul\":266:1527   */\n    tag_66:\n        /* \"#utility.yul\":409:415   */\n      0x00\n        /* \"#utility.yul\":417:423   */\n      dup1\n        /* \"#utility.yul\":425:431   */\n      0x00\n        /* \"#utility.yul\":433:439   */\n      dup1\n        /* \"#utility.yul\":464:467   */\n      0x0180\n        /* \"#utility.yul\":508:510   */\n      dup1\n        /* \"#utility.yul\":496:505   */\n      dup7\n        /* \"#utility.yul\":487:494   */\n      dup9\n        /* \"#utility.yul\":483:506   */\n      sub\n        /* \"#utility.yul\":479:511   */\n      slt\n        /* \"#utility.yul\":476:478   */\n      iszero\n      tag_334\n      jumpi\n        /* \"#utility.yul\":524:525   */\n      0x00\n        /* \"#utility.yul\":521:522   */\n      dup1\n        /* \"#utility.yul\":514:526   */\n      revert\n        /* \"#utility.yul\":476:478   */\n    tag_334:\n        /* \"#utility.yul\":563:572   */\n      dup6\n        /* \"#utility.yul\":550:573   */\n      calldataload\n        /* \"#utility.yul\":582:613   */\n      tag_335\n        /* \"#utility.yul\":607:612   */\n      dup2\n        /* \"#utility.yul\":582:613   */\n      tag_332\n      jump\t// in\n    tag_335:\n        /* \"#utility.yul\":632:637   */\n      swap5\n      pop\n        /* \"#utility.yul\":656:658   */\n      0x20\n        /* \"#utility.yul\":695:713   */\n      dup7\n      dup2\n      add\n        /* \"#utility.yul\":682:714   */\n      calldataload\n        /* \"#utility.yul\":723:756   */\n      tag_336\n        /* \"#utility.yul\":682:714   */\n      dup2\n        /* \"#utility.yul\":723:756   */\n      tag_332\n      jump\t// in\n    tag_336:\n        /* \"#utility.yul\":775:782   */\n      swap5\n      pop\n        /* \"#utility.yul\":834:836   */\n      0x40\n        /* \"#utility.yul\":819:837   */\n      dup8\n      add\n        /* \"#utility.yul\":806:838   */\n      calldataload\n        /* \"#utility.yul\":847:880   */\n      tag_337\n        /* \"#utility.yul\":806:838   */\n      dup2\n        /* \"#utility.yul\":847:880   */\n      tag_332\n      jump\t// in\n    tag_337:\n        /* \"#utility.yul\":899:906   */\n      swap4\n      pop\n        /* \"#utility.yul\":944:947   */\n      0x7f\n        /* \"#utility.yul\":929:948   */\n      dup8\n      add\n        /* \"#utility.yul\":925:958   */\n      dup9\n      sgt\n        /* \"#utility.yul\":915:917   */\n      tag_338\n      jumpi\n        /* \"#utility.yul\":972:973   */\n      0x00\n        /* \"#utility.yul\":969:970   */\n      dup1\n        /* \"#utility.yul\":962:974   */\n      revert\n        /* \"#utility.yul\":915:917   */\n    tag_338:\n        /* \"#utility.yul\":1005:1007   */\n      0x40\n        /* \"#utility.yul\":999:1008   */\n      mload\n        /* \"#utility.yul\":1047:1050   */\n      0x0120\n        /* \"#utility.yul\":1039:1045   */\n      dup2\n        /* \"#utility.yul\":1035:1051   */\n      add\n        /* \"#utility.yul\":1117:1123   */\n      dup2\n        /* \"#utility.yul\":1105:1115   */\n      dup2\n        /* \"#utility.yul\":1102:1124   */\n      lt\n        /* \"#utility.yul\":1081:1099   */\n      0xffffffffffffffff\n        /* \"#utility.yul\":1069:1079   */\n      dup3\n        /* \"#utility.yul\":1066:1100   */\n      gt\n        /* \"#utility.yul\":1063:1125   */\n      or\n        /* \"#utility.yul\":1060:1062   */\n      iszero\n      tag_340\n      jumpi\n        /* \"#utility.yul\":1128:1146   */\n      tag_340\n      tag_341\n      jump\t// in\n    tag_340:\n        /* \"#utility.yul\":1164:1166   */\n      0x40\n        /* \"#utility.yul\":1157:1179   */\n      mstore\n        /* \"#utility.yul\":1199:1205   */\n      dup1\n        /* \"#utility.yul\":1240:1242   */\n      0x60\n        /* \"#utility.yul\":1225:1243   */\n      dup10\n      add\n        /* \"#utility.yul\":1258:1276   */\n      dup5\n      dup11\n      add\n        /* \"#utility.yul\":1255:1286   */\n      dup12\n      lt\n        /* \"#utility.yul\":1252:1254   */\n      iszero\n      tag_342\n      jumpi\n        /* \"#utility.yul\":1299:1300   */\n      0x00\n        /* \"#utility.yul\":1296:1297   */\n      dup1\n        /* \"#utility.yul\":1289:1301   */\n      revert\n        /* \"#utility.yul\":1252:1254   */\n    tag_342:\n        /* \"#utility.yul\":1321:1322   */\n      0x00\n        /* \"#utility.yul\":1312:1322   */\n      swap5\n      pop\n        /* \"#utility.yul\":1331:1496   */\n    tag_343:\n        /* \"#utility.yul\":1345:1349   */\n      0x09\n        /* \"#utility.yul\":1342:1343   */\n      dup6\n        /* \"#utility.yul\":1339:1350   */\n      lt\n        /* \"#utility.yul\":1331:1496   */\n      iszero\n      tag_345\n      jumpi\n        /* \"#utility.yul\":1404:1421   */\n      dup1\n      calldataload\n        /* \"#utility.yul\":1392:1422   */\n      dup3\n      mstore\n        /* \"#utility.yul\":1365:1366   */\n      0x01\n        /* \"#utility.yul\":1358:1367   */\n      swap5\n      swap1\n      swap5\n      add\n      swap4\n        /* \"#utility.yul\":1442:1454   */\n      swap1\n      dup4\n      add\n      swap1\n        /* \"#utility.yul\":1474:1486   */\n      dup4\n      add\n        /* \"#utility.yul\":1331:1496   */\n      jump(tag_343)\n    tag_345:\n        /* \"#utility.yul\":1335:1338   */\n      pop\n      pop\n        /* \"#utility.yul\":1515:1521   */\n      dup1\n        /* \"#utility.yul\":1505:1521   */\n      swap4\n      pop\n      pop\n      pop\n      pop\n        /* \"#utility.yul\":444:1527   */\n      swap3\n      swap6\n      swap2\n      swap5\n      pop\n      swap3\n      pop\n      jump\t// out\n        /* \"#utility.yul\":1532:1809   */\n    tag_225:\n        /* \"#utility.yul\":1599:1605   */\n      0x00\n        /* \"#utility.yul\":1652:1654   */\n      0x20\n        /* \"#utility.yul\":1640:1649   */\n      dup3\n        /* \"#utility.yul\":1631:1638   */\n      dup5\n        /* \"#utility.yul\":1627:1650   */\n      sub\n        /* \"#utility.yul\":1623:1655   */\n      slt\n        /* \"#utility.yul\":1620:1622   */\n      iszero\n      tag_347\n      jumpi\n        /* \"#utility.yul\":1668:1669   */\n      0x00\n        /* \"#utility.yul\":1665:1666   */\n      dup1\n        /* \"#utility.yul\":1658:1670   */\n      revert\n        /* \"#utility.yul\":1620:1622   */\n    tag_347:\n        /* \"#utility.yul\":1700:1709   */\n      dup2\n        /* \"#utility.yul\":1694:1710   */\n      mload\n        /* \"#utility.yul\":1753:1758   */\n      dup1\n        /* \"#utility.yul\":1746:1759   */\n      iszero\n        /* \"#utility.yul\":1739:1760   */\n      iszero\n        /* \"#utility.yul\":1732:1737   */\n      dup2\n        /* \"#utility.yul\":1729:1761   */\n      eq\n        /* \"#utility.yul\":1719:1721   */\n      tag_331\n      jumpi\n        /* \"#utility.yul\":1775:1776   */\n      0x00\n        /* \"#utility.yul\":1772:1773   */\n      dup1\n        /* \"#utility.yul\":1765:1777   */\n      revert\n        /* \"#utility.yul\":1814:1994   */\n    tag_86:\n        /* \"#utility.yul\":1873:1879   */\n      0x00\n        /* \"#utility.yul\":1926:1928   */\n      0x20\n        /* \"#utility.yul\":1914:1923   */\n      dup3\n        /* \"#utility.yul\":1905:1912   */\n      dup5\n        /* \"#utility.yul\":1901:1924   */\n      sub\n        /* \"#utility.yul\":1897:1929   */\n      slt\n        /* \"#utility.yul\":1894:1896   */\n      iszero\n      tag_350\n      jumpi\n        /* \"#utility.yul\":1942:1943   */\n      0x00\n        /* \"#utility.yul\":1939:1940   */\n      dup1\n        /* \"#utility.yul\":1932:1944   */\n      revert\n        /* \"#utility.yul\":1894:1896   */\n    tag_350:\n      pop\n        /* \"#utility.yul\":1965:1988   */\n      calldataload\n      swap2\n        /* \"#utility.yul\":1884:1994   */\n      swap1\n      pop\n      jump\t// out\n        /* \"#utility.yul\":1999:2183   */\n    tag_133:\n        /* \"#utility.yul\":2069:2075   */\n      0x00\n        /* \"#utility.yul\":2122:2124   */\n      0x20\n        /* \"#utility.yul\":2110:2119   */\n      dup3\n        /* \"#utility.yul\":2101:2108   */\n      dup5\n        /* \"#utility.yul\":2097:2120   */\n      sub\n        /* \"#utility.yul\":2093:2125   */\n      slt\n        /* \"#utility.yul\":2090:2092   */\n      iszero\n      tag_352\n      jumpi\n        /* \"#utility.yul\":2138:2139   */\n      0x00\n        /* \"#utility.yul\":2135:2136   */\n      dup1\n        /* \"#utility.yul\":2128:2140   */\n      revert\n        /* \"#utility.yul\":2090:2092   */\n    tag_352:\n      pop\n        /* \"#utility.yul\":2161:2177   */\n      mload\n      swap2\n        /* \"#utility.yul\":2080:2183   */\n      swap1\n      pop\n      jump\t// out\n        /* \"#utility.yul\":2188:2614   */\n    tag_309:\n        /* \"#utility.yul\":2317:2320   */\n      0x00\n        /* \"#utility.yul\":2355:2361   */\n      dup3\n        /* \"#utility.yul\":2349:2362   */\n      mload\n        /* \"#utility.yul\":2380:2381   */\n      0x00\n        /* \"#utility.yul\":2390:2519   */\n    tag_354:\n        /* \"#utility.yul\":2404:2410   */\n      dup2\n        /* \"#utility.yul\":2401:2402   */\n      dup2\n        /* \"#utility.yul\":2398:2411   */\n      lt\n        /* \"#utility.yul\":2390:2519   */\n      iszero\n      tag_356\n      jumpi\n        /* \"#utility.yul\":2502:2506   */\n      0x20\n        /* \"#utility.yul\":2486:2500   */\n      dup2\n      dup7\n      add\n        /* \"#utility.yul\":2482:2507   */\n      dup2\n      add\n        /* \"#utility.yul\":2476:2508   */\n      mload\n        /* \"#utility.yul\":2463:2474   */\n      dup6\n      dup4\n      add\n        /* \"#utility.yul\":2456:2509   */\n      mstore\n        /* \"#utility.yul\":2419:2431   */\n      add\n        /* \"#utility.yul\":2390:2519   */\n      jump(tag_354)\n    tag_356:\n        /* \"#utility.yul\":2537:2543   */\n      dup2\n        /* \"#utility.yul\":2534:2535   */\n      dup2\n        /* \"#utility.yul\":2531:2544   */\n      gt\n        /* \"#utility.yul\":2528:2530   */\n      iszero\n      tag_357\n      jumpi\n        /* \"#utility.yul\":2572:2573   */\n      0x00\n        /* \"#utility.yul\":2563:2569   */\n      dup3\n        /* \"#utility.yul\":2558:2561   */\n      dup6\n        /* \"#utility.yul\":2554:2570   */\n      add\n        /* \"#utility.yul\":2547:2574   */\n      mstore\n        /* \"#utility.yul\":2528:2530   */\n    tag_357:\n      pop\n        /* \"#utility.yul\":2592:2608   */\n      swap2\n      swap1\n      swap2\n      add\n      swap3\n        /* \"#utility.yul\":2325:2614   */\n      swap2\n      pop\n      pop\n      jump\t// out\n        /* \"#utility.yul\":8298:8653   */\n    tag_187:\n        /* \"#utility.yul\":8500:8502   */\n      0x20\n        /* \"#utility.yul\":8482:8503   */\n      dup1\n      dup3\n      mstore\n        /* \"#utility.yul\":8539:8541   */\n      0x1f\n        /* \"#utility.yul\":8519:8537   */\n      swap1\n      dup3\n      add\n        /* \"#utility.yul\":8512:8542   */\n      mstore\n        /* \"#utility.yul\":8578:8611   */\n      0x5265656e7472616e637947756172643a207265656e7472616e742063616c6c00\n        /* \"#utility.yul\":8573:8575   */\n      0x40\n        /* \"#utility.yul\":8558:8576   */\n      dup3\n      add\n        /* \"#utility.yul\":8551:8612   */\n      mstore\n        /* \"#utility.yul\":8644:8646   */\n      0x60\n        /* \"#utility.yul\":8629:8647   */\n      add\n      swap1\n        /* \"#utility.yul\":8472:8653   */\n      jump\t// out\n        /* \"#utility.yul\":10537:10665   */\n    tag_217:\n        /* \"#utility.yul\":10577:10580   */\n      0x00\n        /* \"#utility.yul\":10608:10609   */\n      dup3\n        /* \"#utility.yul\":10604:10610   */\n      not\n        /* \"#utility.yul\":10601:10602   */\n      dup3\n        /* \"#utility.yul\":10598:10611   */\n      gt\n        /* \"#utility.yul\":10595:10597   */\n      iszero\n      tag_381\n      jumpi\n        /* \"#utility.yul\":10614:10632   */\n      tag_381\n      tag_382\n      jump\t// in\n    tag_381:\n      pop\n        /* \"#utility.yul\":10650:10659   */\n      add\n      swap1\n        /* \"#utility.yul\":10585:10665   */\n      jump\t// out\n        /* \"#utility.yul\":10670:10887   */\n    tag_183:\n        /* \"#utility.yul\":10710:10711   */\n      0x00\n        /* \"#utility.yul\":10736:10737   */\n      dup3\n        /* \"#utility.yul\":10726:10728   */\n      tag_384\n      jumpi\n        /* \"#utility.yul\":10780:10790   */\n      0x4e487b71\n        /* \"#utility.yul\":10775:10778   */\n      0xe0\n        /* \"#utility.yul\":10771:10791   */\n      shl\n        /* \"#utility.yul\":10768:10769   */\n      0x00\n        /* \"#utility.yul\":10761:10792   */\n      mstore\n        /* \"#utility.yul\":10815:10819   */\n      0x12\n        /* \"#utility.yul\":10812:10813   */\n      0x04\n        /* \"#utility.yul\":10805:10820   */\n      mstore\n        /* \"#utility.yul\":10843:10847   */\n      0x24\n        /* \"#utility.yul\":10840:10841   */\n      0x00\n        /* \"#utility.yul\":10833:10848   */\n      revert\n        /* \"#utility.yul\":10726:10728   */\n    tag_384:\n      pop\n        /* \"#utility.yul\":10872:10881   */\n      div\n      swap1\n        /* \"#utility.yul\":10716:10887   */\n      jump\t// out\n        /* \"#utility.yul\":10892:11314   */\n    tag_385:\n        /* \"#utility.yul\":10981:10982   */\n      0x01\n        /* \"#utility.yul\":11024:11029   */\n      dup2\n        /* \"#utility.yul\":10981:10982   */\n      dup2\n        /* \"#utility.yul\":11038:11308   */\n    tag_387:\n        /* \"#utility.yul\":11059:11066   */\n      dup1\n        /* \"#utility.yul\":11049:11057   */\n      dup6\n        /* \"#utility.yul\":11046:11067   */\n      gt\n        /* \"#utility.yul\":11038:11308   */\n      iszero\n      tag_389\n      jumpi\n        /* \"#utility.yul\":11118:11122   */\n      dup2\n        /* \"#utility.yul\":11114:11115   */\n      0x00\n        /* \"#utility.yul\":11110:11116   */\n      not\n        /* \"#utility.yul\":11106:11123   */\n      div\n        /* \"#utility.yul\":11100:11104   */\n      dup3\n        /* \"#utility.yul\":11097:11124   */\n      gt\n        /* \"#utility.yul\":11094:11096   */\n      iszero\n      tag_391\n      jumpi\n        /* \"#utility.yul\":11127:11145   */\n      tag_391\n      tag_382\n      jump\t// in\n    tag_391:\n        /* \"#utility.yul\":11177:11184   */\n      dup1\n        /* \"#utility.yul\":11167:11175   */\n      dup6\n        /* \"#utility.yul\":11163:11185   */\n      and\n        /* \"#utility.yul\":11160:11162   */\n      iszero\n      tag_392\n      jumpi\n        /* \"#utility.yul\":11197:11213   */\n      swap2\n      dup2\n      mul\n      swap2\n        /* \"#utility.yul\":11160:11162   */\n    tag_392:\n        /* \"#utility.yul\":11276:11298   */\n      swap4\n      dup5\n      shr\n      swap4\n        /* \"#utility.yul\":11236:11251   */\n      swap1\n      dup1\n      mul\n      swap1\n        /* \"#utility.yul\":11038:11308   */\n      jump(tag_387)\n    tag_389:\n        /* \"#utility.yul\":11042:11045   */\n      pop\n        /* \"#utility.yul\":10956:11314   */\n      swap3\n      pop\n      swap3\n      swap1\n      pop\n      jump\t// out\n        /* \"#utility.yul\":11319:11450   */\n    tag_135:\n        /* \"#utility.yul\":11379:11384   */\n      0x00\n        /* \"#utility.yul\":11408:11444   */\n      tag_295\n        /* \"#utility.yul\":11435:11443   */\n      dup4\n        /* \"#utility.yul\":11429:11433   */\n      dup4\n        /* \"#utility.yul\":11504:11509   */\n      0x00\n        /* \"#utility.yul\":11534:11542   */\n      dup3\n        /* \"#utility.yul\":11524:11526   */\n      tag_397\n      jumpi\n      pop\n        /* \"#utility.yul\":11575:11576   */\n      0x01\n        /* \"#utility.yul\":11589:11594   */\n      jump(tag_294)\n        /* \"#utility.yul\":11524:11526   */\n    tag_397:\n        /* \"#utility.yul\":11623:11627   */\n      dup2\n        /* \"#utility.yul\":11613:11615   */\n      tag_398\n      jumpi\n      pop\n        /* \"#utility.yul\":11660:11661   */\n      0x00\n        /* \"#utility.yul\":11674:11679   */\n      jump(tag_294)\n        /* \"#utility.yul\":11613:11615   */\n    tag_398:\n        /* \"#utility.yul\":11705:11709   */\n      dup2\n        /* \"#utility.yul\":11723:11724   */\n      0x01\n        /* \"#utility.yul\":11718:11777   */\n      dup2\n      eq\n      tag_400\n      jumpi\n        /* \"#utility.yul\":11791:11792   */\n      0x02\n        /* \"#utility.yul\":11786:11916   */\n      dup2\n      eq\n      tag_401\n      jumpi\n        /* \"#utility.yul\":11698:11916   */\n      jump(tag_399)\n        /* \"#utility.yul\":11718:11777   */\n    tag_400:\n        /* \"#utility.yul\":11748:11749   */\n      0x01\n        /* \"#utility.yul\":11739:11749   */\n      swap2\n      pop\n        /* \"#utility.yul\":11762:11767   */\n      pop\n      jump(tag_294)\n        /* \"#utility.yul\":11786:11916   */\n    tag_401:\n        /* \"#utility.yul\":11823:11826   */\n      0xff\n        /* \"#utility.yul\":11813:11821   */\n      dup5\n        /* \"#utility.yul\":11810:11827   */\n      gt\n        /* \"#utility.yul\":11807:11809   */\n      iszero\n      tag_403\n      jumpi\n        /* \"#utility.yul\":11830:11848   */\n      tag_403\n      tag_382\n      jump\t// in\n    tag_403:\n      pop\n      pop\n        /* \"#utility.yul\":11886:11887   */\n      0x01\n        /* \"#utility.yul\":11872:11888   */\n      dup3\n      shl\n        /* \"#utility.yul\":11901:11906   */\n      jump(tag_294)\n        /* \"#utility.yul\":11698:11916   */\n    tag_399:\n      pop\n        /* \"#utility.yul\":12000:12002   */\n      0x20\n        /* \"#utility.yul\":11990:11998   */\n      dup4\n        /* \"#utility.yul\":11987:12003   */\n      lt\n        /* \"#utility.yul\":11981:11984   */\n      0x0133\n        /* \"#utility.yul\":11975:11979   */\n      dup4\n        /* \"#utility.yul\":11972:11985   */\n      lt\n        /* \"#utility.yul\":11968:12004   */\n      and\n        /* \"#utility.yul\":11962:11964   */\n      0x4e\n        /* \"#utility.yul\":11952:11960   */\n      dup5\n        /* \"#utility.yul\":11949:11965   */\n      lt\n        /* \"#utility.yul\":11944:11946   */\n      0x0b\n        /* \"#utility.yul\":11938:11942   */\n      dup5\n        /* \"#utility.yul\":11935:11947   */\n      lt\n        /* \"#utility.yul\":11931:11966   */\n      and\n        /* \"#utility.yul\":11928:12005   */\n      or\n        /* \"#utility.yul\":11925:11927   */\n      iszero\n      tag_404\n      jumpi\n      pop\n        /* \"#utility.yul\":12037:12056   */\n      dup2\n      dup2\n      exp\n        /* \"#utility.yul\":12069:12074   */\n      jump(tag_294)\n        /* \"#utility.yul\":11925:11927   */\n    tag_404:\n        /* \"#utility.yul\":12116:12150   */\n      tag_405\n        /* \"#utility.yul\":12141:12149   */\n      dup4\n        /* \"#utility.yul\":12135:12139   */\n      dup4\n        /* \"#utility.yul\":12116:12150   */\n      tag_385\n      jump\t// in\n    tag_405:\n        /* \"#utility.yul\":12186:12192   */\n      dup1\n        /* \"#utility.yul\":12182:12183   */\n      0x00\n        /* \"#utility.yul\":12178:12184   */\n      not\n        /* \"#utility.yul\":12174:12193   */\n      div\n        /* \"#utility.yul\":12165:12172   */\n      dup3\n        /* \"#utility.yul\":12162:12194   */\n      gt\n        /* \"#utility.yul\":12159:12161   */\n      iszero\n      tag_407\n      jumpi\n        /* \"#utility.yul\":12197:12215   */\n      tag_407\n      tag_382\n      jump\t// in\n    tag_407:\n        /* \"#utility.yul\":12235:12255   */\n      mul\n      swap4\n        /* \"#utility.yul\":11514:12261   */\n      swap3\n      pop\n      pop\n      pop\n      jump\t// out\n        /* \"#utility.yul\":12266:12434   */\n    tag_140:\n        /* \"#utility.yul\":12306:12313   */\n      0x00\n        /* \"#utility.yul\":12372:12373   */\n      dup2\n        /* \"#utility.yul\":12368:12369   */\n      0x00\n        /* \"#utility.yul\":12364:12370   */\n      not\n        /* \"#utility.yul\":12360:12374   */\n      div\n        /* \"#utility.yul\":12357:12358   */\n      dup4\n        /* \"#utility.yul\":12354:12375   */\n      gt\n        /* \"#utility.yul\":12349:12350   */\n      dup3\n        /* \"#utility.yul\":12342:12351   */\n      iszero\n        /* \"#utility.yul\":12335:12352   */\n      iszero\n        /* \"#utility.yul\":12331:12376   */\n      and\n        /* \"#utility.yul\":12328:12330   */\n      iszero\n      tag_410\n      jumpi\n        /* \"#utility.yul\":12379:12397   */\n      tag_410\n      tag_382\n      jump\t// in\n    tag_410:\n      pop\n        /* \"#utility.yul\":12419:12428   */\n      mul\n      swap1\n        /* \"#utility.yul\":12318:12434   */\n      jump\t// out\n        /* \"#utility.yul\":12439:12564   */\n    tag_194:\n        /* \"#utility.yul\":12479:12483   */\n      0x00\n        /* \"#utility.yul\":12507:12508   */\n      dup3\n        /* \"#utility.yul\":12504:12505   */\n      dup3\n        /* \"#utility.yul\":12501:12509   */\n      lt\n        /* \"#utility.yul\":12498:12500   */\n      iszero\n      tag_413\n      jumpi\n        /* \"#utility.yul\":12512:12530   */\n      tag_413\n      tag_382\n      jump\t// in\n    tag_413:\n      pop\n        /* \"#utility.yul\":12549:12558   */\n      sub\n      swap1\n        /* \"#utility.yul\":12488:12564   */\n      jump\t// out\n        /* \"#utility.yul\":12569:12704   */\n    tag_265:\n        /* \"#utility.yul\":12608:12611   */\n      0x00\n      not(0x00)\n        /* \"#utility.yul\":12629:12646   */\n      dup3\n      eq\n        /* \"#utility.yul\":12626:12628   */\n      iszero\n      tag_416\n      jumpi\n        /* \"#utility.yul\":12649:12667   */\n      tag_416\n      tag_382\n      jump\t// in\n    tag_416:\n      pop\n        /* \"#utility.yul\":12696:12697   */\n      0x01\n        /* \"#utility.yul\":12685:12698   */\n      add\n      swap1\n        /* \"#utility.yul\":12616:12704   */\n      jump\t// out\n        /* \"#utility.yul\":12709:12836   */\n    tag_382:\n        /* \"#utility.yul\":12770:12780   */\n      0x4e487b71\n        /* \"#utility.yul\":12765:12768   */\n      0xe0\n        /* \"#utility.yul\":12761:12781   */\n      shl\n        /* \"#utility.yul\":12758:12759   */\n      0x00\n        /* \"#utility.yul\":12751:12782   */\n      mstore\n        /* \"#utility.yul\":12801:12805   */\n      0x11\n        /* \"#utility.yul\":12798:12799   */\n      0x04\n        /* \"#utility.yul\":12791:12806   */\n      mstore\n        /* \"#utility.yul\":12825:12829   */\n      0x24\n        /* \"#utility.yul\":12822:12823   */\n      0x00\n        /* \"#utility.yul\":12815:12830   */\n      revert\n        /* \"#utility.yul\":12973:13100   */\n    tag_341:\n        /* \"#utility.yul\":13034:13044   */\n      0x4e487b71\n        /* \"#utility.yul\":13029:13032   */\n      0xe0\n        /* \"#utility.yul\":13025:13045   */\n      shl\n        /* \"#utility.yul\":13022:13023   */\n      0x00\n        /* \"#utility.yul\":13015:13046   */\n      mstore\n        /* \"#utility.yul\":13065:13069   */\n      0x41\n        /* \"#utility.yul\":13062:13063   */\n      0x04\n        /* \"#utility.yul\":13055:13070   */\n      mstore\n        /* \"#utility.yul\":13089:13093   */\n      0x24\n        /* \"#utility.yul\":13086:13087   */\n      0x00\n        /* \"#utility.yul\":13079:13094   */\n      revert\n        /* \"#utility.yul\":13105:13236   */\n    tag_332:\n      sub(shl(0xa0, 0x01), 0x01)\n        /* \"#utility.yul\":13180:13211   */\n      dup2\n      and\n        /* \"#utility.yul\":13170:13212   */\n      dup2\n      eq\n        /* \"#utility.yul\":13160:13162   */\n      tag_126\n      jumpi\n        /* \"#utility.yul\":13226:13227   */\n      0x00\n        /* \"#utility.yul\":13223:13224   */\n      dup1\n        /* \"#utility.yul\":13216:13228   */\n      revert\n\n    auxdata: 0xa264697066735822122008a0faa8a8110abc407a96b95e96e822cde427186e3cb8f096c4eebe9348d96464736f6c63430008050033\n}\n",
				"bytecode": {
					"linkReferences": {},
					"object": "608060405260016000556200001433620000a5565b6019805473c778417e063141139fce010982780140aa0cd5ab6001600160a01b031990911617905562000069601b736ccb41eeda5a073076f3e7dc1614c185b5fa41ed620000f7602090811b6200109717901c565b5062000099734f0b12bbf40fc182559822a5b1db6d34dbc3e016601b620000f760201b620010971790919060201c565b506014601a5562000169565b600180546001600160a01b038381166001600160a01b0319831681179093556040519116919082907f8be0079c531659141344cd1fd0a4f28419497f9722a3daafe3b4186f6b6457e090600090a35050565b60006200010e836001600160a01b03841662000117565b90505b92915050565b6000818152600183016020526040812054620001605750815460018181018455600084815260208082209093018490558454848252828601909352604090209190915562000111565b50600062000111565b61166880620001796000396000f3fe6080604052600436106101145760003560e01c80638f1eae4c116100a0578063b6b55f2511610064578063b6b55f251461039d578063cad5b0f7146103b0578063e2d3f423146103d5578063f2fde38b1461045c578063f8b2cb4f1461047c57600080fd5b80638f1eae4c146102db57806395661e70146102fb578063ab33985a14610310578063acfb235514610325578063ad5c46481461037d57600080fd5b80633b5ef2ad116100e75780633b5ef2ad1461024757806356c5f3491461025d578063715018a61461028a578063861faf5f146102a15780638da5cb5b146102a957600080fd5b806312e5d0b91461011957806318856a2f1461014e5780631df4ccfc1461020e578063200d2ed214610232575b600080fd5b34801561012557600080fd5b50600b54600c54610134919082565b604080519283526020830191909152015b60405180910390f35b34801561015a57600080fd5b50600d54600e54600f546010546011546012546013546014546015546016546017546018546101a29b6001600160a01b039081169b81169a16989796959493929160ff16908c565b604080516001600160a01b039d8e1681529b8d1660208d015299909b16988a01989098526060890196909652608088019490945260a087019290925260c086015260e0850152610100840152610120830152151561014082015261016081019190915261018001610145565b34801561021a57600080fd5b50610224601d5481565b604051908152602001610145565b34801561023e57600080fd5b506102246104a4565b34801561025357600080fd5b50610224601a5481565b34801561026957600080fd5b506102246102783660046112cc565b60036020526000908152604090205481565b34801561029657600080fd5b5061029f6104cd565b005b61029f610538565b3480156102b557600080fd5b506001546001600160a01b03165b6040516001600160a01b039091168152602001610145565b3480156102e757600080fd5b5061029f6102f63660046112f0565b610567565b34801561030757600080fd5b5061029f6108e2565b34801561031c57600080fd5b5061029f6109b6565b34801561033157600080fd5b5060045460055460065460075460085460095461035095949392919086565b604080519687526020870195909552938501929092526060840152608083015260a082015260c001610145565b34801561038957600080fd5b506019546102c3906001600160a01b031681565b61029f6103ab3660046113d7565b610bf8565b3480156103bc57600080fd5b506103c5610fbd565b6040519015158152602001610145565b3480156103e157600080fd5b5061042b6103f03660046112cc565b600260208190526000918252604090912080546001820154928201546003830154600490930154919392909160ff8082169161010090041686565b60408051968752602087019590955293850192909252606084015215156080830152151560a082015260c001610145565b34801561046857600080fd5b5061029f6104773660046112cc565b610fcf565b34801561048857600080fd5b506102246104973660046112cc565b6001600160a01b03163190565b6011546000904210156104b75750600090565b6012544211156104c75750600290565b50600190565b6001546001600160a01b0316331461052c5760405162461bcd60e51b815260206004820181905260248201527f4f776e61626c653a2063616c6c6572206973206e6f7420746865206f776e657260448201526064015b60405180910390fd5b61053660006110b5565b565b60405133904780156108fc02916000818181858888f19350505050158015610564573d6000803e3d6000fd5b50565b600d80546001600160a01b038087166001600160a01b031992831617909255600e80548684169083168117909155600f8054938616939092169290921790556040805163313ce56760e01b8152905163313ce56791600480820192602092909190829003018186803b1580156105dc57600080fd5b505afa1580156105f0573d6000803e3d6000fd5b505050506040513d601f19601f8201168201806040525081019061061491906113f0565b61061f90600a6114f8565b815161062b91906115a0565b6010556020808201516011556040808301516012556060830151601355600f54815163313ce56760e01b815291516001600160a01b039091169263313ce5679260048082019391829003018186803b15801561068657600080fd5b505afa15801561069a573d6000803e3d6000fd5b505050506040513d601f19601f820116820180604052508101906106be91906113f0565b6106c990600a6114f8565b60808201516106d891906115a0565b60145560a081015160155560c0810151601655600f546040805163313ce56760e01b815290516001600160a01b039092169163313ce56791600480820192602092909190829003018186803b15801561073057600080fd5b505afa158015610744573d6000803e3d6000fd5b505050506040513d601f19601f8201168201806040525081019061076891906113f0565b61077390600a6114f8565b60e082015161078291906115a0565b600b55600f546040805163313ce56760e01b815290516001600160a01b039092169163313ce56791600480820192602092909190829003018186803b1580156107ca57600080fd5b505afa1580156107de573d6000803e3d6000fd5b505050506040513d601f19601f8201168201806040525081019061080291906113f0565b61080d90600a6114f8565b61010082015161081d91906115a0565b600c55600f546019546017805460ff19166001600160a01b0392831692909316918214929092179091556040805163313ce56760e01b8152905163313ce56791600480820192602092909190829003018186803b15801561087d57600080fd5b505afa158015610891573d6000803e3d6000fd5b505050506040513d601f19601f820116820180604052508101906108b591906113f0565b6108c090600a6114f8565b600b546010546108cf91611107565b6108d99190611493565b60185550505050565b600260005414156109055760405162461bcd60e51b815260040161052390611444565b60026000556109126104a4565b6001146109505760405162461bcd60e51b815260206004820152600c60248201526b53616c65207375636573737360a01b6044820152606401610523565b600754600454600091610962916115bf565b116109af5760405162461bcd60e51b815260206004820152601b60248201527f416c6c20746f6b656e20686173206265656e20776974686472617700000000006044820152606401610523565b6001600055565b600260005414156109d95760405162461bcd60e51b815260040161052390611444565b60026000556109e66104a4565b600114610a245760405162461bcd60e51b815260206004820152600c60248201526b53616c65207375636573737360a01b6044820152606401610523565b600654600554600091610a36916115bf565b11610a835760405162461bcd60e51b815260206004820152601b60248201527f416c6c20746f6b656e20686173206265656e20776974686472617700000000006044820152606401610523565b3360009081526002602052604090206001810154610af35760405162461bcd60e51b815260206004820152602760248201527f596f7520776974686472617720616c6c206f722068617665206e6f7420626f7560448201526619da1d081e595d60ca1b6064820152608401610523565b6000610b296103e8610b238460010154610b1d600d600901546103e861111390919063ffffffff16565b90611107565b9061111f565b90508060046002016000828254610b40919061147b565b9250508190555080826003016000828254610b5b919061147b565b909155505060008083556001830155600e5460405163a9059cbb60e01b8152336004820152602481018390526001600160a01b039091169063a9059cbb90604401602060405180830381600087803b158015610bb657600080fd5b505af1158015610bca573d6000803e3d6000fd5b505050506040513d601f19601f82011682018060405250810190610bee91906113b5565b5050600160005550565b60026000541415610c1b5760405162461bcd60e51b815260040161052390611444565b6002600055610c286104a4565b600114610c645760405162461bcd60e51b815260206004820152600a6024820152694e6f742061637469766560b01b6044820152606401610523565b336000908152600260205260408120601354909183918291906103e890831015610cc35760405162461bcd60e51b815260206004820152601060248201526f4e6f7420656e6f7567682076616c756560801b6044820152606401610523565b601454831115610d065760405162461bcd60e51b815260206004820152600e60248201526d4f766572666c6f772076616c756560901b6044820152606401610523565b610d0e610fbd565b610d3e57610d2f81610b2385610b1d601a548661111390919063ffffffff16565b9250610d3b83856115bf565b91505b8454601454600091610d4f916115bf565b600454601854919250600091610d6591906115bf565b90506000818311610d765782610d78565b815b905080861115610dbc5760405162461bcd60e51b815260206004820152600f60248201526e53616c65206973207375636365737360881b6044820152606401610523565b6000610e63600d60020160009054906101000a90046001600160a01b03166001600160a01b031663313ce5676040518163ffffffff1660e01b815260040160206040518083038186803b158015610e1257600080fd5b505afa158015610e26573d6000803e3d6000fd5b505050506040513d601f19601f82011682018060405250810190610e4a91906113f0565b610e5590600a6114f8565b601054610b23908a90611107565b905087896000016000828254610e79919061147b565b9250508190555080896001016000828254610e94919061147b565b909155505060048054889190600090610eae90849061147b565b909155505060058054829190600090610ec890849061147b565b909155505060088054906000610edd836115d6565b90915550503360009081526003602052604081208054889290610f0190849061147b565b9250508190555085601d6000828254610f1a919061147b565b909155505060175460ff168015610f39575034610f37878961147b565b105b15610f8157336108fc87610f4d8a346115bf565b610f5791906115bf565b6040518115909202916000818181858888f19350505050158015610f7f573d6000803e3d6000fd5b505b60175460ff16610fac57600f54610fac906001600160a01b03163330610fa78a8c61147b565b61112b565b505060016000555050505050505050565b6000610fca601b3361125b565b905090565b6001546001600160a01b031633146110295760405162461bcd60e51b815260206004820181905260248201527f4f776e61626c653a2063616c6c6572206973206e6f7420746865206f776e65726044820152606401610523565b6001600160a01b03811661108e5760405162461bcd60e51b815260206004820152602660248201527f4f776e61626c653a206e6577206f776e657220697320746865207a65726f206160448201526564647265737360d01b6064820152608401610523565b610564816110b5565b60006110ac836001600160a01b03841661127d565b90505b92915050565b600180546001600160a01b038381166001600160a01b0319831681179093556040519116919082907f8be0079c531659141344cd1fd0a4f28419497f9722a3daafe3b4186f6b6457e090600090a35050565b60006110ac82846115a0565b60006110ac82846115bf565b60006110ac8284611493565b604080516001600160a01b0385811660248301528481166044830152606480830185905283518084039091018152608490920183526020820180516001600160e01b03166323b872dd60e01b179052915160009283929088169161118f9190611409565b6000604051808303816000865af19150503d80600081146111cc576040519150601f19603f3d011682016040523d82523d6000602084013e6111d1565b606091505b50915091508180156111fb5750805115806111fb5750808060200190518101906111fb91906113b5565b6112535760405162461bcd60e51b8152602060048201526024808201527f5472616e7366657248656c7065723a205452414e534645525f46524f4d5f46416044820152631253115160e21b6064820152608401610523565b505050505050565b6001600160a01b038116600090815260018301602052604081205415156110ac565b60008181526001830160205260408120546112c4575081546001818101845560008481526020808220909301849055845484825282860190935260409020919091556110af565b5060006110af565b6000602082840312156112de57600080fd5b81356112e98161161d565b9392505050565b60008060008061018080868803121561130857600080fd5b85356113138161161d565b94506020868101356113248161161d565b945060408701356113348161161d565b9350607f8701881361134557600080fd5b604051610120810181811067ffffffffffffffff8211171561136957611369611607565b6040528060608901848a018b101561138057600080fd5b600094505b60098510156113a4578035825260019490940193908301908301611385565b505080935050505092959194509250565b6000602082840312156113c757600080fd5b815180151581146112e957600080fd5b6000602082840312156113e957600080fd5b5035919050565b60006020828403121561140257600080fd5b5051919050565b6000825160005b8181101561142a5760208186018101518583015201611410565b81811115611439576000828501525b509190910192915050565b6020808252601f908201527f5265656e7472616e637947756172643a207265656e7472616e742063616c6c00604082015260600190565b6000821982111561148e5761148e6115f1565b500190565b6000826114b057634e487b7160e01b600052601260045260246000fd5b500490565b600181815b808511156114f05781600019048211156114d6576114d66115f1565b808516156114e357918102915b93841c93908002906114ba565b509250929050565b60006110ac838360008261150e575060016110af565b8161151b575060006110af565b8160018114611531576002811461153b57611557565b60019150506110af565b60ff84111561154c5761154c6115f1565b50506001821b6110af565b5060208310610133831016604e8410600b841016171561157a575081810a6110af565b61158483836114b5565b8060001904821115611598576115986115f1565b029392505050565b60008160001904831182151516156115ba576115ba6115f1565b500290565b6000828210156115d1576115d16115f1565b500390565b60006000198214156115ea576115ea6115f1565b5060010190565b634e487b7160e01b600052601160045260246000fd5b634e487b7160e01b600052604160045260246000fd5b6001600160a01b038116811461056457600080fdfea264697066735822122008a0faa8a8110abc407a96b95e96e822cde427186e3cb8f096c4eebe9348d96464736f6c63430008050033",
					"opcodes": "PUSH1 0x80 PUSH1 0x40 MSTORE PUSH1 0x1 PUSH1 0x0 SSTORE PUSH3 0x14 CALLER PUSH3 0xA5 JUMP JUMPDEST PUSH1 0x19 DUP1 SLOAD PUSH20 0xC778417E063141139FCE010982780140AA0CD5AB PUSH1 0x1 PUSH1 0x1 PUSH1 0xA0 SHL SUB NOT SWAP1 SWAP2 AND OR SWAP1 SSTORE PUSH3 0x69 PUSH1 0x1B PUSH20 0x6CCB41EEDA5A073076F3E7DC1614C185B5FA41ED PUSH3 0xF7 PUSH1 0x20 SWAP1 DUP2 SHL PUSH3 0x1097 OR SWAP1 SHR JUMP JUMPDEST POP PUSH3 0x99 PUSH20 0x4F0B12BBF40FC182559822A5B1DB6D34DBC3E016 PUSH1 0x1B PUSH3 0xF7 PUSH1 0x20 SHL PUSH3 0x1097 OR SWAP1 SWAP2 SWAP1 PUSH1 0x20 SHR JUMP JUMPDEST POP PUSH1 0x14 PUSH1 0x1A SSTORE PUSH3 0x169 JUMP JUMPDEST PUSH1 0x1 DUP1 SLOAD PUSH1 0x1 PUSH1 0x1 PUSH1 0xA0 SHL SUB DUP4 DUP2 AND PUSH1 0x1 PUSH1 0x1 PUSH1 0xA0 SHL SUB NOT DUP4 AND DUP2 OR SWAP1 SWAP4 SSTORE PUSH1 0x40 MLOAD SWAP2 AND SWAP2 SWAP1 DUP3 SWAP1 PUSH32 0x8BE0079C531659141344CD1FD0A4F28419497F9722A3DAAFE3B4186F6B6457E0 SWAP1 PUSH1 0x0 SWAP1 LOG3 POP POP JUMP JUMPDEST PUSH1 0x0 PUSH3 0x10E DUP4 PUSH1 0x1 PUSH1 0x1 PUSH1 0xA0 SHL SUB DUP5 AND PUSH3 0x117 JUMP JUMPDEST SWAP1 POP JUMPDEST SWAP3 SWAP2 POP POP JUMP JUMPDEST PUSH1 0x0 DUP2 DUP2 MSTORE PUSH1 0x1 DUP4 ADD PUSH1 0x20 MSTORE PUSH1 0x40 DUP2 KECCAK256 SLOAD PUSH3 0x160 JUMPI POP DUP2 SLOAD PUSH1 0x1 DUP2 DUP2 ADD DUP5 SSTORE PUSH1 0x0 DUP5 DUP2 MSTORE PUSH1 0x20 DUP1 DUP3 KECCAK256 SWAP1 SWAP4 ADD DUP5 SWAP1 SSTORE DUP5 SLOAD DUP5 DUP3 MSTORE DUP3 DUP7 ADD SWAP1 SWAP4 MSTORE PUSH1 0x40 SWAP1 KECCAK256 SWAP2 SWAP1 SWAP2 SSTORE PUSH3 0x111 JUMP JUMPDEST POP PUSH1 0x0 PUSH3 0x111 JUMP JUMPDEST PUSH2 0x1668 DUP1 PUSH3 0x179 PUSH1 0x0 CODECOPY PUSH1 0x0 RETURN INVALID PUSH1 0x80 PUSH1 0x40 MSTORE PUSH1 0x4 CALLDATASIZE LT PUSH2 0x114 JUMPI PUSH1 0x0 CALLDATALOAD PUSH1 0xE0 SHR DUP1 PUSH4 0x8F1EAE4C GT PUSH2 0xA0 JUMPI DUP1 PUSH4 0xB6B55F25 GT PUSH2 0x64 JUMPI DUP1 PUSH4 0xB6B55F25 EQ PUSH2 0x39D JUMPI DUP1 PUSH4 0xCAD5B0F7 EQ PUSH2 0x3B0 JUMPI DUP1 PUSH4 0xE2D3F423 EQ PUSH2 0x3D5 JUMPI DUP1 PUSH4 0xF2FDE38B EQ PUSH2 0x45C JUMPI DUP1 PUSH4 0xF8B2CB4F EQ PUSH2 0x47C JUMPI PUSH1 0x0 DUP1 REVERT JUMPDEST DUP1 PUSH4 0x8F1EAE4C EQ PUSH2 0x2DB JUMPI DUP1 PUSH4 0x95661E70 EQ PUSH2 0x2FB JUMPI DUP1 PUSH4 0xAB33985A EQ PUSH2 0x310 JUMPI DUP1 PUSH4 0xACFB2355 EQ PUSH2 0x325 JUMPI DUP1 PUSH4 0xAD5C4648 EQ PUSH2 0x37D JUMPI PUSH1 0x0 DUP1 REVERT JUMPDEST DUP1 PUSH4 0x3B5EF2AD GT PUSH2 0xE7 JUMPI DUP1 PUSH4 0x3B5EF2AD EQ PUSH2 0x247 JUMPI DUP1 PUSH4 0x56C5F349 EQ PUSH2 0x25D JUMPI DUP1 PUSH4 0x715018A6 EQ PUSH2 0x28A JUMPI DUP1 PUSH4 0x861FAF5F EQ PUSH2 0x2A1 JUMPI DUP1 PUSH4 0x8DA5CB5B EQ PUSH2 0x2A9 JUMPI PUSH1 0x0 DUP1 REVERT JUMPDEST DUP1 PUSH4 0x12E5D0B9 EQ PUSH2 0x119 JUMPI DUP1 PUSH4 0x18856A2F EQ PUSH2 0x14E JUMPI DUP1 PUSH4 0x1DF4CCFC EQ PUSH2 0x20E JUMPI DUP1 PUSH4 0x200D2ED2 EQ PUSH2 0x232 JUMPI JUMPDEST PUSH1 0x0 DUP1 REVERT JUMPDEST CALLVALUE DUP1 ISZERO PUSH2 0x125 JUMPI PUSH1 0x0 DUP1 REVERT JUMPDEST POP PUSH1 0xB SLOAD PUSH1 0xC SLOAD PUSH2 0x134 SWAP2 SWAP1 DUP3 JUMP JUMPDEST PUSH1 0x40 DUP1 MLOAD SWAP3 DUP4 MSTORE PUSH1 0x20 DUP4 ADD SWAP2 SWAP1 SWAP2 MSTORE ADD JUMPDEST PUSH1 0x40 MLOAD DUP1 SWAP2 SUB SWAP1 RETURN JUMPDEST CALLVALUE DUP1 ISZERO PUSH2 0x15A JUMPI PUSH1 0x0 DUP1 REVERT JUMPDEST POP PUSH1 0xD SLOAD PUSH1 0xE SLOAD PUSH1 0xF SLOAD PUSH1 0x10 SLOAD PUSH1 0x11 SLOAD PUSH1 0x12 SLOAD PUSH1 0x13 SLOAD PUSH1 0x14 SLOAD PUSH1 0x15 SLOAD PUSH1 0x16 SLOAD PUSH1 0x17 SLOAD PUSH1 0x18 SLOAD PUSH2 0x1A2 SWAP12 PUSH1 0x1 PUSH1 0x1 PUSH1 0xA0 SHL SUB SWAP1 DUP2 AND SWAP12 DUP2 AND SWAP11 AND SWAP9 SWAP8 SWAP7 SWAP6 SWAP5 SWAP4 SWAP3 SWAP2 PUSH1 0xFF AND SWAP1 DUP13 JUMP JUMPDEST PUSH1 0x40 DUP1 MLOAD PUSH1 0x1 PUSH1 0x1 PUSH1 0xA0 SHL SUB SWAP14 DUP15 AND DUP2 MSTORE SWAP12 DUP14 AND PUSH1 0x20 DUP14 ADD MSTORE SWAP10 SWAP1 SWAP12 AND SWAP9 DUP11 ADD SWAP9 SWAP1 SWAP9 MSTORE PUSH1 0x60 DUP10 ADD SWAP7 SWAP1 SWAP7 MSTORE PUSH1 0x80 DUP9 ADD SWAP5 SWAP1 SWAP5 MSTORE PUSH1 0xA0 DUP8 ADD SWAP3 SWAP1 SWAP3 MSTORE PUSH1 0xC0 DUP7 ADD MSTORE PUSH1 0xE0 DUP6 ADD MSTORE PUSH2 0x100 DUP5 ADD MSTORE PUSH2 0x120 DUP4 ADD MSTORE ISZERO ISZERO PUSH2 0x140 DUP3 ADD MSTORE PUSH2 0x160 DUP2 ADD SWAP2 SWAP1 SWAP2 MSTORE PUSH2 0x180 ADD PUSH2 0x145 JUMP JUMPDEST CALLVALUE DUP1 ISZERO PUSH2 0x21A JUMPI PUSH1 0x0 DUP1 REVERT JUMPDEST POP PUSH2 0x224 PUSH1 0x1D SLOAD DUP2 JUMP JUMPDEST PUSH1 0x40 MLOAD SWAP1 DUP2 MSTORE PUSH1 0x20 ADD PUSH2 0x145 JUMP JUMPDEST CALLVALUE DUP1 ISZERO PUSH2 0x23E JUMPI PUSH1 0x0 DUP1 REVERT JUMPDEST POP PUSH2 0x224 PUSH2 0x4A4 JUMP JUMPDEST CALLVALUE DUP1 ISZERO PUSH2 0x253 JUMPI PUSH1 0x0 DUP1 REVERT JUMPDEST POP PUSH2 0x224 PUSH1 0x1A SLOAD DUP2 JUMP JUMPDEST CALLVALUE DUP1 ISZERO PUSH2 0x269 JUMPI PUSH1 0x0 DUP1 REVERT JUMPDEST POP PUSH2 0x224 PUSH2 0x278 CALLDATASIZE PUSH1 0x4 PUSH2 0x12CC JUMP JUMPDEST PUSH1 0x3 PUSH1 0x20 MSTORE PUSH1 0x0 SWAP1 DUP2 MSTORE PUSH1 0x40 SWAP1 KECCAK256 SLOAD DUP2 JUMP JUMPDEST CALLVALUE DUP1 ISZERO PUSH2 0x296 JUMPI PUSH1 0x0 DUP1 REVERT JUMPDEST POP PUSH2 0x29F PUSH2 0x4CD JUMP JUMPDEST STOP JUMPDEST PUSH2 0x29F PUSH2 0x538 JUMP JUMPDEST CALLVALUE DUP1 ISZERO PUSH2 0x2B5 JUMPI PUSH1 0x0 DUP1 REVERT JUMPDEST POP PUSH1 0x1 SLOAD PUSH1 0x1 PUSH1 0x1 PUSH1 0xA0 SHL SUB AND JUMPDEST PUSH1 0x40 MLOAD PUSH1 0x1 PUSH1 0x1 PUSH1 0xA0 SHL SUB SWAP1 SWAP2 AND DUP2 MSTORE PUSH1 0x20 ADD PUSH2 0x145 JUMP JUMPDEST CALLVALUE DUP1 ISZERO PUSH2 0x2E7 JUMPI PUSH1 0x0 DUP1 REVERT JUMPDEST POP PUSH2 0x29F PUSH2 0x2F6 CALLDATASIZE PUSH1 0x4 PUSH2 0x12F0 JUMP JUMPDEST PUSH2 0x567 JUMP JUMPDEST CALLVALUE DUP1 ISZERO PUSH2 0x307 JUMPI PUSH1 0x0 DUP1 REVERT JUMPDEST POP PUSH2 0x29F PUSH2 0x8E2 JUMP JUMPDEST CALLVALUE DUP1 ISZERO PUSH2 0x31C JUMPI PUSH1 0x0 DUP1 REVERT JUMPDEST POP PUSH2 0x29F PUSH2 0x9B6 JUMP JUMPDEST CALLVALUE DUP1 ISZERO PUSH2 0x331 JUMPI PUSH1 0x0 DUP1 REVERT JUMPDEST POP PUSH1 0x4 SLOAD PUSH1 0x5 SLOAD PUSH1 0x6 SLOAD PUSH1 0x7 SLOAD PUSH1 0x8 SLOAD PUSH1 0x9 SLOAD PUSH2 0x350 SWAP6 SWAP5 SWAP4 SWAP3 SWAP2 SWAP1 DUP7 JUMP JUMPDEST PUSH1 0x40 DUP1 MLOAD SWAP7 DUP8 MSTORE PUSH1 0x20 DUP8 ADD SWAP6 SWAP1 SWAP6 MSTORE SWAP4 DUP6 ADD SWAP3 SWAP1 SWAP3 MSTORE PUSH1 0x60 DUP5 ADD MSTORE PUSH1 0x80 DUP4 ADD MSTORE PUSH1 0xA0 DUP3 ADD MSTORE PUSH1 0xC0 ADD PUSH2 0x145 JUMP JUMPDEST CALLVALUE DUP1 ISZERO PUSH2 0x389 JUMPI PUSH1 0x0 DUP1 REVERT JUMPDEST POP PUSH1 0x19 SLOAD PUSH2 0x2C3 SWAP1 PUSH1 0x1 PUSH1 0x1 PUSH1 0xA0 SHL SUB AND DUP2 JUMP JUMPDEST PUSH2 0x29F PUSH2 0x3AB CALLDATASIZE PUSH1 0x4 PUSH2 0x13D7 JUMP JUMPDEST PUSH2 0xBF8 JUMP JUMPDEST CALLVALUE DUP1 ISZERO PUSH2 0x3BC JUMPI PUSH1 0x0 DUP1 REVERT JUMPDEST POP PUSH2 0x3C5 PUSH2 0xFBD JUMP JUMPDEST PUSH1 0x40 MLOAD SWAP1 ISZERO ISZERO DUP2 MSTORE PUSH1 0x20 ADD PUSH2 0x145 JUMP JUMPDEST CALLVALUE DUP1 ISZERO PUSH2 0x3E1 JUMPI PUSH1 0x0 DUP1 REVERT JUMPDEST POP PUSH2 0x42B PUSH2 0x3F0 CALLDATASIZE PUSH1 0x4 PUSH2 0x12CC JUMP JUMPDEST PUSH1 0x2 PUSH1 0x20 DUP2 SWAP1 MSTORE PUSH1 0x0 SWAP2 DUP3 MSTORE PUSH1 0x40 SWAP1 SWAP2 KECCAK256 DUP1 SLOAD PUSH1 0x1 DUP3 ADD SLOAD SWAP3 DUP3 ADD SLOAD PUSH1 0x3 DUP4 ADD SLOAD PUSH1 0x4 SWAP1 SWAP4 ADD SLOAD SWAP2 SWAP4 SWAP3 SWAP1 SWAP2 PUSH1 0xFF DUP1 DUP3 AND SWAP2 PUSH2 0x100 SWAP1 DIV AND DUP7 JUMP JUMPDEST PUSH1 0x40 DUP1 MLOAD SWAP7 DUP8 MSTORE PUSH1 0x20 DUP8 ADD SWAP6 SWAP1 SWAP6 MSTORE SWAP4 DUP6 ADD SWAP3 SWAP1 SWAP3 MSTORE PUSH1 0x60 DUP5 ADD MSTORE ISZERO ISZERO PUSH1 0x80 DUP4 ADD MSTORE ISZERO ISZERO PUSH1 0xA0 DUP3 ADD MSTORE PUSH1 0xC0 ADD PUSH2 0x145 JUMP JUMPDEST CALLVALUE DUP1 ISZERO PUSH2 0x468 JUMPI PUSH1 0x0 DUP1 REVERT JUMPDEST POP PUSH2 0x29F PUSH2 0x477 CALLDATASIZE PUSH1 0x4 PUSH2 0x12CC JUMP JUMPDEST PUSH2 0xFCF JUMP JUMPDEST CALLVALUE DUP1 ISZERO PUSH2 0x488 JUMPI PUSH1 0x0 DUP1 REVERT JUMPDEST POP PUSH2 0x224 PUSH2 0x497 CALLDATASIZE PUSH1 0x4 PUSH2 0x12CC JUMP JUMPDEST PUSH1 0x1 PUSH1 0x1 PUSH1 0xA0 SHL SUB AND BALANCE SWAP1 JUMP JUMPDEST PUSH1 0x11 SLOAD PUSH1 0x0 SWAP1 TIMESTAMP LT ISZERO PUSH2 0x4B7 JUMPI POP PUSH1 0x0 SWAP1 JUMP JUMPDEST PUSH1 0x12 SLOAD TIMESTAMP GT ISZERO PUSH2 0x4C7 JUMPI POP PUSH1 0x2 SWAP1 JUMP JUMPDEST POP PUSH1 0x1 SWAP1 JUMP JUMPDEST PUSH1 0x1 SLOAD PUSH1 0x1 PUSH1 0x1 PUSH1 0xA0 SHL SUB AND CALLER EQ PUSH2 0x52C JUMPI PUSH1 0x40 MLOAD PUSH3 0x461BCD PUSH1 0xE5 SHL DUP2 MSTORE PUSH1 0x20 PUSH1 0x4 DUP3 ADD DUP2 SWAP1 MSTORE PUSH1 0x24 DUP3 ADD MSTORE PUSH32 0x4F776E61626C653A2063616C6C6572206973206E6F7420746865206F776E6572 PUSH1 0x44 DUP3 ADD MSTORE PUSH1 0x64 ADD JUMPDEST PUSH1 0x40 MLOAD DUP1 SWAP2 SUB SWAP1 REVERT JUMPDEST PUSH2 0x536 PUSH1 0x0 PUSH2 0x10B5 JUMP JUMPDEST JUMP JUMPDEST PUSH1 0x40 MLOAD CALLER SWAP1 SELFBALANCE DUP1 ISZERO PUSH2 0x8FC MUL SWAP2 PUSH1 0x0 DUP2 DUP2 DUP2 DUP6 DUP9 DUP9 CALL SWAP4 POP POP POP POP ISZERO DUP1 ISZERO PUSH2 0x564 JUMPI RETURNDATASIZE PUSH1 0x0 DUP1 RETURNDATACOPY RETURNDATASIZE PUSH1 0x0 REVERT JUMPDEST POP JUMP JUMPDEST PUSH1 0xD DUP1 SLOAD PUSH1 0x1 PUSH1 0x1 PUSH1 0xA0 SHL SUB DUP1 DUP8 AND PUSH1 0x1 PUSH1 0x1 PUSH1 0xA0 SHL SUB NOT SWAP3 DUP4 AND OR SWAP1 SWAP3 SSTORE PUSH1 0xE DUP1 SLOAD DUP7 DUP5 AND SWAP1 DUP4 AND DUP2 OR SWAP1 SWAP2 SSTORE PUSH1 0xF DUP1 SLOAD SWAP4 DUP7 AND SWAP4 SWAP1 SWAP3 AND SWAP3 SWAP1 SWAP3 OR SWAP1 SSTORE PUSH1 0x40 DUP1 MLOAD PUSH4 0x313CE567 PUSH1 0xE0 SHL DUP2 MSTORE SWAP1 MLOAD PUSH4 0x313CE567 SWAP2 PUSH1 0x4 DUP1 DUP3 ADD SWAP3 PUSH1 0x20 SWAP3 SWAP1 SWAP2 SWAP1 DUP3 SWAP1 SUB ADD DUP2 DUP7 DUP1 EXTCODESIZE ISZERO DUP1 ISZERO PUSH2 0x5DC JUMPI PUSH1 0x0 DUP1 REVERT JUMPDEST POP GAS STATICCALL ISZERO DUP1 ISZERO PUSH2 0x5F0 JUMPI RETURNDATASIZE PUSH1 0x0 DUP1 RETURNDATACOPY RETURNDATASIZE PUSH1 0x0 REVERT JUMPDEST POP POP POP POP PUSH1 0x40 MLOAD RETURNDATASIZE PUSH1 0x1F NOT PUSH1 0x1F DUP3 ADD AND DUP3 ADD DUP1 PUSH1 0x40 MSTORE POP DUP2 ADD SWAP1 PUSH2 0x614 SWAP2 SWAP1 PUSH2 0x13F0 JUMP JUMPDEST PUSH2 0x61F SWAP1 PUSH1 0xA PUSH2 0x14F8 JUMP JUMPDEST DUP2 MLOAD PUSH2 0x62B SWAP2 SWAP1 PUSH2 0x15A0 JUMP JUMPDEST PUSH1 0x10 SSTORE PUSH1 0x20 DUP1 DUP3 ADD MLOAD PUSH1 0x11 SSTORE PUSH1 0x40 DUP1 DUP4 ADD MLOAD PUSH1 0x12 SSTORE PUSH1 0x60 DUP4 ADD MLOAD PUSH1 0x13 SSTORE PUSH1 0xF SLOAD DUP2 MLOAD PUSH4 0x313CE567 PUSH1 0xE0 SHL DUP2 MSTORE SWAP2 MLOAD PUSH1 0x1 PUSH1 0x1 PUSH1 0xA0 SHL SUB SWAP1 SWAP2 AND SWAP3 PUSH4 0x313CE567 SWAP3 PUSH1 0x4 DUP1 DUP3 ADD SWAP4 SWAP2 DUP3 SWAP1 SUB ADD DUP2 DUP7 DUP1 EXTCODESIZE ISZERO DUP1 ISZERO PUSH2 0x686 JUMPI PUSH1 0x0 DUP1 REVERT JUMPDEST POP GAS STATICCALL ISZERO DUP1 ISZERO PUSH2 0x69A JUMPI RETURNDATASIZE PUSH1 0x0 DUP1 RETURNDATACOPY RETURNDATASIZE PUSH1 0x0 REVERT JUMPDEST POP POP POP POP PUSH1 0x40 MLOAD RETURNDATASIZE PUSH1 0x1F NOT PUSH1 0x1F DUP3 ADD AND DUP3 ADD DUP1 PUSH1 0x40 MSTORE POP DUP2 ADD SWAP1 PUSH2 0x6BE SWAP2 SWAP1 PUSH2 0x13F0 JUMP JUMPDEST PUSH2 0x6C9 SWAP1 PUSH1 0xA PUSH2 0x14F8 JUMP JUMPDEST PUSH1 0x80 DUP3 ADD MLOAD PUSH2 0x6D8 SWAP2 SWAP1 PUSH2 0x15A0 JUMP JUMPDEST PUSH1 0x14 SSTORE PUSH1 0xA0 DUP2 ADD MLOAD PUSH1 0x15 SSTORE PUSH1 0xC0 DUP2 ADD MLOAD PUSH1 0x16 SSTORE PUSH1 0xF SLOAD PUSH1 0x40 DUP1 MLOAD PUSH4 0x313CE567 PUSH1 0xE0 SHL DUP2 MSTORE SWAP1 MLOAD PUSH1 0x1 PUSH1 0x1 PUSH1 0xA0 SHL SUB SWAP1 SWAP3 AND SWAP2 PUSH4 0x313CE567 SWAP2 PUSH1 0x4 DUP1 DUP3 ADD SWAP3 PUSH1 0x20 SWAP3 SWAP1 SWAP2 SWAP1 DUP3 SWAP1 SUB ADD DUP2 DUP7 DUP1 EXTCODESIZE ISZERO DUP1 ISZERO PUSH2 0x730 JUMPI PUSH1 0x0 DUP1 REVERT JUMPDEST POP GAS STATICCALL ISZERO DUP1 ISZERO PUSH2 0x744 JUMPI RETURNDATASIZE PUSH1 0x0 DUP1 RETURNDATACOPY RETURNDATASIZE PUSH1 0x0 REVERT JUMPDEST POP POP POP POP PUSH1 0x40 MLOAD RETURNDATASIZE PUSH1 0x1F NOT PUSH1 0x1F DUP3 ADD AND DUP3 ADD DUP1 PUSH1 0x40 MSTORE POP DUP2 ADD SWAP1 PUSH2 0x768 SWAP2 SWAP1 PUSH2 0x13F0 JUMP JUMPDEST PUSH2 0x773 SWAP1 PUSH1 0xA PUSH2 0x14F8 JUMP JUMPDEST PUSH1 0xE0 DUP3 ADD MLOAD PUSH2 0x782 SWAP2 SWAP1 PUSH2 0x15A0 JUMP JUMPDEST PUSH1 0xB SSTORE PUSH1 0xF SLOAD PUSH1 0x40 DUP1 MLOAD PUSH4 0x313CE567 PUSH1 0xE0 SHL DUP2 MSTORE SWAP1 MLOAD PUSH1 0x1 PUSH1 0x1 PUSH1 0xA0 SHL SUB SWAP1 SWAP3 AND SWAP2 PUSH4 0x313CE567 SWAP2 PUSH1 0x4 DUP1 DUP3 ADD SWAP3 PUSH1 0x20 SWAP3 SWAP1 SWAP2 SWAP1 DUP3 SWAP1 SUB ADD DUP2 DUP7 DUP1 EXTCODESIZE ISZERO DUP1 ISZERO PUSH2 0x7CA JUMPI PUSH1 0x0 DUP1 REVERT JUMPDEST POP GAS STATICCALL ISZERO DUP1 ISZERO PUSH2 0x7DE JUMPI RETURNDATASIZE PUSH1 0x0 DUP1 RETURNDATACOPY RETURNDATASIZE PUSH1 0x0 REVERT JUMPDEST POP POP POP POP PUSH1 0x40 MLOAD RETURNDATASIZE PUSH1 0x1F NOT PUSH1 0x1F DUP3 ADD AND DUP3 ADD DUP1 PUSH1 0x40 MSTORE POP DUP2 ADD SWAP1 PUSH2 0x802 SWAP2 SWAP1 PUSH2 0x13F0 JUMP JUMPDEST PUSH2 0x80D SWAP1 PUSH1 0xA PUSH2 0x14F8 JUMP JUMPDEST PUSH2 0x100 DUP3 ADD MLOAD PUSH2 0x81D SWAP2 SWAP1 PUSH2 0x15A0 JUMP JUMPDEST PUSH1 0xC SSTORE PUSH1 0xF SLOAD PUSH1 0x19 SLOAD PUSH1 0x17 DUP1 SLOAD PUSH1 0xFF NOT AND PUSH1 0x1 PUSH1 0x1 PUSH1 0xA0 SHL SUB SWAP3 DUP4 AND SWAP3 SWAP1 SWAP4 AND SWAP2 DUP3 EQ SWAP3 SWAP1 SWAP3 OR SWAP1 SWAP2 SSTORE PUSH1 0x40 DUP1 MLOAD PUSH4 0x313CE567 PUSH1 0xE0 SHL DUP2 MSTORE SWAP1 MLOAD PUSH4 0x313CE567 SWAP2 PUSH1 0x4 DUP1 DUP3 ADD SWAP3 PUSH1 0x20 SWAP3 SWAP1 SWAP2 SWAP1 DUP3 SWAP1 SUB ADD DUP2 DUP7 DUP1 EXTCODESIZE ISZERO DUP1 ISZERO PUSH2 0x87D JUMPI PUSH1 0x0 DUP1 REVERT JUMPDEST POP GAS STATICCALL ISZERO DUP1 ISZERO PUSH2 0x891 JUMPI RETURNDATASIZE PUSH1 0x0 DUP1 RETURNDATACOPY RETURNDATASIZE PUSH1 0x0 REVERT JUMPDEST POP POP POP POP PUSH1 0x40 MLOAD RETURNDATASIZE PUSH1 0x1F NOT PUSH1 0x1F DUP3 ADD AND DUP3 ADD DUP1 PUSH1 0x40 MSTORE POP DUP2 ADD SWAP1 PUSH2 0x8B5 SWAP2 SWAP1 PUSH2 0x13F0 JUMP JUMPDEST PUSH2 0x8C0 SWAP1 PUSH1 0xA PUSH2 0x14F8 JUMP JUMPDEST PUSH1 0xB SLOAD PUSH1 0x10 SLOAD PUSH2 0x8CF SWAP2 PUSH2 0x1107 JUMP JUMPDEST PUSH2 0x8D9 SWAP2 SWAP1 PUSH2 0x1493 JUMP JUMPDEST PUSH1 0x18 SSTORE POP POP POP POP JUMP JUMPDEST PUSH1 0x2 PUSH1 0x0 SLOAD EQ ISZERO PUSH2 0x905 JUMPI PUSH1 0x40 MLOAD PUSH3 0x461BCD PUSH1 0xE5 SHL DUP2 MSTORE PUSH1 0x4 ADD PUSH2 0x523 SWAP1 PUSH2 0x1444 JUMP JUMPDEST PUSH1 0x2 PUSH1 0x0 SSTORE PUSH2 0x912 PUSH2 0x4A4 JUMP JUMPDEST PUSH1 0x1 EQ PUSH2 0x950 JUMPI PUSH1 0x40 MLOAD PUSH3 0x461BCD PUSH1 0xE5 SHL DUP2 MSTORE PUSH1 0x20 PUSH1 0x4 DUP3 ADD MSTORE PUSH1 0xC PUSH1 0x24 DUP3 ADD MSTORE PUSH12 0x53616C652073756365737373 PUSH1 0xA0 SHL PUSH1 0x44 DUP3 ADD MSTORE PUSH1 0x64 ADD PUSH2 0x523 JUMP JUMPDEST PUSH1 0x7 SLOAD PUSH1 0x4 SLOAD PUSH1 0x0 SWAP2 PUSH2 0x962 SWAP2 PUSH2 0x15BF JUMP JUMPDEST GT PUSH2 0x9AF JUMPI PUSH1 0x40 MLOAD PUSH3 0x461BCD PUSH1 0xE5 SHL DUP2 MSTORE PUSH1 0x20 PUSH1 0x4 DUP3 ADD MSTORE PUSH1 0x1B PUSH1 0x24 DUP3 ADD MSTORE PUSH32 0x416C6C20746F6B656E20686173206265656E2077697468647261770000000000 PUSH1 0x44 DUP3 ADD MSTORE PUSH1 0x64 ADD PUSH2 0x523 JUMP JUMPDEST PUSH1 0x1 PUSH1 0x0 SSTORE JUMP JUMPDEST PUSH1 0x2 PUSH1 0x0 SLOAD EQ ISZERO PUSH2 0x9D9 JUMPI PUSH1 0x40 MLOAD PUSH3 0x461BCD PUSH1 0xE5 SHL DUP2 MSTORE PUSH1 0x4 ADD PUSH2 0x523 SWAP1 PUSH2 0x1444 JUMP JUMPDEST PUSH1 0x2 PUSH1 0x0 SSTORE PUSH2 0x9E6 PUSH2 0x4A4 JUMP JUMPDEST PUSH1 0x1 EQ PUSH2 0xA24 JUMPI PUSH1 0x40 MLOAD PUSH3 0x461BCD PUSH1 0xE5 SHL DUP2 MSTORE PUSH1 0x20 PUSH1 0x4 DUP3 ADD MSTORE PUSH1 0xC PUSH1 0x24 DUP3 ADD MSTORE PUSH12 0x53616C652073756365737373 PUSH1 0xA0 SHL PUSH1 0x44 DUP3 ADD MSTORE PUSH1 0x64 ADD PUSH2 0x523 JUMP JUMPDEST PUSH1 0x6 SLOAD PUSH1 0x5 SLOAD PUSH1 0x0 SWAP2 PUSH2 0xA36 SWAP2 PUSH2 0x15BF JUMP JUMPDEST GT PUSH2 0xA83 JUMPI PUSH1 0x40 MLOAD PUSH3 0x461BCD PUSH1 0xE5 SHL DUP2 MSTORE PUSH1 0x20 PUSH1 0x4 DUP3 ADD MSTORE PUSH1 0x1B PUSH1 0x24 DUP3 ADD MSTORE PUSH32 0x416C6C20746F6B656E20686173206265656E2077697468647261770000000000 PUSH1 0x44 DUP3 ADD MSTORE PUSH1 0x64 ADD PUSH2 0x523 JUMP JUMPDEST CALLER PUSH1 0x0 SWAP1 DUP2 MSTORE PUSH1 0x2 PUSH1 0x20 MSTORE PUSH1 0x40 SWAP1 KECCAK256 PUSH1 0x1 DUP2 ADD SLOAD PUSH2 0xAF3 JUMPI PUSH1 0x40 MLOAD PUSH3 0x461BCD PUSH1 0xE5 SHL DUP2 MSTORE PUSH1 0x20 PUSH1 0x4 DUP3 ADD MSTORE PUSH1 0x27 PUSH1 0x24 DUP3 ADD MSTORE PUSH32 0x596F7520776974686472617720616C6C206F722068617665206E6F7420626F75 PUSH1 0x44 DUP3 ADD MSTORE PUSH7 0x19DA1D081E595D PUSH1 0xCA SHL PUSH1 0x64 DUP3 ADD MSTORE PUSH1 0x84 ADD PUSH2 0x523 JUMP JUMPDEST PUSH1 0x0 PUSH2 0xB29 PUSH2 0x3E8 PUSH2 0xB23 DUP5 PUSH1 0x1 ADD SLOAD PUSH2 0xB1D PUSH1 0xD PUSH1 0x9 ADD SLOAD PUSH2 0x3E8 PUSH2 0x1113 SWAP1 SWAP2 SWAP1 PUSH4 0xFFFFFFFF AND JUMP JUMPDEST SWAP1 PUSH2 0x1107 JUMP JUMPDEST SWAP1 PUSH2 0x111F JUMP JUMPDEST SWAP1 POP DUP1 PUSH1 0x4 PUSH1 0x2 ADD PUSH1 0x0 DUP3 DUP3 SLOAD PUSH2 0xB40 SWAP2 SWAP1 PUSH2 0x147B JUMP JUMPDEST SWAP3 POP POP DUP2 SWAP1 SSTORE POP DUP1 DUP3 PUSH1 0x3 ADD PUSH1 0x0 DUP3 DUP3 SLOAD PUSH2 0xB5B SWAP2 SWAP1 PUSH2 0x147B JUMP JUMPDEST SWAP1 SWAP2 SSTORE POP POP PUSH1 0x0 DUP1 DUP4 SSTORE PUSH1 0x1 DUP4 ADD SSTORE PUSH1 0xE SLOAD PUSH1 0x40 MLOAD PUSH4 0xA9059CBB PUSH1 0xE0 SHL DUP2 MSTORE CALLER PUSH1 0x4 DUP3 ADD MSTORE PUSH1 0x24 DUP2 ADD DUP4 SWAP1 MSTORE PUSH1 0x1 PUSH1 0x1 PUSH1 0xA0 SHL SUB SWAP1 SWAP2 AND SWAP1 PUSH4 0xA9059CBB SWAP1 PUSH1 0x44 ADD PUSH1 0x20 PUSH1 0x40 MLOAD DUP1 DUP4 SUB DUP2 PUSH1 0x0 DUP8 DUP1 EXTCODESIZE ISZERO DUP1 ISZERO PUSH2 0xBB6 JUMPI PUSH1 0x0 DUP1 REVERT JUMPDEST POP GAS CALL ISZERO DUP1 ISZERO PUSH2 0xBCA JUMPI RETURNDATASIZE PUSH1 0x0 DUP1 RETURNDATACOPY RETURNDATASIZE PUSH1 0x0 REVERT JUMPDEST POP POP POP POP PUSH1 0x40 MLOAD RETURNDATASIZE PUSH1 0x1F NOT PUSH1 0x1F DUP3 ADD AND DUP3 ADD DUP1 PUSH1 0x40 MSTORE POP DUP2 ADD SWAP1 PUSH2 0xBEE SWAP2 SWAP1 PUSH2 0x13B5 JUMP JUMPDEST POP POP PUSH1 0x1 PUSH1 0x0 SSTORE POP JUMP JUMPDEST PUSH1 0x2 PUSH1 0x0 SLOAD EQ ISZERO PUSH2 0xC1B JUMPI PUSH1 0x40 MLOAD PUSH3 0x461BCD PUSH1 0xE5 SHL DUP2 MSTORE PUSH1 0x4 ADD PUSH2 0x523 SWAP1 PUSH2 0x1444 JUMP JUMPDEST PUSH1 0x2 PUSH1 0x0 SSTORE PUSH2 0xC28 PUSH2 0x4A4 JUMP JUMPDEST PUSH1 0x1 EQ PUSH2 0xC64 JUMPI PUSH1 0x40 MLOAD PUSH3 0x461BCD PUSH1 0xE5 SHL DUP2 MSTORE PUSH1 0x20 PUSH1 0x4 DUP3 ADD MSTORE PUSH1 0xA PUSH1 0x24 DUP3 ADD MSTORE PUSH10 0x4E6F7420616374697665 PUSH1 0xB0 SHL PUSH1 0x44 DUP3 ADD MSTORE PUSH1 0x64 ADD PUSH2 0x523 JUMP JUMPDEST CALLER PUSH1 0x0 SWAP1 DUP2 MSTORE PUSH1 0x2 PUSH1 0x20 MSTORE PUSH1 0x40 DUP2 KECCAK256 PUSH1 0x13 SLOAD SWAP1 SWAP2 DUP4 SWAP2 DUP3 SWAP2 SWAP1 PUSH2 0x3E8 SWAP1 DUP4 LT ISZERO PUSH2 0xCC3 JUMPI PUSH1 0x40 MLOAD PUSH3 0x461BCD PUSH1 0xE5 SHL DUP2 MSTORE PUSH1 0x20 PUSH1 0x4 DUP3 ADD MSTORE PUSH1 0x10 PUSH1 0x24 DUP3 ADD MSTORE PUSH16 0x4E6F7420656E6F7567682076616C7565 PUSH1 0x80 SHL PUSH1 0x44 DUP3 ADD MSTORE PUSH1 0x64 ADD PUSH2 0x523 JUMP JUMPDEST PUSH1 0x14 SLOAD DUP4 GT ISZERO PUSH2 0xD06 JUMPI PUSH1 0x40 MLOAD PUSH3 0x461BCD PUSH1 0xE5 SHL DUP2 MSTORE PUSH1 0x20 PUSH1 0x4 DUP3 ADD MSTORE PUSH1 0xE PUSH1 0x24 DUP3 ADD MSTORE PUSH14 0x4F766572666C6F772076616C7565 PUSH1 0x90 SHL PUSH1 0x44 DUP3 ADD MSTORE PUSH1 0x64 ADD PUSH2 0x523 JUMP JUMPDEST PUSH2 0xD0E PUSH2 0xFBD JUMP JUMPDEST PUSH2 0xD3E JUMPI PUSH2 0xD2F DUP2 PUSH2 0xB23 DUP6 PUSH2 0xB1D PUSH1 0x1A SLOAD DUP7 PUSH2 0x1113 SWAP1 SWAP2 SWAP1 PUSH4 0xFFFFFFFF AND JUMP JUMPDEST SWAP3 POP PUSH2 0xD3B DUP4 DUP6 PUSH2 0x15BF JUMP JUMPDEST SWAP2 POP JUMPDEST DUP5 SLOAD PUSH1 0x14 SLOAD PUSH1 0x0 SWAP2 PUSH2 0xD4F SWAP2 PUSH2 0x15BF JUMP JUMPDEST PUSH1 0x4 SLOAD PUSH1 0x18 SLOAD SWAP2 SWAP3 POP PUSH1 0x0 SWAP2 PUSH2 0xD65 SWAP2 SWAP1 PUSH2 0x15BF JUMP JUMPDEST SWAP1 POP PUSH1 0x0 DUP2 DUP4 GT PUSH2 0xD76 JUMPI DUP3 PUSH2 0xD78 JUMP JUMPDEST DUP2 JUMPDEST SWAP1 POP DUP1 DUP7 GT ISZERO PUSH2 0xDBC JUMPI PUSH1 0x40 MLOAD PUSH3 0x461BCD PUSH1 0xE5 SHL DUP2 MSTORE PUSH1 0x20 PUSH1 0x4 DUP3 ADD MSTORE PUSH1 0xF PUSH1 0x24 DUP3 ADD MSTORE PUSH15 0x53616C652069732073756363657373 PUSH1 0x88 SHL PUSH1 0x44 DUP3 ADD MSTORE PUSH1 0x64 ADD PUSH2 0x523 JUMP JUMPDEST PUSH1 0x0 PUSH2 0xE63 PUSH1 0xD PUSH1 0x2 ADD PUSH1 0x0 SWAP1 SLOAD SWAP1 PUSH2 0x100 EXP SWAP1 DIV PUSH1 0x1 PUSH1 0x1 PUSH1 0xA0 SHL SUB AND PUSH1 0x1 PUSH1 0x1 PUSH1 0xA0 SHL SUB AND PUSH4 0x313CE567 PUSH1 0x40 MLOAD DUP2 PUSH4 0xFFFFFFFF AND PUSH1 0xE0 SHL DUP2 MSTORE PUSH1 0x4 ADD PUSH1 0x20 PUSH1 0x40 MLOAD DUP1 DUP4 SUB DUP2 DUP7 DUP1 EXTCODESIZE ISZERO DUP1 ISZERO PUSH2 0xE12 JUMPI PUSH1 0x0 DUP1 REVERT JUMPDEST POP GAS STATICCALL ISZERO DUP1 ISZERO PUSH2 0xE26 JUMPI RETURNDATASIZE PUSH1 0x0 DUP1 RETURNDATACOPY RETURNDATASIZE PUSH1 0x0 REVERT JUMPDEST POP POP POP POP PUSH1 0x40 MLOAD RETURNDATASIZE PUSH1 0x1F NOT PUSH1 0x1F DUP3 ADD AND DUP3 ADD DUP1 PUSH1 0x40 MSTORE POP DUP2 ADD SWAP1 PUSH2 0xE4A SWAP2 SWAP1 PUSH2 0x13F0 JUMP JUMPDEST PUSH2 0xE55 SWAP1 PUSH1 0xA PUSH2 0x14F8 JUMP JUMPDEST PUSH1 0x10 SLOAD PUSH2 0xB23 SWAP1 DUP11 SWAP1 PUSH2 0x1107 JUMP JUMPDEST SWAP1 POP DUP8 DUP10 PUSH1 0x0 ADD PUSH1 0x0 DUP3 DUP3 SLOAD PUSH2 0xE79 SWAP2 SWAP1 PUSH2 0x147B JUMP JUMPDEST SWAP3 POP POP DUP2 SWAP1 SSTORE POP DUP1 DUP10 PUSH1 0x1 ADD PUSH1 0x0 DUP3 DUP3 SLOAD PUSH2 0xE94 SWAP2 SWAP1 PUSH2 0x147B JUMP JUMPDEST SWAP1 SWAP2 SSTORE POP POP PUSH1 0x4 DUP1 SLOAD DUP9 SWAP2 SWAP1 PUSH1 0x0 SWAP1 PUSH2 0xEAE SWAP1 DUP5 SWAP1 PUSH2 0x147B JUMP JUMPDEST SWAP1 SWAP2 SSTORE POP POP PUSH1 0x5 DUP1 SLOAD DUP3 SWAP2 SWAP1 PUSH1 0x0 SWAP1 PUSH2 0xEC8 SWAP1 DUP5 SWAP1 PUSH2 0x147B JUMP JUMPDEST SWAP1 SWAP2 SSTORE POP POP PUSH1 0x8 DUP1 SLOAD SWAP1 PUSH1 0x0 PUSH2 0xEDD DUP4 PUSH2 0x15D6 JUMP JUMPDEST SWAP1 SWAP2 SSTORE POP POP CALLER PUSH1 0x0 SWAP1 DUP2 MSTORE PUSH1 0x3 PUSH1 0x20 MSTORE PUSH1 0x40 DUP2 KECCAK256 DUP1 SLOAD DUP9 SWAP3 SWAP1 PUSH2 0xF01 SWAP1 DUP5 SWAP1 PUSH2 0x147B JUMP JUMPDEST SWAP3 POP POP DUP2 SWAP1 SSTORE POP DUP6 PUSH1 0x1D PUSH1 0x0 DUP3 DUP3 SLOAD PUSH2 0xF1A SWAP2 SWAP1 PUSH2 0x147B JUMP JUMPDEST SWAP1 SWAP2 SSTORE POP POP PUSH1 0x17 SLOAD PUSH1 0xFF AND DUP1 ISZERO PUSH2 0xF39 JUMPI POP CALLVALUE PUSH2 0xF37 DUP8 DUP10 PUSH2 0x147B JUMP JUMPDEST LT JUMPDEST ISZERO PUSH2 0xF81 JUMPI CALLER PUSH2 0x8FC DUP8 PUSH2 0xF4D DUP11 CALLVALUE PUSH2 0x15BF JUMP JUMPDEST PUSH2 0xF57 SWAP2 SWAP1 PUSH2 0x15BF JUMP JUMPDEST PUSH1 0x40 MLOAD DUP2 ISZERO SWAP1 SWAP3 MUL SWAP2 PUSH1 0x0 DUP2 DUP2 DUP2 DUP6 DUP9 DUP9 CALL SWAP4 POP POP POP POP ISZERO DUP1 ISZERO PUSH2 0xF7F JUMPI RETURNDATASIZE PUSH1 0x0 DUP1 RETURNDATACOPY RETURNDATASIZE PUSH1 0x0 REVERT JUMPDEST POP JUMPDEST PUSH1 0x17 SLOAD PUSH1 0xFF AND PUSH2 0xFAC JUMPI PUSH1 0xF SLOAD PUSH2 0xFAC SWAP1 PUSH1 0x1 PUSH1 0x1 PUSH1 0xA0 SHL SUB AND CALLER ADDRESS PUSH2 0xFA7 DUP11 DUP13 PUSH2 0x147B JUMP JUMPDEST PUSH2 0x112B JUMP JUMPDEST POP POP PUSH1 0x1 PUSH1 0x0 SSTORE POP POP POP POP POP POP POP POP JUMP JUMPDEST PUSH1 0x0 PUSH2 0xFCA PUSH1 0x1B CALLER PUSH2 0x125B JUMP JUMPDEST SWAP1 POP SWAP1 JUMP JUMPDEST PUSH1 0x1 SLOAD PUSH1 0x1 PUSH1 0x1 PUSH1 0xA0 SHL SUB AND CALLER EQ PUSH2 0x1029 JUMPI PUSH1 0x40 MLOAD PUSH3 0x461BCD PUSH1 0xE5 SHL DUP2 MSTORE PUSH1 0x20 PUSH1 0x4 DUP3 ADD DUP2 SWAP1 MSTORE PUSH1 0x24 DUP3 ADD MSTORE PUSH32 0x4F776E61626C653A2063616C6C6572206973206E6F7420746865206F776E6572 PUSH1 0x44 DUP3 ADD MSTORE PUSH1 0x64 ADD PUSH2 0x523 JUMP JUMPDEST PUSH1 0x1 PUSH1 0x1 PUSH1 0xA0 SHL SUB DUP2 AND PUSH2 0x108E JUMPI PUSH1 0x40 MLOAD PUSH3 0x461BCD PUSH1 0xE5 SHL DUP2 MSTORE PUSH1 0x20 PUSH1 0x4 DUP3 ADD MSTORE PUSH1 0x26 PUSH1 0x24 DUP3 ADD MSTORE PUSH32 0x4F776E61626C653A206E6577206F776E657220697320746865207A65726F2061 PUSH1 0x44 DUP3 ADD MSTORE PUSH6 0x646472657373 PUSH1 0xD0 SHL PUSH1 0x64 DUP3 ADD MSTORE PUSH1 0x84 ADD PUSH2 0x523 JUMP JUMPDEST PUSH2 0x564 DUP2 PUSH2 0x10B5 JUMP JUMPDEST PUSH1 0x0 PUSH2 0x10AC DUP4 PUSH1 0x1 PUSH1 0x1 PUSH1 0xA0 SHL SUB DUP5 AND PUSH2 0x127D JUMP JUMPDEST SWAP1 POP JUMPDEST SWAP3 SWAP2 POP POP JUMP JUMPDEST PUSH1 0x1 DUP1 SLOAD PUSH1 0x1 PUSH1 0x1 PUSH1 0xA0 SHL SUB DUP4 DUP2 AND PUSH1 0x1 PUSH1 0x1 PUSH1 0xA0 SHL SUB NOT DUP4 AND DUP2 OR SWAP1 SWAP4 SSTORE PUSH1 0x40 MLOAD SWAP2 AND SWAP2 SWAP1 DUP3 SWAP1 PUSH32 0x8BE0079C531659141344CD1FD0A4F28419497F9722A3DAAFE3B4186F6B6457E0 SWAP1 PUSH1 0x0 SWAP1 LOG3 POP POP JUMP JUMPDEST PUSH1 0x0 PUSH2 0x10AC DUP3 DUP5 PUSH2 0x15A0 JUMP JUMPDEST PUSH1 0x0 PUSH2 0x10AC DUP3 DUP5 PUSH2 0x15BF JUMP JUMPDEST PUSH1 0x0 PUSH2 0x10AC DUP3 DUP5 PUSH2 0x1493 JUMP JUMPDEST PUSH1 0x40 DUP1 MLOAD PUSH1 0x1 PUSH1 0x1 PUSH1 0xA0 SHL SUB DUP6 DUP2 AND PUSH1 0x24 DUP4 ADD MSTORE DUP5 DUP2 AND PUSH1 0x44 DUP4 ADD MSTORE PUSH1 0x64 DUP1 DUP4 ADD DUP6 SWAP1 MSTORE DUP4 MLOAD DUP1 DUP5 SUB SWAP1 SWAP2 ADD DUP2 MSTORE PUSH1 0x84 SWAP1 SWAP3 ADD DUP4 MSTORE PUSH1 0x20 DUP3 ADD DUP1 MLOAD PUSH1 0x1 PUSH1 0x1 PUSH1 0xE0 SHL SUB AND PUSH4 0x23B872DD PUSH1 0xE0 SHL OR SWAP1 MSTORE SWAP2 MLOAD PUSH1 0x0 SWAP3 DUP4 SWAP3 SWAP1 DUP9 AND SWAP2 PUSH2 0x118F SWAP2 SWAP1 PUSH2 0x1409 JUMP JUMPDEST PUSH1 0x0 PUSH1 0x40 MLOAD DUP1 DUP4 SUB DUP2 PUSH1 0x0 DUP7 GAS CALL SWAP2 POP POP RETURNDATASIZE DUP1 PUSH1 0x0 DUP2 EQ PUSH2 0x11CC JUMPI PUSH1 0x40 MLOAD SWAP2 POP PUSH1 0x1F NOT PUSH1 0x3F RETURNDATASIZE ADD AND DUP3 ADD PUSH1 0x40 MSTORE RETURNDATASIZE DUP3 MSTORE RETURNDATASIZE PUSH1 0x0 PUSH1 0x20 DUP5 ADD RETURNDATACOPY PUSH2 0x11D1 JUMP JUMPDEST PUSH1 0x60 SWAP2 POP JUMPDEST POP SWAP2 POP SWAP2 POP DUP2 DUP1 ISZERO PUSH2 0x11FB JUMPI POP DUP1 MLOAD ISZERO DUP1 PUSH2 0x11FB JUMPI POP DUP1 DUP1 PUSH1 0x20 ADD SWAP1 MLOAD DUP2 ADD SWAP1 PUSH2 0x11FB SWAP2 SWAP1 PUSH2 0x13B5 JUMP JUMPDEST PUSH2 0x1253 JUMPI PUSH1 0x40 MLOAD PUSH3 0x461BCD PUSH1 0xE5 SHL DUP2 MSTORE PUSH1 0x20 PUSH1 0x4 DUP3 ADD MSTORE PUSH1 0x24 DUP1 DUP3 ADD MSTORE PUSH32 0x5472616E7366657248656C7065723A205452414E534645525F46524F4D5F4641 PUSH1 0x44 DUP3 ADD MSTORE PUSH4 0x12531151 PUSH1 0xE2 SHL PUSH1 0x64 DUP3 ADD MSTORE PUSH1 0x84 ADD PUSH2 0x523 JUMP JUMPDEST POP POP POP POP POP POP JUMP JUMPDEST PUSH1 0x1 PUSH1 0x1 PUSH1 0xA0 SHL SUB DUP2 AND PUSH1 0x0 SWAP1 DUP2 MSTORE PUSH1 0x1 DUP4 ADD PUSH1 0x20 MSTORE PUSH1 0x40 DUP2 KECCAK256 SLOAD ISZERO ISZERO PUSH2 0x10AC JUMP JUMPDEST PUSH1 0x0 DUP2 DUP2 MSTORE PUSH1 0x1 DUP4 ADD PUSH1 0x20 MSTORE PUSH1 0x40 DUP2 KECCAK256 SLOAD PUSH2 0x12C4 JUMPI POP DUP2 SLOAD PUSH1 0x1 DUP2 DUP2 ADD DUP5 SSTORE PUSH1 0x0 DUP5 DUP2 MSTORE PUSH1 0x20 DUP1 DUP3 KECCAK256 SWAP1 SWAP4 ADD DUP5 SWAP1 SSTORE DUP5 SLOAD DUP5 DUP3 MSTORE DUP3 DUP7 ADD SWAP1 SWAP4 MSTORE PUSH1 0x40 SWAP1 KECCAK256 SWAP2 SWAP1 SWAP2 SSTORE PUSH2 0x10AF JUMP JUMPDEST POP PUSH1 0x0 PUSH2 0x10AF JUMP JUMPDEST PUSH1 0x0 PUSH1 0x20 DUP3 DUP5 SUB SLT ISZERO PUSH2 0x12DE JUMPI PUSH1 0x0 DUP1 REVERT JUMPDEST DUP2 CALLDATALOAD PUSH2 0x12E9 DUP2 PUSH2 0x161D JUMP JUMPDEST SWAP4 SWAP3 POP POP POP JUMP JUMPDEST PUSH1 0x0 DUP1 PUSH1 0x0 DUP1 PUSH2 0x180 DUP1 DUP7 DUP9 SUB SLT ISZERO PUSH2 0x1308 JUMPI PUSH1 0x0 DUP1 REVERT JUMPDEST DUP6 CALLDATALOAD PUSH2 0x1313 DUP2 PUSH2 0x161D JUMP JUMPDEST SWAP5 POP PUSH1 0x20 DUP7 DUP2 ADD CALLDATALOAD PUSH2 0x1324 DUP2 PUSH2 0x161D JUMP JUMPDEST SWAP5 POP PUSH1 0x40 DUP8 ADD CALLDATALOAD PUSH2 0x1334 DUP2 PUSH2 0x161D JUMP JUMPDEST SWAP4 POP PUSH1 0x7F DUP8 ADD DUP9 SGT PUSH2 0x1345 JUMPI PUSH1 0x0 DUP1 REVERT JUMPDEST PUSH1 0x40 MLOAD PUSH2 0x120 DUP2 ADD DUP2 DUP2 LT PUSH8 0xFFFFFFFFFFFFFFFF DUP3 GT OR ISZERO PUSH2 0x1369 JUMPI PUSH2 0x1369 PUSH2 0x1607 JUMP JUMPDEST PUSH1 0x40 MSTORE DUP1 PUSH1 0x60 DUP10 ADD DUP5 DUP11 ADD DUP12 LT ISZERO PUSH2 0x1380 JUMPI PUSH1 0x0 DUP1 REVERT JUMPDEST PUSH1 0x0 SWAP5 POP JUMPDEST PUSH1 0x9 DUP6 LT ISZERO PUSH2 0x13A4 JUMPI DUP1 CALLDATALOAD DUP3 MSTORE PUSH1 0x1 SWAP5 SWAP1 SWAP5 ADD SWAP4 SWAP1 DUP4 ADD SWAP1 DUP4 ADD PUSH2 0x1385 JUMP JUMPDEST POP POP DUP1 SWAP4 POP POP POP POP SWAP3 SWAP6 SWAP2 SWAP5 POP SWAP3 POP JUMP JUMPDEST PUSH1 0x0 PUSH1 0x20 DUP3 DUP5 SUB SLT ISZERO PUSH2 0x13C7 JUMPI PUSH1 0x0 DUP1 REVERT JUMPDEST DUP2 MLOAD DUP1 ISZERO ISZERO DUP2 EQ PUSH2 0x12E9 JUMPI PUSH1 0x0 DUP1 REVERT JUMPDEST PUSH1 0x0 PUSH1 0x20 DUP3 DUP5 SUB SLT ISZERO PUSH2 0x13E9 JUMPI PUSH1 0x0 DUP1 REVERT JUMPDEST POP CALLDATALOAD SWAP2 SWAP1 POP JUMP JUMPDEST PUSH1 0x0 PUSH1 0x20 DUP3 DUP5 SUB SLT ISZERO PUSH2 0x1402 JUMPI PUSH1 0x0 DUP1 REVERT JUMPDEST POP MLOAD SWAP2 SWAP1 POP JUMP JUMPDEST PUSH1 0x0 DUP3 MLOAD PUSH1 0x0 JUMPDEST DUP2 DUP2 LT ISZERO PUSH2 0x142A JUMPI PUSH1 0x20 DUP2 DUP7 ADD DUP2 ADD MLOAD DUP6 DUP4 ADD MSTORE ADD PUSH2 0x1410 JUMP JUMPDEST DUP2 DUP2 GT ISZERO PUSH2 0x1439 JUMPI PUSH1 0x0 DUP3 DUP6 ADD MSTORE JUMPDEST POP SWAP2 SWAP1 SWAP2 ADD SWAP3 SWAP2 POP POP JUMP JUMPDEST PUSH1 0x20 DUP1 DUP3 MSTORE PUSH1 0x1F SWAP1 DUP3 ADD MSTORE PUSH32 0x5265656E7472616E637947756172643A207265656E7472616E742063616C6C00 PUSH1 0x40 DUP3 ADD MSTORE PUSH1 0x60 ADD SWAP1 JUMP JUMPDEST PUSH1 0x0 DUP3 NOT DUP3 GT ISZERO PUSH2 0x148E JUMPI PUSH2 0x148E PUSH2 0x15F1 JUMP JUMPDEST POP ADD SWAP1 JUMP JUMPDEST PUSH1 0x0 DUP3 PUSH2 0x14B0 JUMPI PUSH4 0x4E487B71 PUSH1 0xE0 SHL PUSH1 0x0 MSTORE PUSH1 0x12 PUSH1 0x4 MSTORE PUSH1 0x24 PUSH1 0x0 REVERT JUMPDEST POP DIV SWAP1 JUMP JUMPDEST PUSH1 0x1 DUP2 DUP2 JUMPDEST DUP1 DUP6 GT ISZERO PUSH2 0x14F0 JUMPI DUP2 PUSH1 0x0 NOT DIV DUP3 GT ISZERO PUSH2 0x14D6 JUMPI PUSH2 0x14D6 PUSH2 0x15F1 JUMP JUMPDEST DUP1 DUP6 AND ISZERO PUSH2 0x14E3 JUMPI SWAP2 DUP2 MUL SWAP2 JUMPDEST SWAP4 DUP5 SHR SWAP4 SWAP1 DUP1 MUL SWAP1 PUSH2 0x14BA JUMP JUMPDEST POP SWAP3 POP SWAP3 SWAP1 POP JUMP JUMPDEST PUSH1 0x0 PUSH2 0x10AC DUP4 DUP4 PUSH1 0x0 DUP3 PUSH2 0x150E JUMPI POP PUSH1 0x1 PUSH2 0x10AF JUMP JUMPDEST DUP2 PUSH2 0x151B JUMPI POP PUSH1 0x0 PUSH2 0x10AF JUMP JUMPDEST DUP2 PUSH1 0x1 DUP2 EQ PUSH2 0x1531 JUMPI PUSH1 0x2 DUP2 EQ PUSH2 0x153B JUMPI PUSH2 0x1557 JUMP JUMPDEST PUSH1 0x1 SWAP2 POP POP PUSH2 0x10AF JUMP JUMPDEST PUSH1 0xFF DUP5 GT ISZERO PUSH2 0x154C JUMPI PUSH2 0x154C PUSH2 0x15F1 JUMP JUMPDEST POP POP PUSH1 0x1 DUP3 SHL PUSH2 0x10AF JUMP JUMPDEST POP PUSH1 0x20 DUP4 LT PUSH2 0x133 DUP4 LT AND PUSH1 0x4E DUP5 LT PUSH1 0xB DUP5 LT AND OR ISZERO PUSH2 0x157A JUMPI POP DUP2 DUP2 EXP PUSH2 0x10AF JUMP JUMPDEST PUSH2 0x1584 DUP4 DUP4 PUSH2 0x14B5 JUMP JUMPDEST DUP1 PUSH1 0x0 NOT DIV DUP3 GT ISZERO PUSH2 0x1598 JUMPI PUSH2 0x1598 PUSH2 0x15F1 JUMP JUMPDEST MUL SWAP4 SWAP3 POP POP POP JUMP JUMPDEST PUSH1 0x0 DUP2 PUSH1 0x0 NOT DIV DUP4 GT DUP3 ISZERO ISZERO AND ISZERO PUSH2 0x15BA JUMPI PUSH2 0x15BA PUSH2 0x15F1 JUMP JUMPDEST POP MUL SWAP1 JUMP JUMPDEST PUSH1 0x0 DUP3 DUP3 LT ISZERO PUSH2 0x15D1 JUMPI PUSH2 0x15D1 PUSH2 0x15F1 JUMP JUMPDEST POP SUB SWAP1 JUMP JUMPDEST PUSH1 0x0 PUSH1 0x0 NOT DUP3 EQ ISZERO PUSH2 0x15EA JUMPI PUSH2 0x15EA PUSH2 0x15F1 JUMP JUMPDEST POP PUSH1 0x1 ADD SWAP1 JUMP JUMPDEST PUSH4 0x4E487B71 PUSH1 0xE0 SHL PUSH1 0x0 MSTORE PUSH1 0x11 PUSH1 0x4 MSTORE PUSH1 0x24 PUSH1 0x0 REVERT JUMPDEST PUSH4 0x4E487B71 PUSH1 0xE0 SHL PUSH1 0x0 MSTORE PUSH1 0x41 PUSH1 0x4 MSTORE PUSH1 0x24 PUSH1 0x0 REVERT JUMPDEST PUSH1 0x1 PUSH1 0x1 PUSH1 0xA0 SHL SUB DUP2 AND DUP2 EQ PUSH2 0x564 JUMPI PUSH1 0x0 DUP1 REVERT INVALID LOG2 PUSH5 0x6970667358 0x22 SLT KECCAK256 ADDMOD LOG0 STATICCALL 0xA8 0xA8 GT EXP 0xBC BLOCKHASH PUSH27 0x96B95E96E822CDE427186E3CB8F096C4EEBE9348D96464736F6C63 NUMBER STOP ADDMOD SDIV STOP CALLER "
				},
				"gasEstimates": {
					"creation": {
						"codeDepositCost": "1147200",
						"executionCost": "infinite",
						"totalCost": "infinite"
					},
					"external": {
						"WETH()": "2448",
						"backToken()": "infinite",
						"buyerInfo(address)": "11182",
						"checkAdminAddress()": "2521",
						"deposit(uint256)": "infinite",
						"feeAnyone()": "2318",
						"getBalance(address)": "3072",
						"initialSaleInfor(address,address,address,uint256[9])": "infinite",
						"owner()": "2431",
						"presaleStatus()": "13013",
						"renounceOwnership()": "28184",
						"saleInfor()": "25810",
						"saleTotalSupply()": "4441",
						"status()": "4555",
						"totalFee()": "2363",
						"transferOwnership(address)": "infinite",
						"userClaimEmergency()": "infinite",
						"userFee(address)": "2558",
						"userRefundEmergency()": "38028"
					}
				},
				"methodIdentifiers": {
					"WETH()": "ad5c4648",
					"backToken()": "861faf5f",
					"buyerInfo(address)": "e2d3f423",
					"checkAdminAddress()": "cad5b0f7",
					"deposit(uint256)": "b6b55f25",
					"feeAnyone()": "3b5ef2ad",
					"getBalance(address)": "f8b2cb4f",
					"initialSaleInfor(address,address,address,uint256[9])": "8f1eae4c",
					"owner()": "8da5cb5b",
					"presaleStatus()": "acfb2355",
					"renounceOwnership()": "715018a6",
					"saleInfor()": "18856a2f",
					"saleTotalSupply()": "12e5d0b9",
					"status()": "200d2ed2",
					"totalFee()": "1df4ccfc",
					"transferOwnership(address)": "f2fde38b",
					"userClaimEmergency()": "ab33985a",
					"userFee(address)": "56c5f349",
					"userRefundEmergency()": "95661e70"
				}
			},
			"storageLayout": {
				"storage": [
					{
						"astId": 2196,
						"contract": "Ethereum/Presale.sol:Presale",
						"label": "_status",
						"offset": 0,
						"slot": "0",
						"type": "t_uint256"
					},
					{
						"astId": 2088,
						"contract": "Ethereum/Presale.sol:Presale",
						"label": "_owner",
						"offset": 0,
						"slot": "1",
						"type": "t_address"
					},
					{
						"astId": 774,
						"contract": "Ethereum/Presale.sol:Presale",
						"label": "buyerInfo",
						"offset": 0,
						"slot": "2",
						"type": "t_mapping(t_address,t_struct(BuyerInfo)753_storage)"
					},
					{
						"astId": 778,
						"contract": "Ethereum/Presale.sol:Presale",
						"label": "userFee",
						"offset": 0,
						"slot": "3",
						"type": "t_mapping(t_address,t_uint256)"
					},
					{
						"astId": 781,
						"contract": "Ethereum/Presale.sol:Presale",
						"label": "presaleStatus",
						"offset": 0,
						"slot": "4",
						"type": "t_struct(PresaleStatus)769_storage"
					},
					{
						"astId": 784,
						"contract": "Ethereum/Presale.sol:Presale",
						"label": "saleTotalSupply",
						"offset": 0,
						"slot": "11",
						"type": "t_struct(SaleTotalSupply)740_storage"
					},
					{
						"astId": 787,
						"contract": "Ethereum/Presale.sol:Presale",
						"label": "saleInfor",
						"offset": 0,
						"slot": "13",
						"type": "t_struct(SaleInfor)735_storage"
					},
					{
						"astId": 790,
						"contract": "Ethereum/Presale.sol:Presale",
						"label": "WETH",
						"offset": 0,
						"slot": "25",
						"type": "t_contract(IERC20)663"
					},
					{
						"astId": 792,
						"contract": "Ethereum/Presale.sol:Presale",
						"label": "feeAnyone",
						"offset": 0,
						"slot": "26",
						"type": "t_uint256"
					},
					{
						"astId": 795,
						"contract": "Ethereum/Presale.sol:Presale",
						"label": "admins",
						"offset": 0,
						"slot": "27",
						"type": "t_struct(AddressSet)1793_storage"
					},
					{
						"astId": 797,
						"contract": "Ethereum/Presale.sol:Presale",
						"label": "totalFee",
						"offset": 0,
						"slot": "29",
						"type": "t_uint256"
					}
				],
				"types": {
					"t_address": {
						"encoding": "inplace",
						"label": "address",
						"numberOfBytes": "20"
					},
					"t_address_payable": {
						"encoding": "inplace",
						"label": "address payable",
						"numberOfBytes": "20"
					},
					"t_array(t_address)dyn_storage": {
						"base": "t_address",
						"encoding": "dynamic_array",
						"label": "address[]",
						"numberOfBytes": "32"
					},
					"t_array(t_bytes32)dyn_storage": {
						"base": "t_bytes32",
						"encoding": "dynamic_array",
						"label": "bytes32[]",
						"numberOfBytes": "32"
					},
					"t_bool": {
						"encoding": "inplace",
						"label": "bool",
						"numberOfBytes": "1"
					},
					"t_bytes32": {
						"encoding": "inplace",
						"label": "bytes32",
						"numberOfBytes": "32"
					},
					"t_contract(ERC20)585": {
						"encoding": "inplace",
						"label": "contract ERC20",
						"numberOfBytes": "20"
					},
					"t_contract(IERC20)663": {
						"encoding": "inplace",
						"label": "contract IERC20",
						"numberOfBytes": "20"
					},
					"t_mapping(t_address,t_struct(BuyerInfo)753_storage)": {
						"encoding": "mapping",
						"key": "t_address",
						"label": "mapping(address => struct Presale.BuyerInfo)",
						"numberOfBytes": "32",
						"value": "t_struct(BuyerInfo)753_storage"
					},
					"t_mapping(t_address,t_uint256)": {
						"encoding": "mapping",
						"key": "t_address",
						"label": "mapping(address => uint256)",
						"numberOfBytes": "32",
						"value": "t_uint256"
					},
					"t_mapping(t_bytes32,t_uint256)": {
						"encoding": "mapping",
						"key": "t_bytes32",
						"label": "mapping(bytes32 => uint256)",
						"numberOfBytes": "32",
						"value": "t_uint256"
					},
					"t_struct(AddressSet)1793_storage": {
						"encoding": "inplace",
						"label": "struct EnumerableSet.AddressSet",
						"members": [
							{
								"astId": 1792,
								"contract": "Ethereum/Presale.sol:Presale",
								"label": "_inner",
								"offset": 0,
								"slot": "0",
								"type": "t_struct(Set)1492_storage"
							}
						],
						"numberOfBytes": "64"
					},
					"t_struct(BuyerInfo)753_storage": {
						"encoding": "inplace",
						"label": "struct Presale.BuyerInfo",
						"members": [
							{
								"astId": 742,
								"contract": "Ethereum/Presale.sol:Presale",
								"label": "baseDeposit",
								"offset": 0,
								"slot": "0",
								"type": "t_uint256"
							},
							{
								"astId": 744,
								"contract": "Ethereum/Presale.sol:Presale",
								"label": "tokenOwner",
								"offset": 0,
								"slot": "1",
								"type": "t_uint256"
							},
							{
								"astId": 746,
								"contract": "Ethereum/Presale.sol:Presale",
								"label": "lastWithDraw",
								"offset": 0,
								"slot": "2",
								"type": "t_uint256"
							},
							{
								"astId": 748,
								"contract": "Ethereum/Presale.sol:Presale",
								"label": "totalTokenWithDraw",
								"offset": 0,
								"slot": "3",
								"type": "t_uint256"
							},
							{
								"astId": 750,
								"contract": "Ethereum/Presale.sol:Presale",
								"label": "isRefund",
								"offset": 0,
								"slot": "4",
								"type": "t_bool"
							},
							{
								"astId": 752,
								"contract": "Ethereum/Presale.sol:Presale",
								"label": "isClaim",
								"offset": 1,
								"slot": "4",
								"type": "t_bool"
							}
						],
						"numberOfBytes": "160"
					},
					"t_struct(PresaleStatus)769_storage": {
						"encoding": "inplace",
						"label": "struct Presale.PresaleStatus",
						"members": [
							{
								"astId": 755,
								"contract": "Ethereum/Presale.sol:Presale",
								"label": "totalBaseCollected",
								"offset": 0,
								"slot": "0",
								"type": "t_uint256"
							},
							{
								"astId": 757,
								"contract": "Ethereum/Presale.sol:Presale",
								"label": "totalTokenSold",
								"offset": 0,
								"slot": "1",
								"type": "t_uint256"
							},
							{
								"astId": 759,
								"contract": "Ethereum/Presale.sol:Presale",
								"label": "totalTokenWithDraw",
								"offset": 0,
								"slot": "2",
								"type": "t_uint256"
							},
							{
								"astId": 761,
								"contract": "Ethereum/Presale.sol:Presale",
								"label": "totalBaseWithDraw",
								"offset": 0,
								"slot": "3",
								"type": "t_uint256"
							},
							{
								"astId": 763,
								"contract": "Ethereum/Presale.sol:Presale",
								"label": "numberBuyer",
								"offset": 0,
								"slot": "4",
								"type": "t_uint256"
							},
							{
								"astId": 765,
								"contract": "Ethereum/Presale.sol:Presale",
								"label": "totalFee",
								"offset": 0,
								"slot": "5",
								"type": "t_uint256"
							},
							{
								"astId": 768,
								"contract": "Ethereum/Presale.sol:Presale",
								"label": "admin",
								"offset": 0,
								"slot": "6",
								"type": "t_array(t_address)dyn_storage"
							}
						],
						"numberOfBytes": "224"
					},
					"t_struct(SaleInfor)735_storage": {
						"encoding": "inplace",
						"label": "struct Presale.SaleInfor",
						"members": [
							{
								"astId": 710,
								"contract": "Ethereum/Presale.sol:Presale",
								"label": "presaleOwner",
								"offset": 0,
								"slot": "0",
								"type": "t_address_payable"
							},
							{
								"astId": 713,
								"contract": "Ethereum/Presale.sol:Presale",
								"label": "saleToken",
								"offset": 0,
								"slot": "1",
								"type": "t_contract(ERC20)585"
							},
							{
								"astId": 716,
								"contract": "Ethereum/Presale.sol:Presale",
								"label": "baseToken",
								"offset": 0,
								"slot": "2",
								"type": "t_contract(ERC20)585"
							},
							{
								"astId": 718,
								"contract": "Ethereum/Presale.sol:Presale",
								"label": "tokenPrice",
								"offset": 0,
								"slot": "3",
								"type": "t_uint256"
							},
							{
								"astId": 720,
								"contract": "Ethereum/Presale.sol:Presale",
								"label": "startSale",
								"offset": 0,
								"slot": "4",
								"type": "t_uint256"
							},
							{
								"astId": 722,
								"contract": "Ethereum/Presale.sol:Presale",
								"label": "endSale",
								"offset": 0,
								"slot": "5",
								"type": "t_uint256"
							},
							{
								"astId": 724,
								"contract": "Ethereum/Presale.sol:Presale",
								"label": "minSpendPerBuyer",
								"offset": 0,
								"slot": "6",
								"type": "t_uint256"
							},
							{
								"astId": 726,
								"contract": "Ethereum/Presale.sol:Presale",
								"label": "maxSpendPerBuyer",
								"offset": 0,
								"slot": "7",
								"type": "t_uint256"
							},
							{
								"astId": 728,
								"contract": "Ethereum/Presale.sol:Presale",
								"label": "refundFee",
								"offset": 0,
								"slot": "8",
								"type": "t_uint256"
							},
							{
								"astId": 730,
								"contract": "Ethereum/Presale.sol:Presale",
								"label": "claimFee",
								"offset": 0,
								"slot": "9",
								"type": "t_uint256"
							},
							{
								"astId": 732,
								"contract": "Ethereum/Presale.sol:Presale",
								"label": "saleIsBaseToken",
								"offset": 0,
								"slot": "10",
								"type": "t_bool"
							},
							{
								"astId": 734,
								"contract": "Ethereum/Presale.sol:Presale",
								"label": "amountTokenForSale",
								"offset": 0,
								"slot": "11",
								"type": "t_uint256"
							}
						],
						"numberOfBytes": "384"
					},
					"t_struct(SaleTotalSupply)740_storage": {
						"encoding": "inplace",
						"label": "struct Presale.SaleTotalSupply",
						"members": [
							{
								"astId": 737,
								"contract": "Ethereum/Presale.sol:Presale",
								"label": "hardCap",
								"offset": 0,
								"slot": "0",
								"type": "t_uint256"
							},
							{
								"astId": 739,
								"contract": "Ethereum/Presale.sol:Presale",
								"label": "softCap",
								"offset": 0,
								"slot": "1",
								"type": "t_uint256"
							}
						],
						"numberOfBytes": "64"
					},
					"t_struct(Set)1492_storage": {
						"encoding": "inplace",
						"label": "struct EnumerableSet.Set",
						"members": [
							{
								"astId": 1487,
								"contract": "Ethereum/Presale.sol:Presale",
								"label": "_values",
								"offset": 0,
								"slot": "0",
								"type": "t_array(t_bytes32)dyn_storage"
							},
							{
								"astId": 1491,
								"contract": "Ethereum/Presale.sol:Presale",
								"label": "_indexes",
								"offset": 0,
								"slot": "1",
								"type": "t_mapping(t_bytes32,t_uint256)"
							}
						],
						"numberOfBytes": "64"
					},
					"t_uint256": {
						"encoding": "inplace",
						"label": "uint256",
						"numberOfBytes": "32"
					}
				}
			},
			"userdoc": {
				"kind": "user",
				"methods": {},
				"version": 1
			}
		}
	}
}