{
	"Ethereum/Presale.sol": {
		"Presale": {
			"abi": [
				{
					"inputs": [],
					"stateMutability": "payable",
					"type": "constructor"
				},
				{
					"anonymous": false,
					"inputs": [
						{
							"indexed": true,
							"internalType": "address",
							"name": "previousOwner",
							"type": "address"
						},
						{
							"indexed": true,
							"internalType": "address",
							"name": "newOwner",
							"type": "address"
						}
					],
					"name": "OwnershipTransferred",
					"type": "event"
				},
				{
					"inputs": [],
					"name": "WETH",
					"outputs": [
						{
							"internalType": "contract IERC20",
							"name": "",
							"type": "address"
						}
					],
					"stateMutability": "view",
					"type": "function"
				},
				{
					"inputs": [],
					"name": "backToken",
					"outputs": [],
					"stateMutability": "payable",
					"type": "function"
				},
				{
					"inputs": [
						{
							"internalType": "address",
							"name": "",
							"type": "address"
						}
					],
					"name": "buyerInfo",
					"outputs": [
						{
							"internalType": "uint256",
							"name": "baseDeposit",
							"type": "uint256"
						},
						{
							"internalType": "uint256",
							"name": "tokenOwner",
							"type": "uint256"
						},
						{
							"internalType": "uint256",
							"name": "lastWithDraw",
							"type": "uint256"
						},
						{
							"internalType": "uint256",
							"name": "totalTokenWithDraw",
							"type": "uint256"
						},
						{
							"internalType": "bool",
							"name": "isRefund",
							"type": "bool"
						},
						{
							"internalType": "bool",
							"name": "isClaim",
							"type": "bool"
						}
					],
					"stateMutability": "view",
					"type": "function"
				},
				{
					"inputs": [
						{
							"internalType": "uint256",
							"name": "_amount",
							"type": "uint256"
						}
					],
					"name": "depodit",
					"outputs": [],
					"stateMutability": "payable",
					"type": "function"
				},
				{
					"inputs": [
						{
							"internalType": "address",
							"name": "_address",
							"type": "address"
						}
					],
					"name": "getBalance",
					"outputs": [
						{
							"internalType": "uint256",
							"name": "",
							"type": "uint256"
						}
					],
					"stateMutability": "view",
					"type": "function"
				},
				{
					"inputs": [
						{
							"internalType": "address payable",
							"name": "_presaleOwner",
							"type": "address"
						},
						{
							"internalType": "contract IERC20",
							"name": "_saleToken",
							"type": "address"
						},
						{
							"internalType": "contract IERC20",
							"name": "_baseTOken",
							"type": "address"
						},
						{
							"internalType": "uint256[9]",
							"name": "datas",
							"type": "uint256[9]"
						}
					],
					"name": "initialSaleInfor",
					"outputs": [],
					"stateMutability": "nonpayable",
					"type": "function"
				},
				{
					"inputs": [],
					"name": "owner",
					"outputs": [
						{
							"internalType": "address",
							"name": "",
							"type": "address"
						}
					],
					"stateMutability": "view",
					"type": "function"
				},
				{
					"inputs": [],
					"name": "presaleStatus",
					"outputs": [
						{
							"internalType": "uint256",
							"name": "totalBaseCollected",
							"type": "uint256"
						},
						{
							"internalType": "uint256",
							"name": "totalTokenSold",
							"type": "uint256"
						},
						{
							"internalType": "uint256",
							"name": "totalTokenWithDraw",
							"type": "uint256"
						},
						{
							"internalType": "uint256",
							"name": "totalBaseWithDraw",
							"type": "uint256"
						},
						{
							"internalType": "uint256",
							"name": "numByer",
							"type": "uint256"
						},
						{
							"internalType": "uint256",
							"name": "totalFee",
							"type": "uint256"
						}
					],
					"stateMutability": "view",
					"type": "function"
				},
				{
					"inputs": [],
					"name": "renounceOwnership",
					"outputs": [],
					"stateMutability": "nonpayable",
					"type": "function"
				},
				{
					"inputs": [],
					"name": "saleInfor",
					"outputs": [
						{
							"internalType": "address payable",
							"name": "presaleOwner",
							"type": "address"
						},
						{
							"internalType": "contract IERC20",
							"name": "saleToken",
							"type": "address"
						},
						{
							"internalType": "contract IERC20",
							"name": "baseToken",
							"type": "address"
						},
						{
							"internalType": "uint256",
							"name": "tokenPrice",
							"type": "uint256"
						},
						{
							"internalType": "uint256",
							"name": "startSale",
							"type": "uint256"
						},
						{
							"internalType": "uint256",
							"name": "endSale",
							"type": "uint256"
						},
						{
							"internalType": "uint256",
							"name": "valueSwapToken",
							"type": "uint256"
						},
						{
							"internalType": "uint256",
							"name": "feeTransaction",
							"type": "uint256"
						},
						{
							"internalType": "uint256",
							"name": "minSpendPerBuyer",
							"type": "uint256"
						},
						{
							"internalType": "uint256",
							"name": "maxSpendPerBuyer",
							"type": "uint256"
						},
						{
							"internalType": "uint256",
							"name": "refundFee",
							"type": "uint256"
						},
						{
							"internalType": "uint256",
							"name": "claimFee",
							"type": "uint256"
						},
						{
							"internalType": "bool",
							"name": "saleIsBaseToken",
							"type": "bool"
						}
					],
					"stateMutability": "view",
					"type": "function"
				},
				{
					"inputs": [],
					"name": "status",
					"outputs": [
						{
							"internalType": "uint256",
							"name": "",
							"type": "uint256"
						}
					],
					"stateMutability": "view",
					"type": "function"
				},
				{
					"inputs": [
						{
							"internalType": "uint256",
							"name": "amount",
							"type": "uint256"
						}
					],
					"name": "transferETH",
					"outputs": [],
					"stateMutability": "payable",
					"type": "function"
				},
				{
					"inputs": [
						{
							"internalType": "address",
							"name": "newOwner",
							"type": "address"
						}
					],
					"name": "transferOwnership",
					"outputs": [],
					"stateMutability": "nonpayable",
					"type": "function"
				},
				{
					"inputs": [
						{
							"internalType": "address",
							"name": "",
							"type": "address"
						}
					],
					"name": "userFee",
					"outputs": [
						{
							"internalType": "uint256",
							"name": "",
							"type": "uint256"
						}
					],
					"stateMutability": "view",
					"type": "function"
				}
			],
			"devdoc": {
				"kind": "dev",
				"methods": {
					"owner()": {
						"details": "Returns the address of the current owner."
					},
					"renounceOwnership()": {
						"details": "Leaves the contract without owner. It will not be possible to call `onlyOwner` functions anymore. Can only be called by the current owner. NOTE: Renouncing ownership will leave the contract without an owner, thereby removing any functionality that is only available to the owner."
					},
					"transferOwnership(address)": {
						"details": "Transfers ownership of the contract to a new account (`newOwner`). Can only be called by the current owner."
					}
				},
				"version": 1
			},
			"evm": {
				"assembly": "    /* \"Ethereum/Presale.sol\":306:4007  contract Presale is ReentrancyGuard, Ownable{\r... */\n  mstore(0x40, 0x80)\n    /* \"Utils/ReentrancyGuard.sol\":1734:1735  1 */\n  0x01\n    /* \"Utils/ReentrancyGuard.sol\":1845:1852  _status */\n  0x00\n    /* \"Utils/ReentrancyGuard.sol\":1845:1867  _status = _NOT_ENTERED */\n  sstore\n    /* \"Utils/Ownable.sol\":942:974  _transferOwnership(_msgSender()) */\n  tag_6\n    /* \"Utils/Context.sol\":736:746  msg.sender */\n  caller\n    /* \"Utils/Ownable.sol\":942:960  _transferOwnership */\n  tag_9\n    /* \"Utils/Ownable.sol\":942:974  _transferOwnership(_msgSender()) */\n  jump\t// in\ntag_6:\n    /* \"Ethereum/Presale.sol\":1838:1842  WETH */\n  0x18\n    /* \"Ethereum/Presale.sol\":1838:1895  WETH = IERC20(0xc778417E063141139Fce010982780140Aa0cD5Ab) */\n  dup1\n  sload\n    /* \"Ethereum/Presale.sol\":1852:1894  0xc778417E063141139Fce010982780140Aa0cD5Ab */\n  0xc778417e063141139fce010982780140aa0cd5ab\n  not(sub(shl(0xa0, 0x01), 0x01))\n    /* \"Ethereum/Presale.sol\":1838:1895  WETH = IERC20(0xc778417E063141139Fce010982780140Aa0cD5Ab) */\n  swap1\n  swap2\n  and\n  or\n  swap1\n  sstore\n    /* \"Ethereum/Presale.sol\":1908:1962  admins.add(0x6Ccb41eedA5a073076F3E7dC1614C185b5fA41eD) */\n  tag_11\n    /* \"Ethereum/Presale.sol\":1908:1914  admins */\n  0x19\n    /* \"Ethereum/Presale.sol\":1919:1961  0x6Ccb41eedA5a073076F3E7dC1614C185b5fA41eD */\n  0x6ccb41eeda5a073076f3e7dc1614c185b5fa41ed\n    /* \"Ethereum/Presale.sol\":1908:1918  admins.add */\n  tag_12\n  0x20\n  swap1\n  dup2\n  shl\n  tag_0_82\n  or\n    /* \"Ethereum/Presale.sol\":1908:1962  admins.add(0x6Ccb41eedA5a073076F3E7dC1614C185b5fA41eD) */\n  swap1\n  shr\n  jump\t// in\ntag_11:\n  pop\n    /* \"Ethereum/Presale.sol\":1973:2027  admins.add(0x4f0B12bBF40Fc182559822A5b1dB6D34dbC3E016) */\n  tag_13\n    /* \"Ethereum/Presale.sol\":1984:2026  0x4f0B12bBF40Fc182559822A5b1dB6D34dbC3E016 */\n  0x4f0b12bbf40fc182559822a5b1db6d34dbc3e016\n    /* \"Ethereum/Presale.sol\":1973:1979  admins */\n  0x19\n    /* \"Ethereum/Presale.sol\":1973:1983  admins.add */\n  or(tag_0_82, shl(0x20, tag_12))\n  swap1\n    /* \"Ethereum/Presale.sol\":1973:2027  admins.add(0x4f0B12bBF40Fc182559822A5b1dB6D34dbC3E016) */\n  swap2\n  swap1\n  0x20\n  shr\n  jump\t// in\ntag_13:\n  pop\n    /* \"Ethereum/Presale.sol\":306:4007  contract Presale is ReentrancyGuard, Ownable{\r... */\n  jump(tag_14)\n    /* \"Utils/Ownable.sol\":2333:2524  function _transferOwnership(address newOwner) internal virtual {\r... */\ntag_9:\n    /* \"Utils/Ownable.sol\":2426:2432  _owner */\n  0x01\n  dup1\n  sload\n  sub(shl(0xa0, 0x01), 0x01)\n    /* \"Utils/Ownable.sol\":2443:2460  _owner = newOwner */\n  dup4\n  dup2\n  and\n  not(sub(shl(0xa0, 0x01), 0x01))\n  dup4\n  and\n  dup2\n  or\n  swap1\n  swap4\n  sstore\n    /* \"Utils/Ownable.sol\":2476:2516  OwnershipTransferred(oldOwner, newOwner) */\n  mload(0x40)\n    /* \"Utils/Ownable.sol\":2426:2432  _owner */\n  swap2\n  and\n  swap2\n    /* \"Utils/Ownable.sol\":2443:2460  _owner = newOwner */\n  swap1\n    /* \"Utils/Ownable.sol\":2426:2432  _owner */\n  dup3\n  swap1\n    /* \"Utils/Ownable.sol\":2476:2516  OwnershipTransferred(oldOwner, newOwner) */\n  0x8be0079c531659141344cd1fd0a4f28419497f9722a3daafe3b4186f6b6457e0\n  swap1\n    /* \"Utils/Ownable.sol\":2407:2423  address oldOwner */\n  0x00\n  swap1\n    /* \"Utils/Ownable.sol\":2476:2516  OwnershipTransferred(oldOwner, newOwner) */\n  log3\n    /* \"Utils/Ownable.sol\":2333:2524  function _transferOwnership(address newOwner) internal virtual {\r... */\n  pop\n  pop\n  jump\t// out\n    /* \"Utils/EnumerableSet.sol\":8259:8411  function add(AddressSet storage set, address value) internal returns (bool) {\r... */\ntag_12:\n    /* \"Utils/EnumerableSet.sol\":8329:8333  bool */\n  0x00\n    /* \"Utils/EnumerableSet.sol\":8353:8403  _add(set._inner, bytes32(uint256(uint160(value)))) */\n  tag_18\n    /* \"Utils/EnumerableSet.sol\":8358:8361  set */\n  dup4\n  sub(shl(0xa0, 0x01), 0x01)\n    /* \"Utils/EnumerableSet.sol\":8378:8401  uint256(uint160(value)) */\n  dup5\n  and\n    /* \"Utils/EnumerableSet.sol\":8353:8357  _add */\n  tag_19\n    /* \"Utils/EnumerableSet.sol\":8353:8403  _add(set._inner, bytes32(uint256(uint160(value)))) */\n  jump\t// in\ntag_18:\n    /* \"Utils/EnumerableSet.sol\":8346:8403  return _add(set._inner, bytes32(uint256(uint160(value)))) */\n  swap1\n  pop\n    /* \"Utils/EnumerableSet.sol\":8259:8411  function add(AddressSet storage set, address value) internal returns (bool) {\r... */\ntag_17:\n  swap3\n  swap2\n  pop\n  pop\n  jump\t// out\n    /* \"Utils/EnumerableSet.sol\":2174:2588  function _add(Set storage set, bytes32 value) private returns (bool) {\r... */\ntag_19:\n    /* \"Utils/EnumerableSet.sol\":2237:2241  bool */\n  0x00\n    /* \"Utils/EnumerableSet.sol\":4367:4386  set._indexes[value] */\n  dup2\n  dup2\n  mstore\n    /* \"Utils/EnumerableSet.sol\":4367:4379  set._indexes */\n  0x01\n  dup4\n  add\n    /* \"Utils/EnumerableSet.sol\":4367:4386  set._indexes[value] */\n  0x20\n  mstore\n  0x40\n  dup2\n  keccak256\n  sload\n    /* \"Utils/EnumerableSet.sol\":2254:2581  if (!_contains(set, value)) {\r... */\n  tag_23\n  jumpi\n  pop\n    /* \"Utils/EnumerableSet.sol\":2297:2320  set._values.push(value) */\n  dup2\n  sload\n  0x01\n  dup2\n  dup2\n  add\n  dup5\n  sstore\n    /* \"Utils/EnumerableSet.sol\":2297:2308  set._values */\n  0x00\n    /* \"Utils/EnumerableSet.sol\":2297:2320  set._values.push(value) */\n  dup5\n  dup2\n  mstore\n  0x20\n  dup1\n  dup3\n  keccak256\n  swap1\n  swap4\n  add\n  dup5\n  swap1\n  sstore\n    /* \"Utils/EnumerableSet.sol\":2480:2498  set._values.length */\n  dup5\n  sload\n    /* \"Utils/EnumerableSet.sol\":2458:2477  set._indexes[value] */\n  dup5\n  dup3\n  mstore\n    /* \"Utils/EnumerableSet.sol\":2458:2470  set._indexes */\n  dup3\n  dup7\n  add\n    /* \"Utils/EnumerableSet.sol\":2458:2477  set._indexes[value] */\n  swap1\n  swap4\n  mstore\n  0x40\n  swap1\n  keccak256\n    /* \"Utils/EnumerableSet.sol\":2458:2498  set._indexes[value] = set._values.length */\n  swap2\n  swap1\n  swap2\n  sstore\n    /* \"Utils/EnumerableSet.sol\":2513:2524  return true */\n  jump(tag_17)\n    /* \"Utils/EnumerableSet.sol\":2254:2581  if (!_contains(set, value)) {\r... */\ntag_23:\n  pop\n    /* \"Utils/EnumerableSet.sol\":2564:2569  false */\n  0x00\n    /* \"Utils/EnumerableSet.sol\":2557:2569  return false */\n  jump(tag_17)\n    /* \"Ethereum/Presale.sol\":306:4007  contract Presale is ReentrancyGuard, Ownable{\r... */\ntag_14:\n  dataSize(sub_0)\n  dup1\n  dataOffset(sub_0)\n  0x00\n  codecopy\n  0x00\n  return\nstop\n\nsub_0: assembly {\n        /* \"Ethereum/Presale.sol\":306:4007  contract Presale is ReentrancyGuard, Ownable{\r... */\n      mstore(0x40, 0x80)\n      jumpi(tag_1, lt(calldatasize, 0x04))\n      shr(0xe0, calldataload(0x00))\n      dup1\n      0x8da5cb5b\n      gt\n      tag_16\n      jumpi\n      dup1\n      0xad5c4648\n      gt\n      tag_17\n      jumpi\n      dup1\n      0xad5c4648\n      eq\n      tag_12\n      jumpi\n      dup1\n      0xe2d3f423\n      eq\n      tag_13\n      jumpi\n      dup1\n      0xf2fde38b\n      eq\n      tag_14\n      jumpi\n      dup1\n      0xf8b2cb4f\n      eq\n      tag_15\n      jumpi\n      0x00\n      dup1\n      revert\n    tag_17:\n      dup1\n      0x8da5cb5b\n      eq\n      tag_9\n      jumpi\n      dup1\n      0x8f1eae4c\n      eq\n      tag_10\n      jumpi\n      dup1\n      0xacfb2355\n      eq\n      tag_11\n      jumpi\n      0x00\n      dup1\n      revert\n    tag_16:\n      dup1\n      0x56c5f349\n      gt\n      tag_18\n      jumpi\n      dup1\n      0x56c5f349\n      eq\n      tag_5\n      jumpi\n      dup1\n      0x715018a6\n      eq\n      tag_6\n      jumpi\n      dup1\n      0x79647833\n      eq\n      tag_7\n      jumpi\n      dup1\n      0x861faf5f\n      eq\n      tag_8\n      jumpi\n      0x00\n      dup1\n      revert\n    tag_18:\n      dup1\n      0x18856a2f\n      eq\n      tag_2\n      jumpi\n      dup1\n      0x200d2ed2\n      eq\n      tag_3\n      jumpi\n      dup1\n      0x4329db46\n      eq\n      tag_4\n      jumpi\n    tag_1:\n      0x00\n      dup1\n      revert\n        /* \"Ethereum/Presale.sol\":1458:1484  SaleInfor public saleInfor */\n    tag_2:\n      callvalue\n      dup1\n      iszero\n      tag_19\n      jumpi\n      0x00\n      dup1\n      revert\n    tag_19:\n      pop\n      sload(0x0b)\n      sload(0x0c)\n      sload(0x0d)\n      sload(0x0e)\n      sload(0x0f)\n      sload(0x10)\n      sload(0x11)\n      sload(0x12)\n      sload(0x13)\n      sload(0x14)\n      sload(0x15)\n      sload(0x16)\n      sload(0x17)\n      tag_20\n      swap13\n      sub(shl(0xa0, 0x01), 0x01)\n      swap1\n      dup2\n      and\n      swap13\n      dup2\n      and\n      swap12\n      and\n      swap10\n      swap9\n      swap8\n      swap7\n      swap6\n      swap5\n      swap4\n      swap3\n      swap2\n      swap1\n      0xff\n      and\n      dup14\n      jump\n    tag_20:\n      0x40\n      dup1\n      mload\n      sub(shl(0xa0, 0x01), 0x01)\n        /* \"#utility.yul\":2520:2552   */\n      swap15\n      dup16\n      and\n        /* \"#utility.yul\":2502:2553   */\n      dup2\n      mstore\n        /* \"#utility.yul\":2589:2621   */\n      swap13\n      dup15\n      and\n        /* \"#utility.yul\":2584:2586   */\n      0x20\n        /* \"#utility.yul\":2569:2587   */\n      dup15\n      add\n        /* \"#utility.yul\":2562:2622   */\n      mstore\n        /* \"#utility.yul\":2658:2690   */\n      swap11\n      swap1\n      swap13\n      and\n        /* \"#utility.yul\":2638:2656   */\n      swap10\n      dup12\n      add\n        /* \"#utility.yul\":2631:2691   */\n      swap10\n      swap1\n      swap10\n      mstore\n        /* \"#utility.yul\":2722:2724   */\n      0x60\n        /* \"#utility.yul\":2707:2725   */\n      dup11\n      add\n        /* \"#utility.yul\":2700:2734   */\n      swap8\n      swap1\n      swap8\n      mstore\n        /* \"#utility.yul\":2765:2768   */\n      0x80\n        /* \"#utility.yul\":2750:2769   */\n      dup10\n      add\n        /* \"#utility.yul\":2743:2778   */\n      swap6\n      swap1\n      swap6\n      mstore\n        /* \"#utility.yul\":2540:2543   */\n      0xa0\n        /* \"#utility.yul\":2794:2813   */\n      dup9\n      add\n        /* \"#utility.yul\":2787:2822   */\n      swap4\n      swap1\n      swap4\n      mstore\n        /* \"#utility.yul\":2853:2856   */\n      0xc0\n        /* \"#utility.yul\":2838:2857   */\n      dup8\n      add\n        /* \"#utility.yul\":2831:2866   */\n      swap2\n      swap1\n      swap2\n      mstore\n        /* \"#utility.yul\":2897:2900   */\n      0xe0\n        /* \"#utility.yul\":2882:2901   */\n      dup7\n      add\n        /* \"#utility.yul\":2875:2910   */\n      mstore\n        /* \"#utility.yul\":2941:2944   */\n      0x0100\n        /* \"#utility.yul\":2926:2945   */\n      dup6\n      add\n        /* \"#utility.yul\":2919:2954   */\n      mstore\n        /* \"#utility.yul\":2985:2988   */\n      0x0120\n        /* \"#utility.yul\":2970:2989   */\n      dup5\n      add\n        /* \"#utility.yul\":2963:2998   */\n      mstore\n        /* \"#utility.yul\":3029:3032   */\n      0x0140\n        /* \"#utility.yul\":3014:3033   */\n      dup4\n      add\n        /* \"#utility.yul\":3007:3043   */\n      mstore\n        /* \"#utility.yul\":3074:3077   */\n      0x0160\n        /* \"#utility.yul\":3059:3078   */\n      dup3\n      add\n        /* \"#utility.yul\":3052:3088   */\n      mstore\n        /* \"#utility.yul\":3132:3147   */\n      swap1\n      iszero\n        /* \"#utility.yul\":3125:3148   */\n      iszero\n        /* \"#utility.yul\":3119:3122   */\n      0x0180\n        /* \"#utility.yul\":3104:3123   */\n      dup3\n      add\n        /* \"#utility.yul\":3097:3149   */\n      mstore\n        /* \"#utility.yul\":2489:2492   */\n      0x01a0\n        /* \"#utility.yul\":2474:2493   */\n      add\n        /* \"Ethereum/Presale.sol\":1458:1484  SaleInfor public saleInfor */\n    tag_22:\n      mload(0x40)\n      dup1\n      swap2\n      sub\n      swap1\n      return\n        /* \"Ethereum/Presale.sol\":2842:3179  function status() public view returns(uint256) {\r... */\n    tag_3:\n      callvalue\n      dup1\n      iszero\n      tag_24\n      jumpi\n      0x00\n      dup1\n      revert\n    tag_24:\n      pop\n      tag_25\n      tag_26\n      jump\t// in\n    tag_25:\n      mload(0x40)\n        /* \"#utility.yul\":5339:5364   */\n      swap1\n      dup2\n      mstore\n        /* \"#utility.yul\":5327:5329   */\n      0x20\n        /* \"#utility.yul\":5312:5330   */\n      add\n        /* \"Ethereum/Presale.sol\":2842:3179  function status() public view returns(uint256) {\r... */\n      tag_22\n        /* \"#utility.yul\":5294:5370   */\n      jump\n        /* \"Ethereum/Presale.sol\":3883:4004  function transferETH(uint256 amount) external payable {\r... */\n    tag_4:\n      tag_29\n      tag_30\n      calldatasize\n      0x04\n      tag_31\n      jump\t// in\n    tag_30:\n      tag_32\n      jump\t// in\n    tag_29:\n      stop\n        /* \"Ethereum/Presale.sol\":1368:1410  mapping(address => uint256) public userFee */\n    tag_5:\n      callvalue\n      dup1\n      iszero\n      tag_33\n      jumpi\n      0x00\n      dup1\n      revert\n    tag_33:\n      pop\n      tag_25\n      tag_35\n      calldatasize\n      0x04\n      tag_36\n      jump\t// in\n    tag_35:\n      mstore(0x20, 0x03)\n      0x00\n      swap1\n      dup2\n      mstore\n      0x40\n      swap1\n      keccak256\n      sload\n      dup2\n      jump\n        /* \"Utils/Ownable.sol\":1714:1817  function renounceOwnership() public virtual onlyOwner {\r... */\n    tag_6:\n      callvalue\n      dup1\n      iszero\n      tag_39\n      jumpi\n      0x00\n      dup1\n      revert\n    tag_39:\n      pop\n      tag_29\n      tag_41\n      jump\t// in\n        /* \"Ethereum/Presale.sol\":3187:3637  function depodit(uint256 _amount) external payable nonReentrant {\r... */\n    tag_7:\n      tag_29\n      tag_43\n      calldatasize\n      0x04\n      tag_31\n      jump\t// in\n    tag_43:\n      tag_44\n      jump\t// in\n        /* \"Ethereum/Presale.sol\":3767:3875  function backToken() external payable {\r... */\n    tag_8:\n      tag_29\n      tag_46\n      jump\t// in\n        /* \"Utils/Ownable.sol\":1063:1150  function owner() public view virtual returns (address) {\r... */\n    tag_9:\n      callvalue\n      dup1\n      iszero\n      tag_47\n      jumpi\n      0x00\n      dup1\n      revert\n    tag_47:\n      pop\n        /* \"Utils/Ownable.sol\":1136:1142  _owner */\n      and(sub(shl(0xa0, 0x01), 0x01), sload(0x01))\n        /* \"Utils/Ownable.sol\":1063:1150  function owner() public view virtual returns (address) {\r... */\n    tag_48:\n      mload(0x40)\n      sub(shl(0xa0, 0x01), 0x01)\n        /* \"#utility.yul\":1936:1968   */\n      swap1\n      swap2\n      and\n        /* \"#utility.yul\":1918:1969   */\n      dup2\n      mstore\n        /* \"#utility.yul\":1906:1908   */\n      0x20\n        /* \"#utility.yul\":1891:1909   */\n      add\n        /* \"Utils/Ownable.sol\":1063:1150  function owner() public view virtual returns (address) {\r... */\n      tag_22\n        /* \"#utility.yul\":1873:1975   */\n      jump\n        /* \"Ethereum/Presale.sol\":2043:2833  function initialSaleInfor(\r... */\n    tag_10:\n      callvalue\n      dup1\n      iszero\n      tag_52\n      jumpi\n      0x00\n      dup1\n      revert\n    tag_52:\n      pop\n      tag_29\n      tag_54\n      calldatasize\n      0x04\n      tag_55\n      jump\t// in\n    tag_54:\n        /* \"Ethereum/Presale.sol\":2226:2235  saleInfor */\n      0x0b\n        /* \"Ethereum/Presale.sol\":2226:2264  saleInfor.presaleOwner = _presaleOwner */\n      dup1\n      sload\n      not(sub(shl(0xa0, 0x01), 0x01))\n      swap1\n      dup2\n      and\n      sub(shl(0xa0, 0x01), 0x01)\n      swap7\n      dup8\n      and\n      or\n      swap1\n      swap2\n      sstore\n        /* \"Ethereum/Presale.sol\":2275:2294  saleInfor.saleToken */\n      0x0c\n        /* \"Ethereum/Presale.sol\":2275:2307  saleInfor.saleToken = _saleToken */\n      dup1\n      sload\n      dup3\n      and\n      swap5\n      dup7\n      and\n      swap5\n      swap1\n      swap5\n      or\n      swap1\n      swap4\n      sstore\n        /* \"Ethereum/Presale.sol\":2318:2337  saleInfor.baseToken */\n      0x0d\n        /* \"Ethereum/Presale.sol\":2318:2350  saleInfor.baseToken = _baseTOken */\n      dup1\n      sload\n      swap1\n      swap4\n      and\n      swap2\n      dup5\n      and\n      swap2\n      dup3\n      or\n      swap1\n      swap3\n      sstore\n        /* \"Ethereum/Presale.sol\":2384:2392  datas[0] */\n      dup2\n      mload\n        /* \"Ethereum/Presale.sol\":2361:2381  saleInfor.tokenPrice */\n      0x0e\n        /* \"Ethereum/Presale.sol\":2361:2392  saleInfor.tokenPrice = datas[0] */\n      sstore\n        /* \"Ethereum/Presale.sol\":2384:2392  datas[0] */\n      0x20\n        /* \"Ethereum/Presale.sol\":2425:2433  datas[1] */\n      dup3\n      add\n      mload\n        /* \"Ethereum/Presale.sol\":2403:2422  saleInfor.startSale */\n      0x0f\n        /* \"Ethereum/Presale.sol\":2403:2433  saleInfor.startSale = datas[1] */\n      sstore\n        /* \"Ethereum/Presale.sol\":2464:2472  datas[2] */\n      0x40\n      dup3\n      add\n      mload\n        /* \"Ethereum/Presale.sol\":2444:2461  saleInfor.endSale */\n      0x10\n        /* \"Ethereum/Presale.sol\":2444:2472  saleInfor.endSale = datas[2] */\n      sstore\n        /* \"Ethereum/Presale.sol\":2510:2518  datas[3] */\n      0x60\n      dup3\n      add\n      mload\n        /* \"Ethereum/Presale.sol\":2483:2507  saleInfor.valueSwapToken */\n      0x11\n        /* \"Ethereum/Presale.sol\":2483:2518  saleInfor.valueSwapToken = datas[3] */\n      sstore\n        /* \"Ethereum/Presale.sol\":2556:2564  datas[4] */\n      0x80\n      dup3\n      add\n      mload\n        /* \"Ethereum/Presale.sol\":2529:2553  saleInfor.feeTransaction */\n      0x12\n        /* \"Ethereum/Presale.sol\":2529:2564  saleInfor.feeTransaction = datas[4] */\n      sstore\n        /* \"Ethereum/Presale.sol\":2604:2612  datas[5] */\n      0xa0\n      dup3\n      add\n      mload\n        /* \"Ethereum/Presale.sol\":2575:2601  saleInfor.minSpendPerBuyer */\n      0x13\n        /* \"Ethereum/Presale.sol\":2575:2612  saleInfor.minSpendPerBuyer = datas[5] */\n      sstore\n        /* \"Ethereum/Presale.sol\":2652:2660  datas[6] */\n      0xc0\n      dup3\n      add\n      mload\n        /* \"Ethereum/Presale.sol\":2623:2649  saleInfor.maxSpendPerBuyer */\n      0x14\n        /* \"Ethereum/Presale.sol\":2623:2660  saleInfor.maxSpendPerBuyer = datas[6] */\n      sstore\n        /* \"Ethereum/Presale.sol\":2693:2701  datas[7] */\n      0xe0\n      dup3\n      add\n      mload\n        /* \"Ethereum/Presale.sol\":2671:2690  saleInfor.refundFee */\n      0x15\n        /* \"Ethereum/Presale.sol\":2671:2701  saleInfor.refundFee = datas[7] */\n      sstore\n        /* \"Ethereum/Presale.sol\":2733:2741  datas[8] */\n      0x0100\n      swap1\n      swap2\n      add\n      mload\n        /* \"Ethereum/Presale.sol\":2712:2730  saleInfor.claimFee */\n      0x16\n        /* \"Ethereum/Presale.sol\":2712:2741  saleInfor.claimFee = datas[8] */\n      sstore\n        /* \"Ethereum/Presale.sol\":2788:2792  WETH */\n      sload(0x18)\n        /* \"Ethereum/Presale.sol\":2752:2777  saleInfor.saleIsBaseToken */\n      0x17\n        /* \"Ethereum/Presale.sol\":2752:2825  saleInfor.saleIsBaseToken = address(WETH) == address(saleInfor.baseToken) */\n      dup1\n      sload\n      not(0xff)\n      and\n        /* \"Ethereum/Presale.sol\":2788:2792  WETH */\n      swap2\n      swap1\n      swap4\n      and\n        /* \"Ethereum/Presale.sol\":2780:2825  address(WETH) == address(saleInfor.baseToken) */\n      swap1\n      swap2\n      eq\n        /* \"Ethereum/Presale.sol\":2752:2825  saleInfor.saleIsBaseToken = address(WETH) == address(saleInfor.baseToken) */\n      or\n      swap1\n      sstore\n        /* \"Ethereum/Presale.sol\":2043:2833  function initialSaleInfor(\r... */\n      jump\n        /* \"Ethereum/Presale.sol\":1417:1451  PresaleStatus public presaleStatus */\n    tag_11:\n      callvalue\n      dup1\n      iszero\n      tag_57\n      jumpi\n      0x00\n      dup1\n      revert\n    tag_57:\n      pop\n      sload(0x04)\n      sload(0x05)\n      sload(0x06)\n      sload(0x07)\n      sload(0x08)\n      sload(0x09)\n      tag_58\n      swap6\n      swap5\n      swap4\n      swap3\n      swap2\n      swap1\n      dup7\n      jump\n    tag_58:\n      0x40\n      dup1\n      mload\n        /* \"#utility.yul\":6222:6247   */\n      swap7\n      dup8\n      mstore\n        /* \"#utility.yul\":6278:6280   */\n      0x20\n        /* \"#utility.yul\":6263:6281   */\n      dup8\n      add\n        /* \"#utility.yul\":6256:6290   */\n      swap6\n      swap1\n      swap6\n      mstore\n        /* \"#utility.yul\":6306:6324   */\n      swap4\n      dup6\n      add\n        /* \"#utility.yul\":6299:6333   */\n      swap3\n      swap1\n      swap3\n      mstore\n        /* \"#utility.yul\":6364:6366   */\n      0x60\n        /* \"#utility.yul\":6349:6367   */\n      dup5\n      add\n        /* \"#utility.yul\":6342:6376   */\n      mstore\n        /* \"#utility.yul\":6407:6410   */\n      0x80\n        /* \"#utility.yul\":6392:6411   */\n      dup4\n      add\n        /* \"#utility.yul\":6385:6420   */\n      mstore\n        /* \"#utility.yul\":6451:6454   */\n      0xa0\n        /* \"#utility.yul\":6436:6455   */\n      dup3\n      add\n        /* \"#utility.yul\":6429:6464   */\n      mstore\n        /* \"#utility.yul\":6209:6212   */\n      0xc0\n        /* \"#utility.yul\":6194:6213   */\n      add\n        /* \"Ethereum/Presale.sol\":1417:1451  PresaleStatus public presaleStatus */\n      tag_22\n        /* \"#utility.yul\":6176:6470   */\n      jump\n        /* \"Ethereum/Presale.sol\":1491:1509  IERC20 public WETH */\n    tag_12:\n      callvalue\n      dup1\n      iszero\n      tag_62\n      jumpi\n      0x00\n      dup1\n      revert\n    tag_62:\n      pop\n      sload(0x18)\n      tag_48\n      swap1\n      sub(shl(0xa0, 0x01), 0x01)\n      and\n      dup2\n      jump\n        /* \"Ethereum/Presale.sol\":1315:1361  mapping(address => BuyerInfo) public buyerInfo */\n    tag_13:\n      callvalue\n      dup1\n      iszero\n      tag_67\n      jumpi\n      0x00\n      dup1\n      revert\n    tag_67:\n      pop\n      tag_68\n      tag_69\n      calldatasize\n      0x04\n      tag_36\n      jump\t// in\n    tag_69:\n      0x02\n      0x20\n      dup2\n      swap1\n      mstore\n      0x00\n      swap2\n      dup3\n      mstore\n      0x40\n      swap1\n      swap2\n      keccak256\n      dup1\n      sload\n      0x01\n      dup3\n      add\n      sload\n      swap3\n      dup3\n      add\n      sload\n      0x03\n      dup4\n      add\n      sload\n      0x04\n      swap1\n      swap4\n      add\n      sload\n      swap2\n      swap4\n      swap3\n      swap1\n      swap2\n      0xff\n      dup1\n      dup3\n      and\n      swap2\n      0x0100\n      swap1\n      div\n      and\n      dup7\n      jump\n    tag_68:\n      0x40\n      dup1\n      mload\n        /* \"#utility.yul\":5650:5675   */\n      swap7\n      dup8\n      mstore\n        /* \"#utility.yul\":5706:5708   */\n      0x20\n        /* \"#utility.yul\":5691:5709   */\n      dup8\n      add\n        /* \"#utility.yul\":5684:5718   */\n      swap6\n      swap1\n      swap6\n      mstore\n        /* \"#utility.yul\":5734:5752   */\n      swap4\n      dup6\n      add\n        /* \"#utility.yul\":5727:5761   */\n      swap3\n      swap1\n      swap3\n      mstore\n        /* \"#utility.yul\":5792:5794   */\n      0x60\n        /* \"#utility.yul\":5777:5795   */\n      dup5\n      add\n        /* \"#utility.yul\":5770:5804   */\n      mstore\n        /* \"#utility.yul\":5848:5862   */\n      iszero\n        /* \"#utility.yul\":5841:5863   */\n      iszero\n        /* \"#utility.yul\":5835:5838   */\n      0x80\n        /* \"#utility.yul\":5820:5839   */\n      dup4\n      add\n        /* \"#utility.yul\":5813:5864   */\n      mstore\n        /* \"#utility.yul\":5908:5922   */\n      iszero\n        /* \"#utility.yul\":5901:5923   */\n      iszero\n        /* \"#utility.yul\":5895:5898   */\n      0xa0\n        /* \"#utility.yul\":5880:5899   */\n      dup3\n      add\n        /* \"#utility.yul\":5873:5924   */\n      mstore\n        /* \"#utility.yul\":5637:5640   */\n      0xc0\n        /* \"#utility.yul\":5622:5641   */\n      add\n        /* \"Ethereum/Presale.sol\":1315:1361  mapping(address => BuyerInfo) public buyerInfo */\n      tag_22\n        /* \"#utility.yul\":5604:5930   */\n      jump\n        /* \"Utils/Ownable.sol\":1972:2173  function transferOwnership(address newOwner) public virtual onlyOwner {\r... */\n    tag_14:\n      callvalue\n      dup1\n      iszero\n      tag_73\n      jumpi\n      0x00\n      dup1\n      revert\n    tag_73:\n      pop\n      tag_29\n      tag_75\n      calldatasize\n      0x04\n      tag_36\n      jump\t// in\n    tag_75:\n      tag_76\n      jump\t// in\n        /* \"Ethereum/Presale.sol\":3645:3756  function getBalance(address _address) external view returns(uint256) {\r... */\n    tag_15:\n      callvalue\n      dup1\n      iszero\n      tag_77\n      jumpi\n      0x00\n      dup1\n      revert\n    tag_77:\n      pop\n      tag_25\n      tag_79\n      calldatasize\n      0x04\n      tag_36\n      jump\t// in\n    tag_79:\n      sub(shl(0xa0, 0x01), 0x01)\n        /* \"Ethereum/Presale.sol\":3732:3748  _address.balance */\n      and\n      balance\n      swap1\n        /* \"Ethereum/Presale.sol\":3645:3756  function getBalance(address _address) external view returns(uint256) {\r... */\n      jump\n        /* \"Ethereum/Presale.sol\":2842:3179  function status() public view returns(uint256) {\r... */\n    tag_26:\n        /* \"Ethereum/Presale.sol\":2921:2940  saleInfor.startSale */\n      sload(0x0f)\n        /* \"Ethereum/Presale.sol\":2880:2887  uint256 */\n      0x00\n      swap1\n        /* \"Ethereum/Presale.sol\":2903:2918  block.timestamp */\n      timestamp\n        /* \"Ethereum/Presale.sol\":2903:2940  block.timestamp < saleInfor.startSale */\n      lt\n        /* \"Ethereum/Presale.sol\":2900:3172  if(block.timestamp < saleInfor.startSale) {\r... */\n      iszero\n      tag_84\n      jumpi\n      pop\n        /* \"Ethereum/Presale.sol\":2964:2965  0 */\n      0x00\n      swap1\n        /* \"Ethereum/Presale.sol\":2842:3179  function status() public view returns(uint256) {\r... */\n      jump\t// out\n        /* \"Ethereum/Presale.sol\":2900:3172  if(block.timestamp < saleInfor.startSale) {\r... */\n    tag_84:\n        /* \"Ethereum/Presale.sol\":3031:3048  saleInfor.endSale */\n      sload(0x10)\n        /* \"Ethereum/Presale.sol\":3013:3028  block.timestamp */\n      timestamp\n        /* \"Ethereum/Presale.sol\":3013:3048  block.timestamp > saleInfor.endSale */\n      gt\n        /* \"Ethereum/Presale.sol\":3010:3161  if(block.timestamp > saleInfor.endSale) {\r... */\n      iszero\n      tag_86\n      jumpi\n      pop\n        /* \"Ethereum/Presale.sol\":3076:3077  2 */\n      0x02\n      swap1\n        /* \"Ethereum/Presale.sol\":2842:3179  function status() public view returns(uint256) {\r... */\n      jump\t// out\n        /* \"Ethereum/Presale.sol\":3010:3161  if(block.timestamp > saleInfor.endSale) {\r... */\n    tag_86:\n      pop\n        /* \"Ethereum/Presale.sol\":3134:3135  1 */\n      0x01\n      swap1\n        /* \"Ethereum/Presale.sol\":2842:3179  function status() public view returns(uint256) {\r... */\n      jump\t// out\n        /* \"Ethereum/Presale.sol\":3883:4004  function transferETH(uint256 amount) external payable {\r... */\n    tag_32:\n        /* \"Ethereum/Presale.sol\":3956:3966  msg.sender */\n      caller\n        /* \"Ethereum/Presale.sol\":3948:3996  payable(msg.sender).transfer(msg.value - amount) */\n      0x08fc\n        /* \"Ethereum/Presale.sol\":3977:3995  msg.value - amount */\n      tag_89\n        /* \"Ethereum/Presale.sol\":3989:3995  amount */\n      dup4\n        /* \"Ethereum/Presale.sol\":3977:3986  msg.value */\n      callvalue\n        /* \"Ethereum/Presale.sol\":3977:3995  msg.value - amount */\n      tag_90\n      jump\t// in\n    tag_89:\n        /* \"Ethereum/Presale.sol\":3948:3996  payable(msg.sender).transfer(msg.value - amount) */\n      mload(0x40)\n      dup2\n      iszero\n      swap1\n      swap3\n      mul\n      swap2\n      0x00\n      dup2\n      dup2\n      dup2\n      dup6\n      dup9\n      dup9\n      call\n      swap4\n      pop\n      pop\n      pop\n      pop\n      iszero\n      dup1\n      iszero\n      tag_92\n      jumpi\n      returndatasize\n      0x00\n      dup1\n      returndatacopy\n      revert(0x00, returndatasize)\n    tag_92:\n      pop\n        /* \"Ethereum/Presale.sol\":3883:4004  function transferETH(uint256 amount) external payable {\r... */\n      pop\n      jump\t// out\n        /* \"Utils/Ownable.sol\":1714:1817  function renounceOwnership() public virtual onlyOwner {\r... */\n    tag_41:\n        /* \"Utils/Ownable.sol\":1136:1142  _owner */\n      and(sub(shl(0xa0, 0x01), 0x01), sload(0x01))\n        /* \"Utils/Context.sol\":736:746  msg.sender */\n      caller\n        /* \"Utils/Ownable.sol\":1283:1306  owner() == _msgSender() */\n      eq\n        /* \"Utils/Ownable.sol\":1275:1343  require(owner() == _msgSender(), \"Ownable: caller is not the owner\") */\n      tag_97\n      jumpi\n      mload(0x40)\n      shl(0xe5, 0x461bcd)\n      dup2\n      mstore\n        /* \"#utility.yul\":4674:4676   */\n      0x20\n        /* \"Utils/Ownable.sol\":1275:1343  require(owner() == _msgSender(), \"Ownable: caller is not the owner\") */\n      0x04\n      dup3\n      add\n        /* \"#utility.yul\":4656:4677   */\n      dup2\n      swap1\n      mstore\n        /* \"#utility.yul\":4693:4711   */\n      0x24\n      dup3\n      add\n        /* \"#utility.yul\":4686:4716   */\n      mstore\n        /* \"#utility.yul\":4752:4786   */\n      0x4f776e61626c653a2063616c6c6572206973206e6f7420746865206f776e6572\n        /* \"#utility.yul\":4732:4750   */\n      0x44\n      dup3\n      add\n        /* \"#utility.yul\":4725:4787   */\n      mstore\n        /* \"#utility.yul\":4804:4822   */\n      0x64\n      add\n        /* \"Utils/Ownable.sol\":1275:1343  require(owner() == _msgSender(), \"Ownable: caller is not the owner\") */\n    tag_98:\n      mload(0x40)\n      dup1\n      swap2\n      sub\n      swap1\n      revert\n    tag_97:\n        /* \"Utils/Ownable.sol\":1779:1809  _transferOwnership(address(0)) */\n      tag_101\n        /* \"Utils/Ownable.sol\":1806:1807  0 */\n      0x00\n        /* \"Utils/Ownable.sol\":1779:1797  _transferOwnership */\n      tag_102\n        /* \"Utils/Ownable.sol\":1779:1809  _transferOwnership(address(0)) */\n      jump\t// in\n    tag_101:\n        /* \"Utils/Ownable.sol\":1714:1817  function renounceOwnership() public virtual onlyOwner {\r... */\n      jump\t// out\n        /* \"Ethereum/Presale.sol\":3187:3637  function depodit(uint256 _amount) external payable nonReentrant {\r... */\n    tag_44:\n        /* \"Utils/ReentrancyGuard.sol\":1778:1779  2 */\n      0x02\n        /* \"Utils/ReentrancyGuard.sol\":2376:2383  _status */\n      sload(0x00)\n        /* \"Utils/ReentrancyGuard.sol\":2376:2395  _status != _ENTERED */\n      eq\n      iszero\n        /* \"Utils/ReentrancyGuard.sol\":2368:2431  require(_status != _ENTERED, \"ReentrancyGuard: reentrant call\") */\n      tag_104\n      jumpi\n      mload(0x40)\n      shl(0xe5, 0x461bcd)\n      dup2\n      mstore\n        /* \"#utility.yul\":5035:5037   */\n      0x20\n        /* \"Utils/ReentrancyGuard.sol\":2368:2431  require(_status != _ENTERED, \"ReentrancyGuard: reentrant call\") */\n      0x04\n      dup3\n      add\n        /* \"#utility.yul\":5017:5038   */\n      mstore\n        /* \"#utility.yul\":5074:5076   */\n      0x1f\n        /* \"#utility.yul\":5054:5072   */\n      0x24\n      dup3\n      add\n        /* \"#utility.yul\":5047:5077   */\n      mstore\n        /* \"#utility.yul\":5113:5146   */\n      0x5265656e7472616e637947756172643a207265656e7472616e742063616c6c00\n        /* \"#utility.yul\":5093:5111   */\n      0x44\n      dup3\n      add\n        /* \"#utility.yul\":5086:5147   */\n      mstore\n        /* \"#utility.yul\":5164:5182   */\n      0x64\n      add\n        /* \"Utils/ReentrancyGuard.sol\":2368:2431  require(_status != _ENTERED, \"ReentrancyGuard: reentrant call\") */\n      tag_98\n        /* \"#utility.yul\":5007:5188   */\n      jump\n        /* \"Utils/ReentrancyGuard.sol\":2368:2431  require(_status != _ENTERED, \"ReentrancyGuard: reentrant call\") */\n    tag_104:\n        /* \"Utils/ReentrancyGuard.sol\":1778:1779  2 */\n      0x02\n        /* \"Utils/ReentrancyGuard.sol\":2509:2516  _status */\n      0x00\n        /* \"Utils/ReentrancyGuard.sol\":2509:2527  _status = _ENTERED */\n      sstore\n        /* \"Ethereum/Presale.sol\":3270:3278  status() */\n      tag_108\n        /* \"Ethereum/Presale.sol\":3270:3276  status */\n      tag_26\n        /* \"Ethereum/Presale.sol\":3270:3278  status() */\n      jump\t// in\n    tag_108:\n        /* \"Ethereum/Presale.sol\":3282:3283  1 */\n      0x01\n        /* \"Ethereum/Presale.sol\":3270:3283  status() == 1 */\n      eq\n        /* \"Ethereum/Presale.sol\":3262:3298  require(status() == 1, \"NOT ACTIVE\") */\n      tag_109\n      jumpi\n      mload(0x40)\n      shl(0xe5, 0x461bcd)\n      dup2\n      mstore\n        /* \"#utility.yul\":3990:3992   */\n      0x20\n        /* \"Ethereum/Presale.sol\":3262:3298  require(status() == 1, \"NOT ACTIVE\") */\n      0x04\n      dup3\n      add\n        /* \"#utility.yul\":3972:3993   */\n      mstore\n        /* \"#utility.yul\":4029:4031   */\n      0x0a\n        /* \"#utility.yul\":4009:4027   */\n      0x24\n      dup3\n      add\n        /* \"#utility.yul\":4002:4032   */\n      mstore\n      shl(0xb0, 0x4e4f5420414354495645)\n        /* \"#utility.yul\":4048:4066   */\n      0x44\n      dup3\n      add\n        /* \"#utility.yul\":4041:4081   */\n      mstore\n        /* \"#utility.yul\":4098:4116   */\n      0x64\n      add\n        /* \"Ethereum/Presale.sol\":3262:3298  require(status() == 1, \"NOT ACTIVE\") */\n      tag_98\n        /* \"#utility.yul\":3962:4122   */\n      jump\n        /* \"Ethereum/Presale.sol\":3262:3298  require(status() == 1, \"NOT ACTIVE\") */\n    tag_109:\n        /* \"Ethereum/Presale.sol\":3355:3365  msg.sender */\n      caller\n        /* \"Ethereum/Presale.sol\":3319:3342  BuyerInfo storage buyer */\n      0x00\n        /* \"Ethereum/Presale.sol\":3345:3366  buyerInfo[msg.sender] */\n      swap1\n      dup2\n      mstore\n        /* \"Ethereum/Presale.sol\":3345:3354  buyerInfo */\n      0x02\n        /* \"Ethereum/Presale.sol\":3345:3366  buyerInfo[msg.sender] */\n      0x20\n      mstore\n      0x40\n      dup2\n      keccak256\n        /* \"Ethereum/Presale.sol\":3397:3422  saleInfor.saleIsBaseToken */\n      sload(0x17)\n        /* \"Ethereum/Presale.sol\":3345:3366  buyerInfo[msg.sender] */\n      swap1\n      swap2\n        /* \"Ethereum/Presale.sol\":3319:3342  BuyerInfo storage buyer */\n      swap1\n        /* \"Ethereum/Presale.sol\":3397:3422  saleInfor.saleIsBaseToken */\n      0xff\n      and\n        /* \"Ethereum/Presale.sol\":3397:3444  saleInfor.saleIsBaseToken ? msg.value : _amount */\n      tag_112\n      jumpi\n        /* \"Ethereum/Presale.sol\":3437:3444  _amount */\n      dup3\n        /* \"Ethereum/Presale.sol\":3397:3444  saleInfor.saleIsBaseToken ? msg.value : _amount */\n      jump(tag_113)\n    tag_112:\n        /* \"Ethereum/Presale.sol\":3425:3434  msg.value */\n      callvalue\n        /* \"Ethereum/Presale.sol\":3397:3444  saleInfor.saleIsBaseToken ? msg.value : _amount */\n    tag_113:\n        /* \"Ethereum/Presale.sol\":3552:3578  saleInfor.minSpendPerBuyer */\n      sload(0x13)\n        /* \"Ethereum/Presale.sol\":3377:3444  uint256 amount_in = saleInfor.saleIsBaseToken ? msg.value : _amount */\n      swap1\n      swap2\n      pop\n      dup2\n      swap1\n        /* \"Ethereum/Presale.sol\":3455:3477  uint256 real_amount_in */\n      0x00\n      swap1\n        /* \"Ethereum/Presale.sol\":3534:3578  real_amount_in >= saleInfor.minSpendPerBuyer */\n      dup3\n      lt\n      iszero\n        /* \"Ethereum/Presale.sol\":3526:3627  require(real_amount_in >= saleInfor.minSpendPerBuyer, \r... */\n      tag_114\n      jumpi\n      mload(0x40)\n      shl(0xe5, 0x461bcd)\n      dup2\n      mstore\n        /* \"#utility.yul\":4329:4331   */\n      0x20\n        /* \"Ethereum/Presale.sol\":3526:3627  require(real_amount_in >= saleInfor.minSpendPerBuyer, \r... */\n      0x04\n      dup3\n      add\n        /* \"#utility.yul\":4311:4332   */\n      mstore\n        /* \"#utility.yul\":4368:4370   */\n      0x10\n        /* \"#utility.yul\":4348:4366   */\n      0x24\n      dup3\n      add\n        /* \"#utility.yul\":4341:4371   */\n      mstore\n      shl(0x80, 0x4e6f7420656e6f7567682076616c7565)\n        /* \"#utility.yul\":4387:4405   */\n      0x44\n      dup3\n      add\n        /* \"#utility.yul\":4380:4426   */\n      mstore\n        /* \"#utility.yul\":4443:4461   */\n      0x64\n      add\n        /* \"Ethereum/Presale.sol\":3526:3627  require(real_amount_in >= saleInfor.minSpendPerBuyer, \r... */\n      tag_98\n        /* \"#utility.yul\":4301:4467   */\n      jump\n        /* \"Ethereum/Presale.sol\":3526:3627  require(real_amount_in >= saleInfor.minSpendPerBuyer, \r... */\n    tag_114:\n      pop\n      pop\n        /* \"Utils/ReentrancyGuard.sol\":1734:1735  1 */\n      0x01\n        /* \"Utils/ReentrancyGuard.sol\":2688:2695  _status */\n      0x00\n        /* \"Utils/ReentrancyGuard.sol\":2688:2710  _status = _NOT_ENTERED */\n      sstore\n      pop\n      pop\n      pop\n        /* \"Ethereum/Presale.sol\":3187:3637  function depodit(uint256 _amount) external payable nonReentrant {\r... */\n      jump\t// out\n        /* \"Ethereum/Presale.sol\":3767:3875  function backToken() external payable {\r... */\n    tag_46:\n        /* \"Ethereum/Presale.sol\":3816:3867  payable(msg.sender).transfer(address(this).balance) */\n      mload(0x40)\n        /* \"Ethereum/Presale.sol\":3824:3834  msg.sender */\n      caller\n      swap1\n        /* \"Ethereum/Presale.sol\":3845:3866  address(this).balance */\n      selfbalance\n        /* \"Ethereum/Presale.sol\":3816:3867  payable(msg.sender).transfer(address(this).balance) */\n      dup1\n      iszero\n      0x08fc\n      mul\n      swap2\n      0x00\n      dup2\n      dup2\n      dup2\n        /* \"Ethereum/Presale.sol\":3845:3866  address(this).balance */\n      dup6\n        /* \"Ethereum/Presale.sol\":3824:3834  msg.sender */\n      dup9\n        /* \"Ethereum/Presale.sol\":3816:3867  payable(msg.sender).transfer(address(this).balance) */\n      dup9\n      call\n      swap4\n      pop\n      pop\n      pop\n      pop\n      iszero\n      dup1\n      iszero\n      tag_119\n      jumpi\n      returndatasize\n      0x00\n      dup1\n      returndatacopy\n      revert(0x00, returndatasize)\n    tag_119:\n      pop\n        /* \"Ethereum/Presale.sol\":3767:3875  function backToken() external payable {\r... */\n      jump\t// out\n        /* \"Utils/Ownable.sol\":1972:2173  function transferOwnership(address newOwner) public virtual onlyOwner {\r... */\n    tag_76:\n        /* \"Utils/Ownable.sol\":1136:1142  _owner */\n      and(sub(shl(0xa0, 0x01), 0x01), sload(0x01))\n        /* \"Utils/Context.sol\":736:746  msg.sender */\n      caller\n        /* \"Utils/Ownable.sol\":1283:1306  owner() == _msgSender() */\n      eq\n        /* \"Utils/Ownable.sol\":1275:1343  require(owner() == _msgSender(), \"Ownable: caller is not the owner\") */\n      tag_134\n      jumpi\n      mload(0x40)\n      shl(0xe5, 0x461bcd)\n      dup2\n      mstore\n        /* \"#utility.yul\":4674:4676   */\n      0x20\n        /* \"Utils/Ownable.sol\":1275:1343  require(owner() == _msgSender(), \"Ownable: caller is not the owner\") */\n      0x04\n      dup3\n      add\n        /* \"#utility.yul\":4656:4677   */\n      dup2\n      swap1\n      mstore\n        /* \"#utility.yul\":4693:4711   */\n      0x24\n      dup3\n      add\n        /* \"#utility.yul\":4686:4716   */\n      mstore\n        /* \"#utility.yul\":4752:4786   */\n      0x4f776e61626c653a2063616c6c6572206973206e6f7420746865206f776e6572\n        /* \"#utility.yul\":4732:4750   */\n      0x44\n      dup3\n      add\n        /* \"#utility.yul\":4725:4787   */\n      mstore\n        /* \"#utility.yul\":4804:4822   */\n      0x64\n      add\n        /* \"Utils/Ownable.sol\":1275:1343  require(owner() == _msgSender(), \"Ownable: caller is not the owner\") */\n      tag_98\n        /* \"#utility.yul\":4646:4828   */\n      jump\n        /* \"Utils/Ownable.sol\":1275:1343  require(owner() == _msgSender(), \"Ownable: caller is not the owner\") */\n    tag_134:\n      sub(shl(0xa0, 0x01), 0x01)\n        /* \"Utils/Ownable.sol\":2061:2083  newOwner != address(0) */\n      dup2\n      and\n        /* \"Utils/Ownable.sol\":2053:2126  require(newOwner != address(0), \"Ownable: new owner is the zero address\") */\n      tag_137\n      jumpi\n      mload(0x40)\n      shl(0xe5, 0x461bcd)\n      dup2\n      mstore\n        /* \"#utility.yul\":3583:3585   */\n      0x20\n        /* \"Utils/Ownable.sol\":2053:2126  require(newOwner != address(0), \"Ownable: new owner is the zero address\") */\n      0x04\n      dup3\n      add\n        /* \"#utility.yul\":3565:3586   */\n      mstore\n        /* \"#utility.yul\":3622:3624   */\n      0x26\n        /* \"#utility.yul\":3602:3620   */\n      0x24\n      dup3\n      add\n        /* \"#utility.yul\":3595:3625   */\n      mstore\n        /* \"#utility.yul\":3661:3695   */\n      0x4f776e61626c653a206e6577206f776e657220697320746865207a65726f2061\n        /* \"#utility.yul\":3641:3659   */\n      0x44\n      dup3\n      add\n        /* \"#utility.yul\":3634:3696   */\n      mstore\n      shl(0xd0, 0x646472657373)\n        /* \"#utility.yul\":3712:3730   */\n      0x64\n      dup3\n      add\n        /* \"#utility.yul\":3705:3741   */\n      mstore\n        /* \"#utility.yul\":3758:3777   */\n      0x84\n      add\n        /* \"Utils/Ownable.sol\":2053:2126  require(newOwner != address(0), \"Ownable: new owner is the zero address\") */\n      tag_98\n        /* \"#utility.yul\":3555:3783   */\n      jump\n        /* \"Utils/Ownable.sol\":2053:2126  require(newOwner != address(0), \"Ownable: new owner is the zero address\") */\n    tag_137:\n        /* \"Utils/Ownable.sol\":2137:2165  _transferOwnership(newOwner) */\n      tag_119\n        /* \"Utils/Ownable.sol\":2156:2164  newOwner */\n      dup2\n        /* \"Utils/Ownable.sol\":2137:2155  _transferOwnership */\n      tag_102\n        /* \"Utils/Ownable.sol\":2137:2165  _transferOwnership(newOwner) */\n      jump\t// in\n        /* \"Utils/EnumerableSet.sol\":8259:8411  function add(AddressSet storage set, address value) internal returns (bool) {\r... */\n    tag_82:\n        /* \"Utils/EnumerableSet.sol\":8329:8333  bool */\n      0x00\n        /* \"Utils/EnumerableSet.sol\":8353:8403  _add(set._inner, bytes32(uint256(uint160(value)))) */\n      tag_143\n        /* \"Utils/EnumerableSet.sol\":8358:8361  set */\n      dup4\n      sub(shl(0xa0, 0x01), 0x01)\n        /* \"Utils/EnumerableSet.sol\":8378:8401  uint256(uint160(value)) */\n      dup5\n      and\n        /* \"Utils/EnumerableSet.sol\":8353:8357  _add */\n      tag_144\n        /* \"Utils/EnumerableSet.sol\":8353:8403  _add(set._inner, bytes32(uint256(uint160(value)))) */\n      jump\t// in\n    tag_143:\n        /* \"Utils/EnumerableSet.sol\":8346:8403  return _add(set._inner, bytes32(uint256(uint160(value)))) */\n      swap1\n      pop\n        /* \"Utils/EnumerableSet.sol\":8259:8411  function add(AddressSet storage set, address value) internal returns (bool) {\r... */\n    tag_142:\n      swap3\n      swap2\n      pop\n      pop\n      jump\t// out\n        /* \"Utils/Ownable.sol\":2333:2524  function _transferOwnership(address newOwner) internal virtual {\r... */\n    tag_102:\n        /* \"Utils/Ownable.sol\":2426:2432  _owner */\n      0x01\n      dup1\n      sload\n      sub(shl(0xa0, 0x01), 0x01)\n        /* \"Utils/Ownable.sol\":2443:2460  _owner = newOwner */\n      dup4\n      dup2\n      and\n      not(sub(shl(0xa0, 0x01), 0x01))\n      dup4\n      and\n      dup2\n      or\n      swap1\n      swap4\n      sstore\n        /* \"Utils/Ownable.sol\":2476:2516  OwnershipTransferred(oldOwner, newOwner) */\n      mload(0x40)\n        /* \"Utils/Ownable.sol\":2426:2432  _owner */\n      swap2\n      and\n      swap2\n        /* \"Utils/Ownable.sol\":2443:2460  _owner = newOwner */\n      swap1\n        /* \"Utils/Ownable.sol\":2426:2432  _owner */\n      dup3\n      swap1\n        /* \"Utils/Ownable.sol\":2476:2516  OwnershipTransferred(oldOwner, newOwner) */\n      0x8be0079c531659141344cd1fd0a4f28419497f9722a3daafe3b4186f6b6457e0\n      swap1\n        /* \"Utils/Ownable.sol\":2407:2423  address oldOwner */\n      0x00\n      swap1\n        /* \"Utils/Ownable.sol\":2476:2516  OwnershipTransferred(oldOwner, newOwner) */\n      log3\n        /* \"Utils/Ownable.sol\":2333:2524  function _transferOwnership(address newOwner) internal virtual {\r... */\n      pop\n      pop\n      jump\t// out\n        /* \"Utils/EnumerableSet.sol\":2174:2588  function _add(Set storage set, bytes32 value) private returns (bool) {\r... */\n    tag_144:\n        /* \"Utils/EnumerableSet.sol\":2237:2241  bool */\n      0x00\n        /* \"Utils/EnumerableSet.sol\":4367:4386  set._indexes[value] */\n      dup2\n      dup2\n      mstore\n        /* \"Utils/EnumerableSet.sol\":4367:4379  set._indexes */\n      0x01\n      dup4\n      add\n        /* \"Utils/EnumerableSet.sol\":4367:4386  set._indexes[value] */\n      0x20\n      mstore\n      0x40\n      dup2\n      keccak256\n      sload\n        /* \"Utils/EnumerableSet.sol\":2254:2581  if (!_contains(set, value)) {\r... */\n      tag_150\n      jumpi\n      pop\n        /* \"Utils/EnumerableSet.sol\":2297:2320  set._values.push(value) */\n      dup2\n      sload\n      0x01\n      dup2\n      dup2\n      add\n      dup5\n      sstore\n        /* \"Utils/EnumerableSet.sol\":2297:2308  set._values */\n      0x00\n        /* \"Utils/EnumerableSet.sol\":2297:2320  set._values.push(value) */\n      dup5\n      dup2\n      mstore\n      0x20\n      dup1\n      dup3\n      keccak256\n      swap1\n      swap4\n      add\n      dup5\n      swap1\n      sstore\n        /* \"Utils/EnumerableSet.sol\":2480:2498  set._values.length */\n      dup5\n      sload\n        /* \"Utils/EnumerableSet.sol\":2458:2477  set._indexes[value] */\n      dup5\n      dup3\n      mstore\n        /* \"Utils/EnumerableSet.sol\":2458:2470  set._indexes */\n      dup3\n      dup7\n      add\n        /* \"Utils/EnumerableSet.sol\":2458:2477  set._indexes[value] */\n      swap1\n      swap4\n      mstore\n      0x40\n      swap1\n      keccak256\n        /* \"Utils/EnumerableSet.sol\":2458:2498  set._indexes[value] = set._values.length */\n      swap2\n      swap1\n      swap2\n      sstore\n        /* \"Utils/EnumerableSet.sol\":2513:2524  return true */\n      jump(tag_142)\n        /* \"Utils/EnumerableSet.sol\":2254:2581  if (!_contains(set, value)) {\r... */\n    tag_150:\n      pop\n        /* \"Utils/EnumerableSet.sol\":2564:2569  false */\n      0x00\n        /* \"Utils/EnumerableSet.sol\":2557:2569  return false */\n      jump(tag_142)\n        /* \"#utility.yul\":14:271   */\n    tag_36:\n        /* \"#utility.yul\":73:79   */\n      0x00\n        /* \"#utility.yul\":126:128   */\n      0x20\n        /* \"#utility.yul\":114:123   */\n      dup3\n        /* \"#utility.yul\":105:112   */\n      dup5\n        /* \"#utility.yul\":101:124   */\n      sub\n        /* \"#utility.yul\":97:129   */\n      slt\n        /* \"#utility.yul\":94:96   */\n      iszero\n      tag_156\n      jumpi\n        /* \"#utility.yul\":147:153   */\n      dup1\n        /* \"#utility.yul\":139:145   */\n      dup2\n        /* \"#utility.yul\":132:154   */\n      revert\n        /* \"#utility.yul\":94:96   */\n    tag_156:\n        /* \"#utility.yul\":191:200   */\n      dup2\n        /* \"#utility.yul\":178:201   */\n      calldataload\n        /* \"#utility.yul\":210:241   */\n      tag_157\n        /* \"#utility.yul\":235:240   */\n      dup2\n        /* \"#utility.yul\":210:241   */\n      tag_158\n      jump\t// in\n    tag_157:\n        /* \"#utility.yul\":260:265   */\n      swap4\n        /* \"#utility.yul\":84:271   */\n      swap3\n      pop\n      pop\n      pop\n      jump\t// out\n        /* \"#utility.yul\":276:1572   */\n    tag_55:\n        /* \"#utility.yul\":419:425   */\n      0x00\n        /* \"#utility.yul\":427:433   */\n      dup1\n        /* \"#utility.yul\":435:441   */\n      0x00\n        /* \"#utility.yul\":443:449   */\n      dup1\n        /* \"#utility.yul\":474:477   */\n      0x0180\n        /* \"#utility.yul\":518:520   */\n      dup1\n        /* \"#utility.yul\":506:515   */\n      dup7\n        /* \"#utility.yul\":497:504   */\n      dup9\n        /* \"#utility.yul\":493:516   */\n      sub\n        /* \"#utility.yul\":489:521   */\n      slt\n        /* \"#utility.yul\":486:488   */\n      iszero\n      tag_160\n      jumpi\n        /* \"#utility.yul\":539:545   */\n      dup4\n        /* \"#utility.yul\":531:537   */\n      dup5\n        /* \"#utility.yul\":524:546   */\n      revert\n        /* \"#utility.yul\":486:488   */\n    tag_160:\n        /* \"#utility.yul\":583:592   */\n      dup6\n        /* \"#utility.yul\":570:593   */\n      calldataload\n        /* \"#utility.yul\":602:633   */\n      tag_161\n        /* \"#utility.yul\":627:632   */\n      dup2\n        /* \"#utility.yul\":602:633   */\n      tag_158\n      jump\t// in\n    tag_161:\n        /* \"#utility.yul\":652:657   */\n      swap5\n      pop\n        /* \"#utility.yul\":676:678   */\n      0x20\n        /* \"#utility.yul\":715:733   */\n      dup7\n      dup2\n      add\n        /* \"#utility.yul\":702:734   */\n      calldataload\n        /* \"#utility.yul\":743:776   */\n      tag_162\n        /* \"#utility.yul\":702:734   */\n      dup2\n        /* \"#utility.yul\":743:776   */\n      tag_158\n      jump\t// in\n    tag_162:\n        /* \"#utility.yul\":795:802   */\n      swap5\n      pop\n        /* \"#utility.yul\":854:856   */\n      0x40\n        /* \"#utility.yul\":839:857   */\n      dup8\n      add\n        /* \"#utility.yul\":826:858   */\n      calldataload\n        /* \"#utility.yul\":867:900   */\n      tag_163\n        /* \"#utility.yul\":826:858   */\n      dup2\n        /* \"#utility.yul\":867:900   */\n      tag_158\n      jump\t// in\n    tag_163:\n        /* \"#utility.yul\":919:926   */\n      swap4\n      pop\n        /* \"#utility.yul\":964:967   */\n      0x7f\n        /* \"#utility.yul\":949:968   */\n      dup8\n      add\n        /* \"#utility.yul\":945:978   */\n      dup9\n      sgt\n        /* \"#utility.yul\":935:937   */\n      tag_164\n      jumpi\n        /* \"#utility.yul\":997:1003   */\n      dup3\n        /* \"#utility.yul\":989:995   */\n      dup4\n        /* \"#utility.yul\":982:1004   */\n      revert\n        /* \"#utility.yul\":935:937   */\n    tag_164:\n        /* \"#utility.yul\":1035:1037   */\n      0x40\n        /* \"#utility.yul\":1029:1038   */\n      mload\n        /* \"#utility.yul\":1077:1080   */\n      0x0120\n        /* \"#utility.yul\":1069:1075   */\n      dup2\n        /* \"#utility.yul\":1065:1081   */\n      add\n        /* \"#utility.yul\":1147:1153   */\n      dup2\n        /* \"#utility.yul\":1135:1145   */\n      dup2\n        /* \"#utility.yul\":1132:1154   */\n      lt\n        /* \"#utility.yul\":1111:1129   */\n      0xffffffffffffffff\n        /* \"#utility.yul\":1099:1109   */\n      dup3\n        /* \"#utility.yul\":1096:1130   */\n      gt\n        /* \"#utility.yul\":1093:1155   */\n      or\n        /* \"#utility.yul\":1090:1092   */\n      iszero\n      tag_166\n      jumpi\n        /* \"#utility.yul\":1158:1176   */\n      tag_166\n      tag_167\n      jump\t// in\n    tag_166:\n        /* \"#utility.yul\":1194:1196   */\n      0x40\n        /* \"#utility.yul\":1187:1209   */\n      mstore\n        /* \"#utility.yul\":1229:1235   */\n      dup1\n        /* \"#utility.yul\":1270:1272   */\n      0x60\n        /* \"#utility.yul\":1255:1273   */\n      dup10\n      add\n        /* \"#utility.yul\":1288:1306   */\n      dup5\n      dup11\n      add\n        /* \"#utility.yul\":1285:1316   */\n      dup12\n      lt\n        /* \"#utility.yul\":1282:1284   */\n      iszero\n      tag_168\n      jumpi\n        /* \"#utility.yul\":1334:1340   */\n      dup6\n        /* \"#utility.yul\":1326:1332   */\n      dup7\n        /* \"#utility.yul\":1319:1341   */\n      revert\n        /* \"#utility.yul\":1282:1284   */\n    tag_168:\n        /* \"#utility.yul\":1361:1367   */\n      dup6\n        /* \"#utility.yul\":1352:1367   */\n      swap5\n      pop\n        /* \"#utility.yul\":1376:1541   */\n    tag_169:\n        /* \"#utility.yul\":1390:1394   */\n      0x09\n        /* \"#utility.yul\":1387:1388   */\n      dup6\n        /* \"#utility.yul\":1384:1395   */\n      lt\n        /* \"#utility.yul\":1376:1541   */\n      iszero\n      tag_171\n      jumpi\n        /* \"#utility.yul\":1449:1466   */\n      dup1\n      calldataload\n        /* \"#utility.yul\":1437:1467   */\n      dup3\n      mstore\n        /* \"#utility.yul\":1410:1411   */\n      0x01\n        /* \"#utility.yul\":1403:1412   */\n      swap5\n      swap1\n      swap5\n      add\n      swap4\n        /* \"#utility.yul\":1487:1499   */\n      swap1\n      dup4\n      add\n      swap1\n        /* \"#utility.yul\":1519:1531   */\n      dup4\n      add\n        /* \"#utility.yul\":1376:1541   */\n      jump(tag_169)\n    tag_171:\n        /* \"#utility.yul\":1380:1383   */\n      pop\n      pop\n        /* \"#utility.yul\":1560:1566   */\n      dup1\n        /* \"#utility.yul\":1550:1566   */\n      swap4\n      pop\n      pop\n      pop\n      pop\n        /* \"#utility.yul\":454:1572   */\n      swap3\n      swap6\n      swap2\n      swap5\n      pop\n      swap3\n      pop\n      jump\t// out\n        /* \"#utility.yul\":1577:1767   */\n    tag_31:\n        /* \"#utility.yul\":1636:1642   */\n      0x00\n        /* \"#utility.yul\":1689:1691   */\n      0x20\n        /* \"#utility.yul\":1677:1686   */\n      dup3\n        /* \"#utility.yul\":1668:1675   */\n      dup5\n        /* \"#utility.yul\":1664:1687   */\n      sub\n        /* \"#utility.yul\":1660:1692   */\n      slt\n        /* \"#utility.yul\":1657:1659   */\n      iszero\n      tag_173\n      jumpi\n        /* \"#utility.yul\":1710:1716   */\n      dup1\n        /* \"#utility.yul\":1702:1708   */\n      dup2\n        /* \"#utility.yul\":1695:1717   */\n      revert\n        /* \"#utility.yul\":1657:1659   */\n    tag_173:\n      pop\n        /* \"#utility.yul\":1738:1761   */\n      calldataload\n      swap2\n        /* \"#utility.yul\":1647:1767   */\n      swap1\n      pop\n      jump\t// out\n        /* \"#utility.yul\":6475:6703   */\n    tag_90:\n        /* \"#utility.yul\":6515:6519   */\n      0x00\n        /* \"#utility.yul\":6543:6544   */\n      dup3\n        /* \"#utility.yul\":6540:6541   */\n      dup3\n        /* \"#utility.yul\":6537:6545   */\n      lt\n        /* \"#utility.yul\":6534:6536   */\n      iszero\n      tag_186\n      jumpi\n      shl(0xe0, 0x4e487b71)\n        /* \"#utility.yul\":6568:6602   */\n      dup2\n      mstore\n        /* \"#utility.yul\":6625:6629   */\n      0x11\n        /* \"#utility.yul\":6622:6623   */\n      0x04\n        /* \"#utility.yul\":6615:6630   */\n      mstore\n        /* \"#utility.yul\":6656:6660   */\n      0x24\n        /* \"#utility.yul\":6575:6579   */\n      dup2\n        /* \"#utility.yul\":6643:6661   */\n      revert\n        /* \"#utility.yul\":6534:6536   */\n    tag_186:\n      pop\n        /* \"#utility.yul\":6688:6697   */\n      sub\n      swap1\n        /* \"#utility.yul\":6524:6703   */\n      jump\t// out\n        /* \"#utility.yul\":6708:6835   */\n    tag_167:\n        /* \"#utility.yul\":6769:6779   */\n      0x4e487b71\n        /* \"#utility.yul\":6764:6767   */\n      0xe0\n        /* \"#utility.yul\":6760:6780   */\n      shl\n        /* \"#utility.yul\":6757:6758   */\n      0x00\n        /* \"#utility.yul\":6750:6781   */\n      mstore\n        /* \"#utility.yul\":6800:6804   */\n      0x41\n        /* \"#utility.yul\":6797:6798   */\n      0x04\n        /* \"#utility.yul\":6790:6805   */\n      mstore\n        /* \"#utility.yul\":6824:6828   */\n      0x24\n        /* \"#utility.yul\":6821:6822   */\n      0x00\n        /* \"#utility.yul\":6814:6829   */\n      revert\n        /* \"#utility.yul\":6840:6971   */\n    tag_158:\n      sub(shl(0xa0, 0x01), 0x01)\n        /* \"#utility.yul\":6915:6946   */\n      dup2\n      and\n        /* \"#utility.yul\":6905:6947   */\n      dup2\n      eq\n        /* \"#utility.yul\":6895:6897   */\n      tag_119\n      jumpi\n        /* \"#utility.yul\":6961:6962   */\n      0x00\n        /* \"#utility.yul\":6958:6959   */\n      dup1\n        /* \"#utility.yul\":6951:6963   */\n      revert\n\n    auxdata: 0xa2646970667358221220c2b11f3c2b6d2014b5dc2aa989bce7e320f3a1c644edd71aac2f804776e5aeed64736f6c63430008040033\n}\n",
				"bytecode": {
					"linkReferences": {},
					"object": "6080604052600160005561001233610097565b6018805473c778417e063141139fce010982780140aa0cd5ab6001600160a01b03199091161790556100646019736ccb41eeda5a073076f3e7dc1614c185b5fa41ed6100e9602090811b61075617901c565b50610091734f0b12bbf40fc182559822a5b1db6d34dbc3e01660196100e960201b6107561790919060201c565b50610156565b600180546001600160a01b038381166001600160a01b0319831681179093556040519116919082907f8be0079c531659141344cd1fd0a4f28419497f9722a3daafe3b4186f6b6457e090600090a35050565b60006100fe836001600160a01b038416610107565b90505b92915050565b600081815260018301602052604081205461014e57508154600181810184556000848152602080822090930184905584548482528286019093526040902091909155610101565b506000610101565b610995806101656000396000f3fe6080604052600436106100dd5760003560e01c80638da5cb5b1161007f578063ad5c464811610059578063ad5c464814610389578063e2d3f423146103a9578063f2fde38b14610430578063f8b2cb4f1461045057600080fd5b80638da5cb5b146102475780638f1eae4c14610279578063acfb23551461033157600080fd5b806356c5f349116100bb57806356c5f349146101ea578063715018a614610217578063796478331461022c578063861faf5f1461023f57600080fd5b806318856a2f146100e2578063200d2ed2146101b25780634329db46146101d5575b600080fd5b3480156100ee57600080fd5b50600b54600c54600d54600e54600f5460105460115460125460135460145460155460165460175461013a9c6001600160a01b039081169c81169b169998979695949392919060ff168d565b604080516001600160a01b039e8f1681529c8e1660208e01529a909c16998b019990995260608a0197909752608089019590955260a088019390935260c087019190915260e08601526101008501526101208401526101408301526101608201529015156101808201526101a0015b60405180910390f35b3480156101be57600080fd5b506101c7610478565b6040519081526020016101a9565b6101e86101e33660046108f9565b6104a1565b005b3480156101f657600080fd5b506101c7610205366004610815565b60036020526000908152604090205481565b34801561022357600080fd5b506101e86104db565b6101e861023a3660046108f9565b610546565b6101e861065f565b34801561025357600080fd5b506001546001600160a01b03165b6040516001600160a01b0390911681526020016101a9565b34801561028557600080fd5b506101e8610294366004610838565b600b80546001600160a01b03199081166001600160a01b0396871617909155600c8054821694861694909417909355600d80549093169184169182179092558151600e556020820151600f5560408201516010556060820151601155608082015160125560a082015160135560c082015160145560e0820151601555610100909101516016556018546017805460ff191691909316909114179055565b34801561033d57600080fd5b5060045460055460065460075460085460095461035c95949392919086565b604080519687526020870195909552938501929092526060840152608083015260a082015260c0016101a9565b34801561039557600080fd5b50601854610261906001600160a01b031681565b3480156103b557600080fd5b506103ff6103c4366004610815565b600260208190526000918252604090912080546001820154928201546003830154600490930154919392909160ff8082169161010090041686565b60408051968752602087019590955293850192909252606084015215156080830152151560a082015260c0016101a9565b34801561043c57600080fd5b506101e861044b366004610815565b61068e565b34801561045c57600080fd5b506101c761046b366004610815565b6001600160a01b03163190565b600f5460009042101561048b5750600090565b60105442111561049b5750600290565b50600190565b336108fc6104af8334610911565b6040518115909202916000818181858888f193505050501580156104d7573d6000803e3d6000fd5b5050565b6001546001600160a01b0316331461053a5760405162461bcd60e51b815260206004820181905260248201527f4f776e61626c653a2063616c6c6572206973206e6f7420746865206f776e657260448201526064015b60405180910390fd5b6105446000610774565b565b600260005414156105995760405162461bcd60e51b815260206004820152601f60248201527f5265656e7472616e637947756172643a207265656e7472616e742063616c6c006044820152606401610531565b60026000556105a6610478565b6001146105e25760405162461bcd60e51b815260206004820152600a6024820152694e4f542041435449564560b01b6044820152606401610531565b33600090815260026020526040812060175490919060ff166106045782610606565b345b60135490915081906000908210156106535760405162461bcd60e51b815260206004820152601060248201526f4e6f7420656e6f7567682076616c756560801b6044820152606401610531565b50506001600055505050565b60405133904780156108fc02916000818181858888f1935050505015801561068b573d6000803e3d6000fd5b50565b6001546001600160a01b031633146106e85760405162461bcd60e51b815260206004820181905260248201527f4f776e61626c653a2063616c6c6572206973206e6f7420746865206f776e65726044820152606401610531565b6001600160a01b03811661074d5760405162461bcd60e51b815260206004820152602660248201527f4f776e61626c653a206e6577206f776e657220697320746865207a65726f206160448201526564647265737360d01b6064820152608401610531565b61068b81610774565b600061076b836001600160a01b0384166107c6565b90505b92915050565b600180546001600160a01b038381166001600160a01b0319831681179093556040519116919082907f8be0079c531659141344cd1fd0a4f28419497f9722a3daafe3b4186f6b6457e090600090a35050565b600081815260018301602052604081205461080d5750815460018181018455600084815260208082209093018490558454848252828601909352604090209190915561076e565b50600061076e565b600060208284031215610826578081fd5b81356108318161094a565b9392505050565b60008060008061018080868803121561084f578384fd5b853561085a8161094a565b945060208681013561086b8161094a565b9450604087013561087b8161094a565b9350607f8701881361088b578283fd5b604051610120810181811067ffffffffffffffff821117156108af576108af610934565b6040528060608901848a018b10156108c5578586fd5b8594505b60098510156108e85780358252600194909401939083019083016108c9565b505080935050505092959194509250565b60006020828403121561090a578081fd5b5035919050565b60008282101561092f57634e487b7160e01b81526011600452602481fd5b500390565b634e487b7160e01b600052604160045260246000fd5b6001600160a01b038116811461068b57600080fdfea2646970667358221220c2b11f3c2b6d2014b5dc2aa989bce7e320f3a1c644edd71aac2f804776e5aeed64736f6c63430008040033",
					"opcodes": "PUSH1 0x80 PUSH1 0x40 MSTORE PUSH1 0x1 PUSH1 0x0 SSTORE PUSH2 0x12 CALLER PUSH2 0x97 JUMP JUMPDEST PUSH1 0x18 DUP1 SLOAD PUSH20 0xC778417E063141139FCE010982780140AA0CD5AB PUSH1 0x1 PUSH1 0x1 PUSH1 0xA0 SHL SUB NOT SWAP1 SWAP2 AND OR SWAP1 SSTORE PUSH2 0x64 PUSH1 0x19 PUSH20 0x6CCB41EEDA5A073076F3E7DC1614C185B5FA41ED PUSH2 0xE9 PUSH1 0x20 SWAP1 DUP2 SHL PUSH2 0x756 OR SWAP1 SHR JUMP JUMPDEST POP PUSH2 0x91 PUSH20 0x4F0B12BBF40FC182559822A5B1DB6D34DBC3E016 PUSH1 0x19 PUSH2 0xE9 PUSH1 0x20 SHL PUSH2 0x756 OR SWAP1 SWAP2 SWAP1 PUSH1 0x20 SHR JUMP JUMPDEST POP PUSH2 0x156 JUMP JUMPDEST PUSH1 0x1 DUP1 SLOAD PUSH1 0x1 PUSH1 0x1 PUSH1 0xA0 SHL SUB DUP4 DUP2 AND PUSH1 0x1 PUSH1 0x1 PUSH1 0xA0 SHL SUB NOT DUP4 AND DUP2 OR SWAP1 SWAP4 SSTORE PUSH1 0x40 MLOAD SWAP2 AND SWAP2 SWAP1 DUP3 SWAP1 PUSH32 0x8BE0079C531659141344CD1FD0A4F28419497F9722A3DAAFE3B4186F6B6457E0 SWAP1 PUSH1 0x0 SWAP1 LOG3 POP POP JUMP JUMPDEST PUSH1 0x0 PUSH2 0xFE DUP4 PUSH1 0x1 PUSH1 0x1 PUSH1 0xA0 SHL SUB DUP5 AND PUSH2 0x107 JUMP JUMPDEST SWAP1 POP JUMPDEST SWAP3 SWAP2 POP POP JUMP JUMPDEST PUSH1 0x0 DUP2 DUP2 MSTORE PUSH1 0x1 DUP4 ADD PUSH1 0x20 MSTORE PUSH1 0x40 DUP2 KECCAK256 SLOAD PUSH2 0x14E JUMPI POP DUP2 SLOAD PUSH1 0x1 DUP2 DUP2 ADD DUP5 SSTORE PUSH1 0x0 DUP5 DUP2 MSTORE PUSH1 0x20 DUP1 DUP3 KECCAK256 SWAP1 SWAP4 ADD DUP5 SWAP1 SSTORE DUP5 SLOAD DUP5 DUP3 MSTORE DUP3 DUP7 ADD SWAP1 SWAP4 MSTORE PUSH1 0x40 SWAP1 KECCAK256 SWAP2 SWAP1 SWAP2 SSTORE PUSH2 0x101 JUMP JUMPDEST POP PUSH1 0x0 PUSH2 0x101 JUMP JUMPDEST PUSH2 0x995 DUP1 PUSH2 0x165 PUSH1 0x0 CODECOPY PUSH1 0x0 RETURN INVALID PUSH1 0x80 PUSH1 0x40 MSTORE PUSH1 0x4 CALLDATASIZE LT PUSH2 0xDD JUMPI PUSH1 0x0 CALLDATALOAD PUSH1 0xE0 SHR DUP1 PUSH4 0x8DA5CB5B GT PUSH2 0x7F JUMPI DUP1 PUSH4 0xAD5C4648 GT PUSH2 0x59 JUMPI DUP1 PUSH4 0xAD5C4648 EQ PUSH2 0x389 JUMPI DUP1 PUSH4 0xE2D3F423 EQ PUSH2 0x3A9 JUMPI DUP1 PUSH4 0xF2FDE38B EQ PUSH2 0x430 JUMPI DUP1 PUSH4 0xF8B2CB4F EQ PUSH2 0x450 JUMPI PUSH1 0x0 DUP1 REVERT JUMPDEST DUP1 PUSH4 0x8DA5CB5B EQ PUSH2 0x247 JUMPI DUP1 PUSH4 0x8F1EAE4C EQ PUSH2 0x279 JUMPI DUP1 PUSH4 0xACFB2355 EQ PUSH2 0x331 JUMPI PUSH1 0x0 DUP1 REVERT JUMPDEST DUP1 PUSH4 0x56C5F349 GT PUSH2 0xBB JUMPI DUP1 PUSH4 0x56C5F349 EQ PUSH2 0x1EA JUMPI DUP1 PUSH4 0x715018A6 EQ PUSH2 0x217 JUMPI DUP1 PUSH4 0x79647833 EQ PUSH2 0x22C JUMPI DUP1 PUSH4 0x861FAF5F EQ PUSH2 0x23F JUMPI PUSH1 0x0 DUP1 REVERT JUMPDEST DUP1 PUSH4 0x18856A2F EQ PUSH2 0xE2 JUMPI DUP1 PUSH4 0x200D2ED2 EQ PUSH2 0x1B2 JUMPI DUP1 PUSH4 0x4329DB46 EQ PUSH2 0x1D5 JUMPI JUMPDEST PUSH1 0x0 DUP1 REVERT JUMPDEST CALLVALUE DUP1 ISZERO PUSH2 0xEE JUMPI PUSH1 0x0 DUP1 REVERT JUMPDEST POP PUSH1 0xB SLOAD PUSH1 0xC SLOAD PUSH1 0xD SLOAD PUSH1 0xE SLOAD PUSH1 0xF SLOAD PUSH1 0x10 SLOAD PUSH1 0x11 SLOAD PUSH1 0x12 SLOAD PUSH1 0x13 SLOAD PUSH1 0x14 SLOAD PUSH1 0x15 SLOAD PUSH1 0x16 SLOAD PUSH1 0x17 SLOAD PUSH2 0x13A SWAP13 PUSH1 0x1 PUSH1 0x1 PUSH1 0xA0 SHL SUB SWAP1 DUP2 AND SWAP13 DUP2 AND SWAP12 AND SWAP10 SWAP9 SWAP8 SWAP7 SWAP6 SWAP5 SWAP4 SWAP3 SWAP2 SWAP1 PUSH1 0xFF AND DUP14 JUMP JUMPDEST PUSH1 0x40 DUP1 MLOAD PUSH1 0x1 PUSH1 0x1 PUSH1 0xA0 SHL SUB SWAP15 DUP16 AND DUP2 MSTORE SWAP13 DUP15 AND PUSH1 0x20 DUP15 ADD MSTORE SWAP11 SWAP1 SWAP13 AND SWAP10 DUP12 ADD SWAP10 SWAP1 SWAP10 MSTORE PUSH1 0x60 DUP11 ADD SWAP8 SWAP1 SWAP8 MSTORE PUSH1 0x80 DUP10 ADD SWAP6 SWAP1 SWAP6 MSTORE PUSH1 0xA0 DUP9 ADD SWAP4 SWAP1 SWAP4 MSTORE PUSH1 0xC0 DUP8 ADD SWAP2 SWAP1 SWAP2 MSTORE PUSH1 0xE0 DUP7 ADD MSTORE PUSH2 0x100 DUP6 ADD MSTORE PUSH2 0x120 DUP5 ADD MSTORE PUSH2 0x140 DUP4 ADD MSTORE PUSH2 0x160 DUP3 ADD MSTORE SWAP1 ISZERO ISZERO PUSH2 0x180 DUP3 ADD MSTORE PUSH2 0x1A0 ADD JUMPDEST PUSH1 0x40 MLOAD DUP1 SWAP2 SUB SWAP1 RETURN JUMPDEST CALLVALUE DUP1 ISZERO PUSH2 0x1BE JUMPI PUSH1 0x0 DUP1 REVERT JUMPDEST POP PUSH2 0x1C7 PUSH2 0x478 JUMP JUMPDEST PUSH1 0x40 MLOAD SWAP1 DUP2 MSTORE PUSH1 0x20 ADD PUSH2 0x1A9 JUMP JUMPDEST PUSH2 0x1E8 PUSH2 0x1E3 CALLDATASIZE PUSH1 0x4 PUSH2 0x8F9 JUMP JUMPDEST PUSH2 0x4A1 JUMP JUMPDEST STOP JUMPDEST CALLVALUE DUP1 ISZERO PUSH2 0x1F6 JUMPI PUSH1 0x0 DUP1 REVERT JUMPDEST POP PUSH2 0x1C7 PUSH2 0x205 CALLDATASIZE PUSH1 0x4 PUSH2 0x815 JUMP JUMPDEST PUSH1 0x3 PUSH1 0x20 MSTORE PUSH1 0x0 SWAP1 DUP2 MSTORE PUSH1 0x40 SWAP1 KECCAK256 SLOAD DUP2 JUMP JUMPDEST CALLVALUE DUP1 ISZERO PUSH2 0x223 JUMPI PUSH1 0x0 DUP1 REVERT JUMPDEST POP PUSH2 0x1E8 PUSH2 0x4DB JUMP JUMPDEST PUSH2 0x1E8 PUSH2 0x23A CALLDATASIZE PUSH1 0x4 PUSH2 0x8F9 JUMP JUMPDEST PUSH2 0x546 JUMP JUMPDEST PUSH2 0x1E8 PUSH2 0x65F JUMP JUMPDEST CALLVALUE DUP1 ISZERO PUSH2 0x253 JUMPI PUSH1 0x0 DUP1 REVERT JUMPDEST POP PUSH1 0x1 SLOAD PUSH1 0x1 PUSH1 0x1 PUSH1 0xA0 SHL SUB AND JUMPDEST PUSH1 0x40 MLOAD PUSH1 0x1 PUSH1 0x1 PUSH1 0xA0 SHL SUB SWAP1 SWAP2 AND DUP2 MSTORE PUSH1 0x20 ADD PUSH2 0x1A9 JUMP JUMPDEST CALLVALUE DUP1 ISZERO PUSH2 0x285 JUMPI PUSH1 0x0 DUP1 REVERT JUMPDEST POP PUSH2 0x1E8 PUSH2 0x294 CALLDATASIZE PUSH1 0x4 PUSH2 0x838 JUMP JUMPDEST PUSH1 0xB DUP1 SLOAD PUSH1 0x1 PUSH1 0x1 PUSH1 0xA0 SHL SUB NOT SWAP1 DUP2 AND PUSH1 0x1 PUSH1 0x1 PUSH1 0xA0 SHL SUB SWAP7 DUP8 AND OR SWAP1 SWAP2 SSTORE PUSH1 0xC DUP1 SLOAD DUP3 AND SWAP5 DUP7 AND SWAP5 SWAP1 SWAP5 OR SWAP1 SWAP4 SSTORE PUSH1 0xD DUP1 SLOAD SWAP1 SWAP4 AND SWAP2 DUP5 AND SWAP2 DUP3 OR SWAP1 SWAP3 SSTORE DUP2 MLOAD PUSH1 0xE SSTORE PUSH1 0x20 DUP3 ADD MLOAD PUSH1 0xF SSTORE PUSH1 0x40 DUP3 ADD MLOAD PUSH1 0x10 SSTORE PUSH1 0x60 DUP3 ADD MLOAD PUSH1 0x11 SSTORE PUSH1 0x80 DUP3 ADD MLOAD PUSH1 0x12 SSTORE PUSH1 0xA0 DUP3 ADD MLOAD PUSH1 0x13 SSTORE PUSH1 0xC0 DUP3 ADD MLOAD PUSH1 0x14 SSTORE PUSH1 0xE0 DUP3 ADD MLOAD PUSH1 0x15 SSTORE PUSH2 0x100 SWAP1 SWAP2 ADD MLOAD PUSH1 0x16 SSTORE PUSH1 0x18 SLOAD PUSH1 0x17 DUP1 SLOAD PUSH1 0xFF NOT AND SWAP2 SWAP1 SWAP4 AND SWAP1 SWAP2 EQ OR SWAP1 SSTORE JUMP JUMPDEST CALLVALUE DUP1 ISZERO PUSH2 0x33D JUMPI PUSH1 0x0 DUP1 REVERT JUMPDEST POP PUSH1 0x4 SLOAD PUSH1 0x5 SLOAD PUSH1 0x6 SLOAD PUSH1 0x7 SLOAD PUSH1 0x8 SLOAD PUSH1 0x9 SLOAD PUSH2 0x35C SWAP6 SWAP5 SWAP4 SWAP3 SWAP2 SWAP1 DUP7 JUMP JUMPDEST PUSH1 0x40 DUP1 MLOAD SWAP7 DUP8 MSTORE PUSH1 0x20 DUP8 ADD SWAP6 SWAP1 SWAP6 MSTORE SWAP4 DUP6 ADD SWAP3 SWAP1 SWAP3 MSTORE PUSH1 0x60 DUP5 ADD MSTORE PUSH1 0x80 DUP4 ADD MSTORE PUSH1 0xA0 DUP3 ADD MSTORE PUSH1 0xC0 ADD PUSH2 0x1A9 JUMP JUMPDEST CALLVALUE DUP1 ISZERO PUSH2 0x395 JUMPI PUSH1 0x0 DUP1 REVERT JUMPDEST POP PUSH1 0x18 SLOAD PUSH2 0x261 SWAP1 PUSH1 0x1 PUSH1 0x1 PUSH1 0xA0 SHL SUB AND DUP2 JUMP JUMPDEST CALLVALUE DUP1 ISZERO PUSH2 0x3B5 JUMPI PUSH1 0x0 DUP1 REVERT JUMPDEST POP PUSH2 0x3FF PUSH2 0x3C4 CALLDATASIZE PUSH1 0x4 PUSH2 0x815 JUMP JUMPDEST PUSH1 0x2 PUSH1 0x20 DUP2 SWAP1 MSTORE PUSH1 0x0 SWAP2 DUP3 MSTORE PUSH1 0x40 SWAP1 SWAP2 KECCAK256 DUP1 SLOAD PUSH1 0x1 DUP3 ADD SLOAD SWAP3 DUP3 ADD SLOAD PUSH1 0x3 DUP4 ADD SLOAD PUSH1 0x4 SWAP1 SWAP4 ADD SLOAD SWAP2 SWAP4 SWAP3 SWAP1 SWAP2 PUSH1 0xFF DUP1 DUP3 AND SWAP2 PUSH2 0x100 SWAP1 DIV AND DUP7 JUMP JUMPDEST PUSH1 0x40 DUP1 MLOAD SWAP7 DUP8 MSTORE PUSH1 0x20 DUP8 ADD SWAP6 SWAP1 SWAP6 MSTORE SWAP4 DUP6 ADD SWAP3 SWAP1 SWAP3 MSTORE PUSH1 0x60 DUP5 ADD MSTORE ISZERO ISZERO PUSH1 0x80 DUP4 ADD MSTORE ISZERO ISZERO PUSH1 0xA0 DUP3 ADD MSTORE PUSH1 0xC0 ADD PUSH2 0x1A9 JUMP JUMPDEST CALLVALUE DUP1 ISZERO PUSH2 0x43C JUMPI PUSH1 0x0 DUP1 REVERT JUMPDEST POP PUSH2 0x1E8 PUSH2 0x44B CALLDATASIZE PUSH1 0x4 PUSH2 0x815 JUMP JUMPDEST PUSH2 0x68E JUMP JUMPDEST CALLVALUE DUP1 ISZERO PUSH2 0x45C JUMPI PUSH1 0x0 DUP1 REVERT JUMPDEST POP PUSH2 0x1C7 PUSH2 0x46B CALLDATASIZE PUSH1 0x4 PUSH2 0x815 JUMP JUMPDEST PUSH1 0x1 PUSH1 0x1 PUSH1 0xA0 SHL SUB AND BALANCE SWAP1 JUMP JUMPDEST PUSH1 0xF SLOAD PUSH1 0x0 SWAP1 TIMESTAMP LT ISZERO PUSH2 0x48B JUMPI POP PUSH1 0x0 SWAP1 JUMP JUMPDEST PUSH1 0x10 SLOAD TIMESTAMP GT ISZERO PUSH2 0x49B JUMPI POP PUSH1 0x2 SWAP1 JUMP JUMPDEST POP PUSH1 0x1 SWAP1 JUMP JUMPDEST CALLER PUSH2 0x8FC PUSH2 0x4AF DUP4 CALLVALUE PUSH2 0x911 JUMP JUMPDEST PUSH1 0x40 MLOAD DUP2 ISZERO SWAP1 SWAP3 MUL SWAP2 PUSH1 0x0 DUP2 DUP2 DUP2 DUP6 DUP9 DUP9 CALL SWAP4 POP POP POP POP ISZERO DUP1 ISZERO PUSH2 0x4D7 JUMPI RETURNDATASIZE PUSH1 0x0 DUP1 RETURNDATACOPY RETURNDATASIZE PUSH1 0x0 REVERT JUMPDEST POP POP JUMP JUMPDEST PUSH1 0x1 SLOAD PUSH1 0x1 PUSH1 0x1 PUSH1 0xA0 SHL SUB AND CALLER EQ PUSH2 0x53A JUMPI PUSH1 0x40 MLOAD PUSH3 0x461BCD PUSH1 0xE5 SHL DUP2 MSTORE PUSH1 0x20 PUSH1 0x4 DUP3 ADD DUP2 SWAP1 MSTORE PUSH1 0x24 DUP3 ADD MSTORE PUSH32 0x4F776E61626C653A2063616C6C6572206973206E6F7420746865206F776E6572 PUSH1 0x44 DUP3 ADD MSTORE PUSH1 0x64 ADD JUMPDEST PUSH1 0x40 MLOAD DUP1 SWAP2 SUB SWAP1 REVERT JUMPDEST PUSH2 0x544 PUSH1 0x0 PUSH2 0x774 JUMP JUMPDEST JUMP JUMPDEST PUSH1 0x2 PUSH1 0x0 SLOAD EQ ISZERO PUSH2 0x599 JUMPI PUSH1 0x40 MLOAD PUSH3 0x461BCD PUSH1 0xE5 SHL DUP2 MSTORE PUSH1 0x20 PUSH1 0x4 DUP3 ADD MSTORE PUSH1 0x1F PUSH1 0x24 DUP3 ADD MSTORE PUSH32 0x5265656E7472616E637947756172643A207265656E7472616E742063616C6C00 PUSH1 0x44 DUP3 ADD MSTORE PUSH1 0x64 ADD PUSH2 0x531 JUMP JUMPDEST PUSH1 0x2 PUSH1 0x0 SSTORE PUSH2 0x5A6 PUSH2 0x478 JUMP JUMPDEST PUSH1 0x1 EQ PUSH2 0x5E2 JUMPI PUSH1 0x40 MLOAD PUSH3 0x461BCD PUSH1 0xE5 SHL DUP2 MSTORE PUSH1 0x20 PUSH1 0x4 DUP3 ADD MSTORE PUSH1 0xA PUSH1 0x24 DUP3 ADD MSTORE PUSH10 0x4E4F5420414354495645 PUSH1 0xB0 SHL PUSH1 0x44 DUP3 ADD MSTORE PUSH1 0x64 ADD PUSH2 0x531 JUMP JUMPDEST CALLER PUSH1 0x0 SWAP1 DUP2 MSTORE PUSH1 0x2 PUSH1 0x20 MSTORE PUSH1 0x40 DUP2 KECCAK256 PUSH1 0x17 SLOAD SWAP1 SWAP2 SWAP1 PUSH1 0xFF AND PUSH2 0x604 JUMPI DUP3 PUSH2 0x606 JUMP JUMPDEST CALLVALUE JUMPDEST PUSH1 0x13 SLOAD SWAP1 SWAP2 POP DUP2 SWAP1 PUSH1 0x0 SWAP1 DUP3 LT ISZERO PUSH2 0x653 JUMPI PUSH1 0x40 MLOAD PUSH3 0x461BCD PUSH1 0xE5 SHL DUP2 MSTORE PUSH1 0x20 PUSH1 0x4 DUP3 ADD MSTORE PUSH1 0x10 PUSH1 0x24 DUP3 ADD MSTORE PUSH16 0x4E6F7420656E6F7567682076616C7565 PUSH1 0x80 SHL PUSH1 0x44 DUP3 ADD MSTORE PUSH1 0x64 ADD PUSH2 0x531 JUMP JUMPDEST POP POP PUSH1 0x1 PUSH1 0x0 SSTORE POP POP POP JUMP JUMPDEST PUSH1 0x40 MLOAD CALLER SWAP1 SELFBALANCE DUP1 ISZERO PUSH2 0x8FC MUL SWAP2 PUSH1 0x0 DUP2 DUP2 DUP2 DUP6 DUP9 DUP9 CALL SWAP4 POP POP POP POP ISZERO DUP1 ISZERO PUSH2 0x68B JUMPI RETURNDATASIZE PUSH1 0x0 DUP1 RETURNDATACOPY RETURNDATASIZE PUSH1 0x0 REVERT JUMPDEST POP JUMP JUMPDEST PUSH1 0x1 SLOAD PUSH1 0x1 PUSH1 0x1 PUSH1 0xA0 SHL SUB AND CALLER EQ PUSH2 0x6E8 JUMPI PUSH1 0x40 MLOAD PUSH3 0x461BCD PUSH1 0xE5 SHL DUP2 MSTORE PUSH1 0x20 PUSH1 0x4 DUP3 ADD DUP2 SWAP1 MSTORE PUSH1 0x24 DUP3 ADD MSTORE PUSH32 0x4F776E61626C653A2063616C6C6572206973206E6F7420746865206F776E6572 PUSH1 0x44 DUP3 ADD MSTORE PUSH1 0x64 ADD PUSH2 0x531 JUMP JUMPDEST PUSH1 0x1 PUSH1 0x1 PUSH1 0xA0 SHL SUB DUP2 AND PUSH2 0x74D JUMPI PUSH1 0x40 MLOAD PUSH3 0x461BCD PUSH1 0xE5 SHL DUP2 MSTORE PUSH1 0x20 PUSH1 0x4 DUP3 ADD MSTORE PUSH1 0x26 PUSH1 0x24 DUP3 ADD MSTORE PUSH32 0x4F776E61626C653A206E6577206F776E657220697320746865207A65726F2061 PUSH1 0x44 DUP3 ADD MSTORE PUSH6 0x646472657373 PUSH1 0xD0 SHL PUSH1 0x64 DUP3 ADD MSTORE PUSH1 0x84 ADD PUSH2 0x531 JUMP JUMPDEST PUSH2 0x68B DUP2 PUSH2 0x774 JUMP JUMPDEST PUSH1 0x0 PUSH2 0x76B DUP4 PUSH1 0x1 PUSH1 0x1 PUSH1 0xA0 SHL SUB DUP5 AND PUSH2 0x7C6 JUMP JUMPDEST SWAP1 POP JUMPDEST SWAP3 SWAP2 POP POP JUMP JUMPDEST PUSH1 0x1 DUP1 SLOAD PUSH1 0x1 PUSH1 0x1 PUSH1 0xA0 SHL SUB DUP4 DUP2 AND PUSH1 0x1 PUSH1 0x1 PUSH1 0xA0 SHL SUB NOT DUP4 AND DUP2 OR SWAP1 SWAP4 SSTORE PUSH1 0x40 MLOAD SWAP2 AND SWAP2 SWAP1 DUP3 SWAP1 PUSH32 0x8BE0079C531659141344CD1FD0A4F28419497F9722A3DAAFE3B4186F6B6457E0 SWAP1 PUSH1 0x0 SWAP1 LOG3 POP POP JUMP JUMPDEST PUSH1 0x0 DUP2 DUP2 MSTORE PUSH1 0x1 DUP4 ADD PUSH1 0x20 MSTORE PUSH1 0x40 DUP2 KECCAK256 SLOAD PUSH2 0x80D JUMPI POP DUP2 SLOAD PUSH1 0x1 DUP2 DUP2 ADD DUP5 SSTORE PUSH1 0x0 DUP5 DUP2 MSTORE PUSH1 0x20 DUP1 DUP3 KECCAK256 SWAP1 SWAP4 ADD DUP5 SWAP1 SSTORE DUP5 SLOAD DUP5 DUP3 MSTORE DUP3 DUP7 ADD SWAP1 SWAP4 MSTORE PUSH1 0x40 SWAP1 KECCAK256 SWAP2 SWAP1 SWAP2 SSTORE PUSH2 0x76E JUMP JUMPDEST POP PUSH1 0x0 PUSH2 0x76E JUMP JUMPDEST PUSH1 0x0 PUSH1 0x20 DUP3 DUP5 SUB SLT ISZERO PUSH2 0x826 JUMPI DUP1 DUP2 REVERT JUMPDEST DUP2 CALLDATALOAD PUSH2 0x831 DUP2 PUSH2 0x94A JUMP JUMPDEST SWAP4 SWAP3 POP POP POP JUMP JUMPDEST PUSH1 0x0 DUP1 PUSH1 0x0 DUP1 PUSH2 0x180 DUP1 DUP7 DUP9 SUB SLT ISZERO PUSH2 0x84F JUMPI DUP4 DUP5 REVERT JUMPDEST DUP6 CALLDATALOAD PUSH2 0x85A DUP2 PUSH2 0x94A JUMP JUMPDEST SWAP5 POP PUSH1 0x20 DUP7 DUP2 ADD CALLDATALOAD PUSH2 0x86B DUP2 PUSH2 0x94A JUMP JUMPDEST SWAP5 POP PUSH1 0x40 DUP8 ADD CALLDATALOAD PUSH2 0x87B DUP2 PUSH2 0x94A JUMP JUMPDEST SWAP4 POP PUSH1 0x7F DUP8 ADD DUP9 SGT PUSH2 0x88B JUMPI DUP3 DUP4 REVERT JUMPDEST PUSH1 0x40 MLOAD PUSH2 0x120 DUP2 ADD DUP2 DUP2 LT PUSH8 0xFFFFFFFFFFFFFFFF DUP3 GT OR ISZERO PUSH2 0x8AF JUMPI PUSH2 0x8AF PUSH2 0x934 JUMP JUMPDEST PUSH1 0x40 MSTORE DUP1 PUSH1 0x60 DUP10 ADD DUP5 DUP11 ADD DUP12 LT ISZERO PUSH2 0x8C5 JUMPI DUP6 DUP7 REVERT JUMPDEST DUP6 SWAP5 POP JUMPDEST PUSH1 0x9 DUP6 LT ISZERO PUSH2 0x8E8 JUMPI DUP1 CALLDATALOAD DUP3 MSTORE PUSH1 0x1 SWAP5 SWAP1 SWAP5 ADD SWAP4 SWAP1 DUP4 ADD SWAP1 DUP4 ADD PUSH2 0x8C9 JUMP JUMPDEST POP POP DUP1 SWAP4 POP POP POP POP SWAP3 SWAP6 SWAP2 SWAP5 POP SWAP3 POP JUMP JUMPDEST PUSH1 0x0 PUSH1 0x20 DUP3 DUP5 SUB SLT ISZERO PUSH2 0x90A JUMPI DUP1 DUP2 REVERT JUMPDEST POP CALLDATALOAD SWAP2 SWAP1 POP JUMP JUMPDEST PUSH1 0x0 DUP3 DUP3 LT ISZERO PUSH2 0x92F JUMPI PUSH4 0x4E487B71 PUSH1 0xE0 SHL DUP2 MSTORE PUSH1 0x11 PUSH1 0x4 MSTORE PUSH1 0x24 DUP2 REVERT JUMPDEST POP SUB SWAP1 JUMP JUMPDEST PUSH4 0x4E487B71 PUSH1 0xE0 SHL PUSH1 0x0 MSTORE PUSH1 0x41 PUSH1 0x4 MSTORE PUSH1 0x24 PUSH1 0x0 REVERT JUMPDEST PUSH1 0x1 PUSH1 0x1 PUSH1 0xA0 SHL SUB DUP2 AND DUP2 EQ PUSH2 0x68B JUMPI PUSH1 0x0 DUP1 REVERT INVALID LOG2 PUSH5 0x6970667358 0x22 SLT KECCAK256 0xC2 0xB1 0x1F EXTCODECOPY 0x2B PUSH14 0x2014B5DC2AA989BCE7E320F3A1C6 DIFFICULTY 0xED 0xD7 BYTE 0xAC 0x2F DUP1 SELFBALANCE PUSH23 0xE5AEED64736F6C63430008040033000000000000000000 "
				},
				"gasEstimates": {
					"creation": {
						"codeDepositCost": "490600",
						"executionCost": "infinite",
						"totalCost": "infinite"
					},
					"external": {
						"WETH()": "1059",
						"backToken()": "infinite",
						"buyerInfo(address)": "4660",
						"depodit(uint256)": "29583",
						"getBalance(address)": "1150",
						"initialSaleInfor(address,address,address,uint256[9])": "infinite",
						"owner()": "1043",
						"presaleStatus()": "5191",
						"renounceOwnership()": "23462",
						"saleInfor()": "11001",
						"status()": "1911",
						"transferETH(uint256)": "infinite",
						"transferOwnership(address)": "infinite",
						"userFee(address)": "1236"
					}
				},
				"methodIdentifiers": {
					"WETH()": "ad5c4648",
					"backToken()": "861faf5f",
					"buyerInfo(address)": "e2d3f423",
					"depodit(uint256)": "79647833",
					"getBalance(address)": "f8b2cb4f",
					"initialSaleInfor(address,address,address,uint256[9])": "8f1eae4c",
					"owner()": "8da5cb5b",
					"presaleStatus()": "acfb2355",
					"renounceOwnership()": "715018a6",
					"saleInfor()": "18856a2f",
					"status()": "200d2ed2",
					"transferETH(uint256)": "4329db46",
					"transferOwnership(address)": "f2fde38b",
					"userFee(address)": "56c5f349"
				}
			},
			"storageLayout": {
				"storage": [
					{
						"astId": 1201,
						"contract": "Ethereum/Presale.sol:Presale",
						"label": "_status",
						"offset": 0,
						"slot": "0",
						"type": "t_uint256"
					},
					{
						"astId": 1093,
						"contract": "Ethereum/Presale.sol:Presale",
						"label": "_owner",
						"offset": 0,
						"slot": "1",
						"type": "t_address"
					},
					{
						"astId": 155,
						"contract": "Ethereum/Presale.sol:Presale",
						"label": "buyerInfo",
						"offset": 0,
						"slot": "2",
						"type": "t_mapping(t_address,t_struct(BuyerInfo)134_storage)"
					},
					{
						"astId": 159,
						"contract": "Ethereum/Presale.sol:Presale",
						"label": "userFee",
						"offset": 0,
						"slot": "3",
						"type": "t_mapping(t_address,t_uint256)"
					},
					{
						"astId": 162,
						"contract": "Ethereum/Presale.sol:Presale",
						"label": "presaleStatus",
						"offset": 0,
						"slot": "4",
						"type": "t_struct(PresaleStatus)150_storage"
					},
					{
						"astId": 165,
						"contract": "Ethereum/Presale.sol:Presale",
						"label": "saleInfor",
						"offset": 0,
						"slot": "11",
						"type": "t_struct(SaleInfor)121_storage"
					},
					{
						"astId": 168,
						"contract": "Ethereum/Presale.sol:Presale",
						"label": "WETH",
						"offset": 0,
						"slot": "24",
						"type": "t_contract(IERC20)77"
					},
					{
						"astId": 171,
						"contract": "Ethereum/Presale.sol:Presale",
						"label": "admins",
						"offset": 0,
						"slot": "25",
						"type": "t_struct(AddressSet)798_storage"
					}
				],
				"types": {
					"t_address": {
						"encoding": "inplace",
						"label": "address",
						"numberOfBytes": "20"
					},
					"t_address_payable": {
						"encoding": "inplace",
						"label": "address payable",
						"numberOfBytes": "20"
					},
					"t_array(t_address)dyn_storage": {
						"base": "t_address",
						"encoding": "dynamic_array",
						"label": "address[]",
						"numberOfBytes": "32"
					},
					"t_array(t_bytes32)dyn_storage": {
						"base": "t_bytes32",
						"encoding": "dynamic_array",
						"label": "bytes32[]",
						"numberOfBytes": "32"
					},
					"t_bool": {
						"encoding": "inplace",
						"label": "bool",
						"numberOfBytes": "1"
					},
					"t_bytes32": {
						"encoding": "inplace",
						"label": "bytes32",
						"numberOfBytes": "32"
					},
					"t_contract(IERC20)77": {
						"encoding": "inplace",
						"label": "contract IERC20",
						"numberOfBytes": "20"
					},
					"t_mapping(t_address,t_struct(BuyerInfo)134_storage)": {
						"encoding": "mapping",
						"key": "t_address",
						"label": "mapping(address => struct Presale.BuyerInfo)",
						"numberOfBytes": "32",
						"value": "t_struct(BuyerInfo)134_storage"
					},
					"t_mapping(t_address,t_uint256)": {
						"encoding": "mapping",
						"key": "t_address",
						"label": "mapping(address => uint256)",
						"numberOfBytes": "32",
						"value": "t_uint256"
					},
					"t_mapping(t_bytes32,t_uint256)": {
						"encoding": "mapping",
						"key": "t_bytes32",
						"label": "mapping(bytes32 => uint256)",
						"numberOfBytes": "32",
						"value": "t_uint256"
					},
					"t_struct(AddressSet)798_storage": {
						"encoding": "inplace",
						"label": "struct EnumerableSet.AddressSet",
						"members": [
							{
								"astId": 797,
								"contract": "Ethereum/Presale.sol:Presale",
								"label": "_inner",
								"offset": 0,
								"slot": "0",
								"type": "t_struct(Set)497_storage"
							}
						],
						"numberOfBytes": "64"
					},
					"t_struct(BuyerInfo)134_storage": {
						"encoding": "inplace",
						"label": "struct Presale.BuyerInfo",
						"members": [
							{
								"astId": 123,
								"contract": "Ethereum/Presale.sol:Presale",
								"label": "baseDeposit",
								"offset": 0,
								"slot": "0",
								"type": "t_uint256"
							},
							{
								"astId": 125,
								"contract": "Ethereum/Presale.sol:Presale",
								"label": "tokenOwner",
								"offset": 0,
								"slot": "1",
								"type": "t_uint256"
							},
							{
								"astId": 127,
								"contract": "Ethereum/Presale.sol:Presale",
								"label": "lastWithDraw",
								"offset": 0,
								"slot": "2",
								"type": "t_uint256"
							},
							{
								"astId": 129,
								"contract": "Ethereum/Presale.sol:Presale",
								"label": "totalTokenWithDraw",
								"offset": 0,
								"slot": "3",
								"type": "t_uint256"
							},
							{
								"astId": 131,
								"contract": "Ethereum/Presale.sol:Presale",
								"label": "isRefund",
								"offset": 0,
								"slot": "4",
								"type": "t_bool"
							},
							{
								"astId": 133,
								"contract": "Ethereum/Presale.sol:Presale",
								"label": "isClaim",
								"offset": 1,
								"slot": "4",
								"type": "t_bool"
							}
						],
						"numberOfBytes": "160"
					},
					"t_struct(PresaleStatus)150_storage": {
						"encoding": "inplace",
						"label": "struct Presale.PresaleStatus",
						"members": [
							{
								"astId": 136,
								"contract": "Ethereum/Presale.sol:Presale",
								"label": "totalBaseCollected",
								"offset": 0,
								"slot": "0",
								"type": "t_uint256"
							},
							{
								"astId": 138,
								"contract": "Ethereum/Presale.sol:Presale",
								"label": "totalTokenSold",
								"offset": 0,
								"slot": "1",
								"type": "t_uint256"
							},
							{
								"astId": 140,
								"contract": "Ethereum/Presale.sol:Presale",
								"label": "totalTokenWithDraw",
								"offset": 0,
								"slot": "2",
								"type": "t_uint256"
							},
							{
								"astId": 142,
								"contract": "Ethereum/Presale.sol:Presale",
								"label": "totalBaseWithDraw",
								"offset": 0,
								"slot": "3",
								"type": "t_uint256"
							},
							{
								"astId": 144,
								"contract": "Ethereum/Presale.sol:Presale",
								"label": "numByer",
								"offset": 0,
								"slot": "4",
								"type": "t_uint256"
							},
							{
								"astId": 146,
								"contract": "Ethereum/Presale.sol:Presale",
								"label": "totalFee",
								"offset": 0,
								"slot": "5",
								"type": "t_uint256"
							},
							{
								"astId": 149,
								"contract": "Ethereum/Presale.sol:Presale",
								"label": "admin",
								"offset": 0,
								"slot": "6",
								"type": "t_array(t_address)dyn_storage"
							}
						],
						"numberOfBytes": "224"
					},
					"t_struct(SaleInfor)121_storage": {
						"encoding": "inplace",
						"label": "struct Presale.SaleInfor",
						"members": [
							{
								"astId": 94,
								"contract": "Ethereum/Presale.sol:Presale",
								"label": "presaleOwner",
								"offset": 0,
								"slot": "0",
								"type": "t_address_payable"
							},
							{
								"astId": 97,
								"contract": "Ethereum/Presale.sol:Presale",
								"label": "saleToken",
								"offset": 0,
								"slot": "1",
								"type": "t_contract(IERC20)77"
							},
							{
								"astId": 100,
								"contract": "Ethereum/Presale.sol:Presale",
								"label": "baseToken",
								"offset": 0,
								"slot": "2",
								"type": "t_contract(IERC20)77"
							},
							{
								"astId": 102,
								"contract": "Ethereum/Presale.sol:Presale",
								"label": "tokenPrice",
								"offset": 0,
								"slot": "3",
								"type": "t_uint256"
							},
							{
								"astId": 104,
								"contract": "Ethereum/Presale.sol:Presale",
								"label": "startSale",
								"offset": 0,
								"slot": "4",
								"type": "t_uint256"
							},
							{
								"astId": 106,
								"contract": "Ethereum/Presale.sol:Presale",
								"label": "endSale",
								"offset": 0,
								"slot": "5",
								"type": "t_uint256"
							},
							{
								"astId": 108,
								"contract": "Ethereum/Presale.sol:Presale",
								"label": "valueSwapToken",
								"offset": 0,
								"slot": "6",
								"type": "t_uint256"
							},
							{
								"astId": 110,
								"contract": "Ethereum/Presale.sol:Presale",
								"label": "feeTransaction",
								"offset": 0,
								"slot": "7",
								"type": "t_uint256"
							},
							{
								"astId": 112,
								"contract": "Ethereum/Presale.sol:Presale",
								"label": "minSpendPerBuyer",
								"offset": 0,
								"slot": "8",
								"type": "t_uint256"
							},
							{
								"astId": 114,
								"contract": "Ethereum/Presale.sol:Presale",
								"label": "maxSpendPerBuyer",
								"offset": 0,
								"slot": "9",
								"type": "t_uint256"
							},
							{
								"astId": 116,
								"contract": "Ethereum/Presale.sol:Presale",
								"label": "refundFee",
								"offset": 0,
								"slot": "10",
								"type": "t_uint256"
							},
							{
								"astId": 118,
								"contract": "Ethereum/Presale.sol:Presale",
								"label": "claimFee",
								"offset": 0,
								"slot": "11",
								"type": "t_uint256"
							},
							{
								"astId": 120,
								"contract": "Ethereum/Presale.sol:Presale",
								"label": "saleIsBaseToken",
								"offset": 0,
								"slot": "12",
								"type": "t_bool"
							}
						],
						"numberOfBytes": "416"
					},
					"t_struct(Set)497_storage": {
						"encoding": "inplace",
						"label": "struct EnumerableSet.Set",
						"members": [
							{
								"astId": 492,
								"contract": "Ethereum/Presale.sol:Presale",
								"label": "_values",
								"offset": 0,
								"slot": "0",
								"type": "t_array(t_bytes32)dyn_storage"
							},
							{
								"astId": 496,
								"contract": "Ethereum/Presale.sol:Presale",
								"label": "_indexes",
								"offset": 0,
								"slot": "1",
								"type": "t_mapping(t_bytes32,t_uint256)"
							}
						],
						"numberOfBytes": "64"
					},
					"t_uint256": {
						"encoding": "inplace",
						"label": "uint256",
						"numberOfBytes": "32"
					}
				}
			},
			"userdoc": {
				"kind": "user",
				"methods": {},
				"version": 1
			}
		}
	}
}