{
	"Ethereum/Presale.sol": {
		"Presale": {
			"abi": [
				{
					"inputs": [
						{
							"internalType": "address",
							"name": "",
							"type": "address"
						}
					],
					"name": "buyerInfo",
					"outputs": [
						{
							"internalType": "uint256",
							"name": "baseDeposit",
							"type": "uint256"
						},
						{
							"internalType": "uint256",
							"name": "tokenOwner",
							"type": "uint256"
						},
						{
							"internalType": "uint256",
							"name": "lastWithDraw",
							"type": "uint256"
						},
						{
							"internalType": "uint256",
							"name": "totalTokenWithDraw",
							"type": "uint256"
						},
						{
							"internalType": "bool",
							"name": "isRefund",
							"type": "bool"
						},
						{
							"internalType": "bool",
							"name": "isClaim",
							"type": "bool"
						}
					],
					"stateMutability": "view",
					"type": "function"
				},
				{
					"inputs": [
						{
							"internalType": "address payable",
							"name": "_presaleOwner",
							"type": "address"
						},
						{
							"internalType": "contract IERC20",
							"name": "_saleToken",
							"type": "address"
						},
						{
							"internalType": "contract IERC20",
							"name": "_baseTOken",
							"type": "address"
						},
						{
							"internalType": "uint256[9]",
							"name": "datas",
							"type": "uint256[9]"
						}
					],
					"name": "initialSaleInfor",
					"outputs": [],
					"stateMutability": "nonpayable",
					"type": "function"
				},
				{
					"inputs": [],
					"name": "presaleStatus",
					"outputs": [
						{
							"internalType": "uint256",
							"name": "totalBaseCollected",
							"type": "uint256"
						},
						{
							"internalType": "uint256",
							"name": "totalTokenSold",
							"type": "uint256"
						},
						{
							"internalType": "uint256",
							"name": "totalTokenWithDraw",
							"type": "uint256"
						},
						{
							"internalType": "uint256",
							"name": "totalBaseWithDraw",
							"type": "uint256"
						},
						{
							"internalType": "uint256",
							"name": "numByer",
							"type": "uint256"
						},
						{
							"internalType": "uint256",
							"name": "totalFee",
							"type": "uint256"
						}
					],
					"stateMutability": "view",
					"type": "function"
				},
				{
					"inputs": [],
					"name": "saleInfor",
					"outputs": [
						{
							"internalType": "address payable",
							"name": "presaleOwner",
							"type": "address"
						},
						{
							"internalType": "contract IERC20",
							"name": "saleToken",
							"type": "address"
						},
						{
							"internalType": "contract IERC20",
							"name": "baseToken",
							"type": "address"
						},
						{
							"internalType": "uint256",
							"name": "tokenPrice",
							"type": "uint256"
						},
						{
							"internalType": "uint256",
							"name": "startSale",
							"type": "uint256"
						},
						{
							"internalType": "uint256",
							"name": "endSale",
							"type": "uint256"
						},
						{
							"internalType": "uint256",
							"name": "valueSwapERC20",
							"type": "uint256"
						},
						{
							"internalType": "uint256",
							"name": "feeTransaction",
							"type": "uint256"
						},
						{
							"internalType": "uint256",
							"name": "minSpendPerBuyer",
							"type": "uint256"
						},
						{
							"internalType": "uint256",
							"name": "maxSpendPerBuyer",
							"type": "uint256"
						},
						{
							"internalType": "uint256",
							"name": "refundFee",
							"type": "uint256"
						},
						{
							"internalType": "uint256",
							"name": "claimFee",
							"type": "uint256"
						}
					],
					"stateMutability": "view",
					"type": "function"
				},
				{
					"inputs": [
						{
							"internalType": "address",
							"name": "",
							"type": "address"
						}
					],
					"name": "userFee",
					"outputs": [
						{
							"internalType": "uint256",
							"name": "",
							"type": "uint256"
						}
					],
					"stateMutability": "view",
					"type": "function"
				}
			],
			"devdoc": {
				"kind": "dev",
				"methods": {},
				"version": 1
			},
			"evm": {
				"assembly": "    /* \"Ethereum/Presale.sol\":153:1907  contract Presale{\r... */\n  mstore(0x40, 0x80)\n  callvalue\n  dup1\n  iszero\n  tag_1\n  jumpi\n  0x00\n  dup1\n  revert\ntag_1:\n  pop\n  dataSize(sub_0)\n  dup1\n  dataOffset(sub_0)\n  0x00\n  codecopy\n  0x00\n  return\nstop\n\nsub_0: assembly {\n        /* \"Ethereum/Presale.sol\":153:1907  contract Presale{\r... */\n      mstore(0x40, 0x80)\n      callvalue\n      dup1\n      iszero\n      tag_1\n      jumpi\n      0x00\n      dup1\n      revert\n    tag_1:\n      pop\n      jumpi(tag_2, lt(calldatasize, 0x04))\n      shr(0xe0, calldataload(0x00))\n      dup1\n      0x18856a2f\n      eq\n      tag_3\n      jumpi\n      dup1\n      0x56c5f349\n      eq\n      tag_4\n      jumpi\n      dup1\n      0x8f1eae4c\n      eq\n      tag_5\n      jumpi\n      dup1\n      0xacfb2355\n      eq\n      tag_6\n      jumpi\n      dup1\n      0xe2d3f423\n      eq\n      tag_7\n      jumpi\n    tag_2:\n      0x00\n      dup1\n      revert\n        /* \"Ethereum/Presale.sol\":1163:1189  SaleInfor public saleInfor */\n    tag_3:\n      tag_8\n      tag_9\n      jump\t// in\n    tag_8:\n      mload(0x40)\n      tag_10\n      swap13\n      swap12\n      swap11\n      swap10\n      swap9\n      swap8\n      swap7\n      swap6\n      swap5\n      swap4\n      swap3\n      swap2\n      swap1\n      tag_11\n      jump\t// in\n    tag_10:\n      mload(0x40)\n      dup1\n      swap2\n      sub\n      swap1\n      return\n        /* \"Ethereum/Presale.sol\":1073:1115  mapping(address => uint256) public userFee */\n    tag_4:\n      tag_12\n      0x04\n      dup1\n      calldatasize\n      sub\n      dup2\n      add\n      swap1\n      tag_13\n      swap2\n      swap1\n      tag_14\n      jump\t// in\n    tag_13:\n      tag_15\n      jump\t// in\n    tag_12:\n      mload(0x40)\n      tag_16\n      swap2\n      swap1\n      tag_17\n      jump\t// in\n    tag_16:\n      mload(0x40)\n      dup1\n      swap2\n      sub\n      swap1\n      return\n        /* \"Ethereum/Presale.sol\":1198:1904  function initialSaleInfor(\r... */\n    tag_5:\n      tag_18\n      0x04\n      dup1\n      calldatasize\n      sub\n      dup2\n      add\n      swap1\n      tag_19\n      swap2\n      swap1\n      tag_20\n      jump\t// in\n    tag_19:\n      tag_21\n      jump\t// in\n    tag_18:\n      stop\n        /* \"Ethereum/Presale.sol\":1122:1156  PresaleStatus public presaleStatus */\n    tag_6:\n      tag_22\n      tag_23\n      jump\t// in\n    tag_22:\n      mload(0x40)\n      tag_24\n      swap7\n      swap6\n      swap5\n      swap4\n      swap3\n      swap2\n      swap1\n      tag_25\n      jump\t// in\n    tag_24:\n      mload(0x40)\n      dup1\n      swap2\n      sub\n      swap1\n      return\n        /* \"Ethereum/Presale.sol\":1020:1066  mapping(address => BuyerInfo) public buyerInfo */\n    tag_7:\n      tag_26\n      0x04\n      dup1\n      calldatasize\n      sub\n      dup2\n      add\n      swap1\n      tag_27\n      swap2\n      swap1\n      tag_14\n      jump\t// in\n    tag_27:\n      tag_28\n      jump\t// in\n    tag_26:\n      mload(0x40)\n      tag_29\n      swap7\n      swap6\n      swap5\n      swap4\n      swap3\n      swap2\n      swap1\n      tag_30\n      jump\t// in\n    tag_29:\n      mload(0x40)\n      dup1\n      swap2\n      sub\n      swap1\n      return\n        /* \"Ethereum/Presale.sol\":1163:1189  SaleInfor public saleInfor */\n    tag_9:\n      0x08\n      dup1\n      0x00\n      add\n      0x00\n      swap1\n      sload\n      swap1\n      0x0100\n      exp\n      swap1\n      div\n      0xffffffffffffffffffffffffffffffffffffffff\n      and\n      swap1\n      dup1\n      0x01\n      add\n      0x00\n      swap1\n      sload\n      swap1\n      0x0100\n      exp\n      swap1\n      div\n      0xffffffffffffffffffffffffffffffffffffffff\n      and\n      swap1\n      dup1\n      0x02\n      add\n      0x00\n      swap1\n      sload\n      swap1\n      0x0100\n      exp\n      swap1\n      div\n      0xffffffffffffffffffffffffffffffffffffffff\n      and\n      swap1\n      dup1\n      0x03\n      add\n      sload\n      swap1\n      dup1\n      0x04\n      add\n      sload\n      swap1\n      dup1\n      0x05\n      add\n      sload\n      swap1\n      dup1\n      0x06\n      add\n      sload\n      swap1\n      dup1\n      0x07\n      add\n      sload\n      swap1\n      dup1\n      0x08\n      add\n      sload\n      swap1\n      dup1\n      0x09\n      add\n      sload\n      swap1\n      dup1\n      0x0a\n      add\n      sload\n      swap1\n      dup1\n      0x0b\n      add\n      sload\n      swap1\n      pop\n      dup13\n      jump\t// out\n        /* \"Ethereum/Presale.sol\":1073:1115  mapping(address => uint256) public userFee */\n    tag_15:\n      mstore(0x20, 0x01)\n      dup1\n      0x00\n      mstore\n      keccak256(0x00, 0x40)\n      0x00\n      swap2\n      pop\n      swap1\n      pop\n      sload\n      dup2\n      jump\t// out\n        /* \"Ethereum/Presale.sol\":1198:1904  function initialSaleInfor(\r... */\n    tag_21:\n        /* \"Ethereum/Presale.sol\":1406:1419  _presaleOwner */\n      dup4\n        /* \"Ethereum/Presale.sol\":1381:1390  saleInfor */\n      0x08\n        /* \"Ethereum/Presale.sol\":1381:1403  saleInfor.presaleOwner */\n      0x00\n      add\n      0x00\n        /* \"Ethereum/Presale.sol\":1381:1419  saleInfor.presaleOwner = _presaleOwner */\n      0x0100\n      exp\n      dup2\n      sload\n      dup2\n      0xffffffffffffffffffffffffffffffffffffffff\n      mul\n      not\n      and\n      swap1\n      dup4\n      0xffffffffffffffffffffffffffffffffffffffff\n      and\n      mul\n      or\n      swap1\n      sstore\n      pop\n        /* \"Ethereum/Presale.sol\":1452:1462  _saleToken */\n      dup3\n        /* \"Ethereum/Presale.sol\":1430:1439  saleInfor */\n      0x08\n        /* \"Ethereum/Presale.sol\":1430:1449  saleInfor.saleToken */\n      0x01\n      add\n      0x00\n        /* \"Ethereum/Presale.sol\":1430:1462  saleInfor.saleToken = _saleToken */\n      0x0100\n      exp\n      dup2\n      sload\n      dup2\n      0xffffffffffffffffffffffffffffffffffffffff\n      mul\n      not\n      and\n      swap1\n      dup4\n      0xffffffffffffffffffffffffffffffffffffffff\n      and\n      mul\n      or\n      swap1\n      sstore\n      pop\n        /* \"Ethereum/Presale.sol\":1495:1505  _baseTOken */\n      dup2\n        /* \"Ethereum/Presale.sol\":1473:1482  saleInfor */\n      0x08\n        /* \"Ethereum/Presale.sol\":1473:1492  saleInfor.baseToken */\n      0x02\n      add\n      0x00\n        /* \"Ethereum/Presale.sol\":1473:1505  saleInfor.baseToken = _baseTOken */\n      0x0100\n      exp\n      dup2\n      sload\n      dup2\n      0xffffffffffffffffffffffffffffffffffffffff\n      mul\n      not\n      and\n      swap1\n      dup4\n      0xffffffffffffffffffffffffffffffffffffffff\n      and\n      mul\n      or\n      swap1\n      sstore\n      pop\n        /* \"Ethereum/Presale.sol\":1539:1544  datas */\n      dup1\n        /* \"Ethereum/Presale.sol\":1545:1546  0 */\n      0x00\n        /* \"Ethereum/Presale.sol\":1539:1547  datas[0] */\n      0x09\n      dup2\n      lt\n      tag_32\n      jumpi\n      mstore(0x00, 0x4e487b7100000000000000000000000000000000000000000000000000000000)\n      mstore(0x04, 0x32)\n      revert(0x00, 0x24)\n    tag_32:\n      0x20\n      mul\n      add\n      mload\n        /* \"Ethereum/Presale.sol\":1516:1525  saleInfor */\n      0x08\n        /* \"Ethereum/Presale.sol\":1516:1536  saleInfor.tokenPrice */\n      0x03\n      add\n        /* \"Ethereum/Presale.sol\":1516:1547  saleInfor.tokenPrice = datas[0] */\n      dup2\n      swap1\n      sstore\n      pop\n        /* \"Ethereum/Presale.sol\":1580:1585  datas */\n      dup1\n        /* \"Ethereum/Presale.sol\":1586:1587  1 */\n      0x01\n        /* \"Ethereum/Presale.sol\":1580:1588  datas[1] */\n      0x09\n      dup2\n      lt\n      tag_33\n      jumpi\n      mstore(0x00, 0x4e487b7100000000000000000000000000000000000000000000000000000000)\n      mstore(0x04, 0x32)\n      revert(0x00, 0x24)\n    tag_33:\n      0x20\n      mul\n      add\n      mload\n        /* \"Ethereum/Presale.sol\":1558:1567  saleInfor */\n      0x08\n        /* \"Ethereum/Presale.sol\":1558:1577  saleInfor.startSale */\n      0x04\n      add\n        /* \"Ethereum/Presale.sol\":1558:1588  saleInfor.startSale = datas[1] */\n      dup2\n      swap1\n      sstore\n      pop\n        /* \"Ethereum/Presale.sol\":1619:1624  datas */\n      dup1\n        /* \"Ethereum/Presale.sol\":1625:1626  2 */\n      0x02\n        /* \"Ethereum/Presale.sol\":1619:1627  datas[2] */\n      0x09\n      dup2\n      lt\n      tag_34\n      jumpi\n      mstore(0x00, 0x4e487b7100000000000000000000000000000000000000000000000000000000)\n      mstore(0x04, 0x32)\n      revert(0x00, 0x24)\n    tag_34:\n      0x20\n      mul\n      add\n      mload\n        /* \"Ethereum/Presale.sol\":1599:1608  saleInfor */\n      0x08\n        /* \"Ethereum/Presale.sol\":1599:1616  saleInfor.endSale */\n      0x05\n      add\n        /* \"Ethereum/Presale.sol\":1599:1627  saleInfor.endSale = datas[2] */\n      dup2\n      swap1\n      sstore\n      pop\n        /* \"Ethereum/Presale.sol\":1665:1670  datas */\n      dup1\n        /* \"Ethereum/Presale.sol\":1671:1672  3 */\n      0x03\n        /* \"Ethereum/Presale.sol\":1665:1673  datas[3] */\n      0x09\n      dup2\n      lt\n      tag_35\n      jumpi\n      mstore(0x00, 0x4e487b7100000000000000000000000000000000000000000000000000000000)\n      mstore(0x04, 0x32)\n      revert(0x00, 0x24)\n    tag_35:\n      0x20\n      mul\n      add\n      mload\n        /* \"Ethereum/Presale.sol\":1638:1647  saleInfor */\n      0x08\n        /* \"Ethereum/Presale.sol\":1638:1662  saleInfor.valueSwapERC20 */\n      0x06\n      add\n        /* \"Ethereum/Presale.sol\":1638:1673  saleInfor.valueSwapERC20 = datas[3] */\n      dup2\n      swap1\n      sstore\n      pop\n        /* \"Ethereum/Presale.sol\":1711:1716  datas */\n      dup1\n        /* \"Ethereum/Presale.sol\":1717:1718  4 */\n      0x04\n        /* \"Ethereum/Presale.sol\":1711:1719  datas[4] */\n      0x09\n      dup2\n      lt\n      tag_36\n      jumpi\n      mstore(0x00, 0x4e487b7100000000000000000000000000000000000000000000000000000000)\n      mstore(0x04, 0x32)\n      revert(0x00, 0x24)\n    tag_36:\n      0x20\n      mul\n      add\n      mload\n        /* \"Ethereum/Presale.sol\":1684:1693  saleInfor */\n      0x08\n        /* \"Ethereum/Presale.sol\":1684:1708  saleInfor.feeTransaction */\n      0x07\n      add\n        /* \"Ethereum/Presale.sol\":1684:1719  saleInfor.feeTransaction = datas[4] */\n      dup2\n      swap1\n      sstore\n      pop\n        /* \"Ethereum/Presale.sol\":1759:1764  datas */\n      dup1\n        /* \"Ethereum/Presale.sol\":1765:1766  5 */\n      0x05\n        /* \"Ethereum/Presale.sol\":1759:1767  datas[5] */\n      0x09\n      dup2\n      lt\n      tag_37\n      jumpi\n      mstore(0x00, 0x4e487b7100000000000000000000000000000000000000000000000000000000)\n      mstore(0x04, 0x32)\n      revert(0x00, 0x24)\n    tag_37:\n      0x20\n      mul\n      add\n      mload\n        /* \"Ethereum/Presale.sol\":1730:1739  saleInfor */\n      0x08\n        /* \"Ethereum/Presale.sol\":1730:1756  saleInfor.minSpendPerBuyer */\n      dup1\n      add\n        /* \"Ethereum/Presale.sol\":1730:1767  saleInfor.minSpendPerBuyer = datas[5] */\n      dup2\n      swap1\n      sstore\n      pop\n        /* \"Ethereum/Presale.sol\":1807:1812  datas */\n      dup1\n        /* \"Ethereum/Presale.sol\":1813:1814  6 */\n      0x06\n        /* \"Ethereum/Presale.sol\":1807:1815  datas[6] */\n      0x09\n      dup2\n      lt\n      tag_38\n      jumpi\n      mstore(0x00, 0x4e487b7100000000000000000000000000000000000000000000000000000000)\n      mstore(0x04, 0x32)\n      revert(0x00, 0x24)\n    tag_38:\n      0x20\n      mul\n      add\n      mload\n        /* \"Ethereum/Presale.sol\":1778:1787  saleInfor */\n      0x08\n        /* \"Ethereum/Presale.sol\":1778:1804  saleInfor.maxSpendPerBuyer */\n      0x09\n      add\n        /* \"Ethereum/Presale.sol\":1778:1815  saleInfor.maxSpendPerBuyer = datas[6] */\n      dup2\n      swap1\n      sstore\n      pop\n        /* \"Ethereum/Presale.sol\":1848:1853  datas */\n      dup1\n        /* \"Ethereum/Presale.sol\":1854:1855  7 */\n      0x07\n        /* \"Ethereum/Presale.sol\":1848:1856  datas[7] */\n      0x09\n      dup2\n      lt\n      tag_39\n      jumpi\n      mstore(0x00, 0x4e487b7100000000000000000000000000000000000000000000000000000000)\n      mstore(0x04, 0x32)\n      revert(0x00, 0x24)\n    tag_39:\n      0x20\n      mul\n      add\n      mload\n        /* \"Ethereum/Presale.sol\":1826:1835  saleInfor */\n      0x08\n        /* \"Ethereum/Presale.sol\":1826:1845  saleInfor.refundFee */\n      0x0a\n      add\n        /* \"Ethereum/Presale.sol\":1826:1856  saleInfor.refundFee = datas[7] */\n      dup2\n      swap1\n      sstore\n      pop\n        /* \"Ethereum/Presale.sol\":1888:1893  datas */\n      dup1\n        /* \"Ethereum/Presale.sol\":1894:1895  8 */\n      0x08\n        /* \"Ethereum/Presale.sol\":1888:1896  datas[8] */\n      0x09\n      dup2\n      lt\n      tag_40\n      jumpi\n      mstore(0x00, 0x4e487b7100000000000000000000000000000000000000000000000000000000)\n      mstore(0x04, 0x32)\n      revert(0x00, 0x24)\n    tag_40:\n      0x20\n      mul\n      add\n      mload\n        /* \"Ethereum/Presale.sol\":1867:1876  saleInfor */\n      0x08\n        /* \"Ethereum/Presale.sol\":1867:1885  saleInfor.claimFee */\n      0x0b\n      add\n        /* \"Ethereum/Presale.sol\":1867:1896  saleInfor.claimFee = datas[8] */\n      dup2\n      swap1\n      sstore\n      pop\n        /* \"Ethereum/Presale.sol\":1198:1904  function initialSaleInfor(\r... */\n      pop\n      pop\n      pop\n      pop\n      jump\t// out\n        /* \"Ethereum/Presale.sol\":1122:1156  PresaleStatus public presaleStatus */\n    tag_23:\n      0x02\n      dup1\n      0x00\n      add\n      sload\n      swap1\n      dup1\n      0x01\n      add\n      sload\n      swap1\n      dup1\n      0x02\n      add\n      sload\n      swap1\n      dup1\n      0x03\n      add\n      sload\n      swap1\n      dup1\n      0x04\n      add\n      sload\n      swap1\n      dup1\n      0x05\n      add\n      sload\n      swap1\n      pop\n      dup7\n      jump\t// out\n        /* \"Ethereum/Presale.sol\":1020:1066  mapping(address => BuyerInfo) public buyerInfo */\n    tag_28:\n      mstore(0x20, 0x00)\n      dup1\n      0x00\n      mstore\n      keccak256(0x00, 0x40)\n      0x00\n      swap2\n      pop\n      swap1\n      pop\n      dup1\n      0x00\n      add\n      sload\n      swap1\n      dup1\n      0x01\n      add\n      sload\n      swap1\n      dup1\n      0x02\n      add\n      sload\n      swap1\n      dup1\n      0x03\n      add\n      sload\n      swap1\n      dup1\n      0x04\n      add\n      0x00\n      swap1\n      sload\n      swap1\n      0x0100\n      exp\n      swap1\n      div\n      0xff\n      and\n      swap1\n      dup1\n      0x04\n      add\n      0x01\n      swap1\n      sload\n      swap1\n      0x0100\n      exp\n      swap1\n      div\n      0xff\n      and\n      swap1\n      pop\n      dup7\n      jump\t// out\n        /* \"#utility.yul\":25:590   */\n    tag_42:\n      0x00\n        /* \"#utility.yul\":144:222   */\n      tag_44\n        /* \"#utility.yul\":159:221   */\n      tag_45\n        /* \"#utility.yul\":214:220   */\n      dup5\n        /* \"#utility.yul\":159:221   */\n      tag_46\n      jump\t// in\n    tag_45:\n        /* \"#utility.yul\":144:222   */\n      tag_47\n      jump\t// in\n    tag_44:\n        /* \"#utility.yul\":135:222   */\n      swap1\n      pop\n        /* \"#utility.yul\":242:247   */\n      dup1\n        /* \"#utility.yul\":268:274   */\n      dup3\n        /* \"#utility.yul\":318:321   */\n      dup6\n        /* \"#utility.yul\":310:314   */\n      0x20\n        /* \"#utility.yul\":302:308   */\n      dup7\n        /* \"#utility.yul\":298:315   */\n      mul\n        /* \"#utility.yul\":293:296   */\n      dup3\n        /* \"#utility.yul\":289:316   */\n      add\n        /* \"#utility.yul\":286:322   */\n      gt\n        /* \"#utility.yul\":283:285   */\n      iszero\n      tag_48\n      jumpi\n        /* \"#utility.yul\":335:336   */\n      0x00\n        /* \"#utility.yul\":332:333   */\n      dup1\n        /* \"#utility.yul\":325:337   */\n      revert\n        /* \"#utility.yul\":283:285   */\n    tag_48:\n        /* \"#utility.yul\":363:364   */\n      0x00\n        /* \"#utility.yul\":348:584   */\n    tag_49:\n        /* \"#utility.yul\":373:379   */\n      dup6\n        /* \"#utility.yul\":370:371   */\n      dup2\n        /* \"#utility.yul\":367:380   */\n      lt\n        /* \"#utility.yul\":348:584   */\n      iszero\n      tag_51\n      jumpi\n        /* \"#utility.yul\":440:443   */\n      dup2\n        /* \"#utility.yul\":468:505   */\n      tag_52\n        /* \"#utility.yul\":501:504   */\n      dup9\n        /* \"#utility.yul\":489:499   */\n      dup3\n        /* \"#utility.yul\":468:505   */\n      tag_53\n      jump\t// in\n    tag_52:\n        /* \"#utility.yul\":463:466   */\n      dup5\n        /* \"#utility.yul\":456:506   */\n      mstore\n        /* \"#utility.yul\":535:539   */\n      0x20\n        /* \"#utility.yul\":530:533   */\n      dup5\n        /* \"#utility.yul\":526:540   */\n      add\n        /* \"#utility.yul\":519:540   */\n      swap4\n      pop\n        /* \"#utility.yul\":569:573   */\n      0x20\n        /* \"#utility.yul\":564:567   */\n      dup4\n        /* \"#utility.yul\":560:574   */\n      add\n        /* \"#utility.yul\":553:574   */\n      swap3\n      pop\n        /* \"#utility.yul\":408:584   */\n      pop\n        /* \"#utility.yul\":395:396   */\n      0x01\n        /* \"#utility.yul\":392:393   */\n      dup2\n        /* \"#utility.yul\":388:397   */\n      add\n        /* \"#utility.yul\":383:397   */\n      swap1\n      pop\n        /* \"#utility.yul\":348:584   */\n      jump(tag_49)\n    tag_51:\n        /* \"#utility.yul\":352:366   */\n      pop\n        /* \"#utility.yul\":125:590   */\n      pop\n      pop\n      swap4\n      swap3\n      pop\n      pop\n      pop\n      jump\t// out\n        /* \"#utility.yul\":596:735   */\n    tag_54:\n      0x00\n        /* \"#utility.yul\":680:686   */\n      dup2\n        /* \"#utility.yul\":667:687   */\n      calldataload\n        /* \"#utility.yul\":658:687   */\n      swap1\n      pop\n        /* \"#utility.yul\":696:729   */\n      tag_56\n        /* \"#utility.yul\":723:728   */\n      dup2\n        /* \"#utility.yul\":696:729   */\n      tag_57\n      jump\t// in\n    tag_56:\n        /* \"#utility.yul\":648:735   */\n      swap3\n      swap2\n      pop\n      pop\n      jump\t// out\n        /* \"#utility.yul\":741:896   */\n    tag_58:\n      0x00\n        /* \"#utility.yul\":833:839   */\n      dup2\n        /* \"#utility.yul\":820:840   */\n      calldataload\n        /* \"#utility.yul\":811:840   */\n      swap1\n      pop\n        /* \"#utility.yul\":849:890   */\n      tag_60\n        /* \"#utility.yul\":884:889   */\n      dup2\n        /* \"#utility.yul\":849:890   */\n      tag_61\n      jump\t// in\n    tag_60:\n        /* \"#utility.yul\":801:896   */\n      swap3\n      swap2\n      pop\n      pop\n      jump\t// out\n        /* \"#utility.yul\":920:1192   */\n    tag_62:\n      0x00\n        /* \"#utility.yul\":1038:1041   */\n      dup3\n        /* \"#utility.yul\":1031:1035   */\n      0x1f\n        /* \"#utility.yul\":1023:1029   */\n      dup4\n        /* \"#utility.yul\":1019:1036   */\n      add\n        /* \"#utility.yul\":1015:1042   */\n      slt\n        /* \"#utility.yul\":1005:1007   */\n      tag_64\n      jumpi\n        /* \"#utility.yul\":1056:1057   */\n      0x00\n        /* \"#utility.yul\":1053:1054   */\n      dup1\n        /* \"#utility.yul\":1046:1058   */\n      revert\n        /* \"#utility.yul\":1005:1007   */\n    tag_64:\n        /* \"#utility.yul\":1083:1087   */\n      0x09\n        /* \"#utility.yul\":1105:1186   */\n      tag_65\n        /* \"#utility.yul\":1182:1185   */\n      dup5\n        /* \"#utility.yul\":1174:1180   */\n      dup3\n        /* \"#utility.yul\":1166:1172   */\n      dup6\n        /* \"#utility.yul\":1105:1186   */\n      tag_42\n      jump\t// in\n    tag_65:\n        /* \"#utility.yul\":1096:1186   */\n      swap2\n      pop\n        /* \"#utility.yul\":995:1192   */\n      pop\n      swap3\n      swap2\n      pop\n      pop\n      jump\t// out\n        /* \"#utility.yul\":1198:1363   */\n    tag_66:\n      0x00\n        /* \"#utility.yul\":1295:1301   */\n      dup2\n        /* \"#utility.yul\":1282:1302   */\n      calldataload\n        /* \"#utility.yul\":1273:1302   */\n      swap1\n      pop\n        /* \"#utility.yul\":1311:1357   */\n      tag_68\n        /* \"#utility.yul\":1351:1356   */\n      dup2\n        /* \"#utility.yul\":1311:1357   */\n      tag_69\n      jump\t// in\n    tag_68:\n        /* \"#utility.yul\":1263:1363   */\n      swap3\n      swap2\n      pop\n      pop\n      jump\t// out\n        /* \"#utility.yul\":1369:1508   */\n    tag_53:\n      0x00\n        /* \"#utility.yul\":1453:1459   */\n      dup2\n        /* \"#utility.yul\":1440:1460   */\n      calldataload\n        /* \"#utility.yul\":1431:1460   */\n      swap1\n      pop\n        /* \"#utility.yul\":1469:1502   */\n      tag_71\n        /* \"#utility.yul\":1496:1501   */\n      dup2\n        /* \"#utility.yul\":1469:1502   */\n      tag_72\n      jump\t// in\n    tag_71:\n        /* \"#utility.yul\":1421:1508   */\n      swap3\n      swap2\n      pop\n      pop\n      jump\t// out\n        /* \"#utility.yul\":1514:1776   */\n    tag_14:\n      0x00\n        /* \"#utility.yul\":1622:1624   */\n      0x20\n        /* \"#utility.yul\":1610:1619   */\n      dup3\n        /* \"#utility.yul\":1601:1608   */\n      dup5\n        /* \"#utility.yul\":1597:1620   */\n      sub\n        /* \"#utility.yul\":1593:1625   */\n      slt\n        /* \"#utility.yul\":1590:1592   */\n      iszero\n      tag_74\n      jumpi\n        /* \"#utility.yul\":1638:1639   */\n      0x00\n        /* \"#utility.yul\":1635:1636   */\n      dup1\n        /* \"#utility.yul\":1628:1640   */\n      revert\n        /* \"#utility.yul\":1590:1592   */\n    tag_74:\n        /* \"#utility.yul\":1681:1682   */\n      0x00\n        /* \"#utility.yul\":1706:1759   */\n      tag_75\n        /* \"#utility.yul\":1751:1758   */\n      dup5\n        /* \"#utility.yul\":1742:1748   */\n      dup3\n        /* \"#utility.yul\":1731:1740   */\n      dup6\n        /* \"#utility.yul\":1727:1749   */\n      add\n        /* \"#utility.yul\":1706:1759   */\n      tag_54\n      jump\t// in\n    tag_75:\n        /* \"#utility.yul\":1696:1759   */\n      swap2\n      pop\n        /* \"#utility.yul\":1652:1769   */\n      pop\n        /* \"#utility.yul\":1580:1776   */\n      swap3\n      swap2\n      pop\n      pop\n      jump\t// out\n        /* \"#utility.yul\":1782:2594   */\n    tag_20:\n      0x00\n      dup1\n      0x00\n      dup1\n        /* \"#utility.yul\":1998:2001   */\n      0x0180\n        /* \"#utility.yul\":1986:1995   */\n      dup6\n        /* \"#utility.yul\":1977:1984   */\n      dup8\n        /* \"#utility.yul\":1973:1996   */\n      sub\n        /* \"#utility.yul\":1969:2002   */\n      slt\n        /* \"#utility.yul\":1966:1968   */\n      iszero\n      tag_77\n      jumpi\n        /* \"#utility.yul\":2015:2016   */\n      0x00\n        /* \"#utility.yul\":2012:2013   */\n      dup1\n        /* \"#utility.yul\":2005:2017   */\n      revert\n        /* \"#utility.yul\":1966:1968   */\n    tag_77:\n        /* \"#utility.yul\":2058:2059   */\n      0x00\n        /* \"#utility.yul\":2083:2144   */\n      tag_78\n        /* \"#utility.yul\":2136:2143   */\n      dup8\n        /* \"#utility.yul\":2127:2133   */\n      dup3\n        /* \"#utility.yul\":2116:2125   */\n      dup9\n        /* \"#utility.yul\":2112:2134   */\n      add\n        /* \"#utility.yul\":2083:2144   */\n      tag_58\n      jump\t// in\n    tag_78:\n        /* \"#utility.yul\":2073:2144   */\n      swap5\n      pop\n        /* \"#utility.yul\":2029:2154   */\n      pop\n        /* \"#utility.yul\":2193:2195   */\n      0x20\n        /* \"#utility.yul\":2219:2285   */\n      tag_79\n        /* \"#utility.yul\":2277:2284   */\n      dup8\n        /* \"#utility.yul\":2268:2274   */\n      dup3\n        /* \"#utility.yul\":2257:2266   */\n      dup9\n        /* \"#utility.yul\":2253:2275   */\n      add\n        /* \"#utility.yul\":2219:2285   */\n      tag_66\n      jump\t// in\n    tag_79:\n        /* \"#utility.yul\":2209:2285   */\n      swap4\n      pop\n        /* \"#utility.yul\":2164:2295   */\n      pop\n        /* \"#utility.yul\":2334:2336   */\n      0x40\n        /* \"#utility.yul\":2360:2426   */\n      tag_80\n        /* \"#utility.yul\":2418:2425   */\n      dup8\n        /* \"#utility.yul\":2409:2415   */\n      dup3\n        /* \"#utility.yul\":2398:2407   */\n      dup9\n        /* \"#utility.yul\":2394:2416   */\n      add\n        /* \"#utility.yul\":2360:2426   */\n      tag_66\n      jump\t// in\n    tag_80:\n        /* \"#utility.yul\":2350:2426   */\n      swap3\n      pop\n        /* \"#utility.yul\":2305:2436   */\n      pop\n        /* \"#utility.yul\":2475:2477   */\n      0x60\n        /* \"#utility.yul\":2501:2577   */\n      tag_81\n        /* \"#utility.yul\":2569:2576   */\n      dup8\n        /* \"#utility.yul\":2560:2566   */\n      dup3\n        /* \"#utility.yul\":2549:2558   */\n      dup9\n        /* \"#utility.yul\":2545:2567   */\n      add\n        /* \"#utility.yul\":2501:2577   */\n      tag_62\n      jump\t// in\n    tag_81:\n        /* \"#utility.yul\":2491:2577   */\n      swap2\n      pop\n        /* \"#utility.yul\":2446:2587   */\n      pop\n        /* \"#utility.yul\":1956:2594   */\n      swap3\n      swap6\n      swap2\n      swap5\n      pop\n      swap3\n      pop\n      jump\t// out\n        /* \"#utility.yul\":2600:2742   */\n    tag_82:\n        /* \"#utility.yul\":2703:2735   */\n      tag_84\n        /* \"#utility.yul\":2729:2734   */\n      dup2\n        /* \"#utility.yul\":2703:2735   */\n      tag_85\n      jump\t// in\n    tag_84:\n        /* \"#utility.yul\":2698:2701   */\n      dup3\n        /* \"#utility.yul\":2691:2736   */\n      mstore\n        /* \"#utility.yul\":2681:2742   */\n      pop\n      pop\n      jump\t// out\n        /* \"#utility.yul\":2748:2857   */\n    tag_86:\n        /* \"#utility.yul\":2829:2850   */\n      tag_88\n        /* \"#utility.yul\":2844:2849   */\n      dup2\n        /* \"#utility.yul\":2829:2850   */\n      tag_89\n      jump\t// in\n    tag_88:\n        /* \"#utility.yul\":2824:2827   */\n      dup3\n        /* \"#utility.yul\":2817:2851   */\n      mstore\n        /* \"#utility.yul\":2807:2857   */\n      pop\n      pop\n      jump\t// out\n        /* \"#utility.yul\":2863:3020   */\n    tag_90:\n        /* \"#utility.yul\":2963:3013   */\n      tag_92\n        /* \"#utility.yul\":3007:3012   */\n      dup2\n        /* \"#utility.yul\":2963:3013   */\n      tag_93\n      jump\t// in\n    tag_92:\n        /* \"#utility.yul\":2958:2961   */\n      dup3\n        /* \"#utility.yul\":2951:3014   */\n      mstore\n        /* \"#utility.yul\":2941:3020   */\n      pop\n      pop\n      jump\t// out\n        /* \"#utility.yul\":3026:3144   */\n    tag_94:\n        /* \"#utility.yul\":3113:3137   */\n      tag_96\n        /* \"#utility.yul\":3131:3136   */\n      dup2\n        /* \"#utility.yul\":3113:3137   */\n      tag_97\n      jump\t// in\n    tag_96:\n        /* \"#utility.yul\":3108:3111   */\n      dup3\n        /* \"#utility.yul\":3101:3138   */\n      mstore\n        /* \"#utility.yul\":3091:3144   */\n      pop\n      pop\n      jump\t// out\n        /* \"#utility.yul\":3150:4679   */\n    tag_11:\n      0x00\n        /* \"#utility.yul\":3633:3636   */\n      0x0180\n        /* \"#utility.yul\":3622:3631   */\n      dup3\n        /* \"#utility.yul\":3618:3637   */\n      add\n        /* \"#utility.yul\":3610:3637   */\n      swap1\n      pop\n        /* \"#utility.yul\":3647:3734   */\n      tag_99\n        /* \"#utility.yul\":3731:3732   */\n      0x00\n        /* \"#utility.yul\":3720:3729   */\n      dup4\n        /* \"#utility.yul\":3716:3733   */\n      add\n        /* \"#utility.yul\":3707:3713   */\n      dup16\n        /* \"#utility.yul\":3647:3734   */\n      tag_82\n      jump\t// in\n    tag_99:\n        /* \"#utility.yul\":3744:3829   */\n      tag_100\n        /* \"#utility.yul\":3825:3827   */\n      0x20\n        /* \"#utility.yul\":3814:3823   */\n      dup4\n        /* \"#utility.yul\":3810:3828   */\n      add\n        /* \"#utility.yul\":3801:3807   */\n      dup15\n        /* \"#utility.yul\":3744:3829   */\n      tag_90\n      jump\t// in\n    tag_100:\n        /* \"#utility.yul\":3839:3924   */\n      tag_101\n        /* \"#utility.yul\":3920:3922   */\n      0x40\n        /* \"#utility.yul\":3909:3918   */\n      dup4\n        /* \"#utility.yul\":3905:3923   */\n      add\n        /* \"#utility.yul\":3896:3902   */\n      dup14\n        /* \"#utility.yul\":3839:3924   */\n      tag_90\n      jump\t// in\n    tag_101:\n        /* \"#utility.yul\":3934:4006   */\n      tag_102\n        /* \"#utility.yul\":4002:4004   */\n      0x60\n        /* \"#utility.yul\":3991:4000   */\n      dup4\n        /* \"#utility.yul\":3987:4005   */\n      add\n        /* \"#utility.yul\":3978:3984   */\n      dup13\n        /* \"#utility.yul\":3934:4006   */\n      tag_94\n      jump\t// in\n    tag_102:\n        /* \"#utility.yul\":4016:4089   */\n      tag_103\n        /* \"#utility.yul\":4084:4087   */\n      0x80\n        /* \"#utility.yul\":4073:4082   */\n      dup4\n        /* \"#utility.yul\":4069:4088   */\n      add\n        /* \"#utility.yul\":4060:4066   */\n      dup12\n        /* \"#utility.yul\":4016:4089   */\n      tag_94\n      jump\t// in\n    tag_103:\n        /* \"#utility.yul\":4099:4172   */\n      tag_104\n        /* \"#utility.yul\":4167:4170   */\n      0xa0\n        /* \"#utility.yul\":4156:4165   */\n      dup4\n        /* \"#utility.yul\":4152:4171   */\n      add\n        /* \"#utility.yul\":4143:4149   */\n      dup11\n        /* \"#utility.yul\":4099:4172   */\n      tag_94\n      jump\t// in\n    tag_104:\n        /* \"#utility.yul\":4182:4255   */\n      tag_105\n        /* \"#utility.yul\":4250:4253   */\n      0xc0\n        /* \"#utility.yul\":4239:4248   */\n      dup4\n        /* \"#utility.yul\":4235:4254   */\n      add\n        /* \"#utility.yul\":4226:4232   */\n      dup10\n        /* \"#utility.yul\":4182:4255   */\n      tag_94\n      jump\t// in\n    tag_105:\n        /* \"#utility.yul\":4265:4338   */\n      tag_106\n        /* \"#utility.yul\":4333:4336   */\n      0xe0\n        /* \"#utility.yul\":4322:4331   */\n      dup4\n        /* \"#utility.yul\":4318:4337   */\n      add\n        /* \"#utility.yul\":4309:4315   */\n      dup9\n        /* \"#utility.yul\":4265:4338   */\n      tag_94\n      jump\t// in\n    tag_106:\n        /* \"#utility.yul\":4348:4421   */\n      tag_107\n        /* \"#utility.yul\":4416:4419   */\n      0x0100\n        /* \"#utility.yul\":4405:4414   */\n      dup4\n        /* \"#utility.yul\":4401:4420   */\n      add\n        /* \"#utility.yul\":4392:4398   */\n      dup8\n        /* \"#utility.yul\":4348:4421   */\n      tag_94\n      jump\t// in\n    tag_107:\n        /* \"#utility.yul\":4431:4504   */\n      tag_108\n        /* \"#utility.yul\":4499:4502   */\n      0x0120\n        /* \"#utility.yul\":4488:4497   */\n      dup4\n        /* \"#utility.yul\":4484:4503   */\n      add\n        /* \"#utility.yul\":4475:4481   */\n      dup7\n        /* \"#utility.yul\":4431:4504   */\n      tag_94\n      jump\t// in\n    tag_108:\n        /* \"#utility.yul\":4514:4588   */\n      tag_109\n        /* \"#utility.yul\":4583:4586   */\n      0x0140\n        /* \"#utility.yul\":4572:4581   */\n      dup4\n        /* \"#utility.yul\":4568:4587   */\n      add\n        /* \"#utility.yul\":4558:4565   */\n      dup6\n        /* \"#utility.yul\":4514:4588   */\n      tag_94\n      jump\t// in\n    tag_109:\n        /* \"#utility.yul\":4598:4672   */\n      tag_110\n        /* \"#utility.yul\":4667:4670   */\n      0x0160\n        /* \"#utility.yul\":4656:4665   */\n      dup4\n        /* \"#utility.yul\":4652:4671   */\n      add\n        /* \"#utility.yul\":4642:4649   */\n      dup5\n        /* \"#utility.yul\":4598:4672   */\n      tag_94\n      jump\t// in\n    tag_110:\n        /* \"#utility.yul\":3600:4679   */\n      swap14\n      swap13\n      pop\n      pop\n      pop\n      pop\n      pop\n      pop\n      pop\n      pop\n      pop\n      pop\n      pop\n      pop\n      pop\n      jump\t// out\n        /* \"#utility.yul\":4685:4907   */\n    tag_17:\n      0x00\n        /* \"#utility.yul\":4816:4818   */\n      0x20\n        /* \"#utility.yul\":4805:4814   */\n      dup3\n        /* \"#utility.yul\":4801:4819   */\n      add\n        /* \"#utility.yul\":4793:4819   */\n      swap1\n      pop\n        /* \"#utility.yul\":4829:4900   */\n      tag_112\n        /* \"#utility.yul\":4897:4898   */\n      0x00\n        /* \"#utility.yul\":4886:4895   */\n      dup4\n        /* \"#utility.yul\":4882:4899   */\n      add\n        /* \"#utility.yul\":4873:4879   */\n      dup5\n        /* \"#utility.yul\":4829:4900   */\n      tag_94\n      jump\t// in\n    tag_112:\n        /* \"#utility.yul\":4783:4907   */\n      swap3\n      swap2\n      pop\n      pop\n      jump\t// out\n        /* \"#utility.yul\":4913:5664   */\n    tag_30:\n      0x00\n        /* \"#utility.yul\":5172:5175   */\n      0xc0\n        /* \"#utility.yul\":5161:5170   */\n      dup3\n        /* \"#utility.yul\":5157:5176   */\n      add\n        /* \"#utility.yul\":5149:5176   */\n      swap1\n      pop\n        /* \"#utility.yul\":5186:5257   */\n      tag_114\n        /* \"#utility.yul\":5254:5255   */\n      0x00\n        /* \"#utility.yul\":5243:5252   */\n      dup4\n        /* \"#utility.yul\":5239:5256   */\n      add\n        /* \"#utility.yul\":5230:5236   */\n      dup10\n        /* \"#utility.yul\":5186:5257   */\n      tag_94\n      jump\t// in\n    tag_114:\n        /* \"#utility.yul\":5267:5339   */\n      tag_115\n        /* \"#utility.yul\":5335:5337   */\n      0x20\n        /* \"#utility.yul\":5324:5333   */\n      dup4\n        /* \"#utility.yul\":5320:5338   */\n      add\n        /* \"#utility.yul\":5311:5317   */\n      dup9\n        /* \"#utility.yul\":5267:5339   */\n      tag_94\n      jump\t// in\n    tag_115:\n        /* \"#utility.yul\":5349:5421   */\n      tag_116\n        /* \"#utility.yul\":5417:5419   */\n      0x40\n        /* \"#utility.yul\":5406:5415   */\n      dup4\n        /* \"#utility.yul\":5402:5420   */\n      add\n        /* \"#utility.yul\":5393:5399   */\n      dup8\n        /* \"#utility.yul\":5349:5421   */\n      tag_94\n      jump\t// in\n    tag_116:\n        /* \"#utility.yul\":5431:5503   */\n      tag_117\n        /* \"#utility.yul\":5499:5501   */\n      0x60\n        /* \"#utility.yul\":5488:5497   */\n      dup4\n        /* \"#utility.yul\":5484:5502   */\n      add\n        /* \"#utility.yul\":5475:5481   */\n      dup7\n        /* \"#utility.yul\":5431:5503   */\n      tag_94\n      jump\t// in\n    tag_117:\n        /* \"#utility.yul\":5513:5580   */\n      tag_118\n        /* \"#utility.yul\":5575:5578   */\n      0x80\n        /* \"#utility.yul\":5564:5573   */\n      dup4\n        /* \"#utility.yul\":5560:5579   */\n      add\n        /* \"#utility.yul\":5551:5557   */\n      dup6\n        /* \"#utility.yul\":5513:5580   */\n      tag_86\n      jump\t// in\n    tag_118:\n        /* \"#utility.yul\":5590:5657   */\n      tag_119\n        /* \"#utility.yul\":5652:5655   */\n      0xa0\n        /* \"#utility.yul\":5641:5650   */\n      dup4\n        /* \"#utility.yul\":5637:5656   */\n      add\n        /* \"#utility.yul\":5628:5634   */\n      dup5\n        /* \"#utility.yul\":5590:5657   */\n      tag_86\n      jump\t// in\n    tag_119:\n        /* \"#utility.yul\":5139:5664   */\n      swap8\n      swap7\n      pop\n      pop\n      pop\n      pop\n      pop\n      pop\n      pop\n      jump\t// out\n        /* \"#utility.yul\":5670:6445   */\n    tag_25:\n      0x00\n        /* \"#utility.yul\":5941:5944   */\n      0xc0\n        /* \"#utility.yul\":5930:5939   */\n      dup3\n        /* \"#utility.yul\":5926:5945   */\n      add\n        /* \"#utility.yul\":5918:5945   */\n      swap1\n      pop\n        /* \"#utility.yul\":5955:6026   */\n      tag_121\n        /* \"#utility.yul\":6023:6024   */\n      0x00\n        /* \"#utility.yul\":6012:6021   */\n      dup4\n        /* \"#utility.yul\":6008:6025   */\n      add\n        /* \"#utility.yul\":5999:6005   */\n      dup10\n        /* \"#utility.yul\":5955:6026   */\n      tag_94\n      jump\t// in\n    tag_121:\n        /* \"#utility.yul\":6036:6108   */\n      tag_122\n        /* \"#utility.yul\":6104:6106   */\n      0x20\n        /* \"#utility.yul\":6093:6102   */\n      dup4\n        /* \"#utility.yul\":6089:6107   */\n      add\n        /* \"#utility.yul\":6080:6086   */\n      dup9\n        /* \"#utility.yul\":6036:6108   */\n      tag_94\n      jump\t// in\n    tag_122:\n        /* \"#utility.yul\":6118:6190   */\n      tag_123\n        /* \"#utility.yul\":6186:6188   */\n      0x40\n        /* \"#utility.yul\":6175:6184   */\n      dup4\n        /* \"#utility.yul\":6171:6189   */\n      add\n        /* \"#utility.yul\":6162:6168   */\n      dup8\n        /* \"#utility.yul\":6118:6190   */\n      tag_94\n      jump\t// in\n    tag_123:\n        /* \"#utility.yul\":6200:6272   */\n      tag_124\n        /* \"#utility.yul\":6268:6270   */\n      0x60\n        /* \"#utility.yul\":6257:6266   */\n      dup4\n        /* \"#utility.yul\":6253:6271   */\n      add\n        /* \"#utility.yul\":6244:6250   */\n      dup7\n        /* \"#utility.yul\":6200:6272   */\n      tag_94\n      jump\t// in\n    tag_124:\n        /* \"#utility.yul\":6282:6355   */\n      tag_125\n        /* \"#utility.yul\":6350:6353   */\n      0x80\n        /* \"#utility.yul\":6339:6348   */\n      dup4\n        /* \"#utility.yul\":6335:6354   */\n      add\n        /* \"#utility.yul\":6326:6332   */\n      dup6\n        /* \"#utility.yul\":6282:6355   */\n      tag_94\n      jump\t// in\n    tag_125:\n        /* \"#utility.yul\":6365:6438   */\n      tag_126\n        /* \"#utility.yul\":6433:6436   */\n      0xa0\n        /* \"#utility.yul\":6422:6431   */\n      dup4\n        /* \"#utility.yul\":6418:6437   */\n      add\n        /* \"#utility.yul\":6409:6415   */\n      dup5\n        /* \"#utility.yul\":6365:6438   */\n      tag_94\n      jump\t// in\n    tag_126:\n        /* \"#utility.yul\":5908:6445   */\n      swap8\n      swap7\n      pop\n      pop\n      pop\n      pop\n      pop\n      pop\n      pop\n      jump\t// out\n        /* \"#utility.yul\":6451:6734   */\n    tag_47:\n      0x00\n        /* \"#utility.yul\":6517:6519   */\n      0x40\n        /* \"#utility.yul\":6511:6520   */\n      mload\n        /* \"#utility.yul\":6501:6520   */\n      swap1\n      pop\n        /* \"#utility.yul\":6559:6563   */\n      dup2\n        /* \"#utility.yul\":6551:6557   */\n      dup2\n        /* \"#utility.yul\":6547:6564   */\n      add\n        /* \"#utility.yul\":6666:6672   */\n      dup2\n        /* \"#utility.yul\":6654:6664   */\n      dup2\n        /* \"#utility.yul\":6651:6673   */\n      lt\n        /* \"#utility.yul\":6630:6648   */\n      0xffffffffffffffff\n        /* \"#utility.yul\":6618:6628   */\n      dup3\n        /* \"#utility.yul\":6615:6649   */\n      gt\n        /* \"#utility.yul\":6612:6674   */\n      or\n        /* \"#utility.yul\":6609:6611   */\n      iszero\n      tag_128\n      jumpi\n        /* \"#utility.yul\":6677:6695   */\n      tag_129\n      tag_130\n      jump\t// in\n    tag_129:\n        /* \"#utility.yul\":6609:6611   */\n    tag_128:\n        /* \"#utility.yul\":6717:6727   */\n      dup1\n        /* \"#utility.yul\":6713:6715   */\n      0x40\n        /* \"#utility.yul\":6706:6728   */\n      mstore\n        /* \"#utility.yul\":6491:6734   */\n      pop\n      swap2\n      swap1\n      pop\n      jump\t// out\n        /* \"#utility.yul\":6740:6989   */\n    tag_46:\n      0x00\n        /* \"#utility.yul\":6905:6923   */\n      0xffffffffffffffff\n        /* \"#utility.yul\":6897:6903   */\n      dup3\n        /* \"#utility.yul\":6894:6924   */\n      gt\n        /* \"#utility.yul\":6891:6893   */\n      iszero\n      tag_132\n      jumpi\n        /* \"#utility.yul\":6927:6945   */\n      tag_133\n      tag_130\n      jump\t// in\n    tag_133:\n        /* \"#utility.yul\":6891:6893   */\n    tag_132:\n        /* \"#utility.yul\":6977:6981   */\n      0x20\n        /* \"#utility.yul\":6969:6975   */\n      dup3\n        /* \"#utility.yul\":6965:6982   */\n      mul\n        /* \"#utility.yul\":6957:6982   */\n      swap1\n      pop\n        /* \"#utility.yul\":6820:6989   */\n      swap2\n      swap1\n      pop\n      jump\t// out\n        /* \"#utility.yul\":6995:7091   */\n    tag_134:\n      0x00\n        /* \"#utility.yul\":7061:7085   */\n      tag_136\n        /* \"#utility.yul\":7079:7084   */\n      dup3\n        /* \"#utility.yul\":7061:7085   */\n      tag_137\n      jump\t// in\n    tag_136:\n        /* \"#utility.yul\":7050:7085   */\n      swap1\n      pop\n        /* \"#utility.yul\":7040:7091   */\n      swap2\n      swap1\n      pop\n      jump\t// out\n        /* \"#utility.yul\":7097:7201   */\n    tag_85:\n      0x00\n        /* \"#utility.yul\":7171:7195   */\n      tag_139\n        /* \"#utility.yul\":7189:7194   */\n      dup3\n        /* \"#utility.yul\":7171:7195   */\n      tag_137\n      jump\t// in\n    tag_139:\n        /* \"#utility.yul\":7160:7195   */\n      swap1\n      pop\n        /* \"#utility.yul\":7150:7201   */\n      swap2\n      swap1\n      pop\n      jump\t// out\n        /* \"#utility.yul\":7207:7297   */\n    tag_89:\n      0x00\n        /* \"#utility.yul\":7284:7289   */\n      dup2\n        /* \"#utility.yul\":7277:7290   */\n      iszero\n        /* \"#utility.yul\":7270:7291   */\n      iszero\n        /* \"#utility.yul\":7259:7291   */\n      swap1\n      pop\n        /* \"#utility.yul\":7249:7297   */\n      swap2\n      swap1\n      pop\n      jump\t// out\n        /* \"#utility.yul\":7303:7412   */\n    tag_141:\n      0x00\n        /* \"#utility.yul\":7382:7406   */\n      tag_143\n        /* \"#utility.yul\":7400:7405   */\n      dup3\n        /* \"#utility.yul\":7382:7406   */\n      tag_134\n      jump\t// in\n    tag_143:\n        /* \"#utility.yul\":7371:7406   */\n      swap1\n      pop\n        /* \"#utility.yul\":7361:7412   */\n      swap2\n      swap1\n      pop\n      jump\t// out\n        /* \"#utility.yul\":7418:7544   */\n    tag_137:\n      0x00\n        /* \"#utility.yul\":7495:7537   */\n      0xffffffffffffffffffffffffffffffffffffffff\n        /* \"#utility.yul\":7488:7493   */\n      dup3\n        /* \"#utility.yul\":7484:7538   */\n      and\n        /* \"#utility.yul\":7473:7538   */\n      swap1\n      pop\n        /* \"#utility.yul\":7463:7544   */\n      swap2\n      swap1\n      pop\n      jump\t// out\n        /* \"#utility.yul\":7550:7627   */\n    tag_97:\n      0x00\n        /* \"#utility.yul\":7616:7621   */\n      dup2\n        /* \"#utility.yul\":7605:7621   */\n      swap1\n      pop\n        /* \"#utility.yul\":7595:7627   */\n      swap2\n      swap1\n      pop\n      jump\t// out\n        /* \"#utility.yul\":7633:7785   */\n    tag_93:\n      0x00\n        /* \"#utility.yul\":7729:7779   */\n      tag_147\n        /* \"#utility.yul\":7773:7778   */\n      dup3\n        /* \"#utility.yul\":7729:7779   */\n      tag_148\n      jump\t// in\n    tag_147:\n        /* \"#utility.yul\":7716:7779   */\n      swap1\n      pop\n        /* \"#utility.yul\":7706:7785   */\n      swap2\n      swap1\n      pop\n      jump\t// out\n        /* \"#utility.yul\":7791:7917   */\n    tag_148:\n      0x00\n        /* \"#utility.yul\":7887:7911   */\n      tag_150\n        /* \"#utility.yul\":7905:7910   */\n      dup3\n        /* \"#utility.yul\":7887:7911   */\n      tag_137\n      jump\t// in\n    tag_150:\n        /* \"#utility.yul\":7874:7911   */\n      swap1\n      pop\n        /* \"#utility.yul\":7864:7917   */\n      swap2\n      swap1\n      pop\n      jump\t// out\n        /* \"#utility.yul\":7923:8103   */\n    tag_130:\n        /* \"#utility.yul\":7971:8048   */\n      0x4e487b7100000000000000000000000000000000000000000000000000000000\n        /* \"#utility.yul\":7968:7969   */\n      0x00\n        /* \"#utility.yul\":7961:8049   */\n      mstore\n        /* \"#utility.yul\":8068:8072   */\n      0x41\n        /* \"#utility.yul\":8065:8066   */\n      0x04\n        /* \"#utility.yul\":8058:8073   */\n      mstore\n        /* \"#utility.yul\":8092:8096   */\n      0x24\n        /* \"#utility.yul\":8089:8090   */\n      0x00\n        /* \"#utility.yul\":8082:8097   */\n      revert\n        /* \"#utility.yul\":8109:8231   */\n    tag_57:\n        /* \"#utility.yul\":8182:8206   */\n      tag_153\n        /* \"#utility.yul\":8200:8205   */\n      dup2\n        /* \"#utility.yul\":8182:8206   */\n      tag_134\n      jump\t// in\n    tag_153:\n        /* \"#utility.yul\":8175:8180   */\n      dup2\n        /* \"#utility.yul\":8172:8207   */\n      eq\n        /* \"#utility.yul\":8162:8164   */\n      tag_154\n      jumpi\n        /* \"#utility.yul\":8221:8222   */\n      0x00\n        /* \"#utility.yul\":8218:8219   */\n      dup1\n        /* \"#utility.yul\":8211:8223   */\n      revert\n        /* \"#utility.yul\":8162:8164   */\n    tag_154:\n        /* \"#utility.yul\":8152:8231   */\n      pop\n      jump\t// out\n        /* \"#utility.yul\":8237:8375   */\n    tag_61:\n        /* \"#utility.yul\":8318:8350   */\n      tag_156\n        /* \"#utility.yul\":8344:8349   */\n      dup2\n        /* \"#utility.yul\":8318:8350   */\n      tag_85\n      jump\t// in\n    tag_156:\n        /* \"#utility.yul\":8311:8316   */\n      dup2\n        /* \"#utility.yul\":8308:8351   */\n      eq\n        /* \"#utility.yul\":8298:8300   */\n      tag_157\n      jumpi\n        /* \"#utility.yul\":8365:8366   */\n      0x00\n        /* \"#utility.yul\":8362:8363   */\n      dup1\n        /* \"#utility.yul\":8355:8367   */\n      revert\n        /* \"#utility.yul\":8298:8300   */\n    tag_157:\n        /* \"#utility.yul\":8288:8375   */\n      pop\n      jump\t// out\n        /* \"#utility.yul\":8381:8529   */\n    tag_69:\n        /* \"#utility.yul\":8467:8504   */\n      tag_159\n        /* \"#utility.yul\":8498:8503   */\n      dup2\n        /* \"#utility.yul\":8467:8504   */\n      tag_141\n      jump\t// in\n    tag_159:\n        /* \"#utility.yul\":8460:8465   */\n      dup2\n        /* \"#utility.yul\":8457:8505   */\n      eq\n        /* \"#utility.yul\":8447:8449   */\n      tag_160\n      jumpi\n        /* \"#utility.yul\":8519:8520   */\n      0x00\n        /* \"#utility.yul\":8516:8517   */\n      dup1\n        /* \"#utility.yul\":8509:8521   */\n      revert\n        /* \"#utility.yul\":8447:8449   */\n    tag_160:\n        /* \"#utility.yul\":8437:8529   */\n      pop\n      jump\t// out\n        /* \"#utility.yul\":8535:8657   */\n    tag_72:\n        /* \"#utility.yul\":8608:8632   */\n      tag_162\n        /* \"#utility.yul\":8626:8631   */\n      dup2\n        /* \"#utility.yul\":8608:8632   */\n      tag_97\n      jump\t// in\n    tag_162:\n        /* \"#utility.yul\":8601:8606   */\n      dup2\n        /* \"#utility.yul\":8598:8633   */\n      eq\n        /* \"#utility.yul\":8588:8590   */\n      tag_163\n      jumpi\n        /* \"#utility.yul\":8647:8648   */\n      0x00\n        /* \"#utility.yul\":8644:8645   */\n      dup1\n        /* \"#utility.yul\":8637:8649   */\n      revert\n        /* \"#utility.yul\":8588:8590   */\n    tag_163:\n        /* \"#utility.yul\":8578:8657   */\n      pop\n      jump\t// out\n\n    auxdata: 0xa26469706673582212207113d12de7c291122ff8d1b3230db84e7a3fa9110ac58d00e2871ebad9a6c09a64736f6c63430008000033\n}\n",
				"bytecode": {
					"linkReferences": {},
					"object": "608060405234801561001057600080fd5b50610aae806100206000396000f3fe608060405234801561001057600080fd5b50600436106100575760003560e01c806318856a2f1461005c57806356c5f349146100855780638f1eae4c146100b5578063acfb2355146100d1578063e2d3f423146100f4575b600080fd5b610064610129565b60405161007c9c9b9a9998979695949392919061076f565b60405180910390f35b61009f600480360381019061009a91906106a6565b6101d7565b6040516100ac9190610829565b60405180910390f35b6100cf60048036038101906100ca91906106cf565b6101ef565b005b6100d9610548565b6040516100eb969594939291906108a5565b60405180910390f35b61010e600480360381019061010991906106a6565b610572565b60405161012096959493929190610844565b60405180910390f35b60088060000160009054906101000a900473ffffffffffffffffffffffffffffffffffffffff16908060010160009054906101000a900473ffffffffffffffffffffffffffffffffffffffff16908060020160009054906101000a900473ffffffffffffffffffffffffffffffffffffffff169080600301549080600401549080600501549080600601549080600701549080600801549080600901549080600a01549080600b015490508c565b60016020528060005260406000206000915090505481565b83600860000160006101000a81548173ffffffffffffffffffffffffffffffffffffffff021916908373ffffffffffffffffffffffffffffffffffffffff16021790555082600860010160006101000a81548173ffffffffffffffffffffffffffffffffffffffff021916908373ffffffffffffffffffffffffffffffffffffffff16021790555081600860020160006101000a81548173ffffffffffffffffffffffffffffffffffffffff021916908373ffffffffffffffffffffffffffffffffffffffff160217905550806000600981106102f5577f4e487b7100000000000000000000000000000000000000000000000000000000600052603260045260246000fd5b60200201516008600301819055508060016009811061033d577f4e487b7100000000000000000000000000000000000000000000000000000000600052603260045260246000fd5b602002015160086004018190555080600260098110610385577f4e487b7100000000000000000000000000000000000000000000000000000000600052603260045260246000fd5b6020020151600860050181905550806003600981106103cd577f4e487b7100000000000000000000000000000000000000000000000000000000600052603260045260246000fd5b602002015160086006018190555080600460098110610415577f4e487b7100000000000000000000000000000000000000000000000000000000600052603260045260246000fd5b60200201516008600701819055508060056009811061045d577f4e487b7100000000000000000000000000000000000000000000000000000000600052603260045260246000fd5b60200201516008800181905550806006600981106104a4577f4e487b7100000000000000000000000000000000000000000000000000000000600052603260045260246000fd5b6020020151600860090181905550806007600981106104ec577f4e487b7100000000000000000000000000000000000000000000000000000000600052603260045260246000fd5b60200201516008600a018190555080600860098110610534577f4e487b7100000000000000000000000000000000000000000000000000000000600052603260045260246000fd5b60200201516008600b018190555050505050565b60028060000154908060010154908060020154908060030154908060040154908060050154905086565b60006020528060005260406000206000915090508060000154908060010154908060020154908060030154908060040160009054906101000a900460ff16908060040160019054906101000a900460ff16905086565b60006105db6105d684610937565b610906565b905080828560208602820111156105f157600080fd5b60005b8581101561062157816106078882610691565b8452602084019350602083019250506001810190506105f4565b5050509392505050565b60008135905061063a81610a1c565b92915050565b60008135905061064f81610a33565b92915050565b600082601f83011261066657600080fd5b60096106738482856105c8565b91505092915050565b60008135905061068b81610a4a565b92915050565b6000813590506106a081610a61565b92915050565b6000602082840312156106b857600080fd5b60006106c68482850161062b565b91505092915050565b60008060008061018085870312156106e657600080fd5b60006106f487828801610640565b94505060206107058782880161067c565b93505060406107168782880161067c565b925050606061072787828801610655565b91505092959194509250565b61073c8161096f565b82525050565b61074b81610981565b82525050565b61075a816109c9565b82525050565b610769816109bf565b82525050565b600061018082019050610785600083018f610733565b610792602083018e610751565b61079f604083018d610751565b6107ac606083018c610760565b6107b9608083018b610760565b6107c660a083018a610760565b6107d360c0830189610760565b6107e060e0830188610760565b6107ee610100830187610760565b6107fc610120830186610760565b61080a610140830185610760565b610818610160830184610760565b9d9c50505050505050505050505050565b600060208201905061083e6000830184610760565b92915050565b600060c0820190506108596000830189610760565b6108666020830188610760565b6108736040830187610760565b6108806060830186610760565b61088d6080830185610742565b61089a60a0830184610742565b979650505050505050565b600060c0820190506108ba6000830189610760565b6108c76020830188610760565b6108d46040830187610760565b6108e16060830186610760565b6108ee6080830185610760565b6108fb60a0830184610760565b979650505050505050565b6000604051905081810181811067ffffffffffffffff8211171561092d5761092c6109ed565b5b8060405250919050565b600067ffffffffffffffff821115610952576109516109ed565b5b602082029050919050565b60006109688261099f565b9050919050565b600061097a8261099f565b9050919050565b60008115159050919050565b60006109988261095d565b9050919050565b600073ffffffffffffffffffffffffffffffffffffffff82169050919050565b6000819050919050565b60006109d4826109db565b9050919050565b60006109e68261099f565b9050919050565b7f4e487b7100000000000000000000000000000000000000000000000000000000600052604160045260246000fd5b610a258161095d565b8114610a3057600080fd5b50565b610a3c8161096f565b8114610a4757600080fd5b50565b610a538161098d565b8114610a5e57600080fd5b50565b610a6a816109bf565b8114610a7557600080fd5b5056fea26469706673582212207113d12de7c291122ff8d1b3230db84e7a3fa9110ac58d00e2871ebad9a6c09a64736f6c63430008000033",
					"opcodes": "PUSH1 0x80 PUSH1 0x40 MSTORE CALLVALUE DUP1 ISZERO PUSH2 0x10 JUMPI PUSH1 0x0 DUP1 REVERT JUMPDEST POP PUSH2 0xAAE DUP1 PUSH2 0x20 PUSH1 0x0 CODECOPY PUSH1 0x0 RETURN INVALID PUSH1 0x80 PUSH1 0x40 MSTORE CALLVALUE DUP1 ISZERO PUSH2 0x10 JUMPI PUSH1 0x0 DUP1 REVERT JUMPDEST POP PUSH1 0x4 CALLDATASIZE LT PUSH2 0x57 JUMPI PUSH1 0x0 CALLDATALOAD PUSH1 0xE0 SHR DUP1 PUSH4 0x18856A2F EQ PUSH2 0x5C JUMPI DUP1 PUSH4 0x56C5F349 EQ PUSH2 0x85 JUMPI DUP1 PUSH4 0x8F1EAE4C EQ PUSH2 0xB5 JUMPI DUP1 PUSH4 0xACFB2355 EQ PUSH2 0xD1 JUMPI DUP1 PUSH4 0xE2D3F423 EQ PUSH2 0xF4 JUMPI JUMPDEST PUSH1 0x0 DUP1 REVERT JUMPDEST PUSH2 0x64 PUSH2 0x129 JUMP JUMPDEST PUSH1 0x40 MLOAD PUSH2 0x7C SWAP13 SWAP12 SWAP11 SWAP10 SWAP9 SWAP8 SWAP7 SWAP6 SWAP5 SWAP4 SWAP3 SWAP2 SWAP1 PUSH2 0x76F JUMP JUMPDEST PUSH1 0x40 MLOAD DUP1 SWAP2 SUB SWAP1 RETURN JUMPDEST PUSH2 0x9F PUSH1 0x4 DUP1 CALLDATASIZE SUB DUP2 ADD SWAP1 PUSH2 0x9A SWAP2 SWAP1 PUSH2 0x6A6 JUMP JUMPDEST PUSH2 0x1D7 JUMP JUMPDEST PUSH1 0x40 MLOAD PUSH2 0xAC SWAP2 SWAP1 PUSH2 0x829 JUMP JUMPDEST PUSH1 0x40 MLOAD DUP1 SWAP2 SUB SWAP1 RETURN JUMPDEST PUSH2 0xCF PUSH1 0x4 DUP1 CALLDATASIZE SUB DUP2 ADD SWAP1 PUSH2 0xCA SWAP2 SWAP1 PUSH2 0x6CF JUMP JUMPDEST PUSH2 0x1EF JUMP JUMPDEST STOP JUMPDEST PUSH2 0xD9 PUSH2 0x548 JUMP JUMPDEST PUSH1 0x40 MLOAD PUSH2 0xEB SWAP7 SWAP6 SWAP5 SWAP4 SWAP3 SWAP2 SWAP1 PUSH2 0x8A5 JUMP JUMPDEST PUSH1 0x40 MLOAD DUP1 SWAP2 SUB SWAP1 RETURN JUMPDEST PUSH2 0x10E PUSH1 0x4 DUP1 CALLDATASIZE SUB DUP2 ADD SWAP1 PUSH2 0x109 SWAP2 SWAP1 PUSH2 0x6A6 JUMP JUMPDEST PUSH2 0x572 JUMP JUMPDEST PUSH1 0x40 MLOAD PUSH2 0x120 SWAP7 SWAP6 SWAP5 SWAP4 SWAP3 SWAP2 SWAP1 PUSH2 0x844 JUMP JUMPDEST PUSH1 0x40 MLOAD DUP1 SWAP2 SUB SWAP1 RETURN JUMPDEST PUSH1 0x8 DUP1 PUSH1 0x0 ADD PUSH1 0x0 SWAP1 SLOAD SWAP1 PUSH2 0x100 EXP SWAP1 DIV PUSH20 0xFFFFFFFFFFFFFFFFFFFFFFFFFFFFFFFFFFFFFFFF AND SWAP1 DUP1 PUSH1 0x1 ADD PUSH1 0x0 SWAP1 SLOAD SWAP1 PUSH2 0x100 EXP SWAP1 DIV PUSH20 0xFFFFFFFFFFFFFFFFFFFFFFFFFFFFFFFFFFFFFFFF AND SWAP1 DUP1 PUSH1 0x2 ADD PUSH1 0x0 SWAP1 SLOAD SWAP1 PUSH2 0x100 EXP SWAP1 DIV PUSH20 0xFFFFFFFFFFFFFFFFFFFFFFFFFFFFFFFFFFFFFFFF AND SWAP1 DUP1 PUSH1 0x3 ADD SLOAD SWAP1 DUP1 PUSH1 0x4 ADD SLOAD SWAP1 DUP1 PUSH1 0x5 ADD SLOAD SWAP1 DUP1 PUSH1 0x6 ADD SLOAD SWAP1 DUP1 PUSH1 0x7 ADD SLOAD SWAP1 DUP1 PUSH1 0x8 ADD SLOAD SWAP1 DUP1 PUSH1 0x9 ADD SLOAD SWAP1 DUP1 PUSH1 0xA ADD SLOAD SWAP1 DUP1 PUSH1 0xB ADD SLOAD SWAP1 POP DUP13 JUMP JUMPDEST PUSH1 0x1 PUSH1 0x20 MSTORE DUP1 PUSH1 0x0 MSTORE PUSH1 0x40 PUSH1 0x0 KECCAK256 PUSH1 0x0 SWAP2 POP SWAP1 POP SLOAD DUP2 JUMP JUMPDEST DUP4 PUSH1 0x8 PUSH1 0x0 ADD PUSH1 0x0 PUSH2 0x100 EXP DUP2 SLOAD DUP2 PUSH20 0xFFFFFFFFFFFFFFFFFFFFFFFFFFFFFFFFFFFFFFFF MUL NOT AND SWAP1 DUP4 PUSH20 0xFFFFFFFFFFFFFFFFFFFFFFFFFFFFFFFFFFFFFFFF AND MUL OR SWAP1 SSTORE POP DUP3 PUSH1 0x8 PUSH1 0x1 ADD PUSH1 0x0 PUSH2 0x100 EXP DUP2 SLOAD DUP2 PUSH20 0xFFFFFFFFFFFFFFFFFFFFFFFFFFFFFFFFFFFFFFFF MUL NOT AND SWAP1 DUP4 PUSH20 0xFFFFFFFFFFFFFFFFFFFFFFFFFFFFFFFFFFFFFFFF AND MUL OR SWAP1 SSTORE POP DUP2 PUSH1 0x8 PUSH1 0x2 ADD PUSH1 0x0 PUSH2 0x100 EXP DUP2 SLOAD DUP2 PUSH20 0xFFFFFFFFFFFFFFFFFFFFFFFFFFFFFFFFFFFFFFFF MUL NOT AND SWAP1 DUP4 PUSH20 0xFFFFFFFFFFFFFFFFFFFFFFFFFFFFFFFFFFFFFFFF AND MUL OR SWAP1 SSTORE POP DUP1 PUSH1 0x0 PUSH1 0x9 DUP2 LT PUSH2 0x2F5 JUMPI PUSH32 0x4E487B7100000000000000000000000000000000000000000000000000000000 PUSH1 0x0 MSTORE PUSH1 0x32 PUSH1 0x4 MSTORE PUSH1 0x24 PUSH1 0x0 REVERT JUMPDEST PUSH1 0x20 MUL ADD MLOAD PUSH1 0x8 PUSH1 0x3 ADD DUP2 SWAP1 SSTORE POP DUP1 PUSH1 0x1 PUSH1 0x9 DUP2 LT PUSH2 0x33D JUMPI PUSH32 0x4E487B7100000000000000000000000000000000000000000000000000000000 PUSH1 0x0 MSTORE PUSH1 0x32 PUSH1 0x4 MSTORE PUSH1 0x24 PUSH1 0x0 REVERT JUMPDEST PUSH1 0x20 MUL ADD MLOAD PUSH1 0x8 PUSH1 0x4 ADD DUP2 SWAP1 SSTORE POP DUP1 PUSH1 0x2 PUSH1 0x9 DUP2 LT PUSH2 0x385 JUMPI PUSH32 0x4E487B7100000000000000000000000000000000000000000000000000000000 PUSH1 0x0 MSTORE PUSH1 0x32 PUSH1 0x4 MSTORE PUSH1 0x24 PUSH1 0x0 REVERT JUMPDEST PUSH1 0x20 MUL ADD MLOAD PUSH1 0x8 PUSH1 0x5 ADD DUP2 SWAP1 SSTORE POP DUP1 PUSH1 0x3 PUSH1 0x9 DUP2 LT PUSH2 0x3CD JUMPI PUSH32 0x4E487B7100000000000000000000000000000000000000000000000000000000 PUSH1 0x0 MSTORE PUSH1 0x32 PUSH1 0x4 MSTORE PUSH1 0x24 PUSH1 0x0 REVERT JUMPDEST PUSH1 0x20 MUL ADD MLOAD PUSH1 0x8 PUSH1 0x6 ADD DUP2 SWAP1 SSTORE POP DUP1 PUSH1 0x4 PUSH1 0x9 DUP2 LT PUSH2 0x415 JUMPI PUSH32 0x4E487B7100000000000000000000000000000000000000000000000000000000 PUSH1 0x0 MSTORE PUSH1 0x32 PUSH1 0x4 MSTORE PUSH1 0x24 PUSH1 0x0 REVERT JUMPDEST PUSH1 0x20 MUL ADD MLOAD PUSH1 0x8 PUSH1 0x7 ADD DUP2 SWAP1 SSTORE POP DUP1 PUSH1 0x5 PUSH1 0x9 DUP2 LT PUSH2 0x45D JUMPI PUSH32 0x4E487B7100000000000000000000000000000000000000000000000000000000 PUSH1 0x0 MSTORE PUSH1 0x32 PUSH1 0x4 MSTORE PUSH1 0x24 PUSH1 0x0 REVERT JUMPDEST PUSH1 0x20 MUL ADD MLOAD PUSH1 0x8 DUP1 ADD DUP2 SWAP1 SSTORE POP DUP1 PUSH1 0x6 PUSH1 0x9 DUP2 LT PUSH2 0x4A4 JUMPI PUSH32 0x4E487B7100000000000000000000000000000000000000000000000000000000 PUSH1 0x0 MSTORE PUSH1 0x32 PUSH1 0x4 MSTORE PUSH1 0x24 PUSH1 0x0 REVERT JUMPDEST PUSH1 0x20 MUL ADD MLOAD PUSH1 0x8 PUSH1 0x9 ADD DUP2 SWAP1 SSTORE POP DUP1 PUSH1 0x7 PUSH1 0x9 DUP2 LT PUSH2 0x4EC JUMPI PUSH32 0x4E487B7100000000000000000000000000000000000000000000000000000000 PUSH1 0x0 MSTORE PUSH1 0x32 PUSH1 0x4 MSTORE PUSH1 0x24 PUSH1 0x0 REVERT JUMPDEST PUSH1 0x20 MUL ADD MLOAD PUSH1 0x8 PUSH1 0xA ADD DUP2 SWAP1 SSTORE POP DUP1 PUSH1 0x8 PUSH1 0x9 DUP2 LT PUSH2 0x534 JUMPI PUSH32 0x4E487B7100000000000000000000000000000000000000000000000000000000 PUSH1 0x0 MSTORE PUSH1 0x32 PUSH1 0x4 MSTORE PUSH1 0x24 PUSH1 0x0 REVERT JUMPDEST PUSH1 0x20 MUL ADD MLOAD PUSH1 0x8 PUSH1 0xB ADD DUP2 SWAP1 SSTORE POP POP POP POP POP JUMP JUMPDEST PUSH1 0x2 DUP1 PUSH1 0x0 ADD SLOAD SWAP1 DUP1 PUSH1 0x1 ADD SLOAD SWAP1 DUP1 PUSH1 0x2 ADD SLOAD SWAP1 DUP1 PUSH1 0x3 ADD SLOAD SWAP1 DUP1 PUSH1 0x4 ADD SLOAD SWAP1 DUP1 PUSH1 0x5 ADD SLOAD SWAP1 POP DUP7 JUMP JUMPDEST PUSH1 0x0 PUSH1 0x20 MSTORE DUP1 PUSH1 0x0 MSTORE PUSH1 0x40 PUSH1 0x0 KECCAK256 PUSH1 0x0 SWAP2 POP SWAP1 POP DUP1 PUSH1 0x0 ADD SLOAD SWAP1 DUP1 PUSH1 0x1 ADD SLOAD SWAP1 DUP1 PUSH1 0x2 ADD SLOAD SWAP1 DUP1 PUSH1 0x3 ADD SLOAD SWAP1 DUP1 PUSH1 0x4 ADD PUSH1 0x0 SWAP1 SLOAD SWAP1 PUSH2 0x100 EXP SWAP1 DIV PUSH1 0xFF AND SWAP1 DUP1 PUSH1 0x4 ADD PUSH1 0x1 SWAP1 SLOAD SWAP1 PUSH2 0x100 EXP SWAP1 DIV PUSH1 0xFF AND SWAP1 POP DUP7 JUMP JUMPDEST PUSH1 0x0 PUSH2 0x5DB PUSH2 0x5D6 DUP5 PUSH2 0x937 JUMP JUMPDEST PUSH2 0x906 JUMP JUMPDEST SWAP1 POP DUP1 DUP3 DUP6 PUSH1 0x20 DUP7 MUL DUP3 ADD GT ISZERO PUSH2 0x5F1 JUMPI PUSH1 0x0 DUP1 REVERT JUMPDEST PUSH1 0x0 JUMPDEST DUP6 DUP2 LT ISZERO PUSH2 0x621 JUMPI DUP2 PUSH2 0x607 DUP9 DUP3 PUSH2 0x691 JUMP JUMPDEST DUP5 MSTORE PUSH1 0x20 DUP5 ADD SWAP4 POP PUSH1 0x20 DUP4 ADD SWAP3 POP POP PUSH1 0x1 DUP2 ADD SWAP1 POP PUSH2 0x5F4 JUMP JUMPDEST POP POP POP SWAP4 SWAP3 POP POP POP JUMP JUMPDEST PUSH1 0x0 DUP2 CALLDATALOAD SWAP1 POP PUSH2 0x63A DUP2 PUSH2 0xA1C JUMP JUMPDEST SWAP3 SWAP2 POP POP JUMP JUMPDEST PUSH1 0x0 DUP2 CALLDATALOAD SWAP1 POP PUSH2 0x64F DUP2 PUSH2 0xA33 JUMP JUMPDEST SWAP3 SWAP2 POP POP JUMP JUMPDEST PUSH1 0x0 DUP3 PUSH1 0x1F DUP4 ADD SLT PUSH2 0x666 JUMPI PUSH1 0x0 DUP1 REVERT JUMPDEST PUSH1 0x9 PUSH2 0x673 DUP5 DUP3 DUP6 PUSH2 0x5C8 JUMP JUMPDEST SWAP2 POP POP SWAP3 SWAP2 POP POP JUMP JUMPDEST PUSH1 0x0 DUP2 CALLDATALOAD SWAP1 POP PUSH2 0x68B DUP2 PUSH2 0xA4A JUMP JUMPDEST SWAP3 SWAP2 POP POP JUMP JUMPDEST PUSH1 0x0 DUP2 CALLDATALOAD SWAP1 POP PUSH2 0x6A0 DUP2 PUSH2 0xA61 JUMP JUMPDEST SWAP3 SWAP2 POP POP JUMP JUMPDEST PUSH1 0x0 PUSH1 0x20 DUP3 DUP5 SUB SLT ISZERO PUSH2 0x6B8 JUMPI PUSH1 0x0 DUP1 REVERT JUMPDEST PUSH1 0x0 PUSH2 0x6C6 DUP5 DUP3 DUP6 ADD PUSH2 0x62B JUMP JUMPDEST SWAP2 POP POP SWAP3 SWAP2 POP POP JUMP JUMPDEST PUSH1 0x0 DUP1 PUSH1 0x0 DUP1 PUSH2 0x180 DUP6 DUP8 SUB SLT ISZERO PUSH2 0x6E6 JUMPI PUSH1 0x0 DUP1 REVERT JUMPDEST PUSH1 0x0 PUSH2 0x6F4 DUP8 DUP3 DUP9 ADD PUSH2 0x640 JUMP JUMPDEST SWAP5 POP POP PUSH1 0x20 PUSH2 0x705 DUP8 DUP3 DUP9 ADD PUSH2 0x67C JUMP JUMPDEST SWAP4 POP POP PUSH1 0x40 PUSH2 0x716 DUP8 DUP3 DUP9 ADD PUSH2 0x67C JUMP JUMPDEST SWAP3 POP POP PUSH1 0x60 PUSH2 0x727 DUP8 DUP3 DUP9 ADD PUSH2 0x655 JUMP JUMPDEST SWAP2 POP POP SWAP3 SWAP6 SWAP2 SWAP5 POP SWAP3 POP JUMP JUMPDEST PUSH2 0x73C DUP2 PUSH2 0x96F JUMP JUMPDEST DUP3 MSTORE POP POP JUMP JUMPDEST PUSH2 0x74B DUP2 PUSH2 0x981 JUMP JUMPDEST DUP3 MSTORE POP POP JUMP JUMPDEST PUSH2 0x75A DUP2 PUSH2 0x9C9 JUMP JUMPDEST DUP3 MSTORE POP POP JUMP JUMPDEST PUSH2 0x769 DUP2 PUSH2 0x9BF JUMP JUMPDEST DUP3 MSTORE POP POP JUMP JUMPDEST PUSH1 0x0 PUSH2 0x180 DUP3 ADD SWAP1 POP PUSH2 0x785 PUSH1 0x0 DUP4 ADD DUP16 PUSH2 0x733 JUMP JUMPDEST PUSH2 0x792 PUSH1 0x20 DUP4 ADD DUP15 PUSH2 0x751 JUMP JUMPDEST PUSH2 0x79F PUSH1 0x40 DUP4 ADD DUP14 PUSH2 0x751 JUMP JUMPDEST PUSH2 0x7AC PUSH1 0x60 DUP4 ADD DUP13 PUSH2 0x760 JUMP JUMPDEST PUSH2 0x7B9 PUSH1 0x80 DUP4 ADD DUP12 PUSH2 0x760 JUMP JUMPDEST PUSH2 0x7C6 PUSH1 0xA0 DUP4 ADD DUP11 PUSH2 0x760 JUMP JUMPDEST PUSH2 0x7D3 PUSH1 0xC0 DUP4 ADD DUP10 PUSH2 0x760 JUMP JUMPDEST PUSH2 0x7E0 PUSH1 0xE0 DUP4 ADD DUP9 PUSH2 0x760 JUMP JUMPDEST PUSH2 0x7EE PUSH2 0x100 DUP4 ADD DUP8 PUSH2 0x760 JUMP JUMPDEST PUSH2 0x7FC PUSH2 0x120 DUP4 ADD DUP7 PUSH2 0x760 JUMP JUMPDEST PUSH2 0x80A PUSH2 0x140 DUP4 ADD DUP6 PUSH2 0x760 JUMP JUMPDEST PUSH2 0x818 PUSH2 0x160 DUP4 ADD DUP5 PUSH2 0x760 JUMP JUMPDEST SWAP14 SWAP13 POP POP POP POP POP POP POP POP POP POP POP POP POP JUMP JUMPDEST PUSH1 0x0 PUSH1 0x20 DUP3 ADD SWAP1 POP PUSH2 0x83E PUSH1 0x0 DUP4 ADD DUP5 PUSH2 0x760 JUMP JUMPDEST SWAP3 SWAP2 POP POP JUMP JUMPDEST PUSH1 0x0 PUSH1 0xC0 DUP3 ADD SWAP1 POP PUSH2 0x859 PUSH1 0x0 DUP4 ADD DUP10 PUSH2 0x760 JUMP JUMPDEST PUSH2 0x866 PUSH1 0x20 DUP4 ADD DUP9 PUSH2 0x760 JUMP JUMPDEST PUSH2 0x873 PUSH1 0x40 DUP4 ADD DUP8 PUSH2 0x760 JUMP JUMPDEST PUSH2 0x880 PUSH1 0x60 DUP4 ADD DUP7 PUSH2 0x760 JUMP JUMPDEST PUSH2 0x88D PUSH1 0x80 DUP4 ADD DUP6 PUSH2 0x742 JUMP JUMPDEST PUSH2 0x89A PUSH1 0xA0 DUP4 ADD DUP5 PUSH2 0x742 JUMP JUMPDEST SWAP8 SWAP7 POP POP POP POP POP POP POP JUMP JUMPDEST PUSH1 0x0 PUSH1 0xC0 DUP3 ADD SWAP1 POP PUSH2 0x8BA PUSH1 0x0 DUP4 ADD DUP10 PUSH2 0x760 JUMP JUMPDEST PUSH2 0x8C7 PUSH1 0x20 DUP4 ADD DUP9 PUSH2 0x760 JUMP JUMPDEST PUSH2 0x8D4 PUSH1 0x40 DUP4 ADD DUP8 PUSH2 0x760 JUMP JUMPDEST PUSH2 0x8E1 PUSH1 0x60 DUP4 ADD DUP7 PUSH2 0x760 JUMP JUMPDEST PUSH2 0x8EE PUSH1 0x80 DUP4 ADD DUP6 PUSH2 0x760 JUMP JUMPDEST PUSH2 0x8FB PUSH1 0xA0 DUP4 ADD DUP5 PUSH2 0x760 JUMP JUMPDEST SWAP8 SWAP7 POP POP POP POP POP POP POP JUMP JUMPDEST PUSH1 0x0 PUSH1 0x40 MLOAD SWAP1 POP DUP2 DUP2 ADD DUP2 DUP2 LT PUSH8 0xFFFFFFFFFFFFFFFF DUP3 GT OR ISZERO PUSH2 0x92D JUMPI PUSH2 0x92C PUSH2 0x9ED JUMP JUMPDEST JUMPDEST DUP1 PUSH1 0x40 MSTORE POP SWAP2 SWAP1 POP JUMP JUMPDEST PUSH1 0x0 PUSH8 0xFFFFFFFFFFFFFFFF DUP3 GT ISZERO PUSH2 0x952 JUMPI PUSH2 0x951 PUSH2 0x9ED JUMP JUMPDEST JUMPDEST PUSH1 0x20 DUP3 MUL SWAP1 POP SWAP2 SWAP1 POP JUMP JUMPDEST PUSH1 0x0 PUSH2 0x968 DUP3 PUSH2 0x99F JUMP JUMPDEST SWAP1 POP SWAP2 SWAP1 POP JUMP JUMPDEST PUSH1 0x0 PUSH2 0x97A DUP3 PUSH2 0x99F JUMP JUMPDEST SWAP1 POP SWAP2 SWAP1 POP JUMP JUMPDEST PUSH1 0x0 DUP2 ISZERO ISZERO SWAP1 POP SWAP2 SWAP1 POP JUMP JUMPDEST PUSH1 0x0 PUSH2 0x998 DUP3 PUSH2 0x95D JUMP JUMPDEST SWAP1 POP SWAP2 SWAP1 POP JUMP JUMPDEST PUSH1 0x0 PUSH20 0xFFFFFFFFFFFFFFFFFFFFFFFFFFFFFFFFFFFFFFFF DUP3 AND SWAP1 POP SWAP2 SWAP1 POP JUMP JUMPDEST PUSH1 0x0 DUP2 SWAP1 POP SWAP2 SWAP1 POP JUMP JUMPDEST PUSH1 0x0 PUSH2 0x9D4 DUP3 PUSH2 0x9DB JUMP JUMPDEST SWAP1 POP SWAP2 SWAP1 POP JUMP JUMPDEST PUSH1 0x0 PUSH2 0x9E6 DUP3 PUSH2 0x99F JUMP JUMPDEST SWAP1 POP SWAP2 SWAP1 POP JUMP JUMPDEST PUSH32 0x4E487B7100000000000000000000000000000000000000000000000000000000 PUSH1 0x0 MSTORE PUSH1 0x41 PUSH1 0x4 MSTORE PUSH1 0x24 PUSH1 0x0 REVERT JUMPDEST PUSH2 0xA25 DUP2 PUSH2 0x95D JUMP JUMPDEST DUP2 EQ PUSH2 0xA30 JUMPI PUSH1 0x0 DUP1 REVERT JUMPDEST POP JUMP JUMPDEST PUSH2 0xA3C DUP2 PUSH2 0x96F JUMP JUMPDEST DUP2 EQ PUSH2 0xA47 JUMPI PUSH1 0x0 DUP1 REVERT JUMPDEST POP JUMP JUMPDEST PUSH2 0xA53 DUP2 PUSH2 0x98D JUMP JUMPDEST DUP2 EQ PUSH2 0xA5E JUMPI PUSH1 0x0 DUP1 REVERT JUMPDEST POP JUMP JUMPDEST PUSH2 0xA6A DUP2 PUSH2 0x9BF JUMP JUMPDEST DUP2 EQ PUSH2 0xA75 JUMPI PUSH1 0x0 DUP1 REVERT JUMPDEST POP JUMP INVALID LOG2 PUSH5 0x6970667358 0x22 SLT KECCAK256 PUSH18 0x13D12DE7C291122FF8D1B3230DB84E7A3FA9 GT EXP 0xC5 DUP14 STOP 0xE2 DUP8 0x1E 0xBA 0xD9 0xA6 0xC0 SWAP11 PUSH5 0x736F6C6343 STOP ADDMOD STOP STOP CALLER "
				},
				"gasEstimates": {
					"creation": {
						"codeDepositCost": "546800",
						"executionCost": "581",
						"totalCost": "547381"
					},
					"external": {
						"buyerInfo(address)": "infinite",
						"initialSaleInfor(address,address,address,uint256[9])": "infinite",
						"presaleStatus()": "infinite",
						"saleInfor()": "infinite",
						"userFee(address)": "1514"
					}
				},
				"methodIdentifiers": {
					"buyerInfo(address)": "e2d3f423",
					"initialSaleInfor(address,address,address,uint256[9])": "8f1eae4c",
					"presaleStatus()": "acfb2355",
					"saleInfor()": "18856a2f",
					"userFee(address)": "56c5f349"
				}
			},
			"storageLayout": {
				"storage": [
					{
						"astId": 138,
						"contract": "Ethereum/Presale.sol:Presale",
						"label": "buyerInfo",
						"offset": 0,
						"slot": "0",
						"type": "t_mapping(t_address,t_struct(BuyerInfo)120_storage)"
					},
					{
						"astId": 142,
						"contract": "Ethereum/Presale.sol:Presale",
						"label": "userFee",
						"offset": 0,
						"slot": "1",
						"type": "t_mapping(t_address,t_uint256)"
					},
					{
						"astId": 145,
						"contract": "Ethereum/Presale.sol:Presale",
						"label": "presaleStatus",
						"offset": 0,
						"slot": "2",
						"type": "t_struct(PresaleStatus)133_storage"
					},
					{
						"astId": 148,
						"contract": "Ethereum/Presale.sol:Presale",
						"label": "saleInfor",
						"offset": 0,
						"slot": "8",
						"type": "t_struct(SaleInfor)107_storage"
					}
				],
				"types": {
					"t_address": {
						"encoding": "inplace",
						"label": "address",
						"numberOfBytes": "20"
					},
					"t_address_payable": {
						"encoding": "inplace",
						"label": "address payable",
						"numberOfBytes": "20"
					},
					"t_bool": {
						"encoding": "inplace",
						"label": "bool",
						"numberOfBytes": "1"
					},
					"t_contract(IERC20)77": {
						"encoding": "inplace",
						"label": "contract IERC20",
						"numberOfBytes": "20"
					},
					"t_mapping(t_address,t_struct(BuyerInfo)120_storage)": {
						"encoding": "mapping",
						"key": "t_address",
						"label": "mapping(address => struct Presale.BuyerInfo)",
						"numberOfBytes": "32",
						"value": "t_struct(BuyerInfo)120_storage"
					},
					"t_mapping(t_address,t_uint256)": {
						"encoding": "mapping",
						"key": "t_address",
						"label": "mapping(address => uint256)",
						"numberOfBytes": "32",
						"value": "t_uint256"
					},
					"t_struct(BuyerInfo)120_storage": {
						"encoding": "inplace",
						"label": "struct Presale.BuyerInfo",
						"members": [
							{
								"astId": 109,
								"contract": "Ethereum/Presale.sol:Presale",
								"label": "baseDeposit",
								"offset": 0,
								"slot": "0",
								"type": "t_uint256"
							},
							{
								"astId": 111,
								"contract": "Ethereum/Presale.sol:Presale",
								"label": "tokenOwner",
								"offset": 0,
								"slot": "1",
								"type": "t_uint256"
							},
							{
								"astId": 113,
								"contract": "Ethereum/Presale.sol:Presale",
								"label": "lastWithDraw",
								"offset": 0,
								"slot": "2",
								"type": "t_uint256"
							},
							{
								"astId": 115,
								"contract": "Ethereum/Presale.sol:Presale",
								"label": "totalTokenWithDraw",
								"offset": 0,
								"slot": "3",
								"type": "t_uint256"
							},
							{
								"astId": 117,
								"contract": "Ethereum/Presale.sol:Presale",
								"label": "isRefund",
								"offset": 0,
								"slot": "4",
								"type": "t_bool"
							},
							{
								"astId": 119,
								"contract": "Ethereum/Presale.sol:Presale",
								"label": "isClaim",
								"offset": 1,
								"slot": "4",
								"type": "t_bool"
							}
						],
						"numberOfBytes": "160"
					},
					"t_struct(PresaleStatus)133_storage": {
						"encoding": "inplace",
						"label": "struct Presale.PresaleStatus",
						"members": [
							{
								"astId": 122,
								"contract": "Ethereum/Presale.sol:Presale",
								"label": "totalBaseCollected",
								"offset": 0,
								"slot": "0",
								"type": "t_uint256"
							},
							{
								"astId": 124,
								"contract": "Ethereum/Presale.sol:Presale",
								"label": "totalTokenSold",
								"offset": 0,
								"slot": "1",
								"type": "t_uint256"
							},
							{
								"astId": 126,
								"contract": "Ethereum/Presale.sol:Presale",
								"label": "totalTokenWithDraw",
								"offset": 0,
								"slot": "2",
								"type": "t_uint256"
							},
							{
								"astId": 128,
								"contract": "Ethereum/Presale.sol:Presale",
								"label": "totalBaseWithDraw",
								"offset": 0,
								"slot": "3",
								"type": "t_uint256"
							},
							{
								"astId": 130,
								"contract": "Ethereum/Presale.sol:Presale",
								"label": "numByer",
								"offset": 0,
								"slot": "4",
								"type": "t_uint256"
							},
							{
								"astId": 132,
								"contract": "Ethereum/Presale.sol:Presale",
								"label": "totalFee",
								"offset": 0,
								"slot": "5",
								"type": "t_uint256"
							}
						],
						"numberOfBytes": "192"
					},
					"t_struct(SaleInfor)107_storage": {
						"encoding": "inplace",
						"label": "struct Presale.SaleInfor",
						"members": [
							{
								"astId": 82,
								"contract": "Ethereum/Presale.sol:Presale",
								"label": "presaleOwner",
								"offset": 0,
								"slot": "0",
								"type": "t_address_payable"
							},
							{
								"astId": 85,
								"contract": "Ethereum/Presale.sol:Presale",
								"label": "saleToken",
								"offset": 0,
								"slot": "1",
								"type": "t_contract(IERC20)77"
							},
							{
								"astId": 88,
								"contract": "Ethereum/Presale.sol:Presale",
								"label": "baseToken",
								"offset": 0,
								"slot": "2",
								"type": "t_contract(IERC20)77"
							},
							{
								"astId": 90,
								"contract": "Ethereum/Presale.sol:Presale",
								"label": "tokenPrice",
								"offset": 0,
								"slot": "3",
								"type": "t_uint256"
							},
							{
								"astId": 92,
								"contract": "Ethereum/Presale.sol:Presale",
								"label": "startSale",
								"offset": 0,
								"slot": "4",
								"type": "t_uint256"
							},
							{
								"astId": 94,
								"contract": "Ethereum/Presale.sol:Presale",
								"label": "endSale",
								"offset": 0,
								"slot": "5",
								"type": "t_uint256"
							},
							{
								"astId": 96,
								"contract": "Ethereum/Presale.sol:Presale",
								"label": "valueSwapERC20",
								"offset": 0,
								"slot": "6",
								"type": "t_uint256"
							},
							{
								"astId": 98,
								"contract": "Ethereum/Presale.sol:Presale",
								"label": "feeTransaction",
								"offset": 0,
								"slot": "7",
								"type": "t_uint256"
							},
							{
								"astId": 100,
								"contract": "Ethereum/Presale.sol:Presale",
								"label": "minSpendPerBuyer",
								"offset": 0,
								"slot": "8",
								"type": "t_uint256"
							},
							{
								"astId": 102,
								"contract": "Ethereum/Presale.sol:Presale",
								"label": "maxSpendPerBuyer",
								"offset": 0,
								"slot": "9",
								"type": "t_uint256"
							},
							{
								"astId": 104,
								"contract": "Ethereum/Presale.sol:Presale",
								"label": "refundFee",
								"offset": 0,
								"slot": "10",
								"type": "t_uint256"
							},
							{
								"astId": 106,
								"contract": "Ethereum/Presale.sol:Presale",
								"label": "claimFee",
								"offset": 0,
								"slot": "11",
								"type": "t_uint256"
							}
						],
						"numberOfBytes": "384"
					},
					"t_uint256": {
						"encoding": "inplace",
						"label": "uint256",
						"numberOfBytes": "32"
					}
				}
			},
			"userdoc": {
				"kind": "user",
				"methods": {},
				"version": 1
			}
		}
	}
}