{
	"Ethereum/Presale.sol": {
		"Presale": {
			"abi": [
				{
					"inputs": [],
					"stateMutability": "nonpayable",
					"type": "constructor"
				},
				{
					"inputs": [],
					"name": "PRESALE_INFO",
					"outputs": [
						{
							"internalType": "contract IERC20",
							"name": "B_TOKEN",
							"type": "address"
						}
					],
					"stateMutability": "view",
					"type": "function"
				},
				{
					"inputs": [],
					"name": "backToken",
					"outputs": [],
					"stateMutability": "payable",
					"type": "function"
				},
				{
					"inputs": [
						{
							"internalType": "address",
							"name": "",
							"type": "address"
						}
					],
					"name": "buyerInfo",
					"outputs": [
						{
							"internalType": "uint256",
							"name": "baseDeposit",
							"type": "uint256"
						},
						{
							"internalType": "uint256",
							"name": "tokenOwner",
							"type": "uint256"
						},
						{
							"internalType": "uint256",
							"name": "lastWithDraw",
							"type": "uint256"
						},
						{
							"internalType": "uint256",
							"name": "totalTokenWithDraw",
							"type": "uint256"
						},
						{
							"internalType": "bool",
							"name": "isRefund",
							"type": "bool"
						},
						{
							"internalType": "bool",
							"name": "isClaim",
							"type": "bool"
						}
					],
					"stateMutability": "view",
					"type": "function"
				},
				{
					"inputs": [
						{
							"internalType": "uint256",
							"name": "value",
							"type": "uint256"
						}
					],
					"name": "depodit",
					"outputs": [],
					"stateMutability": "payable",
					"type": "function"
				},
				{
					"inputs": [
						{
							"internalType": "address",
							"name": "_address",
							"type": "address"
						}
					],
					"name": "getBalance",
					"outputs": [
						{
							"internalType": "uint256",
							"name": "",
							"type": "uint256"
						}
					],
					"stateMutability": "view",
					"type": "function"
				},
				{
					"inputs": [
						{
							"internalType": "address payable",
							"name": "_presaleOwner",
							"type": "address"
						},
						{
							"internalType": "contract IERC20",
							"name": "_saleToken",
							"type": "address"
						},
						{
							"internalType": "contract IERC20",
							"name": "_baseTOken",
							"type": "address"
						},
						{
							"internalType": "uint256[9]",
							"name": "datas",
							"type": "uint256[9]"
						}
					],
					"name": "initialSaleInfor",
					"outputs": [],
					"stateMutability": "nonpayable",
					"type": "function"
				},
				{
					"inputs": [],
					"name": "presaleStatus",
					"outputs": [
						{
							"internalType": "uint256",
							"name": "totalBaseCollected",
							"type": "uint256"
						},
						{
							"internalType": "uint256",
							"name": "totalTokenSold",
							"type": "uint256"
						},
						{
							"internalType": "uint256",
							"name": "totalTokenWithDraw",
							"type": "uint256"
						},
						{
							"internalType": "uint256",
							"name": "totalBaseWithDraw",
							"type": "uint256"
						},
						{
							"internalType": "uint256",
							"name": "numByer",
							"type": "uint256"
						},
						{
							"internalType": "uint256",
							"name": "totalFee",
							"type": "uint256"
						}
					],
					"stateMutability": "view",
					"type": "function"
				},
				{
					"inputs": [],
					"name": "saleInfor",
					"outputs": [
						{
							"internalType": "address payable",
							"name": "presaleOwner",
							"type": "address"
						},
						{
							"internalType": "contract IERC20",
							"name": "saleToken",
							"type": "address"
						},
						{
							"internalType": "contract IERC20",
							"name": "baseToken",
							"type": "address"
						},
						{
							"internalType": "uint256",
							"name": "tokenPrice",
							"type": "uint256"
						},
						{
							"internalType": "uint256",
							"name": "startSale",
							"type": "uint256"
						},
						{
							"internalType": "uint256",
							"name": "endSale",
							"type": "uint256"
						},
						{
							"internalType": "uint256",
							"name": "valueSwapERC20",
							"type": "uint256"
						},
						{
							"internalType": "uint256",
							"name": "feeTransaction",
							"type": "uint256"
						},
						{
							"internalType": "uint256",
							"name": "minSpendPerBuyer",
							"type": "uint256"
						},
						{
							"internalType": "uint256",
							"name": "maxSpendPerBuyer",
							"type": "uint256"
						},
						{
							"internalType": "uint256",
							"name": "refundFee",
							"type": "uint256"
						},
						{
							"internalType": "uint256",
							"name": "claimFee",
							"type": "uint256"
						}
					],
					"stateMutability": "view",
					"type": "function"
				},
				{
					"inputs": [],
					"name": "status",
					"outputs": [
						{
							"internalType": "uint256",
							"name": "",
							"type": "uint256"
						}
					],
					"stateMutability": "view",
					"type": "function"
				},
				{
					"inputs": [
						{
							"internalType": "uint256",
							"name": "amount",
							"type": "uint256"
						}
					],
					"name": "transferETH",
					"outputs": [],
					"stateMutability": "payable",
					"type": "function"
				},
				{
					"inputs": [
						{
							"internalType": "address",
							"name": "",
							"type": "address"
						}
					],
					"name": "userFee",
					"outputs": [
						{
							"internalType": "uint256",
							"name": "",
							"type": "uint256"
						}
					],
					"stateMutability": "view",
					"type": "function"
				}
			],
			"devdoc": {
				"kind": "dev",
				"methods": {},
				"version": 1
			},
			"evm": {
				"assembly": "    /* \"Ethereum/Presale.sol\":232:3249  contract Presale is ReentrancyGuard{\r... */\n  mstore(0x40, 0x80)\n    /* \"Ethereum/Presale.sol\":2487:2593  constructor() {\r... */\n  callvalue\n  dup1\n  iszero\n  tag_1\n  jumpi\n  0x00\n  dup1\n  revert\ntag_1:\n  pop\n    /* \"Utils/ReentrancyGuard.sol\":1734:1735  1 */\n  0x01\n    /* \"Utils/ReentrancyGuard.sol\":1845:1852  _status */\n  0x00\n    /* \"Utils/ReentrancyGuard.sol\":1845:1867  _status = _NOT_ENTERED */\n  sstore\n    /* \"Ethereum/Presale.sol\":2512:2524  PRESALE_INFO */\n  0x15\n    /* \"Ethereum/Presale.sol\":2512:2585  PRESALE_INFO.B_TOKEN = IERC20(0xc778417E063141139Fce010982780140Aa0cD5Ab) */\n  dup1\n  sload\n  not(sub(shl(0xa0, 0x01), 0x01))\n  and\n    /* \"Ethereum/Presale.sol\":2542:2584  0xc778417E063141139Fce010982780140Aa0cD5Ab */\n  0xc778417e063141139fce010982780140aa0cd5ab\n    /* \"Ethereum/Presale.sol\":2512:2585  PRESALE_INFO.B_TOKEN = IERC20(0xc778417E063141139Fce010982780140Aa0cD5Ab) */\n  or\n  swap1\n  sstore\n    /* \"Ethereum/Presale.sol\":232:3249  contract Presale is ReentrancyGuard{\r... */\n  dataSize(sub_0)\n  dup1\n  dataOffset(sub_0)\n  0x00\n  codecopy\n  0x00\n  return\nstop\n\nsub_0: assembly {\n        /* \"Ethereum/Presale.sol\":232:3249  contract Presale is ReentrancyGuard{\r... */\n      mstore(0x40, 0x80)\n      jumpi(tag_1, lt(calldatasize, 0x04))\n      shr(0xe0, calldataload(0x00))\n      dup1\n      0x79647833\n      gt\n      tag_13\n      jumpi\n      dup1\n      0x79647833\n      eq\n      tag_7\n      jumpi\n      dup1\n      0x861faf5f\n      eq\n      tag_8\n      jumpi\n      dup1\n      0x8f1eae4c\n      eq\n      tag_9\n      jumpi\n      dup1\n      0xacfb2355\n      eq\n      tag_10\n      jumpi\n      dup1\n      0xe2d3f423\n      eq\n      tag_11\n      jumpi\n      dup1\n      0xf8b2cb4f\n      eq\n      tag_12\n      jumpi\n      0x00\n      dup1\n      revert\n    tag_13:\n      dup1\n      0x18856a2f\n      eq\n      tag_2\n      jumpi\n      dup1\n      0x200d2ed2\n      eq\n      tag_3\n      jumpi\n      dup1\n      0x3f74aa38\n      eq\n      tag_4\n      jumpi\n      dup1\n      0x4329db46\n      eq\n      tag_5\n      jumpi\n      dup1\n      0x56c5f349\n      eq\n      tag_6\n      jumpi\n    tag_1:\n      0x00\n      dup1\n      revert\n        /* \"Ethereum/Presale.sol\":1261:1287  SaleInfor public saleInfor */\n    tag_2:\n      callvalue\n      dup1\n      iszero\n      tag_14\n      jumpi\n      0x00\n      dup1\n      revert\n    tag_14:\n      pop\n      sload(0x09)\n      sload(0x0a)\n      sload(0x0b)\n      sload(0x0c)\n      sload(0x0d)\n      sload(0x0e)\n      sload(0x0f)\n      sload(0x10)\n      sload(0x11)\n      sload(0x12)\n      sload(0x13)\n      sload(0x14)\n      tag_15\n      swap12\n      sub(shl(0xa0, 0x01), 0x01)\n      swap1\n      dup2\n      and\n      swap12\n      dup2\n      and\n      swap11\n      and\n      swap9\n      swap8\n      swap7\n      swap6\n      swap5\n      swap4\n      swap3\n      swap2\n      swap1\n      dup13\n      jump\n    tag_15:\n      0x40\n      dup1\n      mload\n      sub(shl(0xa0, 0x01), 0x01)\n        /* \"#utility.yul\":3064:3079   */\n      swap14\n      dup15\n      and\n        /* \"#utility.yul\":3046:3080   */\n      dup2\n      mstore\n        /* \"#utility.yul\":3116:3131   */\n      swap12\n      dup14\n      and\n        /* \"#utility.yul\":3111:3113   */\n      0x20\n        /* \"#utility.yul\":3096:3114   */\n      dup14\n      add\n        /* \"#utility.yul\":3089:3132   */\n      mstore\n        /* \"#utility.yul\":3168:3183   */\n      swap10\n      swap1\n      swap12\n      and\n        /* \"#utility.yul\":3148:3166   */\n      swap9\n      dup11\n      add\n        /* \"#utility.yul\":3141:3184   */\n      swap9\n      swap1\n      swap9\n      mstore\n        /* \"#utility.yul\":3215:3217   */\n      0x60\n        /* \"#utility.yul\":3200:3218   */\n      dup10\n      add\n        /* \"#utility.yul\":3193:3227   */\n      swap7\n      swap1\n      swap7\n      mstore\n        /* \"#utility.yul\":3258:3261   */\n      0x80\n        /* \"#utility.yul\":3243:3262   */\n      dup9\n      add\n        /* \"#utility.yul\":3236:3271   */\n      swap5\n      swap1\n      swap5\n      mstore\n        /* \"#utility.yul\":3026:3029   */\n      0xa0\n        /* \"#utility.yul\":3287:3306   */\n      dup8\n      add\n        /* \"#utility.yul\":3280:3315   */\n      swap3\n      swap1\n      swap3\n      mstore\n        /* \"#utility.yul\":3346:3349   */\n      0xc0\n        /* \"#utility.yul\":3331:3350   */\n      dup7\n      add\n        /* \"#utility.yul\":3324:3359   */\n      mstore\n        /* \"#utility.yul\":3390:3393   */\n      0xe0\n        /* \"#utility.yul\":3375:3394   */\n      dup6\n      add\n        /* \"#utility.yul\":3368:3403   */\n      mstore\n        /* \"#utility.yul\":3434:3437   */\n      0x0100\n        /* \"#utility.yul\":3419:3438   */\n      dup5\n      add\n        /* \"#utility.yul\":3412:3447   */\n      mstore\n        /* \"#utility.yul\":3478:3481   */\n      0x0120\n        /* \"#utility.yul\":3463:3482   */\n      dup4\n      add\n        /* \"#utility.yul\":3456:3491   */\n      mstore\n        /* \"#utility.yul\":3522:3525   */\n      0x0140\n        /* \"#utility.yul\":3507:3526   */\n      dup3\n      add\n        /* \"#utility.yul\":3500:3536   */\n      mstore\n        /* \"#utility.yul\":3567:3570   */\n      0x0160\n        /* \"#utility.yul\":3552:3571   */\n      dup2\n      add\n        /* \"#utility.yul\":3545:3581   */\n      swap2\n      swap1\n      swap2\n      mstore\n        /* \"#utility.yul\":2995:2998   */\n      0x0180\n        /* \"#utility.yul\":2980:2999   */\n      add\n        /* \"Ethereum/Presale.sol\":1261:1287  SaleInfor public saleInfor */\n    tag_17:\n      mload(0x40)\n      dup1\n      swap2\n      sub\n      swap1\n      return\n        /* \"Ethereum/Presale.sol\":2011:2350  function status() external view returns(uint256) {\r... */\n    tag_3:\n      callvalue\n      dup1\n      iszero\n      tag_19\n      jumpi\n      0x00\n      dup1\n      revert\n    tag_19:\n      pop\n      tag_20\n      tag_21\n      jump\t// in\n    tag_20:\n      mload(0x40)\n        /* \"#utility.yul\":5104:5129   */\n      swap1\n      dup2\n      mstore\n        /* \"#utility.yul\":5092:5094   */\n      0x20\n        /* \"#utility.yul\":5077:5095   */\n      add\n        /* \"Ethereum/Presale.sol\":2011:2350  function status() external view returns(uint256) {\r... */\n      tag_17\n        /* \"#utility.yul\":5059:5135   */\n      jump\n        /* \"Ethereum/Presale.sol\":2447:2478  PresaleInfo public PRESALE_INFO */\n    tag_4:\n      callvalue\n      dup1\n      iszero\n      tag_24\n      jumpi\n      0x00\n      dup1\n      revert\n    tag_24:\n      pop\n      sload(0x15)\n      tag_25\n      swap1\n      sub(shl(0xa0, 0x01), 0x01)\n      and\n      dup2\n      jump\n    tag_25:\n      mload(0x40)\n      sub(shl(0xa0, 0x01), 0x01)\n        /* \"#utility.yul\":4149:4181   */\n      swap1\n      swap2\n      and\n        /* \"#utility.yul\":4131:4182   */\n      dup2\n      mstore\n        /* \"#utility.yul\":4119:4121   */\n      0x20\n        /* \"#utility.yul\":4104:4122   */\n      add\n        /* \"Ethereum/Presale.sol\":2447:2478  PresaleInfo public PRESALE_INFO */\n      tag_17\n        /* \"#utility.yul\":4086:4188   */\n      jump\n        /* \"Ethereum/Presale.sol\":3123:3244  function transferETH(uint256 amount) external payable {\r... */\n    tag_5:\n      tag_29\n      tag_30\n      calldatasize\n      0x04\n      tag_31\n      jump\t// in\n    tag_30:\n      tag_32\n      jump\t// in\n    tag_29:\n      stop\n        /* \"Ethereum/Presale.sol\":1171:1213  mapping(address => uint256) public userFee */\n    tag_6:\n      callvalue\n      dup1\n      iszero\n      tag_33\n      jumpi\n      0x00\n      dup1\n      revert\n    tag_33:\n      pop\n      tag_20\n      tag_35\n      calldatasize\n      0x04\n      tag_36\n      jump\t// in\n    tag_35:\n      mstore(0x20, 0x02)\n      0x00\n      swap1\n      dup2\n      mstore\n      0x40\n      swap1\n      keccak256\n      sload\n      dup2\n      jump\n        /* \"Ethereum/Presale.sol\":2601:2877  function depodit(\r... */\n    tag_7:\n      tag_29\n      tag_40\n      calldatasize\n      0x04\n      tag_31\n      jump\t// in\n    tag_40:\n      tag_41\n      jump\t// in\n        /* \"Ethereum/Presale.sol\":3007:3115  function backToken() external payable {\r... */\n    tag_8:\n      tag_29\n      tag_43\n      jump\t// in\n        /* \"Ethereum/Presale.sol\":1296:2002  function initialSaleInfor(\r... */\n    tag_9:\n      callvalue\n      dup1\n      iszero\n      tag_44\n      jumpi\n      0x00\n      dup1\n      revert\n    tag_44:\n      pop\n      tag_29\n      tag_46\n      calldatasize\n      0x04\n      tag_47\n      jump\t// in\n    tag_46:\n        /* \"Ethereum/Presale.sol\":1479:1488  saleInfor */\n      0x09\n        /* \"Ethereum/Presale.sol\":1479:1517  saleInfor.presaleOwner = _presaleOwner */\n      dup1\n      sload\n      not(sub(shl(0xa0, 0x01), 0x01))\n      swap1\n      dup2\n      and\n      sub(shl(0xa0, 0x01), 0x01)\n      swap7\n      dup8\n      and\n      or\n      swap1\n      swap2\n      sstore\n        /* \"Ethereum/Presale.sol\":1528:1547  saleInfor.saleToken */\n      0x0a\n        /* \"Ethereum/Presale.sol\":1528:1560  saleInfor.saleToken = _saleToken */\n      dup1\n      sload\n      dup3\n      and\n      swap5\n      dup7\n      and\n      swap5\n      swap1\n      swap5\n      or\n      swap1\n      swap4\n      sstore\n        /* \"Ethereum/Presale.sol\":1571:1590  saleInfor.baseToken */\n      0x0b\n        /* \"Ethereum/Presale.sol\":1571:1603  saleInfor.baseToken = _baseTOken */\n      dup1\n      sload\n      swap1\n      swap4\n      and\n      swap2\n      swap1\n      swap4\n      and\n      or\n      swap1\n      sstore\n        /* \"Ethereum/Presale.sol\":1637:1645  datas[0] */\n      dup1\n      mload\n        /* \"Ethereum/Presale.sol\":1614:1634  saleInfor.tokenPrice */\n      0x0c\n        /* \"Ethereum/Presale.sol\":1614:1645  saleInfor.tokenPrice = datas[0] */\n      sstore\n        /* \"Ethereum/Presale.sol\":1637:1645  datas[0] */\n      0x20\n        /* \"Ethereum/Presale.sol\":1678:1686  datas[1] */\n      dup2\n      add\n      mload\n        /* \"Ethereum/Presale.sol\":1656:1675  saleInfor.startSale */\n      0x0d\n        /* \"Ethereum/Presale.sol\":1656:1686  saleInfor.startSale = datas[1] */\n      sstore\n        /* \"Ethereum/Presale.sol\":1717:1725  datas[2] */\n      0x40\n      dup2\n      add\n      mload\n        /* \"Ethereum/Presale.sol\":1697:1714  saleInfor.endSale */\n      0x0e\n        /* \"Ethereum/Presale.sol\":1697:1725  saleInfor.endSale = datas[2] */\n      sstore\n        /* \"Ethereum/Presale.sol\":1763:1771  datas[3] */\n      0x60\n      dup2\n      add\n      mload\n        /* \"Ethereum/Presale.sol\":1736:1760  saleInfor.valueSwapERC20 */\n      0x0f\n        /* \"Ethereum/Presale.sol\":1736:1771  saleInfor.valueSwapERC20 = datas[3] */\n      sstore\n        /* \"Ethereum/Presale.sol\":1809:1817  datas[4] */\n      0x80\n      dup2\n      add\n      mload\n        /* \"Ethereum/Presale.sol\":1782:1806  saleInfor.feeTransaction */\n      0x10\n        /* \"Ethereum/Presale.sol\":1782:1817  saleInfor.feeTransaction = datas[4] */\n      sstore\n        /* \"Ethereum/Presale.sol\":1857:1865  datas[5] */\n      0xa0\n      dup2\n      add\n      mload\n        /* \"Ethereum/Presale.sol\":1828:1854  saleInfor.minSpendPerBuyer */\n      0x11\n        /* \"Ethereum/Presale.sol\":1828:1865  saleInfor.minSpendPerBuyer = datas[5] */\n      sstore\n        /* \"Ethereum/Presale.sol\":1905:1913  datas[6] */\n      0xc0\n      dup2\n      add\n      mload\n        /* \"Ethereum/Presale.sol\":1876:1902  saleInfor.maxSpendPerBuyer */\n      0x12\n        /* \"Ethereum/Presale.sol\":1876:1913  saleInfor.maxSpendPerBuyer = datas[6] */\n      sstore\n        /* \"Ethereum/Presale.sol\":1946:1954  datas[7] */\n      0xe0\n      dup2\n      add\n      mload\n        /* \"Ethereum/Presale.sol\":1924:1943  saleInfor.refundFee */\n      0x13\n        /* \"Ethereum/Presale.sol\":1924:1954  saleInfor.refundFee = datas[7] */\n      sstore\n        /* \"Ethereum/Presale.sol\":1986:1994  datas[8] */\n      0x0100\n      add\n      mload\n        /* \"Ethereum/Presale.sol\":1965:1983  saleInfor.claimFee */\n      0x14\n        /* \"Ethereum/Presale.sol\":1965:1994  saleInfor.claimFee = datas[8] */\n      sstore\n        /* \"Ethereum/Presale.sol\":1296:2002  function initialSaleInfor(\r... */\n      jump\n        /* \"Ethereum/Presale.sol\":1220:1254  PresaleStatus public presaleStatus */\n    tag_10:\n      callvalue\n      dup1\n      iszero\n      tag_49\n      jumpi\n      0x00\n      dup1\n      revert\n    tag_49:\n      pop\n      sload(0x03)\n      sload(0x04)\n      sload(0x05)\n      sload(0x06)\n      sload(0x07)\n      sload(0x08)\n      tag_50\n      swap6\n      swap5\n      swap4\n      swap3\n      swap2\n      swap1\n      dup7\n      jump\n    tag_50:\n      0x40\n      dup1\n      mload\n        /* \"#utility.yul\":5987:6012   */\n      swap7\n      dup8\n      mstore\n        /* \"#utility.yul\":6043:6045   */\n      0x20\n        /* \"#utility.yul\":6028:6046   */\n      dup8\n      add\n        /* \"#utility.yul\":6021:6055   */\n      swap6\n      swap1\n      swap6\n      mstore\n        /* \"#utility.yul\":6071:6089   */\n      swap4\n      dup6\n      add\n        /* \"#utility.yul\":6064:6098   */\n      swap3\n      swap1\n      swap3\n      mstore\n        /* \"#utility.yul\":6129:6131   */\n      0x60\n        /* \"#utility.yul\":6114:6132   */\n      dup5\n      add\n        /* \"#utility.yul\":6107:6141   */\n      mstore\n        /* \"#utility.yul\":6172:6175   */\n      0x80\n        /* \"#utility.yul\":6157:6176   */\n      dup4\n      add\n        /* \"#utility.yul\":6150:6185   */\n      mstore\n        /* \"#utility.yul\":6216:6219   */\n      0xa0\n        /* \"#utility.yul\":6201:6220   */\n      dup3\n      add\n        /* \"#utility.yul\":6194:6229   */\n      mstore\n        /* \"#utility.yul\":5974:5977   */\n      0xc0\n        /* \"#utility.yul\":5959:5978   */\n      add\n        /* \"Ethereum/Presale.sol\":1220:1254  PresaleStatus public presaleStatus */\n      tag_17\n        /* \"#utility.yul\":5941:6235   */\n      jump\n        /* \"Ethereum/Presale.sol\":1118:1164  mapping(address => BuyerInfo) public buyerInfo */\n    tag_11:\n      callvalue\n      dup1\n      iszero\n      tag_54\n      jumpi\n      0x00\n      dup1\n      revert\n    tag_54:\n      pop\n      tag_55\n      tag_56\n      calldatasize\n      0x04\n      tag_36\n      jump\t// in\n    tag_56:\n      0x01\n      0x20\n      dup2\n      swap1\n      mstore\n      0x00\n      swap2\n      dup3\n      mstore\n      0x40\n      swap1\n      swap2\n      keccak256\n      dup1\n      sload\n      swap2\n      dup2\n      add\n      sload\n      0x02\n      dup3\n      add\n      sload\n      0x03\n      dup4\n      add\n      sload\n      0x04\n      swap1\n      swap4\n      add\n      sload\n      swap2\n      swap3\n      swap1\n      swap2\n      0xff\n      dup1\n      dup3\n      and\n      swap2\n      0x0100\n      swap1\n      div\n      and\n      dup7\n      jump\n    tag_55:\n      0x40\n      dup1\n      mload\n        /* \"#utility.yul\":5415:5440   */\n      swap7\n      dup8\n      mstore\n        /* \"#utility.yul\":5471:5473   */\n      0x20\n        /* \"#utility.yul\":5456:5474   */\n      dup8\n      add\n        /* \"#utility.yul\":5449:5483   */\n      swap6\n      swap1\n      swap6\n      mstore\n        /* \"#utility.yul\":5499:5517   */\n      swap4\n      dup6\n      add\n        /* \"#utility.yul\":5492:5526   */\n      swap3\n      swap1\n      swap3\n      mstore\n        /* \"#utility.yul\":5557:5559   */\n      0x60\n        /* \"#utility.yul\":5542:5560   */\n      dup5\n      add\n        /* \"#utility.yul\":5535:5569   */\n      mstore\n        /* \"#utility.yul\":5613:5627   */\n      iszero\n        /* \"#utility.yul\":5606:5628   */\n      iszero\n        /* \"#utility.yul\":5600:5603   */\n      0x80\n        /* \"#utility.yul\":5585:5604   */\n      dup4\n      add\n        /* \"#utility.yul\":5578:5629   */\n      mstore\n        /* \"#utility.yul\":5673:5687   */\n      iszero\n        /* \"#utility.yul\":5666:5688   */\n      iszero\n        /* \"#utility.yul\":5660:5663   */\n      0xa0\n        /* \"#utility.yul\":5645:5664   */\n      dup3\n      add\n        /* \"#utility.yul\":5638:5689   */\n      mstore\n        /* \"#utility.yul\":5402:5405   */\n      0xc0\n        /* \"#utility.yul\":5387:5406   */\n      add\n        /* \"Ethereum/Presale.sol\":1118:1164  mapping(address => BuyerInfo) public buyerInfo */\n      tag_17\n        /* \"#utility.yul\":5369:5695   */\n      jump\n        /* \"Ethereum/Presale.sol\":2885:2996  function getBalance(address _address) external view returns(uint256) {\r... */\n    tag_12:\n      callvalue\n      dup1\n      iszero\n      tag_60\n      jumpi\n      0x00\n      dup1\n      revert\n    tag_60:\n      pop\n      tag_20\n      tag_62\n      calldatasize\n      0x04\n      tag_36\n      jump\t// in\n    tag_62:\n      sub(shl(0xa0, 0x01), 0x01)\n        /* \"Ethereum/Presale.sol\":2972:2988  _address.balance */\n      and\n      balance\n      swap1\n        /* \"Ethereum/Presale.sol\":2885:2996  function getBalance(address _address) external view returns(uint256) {\r... */\n      jump\n        /* \"Ethereum/Presale.sol\":2011:2350  function status() external view returns(uint256) {\r... */\n    tag_21:\n        /* \"Ethereum/Presale.sol\":2092:2111  saleInfor.startSale */\n      sload(0x0d)\n        /* \"Ethereum/Presale.sol\":2051:2058  uint256 */\n      0x00\n      swap1\n        /* \"Ethereum/Presale.sol\":2074:2089  block.timestamp */\n      timestamp\n        /* \"Ethereum/Presale.sol\":2074:2111  block.timestamp < saleInfor.startSale */\n      lt\n        /* \"Ethereum/Presale.sol\":2071:2343  if(block.timestamp < saleInfor.startSale) {\r... */\n      iszero\n      tag_66\n      jumpi\n      pop\n        /* \"Ethereum/Presale.sol\":2135:2136  0 */\n      0x00\n      swap1\n        /* \"Ethereum/Presale.sol\":2011:2350  function status() external view returns(uint256) {\r... */\n      jump\t// out\n        /* \"Ethereum/Presale.sol\":2071:2343  if(block.timestamp < saleInfor.startSale) {\r... */\n    tag_66:\n        /* \"Ethereum/Presale.sol\":2202:2219  saleInfor.endSale */\n      sload(0x0e)\n        /* \"Ethereum/Presale.sol\":2184:2199  block.timestamp */\n      timestamp\n        /* \"Ethereum/Presale.sol\":2184:2219  block.timestamp > saleInfor.endSale */\n      gt\n        /* \"Ethereum/Presale.sol\":2181:2332  if(block.timestamp > saleInfor.endSale) {\r... */\n      iszero\n      tag_68\n      jumpi\n      pop\n        /* \"Ethereum/Presale.sol\":2247:2248  2 */\n      0x02\n      swap1\n        /* \"Ethereum/Presale.sol\":2011:2350  function status() external view returns(uint256) {\r... */\n      jump\t// out\n        /* \"Ethereum/Presale.sol\":2181:2332  if(block.timestamp > saleInfor.endSale) {\r... */\n    tag_68:\n      pop\n        /* \"Ethereum/Presale.sol\":2305:2306  1 */\n      0x01\n      swap1\n        /* \"Ethereum/Presale.sol\":2011:2350  function status() external view returns(uint256) {\r... */\n      jump\t// out\n        /* \"Ethereum/Presale.sol\":3123:3244  function transferETH(uint256 amount) external payable {\r... */\n    tag_32:\n        /* \"Ethereum/Presale.sol\":3196:3206  msg.sender */\n      caller\n        /* \"Ethereum/Presale.sol\":3188:3236  payable(msg.sender).transfer(msg.value - amount) */\n      0x08fc\n        /* \"Ethereum/Presale.sol\":3217:3235  msg.value - amount */\n      tag_71\n        /* \"Ethereum/Presale.sol\":3229:3235  amount */\n      dup4\n        /* \"Ethereum/Presale.sol\":3217:3226  msg.value */\n      callvalue\n        /* \"Ethereum/Presale.sol\":3217:3235  msg.value - amount */\n      tag_72\n      jump\t// in\n    tag_71:\n        /* \"Ethereum/Presale.sol\":3188:3236  payable(msg.sender).transfer(msg.value - amount) */\n      mload(0x40)\n      dup2\n      iszero\n      swap1\n      swap3\n      mul\n      swap2\n      0x00\n      dup2\n      dup2\n      dup2\n      dup6\n      dup9\n      dup9\n      call\n      swap4\n      pop\n      pop\n      pop\n      pop\n      iszero\n      dup1\n      iszero\n      tag_74\n      jumpi\n      returndatasize\n      0x00\n      dup1\n      returndatacopy\n      revert(0x00, returndatasize)\n    tag_74:\n      pop\n        /* \"Ethereum/Presale.sol\":3123:3244  function transferETH(uint256 amount) external payable {\r... */\n      pop\n      jump\t// out\n        /* \"Ethereum/Presale.sol\":2601:2877  function depodit(\r... */\n    tag_41:\n        /* \"Utils/ReentrancyGuard.sol\":1778:1779  2 */\n      0x02\n        /* \"Utils/ReentrancyGuard.sol\":2376:2383  _status */\n      sload(0x00)\n        /* \"Utils/ReentrancyGuard.sol\":2376:2395  _status != _ENTERED */\n      eq\n      iszero\n        /* \"Utils/ReentrancyGuard.sol\":2368:2431  require(_status != _ENTERED, \"ReentrancyGuard: reentrant call\") */\n      tag_76\n      jumpi\n      mload(0x40)\n      shl(0xe5, 0x461bcd)\n      dup2\n      mstore\n        /* \"#utility.yul\":4800:4802   */\n      0x20\n        /* \"Utils/ReentrancyGuard.sol\":2368:2431  require(_status != _ENTERED, \"ReentrancyGuard: reentrant call\") */\n      0x04\n      dup3\n      add\n        /* \"#utility.yul\":4782:4803   */\n      mstore\n        /* \"#utility.yul\":4839:4841   */\n      0x1f\n        /* \"#utility.yul\":4819:4837   */\n      0x24\n      dup3\n      add\n        /* \"#utility.yul\":4812:4842   */\n      mstore\n        /* \"#utility.yul\":4878:4911   */\n      0x5265656e7472616e637947756172643a207265656e7472616e742063616c6c00\n        /* \"#utility.yul\":4858:4876   */\n      0x44\n      dup3\n      add\n        /* \"#utility.yul\":4851:4912   */\n      mstore\n        /* \"#utility.yul\":4929:4947   */\n      0x64\n      add\n        /* \"Utils/ReentrancyGuard.sol\":2368:2431  require(_status != _ENTERED, \"ReentrancyGuard: reentrant call\") */\n    tag_77:\n      mload(0x40)\n      dup1\n      swap2\n      sub\n      swap1\n      revert\n    tag_76:\n        /* \"Utils/ReentrancyGuard.sol\":1778:1779  2 */\n      0x02\n        /* \"Utils/ReentrancyGuard.sol\":2509:2516  _status */\n      0x00\n        /* \"Utils/ReentrancyGuard.sol\":2509:2527  _status = _ENTERED */\n      sstore\n        /* \"Ethereum/Presale.sol\":2748:2760  PRESALE_INFO */\n      0x15\n        /* \"Ethereum/Presale.sol\":2748:2768  PRESALE_INFO.B_TOKEN */\n      sload\n        /* \"Ethereum/Presale.sol\":2690:2869  TransferHelper.safeTransferFrom(\r... */\n      tag_80\n      swap1\n      sub(shl(0xa0, 0x01), 0x01)\n        /* \"Ethereum/Presale.sol\":2748:2768  PRESALE_INFO.B_TOKEN */\n      and\n        /* \"Ethereum/Presale.sol\":2788:2798  msg.sender */\n      caller\n        /* \"Ethereum/Presale.sol\":2825:2829  this */\n      address\n        /* \"Ethereum/Presale.sol\":2849:2854  value */\n      dup5\n        /* \"Ethereum/Presale.sol\":2690:2721  TransferHelper.safeTransferFrom */\n      tag_81\n        /* \"Ethereum/Presale.sol\":2690:2869  TransferHelper.safeTransferFrom(\r... */\n      jump\t// in\n    tag_80:\n      pop\n        /* \"Utils/ReentrancyGuard.sol\":1734:1735  1 */\n      0x01\n        /* \"Utils/ReentrancyGuard.sol\":2688:2695  _status */\n      0x00\n        /* \"Utils/ReentrancyGuard.sol\":2688:2710  _status = _NOT_ENTERED */\n      sstore\n        /* \"Ethereum/Presale.sol\":2601:2877  function depodit(\r... */\n      jump\t// out\n        /* \"Ethereum/Presale.sol\":3007:3115  function backToken() external payable {\r... */\n    tag_43:\n        /* \"Ethereum/Presale.sol\":3056:3107  payable(msg.sender).transfer(address(this).balance) */\n      mload(0x40)\n        /* \"Ethereum/Presale.sol\":3064:3074  msg.sender */\n      caller\n      swap1\n        /* \"Ethereum/Presale.sol\":3085:3106  address(this).balance */\n      selfbalance\n        /* \"Ethereum/Presale.sol\":3056:3107  payable(msg.sender).transfer(address(this).balance) */\n      dup1\n      iszero\n      0x08fc\n      mul\n      swap2\n      0x00\n      dup2\n      dup2\n      dup2\n        /* \"Ethereum/Presale.sol\":3085:3106  address(this).balance */\n      dup6\n        /* \"Ethereum/Presale.sol\":3064:3074  msg.sender */\n      dup9\n        /* \"Ethereum/Presale.sol\":3056:3107  payable(msg.sender).transfer(address(this).balance) */\n      dup9\n      call\n      swap4\n      pop\n      pop\n      pop\n      pop\n      iszero\n      dup1\n      iszero\n      tag_84\n      jumpi\n      returndatasize\n      0x00\n      dup1\n      returndatacopy\n      revert(0x00, returndatasize)\n    tag_84:\n      pop\n        /* \"Ethereum/Presale.sol\":3007:3115  function backToken() external payable {\r... */\n      jump\t// out\n        /* \"Utils/TransferHelper.sol\":1112:1542  function safeTransferFrom(\r... */\n    tag_81:\n        /* \"Utils/TransferHelper.sol\":1318:1369  abi.encodeWithSelector(0x23b872dd, from, to, value) */\n      0x40\n      dup1\n      mload\n      sub(shl(0xa0, 0x01), 0x01)\n        /* \"#utility.yul\":3850:3865   */\n      dup6\n      dup2\n      and\n        /* \"Utils/TransferHelper.sol\":1318:1369  abi.encodeWithSelector(0x23b872dd, from, to, value) */\n      0x24\n      dup4\n      add\n        /* \"#utility.yul\":3832:3866   */\n      mstore\n        /* \"#utility.yul\":3902:3917   */\n      dup5\n      dup2\n      and\n        /* \"#utility.yul\":3882:3900   */\n      0x44\n      dup4\n      add\n        /* \"#utility.yul\":3875:3918   */\n      mstore\n        /* \"#utility.yul\":3934:3952   */\n      0x64\n      dup1\n      dup4\n      add\n        /* \"#utility.yul\":3927:3961   */\n      dup6\n      swap1\n      mstore\n        /* \"Utils/TransferHelper.sol\":1318:1369  abi.encodeWithSelector(0x23b872dd, from, to, value) */\n      dup4\n      mload\n      dup1\n      dup5\n      sub\n      swap1\n      swap2\n      add\n      dup2\n      mstore\n        /* \"#utility.yul\":3767:3785   */\n      0x84\n      swap1\n      swap3\n      add\n        /* \"Utils/TransferHelper.sol\":1318:1369  abi.encodeWithSelector(0x23b872dd, from, to, value) */\n      dup4\n      mstore\n      0x20\n      dup3\n      add\n      dup1\n      mload\n      sub(shl(0xe0, 0x01), 0x01)\n      and\n      shl(0xe0, 0x23b872dd)\n      or\n      swap1\n      mstore\n        /* \"Utils/TransferHelper.sol\":1293:1380  token.call(\r... */\n      swap2\n      mload\n      0x00\n      swap3\n      dup4\n      swap3\n        /* \"Utils/TransferHelper.sol\":1293:1303  token.call */\n      swap1\n      dup9\n      and\n      swap2\n        /* \"Utils/TransferHelper.sol\":1293:1380  token.call(\r... */\n      tag_99\n      swap2\n        /* \"Utils/TransferHelper.sol\":1318:1369  abi.encodeWithSelector(0x23b872dd, from, to, value) */\n      swap1\n        /* \"Utils/TransferHelper.sol\":1293:1380  token.call(\r... */\n      tag_100\n      jump\t// in\n    tag_99:\n      0x00\n      mload(0x40)\n      dup1\n      dup4\n      sub\n      dup2\n      0x00\n      dup7\n      gas\n      call\n      swap2\n      pop\n      pop\n      returndatasize\n      dup1\n      0x00\n      dup2\n      eq\n      tag_103\n      jumpi\n      mload(0x40)\n      swap2\n      pop\n      and(add(returndatasize, 0x3f), not(0x1f))\n      dup3\n      add\n      0x40\n      mstore\n      returndatasize\n      dup3\n      mstore\n      returndatasize\n      0x00\n      0x20\n      dup5\n      add\n      returndatacopy\n      jump(tag_102)\n    tag_103:\n      0x60\n      swap2\n      pop\n    tag_102:\n      pop\n        /* \"Utils/TransferHelper.sol\":1257:1380  (bool success, bytes memory data) = token.call(\r... */\n      swap2\n      pop\n      swap2\n      pop\n        /* \"Utils/TransferHelper.sol\":1413:1420  success */\n      dup2\n        /* \"Utils/TransferHelper.sol\":1413:1470  success && (data.length == 0 || abi.decode(data, (bool))) */\n      dup1\n      iszero\n      tag_106\n      jumpi\n      pop\n        /* \"Utils/TransferHelper.sol\":1425:1436  data.length */\n      dup1\n      mload\n        /* \"Utils/TransferHelper.sol\":1425:1441  data.length == 0 */\n      iszero\n      dup1\n        /* \"Utils/TransferHelper.sol\":1425:1469  data.length == 0 || abi.decode(data, (bool)) */\n      tag_106\n      jumpi\n      pop\n        /* \"Utils/TransferHelper.sol\":1456:1460  data */\n      dup1\n        /* \"Utils/TransferHelper.sol\":1445:1469  abi.decode(data, (bool)) */\n      dup1\n      0x20\n      add\n      swap1\n      mload\n      dup2\n      add\n      swap1\n      tag_106\n      swap2\n      swap1\n      tag_107\n      jump\t// in\n    tag_106:\n        /* \"Utils/TransferHelper.sol\":1391:1534  require(\r... */\n      tag_108\n      jumpi\n      mload(0x40)\n      shl(0xe5, 0x461bcd)\n      dup2\n      mstore\n        /* \"#utility.yul\":4395:4397   */\n      0x20\n        /* \"Utils/TransferHelper.sol\":1391:1534  require(\r... */\n      0x04\n      dup3\n      add\n        /* \"#utility.yul\":4377:4398   */\n      mstore\n        /* \"#utility.yul\":4434:4436   */\n      0x24\n        /* \"#utility.yul\":4414:4432   */\n      dup1\n      dup3\n      add\n        /* \"#utility.yul\":4407:4437   */\n      mstore\n        /* \"#utility.yul\":4473:4507   */\n      0x5472616e7366657248656c7065723a205452414e534645525f46524f4d5f4641\n        /* \"#utility.yul\":4453:4471   */\n      0x44\n      dup3\n      add\n        /* \"#utility.yul\":4446:4508   */\n      mstore\n      shl(0xe2, 0x12531151)\n        /* \"#utility.yul\":4524:4542   */\n      0x64\n      dup3\n      add\n        /* \"#utility.yul\":4517:4551   */\n      mstore\n        /* \"#utility.yul\":4568:4587   */\n      0x84\n      add\n        /* \"Utils/TransferHelper.sol\":1391:1534  require(\r... */\n      tag_77\n        /* \"#utility.yul\":4367:4593   */\n      jump\n        /* \"Utils/TransferHelper.sol\":1391:1534  require(\r... */\n    tag_108:\n        /* \"Utils/TransferHelper.sol\":1112:1542  function safeTransferFrom(\r... */\n      pop\n      pop\n      pop\n      pop\n      pop\n      pop\n      jump\t// out\n        /* \"#utility.yul\":14:271   */\n    tag_36:\n        /* \"#utility.yul\":73:79   */\n      0x00\n        /* \"#utility.yul\":126:128   */\n      0x20\n        /* \"#utility.yul\":114:123   */\n      dup3\n        /* \"#utility.yul\":105:112   */\n      dup5\n        /* \"#utility.yul\":101:124   */\n      sub\n        /* \"#utility.yul\":97:129   */\n      slt\n        /* \"#utility.yul\":94:96   */\n      iszero\n      tag_113\n      jumpi\n        /* \"#utility.yul\":147:153   */\n      dup1\n        /* \"#utility.yul\":139:145   */\n      dup2\n        /* \"#utility.yul\":132:154   */\n      revert\n        /* \"#utility.yul\":94:96   */\n    tag_113:\n        /* \"#utility.yul\":191:200   */\n      dup2\n        /* \"#utility.yul\":178:201   */\n      calldataload\n        /* \"#utility.yul\":210:241   */\n      tag_114\n        /* \"#utility.yul\":235:240   */\n      dup2\n        /* \"#utility.yul\":210:241   */\n      tag_115\n      jump\t// in\n    tag_114:\n        /* \"#utility.yul\":260:265   */\n      swap4\n        /* \"#utility.yul\":84:271   */\n      swap3\n      pop\n      pop\n      pop\n      jump\t// out\n        /* \"#utility.yul\":276:1572   */\n    tag_47:\n        /* \"#utility.yul\":419:425   */\n      0x00\n        /* \"#utility.yul\":427:433   */\n      dup1\n        /* \"#utility.yul\":435:441   */\n      0x00\n        /* \"#utility.yul\":443:449   */\n      dup1\n        /* \"#utility.yul\":474:477   */\n      0x0180\n        /* \"#utility.yul\":518:520   */\n      dup1\n        /* \"#utility.yul\":506:515   */\n      dup7\n        /* \"#utility.yul\":497:504   */\n      dup9\n        /* \"#utility.yul\":493:516   */\n      sub\n        /* \"#utility.yul\":489:521   */\n      slt\n        /* \"#utility.yul\":486:488   */\n      iszero\n      tag_117\n      jumpi\n        /* \"#utility.yul\":539:545   */\n      dup4\n        /* \"#utility.yul\":531:537   */\n      dup5\n        /* \"#utility.yul\":524:546   */\n      revert\n        /* \"#utility.yul\":486:488   */\n    tag_117:\n        /* \"#utility.yul\":583:592   */\n      dup6\n        /* \"#utility.yul\":570:593   */\n      calldataload\n        /* \"#utility.yul\":602:633   */\n      tag_118\n        /* \"#utility.yul\":627:632   */\n      dup2\n        /* \"#utility.yul\":602:633   */\n      tag_115\n      jump\t// in\n    tag_118:\n        /* \"#utility.yul\":652:657   */\n      swap5\n      pop\n        /* \"#utility.yul\":676:678   */\n      0x20\n        /* \"#utility.yul\":715:733   */\n      dup7\n      dup2\n      add\n        /* \"#utility.yul\":702:734   */\n      calldataload\n        /* \"#utility.yul\":743:776   */\n      tag_119\n        /* \"#utility.yul\":702:734   */\n      dup2\n        /* \"#utility.yul\":743:776   */\n      tag_115\n      jump\t// in\n    tag_119:\n        /* \"#utility.yul\":795:802   */\n      swap5\n      pop\n        /* \"#utility.yul\":854:856   */\n      0x40\n        /* \"#utility.yul\":839:857   */\n      dup8\n      add\n        /* \"#utility.yul\":826:858   */\n      calldataload\n        /* \"#utility.yul\":867:900   */\n      tag_120\n        /* \"#utility.yul\":826:858   */\n      dup2\n        /* \"#utility.yul\":867:900   */\n      tag_115\n      jump\t// in\n    tag_120:\n        /* \"#utility.yul\":919:926   */\n      swap4\n      pop\n        /* \"#utility.yul\":964:967   */\n      0x7f\n        /* \"#utility.yul\":949:968   */\n      dup8\n      add\n        /* \"#utility.yul\":945:978   */\n      dup9\n      sgt\n        /* \"#utility.yul\":935:937   */\n      tag_121\n      jumpi\n        /* \"#utility.yul\":997:1003   */\n      dup3\n        /* \"#utility.yul\":989:995   */\n      dup4\n        /* \"#utility.yul\":982:1004   */\n      revert\n        /* \"#utility.yul\":935:937   */\n    tag_121:\n        /* \"#utility.yul\":1035:1037   */\n      0x40\n        /* \"#utility.yul\":1029:1038   */\n      mload\n        /* \"#utility.yul\":1077:1080   */\n      0x0120\n        /* \"#utility.yul\":1069:1075   */\n      dup2\n        /* \"#utility.yul\":1065:1081   */\n      add\n        /* \"#utility.yul\":1147:1153   */\n      dup2\n        /* \"#utility.yul\":1135:1145   */\n      dup2\n        /* \"#utility.yul\":1132:1154   */\n      lt\n        /* \"#utility.yul\":1111:1129   */\n      0xffffffffffffffff\n        /* \"#utility.yul\":1099:1109   */\n      dup3\n        /* \"#utility.yul\":1096:1130   */\n      gt\n        /* \"#utility.yul\":1093:1155   */\n      or\n        /* \"#utility.yul\":1090:1092   */\n      iszero\n      tag_123\n      jumpi\n        /* \"#utility.yul\":1158:1176   */\n      tag_123\n      tag_124\n      jump\t// in\n    tag_123:\n        /* \"#utility.yul\":1194:1196   */\n      0x40\n        /* \"#utility.yul\":1187:1209   */\n      mstore\n        /* \"#utility.yul\":1229:1235   */\n      dup1\n        /* \"#utility.yul\":1270:1272   */\n      0x60\n        /* \"#utility.yul\":1255:1273   */\n      dup10\n      add\n        /* \"#utility.yul\":1288:1306   */\n      dup5\n      dup11\n      add\n        /* \"#utility.yul\":1285:1316   */\n      dup12\n      lt\n        /* \"#utility.yul\":1282:1284   */\n      iszero\n      tag_125\n      jumpi\n        /* \"#utility.yul\":1334:1340   */\n      dup6\n        /* \"#utility.yul\":1326:1332   */\n      dup7\n        /* \"#utility.yul\":1319:1341   */\n      revert\n        /* \"#utility.yul\":1282:1284   */\n    tag_125:\n        /* \"#utility.yul\":1361:1367   */\n      dup6\n        /* \"#utility.yul\":1352:1367   */\n      swap5\n      pop\n        /* \"#utility.yul\":1376:1541   */\n    tag_126:\n        /* \"#utility.yul\":1390:1394   */\n      0x09\n        /* \"#utility.yul\":1387:1388   */\n      dup6\n        /* \"#utility.yul\":1384:1395   */\n      lt\n        /* \"#utility.yul\":1376:1541   */\n      iszero\n      tag_128\n      jumpi\n        /* \"#utility.yul\":1449:1466   */\n      dup1\n      calldataload\n        /* \"#utility.yul\":1437:1467   */\n      dup3\n      mstore\n        /* \"#utility.yul\":1410:1411   */\n      0x01\n        /* \"#utility.yul\":1403:1412   */\n      swap5\n      swap1\n      swap5\n      add\n      swap4\n        /* \"#utility.yul\":1487:1499   */\n      swap1\n      dup4\n      add\n      swap1\n        /* \"#utility.yul\":1519:1531   */\n      dup4\n      add\n        /* \"#utility.yul\":1376:1541   */\n      jump(tag_126)\n    tag_128:\n        /* \"#utility.yul\":1380:1383   */\n      pop\n      pop\n        /* \"#utility.yul\":1560:1566   */\n      dup1\n        /* \"#utility.yul\":1550:1566   */\n      swap4\n      pop\n      pop\n      pop\n      pop\n        /* \"#utility.yul\":454:1572   */\n      swap3\n      swap6\n      swap2\n      swap5\n      pop\n      swap3\n      pop\n      jump\t// out\n        /* \"#utility.yul\":1577:1874   */\n    tag_107:\n        /* \"#utility.yul\":1644:1650   */\n      0x00\n        /* \"#utility.yul\":1697:1699   */\n      0x20\n        /* \"#utility.yul\":1685:1694   */\n      dup3\n        /* \"#utility.yul\":1676:1683   */\n      dup5\n        /* \"#utility.yul\":1672:1695   */\n      sub\n        /* \"#utility.yul\":1668:1700   */\n      slt\n        /* \"#utility.yul\":1665:1667   */\n      iszero\n      tag_130\n      jumpi\n        /* \"#utility.yul\":1718:1724   */\n      dup1\n        /* \"#utility.yul\":1710:1716   */\n      dup2\n        /* \"#utility.yul\":1703:1725   */\n      revert\n        /* \"#utility.yul\":1665:1667   */\n    tag_130:\n        /* \"#utility.yul\":1755:1764   */\n      dup2\n        /* \"#utility.yul\":1749:1765   */\n      mload\n        /* \"#utility.yul\":1808:1813   */\n      dup1\n        /* \"#utility.yul\":1801:1814   */\n      iszero\n        /* \"#utility.yul\":1794:1815   */\n      iszero\n        /* \"#utility.yul\":1787:1792   */\n      dup2\n        /* \"#utility.yul\":1784:1816   */\n      eq\n        /* \"#utility.yul\":1774:1776   */\n      tag_114\n      jumpi\n        /* \"#utility.yul\":1835:1841   */\n      dup2\n        /* \"#utility.yul\":1827:1833   */\n      dup3\n        /* \"#utility.yul\":1820:1842   */\n      revert\n        /* \"#utility.yul\":1879:2069   */\n    tag_31:\n        /* \"#utility.yul\":1938:1944   */\n      0x00\n        /* \"#utility.yul\":1991:1993   */\n      0x20\n        /* \"#utility.yul\":1979:1988   */\n      dup3\n        /* \"#utility.yul\":1970:1977   */\n      dup5\n        /* \"#utility.yul\":1966:1989   */\n      sub\n        /* \"#utility.yul\":1962:1994   */\n      slt\n        /* \"#utility.yul\":1959:1961   */\n      iszero\n      tag_133\n      jumpi\n        /* \"#utility.yul\":2012:2018   */\n      dup1\n        /* \"#utility.yul\":2004:2010   */\n      dup2\n        /* \"#utility.yul\":1997:2019   */\n      revert\n        /* \"#utility.yul\":1959:1961   */\n    tag_133:\n      pop\n        /* \"#utility.yul\":2040:2063   */\n      calldataload\n      swap2\n        /* \"#utility.yul\":1949:2069   */\n      swap1\n      pop\n      jump\t// out\n        /* \"#utility.yul\":2074:2504   */\n    tag_100:\n        /* \"#utility.yul\":2203:2206   */\n      0x00\n        /* \"#utility.yul\":2241:2247   */\n      dup3\n        /* \"#utility.yul\":2235:2248   */\n      mload\n        /* \"#utility.yul\":2266:2269   */\n      dup2\n        /* \"#utility.yul\":2278:2407   */\n    tag_135:\n        /* \"#utility.yul\":2292:2298   */\n      dup2\n        /* \"#utility.yul\":2289:2290   */\n      dup2\n        /* \"#utility.yul\":2286:2299   */\n      lt\n        /* \"#utility.yul\":2278:2407   */\n      iszero\n      tag_137\n      jumpi\n        /* \"#utility.yul\":2390:2394   */\n      0x20\n        /* \"#utility.yul\":2374:2388   */\n      dup2\n      dup7\n      add\n        /* \"#utility.yul\":2370:2395   */\n      dup2\n      add\n        /* \"#utility.yul\":2364:2396   */\n      mload\n        /* \"#utility.yul\":2351:2362   */\n      dup6\n      dup4\n      add\n        /* \"#utility.yul\":2344:2397   */\n      mstore\n        /* \"#utility.yul\":2307:2319   */\n      add\n        /* \"#utility.yul\":2278:2407   */\n      jump(tag_135)\n    tag_137:\n        /* \"#utility.yul\":2425:2431   */\n      dup2\n        /* \"#utility.yul\":2422:2423   */\n      dup2\n        /* \"#utility.yul\":2419:2432   */\n      gt\n        /* \"#utility.yul\":2416:2418   */\n      iszero\n      tag_138\n      jumpi\n        /* \"#utility.yul\":2460:2463   */\n      dup3\n        /* \"#utility.yul\":2451:2457   */\n      dup3\n        /* \"#utility.yul\":2446:2449   */\n      dup6\n        /* \"#utility.yul\":2442:2458   */\n      add\n        /* \"#utility.yul\":2435:2464   */\n      mstore\n        /* \"#utility.yul\":2416:2418   */\n    tag_138:\n      pop\n        /* \"#utility.yul\":2482:2498   */\n      swap2\n      swap1\n      swap2\n      add\n      swap3\n        /* \"#utility.yul\":2211:2504   */\n      swap2\n      pop\n      pop\n      jump\t// out\n        /* \"#utility.yul\":6240:6468   */\n    tag_72:\n        /* \"#utility.yul\":6280:6284   */\n      0x00\n        /* \"#utility.yul\":6308:6309   */\n      dup3\n        /* \"#utility.yul\":6305:6306   */\n      dup3\n        /* \"#utility.yul\":6302:6310   */\n      lt\n        /* \"#utility.yul\":6299:6301   */\n      iszero\n      tag_148\n      jumpi\n      shl(0xe0, 0x4e487b71)\n        /* \"#utility.yul\":6333:6367   */\n      dup2\n      mstore\n        /* \"#utility.yul\":6390:6394   */\n      0x11\n        /* \"#utility.yul\":6387:6388   */\n      0x04\n        /* \"#utility.yul\":6380:6395   */\n      mstore\n        /* \"#utility.yul\":6421:6425   */\n      0x24\n        /* \"#utility.yul\":6340:6344   */\n      dup2\n        /* \"#utility.yul\":6408:6426   */\n      revert\n        /* \"#utility.yul\":6299:6301   */\n    tag_148:\n      pop\n        /* \"#utility.yul\":6453:6462   */\n      sub\n      swap1\n        /* \"#utility.yul\":6289:6468   */\n      jump\t// out\n        /* \"#utility.yul\":6473:6600   */\n    tag_124:\n        /* \"#utility.yul\":6534:6544   */\n      0x4e487b71\n        /* \"#utility.yul\":6529:6532   */\n      0xe0\n        /* \"#utility.yul\":6525:6545   */\n      shl\n        /* \"#utility.yul\":6522:6523   */\n      0x00\n        /* \"#utility.yul\":6515:6546   */\n      mstore\n        /* \"#utility.yul\":6565:6569   */\n      0x41\n        /* \"#utility.yul\":6562:6563   */\n      0x04\n        /* \"#utility.yul\":6555:6570   */\n      mstore\n        /* \"#utility.yul\":6589:6593   */\n      0x24\n        /* \"#utility.yul\":6586:6587   */\n      0x00\n        /* \"#utility.yul\":6579:6594   */\n      revert\n        /* \"#utility.yul\":6605:6736   */\n    tag_115:\n      sub(shl(0xa0, 0x01), 0x01)\n        /* \"#utility.yul\":6680:6711   */\n      dup2\n      and\n        /* \"#utility.yul\":6670:6712   */\n      dup2\n      eq\n        /* \"#utility.yul\":6660:6662   */\n      tag_84\n      jumpi\n        /* \"#utility.yul\":6726:6727   */\n      0x00\n        /* \"#utility.yul\":6723:6724   */\n      dup1\n        /* \"#utility.yul\":6716:6728   */\n      revert\n\n    auxdata: 0xa2646970667358221220c438bd6457f8710b35572bc4ddc82bda7ab9efc16ea5865817b4f31f8c3e5c9e64736f6c63430008040033\n}\n",
				"bytecode": {
					"linkReferences": {},
					"object": "608060405234801561001057600080fd5b506001600055601580546001600160a01b03191673c778417e063141139fce010982780140aa0cd5ab1790556107d68061004b6000396000f3fe60806040526004361061009c5760003560e01c8063796478331161006457806379647833146101fe578063861faf5f146102115780638f1eae4c14610219578063acfb2355146102b8578063e2d3f42314610310578063f8b2cb4f1461039657600080fd5b806318856a2f146100a1578063200d2ed2146101615780633f74aa38146101845780634329db46146101bc57806356c5f349146101d1575b600080fd5b3480156100ad57600080fd5b50600954600a54600b54600c54600d54600e54600f546010546011546012546013546014546100f29b6001600160a01b039081169b81169a169897969594939291908c565b604080516001600160a01b039d8e1681529b8d1660208d015299909b16988a01989098526060890196909652608088019490945260a087019290925260c086015260e0850152610100840152610120830152610140820152610160810191909152610180015b60405180910390f35b34801561016d57600080fd5b506101766103be565b604051908152602001610158565b34801561019057600080fd5b506015546101a4906001600160a01b031681565b6040516001600160a01b039091168152602001610158565b6101cf6101ca366004610701565b6103e7565b005b3480156101dd57600080fd5b506101766101ec3660046105fd565b60026020526000908152604090205481565b6101cf61020c366004610701565b610421565b6101cf61049e565b34801561022557600080fd5b506101cf610234366004610620565b600980546001600160a01b03199081166001600160a01b0396871617909155600a8054821694861694909417909355600b8054909316919093161790558051600c556020810151600d556040810151600e556060810151600f55608081015160105560a081015160115560c081015160125560e08101516013556101000151601455565b3480156102c457600080fd5b506003546004546005546006546007546008546102e395949392919086565b604080519687526020870195909552938501929092526060840152608083015260a082015260c001610158565b34801561031c57600080fd5b5061036561032b3660046105fd565b6001602081905260009182526040909120805491810154600282015460038301546004909301549192909160ff8082169161010090041686565b60408051968752602087019590955293850192909252606084015215156080830152151560a082015260c001610158565b3480156103a257600080fd5b506101766103b13660046105fd565b6001600160a01b03163190565b600d546000904210156103d15750600090565b600e544211156103e15750600290565b50600190565b336108fc6103f58334610752565b6040518115909202916000818181858888f1935050505015801561041d573d6000803e3d6000fd5b5050565b600260005414156104795760405162461bcd60e51b815260206004820152601f60248201527f5265656e7472616e637947756172643a207265656e7472616e742063616c6c0060448201526064015b60405180910390fd5b6002600055601554610496906001600160a01b03163330846104cd565b506001600055565b60405133904780156108fc02916000818181858888f193505050501580156104ca573d6000803e3d6000fd5b50565b604080516001600160a01b0385811660248301528481166044830152606480830185905283518084039091018152608490920183526020820180516001600160e01b03166323b872dd60e01b17905291516000928392908816916105319190610719565b6000604051808303816000865af19150503d806000811461056e576040519150601f19603f3d011682016040523d82523d6000602084013e610573565b606091505b509150915081801561059d57508051158061059d57508080602001905181019061059d91906106e1565b6105f55760405162461bcd60e51b8152602060048201526024808201527f5472616e7366657248656c7065723a205452414e534645525f46524f4d5f46416044820152631253115160e21b6064820152608401610470565b505050505050565b60006020828403121561060e578081fd5b81356106198161078b565b9392505050565b600080600080610180808688031215610637578384fd5b85356106428161078b565b94506020868101356106538161078b565b945060408701356106638161078b565b9350607f87018813610673578283fd5b604051610120810181811067ffffffffffffffff8211171561069757610697610775565b6040528060608901848a018b10156106ad578586fd5b8594505b60098510156106d05780358252600194909401939083019083016106b1565b505080935050505092959194509250565b6000602082840312156106f2578081fd5b81518015158114610619578182fd5b600060208284031215610712578081fd5b5035919050565b60008251815b81811015610739576020818601810151858301520161071f565b818111156107475782828501525b509190910192915050565b60008282101561077057634e487b7160e01b81526011600452602481fd5b500390565b634e487b7160e01b600052604160045260246000fd5b6001600160a01b03811681146104ca57600080fdfea2646970667358221220c438bd6457f8710b35572bc4ddc82bda7ab9efc16ea5865817b4f31f8c3e5c9e64736f6c63430008040033",
					"opcodes": "PUSH1 0x80 PUSH1 0x40 MSTORE CALLVALUE DUP1 ISZERO PUSH2 0x10 JUMPI PUSH1 0x0 DUP1 REVERT JUMPDEST POP PUSH1 0x1 PUSH1 0x0 SSTORE PUSH1 0x15 DUP1 SLOAD PUSH1 0x1 PUSH1 0x1 PUSH1 0xA0 SHL SUB NOT AND PUSH20 0xC778417E063141139FCE010982780140AA0CD5AB OR SWAP1 SSTORE PUSH2 0x7D6 DUP1 PUSH2 0x4B PUSH1 0x0 CODECOPY PUSH1 0x0 RETURN INVALID PUSH1 0x80 PUSH1 0x40 MSTORE PUSH1 0x4 CALLDATASIZE LT PUSH2 0x9C JUMPI PUSH1 0x0 CALLDATALOAD PUSH1 0xE0 SHR DUP1 PUSH4 0x79647833 GT PUSH2 0x64 JUMPI DUP1 PUSH4 0x79647833 EQ PUSH2 0x1FE JUMPI DUP1 PUSH4 0x861FAF5F EQ PUSH2 0x211 JUMPI DUP1 PUSH4 0x8F1EAE4C EQ PUSH2 0x219 JUMPI DUP1 PUSH4 0xACFB2355 EQ PUSH2 0x2B8 JUMPI DUP1 PUSH4 0xE2D3F423 EQ PUSH2 0x310 JUMPI DUP1 PUSH4 0xF8B2CB4F EQ PUSH2 0x396 JUMPI PUSH1 0x0 DUP1 REVERT JUMPDEST DUP1 PUSH4 0x18856A2F EQ PUSH2 0xA1 JUMPI DUP1 PUSH4 0x200D2ED2 EQ PUSH2 0x161 JUMPI DUP1 PUSH4 0x3F74AA38 EQ PUSH2 0x184 JUMPI DUP1 PUSH4 0x4329DB46 EQ PUSH2 0x1BC JUMPI DUP1 PUSH4 0x56C5F349 EQ PUSH2 0x1D1 JUMPI JUMPDEST PUSH1 0x0 DUP1 REVERT JUMPDEST CALLVALUE DUP1 ISZERO PUSH2 0xAD JUMPI PUSH1 0x0 DUP1 REVERT JUMPDEST POP PUSH1 0x9 SLOAD PUSH1 0xA SLOAD PUSH1 0xB SLOAD PUSH1 0xC SLOAD PUSH1 0xD SLOAD PUSH1 0xE SLOAD PUSH1 0xF SLOAD PUSH1 0x10 SLOAD PUSH1 0x11 SLOAD PUSH1 0x12 SLOAD PUSH1 0x13 SLOAD PUSH1 0x14 SLOAD PUSH2 0xF2 SWAP12 PUSH1 0x1 PUSH1 0x1 PUSH1 0xA0 SHL SUB SWAP1 DUP2 AND SWAP12 DUP2 AND SWAP11 AND SWAP9 SWAP8 SWAP7 SWAP6 SWAP5 SWAP4 SWAP3 SWAP2 SWAP1 DUP13 JUMP JUMPDEST PUSH1 0x40 DUP1 MLOAD PUSH1 0x1 PUSH1 0x1 PUSH1 0xA0 SHL SUB SWAP14 DUP15 AND DUP2 MSTORE SWAP12 DUP14 AND PUSH1 0x20 DUP14 ADD MSTORE SWAP10 SWAP1 SWAP12 AND SWAP9 DUP11 ADD SWAP9 SWAP1 SWAP9 MSTORE PUSH1 0x60 DUP10 ADD SWAP7 SWAP1 SWAP7 MSTORE PUSH1 0x80 DUP9 ADD SWAP5 SWAP1 SWAP5 MSTORE PUSH1 0xA0 DUP8 ADD SWAP3 SWAP1 SWAP3 MSTORE PUSH1 0xC0 DUP7 ADD MSTORE PUSH1 0xE0 DUP6 ADD MSTORE PUSH2 0x100 DUP5 ADD MSTORE PUSH2 0x120 DUP4 ADD MSTORE PUSH2 0x140 DUP3 ADD MSTORE PUSH2 0x160 DUP2 ADD SWAP2 SWAP1 SWAP2 MSTORE PUSH2 0x180 ADD JUMPDEST PUSH1 0x40 MLOAD DUP1 SWAP2 SUB SWAP1 RETURN JUMPDEST CALLVALUE DUP1 ISZERO PUSH2 0x16D JUMPI PUSH1 0x0 DUP1 REVERT JUMPDEST POP PUSH2 0x176 PUSH2 0x3BE JUMP JUMPDEST PUSH1 0x40 MLOAD SWAP1 DUP2 MSTORE PUSH1 0x20 ADD PUSH2 0x158 JUMP JUMPDEST CALLVALUE DUP1 ISZERO PUSH2 0x190 JUMPI PUSH1 0x0 DUP1 REVERT JUMPDEST POP PUSH1 0x15 SLOAD PUSH2 0x1A4 SWAP1 PUSH1 0x1 PUSH1 0x1 PUSH1 0xA0 SHL SUB AND DUP2 JUMP JUMPDEST PUSH1 0x40 MLOAD PUSH1 0x1 PUSH1 0x1 PUSH1 0xA0 SHL SUB SWAP1 SWAP2 AND DUP2 MSTORE PUSH1 0x20 ADD PUSH2 0x158 JUMP JUMPDEST PUSH2 0x1CF PUSH2 0x1CA CALLDATASIZE PUSH1 0x4 PUSH2 0x701 JUMP JUMPDEST PUSH2 0x3E7 JUMP JUMPDEST STOP JUMPDEST CALLVALUE DUP1 ISZERO PUSH2 0x1DD JUMPI PUSH1 0x0 DUP1 REVERT JUMPDEST POP PUSH2 0x176 PUSH2 0x1EC CALLDATASIZE PUSH1 0x4 PUSH2 0x5FD JUMP JUMPDEST PUSH1 0x2 PUSH1 0x20 MSTORE PUSH1 0x0 SWAP1 DUP2 MSTORE PUSH1 0x40 SWAP1 KECCAK256 SLOAD DUP2 JUMP JUMPDEST PUSH2 0x1CF PUSH2 0x20C CALLDATASIZE PUSH1 0x4 PUSH2 0x701 JUMP JUMPDEST PUSH2 0x421 JUMP JUMPDEST PUSH2 0x1CF PUSH2 0x49E JUMP JUMPDEST CALLVALUE DUP1 ISZERO PUSH2 0x225 JUMPI PUSH1 0x0 DUP1 REVERT JUMPDEST POP PUSH2 0x1CF PUSH2 0x234 CALLDATASIZE PUSH1 0x4 PUSH2 0x620 JUMP JUMPDEST PUSH1 0x9 DUP1 SLOAD PUSH1 0x1 PUSH1 0x1 PUSH1 0xA0 SHL SUB NOT SWAP1 DUP2 AND PUSH1 0x1 PUSH1 0x1 PUSH1 0xA0 SHL SUB SWAP7 DUP8 AND OR SWAP1 SWAP2 SSTORE PUSH1 0xA DUP1 SLOAD DUP3 AND SWAP5 DUP7 AND SWAP5 SWAP1 SWAP5 OR SWAP1 SWAP4 SSTORE PUSH1 0xB DUP1 SLOAD SWAP1 SWAP4 AND SWAP2 SWAP1 SWAP4 AND OR SWAP1 SSTORE DUP1 MLOAD PUSH1 0xC SSTORE PUSH1 0x20 DUP2 ADD MLOAD PUSH1 0xD SSTORE PUSH1 0x40 DUP2 ADD MLOAD PUSH1 0xE SSTORE PUSH1 0x60 DUP2 ADD MLOAD PUSH1 0xF SSTORE PUSH1 0x80 DUP2 ADD MLOAD PUSH1 0x10 SSTORE PUSH1 0xA0 DUP2 ADD MLOAD PUSH1 0x11 SSTORE PUSH1 0xC0 DUP2 ADD MLOAD PUSH1 0x12 SSTORE PUSH1 0xE0 DUP2 ADD MLOAD PUSH1 0x13 SSTORE PUSH2 0x100 ADD MLOAD PUSH1 0x14 SSTORE JUMP JUMPDEST CALLVALUE DUP1 ISZERO PUSH2 0x2C4 JUMPI PUSH1 0x0 DUP1 REVERT JUMPDEST POP PUSH1 0x3 SLOAD PUSH1 0x4 SLOAD PUSH1 0x5 SLOAD PUSH1 0x6 SLOAD PUSH1 0x7 SLOAD PUSH1 0x8 SLOAD PUSH2 0x2E3 SWAP6 SWAP5 SWAP4 SWAP3 SWAP2 SWAP1 DUP7 JUMP JUMPDEST PUSH1 0x40 DUP1 MLOAD SWAP7 DUP8 MSTORE PUSH1 0x20 DUP8 ADD SWAP6 SWAP1 SWAP6 MSTORE SWAP4 DUP6 ADD SWAP3 SWAP1 SWAP3 MSTORE PUSH1 0x60 DUP5 ADD MSTORE PUSH1 0x80 DUP4 ADD MSTORE PUSH1 0xA0 DUP3 ADD MSTORE PUSH1 0xC0 ADD PUSH2 0x158 JUMP JUMPDEST CALLVALUE DUP1 ISZERO PUSH2 0x31C JUMPI PUSH1 0x0 DUP1 REVERT JUMPDEST POP PUSH2 0x365 PUSH2 0x32B CALLDATASIZE PUSH1 0x4 PUSH2 0x5FD JUMP JUMPDEST PUSH1 0x1 PUSH1 0x20 DUP2 SWAP1 MSTORE PUSH1 0x0 SWAP2 DUP3 MSTORE PUSH1 0x40 SWAP1 SWAP2 KECCAK256 DUP1 SLOAD SWAP2 DUP2 ADD SLOAD PUSH1 0x2 DUP3 ADD SLOAD PUSH1 0x3 DUP4 ADD SLOAD PUSH1 0x4 SWAP1 SWAP4 ADD SLOAD SWAP2 SWAP3 SWAP1 SWAP2 PUSH1 0xFF DUP1 DUP3 AND SWAP2 PUSH2 0x100 SWAP1 DIV AND DUP7 JUMP JUMPDEST PUSH1 0x40 DUP1 MLOAD SWAP7 DUP8 MSTORE PUSH1 0x20 DUP8 ADD SWAP6 SWAP1 SWAP6 MSTORE SWAP4 DUP6 ADD SWAP3 SWAP1 SWAP3 MSTORE PUSH1 0x60 DUP5 ADD MSTORE ISZERO ISZERO PUSH1 0x80 DUP4 ADD MSTORE ISZERO ISZERO PUSH1 0xA0 DUP3 ADD MSTORE PUSH1 0xC0 ADD PUSH2 0x158 JUMP JUMPDEST CALLVALUE DUP1 ISZERO PUSH2 0x3A2 JUMPI PUSH1 0x0 DUP1 REVERT JUMPDEST POP PUSH2 0x176 PUSH2 0x3B1 CALLDATASIZE PUSH1 0x4 PUSH2 0x5FD JUMP JUMPDEST PUSH1 0x1 PUSH1 0x1 PUSH1 0xA0 SHL SUB AND BALANCE SWAP1 JUMP JUMPDEST PUSH1 0xD SLOAD PUSH1 0x0 SWAP1 TIMESTAMP LT ISZERO PUSH2 0x3D1 JUMPI POP PUSH1 0x0 SWAP1 JUMP JUMPDEST PUSH1 0xE SLOAD TIMESTAMP GT ISZERO PUSH2 0x3E1 JUMPI POP PUSH1 0x2 SWAP1 JUMP JUMPDEST POP PUSH1 0x1 SWAP1 JUMP JUMPDEST CALLER PUSH2 0x8FC PUSH2 0x3F5 DUP4 CALLVALUE PUSH2 0x752 JUMP JUMPDEST PUSH1 0x40 MLOAD DUP2 ISZERO SWAP1 SWAP3 MUL SWAP2 PUSH1 0x0 DUP2 DUP2 DUP2 DUP6 DUP9 DUP9 CALL SWAP4 POP POP POP POP ISZERO DUP1 ISZERO PUSH2 0x41D JUMPI RETURNDATASIZE PUSH1 0x0 DUP1 RETURNDATACOPY RETURNDATASIZE PUSH1 0x0 REVERT JUMPDEST POP POP JUMP JUMPDEST PUSH1 0x2 PUSH1 0x0 SLOAD EQ ISZERO PUSH2 0x479 JUMPI PUSH1 0x40 MLOAD PUSH3 0x461BCD PUSH1 0xE5 SHL DUP2 MSTORE PUSH1 0x20 PUSH1 0x4 DUP3 ADD MSTORE PUSH1 0x1F PUSH1 0x24 DUP3 ADD MSTORE PUSH32 0x5265656E7472616E637947756172643A207265656E7472616E742063616C6C00 PUSH1 0x44 DUP3 ADD MSTORE PUSH1 0x64 ADD JUMPDEST PUSH1 0x40 MLOAD DUP1 SWAP2 SUB SWAP1 REVERT JUMPDEST PUSH1 0x2 PUSH1 0x0 SSTORE PUSH1 0x15 SLOAD PUSH2 0x496 SWAP1 PUSH1 0x1 PUSH1 0x1 PUSH1 0xA0 SHL SUB AND CALLER ADDRESS DUP5 PUSH2 0x4CD JUMP JUMPDEST POP PUSH1 0x1 PUSH1 0x0 SSTORE JUMP JUMPDEST PUSH1 0x40 MLOAD CALLER SWAP1 SELFBALANCE DUP1 ISZERO PUSH2 0x8FC MUL SWAP2 PUSH1 0x0 DUP2 DUP2 DUP2 DUP6 DUP9 DUP9 CALL SWAP4 POP POP POP POP ISZERO DUP1 ISZERO PUSH2 0x4CA JUMPI RETURNDATASIZE PUSH1 0x0 DUP1 RETURNDATACOPY RETURNDATASIZE PUSH1 0x0 REVERT JUMPDEST POP JUMP JUMPDEST PUSH1 0x40 DUP1 MLOAD PUSH1 0x1 PUSH1 0x1 PUSH1 0xA0 SHL SUB DUP6 DUP2 AND PUSH1 0x24 DUP4 ADD MSTORE DUP5 DUP2 AND PUSH1 0x44 DUP4 ADD MSTORE PUSH1 0x64 DUP1 DUP4 ADD DUP6 SWAP1 MSTORE DUP4 MLOAD DUP1 DUP5 SUB SWAP1 SWAP2 ADD DUP2 MSTORE PUSH1 0x84 SWAP1 SWAP3 ADD DUP4 MSTORE PUSH1 0x20 DUP3 ADD DUP1 MLOAD PUSH1 0x1 PUSH1 0x1 PUSH1 0xE0 SHL SUB AND PUSH4 0x23B872DD PUSH1 0xE0 SHL OR SWAP1 MSTORE SWAP2 MLOAD PUSH1 0x0 SWAP3 DUP4 SWAP3 SWAP1 DUP9 AND SWAP2 PUSH2 0x531 SWAP2 SWAP1 PUSH2 0x719 JUMP JUMPDEST PUSH1 0x0 PUSH1 0x40 MLOAD DUP1 DUP4 SUB DUP2 PUSH1 0x0 DUP7 GAS CALL SWAP2 POP POP RETURNDATASIZE DUP1 PUSH1 0x0 DUP2 EQ PUSH2 0x56E JUMPI PUSH1 0x40 MLOAD SWAP2 POP PUSH1 0x1F NOT PUSH1 0x3F RETURNDATASIZE ADD AND DUP3 ADD PUSH1 0x40 MSTORE RETURNDATASIZE DUP3 MSTORE RETURNDATASIZE PUSH1 0x0 PUSH1 0x20 DUP5 ADD RETURNDATACOPY PUSH2 0x573 JUMP JUMPDEST PUSH1 0x60 SWAP2 POP JUMPDEST POP SWAP2 POP SWAP2 POP DUP2 DUP1 ISZERO PUSH2 0x59D JUMPI POP DUP1 MLOAD ISZERO DUP1 PUSH2 0x59D JUMPI POP DUP1 DUP1 PUSH1 0x20 ADD SWAP1 MLOAD DUP2 ADD SWAP1 PUSH2 0x59D SWAP2 SWAP1 PUSH2 0x6E1 JUMP JUMPDEST PUSH2 0x5F5 JUMPI PUSH1 0x40 MLOAD PUSH3 0x461BCD PUSH1 0xE5 SHL DUP2 MSTORE PUSH1 0x20 PUSH1 0x4 DUP3 ADD MSTORE PUSH1 0x24 DUP1 DUP3 ADD MSTORE PUSH32 0x5472616E7366657248656C7065723A205452414E534645525F46524F4D5F4641 PUSH1 0x44 DUP3 ADD MSTORE PUSH4 0x12531151 PUSH1 0xE2 SHL PUSH1 0x64 DUP3 ADD MSTORE PUSH1 0x84 ADD PUSH2 0x470 JUMP JUMPDEST POP POP POP POP POP POP JUMP JUMPDEST PUSH1 0x0 PUSH1 0x20 DUP3 DUP5 SUB SLT ISZERO PUSH2 0x60E JUMPI DUP1 DUP2 REVERT JUMPDEST DUP2 CALLDATALOAD PUSH2 0x619 DUP2 PUSH2 0x78B JUMP JUMPDEST SWAP4 SWAP3 POP POP POP JUMP JUMPDEST PUSH1 0x0 DUP1 PUSH1 0x0 DUP1 PUSH2 0x180 DUP1 DUP7 DUP9 SUB SLT ISZERO PUSH2 0x637 JUMPI DUP4 DUP5 REVERT JUMPDEST DUP6 CALLDATALOAD PUSH2 0x642 DUP2 PUSH2 0x78B JUMP JUMPDEST SWAP5 POP PUSH1 0x20 DUP7 DUP2 ADD CALLDATALOAD PUSH2 0x653 DUP2 PUSH2 0x78B JUMP JUMPDEST SWAP5 POP PUSH1 0x40 DUP8 ADD CALLDATALOAD PUSH2 0x663 DUP2 PUSH2 0x78B JUMP JUMPDEST SWAP4 POP PUSH1 0x7F DUP8 ADD DUP9 SGT PUSH2 0x673 JUMPI DUP3 DUP4 REVERT JUMPDEST PUSH1 0x40 MLOAD PUSH2 0x120 DUP2 ADD DUP2 DUP2 LT PUSH8 0xFFFFFFFFFFFFFFFF DUP3 GT OR ISZERO PUSH2 0x697 JUMPI PUSH2 0x697 PUSH2 0x775 JUMP JUMPDEST PUSH1 0x40 MSTORE DUP1 PUSH1 0x60 DUP10 ADD DUP5 DUP11 ADD DUP12 LT ISZERO PUSH2 0x6AD JUMPI DUP6 DUP7 REVERT JUMPDEST DUP6 SWAP5 POP JUMPDEST PUSH1 0x9 DUP6 LT ISZERO PUSH2 0x6D0 JUMPI DUP1 CALLDATALOAD DUP3 MSTORE PUSH1 0x1 SWAP5 SWAP1 SWAP5 ADD SWAP4 SWAP1 DUP4 ADD SWAP1 DUP4 ADD PUSH2 0x6B1 JUMP JUMPDEST POP POP DUP1 SWAP4 POP POP POP POP SWAP3 SWAP6 SWAP2 SWAP5 POP SWAP3 POP JUMP JUMPDEST PUSH1 0x0 PUSH1 0x20 DUP3 DUP5 SUB SLT ISZERO PUSH2 0x6F2 JUMPI DUP1 DUP2 REVERT JUMPDEST DUP2 MLOAD DUP1 ISZERO ISZERO DUP2 EQ PUSH2 0x619 JUMPI DUP2 DUP3 REVERT JUMPDEST PUSH1 0x0 PUSH1 0x20 DUP3 DUP5 SUB SLT ISZERO PUSH2 0x712 JUMPI DUP1 DUP2 REVERT JUMPDEST POP CALLDATALOAD SWAP2 SWAP1 POP JUMP JUMPDEST PUSH1 0x0 DUP3 MLOAD DUP2 JUMPDEST DUP2 DUP2 LT ISZERO PUSH2 0x739 JUMPI PUSH1 0x20 DUP2 DUP7 ADD DUP2 ADD MLOAD DUP6 DUP4 ADD MSTORE ADD PUSH2 0x71F JUMP JUMPDEST DUP2 DUP2 GT ISZERO PUSH2 0x747 JUMPI DUP3 DUP3 DUP6 ADD MSTORE JUMPDEST POP SWAP2 SWAP1 SWAP2 ADD SWAP3 SWAP2 POP POP JUMP JUMPDEST PUSH1 0x0 DUP3 DUP3 LT ISZERO PUSH2 0x770 JUMPI PUSH4 0x4E487B71 PUSH1 0xE0 SHL DUP2 MSTORE PUSH1 0x11 PUSH1 0x4 MSTORE PUSH1 0x24 DUP2 REVERT JUMPDEST POP SUB SWAP1 JUMP JUMPDEST PUSH4 0x4E487B71 PUSH1 0xE0 SHL PUSH1 0x0 MSTORE PUSH1 0x41 PUSH1 0x4 MSTORE PUSH1 0x24 PUSH1 0x0 REVERT JUMPDEST PUSH1 0x1 PUSH1 0x1 PUSH1 0xA0 SHL SUB DUP2 AND DUP2 EQ PUSH2 0x4CA JUMPI PUSH1 0x0 DUP1 REVERT INVALID LOG2 PUSH5 0x6970667358 0x22 SLT KECCAK256 0xC4 CODESIZE 0xBD PUSH5 0x57F8710B35 JUMPI 0x2B 0xC4 0xDD 0xC8 0x2B 0xDA PUSH27 0xB9EFC16EA5865817B4F31F8C3E5C9E64736F6C6343000804003300 "
				},
				"gasEstimates": {
					"creation": {
						"codeDepositCost": "401200",
						"executionCost": "41278",
						"totalCost": "442478"
					},
					"external": {
						"PRESALE_INFO()": "1082",
						"backToken()": "infinite",
						"buyerInfo(address)": "4701",
						"depodit(uint256)": "infinite",
						"getBalance(address)": "1172",
						"initialSaleInfor(address,address,address,uint256[9])": "infinite",
						"presaleStatus()": "5190",
						"saleInfor()": "10142",
						"status()": "1888",
						"transferETH(uint256)": "infinite",
						"userFee(address)": "1302"
					}
				},
				"methodIdentifiers": {
					"PRESALE_INFO()": "3f74aa38",
					"backToken()": "861faf5f",
					"buyerInfo(address)": "e2d3f423",
					"depodit(uint256)": "79647833",
					"getBalance(address)": "f8b2cb4f",
					"initialSaleInfor(address,address,address,uint256[9])": "8f1eae4c",
					"presaleStatus()": "acfb2355",
					"saleInfor()": "18856a2f",
					"status()": "200d2ed2",
					"transferETH(uint256)": "4329db46",
					"userFee(address)": "56c5f349"
				}
			},
			"storageLayout": {
				"storage": [
					{
						"astId": 388,
						"contract": "Ethereum/Presale.sol:Presale",
						"label": "_status",
						"offset": 0,
						"slot": "0",
						"type": "t_uint256"
					},
					{
						"astId": 142,
						"contract": "Ethereum/Presale.sol:Presale",
						"label": "buyerInfo",
						"offset": 0,
						"slot": "1",
						"type": "t_mapping(t_address,t_struct(BuyerInfo)124_storage)"
					},
					{
						"astId": 146,
						"contract": "Ethereum/Presale.sol:Presale",
						"label": "userFee",
						"offset": 0,
						"slot": "2",
						"type": "t_mapping(t_address,t_uint256)"
					},
					{
						"astId": 149,
						"contract": "Ethereum/Presale.sol:Presale",
						"label": "presaleStatus",
						"offset": 0,
						"slot": "3",
						"type": "t_struct(PresaleStatus)137_storage"
					},
					{
						"astId": 152,
						"contract": "Ethereum/Presale.sol:Presale",
						"label": "saleInfor",
						"offset": 0,
						"slot": "9",
						"type": "t_struct(SaleInfor)111_storage"
					},
					{
						"astId": 293,
						"contract": "Ethereum/Presale.sol:Presale",
						"label": "PRESALE_INFO",
						"offset": 0,
						"slot": "21",
						"type": "t_struct(PresaleInfo)290_storage"
					}
				],
				"types": {
					"t_address": {
						"encoding": "inplace",
						"label": "address",
						"numberOfBytes": "20"
					},
					"t_address_payable": {
						"encoding": "inplace",
						"label": "address payable",
						"numberOfBytes": "20"
					},
					"t_bool": {
						"encoding": "inplace",
						"label": "bool",
						"numberOfBytes": "1"
					},
					"t_contract(IERC20)77": {
						"encoding": "inplace",
						"label": "contract IERC20",
						"numberOfBytes": "20"
					},
					"t_mapping(t_address,t_struct(BuyerInfo)124_storage)": {
						"encoding": "mapping",
						"key": "t_address",
						"label": "mapping(address => struct Presale.BuyerInfo)",
						"numberOfBytes": "32",
						"value": "t_struct(BuyerInfo)124_storage"
					},
					"t_mapping(t_address,t_uint256)": {
						"encoding": "mapping",
						"key": "t_address",
						"label": "mapping(address => uint256)",
						"numberOfBytes": "32",
						"value": "t_uint256"
					},
					"t_struct(BuyerInfo)124_storage": {
						"encoding": "inplace",
						"label": "struct Presale.BuyerInfo",
						"members": [
							{
								"astId": 113,
								"contract": "Ethereum/Presale.sol:Presale",
								"label": "baseDeposit",
								"offset": 0,
								"slot": "0",
								"type": "t_uint256"
							},
							{
								"astId": 115,
								"contract": "Ethereum/Presale.sol:Presale",
								"label": "tokenOwner",
								"offset": 0,
								"slot": "1",
								"type": "t_uint256"
							},
							{
								"astId": 117,
								"contract": "Ethereum/Presale.sol:Presale",
								"label": "lastWithDraw",
								"offset": 0,
								"slot": "2",
								"type": "t_uint256"
							},
							{
								"astId": 119,
								"contract": "Ethereum/Presale.sol:Presale",
								"label": "totalTokenWithDraw",
								"offset": 0,
								"slot": "3",
								"type": "t_uint256"
							},
							{
								"astId": 121,
								"contract": "Ethereum/Presale.sol:Presale",
								"label": "isRefund",
								"offset": 0,
								"slot": "4",
								"type": "t_bool"
							},
							{
								"astId": 123,
								"contract": "Ethereum/Presale.sol:Presale",
								"label": "isClaim",
								"offset": 1,
								"slot": "4",
								"type": "t_bool"
							}
						],
						"numberOfBytes": "160"
					},
					"t_struct(PresaleInfo)290_storage": {
						"encoding": "inplace",
						"label": "struct Presale.PresaleInfo",
						"members": [
							{
								"astId": 289,
								"contract": "Ethereum/Presale.sol:Presale",
								"label": "B_TOKEN",
								"offset": 0,
								"slot": "0",
								"type": "t_contract(IERC20)77"
							}
						],
						"numberOfBytes": "32"
					},
					"t_struct(PresaleStatus)137_storage": {
						"encoding": "inplace",
						"label": "struct Presale.PresaleStatus",
						"members": [
							{
								"astId": 126,
								"contract": "Ethereum/Presale.sol:Presale",
								"label": "totalBaseCollected",
								"offset": 0,
								"slot": "0",
								"type": "t_uint256"
							},
							{
								"astId": 128,
								"contract": "Ethereum/Presale.sol:Presale",
								"label": "totalTokenSold",
								"offset": 0,
								"slot": "1",
								"type": "t_uint256"
							},
							{
								"astId": 130,
								"contract": "Ethereum/Presale.sol:Presale",
								"label": "totalTokenWithDraw",
								"offset": 0,
								"slot": "2",
								"type": "t_uint256"
							},
							{
								"astId": 132,
								"contract": "Ethereum/Presale.sol:Presale",
								"label": "totalBaseWithDraw",
								"offset": 0,
								"slot": "3",
								"type": "t_uint256"
							},
							{
								"astId": 134,
								"contract": "Ethereum/Presale.sol:Presale",
								"label": "numByer",
								"offset": 0,
								"slot": "4",
								"type": "t_uint256"
							},
							{
								"astId": 136,
								"contract": "Ethereum/Presale.sol:Presale",
								"label": "totalFee",
								"offset": 0,
								"slot": "5",
								"type": "t_uint256"
							}
						],
						"numberOfBytes": "192"
					},
					"t_struct(SaleInfor)111_storage": {
						"encoding": "inplace",
						"label": "struct Presale.SaleInfor",
						"members": [
							{
								"astId": 86,
								"contract": "Ethereum/Presale.sol:Presale",
								"label": "presaleOwner",
								"offset": 0,
								"slot": "0",
								"type": "t_address_payable"
							},
							{
								"astId": 89,
								"contract": "Ethereum/Presale.sol:Presale",
								"label": "saleToken",
								"offset": 0,
								"slot": "1",
								"type": "t_contract(IERC20)77"
							},
							{
								"astId": 92,
								"contract": "Ethereum/Presale.sol:Presale",
								"label": "baseToken",
								"offset": 0,
								"slot": "2",
								"type": "t_contract(IERC20)77"
							},
							{
								"astId": 94,
								"contract": "Ethereum/Presale.sol:Presale",
								"label": "tokenPrice",
								"offset": 0,
								"slot": "3",
								"type": "t_uint256"
							},
							{
								"astId": 96,
								"contract": "Ethereum/Presale.sol:Presale",
								"label": "startSale",
								"offset": 0,
								"slot": "4",
								"type": "t_uint256"
							},
							{
								"astId": 98,
								"contract": "Ethereum/Presale.sol:Presale",
								"label": "endSale",
								"offset": 0,
								"slot": "5",
								"type": "t_uint256"
							},
							{
								"astId": 100,
								"contract": "Ethereum/Presale.sol:Presale",
								"label": "valueSwapERC20",
								"offset": 0,
								"slot": "6",
								"type": "t_uint256"
							},
							{
								"astId": 102,
								"contract": "Ethereum/Presale.sol:Presale",
								"label": "feeTransaction",
								"offset": 0,
								"slot": "7",
								"type": "t_uint256"
							},
							{
								"astId": 104,
								"contract": "Ethereum/Presale.sol:Presale",
								"label": "minSpendPerBuyer",
								"offset": 0,
								"slot": "8",
								"type": "t_uint256"
							},
							{
								"astId": 106,
								"contract": "Ethereum/Presale.sol:Presale",
								"label": "maxSpendPerBuyer",
								"offset": 0,
								"slot": "9",
								"type": "t_uint256"
							},
							{
								"astId": 108,
								"contract": "Ethereum/Presale.sol:Presale",
								"label": "refundFee",
								"offset": 0,
								"slot": "10",
								"type": "t_uint256"
							},
							{
								"astId": 110,
								"contract": "Ethereum/Presale.sol:Presale",
								"label": "claimFee",
								"offset": 0,
								"slot": "11",
								"type": "t_uint256"
							}
						],
						"numberOfBytes": "384"
					},
					"t_uint256": {
						"encoding": "inplace",
						"label": "uint256",
						"numberOfBytes": "32"
					}
				}
			},
			"userdoc": {
				"kind": "user",
				"methods": {},
				"version": 1
			}
		}
	}
}