{
	"Ethereum/Presale.sol": {
		"Presale": {
			"abi": [
				{
					"inputs": [],
					"stateMutability": "payable",
					"type": "constructor"
				},
				{
					"anonymous": false,
					"inputs": [
						{
							"indexed": true,
							"internalType": "address",
							"name": "previousOwner",
							"type": "address"
						},
						{
							"indexed": true,
							"internalType": "address",
							"name": "newOwner",
							"type": "address"
						}
					],
					"name": "OwnershipTransferred",
					"type": "event"
				},
				{
					"inputs": [],
					"name": "WETH",
					"outputs": [
						{
							"internalType": "contract IERC20",
							"name": "",
							"type": "address"
						}
					],
					"stateMutability": "view",
					"type": "function"
				},
				{
					"inputs": [],
					"name": "backToken",
					"outputs": [],
					"stateMutability": "payable",
					"type": "function"
				},
				{
					"inputs": [
						{
							"internalType": "address",
							"name": "",
							"type": "address"
						}
					],
					"name": "buyerInfo",
					"outputs": [
						{
							"internalType": "uint256",
							"name": "baseDeposit",
							"type": "uint256"
						},
						{
							"internalType": "uint256",
							"name": "tokenOwner",
							"type": "uint256"
						},
						{
							"internalType": "uint256",
							"name": "lastWithDraw",
							"type": "uint256"
						},
						{
							"internalType": "uint256",
							"name": "totalTokenWithDraw",
							"type": "uint256"
						},
						{
							"internalType": "bool",
							"name": "isRefund",
							"type": "bool"
						},
						{
							"internalType": "bool",
							"name": "isClaim",
							"type": "bool"
						}
					],
					"stateMutability": "view",
					"type": "function"
				},
				{
					"inputs": [],
					"name": "checkAdminAddress",
					"outputs": [
						{
							"internalType": "bool",
							"name": "",
							"type": "bool"
						}
					],
					"stateMutability": "view",
					"type": "function"
				},
				{
					"inputs": [
						{
							"internalType": "uint256",
							"name": "_amount",
							"type": "uint256"
						}
					],
					"name": "deposit",
					"outputs": [],
					"stateMutability": "payable",
					"type": "function"
				},
				{
					"inputs": [],
					"name": "feeAnyone",
					"outputs": [
						{
							"internalType": "uint256",
							"name": "",
							"type": "uint256"
						}
					],
					"stateMutability": "view",
					"type": "function"
				},
				{
					"inputs": [
						{
							"internalType": "address",
							"name": "_address",
							"type": "address"
						}
					],
					"name": "getBalance",
					"outputs": [
						{
							"internalType": "uint256",
							"name": "",
							"type": "uint256"
						}
					],
					"stateMutability": "view",
					"type": "function"
				},
				{
					"inputs": [
						{
							"internalType": "address payable",
							"name": "_presaleOwner",
							"type": "address"
						},
						{
							"internalType": "contract ERC20",
							"name": "_saleToken",
							"type": "address"
						},
						{
							"internalType": "contract ERC20",
							"name": "_baseTOken",
							"type": "address"
						},
						{
							"internalType": "uint256[9]",
							"name": "datas",
							"type": "uint256[9]"
						}
					],
					"name": "initialSaleInfor",
					"outputs": [],
					"stateMutability": "nonpayable",
					"type": "function"
				},
				{
					"inputs": [],
					"name": "owner",
					"outputs": [
						{
							"internalType": "address",
							"name": "",
							"type": "address"
						}
					],
					"stateMutability": "view",
					"type": "function"
				},
				{
					"inputs": [],
					"name": "presaleStatus",
					"outputs": [
						{
							"internalType": "uint256",
							"name": "totalBaseCollected",
							"type": "uint256"
						},
						{
							"internalType": "uint256",
							"name": "totalTokenSold",
							"type": "uint256"
						},
						{
							"internalType": "uint256",
							"name": "totalTokenWithDraw",
							"type": "uint256"
						},
						{
							"internalType": "uint256",
							"name": "totalBaseWithDraw",
							"type": "uint256"
						},
						{
							"internalType": "uint256",
							"name": "numberBuyer",
							"type": "uint256"
						},
						{
							"internalType": "uint256",
							"name": "totalFee",
							"type": "uint256"
						}
					],
					"stateMutability": "view",
					"type": "function"
				},
				{
					"inputs": [],
					"name": "renounceOwnership",
					"outputs": [],
					"stateMutability": "nonpayable",
					"type": "function"
				},
				{
					"inputs": [],
					"name": "saleInfor",
					"outputs": [
						{
							"internalType": "address payable",
							"name": "presaleOwner",
							"type": "address"
						},
						{
							"internalType": "contract ERC20",
							"name": "saleToken",
							"type": "address"
						},
						{
							"internalType": "contract ERC20",
							"name": "baseToken",
							"type": "address"
						},
						{
							"internalType": "uint256",
							"name": "tokenPrice",
							"type": "uint256"
						},
						{
							"internalType": "uint256",
							"name": "startSale",
							"type": "uint256"
						},
						{
							"internalType": "uint256",
							"name": "endSale",
							"type": "uint256"
						},
						{
							"internalType": "uint256",
							"name": "minSpendPerBuyer",
							"type": "uint256"
						},
						{
							"internalType": "uint256",
							"name": "maxSpendPerBuyer",
							"type": "uint256"
						},
						{
							"internalType": "uint256",
							"name": "refundFee",
							"type": "uint256"
						},
						{
							"internalType": "uint256",
							"name": "claimFee",
							"type": "uint256"
						},
						{
							"internalType": "bool",
							"name": "saleIsBaseToken",
							"type": "bool"
						},
						{
							"internalType": "uint256",
							"name": "amountTokenForSale",
							"type": "uint256"
						}
					],
					"stateMutability": "view",
					"type": "function"
				},
				{
					"inputs": [],
					"name": "saleTotalSupply",
					"outputs": [
						{
							"internalType": "uint256",
							"name": "hardCap",
							"type": "uint256"
						},
						{
							"internalType": "uint256",
							"name": "softCap",
							"type": "uint256"
						}
					],
					"stateMutability": "view",
					"type": "function"
				},
				{
					"inputs": [],
					"name": "status",
					"outputs": [
						{
							"internalType": "uint256",
							"name": "",
							"type": "uint256"
						}
					],
					"stateMutability": "view",
					"type": "function"
				},
				{
					"inputs": [],
					"name": "totalFee",
					"outputs": [
						{
							"internalType": "uint256",
							"name": "",
							"type": "uint256"
						}
					],
					"stateMutability": "view",
					"type": "function"
				},
				{
					"inputs": [
						{
							"internalType": "address",
							"name": "newOwner",
							"type": "address"
						}
					],
					"name": "transferOwnership",
					"outputs": [],
					"stateMutability": "nonpayable",
					"type": "function"
				},
				{
					"inputs": [],
					"name": "userClaimEmergency",
					"outputs": [
						{
							"internalType": "uint256",
							"name": "",
							"type": "uint256"
						}
					],
					"stateMutability": "view",
					"type": "function"
				},
				{
					"inputs": [
						{
							"internalType": "address",
							"name": "",
							"type": "address"
						}
					],
					"name": "userFee",
					"outputs": [
						{
							"internalType": "uint256",
							"name": "",
							"type": "uint256"
						}
					],
					"stateMutability": "view",
					"type": "function"
				}
			],
			"devdoc": {
				"kind": "dev",
				"methods": {
					"owner()": {
						"details": "Returns the address of the current owner."
					},
					"renounceOwnership()": {
						"details": "Leaves the contract without owner. It will not be possible to call `onlyOwner` functions anymore. Can only be called by the current owner. NOTE: Renouncing ownership will leave the contract without an owner, thereby removing any functionality that is only available to the owner."
					},
					"transferOwnership(address)": {
						"details": "Transfers ownership of the contract to a new account (`newOwner`). Can only be called by the current owner."
					}
				},
				"version": 1
			},
			"evm": {
				"assembly": "    /* \"Ethereum/Presale.sol\":370:7103  contract Presale is ReentrancyGuard, Ownable{\r... */\n  mstore(0x40, 0x80)\n    /* \"Utils/ReentrancyGuard.sol\":1734:1735  1 */\n  0x01\n    /* \"Utils/ReentrancyGuard.sol\":1845:1852  _status */\n  0x00\n    /* \"Utils/ReentrancyGuard.sol\":1845:1867  _status = _NOT_ENTERED */\n  sstore\n    /* \"Utils/Ownable.sol\":942:974  _transferOwnership(_msgSender()) */\n  tag_6\n    /* \"Utils/Ownable.sol\":961:973  _msgSender() */\n  tag_7\n    /* \"Utils/Ownable.sol\":961:971  _msgSender */\n  tag_8\n    /* \"Utils/Ownable.sol\":961:973  _msgSender() */\n  jump\t// in\ntag_7:\n    /* \"Utils/Ownable.sol\":942:960  _transferOwnership */\n  tag_9\n    /* \"Utils/Ownable.sol\":942:974  _transferOwnership(_msgSender()) */\n  jump\t// in\ntag_6:\n    /* \"Ethereum/Presale.sol\":2109:2113  WETH */\n  0x19\n    /* \"Ethereum/Presale.sol\":2109:2165  WETH = ERC20(0xc778417E063141139Fce010982780140Aa0cD5Ab) */\n  dup1\n  sload\n    /* \"Ethereum/Presale.sol\":2122:2164  0xc778417E063141139Fce010982780140Aa0cD5Ab */\n  0xc778417e063141139fce010982780140aa0cd5ab\n  not(sub(shl(0xa0, 0x01), 0x01))\n    /* \"Ethereum/Presale.sol\":2109:2165  WETH = ERC20(0xc778417E063141139Fce010982780140Aa0cD5Ab) */\n  swap1\n  swap2\n  and\n  or\n  swap1\n  sstore\n    /* \"Ethereum/Presale.sol\":2176:2230  admins.add(0x6Ccb41eedA5a073076F3E7dC1614C185b5fA41eD) */\n  tag_11\n    /* \"Ethereum/Presale.sol\":2176:2182  admins */\n  0x1b\n    /* \"Ethereum/Presale.sol\":2187:2229  0x6Ccb41eedA5a073076F3E7dC1614C185b5fA41eD */\n  0x6ccb41eeda5a073076f3e7dc1614c185b5fa41ed\n    /* \"Ethereum/Presale.sol\":2176:2186  admins.add */\n  tag_12\n  0x20\n  swap1\n  dup2\n  shl\n  tag_0_105\n  or\n    /* \"Ethereum/Presale.sol\":2176:2230  admins.add(0x6Ccb41eedA5a073076F3E7dC1614C185b5fA41eD) */\n  swap1\n  shr\n  jump\t// in\ntag_11:\n  pop\n    /* \"Ethereum/Presale.sol\":2241:2295  admins.add(0x4f0B12bBF40Fc182559822A5b1dB6D34dbC3E016) */\n  tag_13\n    /* \"Ethereum/Presale.sol\":2252:2294  0x4f0B12bBF40Fc182559822A5b1dB6D34dbC3E016 */\n  0x4f0b12bbf40fc182559822a5b1db6d34dbc3e016\n    /* \"Ethereum/Presale.sol\":2241:2247  admins */\n  0x1b\n    /* \"Ethereum/Presale.sol\":2241:2251  admins.add */\n  or(tag_0_105, shl(0x20, tag_12))\n  swap1\n    /* \"Ethereum/Presale.sol\":2241:2295  admins.add(0x4f0B12bBF40Fc182559822A5b1dB6D34dbC3E016) */\n  swap2\n  swap1\n  0x20\n  shr\n  jump\t// in\ntag_13:\n  pop\n    /* \"Ethereum/Presale.sol\":2318:2320  20 */\n  0x14\n    /* \"Ethereum/Presale.sol\":2306:2315  feeAnyone */\n  0x1a\n    /* \"Ethereum/Presale.sol\":2306:2320  feeAnyone = 20 */\n  sstore\n    /* \"Ethereum/Presale.sol\":370:7103  contract Presale is ReentrancyGuard, Ownable{\r... */\n  jump(tag_14)\n    /* \"Utils/Context.sol\":656:754  function _msgSender() internal view virtual returns (address) {\r... */\ntag_8:\n    /* \"Utils/Context.sol\":736:746  msg.sender */\n  caller\n    /* \"Utils/Context.sol\":656:754  function _msgSender() internal view virtual returns (address) {\r... */\n  swap1\n  jump\t// out\n    /* \"Utils/Ownable.sol\":2333:2524  function _transferOwnership(address newOwner) internal virtual {\r... */\ntag_9:\n    /* \"Utils/Ownable.sol\":2426:2432  _owner */\n  0x01\n  dup1\n  sload\n  sub(shl(0xa0, 0x01), 0x01)\n    /* \"Utils/Ownable.sol\":2443:2460  _owner = newOwner */\n  dup4\n  dup2\n  and\n  not(sub(shl(0xa0, 0x01), 0x01))\n  dup4\n  and\n  dup2\n  or\n  swap1\n  swap4\n  sstore\n    /* \"Utils/Ownable.sol\":2476:2516  OwnershipTransferred(oldOwner, newOwner) */\n  mload(0x40)\n    /* \"Utils/Ownable.sol\":2426:2432  _owner */\n  swap2\n  and\n  swap2\n    /* \"Utils/Ownable.sol\":2443:2460  _owner = newOwner */\n  swap1\n    /* \"Utils/Ownable.sol\":2426:2432  _owner */\n  dup3\n  swap1\n    /* \"Utils/Ownable.sol\":2476:2516  OwnershipTransferred(oldOwner, newOwner) */\n  0x8be0079c531659141344cd1fd0a4f28419497f9722a3daafe3b4186f6b6457e0\n  swap1\n    /* \"Utils/Ownable.sol\":2407:2423  address oldOwner */\n  0x00\n  swap1\n    /* \"Utils/Ownable.sol\":2476:2516  OwnershipTransferred(oldOwner, newOwner) */\n  log3\n    /* \"Utils/Ownable.sol\":2333:2524  function _transferOwnership(address newOwner) internal virtual {\r... */\n  pop\n  pop\n  jump\t// out\n    /* \"Utils/EnumerableSet.sol\":8259:8411  function add(AddressSet storage set, address value) internal returns (bool) {\r... */\ntag_12:\n    /* \"Utils/EnumerableSet.sol\":8329:8333  bool */\n  0x00\n    /* \"Utils/EnumerableSet.sol\":8353:8403  _add(set._inner, bytes32(uint256(uint160(value)))) */\n  tag_18\n    /* \"Utils/EnumerableSet.sol\":8358:8361  set */\n  dup4\n  sub(shl(0xa0, 0x01), 0x01)\n    /* \"Utils/EnumerableSet.sol\":8378:8401  uint256(uint160(value)) */\n  dup5\n  and\n    /* \"Utils/EnumerableSet.sol\":8353:8357  _add */\n  tag_19\n    /* \"Utils/EnumerableSet.sol\":8353:8403  _add(set._inner, bytes32(uint256(uint160(value)))) */\n  jump\t// in\ntag_18:\n    /* \"Utils/EnumerableSet.sol\":8346:8403  return _add(set._inner, bytes32(uint256(uint160(value)))) */\n  swap1\n  pop\n    /* \"Utils/EnumerableSet.sol\":8259:8411  function add(AddressSet storage set, address value) internal returns (bool) {\r... */\ntag_17:\n  swap3\n  swap2\n  pop\n  pop\n  jump\t// out\n    /* \"Utils/EnumerableSet.sol\":2174:2588  function _add(Set storage set, bytes32 value) private returns (bool) {\r... */\ntag_19:\n    /* \"Utils/EnumerableSet.sol\":2237:2241  bool */\n  0x00\n    /* \"Utils/EnumerableSet.sol\":2259:2280  _contains(set, value) */\n  tag_21\n    /* \"Utils/EnumerableSet.sol\":2269:2272  set */\n  dup4\n    /* \"Utils/EnumerableSet.sol\":2274:2279  value */\n  dup4\n    /* \"Utils/EnumerableSet.sol\":2259:2268  _contains */\n  tag_22\n    /* \"Utils/EnumerableSet.sol\":2259:2280  _contains(set, value) */\n  jump\t// in\ntag_21:\n    /* \"Utils/EnumerableSet.sol\":2254:2581  if (!_contains(set, value)) {\r... */\n  tag_23\n  jumpi\n  pop\n    /* \"Utils/EnumerableSet.sol\":2297:2320  set._values.push(value) */\n  dup2\n  sload\n  0x01\n  dup2\n  dup2\n  add\n  dup5\n  sstore\n    /* \"Utils/EnumerableSet.sol\":2297:2308  set._values */\n  0x00\n    /* \"Utils/EnumerableSet.sol\":2297:2320  set._values.push(value) */\n  dup5\n  dup2\n  mstore\n  0x20\n  dup1\n  dup3\n  keccak256\n  swap1\n  swap4\n  add\n  dup5\n  swap1\n  sstore\n    /* \"Utils/EnumerableSet.sol\":2480:2498  set._values.length */\n  dup5\n  sload\n    /* \"Utils/EnumerableSet.sol\":2458:2477  set._indexes[value] */\n  dup5\n  dup3\n  mstore\n    /* \"Utils/EnumerableSet.sol\":2458:2470  set._indexes */\n  dup3\n  dup7\n  add\n    /* \"Utils/EnumerableSet.sol\":2458:2477  set._indexes[value] */\n  swap1\n  swap4\n  mstore\n  0x40\n  swap1\n  keccak256\n    /* \"Utils/EnumerableSet.sol\":2458:2498  set._indexes[value] = set._values.length */\n  swap2\n  swap1\n  swap2\n  sstore\n    /* \"Utils/EnumerableSet.sol\":2513:2524  return true */\n  jump(tag_17)\n    /* \"Utils/EnumerableSet.sol\":2254:2581  if (!_contains(set, value)) {\r... */\ntag_23:\n  pop\n    /* \"Utils/EnumerableSet.sol\":2564:2569  false */\n  0x00\n    /* \"Utils/EnumerableSet.sol\":2557:2569  return false */\n  jump(tag_17)\n    /* \"Utils/EnumerableSet.sol\":4270:4399  function _contains(Set storage set, bytes32 value) private view returns (bool) {\r... */\ntag_22:\n    /* \"Utils/EnumerableSet.sol\":4343:4347  bool */\n  0x00\n    /* \"Utils/EnumerableSet.sol\":4367:4386  set._indexes[value] */\n  swap1\n  dup2\n  mstore\n    /* \"Utils/EnumerableSet.sol\":4367:4379  set._indexes */\n  0x01\n  swap2\n  swap1\n  swap2\n  add\n    /* \"Utils/EnumerableSet.sol\":4367:4386  set._indexes[value] */\n  0x20\n  mstore\n  0x40\n  swap1\n  keccak256\n  sload\n    /* \"Utils/EnumerableSet.sol\":4367:4391  set._indexes[value] != 0 */\n  iszero\n  iszero\n  swap1\n    /* \"Utils/EnumerableSet.sol\":4270:4399  function _contains(Set storage set, bytes32 value) private view returns (bool) {\r... */\n  jump\t// out\n    /* \"Ethereum/Presale.sol\":370:7103  contract Presale is ReentrancyGuard, Ownable{\r... */\ntag_14:\n  dataSize(sub_0)\n  dup1\n  dataOffset(sub_0)\n  0x00\n  codecopy\n  0x00\n  return\nstop\n\nsub_0: assembly {\n        /* \"Ethereum/Presale.sol\":370:7103  contract Presale is ReentrancyGuard, Ownable{\r... */\n      mstore(0x40, 0x80)\n      jumpi(tag_1, lt(calldatasize, 0x04))\n      shr(0xe0, calldataload(0x00))\n      dup1\n      0x8f1eae4c\n      gt\n      tag_20\n      jumpi\n      dup1\n      0xb6b55f25\n      gt\n      tag_21\n      jumpi\n      dup1\n      0xb6b55f25\n      eq\n      tag_15\n      jumpi\n      dup1\n      0xcad5b0f7\n      eq\n      tag_16\n      jumpi\n      dup1\n      0xe2d3f423\n      eq\n      tag_17\n      jumpi\n      dup1\n      0xf2fde38b\n      eq\n      tag_18\n      jumpi\n      dup1\n      0xf8b2cb4f\n      eq\n      tag_19\n      jumpi\n      jump(tag_1)\n    tag_21:\n      dup1\n      0x8f1eae4c\n      eq\n      tag_11\n      jumpi\n      dup1\n      0xab33985a\n      eq\n      tag_12\n      jumpi\n      dup1\n      0xacfb2355\n      eq\n      tag_13\n      jumpi\n      dup1\n      0xad5c4648\n      eq\n      tag_14\n      jumpi\n      jump(tag_1)\n    tag_20:\n      dup1\n      0x3b5ef2ad\n      gt\n      tag_22\n      jumpi\n      dup1\n      0x3b5ef2ad\n      eq\n      tag_6\n      jumpi\n      dup1\n      0x56c5f349\n      eq\n      tag_7\n      jumpi\n      dup1\n      0x715018a6\n      eq\n      tag_8\n      jumpi\n      dup1\n      0x861faf5f\n      eq\n      tag_9\n      jumpi\n      dup1\n      0x8da5cb5b\n      eq\n      tag_10\n      jumpi\n      jump(tag_1)\n    tag_22:\n      dup1\n      0x12e5d0b9\n      eq\n      tag_2\n      jumpi\n      dup1\n      0x18856a2f\n      eq\n      tag_3\n      jumpi\n      dup1\n      0x1df4ccfc\n      eq\n      tag_4\n      jumpi\n      dup1\n      0x200d2ed2\n      eq\n      tag_5\n      jumpi\n    tag_1:\n      0x00\n      dup1\n      revert\n        /* \"Ethereum/Presale.sol\":1623:1661  SaleTotalSupply public saleTotalSupply */\n    tag_2:\n      callvalue\n      dup1\n      iszero\n      tag_23\n      jumpi\n      0x00\n      dup1\n      revert\n    tag_23:\n      pop\n      tag_24\n      tag_25\n      jump\t// in\n    tag_24:\n      mload(0x40)\n      tag_26\n      swap3\n      swap2\n      swap1\n      tag_27\n      jump\t// in\n    tag_26:\n      mload(0x40)\n      dup1\n      swap2\n      sub\n      swap1\n      return\n        /* \"Ethereum/Presale.sol\":1668:1694  SaleInfor public saleInfor */\n    tag_3:\n      callvalue\n      dup1\n      iszero\n      tag_28\n      jumpi\n      0x00\n      dup1\n      revert\n    tag_28:\n      pop\n      tag_29\n      tag_30\n      jump\t// in\n    tag_29:\n      mload(0x40)\n      tag_26\n      swap13\n      swap12\n      swap11\n      swap10\n      swap9\n      swap8\n      swap7\n      swap6\n      swap5\n      swap4\n      swap3\n      swap2\n      swap1\n      tag_32\n      jump\t// in\n        /* \"Ethereum/Presale.sol\":1804:1827  uint256 public totalFee */\n    tag_4:\n      callvalue\n      dup1\n      iszero\n      tag_33\n      jumpi\n      0x00\n      dup1\n      revert\n    tag_33:\n      pop\n      tag_34\n      tag_35\n      jump\t// in\n    tag_34:\n      mload(0x40)\n      tag_26\n      swap2\n      swap1\n      tag_37\n      jump\t// in\n        /* \"Ethereum/Presale.sol\":3330:3667  function status() public view returns(uint256) {\r... */\n    tag_5:\n      callvalue\n      dup1\n      iszero\n      tag_38\n      jumpi\n      0x00\n      dup1\n      revert\n    tag_38:\n      pop\n      tag_34\n      tag_40\n      jump\t// in\n        /* \"Ethereum/Presale.sol\":1726:1750  uint256 public feeAnyone */\n    tag_6:\n      callvalue\n      dup1\n      iszero\n      tag_42\n      jumpi\n      0x00\n      dup1\n      revert\n    tag_42:\n      pop\n      tag_34\n      tag_44\n      jump\t// in\n        /* \"Ethereum/Presale.sol\":1533:1575  mapping(address => uint256) public userFee */\n    tag_7:\n      callvalue\n      dup1\n      iszero\n      tag_46\n      jumpi\n      0x00\n      dup1\n      revert\n    tag_46:\n      pop\n      tag_34\n      tag_48\n      calldatasize\n      0x04\n      tag_49\n      jump\t// in\n    tag_48:\n      tag_50\n      jump\t// in\n        /* \"Utils/Ownable.sol\":1714:1817  function renounceOwnership() public virtual onlyOwner {\r... */\n    tag_8:\n      callvalue\n      dup1\n      iszero\n      tag_52\n      jumpi\n      0x00\n      dup1\n      revert\n    tag_52:\n      pop\n      tag_53\n      tag_54\n      jump\t// in\n    tag_53:\n      stop\n        /* \"Ethereum/Presale.sol\":6992:7100  function backToken() external payable {\r... */\n    tag_9:\n      tag_53\n      tag_56\n      jump\t// in\n        /* \"Utils/Ownable.sol\":1063:1150  function owner() public view virtual returns (address) {\r... */\n    tag_10:\n      callvalue\n      dup1\n      iszero\n      tag_57\n      jumpi\n      0x00\n      dup1\n      revert\n    tag_57:\n      pop\n      tag_58\n      tag_59\n      jump\t// in\n    tag_58:\n      mload(0x40)\n      tag_26\n      swap2\n      swap1\n      tag_61\n      jump\t// in\n        /* \"Ethereum/Presale.sol\":2336:3321  function initialSaleInfor(\r... */\n    tag_11:\n      callvalue\n      dup1\n      iszero\n      tag_62\n      jumpi\n      0x00\n      dup1\n      revert\n    tag_62:\n      pop\n      tag_53\n      tag_64\n      calldatasize\n      0x04\n      tag_65\n      jump\t// in\n    tag_64:\n      tag_66\n      jump\t// in\n        /* \"Ethereum/Presale.sol\":5928:6862  function userClaimEmergency() external view returns(uint256) {\r... */\n    tag_12:\n      callvalue\n      dup1\n      iszero\n      tag_67\n      jumpi\n      0x00\n      dup1\n      revert\n    tag_67:\n      pop\n      tag_34\n      tag_69\n      jump\t// in\n        /* \"Ethereum/Presale.sol\":1582:1616  PresaleStatus public presaleStatus */\n    tag_13:\n      callvalue\n      dup1\n      iszero\n      tag_71\n      jumpi\n      0x00\n      dup1\n      revert\n    tag_71:\n      pop\n      tag_72\n      tag_73\n      jump\t// in\n    tag_72:\n      mload(0x40)\n      tag_26\n      swap7\n      swap6\n      swap5\n      swap4\n      swap3\n      swap2\n      swap1\n      tag_75\n      jump\t// in\n        /* \"Ethereum/Presale.sol\":1701:1719  IERC20 public WETH */\n    tag_14:\n      callvalue\n      dup1\n      iszero\n      tag_76\n      jumpi\n      0x00\n      dup1\n      revert\n    tag_76:\n      pop\n      tag_58\n      tag_78\n      jump\t// in\n        /* \"Ethereum/Presale.sol\":3794:5920  function deposit(uint256 _amount) external payable nonReentrant {\r... */\n    tag_15:\n      tag_53\n      tag_82\n      calldatasize\n      0x04\n      tag_83\n      jump\t// in\n    tag_82:\n      tag_84\n      jump\t// in\n        /* \"Ethereum/Presale.sol\":3676:3786  function checkAdminAddress() public view returns(bool) {\r... */\n    tag_16:\n      callvalue\n      dup1\n      iszero\n      tag_85\n      jumpi\n      0x00\n      dup1\n      revert\n    tag_85:\n      pop\n      tag_86\n      tag_87\n      jump\t// in\n    tag_86:\n      mload(0x40)\n      tag_26\n      swap2\n      swap1\n      tag_89\n      jump\t// in\n        /* \"Ethereum/Presale.sol\":1480:1526  mapping(address => BuyerInfo) public buyerInfo */\n    tag_17:\n      callvalue\n      dup1\n      iszero\n      tag_90\n      jumpi\n      0x00\n      dup1\n      revert\n    tag_90:\n      pop\n      tag_91\n      tag_92\n      calldatasize\n      0x04\n      tag_49\n      jump\t// in\n    tag_92:\n      tag_93\n      jump\t// in\n    tag_91:\n      mload(0x40)\n      tag_26\n      swap7\n      swap6\n      swap5\n      swap4\n      swap3\n      swap2\n      swap1\n      tag_95\n      jump\t// in\n        /* \"Utils/Ownable.sol\":1972:2173  function transferOwnership(address newOwner) public virtual onlyOwner {\r... */\n    tag_18:\n      callvalue\n      dup1\n      iszero\n      tag_96\n      jumpi\n      0x00\n      dup1\n      revert\n    tag_96:\n      pop\n      tag_53\n      tag_98\n      calldatasize\n      0x04\n      tag_49\n      jump\t// in\n    tag_98:\n      tag_99\n      jump\t// in\n        /* \"Ethereum/Presale.sol\":6870:6981  function getBalance(address _address) external view returns(uint256) {\r... */\n    tag_19:\n      callvalue\n      dup1\n      iszero\n      tag_100\n      jumpi\n      0x00\n      dup1\n      revert\n    tag_100:\n      pop\n      tag_34\n      tag_102\n      calldatasize\n      0x04\n      tag_49\n      jump\t// in\n    tag_102:\n      tag_103\n      jump\t// in\n        /* \"Ethereum/Presale.sol\":1623:1661  SaleTotalSupply public saleTotalSupply */\n    tag_25:\n      sload(0x0b)\n      sload(0x0c)\n      dup3\n      jump\t// out\n        /* \"Ethereum/Presale.sol\":1668:1694  SaleInfor public saleInfor */\n    tag_30:\n      sload(0x0d)\n      sload(0x0e)\n      sload(0x0f)\n      sload(0x10)\n      sload(0x11)\n      sload(0x12)\n      sload(0x13)\n      sload(0x14)\n      sload(0x15)\n      sload(0x16)\n      sload(0x17)\n      sload(0x18)\n      sub(shl(0xa0, 0x01), 0x01)\n      swap12\n      dup13\n      and\n      swap12\n      swap11\n      dup12\n      and\n      swap11\n      swap1\n      swap10\n      and\n      swap9\n      0xff\n      swap1\n      swap2\n      and\n      swap1\n      dup13\n      jump\t// out\n        /* \"Ethereum/Presale.sol\":1804:1827  uint256 public totalFee */\n    tag_35:\n      sload(0x1d)\n      dup2\n      jump\t// out\n        /* \"Ethereum/Presale.sol\":3330:3667  function status() public view returns(uint256) {\r... */\n    tag_40:\n        /* \"Ethereum/Presale.sol\":3409:3428  saleInfor.startSale */\n      sload(0x11)\n        /* \"Ethereum/Presale.sol\":3368:3375  uint256 */\n      0x00\n      swap1\n        /* \"Ethereum/Presale.sol\":3391:3406  block.timestamp */\n      timestamp\n        /* \"Ethereum/Presale.sol\":3391:3428  block.timestamp < saleInfor.startSale */\n      lt\n        /* \"Ethereum/Presale.sol\":3388:3660  if(block.timestamp < saleInfor.startSale) {\r... */\n      iszero\n      tag_107\n      jumpi\n      pop\n        /* \"Ethereum/Presale.sol\":3452:3453  0 */\n      0x00\n        /* \"Ethereum/Presale.sol\":3445:3453  return 0 */\n      jump(tag_110)\n        /* \"Ethereum/Presale.sol\":3388:3660  if(block.timestamp < saleInfor.startSale) {\r... */\n    tag_107:\n        /* \"Ethereum/Presale.sol\":3519:3536  saleInfor.endSale */\n      sload(0x12)\n        /* \"Ethereum/Presale.sol\":3501:3516  block.timestamp */\n      timestamp\n        /* \"Ethereum/Presale.sol\":3501:3536  block.timestamp > saleInfor.endSale */\n      gt\n        /* \"Ethereum/Presale.sol\":3498:3649  if(block.timestamp > saleInfor.endSale) {\r... */\n      iszero\n      tag_109\n      jumpi\n      pop\n        /* \"Ethereum/Presale.sol\":3564:3565  2 */\n      0x02\n        /* \"Ethereum/Presale.sol\":3557:3565  return 2 */\n      jump(tag_110)\n        /* \"Ethereum/Presale.sol\":3498:3649  if(block.timestamp > saleInfor.endSale) {\r... */\n    tag_109:\n      pop\n        /* \"Ethereum/Presale.sol\":3622:3623  1 */\n      0x01\n        /* \"Ethereum/Presale.sol\":3498:3649  if(block.timestamp > saleInfor.endSale) {\r... */\n    tag_110:\n        /* \"Ethereum/Presale.sol\":3330:3667  function status() public view returns(uint256) {\r... */\n      swap1\n      jump\t// out\n        /* \"Ethereum/Presale.sol\":1726:1750  uint256 public feeAnyone */\n    tag_44:\n      sload(0x1a)\n      dup2\n      jump\t// out\n        /* \"Ethereum/Presale.sol\":1533:1575  mapping(address => uint256) public userFee */\n    tag_50:\n      mstore(0x20, 0x03)\n      0x00\n      swap1\n      dup2\n      mstore\n      0x40\n      swap1\n      keccak256\n      sload\n      dup2\n      jump\t// out\n        /* \"Utils/Ownable.sol\":1714:1817  function renounceOwnership() public virtual onlyOwner {\r... */\n    tag_54:\n        /* \"Utils/Ownable.sol\":1294:1306  _msgSender() */\n      tag_112\n        /* \"Utils/Ownable.sol\":1294:1304  _msgSender */\n      tag_113\n        /* \"Utils/Ownable.sol\":1294:1306  _msgSender() */\n      jump\t// in\n    tag_112:\n      sub(shl(0xa0, 0x01), 0x01)\n        /* \"Utils/Ownable.sol\":1283:1306  owner() == _msgSender() */\n      and\n        /* \"Utils/Ownable.sol\":1283:1290  owner() */\n      tag_114\n        /* \"Utils/Ownable.sol\":1283:1288  owner */\n      tag_59\n        /* \"Utils/Ownable.sol\":1283:1290  owner() */\n      jump\t// in\n    tag_114:\n      sub(shl(0xa0, 0x01), 0x01)\n        /* \"Utils/Ownable.sol\":1283:1306  owner() == _msgSender() */\n      and\n      eq\n        /* \"Utils/Ownable.sol\":1275:1343  require(owner() == _msgSender(), \"Ownable: caller is not the owner\") */\n      tag_115\n      jumpi\n      mload(0x40)\n      shl(0xe5, 0x461bcd)\n      dup2\n      mstore\n      0x04\n      add\n      tag_116\n      swap1\n      tag_117\n      jump\t// in\n    tag_116:\n      mload(0x40)\n      dup1\n      swap2\n      sub\n      swap1\n      revert\n    tag_115:\n        /* \"Utils/Ownable.sol\":1779:1809  _transferOwnership(address(0)) */\n      tag_119\n        /* \"Utils/Ownable.sol\":1806:1807  0 */\n      0x00\n        /* \"Utils/Ownable.sol\":1779:1797  _transferOwnership */\n      tag_120\n        /* \"Utils/Ownable.sol\":1779:1809  _transferOwnership(address(0)) */\n      jump\t// in\n    tag_119:\n        /* \"Utils/Ownable.sol\":1714:1817  function renounceOwnership() public virtual onlyOwner {\r... */\n      jump\t// out\n        /* \"Ethereum/Presale.sol\":6992:7100  function backToken() external payable {\r... */\n    tag_56:\n        /* \"Ethereum/Presale.sol\":7041:7092  payable(msg.sender).transfer(address(this).balance) */\n      mload(0x40)\n        /* \"Ethereum/Presale.sol\":7049:7059  msg.sender */\n      caller\n      swap1\n        /* \"Ethereum/Presale.sol\":7070:7091  address(this).balance */\n      selfbalance\n        /* \"Ethereum/Presale.sol\":7041:7092  payable(msg.sender).transfer(address(this).balance) */\n      dup1\n      iszero\n      0x08fc\n      mul\n      swap2\n      0x00\n      dup2\n      dup2\n      dup2\n        /* \"Ethereum/Presale.sol\":7070:7091  address(this).balance */\n      dup6\n        /* \"Ethereum/Presale.sol\":7049:7059  msg.sender */\n      dup9\n        /* \"Ethereum/Presale.sol\":7041:7092  payable(msg.sender).transfer(address(this).balance) */\n      dup9\n      call\n      swap4\n      pop\n      pop\n      pop\n      pop\n      iszero\n      dup1\n      iszero\n      tag_123\n      jumpi\n      returndatasize\n      0x00\n      dup1\n      returndatacopy\n      revert(0x00, returndatasize)\n    tag_123:\n      pop\n        /* \"Ethereum/Presale.sol\":6992:7100  function backToken() external payable {\r... */\n      jump\t// out\n        /* \"Utils/Ownable.sol\":1063:1150  function owner() public view virtual returns (address) {\r... */\n    tag_59:\n        /* \"Utils/Ownable.sol\":1136:1142  _owner */\n      and(sub(shl(0xa0, 0x01), 0x01), sload(0x01))\n        /* \"Utils/Ownable.sol\":1063:1150  function owner() public view virtual returns (address) {\r... */\n      swap1\n      jump\t// out\n        /* \"Ethereum/Presale.sol\":2336:3321  function initialSaleInfor(\r... */\n    tag_66:\n        /* \"Ethereum/Presale.sol\":2517:2526  saleInfor */\n      0x0d\n        /* \"Ethereum/Presale.sol\":2517:2555  saleInfor.presaleOwner = _presaleOwner */\n      dup1\n      sload\n      sub(shl(0xa0, 0x01), 0x01)\n      dup1\n      dup8\n      and\n      not(sub(shl(0xa0, 0x01), 0x01))\n      swap3\n      dup4\n      and\n      or\n      swap1\n      swap3\n      sstore\n        /* \"Ethereum/Presale.sol\":2566:2585  saleInfor.saleToken */\n      0x0e\n        /* \"Ethereum/Presale.sol\":2566:2598  saleInfor.saleToken = _saleToken */\n      dup1\n      sload\n      dup7\n      dup5\n      and\n      swap1\n      dup4\n      and\n      or\n      swap1\n      dup2\n      swap1\n      sstore\n        /* \"Ethereum/Presale.sol\":2609:2628  saleInfor.baseToken */\n      0x0f\n        /* \"Ethereum/Presale.sol\":2609:2641  saleInfor.baseToken = _baseTOken */\n      dup1\n      sload\n      dup7\n      dup6\n      and\n      swap4\n      and\n      swap3\n      swap1\n      swap3\n      or\n      swap1\n      swap2\n      sstore\n        /* \"Ethereum/Presale.sol\":2699:2736  ERC20(saleInfor.saleToken).decimals() */\n      0x40\n      dup1\n      mload\n      shl(0xe0, 0x313ce567)\n      dup2\n      mstore\n      swap1\n      mload\n        /* \"Ethereum/Presale.sol\":2705:2724  saleInfor.saleToken */\n      swap2\n      swap1\n      swap3\n      and\n      swap2\n        /* \"Ethereum/Presale.sol\":2699:2734  ERC20(saleInfor.saleToken).decimals */\n      0x313ce567\n      swap2\n        /* \"Ethereum/Presale.sol\":2699:2736  ERC20(saleInfor.saleToken).decimals() */\n      0x04\n      dup1\n      dup4\n      add\n      swap3\n      0x20\n      swap3\n      swap2\n      swap1\n      dup3\n      swap1\n      sub\n      add\n      dup2\n        /* \"Ethereum/Presale.sol\":2705:2724  saleInfor.saleToken */\n      dup7\n        /* \"Ethereum/Presale.sol\":2699:2736  ERC20(saleInfor.saleToken).decimals() */\n      dup1\n      extcodesize\n      iszero\n      dup1\n      iszero\n      tag_126\n      jumpi\n      0x00\n      dup1\n      revert\n    tag_126:\n      pop\n      gas\n      staticcall\n      iszero\n      dup1\n      iszero\n      tag_128\n      jumpi\n      returndatasize\n      0x00\n      dup1\n      returndatacopy\n      revert(0x00, returndatasize)\n    tag_128:\n      pop\n      pop\n      pop\n      pop\n      mload(0x40)\n      returndatasize\n      not(0x1f)\n      0x1f\n      dup3\n      add\n      and\n      dup3\n      add\n      dup1\n      0x40\n      mstore\n      pop\n      dup2\n      add\n      swap1\n      tag_129\n      swap2\n      swap1\n      tag_130\n      jump\t// in\n    tag_129:\n        /* \"Ethereum/Presale.sol\":2686:2737  10** uint256(ERC20(saleInfor.saleToken).decimals()) */\n      tag_131\n      swap1\n        /* \"Ethereum/Presale.sol\":2686:2688  10 */\n      0x0a\n        /* \"Ethereum/Presale.sol\":2686:2737  10** uint256(ERC20(saleInfor.saleToken).decimals()) */\n      tag_132\n      jump\t// in\n    tag_131:\n        /* \"Ethereum/Presale.sol\":2675:2683  datas[0] */\n      dup2\n      mload\n        /* \"Ethereum/Presale.sol\":2675:2737  datas[0] * 10** uint256(ERC20(saleInfor.saleToken).decimals()) */\n      tag_134\n      swap2\n      swap1\n      tag_135\n      jump\t// in\n    tag_134:\n        /* \"Ethereum/Presale.sol\":2652:2672  saleInfor.tokenPrice */\n      0x10\n        /* \"Ethereum/Presale.sol\":2652:2737  saleInfor.tokenPrice = datas[0] * 10** uint256(ERC20(saleInfor.saleToken).decimals()) */\n      sstore\n        /* \"Ethereum/Presale.sol\":2770:2778  datas[1] */\n      0x20\n      dup1\n      dup3\n      add\n      mload\n        /* \"Ethereum/Presale.sol\":2748:2767  saleInfor.startSale */\n      0x11\n        /* \"Ethereum/Presale.sol\":2748:2778  saleInfor.startSale = datas[1] */\n      sstore\n        /* \"Ethereum/Presale.sol\":2809:2817  datas[2] */\n      0x40\n      dup1\n      dup4\n      add\n      mload\n        /* \"Ethereum/Presale.sol\":2789:2806  saleInfor.endSale */\n      0x12\n        /* \"Ethereum/Presale.sol\":2789:2817  saleInfor.endSale = datas[2] */\n      sstore\n        /* \"Ethereum/Presale.sol\":2857:2865  datas[3] */\n      0x60\n      dup4\n      add\n      mload\n        /* \"Ethereum/Presale.sol\":2828:2854  saleInfor.minSpendPerBuyer */\n      0x13\n        /* \"Ethereum/Presale.sol\":2828:2865  saleInfor.minSpendPerBuyer = datas[3] */\n      sstore\n        /* \"Ethereum/Presale.sol\":2935:2954  saleInfor.baseToken */\n      sload(0x0f)\n        /* \"Ethereum/Presale.sol\":2929:2966  ERC20(saleInfor.baseToken).decimals() */\n      dup2\n      mload\n      shl(0xe0, 0x313ce567)\n      dup2\n      mstore\n      swap2\n      mload\n      sub(shl(0xa0, 0x01), 0x01)\n        /* \"Ethereum/Presale.sol\":2935:2954  saleInfor.baseToken */\n      swap1\n      swap2\n      and\n      swap3\n        /* \"Ethereum/Presale.sol\":2929:2964  ERC20(saleInfor.baseToken).decimals */\n      0x313ce567\n      swap3\n        /* \"Ethereum/Presale.sol\":2929:2966  ERC20(saleInfor.baseToken).decimals() */\n      0x04\n      dup1\n      dup3\n      add\n      swap4\n      swap2\n      dup3\n      swap1\n      sub\n      add\n      dup2\n        /* \"Ethereum/Presale.sol\":2935:2954  saleInfor.baseToken */\n      dup7\n        /* \"Ethereum/Presale.sol\":2929:2966  ERC20(saleInfor.baseToken).decimals() */\n      dup1\n      extcodesize\n      iszero\n      dup1\n      iszero\n      tag_139\n      jumpi\n      0x00\n      dup1\n      revert\n    tag_139:\n      pop\n      gas\n      staticcall\n      iszero\n      dup1\n      iszero\n      tag_141\n      jumpi\n      returndatasize\n      0x00\n      dup1\n      returndatacopy\n      revert(0x00, returndatasize)\n    tag_141:\n      pop\n      pop\n      pop\n      pop\n      mload(0x40)\n      returndatasize\n      not(0x1f)\n      0x1f\n      dup3\n      add\n      and\n      dup3\n      add\n      dup1\n      0x40\n      mstore\n      pop\n      dup2\n      add\n      swap1\n      tag_142\n      swap2\n      swap1\n      tag_130\n      jump\t// in\n    tag_142:\n        /* \"Ethereum/Presale.sol\":2916:2967  10** uint256(ERC20(saleInfor.baseToken).decimals()) */\n      tag_143\n      swap1\n        /* \"Ethereum/Presale.sol\":2916:2918  10 */\n      0x0a\n        /* \"Ethereum/Presale.sol\":2916:2967  10** uint256(ERC20(saleInfor.baseToken).decimals()) */\n      tag_132\n      jump\t// in\n    tag_143:\n        /* \"Ethereum/Presale.sol\":2905:2913  datas[4] */\n      0x80\n      dup3\n      add\n      mload\n        /* \"Ethereum/Presale.sol\":2905:2967  datas[4] * 10** uint256(ERC20(saleInfor.baseToken).decimals()) */\n      tag_145\n      swap2\n      swap1\n      tag_135\n      jump\t// in\n    tag_145:\n        /* \"Ethereum/Presale.sol\":2876:2902  saleInfor.maxSpendPerBuyer */\n      0x14\n        /* \"Ethereum/Presale.sol\":2876:2967  saleInfor.maxSpendPerBuyer = datas[4] * 10** uint256(ERC20(saleInfor.baseToken).decimals()) */\n      sstore\n        /* \"Ethereum/Presale.sol\":3000:3008  datas[5] */\n      0xa0\n      dup2\n      add\n      mload\n        /* \"Ethereum/Presale.sol\":2978:2997  saleInfor.refundFee */\n      0x15\n        /* \"Ethereum/Presale.sol\":2978:3008  saleInfor.refundFee = datas[5] */\n      sstore\n        /* \"Ethereum/Presale.sol\":3040:3048  datas[6] */\n      0xc0\n      dup2\n      add\n      mload\n        /* \"Ethereum/Presale.sol\":3019:3037  saleInfor.claimFee */\n      0x16\n        /* \"Ethereum/Presale.sol\":3019:3048  saleInfor.claimFee = datas[6] */\n      sstore\n        /* \"Ethereum/Presale.sol\":3085:3093  datas[7] */\n      0xe0\n      dup2\n      add\n      mload\n        /* \"Ethereum/Presale.sol\":3059:3074  saleTotalSupply */\n      0x0b\n        /* \"Ethereum/Presale.sol\":3059:3093  saleTotalSupply.hardCap = datas[7] */\n      dup2\n      swap1\n      sstore\n        /* \"Ethereum/Presale.sol\":3130:3138  datas[8] */\n      0x0100\n      dup3\n      add\n      mload\n        /* \"Ethereum/Presale.sol\":3104:3127  saleTotalSupply.softCap */\n      0x0c\n        /* \"Ethereum/Presale.sol\":3104:3138  saleTotalSupply.softCap = datas[8] */\n      sstore\n        /* \"Ethereum/Presale.sol\":3202:3221  saleInfor.baseToken */\n      sload(0x0f)\n        /* \"Ethereum/Presale.sol\":3185:3189  WETH */\n      sload(0x19)\n        /* \"Ethereum/Presale.sol\":3149:3174  saleInfor.saleIsBaseToken */\n      0x17\n        /* \"Ethereum/Presale.sol\":3149:3222  saleInfor.saleIsBaseToken = address(WETH) == address(saleInfor.baseToken) */\n      dup1\n      sload\n      sub(shl(0xa0, 0x01), 0x01)\n        /* \"Ethereum/Presale.sol\":3202:3221  saleInfor.baseToken */\n      swap4\n      dup5\n      and\n        /* \"Ethereum/Presale.sol\":3185:3189  WETH */\n      swap4\n      swap1\n      swap3\n      and\n        /* \"Ethereum/Presale.sol\":3177:3222  address(WETH) == address(saleInfor.baseToken) */\n      swap3\n      swap1\n      swap3\n      eq\n      not(0xff)\n        /* \"Ethereum/Presale.sol\":3149:3222  saleInfor.saleIsBaseToken = address(WETH) == address(saleInfor.baseToken) */\n      swap1\n      swap2\n      and\n      or\n      swap1\n      sstore\n        /* \"Ethereum/Presale.sol\":3264:3284  saleInfor.tokenPrice */\n      sload(0x10)\n        /* \"Ethereum/Presale.sol\":3264:3313  saleInfor.tokenPrice.mul(saleTotalSupply.hardCap) */\n      tag_150\n      swap2\n        /* \"Ethereum/Presale.sol\":3264:3288  saleInfor.tokenPrice.mul */\n      tag_151\n        /* \"Ethereum/Presale.sol\":3264:3313  saleInfor.tokenPrice.mul(saleTotalSupply.hardCap) */\n      jump\t// in\n    tag_150:\n        /* \"Ethereum/Presale.sol\":3233:3261  saleInfor.amountTokenForSale */\n      0x18\n        /* \"Ethereum/Presale.sol\":3233:3313  saleInfor.amountTokenForSale = saleInfor.tokenPrice.mul(saleTotalSupply.hardCap) */\n      sstore\n      pop\n      pop\n      pop\n      pop\n        /* \"Ethereum/Presale.sol\":2336:3321  function initialSaleInfor(\r... */\n      jump\t// out\n        /* \"Ethereum/Presale.sol\":5928:6862  function userClaimEmergency() external view returns(uint256) {\r... */\n    tag_69:\n        /* \"Ethereum/Presale.sol\":5980:5987  uint256 */\n      0x00\n        /* \"Ethereum/Presale.sol\":6008:6016  status() */\n      tag_153\n        /* \"Ethereum/Presale.sol\":6008:6014  status */\n      tag_40\n        /* \"Ethereum/Presale.sol\":6008:6016  status() */\n      jump\t// in\n    tag_153:\n        /* \"Ethereum/Presale.sol\":6020:6021  1 */\n      0x01\n        /* \"Ethereum/Presale.sol\":6008:6021  status() == 1 */\n      eq\n        /* \"Ethereum/Presale.sol\":6000:6038  require(status() == 1, \"Sale sucesss\") */\n      tag_154\n      jumpi\n      mload(0x40)\n      shl(0xe5, 0x461bcd)\n      dup2\n      mstore\n      0x04\n      add\n      tag_116\n      swap1\n      tag_156\n      jump\t// in\n    tag_154:\n        /* \"Ethereum/Presale.sol\":6089:6121  presaleStatus.totalTokenWithDraw */\n      sload(0x06)\n        /* \"Ethereum/Presale.sol\":6058:6086  presaleStatus.totalTokenSold */\n      sload(0x05)\n        /* \"Ethereum/Presale.sol\":6124:6125  0 */\n      0x00\n      swap2\n        /* \"Ethereum/Presale.sol\":6058:6121  presaleStatus.totalTokenSold - presaleStatus.totalTokenWithDraw */\n      tag_157\n      swap2\n      tag_158\n      jump\t// in\n    tag_157:\n        /* \"Ethereum/Presale.sol\":6058:6125  presaleStatus.totalTokenSold - presaleStatus.totalTokenWithDraw > 0 */\n      gt\n        /* \"Ethereum/Presale.sol\":6050:6184  require(presaleStatus.totalTokenSold - presaleStatus.totalTokenWithDraw > 0, \r... */\n      tag_159\n      jumpi\n      mload(0x40)\n      shl(0xe5, 0x461bcd)\n      dup2\n      mstore\n      0x04\n      add\n      tag_116\n      swap1\n      tag_161\n      jump\t// in\n    tag_159:\n        /* \"Ethereum/Presale.sol\":6231:6241  msg.sender */\n      caller\n        /* \"Ethereum/Presale.sol\":6195:6218  BuyerInfo storage buyer */\n      0x00\n        /* \"Ethereum/Presale.sol\":6221:6242  buyerInfo[msg.sender] */\n      swap1\n      dup2\n      mstore\n        /* \"Ethereum/Presale.sol\":6221:6230  buyerInfo */\n      0x02\n        /* \"Ethereum/Presale.sol\":6221:6242  buyerInfo[msg.sender] */\n      0x20\n      mstore\n      0x40\n      swap1\n      keccak256\n        /* \"Ethereum/Presale.sol\":6261:6277  buyer.tokenOwner */\n      0x01\n      dup2\n      add\n      sload\n        /* \"Ethereum/Presale.sol\":6253:6325  require(buyer.tokenOwner > 0, \"You withdraw all or have not bought yet\") */\n      tag_162\n      jumpi\n      mload(0x40)\n      shl(0xe5, 0x461bcd)\n      dup2\n      mstore\n      0x04\n      add\n      tag_116\n      swap1\n      tag_164\n      jump\t// in\n    tag_162:\n        /* \"Ethereum/Presale.sol\":6419:6438  uint256 amountClaim */\n      0x00\n        /* \"Ethereum/Presale.sol\":6441:6577  ((uint256(1000).sub(saleInfor.claimFee))\r... */\n      tag_165\n        /* \"Ethereum/Presale.sol\":6571:6575  1000 */\n      0x03e8\n        /* \"Ethereum/Presale.sol\":6442:6530  (uint256(1000).sub(saleInfor.claimFee))\r... */\n      tag_166\n        /* \"Ethereum/Presale.sol\":6513:6518  buyer */\n      dup5\n        /* \"Ethereum/Presale.sol\":6513:6529  buyer.tokenOwner */\n      0x01\n      add\n      sload\n        /* \"Ethereum/Presale.sol\":6443:6480  uint256(1000).sub(saleInfor.claimFee) */\n      tag_167\n        /* \"Ethereum/Presale.sol\":6461:6470  saleInfor */\n      0x0d\n        /* \"Ethereum/Presale.sol\":6461:6479  saleInfor.claimFee */\n      0x09\n      add\n      sload\n        /* \"Ethereum/Presale.sol\":6451:6455  1000 */\n      0x03e8\n        /* \"Ethereum/Presale.sol\":6443:6460  uint256(1000).sub */\n      tag_168\n      swap1\n        /* \"Ethereum/Presale.sol\":6443:6480  uint256(1000).sub(saleInfor.claimFee) */\n      swap2\n      swap1\n      0xffffffff\n      and\n      jump\t// in\n    tag_167:\n        /* \"Ethereum/Presale.sol\":6442:6512  (uint256(1000).sub(saleInfor.claimFee))\r... */\n      swap1\n      tag_151\n        /* \"Ethereum/Presale.sol\":6442:6530  (uint256(1000).sub(saleInfor.claimFee))\r... */\n      jump\t// in\n    tag_166:\n        /* \"Ethereum/Presale.sol\":6441:6562  ((uint256(1000).sub(saleInfor.claimFee))\r... */\n      swap1\n      tag_169\n        /* \"Ethereum/Presale.sol\":6441:6577  ((uint256(1000).sub(saleInfor.claimFee))\r... */\n      jump\t// in\n    tag_165:\n        /* \"Ethereum/Presale.sol\":6419:6577  uint256 amountClaim = ((uint256(1000).sub(saleInfor.claimFee))\r... */\n      swap3\n      pop\n      pop\n      pop\n        /* \"Ethereum/Presale.sol\":5928:6862  function userClaimEmergency() external view returns(uint256) {\r... */\n      swap1\n      jump\t// out\n        /* \"Ethereum/Presale.sol\":1582:1616  PresaleStatus public presaleStatus */\n    tag_73:\n      sload(0x04)\n      sload(0x05)\n      sload(0x06)\n      sload(0x07)\n      sload(0x08)\n      sload(0x09)\n      dup7\n      jump\t// out\n        /* \"Ethereum/Presale.sol\":1701:1719  IERC20 public WETH */\n    tag_78:\n      and(sub(shl(0xa0, 0x01), 0x01), sload(0x19))\n      dup2\n      jump\t// out\n        /* \"Ethereum/Presale.sol\":3794:5920  function deposit(uint256 _amount) external payable nonReentrant {\r... */\n    tag_84:\n        /* \"Utils/ReentrancyGuard.sol\":1778:1779  2 */\n      0x02\n        /* \"Utils/ReentrancyGuard.sol\":2376:2383  _status */\n      sload(0x00)\n        /* \"Utils/ReentrancyGuard.sol\":2376:2395  _status != _ENTERED */\n      eq\n      iszero\n        /* \"Utils/ReentrancyGuard.sol\":2368:2431  require(_status != _ENTERED, \"ReentrancyGuard: reentrant call\") */\n      tag_171\n      jumpi\n      mload(0x40)\n      shl(0xe5, 0x461bcd)\n      dup2\n      mstore\n      0x04\n      add\n      tag_116\n      swap1\n      tag_173\n      jump\t// in\n    tag_171:\n        /* \"Utils/ReentrancyGuard.sol\":1778:1779  2 */\n      0x02\n        /* \"Utils/ReentrancyGuard.sol\":2509:2516  _status */\n      0x00\n        /* \"Utils/ReentrancyGuard.sol\":2509:2527  _status = _ENTERED */\n      sstore\n        /* \"Ethereum/Presale.sol\":3877:3885  status() */\n      tag_175\n        /* \"Ethereum/Presale.sol\":3877:3883  status */\n      tag_40\n        /* \"Ethereum/Presale.sol\":3877:3885  status() */\n      jump\t// in\n    tag_175:\n        /* \"Ethereum/Presale.sol\":3889:3890  1 */\n      0x01\n        /* \"Ethereum/Presale.sol\":3877:3890  status() == 1 */\n      eq\n        /* \"Ethereum/Presale.sol\":3869:3905  require(status() == 1, \"Not active\") */\n      tag_176\n      jumpi\n      mload(0x40)\n      shl(0xe5, 0x461bcd)\n      dup2\n      mstore\n      0x04\n      add\n      tag_116\n      swap1\n      tag_178\n      jump\t// in\n    tag_176:\n        /* \"Ethereum/Presale.sol\":3962:3972  msg.sender */\n      caller\n        /* \"Ethereum/Presale.sol\":3926:3949  BuyerInfo storage buyer */\n      0x00\n        /* \"Ethereum/Presale.sol\":3952:3973  buyerInfo[msg.sender] */\n      swap1\n      dup2\n      mstore\n        /* \"Ethereum/Presale.sol\":3952:3961  buyerInfo */\n      0x02\n        /* \"Ethereum/Presale.sol\":3952:3973  buyerInfo[msg.sender] */\n      0x20\n      mstore\n      0x40\n      dup2\n      keccak256\n        /* \"Ethereum/Presale.sol\":4158:4184  saleInfor.minSpendPerBuyer */\n      sload(0x13)\n        /* \"Ethereum/Presale.sol\":3952:3973  buyerInfo[msg.sender] */\n      swap1\n      swap2\n        /* \"Ethereum/Presale.sol\":4004:4011  _amount */\n      dup4\n      swap2\n      dup3\n      swap2\n        /* \"Ethereum/Presale.sol\":3926:3949  BuyerInfo storage buyer */\n      swap1\n        /* \"Ethereum/Presale.sol\":4117:4121  1000 */\n      0x03e8\n      swap1\n        /* \"Ethereum/Presale.sol\":4140:4184  real_amount_in >= saleInfor.minSpendPerBuyer */\n      dup4\n      lt\n      iszero\n        /* \"Ethereum/Presale.sol\":4132:4233  require(real_amount_in >= saleInfor.minSpendPerBuyer, \r... */\n      tag_179\n      jumpi\n      mload(0x40)\n      shl(0xe5, 0x461bcd)\n      dup2\n      mstore\n      0x04\n      add\n      tag_116\n      swap1\n      tag_181\n      jump\t// in\n    tag_179:\n        /* \"Ethereum/Presale.sol\":4270:4296  saleInfor.maxSpendPerBuyer */\n      sload(0x14)\n        /* \"Ethereum/Presale.sol\":4252:4296  real_amount_in <= saleInfor.maxSpendPerBuyer */\n      dup4\n      gt\n      iszero\n        /* \"Ethereum/Presale.sol\":4244:4343  require(real_amount_in <= saleInfor.maxSpendPerBuyer, \r... */\n      tag_182\n      jumpi\n      mload(0x40)\n      shl(0xe5, 0x461bcd)\n      dup2\n      mstore\n      0x04\n      add\n      tag_116\n      swap1\n      tag_184\n      jump\t// in\n    tag_182:\n        /* \"Ethereum/Presale.sol\":4358:4377  checkAdminAddress() */\n      tag_185\n        /* \"Ethereum/Presale.sol\":4358:4375  checkAdminAddress */\n      tag_87\n        /* \"Ethereum/Presale.sol\":4358:4377  checkAdminAddress() */\n      jump\t// in\n    tag_185:\n        /* \"Ethereum/Presale.sol\":4354:4620  if(!checkAdminAddress()) {\r... */\n      tag_186\n      jumpi\n        /* \"Ethereum/Presale.sol\":4411:4544  ((fullPercenFee.sub(feeAnyone))\r... */\n      tag_187\n        /* \"Ethereum/Presale.sol\":4530:4543  fullPercenFee */\n      dup2\n        /* \"Ethereum/Presale.sol\":4412:4493  (fullPercenFee.sub(feeAnyone))\r... */\n      tag_166\n        /* \"Ethereum/Presale.sol\":4478:4492  real_amount_in */\n      dup6\n        /* \"Ethereum/Presale.sol\":4413:4441  fullPercenFee.sub(feeAnyone) */\n      tag_167\n        /* \"Ethereum/Presale.sol\":4431:4440  feeAnyone */\n      sload(0x1a)\n        /* \"Ethereum/Presale.sol\":4413:4426  fullPercenFee */\n      dup7\n        /* \"Ethereum/Presale.sol\":4413:4430  fullPercenFee.sub */\n      tag_168\n      swap1\n        /* \"Ethereum/Presale.sol\":4413:4441  fullPercenFee.sub(feeAnyone) */\n      swap2\n      swap1\n      0xffffffff\n      and\n      jump\t// in\n        /* \"Ethereum/Presale.sol\":4411:4544  ((fullPercenFee.sub(feeAnyone))\r... */\n    tag_187:\n        /* \"Ethereum/Presale.sol\":4394:4544  real_amount_in = ((fullPercenFee.sub(feeAnyone))\r... */\n      swap3\n      pop\n        /* \"Ethereum/Presale.sol\":4565:4591  amount_in - real_amount_in */\n      tag_190\n        /* \"Ethereum/Presale.sol\":4394:4544  real_amount_in = ((fullPercenFee.sub(feeAnyone))\r... */\n      dup4\n        /* \"Ethereum/Presale.sol\":4565:4574  amount_in */\n      dup6\n        /* \"Ethereum/Presale.sol\":4565:4591  amount_in - real_amount_in */\n      tag_158\n      jump\t// in\n    tag_190:\n        /* \"Ethereum/Presale.sol\":4559:4591  fee = amount_in - real_amount_in */\n      swap2\n      pop\n        /* \"Ethereum/Presale.sol\":4354:4620  if(!checkAdminAddress()) {\r... */\n    tag_186:\n        /* \"Ethereum/Presale.sol\":4685:4702  buyer.baseDeposit */\n      dup5\n      sload\n        /* \"Ethereum/Presale.sol\":4656:4682  saleInfor.maxSpendPerBuyer */\n      sload(0x14)\n        /* \"Ethereum/Presale.sol\":4630:4653  uint256 remainingByUser */\n      0x00\n      swap2\n        /* \"Ethereum/Presale.sol\":4656:4702  saleInfor.maxSpendPerBuyer - buyer.baseDeposit */\n      tag_191\n      swap2\n      tag_158\n      jump\t// in\n    tag_191:\n        /* \"Ethereum/Presale.sol\":4770:4783  presaleStatus */\n      0x04\n        /* \"Ethereum/Presale.sol\":4770:4802  presaleStatus.totalBaseCollected */\n      sload\n        /* \"Ethereum/Presale.sol\":4739:4767  saleInfor.amountTokenForSale */\n      sload(0x18)\n        /* \"Ethereum/Presale.sol\":4630:4702  uint256 remainingByUser = saleInfor.maxSpendPerBuyer - buyer.baseDeposit */\n      swap2\n      swap3\n      pop\n        /* \"Ethereum/Presale.sol\":4713:4736  uint256 remainingByPool */\n      0x00\n      swap2\n        /* \"Ethereum/Presale.sol\":4739:4802  saleInfor.amountTokenForSale - presaleStatus.totalBaseCollected */\n      tag_192\n      swap2\n        /* \"Ethereum/Presale.sol\":4770:4802  presaleStatus.totalBaseCollected */\n      swap1\n        /* \"Ethereum/Presale.sol\":4739:4802  saleInfor.amountTokenForSale - presaleStatus.totalBaseCollected */\n      tag_158\n      jump\t// in\n    tag_192:\n        /* \"Ethereum/Presale.sol\":4713:4802  uint256 remainingByPool = saleInfor.amountTokenForSale - presaleStatus.totalBaseCollected */\n      swap1\n      pop\n        /* \"Ethereum/Presale.sol\":4813:4830  uint256 allowance */\n      0x00\n        /* \"Ethereum/Presale.sol\":4851:4866  remainingByPool */\n      dup2\n        /* \"Ethereum/Presale.sol\":4833:4848  remainingByUser */\n      dup4\n        /* \"Ethereum/Presale.sol\":4833:4866  remainingByUser > remainingByPool */\n      gt\n        /* \"Ethereum/Presale.sol\":4833:4902  remainingByUser > remainingByPool ? remainingByPool : remainingByUser */\n      tag_193\n      jumpi\n        /* \"Ethereum/Presale.sol\":4887:4902  remainingByUser */\n      dup3\n        /* \"Ethereum/Presale.sol\":4833:4902  remainingByUser > remainingByPool ? remainingByPool : remainingByUser */\n      jump(tag_194)\n    tag_193:\n        /* \"Ethereum/Presale.sol\":4869:4884  remainingByPool */\n      dup2\n        /* \"Ethereum/Presale.sol\":4833:4902  remainingByUser > remainingByPool ? remainingByPool : remainingByUser */\n    tag_194:\n        /* \"Ethereum/Presale.sol\":4813:4902  uint256 allowance = remainingByUser > remainingByPool ? remainingByPool : remainingByUser */\n      swap1\n      pop\n        /* \"Ethereum/Presale.sol\":4939:4948  allowance */\n      dup1\n        /* \"Ethereum/Presale.sol\":4921:4935  real_amount_in */\n      dup7\n        /* \"Ethereum/Presale.sol\":4921:4948  real_amount_in <= allowance */\n      gt\n      iszero\n        /* \"Ethereum/Presale.sol\":4913:4968  require(real_amount_in <= allowance, \"Sale is success\") */\n      tag_195\n      jumpi\n      mload(0x40)\n      shl(0xe5, 0x461bcd)\n      dup2\n      mstore\n      0x04\n      add\n      tag_116\n      swap1\n      tag_197\n      jump\t// in\n    tag_195:\n        /* \"Ethereum/Presale.sol\":4979:4996  uint256 tokenSold */\n      0x00\n        /* \"Ethereum/Presale.sol\":5000:5158  real_amount_in.\r... */\n      tag_198\n        /* \"Ethereum/Presale.sol\":5125:5134  saleInfor */\n      0x0d\n        /* \"Ethereum/Presale.sol\":5125:5144  saleInfor.baseToken */\n      0x02\n      add\n      0x00\n      swap1\n      sload\n      swap1\n      0x0100\n      exp\n      swap1\n      div\n      sub(shl(0xa0, 0x01), 0x01)\n      and\n      sub(shl(0xa0, 0x01), 0x01)\n        /* \"Ethereum/Presale.sol\":5119:5154  ERC20(saleInfor.baseToken).decimals */\n      and\n      0x313ce567\n        /* \"Ethereum/Presale.sol\":5119:5156  ERC20(saleInfor.baseToken).decimals() */\n      mload(0x40)\n      dup2\n      0xffffffff\n      and\n      0xe0\n      shl\n      dup2\n      mstore\n      0x04\n      add\n      0x20\n      mload(0x40)\n      dup1\n      dup4\n      sub\n      dup2\n      dup7\n      dup1\n      extcodesize\n      iszero\n      dup1\n      iszero\n      tag_199\n      jumpi\n      0x00\n      dup1\n      revert\n    tag_199:\n      pop\n      gas\n      staticcall\n      iszero\n      dup1\n      iszero\n      tag_201\n      jumpi\n      returndatasize\n      0x00\n      dup1\n      returndatacopy\n      revert(0x00, returndatasize)\n    tag_201:\n      pop\n      pop\n      pop\n      pop\n      mload(0x40)\n      returndatasize\n      not(0x1f)\n      0x1f\n      dup3\n      add\n      and\n      dup3\n      add\n      dup1\n      0x40\n      mstore\n      pop\n      dup2\n      add\n      swap1\n      tag_202\n      swap2\n      swap1\n      tag_130\n      jump\t// in\n    tag_202:\n        /* \"Ethereum/Presale.sol\":5105:5157  10 ** uint256(ERC20(saleInfor.baseToken).decimals()) */\n      tag_203\n      swap1\n        /* \"Ethereum/Presale.sol\":5105:5107  10 */\n      0x0a\n        /* \"Ethereum/Presale.sol\":5105:5157  10 ** uint256(ERC20(saleInfor.baseToken).decimals()) */\n      tag_132\n      jump\t// in\n    tag_203:\n        /* \"Ethereum/Presale.sol\":5049:5069  saleInfor.tokenPrice */\n      sload(0x10)\n        /* \"Ethereum/Presale.sol\":5000:5070  real_amount_in.\r... */\n      tag_166\n      swap1\n        /* \"Ethereum/Presale.sol\":5000:5014  real_amount_in */\n      dup11\n      swap1\n        /* \"Ethereum/Presale.sol\":5000:5048  real_amount_in.\r... */\n      tag_151\n        /* \"Ethereum/Presale.sol\":5000:5070  real_amount_in.\r... */\n      jump\t// in\n        /* \"Ethereum/Presale.sol\":5000:5158  real_amount_in.\r... */\n    tag_198:\n        /* \"Ethereum/Presale.sol\":4979:5159  uint256 tokenSold = (real_amount_in.\r... */\n      swap1\n      pop\n        /* \"Ethereum/Presale.sol\":5208:5217  amount_in */\n      dup8\n        /* \"Ethereum/Presale.sol\":5187:5192  buyer */\n      dup10\n        /* \"Ethereum/Presale.sol\":5187:5204  buyer.baseDeposit */\n      0x00\n      add\n      0x00\n        /* \"Ethereum/Presale.sol\":5187:5217  buyer.baseDeposit += amount_in */\n      dup3\n      dup3\n      sload\n      tag_205\n      swap2\n      swap1\n      tag_206\n      jump\t// in\n    tag_205:\n      swap3\n      pop\n      pop\n      dup2\n      swap1\n      sstore\n      pop\n        /* \"Ethereum/Presale.sol\":5248:5257  tokenSold */\n      dup1\n        /* \"Ethereum/Presale.sol\":5228:5233  buyer */\n      dup10\n        /* \"Ethereum/Presale.sol\":5228:5244  buyer.tokenOwner */\n      0x01\n      add\n      0x00\n        /* \"Ethereum/Presale.sol\":5228:5257  buyer.tokenOwner += tokenSold */\n      dup3\n      dup3\n      sload\n      tag_207\n      swap2\n      swap1\n      tag_206\n      jump\t// in\n    tag_207:\n      swap1\n      swap2\n      sstore\n      pop\n      pop\n        /* \"Ethereum/Presale.sol\":5268:5281  presaleStatus */\n      0x04\n        /* \"Ethereum/Presale.sol\":5268:5318  presaleStatus.totalBaseCollected += real_amount_in */\n      dup1\n      sload\n        /* \"Ethereum/Presale.sol\":5304:5318  real_amount_in */\n      dup9\n      swap2\n        /* \"Ethereum/Presale.sol\":5268:5281  presaleStatus */\n      swap1\n        /* \"Ethereum/Presale.sol\":5268:5300  presaleStatus.totalBaseCollected */\n      0x00\n      swap1\n        /* \"Ethereum/Presale.sol\":5268:5318  presaleStatus.totalBaseCollected += real_amount_in */\n      tag_208\n      swap1\n        /* \"Ethereum/Presale.sol\":5304:5318  real_amount_in */\n      dup5\n      swap1\n        /* \"Ethereum/Presale.sol\":5268:5318  presaleStatus.totalBaseCollected += real_amount_in */\n      tag_206\n      jump\t// in\n    tag_208:\n      swap1\n      swap2\n      sstore\n      pop\n      pop\n        /* \"Ethereum/Presale.sol\":5329:5357  presaleStatus.totalTokenSold */\n      0x05\n        /* \"Ethereum/Presale.sol\":5329:5370  presaleStatus.totalTokenSold += tokenSold */\n      dup1\n      sload\n        /* \"Ethereum/Presale.sol\":5361:5370  tokenSold */\n      dup3\n      swap2\n        /* \"Ethereum/Presale.sol\":5329:5357  presaleStatus.totalTokenSold */\n      swap1\n      0x00\n      swap1\n        /* \"Ethereum/Presale.sol\":5329:5370  presaleStatus.totalTokenSold += tokenSold */\n      tag_209\n      swap1\n        /* \"Ethereum/Presale.sol\":5361:5370  tokenSold */\n      dup5\n      swap1\n        /* \"Ethereum/Presale.sol\":5329:5370  presaleStatus.totalTokenSold += tokenSold */\n      tag_206\n      jump\t// in\n    tag_209:\n      swap1\n      swap2\n      sstore\n      pop\n      pop\n        /* \"Ethereum/Presale.sol\":5381:5406  presaleStatus.numberBuyer */\n      0x08\n        /* \"Ethereum/Presale.sol\":5381:5408  presaleStatus.numberBuyer++ */\n      dup1\n      sload\n      swap1\n        /* \"Ethereum/Presale.sol\":5381:5406  presaleStatus.numberBuyer */\n      0x00\n        /* \"Ethereum/Presale.sol\":5381:5408  presaleStatus.numberBuyer++ */\n      tag_210\n      dup4\n      tag_211\n      jump\t// in\n    tag_210:\n      swap1\n      swap2\n      sstore\n      pop\n      pop\n        /* \"Ethereum/Presale.sol\":5427:5437  msg.sender */\n      caller\n        /* \"Ethereum/Presale.sol\":5419:5438  userFee[msg.sender] */\n      0x00\n      swap1\n      dup2\n      mstore\n        /* \"Ethereum/Presale.sol\":5419:5426  userFee */\n      0x03\n        /* \"Ethereum/Presale.sol\":5419:5438  userFee[msg.sender] */\n      0x20\n      mstore\n      0x40\n      dup2\n      keccak256\n        /* \"Ethereum/Presale.sol\":5419:5445  userFee[msg.sender] += fee */\n      dup1\n      sload\n        /* \"Ethereum/Presale.sol\":5442:5445  fee */\n      dup9\n      swap3\n        /* \"Ethereum/Presale.sol\":5419:5438  userFee[msg.sender] */\n      swap1\n        /* \"Ethereum/Presale.sol\":5419:5445  userFee[msg.sender] += fee */\n      tag_212\n      swap1\n        /* \"Ethereum/Presale.sol\":5442:5445  fee */\n      dup5\n      swap1\n        /* \"Ethereum/Presale.sol\":5419:5445  userFee[msg.sender] += fee */\n      tag_206\n      jump\t// in\n    tag_212:\n      swap3\n      pop\n      pop\n      dup2\n      swap1\n      sstore\n      pop\n        /* \"Ethereum/Presale.sol\":5468:5471  fee */\n      dup6\n        /* \"Ethereum/Presale.sol\":5456:5464  totalFee */\n      0x1d\n      0x00\n        /* \"Ethereum/Presale.sol\":5456:5471  totalFee += fee */\n      dup3\n      dup3\n      sload\n      tag_213\n      swap2\n      swap1\n      tag_206\n      jump\t// in\n    tag_213:\n      swap1\n      swap2\n      sstore\n      pop\n      pop\n        /* \"Ethereum/Presale.sol\":5487:5512  saleInfor.saleIsBaseToken */\n      and(0xff, sload(0x17))\n        /* \"Ethereum/Presale.sol\":5487:5548  saleInfor.saleIsBaseToken && real_amount_in + fee < msg.value */\n      dup1\n      iszero\n      tag_214\n      jumpi\n      pop\n        /* \"Ethereum/Presale.sol\":5539:5548  msg.value */\n      callvalue\n        /* \"Ethereum/Presale.sol\":5516:5536  real_amount_in + fee */\n      tag_215\n        /* \"Ethereum/Presale.sol\":5533:5536  fee */\n      dup8\n        /* \"Ethereum/Presale.sol\":5516:5530  real_amount_in */\n      dup10\n        /* \"Ethereum/Presale.sol\":5516:5536  real_amount_in + fee */\n      tag_206\n      jump\t// in\n    tag_215:\n        /* \"Ethereum/Presale.sol\":5516:5548  real_amount_in + fee < msg.value */\n      lt\n        /* \"Ethereum/Presale.sol\":5487:5548  saleInfor.saleIsBaseToken && real_amount_in + fee < msg.value */\n    tag_214:\n        /* \"Ethereum/Presale.sol\":5484:5639  if(saleInfor.saleIsBaseToken && real_amount_in + fee < msg.value) {\r... */\n      iszero\n      tag_216\n      jumpi\n        /* \"Ethereum/Presale.sol\":5573:5583  msg.sender */\n      caller\n        /* \"Ethereum/Presale.sol\":5565:5627  payable(msg.sender).transfer(msg.value - real_amount_in - fee) */\n      0x08fc\n        /* \"Ethereum/Presale.sol\":5623:5626  fee */\n      dup8\n        /* \"Ethereum/Presale.sol\":5594:5620  msg.value - real_amount_in */\n      tag_217\n        /* \"Ethereum/Presale.sol\":5606:5620  real_amount_in */\n      dup11\n        /* \"Ethereum/Presale.sol\":5594:5603  msg.value */\n      callvalue\n        /* \"Ethereum/Presale.sol\":5594:5620  msg.value - real_amount_in */\n      tag_158\n      jump\t// in\n    tag_217:\n        /* \"Ethereum/Presale.sol\":5594:5626  msg.value - real_amount_in - fee */\n      tag_218\n      swap2\n      swap1\n      tag_158\n      jump\t// in\n    tag_218:\n        /* \"Ethereum/Presale.sol\":5565:5627  payable(msg.sender).transfer(msg.value - real_amount_in - fee) */\n      mload(0x40)\n      dup2\n      iszero\n      swap1\n      swap3\n      mul\n      swap2\n      0x00\n      dup2\n      dup2\n      dup2\n      dup6\n      dup9\n      dup9\n      call\n      swap4\n      pop\n      pop\n      pop\n      pop\n      iszero\n      dup1\n      iszero\n      tag_220\n      jumpi\n      returndatasize\n      0x00\n      dup1\n      returndatacopy\n      revert(0x00, returndatasize)\n    tag_220:\n      pop\n        /* \"Ethereum/Presale.sol\":5484:5639  if(saleInfor.saleIsBaseToken && real_amount_in + fee < msg.value) {\r... */\n    tag_216:\n        /* \"Ethereum/Presale.sol\":5654:5679  saleInfor.saleIsBaseToken */\n      and(0xff, sload(0x17))\n        /* \"Ethereum/Presale.sol\":5650:5901  if(!saleInfor.saleIsBaseToken) {\r... */\n      tag_222\n      jumpi\n        /* \"Ethereum/Presale.sol\":5754:5773  saleInfor.baseToken */\n      sload(0x0f)\n        /* \"Ethereum/Presale.sol\":5696:5889  TransferHelper.safeTransferFrom(\r... */\n      tag_222\n      swap1\n      sub(shl(0xa0, 0x01), 0x01)\n        /* \"Ethereum/Presale.sol\":5754:5773  saleInfor.baseToken */\n      and\n        /* \"Ethereum/Presale.sol\":5793:5803  msg.sender */\n      caller\n        /* \"Ethereum/Presale.sol\":5830:5834  this */\n      address\n        /* \"Ethereum/Presale.sol\":5854:5874  real_amount_in + fee */\n      tag_223\n        /* \"Ethereum/Presale.sol\":5871:5874  fee */\n      dup11\n        /* \"Ethereum/Presale.sol\":5854:5868  real_amount_in */\n      dup13\n        /* \"Ethereum/Presale.sol\":5854:5874  real_amount_in + fee */\n      tag_206\n      jump\t// in\n    tag_223:\n        /* \"Ethereum/Presale.sol\":5696:5727  TransferHelper.safeTransferFrom */\n      tag_224\n        /* \"Ethereum/Presale.sol\":5696:5889  TransferHelper.safeTransferFrom(\r... */\n      jump\t// in\n    tag_222:\n      pop\n      pop\n        /* \"Utils/ReentrancyGuard.sol\":1734:1735  1 */\n      0x01\n        /* \"Utils/ReentrancyGuard.sol\":2688:2695  _status */\n      0x00\n        /* \"Utils/ReentrancyGuard.sol\":2688:2710  _status = _NOT_ENTERED */\n      sstore\n      pop\n      pop\n      pop\n      pop\n      pop\n      pop\n      pop\n      pop\n        /* \"Ethereum/Presale.sol\":3794:5920  function deposit(uint256 _amount) external payable nonReentrant {\r... */\n      jump\t// out\n        /* \"Ethereum/Presale.sol\":3676:3786  function checkAdminAddress() public view returns(bool) {\r... */\n    tag_87:\n        /* \"Ethereum/Presale.sol\":3725:3729  bool */\n      0x00\n        /* \"Ethereum/Presale.sol\":3749:3778  admins.contains(_msgSender()) */\n      tag_226\n        /* \"Ethereum/Presale.sol\":3765:3777  _msgSender() */\n      tag_227\n        /* \"Ethereum/Presale.sol\":3765:3775  _msgSender */\n      tag_113\n        /* \"Ethereum/Presale.sol\":3765:3777  _msgSender() */\n      jump\t// in\n    tag_227:\n        /* \"Ethereum/Presale.sol\":3749:3755  admins */\n      0x1b\n      swap1\n        /* \"Ethereum/Presale.sol\":3749:3764  admins.contains */\n      tag_228\n        /* \"Ethereum/Presale.sol\":3749:3778  admins.contains(_msgSender()) */\n      jump\t// in\n    tag_226:\n        /* \"Ethereum/Presale.sol\":3742:3778  return admins.contains(_msgSender()) */\n      swap1\n      pop\n        /* \"Ethereum/Presale.sol\":3676:3786  function checkAdminAddress() public view returns(bool) {\r... */\n      swap1\n      jump\t// out\n        /* \"Ethereum/Presale.sol\":1480:1526  mapping(address => BuyerInfo) public buyerInfo */\n    tag_93:\n      0x02\n      0x20\n      dup2\n      swap1\n      mstore\n      0x00\n      swap2\n      dup3\n      mstore\n      0x40\n      swap1\n      swap2\n      keccak256\n      dup1\n      sload\n      0x01\n      dup3\n      add\n      sload\n      swap3\n      dup3\n      add\n      sload\n      0x03\n      dup4\n      add\n      sload\n      0x04\n      swap1\n      swap4\n      add\n      sload\n      swap2\n      swap4\n      swap3\n      swap1\n      swap2\n      0xff\n      dup1\n      dup3\n      and\n      swap2\n      0x0100\n      swap1\n      div\n      and\n      dup7\n      jump\t// out\n        /* \"Utils/Ownable.sol\":1972:2173  function transferOwnership(address newOwner) public virtual onlyOwner {\r... */\n    tag_99:\n        /* \"Utils/Ownable.sol\":1294:1306  _msgSender() */\n      tag_230\n        /* \"Utils/Ownable.sol\":1294:1304  _msgSender */\n      tag_113\n        /* \"Utils/Ownable.sol\":1294:1306  _msgSender() */\n      jump\t// in\n    tag_230:\n      sub(shl(0xa0, 0x01), 0x01)\n        /* \"Utils/Ownable.sol\":1283:1306  owner() == _msgSender() */\n      and\n        /* \"Utils/Ownable.sol\":1283:1290  owner() */\n      tag_231\n        /* \"Utils/Ownable.sol\":1283:1288  owner */\n      tag_59\n        /* \"Utils/Ownable.sol\":1283:1290  owner() */\n      jump\t// in\n    tag_231:\n      sub(shl(0xa0, 0x01), 0x01)\n        /* \"Utils/Ownable.sol\":1283:1306  owner() == _msgSender() */\n      and\n      eq\n        /* \"Utils/Ownable.sol\":1275:1343  require(owner() == _msgSender(), \"Ownable: caller is not the owner\") */\n      tag_232\n      jumpi\n      mload(0x40)\n      shl(0xe5, 0x461bcd)\n      dup2\n      mstore\n      0x04\n      add\n      tag_116\n      swap1\n      tag_117\n      jump\t// in\n    tag_232:\n      sub(shl(0xa0, 0x01), 0x01)\n        /* \"Utils/Ownable.sol\":2061:2083  newOwner != address(0) */\n      dup2\n      and\n        /* \"Utils/Ownable.sol\":2053:2126  require(newOwner != address(0), \"Ownable: new owner is the zero address\") */\n      tag_235\n      jumpi\n      mload(0x40)\n      shl(0xe5, 0x461bcd)\n      dup2\n      mstore\n      0x04\n      add\n      tag_116\n      swap1\n      tag_237\n      jump\t// in\n    tag_235:\n        /* \"Utils/Ownable.sol\":2137:2165  _transferOwnership(newOwner) */\n      tag_123\n        /* \"Utils/Ownable.sol\":2156:2164  newOwner */\n      dup2\n        /* \"Utils/Ownable.sol\":2137:2155  _transferOwnership */\n      tag_120\n        /* \"Utils/Ownable.sol\":2137:2165  _transferOwnership(newOwner) */\n      jump\t// in\n        /* \"Ethereum/Presale.sol\":6870:6981  function getBalance(address _address) external view returns(uint256) {\r... */\n    tag_103:\n      sub(shl(0xa0, 0x01), 0x01)\n        /* \"Ethereum/Presale.sol\":6957:6973  _address.balance */\n      and\n      balance\n      swap1\n        /* \"Ethereum/Presale.sol\":6870:6981  function getBalance(address _address) external view returns(uint256) {\r... */\n      jump\t// out\n        /* \"Utils/EnumerableSet.sol\":8259:8411  function add(AddressSet storage set, address value) internal returns (bool) {\r... */\n    tag_105:\n        /* \"Utils/EnumerableSet.sol\":8329:8333  bool */\n      0x00\n        /* \"Utils/EnumerableSet.sol\":8353:8403  _add(set._inner, bytes32(uint256(uint160(value)))) */\n      tag_241\n        /* \"Utils/EnumerableSet.sol\":8358:8361  set */\n      dup4\n      sub(shl(0xa0, 0x01), 0x01)\n        /* \"Utils/EnumerableSet.sol\":8378:8401  uint256(uint160(value)) */\n      dup5\n      and\n        /* \"Utils/EnumerableSet.sol\":8353:8357  _add */\n      tag_242\n        /* \"Utils/EnumerableSet.sol\":8353:8403  _add(set._inner, bytes32(uint256(uint160(value)))) */\n      jump\t// in\n    tag_241:\n        /* \"Utils/EnumerableSet.sol\":8346:8403  return _add(set._inner, bytes32(uint256(uint160(value)))) */\n      swap1\n      pop\n        /* \"Utils/EnumerableSet.sol\":8259:8411  function add(AddressSet storage set, address value) internal returns (bool) {\r... */\n    tag_240:\n      swap3\n      swap2\n      pop\n      pop\n      jump\t// out\n        /* \"Utils/Context.sol\":656:754  function _msgSender() internal view virtual returns (address) {\r... */\n    tag_113:\n        /* \"Utils/Context.sol\":736:746  msg.sender */\n      caller\n        /* \"Utils/Context.sol\":656:754  function _msgSender() internal view virtual returns (address) {\r... */\n      swap1\n      jump\t// out\n        /* \"Utils/Ownable.sol\":2333:2524  function _transferOwnership(address newOwner) internal virtual {\r... */\n    tag_120:\n        /* \"Utils/Ownable.sol\":2426:2432  _owner */\n      0x01\n      dup1\n      sload\n      sub(shl(0xa0, 0x01), 0x01)\n        /* \"Utils/Ownable.sol\":2443:2460  _owner = newOwner */\n      dup4\n      dup2\n      and\n      not(sub(shl(0xa0, 0x01), 0x01))\n      dup4\n      and\n      dup2\n      or\n      swap1\n      swap4\n      sstore\n        /* \"Utils/Ownable.sol\":2476:2516  OwnershipTransferred(oldOwner, newOwner) */\n      mload(0x40)\n        /* \"Utils/Ownable.sol\":2426:2432  _owner */\n      swap2\n      and\n      swap2\n        /* \"Utils/Ownable.sol\":2443:2460  _owner = newOwner */\n      swap1\n        /* \"Utils/Ownable.sol\":2426:2432  _owner */\n      dup3\n      swap1\n        /* \"Utils/Ownable.sol\":2476:2516  OwnershipTransferred(oldOwner, newOwner) */\n      0x8be0079c531659141344cd1fd0a4f28419497f9722a3daafe3b4186f6b6457e0\n      swap1\n        /* \"Utils/Ownable.sol\":2407:2423  address oldOwner */\n      0x00\n      swap1\n        /* \"Utils/Ownable.sol\":2476:2516  OwnershipTransferred(oldOwner, newOwner) */\n      log3\n        /* \"Utils/Ownable.sol\":2333:2524  function _transferOwnership(address newOwner) internal virtual {\r... */\n      pop\n      pop\n      jump\t// out\n        /* \"Utils/SafeMath.sol\":3585:3683  function mul(uint256 a, uint256 b) internal pure returns (uint256) {\r... */\n    tag_151:\n        /* \"Utils/SafeMath.sol\":3643:3650  uint256 */\n      0x00\n        /* \"Utils/SafeMath.sol\":3670:3675  a * b */\n      tag_241\n        /* \"Utils/SafeMath.sol\":3674:3675  b */\n      dup3\n        /* \"Utils/SafeMath.sol\":3670:3671  a */\n      dup5\n        /* \"Utils/SafeMath.sol\":3670:3675  a * b */\n      tag_135\n      jump\t// in\n        /* \"Utils/SafeMath.sol\":3228:3326  function sub(uint256 a, uint256 b) internal pure returns (uint256) {\r... */\n    tag_168:\n        /* \"Utils/SafeMath.sol\":3286:3293  uint256 */\n      0x00\n        /* \"Utils/SafeMath.sol\":3313:3318  a - b */\n      tag_241\n        /* \"Utils/SafeMath.sol\":3317:3318  b */\n      dup3\n        /* \"Utils/SafeMath.sol\":3313:3314  a */\n      dup5\n        /* \"Utils/SafeMath.sol\":3313:3318  a - b */\n      tag_158\n      jump\t// in\n        /* \"Utils/SafeMath.sol\":3984:4082  function div(uint256 a, uint256 b) internal pure returns (uint256) {\r... */\n    tag_169:\n        /* \"Utils/SafeMath.sol\":4042:4049  uint256 */\n      0x00\n        /* \"Utils/SafeMath.sol\":4069:4074  a / b */\n      tag_241\n        /* \"Utils/SafeMath.sol\":4073:4074  b */\n      dup3\n        /* \"Utils/SafeMath.sol\":4069:4070  a */\n      dup5\n        /* \"Utils/SafeMath.sol\":4069:4074  a / b */\n      tag_251\n      jump\t// in\n        /* \"Utils/TransferHelper.sol\":1073:1503  function safeTransferFrom(\r... */\n    tag_224:\n        /* \"Utils/TransferHelper.sol\":1219:1231  bool success */\n      0x00\n        /* \"Utils/TransferHelper.sol\":1233:1250  bytes memory data */\n      dup1\n        /* \"Utils/TransferHelper.sol\":1254:1259  token */\n      dup6\n      sub(shl(0xa0, 0x01), 0x01)\n        /* \"Utils/TransferHelper.sol\":1254:1264  token.call */\n      and\n        /* \"Utils/TransferHelper.sol\":1302:1312  0x23b872dd */\n      0x23b872dd\n        /* \"Utils/TransferHelper.sol\":1314:1318  from */\n      dup7\n        /* \"Utils/TransferHelper.sol\":1320:1322  to */\n      dup7\n        /* \"Utils/TransferHelper.sol\":1324:1329  value */\n      dup7\n        /* \"Utils/TransferHelper.sol\":1279:1330  abi.encodeWithSelector(0x23b872dd, from, to, value) */\n      add(0x24, mload(0x40))\n      tag_253\n      swap4\n      swap3\n      swap2\n      swap1\n      tag_254\n      jump\t// in\n    tag_253:\n      mload(0x40)\n      0x20\n      dup2\n      dup4\n      sub\n      sub\n      dup2\n      mstore\n      swap1\n      0x40\n      mstore\n      swap1\n      0xe0\n      shl\n      0x20\n      dup3\n      add\n      dup1\n      mload\n      sub(shl(0xe0, 0x01), 0x01)\n      dup4\n      dup2\n      dup4\n      and\n      or\n      dup4\n      mstore\n      pop\n      pop\n      pop\n      pop\n        /* \"Utils/TransferHelper.sol\":1254:1341  token.call(\r... */\n      mload(0x40)\n      tag_255\n      swap2\n      swap1\n      tag_256\n      jump\t// in\n    tag_255:\n      0x00\n      mload(0x40)\n      dup1\n      dup4\n      sub\n      dup2\n      0x00\n      dup7\n      gas\n      call\n      swap2\n      pop\n      pop\n      returndatasize\n      dup1\n      0x00\n      dup2\n      eq\n      tag_259\n      jumpi\n      mload(0x40)\n      swap2\n      pop\n      and(add(returndatasize, 0x3f), not(0x1f))\n      dup3\n      add\n      0x40\n      mstore\n      returndatasize\n      dup3\n      mstore\n      returndatasize\n      0x00\n      0x20\n      dup5\n      add\n      returndatacopy\n      jump(tag_258)\n    tag_259:\n      0x60\n      swap2\n      pop\n    tag_258:\n      pop\n        /* \"Utils/TransferHelper.sol\":1218:1341  (bool success, bytes memory data) = token.call(\r... */\n      swap2\n      pop\n      swap2\n      pop\n        /* \"Utils/TransferHelper.sol\":1374:1381  success */\n      dup2\n        /* \"Utils/TransferHelper.sol\":1374:1431  success && (data.length == 0 || abi.decode(data, (bool))) */\n      dup1\n      iszero\n      tag_262\n      jumpi\n      pop\n        /* \"Utils/TransferHelper.sol\":1386:1397  data.length */\n      dup1\n      mload\n        /* \"Utils/TransferHelper.sol\":1386:1402  data.length == 0 */\n      iszero\n      dup1\n        /* \"Utils/TransferHelper.sol\":1386:1430  data.length == 0 || abi.decode(data, (bool)) */\n      tag_262\n      jumpi\n      pop\n        /* \"Utils/TransferHelper.sol\":1417:1421  data */\n      dup1\n        /* \"Utils/TransferHelper.sol\":1406:1430  abi.decode(data, (bool)) */\n      dup1\n      0x20\n      add\n      swap1\n      mload\n      dup2\n      add\n      swap1\n      tag_262\n      swap2\n      swap1\n      tag_263\n      jump\t// in\n    tag_262:\n        /* \"Utils/TransferHelper.sol\":1352:1495  require(\r... */\n      tag_264\n      jumpi\n      mload(0x40)\n      shl(0xe5, 0x461bcd)\n      dup2\n      mstore\n      0x04\n      add\n      tag_116\n      swap1\n      tag_266\n      jump\t// in\n    tag_264:\n        /* \"Utils/TransferHelper.sol\":1073:1503  function safeTransferFrom(\r... */\n      pop\n      pop\n      pop\n      pop\n      pop\n      pop\n      jump\t// out\n        /* \"Utils/EnumerableSet.sol\":8831:8998  function contains(AddressSet storage set, address value) internal view returns (bool) {\r... */\n    tag_228:\n        /* \"Utils/EnumerableSet.sol\":8911:8915  bool */\n      0x00\n        /* \"Utils/EnumerableSet.sol\":8935:8990  _contains(set._inner, bytes32(uint256(uint160(value)))) */\n      tag_241\n        /* \"Utils/EnumerableSet.sol\":8945:8948  set */\n      dup4\n      sub(shl(0xa0, 0x01), 0x01)\n        /* \"Utils/EnumerableSet.sol\":8965:8988  uint256(uint160(value)) */\n      dup5\n      and\n        /* \"Utils/EnumerableSet.sol\":8935:8944  _contains */\n      tag_269\n        /* \"Utils/EnumerableSet.sol\":8935:8990  _contains(set._inner, bytes32(uint256(uint160(value)))) */\n      jump\t// in\n        /* \"Utils/EnumerableSet.sol\":2174:2588  function _add(Set storage set, bytes32 value) private returns (bool) {\r... */\n    tag_242:\n        /* \"Utils/EnumerableSet.sol\":2237:2241  bool */\n      0x00\n        /* \"Utils/EnumerableSet.sol\":2259:2280  _contains(set, value) */\n      tag_271\n        /* \"Utils/EnumerableSet.sol\":2269:2272  set */\n      dup4\n        /* \"Utils/EnumerableSet.sol\":2274:2279  value */\n      dup4\n        /* \"Utils/EnumerableSet.sol\":2259:2268  _contains */\n      tag_269\n        /* \"Utils/EnumerableSet.sol\":2259:2280  _contains(set, value) */\n      jump\t// in\n    tag_271:\n        /* \"Utils/EnumerableSet.sol\":2254:2581  if (!_contains(set, value)) {\r... */\n      tag_272\n      jumpi\n      pop\n        /* \"Utils/EnumerableSet.sol\":2297:2320  set._values.push(value) */\n      dup2\n      sload\n      0x01\n      dup2\n      dup2\n      add\n      dup5\n      sstore\n        /* \"Utils/EnumerableSet.sol\":2297:2308  set._values */\n      0x00\n        /* \"Utils/EnumerableSet.sol\":2297:2320  set._values.push(value) */\n      dup5\n      dup2\n      mstore\n      0x20\n      dup1\n      dup3\n      keccak256\n      swap1\n      swap4\n      add\n      dup5\n      swap1\n      sstore\n        /* \"Utils/EnumerableSet.sol\":2480:2498  set._values.length */\n      dup5\n      sload\n        /* \"Utils/EnumerableSet.sol\":2458:2477  set._indexes[value] */\n      dup5\n      dup3\n      mstore\n        /* \"Utils/EnumerableSet.sol\":2458:2470  set._indexes */\n      dup3\n      dup7\n      add\n        /* \"Utils/EnumerableSet.sol\":2458:2477  set._indexes[value] */\n      swap1\n      swap4\n      mstore\n      0x40\n      swap1\n      keccak256\n        /* \"Utils/EnumerableSet.sol\":2458:2498  set._indexes[value] = set._values.length */\n      swap2\n      swap1\n      swap2\n      sstore\n        /* \"Utils/EnumerableSet.sol\":2513:2524  return true */\n      jump(tag_240)\n        /* \"Utils/EnumerableSet.sol\":2254:2581  if (!_contains(set, value)) {\r... */\n    tag_272:\n      pop\n        /* \"Utils/EnumerableSet.sol\":2564:2569  false */\n      0x00\n        /* \"Utils/EnumerableSet.sol\":2557:2569  return false */\n      jump(tag_240)\n        /* \"Utils/EnumerableSet.sol\":4270:4399  function _contains(Set storage set, bytes32 value) private view returns (bool) {\r... */\n    tag_269:\n        /* \"Utils/EnumerableSet.sol\":4343:4347  bool */\n      0x00\n        /* \"Utils/EnumerableSet.sol\":4367:4386  set._indexes[value] */\n      swap1\n      dup2\n      mstore\n        /* \"Utils/EnumerableSet.sol\":4367:4379  set._indexes */\n      0x01\n      swap2\n      swap1\n      swap2\n      add\n        /* \"Utils/EnumerableSet.sol\":4367:4386  set._indexes[value] */\n      0x20\n      mstore\n      0x40\n      swap1\n      keccak256\n      sload\n        /* \"Utils/EnumerableSet.sol\":4367:4391  set._indexes[value] != 0 */\n      iszero\n      iszero\n      swap1\n        /* \"Utils/EnumerableSet.sol\":4270:4399  function _contains(Set storage set, bytes32 value) private view returns (bool) {\r... */\n      jump\t// out\n        /* \"#utility.yul\":14:273   */\n    tag_49:\n      0x00\n        /* \"#utility.yul\":126:128   */\n      0x20\n        /* \"#utility.yul\":114:123   */\n      dup3\n        /* \"#utility.yul\":105:112   */\n      dup5\n        /* \"#utility.yul\":101:124   */\n      sub\n        /* \"#utility.yul\":97:129   */\n      slt\n        /* \"#utility.yul\":94:96   */\n      iszero\n      tag_278\n      jumpi\n        /* \"#utility.yul\":147:153   */\n      dup1\n        /* \"#utility.yul\":139:145   */\n      dup2\n        /* \"#utility.yul\":132:154   */\n      revert\n        /* \"#utility.yul\":94:96   */\n    tag_278:\n        /* \"#utility.yul\":191:200   */\n      dup2\n        /* \"#utility.yul\":178:201   */\n      calldataload\n        /* \"#utility.yul\":210:243   */\n      tag_279\n        /* \"#utility.yul\":237:242   */\n      dup2\n        /* \"#utility.yul\":210:243   */\n      tag_280\n      jump\t// in\n    tag_279:\n        /* \"#utility.yul\":262:267   */\n      swap4\n        /* \"#utility.yul\":84:273   */\n      swap3\n      pop\n      pop\n      pop\n      jump\t// out\n        /* \"#utility.yul\":278:1580   */\n    tag_65:\n      0x00\n      dup1\n      0x00\n      dup1\n        /* \"#utility.yul\":476:479   */\n      0x0180\n        /* \"#utility.yul\":520:522   */\n      dup1\n        /* \"#utility.yul\":508:517   */\n      dup7\n        /* \"#utility.yul\":499:506   */\n      dup9\n        /* \"#utility.yul\":495:518   */\n      sub\n        /* \"#utility.yul\":491:523   */\n      slt\n        /* \"#utility.yul\":488:490   */\n      iszero\n      tag_282\n      jumpi\n        /* \"#utility.yul\":541:547   */\n      dup4\n        /* \"#utility.yul\":533:539   */\n      dup5\n        /* \"#utility.yul\":526:548   */\n      revert\n        /* \"#utility.yul\":488:490   */\n    tag_282:\n        /* \"#utility.yul\":585:594   */\n      dup6\n        /* \"#utility.yul\":572:595   */\n      calldataload\n        /* \"#utility.yul\":604:637   */\n      tag_283\n        /* \"#utility.yul\":631:636   */\n      dup2\n        /* \"#utility.yul\":604:637   */\n      tag_280\n      jump\t// in\n    tag_283:\n        /* \"#utility.yul\":656:661   */\n      swap5\n      pop\n        /* \"#utility.yul\":680:682   */\n      0x20\n        /* \"#utility.yul\":719:737   */\n      dup7\n      dup2\n      add\n        /* \"#utility.yul\":706:738   */\n      calldataload\n        /* \"#utility.yul\":747:782   */\n      tag_284\n        /* \"#utility.yul\":706:738   */\n      dup2\n        /* \"#utility.yul\":747:782   */\n      tag_280\n      jump\t// in\n    tag_284:\n        /* \"#utility.yul\":801:808   */\n      swap5\n      pop\n        /* \"#utility.yul\":860:862   */\n      0x40\n        /* \"#utility.yul\":845:863   */\n      dup8\n      add\n        /* \"#utility.yul\":832:864   */\n      calldataload\n        /* \"#utility.yul\":873:908   */\n      tag_285\n        /* \"#utility.yul\":832:864   */\n      dup2\n        /* \"#utility.yul\":873:908   */\n      tag_280\n      jump\t// in\n    tag_285:\n        /* \"#utility.yul\":927:934   */\n      swap4\n      pop\n        /* \"#utility.yul\":972:975   */\n      0x7f\n        /* \"#utility.yul\":957:976   */\n      dup8\n      add\n        /* \"#utility.yul\":953:986   */\n      dup9\n      sgt\n        /* \"#utility.yul\":943:945   */\n      tag_286\n      jumpi\n        /* \"#utility.yul\":1005:1011   */\n      dup3\n        /* \"#utility.yul\":997:1003   */\n      dup4\n        /* \"#utility.yul\":990:1012   */\n      revert\n        /* \"#utility.yul\":943:945   */\n    tag_286:\n        /* \"#utility.yul\":1043:1045   */\n      0x40\n        /* \"#utility.yul\":1037:1046   */\n      mload\n        /* \"#utility.yul\":1085:1088   */\n      0x0120\n        /* \"#utility.yul\":1077:1083   */\n      dup2\n        /* \"#utility.yul\":1073:1089   */\n      add\n        /* \"#utility.yul\":1155:1161   */\n      dup2\n        /* \"#utility.yul\":1143:1153   */\n      dup2\n        /* \"#utility.yul\":1140:1162   */\n      lt\n        /* \"#utility.yul\":1119:1137   */\n      0xffffffffffffffff\n        /* \"#utility.yul\":1107:1117   */\n      dup3\n        /* \"#utility.yul\":1104:1138   */\n      gt\n        /* \"#utility.yul\":1101:1163   */\n      or\n        /* \"#utility.yul\":1098:1100   */\n      iszero\n      tag_288\n      jumpi\n        /* \"#utility.yul\":1166:1184   */\n      tag_288\n      tag_289\n      jump\t// in\n    tag_288:\n        /* \"#utility.yul\":1202:1204   */\n      0x40\n        /* \"#utility.yul\":1195:1217   */\n      mstore\n        /* \"#utility.yul\":1237:1243   */\n      dup1\n        /* \"#utility.yul\":1278:1280   */\n      0x60\n        /* \"#utility.yul\":1263:1281   */\n      dup10\n      add\n        /* \"#utility.yul\":1296:1314   */\n      dup5\n      dup11\n      add\n        /* \"#utility.yul\":1293:1324   */\n      dup12\n      lt\n        /* \"#utility.yul\":1290:1292   */\n      iszero\n      tag_290\n      jumpi\n        /* \"#utility.yul\":1342:1348   */\n      dup6\n        /* \"#utility.yul\":1334:1340   */\n      dup7\n        /* \"#utility.yul\":1327:1349   */\n      revert\n        /* \"#utility.yul\":1290:1292   */\n    tag_290:\n        /* \"#utility.yul\":1369:1375   */\n      dup6\n        /* \"#utility.yul\":1360:1375   */\n      swap5\n      pop\n        /* \"#utility.yul\":1384:1549   */\n    tag_291:\n        /* \"#utility.yul\":1398:1402   */\n      0x09\n        /* \"#utility.yul\":1395:1396   */\n      dup6\n        /* \"#utility.yul\":1392:1403   */\n      lt\n        /* \"#utility.yul\":1384:1549   */\n      iszero\n      tag_293\n      jumpi\n        /* \"#utility.yul\":1457:1474   */\n      dup1\n      calldataload\n        /* \"#utility.yul\":1445:1475   */\n      dup3\n      mstore\n        /* \"#utility.yul\":1418:1419   */\n      0x01\n        /* \"#utility.yul\":1411:1420   */\n      swap5\n      swap1\n      swap5\n      add\n      swap4\n        /* \"#utility.yul\":1495:1507   */\n      swap1\n      dup4\n      add\n      swap1\n        /* \"#utility.yul\":1527:1539   */\n      dup4\n      add\n        /* \"#utility.yul\":1384:1549   */\n      jump(tag_291)\n    tag_293:\n        /* \"#utility.yul\":1388:1391   */\n      pop\n      pop\n        /* \"#utility.yul\":1568:1574   */\n      dup1\n        /* \"#utility.yul\":1558:1574   */\n      swap4\n      pop\n      pop\n      pop\n      pop\n        /* \"#utility.yul\":456:1580   */\n      swap3\n      swap6\n      swap2\n      swap5\n      pop\n      swap3\n      pop\n      jump\t// out\n        /* \"#utility.yul\":1585:1882   */\n    tag_263:\n      0x00\n        /* \"#utility.yul\":1705:1707   */\n      0x20\n        /* \"#utility.yul\":1693:1702   */\n      dup3\n        /* \"#utility.yul\":1684:1691   */\n      dup5\n        /* \"#utility.yul\":1680:1703   */\n      sub\n        /* \"#utility.yul\":1676:1708   */\n      slt\n        /* \"#utility.yul\":1673:1675   */\n      iszero\n      tag_295\n      jumpi\n        /* \"#utility.yul\":1726:1732   */\n      dup1\n        /* \"#utility.yul\":1718:1724   */\n      dup2\n        /* \"#utility.yul\":1711:1733   */\n      revert\n        /* \"#utility.yul\":1673:1675   */\n    tag_295:\n        /* \"#utility.yul\":1763:1772   */\n      dup2\n        /* \"#utility.yul\":1757:1773   */\n      mload\n        /* \"#utility.yul\":1816:1821   */\n      dup1\n        /* \"#utility.yul\":1809:1822   */\n      iszero\n        /* \"#utility.yul\":1802:1823   */\n      iszero\n        /* \"#utility.yul\":1795:1800   */\n      dup2\n        /* \"#utility.yul\":1792:1824   */\n      eq\n        /* \"#utility.yul\":1782:1784   */\n      tag_279\n      jumpi\n        /* \"#utility.yul\":1843:1849   */\n      dup2\n        /* \"#utility.yul\":1835:1841   */\n      dup3\n        /* \"#utility.yul\":1828:1850   */\n      revert\n        /* \"#utility.yul\":1887:2077   */\n    tag_83:\n      0x00\n        /* \"#utility.yul\":1999:2001   */\n      0x20\n        /* \"#utility.yul\":1987:1996   */\n      dup3\n        /* \"#utility.yul\":1978:1985   */\n      dup5\n        /* \"#utility.yul\":1974:1997   */\n      sub\n        /* \"#utility.yul\":1970:2002   */\n      slt\n        /* \"#utility.yul\":1967:1969   */\n      iszero\n      tag_298\n      jumpi\n        /* \"#utility.yul\":2020:2026   */\n      dup1\n        /* \"#utility.yul\":2012:2018   */\n      dup2\n        /* \"#utility.yul\":2005:2027   */\n      revert\n        /* \"#utility.yul\":1967:1969   */\n    tag_298:\n      pop\n        /* \"#utility.yul\":2048:2071   */\n      calldataload\n      swap2\n        /* \"#utility.yul\":1957:2077   */\n      swap1\n      pop\n      jump\t// out\n        /* \"#utility.yul\":2082:2276   */\n    tag_130:\n      0x00\n        /* \"#utility.yul\":2205:2207   */\n      0x20\n        /* \"#utility.yul\":2193:2202   */\n      dup3\n        /* \"#utility.yul\":2184:2191   */\n      dup5\n        /* \"#utility.yul\":2180:2203   */\n      sub\n        /* \"#utility.yul\":2176:2208   */\n      slt\n        /* \"#utility.yul\":2173:2175   */\n      iszero\n      tag_300\n      jumpi\n        /* \"#utility.yul\":2226:2232   */\n      dup1\n        /* \"#utility.yul\":2218:2224   */\n      dup2\n        /* \"#utility.yul\":2211:2233   */\n      revert\n        /* \"#utility.yul\":2173:2175   */\n    tag_300:\n      pop\n        /* \"#utility.yul\":2254:2270   */\n      mload\n      swap2\n        /* \"#utility.yul\":2163:2276   */\n      swap1\n      pop\n      jump\t// out\n        /* \"#utility.yul\":2281:2711   */\n    tag_256:\n      0x00\n        /* \"#utility.yul\":2448:2454   */\n      dup3\n        /* \"#utility.yul\":2442:2455   */\n      mload\n        /* \"#utility.yul\":2473:2476   */\n      dup2\n        /* \"#utility.yul\":2485:2614   */\n    tag_302:\n        /* \"#utility.yul\":2499:2505   */\n      dup2\n        /* \"#utility.yul\":2496:2497   */\n      dup2\n        /* \"#utility.yul\":2493:2506   */\n      lt\n        /* \"#utility.yul\":2485:2614   */\n      iszero\n      tag_304\n      jumpi\n        /* \"#utility.yul\":2597:2601   */\n      0x20\n        /* \"#utility.yul\":2581:2595   */\n      dup2\n      dup7\n      add\n        /* \"#utility.yul\":2577:2602   */\n      dup2\n      add\n        /* \"#utility.yul\":2571:2603   */\n      mload\n        /* \"#utility.yul\":2558:2569   */\n      dup6\n      dup4\n      add\n        /* \"#utility.yul\":2551:2604   */\n      mstore\n        /* \"#utility.yul\":2514:2526   */\n      add\n        /* \"#utility.yul\":2485:2614   */\n      jump(tag_302)\n    tag_304:\n        /* \"#utility.yul\":2632:2638   */\n      dup2\n        /* \"#utility.yul\":2629:2630   */\n      dup2\n        /* \"#utility.yul\":2626:2639   */\n      gt\n        /* \"#utility.yul\":2623:2625   */\n      iszero\n      tag_305\n      jumpi\n        /* \"#utility.yul\":2667:2670   */\n      dup3\n        /* \"#utility.yul\":2658:2664   */\n      dup3\n        /* \"#utility.yul\":2653:2656   */\n      dup6\n        /* \"#utility.yul\":2649:2665   */\n      add\n        /* \"#utility.yul\":2642:2671   */\n      mstore\n        /* \"#utility.yul\":2623:2625   */\n    tag_305:\n      pop\n        /* \"#utility.yul\":2689:2705   */\n      swap2\n      swap1\n      swap2\n      add\n      swap3\n        /* \"#utility.yul\":2418:2711   */\n      swap2\n      pop\n      pop\n      jump\t// out\n        /* \"#utility.yul\":2716:2919   */\n    tag_61:\n      sub(shl(0xa0, 0x01), 0x01)\n        /* \"#utility.yul\":2880:2912   */\n      swap2\n      swap1\n      swap2\n      and\n        /* \"#utility.yul\":2862:2913   */\n      dup2\n      mstore\n        /* \"#utility.yul\":2850:2852   */\n      0x20\n        /* \"#utility.yul\":2835:2853   */\n      add\n      swap1\n        /* \"#utility.yul\":2817:2919   */\n      jump\t// out\n        /* \"#utility.yul\":2924:4012   */\n    tag_32:\n      sub(shl(0xa0, 0x01), 0x01)\n        /* \"#utility.yul\":3473:3488   */\n      swap13\n      dup14\n      and\n        /* \"#utility.yul\":3455:3489   */\n      dup2\n      mstore\n        /* \"#utility.yul\":3525:3540   */\n      swap11\n      dup13\n      and\n        /* \"#utility.yul\":3520:3522   */\n      0x20\n        /* \"#utility.yul\":3505:3523   */\n      dup13\n      add\n        /* \"#utility.yul\":3498:3541   */\n      mstore\n        /* \"#utility.yul\":3577:3592   */\n      swap9\n      swap1\n      swap11\n      and\n        /* \"#utility.yul\":3572:3574   */\n      0x40\n        /* \"#utility.yul\":3557:3575   */\n      dup11\n      add\n        /* \"#utility.yul\":3550:3593   */\n      mstore\n        /* \"#utility.yul\":3624:3626   */\n      0x60\n        /* \"#utility.yul\":3609:3627   */\n      dup10\n      add\n        /* \"#utility.yul\":3602:3636   */\n      swap7\n      swap1\n      swap7\n      mstore\n        /* \"#utility.yul\":3667:3670   */\n      0x80\n        /* \"#utility.yul\":3652:3671   */\n      dup9\n      add\n        /* \"#utility.yul\":3645:3680   */\n      swap5\n      swap1\n      swap5\n      mstore\n        /* \"#utility.yul\":3435:3438   */\n      0xa0\n        /* \"#utility.yul\":3696:3715   */\n      dup8\n      add\n        /* \"#utility.yul\":3689:3724   */\n      swap3\n      swap1\n      swap3\n      mstore\n        /* \"#utility.yul\":3755:3758   */\n      0xc0\n        /* \"#utility.yul\":3740:3759   */\n      dup7\n      add\n        /* \"#utility.yul\":3733:3768   */\n      mstore\n        /* \"#utility.yul\":3799:3802   */\n      0xe0\n        /* \"#utility.yul\":3784:3803   */\n      dup6\n      add\n        /* \"#utility.yul\":3777:3812   */\n      mstore\n        /* \"#utility.yul\":3843:3846   */\n      0x0100\n        /* \"#utility.yul\":3828:3847   */\n      dup5\n      add\n        /* \"#utility.yul\":3821:3856   */\n      mstore\n        /* \"#utility.yul\":3887:3890   */\n      0x0120\n        /* \"#utility.yul\":3872:3891   */\n      dup4\n      add\n        /* \"#utility.yul\":3865:3900   */\n      mstore\n        /* \"#utility.yul\":3944:3959   */\n      swap2\n      iszero\n        /* \"#utility.yul\":3937:3960   */\n      iszero\n        /* \"#utility.yul\":3931:3934   */\n      0x0140\n        /* \"#utility.yul\":3916:3935   */\n      dup3\n      add\n        /* \"#utility.yul\":3909:3961   */\n      mstore\n        /* \"#utility.yul\":3992:3995   */\n      0x0160\n        /* \"#utility.yul\":3977:3996   */\n      dup2\n      add\n        /* \"#utility.yul\":3970:4006   */\n      swap2\n      swap1\n      swap2\n      mstore\n        /* \"#utility.yul\":3404:3407   */\n      0x0180\n        /* \"#utility.yul\":3389:3408   */\n      add\n      swap1\n        /* \"#utility.yul\":3371:4012   */\n      jump\t// out\n        /* \"#utility.yul\":4017:4392   */\n    tag_254:\n      sub(shl(0xa0, 0x01), 0x01)\n        /* \"#utility.yul\":4275:4290   */\n      swap4\n      dup5\n      and\n        /* \"#utility.yul\":4257:4291   */\n      dup2\n      mstore\n        /* \"#utility.yul\":4327:4342   */\n      swap2\n      swap1\n      swap3\n      and\n        /* \"#utility.yul\":4322:4324   */\n      0x20\n        /* \"#utility.yul\":4307:4325   */\n      dup3\n      add\n        /* \"#utility.yul\":4300:4343   */\n      mstore\n        /* \"#utility.yul\":4374:4376   */\n      0x40\n        /* \"#utility.yul\":4359:4377   */\n      dup2\n      add\n        /* \"#utility.yul\":4352:4386   */\n      swap2\n      swap1\n      swap2\n      mstore\n        /* \"#utility.yul\":4207:4209   */\n      0x60\n        /* \"#utility.yul\":4192:4210   */\n      add\n      swap1\n        /* \"#utility.yul\":4174:4392   */\n      jump\t// out\n        /* \"#utility.yul\":4397:4584   */\n    tag_89:\n        /* \"#utility.yul\":4562:4576   */\n      swap1\n      iszero\n        /* \"#utility.yul\":4555:4577   */\n      iszero\n        /* \"#utility.yul\":4537:4578   */\n      dup2\n      mstore\n        /* \"#utility.yul\":4525:4527   */\n      0x20\n        /* \"#utility.yul\":4510:4528   */\n      add\n      swap1\n        /* \"#utility.yul\":4492:4584   */\n      jump\t// out\n        /* \"#utility.yul\":4811:5162   */\n    tag_161:\n        /* \"#utility.yul\":5013:5015   */\n      0x20\n        /* \"#utility.yul\":4995:5016   */\n      dup1\n      dup3\n      mstore\n        /* \"#utility.yul\":5052:5054   */\n      0x1b\n        /* \"#utility.yul\":5032:5050   */\n      swap1\n      dup3\n      add\n        /* \"#utility.yul\":5025:5055   */\n      mstore\n        /* \"#utility.yul\":5091:5120   */\n      0x416c6c20746f6b656e20686173206265656e2077697468647261770000000000\n        /* \"#utility.yul\":5086:5088   */\n      0x40\n        /* \"#utility.yul\":5071:5089   */\n      dup3\n      add\n        /* \"#utility.yul\":5064:5121   */\n      mstore\n        /* \"#utility.yul\":5153:5155   */\n      0x60\n        /* \"#utility.yul\":5138:5156   */\n      add\n      swap1\n        /* \"#utility.yul\":4985:5162   */\n      jump\t// out\n        /* \"#utility.yul\":5167:5569   */\n    tag_237:\n        /* \"#utility.yul\":5369:5371   */\n      0x20\n        /* \"#utility.yul\":5351:5372   */\n      dup1\n      dup3\n      mstore\n        /* \"#utility.yul\":5408:5410   */\n      0x26\n        /* \"#utility.yul\":5388:5406   */\n      swap1\n      dup3\n      add\n        /* \"#utility.yul\":5381:5411   */\n      mstore\n        /* \"#utility.yul\":5447:5481   */\n      0x4f776e61626c653a206e6577206f776e657220697320746865207a65726f2061\n        /* \"#utility.yul\":5442:5444   */\n      0x40\n        /* \"#utility.yul\":5427:5445   */\n      dup3\n      add\n        /* \"#utility.yul\":5420:5482   */\n      mstore\n      shl(0xd0, 0x646472657373)\n        /* \"#utility.yul\":5513:5515   */\n      0x60\n        /* \"#utility.yul\":5498:5516   */\n      dup3\n      add\n        /* \"#utility.yul\":5491:5527   */\n      mstore\n        /* \"#utility.yul\":5559:5562   */\n      0x80\n        /* \"#utility.yul\":5544:5563   */\n      add\n      swap1\n        /* \"#utility.yul\":5341:5569   */\n      jump\t// out\n        /* \"#utility.yul\":5574:5912   */\n    tag_184:\n        /* \"#utility.yul\":5776:5778   */\n      0x20\n        /* \"#utility.yul\":5758:5779   */\n      dup1\n      dup3\n      mstore\n        /* \"#utility.yul\":5815:5817   */\n      0x0e\n        /* \"#utility.yul\":5795:5813   */\n      swap1\n      dup3\n      add\n        /* \"#utility.yul\":5788:5818   */\n      mstore\n      shl(0x90, 0x4f766572666c6f772076616c7565)\n        /* \"#utility.yul\":5849:5851   */\n      0x40\n        /* \"#utility.yul\":5834:5852   */\n      dup3\n      add\n        /* \"#utility.yul\":5827:5871   */\n      mstore\n        /* \"#utility.yul\":5903:5905   */\n      0x60\n        /* \"#utility.yul\":5888:5906   */\n      add\n      swap1\n        /* \"#utility.yul\":5748:5912   */\n      jump\t// out\n        /* \"#utility.yul\":5917:6251   */\n    tag_178:\n        /* \"#utility.yul\":6119:6121   */\n      0x20\n        /* \"#utility.yul\":6101:6122   */\n      dup1\n      dup3\n      mstore\n        /* \"#utility.yul\":6158:6160   */\n      0x0a\n        /* \"#utility.yul\":6138:6156   */\n      swap1\n      dup3\n      add\n        /* \"#utility.yul\":6131:6161   */\n      mstore\n      shl(0xb0, 0x4e6f7420616374697665)\n        /* \"#utility.yul\":6192:6194   */\n      0x40\n        /* \"#utility.yul\":6177:6195   */\n      dup3\n      add\n        /* \"#utility.yul\":6170:6210   */\n      mstore\n        /* \"#utility.yul\":6242:6244   */\n      0x60\n        /* \"#utility.yul\":6227:6245   */\n      add\n      swap1\n        /* \"#utility.yul\":6091:6251   */\n      jump\t// out\n        /* \"#utility.yul\":6256:6596   */\n    tag_181:\n        /* \"#utility.yul\":6458:6460   */\n      0x20\n        /* \"#utility.yul\":6440:6461   */\n      dup1\n      dup3\n      mstore\n        /* \"#utility.yul\":6497:6499   */\n      0x10\n        /* \"#utility.yul\":6477:6495   */\n      swap1\n      dup3\n      add\n        /* \"#utility.yul\":6470:6500   */\n      mstore\n      shl(0x80, 0x4e6f7420656e6f7567682076616c7565)\n        /* \"#utility.yul\":6531:6533   */\n      0x40\n        /* \"#utility.yul\":6516:6534   */\n      dup3\n      add\n        /* \"#utility.yul\":6509:6555   */\n      mstore\n        /* \"#utility.yul\":6587:6589   */\n      0x60\n        /* \"#utility.yul\":6572:6590   */\n      add\n      swap1\n        /* \"#utility.yul\":6430:6596   */\n      jump\t// out\n        /* \"#utility.yul\":6601:6937   */\n    tag_156:\n        /* \"#utility.yul\":6803:6805   */\n      0x20\n        /* \"#utility.yul\":6785:6806   */\n      dup1\n      dup3\n      mstore\n        /* \"#utility.yul\":6842:6844   */\n      0x0c\n        /* \"#utility.yul\":6822:6840   */\n      swap1\n      dup3\n      add\n        /* \"#utility.yul\":6815:6845   */\n      mstore\n      shl(0xa0, 0x53616c652073756365737373)\n        /* \"#utility.yul\":6876:6878   */\n      0x40\n        /* \"#utility.yul\":6861:6879   */\n      dup3\n      add\n        /* \"#utility.yul\":6854:6896   */\n      mstore\n        /* \"#utility.yul\":6928:6930   */\n      0x60\n        /* \"#utility.yul\":6913:6931   */\n      add\n      swap1\n        /* \"#utility.yul\":6775:6937   */\n      jump\t// out\n        /* \"#utility.yul\":6942:7298   */\n    tag_117:\n        /* \"#utility.yul\":7144:7146   */\n      0x20\n        /* \"#utility.yul\":7126:7147   */\n      dup1\n      dup3\n      mstore\n        /* \"#utility.yul\":7163:7181   */\n      dup2\n      dup2\n      add\n        /* \"#utility.yul\":7156:7186   */\n      mstore\n        /* \"#utility.yul\":7222:7256   */\n      0x4f776e61626c653a2063616c6c6572206973206e6f7420746865206f776e6572\n        /* \"#utility.yul\":7217:7219   */\n      0x40\n        /* \"#utility.yul\":7202:7220   */\n      dup3\n      add\n        /* \"#utility.yul\":7195:7257   */\n      mstore\n        /* \"#utility.yul\":7289:7291   */\n      0x60\n        /* \"#utility.yul\":7274:7292   */\n      add\n      swap1\n        /* \"#utility.yul\":7116:7298   */\n      jump\t// out\n        /* \"#utility.yul\":7303:7706   */\n    tag_164:\n        /* \"#utility.yul\":7505:7507   */\n      0x20\n        /* \"#utility.yul\":7487:7508   */\n      dup1\n      dup3\n      mstore\n        /* \"#utility.yul\":7544:7546   */\n      0x27\n        /* \"#utility.yul\":7524:7542   */\n      swap1\n      dup3\n      add\n        /* \"#utility.yul\":7517:7547   */\n      mstore\n        /* \"#utility.yul\":7583:7617   */\n      0x596f7520776974686472617720616c6c206f722068617665206e6f7420626f75\n        /* \"#utility.yul\":7578:7580   */\n      0x40\n        /* \"#utility.yul\":7563:7581   */\n      dup3\n      add\n        /* \"#utility.yul\":7556:7618   */\n      mstore\n      shl(0xca, 0x19da1d081e595d)\n        /* \"#utility.yul\":7649:7651   */\n      0x60\n        /* \"#utility.yul\":7634:7652   */\n      dup3\n      add\n        /* \"#utility.yul\":7627:7664   */\n      mstore\n        /* \"#utility.yul\":7696:7699   */\n      0x80\n        /* \"#utility.yul\":7681:7700   */\n      add\n      swap1\n        /* \"#utility.yul\":7477:7706   */\n      jump\t// out\n        /* \"#utility.yul\":7711:8111   */\n    tag_266:\n        /* \"#utility.yul\":7913:7915   */\n      0x20\n        /* \"#utility.yul\":7895:7916   */\n      dup1\n      dup3\n      mstore\n        /* \"#utility.yul\":7952:7954   */\n      0x24\n        /* \"#utility.yul\":7932:7950   */\n      swap1\n      dup3\n      add\n        /* \"#utility.yul\":7925:7955   */\n      mstore\n        /* \"#utility.yul\":7991:8025   */\n      0x5472616e7366657248656c7065723a205452414e534645525f46524f4d5f4641\n        /* \"#utility.yul\":7986:7988   */\n      0x40\n        /* \"#utility.yul\":7971:7989   */\n      dup3\n      add\n        /* \"#utility.yul\":7964:8026   */\n      mstore\n      shl(0xe2, 0x12531151)\n        /* \"#utility.yul\":8057:8059   */\n      0x60\n        /* \"#utility.yul\":8042:8060   */\n      dup3\n      add\n        /* \"#utility.yul\":8035:8069   */\n      mstore\n        /* \"#utility.yul\":8101:8104   */\n      0x80\n        /* \"#utility.yul\":8086:8105   */\n      add\n      swap1\n        /* \"#utility.yul\":7885:8111   */\n      jump\t// out\n        /* \"#utility.yul\":8116:8471   */\n    tag_173:\n        /* \"#utility.yul\":8318:8320   */\n      0x20\n        /* \"#utility.yul\":8300:8321   */\n      dup1\n      dup3\n      mstore\n        /* \"#utility.yul\":8357:8359   */\n      0x1f\n        /* \"#utility.yul\":8337:8355   */\n      swap1\n      dup3\n      add\n        /* \"#utility.yul\":8330:8360   */\n      mstore\n        /* \"#utility.yul\":8396:8429   */\n      0x5265656e7472616e637947756172643a207265656e7472616e742063616c6c00\n        /* \"#utility.yul\":8391:8393   */\n      0x40\n        /* \"#utility.yul\":8376:8394   */\n      dup3\n      add\n        /* \"#utility.yul\":8369:8430   */\n      mstore\n        /* \"#utility.yul\":8462:8464   */\n      0x60\n        /* \"#utility.yul\":8447:8465   */\n      add\n      swap1\n        /* \"#utility.yul\":8290:8471   */\n      jump\t// out\n        /* \"#utility.yul\":8476:8815   */\n    tag_197:\n        /* \"#utility.yul\":8678:8680   */\n      0x20\n        /* \"#utility.yul\":8660:8681   */\n      dup1\n      dup3\n      mstore\n        /* \"#utility.yul\":8717:8719   */\n      0x0f\n        /* \"#utility.yul\":8697:8715   */\n      swap1\n      dup3\n      add\n        /* \"#utility.yul\":8690:8720   */\n      mstore\n      shl(0x88, 0x53616c652069732073756363657373)\n        /* \"#utility.yul\":8751:8753   */\n      0x40\n        /* \"#utility.yul\":8736:8754   */\n      dup3\n      add\n        /* \"#utility.yul\":8729:8774   */\n      mstore\n        /* \"#utility.yul\":8806:8808   */\n      0x60\n        /* \"#utility.yul\":8791:8809   */\n      add\n      swap1\n        /* \"#utility.yul\":8650:8815   */\n      jump\t// out\n        /* \"#utility.yul\":8820:8997   */\n    tag_37:\n        /* \"#utility.yul\":8966:8991   */\n      swap1\n      dup2\n      mstore\n        /* \"#utility.yul\":8954:8956   */\n      0x20\n        /* \"#utility.yul\":8939:8957   */\n      add\n      swap1\n        /* \"#utility.yul\":8921:8997   */\n      jump\t// out\n        /* \"#utility.yul\":9002:9250   */\n    tag_27:\n        /* \"#utility.yul\":9176:9201   */\n      swap2\n      dup3\n      mstore\n        /* \"#utility.yul\":9232:9234   */\n      0x20\n        /* \"#utility.yul\":9217:9235   */\n      dup3\n      add\n        /* \"#utility.yul\":9210:9244   */\n      mstore\n        /* \"#utility.yul\":9164:9166   */\n      0x40\n        /* \"#utility.yul\":9149:9167   */\n      add\n      swap1\n        /* \"#utility.yul\":9131:9250   */\n      jump\t// out\n        /* \"#utility.yul\":9255:9810   */\n    tag_95:\n        /* \"#utility.yul\":9530:9555   */\n      swap6\n      dup7\n      mstore\n        /* \"#utility.yul\":9586:9588   */\n      0x20\n        /* \"#utility.yul\":9571:9589   */\n      dup7\n      add\n        /* \"#utility.yul\":9564:9598   */\n      swap5\n      swap1\n      swap5\n      mstore\n        /* \"#utility.yul\":9629:9631   */\n      0x40\n        /* \"#utility.yul\":9614:9632   */\n      dup6\n      add\n        /* \"#utility.yul\":9607:9641   */\n      swap3\n      swap1\n      swap3\n      mstore\n        /* \"#utility.yul\":9672:9674   */\n      0x60\n        /* \"#utility.yul\":9657:9675   */\n      dup5\n      add\n        /* \"#utility.yul\":9650:9684   */\n      mstore\n        /* \"#utility.yul\":9728:9742   */\n      iszero\n        /* \"#utility.yul\":9721:9743   */\n      iszero\n        /* \"#utility.yul\":9715:9718   */\n      0x80\n        /* \"#utility.yul\":9700:9719   */\n      dup4\n      add\n        /* \"#utility.yul\":9693:9744   */\n      mstore\n        /* \"#utility.yul\":9788:9802   */\n      iszero\n        /* \"#utility.yul\":9781:9803   */\n      iszero\n        /* \"#utility.yul\":9775:9778   */\n      0xa0\n        /* \"#utility.yul\":9760:9779   */\n      dup3\n      add\n        /* \"#utility.yul\":9753:9804   */\n      mstore\n        /* \"#utility.yul\":9517:9520   */\n      0xc0\n        /* \"#utility.yul\":9502:9521   */\n      add\n      swap1\n        /* \"#utility.yul\":9484:9810   */\n      jump\t// out\n        /* \"#utility.yul\":9815:10350   */\n    tag_75:\n        /* \"#utility.yul\":10102:10127   */\n      swap6\n      dup7\n      mstore\n        /* \"#utility.yul\":10158:10160   */\n      0x20\n        /* \"#utility.yul\":10143:10161   */\n      dup7\n      add\n        /* \"#utility.yul\":10136:10170   */\n      swap5\n      swap1\n      swap5\n      mstore\n        /* \"#utility.yul\":10201:10203   */\n      0x40\n        /* \"#utility.yul\":10186:10204   */\n      dup6\n      add\n        /* \"#utility.yul\":10179:10213   */\n      swap3\n      swap1\n      swap3\n      mstore\n        /* \"#utility.yul\":10244:10246   */\n      0x60\n        /* \"#utility.yul\":10229:10247   */\n      dup5\n      add\n        /* \"#utility.yul\":10222:10256   */\n      mstore\n        /* \"#utility.yul\":10287:10290   */\n      0x80\n        /* \"#utility.yul\":10272:10291   */\n      dup4\n      add\n        /* \"#utility.yul\":10265:10300   */\n      mstore\n        /* \"#utility.yul\":10331:10334   */\n      0xa0\n        /* \"#utility.yul\":10316:10335   */\n      dup3\n      add\n        /* \"#utility.yul\":10309:10344   */\n      mstore\n        /* \"#utility.yul\":10089:10092   */\n      0xc0\n        /* \"#utility.yul\":10074:10093   */\n      add\n      swap1\n        /* \"#utility.yul\":10056:10350   */\n      jump\t// out\n        /* \"#utility.yul\":10355:10483   */\n    tag_206:\n      0x00\n        /* \"#utility.yul\":10426:10427   */\n      dup3\n        /* \"#utility.yul\":10422:10428   */\n      not\n        /* \"#utility.yul\":10419:10420   */\n      dup3\n        /* \"#utility.yul\":10416:10429   */\n      gt\n        /* \"#utility.yul\":10413:10415   */\n      iszero\n      tag_328\n      jumpi\n        /* \"#utility.yul\":10432:10450   */\n      tag_328\n      tag_329\n      jump\t// in\n    tag_328:\n      pop\n        /* \"#utility.yul\":10468:10477   */\n      add\n      swap1\n        /* \"#utility.yul\":10403:10483   */\n      jump\t// out\n        /* \"#utility.yul\":10488:10705   */\n    tag_251:\n      0x00\n        /* \"#utility.yul\":10554:10555   */\n      dup3\n        /* \"#utility.yul\":10544:10546   */\n      tag_331\n      jumpi\n      shl(0xe0, 0x4e487b71)\n        /* \"#utility.yul\":10579:10610   */\n      dup2\n      mstore\n        /* \"#utility.yul\":10633:10637   */\n      0x12\n        /* \"#utility.yul\":10630:10631   */\n      0x04\n        /* \"#utility.yul\":10623:10638   */\n      mstore\n        /* \"#utility.yul\":10661:10665   */\n      0x24\n        /* \"#utility.yul\":10586:10587   */\n      dup2\n        /* \"#utility.yul\":10651:10666   */\n      revert\n        /* \"#utility.yul\":10544:10546   */\n    tag_331:\n      pop\n        /* \"#utility.yul\":10690:10699   */\n      div\n      swap1\n        /* \"#utility.yul\":10534:10705   */\n      jump\t// out\n        /* \"#utility.yul\":10710:11163   */\n    tag_332:\n        /* \"#utility.yul\":10806:10812   */\n      dup1\n        /* \"#utility.yul\":10829:10834   */\n      dup3\n        /* \"#utility.yul\":10843:11157   */\n    tag_334:\n        /* \"#utility.yul\":10892:10893   */\n      0x01\n        /* \"#utility.yul\":10929:10931   */\n      dup1\n        /* \"#utility.yul\":10919:10927   */\n      dup7\n        /* \"#utility.yul\":10916:10932   */\n      gt\n        /* \"#utility.yul\":10906:10908   */\n      tag_337\n      jumpi\n        /* \"#utility.yul\":10936:10941   */\n      pop\n      jump(tag_336)\n        /* \"#utility.yul\":10906:10908   */\n    tag_337:\n        /* \"#utility.yul\":10977:10981   */\n      dup2\n        /* \"#utility.yul\":10972:10975   */\n      dup8\n        /* \"#utility.yul\":10968:10982   */\n      div\n        /* \"#utility.yul\":10962:10966   */\n      dup3\n        /* \"#utility.yul\":10959:10983   */\n      gt\n        /* \"#utility.yul\":10956:10958   */\n      iszero\n      tag_339\n      jumpi\n        /* \"#utility.yul\":10986:11004   */\n      tag_339\n      tag_329\n      jump\t// in\n    tag_339:\n        /* \"#utility.yul\":11036:11038   */\n      dup1\n        /* \"#utility.yul\":11026:11034   */\n      dup7\n        /* \"#utility.yul\":11022:11039   */\n      and\n        /* \"#utility.yul\":11019:11021   */\n      iszero\n      tag_340\n      jumpi\n        /* \"#utility.yul\":11051:11067   */\n      swap2\n      dup2\n      mul\n      swap2\n        /* \"#utility.yul\":11019:11021   */\n    tag_340:\n        /* \"#utility.yul\":11130:11147   */\n      swap5\n      swap1\n      swap5\n      shr\n      swap4\n        /* \"#utility.yul\":11090:11105   */\n      dup1\n      mul\n        /* \"#utility.yul\":10843:11157   */\n      jump(tag_334)\n    tag_336:\n        /* \"#utility.yul\":10787:11163   */\n      swap5\n      pop\n      swap5\n      swap3\n      pop\n      pop\n      pop\n      jump\t// out\n        /* \"#utility.yul\":11168:11307   */\n    tag_132:\n      0x00\n        /* \"#utility.yul\":11257:11301   */\n      tag_241\n      not(0x00)\n        /* \"#utility.yul\":11284:11292   */\n      dup5\n        /* \"#utility.yul\":11278:11282   */\n      dup5\n        /* \"#utility.yul\":11312:12234   */\n      0x00\n        /* \"#utility.yul\":11396:11404   */\n      dup3\n        /* \"#utility.yul\":11386:11388   */\n      tag_345\n      jumpi\n      pop\n        /* \"#utility.yul\":11437:11438   */\n      0x01\n        /* \"#utility.yul\":11451:11456   */\n      jump(tag_279)\n        /* \"#utility.yul\":11386:11388   */\n    tag_345:\n        /* \"#utility.yul\":11485:11489   */\n      dup2\n        /* \"#utility.yul\":11475:11477   */\n      tag_346\n      jumpi\n      pop\n        /* \"#utility.yul\":11522:11523   */\n      0x00\n        /* \"#utility.yul\":11536:11541   */\n      jump(tag_279)\n        /* \"#utility.yul\":11475:11477   */\n    tag_346:\n        /* \"#utility.yul\":11567:11571   */\n      dup2\n        /* \"#utility.yul\":11585:11586   */\n      0x01\n        /* \"#utility.yul\":11580:11639   */\n      dup2\n      eq\n      tag_348\n      jumpi\n        /* \"#utility.yul\":11653:11654   */\n      0x02\n        /* \"#utility.yul\":11648:11831   */\n      dup2\n      eq\n      tag_349\n      jumpi\n        /* \"#utility.yul\":11560:11831   */\n      jump(tag_347)\n        /* \"#utility.yul\":11580:11639   */\n    tag_348:\n        /* \"#utility.yul\":11610:11611   */\n      0x01\n        /* \"#utility.yul\":11601:11611   */\n      swap2\n      pop\n        /* \"#utility.yul\":11624:11629   */\n      pop\n      jump(tag_279)\n        /* \"#utility.yul\":11648:11831   */\n    tag_349:\n        /* \"#utility.yul\":11685:11688   */\n      0xff\n        /* \"#utility.yul\":11675:11683   */\n      dup5\n        /* \"#utility.yul\":11672:11689   */\n      gt\n        /* \"#utility.yul\":11669:11671   */\n      iszero\n      tag_351\n      jumpi\n        /* \"#utility.yul\":11692:11710   */\n      tag_351\n      tag_329\n      jump\t// in\n    tag_351:\n        /* \"#utility.yul\":11748:11749   */\n      0x01\n        /* \"#utility.yul\":11738:11746   */\n      dup5\n        /* \"#utility.yul\":11734:11750   */\n      shl\n        /* \"#utility.yul\":11725:11750   */\n      swap2\n      pop\n        /* \"#utility.yul\":11776:11779   */\n      dup5\n        /* \"#utility.yul\":11769:11774   */\n      dup3\n        /* \"#utility.yul\":11766:11780   */\n      gt\n        /* \"#utility.yul\":11763:11765   */\n      iszero\n      tag_353\n      jumpi\n        /* \"#utility.yul\":11783:11801   */\n      tag_353\n      tag_329\n      jump\t// in\n    tag_353:\n        /* \"#utility.yul\":11816:11821   */\n      pop\n      jump(tag_279)\n        /* \"#utility.yul\":11560:11831   */\n    tag_347:\n      pop\n        /* \"#utility.yul\":11915:11917   */\n      0x20\n        /* \"#utility.yul\":11905:11913   */\n      dup4\n        /* \"#utility.yul\":11902:11918   */\n      lt\n        /* \"#utility.yul\":11896:11899   */\n      0x0133\n        /* \"#utility.yul\":11890:11894   */\n      dup4\n        /* \"#utility.yul\":11887:11900   */\n      lt\n        /* \"#utility.yul\":11883:11919   */\n      and\n        /* \"#utility.yul\":11877:11879   */\n      0x4e\n        /* \"#utility.yul\":11867:11875   */\n      dup5\n        /* \"#utility.yul\":11864:11880   */\n      lt\n        /* \"#utility.yul\":11859:11861   */\n      0x0b\n        /* \"#utility.yul\":11853:11857   */\n      dup5\n        /* \"#utility.yul\":11850:11862   */\n      lt\n        /* \"#utility.yul\":11846:11881   */\n      and\n        /* \"#utility.yul\":11843:11920   */\n      or\n        /* \"#utility.yul\":11840:11842   */\n      iszero\n      tag_354\n      jumpi\n      pop\n        /* \"#utility.yul\":11952:11971   */\n      dup2\n      dup2\n      exp\n        /* \"#utility.yul\":11987:12001   */\n      dup4\n      dup2\n      gt\n        /* \"#utility.yul\":11984:11986   */\n      iszero\n      tag_356\n      jumpi\n        /* \"#utility.yul\":12004:12022   */\n      tag_356\n      tag_329\n      jump\t// in\n    tag_356:\n        /* \"#utility.yul\":12037:12042   */\n      jump(tag_279)\n        /* \"#utility.yul\":11840:11842   */\n    tag_354:\n        /* \"#utility.yul\":12084:12126   */\n      tag_357\n        /* \"#utility.yul\":12122:12125   */\n      dup5\n        /* \"#utility.yul\":12112:12120   */\n      dup5\n        /* \"#utility.yul\":12106:12110   */\n      dup5\n        /* \"#utility.yul\":12103:12104   */\n      0x01\n        /* \"#utility.yul\":12084:12126   */\n      tag_332\n      jump\t// in\n    tag_357:\n        /* \"#utility.yul\":12159:12165   */\n      dup1\n        /* \"#utility.yul\":12154:12157   */\n      dup7\n        /* \"#utility.yul\":12150:12166   */\n      div\n        /* \"#utility.yul\":12141:12148   */\n      dup3\n        /* \"#utility.yul\":12138:12167   */\n      gt\n        /* \"#utility.yul\":12135:12137   */\n      iszero\n      tag_359\n      jumpi\n        /* \"#utility.yul\":12170:12188   */\n      tag_359\n      tag_329\n      jump\t// in\n    tag_359:\n        /* \"#utility.yul\":12208:12228   */\n      mul\n      swap5\n        /* \"#utility.yul\":11376:12234   */\n      swap4\n      pop\n      pop\n      pop\n      pop\n      jump\t// out\n        /* \"#utility.yul\":12239:12407   */\n    tag_135:\n      0x00\n        /* \"#utility.yul\":12345:12346   */\n      dup2\n        /* \"#utility.yul\":12341:12342   */\n      0x00\n        /* \"#utility.yul\":12337:12343   */\n      not\n        /* \"#utility.yul\":12333:12347   */\n      div\n        /* \"#utility.yul\":12330:12331   */\n      dup4\n        /* \"#utility.yul\":12327:12348   */\n      gt\n        /* \"#utility.yul\":12322:12323   */\n      dup3\n        /* \"#utility.yul\":12315:12324   */\n      iszero\n        /* \"#utility.yul\":12308:12325   */\n      iszero\n        /* \"#utility.yul\":12304:12349   */\n      and\n        /* \"#utility.yul\":12301:12303   */\n      iszero\n      tag_362\n      jumpi\n        /* \"#utility.yul\":12352:12370   */\n      tag_362\n      tag_329\n      jump\t// in\n    tag_362:\n      pop\n        /* \"#utility.yul\":12392:12401   */\n      mul\n      swap1\n        /* \"#utility.yul\":12291:12407   */\n      jump\t// out\n        /* \"#utility.yul\":12412:12537   */\n    tag_158:\n      0x00\n        /* \"#utility.yul\":12480:12481   */\n      dup3\n        /* \"#utility.yul\":12477:12478   */\n      dup3\n        /* \"#utility.yul\":12474:12482   */\n      lt\n        /* \"#utility.yul\":12471:12473   */\n      iszero\n      tag_365\n      jumpi\n        /* \"#utility.yul\":12485:12503   */\n      tag_365\n      tag_329\n      jump\t// in\n    tag_365:\n      pop\n        /* \"#utility.yul\":12522:12531   */\n      sub\n      swap1\n        /* \"#utility.yul\":12461:12537   */\n      jump\t// out\n        /* \"#utility.yul\":12542:12677   */\n    tag_211:\n      0x00\n      not(0x00)\n        /* \"#utility.yul\":12602:12619   */\n      dup3\n      eq\n        /* \"#utility.yul\":12599:12601   */\n      iszero\n      tag_368\n      jumpi\n        /* \"#utility.yul\":12622:12640   */\n      tag_368\n      tag_329\n      jump\t// in\n    tag_368:\n      pop\n        /* \"#utility.yul\":12669:12670   */\n      0x01\n        /* \"#utility.yul\":12658:12671   */\n      add\n      swap1\n        /* \"#utility.yul\":12589:12677   */\n      jump\t// out\n        /* \"#utility.yul\":12682:12809   */\n    tag_329:\n        /* \"#utility.yul\":12743:12753   */\n      0x4e487b71\n        /* \"#utility.yul\":12738:12741   */\n      0xe0\n        /* \"#utility.yul\":12734:12754   */\n      shl\n        /* \"#utility.yul\":12731:12732   */\n      0x00\n        /* \"#utility.yul\":12724:12755   */\n      mstore\n        /* \"#utility.yul\":12774:12778   */\n      0x11\n        /* \"#utility.yul\":12771:12772   */\n      0x04\n        /* \"#utility.yul\":12764:12779   */\n      mstore\n        /* \"#utility.yul\":12798:12802   */\n      0x24\n        /* \"#utility.yul\":12795:12796   */\n      0x00\n        /* \"#utility.yul\":12788:12803   */\n      revert\n        /* \"#utility.yul\":12814:12941   */\n    tag_289:\n        /* \"#utility.yul\":12875:12885   */\n      0x4e487b71\n        /* \"#utility.yul\":12870:12873   */\n      0xe0\n        /* \"#utility.yul\":12866:12886   */\n      shl\n        /* \"#utility.yul\":12863:12864   */\n      0x00\n        /* \"#utility.yul\":12856:12887   */\n      mstore\n        /* \"#utility.yul\":12906:12910   */\n      0x41\n        /* \"#utility.yul\":12903:12904   */\n      0x04\n        /* \"#utility.yul\":12896:12911   */\n      mstore\n        /* \"#utility.yul\":12930:12934   */\n      0x24\n        /* \"#utility.yul\":12927:12928   */\n      0x00\n        /* \"#utility.yul\":12920:12935   */\n      revert\n        /* \"#utility.yul\":12946:13079   */\n    tag_280:\n      sub(shl(0xa0, 0x01), 0x01)\n        /* \"#utility.yul\":13023:13054   */\n      dup2\n      and\n        /* \"#utility.yul\":13013:13055   */\n      dup2\n      eq\n        /* \"#utility.yul\":13003:13005   */\n      tag_123\n      jumpi\n        /* \"#utility.yul\":13069:13070   */\n      0x00\n        /* \"#utility.yul\":13066:13067   */\n      dup1\n        /* \"#utility.yul\":13059:13071   */\n      revert\n\n    auxdata: 0xa26469706673582212209ee4d4dd82c48082f4812f7ad30f9421ac742bde38893ee453f2cbaa8eeada4964736f6c63430008000033\n}\n",
				"bytecode": {
					"linkReferences": {},
					"object": "608060405260016000556200001d62000017620000ae565b620000b2565b6019805473c778417e063141139fce010982780140aa0cd5ab6001600160a01b031990911617905562000072601b736ccb41eeda5a073076f3e7dc1614c185b5fa41ed62000104602090811b62000b2417901c565b50620000a2734f0b12bbf40fc182559822a5b1db6d34dbc3e016601b6200010460201b62000b241790919060201c565b506014601a556200018b565b3390565b600180546001600160a01b038381166001600160a01b0319831681179093556040519116919082907f8be0079c531659141344cd1fd0a4f28419497f9722a3daafe3b4186f6b6457e090600090a35050565b60006200011b836001600160a01b03841662000124565b90505b92915050565b600062000132838362000173565b6200016a575081546001818101845560008481526020808220909301849055845484825282860190935260409020919091556200011e565b5060006200011e565b60009081526001919091016020526040902054151590565b6113f0806200019b6000396000f3fe6080604052600436106101095760003560e01c80638f1eae4c11610095578063b6b55f2511610064578063b6b55f2514610285578063cad5b0f714610298578063e2d3f423146102ba578063f2fde38b146102ec578063f8b2cb4f1461030c57610109565b80638f1eae4c14610214578063ab33985a14610234578063acfb235514610249578063ad5c46481461027057610109565b80633b5ef2ad116100dc5780633b5ef2ad1461019e57806356c5f349146101b3578063715018a6146101d3578063861faf5f146101ea5780638da5cb5b146101f257610109565b806312e5d0b91461010e57806318856a2f1461013a5780631df4ccfc14610167578063200d2ed214610189575b600080fd5b34801561011a57600080fd5b5061012361032c565b60405161013192919061117a565b60405180910390f35b34801561014657600080fd5b5061014f610335565b6040516101319c9b9a99989796959493929190610ea4565b34801561017357600080fd5b5061017c610376565b6040516101319190611171565b34801561019557600080fd5b5061017c61037c565b3480156101aa57600080fd5b5061017c6103aa565b3480156101bf57600080fd5b5061017c6101ce366004610d23565b6103b0565b3480156101df57600080fd5b506101e86103c2565b005b6101e8610416565b3480156101fe57600080fd5b50610207610445565b6040516101319190610e90565b34801561022057600080fd5b506101e861022f366004610d46565b610454565b34801561024057600080fd5b5061017c610629565b34801561025557600080fd5b5061025e6106ee565b604051610131969594939291906111b4565b34801561027c57600080fd5b50610207610703565b6101e8610293366004610e27565b610712565b3480156102a457600080fd5b506102ad610a54565b6040516101319190610f2d565b3480156102c657600080fd5b506102da6102d5366004610d23565b610a6e565b60405161013196959493929190611188565b3480156102f857600080fd5b506101e8610307366004610d23565b610aa9565b34801561031857600080fd5b5061017c610327366004610d23565b610b17565b600b54600c5482565b600d54600e54600f546010546011546012546013546014546015546016546017546018546001600160a01b039b8c169b9a8b169a9099169860ff909116908c565b601d5481565b601154600090421015610391575060006103a7565b6012544211156103a3575060026103a7565b5060015b90565b601a5481565b60036020526000908152604090205481565b6103ca610b42565b6001600160a01b03166103db610445565b6001600160a01b03161461040a5760405162461bcd60e51b815260040161040190611051565b60405180910390fd5b6104146000610b46565b565b60405133904780156108fc02916000818181858888f19350505050158015610442573d6000803e3d6000fd5b50565b6001546001600160a01b031690565b600d80546001600160a01b038087166001600160a01b031992831617909255600e80548684169083161790819055600f80548685169316929092179091556040805163313ce56760e01b81529051919092169163313ce567916004808301926020929190829003018186803b1580156104cc57600080fd5b505afa1580156104e0573d6000803e3d6000fd5b505050506040513d601f19601f820116820180604052508101906105049190610e3f565b61050f90600a61125a565b815161051b9190611328565b6010556020808201516011556040808301516012556060830151601355600f54815163313ce56760e01b815291516001600160a01b039091169263313ce5679260048082019391829003018186803b15801561057657600080fd5b505afa15801561058a573d6000803e3d6000fd5b505050506040513d601f19601f820116820180604052508101906105ae9190610e3f565b6105b990600a61125a565b60808201516105c89190611328565b60145560a081015160155560c081015160165560e0810151600b819055610100820151600c55600f54601954601780546001600160a01b03938416939092169290921460ff1990911617905560105461062091610b98565b60185550505050565b600061063361037c565b6001146106525760405162461bcd60e51b81526004016104019061102b565b60065460055460009161066491611347565b116106815760405162461bcd60e51b815260040161040190610f38565b33600090815260026020526040902060018101546106b15760405162461bcd60e51b815260040161040190611086565b60006106e76103e86106e184600101546106db600d600901546103e8610ba490919063ffffffff16565b90610b98565b90610bb0565b9250505090565b60045460055460065460075460085460095486565b6019546001600160a01b031681565b600260005414156107355760405162461bcd60e51b815260040161040190611111565b600260005561074261037c565b6001146107615760405162461bcd60e51b815260040161040190610fdd565b336000908152600260205260408120601354909183918291906103e89083101561079d5760405162461bcd60e51b815260040161040190611001565b6014548311156107bf5760405162461bcd60e51b815260040161040190610fb5565b6107c7610a54565b6107f7576107e8816106e1856106db601a5486610ba490919063ffffffff16565b92506107f48385611347565b91505b845460145460009161080891611347565b60045460185491925060009161081e9190611347565b9050600081831161082f5782610831565b815b9050808611156108535760405162461bcd60e51b815260040161040190611148565b60006108fa600d60020160009054906101000a90046001600160a01b03166001600160a01b031663313ce5676040518163ffffffff1660e01b815260040160206040518083038186803b1580156108a957600080fd5b505afa1580156108bd573d6000803e3d6000fd5b505050506040513d601f19601f820116820180604052508101906108e19190610e3f565b6108ec90600a61125a565b6010546106e1908a90610b98565b90508789600001600082825461091091906111dc565b925050819055508089600101600082825461092b91906111dc565b9091555050600480548891906000906109459084906111dc565b90915550506005805482919060009061095f9084906111dc565b9091555050600880549060006109748361135e565b909155505033600090815260036020526040812080548892906109989084906111dc565b9250508190555085601d60008282546109b191906111dc565b909155505060175460ff1680156109d05750346109ce87896111dc565b105b15610a1857336108fc876109e48a34611347565b6109ee9190611347565b6040518115909202916000818181858888f19350505050158015610a16573d6000803e3d6000fd5b505b60175460ff16610a4357600f54610a43906001600160a01b03163330610a3e8a8c6111dc565b610bbc565b505060016000555050505050505050565b6000610a69610a61610b42565b601b90610cac565b905090565b600260208190526000918252604090912080546001820154928201546003830154600490930154919392909160ff8082169161010090041686565b610ab1610b42565b6001600160a01b0316610ac2610445565b6001600160a01b031614610ae85760405162461bcd60e51b815260040161040190611051565b6001600160a01b038116610b0e5760405162461bcd60e51b815260040161040190610f6f565b61044281610b46565b6001600160a01b03163190565b6000610b39836001600160a01b038416610cc1565b90505b92915050565b3390565b600180546001600160a01b038381166001600160a01b0319831681179093556040519116919082907f8be0079c531659141344cd1fd0a4f28419497f9722a3daafe3b4186f6b6457e090600090a35050565b6000610b398284611328565b6000610b398284611347565b6000610b3982846111f4565b600080856001600160a01b03166323b872dd868686604051602401610be393929190610f09565b6040516020818303038152906040529060e01b6020820180516001600160e01b038381831617835250505050604051610c1c9190610e57565b6000604051808303816000865af19150503d8060008114610c59576040519150601f19603f3d011682016040523d82523d6000602084013e610c5e565b606091505b5091509150818015610c88575080511580610c88575080806020019051810190610c889190610e07565b610ca45760405162461bcd60e51b8152600401610401906110cd565b505050505050565b6000610b39836001600160a01b038416610d0b565b6000610ccd8383610d0b565b610d0357508154600181810184556000848152602080822090930184905584548482528286019093526040902091909155610b3c565b506000610b3c565b60009081526001919091016020526040902054151590565b600060208284031215610d34578081fd5b8135610d3f816113a5565b9392505050565b600080600080610180808688031215610d5d578384fd5b8535610d68816113a5565b9450602086810135610d79816113a5565b94506040870135610d89816113a5565b9350607f87018813610d99578283fd5b604051610120810181811067ffffffffffffffff82111715610dbd57610dbd61138f565b6040528060608901848a018b1015610dd3578586fd5b8594505b6009851015610df6578035825260019490940193908301908301610dd7565b505080935050505092959194509250565b600060208284031215610e18578081fd5b81518015158114610d3f578182fd5b600060208284031215610e38578081fd5b5035919050565b600060208284031215610e50578081fd5b5051919050565b60008251815b81811015610e775760208186018101518583015201610e5d565b81811115610e855782828501525b509190910192915050565b6001600160a01b0391909116815260200190565b6001600160a01b039c8d1681529a8c1660208c015298909a1660408a01526060890196909652608088019490945260a087019290925260c086015260e08501526101008401526101208301529115156101408201526101608101919091526101800190565b6001600160a01b039384168152919092166020820152604081019190915260600190565b901515815260200190565b6020808252601b908201527f416c6c20746f6b656e20686173206265656e2077697468647261770000000000604082015260600190565b60208082526026908201527f4f776e61626c653a206e6577206f776e657220697320746865207a65726f206160408201526564647265737360d01b606082015260800190565b6020808252600e908201526d4f766572666c6f772076616c756560901b604082015260600190565b6020808252600a90820152694e6f742061637469766560b01b604082015260600190565b60208082526010908201526f4e6f7420656e6f7567682076616c756560801b604082015260600190565b6020808252600c908201526b53616c65207375636573737360a01b604082015260600190565b6020808252818101527f4f776e61626c653a2063616c6c6572206973206e6f7420746865206f776e6572604082015260600190565b60208082526027908201527f596f7520776974686472617720616c6c206f722068617665206e6f7420626f7560408201526619da1d081e595d60ca1b606082015260800190565b60208082526024908201527f5472616e7366657248656c7065723a205452414e534645525f46524f4d5f46416040820152631253115160e21b606082015260800190565b6020808252601f908201527f5265656e7472616e637947756172643a207265656e7472616e742063616c6c00604082015260600190565b6020808252600f908201526e53616c65206973207375636365737360881b604082015260600190565b90815260200190565b918252602082015260400190565b95865260208601949094526040850192909252606084015215156080830152151560a082015260c00190565b958652602086019490945260408501929092526060840152608083015260a082015260c00190565b600082198211156111ef576111ef611379565b500190565b60008261120f57634e487b7160e01b81526012600452602481fd5b500490565b80825b60018086116112265750611251565b81870482111561123857611238611379565b8086161561124557918102915b9490941c938002611217565b94509492505050565b6000610b39600019848460008261127357506001610d3f565b8161128057506000610d3f565b816001811461129657600281146112a0576112cd565b6001915050610d3f565b60ff8411156112b1576112b1611379565b6001841b9150848211156112c7576112c7611379565b50610d3f565b5060208310610133831016604e8410600b8410161715611300575081810a838111156112fb576112fb611379565b610d3f565b61130d8484846001611214565b80860482111561131f5761131f611379565b02949350505050565b600081600019048311821515161561134257611342611379565b500290565b60008282101561135957611359611379565b500390565b600060001982141561137257611372611379565b5060010190565b634e487b7160e01b600052601160045260246000fd5b634e487b7160e01b600052604160045260246000fd5b6001600160a01b038116811461044257600080fdfea26469706673582212209ee4d4dd82c48082f4812f7ad30f9421ac742bde38893ee453f2cbaa8eeada4964736f6c63430008000033",
					"opcodes": "PUSH1 0x80 PUSH1 0x40 MSTORE PUSH1 0x1 PUSH1 0x0 SSTORE PUSH3 0x1D PUSH3 0x17 PUSH3 0xAE JUMP JUMPDEST PUSH3 0xB2 JUMP JUMPDEST PUSH1 0x19 DUP1 SLOAD PUSH20 0xC778417E063141139FCE010982780140AA0CD5AB PUSH1 0x1 PUSH1 0x1 PUSH1 0xA0 SHL SUB NOT SWAP1 SWAP2 AND OR SWAP1 SSTORE PUSH3 0x72 PUSH1 0x1B PUSH20 0x6CCB41EEDA5A073076F3E7DC1614C185B5FA41ED PUSH3 0x104 PUSH1 0x20 SWAP1 DUP2 SHL PUSH3 0xB24 OR SWAP1 SHR JUMP JUMPDEST POP PUSH3 0xA2 PUSH20 0x4F0B12BBF40FC182559822A5B1DB6D34DBC3E016 PUSH1 0x1B PUSH3 0x104 PUSH1 0x20 SHL PUSH3 0xB24 OR SWAP1 SWAP2 SWAP1 PUSH1 0x20 SHR JUMP JUMPDEST POP PUSH1 0x14 PUSH1 0x1A SSTORE PUSH3 0x18B JUMP JUMPDEST CALLER SWAP1 JUMP JUMPDEST PUSH1 0x1 DUP1 SLOAD PUSH1 0x1 PUSH1 0x1 PUSH1 0xA0 SHL SUB DUP4 DUP2 AND PUSH1 0x1 PUSH1 0x1 PUSH1 0xA0 SHL SUB NOT DUP4 AND DUP2 OR SWAP1 SWAP4 SSTORE PUSH1 0x40 MLOAD SWAP2 AND SWAP2 SWAP1 DUP3 SWAP1 PUSH32 0x8BE0079C531659141344CD1FD0A4F28419497F9722A3DAAFE3B4186F6B6457E0 SWAP1 PUSH1 0x0 SWAP1 LOG3 POP POP JUMP JUMPDEST PUSH1 0x0 PUSH3 0x11B DUP4 PUSH1 0x1 PUSH1 0x1 PUSH1 0xA0 SHL SUB DUP5 AND PUSH3 0x124 JUMP JUMPDEST SWAP1 POP JUMPDEST SWAP3 SWAP2 POP POP JUMP JUMPDEST PUSH1 0x0 PUSH3 0x132 DUP4 DUP4 PUSH3 0x173 JUMP JUMPDEST PUSH3 0x16A JUMPI POP DUP2 SLOAD PUSH1 0x1 DUP2 DUP2 ADD DUP5 SSTORE PUSH1 0x0 DUP5 DUP2 MSTORE PUSH1 0x20 DUP1 DUP3 KECCAK256 SWAP1 SWAP4 ADD DUP5 SWAP1 SSTORE DUP5 SLOAD DUP5 DUP3 MSTORE DUP3 DUP7 ADD SWAP1 SWAP4 MSTORE PUSH1 0x40 SWAP1 KECCAK256 SWAP2 SWAP1 SWAP2 SSTORE PUSH3 0x11E JUMP JUMPDEST POP PUSH1 0x0 PUSH3 0x11E JUMP JUMPDEST PUSH1 0x0 SWAP1 DUP2 MSTORE PUSH1 0x1 SWAP2 SWAP1 SWAP2 ADD PUSH1 0x20 MSTORE PUSH1 0x40 SWAP1 KECCAK256 SLOAD ISZERO ISZERO SWAP1 JUMP JUMPDEST PUSH2 0x13F0 DUP1 PUSH3 0x19B PUSH1 0x0 CODECOPY PUSH1 0x0 RETURN INVALID PUSH1 0x80 PUSH1 0x40 MSTORE PUSH1 0x4 CALLDATASIZE LT PUSH2 0x109 JUMPI PUSH1 0x0 CALLDATALOAD PUSH1 0xE0 SHR DUP1 PUSH4 0x8F1EAE4C GT PUSH2 0x95 JUMPI DUP1 PUSH4 0xB6B55F25 GT PUSH2 0x64 JUMPI DUP1 PUSH4 0xB6B55F25 EQ PUSH2 0x285 JUMPI DUP1 PUSH4 0xCAD5B0F7 EQ PUSH2 0x298 JUMPI DUP1 PUSH4 0xE2D3F423 EQ PUSH2 0x2BA JUMPI DUP1 PUSH4 0xF2FDE38B EQ PUSH2 0x2EC JUMPI DUP1 PUSH4 0xF8B2CB4F EQ PUSH2 0x30C JUMPI PUSH2 0x109 JUMP JUMPDEST DUP1 PUSH4 0x8F1EAE4C EQ PUSH2 0x214 JUMPI DUP1 PUSH4 0xAB33985A EQ PUSH2 0x234 JUMPI DUP1 PUSH4 0xACFB2355 EQ PUSH2 0x249 JUMPI DUP1 PUSH4 0xAD5C4648 EQ PUSH2 0x270 JUMPI PUSH2 0x109 JUMP JUMPDEST DUP1 PUSH4 0x3B5EF2AD GT PUSH2 0xDC JUMPI DUP1 PUSH4 0x3B5EF2AD EQ PUSH2 0x19E JUMPI DUP1 PUSH4 0x56C5F349 EQ PUSH2 0x1B3 JUMPI DUP1 PUSH4 0x715018A6 EQ PUSH2 0x1D3 JUMPI DUP1 PUSH4 0x861FAF5F EQ PUSH2 0x1EA JUMPI DUP1 PUSH4 0x8DA5CB5B EQ PUSH2 0x1F2 JUMPI PUSH2 0x109 JUMP JUMPDEST DUP1 PUSH4 0x12E5D0B9 EQ PUSH2 0x10E JUMPI DUP1 PUSH4 0x18856A2F EQ PUSH2 0x13A JUMPI DUP1 PUSH4 0x1DF4CCFC EQ PUSH2 0x167 JUMPI DUP1 PUSH4 0x200D2ED2 EQ PUSH2 0x189 JUMPI JUMPDEST PUSH1 0x0 DUP1 REVERT JUMPDEST CALLVALUE DUP1 ISZERO PUSH2 0x11A JUMPI PUSH1 0x0 DUP1 REVERT JUMPDEST POP PUSH2 0x123 PUSH2 0x32C JUMP JUMPDEST PUSH1 0x40 MLOAD PUSH2 0x131 SWAP3 SWAP2 SWAP1 PUSH2 0x117A JUMP JUMPDEST PUSH1 0x40 MLOAD DUP1 SWAP2 SUB SWAP1 RETURN JUMPDEST CALLVALUE DUP1 ISZERO PUSH2 0x146 JUMPI PUSH1 0x0 DUP1 REVERT JUMPDEST POP PUSH2 0x14F PUSH2 0x335 JUMP JUMPDEST PUSH1 0x40 MLOAD PUSH2 0x131 SWAP13 SWAP12 SWAP11 SWAP10 SWAP9 SWAP8 SWAP7 SWAP6 SWAP5 SWAP4 SWAP3 SWAP2 SWAP1 PUSH2 0xEA4 JUMP JUMPDEST CALLVALUE DUP1 ISZERO PUSH2 0x173 JUMPI PUSH1 0x0 DUP1 REVERT JUMPDEST POP PUSH2 0x17C PUSH2 0x376 JUMP JUMPDEST PUSH1 0x40 MLOAD PUSH2 0x131 SWAP2 SWAP1 PUSH2 0x1171 JUMP JUMPDEST CALLVALUE DUP1 ISZERO PUSH2 0x195 JUMPI PUSH1 0x0 DUP1 REVERT JUMPDEST POP PUSH2 0x17C PUSH2 0x37C JUMP JUMPDEST CALLVALUE DUP1 ISZERO PUSH2 0x1AA JUMPI PUSH1 0x0 DUP1 REVERT JUMPDEST POP PUSH2 0x17C PUSH2 0x3AA JUMP JUMPDEST CALLVALUE DUP1 ISZERO PUSH2 0x1BF JUMPI PUSH1 0x0 DUP1 REVERT JUMPDEST POP PUSH2 0x17C PUSH2 0x1CE CALLDATASIZE PUSH1 0x4 PUSH2 0xD23 JUMP JUMPDEST PUSH2 0x3B0 JUMP JUMPDEST CALLVALUE DUP1 ISZERO PUSH2 0x1DF JUMPI PUSH1 0x0 DUP1 REVERT JUMPDEST POP PUSH2 0x1E8 PUSH2 0x3C2 JUMP JUMPDEST STOP JUMPDEST PUSH2 0x1E8 PUSH2 0x416 JUMP JUMPDEST CALLVALUE DUP1 ISZERO PUSH2 0x1FE JUMPI PUSH1 0x0 DUP1 REVERT JUMPDEST POP PUSH2 0x207 PUSH2 0x445 JUMP JUMPDEST PUSH1 0x40 MLOAD PUSH2 0x131 SWAP2 SWAP1 PUSH2 0xE90 JUMP JUMPDEST CALLVALUE DUP1 ISZERO PUSH2 0x220 JUMPI PUSH1 0x0 DUP1 REVERT JUMPDEST POP PUSH2 0x1E8 PUSH2 0x22F CALLDATASIZE PUSH1 0x4 PUSH2 0xD46 JUMP JUMPDEST PUSH2 0x454 JUMP JUMPDEST CALLVALUE DUP1 ISZERO PUSH2 0x240 JUMPI PUSH1 0x0 DUP1 REVERT JUMPDEST POP PUSH2 0x17C PUSH2 0x629 JUMP JUMPDEST CALLVALUE DUP1 ISZERO PUSH2 0x255 JUMPI PUSH1 0x0 DUP1 REVERT JUMPDEST POP PUSH2 0x25E PUSH2 0x6EE JUMP JUMPDEST PUSH1 0x40 MLOAD PUSH2 0x131 SWAP7 SWAP6 SWAP5 SWAP4 SWAP3 SWAP2 SWAP1 PUSH2 0x11B4 JUMP JUMPDEST CALLVALUE DUP1 ISZERO PUSH2 0x27C JUMPI PUSH1 0x0 DUP1 REVERT JUMPDEST POP PUSH2 0x207 PUSH2 0x703 JUMP JUMPDEST PUSH2 0x1E8 PUSH2 0x293 CALLDATASIZE PUSH1 0x4 PUSH2 0xE27 JUMP JUMPDEST PUSH2 0x712 JUMP JUMPDEST CALLVALUE DUP1 ISZERO PUSH2 0x2A4 JUMPI PUSH1 0x0 DUP1 REVERT JUMPDEST POP PUSH2 0x2AD PUSH2 0xA54 JUMP JUMPDEST PUSH1 0x40 MLOAD PUSH2 0x131 SWAP2 SWAP1 PUSH2 0xF2D JUMP JUMPDEST CALLVALUE DUP1 ISZERO PUSH2 0x2C6 JUMPI PUSH1 0x0 DUP1 REVERT JUMPDEST POP PUSH2 0x2DA PUSH2 0x2D5 CALLDATASIZE PUSH1 0x4 PUSH2 0xD23 JUMP JUMPDEST PUSH2 0xA6E JUMP JUMPDEST PUSH1 0x40 MLOAD PUSH2 0x131 SWAP7 SWAP6 SWAP5 SWAP4 SWAP3 SWAP2 SWAP1 PUSH2 0x1188 JUMP JUMPDEST CALLVALUE DUP1 ISZERO PUSH2 0x2F8 JUMPI PUSH1 0x0 DUP1 REVERT JUMPDEST POP PUSH2 0x1E8 PUSH2 0x307 CALLDATASIZE PUSH1 0x4 PUSH2 0xD23 JUMP JUMPDEST PUSH2 0xAA9 JUMP JUMPDEST CALLVALUE DUP1 ISZERO PUSH2 0x318 JUMPI PUSH1 0x0 DUP1 REVERT JUMPDEST POP PUSH2 0x17C PUSH2 0x327 CALLDATASIZE PUSH1 0x4 PUSH2 0xD23 JUMP JUMPDEST PUSH2 0xB17 JUMP JUMPDEST PUSH1 0xB SLOAD PUSH1 0xC SLOAD DUP3 JUMP JUMPDEST PUSH1 0xD SLOAD PUSH1 0xE SLOAD PUSH1 0xF SLOAD PUSH1 0x10 SLOAD PUSH1 0x11 SLOAD PUSH1 0x12 SLOAD PUSH1 0x13 SLOAD PUSH1 0x14 SLOAD PUSH1 0x15 SLOAD PUSH1 0x16 SLOAD PUSH1 0x17 SLOAD PUSH1 0x18 SLOAD PUSH1 0x1 PUSH1 0x1 PUSH1 0xA0 SHL SUB SWAP12 DUP13 AND SWAP12 SWAP11 DUP12 AND SWAP11 SWAP1 SWAP10 AND SWAP9 PUSH1 0xFF SWAP1 SWAP2 AND SWAP1 DUP13 JUMP JUMPDEST PUSH1 0x1D SLOAD DUP2 JUMP JUMPDEST PUSH1 0x11 SLOAD PUSH1 0x0 SWAP1 TIMESTAMP LT ISZERO PUSH2 0x391 JUMPI POP PUSH1 0x0 PUSH2 0x3A7 JUMP JUMPDEST PUSH1 0x12 SLOAD TIMESTAMP GT ISZERO PUSH2 0x3A3 JUMPI POP PUSH1 0x2 PUSH2 0x3A7 JUMP JUMPDEST POP PUSH1 0x1 JUMPDEST SWAP1 JUMP JUMPDEST PUSH1 0x1A SLOAD DUP2 JUMP JUMPDEST PUSH1 0x3 PUSH1 0x20 MSTORE PUSH1 0x0 SWAP1 DUP2 MSTORE PUSH1 0x40 SWAP1 KECCAK256 SLOAD DUP2 JUMP JUMPDEST PUSH2 0x3CA PUSH2 0xB42 JUMP JUMPDEST PUSH1 0x1 PUSH1 0x1 PUSH1 0xA0 SHL SUB AND PUSH2 0x3DB PUSH2 0x445 JUMP JUMPDEST PUSH1 0x1 PUSH1 0x1 PUSH1 0xA0 SHL SUB AND EQ PUSH2 0x40A JUMPI PUSH1 0x40 MLOAD PUSH3 0x461BCD PUSH1 0xE5 SHL DUP2 MSTORE PUSH1 0x4 ADD PUSH2 0x401 SWAP1 PUSH2 0x1051 JUMP JUMPDEST PUSH1 0x40 MLOAD DUP1 SWAP2 SUB SWAP1 REVERT JUMPDEST PUSH2 0x414 PUSH1 0x0 PUSH2 0xB46 JUMP JUMPDEST JUMP JUMPDEST PUSH1 0x40 MLOAD CALLER SWAP1 SELFBALANCE DUP1 ISZERO PUSH2 0x8FC MUL SWAP2 PUSH1 0x0 DUP2 DUP2 DUP2 DUP6 DUP9 DUP9 CALL SWAP4 POP POP POP POP ISZERO DUP1 ISZERO PUSH2 0x442 JUMPI RETURNDATASIZE PUSH1 0x0 DUP1 RETURNDATACOPY RETURNDATASIZE PUSH1 0x0 REVERT JUMPDEST POP JUMP JUMPDEST PUSH1 0x1 SLOAD PUSH1 0x1 PUSH1 0x1 PUSH1 0xA0 SHL SUB AND SWAP1 JUMP JUMPDEST PUSH1 0xD DUP1 SLOAD PUSH1 0x1 PUSH1 0x1 PUSH1 0xA0 SHL SUB DUP1 DUP8 AND PUSH1 0x1 PUSH1 0x1 PUSH1 0xA0 SHL SUB NOT SWAP3 DUP4 AND OR SWAP1 SWAP3 SSTORE PUSH1 0xE DUP1 SLOAD DUP7 DUP5 AND SWAP1 DUP4 AND OR SWAP1 DUP2 SWAP1 SSTORE PUSH1 0xF DUP1 SLOAD DUP7 DUP6 AND SWAP4 AND SWAP3 SWAP1 SWAP3 OR SWAP1 SWAP2 SSTORE PUSH1 0x40 DUP1 MLOAD PUSH4 0x313CE567 PUSH1 0xE0 SHL DUP2 MSTORE SWAP1 MLOAD SWAP2 SWAP1 SWAP3 AND SWAP2 PUSH4 0x313CE567 SWAP2 PUSH1 0x4 DUP1 DUP4 ADD SWAP3 PUSH1 0x20 SWAP3 SWAP2 SWAP1 DUP3 SWAP1 SUB ADD DUP2 DUP7 DUP1 EXTCODESIZE ISZERO DUP1 ISZERO PUSH2 0x4CC JUMPI PUSH1 0x0 DUP1 REVERT JUMPDEST POP GAS STATICCALL ISZERO DUP1 ISZERO PUSH2 0x4E0 JUMPI RETURNDATASIZE PUSH1 0x0 DUP1 RETURNDATACOPY RETURNDATASIZE PUSH1 0x0 REVERT JUMPDEST POP POP POP POP PUSH1 0x40 MLOAD RETURNDATASIZE PUSH1 0x1F NOT PUSH1 0x1F DUP3 ADD AND DUP3 ADD DUP1 PUSH1 0x40 MSTORE POP DUP2 ADD SWAP1 PUSH2 0x504 SWAP2 SWAP1 PUSH2 0xE3F JUMP JUMPDEST PUSH2 0x50F SWAP1 PUSH1 0xA PUSH2 0x125A JUMP JUMPDEST DUP2 MLOAD PUSH2 0x51B SWAP2 SWAP1 PUSH2 0x1328 JUMP JUMPDEST PUSH1 0x10 SSTORE PUSH1 0x20 DUP1 DUP3 ADD MLOAD PUSH1 0x11 SSTORE PUSH1 0x40 DUP1 DUP4 ADD MLOAD PUSH1 0x12 SSTORE PUSH1 0x60 DUP4 ADD MLOAD PUSH1 0x13 SSTORE PUSH1 0xF SLOAD DUP2 MLOAD PUSH4 0x313CE567 PUSH1 0xE0 SHL DUP2 MSTORE SWAP2 MLOAD PUSH1 0x1 PUSH1 0x1 PUSH1 0xA0 SHL SUB SWAP1 SWAP2 AND SWAP3 PUSH4 0x313CE567 SWAP3 PUSH1 0x4 DUP1 DUP3 ADD SWAP4 SWAP2 DUP3 SWAP1 SUB ADD DUP2 DUP7 DUP1 EXTCODESIZE ISZERO DUP1 ISZERO PUSH2 0x576 JUMPI PUSH1 0x0 DUP1 REVERT JUMPDEST POP GAS STATICCALL ISZERO DUP1 ISZERO PUSH2 0x58A JUMPI RETURNDATASIZE PUSH1 0x0 DUP1 RETURNDATACOPY RETURNDATASIZE PUSH1 0x0 REVERT JUMPDEST POP POP POP POP PUSH1 0x40 MLOAD RETURNDATASIZE PUSH1 0x1F NOT PUSH1 0x1F DUP3 ADD AND DUP3 ADD DUP1 PUSH1 0x40 MSTORE POP DUP2 ADD SWAP1 PUSH2 0x5AE SWAP2 SWAP1 PUSH2 0xE3F JUMP JUMPDEST PUSH2 0x5B9 SWAP1 PUSH1 0xA PUSH2 0x125A JUMP JUMPDEST PUSH1 0x80 DUP3 ADD MLOAD PUSH2 0x5C8 SWAP2 SWAP1 PUSH2 0x1328 JUMP JUMPDEST PUSH1 0x14 SSTORE PUSH1 0xA0 DUP2 ADD MLOAD PUSH1 0x15 SSTORE PUSH1 0xC0 DUP2 ADD MLOAD PUSH1 0x16 SSTORE PUSH1 0xE0 DUP2 ADD MLOAD PUSH1 0xB DUP2 SWAP1 SSTORE PUSH2 0x100 DUP3 ADD MLOAD PUSH1 0xC SSTORE PUSH1 0xF SLOAD PUSH1 0x19 SLOAD PUSH1 0x17 DUP1 SLOAD PUSH1 0x1 PUSH1 0x1 PUSH1 0xA0 SHL SUB SWAP4 DUP5 AND SWAP4 SWAP1 SWAP3 AND SWAP3 SWAP1 SWAP3 EQ PUSH1 0xFF NOT SWAP1 SWAP2 AND OR SWAP1 SSTORE PUSH1 0x10 SLOAD PUSH2 0x620 SWAP2 PUSH2 0xB98 JUMP JUMPDEST PUSH1 0x18 SSTORE POP POP POP POP JUMP JUMPDEST PUSH1 0x0 PUSH2 0x633 PUSH2 0x37C JUMP JUMPDEST PUSH1 0x1 EQ PUSH2 0x652 JUMPI PUSH1 0x40 MLOAD PUSH3 0x461BCD PUSH1 0xE5 SHL DUP2 MSTORE PUSH1 0x4 ADD PUSH2 0x401 SWAP1 PUSH2 0x102B JUMP JUMPDEST PUSH1 0x6 SLOAD PUSH1 0x5 SLOAD PUSH1 0x0 SWAP2 PUSH2 0x664 SWAP2 PUSH2 0x1347 JUMP JUMPDEST GT PUSH2 0x681 JUMPI PUSH1 0x40 MLOAD PUSH3 0x461BCD PUSH1 0xE5 SHL DUP2 MSTORE PUSH1 0x4 ADD PUSH2 0x401 SWAP1 PUSH2 0xF38 JUMP JUMPDEST CALLER PUSH1 0x0 SWAP1 DUP2 MSTORE PUSH1 0x2 PUSH1 0x20 MSTORE PUSH1 0x40 SWAP1 KECCAK256 PUSH1 0x1 DUP2 ADD SLOAD PUSH2 0x6B1 JUMPI PUSH1 0x40 MLOAD PUSH3 0x461BCD PUSH1 0xE5 SHL DUP2 MSTORE PUSH1 0x4 ADD PUSH2 0x401 SWAP1 PUSH2 0x1086 JUMP JUMPDEST PUSH1 0x0 PUSH2 0x6E7 PUSH2 0x3E8 PUSH2 0x6E1 DUP5 PUSH1 0x1 ADD SLOAD PUSH2 0x6DB PUSH1 0xD PUSH1 0x9 ADD SLOAD PUSH2 0x3E8 PUSH2 0xBA4 SWAP1 SWAP2 SWAP1 PUSH4 0xFFFFFFFF AND JUMP JUMPDEST SWAP1 PUSH2 0xB98 JUMP JUMPDEST SWAP1 PUSH2 0xBB0 JUMP JUMPDEST SWAP3 POP POP POP SWAP1 JUMP JUMPDEST PUSH1 0x4 SLOAD PUSH1 0x5 SLOAD PUSH1 0x6 SLOAD PUSH1 0x7 SLOAD PUSH1 0x8 SLOAD PUSH1 0x9 SLOAD DUP7 JUMP JUMPDEST PUSH1 0x19 SLOAD PUSH1 0x1 PUSH1 0x1 PUSH1 0xA0 SHL SUB AND DUP2 JUMP JUMPDEST PUSH1 0x2 PUSH1 0x0 SLOAD EQ ISZERO PUSH2 0x735 JUMPI PUSH1 0x40 MLOAD PUSH3 0x461BCD PUSH1 0xE5 SHL DUP2 MSTORE PUSH1 0x4 ADD PUSH2 0x401 SWAP1 PUSH2 0x1111 JUMP JUMPDEST PUSH1 0x2 PUSH1 0x0 SSTORE PUSH2 0x742 PUSH2 0x37C JUMP JUMPDEST PUSH1 0x1 EQ PUSH2 0x761 JUMPI PUSH1 0x40 MLOAD PUSH3 0x461BCD PUSH1 0xE5 SHL DUP2 MSTORE PUSH1 0x4 ADD PUSH2 0x401 SWAP1 PUSH2 0xFDD JUMP JUMPDEST CALLER PUSH1 0x0 SWAP1 DUP2 MSTORE PUSH1 0x2 PUSH1 0x20 MSTORE PUSH1 0x40 DUP2 KECCAK256 PUSH1 0x13 SLOAD SWAP1 SWAP2 DUP4 SWAP2 DUP3 SWAP2 SWAP1 PUSH2 0x3E8 SWAP1 DUP4 LT ISZERO PUSH2 0x79D JUMPI PUSH1 0x40 MLOAD PUSH3 0x461BCD PUSH1 0xE5 SHL DUP2 MSTORE PUSH1 0x4 ADD PUSH2 0x401 SWAP1 PUSH2 0x1001 JUMP JUMPDEST PUSH1 0x14 SLOAD DUP4 GT ISZERO PUSH2 0x7BF JUMPI PUSH1 0x40 MLOAD PUSH3 0x461BCD PUSH1 0xE5 SHL DUP2 MSTORE PUSH1 0x4 ADD PUSH2 0x401 SWAP1 PUSH2 0xFB5 JUMP JUMPDEST PUSH2 0x7C7 PUSH2 0xA54 JUMP JUMPDEST PUSH2 0x7F7 JUMPI PUSH2 0x7E8 DUP2 PUSH2 0x6E1 DUP6 PUSH2 0x6DB PUSH1 0x1A SLOAD DUP7 PUSH2 0xBA4 SWAP1 SWAP2 SWAP1 PUSH4 0xFFFFFFFF AND JUMP JUMPDEST SWAP3 POP PUSH2 0x7F4 DUP4 DUP6 PUSH2 0x1347 JUMP JUMPDEST SWAP2 POP JUMPDEST DUP5 SLOAD PUSH1 0x14 SLOAD PUSH1 0x0 SWAP2 PUSH2 0x808 SWAP2 PUSH2 0x1347 JUMP JUMPDEST PUSH1 0x4 SLOAD PUSH1 0x18 SLOAD SWAP2 SWAP3 POP PUSH1 0x0 SWAP2 PUSH2 0x81E SWAP2 SWAP1 PUSH2 0x1347 JUMP JUMPDEST SWAP1 POP PUSH1 0x0 DUP2 DUP4 GT PUSH2 0x82F JUMPI DUP3 PUSH2 0x831 JUMP JUMPDEST DUP2 JUMPDEST SWAP1 POP DUP1 DUP7 GT ISZERO PUSH2 0x853 JUMPI PUSH1 0x40 MLOAD PUSH3 0x461BCD PUSH1 0xE5 SHL DUP2 MSTORE PUSH1 0x4 ADD PUSH2 0x401 SWAP1 PUSH2 0x1148 JUMP JUMPDEST PUSH1 0x0 PUSH2 0x8FA PUSH1 0xD PUSH1 0x2 ADD PUSH1 0x0 SWAP1 SLOAD SWAP1 PUSH2 0x100 EXP SWAP1 DIV PUSH1 0x1 PUSH1 0x1 PUSH1 0xA0 SHL SUB AND PUSH1 0x1 PUSH1 0x1 PUSH1 0xA0 SHL SUB AND PUSH4 0x313CE567 PUSH1 0x40 MLOAD DUP2 PUSH4 0xFFFFFFFF AND PUSH1 0xE0 SHL DUP2 MSTORE PUSH1 0x4 ADD PUSH1 0x20 PUSH1 0x40 MLOAD DUP1 DUP4 SUB DUP2 DUP7 DUP1 EXTCODESIZE ISZERO DUP1 ISZERO PUSH2 0x8A9 JUMPI PUSH1 0x0 DUP1 REVERT JUMPDEST POP GAS STATICCALL ISZERO DUP1 ISZERO PUSH2 0x8BD JUMPI RETURNDATASIZE PUSH1 0x0 DUP1 RETURNDATACOPY RETURNDATASIZE PUSH1 0x0 REVERT JUMPDEST POP POP POP POP PUSH1 0x40 MLOAD RETURNDATASIZE PUSH1 0x1F NOT PUSH1 0x1F DUP3 ADD AND DUP3 ADD DUP1 PUSH1 0x40 MSTORE POP DUP2 ADD SWAP1 PUSH2 0x8E1 SWAP2 SWAP1 PUSH2 0xE3F JUMP JUMPDEST PUSH2 0x8EC SWAP1 PUSH1 0xA PUSH2 0x125A JUMP JUMPDEST PUSH1 0x10 SLOAD PUSH2 0x6E1 SWAP1 DUP11 SWAP1 PUSH2 0xB98 JUMP JUMPDEST SWAP1 POP DUP8 DUP10 PUSH1 0x0 ADD PUSH1 0x0 DUP3 DUP3 SLOAD PUSH2 0x910 SWAP2 SWAP1 PUSH2 0x11DC JUMP JUMPDEST SWAP3 POP POP DUP2 SWAP1 SSTORE POP DUP1 DUP10 PUSH1 0x1 ADD PUSH1 0x0 DUP3 DUP3 SLOAD PUSH2 0x92B SWAP2 SWAP1 PUSH2 0x11DC JUMP JUMPDEST SWAP1 SWAP2 SSTORE POP POP PUSH1 0x4 DUP1 SLOAD DUP9 SWAP2 SWAP1 PUSH1 0x0 SWAP1 PUSH2 0x945 SWAP1 DUP5 SWAP1 PUSH2 0x11DC JUMP JUMPDEST SWAP1 SWAP2 SSTORE POP POP PUSH1 0x5 DUP1 SLOAD DUP3 SWAP2 SWAP1 PUSH1 0x0 SWAP1 PUSH2 0x95F SWAP1 DUP5 SWAP1 PUSH2 0x11DC JUMP JUMPDEST SWAP1 SWAP2 SSTORE POP POP PUSH1 0x8 DUP1 SLOAD SWAP1 PUSH1 0x0 PUSH2 0x974 DUP4 PUSH2 0x135E JUMP JUMPDEST SWAP1 SWAP2 SSTORE POP POP CALLER PUSH1 0x0 SWAP1 DUP2 MSTORE PUSH1 0x3 PUSH1 0x20 MSTORE PUSH1 0x40 DUP2 KECCAK256 DUP1 SLOAD DUP9 SWAP3 SWAP1 PUSH2 0x998 SWAP1 DUP5 SWAP1 PUSH2 0x11DC JUMP JUMPDEST SWAP3 POP POP DUP2 SWAP1 SSTORE POP DUP6 PUSH1 0x1D PUSH1 0x0 DUP3 DUP3 SLOAD PUSH2 0x9B1 SWAP2 SWAP1 PUSH2 0x11DC JUMP JUMPDEST SWAP1 SWAP2 SSTORE POP POP PUSH1 0x17 SLOAD PUSH1 0xFF AND DUP1 ISZERO PUSH2 0x9D0 JUMPI POP CALLVALUE PUSH2 0x9CE DUP8 DUP10 PUSH2 0x11DC JUMP JUMPDEST LT JUMPDEST ISZERO PUSH2 0xA18 JUMPI CALLER PUSH2 0x8FC DUP8 PUSH2 0x9E4 DUP11 CALLVALUE PUSH2 0x1347 JUMP JUMPDEST PUSH2 0x9EE SWAP2 SWAP1 PUSH2 0x1347 JUMP JUMPDEST PUSH1 0x40 MLOAD DUP2 ISZERO SWAP1 SWAP3 MUL SWAP2 PUSH1 0x0 DUP2 DUP2 DUP2 DUP6 DUP9 DUP9 CALL SWAP4 POP POP POP POP ISZERO DUP1 ISZERO PUSH2 0xA16 JUMPI RETURNDATASIZE PUSH1 0x0 DUP1 RETURNDATACOPY RETURNDATASIZE PUSH1 0x0 REVERT JUMPDEST POP JUMPDEST PUSH1 0x17 SLOAD PUSH1 0xFF AND PUSH2 0xA43 JUMPI PUSH1 0xF SLOAD PUSH2 0xA43 SWAP1 PUSH1 0x1 PUSH1 0x1 PUSH1 0xA0 SHL SUB AND CALLER ADDRESS PUSH2 0xA3E DUP11 DUP13 PUSH2 0x11DC JUMP JUMPDEST PUSH2 0xBBC JUMP JUMPDEST POP POP PUSH1 0x1 PUSH1 0x0 SSTORE POP POP POP POP POP POP POP POP JUMP JUMPDEST PUSH1 0x0 PUSH2 0xA69 PUSH2 0xA61 PUSH2 0xB42 JUMP JUMPDEST PUSH1 0x1B SWAP1 PUSH2 0xCAC JUMP JUMPDEST SWAP1 POP SWAP1 JUMP JUMPDEST PUSH1 0x2 PUSH1 0x20 DUP2 SWAP1 MSTORE PUSH1 0x0 SWAP2 DUP3 MSTORE PUSH1 0x40 SWAP1 SWAP2 KECCAK256 DUP1 SLOAD PUSH1 0x1 DUP3 ADD SLOAD SWAP3 DUP3 ADD SLOAD PUSH1 0x3 DUP4 ADD SLOAD PUSH1 0x4 SWAP1 SWAP4 ADD SLOAD SWAP2 SWAP4 SWAP3 SWAP1 SWAP2 PUSH1 0xFF DUP1 DUP3 AND SWAP2 PUSH2 0x100 SWAP1 DIV AND DUP7 JUMP JUMPDEST PUSH2 0xAB1 PUSH2 0xB42 JUMP JUMPDEST PUSH1 0x1 PUSH1 0x1 PUSH1 0xA0 SHL SUB AND PUSH2 0xAC2 PUSH2 0x445 JUMP JUMPDEST PUSH1 0x1 PUSH1 0x1 PUSH1 0xA0 SHL SUB AND EQ PUSH2 0xAE8 JUMPI PUSH1 0x40 MLOAD PUSH3 0x461BCD PUSH1 0xE5 SHL DUP2 MSTORE PUSH1 0x4 ADD PUSH2 0x401 SWAP1 PUSH2 0x1051 JUMP JUMPDEST PUSH1 0x1 PUSH1 0x1 PUSH1 0xA0 SHL SUB DUP2 AND PUSH2 0xB0E JUMPI PUSH1 0x40 MLOAD PUSH3 0x461BCD PUSH1 0xE5 SHL DUP2 MSTORE PUSH1 0x4 ADD PUSH2 0x401 SWAP1 PUSH2 0xF6F JUMP JUMPDEST PUSH2 0x442 DUP2 PUSH2 0xB46 JUMP JUMPDEST PUSH1 0x1 PUSH1 0x1 PUSH1 0xA0 SHL SUB AND BALANCE SWAP1 JUMP JUMPDEST PUSH1 0x0 PUSH2 0xB39 DUP4 PUSH1 0x1 PUSH1 0x1 PUSH1 0xA0 SHL SUB DUP5 AND PUSH2 0xCC1 JUMP JUMPDEST SWAP1 POP JUMPDEST SWAP3 SWAP2 POP POP JUMP JUMPDEST CALLER SWAP1 JUMP JUMPDEST PUSH1 0x1 DUP1 SLOAD PUSH1 0x1 PUSH1 0x1 PUSH1 0xA0 SHL SUB DUP4 DUP2 AND PUSH1 0x1 PUSH1 0x1 PUSH1 0xA0 SHL SUB NOT DUP4 AND DUP2 OR SWAP1 SWAP4 SSTORE PUSH1 0x40 MLOAD SWAP2 AND SWAP2 SWAP1 DUP3 SWAP1 PUSH32 0x8BE0079C531659141344CD1FD0A4F28419497F9722A3DAAFE3B4186F6B6457E0 SWAP1 PUSH1 0x0 SWAP1 LOG3 POP POP JUMP JUMPDEST PUSH1 0x0 PUSH2 0xB39 DUP3 DUP5 PUSH2 0x1328 JUMP JUMPDEST PUSH1 0x0 PUSH2 0xB39 DUP3 DUP5 PUSH2 0x1347 JUMP JUMPDEST PUSH1 0x0 PUSH2 0xB39 DUP3 DUP5 PUSH2 0x11F4 JUMP JUMPDEST PUSH1 0x0 DUP1 DUP6 PUSH1 0x1 PUSH1 0x1 PUSH1 0xA0 SHL SUB AND PUSH4 0x23B872DD DUP7 DUP7 DUP7 PUSH1 0x40 MLOAD PUSH1 0x24 ADD PUSH2 0xBE3 SWAP4 SWAP3 SWAP2 SWAP1 PUSH2 0xF09 JUMP JUMPDEST PUSH1 0x40 MLOAD PUSH1 0x20 DUP2 DUP4 SUB SUB DUP2 MSTORE SWAP1 PUSH1 0x40 MSTORE SWAP1 PUSH1 0xE0 SHL PUSH1 0x20 DUP3 ADD DUP1 MLOAD PUSH1 0x1 PUSH1 0x1 PUSH1 0xE0 SHL SUB DUP4 DUP2 DUP4 AND OR DUP4 MSTORE POP POP POP POP PUSH1 0x40 MLOAD PUSH2 0xC1C SWAP2 SWAP1 PUSH2 0xE57 JUMP JUMPDEST PUSH1 0x0 PUSH1 0x40 MLOAD DUP1 DUP4 SUB DUP2 PUSH1 0x0 DUP7 GAS CALL SWAP2 POP POP RETURNDATASIZE DUP1 PUSH1 0x0 DUP2 EQ PUSH2 0xC59 JUMPI PUSH1 0x40 MLOAD SWAP2 POP PUSH1 0x1F NOT PUSH1 0x3F RETURNDATASIZE ADD AND DUP3 ADD PUSH1 0x40 MSTORE RETURNDATASIZE DUP3 MSTORE RETURNDATASIZE PUSH1 0x0 PUSH1 0x20 DUP5 ADD RETURNDATACOPY PUSH2 0xC5E JUMP JUMPDEST PUSH1 0x60 SWAP2 POP JUMPDEST POP SWAP2 POP SWAP2 POP DUP2 DUP1 ISZERO PUSH2 0xC88 JUMPI POP DUP1 MLOAD ISZERO DUP1 PUSH2 0xC88 JUMPI POP DUP1 DUP1 PUSH1 0x20 ADD SWAP1 MLOAD DUP2 ADD SWAP1 PUSH2 0xC88 SWAP2 SWAP1 PUSH2 0xE07 JUMP JUMPDEST PUSH2 0xCA4 JUMPI PUSH1 0x40 MLOAD PUSH3 0x461BCD PUSH1 0xE5 SHL DUP2 MSTORE PUSH1 0x4 ADD PUSH2 0x401 SWAP1 PUSH2 0x10CD JUMP JUMPDEST POP POP POP POP POP POP JUMP JUMPDEST PUSH1 0x0 PUSH2 0xB39 DUP4 PUSH1 0x1 PUSH1 0x1 PUSH1 0xA0 SHL SUB DUP5 AND PUSH2 0xD0B JUMP JUMPDEST PUSH1 0x0 PUSH2 0xCCD DUP4 DUP4 PUSH2 0xD0B JUMP JUMPDEST PUSH2 0xD03 JUMPI POP DUP2 SLOAD PUSH1 0x1 DUP2 DUP2 ADD DUP5 SSTORE PUSH1 0x0 DUP5 DUP2 MSTORE PUSH1 0x20 DUP1 DUP3 KECCAK256 SWAP1 SWAP4 ADD DUP5 SWAP1 SSTORE DUP5 SLOAD DUP5 DUP3 MSTORE DUP3 DUP7 ADD SWAP1 SWAP4 MSTORE PUSH1 0x40 SWAP1 KECCAK256 SWAP2 SWAP1 SWAP2 SSTORE PUSH2 0xB3C JUMP JUMPDEST POP PUSH1 0x0 PUSH2 0xB3C JUMP JUMPDEST PUSH1 0x0 SWAP1 DUP2 MSTORE PUSH1 0x1 SWAP2 SWAP1 SWAP2 ADD PUSH1 0x20 MSTORE PUSH1 0x40 SWAP1 KECCAK256 SLOAD ISZERO ISZERO SWAP1 JUMP JUMPDEST PUSH1 0x0 PUSH1 0x20 DUP3 DUP5 SUB SLT ISZERO PUSH2 0xD34 JUMPI DUP1 DUP2 REVERT JUMPDEST DUP2 CALLDATALOAD PUSH2 0xD3F DUP2 PUSH2 0x13A5 JUMP JUMPDEST SWAP4 SWAP3 POP POP POP JUMP JUMPDEST PUSH1 0x0 DUP1 PUSH1 0x0 DUP1 PUSH2 0x180 DUP1 DUP7 DUP9 SUB SLT ISZERO PUSH2 0xD5D JUMPI DUP4 DUP5 REVERT JUMPDEST DUP6 CALLDATALOAD PUSH2 0xD68 DUP2 PUSH2 0x13A5 JUMP JUMPDEST SWAP5 POP PUSH1 0x20 DUP7 DUP2 ADD CALLDATALOAD PUSH2 0xD79 DUP2 PUSH2 0x13A5 JUMP JUMPDEST SWAP5 POP PUSH1 0x40 DUP8 ADD CALLDATALOAD PUSH2 0xD89 DUP2 PUSH2 0x13A5 JUMP JUMPDEST SWAP4 POP PUSH1 0x7F DUP8 ADD DUP9 SGT PUSH2 0xD99 JUMPI DUP3 DUP4 REVERT JUMPDEST PUSH1 0x40 MLOAD PUSH2 0x120 DUP2 ADD DUP2 DUP2 LT PUSH8 0xFFFFFFFFFFFFFFFF DUP3 GT OR ISZERO PUSH2 0xDBD JUMPI PUSH2 0xDBD PUSH2 0x138F JUMP JUMPDEST PUSH1 0x40 MSTORE DUP1 PUSH1 0x60 DUP10 ADD DUP5 DUP11 ADD DUP12 LT ISZERO PUSH2 0xDD3 JUMPI DUP6 DUP7 REVERT JUMPDEST DUP6 SWAP5 POP JUMPDEST PUSH1 0x9 DUP6 LT ISZERO PUSH2 0xDF6 JUMPI DUP1 CALLDATALOAD DUP3 MSTORE PUSH1 0x1 SWAP5 SWAP1 SWAP5 ADD SWAP4 SWAP1 DUP4 ADD SWAP1 DUP4 ADD PUSH2 0xDD7 JUMP JUMPDEST POP POP DUP1 SWAP4 POP POP POP POP SWAP3 SWAP6 SWAP2 SWAP5 POP SWAP3 POP JUMP JUMPDEST PUSH1 0x0 PUSH1 0x20 DUP3 DUP5 SUB SLT ISZERO PUSH2 0xE18 JUMPI DUP1 DUP2 REVERT JUMPDEST DUP2 MLOAD DUP1 ISZERO ISZERO DUP2 EQ PUSH2 0xD3F JUMPI DUP2 DUP3 REVERT JUMPDEST PUSH1 0x0 PUSH1 0x20 DUP3 DUP5 SUB SLT ISZERO PUSH2 0xE38 JUMPI DUP1 DUP2 REVERT JUMPDEST POP CALLDATALOAD SWAP2 SWAP1 POP JUMP JUMPDEST PUSH1 0x0 PUSH1 0x20 DUP3 DUP5 SUB SLT ISZERO PUSH2 0xE50 JUMPI DUP1 DUP2 REVERT JUMPDEST POP MLOAD SWAP2 SWAP1 POP JUMP JUMPDEST PUSH1 0x0 DUP3 MLOAD DUP2 JUMPDEST DUP2 DUP2 LT ISZERO PUSH2 0xE77 JUMPI PUSH1 0x20 DUP2 DUP7 ADD DUP2 ADD MLOAD DUP6 DUP4 ADD MSTORE ADD PUSH2 0xE5D JUMP JUMPDEST DUP2 DUP2 GT ISZERO PUSH2 0xE85 JUMPI DUP3 DUP3 DUP6 ADD MSTORE JUMPDEST POP SWAP2 SWAP1 SWAP2 ADD SWAP3 SWAP2 POP POP JUMP JUMPDEST PUSH1 0x1 PUSH1 0x1 PUSH1 0xA0 SHL SUB SWAP2 SWAP1 SWAP2 AND DUP2 MSTORE PUSH1 0x20 ADD SWAP1 JUMP JUMPDEST PUSH1 0x1 PUSH1 0x1 PUSH1 0xA0 SHL SUB SWAP13 DUP14 AND DUP2 MSTORE SWAP11 DUP13 AND PUSH1 0x20 DUP13 ADD MSTORE SWAP9 SWAP1 SWAP11 AND PUSH1 0x40 DUP11 ADD MSTORE PUSH1 0x60 DUP10 ADD SWAP7 SWAP1 SWAP7 MSTORE PUSH1 0x80 DUP9 ADD SWAP5 SWAP1 SWAP5 MSTORE PUSH1 0xA0 DUP8 ADD SWAP3 SWAP1 SWAP3 MSTORE PUSH1 0xC0 DUP7 ADD MSTORE PUSH1 0xE0 DUP6 ADD MSTORE PUSH2 0x100 DUP5 ADD MSTORE PUSH2 0x120 DUP4 ADD MSTORE SWAP2 ISZERO ISZERO PUSH2 0x140 DUP3 ADD MSTORE PUSH2 0x160 DUP2 ADD SWAP2 SWAP1 SWAP2 MSTORE PUSH2 0x180 ADD SWAP1 JUMP JUMPDEST PUSH1 0x1 PUSH1 0x1 PUSH1 0xA0 SHL SUB SWAP4 DUP5 AND DUP2 MSTORE SWAP2 SWAP1 SWAP3 AND PUSH1 0x20 DUP3 ADD MSTORE PUSH1 0x40 DUP2 ADD SWAP2 SWAP1 SWAP2 MSTORE PUSH1 0x60 ADD SWAP1 JUMP JUMPDEST SWAP1 ISZERO ISZERO DUP2 MSTORE PUSH1 0x20 ADD SWAP1 JUMP JUMPDEST PUSH1 0x20 DUP1 DUP3 MSTORE PUSH1 0x1B SWAP1 DUP3 ADD MSTORE PUSH32 0x416C6C20746F6B656E20686173206265656E2077697468647261770000000000 PUSH1 0x40 DUP3 ADD MSTORE PUSH1 0x60 ADD SWAP1 JUMP JUMPDEST PUSH1 0x20 DUP1 DUP3 MSTORE PUSH1 0x26 SWAP1 DUP3 ADD MSTORE PUSH32 0x4F776E61626C653A206E6577206F776E657220697320746865207A65726F2061 PUSH1 0x40 DUP3 ADD MSTORE PUSH6 0x646472657373 PUSH1 0xD0 SHL PUSH1 0x60 DUP3 ADD MSTORE PUSH1 0x80 ADD SWAP1 JUMP JUMPDEST PUSH1 0x20 DUP1 DUP3 MSTORE PUSH1 0xE SWAP1 DUP3 ADD MSTORE PUSH14 0x4F766572666C6F772076616C7565 PUSH1 0x90 SHL PUSH1 0x40 DUP3 ADD MSTORE PUSH1 0x60 ADD SWAP1 JUMP JUMPDEST PUSH1 0x20 DUP1 DUP3 MSTORE PUSH1 0xA SWAP1 DUP3 ADD MSTORE PUSH10 0x4E6F7420616374697665 PUSH1 0xB0 SHL PUSH1 0x40 DUP3 ADD MSTORE PUSH1 0x60 ADD SWAP1 JUMP JUMPDEST PUSH1 0x20 DUP1 DUP3 MSTORE PUSH1 0x10 SWAP1 DUP3 ADD MSTORE PUSH16 0x4E6F7420656E6F7567682076616C7565 PUSH1 0x80 SHL PUSH1 0x40 DUP3 ADD MSTORE PUSH1 0x60 ADD SWAP1 JUMP JUMPDEST PUSH1 0x20 DUP1 DUP3 MSTORE PUSH1 0xC SWAP1 DUP3 ADD MSTORE PUSH12 0x53616C652073756365737373 PUSH1 0xA0 SHL PUSH1 0x40 DUP3 ADD MSTORE PUSH1 0x60 ADD SWAP1 JUMP JUMPDEST PUSH1 0x20 DUP1 DUP3 MSTORE DUP2 DUP2 ADD MSTORE PUSH32 0x4F776E61626C653A2063616C6C6572206973206E6F7420746865206F776E6572 PUSH1 0x40 DUP3 ADD MSTORE PUSH1 0x60 ADD SWAP1 JUMP JUMPDEST PUSH1 0x20 DUP1 DUP3 MSTORE PUSH1 0x27 SWAP1 DUP3 ADD MSTORE PUSH32 0x596F7520776974686472617720616C6C206F722068617665206E6F7420626F75 PUSH1 0x40 DUP3 ADD MSTORE PUSH7 0x19DA1D081E595D PUSH1 0xCA SHL PUSH1 0x60 DUP3 ADD MSTORE PUSH1 0x80 ADD SWAP1 JUMP JUMPDEST PUSH1 0x20 DUP1 DUP3 MSTORE PUSH1 0x24 SWAP1 DUP3 ADD MSTORE PUSH32 0x5472616E7366657248656C7065723A205452414E534645525F46524F4D5F4641 PUSH1 0x40 DUP3 ADD MSTORE PUSH4 0x12531151 PUSH1 0xE2 SHL PUSH1 0x60 DUP3 ADD MSTORE PUSH1 0x80 ADD SWAP1 JUMP JUMPDEST PUSH1 0x20 DUP1 DUP3 MSTORE PUSH1 0x1F SWAP1 DUP3 ADD MSTORE PUSH32 0x5265656E7472616E637947756172643A207265656E7472616E742063616C6C00 PUSH1 0x40 DUP3 ADD MSTORE PUSH1 0x60 ADD SWAP1 JUMP JUMPDEST PUSH1 0x20 DUP1 DUP3 MSTORE PUSH1 0xF SWAP1 DUP3 ADD MSTORE PUSH15 0x53616C652069732073756363657373 PUSH1 0x88 SHL PUSH1 0x40 DUP3 ADD MSTORE PUSH1 0x60 ADD SWAP1 JUMP JUMPDEST SWAP1 DUP2 MSTORE PUSH1 0x20 ADD SWAP1 JUMP JUMPDEST SWAP2 DUP3 MSTORE PUSH1 0x20 DUP3 ADD MSTORE PUSH1 0x40 ADD SWAP1 JUMP JUMPDEST SWAP6 DUP7 MSTORE PUSH1 0x20 DUP7 ADD SWAP5 SWAP1 SWAP5 MSTORE PUSH1 0x40 DUP6 ADD SWAP3 SWAP1 SWAP3 MSTORE PUSH1 0x60 DUP5 ADD MSTORE ISZERO ISZERO PUSH1 0x80 DUP4 ADD MSTORE ISZERO ISZERO PUSH1 0xA0 DUP3 ADD MSTORE PUSH1 0xC0 ADD SWAP1 JUMP JUMPDEST SWAP6 DUP7 MSTORE PUSH1 0x20 DUP7 ADD SWAP5 SWAP1 SWAP5 MSTORE PUSH1 0x40 DUP6 ADD SWAP3 SWAP1 SWAP3 MSTORE PUSH1 0x60 DUP5 ADD MSTORE PUSH1 0x80 DUP4 ADD MSTORE PUSH1 0xA0 DUP3 ADD MSTORE PUSH1 0xC0 ADD SWAP1 JUMP JUMPDEST PUSH1 0x0 DUP3 NOT DUP3 GT ISZERO PUSH2 0x11EF JUMPI PUSH2 0x11EF PUSH2 0x1379 JUMP JUMPDEST POP ADD SWAP1 JUMP JUMPDEST PUSH1 0x0 DUP3 PUSH2 0x120F JUMPI PUSH4 0x4E487B71 PUSH1 0xE0 SHL DUP2 MSTORE PUSH1 0x12 PUSH1 0x4 MSTORE PUSH1 0x24 DUP2 REVERT JUMPDEST POP DIV SWAP1 JUMP JUMPDEST DUP1 DUP3 JUMPDEST PUSH1 0x1 DUP1 DUP7 GT PUSH2 0x1226 JUMPI POP PUSH2 0x1251 JUMP JUMPDEST DUP2 DUP8 DIV DUP3 GT ISZERO PUSH2 0x1238 JUMPI PUSH2 0x1238 PUSH2 0x1379 JUMP JUMPDEST DUP1 DUP7 AND ISZERO PUSH2 0x1245 JUMPI SWAP2 DUP2 MUL SWAP2 JUMPDEST SWAP5 SWAP1 SWAP5 SHR SWAP4 DUP1 MUL PUSH2 0x1217 JUMP JUMPDEST SWAP5 POP SWAP5 SWAP3 POP POP POP JUMP JUMPDEST PUSH1 0x0 PUSH2 0xB39 PUSH1 0x0 NOT DUP5 DUP5 PUSH1 0x0 DUP3 PUSH2 0x1273 JUMPI POP PUSH1 0x1 PUSH2 0xD3F JUMP JUMPDEST DUP2 PUSH2 0x1280 JUMPI POP PUSH1 0x0 PUSH2 0xD3F JUMP JUMPDEST DUP2 PUSH1 0x1 DUP2 EQ PUSH2 0x1296 JUMPI PUSH1 0x2 DUP2 EQ PUSH2 0x12A0 JUMPI PUSH2 0x12CD JUMP JUMPDEST PUSH1 0x1 SWAP2 POP POP PUSH2 0xD3F JUMP JUMPDEST PUSH1 0xFF DUP5 GT ISZERO PUSH2 0x12B1 JUMPI PUSH2 0x12B1 PUSH2 0x1379 JUMP JUMPDEST PUSH1 0x1 DUP5 SHL SWAP2 POP DUP5 DUP3 GT ISZERO PUSH2 0x12C7 JUMPI PUSH2 0x12C7 PUSH2 0x1379 JUMP JUMPDEST POP PUSH2 0xD3F JUMP JUMPDEST POP PUSH1 0x20 DUP4 LT PUSH2 0x133 DUP4 LT AND PUSH1 0x4E DUP5 LT PUSH1 0xB DUP5 LT AND OR ISZERO PUSH2 0x1300 JUMPI POP DUP2 DUP2 EXP DUP4 DUP2 GT ISZERO PUSH2 0x12FB JUMPI PUSH2 0x12FB PUSH2 0x1379 JUMP JUMPDEST PUSH2 0xD3F JUMP JUMPDEST PUSH2 0x130D DUP5 DUP5 DUP5 PUSH1 0x1 PUSH2 0x1214 JUMP JUMPDEST DUP1 DUP7 DIV DUP3 GT ISZERO PUSH2 0x131F JUMPI PUSH2 0x131F PUSH2 0x1379 JUMP JUMPDEST MUL SWAP5 SWAP4 POP POP POP POP JUMP JUMPDEST PUSH1 0x0 DUP2 PUSH1 0x0 NOT DIV DUP4 GT DUP3 ISZERO ISZERO AND ISZERO PUSH2 0x1342 JUMPI PUSH2 0x1342 PUSH2 0x1379 JUMP JUMPDEST POP MUL SWAP1 JUMP JUMPDEST PUSH1 0x0 DUP3 DUP3 LT ISZERO PUSH2 0x1359 JUMPI PUSH2 0x1359 PUSH2 0x1379 JUMP JUMPDEST POP SUB SWAP1 JUMP JUMPDEST PUSH1 0x0 PUSH1 0x0 NOT DUP3 EQ ISZERO PUSH2 0x1372 JUMPI PUSH2 0x1372 PUSH2 0x1379 JUMP JUMPDEST POP PUSH1 0x1 ADD SWAP1 JUMP JUMPDEST PUSH4 0x4E487B71 PUSH1 0xE0 SHL PUSH1 0x0 MSTORE PUSH1 0x11 PUSH1 0x4 MSTORE PUSH1 0x24 PUSH1 0x0 REVERT JUMPDEST PUSH4 0x4E487B71 PUSH1 0xE0 SHL PUSH1 0x0 MSTORE PUSH1 0x41 PUSH1 0x4 MSTORE PUSH1 0x24 PUSH1 0x0 REVERT JUMPDEST PUSH1 0x1 PUSH1 0x1 PUSH1 0xA0 SHL SUB DUP2 AND DUP2 EQ PUSH2 0x442 JUMPI PUSH1 0x0 DUP1 REVERT INVALID LOG2 PUSH5 0x6970667358 0x22 SLT KECCAK256 SWAP15 0xE4 0xD4 0xDD DUP3 0xC4 DUP1 DUP3 DELEGATECALL DUP2 0x2F PUSH27 0xD30F9421AC742BDE38893EE453F2CBAA8EEADA4964736F6C634300 ADDMOD STOP STOP CALLER "
				},
				"gasEstimates": {
					"creation": {
						"codeDepositCost": "1020800",
						"executionCost": "infinite",
						"totalCost": "infinite"
					},
					"external": {
						"WETH()": "1159",
						"backToken()": "infinite",
						"buyerInfo(address)": "4727",
						"checkAdminAddress()": "1299",
						"deposit(uint256)": "22904",
						"feeAnyone()": "1051",
						"getBalance(address)": "1205",
						"initialSaleInfor(address,address,address,uint256[9])": "infinite",
						"owner()": "1181",
						"presaleStatus()": "5218",
						"renounceOwnership()": "23574",
						"saleInfor()": "10258",
						"saleTotalSupply()": "1873",
						"status()": "1987",
						"totalFee()": "1096",
						"transferOwnership(address)": "infinite",
						"userClaimEmergency()": "2045",
						"userFee(address)": "1291"
					}
				},
				"methodIdentifiers": {
					"WETH()": "ad5c4648",
					"backToken()": "861faf5f",
					"buyerInfo(address)": "e2d3f423",
					"checkAdminAddress()": "cad5b0f7",
					"deposit(uint256)": "b6b55f25",
					"feeAnyone()": "3b5ef2ad",
					"getBalance(address)": "f8b2cb4f",
					"initialSaleInfor(address,address,address,uint256[9])": "8f1eae4c",
					"owner()": "8da5cb5b",
					"presaleStatus()": "acfb2355",
					"renounceOwnership()": "715018a6",
					"saleInfor()": "18856a2f",
					"saleTotalSupply()": "12e5d0b9",
					"status()": "200d2ed2",
					"totalFee()": "1df4ccfc",
					"transferOwnership(address)": "f2fde38b",
					"userClaimEmergency()": "ab33985a",
					"userFee(address)": "56c5f349"
				}
			},
			"storageLayout": {
				"storage": [
					{
						"astId": 2102,
						"contract": "Ethereum/Presale.sol:Presale",
						"label": "_status",
						"offset": 0,
						"slot": "0",
						"type": "t_uint256"
					},
					{
						"astId": 1994,
						"contract": "Ethereum/Presale.sol:Presale",
						"label": "_owner",
						"offset": 0,
						"slot": "1",
						"type": "t_address"
					},
					{
						"astId": 774,
						"contract": "Ethereum/Presale.sol:Presale",
						"label": "buyerInfo",
						"offset": 0,
						"slot": "2",
						"type": "t_mapping(t_address,t_struct(BuyerInfo)753_storage)"
					},
					{
						"astId": 778,
						"contract": "Ethereum/Presale.sol:Presale",
						"label": "userFee",
						"offset": 0,
						"slot": "3",
						"type": "t_mapping(t_address,t_uint256)"
					},
					{
						"astId": 781,
						"contract": "Ethereum/Presale.sol:Presale",
						"label": "presaleStatus",
						"offset": 0,
						"slot": "4",
						"type": "t_struct(PresaleStatus)769_storage"
					},
					{
						"astId": 784,
						"contract": "Ethereum/Presale.sol:Presale",
						"label": "saleTotalSupply",
						"offset": 0,
						"slot": "11",
						"type": "t_struct(SaleTotalSupply)740_storage"
					},
					{
						"astId": 787,
						"contract": "Ethereum/Presale.sol:Presale",
						"label": "saleInfor",
						"offset": 0,
						"slot": "13",
						"type": "t_struct(SaleInfor)735_storage"
					},
					{
						"astId": 790,
						"contract": "Ethereum/Presale.sol:Presale",
						"label": "WETH",
						"offset": 0,
						"slot": "25",
						"type": "t_contract(IERC20)663"
					},
					{
						"astId": 792,
						"contract": "Ethereum/Presale.sol:Presale",
						"label": "feeAnyone",
						"offset": 0,
						"slot": "26",
						"type": "t_uint256"
					},
					{
						"astId": 795,
						"contract": "Ethereum/Presale.sol:Presale",
						"label": "admins",
						"offset": 0,
						"slot": "27",
						"type": "t_struct(AddressSet)1699_storage"
					},
					{
						"astId": 797,
						"contract": "Ethereum/Presale.sol:Presale",
						"label": "totalFee",
						"offset": 0,
						"slot": "29",
						"type": "t_uint256"
					}
				],
				"types": {
					"t_address": {
						"encoding": "inplace",
						"label": "address",
						"numberOfBytes": "20"
					},
					"t_address_payable": {
						"encoding": "inplace",
						"label": "address payable",
						"numberOfBytes": "20"
					},
					"t_array(t_address)dyn_storage": {
						"base": "t_address",
						"encoding": "dynamic_array",
						"label": "address[]",
						"numberOfBytes": "32"
					},
					"t_array(t_bytes32)dyn_storage": {
						"base": "t_bytes32",
						"encoding": "dynamic_array",
						"label": "bytes32[]",
						"numberOfBytes": "32"
					},
					"t_bool": {
						"encoding": "inplace",
						"label": "bool",
						"numberOfBytes": "1"
					},
					"t_bytes32": {
						"encoding": "inplace",
						"label": "bytes32",
						"numberOfBytes": "32"
					},
					"t_contract(ERC20)585": {
						"encoding": "inplace",
						"label": "contract ERC20",
						"numberOfBytes": "20"
					},
					"t_contract(IERC20)663": {
						"encoding": "inplace",
						"label": "contract IERC20",
						"numberOfBytes": "20"
					},
					"t_mapping(t_address,t_struct(BuyerInfo)753_storage)": {
						"encoding": "mapping",
						"key": "t_address",
						"label": "mapping(address => struct Presale.BuyerInfo)",
						"numberOfBytes": "32",
						"value": "t_struct(BuyerInfo)753_storage"
					},
					"t_mapping(t_address,t_uint256)": {
						"encoding": "mapping",
						"key": "t_address",
						"label": "mapping(address => uint256)",
						"numberOfBytes": "32",
						"value": "t_uint256"
					},
					"t_mapping(t_bytes32,t_uint256)": {
						"encoding": "mapping",
						"key": "t_bytes32",
						"label": "mapping(bytes32 => uint256)",
						"numberOfBytes": "32",
						"value": "t_uint256"
					},
					"t_struct(AddressSet)1699_storage": {
						"encoding": "inplace",
						"label": "struct EnumerableSet.AddressSet",
						"members": [
							{
								"astId": 1698,
								"contract": "Ethereum/Presale.sol:Presale",
								"label": "_inner",
								"offset": 0,
								"slot": "0",
								"type": "t_struct(Set)1398_storage"
							}
						],
						"numberOfBytes": "64"
					},
					"t_struct(BuyerInfo)753_storage": {
						"encoding": "inplace",
						"label": "struct Presale.BuyerInfo",
						"members": [
							{
								"astId": 742,
								"contract": "Ethereum/Presale.sol:Presale",
								"label": "baseDeposit",
								"offset": 0,
								"slot": "0",
								"type": "t_uint256"
							},
							{
								"astId": 744,
								"contract": "Ethereum/Presale.sol:Presale",
								"label": "tokenOwner",
								"offset": 0,
								"slot": "1",
								"type": "t_uint256"
							},
							{
								"astId": 746,
								"contract": "Ethereum/Presale.sol:Presale",
								"label": "lastWithDraw",
								"offset": 0,
								"slot": "2",
								"type": "t_uint256"
							},
							{
								"astId": 748,
								"contract": "Ethereum/Presale.sol:Presale",
								"label": "totalTokenWithDraw",
								"offset": 0,
								"slot": "3",
								"type": "t_uint256"
							},
							{
								"astId": 750,
								"contract": "Ethereum/Presale.sol:Presale",
								"label": "isRefund",
								"offset": 0,
								"slot": "4",
								"type": "t_bool"
							},
							{
								"astId": 752,
								"contract": "Ethereum/Presale.sol:Presale",
								"label": "isClaim",
								"offset": 1,
								"slot": "4",
								"type": "t_bool"
							}
						],
						"numberOfBytes": "160"
					},
					"t_struct(PresaleStatus)769_storage": {
						"encoding": "inplace",
						"label": "struct Presale.PresaleStatus",
						"members": [
							{
								"astId": 755,
								"contract": "Ethereum/Presale.sol:Presale",
								"label": "totalBaseCollected",
								"offset": 0,
								"slot": "0",
								"type": "t_uint256"
							},
							{
								"astId": 757,
								"contract": "Ethereum/Presale.sol:Presale",
								"label": "totalTokenSold",
								"offset": 0,
								"slot": "1",
								"type": "t_uint256"
							},
							{
								"astId": 759,
								"contract": "Ethereum/Presale.sol:Presale",
								"label": "totalTokenWithDraw",
								"offset": 0,
								"slot": "2",
								"type": "t_uint256"
							},
							{
								"astId": 761,
								"contract": "Ethereum/Presale.sol:Presale",
								"label": "totalBaseWithDraw",
								"offset": 0,
								"slot": "3",
								"type": "t_uint256"
							},
							{
								"astId": 763,
								"contract": "Ethereum/Presale.sol:Presale",
								"label": "numberBuyer",
								"offset": 0,
								"slot": "4",
								"type": "t_uint256"
							},
							{
								"astId": 765,
								"contract": "Ethereum/Presale.sol:Presale",
								"label": "totalFee",
								"offset": 0,
								"slot": "5",
								"type": "t_uint256"
							},
							{
								"astId": 768,
								"contract": "Ethereum/Presale.sol:Presale",
								"label": "admin",
								"offset": 0,
								"slot": "6",
								"type": "t_array(t_address)dyn_storage"
							}
						],
						"numberOfBytes": "224"
					},
					"t_struct(SaleInfor)735_storage": {
						"encoding": "inplace",
						"label": "struct Presale.SaleInfor",
						"members": [
							{
								"astId": 710,
								"contract": "Ethereum/Presale.sol:Presale",
								"label": "presaleOwner",
								"offset": 0,
								"slot": "0",
								"type": "t_address_payable"
							},
							{
								"astId": 713,
								"contract": "Ethereum/Presale.sol:Presale",
								"label": "saleToken",
								"offset": 0,
								"slot": "1",
								"type": "t_contract(ERC20)585"
							},
							{
								"astId": 716,
								"contract": "Ethereum/Presale.sol:Presale",
								"label": "baseToken",
								"offset": 0,
								"slot": "2",
								"type": "t_contract(ERC20)585"
							},
							{
								"astId": 718,
								"contract": "Ethereum/Presale.sol:Presale",
								"label": "tokenPrice",
								"offset": 0,
								"slot": "3",
								"type": "t_uint256"
							},
							{
								"astId": 720,
								"contract": "Ethereum/Presale.sol:Presale",
								"label": "startSale",
								"offset": 0,
								"slot": "4",
								"type": "t_uint256"
							},
							{
								"astId": 722,
								"contract": "Ethereum/Presale.sol:Presale",
								"label": "endSale",
								"offset": 0,
								"slot": "5",
								"type": "t_uint256"
							},
							{
								"astId": 724,
								"contract": "Ethereum/Presale.sol:Presale",
								"label": "minSpendPerBuyer",
								"offset": 0,
								"slot": "6",
								"type": "t_uint256"
							},
							{
								"astId": 726,
								"contract": "Ethereum/Presale.sol:Presale",
								"label": "maxSpendPerBuyer",
								"offset": 0,
								"slot": "7",
								"type": "t_uint256"
							},
							{
								"astId": 728,
								"contract": "Ethereum/Presale.sol:Presale",
								"label": "refundFee",
								"offset": 0,
								"slot": "8",
								"type": "t_uint256"
							},
							{
								"astId": 730,
								"contract": "Ethereum/Presale.sol:Presale",
								"label": "claimFee",
								"offset": 0,
								"slot": "9",
								"type": "t_uint256"
							},
							{
								"astId": 732,
								"contract": "Ethereum/Presale.sol:Presale",
								"label": "saleIsBaseToken",
								"offset": 0,
								"slot": "10",
								"type": "t_bool"
							},
							{
								"astId": 734,
								"contract": "Ethereum/Presale.sol:Presale",
								"label": "amountTokenForSale",
								"offset": 0,
								"slot": "11",
								"type": "t_uint256"
							}
						],
						"numberOfBytes": "384"
					},
					"t_struct(SaleTotalSupply)740_storage": {
						"encoding": "inplace",
						"label": "struct Presale.SaleTotalSupply",
						"members": [
							{
								"astId": 737,
								"contract": "Ethereum/Presale.sol:Presale",
								"label": "hardCap",
								"offset": 0,
								"slot": "0",
								"type": "t_uint256"
							},
							{
								"astId": 739,
								"contract": "Ethereum/Presale.sol:Presale",
								"label": "softCap",
								"offset": 0,
								"slot": "1",
								"type": "t_uint256"
							}
						],
						"numberOfBytes": "64"
					},
					"t_struct(Set)1398_storage": {
						"encoding": "inplace",
						"label": "struct EnumerableSet.Set",
						"members": [
							{
								"astId": 1393,
								"contract": "Ethereum/Presale.sol:Presale",
								"label": "_values",
								"offset": 0,
								"slot": "0",
								"type": "t_array(t_bytes32)dyn_storage"
							},
							{
								"astId": 1397,
								"contract": "Ethereum/Presale.sol:Presale",
								"label": "_indexes",
								"offset": 0,
								"slot": "1",
								"type": "t_mapping(t_bytes32,t_uint256)"
							}
						],
						"numberOfBytes": "64"
					},
					"t_uint256": {
						"encoding": "inplace",
						"label": "uint256",
						"numberOfBytes": "32"
					}
				}
			},
			"userdoc": {
				"kind": "user",
				"methods": {},
				"version": 1
			}
		}
	}
}