{
	"Ethereum/Presale.sol": {
		"Presale": {
			"abi": [
				{
					"inputs": [],
					"stateMutability": "payable",
					"type": "constructor"
				},
				{
					"anonymous": false,
					"inputs": [
						{
							"indexed": true,
							"internalType": "address",
							"name": "previousOwner",
							"type": "address"
						},
						{
							"indexed": true,
							"internalType": "address",
							"name": "newOwner",
							"type": "address"
						}
					],
					"name": "OwnershipTransferred",
					"type": "event"
				},
				{
					"inputs": [],
					"name": "WETH",
					"outputs": [
						{
							"internalType": "contract IERC20",
							"name": "",
							"type": "address"
						}
					],
					"stateMutability": "view",
					"type": "function"
				},
				{
					"inputs": [],
					"name": "backToken",
					"outputs": [],
					"stateMutability": "payable",
					"type": "function"
				},
				{
					"inputs": [
						{
							"internalType": "address",
							"name": "",
							"type": "address"
						}
					],
					"name": "buyerInfo",
					"outputs": [
						{
							"internalType": "uint256",
							"name": "baseDeposit",
							"type": "uint256"
						},
						{
							"internalType": "uint256",
							"name": "tokenOwner",
							"type": "uint256"
						},
						{
							"internalType": "uint256",
							"name": "lastWithDraw",
							"type": "uint256"
						},
						{
							"internalType": "uint256",
							"name": "totalTokenWithDraw",
							"type": "uint256"
						},
						{
							"internalType": "bool",
							"name": "isRefund",
							"type": "bool"
						},
						{
							"internalType": "bool",
							"name": "isClaim",
							"type": "bool"
						}
					],
					"stateMutability": "view",
					"type": "function"
				},
				{
					"inputs": [],
					"name": "checkAdminAddress",
					"outputs": [
						{
							"internalType": "bool",
							"name": "",
							"type": "bool"
						}
					],
					"stateMutability": "view",
					"type": "function"
				},
				{
					"inputs": [
						{
							"internalType": "uint256",
							"name": "_amount",
							"type": "uint256"
						}
					],
					"name": "deposit",
					"outputs": [],
					"stateMutability": "payable",
					"type": "function"
				},
				{
					"inputs": [],
					"name": "feeAnyone",
					"outputs": [
						{
							"internalType": "uint256",
							"name": "",
							"type": "uint256"
						}
					],
					"stateMutability": "view",
					"type": "function"
				},
				{
					"inputs": [
						{
							"internalType": "address",
							"name": "_address",
							"type": "address"
						}
					],
					"name": "getBalance",
					"outputs": [
						{
							"internalType": "uint256",
							"name": "",
							"type": "uint256"
						}
					],
					"stateMutability": "view",
					"type": "function"
				},
				{
					"inputs": [
						{
							"internalType": "address payable",
							"name": "_presaleOwner",
							"type": "address"
						},
						{
							"internalType": "contract ERC20",
							"name": "_saleToken",
							"type": "address"
						},
						{
							"internalType": "contract ERC20",
							"name": "_baseTOken",
							"type": "address"
						},
						{
							"internalType": "uint256[7]",
							"name": "datas",
							"type": "uint256[7]"
						}
					],
					"name": "initialSaleInfor",
					"outputs": [],
					"stateMutability": "nonpayable",
					"type": "function"
				},
				{
					"inputs": [],
					"name": "owner",
					"outputs": [
						{
							"internalType": "address",
							"name": "",
							"type": "address"
						}
					],
					"stateMutability": "view",
					"type": "function"
				},
				{
					"inputs": [],
					"name": "presaleStatus",
					"outputs": [
						{
							"internalType": "uint256",
							"name": "totalBaseCollected",
							"type": "uint256"
						},
						{
							"internalType": "uint256",
							"name": "totalTokenSold",
							"type": "uint256"
						},
						{
							"internalType": "uint256",
							"name": "totalTokenWithDraw",
							"type": "uint256"
						},
						{
							"internalType": "uint256",
							"name": "totalBaseWithDraw",
							"type": "uint256"
						},
						{
							"internalType": "uint256",
							"name": "numByer",
							"type": "uint256"
						},
						{
							"internalType": "uint256",
							"name": "totalFee",
							"type": "uint256"
						}
					],
					"stateMutability": "view",
					"type": "function"
				},
				{
					"inputs": [],
					"name": "renounceOwnership",
					"outputs": [],
					"stateMutability": "nonpayable",
					"type": "function"
				},
				{
					"inputs": [],
					"name": "saleInfor",
					"outputs": [
						{
							"internalType": "address payable",
							"name": "presaleOwner",
							"type": "address"
						},
						{
							"internalType": "contract ERC20",
							"name": "saleToken",
							"type": "address"
						},
						{
							"internalType": "contract ERC20",
							"name": "baseToken",
							"type": "address"
						},
						{
							"internalType": "uint256",
							"name": "tokenPrice",
							"type": "uint256"
						},
						{
							"internalType": "uint256",
							"name": "startSale",
							"type": "uint256"
						},
						{
							"internalType": "uint256",
							"name": "endSale",
							"type": "uint256"
						},
						{
							"internalType": "uint256",
							"name": "minSpendPerBuyer",
							"type": "uint256"
						},
						{
							"internalType": "uint256",
							"name": "maxSpendPerBuyer",
							"type": "uint256"
						},
						{
							"internalType": "uint256",
							"name": "refundFee",
							"type": "uint256"
						},
						{
							"internalType": "uint256",
							"name": "claimFee",
							"type": "uint256"
						},
						{
							"internalType": "bool",
							"name": "saleIsBaseToken",
							"type": "bool"
						},
						{
							"internalType": "uint256",
							"name": "amountTokenForSale",
							"type": "uint256"
						}
					],
					"stateMutability": "view",
					"type": "function"
				},
				{
					"inputs": [],
					"name": "status",
					"outputs": [
						{
							"internalType": "uint256",
							"name": "",
							"type": "uint256"
						}
					],
					"stateMutability": "view",
					"type": "function"
				},
				{
					"inputs": [],
					"name": "totalFee",
					"outputs": [
						{
							"internalType": "uint256",
							"name": "",
							"type": "uint256"
						}
					],
					"stateMutability": "view",
					"type": "function"
				},
				{
					"inputs": [
						{
							"internalType": "uint256",
							"name": "amount",
							"type": "uint256"
						}
					],
					"name": "transferETH",
					"outputs": [],
					"stateMutability": "payable",
					"type": "function"
				},
				{
					"inputs": [
						{
							"internalType": "address",
							"name": "newOwner",
							"type": "address"
						}
					],
					"name": "transferOwnership",
					"outputs": [],
					"stateMutability": "nonpayable",
					"type": "function"
				},
				{
					"inputs": [
						{
							"internalType": "address",
							"name": "",
							"type": "address"
						}
					],
					"name": "userFee",
					"outputs": [
						{
							"internalType": "uint256",
							"name": "",
							"type": "uint256"
						}
					],
					"stateMutability": "view",
					"type": "function"
				}
			],
			"devdoc": {
				"kind": "dev",
				"methods": {
					"owner()": {
						"details": "Returns the address of the current owner."
					},
					"renounceOwnership()": {
						"details": "Leaves the contract without owner. It will not be possible to call `onlyOwner` functions anymore. Can only be called by the current owner. NOTE: Renouncing ownership will leave the contract without an owner, thereby removing any functionality that is only available to the owner."
					},
					"transferOwnership(address)": {
						"details": "Transfers ownership of the contract to a new account (`newOwner`). Can only be called by the current owner."
					}
				},
				"version": 1
			},
			"evm": {
				"assembly": "    /* \"Ethereum/Presale.sol\":338:5763  contract Presale is ReentrancyGuard, Ownable{\r... */\n  mstore(0x40, 0x80)\n    /* \"Utils/ReentrancyGuard.sol\":1734:1735  1 */\n  0x01\n    /* \"Utils/ReentrancyGuard.sol\":1845:1852  _status */\n  0x00\n    /* \"Utils/ReentrancyGuard.sol\":1845:1867  _status = _NOT_ENTERED */\n  sstore\n    /* \"Utils/Ownable.sol\":942:974  _transferOwnership(_msgSender()) */\n  tag_6\n    /* \"Utils/Context.sol\":736:746  msg.sender */\n  caller\n    /* \"Utils/Ownable.sol\":942:960  _transferOwnership */\n  tag_9\n    /* \"Utils/Ownable.sol\":942:974  _transferOwnership(_msgSender()) */\n  jump\t// in\ntag_6:\n    /* \"Ethereum/Presale.sol\":1933:1937  WETH */\n  0x17\n    /* \"Ethereum/Presale.sol\":1933:1989  WETH = ERC20(0xc778417E063141139Fce010982780140Aa0cD5Ab) */\n  dup1\n  sload\n    /* \"Ethereum/Presale.sol\":1946:1988  0xc778417E063141139Fce010982780140Aa0cD5Ab */\n  0xc778417e063141139fce010982780140aa0cd5ab\n  not(sub(shl(0xa0, 0x01), 0x01))\n    /* \"Ethereum/Presale.sol\":1933:1989  WETH = ERC20(0xc778417E063141139Fce010982780140Aa0cD5Ab) */\n  swap1\n  swap2\n  and\n  or\n  swap1\n  sstore\n    /* \"Ethereum/Presale.sol\":2000:2054  admins.add(0x6Ccb41eedA5a073076F3E7dC1614C185b5fA41eD) */\n  tag_11\n    /* \"Ethereum/Presale.sol\":2000:2006  admins */\n  0x19\n    /* \"Ethereum/Presale.sol\":2011:2053  0x6Ccb41eedA5a073076F3E7dC1614C185b5fA41eD */\n  0x6ccb41eeda5a073076f3e7dc1614c185b5fa41ed\n    /* \"Ethereum/Presale.sol\":2000:2010  admins.add */\n  tag_12\n  0x20\n  swap1\n  dup2\n  shl\n  tag_0_98\n  or\n    /* \"Ethereum/Presale.sol\":2000:2054  admins.add(0x6Ccb41eedA5a073076F3E7dC1614C185b5fA41eD) */\n  swap1\n  shr\n  jump\t// in\ntag_11:\n  pop\n    /* \"Ethereum/Presale.sol\":2065:2119  admins.add(0x4f0B12bBF40Fc182559822A5b1dB6D34dbC3E016) */\n  tag_13\n    /* \"Ethereum/Presale.sol\":2076:2118  0x4f0B12bBF40Fc182559822A5b1dB6D34dbC3E016 */\n  0x4f0b12bbf40fc182559822a5b1db6d34dbc3e016\n    /* \"Ethereum/Presale.sol\":2065:2071  admins */\n  0x19\n    /* \"Ethereum/Presale.sol\":2065:2075  admins.add */\n  or(tag_0_98, shl(0x20, tag_12))\n  swap1\n    /* \"Ethereum/Presale.sol\":2065:2119  admins.add(0x4f0B12bBF40Fc182559822A5b1dB6D34dbC3E016) */\n  swap2\n  swap1\n  0x20\n  shr\n  jump\t// in\ntag_13:\n  pop\n    /* \"Ethereum/Presale.sol\":2142:2144  20 */\n  0x14\n    /* \"Ethereum/Presale.sol\":2130:2139  feeAnyone */\n  0x18\n    /* \"Ethereum/Presale.sol\":2130:2144  feeAnyone = 20 */\n  sstore\n    /* \"Ethereum/Presale.sol\":338:5763  contract Presale is ReentrancyGuard, Ownable{\r... */\n  jump(tag_14)\n    /* \"Utils/Ownable.sol\":2333:2524  function _transferOwnership(address newOwner) internal virtual {\r... */\ntag_9:\n    /* \"Utils/Ownable.sol\":2426:2432  _owner */\n  0x01\n  dup1\n  sload\n  sub(shl(0xa0, 0x01), 0x01)\n    /* \"Utils/Ownable.sol\":2443:2460  _owner = newOwner */\n  dup4\n  dup2\n  and\n  not(sub(shl(0xa0, 0x01), 0x01))\n  dup4\n  and\n  dup2\n  or\n  swap1\n  swap4\n  sstore\n    /* \"Utils/Ownable.sol\":2476:2516  OwnershipTransferred(oldOwner, newOwner) */\n  mload(0x40)\n    /* \"Utils/Ownable.sol\":2426:2432  _owner */\n  swap2\n  and\n  swap2\n    /* \"Utils/Ownable.sol\":2443:2460  _owner = newOwner */\n  swap1\n    /* \"Utils/Ownable.sol\":2426:2432  _owner */\n  dup3\n  swap1\n    /* \"Utils/Ownable.sol\":2476:2516  OwnershipTransferred(oldOwner, newOwner) */\n  0x8be0079c531659141344cd1fd0a4f28419497f9722a3daafe3b4186f6b6457e0\n  swap1\n    /* \"Utils/Ownable.sol\":2407:2423  address oldOwner */\n  0x00\n  swap1\n    /* \"Utils/Ownable.sol\":2476:2516  OwnershipTransferred(oldOwner, newOwner) */\n  log3\n    /* \"Utils/Ownable.sol\":2333:2524  function _transferOwnership(address newOwner) internal virtual {\r... */\n  pop\n  pop\n  jump\t// out\n    /* \"Utils/EnumerableSet.sol\":8259:8411  function add(AddressSet storage set, address value) internal returns (bool) {\r... */\ntag_12:\n    /* \"Utils/EnumerableSet.sol\":8329:8333  bool */\n  0x00\n    /* \"Utils/EnumerableSet.sol\":8353:8403  _add(set._inner, bytes32(uint256(uint160(value)))) */\n  tag_18\n    /* \"Utils/EnumerableSet.sol\":8358:8361  set */\n  dup4\n  sub(shl(0xa0, 0x01), 0x01)\n    /* \"Utils/EnumerableSet.sol\":8378:8401  uint256(uint160(value)) */\n  dup5\n  and\n    /* \"Utils/EnumerableSet.sol\":8353:8357  _add */\n  tag_19\n    /* \"Utils/EnumerableSet.sol\":8353:8403  _add(set._inner, bytes32(uint256(uint160(value)))) */\n  jump\t// in\ntag_18:\n    /* \"Utils/EnumerableSet.sol\":8346:8403  return _add(set._inner, bytes32(uint256(uint160(value)))) */\n  swap1\n  pop\n    /* \"Utils/EnumerableSet.sol\":8259:8411  function add(AddressSet storage set, address value) internal returns (bool) {\r... */\ntag_17:\n  swap3\n  swap2\n  pop\n  pop\n  jump\t// out\n    /* \"Utils/EnumerableSet.sol\":2174:2588  function _add(Set storage set, bytes32 value) private returns (bool) {\r... */\ntag_19:\n    /* \"Utils/EnumerableSet.sol\":2237:2241  bool */\n  0x00\n    /* \"Utils/EnumerableSet.sol\":4367:4386  set._indexes[value] */\n  dup2\n  dup2\n  mstore\n    /* \"Utils/EnumerableSet.sol\":4367:4379  set._indexes */\n  0x01\n  dup4\n  add\n    /* \"Utils/EnumerableSet.sol\":4367:4386  set._indexes[value] */\n  0x20\n  mstore\n  0x40\n  dup2\n  keccak256\n  sload\n    /* \"Utils/EnumerableSet.sol\":2254:2581  if (!_contains(set, value)) {\r... */\n  tag_23\n  jumpi\n  pop\n    /* \"Utils/EnumerableSet.sol\":2297:2320  set._values.push(value) */\n  dup2\n  sload\n  0x01\n  dup2\n  dup2\n  add\n  dup5\n  sstore\n    /* \"Utils/EnumerableSet.sol\":2297:2308  set._values */\n  0x00\n    /* \"Utils/EnumerableSet.sol\":2297:2320  set._values.push(value) */\n  dup5\n  dup2\n  mstore\n  0x20\n  dup1\n  dup3\n  keccak256\n  swap1\n  swap4\n  add\n  dup5\n  swap1\n  sstore\n    /* \"Utils/EnumerableSet.sol\":2480:2498  set._values.length */\n  dup5\n  sload\n    /* \"Utils/EnumerableSet.sol\":2458:2477  set._indexes[value] */\n  dup5\n  dup3\n  mstore\n    /* \"Utils/EnumerableSet.sol\":2458:2470  set._indexes */\n  dup3\n  dup7\n  add\n    /* \"Utils/EnumerableSet.sol\":2458:2477  set._indexes[value] */\n  swap1\n  swap4\n  mstore\n  0x40\n  swap1\n  keccak256\n    /* \"Utils/EnumerableSet.sol\":2458:2498  set._indexes[value] = set._values.length */\n  swap2\n  swap1\n  swap2\n  sstore\n    /* \"Utils/EnumerableSet.sol\":2513:2524  return true */\n  jump(tag_17)\n    /* \"Utils/EnumerableSet.sol\":2254:2581  if (!_contains(set, value)) {\r... */\ntag_23:\n  pop\n    /* \"Utils/EnumerableSet.sol\":2564:2569  false */\n  0x00\n    /* \"Utils/EnumerableSet.sol\":2557:2569  return false */\n  jump(tag_17)\n    /* \"Ethereum/Presale.sol\":338:5763  contract Presale is ReentrancyGuard, Ownable{\r... */\ntag_14:\n  dataSize(sub_0)\n  dup1\n  dataOffset(sub_0)\n  0x00\n  codecopy\n  0x00\n  return\nstop\n\nsub_0: assembly {\n        /* \"Ethereum/Presale.sol\":338:5763  contract Presale is ReentrancyGuard, Ownable{\r... */\n      mstore(0x40, 0x80)\n      jumpi(tag_1, lt(calldatasize, 0x04))\n      shr(0xe0, calldataload(0x00))\n      dup1\n      0x861faf5f\n      gt\n      tag_19\n      jumpi\n      dup1\n      0xb6b55f25\n      gt\n      tag_20\n      jumpi\n      dup1\n      0xb6b55f25\n      eq\n      tag_14\n      jumpi\n      dup1\n      0xcad5b0f7\n      eq\n      tag_15\n      jumpi\n      dup1\n      0xe2d3f423\n      eq\n      tag_16\n      jumpi\n      dup1\n      0xf2fde38b\n      eq\n      tag_17\n      jumpi\n      dup1\n      0xf8b2cb4f\n      eq\n      tag_18\n      jumpi\n      0x00\n      dup1\n      revert\n    tag_20:\n      dup1\n      0x861faf5f\n      eq\n      tag_10\n      jumpi\n      dup1\n      0x8da5cb5b\n      eq\n      tag_11\n      jumpi\n      dup1\n      0xacfb2355\n      eq\n      tag_12\n      jumpi\n      dup1\n      0xad5c4648\n      eq\n      tag_13\n      jumpi\n      0x00\n      dup1\n      revert\n    tag_19:\n      dup1\n      0x4329db46\n      gt\n      tag_21\n      jumpi\n      dup1\n      0x4329db46\n      eq\n      tag_6\n      jumpi\n      dup1\n      0x56c5f349\n      eq\n      tag_7\n      jumpi\n      dup1\n      0x61e17655\n      eq\n      tag_8\n      jumpi\n      dup1\n      0x715018a6\n      eq\n      tag_9\n      jumpi\n      0x00\n      dup1\n      revert\n    tag_21:\n      dup1\n      0x18856a2f\n      eq\n      tag_2\n      jumpi\n      dup1\n      0x1df4ccfc\n      eq\n      tag_3\n      jumpi\n      dup1\n      0x200d2ed2\n      eq\n      tag_4\n      jumpi\n      dup1\n      0x3b5ef2ad\n      eq\n      tag_5\n      jumpi\n    tag_1:\n      0x00\n      dup1\n      revert\n        /* \"Ethereum/Presale.sol\":1492:1518  SaleInfor public saleInfor */\n    tag_2:\n      callvalue\n      dup1\n      iszero\n      tag_22\n      jumpi\n      0x00\n      dup1\n      revert\n    tag_22:\n      pop\n      sload(0x0b)\n      sload(0x0c)\n      sload(0x0d)\n      sload(0x0e)\n      sload(0x0f)\n      sload(0x10)\n      sload(0x11)\n      sload(0x12)\n      sload(0x13)\n      sload(0x14)\n      sload(0x15)\n      sload(0x16)\n      tag_23\n      swap12\n      sub(shl(0xa0, 0x01), 0x01)\n      swap1\n      dup2\n      and\n      swap12\n      dup2\n      and\n      swap11\n      and\n      swap9\n      swap8\n      swap7\n      swap6\n      swap5\n      swap4\n      swap3\n      swap2\n      0xff\n      and\n      swap1\n      dup13\n      jump\n    tag_23:\n      0x40\n      dup1\n      mload\n      sub(shl(0xa0, 0x01), 0x01)\n        /* \"#utility.yul\":3465:3480   */\n      swap14\n      dup15\n      and\n        /* \"#utility.yul\":3447:3481   */\n      dup2\n      mstore\n        /* \"#utility.yul\":3517:3532   */\n      swap12\n      dup14\n      and\n        /* \"#utility.yul\":3512:3514   */\n      0x20\n        /* \"#utility.yul\":3497:3515   */\n      dup14\n      add\n        /* \"#utility.yul\":3490:3533   */\n      mstore\n        /* \"#utility.yul\":3569:3584   */\n      swap10\n      swap1\n      swap12\n      and\n        /* \"#utility.yul\":3549:3567   */\n      swap9\n      dup11\n      add\n        /* \"#utility.yul\":3542:3585   */\n      swap9\n      swap1\n      swap9\n      mstore\n        /* \"#utility.yul\":3616:3618   */\n      0x60\n        /* \"#utility.yul\":3601:3619   */\n      dup10\n      add\n        /* \"#utility.yul\":3594:3628   */\n      swap7\n      swap1\n      swap7\n      mstore\n        /* \"#utility.yul\":3659:3662   */\n      0x80\n        /* \"#utility.yul\":3644:3663   */\n      dup9\n      add\n        /* \"#utility.yul\":3637:3672   */\n      swap5\n      swap1\n      swap5\n      mstore\n        /* \"#utility.yul\":3427:3430   */\n      0xa0\n        /* \"#utility.yul\":3688:3707   */\n      dup8\n      add\n        /* \"#utility.yul\":3681:3716   */\n      swap3\n      swap1\n      swap3\n      mstore\n        /* \"#utility.yul\":3747:3750   */\n      0xc0\n        /* \"#utility.yul\":3732:3751   */\n      dup7\n      add\n        /* \"#utility.yul\":3725:3760   */\n      mstore\n        /* \"#utility.yul\":3791:3794   */\n      0xe0\n        /* \"#utility.yul\":3776:3795   */\n      dup6\n      add\n        /* \"#utility.yul\":3769:3804   */\n      mstore\n        /* \"#utility.yul\":3835:3838   */\n      0x0100\n        /* \"#utility.yul\":3820:3839   */\n      dup5\n      add\n        /* \"#utility.yul\":3813:3848   */\n      mstore\n        /* \"#utility.yul\":3879:3882   */\n      0x0120\n        /* \"#utility.yul\":3864:3883   */\n      dup4\n      add\n        /* \"#utility.yul\":3857:3892   */\n      mstore\n        /* \"#utility.yul\":3936:3951   */\n      iszero\n        /* \"#utility.yul\":3929:3952   */\n      iszero\n        /* \"#utility.yul\":3923:3926   */\n      0x0140\n        /* \"#utility.yul\":3908:3927   */\n      dup3\n      add\n        /* \"#utility.yul\":3901:3953   */\n      mstore\n        /* \"#utility.yul\":3984:3987   */\n      0x0160\n        /* \"#utility.yul\":3969:3988   */\n      dup2\n      add\n        /* \"#utility.yul\":3962:3998   */\n      swap2\n      swap1\n      swap2\n      mstore\n        /* \"#utility.yul\":3396:3399   */\n      0x0180\n        /* \"#utility.yul\":3381:3400   */\n      add\n        /* \"Ethereum/Presale.sol\":1492:1518  SaleInfor public saleInfor */\n    tag_25:\n      mload(0x40)\n      dup1\n      swap2\n      sub\n      swap1\n      return\n        /* \"Ethereum/Presale.sol\":1628:1651  uint256 public totalFee */\n    tag_3:\n      callvalue\n      dup1\n      iszero\n      tag_27\n      jumpi\n      0x00\n      dup1\n      revert\n    tag_27:\n      pop\n      tag_28\n      sload(0x1b)\n      dup2\n      jump\n    tag_28:\n      mload(0x40)\n        /* \"#utility.yul\":7853:7878   */\n      swap1\n      dup2\n      mstore\n        /* \"#utility.yul\":7841:7843   */\n      0x20\n        /* \"#utility.yul\":7826:7844   */\n      add\n        /* \"Ethereum/Presale.sol\":1628:1651  uint256 public totalFee */\n      tag_25\n        /* \"#utility.yul\":7808:7884   */\n      jump\n        /* \"Ethereum/Presale.sol\":3061:3398  function status() public view returns(uint256) {\r... */\n    tag_4:\n      callvalue\n      dup1\n      iszero\n      tag_32\n      jumpi\n      0x00\n      dup1\n      revert\n    tag_32:\n      pop\n      tag_28\n      tag_34\n      jump\t// in\n        /* \"Ethereum/Presale.sol\":1550:1574  uint256 public feeAnyone */\n    tag_5:\n      callvalue\n      dup1\n      iszero\n      tag_36\n      jumpi\n      0x00\n      dup1\n      revert\n    tag_36:\n      pop\n      tag_28\n      sload(0x18)\n      dup2\n      jump\n        /* \"Ethereum/Presale.sol\":5637:5758  function transferETH(uint256 amount) external payable {\r... */\n    tag_6:\n      tag_40\n      tag_41\n      calldatasize\n      0x04\n      tag_42\n      jump\t// in\n    tag_41:\n      tag_43\n      jump\t// in\n    tag_40:\n      stop\n        /* \"Ethereum/Presale.sol\":1402:1444  mapping(address => uint256) public userFee */\n    tag_7:\n      callvalue\n      dup1\n      iszero\n      tag_44\n      jumpi\n      0x00\n      dup1\n      revert\n    tag_44:\n      pop\n      tag_28\n      tag_46\n      calldatasize\n      0x04\n      tag_47\n      jump\t// in\n    tag_46:\n      mstore(0x20, 0x03)\n      0x00\n      swap1\n      dup2\n      mstore\n      0x40\n      swap1\n      keccak256\n      sload\n      dup2\n      jump\n        /* \"Ethereum/Presale.sol\":2160:3052  function initialSaleInfor(\r... */\n    tag_8:\n      callvalue\n      dup1\n      iszero\n      tag_50\n      jumpi\n      0x00\n      dup1\n      revert\n    tag_50:\n      pop\n      tag_40\n      tag_52\n      calldatasize\n      0x04\n      tag_53\n      jump\t// in\n    tag_52:\n      tag_54\n      jump\t// in\n        /* \"Utils/Ownable.sol\":1714:1817  function renounceOwnership() public virtual onlyOwner {\r... */\n    tag_9:\n      callvalue\n      dup1\n      iszero\n      tag_55\n      jumpi\n      0x00\n      dup1\n      revert\n    tag_55:\n      pop\n      tag_40\n      tag_57\n      jump\t// in\n        /* \"Ethereum/Presale.sol\":5521:5629  function backToken() external payable {\r... */\n    tag_10:\n      tag_40\n      tag_59\n      jump\t// in\n        /* \"Utils/Ownable.sol\":1063:1150  function owner() public view virtual returns (address) {\r... */\n    tag_11:\n      callvalue\n      dup1\n      iszero\n      tag_60\n      jumpi\n      0x00\n      dup1\n      revert\n    tag_60:\n      pop\n        /* \"Utils/Ownable.sol\":1136:1142  _owner */\n      and(sub(shl(0xa0, 0x01), 0x01), sload(0x01))\n        /* \"Utils/Ownable.sol\":1063:1150  function owner() public view virtual returns (address) {\r... */\n    tag_61:\n      mload(0x40)\n      sub(shl(0xa0, 0x01), 0x01)\n        /* \"#utility.yul\":2872:2904   */\n      swap1\n      swap2\n      and\n        /* \"#utility.yul\":2854:2905   */\n      dup2\n      mstore\n        /* \"#utility.yul\":2842:2844   */\n      0x20\n        /* \"#utility.yul\":2827:2845   */\n      add\n        /* \"Utils/Ownable.sol\":1063:1150  function owner() public view virtual returns (address) {\r... */\n      tag_25\n        /* \"#utility.yul\":2809:2911   */\n      jump\n        /* \"Ethereum/Presale.sol\":1451:1485  PresaleStatus public presaleStatus */\n    tag_12:\n      callvalue\n      dup1\n      iszero\n      tag_65\n      jumpi\n      0x00\n      dup1\n      revert\n    tag_65:\n      pop\n      sload(0x04)\n      sload(0x05)\n      sload(0x06)\n      sload(0x07)\n      sload(0x08)\n      sload(0x09)\n      tag_66\n      swap6\n      swap5\n      swap4\n      swap3\n      swap2\n      swap1\n      dup7\n      jump\n    tag_66:\n      0x40\n      dup1\n      mload\n        /* \"#utility.yul\":8736:8761   */\n      swap7\n      dup8\n      mstore\n        /* \"#utility.yul\":8792:8794   */\n      0x20\n        /* \"#utility.yul\":8777:8795   */\n      dup8\n      add\n        /* \"#utility.yul\":8770:8804   */\n      swap6\n      swap1\n      swap6\n      mstore\n        /* \"#utility.yul\":8820:8838   */\n      swap4\n      dup6\n      add\n        /* \"#utility.yul\":8813:8847   */\n      swap3\n      swap1\n      swap3\n      mstore\n        /* \"#utility.yul\":8878:8880   */\n      0x60\n        /* \"#utility.yul\":8863:8881   */\n      dup5\n      add\n        /* \"#utility.yul\":8856:8890   */\n      mstore\n        /* \"#utility.yul\":8921:8924   */\n      0x80\n        /* \"#utility.yul\":8906:8925   */\n      dup4\n      add\n        /* \"#utility.yul\":8899:8934   */\n      mstore\n        /* \"#utility.yul\":8965:8968   */\n      0xa0\n        /* \"#utility.yul\":8950:8969   */\n      dup3\n      add\n        /* \"#utility.yul\":8943:8978   */\n      mstore\n        /* \"#utility.yul\":8723:8726   */\n      0xc0\n        /* \"#utility.yul\":8708:8727   */\n      add\n        /* \"Ethereum/Presale.sol\":1451:1485  PresaleStatus public presaleStatus */\n      tag_25\n        /* \"#utility.yul\":8690:8984   */\n      jump\n        /* \"Ethereum/Presale.sol\":1525:1543  IERC20 public WETH */\n    tag_13:\n      callvalue\n      dup1\n      iszero\n      tag_70\n      jumpi\n      0x00\n      dup1\n      revert\n    tag_70:\n      pop\n      sload(0x17)\n      tag_61\n      swap1\n      sub(shl(0xa0, 0x01), 0x01)\n      and\n      dup2\n      jump\n        /* \"Ethereum/Presale.sol\":3525:5391  function deposit(uint256 _amount) external payable nonReentrant {\r... */\n    tag_14:\n      tag_40\n      tag_76\n      calldatasize\n      0x04\n      tag_42\n      jump\t// in\n    tag_76:\n      tag_77\n      jump\t// in\n        /* \"Ethereum/Presale.sol\":3407:3517  function checkAdminAddress() public view returns(bool) {\r... */\n    tag_15:\n      callvalue\n      dup1\n      iszero\n      tag_78\n      jumpi\n      0x00\n      dup1\n      revert\n    tag_78:\n      pop\n      tag_79\n      tag_80\n      jump\t// in\n    tag_79:\n      mload(0x40)\n        /* \"#utility.yul\":4554:4568   */\n      swap1\n      iszero\n        /* \"#utility.yul\":4547:4569   */\n      iszero\n        /* \"#utility.yul\":4529:4570   */\n      dup2\n      mstore\n        /* \"#utility.yul\":4517:4519   */\n      0x20\n        /* \"#utility.yul\":4502:4520   */\n      add\n        /* \"Ethereum/Presale.sol\":3407:3517  function checkAdminAddress() public view returns(bool) {\r... */\n      tag_25\n        /* \"#utility.yul\":4484:4576   */\n      jump\n        /* \"Ethereum/Presale.sol\":1349:1395  mapping(address => BuyerInfo) public buyerInfo */\n    tag_16:\n      callvalue\n      dup1\n      iszero\n      tag_83\n      jumpi\n      0x00\n      dup1\n      revert\n    tag_83:\n      pop\n      tag_84\n      tag_85\n      calldatasize\n      0x04\n      tag_47\n      jump\t// in\n    tag_85:\n      0x02\n      0x20\n      dup2\n      swap1\n      mstore\n      0x00\n      swap2\n      dup3\n      mstore\n      0x40\n      swap1\n      swap2\n      keccak256\n      dup1\n      sload\n      0x01\n      dup3\n      add\n      sload\n      swap3\n      dup3\n      add\n      sload\n      0x03\n      dup4\n      add\n      sload\n      0x04\n      swap1\n      swap4\n      add\n      sload\n      swap2\n      swap4\n      swap3\n      swap1\n      swap2\n      0xff\n      dup1\n      dup3\n      and\n      swap2\n      0x0100\n      swap1\n      div\n      and\n      dup7\n      jump\n    tag_84:\n      0x40\n      dup1\n      mload\n        /* \"#utility.yul\":8164:8189   */\n      swap7\n      dup8\n      mstore\n        /* \"#utility.yul\":8220:8222   */\n      0x20\n        /* \"#utility.yul\":8205:8223   */\n      dup8\n      add\n        /* \"#utility.yul\":8198:8232   */\n      swap6\n      swap1\n      swap6\n      mstore\n        /* \"#utility.yul\":8248:8266   */\n      swap4\n      dup6\n      add\n        /* \"#utility.yul\":8241:8275   */\n      swap3\n      swap1\n      swap3\n      mstore\n        /* \"#utility.yul\":8306:8308   */\n      0x60\n        /* \"#utility.yul\":8291:8309   */\n      dup5\n      add\n        /* \"#utility.yul\":8284:8318   */\n      mstore\n        /* \"#utility.yul\":8362:8376   */\n      iszero\n        /* \"#utility.yul\":8355:8377   */\n      iszero\n        /* \"#utility.yul\":8349:8352   */\n      0x80\n        /* \"#utility.yul\":8334:8353   */\n      dup4\n      add\n        /* \"#utility.yul\":8327:8378   */\n      mstore\n        /* \"#utility.yul\":8422:8436   */\n      iszero\n        /* \"#utility.yul\":8415:8437   */\n      iszero\n        /* \"#utility.yul\":8409:8412   */\n      0xa0\n        /* \"#utility.yul\":8394:8413   */\n      dup3\n      add\n        /* \"#utility.yul\":8387:8438   */\n      mstore\n        /* \"#utility.yul\":8151:8154   */\n      0xc0\n        /* \"#utility.yul\":8136:8155   */\n      add\n        /* \"Ethereum/Presale.sol\":1349:1395  mapping(address => BuyerInfo) public buyerInfo */\n      tag_25\n        /* \"#utility.yul\":8118:8444   */\n      jump\n        /* \"Utils/Ownable.sol\":1972:2173  function transferOwnership(address newOwner) public virtual onlyOwner {\r... */\n    tag_17:\n      callvalue\n      dup1\n      iszero\n      tag_89\n      jumpi\n      0x00\n      dup1\n      revert\n    tag_89:\n      pop\n      tag_40\n      tag_91\n      calldatasize\n      0x04\n      tag_47\n      jump\t// in\n    tag_91:\n      tag_92\n      jump\t// in\n        /* \"Ethereum/Presale.sol\":5399:5510  function getBalance(address _address) external view returns(uint256) {\r... */\n    tag_18:\n      callvalue\n      dup1\n      iszero\n      tag_93\n      jumpi\n      0x00\n      dup1\n      revert\n    tag_93:\n      pop\n      tag_28\n      tag_95\n      calldatasize\n      0x04\n      tag_47\n      jump\t// in\n    tag_95:\n      sub(shl(0xa0, 0x01), 0x01)\n        /* \"Ethereum/Presale.sol\":5486:5502  _address.balance */\n      and\n      balance\n      swap1\n        /* \"Ethereum/Presale.sol\":5399:5510  function getBalance(address _address) external view returns(uint256) {\r... */\n      jump\n        /* \"Ethereum/Presale.sol\":3061:3398  function status() public view returns(uint256) {\r... */\n    tag_34:\n        /* \"Ethereum/Presale.sol\":3140:3159  saleInfor.startSale */\n      sload(0x0f)\n        /* \"Ethereum/Presale.sol\":3099:3106  uint256 */\n      0x00\n      swap1\n        /* \"Ethereum/Presale.sol\":3122:3137  block.timestamp */\n      timestamp\n        /* \"Ethereum/Presale.sol\":3122:3159  block.timestamp < saleInfor.startSale */\n      lt\n        /* \"Ethereum/Presale.sol\":3119:3391  if(block.timestamp < saleInfor.startSale) {\r... */\n      iszero\n      tag_100\n      jumpi\n      pop\n        /* \"Ethereum/Presale.sol\":3183:3184  0 */\n      0x00\n      swap1\n        /* \"Ethereum/Presale.sol\":3061:3398  function status() public view returns(uint256) {\r... */\n      jump\t// out\n        /* \"Ethereum/Presale.sol\":3119:3391  if(block.timestamp < saleInfor.startSale) {\r... */\n    tag_100:\n        /* \"Ethereum/Presale.sol\":3250:3267  saleInfor.endSale */\n      sload(0x10)\n        /* \"Ethereum/Presale.sol\":3232:3247  block.timestamp */\n      timestamp\n        /* \"Ethereum/Presale.sol\":3232:3267  block.timestamp > saleInfor.endSale */\n      gt\n        /* \"Ethereum/Presale.sol\":3229:3380  if(block.timestamp > saleInfor.endSale) {\r... */\n      iszero\n      tag_102\n      jumpi\n      pop\n        /* \"Ethereum/Presale.sol\":3295:3296  2 */\n      0x02\n      swap1\n        /* \"Ethereum/Presale.sol\":3061:3398  function status() public view returns(uint256) {\r... */\n      jump\t// out\n        /* \"Ethereum/Presale.sol\":3229:3380  if(block.timestamp > saleInfor.endSale) {\r... */\n    tag_102:\n      pop\n        /* \"Ethereum/Presale.sol\":3353:3354  1 */\n      0x01\n      swap1\n        /* \"Ethereum/Presale.sol\":3061:3398  function status() public view returns(uint256) {\r... */\n      jump\t// out\n        /* \"Ethereum/Presale.sol\":5637:5758  function transferETH(uint256 amount) external payable {\r... */\n    tag_43:\n        /* \"Ethereum/Presale.sol\":5710:5720  msg.sender */\n      caller\n        /* \"Ethereum/Presale.sol\":5702:5750  payable(msg.sender).transfer(msg.value - amount) */\n      0x08fc\n        /* \"Ethereum/Presale.sol\":5731:5749  msg.value - amount */\n      tag_105\n        /* \"Ethereum/Presale.sol\":5743:5749  amount */\n      dup4\n        /* \"Ethereum/Presale.sol\":5731:5740  msg.value */\n      callvalue\n        /* \"Ethereum/Presale.sol\":5731:5749  msg.value - amount */\n      tag_106\n      jump\t// in\n    tag_105:\n        /* \"Ethereum/Presale.sol\":5702:5750  payable(msg.sender).transfer(msg.value - amount) */\n      mload(0x40)\n      dup2\n      iszero\n      swap1\n      swap3\n      mul\n      swap2\n      0x00\n      dup2\n      dup2\n      dup2\n      dup6\n      dup9\n      dup9\n      call\n      swap4\n      pop\n      pop\n      pop\n      pop\n      iszero\n      dup1\n      iszero\n      tag_108\n      jumpi\n      returndatasize\n      0x00\n      dup1\n      returndatacopy\n      revert(0x00, returndatasize)\n    tag_108:\n      pop\n        /* \"Ethereum/Presale.sol\":5637:5758  function transferETH(uint256 amount) external payable {\r... */\n      pop\n      jump\t// out\n        /* \"Ethereum/Presale.sol\":2160:3052  function initialSaleInfor(\r... */\n    tag_54:\n        /* \"Ethereum/Presale.sol\":2341:2350  saleInfor */\n      0x0b\n        /* \"Ethereum/Presale.sol\":2341:2379  saleInfor.presaleOwner = _presaleOwner */\n      dup1\n      sload\n      sub(shl(0xa0, 0x01), 0x01)\n      dup1\n      dup8\n      and\n      not(sub(shl(0xa0, 0x01), 0x01))\n      swap3\n      dup4\n      and\n      or\n      swap1\n      swap3\n      sstore\n        /* \"Ethereum/Presale.sol\":2390:2409  saleInfor.saleToken */\n      0x0c\n        /* \"Ethereum/Presale.sol\":2390:2422  saleInfor.saleToken = _saleToken */\n      dup1\n      sload\n      dup7\n      dup5\n      and\n      swap1\n      dup4\n      and\n      dup2\n      or\n      swap1\n      swap2\n      sstore\n        /* \"Ethereum/Presale.sol\":2433:2452  saleInfor.baseToken */\n      0x0d\n        /* \"Ethereum/Presale.sol\":2433:2465  saleInfor.baseToken = _baseTOken */\n      dup1\n      sload\n      swap4\n      dup7\n      and\n      swap4\n      swap1\n      swap3\n      and\n      swap3\n      swap1\n      swap3\n      or\n      swap1\n      sstore\n        /* \"Ethereum/Presale.sol\":2523:2560  ERC20(saleInfor.saleToken).decimals() */\n      0x40\n      dup1\n      mload\n      shl(0xe0, 0x313ce567)\n      dup2\n      mstore\n      swap1\n      mload\n        /* \"Ethereum/Presale.sol\":2523:2558  ERC20(saleInfor.saleToken).decimals */\n      0x313ce567\n      swap2\n        /* \"Ethereum/Presale.sol\":2523:2560  ERC20(saleInfor.saleToken).decimals() */\n      0x04\n      dup1\n      dup3\n      add\n      swap3\n      0x20\n      swap3\n      swap1\n      swap2\n      swap1\n      dup3\n      swap1\n      sub\n      add\n      dup2\n        /* \"Ethereum/Presale.sol\":2390:2422  saleInfor.saleToken = _saleToken */\n      dup7\n        /* \"Ethereum/Presale.sol\":2523:2560  ERC20(saleInfor.saleToken).decimals() */\n      dup1\n      extcodesize\n      iszero\n      dup1\n      iszero\n      tag_110\n      jumpi\n      0x00\n      dup1\n      revert\n    tag_110:\n      pop\n      gas\n      staticcall\n      iszero\n      dup1\n      iszero\n      tag_112\n      jumpi\n      returndatasize\n      0x00\n      dup1\n      returndatacopy\n      revert(0x00, returndatasize)\n    tag_112:\n      pop\n      pop\n      pop\n      pop\n      mload(0x40)\n      returndatasize\n      not(0x1f)\n      0x1f\n      dup3\n      add\n      and\n      dup3\n      add\n      dup1\n      0x40\n      mstore\n      pop\n      dup2\n      add\n      swap1\n      tag_113\n      swap2\n      swap1\n      tag_114\n      jump\t// in\n    tag_113:\n        /* \"Ethereum/Presale.sol\":2510:2561  10** uint256(ERC20(saleInfor.saleToken).decimals()) */\n      tag_115\n      swap1\n        /* \"Ethereum/Presale.sol\":2510:2512  10 */\n      0x0a\n        /* \"Ethereum/Presale.sol\":2510:2561  10** uint256(ERC20(saleInfor.saleToken).decimals()) */\n      tag_116\n      jump\t// in\n    tag_115:\n        /* \"Ethereum/Presale.sol\":2499:2507  datas[0] */\n      dup2\n      mload\n        /* \"Ethereum/Presale.sol\":2499:2561  datas[0] * 10** uint256(ERC20(saleInfor.saleToken).decimals()) */\n      tag_118\n      swap2\n      swap1\n      tag_119\n      jump\t// in\n    tag_118:\n        /* \"Ethereum/Presale.sol\":2476:2496  saleInfor.tokenPrice */\n      0x0e\n        /* \"Ethereum/Presale.sol\":2476:2561  saleInfor.tokenPrice = datas[0] * 10** uint256(ERC20(saleInfor.saleToken).decimals()) */\n      sstore\n        /* \"Ethereum/Presale.sol\":2594:2602  datas[1] */\n      0x20\n      dup1\n      dup3\n      add\n      mload\n        /* \"Ethereum/Presale.sol\":2572:2591  saleInfor.startSale */\n      0x0f\n        /* \"Ethereum/Presale.sol\":2572:2602  saleInfor.startSale = datas[1] */\n      sstore\n        /* \"Ethereum/Presale.sol\":2633:2641  datas[2] */\n      0x40\n      dup1\n      dup4\n      add\n      mload\n        /* \"Ethereum/Presale.sol\":2613:2630  saleInfor.endSale */\n      0x10\n        /* \"Ethereum/Presale.sol\":2613:2641  saleInfor.endSale = datas[2] */\n      sstore\n        /* \"Ethereum/Presale.sol\":2681:2689  datas[3] */\n      0x60\n      dup4\n      add\n      mload\n        /* \"Ethereum/Presale.sol\":2652:2678  saleInfor.minSpendPerBuyer */\n      0x11\n        /* \"Ethereum/Presale.sol\":2652:2689  saleInfor.minSpendPerBuyer = datas[3] */\n      sstore\n        /* \"Ethereum/Presale.sol\":2759:2778  saleInfor.baseToken */\n      sload(0x0d)\n        /* \"Ethereum/Presale.sol\":2753:2790  ERC20(saleInfor.baseToken).decimals() */\n      dup2\n      mload\n      shl(0xe0, 0x313ce567)\n      dup2\n      mstore\n      swap2\n      mload\n      sub(shl(0xa0, 0x01), 0x01)\n        /* \"Ethereum/Presale.sol\":2759:2778  saleInfor.baseToken */\n      swap1\n      swap2\n      and\n      swap3\n        /* \"Ethereum/Presale.sol\":2753:2788  ERC20(saleInfor.baseToken).decimals */\n      0x313ce567\n      swap3\n        /* \"Ethereum/Presale.sol\":2753:2790  ERC20(saleInfor.baseToken).decimals() */\n      0x04\n      dup1\n      dup3\n      add\n      swap4\n      swap2\n      dup3\n      swap1\n      sub\n      add\n      dup2\n        /* \"Ethereum/Presale.sol\":2759:2778  saleInfor.baseToken */\n      dup7\n        /* \"Ethereum/Presale.sol\":2753:2790  ERC20(saleInfor.baseToken).decimals() */\n      dup1\n      extcodesize\n      iszero\n      dup1\n      iszero\n      tag_123\n      jumpi\n      0x00\n      dup1\n      revert\n    tag_123:\n      pop\n      gas\n      staticcall\n      iszero\n      dup1\n      iszero\n      tag_125\n      jumpi\n      returndatasize\n      0x00\n      dup1\n      returndatacopy\n      revert(0x00, returndatasize)\n    tag_125:\n      pop\n      pop\n      pop\n      pop\n      mload(0x40)\n      returndatasize\n      not(0x1f)\n      0x1f\n      dup3\n      add\n      and\n      dup3\n      add\n      dup1\n      0x40\n      mstore\n      pop\n      dup2\n      add\n      swap1\n      tag_126\n      swap2\n      swap1\n      tag_114\n      jump\t// in\n    tag_126:\n        /* \"Ethereum/Presale.sol\":2740:2791  10** uint256(ERC20(saleInfor.baseToken).decimals()) */\n      tag_127\n      swap1\n        /* \"Ethereum/Presale.sol\":2740:2742  10 */\n      0x0a\n        /* \"Ethereum/Presale.sol\":2740:2791  10** uint256(ERC20(saleInfor.baseToken).decimals()) */\n      tag_116\n      jump\t// in\n    tag_127:\n        /* \"Ethereum/Presale.sol\":2729:2737  datas[4] */\n      0x80\n      dup3\n      add\n      mload\n        /* \"Ethereum/Presale.sol\":2729:2791  datas[4] * 10** uint256(ERC20(saleInfor.baseToken).decimals()) */\n      tag_129\n      swap2\n      swap1\n      tag_119\n      jump\t// in\n    tag_129:\n        /* \"Ethereum/Presale.sol\":2700:2726  saleInfor.maxSpendPerBuyer */\n      0x12\n        /* \"Ethereum/Presale.sol\":2700:2791  saleInfor.maxSpendPerBuyer = datas[4] * 10** uint256(ERC20(saleInfor.baseToken).decimals()) */\n      sstore\n        /* \"Ethereum/Presale.sol\":2824:2832  datas[5] */\n      0xa0\n      dup2\n      add\n      mload\n        /* \"Ethereum/Presale.sol\":2802:2821  saleInfor.refundFee */\n      0x13\n        /* \"Ethereum/Presale.sol\":2802:2832  saleInfor.refundFee = datas[5] */\n      sstore\n        /* \"Ethereum/Presale.sol\":2864:2872  datas[6] */\n      0xc0\n      dup2\n      add\n      mload\n        /* \"Ethereum/Presale.sol\":2843:2861  saleInfor.claimFee */\n      0x14\n        /* \"Ethereum/Presale.sol\":2843:2872  saleInfor.claimFee = datas[6] */\n      sstore\n        /* \"Ethereum/Presale.sol\":2936:2955  saleInfor.baseToken */\n      sload(0x0d)\n        /* \"Ethereum/Presale.sol\":2919:2923  WETH */\n      sload(0x17)\n        /* \"Ethereum/Presale.sol\":2883:2908  saleInfor.saleIsBaseToken */\n      0x15\n        /* \"Ethereum/Presale.sol\":2883:2956  saleInfor.saleIsBaseToken = address(WETH) == address(saleInfor.baseToken) */\n      dup1\n      sload\n      sub(shl(0xa0, 0x01), 0x01)\n        /* \"Ethereum/Presale.sol\":2936:2955  saleInfor.baseToken */\n      swap4\n      dup5\n      and\n        /* \"Ethereum/Presale.sol\":2919:2923  WETH */\n      swap4\n      swap1\n      swap3\n      and\n        /* \"Ethereum/Presale.sol\":2911:2956  address(WETH) == address(saleInfor.baseToken) */\n      swap3\n      swap1\n      swap3\n      eq\n      not(0xff)\n        /* \"Ethereum/Presale.sol\":2883:2956  saleInfor.saleIsBaseToken = address(WETH) == address(saleInfor.baseToken) */\n      swap1\n      swap2\n      and\n      or\n      swap1\n      sstore\n        /* \"Ethereum/Presale.sol\":3023:3043  saleInfor.tokenPrice */\n      sload(0x0e)\n        /* \"Ethereum/Presale.sol\":2998:3044  saleInfor.tokenPrice.mul(saleInfor.tokenPrice) */\n      tag_132\n      swap1\n        /* \"Ethereum/Presale.sol\":3023:3043  saleInfor.tokenPrice */\n      dup1\n        /* \"Ethereum/Presale.sol\":2998:3022  saleInfor.tokenPrice.mul */\n      tag_133\n        /* \"Ethereum/Presale.sol\":2998:3044  saleInfor.tokenPrice.mul(saleInfor.tokenPrice) */\n      jump\t// in\n    tag_132:\n        /* \"Ethereum/Presale.sol\":2967:2995  saleInfor.amountTokenForSale */\n      0x16\n        /* \"Ethereum/Presale.sol\":2967:3044  saleInfor.amountTokenForSale = saleInfor.tokenPrice.mul(saleInfor.tokenPrice) */\n      sstore\n      pop\n      pop\n      pop\n      pop\n        /* \"Ethereum/Presale.sol\":2160:3052  function initialSaleInfor(\r... */\n      jump\t// out\n        /* \"Utils/Ownable.sol\":1714:1817  function renounceOwnership() public virtual onlyOwner {\r... */\n    tag_57:\n        /* \"Utils/Ownable.sol\":1136:1142  _owner */\n      and(sub(shl(0xa0, 0x01), 0x01), sload(0x01))\n        /* \"Utils/Context.sol\":736:746  msg.sender */\n      caller\n        /* \"Utils/Ownable.sol\":1283:1306  owner() == _msgSender() */\n      eq\n        /* \"Utils/Ownable.sol\":1275:1343  require(owner() == _msgSender(), \"Ownable: caller is not the owner\") */\n      tag_138\n      jumpi\n      mload(0x40)\n      shl(0xe5, 0x461bcd)\n      dup2\n      mstore\n        /* \"#utility.yul\":6783:6785   */\n      0x20\n        /* \"Utils/Ownable.sol\":1275:1343  require(owner() == _msgSender(), \"Ownable: caller is not the owner\") */\n      0x04\n      dup3\n      add\n        /* \"#utility.yul\":6765:6786   */\n      dup2\n      swap1\n      mstore\n        /* \"#utility.yul\":6802:6820   */\n      0x24\n      dup3\n      add\n        /* \"#utility.yul\":6795:6825   */\n      mstore\n        /* \"#utility.yul\":6861:6895   */\n      0x4f776e61626c653a2063616c6c6572206973206e6f7420746865206f776e6572\n        /* \"#utility.yul\":6841:6859   */\n      0x44\n      dup3\n      add\n        /* \"#utility.yul\":6834:6896   */\n      mstore\n        /* \"#utility.yul\":6913:6931   */\n      0x64\n      add\n        /* \"Utils/Ownable.sol\":1275:1343  require(owner() == _msgSender(), \"Ownable: caller is not the owner\") */\n    tag_139:\n      mload(0x40)\n      dup1\n      swap2\n      sub\n      swap1\n      revert\n    tag_138:\n        /* \"Utils/Ownable.sol\":1779:1809  _transferOwnership(address(0)) */\n      tag_142\n        /* \"Utils/Ownable.sol\":1806:1807  0 */\n      0x00\n        /* \"Utils/Ownable.sol\":1779:1797  _transferOwnership */\n      tag_143\n        /* \"Utils/Ownable.sol\":1779:1809  _transferOwnership(address(0)) */\n      jump\t// in\n    tag_142:\n        /* \"Utils/Ownable.sol\":1714:1817  function renounceOwnership() public virtual onlyOwner {\r... */\n      jump\t// out\n        /* \"Ethereum/Presale.sol\":5521:5629  function backToken() external payable {\r... */\n    tag_59:\n        /* \"Ethereum/Presale.sol\":5570:5621  payable(msg.sender).transfer(address(this).balance) */\n      mload(0x40)\n        /* \"Ethereum/Presale.sol\":5578:5588  msg.sender */\n      caller\n      swap1\n        /* \"Ethereum/Presale.sol\":5599:5620  address(this).balance */\n      selfbalance\n        /* \"Ethereum/Presale.sol\":5570:5621  payable(msg.sender).transfer(address(this).balance) */\n      dup1\n      iszero\n      0x08fc\n      mul\n      swap2\n      0x00\n      dup2\n      dup2\n      dup2\n        /* \"Ethereum/Presale.sol\":5599:5620  address(this).balance */\n      dup6\n        /* \"Ethereum/Presale.sol\":5578:5588  msg.sender */\n      dup9\n        /* \"Ethereum/Presale.sol\":5570:5621  payable(msg.sender).transfer(address(this).balance) */\n      dup9\n      call\n      swap4\n      pop\n      pop\n      pop\n      pop\n      iszero\n      dup1\n      iszero\n      tag_146\n      jumpi\n      returndatasize\n      0x00\n      dup1\n      returndatacopy\n      revert(0x00, returndatasize)\n    tag_146:\n      pop\n        /* \"Ethereum/Presale.sol\":5521:5629  function backToken() external payable {\r... */\n      jump\t// out\n        /* \"Ethereum/Presale.sol\":3525:5391  function deposit(uint256 _amount) external payable nonReentrant {\r... */\n    tag_77:\n        /* \"Utils/ReentrancyGuard.sol\":1778:1779  2 */\n      0x02\n        /* \"Utils/ReentrancyGuard.sol\":2376:2383  _status */\n      sload(0x00)\n        /* \"Utils/ReentrancyGuard.sol\":2376:2395  _status != _ENTERED */\n      eq\n      iszero\n        /* \"Utils/ReentrancyGuard.sol\":2368:2431  require(_status != _ENTERED, \"ReentrancyGuard: reentrant call\") */\n      tag_149\n      jumpi\n      mload(0x40)\n      shl(0xe5, 0x461bcd)\n      dup2\n      mstore\n        /* \"#utility.yul\":7549:7551   */\n      0x20\n        /* \"Utils/ReentrancyGuard.sol\":2368:2431  require(_status != _ENTERED, \"ReentrancyGuard: reentrant call\") */\n      0x04\n      dup3\n      add\n        /* \"#utility.yul\":7531:7552   */\n      mstore\n        /* \"#utility.yul\":7588:7590   */\n      0x1f\n        /* \"#utility.yul\":7568:7586   */\n      0x24\n      dup3\n      add\n        /* \"#utility.yul\":7561:7591   */\n      mstore\n        /* \"#utility.yul\":7627:7660   */\n      0x5265656e7472616e637947756172643a207265656e7472616e742063616c6c00\n        /* \"#utility.yul\":7607:7625   */\n      0x44\n      dup3\n      add\n        /* \"#utility.yul\":7600:7661   */\n      mstore\n        /* \"#utility.yul\":7678:7696   */\n      0x64\n      add\n        /* \"Utils/ReentrancyGuard.sol\":2368:2431  require(_status != _ENTERED, \"ReentrancyGuard: reentrant call\") */\n      tag_139\n        /* \"#utility.yul\":7521:7702   */\n      jump\n        /* \"Utils/ReentrancyGuard.sol\":2368:2431  require(_status != _ENTERED, \"ReentrancyGuard: reentrant call\") */\n    tag_149:\n        /* \"Utils/ReentrancyGuard.sol\":1778:1779  2 */\n      0x02\n        /* \"Utils/ReentrancyGuard.sol\":2509:2516  _status */\n      0x00\n        /* \"Utils/ReentrancyGuard.sol\":2509:2527  _status = _ENTERED */\n      sstore\n        /* \"Ethereum/Presale.sol\":3608:3616  status() */\n      tag_153\n        /* \"Ethereum/Presale.sol\":3608:3614  status */\n      tag_34\n        /* \"Ethereum/Presale.sol\":3608:3616  status() */\n      jump\t// in\n    tag_153:\n        /* \"Ethereum/Presale.sol\":3620:3621  1 */\n      0x01\n        /* \"Ethereum/Presale.sol\":3608:3621  status() == 1 */\n      eq\n        /* \"Ethereum/Presale.sol\":3600:3636  require(status() == 1, \"Not active\") */\n      tag_154\n      jumpi\n      mload(0x40)\n      shl(0xe5, 0x461bcd)\n      dup2\n      mstore\n        /* \"#utility.yul\":5755:5757   */\n      0x20\n        /* \"Ethereum/Presale.sol\":3600:3636  require(status() == 1, \"Not active\") */\n      0x04\n      dup3\n      add\n        /* \"#utility.yul\":5737:5758   */\n      mstore\n        /* \"#utility.yul\":5794:5796   */\n      0x0a\n        /* \"#utility.yul\":5774:5792   */\n      0x24\n      dup3\n      add\n        /* \"#utility.yul\":5767:5797   */\n      mstore\n      shl(0xb0, 0x4e6f7420616374697665)\n        /* \"#utility.yul\":5813:5831   */\n      0x44\n      dup3\n      add\n        /* \"#utility.yul\":5806:5846   */\n      mstore\n        /* \"#utility.yul\":5863:5881   */\n      0x64\n      add\n        /* \"Ethereum/Presale.sol\":3600:3636  require(status() == 1, \"Not active\") */\n      tag_139\n        /* \"#utility.yul\":5727:5887   */\n      jump\n        /* \"Ethereum/Presale.sol\":3600:3636  require(status() == 1, \"Not active\") */\n    tag_154:\n        /* \"Ethereum/Presale.sol\":3693:3703  msg.sender */\n      caller\n        /* \"Ethereum/Presale.sol\":3657:3680  BuyerInfo storage buyer */\n      0x00\n        /* \"Ethereum/Presale.sol\":3683:3704  buyerInfo[msg.sender] */\n      swap1\n      dup2\n      mstore\n        /* \"Ethereum/Presale.sol\":3683:3692  buyerInfo */\n      0x02\n        /* \"Ethereum/Presale.sol\":3683:3704  buyerInfo[msg.sender] */\n      0x20\n      mstore\n      0x40\n      dup2\n      keccak256\n        /* \"Ethereum/Presale.sol\":3889:3915  saleInfor.minSpendPerBuyer */\n      sload(0x11)\n        /* \"Ethereum/Presale.sol\":3683:3704  buyerInfo[msg.sender] */\n      swap1\n      swap2\n        /* \"Ethereum/Presale.sol\":3735:3742  _amount */\n      dup4\n      swap2\n      dup3\n      swap2\n        /* \"Ethereum/Presale.sol\":3657:3680  BuyerInfo storage buyer */\n      swap1\n        /* \"Ethereum/Presale.sol\":3848:3852  1000 */\n      0x03e8\n      swap1\n        /* \"Ethereum/Presale.sol\":3871:3915  real_amount_in >= saleInfor.minSpendPerBuyer */\n      dup4\n      lt\n      iszero\n        /* \"Ethereum/Presale.sol\":3863:3964  require(real_amount_in >= saleInfor.minSpendPerBuyer, \r... */\n      tag_157\n      jumpi\n      mload(0x40)\n      shl(0xe5, 0x461bcd)\n      dup2\n      mstore\n        /* \"#utility.yul\":6094:6096   */\n      0x20\n        /* \"Ethereum/Presale.sol\":3863:3964  require(real_amount_in >= saleInfor.minSpendPerBuyer, \r... */\n      0x04\n      dup3\n      add\n        /* \"#utility.yul\":6076:6097   */\n      mstore\n        /* \"#utility.yul\":6133:6135   */\n      0x10\n        /* \"#utility.yul\":6113:6131   */\n      0x24\n      dup3\n      add\n        /* \"#utility.yul\":6106:6136   */\n      mstore\n      shl(0x80, 0x4e6f7420656e6f7567682076616c7565)\n        /* \"#utility.yul\":6152:6170   */\n      0x44\n      dup3\n      add\n        /* \"#utility.yul\":6145:6191   */\n      mstore\n        /* \"#utility.yul\":6208:6226   */\n      0x64\n      add\n        /* \"Ethereum/Presale.sol\":3863:3964  require(real_amount_in >= saleInfor.minSpendPerBuyer, \r... */\n      tag_139\n        /* \"#utility.yul\":6066:6232   */\n      jump\n        /* \"Ethereum/Presale.sol\":3863:3964  require(real_amount_in >= saleInfor.minSpendPerBuyer, \r... */\n    tag_157:\n        /* \"Ethereum/Presale.sol\":4001:4027  saleInfor.maxSpendPerBuyer */\n      sload(0x12)\n        /* \"Ethereum/Presale.sol\":3983:4027  real_amount_in <= saleInfor.maxSpendPerBuyer */\n      dup4\n      gt\n      iszero\n        /* \"Ethereum/Presale.sol\":3975:4074  require(real_amount_in <= saleInfor.maxSpendPerBuyer, \r... */\n      tag_160\n      jumpi\n      mload(0x40)\n      shl(0xe5, 0x461bcd)\n      dup2\n      mstore\n        /* \"#utility.yul\":5412:5414   */\n      0x20\n        /* \"Ethereum/Presale.sol\":3975:4074  require(real_amount_in <= saleInfor.maxSpendPerBuyer, \r... */\n      0x04\n      dup3\n      add\n        /* \"#utility.yul\":5394:5415   */\n      mstore\n        /* \"#utility.yul\":5451:5453   */\n      0x0e\n        /* \"#utility.yul\":5431:5449   */\n      0x24\n      dup3\n      add\n        /* \"#utility.yul\":5424:5454   */\n      mstore\n      shl(0x90, 0x4f766572666c6f772076616c7565)\n        /* \"#utility.yul\":5470:5488   */\n      0x44\n      dup3\n      add\n        /* \"#utility.yul\":5463:5507   */\n      mstore\n        /* \"#utility.yul\":5524:5542   */\n      0x64\n      add\n        /* \"Ethereum/Presale.sol\":3975:4074  require(real_amount_in <= saleInfor.maxSpendPerBuyer, \r... */\n      tag_139\n        /* \"#utility.yul\":5384:5548   */\n      jump\n        /* \"Ethereum/Presale.sol\":3975:4074  require(real_amount_in <= saleInfor.maxSpendPerBuyer, \r... */\n    tag_160:\n        /* \"Ethereum/Presale.sol\":4089:4108  checkAdminAddress() */\n      tag_163\n        /* \"Ethereum/Presale.sol\":4089:4106  checkAdminAddress */\n      tag_80\n        /* \"Ethereum/Presale.sol\":4089:4108  checkAdminAddress() */\n      jump\t// in\n    tag_163:\n        /* \"Ethereum/Presale.sol\":4085:4351  if(!checkAdminAddress()) {\r... */\n      tag_164\n      jumpi\n        /* \"Ethereum/Presale.sol\":4142:4275  ((fullPercenFee.sub(feeAnyone))\r... */\n      tag_165\n        /* \"Ethereum/Presale.sol\":4261:4274  fullPercenFee */\n      dup2\n        /* \"Ethereum/Presale.sol\":4143:4224  (fullPercenFee.sub(feeAnyone))\r... */\n      tag_166\n        /* \"Ethereum/Presale.sol\":4209:4223  real_amount_in */\n      dup6\n        /* \"Ethereum/Presale.sol\":4144:4172  fullPercenFee.sub(feeAnyone) */\n      tag_167\n        /* \"Ethereum/Presale.sol\":4162:4171  feeAnyone */\n      sload(0x18)\n        /* \"Ethereum/Presale.sol\":4144:4157  fullPercenFee */\n      dup7\n        /* \"Ethereum/Presale.sol\":4144:4161  fullPercenFee.sub */\n      tag_168\n      swap1\n        /* \"Ethereum/Presale.sol\":4144:4172  fullPercenFee.sub(feeAnyone) */\n      swap2\n      swap1\n      0xffffffff\n      and\n      jump\t// in\n    tag_167:\n        /* \"Ethereum/Presale.sol\":4143:4208  (fullPercenFee.sub(feeAnyone))\r... */\n      swap1\n      tag_133\n        /* \"Ethereum/Presale.sol\":4143:4224  (fullPercenFee.sub(feeAnyone))\r... */\n      jump\t// in\n    tag_166:\n        /* \"Ethereum/Presale.sol\":4142:4260  ((fullPercenFee.sub(feeAnyone))\r... */\n      swap1\n      tag_169\n        /* \"Ethereum/Presale.sol\":4142:4275  ((fullPercenFee.sub(feeAnyone))\r... */\n      jump\t// in\n    tag_165:\n        /* \"Ethereum/Presale.sol\":4125:4275  real_amount_in = ((fullPercenFee.sub(feeAnyone))\r... */\n      swap3\n      pop\n        /* \"Ethereum/Presale.sol\":4296:4322  amount_in - real_amount_in */\n      tag_170\n        /* \"Ethereum/Presale.sol\":4125:4275  real_amount_in = ((fullPercenFee.sub(feeAnyone))\r... */\n      dup4\n        /* \"Ethereum/Presale.sol\":4296:4305  amount_in */\n      dup6\n        /* \"Ethereum/Presale.sol\":4296:4322  amount_in - real_amount_in */\n      tag_106\n      jump\t// in\n    tag_170:\n        /* \"Ethereum/Presale.sol\":4290:4322  fee = amount_in - real_amount_in */\n      swap2\n      pop\n        /* \"Ethereum/Presale.sol\":4085:4351  if(!checkAdminAddress()) {\r... */\n    tag_164:\n        /* \"Ethereum/Presale.sol\":4410:4423  presaleStatus */\n      0x04\n        /* \"Ethereum/Presale.sol\":4410:4442  presaleStatus.totalBaseCollected */\n      sload\n        /* \"Ethereum/Presale.sol\":4381:4407  saleInfor.maxSpendPerBuyer */\n      sload(0x12)\n        /* \"Ethereum/Presale.sol\":4361:4378  uint256 remaining */\n      0x00\n      swap2\n        /* \"Ethereum/Presale.sol\":4381:4442  saleInfor.maxSpendPerBuyer - presaleStatus.totalBaseCollected */\n      tag_171\n      swap2\n      tag_106\n      jump\t// in\n    tag_171:\n        /* \"Ethereum/Presale.sol\":4361:4442  uint256 remaining = saleInfor.maxSpendPerBuyer - presaleStatus.totalBaseCollected */\n      swap1\n      pop\n        /* \"Ethereum/Presale.sol\":4473:4474  0 */\n      0x00\n        /* \"Ethereum/Presale.sol\":4461:4470  remaining */\n      dup2\n        /* \"Ethereum/Presale.sol\":4461:4474  remaining > 0 */\n      gt\n        /* \"Ethereum/Presale.sol\":4453:4494  require(remaining > 0, \"Sale is Success\") */\n      tag_172\n      jumpi\n      mload(0x40)\n      shl(0xe5, 0x461bcd)\n      dup2\n      mstore\n        /* \"#utility.yul\":6439:6441   */\n      0x20\n        /* \"Ethereum/Presale.sol\":4453:4494  require(remaining > 0, \"Sale is Success\") */\n      0x04\n      dup3\n      add\n        /* \"#utility.yul\":6421:6442   */\n      mstore\n        /* \"#utility.yul\":6478:6480   */\n      0x0f\n        /* \"#utility.yul\":6458:6476   */\n      0x24\n      dup3\n      add\n        /* \"#utility.yul\":6451:6481   */\n      mstore\n      shl(0x88, 0x53616c652069732053756363657373)\n        /* \"#utility.yul\":6497:6515   */\n      0x44\n      dup3\n      add\n        /* \"#utility.yul\":6490:6535   */\n      mstore\n        /* \"#utility.yul\":6552:6570   */\n      0x64\n      add\n        /* \"Ethereum/Presale.sol\":4453:4494  require(remaining > 0, \"Sale is Success\") */\n      tag_139\n        /* \"#utility.yul\":6411:6576   */\n      jump\n        /* \"Ethereum/Presale.sol\":4453:4494  require(remaining > 0, \"Sale is Success\") */\n    tag_172:\n        /* \"Ethereum/Presale.sol\":4505:4522  uint256 tokenSold */\n      0x00\n        /* \"Ethereum/Presale.sol\":4526:4684  real_amount_in.\r... */\n      tag_175\n        /* \"Ethereum/Presale.sol\":4651:4660  saleInfor */\n      0x0b\n        /* \"Ethereum/Presale.sol\":4651:4670  saleInfor.baseToken */\n      0x02\n      add\n      0x00\n      swap1\n      sload\n      swap1\n      0x0100\n      exp\n      swap1\n      div\n      sub(shl(0xa0, 0x01), 0x01)\n      and\n      sub(shl(0xa0, 0x01), 0x01)\n        /* \"Ethereum/Presale.sol\":4645:4680  ERC20(saleInfor.baseToken).decimals */\n      and\n      0x313ce567\n        /* \"Ethereum/Presale.sol\":4645:4682  ERC20(saleInfor.baseToken).decimals() */\n      mload(0x40)\n      dup2\n      0xffffffff\n      and\n      0xe0\n      shl\n      dup2\n      mstore\n      0x04\n      add\n      0x20\n      mload(0x40)\n      dup1\n      dup4\n      sub\n      dup2\n      dup7\n      dup1\n      extcodesize\n      iszero\n      dup1\n      iszero\n      tag_176\n      jumpi\n      0x00\n      dup1\n      revert\n    tag_176:\n      pop\n      gas\n      staticcall\n      iszero\n      dup1\n      iszero\n      tag_178\n      jumpi\n      returndatasize\n      0x00\n      dup1\n      returndatacopy\n      revert(0x00, returndatasize)\n    tag_178:\n      pop\n      pop\n      pop\n      pop\n      mload(0x40)\n      returndatasize\n      not(0x1f)\n      0x1f\n      dup3\n      add\n      and\n      dup3\n      add\n      dup1\n      0x40\n      mstore\n      pop\n      dup2\n      add\n      swap1\n      tag_179\n      swap2\n      swap1\n      tag_114\n      jump\t// in\n    tag_179:\n        /* \"Ethereum/Presale.sol\":4631:4683  10 ** uint256(ERC20(saleInfor.baseToken).decimals()) */\n      tag_180\n      swap1\n        /* \"Ethereum/Presale.sol\":4631:4633  10 */\n      0x0a\n        /* \"Ethereum/Presale.sol\":4631:4683  10 ** uint256(ERC20(saleInfor.baseToken).decimals()) */\n      tag_116\n      jump\t// in\n    tag_180:\n        /* \"Ethereum/Presale.sol\":4575:4595  saleInfor.tokenPrice */\n      sload(0x0e)\n        /* \"Ethereum/Presale.sol\":4526:4596  real_amount_in.\r... */\n      tag_166\n      swap1\n        /* \"Ethereum/Presale.sol\":4526:4540  real_amount_in */\n      dup9\n      swap1\n        /* \"Ethereum/Presale.sol\":4526:4574  real_amount_in.\r... */\n      tag_133\n        /* \"Ethereum/Presale.sol\":4526:4596  real_amount_in.\r... */\n      jump\t// in\n        /* \"Ethereum/Presale.sol\":4526:4684  real_amount_in.\r... */\n    tag_175:\n        /* \"Ethereum/Presale.sol\":4505:4685  uint256 tokenSold = (real_amount_in.\r... */\n      swap1\n      pop\n        /* \"Ethereum/Presale.sol\":4717:4726  amount_in */\n      dup6\n        /* \"Ethereum/Presale.sol\":4696:4701  buyer */\n      dup8\n        /* \"Ethereum/Presale.sol\":4696:4713  buyer.baseDeposit */\n      0x00\n      add\n      0x00\n        /* \"Ethereum/Presale.sol\":4696:4726  buyer.baseDeposit += amount_in */\n      dup3\n      dup3\n      sload\n      tag_182\n      swap2\n      swap1\n      tag_183\n      jump\t// in\n    tag_182:\n      swap3\n      pop\n      pop\n      dup2\n      swap1\n      sstore\n      pop\n        /* \"Ethereum/Presale.sol\":4757:4766  tokenSold */\n      dup1\n        /* \"Ethereum/Presale.sol\":4737:4742  buyer */\n      dup8\n        /* \"Ethereum/Presale.sol\":4737:4753  buyer.tokenOwner */\n      0x01\n      add\n      0x00\n        /* \"Ethereum/Presale.sol\":4737:4766  buyer.tokenOwner += tokenSold */\n      dup3\n      dup3\n      sload\n      tag_184\n      swap2\n      swap1\n      tag_183\n      jump\t// in\n    tag_184:\n      swap1\n      swap2\n      sstore\n      pop\n      pop\n        /* \"Ethereum/Presale.sol\":4777:4790  presaleStatus */\n      0x04\n        /* \"Ethereum/Presale.sol\":4777:4827  presaleStatus.totalBaseCollected += real_amount_in */\n      dup1\n      sload\n        /* \"Ethereum/Presale.sol\":4813:4827  real_amount_in */\n      dup7\n      swap2\n        /* \"Ethereum/Presale.sol\":4777:4790  presaleStatus */\n      swap1\n        /* \"Ethereum/Presale.sol\":4777:4809  presaleStatus.totalBaseCollected */\n      0x00\n      swap1\n        /* \"Ethereum/Presale.sol\":4777:4827  presaleStatus.totalBaseCollected += real_amount_in */\n      tag_185\n      swap1\n        /* \"Ethereum/Presale.sol\":4813:4827  real_amount_in */\n      dup5\n      swap1\n        /* \"Ethereum/Presale.sol\":4777:4827  presaleStatus.totalBaseCollected += real_amount_in */\n      tag_183\n      jump\t// in\n    tag_185:\n      swap1\n      swap2\n      sstore\n      pop\n      pop\n        /* \"Ethereum/Presale.sol\":4838:4866  presaleStatus.totalTokenSold */\n      0x05\n        /* \"Ethereum/Presale.sol\":4838:4879  presaleStatus.totalTokenSold += tokenSold */\n      dup1\n      sload\n        /* \"Ethereum/Presale.sol\":4870:4879  tokenSold */\n      dup3\n      swap2\n        /* \"Ethereum/Presale.sol\":4838:4866  presaleStatus.totalTokenSold */\n      swap1\n      0x00\n      swap1\n        /* \"Ethereum/Presale.sol\":4838:4879  presaleStatus.totalTokenSold += tokenSold */\n      tag_186\n      swap1\n        /* \"Ethereum/Presale.sol\":4870:4879  tokenSold */\n      dup5\n      swap1\n        /* \"Ethereum/Presale.sol\":4838:4879  presaleStatus.totalTokenSold += tokenSold */\n      tag_183\n      jump\t// in\n    tag_186:\n      swap1\n      swap2\n      sstore\n      pop\n      pop\n        /* \"Ethereum/Presale.sol\":4898:4908  msg.sender */\n      caller\n        /* \"Ethereum/Presale.sol\":4890:4909  userFee[msg.sender] */\n      0x00\n      swap1\n      dup2\n      mstore\n        /* \"Ethereum/Presale.sol\":4890:4897  userFee */\n      0x03\n        /* \"Ethereum/Presale.sol\":4890:4909  userFee[msg.sender] */\n      0x20\n      mstore\n      0x40\n      dup2\n      keccak256\n        /* \"Ethereum/Presale.sol\":4890:4916  userFee[msg.sender] += fee */\n      dup1\n      sload\n        /* \"Ethereum/Presale.sol\":4913:4916  fee */\n      dup7\n      swap3\n        /* \"Ethereum/Presale.sol\":4890:4909  userFee[msg.sender] */\n      swap1\n        /* \"Ethereum/Presale.sol\":4890:4916  userFee[msg.sender] += fee */\n      tag_187\n      swap1\n        /* \"Ethereum/Presale.sol\":4913:4916  fee */\n      dup5\n      swap1\n        /* \"Ethereum/Presale.sol\":4890:4916  userFee[msg.sender] += fee */\n      tag_183\n      jump\t// in\n    tag_187:\n      swap3\n      pop\n      pop\n      dup2\n      swap1\n      sstore\n      pop\n        /* \"Ethereum/Presale.sol\":4939:4942  fee */\n      dup4\n        /* \"Ethereum/Presale.sol\":4927:4935  totalFee */\n      0x1b\n      0x00\n        /* \"Ethereum/Presale.sol\":4927:4942  totalFee += fee */\n      dup3\n      dup3\n      sload\n      tag_188\n      swap2\n      swap1\n      tag_183\n      jump\t// in\n    tag_188:\n      swap1\n      swap2\n      sstore\n      pop\n      pop\n        /* \"Ethereum/Presale.sol\":4958:4983  saleInfor.saleIsBaseToken */\n      and(0xff, sload(0x15))\n        /* \"Ethereum/Presale.sol\":4958:5019  saleInfor.saleIsBaseToken && real_amount_in + fee < msg.value */\n      dup1\n      iszero\n      tag_189\n      jumpi\n      pop\n        /* \"Ethereum/Presale.sol\":5010:5019  msg.value */\n      callvalue\n        /* \"Ethereum/Presale.sol\":4987:5007  real_amount_in + fee */\n      tag_190\n        /* \"Ethereum/Presale.sol\":5004:5007  fee */\n      dup6\n        /* \"Ethereum/Presale.sol\":4987:5001  real_amount_in */\n      dup8\n        /* \"Ethereum/Presale.sol\":4987:5007  real_amount_in + fee */\n      tag_183\n      jump\t// in\n    tag_190:\n        /* \"Ethereum/Presale.sol\":4987:5019  real_amount_in + fee < msg.value */\n      lt\n        /* \"Ethereum/Presale.sol\":4958:5019  saleInfor.saleIsBaseToken && real_amount_in + fee < msg.value */\n    tag_189:\n        /* \"Ethereum/Presale.sol\":4955:5110  if(saleInfor.saleIsBaseToken && real_amount_in + fee < msg.value) {\r... */\n      iszero\n      tag_191\n      jumpi\n        /* \"Ethereum/Presale.sol\":5044:5054  msg.sender */\n      caller\n        /* \"Ethereum/Presale.sol\":5036:5098  payable(msg.sender).transfer(msg.value - real_amount_in - fee) */\n      0x08fc\n        /* \"Ethereum/Presale.sol\":5094:5097  fee */\n      dup6\n        /* \"Ethereum/Presale.sol\":5065:5091  msg.value - real_amount_in */\n      tag_192\n        /* \"Ethereum/Presale.sol\":5077:5091  real_amount_in */\n      dup9\n        /* \"Ethereum/Presale.sol\":5065:5074  msg.value */\n      callvalue\n        /* \"Ethereum/Presale.sol\":5065:5091  msg.value - real_amount_in */\n      tag_106\n      jump\t// in\n    tag_192:\n        /* \"Ethereum/Presale.sol\":5065:5097  msg.value - real_amount_in - fee */\n      tag_193\n      swap2\n      swap1\n      tag_106\n      jump\t// in\n    tag_193:\n        /* \"Ethereum/Presale.sol\":5036:5098  payable(msg.sender).transfer(msg.value - real_amount_in - fee) */\n      mload(0x40)\n      dup2\n      iszero\n      swap1\n      swap3\n      mul\n      swap2\n      0x00\n      dup2\n      dup2\n      dup2\n      dup6\n      dup9\n      dup9\n      call\n      swap4\n      pop\n      pop\n      pop\n      pop\n      iszero\n      dup1\n      iszero\n      tag_195\n      jumpi\n      returndatasize\n      0x00\n      dup1\n      returndatacopy\n      revert(0x00, returndatasize)\n    tag_195:\n      pop\n        /* \"Ethereum/Presale.sol\":4955:5110  if(saleInfor.saleIsBaseToken && real_amount_in + fee < msg.value) {\r... */\n    tag_191:\n        /* \"Ethereum/Presale.sol\":5125:5150  saleInfor.saleIsBaseToken */\n      and(0xff, sload(0x15))\n        /* \"Ethereum/Presale.sol\":5121:5372  if(!saleInfor.saleIsBaseToken) {\r... */\n      tag_197\n      jumpi\n        /* \"Ethereum/Presale.sol\":5225:5244  saleInfor.baseToken */\n      sload(0x0d)\n        /* \"Ethereum/Presale.sol\":5167:5360  TransferHelper.safeTransferFrom(\r... */\n      tag_197\n      swap1\n      sub(shl(0xa0, 0x01), 0x01)\n        /* \"Ethereum/Presale.sol\":5225:5244  saleInfor.baseToken */\n      and\n        /* \"Ethereum/Presale.sol\":5264:5274  msg.sender */\n      caller\n        /* \"Ethereum/Presale.sol\":5301:5305  this */\n      address\n        /* \"Ethereum/Presale.sol\":5325:5345  real_amount_in + fee */\n      tag_198\n        /* \"Ethereum/Presale.sol\":5342:5345  fee */\n      dup9\n        /* \"Ethereum/Presale.sol\":5325:5339  real_amount_in */\n      dup11\n        /* \"Ethereum/Presale.sol\":5325:5345  real_amount_in + fee */\n      tag_183\n      jump\t// in\n    tag_198:\n        /* \"Ethereum/Presale.sol\":5167:5198  TransferHelper.safeTransferFrom */\n      tag_199\n        /* \"Ethereum/Presale.sol\":5167:5360  TransferHelper.safeTransferFrom(\r... */\n      jump\t// in\n    tag_197:\n      pop\n      pop\n        /* \"Utils/ReentrancyGuard.sol\":1734:1735  1 */\n      0x01\n        /* \"Utils/ReentrancyGuard.sol\":2688:2695  _status */\n      0x00\n        /* \"Utils/ReentrancyGuard.sol\":2688:2710  _status = _NOT_ENTERED */\n      sstore\n      pop\n      pop\n      pop\n      pop\n      pop\n      pop\n        /* \"Ethereum/Presale.sol\":3525:5391  function deposit(uint256 _amount) external payable nonReentrant {\r... */\n      jump\t// out\n        /* \"Ethereum/Presale.sol\":3407:3517  function checkAdminAddress() public view returns(bool) {\r... */\n    tag_80:\n        /* \"Ethereum/Presale.sol\":3456:3460  bool */\n      0x00\n        /* \"Ethereum/Presale.sol\":3480:3509  admins.contains(_msgSender()) */\n      tag_201\n        /* \"Ethereum/Presale.sol\":3480:3486  admins */\n      0x19\n        /* \"Utils/Context.sol\":736:746  msg.sender */\n      caller\n        /* \"Ethereum/Presale.sol\":3480:3495  admins.contains */\n      tag_203\n        /* \"Ethereum/Presale.sol\":3480:3509  admins.contains(_msgSender()) */\n      jump\t// in\n    tag_201:\n        /* \"Ethereum/Presale.sol\":3473:3509  return admins.contains(_msgSender()) */\n      swap1\n      pop\n        /* \"Ethereum/Presale.sol\":3407:3517  function checkAdminAddress() public view returns(bool) {\r... */\n      swap1\n      jump\t// out\n        /* \"Utils/Ownable.sol\":1972:2173  function transferOwnership(address newOwner) public virtual onlyOwner {\r... */\n    tag_92:\n        /* \"Utils/Ownable.sol\":1136:1142  _owner */\n      and(sub(shl(0xa0, 0x01), 0x01), sload(0x01))\n        /* \"Utils/Context.sol\":736:746  msg.sender */\n      caller\n        /* \"Utils/Ownable.sol\":1283:1306  owner() == _msgSender() */\n      eq\n        /* \"Utils/Ownable.sol\":1275:1343  require(owner() == _msgSender(), \"Ownable: caller is not the owner\") */\n      tag_207\n      jumpi\n      mload(0x40)\n      shl(0xe5, 0x461bcd)\n      dup2\n      mstore\n        /* \"#utility.yul\":6783:6785   */\n      0x20\n        /* \"Utils/Ownable.sol\":1275:1343  require(owner() == _msgSender(), \"Ownable: caller is not the owner\") */\n      0x04\n      dup3\n      add\n        /* \"#utility.yul\":6765:6786   */\n      dup2\n      swap1\n      mstore\n        /* \"#utility.yul\":6802:6820   */\n      0x24\n      dup3\n      add\n        /* \"#utility.yul\":6795:6825   */\n      mstore\n        /* \"#utility.yul\":6861:6895   */\n      0x4f776e61626c653a2063616c6c6572206973206e6f7420746865206f776e6572\n        /* \"#utility.yul\":6841:6859   */\n      0x44\n      dup3\n      add\n        /* \"#utility.yul\":6834:6896   */\n      mstore\n        /* \"#utility.yul\":6913:6931   */\n      0x64\n      add\n        /* \"Utils/Ownable.sol\":1275:1343  require(owner() == _msgSender(), \"Ownable: caller is not the owner\") */\n      tag_139\n        /* \"#utility.yul\":6755:6937   */\n      jump\n        /* \"Utils/Ownable.sol\":1275:1343  require(owner() == _msgSender(), \"Ownable: caller is not the owner\") */\n    tag_207:\n      sub(shl(0xa0, 0x01), 0x01)\n        /* \"Utils/Ownable.sol\":2061:2083  newOwner != address(0) */\n      dup2\n      and\n        /* \"Utils/Ownable.sol\":2053:2126  require(newOwner != address(0), \"Ownable: new owner is the zero address\") */\n      tag_210\n      jumpi\n      mload(0x40)\n      shl(0xe5, 0x461bcd)\n      dup2\n      mstore\n        /* \"#utility.yul\":5005:5007   */\n      0x20\n        /* \"Utils/Ownable.sol\":2053:2126  require(newOwner != address(0), \"Ownable: new owner is the zero address\") */\n      0x04\n      dup3\n      add\n        /* \"#utility.yul\":4987:5008   */\n      mstore\n        /* \"#utility.yul\":5044:5046   */\n      0x26\n        /* \"#utility.yul\":5024:5042   */\n      0x24\n      dup3\n      add\n        /* \"#utility.yul\":5017:5047   */\n      mstore\n        /* \"#utility.yul\":5083:5117   */\n      0x4f776e61626c653a206e6577206f776e657220697320746865207a65726f2061\n        /* \"#utility.yul\":5063:5081   */\n      0x44\n      dup3\n      add\n        /* \"#utility.yul\":5056:5118   */\n      mstore\n      shl(0xd0, 0x646472657373)\n        /* \"#utility.yul\":5134:5152   */\n      0x64\n      dup3\n      add\n        /* \"#utility.yul\":5127:5163   */\n      mstore\n        /* \"#utility.yul\":5180:5199   */\n      0x84\n      add\n        /* \"Utils/Ownable.sol\":2053:2126  require(newOwner != address(0), \"Ownable: new owner is the zero address\") */\n      tag_139\n        /* \"#utility.yul\":4977:5205   */\n      jump\n        /* \"Utils/Ownable.sol\":2053:2126  require(newOwner != address(0), \"Ownable: new owner is the zero address\") */\n    tag_210:\n        /* \"Utils/Ownable.sol\":2137:2165  _transferOwnership(newOwner) */\n      tag_146\n        /* \"Utils/Ownable.sol\":2156:2164  newOwner */\n      dup2\n        /* \"Utils/Ownable.sol\":2137:2155  _transferOwnership */\n      tag_143\n        /* \"Utils/Ownable.sol\":2137:2165  _transferOwnership(newOwner) */\n      jump\t// in\n        /* \"Utils/EnumerableSet.sol\":8259:8411  function add(AddressSet storage set, address value) internal returns (bool) {\r... */\n    tag_98:\n        /* \"Utils/EnumerableSet.sol\":8329:8333  bool */\n      0x00\n        /* \"Utils/EnumerableSet.sol\":8353:8403  _add(set._inner, bytes32(uint256(uint160(value)))) */\n      tag_216\n        /* \"Utils/EnumerableSet.sol\":8358:8361  set */\n      dup4\n      sub(shl(0xa0, 0x01), 0x01)\n        /* \"Utils/EnumerableSet.sol\":8378:8401  uint256(uint160(value)) */\n      dup5\n      and\n        /* \"Utils/EnumerableSet.sol\":8353:8357  _add */\n      tag_217\n        /* \"Utils/EnumerableSet.sol\":8353:8403  _add(set._inner, bytes32(uint256(uint160(value)))) */\n      jump\t// in\n    tag_216:\n        /* \"Utils/EnumerableSet.sol\":8346:8403  return _add(set._inner, bytes32(uint256(uint160(value)))) */\n      swap1\n      pop\n        /* \"Utils/EnumerableSet.sol\":8259:8411  function add(AddressSet storage set, address value) internal returns (bool) {\r... */\n    tag_215:\n      swap3\n      swap2\n      pop\n      pop\n      jump\t// out\n        /* \"Utils/SafeMath.sol\":3585:3683  function mul(uint256 a, uint256 b) internal pure returns (uint256) {\r... */\n    tag_133:\n        /* \"Utils/SafeMath.sol\":3643:3650  uint256 */\n      0x00\n        /* \"Utils/SafeMath.sol\":3670:3675  a * b */\n      tag_216\n        /* \"Utils/SafeMath.sol\":3674:3675  b */\n      dup3\n        /* \"Utils/SafeMath.sol\":3670:3671  a */\n      dup5\n        /* \"Utils/SafeMath.sol\":3670:3675  a * b */\n      tag_119\n      jump\t// in\n        /* \"Utils/Ownable.sol\":2333:2524  function _transferOwnership(address newOwner) internal virtual {\r... */\n    tag_143:\n        /* \"Utils/Ownable.sol\":2426:2432  _owner */\n      0x01\n      dup1\n      sload\n      sub(shl(0xa0, 0x01), 0x01)\n        /* \"Utils/Ownable.sol\":2443:2460  _owner = newOwner */\n      dup4\n      dup2\n      and\n      not(sub(shl(0xa0, 0x01), 0x01))\n      dup4\n      and\n      dup2\n      or\n      swap1\n      swap4\n      sstore\n        /* \"Utils/Ownable.sol\":2476:2516  OwnershipTransferred(oldOwner, newOwner) */\n      mload(0x40)\n        /* \"Utils/Ownable.sol\":2426:2432  _owner */\n      swap2\n      and\n      swap2\n        /* \"Utils/Ownable.sol\":2443:2460  _owner = newOwner */\n      swap1\n        /* \"Utils/Ownable.sol\":2426:2432  _owner */\n      dup3\n      swap1\n        /* \"Utils/Ownable.sol\":2476:2516  OwnershipTransferred(oldOwner, newOwner) */\n      0x8be0079c531659141344cd1fd0a4f28419497f9722a3daafe3b4186f6b6457e0\n      swap1\n        /* \"Utils/Ownable.sol\":2407:2423  address oldOwner */\n      0x00\n      swap1\n        /* \"Utils/Ownable.sol\":2476:2516  OwnershipTransferred(oldOwner, newOwner) */\n      log3\n        /* \"Utils/Ownable.sol\":2333:2524  function _transferOwnership(address newOwner) internal virtual {\r... */\n      pop\n      pop\n      jump\t// out\n        /* \"Utils/SafeMath.sol\":3228:3326  function sub(uint256 a, uint256 b) internal pure returns (uint256) {\r... */\n    tag_168:\n        /* \"Utils/SafeMath.sol\":3286:3293  uint256 */\n      0x00\n        /* \"Utils/SafeMath.sol\":3313:3318  a - b */\n      tag_216\n        /* \"Utils/SafeMath.sol\":3317:3318  b */\n      dup3\n        /* \"Utils/SafeMath.sol\":3313:3314  a */\n      dup5\n        /* \"Utils/SafeMath.sol\":3313:3318  a - b */\n      tag_106\n      jump\t// in\n        /* \"Utils/SafeMath.sol\":3984:4082  function div(uint256 a, uint256 b) internal pure returns (uint256) {\r... */\n    tag_169:\n        /* \"Utils/SafeMath.sol\":4042:4049  uint256 */\n      0x00\n        /* \"Utils/SafeMath.sol\":4069:4074  a / b */\n      tag_216\n        /* \"Utils/SafeMath.sol\":4073:4074  b */\n      dup3\n        /* \"Utils/SafeMath.sol\":4069:4070  a */\n      dup5\n        /* \"Utils/SafeMath.sol\":4069:4074  a / b */\n      tag_226\n      jump\t// in\n        /* \"Utils/TransferHelper.sol\":1112:1542  function safeTransferFrom(\r... */\n    tag_199:\n        /* \"Utils/TransferHelper.sol\":1318:1369  abi.encodeWithSelector(0x23b872dd, from, to, value) */\n      0x40\n      dup1\n      mload\n      sub(shl(0xa0, 0x01), 0x01)\n        /* \"#utility.yul\":4267:4282   */\n      dup6\n      dup2\n      and\n        /* \"Utils/TransferHelper.sol\":1318:1369  abi.encodeWithSelector(0x23b872dd, from, to, value) */\n      0x24\n      dup4\n      add\n        /* \"#utility.yul\":4249:4283   */\n      mstore\n        /* \"#utility.yul\":4319:4334   */\n      dup5\n      dup2\n      and\n        /* \"#utility.yul\":4299:4317   */\n      0x44\n      dup4\n      add\n        /* \"#utility.yul\":4292:4335   */\n      mstore\n        /* \"#utility.yul\":4351:4369   */\n      0x64\n      dup1\n      dup4\n      add\n        /* \"#utility.yul\":4344:4378   */\n      dup6\n      swap1\n      mstore\n        /* \"Utils/TransferHelper.sol\":1318:1369  abi.encodeWithSelector(0x23b872dd, from, to, value) */\n      dup4\n      mload\n      dup1\n      dup5\n      sub\n      swap1\n      swap2\n      add\n      dup2\n      mstore\n        /* \"#utility.yul\":4184:4202   */\n      0x84\n      swap1\n      swap3\n      add\n        /* \"Utils/TransferHelper.sol\":1318:1369  abi.encodeWithSelector(0x23b872dd, from, to, value) */\n      dup4\n      mstore\n      0x20\n      dup3\n      add\n      dup1\n      mload\n      sub(shl(0xe0, 0x01), 0x01)\n      and\n      shl(0xe0, 0x23b872dd)\n      or\n      swap1\n      mstore\n        /* \"Utils/TransferHelper.sol\":1293:1380  token.call(\r... */\n      swap2\n      mload\n      0x00\n      swap3\n      dup4\n      swap3\n        /* \"Utils/TransferHelper.sol\":1293:1303  token.call */\n      swap1\n      dup9\n      and\n      swap2\n        /* \"Utils/TransferHelper.sol\":1293:1380  token.call(\r... */\n      tag_230\n      swap2\n        /* \"Utils/TransferHelper.sol\":1318:1369  abi.encodeWithSelector(0x23b872dd, from, to, value) */\n      swap1\n        /* \"Utils/TransferHelper.sol\":1293:1380  token.call(\r... */\n      tag_231\n      jump\t// in\n    tag_230:\n      0x00\n      mload(0x40)\n      dup1\n      dup4\n      sub\n      dup2\n      0x00\n      dup7\n      gas\n      call\n      swap2\n      pop\n      pop\n      returndatasize\n      dup1\n      0x00\n      dup2\n      eq\n      tag_234\n      jumpi\n      mload(0x40)\n      swap2\n      pop\n      and(add(returndatasize, 0x3f), not(0x1f))\n      dup3\n      add\n      0x40\n      mstore\n      returndatasize\n      dup3\n      mstore\n      returndatasize\n      0x00\n      0x20\n      dup5\n      add\n      returndatacopy\n      jump(tag_233)\n    tag_234:\n      0x60\n      swap2\n      pop\n    tag_233:\n      pop\n        /* \"Utils/TransferHelper.sol\":1257:1380  (bool success, bytes memory data) = token.call(\r... */\n      swap2\n      pop\n      swap2\n      pop\n        /* \"Utils/TransferHelper.sol\":1413:1420  success */\n      dup2\n        /* \"Utils/TransferHelper.sol\":1413:1470  success && (data.length == 0 || abi.decode(data, (bool))) */\n      dup1\n      iszero\n      tag_237\n      jumpi\n      pop\n        /* \"Utils/TransferHelper.sol\":1425:1436  data.length */\n      dup1\n      mload\n        /* \"Utils/TransferHelper.sol\":1425:1441  data.length == 0 */\n      iszero\n      dup1\n        /* \"Utils/TransferHelper.sol\":1425:1469  data.length == 0 || abi.decode(data, (bool)) */\n      tag_237\n      jumpi\n      pop\n        /* \"Utils/TransferHelper.sol\":1456:1460  data */\n      dup1\n        /* \"Utils/TransferHelper.sol\":1445:1469  abi.decode(data, (bool)) */\n      dup1\n      0x20\n      add\n      swap1\n      mload\n      dup2\n      add\n      swap1\n      tag_237\n      swap2\n      swap1\n      tag_238\n      jump\t// in\n    tag_237:\n        /* \"Utils/TransferHelper.sol\":1391:1534  require(\r... */\n      tag_239\n      jumpi\n      mload(0x40)\n      shl(0xe5, 0x461bcd)\n      dup2\n      mstore\n        /* \"#utility.yul\":7144:7146   */\n      0x20\n        /* \"Utils/TransferHelper.sol\":1391:1534  require(\r... */\n      0x04\n      dup3\n      add\n        /* \"#utility.yul\":7126:7147   */\n      mstore\n        /* \"#utility.yul\":7183:7185   */\n      0x24\n        /* \"#utility.yul\":7163:7181   */\n      dup1\n      dup3\n      add\n        /* \"#utility.yul\":7156:7186   */\n      mstore\n        /* \"#utility.yul\":7222:7256   */\n      0x5472616e7366657248656c7065723a205452414e534645525f46524f4d5f4641\n        /* \"#utility.yul\":7202:7220   */\n      0x44\n      dup3\n      add\n        /* \"#utility.yul\":7195:7257   */\n      mstore\n      shl(0xe2, 0x12531151)\n        /* \"#utility.yul\":7273:7291   */\n      0x64\n      dup3\n      add\n        /* \"#utility.yul\":7266:7300   */\n      mstore\n        /* \"#utility.yul\":7317:7336   */\n      0x84\n      add\n        /* \"Utils/TransferHelper.sol\":1391:1534  require(\r... */\n      tag_139\n        /* \"#utility.yul\":7116:7342   */\n      jump\n        /* \"Utils/TransferHelper.sol\":1391:1534  require(\r... */\n    tag_239:\n        /* \"Utils/TransferHelper.sol\":1112:1542  function safeTransferFrom(\r... */\n      pop\n      pop\n      pop\n      pop\n      pop\n      pop\n      jump\t// out\n        /* \"Utils/EnumerableSet.sol\":8831:8998  function contains(AddressSet storage set, address value) internal view returns (bool) {\r... */\n    tag_203:\n      sub(shl(0xa0, 0x01), 0x01)\n        /* \"Utils/EnumerableSet.sol\":8965:8988  uint256(uint160(value)) */\n      dup2\n      and\n        /* \"Utils/EnumerableSet.sol\":8911:8915  bool */\n      0x00\n        /* \"Utils/EnumerableSet.sol\":4367:4386  set._indexes[value] */\n      swap1\n      dup2\n      mstore\n        /* \"Utils/EnumerableSet.sol\":4367:4379  set._indexes */\n      0x01\n      dup4\n      add\n        /* \"Utils/EnumerableSet.sol\":4367:4386  set._indexes[value] */\n      0x20\n      mstore\n      0x40\n      dup2\n      keccak256\n      sload\n        /* \"Utils/EnumerableSet.sol\":4367:4391  set._indexes[value] != 0 */\n      iszero\n      iszero\n        /* \"Utils/EnumerableSet.sol\":8935:8990  _contains(set._inner, bytes32(uint256(uint160(value)))) */\n      tag_216\n        /* \"Utils/EnumerableSet.sol\":4270:4399  function _contains(Set storage set, bytes32 value) private view returns (bool) {\r... */\n      jump\n        /* \"Utils/EnumerableSet.sol\":2174:2588  function _add(Set storage set, bytes32 value) private returns (bool) {\r... */\n    tag_217:\n        /* \"Utils/EnumerableSet.sol\":2237:2241  bool */\n      0x00\n        /* \"Utils/EnumerableSet.sol\":4367:4386  set._indexes[value] */\n      dup2\n      dup2\n      mstore\n        /* \"Utils/EnumerableSet.sol\":4367:4379  set._indexes */\n      0x01\n      dup4\n      add\n        /* \"Utils/EnumerableSet.sol\":4367:4386  set._indexes[value] */\n      0x20\n      mstore\n      0x40\n      dup2\n      keccak256\n      sload\n        /* \"Utils/EnumerableSet.sol\":2254:2581  if (!_contains(set, value)) {\r... */\n      tag_247\n      jumpi\n      pop\n        /* \"Utils/EnumerableSet.sol\":2297:2320  set._values.push(value) */\n      dup2\n      sload\n      0x01\n      dup2\n      dup2\n      add\n      dup5\n      sstore\n        /* \"Utils/EnumerableSet.sol\":2297:2308  set._values */\n      0x00\n        /* \"Utils/EnumerableSet.sol\":2297:2320  set._values.push(value) */\n      dup5\n      dup2\n      mstore\n      0x20\n      dup1\n      dup3\n      keccak256\n      swap1\n      swap4\n      add\n      dup5\n      swap1\n      sstore\n        /* \"Utils/EnumerableSet.sol\":2480:2498  set._values.length */\n      dup5\n      sload\n        /* \"Utils/EnumerableSet.sol\":2458:2477  set._indexes[value] */\n      dup5\n      dup3\n      mstore\n        /* \"Utils/EnumerableSet.sol\":2458:2470  set._indexes */\n      dup3\n      dup7\n      add\n        /* \"Utils/EnumerableSet.sol\":2458:2477  set._indexes[value] */\n      swap1\n      swap4\n      mstore\n      0x40\n      swap1\n      keccak256\n        /* \"Utils/EnumerableSet.sol\":2458:2498  set._indexes[value] = set._values.length */\n      swap2\n      swap1\n      swap2\n      sstore\n        /* \"Utils/EnumerableSet.sol\":2513:2524  return true */\n      jump(tag_215)\n        /* \"Utils/EnumerableSet.sol\":2254:2581  if (!_contains(set, value)) {\r... */\n    tag_247:\n      pop\n        /* \"Utils/EnumerableSet.sol\":2564:2569  false */\n      0x00\n        /* \"Utils/EnumerableSet.sol\":2557:2569  return false */\n      jump(tag_215)\n        /* \"#utility.yul\":14:271   */\n    tag_47:\n        /* \"#utility.yul\":73:79   */\n      0x00\n        /* \"#utility.yul\":126:128   */\n      0x20\n        /* \"#utility.yul\":114:123   */\n      dup3\n        /* \"#utility.yul\":105:112   */\n      dup5\n        /* \"#utility.yul\":101:124   */\n      sub\n        /* \"#utility.yul\":97:129   */\n      slt\n        /* \"#utility.yul\":94:96   */\n      iszero\n      tag_253\n      jumpi\n        /* \"#utility.yul\":147:153   */\n      dup1\n        /* \"#utility.yul\":139:145   */\n      dup2\n        /* \"#utility.yul\":132:154   */\n      revert\n        /* \"#utility.yul\":94:96   */\n    tag_253:\n        /* \"#utility.yul\":191:200   */\n      dup2\n        /* \"#utility.yul\":178:201   */\n      calldataload\n        /* \"#utility.yul\":210:241   */\n      tag_254\n        /* \"#utility.yul\":235:240   */\n      dup2\n        /* \"#utility.yul\":210:241   */\n      tag_255\n      jump\t// in\n    tag_254:\n        /* \"#utility.yul\":260:265   */\n      swap4\n        /* \"#utility.yul\":84:271   */\n      swap3\n      pop\n      pop\n      pop\n      jump\t// out\n        /* \"#utility.yul\":276:1572   */\n    tag_53:\n        /* \"#utility.yul\":419:425   */\n      0x00\n        /* \"#utility.yul\":427:433   */\n      dup1\n        /* \"#utility.yul\":435:441   */\n      0x00\n        /* \"#utility.yul\":443:449   */\n      dup1\n        /* \"#utility.yul\":474:477   */\n      0x0140\n        /* \"#utility.yul\":518:520   */\n      dup1\n        /* \"#utility.yul\":506:515   */\n      dup7\n        /* \"#utility.yul\":497:504   */\n      dup9\n        /* \"#utility.yul\":493:516   */\n      sub\n        /* \"#utility.yul\":489:521   */\n      slt\n        /* \"#utility.yul\":486:488   */\n      iszero\n      tag_257\n      jumpi\n        /* \"#utility.yul\":539:545   */\n      dup4\n        /* \"#utility.yul\":531:537   */\n      dup5\n        /* \"#utility.yul\":524:546   */\n      revert\n        /* \"#utility.yul\":486:488   */\n    tag_257:\n        /* \"#utility.yul\":583:592   */\n      dup6\n        /* \"#utility.yul\":570:593   */\n      calldataload\n        /* \"#utility.yul\":602:633   */\n      tag_258\n        /* \"#utility.yul\":627:632   */\n      dup2\n        /* \"#utility.yul\":602:633   */\n      tag_255\n      jump\t// in\n    tag_258:\n        /* \"#utility.yul\":652:657   */\n      swap5\n      pop\n        /* \"#utility.yul\":676:678   */\n      0x20\n        /* \"#utility.yul\":715:733   */\n      dup7\n      dup2\n      add\n        /* \"#utility.yul\":702:734   */\n      calldataload\n        /* \"#utility.yul\":743:776   */\n      tag_259\n        /* \"#utility.yul\":702:734   */\n      dup2\n        /* \"#utility.yul\":743:776   */\n      tag_255\n      jump\t// in\n    tag_259:\n        /* \"#utility.yul\":795:802   */\n      swap5\n      pop\n        /* \"#utility.yul\":854:856   */\n      0x40\n        /* \"#utility.yul\":839:857   */\n      dup8\n      add\n        /* \"#utility.yul\":826:858   */\n      calldataload\n        /* \"#utility.yul\":867:900   */\n      tag_260\n        /* \"#utility.yul\":826:858   */\n      dup2\n        /* \"#utility.yul\":867:900   */\n      tag_255\n      jump\t// in\n    tag_260:\n        /* \"#utility.yul\":919:926   */\n      swap4\n      pop\n        /* \"#utility.yul\":964:967   */\n      0x7f\n        /* \"#utility.yul\":949:968   */\n      dup8\n      add\n        /* \"#utility.yul\":945:978   */\n      dup9\n      sgt\n        /* \"#utility.yul\":935:937   */\n      tag_261\n      jumpi\n        /* \"#utility.yul\":997:1003   */\n      dup3\n        /* \"#utility.yul\":989:995   */\n      dup4\n        /* \"#utility.yul\":982:1004   */\n      revert\n        /* \"#utility.yul\":935:937   */\n    tag_261:\n        /* \"#utility.yul\":1035:1037   */\n      0x40\n        /* \"#utility.yul\":1029:1038   */\n      mload\n        /* \"#utility.yul\":1077:1080   */\n      0xe0\n        /* \"#utility.yul\":1069:1075   */\n      dup2\n        /* \"#utility.yul\":1065:1081   */\n      add\n        /* \"#utility.yul\":1147:1153   */\n      dup2\n        /* \"#utility.yul\":1135:1145   */\n      dup2\n        /* \"#utility.yul\":1132:1154   */\n      lt\n        /* \"#utility.yul\":1111:1129   */\n      0xffffffffffffffff\n        /* \"#utility.yul\":1099:1109   */\n      dup3\n        /* \"#utility.yul\":1096:1130   */\n      gt\n        /* \"#utility.yul\":1093:1155   */\n      or\n        /* \"#utility.yul\":1090:1092   */\n      iszero\n      tag_263\n      jumpi\n        /* \"#utility.yul\":1158:1176   */\n      tag_263\n      tag_264\n      jump\t// in\n    tag_263:\n        /* \"#utility.yul\":1194:1196   */\n      0x40\n        /* \"#utility.yul\":1187:1209   */\n      mstore\n        /* \"#utility.yul\":1229:1235   */\n      dup1\n        /* \"#utility.yul\":1270:1272   */\n      0x60\n        /* \"#utility.yul\":1255:1273   */\n      dup10\n      add\n        /* \"#utility.yul\":1288:1306   */\n      dup5\n      dup11\n      add\n        /* \"#utility.yul\":1285:1316   */\n      dup12\n      lt\n        /* \"#utility.yul\":1282:1284   */\n      iszero\n      tag_265\n      jumpi\n        /* \"#utility.yul\":1334:1340   */\n      dup6\n        /* \"#utility.yul\":1326:1332   */\n      dup7\n        /* \"#utility.yul\":1319:1341   */\n      revert\n        /* \"#utility.yul\":1282:1284   */\n    tag_265:\n        /* \"#utility.yul\":1361:1367   */\n      dup6\n        /* \"#utility.yul\":1352:1367   */\n      swap5\n      pop\n        /* \"#utility.yul\":1376:1541   */\n    tag_266:\n        /* \"#utility.yul\":1390:1394   */\n      0x07\n        /* \"#utility.yul\":1387:1388   */\n      dup6\n        /* \"#utility.yul\":1384:1395   */\n      lt\n        /* \"#utility.yul\":1376:1541   */\n      iszero\n      tag_268\n      jumpi\n        /* \"#utility.yul\":1449:1466   */\n      dup1\n      calldataload\n        /* \"#utility.yul\":1437:1467   */\n      dup3\n      mstore\n        /* \"#utility.yul\":1410:1411   */\n      0x01\n        /* \"#utility.yul\":1403:1412   */\n      swap5\n      swap1\n      swap5\n      add\n      swap4\n        /* \"#utility.yul\":1487:1499   */\n      swap1\n      dup4\n      add\n      swap1\n        /* \"#utility.yul\":1519:1531   */\n      dup4\n      add\n        /* \"#utility.yul\":1376:1541   */\n      jump(tag_266)\n    tag_268:\n        /* \"#utility.yul\":1380:1383   */\n      pop\n      pop\n        /* \"#utility.yul\":1560:1566   */\n      dup1\n        /* \"#utility.yul\":1550:1566   */\n      swap4\n      pop\n      pop\n      pop\n      pop\n        /* \"#utility.yul\":454:1572   */\n      swap3\n      swap6\n      swap2\n      swap5\n      pop\n      swap3\n      pop\n      jump\t// out\n        /* \"#utility.yul\":1577:1874   */\n    tag_238:\n        /* \"#utility.yul\":1644:1650   */\n      0x00\n        /* \"#utility.yul\":1697:1699   */\n      0x20\n        /* \"#utility.yul\":1685:1694   */\n      dup3\n        /* \"#utility.yul\":1676:1683   */\n      dup5\n        /* \"#utility.yul\":1672:1695   */\n      sub\n        /* \"#utility.yul\":1668:1700   */\n      slt\n        /* \"#utility.yul\":1665:1667   */\n      iszero\n      tag_270\n      jumpi\n        /* \"#utility.yul\":1718:1724   */\n      dup1\n        /* \"#utility.yul\":1710:1716   */\n      dup2\n        /* \"#utility.yul\":1703:1725   */\n      revert\n        /* \"#utility.yul\":1665:1667   */\n    tag_270:\n        /* \"#utility.yul\":1755:1764   */\n      dup2\n        /* \"#utility.yul\":1749:1765   */\n      mload\n        /* \"#utility.yul\":1808:1813   */\n      dup1\n        /* \"#utility.yul\":1801:1814   */\n      iszero\n        /* \"#utility.yul\":1794:1815   */\n      iszero\n        /* \"#utility.yul\":1787:1792   */\n      dup2\n        /* \"#utility.yul\":1784:1816   */\n      eq\n        /* \"#utility.yul\":1774:1776   */\n      tag_254\n      jumpi\n        /* \"#utility.yul\":1835:1841   */\n      dup2\n        /* \"#utility.yul\":1827:1833   */\n      dup3\n        /* \"#utility.yul\":1820:1842   */\n      revert\n        /* \"#utility.yul\":1879:2069   */\n    tag_42:\n        /* \"#utility.yul\":1938:1944   */\n      0x00\n        /* \"#utility.yul\":1991:1993   */\n      0x20\n        /* \"#utility.yul\":1979:1988   */\n      dup3\n        /* \"#utility.yul\":1970:1977   */\n      dup5\n        /* \"#utility.yul\":1966:1989   */\n      sub\n        /* \"#utility.yul\":1962:1994   */\n      slt\n        /* \"#utility.yul\":1959:1961   */\n      iszero\n      tag_273\n      jumpi\n        /* \"#utility.yul\":2012:2018   */\n      dup1\n        /* \"#utility.yul\":2004:2010   */\n      dup2\n        /* \"#utility.yul\":1997:2019   */\n      revert\n        /* \"#utility.yul\":1959:1961   */\n    tag_273:\n      pop\n        /* \"#utility.yul\":2040:2063   */\n      calldataload\n      swap2\n        /* \"#utility.yul\":1949:2069   */\n      swap1\n      pop\n      jump\t// out\n        /* \"#utility.yul\":2074:2268   */\n    tag_114:\n        /* \"#utility.yul\":2144:2150   */\n      0x00\n        /* \"#utility.yul\":2197:2199   */\n      0x20\n        /* \"#utility.yul\":2185:2194   */\n      dup3\n        /* \"#utility.yul\":2176:2183   */\n      dup5\n        /* \"#utility.yul\":2172:2195   */\n      sub\n        /* \"#utility.yul\":2168:2200   */\n      slt\n        /* \"#utility.yul\":2165:2167   */\n      iszero\n      tag_275\n      jumpi\n        /* \"#utility.yul\":2218:2224   */\n      dup1\n        /* \"#utility.yul\":2210:2216   */\n      dup2\n        /* \"#utility.yul\":2203:2225   */\n      revert\n        /* \"#utility.yul\":2165:2167   */\n    tag_275:\n      pop\n        /* \"#utility.yul\":2246:2262   */\n      mload\n      swap2\n        /* \"#utility.yul\":2155:2268   */\n      swap1\n      pop\n      jump\t// out\n        /* \"#utility.yul\":2273:2703   */\n    tag_231:\n        /* \"#utility.yul\":2402:2405   */\n      0x00\n        /* \"#utility.yul\":2440:2446   */\n      dup3\n        /* \"#utility.yul\":2434:2447   */\n      mload\n        /* \"#utility.yul\":2465:2468   */\n      dup2\n        /* \"#utility.yul\":2477:2606   */\n    tag_277:\n        /* \"#utility.yul\":2491:2497   */\n      dup2\n        /* \"#utility.yul\":2488:2489   */\n      dup2\n        /* \"#utility.yul\":2485:2498   */\n      lt\n        /* \"#utility.yul\":2477:2606   */\n      iszero\n      tag_279\n      jumpi\n        /* \"#utility.yul\":2589:2593   */\n      0x20\n        /* \"#utility.yul\":2573:2587   */\n      dup2\n      dup7\n      add\n        /* \"#utility.yul\":2569:2594   */\n      dup2\n      add\n        /* \"#utility.yul\":2563:2595   */\n      mload\n        /* \"#utility.yul\":2550:2561   */\n      dup6\n      dup4\n      add\n        /* \"#utility.yul\":2543:2596   */\n      mstore\n        /* \"#utility.yul\":2506:2518   */\n      add\n        /* \"#utility.yul\":2477:2606   */\n      jump(tag_277)\n    tag_279:\n        /* \"#utility.yul\":2624:2630   */\n      dup2\n        /* \"#utility.yul\":2621:2622   */\n      dup2\n        /* \"#utility.yul\":2618:2631   */\n      gt\n        /* \"#utility.yul\":2615:2617   */\n      iszero\n      tag_280\n      jumpi\n        /* \"#utility.yul\":2659:2662   */\n      dup3\n        /* \"#utility.yul\":2650:2656   */\n      dup3\n        /* \"#utility.yul\":2645:2648   */\n      dup6\n        /* \"#utility.yul\":2641:2657   */\n      add\n        /* \"#utility.yul\":2634:2663   */\n      mstore\n        /* \"#utility.yul\":2615:2617   */\n    tag_280:\n      pop\n        /* \"#utility.yul\":2681:2697   */\n      swap2\n      swap1\n      swap2\n      add\n      swap3\n        /* \"#utility.yul\":2410:2703   */\n      swap2\n      pop\n      pop\n      jump\t// out\n        /* \"#utility.yul\":8989:9117   */\n    tag_183:\n        /* \"#utility.yul\":9029:9032   */\n      0x00\n        /* \"#utility.yul\":9060:9061   */\n      dup3\n        /* \"#utility.yul\":9056:9062   */\n      not\n        /* \"#utility.yul\":9053:9054   */\n      dup3\n        /* \"#utility.yul\":9050:9063   */\n      gt\n        /* \"#utility.yul\":9047:9049   */\n      iszero\n      tag_299\n      jumpi\n        /* \"#utility.yul\":9066:9084   */\n      tag_299\n      tag_300\n      jump\t// in\n    tag_299:\n      pop\n        /* \"#utility.yul\":9102:9111   */\n      add\n      swap1\n        /* \"#utility.yul\":9037:9117   */\n      jump\t// out\n        /* \"#utility.yul\":9122:9339   */\n    tag_226:\n        /* \"#utility.yul\":9162:9163   */\n      0x00\n        /* \"#utility.yul\":9188:9189   */\n      dup3\n        /* \"#utility.yul\":9178:9180   */\n      tag_302\n      jumpi\n      shl(0xe0, 0x4e487b71)\n        /* \"#utility.yul\":9213:9244   */\n      dup2\n      mstore\n        /* \"#utility.yul\":9267:9271   */\n      0x12\n        /* \"#utility.yul\":9264:9265   */\n      0x04\n        /* \"#utility.yul\":9257:9272   */\n      mstore\n        /* \"#utility.yul\":9295:9299   */\n      0x24\n        /* \"#utility.yul\":9220:9221   */\n      dup2\n        /* \"#utility.yul\":9285:9300   */\n      revert\n        /* \"#utility.yul\":9178:9180   */\n    tag_302:\n      pop\n        /* \"#utility.yul\":9324:9333   */\n      div\n      swap1\n        /* \"#utility.yul\":9168:9339   */\n      jump\t// out\n        /* \"#utility.yul\":9344:9766   */\n    tag_303:\n        /* \"#utility.yul\":9433:9434   */\n      0x01\n        /* \"#utility.yul\":9476:9481   */\n      dup2\n        /* \"#utility.yul\":9433:9434   */\n      dup2\n        /* \"#utility.yul\":9490:9760   */\n    tag_305:\n        /* \"#utility.yul\":9511:9518   */\n      dup1\n        /* \"#utility.yul\":9501:9509   */\n      dup6\n        /* \"#utility.yul\":9498:9519   */\n      gt\n        /* \"#utility.yul\":9490:9760   */\n      iszero\n      tag_307\n      jumpi\n        /* \"#utility.yul\":9570:9574   */\n      dup2\n        /* \"#utility.yul\":9566:9567   */\n      0x00\n        /* \"#utility.yul\":9562:9568   */\n      not\n        /* \"#utility.yul\":9558:9575   */\n      div\n        /* \"#utility.yul\":9552:9556   */\n      dup3\n        /* \"#utility.yul\":9549:9576   */\n      gt\n        /* \"#utility.yul\":9546:9548   */\n      iszero\n      tag_309\n      jumpi\n        /* \"#utility.yul\":9579:9597   */\n      tag_309\n      tag_300\n      jump\t// in\n    tag_309:\n        /* \"#utility.yul\":9629:9636   */\n      dup1\n        /* \"#utility.yul\":9619:9627   */\n      dup6\n        /* \"#utility.yul\":9615:9637   */\n      and\n        /* \"#utility.yul\":9612:9614   */\n      iszero\n      tag_310\n      jumpi\n        /* \"#utility.yul\":9649:9665   */\n      swap2\n      dup2\n      mul\n      swap2\n        /* \"#utility.yul\":9612:9614   */\n    tag_310:\n        /* \"#utility.yul\":9728:9750   */\n      swap4\n      dup5\n      shr\n      swap4\n        /* \"#utility.yul\":9688:9703   */\n      swap1\n      dup1\n      mul\n      swap1\n        /* \"#utility.yul\":9490:9760   */\n      jump(tag_305)\n    tag_307:\n        /* \"#utility.yul\":9494:9497   */\n      pop\n        /* \"#utility.yul\":9408:9766   */\n      swap3\n      pop\n      swap3\n      swap1\n      pop\n      jump\t// out\n        /* \"#utility.yul\":9771:9902   */\n    tag_116:\n        /* \"#utility.yul\":9831:9836   */\n      0x00\n        /* \"#utility.yul\":9860:9896   */\n      tag_216\n        /* \"#utility.yul\":9887:9895   */\n      dup4\n        /* \"#utility.yul\":9881:9885   */\n      dup4\n        /* \"#utility.yul\":9956:9961   */\n      0x00\n        /* \"#utility.yul\":9986:9994   */\n      dup3\n        /* \"#utility.yul\":9976:9978   */\n      tag_315\n      jumpi\n      pop\n        /* \"#utility.yul\":10027:10028   */\n      0x01\n        /* \"#utility.yul\":10041:10046   */\n      jump(tag_215)\n        /* \"#utility.yul\":9976:9978   */\n    tag_315:\n        /* \"#utility.yul\":10075:10079   */\n      dup2\n        /* \"#utility.yul\":10065:10067   */\n      tag_316\n      jumpi\n      pop\n        /* \"#utility.yul\":10112:10113   */\n      0x00\n        /* \"#utility.yul\":10126:10131   */\n      jump(tag_215)\n        /* \"#utility.yul\":10065:10067   */\n    tag_316:\n        /* \"#utility.yul\":10157:10161   */\n      dup2\n        /* \"#utility.yul\":10175:10176   */\n      0x01\n        /* \"#utility.yul\":10170:10229   */\n      dup2\n      eq\n      tag_318\n      jumpi\n        /* \"#utility.yul\":10243:10244   */\n      0x02\n        /* \"#utility.yul\":10238:10368   */\n      dup2\n      eq\n      tag_319\n      jumpi\n        /* \"#utility.yul\":10150:10368   */\n      jump(tag_317)\n        /* \"#utility.yul\":10170:10229   */\n    tag_318:\n        /* \"#utility.yul\":10200:10201   */\n      0x01\n        /* \"#utility.yul\":10191:10201   */\n      swap2\n      pop\n        /* \"#utility.yul\":10214:10219   */\n      pop\n      jump(tag_215)\n        /* \"#utility.yul\":10238:10368   */\n    tag_319:\n        /* \"#utility.yul\":10275:10278   */\n      0xff\n        /* \"#utility.yul\":10265:10273   */\n      dup5\n        /* \"#utility.yul\":10262:10279   */\n      gt\n        /* \"#utility.yul\":10259:10261   */\n      iszero\n      tag_321\n      jumpi\n        /* \"#utility.yul\":10282:10300   */\n      tag_321\n      tag_300\n      jump\t// in\n    tag_321:\n      pop\n      pop\n        /* \"#utility.yul\":10338:10339   */\n      0x01\n        /* \"#utility.yul\":10324:10340   */\n      dup3\n      shl\n        /* \"#utility.yul\":10353:10358   */\n      jump(tag_215)\n        /* \"#utility.yul\":10150:10368   */\n    tag_317:\n      pop\n        /* \"#utility.yul\":10452:10454   */\n      0x20\n        /* \"#utility.yul\":10442:10450   */\n      dup4\n        /* \"#utility.yul\":10439:10455   */\n      lt\n        /* \"#utility.yul\":10433:10436   */\n      0x0133\n        /* \"#utility.yul\":10427:10431   */\n      dup4\n        /* \"#utility.yul\":10424:10437   */\n      lt\n        /* \"#utility.yul\":10420:10456   */\n      and\n        /* \"#utility.yul\":10414:10416   */\n      0x4e\n        /* \"#utility.yul\":10404:10412   */\n      dup5\n        /* \"#utility.yul\":10401:10417   */\n      lt\n        /* \"#utility.yul\":10396:10398   */\n      0x0b\n        /* \"#utility.yul\":10390:10394   */\n      dup5\n        /* \"#utility.yul\":10387:10399   */\n      lt\n        /* \"#utility.yul\":10383:10418   */\n      and\n        /* \"#utility.yul\":10380:10457   */\n      or\n        /* \"#utility.yul\":10377:10379   */\n      iszero\n      tag_322\n      jumpi\n      pop\n        /* \"#utility.yul\":10489:10508   */\n      dup2\n      dup2\n      exp\n        /* \"#utility.yul\":10521:10526   */\n      jump(tag_215)\n        /* \"#utility.yul\":10377:10379   */\n    tag_322:\n        /* \"#utility.yul\":10568:10602   */\n      tag_323\n        /* \"#utility.yul\":10593:10601   */\n      dup4\n        /* \"#utility.yul\":10587:10591   */\n      dup4\n        /* \"#utility.yul\":10568:10602   */\n      tag_303\n      jump\t// in\n    tag_323:\n        /* \"#utility.yul\":10638:10644   */\n      dup1\n        /* \"#utility.yul\":10634:10635   */\n      0x00\n        /* \"#utility.yul\":10630:10636   */\n      not\n        /* \"#utility.yul\":10626:10645   */\n      div\n        /* \"#utility.yul\":10617:10624   */\n      dup3\n        /* \"#utility.yul\":10614:10646   */\n      gt\n        /* \"#utility.yul\":10611:10613   */\n      iszero\n      tag_325\n      jumpi\n        /* \"#utility.yul\":10649:10667   */\n      tag_325\n      tag_300\n      jump\t// in\n    tag_325:\n        /* \"#utility.yul\":10687:10707   */\n      mul\n      swap4\n        /* \"#utility.yul\":9966:10713   */\n      swap3\n      pop\n      pop\n      pop\n      jump\t// out\n        /* \"#utility.yul\":10718:10886   */\n    tag_119:\n        /* \"#utility.yul\":10758:10765   */\n      0x00\n        /* \"#utility.yul\":10824:10825   */\n      dup2\n        /* \"#utility.yul\":10820:10821   */\n      0x00\n        /* \"#utility.yul\":10816:10822   */\n      not\n        /* \"#utility.yul\":10812:10826   */\n      div\n        /* \"#utility.yul\":10809:10810   */\n      dup4\n        /* \"#utility.yul\":10806:10827   */\n      gt\n        /* \"#utility.yul\":10801:10802   */\n      dup3\n        /* \"#utility.yul\":10794:10803   */\n      iszero\n        /* \"#utility.yul\":10787:10804   */\n      iszero\n        /* \"#utility.yul\":10783:10828   */\n      and\n        /* \"#utility.yul\":10780:10782   */\n      iszero\n      tag_328\n      jumpi\n        /* \"#utility.yul\":10831:10849   */\n      tag_328\n      tag_300\n      jump\t// in\n    tag_328:\n      pop\n        /* \"#utility.yul\":10871:10880   */\n      mul\n      swap1\n        /* \"#utility.yul\":10770:10886   */\n      jump\t// out\n        /* \"#utility.yul\":10891:11016   */\n    tag_106:\n        /* \"#utility.yul\":10931:10935   */\n      0x00\n        /* \"#utility.yul\":10959:10960   */\n      dup3\n        /* \"#utility.yul\":10956:10957   */\n      dup3\n        /* \"#utility.yul\":10953:10961   */\n      lt\n        /* \"#utility.yul\":10950:10952   */\n      iszero\n      tag_331\n      jumpi\n        /* \"#utility.yul\":10964:10982   */\n      tag_331\n      tag_300\n      jump\t// in\n    tag_331:\n      pop\n        /* \"#utility.yul\":11001:11010   */\n      sub\n      swap1\n        /* \"#utility.yul\":10940:11016   */\n      jump\t// out\n        /* \"#utility.yul\":11021:11148   */\n    tag_300:\n        /* \"#utility.yul\":11082:11092   */\n      0x4e487b71\n        /* \"#utility.yul\":11077:11080   */\n      0xe0\n        /* \"#utility.yul\":11073:11093   */\n      shl\n        /* \"#utility.yul\":11070:11071   */\n      0x00\n        /* \"#utility.yul\":11063:11094   */\n      mstore\n        /* \"#utility.yul\":11113:11117   */\n      0x11\n        /* \"#utility.yul\":11110:11111   */\n      0x04\n        /* \"#utility.yul\":11103:11118   */\n      mstore\n        /* \"#utility.yul\":11137:11141   */\n      0x24\n        /* \"#utility.yul\":11134:11135   */\n      0x00\n        /* \"#utility.yul\":11127:11142   */\n      revert\n        /* \"#utility.yul\":11153:11280   */\n    tag_264:\n        /* \"#utility.yul\":11214:11224   */\n      0x4e487b71\n        /* \"#utility.yul\":11209:11212   */\n      0xe0\n        /* \"#utility.yul\":11205:11225   */\n      shl\n        /* \"#utility.yul\":11202:11203   */\n      0x00\n        /* \"#utility.yul\":11195:11226   */\n      mstore\n        /* \"#utility.yul\":11245:11249   */\n      0x41\n        /* \"#utility.yul\":11242:11243   */\n      0x04\n        /* \"#utility.yul\":11235:11250   */\n      mstore\n        /* \"#utility.yul\":11269:11273   */\n      0x24\n        /* \"#utility.yul\":11266:11267   */\n      0x00\n        /* \"#utility.yul\":11259:11274   */\n      revert\n        /* \"#utility.yul\":11285:11416   */\n    tag_255:\n      sub(shl(0xa0, 0x01), 0x01)\n        /* \"#utility.yul\":11360:11391   */\n      dup2\n      and\n        /* \"#utility.yul\":11350:11392   */\n      dup2\n      eq\n        /* \"#utility.yul\":11340:11342   */\n      tag_146\n      jumpi\n        /* \"#utility.yul\":11406:11407   */\n      0x00\n        /* \"#utility.yul\":11403:11404   */\n      dup1\n        /* \"#utility.yul\":11396:11408   */\n      revert\n\n    auxdata: 0xa2646970667358221220be2de8ea34aec43de128df4709520dae3450277f762b890ed197638bd2eb236c64736f6c63430008040033\n}\n",
				"bytecode": {
					"linkReferences": {},
					"object": "608060405260016000556100123361009c565b6017805473c778417e063141139fce010982780140aa0cd5ab6001600160a01b03199091161790556100646019736ccb41eeda5a073076f3e7dc1614c185b5fa41ed6100ee602090811b610ba017901c565b50610091734f0b12bbf40fc182559822a5b1db6d34dbc3e01660196100ee60201b610ba01790919060201c565b50601460185561015b565b600180546001600160a01b038381166001600160a01b0319831681179093556040519116919082907f8be0079c531659141344cd1fd0a4f28419497f9722a3daafe3b4186f6b6457e090600090a35050565b6000610103836001600160a01b03841661010c565b90505b92915050565b600081815260018301602052604081205461015357508154600181810184556000848152602080822090930184905584548482528286019093526040902091909155610106565b506000610106565b611111806200016b6000396000f3fe6080604052600436106100fe5760003560e01c8063861faf5f11610095578063b6b55f2511610064578063b6b55f2514610340578063cad5b0f714610353578063e2d3f42314610378578063f2fde38b146103ff578063f8b2cb4f1461041f57600080fd5b8063861faf5f1461028e5780638da5cb5b14610296578063acfb2355146102c8578063ad5c46481461032057600080fd5b80634329db46116100d15780634329db461461021757806356c5f3491461022c57806361e1765514610259578063715018a61461027957600080fd5b806318856a2f146101035780631df4ccfc146101c8578063200d2ed2146101ec5780633b5ef2ad14610201575b600080fd5b34801561010f57600080fd5b50600b54600c54600d54600e54600f546010546011546012546013546014546015546016546101579b6001600160a01b039081169b81169a16989796959493929160ff16908c565b604080516001600160a01b039d8e1681529b8d1660208d015299909b16988a01989098526060890196909652608088019490945260a087019290925260c086015260e08501526101008401526101208301521515610140820152610160810191909152610180015b60405180910390f35b3480156101d457600080fd5b506101de601b5481565b6040519081526020016101bf565b3480156101f857600080fd5b506101de610447565b34801561020d57600080fd5b506101de60185481565b61022a610225366004610ed8565b610470565b005b34801561023857600080fd5b506101de610247366004610dd5565b60036020526000908152604090205481565b34801561026557600080fd5b5061022a610274366004610df8565b6104aa565b34801561028557600080fd5b5061022a61066a565b61022a6106d5565b3480156102a257600080fd5b506001546001600160a01b03165b6040516001600160a01b0390911681526020016101bf565b3480156102d457600080fd5b506004546005546006546007546008546009546102f395949392919086565b604080519687526020870195909552938501929092526060840152608083015260a082015260c0016101bf565b34801561032c57600080fd5b506017546102b0906001600160a01b031681565b61022a61034e366004610ed8565b610704565b34801561035f57600080fd5b50610368610ac6565b60405190151581526020016101bf565b34801561038457600080fd5b506103ce610393366004610dd5565b600260208190526000918252604090912080546001820154928201546003830154600490930154919392909160ff8082169161010090041686565b60408051968752602087019590955293850192909252606084015215156080830152151560a082015260c0016101bf565b34801561040b57600080fd5b5061022a61041a366004610dd5565b610ad8565b34801561042b57600080fd5b506101de61043a366004610dd5565b6001600160a01b03163190565b600f5460009042101561045a5750600090565b60105442111561046a5750600290565b50600190565b336108fc61047e8334611083565b6040518115909202916000818181858888f193505050501580156104a6573d6000803e3d6000fd5b5050565b600b80546001600160a01b038087166001600160a01b031992831617909255600c80548684169083168117909155600d8054938616939092169290921790556040805163313ce56760e01b8152905163313ce56791600480820192602092909190829003018186803b15801561051f57600080fd5b505afa158015610533573d6000803e3d6000fd5b505050506040513d601f19601f820116820180604052508101906105579190610ef0565b61056290600a610fbc565b815161056e9190611064565b600e55602080820151600f556040808301516010556060830151601155600d54815163313ce56760e01b815291516001600160a01b039091169263313ce5679260048082019391829003018186803b1580156105c957600080fd5b505afa1580156105dd573d6000803e3d6000fd5b505050506040513d601f19601f820116820180604052508101906106019190610ef0565b61060c90600a610fbc565b608082015161061b9190611064565b60125560a081015160135560c0810151601455600d54601754601580546001600160a01b03938416939092169290921460ff19909116179055600e546106619080610bbe565b60165550505050565b6001546001600160a01b031633146106c95760405162461bcd60e51b815260206004820181905260248201527f4f776e61626c653a2063616c6c6572206973206e6f7420746865206f776e657260448201526064015b60405180910390fd5b6106d36000610bca565b565b60405133904780156108fc02916000818181858888f19350505050158015610701573d6000803e3d6000fd5b50565b600260005414156107575760405162461bcd60e51b815260206004820152601f60248201527f5265656e7472616e637947756172643a207265656e7472616e742063616c6c0060448201526064016106c0565b6002600055610764610447565b6001146107a05760405162461bcd60e51b815260206004820152600a6024820152694e6f742061637469766560b01b60448201526064016106c0565b336000908152600260205260408120601154909183918291906103e8908310156107ff5760405162461bcd60e51b815260206004820152601060248201526f4e6f7420656e6f7567682076616c756560801b60448201526064016106c0565b6012548311156108425760405162461bcd60e51b815260206004820152600e60248201526d4f766572666c6f772076616c756560901b60448201526064016106c0565b61084a610ac6565b61088657610877816108718561086b60185486610c1c90919063ffffffff16565b90610bbe565b90610c28565b92506108838385611083565b91505b60045460125460009161089891611083565b9050600081116108dc5760405162461bcd60e51b815260206004820152600f60248201526e53616c65206973205375636365737360881b60448201526064016106c0565b6000610983600b60020160009054906101000a90046001600160a01b03166001600160a01b031663313ce5676040518163ffffffff1660e01b815260040160206040518083038186803b15801561093257600080fd5b505afa158015610946573d6000803e3d6000fd5b505050506040513d601f19601f8201168201806040525081019061096a9190610ef0565b61097590600a610fbc565b600e54610871908890610bbe565b9050858760000160008282546109999190610f41565b92505081905550808760010160008282546109b49190610f41565b9091555050600480548691906000906109ce908490610f41565b9091555050600580548291906000906109e8908490610f41565b90915550503360009081526003602052604081208054869290610a0c908490610f41565b9250508190555083601b6000828254610a259190610f41565b909155505060155460ff168015610a44575034610a428587610f41565b105b15610a8c57336108fc85610a588834611083565b610a629190611083565b6040518115909202916000818181858888f19350505050158015610a8a573d6000803e3d6000fd5b505b60155460ff16610ab757600d54610ab7906001600160a01b03163330610ab2888a610f41565b610c34565b50506001600055505050505050565b6000610ad3601933610d64565b905090565b6001546001600160a01b03163314610b325760405162461bcd60e51b815260206004820181905260248201527f4f776e61626c653a2063616c6c6572206973206e6f7420746865206f776e657260448201526064016106c0565b6001600160a01b038116610b975760405162461bcd60e51b815260206004820152602660248201527f4f776e61626c653a206e6577206f776e657220697320746865207a65726f206160448201526564647265737360d01b60648201526084016106c0565b61070181610bca565b6000610bb5836001600160a01b038416610d86565b90505b92915050565b6000610bb58284611064565b600180546001600160a01b038381166001600160a01b0319831681179093556040519116919082907f8be0079c531659141344cd1fd0a4f28419497f9722a3daafe3b4186f6b6457e090600090a35050565b6000610bb58284611083565b6000610bb58284610f59565b604080516001600160a01b0385811660248301528481166044830152606480830185905283518084039091018152608490920183526020820180516001600160e01b03166323b872dd60e01b1790529151600092839290881691610c989190610f08565b6000604051808303816000865af19150503d8060008114610cd5576040519150601f19603f3d011682016040523d82523d6000602084013e610cda565b606091505b5091509150818015610d04575080511580610d04575080806020019051810190610d049190610eb8565b610d5c5760405162461bcd60e51b8152602060048201526024808201527f5472616e7366657248656c7065723a205452414e534645525f46524f4d5f46416044820152631253115160e21b60648201526084016106c0565b505050505050565b6001600160a01b03811660009081526001830160205260408120541515610bb5565b6000818152600183016020526040812054610dcd57508154600181810184556000848152602080822090930184905584548482528286019093526040902091909155610bb8565b506000610bb8565b600060208284031215610de6578081fd5b8135610df1816110c6565b9392505050565b600080600080610140808688031215610e0f578384fd5b8535610e1a816110c6565b9450602086810135610e2b816110c6565b94506040870135610e3b816110c6565b9350607f87018813610e4b578283fd5b60405160e0810181811067ffffffffffffffff82111715610e6e57610e6e6110b0565b6040528060608901848a018b1015610e84578586fd5b8594505b6007851015610ea7578035825260019490940193908301908301610e88565b505080935050505092959194509250565b600060208284031215610ec9578081fd5b81518015158114610df1578182fd5b600060208284031215610ee9578081fd5b5035919050565b600060208284031215610f01578081fd5b5051919050565b60008251815b81811015610f285760208186018101518583015201610f0e565b81811115610f365782828501525b509190910192915050565b60008219821115610f5457610f5461109a565b500190565b600082610f7457634e487b7160e01b81526012600452602481fd5b500490565b600181815b80851115610fb4578160001904821115610f9a57610f9a61109a565b80851615610fa757918102915b93841c9390800290610f7e565b509250929050565b6000610bb58383600082610fd257506001610bb8565b81610fdf57506000610bb8565b8160018114610ff55760028114610fff5761101b565b6001915050610bb8565b60ff8411156110105761101061109a565b50506001821b610bb8565b5060208310610133831016604e8410600b841016171561103e575081810a610bb8565b6110488383610f79565b806000190482111561105c5761105c61109a565b029392505050565b600081600019048311821515161561107e5761107e61109a565b500290565b6000828210156110955761109561109a565b500390565b634e487b7160e01b600052601160045260246000fd5b634e487b7160e01b600052604160045260246000fd5b6001600160a01b038116811461070157600080fdfea2646970667358221220be2de8ea34aec43de128df4709520dae3450277f762b890ed197638bd2eb236c64736f6c63430008040033",
					"opcodes": "PUSH1 0x80 PUSH1 0x40 MSTORE PUSH1 0x1 PUSH1 0x0 SSTORE PUSH2 0x12 CALLER PUSH2 0x9C JUMP JUMPDEST PUSH1 0x17 DUP1 SLOAD PUSH20 0xC778417E063141139FCE010982780140AA0CD5AB PUSH1 0x1 PUSH1 0x1 PUSH1 0xA0 SHL SUB NOT SWAP1 SWAP2 AND OR SWAP1 SSTORE PUSH2 0x64 PUSH1 0x19 PUSH20 0x6CCB41EEDA5A073076F3E7DC1614C185B5FA41ED PUSH2 0xEE PUSH1 0x20 SWAP1 DUP2 SHL PUSH2 0xBA0 OR SWAP1 SHR JUMP JUMPDEST POP PUSH2 0x91 PUSH20 0x4F0B12BBF40FC182559822A5B1DB6D34DBC3E016 PUSH1 0x19 PUSH2 0xEE PUSH1 0x20 SHL PUSH2 0xBA0 OR SWAP1 SWAP2 SWAP1 PUSH1 0x20 SHR JUMP JUMPDEST POP PUSH1 0x14 PUSH1 0x18 SSTORE PUSH2 0x15B JUMP JUMPDEST PUSH1 0x1 DUP1 SLOAD PUSH1 0x1 PUSH1 0x1 PUSH1 0xA0 SHL SUB DUP4 DUP2 AND PUSH1 0x1 PUSH1 0x1 PUSH1 0xA0 SHL SUB NOT DUP4 AND DUP2 OR SWAP1 SWAP4 SSTORE PUSH1 0x40 MLOAD SWAP2 AND SWAP2 SWAP1 DUP3 SWAP1 PUSH32 0x8BE0079C531659141344CD1FD0A4F28419497F9722A3DAAFE3B4186F6B6457E0 SWAP1 PUSH1 0x0 SWAP1 LOG3 POP POP JUMP JUMPDEST PUSH1 0x0 PUSH2 0x103 DUP4 PUSH1 0x1 PUSH1 0x1 PUSH1 0xA0 SHL SUB DUP5 AND PUSH2 0x10C JUMP JUMPDEST SWAP1 POP JUMPDEST SWAP3 SWAP2 POP POP JUMP JUMPDEST PUSH1 0x0 DUP2 DUP2 MSTORE PUSH1 0x1 DUP4 ADD PUSH1 0x20 MSTORE PUSH1 0x40 DUP2 KECCAK256 SLOAD PUSH2 0x153 JUMPI POP DUP2 SLOAD PUSH1 0x1 DUP2 DUP2 ADD DUP5 SSTORE PUSH1 0x0 DUP5 DUP2 MSTORE PUSH1 0x20 DUP1 DUP3 KECCAK256 SWAP1 SWAP4 ADD DUP5 SWAP1 SSTORE DUP5 SLOAD DUP5 DUP3 MSTORE DUP3 DUP7 ADD SWAP1 SWAP4 MSTORE PUSH1 0x40 SWAP1 KECCAK256 SWAP2 SWAP1 SWAP2 SSTORE PUSH2 0x106 JUMP JUMPDEST POP PUSH1 0x0 PUSH2 0x106 JUMP JUMPDEST PUSH2 0x1111 DUP1 PUSH3 0x16B PUSH1 0x0 CODECOPY PUSH1 0x0 RETURN INVALID PUSH1 0x80 PUSH1 0x40 MSTORE PUSH1 0x4 CALLDATASIZE LT PUSH2 0xFE JUMPI PUSH1 0x0 CALLDATALOAD PUSH1 0xE0 SHR DUP1 PUSH4 0x861FAF5F GT PUSH2 0x95 JUMPI DUP1 PUSH4 0xB6B55F25 GT PUSH2 0x64 JUMPI DUP1 PUSH4 0xB6B55F25 EQ PUSH2 0x340 JUMPI DUP1 PUSH4 0xCAD5B0F7 EQ PUSH2 0x353 JUMPI DUP1 PUSH4 0xE2D3F423 EQ PUSH2 0x378 JUMPI DUP1 PUSH4 0xF2FDE38B EQ PUSH2 0x3FF JUMPI DUP1 PUSH4 0xF8B2CB4F EQ PUSH2 0x41F JUMPI PUSH1 0x0 DUP1 REVERT JUMPDEST DUP1 PUSH4 0x861FAF5F EQ PUSH2 0x28E JUMPI DUP1 PUSH4 0x8DA5CB5B EQ PUSH2 0x296 JUMPI DUP1 PUSH4 0xACFB2355 EQ PUSH2 0x2C8 JUMPI DUP1 PUSH4 0xAD5C4648 EQ PUSH2 0x320 JUMPI PUSH1 0x0 DUP1 REVERT JUMPDEST DUP1 PUSH4 0x4329DB46 GT PUSH2 0xD1 JUMPI DUP1 PUSH4 0x4329DB46 EQ PUSH2 0x217 JUMPI DUP1 PUSH4 0x56C5F349 EQ PUSH2 0x22C JUMPI DUP1 PUSH4 0x61E17655 EQ PUSH2 0x259 JUMPI DUP1 PUSH4 0x715018A6 EQ PUSH2 0x279 JUMPI PUSH1 0x0 DUP1 REVERT JUMPDEST DUP1 PUSH4 0x18856A2F EQ PUSH2 0x103 JUMPI DUP1 PUSH4 0x1DF4CCFC EQ PUSH2 0x1C8 JUMPI DUP1 PUSH4 0x200D2ED2 EQ PUSH2 0x1EC JUMPI DUP1 PUSH4 0x3B5EF2AD EQ PUSH2 0x201 JUMPI JUMPDEST PUSH1 0x0 DUP1 REVERT JUMPDEST CALLVALUE DUP1 ISZERO PUSH2 0x10F JUMPI PUSH1 0x0 DUP1 REVERT JUMPDEST POP PUSH1 0xB SLOAD PUSH1 0xC SLOAD PUSH1 0xD SLOAD PUSH1 0xE SLOAD PUSH1 0xF SLOAD PUSH1 0x10 SLOAD PUSH1 0x11 SLOAD PUSH1 0x12 SLOAD PUSH1 0x13 SLOAD PUSH1 0x14 SLOAD PUSH1 0x15 SLOAD PUSH1 0x16 SLOAD PUSH2 0x157 SWAP12 PUSH1 0x1 PUSH1 0x1 PUSH1 0xA0 SHL SUB SWAP1 DUP2 AND SWAP12 DUP2 AND SWAP11 AND SWAP9 SWAP8 SWAP7 SWAP6 SWAP5 SWAP4 SWAP3 SWAP2 PUSH1 0xFF AND SWAP1 DUP13 JUMP JUMPDEST PUSH1 0x40 DUP1 MLOAD PUSH1 0x1 PUSH1 0x1 PUSH1 0xA0 SHL SUB SWAP14 DUP15 AND DUP2 MSTORE SWAP12 DUP14 AND PUSH1 0x20 DUP14 ADD MSTORE SWAP10 SWAP1 SWAP12 AND SWAP9 DUP11 ADD SWAP9 SWAP1 SWAP9 MSTORE PUSH1 0x60 DUP10 ADD SWAP7 SWAP1 SWAP7 MSTORE PUSH1 0x80 DUP9 ADD SWAP5 SWAP1 SWAP5 MSTORE PUSH1 0xA0 DUP8 ADD SWAP3 SWAP1 SWAP3 MSTORE PUSH1 0xC0 DUP7 ADD MSTORE PUSH1 0xE0 DUP6 ADD MSTORE PUSH2 0x100 DUP5 ADD MSTORE PUSH2 0x120 DUP4 ADD MSTORE ISZERO ISZERO PUSH2 0x140 DUP3 ADD MSTORE PUSH2 0x160 DUP2 ADD SWAP2 SWAP1 SWAP2 MSTORE PUSH2 0x180 ADD JUMPDEST PUSH1 0x40 MLOAD DUP1 SWAP2 SUB SWAP1 RETURN JUMPDEST CALLVALUE DUP1 ISZERO PUSH2 0x1D4 JUMPI PUSH1 0x0 DUP1 REVERT JUMPDEST POP PUSH2 0x1DE PUSH1 0x1B SLOAD DUP2 JUMP JUMPDEST PUSH1 0x40 MLOAD SWAP1 DUP2 MSTORE PUSH1 0x20 ADD PUSH2 0x1BF JUMP JUMPDEST CALLVALUE DUP1 ISZERO PUSH2 0x1F8 JUMPI PUSH1 0x0 DUP1 REVERT JUMPDEST POP PUSH2 0x1DE PUSH2 0x447 JUMP JUMPDEST CALLVALUE DUP1 ISZERO PUSH2 0x20D JUMPI PUSH1 0x0 DUP1 REVERT JUMPDEST POP PUSH2 0x1DE PUSH1 0x18 SLOAD DUP2 JUMP JUMPDEST PUSH2 0x22A PUSH2 0x225 CALLDATASIZE PUSH1 0x4 PUSH2 0xED8 JUMP JUMPDEST PUSH2 0x470 JUMP JUMPDEST STOP JUMPDEST CALLVALUE DUP1 ISZERO PUSH2 0x238 JUMPI PUSH1 0x0 DUP1 REVERT JUMPDEST POP PUSH2 0x1DE PUSH2 0x247 CALLDATASIZE PUSH1 0x4 PUSH2 0xDD5 JUMP JUMPDEST PUSH1 0x3 PUSH1 0x20 MSTORE PUSH1 0x0 SWAP1 DUP2 MSTORE PUSH1 0x40 SWAP1 KECCAK256 SLOAD DUP2 JUMP JUMPDEST CALLVALUE DUP1 ISZERO PUSH2 0x265 JUMPI PUSH1 0x0 DUP1 REVERT JUMPDEST POP PUSH2 0x22A PUSH2 0x274 CALLDATASIZE PUSH1 0x4 PUSH2 0xDF8 JUMP JUMPDEST PUSH2 0x4AA JUMP JUMPDEST CALLVALUE DUP1 ISZERO PUSH2 0x285 JUMPI PUSH1 0x0 DUP1 REVERT JUMPDEST POP PUSH2 0x22A PUSH2 0x66A JUMP JUMPDEST PUSH2 0x22A PUSH2 0x6D5 JUMP JUMPDEST CALLVALUE DUP1 ISZERO PUSH2 0x2A2 JUMPI PUSH1 0x0 DUP1 REVERT JUMPDEST POP PUSH1 0x1 SLOAD PUSH1 0x1 PUSH1 0x1 PUSH1 0xA0 SHL SUB AND JUMPDEST PUSH1 0x40 MLOAD PUSH1 0x1 PUSH1 0x1 PUSH1 0xA0 SHL SUB SWAP1 SWAP2 AND DUP2 MSTORE PUSH1 0x20 ADD PUSH2 0x1BF JUMP JUMPDEST CALLVALUE DUP1 ISZERO PUSH2 0x2D4 JUMPI PUSH1 0x0 DUP1 REVERT JUMPDEST POP PUSH1 0x4 SLOAD PUSH1 0x5 SLOAD PUSH1 0x6 SLOAD PUSH1 0x7 SLOAD PUSH1 0x8 SLOAD PUSH1 0x9 SLOAD PUSH2 0x2F3 SWAP6 SWAP5 SWAP4 SWAP3 SWAP2 SWAP1 DUP7 JUMP JUMPDEST PUSH1 0x40 DUP1 MLOAD SWAP7 DUP8 MSTORE PUSH1 0x20 DUP8 ADD SWAP6 SWAP1 SWAP6 MSTORE SWAP4 DUP6 ADD SWAP3 SWAP1 SWAP3 MSTORE PUSH1 0x60 DUP5 ADD MSTORE PUSH1 0x80 DUP4 ADD MSTORE PUSH1 0xA0 DUP3 ADD MSTORE PUSH1 0xC0 ADD PUSH2 0x1BF JUMP JUMPDEST CALLVALUE DUP1 ISZERO PUSH2 0x32C JUMPI PUSH1 0x0 DUP1 REVERT JUMPDEST POP PUSH1 0x17 SLOAD PUSH2 0x2B0 SWAP1 PUSH1 0x1 PUSH1 0x1 PUSH1 0xA0 SHL SUB AND DUP2 JUMP JUMPDEST PUSH2 0x22A PUSH2 0x34E CALLDATASIZE PUSH1 0x4 PUSH2 0xED8 JUMP JUMPDEST PUSH2 0x704 JUMP JUMPDEST CALLVALUE DUP1 ISZERO PUSH2 0x35F JUMPI PUSH1 0x0 DUP1 REVERT JUMPDEST POP PUSH2 0x368 PUSH2 0xAC6 JUMP JUMPDEST PUSH1 0x40 MLOAD SWAP1 ISZERO ISZERO DUP2 MSTORE PUSH1 0x20 ADD PUSH2 0x1BF JUMP JUMPDEST CALLVALUE DUP1 ISZERO PUSH2 0x384 JUMPI PUSH1 0x0 DUP1 REVERT JUMPDEST POP PUSH2 0x3CE PUSH2 0x393 CALLDATASIZE PUSH1 0x4 PUSH2 0xDD5 JUMP JUMPDEST PUSH1 0x2 PUSH1 0x20 DUP2 SWAP1 MSTORE PUSH1 0x0 SWAP2 DUP3 MSTORE PUSH1 0x40 SWAP1 SWAP2 KECCAK256 DUP1 SLOAD PUSH1 0x1 DUP3 ADD SLOAD SWAP3 DUP3 ADD SLOAD PUSH1 0x3 DUP4 ADD SLOAD PUSH1 0x4 SWAP1 SWAP4 ADD SLOAD SWAP2 SWAP4 SWAP3 SWAP1 SWAP2 PUSH1 0xFF DUP1 DUP3 AND SWAP2 PUSH2 0x100 SWAP1 DIV AND DUP7 JUMP JUMPDEST PUSH1 0x40 DUP1 MLOAD SWAP7 DUP8 MSTORE PUSH1 0x20 DUP8 ADD SWAP6 SWAP1 SWAP6 MSTORE SWAP4 DUP6 ADD SWAP3 SWAP1 SWAP3 MSTORE PUSH1 0x60 DUP5 ADD MSTORE ISZERO ISZERO PUSH1 0x80 DUP4 ADD MSTORE ISZERO ISZERO PUSH1 0xA0 DUP3 ADD MSTORE PUSH1 0xC0 ADD PUSH2 0x1BF JUMP JUMPDEST CALLVALUE DUP1 ISZERO PUSH2 0x40B JUMPI PUSH1 0x0 DUP1 REVERT JUMPDEST POP PUSH2 0x22A PUSH2 0x41A CALLDATASIZE PUSH1 0x4 PUSH2 0xDD5 JUMP JUMPDEST PUSH2 0xAD8 JUMP JUMPDEST CALLVALUE DUP1 ISZERO PUSH2 0x42B JUMPI PUSH1 0x0 DUP1 REVERT JUMPDEST POP PUSH2 0x1DE PUSH2 0x43A CALLDATASIZE PUSH1 0x4 PUSH2 0xDD5 JUMP JUMPDEST PUSH1 0x1 PUSH1 0x1 PUSH1 0xA0 SHL SUB AND BALANCE SWAP1 JUMP JUMPDEST PUSH1 0xF SLOAD PUSH1 0x0 SWAP1 TIMESTAMP LT ISZERO PUSH2 0x45A JUMPI POP PUSH1 0x0 SWAP1 JUMP JUMPDEST PUSH1 0x10 SLOAD TIMESTAMP GT ISZERO PUSH2 0x46A JUMPI POP PUSH1 0x2 SWAP1 JUMP JUMPDEST POP PUSH1 0x1 SWAP1 JUMP JUMPDEST CALLER PUSH2 0x8FC PUSH2 0x47E DUP4 CALLVALUE PUSH2 0x1083 JUMP JUMPDEST PUSH1 0x40 MLOAD DUP2 ISZERO SWAP1 SWAP3 MUL SWAP2 PUSH1 0x0 DUP2 DUP2 DUP2 DUP6 DUP9 DUP9 CALL SWAP4 POP POP POP POP ISZERO DUP1 ISZERO PUSH2 0x4A6 JUMPI RETURNDATASIZE PUSH1 0x0 DUP1 RETURNDATACOPY RETURNDATASIZE PUSH1 0x0 REVERT JUMPDEST POP POP JUMP JUMPDEST PUSH1 0xB DUP1 SLOAD PUSH1 0x1 PUSH1 0x1 PUSH1 0xA0 SHL SUB DUP1 DUP8 AND PUSH1 0x1 PUSH1 0x1 PUSH1 0xA0 SHL SUB NOT SWAP3 DUP4 AND OR SWAP1 SWAP3 SSTORE PUSH1 0xC DUP1 SLOAD DUP7 DUP5 AND SWAP1 DUP4 AND DUP2 OR SWAP1 SWAP2 SSTORE PUSH1 0xD DUP1 SLOAD SWAP4 DUP7 AND SWAP4 SWAP1 SWAP3 AND SWAP3 SWAP1 SWAP3 OR SWAP1 SSTORE PUSH1 0x40 DUP1 MLOAD PUSH4 0x313CE567 PUSH1 0xE0 SHL DUP2 MSTORE SWAP1 MLOAD PUSH4 0x313CE567 SWAP2 PUSH1 0x4 DUP1 DUP3 ADD SWAP3 PUSH1 0x20 SWAP3 SWAP1 SWAP2 SWAP1 DUP3 SWAP1 SUB ADD DUP2 DUP7 DUP1 EXTCODESIZE ISZERO DUP1 ISZERO PUSH2 0x51F JUMPI PUSH1 0x0 DUP1 REVERT JUMPDEST POP GAS STATICCALL ISZERO DUP1 ISZERO PUSH2 0x533 JUMPI RETURNDATASIZE PUSH1 0x0 DUP1 RETURNDATACOPY RETURNDATASIZE PUSH1 0x0 REVERT JUMPDEST POP POP POP POP PUSH1 0x40 MLOAD RETURNDATASIZE PUSH1 0x1F NOT PUSH1 0x1F DUP3 ADD AND DUP3 ADD DUP1 PUSH1 0x40 MSTORE POP DUP2 ADD SWAP1 PUSH2 0x557 SWAP2 SWAP1 PUSH2 0xEF0 JUMP JUMPDEST PUSH2 0x562 SWAP1 PUSH1 0xA PUSH2 0xFBC JUMP JUMPDEST DUP2 MLOAD PUSH2 0x56E SWAP2 SWAP1 PUSH2 0x1064 JUMP JUMPDEST PUSH1 0xE SSTORE PUSH1 0x20 DUP1 DUP3 ADD MLOAD PUSH1 0xF SSTORE PUSH1 0x40 DUP1 DUP4 ADD MLOAD PUSH1 0x10 SSTORE PUSH1 0x60 DUP4 ADD MLOAD PUSH1 0x11 SSTORE PUSH1 0xD SLOAD DUP2 MLOAD PUSH4 0x313CE567 PUSH1 0xE0 SHL DUP2 MSTORE SWAP2 MLOAD PUSH1 0x1 PUSH1 0x1 PUSH1 0xA0 SHL SUB SWAP1 SWAP2 AND SWAP3 PUSH4 0x313CE567 SWAP3 PUSH1 0x4 DUP1 DUP3 ADD SWAP4 SWAP2 DUP3 SWAP1 SUB ADD DUP2 DUP7 DUP1 EXTCODESIZE ISZERO DUP1 ISZERO PUSH2 0x5C9 JUMPI PUSH1 0x0 DUP1 REVERT JUMPDEST POP GAS STATICCALL ISZERO DUP1 ISZERO PUSH2 0x5DD JUMPI RETURNDATASIZE PUSH1 0x0 DUP1 RETURNDATACOPY RETURNDATASIZE PUSH1 0x0 REVERT JUMPDEST POP POP POP POP PUSH1 0x40 MLOAD RETURNDATASIZE PUSH1 0x1F NOT PUSH1 0x1F DUP3 ADD AND DUP3 ADD DUP1 PUSH1 0x40 MSTORE POP DUP2 ADD SWAP1 PUSH2 0x601 SWAP2 SWAP1 PUSH2 0xEF0 JUMP JUMPDEST PUSH2 0x60C SWAP1 PUSH1 0xA PUSH2 0xFBC JUMP JUMPDEST PUSH1 0x80 DUP3 ADD MLOAD PUSH2 0x61B SWAP2 SWAP1 PUSH2 0x1064 JUMP JUMPDEST PUSH1 0x12 SSTORE PUSH1 0xA0 DUP2 ADD MLOAD PUSH1 0x13 SSTORE PUSH1 0xC0 DUP2 ADD MLOAD PUSH1 0x14 SSTORE PUSH1 0xD SLOAD PUSH1 0x17 SLOAD PUSH1 0x15 DUP1 SLOAD PUSH1 0x1 PUSH1 0x1 PUSH1 0xA0 SHL SUB SWAP4 DUP5 AND SWAP4 SWAP1 SWAP3 AND SWAP3 SWAP1 SWAP3 EQ PUSH1 0xFF NOT SWAP1 SWAP2 AND OR SWAP1 SSTORE PUSH1 0xE SLOAD PUSH2 0x661 SWAP1 DUP1 PUSH2 0xBBE JUMP JUMPDEST PUSH1 0x16 SSTORE POP POP POP POP JUMP JUMPDEST PUSH1 0x1 SLOAD PUSH1 0x1 PUSH1 0x1 PUSH1 0xA0 SHL SUB AND CALLER EQ PUSH2 0x6C9 JUMPI PUSH1 0x40 MLOAD PUSH3 0x461BCD PUSH1 0xE5 SHL DUP2 MSTORE PUSH1 0x20 PUSH1 0x4 DUP3 ADD DUP2 SWAP1 MSTORE PUSH1 0x24 DUP3 ADD MSTORE PUSH32 0x4F776E61626C653A2063616C6C6572206973206E6F7420746865206F776E6572 PUSH1 0x44 DUP3 ADD MSTORE PUSH1 0x64 ADD JUMPDEST PUSH1 0x40 MLOAD DUP1 SWAP2 SUB SWAP1 REVERT JUMPDEST PUSH2 0x6D3 PUSH1 0x0 PUSH2 0xBCA JUMP JUMPDEST JUMP JUMPDEST PUSH1 0x40 MLOAD CALLER SWAP1 SELFBALANCE DUP1 ISZERO PUSH2 0x8FC MUL SWAP2 PUSH1 0x0 DUP2 DUP2 DUP2 DUP6 DUP9 DUP9 CALL SWAP4 POP POP POP POP ISZERO DUP1 ISZERO PUSH2 0x701 JUMPI RETURNDATASIZE PUSH1 0x0 DUP1 RETURNDATACOPY RETURNDATASIZE PUSH1 0x0 REVERT JUMPDEST POP JUMP JUMPDEST PUSH1 0x2 PUSH1 0x0 SLOAD EQ ISZERO PUSH2 0x757 JUMPI PUSH1 0x40 MLOAD PUSH3 0x461BCD PUSH1 0xE5 SHL DUP2 MSTORE PUSH1 0x20 PUSH1 0x4 DUP3 ADD MSTORE PUSH1 0x1F PUSH1 0x24 DUP3 ADD MSTORE PUSH32 0x5265656E7472616E637947756172643A207265656E7472616E742063616C6C00 PUSH1 0x44 DUP3 ADD MSTORE PUSH1 0x64 ADD PUSH2 0x6C0 JUMP JUMPDEST PUSH1 0x2 PUSH1 0x0 SSTORE PUSH2 0x764 PUSH2 0x447 JUMP JUMPDEST PUSH1 0x1 EQ PUSH2 0x7A0 JUMPI PUSH1 0x40 MLOAD PUSH3 0x461BCD PUSH1 0xE5 SHL DUP2 MSTORE PUSH1 0x20 PUSH1 0x4 DUP3 ADD MSTORE PUSH1 0xA PUSH1 0x24 DUP3 ADD MSTORE PUSH10 0x4E6F7420616374697665 PUSH1 0xB0 SHL PUSH1 0x44 DUP3 ADD MSTORE PUSH1 0x64 ADD PUSH2 0x6C0 JUMP JUMPDEST CALLER PUSH1 0x0 SWAP1 DUP2 MSTORE PUSH1 0x2 PUSH1 0x20 MSTORE PUSH1 0x40 DUP2 KECCAK256 PUSH1 0x11 SLOAD SWAP1 SWAP2 DUP4 SWAP2 DUP3 SWAP2 SWAP1 PUSH2 0x3E8 SWAP1 DUP4 LT ISZERO PUSH2 0x7FF JUMPI PUSH1 0x40 MLOAD PUSH3 0x461BCD PUSH1 0xE5 SHL DUP2 MSTORE PUSH1 0x20 PUSH1 0x4 DUP3 ADD MSTORE PUSH1 0x10 PUSH1 0x24 DUP3 ADD MSTORE PUSH16 0x4E6F7420656E6F7567682076616C7565 PUSH1 0x80 SHL PUSH1 0x44 DUP3 ADD MSTORE PUSH1 0x64 ADD PUSH2 0x6C0 JUMP JUMPDEST PUSH1 0x12 SLOAD DUP4 GT ISZERO PUSH2 0x842 JUMPI PUSH1 0x40 MLOAD PUSH3 0x461BCD PUSH1 0xE5 SHL DUP2 MSTORE PUSH1 0x20 PUSH1 0x4 DUP3 ADD MSTORE PUSH1 0xE PUSH1 0x24 DUP3 ADD MSTORE PUSH14 0x4F766572666C6F772076616C7565 PUSH1 0x90 SHL PUSH1 0x44 DUP3 ADD MSTORE PUSH1 0x64 ADD PUSH2 0x6C0 JUMP JUMPDEST PUSH2 0x84A PUSH2 0xAC6 JUMP JUMPDEST PUSH2 0x886 JUMPI PUSH2 0x877 DUP2 PUSH2 0x871 DUP6 PUSH2 0x86B PUSH1 0x18 SLOAD DUP7 PUSH2 0xC1C SWAP1 SWAP2 SWAP1 PUSH4 0xFFFFFFFF AND JUMP JUMPDEST SWAP1 PUSH2 0xBBE JUMP JUMPDEST SWAP1 PUSH2 0xC28 JUMP JUMPDEST SWAP3 POP PUSH2 0x883 DUP4 DUP6 PUSH2 0x1083 JUMP JUMPDEST SWAP2 POP JUMPDEST PUSH1 0x4 SLOAD PUSH1 0x12 SLOAD PUSH1 0x0 SWAP2 PUSH2 0x898 SWAP2 PUSH2 0x1083 JUMP JUMPDEST SWAP1 POP PUSH1 0x0 DUP2 GT PUSH2 0x8DC JUMPI PUSH1 0x40 MLOAD PUSH3 0x461BCD PUSH1 0xE5 SHL DUP2 MSTORE PUSH1 0x20 PUSH1 0x4 DUP3 ADD MSTORE PUSH1 0xF PUSH1 0x24 DUP3 ADD MSTORE PUSH15 0x53616C652069732053756363657373 PUSH1 0x88 SHL PUSH1 0x44 DUP3 ADD MSTORE PUSH1 0x64 ADD PUSH2 0x6C0 JUMP JUMPDEST PUSH1 0x0 PUSH2 0x983 PUSH1 0xB PUSH1 0x2 ADD PUSH1 0x0 SWAP1 SLOAD SWAP1 PUSH2 0x100 EXP SWAP1 DIV PUSH1 0x1 PUSH1 0x1 PUSH1 0xA0 SHL SUB AND PUSH1 0x1 PUSH1 0x1 PUSH1 0xA0 SHL SUB AND PUSH4 0x313CE567 PUSH1 0x40 MLOAD DUP2 PUSH4 0xFFFFFFFF AND PUSH1 0xE0 SHL DUP2 MSTORE PUSH1 0x4 ADD PUSH1 0x20 PUSH1 0x40 MLOAD DUP1 DUP4 SUB DUP2 DUP7 DUP1 EXTCODESIZE ISZERO DUP1 ISZERO PUSH2 0x932 JUMPI PUSH1 0x0 DUP1 REVERT JUMPDEST POP GAS STATICCALL ISZERO DUP1 ISZERO PUSH2 0x946 JUMPI RETURNDATASIZE PUSH1 0x0 DUP1 RETURNDATACOPY RETURNDATASIZE PUSH1 0x0 REVERT JUMPDEST POP POP POP POP PUSH1 0x40 MLOAD RETURNDATASIZE PUSH1 0x1F NOT PUSH1 0x1F DUP3 ADD AND DUP3 ADD DUP1 PUSH1 0x40 MSTORE POP DUP2 ADD SWAP1 PUSH2 0x96A SWAP2 SWAP1 PUSH2 0xEF0 JUMP JUMPDEST PUSH2 0x975 SWAP1 PUSH1 0xA PUSH2 0xFBC JUMP JUMPDEST PUSH1 0xE SLOAD PUSH2 0x871 SWAP1 DUP9 SWAP1 PUSH2 0xBBE JUMP JUMPDEST SWAP1 POP DUP6 DUP8 PUSH1 0x0 ADD PUSH1 0x0 DUP3 DUP3 SLOAD PUSH2 0x999 SWAP2 SWAP1 PUSH2 0xF41 JUMP JUMPDEST SWAP3 POP POP DUP2 SWAP1 SSTORE POP DUP1 DUP8 PUSH1 0x1 ADD PUSH1 0x0 DUP3 DUP3 SLOAD PUSH2 0x9B4 SWAP2 SWAP1 PUSH2 0xF41 JUMP JUMPDEST SWAP1 SWAP2 SSTORE POP POP PUSH1 0x4 DUP1 SLOAD DUP7 SWAP2 SWAP1 PUSH1 0x0 SWAP1 PUSH2 0x9CE SWAP1 DUP5 SWAP1 PUSH2 0xF41 JUMP JUMPDEST SWAP1 SWAP2 SSTORE POP POP PUSH1 0x5 DUP1 SLOAD DUP3 SWAP2 SWAP1 PUSH1 0x0 SWAP1 PUSH2 0x9E8 SWAP1 DUP5 SWAP1 PUSH2 0xF41 JUMP JUMPDEST SWAP1 SWAP2 SSTORE POP POP CALLER PUSH1 0x0 SWAP1 DUP2 MSTORE PUSH1 0x3 PUSH1 0x20 MSTORE PUSH1 0x40 DUP2 KECCAK256 DUP1 SLOAD DUP7 SWAP3 SWAP1 PUSH2 0xA0C SWAP1 DUP5 SWAP1 PUSH2 0xF41 JUMP JUMPDEST SWAP3 POP POP DUP2 SWAP1 SSTORE POP DUP4 PUSH1 0x1B PUSH1 0x0 DUP3 DUP3 SLOAD PUSH2 0xA25 SWAP2 SWAP1 PUSH2 0xF41 JUMP JUMPDEST SWAP1 SWAP2 SSTORE POP POP PUSH1 0x15 SLOAD PUSH1 0xFF AND DUP1 ISZERO PUSH2 0xA44 JUMPI POP CALLVALUE PUSH2 0xA42 DUP6 DUP8 PUSH2 0xF41 JUMP JUMPDEST LT JUMPDEST ISZERO PUSH2 0xA8C JUMPI CALLER PUSH2 0x8FC DUP6 PUSH2 0xA58 DUP9 CALLVALUE PUSH2 0x1083 JUMP JUMPDEST PUSH2 0xA62 SWAP2 SWAP1 PUSH2 0x1083 JUMP JUMPDEST PUSH1 0x40 MLOAD DUP2 ISZERO SWAP1 SWAP3 MUL SWAP2 PUSH1 0x0 DUP2 DUP2 DUP2 DUP6 DUP9 DUP9 CALL SWAP4 POP POP POP POP ISZERO DUP1 ISZERO PUSH2 0xA8A JUMPI RETURNDATASIZE PUSH1 0x0 DUP1 RETURNDATACOPY RETURNDATASIZE PUSH1 0x0 REVERT JUMPDEST POP JUMPDEST PUSH1 0x15 SLOAD PUSH1 0xFF AND PUSH2 0xAB7 JUMPI PUSH1 0xD SLOAD PUSH2 0xAB7 SWAP1 PUSH1 0x1 PUSH1 0x1 PUSH1 0xA0 SHL SUB AND CALLER ADDRESS PUSH2 0xAB2 DUP9 DUP11 PUSH2 0xF41 JUMP JUMPDEST PUSH2 0xC34 JUMP JUMPDEST POP POP PUSH1 0x1 PUSH1 0x0 SSTORE POP POP POP POP POP POP JUMP JUMPDEST PUSH1 0x0 PUSH2 0xAD3 PUSH1 0x19 CALLER PUSH2 0xD64 JUMP JUMPDEST SWAP1 POP SWAP1 JUMP JUMPDEST PUSH1 0x1 SLOAD PUSH1 0x1 PUSH1 0x1 PUSH1 0xA0 SHL SUB AND CALLER EQ PUSH2 0xB32 JUMPI PUSH1 0x40 MLOAD PUSH3 0x461BCD PUSH1 0xE5 SHL DUP2 MSTORE PUSH1 0x20 PUSH1 0x4 DUP3 ADD DUP2 SWAP1 MSTORE PUSH1 0x24 DUP3 ADD MSTORE PUSH32 0x4F776E61626C653A2063616C6C6572206973206E6F7420746865206F776E6572 PUSH1 0x44 DUP3 ADD MSTORE PUSH1 0x64 ADD PUSH2 0x6C0 JUMP JUMPDEST PUSH1 0x1 PUSH1 0x1 PUSH1 0xA0 SHL SUB DUP2 AND PUSH2 0xB97 JUMPI PUSH1 0x40 MLOAD PUSH3 0x461BCD PUSH1 0xE5 SHL DUP2 MSTORE PUSH1 0x20 PUSH1 0x4 DUP3 ADD MSTORE PUSH1 0x26 PUSH1 0x24 DUP3 ADD MSTORE PUSH32 0x4F776E61626C653A206E6577206F776E657220697320746865207A65726F2061 PUSH1 0x44 DUP3 ADD MSTORE PUSH6 0x646472657373 PUSH1 0xD0 SHL PUSH1 0x64 DUP3 ADD MSTORE PUSH1 0x84 ADD PUSH2 0x6C0 JUMP JUMPDEST PUSH2 0x701 DUP2 PUSH2 0xBCA JUMP JUMPDEST PUSH1 0x0 PUSH2 0xBB5 DUP4 PUSH1 0x1 PUSH1 0x1 PUSH1 0xA0 SHL SUB DUP5 AND PUSH2 0xD86 JUMP JUMPDEST SWAP1 POP JUMPDEST SWAP3 SWAP2 POP POP JUMP JUMPDEST PUSH1 0x0 PUSH2 0xBB5 DUP3 DUP5 PUSH2 0x1064 JUMP JUMPDEST PUSH1 0x1 DUP1 SLOAD PUSH1 0x1 PUSH1 0x1 PUSH1 0xA0 SHL SUB DUP4 DUP2 AND PUSH1 0x1 PUSH1 0x1 PUSH1 0xA0 SHL SUB NOT DUP4 AND DUP2 OR SWAP1 SWAP4 SSTORE PUSH1 0x40 MLOAD SWAP2 AND SWAP2 SWAP1 DUP3 SWAP1 PUSH32 0x8BE0079C531659141344CD1FD0A4F28419497F9722A3DAAFE3B4186F6B6457E0 SWAP1 PUSH1 0x0 SWAP1 LOG3 POP POP JUMP JUMPDEST PUSH1 0x0 PUSH2 0xBB5 DUP3 DUP5 PUSH2 0x1083 JUMP JUMPDEST PUSH1 0x0 PUSH2 0xBB5 DUP3 DUP5 PUSH2 0xF59 JUMP JUMPDEST PUSH1 0x40 DUP1 MLOAD PUSH1 0x1 PUSH1 0x1 PUSH1 0xA0 SHL SUB DUP6 DUP2 AND PUSH1 0x24 DUP4 ADD MSTORE DUP5 DUP2 AND PUSH1 0x44 DUP4 ADD MSTORE PUSH1 0x64 DUP1 DUP4 ADD DUP6 SWAP1 MSTORE DUP4 MLOAD DUP1 DUP5 SUB SWAP1 SWAP2 ADD DUP2 MSTORE PUSH1 0x84 SWAP1 SWAP3 ADD DUP4 MSTORE PUSH1 0x20 DUP3 ADD DUP1 MLOAD PUSH1 0x1 PUSH1 0x1 PUSH1 0xE0 SHL SUB AND PUSH4 0x23B872DD PUSH1 0xE0 SHL OR SWAP1 MSTORE SWAP2 MLOAD PUSH1 0x0 SWAP3 DUP4 SWAP3 SWAP1 DUP9 AND SWAP2 PUSH2 0xC98 SWAP2 SWAP1 PUSH2 0xF08 JUMP JUMPDEST PUSH1 0x0 PUSH1 0x40 MLOAD DUP1 DUP4 SUB DUP2 PUSH1 0x0 DUP7 GAS CALL SWAP2 POP POP RETURNDATASIZE DUP1 PUSH1 0x0 DUP2 EQ PUSH2 0xCD5 JUMPI PUSH1 0x40 MLOAD SWAP2 POP PUSH1 0x1F NOT PUSH1 0x3F RETURNDATASIZE ADD AND DUP3 ADD PUSH1 0x40 MSTORE RETURNDATASIZE DUP3 MSTORE RETURNDATASIZE PUSH1 0x0 PUSH1 0x20 DUP5 ADD RETURNDATACOPY PUSH2 0xCDA JUMP JUMPDEST PUSH1 0x60 SWAP2 POP JUMPDEST POP SWAP2 POP SWAP2 POP DUP2 DUP1 ISZERO PUSH2 0xD04 JUMPI POP DUP1 MLOAD ISZERO DUP1 PUSH2 0xD04 JUMPI POP DUP1 DUP1 PUSH1 0x20 ADD SWAP1 MLOAD DUP2 ADD SWAP1 PUSH2 0xD04 SWAP2 SWAP1 PUSH2 0xEB8 JUMP JUMPDEST PUSH2 0xD5C JUMPI PUSH1 0x40 MLOAD PUSH3 0x461BCD PUSH1 0xE5 SHL DUP2 MSTORE PUSH1 0x20 PUSH1 0x4 DUP3 ADD MSTORE PUSH1 0x24 DUP1 DUP3 ADD MSTORE PUSH32 0x5472616E7366657248656C7065723A205452414E534645525F46524F4D5F4641 PUSH1 0x44 DUP3 ADD MSTORE PUSH4 0x12531151 PUSH1 0xE2 SHL PUSH1 0x64 DUP3 ADD MSTORE PUSH1 0x84 ADD PUSH2 0x6C0 JUMP JUMPDEST POP POP POP POP POP POP JUMP JUMPDEST PUSH1 0x1 PUSH1 0x1 PUSH1 0xA0 SHL SUB DUP2 AND PUSH1 0x0 SWAP1 DUP2 MSTORE PUSH1 0x1 DUP4 ADD PUSH1 0x20 MSTORE PUSH1 0x40 DUP2 KECCAK256 SLOAD ISZERO ISZERO PUSH2 0xBB5 JUMP JUMPDEST PUSH1 0x0 DUP2 DUP2 MSTORE PUSH1 0x1 DUP4 ADD PUSH1 0x20 MSTORE PUSH1 0x40 DUP2 KECCAK256 SLOAD PUSH2 0xDCD JUMPI POP DUP2 SLOAD PUSH1 0x1 DUP2 DUP2 ADD DUP5 SSTORE PUSH1 0x0 DUP5 DUP2 MSTORE PUSH1 0x20 DUP1 DUP3 KECCAK256 SWAP1 SWAP4 ADD DUP5 SWAP1 SSTORE DUP5 SLOAD DUP5 DUP3 MSTORE DUP3 DUP7 ADD SWAP1 SWAP4 MSTORE PUSH1 0x40 SWAP1 KECCAK256 SWAP2 SWAP1 SWAP2 SSTORE PUSH2 0xBB8 JUMP JUMPDEST POP PUSH1 0x0 PUSH2 0xBB8 JUMP JUMPDEST PUSH1 0x0 PUSH1 0x20 DUP3 DUP5 SUB SLT ISZERO PUSH2 0xDE6 JUMPI DUP1 DUP2 REVERT JUMPDEST DUP2 CALLDATALOAD PUSH2 0xDF1 DUP2 PUSH2 0x10C6 JUMP JUMPDEST SWAP4 SWAP3 POP POP POP JUMP JUMPDEST PUSH1 0x0 DUP1 PUSH1 0x0 DUP1 PUSH2 0x140 DUP1 DUP7 DUP9 SUB SLT ISZERO PUSH2 0xE0F JUMPI DUP4 DUP5 REVERT JUMPDEST DUP6 CALLDATALOAD PUSH2 0xE1A DUP2 PUSH2 0x10C6 JUMP JUMPDEST SWAP5 POP PUSH1 0x20 DUP7 DUP2 ADD CALLDATALOAD PUSH2 0xE2B DUP2 PUSH2 0x10C6 JUMP JUMPDEST SWAP5 POP PUSH1 0x40 DUP8 ADD CALLDATALOAD PUSH2 0xE3B DUP2 PUSH2 0x10C6 JUMP JUMPDEST SWAP4 POP PUSH1 0x7F DUP8 ADD DUP9 SGT PUSH2 0xE4B JUMPI DUP3 DUP4 REVERT JUMPDEST PUSH1 0x40 MLOAD PUSH1 0xE0 DUP2 ADD DUP2 DUP2 LT PUSH8 0xFFFFFFFFFFFFFFFF DUP3 GT OR ISZERO PUSH2 0xE6E JUMPI PUSH2 0xE6E PUSH2 0x10B0 JUMP JUMPDEST PUSH1 0x40 MSTORE DUP1 PUSH1 0x60 DUP10 ADD DUP5 DUP11 ADD DUP12 LT ISZERO PUSH2 0xE84 JUMPI DUP6 DUP7 REVERT JUMPDEST DUP6 SWAP5 POP JUMPDEST PUSH1 0x7 DUP6 LT ISZERO PUSH2 0xEA7 JUMPI DUP1 CALLDATALOAD DUP3 MSTORE PUSH1 0x1 SWAP5 SWAP1 SWAP5 ADD SWAP4 SWAP1 DUP4 ADD SWAP1 DUP4 ADD PUSH2 0xE88 JUMP JUMPDEST POP POP DUP1 SWAP4 POP POP POP POP SWAP3 SWAP6 SWAP2 SWAP5 POP SWAP3 POP JUMP JUMPDEST PUSH1 0x0 PUSH1 0x20 DUP3 DUP5 SUB SLT ISZERO PUSH2 0xEC9 JUMPI DUP1 DUP2 REVERT JUMPDEST DUP2 MLOAD DUP1 ISZERO ISZERO DUP2 EQ PUSH2 0xDF1 JUMPI DUP2 DUP3 REVERT JUMPDEST PUSH1 0x0 PUSH1 0x20 DUP3 DUP5 SUB SLT ISZERO PUSH2 0xEE9 JUMPI DUP1 DUP2 REVERT JUMPDEST POP CALLDATALOAD SWAP2 SWAP1 POP JUMP JUMPDEST PUSH1 0x0 PUSH1 0x20 DUP3 DUP5 SUB SLT ISZERO PUSH2 0xF01 JUMPI DUP1 DUP2 REVERT JUMPDEST POP MLOAD SWAP2 SWAP1 POP JUMP JUMPDEST PUSH1 0x0 DUP3 MLOAD DUP2 JUMPDEST DUP2 DUP2 LT ISZERO PUSH2 0xF28 JUMPI PUSH1 0x20 DUP2 DUP7 ADD DUP2 ADD MLOAD DUP6 DUP4 ADD MSTORE ADD PUSH2 0xF0E JUMP JUMPDEST DUP2 DUP2 GT ISZERO PUSH2 0xF36 JUMPI DUP3 DUP3 DUP6 ADD MSTORE JUMPDEST POP SWAP2 SWAP1 SWAP2 ADD SWAP3 SWAP2 POP POP JUMP JUMPDEST PUSH1 0x0 DUP3 NOT DUP3 GT ISZERO PUSH2 0xF54 JUMPI PUSH2 0xF54 PUSH2 0x109A JUMP JUMPDEST POP ADD SWAP1 JUMP JUMPDEST PUSH1 0x0 DUP3 PUSH2 0xF74 JUMPI PUSH4 0x4E487B71 PUSH1 0xE0 SHL DUP2 MSTORE PUSH1 0x12 PUSH1 0x4 MSTORE PUSH1 0x24 DUP2 REVERT JUMPDEST POP DIV SWAP1 JUMP JUMPDEST PUSH1 0x1 DUP2 DUP2 JUMPDEST DUP1 DUP6 GT ISZERO PUSH2 0xFB4 JUMPI DUP2 PUSH1 0x0 NOT DIV DUP3 GT ISZERO PUSH2 0xF9A JUMPI PUSH2 0xF9A PUSH2 0x109A JUMP JUMPDEST DUP1 DUP6 AND ISZERO PUSH2 0xFA7 JUMPI SWAP2 DUP2 MUL SWAP2 JUMPDEST SWAP4 DUP5 SHR SWAP4 SWAP1 DUP1 MUL SWAP1 PUSH2 0xF7E JUMP JUMPDEST POP SWAP3 POP SWAP3 SWAP1 POP JUMP JUMPDEST PUSH1 0x0 PUSH2 0xBB5 DUP4 DUP4 PUSH1 0x0 DUP3 PUSH2 0xFD2 JUMPI POP PUSH1 0x1 PUSH2 0xBB8 JUMP JUMPDEST DUP2 PUSH2 0xFDF JUMPI POP PUSH1 0x0 PUSH2 0xBB8 JUMP JUMPDEST DUP2 PUSH1 0x1 DUP2 EQ PUSH2 0xFF5 JUMPI PUSH1 0x2 DUP2 EQ PUSH2 0xFFF JUMPI PUSH2 0x101B JUMP JUMPDEST PUSH1 0x1 SWAP2 POP POP PUSH2 0xBB8 JUMP JUMPDEST PUSH1 0xFF DUP5 GT ISZERO PUSH2 0x1010 JUMPI PUSH2 0x1010 PUSH2 0x109A JUMP JUMPDEST POP POP PUSH1 0x1 DUP3 SHL PUSH2 0xBB8 JUMP JUMPDEST POP PUSH1 0x20 DUP4 LT PUSH2 0x133 DUP4 LT AND PUSH1 0x4E DUP5 LT PUSH1 0xB DUP5 LT AND OR ISZERO PUSH2 0x103E JUMPI POP DUP2 DUP2 EXP PUSH2 0xBB8 JUMP JUMPDEST PUSH2 0x1048 DUP4 DUP4 PUSH2 0xF79 JUMP JUMPDEST DUP1 PUSH1 0x0 NOT DIV DUP3 GT ISZERO PUSH2 0x105C JUMPI PUSH2 0x105C PUSH2 0x109A JUMP JUMPDEST MUL SWAP4 SWAP3 POP POP POP JUMP JUMPDEST PUSH1 0x0 DUP2 PUSH1 0x0 NOT DIV DUP4 GT DUP3 ISZERO ISZERO AND ISZERO PUSH2 0x107E JUMPI PUSH2 0x107E PUSH2 0x109A JUMP JUMPDEST POP MUL SWAP1 JUMP JUMPDEST PUSH1 0x0 DUP3 DUP3 LT ISZERO PUSH2 0x1095 JUMPI PUSH2 0x1095 PUSH2 0x109A JUMP JUMPDEST POP SUB SWAP1 JUMP JUMPDEST PUSH4 0x4E487B71 PUSH1 0xE0 SHL PUSH1 0x0 MSTORE PUSH1 0x11 PUSH1 0x4 MSTORE PUSH1 0x24 PUSH1 0x0 REVERT JUMPDEST PUSH4 0x4E487B71 PUSH1 0xE0 SHL PUSH1 0x0 MSTORE PUSH1 0x41 PUSH1 0x4 MSTORE PUSH1 0x24 PUSH1 0x0 REVERT JUMPDEST PUSH1 0x1 PUSH1 0x1 PUSH1 0xA0 SHL SUB DUP2 AND DUP2 EQ PUSH2 0x701 JUMPI PUSH1 0x0 DUP1 REVERT INVALID LOG2 PUSH5 0x6970667358 0x22 SLT KECCAK256 0xBE 0x2D 0xE8 0xEA CALLVALUE 0xAE 0xC4 RETURNDATASIZE 0xE1 0x28 0xDF SELFBALANCE MULMOD MSTORE 0xD 0xAE CALLVALUE POP 0x27 PUSH32 0x762B890ED197638BD2EB236C64736F6C63430008040033000000000000000000 "
				},
				"gasEstimates": {
					"creation": {
						"codeDepositCost": "873800",
						"executionCost": "infinite",
						"totalCost": "infinite"
					},
					"external": {
						"WETH()": "1126",
						"backToken()": "infinite",
						"buyerInfo(address)": "4682",
						"checkAdminAddress()": "1221",
						"deposit(uint256)": "infinite",
						"feeAnyone()": "1085",
						"getBalance(address)": "1172",
						"initialSaleInfor(address,address,address,uint256[7])": "infinite",
						"owner()": "1065",
						"presaleStatus()": "5191",
						"renounceOwnership()": "23506",
						"saleInfor()": "10177",
						"status()": "1933",
						"totalFee()": "1041",
						"transferETH(uint256)": "infinite",
						"transferOwnership(address)": "infinite",
						"userFee(address)": "1258"
					}
				},
				"methodIdentifiers": {
					"WETH()": "ad5c4648",
					"backToken()": "861faf5f",
					"buyerInfo(address)": "e2d3f423",
					"checkAdminAddress()": "cad5b0f7",
					"deposit(uint256)": "b6b55f25",
					"feeAnyone()": "3b5ef2ad",
					"getBalance(address)": "f8b2cb4f",
					"initialSaleInfor(address,address,address,uint256[7])": "61e17655",
					"owner()": "8da5cb5b",
					"presaleStatus()": "acfb2355",
					"renounceOwnership()": "715018a6",
					"saleInfor()": "18856a2f",
					"status()": "200d2ed2",
					"totalFee()": "1df4ccfc",
					"transferETH(uint256)": "4329db46",
					"transferOwnership(address)": "f2fde38b",
					"userFee(address)": "56c5f349"
				}
			},
			"storageLayout": {
				"storage": [
					{
						"astId": 2007,
						"contract": "Ethereum/Presale.sol:Presale",
						"label": "_status",
						"offset": 0,
						"slot": "0",
						"type": "t_uint256"
					},
					{
						"astId": 1899,
						"contract": "Ethereum/Presale.sol:Presale",
						"label": "_owner",
						"offset": 0,
						"slot": "1",
						"type": "t_address"
					},
					{
						"astId": 768,
						"contract": "Ethereum/Presale.sol:Presale",
						"label": "buyerInfo",
						"offset": 0,
						"slot": "2",
						"type": "t_mapping(t_address,t_struct(BuyerInfo)747_storage)"
					},
					{
						"astId": 772,
						"contract": "Ethereum/Presale.sol:Presale",
						"label": "userFee",
						"offset": 0,
						"slot": "3",
						"type": "t_mapping(t_address,t_uint256)"
					},
					{
						"astId": 775,
						"contract": "Ethereum/Presale.sol:Presale",
						"label": "presaleStatus",
						"offset": 0,
						"slot": "4",
						"type": "t_struct(PresaleStatus)763_storage"
					},
					{
						"astId": 778,
						"contract": "Ethereum/Presale.sol:Presale",
						"label": "saleInfor",
						"offset": 0,
						"slot": "11",
						"type": "t_struct(SaleInfor)734_storage"
					},
					{
						"astId": 781,
						"contract": "Ethereum/Presale.sol:Presale",
						"label": "WETH",
						"offset": 0,
						"slot": "23",
						"type": "t_contract(IERC20)663"
					},
					{
						"astId": 783,
						"contract": "Ethereum/Presale.sol:Presale",
						"label": "feeAnyone",
						"offset": 0,
						"slot": "24",
						"type": "t_uint256"
					},
					{
						"astId": 786,
						"contract": "Ethereum/Presale.sol:Presale",
						"label": "admins",
						"offset": 0,
						"slot": "25",
						"type": "t_struct(AddressSet)1604_storage"
					},
					{
						"astId": 788,
						"contract": "Ethereum/Presale.sol:Presale",
						"label": "totalFee",
						"offset": 0,
						"slot": "27",
						"type": "t_uint256"
					}
				],
				"types": {
					"t_address": {
						"encoding": "inplace",
						"label": "address",
						"numberOfBytes": "20"
					},
					"t_address_payable": {
						"encoding": "inplace",
						"label": "address payable",
						"numberOfBytes": "20"
					},
					"t_array(t_address)dyn_storage": {
						"base": "t_address",
						"encoding": "dynamic_array",
						"label": "address[]",
						"numberOfBytes": "32"
					},
					"t_array(t_bytes32)dyn_storage": {
						"base": "t_bytes32",
						"encoding": "dynamic_array",
						"label": "bytes32[]",
						"numberOfBytes": "32"
					},
					"t_bool": {
						"encoding": "inplace",
						"label": "bool",
						"numberOfBytes": "1"
					},
					"t_bytes32": {
						"encoding": "inplace",
						"label": "bytes32",
						"numberOfBytes": "32"
					},
					"t_contract(ERC20)585": {
						"encoding": "inplace",
						"label": "contract ERC20",
						"numberOfBytes": "20"
					},
					"t_contract(IERC20)663": {
						"encoding": "inplace",
						"label": "contract IERC20",
						"numberOfBytes": "20"
					},
					"t_mapping(t_address,t_struct(BuyerInfo)747_storage)": {
						"encoding": "mapping",
						"key": "t_address",
						"label": "mapping(address => struct Presale.BuyerInfo)",
						"numberOfBytes": "32",
						"value": "t_struct(BuyerInfo)747_storage"
					},
					"t_mapping(t_address,t_uint256)": {
						"encoding": "mapping",
						"key": "t_address",
						"label": "mapping(address => uint256)",
						"numberOfBytes": "32",
						"value": "t_uint256"
					},
					"t_mapping(t_bytes32,t_uint256)": {
						"encoding": "mapping",
						"key": "t_bytes32",
						"label": "mapping(bytes32 => uint256)",
						"numberOfBytes": "32",
						"value": "t_uint256"
					},
					"t_struct(AddressSet)1604_storage": {
						"encoding": "inplace",
						"label": "struct EnumerableSet.AddressSet",
						"members": [
							{
								"astId": 1603,
								"contract": "Ethereum/Presale.sol:Presale",
								"label": "_inner",
								"offset": 0,
								"slot": "0",
								"type": "t_struct(Set)1303_storage"
							}
						],
						"numberOfBytes": "64"
					},
					"t_struct(BuyerInfo)747_storage": {
						"encoding": "inplace",
						"label": "struct Presale.BuyerInfo",
						"members": [
							{
								"astId": 736,
								"contract": "Ethereum/Presale.sol:Presale",
								"label": "baseDeposit",
								"offset": 0,
								"slot": "0",
								"type": "t_uint256"
							},
							{
								"astId": 738,
								"contract": "Ethereum/Presale.sol:Presale",
								"label": "tokenOwner",
								"offset": 0,
								"slot": "1",
								"type": "t_uint256"
							},
							{
								"astId": 740,
								"contract": "Ethereum/Presale.sol:Presale",
								"label": "lastWithDraw",
								"offset": 0,
								"slot": "2",
								"type": "t_uint256"
							},
							{
								"astId": 742,
								"contract": "Ethereum/Presale.sol:Presale",
								"label": "totalTokenWithDraw",
								"offset": 0,
								"slot": "3",
								"type": "t_uint256"
							},
							{
								"astId": 744,
								"contract": "Ethereum/Presale.sol:Presale",
								"label": "isRefund",
								"offset": 0,
								"slot": "4",
								"type": "t_bool"
							},
							{
								"astId": 746,
								"contract": "Ethereum/Presale.sol:Presale",
								"label": "isClaim",
								"offset": 1,
								"slot": "4",
								"type": "t_bool"
							}
						],
						"numberOfBytes": "160"
					},
					"t_struct(PresaleStatus)763_storage": {
						"encoding": "inplace",
						"label": "struct Presale.PresaleStatus",
						"members": [
							{
								"astId": 749,
								"contract": "Ethereum/Presale.sol:Presale",
								"label": "totalBaseCollected",
								"offset": 0,
								"slot": "0",
								"type": "t_uint256"
							},
							{
								"astId": 751,
								"contract": "Ethereum/Presale.sol:Presale",
								"label": "totalTokenSold",
								"offset": 0,
								"slot": "1",
								"type": "t_uint256"
							},
							{
								"astId": 753,
								"contract": "Ethereum/Presale.sol:Presale",
								"label": "totalTokenWithDraw",
								"offset": 0,
								"slot": "2",
								"type": "t_uint256"
							},
							{
								"astId": 755,
								"contract": "Ethereum/Presale.sol:Presale",
								"label": "totalBaseWithDraw",
								"offset": 0,
								"slot": "3",
								"type": "t_uint256"
							},
							{
								"astId": 757,
								"contract": "Ethereum/Presale.sol:Presale",
								"label": "numByer",
								"offset": 0,
								"slot": "4",
								"type": "t_uint256"
							},
							{
								"astId": 759,
								"contract": "Ethereum/Presale.sol:Presale",
								"label": "totalFee",
								"offset": 0,
								"slot": "5",
								"type": "t_uint256"
							},
							{
								"astId": 762,
								"contract": "Ethereum/Presale.sol:Presale",
								"label": "admin",
								"offset": 0,
								"slot": "6",
								"type": "t_array(t_address)dyn_storage"
							}
						],
						"numberOfBytes": "224"
					},
					"t_struct(SaleInfor)734_storage": {
						"encoding": "inplace",
						"label": "struct Presale.SaleInfor",
						"members": [
							{
								"astId": 709,
								"contract": "Ethereum/Presale.sol:Presale",
								"label": "presaleOwner",
								"offset": 0,
								"slot": "0",
								"type": "t_address_payable"
							},
							{
								"astId": 712,
								"contract": "Ethereum/Presale.sol:Presale",
								"label": "saleToken",
								"offset": 0,
								"slot": "1",
								"type": "t_contract(ERC20)585"
							},
							{
								"astId": 715,
								"contract": "Ethereum/Presale.sol:Presale",
								"label": "baseToken",
								"offset": 0,
								"slot": "2",
								"type": "t_contract(ERC20)585"
							},
							{
								"astId": 717,
								"contract": "Ethereum/Presale.sol:Presale",
								"label": "tokenPrice",
								"offset": 0,
								"slot": "3",
								"type": "t_uint256"
							},
							{
								"astId": 719,
								"contract": "Ethereum/Presale.sol:Presale",
								"label": "startSale",
								"offset": 0,
								"slot": "4",
								"type": "t_uint256"
							},
							{
								"astId": 721,
								"contract": "Ethereum/Presale.sol:Presale",
								"label": "endSale",
								"offset": 0,
								"slot": "5",
								"type": "t_uint256"
							},
							{
								"astId": 723,
								"contract": "Ethereum/Presale.sol:Presale",
								"label": "minSpendPerBuyer",
								"offset": 0,
								"slot": "6",
								"type": "t_uint256"
							},
							{
								"astId": 725,
								"contract": "Ethereum/Presale.sol:Presale",
								"label": "maxSpendPerBuyer",
								"offset": 0,
								"slot": "7",
								"type": "t_uint256"
							},
							{
								"astId": 727,
								"contract": "Ethereum/Presale.sol:Presale",
								"label": "refundFee",
								"offset": 0,
								"slot": "8",
								"type": "t_uint256"
							},
							{
								"astId": 729,
								"contract": "Ethereum/Presale.sol:Presale",
								"label": "claimFee",
								"offset": 0,
								"slot": "9",
								"type": "t_uint256"
							},
							{
								"astId": 731,
								"contract": "Ethereum/Presale.sol:Presale",
								"label": "saleIsBaseToken",
								"offset": 0,
								"slot": "10",
								"type": "t_bool"
							},
							{
								"astId": 733,
								"contract": "Ethereum/Presale.sol:Presale",
								"label": "amountTokenForSale",
								"offset": 0,
								"slot": "11",
								"type": "t_uint256"
							}
						],
						"numberOfBytes": "384"
					},
					"t_struct(Set)1303_storage": {
						"encoding": "inplace",
						"label": "struct EnumerableSet.Set",
						"members": [
							{
								"astId": 1298,
								"contract": "Ethereum/Presale.sol:Presale",
								"label": "_values",
								"offset": 0,
								"slot": "0",
								"type": "t_array(t_bytes32)dyn_storage"
							},
							{
								"astId": 1302,
								"contract": "Ethereum/Presale.sol:Presale",
								"label": "_indexes",
								"offset": 0,
								"slot": "1",
								"type": "t_mapping(t_bytes32,t_uint256)"
							}
						],
						"numberOfBytes": "64"
					},
					"t_uint256": {
						"encoding": "inplace",
						"label": "uint256",
						"numberOfBytes": "32"
					}
				}
			},
			"userdoc": {
				"kind": "user",
				"methods": {},
				"version": 1
			}
		}
	}
}