{
	"Ethereum/Presale.sol": {
		"Presale": {
			"abi": [
				{
					"inputs": [],
					"name": "backToken",
					"outputs": [],
					"stateMutability": "payable",
					"type": "function"
				},
				{
					"inputs": [
						{
							"internalType": "address",
							"name": "",
							"type": "address"
						}
					],
					"name": "buyerInfo",
					"outputs": [
						{
							"internalType": "uint256",
							"name": "baseDeposit",
							"type": "uint256"
						},
						{
							"internalType": "uint256",
							"name": "tokenOwner",
							"type": "uint256"
						},
						{
							"internalType": "uint256",
							"name": "lastWithDraw",
							"type": "uint256"
						},
						{
							"internalType": "uint256",
							"name": "totalTokenWithDraw",
							"type": "uint256"
						},
						{
							"internalType": "bool",
							"name": "isRefund",
							"type": "bool"
						},
						{
							"internalType": "bool",
							"name": "isClaim",
							"type": "bool"
						}
					],
					"stateMutability": "view",
					"type": "function"
				},
				{
					"inputs": [
						{
							"internalType": "uint256",
							"name": "amount",
							"type": "uint256"
						}
					],
					"name": "depodit",
					"outputs": [],
					"stateMutability": "payable",
					"type": "function"
				},
				{
					"inputs": [
						{
							"internalType": "address",
							"name": "_address",
							"type": "address"
						}
					],
					"name": "getBalance",
					"outputs": [
						{
							"internalType": "uint256",
							"name": "",
							"type": "uint256"
						}
					],
					"stateMutability": "view",
					"type": "function"
				},
				{
					"inputs": [
						{
							"internalType": "address payable",
							"name": "_presaleOwner",
							"type": "address"
						},
						{
							"internalType": "contract IERC20",
							"name": "_saleToken",
							"type": "address"
						},
						{
							"internalType": "contract IERC20",
							"name": "_baseTOken",
							"type": "address"
						},
						{
							"internalType": "uint256[9]",
							"name": "datas",
							"type": "uint256[9]"
						}
					],
					"name": "initialSaleInfor",
					"outputs": [],
					"stateMutability": "nonpayable",
					"type": "function"
				},
				{
					"inputs": [],
					"name": "presaleStatus",
					"outputs": [
						{
							"internalType": "uint256",
							"name": "totalBaseCollected",
							"type": "uint256"
						},
						{
							"internalType": "uint256",
							"name": "totalTokenSold",
							"type": "uint256"
						},
						{
							"internalType": "uint256",
							"name": "totalTokenWithDraw",
							"type": "uint256"
						},
						{
							"internalType": "uint256",
							"name": "totalBaseWithDraw",
							"type": "uint256"
						},
						{
							"internalType": "uint256",
							"name": "numByer",
							"type": "uint256"
						},
						{
							"internalType": "uint256",
							"name": "totalFee",
							"type": "uint256"
						}
					],
					"stateMutability": "view",
					"type": "function"
				},
				{
					"inputs": [],
					"name": "saleInfor",
					"outputs": [
						{
							"internalType": "address payable",
							"name": "presaleOwner",
							"type": "address"
						},
						{
							"internalType": "contract IERC20",
							"name": "saleToken",
							"type": "address"
						},
						{
							"internalType": "contract IERC20",
							"name": "baseToken",
							"type": "address"
						},
						{
							"internalType": "uint256",
							"name": "tokenPrice",
							"type": "uint256"
						},
						{
							"internalType": "uint256",
							"name": "startSale",
							"type": "uint256"
						},
						{
							"internalType": "uint256",
							"name": "endSale",
							"type": "uint256"
						},
						{
							"internalType": "uint256",
							"name": "valueSwapERC20",
							"type": "uint256"
						},
						{
							"internalType": "uint256",
							"name": "feeTransaction",
							"type": "uint256"
						},
						{
							"internalType": "uint256",
							"name": "minSpendPerBuyer",
							"type": "uint256"
						},
						{
							"internalType": "uint256",
							"name": "maxSpendPerBuyer",
							"type": "uint256"
						},
						{
							"internalType": "uint256",
							"name": "refundFee",
							"type": "uint256"
						},
						{
							"internalType": "uint256",
							"name": "claimFee",
							"type": "uint256"
						}
					],
					"stateMutability": "view",
					"type": "function"
				},
				{
					"inputs": [],
					"name": "status",
					"outputs": [
						{
							"internalType": "uint256",
							"name": "",
							"type": "uint256"
						}
					],
					"stateMutability": "view",
					"type": "function"
				},
				{
					"inputs": [
						{
							"internalType": "address",
							"name": "",
							"type": "address"
						}
					],
					"name": "userFee",
					"outputs": [
						{
							"internalType": "uint256",
							"name": "",
							"type": "uint256"
						}
					],
					"stateMutability": "view",
					"type": "function"
				}
			],
			"devdoc": {
				"kind": "dev",
				"methods": {},
				"version": 1
			},
			"evm": {
				"assembly": "    /* \"Ethereum/Presale.sol\":232:2765  contract Presale is ReentrancyGuard{\r... */\n  mstore(0x40, 0x80)\n  callvalue\n  dup1\n  iszero\n  tag_1\n  jumpi\n  0x00\n  dup1\n  revert\ntag_1:\n  pop\n    /* \"Utils/ReentrancyGuard.sol\":1734:1735  1 */\n  0x01\n    /* \"Utils/ReentrancyGuard.sol\":1845:1852  _status */\n  0x00\n    /* \"Utils/ReentrancyGuard.sol\":1845:1867  _status = _NOT_ENTERED */\n  dup2\n  swap1\n  sstore\n  pop\n    /* \"Ethereum/Presale.sol\":232:2765  contract Presale is ReentrancyGuard{\r... */\n  dataSize(sub_0)\n  dup1\n  dataOffset(sub_0)\n  0x00\n  codecopy\n  0x00\n  return\nstop\n\nsub_0: assembly {\n        /* \"Ethereum/Presale.sol\":232:2765  contract Presale is ReentrancyGuard{\r... */\n      mstore(0x40, 0x80)\n      jumpi(tag_1, lt(calldatasize, 0x04))\n      shr(0xe0, calldataload(0x00))\n      dup1\n      0x861faf5f\n      gt\n      tag_11\n      jumpi\n      dup1\n      0x861faf5f\n      eq\n      tag_6\n      jumpi\n      dup1\n      0x8f1eae4c\n      eq\n      tag_7\n      jumpi\n      dup1\n      0xacfb2355\n      eq\n      tag_8\n      jumpi\n      dup1\n      0xe2d3f423\n      eq\n      tag_9\n      jumpi\n      dup1\n      0xf8b2cb4f\n      eq\n      tag_10\n      jumpi\n      jump(tag_1)\n    tag_11:\n      dup1\n      0x18856a2f\n      eq\n      tag_2\n      jumpi\n      dup1\n      0x200d2ed2\n      eq\n      tag_3\n      jumpi\n      dup1\n      0x56c5f349\n      eq\n      tag_4\n      jumpi\n      dup1\n      0x79647833\n      eq\n      tag_5\n      jumpi\n    tag_1:\n      0x00\n      dup1\n      revert\n        /* \"Ethereum/Presale.sol\":1261:1287  SaleInfor public saleInfor */\n    tag_2:\n      callvalue\n      dup1\n      iszero\n      tag_12\n      jumpi\n      0x00\n      dup1\n      revert\n    tag_12:\n      pop\n      tag_13\n      tag_14\n      jump\t// in\n    tag_13:\n      mload(0x40)\n      tag_15\n      swap13\n      swap12\n      swap11\n      swap10\n      swap9\n      swap8\n      swap7\n      swap6\n      swap5\n      swap4\n      swap3\n      swap2\n      swap1\n      tag_16\n      jump\t// in\n    tag_15:\n      mload(0x40)\n      dup1\n      swap2\n      sub\n      swap1\n      return\n        /* \"Ethereum/Presale.sol\":2011:2350  function status() external view returns(uint256) {\r... */\n    tag_3:\n      callvalue\n      dup1\n      iszero\n      tag_17\n      jumpi\n      0x00\n      dup1\n      revert\n    tag_17:\n      pop\n      tag_18\n      tag_19\n      jump\t// in\n    tag_18:\n      mload(0x40)\n      tag_20\n      swap2\n      swap1\n      tag_21\n      jump\t// in\n    tag_20:\n      mload(0x40)\n      dup1\n      swap2\n      sub\n      swap1\n      return\n        /* \"Ethereum/Presale.sol\":1171:1213  mapping(address => uint256) public userFee */\n    tag_4:\n      callvalue\n      dup1\n      iszero\n      tag_22\n      jumpi\n      0x00\n      dup1\n      revert\n    tag_22:\n      pop\n      tag_23\n      0x04\n      dup1\n      calldatasize\n      sub\n      dup2\n      add\n      swap1\n      tag_24\n      swap2\n      swap1\n      tag_25\n      jump\t// in\n    tag_24:\n      tag_26\n      jump\t// in\n    tag_23:\n      mload(0x40)\n      tag_27\n      swap2\n      swap1\n      tag_21\n      jump\t// in\n    tag_27:\n      mload(0x40)\n      dup1\n      swap2\n      sub\n      swap1\n      return\n        /* \"Ethereum/Presale.sol\":2391:2523  function depodit(uint256 amount) external payable nonReentrant {\r... */\n    tag_5:\n      tag_28\n      0x04\n      dup1\n      calldatasize\n      sub\n      dup2\n      add\n      swap1\n      tag_29\n      swap2\n      swap1\n      tag_30\n      jump\t// in\n    tag_29:\n      tag_31\n      jump\t// in\n    tag_28:\n      stop\n        /* \"Ethereum/Presale.sol\":2652:2760  function backToken() external payable {\r... */\n    tag_6:\n      tag_32\n      tag_33\n      jump\t// in\n    tag_32:\n      stop\n        /* \"Ethereum/Presale.sol\":1296:2002  function initialSaleInfor(\r... */\n    tag_7:\n      callvalue\n      dup1\n      iszero\n      tag_34\n      jumpi\n      0x00\n      dup1\n      revert\n    tag_34:\n      pop\n      tag_35\n      0x04\n      dup1\n      calldatasize\n      sub\n      dup2\n      add\n      swap1\n      tag_36\n      swap2\n      swap1\n      tag_37\n      jump\t// in\n    tag_36:\n      tag_38\n      jump\t// in\n    tag_35:\n      stop\n        /* \"Ethereum/Presale.sol\":1220:1254  PresaleStatus public presaleStatus */\n    tag_8:\n      callvalue\n      dup1\n      iszero\n      tag_39\n      jumpi\n      0x00\n      dup1\n      revert\n    tag_39:\n      pop\n      tag_40\n      tag_41\n      jump\t// in\n    tag_40:\n      mload(0x40)\n      tag_42\n      swap7\n      swap6\n      swap5\n      swap4\n      swap3\n      swap2\n      swap1\n      tag_43\n      jump\t// in\n    tag_42:\n      mload(0x40)\n      dup1\n      swap2\n      sub\n      swap1\n      return\n        /* \"Ethereum/Presale.sol\":1118:1164  mapping(address => BuyerInfo) public buyerInfo */\n    tag_9:\n      callvalue\n      dup1\n      iszero\n      tag_44\n      jumpi\n      0x00\n      dup1\n      revert\n    tag_44:\n      pop\n      tag_45\n      0x04\n      dup1\n      calldatasize\n      sub\n      dup2\n      add\n      swap1\n      tag_46\n      swap2\n      swap1\n      tag_25\n      jump\t// in\n    tag_46:\n      tag_47\n      jump\t// in\n    tag_45:\n      mload(0x40)\n      tag_48\n      swap7\n      swap6\n      swap5\n      swap4\n      swap3\n      swap2\n      swap1\n      tag_49\n      jump\t// in\n    tag_48:\n      mload(0x40)\n      dup1\n      swap2\n      sub\n      swap1\n      return\n        /* \"Ethereum/Presale.sol\":2531:2642  function getBalance(address _address) external view returns(uint256) {\r... */\n    tag_10:\n      callvalue\n      dup1\n      iszero\n      tag_50\n      jumpi\n      0x00\n      dup1\n      revert\n    tag_50:\n      pop\n      tag_51\n      0x04\n      dup1\n      calldatasize\n      sub\n      dup2\n      add\n      swap1\n      tag_52\n      swap2\n      swap1\n      tag_25\n      jump\t// in\n    tag_52:\n      tag_53\n      jump\t// in\n    tag_51:\n      mload(0x40)\n      tag_54\n      swap2\n      swap1\n      tag_21\n      jump\t// in\n    tag_54:\n      mload(0x40)\n      dup1\n      swap2\n      sub\n      swap1\n      return\n        /* \"Ethereum/Presale.sol\":1261:1287  SaleInfor public saleInfor */\n    tag_14:\n      0x09\n      dup1\n      0x00\n      add\n      0x00\n      swap1\n      sload\n      swap1\n      0x0100\n      exp\n      swap1\n      div\n      0xffffffffffffffffffffffffffffffffffffffff\n      and\n      swap1\n      dup1\n      0x01\n      add\n      0x00\n      swap1\n      sload\n      swap1\n      0x0100\n      exp\n      swap1\n      div\n      0xffffffffffffffffffffffffffffffffffffffff\n      and\n      swap1\n      dup1\n      0x02\n      add\n      0x00\n      swap1\n      sload\n      swap1\n      0x0100\n      exp\n      swap1\n      div\n      0xffffffffffffffffffffffffffffffffffffffff\n      and\n      swap1\n      dup1\n      0x03\n      add\n      sload\n      swap1\n      dup1\n      0x04\n      add\n      sload\n      swap1\n      dup1\n      0x05\n      add\n      sload\n      swap1\n      dup1\n      0x06\n      add\n      sload\n      swap1\n      dup1\n      0x07\n      add\n      sload\n      swap1\n      dup1\n      0x08\n      add\n      sload\n      swap1\n      dup1\n      0x09\n      add\n      sload\n      swap1\n      dup1\n      0x0a\n      add\n      sload\n      swap1\n      dup1\n      0x0b\n      add\n      sload\n      swap1\n      pop\n      dup13\n      jump\t// out\n        /* \"Ethereum/Presale.sol\":2011:2350  function status() external view returns(uint256) {\r... */\n    tag_19:\n        /* \"Ethereum/Presale.sol\":2051:2058  uint256 */\n      0x00\n        /* \"Ethereum/Presale.sol\":2092:2101  saleInfor */\n      0x09\n        /* \"Ethereum/Presale.sol\":2092:2111  saleInfor.startSale */\n      0x04\n      add\n      sload\n        /* \"Ethereum/Presale.sol\":2074:2089  block.timestamp */\n      timestamp\n        /* \"Ethereum/Presale.sol\":2074:2111  block.timestamp < saleInfor.startSale */\n      lt\n        /* \"Ethereum/Presale.sol\":2071:2343  if(block.timestamp < saleInfor.startSale) {\r... */\n      iszero\n      tag_56\n      jumpi\n        /* \"Ethereum/Presale.sol\":2135:2136  0 */\n      0x00\n        /* \"Ethereum/Presale.sol\":2128:2136  return 0 */\n      swap1\n      pop\n      jump(tag_55)\n        /* \"Ethereum/Presale.sol\":2071:2343  if(block.timestamp < saleInfor.startSale) {\r... */\n    tag_56:\n        /* \"Ethereum/Presale.sol\":2202:2211  saleInfor */\n      0x09\n        /* \"Ethereum/Presale.sol\":2202:2219  saleInfor.endSale */\n      0x05\n      add\n      sload\n        /* \"Ethereum/Presale.sol\":2184:2199  block.timestamp */\n      timestamp\n        /* \"Ethereum/Presale.sol\":2184:2219  block.timestamp > saleInfor.endSale */\n      gt\n        /* \"Ethereum/Presale.sol\":2181:2332  if(block.timestamp > saleInfor.endSale) {\r... */\n      iszero\n      tag_58\n      jumpi\n        /* \"Ethereum/Presale.sol\":2247:2248  2 */\n      0x02\n        /* \"Ethereum/Presale.sol\":2240:2248  return 2 */\n      swap1\n      pop\n      jump(tag_55)\n        /* \"Ethereum/Presale.sol\":2181:2332  if(block.timestamp > saleInfor.endSale) {\r... */\n    tag_58:\n        /* \"Ethereum/Presale.sol\":2305:2306  1 */\n      0x01\n        /* \"Ethereum/Presale.sol\":2298:2306  return 1 */\n      swap1\n      pop\n        /* \"Ethereum/Presale.sol\":2011:2350  function status() external view returns(uint256) {\r... */\n    tag_55:\n      swap1\n      jump\t// out\n        /* \"Ethereum/Presale.sol\":1171:1213  mapping(address => uint256) public userFee */\n    tag_26:\n      mstore(0x20, 0x02)\n      dup1\n      0x00\n      mstore\n      keccak256(0x00, 0x40)\n      0x00\n      swap2\n      pop\n      swap1\n      pop\n      sload\n      dup2\n      jump\t// out\n        /* \"Ethereum/Presale.sol\":2391:2523  function depodit(uint256 amount) external payable nonReentrant {\r... */\n    tag_31:\n        /* \"Utils/ReentrancyGuard.sol\":1778:1779  2 */\n      0x02\n        /* \"Utils/ReentrancyGuard.sol\":2376:2383  _status */\n      sload(0x00)\n        /* \"Utils/ReentrancyGuard.sol\":2376:2395  _status != _ENTERED */\n      eq\n      iszero\n        /* \"Utils/ReentrancyGuard.sol\":2368:2431  require(_status != _ENTERED, \"ReentrancyGuard: reentrant call\") */\n      tag_61\n      jumpi\n      mload(0x40)\n      0x08c379a000000000000000000000000000000000000000000000000000000000\n      dup2\n      mstore\n      0x04\n      add\n      tag_62\n      swap1\n      tag_63\n      jump\t// in\n    tag_62:\n      mload(0x40)\n      dup1\n      swap2\n      sub\n      swap1\n      revert\n    tag_61:\n        /* \"Utils/ReentrancyGuard.sol\":1778:1779  2 */\n      0x02\n        /* \"Utils/ReentrancyGuard.sol\":2509:2516  _status */\n      0x00\n        /* \"Utils/ReentrancyGuard.sol\":2509:2527  _status = _ENTERED */\n      dup2\n      swap1\n      sstore\n      pop\n        /* \"Ethereum/Presale.sol\":2473:2483  msg.sender */\n      caller\n        /* \"Ethereum/Presale.sol\":2465:2493  payable(msg.sender).transfer */\n      0xffffffffffffffffffffffffffffffffffffffff\n      and\n        /* \"Ethereum/Presale.sol\":2465:2513  payable(msg.sender).transfer(msg.value - amount) */\n      0x08fc\n        /* \"Ethereum/Presale.sol\":2506:2512  amount */\n      dup3\n        /* \"Ethereum/Presale.sol\":2494:2503  msg.value */\n      callvalue\n        /* \"Ethereum/Presale.sol\":2494:2512  msg.value - amount */\n      tag_65\n      swap2\n      swap1\n      tag_66\n      jump\t// in\n    tag_65:\n        /* \"Ethereum/Presale.sol\":2465:2513  payable(msg.sender).transfer(msg.value - amount) */\n      swap1\n      dup2\n      iszero\n      mul\n      swap1\n      mload(0x40)\n      0x00\n      mload(0x40)\n      dup1\n      dup4\n      sub\n      dup2\n      dup6\n      dup9\n      dup9\n      call\n      swap4\n      pop\n      pop\n      pop\n      pop\n      iszero\n      dup1\n      iszero\n      tag_68\n      jumpi\n      returndatasize\n      0x00\n      dup1\n      returndatacopy\n      revert(0x00, returndatasize)\n    tag_68:\n      pop\n        /* \"Utils/ReentrancyGuard.sol\":1734:1735  1 */\n      0x01\n        /* \"Utils/ReentrancyGuard.sol\":2688:2695  _status */\n      0x00\n        /* \"Utils/ReentrancyGuard.sol\":2688:2710  _status = _NOT_ENTERED */\n      dup2\n      swap1\n      sstore\n      pop\n        /* \"Ethereum/Presale.sol\":2391:2523  function depodit(uint256 amount) external payable nonReentrant {\r... */\n      pop\n      jump\t// out\n        /* \"Ethereum/Presale.sol\":2652:2760  function backToken() external payable {\r... */\n    tag_33:\n        /* \"Ethereum/Presale.sol\":2709:2719  msg.sender */\n      caller\n        /* \"Ethereum/Presale.sol\":2701:2729  payable(msg.sender).transfer */\n      0xffffffffffffffffffffffffffffffffffffffff\n      and\n        /* \"Ethereum/Presale.sol\":2701:2752  payable(msg.sender).transfer(address(this).balance) */\n      0x08fc\n        /* \"Ethereum/Presale.sol\":2730:2751  address(this).balance */\n      selfbalance\n        /* \"Ethereum/Presale.sol\":2701:2752  payable(msg.sender).transfer(address(this).balance) */\n      swap1\n      dup2\n      iszero\n      mul\n      swap1\n      mload(0x40)\n      0x00\n      mload(0x40)\n      dup1\n      dup4\n      sub\n      dup2\n      dup6\n      dup9\n      dup9\n      call\n      swap4\n      pop\n      pop\n      pop\n      pop\n      iszero\n      dup1\n      iszero\n      tag_71\n      jumpi\n      returndatasize\n      0x00\n      dup1\n      returndatacopy\n      revert(0x00, returndatasize)\n    tag_71:\n      pop\n        /* \"Ethereum/Presale.sol\":2652:2760  function backToken() external payable {\r... */\n      jump\t// out\n        /* \"Ethereum/Presale.sol\":1296:2002  function initialSaleInfor(\r... */\n    tag_38:\n        /* \"Ethereum/Presale.sol\":1504:1517  _presaleOwner */\n      dup4\n        /* \"Ethereum/Presale.sol\":1479:1488  saleInfor */\n      0x09\n        /* \"Ethereum/Presale.sol\":1479:1501  saleInfor.presaleOwner */\n      0x00\n      add\n      0x00\n        /* \"Ethereum/Presale.sol\":1479:1517  saleInfor.presaleOwner = _presaleOwner */\n      0x0100\n      exp\n      dup2\n      sload\n      dup2\n      0xffffffffffffffffffffffffffffffffffffffff\n      mul\n      not\n      and\n      swap1\n      dup4\n      0xffffffffffffffffffffffffffffffffffffffff\n      and\n      mul\n      or\n      swap1\n      sstore\n      pop\n        /* \"Ethereum/Presale.sol\":1550:1560  _saleToken */\n      dup3\n        /* \"Ethereum/Presale.sol\":1528:1537  saleInfor */\n      0x09\n        /* \"Ethereum/Presale.sol\":1528:1547  saleInfor.saleToken */\n      0x01\n      add\n      0x00\n        /* \"Ethereum/Presale.sol\":1528:1560  saleInfor.saleToken = _saleToken */\n      0x0100\n      exp\n      dup2\n      sload\n      dup2\n      0xffffffffffffffffffffffffffffffffffffffff\n      mul\n      not\n      and\n      swap1\n      dup4\n      0xffffffffffffffffffffffffffffffffffffffff\n      and\n      mul\n      or\n      swap1\n      sstore\n      pop\n        /* \"Ethereum/Presale.sol\":1593:1603  _baseTOken */\n      dup2\n        /* \"Ethereum/Presale.sol\":1571:1580  saleInfor */\n      0x09\n        /* \"Ethereum/Presale.sol\":1571:1590  saleInfor.baseToken */\n      0x02\n      add\n      0x00\n        /* \"Ethereum/Presale.sol\":1571:1603  saleInfor.baseToken = _baseTOken */\n      0x0100\n      exp\n      dup2\n      sload\n      dup2\n      0xffffffffffffffffffffffffffffffffffffffff\n      mul\n      not\n      and\n      swap1\n      dup4\n      0xffffffffffffffffffffffffffffffffffffffff\n      and\n      mul\n      or\n      swap1\n      sstore\n      pop\n        /* \"Ethereum/Presale.sol\":1637:1642  datas */\n      dup1\n        /* \"Ethereum/Presale.sol\":1643:1644  0 */\n      0x00\n        /* \"Ethereum/Presale.sol\":1637:1645  datas[0] */\n      0x09\n      dup2\n      lt\n      tag_73\n      jumpi\n      mstore(0x00, 0x4e487b7100000000000000000000000000000000000000000000000000000000)\n      mstore(0x04, 0x32)\n      revert(0x00, 0x24)\n    tag_73:\n      0x20\n      mul\n      add\n      mload\n        /* \"Ethereum/Presale.sol\":1614:1623  saleInfor */\n      0x09\n        /* \"Ethereum/Presale.sol\":1614:1634  saleInfor.tokenPrice */\n      0x03\n      add\n        /* \"Ethereum/Presale.sol\":1614:1645  saleInfor.tokenPrice = datas[0] */\n      dup2\n      swap1\n      sstore\n      pop\n        /* \"Ethereum/Presale.sol\":1678:1683  datas */\n      dup1\n        /* \"Ethereum/Presale.sol\":1684:1685  1 */\n      0x01\n        /* \"Ethereum/Presale.sol\":1678:1686  datas[1] */\n      0x09\n      dup2\n      lt\n      tag_74\n      jumpi\n      mstore(0x00, 0x4e487b7100000000000000000000000000000000000000000000000000000000)\n      mstore(0x04, 0x32)\n      revert(0x00, 0x24)\n    tag_74:\n      0x20\n      mul\n      add\n      mload\n        /* \"Ethereum/Presale.sol\":1656:1665  saleInfor */\n      0x09\n        /* \"Ethereum/Presale.sol\":1656:1675  saleInfor.startSale */\n      0x04\n      add\n        /* \"Ethereum/Presale.sol\":1656:1686  saleInfor.startSale = datas[1] */\n      dup2\n      swap1\n      sstore\n      pop\n        /* \"Ethereum/Presale.sol\":1717:1722  datas */\n      dup1\n        /* \"Ethereum/Presale.sol\":1723:1724  2 */\n      0x02\n        /* \"Ethereum/Presale.sol\":1717:1725  datas[2] */\n      0x09\n      dup2\n      lt\n      tag_75\n      jumpi\n      mstore(0x00, 0x4e487b7100000000000000000000000000000000000000000000000000000000)\n      mstore(0x04, 0x32)\n      revert(0x00, 0x24)\n    tag_75:\n      0x20\n      mul\n      add\n      mload\n        /* \"Ethereum/Presale.sol\":1697:1706  saleInfor */\n      0x09\n        /* \"Ethereum/Presale.sol\":1697:1714  saleInfor.endSale */\n      0x05\n      add\n        /* \"Ethereum/Presale.sol\":1697:1725  saleInfor.endSale = datas[2] */\n      dup2\n      swap1\n      sstore\n      pop\n        /* \"Ethereum/Presale.sol\":1763:1768  datas */\n      dup1\n        /* \"Ethereum/Presale.sol\":1769:1770  3 */\n      0x03\n        /* \"Ethereum/Presale.sol\":1763:1771  datas[3] */\n      0x09\n      dup2\n      lt\n      tag_76\n      jumpi\n      mstore(0x00, 0x4e487b7100000000000000000000000000000000000000000000000000000000)\n      mstore(0x04, 0x32)\n      revert(0x00, 0x24)\n    tag_76:\n      0x20\n      mul\n      add\n      mload\n        /* \"Ethereum/Presale.sol\":1736:1745  saleInfor */\n      0x09\n        /* \"Ethereum/Presale.sol\":1736:1760  saleInfor.valueSwapERC20 */\n      0x06\n      add\n        /* \"Ethereum/Presale.sol\":1736:1771  saleInfor.valueSwapERC20 = datas[3] */\n      dup2\n      swap1\n      sstore\n      pop\n        /* \"Ethereum/Presale.sol\":1809:1814  datas */\n      dup1\n        /* \"Ethereum/Presale.sol\":1815:1816  4 */\n      0x04\n        /* \"Ethereum/Presale.sol\":1809:1817  datas[4] */\n      0x09\n      dup2\n      lt\n      tag_77\n      jumpi\n      mstore(0x00, 0x4e487b7100000000000000000000000000000000000000000000000000000000)\n      mstore(0x04, 0x32)\n      revert(0x00, 0x24)\n    tag_77:\n      0x20\n      mul\n      add\n      mload\n        /* \"Ethereum/Presale.sol\":1782:1791  saleInfor */\n      0x09\n        /* \"Ethereum/Presale.sol\":1782:1806  saleInfor.feeTransaction */\n      0x07\n      add\n        /* \"Ethereum/Presale.sol\":1782:1817  saleInfor.feeTransaction = datas[4] */\n      dup2\n      swap1\n      sstore\n      pop\n        /* \"Ethereum/Presale.sol\":1857:1862  datas */\n      dup1\n        /* \"Ethereum/Presale.sol\":1863:1864  5 */\n      0x05\n        /* \"Ethereum/Presale.sol\":1857:1865  datas[5] */\n      0x09\n      dup2\n      lt\n      tag_78\n      jumpi\n      mstore(0x00, 0x4e487b7100000000000000000000000000000000000000000000000000000000)\n      mstore(0x04, 0x32)\n      revert(0x00, 0x24)\n    tag_78:\n      0x20\n      mul\n      add\n      mload\n        /* \"Ethereum/Presale.sol\":1828:1837  saleInfor */\n      0x09\n        /* \"Ethereum/Presale.sol\":1828:1854  saleInfor.minSpendPerBuyer */\n      0x08\n      add\n        /* \"Ethereum/Presale.sol\":1828:1865  saleInfor.minSpendPerBuyer = datas[5] */\n      dup2\n      swap1\n      sstore\n      pop\n        /* \"Ethereum/Presale.sol\":1905:1910  datas */\n      dup1\n        /* \"Ethereum/Presale.sol\":1911:1912  6 */\n      0x06\n        /* \"Ethereum/Presale.sol\":1905:1913  datas[6] */\n      0x09\n      dup2\n      lt\n      tag_79\n      jumpi\n      mstore(0x00, 0x4e487b7100000000000000000000000000000000000000000000000000000000)\n      mstore(0x04, 0x32)\n      revert(0x00, 0x24)\n    tag_79:\n      0x20\n      mul\n      add\n      mload\n        /* \"Ethereum/Presale.sol\":1876:1885  saleInfor */\n      0x09\n        /* \"Ethereum/Presale.sol\":1876:1902  saleInfor.maxSpendPerBuyer */\n      dup1\n      add\n        /* \"Ethereum/Presale.sol\":1876:1913  saleInfor.maxSpendPerBuyer = datas[6] */\n      dup2\n      swap1\n      sstore\n      pop\n        /* \"Ethereum/Presale.sol\":1946:1951  datas */\n      dup1\n        /* \"Ethereum/Presale.sol\":1952:1953  7 */\n      0x07\n        /* \"Ethereum/Presale.sol\":1946:1954  datas[7] */\n      0x09\n      dup2\n      lt\n      tag_80\n      jumpi\n      mstore(0x00, 0x4e487b7100000000000000000000000000000000000000000000000000000000)\n      mstore(0x04, 0x32)\n      revert(0x00, 0x24)\n    tag_80:\n      0x20\n      mul\n      add\n      mload\n        /* \"Ethereum/Presale.sol\":1924:1933  saleInfor */\n      0x09\n        /* \"Ethereum/Presale.sol\":1924:1943  saleInfor.refundFee */\n      0x0a\n      add\n        /* \"Ethereum/Presale.sol\":1924:1954  saleInfor.refundFee = datas[7] */\n      dup2\n      swap1\n      sstore\n      pop\n        /* \"Ethereum/Presale.sol\":1986:1991  datas */\n      dup1\n        /* \"Ethereum/Presale.sol\":1992:1993  8 */\n      0x08\n        /* \"Ethereum/Presale.sol\":1986:1994  datas[8] */\n      0x09\n      dup2\n      lt\n      tag_81\n      jumpi\n      mstore(0x00, 0x4e487b7100000000000000000000000000000000000000000000000000000000)\n      mstore(0x04, 0x32)\n      revert(0x00, 0x24)\n    tag_81:\n      0x20\n      mul\n      add\n      mload\n        /* \"Ethereum/Presale.sol\":1965:1974  saleInfor */\n      0x09\n        /* \"Ethereum/Presale.sol\":1965:1983  saleInfor.claimFee */\n      0x0b\n      add\n        /* \"Ethereum/Presale.sol\":1965:1994  saleInfor.claimFee = datas[8] */\n      dup2\n      swap1\n      sstore\n      pop\n        /* \"Ethereum/Presale.sol\":1296:2002  function initialSaleInfor(\r... */\n      pop\n      pop\n      pop\n      pop\n      jump\t// out\n        /* \"Ethereum/Presale.sol\":1220:1254  PresaleStatus public presaleStatus */\n    tag_41:\n      0x03\n      dup1\n      0x00\n      add\n      sload\n      swap1\n      dup1\n      0x01\n      add\n      sload\n      swap1\n      dup1\n      0x02\n      add\n      sload\n      swap1\n      dup1\n      0x03\n      add\n      sload\n      swap1\n      dup1\n      0x04\n      add\n      sload\n      swap1\n      dup1\n      0x05\n      add\n      sload\n      swap1\n      pop\n      dup7\n      jump\t// out\n        /* \"Ethereum/Presale.sol\":1118:1164  mapping(address => BuyerInfo) public buyerInfo */\n    tag_47:\n      mstore(0x20, 0x01)\n      dup1\n      0x00\n      mstore\n      keccak256(0x00, 0x40)\n      0x00\n      swap2\n      pop\n      swap1\n      pop\n      dup1\n      0x00\n      add\n      sload\n      swap1\n      dup1\n      0x01\n      add\n      sload\n      swap1\n      dup1\n      0x02\n      add\n      sload\n      swap1\n      dup1\n      0x03\n      add\n      sload\n      swap1\n      dup1\n      0x04\n      add\n      0x00\n      swap1\n      sload\n      swap1\n      0x0100\n      exp\n      swap1\n      div\n      0xff\n      and\n      swap1\n      dup1\n      0x04\n      add\n      0x01\n      swap1\n      sload\n      swap1\n      0x0100\n      exp\n      swap1\n      div\n      0xff\n      and\n      swap1\n      pop\n      dup7\n      jump\t// out\n        /* \"Ethereum/Presale.sol\":2531:2642  function getBalance(address _address) external view returns(uint256) {\r... */\n    tag_53:\n        /* \"Ethereum/Presale.sol\":2591:2598  uint256 */\n      0x00\n        /* \"Ethereum/Presale.sol\":2618:2626  _address */\n      dup2\n        /* \"Ethereum/Presale.sol\":2618:2634  _address.balance */\n      0xffffffffffffffffffffffffffffffffffffffff\n      and\n      balance\n        /* \"Ethereum/Presale.sol\":2611:2634  return _address.balance */\n      swap1\n      pop\n        /* \"Ethereum/Presale.sol\":2531:2642  function getBalance(address _address) external view returns(uint256) {\r... */\n      swap2\n      swap1\n      pop\n      jump\t// out\n        /* \"#utility.yul\":25:613   */\n    tag_84:\n        /* \"#utility.yul\":119:124   */\n      0x00\n        /* \"#utility.yul\":144:223   */\n      tag_86\n        /* \"#utility.yul\":160:222   */\n      tag_87\n        /* \"#utility.yul\":215:221   */\n      dup5\n        /* \"#utility.yul\":160:222   */\n      tag_88\n      jump\t// in\n    tag_87:\n        /* \"#utility.yul\":144:223   */\n      tag_89\n      jump\t// in\n    tag_86:\n        /* \"#utility.yul\":135:223   */\n      swap1\n      pop\n        /* \"#utility.yul\":243:248   */\n      dup1\n        /* \"#utility.yul\":269:275   */\n      dup3\n        /* \"#utility.yul\":319:322   */\n      dup6\n        /* \"#utility.yul\":311:315   */\n      0x20\n        /* \"#utility.yul\":303:309   */\n      dup7\n        /* \"#utility.yul\":299:316   */\n      mul\n        /* \"#utility.yul\":294:297   */\n      dup3\n        /* \"#utility.yul\":290:317   */\n      add\n        /* \"#utility.yul\":287:323   */\n      gt\n        /* \"#utility.yul\":284:286   */\n      iszero\n      tag_90\n      jumpi\n        /* \"#utility.yul\":348:349   */\n      0x00\n        /* \"#utility.yul\":345:346   */\n      dup1\n        /* \"#utility.yul\":338:350   */\n      revert\n        /* \"#utility.yul\":284:286   */\n    tag_90:\n        /* \"#utility.yul\":384:385   */\n      0x00\n        /* \"#utility.yul\":369:607   */\n    tag_91:\n        /* \"#utility.yul\":394:400   */\n      dup6\n        /* \"#utility.yul\":391:392   */\n      dup2\n        /* \"#utility.yul\":388:401   */\n      lt\n        /* \"#utility.yul\":369:607   */\n      iszero\n      tag_93\n      jumpi\n        /* \"#utility.yul\":462:465   */\n      dup2\n        /* \"#utility.yul\":491:528   */\n      tag_94\n        /* \"#utility.yul\":524:527   */\n      dup9\n        /* \"#utility.yul\":512:522   */\n      dup3\n        /* \"#utility.yul\":491:528   */\n      tag_95\n      jump\t// in\n    tag_94:\n        /* \"#utility.yul\":486:489   */\n      dup5\n        /* \"#utility.yul\":479:529   */\n      mstore\n        /* \"#utility.yul\":558:562   */\n      0x20\n        /* \"#utility.yul\":553:556   */\n      dup5\n        /* \"#utility.yul\":549:563   */\n      add\n        /* \"#utility.yul\":542:563   */\n      swap4\n      pop\n        /* \"#utility.yul\":592:596   */\n      0x20\n        /* \"#utility.yul\":587:590   */\n      dup4\n        /* \"#utility.yul\":583:597   */\n      add\n        /* \"#utility.yul\":576:597   */\n      swap3\n      pop\n        /* \"#utility.yul\":429:607   */\n      pop\n        /* \"#utility.yul\":416:417   */\n      0x01\n        /* \"#utility.yul\":413:414   */\n      dup2\n        /* \"#utility.yul\":409:418   */\n      add\n        /* \"#utility.yul\":404:418   */\n      swap1\n      pop\n        /* \"#utility.yul\":369:607   */\n      jump(tag_91)\n    tag_93:\n        /* \"#utility.yul\":373:387   */\n      pop\n        /* \"#utility.yul\":125:613   */\n      pop\n      pop\n      swap4\n      swap3\n      pop\n      pop\n      pop\n      jump\t// out\n        /* \"#utility.yul\":619:758   */\n    tag_96:\n        /* \"#utility.yul\":665:670   */\n      0x00\n        /* \"#utility.yul\":703:709   */\n      dup2\n        /* \"#utility.yul\":690:710   */\n      calldataload\n        /* \"#utility.yul\":681:710   */\n      swap1\n      pop\n        /* \"#utility.yul\":719:752   */\n      tag_98\n        /* \"#utility.yul\":746:751   */\n      dup2\n        /* \"#utility.yul\":719:752   */\n      tag_99\n      jump\t// in\n    tag_98:\n        /* \"#utility.yul\":671:758   */\n      swap3\n      swap2\n      pop\n      pop\n      jump\t// out\n        /* \"#utility.yul\":764:919   */\n    tag_100:\n        /* \"#utility.yul\":818:823   */\n      0x00\n        /* \"#utility.yul\":856:862   */\n      dup2\n        /* \"#utility.yul\":843:863   */\n      calldataload\n        /* \"#utility.yul\":834:863   */\n      swap1\n      pop\n        /* \"#utility.yul\":872:913   */\n      tag_102\n        /* \"#utility.yul\":907:912   */\n      dup2\n        /* \"#utility.yul\":872:913   */\n      tag_103\n      jump\t// in\n    tag_102:\n        /* \"#utility.yul\":824:919   */\n      swap3\n      swap2\n      pop\n      pop\n      jump\t// out\n        /* \"#utility.yul\":943:1215   */\n    tag_104:\n        /* \"#utility.yul\":1012:1017   */\n      0x00\n        /* \"#utility.yul\":1061:1064   */\n      dup3\n        /* \"#utility.yul\":1054:1058   */\n      0x1f\n        /* \"#utility.yul\":1046:1052   */\n      dup4\n        /* \"#utility.yul\":1042:1059   */\n      add\n        /* \"#utility.yul\":1038:1065   */\n      slt\n        /* \"#utility.yul\":1028:1030   */\n      tag_106\n      jumpi\n        /* \"#utility.yul\":1079:1080   */\n      0x00\n        /* \"#utility.yul\":1076:1077   */\n      dup1\n        /* \"#utility.yul\":1069:1081   */\n      revert\n        /* \"#utility.yul\":1028:1030   */\n    tag_106:\n        /* \"#utility.yul\":1106:1110   */\n      0x09\n        /* \"#utility.yul\":1128:1209   */\n      tag_107\n        /* \"#utility.yul\":1205:1208   */\n      dup5\n        /* \"#utility.yul\":1197:1203   */\n      dup3\n        /* \"#utility.yul\":1189:1195   */\n      dup6\n        /* \"#utility.yul\":1128:1209   */\n      tag_84\n      jump\t// in\n    tag_107:\n        /* \"#utility.yul\":1119:1209   */\n      swap2\n      pop\n        /* \"#utility.yul\":1018:1215   */\n      pop\n      swap3\n      swap2\n      pop\n      pop\n      jump\t// out\n        /* \"#utility.yul\":1221:1386   */\n    tag_108:\n        /* \"#utility.yul\":1280:1285   */\n      0x00\n        /* \"#utility.yul\":1318:1324   */\n      dup2\n        /* \"#utility.yul\":1305:1325   */\n      calldataload\n        /* \"#utility.yul\":1296:1325   */\n      swap1\n      pop\n        /* \"#utility.yul\":1334:1380   */\n      tag_110\n        /* \"#utility.yul\":1374:1379   */\n      dup2\n        /* \"#utility.yul\":1334:1380   */\n      tag_111\n      jump\t// in\n    tag_110:\n        /* \"#utility.yul\":1286:1386   */\n      swap3\n      swap2\n      pop\n      pop\n      jump\t// out\n        /* \"#utility.yul\":1392:1531   */\n    tag_95:\n        /* \"#utility.yul\":1438:1443   */\n      0x00\n        /* \"#utility.yul\":1476:1482   */\n      dup2\n        /* \"#utility.yul\":1463:1483   */\n      calldataload\n        /* \"#utility.yul\":1454:1483   */\n      swap1\n      pop\n        /* \"#utility.yul\":1492:1525   */\n      tag_113\n        /* \"#utility.yul\":1519:1524   */\n      dup2\n        /* \"#utility.yul\":1492:1525   */\n      tag_114\n      jump\t// in\n    tag_113:\n        /* \"#utility.yul\":1444:1531   */\n      swap3\n      swap2\n      pop\n      pop\n      jump\t// out\n        /* \"#utility.yul\":1537:1799   */\n    tag_25:\n        /* \"#utility.yul\":1596:1602   */\n      0x00\n        /* \"#utility.yul\":1645:1647   */\n      0x20\n        /* \"#utility.yul\":1633:1642   */\n      dup3\n        /* \"#utility.yul\":1624:1631   */\n      dup5\n        /* \"#utility.yul\":1620:1643   */\n      sub\n        /* \"#utility.yul\":1616:1648   */\n      slt\n        /* \"#utility.yul\":1613:1615   */\n      iszero\n      tag_116\n      jumpi\n        /* \"#utility.yul\":1661:1662   */\n      0x00\n        /* \"#utility.yul\":1658:1659   */\n      dup1\n        /* \"#utility.yul\":1651:1663   */\n      revert\n        /* \"#utility.yul\":1613:1615   */\n    tag_116:\n        /* \"#utility.yul\":1704:1705   */\n      0x00\n        /* \"#utility.yul\":1729:1782   */\n      tag_117\n        /* \"#utility.yul\":1774:1781   */\n      dup5\n        /* \"#utility.yul\":1765:1771   */\n      dup3\n        /* \"#utility.yul\":1754:1763   */\n      dup6\n        /* \"#utility.yul\":1750:1772   */\n      add\n        /* \"#utility.yul\":1729:1782   */\n      tag_96\n      jump\t// in\n    tag_117:\n        /* \"#utility.yul\":1719:1782   */\n      swap2\n      pop\n        /* \"#utility.yul\":1675:1792   */\n      pop\n        /* \"#utility.yul\":1603:1799   */\n      swap3\n      swap2\n      pop\n      pop\n      jump\t// out\n        /* \"#utility.yul\":1805:2617   */\n    tag_37:\n        /* \"#utility.yul\":1948:1954   */\n      0x00\n        /* \"#utility.yul\":1956:1962   */\n      dup1\n        /* \"#utility.yul\":1964:1970   */\n      0x00\n        /* \"#utility.yul\":1972:1978   */\n      dup1\n        /* \"#utility.yul\":2021:2024   */\n      0x0180\n        /* \"#utility.yul\":2009:2018   */\n      dup6\n        /* \"#utility.yul\":2000:2007   */\n      dup8\n        /* \"#utility.yul\":1996:2019   */\n      sub\n        /* \"#utility.yul\":1992:2025   */\n      slt\n        /* \"#utility.yul\":1989:1991   */\n      iszero\n      tag_119\n      jumpi\n        /* \"#utility.yul\":2038:2039   */\n      0x00\n        /* \"#utility.yul\":2035:2036   */\n      dup1\n        /* \"#utility.yul\":2028:2040   */\n      revert\n        /* \"#utility.yul\":1989:1991   */\n    tag_119:\n        /* \"#utility.yul\":2081:2082   */\n      0x00\n        /* \"#utility.yul\":2106:2167   */\n      tag_120\n        /* \"#utility.yul\":2159:2166   */\n      dup8\n        /* \"#utility.yul\":2150:2156   */\n      dup3\n        /* \"#utility.yul\":2139:2148   */\n      dup9\n        /* \"#utility.yul\":2135:2157   */\n      add\n        /* \"#utility.yul\":2106:2167   */\n      tag_100\n      jump\t// in\n    tag_120:\n        /* \"#utility.yul\":2096:2167   */\n      swap5\n      pop\n        /* \"#utility.yul\":2052:2177   */\n      pop\n        /* \"#utility.yul\":2216:2218   */\n      0x20\n        /* \"#utility.yul\":2242:2308   */\n      tag_121\n        /* \"#utility.yul\":2300:2307   */\n      dup8\n        /* \"#utility.yul\":2291:2297   */\n      dup3\n        /* \"#utility.yul\":2280:2289   */\n      dup9\n        /* \"#utility.yul\":2276:2298   */\n      add\n        /* \"#utility.yul\":2242:2308   */\n      tag_108\n      jump\t// in\n    tag_121:\n        /* \"#utility.yul\":2232:2308   */\n      swap4\n      pop\n        /* \"#utility.yul\":2187:2318   */\n      pop\n        /* \"#utility.yul\":2357:2359   */\n      0x40\n        /* \"#utility.yul\":2383:2449   */\n      tag_122\n        /* \"#utility.yul\":2441:2448   */\n      dup8\n        /* \"#utility.yul\":2432:2438   */\n      dup3\n        /* \"#utility.yul\":2421:2430   */\n      dup9\n        /* \"#utility.yul\":2417:2439   */\n      add\n        /* \"#utility.yul\":2383:2449   */\n      tag_108\n      jump\t// in\n    tag_122:\n        /* \"#utility.yul\":2373:2449   */\n      swap3\n      pop\n        /* \"#utility.yul\":2328:2459   */\n      pop\n        /* \"#utility.yul\":2498:2500   */\n      0x60\n        /* \"#utility.yul\":2524:2600   */\n      tag_123\n        /* \"#utility.yul\":2592:2599   */\n      dup8\n        /* \"#utility.yul\":2583:2589   */\n      dup3\n        /* \"#utility.yul\":2572:2581   */\n      dup9\n        /* \"#utility.yul\":2568:2590   */\n      add\n        /* \"#utility.yul\":2524:2600   */\n      tag_104\n      jump\t// in\n    tag_123:\n        /* \"#utility.yul\":2514:2600   */\n      swap2\n      pop\n        /* \"#utility.yul\":2469:2610   */\n      pop\n        /* \"#utility.yul\":1979:2617   */\n      swap3\n      swap6\n      swap2\n      swap5\n      pop\n      swap3\n      pop\n      jump\t// out\n        /* \"#utility.yul\":2623:2885   */\n    tag_30:\n        /* \"#utility.yul\":2682:2688   */\n      0x00\n        /* \"#utility.yul\":2731:2733   */\n      0x20\n        /* \"#utility.yul\":2719:2728   */\n      dup3\n        /* \"#utility.yul\":2710:2717   */\n      dup5\n        /* \"#utility.yul\":2706:2729   */\n      sub\n        /* \"#utility.yul\":2702:2734   */\n      slt\n        /* \"#utility.yul\":2699:2701   */\n      iszero\n      tag_125\n      jumpi\n        /* \"#utility.yul\":2747:2748   */\n      0x00\n        /* \"#utility.yul\":2744:2745   */\n      dup1\n        /* \"#utility.yul\":2737:2749   */\n      revert\n        /* \"#utility.yul\":2699:2701   */\n    tag_125:\n        /* \"#utility.yul\":2790:2791   */\n      0x00\n        /* \"#utility.yul\":2815:2868   */\n      tag_126\n        /* \"#utility.yul\":2860:2867   */\n      dup5\n        /* \"#utility.yul\":2851:2857   */\n      dup3\n        /* \"#utility.yul\":2840:2849   */\n      dup6\n        /* \"#utility.yul\":2836:2858   */\n      add\n        /* \"#utility.yul\":2815:2868   */\n      tag_95\n      jump\t// in\n    tag_126:\n        /* \"#utility.yul\":2805:2868   */\n      swap2\n      pop\n        /* \"#utility.yul\":2761:2878   */\n      pop\n        /* \"#utility.yul\":2689:2885   */\n      swap3\n      swap2\n      pop\n      pop\n      jump\t// out\n        /* \"#utility.yul\":2891:3033   */\n    tag_127:\n        /* \"#utility.yul\":2994:3026   */\n      tag_129\n        /* \"#utility.yul\":3020:3025   */\n      dup2\n        /* \"#utility.yul\":2994:3026   */\n      tag_130\n      jump\t// in\n    tag_129:\n        /* \"#utility.yul\":2989:2992   */\n      dup3\n        /* \"#utility.yul\":2982:3027   */\n      mstore\n        /* \"#utility.yul\":2972:3033   */\n      pop\n      pop\n      jump\t// out\n        /* \"#utility.yul\":3039:3148   */\n    tag_131:\n        /* \"#utility.yul\":3120:3141   */\n      tag_133\n        /* \"#utility.yul\":3135:3140   */\n      dup2\n        /* \"#utility.yul\":3120:3141   */\n      tag_134\n      jump\t// in\n    tag_133:\n        /* \"#utility.yul\":3115:3118   */\n      dup3\n        /* \"#utility.yul\":3108:3142   */\n      mstore\n        /* \"#utility.yul\":3098:3148   */\n      pop\n      pop\n      jump\t// out\n        /* \"#utility.yul\":3154:3311   */\n    tag_135:\n        /* \"#utility.yul\":3254:3304   */\n      tag_137\n        /* \"#utility.yul\":3298:3303   */\n      dup2\n        /* \"#utility.yul\":3254:3304   */\n      tag_138\n      jump\t// in\n    tag_137:\n        /* \"#utility.yul\":3249:3252   */\n      dup3\n        /* \"#utility.yul\":3242:3305   */\n      mstore\n        /* \"#utility.yul\":3232:3311   */\n      pop\n      pop\n      jump\t// out\n        /* \"#utility.yul\":3317:3683   */\n    tag_139:\n        /* \"#utility.yul\":3459:3462   */\n      0x00\n        /* \"#utility.yul\":3480:3547   */\n      tag_141\n        /* \"#utility.yul\":3544:3546   */\n      0x1f\n        /* \"#utility.yul\":3539:3542   */\n      dup4\n        /* \"#utility.yul\":3480:3547   */\n      tag_142\n      jump\t// in\n    tag_141:\n        /* \"#utility.yul\":3473:3547   */\n      swap2\n      pop\n        /* \"#utility.yul\":3556:3649   */\n      tag_143\n        /* \"#utility.yul\":3645:3648   */\n      dup3\n        /* \"#utility.yul\":3556:3649   */\n      tag_144\n      jump\t// in\n    tag_143:\n        /* \"#utility.yul\":3674:3676   */\n      0x20\n        /* \"#utility.yul\":3669:3672   */\n      dup3\n        /* \"#utility.yul\":3665:3677   */\n      add\n        /* \"#utility.yul\":3658:3677   */\n      swap1\n      pop\n        /* \"#utility.yul\":3463:3683   */\n      swap2\n      swap1\n      pop\n      jump\t// out\n        /* \"#utility.yul\":3689:3807   */\n    tag_145:\n        /* \"#utility.yul\":3776:3800   */\n      tag_147\n        /* \"#utility.yul\":3794:3799   */\n      dup2\n        /* \"#utility.yul\":3776:3800   */\n      tag_148\n      jump\t// in\n    tag_147:\n        /* \"#utility.yul\":3771:3774   */\n      dup3\n        /* \"#utility.yul\":3764:3801   */\n      mstore\n        /* \"#utility.yul\":3754:3807   */\n      pop\n      pop\n      jump\t// out\n        /* \"#utility.yul\":3813:5342   */\n    tag_16:\n        /* \"#utility.yul\":4258:4262   */\n      0x00\n        /* \"#utility.yul\":4296:4299   */\n      0x0180\n        /* \"#utility.yul\":4285:4294   */\n      dup3\n        /* \"#utility.yul\":4281:4300   */\n      add\n        /* \"#utility.yul\":4273:4300   */\n      swap1\n      pop\n        /* \"#utility.yul\":4310:4397   */\n      tag_150\n        /* \"#utility.yul\":4394:4395   */\n      0x00\n        /* \"#utility.yul\":4383:4392   */\n      dup4\n        /* \"#utility.yul\":4379:4396   */\n      add\n        /* \"#utility.yul\":4370:4376   */\n      dup16\n        /* \"#utility.yul\":4310:4397   */\n      tag_127\n      jump\t// in\n    tag_150:\n        /* \"#utility.yul\":4407:4492   */\n      tag_151\n        /* \"#utility.yul\":4488:4490   */\n      0x20\n        /* \"#utility.yul\":4477:4486   */\n      dup4\n        /* \"#utility.yul\":4473:4491   */\n      add\n        /* \"#utility.yul\":4464:4470   */\n      dup15\n        /* \"#utility.yul\":4407:4492   */\n      tag_135\n      jump\t// in\n    tag_151:\n        /* \"#utility.yul\":4502:4587   */\n      tag_152\n        /* \"#utility.yul\":4583:4585   */\n      0x40\n        /* \"#utility.yul\":4572:4581   */\n      dup4\n        /* \"#utility.yul\":4568:4586   */\n      add\n        /* \"#utility.yul\":4559:4565   */\n      dup14\n        /* \"#utility.yul\":4502:4587   */\n      tag_135\n      jump\t// in\n    tag_152:\n        /* \"#utility.yul\":4597:4669   */\n      tag_153\n        /* \"#utility.yul\":4665:4667   */\n      0x60\n        /* \"#utility.yul\":4654:4663   */\n      dup4\n        /* \"#utility.yul\":4650:4668   */\n      add\n        /* \"#utility.yul\":4641:4647   */\n      dup13\n        /* \"#utility.yul\":4597:4669   */\n      tag_145\n      jump\t// in\n    tag_153:\n        /* \"#utility.yul\":4679:4752   */\n      tag_154\n        /* \"#utility.yul\":4747:4750   */\n      0x80\n        /* \"#utility.yul\":4736:4745   */\n      dup4\n        /* \"#utility.yul\":4732:4751   */\n      add\n        /* \"#utility.yul\":4723:4729   */\n      dup12\n        /* \"#utility.yul\":4679:4752   */\n      tag_145\n      jump\t// in\n    tag_154:\n        /* \"#utility.yul\":4762:4835   */\n      tag_155\n        /* \"#utility.yul\":4830:4833   */\n      0xa0\n        /* \"#utility.yul\":4819:4828   */\n      dup4\n        /* \"#utility.yul\":4815:4834   */\n      add\n        /* \"#utility.yul\":4806:4812   */\n      dup11\n        /* \"#utility.yul\":4762:4835   */\n      tag_145\n      jump\t// in\n    tag_155:\n        /* \"#utility.yul\":4845:4918   */\n      tag_156\n        /* \"#utility.yul\":4913:4916   */\n      0xc0\n        /* \"#utility.yul\":4902:4911   */\n      dup4\n        /* \"#utility.yul\":4898:4917   */\n      add\n        /* \"#utility.yul\":4889:4895   */\n      dup10\n        /* \"#utility.yul\":4845:4918   */\n      tag_145\n      jump\t// in\n    tag_156:\n        /* \"#utility.yul\":4928:5001   */\n      tag_157\n        /* \"#utility.yul\":4996:4999   */\n      0xe0\n        /* \"#utility.yul\":4985:4994   */\n      dup4\n        /* \"#utility.yul\":4981:5000   */\n      add\n        /* \"#utility.yul\":4972:4978   */\n      dup9\n        /* \"#utility.yul\":4928:5001   */\n      tag_145\n      jump\t// in\n    tag_157:\n        /* \"#utility.yul\":5011:5084   */\n      tag_158\n        /* \"#utility.yul\":5079:5082   */\n      0x0100\n        /* \"#utility.yul\":5068:5077   */\n      dup4\n        /* \"#utility.yul\":5064:5083   */\n      add\n        /* \"#utility.yul\":5055:5061   */\n      dup8\n        /* \"#utility.yul\":5011:5084   */\n      tag_145\n      jump\t// in\n    tag_158:\n        /* \"#utility.yul\":5094:5167   */\n      tag_159\n        /* \"#utility.yul\":5162:5165   */\n      0x0120\n        /* \"#utility.yul\":5151:5160   */\n      dup4\n        /* \"#utility.yul\":5147:5166   */\n      add\n        /* \"#utility.yul\":5138:5144   */\n      dup7\n        /* \"#utility.yul\":5094:5167   */\n      tag_145\n      jump\t// in\n    tag_159:\n        /* \"#utility.yul\":5177:5251   */\n      tag_160\n        /* \"#utility.yul\":5246:5249   */\n      0x0140\n        /* \"#utility.yul\":5235:5244   */\n      dup4\n        /* \"#utility.yul\":5231:5250   */\n      add\n        /* \"#utility.yul\":5221:5228   */\n      dup6\n        /* \"#utility.yul\":5177:5251   */\n      tag_145\n      jump\t// in\n    tag_160:\n        /* \"#utility.yul\":5261:5335   */\n      tag_161\n        /* \"#utility.yul\":5330:5333   */\n      0x0160\n        /* \"#utility.yul\":5319:5328   */\n      dup4\n        /* \"#utility.yul\":5315:5334   */\n      add\n        /* \"#utility.yul\":5305:5312   */\n      dup5\n        /* \"#utility.yul\":5261:5335   */\n      tag_145\n      jump\t// in\n    tag_161:\n        /* \"#utility.yul\":4263:5342   */\n      swap14\n      swap13\n      pop\n      pop\n      pop\n      pop\n      pop\n      pop\n      pop\n      pop\n      pop\n      pop\n      pop\n      pop\n      pop\n      jump\t// out\n        /* \"#utility.yul\":5348:5767   */\n    tag_63:\n        /* \"#utility.yul\":5514:5518   */\n      0x00\n        /* \"#utility.yul\":5552:5554   */\n      0x20\n        /* \"#utility.yul\":5541:5550   */\n      dup3\n        /* \"#utility.yul\":5537:5555   */\n      add\n        /* \"#utility.yul\":5529:5555   */\n      swap1\n      pop\n        /* \"#utility.yul\":5601:5610   */\n      dup2\n        /* \"#utility.yul\":5595:5599   */\n      dup2\n        /* \"#utility.yul\":5591:5611   */\n      sub\n        /* \"#utility.yul\":5587:5588   */\n      0x00\n        /* \"#utility.yul\":5576:5585   */\n      dup4\n        /* \"#utility.yul\":5572:5589   */\n      add\n        /* \"#utility.yul\":5565:5612   */\n      mstore\n        /* \"#utility.yul\":5629:5760   */\n      tag_163\n        /* \"#utility.yul\":5755:5759   */\n      dup2\n        /* \"#utility.yul\":5629:5760   */\n      tag_139\n      jump\t// in\n    tag_163:\n        /* \"#utility.yul\":5621:5760   */\n      swap1\n      pop\n        /* \"#utility.yul\":5519:5767   */\n      swap2\n      swap1\n      pop\n      jump\t// out\n        /* \"#utility.yul\":5773:5995   */\n    tag_21:\n        /* \"#utility.yul\":5866:5870   */\n      0x00\n        /* \"#utility.yul\":5904:5906   */\n      0x20\n        /* \"#utility.yul\":5893:5902   */\n      dup3\n        /* \"#utility.yul\":5889:5907   */\n      add\n        /* \"#utility.yul\":5881:5907   */\n      swap1\n      pop\n        /* \"#utility.yul\":5917:5988   */\n      tag_165\n        /* \"#utility.yul\":5985:5986   */\n      0x00\n        /* \"#utility.yul\":5974:5983   */\n      dup4\n        /* \"#utility.yul\":5970:5987   */\n      add\n        /* \"#utility.yul\":5961:5967   */\n      dup5\n        /* \"#utility.yul\":5917:5988   */\n      tag_145\n      jump\t// in\n    tag_165:\n        /* \"#utility.yul\":5871:5995   */\n      swap3\n      swap2\n      pop\n      pop\n      jump\t// out\n        /* \"#utility.yul\":6001:6752   */\n    tag_49:\n        /* \"#utility.yul\":6222:6226   */\n      0x00\n        /* \"#utility.yul\":6260:6263   */\n      0xc0\n        /* \"#utility.yul\":6249:6258   */\n      dup3\n        /* \"#utility.yul\":6245:6264   */\n      add\n        /* \"#utility.yul\":6237:6264   */\n      swap1\n      pop\n        /* \"#utility.yul\":6274:6345   */\n      tag_167\n        /* \"#utility.yul\":6342:6343   */\n      0x00\n        /* \"#utility.yul\":6331:6340   */\n      dup4\n        /* \"#utility.yul\":6327:6344   */\n      add\n        /* \"#utility.yul\":6318:6324   */\n      dup10\n        /* \"#utility.yul\":6274:6345   */\n      tag_145\n      jump\t// in\n    tag_167:\n        /* \"#utility.yul\":6355:6427   */\n      tag_168\n        /* \"#utility.yul\":6423:6425   */\n      0x20\n        /* \"#utility.yul\":6412:6421   */\n      dup4\n        /* \"#utility.yul\":6408:6426   */\n      add\n        /* \"#utility.yul\":6399:6405   */\n      dup9\n        /* \"#utility.yul\":6355:6427   */\n      tag_145\n      jump\t// in\n    tag_168:\n        /* \"#utility.yul\":6437:6509   */\n      tag_169\n        /* \"#utility.yul\":6505:6507   */\n      0x40\n        /* \"#utility.yul\":6494:6503   */\n      dup4\n        /* \"#utility.yul\":6490:6508   */\n      add\n        /* \"#utility.yul\":6481:6487   */\n      dup8\n        /* \"#utility.yul\":6437:6509   */\n      tag_145\n      jump\t// in\n    tag_169:\n        /* \"#utility.yul\":6519:6591   */\n      tag_170\n        /* \"#utility.yul\":6587:6589   */\n      0x60\n        /* \"#utility.yul\":6576:6585   */\n      dup4\n        /* \"#utility.yul\":6572:6590   */\n      add\n        /* \"#utility.yul\":6563:6569   */\n      dup7\n        /* \"#utility.yul\":6519:6591   */\n      tag_145\n      jump\t// in\n    tag_170:\n        /* \"#utility.yul\":6601:6668   */\n      tag_171\n        /* \"#utility.yul\":6663:6666   */\n      0x80\n        /* \"#utility.yul\":6652:6661   */\n      dup4\n        /* \"#utility.yul\":6648:6667   */\n      add\n        /* \"#utility.yul\":6639:6645   */\n      dup6\n        /* \"#utility.yul\":6601:6668   */\n      tag_131\n      jump\t// in\n    tag_171:\n        /* \"#utility.yul\":6678:6745   */\n      tag_172\n        /* \"#utility.yul\":6740:6743   */\n      0xa0\n        /* \"#utility.yul\":6729:6738   */\n      dup4\n        /* \"#utility.yul\":6725:6744   */\n      add\n        /* \"#utility.yul\":6716:6722   */\n      dup5\n        /* \"#utility.yul\":6678:6745   */\n      tag_131\n      jump\t// in\n    tag_172:\n        /* \"#utility.yul\":6227:6752   */\n      swap8\n      swap7\n      pop\n      pop\n      pop\n      pop\n      pop\n      pop\n      pop\n      jump\t// out\n        /* \"#utility.yul\":6758:7533   */\n    tag_43:\n        /* \"#utility.yul\":6991:6995   */\n      0x00\n        /* \"#utility.yul\":7029:7032   */\n      0xc0\n        /* \"#utility.yul\":7018:7027   */\n      dup3\n        /* \"#utility.yul\":7014:7033   */\n      add\n        /* \"#utility.yul\":7006:7033   */\n      swap1\n      pop\n        /* \"#utility.yul\":7043:7114   */\n      tag_174\n        /* \"#utility.yul\":7111:7112   */\n      0x00\n        /* \"#utility.yul\":7100:7109   */\n      dup4\n        /* \"#utility.yul\":7096:7113   */\n      add\n        /* \"#utility.yul\":7087:7093   */\n      dup10\n        /* \"#utility.yul\":7043:7114   */\n      tag_145\n      jump\t// in\n    tag_174:\n        /* \"#utility.yul\":7124:7196   */\n      tag_175\n        /* \"#utility.yul\":7192:7194   */\n      0x20\n        /* \"#utility.yul\":7181:7190   */\n      dup4\n        /* \"#utility.yul\":7177:7195   */\n      add\n        /* \"#utility.yul\":7168:7174   */\n      dup9\n        /* \"#utility.yul\":7124:7196   */\n      tag_145\n      jump\t// in\n    tag_175:\n        /* \"#utility.yul\":7206:7278   */\n      tag_176\n        /* \"#utility.yul\":7274:7276   */\n      0x40\n        /* \"#utility.yul\":7263:7272   */\n      dup4\n        /* \"#utility.yul\":7259:7277   */\n      add\n        /* \"#utility.yul\":7250:7256   */\n      dup8\n        /* \"#utility.yul\":7206:7278   */\n      tag_145\n      jump\t// in\n    tag_176:\n        /* \"#utility.yul\":7288:7360   */\n      tag_177\n        /* \"#utility.yul\":7356:7358   */\n      0x60\n        /* \"#utility.yul\":7345:7354   */\n      dup4\n        /* \"#utility.yul\":7341:7359   */\n      add\n        /* \"#utility.yul\":7332:7338   */\n      dup7\n        /* \"#utility.yul\":7288:7360   */\n      tag_145\n      jump\t// in\n    tag_177:\n        /* \"#utility.yul\":7370:7443   */\n      tag_178\n        /* \"#utility.yul\":7438:7441   */\n      0x80\n        /* \"#utility.yul\":7427:7436   */\n      dup4\n        /* \"#utility.yul\":7423:7442   */\n      add\n        /* \"#utility.yul\":7414:7420   */\n      dup6\n        /* \"#utility.yul\":7370:7443   */\n      tag_145\n      jump\t// in\n    tag_178:\n        /* \"#utility.yul\":7453:7526   */\n      tag_179\n        /* \"#utility.yul\":7521:7524   */\n      0xa0\n        /* \"#utility.yul\":7510:7519   */\n      dup4\n        /* \"#utility.yul\":7506:7525   */\n      add\n        /* \"#utility.yul\":7497:7503   */\n      dup5\n        /* \"#utility.yul\":7453:7526   */\n      tag_145\n      jump\t// in\n    tag_179:\n        /* \"#utility.yul\":6996:7533   */\n      swap8\n      swap7\n      pop\n      pop\n      pop\n      pop\n      pop\n      pop\n      pop\n      jump\t// out\n        /* \"#utility.yul\":7539:7668   */\n    tag_89:\n        /* \"#utility.yul\":7573:7579   */\n      0x00\n        /* \"#utility.yul\":7600:7620   */\n      tag_181\n      tag_182\n      jump\t// in\n    tag_181:\n        /* \"#utility.yul\":7590:7620   */\n      swap1\n      pop\n        /* \"#utility.yul\":7629:7662   */\n      tag_183\n        /* \"#utility.yul\":7657:7661   */\n      dup3\n        /* \"#utility.yul\":7649:7655   */\n      dup3\n        /* \"#utility.yul\":7629:7662   */\n      tag_184\n      jump\t// in\n    tag_183:\n        /* \"#utility.yul\":7580:7668   */\n      swap2\n      swap1\n      pop\n      jump\t// out\n        /* \"#utility.yul\":7674:7749   */\n    tag_182:\n        /* \"#utility.yul\":7707:7713   */\n      0x00\n        /* \"#utility.yul\":7740:7742   */\n      0x40\n        /* \"#utility.yul\":7734:7743   */\n      mload\n        /* \"#utility.yul\":7724:7743   */\n      swap1\n      pop\n        /* \"#utility.yul\":7714:7749   */\n      swap1\n      jump\t// out\n        /* \"#utility.yul\":7755:8004   */\n    tag_88:\n        /* \"#utility.yul\":7830:7834   */\n      0x00\n        /* \"#utility.yul\":7920:7938   */\n      0xffffffffffffffff\n        /* \"#utility.yul\":7912:7918   */\n      dup3\n        /* \"#utility.yul\":7909:7939   */\n      gt\n        /* \"#utility.yul\":7906:7908   */\n      iszero\n      tag_187\n      jumpi\n        /* \"#utility.yul\":7942:7960   */\n      tag_188\n      tag_189\n      jump\t// in\n    tag_188:\n        /* \"#utility.yul\":7906:7908   */\n    tag_187:\n        /* \"#utility.yul\":7992:7996   */\n      0x20\n        /* \"#utility.yul\":7984:7990   */\n      dup3\n        /* \"#utility.yul\":7980:7997   */\n      mul\n        /* \"#utility.yul\":7972:7997   */\n      swap1\n      pop\n        /* \"#utility.yul\":7835:8004   */\n      swap2\n      swap1\n      pop\n      jump\t// out\n        /* \"#utility.yul\":8010:8179   */\n    tag_142:\n        /* \"#utility.yul\":8094:8105   */\n      0x00\n        /* \"#utility.yul\":8128:8134   */\n      dup3\n        /* \"#utility.yul\":8123:8126   */\n      dup3\n        /* \"#utility.yul\":8116:8135   */\n      mstore\n        /* \"#utility.yul\":8168:8172   */\n      0x20\n        /* \"#utility.yul\":8163:8166   */\n      dup3\n        /* \"#utility.yul\":8159:8173   */\n      add\n        /* \"#utility.yul\":8144:8173   */\n      swap1\n      pop\n        /* \"#utility.yul\":8106:8179   */\n      swap3\n      swap2\n      pop\n      pop\n      jump\t// out\n        /* \"#utility.yul\":8185:8376   */\n    tag_66:\n        /* \"#utility.yul\":8225:8229   */\n      0x00\n        /* \"#utility.yul\":8245:8265   */\n      tag_192\n        /* \"#utility.yul\":8263:8264   */\n      dup3\n        /* \"#utility.yul\":8245:8265   */\n      tag_148\n      jump\t// in\n    tag_192:\n        /* \"#utility.yul\":8240:8265   */\n      swap2\n      pop\n        /* \"#utility.yul\":8279:8299   */\n      tag_193\n        /* \"#utility.yul\":8297:8298   */\n      dup4\n        /* \"#utility.yul\":8279:8299   */\n      tag_148\n      jump\t// in\n    tag_193:\n        /* \"#utility.yul\":8274:8299   */\n      swap3\n      pop\n        /* \"#utility.yul\":8318:8319   */\n      dup3\n        /* \"#utility.yul\":8315:8316   */\n      dup3\n        /* \"#utility.yul\":8312:8320   */\n      lt\n        /* \"#utility.yul\":8309:8311   */\n      iszero\n      tag_194\n      jumpi\n        /* \"#utility.yul\":8323:8341   */\n      tag_195\n      tag_196\n      jump\t// in\n    tag_195:\n        /* \"#utility.yul\":8309:8311   */\n    tag_194:\n        /* \"#utility.yul\":8368:8369   */\n      dup3\n        /* \"#utility.yul\":8365:8366   */\n      dup3\n        /* \"#utility.yul\":8361:8370   */\n      sub\n        /* \"#utility.yul\":8353:8370   */\n      swap1\n      pop\n        /* \"#utility.yul\":8230:8376   */\n      swap3\n      swap2\n      pop\n      pop\n      jump\t// out\n        /* \"#utility.yul\":8382:8478   */\n    tag_197:\n        /* \"#utility.yul\":8419:8426   */\n      0x00\n        /* \"#utility.yul\":8448:8472   */\n      tag_199\n        /* \"#utility.yul\":8466:8471   */\n      dup3\n        /* \"#utility.yul\":8448:8472   */\n      tag_200\n      jump\t// in\n    tag_199:\n        /* \"#utility.yul\":8437:8472   */\n      swap1\n      pop\n        /* \"#utility.yul\":8427:8478   */\n      swap2\n      swap1\n      pop\n      jump\t// out\n        /* \"#utility.yul\":8484:8588   */\n    tag_130:\n        /* \"#utility.yul\":8529:8536   */\n      0x00\n        /* \"#utility.yul\":8558:8582   */\n      tag_202\n        /* \"#utility.yul\":8576:8581   */\n      dup3\n        /* \"#utility.yul\":8558:8582   */\n      tag_200\n      jump\t// in\n    tag_202:\n        /* \"#utility.yul\":8547:8582   */\n      swap1\n      pop\n        /* \"#utility.yul\":8537:8588   */\n      swap2\n      swap1\n      pop\n      jump\t// out\n        /* \"#utility.yul\":8594:8684   */\n    tag_134:\n        /* \"#utility.yul\":8628:8635   */\n      0x00\n        /* \"#utility.yul\":8671:8676   */\n      dup2\n        /* \"#utility.yul\":8664:8677   */\n      iszero\n        /* \"#utility.yul\":8657:8678   */\n      iszero\n        /* \"#utility.yul\":8646:8678   */\n      swap1\n      pop\n        /* \"#utility.yul\":8636:8684   */\n      swap2\n      swap1\n      pop\n      jump\t// out\n        /* \"#utility.yul\":8690:8799   */\n    tag_204:\n        /* \"#utility.yul\":8740:8747   */\n      0x00\n        /* \"#utility.yul\":8769:8793   */\n      tag_206\n        /* \"#utility.yul\":8787:8792   */\n      dup3\n        /* \"#utility.yul\":8769:8793   */\n      tag_197\n      jump\t// in\n    tag_206:\n        /* \"#utility.yul\":8758:8793   */\n      swap1\n      pop\n        /* \"#utility.yul\":8748:8799   */\n      swap2\n      swap1\n      pop\n      jump\t// out\n        /* \"#utility.yul\":8805:8931   */\n    tag_200:\n        /* \"#utility.yul\":8842:8849   */\n      0x00\n        /* \"#utility.yul\":8882:8924   */\n      0xffffffffffffffffffffffffffffffffffffffff\n        /* \"#utility.yul\":8875:8880   */\n      dup3\n        /* \"#utility.yul\":8871:8925   */\n      and\n        /* \"#utility.yul\":8860:8925   */\n      swap1\n      pop\n        /* \"#utility.yul\":8850:8931   */\n      swap2\n      swap1\n      pop\n      jump\t// out\n        /* \"#utility.yul\":8937:9014   */\n    tag_148:\n        /* \"#utility.yul\":8974:8981   */\n      0x00\n        /* \"#utility.yul\":9003:9008   */\n      dup2\n        /* \"#utility.yul\":8992:9008   */\n      swap1\n      pop\n        /* \"#utility.yul\":8982:9014   */\n      swap2\n      swap1\n      pop\n      jump\t// out\n        /* \"#utility.yul\":9020:9172   */\n    tag_138:\n        /* \"#utility.yul\":9083:9092   */\n      0x00\n        /* \"#utility.yul\":9116:9166   */\n      tag_210\n        /* \"#utility.yul\":9160:9165   */\n      dup3\n        /* \"#utility.yul\":9116:9166   */\n      tag_211\n      jump\t// in\n    tag_210:\n        /* \"#utility.yul\":9103:9166   */\n      swap1\n      pop\n        /* \"#utility.yul\":9093:9172   */\n      swap2\n      swap1\n      pop\n      jump\t// out\n        /* \"#utility.yul\":9178:9304   */\n    tag_211:\n        /* \"#utility.yul\":9241:9250   */\n      0x00\n        /* \"#utility.yul\":9274:9298   */\n      tag_213\n        /* \"#utility.yul\":9292:9297   */\n      dup3\n        /* \"#utility.yul\":9274:9298   */\n      tag_200\n      jump\t// in\n    tag_213:\n        /* \"#utility.yul\":9261:9298   */\n      swap1\n      pop\n        /* \"#utility.yul\":9251:9304   */\n      swap2\n      swap1\n      pop\n      jump\t// out\n        /* \"#utility.yul\":9310:9591   */\n    tag_184:\n        /* \"#utility.yul\":9393:9420   */\n      tag_215\n        /* \"#utility.yul\":9415:9419   */\n      dup3\n        /* \"#utility.yul\":9393:9420   */\n      tag_216\n      jump\t// in\n    tag_215:\n        /* \"#utility.yul\":9385:9391   */\n      dup2\n        /* \"#utility.yul\":9381:9421   */\n      add\n        /* \"#utility.yul\":9523:9529   */\n      dup2\n        /* \"#utility.yul\":9511:9521   */\n      dup2\n        /* \"#utility.yul\":9508:9530   */\n      lt\n        /* \"#utility.yul\":9487:9505   */\n      0xffffffffffffffff\n        /* \"#utility.yul\":9475:9485   */\n      dup3\n        /* \"#utility.yul\":9472:9506   */\n      gt\n        /* \"#utility.yul\":9469:9531   */\n      or\n        /* \"#utility.yul\":9466:9468   */\n      iszero\n      tag_217\n      jumpi\n        /* \"#utility.yul\":9534:9552   */\n      tag_218\n      tag_189\n      jump\t// in\n    tag_218:\n        /* \"#utility.yul\":9466:9468   */\n    tag_217:\n        /* \"#utility.yul\":9574:9584   */\n      dup1\n        /* \"#utility.yul\":9570:9572   */\n      0x40\n        /* \"#utility.yul\":9563:9585   */\n      mstore\n        /* \"#utility.yul\":9353:9591   */\n      pop\n      pop\n      pop\n      jump\t// out\n        /* \"#utility.yul\":9597:9777   */\n    tag_196:\n        /* \"#utility.yul\":9645:9722   */\n      0x4e487b7100000000000000000000000000000000000000000000000000000000\n        /* \"#utility.yul\":9642:9643   */\n      0x00\n        /* \"#utility.yul\":9635:9723   */\n      mstore\n        /* \"#utility.yul\":9742:9746   */\n      0x11\n        /* \"#utility.yul\":9739:9740   */\n      0x04\n        /* \"#utility.yul\":9732:9747   */\n      mstore\n        /* \"#utility.yul\":9766:9770   */\n      0x24\n        /* \"#utility.yul\":9763:9764   */\n      0x00\n        /* \"#utility.yul\":9756:9771   */\n      revert\n        /* \"#utility.yul\":9783:9963   */\n    tag_189:\n        /* \"#utility.yul\":9831:9908   */\n      0x4e487b7100000000000000000000000000000000000000000000000000000000\n        /* \"#utility.yul\":9828:9829   */\n      0x00\n        /* \"#utility.yul\":9821:9909   */\n      mstore\n        /* \"#utility.yul\":9928:9932   */\n      0x41\n        /* \"#utility.yul\":9925:9926   */\n      0x04\n        /* \"#utility.yul\":9918:9933   */\n      mstore\n        /* \"#utility.yul\":9952:9956   */\n      0x24\n        /* \"#utility.yul\":9949:9950   */\n      0x00\n        /* \"#utility.yul\":9942:9957   */\n      revert\n        /* \"#utility.yul\":9969:10071   */\n    tag_216:\n        /* \"#utility.yul\":10010:10016   */\n      0x00\n        /* \"#utility.yul\":10061:10063   */\n      0x1f\n        /* \"#utility.yul\":10057:10064   */\n      not\n        /* \"#utility.yul\":10052:10054   */\n      0x1f\n        /* \"#utility.yul\":10045:10050   */\n      dup4\n        /* \"#utility.yul\":10041:10055   */\n      add\n        /* \"#utility.yul\":10037:10065   */\n      and\n        /* \"#utility.yul\":10027:10065   */\n      swap1\n      pop\n        /* \"#utility.yul\":10017:10071   */\n      swap2\n      swap1\n      pop\n      jump\t// out\n        /* \"#utility.yul\":10077:10258   */\n    tag_144:\n        /* \"#utility.yul\":10217:10250   */\n      0x5265656e7472616e637947756172643a207265656e7472616e742063616c6c00\n        /* \"#utility.yul\":10213:10214   */\n      0x00\n        /* \"#utility.yul\":10205:10211   */\n      dup3\n        /* \"#utility.yul\":10201:10215   */\n      add\n        /* \"#utility.yul\":10194:10251   */\n      mstore\n        /* \"#utility.yul\":10183:10258   */\n      pop\n      jump\t// out\n        /* \"#utility.yul\":10264:10386   */\n    tag_99:\n        /* \"#utility.yul\":10337:10361   */\n      tag_224\n        /* \"#utility.yul\":10355:10360   */\n      dup2\n        /* \"#utility.yul\":10337:10361   */\n      tag_197\n      jump\t// in\n    tag_224:\n        /* \"#utility.yul\":10330:10335   */\n      dup2\n        /* \"#utility.yul\":10327:10362   */\n      eq\n        /* \"#utility.yul\":10317:10319   */\n      tag_225\n      jumpi\n        /* \"#utility.yul\":10376:10377   */\n      0x00\n        /* \"#utility.yul\":10373:10374   */\n      dup1\n        /* \"#utility.yul\":10366:10378   */\n      revert\n        /* \"#utility.yul\":10317:10319   */\n    tag_225:\n        /* \"#utility.yul\":10307:10386   */\n      pop\n      jump\t// out\n        /* \"#utility.yul\":10392:10530   */\n    tag_103:\n        /* \"#utility.yul\":10473:10505   */\n      tag_227\n        /* \"#utility.yul\":10499:10504   */\n      dup2\n        /* \"#utility.yul\":10473:10505   */\n      tag_130\n      jump\t// in\n    tag_227:\n        /* \"#utility.yul\":10466:10471   */\n      dup2\n        /* \"#utility.yul\":10463:10506   */\n      eq\n        /* \"#utility.yul\":10453:10455   */\n      tag_228\n      jumpi\n        /* \"#utility.yul\":10520:10521   */\n      0x00\n        /* \"#utility.yul\":10517:10518   */\n      dup1\n        /* \"#utility.yul\":10510:10522   */\n      revert\n        /* \"#utility.yul\":10453:10455   */\n    tag_228:\n        /* \"#utility.yul\":10443:10530   */\n      pop\n      jump\t// out\n        /* \"#utility.yul\":10536:10684   */\n    tag_111:\n        /* \"#utility.yul\":10622:10659   */\n      tag_230\n        /* \"#utility.yul\":10653:10658   */\n      dup2\n        /* \"#utility.yul\":10622:10659   */\n      tag_204\n      jump\t// in\n    tag_230:\n        /* \"#utility.yul\":10615:10620   */\n      dup2\n        /* \"#utility.yul\":10612:10660   */\n      eq\n        /* \"#utility.yul\":10602:10604   */\n      tag_231\n      jumpi\n        /* \"#utility.yul\":10674:10675   */\n      0x00\n        /* \"#utility.yul\":10671:10672   */\n      dup1\n        /* \"#utility.yul\":10664:10676   */\n      revert\n        /* \"#utility.yul\":10602:10604   */\n    tag_231:\n        /* \"#utility.yul\":10592:10684   */\n      pop\n      jump\t// out\n        /* \"#utility.yul\":10690:10812   */\n    tag_114:\n        /* \"#utility.yul\":10763:10787   */\n      tag_233\n        /* \"#utility.yul\":10781:10786   */\n      dup2\n        /* \"#utility.yul\":10763:10787   */\n      tag_148\n      jump\t// in\n    tag_233:\n        /* \"#utility.yul\":10756:10761   */\n      dup2\n        /* \"#utility.yul\":10753:10788   */\n      eq\n        /* \"#utility.yul\":10743:10745   */\n      tag_234\n      jumpi\n        /* \"#utility.yul\":10802:10803   */\n      0x00\n        /* \"#utility.yul\":10799:10800   */\n      dup1\n        /* \"#utility.yul\":10792:10804   */\n      revert\n        /* \"#utility.yul\":10743:10745   */\n    tag_234:\n        /* \"#utility.yul\":10733:10812   */\n      pop\n      jump\t// out\n\n    auxdata: 0xa2646970667358221220f3727d9fb635f171af0de2cc19d566d9fac28fbd1f2b0842f96e07bf73f6e48c64736f6c63430008040033\n}\n",
				"bytecode": {
					"linkReferences": {},
					"object": "608060405234801561001057600080fd5b506001600081905550610e36806100286000396000f3fe6080604052600436106100865760003560e01c8063861faf5f11610059578063861faf5f146101455780638f1eae4c1461014f578063acfb235514610178578063e2d3f423146101a8578063f8b2cb4f146101ea57610086565b806318856a2f1461008b578063200d2ed2146100c157806356c5f349146100ec5780637964783314610129575b600080fd5b34801561009757600080fd5b506100a0610227565b6040516100b89c9b9a99989796959493929190610a04565b60405180910390f35b3480156100cd57600080fd5b506100d66102d5565b6040516100e39190610ade565b60405180910390f35b3480156100f857600080fd5b50610113600480360381019061010e91906108ef565b61030b565b6040516101209190610ade565b60405180910390f35b610143600480360381019061013e919061097c565b610323565b005b61014d6103ce565b005b34801561015b57600080fd5b5061017660048036038101906101719190610918565b610417565b005b34801561018457600080fd5b5061018d610770565b60405161019f96959493929190610b5a565b60405180910390f35b3480156101b457600080fd5b506101cf60048036038101906101ca91906108ef565b61079a565b6040516101e196959493929190610af9565b60405180910390f35b3480156101f657600080fd5b50610211600480360381019061020c91906108ef565b6107f0565b60405161021e9190610ade565b60405180910390f35b60098060000160009054906101000a900473ffffffffffffffffffffffffffffffffffffffff16908060010160009054906101000a900473ffffffffffffffffffffffffffffffffffffffff16908060020160009054906101000a900473ffffffffffffffffffffffffffffffffffffffff169080600301549080600401549080600501549080600601549080600701549080600801549080600901549080600a01549080600b015490508c565b60006009600401544210156102ed5760009050610308565b6009600501544211156103035760029050610308565b600190505b90565b60026020528060005260406000206000915090505481565b60026000541415610369576040517f08c379a000000000000000000000000000000000000000000000000000000000815260040161036090610abe565b60405180910390fd5b60026000819055503373ffffffffffffffffffffffffffffffffffffffff166108fc82346103979190610c17565b9081150290604051600060405180830381858888f193505050501580156103c2573d6000803e3d6000fd5b50600160008190555050565b3373ffffffffffffffffffffffffffffffffffffffff166108fc479081150290604051600060405180830381858888f19350505050158015610414573d6000803e3d6000fd5b50565b83600960000160006101000a81548173ffffffffffffffffffffffffffffffffffffffff021916908373ffffffffffffffffffffffffffffffffffffffff16021790555082600960010160006101000a81548173ffffffffffffffffffffffffffffffffffffffff021916908373ffffffffffffffffffffffffffffffffffffffff16021790555081600960020160006101000a81548173ffffffffffffffffffffffffffffffffffffffff021916908373ffffffffffffffffffffffffffffffffffffffff1602179055508060006009811061051d577f4e487b7100000000000000000000000000000000000000000000000000000000600052603260045260246000fd5b602002015160096003018190555080600160098110610565577f4e487b7100000000000000000000000000000000000000000000000000000000600052603260045260246000fd5b6020020151600960040181905550806002600981106105ad577f4e487b7100000000000000000000000000000000000000000000000000000000600052603260045260246000fd5b6020020151600960050181905550806003600981106105f5577f4e487b7100000000000000000000000000000000000000000000000000000000600052603260045260246000fd5b60200201516009600601819055508060046009811061063d577f4e487b7100000000000000000000000000000000000000000000000000000000600052603260045260246000fd5b602002015160096007018190555080600560098110610685577f4e487b7100000000000000000000000000000000000000000000000000000000600052603260045260246000fd5b6020020151600960080181905550806006600981106106cd577f4e487b7100000000000000000000000000000000000000000000000000000000600052603260045260246000fd5b6020020151600980018190555080600760098110610714577f4e487b7100000000000000000000000000000000000000000000000000000000600052603260045260246000fd5b60200201516009600a01819055508060086009811061075c577f4e487b7100000000000000000000000000000000000000000000000000000000600052603260045260246000fd5b60200201516009600b018190555050505050565b60038060000154908060010154908060020154908060030154908060040154908060050154905086565b60016020528060005260406000206000915090508060000154908060010154908060020154908060030154908060040160009054906101000a900460ff16908060040160019054906101000a900460ff16905086565b60008173ffffffffffffffffffffffffffffffffffffffff16319050919050565b600061082461081f84610be0565b610bbb565b9050808285602086028201111561083a57600080fd5b60005b8581101561086a578161085088826108da565b84526020840193506020830192505060018101905061083d565b5050509392505050565b60008135905061088381610da4565b92915050565b60008135905061089881610dbb565b92915050565b600082601f8301126108af57600080fd5b60096108bc848285610811565b91505092915050565b6000813590506108d481610dd2565b92915050565b6000813590506108e981610de9565b92915050565b60006020828403121561090157600080fd5b600061090f84828501610874565b91505092915050565b600080600080610180858703121561092f57600080fd5b600061093d87828801610889565b945050602061094e878288016108c5565b935050604061095f878288016108c5565b92505060606109708782880161089e565b91505092959194509250565b60006020828403121561098e57600080fd5b600061099c848285016108da565b91505092915050565b6109ae81610c5d565b82525050565b6109bd81610c6f565b82525050565b6109cc81610cb7565b82525050565b60006109df601f83610c06565b91506109ea82610d7b565b602082019050919050565b6109fe81610cad565b82525050565b600061018082019050610a1a600083018f6109a5565b610a27602083018e6109c3565b610a34604083018d6109c3565b610a41606083018c6109f5565b610a4e608083018b6109f5565b610a5b60a083018a6109f5565b610a6860c08301896109f5565b610a7560e08301886109f5565b610a836101008301876109f5565b610a916101208301866109f5565b610a9f6101408301856109f5565b610aad6101608301846109f5565b9d9c50505050505050505050505050565b60006020820190508181036000830152610ad7816109d2565b9050919050565b6000602082019050610af360008301846109f5565b92915050565b600060c082019050610b0e60008301896109f5565b610b1b60208301886109f5565b610b2860408301876109f5565b610b3560608301866109f5565b610b4260808301856109b4565b610b4f60a08301846109b4565b979650505050505050565b600060c082019050610b6f60008301896109f5565b610b7c60208301886109f5565b610b8960408301876109f5565b610b9660608301866109f5565b610ba360808301856109f5565b610bb060a08301846109f5565b979650505050505050565b6000610bc5610bd6565b9050610bd18282610cdb565b919050565b6000604051905090565b600067ffffffffffffffff821115610bfb57610bfa610d3b565b5b602082029050919050565b600082825260208201905092915050565b6000610c2282610cad565b9150610c2d83610cad565b925082821015610c4057610c3f610d0c565b5b828203905092915050565b6000610c5682610c8d565b9050919050565b6000610c6882610c8d565b9050919050565b60008115159050919050565b6000610c8682610c4b565b9050919050565b600073ffffffffffffffffffffffffffffffffffffffff82169050919050565b6000819050919050565b6000610cc282610cc9565b9050919050565b6000610cd482610c8d565b9050919050565b610ce482610d6a565b810181811067ffffffffffffffff82111715610d0357610d02610d3b565b5b80604052505050565b7f4e487b7100000000000000000000000000000000000000000000000000000000600052601160045260246000fd5b7f4e487b7100000000000000000000000000000000000000000000000000000000600052604160045260246000fd5b6000601f19601f8301169050919050565b7f5265656e7472616e637947756172643a207265656e7472616e742063616c6c00600082015250565b610dad81610c4b565b8114610db857600080fd5b50565b610dc481610c5d565b8114610dcf57600080fd5b50565b610ddb81610c7b565b8114610de657600080fd5b50565b610df281610cad565b8114610dfd57600080fd5b5056fea2646970667358221220f3727d9fb635f171af0de2cc19d566d9fac28fbd1f2b0842f96e07bf73f6e48c64736f6c63430008040033",
					"opcodes": "PUSH1 0x80 PUSH1 0x40 MSTORE CALLVALUE DUP1 ISZERO PUSH2 0x10 JUMPI PUSH1 0x0 DUP1 REVERT JUMPDEST POP PUSH1 0x1 PUSH1 0x0 DUP2 SWAP1 SSTORE POP PUSH2 0xE36 DUP1 PUSH2 0x28 PUSH1 0x0 CODECOPY PUSH1 0x0 RETURN INVALID PUSH1 0x80 PUSH1 0x40 MSTORE PUSH1 0x4 CALLDATASIZE LT PUSH2 0x86 JUMPI PUSH1 0x0 CALLDATALOAD PUSH1 0xE0 SHR DUP1 PUSH4 0x861FAF5F GT PUSH2 0x59 JUMPI DUP1 PUSH4 0x861FAF5F EQ PUSH2 0x145 JUMPI DUP1 PUSH4 0x8F1EAE4C EQ PUSH2 0x14F JUMPI DUP1 PUSH4 0xACFB2355 EQ PUSH2 0x178 JUMPI DUP1 PUSH4 0xE2D3F423 EQ PUSH2 0x1A8 JUMPI DUP1 PUSH4 0xF8B2CB4F EQ PUSH2 0x1EA JUMPI PUSH2 0x86 JUMP JUMPDEST DUP1 PUSH4 0x18856A2F EQ PUSH2 0x8B JUMPI DUP1 PUSH4 0x200D2ED2 EQ PUSH2 0xC1 JUMPI DUP1 PUSH4 0x56C5F349 EQ PUSH2 0xEC JUMPI DUP1 PUSH4 0x79647833 EQ PUSH2 0x129 JUMPI JUMPDEST PUSH1 0x0 DUP1 REVERT JUMPDEST CALLVALUE DUP1 ISZERO PUSH2 0x97 JUMPI PUSH1 0x0 DUP1 REVERT JUMPDEST POP PUSH2 0xA0 PUSH2 0x227 JUMP JUMPDEST PUSH1 0x40 MLOAD PUSH2 0xB8 SWAP13 SWAP12 SWAP11 SWAP10 SWAP9 SWAP8 SWAP7 SWAP6 SWAP5 SWAP4 SWAP3 SWAP2 SWAP1 PUSH2 0xA04 JUMP JUMPDEST PUSH1 0x40 MLOAD DUP1 SWAP2 SUB SWAP1 RETURN JUMPDEST CALLVALUE DUP1 ISZERO PUSH2 0xCD JUMPI PUSH1 0x0 DUP1 REVERT JUMPDEST POP PUSH2 0xD6 PUSH2 0x2D5 JUMP JUMPDEST PUSH1 0x40 MLOAD PUSH2 0xE3 SWAP2 SWAP1 PUSH2 0xADE JUMP JUMPDEST PUSH1 0x40 MLOAD DUP1 SWAP2 SUB SWAP1 RETURN JUMPDEST CALLVALUE DUP1 ISZERO PUSH2 0xF8 JUMPI PUSH1 0x0 DUP1 REVERT JUMPDEST POP PUSH2 0x113 PUSH1 0x4 DUP1 CALLDATASIZE SUB DUP2 ADD SWAP1 PUSH2 0x10E SWAP2 SWAP1 PUSH2 0x8EF JUMP JUMPDEST PUSH2 0x30B JUMP JUMPDEST PUSH1 0x40 MLOAD PUSH2 0x120 SWAP2 SWAP1 PUSH2 0xADE JUMP JUMPDEST PUSH1 0x40 MLOAD DUP1 SWAP2 SUB SWAP1 RETURN JUMPDEST PUSH2 0x143 PUSH1 0x4 DUP1 CALLDATASIZE SUB DUP2 ADD SWAP1 PUSH2 0x13E SWAP2 SWAP1 PUSH2 0x97C JUMP JUMPDEST PUSH2 0x323 JUMP JUMPDEST STOP JUMPDEST PUSH2 0x14D PUSH2 0x3CE JUMP JUMPDEST STOP JUMPDEST CALLVALUE DUP1 ISZERO PUSH2 0x15B JUMPI PUSH1 0x0 DUP1 REVERT JUMPDEST POP PUSH2 0x176 PUSH1 0x4 DUP1 CALLDATASIZE SUB DUP2 ADD SWAP1 PUSH2 0x171 SWAP2 SWAP1 PUSH2 0x918 JUMP JUMPDEST PUSH2 0x417 JUMP JUMPDEST STOP JUMPDEST CALLVALUE DUP1 ISZERO PUSH2 0x184 JUMPI PUSH1 0x0 DUP1 REVERT JUMPDEST POP PUSH2 0x18D PUSH2 0x770 JUMP JUMPDEST PUSH1 0x40 MLOAD PUSH2 0x19F SWAP7 SWAP6 SWAP5 SWAP4 SWAP3 SWAP2 SWAP1 PUSH2 0xB5A JUMP JUMPDEST PUSH1 0x40 MLOAD DUP1 SWAP2 SUB SWAP1 RETURN JUMPDEST CALLVALUE DUP1 ISZERO PUSH2 0x1B4 JUMPI PUSH1 0x0 DUP1 REVERT JUMPDEST POP PUSH2 0x1CF PUSH1 0x4 DUP1 CALLDATASIZE SUB DUP2 ADD SWAP1 PUSH2 0x1CA SWAP2 SWAP1 PUSH2 0x8EF JUMP JUMPDEST PUSH2 0x79A JUMP JUMPDEST PUSH1 0x40 MLOAD PUSH2 0x1E1 SWAP7 SWAP6 SWAP5 SWAP4 SWAP3 SWAP2 SWAP1 PUSH2 0xAF9 JUMP JUMPDEST PUSH1 0x40 MLOAD DUP1 SWAP2 SUB SWAP1 RETURN JUMPDEST CALLVALUE DUP1 ISZERO PUSH2 0x1F6 JUMPI PUSH1 0x0 DUP1 REVERT JUMPDEST POP PUSH2 0x211 PUSH1 0x4 DUP1 CALLDATASIZE SUB DUP2 ADD SWAP1 PUSH2 0x20C SWAP2 SWAP1 PUSH2 0x8EF JUMP JUMPDEST PUSH2 0x7F0 JUMP JUMPDEST PUSH1 0x40 MLOAD PUSH2 0x21E SWAP2 SWAP1 PUSH2 0xADE JUMP JUMPDEST PUSH1 0x40 MLOAD DUP1 SWAP2 SUB SWAP1 RETURN JUMPDEST PUSH1 0x9 DUP1 PUSH1 0x0 ADD PUSH1 0x0 SWAP1 SLOAD SWAP1 PUSH2 0x100 EXP SWAP1 DIV PUSH20 0xFFFFFFFFFFFFFFFFFFFFFFFFFFFFFFFFFFFFFFFF AND SWAP1 DUP1 PUSH1 0x1 ADD PUSH1 0x0 SWAP1 SLOAD SWAP1 PUSH2 0x100 EXP SWAP1 DIV PUSH20 0xFFFFFFFFFFFFFFFFFFFFFFFFFFFFFFFFFFFFFFFF AND SWAP1 DUP1 PUSH1 0x2 ADD PUSH1 0x0 SWAP1 SLOAD SWAP1 PUSH2 0x100 EXP SWAP1 DIV PUSH20 0xFFFFFFFFFFFFFFFFFFFFFFFFFFFFFFFFFFFFFFFF AND SWAP1 DUP1 PUSH1 0x3 ADD SLOAD SWAP1 DUP1 PUSH1 0x4 ADD SLOAD SWAP1 DUP1 PUSH1 0x5 ADD SLOAD SWAP1 DUP1 PUSH1 0x6 ADD SLOAD SWAP1 DUP1 PUSH1 0x7 ADD SLOAD SWAP1 DUP1 PUSH1 0x8 ADD SLOAD SWAP1 DUP1 PUSH1 0x9 ADD SLOAD SWAP1 DUP1 PUSH1 0xA ADD SLOAD SWAP1 DUP1 PUSH1 0xB ADD SLOAD SWAP1 POP DUP13 JUMP JUMPDEST PUSH1 0x0 PUSH1 0x9 PUSH1 0x4 ADD SLOAD TIMESTAMP LT ISZERO PUSH2 0x2ED JUMPI PUSH1 0x0 SWAP1 POP PUSH2 0x308 JUMP JUMPDEST PUSH1 0x9 PUSH1 0x5 ADD SLOAD TIMESTAMP GT ISZERO PUSH2 0x303 JUMPI PUSH1 0x2 SWAP1 POP PUSH2 0x308 JUMP JUMPDEST PUSH1 0x1 SWAP1 POP JUMPDEST SWAP1 JUMP JUMPDEST PUSH1 0x2 PUSH1 0x20 MSTORE DUP1 PUSH1 0x0 MSTORE PUSH1 0x40 PUSH1 0x0 KECCAK256 PUSH1 0x0 SWAP2 POP SWAP1 POP SLOAD DUP2 JUMP JUMPDEST PUSH1 0x2 PUSH1 0x0 SLOAD EQ ISZERO PUSH2 0x369 JUMPI PUSH1 0x40 MLOAD PUSH32 0x8C379A000000000000000000000000000000000000000000000000000000000 DUP2 MSTORE PUSH1 0x4 ADD PUSH2 0x360 SWAP1 PUSH2 0xABE JUMP JUMPDEST PUSH1 0x40 MLOAD DUP1 SWAP2 SUB SWAP1 REVERT JUMPDEST PUSH1 0x2 PUSH1 0x0 DUP2 SWAP1 SSTORE POP CALLER PUSH20 0xFFFFFFFFFFFFFFFFFFFFFFFFFFFFFFFFFFFFFFFF AND PUSH2 0x8FC DUP3 CALLVALUE PUSH2 0x397 SWAP2 SWAP1 PUSH2 0xC17 JUMP JUMPDEST SWAP1 DUP2 ISZERO MUL SWAP1 PUSH1 0x40 MLOAD PUSH1 0x0 PUSH1 0x40 MLOAD DUP1 DUP4 SUB DUP2 DUP6 DUP9 DUP9 CALL SWAP4 POP POP POP POP ISZERO DUP1 ISZERO PUSH2 0x3C2 JUMPI RETURNDATASIZE PUSH1 0x0 DUP1 RETURNDATACOPY RETURNDATASIZE PUSH1 0x0 REVERT JUMPDEST POP PUSH1 0x1 PUSH1 0x0 DUP2 SWAP1 SSTORE POP POP JUMP JUMPDEST CALLER PUSH20 0xFFFFFFFFFFFFFFFFFFFFFFFFFFFFFFFFFFFFFFFF AND PUSH2 0x8FC SELFBALANCE SWAP1 DUP2 ISZERO MUL SWAP1 PUSH1 0x40 MLOAD PUSH1 0x0 PUSH1 0x40 MLOAD DUP1 DUP4 SUB DUP2 DUP6 DUP9 DUP9 CALL SWAP4 POP POP POP POP ISZERO DUP1 ISZERO PUSH2 0x414 JUMPI RETURNDATASIZE PUSH1 0x0 DUP1 RETURNDATACOPY RETURNDATASIZE PUSH1 0x0 REVERT JUMPDEST POP JUMP JUMPDEST DUP4 PUSH1 0x9 PUSH1 0x0 ADD PUSH1 0x0 PUSH2 0x100 EXP DUP2 SLOAD DUP2 PUSH20 0xFFFFFFFFFFFFFFFFFFFFFFFFFFFFFFFFFFFFFFFF MUL NOT AND SWAP1 DUP4 PUSH20 0xFFFFFFFFFFFFFFFFFFFFFFFFFFFFFFFFFFFFFFFF AND MUL OR SWAP1 SSTORE POP DUP3 PUSH1 0x9 PUSH1 0x1 ADD PUSH1 0x0 PUSH2 0x100 EXP DUP2 SLOAD DUP2 PUSH20 0xFFFFFFFFFFFFFFFFFFFFFFFFFFFFFFFFFFFFFFFF MUL NOT AND SWAP1 DUP4 PUSH20 0xFFFFFFFFFFFFFFFFFFFFFFFFFFFFFFFFFFFFFFFF AND MUL OR SWAP1 SSTORE POP DUP2 PUSH1 0x9 PUSH1 0x2 ADD PUSH1 0x0 PUSH2 0x100 EXP DUP2 SLOAD DUP2 PUSH20 0xFFFFFFFFFFFFFFFFFFFFFFFFFFFFFFFFFFFFFFFF MUL NOT AND SWAP1 DUP4 PUSH20 0xFFFFFFFFFFFFFFFFFFFFFFFFFFFFFFFFFFFFFFFF AND MUL OR SWAP1 SSTORE POP DUP1 PUSH1 0x0 PUSH1 0x9 DUP2 LT PUSH2 0x51D JUMPI PUSH32 0x4E487B7100000000000000000000000000000000000000000000000000000000 PUSH1 0x0 MSTORE PUSH1 0x32 PUSH1 0x4 MSTORE PUSH1 0x24 PUSH1 0x0 REVERT JUMPDEST PUSH1 0x20 MUL ADD MLOAD PUSH1 0x9 PUSH1 0x3 ADD DUP2 SWAP1 SSTORE POP DUP1 PUSH1 0x1 PUSH1 0x9 DUP2 LT PUSH2 0x565 JUMPI PUSH32 0x4E487B7100000000000000000000000000000000000000000000000000000000 PUSH1 0x0 MSTORE PUSH1 0x32 PUSH1 0x4 MSTORE PUSH1 0x24 PUSH1 0x0 REVERT JUMPDEST PUSH1 0x20 MUL ADD MLOAD PUSH1 0x9 PUSH1 0x4 ADD DUP2 SWAP1 SSTORE POP DUP1 PUSH1 0x2 PUSH1 0x9 DUP2 LT PUSH2 0x5AD JUMPI PUSH32 0x4E487B7100000000000000000000000000000000000000000000000000000000 PUSH1 0x0 MSTORE PUSH1 0x32 PUSH1 0x4 MSTORE PUSH1 0x24 PUSH1 0x0 REVERT JUMPDEST PUSH1 0x20 MUL ADD MLOAD PUSH1 0x9 PUSH1 0x5 ADD DUP2 SWAP1 SSTORE POP DUP1 PUSH1 0x3 PUSH1 0x9 DUP2 LT PUSH2 0x5F5 JUMPI PUSH32 0x4E487B7100000000000000000000000000000000000000000000000000000000 PUSH1 0x0 MSTORE PUSH1 0x32 PUSH1 0x4 MSTORE PUSH1 0x24 PUSH1 0x0 REVERT JUMPDEST PUSH1 0x20 MUL ADD MLOAD PUSH1 0x9 PUSH1 0x6 ADD DUP2 SWAP1 SSTORE POP DUP1 PUSH1 0x4 PUSH1 0x9 DUP2 LT PUSH2 0x63D JUMPI PUSH32 0x4E487B7100000000000000000000000000000000000000000000000000000000 PUSH1 0x0 MSTORE PUSH1 0x32 PUSH1 0x4 MSTORE PUSH1 0x24 PUSH1 0x0 REVERT JUMPDEST PUSH1 0x20 MUL ADD MLOAD PUSH1 0x9 PUSH1 0x7 ADD DUP2 SWAP1 SSTORE POP DUP1 PUSH1 0x5 PUSH1 0x9 DUP2 LT PUSH2 0x685 JUMPI PUSH32 0x4E487B7100000000000000000000000000000000000000000000000000000000 PUSH1 0x0 MSTORE PUSH1 0x32 PUSH1 0x4 MSTORE PUSH1 0x24 PUSH1 0x0 REVERT JUMPDEST PUSH1 0x20 MUL ADD MLOAD PUSH1 0x9 PUSH1 0x8 ADD DUP2 SWAP1 SSTORE POP DUP1 PUSH1 0x6 PUSH1 0x9 DUP2 LT PUSH2 0x6CD JUMPI PUSH32 0x4E487B7100000000000000000000000000000000000000000000000000000000 PUSH1 0x0 MSTORE PUSH1 0x32 PUSH1 0x4 MSTORE PUSH1 0x24 PUSH1 0x0 REVERT JUMPDEST PUSH1 0x20 MUL ADD MLOAD PUSH1 0x9 DUP1 ADD DUP2 SWAP1 SSTORE POP DUP1 PUSH1 0x7 PUSH1 0x9 DUP2 LT PUSH2 0x714 JUMPI PUSH32 0x4E487B7100000000000000000000000000000000000000000000000000000000 PUSH1 0x0 MSTORE PUSH1 0x32 PUSH1 0x4 MSTORE PUSH1 0x24 PUSH1 0x0 REVERT JUMPDEST PUSH1 0x20 MUL ADD MLOAD PUSH1 0x9 PUSH1 0xA ADD DUP2 SWAP1 SSTORE POP DUP1 PUSH1 0x8 PUSH1 0x9 DUP2 LT PUSH2 0x75C JUMPI PUSH32 0x4E487B7100000000000000000000000000000000000000000000000000000000 PUSH1 0x0 MSTORE PUSH1 0x32 PUSH1 0x4 MSTORE PUSH1 0x24 PUSH1 0x0 REVERT JUMPDEST PUSH1 0x20 MUL ADD MLOAD PUSH1 0x9 PUSH1 0xB ADD DUP2 SWAP1 SSTORE POP POP POP POP POP JUMP JUMPDEST PUSH1 0x3 DUP1 PUSH1 0x0 ADD SLOAD SWAP1 DUP1 PUSH1 0x1 ADD SLOAD SWAP1 DUP1 PUSH1 0x2 ADD SLOAD SWAP1 DUP1 PUSH1 0x3 ADD SLOAD SWAP1 DUP1 PUSH1 0x4 ADD SLOAD SWAP1 DUP1 PUSH1 0x5 ADD SLOAD SWAP1 POP DUP7 JUMP JUMPDEST PUSH1 0x1 PUSH1 0x20 MSTORE DUP1 PUSH1 0x0 MSTORE PUSH1 0x40 PUSH1 0x0 KECCAK256 PUSH1 0x0 SWAP2 POP SWAP1 POP DUP1 PUSH1 0x0 ADD SLOAD SWAP1 DUP1 PUSH1 0x1 ADD SLOAD SWAP1 DUP1 PUSH1 0x2 ADD SLOAD SWAP1 DUP1 PUSH1 0x3 ADD SLOAD SWAP1 DUP1 PUSH1 0x4 ADD PUSH1 0x0 SWAP1 SLOAD SWAP1 PUSH2 0x100 EXP SWAP1 DIV PUSH1 0xFF AND SWAP1 DUP1 PUSH1 0x4 ADD PUSH1 0x1 SWAP1 SLOAD SWAP1 PUSH2 0x100 EXP SWAP1 DIV PUSH1 0xFF AND SWAP1 POP DUP7 JUMP JUMPDEST PUSH1 0x0 DUP2 PUSH20 0xFFFFFFFFFFFFFFFFFFFFFFFFFFFFFFFFFFFFFFFF AND BALANCE SWAP1 POP SWAP2 SWAP1 POP JUMP JUMPDEST PUSH1 0x0 PUSH2 0x824 PUSH2 0x81F DUP5 PUSH2 0xBE0 JUMP JUMPDEST PUSH2 0xBBB JUMP JUMPDEST SWAP1 POP DUP1 DUP3 DUP6 PUSH1 0x20 DUP7 MUL DUP3 ADD GT ISZERO PUSH2 0x83A JUMPI PUSH1 0x0 DUP1 REVERT JUMPDEST PUSH1 0x0 JUMPDEST DUP6 DUP2 LT ISZERO PUSH2 0x86A JUMPI DUP2 PUSH2 0x850 DUP9 DUP3 PUSH2 0x8DA JUMP JUMPDEST DUP5 MSTORE PUSH1 0x20 DUP5 ADD SWAP4 POP PUSH1 0x20 DUP4 ADD SWAP3 POP POP PUSH1 0x1 DUP2 ADD SWAP1 POP PUSH2 0x83D JUMP JUMPDEST POP POP POP SWAP4 SWAP3 POP POP POP JUMP JUMPDEST PUSH1 0x0 DUP2 CALLDATALOAD SWAP1 POP PUSH2 0x883 DUP2 PUSH2 0xDA4 JUMP JUMPDEST SWAP3 SWAP2 POP POP JUMP JUMPDEST PUSH1 0x0 DUP2 CALLDATALOAD SWAP1 POP PUSH2 0x898 DUP2 PUSH2 0xDBB JUMP JUMPDEST SWAP3 SWAP2 POP POP JUMP JUMPDEST PUSH1 0x0 DUP3 PUSH1 0x1F DUP4 ADD SLT PUSH2 0x8AF JUMPI PUSH1 0x0 DUP1 REVERT JUMPDEST PUSH1 0x9 PUSH2 0x8BC DUP5 DUP3 DUP6 PUSH2 0x811 JUMP JUMPDEST SWAP2 POP POP SWAP3 SWAP2 POP POP JUMP JUMPDEST PUSH1 0x0 DUP2 CALLDATALOAD SWAP1 POP PUSH2 0x8D4 DUP2 PUSH2 0xDD2 JUMP JUMPDEST SWAP3 SWAP2 POP POP JUMP JUMPDEST PUSH1 0x0 DUP2 CALLDATALOAD SWAP1 POP PUSH2 0x8E9 DUP2 PUSH2 0xDE9 JUMP JUMPDEST SWAP3 SWAP2 POP POP JUMP JUMPDEST PUSH1 0x0 PUSH1 0x20 DUP3 DUP5 SUB SLT ISZERO PUSH2 0x901 JUMPI PUSH1 0x0 DUP1 REVERT JUMPDEST PUSH1 0x0 PUSH2 0x90F DUP5 DUP3 DUP6 ADD PUSH2 0x874 JUMP JUMPDEST SWAP2 POP POP SWAP3 SWAP2 POP POP JUMP JUMPDEST PUSH1 0x0 DUP1 PUSH1 0x0 DUP1 PUSH2 0x180 DUP6 DUP8 SUB SLT ISZERO PUSH2 0x92F JUMPI PUSH1 0x0 DUP1 REVERT JUMPDEST PUSH1 0x0 PUSH2 0x93D DUP8 DUP3 DUP9 ADD PUSH2 0x889 JUMP JUMPDEST SWAP5 POP POP PUSH1 0x20 PUSH2 0x94E DUP8 DUP3 DUP9 ADD PUSH2 0x8C5 JUMP JUMPDEST SWAP4 POP POP PUSH1 0x40 PUSH2 0x95F DUP8 DUP3 DUP9 ADD PUSH2 0x8C5 JUMP JUMPDEST SWAP3 POP POP PUSH1 0x60 PUSH2 0x970 DUP8 DUP3 DUP9 ADD PUSH2 0x89E JUMP JUMPDEST SWAP2 POP POP SWAP3 SWAP6 SWAP2 SWAP5 POP SWAP3 POP JUMP JUMPDEST PUSH1 0x0 PUSH1 0x20 DUP3 DUP5 SUB SLT ISZERO PUSH2 0x98E JUMPI PUSH1 0x0 DUP1 REVERT JUMPDEST PUSH1 0x0 PUSH2 0x99C DUP5 DUP3 DUP6 ADD PUSH2 0x8DA JUMP JUMPDEST SWAP2 POP POP SWAP3 SWAP2 POP POP JUMP JUMPDEST PUSH2 0x9AE DUP2 PUSH2 0xC5D JUMP JUMPDEST DUP3 MSTORE POP POP JUMP JUMPDEST PUSH2 0x9BD DUP2 PUSH2 0xC6F JUMP JUMPDEST DUP3 MSTORE POP POP JUMP JUMPDEST PUSH2 0x9CC DUP2 PUSH2 0xCB7 JUMP JUMPDEST DUP3 MSTORE POP POP JUMP JUMPDEST PUSH1 0x0 PUSH2 0x9DF PUSH1 0x1F DUP4 PUSH2 0xC06 JUMP JUMPDEST SWAP2 POP PUSH2 0x9EA DUP3 PUSH2 0xD7B JUMP JUMPDEST PUSH1 0x20 DUP3 ADD SWAP1 POP SWAP2 SWAP1 POP JUMP JUMPDEST PUSH2 0x9FE DUP2 PUSH2 0xCAD JUMP JUMPDEST DUP3 MSTORE POP POP JUMP JUMPDEST PUSH1 0x0 PUSH2 0x180 DUP3 ADD SWAP1 POP PUSH2 0xA1A PUSH1 0x0 DUP4 ADD DUP16 PUSH2 0x9A5 JUMP JUMPDEST PUSH2 0xA27 PUSH1 0x20 DUP4 ADD DUP15 PUSH2 0x9C3 JUMP JUMPDEST PUSH2 0xA34 PUSH1 0x40 DUP4 ADD DUP14 PUSH2 0x9C3 JUMP JUMPDEST PUSH2 0xA41 PUSH1 0x60 DUP4 ADD DUP13 PUSH2 0x9F5 JUMP JUMPDEST PUSH2 0xA4E PUSH1 0x80 DUP4 ADD DUP12 PUSH2 0x9F5 JUMP JUMPDEST PUSH2 0xA5B PUSH1 0xA0 DUP4 ADD DUP11 PUSH2 0x9F5 JUMP JUMPDEST PUSH2 0xA68 PUSH1 0xC0 DUP4 ADD DUP10 PUSH2 0x9F5 JUMP JUMPDEST PUSH2 0xA75 PUSH1 0xE0 DUP4 ADD DUP9 PUSH2 0x9F5 JUMP JUMPDEST PUSH2 0xA83 PUSH2 0x100 DUP4 ADD DUP8 PUSH2 0x9F5 JUMP JUMPDEST PUSH2 0xA91 PUSH2 0x120 DUP4 ADD DUP7 PUSH2 0x9F5 JUMP JUMPDEST PUSH2 0xA9F PUSH2 0x140 DUP4 ADD DUP6 PUSH2 0x9F5 JUMP JUMPDEST PUSH2 0xAAD PUSH2 0x160 DUP4 ADD DUP5 PUSH2 0x9F5 JUMP JUMPDEST SWAP14 SWAP13 POP POP POP POP POP POP POP POP POP POP POP POP POP JUMP JUMPDEST PUSH1 0x0 PUSH1 0x20 DUP3 ADD SWAP1 POP DUP2 DUP2 SUB PUSH1 0x0 DUP4 ADD MSTORE PUSH2 0xAD7 DUP2 PUSH2 0x9D2 JUMP JUMPDEST SWAP1 POP SWAP2 SWAP1 POP JUMP JUMPDEST PUSH1 0x0 PUSH1 0x20 DUP3 ADD SWAP1 POP PUSH2 0xAF3 PUSH1 0x0 DUP4 ADD DUP5 PUSH2 0x9F5 JUMP JUMPDEST SWAP3 SWAP2 POP POP JUMP JUMPDEST PUSH1 0x0 PUSH1 0xC0 DUP3 ADD SWAP1 POP PUSH2 0xB0E PUSH1 0x0 DUP4 ADD DUP10 PUSH2 0x9F5 JUMP JUMPDEST PUSH2 0xB1B PUSH1 0x20 DUP4 ADD DUP9 PUSH2 0x9F5 JUMP JUMPDEST PUSH2 0xB28 PUSH1 0x40 DUP4 ADD DUP8 PUSH2 0x9F5 JUMP JUMPDEST PUSH2 0xB35 PUSH1 0x60 DUP4 ADD DUP7 PUSH2 0x9F5 JUMP JUMPDEST PUSH2 0xB42 PUSH1 0x80 DUP4 ADD DUP6 PUSH2 0x9B4 JUMP JUMPDEST PUSH2 0xB4F PUSH1 0xA0 DUP4 ADD DUP5 PUSH2 0x9B4 JUMP JUMPDEST SWAP8 SWAP7 POP POP POP POP POP POP POP JUMP JUMPDEST PUSH1 0x0 PUSH1 0xC0 DUP3 ADD SWAP1 POP PUSH2 0xB6F PUSH1 0x0 DUP4 ADD DUP10 PUSH2 0x9F5 JUMP JUMPDEST PUSH2 0xB7C PUSH1 0x20 DUP4 ADD DUP9 PUSH2 0x9F5 JUMP JUMPDEST PUSH2 0xB89 PUSH1 0x40 DUP4 ADD DUP8 PUSH2 0x9F5 JUMP JUMPDEST PUSH2 0xB96 PUSH1 0x60 DUP4 ADD DUP7 PUSH2 0x9F5 JUMP JUMPDEST PUSH2 0xBA3 PUSH1 0x80 DUP4 ADD DUP6 PUSH2 0x9F5 JUMP JUMPDEST PUSH2 0xBB0 PUSH1 0xA0 DUP4 ADD DUP5 PUSH2 0x9F5 JUMP JUMPDEST SWAP8 SWAP7 POP POP POP POP POP POP POP JUMP JUMPDEST PUSH1 0x0 PUSH2 0xBC5 PUSH2 0xBD6 JUMP JUMPDEST SWAP1 POP PUSH2 0xBD1 DUP3 DUP3 PUSH2 0xCDB JUMP JUMPDEST SWAP2 SWAP1 POP JUMP JUMPDEST PUSH1 0x0 PUSH1 0x40 MLOAD SWAP1 POP SWAP1 JUMP JUMPDEST PUSH1 0x0 PUSH8 0xFFFFFFFFFFFFFFFF DUP3 GT ISZERO PUSH2 0xBFB JUMPI PUSH2 0xBFA PUSH2 0xD3B JUMP JUMPDEST JUMPDEST PUSH1 0x20 DUP3 MUL SWAP1 POP SWAP2 SWAP1 POP JUMP JUMPDEST PUSH1 0x0 DUP3 DUP3 MSTORE PUSH1 0x20 DUP3 ADD SWAP1 POP SWAP3 SWAP2 POP POP JUMP JUMPDEST PUSH1 0x0 PUSH2 0xC22 DUP3 PUSH2 0xCAD JUMP JUMPDEST SWAP2 POP PUSH2 0xC2D DUP4 PUSH2 0xCAD JUMP JUMPDEST SWAP3 POP DUP3 DUP3 LT ISZERO PUSH2 0xC40 JUMPI PUSH2 0xC3F PUSH2 0xD0C JUMP JUMPDEST JUMPDEST DUP3 DUP3 SUB SWAP1 POP SWAP3 SWAP2 POP POP JUMP JUMPDEST PUSH1 0x0 PUSH2 0xC56 DUP3 PUSH2 0xC8D JUMP JUMPDEST SWAP1 POP SWAP2 SWAP1 POP JUMP JUMPDEST PUSH1 0x0 PUSH2 0xC68 DUP3 PUSH2 0xC8D JUMP JUMPDEST SWAP1 POP SWAP2 SWAP1 POP JUMP JUMPDEST PUSH1 0x0 DUP2 ISZERO ISZERO SWAP1 POP SWAP2 SWAP1 POP JUMP JUMPDEST PUSH1 0x0 PUSH2 0xC86 DUP3 PUSH2 0xC4B JUMP JUMPDEST SWAP1 POP SWAP2 SWAP1 POP JUMP JUMPDEST PUSH1 0x0 PUSH20 0xFFFFFFFFFFFFFFFFFFFFFFFFFFFFFFFFFFFFFFFF DUP3 AND SWAP1 POP SWAP2 SWAP1 POP JUMP JUMPDEST PUSH1 0x0 DUP2 SWAP1 POP SWAP2 SWAP1 POP JUMP JUMPDEST PUSH1 0x0 PUSH2 0xCC2 DUP3 PUSH2 0xCC9 JUMP JUMPDEST SWAP1 POP SWAP2 SWAP1 POP JUMP JUMPDEST PUSH1 0x0 PUSH2 0xCD4 DUP3 PUSH2 0xC8D JUMP JUMPDEST SWAP1 POP SWAP2 SWAP1 POP JUMP JUMPDEST PUSH2 0xCE4 DUP3 PUSH2 0xD6A JUMP JUMPDEST DUP2 ADD DUP2 DUP2 LT PUSH8 0xFFFFFFFFFFFFFFFF DUP3 GT OR ISZERO PUSH2 0xD03 JUMPI PUSH2 0xD02 PUSH2 0xD3B JUMP JUMPDEST JUMPDEST DUP1 PUSH1 0x40 MSTORE POP POP POP JUMP JUMPDEST PUSH32 0x4E487B7100000000000000000000000000000000000000000000000000000000 PUSH1 0x0 MSTORE PUSH1 0x11 PUSH1 0x4 MSTORE PUSH1 0x24 PUSH1 0x0 REVERT JUMPDEST PUSH32 0x4E487B7100000000000000000000000000000000000000000000000000000000 PUSH1 0x0 MSTORE PUSH1 0x41 PUSH1 0x4 MSTORE PUSH1 0x24 PUSH1 0x0 REVERT JUMPDEST PUSH1 0x0 PUSH1 0x1F NOT PUSH1 0x1F DUP4 ADD AND SWAP1 POP SWAP2 SWAP1 POP JUMP JUMPDEST PUSH32 0x5265656E7472616E637947756172643A207265656E7472616E742063616C6C00 PUSH1 0x0 DUP3 ADD MSTORE POP JUMP JUMPDEST PUSH2 0xDAD DUP2 PUSH2 0xC4B JUMP JUMPDEST DUP2 EQ PUSH2 0xDB8 JUMPI PUSH1 0x0 DUP1 REVERT JUMPDEST POP JUMP JUMPDEST PUSH2 0xDC4 DUP2 PUSH2 0xC5D JUMP JUMPDEST DUP2 EQ PUSH2 0xDCF JUMPI PUSH1 0x0 DUP1 REVERT JUMPDEST POP JUMP JUMPDEST PUSH2 0xDDB DUP2 PUSH2 0xC7B JUMP JUMPDEST DUP2 EQ PUSH2 0xDE6 JUMPI PUSH1 0x0 DUP1 REVERT JUMPDEST POP JUMP JUMPDEST PUSH2 0xDF2 DUP2 PUSH2 0xCAD JUMP JUMPDEST DUP2 EQ PUSH2 0xDFD JUMPI PUSH1 0x0 DUP1 REVERT JUMPDEST POP JUMP INVALID LOG2 PUSH5 0x6970667358 0x22 SLT KECCAK256 RETURN PUSH19 0x7D9FB635F171AF0DE2CC19D566D9FAC28FBD1F 0x2B ADDMOD TIMESTAMP 0xF9 PUSH15 0x7BF73F6E48C64736F6C6343000804 STOP CALLER "
				},
				"gasEstimates": {
					"creation": {
						"codeDepositCost": "727600",
						"executionCost": "20774",
						"totalCost": "748374"
					},
					"external": {
						"backToken()": "infinite",
						"buyerInfo(address)": "infinite",
						"depodit(uint256)": "infinite",
						"getBalance(address)": "1445",
						"initialSaleInfor(address,address,address,uint256[9])": "infinite",
						"presaleStatus()": "infinite",
						"saleInfor()": "infinite",
						"status()": "2033",
						"userFee(address)": "1559"
					}
				},
				"methodIdentifiers": {
					"backToken()": "861faf5f",
					"buyerInfo(address)": "e2d3f423",
					"depodit(uint256)": "79647833",
					"getBalance(address)": "f8b2cb4f",
					"initialSaleInfor(address,address,address,uint256[9])": "8f1eae4c",
					"presaleStatus()": "acfb2355",
					"saleInfor()": "18856a2f",
					"status()": "200d2ed2",
					"userFee(address)": "56c5f349"
				}
			},
			"storageLayout": {
				"storage": [
					{
						"astId": 346,
						"contract": "Ethereum/Presale.sol:Presale",
						"label": "_status",
						"offset": 0,
						"slot": "0",
						"type": "t_uint256"
					},
					{
						"astId": 142,
						"contract": "Ethereum/Presale.sol:Presale",
						"label": "buyerInfo",
						"offset": 0,
						"slot": "1",
						"type": "t_mapping(t_address,t_struct(BuyerInfo)124_storage)"
					},
					{
						"astId": 146,
						"contract": "Ethereum/Presale.sol:Presale",
						"label": "userFee",
						"offset": 0,
						"slot": "2",
						"type": "t_mapping(t_address,t_uint256)"
					},
					{
						"astId": 149,
						"contract": "Ethereum/Presale.sol:Presale",
						"label": "presaleStatus",
						"offset": 0,
						"slot": "3",
						"type": "t_struct(PresaleStatus)137_storage"
					},
					{
						"astId": 152,
						"contract": "Ethereum/Presale.sol:Presale",
						"label": "saleInfor",
						"offset": 0,
						"slot": "9",
						"type": "t_struct(SaleInfor)111_storage"
					}
				],
				"types": {
					"t_address": {
						"encoding": "inplace",
						"label": "address",
						"numberOfBytes": "20"
					},
					"t_address_payable": {
						"encoding": "inplace",
						"label": "address payable",
						"numberOfBytes": "20"
					},
					"t_bool": {
						"encoding": "inplace",
						"label": "bool",
						"numberOfBytes": "1"
					},
					"t_contract(IERC20)77": {
						"encoding": "inplace",
						"label": "contract IERC20",
						"numberOfBytes": "20"
					},
					"t_mapping(t_address,t_struct(BuyerInfo)124_storage)": {
						"encoding": "mapping",
						"key": "t_address",
						"label": "mapping(address => struct Presale.BuyerInfo)",
						"numberOfBytes": "32",
						"value": "t_struct(BuyerInfo)124_storage"
					},
					"t_mapping(t_address,t_uint256)": {
						"encoding": "mapping",
						"key": "t_address",
						"label": "mapping(address => uint256)",
						"numberOfBytes": "32",
						"value": "t_uint256"
					},
					"t_struct(BuyerInfo)124_storage": {
						"encoding": "inplace",
						"label": "struct Presale.BuyerInfo",
						"members": [
							{
								"astId": 113,
								"contract": "Ethereum/Presale.sol:Presale",
								"label": "baseDeposit",
								"offset": 0,
								"slot": "0",
								"type": "t_uint256"
							},
							{
								"astId": 115,
								"contract": "Ethereum/Presale.sol:Presale",
								"label": "tokenOwner",
								"offset": 0,
								"slot": "1",
								"type": "t_uint256"
							},
							{
								"astId": 117,
								"contract": "Ethereum/Presale.sol:Presale",
								"label": "lastWithDraw",
								"offset": 0,
								"slot": "2",
								"type": "t_uint256"
							},
							{
								"astId": 119,
								"contract": "Ethereum/Presale.sol:Presale",
								"label": "totalTokenWithDraw",
								"offset": 0,
								"slot": "3",
								"type": "t_uint256"
							},
							{
								"astId": 121,
								"contract": "Ethereum/Presale.sol:Presale",
								"label": "isRefund",
								"offset": 0,
								"slot": "4",
								"type": "t_bool"
							},
							{
								"astId": 123,
								"contract": "Ethereum/Presale.sol:Presale",
								"label": "isClaim",
								"offset": 1,
								"slot": "4",
								"type": "t_bool"
							}
						],
						"numberOfBytes": "160"
					},
					"t_struct(PresaleStatus)137_storage": {
						"encoding": "inplace",
						"label": "struct Presale.PresaleStatus",
						"members": [
							{
								"astId": 126,
								"contract": "Ethereum/Presale.sol:Presale",
								"label": "totalBaseCollected",
								"offset": 0,
								"slot": "0",
								"type": "t_uint256"
							},
							{
								"astId": 128,
								"contract": "Ethereum/Presale.sol:Presale",
								"label": "totalTokenSold",
								"offset": 0,
								"slot": "1",
								"type": "t_uint256"
							},
							{
								"astId": 130,
								"contract": "Ethereum/Presale.sol:Presale",
								"label": "totalTokenWithDraw",
								"offset": 0,
								"slot": "2",
								"type": "t_uint256"
							},
							{
								"astId": 132,
								"contract": "Ethereum/Presale.sol:Presale",
								"label": "totalBaseWithDraw",
								"offset": 0,
								"slot": "3",
								"type": "t_uint256"
							},
							{
								"astId": 134,
								"contract": "Ethereum/Presale.sol:Presale",
								"label": "numByer",
								"offset": 0,
								"slot": "4",
								"type": "t_uint256"
							},
							{
								"astId": 136,
								"contract": "Ethereum/Presale.sol:Presale",
								"label": "totalFee",
								"offset": 0,
								"slot": "5",
								"type": "t_uint256"
							}
						],
						"numberOfBytes": "192"
					},
					"t_struct(SaleInfor)111_storage": {
						"encoding": "inplace",
						"label": "struct Presale.SaleInfor",
						"members": [
							{
								"astId": 86,
								"contract": "Ethereum/Presale.sol:Presale",
								"label": "presaleOwner",
								"offset": 0,
								"slot": "0",
								"type": "t_address_payable"
							},
							{
								"astId": 89,
								"contract": "Ethereum/Presale.sol:Presale",
								"label": "saleToken",
								"offset": 0,
								"slot": "1",
								"type": "t_contract(IERC20)77"
							},
							{
								"astId": 92,
								"contract": "Ethereum/Presale.sol:Presale",
								"label": "baseToken",
								"offset": 0,
								"slot": "2",
								"type": "t_contract(IERC20)77"
							},
							{
								"astId": 94,
								"contract": "Ethereum/Presale.sol:Presale",
								"label": "tokenPrice",
								"offset": 0,
								"slot": "3",
								"type": "t_uint256"
							},
							{
								"astId": 96,
								"contract": "Ethereum/Presale.sol:Presale",
								"label": "startSale",
								"offset": 0,
								"slot": "4",
								"type": "t_uint256"
							},
							{
								"astId": 98,
								"contract": "Ethereum/Presale.sol:Presale",
								"label": "endSale",
								"offset": 0,
								"slot": "5",
								"type": "t_uint256"
							},
							{
								"astId": 100,
								"contract": "Ethereum/Presale.sol:Presale",
								"label": "valueSwapERC20",
								"offset": 0,
								"slot": "6",
								"type": "t_uint256"
							},
							{
								"astId": 102,
								"contract": "Ethereum/Presale.sol:Presale",
								"label": "feeTransaction",
								"offset": 0,
								"slot": "7",
								"type": "t_uint256"
							},
							{
								"astId": 104,
								"contract": "Ethereum/Presale.sol:Presale",
								"label": "minSpendPerBuyer",
								"offset": 0,
								"slot": "8",
								"type": "t_uint256"
							},
							{
								"astId": 106,
								"contract": "Ethereum/Presale.sol:Presale",
								"label": "maxSpendPerBuyer",
								"offset": 0,
								"slot": "9",
								"type": "t_uint256"
							},
							{
								"astId": 108,
								"contract": "Ethereum/Presale.sol:Presale",
								"label": "refundFee",
								"offset": 0,
								"slot": "10",
								"type": "t_uint256"
							},
							{
								"astId": 110,
								"contract": "Ethereum/Presale.sol:Presale",
								"label": "claimFee",
								"offset": 0,
								"slot": "11",
								"type": "t_uint256"
							}
						],
						"numberOfBytes": "384"
					},
					"t_uint256": {
						"encoding": "inplace",
						"label": "uint256",
						"numberOfBytes": "32"
					}
				}
			},
			"userdoc": {
				"kind": "user",
				"methods": {},
				"version": 1
			}
		}
	}
}