{
	"Ethereum/Presale.sol": {
		"Presale": {
			"abi": [
				{
					"inputs": [],
					"stateMutability": "nonpayable",
					"type": "constructor"
				},
				{
					"inputs": [],
					"name": "PRESALE_INFO",
					"outputs": [
						{
							"internalType": "contract IERC20",
							"name": "B_TOKEN",
							"type": "address"
						}
					],
					"stateMutability": "view",
					"type": "function"
				},
				{
					"inputs": [],
					"name": "backToken",
					"outputs": [],
					"stateMutability": "payable",
					"type": "function"
				},
				{
					"inputs": [
						{
							"internalType": "uint256",
							"name": "value",
							"type": "uint256"
						}
					],
					"name": "depodit",
					"outputs": [],
					"stateMutability": "payable",
					"type": "function"
				},
				{
					"inputs": [
						{
							"internalType": "address",
							"name": "_address",
							"type": "address"
						}
					],
					"name": "getBalance",
					"outputs": [
						{
							"internalType": "uint256",
							"name": "",
							"type": "uint256"
						}
					],
					"stateMutability": "view",
					"type": "function"
				},
				{
					"inputs": [
						{
							"internalType": "uint256",
							"name": "amount",
							"type": "uint256"
						}
					],
					"name": "transferETH",
					"outputs": [],
					"stateMutability": "payable",
					"type": "function"
				}
			],
			"devdoc": {
				"kind": "dev",
				"methods": {},
				"version": 1
			},
			"evm": {
				"assembly": "    /* \"Ethereum/Presale.sol\":232:3441  contract Presale is ReentrancyGuard{\r... */\n  mstore(0x40, 0x80)\n    /* \"Ethereum/Presale.sol\":2679:2785  constructor() {\r... */\n  callvalue\n  dup1\n  iszero\n  tag_1\n  jumpi\n  0x00\n  dup1\n  revert\ntag_1:\n  pop\n    /* \"Utils/ReentrancyGuard.sol\":1734:1735  1 */\n  0x01\n    /* \"Utils/ReentrancyGuard.sol\":1845:1852  _status */\n  0x00\n    /* \"Utils/ReentrancyGuard.sol\":1845:1867  _status = _NOT_ENTERED */\n  dup2\n  swap1\n  sstore\n  pop\n    /* \"Ethereum/Presale.sol\":2734:2776  0xc778417E063141139Fce010982780140Aa0cD5Ab */\n  0xc778417e063141139fce010982780140aa0cd5ab\n    /* \"Ethereum/Presale.sol\":2704:2716  PRESALE_INFO */\n  0x01\n    /* \"Ethereum/Presale.sol\":2704:2724  PRESALE_INFO.B_TOKEN */\n  0x00\n  add\n  0x00\n    /* \"Ethereum/Presale.sol\":2704:2777  PRESALE_INFO.B_TOKEN = IERC20(0xc778417E063141139Fce010982780140Aa0cD5Ab) */\n  0x0100\n  exp\n  dup2\n  sload\n  dup2\n  0xffffffffffffffffffffffffffffffffffffffff\n  mul\n  not\n  and\n  swap1\n  dup4\n  0xffffffffffffffffffffffffffffffffffffffff\n  and\n  mul\n  or\n  swap1\n  sstore\n  pop\n    /* \"Ethereum/Presale.sol\":232:3441  contract Presale is ReentrancyGuard{\r... */\n  dataSize(sub_0)\n  dup1\n  dataOffset(sub_0)\n  0x00\n  codecopy\n  0x00\n  return\nstop\n\nsub_0: assembly {\n        /* \"Ethereum/Presale.sol\":232:3441  contract Presale is ReentrancyGuard{\r... */\n      mstore(0x40, 0x80)\n      jumpi(tag_1, lt(calldatasize, 0x04))\n      shr(0xe0, calldataload(0x00))\n      dup1\n      0x3f74aa38\n      eq\n      tag_2\n      jumpi\n      dup1\n      0x4329db46\n      eq\n      tag_3\n      jumpi\n      dup1\n      0x79647833\n      eq\n      tag_4\n      jumpi\n      dup1\n      0x861faf5f\n      eq\n      tag_5\n      jumpi\n      dup1\n      0xf8b2cb4f\n      eq\n      tag_6\n      jumpi\n    tag_1:\n      0x00\n      dup1\n      revert\n        /* \"Ethereum/Presale.sol\":2639:2670  PresaleInfo public PRESALE_INFO */\n    tag_2:\n      callvalue\n      dup1\n      iszero\n      tag_7\n      jumpi\n      0x00\n      dup1\n      revert\n    tag_7:\n      pop\n      tag_8\n      tag_9\n      jump\t// in\n    tag_8:\n      mload(0x40)\n      tag_10\n      swap2\n      swap1\n      tag_11\n      jump\t// in\n    tag_10:\n      mload(0x40)\n      dup1\n      swap2\n      sub\n      swap1\n      return\n        /* \"Ethereum/Presale.sol\":3315:3436  function transferETH(uint256 amount) external payable {\r... */\n    tag_3:\n      tag_12\n      0x04\n      dup1\n      calldatasize\n      sub\n      dup2\n      add\n      swap1\n      tag_13\n      swap2\n      swap1\n      tag_14\n      jump\t// in\n    tag_13:\n      tag_15\n      jump\t// in\n    tag_12:\n      stop\n        /* \"Ethereum/Presale.sol\":2793:3069  function depodit(\r... */\n    tag_4:\n      tag_16\n      0x04\n      dup1\n      calldatasize\n      sub\n      dup2\n      add\n      swap1\n      tag_17\n      swap2\n      swap1\n      tag_14\n      jump\t// in\n    tag_17:\n      tag_18\n      jump\t// in\n    tag_16:\n      stop\n        /* \"Ethereum/Presale.sol\":3199:3307  function backToken() external payable {\r... */\n    tag_5:\n      tag_19\n      tag_20\n      jump\t// in\n    tag_19:\n      stop\n        /* \"Ethereum/Presale.sol\":3077:3188  function getBalance(address _address) external view returns(uint256) {\r... */\n    tag_6:\n      callvalue\n      dup1\n      iszero\n      tag_21\n      jumpi\n      0x00\n      dup1\n      revert\n    tag_21:\n      pop\n      tag_22\n      0x04\n      dup1\n      calldatasize\n      sub\n      dup2\n      add\n      swap1\n      tag_23\n      swap2\n      swap1\n      tag_24\n      jump\t// in\n    tag_23:\n      tag_25\n      jump\t// in\n    tag_22:\n      mload(0x40)\n      tag_26\n      swap2\n      swap1\n      tag_27\n      jump\t// in\n    tag_26:\n      mload(0x40)\n      dup1\n      swap2\n      sub\n      swap1\n      return\n        /* \"Ethereum/Presale.sol\":2639:2670  PresaleInfo public PRESALE_INFO */\n    tag_9:\n      0x01\n      dup1\n      0x00\n      add\n      0x00\n      swap1\n      sload\n      swap1\n      0x0100\n      exp\n      swap1\n      div\n      0xffffffffffffffffffffffffffffffffffffffff\n      and\n      swap1\n      pop\n      dup2\n      jump\t// out\n        /* \"Ethereum/Presale.sol\":3315:3436  function transferETH(uint256 amount) external payable {\r... */\n    tag_15:\n        /* \"Ethereum/Presale.sol\":3388:3398  msg.sender */\n      caller\n        /* \"Ethereum/Presale.sol\":3380:3408  payable(msg.sender).transfer */\n      0xffffffffffffffffffffffffffffffffffffffff\n      and\n        /* \"Ethereum/Presale.sol\":3380:3428  payable(msg.sender).transfer(msg.value - amount) */\n      0x08fc\n        /* \"Ethereum/Presale.sol\":3421:3427  amount */\n      dup3\n        /* \"Ethereum/Presale.sol\":3409:3418  msg.value */\n      callvalue\n        /* \"Ethereum/Presale.sol\":3409:3427  msg.value - amount */\n      tag_29\n      swap2\n      swap1\n      tag_30\n      jump\t// in\n    tag_29:\n        /* \"Ethereum/Presale.sol\":3380:3428  payable(msg.sender).transfer(msg.value - amount) */\n      swap1\n      dup2\n      iszero\n      mul\n      swap1\n      mload(0x40)\n      0x00\n      mload(0x40)\n      dup1\n      dup4\n      sub\n      dup2\n      dup6\n      dup9\n      dup9\n      call\n      swap4\n      pop\n      pop\n      pop\n      pop\n      iszero\n      dup1\n      iszero\n      tag_32\n      jumpi\n      returndatasize\n      0x00\n      dup1\n      returndatacopy\n      revert(0x00, returndatasize)\n    tag_32:\n      pop\n        /* \"Ethereum/Presale.sol\":3315:3436  function transferETH(uint256 amount) external payable {\r... */\n      pop\n      jump\t// out\n        /* \"Ethereum/Presale.sol\":2793:3069  function depodit(\r... */\n    tag_18:\n        /* \"Utils/ReentrancyGuard.sol\":1778:1779  2 */\n      0x02\n        /* \"Utils/ReentrancyGuard.sol\":2376:2383  _status */\n      sload(0x00)\n        /* \"Utils/ReentrancyGuard.sol\":2376:2395  _status != _ENTERED */\n      eq\n      iszero\n        /* \"Utils/ReentrancyGuard.sol\":2368:2431  require(_status != _ENTERED, \"ReentrancyGuard: reentrant call\") */\n      tag_34\n      jumpi\n      mload(0x40)\n      0x08c379a000000000000000000000000000000000000000000000000000000000\n      dup2\n      mstore\n      0x04\n      add\n      tag_35\n      swap1\n      tag_36\n      jump\t// in\n    tag_35:\n      mload(0x40)\n      dup1\n      swap2\n      sub\n      swap1\n      revert\n    tag_34:\n        /* \"Utils/ReentrancyGuard.sol\":1778:1779  2 */\n      0x02\n        /* \"Utils/ReentrancyGuard.sol\":2509:2516  _status */\n      0x00\n        /* \"Utils/ReentrancyGuard.sol\":2509:2527  _status = _ENTERED */\n      dup2\n      swap1\n      sstore\n      pop\n        /* \"Ethereum/Presale.sol\":2882:3061  TransferHelper.safeTransferFrom(\r... */\n      tag_38\n        /* \"Ethereum/Presale.sol\":2940:2952  PRESALE_INFO */\n      0x01\n        /* \"Ethereum/Presale.sol\":2940:2960  PRESALE_INFO.B_TOKEN */\n      0x00\n      add\n      0x00\n      swap1\n      sload\n      swap1\n      0x0100\n      exp\n      swap1\n      div\n      0xffffffffffffffffffffffffffffffffffffffff\n      and\n        /* \"Ethereum/Presale.sol\":2980:2990  msg.sender */\n      caller\n        /* \"Ethereum/Presale.sol\":3017:3021  this */\n      address\n        /* \"Ethereum/Presale.sol\":3041:3046  value */\n      dup5\n        /* \"Ethereum/Presale.sol\":2882:2913  TransferHelper.safeTransferFrom */\n      tag_39\n        /* \"Ethereum/Presale.sol\":2882:3061  TransferHelper.safeTransferFrom(\r... */\n      jump\t// in\n    tag_38:\n        /* \"Utils/ReentrancyGuard.sol\":1734:1735  1 */\n      0x01\n        /* \"Utils/ReentrancyGuard.sol\":2688:2695  _status */\n      0x00\n        /* \"Utils/ReentrancyGuard.sol\":2688:2710  _status = _NOT_ENTERED */\n      dup2\n      swap1\n      sstore\n      pop\n        /* \"Ethereum/Presale.sol\":2793:3069  function depodit(\r... */\n      pop\n      jump\t// out\n        /* \"Ethereum/Presale.sol\":3199:3307  function backToken() external payable {\r... */\n    tag_20:\n        /* \"Ethereum/Presale.sol\":3256:3266  msg.sender */\n      caller\n        /* \"Ethereum/Presale.sol\":3248:3276  payable(msg.sender).transfer */\n      0xffffffffffffffffffffffffffffffffffffffff\n      and\n        /* \"Ethereum/Presale.sol\":3248:3299  payable(msg.sender).transfer(address(this).balance) */\n      0x08fc\n        /* \"Ethereum/Presale.sol\":3277:3298  address(this).balance */\n      selfbalance\n        /* \"Ethereum/Presale.sol\":3248:3299  payable(msg.sender).transfer(address(this).balance) */\n      swap1\n      dup2\n      iszero\n      mul\n      swap1\n      mload(0x40)\n      0x00\n      mload(0x40)\n      dup1\n      dup4\n      sub\n      dup2\n      dup6\n      dup9\n      dup9\n      call\n      swap4\n      pop\n      pop\n      pop\n      pop\n      iszero\n      dup1\n      iszero\n      tag_42\n      jumpi\n      returndatasize\n      0x00\n      dup1\n      returndatacopy\n      revert(0x00, returndatasize)\n    tag_42:\n      pop\n        /* \"Ethereum/Presale.sol\":3199:3307  function backToken() external payable {\r... */\n      jump\t// out\n        /* \"Ethereum/Presale.sol\":3077:3188  function getBalance(address _address) external view returns(uint256) {\r... */\n    tag_25:\n        /* \"Ethereum/Presale.sol\":3137:3144  uint256 */\n      0x00\n        /* \"Ethereum/Presale.sol\":3164:3172  _address */\n      dup2\n        /* \"Ethereum/Presale.sol\":3164:3180  _address.balance */\n      0xffffffffffffffffffffffffffffffffffffffff\n      and\n      balance\n        /* \"Ethereum/Presale.sol\":3157:3180  return _address.balance */\n      swap1\n      pop\n        /* \"Ethereum/Presale.sol\":3077:3188  function getBalance(address _address) external view returns(uint256) {\r... */\n      swap2\n      swap1\n      pop\n      jump\t// out\n        /* \"Utils/TransferHelper.sol\":1112:1542  function safeTransferFrom(\r... */\n    tag_39:\n        /* \"Utils/TransferHelper.sol\":1258:1270  bool success */\n      0x00\n        /* \"Utils/TransferHelper.sol\":1272:1289  bytes memory data */\n      dup1\n        /* \"Utils/TransferHelper.sol\":1293:1298  token */\n      dup6\n        /* \"Utils/TransferHelper.sol\":1293:1303  token.call */\n      0xffffffffffffffffffffffffffffffffffffffff\n      and\n        /* \"Utils/TransferHelper.sol\":1341:1351  0x23b872dd */\n      0x23b872dd\n        /* \"Utils/TransferHelper.sol\":1353:1357  from */\n      dup7\n        /* \"Utils/TransferHelper.sol\":1359:1361  to */\n      dup7\n        /* \"Utils/TransferHelper.sol\":1363:1368  value */\n      dup7\n        /* \"Utils/TransferHelper.sol\":1318:1369  abi.encodeWithSelector(0x23b872dd, from, to, value) */\n      add(0x24, mload(0x40))\n      tag_45\n      swap4\n      swap3\n      swap2\n      swap1\n      tag_46\n      jump\t// in\n    tag_45:\n      mload(0x40)\n      0x20\n      dup2\n      dup4\n      sub\n      sub\n      dup2\n      mstore\n      swap1\n      0x40\n      mstore\n      swap1\n      0xe0\n      shl\n      0x20\n      dup3\n      add\n      dup1\n      mload\n      0xffffffffffffffffffffffffffffffffffffffffffffffffffffffff\n      dup4\n      dup2\n      dup4\n      and\n      or\n      dup4\n      mstore\n      pop\n      pop\n      pop\n      pop\n        /* \"Utils/TransferHelper.sol\":1293:1380  token.call(\r... */\n      mload(0x40)\n      tag_47\n      swap2\n      swap1\n      tag_48\n      jump\t// in\n    tag_47:\n      0x00\n      mload(0x40)\n      dup1\n      dup4\n      sub\n      dup2\n      0x00\n      dup7\n      gas\n      call\n      swap2\n      pop\n      pop\n      returndatasize\n      dup1\n      0x00\n      dup2\n      eq\n      tag_51\n      jumpi\n      mload(0x40)\n      swap2\n      pop\n      and(add(returndatasize, 0x3f), not(0x1f))\n      dup3\n      add\n      0x40\n      mstore\n      returndatasize\n      dup3\n      mstore\n      returndatasize\n      0x00\n      0x20\n      dup5\n      add\n      returndatacopy\n      jump(tag_50)\n    tag_51:\n      0x60\n      swap2\n      pop\n    tag_50:\n      pop\n        /* \"Utils/TransferHelper.sol\":1257:1380  (bool success, bytes memory data) = token.call(\r... */\n      swap2\n      pop\n      swap2\n      pop\n        /* \"Utils/TransferHelper.sol\":1413:1420  success */\n      dup2\n        /* \"Utils/TransferHelper.sol\":1413:1470  success && (data.length == 0 || abi.decode(data, (bool))) */\n      dup1\n      iszero\n      tag_52\n      jumpi\n      pop\n        /* \"Utils/TransferHelper.sol\":1440:1441  0 */\n      0x00\n        /* \"Utils/TransferHelper.sol\":1425:1429  data */\n      dup2\n        /* \"Utils/TransferHelper.sol\":1425:1436  data.length */\n      mload\n        /* \"Utils/TransferHelper.sol\":1425:1441  data.length == 0 */\n      eq\n        /* \"Utils/TransferHelper.sol\":1425:1469  data.length == 0 || abi.decode(data, (bool)) */\n      dup1\n      tag_53\n      jumpi\n      pop\n        /* \"Utils/TransferHelper.sol\":1456:1460  data */\n      dup1\n        /* \"Utils/TransferHelper.sol\":1445:1469  abi.decode(data, (bool)) */\n      dup1\n      0x20\n      add\n      swap1\n      mload\n      dup2\n      add\n      swap1\n      tag_54\n      swap2\n      swap1\n      tag_55\n      jump\t// in\n    tag_54:\n        /* \"Utils/TransferHelper.sol\":1425:1469  data.length == 0 || abi.decode(data, (bool)) */\n    tag_53:\n        /* \"Utils/TransferHelper.sol\":1413:1470  success && (data.length == 0 || abi.decode(data, (bool))) */\n    tag_52:\n        /* \"Utils/TransferHelper.sol\":1391:1534  require(\r... */\n      tag_56\n      jumpi\n      mload(0x40)\n      0x08c379a000000000000000000000000000000000000000000000000000000000\n      dup2\n      mstore\n      0x04\n      add\n      tag_57\n      swap1\n      tag_58\n      jump\t// in\n    tag_57:\n      mload(0x40)\n      dup1\n      swap2\n      sub\n      swap1\n      revert\n    tag_56:\n        /* \"Utils/TransferHelper.sol\":1112:1542  function safeTransferFrom(\r... */\n      pop\n      pop\n      pop\n      pop\n      pop\n      pop\n      jump\t// out\n        /* \"#utility.yul\":7:146   */\n    tag_60:\n        /* \"#utility.yul\":53:58   */\n      0x00\n        /* \"#utility.yul\":91:97   */\n      dup2\n        /* \"#utility.yul\":78:98   */\n      calldataload\n        /* \"#utility.yul\":69:98   */\n      swap1\n      pop\n        /* \"#utility.yul\":107:140   */\n      tag_62\n        /* \"#utility.yul\":134:139   */\n      dup2\n        /* \"#utility.yul\":107:140   */\n      tag_63\n      jump\t// in\n    tag_62:\n        /* \"#utility.yul\":59:146   */\n      swap3\n      swap2\n      pop\n      pop\n      jump\t// out\n        /* \"#utility.yul\":152:289   */\n    tag_64:\n        /* \"#utility.yul\":206:211   */\n      0x00\n        /* \"#utility.yul\":237:243   */\n      dup2\n        /* \"#utility.yul\":231:244   */\n      mload\n        /* \"#utility.yul\":222:244   */\n      swap1\n      pop\n        /* \"#utility.yul\":253:283   */\n      tag_66\n        /* \"#utility.yul\":277:282   */\n      dup2\n        /* \"#utility.yul\":253:283   */\n      tag_67\n      jump\t// in\n    tag_66:\n        /* \"#utility.yul\":212:289   */\n      swap3\n      swap2\n      pop\n      pop\n      jump\t// out\n        /* \"#utility.yul\":295:434   */\n    tag_68:\n        /* \"#utility.yul\":341:346   */\n      0x00\n        /* \"#utility.yul\":379:385   */\n      dup2\n        /* \"#utility.yul\":366:386   */\n      calldataload\n        /* \"#utility.yul\":357:386   */\n      swap1\n      pop\n        /* \"#utility.yul\":395:428   */\n      tag_70\n        /* \"#utility.yul\":422:427   */\n      dup2\n        /* \"#utility.yul\":395:428   */\n      tag_71\n      jump\t// in\n    tag_70:\n        /* \"#utility.yul\":347:434   */\n      swap3\n      swap2\n      pop\n      pop\n      jump\t// out\n        /* \"#utility.yul\":440:702   */\n    tag_24:\n        /* \"#utility.yul\":499:505   */\n      0x00\n        /* \"#utility.yul\":548:550   */\n      0x20\n        /* \"#utility.yul\":536:545   */\n      dup3\n        /* \"#utility.yul\":527:534   */\n      dup5\n        /* \"#utility.yul\":523:546   */\n      sub\n        /* \"#utility.yul\":519:551   */\n      slt\n        /* \"#utility.yul\":516:518   */\n      iszero\n      tag_73\n      jumpi\n        /* \"#utility.yul\":564:565   */\n      0x00\n        /* \"#utility.yul\":561:562   */\n      dup1\n        /* \"#utility.yul\":554:566   */\n      revert\n        /* \"#utility.yul\":516:518   */\n    tag_73:\n        /* \"#utility.yul\":607:608   */\n      0x00\n        /* \"#utility.yul\":632:685   */\n      tag_74\n        /* \"#utility.yul\":677:684   */\n      dup5\n        /* \"#utility.yul\":668:674   */\n      dup3\n        /* \"#utility.yul\":657:666   */\n      dup6\n        /* \"#utility.yul\":653:675   */\n      add\n        /* \"#utility.yul\":632:685   */\n      tag_60\n      jump\t// in\n    tag_74:\n        /* \"#utility.yul\":622:685   */\n      swap2\n      pop\n        /* \"#utility.yul\":578:695   */\n      pop\n        /* \"#utility.yul\":506:702   */\n      swap3\n      swap2\n      pop\n      pop\n      jump\t// out\n        /* \"#utility.yul\":708:986   */\n    tag_55:\n        /* \"#utility.yul\":775:781   */\n      0x00\n        /* \"#utility.yul\":824:826   */\n      0x20\n        /* \"#utility.yul\":812:821   */\n      dup3\n        /* \"#utility.yul\":803:810   */\n      dup5\n        /* \"#utility.yul\":799:822   */\n      sub\n        /* \"#utility.yul\":795:827   */\n      slt\n        /* \"#utility.yul\":792:794   */\n      iszero\n      tag_76\n      jumpi\n        /* \"#utility.yul\":840:841   */\n      0x00\n        /* \"#utility.yul\":837:838   */\n      dup1\n        /* \"#utility.yul\":830:842   */\n      revert\n        /* \"#utility.yul\":792:794   */\n    tag_76:\n        /* \"#utility.yul\":883:884   */\n      0x00\n        /* \"#utility.yul\":908:969   */\n      tag_77\n        /* \"#utility.yul\":961:968   */\n      dup5\n        /* \"#utility.yul\":952:958   */\n      dup3\n        /* \"#utility.yul\":941:950   */\n      dup6\n        /* \"#utility.yul\":937:959   */\n      add\n        /* \"#utility.yul\":908:969   */\n      tag_64\n      jump\t// in\n    tag_77:\n        /* \"#utility.yul\":898:969   */\n      swap2\n      pop\n        /* \"#utility.yul\":854:979   */\n      pop\n        /* \"#utility.yul\":782:986   */\n      swap3\n      swap2\n      pop\n      pop\n      jump\t// out\n        /* \"#utility.yul\":992:1254   */\n    tag_14:\n        /* \"#utility.yul\":1051:1057   */\n      0x00\n        /* \"#utility.yul\":1100:1102   */\n      0x20\n        /* \"#utility.yul\":1088:1097   */\n      dup3\n        /* \"#utility.yul\":1079:1086   */\n      dup5\n        /* \"#utility.yul\":1075:1098   */\n      sub\n        /* \"#utility.yul\":1071:1103   */\n      slt\n        /* \"#utility.yul\":1068:1070   */\n      iszero\n      tag_79\n      jumpi\n        /* \"#utility.yul\":1116:1117   */\n      0x00\n        /* \"#utility.yul\":1113:1114   */\n      dup1\n        /* \"#utility.yul\":1106:1118   */\n      revert\n        /* \"#utility.yul\":1068:1070   */\n    tag_79:\n        /* \"#utility.yul\":1159:1160   */\n      0x00\n        /* \"#utility.yul\":1184:1237   */\n      tag_80\n        /* \"#utility.yul\":1229:1236   */\n      dup5\n        /* \"#utility.yul\":1220:1226   */\n      dup3\n        /* \"#utility.yul\":1209:1218   */\n      dup6\n        /* \"#utility.yul\":1205:1227   */\n      add\n        /* \"#utility.yul\":1184:1237   */\n      tag_68\n      jump\t// in\n    tag_80:\n        /* \"#utility.yul\":1174:1237   */\n      swap2\n      pop\n        /* \"#utility.yul\":1130:1247   */\n      pop\n        /* \"#utility.yul\":1058:1254   */\n      swap3\n      swap2\n      pop\n      pop\n      jump\t// out\n        /* \"#utility.yul\":1260:1378   */\n    tag_81:\n        /* \"#utility.yul\":1347:1371   */\n      tag_83\n        /* \"#utility.yul\":1365:1370   */\n      dup2\n        /* \"#utility.yul\":1347:1371   */\n      tag_84\n      jump\t// in\n    tag_83:\n        /* \"#utility.yul\":1342:1345   */\n      dup3\n        /* \"#utility.yul\":1335:1372   */\n      mstore\n        /* \"#utility.yul\":1325:1378   */\n      pop\n      pop\n      jump\t// out\n        /* \"#utility.yul\":1384:1757   */\n    tag_85:\n        /* \"#utility.yul\":1488:1491   */\n      0x00\n        /* \"#utility.yul\":1516:1554   */\n      tag_87\n        /* \"#utility.yul\":1548:1553   */\n      dup3\n        /* \"#utility.yul\":1516:1554   */\n      tag_88\n      jump\t// in\n    tag_87:\n        /* \"#utility.yul\":1570:1658   */\n      tag_89\n        /* \"#utility.yul\":1651:1657   */\n      dup2\n        /* \"#utility.yul\":1646:1649   */\n      dup6\n        /* \"#utility.yul\":1570:1658   */\n      tag_90\n      jump\t// in\n    tag_89:\n        /* \"#utility.yul\":1563:1658   */\n      swap4\n      pop\n        /* \"#utility.yul\":1667:1719   */\n      tag_91\n        /* \"#utility.yul\":1712:1718   */\n      dup2\n        /* \"#utility.yul\":1707:1710   */\n      dup6\n        /* \"#utility.yul\":1700:1704   */\n      0x20\n        /* \"#utility.yul\":1693:1698   */\n      dup7\n        /* \"#utility.yul\":1689:1705   */\n      add\n        /* \"#utility.yul\":1667:1719   */\n      tag_92\n      jump\t// in\n    tag_91:\n        /* \"#utility.yul\":1744:1750   */\n      dup1\n        /* \"#utility.yul\":1739:1742   */\n      dup5\n        /* \"#utility.yul\":1735:1751   */\n      add\n        /* \"#utility.yul\":1728:1751   */\n      swap2\n      pop\n        /* \"#utility.yul\":1492:1757   */\n      pop\n      swap3\n      swap2\n      pop\n      pop\n      jump\t// out\n        /* \"#utility.yul\":1763:1920   */\n    tag_93:\n        /* \"#utility.yul\":1863:1913   */\n      tag_95\n        /* \"#utility.yul\":1907:1912   */\n      dup2\n        /* \"#utility.yul\":1863:1913   */\n      tag_96\n      jump\t// in\n    tag_95:\n        /* \"#utility.yul\":1858:1861   */\n      dup3\n        /* \"#utility.yul\":1851:1914   */\n      mstore\n        /* \"#utility.yul\":1841:1920   */\n      pop\n      pop\n      jump\t// out\n        /* \"#utility.yul\":1926:2292   */\n    tag_97:\n        /* \"#utility.yul\":2068:2071   */\n      0x00\n        /* \"#utility.yul\":2089:2156   */\n      tag_99\n        /* \"#utility.yul\":2153:2155   */\n      0x24\n        /* \"#utility.yul\":2148:2151   */\n      dup4\n        /* \"#utility.yul\":2089:2156   */\n      tag_100\n      jump\t// in\n    tag_99:\n        /* \"#utility.yul\":2082:2156   */\n      swap2\n      pop\n        /* \"#utility.yul\":2165:2258   */\n      tag_101\n        /* \"#utility.yul\":2254:2257   */\n      dup3\n        /* \"#utility.yul\":2165:2258   */\n      tag_102\n      jump\t// in\n    tag_101:\n        /* \"#utility.yul\":2283:2285   */\n      0x40\n        /* \"#utility.yul\":2278:2281   */\n      dup3\n        /* \"#utility.yul\":2274:2286   */\n      add\n        /* \"#utility.yul\":2267:2286   */\n      swap1\n      pop\n        /* \"#utility.yul\":2072:2292   */\n      swap2\n      swap1\n      pop\n      jump\t// out\n        /* \"#utility.yul\":2298:2664   */\n    tag_103:\n        /* \"#utility.yul\":2440:2443   */\n      0x00\n        /* \"#utility.yul\":2461:2528   */\n      tag_105\n        /* \"#utility.yul\":2525:2527   */\n      0x1f\n        /* \"#utility.yul\":2520:2523   */\n      dup4\n        /* \"#utility.yul\":2461:2528   */\n      tag_100\n      jump\t// in\n    tag_105:\n        /* \"#utility.yul\":2454:2528   */\n      swap2\n      pop\n        /* \"#utility.yul\":2537:2630   */\n      tag_106\n        /* \"#utility.yul\":2626:2629   */\n      dup3\n        /* \"#utility.yul\":2537:2630   */\n      tag_107\n      jump\t// in\n    tag_106:\n        /* \"#utility.yul\":2655:2657   */\n      0x20\n        /* \"#utility.yul\":2650:2653   */\n      dup3\n        /* \"#utility.yul\":2646:2658   */\n      add\n        /* \"#utility.yul\":2639:2658   */\n      swap1\n      pop\n        /* \"#utility.yul\":2444:2664   */\n      swap2\n      swap1\n      pop\n      jump\t// out\n        /* \"#utility.yul\":2670:2788   */\n    tag_108:\n        /* \"#utility.yul\":2757:2781   */\n      tag_110\n        /* \"#utility.yul\":2775:2780   */\n      dup2\n        /* \"#utility.yul\":2757:2781   */\n      tag_111\n      jump\t// in\n    tag_110:\n        /* \"#utility.yul\":2752:2755   */\n      dup3\n        /* \"#utility.yul\":2745:2782   */\n      mstore\n        /* \"#utility.yul\":2735:2788   */\n      pop\n      pop\n      jump\t// out\n        /* \"#utility.yul\":2794:3065   */\n    tag_48:\n        /* \"#utility.yul\":2924:2927   */\n      0x00\n        /* \"#utility.yul\":2946:3039   */\n      tag_113\n        /* \"#utility.yul\":3035:3038   */\n      dup3\n        /* \"#utility.yul\":3026:3032   */\n      dup5\n        /* \"#utility.yul\":2946:3039   */\n      tag_85\n      jump\t// in\n    tag_113:\n        /* \"#utility.yul\":2939:3039   */\n      swap2\n      pop\n        /* \"#utility.yul\":3056:3059   */\n      dup2\n        /* \"#utility.yul\":3049:3059   */\n      swap1\n      pop\n        /* \"#utility.yul\":2928:3065   */\n      swap3\n      swap2\n      pop\n      pop\n      jump\t// out\n        /* \"#utility.yul\":3071:3513   */\n    tag_46:\n        /* \"#utility.yul\":3220:3224   */\n      0x00\n        /* \"#utility.yul\":3258:3260   */\n      0x60\n        /* \"#utility.yul\":3247:3256   */\n      dup3\n        /* \"#utility.yul\":3243:3261   */\n      add\n        /* \"#utility.yul\":3235:3261   */\n      swap1\n      pop\n        /* \"#utility.yul\":3271:3342   */\n      tag_115\n        /* \"#utility.yul\":3339:3340   */\n      0x00\n        /* \"#utility.yul\":3328:3337   */\n      dup4\n        /* \"#utility.yul\":3324:3341   */\n      add\n        /* \"#utility.yul\":3315:3321   */\n      dup7\n        /* \"#utility.yul\":3271:3342   */\n      tag_81\n      jump\t// in\n    tag_115:\n        /* \"#utility.yul\":3352:3424   */\n      tag_116\n        /* \"#utility.yul\":3420:3422   */\n      0x20\n        /* \"#utility.yul\":3409:3418   */\n      dup4\n        /* \"#utility.yul\":3405:3423   */\n      add\n        /* \"#utility.yul\":3396:3402   */\n      dup6\n        /* \"#utility.yul\":3352:3424   */\n      tag_81\n      jump\t// in\n    tag_116:\n        /* \"#utility.yul\":3434:3506   */\n      tag_117\n        /* \"#utility.yul\":3502:3504   */\n      0x40\n        /* \"#utility.yul\":3491:3500   */\n      dup4\n        /* \"#utility.yul\":3487:3505   */\n      add\n        /* \"#utility.yul\":3478:3484   */\n      dup5\n        /* \"#utility.yul\":3434:3506   */\n      tag_108\n      jump\t// in\n    tag_117:\n        /* \"#utility.yul\":3225:3513   */\n      swap5\n      swap4\n      pop\n      pop\n      pop\n      pop\n      jump\t// out\n        /* \"#utility.yul\":3519:3767   */\n    tag_11:\n        /* \"#utility.yul\":3625:3629   */\n      0x00\n        /* \"#utility.yul\":3663:3665   */\n      0x20\n        /* \"#utility.yul\":3652:3661   */\n      dup3\n        /* \"#utility.yul\":3648:3666   */\n      add\n        /* \"#utility.yul\":3640:3666   */\n      swap1\n      pop\n        /* \"#utility.yul\":3676:3760   */\n      tag_119\n        /* \"#utility.yul\":3757:3758   */\n      0x00\n        /* \"#utility.yul\":3746:3755   */\n      dup4\n        /* \"#utility.yul\":3742:3759   */\n      add\n        /* \"#utility.yul\":3733:3739   */\n      dup5\n        /* \"#utility.yul\":3676:3760   */\n      tag_93\n      jump\t// in\n    tag_119:\n        /* \"#utility.yul\":3630:3767   */\n      swap3\n      swap2\n      pop\n      pop\n      jump\t// out\n        /* \"#utility.yul\":3773:4192   */\n    tag_58:\n        /* \"#utility.yul\":3939:3943   */\n      0x00\n        /* \"#utility.yul\":3977:3979   */\n      0x20\n        /* \"#utility.yul\":3966:3975   */\n      dup3\n        /* \"#utility.yul\":3962:3980   */\n      add\n        /* \"#utility.yul\":3954:3980   */\n      swap1\n      pop\n        /* \"#utility.yul\":4026:4035   */\n      dup2\n        /* \"#utility.yul\":4020:4024   */\n      dup2\n        /* \"#utility.yul\":4016:4036   */\n      sub\n        /* \"#utility.yul\":4012:4013   */\n      0x00\n        /* \"#utility.yul\":4001:4010   */\n      dup4\n        /* \"#utility.yul\":3997:4014   */\n      add\n        /* \"#utility.yul\":3990:4037   */\n      mstore\n        /* \"#utility.yul\":4054:4185   */\n      tag_121\n        /* \"#utility.yul\":4180:4184   */\n      dup2\n        /* \"#utility.yul\":4054:4185   */\n      tag_97\n      jump\t// in\n    tag_121:\n        /* \"#utility.yul\":4046:4185   */\n      swap1\n      pop\n        /* \"#utility.yul\":3944:4192   */\n      swap2\n      swap1\n      pop\n      jump\t// out\n        /* \"#utility.yul\":4198:4617   */\n    tag_36:\n        /* \"#utility.yul\":4364:4368   */\n      0x00\n        /* \"#utility.yul\":4402:4404   */\n      0x20\n        /* \"#utility.yul\":4391:4400   */\n      dup3\n        /* \"#utility.yul\":4387:4405   */\n      add\n        /* \"#utility.yul\":4379:4405   */\n      swap1\n      pop\n        /* \"#utility.yul\":4451:4460   */\n      dup2\n        /* \"#utility.yul\":4445:4449   */\n      dup2\n        /* \"#utility.yul\":4441:4461   */\n      sub\n        /* \"#utility.yul\":4437:4438   */\n      0x00\n        /* \"#utility.yul\":4426:4435   */\n      dup4\n        /* \"#utility.yul\":4422:4439   */\n      add\n        /* \"#utility.yul\":4415:4462   */\n      mstore\n        /* \"#utility.yul\":4479:4610   */\n      tag_123\n        /* \"#utility.yul\":4605:4609   */\n      dup2\n        /* \"#utility.yul\":4479:4610   */\n      tag_103\n      jump\t// in\n    tag_123:\n        /* \"#utility.yul\":4471:4610   */\n      swap1\n      pop\n        /* \"#utility.yul\":4369:4617   */\n      swap2\n      swap1\n      pop\n      jump\t// out\n        /* \"#utility.yul\":4623:4845   */\n    tag_27:\n        /* \"#utility.yul\":4716:4720   */\n      0x00\n        /* \"#utility.yul\":4754:4756   */\n      0x20\n        /* \"#utility.yul\":4743:4752   */\n      dup3\n        /* \"#utility.yul\":4739:4757   */\n      add\n        /* \"#utility.yul\":4731:4757   */\n      swap1\n      pop\n        /* \"#utility.yul\":4767:4838   */\n      tag_125\n        /* \"#utility.yul\":4835:4836   */\n      0x00\n        /* \"#utility.yul\":4824:4833   */\n      dup4\n        /* \"#utility.yul\":4820:4837   */\n      add\n        /* \"#utility.yul\":4811:4817   */\n      dup5\n        /* \"#utility.yul\":4767:4838   */\n      tag_108\n      jump\t// in\n    tag_125:\n        /* \"#utility.yul\":4721:4845   */\n      swap3\n      swap2\n      pop\n      pop\n      jump\t// out\n        /* \"#utility.yul\":4851:4949   */\n    tag_88:\n        /* \"#utility.yul\":4902:4908   */\n      0x00\n        /* \"#utility.yul\":4936:4941   */\n      dup2\n        /* \"#utility.yul\":4930:4942   */\n      mload\n        /* \"#utility.yul\":4920:4942   */\n      swap1\n      pop\n        /* \"#utility.yul\":4909:4949   */\n      swap2\n      swap1\n      pop\n      jump\t// out\n        /* \"#utility.yul\":4955:5102   */\n    tag_90:\n        /* \"#utility.yul\":5056:5067   */\n      0x00\n        /* \"#utility.yul\":5093:5096   */\n      dup2\n        /* \"#utility.yul\":5078:5096   */\n      swap1\n      pop\n        /* \"#utility.yul\":5068:5102   */\n      swap3\n      swap2\n      pop\n      pop\n      jump\t// out\n        /* \"#utility.yul\":5108:5277   */\n    tag_100:\n        /* \"#utility.yul\":5192:5203   */\n      0x00\n        /* \"#utility.yul\":5226:5232   */\n      dup3\n        /* \"#utility.yul\":5221:5224   */\n      dup3\n        /* \"#utility.yul\":5214:5233   */\n      mstore\n        /* \"#utility.yul\":5266:5270   */\n      0x20\n        /* \"#utility.yul\":5261:5264   */\n      dup3\n        /* \"#utility.yul\":5257:5271   */\n      add\n        /* \"#utility.yul\":5242:5271   */\n      swap1\n      pop\n        /* \"#utility.yul\":5204:5277   */\n      swap3\n      swap2\n      pop\n      pop\n      jump\t// out\n        /* \"#utility.yul\":5283:5474   */\n    tag_30:\n        /* \"#utility.yul\":5323:5327   */\n      0x00\n        /* \"#utility.yul\":5343:5363   */\n      tag_130\n        /* \"#utility.yul\":5361:5362   */\n      dup3\n        /* \"#utility.yul\":5343:5363   */\n      tag_111\n      jump\t// in\n    tag_130:\n        /* \"#utility.yul\":5338:5363   */\n      swap2\n      pop\n        /* \"#utility.yul\":5377:5397   */\n      tag_131\n        /* \"#utility.yul\":5395:5396   */\n      dup4\n        /* \"#utility.yul\":5377:5397   */\n      tag_111\n      jump\t// in\n    tag_131:\n        /* \"#utility.yul\":5372:5397   */\n      swap3\n      pop\n        /* \"#utility.yul\":5416:5417   */\n      dup3\n        /* \"#utility.yul\":5413:5414   */\n      dup3\n        /* \"#utility.yul\":5410:5418   */\n      lt\n        /* \"#utility.yul\":5407:5409   */\n      iszero\n      tag_132\n      jumpi\n        /* \"#utility.yul\":5421:5439   */\n      tag_133\n      tag_134\n      jump\t// in\n    tag_133:\n        /* \"#utility.yul\":5407:5409   */\n    tag_132:\n        /* \"#utility.yul\":5466:5467   */\n      dup3\n        /* \"#utility.yul\":5463:5464   */\n      dup3\n        /* \"#utility.yul\":5459:5468   */\n      sub\n        /* \"#utility.yul\":5451:5468   */\n      swap1\n      pop\n        /* \"#utility.yul\":5328:5474   */\n      swap3\n      swap2\n      pop\n      pop\n      jump\t// out\n        /* \"#utility.yul\":5480:5576   */\n    tag_84:\n        /* \"#utility.yul\":5517:5524   */\n      0x00\n        /* \"#utility.yul\":5546:5570   */\n      tag_136\n        /* \"#utility.yul\":5564:5569   */\n      dup3\n        /* \"#utility.yul\":5546:5570   */\n      tag_137\n      jump\t// in\n    tag_136:\n        /* \"#utility.yul\":5535:5570   */\n      swap1\n      pop\n        /* \"#utility.yul\":5525:5576   */\n      swap2\n      swap1\n      pop\n      jump\t// out\n        /* \"#utility.yul\":5582:5672   */\n    tag_138:\n        /* \"#utility.yul\":5616:5623   */\n      0x00\n        /* \"#utility.yul\":5659:5664   */\n      dup2\n        /* \"#utility.yul\":5652:5665   */\n      iszero\n        /* \"#utility.yul\":5645:5666   */\n      iszero\n        /* \"#utility.yul\":5634:5666   */\n      swap1\n      pop\n        /* \"#utility.yul\":5624:5672   */\n      swap2\n      swap1\n      pop\n      jump\t// out\n        /* \"#utility.yul\":5678:5804   */\n    tag_137:\n        /* \"#utility.yul\":5715:5722   */\n      0x00\n        /* \"#utility.yul\":5755:5797   */\n      0xffffffffffffffffffffffffffffffffffffffff\n        /* \"#utility.yul\":5748:5753   */\n      dup3\n        /* \"#utility.yul\":5744:5798   */\n      and\n        /* \"#utility.yul\":5733:5798   */\n      swap1\n      pop\n        /* \"#utility.yul\":5723:5804   */\n      swap2\n      swap1\n      pop\n      jump\t// out\n        /* \"#utility.yul\":5810:5887   */\n    tag_111:\n        /* \"#utility.yul\":5847:5854   */\n      0x00\n        /* \"#utility.yul\":5876:5881   */\n      dup2\n        /* \"#utility.yul\":5865:5881   */\n      swap1\n      pop\n        /* \"#utility.yul\":5855:5887   */\n      swap2\n      swap1\n      pop\n      jump\t// out\n        /* \"#utility.yul\":5893:6045   */\n    tag_96:\n        /* \"#utility.yul\":5956:5965   */\n      0x00\n        /* \"#utility.yul\":5989:6039   */\n      tag_143\n        /* \"#utility.yul\":6033:6038   */\n      dup3\n        /* \"#utility.yul\":5989:6039   */\n      tag_144\n      jump\t// in\n    tag_143:\n        /* \"#utility.yul\":5976:6039   */\n      swap1\n      pop\n        /* \"#utility.yul\":5966:6045   */\n      swap2\n      swap1\n      pop\n      jump\t// out\n        /* \"#utility.yul\":6051:6177   */\n    tag_144:\n        /* \"#utility.yul\":6114:6123   */\n      0x00\n        /* \"#utility.yul\":6147:6171   */\n      tag_146\n        /* \"#utility.yul\":6165:6170   */\n      dup3\n        /* \"#utility.yul\":6147:6171   */\n      tag_137\n      jump\t// in\n    tag_146:\n        /* \"#utility.yul\":6134:6171   */\n      swap1\n      pop\n        /* \"#utility.yul\":6124:6177   */\n      swap2\n      swap1\n      pop\n      jump\t// out\n        /* \"#utility.yul\":6183:6490   */\n    tag_92:\n        /* \"#utility.yul\":6251:6252   */\n      0x00\n        /* \"#utility.yul\":6261:6374   */\n    tag_148:\n        /* \"#utility.yul\":6275:6281   */\n      dup4\n        /* \"#utility.yul\":6272:6273   */\n      dup2\n        /* \"#utility.yul\":6269:6282   */\n      lt\n        /* \"#utility.yul\":6261:6374   */\n      iszero\n      tag_150\n      jumpi\n        /* \"#utility.yul\":6360:6361   */\n      dup1\n        /* \"#utility.yul\":6355:6358   */\n      dup3\n        /* \"#utility.yul\":6351:6362   */\n      add\n        /* \"#utility.yul\":6345:6363   */\n      mload\n        /* \"#utility.yul\":6341:6342   */\n      dup2\n        /* \"#utility.yul\":6336:6339   */\n      dup5\n        /* \"#utility.yul\":6332:6343   */\n      add\n        /* \"#utility.yul\":6325:6364   */\n      mstore\n        /* \"#utility.yul\":6297:6299   */\n      0x20\n        /* \"#utility.yul\":6294:6295   */\n      dup2\n        /* \"#utility.yul\":6290:6300   */\n      add\n        /* \"#utility.yul\":6285:6300   */\n      swap1\n      pop\n        /* \"#utility.yul\":6261:6374   */\n      jump(tag_148)\n    tag_150:\n        /* \"#utility.yul\":6392:6398   */\n      dup4\n        /* \"#utility.yul\":6389:6390   */\n      dup2\n        /* \"#utility.yul\":6386:6399   */\n      gt\n        /* \"#utility.yul\":6383:6385   */\n      iszero\n      tag_151\n      jumpi\n        /* \"#utility.yul\":6472:6473   */\n      0x00\n        /* \"#utility.yul\":6463:6469   */\n      dup5\n        /* \"#utility.yul\":6458:6461   */\n      dup5\n        /* \"#utility.yul\":6454:6470   */\n      add\n        /* \"#utility.yul\":6447:6474   */\n      mstore\n        /* \"#utility.yul\":6383:6385   */\n    tag_151:\n        /* \"#utility.yul\":6232:6490   */\n      pop\n      pop\n      pop\n      pop\n      jump\t// out\n        /* \"#utility.yul\":6496:6676   */\n    tag_134:\n        /* \"#utility.yul\":6544:6621   */\n      0x4e487b7100000000000000000000000000000000000000000000000000000000\n        /* \"#utility.yul\":6541:6542   */\n      0x00\n        /* \"#utility.yul\":6534:6622   */\n      mstore\n        /* \"#utility.yul\":6641:6645   */\n      0x11\n        /* \"#utility.yul\":6638:6639   */\n      0x04\n        /* \"#utility.yul\":6631:6646   */\n      mstore\n        /* \"#utility.yul\":6665:6669   */\n      0x24\n        /* \"#utility.yul\":6662:6663   */\n      0x00\n        /* \"#utility.yul\":6655:6670   */\n      revert\n        /* \"#utility.yul\":6682:6905   */\n    tag_102:\n        /* \"#utility.yul\":6822:6856   */\n      0x5472616e7366657248656c7065723a205452414e534645525f46524f4d5f4641\n        /* \"#utility.yul\":6818:6819   */\n      0x00\n        /* \"#utility.yul\":6810:6816   */\n      dup3\n        /* \"#utility.yul\":6806:6820   */\n      add\n        /* \"#utility.yul\":6799:6857   */\n      mstore\n        /* \"#utility.yul\":6891:6897   */\n      0x494c454400000000000000000000000000000000000000000000000000000000\n        /* \"#utility.yul\":6886:6888   */\n      0x20\n        /* \"#utility.yul\":6878:6884   */\n      dup3\n        /* \"#utility.yul\":6874:6889   */\n      add\n        /* \"#utility.yul\":6867:6898   */\n      mstore\n        /* \"#utility.yul\":6788:6905   */\n      pop\n      jump\t// out\n        /* \"#utility.yul\":6911:7092   */\n    tag_107:\n        /* \"#utility.yul\":7051:7084   */\n      0x5265656e7472616e637947756172643a207265656e7472616e742063616c6c00\n        /* \"#utility.yul\":7047:7048   */\n      0x00\n        /* \"#utility.yul\":7039:7045   */\n      dup3\n        /* \"#utility.yul\":7035:7049   */\n      add\n        /* \"#utility.yul\":7028:7085   */\n      mstore\n        /* \"#utility.yul\":7017:7092   */\n      pop\n      jump\t// out\n        /* \"#utility.yul\":7098:7220   */\n    tag_63:\n        /* \"#utility.yul\":7171:7195   */\n      tag_156\n        /* \"#utility.yul\":7189:7194   */\n      dup2\n        /* \"#utility.yul\":7171:7195   */\n      tag_84\n      jump\t// in\n    tag_156:\n        /* \"#utility.yul\":7164:7169   */\n      dup2\n        /* \"#utility.yul\":7161:7196   */\n      eq\n        /* \"#utility.yul\":7151:7153   */\n      tag_157\n      jumpi\n        /* \"#utility.yul\":7210:7211   */\n      0x00\n        /* \"#utility.yul\":7207:7208   */\n      dup1\n        /* \"#utility.yul\":7200:7212   */\n      revert\n        /* \"#utility.yul\":7151:7153   */\n    tag_157:\n        /* \"#utility.yul\":7141:7220   */\n      pop\n      jump\t// out\n        /* \"#utility.yul\":7226:7342   */\n    tag_67:\n        /* \"#utility.yul\":7296:7317   */\n      tag_159\n        /* \"#utility.yul\":7311:7316   */\n      dup2\n        /* \"#utility.yul\":7296:7317   */\n      tag_138\n      jump\t// in\n    tag_159:\n        /* \"#utility.yul\":7289:7294   */\n      dup2\n        /* \"#utility.yul\":7286:7318   */\n      eq\n        /* \"#utility.yul\":7276:7278   */\n      tag_160\n      jumpi\n        /* \"#utility.yul\":7332:7333   */\n      0x00\n        /* \"#utility.yul\":7329:7330   */\n      dup1\n        /* \"#utility.yul\":7322:7334   */\n      revert\n        /* \"#utility.yul\":7276:7278   */\n    tag_160:\n        /* \"#utility.yul\":7266:7342   */\n      pop\n      jump\t// out\n        /* \"#utility.yul\":7348:7470   */\n    tag_71:\n        /* \"#utility.yul\":7421:7445   */\n      tag_162\n        /* \"#utility.yul\":7439:7444   */\n      dup2\n        /* \"#utility.yul\":7421:7445   */\n      tag_111\n      jump\t// in\n    tag_162:\n        /* \"#utility.yul\":7414:7419   */\n      dup2\n        /* \"#utility.yul\":7411:7446   */\n      eq\n        /* \"#utility.yul\":7401:7403   */\n      tag_163\n      jumpi\n        /* \"#utility.yul\":7460:7461   */\n      0x00\n        /* \"#utility.yul\":7457:7458   */\n      dup1\n        /* \"#utility.yul\":7450:7462   */\n      revert\n        /* \"#utility.yul\":7401:7403   */\n    tag_163:\n        /* \"#utility.yul\":7391:7470   */\n      pop\n      jump\t// out\n\n    auxdata: 0xa2646970667358221220eac1dc8abd239af3dc8e7a16f53f1a2d12567ea5128523c3c7865216a404824464736f6c63430008040033\n}\n",
				"bytecode": {
					"linkReferences": {},
					"object": "608060405234801561001057600080fd5b50600160008190555073c778417e063141139fce010982780140aa0cd5ab600160000160006101000a81548173ffffffffffffffffffffffffffffffffffffffff021916908373ffffffffffffffffffffffffffffffffffffffff1602179055506107e5806100806000396000f3fe60806040526004361061004a5760003560e01c80633f74aa381461004f5780634329db461461007a5780637964783314610096578063861faf5f146100b2578063f8b2cb4f146100bc575b600080fd5b34801561005b57600080fd5b506100646100f9565b6040516100719190610553565b60405180910390f35b610094600480360381019061008f9190610438565b610125565b005b6100b060048036038101906100ab9190610438565b61017a565b005b6100ba610204565b005b3480156100c857600080fd5b506100e360048036038101906100de91906103e6565b61024d565b6040516100f091906105ae565b60405180910390f35b60018060000160009054906101000a900473ffffffffffffffffffffffffffffffffffffffff16905081565b3373ffffffffffffffffffffffffffffffffffffffff166108fc823461014b91906105f0565b9081150290604051600060405180830381858888f19350505050158015610176573d6000803e3d6000fd5b5050565b600260005414156101c0576040517f08c379a00000000000000000000000000000000000000000000000000000000081526004016101b79061058e565b60405180910390fd5b60026000819055506101f9600160000160009054906101000a900473ffffffffffffffffffffffffffffffffffffffff1633308461026e565b600160008190555050565b3373ffffffffffffffffffffffffffffffffffffffff166108fc479081150290604051600060405180830381858888f1935050505015801561024a573d6000803e3d6000fd5b50565b60008173ffffffffffffffffffffffffffffffffffffffff16319050919050565b6000808573ffffffffffffffffffffffffffffffffffffffff166323b872dd8686866040516024016102a29392919061051c565b6040516020818303038152906040529060e01b6020820180517bffffffffffffffffffffffffffffffffffffffffffffffffffffffff83818316178352505050506040516102f09190610505565b6000604051808303816000865af19150503d806000811461032d576040519150601f19603f3d011682016040523d82523d6000602084013e610332565b606091505b5091509150818015610360575060008151148061035f57508080602001905181019061035e919061040f565b5b5b61039f576040517f08c379a00000000000000000000000000000000000000000000000000000000081526004016103969061056e565b60405180910390fd5b505050505050565b6000813590506103b68161076a565b92915050565b6000815190506103cb81610781565b92915050565b6000813590506103e081610798565b92915050565b6000602082840312156103f857600080fd5b6000610406848285016103a7565b91505092915050565b60006020828403121561042157600080fd5b600061042f848285016103bc565b91505092915050565b60006020828403121561044a57600080fd5b6000610458848285016103d1565b91505092915050565b61046a81610624565b82525050565b600061047b826105c9565b61048581856105d4565b9350610495818560208601610690565b80840191505092915050565b6104aa8161066c565b82525050565b60006104bd6024836105df565b91506104c8826106f2565b604082019050919050565b60006104e0601f836105df565b91506104eb82610741565b602082019050919050565b6104ff81610662565b82525050565b60006105118284610470565b915081905092915050565b60006060820190506105316000830186610461565b61053e6020830185610461565b61054b60408301846104f6565b949350505050565b600060208201905061056860008301846104a1565b92915050565b60006020820190508181036000830152610587816104b0565b9050919050565b600060208201905081810360008301526105a7816104d3565b9050919050565b60006020820190506105c360008301846104f6565b92915050565b600081519050919050565b600081905092915050565b600082825260208201905092915050565b60006105fb82610662565b915061060683610662565b925082821015610619576106186106c3565b5b828203905092915050565b600061062f82610642565b9050919050565b60008115159050919050565b600073ffffffffffffffffffffffffffffffffffffffff82169050919050565b6000819050919050565b60006106778261067e565b9050919050565b600061068982610642565b9050919050565b60005b838110156106ae578082015181840152602081019050610693565b838111156106bd576000848401525b50505050565b7f4e487b7100000000000000000000000000000000000000000000000000000000600052601160045260246000fd5b7f5472616e7366657248656c7065723a205452414e534645525f46524f4d5f464160008201527f494c454400000000000000000000000000000000000000000000000000000000602082015250565b7f5265656e7472616e637947756172643a207265656e7472616e742063616c6c00600082015250565b61077381610624565b811461077e57600080fd5b50565b61078a81610636565b811461079557600080fd5b50565b6107a181610662565b81146107ac57600080fd5b5056fea2646970667358221220eac1dc8abd239af3dc8e7a16f53f1a2d12567ea5128523c3c7865216a404824464736f6c63430008040033",
					"opcodes": "PUSH1 0x80 PUSH1 0x40 MSTORE CALLVALUE DUP1 ISZERO PUSH2 0x10 JUMPI PUSH1 0x0 DUP1 REVERT JUMPDEST POP PUSH1 0x1 PUSH1 0x0 DUP2 SWAP1 SSTORE POP PUSH20 0xC778417E063141139FCE010982780140AA0CD5AB PUSH1 0x1 PUSH1 0x0 ADD PUSH1 0x0 PUSH2 0x100 EXP DUP2 SLOAD DUP2 PUSH20 0xFFFFFFFFFFFFFFFFFFFFFFFFFFFFFFFFFFFFFFFF MUL NOT AND SWAP1 DUP4 PUSH20 0xFFFFFFFFFFFFFFFFFFFFFFFFFFFFFFFFFFFFFFFF AND MUL OR SWAP1 SSTORE POP PUSH2 0x7E5 DUP1 PUSH2 0x80 PUSH1 0x0 CODECOPY PUSH1 0x0 RETURN INVALID PUSH1 0x80 PUSH1 0x40 MSTORE PUSH1 0x4 CALLDATASIZE LT PUSH2 0x4A JUMPI PUSH1 0x0 CALLDATALOAD PUSH1 0xE0 SHR DUP1 PUSH4 0x3F74AA38 EQ PUSH2 0x4F JUMPI DUP1 PUSH4 0x4329DB46 EQ PUSH2 0x7A JUMPI DUP1 PUSH4 0x79647833 EQ PUSH2 0x96 JUMPI DUP1 PUSH4 0x861FAF5F EQ PUSH2 0xB2 JUMPI DUP1 PUSH4 0xF8B2CB4F EQ PUSH2 0xBC JUMPI JUMPDEST PUSH1 0x0 DUP1 REVERT JUMPDEST CALLVALUE DUP1 ISZERO PUSH2 0x5B JUMPI PUSH1 0x0 DUP1 REVERT JUMPDEST POP PUSH2 0x64 PUSH2 0xF9 JUMP JUMPDEST PUSH1 0x40 MLOAD PUSH2 0x71 SWAP2 SWAP1 PUSH2 0x553 JUMP JUMPDEST PUSH1 0x40 MLOAD DUP1 SWAP2 SUB SWAP1 RETURN JUMPDEST PUSH2 0x94 PUSH1 0x4 DUP1 CALLDATASIZE SUB DUP2 ADD SWAP1 PUSH2 0x8F SWAP2 SWAP1 PUSH2 0x438 JUMP JUMPDEST PUSH2 0x125 JUMP JUMPDEST STOP JUMPDEST PUSH2 0xB0 PUSH1 0x4 DUP1 CALLDATASIZE SUB DUP2 ADD SWAP1 PUSH2 0xAB SWAP2 SWAP1 PUSH2 0x438 JUMP JUMPDEST PUSH2 0x17A JUMP JUMPDEST STOP JUMPDEST PUSH2 0xBA PUSH2 0x204 JUMP JUMPDEST STOP JUMPDEST CALLVALUE DUP1 ISZERO PUSH2 0xC8 JUMPI PUSH1 0x0 DUP1 REVERT JUMPDEST POP PUSH2 0xE3 PUSH1 0x4 DUP1 CALLDATASIZE SUB DUP2 ADD SWAP1 PUSH2 0xDE SWAP2 SWAP1 PUSH2 0x3E6 JUMP JUMPDEST PUSH2 0x24D JUMP JUMPDEST PUSH1 0x40 MLOAD PUSH2 0xF0 SWAP2 SWAP1 PUSH2 0x5AE JUMP JUMPDEST PUSH1 0x40 MLOAD DUP1 SWAP2 SUB SWAP1 RETURN JUMPDEST PUSH1 0x1 DUP1 PUSH1 0x0 ADD PUSH1 0x0 SWAP1 SLOAD SWAP1 PUSH2 0x100 EXP SWAP1 DIV PUSH20 0xFFFFFFFFFFFFFFFFFFFFFFFFFFFFFFFFFFFFFFFF AND SWAP1 POP DUP2 JUMP JUMPDEST CALLER PUSH20 0xFFFFFFFFFFFFFFFFFFFFFFFFFFFFFFFFFFFFFFFF AND PUSH2 0x8FC DUP3 CALLVALUE PUSH2 0x14B SWAP2 SWAP1 PUSH2 0x5F0 JUMP JUMPDEST SWAP1 DUP2 ISZERO MUL SWAP1 PUSH1 0x40 MLOAD PUSH1 0x0 PUSH1 0x40 MLOAD DUP1 DUP4 SUB DUP2 DUP6 DUP9 DUP9 CALL SWAP4 POP POP POP POP ISZERO DUP1 ISZERO PUSH2 0x176 JUMPI RETURNDATASIZE PUSH1 0x0 DUP1 RETURNDATACOPY RETURNDATASIZE PUSH1 0x0 REVERT JUMPDEST POP POP JUMP JUMPDEST PUSH1 0x2 PUSH1 0x0 SLOAD EQ ISZERO PUSH2 0x1C0 JUMPI PUSH1 0x40 MLOAD PUSH32 0x8C379A000000000000000000000000000000000000000000000000000000000 DUP2 MSTORE PUSH1 0x4 ADD PUSH2 0x1B7 SWAP1 PUSH2 0x58E JUMP JUMPDEST PUSH1 0x40 MLOAD DUP1 SWAP2 SUB SWAP1 REVERT JUMPDEST PUSH1 0x2 PUSH1 0x0 DUP2 SWAP1 SSTORE POP PUSH2 0x1F9 PUSH1 0x1 PUSH1 0x0 ADD PUSH1 0x0 SWAP1 SLOAD SWAP1 PUSH2 0x100 EXP SWAP1 DIV PUSH20 0xFFFFFFFFFFFFFFFFFFFFFFFFFFFFFFFFFFFFFFFF AND CALLER ADDRESS DUP5 PUSH2 0x26E JUMP JUMPDEST PUSH1 0x1 PUSH1 0x0 DUP2 SWAP1 SSTORE POP POP JUMP JUMPDEST CALLER PUSH20 0xFFFFFFFFFFFFFFFFFFFFFFFFFFFFFFFFFFFFFFFF AND PUSH2 0x8FC SELFBALANCE SWAP1 DUP2 ISZERO MUL SWAP1 PUSH1 0x40 MLOAD PUSH1 0x0 PUSH1 0x40 MLOAD DUP1 DUP4 SUB DUP2 DUP6 DUP9 DUP9 CALL SWAP4 POP POP POP POP ISZERO DUP1 ISZERO PUSH2 0x24A JUMPI RETURNDATASIZE PUSH1 0x0 DUP1 RETURNDATACOPY RETURNDATASIZE PUSH1 0x0 REVERT JUMPDEST POP JUMP JUMPDEST PUSH1 0x0 DUP2 PUSH20 0xFFFFFFFFFFFFFFFFFFFFFFFFFFFFFFFFFFFFFFFF AND BALANCE SWAP1 POP SWAP2 SWAP1 POP JUMP JUMPDEST PUSH1 0x0 DUP1 DUP6 PUSH20 0xFFFFFFFFFFFFFFFFFFFFFFFFFFFFFFFFFFFFFFFF AND PUSH4 0x23B872DD DUP7 DUP7 DUP7 PUSH1 0x40 MLOAD PUSH1 0x24 ADD PUSH2 0x2A2 SWAP4 SWAP3 SWAP2 SWAP1 PUSH2 0x51C JUMP JUMPDEST PUSH1 0x40 MLOAD PUSH1 0x20 DUP2 DUP4 SUB SUB DUP2 MSTORE SWAP1 PUSH1 0x40 MSTORE SWAP1 PUSH1 0xE0 SHL PUSH1 0x20 DUP3 ADD DUP1 MLOAD PUSH28 0xFFFFFFFFFFFFFFFFFFFFFFFFFFFFFFFFFFFFFFFFFFFFFFFFFFFFFFFF DUP4 DUP2 DUP4 AND OR DUP4 MSTORE POP POP POP POP PUSH1 0x40 MLOAD PUSH2 0x2F0 SWAP2 SWAP1 PUSH2 0x505 JUMP JUMPDEST PUSH1 0x0 PUSH1 0x40 MLOAD DUP1 DUP4 SUB DUP2 PUSH1 0x0 DUP7 GAS CALL SWAP2 POP POP RETURNDATASIZE DUP1 PUSH1 0x0 DUP2 EQ PUSH2 0x32D JUMPI PUSH1 0x40 MLOAD SWAP2 POP PUSH1 0x1F NOT PUSH1 0x3F RETURNDATASIZE ADD AND DUP3 ADD PUSH1 0x40 MSTORE RETURNDATASIZE DUP3 MSTORE RETURNDATASIZE PUSH1 0x0 PUSH1 0x20 DUP5 ADD RETURNDATACOPY PUSH2 0x332 JUMP JUMPDEST PUSH1 0x60 SWAP2 POP JUMPDEST POP SWAP2 POP SWAP2 POP DUP2 DUP1 ISZERO PUSH2 0x360 JUMPI POP PUSH1 0x0 DUP2 MLOAD EQ DUP1 PUSH2 0x35F JUMPI POP DUP1 DUP1 PUSH1 0x20 ADD SWAP1 MLOAD DUP2 ADD SWAP1 PUSH2 0x35E SWAP2 SWAP1 PUSH2 0x40F JUMP JUMPDEST JUMPDEST JUMPDEST PUSH2 0x39F JUMPI PUSH1 0x40 MLOAD PUSH32 0x8C379A000000000000000000000000000000000000000000000000000000000 DUP2 MSTORE PUSH1 0x4 ADD PUSH2 0x396 SWAP1 PUSH2 0x56E JUMP JUMPDEST PUSH1 0x40 MLOAD DUP1 SWAP2 SUB SWAP1 REVERT JUMPDEST POP POP POP POP POP POP JUMP JUMPDEST PUSH1 0x0 DUP2 CALLDATALOAD SWAP1 POP PUSH2 0x3B6 DUP2 PUSH2 0x76A JUMP JUMPDEST SWAP3 SWAP2 POP POP JUMP JUMPDEST PUSH1 0x0 DUP2 MLOAD SWAP1 POP PUSH2 0x3CB DUP2 PUSH2 0x781 JUMP JUMPDEST SWAP3 SWAP2 POP POP JUMP JUMPDEST PUSH1 0x0 DUP2 CALLDATALOAD SWAP1 POP PUSH2 0x3E0 DUP2 PUSH2 0x798 JUMP JUMPDEST SWAP3 SWAP2 POP POP JUMP JUMPDEST PUSH1 0x0 PUSH1 0x20 DUP3 DUP5 SUB SLT ISZERO PUSH2 0x3F8 JUMPI PUSH1 0x0 DUP1 REVERT JUMPDEST PUSH1 0x0 PUSH2 0x406 DUP5 DUP3 DUP6 ADD PUSH2 0x3A7 JUMP JUMPDEST SWAP2 POP POP SWAP3 SWAP2 POP POP JUMP JUMPDEST PUSH1 0x0 PUSH1 0x20 DUP3 DUP5 SUB SLT ISZERO PUSH2 0x421 JUMPI PUSH1 0x0 DUP1 REVERT JUMPDEST PUSH1 0x0 PUSH2 0x42F DUP5 DUP3 DUP6 ADD PUSH2 0x3BC JUMP JUMPDEST SWAP2 POP POP SWAP3 SWAP2 POP POP JUMP JUMPDEST PUSH1 0x0 PUSH1 0x20 DUP3 DUP5 SUB SLT ISZERO PUSH2 0x44A JUMPI PUSH1 0x0 DUP1 REVERT JUMPDEST PUSH1 0x0 PUSH2 0x458 DUP5 DUP3 DUP6 ADD PUSH2 0x3D1 JUMP JUMPDEST SWAP2 POP POP SWAP3 SWAP2 POP POP JUMP JUMPDEST PUSH2 0x46A DUP2 PUSH2 0x624 JUMP JUMPDEST DUP3 MSTORE POP POP JUMP JUMPDEST PUSH1 0x0 PUSH2 0x47B DUP3 PUSH2 0x5C9 JUMP JUMPDEST PUSH2 0x485 DUP2 DUP6 PUSH2 0x5D4 JUMP JUMPDEST SWAP4 POP PUSH2 0x495 DUP2 DUP6 PUSH1 0x20 DUP7 ADD PUSH2 0x690 JUMP JUMPDEST DUP1 DUP5 ADD SWAP2 POP POP SWAP3 SWAP2 POP POP JUMP JUMPDEST PUSH2 0x4AA DUP2 PUSH2 0x66C JUMP JUMPDEST DUP3 MSTORE POP POP JUMP JUMPDEST PUSH1 0x0 PUSH2 0x4BD PUSH1 0x24 DUP4 PUSH2 0x5DF JUMP JUMPDEST SWAP2 POP PUSH2 0x4C8 DUP3 PUSH2 0x6F2 JUMP JUMPDEST PUSH1 0x40 DUP3 ADD SWAP1 POP SWAP2 SWAP1 POP JUMP JUMPDEST PUSH1 0x0 PUSH2 0x4E0 PUSH1 0x1F DUP4 PUSH2 0x5DF JUMP JUMPDEST SWAP2 POP PUSH2 0x4EB DUP3 PUSH2 0x741 JUMP JUMPDEST PUSH1 0x20 DUP3 ADD SWAP1 POP SWAP2 SWAP1 POP JUMP JUMPDEST PUSH2 0x4FF DUP2 PUSH2 0x662 JUMP JUMPDEST DUP3 MSTORE POP POP JUMP JUMPDEST PUSH1 0x0 PUSH2 0x511 DUP3 DUP5 PUSH2 0x470 JUMP JUMPDEST SWAP2 POP DUP2 SWAP1 POP SWAP3 SWAP2 POP POP JUMP JUMPDEST PUSH1 0x0 PUSH1 0x60 DUP3 ADD SWAP1 POP PUSH2 0x531 PUSH1 0x0 DUP4 ADD DUP7 PUSH2 0x461 JUMP JUMPDEST PUSH2 0x53E PUSH1 0x20 DUP4 ADD DUP6 PUSH2 0x461 JUMP JUMPDEST PUSH2 0x54B PUSH1 0x40 DUP4 ADD DUP5 PUSH2 0x4F6 JUMP JUMPDEST SWAP5 SWAP4 POP POP POP POP JUMP JUMPDEST PUSH1 0x0 PUSH1 0x20 DUP3 ADD SWAP1 POP PUSH2 0x568 PUSH1 0x0 DUP4 ADD DUP5 PUSH2 0x4A1 JUMP JUMPDEST SWAP3 SWAP2 POP POP JUMP JUMPDEST PUSH1 0x0 PUSH1 0x20 DUP3 ADD SWAP1 POP DUP2 DUP2 SUB PUSH1 0x0 DUP4 ADD MSTORE PUSH2 0x587 DUP2 PUSH2 0x4B0 JUMP JUMPDEST SWAP1 POP SWAP2 SWAP1 POP JUMP JUMPDEST PUSH1 0x0 PUSH1 0x20 DUP3 ADD SWAP1 POP DUP2 DUP2 SUB PUSH1 0x0 DUP4 ADD MSTORE PUSH2 0x5A7 DUP2 PUSH2 0x4D3 JUMP JUMPDEST SWAP1 POP SWAP2 SWAP1 POP JUMP JUMPDEST PUSH1 0x0 PUSH1 0x20 DUP3 ADD SWAP1 POP PUSH2 0x5C3 PUSH1 0x0 DUP4 ADD DUP5 PUSH2 0x4F6 JUMP JUMPDEST SWAP3 SWAP2 POP POP JUMP JUMPDEST PUSH1 0x0 DUP2 MLOAD SWAP1 POP SWAP2 SWAP1 POP JUMP JUMPDEST PUSH1 0x0 DUP2 SWAP1 POP SWAP3 SWAP2 POP POP JUMP JUMPDEST PUSH1 0x0 DUP3 DUP3 MSTORE PUSH1 0x20 DUP3 ADD SWAP1 POP SWAP3 SWAP2 POP POP JUMP JUMPDEST PUSH1 0x0 PUSH2 0x5FB DUP3 PUSH2 0x662 JUMP JUMPDEST SWAP2 POP PUSH2 0x606 DUP4 PUSH2 0x662 JUMP JUMPDEST SWAP3 POP DUP3 DUP3 LT ISZERO PUSH2 0x619 JUMPI PUSH2 0x618 PUSH2 0x6C3 JUMP JUMPDEST JUMPDEST DUP3 DUP3 SUB SWAP1 POP SWAP3 SWAP2 POP POP JUMP JUMPDEST PUSH1 0x0 PUSH2 0x62F DUP3 PUSH2 0x642 JUMP JUMPDEST SWAP1 POP SWAP2 SWAP1 POP JUMP JUMPDEST PUSH1 0x0 DUP2 ISZERO ISZERO SWAP1 POP SWAP2 SWAP1 POP JUMP JUMPDEST PUSH1 0x0 PUSH20 0xFFFFFFFFFFFFFFFFFFFFFFFFFFFFFFFFFFFFFFFF DUP3 AND SWAP1 POP SWAP2 SWAP1 POP JUMP JUMPDEST PUSH1 0x0 DUP2 SWAP1 POP SWAP2 SWAP1 POP JUMP JUMPDEST PUSH1 0x0 PUSH2 0x677 DUP3 PUSH2 0x67E JUMP JUMPDEST SWAP1 POP SWAP2 SWAP1 POP JUMP JUMPDEST PUSH1 0x0 PUSH2 0x689 DUP3 PUSH2 0x642 JUMP JUMPDEST SWAP1 POP SWAP2 SWAP1 POP JUMP JUMPDEST PUSH1 0x0 JUMPDEST DUP4 DUP2 LT ISZERO PUSH2 0x6AE JUMPI DUP1 DUP3 ADD MLOAD DUP2 DUP5 ADD MSTORE PUSH1 0x20 DUP2 ADD SWAP1 POP PUSH2 0x693 JUMP JUMPDEST DUP4 DUP2 GT ISZERO PUSH2 0x6BD JUMPI PUSH1 0x0 DUP5 DUP5 ADD MSTORE JUMPDEST POP POP POP POP JUMP JUMPDEST PUSH32 0x4E487B7100000000000000000000000000000000000000000000000000000000 PUSH1 0x0 MSTORE PUSH1 0x11 PUSH1 0x4 MSTORE PUSH1 0x24 PUSH1 0x0 REVERT JUMPDEST PUSH32 0x5472616E7366657248656C7065723A205452414E534645525F46524F4D5F4641 PUSH1 0x0 DUP3 ADD MSTORE PUSH32 0x494C454400000000000000000000000000000000000000000000000000000000 PUSH1 0x20 DUP3 ADD MSTORE POP JUMP JUMPDEST PUSH32 0x5265656E7472616E637947756172643A207265656E7472616E742063616C6C00 PUSH1 0x0 DUP3 ADD MSTORE POP JUMP JUMPDEST PUSH2 0x773 DUP2 PUSH2 0x624 JUMP JUMPDEST DUP2 EQ PUSH2 0x77E JUMPI PUSH1 0x0 DUP1 REVERT JUMPDEST POP JUMP JUMPDEST PUSH2 0x78A DUP2 PUSH2 0x636 JUMP JUMPDEST DUP2 EQ PUSH2 0x795 JUMPI PUSH1 0x0 DUP1 REVERT JUMPDEST POP JUMP JUMPDEST PUSH2 0x7A1 DUP2 PUSH2 0x662 JUMP JUMPDEST DUP2 EQ PUSH2 0x7AC JUMPI PUSH1 0x0 DUP1 REVERT JUMPDEST POP JUMP INVALID LOG2 PUSH5 0x6970667358 0x22 SLT KECCAK256 0xEA 0xC1 0xDC DUP11 0xBD 0x23 SWAP11 RETURN 0xDC DUP15 PUSH27 0x16F53F1A2D12567EA5128523C3C7865216A404824464736F6C6343 STOP ADDMOD DIV STOP CALLER "
				},
				"gasEstimates": {
					"creation": {
						"codeDepositCost": "404200",
						"executionCost": "41330",
						"totalCost": "445530"
					},
					"external": {
						"PRESALE_INFO()": "1249",
						"backToken()": "infinite",
						"depodit(uint256)": "infinite",
						"getBalance(address)": "1423",
						"transferETH(uint256)": "infinite"
					}
				},
				"methodIdentifiers": {
					"PRESALE_INFO()": "3f74aa38",
					"backToken()": "861faf5f",
					"depodit(uint256)": "79647833",
					"getBalance(address)": "f8b2cb4f",
					"transferETH(uint256)": "4329db46"
				}
			},
			"storageLayout": {
				"storage": [
					{
						"astId": 186,
						"contract": "Ethereum/Presale.sol:Presale",
						"label": "_status",
						"offset": 0,
						"slot": "0",
						"type": "t_uint256"
					},
					{
						"astId": 91,
						"contract": "Ethereum/Presale.sol:Presale",
						"label": "PRESALE_INFO",
						"offset": 0,
						"slot": "1",
						"type": "t_struct(PresaleInfo)88_storage"
					}
				],
				"types": {
					"t_contract(IERC20)77": {
						"encoding": "inplace",
						"label": "contract IERC20",
						"numberOfBytes": "20"
					},
					"t_struct(PresaleInfo)88_storage": {
						"encoding": "inplace",
						"label": "struct Presale.PresaleInfo",
						"members": [
							{
								"astId": 87,
								"contract": "Ethereum/Presale.sol:Presale",
								"label": "B_TOKEN",
								"offset": 0,
								"slot": "0",
								"type": "t_contract(IERC20)77"
							}
						],
						"numberOfBytes": "32"
					},
					"t_uint256": {
						"encoding": "inplace",
						"label": "uint256",
						"numberOfBytes": "32"
					}
				}
			},
			"userdoc": {
				"kind": "user",
				"methods": {},
				"version": 1
			}
		}
	}
}