{
	"Ethereum/Presale.sol": {
		"Presale": {
			"abi": [
				{
					"inputs": [],
					"name": "backToken",
					"outputs": [],
					"stateMutability": "payable",
					"type": "function"
				},
				{
					"inputs": [
						{
							"internalType": "address",
							"name": "token",
							"type": "address"
						},
						{
							"internalType": "address",
							"name": "from",
							"type": "address"
						},
						{
							"internalType": "address",
							"name": "to",
							"type": "address"
						},
						{
							"internalType": "uint256",
							"name": "value",
							"type": "uint256"
						}
					],
					"name": "depodit",
					"outputs": [],
					"stateMutability": "payable",
					"type": "function"
				},
				{
					"inputs": [
						{
							"internalType": "address",
							"name": "_address",
							"type": "address"
						}
					],
					"name": "getBalance",
					"outputs": [
						{
							"internalType": "uint256",
							"name": "",
							"type": "uint256"
						}
					],
					"stateMutability": "view",
					"type": "function"
				},
				{
					"inputs": [
						{
							"internalType": "uint256",
							"name": "amount",
							"type": "uint256"
						}
					],
					"name": "transferETH",
					"outputs": [],
					"stateMutability": "payable",
					"type": "function"
				}
			],
			"devdoc": {
				"kind": "dev",
				"methods": {},
				"version": 1
			},
			"evm": {
				"assembly": "    /* \"Ethereum/Presale.sol\":232:3400  contract Presale is ReentrancyGuard{\r... */\n  mstore(0x40, 0x80)\n  callvalue\n  dup1\n  iszero\n  tag_1\n  jumpi\n  0x00\n  dup1\n  revert\ntag_1:\n  pop\n    /* \"Utils/ReentrancyGuard.sol\":1734:1735  1 */\n  0x01\n    /* \"Utils/ReentrancyGuard.sol\":1845:1852  _status */\n  0x00\n    /* \"Utils/ReentrancyGuard.sol\":1845:1867  _status = _NOT_ENTERED */\n  dup2\n  swap1\n  sstore\n  pop\n    /* \"Ethereum/Presale.sol\":232:3400  contract Presale is ReentrancyGuard{\r... */\n  dataSize(sub_0)\n  dup1\n  dataOffset(sub_0)\n  0x00\n  codecopy\n  0x00\n  return\nstop\n\nsub_0: assembly {\n        /* \"Ethereum/Presale.sol\":232:3400  contract Presale is ReentrancyGuard{\r... */\n      mstore(0x40, 0x80)\n      jumpi(tag_1, lt(calldatasize, 0x04))\n      shr(0xe0, calldataload(0x00))\n      dup1\n      0x4329db46\n      eq\n      tag_2\n      jumpi\n      dup1\n      0x861faf5f\n      eq\n      tag_3\n      jumpi\n      dup1\n      0xd0387e37\n      eq\n      tag_4\n      jumpi\n      dup1\n      0xf8b2cb4f\n      eq\n      tag_5\n      jumpi\n    tag_1:\n      0x00\n      dup1\n      revert\n        /* \"Ethereum/Presale.sol\":3274:3395  function transferETH(uint256 amount) external payable {\r... */\n    tag_2:\n      tag_6\n      0x04\n      dup1\n      calldatasize\n      sub\n      dup2\n      add\n      swap1\n      tag_7\n      swap2\n      swap1\n      tag_8\n      jump\t// in\n    tag_7:\n      tag_9\n      jump\t// in\n    tag_6:\n      stop\n        /* \"Ethereum/Presale.sol\":3158:3266  function backToken() external payable {\r... */\n    tag_3:\n      tag_10\n      tag_11\n      jump\t// in\n    tag_10:\n      stop\n        /* \"Ethereum/Presale.sol\":2643:2987  function depodit(\r... */\n    tag_4:\n      tag_12\n      0x04\n      dup1\n      calldatasize\n      sub\n      dup2\n      add\n      swap1\n      tag_13\n      swap2\n      swap1\n      tag_14\n      jump\t// in\n    tag_13:\n      tag_15\n      jump\t// in\n    tag_12:\n      stop\n        /* \"Ethereum/Presale.sol\":3036:3147  function getBalance(address _address) external view returns(uint256) {\r... */\n    tag_5:\n      callvalue\n      dup1\n      iszero\n      tag_16\n      jumpi\n      0x00\n      dup1\n      revert\n    tag_16:\n      pop\n      tag_17\n      0x04\n      dup1\n      calldatasize\n      sub\n      dup2\n      add\n      swap1\n      tag_18\n      swap2\n      swap1\n      tag_19\n      jump\t// in\n    tag_18:\n      tag_20\n      jump\t// in\n    tag_17:\n      mload(0x40)\n      tag_21\n      swap2\n      swap1\n      tag_22\n      jump\t// in\n    tag_21:\n      mload(0x40)\n      dup1\n      swap2\n      sub\n      swap1\n      return\n        /* \"Ethereum/Presale.sol\":3274:3395  function transferETH(uint256 amount) external payable {\r... */\n    tag_9:\n        /* \"Ethereum/Presale.sol\":3347:3357  msg.sender */\n      caller\n        /* \"Ethereum/Presale.sol\":3339:3367  payable(msg.sender).transfer */\n      0xffffffffffffffffffffffffffffffffffffffff\n      and\n        /* \"Ethereum/Presale.sol\":3339:3387  payable(msg.sender).transfer(msg.value - amount) */\n      0x08fc\n        /* \"Ethereum/Presale.sol\":3380:3386  amount */\n      dup3\n        /* \"Ethereum/Presale.sol\":3368:3377  msg.value */\n      callvalue\n        /* \"Ethereum/Presale.sol\":3368:3386  msg.value - amount */\n      tag_24\n      swap2\n      swap1\n      tag_25\n      jump\t// in\n    tag_24:\n        /* \"Ethereum/Presale.sol\":3339:3387  payable(msg.sender).transfer(msg.value - amount) */\n      swap1\n      dup2\n      iszero\n      mul\n      swap1\n      mload(0x40)\n      0x00\n      mload(0x40)\n      dup1\n      dup4\n      sub\n      dup2\n      dup6\n      dup9\n      dup9\n      call\n      swap4\n      pop\n      pop\n      pop\n      pop\n      iszero\n      dup1\n      iszero\n      tag_27\n      jumpi\n      returndatasize\n      0x00\n      dup1\n      returndatacopy\n      revert(0x00, returndatasize)\n    tag_27:\n      pop\n        /* \"Ethereum/Presale.sol\":3274:3395  function transferETH(uint256 amount) external payable {\r... */\n      pop\n      jump\t// out\n        /* \"Ethereum/Presale.sol\":3158:3266  function backToken() external payable {\r... */\n    tag_11:\n        /* \"Ethereum/Presale.sol\":3215:3225  msg.sender */\n      caller\n        /* \"Ethereum/Presale.sol\":3207:3235  payable(msg.sender).transfer */\n      0xffffffffffffffffffffffffffffffffffffffff\n      and\n        /* \"Ethereum/Presale.sol\":3207:3258  payable(msg.sender).transfer(address(this).balance) */\n      0x08fc\n        /* \"Ethereum/Presale.sol\":3236:3257  address(this).balance */\n      selfbalance\n        /* \"Ethereum/Presale.sol\":3207:3258  payable(msg.sender).transfer(address(this).balance) */\n      swap1\n      dup2\n      iszero\n      mul\n      swap1\n      mload(0x40)\n      0x00\n      mload(0x40)\n      dup1\n      dup4\n      sub\n      dup2\n      dup6\n      dup9\n      dup9\n      call\n      swap4\n      pop\n      pop\n      pop\n      pop\n      iszero\n      dup1\n      iszero\n      tag_30\n      jumpi\n      returndatasize\n      0x00\n      dup1\n      returndatacopy\n      revert(0x00, returndatasize)\n    tag_30:\n      pop\n        /* \"Ethereum/Presale.sol\":3158:3266  function backToken() external payable {\r... */\n      jump\t// out\n        /* \"Ethereum/Presale.sol\":2643:2987  function depodit(\r... */\n    tag_15:\n        /* \"Utils/ReentrancyGuard.sol\":1778:1779  2 */\n      0x02\n        /* \"Utils/ReentrancyGuard.sol\":2376:2383  _status */\n      sload(0x00)\n        /* \"Utils/ReentrancyGuard.sol\":2376:2395  _status != _ENTERED */\n      eq\n      iszero\n        /* \"Utils/ReentrancyGuard.sol\":2368:2431  require(_status != _ENTERED, \"ReentrancyGuard: reentrant call\") */\n      tag_32\n      jumpi\n      mload(0x40)\n      0x08c379a000000000000000000000000000000000000000000000000000000000\n      dup2\n      mstore\n      0x04\n      add\n      tag_33\n      swap1\n      tag_34\n      jump\t// in\n    tag_33:\n      mload(0x40)\n      dup1\n      swap2\n      sub\n      swap1\n      revert\n    tag_32:\n        /* \"Utils/ReentrancyGuard.sol\":1778:1779  2 */\n      0x02\n        /* \"Utils/ReentrancyGuard.sol\":2509:2516  _status */\n      0x00\n        /* \"Utils/ReentrancyGuard.sol\":2509:2527  _status = _ENTERED */\n      dup2\n      swap1\n      sstore\n      pop\n        /* \"Ethereum/Presale.sol\":2800:2979  TransferHelper.safeTransferFrom(\r... */\n      tag_36\n        /* \"Ethereum/Presale.sol\":2858:2870  PRESALE_INFO */\n      0x01\n        /* \"Ethereum/Presale.sol\":2858:2878  PRESALE_INFO.B_TOKEN */\n      0x00\n      add\n      0x00\n      swap1\n      sload\n      swap1\n      0x0100\n      exp\n      swap1\n      div\n      0xffffffffffffffffffffffffffffffffffffffff\n      and\n        /* \"Ethereum/Presale.sol\":2898:2908  msg.sender */\n      caller\n        /* \"Ethereum/Presale.sol\":2935:2939  this */\n      address\n        /* \"Ethereum/Presale.sol\":2959:2964  value */\n      dup5\n        /* \"Ethereum/Presale.sol\":2800:2831  TransferHelper.safeTransferFrom */\n      tag_37\n        /* \"Ethereum/Presale.sol\":2800:2979  TransferHelper.safeTransferFrom(\r... */\n      jump\t// in\n    tag_36:\n        /* \"Utils/ReentrancyGuard.sol\":1734:1735  1 */\n      0x01\n        /* \"Utils/ReentrancyGuard.sol\":2688:2695  _status */\n      0x00\n        /* \"Utils/ReentrancyGuard.sol\":2688:2710  _status = _NOT_ENTERED */\n      dup2\n      swap1\n      sstore\n      pop\n        /* \"Ethereum/Presale.sol\":2643:2987  function depodit(\r... */\n      pop\n      pop\n      pop\n      pop\n      jump\t// out\n        /* \"Ethereum/Presale.sol\":3036:3147  function getBalance(address _address) external view returns(uint256) {\r... */\n    tag_20:\n        /* \"Ethereum/Presale.sol\":3096:3103  uint256 */\n      0x00\n        /* \"Ethereum/Presale.sol\":3123:3131  _address */\n      dup2\n        /* \"Ethereum/Presale.sol\":3123:3139  _address.balance */\n      0xffffffffffffffffffffffffffffffffffffffff\n      and\n      balance\n        /* \"Ethereum/Presale.sol\":3116:3139  return _address.balance */\n      swap1\n      pop\n        /* \"Ethereum/Presale.sol\":3036:3147  function getBalance(address _address) external view returns(uint256) {\r... */\n      swap2\n      swap1\n      pop\n      jump\t// out\n        /* \"Utils/TransferHelper.sol\":1152:1650  function safeTransferFrom(\r... */\n    tag_37:\n        /* \"Utils/TransferHelper.sol\":1377:1389  bool success */\n      0x00\n        /* \"Utils/TransferHelper.sol\":1391:1408  bytes memory data */\n      dup1\n        /* \"Utils/TransferHelper.sol\":1412:1417  token */\n      dup6\n        /* \"Utils/TransferHelper.sol\":1412:1422  token.call */\n      0xffffffffffffffffffffffffffffffffffffffff\n      and\n        /* \"Utils/TransferHelper.sol\":1446:1456  0x23b872dd */\n      0x23b872dd\n        /* \"Utils/TransferHelper.sol\":1458:1462  from */\n      dup7\n        /* \"Utils/TransferHelper.sol\":1464:1466  to */\n      dup7\n        /* \"Utils/TransferHelper.sol\":1468:1473  value */\n      dup7\n        /* \"Utils/TransferHelper.sol\":1423:1474  abi.encodeWithSelector(0x23b872dd, from, to, value) */\n      add(0x24, mload(0x40))\n      tag_40\n      swap4\n      swap3\n      swap2\n      swap1\n      tag_41\n      jump\t// in\n    tag_40:\n      mload(0x40)\n      0x20\n      dup2\n      dup4\n      sub\n      sub\n      dup2\n      mstore\n      swap1\n      0x40\n      mstore\n      swap1\n      0xe0\n      shl\n      0x20\n      dup3\n      add\n      dup1\n      mload\n      0xffffffffffffffffffffffffffffffffffffffffffffffffffffffff\n      dup4\n      dup2\n      dup4\n      and\n      or\n      dup4\n      mstore\n      pop\n      pop\n      pop\n      pop\n        /* \"Utils/TransferHelper.sol\":1412:1475  token.call(abi.encodeWithSelector(0x23b872dd, from, to, value)) */\n      mload(0x40)\n      tag_42\n      swap2\n      swap1\n      tag_43\n      jump\t// in\n    tag_42:\n      0x00\n      mload(0x40)\n      dup1\n      dup4\n      sub\n      dup2\n      0x00\n      dup7\n      gas\n      call\n      swap2\n      pop\n      pop\n      returndatasize\n      dup1\n      0x00\n      dup2\n      eq\n      tag_46\n      jumpi\n      mload(0x40)\n      swap2\n      pop\n      and(add(returndatasize, 0x3f), not(0x1f))\n      dup3\n      add\n      0x40\n      mstore\n      returndatasize\n      dup3\n      mstore\n      returndatasize\n      0x00\n      0x20\n      dup5\n      add\n      returndatacopy\n      jump(tag_45)\n    tag_46:\n      0x60\n      swap2\n      pop\n    tag_45:\n      pop\n        /* \"Utils/TransferHelper.sol\":1376:1475  (bool success, bytes memory data) = token.call(abi.encodeWithSelector(0x23b872dd, from, to, value)) */\n      swap2\n      pop\n      swap2\n      pop\n        /* \"Utils/TransferHelper.sol\":1508:1515  success */\n      dup2\n        /* \"Utils/TransferHelper.sol\":1508:1565  success && (data.length == 0 || abi.decode(data, (bool))) */\n      dup1\n      iszero\n      tag_47\n      jumpi\n      pop\n        /* \"Utils/TransferHelper.sol\":1535:1536  0 */\n      0x00\n        /* \"Utils/TransferHelper.sol\":1520:1524  data */\n      dup2\n        /* \"Utils/TransferHelper.sol\":1520:1531  data.length */\n      mload\n        /* \"Utils/TransferHelper.sol\":1520:1536  data.length == 0 */\n      eq\n        /* \"Utils/TransferHelper.sol\":1520:1564  data.length == 0 || abi.decode(data, (bool)) */\n      dup1\n      tag_48\n      jumpi\n      pop\n        /* \"Utils/TransferHelper.sol\":1551:1555  data */\n      dup1\n        /* \"Utils/TransferHelper.sol\":1540:1564  abi.decode(data, (bool)) */\n      dup1\n      0x20\n      add\n      swap1\n      mload\n      dup2\n      add\n      swap1\n      tag_49\n      swap2\n      swap1\n      tag_50\n      jump\t// in\n    tag_49:\n        /* \"Utils/TransferHelper.sol\":1520:1564  data.length == 0 || abi.decode(data, (bool)) */\n    tag_48:\n        /* \"Utils/TransferHelper.sol\":1508:1565  success && (data.length == 0 || abi.decode(data, (bool))) */\n    tag_47:\n        /* \"Utils/TransferHelper.sol\":1486:1642  require(\r... */\n      tag_51\n      jumpi\n      mload(0x40)\n      0x08c379a000000000000000000000000000000000000000000000000000000000\n      dup2\n      mstore\n      0x04\n      add\n      tag_52\n      swap1\n      tag_53\n      jump\t// in\n    tag_52:\n      mload(0x40)\n      dup1\n      swap2\n      sub\n      swap1\n      revert\n    tag_51:\n        /* \"Utils/TransferHelper.sol\":1152:1650  function safeTransferFrom(\r... */\n      pop\n      pop\n      pop\n      pop\n      pop\n      pop\n      jump\t// out\n        /* \"#utility.yul\":7:146   */\n    tag_55:\n        /* \"#utility.yul\":53:58   */\n      0x00\n        /* \"#utility.yul\":91:97   */\n      dup2\n        /* \"#utility.yul\":78:98   */\n      calldataload\n        /* \"#utility.yul\":69:98   */\n      swap1\n      pop\n        /* \"#utility.yul\":107:140   */\n      tag_57\n        /* \"#utility.yul\":134:139   */\n      dup2\n        /* \"#utility.yul\":107:140   */\n      tag_58\n      jump\t// in\n    tag_57:\n        /* \"#utility.yul\":59:146   */\n      swap3\n      swap2\n      pop\n      pop\n      jump\t// out\n        /* \"#utility.yul\":152:289   */\n    tag_59:\n        /* \"#utility.yul\":206:211   */\n      0x00\n        /* \"#utility.yul\":237:243   */\n      dup2\n        /* \"#utility.yul\":231:244   */\n      mload\n        /* \"#utility.yul\":222:244   */\n      swap1\n      pop\n        /* \"#utility.yul\":253:283   */\n      tag_61\n        /* \"#utility.yul\":277:282   */\n      dup2\n        /* \"#utility.yul\":253:283   */\n      tag_62\n      jump\t// in\n    tag_61:\n        /* \"#utility.yul\":212:289   */\n      swap3\n      swap2\n      pop\n      pop\n      jump\t// out\n        /* \"#utility.yul\":295:434   */\n    tag_63:\n        /* \"#utility.yul\":341:346   */\n      0x00\n        /* \"#utility.yul\":379:385   */\n      dup2\n        /* \"#utility.yul\":366:386   */\n      calldataload\n        /* \"#utility.yul\":357:386   */\n      swap1\n      pop\n        /* \"#utility.yul\":395:428   */\n      tag_65\n        /* \"#utility.yul\":422:427   */\n      dup2\n        /* \"#utility.yul\":395:428   */\n      tag_66\n      jump\t// in\n    tag_65:\n        /* \"#utility.yul\":347:434   */\n      swap3\n      swap2\n      pop\n      pop\n      jump\t// out\n        /* \"#utility.yul\":440:702   */\n    tag_19:\n        /* \"#utility.yul\":499:505   */\n      0x00\n        /* \"#utility.yul\":548:550   */\n      0x20\n        /* \"#utility.yul\":536:545   */\n      dup3\n        /* \"#utility.yul\":527:534   */\n      dup5\n        /* \"#utility.yul\":523:546   */\n      sub\n        /* \"#utility.yul\":519:551   */\n      slt\n        /* \"#utility.yul\":516:518   */\n      iszero\n      tag_68\n      jumpi\n        /* \"#utility.yul\":564:565   */\n      0x00\n        /* \"#utility.yul\":561:562   */\n      dup1\n        /* \"#utility.yul\":554:566   */\n      revert\n        /* \"#utility.yul\":516:518   */\n    tag_68:\n        /* \"#utility.yul\":607:608   */\n      0x00\n        /* \"#utility.yul\":632:685   */\n      tag_69\n        /* \"#utility.yul\":677:684   */\n      dup5\n        /* \"#utility.yul\":668:674   */\n      dup3\n        /* \"#utility.yul\":657:666   */\n      dup6\n        /* \"#utility.yul\":653:675   */\n      add\n        /* \"#utility.yul\":632:685   */\n      tag_55\n      jump\t// in\n    tag_69:\n        /* \"#utility.yul\":622:685   */\n      swap2\n      pop\n        /* \"#utility.yul\":578:695   */\n      pop\n        /* \"#utility.yul\":506:702   */\n      swap3\n      swap2\n      pop\n      pop\n      jump\t// out\n        /* \"#utility.yul\":708:1406   */\n    tag_14:\n        /* \"#utility.yul\":794:800   */\n      0x00\n        /* \"#utility.yul\":802:808   */\n      dup1\n        /* \"#utility.yul\":810:816   */\n      0x00\n        /* \"#utility.yul\":818:824   */\n      dup1\n        /* \"#utility.yul\":867:870   */\n      0x80\n        /* \"#utility.yul\":855:864   */\n      dup6\n        /* \"#utility.yul\":846:853   */\n      dup8\n        /* \"#utility.yul\":842:865   */\n      sub\n        /* \"#utility.yul\":838:871   */\n      slt\n        /* \"#utility.yul\":835:837   */\n      iszero\n      tag_71\n      jumpi\n        /* \"#utility.yul\":884:885   */\n      0x00\n        /* \"#utility.yul\":881:882   */\n      dup1\n        /* \"#utility.yul\":874:886   */\n      revert\n        /* \"#utility.yul\":835:837   */\n    tag_71:\n        /* \"#utility.yul\":927:928   */\n      0x00\n        /* \"#utility.yul\":952:1005   */\n      tag_72\n        /* \"#utility.yul\":997:1004   */\n      dup8\n        /* \"#utility.yul\":988:994   */\n      dup3\n        /* \"#utility.yul\":977:986   */\n      dup9\n        /* \"#utility.yul\":973:995   */\n      add\n        /* \"#utility.yul\":952:1005   */\n      tag_55\n      jump\t// in\n    tag_72:\n        /* \"#utility.yul\":942:1005   */\n      swap5\n      pop\n        /* \"#utility.yul\":898:1015   */\n      pop\n        /* \"#utility.yul\":1054:1056   */\n      0x20\n        /* \"#utility.yul\":1080:1133   */\n      tag_73\n        /* \"#utility.yul\":1125:1132   */\n      dup8\n        /* \"#utility.yul\":1116:1122   */\n      dup3\n        /* \"#utility.yul\":1105:1114   */\n      dup9\n        /* \"#utility.yul\":1101:1123   */\n      add\n        /* \"#utility.yul\":1080:1133   */\n      tag_55\n      jump\t// in\n    tag_73:\n        /* \"#utility.yul\":1070:1133   */\n      swap4\n      pop\n        /* \"#utility.yul\":1025:1143   */\n      pop\n        /* \"#utility.yul\":1182:1184   */\n      0x40\n        /* \"#utility.yul\":1208:1261   */\n      tag_74\n        /* \"#utility.yul\":1253:1260   */\n      dup8\n        /* \"#utility.yul\":1244:1250   */\n      dup3\n        /* \"#utility.yul\":1233:1242   */\n      dup9\n        /* \"#utility.yul\":1229:1251   */\n      add\n        /* \"#utility.yul\":1208:1261   */\n      tag_55\n      jump\t// in\n    tag_74:\n        /* \"#utility.yul\":1198:1261   */\n      swap3\n      pop\n        /* \"#utility.yul\":1153:1271   */\n      pop\n        /* \"#utility.yul\":1310:1312   */\n      0x60\n        /* \"#utility.yul\":1336:1389   */\n      tag_75\n        /* \"#utility.yul\":1381:1388   */\n      dup8\n        /* \"#utility.yul\":1372:1378   */\n      dup3\n        /* \"#utility.yul\":1361:1370   */\n      dup9\n        /* \"#utility.yul\":1357:1379   */\n      add\n        /* \"#utility.yul\":1336:1389   */\n      tag_63\n      jump\t// in\n    tag_75:\n        /* \"#utility.yul\":1326:1389   */\n      swap2\n      pop\n        /* \"#utility.yul\":1281:1399   */\n      pop\n        /* \"#utility.yul\":825:1406   */\n      swap3\n      swap6\n      swap2\n      swap5\n      pop\n      swap3\n      pop\n      jump\t// out\n        /* \"#utility.yul\":1412:1690   */\n    tag_50:\n        /* \"#utility.yul\":1479:1485   */\n      0x00\n        /* \"#utility.yul\":1528:1530   */\n      0x20\n        /* \"#utility.yul\":1516:1525   */\n      dup3\n        /* \"#utility.yul\":1507:1514   */\n      dup5\n        /* \"#utility.yul\":1503:1526   */\n      sub\n        /* \"#utility.yul\":1499:1531   */\n      slt\n        /* \"#utility.yul\":1496:1498   */\n      iszero\n      tag_77\n      jumpi\n        /* \"#utility.yul\":1544:1545   */\n      0x00\n        /* \"#utility.yul\":1541:1542   */\n      dup1\n        /* \"#utility.yul\":1534:1546   */\n      revert\n        /* \"#utility.yul\":1496:1498   */\n    tag_77:\n        /* \"#utility.yul\":1587:1588   */\n      0x00\n        /* \"#utility.yul\":1612:1673   */\n      tag_78\n        /* \"#utility.yul\":1665:1672   */\n      dup5\n        /* \"#utility.yul\":1656:1662   */\n      dup3\n        /* \"#utility.yul\":1645:1654   */\n      dup6\n        /* \"#utility.yul\":1641:1663   */\n      add\n        /* \"#utility.yul\":1612:1673   */\n      tag_59\n      jump\t// in\n    tag_78:\n        /* \"#utility.yul\":1602:1673   */\n      swap2\n      pop\n        /* \"#utility.yul\":1558:1683   */\n      pop\n        /* \"#utility.yul\":1486:1690   */\n      swap3\n      swap2\n      pop\n      pop\n      jump\t// out\n        /* \"#utility.yul\":1696:1958   */\n    tag_8:\n        /* \"#utility.yul\":1755:1761   */\n      0x00\n        /* \"#utility.yul\":1804:1806   */\n      0x20\n        /* \"#utility.yul\":1792:1801   */\n      dup3\n        /* \"#utility.yul\":1783:1790   */\n      dup5\n        /* \"#utility.yul\":1779:1802   */\n      sub\n        /* \"#utility.yul\":1775:1807   */\n      slt\n        /* \"#utility.yul\":1772:1774   */\n      iszero\n      tag_80\n      jumpi\n        /* \"#utility.yul\":1820:1821   */\n      0x00\n        /* \"#utility.yul\":1817:1818   */\n      dup1\n        /* \"#utility.yul\":1810:1822   */\n      revert\n        /* \"#utility.yul\":1772:1774   */\n    tag_80:\n        /* \"#utility.yul\":1863:1864   */\n      0x00\n        /* \"#utility.yul\":1888:1941   */\n      tag_81\n        /* \"#utility.yul\":1933:1940   */\n      dup5\n        /* \"#utility.yul\":1924:1930   */\n      dup3\n        /* \"#utility.yul\":1913:1922   */\n      dup6\n        /* \"#utility.yul\":1909:1931   */\n      add\n        /* \"#utility.yul\":1888:1941   */\n      tag_63\n      jump\t// in\n    tag_81:\n        /* \"#utility.yul\":1878:1941   */\n      swap2\n      pop\n        /* \"#utility.yul\":1834:1951   */\n      pop\n        /* \"#utility.yul\":1762:1958   */\n      swap3\n      swap2\n      pop\n      pop\n      jump\t// out\n        /* \"#utility.yul\":1964:2082   */\n    tag_82:\n        /* \"#utility.yul\":2051:2075   */\n      tag_84\n        /* \"#utility.yul\":2069:2074   */\n      dup2\n        /* \"#utility.yul\":2051:2075   */\n      tag_85\n      jump\t// in\n    tag_84:\n        /* \"#utility.yul\":2046:2049   */\n      dup3\n        /* \"#utility.yul\":2039:2076   */\n      mstore\n        /* \"#utility.yul\":2029:2082   */\n      pop\n      pop\n      jump\t// out\n        /* \"#utility.yul\":2088:2461   */\n    tag_86:\n        /* \"#utility.yul\":2192:2195   */\n      0x00\n        /* \"#utility.yul\":2220:2258   */\n      tag_88\n        /* \"#utility.yul\":2252:2257   */\n      dup3\n        /* \"#utility.yul\":2220:2258   */\n      tag_89\n      jump\t// in\n    tag_88:\n        /* \"#utility.yul\":2274:2362   */\n      tag_90\n        /* \"#utility.yul\":2355:2361   */\n      dup2\n        /* \"#utility.yul\":2350:2353   */\n      dup6\n        /* \"#utility.yul\":2274:2362   */\n      tag_91\n      jump\t// in\n    tag_90:\n        /* \"#utility.yul\":2267:2362   */\n      swap4\n      pop\n        /* \"#utility.yul\":2371:2423   */\n      tag_92\n        /* \"#utility.yul\":2416:2422   */\n      dup2\n        /* \"#utility.yul\":2411:2414   */\n      dup6\n        /* \"#utility.yul\":2404:2408   */\n      0x20\n        /* \"#utility.yul\":2397:2402   */\n      dup7\n        /* \"#utility.yul\":2393:2409   */\n      add\n        /* \"#utility.yul\":2371:2423   */\n      tag_93\n      jump\t// in\n    tag_92:\n        /* \"#utility.yul\":2448:2454   */\n      dup1\n        /* \"#utility.yul\":2443:2446   */\n      dup5\n        /* \"#utility.yul\":2439:2455   */\n      add\n        /* \"#utility.yul\":2432:2455   */\n      swap2\n      pop\n        /* \"#utility.yul\":2196:2461   */\n      pop\n      swap3\n      swap2\n      pop\n      pop\n      jump\t// out\n        /* \"#utility.yul\":2467:2833   */\n    tag_94:\n        /* \"#utility.yul\":2609:2612   */\n      0x00\n        /* \"#utility.yul\":2630:2697   */\n      tag_96\n        /* \"#utility.yul\":2694:2696   */\n      0x31\n        /* \"#utility.yul\":2689:2692   */\n      dup4\n        /* \"#utility.yul\":2630:2697   */\n      tag_97\n      jump\t// in\n    tag_96:\n        /* \"#utility.yul\":2623:2697   */\n      swap2\n      pop\n        /* \"#utility.yul\":2706:2799   */\n      tag_98\n        /* \"#utility.yul\":2795:2798   */\n      dup3\n        /* \"#utility.yul\":2706:2799   */\n      tag_99\n      jump\t// in\n    tag_98:\n        /* \"#utility.yul\":2824:2826   */\n      0x40\n        /* \"#utility.yul\":2819:2822   */\n      dup3\n        /* \"#utility.yul\":2815:2827   */\n      add\n        /* \"#utility.yul\":2808:2827   */\n      swap1\n      pop\n        /* \"#utility.yul\":2613:2833   */\n      swap2\n      swap1\n      pop\n      jump\t// out\n        /* \"#utility.yul\":2839:3205   */\n    tag_100:\n        /* \"#utility.yul\":2981:2984   */\n      0x00\n        /* \"#utility.yul\":3002:3069   */\n      tag_102\n        /* \"#utility.yul\":3066:3068   */\n      0x1f\n        /* \"#utility.yul\":3061:3064   */\n      dup4\n        /* \"#utility.yul\":3002:3069   */\n      tag_97\n      jump\t// in\n    tag_102:\n        /* \"#utility.yul\":2995:3069   */\n      swap2\n      pop\n        /* \"#utility.yul\":3078:3171   */\n      tag_103\n        /* \"#utility.yul\":3167:3170   */\n      dup3\n        /* \"#utility.yul\":3078:3171   */\n      tag_104\n      jump\t// in\n    tag_103:\n        /* \"#utility.yul\":3196:3198   */\n      0x20\n        /* \"#utility.yul\":3191:3194   */\n      dup3\n        /* \"#utility.yul\":3187:3199   */\n      add\n        /* \"#utility.yul\":3180:3199   */\n      swap1\n      pop\n        /* \"#utility.yul\":2985:3205   */\n      swap2\n      swap1\n      pop\n      jump\t// out\n        /* \"#utility.yul\":3211:3329   */\n    tag_105:\n        /* \"#utility.yul\":3298:3322   */\n      tag_107\n        /* \"#utility.yul\":3316:3321   */\n      dup2\n        /* \"#utility.yul\":3298:3322   */\n      tag_108\n      jump\t// in\n    tag_107:\n        /* \"#utility.yul\":3293:3296   */\n      dup3\n        /* \"#utility.yul\":3286:3323   */\n      mstore\n        /* \"#utility.yul\":3276:3329   */\n      pop\n      pop\n      jump\t// out\n        /* \"#utility.yul\":3335:3606   */\n    tag_43:\n        /* \"#utility.yul\":3465:3468   */\n      0x00\n        /* \"#utility.yul\":3487:3580   */\n      tag_110\n        /* \"#utility.yul\":3576:3579   */\n      dup3\n        /* \"#utility.yul\":3567:3573   */\n      dup5\n        /* \"#utility.yul\":3487:3580   */\n      tag_86\n      jump\t// in\n    tag_110:\n        /* \"#utility.yul\":3480:3580   */\n      swap2\n      pop\n        /* \"#utility.yul\":3597:3600   */\n      dup2\n        /* \"#utility.yul\":3590:3600   */\n      swap1\n      pop\n        /* \"#utility.yul\":3469:3606   */\n      swap3\n      swap2\n      pop\n      pop\n      jump\t// out\n        /* \"#utility.yul\":3612:4054   */\n    tag_41:\n        /* \"#utility.yul\":3761:3765   */\n      0x00\n        /* \"#utility.yul\":3799:3801   */\n      0x60\n        /* \"#utility.yul\":3788:3797   */\n      dup3\n        /* \"#utility.yul\":3784:3802   */\n      add\n        /* \"#utility.yul\":3776:3802   */\n      swap1\n      pop\n        /* \"#utility.yul\":3812:3883   */\n      tag_112\n        /* \"#utility.yul\":3880:3881   */\n      0x00\n        /* \"#utility.yul\":3869:3878   */\n      dup4\n        /* \"#utility.yul\":3865:3882   */\n      add\n        /* \"#utility.yul\":3856:3862   */\n      dup7\n        /* \"#utility.yul\":3812:3883   */\n      tag_82\n      jump\t// in\n    tag_112:\n        /* \"#utility.yul\":3893:3965   */\n      tag_113\n        /* \"#utility.yul\":3961:3963   */\n      0x20\n        /* \"#utility.yul\":3950:3959   */\n      dup4\n        /* \"#utility.yul\":3946:3964   */\n      add\n        /* \"#utility.yul\":3937:3943   */\n      dup6\n        /* \"#utility.yul\":3893:3965   */\n      tag_82\n      jump\t// in\n    tag_113:\n        /* \"#utility.yul\":3975:4047   */\n      tag_114\n        /* \"#utility.yul\":4043:4045   */\n      0x40\n        /* \"#utility.yul\":4032:4041   */\n      dup4\n        /* \"#utility.yul\":4028:4046   */\n      add\n        /* \"#utility.yul\":4019:4025   */\n      dup5\n        /* \"#utility.yul\":3975:4047   */\n      tag_105\n      jump\t// in\n    tag_114:\n        /* \"#utility.yul\":3766:4054   */\n      swap5\n      swap4\n      pop\n      pop\n      pop\n      pop\n      jump\t// out\n        /* \"#utility.yul\":4060:4479   */\n    tag_53:\n        /* \"#utility.yul\":4226:4230   */\n      0x00\n        /* \"#utility.yul\":4264:4266   */\n      0x20\n        /* \"#utility.yul\":4253:4262   */\n      dup3\n        /* \"#utility.yul\":4249:4267   */\n      add\n        /* \"#utility.yul\":4241:4267   */\n      swap1\n      pop\n        /* \"#utility.yul\":4313:4322   */\n      dup2\n        /* \"#utility.yul\":4307:4311   */\n      dup2\n        /* \"#utility.yul\":4303:4323   */\n      sub\n        /* \"#utility.yul\":4299:4300   */\n      0x00\n        /* \"#utility.yul\":4288:4297   */\n      dup4\n        /* \"#utility.yul\":4284:4301   */\n      add\n        /* \"#utility.yul\":4277:4324   */\n      mstore\n        /* \"#utility.yul\":4341:4472   */\n      tag_116\n        /* \"#utility.yul\":4467:4471   */\n      dup2\n        /* \"#utility.yul\":4341:4472   */\n      tag_94\n      jump\t// in\n    tag_116:\n        /* \"#utility.yul\":4333:4472   */\n      swap1\n      pop\n        /* \"#utility.yul\":4231:4479   */\n      swap2\n      swap1\n      pop\n      jump\t// out\n        /* \"#utility.yul\":4485:4904   */\n    tag_34:\n        /* \"#utility.yul\":4651:4655   */\n      0x00\n        /* \"#utility.yul\":4689:4691   */\n      0x20\n        /* \"#utility.yul\":4678:4687   */\n      dup3\n        /* \"#utility.yul\":4674:4692   */\n      add\n        /* \"#utility.yul\":4666:4692   */\n      swap1\n      pop\n        /* \"#utility.yul\":4738:4747   */\n      dup2\n        /* \"#utility.yul\":4732:4736   */\n      dup2\n        /* \"#utility.yul\":4728:4748   */\n      sub\n        /* \"#utility.yul\":4724:4725   */\n      0x00\n        /* \"#utility.yul\":4713:4722   */\n      dup4\n        /* \"#utility.yul\":4709:4726   */\n      add\n        /* \"#utility.yul\":4702:4749   */\n      mstore\n        /* \"#utility.yul\":4766:4897   */\n      tag_118\n        /* \"#utility.yul\":4892:4896   */\n      dup2\n        /* \"#utility.yul\":4766:4897   */\n      tag_100\n      jump\t// in\n    tag_118:\n        /* \"#utility.yul\":4758:4897   */\n      swap1\n      pop\n        /* \"#utility.yul\":4656:4904   */\n      swap2\n      swap1\n      pop\n      jump\t// out\n        /* \"#utility.yul\":4910:5132   */\n    tag_22:\n        /* \"#utility.yul\":5003:5007   */\n      0x00\n        /* \"#utility.yul\":5041:5043   */\n      0x20\n        /* \"#utility.yul\":5030:5039   */\n      dup3\n        /* \"#utility.yul\":5026:5044   */\n      add\n        /* \"#utility.yul\":5018:5044   */\n      swap1\n      pop\n        /* \"#utility.yul\":5054:5125   */\n      tag_120\n        /* \"#utility.yul\":5122:5123   */\n      0x00\n        /* \"#utility.yul\":5111:5120   */\n      dup4\n        /* \"#utility.yul\":5107:5124   */\n      add\n        /* \"#utility.yul\":5098:5104   */\n      dup5\n        /* \"#utility.yul\":5054:5125   */\n      tag_105\n      jump\t// in\n    tag_120:\n        /* \"#utility.yul\":5008:5132   */\n      swap3\n      swap2\n      pop\n      pop\n      jump\t// out\n        /* \"#utility.yul\":5138:5236   */\n    tag_89:\n        /* \"#utility.yul\":5189:5195   */\n      0x00\n        /* \"#utility.yul\":5223:5228   */\n      dup2\n        /* \"#utility.yul\":5217:5229   */\n      mload\n        /* \"#utility.yul\":5207:5229   */\n      swap1\n      pop\n        /* \"#utility.yul\":5196:5236   */\n      swap2\n      swap1\n      pop\n      jump\t// out\n        /* \"#utility.yul\":5242:5389   */\n    tag_91:\n        /* \"#utility.yul\":5343:5354   */\n      0x00\n        /* \"#utility.yul\":5380:5383   */\n      dup2\n        /* \"#utility.yul\":5365:5383   */\n      swap1\n      pop\n        /* \"#utility.yul\":5355:5389   */\n      swap3\n      swap2\n      pop\n      pop\n      jump\t// out\n        /* \"#utility.yul\":5395:5564   */\n    tag_97:\n        /* \"#utility.yul\":5479:5490   */\n      0x00\n        /* \"#utility.yul\":5513:5519   */\n      dup3\n        /* \"#utility.yul\":5508:5511   */\n      dup3\n        /* \"#utility.yul\":5501:5520   */\n      mstore\n        /* \"#utility.yul\":5553:5557   */\n      0x20\n        /* \"#utility.yul\":5548:5551   */\n      dup3\n        /* \"#utility.yul\":5544:5558   */\n      add\n        /* \"#utility.yul\":5529:5558   */\n      swap1\n      pop\n        /* \"#utility.yul\":5491:5564   */\n      swap3\n      swap2\n      pop\n      pop\n      jump\t// out\n        /* \"#utility.yul\":5570:5761   */\n    tag_25:\n        /* \"#utility.yul\":5610:5614   */\n      0x00\n        /* \"#utility.yul\":5630:5650   */\n      tag_125\n        /* \"#utility.yul\":5648:5649   */\n      dup3\n        /* \"#utility.yul\":5630:5650   */\n      tag_108\n      jump\t// in\n    tag_125:\n        /* \"#utility.yul\":5625:5650   */\n      swap2\n      pop\n        /* \"#utility.yul\":5664:5684   */\n      tag_126\n        /* \"#utility.yul\":5682:5683   */\n      dup4\n        /* \"#utility.yul\":5664:5684   */\n      tag_108\n      jump\t// in\n    tag_126:\n        /* \"#utility.yul\":5659:5684   */\n      swap3\n      pop\n        /* \"#utility.yul\":5703:5704   */\n      dup3\n        /* \"#utility.yul\":5700:5701   */\n      dup3\n        /* \"#utility.yul\":5697:5705   */\n      lt\n        /* \"#utility.yul\":5694:5696   */\n      iszero\n      tag_127\n      jumpi\n        /* \"#utility.yul\":5708:5726   */\n      tag_128\n      tag_129\n      jump\t// in\n    tag_128:\n        /* \"#utility.yul\":5694:5696   */\n    tag_127:\n        /* \"#utility.yul\":5753:5754   */\n      dup3\n        /* \"#utility.yul\":5750:5751   */\n      dup3\n        /* \"#utility.yul\":5746:5755   */\n      sub\n        /* \"#utility.yul\":5738:5755   */\n      swap1\n      pop\n        /* \"#utility.yul\":5615:5761   */\n      swap3\n      swap2\n      pop\n      pop\n      jump\t// out\n        /* \"#utility.yul\":5767:5863   */\n    tag_85:\n        /* \"#utility.yul\":5804:5811   */\n      0x00\n        /* \"#utility.yul\":5833:5857   */\n      tag_131\n        /* \"#utility.yul\":5851:5856   */\n      dup3\n        /* \"#utility.yul\":5833:5857   */\n      tag_132\n      jump\t// in\n    tag_131:\n        /* \"#utility.yul\":5822:5857   */\n      swap1\n      pop\n        /* \"#utility.yul\":5812:5863   */\n      swap2\n      swap1\n      pop\n      jump\t// out\n        /* \"#utility.yul\":5869:5959   */\n    tag_133:\n        /* \"#utility.yul\":5903:5910   */\n      0x00\n        /* \"#utility.yul\":5946:5951   */\n      dup2\n        /* \"#utility.yul\":5939:5952   */\n      iszero\n        /* \"#utility.yul\":5932:5953   */\n      iszero\n        /* \"#utility.yul\":5921:5953   */\n      swap1\n      pop\n        /* \"#utility.yul\":5911:5959   */\n      swap2\n      swap1\n      pop\n      jump\t// out\n        /* \"#utility.yul\":5965:6091   */\n    tag_132:\n        /* \"#utility.yul\":6002:6009   */\n      0x00\n        /* \"#utility.yul\":6042:6084   */\n      0xffffffffffffffffffffffffffffffffffffffff\n        /* \"#utility.yul\":6035:6040   */\n      dup3\n        /* \"#utility.yul\":6031:6085   */\n      and\n        /* \"#utility.yul\":6020:6085   */\n      swap1\n      pop\n        /* \"#utility.yul\":6010:6091   */\n      swap2\n      swap1\n      pop\n      jump\t// out\n        /* \"#utility.yul\":6097:6174   */\n    tag_108:\n        /* \"#utility.yul\":6134:6141   */\n      0x00\n        /* \"#utility.yul\":6163:6168   */\n      dup2\n        /* \"#utility.yul\":6152:6168   */\n      swap1\n      pop\n        /* \"#utility.yul\":6142:6174   */\n      swap2\n      swap1\n      pop\n      jump\t// out\n        /* \"#utility.yul\":6180:6487   */\n    tag_93:\n        /* \"#utility.yul\":6248:6249   */\n      0x00\n        /* \"#utility.yul\":6258:6371   */\n    tag_138:\n        /* \"#utility.yul\":6272:6278   */\n      dup4\n        /* \"#utility.yul\":6269:6270   */\n      dup2\n        /* \"#utility.yul\":6266:6279   */\n      lt\n        /* \"#utility.yul\":6258:6371   */\n      iszero\n      tag_140\n      jumpi\n        /* \"#utility.yul\":6357:6358   */\n      dup1\n        /* \"#utility.yul\":6352:6355   */\n      dup3\n        /* \"#utility.yul\":6348:6359   */\n      add\n        /* \"#utility.yul\":6342:6360   */\n      mload\n        /* \"#utility.yul\":6338:6339   */\n      dup2\n        /* \"#utility.yul\":6333:6336   */\n      dup5\n        /* \"#utility.yul\":6329:6340   */\n      add\n        /* \"#utility.yul\":6322:6361   */\n      mstore\n        /* \"#utility.yul\":6294:6296   */\n      0x20\n        /* \"#utility.yul\":6291:6292   */\n      dup2\n        /* \"#utility.yul\":6287:6297   */\n      add\n        /* \"#utility.yul\":6282:6297   */\n      swap1\n      pop\n        /* \"#utility.yul\":6258:6371   */\n      jump(tag_138)\n    tag_140:\n        /* \"#utility.yul\":6389:6395   */\n      dup4\n        /* \"#utility.yul\":6386:6387   */\n      dup2\n        /* \"#utility.yul\":6383:6396   */\n      gt\n        /* \"#utility.yul\":6380:6382   */\n      iszero\n      tag_141\n      jumpi\n        /* \"#utility.yul\":6469:6470   */\n      0x00\n        /* \"#utility.yul\":6460:6466   */\n      dup5\n        /* \"#utility.yul\":6455:6458   */\n      dup5\n        /* \"#utility.yul\":6451:6467   */\n      add\n        /* \"#utility.yul\":6444:6471   */\n      mstore\n        /* \"#utility.yul\":6380:6382   */\n    tag_141:\n        /* \"#utility.yul\":6229:6487   */\n      pop\n      pop\n      pop\n      pop\n      jump\t// out\n        /* \"#utility.yul\":6493:6673   */\n    tag_129:\n        /* \"#utility.yul\":6541:6618   */\n      0x4e487b7100000000000000000000000000000000000000000000000000000000\n        /* \"#utility.yul\":6538:6539   */\n      0x00\n        /* \"#utility.yul\":6531:6619   */\n      mstore\n        /* \"#utility.yul\":6638:6642   */\n      0x11\n        /* \"#utility.yul\":6635:6636   */\n      0x04\n        /* \"#utility.yul\":6628:6643   */\n      mstore\n        /* \"#utility.yul\":6662:6666   */\n      0x24\n        /* \"#utility.yul\":6659:6660   */\n      0x00\n        /* \"#utility.yul\":6652:6667   */\n      revert\n        /* \"#utility.yul\":6679:6915   */\n    tag_99:\n        /* \"#utility.yul\":6819:6853   */\n      0x5472616e7366657248656c7065723a3a7472616e7366657246726f6d3a207472\n        /* \"#utility.yul\":6815:6816   */\n      0x00\n        /* \"#utility.yul\":6807:6813   */\n      dup3\n        /* \"#utility.yul\":6803:6817   */\n      add\n        /* \"#utility.yul\":6796:6854   */\n      mstore\n        /* \"#utility.yul\":6888:6907   */\n      0x616e7366657246726f6d206661696c6564000000000000000000000000000000\n        /* \"#utility.yul\":6883:6885   */\n      0x20\n        /* \"#utility.yul\":6875:6881   */\n      dup3\n        /* \"#utility.yul\":6871:6886   */\n      add\n        /* \"#utility.yul\":6864:6908   */\n      mstore\n        /* \"#utility.yul\":6785:6915   */\n      pop\n      jump\t// out\n        /* \"#utility.yul\":6921:7102   */\n    tag_104:\n        /* \"#utility.yul\":7061:7094   */\n      0x5265656e7472616e637947756172643a207265656e7472616e742063616c6c00\n        /* \"#utility.yul\":7057:7058   */\n      0x00\n        /* \"#utility.yul\":7049:7055   */\n      dup3\n        /* \"#utility.yul\":7045:7059   */\n      add\n        /* \"#utility.yul\":7038:7095   */\n      mstore\n        /* \"#utility.yul\":7027:7102   */\n      pop\n      jump\t// out\n        /* \"#utility.yul\":7108:7230   */\n    tag_58:\n        /* \"#utility.yul\":7181:7205   */\n      tag_146\n        /* \"#utility.yul\":7199:7204   */\n      dup2\n        /* \"#utility.yul\":7181:7205   */\n      tag_85\n      jump\t// in\n    tag_146:\n        /* \"#utility.yul\":7174:7179   */\n      dup2\n        /* \"#utility.yul\":7171:7206   */\n      eq\n        /* \"#utility.yul\":7161:7163   */\n      tag_147\n      jumpi\n        /* \"#utility.yul\":7220:7221   */\n      0x00\n        /* \"#utility.yul\":7217:7218   */\n      dup1\n        /* \"#utility.yul\":7210:7222   */\n      revert\n        /* \"#utility.yul\":7161:7163   */\n    tag_147:\n        /* \"#utility.yul\":7151:7230   */\n      pop\n      jump\t// out\n        /* \"#utility.yul\":7236:7352   */\n    tag_62:\n        /* \"#utility.yul\":7306:7327   */\n      tag_149\n        /* \"#utility.yul\":7321:7326   */\n      dup2\n        /* \"#utility.yul\":7306:7327   */\n      tag_133\n      jump\t// in\n    tag_149:\n        /* \"#utility.yul\":7299:7304   */\n      dup2\n        /* \"#utility.yul\":7296:7328   */\n      eq\n        /* \"#utility.yul\":7286:7288   */\n      tag_150\n      jumpi\n        /* \"#utility.yul\":7342:7343   */\n      0x00\n        /* \"#utility.yul\":7339:7340   */\n      dup1\n        /* \"#utility.yul\":7332:7344   */\n      revert\n        /* \"#utility.yul\":7286:7288   */\n    tag_150:\n        /* \"#utility.yul\":7276:7352   */\n      pop\n      jump\t// out\n        /* \"#utility.yul\":7358:7480   */\n    tag_66:\n        /* \"#utility.yul\":7431:7455   */\n      tag_152\n        /* \"#utility.yul\":7449:7454   */\n      dup2\n        /* \"#utility.yul\":7431:7455   */\n      tag_108\n      jump\t// in\n    tag_152:\n        /* \"#utility.yul\":7424:7429   */\n      dup2\n        /* \"#utility.yul\":7421:7456   */\n      eq\n        /* \"#utility.yul\":7411:7413   */\n      tag_153\n      jumpi\n        /* \"#utility.yul\":7470:7471   */\n      0x00\n        /* \"#utility.yul\":7467:7468   */\n      dup1\n        /* \"#utility.yul\":7460:7472   */\n      revert\n        /* \"#utility.yul\":7411:7413   */\n    tag_153:\n        /* \"#utility.yul\":7401:7480   */\n      pop\n      jump\t// out\n\n    auxdata: 0xa264697066735822122009291c7a48e72bbd9c2be89ae73d9c864aeaeced0a273d428a6e32296839cc1f64736f6c63430008040033\n}\n",
				"bytecode": {
					"linkReferences": {},
					"object": "608060405234801561001057600080fd5b50600160008190555061079b806100286000396000f3fe60806040526004361061003f5760003560e01c80634329db4614610044578063861faf5f14610060578063d0387e371461006a578063f8b2cb4f14610086575b600080fd5b61005e6004803603810190610059919061043c565b6100c3565b005b610068610118565b005b610084600480360381019061007f91906103b0565b610161565b005b34801561009257600080fd5b506100ad60048036038101906100a89190610387565b6101ee565b6040516100ba9190610588565b60405180910390f35b3373ffffffffffffffffffffffffffffffffffffffff166108fc82346100e991906105ca565b9081150290604051600060405180830381858888f19350505050158015610114573d6000803e3d6000fd5b5050565b3373ffffffffffffffffffffffffffffffffffffffff166108fc479081150290604051600060405180830381858888f1935050505015801561015e573d6000803e3d6000fd5b50565b600260005414156101a7576040517f08c379a000000000000000000000000000000000000000000000000000000000815260040161019e90610568565b60405180910390fd5b60026000819055506101e0600160000160009054906101000a900473ffffffffffffffffffffffffffffffffffffffff1633308461020f565b600160008190555050505050565b60008173ffffffffffffffffffffffffffffffffffffffff16319050919050565b6000808573ffffffffffffffffffffffffffffffffffffffff166323b872dd86868660405160240161024393929190610511565b6040516020818303038152906040529060e01b6020820180517bffffffffffffffffffffffffffffffffffffffffffffffffffffffff838183161783525050505060405161029191906104fa565b6000604051808303816000865af19150503d80600081146102ce576040519150601f19603f3d011682016040523d82523d6000602084013e6102d3565b606091505b509150915081801561030157506000815114806103005750808060200190518101906102ff9190610413565b5b5b610340576040517f08c379a000000000000000000000000000000000000000000000000000000000815260040161033790610548565b60405180910390fd5b505050505050565b60008135905061035781610720565b92915050565b60008151905061036c81610737565b92915050565b6000813590506103818161074e565b92915050565b60006020828403121561039957600080fd5b60006103a784828501610348565b91505092915050565b600080600080608085870312156103c657600080fd5b60006103d487828801610348565b94505060206103e587828801610348565b93505060406103f687828801610348565b925050606061040787828801610372565b91505092959194509250565b60006020828403121561042557600080fd5b60006104338482850161035d565b91505092915050565b60006020828403121561044e57600080fd5b600061045c84828501610372565b91505092915050565b61046e816105fe565b82525050565b600061047f826105a3565b61048981856105ae565b9350610499818560208601610646565b80840191505092915050565b60006104b26031836105b9565b91506104bd826106a8565b604082019050919050565b60006104d5601f836105b9565b91506104e0826106f7565b602082019050919050565b6104f48161063c565b82525050565b60006105068284610474565b915081905092915050565b60006060820190506105266000830186610465565b6105336020830185610465565b61054060408301846104eb565b949350505050565b60006020820190508181036000830152610561816104a5565b9050919050565b60006020820190508181036000830152610581816104c8565b9050919050565b600060208201905061059d60008301846104eb565b92915050565b600081519050919050565b600081905092915050565b600082825260208201905092915050565b60006105d58261063c565b91506105e08361063c565b9250828210156105f3576105f2610679565b5b828203905092915050565b60006106098261061c565b9050919050565b60008115159050919050565b600073ffffffffffffffffffffffffffffffffffffffff82169050919050565b6000819050919050565b60005b83811015610664578082015181840152602081019050610649565b83811115610673576000848401525b50505050565b7f4e487b7100000000000000000000000000000000000000000000000000000000600052601160045260246000fd5b7f5472616e7366657248656c7065723a3a7472616e7366657246726f6d3a20747260008201527f616e7366657246726f6d206661696c6564000000000000000000000000000000602082015250565b7f5265656e7472616e637947756172643a207265656e7472616e742063616c6c00600082015250565b610729816105fe565b811461073457600080fd5b50565b61074081610610565b811461074b57600080fd5b50565b6107578161063c565b811461076257600080fd5b5056fea264697066735822122009291c7a48e72bbd9c2be89ae73d9c864aeaeced0a273d428a6e32296839cc1f64736f6c63430008040033",
					"opcodes": "PUSH1 0x80 PUSH1 0x40 MSTORE CALLVALUE DUP1 ISZERO PUSH2 0x10 JUMPI PUSH1 0x0 DUP1 REVERT JUMPDEST POP PUSH1 0x1 PUSH1 0x0 DUP2 SWAP1 SSTORE POP PUSH2 0x79B DUP1 PUSH2 0x28 PUSH1 0x0 CODECOPY PUSH1 0x0 RETURN INVALID PUSH1 0x80 PUSH1 0x40 MSTORE PUSH1 0x4 CALLDATASIZE LT PUSH2 0x3F JUMPI PUSH1 0x0 CALLDATALOAD PUSH1 0xE0 SHR DUP1 PUSH4 0x4329DB46 EQ PUSH2 0x44 JUMPI DUP1 PUSH4 0x861FAF5F EQ PUSH2 0x60 JUMPI DUP1 PUSH4 0xD0387E37 EQ PUSH2 0x6A JUMPI DUP1 PUSH4 0xF8B2CB4F EQ PUSH2 0x86 JUMPI JUMPDEST PUSH1 0x0 DUP1 REVERT JUMPDEST PUSH2 0x5E PUSH1 0x4 DUP1 CALLDATASIZE SUB DUP2 ADD SWAP1 PUSH2 0x59 SWAP2 SWAP1 PUSH2 0x43C JUMP JUMPDEST PUSH2 0xC3 JUMP JUMPDEST STOP JUMPDEST PUSH2 0x68 PUSH2 0x118 JUMP JUMPDEST STOP JUMPDEST PUSH2 0x84 PUSH1 0x4 DUP1 CALLDATASIZE SUB DUP2 ADD SWAP1 PUSH2 0x7F SWAP2 SWAP1 PUSH2 0x3B0 JUMP JUMPDEST PUSH2 0x161 JUMP JUMPDEST STOP JUMPDEST CALLVALUE DUP1 ISZERO PUSH2 0x92 JUMPI PUSH1 0x0 DUP1 REVERT JUMPDEST POP PUSH2 0xAD PUSH1 0x4 DUP1 CALLDATASIZE SUB DUP2 ADD SWAP1 PUSH2 0xA8 SWAP2 SWAP1 PUSH2 0x387 JUMP JUMPDEST PUSH2 0x1EE JUMP JUMPDEST PUSH1 0x40 MLOAD PUSH2 0xBA SWAP2 SWAP1 PUSH2 0x588 JUMP JUMPDEST PUSH1 0x40 MLOAD DUP1 SWAP2 SUB SWAP1 RETURN JUMPDEST CALLER PUSH20 0xFFFFFFFFFFFFFFFFFFFFFFFFFFFFFFFFFFFFFFFF AND PUSH2 0x8FC DUP3 CALLVALUE PUSH2 0xE9 SWAP2 SWAP1 PUSH2 0x5CA JUMP JUMPDEST SWAP1 DUP2 ISZERO MUL SWAP1 PUSH1 0x40 MLOAD PUSH1 0x0 PUSH1 0x40 MLOAD DUP1 DUP4 SUB DUP2 DUP6 DUP9 DUP9 CALL SWAP4 POP POP POP POP ISZERO DUP1 ISZERO PUSH2 0x114 JUMPI RETURNDATASIZE PUSH1 0x0 DUP1 RETURNDATACOPY RETURNDATASIZE PUSH1 0x0 REVERT JUMPDEST POP POP JUMP JUMPDEST CALLER PUSH20 0xFFFFFFFFFFFFFFFFFFFFFFFFFFFFFFFFFFFFFFFF AND PUSH2 0x8FC SELFBALANCE SWAP1 DUP2 ISZERO MUL SWAP1 PUSH1 0x40 MLOAD PUSH1 0x0 PUSH1 0x40 MLOAD DUP1 DUP4 SUB DUP2 DUP6 DUP9 DUP9 CALL SWAP4 POP POP POP POP ISZERO DUP1 ISZERO PUSH2 0x15E JUMPI RETURNDATASIZE PUSH1 0x0 DUP1 RETURNDATACOPY RETURNDATASIZE PUSH1 0x0 REVERT JUMPDEST POP JUMP JUMPDEST PUSH1 0x2 PUSH1 0x0 SLOAD EQ ISZERO PUSH2 0x1A7 JUMPI PUSH1 0x40 MLOAD PUSH32 0x8C379A000000000000000000000000000000000000000000000000000000000 DUP2 MSTORE PUSH1 0x4 ADD PUSH2 0x19E SWAP1 PUSH2 0x568 JUMP JUMPDEST PUSH1 0x40 MLOAD DUP1 SWAP2 SUB SWAP1 REVERT JUMPDEST PUSH1 0x2 PUSH1 0x0 DUP2 SWAP1 SSTORE POP PUSH2 0x1E0 PUSH1 0x1 PUSH1 0x0 ADD PUSH1 0x0 SWAP1 SLOAD SWAP1 PUSH2 0x100 EXP SWAP1 DIV PUSH20 0xFFFFFFFFFFFFFFFFFFFFFFFFFFFFFFFFFFFFFFFF AND CALLER ADDRESS DUP5 PUSH2 0x20F JUMP JUMPDEST PUSH1 0x1 PUSH1 0x0 DUP2 SWAP1 SSTORE POP POP POP POP POP JUMP JUMPDEST PUSH1 0x0 DUP2 PUSH20 0xFFFFFFFFFFFFFFFFFFFFFFFFFFFFFFFFFFFFFFFF AND BALANCE SWAP1 POP SWAP2 SWAP1 POP JUMP JUMPDEST PUSH1 0x0 DUP1 DUP6 PUSH20 0xFFFFFFFFFFFFFFFFFFFFFFFFFFFFFFFFFFFFFFFF AND PUSH4 0x23B872DD DUP7 DUP7 DUP7 PUSH1 0x40 MLOAD PUSH1 0x24 ADD PUSH2 0x243 SWAP4 SWAP3 SWAP2 SWAP1 PUSH2 0x511 JUMP JUMPDEST PUSH1 0x40 MLOAD PUSH1 0x20 DUP2 DUP4 SUB SUB DUP2 MSTORE SWAP1 PUSH1 0x40 MSTORE SWAP1 PUSH1 0xE0 SHL PUSH1 0x20 DUP3 ADD DUP1 MLOAD PUSH28 0xFFFFFFFFFFFFFFFFFFFFFFFFFFFFFFFFFFFFFFFFFFFFFFFFFFFFFFFF DUP4 DUP2 DUP4 AND OR DUP4 MSTORE POP POP POP POP PUSH1 0x40 MLOAD PUSH2 0x291 SWAP2 SWAP1 PUSH2 0x4FA JUMP JUMPDEST PUSH1 0x0 PUSH1 0x40 MLOAD DUP1 DUP4 SUB DUP2 PUSH1 0x0 DUP7 GAS CALL SWAP2 POP POP RETURNDATASIZE DUP1 PUSH1 0x0 DUP2 EQ PUSH2 0x2CE JUMPI PUSH1 0x40 MLOAD SWAP2 POP PUSH1 0x1F NOT PUSH1 0x3F RETURNDATASIZE ADD AND DUP3 ADD PUSH1 0x40 MSTORE RETURNDATASIZE DUP3 MSTORE RETURNDATASIZE PUSH1 0x0 PUSH1 0x20 DUP5 ADD RETURNDATACOPY PUSH2 0x2D3 JUMP JUMPDEST PUSH1 0x60 SWAP2 POP JUMPDEST POP SWAP2 POP SWAP2 POP DUP2 DUP1 ISZERO PUSH2 0x301 JUMPI POP PUSH1 0x0 DUP2 MLOAD EQ DUP1 PUSH2 0x300 JUMPI POP DUP1 DUP1 PUSH1 0x20 ADD SWAP1 MLOAD DUP2 ADD SWAP1 PUSH2 0x2FF SWAP2 SWAP1 PUSH2 0x413 JUMP JUMPDEST JUMPDEST JUMPDEST PUSH2 0x340 JUMPI PUSH1 0x40 MLOAD PUSH32 0x8C379A000000000000000000000000000000000000000000000000000000000 DUP2 MSTORE PUSH1 0x4 ADD PUSH2 0x337 SWAP1 PUSH2 0x548 JUMP JUMPDEST PUSH1 0x40 MLOAD DUP1 SWAP2 SUB SWAP1 REVERT JUMPDEST POP POP POP POP POP POP JUMP JUMPDEST PUSH1 0x0 DUP2 CALLDATALOAD SWAP1 POP PUSH2 0x357 DUP2 PUSH2 0x720 JUMP JUMPDEST SWAP3 SWAP2 POP POP JUMP JUMPDEST PUSH1 0x0 DUP2 MLOAD SWAP1 POP PUSH2 0x36C DUP2 PUSH2 0x737 JUMP JUMPDEST SWAP3 SWAP2 POP POP JUMP JUMPDEST PUSH1 0x0 DUP2 CALLDATALOAD SWAP1 POP PUSH2 0x381 DUP2 PUSH2 0x74E JUMP JUMPDEST SWAP3 SWAP2 POP POP JUMP JUMPDEST PUSH1 0x0 PUSH1 0x20 DUP3 DUP5 SUB SLT ISZERO PUSH2 0x399 JUMPI PUSH1 0x0 DUP1 REVERT JUMPDEST PUSH1 0x0 PUSH2 0x3A7 DUP5 DUP3 DUP6 ADD PUSH2 0x348 JUMP JUMPDEST SWAP2 POP POP SWAP3 SWAP2 POP POP JUMP JUMPDEST PUSH1 0x0 DUP1 PUSH1 0x0 DUP1 PUSH1 0x80 DUP6 DUP8 SUB SLT ISZERO PUSH2 0x3C6 JUMPI PUSH1 0x0 DUP1 REVERT JUMPDEST PUSH1 0x0 PUSH2 0x3D4 DUP8 DUP3 DUP9 ADD PUSH2 0x348 JUMP JUMPDEST SWAP5 POP POP PUSH1 0x20 PUSH2 0x3E5 DUP8 DUP3 DUP9 ADD PUSH2 0x348 JUMP JUMPDEST SWAP4 POP POP PUSH1 0x40 PUSH2 0x3F6 DUP8 DUP3 DUP9 ADD PUSH2 0x348 JUMP JUMPDEST SWAP3 POP POP PUSH1 0x60 PUSH2 0x407 DUP8 DUP3 DUP9 ADD PUSH2 0x372 JUMP JUMPDEST SWAP2 POP POP SWAP3 SWAP6 SWAP2 SWAP5 POP SWAP3 POP JUMP JUMPDEST PUSH1 0x0 PUSH1 0x20 DUP3 DUP5 SUB SLT ISZERO PUSH2 0x425 JUMPI PUSH1 0x0 DUP1 REVERT JUMPDEST PUSH1 0x0 PUSH2 0x433 DUP5 DUP3 DUP6 ADD PUSH2 0x35D JUMP JUMPDEST SWAP2 POP POP SWAP3 SWAP2 POP POP JUMP JUMPDEST PUSH1 0x0 PUSH1 0x20 DUP3 DUP5 SUB SLT ISZERO PUSH2 0x44E JUMPI PUSH1 0x0 DUP1 REVERT JUMPDEST PUSH1 0x0 PUSH2 0x45C DUP5 DUP3 DUP6 ADD PUSH2 0x372 JUMP JUMPDEST SWAP2 POP POP SWAP3 SWAP2 POP POP JUMP JUMPDEST PUSH2 0x46E DUP2 PUSH2 0x5FE JUMP JUMPDEST DUP3 MSTORE POP POP JUMP JUMPDEST PUSH1 0x0 PUSH2 0x47F DUP3 PUSH2 0x5A3 JUMP JUMPDEST PUSH2 0x489 DUP2 DUP6 PUSH2 0x5AE JUMP JUMPDEST SWAP4 POP PUSH2 0x499 DUP2 DUP6 PUSH1 0x20 DUP7 ADD PUSH2 0x646 JUMP JUMPDEST DUP1 DUP5 ADD SWAP2 POP POP SWAP3 SWAP2 POP POP JUMP JUMPDEST PUSH1 0x0 PUSH2 0x4B2 PUSH1 0x31 DUP4 PUSH2 0x5B9 JUMP JUMPDEST SWAP2 POP PUSH2 0x4BD DUP3 PUSH2 0x6A8 JUMP JUMPDEST PUSH1 0x40 DUP3 ADD SWAP1 POP SWAP2 SWAP1 POP JUMP JUMPDEST PUSH1 0x0 PUSH2 0x4D5 PUSH1 0x1F DUP4 PUSH2 0x5B9 JUMP JUMPDEST SWAP2 POP PUSH2 0x4E0 DUP3 PUSH2 0x6F7 JUMP JUMPDEST PUSH1 0x20 DUP3 ADD SWAP1 POP SWAP2 SWAP1 POP JUMP JUMPDEST PUSH2 0x4F4 DUP2 PUSH2 0x63C JUMP JUMPDEST DUP3 MSTORE POP POP JUMP JUMPDEST PUSH1 0x0 PUSH2 0x506 DUP3 DUP5 PUSH2 0x474 JUMP JUMPDEST SWAP2 POP DUP2 SWAP1 POP SWAP3 SWAP2 POP POP JUMP JUMPDEST PUSH1 0x0 PUSH1 0x60 DUP3 ADD SWAP1 POP PUSH2 0x526 PUSH1 0x0 DUP4 ADD DUP7 PUSH2 0x465 JUMP JUMPDEST PUSH2 0x533 PUSH1 0x20 DUP4 ADD DUP6 PUSH2 0x465 JUMP JUMPDEST PUSH2 0x540 PUSH1 0x40 DUP4 ADD DUP5 PUSH2 0x4EB JUMP JUMPDEST SWAP5 SWAP4 POP POP POP POP JUMP JUMPDEST PUSH1 0x0 PUSH1 0x20 DUP3 ADD SWAP1 POP DUP2 DUP2 SUB PUSH1 0x0 DUP4 ADD MSTORE PUSH2 0x561 DUP2 PUSH2 0x4A5 JUMP JUMPDEST SWAP1 POP SWAP2 SWAP1 POP JUMP JUMPDEST PUSH1 0x0 PUSH1 0x20 DUP3 ADD SWAP1 POP DUP2 DUP2 SUB PUSH1 0x0 DUP4 ADD MSTORE PUSH2 0x581 DUP2 PUSH2 0x4C8 JUMP JUMPDEST SWAP1 POP SWAP2 SWAP1 POP JUMP JUMPDEST PUSH1 0x0 PUSH1 0x20 DUP3 ADD SWAP1 POP PUSH2 0x59D PUSH1 0x0 DUP4 ADD DUP5 PUSH2 0x4EB JUMP JUMPDEST SWAP3 SWAP2 POP POP JUMP JUMPDEST PUSH1 0x0 DUP2 MLOAD SWAP1 POP SWAP2 SWAP1 POP JUMP JUMPDEST PUSH1 0x0 DUP2 SWAP1 POP SWAP3 SWAP2 POP POP JUMP JUMPDEST PUSH1 0x0 DUP3 DUP3 MSTORE PUSH1 0x20 DUP3 ADD SWAP1 POP SWAP3 SWAP2 POP POP JUMP JUMPDEST PUSH1 0x0 PUSH2 0x5D5 DUP3 PUSH2 0x63C JUMP JUMPDEST SWAP2 POP PUSH2 0x5E0 DUP4 PUSH2 0x63C JUMP JUMPDEST SWAP3 POP DUP3 DUP3 LT ISZERO PUSH2 0x5F3 JUMPI PUSH2 0x5F2 PUSH2 0x679 JUMP JUMPDEST JUMPDEST DUP3 DUP3 SUB SWAP1 POP SWAP3 SWAP2 POP POP JUMP JUMPDEST PUSH1 0x0 PUSH2 0x609 DUP3 PUSH2 0x61C JUMP JUMPDEST SWAP1 POP SWAP2 SWAP1 POP JUMP JUMPDEST PUSH1 0x0 DUP2 ISZERO ISZERO SWAP1 POP SWAP2 SWAP1 POP JUMP JUMPDEST PUSH1 0x0 PUSH20 0xFFFFFFFFFFFFFFFFFFFFFFFFFFFFFFFFFFFFFFFF DUP3 AND SWAP1 POP SWAP2 SWAP1 POP JUMP JUMPDEST PUSH1 0x0 DUP2 SWAP1 POP SWAP2 SWAP1 POP JUMP JUMPDEST PUSH1 0x0 JUMPDEST DUP4 DUP2 LT ISZERO PUSH2 0x664 JUMPI DUP1 DUP3 ADD MLOAD DUP2 DUP5 ADD MSTORE PUSH1 0x20 DUP2 ADD SWAP1 POP PUSH2 0x649 JUMP JUMPDEST DUP4 DUP2 GT ISZERO PUSH2 0x673 JUMPI PUSH1 0x0 DUP5 DUP5 ADD MSTORE JUMPDEST POP POP POP POP JUMP JUMPDEST PUSH32 0x4E487B7100000000000000000000000000000000000000000000000000000000 PUSH1 0x0 MSTORE PUSH1 0x11 PUSH1 0x4 MSTORE PUSH1 0x24 PUSH1 0x0 REVERT JUMPDEST PUSH32 0x5472616E7366657248656C7065723A3A7472616E7366657246726F6D3A207472 PUSH1 0x0 DUP3 ADD MSTORE PUSH32 0x616E7366657246726F6D206661696C6564000000000000000000000000000000 PUSH1 0x20 DUP3 ADD MSTORE POP JUMP JUMPDEST PUSH32 0x5265656E7472616E637947756172643A207265656E7472616E742063616C6C00 PUSH1 0x0 DUP3 ADD MSTORE POP JUMP JUMPDEST PUSH2 0x729 DUP2 PUSH2 0x5FE JUMP JUMPDEST DUP2 EQ PUSH2 0x734 JUMPI PUSH1 0x0 DUP1 REVERT JUMPDEST POP JUMP JUMPDEST PUSH2 0x740 DUP2 PUSH2 0x610 JUMP JUMPDEST DUP2 EQ PUSH2 0x74B JUMPI PUSH1 0x0 DUP1 REVERT JUMPDEST POP JUMP JUMPDEST PUSH2 0x757 DUP2 PUSH2 0x63C JUMP JUMPDEST DUP2 EQ PUSH2 0x762 JUMPI PUSH1 0x0 DUP1 REVERT JUMPDEST POP JUMP INVALID LOG2 PUSH5 0x6970667358 0x22 SLT KECCAK256 MULMOD 0x29 SHR PUSH27 0x48E72BBD9C2BE89AE73D9C864AEAECED0A273D428A6E32296839CC 0x1F PUSH5 0x736F6C6343 STOP ADDMOD DIV STOP CALLER "
				},
				"gasEstimates": {
					"creation": {
						"codeDepositCost": "389400",
						"executionCost": "20438",
						"totalCost": "409838"
					},
					"external": {
						"backToken()": "infinite",
						"depodit(address,address,address,uint256)": "infinite",
						"getBalance(address)": "1401",
						"transferETH(uint256)": "infinite"
					}
				},
				"methodIdentifiers": {
					"backToken()": "861faf5f",
					"depodit(address,address,address,uint256)": "d0387e37",
					"getBalance(address)": "f8b2cb4f",
					"transferETH(uint256)": "4329db46"
				}
			},
			"storageLayout": {
				"storage": [
					{
						"astId": 180,
						"contract": "Ethereum/Presale.sol:Presale",
						"label": "_status",
						"offset": 0,
						"slot": "0",
						"type": "t_uint256"
					},
					{
						"astId": 122,
						"contract": "Ethereum/Presale.sol:Presale",
						"label": "PRESALE_INFO",
						"offset": 0,
						"slot": "1",
						"type": "t_struct(PresaleInfo)88_storage"
					}
				],
				"types": {
					"t_contract(IERC20)77": {
						"encoding": "inplace",
						"label": "contract IERC20",
						"numberOfBytes": "20"
					},
					"t_struct(PresaleInfo)88_storage": {
						"encoding": "inplace",
						"label": "struct Presale.PresaleInfo",
						"members": [
							{
								"astId": 87,
								"contract": "Ethereum/Presale.sol:Presale",
								"label": "B_TOKEN",
								"offset": 0,
								"slot": "0",
								"type": "t_contract(IERC20)77"
							}
						],
						"numberOfBytes": "32"
					},
					"t_uint256": {
						"encoding": "inplace",
						"label": "uint256",
						"numberOfBytes": "32"
					}
				}
			},
			"userdoc": {
				"kind": "user",
				"methods": {},
				"version": 1
			}
		}
	}
}