{
	"Ethereum/Presale.sol": {
		"Presale": {
			"abi": [
				{
					"inputs": [
						{
							"internalType": "address",
							"name": "to",
							"type": "address"
						},
						{
							"internalType": "uint256",
							"name": "value",
							"type": "uint256"
						}
					],
					"name": "depodit",
					"outputs": [],
					"stateMutability": "payable",
					"type": "function"
				}
			],
			"devdoc": {
				"kind": "dev",
				"methods": {},
				"version": 1
			},
			"evm": {
				"assembly": "    /* \"Ethereum/Presale.sol\":232:3031  contract Presale is ReentrancyGuard{\r... */\n  mstore(0x40, 0x80)\n  callvalue\n  dup1\n  iszero\n  tag_1\n  jumpi\n  0x00\n  dup1\n  revert\ntag_1:\n  pop\n    /* \"Utils/ReentrancyGuard.sol\":1734:1735  1 */\n  0x01\n    /* \"Utils/ReentrancyGuard.sol\":1845:1852  _status */\n  0x00\n    /* \"Utils/ReentrancyGuard.sol\":1845:1867  _status = _NOT_ENTERED */\n  dup2\n  swap1\n  sstore\n  pop\n    /* \"Ethereum/Presale.sol\":232:3031  contract Presale is ReentrancyGuard{\r... */\n  dataSize(sub_0)\n  dup1\n  dataOffset(sub_0)\n  0x00\n  codecopy\n  0x00\n  return\nstop\n\nsub_0: assembly {\n        /* \"Ethereum/Presale.sol\":232:3031  contract Presale is ReentrancyGuard{\r... */\n      mstore(0x40, 0x80)\n      jumpi(tag_1, lt(calldatasize, 0x04))\n      shr(0xe0, calldataload(0x00))\n      dup1\n      0x938b667b\n      eq\n      tag_2\n      jumpi\n    tag_1:\n      0x00\n      dup1\n      revert\n        /* \"Ethereum/Presale.sol\":2583:2717  function depodit(address to, uint256 value) external payable nonReentrant {\r... */\n    tag_2:\n      tag_3\n      0x04\n      dup1\n      calldatasize\n      sub\n      dup2\n      add\n      swap1\n      tag_4\n      swap2\n      swap1\n      tag_5\n      jump\t// in\n    tag_4:\n      tag_6\n      jump\t// in\n    tag_3:\n      stop\n    tag_6:\n        /* \"Utils/ReentrancyGuard.sol\":1778:1779  2 */\n      0x02\n        /* \"Utils/ReentrancyGuard.sol\":2376:2383  _status */\n      sload(0x00)\n        /* \"Utils/ReentrancyGuard.sol\":2376:2395  _status != _ENTERED */\n      eq\n      iszero\n        /* \"Utils/ReentrancyGuard.sol\":2368:2431  require(_status != _ENTERED, \"ReentrancyGuard: reentrant call\") */\n      tag_8\n      jumpi\n      mload(0x40)\n      0x08c379a000000000000000000000000000000000000000000000000000000000\n      dup2\n      mstore\n      0x04\n      add\n      tag_9\n      swap1\n      tag_10\n      jump\t// in\n    tag_9:\n      mload(0x40)\n      dup1\n      swap2\n      sub\n      swap1\n      revert\n    tag_8:\n        /* \"Utils/ReentrancyGuard.sol\":1778:1779  2 */\n      0x02\n        /* \"Utils/ReentrancyGuard.sol\":2509:2516  _status */\n      0x00\n        /* \"Utils/ReentrancyGuard.sol\":2509:2527  _status = _ENTERED */\n      dup2\n      swap1\n      sstore\n      pop\n        /* \"Ethereum/Presale.sol\":2668:2709  TransferHelper.safeTransferETH(to, value) */\n      tag_12\n        /* \"Ethereum/Presale.sol\":2699:2701  to */\n      dup3\n        /* \"Ethereum/Presale.sol\":2703:2708  value */\n      dup3\n        /* \"Ethereum/Presale.sol\":2668:2698  TransferHelper.safeTransferETH */\n      tag_13\n        /* \"Ethereum/Presale.sol\":2668:2709  TransferHelper.safeTransferETH(to, value) */\n      jump\t// in\n    tag_12:\n        /* \"Utils/ReentrancyGuard.sol\":1734:1735  1 */\n      0x01\n        /* \"Utils/ReentrancyGuard.sol\":2688:2695  _status */\n      0x00\n        /* \"Utils/ReentrancyGuard.sol\":2688:2710  _status = _NOT_ENTERED */\n      dup2\n      swap1\n      sstore\n      pop\n        /* \"Ethereum/Presale.sol\":2583:2717  function depodit(address to, uint256 value) external payable nonReentrant {\r... */\n      pop\n      pop\n      jump\t// out\n        /* \"Utils/TransferHelper.sol\":1658:1875  function safeTransferETH(address to, uint256 value) internal {\r... */\n    tag_13:\n        /* \"Utils/TransferHelper.sol\":1731:1743  bool success */\n      0x00\n        /* \"Utils/TransferHelper.sol\":1749:1751  to */\n      dup3\n        /* \"Utils/TransferHelper.sol\":1749:1756  to.call */\n      0xffffffffffffffffffffffffffffffffffffffff\n      and\n        /* \"Utils/TransferHelper.sol\":1764:1769  value */\n      dup3\n        /* \"Utils/TransferHelper.sol\":1781:1782  0 */\n      0x00\n        /* \"Utils/TransferHelper.sol\":1771:1783  new bytes(0) */\n      0xffffffffffffffff\n      dup2\n      gt\n      iszero\n      tag_15\n      jumpi\n      mstore(0x00, 0x4e487b7100000000000000000000000000000000000000000000000000000000)\n      mstore(0x04, 0x41)\n      revert(0x00, 0x24)\n    tag_15:\n      mload(0x40)\n      swap1\n      dup1\n      dup3\n      mstore\n      dup1\n      0x1f\n      add\n      not(0x1f)\n      and\n      0x20\n      add\n      dup3\n      add\n      0x40\n      mstore\n      dup1\n      iszero\n      tag_16\n      jumpi\n      dup2\n      0x20\n      add\n      0x01\n      dup3\n      mul\n      dup1\n      calldatasize\n      dup4\n      calldatacopy\n      dup1\n      dup3\n      add\n      swap2\n      pop\n      pop\n      swap1\n      pop\n    tag_16:\n      pop\n        /* \"Utils/TransferHelper.sol\":1749:1784  to.call{value: value}(new bytes(0)) */\n      mload(0x40)\n      tag_17\n      swap2\n      swap1\n      tag_18\n      jump\t// in\n    tag_17:\n      0x00\n      mload(0x40)\n      dup1\n      dup4\n      sub\n      dup2\n      dup6\n      dup8\n      gas\n      call\n      swap3\n      pop\n      pop\n      pop\n      returndatasize\n      dup1\n      0x00\n      dup2\n      eq\n      tag_21\n      jumpi\n      mload(0x40)\n      swap2\n      pop\n      and(add(returndatasize, 0x3f), not(0x1f))\n      dup3\n      add\n      0x40\n      mstore\n      returndatasize\n      dup3\n      mstore\n      returndatasize\n      0x00\n      0x20\n      dup5\n      add\n      returndatacopy\n      jump(tag_20)\n    tag_21:\n      0x60\n      swap2\n      pop\n    tag_20:\n      pop\n        /* \"Utils/TransferHelper.sol\":1730:1784  (bool success, ) = to.call{value: value}(new bytes(0)) */\n      pop\n      swap1\n      pop\n        /* \"Utils/TransferHelper.sol\":1803:1810  success */\n      dup1\n        /* \"Utils/TransferHelper.sol\":1795:1867  require(success, \"TransferHelper::safeTransferETH: ETH transfer failed\") */\n      tag_22\n      jumpi\n      mload(0x40)\n      0x08c379a000000000000000000000000000000000000000000000000000000000\n      dup2\n      mstore\n      0x04\n      add\n      tag_23\n      swap1\n      tag_24\n      jump\t// in\n    tag_23:\n      mload(0x40)\n      dup1\n      swap2\n      sub\n      swap1\n      revert\n    tag_22:\n        /* \"Utils/TransferHelper.sol\":1658:1875  function safeTransferETH(address to, uint256 value) internal {\r... */\n      pop\n      pop\n      pop\n      jump\t// out\n        /* \"#utility.yul\":7:146   */\n    tag_26:\n        /* \"#utility.yul\":53:58   */\n      0x00\n        /* \"#utility.yul\":91:97   */\n      dup2\n        /* \"#utility.yul\":78:98   */\n      calldataload\n        /* \"#utility.yul\":69:98   */\n      swap1\n      pop\n        /* \"#utility.yul\":107:140   */\n      tag_28\n        /* \"#utility.yul\":134:139   */\n      dup2\n        /* \"#utility.yul\":107:140   */\n      tag_29\n      jump\t// in\n    tag_28:\n        /* \"#utility.yul\":59:146   */\n      swap3\n      swap2\n      pop\n      pop\n      jump\t// out\n        /* \"#utility.yul\":152:291   */\n    tag_30:\n        /* \"#utility.yul\":198:203   */\n      0x00\n        /* \"#utility.yul\":236:242   */\n      dup2\n        /* \"#utility.yul\":223:243   */\n      calldataload\n        /* \"#utility.yul\":214:243   */\n      swap1\n      pop\n        /* \"#utility.yul\":252:285   */\n      tag_32\n        /* \"#utility.yul\":279:284   */\n      dup2\n        /* \"#utility.yul\":252:285   */\n      tag_33\n      jump\t// in\n    tag_32:\n        /* \"#utility.yul\":204:291   */\n      swap3\n      swap2\n      pop\n      pop\n      jump\t// out\n        /* \"#utility.yul\":297:704   */\n    tag_5:\n        /* \"#utility.yul\":365:371   */\n      0x00\n        /* \"#utility.yul\":373:379   */\n      dup1\n        /* \"#utility.yul\":422:424   */\n      0x40\n        /* \"#utility.yul\":410:419   */\n      dup4\n        /* \"#utility.yul\":401:408   */\n      dup6\n        /* \"#utility.yul\":397:420   */\n      sub\n        /* \"#utility.yul\":393:425   */\n      slt\n        /* \"#utility.yul\":390:392   */\n      iszero\n      tag_35\n      jumpi\n        /* \"#utility.yul\":438:439   */\n      0x00\n        /* \"#utility.yul\":435:436   */\n      dup1\n        /* \"#utility.yul\":428:440   */\n      revert\n        /* \"#utility.yul\":390:392   */\n    tag_35:\n        /* \"#utility.yul\":481:482   */\n      0x00\n        /* \"#utility.yul\":506:559   */\n      tag_36\n        /* \"#utility.yul\":551:558   */\n      dup6\n        /* \"#utility.yul\":542:548   */\n      dup3\n        /* \"#utility.yul\":531:540   */\n      dup7\n        /* \"#utility.yul\":527:549   */\n      add\n        /* \"#utility.yul\":506:559   */\n      tag_26\n      jump\t// in\n    tag_36:\n        /* \"#utility.yul\":496:559   */\n      swap3\n      pop\n        /* \"#utility.yul\":452:569   */\n      pop\n        /* \"#utility.yul\":608:610   */\n      0x20\n        /* \"#utility.yul\":634:687   */\n      tag_37\n        /* \"#utility.yul\":679:686   */\n      dup6\n        /* \"#utility.yul\":670:676   */\n      dup3\n        /* \"#utility.yul\":659:668   */\n      dup7\n        /* \"#utility.yul\":655:677   */\n      add\n        /* \"#utility.yul\":634:687   */\n      tag_30\n      jump\t// in\n    tag_37:\n        /* \"#utility.yul\":624:687   */\n      swap2\n      pop\n        /* \"#utility.yul\":579:697   */\n      pop\n        /* \"#utility.yul\":380:704   */\n      swap3\n      pop\n      swap3\n      swap1\n      pop\n      jump\t// out\n        /* \"#utility.yul\":710:1083   */\n    tag_38:\n        /* \"#utility.yul\":814:817   */\n      0x00\n        /* \"#utility.yul\":842:880   */\n      tag_40\n        /* \"#utility.yul\":874:879   */\n      dup3\n        /* \"#utility.yul\":842:880   */\n      tag_41\n      jump\t// in\n    tag_40:\n        /* \"#utility.yul\":896:984   */\n      tag_42\n        /* \"#utility.yul\":977:983   */\n      dup2\n        /* \"#utility.yul\":972:975   */\n      dup6\n        /* \"#utility.yul\":896:984   */\n      tag_43\n      jump\t// in\n    tag_42:\n        /* \"#utility.yul\":889:984   */\n      swap4\n      pop\n        /* \"#utility.yul\":993:1045   */\n      tag_44\n        /* \"#utility.yul\":1038:1044   */\n      dup2\n        /* \"#utility.yul\":1033:1036   */\n      dup6\n        /* \"#utility.yul\":1026:1030   */\n      0x20\n        /* \"#utility.yul\":1019:1024   */\n      dup7\n        /* \"#utility.yul\":1015:1031   */\n      add\n        /* \"#utility.yul\":993:1045   */\n      tag_45\n      jump\t// in\n    tag_44:\n        /* \"#utility.yul\":1070:1076   */\n      dup1\n        /* \"#utility.yul\":1065:1068   */\n      dup5\n        /* \"#utility.yul\":1061:1077   */\n      add\n        /* \"#utility.yul\":1054:1077   */\n      swap2\n      pop\n        /* \"#utility.yul\":818:1083   */\n      pop\n      swap3\n      swap2\n      pop\n      pop\n      jump\t// out\n        /* \"#utility.yul\":1089:1455   */\n    tag_46:\n        /* \"#utility.yul\":1231:1234   */\n      0x00\n        /* \"#utility.yul\":1252:1319   */\n      tag_48\n        /* \"#utility.yul\":1316:1318   */\n      0x34\n        /* \"#utility.yul\":1311:1314   */\n      dup4\n        /* \"#utility.yul\":1252:1319   */\n      tag_49\n      jump\t// in\n    tag_48:\n        /* \"#utility.yul\":1245:1319   */\n      swap2\n      pop\n        /* \"#utility.yul\":1328:1421   */\n      tag_50\n        /* \"#utility.yul\":1417:1420   */\n      dup3\n        /* \"#utility.yul\":1328:1421   */\n      tag_51\n      jump\t// in\n    tag_50:\n        /* \"#utility.yul\":1446:1448   */\n      0x40\n        /* \"#utility.yul\":1441:1444   */\n      dup3\n        /* \"#utility.yul\":1437:1449   */\n      add\n        /* \"#utility.yul\":1430:1449   */\n      swap1\n      pop\n        /* \"#utility.yul\":1235:1455   */\n      swap2\n      swap1\n      pop\n      jump\t// out\n        /* \"#utility.yul\":1461:1827   */\n    tag_52:\n        /* \"#utility.yul\":1603:1606   */\n      0x00\n        /* \"#utility.yul\":1624:1691   */\n      tag_54\n        /* \"#utility.yul\":1688:1690   */\n      0x1f\n        /* \"#utility.yul\":1683:1686   */\n      dup4\n        /* \"#utility.yul\":1624:1691   */\n      tag_49\n      jump\t// in\n    tag_54:\n        /* \"#utility.yul\":1617:1691   */\n      swap2\n      pop\n        /* \"#utility.yul\":1700:1793   */\n      tag_55\n        /* \"#utility.yul\":1789:1792   */\n      dup3\n        /* \"#utility.yul\":1700:1793   */\n      tag_56\n      jump\t// in\n    tag_55:\n        /* \"#utility.yul\":1818:1820   */\n      0x20\n        /* \"#utility.yul\":1813:1816   */\n      dup3\n        /* \"#utility.yul\":1809:1821   */\n      add\n        /* \"#utility.yul\":1802:1821   */\n      swap1\n      pop\n        /* \"#utility.yul\":1607:1827   */\n      swap2\n      swap1\n      pop\n      jump\t// out\n        /* \"#utility.yul\":1833:2104   */\n    tag_18:\n        /* \"#utility.yul\":1963:1966   */\n      0x00\n        /* \"#utility.yul\":1985:2078   */\n      tag_58\n        /* \"#utility.yul\":2074:2077   */\n      dup3\n        /* \"#utility.yul\":2065:2071   */\n      dup5\n        /* \"#utility.yul\":1985:2078   */\n      tag_38\n      jump\t// in\n    tag_58:\n        /* \"#utility.yul\":1978:2078   */\n      swap2\n      pop\n        /* \"#utility.yul\":2095:2098   */\n      dup2\n        /* \"#utility.yul\":2088:2098   */\n      swap1\n      pop\n        /* \"#utility.yul\":1967:2104   */\n      swap3\n      swap2\n      pop\n      pop\n      jump\t// out\n        /* \"#utility.yul\":2110:2529   */\n    tag_24:\n        /* \"#utility.yul\":2276:2280   */\n      0x00\n        /* \"#utility.yul\":2314:2316   */\n      0x20\n        /* \"#utility.yul\":2303:2312   */\n      dup3\n        /* \"#utility.yul\":2299:2317   */\n      add\n        /* \"#utility.yul\":2291:2317   */\n      swap1\n      pop\n        /* \"#utility.yul\":2363:2372   */\n      dup2\n        /* \"#utility.yul\":2357:2361   */\n      dup2\n        /* \"#utility.yul\":2353:2373   */\n      sub\n        /* \"#utility.yul\":2349:2350   */\n      0x00\n        /* \"#utility.yul\":2338:2347   */\n      dup4\n        /* \"#utility.yul\":2334:2351   */\n      add\n        /* \"#utility.yul\":2327:2374   */\n      mstore\n        /* \"#utility.yul\":2391:2522   */\n      tag_60\n        /* \"#utility.yul\":2517:2521   */\n      dup2\n        /* \"#utility.yul\":2391:2522   */\n      tag_46\n      jump\t// in\n    tag_60:\n        /* \"#utility.yul\":2383:2522   */\n      swap1\n      pop\n        /* \"#utility.yul\":2281:2529   */\n      swap2\n      swap1\n      pop\n      jump\t// out\n        /* \"#utility.yul\":2535:2954   */\n    tag_10:\n        /* \"#utility.yul\":2701:2705   */\n      0x00\n        /* \"#utility.yul\":2739:2741   */\n      0x20\n        /* \"#utility.yul\":2728:2737   */\n      dup3\n        /* \"#utility.yul\":2724:2742   */\n      add\n        /* \"#utility.yul\":2716:2742   */\n      swap1\n      pop\n        /* \"#utility.yul\":2788:2797   */\n      dup2\n        /* \"#utility.yul\":2782:2786   */\n      dup2\n        /* \"#utility.yul\":2778:2798   */\n      sub\n        /* \"#utility.yul\":2774:2775   */\n      0x00\n        /* \"#utility.yul\":2763:2772   */\n      dup4\n        /* \"#utility.yul\":2759:2776   */\n      add\n        /* \"#utility.yul\":2752:2799   */\n      mstore\n        /* \"#utility.yul\":2816:2947   */\n      tag_62\n        /* \"#utility.yul\":2942:2946   */\n      dup2\n        /* \"#utility.yul\":2816:2947   */\n      tag_52\n      jump\t// in\n    tag_62:\n        /* \"#utility.yul\":2808:2947   */\n      swap1\n      pop\n        /* \"#utility.yul\":2706:2954   */\n      swap2\n      swap1\n      pop\n      jump\t// out\n        /* \"#utility.yul\":2960:3058   */\n    tag_41:\n        /* \"#utility.yul\":3011:3017   */\n      0x00\n        /* \"#utility.yul\":3045:3050   */\n      dup2\n        /* \"#utility.yul\":3039:3051   */\n      mload\n        /* \"#utility.yul\":3029:3051   */\n      swap1\n      pop\n        /* \"#utility.yul\":3018:3058   */\n      swap2\n      swap1\n      pop\n      jump\t// out\n        /* \"#utility.yul\":3064:3211   */\n    tag_43:\n        /* \"#utility.yul\":3165:3176   */\n      0x00\n        /* \"#utility.yul\":3202:3205   */\n      dup2\n        /* \"#utility.yul\":3187:3205   */\n      swap1\n      pop\n        /* \"#utility.yul\":3177:3211   */\n      swap3\n      swap2\n      pop\n      pop\n      jump\t// out\n        /* \"#utility.yul\":3217:3386   */\n    tag_49:\n        /* \"#utility.yul\":3301:3312   */\n      0x00\n        /* \"#utility.yul\":3335:3341   */\n      dup3\n        /* \"#utility.yul\":3330:3333   */\n      dup3\n        /* \"#utility.yul\":3323:3342   */\n      mstore\n        /* \"#utility.yul\":3375:3379   */\n      0x20\n        /* \"#utility.yul\":3370:3373   */\n      dup3\n        /* \"#utility.yul\":3366:3380   */\n      add\n        /* \"#utility.yul\":3351:3380   */\n      swap1\n      pop\n        /* \"#utility.yul\":3313:3386   */\n      swap3\n      swap2\n      pop\n      pop\n      jump\t// out\n        /* \"#utility.yul\":3392:3488   */\n    tag_66:\n        /* \"#utility.yul\":3429:3436   */\n      0x00\n        /* \"#utility.yul\":3458:3482   */\n      tag_68\n        /* \"#utility.yul\":3476:3481   */\n      dup3\n        /* \"#utility.yul\":3458:3482   */\n      tag_69\n      jump\t// in\n    tag_68:\n        /* \"#utility.yul\":3447:3482   */\n      swap1\n      pop\n        /* \"#utility.yul\":3437:3488   */\n      swap2\n      swap1\n      pop\n      jump\t// out\n        /* \"#utility.yul\":3494:3620   */\n    tag_69:\n        /* \"#utility.yul\":3531:3538   */\n      0x00\n        /* \"#utility.yul\":3571:3613   */\n      0xffffffffffffffffffffffffffffffffffffffff\n        /* \"#utility.yul\":3564:3569   */\n      dup3\n        /* \"#utility.yul\":3560:3614   */\n      and\n        /* \"#utility.yul\":3549:3614   */\n      swap1\n      pop\n        /* \"#utility.yul\":3539:3620   */\n      swap2\n      swap1\n      pop\n      jump\t// out\n        /* \"#utility.yul\":3626:3703   */\n    tag_71:\n        /* \"#utility.yul\":3663:3670   */\n      0x00\n        /* \"#utility.yul\":3692:3697   */\n      dup2\n        /* \"#utility.yul\":3681:3697   */\n      swap1\n      pop\n        /* \"#utility.yul\":3671:3703   */\n      swap2\n      swap1\n      pop\n      jump\t// out\n        /* \"#utility.yul\":3709:4016   */\n    tag_45:\n        /* \"#utility.yul\":3777:3778   */\n      0x00\n        /* \"#utility.yul\":3787:3900   */\n    tag_74:\n        /* \"#utility.yul\":3801:3807   */\n      dup4\n        /* \"#utility.yul\":3798:3799   */\n      dup2\n        /* \"#utility.yul\":3795:3808   */\n      lt\n        /* \"#utility.yul\":3787:3900   */\n      iszero\n      tag_76\n      jumpi\n        /* \"#utility.yul\":3886:3887   */\n      dup1\n        /* \"#utility.yul\":3881:3884   */\n      dup3\n        /* \"#utility.yul\":3877:3888   */\n      add\n        /* \"#utility.yul\":3871:3889   */\n      mload\n        /* \"#utility.yul\":3867:3868   */\n      dup2\n        /* \"#utility.yul\":3862:3865   */\n      dup5\n        /* \"#utility.yul\":3858:3869   */\n      add\n        /* \"#utility.yul\":3851:3890   */\n      mstore\n        /* \"#utility.yul\":3823:3825   */\n      0x20\n        /* \"#utility.yul\":3820:3821   */\n      dup2\n        /* \"#utility.yul\":3816:3826   */\n      add\n        /* \"#utility.yul\":3811:3826   */\n      swap1\n      pop\n        /* \"#utility.yul\":3787:3900   */\n      jump(tag_74)\n    tag_76:\n        /* \"#utility.yul\":3918:3924   */\n      dup4\n        /* \"#utility.yul\":3915:3916   */\n      dup2\n        /* \"#utility.yul\":3912:3925   */\n      gt\n        /* \"#utility.yul\":3909:3911   */\n      iszero\n      tag_77\n      jumpi\n        /* \"#utility.yul\":3998:3999   */\n      0x00\n        /* \"#utility.yul\":3989:3995   */\n      dup5\n        /* \"#utility.yul\":3984:3987   */\n      dup5\n        /* \"#utility.yul\":3980:3996   */\n      add\n        /* \"#utility.yul\":3973:4000   */\n      mstore\n        /* \"#utility.yul\":3909:3911   */\n    tag_77:\n        /* \"#utility.yul\":3758:4016   */\n      pop\n      pop\n      pop\n      pop\n      jump\t// out\n        /* \"#utility.yul\":4022:4261   */\n    tag_51:\n        /* \"#utility.yul\":4162:4196   */\n      0x5472616e7366657248656c7065723a3a736166655472616e736665724554483a\n        /* \"#utility.yul\":4158:4159   */\n      0x00\n        /* \"#utility.yul\":4150:4156   */\n      dup3\n        /* \"#utility.yul\":4146:4160   */\n      add\n        /* \"#utility.yul\":4139:4197   */\n      mstore\n        /* \"#utility.yul\":4231:4253   */\n      0x20455448207472616e73666572206661696c6564000000000000000000000000\n        /* \"#utility.yul\":4226:4228   */\n      0x20\n        /* \"#utility.yul\":4218:4224   */\n      dup3\n        /* \"#utility.yul\":4214:4229   */\n      add\n        /* \"#utility.yul\":4207:4254   */\n      mstore\n        /* \"#utility.yul\":4128:4261   */\n      pop\n      jump\t// out\n        /* \"#utility.yul\":4267:4448   */\n    tag_56:\n        /* \"#utility.yul\":4407:4440   */\n      0x5265656e7472616e637947756172643a207265656e7472616e742063616c6c00\n        /* \"#utility.yul\":4403:4404   */\n      0x00\n        /* \"#utility.yul\":4395:4401   */\n      dup3\n        /* \"#utility.yul\":4391:4405   */\n      add\n        /* \"#utility.yul\":4384:4441   */\n      mstore\n        /* \"#utility.yul\":4373:4448   */\n      pop\n      jump\t// out\n        /* \"#utility.yul\":4454:4576   */\n    tag_29:\n        /* \"#utility.yul\":4527:4551   */\n      tag_81\n        /* \"#utility.yul\":4545:4550   */\n      dup2\n        /* \"#utility.yul\":4527:4551   */\n      tag_66\n      jump\t// in\n    tag_81:\n        /* \"#utility.yul\":4520:4525   */\n      dup2\n        /* \"#utility.yul\":4517:4552   */\n      eq\n        /* \"#utility.yul\":4507:4509   */\n      tag_82\n      jumpi\n        /* \"#utility.yul\":4566:4567   */\n      0x00\n        /* \"#utility.yul\":4563:4564   */\n      dup1\n        /* \"#utility.yul\":4556:4568   */\n      revert\n        /* \"#utility.yul\":4507:4509   */\n    tag_82:\n        /* \"#utility.yul\":4497:4576   */\n      pop\n      jump\t// out\n        /* \"#utility.yul\":4582:4704   */\n    tag_33:\n        /* \"#utility.yul\":4655:4679   */\n      tag_84\n        /* \"#utility.yul\":4673:4678   */\n      dup2\n        /* \"#utility.yul\":4655:4679   */\n      tag_71\n      jump\t// in\n    tag_84:\n        /* \"#utility.yul\":4648:4653   */\n      dup2\n        /* \"#utility.yul\":4645:4680   */\n      eq\n        /* \"#utility.yul\":4635:4637   */\n      tag_85\n      jumpi\n        /* \"#utility.yul\":4694:4695   */\n      0x00\n        /* \"#utility.yul\":4691:4692   */\n      dup1\n        /* \"#utility.yul\":4684:4696   */\n      revert\n        /* \"#utility.yul\":4635:4637   */\n    tag_85:\n        /* \"#utility.yul\":4625:4704   */\n      pop\n      jump\t// out\n\n    auxdata: 0xa26469706673582212205ff22ac2d8b1334501ae0534f261b95a109995ad31838944b92d877c4e1f5afb64736f6c63430008040033\n}\n",
				"bytecode": {
					"linkReferences": {},
					"object": "608060405234801561001057600080fd5b50600160008190555061046f806100286000396000f3fe60806040526004361061001e5760003560e01c8063938b667b14610023575b600080fd5b61003d600480360381019061003891906101f3565b61003f565b005b60026000541415610085576040517f08c379a000000000000000000000000000000000000000000000000000000000815260040161007c906102dd565b60405180910390fd5b600260008190555061009782826100a3565b60016000819055505050565b60008273ffffffffffffffffffffffffffffffffffffffff1682600067ffffffffffffffff8111156100fe577f4e487b7100000000000000000000000000000000000000000000000000000000600052604160045260246000fd5b6040519080825280601f01601f1916602001820160405280156101305781602001600182028036833780820191505090505b5060405161013e91906102a6565b60006040518083038185875af1925050503d806000811461017b576040519150601f19603f3d011682016040523d82523d6000602084013e610180565b606091505b50509050806101c4576040517f08c379a00000000000000000000000000000000000000000000000000000000081526004016101bb906102bd565b60405180910390fd5b505050565b6000813590506101d88161040b565b92915050565b6000813590506101ed81610422565b92915050565b6000806040838503121561020657600080fd5b6000610214858286016101c9565b9250506020610225858286016101de565b9150509250929050565b600061023a826102fd565b6102448185610308565b9350610254818560208601610360565b80840191505092915050565b600061026d603483610313565b915061027882610393565b604082019050919050565b6000610290601f83610313565b915061029b826103e2565b602082019050919050565b60006102b2828461022f565b915081905092915050565b600060208201905081810360008301526102d681610260565b9050919050565b600060208201905081810360008301526102f681610283565b9050919050565b600081519050919050565b600081905092915050565b600082825260208201905092915050565b600061032f82610336565b9050919050565b600073ffffffffffffffffffffffffffffffffffffffff82169050919050565b6000819050919050565b60005b8381101561037e578082015181840152602081019050610363565b8381111561038d576000848401525b50505050565b7f5472616e7366657248656c7065723a3a736166655472616e736665724554483a60008201527f20455448207472616e73666572206661696c6564000000000000000000000000602082015250565b7f5265656e7472616e637947756172643a207265656e7472616e742063616c6c00600082015250565b61041481610324565b811461041f57600080fd5b50565b61042b81610356565b811461043657600080fd5b5056fea26469706673582212205ff22ac2d8b1334501ae0534f261b95a109995ad31838944b92d877c4e1f5afb64736f6c63430008040033",
					"opcodes": "PUSH1 0x80 PUSH1 0x40 MSTORE CALLVALUE DUP1 ISZERO PUSH2 0x10 JUMPI PUSH1 0x0 DUP1 REVERT JUMPDEST POP PUSH1 0x1 PUSH1 0x0 DUP2 SWAP1 SSTORE POP PUSH2 0x46F DUP1 PUSH2 0x28 PUSH1 0x0 CODECOPY PUSH1 0x0 RETURN INVALID PUSH1 0x80 PUSH1 0x40 MSTORE PUSH1 0x4 CALLDATASIZE LT PUSH2 0x1E JUMPI PUSH1 0x0 CALLDATALOAD PUSH1 0xE0 SHR DUP1 PUSH4 0x938B667B EQ PUSH2 0x23 JUMPI JUMPDEST PUSH1 0x0 DUP1 REVERT JUMPDEST PUSH2 0x3D PUSH1 0x4 DUP1 CALLDATASIZE SUB DUP2 ADD SWAP1 PUSH2 0x38 SWAP2 SWAP1 PUSH2 0x1F3 JUMP JUMPDEST PUSH2 0x3F JUMP JUMPDEST STOP JUMPDEST PUSH1 0x2 PUSH1 0x0 SLOAD EQ ISZERO PUSH2 0x85 JUMPI PUSH1 0x40 MLOAD PUSH32 0x8C379A000000000000000000000000000000000000000000000000000000000 DUP2 MSTORE PUSH1 0x4 ADD PUSH2 0x7C SWAP1 PUSH2 0x2DD JUMP JUMPDEST PUSH1 0x40 MLOAD DUP1 SWAP2 SUB SWAP1 REVERT JUMPDEST PUSH1 0x2 PUSH1 0x0 DUP2 SWAP1 SSTORE POP PUSH2 0x97 DUP3 DUP3 PUSH2 0xA3 JUMP JUMPDEST PUSH1 0x1 PUSH1 0x0 DUP2 SWAP1 SSTORE POP POP POP JUMP JUMPDEST PUSH1 0x0 DUP3 PUSH20 0xFFFFFFFFFFFFFFFFFFFFFFFFFFFFFFFFFFFFFFFF AND DUP3 PUSH1 0x0 PUSH8 0xFFFFFFFFFFFFFFFF DUP2 GT ISZERO PUSH2 0xFE JUMPI PUSH32 0x4E487B7100000000000000000000000000000000000000000000000000000000 PUSH1 0x0 MSTORE PUSH1 0x41 PUSH1 0x4 MSTORE PUSH1 0x24 PUSH1 0x0 REVERT JUMPDEST PUSH1 0x40 MLOAD SWAP1 DUP1 DUP3 MSTORE DUP1 PUSH1 0x1F ADD PUSH1 0x1F NOT AND PUSH1 0x20 ADD DUP3 ADD PUSH1 0x40 MSTORE DUP1 ISZERO PUSH2 0x130 JUMPI DUP2 PUSH1 0x20 ADD PUSH1 0x1 DUP3 MUL DUP1 CALLDATASIZE DUP4 CALLDATACOPY DUP1 DUP3 ADD SWAP2 POP POP SWAP1 POP JUMPDEST POP PUSH1 0x40 MLOAD PUSH2 0x13E SWAP2 SWAP1 PUSH2 0x2A6 JUMP JUMPDEST PUSH1 0x0 PUSH1 0x40 MLOAD DUP1 DUP4 SUB DUP2 DUP6 DUP8 GAS CALL SWAP3 POP POP POP RETURNDATASIZE DUP1 PUSH1 0x0 DUP2 EQ PUSH2 0x17B JUMPI PUSH1 0x40 MLOAD SWAP2 POP PUSH1 0x1F NOT PUSH1 0x3F RETURNDATASIZE ADD AND DUP3 ADD PUSH1 0x40 MSTORE RETURNDATASIZE DUP3 MSTORE RETURNDATASIZE PUSH1 0x0 PUSH1 0x20 DUP5 ADD RETURNDATACOPY PUSH2 0x180 JUMP JUMPDEST PUSH1 0x60 SWAP2 POP JUMPDEST POP POP SWAP1 POP DUP1 PUSH2 0x1C4 JUMPI PUSH1 0x40 MLOAD PUSH32 0x8C379A000000000000000000000000000000000000000000000000000000000 DUP2 MSTORE PUSH1 0x4 ADD PUSH2 0x1BB SWAP1 PUSH2 0x2BD JUMP JUMPDEST PUSH1 0x40 MLOAD DUP1 SWAP2 SUB SWAP1 REVERT JUMPDEST POP POP POP JUMP JUMPDEST PUSH1 0x0 DUP2 CALLDATALOAD SWAP1 POP PUSH2 0x1D8 DUP2 PUSH2 0x40B JUMP JUMPDEST SWAP3 SWAP2 POP POP JUMP JUMPDEST PUSH1 0x0 DUP2 CALLDATALOAD SWAP1 POP PUSH2 0x1ED DUP2 PUSH2 0x422 JUMP JUMPDEST SWAP3 SWAP2 POP POP JUMP JUMPDEST PUSH1 0x0 DUP1 PUSH1 0x40 DUP4 DUP6 SUB SLT ISZERO PUSH2 0x206 JUMPI PUSH1 0x0 DUP1 REVERT JUMPDEST PUSH1 0x0 PUSH2 0x214 DUP6 DUP3 DUP7 ADD PUSH2 0x1C9 JUMP JUMPDEST SWAP3 POP POP PUSH1 0x20 PUSH2 0x225 DUP6 DUP3 DUP7 ADD PUSH2 0x1DE JUMP JUMPDEST SWAP2 POP POP SWAP3 POP SWAP3 SWAP1 POP JUMP JUMPDEST PUSH1 0x0 PUSH2 0x23A DUP3 PUSH2 0x2FD JUMP JUMPDEST PUSH2 0x244 DUP2 DUP6 PUSH2 0x308 JUMP JUMPDEST SWAP4 POP PUSH2 0x254 DUP2 DUP6 PUSH1 0x20 DUP7 ADD PUSH2 0x360 JUMP JUMPDEST DUP1 DUP5 ADD SWAP2 POP POP SWAP3 SWAP2 POP POP JUMP JUMPDEST PUSH1 0x0 PUSH2 0x26D PUSH1 0x34 DUP4 PUSH2 0x313 JUMP JUMPDEST SWAP2 POP PUSH2 0x278 DUP3 PUSH2 0x393 JUMP JUMPDEST PUSH1 0x40 DUP3 ADD SWAP1 POP SWAP2 SWAP1 POP JUMP JUMPDEST PUSH1 0x0 PUSH2 0x290 PUSH1 0x1F DUP4 PUSH2 0x313 JUMP JUMPDEST SWAP2 POP PUSH2 0x29B DUP3 PUSH2 0x3E2 JUMP JUMPDEST PUSH1 0x20 DUP3 ADD SWAP1 POP SWAP2 SWAP1 POP JUMP JUMPDEST PUSH1 0x0 PUSH2 0x2B2 DUP3 DUP5 PUSH2 0x22F JUMP JUMPDEST SWAP2 POP DUP2 SWAP1 POP SWAP3 SWAP2 POP POP JUMP JUMPDEST PUSH1 0x0 PUSH1 0x20 DUP3 ADD SWAP1 POP DUP2 DUP2 SUB PUSH1 0x0 DUP4 ADD MSTORE PUSH2 0x2D6 DUP2 PUSH2 0x260 JUMP JUMPDEST SWAP1 POP SWAP2 SWAP1 POP JUMP JUMPDEST PUSH1 0x0 PUSH1 0x20 DUP3 ADD SWAP1 POP DUP2 DUP2 SUB PUSH1 0x0 DUP4 ADD MSTORE PUSH2 0x2F6 DUP2 PUSH2 0x283 JUMP JUMPDEST SWAP1 POP SWAP2 SWAP1 POP JUMP JUMPDEST PUSH1 0x0 DUP2 MLOAD SWAP1 POP SWAP2 SWAP1 POP JUMP JUMPDEST PUSH1 0x0 DUP2 SWAP1 POP SWAP3 SWAP2 POP POP JUMP JUMPDEST PUSH1 0x0 DUP3 DUP3 MSTORE PUSH1 0x20 DUP3 ADD SWAP1 POP SWAP3 SWAP2 POP POP JUMP JUMPDEST PUSH1 0x0 PUSH2 0x32F DUP3 PUSH2 0x336 JUMP JUMPDEST SWAP1 POP SWAP2 SWAP1 POP JUMP JUMPDEST PUSH1 0x0 PUSH20 0xFFFFFFFFFFFFFFFFFFFFFFFFFFFFFFFFFFFFFFFF DUP3 AND SWAP1 POP SWAP2 SWAP1 POP JUMP JUMPDEST PUSH1 0x0 DUP2 SWAP1 POP SWAP2 SWAP1 POP JUMP JUMPDEST PUSH1 0x0 JUMPDEST DUP4 DUP2 LT ISZERO PUSH2 0x37E JUMPI DUP1 DUP3 ADD MLOAD DUP2 DUP5 ADD MSTORE PUSH1 0x20 DUP2 ADD SWAP1 POP PUSH2 0x363 JUMP JUMPDEST DUP4 DUP2 GT ISZERO PUSH2 0x38D JUMPI PUSH1 0x0 DUP5 DUP5 ADD MSTORE JUMPDEST POP POP POP POP JUMP JUMPDEST PUSH32 0x5472616E7366657248656C7065723A3A736166655472616E736665724554483A PUSH1 0x0 DUP3 ADD MSTORE PUSH32 0x20455448207472616E73666572206661696C6564000000000000000000000000 PUSH1 0x20 DUP3 ADD MSTORE POP JUMP JUMPDEST PUSH32 0x5265656E7472616E637947756172643A207265656E7472616E742063616C6C00 PUSH1 0x0 DUP3 ADD MSTORE POP JUMP JUMPDEST PUSH2 0x414 DUP2 PUSH2 0x324 JUMP JUMPDEST DUP2 EQ PUSH2 0x41F JUMPI PUSH1 0x0 DUP1 REVERT JUMPDEST POP JUMP JUMPDEST PUSH2 0x42B DUP2 PUSH2 0x356 JUMP JUMPDEST DUP2 EQ PUSH2 0x436 JUMPI PUSH1 0x0 DUP1 REVERT JUMPDEST POP JUMP INVALID LOG2 PUSH5 0x6970667358 0x22 SLT KECCAK256 0x5F CALLCODE 0x2A 0xC2 0xD8 0xB1 CALLER GASLIMIT ADD 0xAE SDIV CALLVALUE CALLCODE PUSH2 0xB95A LT SWAP10 SWAP6 0xAD BALANCE DUP4 DUP10 DIFFICULTY 0xB9 0x2D DUP8 PUSH29 0x4E1F5AFB64736F6C634300080400330000000000000000000000000000 "
				},
				"gasEstimates": {
					"creation": {
						"codeDepositCost": "227000",
						"executionCost": "20283",
						"totalCost": "247283"
					},
					"external": {
						"depodit(address,uint256)": "infinite"
					}
				},
				"methodIdentifiers": {
					"depodit(address,uint256)": "938b667b"
				}
			},
			"storageLayout": {
				"storage": [
					{
						"astId": 113,
						"contract": "Ethereum/Presale.sol:Presale",
						"label": "_status",
						"offset": 0,
						"slot": "0",
						"type": "t_uint256"
					}
				],
				"types": {
					"t_uint256": {
						"encoding": "inplace",
						"label": "uint256",
						"numberOfBytes": "32"
					}
				}
			},
			"userdoc": {
				"kind": "user",
				"methods": {},
				"version": 1
			}
		}
	}
}