{
	"Ethereum/Presale.sol": {
		"Presale": {
			"abi": [
				{
					"inputs": [
						{
							"internalType": "address",
							"name": "to",
							"type": "address"
						},
						{
							"internalType": "uint256",
							"name": "value",
							"type": "uint256"
						}
					],
					"name": "depodit",
					"outputs": [],
					"stateMutability": "payable",
					"type": "function"
				},
				{
					"inputs": [
						{
							"internalType": "uint256",
							"name": "amount",
							"type": "uint256"
						}
					],
					"name": "transferETH",
					"outputs": [],
					"stateMutability": "payable",
					"type": "function"
				}
			],
			"devdoc": {
				"kind": "dev",
				"methods": {},
				"version": 1
			},
			"evm": {
				"assembly": "    /* \"Ethereum/Presale.sol\":232:3162  contract Presale is ReentrancyGuard{\r... */\n  mstore(0x40, 0x80)\n  callvalue\n  dup1\n  iszero\n  tag_1\n  jumpi\n  0x00\n  dup1\n  revert\ntag_1:\n  pop\n    /* \"Utils/ReentrancyGuard.sol\":1734:1735  1 */\n  0x01\n    /* \"Utils/ReentrancyGuard.sol\":1845:1852  _status */\n  0x00\n    /* \"Utils/ReentrancyGuard.sol\":1845:1867  _status = _NOT_ENTERED */\n  dup2\n  swap1\n  sstore\n  pop\n    /* \"Ethereum/Presale.sol\":232:3162  contract Presale is ReentrancyGuard{\r... */\n  dataSize(sub_0)\n  dup1\n  dataOffset(sub_0)\n  0x00\n  codecopy\n  0x00\n  return\nstop\n\nsub_0: assembly {\n        /* \"Ethereum/Presale.sol\":232:3162  contract Presale is ReentrancyGuard{\r... */\n      mstore(0x40, 0x80)\n      jumpi(tag_1, lt(calldatasize, 0x04))\n      shr(0xe0, calldataload(0x00))\n      dup1\n      0x4329db46\n      eq\n      tag_2\n      jumpi\n      dup1\n      0x938b667b\n      eq\n      tag_3\n      jumpi\n    tag_1:\n      0x00\n      dup1\n      revert\n        /* \"Ethereum/Presale.sol\":3036:3157  function transferETH(uint256 amount) external payable {\r... */\n    tag_2:\n      tag_4\n      0x04\n      dup1\n      calldatasize\n      sub\n      dup2\n      add\n      swap1\n      tag_5\n      swap2\n      swap1\n      tag_6\n      jump\t// in\n    tag_5:\n      tag_7\n      jump\t// in\n    tag_4:\n      stop\n        /* \"Ethereum/Presale.sol\":2583:2717  function depodit(address to, uint256 value) external payable nonReentrant {\r... */\n    tag_3:\n      tag_8\n      0x04\n      dup1\n      calldatasize\n      sub\n      dup2\n      add\n      swap1\n      tag_9\n      swap2\n      swap1\n      tag_10\n      jump\t// in\n    tag_9:\n      tag_11\n      jump\t// in\n    tag_8:\n      stop\n        /* \"Ethereum/Presale.sol\":3036:3157  function transferETH(uint256 amount) external payable {\r... */\n    tag_7:\n        /* \"Ethereum/Presale.sol\":3109:3119  msg.sender */\n      caller\n        /* \"Ethereum/Presale.sol\":3101:3129  payable(msg.sender).transfer */\n      0xffffffffffffffffffffffffffffffffffffffff\n      and\n        /* \"Ethereum/Presale.sol\":3101:3149  payable(msg.sender).transfer(msg.value - amount) */\n      0x08fc\n        /* \"Ethereum/Presale.sol\":3142:3148  amount */\n      dup3\n        /* \"Ethereum/Presale.sol\":3130:3139  msg.value */\n      callvalue\n        /* \"Ethereum/Presale.sol\":3130:3148  msg.value - amount */\n      tag_13\n      swap2\n      swap1\n      tag_14\n      jump\t// in\n    tag_13:\n        /* \"Ethereum/Presale.sol\":3101:3149  payable(msg.sender).transfer(msg.value - amount) */\n      swap1\n      dup2\n      iszero\n      mul\n      swap1\n      mload(0x40)\n      0x00\n      mload(0x40)\n      dup1\n      dup4\n      sub\n      dup2\n      dup6\n      dup9\n      dup9\n      call\n      swap4\n      pop\n      pop\n      pop\n      pop\n      iszero\n      dup1\n      iszero\n      tag_16\n      jumpi\n      returndatasize\n      0x00\n      dup1\n      returndatacopy\n      revert(0x00, returndatasize)\n    tag_16:\n      pop\n        /* \"Ethereum/Presale.sol\":3036:3157  function transferETH(uint256 amount) external payable {\r... */\n      pop\n      jump\t// out\n        /* \"Ethereum/Presale.sol\":2583:2717  function depodit(address to, uint256 value) external payable nonReentrant {\r... */\n    tag_11:\n        /* \"Utils/ReentrancyGuard.sol\":1778:1779  2 */\n      0x02\n        /* \"Utils/ReentrancyGuard.sol\":2376:2383  _status */\n      sload(0x00)\n        /* \"Utils/ReentrancyGuard.sol\":2376:2395  _status != _ENTERED */\n      eq\n      iszero\n        /* \"Utils/ReentrancyGuard.sol\":2368:2431  require(_status != _ENTERED, \"ReentrancyGuard: reentrant call\") */\n      tag_18\n      jumpi\n      mload(0x40)\n      0x08c379a000000000000000000000000000000000000000000000000000000000\n      dup2\n      mstore\n      0x04\n      add\n      tag_19\n      swap1\n      tag_20\n      jump\t// in\n    tag_19:\n      mload(0x40)\n      dup1\n      swap2\n      sub\n      swap1\n      revert\n    tag_18:\n        /* \"Utils/ReentrancyGuard.sol\":1778:1779  2 */\n      0x02\n        /* \"Utils/ReentrancyGuard.sol\":2509:2516  _status */\n      0x00\n        /* \"Utils/ReentrancyGuard.sol\":2509:2527  _status = _ENTERED */\n      dup2\n      swap1\n      sstore\n      pop\n        /* \"Ethereum/Presale.sol\":2668:2709  TransferHelper.safeTransferETH(to, value) */\n      tag_22\n        /* \"Ethereum/Presale.sol\":2699:2701  to */\n      dup3\n        /* \"Ethereum/Presale.sol\":2703:2708  value */\n      dup3\n        /* \"Ethereum/Presale.sol\":2668:2698  TransferHelper.safeTransferETH */\n      tag_23\n        /* \"Ethereum/Presale.sol\":2668:2709  TransferHelper.safeTransferETH(to, value) */\n      jump\t// in\n    tag_22:\n        /* \"Utils/ReentrancyGuard.sol\":1734:1735  1 */\n      0x01\n        /* \"Utils/ReentrancyGuard.sol\":2688:2695  _status */\n      0x00\n        /* \"Utils/ReentrancyGuard.sol\":2688:2710  _status = _NOT_ENTERED */\n      dup2\n      swap1\n      sstore\n      pop\n        /* \"Ethereum/Presale.sol\":2583:2717  function depodit(address to, uint256 value) external payable nonReentrant {\r... */\n      pop\n      pop\n      jump\t// out\n        /* \"Utils/TransferHelper.sol\":1658:1875  function safeTransferETH(address to, uint256 value) internal {\r... */\n    tag_23:\n        /* \"Utils/TransferHelper.sol\":1731:1743  bool success */\n      0x00\n        /* \"Utils/TransferHelper.sol\":1749:1751  to */\n      dup3\n        /* \"Utils/TransferHelper.sol\":1749:1756  to.call */\n      0xffffffffffffffffffffffffffffffffffffffff\n      and\n        /* \"Utils/TransferHelper.sol\":1764:1769  value */\n      dup3\n        /* \"Utils/TransferHelper.sol\":1781:1782  0 */\n      0x00\n        /* \"Utils/TransferHelper.sol\":1771:1783  new bytes(0) */\n      0xffffffffffffffff\n      dup2\n      gt\n      iszero\n      tag_25\n      jumpi\n      mstore(0x00, 0x4e487b7100000000000000000000000000000000000000000000000000000000)\n      mstore(0x04, 0x41)\n      revert(0x00, 0x24)\n    tag_25:\n      mload(0x40)\n      swap1\n      dup1\n      dup3\n      mstore\n      dup1\n      0x1f\n      add\n      not(0x1f)\n      and\n      0x20\n      add\n      dup3\n      add\n      0x40\n      mstore\n      dup1\n      iszero\n      tag_26\n      jumpi\n      dup2\n      0x20\n      add\n      0x01\n      dup3\n      mul\n      dup1\n      calldatasize\n      dup4\n      calldatacopy\n      dup1\n      dup3\n      add\n      swap2\n      pop\n      pop\n      swap1\n      pop\n    tag_26:\n      pop\n        /* \"Utils/TransferHelper.sol\":1749:1784  to.call{value: value}(new bytes(0)) */\n      mload(0x40)\n      tag_27\n      swap2\n      swap1\n      tag_28\n      jump\t// in\n    tag_27:\n      0x00\n      mload(0x40)\n      dup1\n      dup4\n      sub\n      dup2\n      dup6\n      dup8\n      gas\n      call\n      swap3\n      pop\n      pop\n      pop\n      returndatasize\n      dup1\n      0x00\n      dup2\n      eq\n      tag_31\n      jumpi\n      mload(0x40)\n      swap2\n      pop\n      and(add(returndatasize, 0x3f), not(0x1f))\n      dup3\n      add\n      0x40\n      mstore\n      returndatasize\n      dup3\n      mstore\n      returndatasize\n      0x00\n      0x20\n      dup5\n      add\n      returndatacopy\n      jump(tag_30)\n    tag_31:\n      0x60\n      swap2\n      pop\n    tag_30:\n      pop\n        /* \"Utils/TransferHelper.sol\":1730:1784  (bool success, ) = to.call{value: value}(new bytes(0)) */\n      pop\n      swap1\n      pop\n        /* \"Utils/TransferHelper.sol\":1803:1810  success */\n      dup1\n        /* \"Utils/TransferHelper.sol\":1795:1867  require(success, \"TransferHelper::safeTransferETH: ETH transfer failed\") */\n      tag_32\n      jumpi\n      mload(0x40)\n      0x08c379a000000000000000000000000000000000000000000000000000000000\n      dup2\n      mstore\n      0x04\n      add\n      tag_33\n      swap1\n      tag_34\n      jump\t// in\n    tag_33:\n      mload(0x40)\n      dup1\n      swap2\n      sub\n      swap1\n      revert\n    tag_32:\n        /* \"Utils/TransferHelper.sol\":1658:1875  function safeTransferETH(address to, uint256 value) internal {\r... */\n      pop\n      pop\n      pop\n      jump\t// out\n        /* \"#utility.yul\":7:146   */\n    tag_36:\n        /* \"#utility.yul\":53:58   */\n      0x00\n        /* \"#utility.yul\":91:97   */\n      dup2\n        /* \"#utility.yul\":78:98   */\n      calldataload\n        /* \"#utility.yul\":69:98   */\n      swap1\n      pop\n        /* \"#utility.yul\":107:140   */\n      tag_38\n        /* \"#utility.yul\":134:139   */\n      dup2\n        /* \"#utility.yul\":107:140   */\n      tag_39\n      jump\t// in\n    tag_38:\n        /* \"#utility.yul\":59:146   */\n      swap3\n      swap2\n      pop\n      pop\n      jump\t// out\n        /* \"#utility.yul\":152:291   */\n    tag_40:\n        /* \"#utility.yul\":198:203   */\n      0x00\n        /* \"#utility.yul\":236:242   */\n      dup2\n        /* \"#utility.yul\":223:243   */\n      calldataload\n        /* \"#utility.yul\":214:243   */\n      swap1\n      pop\n        /* \"#utility.yul\":252:285   */\n      tag_42\n        /* \"#utility.yul\":279:284   */\n      dup2\n        /* \"#utility.yul\":252:285   */\n      tag_43\n      jump\t// in\n    tag_42:\n        /* \"#utility.yul\":204:291   */\n      swap3\n      swap2\n      pop\n      pop\n      jump\t// out\n        /* \"#utility.yul\":297:704   */\n    tag_10:\n        /* \"#utility.yul\":365:371   */\n      0x00\n        /* \"#utility.yul\":373:379   */\n      dup1\n        /* \"#utility.yul\":422:424   */\n      0x40\n        /* \"#utility.yul\":410:419   */\n      dup4\n        /* \"#utility.yul\":401:408   */\n      dup6\n        /* \"#utility.yul\":397:420   */\n      sub\n        /* \"#utility.yul\":393:425   */\n      slt\n        /* \"#utility.yul\":390:392   */\n      iszero\n      tag_45\n      jumpi\n        /* \"#utility.yul\":438:439   */\n      0x00\n        /* \"#utility.yul\":435:436   */\n      dup1\n        /* \"#utility.yul\":428:440   */\n      revert\n        /* \"#utility.yul\":390:392   */\n    tag_45:\n        /* \"#utility.yul\":481:482   */\n      0x00\n        /* \"#utility.yul\":506:559   */\n      tag_46\n        /* \"#utility.yul\":551:558   */\n      dup6\n        /* \"#utility.yul\":542:548   */\n      dup3\n        /* \"#utility.yul\":531:540   */\n      dup7\n        /* \"#utility.yul\":527:549   */\n      add\n        /* \"#utility.yul\":506:559   */\n      tag_36\n      jump\t// in\n    tag_46:\n        /* \"#utility.yul\":496:559   */\n      swap3\n      pop\n        /* \"#utility.yul\":452:569   */\n      pop\n        /* \"#utility.yul\":608:610   */\n      0x20\n        /* \"#utility.yul\":634:687   */\n      tag_47\n        /* \"#utility.yul\":679:686   */\n      dup6\n        /* \"#utility.yul\":670:676   */\n      dup3\n        /* \"#utility.yul\":659:668   */\n      dup7\n        /* \"#utility.yul\":655:677   */\n      add\n        /* \"#utility.yul\":634:687   */\n      tag_40\n      jump\t// in\n    tag_47:\n        /* \"#utility.yul\":624:687   */\n      swap2\n      pop\n        /* \"#utility.yul\":579:697   */\n      pop\n        /* \"#utility.yul\":380:704   */\n      swap3\n      pop\n      swap3\n      swap1\n      pop\n      jump\t// out\n        /* \"#utility.yul\":710:972   */\n    tag_6:\n        /* \"#utility.yul\":769:775   */\n      0x00\n        /* \"#utility.yul\":818:820   */\n      0x20\n        /* \"#utility.yul\":806:815   */\n      dup3\n        /* \"#utility.yul\":797:804   */\n      dup5\n        /* \"#utility.yul\":793:816   */\n      sub\n        /* \"#utility.yul\":789:821   */\n      slt\n        /* \"#utility.yul\":786:788   */\n      iszero\n      tag_49\n      jumpi\n        /* \"#utility.yul\":834:835   */\n      0x00\n        /* \"#utility.yul\":831:832   */\n      dup1\n        /* \"#utility.yul\":824:836   */\n      revert\n        /* \"#utility.yul\":786:788   */\n    tag_49:\n        /* \"#utility.yul\":877:878   */\n      0x00\n        /* \"#utility.yul\":902:955   */\n      tag_50\n        /* \"#utility.yul\":947:954   */\n      dup5\n        /* \"#utility.yul\":938:944   */\n      dup3\n        /* \"#utility.yul\":927:936   */\n      dup6\n        /* \"#utility.yul\":923:945   */\n      add\n        /* \"#utility.yul\":902:955   */\n      tag_40\n      jump\t// in\n    tag_50:\n        /* \"#utility.yul\":892:955   */\n      swap2\n      pop\n        /* \"#utility.yul\":848:965   */\n      pop\n        /* \"#utility.yul\":776:972   */\n      swap3\n      swap2\n      pop\n      pop\n      jump\t// out\n        /* \"#utility.yul\":978:1351   */\n    tag_51:\n        /* \"#utility.yul\":1082:1085   */\n      0x00\n        /* \"#utility.yul\":1110:1148   */\n      tag_53\n        /* \"#utility.yul\":1142:1147   */\n      dup3\n        /* \"#utility.yul\":1110:1148   */\n      tag_54\n      jump\t// in\n    tag_53:\n        /* \"#utility.yul\":1164:1252   */\n      tag_55\n        /* \"#utility.yul\":1245:1251   */\n      dup2\n        /* \"#utility.yul\":1240:1243   */\n      dup6\n        /* \"#utility.yul\":1164:1252   */\n      tag_56\n      jump\t// in\n    tag_55:\n        /* \"#utility.yul\":1157:1252   */\n      swap4\n      pop\n        /* \"#utility.yul\":1261:1313   */\n      tag_57\n        /* \"#utility.yul\":1306:1312   */\n      dup2\n        /* \"#utility.yul\":1301:1304   */\n      dup6\n        /* \"#utility.yul\":1294:1298   */\n      0x20\n        /* \"#utility.yul\":1287:1292   */\n      dup7\n        /* \"#utility.yul\":1283:1299   */\n      add\n        /* \"#utility.yul\":1261:1313   */\n      tag_58\n      jump\t// in\n    tag_57:\n        /* \"#utility.yul\":1338:1344   */\n      dup1\n        /* \"#utility.yul\":1333:1336   */\n      dup5\n        /* \"#utility.yul\":1329:1345   */\n      add\n        /* \"#utility.yul\":1322:1345   */\n      swap2\n      pop\n        /* \"#utility.yul\":1086:1351   */\n      pop\n      swap3\n      swap2\n      pop\n      pop\n      jump\t// out\n        /* \"#utility.yul\":1357:1723   */\n    tag_59:\n        /* \"#utility.yul\":1499:1502   */\n      0x00\n        /* \"#utility.yul\":1520:1587   */\n      tag_61\n        /* \"#utility.yul\":1584:1586   */\n      0x34\n        /* \"#utility.yul\":1579:1582   */\n      dup4\n        /* \"#utility.yul\":1520:1587   */\n      tag_62\n      jump\t// in\n    tag_61:\n        /* \"#utility.yul\":1513:1587   */\n      swap2\n      pop\n        /* \"#utility.yul\":1596:1689   */\n      tag_63\n        /* \"#utility.yul\":1685:1688   */\n      dup3\n        /* \"#utility.yul\":1596:1689   */\n      tag_64\n      jump\t// in\n    tag_63:\n        /* \"#utility.yul\":1714:1716   */\n      0x40\n        /* \"#utility.yul\":1709:1712   */\n      dup3\n        /* \"#utility.yul\":1705:1717   */\n      add\n        /* \"#utility.yul\":1698:1717   */\n      swap1\n      pop\n        /* \"#utility.yul\":1503:1723   */\n      swap2\n      swap1\n      pop\n      jump\t// out\n        /* \"#utility.yul\":1729:2095   */\n    tag_65:\n        /* \"#utility.yul\":1871:1874   */\n      0x00\n        /* \"#utility.yul\":1892:1959   */\n      tag_67\n        /* \"#utility.yul\":1956:1958   */\n      0x1f\n        /* \"#utility.yul\":1951:1954   */\n      dup4\n        /* \"#utility.yul\":1892:1959   */\n      tag_62\n      jump\t// in\n    tag_67:\n        /* \"#utility.yul\":1885:1959   */\n      swap2\n      pop\n        /* \"#utility.yul\":1968:2061   */\n      tag_68\n        /* \"#utility.yul\":2057:2060   */\n      dup3\n        /* \"#utility.yul\":1968:2061   */\n      tag_69\n      jump\t// in\n    tag_68:\n        /* \"#utility.yul\":2086:2088   */\n      0x20\n        /* \"#utility.yul\":2081:2084   */\n      dup3\n        /* \"#utility.yul\":2077:2089   */\n      add\n        /* \"#utility.yul\":2070:2089   */\n      swap1\n      pop\n        /* \"#utility.yul\":1875:2095   */\n      swap2\n      swap1\n      pop\n      jump\t// out\n        /* \"#utility.yul\":2101:2372   */\n    tag_28:\n        /* \"#utility.yul\":2231:2234   */\n      0x00\n        /* \"#utility.yul\":2253:2346   */\n      tag_71\n        /* \"#utility.yul\":2342:2345   */\n      dup3\n        /* \"#utility.yul\":2333:2339   */\n      dup5\n        /* \"#utility.yul\":2253:2346   */\n      tag_51\n      jump\t// in\n    tag_71:\n        /* \"#utility.yul\":2246:2346   */\n      swap2\n      pop\n        /* \"#utility.yul\":2363:2366   */\n      dup2\n        /* \"#utility.yul\":2356:2366   */\n      swap1\n      pop\n        /* \"#utility.yul\":2235:2372   */\n      swap3\n      swap2\n      pop\n      pop\n      jump\t// out\n        /* \"#utility.yul\":2378:2797   */\n    tag_34:\n        /* \"#utility.yul\":2544:2548   */\n      0x00\n        /* \"#utility.yul\":2582:2584   */\n      0x20\n        /* \"#utility.yul\":2571:2580   */\n      dup3\n        /* \"#utility.yul\":2567:2585   */\n      add\n        /* \"#utility.yul\":2559:2585   */\n      swap1\n      pop\n        /* \"#utility.yul\":2631:2640   */\n      dup2\n        /* \"#utility.yul\":2625:2629   */\n      dup2\n        /* \"#utility.yul\":2621:2641   */\n      sub\n        /* \"#utility.yul\":2617:2618   */\n      0x00\n        /* \"#utility.yul\":2606:2615   */\n      dup4\n        /* \"#utility.yul\":2602:2619   */\n      add\n        /* \"#utility.yul\":2595:2642   */\n      mstore\n        /* \"#utility.yul\":2659:2790   */\n      tag_73\n        /* \"#utility.yul\":2785:2789   */\n      dup2\n        /* \"#utility.yul\":2659:2790   */\n      tag_59\n      jump\t// in\n    tag_73:\n        /* \"#utility.yul\":2651:2790   */\n      swap1\n      pop\n        /* \"#utility.yul\":2549:2797   */\n      swap2\n      swap1\n      pop\n      jump\t// out\n        /* \"#utility.yul\":2803:3222   */\n    tag_20:\n        /* \"#utility.yul\":2969:2973   */\n      0x00\n        /* \"#utility.yul\":3007:3009   */\n      0x20\n        /* \"#utility.yul\":2996:3005   */\n      dup3\n        /* \"#utility.yul\":2992:3010   */\n      add\n        /* \"#utility.yul\":2984:3010   */\n      swap1\n      pop\n        /* \"#utility.yul\":3056:3065   */\n      dup2\n        /* \"#utility.yul\":3050:3054   */\n      dup2\n        /* \"#utility.yul\":3046:3066   */\n      sub\n        /* \"#utility.yul\":3042:3043   */\n      0x00\n        /* \"#utility.yul\":3031:3040   */\n      dup4\n        /* \"#utility.yul\":3027:3044   */\n      add\n        /* \"#utility.yul\":3020:3067   */\n      mstore\n        /* \"#utility.yul\":3084:3215   */\n      tag_75\n        /* \"#utility.yul\":3210:3214   */\n      dup2\n        /* \"#utility.yul\":3084:3215   */\n      tag_65\n      jump\t// in\n    tag_75:\n        /* \"#utility.yul\":3076:3215   */\n      swap1\n      pop\n        /* \"#utility.yul\":2974:3222   */\n      swap2\n      swap1\n      pop\n      jump\t// out\n        /* \"#utility.yul\":3228:3326   */\n    tag_54:\n        /* \"#utility.yul\":3279:3285   */\n      0x00\n        /* \"#utility.yul\":3313:3318   */\n      dup2\n        /* \"#utility.yul\":3307:3319   */\n      mload\n        /* \"#utility.yul\":3297:3319   */\n      swap1\n      pop\n        /* \"#utility.yul\":3286:3326   */\n      swap2\n      swap1\n      pop\n      jump\t// out\n        /* \"#utility.yul\":3332:3479   */\n    tag_56:\n        /* \"#utility.yul\":3433:3444   */\n      0x00\n        /* \"#utility.yul\":3470:3473   */\n      dup2\n        /* \"#utility.yul\":3455:3473   */\n      swap1\n      pop\n        /* \"#utility.yul\":3445:3479   */\n      swap3\n      swap2\n      pop\n      pop\n      jump\t// out\n        /* \"#utility.yul\":3485:3654   */\n    tag_62:\n        /* \"#utility.yul\":3569:3580   */\n      0x00\n        /* \"#utility.yul\":3603:3609   */\n      dup3\n        /* \"#utility.yul\":3598:3601   */\n      dup3\n        /* \"#utility.yul\":3591:3610   */\n      mstore\n        /* \"#utility.yul\":3643:3647   */\n      0x20\n        /* \"#utility.yul\":3638:3641   */\n      dup3\n        /* \"#utility.yul\":3634:3648   */\n      add\n        /* \"#utility.yul\":3619:3648   */\n      swap1\n      pop\n        /* \"#utility.yul\":3581:3654   */\n      swap3\n      swap2\n      pop\n      pop\n      jump\t// out\n        /* \"#utility.yul\":3660:3851   */\n    tag_14:\n        /* \"#utility.yul\":3700:3704   */\n      0x00\n        /* \"#utility.yul\":3720:3740   */\n      tag_80\n        /* \"#utility.yul\":3738:3739   */\n      dup3\n        /* \"#utility.yul\":3720:3740   */\n      tag_81\n      jump\t// in\n    tag_80:\n        /* \"#utility.yul\":3715:3740   */\n      swap2\n      pop\n        /* \"#utility.yul\":3754:3774   */\n      tag_82\n        /* \"#utility.yul\":3772:3773   */\n      dup4\n        /* \"#utility.yul\":3754:3774   */\n      tag_81\n      jump\t// in\n    tag_82:\n        /* \"#utility.yul\":3749:3774   */\n      swap3\n      pop\n        /* \"#utility.yul\":3793:3794   */\n      dup3\n        /* \"#utility.yul\":3790:3791   */\n      dup3\n        /* \"#utility.yul\":3787:3795   */\n      lt\n        /* \"#utility.yul\":3784:3786   */\n      iszero\n      tag_83\n      jumpi\n        /* \"#utility.yul\":3798:3816   */\n      tag_84\n      tag_85\n      jump\t// in\n    tag_84:\n        /* \"#utility.yul\":3784:3786   */\n    tag_83:\n        /* \"#utility.yul\":3843:3844   */\n      dup3\n        /* \"#utility.yul\":3840:3841   */\n      dup3\n        /* \"#utility.yul\":3836:3845   */\n      sub\n        /* \"#utility.yul\":3828:3845   */\n      swap1\n      pop\n        /* \"#utility.yul\":3705:3851   */\n      swap3\n      swap2\n      pop\n      pop\n      jump\t// out\n        /* \"#utility.yul\":3857:3953   */\n    tag_86:\n        /* \"#utility.yul\":3894:3901   */\n      0x00\n        /* \"#utility.yul\":3923:3947   */\n      tag_88\n        /* \"#utility.yul\":3941:3946   */\n      dup3\n        /* \"#utility.yul\":3923:3947   */\n      tag_89\n      jump\t// in\n    tag_88:\n        /* \"#utility.yul\":3912:3947   */\n      swap1\n      pop\n        /* \"#utility.yul\":3902:3953   */\n      swap2\n      swap1\n      pop\n      jump\t// out\n        /* \"#utility.yul\":3959:4085   */\n    tag_89:\n        /* \"#utility.yul\":3996:4003   */\n      0x00\n        /* \"#utility.yul\":4036:4078   */\n      0xffffffffffffffffffffffffffffffffffffffff\n        /* \"#utility.yul\":4029:4034   */\n      dup3\n        /* \"#utility.yul\":4025:4079   */\n      and\n        /* \"#utility.yul\":4014:4079   */\n      swap1\n      pop\n        /* \"#utility.yul\":4004:4085   */\n      swap2\n      swap1\n      pop\n      jump\t// out\n        /* \"#utility.yul\":4091:4168   */\n    tag_81:\n        /* \"#utility.yul\":4128:4135   */\n      0x00\n        /* \"#utility.yul\":4157:4162   */\n      dup2\n        /* \"#utility.yul\":4146:4162   */\n      swap1\n      pop\n        /* \"#utility.yul\":4136:4168   */\n      swap2\n      swap1\n      pop\n      jump\t// out\n        /* \"#utility.yul\":4174:4481   */\n    tag_58:\n        /* \"#utility.yul\":4242:4243   */\n      0x00\n        /* \"#utility.yul\":4252:4365   */\n    tag_93:\n        /* \"#utility.yul\":4266:4272   */\n      dup4\n        /* \"#utility.yul\":4263:4264   */\n      dup2\n        /* \"#utility.yul\":4260:4273   */\n      lt\n        /* \"#utility.yul\":4252:4365   */\n      iszero\n      tag_95\n      jumpi\n        /* \"#utility.yul\":4351:4352   */\n      dup1\n        /* \"#utility.yul\":4346:4349   */\n      dup3\n        /* \"#utility.yul\":4342:4353   */\n      add\n        /* \"#utility.yul\":4336:4354   */\n      mload\n        /* \"#utility.yul\":4332:4333   */\n      dup2\n        /* \"#utility.yul\":4327:4330   */\n      dup5\n        /* \"#utility.yul\":4323:4334   */\n      add\n        /* \"#utility.yul\":4316:4355   */\n      mstore\n        /* \"#utility.yul\":4288:4290   */\n      0x20\n        /* \"#utility.yul\":4285:4286   */\n      dup2\n        /* \"#utility.yul\":4281:4291   */\n      add\n        /* \"#utility.yul\":4276:4291   */\n      swap1\n      pop\n        /* \"#utility.yul\":4252:4365   */\n      jump(tag_93)\n    tag_95:\n        /* \"#utility.yul\":4383:4389   */\n      dup4\n        /* \"#utility.yul\":4380:4381   */\n      dup2\n        /* \"#utility.yul\":4377:4390   */\n      gt\n        /* \"#utility.yul\":4374:4376   */\n      iszero\n      tag_96\n      jumpi\n        /* \"#utility.yul\":4463:4464   */\n      0x00\n        /* \"#utility.yul\":4454:4460   */\n      dup5\n        /* \"#utility.yul\":4449:4452   */\n      dup5\n        /* \"#utility.yul\":4445:4461   */\n      add\n        /* \"#utility.yul\":4438:4465   */\n      mstore\n        /* \"#utility.yul\":4374:4376   */\n    tag_96:\n        /* \"#utility.yul\":4223:4481   */\n      pop\n      pop\n      pop\n      pop\n      jump\t// out\n        /* \"#utility.yul\":4487:4667   */\n    tag_85:\n        /* \"#utility.yul\":4535:4612   */\n      0x4e487b7100000000000000000000000000000000000000000000000000000000\n        /* \"#utility.yul\":4532:4533   */\n      0x00\n        /* \"#utility.yul\":4525:4613   */\n      mstore\n        /* \"#utility.yul\":4632:4636   */\n      0x11\n        /* \"#utility.yul\":4629:4630   */\n      0x04\n        /* \"#utility.yul\":4622:4637   */\n      mstore\n        /* \"#utility.yul\":4656:4660   */\n      0x24\n        /* \"#utility.yul\":4653:4654   */\n      0x00\n        /* \"#utility.yul\":4646:4661   */\n      revert\n        /* \"#utility.yul\":4673:4912   */\n    tag_64:\n        /* \"#utility.yul\":4813:4847   */\n      0x5472616e7366657248656c7065723a3a736166655472616e736665724554483a\n        /* \"#utility.yul\":4809:4810   */\n      0x00\n        /* \"#utility.yul\":4801:4807   */\n      dup3\n        /* \"#utility.yul\":4797:4811   */\n      add\n        /* \"#utility.yul\":4790:4848   */\n      mstore\n        /* \"#utility.yul\":4882:4904   */\n      0x20455448207472616e73666572206661696c6564000000000000000000000000\n        /* \"#utility.yul\":4877:4879   */\n      0x20\n        /* \"#utility.yul\":4869:4875   */\n      dup3\n        /* \"#utility.yul\":4865:4880   */\n      add\n        /* \"#utility.yul\":4858:4905   */\n      mstore\n        /* \"#utility.yul\":4779:4912   */\n      pop\n      jump\t// out\n        /* \"#utility.yul\":4918:5099   */\n    tag_69:\n        /* \"#utility.yul\":5058:5091   */\n      0x5265656e7472616e637947756172643a207265656e7472616e742063616c6c00\n        /* \"#utility.yul\":5054:5055   */\n      0x00\n        /* \"#utility.yul\":5046:5052   */\n      dup3\n        /* \"#utility.yul\":5042:5056   */\n      add\n        /* \"#utility.yul\":5035:5092   */\n      mstore\n        /* \"#utility.yul\":5024:5099   */\n      pop\n      jump\t// out\n        /* \"#utility.yul\":5105:5227   */\n    tag_39:\n        /* \"#utility.yul\":5178:5202   */\n      tag_101\n        /* \"#utility.yul\":5196:5201   */\n      dup2\n        /* \"#utility.yul\":5178:5202   */\n      tag_86\n      jump\t// in\n    tag_101:\n        /* \"#utility.yul\":5171:5176   */\n      dup2\n        /* \"#utility.yul\":5168:5203   */\n      eq\n        /* \"#utility.yul\":5158:5160   */\n      tag_102\n      jumpi\n        /* \"#utility.yul\":5217:5218   */\n      0x00\n        /* \"#utility.yul\":5214:5215   */\n      dup1\n        /* \"#utility.yul\":5207:5219   */\n      revert\n        /* \"#utility.yul\":5158:5160   */\n    tag_102:\n        /* \"#utility.yul\":5148:5227   */\n      pop\n      jump\t// out\n        /* \"#utility.yul\":5233:5355   */\n    tag_43:\n        /* \"#utility.yul\":5306:5330   */\n      tag_104\n        /* \"#utility.yul\":5324:5329   */\n      dup2\n        /* \"#utility.yul\":5306:5330   */\n      tag_81\n      jump\t// in\n    tag_104:\n        /* \"#utility.yul\":5299:5304   */\n      dup2\n        /* \"#utility.yul\":5296:5331   */\n      eq\n        /* \"#utility.yul\":5286:5288   */\n      tag_105\n      jumpi\n        /* \"#utility.yul\":5345:5346   */\n      0x00\n        /* \"#utility.yul\":5342:5343   */\n      dup1\n        /* \"#utility.yul\":5335:5347   */\n      revert\n        /* \"#utility.yul\":5286:5288   */\n    tag_105:\n        /* \"#utility.yul\":5276:5355   */\n      pop\n      jump\t// out\n\n    auxdata: 0xa26469706673582212202cd5a10d45e4cfbe0c2cd60e21023efe2c912daaf25a07c18c65eecd97b0f3c064736f6c63430008040033\n}\n",
				"bytecode": {
					"linkReferences": {},
					"object": "608060405234801561001057600080fd5b506001600081905550610577806100286000396000f3fe6080604052600436106100295760003560e01c80634329db461461002e578063938b667b1461004a575b600080fd5b610048600480360381019061004391906102ab565b610066565b005b610064600480360381019061005f919061026f565b6100bb565b005b3373ffffffffffffffffffffffffffffffffffffffff166108fc823461008c91906103c9565b9081150290604051600060405180830381858888f193505050501580156100b7573d6000803e3d6000fd5b5050565b60026000541415610101576040517f08c379a00000000000000000000000000000000000000000000000000000000081526004016100f890610382565b60405180910390fd5b6002600081905550610113828261011f565b60016000819055505050565b60008273ffffffffffffffffffffffffffffffffffffffff1682600067ffffffffffffffff81111561017a577f4e487b7100000000000000000000000000000000000000000000000000000000600052604160045260246000fd5b6040519080825280601f01601f1916602001820160405280156101ac5781602001600182028036833780820191505090505b506040516101ba919061034b565b60006040518083038185875af1925050503d80600081146101f7576040519150601f19603f3d011682016040523d82523d6000602084013e6101fc565b606091505b5050905080610240576040517f08c379a000000000000000000000000000000000000000000000000000000000815260040161023790610362565b60405180910390fd5b505050565b60008135905061025481610513565b92915050565b6000813590506102698161052a565b92915050565b6000806040838503121561028257600080fd5b600061029085828601610245565b92505060206102a18582860161025a565b9150509250929050565b6000602082840312156102bd57600080fd5b60006102cb8482850161025a565b91505092915050565b60006102df826103a2565b6102e981856103ad565b93506102f9818560208601610439565b80840191505092915050565b60006103126034836103b8565b915061031d8261049b565b604082019050919050565b6000610335601f836103b8565b9150610340826104ea565b602082019050919050565b600061035782846102d4565b915081905092915050565b6000602082019050818103600083015261037b81610305565b9050919050565b6000602082019050818103600083015261039b81610328565b9050919050565b600081519050919050565b600081905092915050565b600082825260208201905092915050565b60006103d48261042f565b91506103df8361042f565b9250828210156103f2576103f161046c565b5b828203905092915050565b60006104088261040f565b9050919050565b600073ffffffffffffffffffffffffffffffffffffffff82169050919050565b6000819050919050565b60005b8381101561045757808201518184015260208101905061043c565b83811115610466576000848401525b50505050565b7f4e487b7100000000000000000000000000000000000000000000000000000000600052601160045260246000fd5b7f5472616e7366657248656c7065723a3a736166655472616e736665724554483a60008201527f20455448207472616e73666572206661696c6564000000000000000000000000602082015250565b7f5265656e7472616e637947756172643a207265656e7472616e742063616c6c00600082015250565b61051c816103fd565b811461052757600080fd5b50565b6105338161042f565b811461053e57600080fd5b5056fea26469706673582212202cd5a10d45e4cfbe0c2cd60e21023efe2c912daaf25a07c18c65eecd97b0f3c064736f6c63430008040033",
					"opcodes": "PUSH1 0x80 PUSH1 0x40 MSTORE CALLVALUE DUP1 ISZERO PUSH2 0x10 JUMPI PUSH1 0x0 DUP1 REVERT JUMPDEST POP PUSH1 0x1 PUSH1 0x0 DUP2 SWAP1 SSTORE POP PUSH2 0x577 DUP1 PUSH2 0x28 PUSH1 0x0 CODECOPY PUSH1 0x0 RETURN INVALID PUSH1 0x80 PUSH1 0x40 MSTORE PUSH1 0x4 CALLDATASIZE LT PUSH2 0x29 JUMPI PUSH1 0x0 CALLDATALOAD PUSH1 0xE0 SHR DUP1 PUSH4 0x4329DB46 EQ PUSH2 0x2E JUMPI DUP1 PUSH4 0x938B667B EQ PUSH2 0x4A JUMPI JUMPDEST PUSH1 0x0 DUP1 REVERT JUMPDEST PUSH2 0x48 PUSH1 0x4 DUP1 CALLDATASIZE SUB DUP2 ADD SWAP1 PUSH2 0x43 SWAP2 SWAP1 PUSH2 0x2AB JUMP JUMPDEST PUSH2 0x66 JUMP JUMPDEST STOP JUMPDEST PUSH2 0x64 PUSH1 0x4 DUP1 CALLDATASIZE SUB DUP2 ADD SWAP1 PUSH2 0x5F SWAP2 SWAP1 PUSH2 0x26F JUMP JUMPDEST PUSH2 0xBB JUMP JUMPDEST STOP JUMPDEST CALLER PUSH20 0xFFFFFFFFFFFFFFFFFFFFFFFFFFFFFFFFFFFFFFFF AND PUSH2 0x8FC DUP3 CALLVALUE PUSH2 0x8C SWAP2 SWAP1 PUSH2 0x3C9 JUMP JUMPDEST SWAP1 DUP2 ISZERO MUL SWAP1 PUSH1 0x40 MLOAD PUSH1 0x0 PUSH1 0x40 MLOAD DUP1 DUP4 SUB DUP2 DUP6 DUP9 DUP9 CALL SWAP4 POP POP POP POP ISZERO DUP1 ISZERO PUSH2 0xB7 JUMPI RETURNDATASIZE PUSH1 0x0 DUP1 RETURNDATACOPY RETURNDATASIZE PUSH1 0x0 REVERT JUMPDEST POP POP JUMP JUMPDEST PUSH1 0x2 PUSH1 0x0 SLOAD EQ ISZERO PUSH2 0x101 JUMPI PUSH1 0x40 MLOAD PUSH32 0x8C379A000000000000000000000000000000000000000000000000000000000 DUP2 MSTORE PUSH1 0x4 ADD PUSH2 0xF8 SWAP1 PUSH2 0x382 JUMP JUMPDEST PUSH1 0x40 MLOAD DUP1 SWAP2 SUB SWAP1 REVERT JUMPDEST PUSH1 0x2 PUSH1 0x0 DUP2 SWAP1 SSTORE POP PUSH2 0x113 DUP3 DUP3 PUSH2 0x11F JUMP JUMPDEST PUSH1 0x1 PUSH1 0x0 DUP2 SWAP1 SSTORE POP POP POP JUMP JUMPDEST PUSH1 0x0 DUP3 PUSH20 0xFFFFFFFFFFFFFFFFFFFFFFFFFFFFFFFFFFFFFFFF AND DUP3 PUSH1 0x0 PUSH8 0xFFFFFFFFFFFFFFFF DUP2 GT ISZERO PUSH2 0x17A JUMPI PUSH32 0x4E487B7100000000000000000000000000000000000000000000000000000000 PUSH1 0x0 MSTORE PUSH1 0x41 PUSH1 0x4 MSTORE PUSH1 0x24 PUSH1 0x0 REVERT JUMPDEST PUSH1 0x40 MLOAD SWAP1 DUP1 DUP3 MSTORE DUP1 PUSH1 0x1F ADD PUSH1 0x1F NOT AND PUSH1 0x20 ADD DUP3 ADD PUSH1 0x40 MSTORE DUP1 ISZERO PUSH2 0x1AC JUMPI DUP2 PUSH1 0x20 ADD PUSH1 0x1 DUP3 MUL DUP1 CALLDATASIZE DUP4 CALLDATACOPY DUP1 DUP3 ADD SWAP2 POP POP SWAP1 POP JUMPDEST POP PUSH1 0x40 MLOAD PUSH2 0x1BA SWAP2 SWAP1 PUSH2 0x34B JUMP JUMPDEST PUSH1 0x0 PUSH1 0x40 MLOAD DUP1 DUP4 SUB DUP2 DUP6 DUP8 GAS CALL SWAP3 POP POP POP RETURNDATASIZE DUP1 PUSH1 0x0 DUP2 EQ PUSH2 0x1F7 JUMPI PUSH1 0x40 MLOAD SWAP2 POP PUSH1 0x1F NOT PUSH1 0x3F RETURNDATASIZE ADD AND DUP3 ADD PUSH1 0x40 MSTORE RETURNDATASIZE DUP3 MSTORE RETURNDATASIZE PUSH1 0x0 PUSH1 0x20 DUP5 ADD RETURNDATACOPY PUSH2 0x1FC JUMP JUMPDEST PUSH1 0x60 SWAP2 POP JUMPDEST POP POP SWAP1 POP DUP1 PUSH2 0x240 JUMPI PUSH1 0x40 MLOAD PUSH32 0x8C379A000000000000000000000000000000000000000000000000000000000 DUP2 MSTORE PUSH1 0x4 ADD PUSH2 0x237 SWAP1 PUSH2 0x362 JUMP JUMPDEST PUSH1 0x40 MLOAD DUP1 SWAP2 SUB SWAP1 REVERT JUMPDEST POP POP POP JUMP JUMPDEST PUSH1 0x0 DUP2 CALLDATALOAD SWAP1 POP PUSH2 0x254 DUP2 PUSH2 0x513 JUMP JUMPDEST SWAP3 SWAP2 POP POP JUMP JUMPDEST PUSH1 0x0 DUP2 CALLDATALOAD SWAP1 POP PUSH2 0x269 DUP2 PUSH2 0x52A JUMP JUMPDEST SWAP3 SWAP2 POP POP JUMP JUMPDEST PUSH1 0x0 DUP1 PUSH1 0x40 DUP4 DUP6 SUB SLT ISZERO PUSH2 0x282 JUMPI PUSH1 0x0 DUP1 REVERT JUMPDEST PUSH1 0x0 PUSH2 0x290 DUP6 DUP3 DUP7 ADD PUSH2 0x245 JUMP JUMPDEST SWAP3 POP POP PUSH1 0x20 PUSH2 0x2A1 DUP6 DUP3 DUP7 ADD PUSH2 0x25A JUMP JUMPDEST SWAP2 POP POP SWAP3 POP SWAP3 SWAP1 POP JUMP JUMPDEST PUSH1 0x0 PUSH1 0x20 DUP3 DUP5 SUB SLT ISZERO PUSH2 0x2BD JUMPI PUSH1 0x0 DUP1 REVERT JUMPDEST PUSH1 0x0 PUSH2 0x2CB DUP5 DUP3 DUP6 ADD PUSH2 0x25A JUMP JUMPDEST SWAP2 POP POP SWAP3 SWAP2 POP POP JUMP JUMPDEST PUSH1 0x0 PUSH2 0x2DF DUP3 PUSH2 0x3A2 JUMP JUMPDEST PUSH2 0x2E9 DUP2 DUP6 PUSH2 0x3AD JUMP JUMPDEST SWAP4 POP PUSH2 0x2F9 DUP2 DUP6 PUSH1 0x20 DUP7 ADD PUSH2 0x439 JUMP JUMPDEST DUP1 DUP5 ADD SWAP2 POP POP SWAP3 SWAP2 POP POP JUMP JUMPDEST PUSH1 0x0 PUSH2 0x312 PUSH1 0x34 DUP4 PUSH2 0x3B8 JUMP JUMPDEST SWAP2 POP PUSH2 0x31D DUP3 PUSH2 0x49B JUMP JUMPDEST PUSH1 0x40 DUP3 ADD SWAP1 POP SWAP2 SWAP1 POP JUMP JUMPDEST PUSH1 0x0 PUSH2 0x335 PUSH1 0x1F DUP4 PUSH2 0x3B8 JUMP JUMPDEST SWAP2 POP PUSH2 0x340 DUP3 PUSH2 0x4EA JUMP JUMPDEST PUSH1 0x20 DUP3 ADD SWAP1 POP SWAP2 SWAP1 POP JUMP JUMPDEST PUSH1 0x0 PUSH2 0x357 DUP3 DUP5 PUSH2 0x2D4 JUMP JUMPDEST SWAP2 POP DUP2 SWAP1 POP SWAP3 SWAP2 POP POP JUMP JUMPDEST PUSH1 0x0 PUSH1 0x20 DUP3 ADD SWAP1 POP DUP2 DUP2 SUB PUSH1 0x0 DUP4 ADD MSTORE PUSH2 0x37B DUP2 PUSH2 0x305 JUMP JUMPDEST SWAP1 POP SWAP2 SWAP1 POP JUMP JUMPDEST PUSH1 0x0 PUSH1 0x20 DUP3 ADD SWAP1 POP DUP2 DUP2 SUB PUSH1 0x0 DUP4 ADD MSTORE PUSH2 0x39B DUP2 PUSH2 0x328 JUMP JUMPDEST SWAP1 POP SWAP2 SWAP1 POP JUMP JUMPDEST PUSH1 0x0 DUP2 MLOAD SWAP1 POP SWAP2 SWAP1 POP JUMP JUMPDEST PUSH1 0x0 DUP2 SWAP1 POP SWAP3 SWAP2 POP POP JUMP JUMPDEST PUSH1 0x0 DUP3 DUP3 MSTORE PUSH1 0x20 DUP3 ADD SWAP1 POP SWAP3 SWAP2 POP POP JUMP JUMPDEST PUSH1 0x0 PUSH2 0x3D4 DUP3 PUSH2 0x42F JUMP JUMPDEST SWAP2 POP PUSH2 0x3DF DUP4 PUSH2 0x42F JUMP JUMPDEST SWAP3 POP DUP3 DUP3 LT ISZERO PUSH2 0x3F2 JUMPI PUSH2 0x3F1 PUSH2 0x46C JUMP JUMPDEST JUMPDEST DUP3 DUP3 SUB SWAP1 POP SWAP3 SWAP2 POP POP JUMP JUMPDEST PUSH1 0x0 PUSH2 0x408 DUP3 PUSH2 0x40F JUMP JUMPDEST SWAP1 POP SWAP2 SWAP1 POP JUMP JUMPDEST PUSH1 0x0 PUSH20 0xFFFFFFFFFFFFFFFFFFFFFFFFFFFFFFFFFFFFFFFF DUP3 AND SWAP1 POP SWAP2 SWAP1 POP JUMP JUMPDEST PUSH1 0x0 DUP2 SWAP1 POP SWAP2 SWAP1 POP JUMP JUMPDEST PUSH1 0x0 JUMPDEST DUP4 DUP2 LT ISZERO PUSH2 0x457 JUMPI DUP1 DUP3 ADD MLOAD DUP2 DUP5 ADD MSTORE PUSH1 0x20 DUP2 ADD SWAP1 POP PUSH2 0x43C JUMP JUMPDEST DUP4 DUP2 GT ISZERO PUSH2 0x466 JUMPI PUSH1 0x0 DUP5 DUP5 ADD MSTORE JUMPDEST POP POP POP POP JUMP JUMPDEST PUSH32 0x4E487B7100000000000000000000000000000000000000000000000000000000 PUSH1 0x0 MSTORE PUSH1 0x11 PUSH1 0x4 MSTORE PUSH1 0x24 PUSH1 0x0 REVERT JUMPDEST PUSH32 0x5472616E7366657248656C7065723A3A736166655472616E736665724554483A PUSH1 0x0 DUP3 ADD MSTORE PUSH32 0x20455448207472616E73666572206661696C6564000000000000000000000000 PUSH1 0x20 DUP3 ADD MSTORE POP JUMP JUMPDEST PUSH32 0x5265656E7472616E637947756172643A207265656E7472616E742063616C6C00 PUSH1 0x0 DUP3 ADD MSTORE POP JUMP JUMPDEST PUSH2 0x51C DUP2 PUSH2 0x3FD JUMP JUMPDEST DUP2 EQ PUSH2 0x527 JUMPI PUSH1 0x0 DUP1 REVERT JUMPDEST POP JUMP JUMPDEST PUSH2 0x533 DUP2 PUSH2 0x42F JUMP JUMPDEST DUP2 EQ PUSH2 0x53E JUMPI PUSH1 0x0 DUP1 REVERT JUMPDEST POP JUMP INVALID LOG2 PUSH5 0x6970667358 0x22 SLT KECCAK256 0x2C 0xD5 LOG1 0xD GASLIMIT 0xE4 0xCF 0xBE 0xC 0x2C 0xD6 0xE 0x21 MUL RETURNDATACOPY INVALID 0x2C SWAP2 0x2D 0xAA CALLCODE GAS SMOD 0xC1 DUP13 PUSH6 0xEECD97B0F3C0 PUSH5 0x736F6C6343 STOP ADDMOD DIV STOP CALLER "
				},
				"gasEstimates": {
					"creation": {
						"codeDepositCost": "279800",
						"executionCost": "20332",
						"totalCost": "300132"
					},
					"external": {
						"depodit(address,uint256)": "infinite",
						"transferETH(uint256)": "infinite"
					}
				},
				"methodIdentifiers": {
					"depodit(address,uint256)": "938b667b",
					"transferETH(uint256)": "4329db46"
				}
			},
			"storageLayout": {
				"storage": [
					{
						"astId": 131,
						"contract": "Ethereum/Presale.sol:Presale",
						"label": "_status",
						"offset": 0,
						"slot": "0",
						"type": "t_uint256"
					}
				],
				"types": {
					"t_uint256": {
						"encoding": "inplace",
						"label": "uint256",
						"numberOfBytes": "32"
					}
				}
			},
			"userdoc": {
				"kind": "user",
				"methods": {},
				"version": 1
			}
		}
	}
}