{
	"Ethereum/Presale.sol": {
		"Presale": {
			"abi": [
				{
					"inputs": [],
					"stateMutability": "payable",
					"type": "constructor"
				},
				{
					"anonymous": false,
					"inputs": [
						{
							"indexed": true,
							"internalType": "address",
							"name": "previousOwner",
							"type": "address"
						},
						{
							"indexed": true,
							"internalType": "address",
							"name": "newOwner",
							"type": "address"
						}
					],
					"name": "OwnershipTransferred",
					"type": "event"
				},
				{
					"inputs": [],
					"name": "WETH",
					"outputs": [
						{
							"internalType": "contract IERC20",
							"name": "",
							"type": "address"
						}
					],
					"stateMutability": "view",
					"type": "function"
				},
				{
					"inputs": [],
					"name": "backToken",
					"outputs": [],
					"stateMutability": "payable",
					"type": "function"
				},
				{
					"inputs": [
						{
							"internalType": "address",
							"name": "",
							"type": "address"
						}
					],
					"name": "buyerInfo",
					"outputs": [
						{
							"internalType": "uint256",
							"name": "baseDeposit",
							"type": "uint256"
						},
						{
							"internalType": "uint256",
							"name": "tokenOwner",
							"type": "uint256"
						},
						{
							"internalType": "uint256",
							"name": "lastWithDraw",
							"type": "uint256"
						},
						{
							"internalType": "uint256",
							"name": "totalTokenWithDraw",
							"type": "uint256"
						},
						{
							"internalType": "bool",
							"name": "isRefund",
							"type": "bool"
						},
						{
							"internalType": "bool",
							"name": "isClaim",
							"type": "bool"
						}
					],
					"stateMutability": "view",
					"type": "function"
				},
				{
					"inputs": [],
					"name": "checkAdminAddress",
					"outputs": [
						{
							"internalType": "bool",
							"name": "",
							"type": "bool"
						}
					],
					"stateMutability": "view",
					"type": "function"
				},
				{
					"inputs": [
						{
							"internalType": "uint256",
							"name": "_amount",
							"type": "uint256"
						}
					],
					"name": "deposit",
					"outputs": [
						{
							"internalType": "uint256",
							"name": "",
							"type": "uint256"
						}
					],
					"stateMutability": "view",
					"type": "function"
				},
				{
					"inputs": [],
					"name": "feeAnyone",
					"outputs": [
						{
							"internalType": "uint256",
							"name": "",
							"type": "uint256"
						}
					],
					"stateMutability": "view",
					"type": "function"
				},
				{
					"inputs": [
						{
							"internalType": "address",
							"name": "_address",
							"type": "address"
						}
					],
					"name": "getBalance",
					"outputs": [
						{
							"internalType": "uint256",
							"name": "",
							"type": "uint256"
						}
					],
					"stateMutability": "view",
					"type": "function"
				},
				{
					"inputs": [
						{
							"internalType": "address payable",
							"name": "_presaleOwner",
							"type": "address"
						},
						{
							"internalType": "contract ERC20",
							"name": "_saleToken",
							"type": "address"
						},
						{
							"internalType": "contract ERC20",
							"name": "_baseTOken",
							"type": "address"
						},
						{
							"internalType": "uint256[8]",
							"name": "datas",
							"type": "uint256[8]"
						}
					],
					"name": "initialSaleInfor",
					"outputs": [],
					"stateMutability": "nonpayable",
					"type": "function"
				},
				{
					"inputs": [],
					"name": "owner",
					"outputs": [
						{
							"internalType": "address",
							"name": "",
							"type": "address"
						}
					],
					"stateMutability": "view",
					"type": "function"
				},
				{
					"inputs": [],
					"name": "presaleStatus",
					"outputs": [
						{
							"internalType": "uint256",
							"name": "totalBaseCollected",
							"type": "uint256"
						},
						{
							"internalType": "uint256",
							"name": "totalTokenSold",
							"type": "uint256"
						},
						{
							"internalType": "uint256",
							"name": "totalTokenWithDraw",
							"type": "uint256"
						},
						{
							"internalType": "uint256",
							"name": "totalBaseWithDraw",
							"type": "uint256"
						},
						{
							"internalType": "uint256",
							"name": "numByer",
							"type": "uint256"
						},
						{
							"internalType": "uint256",
							"name": "totalFee",
							"type": "uint256"
						}
					],
					"stateMutability": "view",
					"type": "function"
				},
				{
					"inputs": [],
					"name": "renounceOwnership",
					"outputs": [],
					"stateMutability": "nonpayable",
					"type": "function"
				},
				{
					"inputs": [],
					"name": "saleInfor",
					"outputs": [
						{
							"internalType": "address payable",
							"name": "presaleOwner",
							"type": "address"
						},
						{
							"internalType": "contract ERC20",
							"name": "saleToken",
							"type": "address"
						},
						{
							"internalType": "contract ERC20",
							"name": "baseToken",
							"type": "address"
						},
						{
							"internalType": "uint256",
							"name": "tokenPrice",
							"type": "uint256"
						},
						{
							"internalType": "uint256",
							"name": "startSale",
							"type": "uint256"
						},
						{
							"internalType": "uint256",
							"name": "endSale",
							"type": "uint256"
						},
						{
							"internalType": "uint256",
							"name": "minSpendPerBuyer",
							"type": "uint256"
						},
						{
							"internalType": "uint256",
							"name": "maxSpendPerBuyer",
							"type": "uint256"
						},
						{
							"internalType": "uint256",
							"name": "refundFee",
							"type": "uint256"
						},
						{
							"internalType": "uint256",
							"name": "claimFee",
							"type": "uint256"
						},
						{
							"internalType": "bool",
							"name": "saleIsBaseToken",
							"type": "bool"
						}
					],
					"stateMutability": "view",
					"type": "function"
				},
				{
					"inputs": [],
					"name": "status",
					"outputs": [
						{
							"internalType": "uint256",
							"name": "",
							"type": "uint256"
						}
					],
					"stateMutability": "view",
					"type": "function"
				},
				{
					"inputs": [
						{
							"internalType": "uint256",
							"name": "amount",
							"type": "uint256"
						}
					],
					"name": "transferETH",
					"outputs": [],
					"stateMutability": "payable",
					"type": "function"
				},
				{
					"inputs": [
						{
							"internalType": "address",
							"name": "newOwner",
							"type": "address"
						}
					],
					"name": "transferOwnership",
					"outputs": [],
					"stateMutability": "nonpayable",
					"type": "function"
				},
				{
					"inputs": [
						{
							"internalType": "address",
							"name": "",
							"type": "address"
						}
					],
					"name": "userFee",
					"outputs": [
						{
							"internalType": "uint256",
							"name": "",
							"type": "uint256"
						}
					],
					"stateMutability": "view",
					"type": "function"
				}
			],
			"devdoc": {
				"kind": "dev",
				"methods": {
					"owner()": {
						"details": "Returns the address of the current owner."
					},
					"renounceOwnership()": {
						"details": "Leaves the contract without owner. It will not be possible to call `onlyOwner` functions anymore. Can only be called by the current owner. NOTE: Renouncing ownership will leave the contract without an owner, thereby removing any functionality that is only available to the owner."
					},
					"transferOwnership(address)": {
						"details": "Transfers ownership of the contract to a new account (`newOwner`). Can only be called by the current owner."
					}
				},
				"version": 1
			},
			"evm": {
				"assembly": "    /* \"Ethereum/Presale.sol\":338:4604  contract Presale is ReentrancyGuard, Ownable{\r... */\n  mstore(0x40, 0x80)\n    /* \"Utils/ReentrancyGuard.sol\":1734:1735  1 */\n  0x01\n    /* \"Utils/ReentrancyGuard.sol\":1845:1852  _status */\n  0x00\n    /* \"Utils/ReentrancyGuard.sol\":1845:1867  _status = _NOT_ENTERED */\n  sstore\n    /* \"Utils/Ownable.sol\":942:974  _transferOwnership(_msgSender()) */\n  tag_6\n    /* \"Utils/Context.sol\":736:746  msg.sender */\n  caller\n    /* \"Utils/Ownable.sol\":942:960  _transferOwnership */\n  tag_9\n    /* \"Utils/Ownable.sol\":942:974  _transferOwnership(_msgSender()) */\n  jump\t// in\ntag_6:\n    /* \"Ethereum/Presale.sol\":1866:1870  WETH */\n  0x16\n    /* \"Ethereum/Presale.sol\":1866:1922  WETH = ERC20(0xc778417E063141139Fce010982780140Aa0cD5Ab) */\n  dup1\n  sload\n    /* \"Ethereum/Presale.sol\":1879:1921  0xc778417E063141139Fce010982780140Aa0cD5Ab */\n  0xc778417e063141139fce010982780140aa0cd5ab\n  not(sub(shl(0xa0, 0x01), 0x01))\n    /* \"Ethereum/Presale.sol\":1866:1922  WETH = ERC20(0xc778417E063141139Fce010982780140Aa0cD5Ab) */\n  swap1\n  swap2\n  and\n  or\n  swap1\n  sstore\n    /* \"Ethereum/Presale.sol\":1933:1987  admins.add(0x6Ccb41eedA5a073076F3E7dC1614C185b5fA41eD) */\n  tag_11\n    /* \"Ethereum/Presale.sol\":1933:1939  admins */\n  0x18\n    /* \"Ethereum/Presale.sol\":1944:1986  0x6Ccb41eedA5a073076F3E7dC1614C185b5fA41eD */\n  0x6ccb41eeda5a073076f3e7dc1614c185b5fa41ed\n    /* \"Ethereum/Presale.sol\":1933:1943  admins.add */\n  tag_12\n  0x20\n  swap1\n  dup2\n  shl\n  tag_0_95\n  or\n    /* \"Ethereum/Presale.sol\":1933:1987  admins.add(0x6Ccb41eedA5a073076F3E7dC1614C185b5fA41eD) */\n  swap1\n  shr\n  jump\t// in\ntag_11:\n  pop\n    /* \"Ethereum/Presale.sol\":1998:2052  admins.add(0x4f0B12bBF40Fc182559822A5b1dB6D34dbC3E016) */\n  tag_13\n    /* \"Ethereum/Presale.sol\":2009:2051  0x4f0B12bBF40Fc182559822A5b1dB6D34dbC3E016 */\n  0x4f0b12bbf40fc182559822a5b1db6d34dbc3e016\n    /* \"Ethereum/Presale.sol\":1998:2004  admins */\n  0x18\n    /* \"Ethereum/Presale.sol\":1998:2008  admins.add */\n  or(tag_0_95, shl(0x20, tag_12))\n  swap1\n    /* \"Ethereum/Presale.sol\":1998:2052  admins.add(0x4f0B12bBF40Fc182559822A5b1dB6D34dbC3E016) */\n  swap2\n  swap1\n  0x20\n  shr\n  jump\t// in\ntag_13:\n  pop\n    /* \"Ethereum/Presale.sol\":2075:2077  20 */\n  0x14\n    /* \"Ethereum/Presale.sol\":2063:2072  feeAnyone */\n  0x17\n    /* \"Ethereum/Presale.sol\":2063:2077  feeAnyone = 20 */\n  sstore\n    /* \"Ethereum/Presale.sol\":338:4604  contract Presale is ReentrancyGuard, Ownable{\r... */\n  jump(tag_14)\n    /* \"Utils/Ownable.sol\":2333:2524  function _transferOwnership(address newOwner) internal virtual {\r... */\ntag_9:\n    /* \"Utils/Ownable.sol\":2426:2432  _owner */\n  0x01\n  dup1\n  sload\n  sub(shl(0xa0, 0x01), 0x01)\n    /* \"Utils/Ownable.sol\":2443:2460  _owner = newOwner */\n  dup4\n  dup2\n  and\n  not(sub(shl(0xa0, 0x01), 0x01))\n  dup4\n  and\n  dup2\n  or\n  swap1\n  swap4\n  sstore\n    /* \"Utils/Ownable.sol\":2476:2516  OwnershipTransferred(oldOwner, newOwner) */\n  mload(0x40)\n    /* \"Utils/Ownable.sol\":2426:2432  _owner */\n  swap2\n  and\n  swap2\n    /* \"Utils/Ownable.sol\":2443:2460  _owner = newOwner */\n  swap1\n    /* \"Utils/Ownable.sol\":2426:2432  _owner */\n  dup3\n  swap1\n    /* \"Utils/Ownable.sol\":2476:2516  OwnershipTransferred(oldOwner, newOwner) */\n  0x8be0079c531659141344cd1fd0a4f28419497f9722a3daafe3b4186f6b6457e0\n  swap1\n    /* \"Utils/Ownable.sol\":2407:2423  address oldOwner */\n  0x00\n  swap1\n    /* \"Utils/Ownable.sol\":2476:2516  OwnershipTransferred(oldOwner, newOwner) */\n  log3\n    /* \"Utils/Ownable.sol\":2333:2524  function _transferOwnership(address newOwner) internal virtual {\r... */\n  pop\n  pop\n  jump\t// out\n    /* \"Utils/EnumerableSet.sol\":8259:8411  function add(AddressSet storage set, address value) internal returns (bool) {\r... */\ntag_12:\n    /* \"Utils/EnumerableSet.sol\":8329:8333  bool */\n  0x00\n    /* \"Utils/EnumerableSet.sol\":8353:8403  _add(set._inner, bytes32(uint256(uint160(value)))) */\n  tag_18\n    /* \"Utils/EnumerableSet.sol\":8358:8361  set */\n  dup4\n  sub(shl(0xa0, 0x01), 0x01)\n    /* \"Utils/EnumerableSet.sol\":8378:8401  uint256(uint160(value)) */\n  dup5\n  and\n    /* \"Utils/EnumerableSet.sol\":8353:8357  _add */\n  tag_19\n    /* \"Utils/EnumerableSet.sol\":8353:8403  _add(set._inner, bytes32(uint256(uint160(value)))) */\n  jump\t// in\ntag_18:\n    /* \"Utils/EnumerableSet.sol\":8346:8403  return _add(set._inner, bytes32(uint256(uint160(value)))) */\n  swap1\n  pop\n    /* \"Utils/EnumerableSet.sol\":8259:8411  function add(AddressSet storage set, address value) internal returns (bool) {\r... */\ntag_17:\n  swap3\n  swap2\n  pop\n  pop\n  jump\t// out\n    /* \"Utils/EnumerableSet.sol\":2174:2588  function _add(Set storage set, bytes32 value) private returns (bool) {\r... */\ntag_19:\n    /* \"Utils/EnumerableSet.sol\":2237:2241  bool */\n  0x00\n    /* \"Utils/EnumerableSet.sol\":4367:4386  set._indexes[value] */\n  dup2\n  dup2\n  mstore\n    /* \"Utils/EnumerableSet.sol\":4367:4379  set._indexes */\n  0x01\n  dup4\n  add\n    /* \"Utils/EnumerableSet.sol\":4367:4386  set._indexes[value] */\n  0x20\n  mstore\n  0x40\n  dup2\n  keccak256\n  sload\n    /* \"Utils/EnumerableSet.sol\":2254:2581  if (!_contains(set, value)) {\r... */\n  tag_23\n  jumpi\n  pop\n    /* \"Utils/EnumerableSet.sol\":2297:2320  set._values.push(value) */\n  dup2\n  sload\n  0x01\n  dup2\n  dup2\n  add\n  dup5\n  sstore\n    /* \"Utils/EnumerableSet.sol\":2297:2308  set._values */\n  0x00\n    /* \"Utils/EnumerableSet.sol\":2297:2320  set._values.push(value) */\n  dup5\n  dup2\n  mstore\n  0x20\n  dup1\n  dup3\n  keccak256\n  swap1\n  swap4\n  add\n  dup5\n  swap1\n  sstore\n    /* \"Utils/EnumerableSet.sol\":2480:2498  set._values.length */\n  dup5\n  sload\n    /* \"Utils/EnumerableSet.sol\":2458:2477  set._indexes[value] */\n  dup5\n  dup3\n  mstore\n    /* \"Utils/EnumerableSet.sol\":2458:2470  set._indexes */\n  dup3\n  dup7\n  add\n    /* \"Utils/EnumerableSet.sol\":2458:2477  set._indexes[value] */\n  swap1\n  swap4\n  mstore\n  0x40\n  swap1\n  keccak256\n    /* \"Utils/EnumerableSet.sol\":2458:2498  set._indexes[value] = set._values.length */\n  swap2\n  swap1\n  swap2\n  sstore\n    /* \"Utils/EnumerableSet.sol\":2513:2524  return true */\n  jump(tag_17)\n    /* \"Utils/EnumerableSet.sol\":2254:2581  if (!_contains(set, value)) {\r... */\ntag_23:\n  pop\n    /* \"Utils/EnumerableSet.sol\":2564:2569  false */\n  0x00\n    /* \"Utils/EnumerableSet.sol\":2557:2569  return false */\n  jump(tag_17)\n    /* \"Ethereum/Presale.sol\":338:4604  contract Presale is ReentrancyGuard, Ownable{\r... */\ntag_14:\n  dataSize(sub_0)\n  dup1\n  dataOffset(sub_0)\n  0x00\n  codecopy\n  0x00\n  return\nstop\n\nsub_0: assembly {\n        /* \"Ethereum/Presale.sol\":338:4604  contract Presale is ReentrancyGuard, Ownable{\r... */\n      mstore(0x40, 0x80)\n      jumpi(tag_1, lt(calldatasize, 0x04))\n      shr(0xe0, calldataload(0x00))\n      dup1\n      0x8da5cb5b\n      gt\n      tag_18\n      jumpi\n      dup1\n      0xcad5b0f7\n      gt\n      tag_19\n      jumpi\n      dup1\n      0xcad5b0f7\n      eq\n      tag_14\n      jumpi\n      dup1\n      0xe2d3f423\n      eq\n      tag_15\n      jumpi\n      dup1\n      0xf2fde38b\n      eq\n      tag_16\n      jumpi\n      dup1\n      0xf8b2cb4f\n      eq\n      tag_17\n      jumpi\n      0x00\n      dup1\n      revert\n    tag_19:\n      dup1\n      0x8da5cb5b\n      eq\n      tag_10\n      jumpi\n      dup1\n      0xacfb2355\n      eq\n      tag_11\n      jumpi\n      dup1\n      0xad5c4648\n      eq\n      tag_12\n      jumpi\n      dup1\n      0xb6b55f25\n      eq\n      tag_13\n      jumpi\n      0x00\n      dup1\n      revert\n    tag_18:\n      dup1\n      0x4329db46\n      gt\n      tag_20\n      jumpi\n      dup1\n      0x4329db46\n      eq\n      tag_6\n      jumpi\n      dup1\n      0x56c5f349\n      eq\n      tag_7\n      jumpi\n      dup1\n      0x715018a6\n      eq\n      tag_8\n      jumpi\n      dup1\n      0x861faf5f\n      eq\n      tag_9\n      jumpi\n      0x00\n      dup1\n      revert\n    tag_20:\n      dup1\n      0x18856a2f\n      eq\n      tag_2\n      jumpi\n      dup1\n      0x200d2ed2\n      eq\n      tag_3\n      jumpi\n      dup1\n      0x3b5ef2ad\n      eq\n      tag_4\n      jumpi\n      dup1\n      0x41809260\n      eq\n      tag_5\n      jumpi\n    tag_1:\n      0x00\n      dup1\n      revert\n        /* \"Ethereum/Presale.sol\":1455:1481  SaleInfor public saleInfor */\n    tag_2:\n      callvalue\n      dup1\n      iszero\n      tag_21\n      jumpi\n      0x00\n      dup1\n      revert\n    tag_21:\n      pop\n      sload(0x0b)\n      sload(0x0c)\n      sload(0x0d)\n      sload(0x0e)\n      sload(0x0f)\n      sload(0x10)\n      sload(0x11)\n      sload(0x12)\n      sload(0x13)\n      sload(0x14)\n      sload(0x15)\n      tag_22\n      swap11\n      sub(shl(0xa0, 0x01), 0x01)\n      swap1\n      dup2\n      and\n      swap11\n      dup2\n      and\n      swap10\n      and\n      swap8\n      swap7\n      swap6\n      swap5\n      swap4\n      swap3\n      swap2\n      swap1\n      0xff\n      and\n      dup12\n      jump\n    tag_22:\n      0x40\n      dup1\n      mload\n      sub(shl(0xa0, 0x01), 0x01)\n        /* \"#utility.yul\":2699:2714   */\n      swap13\n      dup14\n      and\n        /* \"#utility.yul\":2681:2715   */\n      dup2\n      mstore\n        /* \"#utility.yul\":2751:2766   */\n      swap11\n      dup13\n      and\n        /* \"#utility.yul\":2746:2748   */\n      0x20\n        /* \"#utility.yul\":2731:2749   */\n      dup13\n      add\n        /* \"#utility.yul\":2724:2767   */\n      mstore\n        /* \"#utility.yul\":2803:2818   */\n      swap9\n      swap1\n      swap11\n      and\n        /* \"#utility.yul\":2783:2801   */\n      swap8\n      dup10\n      add\n        /* \"#utility.yul\":2776:2819   */\n      swap8\n      swap1\n      swap8\n      mstore\n        /* \"#utility.yul\":2850:2852   */\n      0x60\n        /* \"#utility.yul\":2835:2853   */\n      dup9\n      add\n        /* \"#utility.yul\":2828:2862   */\n      swap6\n      swap1\n      swap6\n      mstore\n        /* \"#utility.yul\":2893:2896   */\n      0x80\n        /* \"#utility.yul\":2878:2897   */\n      dup8\n      add\n        /* \"#utility.yul\":2871:2906   */\n      swap4\n      swap1\n      swap4\n      mstore\n        /* \"#utility.yul\":2661:2664   */\n      0xa0\n        /* \"#utility.yul\":2922:2941   */\n      dup7\n      add\n        /* \"#utility.yul\":2915:2950   */\n      swap2\n      swap1\n      swap2\n      mstore\n        /* \"#utility.yul\":2981:2984   */\n      0xc0\n        /* \"#utility.yul\":2966:2985   */\n      dup6\n      add\n        /* \"#utility.yul\":2959:2994   */\n      mstore\n        /* \"#utility.yul\":3025:3028   */\n      0xe0\n        /* \"#utility.yul\":3010:3029   */\n      dup5\n      add\n        /* \"#utility.yul\":3003:3038   */\n      mstore\n        /* \"#utility.yul\":3069:3072   */\n      0x0100\n        /* \"#utility.yul\":3054:3073   */\n      dup4\n      add\n        /* \"#utility.yul\":3047:3082   */\n      mstore\n        /* \"#utility.yul\":3113:3116   */\n      0x0120\n        /* \"#utility.yul\":3098:3117   */\n      dup3\n      add\n        /* \"#utility.yul\":3091:3126   */\n      mstore\n        /* \"#utility.yul\":3170:3185   */\n      swap1\n      iszero\n        /* \"#utility.yul\":3163:3186   */\n      iszero\n        /* \"#utility.yul\":3157:3160   */\n      0x0140\n        /* \"#utility.yul\":3142:3161   */\n      dup3\n      add\n        /* \"#utility.yul\":3135:3187   */\n      mstore\n        /* \"#utility.yul\":2630:2633   */\n      0x0160\n        /* \"#utility.yul\":2615:2634   */\n      add\n        /* \"Ethereum/Presale.sol\":1455:1481  SaleInfor public saleInfor */\n    tag_24:\n      mload(0x40)\n      dup1\n      swap2\n      sub\n      swap1\n      return\n        /* \"Ethereum/Presale.sol\":2800:3137  function status() public view returns(uint256) {\r... */\n    tag_3:\n      callvalue\n      dup1\n      iszero\n      tag_26\n      jumpi\n      0x00\n      dup1\n      revert\n    tag_26:\n      pop\n      tag_27\n      tag_28\n      jump\t// in\n    tag_27:\n      mload(0x40)\n        /* \"#utility.yul\":5210:5235   */\n      swap1\n      dup2\n      mstore\n        /* \"#utility.yul\":5198:5200   */\n      0x20\n        /* \"#utility.yul\":5183:5201   */\n      add\n        /* \"Ethereum/Presale.sol\":2800:3137  function status() public view returns(uint256) {\r... */\n      tag_24\n        /* \"#utility.yul\":5165:5241   */\n      jump\n        /* \"Ethereum/Presale.sol\":1513:1537  uint256 public feeAnyone */\n    tag_4:\n      callvalue\n      dup1\n      iszero\n      tag_31\n      jumpi\n      0x00\n      dup1\n      revert\n    tag_31:\n      pop\n      tag_27\n      sload(0x17)\n      dup2\n      jump\n        /* \"Ethereum/Presale.sol\":2093:2791  function initialSaleInfor(\r... */\n    tag_5:\n      callvalue\n      dup1\n      iszero\n      tag_35\n      jumpi\n      0x00\n      dup1\n      revert\n    tag_35:\n      pop\n      tag_36\n      tag_37\n      calldatasize\n      0x04\n      tag_38\n      jump\t// in\n    tag_37:\n        /* \"Ethereum/Presale.sol\":2274:2283  saleInfor */\n      0x0b\n        /* \"Ethereum/Presale.sol\":2274:2312  saleInfor.presaleOwner = _presaleOwner */\n      dup1\n      sload\n      not(sub(shl(0xa0, 0x01), 0x01))\n      swap1\n      dup2\n      and\n      sub(shl(0xa0, 0x01), 0x01)\n      swap7\n      dup8\n      and\n      or\n      swap1\n      swap2\n      sstore\n        /* \"Ethereum/Presale.sol\":2323:2342  saleInfor.saleToken */\n      0x0c\n        /* \"Ethereum/Presale.sol\":2323:2355  saleInfor.saleToken = _saleToken */\n      dup1\n      sload\n      dup3\n      and\n      swap5\n      dup7\n      and\n      swap5\n      swap1\n      swap5\n      or\n      swap1\n      swap4\n      sstore\n        /* \"Ethereum/Presale.sol\":2366:2385  saleInfor.baseToken */\n      0x0d\n        /* \"Ethereum/Presale.sol\":2366:2398  saleInfor.baseToken = _baseTOken */\n      dup1\n      sload\n      swap1\n      swap4\n      and\n      swap2\n      dup5\n      and\n      swap2\n      dup3\n      or\n      swap1\n      swap3\n      sstore\n        /* \"Ethereum/Presale.sol\":2434:2442  datas[0] */\n      dup2\n      mload\n        /* \"Ethereum/Presale.sol\":2411:2431  saleInfor.tokenPrice */\n      0x0e\n        /* \"Ethereum/Presale.sol\":2411:2442  saleInfor.tokenPrice = datas[0] */\n      sstore\n        /* \"Ethereum/Presale.sol\":2434:2442  datas[0] */\n      0x20\n        /* \"Ethereum/Presale.sol\":2475:2483  datas[1] */\n      dup3\n      add\n      mload\n        /* \"Ethereum/Presale.sol\":2453:2472  saleInfor.startSale */\n      0x0f\n        /* \"Ethereum/Presale.sol\":2453:2483  saleInfor.startSale = datas[1] */\n      sstore\n        /* \"Ethereum/Presale.sol\":2514:2522  datas[2] */\n      0x40\n      dup3\n      add\n      mload\n        /* \"Ethereum/Presale.sol\":2494:2511  saleInfor.endSale */\n      0x10\n        /* \"Ethereum/Presale.sol\":2494:2522  saleInfor.endSale = datas[2] */\n      sstore\n        /* \"Ethereum/Presale.sol\":2562:2570  datas[3] */\n      0x60\n      dup3\n      add\n      mload\n        /* \"Ethereum/Presale.sol\":2533:2559  saleInfor.minSpendPerBuyer */\n      0x11\n        /* \"Ethereum/Presale.sol\":2533:2570  saleInfor.minSpendPerBuyer = datas[3] */\n      sstore\n        /* \"Ethereum/Presale.sol\":2610:2618  datas[4] */\n      0x80\n      dup3\n      add\n      mload\n        /* \"Ethereum/Presale.sol\":2581:2607  saleInfor.maxSpendPerBuyer */\n      0x12\n        /* \"Ethereum/Presale.sol\":2581:2618  saleInfor.maxSpendPerBuyer = datas[4] */\n      sstore\n        /* \"Ethereum/Presale.sol\":2651:2659  datas[5] */\n      0xa0\n      dup3\n      add\n      mload\n        /* \"Ethereum/Presale.sol\":2629:2648  saleInfor.refundFee */\n      0x13\n        /* \"Ethereum/Presale.sol\":2629:2659  saleInfor.refundFee = datas[5] */\n      sstore\n        /* \"Ethereum/Presale.sol\":2691:2699  datas[6] */\n      0xc0\n      swap1\n      swap2\n      add\n      mload\n        /* \"Ethereum/Presale.sol\":2670:2688  saleInfor.claimFee */\n      0x14\n        /* \"Ethereum/Presale.sol\":2670:2699  saleInfor.claimFee = datas[6] */\n      sstore\n        /* \"Ethereum/Presale.sol\":2746:2750  WETH */\n      sload(0x16)\n        /* \"Ethereum/Presale.sol\":2710:2735  saleInfor.saleIsBaseToken */\n      0x15\n        /* \"Ethereum/Presale.sol\":2710:2783  saleInfor.saleIsBaseToken = address(WETH) == address(saleInfor.baseToken) */\n      dup1\n      sload\n      not(0xff)\n      and\n        /* \"Ethereum/Presale.sol\":2746:2750  WETH */\n      swap2\n      swap1\n      swap4\n      and\n        /* \"Ethereum/Presale.sol\":2738:2783  address(WETH) == address(saleInfor.baseToken) */\n      swap1\n      swap2\n      eq\n        /* \"Ethereum/Presale.sol\":2710:2783  saleInfor.saleIsBaseToken = address(WETH) == address(saleInfor.baseToken) */\n      or\n      swap1\n      sstore\n        /* \"Ethereum/Presale.sol\":2093:2791  function initialSaleInfor(\r... */\n      jump\n    tag_36:\n      stop\n        /* \"Ethereum/Presale.sol\":4478:4599  function transferETH(uint256 amount) external payable {\r... */\n    tag_6:\n      tag_36\n      tag_41\n      calldatasize\n      0x04\n      tag_42\n      jump\t// in\n    tag_41:\n      tag_43\n      jump\t// in\n        /* \"Ethereum/Presale.sol\":1365:1407  mapping(address => uint256) public userFee */\n    tag_7:\n      callvalue\n      dup1\n      iszero\n      tag_44\n      jumpi\n      0x00\n      dup1\n      revert\n    tag_44:\n      pop\n      tag_27\n      tag_46\n      calldatasize\n      0x04\n      tag_47\n      jump\t// in\n    tag_46:\n      mstore(0x20, 0x03)\n      0x00\n      swap1\n      dup2\n      mstore\n      0x40\n      swap1\n      keccak256\n      sload\n      dup2\n      jump\n        /* \"Utils/Ownable.sol\":1714:1817  function renounceOwnership() public virtual onlyOwner {\r... */\n    tag_8:\n      callvalue\n      dup1\n      iszero\n      tag_50\n      jumpi\n      0x00\n      dup1\n      revert\n    tag_50:\n      pop\n      tag_36\n      tag_52\n      jump\t// in\n        /* \"Ethereum/Presale.sol\":4362:4470  function backToken() external payable {\r... */\n    tag_9:\n      tag_36\n      tag_54\n      jump\t// in\n        /* \"Utils/Ownable.sol\":1063:1150  function owner() public view virtual returns (address) {\r... */\n    tag_10:\n      callvalue\n      dup1\n      iszero\n      tag_55\n      jumpi\n      0x00\n      dup1\n      revert\n    tag_55:\n      pop\n        /* \"Utils/Ownable.sol\":1136:1142  _owner */\n      and(sub(shl(0xa0, 0x01), 0x01), sload(0x01))\n        /* \"Utils/Ownable.sol\":1063:1150  function owner() public view virtual returns (address) {\r... */\n    tag_56:\n      mload(0x40)\n      sub(shl(0xa0, 0x01), 0x01)\n        /* \"#utility.yul\":2135:2167   */\n      swap1\n      swap2\n      and\n        /* \"#utility.yul\":2117:2168   */\n      dup2\n      mstore\n        /* \"#utility.yul\":2105:2107   */\n      0x20\n        /* \"#utility.yul\":2090:2108   */\n      add\n        /* \"Utils/Ownable.sol\":1063:1150  function owner() public view virtual returns (address) {\r... */\n      tag_24\n        /* \"#utility.yul\":2072:2174   */\n      jump\n        /* \"Ethereum/Presale.sol\":1414:1448  PresaleStatus public presaleStatus */\n    tag_11:\n      callvalue\n      dup1\n      iszero\n      tag_60\n      jumpi\n      0x00\n      dup1\n      revert\n    tag_60:\n      pop\n      sload(0x04)\n      sload(0x05)\n      sload(0x06)\n      sload(0x07)\n      sload(0x08)\n      sload(0x09)\n      tag_61\n      swap6\n      swap5\n      swap4\n      swap3\n      swap2\n      swap1\n      dup7\n      jump\n    tag_61:\n      0x40\n      dup1\n      mload\n        /* \"#utility.yul\":6093:6118   */\n      swap7\n      dup8\n      mstore\n        /* \"#utility.yul\":6149:6151   */\n      0x20\n        /* \"#utility.yul\":6134:6152   */\n      dup8\n      add\n        /* \"#utility.yul\":6127:6161   */\n      swap6\n      swap1\n      swap6\n      mstore\n        /* \"#utility.yul\":6177:6195   */\n      swap4\n      dup6\n      add\n        /* \"#utility.yul\":6170:6204   */\n      swap3\n      swap1\n      swap3\n      mstore\n        /* \"#utility.yul\":6235:6237   */\n      0x60\n        /* \"#utility.yul\":6220:6238   */\n      dup5\n      add\n        /* \"#utility.yul\":6213:6247   */\n      mstore\n        /* \"#utility.yul\":6278:6281   */\n      0x80\n        /* \"#utility.yul\":6263:6282   */\n      dup4\n      add\n        /* \"#utility.yul\":6256:6291   */\n      mstore\n        /* \"#utility.yul\":6322:6325   */\n      0xa0\n        /* \"#utility.yul\":6307:6326   */\n      dup3\n      add\n        /* \"#utility.yul\":6300:6335   */\n      mstore\n        /* \"#utility.yul\":6080:6083   */\n      0xc0\n        /* \"#utility.yul\":6065:6084   */\n      add\n        /* \"Ethereum/Presale.sol\":1414:1448  PresaleStatus public presaleStatus */\n      tag_24\n        /* \"#utility.yul\":6047:6341   */\n      jump\n        /* \"Ethereum/Presale.sol\":1488:1506  IERC20 public WETH */\n    tag_12:\n      callvalue\n      dup1\n      iszero\n      tag_65\n      jumpi\n      0x00\n      dup1\n      revert\n    tag_65:\n      pop\n      sload(0x16)\n      tag_56\n      swap1\n      sub(shl(0xa0, 0x01), 0x01)\n      and\n      dup2\n      jump\n        /* \"Ethereum/Presale.sol\":3264:4232  function deposit(uint256 _amount) external view returns(uint256) {\r... */\n    tag_13:\n      callvalue\n      dup1\n      iszero\n      tag_70\n      jumpi\n      0x00\n      dup1\n      revert\n    tag_70:\n      pop\n      tag_27\n      tag_72\n      calldatasize\n      0x04\n      tag_42\n      jump\t// in\n    tag_72:\n      tag_73\n      jump\t// in\n        /* \"Ethereum/Presale.sol\":3146:3256  function checkAdminAddress() public view returns(bool) {\r... */\n    tag_14:\n      callvalue\n      dup1\n      iszero\n      tag_75\n      jumpi\n      0x00\n      dup1\n      revert\n    tag_75:\n      pop\n      tag_76\n      tag_77\n      jump\t// in\n    tag_76:\n      mload(0x40)\n        /* \"#utility.yul\":3363:3377   */\n      swap1\n      iszero\n        /* \"#utility.yul\":3356:3378   */\n      iszero\n        /* \"#utility.yul\":3338:3379   */\n      dup2\n      mstore\n        /* \"#utility.yul\":3326:3328   */\n      0x20\n        /* \"#utility.yul\":3311:3329   */\n      add\n        /* \"Ethereum/Presale.sol\":3146:3256  function checkAdminAddress() public view returns(bool) {\r... */\n      tag_24\n        /* \"#utility.yul\":3293:3385   */\n      jump\n        /* \"Ethereum/Presale.sol\":1312:1358  mapping(address => BuyerInfo) public buyerInfo */\n    tag_15:\n      callvalue\n      dup1\n      iszero\n      tag_80\n      jumpi\n      0x00\n      dup1\n      revert\n    tag_80:\n      pop\n      tag_81\n      tag_82\n      calldatasize\n      0x04\n      tag_47\n      jump\t// in\n    tag_82:\n      0x02\n      0x20\n      dup2\n      swap1\n      mstore\n      0x00\n      swap2\n      dup3\n      mstore\n      0x40\n      swap1\n      swap2\n      keccak256\n      dup1\n      sload\n      0x01\n      dup3\n      add\n      sload\n      swap3\n      dup3\n      add\n      sload\n      0x03\n      dup4\n      add\n      sload\n      0x04\n      swap1\n      swap4\n      add\n      sload\n      swap2\n      swap4\n      swap3\n      swap1\n      swap2\n      0xff\n      dup1\n      dup3\n      and\n      swap2\n      0x0100\n      swap1\n      div\n      and\n      dup7\n      jump\n    tag_81:\n      0x40\n      dup1\n      mload\n        /* \"#utility.yul\":5521:5546   */\n      swap7\n      dup8\n      mstore\n        /* \"#utility.yul\":5577:5579   */\n      0x20\n        /* \"#utility.yul\":5562:5580   */\n      dup8\n      add\n        /* \"#utility.yul\":5555:5589   */\n      swap6\n      swap1\n      swap6\n      mstore\n        /* \"#utility.yul\":5605:5623   */\n      swap4\n      dup6\n      add\n        /* \"#utility.yul\":5598:5632   */\n      swap3\n      swap1\n      swap3\n      mstore\n        /* \"#utility.yul\":5663:5665   */\n      0x60\n        /* \"#utility.yul\":5648:5666   */\n      dup5\n      add\n        /* \"#utility.yul\":5641:5675   */\n      mstore\n        /* \"#utility.yul\":5719:5733   */\n      iszero\n        /* \"#utility.yul\":5712:5734   */\n      iszero\n        /* \"#utility.yul\":5706:5709   */\n      0x80\n        /* \"#utility.yul\":5691:5710   */\n      dup4\n      add\n        /* \"#utility.yul\":5684:5735   */\n      mstore\n        /* \"#utility.yul\":5779:5793   */\n      iszero\n        /* \"#utility.yul\":5772:5794   */\n      iszero\n        /* \"#utility.yul\":5766:5769   */\n      0xa0\n        /* \"#utility.yul\":5751:5770   */\n      dup3\n      add\n        /* \"#utility.yul\":5744:5795   */\n      mstore\n        /* \"#utility.yul\":5508:5511   */\n      0xc0\n        /* \"#utility.yul\":5493:5512   */\n      add\n        /* \"Ethereum/Presale.sol\":1312:1358  mapping(address => BuyerInfo) public buyerInfo */\n      tag_24\n        /* \"#utility.yul\":5475:5801   */\n      jump\n        /* \"Utils/Ownable.sol\":1972:2173  function transferOwnership(address newOwner) public virtual onlyOwner {\r... */\n    tag_16:\n      callvalue\n      dup1\n      iszero\n      tag_86\n      jumpi\n      0x00\n      dup1\n      revert\n    tag_86:\n      pop\n      tag_36\n      tag_88\n      calldatasize\n      0x04\n      tag_47\n      jump\t// in\n    tag_88:\n      tag_89\n      jump\t// in\n        /* \"Ethereum/Presale.sol\":4240:4351  function getBalance(address _address) external view returns(uint256) {\r... */\n    tag_17:\n      callvalue\n      dup1\n      iszero\n      tag_90\n      jumpi\n      0x00\n      dup1\n      revert\n    tag_90:\n      pop\n      tag_27\n      tag_92\n      calldatasize\n      0x04\n      tag_47\n      jump\t// in\n    tag_92:\n      sub(shl(0xa0, 0x01), 0x01)\n        /* \"Ethereum/Presale.sol\":4327:4343  _address.balance */\n      and\n      balance\n      swap1\n        /* \"Ethereum/Presale.sol\":4240:4351  function getBalance(address _address) external view returns(uint256) {\r... */\n      jump\n        /* \"Ethereum/Presale.sol\":2800:3137  function status() public view returns(uint256) {\r... */\n    tag_28:\n        /* \"Ethereum/Presale.sol\":2879:2898  saleInfor.startSale */\n      sload(0x0f)\n        /* \"Ethereum/Presale.sol\":2838:2845  uint256 */\n      0x00\n      swap1\n        /* \"Ethereum/Presale.sol\":2861:2876  block.timestamp */\n      timestamp\n        /* \"Ethereum/Presale.sol\":2861:2898  block.timestamp < saleInfor.startSale */\n      lt\n        /* \"Ethereum/Presale.sol\":2858:3130  if(block.timestamp < saleInfor.startSale) {\r... */\n      iszero\n      tag_97\n      jumpi\n      pop\n        /* \"Ethereum/Presale.sol\":2922:2923  0 */\n      0x00\n      swap1\n        /* \"Ethereum/Presale.sol\":2800:3137  function status() public view returns(uint256) {\r... */\n      jump\t// out\n        /* \"Ethereum/Presale.sol\":2858:3130  if(block.timestamp < saleInfor.startSale) {\r... */\n    tag_97:\n        /* \"Ethereum/Presale.sol\":2989:3006  saleInfor.endSale */\n      sload(0x10)\n        /* \"Ethereum/Presale.sol\":2971:2986  block.timestamp */\n      timestamp\n        /* \"Ethereum/Presale.sol\":2971:3006  block.timestamp > saleInfor.endSale */\n      gt\n        /* \"Ethereum/Presale.sol\":2968:3119  if(block.timestamp > saleInfor.endSale) {\r... */\n      iszero\n      tag_99\n      jumpi\n      pop\n        /* \"Ethereum/Presale.sol\":3034:3035  2 */\n      0x02\n      swap1\n        /* \"Ethereum/Presale.sol\":2800:3137  function status() public view returns(uint256) {\r... */\n      jump\t// out\n        /* \"Ethereum/Presale.sol\":2968:3119  if(block.timestamp > saleInfor.endSale) {\r... */\n    tag_99:\n      pop\n        /* \"Ethereum/Presale.sol\":3092:3093  1 */\n      0x01\n      swap1\n        /* \"Ethereum/Presale.sol\":2800:3137  function status() public view returns(uint256) {\r... */\n      jump\t// out\n        /* \"Ethereum/Presale.sol\":4478:4599  function transferETH(uint256 amount) external payable {\r... */\n    tag_43:\n        /* \"Ethereum/Presale.sol\":4551:4561  msg.sender */\n      caller\n        /* \"Ethereum/Presale.sol\":4543:4591  payable(msg.sender).transfer(msg.value - amount) */\n      0x08fc\n        /* \"Ethereum/Presale.sol\":4572:4590  msg.value - amount */\n      tag_110\n        /* \"Ethereum/Presale.sol\":4584:4590  amount */\n      dup4\n        /* \"Ethereum/Presale.sol\":4572:4581  msg.value */\n      callvalue\n        /* \"Ethereum/Presale.sol\":4572:4590  msg.value - amount */\n      tag_111\n      jump\t// in\n    tag_110:\n        /* \"Ethereum/Presale.sol\":4543:4591  payable(msg.sender).transfer(msg.value - amount) */\n      mload(0x40)\n      dup2\n      iszero\n      swap1\n      swap3\n      mul\n      swap2\n      0x00\n      dup2\n      dup2\n      dup2\n      dup6\n      dup9\n      dup9\n      call\n      swap4\n      pop\n      pop\n      pop\n      pop\n      iszero\n      dup1\n      iszero\n      tag_113\n      jumpi\n      returndatasize\n      0x00\n      dup1\n      returndatacopy\n      revert(0x00, returndatasize)\n    tag_113:\n      pop\n        /* \"Ethereum/Presale.sol\":4478:4599  function transferETH(uint256 amount) external payable {\r... */\n      pop\n      jump\t// out\n        /* \"Utils/Ownable.sol\":1714:1817  function renounceOwnership() public virtual onlyOwner {\r... */\n    tag_52:\n        /* \"Utils/Ownable.sol\":1136:1142  _owner */\n      and(sub(shl(0xa0, 0x01), 0x01), sload(0x01))\n        /* \"Utils/Context.sol\":736:746  msg.sender */\n      caller\n        /* \"Utils/Ownable.sol\":1283:1306  owner() == _msgSender() */\n      eq\n        /* \"Utils/Ownable.sol\":1275:1343  require(owner() == _msgSender(), \"Ownable: caller is not the owner\") */\n      tag_118\n      jumpi\n      mload(0x40)\n      shl(0xe5, 0x461bcd)\n      dup2\n      mstore\n        /* \"#utility.yul\":4905:4907   */\n      0x20\n        /* \"Utils/Ownable.sol\":1275:1343  require(owner() == _msgSender(), \"Ownable: caller is not the owner\") */\n      0x04\n      dup3\n      add\n        /* \"#utility.yul\":4887:4908   */\n      dup2\n      swap1\n      mstore\n        /* \"#utility.yul\":4924:4942   */\n      0x24\n      dup3\n      add\n        /* \"#utility.yul\":4917:4947   */\n      mstore\n        /* \"#utility.yul\":4983:5017   */\n      0x4f776e61626c653a2063616c6c6572206973206e6f7420746865206f776e6572\n        /* \"#utility.yul\":4963:4981   */\n      0x44\n      dup3\n      add\n        /* \"#utility.yul\":4956:5018   */\n      mstore\n        /* \"#utility.yul\":5035:5053   */\n      0x64\n      add\n        /* \"Utils/Ownable.sol\":1275:1343  require(owner() == _msgSender(), \"Ownable: caller is not the owner\") */\n    tag_119:\n      mload(0x40)\n      dup1\n      swap2\n      sub\n      swap1\n      revert\n    tag_118:\n        /* \"Utils/Ownable.sol\":1779:1809  _transferOwnership(address(0)) */\n      tag_122\n        /* \"Utils/Ownable.sol\":1806:1807  0 */\n      0x00\n        /* \"Utils/Ownable.sol\":1779:1797  _transferOwnership */\n      tag_123\n        /* \"Utils/Ownable.sol\":1779:1809  _transferOwnership(address(0)) */\n      jump\t// in\n    tag_122:\n        /* \"Utils/Ownable.sol\":1714:1817  function renounceOwnership() public virtual onlyOwner {\r... */\n      jump\t// out\n        /* \"Ethereum/Presale.sol\":4362:4470  function backToken() external payable {\r... */\n    tag_54:\n        /* \"Ethereum/Presale.sol\":4411:4462  payable(msg.sender).transfer(address(this).balance) */\n      mload(0x40)\n        /* \"Ethereum/Presale.sol\":4419:4429  msg.sender */\n      caller\n      swap1\n        /* \"Ethereum/Presale.sol\":4440:4461  address(this).balance */\n      selfbalance\n        /* \"Ethereum/Presale.sol\":4411:4462  payable(msg.sender).transfer(address(this).balance) */\n      dup1\n      iszero\n      0x08fc\n      mul\n      swap2\n      0x00\n      dup2\n      dup2\n      dup2\n        /* \"Ethereum/Presale.sol\":4440:4461  address(this).balance */\n      dup6\n        /* \"Ethereum/Presale.sol\":4419:4429  msg.sender */\n      dup9\n        /* \"Ethereum/Presale.sol\":4411:4462  payable(msg.sender).transfer(address(this).balance) */\n      dup9\n      call\n      swap4\n      pop\n      pop\n      pop\n      pop\n      iszero\n      dup1\n      iszero\n      tag_126\n      jumpi\n      returndatasize\n      0x00\n      dup1\n      returndatacopy\n      revert(0x00, returndatasize)\n    tag_126:\n      pop\n        /* \"Ethereum/Presale.sol\":4362:4470  function backToken() external payable {\r... */\n      jump\t// out\n        /* \"Ethereum/Presale.sol\":3264:4232  function deposit(uint256 _amount) external view returns(uint256) {\r... */\n    tag_73:\n        /* \"Ethereum/Presale.sol\":3320:3327  uint256 */\n      0x00\n        /* \"Ethereum/Presale.sol\":3348:3356  status() */\n      tag_129\n        /* \"Ethereum/Presale.sol\":3348:3354  status */\n      tag_28\n        /* \"Ethereum/Presale.sol\":3348:3356  status() */\n      jump\t// in\n    tag_129:\n        /* \"Ethereum/Presale.sol\":3360:3361  1 */\n      0x01\n        /* \"Ethereum/Presale.sol\":3348:3361  status() == 1 */\n      eq\n        /* \"Ethereum/Presale.sol\":3340:3376  require(status() == 1, \"NOT ACTIVE\") */\n      tag_130\n      jumpi\n      mload(0x40)\n      shl(0xe5, 0x461bcd)\n      dup2\n      mstore\n        /* \"#utility.yul\":4221:4223   */\n      0x20\n        /* \"Ethereum/Presale.sol\":3340:3376  require(status() == 1, \"NOT ACTIVE\") */\n      0x04\n      dup3\n      add\n        /* \"#utility.yul\":4203:4224   */\n      mstore\n        /* \"#utility.yul\":4260:4262   */\n      0x0a\n        /* \"#utility.yul\":4240:4258   */\n      0x24\n      dup3\n      add\n        /* \"#utility.yul\":4233:4263   */\n      mstore\n      shl(0xb0, 0x4e4f5420414354495645)\n        /* \"#utility.yul\":4279:4297   */\n      0x44\n      dup3\n      add\n        /* \"#utility.yul\":4272:4312   */\n      mstore\n        /* \"#utility.yul\":4329:4347   */\n      0x64\n      add\n        /* \"Ethereum/Presale.sol\":3340:3376  require(status() == 1, \"NOT ACTIVE\") */\n      tag_119\n        /* \"#utility.yul\":4193:4353   */\n      jump\n        /* \"Ethereum/Presale.sol\":3340:3376  require(status() == 1, \"NOT ACTIVE\") */\n    tag_130:\n        /* \"Ethereum/Presale.sol\":3433:3443  msg.sender */\n      caller\n        /* \"Ethereum/Presale.sol\":3397:3420  BuyerInfo storage buyer */\n      0x00\n        /* \"Ethereum/Presale.sol\":3423:3444  buyerInfo[msg.sender] */\n      swap1\n      dup2\n      mstore\n        /* \"Ethereum/Presale.sol\":3423:3432  buyerInfo */\n      0x02\n        /* \"Ethereum/Presale.sol\":3423:3444  buyerInfo[msg.sender] */\n      0x20\n      mstore\n      0x40\n      dup2\n      keccak256\n        /* \"Ethereum/Presale.sol\":3629:3655  saleInfor.minSpendPerBuyer */\n      sload(0x11)\n        /* \"Ethereum/Presale.sol\":3423:3444  buyerInfo[msg.sender] */\n      swap1\n      swap2\n        /* \"Ethereum/Presale.sol\":3475:3482  _amount */\n      dup5\n      swap2\n      dup3\n      swap2\n        /* \"Ethereum/Presale.sol\":3397:3420  BuyerInfo storage buyer */\n      swap1\n        /* \"Ethereum/Presale.sol\":3588:3592  1000 */\n      0x03e8\n      swap1\n        /* \"Ethereum/Presale.sol\":3611:3655  real_amount_in >= saleInfor.minSpendPerBuyer */\n      dup4\n      lt\n      iszero\n        /* \"Ethereum/Presale.sol\":3603:3704  require(real_amount_in >= saleInfor.minSpendPerBuyer, \r... */\n      tag_133\n      jumpi\n      mload(0x40)\n      shl(0xe5, 0x461bcd)\n      dup2\n      mstore\n        /* \"#utility.yul\":4560:4562   */\n      0x20\n        /* \"Ethereum/Presale.sol\":3603:3704  require(real_amount_in >= saleInfor.minSpendPerBuyer, \r... */\n      0x04\n      dup3\n      add\n        /* \"#utility.yul\":4542:4563   */\n      mstore\n        /* \"#utility.yul\":4599:4601   */\n      0x10\n        /* \"#utility.yul\":4579:4597   */\n      0x24\n      dup3\n      add\n        /* \"#utility.yul\":4572:4602   */\n      mstore\n      shl(0x80, 0x4e6f7420656e6f7567682076616c7565)\n        /* \"#utility.yul\":4618:4636   */\n      0x44\n      dup3\n      add\n        /* \"#utility.yul\":4611:4657   */\n      mstore\n        /* \"#utility.yul\":4674:4692   */\n      0x64\n      add\n        /* \"Ethereum/Presale.sol\":3603:3704  require(real_amount_in >= saleInfor.minSpendPerBuyer, \r... */\n      tag_119\n        /* \"#utility.yul\":4532:4698   */\n      jump\n        /* \"Ethereum/Presale.sol\":3603:3704  require(real_amount_in >= saleInfor.minSpendPerBuyer, \r... */\n    tag_133:\n        /* \"Ethereum/Presale.sol\":3719:3738  checkAdminAddress() */\n      tag_136\n        /* \"Ethereum/Presale.sol\":3719:3736  checkAdminAddress */\n      tag_77\n        /* \"Ethereum/Presale.sol\":3719:3738  checkAdminAddress() */\n      jump\t// in\n    tag_136:\n        /* \"Ethereum/Presale.sol\":3715:3917  if(!checkAdminAddress()) {\r... */\n      tag_137\n      jumpi\n        /* \"Ethereum/Presale.sol\":3772:3905  ((fullPercenFee.sub(feeAnyone))\r... */\n      tag_138\n        /* \"Ethereum/Presale.sol\":3891:3904  fullPercenFee */\n      dup2\n        /* \"Ethereum/Presale.sol\":3773:3854  (fullPercenFee.sub(feeAnyone))\r... */\n      tag_139\n        /* \"Ethereum/Presale.sol\":3839:3853  real_amount_in */\n      dup6\n        /* \"Ethereum/Presale.sol\":3774:3802  fullPercenFee.sub(feeAnyone) */\n      tag_140\n        /* \"Ethereum/Presale.sol\":3792:3801  feeAnyone */\n      sload(0x17)\n        /* \"Ethereum/Presale.sol\":3774:3787  fullPercenFee */\n      dup7\n        /* \"Ethereum/Presale.sol\":3774:3791  fullPercenFee.sub */\n      tag_141\n      swap1\n        /* \"Ethereum/Presale.sol\":3774:3802  fullPercenFee.sub(feeAnyone) */\n      swap2\n      swap1\n      0xffffffff\n      and\n      jump\t// in\n    tag_140:\n        /* \"Ethereum/Presale.sol\":3773:3838  (fullPercenFee.sub(feeAnyone))\r... */\n      swap1\n      tag_142\n        /* \"Ethereum/Presale.sol\":3773:3854  (fullPercenFee.sub(feeAnyone))\r... */\n      jump\t// in\n    tag_139:\n        /* \"Ethereum/Presale.sol\":3772:3890  ((fullPercenFee.sub(feeAnyone))\r... */\n      swap1\n      tag_143\n        /* \"Ethereum/Presale.sol\":3772:3905  ((fullPercenFee.sub(feeAnyone))\r... */\n      jump\t// in\n    tag_138:\n        /* \"Ethereum/Presale.sol\":3755:3905  real_amount_in = ((fullPercenFee.sub(feeAnyone))\r... */\n      swap3\n      pop\n        /* \"Ethereum/Presale.sol\":3715:3917  if(!checkAdminAddress()) {\r... */\n    tag_137:\n        /* \"Ethereum/Presale.sol\":3947:3973  saleInfor.maxSpendPerBuyer */\n      sload(0x12)\n        /* \"Ethereum/Presale.sol\":3927:3944  uint256 remaining */\n      0x00\n      swap1\n        /* \"Ethereum/Presale.sol\":3947:3990  saleInfor.maxSpendPerBuyer - real_amount_in */\n      tag_144\n      swap1\n        /* \"Ethereum/Presale.sol\":3976:3990  real_amount_in */\n      dup6\n      swap1\n        /* \"Ethereum/Presale.sol\":3947:3990  saleInfor.maxSpendPerBuyer - real_amount_in */\n      tag_111\n      jump\t// in\n    tag_144:\n        /* \"Ethereum/Presale.sol\":4147:4166  saleInfor.baseToken */\n      sload(0x0d)\n        /* \"Ethereum/Presale.sol\":4141:4178  ERC20(saleInfor.baseToken).decimals() */\n      0x40\n      dup1\n      mload\n      shl(0xe0, 0x313ce567)\n      dup2\n      mstore\n      swap1\n      mload\n        /* \"Ethereum/Presale.sol\":3927:3990  uint256 remaining = saleInfor.maxSpendPerBuyer - real_amount_in */\n      swap3\n      swap4\n      pop\n        /* \"Ethereum/Presale.sol\":4001:4018  uint256 tokenSold */\n      0x00\n      swap3\n        /* \"Ethereum/Presale.sol\":4022:4180  real_amount_in.\r... */\n      tag_145\n      swap3\n      sub(shl(0xa0, 0x01), 0x01)\n        /* \"Ethereum/Presale.sol\":4147:4166  saleInfor.baseToken */\n      and\n      swap2\n        /* \"Ethereum/Presale.sol\":4141:4176  ERC20(saleInfor.baseToken).decimals */\n      0x313ce567\n      swap2\n        /* \"Ethereum/Presale.sol\":4141:4178  ERC20(saleInfor.baseToken).decimals() */\n      0x04\n      dup1\n      dup4\n      add\n      swap3\n      0x20\n      swap3\n      swap2\n      swap1\n      dup3\n      swap1\n      sub\n      add\n      dup2\n        /* \"Ethereum/Presale.sol\":4147:4166  saleInfor.baseToken */\n      dup7\n        /* \"Ethereum/Presale.sol\":4141:4178  ERC20(saleInfor.baseToken).decimals() */\n      dup1\n      extcodesize\n      iszero\n      dup1\n      iszero\n      tag_146\n      jumpi\n      0x00\n      dup1\n      revert\n    tag_146:\n      pop\n      gas\n      staticcall\n      iszero\n      dup1\n      iszero\n      tag_148\n      jumpi\n      returndatasize\n      0x00\n      dup1\n      returndatacopy\n      revert(0x00, returndatasize)\n    tag_148:\n      pop\n      pop\n      pop\n      pop\n      mload(0x40)\n      returndatasize\n      not(0x1f)\n      0x1f\n      dup3\n      add\n      and\n      dup3\n      add\n      dup1\n      0x40\n      mstore\n      pop\n      dup2\n      add\n      swap1\n      tag_149\n      swap2\n      swap1\n      tag_150\n      jump\t// in\n    tag_149:\n        /* \"Ethereum/Presale.sol\":4127:4179  10 ** uint256(ERC20(saleInfor.baseToken).decimals()) */\n      tag_151\n      swap1\n        /* \"Ethereum/Presale.sol\":4127:4129  10 */\n      0x0a\n        /* \"Ethereum/Presale.sol\":4127:4179  10 ** uint256(ERC20(saleInfor.baseToken).decimals()) */\n      tag_152\n      jump\t// in\n    tag_151:\n        /* \"Ethereum/Presale.sol\":4071:4091  saleInfor.tokenPrice */\n      sload(0x0e)\n        /* \"Ethereum/Presale.sol\":4022:4092  real_amount_in.\r... */\n      tag_139\n      swap1\n        /* \"Ethereum/Presale.sol\":4022:4036  real_amount_in */\n      dup9\n      swap1\n        /* \"Ethereum/Presale.sol\":4022:4070  real_amount_in.\r... */\n      tag_142\n        /* \"Ethereum/Presale.sol\":4022:4092  real_amount_in.\r... */\n      jump\t// in\n        /* \"Ethereum/Presale.sol\":4022:4180  real_amount_in.\r... */\n    tag_145:\n        /* \"Ethereum/Presale.sol\":4001:4181  uint256 tokenSold = (real_amount_in.\r... */\n      swap10\n        /* \"Ethereum/Presale.sol\":3264:4232  function deposit(uint256 _amount) external view returns(uint256) {\r... */\n      swap9\n      pop\n      pop\n      pop\n      pop\n      pop\n      pop\n      pop\n      pop\n      pop\n      jump\t// out\n        /* \"Ethereum/Presale.sol\":3146:3256  function checkAdminAddress() public view returns(bool) {\r... */\n    tag_77:\n        /* \"Ethereum/Presale.sol\":3195:3199  bool */\n      0x00\n        /* \"Ethereum/Presale.sol\":3219:3248  admins.contains(_msgSender()) */\n      tag_155\n        /* \"Ethereum/Presale.sol\":3219:3225  admins */\n      0x18\n        /* \"Utils/Context.sol\":736:746  msg.sender */\n      caller\n        /* \"Ethereum/Presale.sol\":3219:3234  admins.contains */\n      tag_157\n        /* \"Ethereum/Presale.sol\":3219:3248  admins.contains(_msgSender()) */\n      jump\t// in\n    tag_155:\n        /* \"Ethereum/Presale.sol\":3212:3248  return admins.contains(_msgSender()) */\n      swap1\n      pop\n        /* \"Ethereum/Presale.sol\":3146:3256  function checkAdminAddress() public view returns(bool) {\r... */\n      swap1\n      jump\t// out\n        /* \"Utils/Ownable.sol\":1972:2173  function transferOwnership(address newOwner) public virtual onlyOwner {\r... */\n    tag_89:\n        /* \"Utils/Ownable.sol\":1136:1142  _owner */\n      and(sub(shl(0xa0, 0x01), 0x01), sload(0x01))\n        /* \"Utils/Context.sol\":736:746  msg.sender */\n      caller\n        /* \"Utils/Ownable.sol\":1283:1306  owner() == _msgSender() */\n      eq\n        /* \"Utils/Ownable.sol\":1275:1343  require(owner() == _msgSender(), \"Ownable: caller is not the owner\") */\n      tag_161\n      jumpi\n      mload(0x40)\n      shl(0xe5, 0x461bcd)\n      dup2\n      mstore\n        /* \"#utility.yul\":4905:4907   */\n      0x20\n        /* \"Utils/Ownable.sol\":1275:1343  require(owner() == _msgSender(), \"Ownable: caller is not the owner\") */\n      0x04\n      dup3\n      add\n        /* \"#utility.yul\":4887:4908   */\n      dup2\n      swap1\n      mstore\n        /* \"#utility.yul\":4924:4942   */\n      0x24\n      dup3\n      add\n        /* \"#utility.yul\":4917:4947   */\n      mstore\n        /* \"#utility.yul\":4983:5017   */\n      0x4f776e61626c653a2063616c6c6572206973206e6f7420746865206f776e6572\n        /* \"#utility.yul\":4963:4981   */\n      0x44\n      dup3\n      add\n        /* \"#utility.yul\":4956:5018   */\n      mstore\n        /* \"#utility.yul\":5035:5053   */\n      0x64\n      add\n        /* \"Utils/Ownable.sol\":1275:1343  require(owner() == _msgSender(), \"Ownable: caller is not the owner\") */\n      tag_119\n        /* \"#utility.yul\":4877:5059   */\n      jump\n        /* \"Utils/Ownable.sol\":1275:1343  require(owner() == _msgSender(), \"Ownable: caller is not the owner\") */\n    tag_161:\n      sub(shl(0xa0, 0x01), 0x01)\n        /* \"Utils/Ownable.sol\":2061:2083  newOwner != address(0) */\n      dup2\n      and\n        /* \"Utils/Ownable.sol\":2053:2126  require(newOwner != address(0), \"Ownable: new owner is the zero address\") */\n      tag_164\n      jumpi\n      mload(0x40)\n      shl(0xe5, 0x461bcd)\n      dup2\n      mstore\n        /* \"#utility.yul\":3814:3816   */\n      0x20\n        /* \"Utils/Ownable.sol\":2053:2126  require(newOwner != address(0), \"Ownable: new owner is the zero address\") */\n      0x04\n      dup3\n      add\n        /* \"#utility.yul\":3796:3817   */\n      mstore\n        /* \"#utility.yul\":3853:3855   */\n      0x26\n        /* \"#utility.yul\":3833:3851   */\n      0x24\n      dup3\n      add\n        /* \"#utility.yul\":3826:3856   */\n      mstore\n        /* \"#utility.yul\":3892:3926   */\n      0x4f776e61626c653a206e6577206f776e657220697320746865207a65726f2061\n        /* \"#utility.yul\":3872:3890   */\n      0x44\n      dup3\n      add\n        /* \"#utility.yul\":3865:3927   */\n      mstore\n      shl(0xd0, 0x646472657373)\n        /* \"#utility.yul\":3943:3961   */\n      0x64\n      dup3\n      add\n        /* \"#utility.yul\":3936:3972   */\n      mstore\n        /* \"#utility.yul\":3989:4008   */\n      0x84\n      add\n        /* \"Utils/Ownable.sol\":2053:2126  require(newOwner != address(0), \"Ownable: new owner is the zero address\") */\n      tag_119\n        /* \"#utility.yul\":3786:4014   */\n      jump\n        /* \"Utils/Ownable.sol\":2053:2126  require(newOwner != address(0), \"Ownable: new owner is the zero address\") */\n    tag_164:\n        /* \"Utils/Ownable.sol\":2137:2165  _transferOwnership(newOwner) */\n      tag_126\n        /* \"Utils/Ownable.sol\":2156:2164  newOwner */\n      dup2\n        /* \"Utils/Ownable.sol\":2137:2155  _transferOwnership */\n      tag_123\n        /* \"Utils/Ownable.sol\":2137:2165  _transferOwnership(newOwner) */\n      jump\t// in\n        /* \"Utils/EnumerableSet.sol\":8259:8411  function add(AddressSet storage set, address value) internal returns (bool) {\r... */\n    tag_95:\n        /* \"Utils/EnumerableSet.sol\":8329:8333  bool */\n      0x00\n        /* \"Utils/EnumerableSet.sol\":8353:8403  _add(set._inner, bytes32(uint256(uint160(value)))) */\n      tag_170\n        /* \"Utils/EnumerableSet.sol\":8358:8361  set */\n      dup4\n      sub(shl(0xa0, 0x01), 0x01)\n        /* \"Utils/EnumerableSet.sol\":8378:8401  uint256(uint160(value)) */\n      dup5\n      and\n        /* \"Utils/EnumerableSet.sol\":8353:8357  _add */\n      tag_171\n        /* \"Utils/EnumerableSet.sol\":8353:8403  _add(set._inner, bytes32(uint256(uint160(value)))) */\n      jump\t// in\n    tag_170:\n        /* \"Utils/EnumerableSet.sol\":8346:8403  return _add(set._inner, bytes32(uint256(uint160(value)))) */\n      swap1\n      pop\n        /* \"Utils/EnumerableSet.sol\":8259:8411  function add(AddressSet storage set, address value) internal returns (bool) {\r... */\n    tag_169:\n      swap3\n      swap2\n      pop\n      pop\n      jump\t// out\n        /* \"Utils/Ownable.sol\":2333:2524  function _transferOwnership(address newOwner) internal virtual {\r... */\n    tag_123:\n        /* \"Utils/Ownable.sol\":2426:2432  _owner */\n      0x01\n      dup1\n      sload\n      sub(shl(0xa0, 0x01), 0x01)\n        /* \"Utils/Ownable.sol\":2443:2460  _owner = newOwner */\n      dup4\n      dup2\n      and\n      not(sub(shl(0xa0, 0x01), 0x01))\n      dup4\n      and\n      dup2\n      or\n      swap1\n      swap4\n      sstore\n        /* \"Utils/Ownable.sol\":2476:2516  OwnershipTransferred(oldOwner, newOwner) */\n      mload(0x40)\n        /* \"Utils/Ownable.sol\":2426:2432  _owner */\n      swap2\n      and\n      swap2\n        /* \"Utils/Ownable.sol\":2443:2460  _owner = newOwner */\n      swap1\n        /* \"Utils/Ownable.sol\":2426:2432  _owner */\n      dup3\n      swap1\n        /* \"Utils/Ownable.sol\":2476:2516  OwnershipTransferred(oldOwner, newOwner) */\n      0x8be0079c531659141344cd1fd0a4f28419497f9722a3daafe3b4186f6b6457e0\n      swap1\n        /* \"Utils/Ownable.sol\":2407:2423  address oldOwner */\n      0x00\n      swap1\n        /* \"Utils/Ownable.sol\":2476:2516  OwnershipTransferred(oldOwner, newOwner) */\n      log3\n        /* \"Utils/Ownable.sol\":2333:2524  function _transferOwnership(address newOwner) internal virtual {\r... */\n      pop\n      pop\n      jump\t// out\n        /* \"Utils/SafeMath.sol\":3228:3326  function sub(uint256 a, uint256 b) internal pure returns (uint256) {\r... */\n    tag_141:\n        /* \"Utils/SafeMath.sol\":3286:3293  uint256 */\n      0x00\n        /* \"Utils/SafeMath.sol\":3313:3318  a - b */\n      tag_170\n        /* \"Utils/SafeMath.sol\":3317:3318  b */\n      dup3\n        /* \"Utils/SafeMath.sol\":3313:3314  a */\n      dup5\n        /* \"Utils/SafeMath.sol\":3313:3318  a - b */\n      tag_111\n      jump\t// in\n        /* \"Utils/SafeMath.sol\":3585:3683  function mul(uint256 a, uint256 b) internal pure returns (uint256) {\r... */\n    tag_142:\n        /* \"Utils/SafeMath.sol\":3643:3650  uint256 */\n      0x00\n        /* \"Utils/SafeMath.sol\":3670:3675  a * b */\n      tag_170\n        /* \"Utils/SafeMath.sol\":3674:3675  b */\n      dup3\n        /* \"Utils/SafeMath.sol\":3670:3671  a */\n      dup5\n        /* \"Utils/SafeMath.sol\":3670:3675  a * b */\n      tag_178\n      jump\t// in\n        /* \"Utils/SafeMath.sol\":3984:4082  function div(uint256 a, uint256 b) internal pure returns (uint256) {\r... */\n    tag_143:\n        /* \"Utils/SafeMath.sol\":4042:4049  uint256 */\n      0x00\n        /* \"Utils/SafeMath.sol\":4069:4074  a / b */\n      tag_170\n        /* \"Utils/SafeMath.sol\":4073:4074  b */\n      dup3\n        /* \"Utils/SafeMath.sol\":4069:4070  a */\n      dup5\n        /* \"Utils/SafeMath.sol\":4069:4074  a / b */\n      tag_181\n      jump\t// in\n        /* \"Utils/EnumerableSet.sol\":8831:8998  function contains(AddressSet storage set, address value) internal view returns (bool) {\r... */\n    tag_157:\n      sub(shl(0xa0, 0x01), 0x01)\n        /* \"Utils/EnumerableSet.sol\":8965:8988  uint256(uint160(value)) */\n      dup2\n      and\n        /* \"Utils/EnumerableSet.sol\":8911:8915  bool */\n      0x00\n        /* \"Utils/EnumerableSet.sol\":4367:4386  set._indexes[value] */\n      swap1\n      dup2\n      mstore\n        /* \"Utils/EnumerableSet.sol\":4367:4379  set._indexes */\n      0x01\n      dup4\n      add\n        /* \"Utils/EnumerableSet.sol\":4367:4386  set._indexes[value] */\n      0x20\n      mstore\n      0x40\n      dup2\n      keccak256\n      sload\n        /* \"Utils/EnumerableSet.sol\":4367:4391  set._indexes[value] != 0 */\n      iszero\n      iszero\n        /* \"Utils/EnumerableSet.sol\":8935:8990  _contains(set._inner, bytes32(uint256(uint160(value)))) */\n      tag_170\n        /* \"Utils/EnumerableSet.sol\":4270:4399  function _contains(Set storage set, bytes32 value) private view returns (bool) {\r... */\n      jump\n        /* \"Utils/EnumerableSet.sol\":2174:2588  function _add(Set storage set, bytes32 value) private returns (bool) {\r... */\n    tag_171:\n        /* \"Utils/EnumerableSet.sol\":2237:2241  bool */\n      0x00\n        /* \"Utils/EnumerableSet.sol\":4367:4386  set._indexes[value] */\n      dup2\n      dup2\n      mstore\n        /* \"Utils/EnumerableSet.sol\":4367:4379  set._indexes */\n      0x01\n      dup4\n      add\n        /* \"Utils/EnumerableSet.sol\":4367:4386  set._indexes[value] */\n      0x20\n      mstore\n      0x40\n      dup2\n      keccak256\n      sload\n        /* \"Utils/EnumerableSet.sol\":2254:2581  if (!_contains(set, value)) {\r... */\n      tag_187\n      jumpi\n      pop\n        /* \"Utils/EnumerableSet.sol\":2297:2320  set._values.push(value) */\n      dup2\n      sload\n      0x01\n      dup2\n      dup2\n      add\n      dup5\n      sstore\n        /* \"Utils/EnumerableSet.sol\":2297:2308  set._values */\n      0x00\n        /* \"Utils/EnumerableSet.sol\":2297:2320  set._values.push(value) */\n      dup5\n      dup2\n      mstore\n      0x20\n      dup1\n      dup3\n      keccak256\n      swap1\n      swap4\n      add\n      dup5\n      swap1\n      sstore\n        /* \"Utils/EnumerableSet.sol\":2480:2498  set._values.length */\n      dup5\n      sload\n        /* \"Utils/EnumerableSet.sol\":2458:2477  set._indexes[value] */\n      dup5\n      dup3\n      mstore\n        /* \"Utils/EnumerableSet.sol\":2458:2470  set._indexes */\n      dup3\n      dup7\n      add\n        /* \"Utils/EnumerableSet.sol\":2458:2477  set._indexes[value] */\n      swap1\n      swap4\n      mstore\n      0x40\n      swap1\n      keccak256\n        /* \"Utils/EnumerableSet.sol\":2458:2498  set._indexes[value] = set._values.length */\n      swap2\n      swap1\n      swap2\n      sstore\n        /* \"Utils/EnumerableSet.sol\":2513:2524  return true */\n      jump(tag_169)\n        /* \"Utils/EnumerableSet.sol\":2254:2581  if (!_contains(set, value)) {\r... */\n    tag_187:\n      pop\n        /* \"Utils/EnumerableSet.sol\":2564:2569  false */\n      0x00\n        /* \"Utils/EnumerableSet.sol\":2557:2569  return false */\n      jump(tag_169)\n        /* \"#utility.yul\":14:271   */\n    tag_47:\n        /* \"#utility.yul\":73:79   */\n      0x00\n        /* \"#utility.yul\":126:128   */\n      0x20\n        /* \"#utility.yul\":114:123   */\n      dup3\n        /* \"#utility.yul\":105:112   */\n      dup5\n        /* \"#utility.yul\":101:124   */\n      sub\n        /* \"#utility.yul\":97:129   */\n      slt\n        /* \"#utility.yul\":94:96   */\n      iszero\n      tag_193\n      jumpi\n        /* \"#utility.yul\":147:153   */\n      dup1\n        /* \"#utility.yul\":139:145   */\n      dup2\n        /* \"#utility.yul\":132:154   */\n      revert\n        /* \"#utility.yul\":94:96   */\n    tag_193:\n        /* \"#utility.yul\":191:200   */\n      dup2\n        /* \"#utility.yul\":178:201   */\n      calldataload\n        /* \"#utility.yul\":210:241   */\n      tag_194\n        /* \"#utility.yul\":235:240   */\n      dup2\n        /* \"#utility.yul\":210:241   */\n      tag_195\n      jump\t// in\n    tag_194:\n        /* \"#utility.yul\":260:265   */\n      swap4\n        /* \"#utility.yul\":84:271   */\n      swap3\n      pop\n      pop\n      pop\n      jump\t// out\n        /* \"#utility.yul\":276:1572   */\n    tag_38:\n        /* \"#utility.yul\":419:425   */\n      0x00\n        /* \"#utility.yul\":427:433   */\n      dup1\n        /* \"#utility.yul\":435:441   */\n      0x00\n        /* \"#utility.yul\":443:449   */\n      dup1\n        /* \"#utility.yul\":474:477   */\n      0x0160\n        /* \"#utility.yul\":518:520   */\n      dup1\n        /* \"#utility.yul\":506:515   */\n      dup7\n        /* \"#utility.yul\":497:504   */\n      dup9\n        /* \"#utility.yul\":493:516   */\n      sub\n        /* \"#utility.yul\":489:521   */\n      slt\n        /* \"#utility.yul\":486:488   */\n      iszero\n      tag_197\n      jumpi\n        /* \"#utility.yul\":539:545   */\n      dup4\n        /* \"#utility.yul\":531:537   */\n      dup5\n        /* \"#utility.yul\":524:546   */\n      revert\n        /* \"#utility.yul\":486:488   */\n    tag_197:\n        /* \"#utility.yul\":583:592   */\n      dup6\n        /* \"#utility.yul\":570:593   */\n      calldataload\n        /* \"#utility.yul\":602:633   */\n      tag_198\n        /* \"#utility.yul\":627:632   */\n      dup2\n        /* \"#utility.yul\":602:633   */\n      tag_195\n      jump\t// in\n    tag_198:\n        /* \"#utility.yul\":652:657   */\n      swap5\n      pop\n        /* \"#utility.yul\":676:678   */\n      0x20\n        /* \"#utility.yul\":715:733   */\n      dup7\n      dup2\n      add\n        /* \"#utility.yul\":702:734   */\n      calldataload\n        /* \"#utility.yul\":743:776   */\n      tag_199\n        /* \"#utility.yul\":702:734   */\n      dup2\n        /* \"#utility.yul\":743:776   */\n      tag_195\n      jump\t// in\n    tag_199:\n        /* \"#utility.yul\":795:802   */\n      swap5\n      pop\n        /* \"#utility.yul\":854:856   */\n      0x40\n        /* \"#utility.yul\":839:857   */\n      dup8\n      add\n        /* \"#utility.yul\":826:858   */\n      calldataload\n        /* \"#utility.yul\":867:900   */\n      tag_200\n        /* \"#utility.yul\":826:858   */\n      dup2\n        /* \"#utility.yul\":867:900   */\n      tag_195\n      jump\t// in\n    tag_200:\n        /* \"#utility.yul\":919:926   */\n      swap4\n      pop\n        /* \"#utility.yul\":964:967   */\n      0x7f\n        /* \"#utility.yul\":949:968   */\n      dup8\n      add\n        /* \"#utility.yul\":945:978   */\n      dup9\n      sgt\n        /* \"#utility.yul\":935:937   */\n      tag_201\n      jumpi\n        /* \"#utility.yul\":997:1003   */\n      dup3\n        /* \"#utility.yul\":989:995   */\n      dup4\n        /* \"#utility.yul\":982:1004   */\n      revert\n        /* \"#utility.yul\":935:937   */\n    tag_201:\n        /* \"#utility.yul\":1035:1037   */\n      0x40\n        /* \"#utility.yul\":1029:1038   */\n      mload\n        /* \"#utility.yul\":1077:1080   */\n      0x0100\n        /* \"#utility.yul\":1069:1075   */\n      dup2\n        /* \"#utility.yul\":1065:1081   */\n      add\n        /* \"#utility.yul\":1147:1153   */\n      dup2\n        /* \"#utility.yul\":1135:1145   */\n      dup2\n        /* \"#utility.yul\":1132:1154   */\n      lt\n        /* \"#utility.yul\":1111:1129   */\n      0xffffffffffffffff\n        /* \"#utility.yul\":1099:1109   */\n      dup3\n        /* \"#utility.yul\":1096:1130   */\n      gt\n        /* \"#utility.yul\":1093:1155   */\n      or\n        /* \"#utility.yul\":1090:1092   */\n      iszero\n      tag_203\n      jumpi\n        /* \"#utility.yul\":1158:1176   */\n      tag_203\n      tag_204\n      jump\t// in\n    tag_203:\n        /* \"#utility.yul\":1194:1196   */\n      0x40\n        /* \"#utility.yul\":1187:1209   */\n      mstore\n        /* \"#utility.yul\":1229:1235   */\n      dup1\n        /* \"#utility.yul\":1270:1272   */\n      0x60\n        /* \"#utility.yul\":1255:1273   */\n      dup10\n      add\n        /* \"#utility.yul\":1288:1306   */\n      dup5\n      dup11\n      add\n        /* \"#utility.yul\":1285:1316   */\n      dup12\n      lt\n        /* \"#utility.yul\":1282:1284   */\n      iszero\n      tag_205\n      jumpi\n        /* \"#utility.yul\":1334:1340   */\n      dup6\n        /* \"#utility.yul\":1326:1332   */\n      dup7\n        /* \"#utility.yul\":1319:1341   */\n      revert\n        /* \"#utility.yul\":1282:1284   */\n    tag_205:\n        /* \"#utility.yul\":1361:1367   */\n      dup6\n        /* \"#utility.yul\":1352:1367   */\n      swap5\n      pop\n        /* \"#utility.yul\":1376:1541   */\n    tag_206:\n        /* \"#utility.yul\":1390:1394   */\n      0x08\n        /* \"#utility.yul\":1387:1388   */\n      dup6\n        /* \"#utility.yul\":1384:1395   */\n      lt\n        /* \"#utility.yul\":1376:1541   */\n      iszero\n      tag_208\n      jumpi\n        /* \"#utility.yul\":1449:1466   */\n      dup1\n      calldataload\n        /* \"#utility.yul\":1437:1467   */\n      dup3\n      mstore\n        /* \"#utility.yul\":1410:1411   */\n      0x01\n        /* \"#utility.yul\":1403:1412   */\n      swap5\n      swap1\n      swap5\n      add\n      swap4\n        /* \"#utility.yul\":1487:1499   */\n      swap1\n      dup4\n      add\n      swap1\n        /* \"#utility.yul\":1519:1531   */\n      dup4\n      add\n        /* \"#utility.yul\":1376:1541   */\n      jump(tag_206)\n    tag_208:\n        /* \"#utility.yul\":1380:1383   */\n      pop\n      pop\n        /* \"#utility.yul\":1560:1566   */\n      dup1\n        /* \"#utility.yul\":1550:1566   */\n      swap4\n      pop\n      pop\n      pop\n      pop\n        /* \"#utility.yul\":454:1572   */\n      swap3\n      swap6\n      swap2\n      swap5\n      pop\n      swap3\n      pop\n      jump\t// out\n        /* \"#utility.yul\":1577:1767   */\n    tag_42:\n        /* \"#utility.yul\":1636:1642   */\n      0x00\n        /* \"#utility.yul\":1689:1691   */\n      0x20\n        /* \"#utility.yul\":1677:1686   */\n      dup3\n        /* \"#utility.yul\":1668:1675   */\n      dup5\n        /* \"#utility.yul\":1664:1687   */\n      sub\n        /* \"#utility.yul\":1660:1692   */\n      slt\n        /* \"#utility.yul\":1657:1659   */\n      iszero\n      tag_210\n      jumpi\n        /* \"#utility.yul\":1710:1716   */\n      dup1\n        /* \"#utility.yul\":1702:1708   */\n      dup2\n        /* \"#utility.yul\":1695:1717   */\n      revert\n        /* \"#utility.yul\":1657:1659   */\n    tag_210:\n      pop\n        /* \"#utility.yul\":1738:1761   */\n      calldataload\n      swap2\n        /* \"#utility.yul\":1647:1767   */\n      swap1\n      pop\n      jump\t// out\n        /* \"#utility.yul\":1772:1966   */\n    tag_150:\n        /* \"#utility.yul\":1842:1848   */\n      0x00\n        /* \"#utility.yul\":1895:1897   */\n      0x20\n        /* \"#utility.yul\":1883:1892   */\n      dup3\n        /* \"#utility.yul\":1874:1881   */\n      dup5\n        /* \"#utility.yul\":1870:1893   */\n      sub\n        /* \"#utility.yul\":1866:1898   */\n      slt\n        /* \"#utility.yul\":1863:1865   */\n      iszero\n      tag_212\n      jumpi\n        /* \"#utility.yul\":1916:1922   */\n      dup1\n        /* \"#utility.yul\":1908:1914   */\n      dup2\n        /* \"#utility.yul\":1901:1923   */\n      revert\n        /* \"#utility.yul\":1863:1865   */\n    tag_212:\n      pop\n        /* \"#utility.yul\":1944:1960   */\n      mload\n      swap2\n        /* \"#utility.yul\":1853:1966   */\n      swap1\n      pop\n      jump\t// out\n        /* \"#utility.yul\":6346:6563   */\n    tag_181:\n        /* \"#utility.yul\":6386:6387   */\n      0x00\n        /* \"#utility.yul\":6412:6413   */\n      dup3\n        /* \"#utility.yul\":6402:6404   */\n      tag_225\n      jumpi\n      shl(0xe0, 0x4e487b71)\n        /* \"#utility.yul\":6437:6468   */\n      dup2\n      mstore\n        /* \"#utility.yul\":6491:6495   */\n      0x12\n        /* \"#utility.yul\":6488:6489   */\n      0x04\n        /* \"#utility.yul\":6481:6496   */\n      mstore\n        /* \"#utility.yul\":6519:6523   */\n      0x24\n        /* \"#utility.yul\":6444:6445   */\n      dup2\n        /* \"#utility.yul\":6509:6524   */\n      revert\n        /* \"#utility.yul\":6402:6404   */\n    tag_225:\n      pop\n        /* \"#utility.yul\":6548:6557   */\n      div\n      swap1\n        /* \"#utility.yul\":6392:6563   */\n      jump\t// out\n        /* \"#utility.yul\":6568:6990   */\n    tag_226:\n        /* \"#utility.yul\":6657:6658   */\n      0x01\n        /* \"#utility.yul\":6700:6705   */\n      dup2\n        /* \"#utility.yul\":6657:6658   */\n      dup2\n        /* \"#utility.yul\":6714:6984   */\n    tag_228:\n        /* \"#utility.yul\":6735:6742   */\n      dup1\n        /* \"#utility.yul\":6725:6733   */\n      dup6\n        /* \"#utility.yul\":6722:6743   */\n      gt\n        /* \"#utility.yul\":6714:6984   */\n      iszero\n      tag_230\n      jumpi\n        /* \"#utility.yul\":6794:6798   */\n      dup2\n        /* \"#utility.yul\":6790:6791   */\n      0x00\n        /* \"#utility.yul\":6786:6792   */\n      not\n        /* \"#utility.yul\":6782:6799   */\n      div\n        /* \"#utility.yul\":6776:6780   */\n      dup3\n        /* \"#utility.yul\":6773:6800   */\n      gt\n        /* \"#utility.yul\":6770:6772   */\n      iszero\n      tag_232\n      jumpi\n        /* \"#utility.yul\":6803:6821   */\n      tag_232\n      tag_233\n      jump\t// in\n    tag_232:\n        /* \"#utility.yul\":6853:6860   */\n      dup1\n        /* \"#utility.yul\":6843:6851   */\n      dup6\n        /* \"#utility.yul\":6839:6861   */\n      and\n        /* \"#utility.yul\":6836:6838   */\n      iszero\n      tag_234\n      jumpi\n        /* \"#utility.yul\":6873:6889   */\n      swap2\n      dup2\n      mul\n      swap2\n        /* \"#utility.yul\":6836:6838   */\n    tag_234:\n        /* \"#utility.yul\":6952:6974   */\n      swap4\n      dup5\n      shr\n      swap4\n        /* \"#utility.yul\":6912:6927   */\n      swap1\n      dup1\n      mul\n      swap1\n        /* \"#utility.yul\":6714:6984   */\n      jump(tag_228)\n    tag_230:\n        /* \"#utility.yul\":6718:6721   */\n      pop\n        /* \"#utility.yul\":6632:6990   */\n      swap3\n      pop\n      swap3\n      swap1\n      pop\n      jump\t// out\n        /* \"#utility.yul\":6995:7126   */\n    tag_152:\n        /* \"#utility.yul\":7055:7060   */\n      0x00\n        /* \"#utility.yul\":7084:7120   */\n      tag_170\n        /* \"#utility.yul\":7111:7119   */\n      dup4\n        /* \"#utility.yul\":7105:7109   */\n      dup4\n        /* \"#utility.yul\":7180:7185   */\n      0x00\n        /* \"#utility.yul\":7210:7218   */\n      dup3\n        /* \"#utility.yul\":7200:7202   */\n      tag_239\n      jumpi\n      pop\n        /* \"#utility.yul\":7251:7252   */\n      0x01\n        /* \"#utility.yul\":7265:7270   */\n      jump(tag_169)\n        /* \"#utility.yul\":7200:7202   */\n    tag_239:\n        /* \"#utility.yul\":7299:7303   */\n      dup2\n        /* \"#utility.yul\":7289:7291   */\n      tag_240\n      jumpi\n      pop\n        /* \"#utility.yul\":7336:7337   */\n      0x00\n        /* \"#utility.yul\":7350:7355   */\n      jump(tag_169)\n        /* \"#utility.yul\":7289:7291   */\n    tag_240:\n        /* \"#utility.yul\":7381:7385   */\n      dup2\n        /* \"#utility.yul\":7399:7400   */\n      0x01\n        /* \"#utility.yul\":7394:7453   */\n      dup2\n      eq\n      tag_242\n      jumpi\n        /* \"#utility.yul\":7467:7468   */\n      0x02\n        /* \"#utility.yul\":7462:7592   */\n      dup2\n      eq\n      tag_243\n      jumpi\n        /* \"#utility.yul\":7374:7592   */\n      jump(tag_241)\n        /* \"#utility.yul\":7394:7453   */\n    tag_242:\n        /* \"#utility.yul\":7424:7425   */\n      0x01\n        /* \"#utility.yul\":7415:7425   */\n      swap2\n      pop\n        /* \"#utility.yul\":7438:7443   */\n      pop\n      jump(tag_169)\n        /* \"#utility.yul\":7462:7592   */\n    tag_243:\n        /* \"#utility.yul\":7499:7502   */\n      0xff\n        /* \"#utility.yul\":7489:7497   */\n      dup5\n        /* \"#utility.yul\":7486:7503   */\n      gt\n        /* \"#utility.yul\":7483:7485   */\n      iszero\n      tag_245\n      jumpi\n        /* \"#utility.yul\":7506:7524   */\n      tag_245\n      tag_233\n      jump\t// in\n    tag_245:\n      pop\n      pop\n        /* \"#utility.yul\":7562:7563   */\n      0x01\n        /* \"#utility.yul\":7548:7564   */\n      dup3\n      shl\n        /* \"#utility.yul\":7577:7582   */\n      jump(tag_169)\n        /* \"#utility.yul\":7374:7592   */\n    tag_241:\n      pop\n        /* \"#utility.yul\":7676:7678   */\n      0x20\n        /* \"#utility.yul\":7666:7674   */\n      dup4\n        /* \"#utility.yul\":7663:7679   */\n      lt\n        /* \"#utility.yul\":7657:7660   */\n      0x0133\n        /* \"#utility.yul\":7651:7655   */\n      dup4\n        /* \"#utility.yul\":7648:7661   */\n      lt\n        /* \"#utility.yul\":7644:7680   */\n      and\n        /* \"#utility.yul\":7638:7640   */\n      0x4e\n        /* \"#utility.yul\":7628:7636   */\n      dup5\n        /* \"#utility.yul\":7625:7641   */\n      lt\n        /* \"#utility.yul\":7620:7622   */\n      0x0b\n        /* \"#utility.yul\":7614:7618   */\n      dup5\n        /* \"#utility.yul\":7611:7623   */\n      lt\n        /* \"#utility.yul\":7607:7642   */\n      and\n        /* \"#utility.yul\":7604:7681   */\n      or\n        /* \"#utility.yul\":7601:7603   */\n      iszero\n      tag_246\n      jumpi\n      pop\n        /* \"#utility.yul\":7713:7732   */\n      dup2\n      dup2\n      exp\n        /* \"#utility.yul\":7745:7750   */\n      jump(tag_169)\n        /* \"#utility.yul\":7601:7603   */\n    tag_246:\n        /* \"#utility.yul\":7792:7826   */\n      tag_247\n        /* \"#utility.yul\":7817:7825   */\n      dup4\n        /* \"#utility.yul\":7811:7815   */\n      dup4\n        /* \"#utility.yul\":7792:7826   */\n      tag_226\n      jump\t// in\n    tag_247:\n        /* \"#utility.yul\":7862:7868   */\n      dup1\n        /* \"#utility.yul\":7858:7859   */\n      0x00\n        /* \"#utility.yul\":7854:7860   */\n      not\n        /* \"#utility.yul\":7850:7869   */\n      div\n        /* \"#utility.yul\":7841:7848   */\n      dup3\n        /* \"#utility.yul\":7838:7870   */\n      gt\n        /* \"#utility.yul\":7835:7837   */\n      iszero\n      tag_249\n      jumpi\n        /* \"#utility.yul\":7873:7891   */\n      tag_249\n      tag_233\n      jump\t// in\n    tag_249:\n        /* \"#utility.yul\":7911:7931   */\n      mul\n      swap4\n        /* \"#utility.yul\":7190:7937   */\n      swap3\n      pop\n      pop\n      pop\n      jump\t// out\n        /* \"#utility.yul\":7942:8110   */\n    tag_178:\n        /* \"#utility.yul\":7982:7989   */\n      0x00\n        /* \"#utility.yul\":8048:8049   */\n      dup2\n        /* \"#utility.yul\":8044:8045   */\n      0x00\n        /* \"#utility.yul\":8040:8046   */\n      not\n        /* \"#utility.yul\":8036:8050   */\n      div\n        /* \"#utility.yul\":8033:8034   */\n      dup4\n        /* \"#utility.yul\":8030:8051   */\n      gt\n        /* \"#utility.yul\":8025:8026   */\n      dup3\n        /* \"#utility.yul\":8018:8027   */\n      iszero\n        /* \"#utility.yul\":8011:8028   */\n      iszero\n        /* \"#utility.yul\":8007:8052   */\n      and\n        /* \"#utility.yul\":8004:8006   */\n      iszero\n      tag_252\n      jumpi\n        /* \"#utility.yul\":8055:8073   */\n      tag_252\n      tag_233\n      jump\t// in\n    tag_252:\n      pop\n        /* \"#utility.yul\":8095:8104   */\n      mul\n      swap1\n        /* \"#utility.yul\":7994:8110   */\n      jump\t// out\n        /* \"#utility.yul\":8115:8240   */\n    tag_111:\n        /* \"#utility.yul\":8155:8159   */\n      0x00\n        /* \"#utility.yul\":8183:8184   */\n      dup3\n        /* \"#utility.yul\":8180:8181   */\n      dup3\n        /* \"#utility.yul\":8177:8185   */\n      lt\n        /* \"#utility.yul\":8174:8176   */\n      iszero\n      tag_255\n      jumpi\n        /* \"#utility.yul\":8188:8206   */\n      tag_255\n      tag_233\n      jump\t// in\n    tag_255:\n      pop\n        /* \"#utility.yul\":8225:8234   */\n      sub\n      swap1\n        /* \"#utility.yul\":8164:8240   */\n      jump\t// out\n        /* \"#utility.yul\":8245:8372   */\n    tag_233:\n        /* \"#utility.yul\":8306:8316   */\n      0x4e487b71\n        /* \"#utility.yul\":8301:8304   */\n      0xe0\n        /* \"#utility.yul\":8297:8317   */\n      shl\n        /* \"#utility.yul\":8294:8295   */\n      0x00\n        /* \"#utility.yul\":8287:8318   */\n      mstore\n        /* \"#utility.yul\":8337:8341   */\n      0x11\n        /* \"#utility.yul\":8334:8335   */\n      0x04\n        /* \"#utility.yul\":8327:8342   */\n      mstore\n        /* \"#utility.yul\":8361:8365   */\n      0x24\n        /* \"#utility.yul\":8358:8359   */\n      0x00\n        /* \"#utility.yul\":8351:8366   */\n      revert\n        /* \"#utility.yul\":8377:8504   */\n    tag_204:\n        /* \"#utility.yul\":8438:8448   */\n      0x4e487b71\n        /* \"#utility.yul\":8433:8436   */\n      0xe0\n        /* \"#utility.yul\":8429:8449   */\n      shl\n        /* \"#utility.yul\":8426:8427   */\n      0x00\n        /* \"#utility.yul\":8419:8450   */\n      mstore\n        /* \"#utility.yul\":8469:8473   */\n      0x41\n        /* \"#utility.yul\":8466:8467   */\n      0x04\n        /* \"#utility.yul\":8459:8474   */\n      mstore\n        /* \"#utility.yul\":8493:8497   */\n      0x24\n        /* \"#utility.yul\":8490:8491   */\n      0x00\n        /* \"#utility.yul\":8483:8498   */\n      revert\n        /* \"#utility.yul\":8509:8640   */\n    tag_195:\n      sub(shl(0xa0, 0x01), 0x01)\n        /* \"#utility.yul\":8584:8615   */\n      dup2\n      and\n        /* \"#utility.yul\":8574:8616   */\n      dup2\n      eq\n        /* \"#utility.yul\":8564:8566   */\n      tag_126\n      jumpi\n        /* \"#utility.yul\":8630:8631   */\n      0x00\n        /* \"#utility.yul\":8627:8628   */\n      dup1\n        /* \"#utility.yul\":8620:8632   */\n      revert\n\n    auxdata: 0xa2646970667358221220d8a8176a8afd91a3b881c8d8332a380038f2552107bc07028337e59d24d80e3964736f6c63430008040033\n}\n",
				"bytecode": {
					"linkReferences": {},
					"object": "608060405260016000556100123361009c565b6016805473c778417e063141139fce010982780140aa0cd5ab6001600160a01b03199091161790556100646018736ccb41eeda5a073076f3e7dc1614c185b5fa41ed6100ee602090811b61081d17901c565b50610091734f0b12bbf40fc182559822a5b1db6d34dbc3e01660186100ee60201b61081d1790919060201c565b50601460175561015b565b600180546001600160a01b038381166001600160a01b0319831681179093556040519116919082907f8be0079c531659141344cd1fd0a4f28419497f9722a3daafe3b4186f6b6457e090600090a35050565b6000610103836001600160a01b03841661010c565b90505b92915050565b600081815260018301602052604081205461015357508154600181810184556000848152602080822090930184905584548482528286019093526040902091909155610106565b506000610106565b610bee8061016a6000396000f3fe6080604052600436106100f35760003560e01c80638da5cb5b1161008a578063cad5b0f711610059578063cad5b0f7146103ba578063e2d3f423146103df578063f2fde38b14610466578063f8b2cb4f1461048657600080fd5b80638da5cb5b146102f0578063acfb235514610322578063ad5c46481461037a578063b6b55f251461039a57600080fd5b80634329db46116100c65780634329db461461029357806356c5f349146102a6578063715018a6146102d3578063861faf5f146102e857600080fd5b806318856a2f146100f8578063200d2ed2146101b15780633b5ef2ad146101d457806341809260146101ea575b600080fd5b34801561010457600080fd5b50600b54600c54600d54600e54600f546010546011546012546013546014546015546101489a6001600160a01b039081169a81169916979695949392919060ff168b565b604080516001600160a01b039c8d1681529a8c1660208c015298909a16978901979097526060880195909552608087019390935260a086019190915260c085015260e0840152610100830152610120820152901515610140820152610160015b60405180910390f35b3480156101bd57600080fd5b506101c66104ae565b6040519081526020016101a8565b3480156101e057600080fd5b506101c660175481565b3480156101f657600080fd5b50610291610205366004610945565b600b80546001600160a01b03199081166001600160a01b0396871617909155600c8054821694861694909417909355600d80549093169184169182179092558151600e556020820151600f5560408201516010556060820151601155608082015160125560a082015160135560c0909101516014556016546015805460ff191691909316909114179055565b005b6102916102a1366004610a06565b6104d7565b3480156102b257600080fd5b506101c66102c1366004610922565b60036020526000908152604090205481565b3480156102df57600080fd5b50610291610511565b61029161057c565b3480156102fc57600080fd5b506001546001600160a01b03165b6040516001600160a01b0390911681526020016101a8565b34801561032e57600080fd5b5060045460055460065460075460085460095461034d95949392919086565b604080519687526020870195909552938501929092526060840152608083015260a082015260c0016101a8565b34801561038657600080fd5b5060165461030a906001600160a01b031681565b3480156103a657600080fd5b506101c66103b5366004610a06565b6105ab565b3480156103c657600080fd5b506103cf610743565b60405190151581526020016101a8565b3480156103eb57600080fd5b506104356103fa366004610922565b600260208190526000918252604090912080546001820154928201546003830154600490930154919392909160ff8082169161010090041686565b60408051968752602087019590955293850192909252606084015215156080830152151560a082015260c0016101a8565b34801561047257600080fd5b50610291610481366004610922565b610755565b34801561049257600080fd5b506101c66104a1366004610922565b6001600160a01b03163190565b600f546000904210156104c15750600090565b6010544211156104d15750600290565b50600190565b336108fc6104e58334610b60565b6040518115909202916000818181858888f1935050505015801561050d573d6000803e3d6000fd5b5050565b6001546001600160a01b031633146105705760405162461bcd60e51b815260206004820181905260248201527f4f776e61626c653a2063616c6c6572206973206e6f7420746865206f776e657260448201526064015b60405180910390fd5b61057a600061083b565b565b60405133904780156108fc02916000818181858888f193505050501580156105a8573d6000803e3d6000fd5b50565b60006105b56104ae565b6001146105f15760405162461bcd60e51b815260206004820152600a6024820152694e4f542041435449564560b01b6044820152606401610567565b336000908152600260205260408120601154909184918291906103e8908310156106505760405162461bcd60e51b815260206004820152601060248201526f4e6f7420656e6f7567682076616c756560801b6044820152606401610567565b610658610743565b610688576106858161067f856106796017548661088d90919063ffffffff16565b90610899565b906108a5565b92505b601254600090610699908590610b60565b600d546040805163313ce56760e01b81529051929350600092610736926001600160a01b03169163313ce567916004808301926020929190829003018186803b1580156106e557600080fd5b505afa1580156106f9573d6000803e3d6000fd5b505050506040513d601f19601f8201168201806040525081019061071d9190610a1e565b61072890600a610a99565b600e5461067f908890610899565b9998505050505050505050565b60006107506018336108b1565b905090565b6001546001600160a01b031633146107af5760405162461bcd60e51b815260206004820181905260248201527f4f776e61626c653a2063616c6c6572206973206e6f7420746865206f776e65726044820152606401610567565b6001600160a01b0381166108145760405162461bcd60e51b815260206004820152602660248201527f4f776e61626c653a206e6577206f776e657220697320746865207a65726f206160448201526564647265737360d01b6064820152608401610567565b6105a88161083b565b6000610832836001600160a01b0384166108d3565b90505b92915050565b600180546001600160a01b038381166001600160a01b0319831681179093556040519116919082907f8be0079c531659141344cd1fd0a4f28419497f9722a3daafe3b4186f6b6457e090600090a35050565b60006108328284610b60565b60006108328284610b41565b60006108328284610a36565b6001600160a01b03811660009081526001830160205260408120541515610832565b600081815260018301602052604081205461091a57508154600181810184556000848152602080822090930184905584548482528286019093526040902091909155610835565b506000610835565b600060208284031215610933578081fd5b813561093e81610ba3565b9392505050565b60008060008061016080868803121561095c578384fd5b853561096781610ba3565b945060208681013561097881610ba3565b9450604087013561098881610ba3565b9350607f87018813610998578283fd5b604051610100810181811067ffffffffffffffff821117156109bc576109bc610b8d565b6040528060608901848a018b10156109d2578586fd5b8594505b60088510156109f55780358252600194909401939083019083016109d6565b505080935050505092959194509250565b600060208284031215610a17578081fd5b5035919050565b600060208284031215610a2f578081fd5b5051919050565b600082610a5157634e487b7160e01b81526012600452602481fd5b500490565b600181815b80851115610a91578160001904821115610a7757610a77610b77565b80851615610a8457918102915b93841c9390800290610a5b565b509250929050565b60006108328383600082610aaf57506001610835565b81610abc57506000610835565b8160018114610ad25760028114610adc57610af8565b6001915050610835565b60ff841115610aed57610aed610b77565b50506001821b610835565b5060208310610133831016604e8410600b8410161715610b1b575081810a610835565b610b258383610a56565b8060001904821115610b3957610b39610b77565b029392505050565b6000816000190483118215151615610b5b57610b5b610b77565b500290565b600082821015610b7257610b72610b77565b500390565b634e487b7160e01b600052601160045260246000fd5b634e487b7160e01b600052604160045260246000fd5b6001600160a01b03811681146105a857600080fdfea2646970667358221220d8a8176a8afd91a3b881c8d8332a380038f2552107bc07028337e59d24d80e3964736f6c63430008040033",
					"opcodes": "PUSH1 0x80 PUSH1 0x40 MSTORE PUSH1 0x1 PUSH1 0x0 SSTORE PUSH2 0x12 CALLER PUSH2 0x9C JUMP JUMPDEST PUSH1 0x16 DUP1 SLOAD PUSH20 0xC778417E063141139FCE010982780140AA0CD5AB PUSH1 0x1 PUSH1 0x1 PUSH1 0xA0 SHL SUB NOT SWAP1 SWAP2 AND OR SWAP1 SSTORE PUSH2 0x64 PUSH1 0x18 PUSH20 0x6CCB41EEDA5A073076F3E7DC1614C185B5FA41ED PUSH2 0xEE PUSH1 0x20 SWAP1 DUP2 SHL PUSH2 0x81D OR SWAP1 SHR JUMP JUMPDEST POP PUSH2 0x91 PUSH20 0x4F0B12BBF40FC182559822A5B1DB6D34DBC3E016 PUSH1 0x18 PUSH2 0xEE PUSH1 0x20 SHL PUSH2 0x81D OR SWAP1 SWAP2 SWAP1 PUSH1 0x20 SHR JUMP JUMPDEST POP PUSH1 0x14 PUSH1 0x17 SSTORE PUSH2 0x15B JUMP JUMPDEST PUSH1 0x1 DUP1 SLOAD PUSH1 0x1 PUSH1 0x1 PUSH1 0xA0 SHL SUB DUP4 DUP2 AND PUSH1 0x1 PUSH1 0x1 PUSH1 0xA0 SHL SUB NOT DUP4 AND DUP2 OR SWAP1 SWAP4 SSTORE PUSH1 0x40 MLOAD SWAP2 AND SWAP2 SWAP1 DUP3 SWAP1 PUSH32 0x8BE0079C531659141344CD1FD0A4F28419497F9722A3DAAFE3B4186F6B6457E0 SWAP1 PUSH1 0x0 SWAP1 LOG3 POP POP JUMP JUMPDEST PUSH1 0x0 PUSH2 0x103 DUP4 PUSH1 0x1 PUSH1 0x1 PUSH1 0xA0 SHL SUB DUP5 AND PUSH2 0x10C JUMP JUMPDEST SWAP1 POP JUMPDEST SWAP3 SWAP2 POP POP JUMP JUMPDEST PUSH1 0x0 DUP2 DUP2 MSTORE PUSH1 0x1 DUP4 ADD PUSH1 0x20 MSTORE PUSH1 0x40 DUP2 KECCAK256 SLOAD PUSH2 0x153 JUMPI POP DUP2 SLOAD PUSH1 0x1 DUP2 DUP2 ADD DUP5 SSTORE PUSH1 0x0 DUP5 DUP2 MSTORE PUSH1 0x20 DUP1 DUP3 KECCAK256 SWAP1 SWAP4 ADD DUP5 SWAP1 SSTORE DUP5 SLOAD DUP5 DUP3 MSTORE DUP3 DUP7 ADD SWAP1 SWAP4 MSTORE PUSH1 0x40 SWAP1 KECCAK256 SWAP2 SWAP1 SWAP2 SSTORE PUSH2 0x106 JUMP JUMPDEST POP PUSH1 0x0 PUSH2 0x106 JUMP JUMPDEST PUSH2 0xBEE DUP1 PUSH2 0x16A PUSH1 0x0 CODECOPY PUSH1 0x0 RETURN INVALID PUSH1 0x80 PUSH1 0x40 MSTORE PUSH1 0x4 CALLDATASIZE LT PUSH2 0xF3 JUMPI PUSH1 0x0 CALLDATALOAD PUSH1 0xE0 SHR DUP1 PUSH4 0x8DA5CB5B GT PUSH2 0x8A JUMPI DUP1 PUSH4 0xCAD5B0F7 GT PUSH2 0x59 JUMPI DUP1 PUSH4 0xCAD5B0F7 EQ PUSH2 0x3BA JUMPI DUP1 PUSH4 0xE2D3F423 EQ PUSH2 0x3DF JUMPI DUP1 PUSH4 0xF2FDE38B EQ PUSH2 0x466 JUMPI DUP1 PUSH4 0xF8B2CB4F EQ PUSH2 0x486 JUMPI PUSH1 0x0 DUP1 REVERT JUMPDEST DUP1 PUSH4 0x8DA5CB5B EQ PUSH2 0x2F0 JUMPI DUP1 PUSH4 0xACFB2355 EQ PUSH2 0x322 JUMPI DUP1 PUSH4 0xAD5C4648 EQ PUSH2 0x37A JUMPI DUP1 PUSH4 0xB6B55F25 EQ PUSH2 0x39A JUMPI PUSH1 0x0 DUP1 REVERT JUMPDEST DUP1 PUSH4 0x4329DB46 GT PUSH2 0xC6 JUMPI DUP1 PUSH4 0x4329DB46 EQ PUSH2 0x293 JUMPI DUP1 PUSH4 0x56C5F349 EQ PUSH2 0x2A6 JUMPI DUP1 PUSH4 0x715018A6 EQ PUSH2 0x2D3 JUMPI DUP1 PUSH4 0x861FAF5F EQ PUSH2 0x2E8 JUMPI PUSH1 0x0 DUP1 REVERT JUMPDEST DUP1 PUSH4 0x18856A2F EQ PUSH2 0xF8 JUMPI DUP1 PUSH4 0x200D2ED2 EQ PUSH2 0x1B1 JUMPI DUP1 PUSH4 0x3B5EF2AD EQ PUSH2 0x1D4 JUMPI DUP1 PUSH4 0x41809260 EQ PUSH2 0x1EA JUMPI JUMPDEST PUSH1 0x0 DUP1 REVERT JUMPDEST CALLVALUE DUP1 ISZERO PUSH2 0x104 JUMPI PUSH1 0x0 DUP1 REVERT JUMPDEST POP PUSH1 0xB SLOAD PUSH1 0xC SLOAD PUSH1 0xD SLOAD PUSH1 0xE SLOAD PUSH1 0xF SLOAD PUSH1 0x10 SLOAD PUSH1 0x11 SLOAD PUSH1 0x12 SLOAD PUSH1 0x13 SLOAD PUSH1 0x14 SLOAD PUSH1 0x15 SLOAD PUSH2 0x148 SWAP11 PUSH1 0x1 PUSH1 0x1 PUSH1 0xA0 SHL SUB SWAP1 DUP2 AND SWAP11 DUP2 AND SWAP10 AND SWAP8 SWAP7 SWAP6 SWAP5 SWAP4 SWAP3 SWAP2 SWAP1 PUSH1 0xFF AND DUP12 JUMP JUMPDEST PUSH1 0x40 DUP1 MLOAD PUSH1 0x1 PUSH1 0x1 PUSH1 0xA0 SHL SUB SWAP13 DUP14 AND DUP2 MSTORE SWAP11 DUP13 AND PUSH1 0x20 DUP13 ADD MSTORE SWAP9 SWAP1 SWAP11 AND SWAP8 DUP10 ADD SWAP8 SWAP1 SWAP8 MSTORE PUSH1 0x60 DUP9 ADD SWAP6 SWAP1 SWAP6 MSTORE PUSH1 0x80 DUP8 ADD SWAP4 SWAP1 SWAP4 MSTORE PUSH1 0xA0 DUP7 ADD SWAP2 SWAP1 SWAP2 MSTORE PUSH1 0xC0 DUP6 ADD MSTORE PUSH1 0xE0 DUP5 ADD MSTORE PUSH2 0x100 DUP4 ADD MSTORE PUSH2 0x120 DUP3 ADD MSTORE SWAP1 ISZERO ISZERO PUSH2 0x140 DUP3 ADD MSTORE PUSH2 0x160 ADD JUMPDEST PUSH1 0x40 MLOAD DUP1 SWAP2 SUB SWAP1 RETURN JUMPDEST CALLVALUE DUP1 ISZERO PUSH2 0x1BD JUMPI PUSH1 0x0 DUP1 REVERT JUMPDEST POP PUSH2 0x1C6 PUSH2 0x4AE JUMP JUMPDEST PUSH1 0x40 MLOAD SWAP1 DUP2 MSTORE PUSH1 0x20 ADD PUSH2 0x1A8 JUMP JUMPDEST CALLVALUE DUP1 ISZERO PUSH2 0x1E0 JUMPI PUSH1 0x0 DUP1 REVERT JUMPDEST POP PUSH2 0x1C6 PUSH1 0x17 SLOAD DUP2 JUMP JUMPDEST CALLVALUE DUP1 ISZERO PUSH2 0x1F6 JUMPI PUSH1 0x0 DUP1 REVERT JUMPDEST POP PUSH2 0x291 PUSH2 0x205 CALLDATASIZE PUSH1 0x4 PUSH2 0x945 JUMP JUMPDEST PUSH1 0xB DUP1 SLOAD PUSH1 0x1 PUSH1 0x1 PUSH1 0xA0 SHL SUB NOT SWAP1 DUP2 AND PUSH1 0x1 PUSH1 0x1 PUSH1 0xA0 SHL SUB SWAP7 DUP8 AND OR SWAP1 SWAP2 SSTORE PUSH1 0xC DUP1 SLOAD DUP3 AND SWAP5 DUP7 AND SWAP5 SWAP1 SWAP5 OR SWAP1 SWAP4 SSTORE PUSH1 0xD DUP1 SLOAD SWAP1 SWAP4 AND SWAP2 DUP5 AND SWAP2 DUP3 OR SWAP1 SWAP3 SSTORE DUP2 MLOAD PUSH1 0xE SSTORE PUSH1 0x20 DUP3 ADD MLOAD PUSH1 0xF SSTORE PUSH1 0x40 DUP3 ADD MLOAD PUSH1 0x10 SSTORE PUSH1 0x60 DUP3 ADD MLOAD PUSH1 0x11 SSTORE PUSH1 0x80 DUP3 ADD MLOAD PUSH1 0x12 SSTORE PUSH1 0xA0 DUP3 ADD MLOAD PUSH1 0x13 SSTORE PUSH1 0xC0 SWAP1 SWAP2 ADD MLOAD PUSH1 0x14 SSTORE PUSH1 0x16 SLOAD PUSH1 0x15 DUP1 SLOAD PUSH1 0xFF NOT AND SWAP2 SWAP1 SWAP4 AND SWAP1 SWAP2 EQ OR SWAP1 SSTORE JUMP JUMPDEST STOP JUMPDEST PUSH2 0x291 PUSH2 0x2A1 CALLDATASIZE PUSH1 0x4 PUSH2 0xA06 JUMP JUMPDEST PUSH2 0x4D7 JUMP JUMPDEST CALLVALUE DUP1 ISZERO PUSH2 0x2B2 JUMPI PUSH1 0x0 DUP1 REVERT JUMPDEST POP PUSH2 0x1C6 PUSH2 0x2C1 CALLDATASIZE PUSH1 0x4 PUSH2 0x922 JUMP JUMPDEST PUSH1 0x3 PUSH1 0x20 MSTORE PUSH1 0x0 SWAP1 DUP2 MSTORE PUSH1 0x40 SWAP1 KECCAK256 SLOAD DUP2 JUMP JUMPDEST CALLVALUE DUP1 ISZERO PUSH2 0x2DF JUMPI PUSH1 0x0 DUP1 REVERT JUMPDEST POP PUSH2 0x291 PUSH2 0x511 JUMP JUMPDEST PUSH2 0x291 PUSH2 0x57C JUMP JUMPDEST CALLVALUE DUP1 ISZERO PUSH2 0x2FC JUMPI PUSH1 0x0 DUP1 REVERT JUMPDEST POP PUSH1 0x1 SLOAD PUSH1 0x1 PUSH1 0x1 PUSH1 0xA0 SHL SUB AND JUMPDEST PUSH1 0x40 MLOAD PUSH1 0x1 PUSH1 0x1 PUSH1 0xA0 SHL SUB SWAP1 SWAP2 AND DUP2 MSTORE PUSH1 0x20 ADD PUSH2 0x1A8 JUMP JUMPDEST CALLVALUE DUP1 ISZERO PUSH2 0x32E JUMPI PUSH1 0x0 DUP1 REVERT JUMPDEST POP PUSH1 0x4 SLOAD PUSH1 0x5 SLOAD PUSH1 0x6 SLOAD PUSH1 0x7 SLOAD PUSH1 0x8 SLOAD PUSH1 0x9 SLOAD PUSH2 0x34D SWAP6 SWAP5 SWAP4 SWAP3 SWAP2 SWAP1 DUP7 JUMP JUMPDEST PUSH1 0x40 DUP1 MLOAD SWAP7 DUP8 MSTORE PUSH1 0x20 DUP8 ADD SWAP6 SWAP1 SWAP6 MSTORE SWAP4 DUP6 ADD SWAP3 SWAP1 SWAP3 MSTORE PUSH1 0x60 DUP5 ADD MSTORE PUSH1 0x80 DUP4 ADD MSTORE PUSH1 0xA0 DUP3 ADD MSTORE PUSH1 0xC0 ADD PUSH2 0x1A8 JUMP JUMPDEST CALLVALUE DUP1 ISZERO PUSH2 0x386 JUMPI PUSH1 0x0 DUP1 REVERT JUMPDEST POP PUSH1 0x16 SLOAD PUSH2 0x30A SWAP1 PUSH1 0x1 PUSH1 0x1 PUSH1 0xA0 SHL SUB AND DUP2 JUMP JUMPDEST CALLVALUE DUP1 ISZERO PUSH2 0x3A6 JUMPI PUSH1 0x0 DUP1 REVERT JUMPDEST POP PUSH2 0x1C6 PUSH2 0x3B5 CALLDATASIZE PUSH1 0x4 PUSH2 0xA06 JUMP JUMPDEST PUSH2 0x5AB JUMP JUMPDEST CALLVALUE DUP1 ISZERO PUSH2 0x3C6 JUMPI PUSH1 0x0 DUP1 REVERT JUMPDEST POP PUSH2 0x3CF PUSH2 0x743 JUMP JUMPDEST PUSH1 0x40 MLOAD SWAP1 ISZERO ISZERO DUP2 MSTORE PUSH1 0x20 ADD PUSH2 0x1A8 JUMP JUMPDEST CALLVALUE DUP1 ISZERO PUSH2 0x3EB JUMPI PUSH1 0x0 DUP1 REVERT JUMPDEST POP PUSH2 0x435 PUSH2 0x3FA CALLDATASIZE PUSH1 0x4 PUSH2 0x922 JUMP JUMPDEST PUSH1 0x2 PUSH1 0x20 DUP2 SWAP1 MSTORE PUSH1 0x0 SWAP2 DUP3 MSTORE PUSH1 0x40 SWAP1 SWAP2 KECCAK256 DUP1 SLOAD PUSH1 0x1 DUP3 ADD SLOAD SWAP3 DUP3 ADD SLOAD PUSH1 0x3 DUP4 ADD SLOAD PUSH1 0x4 SWAP1 SWAP4 ADD SLOAD SWAP2 SWAP4 SWAP3 SWAP1 SWAP2 PUSH1 0xFF DUP1 DUP3 AND SWAP2 PUSH2 0x100 SWAP1 DIV AND DUP7 JUMP JUMPDEST PUSH1 0x40 DUP1 MLOAD SWAP7 DUP8 MSTORE PUSH1 0x20 DUP8 ADD SWAP6 SWAP1 SWAP6 MSTORE SWAP4 DUP6 ADD SWAP3 SWAP1 SWAP3 MSTORE PUSH1 0x60 DUP5 ADD MSTORE ISZERO ISZERO PUSH1 0x80 DUP4 ADD MSTORE ISZERO ISZERO PUSH1 0xA0 DUP3 ADD MSTORE PUSH1 0xC0 ADD PUSH2 0x1A8 JUMP JUMPDEST CALLVALUE DUP1 ISZERO PUSH2 0x472 JUMPI PUSH1 0x0 DUP1 REVERT JUMPDEST POP PUSH2 0x291 PUSH2 0x481 CALLDATASIZE PUSH1 0x4 PUSH2 0x922 JUMP JUMPDEST PUSH2 0x755 JUMP JUMPDEST CALLVALUE DUP1 ISZERO PUSH2 0x492 JUMPI PUSH1 0x0 DUP1 REVERT JUMPDEST POP PUSH2 0x1C6 PUSH2 0x4A1 CALLDATASIZE PUSH1 0x4 PUSH2 0x922 JUMP JUMPDEST PUSH1 0x1 PUSH1 0x1 PUSH1 0xA0 SHL SUB AND BALANCE SWAP1 JUMP JUMPDEST PUSH1 0xF SLOAD PUSH1 0x0 SWAP1 TIMESTAMP LT ISZERO PUSH2 0x4C1 JUMPI POP PUSH1 0x0 SWAP1 JUMP JUMPDEST PUSH1 0x10 SLOAD TIMESTAMP GT ISZERO PUSH2 0x4D1 JUMPI POP PUSH1 0x2 SWAP1 JUMP JUMPDEST POP PUSH1 0x1 SWAP1 JUMP JUMPDEST CALLER PUSH2 0x8FC PUSH2 0x4E5 DUP4 CALLVALUE PUSH2 0xB60 JUMP JUMPDEST PUSH1 0x40 MLOAD DUP2 ISZERO SWAP1 SWAP3 MUL SWAP2 PUSH1 0x0 DUP2 DUP2 DUP2 DUP6 DUP9 DUP9 CALL SWAP4 POP POP POP POP ISZERO DUP1 ISZERO PUSH2 0x50D JUMPI RETURNDATASIZE PUSH1 0x0 DUP1 RETURNDATACOPY RETURNDATASIZE PUSH1 0x0 REVERT JUMPDEST POP POP JUMP JUMPDEST PUSH1 0x1 SLOAD PUSH1 0x1 PUSH1 0x1 PUSH1 0xA0 SHL SUB AND CALLER EQ PUSH2 0x570 JUMPI PUSH1 0x40 MLOAD PUSH3 0x461BCD PUSH1 0xE5 SHL DUP2 MSTORE PUSH1 0x20 PUSH1 0x4 DUP3 ADD DUP2 SWAP1 MSTORE PUSH1 0x24 DUP3 ADD MSTORE PUSH32 0x4F776E61626C653A2063616C6C6572206973206E6F7420746865206F776E6572 PUSH1 0x44 DUP3 ADD MSTORE PUSH1 0x64 ADD JUMPDEST PUSH1 0x40 MLOAD DUP1 SWAP2 SUB SWAP1 REVERT JUMPDEST PUSH2 0x57A PUSH1 0x0 PUSH2 0x83B JUMP JUMPDEST JUMP JUMPDEST PUSH1 0x40 MLOAD CALLER SWAP1 SELFBALANCE DUP1 ISZERO PUSH2 0x8FC MUL SWAP2 PUSH1 0x0 DUP2 DUP2 DUP2 DUP6 DUP9 DUP9 CALL SWAP4 POP POP POP POP ISZERO DUP1 ISZERO PUSH2 0x5A8 JUMPI RETURNDATASIZE PUSH1 0x0 DUP1 RETURNDATACOPY RETURNDATASIZE PUSH1 0x0 REVERT JUMPDEST POP JUMP JUMPDEST PUSH1 0x0 PUSH2 0x5B5 PUSH2 0x4AE JUMP JUMPDEST PUSH1 0x1 EQ PUSH2 0x5F1 JUMPI PUSH1 0x40 MLOAD PUSH3 0x461BCD PUSH1 0xE5 SHL DUP2 MSTORE PUSH1 0x20 PUSH1 0x4 DUP3 ADD MSTORE PUSH1 0xA PUSH1 0x24 DUP3 ADD MSTORE PUSH10 0x4E4F5420414354495645 PUSH1 0xB0 SHL PUSH1 0x44 DUP3 ADD MSTORE PUSH1 0x64 ADD PUSH2 0x567 JUMP JUMPDEST CALLER PUSH1 0x0 SWAP1 DUP2 MSTORE PUSH1 0x2 PUSH1 0x20 MSTORE PUSH1 0x40 DUP2 KECCAK256 PUSH1 0x11 SLOAD SWAP1 SWAP2 DUP5 SWAP2 DUP3 SWAP2 SWAP1 PUSH2 0x3E8 SWAP1 DUP4 LT ISZERO PUSH2 0x650 JUMPI PUSH1 0x40 MLOAD PUSH3 0x461BCD PUSH1 0xE5 SHL DUP2 MSTORE PUSH1 0x20 PUSH1 0x4 DUP3 ADD MSTORE PUSH1 0x10 PUSH1 0x24 DUP3 ADD MSTORE PUSH16 0x4E6F7420656E6F7567682076616C7565 PUSH1 0x80 SHL PUSH1 0x44 DUP3 ADD MSTORE PUSH1 0x64 ADD PUSH2 0x567 JUMP JUMPDEST PUSH2 0x658 PUSH2 0x743 JUMP JUMPDEST PUSH2 0x688 JUMPI PUSH2 0x685 DUP2 PUSH2 0x67F DUP6 PUSH2 0x679 PUSH1 0x17 SLOAD DUP7 PUSH2 0x88D SWAP1 SWAP2 SWAP1 PUSH4 0xFFFFFFFF AND JUMP JUMPDEST SWAP1 PUSH2 0x899 JUMP JUMPDEST SWAP1 PUSH2 0x8A5 JUMP JUMPDEST SWAP3 POP JUMPDEST PUSH1 0x12 SLOAD PUSH1 0x0 SWAP1 PUSH2 0x699 SWAP1 DUP6 SWAP1 PUSH2 0xB60 JUMP JUMPDEST PUSH1 0xD SLOAD PUSH1 0x40 DUP1 MLOAD PUSH4 0x313CE567 PUSH1 0xE0 SHL DUP2 MSTORE SWAP1 MLOAD SWAP3 SWAP4 POP PUSH1 0x0 SWAP3 PUSH2 0x736 SWAP3 PUSH1 0x1 PUSH1 0x1 PUSH1 0xA0 SHL SUB AND SWAP2 PUSH4 0x313CE567 SWAP2 PUSH1 0x4 DUP1 DUP4 ADD SWAP3 PUSH1 0x20 SWAP3 SWAP2 SWAP1 DUP3 SWAP1 SUB ADD DUP2 DUP7 DUP1 EXTCODESIZE ISZERO DUP1 ISZERO PUSH2 0x6E5 JUMPI PUSH1 0x0 DUP1 REVERT JUMPDEST POP GAS STATICCALL ISZERO DUP1 ISZERO PUSH2 0x6F9 JUMPI RETURNDATASIZE PUSH1 0x0 DUP1 RETURNDATACOPY RETURNDATASIZE PUSH1 0x0 REVERT JUMPDEST POP POP POP POP PUSH1 0x40 MLOAD RETURNDATASIZE PUSH1 0x1F NOT PUSH1 0x1F DUP3 ADD AND DUP3 ADD DUP1 PUSH1 0x40 MSTORE POP DUP2 ADD SWAP1 PUSH2 0x71D SWAP2 SWAP1 PUSH2 0xA1E JUMP JUMPDEST PUSH2 0x728 SWAP1 PUSH1 0xA PUSH2 0xA99 JUMP JUMPDEST PUSH1 0xE SLOAD PUSH2 0x67F SWAP1 DUP9 SWAP1 PUSH2 0x899 JUMP JUMPDEST SWAP10 SWAP9 POP POP POP POP POP POP POP POP POP JUMP JUMPDEST PUSH1 0x0 PUSH2 0x750 PUSH1 0x18 CALLER PUSH2 0x8B1 JUMP JUMPDEST SWAP1 POP SWAP1 JUMP JUMPDEST PUSH1 0x1 SLOAD PUSH1 0x1 PUSH1 0x1 PUSH1 0xA0 SHL SUB AND CALLER EQ PUSH2 0x7AF JUMPI PUSH1 0x40 MLOAD PUSH3 0x461BCD PUSH1 0xE5 SHL DUP2 MSTORE PUSH1 0x20 PUSH1 0x4 DUP3 ADD DUP2 SWAP1 MSTORE PUSH1 0x24 DUP3 ADD MSTORE PUSH32 0x4F776E61626C653A2063616C6C6572206973206E6F7420746865206F776E6572 PUSH1 0x44 DUP3 ADD MSTORE PUSH1 0x64 ADD PUSH2 0x567 JUMP JUMPDEST PUSH1 0x1 PUSH1 0x1 PUSH1 0xA0 SHL SUB DUP2 AND PUSH2 0x814 JUMPI PUSH1 0x40 MLOAD PUSH3 0x461BCD PUSH1 0xE5 SHL DUP2 MSTORE PUSH1 0x20 PUSH1 0x4 DUP3 ADD MSTORE PUSH1 0x26 PUSH1 0x24 DUP3 ADD MSTORE PUSH32 0x4F776E61626C653A206E6577206F776E657220697320746865207A65726F2061 PUSH1 0x44 DUP3 ADD MSTORE PUSH6 0x646472657373 PUSH1 0xD0 SHL PUSH1 0x64 DUP3 ADD MSTORE PUSH1 0x84 ADD PUSH2 0x567 JUMP JUMPDEST PUSH2 0x5A8 DUP2 PUSH2 0x83B JUMP JUMPDEST PUSH1 0x0 PUSH2 0x832 DUP4 PUSH1 0x1 PUSH1 0x1 PUSH1 0xA0 SHL SUB DUP5 AND PUSH2 0x8D3 JUMP JUMPDEST SWAP1 POP JUMPDEST SWAP3 SWAP2 POP POP JUMP JUMPDEST PUSH1 0x1 DUP1 SLOAD PUSH1 0x1 PUSH1 0x1 PUSH1 0xA0 SHL SUB DUP4 DUP2 AND PUSH1 0x1 PUSH1 0x1 PUSH1 0xA0 SHL SUB NOT DUP4 AND DUP2 OR SWAP1 SWAP4 SSTORE PUSH1 0x40 MLOAD SWAP2 AND SWAP2 SWAP1 DUP3 SWAP1 PUSH32 0x8BE0079C531659141344CD1FD0A4F28419497F9722A3DAAFE3B4186F6B6457E0 SWAP1 PUSH1 0x0 SWAP1 LOG3 POP POP JUMP JUMPDEST PUSH1 0x0 PUSH2 0x832 DUP3 DUP5 PUSH2 0xB60 JUMP JUMPDEST PUSH1 0x0 PUSH2 0x832 DUP3 DUP5 PUSH2 0xB41 JUMP JUMPDEST PUSH1 0x0 PUSH2 0x832 DUP3 DUP5 PUSH2 0xA36 JUMP JUMPDEST PUSH1 0x1 PUSH1 0x1 PUSH1 0xA0 SHL SUB DUP2 AND PUSH1 0x0 SWAP1 DUP2 MSTORE PUSH1 0x1 DUP4 ADD PUSH1 0x20 MSTORE PUSH1 0x40 DUP2 KECCAK256 SLOAD ISZERO ISZERO PUSH2 0x832 JUMP JUMPDEST PUSH1 0x0 DUP2 DUP2 MSTORE PUSH1 0x1 DUP4 ADD PUSH1 0x20 MSTORE PUSH1 0x40 DUP2 KECCAK256 SLOAD PUSH2 0x91A JUMPI POP DUP2 SLOAD PUSH1 0x1 DUP2 DUP2 ADD DUP5 SSTORE PUSH1 0x0 DUP5 DUP2 MSTORE PUSH1 0x20 DUP1 DUP3 KECCAK256 SWAP1 SWAP4 ADD DUP5 SWAP1 SSTORE DUP5 SLOAD DUP5 DUP3 MSTORE DUP3 DUP7 ADD SWAP1 SWAP4 MSTORE PUSH1 0x40 SWAP1 KECCAK256 SWAP2 SWAP1 SWAP2 SSTORE PUSH2 0x835 JUMP JUMPDEST POP PUSH1 0x0 PUSH2 0x835 JUMP JUMPDEST PUSH1 0x0 PUSH1 0x20 DUP3 DUP5 SUB SLT ISZERO PUSH2 0x933 JUMPI DUP1 DUP2 REVERT JUMPDEST DUP2 CALLDATALOAD PUSH2 0x93E DUP2 PUSH2 0xBA3 JUMP JUMPDEST SWAP4 SWAP3 POP POP POP JUMP JUMPDEST PUSH1 0x0 DUP1 PUSH1 0x0 DUP1 PUSH2 0x160 DUP1 DUP7 DUP9 SUB SLT ISZERO PUSH2 0x95C JUMPI DUP4 DUP5 REVERT JUMPDEST DUP6 CALLDATALOAD PUSH2 0x967 DUP2 PUSH2 0xBA3 JUMP JUMPDEST SWAP5 POP PUSH1 0x20 DUP7 DUP2 ADD CALLDATALOAD PUSH2 0x978 DUP2 PUSH2 0xBA3 JUMP JUMPDEST SWAP5 POP PUSH1 0x40 DUP8 ADD CALLDATALOAD PUSH2 0x988 DUP2 PUSH2 0xBA3 JUMP JUMPDEST SWAP4 POP PUSH1 0x7F DUP8 ADD DUP9 SGT PUSH2 0x998 JUMPI DUP3 DUP4 REVERT JUMPDEST PUSH1 0x40 MLOAD PUSH2 0x100 DUP2 ADD DUP2 DUP2 LT PUSH8 0xFFFFFFFFFFFFFFFF DUP3 GT OR ISZERO PUSH2 0x9BC JUMPI PUSH2 0x9BC PUSH2 0xB8D JUMP JUMPDEST PUSH1 0x40 MSTORE DUP1 PUSH1 0x60 DUP10 ADD DUP5 DUP11 ADD DUP12 LT ISZERO PUSH2 0x9D2 JUMPI DUP6 DUP7 REVERT JUMPDEST DUP6 SWAP5 POP JUMPDEST PUSH1 0x8 DUP6 LT ISZERO PUSH2 0x9F5 JUMPI DUP1 CALLDATALOAD DUP3 MSTORE PUSH1 0x1 SWAP5 SWAP1 SWAP5 ADD SWAP4 SWAP1 DUP4 ADD SWAP1 DUP4 ADD PUSH2 0x9D6 JUMP JUMPDEST POP POP DUP1 SWAP4 POP POP POP POP SWAP3 SWAP6 SWAP2 SWAP5 POP SWAP3 POP JUMP JUMPDEST PUSH1 0x0 PUSH1 0x20 DUP3 DUP5 SUB SLT ISZERO PUSH2 0xA17 JUMPI DUP1 DUP2 REVERT JUMPDEST POP CALLDATALOAD SWAP2 SWAP1 POP JUMP JUMPDEST PUSH1 0x0 PUSH1 0x20 DUP3 DUP5 SUB SLT ISZERO PUSH2 0xA2F JUMPI DUP1 DUP2 REVERT JUMPDEST POP MLOAD SWAP2 SWAP1 POP JUMP JUMPDEST PUSH1 0x0 DUP3 PUSH2 0xA51 JUMPI PUSH4 0x4E487B71 PUSH1 0xE0 SHL DUP2 MSTORE PUSH1 0x12 PUSH1 0x4 MSTORE PUSH1 0x24 DUP2 REVERT JUMPDEST POP DIV SWAP1 JUMP JUMPDEST PUSH1 0x1 DUP2 DUP2 JUMPDEST DUP1 DUP6 GT ISZERO PUSH2 0xA91 JUMPI DUP2 PUSH1 0x0 NOT DIV DUP3 GT ISZERO PUSH2 0xA77 JUMPI PUSH2 0xA77 PUSH2 0xB77 JUMP JUMPDEST DUP1 DUP6 AND ISZERO PUSH2 0xA84 JUMPI SWAP2 DUP2 MUL SWAP2 JUMPDEST SWAP4 DUP5 SHR SWAP4 SWAP1 DUP1 MUL SWAP1 PUSH2 0xA5B JUMP JUMPDEST POP SWAP3 POP SWAP3 SWAP1 POP JUMP JUMPDEST PUSH1 0x0 PUSH2 0x832 DUP4 DUP4 PUSH1 0x0 DUP3 PUSH2 0xAAF JUMPI POP PUSH1 0x1 PUSH2 0x835 JUMP JUMPDEST DUP2 PUSH2 0xABC JUMPI POP PUSH1 0x0 PUSH2 0x835 JUMP JUMPDEST DUP2 PUSH1 0x1 DUP2 EQ PUSH2 0xAD2 JUMPI PUSH1 0x2 DUP2 EQ PUSH2 0xADC JUMPI PUSH2 0xAF8 JUMP JUMPDEST PUSH1 0x1 SWAP2 POP POP PUSH2 0x835 JUMP JUMPDEST PUSH1 0xFF DUP5 GT ISZERO PUSH2 0xAED JUMPI PUSH2 0xAED PUSH2 0xB77 JUMP JUMPDEST POP POP PUSH1 0x1 DUP3 SHL PUSH2 0x835 JUMP JUMPDEST POP PUSH1 0x20 DUP4 LT PUSH2 0x133 DUP4 LT AND PUSH1 0x4E DUP5 LT PUSH1 0xB DUP5 LT AND OR ISZERO PUSH2 0xB1B JUMPI POP DUP2 DUP2 EXP PUSH2 0x835 JUMP JUMPDEST PUSH2 0xB25 DUP4 DUP4 PUSH2 0xA56 JUMP JUMPDEST DUP1 PUSH1 0x0 NOT DIV DUP3 GT ISZERO PUSH2 0xB39 JUMPI PUSH2 0xB39 PUSH2 0xB77 JUMP JUMPDEST MUL SWAP4 SWAP3 POP POP POP JUMP JUMPDEST PUSH1 0x0 DUP2 PUSH1 0x0 NOT DIV DUP4 GT DUP3 ISZERO ISZERO AND ISZERO PUSH2 0xB5B JUMPI PUSH2 0xB5B PUSH2 0xB77 JUMP JUMPDEST POP MUL SWAP1 JUMP JUMPDEST PUSH1 0x0 DUP3 DUP3 LT ISZERO PUSH2 0xB72 JUMPI PUSH2 0xB72 PUSH2 0xB77 JUMP JUMPDEST POP SUB SWAP1 JUMP JUMPDEST PUSH4 0x4E487B71 PUSH1 0xE0 SHL PUSH1 0x0 MSTORE PUSH1 0x11 PUSH1 0x4 MSTORE PUSH1 0x24 PUSH1 0x0 REVERT JUMPDEST PUSH4 0x4E487B71 PUSH1 0xE0 SHL PUSH1 0x0 MSTORE PUSH1 0x41 PUSH1 0x4 MSTORE PUSH1 0x24 PUSH1 0x0 REVERT JUMPDEST PUSH1 0x1 PUSH1 0x1 PUSH1 0xA0 SHL SUB DUP2 AND DUP2 EQ PUSH2 0x5A8 JUMPI PUSH1 0x0 DUP1 REVERT INVALID LOG2 PUSH5 0x6970667358 0x22 SLT KECCAK256 0xD8 0xA8 OR PUSH11 0x8AFD91A3B881C8D8332A38 STOP CODESIZE CALLCODE SSTORE 0x21 SMOD 0xBC SMOD MUL DUP4 CALLDATACOPY 0xE5 SWAP14 0x24 0xD8 0xE CODECOPY PUSH5 0x736F6C6343 STOP ADDMOD DIV STOP CALLER "
				},
				"gasEstimates": {
					"creation": {
						"codeDepositCost": "610800",
						"executionCost": "infinite",
						"totalCost": "infinite"
					},
					"external": {
						"WETH()": "1104",
						"backToken()": "infinite",
						"buyerInfo(address)": "4660",
						"checkAdminAddress()": "1199",
						"deposit(uint256)": "infinite",
						"feeAnyone()": "1063",
						"getBalance(address)": "1150",
						"initialSaleInfor(address,address,address,uint256[8])": "infinite",
						"owner()": "1043",
						"presaleStatus()": "5169",
						"renounceOwnership()": "23484",
						"saleInfor()": "9350",
						"status()": "1911",
						"transferETH(uint256)": "infinite",
						"transferOwnership(address)": "infinite",
						"userFee(address)": "1258"
					}
				},
				"methodIdentifiers": {
					"WETH()": "ad5c4648",
					"backToken()": "861faf5f",
					"buyerInfo(address)": "e2d3f423",
					"checkAdminAddress()": "cad5b0f7",
					"deposit(uint256)": "b6b55f25",
					"feeAnyone()": "3b5ef2ad",
					"getBalance(address)": "f8b2cb4f",
					"initialSaleInfor(address,address,address,uint256[8])": "41809260",
					"owner()": "8da5cb5b",
					"presaleStatus()": "acfb2355",
					"renounceOwnership()": "715018a6",
					"saleInfor()": "18856a2f",
					"status()": "200d2ed2",
					"transferETH(uint256)": "4329db46",
					"transferOwnership(address)": "f2fde38b",
					"userFee(address)": "56c5f349"
				}
			},
			"storageLayout": {
				"storage": [
					{
						"astId": 1864,
						"contract": "Ethereum/Presale.sol:Presale",
						"label": "_status",
						"offset": 0,
						"slot": "0",
						"type": "t_uint256"
					},
					{
						"astId": 1756,
						"contract": "Ethereum/Presale.sol:Presale",
						"label": "_owner",
						"offset": 0,
						"slot": "1",
						"type": "t_address"
					},
					{
						"astId": 766,
						"contract": "Ethereum/Presale.sol:Presale",
						"label": "buyerInfo",
						"offset": 0,
						"slot": "2",
						"type": "t_mapping(t_address,t_struct(BuyerInfo)745_storage)"
					},
					{
						"astId": 770,
						"contract": "Ethereum/Presale.sol:Presale",
						"label": "userFee",
						"offset": 0,
						"slot": "3",
						"type": "t_mapping(t_address,t_uint256)"
					},
					{
						"astId": 773,
						"contract": "Ethereum/Presale.sol:Presale",
						"label": "presaleStatus",
						"offset": 0,
						"slot": "4",
						"type": "t_struct(PresaleStatus)761_storage"
					},
					{
						"astId": 776,
						"contract": "Ethereum/Presale.sol:Presale",
						"label": "saleInfor",
						"offset": 0,
						"slot": "11",
						"type": "t_struct(SaleInfor)732_storage"
					},
					{
						"astId": 779,
						"contract": "Ethereum/Presale.sol:Presale",
						"label": "WETH",
						"offset": 0,
						"slot": "22",
						"type": "t_contract(IERC20)663"
					},
					{
						"astId": 781,
						"contract": "Ethereum/Presale.sol:Presale",
						"label": "feeAnyone",
						"offset": 0,
						"slot": "23",
						"type": "t_uint256"
					},
					{
						"astId": 784,
						"contract": "Ethereum/Presale.sol:Presale",
						"label": "admins",
						"offset": 0,
						"slot": "24",
						"type": "t_struct(AddressSet)1461_storage"
					}
				],
				"types": {
					"t_address": {
						"encoding": "inplace",
						"label": "address",
						"numberOfBytes": "20"
					},
					"t_address_payable": {
						"encoding": "inplace",
						"label": "address payable",
						"numberOfBytes": "20"
					},
					"t_array(t_address)dyn_storage": {
						"base": "t_address",
						"encoding": "dynamic_array",
						"label": "address[]",
						"numberOfBytes": "32"
					},
					"t_array(t_bytes32)dyn_storage": {
						"base": "t_bytes32",
						"encoding": "dynamic_array",
						"label": "bytes32[]",
						"numberOfBytes": "32"
					},
					"t_bool": {
						"encoding": "inplace",
						"label": "bool",
						"numberOfBytes": "1"
					},
					"t_bytes32": {
						"encoding": "inplace",
						"label": "bytes32",
						"numberOfBytes": "32"
					},
					"t_contract(ERC20)585": {
						"encoding": "inplace",
						"label": "contract ERC20",
						"numberOfBytes": "20"
					},
					"t_contract(IERC20)663": {
						"encoding": "inplace",
						"label": "contract IERC20",
						"numberOfBytes": "20"
					},
					"t_mapping(t_address,t_struct(BuyerInfo)745_storage)": {
						"encoding": "mapping",
						"key": "t_address",
						"label": "mapping(address => struct Presale.BuyerInfo)",
						"numberOfBytes": "32",
						"value": "t_struct(BuyerInfo)745_storage"
					},
					"t_mapping(t_address,t_uint256)": {
						"encoding": "mapping",
						"key": "t_address",
						"label": "mapping(address => uint256)",
						"numberOfBytes": "32",
						"value": "t_uint256"
					},
					"t_mapping(t_bytes32,t_uint256)": {
						"encoding": "mapping",
						"key": "t_bytes32",
						"label": "mapping(bytes32 => uint256)",
						"numberOfBytes": "32",
						"value": "t_uint256"
					},
					"t_struct(AddressSet)1461_storage": {
						"encoding": "inplace",
						"label": "struct EnumerableSet.AddressSet",
						"members": [
							{
								"astId": 1460,
								"contract": "Ethereum/Presale.sol:Presale",
								"label": "_inner",
								"offset": 0,
								"slot": "0",
								"type": "t_struct(Set)1160_storage"
							}
						],
						"numberOfBytes": "64"
					},
					"t_struct(BuyerInfo)745_storage": {
						"encoding": "inplace",
						"label": "struct Presale.BuyerInfo",
						"members": [
							{
								"astId": 734,
								"contract": "Ethereum/Presale.sol:Presale",
								"label": "baseDeposit",
								"offset": 0,
								"slot": "0",
								"type": "t_uint256"
							},
							{
								"astId": 736,
								"contract": "Ethereum/Presale.sol:Presale",
								"label": "tokenOwner",
								"offset": 0,
								"slot": "1",
								"type": "t_uint256"
							},
							{
								"astId": 738,
								"contract": "Ethereum/Presale.sol:Presale",
								"label": "lastWithDraw",
								"offset": 0,
								"slot": "2",
								"type": "t_uint256"
							},
							{
								"astId": 740,
								"contract": "Ethereum/Presale.sol:Presale",
								"label": "totalTokenWithDraw",
								"offset": 0,
								"slot": "3",
								"type": "t_uint256"
							},
							{
								"astId": 742,
								"contract": "Ethereum/Presale.sol:Presale",
								"label": "isRefund",
								"offset": 0,
								"slot": "4",
								"type": "t_bool"
							},
							{
								"astId": 744,
								"contract": "Ethereum/Presale.sol:Presale",
								"label": "isClaim",
								"offset": 1,
								"slot": "4",
								"type": "t_bool"
							}
						],
						"numberOfBytes": "160"
					},
					"t_struct(PresaleStatus)761_storage": {
						"encoding": "inplace",
						"label": "struct Presale.PresaleStatus",
						"members": [
							{
								"astId": 747,
								"contract": "Ethereum/Presale.sol:Presale",
								"label": "totalBaseCollected",
								"offset": 0,
								"slot": "0",
								"type": "t_uint256"
							},
							{
								"astId": 749,
								"contract": "Ethereum/Presale.sol:Presale",
								"label": "totalTokenSold",
								"offset": 0,
								"slot": "1",
								"type": "t_uint256"
							},
							{
								"astId": 751,
								"contract": "Ethereum/Presale.sol:Presale",
								"label": "totalTokenWithDraw",
								"offset": 0,
								"slot": "2",
								"type": "t_uint256"
							},
							{
								"astId": 753,
								"contract": "Ethereum/Presale.sol:Presale",
								"label": "totalBaseWithDraw",
								"offset": 0,
								"slot": "3",
								"type": "t_uint256"
							},
							{
								"astId": 755,
								"contract": "Ethereum/Presale.sol:Presale",
								"label": "numByer",
								"offset": 0,
								"slot": "4",
								"type": "t_uint256"
							},
							{
								"astId": 757,
								"contract": "Ethereum/Presale.sol:Presale",
								"label": "totalFee",
								"offset": 0,
								"slot": "5",
								"type": "t_uint256"
							},
							{
								"astId": 760,
								"contract": "Ethereum/Presale.sol:Presale",
								"label": "admin",
								"offset": 0,
								"slot": "6",
								"type": "t_array(t_address)dyn_storage"
							}
						],
						"numberOfBytes": "224"
					},
					"t_struct(SaleInfor)732_storage": {
						"encoding": "inplace",
						"label": "struct Presale.SaleInfor",
						"members": [
							{
								"astId": 709,
								"contract": "Ethereum/Presale.sol:Presale",
								"label": "presaleOwner",
								"offset": 0,
								"slot": "0",
								"type": "t_address_payable"
							},
							{
								"astId": 712,
								"contract": "Ethereum/Presale.sol:Presale",
								"label": "saleToken",
								"offset": 0,
								"slot": "1",
								"type": "t_contract(ERC20)585"
							},
							{
								"astId": 715,
								"contract": "Ethereum/Presale.sol:Presale",
								"label": "baseToken",
								"offset": 0,
								"slot": "2",
								"type": "t_contract(ERC20)585"
							},
							{
								"astId": 717,
								"contract": "Ethereum/Presale.sol:Presale",
								"label": "tokenPrice",
								"offset": 0,
								"slot": "3",
								"type": "t_uint256"
							},
							{
								"astId": 719,
								"contract": "Ethereum/Presale.sol:Presale",
								"label": "startSale",
								"offset": 0,
								"slot": "4",
								"type": "t_uint256"
							},
							{
								"astId": 721,
								"contract": "Ethereum/Presale.sol:Presale",
								"label": "endSale",
								"offset": 0,
								"slot": "5",
								"type": "t_uint256"
							},
							{
								"astId": 723,
								"contract": "Ethereum/Presale.sol:Presale",
								"label": "minSpendPerBuyer",
								"offset": 0,
								"slot": "6",
								"type": "t_uint256"
							},
							{
								"astId": 725,
								"contract": "Ethereum/Presale.sol:Presale",
								"label": "maxSpendPerBuyer",
								"offset": 0,
								"slot": "7",
								"type": "t_uint256"
							},
							{
								"astId": 727,
								"contract": "Ethereum/Presale.sol:Presale",
								"label": "refundFee",
								"offset": 0,
								"slot": "8",
								"type": "t_uint256"
							},
							{
								"astId": 729,
								"contract": "Ethereum/Presale.sol:Presale",
								"label": "claimFee",
								"offset": 0,
								"slot": "9",
								"type": "t_uint256"
							},
							{
								"astId": 731,
								"contract": "Ethereum/Presale.sol:Presale",
								"label": "saleIsBaseToken",
								"offset": 0,
								"slot": "10",
								"type": "t_bool"
							}
						],
						"numberOfBytes": "352"
					},
					"t_struct(Set)1160_storage": {
						"encoding": "inplace",
						"label": "struct EnumerableSet.Set",
						"members": [
							{
								"astId": 1155,
								"contract": "Ethereum/Presale.sol:Presale",
								"label": "_values",
								"offset": 0,
								"slot": "0",
								"type": "t_array(t_bytes32)dyn_storage"
							},
							{
								"astId": 1159,
								"contract": "Ethereum/Presale.sol:Presale",
								"label": "_indexes",
								"offset": 0,
								"slot": "1",
								"type": "t_mapping(t_bytes32,t_uint256)"
							}
						],
						"numberOfBytes": "64"
					},
					"t_uint256": {
						"encoding": "inplace",
						"label": "uint256",
						"numberOfBytes": "32"
					}
				}
			},
			"userdoc": {
				"kind": "user",
				"methods": {},
				"version": 1
			}
		}
	}
}