{
	"Ethereum/Presale.sol": {
		"Presale": {
			"abi": [
				{
					"inputs": [],
					"stateMutability": "payable",
					"type": "constructor"
				},
				{
					"anonymous": false,
					"inputs": [
						{
							"indexed": true,
							"internalType": "address",
							"name": "previousOwner",
							"type": "address"
						},
						{
							"indexed": true,
							"internalType": "address",
							"name": "newOwner",
							"type": "address"
						}
					],
					"name": "OwnershipTransferred",
					"type": "event"
				},
				{
					"inputs": [],
					"name": "WETH",
					"outputs": [
						{
							"internalType": "contract IERC20",
							"name": "",
							"type": "address"
						}
					],
					"stateMutability": "view",
					"type": "function"
				},
				{
					"inputs": [],
					"name": "backToken",
					"outputs": [],
					"stateMutability": "payable",
					"type": "function"
				},
				{
					"inputs": [
						{
							"internalType": "address",
							"name": "",
							"type": "address"
						}
					],
					"name": "buyerInfo",
					"outputs": [
						{
							"internalType": "uint256",
							"name": "baseDeposit",
							"type": "uint256"
						},
						{
							"internalType": "uint256",
							"name": "tokenOwner",
							"type": "uint256"
						},
						{
							"internalType": "uint256",
							"name": "lastWithDraw",
							"type": "uint256"
						},
						{
							"internalType": "uint256",
							"name": "totalTokenWithDraw",
							"type": "uint256"
						},
						{
							"internalType": "bool",
							"name": "isRefund",
							"type": "bool"
						},
						{
							"internalType": "bool",
							"name": "isClaim",
							"type": "bool"
						}
					],
					"stateMutability": "view",
					"type": "function"
				},
				{
					"inputs": [],
					"name": "checkAdminAddress",
					"outputs": [
						{
							"internalType": "bool",
							"name": "",
							"type": "bool"
						}
					],
					"stateMutability": "view",
					"type": "function"
				},
				{
					"inputs": [
						{
							"internalType": "uint256",
							"name": "_amount",
							"type": "uint256"
						}
					],
					"name": "deposit",
					"outputs": [],
					"stateMutability": "payable",
					"type": "function"
				},
				{
					"inputs": [],
					"name": "feeAnyone",
					"outputs": [
						{
							"internalType": "uint256",
							"name": "",
							"type": "uint256"
						}
					],
					"stateMutability": "view",
					"type": "function"
				},
				{
					"inputs": [
						{
							"internalType": "address",
							"name": "_address",
							"type": "address"
						}
					],
					"name": "getBalance",
					"outputs": [
						{
							"internalType": "uint256",
							"name": "",
							"type": "uint256"
						}
					],
					"stateMutability": "view",
					"type": "function"
				},
				{
					"inputs": [
						{
							"internalType": "address payable",
							"name": "_presaleOwner",
							"type": "address"
						},
						{
							"internalType": "contract ERC20",
							"name": "_saleToken",
							"type": "address"
						},
						{
							"internalType": "contract ERC20",
							"name": "_baseTOken",
							"type": "address"
						},
						{
							"internalType": "uint256[9]",
							"name": "datas",
							"type": "uint256[9]"
						}
					],
					"name": "initialSaleInfor",
					"outputs": [],
					"stateMutability": "nonpayable",
					"type": "function"
				},
				{
					"inputs": [],
					"name": "owner",
					"outputs": [
						{
							"internalType": "address",
							"name": "",
							"type": "address"
						}
					],
					"stateMutability": "view",
					"type": "function"
				},
				{
					"inputs": [],
					"name": "presaleStatus",
					"outputs": [
						{
							"internalType": "uint256",
							"name": "totalBaseCollected",
							"type": "uint256"
						},
						{
							"internalType": "uint256",
							"name": "totalTokenSold",
							"type": "uint256"
						},
						{
							"internalType": "uint256",
							"name": "totalTokenWithDraw",
							"type": "uint256"
						},
						{
							"internalType": "uint256",
							"name": "totalBaseWithDraw",
							"type": "uint256"
						},
						{
							"internalType": "uint256",
							"name": "numberBuyer",
							"type": "uint256"
						},
						{
							"internalType": "uint256",
							"name": "totalFee",
							"type": "uint256"
						}
					],
					"stateMutability": "view",
					"type": "function"
				},
				{
					"inputs": [],
					"name": "renounceOwnership",
					"outputs": [],
					"stateMutability": "nonpayable",
					"type": "function"
				},
				{
					"inputs": [],
					"name": "saleInfor",
					"outputs": [
						{
							"internalType": "address payable",
							"name": "presaleOwner",
							"type": "address"
						},
						{
							"internalType": "contract ERC20",
							"name": "saleToken",
							"type": "address"
						},
						{
							"internalType": "contract ERC20",
							"name": "baseToken",
							"type": "address"
						},
						{
							"internalType": "uint256",
							"name": "tokenPrice",
							"type": "uint256"
						},
						{
							"internalType": "uint256",
							"name": "startSale",
							"type": "uint256"
						},
						{
							"internalType": "uint256",
							"name": "endSale",
							"type": "uint256"
						},
						{
							"internalType": "uint256",
							"name": "minSpendPerBuyer",
							"type": "uint256"
						},
						{
							"internalType": "uint256",
							"name": "maxSpendPerBuyer",
							"type": "uint256"
						},
						{
							"internalType": "uint256",
							"name": "refundFee",
							"type": "uint256"
						},
						{
							"internalType": "uint256",
							"name": "claimFee",
							"type": "uint256"
						},
						{
							"internalType": "bool",
							"name": "saleIsBaseToken",
							"type": "bool"
						},
						{
							"internalType": "uint256",
							"name": "amountTokenForSale",
							"type": "uint256"
						}
					],
					"stateMutability": "view",
					"type": "function"
				},
				{
					"inputs": [],
					"name": "saleTotalSupply",
					"outputs": [
						{
							"internalType": "uint256",
							"name": "hardCap",
							"type": "uint256"
						},
						{
							"internalType": "uint256",
							"name": "softCap",
							"type": "uint256"
						}
					],
					"stateMutability": "view",
					"type": "function"
				},
				{
					"inputs": [],
					"name": "status",
					"outputs": [
						{
							"internalType": "uint256",
							"name": "",
							"type": "uint256"
						}
					],
					"stateMutability": "view",
					"type": "function"
				},
				{
					"inputs": [],
					"name": "totalFee",
					"outputs": [
						{
							"internalType": "uint256",
							"name": "",
							"type": "uint256"
						}
					],
					"stateMutability": "view",
					"type": "function"
				},
				{
					"inputs": [
						{
							"internalType": "address",
							"name": "newOwner",
							"type": "address"
						}
					],
					"name": "transferOwnership",
					"outputs": [],
					"stateMutability": "nonpayable",
					"type": "function"
				},
				{
					"inputs": [],
					"name": "userClaimEmergency",
					"outputs": [],
					"stateMutability": "nonpayable",
					"type": "function"
				},
				{
					"inputs": [
						{
							"internalType": "address",
							"name": "",
							"type": "address"
						}
					],
					"name": "userFee",
					"outputs": [
						{
							"internalType": "uint256",
							"name": "",
							"type": "uint256"
						}
					],
					"stateMutability": "view",
					"type": "function"
				}
			],
			"devdoc": {
				"kind": "dev",
				"methods": {
					"owner()": {
						"details": "Returns the address of the current owner."
					},
					"renounceOwnership()": {
						"details": "Leaves the contract without owner. It will not be possible to call `onlyOwner` functions anymore. Can only be called by the current owner. NOTE: Renouncing ownership will leave the contract without an owner, thereby removing any functionality that is only available to the owner."
					},
					"transferOwnership(address)": {
						"details": "Transfers ownership of the contract to a new account (`newOwner`). Can only be called by the current owner."
					}
				},
				"version": 1
			},
			"evm": {
				"assembly": "    /* \"Ethereum/Presale.sol\":370:7052  contract Presale is ReentrancyGuard, Ownable{\r... */\n  mstore(0x40, 0x80)\n    /* \"Utils/ReentrancyGuard.sol\":1734:1735  1 */\n  0x01\n    /* \"Utils/ReentrancyGuard.sol\":1845:1852  _status */\n  0x00\n    /* \"Utils/ReentrancyGuard.sol\":1845:1867  _status = _NOT_ENTERED */\n  sstore\n    /* \"Utils/Ownable.sol\":942:974  _transferOwnership(_msgSender()) */\n  tag_6\n    /* \"Utils/Ownable.sol\":961:973  _msgSender() */\n  tag_7\n    /* \"Utils/Ownable.sol\":961:971  _msgSender */\n  tag_8\n    /* \"Utils/Ownable.sol\":961:973  _msgSender() */\n  jump\t// in\ntag_7:\n    /* \"Utils/Ownable.sol\":942:960  _transferOwnership */\n  tag_9\n    /* \"Utils/Ownable.sol\":942:974  _transferOwnership(_msgSender()) */\n  jump\t// in\ntag_6:\n    /* \"Ethereum/Presale.sol\":2109:2113  WETH */\n  0x19\n    /* \"Ethereum/Presale.sol\":2109:2165  WETH = ERC20(0xc778417E063141139Fce010982780140Aa0cD5Ab) */\n  dup1\n  sload\n    /* \"Ethereum/Presale.sol\":2122:2164  0xc778417E063141139Fce010982780140Aa0cD5Ab */\n  0xc778417e063141139fce010982780140aa0cd5ab\n  not(sub(shl(0xa0, 0x01), 0x01))\n    /* \"Ethereum/Presale.sol\":2109:2165  WETH = ERC20(0xc778417E063141139Fce010982780140Aa0cD5Ab) */\n  swap1\n  swap2\n  and\n  or\n  swap1\n  sstore\n    /* \"Ethereum/Presale.sol\":2176:2230  admins.add(0x6Ccb41eedA5a073076F3E7dC1614C185b5fA41eD) */\n  tag_11\n    /* \"Ethereum/Presale.sol\":2176:2182  admins */\n  0x1b\n    /* \"Ethereum/Presale.sol\":2187:2229  0x6Ccb41eedA5a073076F3E7dC1614C185b5fA41eD */\n  0x6ccb41eeda5a073076f3e7dc1614c185b5fa41ed\n    /* \"Ethereum/Presale.sol\":2176:2186  admins.add */\n  tag_12\n  0x20\n  swap1\n  dup2\n  shl\n  tag_0_104\n  or\n    /* \"Ethereum/Presale.sol\":2176:2230  admins.add(0x6Ccb41eedA5a073076F3E7dC1614C185b5fA41eD) */\n  swap1\n  shr\n  jump\t// in\ntag_11:\n  pop\n    /* \"Ethereum/Presale.sol\":2241:2295  admins.add(0x4f0B12bBF40Fc182559822A5b1dB6D34dbC3E016) */\n  tag_13\n    /* \"Ethereum/Presale.sol\":2252:2294  0x4f0B12bBF40Fc182559822A5b1dB6D34dbC3E016 */\n  0x4f0b12bbf40fc182559822a5b1db6d34dbc3e016\n    /* \"Ethereum/Presale.sol\":2241:2247  admins */\n  0x1b\n    /* \"Ethereum/Presale.sol\":2241:2251  admins.add */\n  or(tag_0_104, shl(0x20, tag_12))\n  swap1\n    /* \"Ethereum/Presale.sol\":2241:2295  admins.add(0x4f0B12bBF40Fc182559822A5b1dB6D34dbC3E016) */\n  swap2\n  swap1\n  0x20\n  shr\n  jump\t// in\ntag_13:\n  pop\n    /* \"Ethereum/Presale.sol\":2318:2320  20 */\n  0x14\n    /* \"Ethereum/Presale.sol\":2306:2315  feeAnyone */\n  0x1a\n    /* \"Ethereum/Presale.sol\":2306:2320  feeAnyone = 20 */\n  sstore\n    /* \"Ethereum/Presale.sol\":370:7052  contract Presale is ReentrancyGuard, Ownable{\r... */\n  jump(tag_14)\n    /* \"Utils/Context.sol\":656:754  function _msgSender() internal view virtual returns (address) {\r... */\ntag_8:\n    /* \"Utils/Context.sol\":736:746  msg.sender */\n  caller\n    /* \"Utils/Context.sol\":656:754  function _msgSender() internal view virtual returns (address) {\r... */\n  swap1\n  jump\t// out\n    /* \"Utils/Ownable.sol\":2333:2524  function _transferOwnership(address newOwner) internal virtual {\r... */\ntag_9:\n    /* \"Utils/Ownable.sol\":2426:2432  _owner */\n  0x01\n  dup1\n  sload\n  sub(shl(0xa0, 0x01), 0x01)\n    /* \"Utils/Ownable.sol\":2443:2460  _owner = newOwner */\n  dup4\n  dup2\n  and\n  not(sub(shl(0xa0, 0x01), 0x01))\n  dup4\n  and\n  dup2\n  or\n  swap1\n  swap4\n  sstore\n    /* \"Utils/Ownable.sol\":2476:2516  OwnershipTransferred(oldOwner, newOwner) */\n  mload(0x40)\n    /* \"Utils/Ownable.sol\":2426:2432  _owner */\n  swap2\n  and\n  swap2\n    /* \"Utils/Ownable.sol\":2443:2460  _owner = newOwner */\n  swap1\n    /* \"Utils/Ownable.sol\":2426:2432  _owner */\n  dup3\n  swap1\n    /* \"Utils/Ownable.sol\":2476:2516  OwnershipTransferred(oldOwner, newOwner) */\n  0x8be0079c531659141344cd1fd0a4f28419497f9722a3daafe3b4186f6b6457e0\n  swap1\n    /* \"Utils/Ownable.sol\":2407:2423  address oldOwner */\n  0x00\n  swap1\n    /* \"Utils/Ownable.sol\":2476:2516  OwnershipTransferred(oldOwner, newOwner) */\n  log3\n    /* \"Utils/Ownable.sol\":2333:2524  function _transferOwnership(address newOwner) internal virtual {\r... */\n  pop\n  pop\n  jump\t// out\n    /* \"Utils/EnumerableSet.sol\":8259:8411  function add(AddressSet storage set, address value) internal returns (bool) {\r... */\ntag_12:\n    /* \"Utils/EnumerableSet.sol\":8329:8333  bool */\n  0x00\n    /* \"Utils/EnumerableSet.sol\":8353:8403  _add(set._inner, bytes32(uint256(uint160(value)))) */\n  tag_18\n    /* \"Utils/EnumerableSet.sol\":8358:8361  set */\n  dup4\n  sub(shl(0xa0, 0x01), 0x01)\n    /* \"Utils/EnumerableSet.sol\":8378:8401  uint256(uint160(value)) */\n  dup5\n  and\n    /* \"Utils/EnumerableSet.sol\":8353:8357  _add */\n  tag_19\n    /* \"Utils/EnumerableSet.sol\":8353:8403  _add(set._inner, bytes32(uint256(uint160(value)))) */\n  jump\t// in\ntag_18:\n    /* \"Utils/EnumerableSet.sol\":8346:8403  return _add(set._inner, bytes32(uint256(uint160(value)))) */\n  swap1\n  pop\n    /* \"Utils/EnumerableSet.sol\":8259:8411  function add(AddressSet storage set, address value) internal returns (bool) {\r... */\ntag_17:\n  swap3\n  swap2\n  pop\n  pop\n  jump\t// out\n    /* \"Utils/EnumerableSet.sol\":2174:2588  function _add(Set storage set, bytes32 value) private returns (bool) {\r... */\ntag_19:\n    /* \"Utils/EnumerableSet.sol\":2237:2241  bool */\n  0x00\n    /* \"Utils/EnumerableSet.sol\":2259:2280  _contains(set, value) */\n  tag_21\n    /* \"Utils/EnumerableSet.sol\":2269:2272  set */\n  dup4\n    /* \"Utils/EnumerableSet.sol\":2274:2279  value */\n  dup4\n    /* \"Utils/EnumerableSet.sol\":2259:2268  _contains */\n  tag_22\n    /* \"Utils/EnumerableSet.sol\":2259:2280  _contains(set, value) */\n  jump\t// in\ntag_21:\n    /* \"Utils/EnumerableSet.sol\":2254:2581  if (!_contains(set, value)) {\r... */\n  tag_23\n  jumpi\n  pop\n    /* \"Utils/EnumerableSet.sol\":2297:2320  set._values.push(value) */\n  dup2\n  sload\n  0x01\n  dup2\n  dup2\n  add\n  dup5\n  sstore\n    /* \"Utils/EnumerableSet.sol\":2297:2308  set._values */\n  0x00\n    /* \"Utils/EnumerableSet.sol\":2297:2320  set._values.push(value) */\n  dup5\n  dup2\n  mstore\n  0x20\n  dup1\n  dup3\n  keccak256\n  swap1\n  swap4\n  add\n  dup5\n  swap1\n  sstore\n    /* \"Utils/EnumerableSet.sol\":2480:2498  set._values.length */\n  dup5\n  sload\n    /* \"Utils/EnumerableSet.sol\":2458:2477  set._indexes[value] */\n  dup5\n  dup3\n  mstore\n    /* \"Utils/EnumerableSet.sol\":2458:2470  set._indexes */\n  dup3\n  dup7\n  add\n    /* \"Utils/EnumerableSet.sol\":2458:2477  set._indexes[value] */\n  swap1\n  swap4\n  mstore\n  0x40\n  swap1\n  keccak256\n    /* \"Utils/EnumerableSet.sol\":2458:2498  set._indexes[value] = set._values.length */\n  swap2\n  swap1\n  swap2\n  sstore\n    /* \"Utils/EnumerableSet.sol\":2513:2524  return true */\n  jump(tag_17)\n    /* \"Utils/EnumerableSet.sol\":2254:2581  if (!_contains(set, value)) {\r... */\ntag_23:\n  pop\n    /* \"Utils/EnumerableSet.sol\":2564:2569  false */\n  0x00\n    /* \"Utils/EnumerableSet.sol\":2557:2569  return false */\n  jump(tag_17)\n    /* \"Utils/EnumerableSet.sol\":4270:4399  function _contains(Set storage set, bytes32 value) private view returns (bool) {\r... */\ntag_22:\n    /* \"Utils/EnumerableSet.sol\":4343:4347  bool */\n  0x00\n    /* \"Utils/EnumerableSet.sol\":4367:4386  set._indexes[value] */\n  swap1\n  dup2\n  mstore\n    /* \"Utils/EnumerableSet.sol\":4367:4379  set._indexes */\n  0x01\n  swap2\n  swap1\n  swap2\n  add\n    /* \"Utils/EnumerableSet.sol\":4367:4386  set._indexes[value] */\n  0x20\n  mstore\n  0x40\n  swap1\n  keccak256\n  sload\n    /* \"Utils/EnumerableSet.sol\":4367:4391  set._indexes[value] != 0 */\n  iszero\n  iszero\n  swap1\n    /* \"Utils/EnumerableSet.sol\":4270:4399  function _contains(Set storage set, bytes32 value) private view returns (bool) {\r... */\n  jump\t// out\n    /* \"Ethereum/Presale.sol\":370:7052  contract Presale is ReentrancyGuard, Ownable{\r... */\ntag_14:\n  dataSize(sub_0)\n  dup1\n  dataOffset(sub_0)\n  0x00\n  codecopy\n  0x00\n  return\nstop\n\nsub_0: assembly {\n        /* \"Ethereum/Presale.sol\":370:7052  contract Presale is ReentrancyGuard, Ownable{\r... */\n      mstore(0x40, 0x80)\n      jumpi(tag_1, lt(calldatasize, 0x04))\n      shr(0xe0, calldataload(0x00))\n      dup1\n      0x8f1eae4c\n      gt\n      tag_20\n      jumpi\n      dup1\n      0xb6b55f25\n      gt\n      tag_21\n      jumpi\n      dup1\n      0xb6b55f25\n      eq\n      tag_15\n      jumpi\n      dup1\n      0xcad5b0f7\n      eq\n      tag_16\n      jumpi\n      dup1\n      0xe2d3f423\n      eq\n      tag_17\n      jumpi\n      dup1\n      0xf2fde38b\n      eq\n      tag_18\n      jumpi\n      dup1\n      0xf8b2cb4f\n      eq\n      tag_19\n      jumpi\n      jump(tag_1)\n    tag_21:\n      dup1\n      0x8f1eae4c\n      eq\n      tag_11\n      jumpi\n      dup1\n      0xab33985a\n      eq\n      tag_12\n      jumpi\n      dup1\n      0xacfb2355\n      eq\n      tag_13\n      jumpi\n      dup1\n      0xad5c4648\n      eq\n      tag_14\n      jumpi\n      jump(tag_1)\n    tag_20:\n      dup1\n      0x3b5ef2ad\n      gt\n      tag_22\n      jumpi\n      dup1\n      0x3b5ef2ad\n      eq\n      tag_6\n      jumpi\n      dup1\n      0x56c5f349\n      eq\n      tag_7\n      jumpi\n      dup1\n      0x715018a6\n      eq\n      tag_8\n      jumpi\n      dup1\n      0x861faf5f\n      eq\n      tag_9\n      jumpi\n      dup1\n      0x8da5cb5b\n      eq\n      tag_10\n      jumpi\n      jump(tag_1)\n    tag_22:\n      dup1\n      0x12e5d0b9\n      eq\n      tag_2\n      jumpi\n      dup1\n      0x18856a2f\n      eq\n      tag_3\n      jumpi\n      dup1\n      0x1df4ccfc\n      eq\n      tag_4\n      jumpi\n      dup1\n      0x200d2ed2\n      eq\n      tag_5\n      jumpi\n    tag_1:\n      0x00\n      dup1\n      revert\n        /* \"Ethereum/Presale.sol\":1623:1661  SaleTotalSupply public saleTotalSupply */\n    tag_2:\n      callvalue\n      dup1\n      iszero\n      tag_23\n      jumpi\n      0x00\n      dup1\n      revert\n    tag_23:\n      pop\n      tag_24\n      tag_25\n      jump\t// in\n    tag_24:\n      mload(0x40)\n      tag_26\n      swap3\n      swap2\n      swap1\n      tag_27\n      jump\t// in\n    tag_26:\n      mload(0x40)\n      dup1\n      swap2\n      sub\n      swap1\n      return\n        /* \"Ethereum/Presale.sol\":1668:1694  SaleInfor public saleInfor */\n    tag_3:\n      callvalue\n      dup1\n      iszero\n      tag_28\n      jumpi\n      0x00\n      dup1\n      revert\n    tag_28:\n      pop\n      tag_29\n      tag_30\n      jump\t// in\n    tag_29:\n      mload(0x40)\n      tag_26\n      swap13\n      swap12\n      swap11\n      swap10\n      swap9\n      swap8\n      swap7\n      swap6\n      swap5\n      swap4\n      swap3\n      swap2\n      swap1\n      tag_32\n      jump\t// in\n        /* \"Ethereum/Presale.sol\":1804:1827  uint256 public totalFee */\n    tag_4:\n      callvalue\n      dup1\n      iszero\n      tag_33\n      jumpi\n      0x00\n      dup1\n      revert\n    tag_33:\n      pop\n      tag_34\n      tag_35\n      jump\t// in\n    tag_34:\n      mload(0x40)\n      tag_26\n      swap2\n      swap1\n      tag_37\n      jump\t// in\n        /* \"Ethereum/Presale.sol\":3330:3667  function status() public view returns(uint256) {\r... */\n    tag_5:\n      callvalue\n      dup1\n      iszero\n      tag_38\n      jumpi\n      0x00\n      dup1\n      revert\n    tag_38:\n      pop\n      tag_34\n      tag_40\n      jump\t// in\n        /* \"Ethereum/Presale.sol\":1726:1750  uint256 public feeAnyone */\n    tag_6:\n      callvalue\n      dup1\n      iszero\n      tag_42\n      jumpi\n      0x00\n      dup1\n      revert\n    tag_42:\n      pop\n      tag_34\n      tag_44\n      jump\t// in\n        /* \"Ethereum/Presale.sol\":1533:1575  mapping(address => uint256) public userFee */\n    tag_7:\n      callvalue\n      dup1\n      iszero\n      tag_46\n      jumpi\n      0x00\n      dup1\n      revert\n    tag_46:\n      pop\n      tag_34\n      tag_48\n      calldatasize\n      0x04\n      tag_49\n      jump\t// in\n    tag_48:\n      tag_50\n      jump\t// in\n        /* \"Utils/Ownable.sol\":1714:1817  function renounceOwnership() public virtual onlyOwner {\r... */\n    tag_8:\n      callvalue\n      dup1\n      iszero\n      tag_52\n      jumpi\n      0x00\n      dup1\n      revert\n    tag_52:\n      pop\n      tag_53\n      tag_54\n      jump\t// in\n    tag_53:\n      stop\n        /* \"Ethereum/Presale.sol\":6941:7049  function backToken() external payable {\r... */\n    tag_9:\n      tag_53\n      tag_56\n      jump\t// in\n        /* \"Utils/Ownable.sol\":1063:1150  function owner() public view virtual returns (address) {\r... */\n    tag_10:\n      callvalue\n      dup1\n      iszero\n      tag_57\n      jumpi\n      0x00\n      dup1\n      revert\n    tag_57:\n      pop\n      tag_58\n      tag_59\n      jump\t// in\n    tag_58:\n      mload(0x40)\n      tag_26\n      swap2\n      swap1\n      tag_61\n      jump\t// in\n        /* \"Ethereum/Presale.sol\":2336:3321  function initialSaleInfor(\r... */\n    tag_11:\n      callvalue\n      dup1\n      iszero\n      tag_62\n      jumpi\n      0x00\n      dup1\n      revert\n    tag_62:\n      pop\n      tag_53\n      tag_64\n      calldatasize\n      0x04\n      tag_65\n      jump\t// in\n    tag_64:\n      tag_66\n      jump\t// in\n        /* \"Ethereum/Presale.sol\":5927:6811  function userClaimEmergency() external nonReentrant {\r... */\n    tag_12:\n      callvalue\n      dup1\n      iszero\n      tag_67\n      jumpi\n      0x00\n      dup1\n      revert\n    tag_67:\n      pop\n      tag_53\n      tag_69\n      jump\t// in\n        /* \"Ethereum/Presale.sol\":1582:1616  PresaleStatus public presaleStatus */\n    tag_13:\n      callvalue\n      dup1\n      iszero\n      tag_70\n      jumpi\n      0x00\n      dup1\n      revert\n    tag_70:\n      pop\n      tag_71\n      tag_72\n      jump\t// in\n    tag_71:\n      mload(0x40)\n      tag_26\n      swap7\n      swap6\n      swap5\n      swap4\n      swap3\n      swap2\n      swap1\n      tag_74\n      jump\t// in\n        /* \"Ethereum/Presale.sol\":1701:1719  IERC20 public WETH */\n    tag_14:\n      callvalue\n      dup1\n      iszero\n      tag_75\n      jumpi\n      0x00\n      dup1\n      revert\n    tag_75:\n      pop\n      tag_58\n      tag_77\n      jump\t// in\n        /* \"Ethereum/Presale.sol\":3794:5919  function deposit(uint256 _amount) external payable nonReentrant {\r... */\n    tag_15:\n      tag_53\n      tag_81\n      calldatasize\n      0x04\n      tag_82\n      jump\t// in\n    tag_81:\n      tag_83\n      jump\t// in\n        /* \"Ethereum/Presale.sol\":3676:3786  function checkAdminAddress() public view returns(bool) {\r... */\n    tag_16:\n      callvalue\n      dup1\n      iszero\n      tag_84\n      jumpi\n      0x00\n      dup1\n      revert\n    tag_84:\n      pop\n      tag_85\n      tag_86\n      jump\t// in\n    tag_85:\n      mload(0x40)\n      tag_26\n      swap2\n      swap1\n      tag_88\n      jump\t// in\n        /* \"Ethereum/Presale.sol\":1480:1526  mapping(address => BuyerInfo) public buyerInfo */\n    tag_17:\n      callvalue\n      dup1\n      iszero\n      tag_89\n      jumpi\n      0x00\n      dup1\n      revert\n    tag_89:\n      pop\n      tag_90\n      tag_91\n      calldatasize\n      0x04\n      tag_49\n      jump\t// in\n    tag_91:\n      tag_92\n      jump\t// in\n    tag_90:\n      mload(0x40)\n      tag_26\n      swap7\n      swap6\n      swap5\n      swap4\n      swap3\n      swap2\n      swap1\n      tag_94\n      jump\t// in\n        /* \"Utils/Ownable.sol\":1972:2173  function transferOwnership(address newOwner) public virtual onlyOwner {\r... */\n    tag_18:\n      callvalue\n      dup1\n      iszero\n      tag_95\n      jumpi\n      0x00\n      dup1\n      revert\n    tag_95:\n      pop\n      tag_53\n      tag_97\n      calldatasize\n      0x04\n      tag_49\n      jump\t// in\n    tag_97:\n      tag_98\n      jump\t// in\n        /* \"Ethereum/Presale.sol\":6819:6930  function getBalance(address _address) external view returns(uint256) {\r... */\n    tag_19:\n      callvalue\n      dup1\n      iszero\n      tag_99\n      jumpi\n      0x00\n      dup1\n      revert\n    tag_99:\n      pop\n      tag_34\n      tag_101\n      calldatasize\n      0x04\n      tag_49\n      jump\t// in\n    tag_101:\n      tag_102\n      jump\t// in\n        /* \"Ethereum/Presale.sol\":1623:1661  SaleTotalSupply public saleTotalSupply */\n    tag_25:\n      sload(0x0b)\n      sload(0x0c)\n      dup3\n      jump\t// out\n        /* \"Ethereum/Presale.sol\":1668:1694  SaleInfor public saleInfor */\n    tag_30:\n      sload(0x0d)\n      sload(0x0e)\n      sload(0x0f)\n      sload(0x10)\n      sload(0x11)\n      sload(0x12)\n      sload(0x13)\n      sload(0x14)\n      sload(0x15)\n      sload(0x16)\n      sload(0x17)\n      sload(0x18)\n      sub(shl(0xa0, 0x01), 0x01)\n      swap12\n      dup13\n      and\n      swap12\n      swap11\n      dup12\n      and\n      swap11\n      swap1\n      swap10\n      and\n      swap9\n      0xff\n      swap1\n      swap2\n      and\n      swap1\n      dup13\n      jump\t// out\n        /* \"Ethereum/Presale.sol\":1804:1827  uint256 public totalFee */\n    tag_35:\n      sload(0x1d)\n      dup2\n      jump\t// out\n        /* \"Ethereum/Presale.sol\":3330:3667  function status() public view returns(uint256) {\r... */\n    tag_40:\n        /* \"Ethereum/Presale.sol\":3409:3428  saleInfor.startSale */\n      sload(0x11)\n        /* \"Ethereum/Presale.sol\":3368:3375  uint256 */\n      0x00\n      swap1\n        /* \"Ethereum/Presale.sol\":3391:3406  block.timestamp */\n      timestamp\n        /* \"Ethereum/Presale.sol\":3391:3428  block.timestamp < saleInfor.startSale */\n      lt\n        /* \"Ethereum/Presale.sol\":3388:3660  if(block.timestamp < saleInfor.startSale) {\r... */\n      iszero\n      tag_106\n      jumpi\n      pop\n        /* \"Ethereum/Presale.sol\":3452:3453  0 */\n      0x00\n        /* \"Ethereum/Presale.sol\":3445:3453  return 0 */\n      jump(tag_109)\n        /* \"Ethereum/Presale.sol\":3388:3660  if(block.timestamp < saleInfor.startSale) {\r... */\n    tag_106:\n        /* \"Ethereum/Presale.sol\":3519:3536  saleInfor.endSale */\n      sload(0x12)\n        /* \"Ethereum/Presale.sol\":3501:3516  block.timestamp */\n      timestamp\n        /* \"Ethereum/Presale.sol\":3501:3536  block.timestamp > saleInfor.endSale */\n      gt\n        /* \"Ethereum/Presale.sol\":3498:3649  if(block.timestamp > saleInfor.endSale) {\r... */\n      iszero\n      tag_108\n      jumpi\n      pop\n        /* \"Ethereum/Presale.sol\":3564:3565  2 */\n      0x02\n        /* \"Ethereum/Presale.sol\":3557:3565  return 2 */\n      jump(tag_109)\n        /* \"Ethereum/Presale.sol\":3498:3649  if(block.timestamp > saleInfor.endSale) {\r... */\n    tag_108:\n      pop\n        /* \"Ethereum/Presale.sol\":3622:3623  1 */\n      0x01\n        /* \"Ethereum/Presale.sol\":3498:3649  if(block.timestamp > saleInfor.endSale) {\r... */\n    tag_109:\n        /* \"Ethereum/Presale.sol\":3330:3667  function status() public view returns(uint256) {\r... */\n      swap1\n      jump\t// out\n        /* \"Ethereum/Presale.sol\":1726:1750  uint256 public feeAnyone */\n    tag_44:\n      sload(0x1a)\n      dup2\n      jump\t// out\n        /* \"Ethereum/Presale.sol\":1533:1575  mapping(address => uint256) public userFee */\n    tag_50:\n      mstore(0x20, 0x03)\n      0x00\n      swap1\n      dup2\n      mstore\n      0x40\n      swap1\n      keccak256\n      sload\n      dup2\n      jump\t// out\n        /* \"Utils/Ownable.sol\":1714:1817  function renounceOwnership() public virtual onlyOwner {\r... */\n    tag_54:\n        /* \"Utils/Ownable.sol\":1294:1306  _msgSender() */\n      tag_111\n        /* \"Utils/Ownable.sol\":1294:1304  _msgSender */\n      tag_112\n        /* \"Utils/Ownable.sol\":1294:1306  _msgSender() */\n      jump\t// in\n    tag_111:\n      sub(shl(0xa0, 0x01), 0x01)\n        /* \"Utils/Ownable.sol\":1283:1306  owner() == _msgSender() */\n      and\n        /* \"Utils/Ownable.sol\":1283:1290  owner() */\n      tag_113\n        /* \"Utils/Ownable.sol\":1283:1288  owner */\n      tag_59\n        /* \"Utils/Ownable.sol\":1283:1290  owner() */\n      jump\t// in\n    tag_113:\n      sub(shl(0xa0, 0x01), 0x01)\n        /* \"Utils/Ownable.sol\":1283:1306  owner() == _msgSender() */\n      and\n      eq\n        /* \"Utils/Ownable.sol\":1275:1343  require(owner() == _msgSender(), \"Ownable: caller is not the owner\") */\n      tag_114\n      jumpi\n      mload(0x40)\n      shl(0xe5, 0x461bcd)\n      dup2\n      mstore\n      0x04\n      add\n      tag_115\n      swap1\n      tag_116\n      jump\t// in\n    tag_115:\n      mload(0x40)\n      dup1\n      swap2\n      sub\n      swap1\n      revert\n    tag_114:\n        /* \"Utils/Ownable.sol\":1779:1809  _transferOwnership(address(0)) */\n      tag_118\n        /* \"Utils/Ownable.sol\":1806:1807  0 */\n      0x00\n        /* \"Utils/Ownable.sol\":1779:1797  _transferOwnership */\n      tag_119\n        /* \"Utils/Ownable.sol\":1779:1809  _transferOwnership(address(0)) */\n      jump\t// in\n    tag_118:\n        /* \"Utils/Ownable.sol\":1714:1817  function renounceOwnership() public virtual onlyOwner {\r... */\n      jump\t// out\n        /* \"Ethereum/Presale.sol\":6941:7049  function backToken() external payable {\r... */\n    tag_56:\n        /* \"Ethereum/Presale.sol\":6990:7041  payable(msg.sender).transfer(address(this).balance) */\n      mload(0x40)\n        /* \"Ethereum/Presale.sol\":6998:7008  msg.sender */\n      caller\n      swap1\n        /* \"Ethereum/Presale.sol\":7019:7040  address(this).balance */\n      selfbalance\n        /* \"Ethereum/Presale.sol\":6990:7041  payable(msg.sender).transfer(address(this).balance) */\n      dup1\n      iszero\n      0x08fc\n      mul\n      swap2\n      0x00\n      dup2\n      dup2\n      dup2\n        /* \"Ethereum/Presale.sol\":7019:7040  address(this).balance */\n      dup6\n        /* \"Ethereum/Presale.sol\":6998:7008  msg.sender */\n      dup9\n        /* \"Ethereum/Presale.sol\":6990:7041  payable(msg.sender).transfer(address(this).balance) */\n      dup9\n      call\n      swap4\n      pop\n      pop\n      pop\n      pop\n      iszero\n      dup1\n      iszero\n      tag_122\n      jumpi\n      returndatasize\n      0x00\n      dup1\n      returndatacopy\n      revert(0x00, returndatasize)\n    tag_122:\n      pop\n        /* \"Ethereum/Presale.sol\":6941:7049  function backToken() external payable {\r... */\n      jump\t// out\n        /* \"Utils/Ownable.sol\":1063:1150  function owner() public view virtual returns (address) {\r... */\n    tag_59:\n        /* \"Utils/Ownable.sol\":1136:1142  _owner */\n      and(sub(shl(0xa0, 0x01), 0x01), sload(0x01))\n        /* \"Utils/Ownable.sol\":1063:1150  function owner() public view virtual returns (address) {\r... */\n      swap1\n      jump\t// out\n        /* \"Ethereum/Presale.sol\":2336:3321  function initialSaleInfor(\r... */\n    tag_66:\n        /* \"Ethereum/Presale.sol\":2517:2526  saleInfor */\n      0x0d\n        /* \"Ethereum/Presale.sol\":2517:2555  saleInfor.presaleOwner = _presaleOwner */\n      dup1\n      sload\n      sub(shl(0xa0, 0x01), 0x01)\n      dup1\n      dup8\n      and\n      not(sub(shl(0xa0, 0x01), 0x01))\n      swap3\n      dup4\n      and\n      or\n      swap1\n      swap3\n      sstore\n        /* \"Ethereum/Presale.sol\":2566:2585  saleInfor.saleToken */\n      0x0e\n        /* \"Ethereum/Presale.sol\":2566:2598  saleInfor.saleToken = _saleToken */\n      dup1\n      sload\n      dup7\n      dup5\n      and\n      swap1\n      dup4\n      and\n      or\n      swap1\n      dup2\n      swap1\n      sstore\n        /* \"Ethereum/Presale.sol\":2609:2628  saleInfor.baseToken */\n      0x0f\n        /* \"Ethereum/Presale.sol\":2609:2641  saleInfor.baseToken = _baseTOken */\n      dup1\n      sload\n      dup7\n      dup6\n      and\n      swap4\n      and\n      swap3\n      swap1\n      swap3\n      or\n      swap1\n      swap2\n      sstore\n        /* \"Ethereum/Presale.sol\":2699:2736  ERC20(saleInfor.saleToken).decimals() */\n      0x40\n      dup1\n      mload\n      shl(0xe0, 0x313ce567)\n      dup2\n      mstore\n      swap1\n      mload\n        /* \"Ethereum/Presale.sol\":2705:2724  saleInfor.saleToken */\n      swap2\n      swap1\n      swap3\n      and\n      swap2\n        /* \"Ethereum/Presale.sol\":2699:2734  ERC20(saleInfor.saleToken).decimals */\n      0x313ce567\n      swap2\n        /* \"Ethereum/Presale.sol\":2699:2736  ERC20(saleInfor.saleToken).decimals() */\n      0x04\n      dup1\n      dup4\n      add\n      swap3\n      0x20\n      swap3\n      swap2\n      swap1\n      dup3\n      swap1\n      sub\n      add\n      dup2\n        /* \"Ethereum/Presale.sol\":2705:2724  saleInfor.saleToken */\n      dup7\n        /* \"Ethereum/Presale.sol\":2699:2736  ERC20(saleInfor.saleToken).decimals() */\n      dup1\n      extcodesize\n      iszero\n      dup1\n      iszero\n      tag_125\n      jumpi\n      0x00\n      dup1\n      revert\n    tag_125:\n      pop\n      gas\n      staticcall\n      iszero\n      dup1\n      iszero\n      tag_127\n      jumpi\n      returndatasize\n      0x00\n      dup1\n      returndatacopy\n      revert(0x00, returndatasize)\n    tag_127:\n      pop\n      pop\n      pop\n      pop\n      mload(0x40)\n      returndatasize\n      not(0x1f)\n      0x1f\n      dup3\n      add\n      and\n      dup3\n      add\n      dup1\n      0x40\n      mstore\n      pop\n      dup2\n      add\n      swap1\n      tag_128\n      swap2\n      swap1\n      tag_129\n      jump\t// in\n    tag_128:\n        /* \"Ethereum/Presale.sol\":2686:2737  10** uint256(ERC20(saleInfor.saleToken).decimals()) */\n      tag_130\n      swap1\n        /* \"Ethereum/Presale.sol\":2686:2688  10 */\n      0x0a\n        /* \"Ethereum/Presale.sol\":2686:2737  10** uint256(ERC20(saleInfor.saleToken).decimals()) */\n      tag_131\n      jump\t// in\n    tag_130:\n        /* \"Ethereum/Presale.sol\":2675:2683  datas[0] */\n      dup2\n      mload\n        /* \"Ethereum/Presale.sol\":2675:2737  datas[0] * 10** uint256(ERC20(saleInfor.saleToken).decimals()) */\n      tag_133\n      swap2\n      swap1\n      tag_134\n      jump\t// in\n    tag_133:\n        /* \"Ethereum/Presale.sol\":2652:2672  saleInfor.tokenPrice */\n      0x10\n        /* \"Ethereum/Presale.sol\":2652:2737  saleInfor.tokenPrice = datas[0] * 10** uint256(ERC20(saleInfor.saleToken).decimals()) */\n      sstore\n        /* \"Ethereum/Presale.sol\":2770:2778  datas[1] */\n      0x20\n      dup1\n      dup3\n      add\n      mload\n        /* \"Ethereum/Presale.sol\":2748:2767  saleInfor.startSale */\n      0x11\n        /* \"Ethereum/Presale.sol\":2748:2778  saleInfor.startSale = datas[1] */\n      sstore\n        /* \"Ethereum/Presale.sol\":2809:2817  datas[2] */\n      0x40\n      dup1\n      dup4\n      add\n      mload\n        /* \"Ethereum/Presale.sol\":2789:2806  saleInfor.endSale */\n      0x12\n        /* \"Ethereum/Presale.sol\":2789:2817  saleInfor.endSale = datas[2] */\n      sstore\n        /* \"Ethereum/Presale.sol\":2857:2865  datas[3] */\n      0x60\n      dup4\n      add\n      mload\n        /* \"Ethereum/Presale.sol\":2828:2854  saleInfor.minSpendPerBuyer */\n      0x13\n        /* \"Ethereum/Presale.sol\":2828:2865  saleInfor.minSpendPerBuyer = datas[3] */\n      sstore\n        /* \"Ethereum/Presale.sol\":2935:2954  saleInfor.baseToken */\n      sload(0x0f)\n        /* \"Ethereum/Presale.sol\":2929:2966  ERC20(saleInfor.baseToken).decimals() */\n      dup2\n      mload\n      shl(0xe0, 0x313ce567)\n      dup2\n      mstore\n      swap2\n      mload\n      sub(shl(0xa0, 0x01), 0x01)\n        /* \"Ethereum/Presale.sol\":2935:2954  saleInfor.baseToken */\n      swap1\n      swap2\n      and\n      swap3\n        /* \"Ethereum/Presale.sol\":2929:2964  ERC20(saleInfor.baseToken).decimals */\n      0x313ce567\n      swap3\n        /* \"Ethereum/Presale.sol\":2929:2966  ERC20(saleInfor.baseToken).decimals() */\n      0x04\n      dup1\n      dup3\n      add\n      swap4\n      swap2\n      dup3\n      swap1\n      sub\n      add\n      dup2\n        /* \"Ethereum/Presale.sol\":2935:2954  saleInfor.baseToken */\n      dup7\n        /* \"Ethereum/Presale.sol\":2929:2966  ERC20(saleInfor.baseToken).decimals() */\n      dup1\n      extcodesize\n      iszero\n      dup1\n      iszero\n      tag_138\n      jumpi\n      0x00\n      dup1\n      revert\n    tag_138:\n      pop\n      gas\n      staticcall\n      iszero\n      dup1\n      iszero\n      tag_140\n      jumpi\n      returndatasize\n      0x00\n      dup1\n      returndatacopy\n      revert(0x00, returndatasize)\n    tag_140:\n      pop\n      pop\n      pop\n      pop\n      mload(0x40)\n      returndatasize\n      not(0x1f)\n      0x1f\n      dup3\n      add\n      and\n      dup3\n      add\n      dup1\n      0x40\n      mstore\n      pop\n      dup2\n      add\n      swap1\n      tag_141\n      swap2\n      swap1\n      tag_129\n      jump\t// in\n    tag_141:\n        /* \"Ethereum/Presale.sol\":2916:2967  10** uint256(ERC20(saleInfor.baseToken).decimals()) */\n      tag_142\n      swap1\n        /* \"Ethereum/Presale.sol\":2916:2918  10 */\n      0x0a\n        /* \"Ethereum/Presale.sol\":2916:2967  10** uint256(ERC20(saleInfor.baseToken).decimals()) */\n      tag_131\n      jump\t// in\n    tag_142:\n        /* \"Ethereum/Presale.sol\":2905:2913  datas[4] */\n      0x80\n      dup3\n      add\n      mload\n        /* \"Ethereum/Presale.sol\":2905:2967  datas[4] * 10** uint256(ERC20(saleInfor.baseToken).decimals()) */\n      tag_144\n      swap2\n      swap1\n      tag_134\n      jump\t// in\n    tag_144:\n        /* \"Ethereum/Presale.sol\":2876:2902  saleInfor.maxSpendPerBuyer */\n      0x14\n        /* \"Ethereum/Presale.sol\":2876:2967  saleInfor.maxSpendPerBuyer = datas[4] * 10** uint256(ERC20(saleInfor.baseToken).decimals()) */\n      sstore\n        /* \"Ethereum/Presale.sol\":3000:3008  datas[5] */\n      0xa0\n      dup2\n      add\n      mload\n        /* \"Ethereum/Presale.sol\":2978:2997  saleInfor.refundFee */\n      0x15\n        /* \"Ethereum/Presale.sol\":2978:3008  saleInfor.refundFee = datas[5] */\n      sstore\n        /* \"Ethereum/Presale.sol\":3040:3048  datas[6] */\n      0xc0\n      dup2\n      add\n      mload\n        /* \"Ethereum/Presale.sol\":3019:3037  saleInfor.claimFee */\n      0x16\n        /* \"Ethereum/Presale.sol\":3019:3048  saleInfor.claimFee = datas[6] */\n      sstore\n        /* \"Ethereum/Presale.sol\":3085:3093  datas[7] */\n      0xe0\n      dup2\n      add\n      mload\n        /* \"Ethereum/Presale.sol\":3059:3074  saleTotalSupply */\n      0x0b\n        /* \"Ethereum/Presale.sol\":3059:3093  saleTotalSupply.hardCap = datas[7] */\n      dup2\n      swap1\n      sstore\n        /* \"Ethereum/Presale.sol\":3130:3138  datas[8] */\n      0x0100\n      dup3\n      add\n      mload\n        /* \"Ethereum/Presale.sol\":3104:3127  saleTotalSupply.softCap */\n      0x0c\n        /* \"Ethereum/Presale.sol\":3104:3138  saleTotalSupply.softCap = datas[8] */\n      sstore\n        /* \"Ethereum/Presale.sol\":3202:3221  saleInfor.baseToken */\n      sload(0x0f)\n        /* \"Ethereum/Presale.sol\":3185:3189  WETH */\n      sload(0x19)\n        /* \"Ethereum/Presale.sol\":3149:3174  saleInfor.saleIsBaseToken */\n      0x17\n        /* \"Ethereum/Presale.sol\":3149:3222  saleInfor.saleIsBaseToken = address(WETH) == address(saleInfor.baseToken) */\n      dup1\n      sload\n      sub(shl(0xa0, 0x01), 0x01)\n        /* \"Ethereum/Presale.sol\":3202:3221  saleInfor.baseToken */\n      swap4\n      dup5\n      and\n        /* \"Ethereum/Presale.sol\":3185:3189  WETH */\n      swap4\n      swap1\n      swap3\n      and\n        /* \"Ethereum/Presale.sol\":3177:3222  address(WETH) == address(saleInfor.baseToken) */\n      swap3\n      swap1\n      swap3\n      eq\n      not(0xff)\n        /* \"Ethereum/Presale.sol\":3149:3222  saleInfor.saleIsBaseToken = address(WETH) == address(saleInfor.baseToken) */\n      swap1\n      swap2\n      and\n      or\n      swap1\n      sstore\n        /* \"Ethereum/Presale.sol\":3264:3284  saleInfor.tokenPrice */\n      sload(0x10)\n        /* \"Ethereum/Presale.sol\":3264:3313  saleInfor.tokenPrice.mul(saleTotalSupply.hardCap) */\n      tag_149\n      swap2\n        /* \"Ethereum/Presale.sol\":3264:3288  saleInfor.tokenPrice.mul */\n      tag_150\n        /* \"Ethereum/Presale.sol\":3264:3313  saleInfor.tokenPrice.mul(saleTotalSupply.hardCap) */\n      jump\t// in\n    tag_149:\n        /* \"Ethereum/Presale.sol\":3233:3261  saleInfor.amountTokenForSale */\n      0x18\n        /* \"Ethereum/Presale.sol\":3233:3313  saleInfor.amountTokenForSale = saleInfor.tokenPrice.mul(saleTotalSupply.hardCap) */\n      sstore\n      pop\n      pop\n      pop\n      pop\n        /* \"Ethereum/Presale.sol\":2336:3321  function initialSaleInfor(\r... */\n      jump\t// out\n        /* \"Ethereum/Presale.sol\":5927:6811  function userClaimEmergency() external nonReentrant {\r... */\n    tag_69:\n        /* \"Utils/ReentrancyGuard.sol\":1778:1779  2 */\n      0x02\n        /* \"Utils/ReentrancyGuard.sol\":2376:2383  _status */\n      sload(0x00)\n        /* \"Utils/ReentrancyGuard.sol\":2376:2395  _status != _ENTERED */\n      eq\n      iszero\n        /* \"Utils/ReentrancyGuard.sol\":2368:2431  require(_status != _ENTERED, \"ReentrancyGuard: reentrant call\") */\n      tag_152\n      jumpi\n      mload(0x40)\n      shl(0xe5, 0x461bcd)\n      dup2\n      mstore\n      0x04\n      add\n      tag_115\n      swap1\n      tag_154\n      jump\t// in\n    tag_152:\n        /* \"Utils/ReentrancyGuard.sol\":1778:1779  2 */\n      0x02\n        /* \"Utils/ReentrancyGuard.sol\":2509:2516  _status */\n      0x00\n        /* \"Utils/ReentrancyGuard.sol\":2509:2527  _status = _ENTERED */\n      sstore\n        /* \"Ethereum/Presale.sol\":5998:6006  status() */\n      tag_156\n        /* \"Ethereum/Presale.sol\":5998:6004  status */\n      tag_40\n        /* \"Ethereum/Presale.sol\":5998:6006  status() */\n      jump\t// in\n    tag_156:\n        /* \"Ethereum/Presale.sol\":6010:6011  1 */\n      0x01\n        /* \"Ethereum/Presale.sol\":5998:6011  status() == 1 */\n      eq\n        /* \"Ethereum/Presale.sol\":5990:6028  require(status() == 1, \"Sale sucesss\") */\n      tag_157\n      jumpi\n      mload(0x40)\n      shl(0xe5, 0x461bcd)\n      dup2\n      mstore\n      0x04\n      add\n      tag_115\n      swap1\n      tag_159\n      jump\t// in\n    tag_157:\n        /* \"Ethereum/Presale.sol\":6079:6111  presaleStatus.totalTokenWithDraw */\n      sload(0x06)\n        /* \"Ethereum/Presale.sol\":6048:6076  presaleStatus.totalTokenSold */\n      sload(0x05)\n        /* \"Ethereum/Presale.sol\":6114:6115  0 */\n      0x00\n      swap2\n        /* \"Ethereum/Presale.sol\":6048:6111  presaleStatus.totalTokenSold - presaleStatus.totalTokenWithDraw */\n      tag_160\n      swap2\n      tag_161\n      jump\t// in\n    tag_160:\n        /* \"Ethereum/Presale.sol\":6048:6115  presaleStatus.totalTokenSold - presaleStatus.totalTokenWithDraw > 0 */\n      gt\n        /* \"Ethereum/Presale.sol\":6040:6174  require(presaleStatus.totalTokenSold - presaleStatus.totalTokenWithDraw > 0, \r... */\n      tag_162\n      jumpi\n      mload(0x40)\n      shl(0xe5, 0x461bcd)\n      dup2\n      mstore\n      0x04\n      add\n      tag_115\n      swap1\n      tag_164\n      jump\t// in\n    tag_162:\n        /* \"Ethereum/Presale.sol\":6221:6231  msg.sender */\n      caller\n        /* \"Ethereum/Presale.sol\":6185:6208  BuyerInfo storage buyer */\n      0x00\n        /* \"Ethereum/Presale.sol\":6211:6232  buyerInfo[msg.sender] */\n      swap1\n      dup2\n      mstore\n        /* \"Ethereum/Presale.sol\":6211:6220  buyerInfo */\n      0x02\n        /* \"Ethereum/Presale.sol\":6211:6232  buyerInfo[msg.sender] */\n      0x20\n      mstore\n      0x40\n      swap1\n      keccak256\n        /* \"Ethereum/Presale.sol\":6251:6267  buyer.tokenOwner */\n      0x01\n      dup2\n      add\n      sload\n        /* \"Ethereum/Presale.sol\":6243:6315  require(buyer.tokenOwner > 0, \"You withdraw all or have not bought yet\") */\n      tag_165\n      jumpi\n      mload(0x40)\n      shl(0xe5, 0x461bcd)\n      dup2\n      mstore\n      0x04\n      add\n      tag_115\n      swap1\n      tag_167\n      jump\t// in\n    tag_165:\n        /* \"Ethereum/Presale.sol\":6409:6428  uint256 amountClaim */\n      0x00\n        /* \"Ethereum/Presale.sol\":6431:6567  ((uint256(1000).sub(saleInfor.claimFee))\r... */\n      tag_168\n        /* \"Ethereum/Presale.sol\":6561:6565  1000 */\n      0x03e8\n        /* \"Ethereum/Presale.sol\":6432:6520  (uint256(1000).sub(saleInfor.claimFee))\r... */\n      tag_169\n        /* \"Ethereum/Presale.sol\":6503:6508  buyer */\n      dup5\n        /* \"Ethereum/Presale.sol\":6503:6519  buyer.tokenOwner */\n      0x01\n      add\n      sload\n        /* \"Ethereum/Presale.sol\":6433:6470  uint256(1000).sub(saleInfor.claimFee) */\n      tag_170\n        /* \"Ethereum/Presale.sol\":6451:6460  saleInfor */\n      0x0d\n        /* \"Ethereum/Presale.sol\":6451:6469  saleInfor.claimFee */\n      0x09\n      add\n      sload\n        /* \"Ethereum/Presale.sol\":6441:6445  1000 */\n      0x03e8\n        /* \"Ethereum/Presale.sol\":6433:6450  uint256(1000).sub */\n      tag_171\n      swap1\n        /* \"Ethereum/Presale.sol\":6433:6470  uint256(1000).sub(saleInfor.claimFee) */\n      swap2\n      swap1\n      0xffffffff\n      and\n      jump\t// in\n    tag_170:\n        /* \"Ethereum/Presale.sol\":6432:6502  (uint256(1000).sub(saleInfor.claimFee))\r... */\n      swap1\n      tag_150\n        /* \"Ethereum/Presale.sol\":6432:6520  (uint256(1000).sub(saleInfor.claimFee))\r... */\n      jump\t// in\n    tag_169:\n        /* \"Ethereum/Presale.sol\":6431:6552  ((uint256(1000).sub(saleInfor.claimFee))\r... */\n      swap1\n      tag_172\n        /* \"Ethereum/Presale.sol\":6431:6567  ((uint256(1000).sub(saleInfor.claimFee))\r... */\n      jump\t// in\n    tag_168:\n        /* \"Ethereum/Presale.sol\":6409:6567  uint256 amountClaim = ((uint256(1000).sub(saleInfor.claimFee))\r... */\n      swap1\n      pop\n        /* \"Ethereum/Presale.sol\":6614:6625  amountClaim */\n      dup1\n        /* \"Ethereum/Presale.sol\":6578:6591  presaleStatus */\n      0x04\n        /* \"Ethereum/Presale.sol\":6578:6610  presaleStatus.totalTokenWithDraw */\n      0x02\n      add\n      0x00\n        /* \"Ethereum/Presale.sol\":6578:6625  presaleStatus.totalTokenWithDraw += amountClaim */\n      dup3\n      dup3\n      sload\n      tag_173\n      swap2\n      swap1\n      tag_174\n      jump\t// in\n    tag_173:\n      swap1\n      swap2\n      sstore\n      pop\n      pop\n        /* \"Ethereum/Presale.sol\":6660:6676  buyer.tokenOwner */\n      0x01\n      dup3\n      add\n      sload\n        /* \"Ethereum/Presale.sol\":6636:6657  uint256 feeClaimToken */\n      0x00\n      swap1\n        /* \"Ethereum/Presale.sol\":6660:6690  buyer.tokenOwner - amountClaim */\n      tag_175\n      swap1\n        /* \"Ethereum/Presale.sol\":6679:6690  amountClaim */\n      dup4\n      swap1\n        /* \"Ethereum/Presale.sol\":6660:6690  buyer.tokenOwner - amountClaim */\n      tag_161\n      jump\t// in\n    tag_175:\n        /* \"Ethereum/Presale.sol\":6701:6717  buyer.tokenOwner */\n      0x01\n      dup5\n      add\n        /* \"Ethereum/Presale.sol\":6701:6731  buyer.tokenOwner = amountClaim */\n      dup4\n      swap1\n      sstore\n        /* \"Ethereum/Presale.sol\":6749:6768  saleInfor.saleToken */\n      sload(0x0e)\n        /* \"Ethereum/Presale.sol\":6743:6803  ERC20(saleInfor.saleToken).transfer(msg.sender, amountClaim) */\n      mload(0x40)\n      shl(0xe0, 0xa9059cbb)\n      dup2\n      mstore\n        /* \"Ethereum/Presale.sol\":6636:6690  uint256 feeClaimToken = buyer.tokenOwner - amountClaim */\n      swap2\n      swap3\n      pop\n      sub(shl(0xa0, 0x01), 0x01)\n        /* \"Ethereum/Presale.sol\":6749:6768  saleInfor.saleToken */\n      and\n      swap1\n        /* \"Ethereum/Presale.sol\":6743:6778  ERC20(saleInfor.saleToken).transfer */\n      0xa9059cbb\n      swap1\n        /* \"Ethereum/Presale.sol\":6743:6803  ERC20(saleInfor.saleToken).transfer(msg.sender, amountClaim) */\n      tag_176\n      swap1\n        /* \"Ethereum/Presale.sol\":6779:6789  msg.sender */\n      caller\n      swap1\n        /* \"Ethereum/Presale.sol\":6720:6731  amountClaim */\n      dup7\n      swap1\n        /* \"Ethereum/Presale.sol\":6743:6803  ERC20(saleInfor.saleToken).transfer(msg.sender, amountClaim) */\n      0x04\n      add\n      tag_177\n      jump\t// in\n    tag_176:\n      0x20\n      mload(0x40)\n      dup1\n      dup4\n      sub\n      dup2\n      0x00\n      dup8\n      dup1\n      extcodesize\n      iszero\n      dup1\n      iszero\n      tag_178\n      jumpi\n      0x00\n      dup1\n      revert\n    tag_178:\n      pop\n      gas\n      call\n      iszero\n      dup1\n      iszero\n      tag_180\n      jumpi\n      returndatasize\n      0x00\n      dup1\n      returndatacopy\n      revert(0x00, returndatasize)\n    tag_180:\n      pop\n      pop\n      pop\n      pop\n      mload(0x40)\n      returndatasize\n      not(0x1f)\n      0x1f\n      dup3\n      add\n      and\n      dup3\n      add\n      dup1\n      0x40\n      mstore\n      pop\n      dup2\n      add\n      swap1\n      tag_181\n      swap2\n      swap1\n      tag_182\n      jump\t// in\n    tag_181:\n      pop\n      pop\n        /* \"Utils/ReentrancyGuard.sol\":1734:1735  1 */\n      0x01\n        /* \"Utils/ReentrancyGuard.sol\":2688:2695  _status */\n      0x00\n        /* \"Utils/ReentrancyGuard.sol\":2688:2710  _status = _NOT_ENTERED */\n      sstore\n      pop\n      pop\n        /* \"Ethereum/Presale.sol\":5927:6811  function userClaimEmergency() external nonReentrant {\r... */\n      jump\t// out\n        /* \"Ethereum/Presale.sol\":1582:1616  PresaleStatus public presaleStatus */\n    tag_72:\n      sload(0x04)\n      sload(0x05)\n      sload(0x06)\n      sload(0x07)\n      sload(0x08)\n      sload(0x09)\n      dup7\n      jump\t// out\n        /* \"Ethereum/Presale.sol\":1701:1719  IERC20 public WETH */\n    tag_77:\n      and(sub(shl(0xa0, 0x01), 0x01), sload(0x19))\n      dup2\n      jump\t// out\n        /* \"Ethereum/Presale.sol\":3794:5919  function deposit(uint256 _amount) external payable nonReentrant {\r... */\n    tag_83:\n        /* \"Utils/ReentrancyGuard.sol\":1778:1779  2 */\n      0x02\n        /* \"Utils/ReentrancyGuard.sol\":2376:2383  _status */\n      sload(0x00)\n        /* \"Utils/ReentrancyGuard.sol\":2376:2395  _status != _ENTERED */\n      eq\n      iszero\n        /* \"Utils/ReentrancyGuard.sol\":2368:2431  require(_status != _ENTERED, \"ReentrancyGuard: reentrant call\") */\n      tag_184\n      jumpi\n      mload(0x40)\n      shl(0xe5, 0x461bcd)\n      dup2\n      mstore\n      0x04\n      add\n      tag_115\n      swap1\n      tag_154\n      jump\t// in\n    tag_184:\n        /* \"Utils/ReentrancyGuard.sol\":1778:1779  2 */\n      0x02\n        /* \"Utils/ReentrancyGuard.sol\":2509:2516  _status */\n      0x00\n        /* \"Utils/ReentrancyGuard.sol\":2509:2527  _status = _ENTERED */\n      sstore\n        /* \"Ethereum/Presale.sol\":3877:3885  status() */\n      tag_187\n        /* \"Ethereum/Presale.sol\":3877:3883  status */\n      tag_40\n        /* \"Ethereum/Presale.sol\":3877:3885  status() */\n      jump\t// in\n    tag_187:\n        /* \"Ethereum/Presale.sol\":3889:3890  1 */\n      0x01\n        /* \"Ethereum/Presale.sol\":3877:3890  status() == 1 */\n      eq\n        /* \"Ethereum/Presale.sol\":3869:3905  require(status() == 1, \"Not active\") */\n      tag_188\n      jumpi\n      mload(0x40)\n      shl(0xe5, 0x461bcd)\n      dup2\n      mstore\n      0x04\n      add\n      tag_115\n      swap1\n      tag_190\n      jump\t// in\n    tag_188:\n        /* \"Ethereum/Presale.sol\":3962:3972  msg.sender */\n      caller\n        /* \"Ethereum/Presale.sol\":3926:3949  BuyerInfo storage buyer */\n      0x00\n        /* \"Ethereum/Presale.sol\":3952:3973  buyerInfo[msg.sender] */\n      swap1\n      dup2\n      mstore\n        /* \"Ethereum/Presale.sol\":3952:3961  buyerInfo */\n      0x02\n        /* \"Ethereum/Presale.sol\":3952:3973  buyerInfo[msg.sender] */\n      0x20\n      mstore\n      0x40\n      dup2\n      keccak256\n        /* \"Ethereum/Presale.sol\":4158:4184  saleInfor.minSpendPerBuyer */\n      sload(0x13)\n        /* \"Ethereum/Presale.sol\":3952:3973  buyerInfo[msg.sender] */\n      swap1\n      swap2\n        /* \"Ethereum/Presale.sol\":4004:4011  _amount */\n      dup4\n      swap2\n      dup3\n      swap2\n        /* \"Ethereum/Presale.sol\":3926:3949  BuyerInfo storage buyer */\n      swap1\n        /* \"Ethereum/Presale.sol\":4117:4121  1000 */\n      0x03e8\n      swap1\n        /* \"Ethereum/Presale.sol\":4140:4184  real_amount_in >= saleInfor.minSpendPerBuyer */\n      dup4\n      lt\n      iszero\n        /* \"Ethereum/Presale.sol\":4132:4233  require(real_amount_in >= saleInfor.minSpendPerBuyer, \r... */\n      tag_191\n      jumpi\n      mload(0x40)\n      shl(0xe5, 0x461bcd)\n      dup2\n      mstore\n      0x04\n      add\n      tag_115\n      swap1\n      tag_193\n      jump\t// in\n    tag_191:\n        /* \"Ethereum/Presale.sol\":4270:4296  saleInfor.maxSpendPerBuyer */\n      sload(0x14)\n        /* \"Ethereum/Presale.sol\":4252:4296  real_amount_in <= saleInfor.maxSpendPerBuyer */\n      dup4\n      gt\n      iszero\n        /* \"Ethereum/Presale.sol\":4244:4343  require(real_amount_in <= saleInfor.maxSpendPerBuyer, \r... */\n      tag_194\n      jumpi\n      mload(0x40)\n      shl(0xe5, 0x461bcd)\n      dup2\n      mstore\n      0x04\n      add\n      tag_115\n      swap1\n      tag_196\n      jump\t// in\n    tag_194:\n        /* \"Ethereum/Presale.sol\":4358:4377  checkAdminAddress() */\n      tag_197\n        /* \"Ethereum/Presale.sol\":4358:4375  checkAdminAddress */\n      tag_86\n        /* \"Ethereum/Presale.sol\":4358:4377  checkAdminAddress() */\n      jump\t// in\n    tag_197:\n        /* \"Ethereum/Presale.sol\":4354:4620  if(!checkAdminAddress()) {\r... */\n      tag_198\n      jumpi\n        /* \"Ethereum/Presale.sol\":4411:4544  ((fullPercenFee.sub(feeAnyone))\r... */\n      tag_199\n        /* \"Ethereum/Presale.sol\":4530:4543  fullPercenFee */\n      dup2\n        /* \"Ethereum/Presale.sol\":4412:4493  (fullPercenFee.sub(feeAnyone))\r... */\n      tag_169\n        /* \"Ethereum/Presale.sol\":4478:4492  real_amount_in */\n      dup6\n        /* \"Ethereum/Presale.sol\":4413:4441  fullPercenFee.sub(feeAnyone) */\n      tag_170\n        /* \"Ethereum/Presale.sol\":4431:4440  feeAnyone */\n      sload(0x1a)\n        /* \"Ethereum/Presale.sol\":4413:4426  fullPercenFee */\n      dup7\n        /* \"Ethereum/Presale.sol\":4413:4430  fullPercenFee.sub */\n      tag_171\n      swap1\n        /* \"Ethereum/Presale.sol\":4413:4441  fullPercenFee.sub(feeAnyone) */\n      swap2\n      swap1\n      0xffffffff\n      and\n      jump\t// in\n        /* \"Ethereum/Presale.sol\":4411:4544  ((fullPercenFee.sub(feeAnyone))\r... */\n    tag_199:\n        /* \"Ethereum/Presale.sol\":4394:4544  real_amount_in = ((fullPercenFee.sub(feeAnyone))\r... */\n      swap3\n      pop\n        /* \"Ethereum/Presale.sol\":4565:4591  amount_in - real_amount_in */\n      tag_202\n        /* \"Ethereum/Presale.sol\":4394:4544  real_amount_in = ((fullPercenFee.sub(feeAnyone))\r... */\n      dup4\n        /* \"Ethereum/Presale.sol\":4565:4574  amount_in */\n      dup6\n        /* \"Ethereum/Presale.sol\":4565:4591  amount_in - real_amount_in */\n      tag_161\n      jump\t// in\n    tag_202:\n        /* \"Ethereum/Presale.sol\":4559:4591  fee = amount_in - real_amount_in */\n      swap2\n      pop\n        /* \"Ethereum/Presale.sol\":4354:4620  if(!checkAdminAddress()) {\r... */\n    tag_198:\n        /* \"Ethereum/Presale.sol\":4685:4702  buyer.baseDeposit */\n      dup5\n      sload\n        /* \"Ethereum/Presale.sol\":4656:4682  saleInfor.maxSpendPerBuyer */\n      sload(0x14)\n        /* \"Ethereum/Presale.sol\":4630:4653  uint256 remainingByUser */\n      0x00\n      swap2\n        /* \"Ethereum/Presale.sol\":4656:4702  saleInfor.maxSpendPerBuyer - buyer.baseDeposit */\n      tag_203\n      swap2\n      tag_161\n      jump\t// in\n    tag_203:\n        /* \"Ethereum/Presale.sol\":4770:4783  presaleStatus */\n      0x04\n        /* \"Ethereum/Presale.sol\":4770:4802  presaleStatus.totalBaseCollected */\n      sload\n        /* \"Ethereum/Presale.sol\":4739:4767  saleInfor.amountTokenForSale */\n      sload(0x18)\n        /* \"Ethereum/Presale.sol\":4630:4702  uint256 remainingByUser = saleInfor.maxSpendPerBuyer - buyer.baseDeposit */\n      swap2\n      swap3\n      pop\n        /* \"Ethereum/Presale.sol\":4713:4736  uint256 remainingByPool */\n      0x00\n      swap2\n        /* \"Ethereum/Presale.sol\":4739:4802  saleInfor.amountTokenForSale - presaleStatus.totalBaseCollected */\n      tag_204\n      swap2\n        /* \"Ethereum/Presale.sol\":4770:4802  presaleStatus.totalBaseCollected */\n      swap1\n        /* \"Ethereum/Presale.sol\":4739:4802  saleInfor.amountTokenForSale - presaleStatus.totalBaseCollected */\n      tag_161\n      jump\t// in\n    tag_204:\n        /* \"Ethereum/Presale.sol\":4713:4802  uint256 remainingByPool = saleInfor.amountTokenForSale - presaleStatus.totalBaseCollected */\n      swap1\n      pop\n        /* \"Ethereum/Presale.sol\":4813:4830  uint256 allowance */\n      0x00\n        /* \"Ethereum/Presale.sol\":4851:4866  remainingByPool */\n      dup2\n        /* \"Ethereum/Presale.sol\":4833:4848  remainingByUser */\n      dup4\n        /* \"Ethereum/Presale.sol\":4833:4866  remainingByUser > remainingByPool */\n      gt\n        /* \"Ethereum/Presale.sol\":4833:4902  remainingByUser > remainingByPool ? remainingByPool : remainingByUser */\n      tag_205\n      jumpi\n        /* \"Ethereum/Presale.sol\":4887:4902  remainingByUser */\n      dup3\n        /* \"Ethereum/Presale.sol\":4833:4902  remainingByUser > remainingByPool ? remainingByPool : remainingByUser */\n      jump(tag_206)\n    tag_205:\n        /* \"Ethereum/Presale.sol\":4869:4884  remainingByPool */\n      dup2\n        /* \"Ethereum/Presale.sol\":4833:4902  remainingByUser > remainingByPool ? remainingByPool : remainingByUser */\n    tag_206:\n        /* \"Ethereum/Presale.sol\":4813:4902  uint256 allowance = remainingByUser > remainingByPool ? remainingByPool : remainingByUser */\n      swap1\n      pop\n        /* \"Ethereum/Presale.sol\":4938:4947  allowance */\n      dup1\n        /* \"Ethereum/Presale.sol\":4921:4935  real_amount_in */\n      dup7\n        /* \"Ethereum/Presale.sol\":4921:4947  real_amount_in < allowance */\n      lt\n        /* \"Ethereum/Presale.sol\":4913:4967  require(real_amount_in < allowance, \"Sale is success\") */\n      tag_207\n      jumpi\n      mload(0x40)\n      shl(0xe5, 0x461bcd)\n      dup2\n      mstore\n      0x04\n      add\n      tag_115\n      swap1\n      tag_209\n      jump\t// in\n    tag_207:\n        /* \"Ethereum/Presale.sol\":4978:4995  uint256 tokenSold */\n      0x00\n        /* \"Ethereum/Presale.sol\":4999:5157  real_amount_in.\r... */\n      tag_210\n        /* \"Ethereum/Presale.sol\":5124:5133  saleInfor */\n      0x0d\n        /* \"Ethereum/Presale.sol\":5124:5143  saleInfor.baseToken */\n      0x02\n      add\n      0x00\n      swap1\n      sload\n      swap1\n      0x0100\n      exp\n      swap1\n      div\n      sub(shl(0xa0, 0x01), 0x01)\n      and\n      sub(shl(0xa0, 0x01), 0x01)\n        /* \"Ethereum/Presale.sol\":5118:5153  ERC20(saleInfor.baseToken).decimals */\n      and\n      0x313ce567\n        /* \"Ethereum/Presale.sol\":5118:5155  ERC20(saleInfor.baseToken).decimals() */\n      mload(0x40)\n      dup2\n      0xffffffff\n      and\n      0xe0\n      shl\n      dup2\n      mstore\n      0x04\n      add\n      0x20\n      mload(0x40)\n      dup1\n      dup4\n      sub\n      dup2\n      dup7\n      dup1\n      extcodesize\n      iszero\n      dup1\n      iszero\n      tag_211\n      jumpi\n      0x00\n      dup1\n      revert\n    tag_211:\n      pop\n      gas\n      staticcall\n      iszero\n      dup1\n      iszero\n      tag_213\n      jumpi\n      returndatasize\n      0x00\n      dup1\n      returndatacopy\n      revert(0x00, returndatasize)\n    tag_213:\n      pop\n      pop\n      pop\n      pop\n      mload(0x40)\n      returndatasize\n      not(0x1f)\n      0x1f\n      dup3\n      add\n      and\n      dup3\n      add\n      dup1\n      0x40\n      mstore\n      pop\n      dup2\n      add\n      swap1\n      tag_214\n      swap2\n      swap1\n      tag_129\n      jump\t// in\n    tag_214:\n        /* \"Ethereum/Presale.sol\":5104:5156  10 ** uint256(ERC20(saleInfor.baseToken).decimals()) */\n      tag_215\n      swap1\n        /* \"Ethereum/Presale.sol\":5104:5106  10 */\n      0x0a\n        /* \"Ethereum/Presale.sol\":5104:5156  10 ** uint256(ERC20(saleInfor.baseToken).decimals()) */\n      tag_131\n      jump\t// in\n    tag_215:\n        /* \"Ethereum/Presale.sol\":5048:5068  saleInfor.tokenPrice */\n      sload(0x10)\n        /* \"Ethereum/Presale.sol\":4999:5069  real_amount_in.\r... */\n      tag_169\n      swap1\n        /* \"Ethereum/Presale.sol\":4999:5013  real_amount_in */\n      dup11\n      swap1\n        /* \"Ethereum/Presale.sol\":4999:5047  real_amount_in.\r... */\n      tag_150\n        /* \"Ethereum/Presale.sol\":4999:5069  real_amount_in.\r... */\n      jump\t// in\n        /* \"Ethereum/Presale.sol\":4999:5157  real_amount_in.\r... */\n    tag_210:\n        /* \"Ethereum/Presale.sol\":4978:5158  uint256 tokenSold = (real_amount_in.\r... */\n      swap1\n      pop\n        /* \"Ethereum/Presale.sol\":5207:5216  amount_in */\n      dup8\n        /* \"Ethereum/Presale.sol\":5186:5191  buyer */\n      dup10\n        /* \"Ethereum/Presale.sol\":5186:5203  buyer.baseDeposit */\n      0x00\n      add\n      0x00\n        /* \"Ethereum/Presale.sol\":5186:5216  buyer.baseDeposit += amount_in */\n      dup3\n      dup3\n      sload\n      tag_217\n      swap2\n      swap1\n      tag_174\n      jump\t// in\n    tag_217:\n      swap3\n      pop\n      pop\n      dup2\n      swap1\n      sstore\n      pop\n        /* \"Ethereum/Presale.sol\":5247:5256  tokenSold */\n      dup1\n        /* \"Ethereum/Presale.sol\":5227:5232  buyer */\n      dup10\n        /* \"Ethereum/Presale.sol\":5227:5243  buyer.tokenOwner */\n      0x01\n      add\n      0x00\n        /* \"Ethereum/Presale.sol\":5227:5256  buyer.tokenOwner += tokenSold */\n      dup3\n      dup3\n      sload\n      tag_218\n      swap2\n      swap1\n      tag_174\n      jump\t// in\n    tag_218:\n      swap1\n      swap2\n      sstore\n      pop\n      pop\n        /* \"Ethereum/Presale.sol\":5267:5280  presaleStatus */\n      0x04\n        /* \"Ethereum/Presale.sol\":5267:5317  presaleStatus.totalBaseCollected += real_amount_in */\n      dup1\n      sload\n        /* \"Ethereum/Presale.sol\":5303:5317  real_amount_in */\n      dup9\n      swap2\n        /* \"Ethereum/Presale.sol\":5267:5280  presaleStatus */\n      swap1\n        /* \"Ethereum/Presale.sol\":5267:5299  presaleStatus.totalBaseCollected */\n      0x00\n      swap1\n        /* \"Ethereum/Presale.sol\":5267:5317  presaleStatus.totalBaseCollected += real_amount_in */\n      tag_219\n      swap1\n        /* \"Ethereum/Presale.sol\":5303:5317  real_amount_in */\n      dup5\n      swap1\n        /* \"Ethereum/Presale.sol\":5267:5317  presaleStatus.totalBaseCollected += real_amount_in */\n      tag_174\n      jump\t// in\n    tag_219:\n      swap1\n      swap2\n      sstore\n      pop\n      pop\n        /* \"Ethereum/Presale.sol\":5328:5356  presaleStatus.totalTokenSold */\n      0x05\n        /* \"Ethereum/Presale.sol\":5328:5369  presaleStatus.totalTokenSold += tokenSold */\n      dup1\n      sload\n        /* \"Ethereum/Presale.sol\":5360:5369  tokenSold */\n      dup3\n      swap2\n        /* \"Ethereum/Presale.sol\":5328:5356  presaleStatus.totalTokenSold */\n      swap1\n      0x00\n      swap1\n        /* \"Ethereum/Presale.sol\":5328:5369  presaleStatus.totalTokenSold += tokenSold */\n      tag_220\n      swap1\n        /* \"Ethereum/Presale.sol\":5360:5369  tokenSold */\n      dup5\n      swap1\n        /* \"Ethereum/Presale.sol\":5328:5369  presaleStatus.totalTokenSold += tokenSold */\n      tag_174\n      jump\t// in\n    tag_220:\n      swap1\n      swap2\n      sstore\n      pop\n      pop\n        /* \"Ethereum/Presale.sol\":5380:5405  presaleStatus.numberBuyer */\n      0x08\n        /* \"Ethereum/Presale.sol\":5380:5407  presaleStatus.numberBuyer++ */\n      dup1\n      sload\n      swap1\n        /* \"Ethereum/Presale.sol\":5380:5405  presaleStatus.numberBuyer */\n      0x00\n        /* \"Ethereum/Presale.sol\":5380:5407  presaleStatus.numberBuyer++ */\n      tag_221\n      dup4\n      tag_222\n      jump\t// in\n    tag_221:\n      swap1\n      swap2\n      sstore\n      pop\n      pop\n        /* \"Ethereum/Presale.sol\":5426:5436  msg.sender */\n      caller\n        /* \"Ethereum/Presale.sol\":5418:5437  userFee[msg.sender] */\n      0x00\n      swap1\n      dup2\n      mstore\n        /* \"Ethereum/Presale.sol\":5418:5425  userFee */\n      0x03\n        /* \"Ethereum/Presale.sol\":5418:5437  userFee[msg.sender] */\n      0x20\n      mstore\n      0x40\n      dup2\n      keccak256\n        /* \"Ethereum/Presale.sol\":5418:5444  userFee[msg.sender] += fee */\n      dup1\n      sload\n        /* \"Ethereum/Presale.sol\":5441:5444  fee */\n      dup9\n      swap3\n        /* \"Ethereum/Presale.sol\":5418:5437  userFee[msg.sender] */\n      swap1\n        /* \"Ethereum/Presale.sol\":5418:5444  userFee[msg.sender] += fee */\n      tag_223\n      swap1\n        /* \"Ethereum/Presale.sol\":5441:5444  fee */\n      dup5\n      swap1\n        /* \"Ethereum/Presale.sol\":5418:5444  userFee[msg.sender] += fee */\n      tag_174\n      jump\t// in\n    tag_223:\n      swap3\n      pop\n      pop\n      dup2\n      swap1\n      sstore\n      pop\n        /* \"Ethereum/Presale.sol\":5467:5470  fee */\n      dup6\n        /* \"Ethereum/Presale.sol\":5455:5463  totalFee */\n      0x1d\n      0x00\n        /* \"Ethereum/Presale.sol\":5455:5470  totalFee += fee */\n      dup3\n      dup3\n      sload\n      tag_224\n      swap2\n      swap1\n      tag_174\n      jump\t// in\n    tag_224:\n      swap1\n      swap2\n      sstore\n      pop\n      pop\n        /* \"Ethereum/Presale.sol\":5486:5511  saleInfor.saleIsBaseToken */\n      and(0xff, sload(0x17))\n        /* \"Ethereum/Presale.sol\":5486:5547  saleInfor.saleIsBaseToken && real_amount_in + fee < msg.value */\n      dup1\n      iszero\n      tag_225\n      jumpi\n      pop\n        /* \"Ethereum/Presale.sol\":5538:5547  msg.value */\n      callvalue\n        /* \"Ethereum/Presale.sol\":5515:5535  real_amount_in + fee */\n      tag_226\n        /* \"Ethereum/Presale.sol\":5532:5535  fee */\n      dup8\n        /* \"Ethereum/Presale.sol\":5515:5529  real_amount_in */\n      dup10\n        /* \"Ethereum/Presale.sol\":5515:5535  real_amount_in + fee */\n      tag_174\n      jump\t// in\n    tag_226:\n        /* \"Ethereum/Presale.sol\":5515:5547  real_amount_in + fee < msg.value */\n      lt\n        /* \"Ethereum/Presale.sol\":5486:5547  saleInfor.saleIsBaseToken && real_amount_in + fee < msg.value */\n    tag_225:\n        /* \"Ethereum/Presale.sol\":5483:5638  if(saleInfor.saleIsBaseToken && real_amount_in + fee < msg.value) {\r... */\n      iszero\n      tag_227\n      jumpi\n        /* \"Ethereum/Presale.sol\":5572:5582  msg.sender */\n      caller\n        /* \"Ethereum/Presale.sol\":5564:5626  payable(msg.sender).transfer(msg.value - real_amount_in - fee) */\n      0x08fc\n        /* \"Ethereum/Presale.sol\":5622:5625  fee */\n      dup8\n        /* \"Ethereum/Presale.sol\":5593:5619  msg.value - real_amount_in */\n      tag_228\n        /* \"Ethereum/Presale.sol\":5605:5619  real_amount_in */\n      dup11\n        /* \"Ethereum/Presale.sol\":5593:5602  msg.value */\n      callvalue\n        /* \"Ethereum/Presale.sol\":5593:5619  msg.value - real_amount_in */\n      tag_161\n      jump\t// in\n    tag_228:\n        /* \"Ethereum/Presale.sol\":5593:5625  msg.value - real_amount_in - fee */\n      tag_229\n      swap2\n      swap1\n      tag_161\n      jump\t// in\n    tag_229:\n        /* \"Ethereum/Presale.sol\":5564:5626  payable(msg.sender).transfer(msg.value - real_amount_in - fee) */\n      mload(0x40)\n      dup2\n      iszero\n      swap1\n      swap3\n      mul\n      swap2\n      0x00\n      dup2\n      dup2\n      dup2\n      dup6\n      dup9\n      dup9\n      call\n      swap4\n      pop\n      pop\n      pop\n      pop\n      iszero\n      dup1\n      iszero\n      tag_231\n      jumpi\n      returndatasize\n      0x00\n      dup1\n      returndatacopy\n      revert(0x00, returndatasize)\n    tag_231:\n      pop\n        /* \"Ethereum/Presale.sol\":5483:5638  if(saleInfor.saleIsBaseToken && real_amount_in + fee < msg.value) {\r... */\n    tag_227:\n        /* \"Ethereum/Presale.sol\":5653:5678  saleInfor.saleIsBaseToken */\n      and(0xff, sload(0x17))\n        /* \"Ethereum/Presale.sol\":5649:5900  if(!saleInfor.saleIsBaseToken) {\r... */\n      tag_233\n      jumpi\n        /* \"Ethereum/Presale.sol\":5753:5772  saleInfor.baseToken */\n      sload(0x0f)\n        /* \"Ethereum/Presale.sol\":5695:5888  TransferHelper.safeTransferFrom(\r... */\n      tag_233\n      swap1\n      sub(shl(0xa0, 0x01), 0x01)\n        /* \"Ethereum/Presale.sol\":5753:5772  saleInfor.baseToken */\n      and\n        /* \"Ethereum/Presale.sol\":5792:5802  msg.sender */\n      caller\n        /* \"Ethereum/Presale.sol\":5829:5833  this */\n      address\n        /* \"Ethereum/Presale.sol\":5853:5873  real_amount_in + fee */\n      tag_234\n        /* \"Ethereum/Presale.sol\":5870:5873  fee */\n      dup11\n        /* \"Ethereum/Presale.sol\":5853:5867  real_amount_in */\n      dup13\n        /* \"Ethereum/Presale.sol\":5853:5873  real_amount_in + fee */\n      tag_174\n      jump\t// in\n    tag_234:\n        /* \"Ethereum/Presale.sol\":5695:5726  TransferHelper.safeTransferFrom */\n      tag_235\n        /* \"Ethereum/Presale.sol\":5695:5888  TransferHelper.safeTransferFrom(\r... */\n      jump\t// in\n    tag_233:\n      pop\n      pop\n        /* \"Utils/ReentrancyGuard.sol\":1734:1735  1 */\n      0x01\n        /* \"Utils/ReentrancyGuard.sol\":2688:2695  _status */\n      0x00\n        /* \"Utils/ReentrancyGuard.sol\":2688:2710  _status = _NOT_ENTERED */\n      sstore\n      pop\n      pop\n      pop\n      pop\n      pop\n      pop\n      pop\n      pop\n        /* \"Ethereum/Presale.sol\":3794:5919  function deposit(uint256 _amount) external payable nonReentrant {\r... */\n      jump\t// out\n        /* \"Ethereum/Presale.sol\":3676:3786  function checkAdminAddress() public view returns(bool) {\r... */\n    tag_86:\n        /* \"Ethereum/Presale.sol\":3725:3729  bool */\n      0x00\n        /* \"Ethereum/Presale.sol\":3749:3778  admins.contains(_msgSender()) */\n      tag_237\n        /* \"Ethereum/Presale.sol\":3765:3777  _msgSender() */\n      tag_238\n        /* \"Ethereum/Presale.sol\":3765:3775  _msgSender */\n      tag_112\n        /* \"Ethereum/Presale.sol\":3765:3777  _msgSender() */\n      jump\t// in\n    tag_238:\n        /* \"Ethereum/Presale.sol\":3749:3755  admins */\n      0x1b\n      swap1\n        /* \"Ethereum/Presale.sol\":3749:3764  admins.contains */\n      tag_239\n        /* \"Ethereum/Presale.sol\":3749:3778  admins.contains(_msgSender()) */\n      jump\t// in\n    tag_237:\n        /* \"Ethereum/Presale.sol\":3742:3778  return admins.contains(_msgSender()) */\n      swap1\n      pop\n        /* \"Ethereum/Presale.sol\":3676:3786  function checkAdminAddress() public view returns(bool) {\r... */\n      swap1\n      jump\t// out\n        /* \"Ethereum/Presale.sol\":1480:1526  mapping(address => BuyerInfo) public buyerInfo */\n    tag_92:\n      0x02\n      0x20\n      dup2\n      swap1\n      mstore\n      0x00\n      swap2\n      dup3\n      mstore\n      0x40\n      swap1\n      swap2\n      keccak256\n      dup1\n      sload\n      0x01\n      dup3\n      add\n      sload\n      swap3\n      dup3\n      add\n      sload\n      0x03\n      dup4\n      add\n      sload\n      0x04\n      swap1\n      swap4\n      add\n      sload\n      swap2\n      swap4\n      swap3\n      swap1\n      swap2\n      0xff\n      dup1\n      dup3\n      and\n      swap2\n      0x0100\n      swap1\n      div\n      and\n      dup7\n      jump\t// out\n        /* \"Utils/Ownable.sol\":1972:2173  function transferOwnership(address newOwner) public virtual onlyOwner {\r... */\n    tag_98:\n        /* \"Utils/Ownable.sol\":1294:1306  _msgSender() */\n      tag_241\n        /* \"Utils/Ownable.sol\":1294:1304  _msgSender */\n      tag_112\n        /* \"Utils/Ownable.sol\":1294:1306  _msgSender() */\n      jump\t// in\n    tag_241:\n      sub(shl(0xa0, 0x01), 0x01)\n        /* \"Utils/Ownable.sol\":1283:1306  owner() == _msgSender() */\n      and\n        /* \"Utils/Ownable.sol\":1283:1290  owner() */\n      tag_242\n        /* \"Utils/Ownable.sol\":1283:1288  owner */\n      tag_59\n        /* \"Utils/Ownable.sol\":1283:1290  owner() */\n      jump\t// in\n    tag_242:\n      sub(shl(0xa0, 0x01), 0x01)\n        /* \"Utils/Ownable.sol\":1283:1306  owner() == _msgSender() */\n      and\n      eq\n        /* \"Utils/Ownable.sol\":1275:1343  require(owner() == _msgSender(), \"Ownable: caller is not the owner\") */\n      tag_243\n      jumpi\n      mload(0x40)\n      shl(0xe5, 0x461bcd)\n      dup2\n      mstore\n      0x04\n      add\n      tag_115\n      swap1\n      tag_116\n      jump\t// in\n    tag_243:\n      sub(shl(0xa0, 0x01), 0x01)\n        /* \"Utils/Ownable.sol\":2061:2083  newOwner != address(0) */\n      dup2\n      and\n        /* \"Utils/Ownable.sol\":2053:2126  require(newOwner != address(0), \"Ownable: new owner is the zero address\") */\n      tag_246\n      jumpi\n      mload(0x40)\n      shl(0xe5, 0x461bcd)\n      dup2\n      mstore\n      0x04\n      add\n      tag_115\n      swap1\n      tag_248\n      jump\t// in\n    tag_246:\n        /* \"Utils/Ownable.sol\":2137:2165  _transferOwnership(newOwner) */\n      tag_122\n        /* \"Utils/Ownable.sol\":2156:2164  newOwner */\n      dup2\n        /* \"Utils/Ownable.sol\":2137:2155  _transferOwnership */\n      tag_119\n        /* \"Utils/Ownable.sol\":2137:2165  _transferOwnership(newOwner) */\n      jump\t// in\n        /* \"Ethereum/Presale.sol\":6819:6930  function getBalance(address _address) external view returns(uint256) {\r... */\n    tag_102:\n      sub(shl(0xa0, 0x01), 0x01)\n        /* \"Ethereum/Presale.sol\":6906:6922  _address.balance */\n      and\n      balance\n      swap1\n        /* \"Ethereum/Presale.sol\":6819:6930  function getBalance(address _address) external view returns(uint256) {\r... */\n      jump\t// out\n        /* \"Utils/EnumerableSet.sol\":8259:8411  function add(AddressSet storage set, address value) internal returns (bool) {\r... */\n    tag_104:\n        /* \"Utils/EnumerableSet.sol\":8329:8333  bool */\n      0x00\n        /* \"Utils/EnumerableSet.sol\":8353:8403  _add(set._inner, bytes32(uint256(uint160(value)))) */\n      tag_252\n        /* \"Utils/EnumerableSet.sol\":8358:8361  set */\n      dup4\n      sub(shl(0xa0, 0x01), 0x01)\n        /* \"Utils/EnumerableSet.sol\":8378:8401  uint256(uint160(value)) */\n      dup5\n      and\n        /* \"Utils/EnumerableSet.sol\":8353:8357  _add */\n      tag_253\n        /* \"Utils/EnumerableSet.sol\":8353:8403  _add(set._inner, bytes32(uint256(uint160(value)))) */\n      jump\t// in\n    tag_252:\n        /* \"Utils/EnumerableSet.sol\":8346:8403  return _add(set._inner, bytes32(uint256(uint160(value)))) */\n      swap1\n      pop\n        /* \"Utils/EnumerableSet.sol\":8259:8411  function add(AddressSet storage set, address value) internal returns (bool) {\r... */\n    tag_251:\n      swap3\n      swap2\n      pop\n      pop\n      jump\t// out\n        /* \"Utils/Context.sol\":656:754  function _msgSender() internal view virtual returns (address) {\r... */\n    tag_112:\n        /* \"Utils/Context.sol\":736:746  msg.sender */\n      caller\n        /* \"Utils/Context.sol\":656:754  function _msgSender() internal view virtual returns (address) {\r... */\n      swap1\n      jump\t// out\n        /* \"Utils/Ownable.sol\":2333:2524  function _transferOwnership(address newOwner) internal virtual {\r... */\n    tag_119:\n        /* \"Utils/Ownable.sol\":2426:2432  _owner */\n      0x01\n      dup1\n      sload\n      sub(shl(0xa0, 0x01), 0x01)\n        /* \"Utils/Ownable.sol\":2443:2460  _owner = newOwner */\n      dup4\n      dup2\n      and\n      not(sub(shl(0xa0, 0x01), 0x01))\n      dup4\n      and\n      dup2\n      or\n      swap1\n      swap4\n      sstore\n        /* \"Utils/Ownable.sol\":2476:2516  OwnershipTransferred(oldOwner, newOwner) */\n      mload(0x40)\n        /* \"Utils/Ownable.sol\":2426:2432  _owner */\n      swap2\n      and\n      swap2\n        /* \"Utils/Ownable.sol\":2443:2460  _owner = newOwner */\n      swap1\n        /* \"Utils/Ownable.sol\":2426:2432  _owner */\n      dup3\n      swap1\n        /* \"Utils/Ownable.sol\":2476:2516  OwnershipTransferred(oldOwner, newOwner) */\n      0x8be0079c531659141344cd1fd0a4f28419497f9722a3daafe3b4186f6b6457e0\n      swap1\n        /* \"Utils/Ownable.sol\":2407:2423  address oldOwner */\n      0x00\n      swap1\n        /* \"Utils/Ownable.sol\":2476:2516  OwnershipTransferred(oldOwner, newOwner) */\n      log3\n        /* \"Utils/Ownable.sol\":2333:2524  function _transferOwnership(address newOwner) internal virtual {\r... */\n      pop\n      pop\n      jump\t// out\n        /* \"Utils/SafeMath.sol\":3585:3683  function mul(uint256 a, uint256 b) internal pure returns (uint256) {\r... */\n    tag_150:\n        /* \"Utils/SafeMath.sol\":3643:3650  uint256 */\n      0x00\n        /* \"Utils/SafeMath.sol\":3670:3675  a * b */\n      tag_252\n        /* \"Utils/SafeMath.sol\":3674:3675  b */\n      dup3\n        /* \"Utils/SafeMath.sol\":3670:3671  a */\n      dup5\n        /* \"Utils/SafeMath.sol\":3670:3675  a * b */\n      tag_134\n      jump\t// in\n        /* \"Utils/SafeMath.sol\":3228:3326  function sub(uint256 a, uint256 b) internal pure returns (uint256) {\r... */\n    tag_171:\n        /* \"Utils/SafeMath.sol\":3286:3293  uint256 */\n      0x00\n        /* \"Utils/SafeMath.sol\":3313:3318  a - b */\n      tag_252\n        /* \"Utils/SafeMath.sol\":3317:3318  b */\n      dup3\n        /* \"Utils/SafeMath.sol\":3313:3314  a */\n      dup5\n        /* \"Utils/SafeMath.sol\":3313:3318  a - b */\n      tag_161\n      jump\t// in\n        /* \"Utils/SafeMath.sol\":3984:4082  function div(uint256 a, uint256 b) internal pure returns (uint256) {\r... */\n    tag_172:\n        /* \"Utils/SafeMath.sol\":4042:4049  uint256 */\n      0x00\n        /* \"Utils/SafeMath.sol\":4069:4074  a / b */\n      tag_252\n        /* \"Utils/SafeMath.sol\":4073:4074  b */\n      dup3\n        /* \"Utils/SafeMath.sol\":4069:4070  a */\n      dup5\n        /* \"Utils/SafeMath.sol\":4069:4074  a / b */\n      tag_262\n      jump\t// in\n        /* \"Utils/TransferHelper.sol\":1073:1503  function safeTransferFrom(\r... */\n    tag_235:\n        /* \"Utils/TransferHelper.sol\":1219:1231  bool success */\n      0x00\n        /* \"Utils/TransferHelper.sol\":1233:1250  bytes memory data */\n      dup1\n        /* \"Utils/TransferHelper.sol\":1254:1259  token */\n      dup6\n      sub(shl(0xa0, 0x01), 0x01)\n        /* \"Utils/TransferHelper.sol\":1254:1264  token.call */\n      and\n        /* \"Utils/TransferHelper.sol\":1302:1312  0x23b872dd */\n      0x23b872dd\n        /* \"Utils/TransferHelper.sol\":1314:1318  from */\n      dup7\n        /* \"Utils/TransferHelper.sol\":1320:1322  to */\n      dup7\n        /* \"Utils/TransferHelper.sol\":1324:1329  value */\n      dup7\n        /* \"Utils/TransferHelper.sol\":1279:1330  abi.encodeWithSelector(0x23b872dd, from, to, value) */\n      add(0x24, mload(0x40))\n      tag_264\n      swap4\n      swap3\n      swap2\n      swap1\n      tag_265\n      jump\t// in\n    tag_264:\n      mload(0x40)\n      0x20\n      dup2\n      dup4\n      sub\n      sub\n      dup2\n      mstore\n      swap1\n      0x40\n      mstore\n      swap1\n      0xe0\n      shl\n      0x20\n      dup3\n      add\n      dup1\n      mload\n      sub(shl(0xe0, 0x01), 0x01)\n      dup4\n      dup2\n      dup4\n      and\n      or\n      dup4\n      mstore\n      pop\n      pop\n      pop\n      pop\n        /* \"Utils/TransferHelper.sol\":1254:1341  token.call(\r... */\n      mload(0x40)\n      tag_266\n      swap2\n      swap1\n      tag_267\n      jump\t// in\n    tag_266:\n      0x00\n      mload(0x40)\n      dup1\n      dup4\n      sub\n      dup2\n      0x00\n      dup7\n      gas\n      call\n      swap2\n      pop\n      pop\n      returndatasize\n      dup1\n      0x00\n      dup2\n      eq\n      tag_270\n      jumpi\n      mload(0x40)\n      swap2\n      pop\n      and(add(returndatasize, 0x3f), not(0x1f))\n      dup3\n      add\n      0x40\n      mstore\n      returndatasize\n      dup3\n      mstore\n      returndatasize\n      0x00\n      0x20\n      dup5\n      add\n      returndatacopy\n      jump(tag_269)\n    tag_270:\n      0x60\n      swap2\n      pop\n    tag_269:\n      pop\n        /* \"Utils/TransferHelper.sol\":1218:1341  (bool success, bytes memory data) = token.call(\r... */\n      swap2\n      pop\n      swap2\n      pop\n        /* \"Utils/TransferHelper.sol\":1374:1381  success */\n      dup2\n        /* \"Utils/TransferHelper.sol\":1374:1431  success && (data.length == 0 || abi.decode(data, (bool))) */\n      dup1\n      iszero\n      tag_273\n      jumpi\n      pop\n        /* \"Utils/TransferHelper.sol\":1386:1397  data.length */\n      dup1\n      mload\n        /* \"Utils/TransferHelper.sol\":1386:1402  data.length == 0 */\n      iszero\n      dup1\n        /* \"Utils/TransferHelper.sol\":1386:1430  data.length == 0 || abi.decode(data, (bool)) */\n      tag_273\n      jumpi\n      pop\n        /* \"Utils/TransferHelper.sol\":1417:1421  data */\n      dup1\n        /* \"Utils/TransferHelper.sol\":1406:1430  abi.decode(data, (bool)) */\n      dup1\n      0x20\n      add\n      swap1\n      mload\n      dup2\n      add\n      swap1\n      tag_273\n      swap2\n      swap1\n      tag_182\n      jump\t// in\n    tag_273:\n        /* \"Utils/TransferHelper.sol\":1352:1495  require(\r... */\n      tag_274\n      jumpi\n      mload(0x40)\n      shl(0xe5, 0x461bcd)\n      dup2\n      mstore\n      0x04\n      add\n      tag_115\n      swap1\n      tag_276\n      jump\t// in\n    tag_274:\n        /* \"Utils/TransferHelper.sol\":1073:1503  function safeTransferFrom(\r... */\n      pop\n      pop\n      pop\n      pop\n      pop\n      pop\n      jump\t// out\n        /* \"Utils/EnumerableSet.sol\":8831:8998  function contains(AddressSet storage set, address value) internal view returns (bool) {\r... */\n    tag_239:\n        /* \"Utils/EnumerableSet.sol\":8911:8915  bool */\n      0x00\n        /* \"Utils/EnumerableSet.sol\":8935:8990  _contains(set._inner, bytes32(uint256(uint160(value)))) */\n      tag_252\n        /* \"Utils/EnumerableSet.sol\":8945:8948  set */\n      dup4\n      sub(shl(0xa0, 0x01), 0x01)\n        /* \"Utils/EnumerableSet.sol\":8965:8988  uint256(uint160(value)) */\n      dup5\n      and\n        /* \"Utils/EnumerableSet.sol\":8935:8944  _contains */\n      tag_279\n        /* \"Utils/EnumerableSet.sol\":8935:8990  _contains(set._inner, bytes32(uint256(uint160(value)))) */\n      jump\t// in\n        /* \"Utils/EnumerableSet.sol\":2174:2588  function _add(Set storage set, bytes32 value) private returns (bool) {\r... */\n    tag_253:\n        /* \"Utils/EnumerableSet.sol\":2237:2241  bool */\n      0x00\n        /* \"Utils/EnumerableSet.sol\":2259:2280  _contains(set, value) */\n      tag_281\n        /* \"Utils/EnumerableSet.sol\":2269:2272  set */\n      dup4\n        /* \"Utils/EnumerableSet.sol\":2274:2279  value */\n      dup4\n        /* \"Utils/EnumerableSet.sol\":2259:2268  _contains */\n      tag_279\n        /* \"Utils/EnumerableSet.sol\":2259:2280  _contains(set, value) */\n      jump\t// in\n    tag_281:\n        /* \"Utils/EnumerableSet.sol\":2254:2581  if (!_contains(set, value)) {\r... */\n      tag_282\n      jumpi\n      pop\n        /* \"Utils/EnumerableSet.sol\":2297:2320  set._values.push(value) */\n      dup2\n      sload\n      0x01\n      dup2\n      dup2\n      add\n      dup5\n      sstore\n        /* \"Utils/EnumerableSet.sol\":2297:2308  set._values */\n      0x00\n        /* \"Utils/EnumerableSet.sol\":2297:2320  set._values.push(value) */\n      dup5\n      dup2\n      mstore\n      0x20\n      dup1\n      dup3\n      keccak256\n      swap1\n      swap4\n      add\n      dup5\n      swap1\n      sstore\n        /* \"Utils/EnumerableSet.sol\":2480:2498  set._values.length */\n      dup5\n      sload\n        /* \"Utils/EnumerableSet.sol\":2458:2477  set._indexes[value] */\n      dup5\n      dup3\n      mstore\n        /* \"Utils/EnumerableSet.sol\":2458:2470  set._indexes */\n      dup3\n      dup7\n      add\n        /* \"Utils/EnumerableSet.sol\":2458:2477  set._indexes[value] */\n      swap1\n      swap4\n      mstore\n      0x40\n      swap1\n      keccak256\n        /* \"Utils/EnumerableSet.sol\":2458:2498  set._indexes[value] = set._values.length */\n      swap2\n      swap1\n      swap2\n      sstore\n        /* \"Utils/EnumerableSet.sol\":2513:2524  return true */\n      jump(tag_251)\n        /* \"Utils/EnumerableSet.sol\":2254:2581  if (!_contains(set, value)) {\r... */\n    tag_282:\n      pop\n        /* \"Utils/EnumerableSet.sol\":2564:2569  false */\n      0x00\n        /* \"Utils/EnumerableSet.sol\":2557:2569  return false */\n      jump(tag_251)\n        /* \"Utils/EnumerableSet.sol\":4270:4399  function _contains(Set storage set, bytes32 value) private view returns (bool) {\r... */\n    tag_279:\n        /* \"Utils/EnumerableSet.sol\":4343:4347  bool */\n      0x00\n        /* \"Utils/EnumerableSet.sol\":4367:4386  set._indexes[value] */\n      swap1\n      dup2\n      mstore\n        /* \"Utils/EnumerableSet.sol\":4367:4379  set._indexes */\n      0x01\n      swap2\n      swap1\n      swap2\n      add\n        /* \"Utils/EnumerableSet.sol\":4367:4386  set._indexes[value] */\n      0x20\n      mstore\n      0x40\n      swap1\n      keccak256\n      sload\n        /* \"Utils/EnumerableSet.sol\":4367:4391  set._indexes[value] != 0 */\n      iszero\n      iszero\n      swap1\n        /* \"Utils/EnumerableSet.sol\":4270:4399  function _contains(Set storage set, bytes32 value) private view returns (bool) {\r... */\n      jump\t// out\n        /* \"#utility.yul\":14:273   */\n    tag_49:\n      0x00\n        /* \"#utility.yul\":126:128   */\n      0x20\n        /* \"#utility.yul\":114:123   */\n      dup3\n        /* \"#utility.yul\":105:112   */\n      dup5\n        /* \"#utility.yul\":101:124   */\n      sub\n        /* \"#utility.yul\":97:129   */\n      slt\n        /* \"#utility.yul\":94:96   */\n      iszero\n      tag_288\n      jumpi\n        /* \"#utility.yul\":147:153   */\n      dup1\n        /* \"#utility.yul\":139:145   */\n      dup2\n        /* \"#utility.yul\":132:154   */\n      revert\n        /* \"#utility.yul\":94:96   */\n    tag_288:\n        /* \"#utility.yul\":191:200   */\n      dup2\n        /* \"#utility.yul\":178:201   */\n      calldataload\n        /* \"#utility.yul\":210:243   */\n      tag_289\n        /* \"#utility.yul\":237:242   */\n      dup2\n        /* \"#utility.yul\":210:243   */\n      tag_290\n      jump\t// in\n    tag_289:\n        /* \"#utility.yul\":262:267   */\n      swap4\n        /* \"#utility.yul\":84:273   */\n      swap3\n      pop\n      pop\n      pop\n      jump\t// out\n        /* \"#utility.yul\":278:1580   */\n    tag_65:\n      0x00\n      dup1\n      0x00\n      dup1\n        /* \"#utility.yul\":476:479   */\n      0x0180\n        /* \"#utility.yul\":520:522   */\n      dup1\n        /* \"#utility.yul\":508:517   */\n      dup7\n        /* \"#utility.yul\":499:506   */\n      dup9\n        /* \"#utility.yul\":495:518   */\n      sub\n        /* \"#utility.yul\":491:523   */\n      slt\n        /* \"#utility.yul\":488:490   */\n      iszero\n      tag_292\n      jumpi\n        /* \"#utility.yul\":541:547   */\n      dup4\n        /* \"#utility.yul\":533:539   */\n      dup5\n        /* \"#utility.yul\":526:548   */\n      revert\n        /* \"#utility.yul\":488:490   */\n    tag_292:\n        /* \"#utility.yul\":585:594   */\n      dup6\n        /* \"#utility.yul\":572:595   */\n      calldataload\n        /* \"#utility.yul\":604:637   */\n      tag_293\n        /* \"#utility.yul\":631:636   */\n      dup2\n        /* \"#utility.yul\":604:637   */\n      tag_290\n      jump\t// in\n    tag_293:\n        /* \"#utility.yul\":656:661   */\n      swap5\n      pop\n        /* \"#utility.yul\":680:682   */\n      0x20\n        /* \"#utility.yul\":719:737   */\n      dup7\n      dup2\n      add\n        /* \"#utility.yul\":706:738   */\n      calldataload\n        /* \"#utility.yul\":747:782   */\n      tag_294\n        /* \"#utility.yul\":706:738   */\n      dup2\n        /* \"#utility.yul\":747:782   */\n      tag_290\n      jump\t// in\n    tag_294:\n        /* \"#utility.yul\":801:808   */\n      swap5\n      pop\n        /* \"#utility.yul\":860:862   */\n      0x40\n        /* \"#utility.yul\":845:863   */\n      dup8\n      add\n        /* \"#utility.yul\":832:864   */\n      calldataload\n        /* \"#utility.yul\":873:908   */\n      tag_295\n        /* \"#utility.yul\":832:864   */\n      dup2\n        /* \"#utility.yul\":873:908   */\n      tag_290\n      jump\t// in\n    tag_295:\n        /* \"#utility.yul\":927:934   */\n      swap4\n      pop\n        /* \"#utility.yul\":972:975   */\n      0x7f\n        /* \"#utility.yul\":957:976   */\n      dup8\n      add\n        /* \"#utility.yul\":953:986   */\n      dup9\n      sgt\n        /* \"#utility.yul\":943:945   */\n      tag_296\n      jumpi\n        /* \"#utility.yul\":1005:1011   */\n      dup3\n        /* \"#utility.yul\":997:1003   */\n      dup4\n        /* \"#utility.yul\":990:1012   */\n      revert\n        /* \"#utility.yul\":943:945   */\n    tag_296:\n        /* \"#utility.yul\":1043:1045   */\n      0x40\n        /* \"#utility.yul\":1037:1046   */\n      mload\n        /* \"#utility.yul\":1085:1088   */\n      0x0120\n        /* \"#utility.yul\":1077:1083   */\n      dup2\n        /* \"#utility.yul\":1073:1089   */\n      add\n        /* \"#utility.yul\":1155:1161   */\n      dup2\n        /* \"#utility.yul\":1143:1153   */\n      dup2\n        /* \"#utility.yul\":1140:1162   */\n      lt\n        /* \"#utility.yul\":1119:1137   */\n      0xffffffffffffffff\n        /* \"#utility.yul\":1107:1117   */\n      dup3\n        /* \"#utility.yul\":1104:1138   */\n      gt\n        /* \"#utility.yul\":1101:1163   */\n      or\n        /* \"#utility.yul\":1098:1100   */\n      iszero\n      tag_298\n      jumpi\n        /* \"#utility.yul\":1166:1184   */\n      tag_298\n      tag_299\n      jump\t// in\n    tag_298:\n        /* \"#utility.yul\":1202:1204   */\n      0x40\n        /* \"#utility.yul\":1195:1217   */\n      mstore\n        /* \"#utility.yul\":1237:1243   */\n      dup1\n        /* \"#utility.yul\":1278:1280   */\n      0x60\n        /* \"#utility.yul\":1263:1281   */\n      dup10\n      add\n        /* \"#utility.yul\":1296:1314   */\n      dup5\n      dup11\n      add\n        /* \"#utility.yul\":1293:1324   */\n      dup12\n      lt\n        /* \"#utility.yul\":1290:1292   */\n      iszero\n      tag_300\n      jumpi\n        /* \"#utility.yul\":1342:1348   */\n      dup6\n        /* \"#utility.yul\":1334:1340   */\n      dup7\n        /* \"#utility.yul\":1327:1349   */\n      revert\n        /* \"#utility.yul\":1290:1292   */\n    tag_300:\n        /* \"#utility.yul\":1369:1375   */\n      dup6\n        /* \"#utility.yul\":1360:1375   */\n      swap5\n      pop\n        /* \"#utility.yul\":1384:1549   */\n    tag_301:\n        /* \"#utility.yul\":1398:1402   */\n      0x09\n        /* \"#utility.yul\":1395:1396   */\n      dup6\n        /* \"#utility.yul\":1392:1403   */\n      lt\n        /* \"#utility.yul\":1384:1549   */\n      iszero\n      tag_303\n      jumpi\n        /* \"#utility.yul\":1457:1474   */\n      dup1\n      calldataload\n        /* \"#utility.yul\":1445:1475   */\n      dup3\n      mstore\n        /* \"#utility.yul\":1418:1419   */\n      0x01\n        /* \"#utility.yul\":1411:1420   */\n      swap5\n      swap1\n      swap5\n      add\n      swap4\n        /* \"#utility.yul\":1495:1507   */\n      swap1\n      dup4\n      add\n      swap1\n        /* \"#utility.yul\":1527:1539   */\n      dup4\n      add\n        /* \"#utility.yul\":1384:1549   */\n      jump(tag_301)\n    tag_303:\n        /* \"#utility.yul\":1388:1391   */\n      pop\n      pop\n        /* \"#utility.yul\":1568:1574   */\n      dup1\n        /* \"#utility.yul\":1558:1574   */\n      swap4\n      pop\n      pop\n      pop\n      pop\n        /* \"#utility.yul\":456:1580   */\n      swap3\n      swap6\n      swap2\n      swap5\n      pop\n      swap3\n      pop\n      jump\t// out\n        /* \"#utility.yul\":1585:1882   */\n    tag_182:\n      0x00\n        /* \"#utility.yul\":1705:1707   */\n      0x20\n        /* \"#utility.yul\":1693:1702   */\n      dup3\n        /* \"#utility.yul\":1684:1691   */\n      dup5\n        /* \"#utility.yul\":1680:1703   */\n      sub\n        /* \"#utility.yul\":1676:1708   */\n      slt\n        /* \"#utility.yul\":1673:1675   */\n      iszero\n      tag_305\n      jumpi\n        /* \"#utility.yul\":1726:1732   */\n      dup1\n        /* \"#utility.yul\":1718:1724   */\n      dup2\n        /* \"#utility.yul\":1711:1733   */\n      revert\n        /* \"#utility.yul\":1673:1675   */\n    tag_305:\n        /* \"#utility.yul\":1763:1772   */\n      dup2\n        /* \"#utility.yul\":1757:1773   */\n      mload\n        /* \"#utility.yul\":1816:1821   */\n      dup1\n        /* \"#utility.yul\":1809:1822   */\n      iszero\n        /* \"#utility.yul\":1802:1823   */\n      iszero\n        /* \"#utility.yul\":1795:1800   */\n      dup2\n        /* \"#utility.yul\":1792:1824   */\n      eq\n        /* \"#utility.yul\":1782:1784   */\n      tag_289\n      jumpi\n        /* \"#utility.yul\":1843:1849   */\n      dup2\n        /* \"#utility.yul\":1835:1841   */\n      dup3\n        /* \"#utility.yul\":1828:1850   */\n      revert\n        /* \"#utility.yul\":1887:2077   */\n    tag_82:\n      0x00\n        /* \"#utility.yul\":1999:2001   */\n      0x20\n        /* \"#utility.yul\":1987:1996   */\n      dup3\n        /* \"#utility.yul\":1978:1985   */\n      dup5\n        /* \"#utility.yul\":1974:1997   */\n      sub\n        /* \"#utility.yul\":1970:2002   */\n      slt\n        /* \"#utility.yul\":1967:1969   */\n      iszero\n      tag_308\n      jumpi\n        /* \"#utility.yul\":2020:2026   */\n      dup1\n        /* \"#utility.yul\":2012:2018   */\n      dup2\n        /* \"#utility.yul\":2005:2027   */\n      revert\n        /* \"#utility.yul\":1967:1969   */\n    tag_308:\n      pop\n        /* \"#utility.yul\":2048:2071   */\n      calldataload\n      swap2\n        /* \"#utility.yul\":1957:2077   */\n      swap1\n      pop\n      jump\t// out\n        /* \"#utility.yul\":2082:2276   */\n    tag_129:\n      0x00\n        /* \"#utility.yul\":2205:2207   */\n      0x20\n        /* \"#utility.yul\":2193:2202   */\n      dup3\n        /* \"#utility.yul\":2184:2191   */\n      dup5\n        /* \"#utility.yul\":2180:2203   */\n      sub\n        /* \"#utility.yul\":2176:2208   */\n      slt\n        /* \"#utility.yul\":2173:2175   */\n      iszero\n      tag_310\n      jumpi\n        /* \"#utility.yul\":2226:2232   */\n      dup1\n        /* \"#utility.yul\":2218:2224   */\n      dup2\n        /* \"#utility.yul\":2211:2233   */\n      revert\n        /* \"#utility.yul\":2173:2175   */\n    tag_310:\n      pop\n        /* \"#utility.yul\":2254:2270   */\n      mload\n      swap2\n        /* \"#utility.yul\":2163:2276   */\n      swap1\n      pop\n      jump\t// out\n        /* \"#utility.yul\":2281:2711   */\n    tag_267:\n      0x00\n        /* \"#utility.yul\":2448:2454   */\n      dup3\n        /* \"#utility.yul\":2442:2455   */\n      mload\n        /* \"#utility.yul\":2473:2476   */\n      dup2\n        /* \"#utility.yul\":2485:2614   */\n    tag_312:\n        /* \"#utility.yul\":2499:2505   */\n      dup2\n        /* \"#utility.yul\":2496:2497   */\n      dup2\n        /* \"#utility.yul\":2493:2506   */\n      lt\n        /* \"#utility.yul\":2485:2614   */\n      iszero\n      tag_314\n      jumpi\n        /* \"#utility.yul\":2597:2601   */\n      0x20\n        /* \"#utility.yul\":2581:2595   */\n      dup2\n      dup7\n      add\n        /* \"#utility.yul\":2577:2602   */\n      dup2\n      add\n        /* \"#utility.yul\":2571:2603   */\n      mload\n        /* \"#utility.yul\":2558:2569   */\n      dup6\n      dup4\n      add\n        /* \"#utility.yul\":2551:2604   */\n      mstore\n        /* \"#utility.yul\":2514:2526   */\n      add\n        /* \"#utility.yul\":2485:2614   */\n      jump(tag_312)\n    tag_314:\n        /* \"#utility.yul\":2632:2638   */\n      dup2\n        /* \"#utility.yul\":2629:2630   */\n      dup2\n        /* \"#utility.yul\":2626:2639   */\n      gt\n        /* \"#utility.yul\":2623:2625   */\n      iszero\n      tag_315\n      jumpi\n        /* \"#utility.yul\":2667:2670   */\n      dup3\n        /* \"#utility.yul\":2658:2664   */\n      dup3\n        /* \"#utility.yul\":2653:2656   */\n      dup6\n        /* \"#utility.yul\":2649:2665   */\n      add\n        /* \"#utility.yul\":2642:2671   */\n      mstore\n        /* \"#utility.yul\":2623:2625   */\n    tag_315:\n      pop\n        /* \"#utility.yul\":2689:2705   */\n      swap2\n      swap1\n      swap2\n      add\n      swap3\n        /* \"#utility.yul\":2418:2711   */\n      swap2\n      pop\n      pop\n      jump\t// out\n        /* \"#utility.yul\":2716:2919   */\n    tag_61:\n      sub(shl(0xa0, 0x01), 0x01)\n        /* \"#utility.yul\":2880:2912   */\n      swap2\n      swap1\n      swap2\n      and\n        /* \"#utility.yul\":2862:2913   */\n      dup2\n      mstore\n        /* \"#utility.yul\":2850:2852   */\n      0x20\n        /* \"#utility.yul\":2835:2853   */\n      add\n      swap1\n        /* \"#utility.yul\":2817:2919   */\n      jump\t// out\n        /* \"#utility.yul\":2924:4012   */\n    tag_32:\n      sub(shl(0xa0, 0x01), 0x01)\n        /* \"#utility.yul\":3473:3488   */\n      swap13\n      dup14\n      and\n        /* \"#utility.yul\":3455:3489   */\n      dup2\n      mstore\n        /* \"#utility.yul\":3525:3540   */\n      swap11\n      dup13\n      and\n        /* \"#utility.yul\":3520:3522   */\n      0x20\n        /* \"#utility.yul\":3505:3523   */\n      dup13\n      add\n        /* \"#utility.yul\":3498:3541   */\n      mstore\n        /* \"#utility.yul\":3577:3592   */\n      swap9\n      swap1\n      swap11\n      and\n        /* \"#utility.yul\":3572:3574   */\n      0x40\n        /* \"#utility.yul\":3557:3575   */\n      dup11\n      add\n        /* \"#utility.yul\":3550:3593   */\n      mstore\n        /* \"#utility.yul\":3624:3626   */\n      0x60\n        /* \"#utility.yul\":3609:3627   */\n      dup10\n      add\n        /* \"#utility.yul\":3602:3636   */\n      swap7\n      swap1\n      swap7\n      mstore\n        /* \"#utility.yul\":3667:3670   */\n      0x80\n        /* \"#utility.yul\":3652:3671   */\n      dup9\n      add\n        /* \"#utility.yul\":3645:3680   */\n      swap5\n      swap1\n      swap5\n      mstore\n        /* \"#utility.yul\":3435:3438   */\n      0xa0\n        /* \"#utility.yul\":3696:3715   */\n      dup8\n      add\n        /* \"#utility.yul\":3689:3724   */\n      swap3\n      swap1\n      swap3\n      mstore\n        /* \"#utility.yul\":3755:3758   */\n      0xc0\n        /* \"#utility.yul\":3740:3759   */\n      dup7\n      add\n        /* \"#utility.yul\":3733:3768   */\n      mstore\n        /* \"#utility.yul\":3799:3802   */\n      0xe0\n        /* \"#utility.yul\":3784:3803   */\n      dup6\n      add\n        /* \"#utility.yul\":3777:3812   */\n      mstore\n        /* \"#utility.yul\":3843:3846   */\n      0x0100\n        /* \"#utility.yul\":3828:3847   */\n      dup5\n      add\n        /* \"#utility.yul\":3821:3856   */\n      mstore\n        /* \"#utility.yul\":3887:3890   */\n      0x0120\n        /* \"#utility.yul\":3872:3891   */\n      dup4\n      add\n        /* \"#utility.yul\":3865:3900   */\n      mstore\n        /* \"#utility.yul\":3944:3959   */\n      swap2\n      iszero\n        /* \"#utility.yul\":3937:3960   */\n      iszero\n        /* \"#utility.yul\":3931:3934   */\n      0x0140\n        /* \"#utility.yul\":3916:3935   */\n      dup3\n      add\n        /* \"#utility.yul\":3909:3961   */\n      mstore\n        /* \"#utility.yul\":3992:3995   */\n      0x0160\n        /* \"#utility.yul\":3977:3996   */\n      dup2\n      add\n        /* \"#utility.yul\":3970:4006   */\n      swap2\n      swap1\n      swap2\n      mstore\n        /* \"#utility.yul\":3404:3407   */\n      0x0180\n        /* \"#utility.yul\":3389:3408   */\n      add\n      swap1\n        /* \"#utility.yul\":3371:4012   */\n      jump\t// out\n        /* \"#utility.yul\":4017:4392   */\n    tag_265:\n      sub(shl(0xa0, 0x01), 0x01)\n        /* \"#utility.yul\":4275:4290   */\n      swap4\n      dup5\n      and\n        /* \"#utility.yul\":4257:4291   */\n      dup2\n      mstore\n        /* \"#utility.yul\":4327:4342   */\n      swap2\n      swap1\n      swap3\n      and\n        /* \"#utility.yul\":4322:4324   */\n      0x20\n        /* \"#utility.yul\":4307:4325   */\n      dup3\n      add\n        /* \"#utility.yul\":4300:4343   */\n      mstore\n        /* \"#utility.yul\":4374:4376   */\n      0x40\n        /* \"#utility.yul\":4359:4377   */\n      dup2\n      add\n        /* \"#utility.yul\":4352:4386   */\n      swap2\n      swap1\n      swap2\n      mstore\n        /* \"#utility.yul\":4207:4209   */\n      0x60\n        /* \"#utility.yul\":4192:4210   */\n      add\n      swap1\n        /* \"#utility.yul\":4174:4392   */\n      jump\t// out\n        /* \"#utility.yul\":4397:4671   */\n    tag_177:\n      sub(shl(0xa0, 0x01), 0x01)\n        /* \"#utility.yul\":4589:4621   */\n      swap3\n      swap1\n      swap3\n      and\n        /* \"#utility.yul\":4571:4622   */\n      dup3\n      mstore\n        /* \"#utility.yul\":4653:4655   */\n      0x20\n        /* \"#utility.yul\":4638:4656   */\n      dup3\n      add\n        /* \"#utility.yul\":4631:4665   */\n      mstore\n        /* \"#utility.yul\":4559:4561   */\n      0x40\n        /* \"#utility.yul\":4544:4562   */\n      add\n      swap1\n        /* \"#utility.yul\":4526:4671   */\n      jump\t// out\n        /* \"#utility.yul\":4676:4863   */\n    tag_88:\n        /* \"#utility.yul\":4841:4855   */\n      swap1\n      iszero\n        /* \"#utility.yul\":4834:4856   */\n      iszero\n        /* \"#utility.yul\":4816:4857   */\n      dup2\n      mstore\n        /* \"#utility.yul\":4804:4806   */\n      0x20\n        /* \"#utility.yul\":4789:4807   */\n      add\n      swap1\n        /* \"#utility.yul\":4771:4863   */\n      jump\t// out\n        /* \"#utility.yul\":5090:5441   */\n    tag_164:\n        /* \"#utility.yul\":5292:5294   */\n      0x20\n        /* \"#utility.yul\":5274:5295   */\n      dup1\n      dup3\n      mstore\n        /* \"#utility.yul\":5331:5333   */\n      0x1b\n        /* \"#utility.yul\":5311:5329   */\n      swap1\n      dup3\n      add\n        /* \"#utility.yul\":5304:5334   */\n      mstore\n        /* \"#utility.yul\":5370:5399   */\n      0x416c6c20746f6b656e20686173206265656e2077697468647261770000000000\n        /* \"#utility.yul\":5365:5367   */\n      0x40\n        /* \"#utility.yul\":5350:5368   */\n      dup3\n      add\n        /* \"#utility.yul\":5343:5400   */\n      mstore\n        /* \"#utility.yul\":5432:5434   */\n      0x60\n        /* \"#utility.yul\":5417:5435   */\n      add\n      swap1\n        /* \"#utility.yul\":5264:5441   */\n      jump\t// out\n        /* \"#utility.yul\":5446:5848   */\n    tag_248:\n        /* \"#utility.yul\":5648:5650   */\n      0x20\n        /* \"#utility.yul\":5630:5651   */\n      dup1\n      dup3\n      mstore\n        /* \"#utility.yul\":5687:5689   */\n      0x26\n        /* \"#utility.yul\":5667:5685   */\n      swap1\n      dup3\n      add\n        /* \"#utility.yul\":5660:5690   */\n      mstore\n        /* \"#utility.yul\":5726:5760   */\n      0x4f776e61626c653a206e6577206f776e657220697320746865207a65726f2061\n        /* \"#utility.yul\":5721:5723   */\n      0x40\n        /* \"#utility.yul\":5706:5724   */\n      dup3\n      add\n        /* \"#utility.yul\":5699:5761   */\n      mstore\n      shl(0xd0, 0x646472657373)\n        /* \"#utility.yul\":5792:5794   */\n      0x60\n        /* \"#utility.yul\":5777:5795   */\n      dup3\n      add\n        /* \"#utility.yul\":5770:5806   */\n      mstore\n        /* \"#utility.yul\":5838:5841   */\n      0x80\n        /* \"#utility.yul\":5823:5842   */\n      add\n      swap1\n        /* \"#utility.yul\":5620:5848   */\n      jump\t// out\n        /* \"#utility.yul\":5853:6191   */\n    tag_196:\n        /* \"#utility.yul\":6055:6057   */\n      0x20\n        /* \"#utility.yul\":6037:6058   */\n      dup1\n      dup3\n      mstore\n        /* \"#utility.yul\":6094:6096   */\n      0x0e\n        /* \"#utility.yul\":6074:6092   */\n      swap1\n      dup3\n      add\n        /* \"#utility.yul\":6067:6097   */\n      mstore\n      shl(0x90, 0x4f766572666c6f772076616c7565)\n        /* \"#utility.yul\":6128:6130   */\n      0x40\n        /* \"#utility.yul\":6113:6131   */\n      dup3\n      add\n        /* \"#utility.yul\":6106:6150   */\n      mstore\n        /* \"#utility.yul\":6182:6184   */\n      0x60\n        /* \"#utility.yul\":6167:6185   */\n      add\n      swap1\n        /* \"#utility.yul\":6027:6191   */\n      jump\t// out\n        /* \"#utility.yul\":6196:6530   */\n    tag_190:\n        /* \"#utility.yul\":6398:6400   */\n      0x20\n        /* \"#utility.yul\":6380:6401   */\n      dup1\n      dup3\n      mstore\n        /* \"#utility.yul\":6437:6439   */\n      0x0a\n        /* \"#utility.yul\":6417:6435   */\n      swap1\n      dup3\n      add\n        /* \"#utility.yul\":6410:6440   */\n      mstore\n      shl(0xb0, 0x4e6f7420616374697665)\n        /* \"#utility.yul\":6471:6473   */\n      0x40\n        /* \"#utility.yul\":6456:6474   */\n      dup3\n      add\n        /* \"#utility.yul\":6449:6489   */\n      mstore\n        /* \"#utility.yul\":6521:6523   */\n      0x60\n        /* \"#utility.yul\":6506:6524   */\n      add\n      swap1\n        /* \"#utility.yul\":6370:6530   */\n      jump\t// out\n        /* \"#utility.yul\":6535:6875   */\n    tag_193:\n        /* \"#utility.yul\":6737:6739   */\n      0x20\n        /* \"#utility.yul\":6719:6740   */\n      dup1\n      dup3\n      mstore\n        /* \"#utility.yul\":6776:6778   */\n      0x10\n        /* \"#utility.yul\":6756:6774   */\n      swap1\n      dup3\n      add\n        /* \"#utility.yul\":6749:6779   */\n      mstore\n      shl(0x80, 0x4e6f7420656e6f7567682076616c7565)\n        /* \"#utility.yul\":6810:6812   */\n      0x40\n        /* \"#utility.yul\":6795:6813   */\n      dup3\n      add\n        /* \"#utility.yul\":6788:6834   */\n      mstore\n        /* \"#utility.yul\":6866:6868   */\n      0x60\n        /* \"#utility.yul\":6851:6869   */\n      add\n      swap1\n        /* \"#utility.yul\":6709:6875   */\n      jump\t// out\n        /* \"#utility.yul\":6880:7216   */\n    tag_159:\n        /* \"#utility.yul\":7082:7084   */\n      0x20\n        /* \"#utility.yul\":7064:7085   */\n      dup1\n      dup3\n      mstore\n        /* \"#utility.yul\":7121:7123   */\n      0x0c\n        /* \"#utility.yul\":7101:7119   */\n      swap1\n      dup3\n      add\n        /* \"#utility.yul\":7094:7124   */\n      mstore\n      shl(0xa0, 0x53616c652073756365737373)\n        /* \"#utility.yul\":7155:7157   */\n      0x40\n        /* \"#utility.yul\":7140:7158   */\n      dup3\n      add\n        /* \"#utility.yul\":7133:7175   */\n      mstore\n        /* \"#utility.yul\":7207:7209   */\n      0x60\n        /* \"#utility.yul\":7192:7210   */\n      add\n      swap1\n        /* \"#utility.yul\":7054:7216   */\n      jump\t// out\n        /* \"#utility.yul\":7221:7577   */\n    tag_116:\n        /* \"#utility.yul\":7423:7425   */\n      0x20\n        /* \"#utility.yul\":7405:7426   */\n      dup1\n      dup3\n      mstore\n        /* \"#utility.yul\":7442:7460   */\n      dup2\n      dup2\n      add\n        /* \"#utility.yul\":7435:7465   */\n      mstore\n        /* \"#utility.yul\":7501:7535   */\n      0x4f776e61626c653a2063616c6c6572206973206e6f7420746865206f776e6572\n        /* \"#utility.yul\":7496:7498   */\n      0x40\n        /* \"#utility.yul\":7481:7499   */\n      dup3\n      add\n        /* \"#utility.yul\":7474:7536   */\n      mstore\n        /* \"#utility.yul\":7568:7570   */\n      0x60\n        /* \"#utility.yul\":7553:7571   */\n      add\n      swap1\n        /* \"#utility.yul\":7395:7577   */\n      jump\t// out\n        /* \"#utility.yul\":7582:7985   */\n    tag_167:\n        /* \"#utility.yul\":7784:7786   */\n      0x20\n        /* \"#utility.yul\":7766:7787   */\n      dup1\n      dup3\n      mstore\n        /* \"#utility.yul\":7823:7825   */\n      0x27\n        /* \"#utility.yul\":7803:7821   */\n      swap1\n      dup3\n      add\n        /* \"#utility.yul\":7796:7826   */\n      mstore\n        /* \"#utility.yul\":7862:7896   */\n      0x596f7520776974686472617720616c6c206f722068617665206e6f7420626f75\n        /* \"#utility.yul\":7857:7859   */\n      0x40\n        /* \"#utility.yul\":7842:7860   */\n      dup3\n      add\n        /* \"#utility.yul\":7835:7897   */\n      mstore\n      shl(0xca, 0x19da1d081e595d)\n        /* \"#utility.yul\":7928:7930   */\n      0x60\n        /* \"#utility.yul\":7913:7931   */\n      dup3\n      add\n        /* \"#utility.yul\":7906:7943   */\n      mstore\n        /* \"#utility.yul\":7975:7978   */\n      0x80\n        /* \"#utility.yul\":7960:7979   */\n      add\n      swap1\n        /* \"#utility.yul\":7756:7985   */\n      jump\t// out\n        /* \"#utility.yul\":7990:8390   */\n    tag_276:\n        /* \"#utility.yul\":8192:8194   */\n      0x20\n        /* \"#utility.yul\":8174:8195   */\n      dup1\n      dup3\n      mstore\n        /* \"#utility.yul\":8231:8233   */\n      0x24\n        /* \"#utility.yul\":8211:8229   */\n      swap1\n      dup3\n      add\n        /* \"#utility.yul\":8204:8234   */\n      mstore\n        /* \"#utility.yul\":8270:8304   */\n      0x5472616e7366657248656c7065723a205452414e534645525f46524f4d5f4641\n        /* \"#utility.yul\":8265:8267   */\n      0x40\n        /* \"#utility.yul\":8250:8268   */\n      dup3\n      add\n        /* \"#utility.yul\":8243:8305   */\n      mstore\n      shl(0xe2, 0x12531151)\n        /* \"#utility.yul\":8336:8338   */\n      0x60\n        /* \"#utility.yul\":8321:8339   */\n      dup3\n      add\n        /* \"#utility.yul\":8314:8348   */\n      mstore\n        /* \"#utility.yul\":8380:8383   */\n      0x80\n        /* \"#utility.yul\":8365:8384   */\n      add\n      swap1\n        /* \"#utility.yul\":8164:8390   */\n      jump\t// out\n        /* \"#utility.yul\":8395:8750   */\n    tag_154:\n        /* \"#utility.yul\":8597:8599   */\n      0x20\n        /* \"#utility.yul\":8579:8600   */\n      dup1\n      dup3\n      mstore\n        /* \"#utility.yul\":8636:8638   */\n      0x1f\n        /* \"#utility.yul\":8616:8634   */\n      swap1\n      dup3\n      add\n        /* \"#utility.yul\":8609:8639   */\n      mstore\n        /* \"#utility.yul\":8675:8708   */\n      0x5265656e7472616e637947756172643a207265656e7472616e742063616c6c00\n        /* \"#utility.yul\":8670:8672   */\n      0x40\n        /* \"#utility.yul\":8655:8673   */\n      dup3\n      add\n        /* \"#utility.yul\":8648:8709   */\n      mstore\n        /* \"#utility.yul\":8741:8743   */\n      0x60\n        /* \"#utility.yul\":8726:8744   */\n      add\n      swap1\n        /* \"#utility.yul\":8569:8750   */\n      jump\t// out\n        /* \"#utility.yul\":8755:9094   */\n    tag_209:\n        /* \"#utility.yul\":8957:8959   */\n      0x20\n        /* \"#utility.yul\":8939:8960   */\n      dup1\n      dup3\n      mstore\n        /* \"#utility.yul\":8996:8998   */\n      0x0f\n        /* \"#utility.yul\":8976:8994   */\n      swap1\n      dup3\n      add\n        /* \"#utility.yul\":8969:8999   */\n      mstore\n      shl(0x88, 0x53616c652069732073756363657373)\n        /* \"#utility.yul\":9030:9032   */\n      0x40\n        /* \"#utility.yul\":9015:9033   */\n      dup3\n      add\n        /* \"#utility.yul\":9008:9053   */\n      mstore\n        /* \"#utility.yul\":9085:9087   */\n      0x60\n        /* \"#utility.yul\":9070:9088   */\n      add\n      swap1\n        /* \"#utility.yul\":8929:9094   */\n      jump\t// out\n        /* \"#utility.yul\":9099:9276   */\n    tag_37:\n        /* \"#utility.yul\":9245:9270   */\n      swap1\n      dup2\n      mstore\n        /* \"#utility.yul\":9233:9235   */\n      0x20\n        /* \"#utility.yul\":9218:9236   */\n      add\n      swap1\n        /* \"#utility.yul\":9200:9276   */\n      jump\t// out\n        /* \"#utility.yul\":9281:9529   */\n    tag_27:\n        /* \"#utility.yul\":9455:9480   */\n      swap2\n      dup3\n      mstore\n        /* \"#utility.yul\":9511:9513   */\n      0x20\n        /* \"#utility.yul\":9496:9514   */\n      dup3\n      add\n        /* \"#utility.yul\":9489:9523   */\n      mstore\n        /* \"#utility.yul\":9443:9445   */\n      0x40\n        /* \"#utility.yul\":9428:9446   */\n      add\n      swap1\n        /* \"#utility.yul\":9410:9529   */\n      jump\t// out\n        /* \"#utility.yul\":9534:10089   */\n    tag_94:\n        /* \"#utility.yul\":9809:9834   */\n      swap6\n      dup7\n      mstore\n        /* \"#utility.yul\":9865:9867   */\n      0x20\n        /* \"#utility.yul\":9850:9868   */\n      dup7\n      add\n        /* \"#utility.yul\":9843:9877   */\n      swap5\n      swap1\n      swap5\n      mstore\n        /* \"#utility.yul\":9908:9910   */\n      0x40\n        /* \"#utility.yul\":9893:9911   */\n      dup6\n      add\n        /* \"#utility.yul\":9886:9920   */\n      swap3\n      swap1\n      swap3\n      mstore\n        /* \"#utility.yul\":9951:9953   */\n      0x60\n        /* \"#utility.yul\":9936:9954   */\n      dup5\n      add\n        /* \"#utility.yul\":9929:9963   */\n      mstore\n        /* \"#utility.yul\":10007:10021   */\n      iszero\n        /* \"#utility.yul\":10000:10022   */\n      iszero\n        /* \"#utility.yul\":9994:9997   */\n      0x80\n        /* \"#utility.yul\":9979:9998   */\n      dup4\n      add\n        /* \"#utility.yul\":9972:10023   */\n      mstore\n        /* \"#utility.yul\":10067:10081   */\n      iszero\n        /* \"#utility.yul\":10060:10082   */\n      iszero\n        /* \"#utility.yul\":10054:10057   */\n      0xa0\n        /* \"#utility.yul\":10039:10058   */\n      dup3\n      add\n        /* \"#utility.yul\":10032:10083   */\n      mstore\n        /* \"#utility.yul\":9796:9799   */\n      0xc0\n        /* \"#utility.yul\":9781:9800   */\n      add\n      swap1\n        /* \"#utility.yul\":9763:10089   */\n      jump\t// out\n        /* \"#utility.yul\":10094:10629   */\n    tag_74:\n        /* \"#utility.yul\":10381:10406   */\n      swap6\n      dup7\n      mstore\n        /* \"#utility.yul\":10437:10439   */\n      0x20\n        /* \"#utility.yul\":10422:10440   */\n      dup7\n      add\n        /* \"#utility.yul\":10415:10449   */\n      swap5\n      swap1\n      swap5\n      mstore\n        /* \"#utility.yul\":10480:10482   */\n      0x40\n        /* \"#utility.yul\":10465:10483   */\n      dup6\n      add\n        /* \"#utility.yul\":10458:10492   */\n      swap3\n      swap1\n      swap3\n      mstore\n        /* \"#utility.yul\":10523:10525   */\n      0x60\n        /* \"#utility.yul\":10508:10526   */\n      dup5\n      add\n        /* \"#utility.yul\":10501:10535   */\n      mstore\n        /* \"#utility.yul\":10566:10569   */\n      0x80\n        /* \"#utility.yul\":10551:10570   */\n      dup4\n      add\n        /* \"#utility.yul\":10544:10579   */\n      mstore\n        /* \"#utility.yul\":10610:10613   */\n      0xa0\n        /* \"#utility.yul\":10595:10614   */\n      dup3\n      add\n        /* \"#utility.yul\":10588:10623   */\n      mstore\n        /* \"#utility.yul\":10368:10371   */\n      0xc0\n        /* \"#utility.yul\":10353:10372   */\n      add\n      swap1\n        /* \"#utility.yul\":10335:10629   */\n      jump\t// out\n        /* \"#utility.yul\":10634:10762   */\n    tag_174:\n      0x00\n        /* \"#utility.yul\":10705:10706   */\n      dup3\n        /* \"#utility.yul\":10701:10707   */\n      not\n        /* \"#utility.yul\":10698:10699   */\n      dup3\n        /* \"#utility.yul\":10695:10708   */\n      gt\n        /* \"#utility.yul\":10692:10694   */\n      iszero\n      tag_339\n      jumpi\n        /* \"#utility.yul\":10711:10729   */\n      tag_339\n      tag_340\n      jump\t// in\n    tag_339:\n      pop\n        /* \"#utility.yul\":10747:10756   */\n      add\n      swap1\n        /* \"#utility.yul\":10682:10762   */\n      jump\t// out\n        /* \"#utility.yul\":10767:10984   */\n    tag_262:\n      0x00\n        /* \"#utility.yul\":10833:10834   */\n      dup3\n        /* \"#utility.yul\":10823:10825   */\n      tag_342\n      jumpi\n      shl(0xe0, 0x4e487b71)\n        /* \"#utility.yul\":10858:10889   */\n      dup2\n      mstore\n        /* \"#utility.yul\":10912:10916   */\n      0x12\n        /* \"#utility.yul\":10909:10910   */\n      0x04\n        /* \"#utility.yul\":10902:10917   */\n      mstore\n        /* \"#utility.yul\":10940:10944   */\n      0x24\n        /* \"#utility.yul\":10865:10866   */\n      dup2\n        /* \"#utility.yul\":10930:10945   */\n      revert\n        /* \"#utility.yul\":10823:10825   */\n    tag_342:\n      pop\n        /* \"#utility.yul\":10969:10978   */\n      div\n      swap1\n        /* \"#utility.yul\":10813:10984   */\n      jump\t// out\n        /* \"#utility.yul\":10989:11442   */\n    tag_343:\n        /* \"#utility.yul\":11085:11091   */\n      dup1\n        /* \"#utility.yul\":11108:11113   */\n      dup3\n        /* \"#utility.yul\":11122:11436   */\n    tag_345:\n        /* \"#utility.yul\":11171:11172   */\n      0x01\n        /* \"#utility.yul\":11208:11210   */\n      dup1\n        /* \"#utility.yul\":11198:11206   */\n      dup7\n        /* \"#utility.yul\":11195:11211   */\n      gt\n        /* \"#utility.yul\":11185:11187   */\n      tag_348\n      jumpi\n        /* \"#utility.yul\":11215:11220   */\n      pop\n      jump(tag_347)\n        /* \"#utility.yul\":11185:11187   */\n    tag_348:\n        /* \"#utility.yul\":11256:11260   */\n      dup2\n        /* \"#utility.yul\":11251:11254   */\n      dup8\n        /* \"#utility.yul\":11247:11261   */\n      div\n        /* \"#utility.yul\":11241:11245   */\n      dup3\n        /* \"#utility.yul\":11238:11262   */\n      gt\n        /* \"#utility.yul\":11235:11237   */\n      iszero\n      tag_350\n      jumpi\n        /* \"#utility.yul\":11265:11283   */\n      tag_350\n      tag_340\n      jump\t// in\n    tag_350:\n        /* \"#utility.yul\":11315:11317   */\n      dup1\n        /* \"#utility.yul\":11305:11313   */\n      dup7\n        /* \"#utility.yul\":11301:11318   */\n      and\n        /* \"#utility.yul\":11298:11300   */\n      iszero\n      tag_351\n      jumpi\n        /* \"#utility.yul\":11330:11346   */\n      swap2\n      dup2\n      mul\n      swap2\n        /* \"#utility.yul\":11298:11300   */\n    tag_351:\n        /* \"#utility.yul\":11409:11426   */\n      swap5\n      swap1\n      swap5\n      shr\n      swap4\n        /* \"#utility.yul\":11369:11384   */\n      dup1\n      mul\n        /* \"#utility.yul\":11122:11436   */\n      jump(tag_345)\n    tag_347:\n        /* \"#utility.yul\":11066:11442   */\n      swap5\n      pop\n      swap5\n      swap3\n      pop\n      pop\n      pop\n      jump\t// out\n        /* \"#utility.yul\":11447:11586   */\n    tag_131:\n      0x00\n        /* \"#utility.yul\":11536:11580   */\n      tag_252\n      not(0x00)\n        /* \"#utility.yul\":11563:11571   */\n      dup5\n        /* \"#utility.yul\":11557:11561   */\n      dup5\n        /* \"#utility.yul\":11591:12513   */\n      0x00\n        /* \"#utility.yul\":11675:11683   */\n      dup3\n        /* \"#utility.yul\":11665:11667   */\n      tag_356\n      jumpi\n      pop\n        /* \"#utility.yul\":11716:11717   */\n      0x01\n        /* \"#utility.yul\":11730:11735   */\n      jump(tag_289)\n        /* \"#utility.yul\":11665:11667   */\n    tag_356:\n        /* \"#utility.yul\":11764:11768   */\n      dup2\n        /* \"#utility.yul\":11754:11756   */\n      tag_357\n      jumpi\n      pop\n        /* \"#utility.yul\":11801:11802   */\n      0x00\n        /* \"#utility.yul\":11815:11820   */\n      jump(tag_289)\n        /* \"#utility.yul\":11754:11756   */\n    tag_357:\n        /* \"#utility.yul\":11846:11850   */\n      dup2\n        /* \"#utility.yul\":11864:11865   */\n      0x01\n        /* \"#utility.yul\":11859:11918   */\n      dup2\n      eq\n      tag_359\n      jumpi\n        /* \"#utility.yul\":11932:11933   */\n      0x02\n        /* \"#utility.yul\":11927:12110   */\n      dup2\n      eq\n      tag_360\n      jumpi\n        /* \"#utility.yul\":11839:12110   */\n      jump(tag_358)\n        /* \"#utility.yul\":11859:11918   */\n    tag_359:\n        /* \"#utility.yul\":11889:11890   */\n      0x01\n        /* \"#utility.yul\":11880:11890   */\n      swap2\n      pop\n        /* \"#utility.yul\":11903:11908   */\n      pop\n      jump(tag_289)\n        /* \"#utility.yul\":11927:12110   */\n    tag_360:\n        /* \"#utility.yul\":11964:11967   */\n      0xff\n        /* \"#utility.yul\":11954:11962   */\n      dup5\n        /* \"#utility.yul\":11951:11968   */\n      gt\n        /* \"#utility.yul\":11948:11950   */\n      iszero\n      tag_362\n      jumpi\n        /* \"#utility.yul\":11971:11989   */\n      tag_362\n      tag_340\n      jump\t// in\n    tag_362:\n        /* \"#utility.yul\":12027:12028   */\n      0x01\n        /* \"#utility.yul\":12017:12025   */\n      dup5\n        /* \"#utility.yul\":12013:12029   */\n      shl\n        /* \"#utility.yul\":12004:12029   */\n      swap2\n      pop\n        /* \"#utility.yul\":12055:12058   */\n      dup5\n        /* \"#utility.yul\":12048:12053   */\n      dup3\n        /* \"#utility.yul\":12045:12059   */\n      gt\n        /* \"#utility.yul\":12042:12044   */\n      iszero\n      tag_364\n      jumpi\n        /* \"#utility.yul\":12062:12080   */\n      tag_364\n      tag_340\n      jump\t// in\n    tag_364:\n        /* \"#utility.yul\":12095:12100   */\n      pop\n      jump(tag_289)\n        /* \"#utility.yul\":11839:12110   */\n    tag_358:\n      pop\n        /* \"#utility.yul\":12194:12196   */\n      0x20\n        /* \"#utility.yul\":12184:12192   */\n      dup4\n        /* \"#utility.yul\":12181:12197   */\n      lt\n        /* \"#utility.yul\":12175:12178   */\n      0x0133\n        /* \"#utility.yul\":12169:12173   */\n      dup4\n        /* \"#utility.yul\":12166:12179   */\n      lt\n        /* \"#utility.yul\":12162:12198   */\n      and\n        /* \"#utility.yul\":12156:12158   */\n      0x4e\n        /* \"#utility.yul\":12146:12154   */\n      dup5\n        /* \"#utility.yul\":12143:12159   */\n      lt\n        /* \"#utility.yul\":12138:12140   */\n      0x0b\n        /* \"#utility.yul\":12132:12136   */\n      dup5\n        /* \"#utility.yul\":12129:12141   */\n      lt\n        /* \"#utility.yul\":12125:12160   */\n      and\n        /* \"#utility.yul\":12122:12199   */\n      or\n        /* \"#utility.yul\":12119:12121   */\n      iszero\n      tag_365\n      jumpi\n      pop\n        /* \"#utility.yul\":12231:12250   */\n      dup2\n      dup2\n      exp\n        /* \"#utility.yul\":12266:12280   */\n      dup4\n      dup2\n      gt\n        /* \"#utility.yul\":12263:12265   */\n      iszero\n      tag_367\n      jumpi\n        /* \"#utility.yul\":12283:12301   */\n      tag_367\n      tag_340\n      jump\t// in\n    tag_367:\n        /* \"#utility.yul\":12316:12321   */\n      jump(tag_289)\n        /* \"#utility.yul\":12119:12121   */\n    tag_365:\n        /* \"#utility.yul\":12363:12405   */\n      tag_368\n        /* \"#utility.yul\":12401:12404   */\n      dup5\n        /* \"#utility.yul\":12391:12399   */\n      dup5\n        /* \"#utility.yul\":12385:12389   */\n      dup5\n        /* \"#utility.yul\":12382:12383   */\n      0x01\n        /* \"#utility.yul\":12363:12405   */\n      tag_343\n      jump\t// in\n    tag_368:\n        /* \"#utility.yul\":12438:12444   */\n      dup1\n        /* \"#utility.yul\":12433:12436   */\n      dup7\n        /* \"#utility.yul\":12429:12445   */\n      div\n        /* \"#utility.yul\":12420:12427   */\n      dup3\n        /* \"#utility.yul\":12417:12446   */\n      gt\n        /* \"#utility.yul\":12414:12416   */\n      iszero\n      tag_370\n      jumpi\n        /* \"#utility.yul\":12449:12467   */\n      tag_370\n      tag_340\n      jump\t// in\n    tag_370:\n        /* \"#utility.yul\":12487:12507   */\n      mul\n      swap5\n        /* \"#utility.yul\":11655:12513   */\n      swap4\n      pop\n      pop\n      pop\n      pop\n      jump\t// out\n        /* \"#utility.yul\":12518:12686   */\n    tag_134:\n      0x00\n        /* \"#utility.yul\":12624:12625   */\n      dup2\n        /* \"#utility.yul\":12620:12621   */\n      0x00\n        /* \"#utility.yul\":12616:12622   */\n      not\n        /* \"#utility.yul\":12612:12626   */\n      div\n        /* \"#utility.yul\":12609:12610   */\n      dup4\n        /* \"#utility.yul\":12606:12627   */\n      gt\n        /* \"#utility.yul\":12601:12602   */\n      dup3\n        /* \"#utility.yul\":12594:12603   */\n      iszero\n        /* \"#utility.yul\":12587:12604   */\n      iszero\n        /* \"#utility.yul\":12583:12628   */\n      and\n        /* \"#utility.yul\":12580:12582   */\n      iszero\n      tag_373\n      jumpi\n        /* \"#utility.yul\":12631:12649   */\n      tag_373\n      tag_340\n      jump\t// in\n    tag_373:\n      pop\n        /* \"#utility.yul\":12671:12680   */\n      mul\n      swap1\n        /* \"#utility.yul\":12570:12686   */\n      jump\t// out\n        /* \"#utility.yul\":12691:12816   */\n    tag_161:\n      0x00\n        /* \"#utility.yul\":12759:12760   */\n      dup3\n        /* \"#utility.yul\":12756:12757   */\n      dup3\n        /* \"#utility.yul\":12753:12761   */\n      lt\n        /* \"#utility.yul\":12750:12752   */\n      iszero\n      tag_376\n      jumpi\n        /* \"#utility.yul\":12764:12782   */\n      tag_376\n      tag_340\n      jump\t// in\n    tag_376:\n      pop\n        /* \"#utility.yul\":12801:12810   */\n      sub\n      swap1\n        /* \"#utility.yul\":12740:12816   */\n      jump\t// out\n        /* \"#utility.yul\":12821:12956   */\n    tag_222:\n      0x00\n      not(0x00)\n        /* \"#utility.yul\":12881:12898   */\n      dup3\n      eq\n        /* \"#utility.yul\":12878:12880   */\n      iszero\n      tag_379\n      jumpi\n        /* \"#utility.yul\":12901:12919   */\n      tag_379\n      tag_340\n      jump\t// in\n    tag_379:\n      pop\n        /* \"#utility.yul\":12948:12949   */\n      0x01\n        /* \"#utility.yul\":12937:12950   */\n      add\n      swap1\n        /* \"#utility.yul\":12868:12956   */\n      jump\t// out\n        /* \"#utility.yul\":12961:13088   */\n    tag_340:\n        /* \"#utility.yul\":13022:13032   */\n      0x4e487b71\n        /* \"#utility.yul\":13017:13020   */\n      0xe0\n        /* \"#utility.yul\":13013:13033   */\n      shl\n        /* \"#utility.yul\":13010:13011   */\n      0x00\n        /* \"#utility.yul\":13003:13034   */\n      mstore\n        /* \"#utility.yul\":13053:13057   */\n      0x11\n        /* \"#utility.yul\":13050:13051   */\n      0x04\n        /* \"#utility.yul\":13043:13058   */\n      mstore\n        /* \"#utility.yul\":13077:13081   */\n      0x24\n        /* \"#utility.yul\":13074:13075   */\n      0x00\n        /* \"#utility.yul\":13067:13082   */\n      revert\n        /* \"#utility.yul\":13093:13220   */\n    tag_299:\n        /* \"#utility.yul\":13154:13164   */\n      0x4e487b71\n        /* \"#utility.yul\":13149:13152   */\n      0xe0\n        /* \"#utility.yul\":13145:13165   */\n      shl\n        /* \"#utility.yul\":13142:13143   */\n      0x00\n        /* \"#utility.yul\":13135:13166   */\n      mstore\n        /* \"#utility.yul\":13185:13189   */\n      0x41\n        /* \"#utility.yul\":13182:13183   */\n      0x04\n        /* \"#utility.yul\":13175:13190   */\n      mstore\n        /* \"#utility.yul\":13209:13213   */\n      0x24\n        /* \"#utility.yul\":13206:13207   */\n      0x00\n        /* \"#utility.yul\":13199:13214   */\n      revert\n        /* \"#utility.yul\":13225:13358   */\n    tag_290:\n      sub(shl(0xa0, 0x01), 0x01)\n        /* \"#utility.yul\":13302:13333   */\n      dup2\n      and\n        /* \"#utility.yul\":13292:13334   */\n      dup2\n      eq\n        /* \"#utility.yul\":13282:13284   */\n      tag_122\n      jumpi\n        /* \"#utility.yul\":13348:13349   */\n      0x00\n        /* \"#utility.yul\":13345:13346   */\n      dup1\n        /* \"#utility.yul\":13338:13350   */\n      revert\n\n    auxdata: 0xa264697066735822122048b73e0b6f99a3f0907ab1389ffa3756223137b1d362d1d0124bc8a7062ae68364736f6c63430008000033\n}\n",
				"bytecode": {
					"linkReferences": {},
					"object": "608060405260016000556200001d62000017620000ae565b620000b2565b6019805473c778417e063141139fce010982780140aa0cd5ab6001600160a01b031990911617905562000072601b736ccb41eeda5a073076f3e7dc1614c185b5fa41ed62000104602090811b62000c0817901c565b50620000a2734f0b12bbf40fc182559822a5b1db6d34dbc3e016601b6200010460201b62000c081790919060201c565b506014601a556200018b565b3390565b600180546001600160a01b038381166001600160a01b0319831681179093556040519116919082907f8be0079c531659141344cd1fd0a4f28419497f9722a3daafe3b4186f6b6457e090600090a35050565b60006200011b836001600160a01b03841662000124565b90505b92915050565b600062000132838362000173565b6200016a575081546001818101845560008481526020808220909301849055845484825282860190935260409020919091556200011e565b5060006200011e565b60009081526001919091016020526040902054151590565b6114ed806200019b6000396000f3fe6080604052600436106101095760003560e01c80638f1eae4c11610095578063b6b55f2511610064578063b6b55f2514610285578063cad5b0f714610298578063e2d3f423146102ba578063f2fde38b146102ec578063f8b2cb4f1461030c57610109565b80638f1eae4c14610214578063ab33985a14610234578063acfb235514610249578063ad5c46481461027057610109565b80633b5ef2ad116100dc5780633b5ef2ad1461019e57806356c5f349146101b3578063715018a6146101d3578063861faf5f146101ea5780638da5cb5b146101f257610109565b806312e5d0b91461010e57806318856a2f1461013a5780631df4ccfc14610167578063200d2ed214610189575b600080fd5b34801561011a57600080fd5b5061012361032c565b604051610131929190611277565b60405180910390f35b34801561014657600080fd5b5061014f610335565b6040516101319c9b9a99989796959493929190610f88565b34801561017357600080fd5b5061017c610376565b604051610131919061126e565b34801561019557600080fd5b5061017c61037c565b3480156101aa57600080fd5b5061017c6103aa565b3480156101bf57600080fd5b5061017c6101ce366004610e07565b6103b0565b3480156101df57600080fd5b506101e86103c2565b005b6101e8610416565b3480156101fe57600080fd5b50610207610445565b6040516101319190610f74565b34801561022057600080fd5b506101e861022f366004610e2a565b610454565b34801561024057600080fd5b506101e8610629565b34801561025557600080fd5b5061025e6107d3565b604051610131969594939291906112b1565b34801561027c57600080fd5b506102076107e8565b6101e8610293366004610f0b565b6107f7565b3480156102a457600080fd5b506102ad610b38565b604051610131919061102a565b3480156102c657600080fd5b506102da6102d5366004610e07565b610b52565b60405161013196959493929190611285565b3480156102f857600080fd5b506101e8610307366004610e07565b610b8d565b34801561031857600080fd5b5061017c610327366004610e07565b610bfb565b600b54600c5482565b600d54600e54600f546010546011546012546013546014546015546016546017546018546001600160a01b039b8c169b9a8b169a9099169860ff909116908c565b601d5481565b601154600090421015610391575060006103a7565b6012544211156103a3575060026103a7565b5060015b90565b601a5481565b60036020526000908152604090205481565b6103ca610c26565b6001600160a01b03166103db610445565b6001600160a01b03161461040a5760405162461bcd60e51b81526004016104019061114e565b60405180910390fd5b6104146000610c2a565b565b60405133904780156108fc02916000818181858888f19350505050158015610442573d6000803e3d6000fd5b50565b6001546001600160a01b031690565b600d80546001600160a01b038087166001600160a01b031992831617909255600e80548684169083161790819055600f80548685169316929092179091556040805163313ce56760e01b81529051919092169163313ce567916004808301926020929190829003018186803b1580156104cc57600080fd5b505afa1580156104e0573d6000803e3d6000fd5b505050506040513d601f19601f820116820180604052508101906105049190610f23565b61050f90600a611357565b815161051b9190611425565b6010556020808201516011556040808301516012556060830151601355600f54815163313ce56760e01b815291516001600160a01b039091169263313ce5679260048082019391829003018186803b15801561057657600080fd5b505afa15801561058a573d6000803e3d6000fd5b505050506040513d601f19601f820116820180604052508101906105ae9190610f23565b6105b990600a611357565b60808201516105c89190611425565b60145560a081015160155560c081015160165560e0810151600b819055610100820151600c55600f54601954601780546001600160a01b03938416939092169290921460ff1990911617905560105461062091610c7c565b60185550505050565b6002600054141561064c5760405162461bcd60e51b81526004016104019061120e565b600260005561065961037c565b6001146106785760405162461bcd60e51b815260040161040190611128565b60065460055460009161068a91611444565b116106a75760405162461bcd60e51b815260040161040190611035565b33600090815260026020526040902060018101546106d75760405162461bcd60e51b815260040161040190611183565b600061070d6103e86107078460010154610701600d600901546103e8610c8890919063ffffffff16565b90610c7c565b90610c94565b9050806004600201600082825461072491906112d9565b9091555050600182015460009061073c908390611444565b60018401839055600e5460405163a9059cbb60e01b81529192506001600160a01b03169063a9059cbb906107769033908690600401611011565b602060405180830381600087803b15801561079057600080fd5b505af11580156107a4573d6000803e3d6000fd5b505050506040513d601f19601f820116820180604052508101906107c89190610eeb565b505060016000555050565b60045460055460065460075460085460095486565b6019546001600160a01b031681565b6002600054141561081a5760405162461bcd60e51b81526004016104019061120e565b600260005561082761037c565b6001146108465760405162461bcd60e51b8152600401610401906110da565b336000908152600260205260408120601354909183918291906103e8908310156108825760405162461bcd60e51b8152600401610401906110fe565b6014548311156108a45760405162461bcd60e51b8152600401610401906110b2565b6108ac610b38565b6108dc576108cd8161070785610701601a5486610c8890919063ffffffff16565b92506108d98385611444565b91505b84546014546000916108ed91611444565b6004546018549192506000916109039190611444565b905060008183116109145782610916565b815b90508086106109375760405162461bcd60e51b815260040161040190611245565b60006109de600d60020160009054906101000a90046001600160a01b03166001600160a01b031663313ce5676040518163ffffffff1660e01b815260040160206040518083038186803b15801561098d57600080fd5b505afa1580156109a1573d6000803e3d6000fd5b505050506040513d601f19601f820116820180604052508101906109c59190610f23565b6109d090600a611357565b601054610707908a90610c7c565b9050878960000160008282546109f491906112d9565b9250508190555080896001016000828254610a0f91906112d9565b909155505060048054889190600090610a299084906112d9565b909155505060058054829190600090610a439084906112d9565b909155505060088054906000610a588361145b565b90915550503360009081526003602052604081208054889290610a7c9084906112d9565b9250508190555085601d6000828254610a9591906112d9565b909155505060175460ff168015610ab4575034610ab287896112d9565b105b15610afc57336108fc87610ac88a34611444565b610ad29190611444565b6040518115909202916000818181858888f19350505050158015610afa573d6000803e3d6000fd5b505b60175460ff16610b2757600f54610b27906001600160a01b03163330610b228a8c6112d9565b610ca0565b505060016000555050505050505050565b6000610b4d610b45610c26565b601b90610d90565b905090565b600260208190526000918252604090912080546001820154928201546003830154600490930154919392909160ff8082169161010090041686565b610b95610c26565b6001600160a01b0316610ba6610445565b6001600160a01b031614610bcc5760405162461bcd60e51b81526004016104019061114e565b6001600160a01b038116610bf25760405162461bcd60e51b81526004016104019061106c565b61044281610c2a565b6001600160a01b03163190565b6000610c1d836001600160a01b038416610da5565b90505b92915050565b3390565b600180546001600160a01b038381166001600160a01b0319831681179093556040519116919082907f8be0079c531659141344cd1fd0a4f28419497f9722a3daafe3b4186f6b6457e090600090a35050565b6000610c1d8284611425565b6000610c1d8284611444565b6000610c1d82846112f1565b600080856001600160a01b03166323b872dd868686604051602401610cc793929190610fed565b6040516020818303038152906040529060e01b6020820180516001600160e01b038381831617835250505050604051610d009190610f3b565b6000604051808303816000865af19150503d8060008114610d3d576040519150601f19603f3d011682016040523d82523d6000602084013e610d42565b606091505b5091509150818015610d6c575080511580610d6c575080806020019051810190610d6c9190610eeb565b610d885760405162461bcd60e51b8152600401610401906111ca565b505050505050565b6000610c1d836001600160a01b038416610def565b6000610db18383610def565b610de757508154600181810184556000848152602080822090930184905584548482528286019093526040902091909155610c20565b506000610c20565b60009081526001919091016020526040902054151590565b600060208284031215610e18578081fd5b8135610e23816114a2565b9392505050565b600080600080610180808688031215610e41578384fd5b8535610e4c816114a2565b9450602086810135610e5d816114a2565b94506040870135610e6d816114a2565b9350607f87018813610e7d578283fd5b604051610120810181811067ffffffffffffffff82111715610ea157610ea161148c565b6040528060608901848a018b1015610eb7578586fd5b8594505b6009851015610eda578035825260019490940193908301908301610ebb565b505080935050505092959194509250565b600060208284031215610efc578081fd5b81518015158114610e23578182fd5b600060208284031215610f1c578081fd5b5035919050565b600060208284031215610f34578081fd5b5051919050565b60008251815b81811015610f5b5760208186018101518583015201610f41565b81811115610f695782828501525b509190910192915050565b6001600160a01b0391909116815260200190565b6001600160a01b039c8d1681529a8c1660208c015298909a1660408a01526060890196909652608088019490945260a087019290925260c086015260e08501526101008401526101208301529115156101408201526101608101919091526101800190565b6001600160a01b039384168152919092166020820152604081019190915260600190565b6001600160a01b03929092168252602082015260400190565b901515815260200190565b6020808252601b908201527f416c6c20746f6b656e20686173206265656e2077697468647261770000000000604082015260600190565b60208082526026908201527f4f776e61626c653a206e6577206f776e657220697320746865207a65726f206160408201526564647265737360d01b606082015260800190565b6020808252600e908201526d4f766572666c6f772076616c756560901b604082015260600190565b6020808252600a90820152694e6f742061637469766560b01b604082015260600190565b60208082526010908201526f4e6f7420656e6f7567682076616c756560801b604082015260600190565b6020808252600c908201526b53616c65207375636573737360a01b604082015260600190565b6020808252818101527f4f776e61626c653a2063616c6c6572206973206e6f7420746865206f776e6572604082015260600190565b60208082526027908201527f596f7520776974686472617720616c6c206f722068617665206e6f7420626f7560408201526619da1d081e595d60ca1b606082015260800190565b60208082526024908201527f5472616e7366657248656c7065723a205452414e534645525f46524f4d5f46416040820152631253115160e21b606082015260800190565b6020808252601f908201527f5265656e7472616e637947756172643a207265656e7472616e742063616c6c00604082015260600190565b6020808252600f908201526e53616c65206973207375636365737360881b604082015260600190565b90815260200190565b918252602082015260400190565b95865260208601949094526040850192909252606084015215156080830152151560a082015260c00190565b958652602086019490945260408501929092526060840152608083015260a082015260c00190565b600082198211156112ec576112ec611476565b500190565b60008261130c57634e487b7160e01b81526012600452602481fd5b500490565b80825b6001808611611323575061134e565b81870482111561133557611335611476565b8086161561134257918102915b9490941c938002611314565b94509492505050565b6000610c1d600019848460008261137057506001610e23565b8161137d57506000610e23565b8160018114611393576002811461139d576113ca565b6001915050610e23565b60ff8411156113ae576113ae611476565b6001841b9150848211156113c4576113c4611476565b50610e23565b5060208310610133831016604e8410600b84101617156113fd575081810a838111156113f8576113f8611476565b610e23565b61140a8484846001611311565b80860482111561141c5761141c611476565b02949350505050565b600081600019048311821515161561143f5761143f611476565b500290565b60008282101561145657611456611476565b500390565b600060001982141561146f5761146f611476565b5060010190565b634e487b7160e01b600052601160045260246000fd5b634e487b7160e01b600052604160045260246000fd5b6001600160a01b038116811461044257600080fdfea264697066735822122048b73e0b6f99a3f0907ab1389ffa3756223137b1d362d1d0124bc8a7062ae68364736f6c63430008000033",
					"opcodes": "PUSH1 0x80 PUSH1 0x40 MSTORE PUSH1 0x1 PUSH1 0x0 SSTORE PUSH3 0x1D PUSH3 0x17 PUSH3 0xAE JUMP JUMPDEST PUSH3 0xB2 JUMP JUMPDEST PUSH1 0x19 DUP1 SLOAD PUSH20 0xC778417E063141139FCE010982780140AA0CD5AB PUSH1 0x1 PUSH1 0x1 PUSH1 0xA0 SHL SUB NOT SWAP1 SWAP2 AND OR SWAP1 SSTORE PUSH3 0x72 PUSH1 0x1B PUSH20 0x6CCB41EEDA5A073076F3E7DC1614C185B5FA41ED PUSH3 0x104 PUSH1 0x20 SWAP1 DUP2 SHL PUSH3 0xC08 OR SWAP1 SHR JUMP JUMPDEST POP PUSH3 0xA2 PUSH20 0x4F0B12BBF40FC182559822A5B1DB6D34DBC3E016 PUSH1 0x1B PUSH3 0x104 PUSH1 0x20 SHL PUSH3 0xC08 OR SWAP1 SWAP2 SWAP1 PUSH1 0x20 SHR JUMP JUMPDEST POP PUSH1 0x14 PUSH1 0x1A SSTORE PUSH3 0x18B JUMP JUMPDEST CALLER SWAP1 JUMP JUMPDEST PUSH1 0x1 DUP1 SLOAD PUSH1 0x1 PUSH1 0x1 PUSH1 0xA0 SHL SUB DUP4 DUP2 AND PUSH1 0x1 PUSH1 0x1 PUSH1 0xA0 SHL SUB NOT DUP4 AND DUP2 OR SWAP1 SWAP4 SSTORE PUSH1 0x40 MLOAD SWAP2 AND SWAP2 SWAP1 DUP3 SWAP1 PUSH32 0x8BE0079C531659141344CD1FD0A4F28419497F9722A3DAAFE3B4186F6B6457E0 SWAP1 PUSH1 0x0 SWAP1 LOG3 POP POP JUMP JUMPDEST PUSH1 0x0 PUSH3 0x11B DUP4 PUSH1 0x1 PUSH1 0x1 PUSH1 0xA0 SHL SUB DUP5 AND PUSH3 0x124 JUMP JUMPDEST SWAP1 POP JUMPDEST SWAP3 SWAP2 POP POP JUMP JUMPDEST PUSH1 0x0 PUSH3 0x132 DUP4 DUP4 PUSH3 0x173 JUMP JUMPDEST PUSH3 0x16A JUMPI POP DUP2 SLOAD PUSH1 0x1 DUP2 DUP2 ADD DUP5 SSTORE PUSH1 0x0 DUP5 DUP2 MSTORE PUSH1 0x20 DUP1 DUP3 KECCAK256 SWAP1 SWAP4 ADD DUP5 SWAP1 SSTORE DUP5 SLOAD DUP5 DUP3 MSTORE DUP3 DUP7 ADD SWAP1 SWAP4 MSTORE PUSH1 0x40 SWAP1 KECCAK256 SWAP2 SWAP1 SWAP2 SSTORE PUSH3 0x11E JUMP JUMPDEST POP PUSH1 0x0 PUSH3 0x11E JUMP JUMPDEST PUSH1 0x0 SWAP1 DUP2 MSTORE PUSH1 0x1 SWAP2 SWAP1 SWAP2 ADD PUSH1 0x20 MSTORE PUSH1 0x40 SWAP1 KECCAK256 SLOAD ISZERO ISZERO SWAP1 JUMP JUMPDEST PUSH2 0x14ED DUP1 PUSH3 0x19B PUSH1 0x0 CODECOPY PUSH1 0x0 RETURN INVALID PUSH1 0x80 PUSH1 0x40 MSTORE PUSH1 0x4 CALLDATASIZE LT PUSH2 0x109 JUMPI PUSH1 0x0 CALLDATALOAD PUSH1 0xE0 SHR DUP1 PUSH4 0x8F1EAE4C GT PUSH2 0x95 JUMPI DUP1 PUSH4 0xB6B55F25 GT PUSH2 0x64 JUMPI DUP1 PUSH4 0xB6B55F25 EQ PUSH2 0x285 JUMPI DUP1 PUSH4 0xCAD5B0F7 EQ PUSH2 0x298 JUMPI DUP1 PUSH4 0xE2D3F423 EQ PUSH2 0x2BA JUMPI DUP1 PUSH4 0xF2FDE38B EQ PUSH2 0x2EC JUMPI DUP1 PUSH4 0xF8B2CB4F EQ PUSH2 0x30C JUMPI PUSH2 0x109 JUMP JUMPDEST DUP1 PUSH4 0x8F1EAE4C EQ PUSH2 0x214 JUMPI DUP1 PUSH4 0xAB33985A EQ PUSH2 0x234 JUMPI DUP1 PUSH4 0xACFB2355 EQ PUSH2 0x249 JUMPI DUP1 PUSH4 0xAD5C4648 EQ PUSH2 0x270 JUMPI PUSH2 0x109 JUMP JUMPDEST DUP1 PUSH4 0x3B5EF2AD GT PUSH2 0xDC JUMPI DUP1 PUSH4 0x3B5EF2AD EQ PUSH2 0x19E JUMPI DUP1 PUSH4 0x56C5F349 EQ PUSH2 0x1B3 JUMPI DUP1 PUSH4 0x715018A6 EQ PUSH2 0x1D3 JUMPI DUP1 PUSH4 0x861FAF5F EQ PUSH2 0x1EA JUMPI DUP1 PUSH4 0x8DA5CB5B EQ PUSH2 0x1F2 JUMPI PUSH2 0x109 JUMP JUMPDEST DUP1 PUSH4 0x12E5D0B9 EQ PUSH2 0x10E JUMPI DUP1 PUSH4 0x18856A2F EQ PUSH2 0x13A JUMPI DUP1 PUSH4 0x1DF4CCFC EQ PUSH2 0x167 JUMPI DUP1 PUSH4 0x200D2ED2 EQ PUSH2 0x189 JUMPI JUMPDEST PUSH1 0x0 DUP1 REVERT JUMPDEST CALLVALUE DUP1 ISZERO PUSH2 0x11A JUMPI PUSH1 0x0 DUP1 REVERT JUMPDEST POP PUSH2 0x123 PUSH2 0x32C JUMP JUMPDEST PUSH1 0x40 MLOAD PUSH2 0x131 SWAP3 SWAP2 SWAP1 PUSH2 0x1277 JUMP JUMPDEST PUSH1 0x40 MLOAD DUP1 SWAP2 SUB SWAP1 RETURN JUMPDEST CALLVALUE DUP1 ISZERO PUSH2 0x146 JUMPI PUSH1 0x0 DUP1 REVERT JUMPDEST POP PUSH2 0x14F PUSH2 0x335 JUMP JUMPDEST PUSH1 0x40 MLOAD PUSH2 0x131 SWAP13 SWAP12 SWAP11 SWAP10 SWAP9 SWAP8 SWAP7 SWAP6 SWAP5 SWAP4 SWAP3 SWAP2 SWAP1 PUSH2 0xF88 JUMP JUMPDEST CALLVALUE DUP1 ISZERO PUSH2 0x173 JUMPI PUSH1 0x0 DUP1 REVERT JUMPDEST POP PUSH2 0x17C PUSH2 0x376 JUMP JUMPDEST PUSH1 0x40 MLOAD PUSH2 0x131 SWAP2 SWAP1 PUSH2 0x126E JUMP JUMPDEST CALLVALUE DUP1 ISZERO PUSH2 0x195 JUMPI PUSH1 0x0 DUP1 REVERT JUMPDEST POP PUSH2 0x17C PUSH2 0x37C JUMP JUMPDEST CALLVALUE DUP1 ISZERO PUSH2 0x1AA JUMPI PUSH1 0x0 DUP1 REVERT JUMPDEST POP PUSH2 0x17C PUSH2 0x3AA JUMP JUMPDEST CALLVALUE DUP1 ISZERO PUSH2 0x1BF JUMPI PUSH1 0x0 DUP1 REVERT JUMPDEST POP PUSH2 0x17C PUSH2 0x1CE CALLDATASIZE PUSH1 0x4 PUSH2 0xE07 JUMP JUMPDEST PUSH2 0x3B0 JUMP JUMPDEST CALLVALUE DUP1 ISZERO PUSH2 0x1DF JUMPI PUSH1 0x0 DUP1 REVERT JUMPDEST POP PUSH2 0x1E8 PUSH2 0x3C2 JUMP JUMPDEST STOP JUMPDEST PUSH2 0x1E8 PUSH2 0x416 JUMP JUMPDEST CALLVALUE DUP1 ISZERO PUSH2 0x1FE JUMPI PUSH1 0x0 DUP1 REVERT JUMPDEST POP PUSH2 0x207 PUSH2 0x445 JUMP JUMPDEST PUSH1 0x40 MLOAD PUSH2 0x131 SWAP2 SWAP1 PUSH2 0xF74 JUMP JUMPDEST CALLVALUE DUP1 ISZERO PUSH2 0x220 JUMPI PUSH1 0x0 DUP1 REVERT JUMPDEST POP PUSH2 0x1E8 PUSH2 0x22F CALLDATASIZE PUSH1 0x4 PUSH2 0xE2A JUMP JUMPDEST PUSH2 0x454 JUMP JUMPDEST CALLVALUE DUP1 ISZERO PUSH2 0x240 JUMPI PUSH1 0x0 DUP1 REVERT JUMPDEST POP PUSH2 0x1E8 PUSH2 0x629 JUMP JUMPDEST CALLVALUE DUP1 ISZERO PUSH2 0x255 JUMPI PUSH1 0x0 DUP1 REVERT JUMPDEST POP PUSH2 0x25E PUSH2 0x7D3 JUMP JUMPDEST PUSH1 0x40 MLOAD PUSH2 0x131 SWAP7 SWAP6 SWAP5 SWAP4 SWAP3 SWAP2 SWAP1 PUSH2 0x12B1 JUMP JUMPDEST CALLVALUE DUP1 ISZERO PUSH2 0x27C JUMPI PUSH1 0x0 DUP1 REVERT JUMPDEST POP PUSH2 0x207 PUSH2 0x7E8 JUMP JUMPDEST PUSH2 0x1E8 PUSH2 0x293 CALLDATASIZE PUSH1 0x4 PUSH2 0xF0B JUMP JUMPDEST PUSH2 0x7F7 JUMP JUMPDEST CALLVALUE DUP1 ISZERO PUSH2 0x2A4 JUMPI PUSH1 0x0 DUP1 REVERT JUMPDEST POP PUSH2 0x2AD PUSH2 0xB38 JUMP JUMPDEST PUSH1 0x40 MLOAD PUSH2 0x131 SWAP2 SWAP1 PUSH2 0x102A JUMP JUMPDEST CALLVALUE DUP1 ISZERO PUSH2 0x2C6 JUMPI PUSH1 0x0 DUP1 REVERT JUMPDEST POP PUSH2 0x2DA PUSH2 0x2D5 CALLDATASIZE PUSH1 0x4 PUSH2 0xE07 JUMP JUMPDEST PUSH2 0xB52 JUMP JUMPDEST PUSH1 0x40 MLOAD PUSH2 0x131 SWAP7 SWAP6 SWAP5 SWAP4 SWAP3 SWAP2 SWAP1 PUSH2 0x1285 JUMP JUMPDEST CALLVALUE DUP1 ISZERO PUSH2 0x2F8 JUMPI PUSH1 0x0 DUP1 REVERT JUMPDEST POP PUSH2 0x1E8 PUSH2 0x307 CALLDATASIZE PUSH1 0x4 PUSH2 0xE07 JUMP JUMPDEST PUSH2 0xB8D JUMP JUMPDEST CALLVALUE DUP1 ISZERO PUSH2 0x318 JUMPI PUSH1 0x0 DUP1 REVERT JUMPDEST POP PUSH2 0x17C PUSH2 0x327 CALLDATASIZE PUSH1 0x4 PUSH2 0xE07 JUMP JUMPDEST PUSH2 0xBFB JUMP JUMPDEST PUSH1 0xB SLOAD PUSH1 0xC SLOAD DUP3 JUMP JUMPDEST PUSH1 0xD SLOAD PUSH1 0xE SLOAD PUSH1 0xF SLOAD PUSH1 0x10 SLOAD PUSH1 0x11 SLOAD PUSH1 0x12 SLOAD PUSH1 0x13 SLOAD PUSH1 0x14 SLOAD PUSH1 0x15 SLOAD PUSH1 0x16 SLOAD PUSH1 0x17 SLOAD PUSH1 0x18 SLOAD PUSH1 0x1 PUSH1 0x1 PUSH1 0xA0 SHL SUB SWAP12 DUP13 AND SWAP12 SWAP11 DUP12 AND SWAP11 SWAP1 SWAP10 AND SWAP9 PUSH1 0xFF SWAP1 SWAP2 AND SWAP1 DUP13 JUMP JUMPDEST PUSH1 0x1D SLOAD DUP2 JUMP JUMPDEST PUSH1 0x11 SLOAD PUSH1 0x0 SWAP1 TIMESTAMP LT ISZERO PUSH2 0x391 JUMPI POP PUSH1 0x0 PUSH2 0x3A7 JUMP JUMPDEST PUSH1 0x12 SLOAD TIMESTAMP GT ISZERO PUSH2 0x3A3 JUMPI POP PUSH1 0x2 PUSH2 0x3A7 JUMP JUMPDEST POP PUSH1 0x1 JUMPDEST SWAP1 JUMP JUMPDEST PUSH1 0x1A SLOAD DUP2 JUMP JUMPDEST PUSH1 0x3 PUSH1 0x20 MSTORE PUSH1 0x0 SWAP1 DUP2 MSTORE PUSH1 0x40 SWAP1 KECCAK256 SLOAD DUP2 JUMP JUMPDEST PUSH2 0x3CA PUSH2 0xC26 JUMP JUMPDEST PUSH1 0x1 PUSH1 0x1 PUSH1 0xA0 SHL SUB AND PUSH2 0x3DB PUSH2 0x445 JUMP JUMPDEST PUSH1 0x1 PUSH1 0x1 PUSH1 0xA0 SHL SUB AND EQ PUSH2 0x40A JUMPI PUSH1 0x40 MLOAD PUSH3 0x461BCD PUSH1 0xE5 SHL DUP2 MSTORE PUSH1 0x4 ADD PUSH2 0x401 SWAP1 PUSH2 0x114E JUMP JUMPDEST PUSH1 0x40 MLOAD DUP1 SWAP2 SUB SWAP1 REVERT JUMPDEST PUSH2 0x414 PUSH1 0x0 PUSH2 0xC2A JUMP JUMPDEST JUMP JUMPDEST PUSH1 0x40 MLOAD CALLER SWAP1 SELFBALANCE DUP1 ISZERO PUSH2 0x8FC MUL SWAP2 PUSH1 0x0 DUP2 DUP2 DUP2 DUP6 DUP9 DUP9 CALL SWAP4 POP POP POP POP ISZERO DUP1 ISZERO PUSH2 0x442 JUMPI RETURNDATASIZE PUSH1 0x0 DUP1 RETURNDATACOPY RETURNDATASIZE PUSH1 0x0 REVERT JUMPDEST POP JUMP JUMPDEST PUSH1 0x1 SLOAD PUSH1 0x1 PUSH1 0x1 PUSH1 0xA0 SHL SUB AND SWAP1 JUMP JUMPDEST PUSH1 0xD DUP1 SLOAD PUSH1 0x1 PUSH1 0x1 PUSH1 0xA0 SHL SUB DUP1 DUP8 AND PUSH1 0x1 PUSH1 0x1 PUSH1 0xA0 SHL SUB NOT SWAP3 DUP4 AND OR SWAP1 SWAP3 SSTORE PUSH1 0xE DUP1 SLOAD DUP7 DUP5 AND SWAP1 DUP4 AND OR SWAP1 DUP2 SWAP1 SSTORE PUSH1 0xF DUP1 SLOAD DUP7 DUP6 AND SWAP4 AND SWAP3 SWAP1 SWAP3 OR SWAP1 SWAP2 SSTORE PUSH1 0x40 DUP1 MLOAD PUSH4 0x313CE567 PUSH1 0xE0 SHL DUP2 MSTORE SWAP1 MLOAD SWAP2 SWAP1 SWAP3 AND SWAP2 PUSH4 0x313CE567 SWAP2 PUSH1 0x4 DUP1 DUP4 ADD SWAP3 PUSH1 0x20 SWAP3 SWAP2 SWAP1 DUP3 SWAP1 SUB ADD DUP2 DUP7 DUP1 EXTCODESIZE ISZERO DUP1 ISZERO PUSH2 0x4CC JUMPI PUSH1 0x0 DUP1 REVERT JUMPDEST POP GAS STATICCALL ISZERO DUP1 ISZERO PUSH2 0x4E0 JUMPI RETURNDATASIZE PUSH1 0x0 DUP1 RETURNDATACOPY RETURNDATASIZE PUSH1 0x0 REVERT JUMPDEST POP POP POP POP PUSH1 0x40 MLOAD RETURNDATASIZE PUSH1 0x1F NOT PUSH1 0x1F DUP3 ADD AND DUP3 ADD DUP1 PUSH1 0x40 MSTORE POP DUP2 ADD SWAP1 PUSH2 0x504 SWAP2 SWAP1 PUSH2 0xF23 JUMP JUMPDEST PUSH2 0x50F SWAP1 PUSH1 0xA PUSH2 0x1357 JUMP JUMPDEST DUP2 MLOAD PUSH2 0x51B SWAP2 SWAP1 PUSH2 0x1425 JUMP JUMPDEST PUSH1 0x10 SSTORE PUSH1 0x20 DUP1 DUP3 ADD MLOAD PUSH1 0x11 SSTORE PUSH1 0x40 DUP1 DUP4 ADD MLOAD PUSH1 0x12 SSTORE PUSH1 0x60 DUP4 ADD MLOAD PUSH1 0x13 SSTORE PUSH1 0xF SLOAD DUP2 MLOAD PUSH4 0x313CE567 PUSH1 0xE0 SHL DUP2 MSTORE SWAP2 MLOAD PUSH1 0x1 PUSH1 0x1 PUSH1 0xA0 SHL SUB SWAP1 SWAP2 AND SWAP3 PUSH4 0x313CE567 SWAP3 PUSH1 0x4 DUP1 DUP3 ADD SWAP4 SWAP2 DUP3 SWAP1 SUB ADD DUP2 DUP7 DUP1 EXTCODESIZE ISZERO DUP1 ISZERO PUSH2 0x576 JUMPI PUSH1 0x0 DUP1 REVERT JUMPDEST POP GAS STATICCALL ISZERO DUP1 ISZERO PUSH2 0x58A JUMPI RETURNDATASIZE PUSH1 0x0 DUP1 RETURNDATACOPY RETURNDATASIZE PUSH1 0x0 REVERT JUMPDEST POP POP POP POP PUSH1 0x40 MLOAD RETURNDATASIZE PUSH1 0x1F NOT PUSH1 0x1F DUP3 ADD AND DUP3 ADD DUP1 PUSH1 0x40 MSTORE POP DUP2 ADD SWAP1 PUSH2 0x5AE SWAP2 SWAP1 PUSH2 0xF23 JUMP JUMPDEST PUSH2 0x5B9 SWAP1 PUSH1 0xA PUSH2 0x1357 JUMP JUMPDEST PUSH1 0x80 DUP3 ADD MLOAD PUSH2 0x5C8 SWAP2 SWAP1 PUSH2 0x1425 JUMP JUMPDEST PUSH1 0x14 SSTORE PUSH1 0xA0 DUP2 ADD MLOAD PUSH1 0x15 SSTORE PUSH1 0xC0 DUP2 ADD MLOAD PUSH1 0x16 SSTORE PUSH1 0xE0 DUP2 ADD MLOAD PUSH1 0xB DUP2 SWAP1 SSTORE PUSH2 0x100 DUP3 ADD MLOAD PUSH1 0xC SSTORE PUSH1 0xF SLOAD PUSH1 0x19 SLOAD PUSH1 0x17 DUP1 SLOAD PUSH1 0x1 PUSH1 0x1 PUSH1 0xA0 SHL SUB SWAP4 DUP5 AND SWAP4 SWAP1 SWAP3 AND SWAP3 SWAP1 SWAP3 EQ PUSH1 0xFF NOT SWAP1 SWAP2 AND OR SWAP1 SSTORE PUSH1 0x10 SLOAD PUSH2 0x620 SWAP2 PUSH2 0xC7C JUMP JUMPDEST PUSH1 0x18 SSTORE POP POP POP POP JUMP JUMPDEST PUSH1 0x2 PUSH1 0x0 SLOAD EQ ISZERO PUSH2 0x64C JUMPI PUSH1 0x40 MLOAD PUSH3 0x461BCD PUSH1 0xE5 SHL DUP2 MSTORE PUSH1 0x4 ADD PUSH2 0x401 SWAP1 PUSH2 0x120E JUMP JUMPDEST PUSH1 0x2 PUSH1 0x0 SSTORE PUSH2 0x659 PUSH2 0x37C JUMP JUMPDEST PUSH1 0x1 EQ PUSH2 0x678 JUMPI PUSH1 0x40 MLOAD PUSH3 0x461BCD PUSH1 0xE5 SHL DUP2 MSTORE PUSH1 0x4 ADD PUSH2 0x401 SWAP1 PUSH2 0x1128 JUMP JUMPDEST PUSH1 0x6 SLOAD PUSH1 0x5 SLOAD PUSH1 0x0 SWAP2 PUSH2 0x68A SWAP2 PUSH2 0x1444 JUMP JUMPDEST GT PUSH2 0x6A7 JUMPI PUSH1 0x40 MLOAD PUSH3 0x461BCD PUSH1 0xE5 SHL DUP2 MSTORE PUSH1 0x4 ADD PUSH2 0x401 SWAP1 PUSH2 0x1035 JUMP JUMPDEST CALLER PUSH1 0x0 SWAP1 DUP2 MSTORE PUSH1 0x2 PUSH1 0x20 MSTORE PUSH1 0x40 SWAP1 KECCAK256 PUSH1 0x1 DUP2 ADD SLOAD PUSH2 0x6D7 JUMPI PUSH1 0x40 MLOAD PUSH3 0x461BCD PUSH1 0xE5 SHL DUP2 MSTORE PUSH1 0x4 ADD PUSH2 0x401 SWAP1 PUSH2 0x1183 JUMP JUMPDEST PUSH1 0x0 PUSH2 0x70D PUSH2 0x3E8 PUSH2 0x707 DUP5 PUSH1 0x1 ADD SLOAD PUSH2 0x701 PUSH1 0xD PUSH1 0x9 ADD SLOAD PUSH2 0x3E8 PUSH2 0xC88 SWAP1 SWAP2 SWAP1 PUSH4 0xFFFFFFFF AND JUMP JUMPDEST SWAP1 PUSH2 0xC7C JUMP JUMPDEST SWAP1 PUSH2 0xC94 JUMP JUMPDEST SWAP1 POP DUP1 PUSH1 0x4 PUSH1 0x2 ADD PUSH1 0x0 DUP3 DUP3 SLOAD PUSH2 0x724 SWAP2 SWAP1 PUSH2 0x12D9 JUMP JUMPDEST SWAP1 SWAP2 SSTORE POP POP PUSH1 0x1 DUP3 ADD SLOAD PUSH1 0x0 SWAP1 PUSH2 0x73C SWAP1 DUP4 SWAP1 PUSH2 0x1444 JUMP JUMPDEST PUSH1 0x1 DUP5 ADD DUP4 SWAP1 SSTORE PUSH1 0xE SLOAD PUSH1 0x40 MLOAD PUSH4 0xA9059CBB PUSH1 0xE0 SHL DUP2 MSTORE SWAP2 SWAP3 POP PUSH1 0x1 PUSH1 0x1 PUSH1 0xA0 SHL SUB AND SWAP1 PUSH4 0xA9059CBB SWAP1 PUSH2 0x776 SWAP1 CALLER SWAP1 DUP7 SWAP1 PUSH1 0x4 ADD PUSH2 0x1011 JUMP JUMPDEST PUSH1 0x20 PUSH1 0x40 MLOAD DUP1 DUP4 SUB DUP2 PUSH1 0x0 DUP8 DUP1 EXTCODESIZE ISZERO DUP1 ISZERO PUSH2 0x790 JUMPI PUSH1 0x0 DUP1 REVERT JUMPDEST POP GAS CALL ISZERO DUP1 ISZERO PUSH2 0x7A4 JUMPI RETURNDATASIZE PUSH1 0x0 DUP1 RETURNDATACOPY RETURNDATASIZE PUSH1 0x0 REVERT JUMPDEST POP POP POP POP PUSH1 0x40 MLOAD RETURNDATASIZE PUSH1 0x1F NOT PUSH1 0x1F DUP3 ADD AND DUP3 ADD DUP1 PUSH1 0x40 MSTORE POP DUP2 ADD SWAP1 PUSH2 0x7C8 SWAP2 SWAP1 PUSH2 0xEEB JUMP JUMPDEST POP POP PUSH1 0x1 PUSH1 0x0 SSTORE POP POP JUMP JUMPDEST PUSH1 0x4 SLOAD PUSH1 0x5 SLOAD PUSH1 0x6 SLOAD PUSH1 0x7 SLOAD PUSH1 0x8 SLOAD PUSH1 0x9 SLOAD DUP7 JUMP JUMPDEST PUSH1 0x19 SLOAD PUSH1 0x1 PUSH1 0x1 PUSH1 0xA0 SHL SUB AND DUP2 JUMP JUMPDEST PUSH1 0x2 PUSH1 0x0 SLOAD EQ ISZERO PUSH2 0x81A JUMPI PUSH1 0x40 MLOAD PUSH3 0x461BCD PUSH1 0xE5 SHL DUP2 MSTORE PUSH1 0x4 ADD PUSH2 0x401 SWAP1 PUSH2 0x120E JUMP JUMPDEST PUSH1 0x2 PUSH1 0x0 SSTORE PUSH2 0x827 PUSH2 0x37C JUMP JUMPDEST PUSH1 0x1 EQ PUSH2 0x846 JUMPI PUSH1 0x40 MLOAD PUSH3 0x461BCD PUSH1 0xE5 SHL DUP2 MSTORE PUSH1 0x4 ADD PUSH2 0x401 SWAP1 PUSH2 0x10DA JUMP JUMPDEST CALLER PUSH1 0x0 SWAP1 DUP2 MSTORE PUSH1 0x2 PUSH1 0x20 MSTORE PUSH1 0x40 DUP2 KECCAK256 PUSH1 0x13 SLOAD SWAP1 SWAP2 DUP4 SWAP2 DUP3 SWAP2 SWAP1 PUSH2 0x3E8 SWAP1 DUP4 LT ISZERO PUSH2 0x882 JUMPI PUSH1 0x40 MLOAD PUSH3 0x461BCD PUSH1 0xE5 SHL DUP2 MSTORE PUSH1 0x4 ADD PUSH2 0x401 SWAP1 PUSH2 0x10FE JUMP JUMPDEST PUSH1 0x14 SLOAD DUP4 GT ISZERO PUSH2 0x8A4 JUMPI PUSH1 0x40 MLOAD PUSH3 0x461BCD PUSH1 0xE5 SHL DUP2 MSTORE PUSH1 0x4 ADD PUSH2 0x401 SWAP1 PUSH2 0x10B2 JUMP JUMPDEST PUSH2 0x8AC PUSH2 0xB38 JUMP JUMPDEST PUSH2 0x8DC JUMPI PUSH2 0x8CD DUP2 PUSH2 0x707 DUP6 PUSH2 0x701 PUSH1 0x1A SLOAD DUP7 PUSH2 0xC88 SWAP1 SWAP2 SWAP1 PUSH4 0xFFFFFFFF AND JUMP JUMPDEST SWAP3 POP PUSH2 0x8D9 DUP4 DUP6 PUSH2 0x1444 JUMP JUMPDEST SWAP2 POP JUMPDEST DUP5 SLOAD PUSH1 0x14 SLOAD PUSH1 0x0 SWAP2 PUSH2 0x8ED SWAP2 PUSH2 0x1444 JUMP JUMPDEST PUSH1 0x4 SLOAD PUSH1 0x18 SLOAD SWAP2 SWAP3 POP PUSH1 0x0 SWAP2 PUSH2 0x903 SWAP2 SWAP1 PUSH2 0x1444 JUMP JUMPDEST SWAP1 POP PUSH1 0x0 DUP2 DUP4 GT PUSH2 0x914 JUMPI DUP3 PUSH2 0x916 JUMP JUMPDEST DUP2 JUMPDEST SWAP1 POP DUP1 DUP7 LT PUSH2 0x937 JUMPI PUSH1 0x40 MLOAD PUSH3 0x461BCD PUSH1 0xE5 SHL DUP2 MSTORE PUSH1 0x4 ADD PUSH2 0x401 SWAP1 PUSH2 0x1245 JUMP JUMPDEST PUSH1 0x0 PUSH2 0x9DE PUSH1 0xD PUSH1 0x2 ADD PUSH1 0x0 SWAP1 SLOAD SWAP1 PUSH2 0x100 EXP SWAP1 DIV PUSH1 0x1 PUSH1 0x1 PUSH1 0xA0 SHL SUB AND PUSH1 0x1 PUSH1 0x1 PUSH1 0xA0 SHL SUB AND PUSH4 0x313CE567 PUSH1 0x40 MLOAD DUP2 PUSH4 0xFFFFFFFF AND PUSH1 0xE0 SHL DUP2 MSTORE PUSH1 0x4 ADD PUSH1 0x20 PUSH1 0x40 MLOAD DUP1 DUP4 SUB DUP2 DUP7 DUP1 EXTCODESIZE ISZERO DUP1 ISZERO PUSH2 0x98D JUMPI PUSH1 0x0 DUP1 REVERT JUMPDEST POP GAS STATICCALL ISZERO DUP1 ISZERO PUSH2 0x9A1 JUMPI RETURNDATASIZE PUSH1 0x0 DUP1 RETURNDATACOPY RETURNDATASIZE PUSH1 0x0 REVERT JUMPDEST POP POP POP POP PUSH1 0x40 MLOAD RETURNDATASIZE PUSH1 0x1F NOT PUSH1 0x1F DUP3 ADD AND DUP3 ADD DUP1 PUSH1 0x40 MSTORE POP DUP2 ADD SWAP1 PUSH2 0x9C5 SWAP2 SWAP1 PUSH2 0xF23 JUMP JUMPDEST PUSH2 0x9D0 SWAP1 PUSH1 0xA PUSH2 0x1357 JUMP JUMPDEST PUSH1 0x10 SLOAD PUSH2 0x707 SWAP1 DUP11 SWAP1 PUSH2 0xC7C JUMP JUMPDEST SWAP1 POP DUP8 DUP10 PUSH1 0x0 ADD PUSH1 0x0 DUP3 DUP3 SLOAD PUSH2 0x9F4 SWAP2 SWAP1 PUSH2 0x12D9 JUMP JUMPDEST SWAP3 POP POP DUP2 SWAP1 SSTORE POP DUP1 DUP10 PUSH1 0x1 ADD PUSH1 0x0 DUP3 DUP3 SLOAD PUSH2 0xA0F SWAP2 SWAP1 PUSH2 0x12D9 JUMP JUMPDEST SWAP1 SWAP2 SSTORE POP POP PUSH1 0x4 DUP1 SLOAD DUP9 SWAP2 SWAP1 PUSH1 0x0 SWAP1 PUSH2 0xA29 SWAP1 DUP5 SWAP1 PUSH2 0x12D9 JUMP JUMPDEST SWAP1 SWAP2 SSTORE POP POP PUSH1 0x5 DUP1 SLOAD DUP3 SWAP2 SWAP1 PUSH1 0x0 SWAP1 PUSH2 0xA43 SWAP1 DUP5 SWAP1 PUSH2 0x12D9 JUMP JUMPDEST SWAP1 SWAP2 SSTORE POP POP PUSH1 0x8 DUP1 SLOAD SWAP1 PUSH1 0x0 PUSH2 0xA58 DUP4 PUSH2 0x145B JUMP JUMPDEST SWAP1 SWAP2 SSTORE POP POP CALLER PUSH1 0x0 SWAP1 DUP2 MSTORE PUSH1 0x3 PUSH1 0x20 MSTORE PUSH1 0x40 DUP2 KECCAK256 DUP1 SLOAD DUP9 SWAP3 SWAP1 PUSH2 0xA7C SWAP1 DUP5 SWAP1 PUSH2 0x12D9 JUMP JUMPDEST SWAP3 POP POP DUP2 SWAP1 SSTORE POP DUP6 PUSH1 0x1D PUSH1 0x0 DUP3 DUP3 SLOAD PUSH2 0xA95 SWAP2 SWAP1 PUSH2 0x12D9 JUMP JUMPDEST SWAP1 SWAP2 SSTORE POP POP PUSH1 0x17 SLOAD PUSH1 0xFF AND DUP1 ISZERO PUSH2 0xAB4 JUMPI POP CALLVALUE PUSH2 0xAB2 DUP8 DUP10 PUSH2 0x12D9 JUMP JUMPDEST LT JUMPDEST ISZERO PUSH2 0xAFC JUMPI CALLER PUSH2 0x8FC DUP8 PUSH2 0xAC8 DUP11 CALLVALUE PUSH2 0x1444 JUMP JUMPDEST PUSH2 0xAD2 SWAP2 SWAP1 PUSH2 0x1444 JUMP JUMPDEST PUSH1 0x40 MLOAD DUP2 ISZERO SWAP1 SWAP3 MUL SWAP2 PUSH1 0x0 DUP2 DUP2 DUP2 DUP6 DUP9 DUP9 CALL SWAP4 POP POP POP POP ISZERO DUP1 ISZERO PUSH2 0xAFA JUMPI RETURNDATASIZE PUSH1 0x0 DUP1 RETURNDATACOPY RETURNDATASIZE PUSH1 0x0 REVERT JUMPDEST POP JUMPDEST PUSH1 0x17 SLOAD PUSH1 0xFF AND PUSH2 0xB27 JUMPI PUSH1 0xF SLOAD PUSH2 0xB27 SWAP1 PUSH1 0x1 PUSH1 0x1 PUSH1 0xA0 SHL SUB AND CALLER ADDRESS PUSH2 0xB22 DUP11 DUP13 PUSH2 0x12D9 JUMP JUMPDEST PUSH2 0xCA0 JUMP JUMPDEST POP POP PUSH1 0x1 PUSH1 0x0 SSTORE POP POP POP POP POP POP POP POP JUMP JUMPDEST PUSH1 0x0 PUSH2 0xB4D PUSH2 0xB45 PUSH2 0xC26 JUMP JUMPDEST PUSH1 0x1B SWAP1 PUSH2 0xD90 JUMP JUMPDEST SWAP1 POP SWAP1 JUMP JUMPDEST PUSH1 0x2 PUSH1 0x20 DUP2 SWAP1 MSTORE PUSH1 0x0 SWAP2 DUP3 MSTORE PUSH1 0x40 SWAP1 SWAP2 KECCAK256 DUP1 SLOAD PUSH1 0x1 DUP3 ADD SLOAD SWAP3 DUP3 ADD SLOAD PUSH1 0x3 DUP4 ADD SLOAD PUSH1 0x4 SWAP1 SWAP4 ADD SLOAD SWAP2 SWAP4 SWAP3 SWAP1 SWAP2 PUSH1 0xFF DUP1 DUP3 AND SWAP2 PUSH2 0x100 SWAP1 DIV AND DUP7 JUMP JUMPDEST PUSH2 0xB95 PUSH2 0xC26 JUMP JUMPDEST PUSH1 0x1 PUSH1 0x1 PUSH1 0xA0 SHL SUB AND PUSH2 0xBA6 PUSH2 0x445 JUMP JUMPDEST PUSH1 0x1 PUSH1 0x1 PUSH1 0xA0 SHL SUB AND EQ PUSH2 0xBCC JUMPI PUSH1 0x40 MLOAD PUSH3 0x461BCD PUSH1 0xE5 SHL DUP2 MSTORE PUSH1 0x4 ADD PUSH2 0x401 SWAP1 PUSH2 0x114E JUMP JUMPDEST PUSH1 0x1 PUSH1 0x1 PUSH1 0xA0 SHL SUB DUP2 AND PUSH2 0xBF2 JUMPI PUSH1 0x40 MLOAD PUSH3 0x461BCD PUSH1 0xE5 SHL DUP2 MSTORE PUSH1 0x4 ADD PUSH2 0x401 SWAP1 PUSH2 0x106C JUMP JUMPDEST PUSH2 0x442 DUP2 PUSH2 0xC2A JUMP JUMPDEST PUSH1 0x1 PUSH1 0x1 PUSH1 0xA0 SHL SUB AND BALANCE SWAP1 JUMP JUMPDEST PUSH1 0x0 PUSH2 0xC1D DUP4 PUSH1 0x1 PUSH1 0x1 PUSH1 0xA0 SHL SUB DUP5 AND PUSH2 0xDA5 JUMP JUMPDEST SWAP1 POP JUMPDEST SWAP3 SWAP2 POP POP JUMP JUMPDEST CALLER SWAP1 JUMP JUMPDEST PUSH1 0x1 DUP1 SLOAD PUSH1 0x1 PUSH1 0x1 PUSH1 0xA0 SHL SUB DUP4 DUP2 AND PUSH1 0x1 PUSH1 0x1 PUSH1 0xA0 SHL SUB NOT DUP4 AND DUP2 OR SWAP1 SWAP4 SSTORE PUSH1 0x40 MLOAD SWAP2 AND SWAP2 SWAP1 DUP3 SWAP1 PUSH32 0x8BE0079C531659141344CD1FD0A4F28419497F9722A3DAAFE3B4186F6B6457E0 SWAP1 PUSH1 0x0 SWAP1 LOG3 POP POP JUMP JUMPDEST PUSH1 0x0 PUSH2 0xC1D DUP3 DUP5 PUSH2 0x1425 JUMP JUMPDEST PUSH1 0x0 PUSH2 0xC1D DUP3 DUP5 PUSH2 0x1444 JUMP JUMPDEST PUSH1 0x0 PUSH2 0xC1D DUP3 DUP5 PUSH2 0x12F1 JUMP JUMPDEST PUSH1 0x0 DUP1 DUP6 PUSH1 0x1 PUSH1 0x1 PUSH1 0xA0 SHL SUB AND PUSH4 0x23B872DD DUP7 DUP7 DUP7 PUSH1 0x40 MLOAD PUSH1 0x24 ADD PUSH2 0xCC7 SWAP4 SWAP3 SWAP2 SWAP1 PUSH2 0xFED JUMP JUMPDEST PUSH1 0x40 MLOAD PUSH1 0x20 DUP2 DUP4 SUB SUB DUP2 MSTORE SWAP1 PUSH1 0x40 MSTORE SWAP1 PUSH1 0xE0 SHL PUSH1 0x20 DUP3 ADD DUP1 MLOAD PUSH1 0x1 PUSH1 0x1 PUSH1 0xE0 SHL SUB DUP4 DUP2 DUP4 AND OR DUP4 MSTORE POP POP POP POP PUSH1 0x40 MLOAD PUSH2 0xD00 SWAP2 SWAP1 PUSH2 0xF3B JUMP JUMPDEST PUSH1 0x0 PUSH1 0x40 MLOAD DUP1 DUP4 SUB DUP2 PUSH1 0x0 DUP7 GAS CALL SWAP2 POP POP RETURNDATASIZE DUP1 PUSH1 0x0 DUP2 EQ PUSH2 0xD3D JUMPI PUSH1 0x40 MLOAD SWAP2 POP PUSH1 0x1F NOT PUSH1 0x3F RETURNDATASIZE ADD AND DUP3 ADD PUSH1 0x40 MSTORE RETURNDATASIZE DUP3 MSTORE RETURNDATASIZE PUSH1 0x0 PUSH1 0x20 DUP5 ADD RETURNDATACOPY PUSH2 0xD42 JUMP JUMPDEST PUSH1 0x60 SWAP2 POP JUMPDEST POP SWAP2 POP SWAP2 POP DUP2 DUP1 ISZERO PUSH2 0xD6C JUMPI POP DUP1 MLOAD ISZERO DUP1 PUSH2 0xD6C JUMPI POP DUP1 DUP1 PUSH1 0x20 ADD SWAP1 MLOAD DUP2 ADD SWAP1 PUSH2 0xD6C SWAP2 SWAP1 PUSH2 0xEEB JUMP JUMPDEST PUSH2 0xD88 JUMPI PUSH1 0x40 MLOAD PUSH3 0x461BCD PUSH1 0xE5 SHL DUP2 MSTORE PUSH1 0x4 ADD PUSH2 0x401 SWAP1 PUSH2 0x11CA JUMP JUMPDEST POP POP POP POP POP POP JUMP JUMPDEST PUSH1 0x0 PUSH2 0xC1D DUP4 PUSH1 0x1 PUSH1 0x1 PUSH1 0xA0 SHL SUB DUP5 AND PUSH2 0xDEF JUMP JUMPDEST PUSH1 0x0 PUSH2 0xDB1 DUP4 DUP4 PUSH2 0xDEF JUMP JUMPDEST PUSH2 0xDE7 JUMPI POP DUP2 SLOAD PUSH1 0x1 DUP2 DUP2 ADD DUP5 SSTORE PUSH1 0x0 DUP5 DUP2 MSTORE PUSH1 0x20 DUP1 DUP3 KECCAK256 SWAP1 SWAP4 ADD DUP5 SWAP1 SSTORE DUP5 SLOAD DUP5 DUP3 MSTORE DUP3 DUP7 ADD SWAP1 SWAP4 MSTORE PUSH1 0x40 SWAP1 KECCAK256 SWAP2 SWAP1 SWAP2 SSTORE PUSH2 0xC20 JUMP JUMPDEST POP PUSH1 0x0 PUSH2 0xC20 JUMP JUMPDEST PUSH1 0x0 SWAP1 DUP2 MSTORE PUSH1 0x1 SWAP2 SWAP1 SWAP2 ADD PUSH1 0x20 MSTORE PUSH1 0x40 SWAP1 KECCAK256 SLOAD ISZERO ISZERO SWAP1 JUMP JUMPDEST PUSH1 0x0 PUSH1 0x20 DUP3 DUP5 SUB SLT ISZERO PUSH2 0xE18 JUMPI DUP1 DUP2 REVERT JUMPDEST DUP2 CALLDATALOAD PUSH2 0xE23 DUP2 PUSH2 0x14A2 JUMP JUMPDEST SWAP4 SWAP3 POP POP POP JUMP JUMPDEST PUSH1 0x0 DUP1 PUSH1 0x0 DUP1 PUSH2 0x180 DUP1 DUP7 DUP9 SUB SLT ISZERO PUSH2 0xE41 JUMPI DUP4 DUP5 REVERT JUMPDEST DUP6 CALLDATALOAD PUSH2 0xE4C DUP2 PUSH2 0x14A2 JUMP JUMPDEST SWAP5 POP PUSH1 0x20 DUP7 DUP2 ADD CALLDATALOAD PUSH2 0xE5D DUP2 PUSH2 0x14A2 JUMP JUMPDEST SWAP5 POP PUSH1 0x40 DUP8 ADD CALLDATALOAD PUSH2 0xE6D DUP2 PUSH2 0x14A2 JUMP JUMPDEST SWAP4 POP PUSH1 0x7F DUP8 ADD DUP9 SGT PUSH2 0xE7D JUMPI DUP3 DUP4 REVERT JUMPDEST PUSH1 0x40 MLOAD PUSH2 0x120 DUP2 ADD DUP2 DUP2 LT PUSH8 0xFFFFFFFFFFFFFFFF DUP3 GT OR ISZERO PUSH2 0xEA1 JUMPI PUSH2 0xEA1 PUSH2 0x148C JUMP JUMPDEST PUSH1 0x40 MSTORE DUP1 PUSH1 0x60 DUP10 ADD DUP5 DUP11 ADD DUP12 LT ISZERO PUSH2 0xEB7 JUMPI DUP6 DUP7 REVERT JUMPDEST DUP6 SWAP5 POP JUMPDEST PUSH1 0x9 DUP6 LT ISZERO PUSH2 0xEDA JUMPI DUP1 CALLDATALOAD DUP3 MSTORE PUSH1 0x1 SWAP5 SWAP1 SWAP5 ADD SWAP4 SWAP1 DUP4 ADD SWAP1 DUP4 ADD PUSH2 0xEBB JUMP JUMPDEST POP POP DUP1 SWAP4 POP POP POP POP SWAP3 SWAP6 SWAP2 SWAP5 POP SWAP3 POP JUMP JUMPDEST PUSH1 0x0 PUSH1 0x20 DUP3 DUP5 SUB SLT ISZERO PUSH2 0xEFC JUMPI DUP1 DUP2 REVERT JUMPDEST DUP2 MLOAD DUP1 ISZERO ISZERO DUP2 EQ PUSH2 0xE23 JUMPI DUP2 DUP3 REVERT JUMPDEST PUSH1 0x0 PUSH1 0x20 DUP3 DUP5 SUB SLT ISZERO PUSH2 0xF1C JUMPI DUP1 DUP2 REVERT JUMPDEST POP CALLDATALOAD SWAP2 SWAP1 POP JUMP JUMPDEST PUSH1 0x0 PUSH1 0x20 DUP3 DUP5 SUB SLT ISZERO PUSH2 0xF34 JUMPI DUP1 DUP2 REVERT JUMPDEST POP MLOAD SWAP2 SWAP1 POP JUMP JUMPDEST PUSH1 0x0 DUP3 MLOAD DUP2 JUMPDEST DUP2 DUP2 LT ISZERO PUSH2 0xF5B JUMPI PUSH1 0x20 DUP2 DUP7 ADD DUP2 ADD MLOAD DUP6 DUP4 ADD MSTORE ADD PUSH2 0xF41 JUMP JUMPDEST DUP2 DUP2 GT ISZERO PUSH2 0xF69 JUMPI DUP3 DUP3 DUP6 ADD MSTORE JUMPDEST POP SWAP2 SWAP1 SWAP2 ADD SWAP3 SWAP2 POP POP JUMP JUMPDEST PUSH1 0x1 PUSH1 0x1 PUSH1 0xA0 SHL SUB SWAP2 SWAP1 SWAP2 AND DUP2 MSTORE PUSH1 0x20 ADD SWAP1 JUMP JUMPDEST PUSH1 0x1 PUSH1 0x1 PUSH1 0xA0 SHL SUB SWAP13 DUP14 AND DUP2 MSTORE SWAP11 DUP13 AND PUSH1 0x20 DUP13 ADD MSTORE SWAP9 SWAP1 SWAP11 AND PUSH1 0x40 DUP11 ADD MSTORE PUSH1 0x60 DUP10 ADD SWAP7 SWAP1 SWAP7 MSTORE PUSH1 0x80 DUP9 ADD SWAP5 SWAP1 SWAP5 MSTORE PUSH1 0xA0 DUP8 ADD SWAP3 SWAP1 SWAP3 MSTORE PUSH1 0xC0 DUP7 ADD MSTORE PUSH1 0xE0 DUP6 ADD MSTORE PUSH2 0x100 DUP5 ADD MSTORE PUSH2 0x120 DUP4 ADD MSTORE SWAP2 ISZERO ISZERO PUSH2 0x140 DUP3 ADD MSTORE PUSH2 0x160 DUP2 ADD SWAP2 SWAP1 SWAP2 MSTORE PUSH2 0x180 ADD SWAP1 JUMP JUMPDEST PUSH1 0x1 PUSH1 0x1 PUSH1 0xA0 SHL SUB SWAP4 DUP5 AND DUP2 MSTORE SWAP2 SWAP1 SWAP3 AND PUSH1 0x20 DUP3 ADD MSTORE PUSH1 0x40 DUP2 ADD SWAP2 SWAP1 SWAP2 MSTORE PUSH1 0x60 ADD SWAP1 JUMP JUMPDEST PUSH1 0x1 PUSH1 0x1 PUSH1 0xA0 SHL SUB SWAP3 SWAP1 SWAP3 AND DUP3 MSTORE PUSH1 0x20 DUP3 ADD MSTORE PUSH1 0x40 ADD SWAP1 JUMP JUMPDEST SWAP1 ISZERO ISZERO DUP2 MSTORE PUSH1 0x20 ADD SWAP1 JUMP JUMPDEST PUSH1 0x20 DUP1 DUP3 MSTORE PUSH1 0x1B SWAP1 DUP3 ADD MSTORE PUSH32 0x416C6C20746F6B656E20686173206265656E2077697468647261770000000000 PUSH1 0x40 DUP3 ADD MSTORE PUSH1 0x60 ADD SWAP1 JUMP JUMPDEST PUSH1 0x20 DUP1 DUP3 MSTORE PUSH1 0x26 SWAP1 DUP3 ADD MSTORE PUSH32 0x4F776E61626C653A206E6577206F776E657220697320746865207A65726F2061 PUSH1 0x40 DUP3 ADD MSTORE PUSH6 0x646472657373 PUSH1 0xD0 SHL PUSH1 0x60 DUP3 ADD MSTORE PUSH1 0x80 ADD SWAP1 JUMP JUMPDEST PUSH1 0x20 DUP1 DUP3 MSTORE PUSH1 0xE SWAP1 DUP3 ADD MSTORE PUSH14 0x4F766572666C6F772076616C7565 PUSH1 0x90 SHL PUSH1 0x40 DUP3 ADD MSTORE PUSH1 0x60 ADD SWAP1 JUMP JUMPDEST PUSH1 0x20 DUP1 DUP3 MSTORE PUSH1 0xA SWAP1 DUP3 ADD MSTORE PUSH10 0x4E6F7420616374697665 PUSH1 0xB0 SHL PUSH1 0x40 DUP3 ADD MSTORE PUSH1 0x60 ADD SWAP1 JUMP JUMPDEST PUSH1 0x20 DUP1 DUP3 MSTORE PUSH1 0x10 SWAP1 DUP3 ADD MSTORE PUSH16 0x4E6F7420656E6F7567682076616C7565 PUSH1 0x80 SHL PUSH1 0x40 DUP3 ADD MSTORE PUSH1 0x60 ADD SWAP1 JUMP JUMPDEST PUSH1 0x20 DUP1 DUP3 MSTORE PUSH1 0xC SWAP1 DUP3 ADD MSTORE PUSH12 0x53616C652073756365737373 PUSH1 0xA0 SHL PUSH1 0x40 DUP3 ADD MSTORE PUSH1 0x60 ADD SWAP1 JUMP JUMPDEST PUSH1 0x20 DUP1 DUP3 MSTORE DUP2 DUP2 ADD MSTORE PUSH32 0x4F776E61626C653A2063616C6C6572206973206E6F7420746865206F776E6572 PUSH1 0x40 DUP3 ADD MSTORE PUSH1 0x60 ADD SWAP1 JUMP JUMPDEST PUSH1 0x20 DUP1 DUP3 MSTORE PUSH1 0x27 SWAP1 DUP3 ADD MSTORE PUSH32 0x596F7520776974686472617720616C6C206F722068617665206E6F7420626F75 PUSH1 0x40 DUP3 ADD MSTORE PUSH7 0x19DA1D081E595D PUSH1 0xCA SHL PUSH1 0x60 DUP3 ADD MSTORE PUSH1 0x80 ADD SWAP1 JUMP JUMPDEST PUSH1 0x20 DUP1 DUP3 MSTORE PUSH1 0x24 SWAP1 DUP3 ADD MSTORE PUSH32 0x5472616E7366657248656C7065723A205452414E534645525F46524F4D5F4641 PUSH1 0x40 DUP3 ADD MSTORE PUSH4 0x12531151 PUSH1 0xE2 SHL PUSH1 0x60 DUP3 ADD MSTORE PUSH1 0x80 ADD SWAP1 JUMP JUMPDEST PUSH1 0x20 DUP1 DUP3 MSTORE PUSH1 0x1F SWAP1 DUP3 ADD MSTORE PUSH32 0x5265656E7472616E637947756172643A207265656E7472616E742063616C6C00 PUSH1 0x40 DUP3 ADD MSTORE PUSH1 0x60 ADD SWAP1 JUMP JUMPDEST PUSH1 0x20 DUP1 DUP3 MSTORE PUSH1 0xF SWAP1 DUP3 ADD MSTORE PUSH15 0x53616C652069732073756363657373 PUSH1 0x88 SHL PUSH1 0x40 DUP3 ADD MSTORE PUSH1 0x60 ADD SWAP1 JUMP JUMPDEST SWAP1 DUP2 MSTORE PUSH1 0x20 ADD SWAP1 JUMP JUMPDEST SWAP2 DUP3 MSTORE PUSH1 0x20 DUP3 ADD MSTORE PUSH1 0x40 ADD SWAP1 JUMP JUMPDEST SWAP6 DUP7 MSTORE PUSH1 0x20 DUP7 ADD SWAP5 SWAP1 SWAP5 MSTORE PUSH1 0x40 DUP6 ADD SWAP3 SWAP1 SWAP3 MSTORE PUSH1 0x60 DUP5 ADD MSTORE ISZERO ISZERO PUSH1 0x80 DUP4 ADD MSTORE ISZERO ISZERO PUSH1 0xA0 DUP3 ADD MSTORE PUSH1 0xC0 ADD SWAP1 JUMP JUMPDEST SWAP6 DUP7 MSTORE PUSH1 0x20 DUP7 ADD SWAP5 SWAP1 SWAP5 MSTORE PUSH1 0x40 DUP6 ADD SWAP3 SWAP1 SWAP3 MSTORE PUSH1 0x60 DUP5 ADD MSTORE PUSH1 0x80 DUP4 ADD MSTORE PUSH1 0xA0 DUP3 ADD MSTORE PUSH1 0xC0 ADD SWAP1 JUMP JUMPDEST PUSH1 0x0 DUP3 NOT DUP3 GT ISZERO PUSH2 0x12EC JUMPI PUSH2 0x12EC PUSH2 0x1476 JUMP JUMPDEST POP ADD SWAP1 JUMP JUMPDEST PUSH1 0x0 DUP3 PUSH2 0x130C JUMPI PUSH4 0x4E487B71 PUSH1 0xE0 SHL DUP2 MSTORE PUSH1 0x12 PUSH1 0x4 MSTORE PUSH1 0x24 DUP2 REVERT JUMPDEST POP DIV SWAP1 JUMP JUMPDEST DUP1 DUP3 JUMPDEST PUSH1 0x1 DUP1 DUP7 GT PUSH2 0x1323 JUMPI POP PUSH2 0x134E JUMP JUMPDEST DUP2 DUP8 DIV DUP3 GT ISZERO PUSH2 0x1335 JUMPI PUSH2 0x1335 PUSH2 0x1476 JUMP JUMPDEST DUP1 DUP7 AND ISZERO PUSH2 0x1342 JUMPI SWAP2 DUP2 MUL SWAP2 JUMPDEST SWAP5 SWAP1 SWAP5 SHR SWAP4 DUP1 MUL PUSH2 0x1314 JUMP JUMPDEST SWAP5 POP SWAP5 SWAP3 POP POP POP JUMP JUMPDEST PUSH1 0x0 PUSH2 0xC1D PUSH1 0x0 NOT DUP5 DUP5 PUSH1 0x0 DUP3 PUSH2 0x1370 JUMPI POP PUSH1 0x1 PUSH2 0xE23 JUMP JUMPDEST DUP2 PUSH2 0x137D JUMPI POP PUSH1 0x0 PUSH2 0xE23 JUMP JUMPDEST DUP2 PUSH1 0x1 DUP2 EQ PUSH2 0x1393 JUMPI PUSH1 0x2 DUP2 EQ PUSH2 0x139D JUMPI PUSH2 0x13CA JUMP JUMPDEST PUSH1 0x1 SWAP2 POP POP PUSH2 0xE23 JUMP JUMPDEST PUSH1 0xFF DUP5 GT ISZERO PUSH2 0x13AE JUMPI PUSH2 0x13AE PUSH2 0x1476 JUMP JUMPDEST PUSH1 0x1 DUP5 SHL SWAP2 POP DUP5 DUP3 GT ISZERO PUSH2 0x13C4 JUMPI PUSH2 0x13C4 PUSH2 0x1476 JUMP JUMPDEST POP PUSH2 0xE23 JUMP JUMPDEST POP PUSH1 0x20 DUP4 LT PUSH2 0x133 DUP4 LT AND PUSH1 0x4E DUP5 LT PUSH1 0xB DUP5 LT AND OR ISZERO PUSH2 0x13FD JUMPI POP DUP2 DUP2 EXP DUP4 DUP2 GT ISZERO PUSH2 0x13F8 JUMPI PUSH2 0x13F8 PUSH2 0x1476 JUMP JUMPDEST PUSH2 0xE23 JUMP JUMPDEST PUSH2 0x140A DUP5 DUP5 DUP5 PUSH1 0x1 PUSH2 0x1311 JUMP JUMPDEST DUP1 DUP7 DIV DUP3 GT ISZERO PUSH2 0x141C JUMPI PUSH2 0x141C PUSH2 0x1476 JUMP JUMPDEST MUL SWAP5 SWAP4 POP POP POP POP JUMP JUMPDEST PUSH1 0x0 DUP2 PUSH1 0x0 NOT DIV DUP4 GT DUP3 ISZERO ISZERO AND ISZERO PUSH2 0x143F JUMPI PUSH2 0x143F PUSH2 0x1476 JUMP JUMPDEST POP MUL SWAP1 JUMP JUMPDEST PUSH1 0x0 DUP3 DUP3 LT ISZERO PUSH2 0x1456 JUMPI PUSH2 0x1456 PUSH2 0x1476 JUMP JUMPDEST POP SUB SWAP1 JUMP JUMPDEST PUSH1 0x0 PUSH1 0x0 NOT DUP3 EQ ISZERO PUSH2 0x146F JUMPI PUSH2 0x146F PUSH2 0x1476 JUMP JUMPDEST POP PUSH1 0x1 ADD SWAP1 JUMP JUMPDEST PUSH4 0x4E487B71 PUSH1 0xE0 SHL PUSH1 0x0 MSTORE PUSH1 0x11 PUSH1 0x4 MSTORE PUSH1 0x24 PUSH1 0x0 REVERT JUMPDEST PUSH4 0x4E487B71 PUSH1 0xE0 SHL PUSH1 0x0 MSTORE PUSH1 0x41 PUSH1 0x4 MSTORE PUSH1 0x24 PUSH1 0x0 REVERT JUMPDEST PUSH1 0x1 PUSH1 0x1 PUSH1 0xA0 SHL SUB DUP2 AND DUP2 EQ PUSH2 0x442 JUMPI PUSH1 0x0 DUP1 REVERT INVALID LOG2 PUSH5 0x6970667358 0x22 SLT KECCAK256 0x48 0xB7 RETURNDATACOPY SIGNEXTEND PUSH16 0x99A3F0907AB1389FFA3756223137B1D3 PUSH3 0xD1D012 0x4B 0xC8 0xA7 MOD 0x2A 0xE6 DUP4 PUSH5 0x736F6C6343 STOP ADDMOD STOP STOP CALLER "
				},
				"gasEstimates": {
					"creation": {
						"codeDepositCost": "1071400",
						"executionCost": "infinite",
						"totalCost": "infinite"
					},
					"external": {
						"WETH()": "1159",
						"backToken()": "infinite",
						"buyerInfo(address)": "4727",
						"checkAdminAddress()": "1299",
						"deposit(uint256)": "22904",
						"feeAnyone()": "1051",
						"getBalance(address)": "1205",
						"initialSaleInfor(address,address,address,uint256[9])": "infinite",
						"owner()": "1181",
						"presaleStatus()": "5218",
						"renounceOwnership()": "23574",
						"saleInfor()": "10258",
						"saleTotalSupply()": "1873",
						"status()": "1987",
						"totalFee()": "1096",
						"transferOwnership(address)": "infinite",
						"userClaimEmergency()": "22874",
						"userFee(address)": "1291"
					}
				},
				"methodIdentifiers": {
					"WETH()": "ad5c4648",
					"backToken()": "861faf5f",
					"buyerInfo(address)": "e2d3f423",
					"checkAdminAddress()": "cad5b0f7",
					"deposit(uint256)": "b6b55f25",
					"feeAnyone()": "3b5ef2ad",
					"getBalance(address)": "f8b2cb4f",
					"initialSaleInfor(address,address,address,uint256[9])": "8f1eae4c",
					"owner()": "8da5cb5b",
					"presaleStatus()": "acfb2355",
					"renounceOwnership()": "715018a6",
					"saleInfor()": "18856a2f",
					"saleTotalSupply()": "12e5d0b9",
					"status()": "200d2ed2",
					"totalFee()": "1df4ccfc",
					"transferOwnership(address)": "f2fde38b",
					"userClaimEmergency()": "ab33985a",
					"userFee(address)": "56c5f349"
				}
			},
			"storageLayout": {
				"storage": [
					{
						"astId": 2129,
						"contract": "Ethereum/Presale.sol:Presale",
						"label": "_status",
						"offset": 0,
						"slot": "0",
						"type": "t_uint256"
					},
					{
						"astId": 2021,
						"contract": "Ethereum/Presale.sol:Presale",
						"label": "_owner",
						"offset": 0,
						"slot": "1",
						"type": "t_address"
					},
					{
						"astId": 774,
						"contract": "Ethereum/Presale.sol:Presale",
						"label": "buyerInfo",
						"offset": 0,
						"slot": "2",
						"type": "t_mapping(t_address,t_struct(BuyerInfo)753_storage)"
					},
					{
						"astId": 778,
						"contract": "Ethereum/Presale.sol:Presale",
						"label": "userFee",
						"offset": 0,
						"slot": "3",
						"type": "t_mapping(t_address,t_uint256)"
					},
					{
						"astId": 781,
						"contract": "Ethereum/Presale.sol:Presale",
						"label": "presaleStatus",
						"offset": 0,
						"slot": "4",
						"type": "t_struct(PresaleStatus)769_storage"
					},
					{
						"astId": 784,
						"contract": "Ethereum/Presale.sol:Presale",
						"label": "saleTotalSupply",
						"offset": 0,
						"slot": "11",
						"type": "t_struct(SaleTotalSupply)740_storage"
					},
					{
						"astId": 787,
						"contract": "Ethereum/Presale.sol:Presale",
						"label": "saleInfor",
						"offset": 0,
						"slot": "13",
						"type": "t_struct(SaleInfor)735_storage"
					},
					{
						"astId": 790,
						"contract": "Ethereum/Presale.sol:Presale",
						"label": "WETH",
						"offset": 0,
						"slot": "25",
						"type": "t_contract(IERC20)663"
					},
					{
						"astId": 792,
						"contract": "Ethereum/Presale.sol:Presale",
						"label": "feeAnyone",
						"offset": 0,
						"slot": "26",
						"type": "t_uint256"
					},
					{
						"astId": 795,
						"contract": "Ethereum/Presale.sol:Presale",
						"label": "admins",
						"offset": 0,
						"slot": "27",
						"type": "t_struct(AddressSet)1726_storage"
					},
					{
						"astId": 797,
						"contract": "Ethereum/Presale.sol:Presale",
						"label": "totalFee",
						"offset": 0,
						"slot": "29",
						"type": "t_uint256"
					}
				],
				"types": {
					"t_address": {
						"encoding": "inplace",
						"label": "address",
						"numberOfBytes": "20"
					},
					"t_address_payable": {
						"encoding": "inplace",
						"label": "address payable",
						"numberOfBytes": "20"
					},
					"t_array(t_address)dyn_storage": {
						"base": "t_address",
						"encoding": "dynamic_array",
						"label": "address[]",
						"numberOfBytes": "32"
					},
					"t_array(t_bytes32)dyn_storage": {
						"base": "t_bytes32",
						"encoding": "dynamic_array",
						"label": "bytes32[]",
						"numberOfBytes": "32"
					},
					"t_bool": {
						"encoding": "inplace",
						"label": "bool",
						"numberOfBytes": "1"
					},
					"t_bytes32": {
						"encoding": "inplace",
						"label": "bytes32",
						"numberOfBytes": "32"
					},
					"t_contract(ERC20)585": {
						"encoding": "inplace",
						"label": "contract ERC20",
						"numberOfBytes": "20"
					},
					"t_contract(IERC20)663": {
						"encoding": "inplace",
						"label": "contract IERC20",
						"numberOfBytes": "20"
					},
					"t_mapping(t_address,t_struct(BuyerInfo)753_storage)": {
						"encoding": "mapping",
						"key": "t_address",
						"label": "mapping(address => struct Presale.BuyerInfo)",
						"numberOfBytes": "32",
						"value": "t_struct(BuyerInfo)753_storage"
					},
					"t_mapping(t_address,t_uint256)": {
						"encoding": "mapping",
						"key": "t_address",
						"label": "mapping(address => uint256)",
						"numberOfBytes": "32",
						"value": "t_uint256"
					},
					"t_mapping(t_bytes32,t_uint256)": {
						"encoding": "mapping",
						"key": "t_bytes32",
						"label": "mapping(bytes32 => uint256)",
						"numberOfBytes": "32",
						"value": "t_uint256"
					},
					"t_struct(AddressSet)1726_storage": {
						"encoding": "inplace",
						"label": "struct EnumerableSet.AddressSet",
						"members": [
							{
								"astId": 1725,
								"contract": "Ethereum/Presale.sol:Presale",
								"label": "_inner",
								"offset": 0,
								"slot": "0",
								"type": "t_struct(Set)1425_storage"
							}
						],
						"numberOfBytes": "64"
					},
					"t_struct(BuyerInfo)753_storage": {
						"encoding": "inplace",
						"label": "struct Presale.BuyerInfo",
						"members": [
							{
								"astId": 742,
								"contract": "Ethereum/Presale.sol:Presale",
								"label": "baseDeposit",
								"offset": 0,
								"slot": "0",
								"type": "t_uint256"
							},
							{
								"astId": 744,
								"contract": "Ethereum/Presale.sol:Presale",
								"label": "tokenOwner",
								"offset": 0,
								"slot": "1",
								"type": "t_uint256"
							},
							{
								"astId": 746,
								"contract": "Ethereum/Presale.sol:Presale",
								"label": "lastWithDraw",
								"offset": 0,
								"slot": "2",
								"type": "t_uint256"
							},
							{
								"astId": 748,
								"contract": "Ethereum/Presale.sol:Presale",
								"label": "totalTokenWithDraw",
								"offset": 0,
								"slot": "3",
								"type": "t_uint256"
							},
							{
								"astId": 750,
								"contract": "Ethereum/Presale.sol:Presale",
								"label": "isRefund",
								"offset": 0,
								"slot": "4",
								"type": "t_bool"
							},
							{
								"astId": 752,
								"contract": "Ethereum/Presale.sol:Presale",
								"label": "isClaim",
								"offset": 1,
								"slot": "4",
								"type": "t_bool"
							}
						],
						"numberOfBytes": "160"
					},
					"t_struct(PresaleStatus)769_storage": {
						"encoding": "inplace",
						"label": "struct Presale.PresaleStatus",
						"members": [
							{
								"astId": 755,
								"contract": "Ethereum/Presale.sol:Presale",
								"label": "totalBaseCollected",
								"offset": 0,
								"slot": "0",
								"type": "t_uint256"
							},
							{
								"astId": 757,
								"contract": "Ethereum/Presale.sol:Presale",
								"label": "totalTokenSold",
								"offset": 0,
								"slot": "1",
								"type": "t_uint256"
							},
							{
								"astId": 759,
								"contract": "Ethereum/Presale.sol:Presale",
								"label": "totalTokenWithDraw",
								"offset": 0,
								"slot": "2",
								"type": "t_uint256"
							},
							{
								"astId": 761,
								"contract": "Ethereum/Presale.sol:Presale",
								"label": "totalBaseWithDraw",
								"offset": 0,
								"slot": "3",
								"type": "t_uint256"
							},
							{
								"astId": 763,
								"contract": "Ethereum/Presale.sol:Presale",
								"label": "numberBuyer",
								"offset": 0,
								"slot": "4",
								"type": "t_uint256"
							},
							{
								"astId": 765,
								"contract": "Ethereum/Presale.sol:Presale",
								"label": "totalFee",
								"offset": 0,
								"slot": "5",
								"type": "t_uint256"
							},
							{
								"astId": 768,
								"contract": "Ethereum/Presale.sol:Presale",
								"label": "admin",
								"offset": 0,
								"slot": "6",
								"type": "t_array(t_address)dyn_storage"
							}
						],
						"numberOfBytes": "224"
					},
					"t_struct(SaleInfor)735_storage": {
						"encoding": "inplace",
						"label": "struct Presale.SaleInfor",
						"members": [
							{
								"astId": 710,
								"contract": "Ethereum/Presale.sol:Presale",
								"label": "presaleOwner",
								"offset": 0,
								"slot": "0",
								"type": "t_address_payable"
							},
							{
								"astId": 713,
								"contract": "Ethereum/Presale.sol:Presale",
								"label": "saleToken",
								"offset": 0,
								"slot": "1",
								"type": "t_contract(ERC20)585"
							},
							{
								"astId": 716,
								"contract": "Ethereum/Presale.sol:Presale",
								"label": "baseToken",
								"offset": 0,
								"slot": "2",
								"type": "t_contract(ERC20)585"
							},
							{
								"astId": 718,
								"contract": "Ethereum/Presale.sol:Presale",
								"label": "tokenPrice",
								"offset": 0,
								"slot": "3",
								"type": "t_uint256"
							},
							{
								"astId": 720,
								"contract": "Ethereum/Presale.sol:Presale",
								"label": "startSale",
								"offset": 0,
								"slot": "4",
								"type": "t_uint256"
							},
							{
								"astId": 722,
								"contract": "Ethereum/Presale.sol:Presale",
								"label": "endSale",
								"offset": 0,
								"slot": "5",
								"type": "t_uint256"
							},
							{
								"astId": 724,
								"contract": "Ethereum/Presale.sol:Presale",
								"label": "minSpendPerBuyer",
								"offset": 0,
								"slot": "6",
								"type": "t_uint256"
							},
							{
								"astId": 726,
								"contract": "Ethereum/Presale.sol:Presale",
								"label": "maxSpendPerBuyer",
								"offset": 0,
								"slot": "7",
								"type": "t_uint256"
							},
							{
								"astId": 728,
								"contract": "Ethereum/Presale.sol:Presale",
								"label": "refundFee",
								"offset": 0,
								"slot": "8",
								"type": "t_uint256"
							},
							{
								"astId": 730,
								"contract": "Ethereum/Presale.sol:Presale",
								"label": "claimFee",
								"offset": 0,
								"slot": "9",
								"type": "t_uint256"
							},
							{
								"astId": 732,
								"contract": "Ethereum/Presale.sol:Presale",
								"label": "saleIsBaseToken",
								"offset": 0,
								"slot": "10",
								"type": "t_bool"
							},
							{
								"astId": 734,
								"contract": "Ethereum/Presale.sol:Presale",
								"label": "amountTokenForSale",
								"offset": 0,
								"slot": "11",
								"type": "t_uint256"
							}
						],
						"numberOfBytes": "384"
					},
					"t_struct(SaleTotalSupply)740_storage": {
						"encoding": "inplace",
						"label": "struct Presale.SaleTotalSupply",
						"members": [
							{
								"astId": 737,
								"contract": "Ethereum/Presale.sol:Presale",
								"label": "hardCap",
								"offset": 0,
								"slot": "0",
								"type": "t_uint256"
							},
							{
								"astId": 739,
								"contract": "Ethereum/Presale.sol:Presale",
								"label": "softCap",
								"offset": 0,
								"slot": "1",
								"type": "t_uint256"
							}
						],
						"numberOfBytes": "64"
					},
					"t_struct(Set)1425_storage": {
						"encoding": "inplace",
						"label": "struct EnumerableSet.Set",
						"members": [
							{
								"astId": 1420,
								"contract": "Ethereum/Presale.sol:Presale",
								"label": "_values",
								"offset": 0,
								"slot": "0",
								"type": "t_array(t_bytes32)dyn_storage"
							},
							{
								"astId": 1424,
								"contract": "Ethereum/Presale.sol:Presale",
								"label": "_indexes",
								"offset": 0,
								"slot": "1",
								"type": "t_mapping(t_bytes32,t_uint256)"
							}
						],
						"numberOfBytes": "64"
					},
					"t_uint256": {
						"encoding": "inplace",
						"label": "uint256",
						"numberOfBytes": "32"
					}
				}
			},
			"userdoc": {
				"kind": "user",
				"methods": {},
				"version": 1
			}
		}
	}
}