{
	"Ethereum/Presale.sol": {
		"Presale": {
			"abi": [
				{
					"inputs": [],
					"stateMutability": "payable",
					"type": "constructor"
				},
				{
					"anonymous": false,
					"inputs": [
						{
							"indexed": true,
							"internalType": "address",
							"name": "previousOwner",
							"type": "address"
						},
						{
							"indexed": true,
							"internalType": "address",
							"name": "newOwner",
							"type": "address"
						}
					],
					"name": "OwnershipTransferred",
					"type": "event"
				},
				{
					"inputs": [],
					"name": "WETH",
					"outputs": [
						{
							"internalType": "contract IERC20",
							"name": "",
							"type": "address"
						}
					],
					"stateMutability": "view",
					"type": "function"
				},
				{
					"inputs": [],
					"name": "adminReceiveFee",
					"outputs": [
						{
							"internalType": "address",
							"name": "",
							"type": "address"
						}
					],
					"stateMutability": "view",
					"type": "function"
				},
				{
					"inputs": [],
					"name": "backToken",
					"outputs": [],
					"stateMutability": "payable",
					"type": "function"
				},
				{
					"inputs": [
						{
							"internalType": "address",
							"name": "",
							"type": "address"
						}
					],
					"name": "buyerInfo",
					"outputs": [
						{
							"internalType": "uint256",
							"name": "baseDeposit",
							"type": "uint256"
						},
						{
							"internalType": "uint256",
							"name": "tokenOwner",
							"type": "uint256"
						},
						{
							"internalType": "uint256",
							"name": "lastWithDraw",
							"type": "uint256"
						},
						{
							"internalType": "uint256",
							"name": "totalTokenWithDraw",
							"type": "uint256"
						},
						{
							"internalType": "uint256",
							"name": "totalBaseWithDraw",
							"type": "uint256"
						}
					],
					"stateMutability": "view",
					"type": "function"
				},
				{
					"inputs": [],
					"name": "checkAdminAddress",
					"outputs": [
						{
							"internalType": "bool",
							"name": "",
							"type": "bool"
						}
					],
					"stateMutability": "view",
					"type": "function"
				},
				{
					"inputs": [
						{
							"internalType": "uint256",
							"name": "_amount",
							"type": "uint256"
						}
					],
					"name": "deposit",
					"outputs": [],
					"stateMutability": "payable",
					"type": "function"
				},
				{
					"inputs": [],
					"name": "feeAnyone",
					"outputs": [
						{
							"internalType": "uint256",
							"name": "",
							"type": "uint256"
						}
					],
					"stateMutability": "view",
					"type": "function"
				},
				{
					"inputs": [],
					"name": "feeCreateSale",
					"outputs": [
						{
							"internalType": "uint256",
							"name": "",
							"type": "uint256"
						}
					],
					"stateMutability": "view",
					"type": "function"
				},
				{
					"inputs": [
						{
							"internalType": "address",
							"name": "_address",
							"type": "address"
						}
					],
					"name": "getBalance",
					"outputs": [
						{
							"internalType": "uint256",
							"name": "",
							"type": "uint256"
						}
					],
					"stateMutability": "view",
					"type": "function"
				},
				{
					"inputs": [
						{
							"internalType": "address payable",
							"name": "_presaleOwner",
							"type": "address"
						},
						{
							"internalType": "contract ERC20",
							"name": "_saleToken",
							"type": "address"
						},
						{
							"internalType": "contract ERC20",
							"name": "_baseTOken",
							"type": "address"
						},
						{
							"internalType": "uint256[7]",
							"name": "datas",
							"type": "uint256[7]"
						},
						{
							"internalType": "uint256",
							"name": "refundFee",
							"type": "uint256"
						},
						{
							"internalType": "uint256",
							"name": "claimFee",
							"type": "uint256"
						},
						{
							"internalType": "uint256",
							"name": "_feeAnyone",
							"type": "uint256"
						},
						{
							"internalType": "address payable",
							"name": "_adminReceiveFee",
							"type": "address"
						},
						{
							"internalType": "uint256",
							"name": "_feeCreateSale",
							"type": "uint256"
						}
					],
					"name": "initialSaleInfor",
					"outputs": [],
					"stateMutability": "nonpayable",
					"type": "function"
				},
				{
					"inputs": [],
					"name": "owner",
					"outputs": [
						{
							"internalType": "address",
							"name": "",
							"type": "address"
						}
					],
					"stateMutability": "view",
					"type": "function"
				},
				{
					"inputs": [],
					"name": "ownerClaimAndRefundToken",
					"outputs": [],
					"stateMutability": "nonpayable",
					"type": "function"
				},
				{
					"inputs": [],
					"name": "presaleStatus",
					"outputs": [
						{
							"internalType": "uint256",
							"name": "totalBaseCollected",
							"type": "uint256"
						},
						{
							"internalType": "uint256",
							"name": "totalTokenSold",
							"type": "uint256"
						},
						{
							"internalType": "uint256",
							"name": "totalTokenWithDraw",
							"type": "uint256"
						},
						{
							"internalType": "uint256",
							"name": "totalBaseWithDraw",
							"type": "uint256"
						},
						{
							"internalType": "uint256",
							"name": "totalTokenBackForAdmin",
							"type": "uint256"
						},
						{
							"internalType": "uint256",
							"name": "totalBaseBackForAdmin",
							"type": "uint256"
						},
						{
							"internalType": "uint256",
							"name": "numberBuyer",
							"type": "uint256"
						},
						{
							"internalType": "bool",
							"name": "isOwnerClaimSaleToken",
							"type": "bool"
						},
						{
							"internalType": "bool",
							"name": "isOwnerRefundBaseToken",
							"type": "bool"
						}
					],
					"stateMutability": "view",
					"type": "function"
				},
				{
					"inputs": [],
					"name": "renounceOwnership",
					"outputs": [],
					"stateMutability": "nonpayable",
					"type": "function"
				},
				{
					"inputs": [],
					"name": "saleInfor",
					"outputs": [
						{
							"internalType": "address payable",
							"name": "presaleOwner",
							"type": "address"
						},
						{
							"internalType": "contract ERC20",
							"name": "saleToken",
							"type": "address"
						},
						{
							"internalType": "contract ERC20",
							"name": "baseToken",
							"type": "address"
						},
						{
							"internalType": "uint256",
							"name": "tokenPrice",
							"type": "uint256"
						},
						{
							"internalType": "uint256",
							"name": "startSale",
							"type": "uint256"
						},
						{
							"internalType": "uint256",
							"name": "endSale",
							"type": "uint256"
						},
						{
							"internalType": "uint256",
							"name": "minSpendPerBuyer",
							"type": "uint256"
						},
						{
							"internalType": "uint256",
							"name": "maxSpendPerBuyer",
							"type": "uint256"
						},
						{
							"internalType": "uint256",
							"name": "refundFee",
							"type": "uint256"
						},
						{
							"internalType": "uint256",
							"name": "claimFee",
							"type": "uint256"
						},
						{
							"internalType": "bool",
							"name": "saleIsBaseToken",
							"type": "bool"
						},
						{
							"internalType": "uint256",
							"name": "amountTokenForSale",
							"type": "uint256"
						}
					],
					"stateMutability": "view",
					"type": "function"
				},
				{
					"inputs": [],
					"name": "saleTotalSupply",
					"outputs": [
						{
							"internalType": "uint256",
							"name": "hardCap",
							"type": "uint256"
						},
						{
							"internalType": "uint256",
							"name": "softCap",
							"type": "uint256"
						}
					],
					"stateMutability": "view",
					"type": "function"
				},
				{
					"inputs": [],
					"name": "status",
					"outputs": [
						{
							"internalType": "uint256",
							"name": "",
							"type": "uint256"
						}
					],
					"stateMutability": "view",
					"type": "function"
				},
				{
					"inputs": [],
					"name": "totalFee",
					"outputs": [
						{
							"internalType": "uint256",
							"name": "",
							"type": "uint256"
						}
					],
					"stateMutability": "view",
					"type": "function"
				},
				{
					"inputs": [
						{
							"internalType": "address",
							"name": "newOwner",
							"type": "address"
						}
					],
					"name": "transferOwnership",
					"outputs": [],
					"stateMutability": "nonpayable",
					"type": "function"
				},
				{
					"inputs": [],
					"name": "userClaimEmergency",
					"outputs": [],
					"stateMutability": "nonpayable",
					"type": "function"
				},
				{
					"inputs": [
						{
							"internalType": "bool",
							"name": "isClaim",
							"type": "bool"
						}
					],
					"name": "userClaimOrRefundWhenSaleSuccess",
					"outputs": [],
					"stateMutability": "nonpayable",
					"type": "function"
				},
				{
					"inputs": [
						{
							"internalType": "address",
							"name": "",
							"type": "address"
						}
					],
					"name": "userFee",
					"outputs": [
						{
							"internalType": "uint256",
							"name": "",
							"type": "uint256"
						}
					],
					"stateMutability": "view",
					"type": "function"
				},
				{
					"inputs": [],
					"name": "userRefundEmergency",
					"outputs": [],
					"stateMutability": "nonpayable",
					"type": "function"
				}
			],
			"devdoc": {
				"kind": "dev",
				"methods": {
					"owner()": {
						"details": "Returns the address of the current owner."
					},
					"renounceOwnership()": {
						"details": "Leaves the contract without owner. It will not be possible to call `onlyOwner` functions anymore. Can only be called by the current owner. NOTE: Renouncing ownership will leave the contract without an owner, thereby removing any functionality that is only available to the owner."
					},
					"transferOwnership(address)": {
						"details": "Transfers ownership of the contract to a new account (`newOwner`). Can only be called by the current owner."
					}
				},
				"version": 1
			},
			"evm": {
				"assembly": "    /* \"Ethereum/Presale.sol\":370:11861  contract Presale is ReentrancyGuard, Ownable{\r... */\n  mstore(0x40, 0x80)\n    /* \"Utils/ReentrancyGuard.sol\":1734:1735  1 */\n  0x01\n    /* \"Utils/ReentrancyGuard.sol\":1845:1852  _status */\n  0x00\n    /* \"Utils/ReentrancyGuard.sol\":1845:1867  _status = _NOT_ENTERED */\n  sstore\n    /* \"Utils/Ownable.sol\":942:974  _transferOwnership(_msgSender()) */\n  tag_6\n    /* \"Utils/Context.sol\":736:746  msg.sender */\n  caller\n    /* \"Utils/Ownable.sol\":942:960  _transferOwnership */\n  tag_9\n    /* \"Utils/Ownable.sol\":942:974  _transferOwnership(_msgSender()) */\n  jump\t// in\ntag_6:\n    /* \"Ethereum/Presale.sol\":2438:2442  WETH */\n  0x1b\n    /* \"Ethereum/Presale.sol\":2438:2494  WETH = ERC20(0xc778417E063141139Fce010982780140Aa0cD5Ab) */\n  dup1\n  sload\n    /* \"Ethereum/Presale.sol\":2451:2493  0xc778417E063141139Fce010982780140Aa0cD5Ab */\n  0xc778417e063141139fce010982780140aa0cd5ab\n  not(sub(shl(0xa0, 0x01), 0x01))\n    /* \"Ethereum/Presale.sol\":2438:2494  WETH = ERC20(0xc778417E063141139Fce010982780140Aa0cD5Ab) */\n  swap1\n  swap2\n  and\n  or\n  swap1\n  sstore\n    /* \"Ethereum/Presale.sol\":2505:2559  admins.add(0x6Ccb41eedA5a073076F3E7dC1614C185b5fA41eD) */\n  tag_11\n    /* \"Ethereum/Presale.sol\":2505:2511  admins */\n  0x1c\n    /* \"Ethereum/Presale.sol\":2516:2558  0x6Ccb41eedA5a073076F3E7dC1614C185b5fA41eD */\n  0x6ccb41eeda5a073076f3e7dc1614c185b5fa41ed\n    /* \"Ethereum/Presale.sol\":2505:2515  admins.add */\n  tag_12\n  0x20\n  swap1\n  dup2\n  shl\n  tag_0_128\n  or\n    /* \"Ethereum/Presale.sol\":2505:2559  admins.add(0x6Ccb41eedA5a073076F3E7dC1614C185b5fA41eD) */\n  swap1\n  shr\n  jump\t// in\ntag_11:\n  pop\n    /* \"Ethereum/Presale.sol\":2570:2624  admins.add(0x4f0B12bBF40Fc182559822A5b1dB6D34dbC3E016) */\n  tag_13\n    /* \"Ethereum/Presale.sol\":2581:2623  0x4f0B12bBF40Fc182559822A5b1dB6D34dbC3E016 */\n  0x4f0b12bbf40fc182559822a5b1db6d34dbc3e016\n    /* \"Ethereum/Presale.sol\":2570:2576  admins */\n  0x1c\n    /* \"Ethereum/Presale.sol\":2570:2580  admins.add */\n  or(tag_0_128, shl(0x20, tag_12))\n  swap1\n    /* \"Ethereum/Presale.sol\":2570:2624  admins.add(0x4f0B12bBF40Fc182559822A5b1dB6D34dbC3E016) */\n  swap2\n  swap1\n  0x20\n  shr\n  jump\t// in\ntag_13:\n  pop\n    /* \"Ethereum/Presale.sol\":370:11861  contract Presale is ReentrancyGuard, Ownable{\r... */\n  jump(tag_14)\n    /* \"Utils/Ownable.sol\":2333:2524  function _transferOwnership(address newOwner) internal virtual {\r... */\ntag_9:\n    /* \"Utils/Ownable.sol\":2426:2432  _owner */\n  0x01\n  dup1\n  sload\n  sub(shl(0xa0, 0x01), 0x01)\n    /* \"Utils/Ownable.sol\":2443:2460  _owner = newOwner */\n  dup4\n  dup2\n  and\n  not(sub(shl(0xa0, 0x01), 0x01))\n  dup4\n  and\n  dup2\n  or\n  swap1\n  swap4\n  sstore\n    /* \"Utils/Ownable.sol\":2476:2516  OwnershipTransferred(oldOwner, newOwner) */\n  mload(0x40)\n    /* \"Utils/Ownable.sol\":2426:2432  _owner */\n  swap2\n  and\n  swap2\n    /* \"Utils/Ownable.sol\":2443:2460  _owner = newOwner */\n  swap1\n    /* \"Utils/Ownable.sol\":2426:2432  _owner */\n  dup3\n  swap1\n    /* \"Utils/Ownable.sol\":2476:2516  OwnershipTransferred(oldOwner, newOwner) */\n  0x8be0079c531659141344cd1fd0a4f28419497f9722a3daafe3b4186f6b6457e0\n  swap1\n    /* \"Utils/Ownable.sol\":2407:2423  address oldOwner */\n  0x00\n  swap1\n    /* \"Utils/Ownable.sol\":2476:2516  OwnershipTransferred(oldOwner, newOwner) */\n  log3\n    /* \"Utils/Ownable.sol\":2396:2524  {\r... */\n  pop\n    /* \"Utils/Ownable.sol\":2333:2524  function _transferOwnership(address newOwner) internal virtual {\r... */\n  pop\n  jump\t// out\n    /* \"Utils/EnumerableSet.sol\":8259:8411  function add(AddressSet storage set, address value) internal returns (bool) {\r... */\ntag_12:\n    /* \"Utils/EnumerableSet.sol\":8329:8333  bool */\n  0x00\n    /* \"Utils/EnumerableSet.sol\":8353:8403  _add(set._inner, bytes32(uint256(uint160(value)))) */\n  tag_18\n    /* \"Utils/EnumerableSet.sol\":8358:8361  set */\n  dup4\n  sub(shl(0xa0, 0x01), 0x01)\n    /* \"Utils/EnumerableSet.sol\":8378:8401  uint256(uint160(value)) */\n  dup5\n  and\n    /* \"Utils/EnumerableSet.sol\":8353:8357  _add */\n  tag_19\n    /* \"Utils/EnumerableSet.sol\":8353:8403  _add(set._inner, bytes32(uint256(uint160(value)))) */\n  jump\t// in\ntag_18:\n    /* \"Utils/EnumerableSet.sol\":8346:8403  return _add(set._inner, bytes32(uint256(uint160(value)))) */\n  swap1\n  pop\n    /* \"Utils/EnumerableSet.sol\":8259:8411  function add(AddressSet storage set, address value) internal returns (bool) {\r... */\ntag_17:\n  swap3\n  swap2\n  pop\n  pop\n  jump\t// out\n    /* \"Utils/EnumerableSet.sol\":2174:2588  function _add(Set storage set, bytes32 value) private returns (bool) {\r... */\ntag_19:\n    /* \"Utils/EnumerableSet.sol\":2237:2241  bool */\n  0x00\n    /* \"Utils/EnumerableSet.sol\":4367:4386  set._indexes[value] */\n  dup2\n  dup2\n  mstore\n    /* \"Utils/EnumerableSet.sol\":4367:4379  set._indexes */\n  0x01\n  dup4\n  add\n    /* \"Utils/EnumerableSet.sol\":4367:4386  set._indexes[value] */\n  0x20\n  mstore\n  0x40\n  dup2\n  keccak256\n  sload\n    /* \"Utils/EnumerableSet.sol\":2254:2581  if (!_contains(set, value)) {\r... */\n  tag_23\n  jumpi\n  pop\n    /* \"Utils/EnumerableSet.sol\":2297:2320  set._values.push(value) */\n  dup2\n  sload\n  0x01\n  dup2\n  dup2\n  add\n  dup5\n  sstore\n    /* \"Utils/EnumerableSet.sol\":2297:2308  set._values */\n  0x00\n    /* \"Utils/EnumerableSet.sol\":2297:2320  set._values.push(value) */\n  dup5\n  dup2\n  mstore\n  0x20\n  dup1\n  dup3\n  keccak256\n  swap1\n  swap4\n  add\n  dup5\n  swap1\n  sstore\n    /* \"Utils/EnumerableSet.sol\":2480:2498  set._values.length */\n  dup5\n  sload\n    /* \"Utils/EnumerableSet.sol\":2458:2477  set._indexes[value] */\n  dup5\n  dup3\n  mstore\n    /* \"Utils/EnumerableSet.sol\":2458:2470  set._indexes */\n  dup3\n  dup7\n  add\n    /* \"Utils/EnumerableSet.sol\":2458:2477  set._indexes[value] */\n  swap1\n  swap4\n  mstore\n  0x40\n  swap1\n  keccak256\n    /* \"Utils/EnumerableSet.sol\":2458:2498  set._indexes[value] = set._values.length */\n  swap2\n  swap1\n  swap2\n  sstore\n    /* \"Utils/EnumerableSet.sol\":2513:2524  return true */\n  jump(tag_17)\n    /* \"Utils/EnumerableSet.sol\":2254:2581  if (!_contains(set, value)) {\r... */\ntag_23:\n  pop\n    /* \"Utils/EnumerableSet.sol\":2564:2569  false */\n  0x00\n    /* \"Utils/EnumerableSet.sol\":2557:2569  return false */\n  jump(tag_17)\n    /* \"Ethereum/Presale.sol\":370:11861  contract Presale is ReentrancyGuard, Ownable{\r... */\ntag_14:\n  dataSize(sub_0)\n  dup1\n  dataOffset(sub_0)\n  0x00\n  codecopy\n  0x00\n  return\nstop\n\nsub_0: assembly {\n        /* \"Ethereum/Presale.sol\":370:11861  contract Presale is ReentrancyGuard, Ownable{\r... */\n      mstore(0x40, 0x80)\n      jumpi(tag_1, lt(calldatasize, 0x04))\n      shr(0xe0, calldataload(0x00))\n      dup1\n      0x95661e70\n      gt\n      tag_25\n      jumpi\n      dup1\n      0xcad5b0f7\n      gt\n      tag_26\n      jumpi\n      dup1\n      0xcad5b0f7\n      eq\n      tag_19\n      jumpi\n      dup1\n      0xd4c1dee9\n      eq\n      tag_20\n      jumpi\n      dup1\n      0xe2d3f423\n      eq\n      tag_21\n      jumpi\n      dup1\n      0xeb002bb0\n      eq\n      tag_22\n      jumpi\n      dup1\n      0xf2fde38b\n      eq\n      tag_23\n      jumpi\n      dup1\n      0xf8b2cb4f\n      eq\n      tag_24\n      jumpi\n      0x00\n      dup1\n      revert\n    tag_26:\n      dup1\n      0x95661e70\n      eq\n      tag_13\n      jumpi\n      dup1\n      0xab33985a\n      eq\n      tag_14\n      jumpi\n      dup1\n      0xacfb2355\n      eq\n      tag_15\n      jumpi\n      dup1\n      0xad5c4648\n      eq\n      tag_16\n      jumpi\n      dup1\n      0xae2b0965\n      eq\n      tag_17\n      jumpi\n      dup1\n      0xb6b55f25\n      eq\n      tag_18\n      jumpi\n      0x00\n      dup1\n      revert\n    tag_25:\n      dup1\n      0x3b5ef2ad\n      gt\n      tag_27\n      jumpi\n      dup1\n      0x3b5ef2ad\n      eq\n      tag_7\n      jumpi\n      dup1\n      0x56c5f349\n      eq\n      tag_8\n      jumpi\n      dup1\n      0x715018a6\n      eq\n      tag_9\n      jumpi\n      dup1\n      0x861faf5f\n      eq\n      tag_10\n      jumpi\n      dup1\n      0x8da5cb5b\n      eq\n      tag_11\n      jumpi\n      dup1\n      0x8edf18e6\n      eq\n      tag_12\n      jumpi\n      0x00\n      dup1\n      revert\n    tag_27:\n      dup1\n      0x0a9c5ddb\n      eq\n      tag_2\n      jumpi\n      dup1\n      0x12e5d0b9\n      eq\n      tag_3\n      jumpi\n      dup1\n      0x18856a2f\n      eq\n      tag_4\n      jumpi\n      dup1\n      0x1df4ccfc\n      eq\n      tag_5\n      jumpi\n      dup1\n      0x200d2ed2\n      eq\n      tag_6\n      jumpi\n    tag_1:\n      0x00\n      dup1\n      revert\n        /* \"Ethereum/Presale.sol\":2640:4113  function initialSaleInfor(\r... */\n    tag_2:\n      callvalue\n      dup1\n      iszero\n      tag_28\n      jumpi\n      0x00\n      dup1\n      revert\n    tag_28:\n      pop\n      tag_29\n      tag_30\n      calldatasize\n      0x04\n      tag_31\n      jump\t// in\n    tag_30:\n      tag_32\n      jump\t// in\n    tag_29:\n      stop\n        /* \"Ethereum/Presale.sol\":1741:1779  SaleTotalSupply public saleTotalSupply */\n    tag_3:\n      callvalue\n      dup1\n      iszero\n      tag_33\n      jumpi\n      0x00\n      dup1\n      revert\n    tag_33:\n      pop\n      sload(0x0d)\n      sload(0x0e)\n      tag_34\n      swap2\n      swap1\n      dup3\n      jump\n    tag_34:\n      0x40\n      dup1\n      mload\n        /* \"#utility.yul\":12537:12562   */\n      swap3\n      dup4\n      mstore\n        /* \"#utility.yul\":12593:12595   */\n      0x20\n        /* \"#utility.yul\":12578:12596   */\n      dup4\n      add\n        /* \"#utility.yul\":12571:12605   */\n      swap2\n      swap1\n      swap2\n      mstore\n        /* \"#utility.yul\":12510:12528   */\n      add\n        /* \"Ethereum/Presale.sol\":1741:1779  SaleTotalSupply public saleTotalSupply */\n    tag_36:\n      mload(0x40)\n      dup1\n      swap2\n      sub\n      swap1\n      return\n        /* \"Ethereum/Presale.sol\":1786:1812  SaleInfor public saleInfor */\n    tag_4:\n      callvalue\n      dup1\n      iszero\n      tag_38\n      jumpi\n      0x00\n      dup1\n      revert\n    tag_38:\n      pop\n      sload(0x0f)\n      sload(0x10)\n      sload(0x11)\n      sload(0x12)\n      sload(0x13)\n      sload(0x14)\n      sload(0x15)\n      sload(0x16)\n      sload(0x17)\n      sload(0x18)\n      sload(0x19)\n      sload(0x1a)\n      tag_39\n      swap12\n      sub(shl(0xa0, 0x01), 0x01)\n      swap1\n      dup2\n      and\n      swap12\n      dup2\n      and\n      swap11\n      and\n      swap9\n      swap8\n      swap7\n      swap6\n      swap5\n      swap4\n      swap3\n      swap2\n      0xff\n      and\n      swap1\n      dup13\n      jump\n    tag_39:\n      0x40\n      dup1\n      mload\n      sub(shl(0xa0, 0x01), 0x01)\n        /* \"#utility.yul\":4088:4103   */\n      swap14\n      dup15\n      and\n        /* \"#utility.yul\":4070:4104   */\n      dup2\n      mstore\n        /* \"#utility.yul\":4140:4155   */\n      swap12\n      dup14\n      and\n        /* \"#utility.yul\":4135:4137   */\n      0x20\n        /* \"#utility.yul\":4120:4138   */\n      dup14\n      add\n        /* \"#utility.yul\":4113:4156   */\n      mstore\n        /* \"#utility.yul\":4192:4207   */\n      swap10\n      swap1\n      swap12\n      and\n        /* \"#utility.yul\":4172:4190   */\n      swap9\n      dup11\n      add\n        /* \"#utility.yul\":4165:4208   */\n      swap9\n      swap1\n      swap9\n      mstore\n        /* \"#utility.yul\":4239:4241   */\n      0x60\n        /* \"#utility.yul\":4224:4242   */\n      dup10\n      add\n        /* \"#utility.yul\":4217:4251   */\n      swap7\n      swap1\n      swap7\n      mstore\n        /* \"#utility.yul\":4282:4285   */\n      0x80\n        /* \"#utility.yul\":4267:4286   */\n      dup9\n      add\n        /* \"#utility.yul\":4260:4295   */\n      swap5\n      swap1\n      swap5\n      mstore\n        /* \"#utility.yul\":4050:4053   */\n      0xa0\n        /* \"#utility.yul\":4311:4330   */\n      dup8\n      add\n        /* \"#utility.yul\":4304:4339   */\n      swap3\n      swap1\n      swap3\n      mstore\n        /* \"#utility.yul\":4370:4373   */\n      0xc0\n        /* \"#utility.yul\":4355:4374   */\n      dup7\n      add\n        /* \"#utility.yul\":4348:4383   */\n      mstore\n        /* \"#utility.yul\":4414:4417   */\n      0xe0\n        /* \"#utility.yul\":4399:4418   */\n      dup6\n      add\n        /* \"#utility.yul\":4392:4427   */\n      mstore\n        /* \"#utility.yul\":4458:4461   */\n      0x0100\n        /* \"#utility.yul\":4443:4462   */\n      dup5\n      add\n        /* \"#utility.yul\":4436:4471   */\n      mstore\n        /* \"#utility.yul\":4502:4505   */\n      0x0120\n        /* \"#utility.yul\":4487:4506   */\n      dup4\n      add\n        /* \"#utility.yul\":4480:4515   */\n      mstore\n        /* \"#utility.yul\":4559:4574   */\n      iszero\n        /* \"#utility.yul\":4552:4575   */\n      iszero\n        /* \"#utility.yul\":4546:4549   */\n      0x0140\n        /* \"#utility.yul\":4531:4550   */\n      dup3\n      add\n        /* \"#utility.yul\":4524:4576   */\n      mstore\n        /* \"#utility.yul\":4607:4610   */\n      0x0160\n        /* \"#utility.yul\":4592:4611   */\n      dup2\n      add\n        /* \"#utility.yul\":4585:4621   */\n      swap2\n      swap1\n      swap2\n      mstore\n        /* \"#utility.yul\":4019:4022   */\n      0x0180\n        /* \"#utility.yul\":4004:4023   */\n      add\n        /* \"Ethereum/Presale.sol\":1786:1812  SaleInfor public saleInfor */\n      tag_36\n        /* \"#utility.yul\":3986:4627   */\n      jump\n        /* \"Ethereum/Presale.sol\":1891:1914  uint256 public totalFee */\n    tag_5:\n      callvalue\n      dup1\n      iszero\n      tag_43\n      jumpi\n      0x00\n      dup1\n      revert\n    tag_43:\n      pop\n      tag_44\n      sload(0x1e)\n      dup2\n      jump\n    tag_44:\n      mload(0x40)\n        /* \"#utility.yul\":12327:12352   */\n      swap1\n      dup2\n      mstore\n        /* \"#utility.yul\":12315:12317   */\n      0x20\n        /* \"#utility.yul\":12300:12318   */\n      add\n        /* \"Ethereum/Presale.sol\":1891:1914  uint256 public totalFee */\n      tag_36\n        /* \"#utility.yul\":12282:12358   */\n      jump\n        /* \"Ethereum/Presale.sol\":4122:4459  function status() public view returns(uint256) {\r... */\n    tag_6:\n      callvalue\n      dup1\n      iszero\n      tag_48\n      jumpi\n      0x00\n      dup1\n      revert\n    tag_48:\n      pop\n      tag_44\n      tag_50\n      jump\t// in\n        /* \"Ethereum/Presale.sol\":1921:1945  uint256 public feeAnyone */\n    tag_7:\n      callvalue\n      dup1\n      iszero\n      tag_52\n      jumpi\n      0x00\n      dup1\n      revert\n    tag_52:\n      pop\n      tag_44\n      sload(0x1f)\n      dup2\n      jump\n        /* \"Ethereum/Presale.sol\":1651:1693  mapping(address => uint256) public userFee */\n    tag_8:\n      callvalue\n      dup1\n      iszero\n      tag_56\n      jumpi\n      0x00\n      dup1\n      revert\n    tag_56:\n      pop\n      tag_44\n      tag_58\n      calldatasize\n      0x04\n      tag_59\n      jump\t// in\n    tag_58:\n      mstore(0x20, 0x03)\n      0x00\n      swap1\n      dup2\n      mstore\n      0x40\n      swap1\n      keccak256\n      sload\n      dup2\n      jump\n        /* \"Utils/Ownable.sol\":1714:1817  function renounceOwnership() public virtual onlyOwner {\r... */\n    tag_9:\n      callvalue\n      dup1\n      iszero\n      tag_62\n      jumpi\n      0x00\n      dup1\n      revert\n    tag_62:\n      pop\n      tag_29\n      tag_64\n      jump\t// in\n        /* \"Ethereum/Presale.sol\":11750:11858  function backToken() external payable {\r... */\n    tag_10:\n      tag_29\n      tag_66\n      jump\t// in\n        /* \"Utils/Ownable.sol\":1063:1150  function owner() public view virtual returns (address) {\r... */\n    tag_11:\n      callvalue\n      dup1\n      iszero\n      tag_67\n      jumpi\n      0x00\n      dup1\n      revert\n    tag_67:\n      pop\n        /* \"Utils/Ownable.sol\":1136:1142  _owner */\n      and(sub(shl(0xa0, 0x01), 0x01), sload(0x01))\n        /* \"Utils/Ownable.sol\":1063:1150  function owner() public view virtual returns (address) {\r... */\n    tag_68:\n      mload(0x40)\n      sub(shl(0xa0, 0x01), 0x01)\n        /* \"#utility.yul\":3495:3527   */\n      swap1\n      swap2\n      and\n        /* \"#utility.yul\":3477:3528   */\n      dup2\n      mstore\n        /* \"#utility.yul\":3465:3467   */\n      0x20\n        /* \"#utility.yul\":3450:3468   */\n      add\n        /* \"Utils/Ownable.sol\":1063:1150  function owner() public view virtual returns (address) {\r... */\n      tag_36\n        /* \"#utility.yul\":3432:3534   */\n      jump\n        /* \"Ethereum/Presale.sol\":8837:10039  function ownerClaimAndRefundToken() external onlyPresaleOwner nonReentrant{\r... */\n    tag_12:\n      callvalue\n      dup1\n      iszero\n      tag_72\n      jumpi\n      0x00\n      dup1\n      revert\n    tag_72:\n      pop\n      tag_29\n      tag_74\n      jump\t// in\n        /* \"Ethereum/Presale.sol\":7818:8829  function userRefundEmergency() external nonReentrant {\r... */\n    tag_13:\n      callvalue\n      dup1\n      iszero\n      tag_75\n      jumpi\n      0x00\n      dup1\n      revert\n    tag_75:\n      pop\n      tag_29\n      tag_77\n      jump\t// in\n        /* \"Ethereum/Presale.sol\":6806:7810  function userClaimEmergency() external nonReentrant {\r... */\n    tag_14:\n      callvalue\n      dup1\n      iszero\n      tag_78\n      jumpi\n      0x00\n      dup1\n      revert\n    tag_78:\n      pop\n      tag_29\n      tag_80\n      jump\t// in\n        /* \"Ethereum/Presale.sol\":1700:1734  PresaleStatus public presaleStatus */\n    tag_15:\n      callvalue\n      dup1\n      iszero\n      tag_81\n      jumpi\n      0x00\n      dup1\n      revert\n    tag_81:\n      pop\n      sload(0x04)\n      sload(0x05)\n      sload(0x06)\n      sload(0x07)\n      sload(0x08)\n      sload(0x09)\n      sload(0x0a)\n      sload(0x0b)\n      tag_82\n      swap8\n      swap7\n      swap6\n      swap5\n      swap4\n      swap3\n      swap2\n      swap1\n      0xff\n      dup1\n      dup3\n      and\n      swap2\n      0x0100\n      swap1\n      div\n      and\n      dup10\n      jump\n    tag_82:\n      0x40\n      dup1\n      mload\n        /* \"#utility.yul\":13443:13468   */\n      swap10\n      dup11\n      mstore\n        /* \"#utility.yul\":13499:13501   */\n      0x20\n        /* \"#utility.yul\":13484:13502   */\n      dup11\n      add\n        /* \"#utility.yul\":13477:13511   */\n      swap9\n      swap1\n      swap9\n      mstore\n        /* \"#utility.yul\":13527:13545   */\n      swap7\n      dup9\n      add\n        /* \"#utility.yul\":13520:13554   */\n      swap6\n      swap1\n      swap6\n      mstore\n        /* \"#utility.yul\":13585:13587   */\n      0x60\n        /* \"#utility.yul\":13570:13588   */\n      dup8\n      add\n        /* \"#utility.yul\":13563:13597   */\n      swap4\n      swap1\n      swap4\n      mstore\n        /* \"#utility.yul\":13628:13631   */\n      0x80\n        /* \"#utility.yul\":13613:13632   */\n      dup7\n      add\n        /* \"#utility.yul\":13606:13641   */\n      swap2\n      swap1\n      swap2\n      mstore\n        /* \"#utility.yul\":13672:13675   */\n      0xa0\n        /* \"#utility.yul\":13657:13676   */\n      dup6\n      add\n        /* \"#utility.yul\":13650:13685   */\n      mstore\n        /* \"#utility.yul\":13716:13719   */\n      0xc0\n        /* \"#utility.yul\":13701:13720   */\n      dup5\n      add\n        /* \"#utility.yul\":13694:13729   */\n      mstore\n        /* \"#utility.yul\":13773:13787   */\n      iszero\n        /* \"#utility.yul\":13766:13788   */\n      iszero\n        /* \"#utility.yul\":13760:13763   */\n      0xe0\n        /* \"#utility.yul\":13745:13764   */\n      dup4\n      add\n        /* \"#utility.yul\":13738:13789   */\n      mstore\n        /* \"#utility.yul\":13833:13847   */\n      iszero\n        /* \"#utility.yul\":13826:13848   */\n      iszero\n        /* \"#utility.yul\":13820:13823   */\n      0x0100\n        /* \"#utility.yul\":13805:13824   */\n      dup3\n      add\n        /* \"#utility.yul\":13798:13849   */\n      mstore\n        /* \"#utility.yul\":13430:13433   */\n      0x0120\n        /* \"#utility.yul\":13415:13434   */\n      add\n        /* \"Ethereum/Presale.sol\":1700:1734  PresaleStatus public presaleStatus */\n      tag_36\n        /* \"#utility.yul\":13397:13855   */\n      jump\n        /* \"Ethereum/Presale.sol\":1819:1837  IERC20 public WETH */\n    tag_16:\n      callvalue\n      dup1\n      iszero\n      tag_86\n      jumpi\n      0x00\n      dup1\n      revert\n    tag_86:\n      pop\n      sload(0x1b)\n      tag_68\n      swap1\n      sub(shl(0xa0, 0x01), 0x01)\n      and\n      dup2\n      jump\n        /* \"Ethereum/Presale.sol\":1952:1982  address public adminReceiveFee */\n    tag_17:\n      callvalue\n      dup1\n      iszero\n      tag_91\n      jumpi\n      0x00\n      dup1\n      revert\n    tag_91:\n      pop\n      sload(0x20)\n      tag_68\n      swap1\n      sub(shl(0xa0, 0x01), 0x01)\n      and\n      dup2\n      jump\n        /* \"Ethereum/Presale.sol\":4586:6798  function deposit(uint256 _amount) external payable nonReentrant {\r... */\n    tag_18:\n      tag_29\n      tag_96\n      calldatasize\n      0x04\n      tag_97\n      jump\t// in\n    tag_96:\n      tag_98\n      jump\t// in\n        /* \"Ethereum/Presale.sol\":4468:4578  function checkAdminAddress() public view returns(bool) {\r... */\n    tag_19:\n      callvalue\n      dup1\n      iszero\n      tag_99\n      jumpi\n      0x00\n      dup1\n      revert\n    tag_99:\n      pop\n      tag_100\n      tag_101\n      jump\t// in\n    tag_100:\n      mload(0x40)\n        /* \"#utility.yul\":5743:5757   */\n      swap1\n      iszero\n        /* \"#utility.yul\":5736:5758   */\n      iszero\n        /* \"#utility.yul\":5718:5759   */\n      dup2\n      mstore\n        /* \"#utility.yul\":5706:5708   */\n      0x20\n        /* \"#utility.yul\":5691:5709   */\n      add\n        /* \"Ethereum/Presale.sol\":4468:4578  function checkAdminAddress() public view returns(bool) {\r... */\n      tag_36\n        /* \"#utility.yul\":5673:5765   */\n      jump\n        /* \"Ethereum/Presale.sol\":1990:2018  uint256 public feeCreateSale */\n    tag_20:\n      callvalue\n      dup1\n      iszero\n      tag_104\n      jumpi\n      0x00\n      dup1\n      revert\n    tag_104:\n      pop\n      tag_44\n      sload(0x21)\n      dup2\n      jump\n        /* \"Ethereum/Presale.sol\":1598:1644  mapping(address => BuyerInfo) public buyerInfo */\n    tag_21:\n      callvalue\n      dup1\n      iszero\n      tag_108\n      jumpi\n      0x00\n      dup1\n      revert\n    tag_108:\n      pop\n      tag_109\n      tag_110\n      calldatasize\n      0x04\n      tag_59\n      jump\t// in\n    tag_110:\n      0x02\n      0x20\n      dup2\n      swap1\n      mstore\n      0x00\n      swap2\n      dup3\n      mstore\n      0x40\n      swap1\n      swap2\n      keccak256\n      dup1\n      sload\n      0x01\n      dup3\n      add\n      sload\n      swap3\n      dup3\n      add\n      sload\n      0x03\n      dup4\n      add\n      sload\n      0x04\n      swap1\n      swap4\n      add\n      sload\n      swap2\n      swap4\n      swap3\n      swap1\n      swap2\n      dup6\n      jump\n    tag_109:\n      0x40\n      dup1\n      mload\n        /* \"#utility.yul\":12875:12900   */\n      swap6\n      dup7\n      mstore\n        /* \"#utility.yul\":12931:12933   */\n      0x20\n        /* \"#utility.yul\":12916:12934   */\n      dup7\n      add\n        /* \"#utility.yul\":12909:12943   */\n      swap5\n      swap1\n      swap5\n      mstore\n        /* \"#utility.yul\":12959:12977   */\n      swap3\n      dup5\n      add\n        /* \"#utility.yul\":12952:12986   */\n      swap2\n      swap1\n      swap2\n      mstore\n        /* \"#utility.yul\":13017:13019   */\n      0x60\n        /* \"#utility.yul\":13002:13020   */\n      dup4\n      add\n        /* \"#utility.yul\":12995:13029   */\n      mstore\n        /* \"#utility.yul\":13060:13063   */\n      0x80\n        /* \"#utility.yul\":13045:13064   */\n      dup3\n      add\n        /* \"#utility.yul\":13038:13073   */\n      mstore\n        /* \"#utility.yul\":12862:12865   */\n      0xa0\n        /* \"#utility.yul\":12847:12866   */\n      add\n        /* \"Ethereum/Presale.sol\":1598:1644  mapping(address => BuyerInfo) public buyerInfo */\n      tag_36\n        /* \"#utility.yul\":12829:13079   */\n      jump\n        /* \"Ethereum/Presale.sol\":10047:11620  function userClaimOrRefundWhenSaleSuccess(bool isClaim) external {\r... */\n    tag_22:\n      callvalue\n      dup1\n      iszero\n      tag_114\n      jumpi\n      0x00\n      dup1\n      revert\n    tag_114:\n      pop\n      tag_29\n      tag_116\n      calldatasize\n      0x04\n      tag_117\n      jump\t// in\n    tag_116:\n      tag_118\n      jump\t// in\n        /* \"Utils/Ownable.sol\":1972:2173  function transferOwnership(address newOwner) public virtual onlyOwner {\r... */\n    tag_23:\n      callvalue\n      dup1\n      iszero\n      tag_119\n      jumpi\n      0x00\n      dup1\n      revert\n    tag_119:\n      pop\n      tag_29\n      tag_121\n      calldatasize\n      0x04\n      tag_59\n      jump\t// in\n    tag_121:\n      tag_122\n      jump\t// in\n        /* \"Ethereum/Presale.sol\":11628:11739  function getBalance(address _address) external view returns(uint256) {\r... */\n    tag_24:\n      callvalue\n      dup1\n      iszero\n      tag_123\n      jumpi\n      0x00\n      dup1\n      revert\n    tag_123:\n      pop\n      tag_44\n      tag_125\n      calldatasize\n      0x04\n      tag_59\n      jump\t// in\n    tag_125:\n      sub(shl(0xa0, 0x01), 0x01)\n        /* \"Ethereum/Presale.sol\":11715:11731  _address.balance */\n      and\n      balance\n      swap1\n        /* \"Ethereum/Presale.sol\":11628:11739  function getBalance(address _address) external view returns(uint256) {\r... */\n      jump\n        /* \"Ethereum/Presale.sol\":2640:4113  function initialSaleInfor(\r... */\n    tag_32:\n        /* \"Ethereum/Presale.sol\":2981:2990  saleInfor */\n      0x0f\n        /* \"Ethereum/Presale.sol\":2981:3019  saleInfor.presaleOwner = _presaleOwner */\n      dup1\n      sload\n      sub(shl(0xa0, 0x01), 0x01)\n      dup1\n      dup13\n      and\n      not(sub(shl(0xa0, 0x01), 0x01))\n      swap3\n      dup4\n      and\n      or\n      swap1\n      swap3\n      sstore\n        /* \"Ethereum/Presale.sol\":3030:3049  saleInfor.saleToken */\n      0x10\n        /* \"Ethereum/Presale.sol\":3030:3062  saleInfor.saleToken = _saleToken */\n      dup1\n      sload\n      dup12\n      dup5\n      and\n      swap1\n      dup4\n      and\n      dup2\n      or\n      swap1\n      swap2\n      sstore\n        /* \"Ethereum/Presale.sol\":3073:3092  saleInfor.baseToken */\n      0x11\n        /* \"Ethereum/Presale.sol\":3073:3105  saleInfor.baseToken = _baseTOken */\n      dup1\n      sload\n      swap4\n      dup12\n      and\n      swap4\n      swap1\n      swap3\n      and\n      swap3\n      swap1\n      swap3\n      or\n      swap1\n      sstore\n        /* \"Ethereum/Presale.sol\":3163:3200  ERC20(saleInfor.saleToken).decimals() */\n      0x40\n      dup1\n      mload\n      shl(0xe0, 0x313ce567)\n      dup2\n      mstore\n      swap1\n      mload\n        /* \"Ethereum/Presale.sol\":3163:3198  ERC20(saleInfor.saleToken).decimals */\n      0x313ce567\n      swap2\n        /* \"Ethereum/Presale.sol\":3163:3200  ERC20(saleInfor.saleToken).decimals() */\n      0x04\n      dup1\n      dup3\n      add\n      swap3\n      0x20\n      swap3\n      swap1\n      swap2\n      swap1\n      dup3\n      swap1\n      sub\n      add\n      dup2\n        /* \"Ethereum/Presale.sol\":3030:3062  saleInfor.saleToken = _saleToken */\n      dup7\n        /* \"Ethereum/Presale.sol\":3163:3200  ERC20(saleInfor.saleToken).decimals() */\n      dup1\n      extcodesize\n      iszero\n      dup1\n      iszero\n      tag_130\n      jumpi\n      0x00\n      dup1\n      revert\n    tag_130:\n      pop\n      gas\n      staticcall\n      iszero\n      dup1\n      iszero\n      tag_132\n      jumpi\n      returndatasize\n      0x00\n      dup1\n      returndatacopy\n      revert(0x00, returndatasize)\n    tag_132:\n      pop\n      pop\n      pop\n      pop\n      mload(0x40)\n      returndatasize\n      not(0x1f)\n      0x1f\n      dup3\n      add\n      and\n      dup3\n      add\n      dup1\n      0x40\n      mstore\n      pop\n      dup2\n      add\n      swap1\n      tag_133\n      swap2\n      swap1\n      tag_134\n      jump\t// in\n    tag_133:\n        /* \"Ethereum/Presale.sol\":3150:3201  10** uint256(ERC20(saleInfor.saleToken).decimals()) */\n      tag_135\n      swap1\n        /* \"Ethereum/Presale.sol\":3150:3152  10 */\n      0x0a\n        /* \"Ethereum/Presale.sol\":3150:3201  10** uint256(ERC20(saleInfor.saleToken).decimals()) */\n      tag_136\n      jump\t// in\n    tag_135:\n        /* \"Ethereum/Presale.sol\":3139:3147  datas[0] */\n      dup7\n      mload\n        /* \"Ethereum/Presale.sol\":3139:3201  datas[0] * 10** uint256(ERC20(saleInfor.saleToken).decimals()) */\n      tag_140\n      swap2\n      swap1\n      tag_141\n      jump\t// in\n    tag_140:\n        /* \"Ethereum/Presale.sol\":3116:3136  saleInfor.tokenPrice */\n      0x12\n        /* \"Ethereum/Presale.sol\":3116:3201  saleInfor.tokenPrice = datas[0] * 10** uint256(ERC20(saleInfor.saleToken).decimals()) */\n      sstore\n        /* \"Ethereum/Presale.sol\":3234:3242  datas[1] */\n      0x20\n      dup1\n      dup8\n      add\n      mload\n        /* \"Ethereum/Presale.sol\":3212:3231  saleInfor.startSale */\n      0x13\n        /* \"Ethereum/Presale.sol\":3212:3242  saleInfor.startSale = datas[1] */\n      sstore\n        /* \"Ethereum/Presale.sol\":3273:3281  datas[2] */\n      0x40\n      dup1\n      dup9\n      add\n      mload\n        /* \"Ethereum/Presale.sol\":3253:3270  saleInfor.endSale */\n      0x14\n        /* \"Ethereum/Presale.sol\":3253:3281  saleInfor.endSale = datas[2] */\n      sstore\n        /* \"Ethereum/Presale.sol\":3321:3329  datas[3] */\n      0x60\n      dup9\n      add\n      mload\n        /* \"Ethereum/Presale.sol\":3292:3318  saleInfor.minSpendPerBuyer */\n      0x15\n        /* \"Ethereum/Presale.sol\":3292:3329  saleInfor.minSpendPerBuyer = datas[3] */\n      sstore\n        /* \"Ethereum/Presale.sol\":3400:3419  saleInfor.baseToken */\n      sload(0x11)\n        /* \"Ethereum/Presale.sol\":3394:3431  ERC20(saleInfor.baseToken).decimals() */\n      dup2\n      mload\n      shl(0xe0, 0x313ce567)\n      dup2\n      mstore\n      swap2\n      mload\n      sub(shl(0xa0, 0x01), 0x01)\n        /* \"Ethereum/Presale.sol\":3400:3419  saleInfor.baseToken */\n      swap1\n      swap2\n      and\n      swap3\n        /* \"Ethereum/Presale.sol\":3394:3429  ERC20(saleInfor.baseToken).decimals */\n      0x313ce567\n      swap3\n        /* \"Ethereum/Presale.sol\":3394:3431  ERC20(saleInfor.baseToken).decimals() */\n      0x04\n      dup1\n      dup3\n      add\n      swap4\n      swap2\n      dup3\n      swap1\n      sub\n      add\n      dup2\n        /* \"Ethereum/Presale.sol\":3400:3419  saleInfor.baseToken */\n      dup7\n        /* \"Ethereum/Presale.sol\":3394:3431  ERC20(saleInfor.baseToken).decimals() */\n      dup1\n      extcodesize\n      iszero\n      dup1\n      iszero\n      tag_148\n      jumpi\n      0x00\n      dup1\n      revert\n    tag_148:\n      pop\n      gas\n      staticcall\n      iszero\n      dup1\n      iszero\n      tag_150\n      jumpi\n      returndatasize\n      0x00\n      dup1\n      returndatacopy\n      revert(0x00, returndatasize)\n    tag_150:\n      pop\n      pop\n      pop\n      pop\n      mload(0x40)\n      returndatasize\n      not(0x1f)\n      0x1f\n      dup3\n      add\n      and\n      dup3\n      add\n      dup1\n      0x40\n      mstore\n      pop\n      dup2\n      add\n      swap1\n      tag_151\n      swap2\n      swap1\n      tag_134\n      jump\t// in\n    tag_151:\n        /* \"Ethereum/Presale.sol\":3380:3432  10 ** uint256(ERC20(saleInfor.baseToken).decimals()) */\n      tag_152\n      swap1\n        /* \"Ethereum/Presale.sol\":3380:3382  10 */\n      0x0a\n        /* \"Ethereum/Presale.sol\":3380:3432  10 ** uint256(ERC20(saleInfor.baseToken).decimals()) */\n      tag_136\n      jump\t// in\n    tag_152:\n        /* \"Ethereum/Presale.sol\":3369:3377  datas[4] */\n      0x80\n      dup8\n      add\n      mload\n        /* \"Ethereum/Presale.sol\":3369:3432  datas[4] * 10 ** uint256(ERC20(saleInfor.baseToken).decimals()) */\n      tag_155\n      swap2\n      swap1\n      tag_141\n      jump\t// in\n    tag_155:\n        /* \"Ethereum/Presale.sol\":3340:3366  saleInfor.maxSpendPerBuyer */\n      0x16\n        /* \"Ethereum/Presale.sol\":3340:3432  saleInfor.maxSpendPerBuyer = datas[4] * 10 ** uint256(ERC20(saleInfor.baseToken).decimals()) */\n      sstore\n        /* \"Ethereum/Presale.sol\":3500:3519  saleInfor.baseToken */\n      sload(0x11)\n        /* \"Ethereum/Presale.sol\":3494:3531  ERC20(saleInfor.baseToken).decimals() */\n      0x40\n      dup1\n      mload\n      shl(0xe0, 0x313ce567)\n      dup2\n      mstore\n      swap1\n      mload\n      sub(shl(0xa0, 0x01), 0x01)\n        /* \"Ethereum/Presale.sol\":3500:3519  saleInfor.baseToken */\n      swap1\n      swap3\n      and\n      swap2\n        /* \"Ethereum/Presale.sol\":3494:3529  ERC20(saleInfor.baseToken).decimals */\n      0x313ce567\n      swap2\n        /* \"Ethereum/Presale.sol\":3494:3531  ERC20(saleInfor.baseToken).decimals() */\n      0x04\n      dup1\n      dup3\n      add\n      swap3\n      0x20\n      swap3\n      swap1\n      swap2\n      swap1\n      dup3\n      swap1\n      sub\n      add\n      dup2\n        /* \"Ethereum/Presale.sol\":3500:3519  saleInfor.baseToken */\n      dup7\n        /* \"Ethereum/Presale.sol\":3494:3531  ERC20(saleInfor.baseToken).decimals() */\n      dup1\n      extcodesize\n      iszero\n      dup1\n      iszero\n      tag_156\n      jumpi\n      0x00\n      dup1\n      revert\n    tag_156:\n      pop\n      gas\n      staticcall\n      iszero\n      dup1\n      iszero\n      tag_158\n      jumpi\n      returndatasize\n      0x00\n      dup1\n      returndatacopy\n      revert(0x00, returndatasize)\n    tag_158:\n      pop\n      pop\n      pop\n      pop\n      mload(0x40)\n      returndatasize\n      not(0x1f)\n      0x1f\n      dup3\n      add\n      and\n      dup3\n      add\n      dup1\n      0x40\n      mstore\n      pop\n      dup2\n      add\n      swap1\n      tag_159\n      swap2\n      swap1\n      tag_134\n      jump\t// in\n    tag_159:\n        /* \"Ethereum/Presale.sol\":3480:3532  10 ** uint256(ERC20(saleInfor.baseToken).decimals()) */\n      tag_160\n      swap1\n        /* \"Ethereum/Presale.sol\":3480:3482  10 */\n      0x0a\n        /* \"Ethereum/Presale.sol\":3480:3532  10 ** uint256(ERC20(saleInfor.baseToken).decimals()) */\n      tag_136\n      jump\t// in\n    tag_160:\n        /* \"Ethereum/Presale.sol\":3469:3477  datas[5] */\n      0xa0\n      dup8\n      add\n      mload\n        /* \"Ethereum/Presale.sol\":3469:3532  datas[5] * 10 ** uint256(ERC20(saleInfor.baseToken).decimals()) */\n      tag_163\n      swap2\n      swap1\n      tag_141\n      jump\t// in\n    tag_163:\n        /* \"Ethereum/Presale.sol\":3443:3458  saleTotalSupply */\n      0x0d\n        /* \"Ethereum/Presale.sol\":3443:3532  saleTotalSupply.hardCap = datas[5] * 10 ** uint256(ERC20(saleInfor.baseToken).decimals()) */\n      sstore\n        /* \"Ethereum/Presale.sol\":3599:3618  saleInfor.baseToken */\n      sload(0x11)\n        /* \"Ethereum/Presale.sol\":3593:3630  ERC20(saleInfor.baseToken).decimals() */\n      0x40\n      dup1\n      mload\n      shl(0xe0, 0x313ce567)\n      dup2\n      mstore\n      swap1\n      mload\n      sub(shl(0xa0, 0x01), 0x01)\n        /* \"Ethereum/Presale.sol\":3599:3618  saleInfor.baseToken */\n      swap1\n      swap3\n      and\n      swap2\n        /* \"Ethereum/Presale.sol\":3593:3628  ERC20(saleInfor.baseToken).decimals */\n      0x313ce567\n      swap2\n        /* \"Ethereum/Presale.sol\":3593:3630  ERC20(saleInfor.baseToken).decimals() */\n      0x04\n      dup1\n      dup3\n      add\n      swap3\n      0x20\n      swap3\n      swap1\n      swap2\n      swap1\n      dup3\n      swap1\n      sub\n      add\n      dup2\n        /* \"Ethereum/Presale.sol\":3599:3618  saleInfor.baseToken */\n      dup7\n        /* \"Ethereum/Presale.sol\":3593:3630  ERC20(saleInfor.baseToken).decimals() */\n      dup1\n      extcodesize\n      iszero\n      dup1\n      iszero\n      tag_164\n      jumpi\n      0x00\n      dup1\n      revert\n    tag_164:\n      pop\n      gas\n      staticcall\n      iszero\n      dup1\n      iszero\n      tag_166\n      jumpi\n      returndatasize\n      0x00\n      dup1\n      returndatacopy\n      revert(0x00, returndatasize)\n    tag_166:\n      pop\n      pop\n      pop\n      pop\n      mload(0x40)\n      returndatasize\n      not(0x1f)\n      0x1f\n      dup3\n      add\n      and\n      dup3\n      add\n      dup1\n      0x40\n      mstore\n      pop\n      dup2\n      add\n      swap1\n      tag_167\n      swap2\n      swap1\n      tag_134\n      jump\t// in\n    tag_167:\n        /* \"Ethereum/Presale.sol\":3580:3631  10** uint256(ERC20(saleInfor.baseToken).decimals()) */\n      tag_168\n      swap1\n        /* \"Ethereum/Presale.sol\":3580:3582  10 */\n      0x0a\n        /* \"Ethereum/Presale.sol\":3580:3631  10** uint256(ERC20(saleInfor.baseToken).decimals()) */\n      tag_136\n      jump\t// in\n    tag_168:\n        /* \"Ethereum/Presale.sol\":3569:3577  datas[6] */\n      0xc0\n      dup8\n      add\n      mload\n        /* \"Ethereum/Presale.sol\":3569:3631  datas[6] * 10** uint256(ERC20(saleInfor.baseToken).decimals()) */\n      tag_171\n      swap2\n      swap1\n      tag_141\n      jump\t// in\n    tag_171:\n        /* \"Ethereum/Presale.sol\":3543:3566  saleTotalSupply.softCap */\n      0x0e\n        /* \"Ethereum/Presale.sol\":3543:3631  saleTotalSupply.softCap = datas[6] * 10** uint256(ERC20(saleInfor.baseToken).decimals()) */\n      sstore\n        /* \"Ethereum/Presale.sol\":3695:3714  saleInfor.baseToken */\n      sload(0x11)\n        /* \"Ethereum/Presale.sol\":3678:3682  WETH */\n      sload(0x1b)\n        /* \"Ethereum/Presale.sol\":3642:3667  saleInfor.saleIsBaseToken */\n      0x19\n        /* \"Ethereum/Presale.sol\":3642:3715  saleInfor.saleIsBaseToken = address(WETH) == address(saleInfor.baseToken) */\n      dup1\n      sload\n      not(0xff)\n      and\n      sub(shl(0xa0, 0x01), 0x01)\n        /* \"Ethereum/Presale.sol\":3678:3682  WETH */\n      swap3\n      dup4\n      and\n        /* \"Ethereum/Presale.sol\":3695:3714  saleInfor.baseToken */\n      swap3\n      swap1\n      swap4\n      and\n        /* \"Ethereum/Presale.sol\":3670:3715  address(WETH) == address(saleInfor.baseToken) */\n      swap2\n      dup3\n      eq\n        /* \"Ethereum/Presale.sol\":3642:3715  saleInfor.saleIsBaseToken = address(WETH) == address(saleInfor.baseToken) */\n      swap3\n      swap1\n      swap3\n      or\n      swap1\n      swap2\n      sstore\n        /* \"Ethereum/Presale.sol\":3862:3899  ERC20(saleInfor.baseToken).decimals() */\n      0x40\n      dup1\n      mload\n      shl(0xe0, 0x313ce567)\n      dup2\n      mstore\n      swap1\n      mload\n        /* \"Ethereum/Presale.sol\":3862:3897  ERC20(saleInfor.baseToken).decimals */\n      0x313ce567\n      swap2\n        /* \"Ethereum/Presale.sol\":3862:3899  ERC20(saleInfor.baseToken).decimals() */\n      0x04\n      dup1\n      dup3\n      add\n      swap3\n      0x20\n      swap3\n      swap1\n      swap2\n      swap1\n      dup3\n      swap1\n      sub\n      add\n      dup2\n        /* \"Ethereum/Presale.sol\":3695:3714  saleInfor.baseToken */\n      dup7\n        /* \"Ethereum/Presale.sol\":3862:3899  ERC20(saleInfor.baseToken).decimals() */\n      dup1\n      extcodesize\n      iszero\n      dup1\n      iszero\n      tag_172\n      jumpi\n      0x00\n      dup1\n      revert\n    tag_172:\n      pop\n      gas\n      staticcall\n      iszero\n      dup1\n      iszero\n      tag_174\n      jumpi\n      returndatasize\n      0x00\n      dup1\n      returndatacopy\n      revert(0x00, returndatasize)\n    tag_174:\n      pop\n      pop\n      pop\n      pop\n      mload(0x40)\n      returndatasize\n      not(0x1f)\n      0x1f\n      dup3\n      add\n      and\n      dup3\n      add\n      dup1\n      0x40\n      mstore\n      pop\n      dup2\n      add\n      swap1\n      tag_175\n      swap2\n      swap1\n      tag_134\n      jump\t// in\n    tag_175:\n        /* \"Ethereum/Presale.sol\":3849:3900  10** uint256(ERC20(saleInfor.baseToken).decimals()) */\n      tag_176\n      swap1\n        /* \"Ethereum/Presale.sol\":3849:3851  10 */\n      0x0a\n        /* \"Ethereum/Presale.sol\":3849:3900  10** uint256(ERC20(saleInfor.baseToken).decimals()) */\n      tag_136\n      jump\t// in\n    tag_176:\n        /* \"Ethereum/Presale.sol\":3782:3797  saleTotalSupply */\n      0x0d\n        /* \"Ethereum/Presale.sol\":3782:3805  saleTotalSupply.hardCap */\n      sload\n        /* \"Ethereum/Presale.sol\":3757:3777  saleInfor.tokenPrice */\n      sload(0x12)\n        /* \"Ethereum/Presale.sol\":3757:3806  saleInfor.tokenPrice.mul(saleTotalSupply.hardCap) */\n      tag_177\n      swap2\n        /* \"Ethereum/Presale.sol\":3757:3781  saleInfor.tokenPrice.mul */\n      tag_178\n        /* \"Ethereum/Presale.sol\":3757:3806  saleInfor.tokenPrice.mul(saleTotalSupply.hardCap) */\n      jump\t// in\n    tag_177:\n        /* \"Ethereum/Presale.sol\":3757:3901  saleInfor.tokenPrice.mul(saleTotalSupply.hardCap)/\r... */\n      tag_179\n      swap2\n      swap1\n      tag_180\n      jump\t// in\n    tag_179:\n        /* \"Ethereum/Presale.sol\":3726:3754  saleInfor.amountTokenForSale */\n      0x1a\n        /* \"Ethereum/Presale.sol\":3726:3901  saleInfor.amountTokenForSale = saleInfor.tokenPrice.mul(saleTotalSupply.hardCap)/\r... */\n      sstore\n        /* \"Ethereum/Presale.sol\":3936:3944  datas[5] */\n      0xa0\n      dup7\n      add\n      mload\n        /* \"Ethereum/Presale.sol\":3914:3933  saleInfor.refundFee */\n      0x17\n        /* \"Ethereum/Presale.sol\":3914:3944  saleInfor.refundFee = datas[5] */\n      sstore\n        /* \"Ethereum/Presale.sol\":3976:3984  datas[6] */\n      0xc0\n      swap1\n      swap6\n      add\n      mload\n        /* \"Ethereum/Presale.sol\":3955:3973  saleInfor.claimFee */\n      0x18\n        /* \"Ethereum/Presale.sol\":3955:3984  saleInfor.claimFee = datas[6] */\n      sstore\n        /* \"Ethereum/Presale.sol\":3995:4004  feeAnyone */\n      0x1f\n        /* \"Ethereum/Presale.sol\":3995:4017  feeAnyone = _feeAnyone */\n      swap2\n      swap1\n      swap2\n      sstore\n        /* \"Ethereum/Presale.sol\":3936:3944  datas[5] */\n      0x20\n        /* \"Ethereum/Presale.sol\":4028:4062  adminReceiveFee = _adminReceiveFee */\n      dup1\n      sload\n      not(sub(shl(0xa0, 0x01), 0x01))\n      and\n      sub(shl(0xa0, 0x01), 0x01)\n      swap1\n      swap3\n      and\n      swap2\n      swap1\n      swap2\n      or\n      swap1\n      sstore\n      pop\n      pop\n        /* \"Ethereum/Presale.sol\":4073:4086  feeCreateSale */\n      0x21\n        /* \"Ethereum/Presale.sol\":4073:4103  feeCreateSale = _feeCreateSale */\n      sstore\n      pop\n      pop\n      pop\n        /* \"Ethereum/Presale.sol\":2640:4113  function initialSaleInfor(\r... */\n      jump\t// out\n        /* \"Ethereum/Presale.sol\":4122:4459  function status() public view returns(uint256) {\r... */\n    tag_50:\n        /* \"Ethereum/Presale.sol\":4201:4220  saleInfor.startSale */\n      sload(0x13)\n        /* \"Ethereum/Presale.sol\":4160:4167  uint256 */\n      0x00\n      swap1\n        /* \"Ethereum/Presale.sol\":4183:4198  block.timestamp */\n      timestamp\n        /* \"Ethereum/Presale.sol\":4183:4220  block.timestamp < saleInfor.startSale */\n      lt\n        /* \"Ethereum/Presale.sol\":4180:4452  if(block.timestamp < saleInfor.startSale) {\r... */\n      iszero\n      tag_186\n      jumpi\n      pop\n        /* \"Ethereum/Presale.sol\":4244:4245  0 */\n      0x00\n      swap1\n        /* \"Ethereum/Presale.sol\":4122:4459  function status() public view returns(uint256) {\r... */\n      jump\t// out\n        /* \"Ethereum/Presale.sol\":4180:4452  if(block.timestamp < saleInfor.startSale) {\r... */\n    tag_186:\n        /* \"Ethereum/Presale.sol\":4311:4328  saleInfor.endSale */\n      sload(0x14)\n        /* \"Ethereum/Presale.sol\":4293:4308  block.timestamp */\n      timestamp\n        /* \"Ethereum/Presale.sol\":4293:4328  block.timestamp > saleInfor.endSale */\n      gt\n        /* \"Ethereum/Presale.sol\":4290:4441  if(block.timestamp > saleInfor.endSale) {\r... */\n      iszero\n      tag_188\n      jumpi\n      pop\n        /* \"Ethereum/Presale.sol\":4356:4357  2 */\n      0x02\n      swap1\n        /* \"Ethereum/Presale.sol\":4122:4459  function status() public view returns(uint256) {\r... */\n      jump\t// out\n        /* \"Ethereum/Presale.sol\":4290:4441  if(block.timestamp > saleInfor.endSale) {\r... */\n    tag_188:\n      pop\n        /* \"Ethereum/Presale.sol\":4414:4415  1 */\n      0x01\n      swap1\n        /* \"Ethereum/Presale.sol\":4122:4459  function status() public view returns(uint256) {\r... */\n      jump\t// out\n        /* \"Utils/Ownable.sol\":1714:1817  function renounceOwnership() public virtual onlyOwner {\r... */\n    tag_64:\n        /* \"Utils/Ownable.sol\":1136:1142  _owner */\n      and(sub(shl(0xa0, 0x01), 0x01), sload(0x01))\n        /* \"Utils/Context.sol\":736:746  msg.sender */\n      caller\n        /* \"Utils/Ownable.sol\":1283:1306  owner() == _msgSender() */\n      eq\n        /* \"Utils/Ownable.sol\":1275:1343  require(owner() == _msgSender(), \"Ownable: caller is not the owner\") */\n      tag_194\n      jumpi\n      mload(0x40)\n      shl(0xe5, 0x461bcd)\n      dup2\n      mstore\n        /* \"#utility.yul\":10212:10214   */\n      0x20\n        /* \"Utils/Ownable.sol\":1275:1343  require(owner() == _msgSender(), \"Ownable: caller is not the owner\") */\n      0x04\n      dup3\n      add\n        /* \"#utility.yul\":10194:10215   */\n      dup2\n      swap1\n      mstore\n        /* \"#utility.yul\":10231:10249   */\n      0x24\n      dup3\n      add\n        /* \"#utility.yul\":10224:10254   */\n      mstore\n        /* \"#utility.yul\":10290:10324   */\n      0x4f776e61626c653a2063616c6c6572206973206e6f7420746865206f776e6572\n        /* \"#utility.yul\":10270:10288   */\n      0x44\n      dup3\n      add\n        /* \"#utility.yul\":10263:10325   */\n      mstore\n        /* \"#utility.yul\":10342:10360   */\n      0x64\n      add\n        /* \"Utils/Ownable.sol\":1275:1343  require(owner() == _msgSender(), \"Ownable: caller is not the owner\") */\n    tag_195:\n      mload(0x40)\n      dup1\n      swap2\n      sub\n      swap1\n      revert\n    tag_194:\n        /* \"Utils/Ownable.sol\":1779:1809  _transferOwnership(address(0)) */\n      tag_198\n        /* \"Utils/Ownable.sol\":1806:1807  0 */\n      0x00\n        /* \"Utils/Ownable.sol\":1779:1797  _transferOwnership */\n      tag_199\n        /* \"Utils/Ownable.sol\":1779:1809  _transferOwnership(address(0)) */\n      jump\t// in\n    tag_198:\n        /* \"Utils/Ownable.sol\":1714:1817  function renounceOwnership() public virtual onlyOwner {\r... */\n      jump\t// out\n        /* \"Ethereum/Presale.sol\":11750:11858  function backToken() external payable {\r... */\n    tag_66:\n        /* \"Ethereum/Presale.sol\":11799:11850  payable(msg.sender).transfer(address(this).balance) */\n      mload(0x40)\n        /* \"Ethereum/Presale.sol\":11807:11817  msg.sender */\n      caller\n      swap1\n        /* \"Ethereum/Presale.sol\":11828:11849  address(this).balance */\n      selfbalance\n        /* \"Ethereum/Presale.sol\":11799:11850  payable(msg.sender).transfer(address(this).balance) */\n      dup1\n      iszero\n      0x08fc\n      mul\n      swap2\n      0x00\n      dup2\n      dup2\n      dup2\n        /* \"Ethereum/Presale.sol\":11828:11849  address(this).balance */\n      dup6\n        /* \"Ethereum/Presale.sol\":11807:11817  msg.sender */\n      dup9\n        /* \"Ethereum/Presale.sol\":11799:11850  payable(msg.sender).transfer(address(this).balance) */\n      dup9\n      call\n      swap4\n      pop\n      pop\n      pop\n      pop\n      iszero\n      dup1\n      iszero\n      tag_202\n      jumpi\n      returndatasize\n      0x00\n      dup1\n      returndatacopy\n      revert(0x00, returndatasize)\n    tag_202:\n      pop\n        /* \"Ethereum/Presale.sol\":11750:11858  function backToken() external payable {\r... */\n      jump\t// out\n        /* \"Ethereum/Presale.sol\":8837:10039  function ownerClaimAndRefundToken() external onlyPresaleOwner nonReentrant{\r... */\n    tag_74:\n        /* \"Ethereum/Presale.sol\":2203:2212  saleInfor */\n      0x0f\n        /* \"Ethereum/Presale.sol\":2203:2225  saleInfor.presaleOwner */\n      sload\n      sub(shl(0xa0, 0x01), 0x01)\n      and\n        /* \"Utils/Context.sol\":736:746  msg.sender */\n      caller\n      sub(shl(0xa0, 0x01), 0x01)\n        /* \"Ethereum/Presale.sol\":2187:2225  _msgSender() == saleInfor.presaleOwner */\n      and\n      eq\n        /* \"Ethereum/Presale.sol\":2179:2248  require(_msgSender() == saleInfor.presaleOwner, \"Only presale owner\") */\n      tag_206\n      jumpi\n      mload(0x40)\n      shl(0xe5, 0x461bcd)\n      dup2\n      mstore\n        /* \"#utility.yul\":9865:9867   */\n      0x20\n        /* \"Ethereum/Presale.sol\":2179:2248  require(_msgSender() == saleInfor.presaleOwner, \"Only presale owner\") */\n      0x04\n      dup3\n      add\n        /* \"#utility.yul\":9847:9868   */\n      mstore\n        /* \"#utility.yul\":9904:9906   */\n      0x12\n        /* \"#utility.yul\":9884:9902   */\n      0x24\n      dup3\n      add\n        /* \"#utility.yul\":9877:9907   */\n      mstore\n      shl(0x71, 0x27b7363c90383932b9b0b6329037bbb732b9)\n        /* \"#utility.yul\":9923:9941   */\n      0x44\n      dup3\n      add\n        /* \"#utility.yul\":9916:9964   */\n      mstore\n        /* \"#utility.yul\":9981:9999   */\n      0x64\n      add\n        /* \"Ethereum/Presale.sol\":2179:2248  require(_msgSender() == saleInfor.presaleOwner, \"Only presale owner\") */\n      tag_195\n        /* \"#utility.yul\":9837:10005   */\n      jump\n        /* \"Ethereum/Presale.sol\":2179:2248  require(_msgSender() == saleInfor.presaleOwner, \"Only presale owner\") */\n    tag_206:\n        /* \"Utils/ReentrancyGuard.sol\":1778:1779  2 */\n      0x02\n        /* \"Utils/ReentrancyGuard.sol\":2376:2383  _status */\n      sload(0x00)\n        /* \"Utils/ReentrancyGuard.sol\":2376:2395  _status != _ENTERED */\n      eq\n      iszero\n        /* \"Utils/ReentrancyGuard.sol\":2368:2431  require(_status != _ENTERED, \"ReentrancyGuard: reentrant call\") */\n      tag_210\n      jumpi\n      mload(0x40)\n      shl(0xe5, 0x461bcd)\n      dup2\n      mstore\n      0x04\n      add\n      tag_195\n      swap1\n      tag_212\n      jump\t// in\n    tag_210:\n        /* \"Utils/ReentrancyGuard.sol\":1778:1779  2 */\n      0x02\n        /* \"Utils/ReentrancyGuard.sol\":2509:2516  _status */\n      0x00\n        /* \"Utils/ReentrancyGuard.sol\":2509:2527  _status = _ENTERED */\n      swap1\n      dup2\n      sstore\n        /* \"Ethereum/Presale.sol\":9020:9039  saleInfor.saleToken */\n      sload(0x10)\n        /* \"Ethereum/Presale.sol\":9014:9065  ERC20(saleInfor.saleToken).balanceOf(address(this)) */\n      mload(0x40)\n      shl(0xe0, 0x70a08231)\n      dup2\n      mstore\n        /* \"Ethereum/Presale.sol\":9059:9063  this */\n      address\n        /* \"Ethereum/Presale.sol\":9014:9065  ERC20(saleInfor.saleToken).balanceOf(address(this)) */\n      0x04\n      dup3\n      add\n        /* \"#utility.yul\":3477:3528   */\n      mstore\n      sub(shl(0xa0, 0x01), 0x01)\n        /* \"Ethereum/Presale.sol\":9020:9039  saleInfor.saleToken */\n      swap1\n      swap2\n      and\n      swap1\n        /* \"Ethereum/Presale.sol\":9014:9050  ERC20(saleInfor.saleToken).balanceOf */\n      0x70a08231\n      swap1\n        /* \"#utility.yul\":3450:3468   */\n      0x24\n      add\n        /* \"Ethereum/Presale.sol\":9014:9065  ERC20(saleInfor.saleToken).balanceOf(address(this)) */\n      0x20\n      mload(0x40)\n      dup1\n      dup4\n      sub\n      dup2\n      dup7\n      dup1\n      extcodesize\n      iszero\n      dup1\n      iszero\n      tag_215\n      jumpi\n      0x00\n      dup1\n      revert\n    tag_215:\n      pop\n      gas\n      staticcall\n      iszero\n      dup1\n      iszero\n      tag_217\n      jumpi\n      returndatasize\n      0x00\n      dup1\n      returndatacopy\n      revert(0x00, returndatasize)\n    tag_217:\n      pop\n      pop\n      pop\n      pop\n      mload(0x40)\n      returndatasize\n      not(0x1f)\n      0x1f\n      dup3\n      add\n      and\n      dup3\n      add\n      dup1\n      0x40\n      mstore\n      pop\n      dup2\n      add\n      swap1\n      tag_218\n      swap2\n      swap1\n      tag_134\n      jump\t// in\n    tag_218:\n        /* \"Ethereum/Presale.sol\":9202:9238  presaleStatus.totalTokenBackForAdmin */\n      sload(0x08)\n        /* \"Ethereum/Presale.sol\":9202:9215  presaleStatus */\n      0x04\n        /* \"Ethereum/Presale.sol\":9116:9148  presaleStatus.totalBaseCollected */\n      sload\n        /* \"Ethereum/Presale.sol\":8982:9065  uint256 amountOwnerClaimToken = ERC20(saleInfor.saleToken).balanceOf(address(this)) */\n      swap2\n      swap3\n      pop\n        /* \"Ethereum/Presale.sol\":9077:9112  uint256 amountOwnerRefundNativeCoin */\n      0x00\n      swap2\n        /* \"Ethereum/Presale.sol\":9116:9288  presaleStatus.totalBaseCollected\r... */\n      tag_219\n      swap2\n        /* \"Ethereum/Presale.sol\":9116:9201  presaleStatus.totalBaseCollected\r... */\n      tag_220\n        /* \"Ethereum/Presale.sol\":9116:9288  presaleStatus.totalBaseCollected\r... */\n      jump\t// in\n    tag_219:\n        /* \"Ethereum/Presale.sol\":9303:9316  presaleStatus */\n      0x04\n        /* \"Ethereum/Presale.sol\":9303:9335  presaleStatus.totalBaseCollected */\n      sload\n        /* \"Ethereum/Presale.sol\":9077:9289  uint256 amountOwnerRefundNativeCoin = (presaleStatus.totalBaseCollected\r... */\n      swap1\n      swap2\n      pop\n        /* \"Ethereum/Presale.sol\":9303:9340  presaleStatus.totalBaseCollected != 0 */\n      iszero\n        /* \"Ethereum/Presale.sol\":9300:9583  if(presaleStatus.totalBaseCollected != 0){\r... */\n      tag_221\n      jumpi\n        /* \"Ethereum/Presale.sol\":9515:9551  presaleStatus.totalTokenBackForAdmin */\n      sload(0x08)\n        /* \"Ethereum/Presale.sol\":9444:9472  presaleStatus.totalTokenSold */\n      sload(0x05)\n        /* \"Ethereum/Presale.sol\":9380:9553  amountOwnerClaimToken\r... */\n      tag_222\n      swap2\n        /* \"Ethereum/Presale.sol\":9444:9552  presaleStatus.totalTokenSold\r... */\n      tag_223\n      swap2\n        /* \"Ethereum/Presale.sol\":9444:9472  presaleStatus.totalTokenSold */\n      swap1\n        /* \"Ethereum/Presale.sol\":9444:9514  presaleStatus.totalTokenSold\r... */\n      tag_220\n        /* \"Ethereum/Presale.sol\":9444:9552  presaleStatus.totalTokenSold\r... */\n      jump\t// in\n    tag_223:\n        /* \"Ethereum/Presale.sol\":9380:9401  amountOwnerClaimToken */\n      dup4\n      swap1\n        /* \"Ethereum/Presale.sol\":9380:9443  amountOwnerClaimToken\r... */\n      tag_220\n        /* \"Ethereum/Presale.sol\":9380:9553  amountOwnerClaimToken\r... */\n      jump\t// in\n    tag_222:\n        /* \"Ethereum/Presale.sol\":9356:9553  amountOwnerClaimToken = amountOwnerClaimToken\r... */\n      swap2\n      pop\n        /* \"Ethereum/Presale.sol\":9300:9583  if(presaleStatus.totalBaseCollected != 0){\r... */\n    tag_221:\n        /* \"Ethereum/Presale.sol\":9602:9637  presaleStatus.isOwnerClaimSaleToken */\n      and(0xff, sload(0x0b))\n        /* \"Ethereum/Presale.sol\":9601:9637  !presaleStatus.isOwnerClaimSaleToken */\n      iszero\n        /* \"Ethereum/Presale.sol\":9593:9671  require(!presaleStatus.isOwnerClaimSaleToken, \"Nothing for owner claim token\") */\n      tag_224\n      jumpi\n      mload(0x40)\n      shl(0xe5, 0x461bcd)\n      dup2\n      mstore\n        /* \"#utility.yul\":11321:11323   */\n      0x20\n        /* \"Ethereum/Presale.sol\":9593:9671  require(!presaleStatus.isOwnerClaimSaleToken, \"Nothing for owner claim token\") */\n      0x04\n      dup3\n      add\n        /* \"#utility.yul\":11303:11324   */\n      mstore\n        /* \"#utility.yul\":11360:11362   */\n      0x1d\n        /* \"#utility.yul\":11340:11358   */\n      0x24\n      dup3\n      add\n        /* \"#utility.yul\":11333:11363   */\n      mstore\n        /* \"#utility.yul\":11399:11430   */\n      0x4e6f7468696e6720666f72206f776e657220636c61696d20746f6b656e000000\n        /* \"#utility.yul\":11379:11397   */\n      0x44\n      dup3\n      add\n        /* \"#utility.yul\":11372:11431   */\n      mstore\n        /* \"#utility.yul\":11448:11466   */\n      0x64\n      add\n        /* \"Ethereum/Presale.sol\":9593:9671  require(!presaleStatus.isOwnerClaimSaleToken, \"Nothing for owner claim token\") */\n      tag_195\n        /* \"#utility.yul\":11293:11472   */\n      jump\n        /* \"Ethereum/Presale.sol\":9593:9671  require(!presaleStatus.isOwnerClaimSaleToken, \"Nothing for owner claim token\") */\n    tag_224:\n        /* \"Ethereum/Presale.sol\":9691:9727  presaleStatus.isOwnerRefundBaseToken */\n      sload(0x0b)\n      0x0100\n      swap1\n      div\n      0xff\n      and\n        /* \"Ethereum/Presale.sol\":9690:9727  !presaleStatus.isOwnerRefundBaseToken */\n      iszero\n        /* \"Ethereum/Presale.sol\":9682:9762  require(!presaleStatus.isOwnerRefundBaseToken, \"Nothing for owner refund token\") */\n      tag_227\n      jumpi\n      mload(0x40)\n      shl(0xe5, 0x461bcd)\n      dup2\n      mstore\n        /* \"#utility.yul\":7664:7666   */\n      0x20\n        /* \"Ethereum/Presale.sol\":9682:9762  require(!presaleStatus.isOwnerRefundBaseToken, \"Nothing for owner refund token\") */\n      0x04\n      dup3\n      add\n        /* \"#utility.yul\":7646:7667   */\n      mstore\n        /* \"#utility.yul\":7703:7705   */\n      0x1e\n        /* \"#utility.yul\":7683:7701   */\n      0x24\n      dup3\n      add\n        /* \"#utility.yul\":7676:7706   */\n      mstore\n        /* \"#utility.yul\":7742:7774   */\n      0x4e6f7468696e6720666f72206f776e657220726566756e6420746f6b656e0000\n        /* \"#utility.yul\":7722:7740   */\n      0x44\n      dup3\n      add\n        /* \"#utility.yul\":7715:7775   */\n      mstore\n        /* \"#utility.yul\":7792:7810   */\n      0x64\n      add\n        /* \"Ethereum/Presale.sol\":9682:9762  require(!presaleStatus.isOwnerRefundBaseToken, \"Nothing for owner refund token\") */\n      tag_195\n        /* \"#utility.yul\":7636:7816   */\n      jump\n        /* \"Ethereum/Presale.sol\":9682:9762  require(!presaleStatus.isOwnerRefundBaseToken, \"Nothing for owner refund token\") */\n    tag_227:\n        /* \"Ethereum/Presale.sol\":9773:9808  presaleStatus.isOwnerClaimSaleToken */\n      0x0b\n        /* \"Ethereum/Presale.sol\":9773:9815  presaleStatus.isOwnerClaimSaleToken = true */\n      dup1\n      sload\n      not(0xff)\n      and\n        /* \"Ethereum/Presale.sol\":9811:9815  true */\n      0x01\n        /* \"Ethereum/Presale.sol\":9773:9815  presaleStatus.isOwnerClaimSaleToken = true */\n      or\n      swap1\n      sstore\n      0x00\n        /* \"Ethereum/Presale.sol\":9826:9854  saleInfor.amountTokenForSale */\n      0x1a\n        /* \"Ethereum/Presale.sol\":9826:9858  saleInfor.amountTokenForSale = 0 */\n      sstore\n        /* \"Ethereum/Presale.sol\":9875:9894  saleInfor.saleToken */\n      sload(0x10)\n        /* \"Ethereum/Presale.sol\":9826:9835  saleInfor */\n      0x0f\n        /* \"Ethereum/Presale.sol\":9905:9927  saleInfor.presaleOwner */\n      sload\n        /* \"Ethereum/Presale.sol\":9869:9951  ERC20(saleInfor.saleToken).transfer(saleInfor.presaleOwner, amountOwnerClaimToken) */\n      mload(0x40)\n      shl(0xe0, 0xa9059cbb)\n      dup2\n      mstore\n      sub(shl(0xa0, 0x01), 0x01)\n        /* \"Ethereum/Presale.sol\":9905:9927  saleInfor.presaleOwner */\n      swap2\n      dup3\n      and\n        /* \"Ethereum/Presale.sol\":9773:9786  presaleStatus */\n      0x04\n        /* \"Ethereum/Presale.sol\":9869:9951  ERC20(saleInfor.saleToken).transfer(saleInfor.presaleOwner, amountOwnerClaimToken) */\n      dup3\n      add\n        /* \"#utility.yul\":4814:4865   */\n      mstore\n        /* \"#utility.yul\":4881:4899   */\n      0x24\n      dup2\n      add\n        /* \"#utility.yul\":4874:4908   */\n      dup6\n      swap1\n      mstore\n        /* \"Ethereum/Presale.sol\":9875:9894  saleInfor.saleToken */\n      swap2\n      and\n      swap1\n        /* \"Ethereum/Presale.sol\":9869:9904  ERC20(saleInfor.saleToken).transfer */\n      0xa9059cbb\n      swap1\n        /* \"#utility.yul\":4787:4805   */\n      0x44\n      add\n        /* \"Ethereum/Presale.sol\":9869:9951  ERC20(saleInfor.saleToken).transfer(saleInfor.presaleOwner, amountOwnerClaimToken) */\n      0x20\n      mload(0x40)\n      dup1\n      dup4\n      sub\n      dup2\n      0x00\n      dup8\n      dup1\n      extcodesize\n      iszero\n      dup1\n      iszero\n      tag_232\n      jumpi\n      0x00\n      dup1\n      revert\n    tag_232:\n      pop\n      gas\n      call\n      iszero\n      dup1\n      iszero\n      tag_234\n      jumpi\n      returndatasize\n      0x00\n      dup1\n      returndatacopy\n      revert(0x00, returndatasize)\n    tag_234:\n      pop\n      pop\n      pop\n      pop\n      mload(0x40)\n      returndatasize\n      not(0x1f)\n      0x1f\n      dup3\n      add\n      and\n      dup3\n      add\n      dup1\n      0x40\n      mstore\n      pop\n      dup2\n      add\n      swap1\n      tag_235\n      swap2\n      swap1\n      tag_236\n      jump\t// in\n    tag_235:\n      pop\n        /* \"Ethereum/Presale.sol\":9970:9979  saleInfor */\n      0x0f\n        /* \"Ethereum/Presale.sol\":9970:9992  saleInfor.presaleOwner */\n      sload\n        /* \"Ethereum/Presale.sol\":9962:10031  payable(saleInfor.presaleOwner).transfer(amountOwnerRefundNativeCoin) */\n      mload(0x40)\n      sub(shl(0xa0, 0x01), 0x01)\n        /* \"Ethereum/Presale.sol\":9970:9992  saleInfor.presaleOwner */\n      swap1\n      swap2\n      and\n      swap1\n        /* \"Ethereum/Presale.sol\":9962:10031  payable(saleInfor.presaleOwner).transfer(amountOwnerRefundNativeCoin) */\n      dup3\n      iszero\n      0x08fc\n      mul\n      swap1\n        /* \"Ethereum/Presale.sol\":10003:10030  amountOwnerRefundNativeCoin */\n      dup4\n      swap1\n        /* \"Ethereum/Presale.sol\":9970:9992  saleInfor.presaleOwner */\n      0x00\n        /* \"Ethereum/Presale.sol\":9962:10031  payable(saleInfor.presaleOwner).transfer(amountOwnerRefundNativeCoin) */\n      dup2\n        /* \"Ethereum/Presale.sol\":9970:9992  saleInfor.presaleOwner */\n      dup2\n        /* \"Ethereum/Presale.sol\":9962:10031  payable(saleInfor.presaleOwner).transfer(amountOwnerRefundNativeCoin) */\n      dup2\n        /* \"Ethereum/Presale.sol\":10003:10030  amountOwnerRefundNativeCoin */\n      dup6\n        /* \"Ethereum/Presale.sol\":9970:9992  saleInfor.presaleOwner */\n      dup9\n        /* \"Ethereum/Presale.sol\":9962:10031  payable(saleInfor.presaleOwner).transfer(amountOwnerRefundNativeCoin) */\n      dup9\n      call\n      swap4\n      pop\n      pop\n      pop\n      pop\n      iszero\n      dup1\n      iszero\n      tag_238\n      jumpi\n      returndatasize\n      0x00\n      dup1\n      returndatacopy\n      revert(0x00, returndatasize)\n    tag_238:\n      pop\n      pop\n        /* \"Utils/ReentrancyGuard.sol\":1734:1735  1 */\n      0x01\n        /* \"Utils/ReentrancyGuard.sol\":2688:2695  _status */\n      0x00\n        /* \"Utils/ReentrancyGuard.sol\":2688:2710  _status = _NOT_ENTERED */\n      sstore\n      pop\n        /* \"Ethereum/Presale.sol\":8837:10039  function ownerClaimAndRefundToken() external onlyPresaleOwner nonReentrant{\r... */\n      jump\t// out\n        /* \"Ethereum/Presale.sol\":7818:8829  function userRefundEmergency() external nonReentrant {\r... */\n    tag_77:\n        /* \"Utils/ReentrancyGuard.sol\":1778:1779  2 */\n      0x02\n        /* \"Utils/ReentrancyGuard.sol\":2376:2383  _status */\n      sload(0x00)\n        /* \"Utils/ReentrancyGuard.sol\":2376:2395  _status != _ENTERED */\n      eq\n      iszero\n        /* \"Utils/ReentrancyGuard.sol\":2368:2431  require(_status != _ENTERED, \"ReentrancyGuard: reentrant call\") */\n      tag_240\n      jumpi\n      mload(0x40)\n      shl(0xe5, 0x461bcd)\n      dup2\n      mstore\n      0x04\n      add\n      tag_195\n      swap1\n      tag_212\n      jump\t// in\n    tag_240:\n        /* \"Utils/ReentrancyGuard.sol\":1778:1779  2 */\n      0x02\n        /* \"Utils/ReentrancyGuard.sol\":2509:2516  _status */\n      0x00\n        /* \"Utils/ReentrancyGuard.sol\":2509:2527  _status = _ENTERED */\n      swap1\n      dup2\n      sstore\n        /* \"Ethereum/Presale.sol\":7977:8008  presaleStatus.totalBaseWithDraw */\n      sload(0x07)\n        /* \"Ethereum/Presale.sol\":7977:7990  presaleStatus */\n      0x04\n        /* \"Ethereum/Presale.sol\":7942:7974  presaleStatus.totalBaseCollected */\n      sload\n        /* \"Ethereum/Presale.sol\":7942:8008  presaleStatus.totalBaseCollected - presaleStatus.totalBaseWithDraw */\n      tag_243\n      swap2\n        /* \"Ethereum/Presale.sol\":7977:8008  presaleStatus.totalBaseWithDraw */\n      swap1\n        /* \"Ethereum/Presale.sol\":7942:8008  presaleStatus.totalBaseCollected - presaleStatus.totalBaseWithDraw */\n      tag_244\n      jump\t// in\n    tag_243:\n        /* \"Ethereum/Presale.sol\":7942:8012  presaleStatus.totalBaseCollected - presaleStatus.totalBaseWithDraw > 0 */\n      gt\n        /* \"Ethereum/Presale.sol\":7934:8071  require(presaleStatus.totalBaseCollected - presaleStatus.totalBaseWithDraw > 0, \r... */\n      tag_245\n      jumpi\n      mload(0x40)\n      shl(0xe5, 0x461bcd)\n      dup2\n      mstore\n      0x04\n      add\n      tag_195\n      swap1\n      tag_247\n      jump\t// in\n    tag_245:\n        /* \"Ethereum/Presale.sol\":8119:8129  msg.sender */\n      caller\n        /* \"Ethereum/Presale.sol\":8083:8106  BuyerInfo storage buyer */\n      0x00\n        /* \"Ethereum/Presale.sol\":8109:8130  buyerInfo[msg.sender] */\n      swap1\n      dup2\n      mstore\n        /* \"Ethereum/Presale.sol\":8109:8118  buyerInfo */\n      0x02\n        /* \"Ethereum/Presale.sol\":8109:8130  buyerInfo[msg.sender] */\n      0x20\n      mstore\n      0x40\n      swap1\n      keccak256\n        /* \"Ethereum/Presale.sol\":8149:8166  buyer.baseDeposit */\n      dup1\n      sload\n        /* \"Ethereum/Presale.sol\":8141:8198  require(buyer.baseDeposit > 0, \"You have not bought yet\") */\n      tag_248\n      jumpi\n      mload(0x40)\n      shl(0xe5, 0x461bcd)\n      dup2\n      mstore\n        /* \"#utility.yul\":6194:6196   */\n      0x20\n        /* \"Ethereum/Presale.sol\":8141:8198  require(buyer.baseDeposit > 0, \"You have not bought yet\") */\n      0x04\n      dup3\n      add\n        /* \"#utility.yul\":6176:6197   */\n      mstore\n        /* \"#utility.yul\":6233:6235   */\n      0x17\n        /* \"#utility.yul\":6213:6231   */\n      0x24\n      dup3\n      add\n        /* \"#utility.yul\":6206:6236   */\n      mstore\n      shl(0x4a, 0x165bdd481a185d99481b9bdd08189bdd59da1d081e595d)\n        /* \"#utility.yul\":6252:6270   */\n      0x44\n      dup3\n      add\n        /* \"#utility.yul\":6245:6298   */\n      mstore\n        /* \"#utility.yul\":6315:6333   */\n      0x64\n      add\n        /* \"Ethereum/Presale.sol\":8141:8198  require(buyer.baseDeposit > 0, \"You have not bought yet\") */\n      tag_195\n        /* \"#utility.yul\":6166:6339   */\n      jump\n        /* \"Ethereum/Presale.sol\":8141:8198  require(buyer.baseDeposit > 0, \"You have not bought yet\") */\n    tag_248:\n        /* \"Ethereum/Presale.sol\":8237:8260  buyer.totalBaseWithDraw */\n      0x04\n      dup2\n      add\n      sload\n        /* \"Ethereum/Presale.sol\":8217:8234  buyer.baseDeposit */\n      dup2\n      sload\n        /* \"Ethereum/Presale.sol\":8217:8260  buyer.baseDeposit > buyer.totalBaseWithDraw */\n      gt\n        /* \"Ethereum/Presale.sol\":8209:8279  require(buyer.baseDeposit > buyer.totalBaseWithDraw, \"You refund all\") */\n      tag_251\n      jumpi\n      mload(0x40)\n      shl(0xe5, 0x461bcd)\n      dup2\n      mstore\n        /* \"#utility.yul\":10573:10575   */\n      0x20\n        /* \"Ethereum/Presale.sol\":8209:8279  require(buyer.baseDeposit > buyer.totalBaseWithDraw, \"You refund all\") */\n      0x04\n      dup3\n      add\n        /* \"#utility.yul\":10555:10576   */\n      mstore\n        /* \"#utility.yul\":10612:10614   */\n      0x0e\n        /* \"#utility.yul\":10592:10610   */\n      0x24\n      dup3\n      add\n        /* \"#utility.yul\":10585:10615   */\n      mstore\n      shl(0x92, 0x165bdd481c99599d5b9908185b1b)\n        /* \"#utility.yul\":10631:10649   */\n      0x44\n      dup3\n      add\n        /* \"#utility.yul\":10624:10668   */\n      mstore\n        /* \"#utility.yul\":10685:10703   */\n      0x64\n      add\n        /* \"Ethereum/Presale.sol\":8209:8279  require(buyer.baseDeposit > buyer.totalBaseWithDraw, \"You refund all\") */\n      tag_195\n        /* \"#utility.yul\":10545:10709   */\n      jump\n        /* \"Ethereum/Presale.sol\":8209:8279  require(buyer.baseDeposit > buyer.totalBaseWithDraw, \"You refund all\") */\n    tag_251:\n        /* \"Ethereum/Presale.sol\":8392:8409  buyer.baseDeposit */\n      dup1\n      sload\n        /* \"Ethereum/Presale.sol\":8333:8352  saleInfor.refundFee */\n      sload(0x17)\n        /* \"Ethereum/Presale.sol\":8290:8310  uint256 amountRefund */\n      0x00\n      swap2\n        /* \"Ethereum/Presale.sol\":8313:8463  ((uint256(1000).sub(saleInfor.refundFee))\r... */\n      tag_254\n      swap2\n        /* \"Ethereum/Presale.sol\":8457:8461  1000 */\n      0x03e8\n      swap2\n        /* \"Ethereum/Presale.sol\":8314:8410  (uint256(1000).sub(saleInfor.refundFee))\r... */\n      tag_255\n      swap2\n        /* \"Ethereum/Presale.sol\":8315:8353  uint256(1000).sub(saleInfor.refundFee) */\n      tag_256\n      swap1\n        /* \"Ethereum/Presale.sol\":8457:8461  1000 */\n      dup5\n      swap1\n        /* \"Ethereum/Presale.sol\":8315:8332  uint256(1000).sub */\n      tag_220\n        /* \"Ethereum/Presale.sol\":8315:8353  uint256(1000).sub(saleInfor.refundFee) */\n      jump\t// in\n    tag_256:\n        /* \"Ethereum/Presale.sol\":8314:8391  (uint256(1000).sub(saleInfor.refundFee))\r... */\n      swap1\n      tag_178\n        /* \"Ethereum/Presale.sol\":8314:8410  (uint256(1000).sub(saleInfor.refundFee))\r... */\n      jump\t// in\n    tag_255:\n        /* \"Ethereum/Presale.sol\":8313:8448  ((uint256(1000).sub(saleInfor.refundFee))\r... */\n      swap1\n      tag_257\n        /* \"Ethereum/Presale.sol\":8313:8463  ((uint256(1000).sub(saleInfor.refundFee))\r... */\n      jump\t// in\n    tag_254:\n        /* \"Ethereum/Presale.sol\":8486:8503  buyer.baseDeposit */\n      dup3\n      sload\n        /* \"Ethereum/Presale.sol\":8290:8463  uint256 amountRefund = ((uint256(1000).sub(saleInfor.refundFee))\r... */\n      swap1\n      swap2\n      pop\n        /* \"Ethereum/Presale.sol\":8486:8518  buyer.baseDeposit - amountRefund */\n      tag_258\n      swap1\n        /* \"Ethereum/Presale.sol\":8290:8463  uint256 amountRefund = ((uint256(1000).sub(saleInfor.refundFee))\r... */\n      dup3\n      swap1\n        /* \"Ethereum/Presale.sol\":8486:8518  buyer.baseDeposit - amountRefund */\n      tag_244\n      jump\t// in\n    tag_258:\n        /* \"Ethereum/Presale.sol\":8474:8482  totalFee */\n      0x1e\n      0x00\n        /* \"Ethereum/Presale.sol\":8474:8518  totalFee += buyer.baseDeposit - amountRefund */\n      dup3\n      dup3\n      sload\n      tag_259\n      swap2\n      swap1\n      tag_260\n      jump\t// in\n    tag_259:\n      swap1\n      swap2\n      sstore\n      pop\n      pop\n        /* \"Ethereum/Presale.sol\":8529:8560  presaleStatus.totalBaseWithDraw */\n      0x07\n        /* \"Ethereum/Presale.sol\":8529:8576  presaleStatus.totalBaseWithDraw += amountRefund */\n      dup1\n      sload\n        /* \"Ethereum/Presale.sol\":8564:8576  amountRefund */\n      dup3\n      swap2\n        /* \"Ethereum/Presale.sol\":8529:8560  presaleStatus.totalBaseWithDraw */\n      swap1\n      0x00\n      swap1\n        /* \"Ethereum/Presale.sol\":8529:8576  presaleStatus.totalBaseWithDraw += amountRefund */\n      tag_261\n      swap1\n        /* \"Ethereum/Presale.sol\":8564:8576  amountRefund */\n      dup5\n      swap1\n        /* \"Ethereum/Presale.sol\":8529:8576  presaleStatus.totalBaseWithDraw += amountRefund */\n      tag_260\n      jump\t// in\n    tag_261:\n      swap3\n      pop\n      pop\n      dup2\n      swap1\n      sstore\n      pop\n        /* \"Ethereum/Presale.sol\":8614:8626  amountRefund */\n      dup1\n        /* \"Ethereum/Presale.sol\":8587:8592  buyer */\n      dup3\n        /* \"Ethereum/Presale.sol\":8587:8610  buyer.totalBaseWithDraw */\n      0x04\n      add\n      0x00\n        /* \"Ethereum/Presale.sol\":8587:8626  buyer.totalBaseWithDraw += amountRefund */\n      dup3\n      dup3\n      sload\n      tag_262\n      swap2\n      swap1\n      tag_260\n      jump\t// in\n    tag_262:\n      swap1\n      swap2\n      sstore\n      pop\n      pop\n        /* \"Ethereum/Presale.sol\":8658:8673  block.timestamp */\n      timestamp\n        /* \"Ethereum/Presale.sol\":8637:8655  buyer.lastWithDraw */\n      0x02\n      dup4\n      add\n        /* \"Ethereum/Presale.sol\":8637:8673  buyer.lastWithDraw = block.timestamp */\n      sstore\n        /* \"Ethereum/Presale.sol\":8743:8767  buyer.totalTokenWithDraw */\n      0x03\n      dup3\n      add\n      sload\n        /* \"Ethereum/Presale.sol\":8724:8740  buyer.tokenOwner */\n      0x01\n      dup4\n      add\n      sload\n        /* \"Ethereum/Presale.sol\":8724:8767  buyer.tokenOwner - buyer.totalTokenWithDraw */\n      tag_263\n      swap2\n        /* \"Ethereum/Presale.sol\":8743:8767  buyer.totalTokenWithDraw */\n      swap1\n        /* \"Ethereum/Presale.sol\":8724:8767  buyer.tokenOwner - buyer.totalTokenWithDraw */\n      tag_244\n      jump\t// in\n    tag_263:\n        /* \"Ethereum/Presale.sol\":8684:8720  presaleStatus.totalTokenBackForAdmin */\n      0x08\n        /* \"Ethereum/Presale.sol\":8684:8767  presaleStatus.totalTokenBackForAdmin += buyer.tokenOwner - buyer.totalTokenWithDraw */\n      dup1\n      sload\n        /* \"Ethereum/Presale.sol\":8684:8720  presaleStatus.totalTokenBackForAdmin */\n      0x00\n      swap1\n        /* \"Ethereum/Presale.sol\":8684:8767  presaleStatus.totalTokenBackForAdmin += buyer.tokenOwner - buyer.totalTokenWithDraw */\n      tag_264\n      swap1\n      dup5\n      swap1\n      tag_260\n      jump\t// in\n    tag_264:\n      swap1\n      swap2\n      sstore\n      pop\n      pop\n        /* \"Ethereum/Presale.sol\":8779:8821  payable(msg.sender).transfer(amountRefund) */\n      mload(0x40)\n        /* \"Ethereum/Presale.sol\":8787:8797  msg.sender */\n      caller\n      swap1\n        /* \"Ethereum/Presale.sol\":8779:8821  payable(msg.sender).transfer(amountRefund) */\n      dup3\n      iszero\n      0x08fc\n      mul\n      swap1\n        /* \"Ethereum/Presale.sol\":8808:8820  amountRefund */\n      dup4\n      swap1\n        /* \"Ethereum/Presale.sol\":8779:8821  payable(msg.sender).transfer(amountRefund) */\n      0x00\n      dup2\n      dup2\n      dup2\n        /* \"Ethereum/Presale.sol\":8808:8820  amountRefund */\n      dup6\n        /* \"Ethereum/Presale.sol\":8787:8797  msg.sender */\n      dup9\n        /* \"Ethereum/Presale.sol\":8779:8821  payable(msg.sender).transfer(amountRefund) */\n      dup9\n      call\n      swap4\n      pop\n      pop\n      pop\n      pop\n      iszero\n      dup1\n      iszero\n      tag_238\n      jumpi\n      returndatasize\n      0x00\n      dup1\n      returndatacopy\n      revert(0x00, returndatasize)\n        /* \"Ethereum/Presale.sol\":6806:7810  function userClaimEmergency() external nonReentrant {\r... */\n    tag_80:\n        /* \"Utils/ReentrancyGuard.sol\":1778:1779  2 */\n      0x02\n        /* \"Utils/ReentrancyGuard.sol\":2376:2383  _status */\n      sload(0x00)\n        /* \"Utils/ReentrancyGuard.sol\":2376:2395  _status != _ENTERED */\n      eq\n      iszero\n        /* \"Utils/ReentrancyGuard.sol\":2368:2431  require(_status != _ENTERED, \"ReentrancyGuard: reentrant call\") */\n      tag_268\n      jumpi\n      mload(0x40)\n      shl(0xe5, 0x461bcd)\n      dup2\n      mstore\n      0x04\n      add\n      tag_195\n      swap1\n      tag_212\n      jump\t// in\n    tag_268:\n        /* \"Utils/ReentrancyGuard.sol\":1778:1779  2 */\n      0x02\n        /* \"Utils/ReentrancyGuard.sol\":2509:2516  _status */\n      0x00\n        /* \"Utils/ReentrancyGuard.sol\":2509:2527  _status = _ENTERED */\n      swap1\n      dup2\n      sstore\n        /* \"Ethereum/Presale.sol\":6961:6993  presaleStatus.totalTokenWithDraw */\n      sload(0x06)\n        /* \"Ethereum/Presale.sol\":6930:6958  presaleStatus.totalTokenSold */\n      sload(0x05)\n        /* \"Ethereum/Presale.sol\":6930:6993  presaleStatus.totalTokenSold - presaleStatus.totalTokenWithDraw */\n      tag_271\n      swap2\n        /* \"Ethereum/Presale.sol\":6961:6993  presaleStatus.totalTokenWithDraw */\n      swap1\n        /* \"Ethereum/Presale.sol\":6930:6993  presaleStatus.totalTokenSold - presaleStatus.totalTokenWithDraw */\n      tag_244\n      jump\t// in\n    tag_271:\n        /* \"Ethereum/Presale.sol\":6930:6997  presaleStatus.totalTokenSold - presaleStatus.totalTokenWithDraw > 0 */\n      gt\n        /* \"Ethereum/Presale.sol\":6922:7056  require(presaleStatus.totalTokenSold - presaleStatus.totalTokenWithDraw > 0, \r... */\n      tag_272\n      jumpi\n      mload(0x40)\n      shl(0xe5, 0x461bcd)\n      dup2\n      mstore\n      0x04\n      add\n      tag_195\n      swap1\n      tag_247\n      jump\t// in\n    tag_272:\n        /* \"Ethereum/Presale.sol\":7103:7113  msg.sender */\n      caller\n        /* \"Ethereum/Presale.sol\":7067:7090  BuyerInfo storage buyer */\n      0x00\n        /* \"Ethereum/Presale.sol\":7093:7114  buyerInfo[msg.sender] */\n      swap1\n      dup2\n      mstore\n        /* \"Ethereum/Presale.sol\":7093:7102  buyerInfo */\n      0x02\n        /* \"Ethereum/Presale.sol\":7093:7114  buyerInfo[msg.sender] */\n      0x20\n      mstore\n      0x40\n      swap1\n      keccak256\n        /* \"Ethereum/Presale.sol\":7133:7149  buyer.tokenOwner */\n      0x01\n      dup2\n      add\n      sload\n        /* \"Ethereum/Presale.sol\":7125:7181  require(buyer.tokenOwner > 0, \"You have not bought yet\") */\n      tag_274\n      jumpi\n      mload(0x40)\n      shl(0xe5, 0x461bcd)\n      dup2\n      mstore\n        /* \"#utility.yul\":6194:6196   */\n      0x20\n        /* \"Ethereum/Presale.sol\":7125:7181  require(buyer.tokenOwner > 0, \"You have not bought yet\") */\n      0x04\n      dup3\n      add\n        /* \"#utility.yul\":6176:6197   */\n      mstore\n        /* \"#utility.yul\":6233:6235   */\n      0x17\n        /* \"#utility.yul\":6213:6231   */\n      0x24\n      dup3\n      add\n        /* \"#utility.yul\":6206:6236   */\n      mstore\n      shl(0x4a, 0x165bdd481a185d99481b9bdd08189bdd59da1d081e595d)\n        /* \"#utility.yul\":6252:6270   */\n      0x44\n      dup3\n      add\n        /* \"#utility.yul\":6245:6298   */\n      mstore\n        /* \"#utility.yul\":6315:6333   */\n      0x64\n      add\n        /* \"Ethereum/Presale.sol\":7125:7181  require(buyer.tokenOwner > 0, \"You have not bought yet\") */\n      tag_195\n        /* \"#utility.yul\":6166:6339   */\n      jump\n        /* \"Ethereum/Presale.sol\":7125:7181  require(buyer.tokenOwner > 0, \"You have not bought yet\") */\n    tag_274:\n        /* \"Ethereum/Presale.sol\":7219:7224  buyer */\n      dup1\n        /* \"Ethereum/Presale.sol\":7219:7243  buyer.totalTokenWithDraw */\n      0x03\n      add\n      sload\n        /* \"Ethereum/Presale.sol\":7200:7205  buyer */\n      dup2\n        /* \"Ethereum/Presale.sol\":7200:7216  buyer.tokenOwner */\n      0x01\n      add\n      sload\n        /* \"Ethereum/Presale.sol\":7200:7243  buyer.tokenOwner > buyer.totalTokenWithDraw */\n      gt\n        /* \"Ethereum/Presale.sol\":7192:7262  require(buyer.tokenOwner > buyer.totalTokenWithDraw, \"You claim alll\") */\n      tag_276\n      jumpi\n      mload(0x40)\n      shl(0xe5, 0x461bcd)\n      dup2\n      mstore\n        /* \"#utility.yul\":8023:8025   */\n      0x20\n        /* \"Ethereum/Presale.sol\":7192:7262  require(buyer.tokenOwner > buyer.totalTokenWithDraw, \"You claim alll\") */\n      0x04\n      dup3\n      add\n        /* \"#utility.yul\":8005:8026   */\n      mstore\n        /* \"#utility.yul\":8062:8064   */\n      0x0e\n        /* \"#utility.yul\":8042:8060   */\n      0x24\n      dup3\n      add\n        /* \"#utility.yul\":8035:8065   */\n      mstore\n      shl(0x92, 0x165bdd4818db185a5b48185b1b1b)\n        /* \"#utility.yul\":8081:8099   */\n      0x44\n      dup3\n      add\n        /* \"#utility.yul\":8074:8118   */\n      mstore\n        /* \"#utility.yul\":8135:8153   */\n      0x64\n      add\n        /* \"Ethereum/Presale.sol\":7192:7262  require(buyer.tokenOwner > buyer.totalTokenWithDraw, \"You claim alll\") */\n      tag_195\n        /* \"#utility.yul\":7995:8159   */\n      jump\n        /* \"Ethereum/Presale.sol\":7192:7262  require(buyer.tokenOwner > buyer.totalTokenWithDraw, \"You claim alll\") */\n    tag_276:\n        /* \"Ethereum/Presale.sol\":7273:7292  uint256 amountClaim */\n      0x00\n        /* \"Ethereum/Presale.sol\":7295:7431  ((uint256(1000).sub(saleInfor.claimFee))\r... */\n      tag_279\n        /* \"Ethereum/Presale.sol\":7425:7429  1000 */\n      0x03e8\n        /* \"Ethereum/Presale.sol\":7296:7384  (uint256(1000).sub(saleInfor.claimFee))\r... */\n      tag_255\n        /* \"Ethereum/Presale.sol\":7367:7372  buyer */\n      dup5\n        /* \"Ethereum/Presale.sol\":7367:7383  buyer.tokenOwner */\n      0x01\n      add\n      sload\n        /* \"Ethereum/Presale.sol\":7297:7334  uint256(1000).sub(saleInfor.claimFee) */\n      tag_256\n        /* \"Ethereum/Presale.sol\":7315:7324  saleInfor */\n      0x0f\n        /* \"Ethereum/Presale.sol\":7315:7333  saleInfor.claimFee */\n      0x09\n      add\n      sload\n        /* \"Ethereum/Presale.sol\":7305:7309  1000 */\n      0x03e8\n        /* \"Ethereum/Presale.sol\":7297:7314  uint256(1000).sub */\n      tag_220\n      swap1\n        /* \"Ethereum/Presale.sol\":7297:7334  uint256(1000).sub(saleInfor.claimFee) */\n      swap2\n      swap1\n      0xffffffff\n      and\n      jump\t// in\n        /* \"Ethereum/Presale.sol\":7295:7431  ((uint256(1000).sub(saleInfor.claimFee))\r... */\n    tag_279:\n        /* \"Ethereum/Presale.sol\":7273:7431  uint256 amountClaim = ((uint256(1000).sub(saleInfor.claimFee))\r... */\n      swap1\n      pop\n        /* \"Ethereum/Presale.sol\":7478:7489  amountClaim */\n      dup1\n        /* \"Ethereum/Presale.sol\":7442:7455  presaleStatus */\n      0x04\n        /* \"Ethereum/Presale.sol\":7442:7474  presaleStatus.totalTokenWithDraw */\n      0x02\n      add\n      0x00\n        /* \"Ethereum/Presale.sol\":7442:7489  presaleStatus.totalTokenWithDraw += amountClaim */\n      dup3\n      dup3\n      sload\n      tag_282\n      swap2\n      swap1\n      tag_260\n      jump\t// in\n    tag_282:\n      swap1\n      swap2\n      sstore\n      pop\n      pop\n        /* \"Ethereum/Presale.sol\":7500:7528  saleInfor.amountTokenForSale */\n      0x1a\n        /* \"Ethereum/Presale.sol\":7500:7543  saleInfor.amountTokenForSale -= amountClaim */\n      dup1\n      sload\n        /* \"Ethereum/Presale.sol\":7532:7543  amountClaim */\n      dup3\n      swap2\n        /* \"Ethereum/Presale.sol\":7500:7528  saleInfor.amountTokenForSale */\n      swap1\n      0x00\n      swap1\n        /* \"Ethereum/Presale.sol\":7500:7543  saleInfor.amountTokenForSale -= amountClaim */\n      tag_283\n      swap1\n        /* \"Ethereum/Presale.sol\":7532:7543  amountClaim */\n      dup5\n      swap1\n        /* \"Ethereum/Presale.sol\":7500:7543  saleInfor.amountTokenForSale -= amountClaim */\n      tag_244\n      jump\t// in\n    tag_283:\n      swap3\n      pop\n      pop\n      dup2\n      swap1\n      sstore\n      pop\n        /* \"Ethereum/Presale.sol\":7582:7593  amountClaim */\n      dup1\n        /* \"Ethereum/Presale.sol\":7554:7559  buyer */\n      dup3\n        /* \"Ethereum/Presale.sol\":7554:7578  buyer.totalTokenWithDraw */\n      0x03\n      add\n      0x00\n        /* \"Ethereum/Presale.sol\":7554:7593  buyer.totalTokenWithDraw += amountClaim */\n      dup3\n      dup3\n      sload\n      tag_284\n      swap2\n      swap1\n      tag_260\n      jump\t// in\n    tag_284:\n      swap1\n      swap2\n      sstore\n      pop\n      pop\n        /* \"Ethereum/Presale.sol\":7625:7640  block.timestamp */\n      timestamp\n        /* \"Ethereum/Presale.sol\":7604:7622  buyer.lastWithDraw */\n      0x02\n      dup4\n      add\n        /* \"Ethereum/Presale.sol\":7604:7640  buyer.lastWithDraw = block.timestamp */\n      sstore\n        /* \"Ethereum/Presale.sol\":7708:7731  buyer.totalBaseWithDraw */\n      0x04\n      dup3\n      add\n      sload\n        /* \"Ethereum/Presale.sol\":7690:7707  buyer.baseDeposit */\n      dup3\n      sload\n        /* \"Ethereum/Presale.sol\":7690:7731  buyer.baseDeposit-buyer.totalBaseWithDraw */\n      tag_285\n      swap2\n        /* \"Ethereum/Presale.sol\":7708:7731  buyer.totalBaseWithDraw */\n      swap1\n        /* \"Ethereum/Presale.sol\":7690:7731  buyer.baseDeposit-buyer.totalBaseWithDraw */\n      tag_244\n      jump\t// in\n    tag_285:\n        /* \"Ethereum/Presale.sol\":7651:7686  presaleStatus.totalBaseBackForAdmin */\n      0x09\n        /* \"Ethereum/Presale.sol\":7651:7731  presaleStatus.totalBaseBackForAdmin += buyer.baseDeposit-buyer.totalBaseWithDraw */\n      dup1\n      sload\n        /* \"Ethereum/Presale.sol\":7651:7686  presaleStatus.totalBaseBackForAdmin */\n      0x00\n      swap1\n        /* \"Ethereum/Presale.sol\":7651:7731  presaleStatus.totalBaseBackForAdmin += buyer.baseDeposit-buyer.totalBaseWithDraw */\n      tag_286\n      swap1\n      dup5\n      swap1\n      tag_260\n      jump\t// in\n    tag_286:\n      swap1\n      swap2\n      sstore\n      pop\n      pop\n        /* \"Ethereum/Presale.sol\":7748:7767  saleInfor.saleToken */\n      sload(0x10)\n        /* \"Ethereum/Presale.sol\":7742:7802  ERC20(saleInfor.saleToken).transfer(msg.sender, amountClaim) */\n      mload(0x40)\n      shl(0xe0, 0xa9059cbb)\n      dup2\n      mstore\n        /* \"Ethereum/Presale.sol\":7778:7788  msg.sender */\n      caller\n        /* \"Ethereum/Presale.sol\":7742:7802  ERC20(saleInfor.saleToken).transfer(msg.sender, amountClaim) */\n      0x04\n      dup3\n      add\n        /* \"#utility.yul\":4814:4865   */\n      mstore\n        /* \"#utility.yul\":4881:4899   */\n      0x24\n      dup2\n      add\n        /* \"#utility.yul\":4874:4908   */\n      dup4\n      swap1\n      mstore\n      sub(shl(0xa0, 0x01), 0x01)\n        /* \"Ethereum/Presale.sol\":7748:7767  saleInfor.saleToken */\n      swap1\n      swap2\n      and\n      swap1\n        /* \"Ethereum/Presale.sol\":7742:7777  ERC20(saleInfor.saleToken).transfer */\n      0xa9059cbb\n      swap1\n        /* \"#utility.yul\":4787:4805   */\n      0x44\n      add\n        /* \"Ethereum/Presale.sol\":7742:7802  ERC20(saleInfor.saleToken).transfer(msg.sender, amountClaim) */\n      0x20\n      mload(0x40)\n      dup1\n      dup4\n      sub\n      dup2\n      0x00\n      dup8\n      dup1\n      extcodesize\n      iszero\n      dup1\n      iszero\n      tag_289\n      jumpi\n      0x00\n      dup1\n      revert\n    tag_289:\n      pop\n      gas\n      call\n      iszero\n      dup1\n      iszero\n      tag_291\n      jumpi\n      returndatasize\n      0x00\n      dup1\n      returndatacopy\n      revert(0x00, returndatasize)\n    tag_291:\n      pop\n      pop\n      pop\n      pop\n      mload(0x40)\n      returndatasize\n      not(0x1f)\n      0x1f\n      dup3\n      add\n      and\n      dup3\n      add\n      dup1\n      0x40\n      mstore\n      pop\n      dup2\n      add\n      swap1\n      tag_238\n      swap2\n      swap1\n      tag_236\n      jump\t// in\n        /* \"Ethereum/Presale.sol\":4586:6798  function deposit(uint256 _amount) external payable nonReentrant {\r... */\n    tag_98:\n        /* \"Utils/ReentrancyGuard.sol\":1778:1779  2 */\n      0x02\n        /* \"Utils/ReentrancyGuard.sol\":2376:2383  _status */\n      sload(0x00)\n        /* \"Utils/ReentrancyGuard.sol\":2376:2395  _status != _ENTERED */\n      eq\n      iszero\n        /* \"Utils/ReentrancyGuard.sol\":2368:2431  require(_status != _ENTERED, \"ReentrancyGuard: reentrant call\") */\n      tag_294\n      jumpi\n      mload(0x40)\n      shl(0xe5, 0x461bcd)\n      dup2\n      mstore\n      0x04\n      add\n      tag_195\n      swap1\n      tag_212\n      jump\t// in\n    tag_294:\n        /* \"Utils/ReentrancyGuard.sol\":1778:1779  2 */\n      0x02\n        /* \"Utils/ReentrancyGuard.sol\":2509:2516  _status */\n      0x00\n        /* \"Utils/ReentrancyGuard.sol\":2509:2527  _status = _ENTERED */\n      dup2\n      dup2\n      sstore\n        /* \"Ethereum/Presale.sol\":4757:4767  msg.sender */\n      caller\n        /* \"Ethereum/Presale.sol\":4747:4768  buyerInfo[msg.sender] */\n      dup2\n      mstore\n      0x20\n      swap2\n      swap1\n      swap2\n      mstore\n      0x40\n      dup2\n      keccak256\n      swap1\n        /* \"Ethereum/Presale.sol\":4799:4806  _amount */\n      dup3\n      swap1\n      dup2\n      swap1\n        /* \"Ethereum/Presale.sol\":4912:4916  1000 */\n      0x03e8\n        /* \"Ethereum/Presale.sol\":4935:4944  msg.value */\n      callvalue\n        /* \"Ethereum/Presale.sol\":4935:4962  msg.value >= real_amount_in */\n      dup4\n      gt\n      iszero\n        /* \"Ethereum/Presale.sol\":4927:4993  require(msg.value >= real_amount_in, \"Please provide navite coin\") */\n      tag_297\n      jumpi\n      mload(0x40)\n      shl(0xe5, 0x461bcd)\n      dup2\n      mstore\n        /* \"#utility.yul\":6546:6548   */\n      0x20\n        /* \"Ethereum/Presale.sol\":4927:4993  require(msg.value >= real_amount_in, \"Please provide navite coin\") */\n      0x04\n      dup3\n      add\n        /* \"#utility.yul\":6528:6549   */\n      mstore\n        /* \"#utility.yul\":6585:6587   */\n      0x1a\n        /* \"#utility.yul\":6565:6583   */\n      0x24\n      dup3\n      add\n        /* \"#utility.yul\":6558:6588   */\n      mstore\n        /* \"#utility.yul\":6624:6652   */\n      0x506c656173652070726f76696465206e617669746520636f696e000000000000\n        /* \"#utility.yul\":6604:6622   */\n      0x44\n      dup3\n      add\n        /* \"#utility.yul\":6597:6653   */\n      mstore\n        /* \"#utility.yul\":6670:6688   */\n      0x64\n      add\n        /* \"Ethereum/Presale.sol\":4927:4993  require(msg.value >= real_amount_in, \"Please provide navite coin\") */\n      tag_195\n        /* \"#utility.yul\":6518:6694   */\n      jump\n        /* \"Ethereum/Presale.sol\":4927:4993  require(msg.value >= real_amount_in, \"Please provide navite coin\") */\n    tag_297:\n        /* \"Ethereum/Presale.sol\":5030:5056  saleInfor.minSpendPerBuyer */\n      sload(0x15)\n        /* \"Ethereum/Presale.sol\":5012:5056  real_amount_in >= saleInfor.minSpendPerBuyer */\n      dup4\n      lt\n      iszero\n        /* \"Ethereum/Presale.sol\":5004:5105  require(real_amount_in >= saleInfor.minSpendPerBuyer, \r... */\n      tag_300\n      jumpi\n      mload(0x40)\n      shl(0xe5, 0x461bcd)\n      dup2\n      mstore\n        /* \"#utility.yul\":9520:9522   */\n      0x20\n        /* \"Ethereum/Presale.sol\":5004:5105  require(real_amount_in >= saleInfor.minSpendPerBuyer, \r... */\n      0x04\n      dup3\n      add\n        /* \"#utility.yul\":9502:9523   */\n      mstore\n        /* \"#utility.yul\":9559:9561   */\n      0x10\n        /* \"#utility.yul\":9539:9557   */\n      0x24\n      dup3\n      add\n        /* \"#utility.yul\":9532:9562   */\n      mstore\n      shl(0x80, 0x4e6f7420656e6f7567682076616c7565)\n        /* \"#utility.yul\":9578:9596   */\n      0x44\n      dup3\n      add\n        /* \"#utility.yul\":9571:9617   */\n      mstore\n        /* \"#utility.yul\":9634:9652   */\n      0x64\n      add\n        /* \"Ethereum/Presale.sol\":5004:5105  require(real_amount_in >= saleInfor.minSpendPerBuyer, \r... */\n      tag_195\n        /* \"#utility.yul\":9492:9658   */\n      jump\n        /* \"Ethereum/Presale.sol\":5004:5105  require(real_amount_in >= saleInfor.minSpendPerBuyer, \r... */\n    tag_300:\n        /* \"Ethereum/Presale.sol\":5142:5168  saleInfor.maxSpendPerBuyer */\n      sload(0x16)\n        /* \"Ethereum/Presale.sol\":5124:5168  real_amount_in <= saleInfor.maxSpendPerBuyer */\n      dup4\n      gt\n      iszero\n        /* \"Ethereum/Presale.sol\":5116:5215  require(real_amount_in <= saleInfor.maxSpendPerBuyer, \r... */\n      tag_303\n      jumpi\n      mload(0x40)\n      shl(0xe5, 0x461bcd)\n      dup2\n      mstore\n        /* \"#utility.yul\":8772:8774   */\n      0x20\n        /* \"Ethereum/Presale.sol\":5116:5215  require(real_amount_in <= saleInfor.maxSpendPerBuyer, \r... */\n      0x04\n      dup3\n      add\n        /* \"#utility.yul\":8754:8775   */\n      mstore\n        /* \"#utility.yul\":8811:8813   */\n      0x0e\n        /* \"#utility.yul\":8791:8809   */\n      0x24\n      dup3\n      add\n        /* \"#utility.yul\":8784:8814   */\n      mstore\n      shl(0x90, 0x4f766572666c6f772076616c7565)\n        /* \"#utility.yul\":8830:8848   */\n      0x44\n      dup3\n      add\n        /* \"#utility.yul\":8823:8867   */\n      mstore\n        /* \"#utility.yul\":8884:8902   */\n      0x64\n      add\n        /* \"Ethereum/Presale.sol\":5116:5215  require(real_amount_in <= saleInfor.maxSpendPerBuyer, \r... */\n      tag_195\n        /* \"#utility.yul\":8744:8908   */\n      jump\n        /* \"Ethereum/Presale.sol\":5116:5215  require(real_amount_in <= saleInfor.maxSpendPerBuyer, \r... */\n    tag_303:\n        /* \"Ethereum/Presale.sol\":5230:5249  checkAdminAddress() */\n      tag_306\n        /* \"Ethereum/Presale.sol\":5230:5247  checkAdminAddress */\n      tag_101\n        /* \"Ethereum/Presale.sol\":5230:5249  checkAdminAddress() */\n      jump\t// in\n    tag_306:\n        /* \"Ethereum/Presale.sol\":5226:5492  if(!checkAdminAddress()) {\r... */\n      tag_307\n      jumpi\n        /* \"Ethereum/Presale.sol\":5283:5416  ((fullPercenFee.sub(feeAnyone))\r... */\n      tag_308\n        /* \"Ethereum/Presale.sol\":5402:5415  fullPercenFee */\n      dup2\n        /* \"Ethereum/Presale.sol\":5284:5365  (fullPercenFee.sub(feeAnyone))\r... */\n      tag_255\n        /* \"Ethereum/Presale.sol\":5350:5364  real_amount_in */\n      dup6\n        /* \"Ethereum/Presale.sol\":5285:5313  fullPercenFee.sub(feeAnyone) */\n      tag_256\n        /* \"Ethereum/Presale.sol\":5303:5312  feeAnyone */\n      sload(0x1f)\n        /* \"Ethereum/Presale.sol\":5285:5298  fullPercenFee */\n      dup7\n        /* \"Ethereum/Presale.sol\":5285:5302  fullPercenFee.sub */\n      tag_220\n      swap1\n        /* \"Ethereum/Presale.sol\":5285:5313  fullPercenFee.sub(feeAnyone) */\n      swap2\n      swap1\n      0xffffffff\n      and\n      jump\t// in\n        /* \"Ethereum/Presale.sol\":5283:5416  ((fullPercenFee.sub(feeAnyone))\r... */\n    tag_308:\n        /* \"Ethereum/Presale.sol\":5266:5416  real_amount_in = ((fullPercenFee.sub(feeAnyone))\r... */\n      swap3\n      pop\n        /* \"Ethereum/Presale.sol\":5437:5463  amount_in - real_amount_in */\n      tag_311\n        /* \"Ethereum/Presale.sol\":5266:5416  real_amount_in = ((fullPercenFee.sub(feeAnyone))\r... */\n      dup4\n        /* \"Ethereum/Presale.sol\":5437:5446  amount_in */\n      dup6\n        /* \"Ethereum/Presale.sol\":5437:5463  amount_in - real_amount_in */\n      tag_244\n      jump\t// in\n    tag_311:\n        /* \"Ethereum/Presale.sol\":5431:5463  fee = amount_in - real_amount_in */\n      swap2\n      pop\n        /* \"Ethereum/Presale.sol\":5226:5492  if(!checkAdminAddress()) {\r... */\n    tag_307:\n        /* \"Ethereum/Presale.sol\":5557:5574  buyer.baseDeposit */\n      dup5\n      sload\n        /* \"Ethereum/Presale.sol\":5528:5554  saleInfor.maxSpendPerBuyer */\n      sload(0x16)\n        /* \"Ethereum/Presale.sol\":5502:5525  uint256 remainingByUser */\n      0x00\n      swap2\n        /* \"Ethereum/Presale.sol\":5528:5574  saleInfor.maxSpendPerBuyer - buyer.baseDeposit */\n      tag_312\n      swap2\n      tag_244\n      jump\t// in\n    tag_312:\n        /* \"Ethereum/Presale.sol\":5642:5655  presaleStatus */\n      0x04\n        /* \"Ethereum/Presale.sol\":5642:5674  presaleStatus.totalBaseCollected */\n      sload\n        /* \"Ethereum/Presale.sol\":5611:5639  saleInfor.amountTokenForSale */\n      sload(0x1a)\n        /* \"Ethereum/Presale.sol\":5502:5574  uint256 remainingByUser = saleInfor.maxSpendPerBuyer - buyer.baseDeposit */\n      swap2\n      swap3\n      pop\n        /* \"Ethereum/Presale.sol\":5585:5608  uint256 remainingByPool */\n      0x00\n      swap2\n        /* \"Ethereum/Presale.sol\":5611:5674  saleInfor.amountTokenForSale - presaleStatus.totalBaseCollected */\n      tag_313\n      swap2\n        /* \"Ethereum/Presale.sol\":5642:5674  presaleStatus.totalBaseCollected */\n      swap1\n        /* \"Ethereum/Presale.sol\":5611:5674  saleInfor.amountTokenForSale - presaleStatus.totalBaseCollected */\n      tag_244\n      jump\t// in\n    tag_313:\n        /* \"Ethereum/Presale.sol\":5585:5674  uint256 remainingByPool = saleInfor.amountTokenForSale - presaleStatus.totalBaseCollected */\n      swap1\n      pop\n        /* \"Ethereum/Presale.sol\":5685:5702  uint256 allowance */\n      0x00\n        /* \"Ethereum/Presale.sol\":5723:5738  remainingByPool */\n      dup2\n        /* \"Ethereum/Presale.sol\":5705:5720  remainingByUser */\n      dup4\n        /* \"Ethereum/Presale.sol\":5705:5738  remainingByUser > remainingByPool */\n      gt\n        /* \"Ethereum/Presale.sol\":5705:5774  remainingByUser > remainingByPool ? remainingByPool : remainingByUser */\n      tag_314\n      jumpi\n        /* \"Ethereum/Presale.sol\":5759:5774  remainingByUser */\n      dup3\n        /* \"Ethereum/Presale.sol\":5705:5774  remainingByUser > remainingByPool ? remainingByPool : remainingByUser */\n      jump(tag_315)\n    tag_314:\n        /* \"Ethereum/Presale.sol\":5741:5756  remainingByPool */\n      dup2\n        /* \"Ethereum/Presale.sol\":5705:5774  remainingByUser > remainingByPool ? remainingByPool : remainingByUser */\n    tag_315:\n        /* \"Ethereum/Presale.sol\":5685:5774  uint256 allowance = remainingByUser > remainingByPool ? remainingByPool : remainingByUser */\n      swap1\n      pop\n        /* \"Ethereum/Presale.sol\":5811:5820  allowance */\n      dup1\n        /* \"Ethereum/Presale.sol\":5793:5807  real_amount_in */\n      dup7\n        /* \"Ethereum/Presale.sol\":5793:5820  real_amount_in <= allowance */\n      gt\n      iszero\n        /* \"Ethereum/Presale.sol\":5785:5840  require(real_amount_in <= allowance, \"Sale is success\") */\n      tag_316\n      jumpi\n      mload(0x40)\n      shl(0xe5, 0x461bcd)\n      dup2\n      mstore\n        /* \"#utility.yul\":12039:12041   */\n      0x20\n        /* \"Ethereum/Presale.sol\":5785:5840  require(real_amount_in <= allowance, \"Sale is success\") */\n      0x04\n      dup3\n      add\n        /* \"#utility.yul\":12021:12042   */\n      mstore\n        /* \"#utility.yul\":12078:12080   */\n      0x0f\n        /* \"#utility.yul\":12058:12076   */\n      0x24\n      dup3\n      add\n        /* \"#utility.yul\":12051:12081   */\n      mstore\n      shl(0x88, 0x53616c652069732073756363657373)\n        /* \"#utility.yul\":12097:12115   */\n      0x44\n      dup3\n      add\n        /* \"#utility.yul\":12090:12135   */\n      mstore\n        /* \"#utility.yul\":12152:12170   */\n      0x64\n      add\n        /* \"Ethereum/Presale.sol\":5785:5840  require(real_amount_in <= allowance, \"Sale is success\") */\n      tag_195\n        /* \"#utility.yul\":12011:12176   */\n      jump\n        /* \"Ethereum/Presale.sol\":5785:5840  require(real_amount_in <= allowance, \"Sale is success\") */\n    tag_316:\n        /* \"Ethereum/Presale.sol\":5851:5868  uint256 tokenSold */\n      0x00\n        /* \"Ethereum/Presale.sol\":5872:6030  real_amount_in.\r... */\n      tag_319\n        /* \"Ethereum/Presale.sol\":5997:6006  saleInfor */\n      0x0f\n        /* \"Ethereum/Presale.sol\":5997:6016  saleInfor.baseToken */\n      0x02\n      add\n      0x00\n      swap1\n      sload\n      swap1\n      0x0100\n      exp\n      swap1\n      div\n      sub(shl(0xa0, 0x01), 0x01)\n      and\n      sub(shl(0xa0, 0x01), 0x01)\n        /* \"Ethereum/Presale.sol\":5991:6026  ERC20(saleInfor.baseToken).decimals */\n      and\n      0x313ce567\n        /* \"Ethereum/Presale.sol\":5991:6028  ERC20(saleInfor.baseToken).decimals() */\n      mload(0x40)\n      dup2\n      0xffffffff\n      and\n      0xe0\n      shl\n      dup2\n      mstore\n      0x04\n      add\n      0x20\n      mload(0x40)\n      dup1\n      dup4\n      sub\n      dup2\n      dup7\n      dup1\n      extcodesize\n      iszero\n      dup1\n      iszero\n      tag_320\n      jumpi\n      0x00\n      dup1\n      revert\n    tag_320:\n      pop\n      gas\n      staticcall\n      iszero\n      dup1\n      iszero\n      tag_322\n      jumpi\n      returndatasize\n      0x00\n      dup1\n      returndatacopy\n      revert(0x00, returndatasize)\n    tag_322:\n      pop\n      pop\n      pop\n      pop\n      mload(0x40)\n      returndatasize\n      not(0x1f)\n      0x1f\n      dup3\n      add\n      and\n      dup3\n      add\n      dup1\n      0x40\n      mstore\n      pop\n      dup2\n      add\n      swap1\n      tag_323\n      swap2\n      swap1\n      tag_134\n      jump\t// in\n    tag_323:\n        /* \"Ethereum/Presale.sol\":5977:6029  10 ** uint256(ERC20(saleInfor.baseToken).decimals()) */\n      tag_324\n      swap1\n        /* \"Ethereum/Presale.sol\":5977:5979  10 */\n      0x0a\n        /* \"Ethereum/Presale.sol\":5977:6029  10 ** uint256(ERC20(saleInfor.baseToken).decimals()) */\n      tag_136\n      jump\t// in\n    tag_324:\n        /* \"Ethereum/Presale.sol\":5921:5941  saleInfor.tokenPrice */\n      sload(0x12)\n        /* \"Ethereum/Presale.sol\":5872:5942  real_amount_in.\r... */\n      tag_255\n      swap1\n        /* \"Ethereum/Presale.sol\":5872:5886  real_amount_in */\n      dup11\n      swap1\n        /* \"Ethereum/Presale.sol\":5872:5920  real_amount_in.\r... */\n      tag_178\n        /* \"Ethereum/Presale.sol\":5872:5942  real_amount_in.\r... */\n      jump\t// in\n        /* \"Ethereum/Presale.sol\":5872:6030  real_amount_in.\r... */\n    tag_319:\n        /* \"Ethereum/Presale.sol\":5851:6031  uint256 tokenSold = (real_amount_in.\r... */\n      swap1\n      pop\n        /* \"Ethereum/Presale.sol\":6080:6094  real_amount_in */\n      dup7\n        /* \"Ethereum/Presale.sol\":6059:6064  buyer */\n      dup10\n        /* \"Ethereum/Presale.sol\":6059:6076  buyer.baseDeposit */\n      0x00\n      add\n      0x00\n        /* \"Ethereum/Presale.sol\":6059:6094  buyer.baseDeposit += real_amount_in */\n      dup3\n      dup3\n      sload\n      tag_326\n      swap2\n      swap1\n      tag_260\n      jump\t// in\n    tag_326:\n      swap3\n      pop\n      pop\n      dup2\n      swap1\n      sstore\n      pop\n        /* \"Ethereum/Presale.sol\":6125:6134  tokenSold */\n      dup1\n        /* \"Ethereum/Presale.sol\":6105:6110  buyer */\n      dup10\n        /* \"Ethereum/Presale.sol\":6105:6121  buyer.tokenOwner */\n      0x01\n      add\n      0x00\n        /* \"Ethereum/Presale.sol\":6105:6134  buyer.tokenOwner += tokenSold */\n      dup3\n      dup3\n      sload\n      tag_327\n      swap2\n      swap1\n      tag_260\n      jump\t// in\n    tag_327:\n      swap1\n      swap2\n      sstore\n      pop\n      pop\n        /* \"Ethereum/Presale.sol\":6145:6158  presaleStatus */\n      0x04\n        /* \"Ethereum/Presale.sol\":6145:6195  presaleStatus.totalBaseCollected += real_amount_in */\n      dup1\n      sload\n        /* \"Ethereum/Presale.sol\":6181:6195  real_amount_in */\n      dup9\n      swap2\n        /* \"Ethereum/Presale.sol\":6145:6158  presaleStatus */\n      swap1\n        /* \"Ethereum/Presale.sol\":6145:6177  presaleStatus.totalBaseCollected */\n      0x00\n      swap1\n        /* \"Ethereum/Presale.sol\":6145:6195  presaleStatus.totalBaseCollected += real_amount_in */\n      tag_328\n      swap1\n        /* \"Ethereum/Presale.sol\":6181:6195  real_amount_in */\n      dup5\n      swap1\n        /* \"Ethereum/Presale.sol\":6145:6195  presaleStatus.totalBaseCollected += real_amount_in */\n      tag_260\n      jump\t// in\n    tag_328:\n      swap1\n      swap2\n      sstore\n      pop\n      pop\n        /* \"Ethereum/Presale.sol\":6206:6234  presaleStatus.totalTokenSold */\n      0x05\n        /* \"Ethereum/Presale.sol\":6206:6247  presaleStatus.totalTokenSold += tokenSold */\n      dup1\n      sload\n        /* \"Ethereum/Presale.sol\":6238:6247  tokenSold */\n      dup3\n      swap2\n        /* \"Ethereum/Presale.sol\":6206:6234  presaleStatus.totalTokenSold */\n      swap1\n      0x00\n      swap1\n        /* \"Ethereum/Presale.sol\":6206:6247  presaleStatus.totalTokenSold += tokenSold */\n      tag_329\n      swap1\n        /* \"Ethereum/Presale.sol\":6238:6247  tokenSold */\n      dup5\n      swap1\n        /* \"Ethereum/Presale.sol\":6206:6247  presaleStatus.totalTokenSold += tokenSold */\n      tag_260\n      jump\t// in\n    tag_329:\n      swap1\n      swap2\n      sstore\n      pop\n      pop\n        /* \"Ethereum/Presale.sol\":6258:6283  presaleStatus.numberBuyer */\n      0x0a\n        /* \"Ethereum/Presale.sol\":6258:6285  presaleStatus.numberBuyer++ */\n      dup1\n      sload\n      swap1\n        /* \"Ethereum/Presale.sol\":6258:6283  presaleStatus.numberBuyer */\n      0x00\n        /* \"Ethereum/Presale.sol\":6258:6285  presaleStatus.numberBuyer++ */\n      tag_330\n      dup4\n      tag_331\n      jump\t// in\n    tag_330:\n      swap1\n      swap2\n      sstore\n      pop\n      pop\n        /* \"Ethereum/Presale.sol\":6304:6314  msg.sender */\n      caller\n        /* \"Ethereum/Presale.sol\":6296:6315  userFee[msg.sender] */\n      0x00\n      swap1\n      dup2\n      mstore\n        /* \"Ethereum/Presale.sol\":6296:6303  userFee */\n      0x03\n        /* \"Ethereum/Presale.sol\":6296:6315  userFee[msg.sender] */\n      0x20\n      mstore\n      0x40\n      dup2\n      keccak256\n        /* \"Ethereum/Presale.sol\":6296:6322  userFee[msg.sender] += fee */\n      dup1\n      sload\n        /* \"Ethereum/Presale.sol\":6319:6322  fee */\n      dup9\n      swap3\n        /* \"Ethereum/Presale.sol\":6296:6315  userFee[msg.sender] */\n      swap1\n        /* \"Ethereum/Presale.sol\":6296:6322  userFee[msg.sender] += fee */\n      tag_332\n      swap1\n        /* \"Ethereum/Presale.sol\":6319:6322  fee */\n      dup5\n      swap1\n        /* \"Ethereum/Presale.sol\":6296:6322  userFee[msg.sender] += fee */\n      tag_260\n      jump\t// in\n    tag_332:\n      swap3\n      pop\n      pop\n      dup2\n      swap1\n      sstore\n      pop\n        /* \"Ethereum/Presale.sol\":6345:6348  fee */\n      dup6\n        /* \"Ethereum/Presale.sol\":6333:6341  totalFee */\n      0x1e\n      0x00\n        /* \"Ethereum/Presale.sol\":6333:6348  totalFee += fee */\n      dup3\n      dup3\n      sload\n      tag_333\n      swap2\n      swap1\n      tag_260\n      jump\t// in\n    tag_333:\n      swap1\n      swap2\n      sstore\n      pop\n      pop\n        /* \"Ethereum/Presale.sol\":6364:6389  saleInfor.saleIsBaseToken */\n      and(0xff, sload(0x19))\n        /* \"Ethereum/Presale.sol\":6364:6426  saleInfor.saleIsBaseToken && real_amount_in + fee <= msg.value */\n      dup1\n      iszero\n      tag_334\n      jumpi\n      pop\n        /* \"Ethereum/Presale.sol\":6417:6426  msg.value */\n      callvalue\n        /* \"Ethereum/Presale.sol\":6393:6413  real_amount_in + fee */\n      tag_335\n        /* \"Ethereum/Presale.sol\":6410:6413  fee */\n      dup8\n        /* \"Ethereum/Presale.sol\":6393:6407  real_amount_in */\n      dup10\n        /* \"Ethereum/Presale.sol\":6393:6413  real_amount_in + fee */\n      tag_260\n      jump\t// in\n    tag_335:\n        /* \"Ethereum/Presale.sol\":6393:6426  real_amount_in + fee <= msg.value */\n      gt\n      iszero\n        /* \"Ethereum/Presale.sol\":6364:6426  saleInfor.saleIsBaseToken && real_amount_in + fee <= msg.value */\n    tag_334:\n        /* \"Ethereum/Presale.sol\":6361:6517  if(saleInfor.saleIsBaseToken && real_amount_in + fee <= msg.value) {\r... */\n      iszero\n      tag_336\n      jumpi\n        /* \"Ethereum/Presale.sol\":6451:6461  msg.sender */\n      caller\n        /* \"Ethereum/Presale.sol\":6443:6505  payable(msg.sender).transfer(msg.value - real_amount_in - fee) */\n      0x08fc\n        /* \"Ethereum/Presale.sol\":6501:6504  fee */\n      dup8\n        /* \"Ethereum/Presale.sol\":6472:6498  msg.value - real_amount_in */\n      tag_337\n        /* \"Ethereum/Presale.sol\":6484:6498  real_amount_in */\n      dup11\n        /* \"Ethereum/Presale.sol\":6472:6481  msg.value */\n      callvalue\n        /* \"Ethereum/Presale.sol\":6472:6498  msg.value - real_amount_in */\n      tag_244\n      jump\t// in\n    tag_337:\n        /* \"Ethereum/Presale.sol\":6472:6504  msg.value - real_amount_in - fee */\n      tag_338\n      swap2\n      swap1\n      tag_244\n      jump\t// in\n    tag_338:\n        /* \"Ethereum/Presale.sol\":6443:6505  payable(msg.sender).transfer(msg.value - real_amount_in - fee) */\n      mload(0x40)\n      dup2\n      iszero\n      swap1\n      swap3\n      mul\n      swap2\n      0x00\n      dup2\n      dup2\n      dup2\n      dup6\n      dup9\n      dup9\n      call\n      swap4\n      pop\n      pop\n      pop\n      pop\n      iszero\n      dup1\n      iszero\n      tag_340\n      jumpi\n      returndatasize\n      0x00\n      dup1\n      returndatacopy\n      revert(0x00, returndatasize)\n    tag_340:\n      pop\n        /* \"Ethereum/Presale.sol\":6361:6517  if(saleInfor.saleIsBaseToken && real_amount_in + fee <= msg.value) {\r... */\n    tag_336:\n        /* \"Ethereum/Presale.sol\":6532:6557  saleInfor.saleIsBaseToken */\n      and(0xff, sload(0x19))\n        /* \"Ethereum/Presale.sol\":6528:6779  if(!saleInfor.saleIsBaseToken) {\r... */\n      tag_342\n      jumpi\n        /* \"Ethereum/Presale.sol\":6632:6651  saleInfor.baseToken */\n      sload(0x11)\n        /* \"Ethereum/Presale.sol\":6574:6767  TransferHelper.safeTransferFrom(\r... */\n      tag_342\n      swap1\n      sub(shl(0xa0, 0x01), 0x01)\n        /* \"Ethereum/Presale.sol\":6632:6651  saleInfor.baseToken */\n      and\n        /* \"Ethereum/Presale.sol\":6671:6681  msg.sender */\n      caller\n        /* \"Ethereum/Presale.sol\":6708:6712  this */\n      address\n        /* \"Ethereum/Presale.sol\":6732:6752  real_amount_in + fee */\n      tag_343\n        /* \"Ethereum/Presale.sol\":6749:6752  fee */\n      dup11\n        /* \"Ethereum/Presale.sol\":6732:6746  real_amount_in */\n      dup13\n        /* \"Ethereum/Presale.sol\":6732:6752  real_amount_in + fee */\n      tag_260\n      jump\t// in\n    tag_343:\n        /* \"Ethereum/Presale.sol\":6574:6605  TransferHelper.safeTransferFrom */\n      tag_344\n        /* \"Ethereum/Presale.sol\":6574:6767  TransferHelper.safeTransferFrom(\r... */\n      jump\t// in\n    tag_342:\n      pop\n      pop\n        /* \"Utils/ReentrancyGuard.sol\":1734:1735  1 */\n      0x01\n        /* \"Utils/ReentrancyGuard.sol\":2688:2695  _status */\n      0x00\n        /* \"Utils/ReentrancyGuard.sol\":2688:2710  _status = _NOT_ENTERED */\n      sstore\n      pop\n      pop\n      pop\n      pop\n      pop\n      pop\n      pop\n      pop\n        /* \"Ethereum/Presale.sol\":4586:6798  function deposit(uint256 _amount) external payable nonReentrant {\r... */\n      jump\t// out\n        /* \"Ethereum/Presale.sol\":4468:4578  function checkAdminAddress() public view returns(bool) {\r... */\n    tag_101:\n        /* \"Ethereum/Presale.sol\":4517:4521  bool */\n      0x00\n        /* \"Ethereum/Presale.sol\":4541:4570  admins.contains(_msgSender()) */\n      tag_346\n        /* \"Ethereum/Presale.sol\":4541:4547  admins */\n      0x1c\n        /* \"Utils/Context.sol\":736:746  msg.sender */\n      caller\n        /* \"Ethereum/Presale.sol\":4541:4556  admins.contains */\n      tag_348\n        /* \"Ethereum/Presale.sol\":4541:4570  admins.contains(_msgSender()) */\n      jump\t// in\n    tag_346:\n        /* \"Ethereum/Presale.sol\":4534:4570  return admins.contains(_msgSender()) */\n      swap1\n      pop\n        /* \"Ethereum/Presale.sol\":4468:4578  function checkAdminAddress() public view returns(bool) {\r... */\n      swap1\n      jump\t// out\n        /* \"Ethereum/Presale.sol\":10047:11620  function userClaimOrRefundWhenSaleSuccess(bool isClaim) external {\r... */\n    tag_118:\n        /* \"Ethereum/Presale.sol\":10187:10194  isClaim */\n      dup1\n        /* \"Ethereum/Presale.sol\":10184:11613  if(isClaim){\r... */\n      iszero\n      tag_350\n      jumpi\n        /* \"Ethereum/Presale.sol\":10249:10281  presaleStatus.totalTokenWithDraw */\n      sload(0x06)\n        /* \"Ethereum/Presale.sol\":10218:10246  presaleStatus.totalTokenSold */\n      sload(0x05)\n        /* \"Ethereum/Presale.sol\":10284:10285  0 */\n      0x00\n      swap2\n        /* \"Ethereum/Presale.sol\":10218:10281  presaleStatus.totalTokenSold - presaleStatus.totalTokenWithDraw */\n      tag_351\n      swap2\n      tag_244\n      jump\t// in\n    tag_351:\n        /* \"Ethereum/Presale.sol\":10218:10285  presaleStatus.totalTokenSold - presaleStatus.totalTokenWithDraw > 0 */\n      gt\n        /* \"Ethereum/Presale.sol\":10210:10349  require(presaleStatus.totalTokenSold - presaleStatus.totalTokenWithDraw > 0, \r... */\n      tag_352\n      jumpi\n      mload(0x40)\n      shl(0xe5, 0x461bcd)\n      dup2\n      mstore\n      0x04\n      add\n      tag_195\n      swap1\n      tag_247\n      jump\t// in\n    tag_352:\n        /* \"Ethereum/Presale.sol\":10400:10410  msg.sender */\n      caller\n        /* \"Ethereum/Presale.sol\":10364:10387  BuyerInfo storage buyer */\n      0x00\n        /* \"Ethereum/Presale.sol\":10390:10411  buyerInfo[msg.sender] */\n      swap1\n      dup2\n      mstore\n        /* \"Ethereum/Presale.sol\":10390:10399  buyerInfo */\n      0x02\n        /* \"Ethereum/Presale.sol\":10390:10411  buyerInfo[msg.sender] */\n      0x20\n      mstore\n      0x40\n      swap1\n      keccak256\n        /* \"Ethereum/Presale.sol\":10453:10477  buyer.totalTokenWithDraw */\n      0x03\n      dup2\n      add\n      sload\n        /* \"Ethereum/Presale.sol\":10434:10450  buyer.tokenOwner */\n      0x01\n      dup3\n      add\n      sload\n        /* \"Ethereum/Presale.sol\":10434:10477  buyer.tokenOwner > buyer.totalTokenWithDraw */\n      gt\n        /* \"Ethereum/Presale.sol\":10426:10518  require(buyer.tokenOwner > buyer.totalTokenWithDraw, \"You claim all or have not bought yet\") */\n      tag_354\n      jumpi\n      mload(0x40)\n      shl(0xe5, 0x461bcd)\n      dup2\n      mstore\n        /* \"#utility.yul\":9115:9117   */\n      0x20\n        /* \"Ethereum/Presale.sol\":10426:10518  require(buyer.tokenOwner > buyer.totalTokenWithDraw, \"You claim all or have not bought yet\") */\n      0x04\n      dup3\n      add\n        /* \"#utility.yul\":9097:9118   */\n      mstore\n        /* \"#utility.yul\":9154:9156   */\n      0x24\n        /* \"#utility.yul\":9134:9152   */\n      dup1\n      dup3\n      add\n        /* \"#utility.yul\":9127:9157   */\n      mstore\n        /* \"#utility.yul\":9193:9227   */\n      0x596f7520636c61696d20616c6c206f722068617665206e6f7420626f75676874\n        /* \"#utility.yul\":9173:9191   */\n      0x44\n      dup3\n      add\n        /* \"#utility.yul\":9166:9228   */\n      mstore\n      shl(0xe2, 0x081e595d)\n        /* \"#utility.yul\":9244:9262   */\n      0x64\n      dup3\n      add\n        /* \"#utility.yul\":9237:9271   */\n      mstore\n        /* \"#utility.yul\":9288:9307   */\n      0x84\n      add\n        /* \"Ethereum/Presale.sol\":10426:10518  require(buyer.tokenOwner > buyer.totalTokenWithDraw, \"You claim all or have not bought yet\") */\n      tag_195\n        /* \"#utility.yul\":9087:9313   */\n      jump\n        /* \"Ethereum/Presale.sol\":10426:10518  require(buyer.tokenOwner > buyer.totalTokenWithDraw, \"You claim all or have not bought yet\") */\n    tag_354:\n        /* \"Ethereum/Presale.sol\":10539:10558  saleInfor.saleToken */\n      sload(0x10)\n      0x01\n        /* \"Ethereum/Presale.sol\":10581:10597  buyer.tokenOwner */\n      dup3\n      add\n      sload\n        /* \"Ethereum/Presale.sol\":10533:10598  ERC20(saleInfor.saleToken).transfer(msg.sender, buyer.tokenOwner) */\n      mload(0x40)\n      shl(0xe0, 0xa9059cbb)\n      dup2\n      mstore\n        /* \"Ethereum/Presale.sol\":10569:10579  msg.sender */\n      caller\n        /* \"Ethereum/Presale.sol\":10533:10598  ERC20(saleInfor.saleToken).transfer(msg.sender, buyer.tokenOwner) */\n      0x04\n      dup3\n      add\n        /* \"#utility.yul\":4814:4865   */\n      mstore\n        /* \"#utility.yul\":4881:4899   */\n      0x24\n      dup2\n      add\n        /* \"#utility.yul\":4874:4908   */\n      swap2\n      swap1\n      swap2\n      mstore\n      sub(shl(0xa0, 0x01), 0x01)\n        /* \"Ethereum/Presale.sol\":10539:10558  saleInfor.saleToken */\n      swap1\n      swap2\n      and\n      swap1\n        /* \"Ethereum/Presale.sol\":10533:10568  ERC20(saleInfor.saleToken).transfer */\n      0xa9059cbb\n      swap1\n        /* \"#utility.yul\":4787:4805   */\n      0x44\n      add\n        /* \"Ethereum/Presale.sol\":10533:10598  ERC20(saleInfor.saleToken).transfer(msg.sender, buyer.tokenOwner) */\n      0x20\n      mload(0x40)\n      dup1\n      dup4\n      sub\n      dup2\n      0x00\n      dup8\n      dup1\n      extcodesize\n      iszero\n      dup1\n      iszero\n      tag_358\n      jumpi\n      0x00\n      dup1\n      revert\n    tag_358:\n      pop\n      gas\n      call\n      iszero\n      dup1\n      iszero\n      tag_360\n      jumpi\n      returndatasize\n      0x00\n      dup1\n      returndatacopy\n      revert(0x00, returndatasize)\n    tag_360:\n      pop\n      pop\n      pop\n      pop\n      mload(0x40)\n      returndatasize\n      not(0x1f)\n      0x1f\n      dup3\n      add\n      and\n      dup3\n      add\n      dup1\n      0x40\n      mstore\n      pop\n      dup2\n      add\n      swap1\n      tag_361\n      swap2\n      swap1\n      tag_236\n      jump\t// in\n    tag_361:\n      pop\n        /* \"Ethereum/Presale.sol\":10649:10665  buyer.tokenOwner */\n      0x01\n      dup2\n      add\n      sload\n        /* \"Ethereum/Presale.sol\":10613:10645  presaleStatus.totalTokenWithDraw */\n      0x06\n        /* \"Ethereum/Presale.sol\":10613:10665  presaleStatus.totalTokenWithDraw += buyer.tokenOwner */\n      dup1\n      sload\n        /* \"Ethereum/Presale.sol\":10613:10645  presaleStatus.totalTokenWithDraw */\n      0x00\n      swap1\n        /* \"Ethereum/Presale.sol\":10613:10665  presaleStatus.totalTokenWithDraw += buyer.tokenOwner */\n      tag_362\n      swap1\n        /* \"Ethereum/Presale.sol\":10649:10665  buyer.tokenOwner */\n      dup5\n      swap1\n        /* \"Ethereum/Presale.sol\":10613:10665  presaleStatus.totalTokenWithDraw += buyer.tokenOwner */\n      tag_260\n      jump\t// in\n    tag_362:\n      swap1\n      swap2\n      sstore\n      pop\n      pop\n        /* \"Ethereum/Presale.sol\":10712:10728  buyer.tokenOwner */\n      0x01\n      dup2\n      add\n      sload\n        /* \"Ethereum/Presale.sol\":10680:10708  saleInfor.amountTokenForSale */\n      0x1a\n        /* \"Ethereum/Presale.sol\":10680:10728  saleInfor.amountTokenForSale -= buyer.tokenOwner */\n      dup1\n      sload\n        /* \"Ethereum/Presale.sol\":10680:10708  saleInfor.amountTokenForSale */\n      0x00\n      swap1\n        /* \"Ethereum/Presale.sol\":10680:10728  saleInfor.amountTokenForSale -= buyer.tokenOwner */\n      tag_363\n      swap1\n        /* \"Ethereum/Presale.sol\":10712:10728  buyer.tokenOwner */\n      dup5\n      swap1\n        /* \"Ethereum/Presale.sol\":10680:10728  saleInfor.amountTokenForSale -= buyer.tokenOwner */\n      tag_244\n      jump\t// in\n    tag_363:\n      swap1\n      swap2\n      sstore\n      pop\n      pop\n        /* \"Ethereum/Presale.sol\":10771:10787  buyer.tokenOwner */\n      0x01\n      dup2\n      add\n      sload\n        /* \"Ethereum/Presale.sol\":10743:10767  buyer.totalTokenWithDraw */\n      0x03\n      dup3\n      add\n        /* \"Ethereum/Presale.sol\":10743:10787  buyer.totalTokenWithDraw += buyer.tokenOwner */\n      dup1\n      sload\n        /* \"Ethereum/Presale.sol\":10743:10767  buyer.totalTokenWithDraw */\n      0x00\n      swap1\n        /* \"Ethereum/Presale.sol\":10743:10787  buyer.totalTokenWithDraw += buyer.tokenOwner */\n      tag_364\n      swap1\n        /* \"Ethereum/Presale.sol\":10771:10787  buyer.tokenOwner */\n      dup5\n      swap1\n        /* \"Ethereum/Presale.sol\":10743:10787  buyer.totalTokenWithDraw += buyer.tokenOwner */\n      tag_260\n      jump\t// in\n    tag_364:\n      swap1\n      swap2\n      sstore\n      pop\n      pop\n        /* \"Ethereum/Presale.sol\":10822:10823  0 */\n      0x00\n        /* \"Ethereum/Presale.sol\":10802:10823  buyer.baseDeposit = 0 */\n      dup1\n      dup3\n      sstore\n        /* \"Ethereum/Presale.sol\":10838:10854  buyer.tokenOwner */\n      0x01\n      dup3\n      add\n        /* \"Ethereum/Presale.sol\":10838:10858  buyer.tokenOwner = 0 */\n      sstore\n        /* \"Ethereum/Presale.sol\":10894:10909  block.timestamp */\n      timestamp\n        /* \"Ethereum/Presale.sol\":10873:10891  buyer.lastWithDraw */\n      0x02\n      swap1\n      swap2\n      add\n        /* \"Ethereum/Presale.sol\":10873:10909  buyer.lastWithDraw = block.timestamp */\n      sstore\n        /* \"Ethereum/Presale.sol\":11799:11850  payable(msg.sender).transfer(address(this).balance) */\n      pop\n        /* \"Ethereum/Presale.sol\":11750:11858  function backToken() external payable {\r... */\n      jump\t// out\n        /* \"Ethereum/Presale.sol\":10184:11613  if(isClaim){\r... */\n    tag_350:\n        /* \"Ethereum/Presale.sol\":10997:11028  presaleStatus.totalBaseWithDraw */\n      sload(0x07)\n        /* \"Ethereum/Presale.sol\":10997:11010  presaleStatus */\n      0x04\n        /* \"Ethereum/Presale.sol\":10962:10994  presaleStatus.totalBaseCollected */\n      sload\n        /* \"Ethereum/Presale.sol\":11031:11032  0 */\n      0x00\n      swap2\n        /* \"Ethereum/Presale.sol\":10962:11028  presaleStatus.totalBaseCollected - presaleStatus.totalBaseWithDraw */\n      tag_366\n      swap2\n      tag_244\n      jump\t// in\n    tag_366:\n        /* \"Ethereum/Presale.sol\":10962:11032  presaleStatus.totalBaseCollected - presaleStatus.totalBaseWithDraw > 0 */\n      gt\n        /* \"Ethereum/Presale.sol\":10954:11096  require(presaleStatus.totalBaseCollected - presaleStatus.totalBaseWithDraw > 0, \r... */\n      tag_367\n      jumpi\n      mload(0x40)\n      shl(0xe5, 0x461bcd)\n      dup2\n      mstore\n      0x04\n      add\n      tag_195\n      swap1\n      tag_247\n      jump\t// in\n    tag_367:\n        /* \"Ethereum/Presale.sol\":11148:11158  msg.sender */\n      caller\n        /* \"Ethereum/Presale.sol\":11112:11135  BuyerInfo storage buyer */\n      0x00\n        /* \"Ethereum/Presale.sol\":11138:11159  buyerInfo[msg.sender] */\n      swap1\n      dup2\n      mstore\n        /* \"Ethereum/Presale.sol\":11138:11147  buyerInfo */\n      0x02\n        /* \"Ethereum/Presale.sol\":11138:11159  buyerInfo[msg.sender] */\n      0x20\n      mstore\n      0x40\n      swap1\n      keccak256\n        /* \"Ethereum/Presale.sol\":11182:11199  buyer.baseDeposit */\n      dup1\n      sload\n        /* \"Ethereum/Presale.sol\":11174:11245  require(buyer.baseDeposit > 0, \"You refund all or have not bought yet\") */\n      tag_369\n      jumpi\n      mload(0x40)\n      shl(0xe5, 0x461bcd)\n      dup2\n      mstore\n        /* \"#utility.yul\":8366:8368   */\n      0x20\n        /* \"Ethereum/Presale.sol\":11174:11245  require(buyer.baseDeposit > 0, \"You refund all or have not bought yet\") */\n      0x04\n      dup3\n      add\n        /* \"#utility.yul\":8348:8369   */\n      mstore\n        /* \"#utility.yul\":8405:8407   */\n      0x25\n        /* \"#utility.yul\":8385:8403   */\n      0x24\n      dup3\n      add\n        /* \"#utility.yul\":8378:8408   */\n      mstore\n        /* \"#utility.yul\":8444:8478   */\n      0x596f7520726566756e6420616c6c206f722068617665206e6f7420626f756768\n        /* \"#utility.yul\":8424:8442   */\n      0x44\n      dup3\n      add\n        /* \"#utility.yul\":8417:8479   */\n      mstore\n      shl(0xda, 0x1d081e595d)\n        /* \"#utility.yul\":8495:8513   */\n      0x64\n      dup3\n      add\n        /* \"#utility.yul\":8488:8523   */\n      mstore\n        /* \"#utility.yul\":8540:8559   */\n      0x84\n      add\n        /* \"Ethereum/Presale.sol\":11174:11245  require(buyer.baseDeposit > 0, \"You refund all or have not bought yet\") */\n      tag_195\n        /* \"#utility.yul\":8338:8565   */\n      jump\n        /* \"Ethereum/Presale.sol\":11174:11245  require(buyer.baseDeposit > 0, \"You refund all or have not bought yet\") */\n    tag_369:\n        /* \"Ethereum/Presale.sol\":11283:11300  buyer.baseDeposit */\n      dup1\n      sload\n        /* \"Ethereum/Presale.sol\":11327:11359  buyer.baseDeposit - amountRefund */\n      tag_372\n        /* \"Ethereum/Presale.sol\":11283:11300  buyer.baseDeposit */\n      dup2\n      dup1\n        /* \"Ethereum/Presale.sol\":11327:11359  buyer.baseDeposit - amountRefund */\n      tag_244\n      jump\t// in\n    tag_372:\n        /* \"Ethereum/Presale.sol\":11315:11323  totalFee */\n      0x1e\n      0x00\n        /* \"Ethereum/Presale.sol\":11315:11359  totalFee += buyer.baseDeposit - amountRefund */\n      dup3\n      dup3\n      sload\n      tag_373\n      swap2\n      swap1\n      tag_260\n      jump\t// in\n    tag_373:\n      swap1\n      swap2\n      sstore\n      pop\n      pop\n        /* \"Ethereum/Presale.sol\":11374:11405  presaleStatus.totalBaseWithDraw */\n      0x07\n        /* \"Ethereum/Presale.sol\":11374:11421  presaleStatus.totalBaseWithDraw += amountRefund */\n      dup1\n      sload\n        /* \"Ethereum/Presale.sol\":11409:11421  amountRefund */\n      dup3\n      swap2\n        /* \"Ethereum/Presale.sol\":11374:11405  presaleStatus.totalBaseWithDraw */\n      swap1\n      0x00\n      swap1\n        /* \"Ethereum/Presale.sol\":11374:11421  presaleStatus.totalBaseWithDraw += amountRefund */\n      tag_374\n      swap1\n        /* \"Ethereum/Presale.sol\":11409:11421  amountRefund */\n      dup5\n      swap1\n        /* \"Ethereum/Presale.sol\":11374:11421  presaleStatus.totalBaseWithDraw += amountRefund */\n      tag_260\n      jump\t// in\n    tag_374:\n      swap1\n      swap2\n      sstore\n      pop\n      pop\n        /* \"Ethereum/Presale.sol\":11457:11458  0 */\n      0x00\n        /* \"Ethereum/Presale.sol\":11436:11458  buyer.baseDeposit  = 0 */\n      dup1\n      dup4\n      sstore\n        /* \"Ethereum/Presale.sol\":11473:11489  buyer.tokenOwner */\n      0x01\n      dup4\n      add\n        /* \"Ethereum/Presale.sol\":11473:11493  buyer.tokenOwner = 0 */\n      dup2\n      swap1\n      sstore\n        /* \"Ethereum/Presale.sol\":11529:11544  block.timestamp */\n      timestamp\n        /* \"Ethereum/Presale.sol\":11508:11526  buyer.lastWithDraw */\n      0x02\n      dup5\n      add\n        /* \"Ethereum/Presale.sol\":11508:11544  buyer.lastWithDraw = block.timestamp */\n      sstore\n        /* \"Ethereum/Presale.sol\":11559:11601  payable(msg.sender).transfer(amountRefund) */\n      mload(0x40)\n        /* \"Ethereum/Presale.sol\":11567:11577  msg.sender */\n      caller\n      swap2\n        /* \"Ethereum/Presale.sol\":11559:11601  payable(msg.sender).transfer(amountRefund) */\n      dup4\n      iszero\n      0x08fc\n      mul\n      swap2\n        /* \"Ethereum/Presale.sol\":11588:11600  amountRefund */\n      dup5\n      swap2\n        /* \"Ethereum/Presale.sol\":11559:11601  payable(msg.sender).transfer(amountRefund) */\n      dup2\n        /* \"Ethereum/Presale.sol\":11457:11458  0 */\n      dup2\n        /* \"Ethereum/Presale.sol\":11559:11601  payable(msg.sender).transfer(amountRefund) */\n      dup2\n        /* \"Ethereum/Presale.sol\":11588:11600  amountRefund */\n      dup6\n        /* \"Ethereum/Presale.sol\":11567:11577  msg.sender */\n      dup9\n        /* \"Ethereum/Presale.sol\":11559:11601  payable(msg.sender).transfer(amountRefund) */\n      dup9\n      call\n      swap4\n      pop\n      pop\n      pop\n      pop\n      iszero\n      dup1\n      iszero\n      tag_376\n      jumpi\n      returndatasize\n      0x00\n      dup1\n      returndatacopy\n      revert(0x00, returndatasize)\n    tag_376:\n      pop\n        /* \"Ethereum/Presale.sol\":10939:11613  {\r... */\n      pop\n      pop\n        /* \"Ethereum/Presale.sol\":10047:11620  function userClaimOrRefundWhenSaleSuccess(bool isClaim) external {\r... */\n      pop\n      jump\t// out\n        /* \"Utils/Ownable.sol\":1972:2173  function transferOwnership(address newOwner) public virtual onlyOwner {\r... */\n    tag_122:\n        /* \"Utils/Ownable.sol\":1136:1142  _owner */\n      and(sub(shl(0xa0, 0x01), 0x01), sload(0x01))\n        /* \"Utils/Context.sol\":736:746  msg.sender */\n      caller\n        /* \"Utils/Ownable.sol\":1283:1306  owner() == _msgSender() */\n      eq\n        /* \"Utils/Ownable.sol\":1275:1343  require(owner() == _msgSender(), \"Ownable: caller is not the owner\") */\n      tag_380\n      jumpi\n      mload(0x40)\n      shl(0xe5, 0x461bcd)\n      dup2\n      mstore\n        /* \"#utility.yul\":10212:10214   */\n      0x20\n        /* \"Utils/Ownable.sol\":1275:1343  require(owner() == _msgSender(), \"Ownable: caller is not the owner\") */\n      0x04\n      dup3\n      add\n        /* \"#utility.yul\":10194:10215   */\n      dup2\n      swap1\n      mstore\n        /* \"#utility.yul\":10231:10249   */\n      0x24\n      dup3\n      add\n        /* \"#utility.yul\":10224:10254   */\n      mstore\n        /* \"#utility.yul\":10290:10324   */\n      0x4f776e61626c653a2063616c6c6572206973206e6f7420746865206f776e6572\n        /* \"#utility.yul\":10270:10288   */\n      0x44\n      dup3\n      add\n        /* \"#utility.yul\":10263:10325   */\n      mstore\n        /* \"#utility.yul\":10342:10360   */\n      0x64\n      add\n        /* \"Utils/Ownable.sol\":1275:1343  require(owner() == _msgSender(), \"Ownable: caller is not the owner\") */\n      tag_195\n        /* \"#utility.yul\":10184:10366   */\n      jump\n        /* \"Utils/Ownable.sol\":1275:1343  require(owner() == _msgSender(), \"Ownable: caller is not the owner\") */\n    tag_380:\n      sub(shl(0xa0, 0x01), 0x01)\n        /* \"Utils/Ownable.sol\":2061:2083  newOwner != address(0) */\n      dup2\n      and\n        /* \"Utils/Ownable.sol\":2053:2126  require(newOwner != address(0), \"Ownable: new owner is the zero address\") */\n      tag_383\n      jumpi\n      mload(0x40)\n      shl(0xe5, 0x461bcd)\n      dup2\n      mstore\n        /* \"#utility.yul\":7257:7259   */\n      0x20\n        /* \"Utils/Ownable.sol\":2053:2126  require(newOwner != address(0), \"Ownable: new owner is the zero address\") */\n      0x04\n      dup3\n      add\n        /* \"#utility.yul\":7239:7260   */\n      mstore\n        /* \"#utility.yul\":7296:7298   */\n      0x26\n        /* \"#utility.yul\":7276:7294   */\n      0x24\n      dup3\n      add\n        /* \"#utility.yul\":7269:7299   */\n      mstore\n        /* \"#utility.yul\":7335:7369   */\n      0x4f776e61626c653a206e6577206f776e657220697320746865207a65726f2061\n        /* \"#utility.yul\":7315:7333   */\n      0x44\n      dup3\n      add\n        /* \"#utility.yul\":7308:7370   */\n      mstore\n      shl(0xd0, 0x646472657373)\n        /* \"#utility.yul\":7386:7404   */\n      0x64\n      dup3\n      add\n        /* \"#utility.yul\":7379:7415   */\n      mstore\n        /* \"#utility.yul\":7432:7451   */\n      0x84\n      add\n        /* \"Utils/Ownable.sol\":2053:2126  require(newOwner != address(0), \"Ownable: new owner is the zero address\") */\n      tag_195\n        /* \"#utility.yul\":7229:7457   */\n      jump\n        /* \"Utils/Ownable.sol\":2053:2126  require(newOwner != address(0), \"Ownable: new owner is the zero address\") */\n    tag_383:\n        /* \"Utils/Ownable.sol\":2137:2165  _transferOwnership(newOwner) */\n      tag_202\n        /* \"Utils/Ownable.sol\":2156:2164  newOwner */\n      dup2\n        /* \"Utils/Ownable.sol\":2137:2155  _transferOwnership */\n      tag_199\n        /* \"Utils/Ownable.sol\":2137:2165  _transferOwnership(newOwner) */\n      jump\t// in\n        /* \"Utils/EnumerableSet.sol\":8259:8411  function add(AddressSet storage set, address value) internal returns (bool) {\r... */\n    tag_128:\n        /* \"Utils/EnumerableSet.sol\":8329:8333  bool */\n      0x00\n        /* \"Utils/EnumerableSet.sol\":8353:8403  _add(set._inner, bytes32(uint256(uint160(value)))) */\n      tag_389\n        /* \"Utils/EnumerableSet.sol\":8358:8361  set */\n      dup4\n      sub(shl(0xa0, 0x01), 0x01)\n        /* \"Utils/EnumerableSet.sol\":8378:8401  uint256(uint160(value)) */\n      dup5\n      and\n        /* \"Utils/EnumerableSet.sol\":8353:8357  _add */\n      tag_390\n        /* \"Utils/EnumerableSet.sol\":8353:8403  _add(set._inner, bytes32(uint256(uint160(value)))) */\n      jump\t// in\n    tag_389:\n        /* \"Utils/EnumerableSet.sol\":8346:8403  return _add(set._inner, bytes32(uint256(uint160(value)))) */\n      swap1\n      pop\n        /* \"Utils/EnumerableSet.sol\":8259:8411  function add(AddressSet storage set, address value) internal returns (bool) {\r... */\n    tag_388:\n      swap3\n      swap2\n      pop\n      pop\n      jump\t// out\n        /* \"Utils/SafeMath.sol\":3585:3683  function mul(uint256 a, uint256 b) internal pure returns (uint256) {\r... */\n    tag_178:\n        /* \"Utils/SafeMath.sol\":3643:3650  uint256 */\n      0x00\n        /* \"Utils/SafeMath.sol\":3670:3675  a * b */\n      tag_389\n        /* \"Utils/SafeMath.sol\":3674:3675  b */\n      dup3\n        /* \"Utils/SafeMath.sol\":3670:3671  a */\n      dup5\n        /* \"Utils/SafeMath.sol\":3670:3675  a * b */\n      tag_141\n      jump\t// in\n        /* \"Utils/Ownable.sol\":2333:2524  function _transferOwnership(address newOwner) internal virtual {\r... */\n    tag_199:\n        /* \"Utils/Ownable.sol\":2426:2432  _owner */\n      0x01\n      dup1\n      sload\n      sub(shl(0xa0, 0x01), 0x01)\n        /* \"Utils/Ownable.sol\":2443:2460  _owner = newOwner */\n      dup4\n      dup2\n      and\n      not(sub(shl(0xa0, 0x01), 0x01))\n      dup4\n      and\n      dup2\n      or\n      swap1\n      swap4\n      sstore\n        /* \"Utils/Ownable.sol\":2476:2516  OwnershipTransferred(oldOwner, newOwner) */\n      mload(0x40)\n        /* \"Utils/Ownable.sol\":2426:2432  _owner */\n      swap2\n      and\n      swap2\n        /* \"Utils/Ownable.sol\":2443:2460  _owner = newOwner */\n      swap1\n        /* \"Utils/Ownable.sol\":2426:2432  _owner */\n      dup3\n      swap1\n        /* \"Utils/Ownable.sol\":2476:2516  OwnershipTransferred(oldOwner, newOwner) */\n      0x8be0079c531659141344cd1fd0a4f28419497f9722a3daafe3b4186f6b6457e0\n      swap1\n        /* \"Utils/Ownable.sol\":2407:2423  address oldOwner */\n      0x00\n      swap1\n        /* \"Utils/Ownable.sol\":2476:2516  OwnershipTransferred(oldOwner, newOwner) */\n      log3\n        /* \"Utils/Ownable.sol\":2396:2524  {\r... */\n      pop\n        /* \"Utils/Ownable.sol\":2333:2524  function _transferOwnership(address newOwner) internal virtual {\r... */\n      pop\n      jump\t// out\n        /* \"Utils/SafeMath.sol\":3228:3326  function sub(uint256 a, uint256 b) internal pure returns (uint256) {\r... */\n    tag_220:\n        /* \"Utils/SafeMath.sol\":3286:3293  uint256 */\n      0x00\n        /* \"Utils/SafeMath.sol\":3313:3318  a - b */\n      tag_389\n        /* \"Utils/SafeMath.sol\":3317:3318  b */\n      dup3\n        /* \"Utils/SafeMath.sol\":3313:3314  a */\n      dup5\n        /* \"Utils/SafeMath.sol\":3313:3318  a - b */\n      tag_244\n      jump\t// in\n        /* \"Utils/SafeMath.sol\":3984:4082  function div(uint256 a, uint256 b) internal pure returns (uint256) {\r... */\n    tag_257:\n        /* \"Utils/SafeMath.sol\":4042:4049  uint256 */\n      0x00\n        /* \"Utils/SafeMath.sol\":4069:4074  a / b */\n      tag_389\n        /* \"Utils/SafeMath.sol\":4073:4074  b */\n      dup3\n        /* \"Utils/SafeMath.sol\":4069:4070  a */\n      dup5\n        /* \"Utils/SafeMath.sol\":4069:4074  a / b */\n      tag_180\n      jump\t// in\n        /* \"Utils/TransferHelper.sol\":1073:1503  function safeTransferFrom(\r... */\n    tag_344:\n        /* \"Utils/TransferHelper.sol\":1279:1330  abi.encodeWithSelector(0x23b872dd, from, to, value) */\n      0x40\n      dup1\n      mload\n      sub(shl(0xa0, 0x01), 0x01)\n        /* \"#utility.yul\":5177:5192   */\n      dup6\n      dup2\n      and\n        /* \"Utils/TransferHelper.sol\":1279:1330  abi.encodeWithSelector(0x23b872dd, from, to, value) */\n      0x24\n      dup4\n      add\n        /* \"#utility.yul\":5159:5193   */\n      mstore\n        /* \"#utility.yul\":5229:5244   */\n      dup5\n      dup2\n      and\n        /* \"#utility.yul\":5209:5227   */\n      0x44\n      dup4\n      add\n        /* \"#utility.yul\":5202:5245   */\n      mstore\n        /* \"#utility.yul\":5261:5279   */\n      0x64\n      dup1\n      dup4\n      add\n        /* \"#utility.yul\":5254:5288   */\n      dup6\n      swap1\n      mstore\n        /* \"Utils/TransferHelper.sol\":1279:1330  abi.encodeWithSelector(0x23b872dd, from, to, value) */\n      dup4\n      mload\n      dup1\n      dup5\n      sub\n      swap1\n      swap2\n      add\n      dup2\n      mstore\n        /* \"#utility.yul\":5094:5112   */\n      0x84\n      swap1\n      swap3\n      add\n        /* \"Utils/TransferHelper.sol\":1279:1330  abi.encodeWithSelector(0x23b872dd, from, to, value) */\n      dup4\n      mstore\n      0x20\n      dup3\n      add\n      dup1\n      mload\n      sub(shl(0xe0, 0x01), 0x01)\n      and\n      shl(0xe0, 0x23b872dd)\n      or\n      swap1\n      mstore\n        /* \"Utils/TransferHelper.sol\":1254:1341  token.call(\r... */\n      swap2\n      mload\n      0x00\n      swap3\n      dup4\n      swap3\n        /* \"Utils/TransferHelper.sol\":1254:1264  token.call */\n      swap1\n      dup9\n      and\n      swap2\n        /* \"Utils/TransferHelper.sol\":1254:1341  token.call(\r... */\n      tag_402\n      swap2\n        /* \"Utils/TransferHelper.sol\":1279:1330  abi.encodeWithSelector(0x23b872dd, from, to, value) */\n      swap1\n        /* \"Utils/TransferHelper.sol\":1254:1341  token.call(\r... */\n      tag_403\n      jump\t// in\n    tag_402:\n      0x00\n      mload(0x40)\n      dup1\n      dup4\n      sub\n      dup2\n      0x00\n      dup7\n      gas\n      call\n      swap2\n      pop\n      pop\n      returndatasize\n      dup1\n      0x00\n      dup2\n      eq\n      tag_406\n      jumpi\n      mload(0x40)\n      swap2\n      pop\n      and(add(returndatasize, 0x3f), not(0x1f))\n      dup3\n      add\n      0x40\n      mstore\n      returndatasize\n      dup3\n      mstore\n      returndatasize\n      0x00\n      0x20\n      dup5\n      add\n      returndatacopy\n      jump(tag_405)\n    tag_406:\n      0x60\n      swap2\n      pop\n    tag_405:\n      pop\n        /* \"Utils/TransferHelper.sol\":1218:1341  (bool success, bytes memory data) = token.call(\r... */\n      swap2\n      pop\n      swap2\n      pop\n        /* \"Utils/TransferHelper.sol\":1374:1381  success */\n      dup2\n        /* \"Utils/TransferHelper.sol\":1374:1431  success && (data.length == 0 || abi.decode(data, (bool))) */\n      dup1\n      iszero\n      tag_409\n      jumpi\n      pop\n        /* \"Utils/TransferHelper.sol\":1386:1397  data.length */\n      dup1\n      mload\n        /* \"Utils/TransferHelper.sol\":1386:1402  data.length == 0 */\n      iszero\n      dup1\n        /* \"Utils/TransferHelper.sol\":1386:1430  data.length == 0 || abi.decode(data, (bool)) */\n      tag_409\n      jumpi\n      pop\n        /* \"Utils/TransferHelper.sol\":1417:1421  data */\n      dup1\n        /* \"Utils/TransferHelper.sol\":1406:1430  abi.decode(data, (bool)) */\n      dup1\n      0x20\n      add\n      swap1\n      mload\n      dup2\n      add\n      swap1\n      tag_409\n      swap2\n      swap1\n      tag_236\n      jump\t// in\n    tag_409:\n        /* \"Utils/TransferHelper.sol\":1352:1495  require(\r... */\n      tag_410\n      jumpi\n      mload(0x40)\n      shl(0xe5, 0x461bcd)\n      dup2\n      mstore\n        /* \"#utility.yul\":10916:10918   */\n      0x20\n        /* \"Utils/TransferHelper.sol\":1352:1495  require(\r... */\n      0x04\n      dup3\n      add\n        /* \"#utility.yul\":10898:10919   */\n      mstore\n        /* \"#utility.yul\":10955:10957   */\n      0x24\n        /* \"#utility.yul\":10935:10953   */\n      dup1\n      dup3\n      add\n        /* \"#utility.yul\":10928:10958   */\n      mstore\n        /* \"#utility.yul\":10994:11028   */\n      0x5472616e7366657248656c7065723a205452414e534645525f46524f4d5f4641\n        /* \"#utility.yul\":10974:10992   */\n      0x44\n      dup3\n      add\n        /* \"#utility.yul\":10967:11029   */\n      mstore\n      shl(0xe2, 0x12531151)\n        /* \"#utility.yul\":11045:11063   */\n      0x64\n      dup3\n      add\n        /* \"#utility.yul\":11038:11072   */\n      mstore\n        /* \"#utility.yul\":11089:11108   */\n      0x84\n      add\n        /* \"Utils/TransferHelper.sol\":1352:1495  require(\r... */\n      tag_195\n        /* \"#utility.yul\":10888:11114   */\n      jump\n        /* \"Utils/TransferHelper.sol\":1352:1495  require(\r... */\n    tag_410:\n        /* \"Utils/TransferHelper.sol\":1207:1503  {\r... */\n      pop\n      pop\n        /* \"Utils/TransferHelper.sol\":1073:1503  function safeTransferFrom(\r... */\n      pop\n      pop\n      pop\n      pop\n      jump\t// out\n        /* \"Utils/EnumerableSet.sol\":8831:8998  function contains(AddressSet storage set, address value) internal view returns (bool) {\r... */\n    tag_348:\n      sub(shl(0xa0, 0x01), 0x01)\n        /* \"Utils/EnumerableSet.sol\":8965:8988  uint256(uint160(value)) */\n      dup2\n      and\n        /* \"Utils/EnumerableSet.sol\":8911:8915  bool */\n      0x00\n        /* \"Utils/EnumerableSet.sol\":4367:4386  set._indexes[value] */\n      swap1\n      dup2\n      mstore\n        /* \"Utils/EnumerableSet.sol\":4367:4379  set._indexes */\n      0x01\n      dup4\n      add\n        /* \"Utils/EnumerableSet.sol\":4367:4386  set._indexes[value] */\n      0x20\n      mstore\n      0x40\n      dup2\n      keccak256\n      sload\n        /* \"Utils/EnumerableSet.sol\":4367:4391  set._indexes[value] != 0 */\n      iszero\n      iszero\n        /* \"Utils/EnumerableSet.sol\":8935:8990  _contains(set._inner, bytes32(uint256(uint160(value)))) */\n      tag_389\n        /* \"Utils/EnumerableSet.sol\":4270:4399  function _contains(Set storage set, bytes32 value) private view returns (bool) {\r... */\n      jump\n        /* \"Utils/EnumerableSet.sol\":2174:2588  function _add(Set storage set, bytes32 value) private returns (bool) {\r... */\n    tag_390:\n        /* \"Utils/EnumerableSet.sol\":2237:2241  bool */\n      0x00\n        /* \"Utils/EnumerableSet.sol\":4367:4386  set._indexes[value] */\n      dup2\n      dup2\n      mstore\n        /* \"Utils/EnumerableSet.sol\":4367:4379  set._indexes */\n      0x01\n      dup4\n      add\n        /* \"Utils/EnumerableSet.sol\":4367:4386  set._indexes[value] */\n      0x20\n      mstore\n      0x40\n      dup2\n      keccak256\n      sload\n        /* \"Utils/EnumerableSet.sol\":2254:2581  if (!_contains(set, value)) {\r... */\n      tag_418\n      jumpi\n      pop\n        /* \"Utils/EnumerableSet.sol\":2297:2320  set._values.push(value) */\n      dup2\n      sload\n      0x01\n      dup2\n      dup2\n      add\n      dup5\n      sstore\n        /* \"Utils/EnumerableSet.sol\":2297:2308  set._values */\n      0x00\n        /* \"Utils/EnumerableSet.sol\":2297:2320  set._values.push(value) */\n      dup5\n      dup2\n      mstore\n      0x20\n      dup1\n      dup3\n      keccak256\n      swap1\n      swap4\n      add\n      dup5\n      swap1\n      sstore\n        /* \"Utils/EnumerableSet.sol\":2480:2498  set._values.length */\n      dup5\n      sload\n        /* \"Utils/EnumerableSet.sol\":2458:2477  set._indexes[value] */\n      dup5\n      dup3\n      mstore\n        /* \"Utils/EnumerableSet.sol\":2458:2470  set._indexes */\n      dup3\n      dup7\n      add\n        /* \"Utils/EnumerableSet.sol\":2458:2477  set._indexes[value] */\n      swap1\n      swap4\n      mstore\n      0x40\n      swap1\n      keccak256\n        /* \"Utils/EnumerableSet.sol\":2458:2498  set._indexes[value] = set._values.length */\n      swap2\n      swap1\n      swap2\n      sstore\n        /* \"Utils/EnumerableSet.sol\":2513:2524  return true */\n      jump(tag_388)\n        /* \"Utils/EnumerableSet.sol\":2254:2581  if (!_contains(set, value)) {\r... */\n    tag_418:\n      pop\n        /* \"Utils/EnumerableSet.sol\":2564:2569  false */\n      0x00\n        /* \"Utils/EnumerableSet.sol\":2557:2569  return false */\n      jump(tag_388)\n        /* \"#utility.yul\":14:156   */\n    tag_423:\n        /* \"#utility.yul\":90:110   */\n      dup1\n      calldataload\n        /* \"#utility.yul\":119:150   */\n      tag_425\n        /* \"#utility.yul\":90:110   */\n      dup2\n        /* \"#utility.yul\":119:150   */\n      tag_426\n      jump\t// in\n    tag_425:\n        /* \"#utility.yul\":71:156   */\n      swap2\n      swap1\n      pop\n      jump\t// out\n        /* \"#utility.yul\":161:408   */\n    tag_59:\n        /* \"#utility.yul\":220:226   */\n      0x00\n        /* \"#utility.yul\":273:275   */\n      0x20\n        /* \"#utility.yul\":261:270   */\n      dup3\n        /* \"#utility.yul\":252:259   */\n      dup5\n        /* \"#utility.yul\":248:271   */\n      sub\n        /* \"#utility.yul\":244:276   */\n      slt\n        /* \"#utility.yul\":241:243   */\n      iszero\n      tag_428\n      jumpi\n        /* \"#utility.yul\":289:290   */\n      0x00\n        /* \"#utility.yul\":286:287   */\n      dup1\n        /* \"#utility.yul\":279:291   */\n      revert\n        /* \"#utility.yul\":241:243   */\n    tag_428:\n        /* \"#utility.yul\":328:337   */\n      dup2\n        /* \"#utility.yul\":315:338   */\n      calldataload\n        /* \"#utility.yul\":347:378   */\n      tag_429\n        /* \"#utility.yul\":372:377   */\n      dup2\n        /* \"#utility.yul\":347:378   */\n      tag_426\n      jump\t// in\n    tag_429:\n        /* \"#utility.yul\":397:402   */\n      swap4\n        /* \"#utility.yul\":231:408   */\n      swap3\n      pop\n      pop\n      pop\n      jump\t// out\n        /* \"#utility.yul\":413:2025   */\n    tag_31:\n        /* \"#utility.yul\":609:615   */\n      0x00\n        /* \"#utility.yul\":617:623   */\n      dup1\n        /* \"#utility.yul\":625:631   */\n      0x00\n        /* \"#utility.yul\":633:639   */\n      dup1\n        /* \"#utility.yul\":641:647   */\n      0x00\n        /* \"#utility.yul\":649:655   */\n      dup1\n        /* \"#utility.yul\":657:663   */\n      0x00\n        /* \"#utility.yul\":665:671   */\n      dup1\n        /* \"#utility.yul\":673:679   */\n      0x00\n        /* \"#utility.yul\":726:729   */\n      0x01e0\n        /* \"#utility.yul\":714:723   */\n      dup11\n        /* \"#utility.yul\":705:712   */\n      dup13\n        /* \"#utility.yul\":701:724   */\n      sub\n        /* \"#utility.yul\":697:730   */\n      slt\n        /* \"#utility.yul\":694:696   */\n      iszero\n      tag_431\n      jumpi\n        /* \"#utility.yul\":743:744   */\n      0x00\n        /* \"#utility.yul\":740:741   */\n      dup1\n        /* \"#utility.yul\":733:745   */\n      revert\n        /* \"#utility.yul\":694:696   */\n    tag_431:\n        /* \"#utility.yul\":782:791   */\n      dup10\n        /* \"#utility.yul\":769:792   */\n      calldataload\n        /* \"#utility.yul\":801:832   */\n      tag_432\n        /* \"#utility.yul\":826:831   */\n      dup2\n        /* \"#utility.yul\":801:832   */\n      tag_426\n      jump\t// in\n    tag_432:\n        /* \"#utility.yul\":851:856   */\n      swap9\n      pop\n        /* \"#utility.yul\":875:877   */\n      0x20\n        /* \"#utility.yul\":914:932   */\n      dup11\n      dup2\n      add\n        /* \"#utility.yul\":901:933   */\n      calldataload\n        /* \"#utility.yul\":942:975   */\n      tag_433\n        /* \"#utility.yul\":901:933   */\n      dup2\n        /* \"#utility.yul\":942:975   */\n      tag_426\n      jump\t// in\n    tag_433:\n        /* \"#utility.yul\":994:1001   */\n      swap9\n      pop\n        /* \"#utility.yul\":1053:1055   */\n      0x40\n        /* \"#utility.yul\":1038:1056   */\n      dup12\n      add\n        /* \"#utility.yul\":1025:1057   */\n      calldataload\n        /* \"#utility.yul\":1066:1099   */\n      tag_434\n        /* \"#utility.yul\":1025:1057   */\n      dup2\n        /* \"#utility.yul\":1066:1099   */\n      tag_426\n      jump\t// in\n    tag_434:\n        /* \"#utility.yul\":1118:1125   */\n      swap8\n      pop\n        /* \"#utility.yul\":1163:1166   */\n      0x7f\n        /* \"#utility.yul\":1148:1167   */\n      dup12\n      add\n        /* \"#utility.yul\":1144:1177   */\n      dup13\n      sgt\n        /* \"#utility.yul\":1134:1136   */\n      tag_435\n      jumpi\n        /* \"#utility.yul\":1191:1192   */\n      0x00\n        /* \"#utility.yul\":1188:1189   */\n      dup1\n        /* \"#utility.yul\":1181:1193   */\n      revert\n        /* \"#utility.yul\":1134:1136   */\n    tag_435:\n        /* \"#utility.yul\":1224:1226   */\n      0x40\n        /* \"#utility.yul\":1218:1227   */\n      mload\n        /* \"#utility.yul\":1266:1269   */\n      0xe0\n        /* \"#utility.yul\":1258:1264   */\n      dup2\n        /* \"#utility.yul\":1254:1270   */\n      add\n        /* \"#utility.yul\":1336:1342   */\n      dup2\n        /* \"#utility.yul\":1324:1334   */\n      dup2\n        /* \"#utility.yul\":1321:1343   */\n      lt\n        /* \"#utility.yul\":1300:1318   */\n      0xffffffffffffffff\n        /* \"#utility.yul\":1288:1298   */\n      dup3\n        /* \"#utility.yul\":1285:1319   */\n      gt\n        /* \"#utility.yul\":1282:1344   */\n      or\n        /* \"#utility.yul\":1279:1281   */\n      iszero\n      tag_437\n      jumpi\n        /* \"#utility.yul\":1347:1365   */\n      tag_437\n      tag_438\n      jump\t// in\n    tag_437:\n        /* \"#utility.yul\":1383:1385   */\n      0x40\n        /* \"#utility.yul\":1376:1398   */\n      mstore\n        /* \"#utility.yul\":1418:1424   */\n      dup1\n        /* \"#utility.yul\":1459:1461   */\n      0x60\n        /* \"#utility.yul\":1444:1462   */\n      dup14\n      add\n        /* \"#utility.yul\":1496:1499   */\n      0x0140\n        /* \"#utility.yul\":1481:1500   */\n      dup15\n      add\n        /* \"#utility.yul\":1512:1527   */\n      dup16\n      dup2\n      gt\n        /* \"#utility.yul\":1509:1511   */\n      iszero\n      tag_439\n      jumpi\n        /* \"#utility.yul\":1540:1541   */\n      0x00\n        /* \"#utility.yul\":1537:1538   */\n      dup1\n        /* \"#utility.yul\":1530:1542   */\n      revert\n        /* \"#utility.yul\":1509:1511   */\n    tag_439:\n        /* \"#utility.yul\":1562:1563   */\n      0x00\n        /* \"#utility.yul\":1572:1737   */\n    tag_440:\n        /* \"#utility.yul\":1586:1590   */\n      0x07\n        /* \"#utility.yul\":1583:1584   */\n      dup2\n        /* \"#utility.yul\":1580:1591   */\n      lt\n        /* \"#utility.yul\":1572:1737   */\n      iszero\n      tag_442\n      jumpi\n        /* \"#utility.yul\":1645:1662   */\n      dup3\n      calldataload\n        /* \"#utility.yul\":1633:1663   */\n      dup5\n      mstore\n        /* \"#utility.yul\":1683:1695   */\n      swap3\n      dup6\n      add\n      swap3\n        /* \"#utility.yul\":1715:1727   */\n      swap2\n      dup6\n      add\n      swap2\n        /* \"#utility.yul\":1606:1607   */\n      0x01\n        /* \"#utility.yul\":1599:1608   */\n      add\n        /* \"#utility.yul\":1572:1737   */\n      jump(tag_440)\n    tag_442:\n      pop\n        /* \"#utility.yul\":1756:1762   */\n      swap3\n      swap10\n      pop\n      pop\n        /* \"#utility.yul\":1781:1797   */\n      swap1\n      calldataload\n      swap7\n      pop\n      pop\n      pop\n        /* \"#utility.yul\":1844:1847   */\n      0x0160\n        /* \"#utility.yul\":1829:1848   */\n      dup11\n      add\n        /* \"#utility.yul\":1816:1849   */\n      calldataload\n      swap4\n      pop\n        /* \"#utility.yul\":1896:1899   */\n      0x0180\n        /* \"#utility.yul\":1881:1900   */\n      dup11\n      add\n        /* \"#utility.yul\":1868:1901   */\n      calldataload\n      swap3\n      pop\n        /* \"#utility.yul\":1920:1967   */\n      tag_443\n        /* \"#utility.yul\":1962:1965   */\n      0x01a0\n        /* \"#utility.yul\":1947:1966   */\n      dup12\n      add\n        /* \"#utility.yul\":1920:1967   */\n      tag_423\n      jump\t// in\n    tag_443:\n        /* \"#utility.yul\":1910:1967   */\n      swap2\n      pop\n        /* \"#utility.yul\":2014:2017   */\n      0x01c0\n        /* \"#utility.yul\":2003:2012   */\n      dup11\n        /* \"#utility.yul\":1999:2018   */\n      add\n        /* \"#utility.yul\":1986:2019   */\n      calldataload\n        /* \"#utility.yul\":1976:2019   */\n      swap1\n      pop\n        /* \"#utility.yul\":684:2025   */\n      swap3\n      swap6\n      swap9\n      pop\n      swap3\n      swap6\n      swap9\n      pop\n      swap3\n      swap6\n      swap9\n      jump\t// out\n        /* \"#utility.yul\":2030:2271   */\n    tag_117:\n        /* \"#utility.yul\":2086:2092   */\n      0x00\n        /* \"#utility.yul\":2139:2141   */\n      0x20\n        /* \"#utility.yul\":2127:2136   */\n      dup3\n        /* \"#utility.yul\":2118:2125   */\n      dup5\n        /* \"#utility.yul\":2114:2137   */\n      sub\n        /* \"#utility.yul\":2110:2142   */\n      slt\n        /* \"#utility.yul\":2107:2109   */\n      iszero\n      tag_445\n      jumpi\n        /* \"#utility.yul\":2155:2156   */\n      0x00\n        /* \"#utility.yul\":2152:2153   */\n      dup1\n        /* \"#utility.yul\":2145:2157   */\n      revert\n        /* \"#utility.yul\":2107:2109   */\n    tag_445:\n        /* \"#utility.yul\":2194:2203   */\n      dup2\n        /* \"#utility.yul\":2181:2204   */\n      calldataload\n        /* \"#utility.yul\":2213:2241   */\n      tag_429\n        /* \"#utility.yul\":2235:2240   */\n      dup2\n        /* \"#utility.yul\":2213:2241   */\n      tag_447\n      jump\t// in\n        /* \"#utility.yul\":2276:2521   */\n    tag_236:\n        /* \"#utility.yul\":2343:2349   */\n      0x00\n        /* \"#utility.yul\":2396:2398   */\n      0x20\n        /* \"#utility.yul\":2384:2393   */\n      dup3\n        /* \"#utility.yul\":2375:2382   */\n      dup5\n        /* \"#utility.yul\":2371:2394   */\n      sub\n        /* \"#utility.yul\":2367:2399   */\n      slt\n        /* \"#utility.yul\":2364:2366   */\n      iszero\n      tag_449\n      jumpi\n        /* \"#utility.yul\":2412:2413   */\n      0x00\n        /* \"#utility.yul\":2409:2410   */\n      dup1\n        /* \"#utility.yul\":2402:2414   */\n      revert\n        /* \"#utility.yul\":2364:2366   */\n    tag_449:\n        /* \"#utility.yul\":2444:2453   */\n      dup2\n        /* \"#utility.yul\":2438:2454   */\n      mload\n        /* \"#utility.yul\":2463:2491   */\n      tag_429\n        /* \"#utility.yul\":2485:2490   */\n      dup2\n        /* \"#utility.yul\":2463:2491   */\n      tag_447\n      jump\t// in\n        /* \"#utility.yul\":2526:2706   */\n    tag_97:\n        /* \"#utility.yul\":2585:2591   */\n      0x00\n        /* \"#utility.yul\":2638:2640   */\n      0x20\n        /* \"#utility.yul\":2626:2635   */\n      dup3\n        /* \"#utility.yul\":2617:2624   */\n      dup5\n        /* \"#utility.yul\":2613:2636   */\n      sub\n        /* \"#utility.yul\":2609:2641   */\n      slt\n        /* \"#utility.yul\":2606:2608   */\n      iszero\n      tag_452\n      jumpi\n        /* \"#utility.yul\":2654:2655   */\n      0x00\n        /* \"#utility.yul\":2651:2652   */\n      dup1\n        /* \"#utility.yul\":2644:2656   */\n      revert\n        /* \"#utility.yul\":2606:2608   */\n    tag_452:\n      pop\n        /* \"#utility.yul\":2677:2700   */\n      calldataload\n      swap2\n        /* \"#utility.yul\":2596:2706   */\n      swap1\n      pop\n      jump\t// out\n        /* \"#utility.yul\":2711:2895   */\n    tag_134:\n        /* \"#utility.yul\":2781:2787   */\n      0x00\n        /* \"#utility.yul\":2834:2836   */\n      0x20\n        /* \"#utility.yul\":2822:2831   */\n      dup3\n        /* \"#utility.yul\":2813:2820   */\n      dup5\n        /* \"#utility.yul\":2809:2832   */\n      sub\n        /* \"#utility.yul\":2805:2837   */\n      slt\n        /* \"#utility.yul\":2802:2804   */\n      iszero\n      tag_454\n      jumpi\n        /* \"#utility.yul\":2850:2851   */\n      0x00\n        /* \"#utility.yul\":2847:2848   */\n      dup1\n        /* \"#utility.yul\":2840:2852   */\n      revert\n        /* \"#utility.yul\":2802:2804   */\n    tag_454:\n      pop\n        /* \"#utility.yul\":2873:2889   */\n      mload\n      swap2\n        /* \"#utility.yul\":2792:2895   */\n      swap1\n      pop\n      jump\t// out\n        /* \"#utility.yul\":2900:3326   */\n    tag_403:\n        /* \"#utility.yul\":3029:3032   */\n      0x00\n        /* \"#utility.yul\":3067:3073   */\n      dup3\n        /* \"#utility.yul\":3061:3074   */\n      mload\n        /* \"#utility.yul\":3092:3093   */\n      0x00\n        /* \"#utility.yul\":3102:3231   */\n    tag_456:\n        /* \"#utility.yul\":3116:3122   */\n      dup2\n        /* \"#utility.yul\":3113:3114   */\n      dup2\n        /* \"#utility.yul\":3110:3123   */\n      lt\n        /* \"#utility.yul\":3102:3231   */\n      iszero\n      tag_458\n      jumpi\n        /* \"#utility.yul\":3214:3218   */\n      0x20\n        /* \"#utility.yul\":3198:3212   */\n      dup2\n      dup7\n      add\n        /* \"#utility.yul\":3194:3219   */\n      dup2\n      add\n        /* \"#utility.yul\":3188:3220   */\n      mload\n        /* \"#utility.yul\":3175:3186   */\n      dup6\n      dup4\n      add\n        /* \"#utility.yul\":3168:3221   */\n      mstore\n        /* \"#utility.yul\":3131:3143   */\n      add\n        /* \"#utility.yul\":3102:3231   */\n      jump(tag_456)\n    tag_458:\n        /* \"#utility.yul\":3249:3255   */\n      dup2\n        /* \"#utility.yul\":3246:3247   */\n      dup2\n        /* \"#utility.yul\":3243:3256   */\n      gt\n        /* \"#utility.yul\":3240:3242   */\n      iszero\n      tag_459\n      jumpi\n        /* \"#utility.yul\":3284:3285   */\n      0x00\n        /* \"#utility.yul\":3275:3281   */\n      dup3\n        /* \"#utility.yul\":3270:3273   */\n      dup6\n        /* \"#utility.yul\":3266:3282   */\n      add\n        /* \"#utility.yul\":3259:3286   */\n      mstore\n        /* \"#utility.yul\":3240:3242   */\n    tag_459:\n      pop\n        /* \"#utility.yul\":3304:3320   */\n      swap2\n      swap1\n      swap2\n      add\n      swap3\n        /* \"#utility.yul\":3037:3326   */\n      swap2\n      pop\n      pop\n      jump\t// out\n        /* \"#utility.yul\":6699:7050   */\n    tag_247:\n        /* \"#utility.yul\":6901:6903   */\n      0x20\n        /* \"#utility.yul\":6883:6904   */\n      dup1\n      dup3\n      mstore\n        /* \"#utility.yul\":6940:6942   */\n      0x1b\n        /* \"#utility.yul\":6920:6938   */\n      swap1\n      dup3\n      add\n        /* \"#utility.yul\":6913:6943   */\n      mstore\n        /* \"#utility.yul\":6979:7008   */\n      0x416c6c20746f6b656e20686173206265656e2077697468647261770000000000\n        /* \"#utility.yul\":6974:6976   */\n      0x40\n        /* \"#utility.yul\":6959:6977   */\n      dup3\n      add\n        /* \"#utility.yul\":6952:7009   */\n      mstore\n        /* \"#utility.yul\":7041:7043   */\n      0x60\n        /* \"#utility.yul\":7026:7044   */\n      add\n      swap1\n        /* \"#utility.yul\":6873:7050   */\n      jump\t// out\n        /* \"#utility.yul\":11477:11832   */\n    tag_212:\n        /* \"#utility.yul\":11679:11681   */\n      0x20\n        /* \"#utility.yul\":11661:11682   */\n      dup1\n      dup3\n      mstore\n        /* \"#utility.yul\":11718:11720   */\n      0x1f\n        /* \"#utility.yul\":11698:11716   */\n      swap1\n      dup3\n      add\n        /* \"#utility.yul\":11691:11721   */\n      mstore\n        /* \"#utility.yul\":11757:11790   */\n      0x5265656e7472616e637947756172643a207265656e7472616e742063616c6c00\n        /* \"#utility.yul\":11752:11754   */\n      0x40\n        /* \"#utility.yul\":11737:11755   */\n      dup3\n      add\n        /* \"#utility.yul\":11730:11791   */\n      mstore\n        /* \"#utility.yul\":11823:11825   */\n      0x60\n        /* \"#utility.yul\":11808:11826   */\n      add\n      swap1\n        /* \"#utility.yul\":11651:11832   */\n      jump\t// out\n        /* \"#utility.yul\":13860:13988   */\n    tag_260:\n        /* \"#utility.yul\":13900:13903   */\n      0x00\n        /* \"#utility.yul\":13931:13932   */\n      dup3\n        /* \"#utility.yul\":13927:13933   */\n      not\n        /* \"#utility.yul\":13924:13925   */\n      dup3\n        /* \"#utility.yul\":13921:13934   */\n      gt\n        /* \"#utility.yul\":13918:13920   */\n      iszero\n      tag_490\n      jumpi\n        /* \"#utility.yul\":13937:13955   */\n      tag_490\n      tag_491\n      jump\t// in\n    tag_490:\n      pop\n        /* \"#utility.yul\":13973:13982   */\n      add\n      swap1\n        /* \"#utility.yul\":13908:13988   */\n      jump\t// out\n        /* \"#utility.yul\":13993:14210   */\n    tag_180:\n        /* \"#utility.yul\":14033:14034   */\n      0x00\n        /* \"#utility.yul\":14059:14060   */\n      dup3\n        /* \"#utility.yul\":14049:14051   */\n      tag_493\n      jumpi\n        /* \"#utility.yul\":14103:14113   */\n      0x4e487b71\n        /* \"#utility.yul\":14098:14101   */\n      0xe0\n        /* \"#utility.yul\":14094:14114   */\n      shl\n        /* \"#utility.yul\":14091:14092   */\n      0x00\n        /* \"#utility.yul\":14084:14115   */\n      mstore\n        /* \"#utility.yul\":14138:14142   */\n      0x12\n        /* \"#utility.yul\":14135:14136   */\n      0x04\n        /* \"#utility.yul\":14128:14143   */\n      mstore\n        /* \"#utility.yul\":14166:14170   */\n      0x24\n        /* \"#utility.yul\":14163:14164   */\n      0x00\n        /* \"#utility.yul\":14156:14171   */\n      revert\n        /* \"#utility.yul\":14049:14051   */\n    tag_493:\n      pop\n        /* \"#utility.yul\":14195:14204   */\n      div\n      swap1\n        /* \"#utility.yul\":14039:14210   */\n      jump\t// out\n        /* \"#utility.yul\":14215:14637   */\n    tag_494:\n        /* \"#utility.yul\":14304:14305   */\n      0x01\n        /* \"#utility.yul\":14347:14352   */\n      dup2\n        /* \"#utility.yul\":14304:14305   */\n      dup2\n        /* \"#utility.yul\":14361:14631   */\n    tag_496:\n        /* \"#utility.yul\":14382:14389   */\n      dup1\n        /* \"#utility.yul\":14372:14380   */\n      dup6\n        /* \"#utility.yul\":14369:14390   */\n      gt\n        /* \"#utility.yul\":14361:14631   */\n      iszero\n      tag_498\n      jumpi\n        /* \"#utility.yul\":14441:14445   */\n      dup2\n        /* \"#utility.yul\":14437:14438   */\n      0x00\n        /* \"#utility.yul\":14433:14439   */\n      not\n        /* \"#utility.yul\":14429:14446   */\n      div\n        /* \"#utility.yul\":14423:14427   */\n      dup3\n        /* \"#utility.yul\":14420:14447   */\n      gt\n        /* \"#utility.yul\":14417:14419   */\n      iszero\n      tag_500\n      jumpi\n        /* \"#utility.yul\":14450:14468   */\n      tag_500\n      tag_491\n      jump\t// in\n    tag_500:\n        /* \"#utility.yul\":14500:14507   */\n      dup1\n        /* \"#utility.yul\":14490:14498   */\n      dup6\n        /* \"#utility.yul\":14486:14508   */\n      and\n        /* \"#utility.yul\":14483:14485   */\n      iszero\n      tag_501\n      jumpi\n        /* \"#utility.yul\":14520:14536   */\n      swap2\n      dup2\n      mul\n      swap2\n        /* \"#utility.yul\":14483:14485   */\n    tag_501:\n        /* \"#utility.yul\":14599:14621   */\n      swap4\n      dup5\n      shr\n      swap4\n        /* \"#utility.yul\":14559:14574   */\n      swap1\n      dup1\n      mul\n      swap1\n        /* \"#utility.yul\":14361:14631   */\n      jump(tag_496)\n    tag_498:\n        /* \"#utility.yul\":14365:14368   */\n      pop\n        /* \"#utility.yul\":14279:14637   */\n      swap3\n      pop\n      swap3\n      swap1\n      pop\n      jump\t// out\n        /* \"#utility.yul\":14642:14773   */\n    tag_136:\n        /* \"#utility.yul\":14702:14707   */\n      0x00\n        /* \"#utility.yul\":14731:14767   */\n      tag_389\n        /* \"#utility.yul\":14758:14766   */\n      dup4\n        /* \"#utility.yul\":14752:14756   */\n      dup4\n        /* \"#utility.yul\":14827:14832   */\n      0x00\n        /* \"#utility.yul\":14857:14865   */\n      dup3\n        /* \"#utility.yul\":14847:14849   */\n      tag_506\n      jumpi\n      pop\n        /* \"#utility.yul\":14898:14899   */\n      0x01\n        /* \"#utility.yul\":14912:14917   */\n      jump(tag_388)\n        /* \"#utility.yul\":14847:14849   */\n    tag_506:\n        /* \"#utility.yul\":14946:14950   */\n      dup2\n        /* \"#utility.yul\":14936:14938   */\n      tag_507\n      jumpi\n      pop\n        /* \"#utility.yul\":14983:14984   */\n      0x00\n        /* \"#utility.yul\":14997:15002   */\n      jump(tag_388)\n        /* \"#utility.yul\":14936:14938   */\n    tag_507:\n        /* \"#utility.yul\":15028:15032   */\n      dup2\n        /* \"#utility.yul\":15046:15047   */\n      0x01\n        /* \"#utility.yul\":15041:15100   */\n      dup2\n      eq\n      tag_509\n      jumpi\n        /* \"#utility.yul\":15114:15115   */\n      0x02\n        /* \"#utility.yul\":15109:15239   */\n      dup2\n      eq\n      tag_510\n      jumpi\n        /* \"#utility.yul\":15021:15239   */\n      jump(tag_508)\n        /* \"#utility.yul\":15041:15100   */\n    tag_509:\n        /* \"#utility.yul\":15071:15072   */\n      0x01\n        /* \"#utility.yul\":15062:15072   */\n      swap2\n      pop\n        /* \"#utility.yul\":15085:15090   */\n      pop\n      jump(tag_388)\n        /* \"#utility.yul\":15109:15239   */\n    tag_510:\n        /* \"#utility.yul\":15146:15149   */\n      0xff\n        /* \"#utility.yul\":15136:15144   */\n      dup5\n        /* \"#utility.yul\":15133:15150   */\n      gt\n        /* \"#utility.yul\":15130:15132   */\n      iszero\n      tag_512\n      jumpi\n        /* \"#utility.yul\":15153:15171   */\n      tag_512\n      tag_491\n      jump\t// in\n    tag_512:\n      pop\n      pop\n        /* \"#utility.yul\":15209:15210   */\n      0x01\n        /* \"#utility.yul\":15195:15211   */\n      dup3\n      shl\n        /* \"#utility.yul\":15224:15229   */\n      jump(tag_388)\n        /* \"#utility.yul\":15021:15239   */\n    tag_508:\n      pop\n        /* \"#utility.yul\":15323:15325   */\n      0x20\n        /* \"#utility.yul\":15313:15321   */\n      dup4\n        /* \"#utility.yul\":15310:15326   */\n      lt\n        /* \"#utility.yul\":15304:15307   */\n      0x0133\n        /* \"#utility.yul\":15298:15302   */\n      dup4\n        /* \"#utility.yul\":15295:15308   */\n      lt\n        /* \"#utility.yul\":15291:15327   */\n      and\n        /* \"#utility.yul\":15285:15287   */\n      0x4e\n        /* \"#utility.yul\":15275:15283   */\n      dup5\n        /* \"#utility.yul\":15272:15288   */\n      lt\n        /* \"#utility.yul\":15267:15269   */\n      0x0b\n        /* \"#utility.yul\":15261:15265   */\n      dup5\n        /* \"#utility.yul\":15258:15270   */\n      lt\n        /* \"#utility.yul\":15254:15289   */\n      and\n        /* \"#utility.yul\":15251:15328   */\n      or\n        /* \"#utility.yul\":15248:15250   */\n      iszero\n      tag_513\n      jumpi\n      pop\n        /* \"#utility.yul\":15360:15379   */\n      dup2\n      dup2\n      exp\n        /* \"#utility.yul\":15392:15397   */\n      jump(tag_388)\n        /* \"#utility.yul\":15248:15250   */\n    tag_513:\n        /* \"#utility.yul\":15439:15473   */\n      tag_514\n        /* \"#utility.yul\":15464:15472   */\n      dup4\n        /* \"#utility.yul\":15458:15462   */\n      dup4\n        /* \"#utility.yul\":15439:15473   */\n      tag_494\n      jump\t// in\n    tag_514:\n        /* \"#utility.yul\":15509:15515   */\n      dup1\n        /* \"#utility.yul\":15505:15506   */\n      0x00\n        /* \"#utility.yul\":15501:15507   */\n      not\n        /* \"#utility.yul\":15497:15516   */\n      div\n        /* \"#utility.yul\":15488:15495   */\n      dup3\n        /* \"#utility.yul\":15485:15517   */\n      gt\n        /* \"#utility.yul\":15482:15484   */\n      iszero\n      tag_516\n      jumpi\n        /* \"#utility.yul\":15520:15538   */\n      tag_516\n      tag_491\n      jump\t// in\n    tag_516:\n        /* \"#utility.yul\":15558:15578   */\n      mul\n      swap4\n        /* \"#utility.yul\":14837:15584   */\n      swap3\n      pop\n      pop\n      pop\n      jump\t// out\n        /* \"#utility.yul\":15589:15757   */\n    tag_141:\n        /* \"#utility.yul\":15629:15636   */\n      0x00\n        /* \"#utility.yul\":15695:15696   */\n      dup2\n        /* \"#utility.yul\":15691:15692   */\n      0x00\n        /* \"#utility.yul\":15687:15693   */\n      not\n        /* \"#utility.yul\":15683:15697   */\n      div\n        /* \"#utility.yul\":15680:15681   */\n      dup4\n        /* \"#utility.yul\":15677:15698   */\n      gt\n        /* \"#utility.yul\":15672:15673   */\n      dup3\n        /* \"#utility.yul\":15665:15674   */\n      iszero\n        /* \"#utility.yul\":15658:15675   */\n      iszero\n        /* \"#utility.yul\":15654:15699   */\n      and\n        /* \"#utility.yul\":15651:15653   */\n      iszero\n      tag_519\n      jumpi\n        /* \"#utility.yul\":15702:15720   */\n      tag_519\n      tag_491\n      jump\t// in\n    tag_519:\n      pop\n        /* \"#utility.yul\":15742:15751   */\n      mul\n      swap1\n        /* \"#utility.yul\":15641:15757   */\n      jump\t// out\n        /* \"#utility.yul\":15762:15887   */\n    tag_244:\n        /* \"#utility.yul\":15802:15806   */\n      0x00\n        /* \"#utility.yul\":15830:15831   */\n      dup3\n        /* \"#utility.yul\":15827:15828   */\n      dup3\n        /* \"#utility.yul\":15824:15832   */\n      lt\n        /* \"#utility.yul\":15821:15823   */\n      iszero\n      tag_522\n      jumpi\n        /* \"#utility.yul\":15835:15853   */\n      tag_522\n      tag_491\n      jump\t// in\n    tag_522:\n      pop\n        /* \"#utility.yul\":15872:15881   */\n      sub\n      swap1\n        /* \"#utility.yul\":15811:15887   */\n      jump\t// out\n        /* \"#utility.yul\":15892:16027   */\n    tag_331:\n        /* \"#utility.yul\":15931:15934   */\n      0x00\n      not(0x00)\n        /* \"#utility.yul\":15952:15969   */\n      dup3\n      eq\n        /* \"#utility.yul\":15949:15951   */\n      iszero\n      tag_525\n      jumpi\n        /* \"#utility.yul\":15972:15990   */\n      tag_525\n      tag_491\n      jump\t// in\n    tag_525:\n      pop\n        /* \"#utility.yul\":16019:16020   */\n      0x01\n        /* \"#utility.yul\":16008:16021   */\n      add\n      swap1\n        /* \"#utility.yul\":15939:16027   */\n      jump\t// out\n        /* \"#utility.yul\":16032:16159   */\n    tag_491:\n        /* \"#utility.yul\":16093:16103   */\n      0x4e487b71\n        /* \"#utility.yul\":16088:16091   */\n      0xe0\n        /* \"#utility.yul\":16084:16104   */\n      shl\n        /* \"#utility.yul\":16081:16082   */\n      0x00\n        /* \"#utility.yul\":16074:16105   */\n      mstore\n        /* \"#utility.yul\":16124:16128   */\n      0x11\n        /* \"#utility.yul\":16121:16122   */\n      0x04\n        /* \"#utility.yul\":16114:16129   */\n      mstore\n        /* \"#utility.yul\":16148:16152   */\n      0x24\n        /* \"#utility.yul\":16145:16146   */\n      0x00\n        /* \"#utility.yul\":16138:16153   */\n      revert\n        /* \"#utility.yul\":16296:16423   */\n    tag_438:\n        /* \"#utility.yul\":16357:16367   */\n      0x4e487b71\n        /* \"#utility.yul\":16352:16355   */\n      0xe0\n        /* \"#utility.yul\":16348:16368   */\n      shl\n        /* \"#utility.yul\":16345:16346   */\n      0x00\n        /* \"#utility.yul\":16338:16369   */\n      mstore\n        /* \"#utility.yul\":16388:16392   */\n      0x41\n        /* \"#utility.yul\":16385:16386   */\n      0x04\n        /* \"#utility.yul\":16378:16393   */\n      mstore\n        /* \"#utility.yul\":16412:16416   */\n      0x24\n        /* \"#utility.yul\":16409:16410   */\n      0x00\n        /* \"#utility.yul\":16402:16417   */\n      revert\n        /* \"#utility.yul\":16428:16559   */\n    tag_426:\n      sub(shl(0xa0, 0x01), 0x01)\n        /* \"#utility.yul\":16503:16534   */\n      dup2\n      and\n        /* \"#utility.yul\":16493:16535   */\n      dup2\n      eq\n        /* \"#utility.yul\":16483:16485   */\n      tag_202\n      jumpi\n        /* \"#utility.yul\":16549:16550   */\n      0x00\n        /* \"#utility.yul\":16546:16547   */\n      dup1\n        /* \"#utility.yul\":16539:16551   */\n      revert\n        /* \"#utility.yul\":16564:16682   */\n    tag_447:\n        /* \"#utility.yul\":16650:16655   */\n      dup1\n        /* \"#utility.yul\":16643:16656   */\n      iszero\n        /* \"#utility.yul\":16636:16657   */\n      iszero\n        /* \"#utility.yul\":16629:16634   */\n      dup2\n        /* \"#utility.yul\":16626:16658   */\n      eq\n        /* \"#utility.yul\":16616:16618   */\n      tag_202\n      jumpi\n        /* \"#utility.yul\":16672:16673   */\n      0x00\n        /* \"#utility.yul\":16669:16670   */\n      dup1\n        /* \"#utility.yul\":16662:16674   */\n      revert\n\n    auxdata: 0xa26469706673582212206f89371f3065210bdb956ca103739d2f2daa00f380f7ca15f7395a4e719200a764736f6c63430008050033\n}\n",
				"bytecode": {
					"linkReferences": {},
					"object": "608060405260016000556200001433620000a0565b601b805473c778417e063141139fce010982780140aa0cd5ab6001600160a01b031990911617905562000069601c736ccb41eeda5a073076f3e7dc1614c185b5fa41ed620000f2602090811b620017dc17901c565b5062000099734f0b12bbf40fc182559822a5b1db6d34dbc3e016601c620000f260201b620017dc1790919060201c565b5062000164565b600180546001600160a01b038381166001600160a01b0319831681179093556040519116919082907f8be0079c531659141344cd1fd0a4f28419497f9722a3daafe3b4186f6b6457e090600090a35050565b600062000109836001600160a01b03841662000112565b90505b92915050565b60008181526001830160205260408120546200015b575081546001818101845560008481526020808220909301849055845484825282860190935260409020919091556200010c565b5060006200010c565b611e4d80620001746000396000f3fe6080604052600436106101405760003560e01c806395661e70116100b6578063cad5b0f71161006f578063cad5b0f714610440578063d4c1dee914610465578063e2d3f4231461047b578063eb002bb0146104ed578063f2fde38b1461050d578063f8b2cb4f1461052d57600080fd5b806395661e701461033c578063ab33985a14610351578063acfb235514610366578063ad5c4648146103ed578063ae2b09651461040d578063b6b55f251461042d57600080fd5b80633b5ef2ad116101085780633b5ef2ad1461029557806356c5f349146102ab578063715018a6146102d8578063861faf5f146102ed5780638da5cb5b146102f55780638edf18e61461032757600080fd5b80630a9c5ddb1461014557806312e5d0b91461016757806318856a2f1461019c5780631df4ccfc1461025c578063200d2ed214610280575b600080fd5b34801561015157600080fd5b50610165610160366004611a45565b610555565b005b34801561017357600080fd5b50600d54600e54610182919082565b604080519283526020830191909152015b60405180910390f35b3480156101a857600080fd5b50600f54601054601154601254601354601454601554601654601754601854601954601a546101f09b6001600160a01b039081169b81169a16989796959493929160ff16908c565b604080516001600160a01b039d8e1681529b8d1660208d015299909b16988a01989098526060890196909652608088019490945260a087019290925260c086015260e0850152610100840152610120830152151561014082015261016081019190915261018001610193565b34801561026857600080fd5b50610272601e5481565b604051908152602001610193565b34801561028c57600080fd5b506102726108f9565b3480156102a157600080fd5b50610272601f5481565b3480156102b757600080fd5b506102726102c6366004611a21565b60036020526000908152604090205481565b3480156102e457600080fd5b50610165610922565b61016561098d565b34801561030157600080fd5b506001546001600160a01b03165b6040516001600160a01b039091168152602001610193565b34801561033357600080fd5b506101656109bc565b34801561034857600080fd5b50610165610c81565b34801561035d57600080fd5b50610165610e58565b34801561037257600080fd5b50600454600554600654600754600854600954600a54600b546103a5979695949392919060ff8082169161010090041689565b60408051998a5260208a0198909852968801959095526060870193909352608086019190915260a085015260c0840152151560e0830152151561010082015261012001610193565b3480156103f957600080fd5b50601b5461030f906001600160a01b031681565b34801561041957600080fd5b5060205461030f906001600160a01b031681565b61016561043b366004611b77565b61107e565b34801561044c57600080fd5b5061045561144d565b6040519015158152602001610193565b34801561047157600080fd5b5061027260215481565b34801561048757600080fd5b506104c5610496366004611a21565b600260208190526000918252604090912080546001820154928201546003830154600490930154919392909185565b604080519586526020860194909452928401919091526060830152608082015260a001610193565b3480156104f957600080fd5b50610165610508366004611b3d565b61145f565b34801561051957600080fd5b50610165610528366004611a21565b611714565b34801561053957600080fd5b50610272610548366004611a21565b6001600160a01b03163190565b600f80546001600160a01b03808c166001600160a01b031992831617909255601080548b8416908316811790915560118054938b16939092169290921790556040805163313ce56760e01b8152905163313ce56791600480820192602092909190829003018186803b1580156105ca57600080fd5b505afa1580156105de573d6000803e3d6000fd5b505050506040513d601f19601f820116820180604052508101906106029190611b90565b61060d90600a611ccf565b86516106199190611d77565b6012556020808701516013556040808801516014556060880151601555601154815163313ce56760e01b815291516001600160a01b039091169263313ce5679260048082019391829003018186803b15801561067457600080fd5b505afa158015610688573d6000803e3d6000fd5b505050506040513d601f19601f820116820180604052508101906106ac9190611b90565b6106b790600a611ccf565b60808701516106c69190611d77565b6016556011546040805163313ce56760e01b815290516001600160a01b039092169163313ce56791600480820192602092909190829003018186803b15801561070e57600080fd5b505afa158015610722573d6000803e3d6000fd5b505050506040513d601f19601f820116820180604052508101906107469190611b90565b61075190600a611ccf565b60a08701516107609190611d77565b600d556011546040805163313ce56760e01b815290516001600160a01b039092169163313ce56791600480820192602092909190829003018186803b1580156107a857600080fd5b505afa1580156107bc573d6000803e3d6000fd5b505050506040513d601f19601f820116820180604052508101906107e09190611b90565b6107eb90600a611ccf565b60c08701516107fa9190611d77565b600e55601154601b546019805460ff19166001600160a01b0392831692909316918214929092179091556040805163313ce56760e01b8152905163313ce56791600480820192602092909190829003018186803b15801561085a57600080fd5b505afa15801561086e573d6000803e3d6000fd5b505050506040513d601f19601f820116820180604052508101906108929190611b90565b61089d90600a611ccf565b600d546012546108ac916117fa565b6108b69190611c6a565b601a5560a086015160175560c090950151601855601f91909155602080546001600160a01b0319166001600160a01b039092169190911790555050602155505050565b60135460009042101561090c5750600090565b60145442111561091c5750600290565b50600190565b6001546001600160a01b031633146109815760405162461bcd60e51b815260206004820181905260248201527f4f776e61626c653a2063616c6c6572206973206e6f7420746865206f776e657260448201526064015b60405180910390fd5b61098b6000611806565b565b60405133904780156108fc02916000818181858888f193505050501580156109b9573d6000803e3d6000fd5b50565b600f546001600160a01b0316336001600160a01b031614610a145760405162461bcd60e51b815260206004820152601260248201527127b7363c90383932b9b0b6329037bbb732b960711b6044820152606401610978565b60026000541415610a375760405162461bcd60e51b815260040161097890611c1b565b600260009081556010546040516370a0823160e01b81523060048201526001600160a01b03909116906370a082319060240160206040518083038186803b158015610a8157600080fd5b505afa158015610a95573d6000803e3d6000fd5b505050506040513d601f19601f82011682018060405250810190610ab99190611b90565b600854600454919250600091610ace91611858565b60045490915015610af757600854600554610af491610aed9190611858565b8390611858565b91505b600b5460ff1615610b4a5760405162461bcd60e51b815260206004820152601d60248201527f4e6f7468696e6720666f72206f776e657220636c61696d20746f6b656e0000006044820152606401610978565b600b54610100900460ff1615610ba25760405162461bcd60e51b815260206004820152601e60248201527f4e6f7468696e6720666f72206f776e657220726566756e6420746f6b656e00006044820152606401610978565b600b805460ff191660011790556000601a55601054600f5460405163a9059cbb60e01b81526001600160a01b0391821660048201526024810185905291169063a9059cbb90604401602060405180830381600087803b158015610c0457600080fd5b505af1158015610c18573d6000803e3d6000fd5b505050506040513d601f19601f82011682018060405250810190610c3c9190611b5a565b50600f546040516001600160a01b039091169082156108fc029083906000818181858888f19350505050158015610c77573d6000803e3d6000fd5b5050600160005550565b60026000541415610ca45760405162461bcd60e51b815260040161097890611c1b565b60026000908155600754600454610cbb9190611d96565b11610cd85760405162461bcd60e51b815260040161097890611be4565b3360009081526002602052604090208054610d2f5760405162461bcd60e51b8152602060048201526017602482015276165bdd481a185d99481b9bdd08189bdd59da1d081e595d604a1b6044820152606401610978565b6004810154815411610d745760405162461bcd60e51b815260206004820152600e60248201526d165bdd481c99599d5b9908185b1b60921b6044820152606401610978565b8054601754600091610d9f916103e891610d9991610d93908490611858565b906117fa565b90611864565b8254909150610daf908290611d96565b601e6000828254610dc09190611c52565b909155505060078054829190600090610dda908490611c52565b9250508190555080826004016000828254610df59190611c52565b909155505042600283015560038201546001830154610e149190611d96565b60088054600090610e26908490611c52565b9091555050604051339082156108fc029083906000818181858888f19350505050158015610c77573d6000803e3d6000fd5b60026000541415610e7b5760405162461bcd60e51b815260040161097890611c1b565b60026000908155600654600554610e929190611d96565b11610eaf5760405162461bcd60e51b815260040161097890611be4565b3360009081526002602052604090206001810154610f095760405162461bcd60e51b8152602060048201526017602482015276165bdd481a185d99481b9bdd08189bdd59da1d081e595d604a1b6044820152606401610978565b8060030154816001015411610f515760405162461bcd60e51b815260206004820152600e60248201526d165bdd4818db185a5b48185b1b1b60921b6044820152606401610978565b6000610f7b6103e8610d998460010154610d93600f600901546103e861185890919063ffffffff16565b90508060046002016000828254610f929190611c52565b9091555050601a8054829190600090610fac908490611d96565b9250508190555080826003016000828254610fc79190611c52565b909155505042600283015560048201548254610fe39190611d96565b60098054600090610ff5908490611c52565b909155505060105460405163a9059cbb60e01b8152336004820152602481018390526001600160a01b039091169063a9059cbb90604401602060405180830381600087803b15801561104657600080fd5b505af115801561105a573d6000803e3d6000fd5b505050506040513d601f19601f82011682018060405250810190610c779190611b5a565b600260005414156110a15760405162461bcd60e51b815260040161097890611c1b565b600260008181553381526020919091526040812090829081906103e83483111561110d5760405162461bcd60e51b815260206004820152601a60248201527f506c656173652070726f76696465206e617669746520636f696e0000000000006044820152606401610978565b6015548310156111525760405162461bcd60e51b815260206004820152601060248201526f4e6f7420656e6f7567682076616c756560801b6044820152606401610978565b6016548311156111955760405162461bcd60e51b815260206004820152600e60248201526d4f766572666c6f772076616c756560901b6044820152606401610978565b61119d61144d565b6111cd576111be81610d9985610d93601f548661185890919063ffffffff16565b92506111ca8385611d96565b91505b84546016546000916111de91611d96565b600454601a549192506000916111f49190611d96565b905060008183116112055782611207565b815b90508086111561124b5760405162461bcd60e51b815260206004820152600f60248201526e53616c65206973207375636365737360881b6044820152606401610978565b60006112f2600f60020160009054906101000a90046001600160a01b03166001600160a01b031663313ce5676040518163ffffffff1660e01b815260040160206040518083038186803b1580156112a157600080fd5b505afa1580156112b5573d6000803e3d6000fd5b505050506040513d601f19601f820116820180604052508101906112d99190611b90565b6112e490600a611ccf565b601254610d99908a906117fa565b9050868960000160008282546113089190611c52565b92505081905550808960010160008282546113239190611c52565b90915550506004805488919060009061133d908490611c52565b909155505060058054829190600090611357908490611c52565b9091555050600a805490600061136c83611dad565b90915550503360009081526003602052604081208054889290611390908490611c52565b9250508190555085601e60008282546113a99190611c52565b909155505060195460ff1680156113c95750346113c68789611c52565b11155b1561141157336108fc876113dd8a34611d96565b6113e79190611d96565b6040518115909202916000818181858888f1935050505015801561140f573d6000803e3d6000fd5b505b60195460ff1661143c5760115461143c906001600160a01b031633306114378a8c611c52565b611870565b505060016000555050505050505050565b600061145a601c336119a0565b905090565b80156115fb5760065460055460009161147791611d96565b116114945760405162461bcd60e51b815260040161097890611be4565b33600090815260026020526040902060038101546001820154116115065760405162461bcd60e51b8152602060048201526024808201527f596f7520636c61696d20616c6c206f722068617665206e6f7420626f75676874604482015263081e595d60e21b6064820152608401610978565b601054600182015460405163a9059cbb60e01b815233600482015260248101919091526001600160a01b039091169063a9059cbb90604401602060405180830381600087803b15801561155857600080fd5b505af115801561156c573d6000803e3d6000fd5b505050506040513d601f19601f820116820180604052508101906115909190611b5a565b506001810154600680546000906115a8908490611c52565b90915550506001810154601a80546000906115c4908490611d96565b909155505060018101546003820180546000906115e2908490611c52565b9091555050600080825560018201554260029091015550565b60075460045460009161160d91611d96565b1161162a5760405162461bcd60e51b815260040161097890611be4565b33600090815260026020526040902080546116955760405162461bcd60e51b815260206004820152602560248201527f596f7520726566756e6420616c6c206f722068617665206e6f7420626f7567686044820152641d081e595d60da1b6064820152608401610978565b80546116a18180611d96565b601e60008282546116b29190611c52565b9091555050600780548291906000906116cc908490611c52565b9091555050600080835560018301819055426002840155604051339183156108fc02918491818181858888f1935050505015801561170e573d6000803e3d6000fd5b50505050565b6001546001600160a01b0316331461176e5760405162461bcd60e51b815260206004820181905260248201527f4f776e61626c653a2063616c6c6572206973206e6f7420746865206f776e65726044820152606401610978565b6001600160a01b0381166117d35760405162461bcd60e51b815260206004820152602660248201527f4f776e61626c653a206e6577206f776e657220697320746865207a65726f206160448201526564647265737360d01b6064820152608401610978565b6109b981611806565b60006117f1836001600160a01b0384166119c2565b90505b92915050565b60006117f18284611d77565b600180546001600160a01b038381166001600160a01b0319831681179093556040519116919082907f8be0079c531659141344cd1fd0a4f28419497f9722a3daafe3b4186f6b6457e090600090a35050565b60006117f18284611d96565b60006117f18284611c6a565b604080516001600160a01b0385811660248301528481166044830152606480830185905283518084039091018152608490920183526020820180516001600160e01b03166323b872dd60e01b17905291516000928392908816916118d49190611ba9565b6000604051808303816000865af19150503d8060008114611911576040519150601f19603f3d011682016040523d82523d6000602084013e611916565b606091505b50915091508180156119405750805115806119405750808060200190518101906119409190611b5a565b6119985760405162461bcd60e51b8152602060048201526024808201527f5472616e7366657248656c7065723a205452414e534645525f46524f4d5f46416044820152631253115160e21b6064820152608401610978565b505050505050565b6001600160a01b038116600090815260018301602052604081205415156117f1565b6000818152600183016020526040812054611a09575081546001818101845560008481526020808220909301849055845484825282860190935260409020919091556117f4565b5060006117f4565b8035611a1c81611df4565b919050565b600060208284031215611a3357600080fd5b8135611a3e81611df4565b9392505050565b60008060008060008060008060006101e08a8c031215611a6457600080fd5b8935611a6f81611df4565b985060208a810135611a8081611df4565b985060408b0135611a9081611df4565b9750607f8b018c13611aa157600080fd5b60405160e0810181811067ffffffffffffffff82111715611ac457611ac4611dde565b6040528060608d016101408e018f811115611ade57600080fd5b60005b6007811015611afe57823584529285019291850191600101611ae1565b50929950509035965050506101608a013593506101808a01359250611b266101a08b01611a11565b91506101c08a013590509295985092959850929598565b600060208284031215611b4f57600080fd5b8135611a3e81611e09565b600060208284031215611b6c57600080fd5b8151611a3e81611e09565b600060208284031215611b8957600080fd5b5035919050565b600060208284031215611ba257600080fd5b5051919050565b6000825160005b81811015611bca5760208186018101518583015201611bb0565b81811115611bd9576000828501525b509190910192915050565b6020808252601b908201527f416c6c20746f6b656e20686173206265656e2077697468647261770000000000604082015260600190565b6020808252601f908201527f5265656e7472616e637947756172643a207265656e7472616e742063616c6c00604082015260600190565b60008219821115611c6557611c65611dc8565b500190565b600082611c8757634e487b7160e01b600052601260045260246000fd5b500490565b600181815b80851115611cc7578160001904821115611cad57611cad611dc8565b80851615611cba57918102915b93841c9390800290611c91565b509250929050565b60006117f18383600082611ce5575060016117f4565b81611cf2575060006117f4565b8160018114611d085760028114611d1257611d2e565b60019150506117f4565b60ff841115611d2357611d23611dc8565b50506001821b6117f4565b5060208310610133831016604e8410600b8410161715611d51575081810a6117f4565b611d5b8383611c8c565b8060001904821115611d6f57611d6f611dc8565b029392505050565b6000816000190483118215151615611d9157611d91611dc8565b500290565b600082821015611da857611da8611dc8565b500390565b6000600019821415611dc157611dc1611dc8565b5060010190565b634e487b7160e01b600052601160045260246000fd5b634e487b7160e01b600052604160045260246000fd5b6001600160a01b03811681146109b957600080fd5b80151581146109b957600080fdfea26469706673582212206f89371f3065210bdb956ca103739d2f2daa00f380f7ca15f7395a4e719200a764736f6c63430008050033",
					"opcodes": "PUSH1 0x80 PUSH1 0x40 MSTORE PUSH1 0x1 PUSH1 0x0 SSTORE PUSH3 0x14 CALLER PUSH3 0xA0 JUMP JUMPDEST PUSH1 0x1B DUP1 SLOAD PUSH20 0xC778417E063141139FCE010982780140AA0CD5AB PUSH1 0x1 PUSH1 0x1 PUSH1 0xA0 SHL SUB NOT SWAP1 SWAP2 AND OR SWAP1 SSTORE PUSH3 0x69 PUSH1 0x1C PUSH20 0x6CCB41EEDA5A073076F3E7DC1614C185B5FA41ED PUSH3 0xF2 PUSH1 0x20 SWAP1 DUP2 SHL PUSH3 0x17DC OR SWAP1 SHR JUMP JUMPDEST POP PUSH3 0x99 PUSH20 0x4F0B12BBF40FC182559822A5B1DB6D34DBC3E016 PUSH1 0x1C PUSH3 0xF2 PUSH1 0x20 SHL PUSH3 0x17DC OR SWAP1 SWAP2 SWAP1 PUSH1 0x20 SHR JUMP JUMPDEST POP PUSH3 0x164 JUMP JUMPDEST PUSH1 0x1 DUP1 SLOAD PUSH1 0x1 PUSH1 0x1 PUSH1 0xA0 SHL SUB DUP4 DUP2 AND PUSH1 0x1 PUSH1 0x1 PUSH1 0xA0 SHL SUB NOT DUP4 AND DUP2 OR SWAP1 SWAP4 SSTORE PUSH1 0x40 MLOAD SWAP2 AND SWAP2 SWAP1 DUP3 SWAP1 PUSH32 0x8BE0079C531659141344CD1FD0A4F28419497F9722A3DAAFE3B4186F6B6457E0 SWAP1 PUSH1 0x0 SWAP1 LOG3 POP POP JUMP JUMPDEST PUSH1 0x0 PUSH3 0x109 DUP4 PUSH1 0x1 PUSH1 0x1 PUSH1 0xA0 SHL SUB DUP5 AND PUSH3 0x112 JUMP JUMPDEST SWAP1 POP JUMPDEST SWAP3 SWAP2 POP POP JUMP JUMPDEST PUSH1 0x0 DUP2 DUP2 MSTORE PUSH1 0x1 DUP4 ADD PUSH1 0x20 MSTORE PUSH1 0x40 DUP2 KECCAK256 SLOAD PUSH3 0x15B JUMPI POP DUP2 SLOAD PUSH1 0x1 DUP2 DUP2 ADD DUP5 SSTORE PUSH1 0x0 DUP5 DUP2 MSTORE PUSH1 0x20 DUP1 DUP3 KECCAK256 SWAP1 SWAP4 ADD DUP5 SWAP1 SSTORE DUP5 SLOAD DUP5 DUP3 MSTORE DUP3 DUP7 ADD SWAP1 SWAP4 MSTORE PUSH1 0x40 SWAP1 KECCAK256 SWAP2 SWAP1 SWAP2 SSTORE PUSH3 0x10C JUMP JUMPDEST POP PUSH1 0x0 PUSH3 0x10C JUMP JUMPDEST PUSH2 0x1E4D DUP1 PUSH3 0x174 PUSH1 0x0 CODECOPY PUSH1 0x0 RETURN INVALID PUSH1 0x80 PUSH1 0x40 MSTORE PUSH1 0x4 CALLDATASIZE LT PUSH2 0x140 JUMPI PUSH1 0x0 CALLDATALOAD PUSH1 0xE0 SHR DUP1 PUSH4 0x95661E70 GT PUSH2 0xB6 JUMPI DUP1 PUSH4 0xCAD5B0F7 GT PUSH2 0x6F JUMPI DUP1 PUSH4 0xCAD5B0F7 EQ PUSH2 0x440 JUMPI DUP1 PUSH4 0xD4C1DEE9 EQ PUSH2 0x465 JUMPI DUP1 PUSH4 0xE2D3F423 EQ PUSH2 0x47B JUMPI DUP1 PUSH4 0xEB002BB0 EQ PUSH2 0x4ED JUMPI DUP1 PUSH4 0xF2FDE38B EQ PUSH2 0x50D JUMPI DUP1 PUSH4 0xF8B2CB4F EQ PUSH2 0x52D JUMPI PUSH1 0x0 DUP1 REVERT JUMPDEST DUP1 PUSH4 0x95661E70 EQ PUSH2 0x33C JUMPI DUP1 PUSH4 0xAB33985A EQ PUSH2 0x351 JUMPI DUP1 PUSH4 0xACFB2355 EQ PUSH2 0x366 JUMPI DUP1 PUSH4 0xAD5C4648 EQ PUSH2 0x3ED JUMPI DUP1 PUSH4 0xAE2B0965 EQ PUSH2 0x40D JUMPI DUP1 PUSH4 0xB6B55F25 EQ PUSH2 0x42D JUMPI PUSH1 0x0 DUP1 REVERT JUMPDEST DUP1 PUSH4 0x3B5EF2AD GT PUSH2 0x108 JUMPI DUP1 PUSH4 0x3B5EF2AD EQ PUSH2 0x295 JUMPI DUP1 PUSH4 0x56C5F349 EQ PUSH2 0x2AB JUMPI DUP1 PUSH4 0x715018A6 EQ PUSH2 0x2D8 JUMPI DUP1 PUSH4 0x861FAF5F EQ PUSH2 0x2ED JUMPI DUP1 PUSH4 0x8DA5CB5B EQ PUSH2 0x2F5 JUMPI DUP1 PUSH4 0x8EDF18E6 EQ PUSH2 0x327 JUMPI PUSH1 0x0 DUP1 REVERT JUMPDEST DUP1 PUSH4 0xA9C5DDB EQ PUSH2 0x145 JUMPI DUP1 PUSH4 0x12E5D0B9 EQ PUSH2 0x167 JUMPI DUP1 PUSH4 0x18856A2F EQ PUSH2 0x19C JUMPI DUP1 PUSH4 0x1DF4CCFC EQ PUSH2 0x25C JUMPI DUP1 PUSH4 0x200D2ED2 EQ PUSH2 0x280 JUMPI JUMPDEST PUSH1 0x0 DUP1 REVERT JUMPDEST CALLVALUE DUP1 ISZERO PUSH2 0x151 JUMPI PUSH1 0x0 DUP1 REVERT JUMPDEST POP PUSH2 0x165 PUSH2 0x160 CALLDATASIZE PUSH1 0x4 PUSH2 0x1A45 JUMP JUMPDEST PUSH2 0x555 JUMP JUMPDEST STOP JUMPDEST CALLVALUE DUP1 ISZERO PUSH2 0x173 JUMPI PUSH1 0x0 DUP1 REVERT JUMPDEST POP PUSH1 0xD SLOAD PUSH1 0xE SLOAD PUSH2 0x182 SWAP2 SWAP1 DUP3 JUMP JUMPDEST PUSH1 0x40 DUP1 MLOAD SWAP3 DUP4 MSTORE PUSH1 0x20 DUP4 ADD SWAP2 SWAP1 SWAP2 MSTORE ADD JUMPDEST PUSH1 0x40 MLOAD DUP1 SWAP2 SUB SWAP1 RETURN JUMPDEST CALLVALUE DUP1 ISZERO PUSH2 0x1A8 JUMPI PUSH1 0x0 DUP1 REVERT JUMPDEST POP PUSH1 0xF SLOAD PUSH1 0x10 SLOAD PUSH1 0x11 SLOAD PUSH1 0x12 SLOAD PUSH1 0x13 SLOAD PUSH1 0x14 SLOAD PUSH1 0x15 SLOAD PUSH1 0x16 SLOAD PUSH1 0x17 SLOAD PUSH1 0x18 SLOAD PUSH1 0x19 SLOAD PUSH1 0x1A SLOAD PUSH2 0x1F0 SWAP12 PUSH1 0x1 PUSH1 0x1 PUSH1 0xA0 SHL SUB SWAP1 DUP2 AND SWAP12 DUP2 AND SWAP11 AND SWAP9 SWAP8 SWAP7 SWAP6 SWAP5 SWAP4 SWAP3 SWAP2 PUSH1 0xFF AND SWAP1 DUP13 JUMP JUMPDEST PUSH1 0x40 DUP1 MLOAD PUSH1 0x1 PUSH1 0x1 PUSH1 0xA0 SHL SUB SWAP14 DUP15 AND DUP2 MSTORE SWAP12 DUP14 AND PUSH1 0x20 DUP14 ADD MSTORE SWAP10 SWAP1 SWAP12 AND SWAP9 DUP11 ADD SWAP9 SWAP1 SWAP9 MSTORE PUSH1 0x60 DUP10 ADD SWAP7 SWAP1 SWAP7 MSTORE PUSH1 0x80 DUP9 ADD SWAP5 SWAP1 SWAP5 MSTORE PUSH1 0xA0 DUP8 ADD SWAP3 SWAP1 SWAP3 MSTORE PUSH1 0xC0 DUP7 ADD MSTORE PUSH1 0xE0 DUP6 ADD MSTORE PUSH2 0x100 DUP5 ADD MSTORE PUSH2 0x120 DUP4 ADD MSTORE ISZERO ISZERO PUSH2 0x140 DUP3 ADD MSTORE PUSH2 0x160 DUP2 ADD SWAP2 SWAP1 SWAP2 MSTORE PUSH2 0x180 ADD PUSH2 0x193 JUMP JUMPDEST CALLVALUE DUP1 ISZERO PUSH2 0x268 JUMPI PUSH1 0x0 DUP1 REVERT JUMPDEST POP PUSH2 0x272 PUSH1 0x1E SLOAD DUP2 JUMP JUMPDEST PUSH1 0x40 MLOAD SWAP1 DUP2 MSTORE PUSH1 0x20 ADD PUSH2 0x193 JUMP JUMPDEST CALLVALUE DUP1 ISZERO PUSH2 0x28C JUMPI PUSH1 0x0 DUP1 REVERT JUMPDEST POP PUSH2 0x272 PUSH2 0x8F9 JUMP JUMPDEST CALLVALUE DUP1 ISZERO PUSH2 0x2A1 JUMPI PUSH1 0x0 DUP1 REVERT JUMPDEST POP PUSH2 0x272 PUSH1 0x1F SLOAD DUP2 JUMP JUMPDEST CALLVALUE DUP1 ISZERO PUSH2 0x2B7 JUMPI PUSH1 0x0 DUP1 REVERT JUMPDEST POP PUSH2 0x272 PUSH2 0x2C6 CALLDATASIZE PUSH1 0x4 PUSH2 0x1A21 JUMP JUMPDEST PUSH1 0x3 PUSH1 0x20 MSTORE PUSH1 0x0 SWAP1 DUP2 MSTORE PUSH1 0x40 SWAP1 KECCAK256 SLOAD DUP2 JUMP JUMPDEST CALLVALUE DUP1 ISZERO PUSH2 0x2E4 JUMPI PUSH1 0x0 DUP1 REVERT JUMPDEST POP PUSH2 0x165 PUSH2 0x922 JUMP JUMPDEST PUSH2 0x165 PUSH2 0x98D JUMP JUMPDEST CALLVALUE DUP1 ISZERO PUSH2 0x301 JUMPI PUSH1 0x0 DUP1 REVERT JUMPDEST POP PUSH1 0x1 SLOAD PUSH1 0x1 PUSH1 0x1 PUSH1 0xA0 SHL SUB AND JUMPDEST PUSH1 0x40 MLOAD PUSH1 0x1 PUSH1 0x1 PUSH1 0xA0 SHL SUB SWAP1 SWAP2 AND DUP2 MSTORE PUSH1 0x20 ADD PUSH2 0x193 JUMP JUMPDEST CALLVALUE DUP1 ISZERO PUSH2 0x333 JUMPI PUSH1 0x0 DUP1 REVERT JUMPDEST POP PUSH2 0x165 PUSH2 0x9BC JUMP JUMPDEST CALLVALUE DUP1 ISZERO PUSH2 0x348 JUMPI PUSH1 0x0 DUP1 REVERT JUMPDEST POP PUSH2 0x165 PUSH2 0xC81 JUMP JUMPDEST CALLVALUE DUP1 ISZERO PUSH2 0x35D JUMPI PUSH1 0x0 DUP1 REVERT JUMPDEST POP PUSH2 0x165 PUSH2 0xE58 JUMP JUMPDEST CALLVALUE DUP1 ISZERO PUSH2 0x372 JUMPI PUSH1 0x0 DUP1 REVERT JUMPDEST POP PUSH1 0x4 SLOAD PUSH1 0x5 SLOAD PUSH1 0x6 SLOAD PUSH1 0x7 SLOAD PUSH1 0x8 SLOAD PUSH1 0x9 SLOAD PUSH1 0xA SLOAD PUSH1 0xB SLOAD PUSH2 0x3A5 SWAP8 SWAP7 SWAP6 SWAP5 SWAP4 SWAP3 SWAP2 SWAP1 PUSH1 0xFF DUP1 DUP3 AND SWAP2 PUSH2 0x100 SWAP1 DIV AND DUP10 JUMP JUMPDEST PUSH1 0x40 DUP1 MLOAD SWAP10 DUP11 MSTORE PUSH1 0x20 DUP11 ADD SWAP9 SWAP1 SWAP9 MSTORE SWAP7 DUP9 ADD SWAP6 SWAP1 SWAP6 MSTORE PUSH1 0x60 DUP8 ADD SWAP4 SWAP1 SWAP4 MSTORE PUSH1 0x80 DUP7 ADD SWAP2 SWAP1 SWAP2 MSTORE PUSH1 0xA0 DUP6 ADD MSTORE PUSH1 0xC0 DUP5 ADD MSTORE ISZERO ISZERO PUSH1 0xE0 DUP4 ADD MSTORE ISZERO ISZERO PUSH2 0x100 DUP3 ADD MSTORE PUSH2 0x120 ADD PUSH2 0x193 JUMP JUMPDEST CALLVALUE DUP1 ISZERO PUSH2 0x3F9 JUMPI PUSH1 0x0 DUP1 REVERT JUMPDEST POP PUSH1 0x1B SLOAD PUSH2 0x30F SWAP1 PUSH1 0x1 PUSH1 0x1 PUSH1 0xA0 SHL SUB AND DUP2 JUMP JUMPDEST CALLVALUE DUP1 ISZERO PUSH2 0x419 JUMPI PUSH1 0x0 DUP1 REVERT JUMPDEST POP PUSH1 0x20 SLOAD PUSH2 0x30F SWAP1 PUSH1 0x1 PUSH1 0x1 PUSH1 0xA0 SHL SUB AND DUP2 JUMP JUMPDEST PUSH2 0x165 PUSH2 0x43B CALLDATASIZE PUSH1 0x4 PUSH2 0x1B77 JUMP JUMPDEST PUSH2 0x107E JUMP JUMPDEST CALLVALUE DUP1 ISZERO PUSH2 0x44C JUMPI PUSH1 0x0 DUP1 REVERT JUMPDEST POP PUSH2 0x455 PUSH2 0x144D JUMP JUMPDEST PUSH1 0x40 MLOAD SWAP1 ISZERO ISZERO DUP2 MSTORE PUSH1 0x20 ADD PUSH2 0x193 JUMP JUMPDEST CALLVALUE DUP1 ISZERO PUSH2 0x471 JUMPI PUSH1 0x0 DUP1 REVERT JUMPDEST POP PUSH2 0x272 PUSH1 0x21 SLOAD DUP2 JUMP JUMPDEST CALLVALUE DUP1 ISZERO PUSH2 0x487 JUMPI PUSH1 0x0 DUP1 REVERT JUMPDEST POP PUSH2 0x4C5 PUSH2 0x496 CALLDATASIZE PUSH1 0x4 PUSH2 0x1A21 JUMP JUMPDEST PUSH1 0x2 PUSH1 0x20 DUP2 SWAP1 MSTORE PUSH1 0x0 SWAP2 DUP3 MSTORE PUSH1 0x40 SWAP1 SWAP2 KECCAK256 DUP1 SLOAD PUSH1 0x1 DUP3 ADD SLOAD SWAP3 DUP3 ADD SLOAD PUSH1 0x3 DUP4 ADD SLOAD PUSH1 0x4 SWAP1 SWAP4 ADD SLOAD SWAP2 SWAP4 SWAP3 SWAP1 SWAP2 DUP6 JUMP JUMPDEST PUSH1 0x40 DUP1 MLOAD SWAP6 DUP7 MSTORE PUSH1 0x20 DUP7 ADD SWAP5 SWAP1 SWAP5 MSTORE SWAP3 DUP5 ADD SWAP2 SWAP1 SWAP2 MSTORE PUSH1 0x60 DUP4 ADD MSTORE PUSH1 0x80 DUP3 ADD MSTORE PUSH1 0xA0 ADD PUSH2 0x193 JUMP JUMPDEST CALLVALUE DUP1 ISZERO PUSH2 0x4F9 JUMPI PUSH1 0x0 DUP1 REVERT JUMPDEST POP PUSH2 0x165 PUSH2 0x508 CALLDATASIZE PUSH1 0x4 PUSH2 0x1B3D JUMP JUMPDEST PUSH2 0x145F JUMP JUMPDEST CALLVALUE DUP1 ISZERO PUSH2 0x519 JUMPI PUSH1 0x0 DUP1 REVERT JUMPDEST POP PUSH2 0x165 PUSH2 0x528 CALLDATASIZE PUSH1 0x4 PUSH2 0x1A21 JUMP JUMPDEST PUSH2 0x1714 JUMP JUMPDEST CALLVALUE DUP1 ISZERO PUSH2 0x539 JUMPI PUSH1 0x0 DUP1 REVERT JUMPDEST POP PUSH2 0x272 PUSH2 0x548 CALLDATASIZE PUSH1 0x4 PUSH2 0x1A21 JUMP JUMPDEST PUSH1 0x1 PUSH1 0x1 PUSH1 0xA0 SHL SUB AND BALANCE SWAP1 JUMP JUMPDEST PUSH1 0xF DUP1 SLOAD PUSH1 0x1 PUSH1 0x1 PUSH1 0xA0 SHL SUB DUP1 DUP13 AND PUSH1 0x1 PUSH1 0x1 PUSH1 0xA0 SHL SUB NOT SWAP3 DUP4 AND OR SWAP1 SWAP3 SSTORE PUSH1 0x10 DUP1 SLOAD DUP12 DUP5 AND SWAP1 DUP4 AND DUP2 OR SWAP1 SWAP2 SSTORE PUSH1 0x11 DUP1 SLOAD SWAP4 DUP12 AND SWAP4 SWAP1 SWAP3 AND SWAP3 SWAP1 SWAP3 OR SWAP1 SSTORE PUSH1 0x40 DUP1 MLOAD PUSH4 0x313CE567 PUSH1 0xE0 SHL DUP2 MSTORE SWAP1 MLOAD PUSH4 0x313CE567 SWAP2 PUSH1 0x4 DUP1 DUP3 ADD SWAP3 PUSH1 0x20 SWAP3 SWAP1 SWAP2 SWAP1 DUP3 SWAP1 SUB ADD DUP2 DUP7 DUP1 EXTCODESIZE ISZERO DUP1 ISZERO PUSH2 0x5CA JUMPI PUSH1 0x0 DUP1 REVERT JUMPDEST POP GAS STATICCALL ISZERO DUP1 ISZERO PUSH2 0x5DE JUMPI RETURNDATASIZE PUSH1 0x0 DUP1 RETURNDATACOPY RETURNDATASIZE PUSH1 0x0 REVERT JUMPDEST POP POP POP POP PUSH1 0x40 MLOAD RETURNDATASIZE PUSH1 0x1F NOT PUSH1 0x1F DUP3 ADD AND DUP3 ADD DUP1 PUSH1 0x40 MSTORE POP DUP2 ADD SWAP1 PUSH2 0x602 SWAP2 SWAP1 PUSH2 0x1B90 JUMP JUMPDEST PUSH2 0x60D SWAP1 PUSH1 0xA PUSH2 0x1CCF JUMP JUMPDEST DUP7 MLOAD PUSH2 0x619 SWAP2 SWAP1 PUSH2 0x1D77 JUMP JUMPDEST PUSH1 0x12 SSTORE PUSH1 0x20 DUP1 DUP8 ADD MLOAD PUSH1 0x13 SSTORE PUSH1 0x40 DUP1 DUP9 ADD MLOAD PUSH1 0x14 SSTORE PUSH1 0x60 DUP9 ADD MLOAD PUSH1 0x15 SSTORE PUSH1 0x11 SLOAD DUP2 MLOAD PUSH4 0x313CE567 PUSH1 0xE0 SHL DUP2 MSTORE SWAP2 MLOAD PUSH1 0x1 PUSH1 0x1 PUSH1 0xA0 SHL SUB SWAP1 SWAP2 AND SWAP3 PUSH4 0x313CE567 SWAP3 PUSH1 0x4 DUP1 DUP3 ADD SWAP4 SWAP2 DUP3 SWAP1 SUB ADD DUP2 DUP7 DUP1 EXTCODESIZE ISZERO DUP1 ISZERO PUSH2 0x674 JUMPI PUSH1 0x0 DUP1 REVERT JUMPDEST POP GAS STATICCALL ISZERO DUP1 ISZERO PUSH2 0x688 JUMPI RETURNDATASIZE PUSH1 0x0 DUP1 RETURNDATACOPY RETURNDATASIZE PUSH1 0x0 REVERT JUMPDEST POP POP POP POP PUSH1 0x40 MLOAD RETURNDATASIZE PUSH1 0x1F NOT PUSH1 0x1F DUP3 ADD AND DUP3 ADD DUP1 PUSH1 0x40 MSTORE POP DUP2 ADD SWAP1 PUSH2 0x6AC SWAP2 SWAP1 PUSH2 0x1B90 JUMP JUMPDEST PUSH2 0x6B7 SWAP1 PUSH1 0xA PUSH2 0x1CCF JUMP JUMPDEST PUSH1 0x80 DUP8 ADD MLOAD PUSH2 0x6C6 SWAP2 SWAP1 PUSH2 0x1D77 JUMP JUMPDEST PUSH1 0x16 SSTORE PUSH1 0x11 SLOAD PUSH1 0x40 DUP1 MLOAD PUSH4 0x313CE567 PUSH1 0xE0 SHL DUP2 MSTORE SWAP1 MLOAD PUSH1 0x1 PUSH1 0x1 PUSH1 0xA0 SHL SUB SWAP1 SWAP3 AND SWAP2 PUSH4 0x313CE567 SWAP2 PUSH1 0x4 DUP1 DUP3 ADD SWAP3 PUSH1 0x20 SWAP3 SWAP1 SWAP2 SWAP1 DUP3 SWAP1 SUB ADD DUP2 DUP7 DUP1 EXTCODESIZE ISZERO DUP1 ISZERO PUSH2 0x70E JUMPI PUSH1 0x0 DUP1 REVERT JUMPDEST POP GAS STATICCALL ISZERO DUP1 ISZERO PUSH2 0x722 JUMPI RETURNDATASIZE PUSH1 0x0 DUP1 RETURNDATACOPY RETURNDATASIZE PUSH1 0x0 REVERT JUMPDEST POP POP POP POP PUSH1 0x40 MLOAD RETURNDATASIZE PUSH1 0x1F NOT PUSH1 0x1F DUP3 ADD AND DUP3 ADD DUP1 PUSH1 0x40 MSTORE POP DUP2 ADD SWAP1 PUSH2 0x746 SWAP2 SWAP1 PUSH2 0x1B90 JUMP JUMPDEST PUSH2 0x751 SWAP1 PUSH1 0xA PUSH2 0x1CCF JUMP JUMPDEST PUSH1 0xA0 DUP8 ADD MLOAD PUSH2 0x760 SWAP2 SWAP1 PUSH2 0x1D77 JUMP JUMPDEST PUSH1 0xD SSTORE PUSH1 0x11 SLOAD PUSH1 0x40 DUP1 MLOAD PUSH4 0x313CE567 PUSH1 0xE0 SHL DUP2 MSTORE SWAP1 MLOAD PUSH1 0x1 PUSH1 0x1 PUSH1 0xA0 SHL SUB SWAP1 SWAP3 AND SWAP2 PUSH4 0x313CE567 SWAP2 PUSH1 0x4 DUP1 DUP3 ADD SWAP3 PUSH1 0x20 SWAP3 SWAP1 SWAP2 SWAP1 DUP3 SWAP1 SUB ADD DUP2 DUP7 DUP1 EXTCODESIZE ISZERO DUP1 ISZERO PUSH2 0x7A8 JUMPI PUSH1 0x0 DUP1 REVERT JUMPDEST POP GAS STATICCALL ISZERO DUP1 ISZERO PUSH2 0x7BC JUMPI RETURNDATASIZE PUSH1 0x0 DUP1 RETURNDATACOPY RETURNDATASIZE PUSH1 0x0 REVERT JUMPDEST POP POP POP POP PUSH1 0x40 MLOAD RETURNDATASIZE PUSH1 0x1F NOT PUSH1 0x1F DUP3 ADD AND DUP3 ADD DUP1 PUSH1 0x40 MSTORE POP DUP2 ADD SWAP1 PUSH2 0x7E0 SWAP2 SWAP1 PUSH2 0x1B90 JUMP JUMPDEST PUSH2 0x7EB SWAP1 PUSH1 0xA PUSH2 0x1CCF JUMP JUMPDEST PUSH1 0xC0 DUP8 ADD MLOAD PUSH2 0x7FA SWAP2 SWAP1 PUSH2 0x1D77 JUMP JUMPDEST PUSH1 0xE SSTORE PUSH1 0x11 SLOAD PUSH1 0x1B SLOAD PUSH1 0x19 DUP1 SLOAD PUSH1 0xFF NOT AND PUSH1 0x1 PUSH1 0x1 PUSH1 0xA0 SHL SUB SWAP3 DUP4 AND SWAP3 SWAP1 SWAP4 AND SWAP2 DUP3 EQ SWAP3 SWAP1 SWAP3 OR SWAP1 SWAP2 SSTORE PUSH1 0x40 DUP1 MLOAD PUSH4 0x313CE567 PUSH1 0xE0 SHL DUP2 MSTORE SWAP1 MLOAD PUSH4 0x313CE567 SWAP2 PUSH1 0x4 DUP1 DUP3 ADD SWAP3 PUSH1 0x20 SWAP3 SWAP1 SWAP2 SWAP1 DUP3 SWAP1 SUB ADD DUP2 DUP7 DUP1 EXTCODESIZE ISZERO DUP1 ISZERO PUSH2 0x85A JUMPI PUSH1 0x0 DUP1 REVERT JUMPDEST POP GAS STATICCALL ISZERO DUP1 ISZERO PUSH2 0x86E JUMPI RETURNDATASIZE PUSH1 0x0 DUP1 RETURNDATACOPY RETURNDATASIZE PUSH1 0x0 REVERT JUMPDEST POP POP POP POP PUSH1 0x40 MLOAD RETURNDATASIZE PUSH1 0x1F NOT PUSH1 0x1F DUP3 ADD AND DUP3 ADD DUP1 PUSH1 0x40 MSTORE POP DUP2 ADD SWAP1 PUSH2 0x892 SWAP2 SWAP1 PUSH2 0x1B90 JUMP JUMPDEST PUSH2 0x89D SWAP1 PUSH1 0xA PUSH2 0x1CCF JUMP JUMPDEST PUSH1 0xD SLOAD PUSH1 0x12 SLOAD PUSH2 0x8AC SWAP2 PUSH2 0x17FA JUMP JUMPDEST PUSH2 0x8B6 SWAP2 SWAP1 PUSH2 0x1C6A JUMP JUMPDEST PUSH1 0x1A SSTORE PUSH1 0xA0 DUP7 ADD MLOAD PUSH1 0x17 SSTORE PUSH1 0xC0 SWAP1 SWAP6 ADD MLOAD PUSH1 0x18 SSTORE PUSH1 0x1F SWAP2 SWAP1 SWAP2 SSTORE PUSH1 0x20 DUP1 SLOAD PUSH1 0x1 PUSH1 0x1 PUSH1 0xA0 SHL SUB NOT AND PUSH1 0x1 PUSH1 0x1 PUSH1 0xA0 SHL SUB SWAP1 SWAP3 AND SWAP2 SWAP1 SWAP2 OR SWAP1 SSTORE POP POP PUSH1 0x21 SSTORE POP POP POP JUMP JUMPDEST PUSH1 0x13 SLOAD PUSH1 0x0 SWAP1 TIMESTAMP LT ISZERO PUSH2 0x90C JUMPI POP PUSH1 0x0 SWAP1 JUMP JUMPDEST PUSH1 0x14 SLOAD TIMESTAMP GT ISZERO PUSH2 0x91C JUMPI POP PUSH1 0x2 SWAP1 JUMP JUMPDEST POP PUSH1 0x1 SWAP1 JUMP JUMPDEST PUSH1 0x1 SLOAD PUSH1 0x1 PUSH1 0x1 PUSH1 0xA0 SHL SUB AND CALLER EQ PUSH2 0x981 JUMPI PUSH1 0x40 MLOAD PUSH3 0x461BCD PUSH1 0xE5 SHL DUP2 MSTORE PUSH1 0x20 PUSH1 0x4 DUP3 ADD DUP2 SWAP1 MSTORE PUSH1 0x24 DUP3 ADD MSTORE PUSH32 0x4F776E61626C653A2063616C6C6572206973206E6F7420746865206F776E6572 PUSH1 0x44 DUP3 ADD MSTORE PUSH1 0x64 ADD JUMPDEST PUSH1 0x40 MLOAD DUP1 SWAP2 SUB SWAP1 REVERT JUMPDEST PUSH2 0x98B PUSH1 0x0 PUSH2 0x1806 JUMP JUMPDEST JUMP JUMPDEST PUSH1 0x40 MLOAD CALLER SWAP1 SELFBALANCE DUP1 ISZERO PUSH2 0x8FC MUL SWAP2 PUSH1 0x0 DUP2 DUP2 DUP2 DUP6 DUP9 DUP9 CALL SWAP4 POP POP POP POP ISZERO DUP1 ISZERO PUSH2 0x9B9 JUMPI RETURNDATASIZE PUSH1 0x0 DUP1 RETURNDATACOPY RETURNDATASIZE PUSH1 0x0 REVERT JUMPDEST POP JUMP JUMPDEST PUSH1 0xF SLOAD PUSH1 0x1 PUSH1 0x1 PUSH1 0xA0 SHL SUB AND CALLER PUSH1 0x1 PUSH1 0x1 PUSH1 0xA0 SHL SUB AND EQ PUSH2 0xA14 JUMPI PUSH1 0x40 MLOAD PUSH3 0x461BCD PUSH1 0xE5 SHL DUP2 MSTORE PUSH1 0x20 PUSH1 0x4 DUP3 ADD MSTORE PUSH1 0x12 PUSH1 0x24 DUP3 ADD MSTORE PUSH18 0x27B7363C90383932B9B0B6329037BBB732B9 PUSH1 0x71 SHL PUSH1 0x44 DUP3 ADD MSTORE PUSH1 0x64 ADD PUSH2 0x978 JUMP JUMPDEST PUSH1 0x2 PUSH1 0x0 SLOAD EQ ISZERO PUSH2 0xA37 JUMPI PUSH1 0x40 MLOAD PUSH3 0x461BCD PUSH1 0xE5 SHL DUP2 MSTORE PUSH1 0x4 ADD PUSH2 0x978 SWAP1 PUSH2 0x1C1B JUMP JUMPDEST PUSH1 0x2 PUSH1 0x0 SWAP1 DUP2 SSTORE PUSH1 0x10 SLOAD PUSH1 0x40 MLOAD PUSH4 0x70A08231 PUSH1 0xE0 SHL DUP2 MSTORE ADDRESS PUSH1 0x4 DUP3 ADD MSTORE PUSH1 0x1 PUSH1 0x1 PUSH1 0xA0 SHL SUB SWAP1 SWAP2 AND SWAP1 PUSH4 0x70A08231 SWAP1 PUSH1 0x24 ADD PUSH1 0x20 PUSH1 0x40 MLOAD DUP1 DUP4 SUB DUP2 DUP7 DUP1 EXTCODESIZE ISZERO DUP1 ISZERO PUSH2 0xA81 JUMPI PUSH1 0x0 DUP1 REVERT JUMPDEST POP GAS STATICCALL ISZERO DUP1 ISZERO PUSH2 0xA95 JUMPI RETURNDATASIZE PUSH1 0x0 DUP1 RETURNDATACOPY RETURNDATASIZE PUSH1 0x0 REVERT JUMPDEST POP POP POP POP PUSH1 0x40 MLOAD RETURNDATASIZE PUSH1 0x1F NOT PUSH1 0x1F DUP3 ADD AND DUP3 ADD DUP1 PUSH1 0x40 MSTORE POP DUP2 ADD SWAP1 PUSH2 0xAB9 SWAP2 SWAP1 PUSH2 0x1B90 JUMP JUMPDEST PUSH1 0x8 SLOAD PUSH1 0x4 SLOAD SWAP2 SWAP3 POP PUSH1 0x0 SWAP2 PUSH2 0xACE SWAP2 PUSH2 0x1858 JUMP JUMPDEST PUSH1 0x4 SLOAD SWAP1 SWAP2 POP ISZERO PUSH2 0xAF7 JUMPI PUSH1 0x8 SLOAD PUSH1 0x5 SLOAD PUSH2 0xAF4 SWAP2 PUSH2 0xAED SWAP2 SWAP1 PUSH2 0x1858 JUMP JUMPDEST DUP4 SWAP1 PUSH2 0x1858 JUMP JUMPDEST SWAP2 POP JUMPDEST PUSH1 0xB SLOAD PUSH1 0xFF AND ISZERO PUSH2 0xB4A JUMPI PUSH1 0x40 MLOAD PUSH3 0x461BCD PUSH1 0xE5 SHL DUP2 MSTORE PUSH1 0x20 PUSH1 0x4 DUP3 ADD MSTORE PUSH1 0x1D PUSH1 0x24 DUP3 ADD MSTORE PUSH32 0x4E6F7468696E6720666F72206F776E657220636C61696D20746F6B656E000000 PUSH1 0x44 DUP3 ADD MSTORE PUSH1 0x64 ADD PUSH2 0x978 JUMP JUMPDEST PUSH1 0xB SLOAD PUSH2 0x100 SWAP1 DIV PUSH1 0xFF AND ISZERO PUSH2 0xBA2 JUMPI PUSH1 0x40 MLOAD PUSH3 0x461BCD PUSH1 0xE5 SHL DUP2 MSTORE PUSH1 0x20 PUSH1 0x4 DUP3 ADD MSTORE PUSH1 0x1E PUSH1 0x24 DUP3 ADD MSTORE PUSH32 0x4E6F7468696E6720666F72206F776E657220726566756E6420746F6B656E0000 PUSH1 0x44 DUP3 ADD MSTORE PUSH1 0x64 ADD PUSH2 0x978 JUMP JUMPDEST PUSH1 0xB DUP1 SLOAD PUSH1 0xFF NOT AND PUSH1 0x1 OR SWAP1 SSTORE PUSH1 0x0 PUSH1 0x1A SSTORE PUSH1 0x10 SLOAD PUSH1 0xF SLOAD PUSH1 0x40 MLOAD PUSH4 0xA9059CBB PUSH1 0xE0 SHL DUP2 MSTORE PUSH1 0x1 PUSH1 0x1 PUSH1 0xA0 SHL SUB SWAP2 DUP3 AND PUSH1 0x4 DUP3 ADD MSTORE PUSH1 0x24 DUP2 ADD DUP6 SWAP1 MSTORE SWAP2 AND SWAP1 PUSH4 0xA9059CBB SWAP1 PUSH1 0x44 ADD PUSH1 0x20 PUSH1 0x40 MLOAD DUP1 DUP4 SUB DUP2 PUSH1 0x0 DUP8 DUP1 EXTCODESIZE ISZERO DUP1 ISZERO PUSH2 0xC04 JUMPI PUSH1 0x0 DUP1 REVERT JUMPDEST POP GAS CALL ISZERO DUP1 ISZERO PUSH2 0xC18 JUMPI RETURNDATASIZE PUSH1 0x0 DUP1 RETURNDATACOPY RETURNDATASIZE PUSH1 0x0 REVERT JUMPDEST POP POP POP POP PUSH1 0x40 MLOAD RETURNDATASIZE PUSH1 0x1F NOT PUSH1 0x1F DUP3 ADD AND DUP3 ADD DUP1 PUSH1 0x40 MSTORE POP DUP2 ADD SWAP1 PUSH2 0xC3C SWAP2 SWAP1 PUSH2 0x1B5A JUMP JUMPDEST POP PUSH1 0xF SLOAD PUSH1 0x40 MLOAD PUSH1 0x1 PUSH1 0x1 PUSH1 0xA0 SHL SUB SWAP1 SWAP2 AND SWAP1 DUP3 ISZERO PUSH2 0x8FC MUL SWAP1 DUP4 SWAP1 PUSH1 0x0 DUP2 DUP2 DUP2 DUP6 DUP9 DUP9 CALL SWAP4 POP POP POP POP ISZERO DUP1 ISZERO PUSH2 0xC77 JUMPI RETURNDATASIZE PUSH1 0x0 DUP1 RETURNDATACOPY RETURNDATASIZE PUSH1 0x0 REVERT JUMPDEST POP POP PUSH1 0x1 PUSH1 0x0 SSTORE POP JUMP JUMPDEST PUSH1 0x2 PUSH1 0x0 SLOAD EQ ISZERO PUSH2 0xCA4 JUMPI PUSH1 0x40 MLOAD PUSH3 0x461BCD PUSH1 0xE5 SHL DUP2 MSTORE PUSH1 0x4 ADD PUSH2 0x978 SWAP1 PUSH2 0x1C1B JUMP JUMPDEST PUSH1 0x2 PUSH1 0x0 SWAP1 DUP2 SSTORE PUSH1 0x7 SLOAD PUSH1 0x4 SLOAD PUSH2 0xCBB SWAP2 SWAP1 PUSH2 0x1D96 JUMP JUMPDEST GT PUSH2 0xCD8 JUMPI PUSH1 0x40 MLOAD PUSH3 0x461BCD PUSH1 0xE5 SHL DUP2 MSTORE PUSH1 0x4 ADD PUSH2 0x978 SWAP1 PUSH2 0x1BE4 JUMP JUMPDEST CALLER PUSH1 0x0 SWAP1 DUP2 MSTORE PUSH1 0x2 PUSH1 0x20 MSTORE PUSH1 0x40 SWAP1 KECCAK256 DUP1 SLOAD PUSH2 0xD2F JUMPI PUSH1 0x40 MLOAD PUSH3 0x461BCD PUSH1 0xE5 SHL DUP2 MSTORE PUSH1 0x20 PUSH1 0x4 DUP3 ADD MSTORE PUSH1 0x17 PUSH1 0x24 DUP3 ADD MSTORE PUSH23 0x165BDD481A185D99481B9BDD08189BDD59DA1D081E595D PUSH1 0x4A SHL PUSH1 0x44 DUP3 ADD MSTORE PUSH1 0x64 ADD PUSH2 0x978 JUMP JUMPDEST PUSH1 0x4 DUP2 ADD SLOAD DUP2 SLOAD GT PUSH2 0xD74 JUMPI PUSH1 0x40 MLOAD PUSH3 0x461BCD PUSH1 0xE5 SHL DUP2 MSTORE PUSH1 0x20 PUSH1 0x4 DUP3 ADD MSTORE PUSH1 0xE PUSH1 0x24 DUP3 ADD MSTORE PUSH14 0x165BDD481C99599D5B9908185B1B PUSH1 0x92 SHL PUSH1 0x44 DUP3 ADD MSTORE PUSH1 0x64 ADD PUSH2 0x978 JUMP JUMPDEST DUP1 SLOAD PUSH1 0x17 SLOAD PUSH1 0x0 SWAP2 PUSH2 0xD9F SWAP2 PUSH2 0x3E8 SWAP2 PUSH2 0xD99 SWAP2 PUSH2 0xD93 SWAP1 DUP5 SWAP1 PUSH2 0x1858 JUMP JUMPDEST SWAP1 PUSH2 0x17FA JUMP JUMPDEST SWAP1 PUSH2 0x1864 JUMP JUMPDEST DUP3 SLOAD SWAP1 SWAP2 POP PUSH2 0xDAF SWAP1 DUP3 SWAP1 PUSH2 0x1D96 JUMP JUMPDEST PUSH1 0x1E PUSH1 0x0 DUP3 DUP3 SLOAD PUSH2 0xDC0 SWAP2 SWAP1 PUSH2 0x1C52 JUMP JUMPDEST SWAP1 SWAP2 SSTORE POP POP PUSH1 0x7 DUP1 SLOAD DUP3 SWAP2 SWAP1 PUSH1 0x0 SWAP1 PUSH2 0xDDA SWAP1 DUP5 SWAP1 PUSH2 0x1C52 JUMP JUMPDEST SWAP3 POP POP DUP2 SWAP1 SSTORE POP DUP1 DUP3 PUSH1 0x4 ADD PUSH1 0x0 DUP3 DUP3 SLOAD PUSH2 0xDF5 SWAP2 SWAP1 PUSH2 0x1C52 JUMP JUMPDEST SWAP1 SWAP2 SSTORE POP POP TIMESTAMP PUSH1 0x2 DUP4 ADD SSTORE PUSH1 0x3 DUP3 ADD SLOAD PUSH1 0x1 DUP4 ADD SLOAD PUSH2 0xE14 SWAP2 SWAP1 PUSH2 0x1D96 JUMP JUMPDEST PUSH1 0x8 DUP1 SLOAD PUSH1 0x0 SWAP1 PUSH2 0xE26 SWAP1 DUP5 SWAP1 PUSH2 0x1C52 JUMP JUMPDEST SWAP1 SWAP2 SSTORE POP POP PUSH1 0x40 MLOAD CALLER SWAP1 DUP3 ISZERO PUSH2 0x8FC MUL SWAP1 DUP4 SWAP1 PUSH1 0x0 DUP2 DUP2 DUP2 DUP6 DUP9 DUP9 CALL SWAP4 POP POP POP POP ISZERO DUP1 ISZERO PUSH2 0xC77 JUMPI RETURNDATASIZE PUSH1 0x0 DUP1 RETURNDATACOPY RETURNDATASIZE PUSH1 0x0 REVERT JUMPDEST PUSH1 0x2 PUSH1 0x0 SLOAD EQ ISZERO PUSH2 0xE7B JUMPI PUSH1 0x40 MLOAD PUSH3 0x461BCD PUSH1 0xE5 SHL DUP2 MSTORE PUSH1 0x4 ADD PUSH2 0x978 SWAP1 PUSH2 0x1C1B JUMP JUMPDEST PUSH1 0x2 PUSH1 0x0 SWAP1 DUP2 SSTORE PUSH1 0x6 SLOAD PUSH1 0x5 SLOAD PUSH2 0xE92 SWAP2 SWAP1 PUSH2 0x1D96 JUMP JUMPDEST GT PUSH2 0xEAF JUMPI PUSH1 0x40 MLOAD PUSH3 0x461BCD PUSH1 0xE5 SHL DUP2 MSTORE PUSH1 0x4 ADD PUSH2 0x978 SWAP1 PUSH2 0x1BE4 JUMP JUMPDEST CALLER PUSH1 0x0 SWAP1 DUP2 MSTORE PUSH1 0x2 PUSH1 0x20 MSTORE PUSH1 0x40 SWAP1 KECCAK256 PUSH1 0x1 DUP2 ADD SLOAD PUSH2 0xF09 JUMPI PUSH1 0x40 MLOAD PUSH3 0x461BCD PUSH1 0xE5 SHL DUP2 MSTORE PUSH1 0x20 PUSH1 0x4 DUP3 ADD MSTORE PUSH1 0x17 PUSH1 0x24 DUP3 ADD MSTORE PUSH23 0x165BDD481A185D99481B9BDD08189BDD59DA1D081E595D PUSH1 0x4A SHL PUSH1 0x44 DUP3 ADD MSTORE PUSH1 0x64 ADD PUSH2 0x978 JUMP JUMPDEST DUP1 PUSH1 0x3 ADD SLOAD DUP2 PUSH1 0x1 ADD SLOAD GT PUSH2 0xF51 JUMPI PUSH1 0x40 MLOAD PUSH3 0x461BCD PUSH1 0xE5 SHL DUP2 MSTORE PUSH1 0x20 PUSH1 0x4 DUP3 ADD MSTORE PUSH1 0xE PUSH1 0x24 DUP3 ADD MSTORE PUSH14 0x165BDD4818DB185A5B48185B1B1B PUSH1 0x92 SHL PUSH1 0x44 DUP3 ADD MSTORE PUSH1 0x64 ADD PUSH2 0x978 JUMP JUMPDEST PUSH1 0x0 PUSH2 0xF7B PUSH2 0x3E8 PUSH2 0xD99 DUP5 PUSH1 0x1 ADD SLOAD PUSH2 0xD93 PUSH1 0xF PUSH1 0x9 ADD SLOAD PUSH2 0x3E8 PUSH2 0x1858 SWAP1 SWAP2 SWAP1 PUSH4 0xFFFFFFFF AND JUMP JUMPDEST SWAP1 POP DUP1 PUSH1 0x4 PUSH1 0x2 ADD PUSH1 0x0 DUP3 DUP3 SLOAD PUSH2 0xF92 SWAP2 SWAP1 PUSH2 0x1C52 JUMP JUMPDEST SWAP1 SWAP2 SSTORE POP POP PUSH1 0x1A DUP1 SLOAD DUP3 SWAP2 SWAP1 PUSH1 0x0 SWAP1 PUSH2 0xFAC SWAP1 DUP5 SWAP1 PUSH2 0x1D96 JUMP JUMPDEST SWAP3 POP POP DUP2 SWAP1 SSTORE POP DUP1 DUP3 PUSH1 0x3 ADD PUSH1 0x0 DUP3 DUP3 SLOAD PUSH2 0xFC7 SWAP2 SWAP1 PUSH2 0x1C52 JUMP JUMPDEST SWAP1 SWAP2 SSTORE POP POP TIMESTAMP PUSH1 0x2 DUP4 ADD SSTORE PUSH1 0x4 DUP3 ADD SLOAD DUP3 SLOAD PUSH2 0xFE3 SWAP2 SWAP1 PUSH2 0x1D96 JUMP JUMPDEST PUSH1 0x9 DUP1 SLOAD PUSH1 0x0 SWAP1 PUSH2 0xFF5 SWAP1 DUP5 SWAP1 PUSH2 0x1C52 JUMP JUMPDEST SWAP1 SWAP2 SSTORE POP POP PUSH1 0x10 SLOAD PUSH1 0x40 MLOAD PUSH4 0xA9059CBB PUSH1 0xE0 SHL DUP2 MSTORE CALLER PUSH1 0x4 DUP3 ADD MSTORE PUSH1 0x24 DUP2 ADD DUP4 SWAP1 MSTORE PUSH1 0x1 PUSH1 0x1 PUSH1 0xA0 SHL SUB SWAP1 SWAP2 AND SWAP1 PUSH4 0xA9059CBB SWAP1 PUSH1 0x44 ADD PUSH1 0x20 PUSH1 0x40 MLOAD DUP1 DUP4 SUB DUP2 PUSH1 0x0 DUP8 DUP1 EXTCODESIZE ISZERO DUP1 ISZERO PUSH2 0x1046 JUMPI PUSH1 0x0 DUP1 REVERT JUMPDEST POP GAS CALL ISZERO DUP1 ISZERO PUSH2 0x105A JUMPI RETURNDATASIZE PUSH1 0x0 DUP1 RETURNDATACOPY RETURNDATASIZE PUSH1 0x0 REVERT JUMPDEST POP POP POP POP PUSH1 0x40 MLOAD RETURNDATASIZE PUSH1 0x1F NOT PUSH1 0x1F DUP3 ADD AND DUP3 ADD DUP1 PUSH1 0x40 MSTORE POP DUP2 ADD SWAP1 PUSH2 0xC77 SWAP2 SWAP1 PUSH2 0x1B5A JUMP JUMPDEST PUSH1 0x2 PUSH1 0x0 SLOAD EQ ISZERO PUSH2 0x10A1 JUMPI PUSH1 0x40 MLOAD PUSH3 0x461BCD PUSH1 0xE5 SHL DUP2 MSTORE PUSH1 0x4 ADD PUSH2 0x978 SWAP1 PUSH2 0x1C1B JUMP JUMPDEST PUSH1 0x2 PUSH1 0x0 DUP2 DUP2 SSTORE CALLER DUP2 MSTORE PUSH1 0x20 SWAP2 SWAP1 SWAP2 MSTORE PUSH1 0x40 DUP2 KECCAK256 SWAP1 DUP3 SWAP1 DUP2 SWAP1 PUSH2 0x3E8 CALLVALUE DUP4 GT ISZERO PUSH2 0x110D JUMPI PUSH1 0x40 MLOAD PUSH3 0x461BCD PUSH1 0xE5 SHL DUP2 MSTORE PUSH1 0x20 PUSH1 0x4 DUP3 ADD MSTORE PUSH1 0x1A PUSH1 0x24 DUP3 ADD MSTORE PUSH32 0x506C656173652070726F76696465206E617669746520636F696E000000000000 PUSH1 0x44 DUP3 ADD MSTORE PUSH1 0x64 ADD PUSH2 0x978 JUMP JUMPDEST PUSH1 0x15 SLOAD DUP4 LT ISZERO PUSH2 0x1152 JUMPI PUSH1 0x40 MLOAD PUSH3 0x461BCD PUSH1 0xE5 SHL DUP2 MSTORE PUSH1 0x20 PUSH1 0x4 DUP3 ADD MSTORE PUSH1 0x10 PUSH1 0x24 DUP3 ADD MSTORE PUSH16 0x4E6F7420656E6F7567682076616C7565 PUSH1 0x80 SHL PUSH1 0x44 DUP3 ADD MSTORE PUSH1 0x64 ADD PUSH2 0x978 JUMP JUMPDEST PUSH1 0x16 SLOAD DUP4 GT ISZERO PUSH2 0x1195 JUMPI PUSH1 0x40 MLOAD PUSH3 0x461BCD PUSH1 0xE5 SHL DUP2 MSTORE PUSH1 0x20 PUSH1 0x4 DUP3 ADD MSTORE PUSH1 0xE PUSH1 0x24 DUP3 ADD MSTORE PUSH14 0x4F766572666C6F772076616C7565 PUSH1 0x90 SHL PUSH1 0x44 DUP3 ADD MSTORE PUSH1 0x64 ADD PUSH2 0x978 JUMP JUMPDEST PUSH2 0x119D PUSH2 0x144D JUMP JUMPDEST PUSH2 0x11CD JUMPI PUSH2 0x11BE DUP2 PUSH2 0xD99 DUP6 PUSH2 0xD93 PUSH1 0x1F SLOAD DUP7 PUSH2 0x1858 SWAP1 SWAP2 SWAP1 PUSH4 0xFFFFFFFF AND JUMP JUMPDEST SWAP3 POP PUSH2 0x11CA DUP4 DUP6 PUSH2 0x1D96 JUMP JUMPDEST SWAP2 POP JUMPDEST DUP5 SLOAD PUSH1 0x16 SLOAD PUSH1 0x0 SWAP2 PUSH2 0x11DE SWAP2 PUSH2 0x1D96 JUMP JUMPDEST PUSH1 0x4 SLOAD PUSH1 0x1A SLOAD SWAP2 SWAP3 POP PUSH1 0x0 SWAP2 PUSH2 0x11F4 SWAP2 SWAP1 PUSH2 0x1D96 JUMP JUMPDEST SWAP1 POP PUSH1 0x0 DUP2 DUP4 GT PUSH2 0x1205 JUMPI DUP3 PUSH2 0x1207 JUMP JUMPDEST DUP2 JUMPDEST SWAP1 POP DUP1 DUP7 GT ISZERO PUSH2 0x124B JUMPI PUSH1 0x40 MLOAD PUSH3 0x461BCD PUSH1 0xE5 SHL DUP2 MSTORE PUSH1 0x20 PUSH1 0x4 DUP3 ADD MSTORE PUSH1 0xF PUSH1 0x24 DUP3 ADD MSTORE PUSH15 0x53616C652069732073756363657373 PUSH1 0x88 SHL PUSH1 0x44 DUP3 ADD MSTORE PUSH1 0x64 ADD PUSH2 0x978 JUMP JUMPDEST PUSH1 0x0 PUSH2 0x12F2 PUSH1 0xF PUSH1 0x2 ADD PUSH1 0x0 SWAP1 SLOAD SWAP1 PUSH2 0x100 EXP SWAP1 DIV PUSH1 0x1 PUSH1 0x1 PUSH1 0xA0 SHL SUB AND PUSH1 0x1 PUSH1 0x1 PUSH1 0xA0 SHL SUB AND PUSH4 0x313CE567 PUSH1 0x40 MLOAD DUP2 PUSH4 0xFFFFFFFF AND PUSH1 0xE0 SHL DUP2 MSTORE PUSH1 0x4 ADD PUSH1 0x20 PUSH1 0x40 MLOAD DUP1 DUP4 SUB DUP2 DUP7 DUP1 EXTCODESIZE ISZERO DUP1 ISZERO PUSH2 0x12A1 JUMPI PUSH1 0x0 DUP1 REVERT JUMPDEST POP GAS STATICCALL ISZERO DUP1 ISZERO PUSH2 0x12B5 JUMPI RETURNDATASIZE PUSH1 0x0 DUP1 RETURNDATACOPY RETURNDATASIZE PUSH1 0x0 REVERT JUMPDEST POP POP POP POP PUSH1 0x40 MLOAD RETURNDATASIZE PUSH1 0x1F NOT PUSH1 0x1F DUP3 ADD AND DUP3 ADD DUP1 PUSH1 0x40 MSTORE POP DUP2 ADD SWAP1 PUSH2 0x12D9 SWAP2 SWAP1 PUSH2 0x1B90 JUMP JUMPDEST PUSH2 0x12E4 SWAP1 PUSH1 0xA PUSH2 0x1CCF JUMP JUMPDEST PUSH1 0x12 SLOAD PUSH2 0xD99 SWAP1 DUP11 SWAP1 PUSH2 0x17FA JUMP JUMPDEST SWAP1 POP DUP7 DUP10 PUSH1 0x0 ADD PUSH1 0x0 DUP3 DUP3 SLOAD PUSH2 0x1308 SWAP2 SWAP1 PUSH2 0x1C52 JUMP JUMPDEST SWAP3 POP POP DUP2 SWAP1 SSTORE POP DUP1 DUP10 PUSH1 0x1 ADD PUSH1 0x0 DUP3 DUP3 SLOAD PUSH2 0x1323 SWAP2 SWAP1 PUSH2 0x1C52 JUMP JUMPDEST SWAP1 SWAP2 SSTORE POP POP PUSH1 0x4 DUP1 SLOAD DUP9 SWAP2 SWAP1 PUSH1 0x0 SWAP1 PUSH2 0x133D SWAP1 DUP5 SWAP1 PUSH2 0x1C52 JUMP JUMPDEST SWAP1 SWAP2 SSTORE POP POP PUSH1 0x5 DUP1 SLOAD DUP3 SWAP2 SWAP1 PUSH1 0x0 SWAP1 PUSH2 0x1357 SWAP1 DUP5 SWAP1 PUSH2 0x1C52 JUMP JUMPDEST SWAP1 SWAP2 SSTORE POP POP PUSH1 0xA DUP1 SLOAD SWAP1 PUSH1 0x0 PUSH2 0x136C DUP4 PUSH2 0x1DAD JUMP JUMPDEST SWAP1 SWAP2 SSTORE POP POP CALLER PUSH1 0x0 SWAP1 DUP2 MSTORE PUSH1 0x3 PUSH1 0x20 MSTORE PUSH1 0x40 DUP2 KECCAK256 DUP1 SLOAD DUP9 SWAP3 SWAP1 PUSH2 0x1390 SWAP1 DUP5 SWAP1 PUSH2 0x1C52 JUMP JUMPDEST SWAP3 POP POP DUP2 SWAP1 SSTORE POP DUP6 PUSH1 0x1E PUSH1 0x0 DUP3 DUP3 SLOAD PUSH2 0x13A9 SWAP2 SWAP1 PUSH2 0x1C52 JUMP JUMPDEST SWAP1 SWAP2 SSTORE POP POP PUSH1 0x19 SLOAD PUSH1 0xFF AND DUP1 ISZERO PUSH2 0x13C9 JUMPI POP CALLVALUE PUSH2 0x13C6 DUP8 DUP10 PUSH2 0x1C52 JUMP JUMPDEST GT ISZERO JUMPDEST ISZERO PUSH2 0x1411 JUMPI CALLER PUSH2 0x8FC DUP8 PUSH2 0x13DD DUP11 CALLVALUE PUSH2 0x1D96 JUMP JUMPDEST PUSH2 0x13E7 SWAP2 SWAP1 PUSH2 0x1D96 JUMP JUMPDEST PUSH1 0x40 MLOAD DUP2 ISZERO SWAP1 SWAP3 MUL SWAP2 PUSH1 0x0 DUP2 DUP2 DUP2 DUP6 DUP9 DUP9 CALL SWAP4 POP POP POP POP ISZERO DUP1 ISZERO PUSH2 0x140F JUMPI RETURNDATASIZE PUSH1 0x0 DUP1 RETURNDATACOPY RETURNDATASIZE PUSH1 0x0 REVERT JUMPDEST POP JUMPDEST PUSH1 0x19 SLOAD PUSH1 0xFF AND PUSH2 0x143C JUMPI PUSH1 0x11 SLOAD PUSH2 0x143C SWAP1 PUSH1 0x1 PUSH1 0x1 PUSH1 0xA0 SHL SUB AND CALLER ADDRESS PUSH2 0x1437 DUP11 DUP13 PUSH2 0x1C52 JUMP JUMPDEST PUSH2 0x1870 JUMP JUMPDEST POP POP PUSH1 0x1 PUSH1 0x0 SSTORE POP POP POP POP POP POP POP POP JUMP JUMPDEST PUSH1 0x0 PUSH2 0x145A PUSH1 0x1C CALLER PUSH2 0x19A0 JUMP JUMPDEST SWAP1 POP SWAP1 JUMP JUMPDEST DUP1 ISZERO PUSH2 0x15FB JUMPI PUSH1 0x6 SLOAD PUSH1 0x5 SLOAD PUSH1 0x0 SWAP2 PUSH2 0x1477 SWAP2 PUSH2 0x1D96 JUMP JUMPDEST GT PUSH2 0x1494 JUMPI PUSH1 0x40 MLOAD PUSH3 0x461BCD PUSH1 0xE5 SHL DUP2 MSTORE PUSH1 0x4 ADD PUSH2 0x978 SWAP1 PUSH2 0x1BE4 JUMP JUMPDEST CALLER PUSH1 0x0 SWAP1 DUP2 MSTORE PUSH1 0x2 PUSH1 0x20 MSTORE PUSH1 0x40 SWAP1 KECCAK256 PUSH1 0x3 DUP2 ADD SLOAD PUSH1 0x1 DUP3 ADD SLOAD GT PUSH2 0x1506 JUMPI PUSH1 0x40 MLOAD PUSH3 0x461BCD PUSH1 0xE5 SHL DUP2 MSTORE PUSH1 0x20 PUSH1 0x4 DUP3 ADD MSTORE PUSH1 0x24 DUP1 DUP3 ADD MSTORE PUSH32 0x596F7520636C61696D20616C6C206F722068617665206E6F7420626F75676874 PUSH1 0x44 DUP3 ADD MSTORE PUSH4 0x81E595D PUSH1 0xE2 SHL PUSH1 0x64 DUP3 ADD MSTORE PUSH1 0x84 ADD PUSH2 0x978 JUMP JUMPDEST PUSH1 0x10 SLOAD PUSH1 0x1 DUP3 ADD SLOAD PUSH1 0x40 MLOAD PUSH4 0xA9059CBB PUSH1 0xE0 SHL DUP2 MSTORE CALLER PUSH1 0x4 DUP3 ADD MSTORE PUSH1 0x24 DUP2 ADD SWAP2 SWAP1 SWAP2 MSTORE PUSH1 0x1 PUSH1 0x1 PUSH1 0xA0 SHL SUB SWAP1 SWAP2 AND SWAP1 PUSH4 0xA9059CBB SWAP1 PUSH1 0x44 ADD PUSH1 0x20 PUSH1 0x40 MLOAD DUP1 DUP4 SUB DUP2 PUSH1 0x0 DUP8 DUP1 EXTCODESIZE ISZERO DUP1 ISZERO PUSH2 0x1558 JUMPI PUSH1 0x0 DUP1 REVERT JUMPDEST POP GAS CALL ISZERO DUP1 ISZERO PUSH2 0x156C JUMPI RETURNDATASIZE PUSH1 0x0 DUP1 RETURNDATACOPY RETURNDATASIZE PUSH1 0x0 REVERT JUMPDEST POP POP POP POP PUSH1 0x40 MLOAD RETURNDATASIZE PUSH1 0x1F NOT PUSH1 0x1F DUP3 ADD AND DUP3 ADD DUP1 PUSH1 0x40 MSTORE POP DUP2 ADD SWAP1 PUSH2 0x1590 SWAP2 SWAP1 PUSH2 0x1B5A JUMP JUMPDEST POP PUSH1 0x1 DUP2 ADD SLOAD PUSH1 0x6 DUP1 SLOAD PUSH1 0x0 SWAP1 PUSH2 0x15A8 SWAP1 DUP5 SWAP1 PUSH2 0x1C52 JUMP JUMPDEST SWAP1 SWAP2 SSTORE POP POP PUSH1 0x1 DUP2 ADD SLOAD PUSH1 0x1A DUP1 SLOAD PUSH1 0x0 SWAP1 PUSH2 0x15C4 SWAP1 DUP5 SWAP1 PUSH2 0x1D96 JUMP JUMPDEST SWAP1 SWAP2 SSTORE POP POP PUSH1 0x1 DUP2 ADD SLOAD PUSH1 0x3 DUP3 ADD DUP1 SLOAD PUSH1 0x0 SWAP1 PUSH2 0x15E2 SWAP1 DUP5 SWAP1 PUSH2 0x1C52 JUMP JUMPDEST SWAP1 SWAP2 SSTORE POP POP PUSH1 0x0 DUP1 DUP3 SSTORE PUSH1 0x1 DUP3 ADD SSTORE TIMESTAMP PUSH1 0x2 SWAP1 SWAP2 ADD SSTORE POP JUMP JUMPDEST PUSH1 0x7 SLOAD PUSH1 0x4 SLOAD PUSH1 0x0 SWAP2 PUSH2 0x160D SWAP2 PUSH2 0x1D96 JUMP JUMPDEST GT PUSH2 0x162A JUMPI PUSH1 0x40 MLOAD PUSH3 0x461BCD PUSH1 0xE5 SHL DUP2 MSTORE PUSH1 0x4 ADD PUSH2 0x978 SWAP1 PUSH2 0x1BE4 JUMP JUMPDEST CALLER PUSH1 0x0 SWAP1 DUP2 MSTORE PUSH1 0x2 PUSH1 0x20 MSTORE PUSH1 0x40 SWAP1 KECCAK256 DUP1 SLOAD PUSH2 0x1695 JUMPI PUSH1 0x40 MLOAD PUSH3 0x461BCD PUSH1 0xE5 SHL DUP2 MSTORE PUSH1 0x20 PUSH1 0x4 DUP3 ADD MSTORE PUSH1 0x25 PUSH1 0x24 DUP3 ADD MSTORE PUSH32 0x596F7520726566756E6420616C6C206F722068617665206E6F7420626F756768 PUSH1 0x44 DUP3 ADD MSTORE PUSH5 0x1D081E595D PUSH1 0xDA SHL PUSH1 0x64 DUP3 ADD MSTORE PUSH1 0x84 ADD PUSH2 0x978 JUMP JUMPDEST DUP1 SLOAD PUSH2 0x16A1 DUP2 DUP1 PUSH2 0x1D96 JUMP JUMPDEST PUSH1 0x1E PUSH1 0x0 DUP3 DUP3 SLOAD PUSH2 0x16B2 SWAP2 SWAP1 PUSH2 0x1C52 JUMP JUMPDEST SWAP1 SWAP2 SSTORE POP POP PUSH1 0x7 DUP1 SLOAD DUP3 SWAP2 SWAP1 PUSH1 0x0 SWAP1 PUSH2 0x16CC SWAP1 DUP5 SWAP1 PUSH2 0x1C52 JUMP JUMPDEST SWAP1 SWAP2 SSTORE POP POP PUSH1 0x0 DUP1 DUP4 SSTORE PUSH1 0x1 DUP4 ADD DUP2 SWAP1 SSTORE TIMESTAMP PUSH1 0x2 DUP5 ADD SSTORE PUSH1 0x40 MLOAD CALLER SWAP2 DUP4 ISZERO PUSH2 0x8FC MUL SWAP2 DUP5 SWAP2 DUP2 DUP2 DUP2 DUP6 DUP9 DUP9 CALL SWAP4 POP POP POP POP ISZERO DUP1 ISZERO PUSH2 0x170E JUMPI RETURNDATASIZE PUSH1 0x0 DUP1 RETURNDATACOPY RETURNDATASIZE PUSH1 0x0 REVERT JUMPDEST POP POP POP POP JUMP JUMPDEST PUSH1 0x1 SLOAD PUSH1 0x1 PUSH1 0x1 PUSH1 0xA0 SHL SUB AND CALLER EQ PUSH2 0x176E JUMPI PUSH1 0x40 MLOAD PUSH3 0x461BCD PUSH1 0xE5 SHL DUP2 MSTORE PUSH1 0x20 PUSH1 0x4 DUP3 ADD DUP2 SWAP1 MSTORE PUSH1 0x24 DUP3 ADD MSTORE PUSH32 0x4F776E61626C653A2063616C6C6572206973206E6F7420746865206F776E6572 PUSH1 0x44 DUP3 ADD MSTORE PUSH1 0x64 ADD PUSH2 0x978 JUMP JUMPDEST PUSH1 0x1 PUSH1 0x1 PUSH1 0xA0 SHL SUB DUP2 AND PUSH2 0x17D3 JUMPI PUSH1 0x40 MLOAD PUSH3 0x461BCD PUSH1 0xE5 SHL DUP2 MSTORE PUSH1 0x20 PUSH1 0x4 DUP3 ADD MSTORE PUSH1 0x26 PUSH1 0x24 DUP3 ADD MSTORE PUSH32 0x4F776E61626C653A206E6577206F776E657220697320746865207A65726F2061 PUSH1 0x44 DUP3 ADD MSTORE PUSH6 0x646472657373 PUSH1 0xD0 SHL PUSH1 0x64 DUP3 ADD MSTORE PUSH1 0x84 ADD PUSH2 0x978 JUMP JUMPDEST PUSH2 0x9B9 DUP2 PUSH2 0x1806 JUMP JUMPDEST PUSH1 0x0 PUSH2 0x17F1 DUP4 PUSH1 0x1 PUSH1 0x1 PUSH1 0xA0 SHL SUB DUP5 AND PUSH2 0x19C2 JUMP JUMPDEST SWAP1 POP JUMPDEST SWAP3 SWAP2 POP POP JUMP JUMPDEST PUSH1 0x0 PUSH2 0x17F1 DUP3 DUP5 PUSH2 0x1D77 JUMP JUMPDEST PUSH1 0x1 DUP1 SLOAD PUSH1 0x1 PUSH1 0x1 PUSH1 0xA0 SHL SUB DUP4 DUP2 AND PUSH1 0x1 PUSH1 0x1 PUSH1 0xA0 SHL SUB NOT DUP4 AND DUP2 OR SWAP1 SWAP4 SSTORE PUSH1 0x40 MLOAD SWAP2 AND SWAP2 SWAP1 DUP3 SWAP1 PUSH32 0x8BE0079C531659141344CD1FD0A4F28419497F9722A3DAAFE3B4186F6B6457E0 SWAP1 PUSH1 0x0 SWAP1 LOG3 POP POP JUMP JUMPDEST PUSH1 0x0 PUSH2 0x17F1 DUP3 DUP5 PUSH2 0x1D96 JUMP JUMPDEST PUSH1 0x0 PUSH2 0x17F1 DUP3 DUP5 PUSH2 0x1C6A JUMP JUMPDEST PUSH1 0x40 DUP1 MLOAD PUSH1 0x1 PUSH1 0x1 PUSH1 0xA0 SHL SUB DUP6 DUP2 AND PUSH1 0x24 DUP4 ADD MSTORE DUP5 DUP2 AND PUSH1 0x44 DUP4 ADD MSTORE PUSH1 0x64 DUP1 DUP4 ADD DUP6 SWAP1 MSTORE DUP4 MLOAD DUP1 DUP5 SUB SWAP1 SWAP2 ADD DUP2 MSTORE PUSH1 0x84 SWAP1 SWAP3 ADD DUP4 MSTORE PUSH1 0x20 DUP3 ADD DUP1 MLOAD PUSH1 0x1 PUSH1 0x1 PUSH1 0xE0 SHL SUB AND PUSH4 0x23B872DD PUSH1 0xE0 SHL OR SWAP1 MSTORE SWAP2 MLOAD PUSH1 0x0 SWAP3 DUP4 SWAP3 SWAP1 DUP9 AND SWAP2 PUSH2 0x18D4 SWAP2 SWAP1 PUSH2 0x1BA9 JUMP JUMPDEST PUSH1 0x0 PUSH1 0x40 MLOAD DUP1 DUP4 SUB DUP2 PUSH1 0x0 DUP7 GAS CALL SWAP2 POP POP RETURNDATASIZE DUP1 PUSH1 0x0 DUP2 EQ PUSH2 0x1911 JUMPI PUSH1 0x40 MLOAD SWAP2 POP PUSH1 0x1F NOT PUSH1 0x3F RETURNDATASIZE ADD AND DUP3 ADD PUSH1 0x40 MSTORE RETURNDATASIZE DUP3 MSTORE RETURNDATASIZE PUSH1 0x0 PUSH1 0x20 DUP5 ADD RETURNDATACOPY PUSH2 0x1916 JUMP JUMPDEST PUSH1 0x60 SWAP2 POP JUMPDEST POP SWAP2 POP SWAP2 POP DUP2 DUP1 ISZERO PUSH2 0x1940 JUMPI POP DUP1 MLOAD ISZERO DUP1 PUSH2 0x1940 JUMPI POP DUP1 DUP1 PUSH1 0x20 ADD SWAP1 MLOAD DUP2 ADD SWAP1 PUSH2 0x1940 SWAP2 SWAP1 PUSH2 0x1B5A JUMP JUMPDEST PUSH2 0x1998 JUMPI PUSH1 0x40 MLOAD PUSH3 0x461BCD PUSH1 0xE5 SHL DUP2 MSTORE PUSH1 0x20 PUSH1 0x4 DUP3 ADD MSTORE PUSH1 0x24 DUP1 DUP3 ADD MSTORE PUSH32 0x5472616E7366657248656C7065723A205452414E534645525F46524F4D5F4641 PUSH1 0x44 DUP3 ADD MSTORE PUSH4 0x12531151 PUSH1 0xE2 SHL PUSH1 0x64 DUP3 ADD MSTORE PUSH1 0x84 ADD PUSH2 0x978 JUMP JUMPDEST POP POP POP POP POP POP JUMP JUMPDEST PUSH1 0x1 PUSH1 0x1 PUSH1 0xA0 SHL SUB DUP2 AND PUSH1 0x0 SWAP1 DUP2 MSTORE PUSH1 0x1 DUP4 ADD PUSH1 0x20 MSTORE PUSH1 0x40 DUP2 KECCAK256 SLOAD ISZERO ISZERO PUSH2 0x17F1 JUMP JUMPDEST PUSH1 0x0 DUP2 DUP2 MSTORE PUSH1 0x1 DUP4 ADD PUSH1 0x20 MSTORE PUSH1 0x40 DUP2 KECCAK256 SLOAD PUSH2 0x1A09 JUMPI POP DUP2 SLOAD PUSH1 0x1 DUP2 DUP2 ADD DUP5 SSTORE PUSH1 0x0 DUP5 DUP2 MSTORE PUSH1 0x20 DUP1 DUP3 KECCAK256 SWAP1 SWAP4 ADD DUP5 SWAP1 SSTORE DUP5 SLOAD DUP5 DUP3 MSTORE DUP3 DUP7 ADD SWAP1 SWAP4 MSTORE PUSH1 0x40 SWAP1 KECCAK256 SWAP2 SWAP1 SWAP2 SSTORE PUSH2 0x17F4 JUMP JUMPDEST POP PUSH1 0x0 PUSH2 0x17F4 JUMP JUMPDEST DUP1 CALLDATALOAD PUSH2 0x1A1C DUP2 PUSH2 0x1DF4 JUMP JUMPDEST SWAP2 SWAP1 POP JUMP JUMPDEST PUSH1 0x0 PUSH1 0x20 DUP3 DUP5 SUB SLT ISZERO PUSH2 0x1A33 JUMPI PUSH1 0x0 DUP1 REVERT JUMPDEST DUP2 CALLDATALOAD PUSH2 0x1A3E DUP2 PUSH2 0x1DF4 JUMP JUMPDEST SWAP4 SWAP3 POP POP POP JUMP JUMPDEST PUSH1 0x0 DUP1 PUSH1 0x0 DUP1 PUSH1 0x0 DUP1 PUSH1 0x0 DUP1 PUSH1 0x0 PUSH2 0x1E0 DUP11 DUP13 SUB SLT ISZERO PUSH2 0x1A64 JUMPI PUSH1 0x0 DUP1 REVERT JUMPDEST DUP10 CALLDATALOAD PUSH2 0x1A6F DUP2 PUSH2 0x1DF4 JUMP JUMPDEST SWAP9 POP PUSH1 0x20 DUP11 DUP2 ADD CALLDATALOAD PUSH2 0x1A80 DUP2 PUSH2 0x1DF4 JUMP JUMPDEST SWAP9 POP PUSH1 0x40 DUP12 ADD CALLDATALOAD PUSH2 0x1A90 DUP2 PUSH2 0x1DF4 JUMP JUMPDEST SWAP8 POP PUSH1 0x7F DUP12 ADD DUP13 SGT PUSH2 0x1AA1 JUMPI PUSH1 0x0 DUP1 REVERT JUMPDEST PUSH1 0x40 MLOAD PUSH1 0xE0 DUP2 ADD DUP2 DUP2 LT PUSH8 0xFFFFFFFFFFFFFFFF DUP3 GT OR ISZERO PUSH2 0x1AC4 JUMPI PUSH2 0x1AC4 PUSH2 0x1DDE JUMP JUMPDEST PUSH1 0x40 MSTORE DUP1 PUSH1 0x60 DUP14 ADD PUSH2 0x140 DUP15 ADD DUP16 DUP2 GT ISZERO PUSH2 0x1ADE JUMPI PUSH1 0x0 DUP1 REVERT JUMPDEST PUSH1 0x0 JUMPDEST PUSH1 0x7 DUP2 LT ISZERO PUSH2 0x1AFE JUMPI DUP3 CALLDATALOAD DUP5 MSTORE SWAP3 DUP6 ADD SWAP3 SWAP2 DUP6 ADD SWAP2 PUSH1 0x1 ADD PUSH2 0x1AE1 JUMP JUMPDEST POP SWAP3 SWAP10 POP POP SWAP1 CALLDATALOAD SWAP7 POP POP POP PUSH2 0x160 DUP11 ADD CALLDATALOAD SWAP4 POP PUSH2 0x180 DUP11 ADD CALLDATALOAD SWAP3 POP PUSH2 0x1B26 PUSH2 0x1A0 DUP12 ADD PUSH2 0x1A11 JUMP JUMPDEST SWAP2 POP PUSH2 0x1C0 DUP11 ADD CALLDATALOAD SWAP1 POP SWAP3 SWAP6 SWAP9 POP SWAP3 SWAP6 SWAP9 POP SWAP3 SWAP6 SWAP9 JUMP JUMPDEST PUSH1 0x0 PUSH1 0x20 DUP3 DUP5 SUB SLT ISZERO PUSH2 0x1B4F JUMPI PUSH1 0x0 DUP1 REVERT JUMPDEST DUP2 CALLDATALOAD PUSH2 0x1A3E DUP2 PUSH2 0x1E09 JUMP JUMPDEST PUSH1 0x0 PUSH1 0x20 DUP3 DUP5 SUB SLT ISZERO PUSH2 0x1B6C JUMPI PUSH1 0x0 DUP1 REVERT JUMPDEST DUP2 MLOAD PUSH2 0x1A3E DUP2 PUSH2 0x1E09 JUMP JUMPDEST PUSH1 0x0 PUSH1 0x20 DUP3 DUP5 SUB SLT ISZERO PUSH2 0x1B89 JUMPI PUSH1 0x0 DUP1 REVERT JUMPDEST POP CALLDATALOAD SWAP2 SWAP1 POP JUMP JUMPDEST PUSH1 0x0 PUSH1 0x20 DUP3 DUP5 SUB SLT ISZERO PUSH2 0x1BA2 JUMPI PUSH1 0x0 DUP1 REVERT JUMPDEST POP MLOAD SWAP2 SWAP1 POP JUMP JUMPDEST PUSH1 0x0 DUP3 MLOAD PUSH1 0x0 JUMPDEST DUP2 DUP2 LT ISZERO PUSH2 0x1BCA JUMPI PUSH1 0x20 DUP2 DUP7 ADD DUP2 ADD MLOAD DUP6 DUP4 ADD MSTORE ADD PUSH2 0x1BB0 JUMP JUMPDEST DUP2 DUP2 GT ISZERO PUSH2 0x1BD9 JUMPI PUSH1 0x0 DUP3 DUP6 ADD MSTORE JUMPDEST POP SWAP2 SWAP1 SWAP2 ADD SWAP3 SWAP2 POP POP JUMP JUMPDEST PUSH1 0x20 DUP1 DUP3 MSTORE PUSH1 0x1B SWAP1 DUP3 ADD MSTORE PUSH32 0x416C6C20746F6B656E20686173206265656E2077697468647261770000000000 PUSH1 0x40 DUP3 ADD MSTORE PUSH1 0x60 ADD SWAP1 JUMP JUMPDEST PUSH1 0x20 DUP1 DUP3 MSTORE PUSH1 0x1F SWAP1 DUP3 ADD MSTORE PUSH32 0x5265656E7472616E637947756172643A207265656E7472616E742063616C6C00 PUSH1 0x40 DUP3 ADD MSTORE PUSH1 0x60 ADD SWAP1 JUMP JUMPDEST PUSH1 0x0 DUP3 NOT DUP3 GT ISZERO PUSH2 0x1C65 JUMPI PUSH2 0x1C65 PUSH2 0x1DC8 JUMP JUMPDEST POP ADD SWAP1 JUMP JUMPDEST PUSH1 0x0 DUP3 PUSH2 0x1C87 JUMPI PUSH4 0x4E487B71 PUSH1 0xE0 SHL PUSH1 0x0 MSTORE PUSH1 0x12 PUSH1 0x4 MSTORE PUSH1 0x24 PUSH1 0x0 REVERT JUMPDEST POP DIV SWAP1 JUMP JUMPDEST PUSH1 0x1 DUP2 DUP2 JUMPDEST DUP1 DUP6 GT ISZERO PUSH2 0x1CC7 JUMPI DUP2 PUSH1 0x0 NOT DIV DUP3 GT ISZERO PUSH2 0x1CAD JUMPI PUSH2 0x1CAD PUSH2 0x1DC8 JUMP JUMPDEST DUP1 DUP6 AND ISZERO PUSH2 0x1CBA JUMPI SWAP2 DUP2 MUL SWAP2 JUMPDEST SWAP4 DUP5 SHR SWAP4 SWAP1 DUP1 MUL SWAP1 PUSH2 0x1C91 JUMP JUMPDEST POP SWAP3 POP SWAP3 SWAP1 POP JUMP JUMPDEST PUSH1 0x0 PUSH2 0x17F1 DUP4 DUP4 PUSH1 0x0 DUP3 PUSH2 0x1CE5 JUMPI POP PUSH1 0x1 PUSH2 0x17F4 JUMP JUMPDEST DUP2 PUSH2 0x1CF2 JUMPI POP PUSH1 0x0 PUSH2 0x17F4 JUMP JUMPDEST DUP2 PUSH1 0x1 DUP2 EQ PUSH2 0x1D08 JUMPI PUSH1 0x2 DUP2 EQ PUSH2 0x1D12 JUMPI PUSH2 0x1D2E JUMP JUMPDEST PUSH1 0x1 SWAP2 POP POP PUSH2 0x17F4 JUMP JUMPDEST PUSH1 0xFF DUP5 GT ISZERO PUSH2 0x1D23 JUMPI PUSH2 0x1D23 PUSH2 0x1DC8 JUMP JUMPDEST POP POP PUSH1 0x1 DUP3 SHL PUSH2 0x17F4 JUMP JUMPDEST POP PUSH1 0x20 DUP4 LT PUSH2 0x133 DUP4 LT AND PUSH1 0x4E DUP5 LT PUSH1 0xB DUP5 LT AND OR ISZERO PUSH2 0x1D51 JUMPI POP DUP2 DUP2 EXP PUSH2 0x17F4 JUMP JUMPDEST PUSH2 0x1D5B DUP4 DUP4 PUSH2 0x1C8C JUMP JUMPDEST DUP1 PUSH1 0x0 NOT DIV DUP3 GT ISZERO PUSH2 0x1D6F JUMPI PUSH2 0x1D6F PUSH2 0x1DC8 JUMP JUMPDEST MUL SWAP4 SWAP3 POP POP POP JUMP JUMPDEST PUSH1 0x0 DUP2 PUSH1 0x0 NOT DIV DUP4 GT DUP3 ISZERO ISZERO AND ISZERO PUSH2 0x1D91 JUMPI PUSH2 0x1D91 PUSH2 0x1DC8 JUMP JUMPDEST POP MUL SWAP1 JUMP JUMPDEST PUSH1 0x0 DUP3 DUP3 LT ISZERO PUSH2 0x1DA8 JUMPI PUSH2 0x1DA8 PUSH2 0x1DC8 JUMP JUMPDEST POP SUB SWAP1 JUMP JUMPDEST PUSH1 0x0 PUSH1 0x0 NOT DUP3 EQ ISZERO PUSH2 0x1DC1 JUMPI PUSH2 0x1DC1 PUSH2 0x1DC8 JUMP JUMPDEST POP PUSH1 0x1 ADD SWAP1 JUMP JUMPDEST PUSH4 0x4E487B71 PUSH1 0xE0 SHL PUSH1 0x0 MSTORE PUSH1 0x11 PUSH1 0x4 MSTORE PUSH1 0x24 PUSH1 0x0 REVERT JUMPDEST PUSH4 0x4E487B71 PUSH1 0xE0 SHL PUSH1 0x0 MSTORE PUSH1 0x41 PUSH1 0x4 MSTORE PUSH1 0x24 PUSH1 0x0 REVERT JUMPDEST PUSH1 0x1 PUSH1 0x1 PUSH1 0xA0 SHL SUB DUP2 AND DUP2 EQ PUSH2 0x9B9 JUMPI PUSH1 0x0 DUP1 REVERT JUMPDEST DUP1 ISZERO ISZERO DUP2 EQ PUSH2 0x9B9 JUMPI PUSH1 0x0 DUP1 REVERT INVALID LOG2 PUSH5 0x6970667358 0x22 SLT KECCAK256 PUSH16 0x89371F3065210BDB956CA103739D2F2D 0xAA STOP RETURN DUP1 0xF7 0xCA ISZERO 0xF7 CODECOPY GAS 0x4E PUSH18 0x9200A764736F6C6343000805003300000000 "
				},
				"gasEstimates": {
					"creation": {
						"codeDepositCost": "1551400",
						"executionCost": "infinite",
						"totalCost": "infinite"
					},
					"external": {
						"WETH()": "2426",
						"adminReceiveFee()": "2448",
						"backToken()": "infinite",
						"buyerInfo(address)": "11126",
						"checkAdminAddress()": "2499",
						"deposit(uint256)": "infinite",
						"feeAnyone()": "2318",
						"feeCreateSale()": "2339",
						"getBalance(address)": "3094",
						"initialSaleInfor(address,address,address,uint256[7],uint256,uint256,uint256,address,uint256)": "infinite",
						"owner()": "2431",
						"ownerClaimAndRefundToken()": "infinite",
						"presaleStatus()": "17307",
						"renounceOwnership()": "28184",
						"saleInfor()": "25832",
						"saleTotalSupply()": "4463",
						"status()": "4577",
						"totalFee()": "2385",
						"transferOwnership(address)": "infinite",
						"userClaimEmergency()": "infinite",
						"userClaimOrRefundWhenSaleSuccess(bool)": "infinite",
						"userFee(address)": "2558",
						"userRefundEmergency()": "infinite"
					}
				},
				"methodIdentifiers": {
					"WETH()": "ad5c4648",
					"adminReceiveFee()": "ae2b0965",
					"backToken()": "861faf5f",
					"buyerInfo(address)": "e2d3f423",
					"checkAdminAddress()": "cad5b0f7",
					"deposit(uint256)": "b6b55f25",
					"feeAnyone()": "3b5ef2ad",
					"feeCreateSale()": "d4c1dee9",
					"getBalance(address)": "f8b2cb4f",
					"initialSaleInfor(address,address,address,uint256[7],uint256,uint256,uint256,address,uint256)": "0a9c5ddb",
					"owner()": "8da5cb5b",
					"ownerClaimAndRefundToken()": "8edf18e6",
					"presaleStatus()": "acfb2355",
					"renounceOwnership()": "715018a6",
					"saleInfor()": "18856a2f",
					"saleTotalSupply()": "12e5d0b9",
					"status()": "200d2ed2",
					"totalFee()": "1df4ccfc",
					"transferOwnership(address)": "f2fde38b",
					"userClaimEmergency()": "ab33985a",
					"userClaimOrRefundWhenSaleSuccess(bool)": "eb002bb0",
					"userFee(address)": "56c5f349",
					"userRefundEmergency()": "95661e70"
				}
			},
			"storageLayout": {
				"storage": [
					{
						"astId": 2588,
						"contract": "Ethereum/Presale.sol:Presale",
						"label": "_status",
						"offset": 0,
						"slot": "0",
						"type": "t_uint256"
					},
					{
						"astId": 2480,
						"contract": "Ethereum/Presale.sol:Presale",
						"label": "_owner",
						"offset": 0,
						"slot": "1",
						"type": "t_address"
					},
					{
						"astId": 778,
						"contract": "Ethereum/Presale.sol:Presale",
						"label": "buyerInfo",
						"offset": 0,
						"slot": "2",
						"type": "t_mapping(t_address,t_struct(BuyerInfo)751_storage)"
					},
					{
						"astId": 782,
						"contract": "Ethereum/Presale.sol:Presale",
						"label": "userFee",
						"offset": 0,
						"slot": "3",
						"type": "t_mapping(t_address,t_uint256)"
					},
					{
						"astId": 785,
						"contract": "Ethereum/Presale.sol:Presale",
						"label": "presaleStatus",
						"offset": 0,
						"slot": "4",
						"type": "t_struct(PresaleStatus)773_storage"
					},
					{
						"astId": 788,
						"contract": "Ethereum/Presale.sol:Presale",
						"label": "saleTotalSupply",
						"offset": 0,
						"slot": "13",
						"type": "t_struct(SaleTotalSupply)740_storage"
					},
					{
						"astId": 791,
						"contract": "Ethereum/Presale.sol:Presale",
						"label": "saleInfor",
						"offset": 0,
						"slot": "15",
						"type": "t_struct(SaleInfor)735_storage"
					},
					{
						"astId": 794,
						"contract": "Ethereum/Presale.sol:Presale",
						"label": "WETH",
						"offset": 0,
						"slot": "27",
						"type": "t_contract(IERC20)663"
					},
					{
						"astId": 797,
						"contract": "Ethereum/Presale.sol:Presale",
						"label": "admins",
						"offset": 0,
						"slot": "28",
						"type": "t_struct(AddressSet)2185_storage"
					},
					{
						"astId": 799,
						"contract": "Ethereum/Presale.sol:Presale",
						"label": "totalFee",
						"offset": 0,
						"slot": "30",
						"type": "t_uint256"
					},
					{
						"astId": 801,
						"contract": "Ethereum/Presale.sol:Presale",
						"label": "feeAnyone",
						"offset": 0,
						"slot": "31",
						"type": "t_uint256"
					},
					{
						"astId": 803,
						"contract": "Ethereum/Presale.sol:Presale",
						"label": "adminReceiveFee",
						"offset": 0,
						"slot": "32",
						"type": "t_address"
					},
					{
						"astId": 805,
						"contract": "Ethereum/Presale.sol:Presale",
						"label": "feeCreateSale",
						"offset": 0,
						"slot": "33",
						"type": "t_uint256"
					}
				],
				"types": {
					"t_address": {
						"encoding": "inplace",
						"label": "address",
						"numberOfBytes": "20"
					},
					"t_address_payable": {
						"encoding": "inplace",
						"label": "address payable",
						"numberOfBytes": "20"
					},
					"t_array(t_address)dyn_storage": {
						"base": "t_address",
						"encoding": "dynamic_array",
						"label": "address[]",
						"numberOfBytes": "32"
					},
					"t_array(t_bytes32)dyn_storage": {
						"base": "t_bytes32",
						"encoding": "dynamic_array",
						"label": "bytes32[]",
						"numberOfBytes": "32"
					},
					"t_bool": {
						"encoding": "inplace",
						"label": "bool",
						"numberOfBytes": "1"
					},
					"t_bytes32": {
						"encoding": "inplace",
						"label": "bytes32",
						"numberOfBytes": "32"
					},
					"t_contract(ERC20)585": {
						"encoding": "inplace",
						"label": "contract ERC20",
						"numberOfBytes": "20"
					},
					"t_contract(IERC20)663": {
						"encoding": "inplace",
						"label": "contract IERC20",
						"numberOfBytes": "20"
					},
					"t_mapping(t_address,t_struct(BuyerInfo)751_storage)": {
						"encoding": "mapping",
						"key": "t_address",
						"label": "mapping(address => struct Presale.BuyerInfo)",
						"numberOfBytes": "32",
						"value": "t_struct(BuyerInfo)751_storage"
					},
					"t_mapping(t_address,t_uint256)": {
						"encoding": "mapping",
						"key": "t_address",
						"label": "mapping(address => uint256)",
						"numberOfBytes": "32",
						"value": "t_uint256"
					},
					"t_mapping(t_bytes32,t_uint256)": {
						"encoding": "mapping",
						"key": "t_bytes32",
						"label": "mapping(bytes32 => uint256)",
						"numberOfBytes": "32",
						"value": "t_uint256"
					},
					"t_struct(AddressSet)2185_storage": {
						"encoding": "inplace",
						"label": "struct EnumerableSet.AddressSet",
						"members": [
							{
								"astId": 2184,
								"contract": "Ethereum/Presale.sol:Presale",
								"label": "_inner",
								"offset": 0,
								"slot": "0",
								"type": "t_struct(Set)1884_storage"
							}
						],
						"numberOfBytes": "64"
					},
					"t_struct(BuyerInfo)751_storage": {
						"encoding": "inplace",
						"label": "struct Presale.BuyerInfo",
						"members": [
							{
								"astId": 742,
								"contract": "Ethereum/Presale.sol:Presale",
								"label": "baseDeposit",
								"offset": 0,
								"slot": "0",
								"type": "t_uint256"
							},
							{
								"astId": 744,
								"contract": "Ethereum/Presale.sol:Presale",
								"label": "tokenOwner",
								"offset": 0,
								"slot": "1",
								"type": "t_uint256"
							},
							{
								"astId": 746,
								"contract": "Ethereum/Presale.sol:Presale",
								"label": "lastWithDraw",
								"offset": 0,
								"slot": "2",
								"type": "t_uint256"
							},
							{
								"astId": 748,
								"contract": "Ethereum/Presale.sol:Presale",
								"label": "totalTokenWithDraw",
								"offset": 0,
								"slot": "3",
								"type": "t_uint256"
							},
							{
								"astId": 750,
								"contract": "Ethereum/Presale.sol:Presale",
								"label": "totalBaseWithDraw",
								"offset": 0,
								"slot": "4",
								"type": "t_uint256"
							}
						],
						"numberOfBytes": "160"
					},
					"t_struct(PresaleStatus)773_storage": {
						"encoding": "inplace",
						"label": "struct Presale.PresaleStatus",
						"members": [
							{
								"astId": 753,
								"contract": "Ethereum/Presale.sol:Presale",
								"label": "totalBaseCollected",
								"offset": 0,
								"slot": "0",
								"type": "t_uint256"
							},
							{
								"astId": 755,
								"contract": "Ethereum/Presale.sol:Presale",
								"label": "totalTokenSold",
								"offset": 0,
								"slot": "1",
								"type": "t_uint256"
							},
							{
								"astId": 757,
								"contract": "Ethereum/Presale.sol:Presale",
								"label": "totalTokenWithDraw",
								"offset": 0,
								"slot": "2",
								"type": "t_uint256"
							},
							{
								"astId": 759,
								"contract": "Ethereum/Presale.sol:Presale",
								"label": "totalBaseWithDraw",
								"offset": 0,
								"slot": "3",
								"type": "t_uint256"
							},
							{
								"astId": 761,
								"contract": "Ethereum/Presale.sol:Presale",
								"label": "totalTokenBackForAdmin",
								"offset": 0,
								"slot": "4",
								"type": "t_uint256"
							},
							{
								"astId": 763,
								"contract": "Ethereum/Presale.sol:Presale",
								"label": "totalBaseBackForAdmin",
								"offset": 0,
								"slot": "5",
								"type": "t_uint256"
							},
							{
								"astId": 765,
								"contract": "Ethereum/Presale.sol:Presale",
								"label": "numberBuyer",
								"offset": 0,
								"slot": "6",
								"type": "t_uint256"
							},
							{
								"astId": 767,
								"contract": "Ethereum/Presale.sol:Presale",
								"label": "isOwnerClaimSaleToken",
								"offset": 0,
								"slot": "7",
								"type": "t_bool"
							},
							{
								"astId": 769,
								"contract": "Ethereum/Presale.sol:Presale",
								"label": "isOwnerRefundBaseToken",
								"offset": 1,
								"slot": "7",
								"type": "t_bool"
							},
							{
								"astId": 772,
								"contract": "Ethereum/Presale.sol:Presale",
								"label": "admin",
								"offset": 0,
								"slot": "8",
								"type": "t_array(t_address)dyn_storage"
							}
						],
						"numberOfBytes": "288"
					},
					"t_struct(SaleInfor)735_storage": {
						"encoding": "inplace",
						"label": "struct Presale.SaleInfor",
						"members": [
							{
								"astId": 710,
								"contract": "Ethereum/Presale.sol:Presale",
								"label": "presaleOwner",
								"offset": 0,
								"slot": "0",
								"type": "t_address_payable"
							},
							{
								"astId": 713,
								"contract": "Ethereum/Presale.sol:Presale",
								"label": "saleToken",
								"offset": 0,
								"slot": "1",
								"type": "t_contract(ERC20)585"
							},
							{
								"astId": 716,
								"contract": "Ethereum/Presale.sol:Presale",
								"label": "baseToken",
								"offset": 0,
								"slot": "2",
								"type": "t_contract(ERC20)585"
							},
							{
								"astId": 718,
								"contract": "Ethereum/Presale.sol:Presale",
								"label": "tokenPrice",
								"offset": 0,
								"slot": "3",
								"type": "t_uint256"
							},
							{
								"astId": 720,
								"contract": "Ethereum/Presale.sol:Presale",
								"label": "startSale",
								"offset": 0,
								"slot": "4",
								"type": "t_uint256"
							},
							{
								"astId": 722,
								"contract": "Ethereum/Presale.sol:Presale",
								"label": "endSale",
								"offset": 0,
								"slot": "5",
								"type": "t_uint256"
							},
							{
								"astId": 724,
								"contract": "Ethereum/Presale.sol:Presale",
								"label": "minSpendPerBuyer",
								"offset": 0,
								"slot": "6",
								"type": "t_uint256"
							},
							{
								"astId": 726,
								"contract": "Ethereum/Presale.sol:Presale",
								"label": "maxSpendPerBuyer",
								"offset": 0,
								"slot": "7",
								"type": "t_uint256"
							},
							{
								"astId": 728,
								"contract": "Ethereum/Presale.sol:Presale",
								"label": "refundFee",
								"offset": 0,
								"slot": "8",
								"type": "t_uint256"
							},
							{
								"astId": 730,
								"contract": "Ethereum/Presale.sol:Presale",
								"label": "claimFee",
								"offset": 0,
								"slot": "9",
								"type": "t_uint256"
							},
							{
								"astId": 732,
								"contract": "Ethereum/Presale.sol:Presale",
								"label": "saleIsBaseToken",
								"offset": 0,
								"slot": "10",
								"type": "t_bool"
							},
							{
								"astId": 734,
								"contract": "Ethereum/Presale.sol:Presale",
								"label": "amountTokenForSale",
								"offset": 0,
								"slot": "11",
								"type": "t_uint256"
							}
						],
						"numberOfBytes": "384"
					},
					"t_struct(SaleTotalSupply)740_storage": {
						"encoding": "inplace",
						"label": "struct Presale.SaleTotalSupply",
						"members": [
							{
								"astId": 737,
								"contract": "Ethereum/Presale.sol:Presale",
								"label": "hardCap",
								"offset": 0,
								"slot": "0",
								"type": "t_uint256"
							},
							{
								"astId": 739,
								"contract": "Ethereum/Presale.sol:Presale",
								"label": "softCap",
								"offset": 0,
								"slot": "1",
								"type": "t_uint256"
							}
						],
						"numberOfBytes": "64"
					},
					"t_struct(Set)1884_storage": {
						"encoding": "inplace",
						"label": "struct EnumerableSet.Set",
						"members": [
							{
								"astId": 1879,
								"contract": "Ethereum/Presale.sol:Presale",
								"label": "_values",
								"offset": 0,
								"slot": "0",
								"type": "t_array(t_bytes32)dyn_storage"
							},
							{
								"astId": 1883,
								"contract": "Ethereum/Presale.sol:Presale",
								"label": "_indexes",
								"offset": 0,
								"slot": "1",
								"type": "t_mapping(t_bytes32,t_uint256)"
							}
						],
						"numberOfBytes": "64"
					},
					"t_uint256": {
						"encoding": "inplace",
						"label": "uint256",
						"numberOfBytes": "32"
					}
				}
			},
			"userdoc": {
				"kind": "user",
				"methods": {},
				"version": 1
			}
		}
	}
}