{
	"Ethereum/Presale.sol": {
		"Presale": {
			"abi": [
				{
					"inputs": [
						{
							"internalType": "address",
							"name": "",
							"type": "address"
						}
					],
					"name": "buyerInfo",
					"outputs": [
						{
							"internalType": "address payable",
							"name": "buyer",
							"type": "address"
						},
						{
							"internalType": "uint256",
							"name": "baseDeposit",
							"type": "uint256"
						},
						{
							"internalType": "uint256",
							"name": "tokenOwner",
							"type": "uint256"
						},
						{
							"internalType": "uint256",
							"name": "lastWithDraw",
							"type": "uint256"
						},
						{
							"internalType": "uint256",
							"name": "totalTokenWithDraw",
							"type": "uint256"
						},
						{
							"internalType": "bool",
							"name": "isRefund",
							"type": "bool"
						},
						{
							"internalType": "bool",
							"name": "isClaim",
							"type": "bool"
						}
					],
					"stateMutability": "view",
					"type": "function"
				},
				{
					"inputs": [
						{
							"internalType": "address payable",
							"name": "_presaleOwner",
							"type": "address"
						},
						{
							"internalType": "contract IERC20",
							"name": "_saleToken",
							"type": "address"
						},
						{
							"internalType": "contract IERC20",
							"name": "_baseTOken",
							"type": "address"
						},
						{
							"internalType": "uint256[9]",
							"name": "datas",
							"type": "uint256[9]"
						}
					],
					"name": "initialSaleInfor",
					"outputs": [],
					"stateMutability": "nonpayable",
					"type": "function"
				},
				{
					"inputs": [],
					"name": "presaleStatus",
					"outputs": [
						{
							"internalType": "uint256",
							"name": "totalBaseCollected",
							"type": "uint256"
						},
						{
							"internalType": "uint256",
							"name": "totalTokenSold",
							"type": "uint256"
						},
						{
							"internalType": "uint256",
							"name": "totalTokenWithDraw",
							"type": "uint256"
						},
						{
							"internalType": "uint256",
							"name": "totalBaseWithDraw",
							"type": "uint256"
						},
						{
							"internalType": "uint256",
							"name": "numByer",
							"type": "uint256"
						},
						{
							"internalType": "uint256",
							"name": "totalFee",
							"type": "uint256"
						}
					],
					"stateMutability": "view",
					"type": "function"
				},
				{
					"inputs": [],
					"name": "saleInfor",
					"outputs": [
						{
							"internalType": "address payable",
							"name": "presaleOwner",
							"type": "address"
						},
						{
							"internalType": "contract IERC20",
							"name": "saleToken",
							"type": "address"
						},
						{
							"internalType": "contract IERC20",
							"name": "baseToken",
							"type": "address"
						},
						{
							"internalType": "uint256",
							"name": "tokenPrice",
							"type": "uint256"
						},
						{
							"internalType": "uint256",
							"name": "startSale",
							"type": "uint256"
						},
						{
							"internalType": "uint256",
							"name": "endSale",
							"type": "uint256"
						},
						{
							"internalType": "uint256",
							"name": "valueSwapERC20",
							"type": "uint256"
						},
						{
							"internalType": "uint256",
							"name": "feeTransaction",
							"type": "uint256"
						},
						{
							"internalType": "uint256",
							"name": "minSpendPerBuyer",
							"type": "uint256"
						},
						{
							"internalType": "uint256",
							"name": "maxSpendPerBuyer",
							"type": "uint256"
						},
						{
							"internalType": "uint256",
							"name": "refundFee",
							"type": "uint256"
						},
						{
							"internalType": "uint256",
							"name": "claimFee",
							"type": "uint256"
						}
					],
					"stateMutability": "view",
					"type": "function"
				},
				{
					"inputs": [
						{
							"internalType": "address",
							"name": "",
							"type": "address"
						}
					],
					"name": "userFee",
					"outputs": [
						{
							"internalType": "uint256",
							"name": "",
							"type": "uint256"
						}
					],
					"stateMutability": "view",
					"type": "function"
				}
			],
			"devdoc": {
				"kind": "dev",
				"methods": {},
				"version": 1
			},
			"evm": {
				"assembly": "    /* \"Ethereum/Presale.sol\":153:1548  contract Presale{\r... */\n  mstore(0x40, 0x80)\n  callvalue\n  dup1\n  iszero\n  tag_1\n  jumpi\n  0x00\n  dup1\n  revert\ntag_1:\n  pop\n  dataSize(sub_0)\n  dup1\n  dataOffset(sub_0)\n  0x00\n  codecopy\n  0x00\n  return\nstop\n\nsub_0: assembly {\n        /* \"Ethereum/Presale.sol\":153:1548  contract Presale{\r... */\n      mstore(0x40, 0x80)\n      callvalue\n      dup1\n      iszero\n      tag_1\n      jumpi\n      0x00\n      dup1\n      revert\n    tag_1:\n      pop\n      jumpi(tag_2, lt(calldatasize, 0x04))\n      shr(0xe0, calldataload(0x00))\n      dup1\n      0x18856a2f\n      eq\n      tag_3\n      jumpi\n      dup1\n      0x56c5f349\n      eq\n      tag_4\n      jumpi\n      dup1\n      0x8f1eae4c\n      eq\n      tag_5\n      jumpi\n      dup1\n      0xacfb2355\n      eq\n      tag_6\n      jumpi\n      dup1\n      0xe2d3f423\n      eq\n      tag_7\n      jumpi\n    tag_2:\n      0x00\n      dup1\n      revert\n        /* \"Ethereum/Presale.sol\":1195:1221  SaleInfor public saleInfor */\n    tag_3:\n      tag_8\n      tag_9\n      jump\t// in\n    tag_8:\n      mload(0x40)\n      tag_10\n      swap13\n      swap12\n      swap11\n      swap10\n      swap9\n      swap8\n      swap7\n      swap6\n      swap5\n      swap4\n      swap3\n      swap2\n      swap1\n      tag_11\n      jump\t// in\n    tag_10:\n      mload(0x40)\n      dup1\n      swap2\n      sub\n      swap1\n      return\n        /* \"Ethereum/Presale.sol\":1105:1147  mapping(address => uint256) public userFee */\n    tag_4:\n      tag_12\n      0x04\n      dup1\n      calldatasize\n      sub\n      dup2\n      add\n      swap1\n      tag_13\n      swap2\n      swap1\n      tag_14\n      jump\t// in\n    tag_13:\n      tag_15\n      jump\t// in\n    tag_12:\n      mload(0x40)\n      tag_16\n      swap2\n      swap1\n      tag_17\n      jump\t// in\n    tag_16:\n      mload(0x40)\n      dup1\n      swap2\n      sub\n      swap1\n      return\n        /* \"Ethereum/Presale.sol\":1230:1545  function initialSaleInfor(\r... */\n    tag_5:\n      tag_18\n      0x04\n      dup1\n      calldatasize\n      sub\n      dup2\n      add\n      swap1\n      tag_19\n      swap2\n      swap1\n      tag_20\n      jump\t// in\n    tag_19:\n      tag_21\n      jump\t// in\n    tag_18:\n      stop\n        /* \"Ethereum/Presale.sol\":1154:1188  PresaleStatus public presaleStatus */\n    tag_6:\n      tag_22\n      tag_23\n      jump\t// in\n    tag_22:\n      mload(0x40)\n      tag_24\n      swap7\n      swap6\n      swap5\n      swap4\n      swap3\n      swap2\n      swap1\n      tag_25\n      jump\t// in\n    tag_24:\n      mload(0x40)\n      dup1\n      swap2\n      sub\n      swap1\n      return\n        /* \"Ethereum/Presale.sol\":1052:1098  mapping(address => BuyerInfo) public buyerInfo */\n    tag_7:\n      tag_26\n      0x04\n      dup1\n      calldatasize\n      sub\n      dup2\n      add\n      swap1\n      tag_27\n      swap2\n      swap1\n      tag_14\n      jump\t// in\n    tag_27:\n      tag_28\n      jump\t// in\n    tag_26:\n      mload(0x40)\n      tag_29\n      swap8\n      swap7\n      swap6\n      swap5\n      swap4\n      swap3\n      swap2\n      swap1\n      tag_30\n      jump\t// in\n    tag_29:\n      mload(0x40)\n      dup1\n      swap2\n      sub\n      swap1\n      return\n        /* \"Ethereum/Presale.sol\":1195:1221  SaleInfor public saleInfor */\n    tag_9:\n      0x08\n      dup1\n      0x00\n      add\n      0x00\n      swap1\n      sload\n      swap1\n      0x0100\n      exp\n      swap1\n      div\n      0xffffffffffffffffffffffffffffffffffffffff\n      and\n      swap1\n      dup1\n      0x01\n      add\n      0x00\n      swap1\n      sload\n      swap1\n      0x0100\n      exp\n      swap1\n      div\n      0xffffffffffffffffffffffffffffffffffffffff\n      and\n      swap1\n      dup1\n      0x02\n      add\n      0x00\n      swap1\n      sload\n      swap1\n      0x0100\n      exp\n      swap1\n      div\n      0xffffffffffffffffffffffffffffffffffffffff\n      and\n      swap1\n      dup1\n      0x03\n      add\n      sload\n      swap1\n      dup1\n      0x04\n      add\n      sload\n      swap1\n      dup1\n      0x05\n      add\n      sload\n      swap1\n      dup1\n      0x06\n      add\n      sload\n      swap1\n      dup1\n      0x07\n      add\n      sload\n      swap1\n      dup1\n      0x08\n      add\n      sload\n      swap1\n      dup1\n      0x09\n      add\n      sload\n      swap1\n      dup1\n      0x0a\n      add\n      sload\n      swap1\n      dup1\n      0x0b\n      add\n      sload\n      swap1\n      pop\n      dup13\n      jump\t// out\n        /* \"Ethereum/Presale.sol\":1105:1147  mapping(address => uint256) public userFee */\n    tag_15:\n      mstore(0x20, 0x01)\n      dup1\n      0x00\n      mstore\n      keccak256(0x00, 0x40)\n      0x00\n      swap2\n      pop\n      swap1\n      pop\n      sload\n      dup2\n      jump\t// out\n        /* \"Ethereum/Presale.sol\":1230:1545  function initialSaleInfor(\r... */\n    tag_21:\n        /* \"Ethereum/Presale.sol\":1438:1451  _presaleOwner */\n      dup4\n        /* \"Ethereum/Presale.sol\":1413:1422  saleInfor */\n      0x08\n        /* \"Ethereum/Presale.sol\":1413:1435  saleInfor.presaleOwner */\n      0x00\n      add\n      0x00\n        /* \"Ethereum/Presale.sol\":1413:1451  saleInfor.presaleOwner = _presaleOwner */\n      0x0100\n      exp\n      dup2\n      sload\n      dup2\n      0xffffffffffffffffffffffffffffffffffffffff\n      mul\n      not\n      and\n      swap1\n      dup4\n      0xffffffffffffffffffffffffffffffffffffffff\n      and\n      mul\n      or\n      swap1\n      sstore\n      pop\n        /* \"Ethereum/Presale.sol\":1484:1494  _saleToken */\n      dup3\n        /* \"Ethereum/Presale.sol\":1462:1471  saleInfor */\n      0x08\n        /* \"Ethereum/Presale.sol\":1462:1481  saleInfor.saleToken */\n      0x01\n      add\n      0x00\n        /* \"Ethereum/Presale.sol\":1462:1494  saleInfor.saleToken = _saleToken */\n      0x0100\n      exp\n      dup2\n      sload\n      dup2\n      0xffffffffffffffffffffffffffffffffffffffff\n      mul\n      not\n      and\n      swap1\n      dup4\n      0xffffffffffffffffffffffffffffffffffffffff\n      and\n      mul\n      or\n      swap1\n      sstore\n      pop\n        /* \"Ethereum/Presale.sol\":1527:1537  _baseTOken */\n      dup2\n        /* \"Ethereum/Presale.sol\":1505:1514  saleInfor */\n      0x08\n        /* \"Ethereum/Presale.sol\":1505:1524  saleInfor.baseToken */\n      0x02\n      add\n      0x00\n        /* \"Ethereum/Presale.sol\":1505:1537  saleInfor.baseToken = _baseTOken */\n      0x0100\n      exp\n      dup2\n      sload\n      dup2\n      0xffffffffffffffffffffffffffffffffffffffff\n      mul\n      not\n      and\n      swap1\n      dup4\n      0xffffffffffffffffffffffffffffffffffffffff\n      and\n      mul\n      or\n      swap1\n      sstore\n      pop\n        /* \"Ethereum/Presale.sol\":1230:1545  function initialSaleInfor(\r... */\n      pop\n      pop\n      pop\n      pop\n      jump\t// out\n        /* \"Ethereum/Presale.sol\":1154:1188  PresaleStatus public presaleStatus */\n    tag_23:\n      0x02\n      dup1\n      0x00\n      add\n      sload\n      swap1\n      dup1\n      0x01\n      add\n      sload\n      swap1\n      dup1\n      0x02\n      add\n      sload\n      swap1\n      dup1\n      0x03\n      add\n      sload\n      swap1\n      dup1\n      0x04\n      add\n      sload\n      swap1\n      dup1\n      0x05\n      add\n      sload\n      swap1\n      pop\n      dup7\n      jump\t// out\n        /* \"Ethereum/Presale.sol\":1052:1098  mapping(address => BuyerInfo) public buyerInfo */\n    tag_28:\n      mstore(0x20, 0x00)\n      dup1\n      0x00\n      mstore\n      keccak256(0x00, 0x40)\n      0x00\n      swap2\n      pop\n      swap1\n      pop\n      dup1\n      0x00\n      add\n      0x00\n      swap1\n      sload\n      swap1\n      0x0100\n      exp\n      swap1\n      div\n      0xffffffffffffffffffffffffffffffffffffffff\n      and\n      swap1\n      dup1\n      0x01\n      add\n      sload\n      swap1\n      dup1\n      0x02\n      add\n      sload\n      swap1\n      dup1\n      0x03\n      add\n      sload\n      swap1\n      dup1\n      0x04\n      add\n      sload\n      swap1\n      dup1\n      0x05\n      add\n      0x00\n      swap1\n      sload\n      swap1\n      0x0100\n      exp\n      swap1\n      div\n      0xff\n      and\n      swap1\n      dup1\n      0x05\n      add\n      0x01\n      swap1\n      sload\n      swap1\n      0x0100\n      exp\n      swap1\n      div\n      0xff\n      and\n      swap1\n      pop\n      dup8\n      jump\t// out\n        /* \"#utility.yul\":25:590   */\n    tag_33:\n      0x00\n        /* \"#utility.yul\":144:222   */\n      tag_35\n        /* \"#utility.yul\":159:221   */\n      tag_36\n        /* \"#utility.yul\":214:220   */\n      dup5\n        /* \"#utility.yul\":159:221   */\n      tag_37\n      jump\t// in\n    tag_36:\n        /* \"#utility.yul\":144:222   */\n      tag_38\n      jump\t// in\n    tag_35:\n        /* \"#utility.yul\":135:222   */\n      swap1\n      pop\n        /* \"#utility.yul\":242:247   */\n      dup1\n        /* \"#utility.yul\":268:274   */\n      dup3\n        /* \"#utility.yul\":318:321   */\n      dup6\n        /* \"#utility.yul\":310:314   */\n      0x20\n        /* \"#utility.yul\":302:308   */\n      dup7\n        /* \"#utility.yul\":298:315   */\n      mul\n        /* \"#utility.yul\":293:296   */\n      dup3\n        /* \"#utility.yul\":289:316   */\n      add\n        /* \"#utility.yul\":286:322   */\n      gt\n        /* \"#utility.yul\":283:285   */\n      iszero\n      tag_39\n      jumpi\n        /* \"#utility.yul\":335:336   */\n      0x00\n        /* \"#utility.yul\":332:333   */\n      dup1\n        /* \"#utility.yul\":325:337   */\n      revert\n        /* \"#utility.yul\":283:285   */\n    tag_39:\n        /* \"#utility.yul\":363:364   */\n      0x00\n        /* \"#utility.yul\":348:584   */\n    tag_40:\n        /* \"#utility.yul\":373:379   */\n      dup6\n        /* \"#utility.yul\":370:371   */\n      dup2\n        /* \"#utility.yul\":367:380   */\n      lt\n        /* \"#utility.yul\":348:584   */\n      iszero\n      tag_42\n      jumpi\n        /* \"#utility.yul\":440:443   */\n      dup2\n        /* \"#utility.yul\":468:505   */\n      tag_43\n        /* \"#utility.yul\":501:504   */\n      dup9\n        /* \"#utility.yul\":489:499   */\n      dup3\n        /* \"#utility.yul\":468:505   */\n      tag_44\n      jump\t// in\n    tag_43:\n        /* \"#utility.yul\":463:466   */\n      dup5\n        /* \"#utility.yul\":456:506   */\n      mstore\n        /* \"#utility.yul\":535:539   */\n      0x20\n        /* \"#utility.yul\":530:533   */\n      dup5\n        /* \"#utility.yul\":526:540   */\n      add\n        /* \"#utility.yul\":519:540   */\n      swap4\n      pop\n        /* \"#utility.yul\":569:573   */\n      0x20\n        /* \"#utility.yul\":564:567   */\n      dup4\n        /* \"#utility.yul\":560:574   */\n      add\n        /* \"#utility.yul\":553:574   */\n      swap3\n      pop\n        /* \"#utility.yul\":408:584   */\n      pop\n        /* \"#utility.yul\":395:396   */\n      0x01\n        /* \"#utility.yul\":392:393   */\n      dup2\n        /* \"#utility.yul\":388:397   */\n      add\n        /* \"#utility.yul\":383:397   */\n      swap1\n      pop\n        /* \"#utility.yul\":348:584   */\n      jump(tag_40)\n    tag_42:\n        /* \"#utility.yul\":352:366   */\n      pop\n        /* \"#utility.yul\":125:590   */\n      pop\n      pop\n      swap4\n      swap3\n      pop\n      pop\n      pop\n      jump\t// out\n        /* \"#utility.yul\":596:735   */\n    tag_45:\n      0x00\n        /* \"#utility.yul\":680:686   */\n      dup2\n        /* \"#utility.yul\":667:687   */\n      calldataload\n        /* \"#utility.yul\":658:687   */\n      swap1\n      pop\n        /* \"#utility.yul\":696:729   */\n      tag_47\n        /* \"#utility.yul\":723:728   */\n      dup2\n        /* \"#utility.yul\":696:729   */\n      tag_48\n      jump\t// in\n    tag_47:\n        /* \"#utility.yul\":648:735   */\n      swap3\n      swap2\n      pop\n      pop\n      jump\t// out\n        /* \"#utility.yul\":741:896   */\n    tag_49:\n      0x00\n        /* \"#utility.yul\":833:839   */\n      dup2\n        /* \"#utility.yul\":820:840   */\n      calldataload\n        /* \"#utility.yul\":811:840   */\n      swap1\n      pop\n        /* \"#utility.yul\":849:890   */\n      tag_51\n        /* \"#utility.yul\":884:889   */\n      dup2\n        /* \"#utility.yul\":849:890   */\n      tag_52\n      jump\t// in\n    tag_51:\n        /* \"#utility.yul\":801:896   */\n      swap3\n      swap2\n      pop\n      pop\n      jump\t// out\n        /* \"#utility.yul\":920:1192   */\n    tag_53:\n      0x00\n        /* \"#utility.yul\":1038:1041   */\n      dup3\n        /* \"#utility.yul\":1031:1035   */\n      0x1f\n        /* \"#utility.yul\":1023:1029   */\n      dup4\n        /* \"#utility.yul\":1019:1036   */\n      add\n        /* \"#utility.yul\":1015:1042   */\n      slt\n        /* \"#utility.yul\":1005:1007   */\n      tag_55\n      jumpi\n        /* \"#utility.yul\":1056:1057   */\n      0x00\n        /* \"#utility.yul\":1053:1054   */\n      dup1\n        /* \"#utility.yul\":1046:1058   */\n      revert\n        /* \"#utility.yul\":1005:1007   */\n    tag_55:\n        /* \"#utility.yul\":1083:1087   */\n      0x09\n        /* \"#utility.yul\":1105:1186   */\n      tag_56\n        /* \"#utility.yul\":1182:1185   */\n      dup5\n        /* \"#utility.yul\":1174:1180   */\n      dup3\n        /* \"#utility.yul\":1166:1172   */\n      dup6\n        /* \"#utility.yul\":1105:1186   */\n      tag_33\n      jump\t// in\n    tag_56:\n        /* \"#utility.yul\":1096:1186   */\n      swap2\n      pop\n        /* \"#utility.yul\":995:1192   */\n      pop\n      swap3\n      swap2\n      pop\n      pop\n      jump\t// out\n        /* \"#utility.yul\":1198:1363   */\n    tag_57:\n      0x00\n        /* \"#utility.yul\":1295:1301   */\n      dup2\n        /* \"#utility.yul\":1282:1302   */\n      calldataload\n        /* \"#utility.yul\":1273:1302   */\n      swap1\n      pop\n        /* \"#utility.yul\":1311:1357   */\n      tag_59\n        /* \"#utility.yul\":1351:1356   */\n      dup2\n        /* \"#utility.yul\":1311:1357   */\n      tag_60\n      jump\t// in\n    tag_59:\n        /* \"#utility.yul\":1263:1363   */\n      swap3\n      swap2\n      pop\n      pop\n      jump\t// out\n        /* \"#utility.yul\":1369:1508   */\n    tag_44:\n      0x00\n        /* \"#utility.yul\":1453:1459   */\n      dup2\n        /* \"#utility.yul\":1440:1460   */\n      calldataload\n        /* \"#utility.yul\":1431:1460   */\n      swap1\n      pop\n        /* \"#utility.yul\":1469:1502   */\n      tag_62\n        /* \"#utility.yul\":1496:1501   */\n      dup2\n        /* \"#utility.yul\":1469:1502   */\n      tag_63\n      jump\t// in\n    tag_62:\n        /* \"#utility.yul\":1421:1508   */\n      swap3\n      swap2\n      pop\n      pop\n      jump\t// out\n        /* \"#utility.yul\":1514:1776   */\n    tag_14:\n      0x00\n        /* \"#utility.yul\":1622:1624   */\n      0x20\n        /* \"#utility.yul\":1610:1619   */\n      dup3\n        /* \"#utility.yul\":1601:1608   */\n      dup5\n        /* \"#utility.yul\":1597:1620   */\n      sub\n        /* \"#utility.yul\":1593:1625   */\n      slt\n        /* \"#utility.yul\":1590:1592   */\n      iszero\n      tag_65\n      jumpi\n        /* \"#utility.yul\":1638:1639   */\n      0x00\n        /* \"#utility.yul\":1635:1636   */\n      dup1\n        /* \"#utility.yul\":1628:1640   */\n      revert\n        /* \"#utility.yul\":1590:1592   */\n    tag_65:\n        /* \"#utility.yul\":1681:1682   */\n      0x00\n        /* \"#utility.yul\":1706:1759   */\n      tag_66\n        /* \"#utility.yul\":1751:1758   */\n      dup5\n        /* \"#utility.yul\":1742:1748   */\n      dup3\n        /* \"#utility.yul\":1731:1740   */\n      dup6\n        /* \"#utility.yul\":1727:1749   */\n      add\n        /* \"#utility.yul\":1706:1759   */\n      tag_45\n      jump\t// in\n    tag_66:\n        /* \"#utility.yul\":1696:1759   */\n      swap2\n      pop\n        /* \"#utility.yul\":1652:1769   */\n      pop\n        /* \"#utility.yul\":1580:1776   */\n      swap3\n      swap2\n      pop\n      pop\n      jump\t// out\n        /* \"#utility.yul\":1782:2594   */\n    tag_20:\n      0x00\n      dup1\n      0x00\n      dup1\n        /* \"#utility.yul\":1998:2001   */\n      0x0180\n        /* \"#utility.yul\":1986:1995   */\n      dup6\n        /* \"#utility.yul\":1977:1984   */\n      dup8\n        /* \"#utility.yul\":1973:1996   */\n      sub\n        /* \"#utility.yul\":1969:2002   */\n      slt\n        /* \"#utility.yul\":1966:1968   */\n      iszero\n      tag_68\n      jumpi\n        /* \"#utility.yul\":2015:2016   */\n      0x00\n        /* \"#utility.yul\":2012:2013   */\n      dup1\n        /* \"#utility.yul\":2005:2017   */\n      revert\n        /* \"#utility.yul\":1966:1968   */\n    tag_68:\n        /* \"#utility.yul\":2058:2059   */\n      0x00\n        /* \"#utility.yul\":2083:2144   */\n      tag_69\n        /* \"#utility.yul\":2136:2143   */\n      dup8\n        /* \"#utility.yul\":2127:2133   */\n      dup3\n        /* \"#utility.yul\":2116:2125   */\n      dup9\n        /* \"#utility.yul\":2112:2134   */\n      add\n        /* \"#utility.yul\":2083:2144   */\n      tag_49\n      jump\t// in\n    tag_69:\n        /* \"#utility.yul\":2073:2144   */\n      swap5\n      pop\n        /* \"#utility.yul\":2029:2154   */\n      pop\n        /* \"#utility.yul\":2193:2195   */\n      0x20\n        /* \"#utility.yul\":2219:2285   */\n      tag_70\n        /* \"#utility.yul\":2277:2284   */\n      dup8\n        /* \"#utility.yul\":2268:2274   */\n      dup3\n        /* \"#utility.yul\":2257:2266   */\n      dup9\n        /* \"#utility.yul\":2253:2275   */\n      add\n        /* \"#utility.yul\":2219:2285   */\n      tag_57\n      jump\t// in\n    tag_70:\n        /* \"#utility.yul\":2209:2285   */\n      swap4\n      pop\n        /* \"#utility.yul\":2164:2295   */\n      pop\n        /* \"#utility.yul\":2334:2336   */\n      0x40\n        /* \"#utility.yul\":2360:2426   */\n      tag_71\n        /* \"#utility.yul\":2418:2425   */\n      dup8\n        /* \"#utility.yul\":2409:2415   */\n      dup3\n        /* \"#utility.yul\":2398:2407   */\n      dup9\n        /* \"#utility.yul\":2394:2416   */\n      add\n        /* \"#utility.yul\":2360:2426   */\n      tag_57\n      jump\t// in\n    tag_71:\n        /* \"#utility.yul\":2350:2426   */\n      swap3\n      pop\n        /* \"#utility.yul\":2305:2436   */\n      pop\n        /* \"#utility.yul\":2475:2477   */\n      0x60\n        /* \"#utility.yul\":2501:2577   */\n      tag_72\n        /* \"#utility.yul\":2569:2576   */\n      dup8\n        /* \"#utility.yul\":2560:2566   */\n      dup3\n        /* \"#utility.yul\":2549:2558   */\n      dup9\n        /* \"#utility.yul\":2545:2567   */\n      add\n        /* \"#utility.yul\":2501:2577   */\n      tag_53\n      jump\t// in\n    tag_72:\n        /* \"#utility.yul\":2491:2577   */\n      swap2\n      pop\n        /* \"#utility.yul\":2446:2587   */\n      pop\n        /* \"#utility.yul\":1956:2594   */\n      swap3\n      swap6\n      swap2\n      swap5\n      pop\n      swap3\n      pop\n      jump\t// out\n        /* \"#utility.yul\":2600:2742   */\n    tag_73:\n        /* \"#utility.yul\":2703:2735   */\n      tag_75\n        /* \"#utility.yul\":2729:2734   */\n      dup2\n        /* \"#utility.yul\":2703:2735   */\n      tag_76\n      jump\t// in\n    tag_75:\n        /* \"#utility.yul\":2698:2701   */\n      dup3\n        /* \"#utility.yul\":2691:2736   */\n      mstore\n        /* \"#utility.yul\":2681:2742   */\n      pop\n      pop\n      jump\t// out\n        /* \"#utility.yul\":2748:2857   */\n    tag_77:\n        /* \"#utility.yul\":2829:2850   */\n      tag_79\n        /* \"#utility.yul\":2844:2849   */\n      dup2\n        /* \"#utility.yul\":2829:2850   */\n      tag_80\n      jump\t// in\n    tag_79:\n        /* \"#utility.yul\":2824:2827   */\n      dup3\n        /* \"#utility.yul\":2817:2851   */\n      mstore\n        /* \"#utility.yul\":2807:2857   */\n      pop\n      pop\n      jump\t// out\n        /* \"#utility.yul\":2863:3020   */\n    tag_81:\n        /* \"#utility.yul\":2963:3013   */\n      tag_83\n        /* \"#utility.yul\":3007:3012   */\n      dup2\n        /* \"#utility.yul\":2963:3013   */\n      tag_84\n      jump\t// in\n    tag_83:\n        /* \"#utility.yul\":2958:2961   */\n      dup3\n        /* \"#utility.yul\":2951:3014   */\n      mstore\n        /* \"#utility.yul\":2941:3020   */\n      pop\n      pop\n      jump\t// out\n        /* \"#utility.yul\":3026:3144   */\n    tag_85:\n        /* \"#utility.yul\":3113:3137   */\n      tag_87\n        /* \"#utility.yul\":3131:3136   */\n      dup2\n        /* \"#utility.yul\":3113:3137   */\n      tag_88\n      jump\t// in\n    tag_87:\n        /* \"#utility.yul\":3108:3111   */\n      dup3\n        /* \"#utility.yul\":3101:3138   */\n      mstore\n        /* \"#utility.yul\":3091:3144   */\n      pop\n      pop\n      jump\t// out\n        /* \"#utility.yul\":3150:4679   */\n    tag_11:\n      0x00\n        /* \"#utility.yul\":3633:3636   */\n      0x0180\n        /* \"#utility.yul\":3622:3631   */\n      dup3\n        /* \"#utility.yul\":3618:3637   */\n      add\n        /* \"#utility.yul\":3610:3637   */\n      swap1\n      pop\n        /* \"#utility.yul\":3647:3734   */\n      tag_90\n        /* \"#utility.yul\":3731:3732   */\n      0x00\n        /* \"#utility.yul\":3720:3729   */\n      dup4\n        /* \"#utility.yul\":3716:3733   */\n      add\n        /* \"#utility.yul\":3707:3713   */\n      dup16\n        /* \"#utility.yul\":3647:3734   */\n      tag_73\n      jump\t// in\n    tag_90:\n        /* \"#utility.yul\":3744:3829   */\n      tag_91\n        /* \"#utility.yul\":3825:3827   */\n      0x20\n        /* \"#utility.yul\":3814:3823   */\n      dup4\n        /* \"#utility.yul\":3810:3828   */\n      add\n        /* \"#utility.yul\":3801:3807   */\n      dup15\n        /* \"#utility.yul\":3744:3829   */\n      tag_81\n      jump\t// in\n    tag_91:\n        /* \"#utility.yul\":3839:3924   */\n      tag_92\n        /* \"#utility.yul\":3920:3922   */\n      0x40\n        /* \"#utility.yul\":3909:3918   */\n      dup4\n        /* \"#utility.yul\":3905:3923   */\n      add\n        /* \"#utility.yul\":3896:3902   */\n      dup14\n        /* \"#utility.yul\":3839:3924   */\n      tag_81\n      jump\t// in\n    tag_92:\n        /* \"#utility.yul\":3934:4006   */\n      tag_93\n        /* \"#utility.yul\":4002:4004   */\n      0x60\n        /* \"#utility.yul\":3991:4000   */\n      dup4\n        /* \"#utility.yul\":3987:4005   */\n      add\n        /* \"#utility.yul\":3978:3984   */\n      dup13\n        /* \"#utility.yul\":3934:4006   */\n      tag_85\n      jump\t// in\n    tag_93:\n        /* \"#utility.yul\":4016:4089   */\n      tag_94\n        /* \"#utility.yul\":4084:4087   */\n      0x80\n        /* \"#utility.yul\":4073:4082   */\n      dup4\n        /* \"#utility.yul\":4069:4088   */\n      add\n        /* \"#utility.yul\":4060:4066   */\n      dup12\n        /* \"#utility.yul\":4016:4089   */\n      tag_85\n      jump\t// in\n    tag_94:\n        /* \"#utility.yul\":4099:4172   */\n      tag_95\n        /* \"#utility.yul\":4167:4170   */\n      0xa0\n        /* \"#utility.yul\":4156:4165   */\n      dup4\n        /* \"#utility.yul\":4152:4171   */\n      add\n        /* \"#utility.yul\":4143:4149   */\n      dup11\n        /* \"#utility.yul\":4099:4172   */\n      tag_85\n      jump\t// in\n    tag_95:\n        /* \"#utility.yul\":4182:4255   */\n      tag_96\n        /* \"#utility.yul\":4250:4253   */\n      0xc0\n        /* \"#utility.yul\":4239:4248   */\n      dup4\n        /* \"#utility.yul\":4235:4254   */\n      add\n        /* \"#utility.yul\":4226:4232   */\n      dup10\n        /* \"#utility.yul\":4182:4255   */\n      tag_85\n      jump\t// in\n    tag_96:\n        /* \"#utility.yul\":4265:4338   */\n      tag_97\n        /* \"#utility.yul\":4333:4336   */\n      0xe0\n        /* \"#utility.yul\":4322:4331   */\n      dup4\n        /* \"#utility.yul\":4318:4337   */\n      add\n        /* \"#utility.yul\":4309:4315   */\n      dup9\n        /* \"#utility.yul\":4265:4338   */\n      tag_85\n      jump\t// in\n    tag_97:\n        /* \"#utility.yul\":4348:4421   */\n      tag_98\n        /* \"#utility.yul\":4416:4419   */\n      0x0100\n        /* \"#utility.yul\":4405:4414   */\n      dup4\n        /* \"#utility.yul\":4401:4420   */\n      add\n        /* \"#utility.yul\":4392:4398   */\n      dup8\n        /* \"#utility.yul\":4348:4421   */\n      tag_85\n      jump\t// in\n    tag_98:\n        /* \"#utility.yul\":4431:4504   */\n      tag_99\n        /* \"#utility.yul\":4499:4502   */\n      0x0120\n        /* \"#utility.yul\":4488:4497   */\n      dup4\n        /* \"#utility.yul\":4484:4503   */\n      add\n        /* \"#utility.yul\":4475:4481   */\n      dup7\n        /* \"#utility.yul\":4431:4504   */\n      tag_85\n      jump\t// in\n    tag_99:\n        /* \"#utility.yul\":4514:4588   */\n      tag_100\n        /* \"#utility.yul\":4583:4586   */\n      0x0140\n        /* \"#utility.yul\":4572:4581   */\n      dup4\n        /* \"#utility.yul\":4568:4587   */\n      add\n        /* \"#utility.yul\":4558:4565   */\n      dup6\n        /* \"#utility.yul\":4514:4588   */\n      tag_85\n      jump\t// in\n    tag_100:\n        /* \"#utility.yul\":4598:4672   */\n      tag_101\n        /* \"#utility.yul\":4667:4670   */\n      0x0160\n        /* \"#utility.yul\":4656:4665   */\n      dup4\n        /* \"#utility.yul\":4652:4671   */\n      add\n        /* \"#utility.yul\":4642:4649   */\n      dup5\n        /* \"#utility.yul\":4598:4672   */\n      tag_85\n      jump\t// in\n    tag_101:\n        /* \"#utility.yul\":3600:4679   */\n      swap14\n      swap13\n      pop\n      pop\n      pop\n      pop\n      pop\n      pop\n      pop\n      pop\n      pop\n      pop\n      pop\n      pop\n      pop\n      jump\t// out\n        /* \"#utility.yul\":4685:5579   */\n    tag_30:\n      0x00\n        /* \"#utility.yul\":4988:4991   */\n      0xe0\n        /* \"#utility.yul\":4977:4986   */\n      dup3\n        /* \"#utility.yul\":4973:4992   */\n      add\n        /* \"#utility.yul\":4965:4992   */\n      swap1\n      pop\n        /* \"#utility.yul\":5002:5089   */\n      tag_103\n        /* \"#utility.yul\":5086:5087   */\n      0x00\n        /* \"#utility.yul\":5075:5084   */\n      dup4\n        /* \"#utility.yul\":5071:5088   */\n      add\n        /* \"#utility.yul\":5062:5068   */\n      dup11\n        /* \"#utility.yul\":5002:5089   */\n      tag_73\n      jump\t// in\n    tag_103:\n        /* \"#utility.yul\":5099:5171   */\n      tag_104\n        /* \"#utility.yul\":5167:5169   */\n      0x20\n        /* \"#utility.yul\":5156:5165   */\n      dup4\n        /* \"#utility.yul\":5152:5170   */\n      add\n        /* \"#utility.yul\":5143:5149   */\n      dup10\n        /* \"#utility.yul\":5099:5171   */\n      tag_85\n      jump\t// in\n    tag_104:\n        /* \"#utility.yul\":5181:5253   */\n      tag_105\n        /* \"#utility.yul\":5249:5251   */\n      0x40\n        /* \"#utility.yul\":5238:5247   */\n      dup4\n        /* \"#utility.yul\":5234:5252   */\n      add\n        /* \"#utility.yul\":5225:5231   */\n      dup9\n        /* \"#utility.yul\":5181:5253   */\n      tag_85\n      jump\t// in\n    tag_105:\n        /* \"#utility.yul\":5263:5335   */\n      tag_106\n        /* \"#utility.yul\":5331:5333   */\n      0x60\n        /* \"#utility.yul\":5320:5329   */\n      dup4\n        /* \"#utility.yul\":5316:5334   */\n      add\n        /* \"#utility.yul\":5307:5313   */\n      dup8\n        /* \"#utility.yul\":5263:5335   */\n      tag_85\n      jump\t// in\n    tag_106:\n        /* \"#utility.yul\":5345:5418   */\n      tag_107\n        /* \"#utility.yul\":5413:5416   */\n      0x80\n        /* \"#utility.yul\":5402:5411   */\n      dup4\n        /* \"#utility.yul\":5398:5417   */\n      add\n        /* \"#utility.yul\":5389:5395   */\n      dup7\n        /* \"#utility.yul\":5345:5418   */\n      tag_85\n      jump\t// in\n    tag_107:\n        /* \"#utility.yul\":5428:5495   */\n      tag_108\n        /* \"#utility.yul\":5490:5493   */\n      0xa0\n        /* \"#utility.yul\":5479:5488   */\n      dup4\n        /* \"#utility.yul\":5475:5494   */\n      add\n        /* \"#utility.yul\":5466:5472   */\n      dup6\n        /* \"#utility.yul\":5428:5495   */\n      tag_77\n      jump\t// in\n    tag_108:\n        /* \"#utility.yul\":5505:5572   */\n      tag_109\n        /* \"#utility.yul\":5567:5570   */\n      0xc0\n        /* \"#utility.yul\":5556:5565   */\n      dup4\n        /* \"#utility.yul\":5552:5571   */\n      add\n        /* \"#utility.yul\":5543:5549   */\n      dup5\n        /* \"#utility.yul\":5505:5572   */\n      tag_77\n      jump\t// in\n    tag_109:\n        /* \"#utility.yul\":4955:5579   */\n      swap9\n      swap8\n      pop\n      pop\n      pop\n      pop\n      pop\n      pop\n      pop\n      pop\n      jump\t// out\n        /* \"#utility.yul\":5585:5807   */\n    tag_17:\n      0x00\n        /* \"#utility.yul\":5716:5718   */\n      0x20\n        /* \"#utility.yul\":5705:5714   */\n      dup3\n        /* \"#utility.yul\":5701:5719   */\n      add\n        /* \"#utility.yul\":5693:5719   */\n      swap1\n      pop\n        /* \"#utility.yul\":5729:5800   */\n      tag_111\n        /* \"#utility.yul\":5797:5798   */\n      0x00\n        /* \"#utility.yul\":5786:5795   */\n      dup4\n        /* \"#utility.yul\":5782:5799   */\n      add\n        /* \"#utility.yul\":5773:5779   */\n      dup5\n        /* \"#utility.yul\":5729:5800   */\n      tag_85\n      jump\t// in\n    tag_111:\n        /* \"#utility.yul\":5683:5807   */\n      swap3\n      swap2\n      pop\n      pop\n      jump\t// out\n        /* \"#utility.yul\":5813:6588   */\n    tag_25:\n      0x00\n        /* \"#utility.yul\":6084:6087   */\n      0xc0\n        /* \"#utility.yul\":6073:6082   */\n      dup3\n        /* \"#utility.yul\":6069:6088   */\n      add\n        /* \"#utility.yul\":6061:6088   */\n      swap1\n      pop\n        /* \"#utility.yul\":6098:6169   */\n      tag_113\n        /* \"#utility.yul\":6166:6167   */\n      0x00\n        /* \"#utility.yul\":6155:6164   */\n      dup4\n        /* \"#utility.yul\":6151:6168   */\n      add\n        /* \"#utility.yul\":6142:6148   */\n      dup10\n        /* \"#utility.yul\":6098:6169   */\n      tag_85\n      jump\t// in\n    tag_113:\n        /* \"#utility.yul\":6179:6251   */\n      tag_114\n        /* \"#utility.yul\":6247:6249   */\n      0x20\n        /* \"#utility.yul\":6236:6245   */\n      dup4\n        /* \"#utility.yul\":6232:6250   */\n      add\n        /* \"#utility.yul\":6223:6229   */\n      dup9\n        /* \"#utility.yul\":6179:6251   */\n      tag_85\n      jump\t// in\n    tag_114:\n        /* \"#utility.yul\":6261:6333   */\n      tag_115\n        /* \"#utility.yul\":6329:6331   */\n      0x40\n        /* \"#utility.yul\":6318:6327   */\n      dup4\n        /* \"#utility.yul\":6314:6332   */\n      add\n        /* \"#utility.yul\":6305:6311   */\n      dup8\n        /* \"#utility.yul\":6261:6333   */\n      tag_85\n      jump\t// in\n    tag_115:\n        /* \"#utility.yul\":6343:6415   */\n      tag_116\n        /* \"#utility.yul\":6411:6413   */\n      0x60\n        /* \"#utility.yul\":6400:6409   */\n      dup4\n        /* \"#utility.yul\":6396:6414   */\n      add\n        /* \"#utility.yul\":6387:6393   */\n      dup7\n        /* \"#utility.yul\":6343:6415   */\n      tag_85\n      jump\t// in\n    tag_116:\n        /* \"#utility.yul\":6425:6498   */\n      tag_117\n        /* \"#utility.yul\":6493:6496   */\n      0x80\n        /* \"#utility.yul\":6482:6491   */\n      dup4\n        /* \"#utility.yul\":6478:6497   */\n      add\n        /* \"#utility.yul\":6469:6475   */\n      dup6\n        /* \"#utility.yul\":6425:6498   */\n      tag_85\n      jump\t// in\n    tag_117:\n        /* \"#utility.yul\":6508:6581   */\n      tag_118\n        /* \"#utility.yul\":6576:6579   */\n      0xa0\n        /* \"#utility.yul\":6565:6574   */\n      dup4\n        /* \"#utility.yul\":6561:6580   */\n      add\n        /* \"#utility.yul\":6552:6558   */\n      dup5\n        /* \"#utility.yul\":6508:6581   */\n      tag_85\n      jump\t// in\n    tag_118:\n        /* \"#utility.yul\":6051:6588   */\n      swap8\n      swap7\n      pop\n      pop\n      pop\n      pop\n      pop\n      pop\n      pop\n      jump\t// out\n        /* \"#utility.yul\":6594:6877   */\n    tag_38:\n      0x00\n        /* \"#utility.yul\":6660:6662   */\n      0x40\n        /* \"#utility.yul\":6654:6663   */\n      mload\n        /* \"#utility.yul\":6644:6663   */\n      swap1\n      pop\n        /* \"#utility.yul\":6702:6706   */\n      dup2\n        /* \"#utility.yul\":6694:6700   */\n      dup2\n        /* \"#utility.yul\":6690:6707   */\n      add\n        /* \"#utility.yul\":6809:6815   */\n      dup2\n        /* \"#utility.yul\":6797:6807   */\n      dup2\n        /* \"#utility.yul\":6794:6816   */\n      lt\n        /* \"#utility.yul\":6773:6791   */\n      0xffffffffffffffff\n        /* \"#utility.yul\":6761:6771   */\n      dup3\n        /* \"#utility.yul\":6758:6792   */\n      gt\n        /* \"#utility.yul\":6755:6817   */\n      or\n        /* \"#utility.yul\":6752:6754   */\n      iszero\n      tag_120\n      jumpi\n        /* \"#utility.yul\":6820:6838   */\n      tag_121\n      tag_122\n      jump\t// in\n    tag_121:\n        /* \"#utility.yul\":6752:6754   */\n    tag_120:\n        /* \"#utility.yul\":6860:6870   */\n      dup1\n        /* \"#utility.yul\":6856:6858   */\n      0x40\n        /* \"#utility.yul\":6849:6871   */\n      mstore\n        /* \"#utility.yul\":6634:6877   */\n      pop\n      swap2\n      swap1\n      pop\n      jump\t// out\n        /* \"#utility.yul\":6883:7132   */\n    tag_37:\n      0x00\n        /* \"#utility.yul\":7048:7066   */\n      0xffffffffffffffff\n        /* \"#utility.yul\":7040:7046   */\n      dup3\n        /* \"#utility.yul\":7037:7067   */\n      gt\n        /* \"#utility.yul\":7034:7036   */\n      iszero\n      tag_124\n      jumpi\n        /* \"#utility.yul\":7070:7088   */\n      tag_125\n      tag_122\n      jump\t// in\n    tag_125:\n        /* \"#utility.yul\":7034:7036   */\n    tag_124:\n        /* \"#utility.yul\":7120:7124   */\n      0x20\n        /* \"#utility.yul\":7112:7118   */\n      dup3\n        /* \"#utility.yul\":7108:7125   */\n      mul\n        /* \"#utility.yul\":7100:7125   */\n      swap1\n      pop\n        /* \"#utility.yul\":6963:7132   */\n      swap2\n      swap1\n      pop\n      jump\t// out\n        /* \"#utility.yul\":7138:7234   */\n    tag_126:\n      0x00\n        /* \"#utility.yul\":7204:7228   */\n      tag_128\n        /* \"#utility.yul\":7222:7227   */\n      dup3\n        /* \"#utility.yul\":7204:7228   */\n      tag_129\n      jump\t// in\n    tag_128:\n        /* \"#utility.yul\":7193:7228   */\n      swap1\n      pop\n        /* \"#utility.yul\":7183:7234   */\n      swap2\n      swap1\n      pop\n      jump\t// out\n        /* \"#utility.yul\":7240:7344   */\n    tag_76:\n      0x00\n        /* \"#utility.yul\":7314:7338   */\n      tag_131\n        /* \"#utility.yul\":7332:7337   */\n      dup3\n        /* \"#utility.yul\":7314:7338   */\n      tag_129\n      jump\t// in\n    tag_131:\n        /* \"#utility.yul\":7303:7338   */\n      swap1\n      pop\n        /* \"#utility.yul\":7293:7344   */\n      swap2\n      swap1\n      pop\n      jump\t// out\n        /* \"#utility.yul\":7350:7440   */\n    tag_80:\n      0x00\n        /* \"#utility.yul\":7427:7432   */\n      dup2\n        /* \"#utility.yul\":7420:7433   */\n      iszero\n        /* \"#utility.yul\":7413:7434   */\n      iszero\n        /* \"#utility.yul\":7402:7434   */\n      swap1\n      pop\n        /* \"#utility.yul\":7392:7440   */\n      swap2\n      swap1\n      pop\n      jump\t// out\n        /* \"#utility.yul\":7446:7555   */\n    tag_133:\n      0x00\n        /* \"#utility.yul\":7525:7549   */\n      tag_135\n        /* \"#utility.yul\":7543:7548   */\n      dup3\n        /* \"#utility.yul\":7525:7549   */\n      tag_126\n      jump\t// in\n    tag_135:\n        /* \"#utility.yul\":7514:7549   */\n      swap1\n      pop\n        /* \"#utility.yul\":7504:7555   */\n      swap2\n      swap1\n      pop\n      jump\t// out\n        /* \"#utility.yul\":7561:7687   */\n    tag_129:\n      0x00\n        /* \"#utility.yul\":7638:7680   */\n      0xffffffffffffffffffffffffffffffffffffffff\n        /* \"#utility.yul\":7631:7636   */\n      dup3\n        /* \"#utility.yul\":7627:7681   */\n      and\n        /* \"#utility.yul\":7616:7681   */\n      swap1\n      pop\n        /* \"#utility.yul\":7606:7687   */\n      swap2\n      swap1\n      pop\n      jump\t// out\n        /* \"#utility.yul\":7693:7770   */\n    tag_88:\n      0x00\n        /* \"#utility.yul\":7759:7764   */\n      dup2\n        /* \"#utility.yul\":7748:7764   */\n      swap1\n      pop\n        /* \"#utility.yul\":7738:7770   */\n      swap2\n      swap1\n      pop\n      jump\t// out\n        /* \"#utility.yul\":7776:7928   */\n    tag_84:\n      0x00\n        /* \"#utility.yul\":7872:7922   */\n      tag_139\n        /* \"#utility.yul\":7916:7921   */\n      dup3\n        /* \"#utility.yul\":7872:7922   */\n      tag_140\n      jump\t// in\n    tag_139:\n        /* \"#utility.yul\":7859:7922   */\n      swap1\n      pop\n        /* \"#utility.yul\":7849:7928   */\n      swap2\n      swap1\n      pop\n      jump\t// out\n        /* \"#utility.yul\":7934:8060   */\n    tag_140:\n      0x00\n        /* \"#utility.yul\":8030:8054   */\n      tag_142\n        /* \"#utility.yul\":8048:8053   */\n      dup3\n        /* \"#utility.yul\":8030:8054   */\n      tag_129\n      jump\t// in\n    tag_142:\n        /* \"#utility.yul\":8017:8054   */\n      swap1\n      pop\n        /* \"#utility.yul\":8007:8060   */\n      swap2\n      swap1\n      pop\n      jump\t// out\n        /* \"#utility.yul\":8066:8246   */\n    tag_122:\n        /* \"#utility.yul\":8114:8191   */\n      0x4e487b7100000000000000000000000000000000000000000000000000000000\n        /* \"#utility.yul\":8111:8112   */\n      0x00\n        /* \"#utility.yul\":8104:8192   */\n      mstore\n        /* \"#utility.yul\":8211:8215   */\n      0x41\n        /* \"#utility.yul\":8208:8209   */\n      0x04\n        /* \"#utility.yul\":8201:8216   */\n      mstore\n        /* \"#utility.yul\":8235:8239   */\n      0x24\n        /* \"#utility.yul\":8232:8233   */\n      0x00\n        /* \"#utility.yul\":8225:8240   */\n      revert\n        /* \"#utility.yul\":8252:8374   */\n    tag_48:\n        /* \"#utility.yul\":8325:8349   */\n      tag_145\n        /* \"#utility.yul\":8343:8348   */\n      dup2\n        /* \"#utility.yul\":8325:8349   */\n      tag_126\n      jump\t// in\n    tag_145:\n        /* \"#utility.yul\":8318:8323   */\n      dup2\n        /* \"#utility.yul\":8315:8350   */\n      eq\n        /* \"#utility.yul\":8305:8307   */\n      tag_146\n      jumpi\n        /* \"#utility.yul\":8364:8365   */\n      0x00\n        /* \"#utility.yul\":8361:8362   */\n      dup1\n        /* \"#utility.yul\":8354:8366   */\n      revert\n        /* \"#utility.yul\":8305:8307   */\n    tag_146:\n        /* \"#utility.yul\":8295:8374   */\n      pop\n      jump\t// out\n        /* \"#utility.yul\":8380:8518   */\n    tag_52:\n        /* \"#utility.yul\":8461:8493   */\n      tag_148\n        /* \"#utility.yul\":8487:8492   */\n      dup2\n        /* \"#utility.yul\":8461:8493   */\n      tag_76\n      jump\t// in\n    tag_148:\n        /* \"#utility.yul\":8454:8459   */\n      dup2\n        /* \"#utility.yul\":8451:8494   */\n      eq\n        /* \"#utility.yul\":8441:8443   */\n      tag_149\n      jumpi\n        /* \"#utility.yul\":8508:8509   */\n      0x00\n        /* \"#utility.yul\":8505:8506   */\n      dup1\n        /* \"#utility.yul\":8498:8510   */\n      revert\n        /* \"#utility.yul\":8441:8443   */\n    tag_149:\n        /* \"#utility.yul\":8431:8518   */\n      pop\n      jump\t// out\n        /* \"#utility.yul\":8524:8672   */\n    tag_60:\n        /* \"#utility.yul\":8610:8647   */\n      tag_151\n        /* \"#utility.yul\":8641:8646   */\n      dup2\n        /* \"#utility.yul\":8610:8647   */\n      tag_133\n      jump\t// in\n    tag_151:\n        /* \"#utility.yul\":8603:8608   */\n      dup2\n        /* \"#utility.yul\":8600:8648   */\n      eq\n        /* \"#utility.yul\":8590:8592   */\n      tag_152\n      jumpi\n        /* \"#utility.yul\":8662:8663   */\n      0x00\n        /* \"#utility.yul\":8659:8660   */\n      dup1\n        /* \"#utility.yul\":8652:8664   */\n      revert\n        /* \"#utility.yul\":8590:8592   */\n    tag_152:\n        /* \"#utility.yul\":8580:8672   */\n      pop\n      jump\t// out\n        /* \"#utility.yul\":8678:8800   */\n    tag_63:\n        /* \"#utility.yul\":8751:8775   */\n      tag_154\n        /* \"#utility.yul\":8769:8774   */\n      dup2\n        /* \"#utility.yul\":8751:8775   */\n      tag_88\n      jump\t// in\n    tag_154:\n        /* \"#utility.yul\":8744:8749   */\n      dup2\n        /* \"#utility.yul\":8741:8776   */\n      eq\n        /* \"#utility.yul\":8731:8733   */\n      tag_155\n      jumpi\n        /* \"#utility.yul\":8790:8791   */\n      0x00\n        /* \"#utility.yul\":8787:8788   */\n      dup1\n        /* \"#utility.yul\":8780:8792   */\n      revert\n        /* \"#utility.yul\":8731:8733   */\n    tag_155:\n        /* \"#utility.yul\":8721:8800   */\n      pop\n      jump\t// out\n\n    auxdata: 0xa2646970667358221220d35d8d24b278718d0d2c9f72a648369c8b98c4f126bea481ed97939d4881274f64736f6c63430008000033\n}\n",
				"bytecode": {
					"linkReferences": {},
					"object": "608060405234801561001057600080fd5b5061085c806100206000396000f3fe608060405234801561001057600080fd5b50600436106100575760003560e01c806318856a2f1461005c57806356c5f349146100855780638f1eae4c146100b5578063acfb2355146100d1578063e2d3f423146100f4575b600080fd5b61006461012a565b60405161007c9c9b9a9998979695949392919061050f565b60405180910390f35b61009f600480360381019061009a9190610446565b6101d8565b6040516100ac9190610638565b60405180910390f35b6100cf60048036038101906100ca919061046f565b6101f0565b005b6100d96102c2565b6040516100eb96959493929190610653565b60405180910390f35b61010e60048036038101906101099190610446565b6102ec565b60405161012197969594939291906105c9565b60405180910390f35b60088060000160009054906101000a900473ffffffffffffffffffffffffffffffffffffffff16908060010160009054906101000a900473ffffffffffffffffffffffffffffffffffffffff16908060020160009054906101000a900473ffffffffffffffffffffffffffffffffffffffff169080600301549080600401549080600501549080600601549080600701549080600801549080600901549080600a01549080600b015490508c565b60016020528060005260406000206000915090505481565b83600860000160006101000a81548173ffffffffffffffffffffffffffffffffffffffff021916908373ffffffffffffffffffffffffffffffffffffffff16021790555082600860010160006101000a81548173ffffffffffffffffffffffffffffffffffffffff021916908373ffffffffffffffffffffffffffffffffffffffff16021790555081600860020160006101000a81548173ffffffffffffffffffffffffffffffffffffffff021916908373ffffffffffffffffffffffffffffffffffffffff16021790555050505050565b60028060000154908060010154908060020154908060030154908060040154908060050154905086565b60006020528060005260406000206000915090508060000160009054906101000a900473ffffffffffffffffffffffffffffffffffffffff16908060010154908060020154908060030154908060040154908060050160009054906101000a900460ff16908060050160019054906101000a900460ff16905087565b600061037b610376846106e5565b6106b4565b9050808285602086028201111561039157600080fd5b60005b858110156103c157816103a78882610431565b845260208401935060208301925050600181019050610394565b5050509392505050565b6000813590506103da816107ca565b92915050565b6000813590506103ef816107e1565b92915050565b600082601f83011261040657600080fd5b6009610413848285610368565b91505092915050565b60008135905061042b816107f8565b92915050565b6000813590506104408161080f565b92915050565b60006020828403121561045857600080fd5b6000610466848285016103cb565b91505092915050565b600080600080610180858703121561048657600080fd5b6000610494878288016103e0565b94505060206104a58782880161041c565b93505060406104b68782880161041c565b92505060606104c7878288016103f5565b91505092959194509250565b6104dc8161071d565b82525050565b6104eb8161072f565b82525050565b6104fa81610777565b82525050565b6105098161076d565b82525050565b600061018082019050610525600083018f6104d3565b610532602083018e6104f1565b61053f604083018d6104f1565b61054c606083018c610500565b610559608083018b610500565b61056660a083018a610500565b61057360c0830189610500565b61058060e0830188610500565b61058e610100830187610500565b61059c610120830186610500565b6105aa610140830185610500565b6105b8610160830184610500565b9d9c50505050505050505050505050565b600060e0820190506105de600083018a6104d3565b6105eb6020830189610500565b6105f86040830188610500565b6106056060830187610500565b6106126080830186610500565b61061f60a08301856104e2565b61062c60c08301846104e2565b98975050505050505050565b600060208201905061064d6000830184610500565b92915050565b600060c0820190506106686000830189610500565b6106756020830188610500565b6106826040830187610500565b61068f6060830186610500565b61069c6080830185610500565b6106a960a0830184610500565b979650505050505050565b6000604051905081810181811067ffffffffffffffff821117156106db576106da61079b565b5b8060405250919050565b600067ffffffffffffffff821115610700576106ff61079b565b5b602082029050919050565b60006107168261074d565b9050919050565b60006107288261074d565b9050919050565b60008115159050919050565b60006107468261070b565b9050919050565b600073ffffffffffffffffffffffffffffffffffffffff82169050919050565b6000819050919050565b600061078282610789565b9050919050565b60006107948261074d565b9050919050565b7f4e487b7100000000000000000000000000000000000000000000000000000000600052604160045260246000fd5b6107d38161070b565b81146107de57600080fd5b50565b6107ea8161071d565b81146107f557600080fd5b50565b6108018161073b565b811461080c57600080fd5b50565b6108188161076d565b811461082357600080fd5b5056fea2646970667358221220d35d8d24b278718d0d2c9f72a648369c8b98c4f126bea481ed97939d4881274f64736f6c63430008000033",
					"opcodes": "PUSH1 0x80 PUSH1 0x40 MSTORE CALLVALUE DUP1 ISZERO PUSH2 0x10 JUMPI PUSH1 0x0 DUP1 REVERT JUMPDEST POP PUSH2 0x85C DUP1 PUSH2 0x20 PUSH1 0x0 CODECOPY PUSH1 0x0 RETURN INVALID PUSH1 0x80 PUSH1 0x40 MSTORE CALLVALUE DUP1 ISZERO PUSH2 0x10 JUMPI PUSH1 0x0 DUP1 REVERT JUMPDEST POP PUSH1 0x4 CALLDATASIZE LT PUSH2 0x57 JUMPI PUSH1 0x0 CALLDATALOAD PUSH1 0xE0 SHR DUP1 PUSH4 0x18856A2F EQ PUSH2 0x5C JUMPI DUP1 PUSH4 0x56C5F349 EQ PUSH2 0x85 JUMPI DUP1 PUSH4 0x8F1EAE4C EQ PUSH2 0xB5 JUMPI DUP1 PUSH4 0xACFB2355 EQ PUSH2 0xD1 JUMPI DUP1 PUSH4 0xE2D3F423 EQ PUSH2 0xF4 JUMPI JUMPDEST PUSH1 0x0 DUP1 REVERT JUMPDEST PUSH2 0x64 PUSH2 0x12A JUMP JUMPDEST PUSH1 0x40 MLOAD PUSH2 0x7C SWAP13 SWAP12 SWAP11 SWAP10 SWAP9 SWAP8 SWAP7 SWAP6 SWAP5 SWAP4 SWAP3 SWAP2 SWAP1 PUSH2 0x50F JUMP JUMPDEST PUSH1 0x40 MLOAD DUP1 SWAP2 SUB SWAP1 RETURN JUMPDEST PUSH2 0x9F PUSH1 0x4 DUP1 CALLDATASIZE SUB DUP2 ADD SWAP1 PUSH2 0x9A SWAP2 SWAP1 PUSH2 0x446 JUMP JUMPDEST PUSH2 0x1D8 JUMP JUMPDEST PUSH1 0x40 MLOAD PUSH2 0xAC SWAP2 SWAP1 PUSH2 0x638 JUMP JUMPDEST PUSH1 0x40 MLOAD DUP1 SWAP2 SUB SWAP1 RETURN JUMPDEST PUSH2 0xCF PUSH1 0x4 DUP1 CALLDATASIZE SUB DUP2 ADD SWAP1 PUSH2 0xCA SWAP2 SWAP1 PUSH2 0x46F JUMP JUMPDEST PUSH2 0x1F0 JUMP JUMPDEST STOP JUMPDEST PUSH2 0xD9 PUSH2 0x2C2 JUMP JUMPDEST PUSH1 0x40 MLOAD PUSH2 0xEB SWAP7 SWAP6 SWAP5 SWAP4 SWAP3 SWAP2 SWAP1 PUSH2 0x653 JUMP JUMPDEST PUSH1 0x40 MLOAD DUP1 SWAP2 SUB SWAP1 RETURN JUMPDEST PUSH2 0x10E PUSH1 0x4 DUP1 CALLDATASIZE SUB DUP2 ADD SWAP1 PUSH2 0x109 SWAP2 SWAP1 PUSH2 0x446 JUMP JUMPDEST PUSH2 0x2EC JUMP JUMPDEST PUSH1 0x40 MLOAD PUSH2 0x121 SWAP8 SWAP7 SWAP6 SWAP5 SWAP4 SWAP3 SWAP2 SWAP1 PUSH2 0x5C9 JUMP JUMPDEST PUSH1 0x40 MLOAD DUP1 SWAP2 SUB SWAP1 RETURN JUMPDEST PUSH1 0x8 DUP1 PUSH1 0x0 ADD PUSH1 0x0 SWAP1 SLOAD SWAP1 PUSH2 0x100 EXP SWAP1 DIV PUSH20 0xFFFFFFFFFFFFFFFFFFFFFFFFFFFFFFFFFFFFFFFF AND SWAP1 DUP1 PUSH1 0x1 ADD PUSH1 0x0 SWAP1 SLOAD SWAP1 PUSH2 0x100 EXP SWAP1 DIV PUSH20 0xFFFFFFFFFFFFFFFFFFFFFFFFFFFFFFFFFFFFFFFF AND SWAP1 DUP1 PUSH1 0x2 ADD PUSH1 0x0 SWAP1 SLOAD SWAP1 PUSH2 0x100 EXP SWAP1 DIV PUSH20 0xFFFFFFFFFFFFFFFFFFFFFFFFFFFFFFFFFFFFFFFF AND SWAP1 DUP1 PUSH1 0x3 ADD SLOAD SWAP1 DUP1 PUSH1 0x4 ADD SLOAD SWAP1 DUP1 PUSH1 0x5 ADD SLOAD SWAP1 DUP1 PUSH1 0x6 ADD SLOAD SWAP1 DUP1 PUSH1 0x7 ADD SLOAD SWAP1 DUP1 PUSH1 0x8 ADD SLOAD SWAP1 DUP1 PUSH1 0x9 ADD SLOAD SWAP1 DUP1 PUSH1 0xA ADD SLOAD SWAP1 DUP1 PUSH1 0xB ADD SLOAD SWAP1 POP DUP13 JUMP JUMPDEST PUSH1 0x1 PUSH1 0x20 MSTORE DUP1 PUSH1 0x0 MSTORE PUSH1 0x40 PUSH1 0x0 KECCAK256 PUSH1 0x0 SWAP2 POP SWAP1 POP SLOAD DUP2 JUMP JUMPDEST DUP4 PUSH1 0x8 PUSH1 0x0 ADD PUSH1 0x0 PUSH2 0x100 EXP DUP2 SLOAD DUP2 PUSH20 0xFFFFFFFFFFFFFFFFFFFFFFFFFFFFFFFFFFFFFFFF MUL NOT AND SWAP1 DUP4 PUSH20 0xFFFFFFFFFFFFFFFFFFFFFFFFFFFFFFFFFFFFFFFF AND MUL OR SWAP1 SSTORE POP DUP3 PUSH1 0x8 PUSH1 0x1 ADD PUSH1 0x0 PUSH2 0x100 EXP DUP2 SLOAD DUP2 PUSH20 0xFFFFFFFFFFFFFFFFFFFFFFFFFFFFFFFFFFFFFFFF MUL NOT AND SWAP1 DUP4 PUSH20 0xFFFFFFFFFFFFFFFFFFFFFFFFFFFFFFFFFFFFFFFF AND MUL OR SWAP1 SSTORE POP DUP2 PUSH1 0x8 PUSH1 0x2 ADD PUSH1 0x0 PUSH2 0x100 EXP DUP2 SLOAD DUP2 PUSH20 0xFFFFFFFFFFFFFFFFFFFFFFFFFFFFFFFFFFFFFFFF MUL NOT AND SWAP1 DUP4 PUSH20 0xFFFFFFFFFFFFFFFFFFFFFFFFFFFFFFFFFFFFFFFF AND MUL OR SWAP1 SSTORE POP POP POP POP POP JUMP JUMPDEST PUSH1 0x2 DUP1 PUSH1 0x0 ADD SLOAD SWAP1 DUP1 PUSH1 0x1 ADD SLOAD SWAP1 DUP1 PUSH1 0x2 ADD SLOAD SWAP1 DUP1 PUSH1 0x3 ADD SLOAD SWAP1 DUP1 PUSH1 0x4 ADD SLOAD SWAP1 DUP1 PUSH1 0x5 ADD SLOAD SWAP1 POP DUP7 JUMP JUMPDEST PUSH1 0x0 PUSH1 0x20 MSTORE DUP1 PUSH1 0x0 MSTORE PUSH1 0x40 PUSH1 0x0 KECCAK256 PUSH1 0x0 SWAP2 POP SWAP1 POP DUP1 PUSH1 0x0 ADD PUSH1 0x0 SWAP1 SLOAD SWAP1 PUSH2 0x100 EXP SWAP1 DIV PUSH20 0xFFFFFFFFFFFFFFFFFFFFFFFFFFFFFFFFFFFFFFFF AND SWAP1 DUP1 PUSH1 0x1 ADD SLOAD SWAP1 DUP1 PUSH1 0x2 ADD SLOAD SWAP1 DUP1 PUSH1 0x3 ADD SLOAD SWAP1 DUP1 PUSH1 0x4 ADD SLOAD SWAP1 DUP1 PUSH1 0x5 ADD PUSH1 0x0 SWAP1 SLOAD SWAP1 PUSH2 0x100 EXP SWAP1 DIV PUSH1 0xFF AND SWAP1 DUP1 PUSH1 0x5 ADD PUSH1 0x1 SWAP1 SLOAD SWAP1 PUSH2 0x100 EXP SWAP1 DIV PUSH1 0xFF AND SWAP1 POP DUP8 JUMP JUMPDEST PUSH1 0x0 PUSH2 0x37B PUSH2 0x376 DUP5 PUSH2 0x6E5 JUMP JUMPDEST PUSH2 0x6B4 JUMP JUMPDEST SWAP1 POP DUP1 DUP3 DUP6 PUSH1 0x20 DUP7 MUL DUP3 ADD GT ISZERO PUSH2 0x391 JUMPI PUSH1 0x0 DUP1 REVERT JUMPDEST PUSH1 0x0 JUMPDEST DUP6 DUP2 LT ISZERO PUSH2 0x3C1 JUMPI DUP2 PUSH2 0x3A7 DUP9 DUP3 PUSH2 0x431 JUMP JUMPDEST DUP5 MSTORE PUSH1 0x20 DUP5 ADD SWAP4 POP PUSH1 0x20 DUP4 ADD SWAP3 POP POP PUSH1 0x1 DUP2 ADD SWAP1 POP PUSH2 0x394 JUMP JUMPDEST POP POP POP SWAP4 SWAP3 POP POP POP JUMP JUMPDEST PUSH1 0x0 DUP2 CALLDATALOAD SWAP1 POP PUSH2 0x3DA DUP2 PUSH2 0x7CA JUMP JUMPDEST SWAP3 SWAP2 POP POP JUMP JUMPDEST PUSH1 0x0 DUP2 CALLDATALOAD SWAP1 POP PUSH2 0x3EF DUP2 PUSH2 0x7E1 JUMP JUMPDEST SWAP3 SWAP2 POP POP JUMP JUMPDEST PUSH1 0x0 DUP3 PUSH1 0x1F DUP4 ADD SLT PUSH2 0x406 JUMPI PUSH1 0x0 DUP1 REVERT JUMPDEST PUSH1 0x9 PUSH2 0x413 DUP5 DUP3 DUP6 PUSH2 0x368 JUMP JUMPDEST SWAP2 POP POP SWAP3 SWAP2 POP POP JUMP JUMPDEST PUSH1 0x0 DUP2 CALLDATALOAD SWAP1 POP PUSH2 0x42B DUP2 PUSH2 0x7F8 JUMP JUMPDEST SWAP3 SWAP2 POP POP JUMP JUMPDEST PUSH1 0x0 DUP2 CALLDATALOAD SWAP1 POP PUSH2 0x440 DUP2 PUSH2 0x80F JUMP JUMPDEST SWAP3 SWAP2 POP POP JUMP JUMPDEST PUSH1 0x0 PUSH1 0x20 DUP3 DUP5 SUB SLT ISZERO PUSH2 0x458 JUMPI PUSH1 0x0 DUP1 REVERT JUMPDEST PUSH1 0x0 PUSH2 0x466 DUP5 DUP3 DUP6 ADD PUSH2 0x3CB JUMP JUMPDEST SWAP2 POP POP SWAP3 SWAP2 POP POP JUMP JUMPDEST PUSH1 0x0 DUP1 PUSH1 0x0 DUP1 PUSH2 0x180 DUP6 DUP8 SUB SLT ISZERO PUSH2 0x486 JUMPI PUSH1 0x0 DUP1 REVERT JUMPDEST PUSH1 0x0 PUSH2 0x494 DUP8 DUP3 DUP9 ADD PUSH2 0x3E0 JUMP JUMPDEST SWAP5 POP POP PUSH1 0x20 PUSH2 0x4A5 DUP8 DUP3 DUP9 ADD PUSH2 0x41C JUMP JUMPDEST SWAP4 POP POP PUSH1 0x40 PUSH2 0x4B6 DUP8 DUP3 DUP9 ADD PUSH2 0x41C JUMP JUMPDEST SWAP3 POP POP PUSH1 0x60 PUSH2 0x4C7 DUP8 DUP3 DUP9 ADD PUSH2 0x3F5 JUMP JUMPDEST SWAP2 POP POP SWAP3 SWAP6 SWAP2 SWAP5 POP SWAP3 POP JUMP JUMPDEST PUSH2 0x4DC DUP2 PUSH2 0x71D JUMP JUMPDEST DUP3 MSTORE POP POP JUMP JUMPDEST PUSH2 0x4EB DUP2 PUSH2 0x72F JUMP JUMPDEST DUP3 MSTORE POP POP JUMP JUMPDEST PUSH2 0x4FA DUP2 PUSH2 0x777 JUMP JUMPDEST DUP3 MSTORE POP POP JUMP JUMPDEST PUSH2 0x509 DUP2 PUSH2 0x76D JUMP JUMPDEST DUP3 MSTORE POP POP JUMP JUMPDEST PUSH1 0x0 PUSH2 0x180 DUP3 ADD SWAP1 POP PUSH2 0x525 PUSH1 0x0 DUP4 ADD DUP16 PUSH2 0x4D3 JUMP JUMPDEST PUSH2 0x532 PUSH1 0x20 DUP4 ADD DUP15 PUSH2 0x4F1 JUMP JUMPDEST PUSH2 0x53F PUSH1 0x40 DUP4 ADD DUP14 PUSH2 0x4F1 JUMP JUMPDEST PUSH2 0x54C PUSH1 0x60 DUP4 ADD DUP13 PUSH2 0x500 JUMP JUMPDEST PUSH2 0x559 PUSH1 0x80 DUP4 ADD DUP12 PUSH2 0x500 JUMP JUMPDEST PUSH2 0x566 PUSH1 0xA0 DUP4 ADD DUP11 PUSH2 0x500 JUMP JUMPDEST PUSH2 0x573 PUSH1 0xC0 DUP4 ADD DUP10 PUSH2 0x500 JUMP JUMPDEST PUSH2 0x580 PUSH1 0xE0 DUP4 ADD DUP9 PUSH2 0x500 JUMP JUMPDEST PUSH2 0x58E PUSH2 0x100 DUP4 ADD DUP8 PUSH2 0x500 JUMP JUMPDEST PUSH2 0x59C PUSH2 0x120 DUP4 ADD DUP7 PUSH2 0x500 JUMP JUMPDEST PUSH2 0x5AA PUSH2 0x140 DUP4 ADD DUP6 PUSH2 0x500 JUMP JUMPDEST PUSH2 0x5B8 PUSH2 0x160 DUP4 ADD DUP5 PUSH2 0x500 JUMP JUMPDEST SWAP14 SWAP13 POP POP POP POP POP POP POP POP POP POP POP POP POP JUMP JUMPDEST PUSH1 0x0 PUSH1 0xE0 DUP3 ADD SWAP1 POP PUSH2 0x5DE PUSH1 0x0 DUP4 ADD DUP11 PUSH2 0x4D3 JUMP JUMPDEST PUSH2 0x5EB PUSH1 0x20 DUP4 ADD DUP10 PUSH2 0x500 JUMP JUMPDEST PUSH2 0x5F8 PUSH1 0x40 DUP4 ADD DUP9 PUSH2 0x500 JUMP JUMPDEST PUSH2 0x605 PUSH1 0x60 DUP4 ADD DUP8 PUSH2 0x500 JUMP JUMPDEST PUSH2 0x612 PUSH1 0x80 DUP4 ADD DUP7 PUSH2 0x500 JUMP JUMPDEST PUSH2 0x61F PUSH1 0xA0 DUP4 ADD DUP6 PUSH2 0x4E2 JUMP JUMPDEST PUSH2 0x62C PUSH1 0xC0 DUP4 ADD DUP5 PUSH2 0x4E2 JUMP JUMPDEST SWAP9 SWAP8 POP POP POP POP POP POP POP POP JUMP JUMPDEST PUSH1 0x0 PUSH1 0x20 DUP3 ADD SWAP1 POP PUSH2 0x64D PUSH1 0x0 DUP4 ADD DUP5 PUSH2 0x500 JUMP JUMPDEST SWAP3 SWAP2 POP POP JUMP JUMPDEST PUSH1 0x0 PUSH1 0xC0 DUP3 ADD SWAP1 POP PUSH2 0x668 PUSH1 0x0 DUP4 ADD DUP10 PUSH2 0x500 JUMP JUMPDEST PUSH2 0x675 PUSH1 0x20 DUP4 ADD DUP9 PUSH2 0x500 JUMP JUMPDEST PUSH2 0x682 PUSH1 0x40 DUP4 ADD DUP8 PUSH2 0x500 JUMP JUMPDEST PUSH2 0x68F PUSH1 0x60 DUP4 ADD DUP7 PUSH2 0x500 JUMP JUMPDEST PUSH2 0x69C PUSH1 0x80 DUP4 ADD DUP6 PUSH2 0x500 JUMP JUMPDEST PUSH2 0x6A9 PUSH1 0xA0 DUP4 ADD DUP5 PUSH2 0x500 JUMP JUMPDEST SWAP8 SWAP7 POP POP POP POP POP POP POP JUMP JUMPDEST PUSH1 0x0 PUSH1 0x40 MLOAD SWAP1 POP DUP2 DUP2 ADD DUP2 DUP2 LT PUSH8 0xFFFFFFFFFFFFFFFF DUP3 GT OR ISZERO PUSH2 0x6DB JUMPI PUSH2 0x6DA PUSH2 0x79B JUMP JUMPDEST JUMPDEST DUP1 PUSH1 0x40 MSTORE POP SWAP2 SWAP1 POP JUMP JUMPDEST PUSH1 0x0 PUSH8 0xFFFFFFFFFFFFFFFF DUP3 GT ISZERO PUSH2 0x700 JUMPI PUSH2 0x6FF PUSH2 0x79B JUMP JUMPDEST JUMPDEST PUSH1 0x20 DUP3 MUL SWAP1 POP SWAP2 SWAP1 POP JUMP JUMPDEST PUSH1 0x0 PUSH2 0x716 DUP3 PUSH2 0x74D JUMP JUMPDEST SWAP1 POP SWAP2 SWAP1 POP JUMP JUMPDEST PUSH1 0x0 PUSH2 0x728 DUP3 PUSH2 0x74D JUMP JUMPDEST SWAP1 POP SWAP2 SWAP1 POP JUMP JUMPDEST PUSH1 0x0 DUP2 ISZERO ISZERO SWAP1 POP SWAP2 SWAP1 POP JUMP JUMPDEST PUSH1 0x0 PUSH2 0x746 DUP3 PUSH2 0x70B JUMP JUMPDEST SWAP1 POP SWAP2 SWAP1 POP JUMP JUMPDEST PUSH1 0x0 PUSH20 0xFFFFFFFFFFFFFFFFFFFFFFFFFFFFFFFFFFFFFFFF DUP3 AND SWAP1 POP SWAP2 SWAP1 POP JUMP JUMPDEST PUSH1 0x0 DUP2 SWAP1 POP SWAP2 SWAP1 POP JUMP JUMPDEST PUSH1 0x0 PUSH2 0x782 DUP3 PUSH2 0x789 JUMP JUMPDEST SWAP1 POP SWAP2 SWAP1 POP JUMP JUMPDEST PUSH1 0x0 PUSH2 0x794 DUP3 PUSH2 0x74D JUMP JUMPDEST SWAP1 POP SWAP2 SWAP1 POP JUMP JUMPDEST PUSH32 0x4E487B7100000000000000000000000000000000000000000000000000000000 PUSH1 0x0 MSTORE PUSH1 0x41 PUSH1 0x4 MSTORE PUSH1 0x24 PUSH1 0x0 REVERT JUMPDEST PUSH2 0x7D3 DUP2 PUSH2 0x70B JUMP JUMPDEST DUP2 EQ PUSH2 0x7DE JUMPI PUSH1 0x0 DUP1 REVERT JUMPDEST POP JUMP JUMPDEST PUSH2 0x7EA DUP2 PUSH2 0x71D JUMP JUMPDEST DUP2 EQ PUSH2 0x7F5 JUMPI PUSH1 0x0 DUP1 REVERT JUMPDEST POP JUMP JUMPDEST PUSH2 0x801 DUP2 PUSH2 0x73B JUMP JUMPDEST DUP2 EQ PUSH2 0x80C JUMPI PUSH1 0x0 DUP1 REVERT JUMPDEST POP JUMP JUMPDEST PUSH2 0x818 DUP2 PUSH2 0x76D JUMP JUMPDEST DUP2 EQ PUSH2 0x823 JUMPI PUSH1 0x0 DUP1 REVERT JUMPDEST POP JUMP INVALID LOG2 PUSH5 0x6970667358 0x22 SLT KECCAK256 0xD3 0x5D DUP14 0x24 0xB2 PUSH25 0x718D0D2C9F72A648369C8B98C4F126BEA481ED97939D488127 0x4F PUSH5 0x736F6C6343 STOP ADDMOD STOP STOP CALLER "
				},
				"gasEstimates": {
					"creation": {
						"codeDepositCost": "428000",
						"executionCost": "461",
						"totalCost": "428461"
					},
					"external": {
						"buyerInfo(address)": "infinite",
						"initialSaleInfor(address,address,address,uint256[9])": "infinite",
						"presaleStatus()": "infinite",
						"saleInfor()": "infinite",
						"userFee(address)": "1514"
					}
				},
				"methodIdentifiers": {
					"buyerInfo(address)": "e2d3f423",
					"initialSaleInfor(address,address,address,uint256[9])": "8f1eae4c",
					"presaleStatus()": "acfb2355",
					"saleInfor()": "18856a2f",
					"userFee(address)": "56c5f349"
				}
			},
			"storageLayout": {
				"storage": [
					{
						"astId": 140,
						"contract": "Ethereum/Presale.sol:Presale",
						"label": "buyerInfo",
						"offset": 0,
						"slot": "0",
						"type": "t_mapping(t_address,t_struct(BuyerInfo)122_storage)"
					},
					{
						"astId": 144,
						"contract": "Ethereum/Presale.sol:Presale",
						"label": "userFee",
						"offset": 0,
						"slot": "1",
						"type": "t_mapping(t_address,t_uint256)"
					},
					{
						"astId": 147,
						"contract": "Ethereum/Presale.sol:Presale",
						"label": "presaleStatus",
						"offset": 0,
						"slot": "2",
						"type": "t_struct(PresaleStatus)135_storage"
					},
					{
						"astId": 150,
						"contract": "Ethereum/Presale.sol:Presale",
						"label": "saleInfor",
						"offset": 0,
						"slot": "8",
						"type": "t_struct(SaleInfor)107_storage"
					}
				],
				"types": {
					"t_address": {
						"encoding": "inplace",
						"label": "address",
						"numberOfBytes": "20"
					},
					"t_address_payable": {
						"encoding": "inplace",
						"label": "address payable",
						"numberOfBytes": "20"
					},
					"t_bool": {
						"encoding": "inplace",
						"label": "bool",
						"numberOfBytes": "1"
					},
					"t_contract(IERC20)77": {
						"encoding": "inplace",
						"label": "contract IERC20",
						"numberOfBytes": "20"
					},
					"t_mapping(t_address,t_struct(BuyerInfo)122_storage)": {
						"encoding": "mapping",
						"key": "t_address",
						"label": "mapping(address => struct Presale.BuyerInfo)",
						"numberOfBytes": "32",
						"value": "t_struct(BuyerInfo)122_storage"
					},
					"t_mapping(t_address,t_uint256)": {
						"encoding": "mapping",
						"key": "t_address",
						"label": "mapping(address => uint256)",
						"numberOfBytes": "32",
						"value": "t_uint256"
					},
					"t_struct(BuyerInfo)122_storage": {
						"encoding": "inplace",
						"label": "struct Presale.BuyerInfo",
						"members": [
							{
								"astId": 109,
								"contract": "Ethereum/Presale.sol:Presale",
								"label": "buyer",
								"offset": 0,
								"slot": "0",
								"type": "t_address_payable"
							},
							{
								"astId": 111,
								"contract": "Ethereum/Presale.sol:Presale",
								"label": "baseDeposit",
								"offset": 0,
								"slot": "1",
								"type": "t_uint256"
							},
							{
								"astId": 113,
								"contract": "Ethereum/Presale.sol:Presale",
								"label": "tokenOwner",
								"offset": 0,
								"slot": "2",
								"type": "t_uint256"
							},
							{
								"astId": 115,
								"contract": "Ethereum/Presale.sol:Presale",
								"label": "lastWithDraw",
								"offset": 0,
								"slot": "3",
								"type": "t_uint256"
							},
							{
								"astId": 117,
								"contract": "Ethereum/Presale.sol:Presale",
								"label": "totalTokenWithDraw",
								"offset": 0,
								"slot": "4",
								"type": "t_uint256"
							},
							{
								"astId": 119,
								"contract": "Ethereum/Presale.sol:Presale",
								"label": "isRefund",
								"offset": 0,
								"slot": "5",
								"type": "t_bool"
							},
							{
								"astId": 121,
								"contract": "Ethereum/Presale.sol:Presale",
								"label": "isClaim",
								"offset": 1,
								"slot": "5",
								"type": "t_bool"
							}
						],
						"numberOfBytes": "192"
					},
					"t_struct(PresaleStatus)135_storage": {
						"encoding": "inplace",
						"label": "struct Presale.PresaleStatus",
						"members": [
							{
								"astId": 124,
								"contract": "Ethereum/Presale.sol:Presale",
								"label": "totalBaseCollected",
								"offset": 0,
								"slot": "0",
								"type": "t_uint256"
							},
							{
								"astId": 126,
								"contract": "Ethereum/Presale.sol:Presale",
								"label": "totalTokenSold",
								"offset": 0,
								"slot": "1",
								"type": "t_uint256"
							},
							{
								"astId": 128,
								"contract": "Ethereum/Presale.sol:Presale",
								"label": "totalTokenWithDraw",
								"offset": 0,
								"slot": "2",
								"type": "t_uint256"
							},
							{
								"astId": 130,
								"contract": "Ethereum/Presale.sol:Presale",
								"label": "totalBaseWithDraw",
								"offset": 0,
								"slot": "3",
								"type": "t_uint256"
							},
							{
								"astId": 132,
								"contract": "Ethereum/Presale.sol:Presale",
								"label": "numByer",
								"offset": 0,
								"slot": "4",
								"type": "t_uint256"
							},
							{
								"astId": 134,
								"contract": "Ethereum/Presale.sol:Presale",
								"label": "totalFee",
								"offset": 0,
								"slot": "5",
								"type": "t_uint256"
							}
						],
						"numberOfBytes": "192"
					},
					"t_struct(SaleInfor)107_storage": {
						"encoding": "inplace",
						"label": "struct Presale.SaleInfor",
						"members": [
							{
								"astId": 82,
								"contract": "Ethereum/Presale.sol:Presale",
								"label": "presaleOwner",
								"offset": 0,
								"slot": "0",
								"type": "t_address_payable"
							},
							{
								"astId": 85,
								"contract": "Ethereum/Presale.sol:Presale",
								"label": "saleToken",
								"offset": 0,
								"slot": "1",
								"type": "t_contract(IERC20)77"
							},
							{
								"astId": 88,
								"contract": "Ethereum/Presale.sol:Presale",
								"label": "baseToken",
								"offset": 0,
								"slot": "2",
								"type": "t_contract(IERC20)77"
							},
							{
								"astId": 90,
								"contract": "Ethereum/Presale.sol:Presale",
								"label": "tokenPrice",
								"offset": 0,
								"slot": "3",
								"type": "t_uint256"
							},
							{
								"astId": 92,
								"contract": "Ethereum/Presale.sol:Presale",
								"label": "startSale",
								"offset": 0,
								"slot": "4",
								"type": "t_uint256"
							},
							{
								"astId": 94,
								"contract": "Ethereum/Presale.sol:Presale",
								"label": "endSale",
								"offset": 0,
								"slot": "5",
								"type": "t_uint256"
							},
							{
								"astId": 96,
								"contract": "Ethereum/Presale.sol:Presale",
								"label": "valueSwapERC20",
								"offset": 0,
								"slot": "6",
								"type": "t_uint256"
							},
							{
								"astId": 98,
								"contract": "Ethereum/Presale.sol:Presale",
								"label": "feeTransaction",
								"offset": 0,
								"slot": "7",
								"type": "t_uint256"
							},
							{
								"astId": 100,
								"contract": "Ethereum/Presale.sol:Presale",
								"label": "minSpendPerBuyer",
								"offset": 0,
								"slot": "8",
								"type": "t_uint256"
							},
							{
								"astId": 102,
								"contract": "Ethereum/Presale.sol:Presale",
								"label": "maxSpendPerBuyer",
								"offset": 0,
								"slot": "9",
								"type": "t_uint256"
							},
							{
								"astId": 104,
								"contract": "Ethereum/Presale.sol:Presale",
								"label": "refundFee",
								"offset": 0,
								"slot": "10",
								"type": "t_uint256"
							},
							{
								"astId": 106,
								"contract": "Ethereum/Presale.sol:Presale",
								"label": "claimFee",
								"offset": 0,
								"slot": "11",
								"type": "t_uint256"
							}
						],
						"numberOfBytes": "384"
					},
					"t_uint256": {
						"encoding": "inplace",
						"label": "uint256",
						"numberOfBytes": "32"
					}
				}
			},
			"userdoc": {
				"kind": "user",
				"methods": {},
				"version": 1
			}
		}
	}
}