{
	"Ethereum/Presale.sol": {
		"Presale": {
			"abi": [
				{
					"inputs": [],
					"stateMutability": "payable",
					"type": "constructor"
				},
				{
					"anonymous": false,
					"inputs": [
						{
							"indexed": true,
							"internalType": "address",
							"name": "previousOwner",
							"type": "address"
						},
						{
							"indexed": true,
							"internalType": "address",
							"name": "newOwner",
							"type": "address"
						}
					],
					"name": "OwnershipTransferred",
					"type": "event"
				},
				{
					"inputs": [],
					"name": "WETH",
					"outputs": [
						{
							"internalType": "contract IERC20",
							"name": "",
							"type": "address"
						}
					],
					"stateMutability": "view",
					"type": "function"
				},
				{
					"inputs": [],
					"name": "backToken",
					"outputs": [],
					"stateMutability": "payable",
					"type": "function"
				},
				{
					"inputs": [
						{
							"internalType": "address",
							"name": "",
							"type": "address"
						}
					],
					"name": "buyerInfo",
					"outputs": [
						{
							"internalType": "uint256",
							"name": "baseDeposit",
							"type": "uint256"
						},
						{
							"internalType": "uint256",
							"name": "tokenOwner",
							"type": "uint256"
						},
						{
							"internalType": "uint256",
							"name": "lastWithDraw",
							"type": "uint256"
						},
						{
							"internalType": "uint256",
							"name": "totalTokenWithDraw",
							"type": "uint256"
						},
						{
							"internalType": "bool",
							"name": "isRefund",
							"type": "bool"
						},
						{
							"internalType": "bool",
							"name": "isClaim",
							"type": "bool"
						}
					],
					"stateMutability": "view",
					"type": "function"
				},
				{
					"inputs": [],
					"name": "checkAdminAddress",
					"outputs": [
						{
							"internalType": "bool",
							"name": "",
							"type": "bool"
						}
					],
					"stateMutability": "view",
					"type": "function"
				},
				{
					"inputs": [
						{
							"internalType": "uint256",
							"name": "_amount",
							"type": "uint256"
						}
					],
					"name": "deposit",
					"outputs": [],
					"stateMutability": "payable",
					"type": "function"
				},
				{
					"inputs": [],
					"name": "feeAnyone",
					"outputs": [
						{
							"internalType": "uint256",
							"name": "",
							"type": "uint256"
						}
					],
					"stateMutability": "view",
					"type": "function"
				},
				{
					"inputs": [
						{
							"internalType": "address",
							"name": "_address",
							"type": "address"
						}
					],
					"name": "getBalance",
					"outputs": [
						{
							"internalType": "uint256",
							"name": "",
							"type": "uint256"
						}
					],
					"stateMutability": "view",
					"type": "function"
				},
				{
					"inputs": [
						{
							"internalType": "address payable",
							"name": "_presaleOwner",
							"type": "address"
						},
						{
							"internalType": "contract ERC20",
							"name": "_saleToken",
							"type": "address"
						},
						{
							"internalType": "contract ERC20",
							"name": "_baseTOken",
							"type": "address"
						},
						{
							"internalType": "uint256[9]",
							"name": "datas",
							"type": "uint256[9]"
						}
					],
					"name": "initialSaleInfor",
					"outputs": [],
					"stateMutability": "nonpayable",
					"type": "function"
				},
				{
					"inputs": [],
					"name": "owner",
					"outputs": [
						{
							"internalType": "address",
							"name": "",
							"type": "address"
						}
					],
					"stateMutability": "view",
					"type": "function"
				},
				{
					"inputs": [],
					"name": "presaleStatus",
					"outputs": [
						{
							"internalType": "uint256",
							"name": "totalBaseCollected",
							"type": "uint256"
						},
						{
							"internalType": "uint256",
							"name": "totalTokenSold",
							"type": "uint256"
						},
						{
							"internalType": "uint256",
							"name": "totalTokenWithDraw",
							"type": "uint256"
						},
						{
							"internalType": "uint256",
							"name": "totalBaseWithDraw",
							"type": "uint256"
						},
						{
							"internalType": "uint256",
							"name": "numberBuyer",
							"type": "uint256"
						},
						{
							"internalType": "uint256",
							"name": "totalFee",
							"type": "uint256"
						}
					],
					"stateMutability": "view",
					"type": "function"
				},
				{
					"inputs": [],
					"name": "renounceOwnership",
					"outputs": [],
					"stateMutability": "nonpayable",
					"type": "function"
				},
				{
					"inputs": [],
					"name": "saleInfor",
					"outputs": [
						{
							"internalType": "address payable",
							"name": "presaleOwner",
							"type": "address"
						},
						{
							"internalType": "contract ERC20",
							"name": "saleToken",
							"type": "address"
						},
						{
							"internalType": "contract ERC20",
							"name": "baseToken",
							"type": "address"
						},
						{
							"internalType": "uint256",
							"name": "tokenPrice",
							"type": "uint256"
						},
						{
							"internalType": "uint256",
							"name": "startSale",
							"type": "uint256"
						},
						{
							"internalType": "uint256",
							"name": "endSale",
							"type": "uint256"
						},
						{
							"internalType": "uint256",
							"name": "minSpendPerBuyer",
							"type": "uint256"
						},
						{
							"internalType": "uint256",
							"name": "maxSpendPerBuyer",
							"type": "uint256"
						},
						{
							"internalType": "uint256",
							"name": "refundFee",
							"type": "uint256"
						},
						{
							"internalType": "uint256",
							"name": "claimFee",
							"type": "uint256"
						},
						{
							"internalType": "bool",
							"name": "saleIsBaseToken",
							"type": "bool"
						},
						{
							"internalType": "uint256",
							"name": "amountTokenForSale",
							"type": "uint256"
						}
					],
					"stateMutability": "view",
					"type": "function"
				},
				{
					"inputs": [],
					"name": "status",
					"outputs": [
						{
							"internalType": "uint256",
							"name": "",
							"type": "uint256"
						}
					],
					"stateMutability": "view",
					"type": "function"
				},
				{
					"inputs": [],
					"name": "totalFee",
					"outputs": [
						{
							"internalType": "uint256",
							"name": "",
							"type": "uint256"
						}
					],
					"stateMutability": "view",
					"type": "function"
				},
				{
					"inputs": [
						{
							"internalType": "address",
							"name": "newOwner",
							"type": "address"
						}
					],
					"name": "transferOwnership",
					"outputs": [],
					"stateMutability": "nonpayable",
					"type": "function"
				},
				{
					"inputs": [
						{
							"internalType": "address",
							"name": "",
							"type": "address"
						}
					],
					"name": "userFee",
					"outputs": [
						{
							"internalType": "uint256",
							"name": "",
							"type": "uint256"
						}
					],
					"stateMutability": "view",
					"type": "function"
				}
			],
			"devdoc": {
				"kind": "dev",
				"methods": {
					"owner()": {
						"details": "Returns the address of the current owner."
					},
					"renounceOwnership()": {
						"details": "Leaves the contract without owner. It will not be possible to call `onlyOwner` functions anymore. Can only be called by the current owner. NOTE: Renouncing ownership will leave the contract without an owner, thereby removing any functionality that is only available to the owner."
					},
					"transferOwnership(address)": {
						"details": "Transfers ownership of the contract to a new account (`newOwner`). Can only be called by the current owner."
					}
				},
				"version": 1
			},
			"evm": {
				"assembly": "    /* \"Ethereum/Presale.sol\":370:3179  contract Presale is ReentrancyGuard, Ownable{\r... */\n  mstore(0x40, 0x80)\n    /* \"Utils/ReentrancyGuard.sol\":1734:1735  1 */\n  0x01\n    /* \"Utils/ReentrancyGuard.sol\":1845:1852  _status */\n  0x00\n    /* \"Utils/ReentrancyGuard.sol\":1845:1867  _status = _NOT_ENTERED */\n  sstore\n    /* \"Utils/Ownable.sol\":942:974  _transferOwnership(_msgSender()) */\n  tag_6\n    /* \"Utils/Ownable.sol\":961:973  _msgSender() */\n  tag_7\n    /* \"Utils/Ownable.sol\":961:971  _msgSender */\n  tag_8\n    /* \"Utils/Ownable.sol\":961:973  _msgSender() */\n  jump\t// in\ntag_7:\n    /* \"Utils/Ownable.sol\":942:960  _transferOwnership */\n  tag_9\n    /* \"Utils/Ownable.sol\":942:974  _transferOwnership(_msgSender()) */\n  jump\t// in\ntag_6:\n    /* \"Ethereum/Presale.sol\":1969:1973  WETH */\n  0x17\n    /* \"Ethereum/Presale.sol\":1969:2025  WETH = ERC20(0xc778417E063141139Fce010982780140Aa0cD5Ab) */\n  dup1\n  sload\n    /* \"Ethereum/Presale.sol\":1982:2024  0xc778417E063141139Fce010982780140Aa0cD5Ab */\n  0xc778417e063141139fce010982780140aa0cd5ab\n  not(sub(shl(0xa0, 0x01), 0x01))\n    /* \"Ethereum/Presale.sol\":1969:2025  WETH = ERC20(0xc778417E063141139Fce010982780140Aa0cD5Ab) */\n  swap1\n  swap2\n  and\n  or\n  swap1\n  sstore\n    /* \"Ethereum/Presale.sol\":2036:2090  admins.add(0x6Ccb41eedA5a073076F3E7dC1614C185b5fA41eD) */\n  tag_11\n    /* \"Ethereum/Presale.sol\":2036:2042  admins */\n  0x19\n    /* \"Ethereum/Presale.sol\":2047:2089  0x6Ccb41eedA5a073076F3E7dC1614C185b5fA41eD */\n  0x6ccb41eeda5a073076f3e7dc1614c185b5fa41ed\n    /* \"Ethereum/Presale.sol\":2036:2046  admins.add */\n  tag_12\n  0x20\n  swap1\n  dup2\n  shl\n  tag_0_94\n  or\n    /* \"Ethereum/Presale.sol\":2036:2090  admins.add(0x6Ccb41eedA5a073076F3E7dC1614C185b5fA41eD) */\n  swap1\n  shr\n  jump\t// in\ntag_11:\n  pop\n    /* \"Ethereum/Presale.sol\":2101:2155  admins.add(0x4f0B12bBF40Fc182559822A5b1dB6D34dbC3E016) */\n  tag_13\n    /* \"Ethereum/Presale.sol\":2112:2154  0x4f0B12bBF40Fc182559822A5b1dB6D34dbC3E016 */\n  0x4f0b12bbf40fc182559822a5b1db6d34dbc3e016\n    /* \"Ethereum/Presale.sol\":2101:2107  admins */\n  0x19\n    /* \"Ethereum/Presale.sol\":2101:2111  admins.add */\n  or(tag_0_94, shl(0x20, tag_12))\n  swap1\n    /* \"Ethereum/Presale.sol\":2101:2155  admins.add(0x4f0B12bBF40Fc182559822A5b1dB6D34dbC3E016) */\n  swap2\n  swap1\n  0x20\n  shr\n  jump\t// in\ntag_13:\n  pop\n    /* \"Ethereum/Presale.sol\":2178:2180  20 */\n  0x14\n    /* \"Ethereum/Presale.sol\":2166:2175  feeAnyone */\n  0x18\n    /* \"Ethereum/Presale.sol\":2166:2180  feeAnyone = 20 */\n  sstore\n    /* \"Ethereum/Presale.sol\":370:3179  contract Presale is ReentrancyGuard, Ownable{\r... */\n  jump(tag_14)\n    /* \"Utils/Context.sol\":656:754  function _msgSender() internal view virtual returns (address) {\r... */\ntag_8:\n    /* \"Utils/Context.sol\":736:746  msg.sender */\n  caller\n    /* \"Utils/Context.sol\":656:754  function _msgSender() internal view virtual returns (address) {\r... */\n  swap1\n  jump\t// out\n    /* \"Utils/Ownable.sol\":2333:2524  function _transferOwnership(address newOwner) internal virtual {\r... */\ntag_9:\n    /* \"Utils/Ownable.sol\":2426:2432  _owner */\n  0x01\n  dup1\n  sload\n  sub(shl(0xa0, 0x01), 0x01)\n    /* \"Utils/Ownable.sol\":2443:2460  _owner = newOwner */\n  dup4\n  dup2\n  and\n  not(sub(shl(0xa0, 0x01), 0x01))\n  dup4\n  and\n  dup2\n  or\n  swap1\n  swap4\n  sstore\n    /* \"Utils/Ownable.sol\":2476:2516  OwnershipTransferred(oldOwner, newOwner) */\n  mload(0x40)\n    /* \"Utils/Ownable.sol\":2426:2432  _owner */\n  swap2\n  and\n  swap2\n    /* \"Utils/Ownable.sol\":2443:2460  _owner = newOwner */\n  swap1\n    /* \"Utils/Ownable.sol\":2426:2432  _owner */\n  dup3\n  swap1\n    /* \"Utils/Ownable.sol\":2476:2516  OwnershipTransferred(oldOwner, newOwner) */\n  0x8be0079c531659141344cd1fd0a4f28419497f9722a3daafe3b4186f6b6457e0\n  swap1\n    /* \"Utils/Ownable.sol\":2407:2423  address oldOwner */\n  0x00\n  swap1\n    /* \"Utils/Ownable.sol\":2476:2516  OwnershipTransferred(oldOwner, newOwner) */\n  log3\n    /* \"Utils/Ownable.sol\":2333:2524  function _transferOwnership(address newOwner) internal virtual {\r... */\n  pop\n  pop\n  jump\t// out\n    /* \"Utils/EnumerableSet.sol\":8259:8411  function add(AddressSet storage set, address value) internal returns (bool) {\r... */\ntag_12:\n    /* \"Utils/EnumerableSet.sol\":8329:8333  bool */\n  0x00\n    /* \"Utils/EnumerableSet.sol\":8353:8403  _add(set._inner, bytes32(uint256(uint160(value)))) */\n  tag_18\n    /* \"Utils/EnumerableSet.sol\":8358:8361  set */\n  dup4\n  sub(shl(0xa0, 0x01), 0x01)\n    /* \"Utils/EnumerableSet.sol\":8378:8401  uint256(uint160(value)) */\n  dup5\n  and\n    /* \"Utils/EnumerableSet.sol\":8353:8357  _add */\n  tag_19\n    /* \"Utils/EnumerableSet.sol\":8353:8403  _add(set._inner, bytes32(uint256(uint160(value)))) */\n  jump\t// in\ntag_18:\n    /* \"Utils/EnumerableSet.sol\":8346:8403  return _add(set._inner, bytes32(uint256(uint160(value)))) */\n  swap1\n  pop\n    /* \"Utils/EnumerableSet.sol\":8259:8411  function add(AddressSet storage set, address value) internal returns (bool) {\r... */\ntag_17:\n  swap3\n  swap2\n  pop\n  pop\n  jump\t// out\n    /* \"Utils/EnumerableSet.sol\":2174:2588  function _add(Set storage set, bytes32 value) private returns (bool) {\r... */\ntag_19:\n    /* \"Utils/EnumerableSet.sol\":2237:2241  bool */\n  0x00\n    /* \"Utils/EnumerableSet.sol\":2259:2280  _contains(set, value) */\n  tag_21\n    /* \"Utils/EnumerableSet.sol\":2269:2272  set */\n  dup4\n    /* \"Utils/EnumerableSet.sol\":2274:2279  value */\n  dup4\n    /* \"Utils/EnumerableSet.sol\":2259:2268  _contains */\n  tag_22\n    /* \"Utils/EnumerableSet.sol\":2259:2280  _contains(set, value) */\n  jump\t// in\ntag_21:\n    /* \"Utils/EnumerableSet.sol\":2254:2581  if (!_contains(set, value)) {\r... */\n  tag_23\n  jumpi\n  pop\n    /* \"Utils/EnumerableSet.sol\":2297:2320  set._values.push(value) */\n  dup2\n  sload\n  0x01\n  dup2\n  dup2\n  add\n  dup5\n  sstore\n    /* \"Utils/EnumerableSet.sol\":2297:2308  set._values */\n  0x00\n    /* \"Utils/EnumerableSet.sol\":2297:2320  set._values.push(value) */\n  dup5\n  dup2\n  mstore\n  0x20\n  dup1\n  dup3\n  keccak256\n  swap1\n  swap4\n  add\n  dup5\n  swap1\n  sstore\n    /* \"Utils/EnumerableSet.sol\":2480:2498  set._values.length */\n  dup5\n  sload\n    /* \"Utils/EnumerableSet.sol\":2458:2477  set._indexes[value] */\n  dup5\n  dup3\n  mstore\n    /* \"Utils/EnumerableSet.sol\":2458:2470  set._indexes */\n  dup3\n  dup7\n  add\n    /* \"Utils/EnumerableSet.sol\":2458:2477  set._indexes[value] */\n  swap1\n  swap4\n  mstore\n  0x40\n  swap1\n  keccak256\n    /* \"Utils/EnumerableSet.sol\":2458:2498  set._indexes[value] = set._values.length */\n  swap2\n  swap1\n  swap2\n  sstore\n    /* \"Utils/EnumerableSet.sol\":2513:2524  return true */\n  jump(tag_17)\n    /* \"Utils/EnumerableSet.sol\":2254:2581  if (!_contains(set, value)) {\r... */\ntag_23:\n  pop\n    /* \"Utils/EnumerableSet.sol\":2564:2569  false */\n  0x00\n    /* \"Utils/EnumerableSet.sol\":2557:2569  return false */\n  jump(tag_17)\n    /* \"Utils/EnumerableSet.sol\":4270:4399  function _contains(Set storage set, bytes32 value) private view returns (bool) {\r... */\ntag_22:\n    /* \"Utils/EnumerableSet.sol\":4343:4347  bool */\n  0x00\n    /* \"Utils/EnumerableSet.sol\":4367:4386  set._indexes[value] */\n  swap1\n  dup2\n  mstore\n    /* \"Utils/EnumerableSet.sol\":4367:4379  set._indexes */\n  0x01\n  swap2\n  swap1\n  swap2\n  add\n    /* \"Utils/EnumerableSet.sol\":4367:4386  set._indexes[value] */\n  0x20\n  mstore\n  0x40\n  swap1\n  keccak256\n  sload\n    /* \"Utils/EnumerableSet.sol\":4367:4391  set._indexes[value] != 0 */\n  iszero\n  iszero\n  swap1\n    /* \"Utils/EnumerableSet.sol\":4270:4399  function _contains(Set storage set, bytes32 value) private view returns (bool) {\r... */\n  jump\t// out\n    /* \"Ethereum/Presale.sol\":370:3179  contract Presale is ReentrancyGuard, Ownable{\r... */\ntag_14:\n  dataSize(sub_0)\n  dup1\n  dataOffset(sub_0)\n  0x00\n  codecopy\n  0x00\n  return\nstop\n\nsub_0: assembly {\n        /* \"Ethereum/Presale.sol\":370:3179  contract Presale is ReentrancyGuard, Ownable{\r... */\n      mstore(0x40, 0x80)\n      jumpi(tag_1, lt(calldatasize, 0x04))\n      shr(0xe0, calldataload(0x00))\n      dup1\n      0x8f1eae4c\n      gt\n      tag_18\n      jumpi\n      dup1\n      0xcad5b0f7\n      gt\n      tag_19\n      jumpi\n      dup1\n      0xcad5b0f7\n      eq\n      tag_14\n      jumpi\n      dup1\n      0xe2d3f423\n      eq\n      tag_15\n      jumpi\n      dup1\n      0xf2fde38b\n      eq\n      tag_16\n      jumpi\n      dup1\n      0xf8b2cb4f\n      eq\n      tag_17\n      jumpi\n      jump(tag_1)\n    tag_19:\n      dup1\n      0x8f1eae4c\n      eq\n      tag_10\n      jumpi\n      dup1\n      0xacfb2355\n      eq\n      tag_11\n      jumpi\n      dup1\n      0xad5c4648\n      eq\n      tag_12\n      jumpi\n      dup1\n      0xb6b55f25\n      eq\n      tag_13\n      jumpi\n      jump(tag_1)\n    tag_18:\n      dup1\n      0x56c5f349\n      gt\n      tag_20\n      jumpi\n      dup1\n      0x56c5f349\n      eq\n      tag_6\n      jumpi\n      dup1\n      0x715018a6\n      eq\n      tag_7\n      jumpi\n      dup1\n      0x861faf5f\n      eq\n      tag_8\n      jumpi\n      dup1\n      0x8da5cb5b\n      eq\n      tag_9\n      jumpi\n      jump(tag_1)\n    tag_20:\n      dup1\n      0x18856a2f\n      eq\n      tag_2\n      jumpi\n      dup1\n      0x1df4ccfc\n      eq\n      tag_3\n      jumpi\n      dup1\n      0x200d2ed2\n      eq\n      tag_4\n      jumpi\n      dup1\n      0x3b5ef2ad\n      eq\n      tag_5\n      jumpi\n    tag_1:\n      0x00\n      dup1\n      revert\n        /* \"Ethereum/Presale.sol\":1528:1554  SaleInfor public saleInfor */\n    tag_2:\n      callvalue\n      dup1\n      iszero\n      tag_21\n      jumpi\n      0x00\n      dup1\n      revert\n    tag_21:\n      pop\n      tag_22\n      tag_23\n      jump\t// in\n    tag_22:\n      mload(0x40)\n      tag_24\n      swap13\n      swap12\n      swap11\n      swap10\n      swap9\n      swap8\n      swap7\n      swap6\n      swap5\n      swap4\n      swap3\n      swap2\n      swap1\n      tag_25\n      jump\t// in\n    tag_24:\n      mload(0x40)\n      dup1\n      swap2\n      sub\n      swap1\n      return\n        /* \"Ethereum/Presale.sol\":1664:1687  uint256 public totalFee */\n    tag_3:\n      callvalue\n      dup1\n      iszero\n      tag_26\n      jumpi\n      0x00\n      dup1\n      revert\n    tag_26:\n      pop\n      tag_27\n      tag_28\n      jump\t// in\n    tag_27:\n      mload(0x40)\n      tag_24\n      swap2\n      swap1\n      tag_30\n      jump\t// in\n        /* \"Ethereum/Presale.sol\":2392:2729  function status() public view returns(uint256) {\r... */\n    tag_4:\n      callvalue\n      dup1\n      iszero\n      tag_31\n      jumpi\n      0x00\n      dup1\n      revert\n    tag_31:\n      pop\n      tag_27\n      tag_33\n      jump\t// in\n        /* \"Ethereum/Presale.sol\":1586:1610  uint256 public feeAnyone */\n    tag_5:\n      callvalue\n      dup1\n      iszero\n      tag_35\n      jumpi\n      0x00\n      dup1\n      revert\n    tag_35:\n      pop\n      tag_27\n      tag_37\n      jump\t// in\n        /* \"Ethereum/Presale.sol\":1438:1480  mapping(address => uint256) public userFee */\n    tag_6:\n      callvalue\n      dup1\n      iszero\n      tag_39\n      jumpi\n      0x00\n      dup1\n      revert\n    tag_39:\n      pop\n      tag_27\n      tag_41\n      calldatasize\n      0x04\n      tag_42\n      jump\t// in\n    tag_41:\n      tag_43\n      jump\t// in\n        /* \"Utils/Ownable.sol\":1714:1817  function renounceOwnership() public virtual onlyOwner {\r... */\n    tag_7:\n      callvalue\n      dup1\n      iszero\n      tag_45\n      jumpi\n      0x00\n      dup1\n      revert\n    tag_45:\n      pop\n      tag_46\n      tag_47\n      jump\t// in\n    tag_46:\n      stop\n        /* \"Ethereum/Presale.sol\":3068:3176  function backToken() external payable {\r... */\n    tag_8:\n      tag_46\n      tag_49\n      jump\t// in\n        /* \"Utils/Ownable.sol\":1063:1150  function owner() public view virtual returns (address) {\r... */\n    tag_9:\n      callvalue\n      dup1\n      iszero\n      tag_50\n      jumpi\n      0x00\n      dup1\n      revert\n    tag_50:\n      pop\n      tag_51\n      tag_52\n      jump\t// in\n    tag_51:\n      mload(0x40)\n      tag_24\n      swap2\n      swap1\n      tag_54\n      jump\t// in\n        /* \"Ethereum/Presale.sol\":2196:2383  function initialSaleInfor(\r... */\n    tag_10:\n      callvalue\n      dup1\n      iszero\n      tag_55\n      jumpi\n      0x00\n      dup1\n      revert\n    tag_55:\n      pop\n      tag_46\n      tag_57\n      calldatasize\n      0x04\n      tag_58\n      jump\t// in\n    tag_57:\n      tag_59\n      jump\t// in\n        /* \"Ethereum/Presale.sol\":1487:1521  PresaleStatus public presaleStatus */\n    tag_11:\n      callvalue\n      dup1\n      iszero\n      tag_60\n      jumpi\n      0x00\n      dup1\n      revert\n    tag_60:\n      pop\n      tag_61\n      tag_62\n      jump\t// in\n    tag_61:\n      mload(0x40)\n      tag_24\n      swap7\n      swap6\n      swap5\n      swap4\n      swap3\n      swap2\n      swap1\n      tag_64\n      jump\t// in\n        /* \"Ethereum/Presale.sol\":1561:1579  IERC20 public WETH */\n    tag_12:\n      callvalue\n      dup1\n      iszero\n      tag_65\n      jumpi\n      0x00\n      dup1\n      revert\n    tag_65:\n      pop\n      tag_51\n      tag_67\n      jump\t// in\n        /* \"Ethereum/Presale.sol\":2856:2938  function deposit(uint256 _amount) external payable nonReentrant {\r... */\n    tag_13:\n      tag_46\n      tag_71\n      calldatasize\n      0x04\n      tag_72\n      jump\t// in\n    tag_71:\n      tag_73\n      jump\t// in\n        /* \"Ethereum/Presale.sol\":2738:2848  function checkAdminAddress() public view returns(bool) {\r... */\n    tag_14:\n      callvalue\n      dup1\n      iszero\n      tag_74\n      jumpi\n      0x00\n      dup1\n      revert\n    tag_74:\n      pop\n      tag_75\n      tag_76\n      jump\t// in\n    tag_75:\n      mload(0x40)\n      tag_24\n      swap2\n      swap1\n      tag_78\n      jump\t// in\n        /* \"Ethereum/Presale.sol\":1385:1431  mapping(address => BuyerInfo) public buyerInfo */\n    tag_15:\n      callvalue\n      dup1\n      iszero\n      tag_79\n      jumpi\n      0x00\n      dup1\n      revert\n    tag_79:\n      pop\n      tag_80\n      tag_81\n      calldatasize\n      0x04\n      tag_42\n      jump\t// in\n    tag_81:\n      tag_82\n      jump\t// in\n    tag_80:\n      mload(0x40)\n      tag_24\n      swap7\n      swap6\n      swap5\n      swap4\n      swap3\n      swap2\n      swap1\n      tag_84\n      jump\t// in\n        /* \"Utils/Ownable.sol\":1972:2173  function transferOwnership(address newOwner) public virtual onlyOwner {\r... */\n    tag_16:\n      callvalue\n      dup1\n      iszero\n      tag_85\n      jumpi\n      0x00\n      dup1\n      revert\n    tag_85:\n      pop\n      tag_46\n      tag_87\n      calldatasize\n      0x04\n      tag_42\n      jump\t// in\n    tag_87:\n      tag_88\n      jump\t// in\n        /* \"Ethereum/Presale.sol\":2946:3057  function getBalance(address _address) external view returns(uint256) {\r... */\n    tag_17:\n      callvalue\n      dup1\n      iszero\n      tag_89\n      jumpi\n      0x00\n      dup1\n      revert\n    tag_89:\n      pop\n      tag_27\n      tag_91\n      calldatasize\n      0x04\n      tag_42\n      jump\t// in\n    tag_91:\n      tag_92\n      jump\t// in\n        /* \"Ethereum/Presale.sol\":1528:1554  SaleInfor public saleInfor */\n    tag_23:\n      sload(0x0b)\n      sload(0x0c)\n      sload(0x0d)\n      sload(0x0e)\n      sload(0x0f)\n      sload(0x10)\n      sload(0x11)\n      sload(0x12)\n      sload(0x13)\n      sload(0x14)\n      sload(0x15)\n      sload(0x16)\n      sub(shl(0xa0, 0x01), 0x01)\n      swap12\n      dup13\n      and\n      swap12\n      swap11\n      dup12\n      and\n      swap11\n      swap1\n      swap10\n      and\n      swap9\n      0xff\n      swap1\n      swap2\n      and\n      swap1\n      dup13\n      jump\t// out\n        /* \"Ethereum/Presale.sol\":1664:1687  uint256 public totalFee */\n    tag_28:\n      sload(0x1b)\n      dup2\n      jump\t// out\n        /* \"Ethereum/Presale.sol\":2392:2729  function status() public view returns(uint256) {\r... */\n    tag_33:\n        /* \"Ethereum/Presale.sol\":2471:2490  saleInfor.startSale */\n      sload(0x0f)\n        /* \"Ethereum/Presale.sol\":2430:2437  uint256 */\n      0x00\n      swap1\n        /* \"Ethereum/Presale.sol\":2453:2468  block.timestamp */\n      timestamp\n        /* \"Ethereum/Presale.sol\":2453:2490  block.timestamp < saleInfor.startSale */\n      lt\n        /* \"Ethereum/Presale.sol\":2450:2722  if(block.timestamp < saleInfor.startSale) {\r... */\n      iszero\n      tag_96\n      jumpi\n      pop\n        /* \"Ethereum/Presale.sol\":2514:2515  0 */\n      0x00\n        /* \"Ethereum/Presale.sol\":2507:2515  return 0 */\n      jump(tag_99)\n        /* \"Ethereum/Presale.sol\":2450:2722  if(block.timestamp < saleInfor.startSale) {\r... */\n    tag_96:\n        /* \"Ethereum/Presale.sol\":2581:2598  saleInfor.endSale */\n      sload(0x10)\n        /* \"Ethereum/Presale.sol\":2563:2578  block.timestamp */\n      timestamp\n        /* \"Ethereum/Presale.sol\":2563:2598  block.timestamp > saleInfor.endSale */\n      gt\n        /* \"Ethereum/Presale.sol\":2560:2711  if(block.timestamp > saleInfor.endSale) {\r... */\n      iszero\n      tag_98\n      jumpi\n      pop\n        /* \"Ethereum/Presale.sol\":2626:2627  2 */\n      0x02\n        /* \"Ethereum/Presale.sol\":2619:2627  return 2 */\n      jump(tag_99)\n        /* \"Ethereum/Presale.sol\":2560:2711  if(block.timestamp > saleInfor.endSale) {\r... */\n    tag_98:\n      pop\n        /* \"Ethereum/Presale.sol\":2684:2685  1 */\n      0x01\n        /* \"Ethereum/Presale.sol\":2560:2711  if(block.timestamp > saleInfor.endSale) {\r... */\n    tag_99:\n        /* \"Ethereum/Presale.sol\":2392:2729  function status() public view returns(uint256) {\r... */\n      swap1\n      jump\t// out\n        /* \"Ethereum/Presale.sol\":1586:1610  uint256 public feeAnyone */\n    tag_37:\n      sload(0x18)\n      dup2\n      jump\t// out\n        /* \"Ethereum/Presale.sol\":1438:1480  mapping(address => uint256) public userFee */\n    tag_43:\n      mstore(0x20, 0x03)\n      0x00\n      swap1\n      dup2\n      mstore\n      0x40\n      swap1\n      keccak256\n      sload\n      dup2\n      jump\t// out\n        /* \"Utils/Ownable.sol\":1714:1817  function renounceOwnership() public virtual onlyOwner {\r... */\n    tag_47:\n        /* \"Utils/Ownable.sol\":1294:1306  _msgSender() */\n      tag_101\n        /* \"Utils/Ownable.sol\":1294:1304  _msgSender */\n      tag_102\n        /* \"Utils/Ownable.sol\":1294:1306  _msgSender() */\n      jump\t// in\n    tag_101:\n      sub(shl(0xa0, 0x01), 0x01)\n        /* \"Utils/Ownable.sol\":1283:1306  owner() == _msgSender() */\n      and\n        /* \"Utils/Ownable.sol\":1283:1290  owner() */\n      tag_103\n        /* \"Utils/Ownable.sol\":1283:1288  owner */\n      tag_52\n        /* \"Utils/Ownable.sol\":1283:1290  owner() */\n      jump\t// in\n    tag_103:\n      sub(shl(0xa0, 0x01), 0x01)\n        /* \"Utils/Ownable.sol\":1283:1306  owner() == _msgSender() */\n      and\n      eq\n        /* \"Utils/Ownable.sol\":1275:1343  require(owner() == _msgSender(), \"Ownable: caller is not the owner\") */\n      tag_104\n      jumpi\n      mload(0x40)\n      shl(0xe5, 0x461bcd)\n      dup2\n      mstore\n      0x04\n      add\n      tag_105\n      swap1\n      tag_106\n      jump\t// in\n    tag_105:\n      mload(0x40)\n      dup1\n      swap2\n      sub\n      swap1\n      revert\n    tag_104:\n        /* \"Utils/Ownable.sol\":1779:1809  _transferOwnership(address(0)) */\n      tag_108\n        /* \"Utils/Ownable.sol\":1806:1807  0 */\n      0x00\n        /* \"Utils/Ownable.sol\":1779:1797  _transferOwnership */\n      tag_109\n        /* \"Utils/Ownable.sol\":1779:1809  _transferOwnership(address(0)) */\n      jump\t// in\n    tag_108:\n        /* \"Utils/Ownable.sol\":1714:1817  function renounceOwnership() public virtual onlyOwner {\r... */\n      jump\t// out\n        /* \"Ethereum/Presale.sol\":3068:3176  function backToken() external payable {\r... */\n    tag_49:\n        /* \"Ethereum/Presale.sol\":3117:3168  payable(msg.sender).transfer(address(this).balance) */\n      mload(0x40)\n        /* \"Ethereum/Presale.sol\":3125:3135  msg.sender */\n      caller\n      swap1\n        /* \"Ethereum/Presale.sol\":3146:3167  address(this).balance */\n      selfbalance\n        /* \"Ethereum/Presale.sol\":3117:3168  payable(msg.sender).transfer(address(this).balance) */\n      dup1\n      iszero\n      0x08fc\n      mul\n      swap2\n      0x00\n      dup2\n      dup2\n      dup2\n        /* \"Ethereum/Presale.sol\":3146:3167  address(this).balance */\n      dup6\n        /* \"Ethereum/Presale.sol\":3125:3135  msg.sender */\n      dup9\n        /* \"Ethereum/Presale.sol\":3117:3168  payable(msg.sender).transfer(address(this).balance) */\n      dup9\n      call\n      swap4\n      pop\n      pop\n      pop\n      pop\n      iszero\n      dup1\n      iszero\n      tag_112\n      jumpi\n      returndatasize\n      0x00\n      dup1\n      returndatacopy\n      revert(0x00, returndatasize)\n    tag_112:\n      pop\n        /* \"Ethereum/Presale.sol\":3068:3176  function backToken() external payable {\r... */\n      jump\t// out\n        /* \"Utils/Ownable.sol\":1063:1150  function owner() public view virtual returns (address) {\r... */\n    tag_52:\n        /* \"Utils/Ownable.sol\":1136:1142  _owner */\n      and(sub(shl(0xa0, 0x01), 0x01), sload(0x01))\n        /* \"Utils/Ownable.sol\":1063:1150  function owner() public view virtual returns (address) {\r... */\n      swap1\n      jump\t// out\n        /* \"Ethereum/Presale.sol\":2196:2383  function initialSaleInfor(\r... */\n    tag_59:\n      pop\n      pop\n      pop\n      pop\n      jump\t// out\n        /* \"Ethereum/Presale.sol\":1487:1521  PresaleStatus public presaleStatus */\n    tag_62:\n      sload(0x04)\n      sload(0x05)\n      sload(0x06)\n      sload(0x07)\n      sload(0x08)\n      sload(0x09)\n      dup7\n      jump\t// out\n        /* \"Ethereum/Presale.sol\":1561:1579  IERC20 public WETH */\n    tag_67:\n      and(sub(shl(0xa0, 0x01), 0x01), sload(0x17))\n      dup2\n      jump\t// out\n        /* \"Ethereum/Presale.sol\":2856:2938  function deposit(uint256 _amount) external payable nonReentrant {\r... */\n    tag_73:\n        /* \"Utils/ReentrancyGuard.sol\":1778:1779  2 */\n      0x02\n        /* \"Utils/ReentrancyGuard.sol\":2376:2383  _status */\n      sload(0x00)\n        /* \"Utils/ReentrancyGuard.sol\":2376:2395  _status != _ENTERED */\n      eq\n      iszero\n        /* \"Utils/ReentrancyGuard.sol\":2368:2431  require(_status != _ENTERED, \"ReentrancyGuard: reentrant call\") */\n      tag_116\n      jumpi\n      mload(0x40)\n      shl(0xe5, 0x461bcd)\n      dup2\n      mstore\n      0x04\n      add\n      tag_105\n      swap1\n      tag_118\n      jump\t// in\n    tag_116:\n      pop\n        /* \"Utils/ReentrancyGuard.sol\":1734:1735  1 */\n      0x01\n        /* \"Utils/ReentrancyGuard.sol\":2509:2516  _status */\n      0x00\n        /* \"Utils/ReentrancyGuard.sol\":2688:2710  _status = _NOT_ENTERED */\n      sstore\n        /* \"Ethereum/Presale.sol\":2856:2938  function deposit(uint256 _amount) external payable nonReentrant {\r... */\n      jump\t// out\n        /* \"Ethereum/Presale.sol\":2738:2848  function checkAdminAddress() public view returns(bool) {\r... */\n    tag_76:\n        /* \"Ethereum/Presale.sol\":2787:2791  bool */\n      0x00\n        /* \"Ethereum/Presale.sol\":2811:2840  admins.contains(_msgSender()) */\n      tag_121\n        /* \"Ethereum/Presale.sol\":2827:2839  _msgSender() */\n      tag_122\n        /* \"Ethereum/Presale.sol\":2827:2837  _msgSender */\n      tag_102\n        /* \"Ethereum/Presale.sol\":2827:2839  _msgSender() */\n      jump\t// in\n    tag_122:\n        /* \"Ethereum/Presale.sol\":2811:2817  admins */\n      0x19\n      swap1\n        /* \"Ethereum/Presale.sol\":2811:2826  admins.contains */\n      tag_123\n        /* \"Ethereum/Presale.sol\":2811:2840  admins.contains(_msgSender()) */\n      jump\t// in\n    tag_121:\n        /* \"Ethereum/Presale.sol\":2804:2840  return admins.contains(_msgSender()) */\n      swap1\n      pop\n        /* \"Ethereum/Presale.sol\":2738:2848  function checkAdminAddress() public view returns(bool) {\r... */\n      swap1\n      jump\t// out\n        /* \"Ethereum/Presale.sol\":1385:1431  mapping(address => BuyerInfo) public buyerInfo */\n    tag_82:\n      0x02\n      0x20\n      dup2\n      swap1\n      mstore\n      0x00\n      swap2\n      dup3\n      mstore\n      0x40\n      swap1\n      swap2\n      keccak256\n      dup1\n      sload\n      0x01\n      dup3\n      add\n      sload\n      swap3\n      dup3\n      add\n      sload\n      0x03\n      dup4\n      add\n      sload\n      0x04\n      swap1\n      swap4\n      add\n      sload\n      swap2\n      swap4\n      swap3\n      swap1\n      swap2\n      0xff\n      dup1\n      dup3\n      and\n      swap2\n      0x0100\n      swap1\n      div\n      and\n      dup7\n      jump\t// out\n        /* \"Utils/Ownable.sol\":1972:2173  function transferOwnership(address newOwner) public virtual onlyOwner {\r... */\n    tag_88:\n        /* \"Utils/Ownable.sol\":1294:1306  _msgSender() */\n      tag_125\n        /* \"Utils/Ownable.sol\":1294:1304  _msgSender */\n      tag_102\n        /* \"Utils/Ownable.sol\":1294:1306  _msgSender() */\n      jump\t// in\n    tag_125:\n      sub(shl(0xa0, 0x01), 0x01)\n        /* \"Utils/Ownable.sol\":1283:1306  owner() == _msgSender() */\n      and\n        /* \"Utils/Ownable.sol\":1283:1290  owner() */\n      tag_126\n        /* \"Utils/Ownable.sol\":1283:1288  owner */\n      tag_52\n        /* \"Utils/Ownable.sol\":1283:1290  owner() */\n      jump\t// in\n    tag_126:\n      sub(shl(0xa0, 0x01), 0x01)\n        /* \"Utils/Ownable.sol\":1283:1306  owner() == _msgSender() */\n      and\n      eq\n        /* \"Utils/Ownable.sol\":1275:1343  require(owner() == _msgSender(), \"Ownable: caller is not the owner\") */\n      tag_127\n      jumpi\n      mload(0x40)\n      shl(0xe5, 0x461bcd)\n      dup2\n      mstore\n      0x04\n      add\n      tag_105\n      swap1\n      tag_106\n      jump\t// in\n    tag_127:\n      sub(shl(0xa0, 0x01), 0x01)\n        /* \"Utils/Ownable.sol\":2061:2083  newOwner != address(0) */\n      dup2\n      and\n        /* \"Utils/Ownable.sol\":2053:2126  require(newOwner != address(0), \"Ownable: new owner is the zero address\") */\n      tag_130\n      jumpi\n      mload(0x40)\n      shl(0xe5, 0x461bcd)\n      dup2\n      mstore\n      0x04\n      add\n      tag_105\n      swap1\n      tag_132\n      jump\t// in\n    tag_130:\n        /* \"Utils/Ownable.sol\":2137:2165  _transferOwnership(newOwner) */\n      tag_112\n        /* \"Utils/Ownable.sol\":2156:2164  newOwner */\n      dup2\n        /* \"Utils/Ownable.sol\":2137:2155  _transferOwnership */\n      tag_109\n        /* \"Utils/Ownable.sol\":2137:2165  _transferOwnership(newOwner) */\n      jump\t// in\n        /* \"Ethereum/Presale.sol\":2946:3057  function getBalance(address _address) external view returns(uint256) {\r... */\n    tag_92:\n      sub(shl(0xa0, 0x01), 0x01)\n        /* \"Ethereum/Presale.sol\":3033:3049  _address.balance */\n      and\n      balance\n      swap1\n        /* \"Ethereum/Presale.sol\":2946:3057  function getBalance(address _address) external view returns(uint256) {\r... */\n      jump\t// out\n        /* \"Utils/EnumerableSet.sol\":8259:8411  function add(AddressSet storage set, address value) internal returns (bool) {\r... */\n    tag_94:\n        /* \"Utils/EnumerableSet.sol\":8329:8333  bool */\n      0x00\n        /* \"Utils/EnumerableSet.sol\":8353:8403  _add(set._inner, bytes32(uint256(uint160(value)))) */\n      tag_136\n        /* \"Utils/EnumerableSet.sol\":8358:8361  set */\n      dup4\n      sub(shl(0xa0, 0x01), 0x01)\n        /* \"Utils/EnumerableSet.sol\":8378:8401  uint256(uint160(value)) */\n      dup5\n      and\n        /* \"Utils/EnumerableSet.sol\":8353:8357  _add */\n      tag_137\n        /* \"Utils/EnumerableSet.sol\":8353:8403  _add(set._inner, bytes32(uint256(uint160(value)))) */\n      jump\t// in\n    tag_136:\n        /* \"Utils/EnumerableSet.sol\":8346:8403  return _add(set._inner, bytes32(uint256(uint160(value)))) */\n      swap1\n      pop\n        /* \"Utils/EnumerableSet.sol\":8259:8411  function add(AddressSet storage set, address value) internal returns (bool) {\r... */\n    tag_135:\n      swap3\n      swap2\n      pop\n      pop\n      jump\t// out\n        /* \"Utils/Context.sol\":656:754  function _msgSender() internal view virtual returns (address) {\r... */\n    tag_102:\n        /* \"Utils/Context.sol\":736:746  msg.sender */\n      caller\n        /* \"Utils/Context.sol\":656:754  function _msgSender() internal view virtual returns (address) {\r... */\n      swap1\n      jump\t// out\n        /* \"Utils/Ownable.sol\":2333:2524  function _transferOwnership(address newOwner) internal virtual {\r... */\n    tag_109:\n        /* \"Utils/Ownable.sol\":2426:2432  _owner */\n      0x01\n      dup1\n      sload\n      sub(shl(0xa0, 0x01), 0x01)\n        /* \"Utils/Ownable.sol\":2443:2460  _owner = newOwner */\n      dup4\n      dup2\n      and\n      not(sub(shl(0xa0, 0x01), 0x01))\n      dup4\n      and\n      dup2\n      or\n      swap1\n      swap4\n      sstore\n        /* \"Utils/Ownable.sol\":2476:2516  OwnershipTransferred(oldOwner, newOwner) */\n      mload(0x40)\n        /* \"Utils/Ownable.sol\":2426:2432  _owner */\n      swap2\n      and\n      swap2\n        /* \"Utils/Ownable.sol\":2443:2460  _owner = newOwner */\n      swap1\n        /* \"Utils/Ownable.sol\":2426:2432  _owner */\n      dup3\n      swap1\n        /* \"Utils/Ownable.sol\":2476:2516  OwnershipTransferred(oldOwner, newOwner) */\n      0x8be0079c531659141344cd1fd0a4f28419497f9722a3daafe3b4186f6b6457e0\n      swap1\n        /* \"Utils/Ownable.sol\":2407:2423  address oldOwner */\n      0x00\n      swap1\n        /* \"Utils/Ownable.sol\":2476:2516  OwnershipTransferred(oldOwner, newOwner) */\n      log3\n        /* \"Utils/Ownable.sol\":2333:2524  function _transferOwnership(address newOwner) internal virtual {\r... */\n      pop\n      pop\n      jump\t// out\n        /* \"Utils/EnumerableSet.sol\":8831:8998  function contains(AddressSet storage set, address value) internal view returns (bool) {\r... */\n    tag_123:\n        /* \"Utils/EnumerableSet.sol\":8911:8915  bool */\n      0x00\n        /* \"Utils/EnumerableSet.sol\":8935:8990  _contains(set._inner, bytes32(uint256(uint160(value)))) */\n      tag_136\n        /* \"Utils/EnumerableSet.sol\":8945:8948  set */\n      dup4\n      sub(shl(0xa0, 0x01), 0x01)\n        /* \"Utils/EnumerableSet.sol\":8965:8988  uint256(uint160(value)) */\n      dup5\n      and\n        /* \"Utils/EnumerableSet.sol\":8935:8944  _contains */\n      tag_142\n        /* \"Utils/EnumerableSet.sol\":8935:8990  _contains(set._inner, bytes32(uint256(uint160(value)))) */\n      jump\t// in\n        /* \"Utils/EnumerableSet.sol\":2174:2588  function _add(Set storage set, bytes32 value) private returns (bool) {\r... */\n    tag_137:\n        /* \"Utils/EnumerableSet.sol\":2237:2241  bool */\n      0x00\n        /* \"Utils/EnumerableSet.sol\":2259:2280  _contains(set, value) */\n      tag_144\n        /* \"Utils/EnumerableSet.sol\":2269:2272  set */\n      dup4\n        /* \"Utils/EnumerableSet.sol\":2274:2279  value */\n      dup4\n        /* \"Utils/EnumerableSet.sol\":2259:2268  _contains */\n      tag_142\n        /* \"Utils/EnumerableSet.sol\":2259:2280  _contains(set, value) */\n      jump\t// in\n    tag_144:\n        /* \"Utils/EnumerableSet.sol\":2254:2581  if (!_contains(set, value)) {\r... */\n      tag_145\n      jumpi\n      pop\n        /* \"Utils/EnumerableSet.sol\":2297:2320  set._values.push(value) */\n      dup2\n      sload\n      0x01\n      dup2\n      dup2\n      add\n      dup5\n      sstore\n        /* \"Utils/EnumerableSet.sol\":2297:2308  set._values */\n      0x00\n        /* \"Utils/EnumerableSet.sol\":2297:2320  set._values.push(value) */\n      dup5\n      dup2\n      mstore\n      0x20\n      dup1\n      dup3\n      keccak256\n      swap1\n      swap4\n      add\n      dup5\n      swap1\n      sstore\n        /* \"Utils/EnumerableSet.sol\":2480:2498  set._values.length */\n      dup5\n      sload\n        /* \"Utils/EnumerableSet.sol\":2458:2477  set._indexes[value] */\n      dup5\n      dup3\n      mstore\n        /* \"Utils/EnumerableSet.sol\":2458:2470  set._indexes */\n      dup3\n      dup7\n      add\n        /* \"Utils/EnumerableSet.sol\":2458:2477  set._indexes[value] */\n      swap1\n      swap4\n      mstore\n      0x40\n      swap1\n      keccak256\n        /* \"Utils/EnumerableSet.sol\":2458:2498  set._indexes[value] = set._values.length */\n      swap2\n      swap1\n      swap2\n      sstore\n        /* \"Utils/EnumerableSet.sol\":2513:2524  return true */\n      jump(tag_135)\n        /* \"Utils/EnumerableSet.sol\":2254:2581  if (!_contains(set, value)) {\r... */\n    tag_145:\n      pop\n        /* \"Utils/EnumerableSet.sol\":2564:2569  false */\n      0x00\n        /* \"Utils/EnumerableSet.sol\":2557:2569  return false */\n      jump(tag_135)\n        /* \"Utils/EnumerableSet.sol\":4270:4399  function _contains(Set storage set, bytes32 value) private view returns (bool) {\r... */\n    tag_142:\n        /* \"Utils/EnumerableSet.sol\":4343:4347  bool */\n      0x00\n        /* \"Utils/EnumerableSet.sol\":4367:4386  set._indexes[value] */\n      swap1\n      dup2\n      mstore\n        /* \"Utils/EnumerableSet.sol\":4367:4379  set._indexes */\n      0x01\n      swap2\n      swap1\n      swap2\n      add\n        /* \"Utils/EnumerableSet.sol\":4367:4386  set._indexes[value] */\n      0x20\n      mstore\n      0x40\n      swap1\n      keccak256\n      sload\n        /* \"Utils/EnumerableSet.sol\":4367:4391  set._indexes[value] != 0 */\n      iszero\n      iszero\n      swap1\n        /* \"Utils/EnumerableSet.sol\":4270:4399  function _contains(Set storage set, bytes32 value) private view returns (bool) {\r... */\n      jump\t// out\n        /* \"#utility.yul\":14:273   */\n    tag_42:\n      0x00\n        /* \"#utility.yul\":126:128   */\n      0x20\n        /* \"#utility.yul\":114:123   */\n      dup3\n        /* \"#utility.yul\":105:112   */\n      dup5\n        /* \"#utility.yul\":101:124   */\n      sub\n        /* \"#utility.yul\":97:129   */\n      slt\n        /* \"#utility.yul\":94:96   */\n      iszero\n      tag_151\n      jumpi\n        /* \"#utility.yul\":147:153   */\n      dup1\n        /* \"#utility.yul\":139:145   */\n      dup2\n        /* \"#utility.yul\":132:154   */\n      revert\n        /* \"#utility.yul\":94:96   */\n    tag_151:\n        /* \"#utility.yul\":191:200   */\n      dup2\n        /* \"#utility.yul\":178:201   */\n      calldataload\n        /* \"#utility.yul\":210:243   */\n      tag_152\n        /* \"#utility.yul\":237:242   */\n      dup2\n        /* \"#utility.yul\":210:243   */\n      tag_153\n      jump\t// in\n    tag_152:\n        /* \"#utility.yul\":262:267   */\n      swap4\n        /* \"#utility.yul\":84:273   */\n      swap3\n      pop\n      pop\n      pop\n      jump\t// out\n        /* \"#utility.yul\":278:1580   */\n    tag_58:\n      0x00\n      dup1\n      0x00\n      dup1\n        /* \"#utility.yul\":476:479   */\n      0x0180\n        /* \"#utility.yul\":520:522   */\n      dup1\n        /* \"#utility.yul\":508:517   */\n      dup7\n        /* \"#utility.yul\":499:506   */\n      dup9\n        /* \"#utility.yul\":495:518   */\n      sub\n        /* \"#utility.yul\":491:523   */\n      slt\n        /* \"#utility.yul\":488:490   */\n      iszero\n      tag_155\n      jumpi\n        /* \"#utility.yul\":541:547   */\n      dup4\n        /* \"#utility.yul\":533:539   */\n      dup5\n        /* \"#utility.yul\":526:548   */\n      revert\n        /* \"#utility.yul\":488:490   */\n    tag_155:\n        /* \"#utility.yul\":585:594   */\n      dup6\n        /* \"#utility.yul\":572:595   */\n      calldataload\n        /* \"#utility.yul\":604:637   */\n      tag_156\n        /* \"#utility.yul\":631:636   */\n      dup2\n        /* \"#utility.yul\":604:637   */\n      tag_153\n      jump\t// in\n    tag_156:\n        /* \"#utility.yul\":656:661   */\n      swap5\n      pop\n        /* \"#utility.yul\":680:682   */\n      0x20\n        /* \"#utility.yul\":719:737   */\n      dup7\n      dup2\n      add\n        /* \"#utility.yul\":706:738   */\n      calldataload\n        /* \"#utility.yul\":747:782   */\n      tag_157\n        /* \"#utility.yul\":706:738   */\n      dup2\n        /* \"#utility.yul\":747:782   */\n      tag_153\n      jump\t// in\n    tag_157:\n        /* \"#utility.yul\":801:808   */\n      swap5\n      pop\n        /* \"#utility.yul\":860:862   */\n      0x40\n        /* \"#utility.yul\":845:863   */\n      dup8\n      add\n        /* \"#utility.yul\":832:864   */\n      calldataload\n        /* \"#utility.yul\":873:908   */\n      tag_158\n        /* \"#utility.yul\":832:864   */\n      dup2\n        /* \"#utility.yul\":873:908   */\n      tag_153\n      jump\t// in\n    tag_158:\n        /* \"#utility.yul\":927:934   */\n      swap4\n      pop\n        /* \"#utility.yul\":972:975   */\n      0x7f\n        /* \"#utility.yul\":957:976   */\n      dup8\n      add\n        /* \"#utility.yul\":953:986   */\n      dup9\n      sgt\n        /* \"#utility.yul\":943:945   */\n      tag_159\n      jumpi\n        /* \"#utility.yul\":1005:1011   */\n      dup3\n        /* \"#utility.yul\":997:1003   */\n      dup4\n        /* \"#utility.yul\":990:1012   */\n      revert\n        /* \"#utility.yul\":943:945   */\n    tag_159:\n        /* \"#utility.yul\":1043:1045   */\n      0x40\n        /* \"#utility.yul\":1037:1046   */\n      mload\n        /* \"#utility.yul\":1085:1088   */\n      0x0120\n        /* \"#utility.yul\":1077:1083   */\n      dup2\n        /* \"#utility.yul\":1073:1089   */\n      add\n        /* \"#utility.yul\":1155:1161   */\n      dup2\n        /* \"#utility.yul\":1143:1153   */\n      dup2\n        /* \"#utility.yul\":1140:1162   */\n      lt\n        /* \"#utility.yul\":1119:1137   */\n      0xffffffffffffffff\n        /* \"#utility.yul\":1107:1117   */\n      dup3\n        /* \"#utility.yul\":1104:1138   */\n      gt\n        /* \"#utility.yul\":1101:1163   */\n      or\n        /* \"#utility.yul\":1098:1100   */\n      iszero\n      tag_161\n      jumpi\n        /* \"#utility.yul\":1166:1184   */\n      tag_161\n      tag_162\n      jump\t// in\n    tag_161:\n        /* \"#utility.yul\":1202:1204   */\n      0x40\n        /* \"#utility.yul\":1195:1217   */\n      mstore\n        /* \"#utility.yul\":1237:1243   */\n      dup1\n        /* \"#utility.yul\":1278:1280   */\n      0x60\n        /* \"#utility.yul\":1263:1281   */\n      dup10\n      add\n        /* \"#utility.yul\":1296:1314   */\n      dup5\n      dup11\n      add\n        /* \"#utility.yul\":1293:1324   */\n      dup12\n      lt\n        /* \"#utility.yul\":1290:1292   */\n      iszero\n      tag_163\n      jumpi\n        /* \"#utility.yul\":1342:1348   */\n      dup6\n        /* \"#utility.yul\":1334:1340   */\n      dup7\n        /* \"#utility.yul\":1327:1349   */\n      revert\n        /* \"#utility.yul\":1290:1292   */\n    tag_163:\n        /* \"#utility.yul\":1369:1375   */\n      dup6\n        /* \"#utility.yul\":1360:1375   */\n      swap5\n      pop\n        /* \"#utility.yul\":1384:1549   */\n    tag_164:\n        /* \"#utility.yul\":1398:1402   */\n      0x09\n        /* \"#utility.yul\":1395:1396   */\n      dup6\n        /* \"#utility.yul\":1392:1403   */\n      lt\n        /* \"#utility.yul\":1384:1549   */\n      iszero\n      tag_166\n      jumpi\n        /* \"#utility.yul\":1457:1474   */\n      dup1\n      calldataload\n        /* \"#utility.yul\":1445:1475   */\n      dup3\n      mstore\n        /* \"#utility.yul\":1418:1419   */\n      0x01\n        /* \"#utility.yul\":1411:1420   */\n      swap5\n      swap1\n      swap5\n      add\n      swap4\n        /* \"#utility.yul\":1495:1507   */\n      swap1\n      dup4\n      add\n      swap1\n        /* \"#utility.yul\":1527:1539   */\n      dup4\n      add\n        /* \"#utility.yul\":1384:1549   */\n      jump(tag_164)\n    tag_166:\n        /* \"#utility.yul\":1388:1391   */\n      pop\n      pop\n        /* \"#utility.yul\":1568:1574   */\n      dup1\n        /* \"#utility.yul\":1558:1574   */\n      swap4\n      pop\n      pop\n      pop\n      pop\n        /* \"#utility.yul\":456:1580   */\n      swap3\n      swap6\n      swap2\n      swap5\n      pop\n      swap3\n      pop\n      jump\t// out\n        /* \"#utility.yul\":1585:1775   */\n    tag_72:\n      0x00\n        /* \"#utility.yul\":1697:1699   */\n      0x20\n        /* \"#utility.yul\":1685:1694   */\n      dup3\n        /* \"#utility.yul\":1676:1683   */\n      dup5\n        /* \"#utility.yul\":1672:1695   */\n      sub\n        /* \"#utility.yul\":1668:1700   */\n      slt\n        /* \"#utility.yul\":1665:1667   */\n      iszero\n      tag_168\n      jumpi\n        /* \"#utility.yul\":1718:1724   */\n      dup1\n        /* \"#utility.yul\":1710:1716   */\n      dup2\n        /* \"#utility.yul\":1703:1725   */\n      revert\n        /* \"#utility.yul\":1665:1667   */\n    tag_168:\n      pop\n        /* \"#utility.yul\":1746:1769   */\n      calldataload\n      swap2\n        /* \"#utility.yul\":1655:1775   */\n      swap1\n      pop\n      jump\t// out\n        /* \"#utility.yul\":1780:1983   */\n    tag_54:\n      sub(shl(0xa0, 0x01), 0x01)\n        /* \"#utility.yul\":1944:1976   */\n      swap2\n      swap1\n      swap2\n      and\n        /* \"#utility.yul\":1926:1977   */\n      dup2\n      mstore\n        /* \"#utility.yul\":1914:1916   */\n      0x20\n        /* \"#utility.yul\":1899:1917   */\n      add\n      swap1\n        /* \"#utility.yul\":1881:1983   */\n      jump\t// out\n        /* \"#utility.yul\":1988:3076   */\n    tag_25:\n      sub(shl(0xa0, 0x01), 0x01)\n        /* \"#utility.yul\":2537:2552   */\n      swap13\n      dup14\n      and\n        /* \"#utility.yul\":2519:2553   */\n      dup2\n      mstore\n        /* \"#utility.yul\":2589:2604   */\n      swap11\n      dup13\n      and\n        /* \"#utility.yul\":2584:2586   */\n      0x20\n        /* \"#utility.yul\":2569:2587   */\n      dup13\n      add\n        /* \"#utility.yul\":2562:2605   */\n      mstore\n        /* \"#utility.yul\":2641:2656   */\n      swap9\n      swap1\n      swap11\n      and\n        /* \"#utility.yul\":2636:2638   */\n      0x40\n        /* \"#utility.yul\":2621:2639   */\n      dup11\n      add\n        /* \"#utility.yul\":2614:2657   */\n      mstore\n        /* \"#utility.yul\":2688:2690   */\n      0x60\n        /* \"#utility.yul\":2673:2691   */\n      dup10\n      add\n        /* \"#utility.yul\":2666:2700   */\n      swap7\n      swap1\n      swap7\n      mstore\n        /* \"#utility.yul\":2731:2734   */\n      0x80\n        /* \"#utility.yul\":2716:2735   */\n      dup9\n      add\n        /* \"#utility.yul\":2709:2744   */\n      swap5\n      swap1\n      swap5\n      mstore\n        /* \"#utility.yul\":2499:2502   */\n      0xa0\n        /* \"#utility.yul\":2760:2779   */\n      dup8\n      add\n        /* \"#utility.yul\":2753:2788   */\n      swap3\n      swap1\n      swap3\n      mstore\n        /* \"#utility.yul\":2819:2822   */\n      0xc0\n        /* \"#utility.yul\":2804:2823   */\n      dup7\n      add\n        /* \"#utility.yul\":2797:2832   */\n      mstore\n        /* \"#utility.yul\":2863:2866   */\n      0xe0\n        /* \"#utility.yul\":2848:2867   */\n      dup6\n      add\n        /* \"#utility.yul\":2841:2876   */\n      mstore\n        /* \"#utility.yul\":2907:2910   */\n      0x0100\n        /* \"#utility.yul\":2892:2911   */\n      dup5\n      add\n        /* \"#utility.yul\":2885:2920   */\n      mstore\n        /* \"#utility.yul\":2951:2954   */\n      0x0120\n        /* \"#utility.yul\":2936:2955   */\n      dup4\n      add\n        /* \"#utility.yul\":2929:2964   */\n      mstore\n        /* \"#utility.yul\":3008:3023   */\n      swap2\n      iszero\n        /* \"#utility.yul\":3001:3024   */\n      iszero\n        /* \"#utility.yul\":2995:2998   */\n      0x0140\n        /* \"#utility.yul\":2980:2999   */\n      dup3\n      add\n        /* \"#utility.yul\":2973:3025   */\n      mstore\n        /* \"#utility.yul\":3056:3059   */\n      0x0160\n        /* \"#utility.yul\":3041:3060   */\n      dup2\n      add\n        /* \"#utility.yul\":3034:3070   */\n      swap2\n      swap1\n      swap2\n      mstore\n        /* \"#utility.yul\":2468:2471   */\n      0x0180\n        /* \"#utility.yul\":2453:2472   */\n      add\n      swap1\n        /* \"#utility.yul\":2435:3076   */\n      jump\t// out\n        /* \"#utility.yul\":3081:3268   */\n    tag_78:\n        /* \"#utility.yul\":3246:3260   */\n      swap1\n      iszero\n        /* \"#utility.yul\":3239:3261   */\n      iszero\n        /* \"#utility.yul\":3221:3262   */\n      dup2\n      mstore\n        /* \"#utility.yul\":3209:3211   */\n      0x20\n        /* \"#utility.yul\":3194:3212   */\n      add\n      swap1\n        /* \"#utility.yul\":3176:3268   */\n      jump\t// out\n        /* \"#utility.yul\":3495:3897   */\n    tag_132:\n        /* \"#utility.yul\":3697:3699   */\n      0x20\n        /* \"#utility.yul\":3679:3700   */\n      dup1\n      dup3\n      mstore\n        /* \"#utility.yul\":3736:3738   */\n      0x26\n        /* \"#utility.yul\":3716:3734   */\n      swap1\n      dup3\n      add\n        /* \"#utility.yul\":3709:3739   */\n      mstore\n        /* \"#utility.yul\":3775:3809   */\n      0x4f776e61626c653a206e6577206f776e657220697320746865207a65726f2061\n        /* \"#utility.yul\":3770:3772   */\n      0x40\n        /* \"#utility.yul\":3755:3773   */\n      dup3\n      add\n        /* \"#utility.yul\":3748:3810   */\n      mstore\n      shl(0xd0, 0x646472657373)\n        /* \"#utility.yul\":3841:3843   */\n      0x60\n        /* \"#utility.yul\":3826:3844   */\n      dup3\n      add\n        /* \"#utility.yul\":3819:3855   */\n      mstore\n        /* \"#utility.yul\":3887:3890   */\n      0x80\n        /* \"#utility.yul\":3872:3891   */\n      add\n      swap1\n        /* \"#utility.yul\":3669:3897   */\n      jump\t// out\n        /* \"#utility.yul\":3902:4258   */\n    tag_106:\n        /* \"#utility.yul\":4104:4106   */\n      0x20\n        /* \"#utility.yul\":4086:4107   */\n      dup1\n      dup3\n      mstore\n        /* \"#utility.yul\":4123:4141   */\n      dup2\n      dup2\n      add\n        /* \"#utility.yul\":4116:4146   */\n      mstore\n        /* \"#utility.yul\":4182:4216   */\n      0x4f776e61626c653a2063616c6c6572206973206e6f7420746865206f776e6572\n        /* \"#utility.yul\":4177:4179   */\n      0x40\n        /* \"#utility.yul\":4162:4180   */\n      dup3\n      add\n        /* \"#utility.yul\":4155:4217   */\n      mstore\n        /* \"#utility.yul\":4249:4251   */\n      0x60\n        /* \"#utility.yul\":4234:4252   */\n      add\n      swap1\n        /* \"#utility.yul\":4076:4258   */\n      jump\t// out\n        /* \"#utility.yul\":4263:4618   */\n    tag_118:\n        /* \"#utility.yul\":4465:4467   */\n      0x20\n        /* \"#utility.yul\":4447:4468   */\n      dup1\n      dup3\n      mstore\n        /* \"#utility.yul\":4504:4506   */\n      0x1f\n        /* \"#utility.yul\":4484:4502   */\n      swap1\n      dup3\n      add\n        /* \"#utility.yul\":4477:4507   */\n      mstore\n        /* \"#utility.yul\":4543:4576   */\n      0x5265656e7472616e637947756172643a207265656e7472616e742063616c6c00\n        /* \"#utility.yul\":4538:4540   */\n      0x40\n        /* \"#utility.yul\":4523:4541   */\n      dup3\n      add\n        /* \"#utility.yul\":4516:4577   */\n      mstore\n        /* \"#utility.yul\":4609:4611   */\n      0x60\n        /* \"#utility.yul\":4594:4612   */\n      add\n      swap1\n        /* \"#utility.yul\":4437:4618   */\n      jump\t// out\n        /* \"#utility.yul\":4623:4800   */\n    tag_30:\n        /* \"#utility.yul\":4769:4794   */\n      swap1\n      dup2\n      mstore\n        /* \"#utility.yul\":4757:4759   */\n      0x20\n        /* \"#utility.yul\":4742:4760   */\n      add\n      swap1\n        /* \"#utility.yul\":4724:4800   */\n      jump\t// out\n        /* \"#utility.yul\":4805:5360   */\n    tag_84:\n        /* \"#utility.yul\":5080:5105   */\n      swap6\n      dup7\n      mstore\n        /* \"#utility.yul\":5136:5138   */\n      0x20\n        /* \"#utility.yul\":5121:5139   */\n      dup7\n      add\n        /* \"#utility.yul\":5114:5148   */\n      swap5\n      swap1\n      swap5\n      mstore\n        /* \"#utility.yul\":5179:5181   */\n      0x40\n        /* \"#utility.yul\":5164:5182   */\n      dup6\n      add\n        /* \"#utility.yul\":5157:5191   */\n      swap3\n      swap1\n      swap3\n      mstore\n        /* \"#utility.yul\":5222:5224   */\n      0x60\n        /* \"#utility.yul\":5207:5225   */\n      dup5\n      add\n        /* \"#utility.yul\":5200:5234   */\n      mstore\n        /* \"#utility.yul\":5278:5292   */\n      iszero\n        /* \"#utility.yul\":5271:5293   */\n      iszero\n        /* \"#utility.yul\":5265:5268   */\n      0x80\n        /* \"#utility.yul\":5250:5269   */\n      dup4\n      add\n        /* \"#utility.yul\":5243:5294   */\n      mstore\n        /* \"#utility.yul\":5338:5352   */\n      iszero\n        /* \"#utility.yul\":5331:5353   */\n      iszero\n        /* \"#utility.yul\":5325:5328   */\n      0xa0\n        /* \"#utility.yul\":5310:5329   */\n      dup3\n      add\n        /* \"#utility.yul\":5303:5354   */\n      mstore\n        /* \"#utility.yul\":5067:5070   */\n      0xc0\n        /* \"#utility.yul\":5052:5071   */\n      add\n      swap1\n        /* \"#utility.yul\":5034:5360   */\n      jump\t// out\n        /* \"#utility.yul\":5365:5900   */\n    tag_64:\n        /* \"#utility.yul\":5652:5677   */\n      swap6\n      dup7\n      mstore\n        /* \"#utility.yul\":5708:5710   */\n      0x20\n        /* \"#utility.yul\":5693:5711   */\n      dup7\n      add\n        /* \"#utility.yul\":5686:5720   */\n      swap5\n      swap1\n      swap5\n      mstore\n        /* \"#utility.yul\":5751:5753   */\n      0x40\n        /* \"#utility.yul\":5736:5754   */\n      dup6\n      add\n        /* \"#utility.yul\":5729:5763   */\n      swap3\n      swap1\n      swap3\n      mstore\n        /* \"#utility.yul\":5794:5796   */\n      0x60\n        /* \"#utility.yul\":5779:5797   */\n      dup5\n      add\n        /* \"#utility.yul\":5772:5806   */\n      mstore\n        /* \"#utility.yul\":5837:5840   */\n      0x80\n        /* \"#utility.yul\":5822:5841   */\n      dup4\n      add\n        /* \"#utility.yul\":5815:5850   */\n      mstore\n        /* \"#utility.yul\":5881:5884   */\n      0xa0\n        /* \"#utility.yul\":5866:5885   */\n      dup3\n      add\n        /* \"#utility.yul\":5859:5894   */\n      mstore\n        /* \"#utility.yul\":5639:5642   */\n      0xc0\n        /* \"#utility.yul\":5624:5643   */\n      add\n      swap1\n        /* \"#utility.yul\":5606:5900   */\n      jump\t// out\n        /* \"#utility.yul\":5905:6032   */\n    tag_162:\n        /* \"#utility.yul\":5966:5976   */\n      0x4e487b71\n        /* \"#utility.yul\":5961:5964   */\n      0xe0\n        /* \"#utility.yul\":5957:5977   */\n      shl\n        /* \"#utility.yul\":5954:5955   */\n      0x00\n        /* \"#utility.yul\":5947:5978   */\n      mstore\n        /* \"#utility.yul\":5997:6001   */\n      0x41\n        /* \"#utility.yul\":5994:5995   */\n      0x04\n        /* \"#utility.yul\":5987:6002   */\n      mstore\n        /* \"#utility.yul\":6021:6025   */\n      0x24\n        /* \"#utility.yul\":6018:6019   */\n      0x00\n        /* \"#utility.yul\":6011:6026   */\n      revert\n        /* \"#utility.yul\":6037:6170   */\n    tag_153:\n      sub(shl(0xa0, 0x01), 0x01)\n        /* \"#utility.yul\":6114:6145   */\n      dup2\n      and\n        /* \"#utility.yul\":6104:6146   */\n      dup2\n      eq\n        /* \"#utility.yul\":6094:6096   */\n      tag_112\n      jumpi\n        /* \"#utility.yul\":6160:6161   */\n      0x00\n        /* \"#utility.yul\":6157:6158   */\n      dup1\n        /* \"#utility.yul\":6150:6162   */\n      revert\n\n    auxdata: 0xa26469706673582212207cb3121ff06ad6f05fd17827fddaa4c64f8b43abf17c31d5a1d9276b2cf7e42264736f6c63430008000033\n}\n",
				"bytecode": {
					"linkReferences": {},
					"object": "608060405260016000556100196100146100a3565b6100a7565b6017805473c778417e063141139fce010982780140aa0cd5ab6001600160a01b031990911617905561006b6019736ccb41eeda5a073076f3e7dc1614c185b5fa41ed6100f9602090811b61052217901c565b50610098734f0b12bbf40fc182559822a5b1db6d34dbc3e01660196100f960201b6105221790919060201c565b506014601855610179565b3390565b600180546001600160a01b038381166001600160a01b0319831681179093556040519116919082907f8be0079c531659141344cd1fd0a4f28419497f9722a3daafe3b4186f6b6457e090600090a35050565b600061010e836001600160a01b038416610117565b90505b92915050565b60006101238383610161565b61015957508154600181810184556000848152602080822090930184905584548482528286019093526040902091909155610111565b506000610111565b60009081526001919091016020526040902054151590565b6108fd806101886000396000f3fe6080604052600436106100f35760003560e01c80638f1eae4c1161008a578063cad5b0f711610059578063cad5b0f71461024a578063e2d3f4231461026c578063f2fde38b1461029e578063f8b2cb4f146102be576100f3565b80638f1eae4c146101db578063acfb2355146101fb578063ad5c464814610222578063b6b55f2514610237576100f3565b806356c5f349116100c657806356c5f3491461017a578063715018a61461019a578063861faf5f146101b15780638da5cb5b146101b9576100f3565b806318856a2f146100f85780631df4ccfc1461012e578063200d2ed2146101505780633b5ef2ad14610165575b600080fd5b34801561010457600080fd5b5061010d6102de565b6040516101259c9b9a9998979695949392919061071d565b60405180910390f35b34801561013a57600080fd5b5061014361031f565b604051610125919061083f565b34801561015c57600080fd5b50610143610325565b34801561017157600080fd5b50610143610353565b34801561018657600080fd5b5061014361019536600461060d565b610359565b3480156101a657600080fd5b506101af61036b565b005b6101af6103bf565b3480156101c557600080fd5b506101ce6103ee565b6040516101259190610709565b3480156101e757600080fd5b506101af6101f6366004610630565b6103fd565b34801561020757600080fd5b50610210610403565b60405161012596959493929190610874565b34801561022e57600080fd5b506101ce610418565b6101af6102453660046106f1565b610427565b34801561025657600080fd5b5061025f610452565b6040516101259190610782565b34801561027857600080fd5b5061028c61028736600461060d565b61046c565b60405161012596959493929190610848565b3480156102aa57600080fd5b506101af6102b936600461060d565b6104a7565b3480156102ca57600080fd5b506101436102d936600461060d565b610515565b600b54600c54600d54600e54600f546010546011546012546013546014546015546016546001600160a01b039b8c169b9a8b169a9099169860ff909116908c565b601b5481565b600f5460009042101561033a57506000610350565b60105442111561034c57506002610350565b5060015b90565b60185481565b60036020526000908152604090205481565b610373610540565b6001600160a01b03166103846103ee565b6001600160a01b0316146103b35760405162461bcd60e51b81526004016103aa906107d3565b60405180910390fd5b6103bd6000610544565b565b60405133904780156108fc02916000818181858888f193505050501580156103eb573d6000803e3d6000fd5b50565b6001546001600160a01b031690565b50505050565b60045460055460065460075460085460095486565b6017546001600160a01b031681565b6002600054141561044a5760405162461bcd60e51b81526004016103aa90610808565b506001600055565b600061046761045f610540565b601990610596565b905090565b600260208190526000918252604090912080546001820154928201546003830154600490930154919392909160ff8082169161010090041686565b6104af610540565b6001600160a01b03166104c06103ee565b6001600160a01b0316146104e65760405162461bcd60e51b81526004016103aa906107d3565b6001600160a01b03811661050c5760405162461bcd60e51b81526004016103aa9061078d565b6103eb81610544565b6001600160a01b03163190565b6000610537836001600160a01b0384166105ab565b90505b92915050565b3390565b600180546001600160a01b038381166001600160a01b0319831681179093556040519116919082907f8be0079c531659141344cd1fd0a4f28419497f9722a3daafe3b4186f6b6457e090600090a35050565b6000610537836001600160a01b0384166105f5565b60006105b783836105f5565b6105ed5750815460018181018455600084815260208082209093018490558454848252828601909352604090209190915561053a565b50600061053a565b60009081526001919091016020526040902054151590565b60006020828403121561061e578081fd5b8135610629816108b2565b9392505050565b600080600080610180808688031215610647578384fd5b8535610652816108b2565b9450602086810135610663816108b2565b94506040870135610673816108b2565b9350607f87018813610683578283fd5b604051610120810181811067ffffffffffffffff821117156106a7576106a761089c565b6040528060608901848a018b10156106bd578586fd5b8594505b60098510156106e05780358252600194909401939083019083016106c1565b505080935050505092959194509250565b600060208284031215610702578081fd5b5035919050565b6001600160a01b0391909116815260200190565b6001600160a01b039c8d1681529a8c1660208c015298909a1660408a01526060890196909652608088019490945260a087019290925260c086015260e08501526101008401526101208301529115156101408201526101608101919091526101800190565b901515815260200190565b60208082526026908201527f4f776e61626c653a206e6577206f776e657220697320746865207a65726f206160408201526564647265737360d01b606082015260800190565b6020808252818101527f4f776e61626c653a2063616c6c6572206973206e6f7420746865206f776e6572604082015260600190565b6020808252601f908201527f5265656e7472616e637947756172643a207265656e7472616e742063616c6c00604082015260600190565b90815260200190565b95865260208601949094526040850192909252606084015215156080830152151560a082015260c00190565b958652602086019490945260408501929092526060840152608083015260a082015260c00190565b634e487b7160e01b600052604160045260246000fd5b6001600160a01b03811681146103eb57600080fdfea26469706673582212207cb3121ff06ad6f05fd17827fddaa4c64f8b43abf17c31d5a1d9276b2cf7e42264736f6c63430008000033",
					"opcodes": "PUSH1 0x80 PUSH1 0x40 MSTORE PUSH1 0x1 PUSH1 0x0 SSTORE PUSH2 0x19 PUSH2 0x14 PUSH2 0xA3 JUMP JUMPDEST PUSH2 0xA7 JUMP JUMPDEST PUSH1 0x17 DUP1 SLOAD PUSH20 0xC778417E063141139FCE010982780140AA0CD5AB PUSH1 0x1 PUSH1 0x1 PUSH1 0xA0 SHL SUB NOT SWAP1 SWAP2 AND OR SWAP1 SSTORE PUSH2 0x6B PUSH1 0x19 PUSH20 0x6CCB41EEDA5A073076F3E7DC1614C185B5FA41ED PUSH2 0xF9 PUSH1 0x20 SWAP1 DUP2 SHL PUSH2 0x522 OR SWAP1 SHR JUMP JUMPDEST POP PUSH2 0x98 PUSH20 0x4F0B12BBF40FC182559822A5B1DB6D34DBC3E016 PUSH1 0x19 PUSH2 0xF9 PUSH1 0x20 SHL PUSH2 0x522 OR SWAP1 SWAP2 SWAP1 PUSH1 0x20 SHR JUMP JUMPDEST POP PUSH1 0x14 PUSH1 0x18 SSTORE PUSH2 0x179 JUMP JUMPDEST CALLER SWAP1 JUMP JUMPDEST PUSH1 0x1 DUP1 SLOAD PUSH1 0x1 PUSH1 0x1 PUSH1 0xA0 SHL SUB DUP4 DUP2 AND PUSH1 0x1 PUSH1 0x1 PUSH1 0xA0 SHL SUB NOT DUP4 AND DUP2 OR SWAP1 SWAP4 SSTORE PUSH1 0x40 MLOAD SWAP2 AND SWAP2 SWAP1 DUP3 SWAP1 PUSH32 0x8BE0079C531659141344CD1FD0A4F28419497F9722A3DAAFE3B4186F6B6457E0 SWAP1 PUSH1 0x0 SWAP1 LOG3 POP POP JUMP JUMPDEST PUSH1 0x0 PUSH2 0x10E DUP4 PUSH1 0x1 PUSH1 0x1 PUSH1 0xA0 SHL SUB DUP5 AND PUSH2 0x117 JUMP JUMPDEST SWAP1 POP JUMPDEST SWAP3 SWAP2 POP POP JUMP JUMPDEST PUSH1 0x0 PUSH2 0x123 DUP4 DUP4 PUSH2 0x161 JUMP JUMPDEST PUSH2 0x159 JUMPI POP DUP2 SLOAD PUSH1 0x1 DUP2 DUP2 ADD DUP5 SSTORE PUSH1 0x0 DUP5 DUP2 MSTORE PUSH1 0x20 DUP1 DUP3 KECCAK256 SWAP1 SWAP4 ADD DUP5 SWAP1 SSTORE DUP5 SLOAD DUP5 DUP3 MSTORE DUP3 DUP7 ADD SWAP1 SWAP4 MSTORE PUSH1 0x40 SWAP1 KECCAK256 SWAP2 SWAP1 SWAP2 SSTORE PUSH2 0x111 JUMP JUMPDEST POP PUSH1 0x0 PUSH2 0x111 JUMP JUMPDEST PUSH1 0x0 SWAP1 DUP2 MSTORE PUSH1 0x1 SWAP2 SWAP1 SWAP2 ADD PUSH1 0x20 MSTORE PUSH1 0x40 SWAP1 KECCAK256 SLOAD ISZERO ISZERO SWAP1 JUMP JUMPDEST PUSH2 0x8FD DUP1 PUSH2 0x188 PUSH1 0x0 CODECOPY PUSH1 0x0 RETURN INVALID PUSH1 0x80 PUSH1 0x40 MSTORE PUSH1 0x4 CALLDATASIZE LT PUSH2 0xF3 JUMPI PUSH1 0x0 CALLDATALOAD PUSH1 0xE0 SHR DUP1 PUSH4 0x8F1EAE4C GT PUSH2 0x8A JUMPI DUP1 PUSH4 0xCAD5B0F7 GT PUSH2 0x59 JUMPI DUP1 PUSH4 0xCAD5B0F7 EQ PUSH2 0x24A JUMPI DUP1 PUSH4 0xE2D3F423 EQ PUSH2 0x26C JUMPI DUP1 PUSH4 0xF2FDE38B EQ PUSH2 0x29E JUMPI DUP1 PUSH4 0xF8B2CB4F EQ PUSH2 0x2BE JUMPI PUSH2 0xF3 JUMP JUMPDEST DUP1 PUSH4 0x8F1EAE4C EQ PUSH2 0x1DB JUMPI DUP1 PUSH4 0xACFB2355 EQ PUSH2 0x1FB JUMPI DUP1 PUSH4 0xAD5C4648 EQ PUSH2 0x222 JUMPI DUP1 PUSH4 0xB6B55F25 EQ PUSH2 0x237 JUMPI PUSH2 0xF3 JUMP JUMPDEST DUP1 PUSH4 0x56C5F349 GT PUSH2 0xC6 JUMPI DUP1 PUSH4 0x56C5F349 EQ PUSH2 0x17A JUMPI DUP1 PUSH4 0x715018A6 EQ PUSH2 0x19A JUMPI DUP1 PUSH4 0x861FAF5F EQ PUSH2 0x1B1 JUMPI DUP1 PUSH4 0x8DA5CB5B EQ PUSH2 0x1B9 JUMPI PUSH2 0xF3 JUMP JUMPDEST DUP1 PUSH4 0x18856A2F EQ PUSH2 0xF8 JUMPI DUP1 PUSH4 0x1DF4CCFC EQ PUSH2 0x12E JUMPI DUP1 PUSH4 0x200D2ED2 EQ PUSH2 0x150 JUMPI DUP1 PUSH4 0x3B5EF2AD EQ PUSH2 0x165 JUMPI JUMPDEST PUSH1 0x0 DUP1 REVERT JUMPDEST CALLVALUE DUP1 ISZERO PUSH2 0x104 JUMPI PUSH1 0x0 DUP1 REVERT JUMPDEST POP PUSH2 0x10D PUSH2 0x2DE JUMP JUMPDEST PUSH1 0x40 MLOAD PUSH2 0x125 SWAP13 SWAP12 SWAP11 SWAP10 SWAP9 SWAP8 SWAP7 SWAP6 SWAP5 SWAP4 SWAP3 SWAP2 SWAP1 PUSH2 0x71D JUMP JUMPDEST PUSH1 0x40 MLOAD DUP1 SWAP2 SUB SWAP1 RETURN JUMPDEST CALLVALUE DUP1 ISZERO PUSH2 0x13A JUMPI PUSH1 0x0 DUP1 REVERT JUMPDEST POP PUSH2 0x143 PUSH2 0x31F JUMP JUMPDEST PUSH1 0x40 MLOAD PUSH2 0x125 SWAP2 SWAP1 PUSH2 0x83F JUMP JUMPDEST CALLVALUE DUP1 ISZERO PUSH2 0x15C JUMPI PUSH1 0x0 DUP1 REVERT JUMPDEST POP PUSH2 0x143 PUSH2 0x325 JUMP JUMPDEST CALLVALUE DUP1 ISZERO PUSH2 0x171 JUMPI PUSH1 0x0 DUP1 REVERT JUMPDEST POP PUSH2 0x143 PUSH2 0x353 JUMP JUMPDEST CALLVALUE DUP1 ISZERO PUSH2 0x186 JUMPI PUSH1 0x0 DUP1 REVERT JUMPDEST POP PUSH2 0x143 PUSH2 0x195 CALLDATASIZE PUSH1 0x4 PUSH2 0x60D JUMP JUMPDEST PUSH2 0x359 JUMP JUMPDEST CALLVALUE DUP1 ISZERO PUSH2 0x1A6 JUMPI PUSH1 0x0 DUP1 REVERT JUMPDEST POP PUSH2 0x1AF PUSH2 0x36B JUMP JUMPDEST STOP JUMPDEST PUSH2 0x1AF PUSH2 0x3BF JUMP JUMPDEST CALLVALUE DUP1 ISZERO PUSH2 0x1C5 JUMPI PUSH1 0x0 DUP1 REVERT JUMPDEST POP PUSH2 0x1CE PUSH2 0x3EE JUMP JUMPDEST PUSH1 0x40 MLOAD PUSH2 0x125 SWAP2 SWAP1 PUSH2 0x709 JUMP JUMPDEST CALLVALUE DUP1 ISZERO PUSH2 0x1E7 JUMPI PUSH1 0x0 DUP1 REVERT JUMPDEST POP PUSH2 0x1AF PUSH2 0x1F6 CALLDATASIZE PUSH1 0x4 PUSH2 0x630 JUMP JUMPDEST PUSH2 0x3FD JUMP JUMPDEST CALLVALUE DUP1 ISZERO PUSH2 0x207 JUMPI PUSH1 0x0 DUP1 REVERT JUMPDEST POP PUSH2 0x210 PUSH2 0x403 JUMP JUMPDEST PUSH1 0x40 MLOAD PUSH2 0x125 SWAP7 SWAP6 SWAP5 SWAP4 SWAP3 SWAP2 SWAP1 PUSH2 0x874 JUMP JUMPDEST CALLVALUE DUP1 ISZERO PUSH2 0x22E JUMPI PUSH1 0x0 DUP1 REVERT JUMPDEST POP PUSH2 0x1CE PUSH2 0x418 JUMP JUMPDEST PUSH2 0x1AF PUSH2 0x245 CALLDATASIZE PUSH1 0x4 PUSH2 0x6F1 JUMP JUMPDEST PUSH2 0x427 JUMP JUMPDEST CALLVALUE DUP1 ISZERO PUSH2 0x256 JUMPI PUSH1 0x0 DUP1 REVERT JUMPDEST POP PUSH2 0x25F PUSH2 0x452 JUMP JUMPDEST PUSH1 0x40 MLOAD PUSH2 0x125 SWAP2 SWAP1 PUSH2 0x782 JUMP JUMPDEST CALLVALUE DUP1 ISZERO PUSH2 0x278 JUMPI PUSH1 0x0 DUP1 REVERT JUMPDEST POP PUSH2 0x28C PUSH2 0x287 CALLDATASIZE PUSH1 0x4 PUSH2 0x60D JUMP JUMPDEST PUSH2 0x46C JUMP JUMPDEST PUSH1 0x40 MLOAD PUSH2 0x125 SWAP7 SWAP6 SWAP5 SWAP4 SWAP3 SWAP2 SWAP1 PUSH2 0x848 JUMP JUMPDEST CALLVALUE DUP1 ISZERO PUSH2 0x2AA JUMPI PUSH1 0x0 DUP1 REVERT JUMPDEST POP PUSH2 0x1AF PUSH2 0x2B9 CALLDATASIZE PUSH1 0x4 PUSH2 0x60D JUMP JUMPDEST PUSH2 0x4A7 JUMP JUMPDEST CALLVALUE DUP1 ISZERO PUSH2 0x2CA JUMPI PUSH1 0x0 DUP1 REVERT JUMPDEST POP PUSH2 0x143 PUSH2 0x2D9 CALLDATASIZE PUSH1 0x4 PUSH2 0x60D JUMP JUMPDEST PUSH2 0x515 JUMP JUMPDEST PUSH1 0xB SLOAD PUSH1 0xC SLOAD PUSH1 0xD SLOAD PUSH1 0xE SLOAD PUSH1 0xF SLOAD PUSH1 0x10 SLOAD PUSH1 0x11 SLOAD PUSH1 0x12 SLOAD PUSH1 0x13 SLOAD PUSH1 0x14 SLOAD PUSH1 0x15 SLOAD PUSH1 0x16 SLOAD PUSH1 0x1 PUSH1 0x1 PUSH1 0xA0 SHL SUB SWAP12 DUP13 AND SWAP12 SWAP11 DUP12 AND SWAP11 SWAP1 SWAP10 AND SWAP9 PUSH1 0xFF SWAP1 SWAP2 AND SWAP1 DUP13 JUMP JUMPDEST PUSH1 0x1B SLOAD DUP2 JUMP JUMPDEST PUSH1 0xF SLOAD PUSH1 0x0 SWAP1 TIMESTAMP LT ISZERO PUSH2 0x33A JUMPI POP PUSH1 0x0 PUSH2 0x350 JUMP JUMPDEST PUSH1 0x10 SLOAD TIMESTAMP GT ISZERO PUSH2 0x34C JUMPI POP PUSH1 0x2 PUSH2 0x350 JUMP JUMPDEST POP PUSH1 0x1 JUMPDEST SWAP1 JUMP JUMPDEST PUSH1 0x18 SLOAD DUP2 JUMP JUMPDEST PUSH1 0x3 PUSH1 0x20 MSTORE PUSH1 0x0 SWAP1 DUP2 MSTORE PUSH1 0x40 SWAP1 KECCAK256 SLOAD DUP2 JUMP JUMPDEST PUSH2 0x373 PUSH2 0x540 JUMP JUMPDEST PUSH1 0x1 PUSH1 0x1 PUSH1 0xA0 SHL SUB AND PUSH2 0x384 PUSH2 0x3EE JUMP JUMPDEST PUSH1 0x1 PUSH1 0x1 PUSH1 0xA0 SHL SUB AND EQ PUSH2 0x3B3 JUMPI PUSH1 0x40 MLOAD PUSH3 0x461BCD PUSH1 0xE5 SHL DUP2 MSTORE PUSH1 0x4 ADD PUSH2 0x3AA SWAP1 PUSH2 0x7D3 JUMP JUMPDEST PUSH1 0x40 MLOAD DUP1 SWAP2 SUB SWAP1 REVERT JUMPDEST PUSH2 0x3BD PUSH1 0x0 PUSH2 0x544 JUMP JUMPDEST JUMP JUMPDEST PUSH1 0x40 MLOAD CALLER SWAP1 SELFBALANCE DUP1 ISZERO PUSH2 0x8FC MUL SWAP2 PUSH1 0x0 DUP2 DUP2 DUP2 DUP6 DUP9 DUP9 CALL SWAP4 POP POP POP POP ISZERO DUP1 ISZERO PUSH2 0x3EB JUMPI RETURNDATASIZE PUSH1 0x0 DUP1 RETURNDATACOPY RETURNDATASIZE PUSH1 0x0 REVERT JUMPDEST POP JUMP JUMPDEST PUSH1 0x1 SLOAD PUSH1 0x1 PUSH1 0x1 PUSH1 0xA0 SHL SUB AND SWAP1 JUMP JUMPDEST POP POP POP POP JUMP JUMPDEST PUSH1 0x4 SLOAD PUSH1 0x5 SLOAD PUSH1 0x6 SLOAD PUSH1 0x7 SLOAD PUSH1 0x8 SLOAD PUSH1 0x9 SLOAD DUP7 JUMP JUMPDEST PUSH1 0x17 SLOAD PUSH1 0x1 PUSH1 0x1 PUSH1 0xA0 SHL SUB AND DUP2 JUMP JUMPDEST PUSH1 0x2 PUSH1 0x0 SLOAD EQ ISZERO PUSH2 0x44A JUMPI PUSH1 0x40 MLOAD PUSH3 0x461BCD PUSH1 0xE5 SHL DUP2 MSTORE PUSH1 0x4 ADD PUSH2 0x3AA SWAP1 PUSH2 0x808 JUMP JUMPDEST POP PUSH1 0x1 PUSH1 0x0 SSTORE JUMP JUMPDEST PUSH1 0x0 PUSH2 0x467 PUSH2 0x45F PUSH2 0x540 JUMP JUMPDEST PUSH1 0x19 SWAP1 PUSH2 0x596 JUMP JUMPDEST SWAP1 POP SWAP1 JUMP JUMPDEST PUSH1 0x2 PUSH1 0x20 DUP2 SWAP1 MSTORE PUSH1 0x0 SWAP2 DUP3 MSTORE PUSH1 0x40 SWAP1 SWAP2 KECCAK256 DUP1 SLOAD PUSH1 0x1 DUP3 ADD SLOAD SWAP3 DUP3 ADD SLOAD PUSH1 0x3 DUP4 ADD SLOAD PUSH1 0x4 SWAP1 SWAP4 ADD SLOAD SWAP2 SWAP4 SWAP3 SWAP1 SWAP2 PUSH1 0xFF DUP1 DUP3 AND SWAP2 PUSH2 0x100 SWAP1 DIV AND DUP7 JUMP JUMPDEST PUSH2 0x4AF PUSH2 0x540 JUMP JUMPDEST PUSH1 0x1 PUSH1 0x1 PUSH1 0xA0 SHL SUB AND PUSH2 0x4C0 PUSH2 0x3EE JUMP JUMPDEST PUSH1 0x1 PUSH1 0x1 PUSH1 0xA0 SHL SUB AND EQ PUSH2 0x4E6 JUMPI PUSH1 0x40 MLOAD PUSH3 0x461BCD PUSH1 0xE5 SHL DUP2 MSTORE PUSH1 0x4 ADD PUSH2 0x3AA SWAP1 PUSH2 0x7D3 JUMP JUMPDEST PUSH1 0x1 PUSH1 0x1 PUSH1 0xA0 SHL SUB DUP2 AND PUSH2 0x50C JUMPI PUSH1 0x40 MLOAD PUSH3 0x461BCD PUSH1 0xE5 SHL DUP2 MSTORE PUSH1 0x4 ADD PUSH2 0x3AA SWAP1 PUSH2 0x78D JUMP JUMPDEST PUSH2 0x3EB DUP2 PUSH2 0x544 JUMP JUMPDEST PUSH1 0x1 PUSH1 0x1 PUSH1 0xA0 SHL SUB AND BALANCE SWAP1 JUMP JUMPDEST PUSH1 0x0 PUSH2 0x537 DUP4 PUSH1 0x1 PUSH1 0x1 PUSH1 0xA0 SHL SUB DUP5 AND PUSH2 0x5AB JUMP JUMPDEST SWAP1 POP JUMPDEST SWAP3 SWAP2 POP POP JUMP JUMPDEST CALLER SWAP1 JUMP JUMPDEST PUSH1 0x1 DUP1 SLOAD PUSH1 0x1 PUSH1 0x1 PUSH1 0xA0 SHL SUB DUP4 DUP2 AND PUSH1 0x1 PUSH1 0x1 PUSH1 0xA0 SHL SUB NOT DUP4 AND DUP2 OR SWAP1 SWAP4 SSTORE PUSH1 0x40 MLOAD SWAP2 AND SWAP2 SWAP1 DUP3 SWAP1 PUSH32 0x8BE0079C531659141344CD1FD0A4F28419497F9722A3DAAFE3B4186F6B6457E0 SWAP1 PUSH1 0x0 SWAP1 LOG3 POP POP JUMP JUMPDEST PUSH1 0x0 PUSH2 0x537 DUP4 PUSH1 0x1 PUSH1 0x1 PUSH1 0xA0 SHL SUB DUP5 AND PUSH2 0x5F5 JUMP JUMPDEST PUSH1 0x0 PUSH2 0x5B7 DUP4 DUP4 PUSH2 0x5F5 JUMP JUMPDEST PUSH2 0x5ED JUMPI POP DUP2 SLOAD PUSH1 0x1 DUP2 DUP2 ADD DUP5 SSTORE PUSH1 0x0 DUP5 DUP2 MSTORE PUSH1 0x20 DUP1 DUP3 KECCAK256 SWAP1 SWAP4 ADD DUP5 SWAP1 SSTORE DUP5 SLOAD DUP5 DUP3 MSTORE DUP3 DUP7 ADD SWAP1 SWAP4 MSTORE PUSH1 0x40 SWAP1 KECCAK256 SWAP2 SWAP1 SWAP2 SSTORE PUSH2 0x53A JUMP JUMPDEST POP PUSH1 0x0 PUSH2 0x53A JUMP JUMPDEST PUSH1 0x0 SWAP1 DUP2 MSTORE PUSH1 0x1 SWAP2 SWAP1 SWAP2 ADD PUSH1 0x20 MSTORE PUSH1 0x40 SWAP1 KECCAK256 SLOAD ISZERO ISZERO SWAP1 JUMP JUMPDEST PUSH1 0x0 PUSH1 0x20 DUP3 DUP5 SUB SLT ISZERO PUSH2 0x61E JUMPI DUP1 DUP2 REVERT JUMPDEST DUP2 CALLDATALOAD PUSH2 0x629 DUP2 PUSH2 0x8B2 JUMP JUMPDEST SWAP4 SWAP3 POP POP POP JUMP JUMPDEST PUSH1 0x0 DUP1 PUSH1 0x0 DUP1 PUSH2 0x180 DUP1 DUP7 DUP9 SUB SLT ISZERO PUSH2 0x647 JUMPI DUP4 DUP5 REVERT JUMPDEST DUP6 CALLDATALOAD PUSH2 0x652 DUP2 PUSH2 0x8B2 JUMP JUMPDEST SWAP5 POP PUSH1 0x20 DUP7 DUP2 ADD CALLDATALOAD PUSH2 0x663 DUP2 PUSH2 0x8B2 JUMP JUMPDEST SWAP5 POP PUSH1 0x40 DUP8 ADD CALLDATALOAD PUSH2 0x673 DUP2 PUSH2 0x8B2 JUMP JUMPDEST SWAP4 POP PUSH1 0x7F DUP8 ADD DUP9 SGT PUSH2 0x683 JUMPI DUP3 DUP4 REVERT JUMPDEST PUSH1 0x40 MLOAD PUSH2 0x120 DUP2 ADD DUP2 DUP2 LT PUSH8 0xFFFFFFFFFFFFFFFF DUP3 GT OR ISZERO PUSH2 0x6A7 JUMPI PUSH2 0x6A7 PUSH2 0x89C JUMP JUMPDEST PUSH1 0x40 MSTORE DUP1 PUSH1 0x60 DUP10 ADD DUP5 DUP11 ADD DUP12 LT ISZERO PUSH2 0x6BD JUMPI DUP6 DUP7 REVERT JUMPDEST DUP6 SWAP5 POP JUMPDEST PUSH1 0x9 DUP6 LT ISZERO PUSH2 0x6E0 JUMPI DUP1 CALLDATALOAD DUP3 MSTORE PUSH1 0x1 SWAP5 SWAP1 SWAP5 ADD SWAP4 SWAP1 DUP4 ADD SWAP1 DUP4 ADD PUSH2 0x6C1 JUMP JUMPDEST POP POP DUP1 SWAP4 POP POP POP POP SWAP3 SWAP6 SWAP2 SWAP5 POP SWAP3 POP JUMP JUMPDEST PUSH1 0x0 PUSH1 0x20 DUP3 DUP5 SUB SLT ISZERO PUSH2 0x702 JUMPI DUP1 DUP2 REVERT JUMPDEST POP CALLDATALOAD SWAP2 SWAP1 POP JUMP JUMPDEST PUSH1 0x1 PUSH1 0x1 PUSH1 0xA0 SHL SUB SWAP2 SWAP1 SWAP2 AND DUP2 MSTORE PUSH1 0x20 ADD SWAP1 JUMP JUMPDEST PUSH1 0x1 PUSH1 0x1 PUSH1 0xA0 SHL SUB SWAP13 DUP14 AND DUP2 MSTORE SWAP11 DUP13 AND PUSH1 0x20 DUP13 ADD MSTORE SWAP9 SWAP1 SWAP11 AND PUSH1 0x40 DUP11 ADD MSTORE PUSH1 0x60 DUP10 ADD SWAP7 SWAP1 SWAP7 MSTORE PUSH1 0x80 DUP9 ADD SWAP5 SWAP1 SWAP5 MSTORE PUSH1 0xA0 DUP8 ADD SWAP3 SWAP1 SWAP3 MSTORE PUSH1 0xC0 DUP7 ADD MSTORE PUSH1 0xE0 DUP6 ADD MSTORE PUSH2 0x100 DUP5 ADD MSTORE PUSH2 0x120 DUP4 ADD MSTORE SWAP2 ISZERO ISZERO PUSH2 0x140 DUP3 ADD MSTORE PUSH2 0x160 DUP2 ADD SWAP2 SWAP1 SWAP2 MSTORE PUSH2 0x180 ADD SWAP1 JUMP JUMPDEST SWAP1 ISZERO ISZERO DUP2 MSTORE PUSH1 0x20 ADD SWAP1 JUMP JUMPDEST PUSH1 0x20 DUP1 DUP3 MSTORE PUSH1 0x26 SWAP1 DUP3 ADD MSTORE PUSH32 0x4F776E61626C653A206E6577206F776E657220697320746865207A65726F2061 PUSH1 0x40 DUP3 ADD MSTORE PUSH6 0x646472657373 PUSH1 0xD0 SHL PUSH1 0x60 DUP3 ADD MSTORE PUSH1 0x80 ADD SWAP1 JUMP JUMPDEST PUSH1 0x20 DUP1 DUP3 MSTORE DUP2 DUP2 ADD MSTORE PUSH32 0x4F776E61626C653A2063616C6C6572206973206E6F7420746865206F776E6572 PUSH1 0x40 DUP3 ADD MSTORE PUSH1 0x60 ADD SWAP1 JUMP JUMPDEST PUSH1 0x20 DUP1 DUP3 MSTORE PUSH1 0x1F SWAP1 DUP3 ADD MSTORE PUSH32 0x5265656E7472616E637947756172643A207265656E7472616E742063616C6C00 PUSH1 0x40 DUP3 ADD MSTORE PUSH1 0x60 ADD SWAP1 JUMP JUMPDEST SWAP1 DUP2 MSTORE PUSH1 0x20 ADD SWAP1 JUMP JUMPDEST SWAP6 DUP7 MSTORE PUSH1 0x20 DUP7 ADD SWAP5 SWAP1 SWAP5 MSTORE PUSH1 0x40 DUP6 ADD SWAP3 SWAP1 SWAP3 MSTORE PUSH1 0x60 DUP5 ADD MSTORE ISZERO ISZERO PUSH1 0x80 DUP4 ADD MSTORE ISZERO ISZERO PUSH1 0xA0 DUP3 ADD MSTORE PUSH1 0xC0 ADD SWAP1 JUMP JUMPDEST SWAP6 DUP7 MSTORE PUSH1 0x20 DUP7 ADD SWAP5 SWAP1 SWAP5 MSTORE PUSH1 0x40 DUP6 ADD SWAP3 SWAP1 SWAP3 MSTORE PUSH1 0x60 DUP5 ADD MSTORE PUSH1 0x80 DUP4 ADD MSTORE PUSH1 0xA0 DUP3 ADD MSTORE PUSH1 0xC0 ADD SWAP1 JUMP JUMPDEST PUSH4 0x4E487B71 PUSH1 0xE0 SHL PUSH1 0x0 MSTORE PUSH1 0x41 PUSH1 0x4 MSTORE PUSH1 0x24 PUSH1 0x0 REVERT JUMPDEST PUSH1 0x1 PUSH1 0x1 PUSH1 0xA0 SHL SUB DUP2 AND DUP2 EQ PUSH2 0x3EB JUMPI PUSH1 0x0 DUP1 REVERT INVALID LOG2 PUSH5 0x6970667358 0x22 SLT KECCAK256 PUSH29 0xB3121FF06AD6F05FD17827FDDAA4C64F8B43ABF17C31D5A1D9276B2CF7 0xE4 0x22 PUSH5 0x736F6C6343 STOP ADDMOD STOP STOP CALLER "
				},
				"gasEstimates": {
					"creation": {
						"codeDepositCost": "460200",
						"executionCost": "infinite",
						"totalCost": "infinite"
					},
					"external": {
						"WETH()": "1137",
						"backToken()": "infinite",
						"buyerInfo(address)": "4705",
						"checkAdminAddress()": "1277",
						"deposit(uint256)": "21120",
						"feeAnyone()": "1118",
						"getBalance(address)": "1183",
						"initialSaleInfor(address,address,address,uint256[9])": "infinite",
						"owner()": "1159",
						"presaleStatus()": "5196",
						"renounceOwnership()": "23552",
						"saleInfor()": "10236",
						"status()": "1965",
						"totalFee()": "1074",
						"transferOwnership(address)": "infinite",
						"userFee(address)": "1269"
					}
				},
				"methodIdentifiers": {
					"WETH()": "ad5c4648",
					"backToken()": "861faf5f",
					"buyerInfo(address)": "e2d3f423",
					"checkAdminAddress()": "cad5b0f7",
					"deposit(uint256)": "b6b55f25",
					"feeAnyone()": "3b5ef2ad",
					"getBalance(address)": "f8b2cb4f",
					"initialSaleInfor(address,address,address,uint256[9])": "8f1eae4c",
					"owner()": "8da5cb5b",
					"presaleStatus()": "acfb2355",
					"renounceOwnership()": "715018a6",
					"saleInfor()": "18856a2f",
					"status()": "200d2ed2",
					"totalFee()": "1df4ccfc",
					"transferOwnership(address)": "f2fde38b",
					"userFee(address)": "56c5f349"
				}
			},
			"storageLayout": {
				"storage": [
					{
						"astId": 1671,
						"contract": "Ethereum/Presale.sol:Presale",
						"label": "_status",
						"offset": 0,
						"slot": "0",
						"type": "t_uint256"
					},
					{
						"astId": 1563,
						"contract": "Ethereum/Presale.sol:Presale",
						"label": "_owner",
						"offset": 0,
						"slot": "1",
						"type": "t_address"
					},
					{
						"astId": 769,
						"contract": "Ethereum/Presale.sol:Presale",
						"label": "buyerInfo",
						"offset": 0,
						"slot": "2",
						"type": "t_mapping(t_address,t_struct(BuyerInfo)748_storage)"
					},
					{
						"astId": 773,
						"contract": "Ethereum/Presale.sol:Presale",
						"label": "userFee",
						"offset": 0,
						"slot": "3",
						"type": "t_mapping(t_address,t_uint256)"
					},
					{
						"astId": 776,
						"contract": "Ethereum/Presale.sol:Presale",
						"label": "presaleStatus",
						"offset": 0,
						"slot": "4",
						"type": "t_struct(PresaleStatus)764_storage"
					},
					{
						"astId": 779,
						"contract": "Ethereum/Presale.sol:Presale",
						"label": "saleInfor",
						"offset": 0,
						"slot": "11",
						"type": "t_struct(SaleInfor)735_storage"
					},
					{
						"astId": 782,
						"contract": "Ethereum/Presale.sol:Presale",
						"label": "WETH",
						"offset": 0,
						"slot": "23",
						"type": "t_contract(IERC20)663"
					},
					{
						"astId": 784,
						"contract": "Ethereum/Presale.sol:Presale",
						"label": "feeAnyone",
						"offset": 0,
						"slot": "24",
						"type": "t_uint256"
					},
					{
						"astId": 787,
						"contract": "Ethereum/Presale.sol:Presale",
						"label": "admins",
						"offset": 0,
						"slot": "25",
						"type": "t_struct(AddressSet)1268_storage"
					},
					{
						"astId": 789,
						"contract": "Ethereum/Presale.sol:Presale",
						"label": "totalFee",
						"offset": 0,
						"slot": "27",
						"type": "t_uint256"
					}
				],
				"types": {
					"t_address": {
						"encoding": "inplace",
						"label": "address",
						"numberOfBytes": "20"
					},
					"t_address_payable": {
						"encoding": "inplace",
						"label": "address payable",
						"numberOfBytes": "20"
					},
					"t_array(t_address)dyn_storage": {
						"base": "t_address",
						"encoding": "dynamic_array",
						"label": "address[]",
						"numberOfBytes": "32"
					},
					"t_array(t_bytes32)dyn_storage": {
						"base": "t_bytes32",
						"encoding": "dynamic_array",
						"label": "bytes32[]",
						"numberOfBytes": "32"
					},
					"t_bool": {
						"encoding": "inplace",
						"label": "bool",
						"numberOfBytes": "1"
					},
					"t_bytes32": {
						"encoding": "inplace",
						"label": "bytes32",
						"numberOfBytes": "32"
					},
					"t_contract(ERC20)585": {
						"encoding": "inplace",
						"label": "contract ERC20",
						"numberOfBytes": "20"
					},
					"t_contract(IERC20)663": {
						"encoding": "inplace",
						"label": "contract IERC20",
						"numberOfBytes": "20"
					},
					"t_mapping(t_address,t_struct(BuyerInfo)748_storage)": {
						"encoding": "mapping",
						"key": "t_address",
						"label": "mapping(address => struct Presale.BuyerInfo)",
						"numberOfBytes": "32",
						"value": "t_struct(BuyerInfo)748_storage"
					},
					"t_mapping(t_address,t_uint256)": {
						"encoding": "mapping",
						"key": "t_address",
						"label": "mapping(address => uint256)",
						"numberOfBytes": "32",
						"value": "t_uint256"
					},
					"t_mapping(t_bytes32,t_uint256)": {
						"encoding": "mapping",
						"key": "t_bytes32",
						"label": "mapping(bytes32 => uint256)",
						"numberOfBytes": "32",
						"value": "t_uint256"
					},
					"t_struct(AddressSet)1268_storage": {
						"encoding": "inplace",
						"label": "struct EnumerableSet.AddressSet",
						"members": [
							{
								"astId": 1267,
								"contract": "Ethereum/Presale.sol:Presale",
								"label": "_inner",
								"offset": 0,
								"slot": "0",
								"type": "t_struct(Set)967_storage"
							}
						],
						"numberOfBytes": "64"
					},
					"t_struct(BuyerInfo)748_storage": {
						"encoding": "inplace",
						"label": "struct Presale.BuyerInfo",
						"members": [
							{
								"astId": 737,
								"contract": "Ethereum/Presale.sol:Presale",
								"label": "baseDeposit",
								"offset": 0,
								"slot": "0",
								"type": "t_uint256"
							},
							{
								"astId": 739,
								"contract": "Ethereum/Presale.sol:Presale",
								"label": "tokenOwner",
								"offset": 0,
								"slot": "1",
								"type": "t_uint256"
							},
							{
								"astId": 741,
								"contract": "Ethereum/Presale.sol:Presale",
								"label": "lastWithDraw",
								"offset": 0,
								"slot": "2",
								"type": "t_uint256"
							},
							{
								"astId": 743,
								"contract": "Ethereum/Presale.sol:Presale",
								"label": "totalTokenWithDraw",
								"offset": 0,
								"slot": "3",
								"type": "t_uint256"
							},
							{
								"astId": 745,
								"contract": "Ethereum/Presale.sol:Presale",
								"label": "isRefund",
								"offset": 0,
								"slot": "4",
								"type": "t_bool"
							},
							{
								"astId": 747,
								"contract": "Ethereum/Presale.sol:Presale",
								"label": "isClaim",
								"offset": 1,
								"slot": "4",
								"type": "t_bool"
							}
						],
						"numberOfBytes": "160"
					},
					"t_struct(PresaleStatus)764_storage": {
						"encoding": "inplace",
						"label": "struct Presale.PresaleStatus",
						"members": [
							{
								"astId": 750,
								"contract": "Ethereum/Presale.sol:Presale",
								"label": "totalBaseCollected",
								"offset": 0,
								"slot": "0",
								"type": "t_uint256"
							},
							{
								"astId": 752,
								"contract": "Ethereum/Presale.sol:Presale",
								"label": "totalTokenSold",
								"offset": 0,
								"slot": "1",
								"type": "t_uint256"
							},
							{
								"astId": 754,
								"contract": "Ethereum/Presale.sol:Presale",
								"label": "totalTokenWithDraw",
								"offset": 0,
								"slot": "2",
								"type": "t_uint256"
							},
							{
								"astId": 756,
								"contract": "Ethereum/Presale.sol:Presale",
								"label": "totalBaseWithDraw",
								"offset": 0,
								"slot": "3",
								"type": "t_uint256"
							},
							{
								"astId": 758,
								"contract": "Ethereum/Presale.sol:Presale",
								"label": "numberBuyer",
								"offset": 0,
								"slot": "4",
								"type": "t_uint256"
							},
							{
								"astId": 760,
								"contract": "Ethereum/Presale.sol:Presale",
								"label": "totalFee",
								"offset": 0,
								"slot": "5",
								"type": "t_uint256"
							},
							{
								"astId": 763,
								"contract": "Ethereum/Presale.sol:Presale",
								"label": "admin",
								"offset": 0,
								"slot": "6",
								"type": "t_array(t_address)dyn_storage"
							}
						],
						"numberOfBytes": "224"
					},
					"t_struct(SaleInfor)735_storage": {
						"encoding": "inplace",
						"label": "struct Presale.SaleInfor",
						"members": [
							{
								"astId": 710,
								"contract": "Ethereum/Presale.sol:Presale",
								"label": "presaleOwner",
								"offset": 0,
								"slot": "0",
								"type": "t_address_payable"
							},
							{
								"astId": 713,
								"contract": "Ethereum/Presale.sol:Presale",
								"label": "saleToken",
								"offset": 0,
								"slot": "1",
								"type": "t_contract(ERC20)585"
							},
							{
								"astId": 716,
								"contract": "Ethereum/Presale.sol:Presale",
								"label": "baseToken",
								"offset": 0,
								"slot": "2",
								"type": "t_contract(ERC20)585"
							},
							{
								"astId": 718,
								"contract": "Ethereum/Presale.sol:Presale",
								"label": "tokenPrice",
								"offset": 0,
								"slot": "3",
								"type": "t_uint256"
							},
							{
								"astId": 720,
								"contract": "Ethereum/Presale.sol:Presale",
								"label": "startSale",
								"offset": 0,
								"slot": "4",
								"type": "t_uint256"
							},
							{
								"astId": 722,
								"contract": "Ethereum/Presale.sol:Presale",
								"label": "endSale",
								"offset": 0,
								"slot": "5",
								"type": "t_uint256"
							},
							{
								"astId": 724,
								"contract": "Ethereum/Presale.sol:Presale",
								"label": "minSpendPerBuyer",
								"offset": 0,
								"slot": "6",
								"type": "t_uint256"
							},
							{
								"astId": 726,
								"contract": "Ethereum/Presale.sol:Presale",
								"label": "maxSpendPerBuyer",
								"offset": 0,
								"slot": "7",
								"type": "t_uint256"
							},
							{
								"astId": 728,
								"contract": "Ethereum/Presale.sol:Presale",
								"label": "refundFee",
								"offset": 0,
								"slot": "8",
								"type": "t_uint256"
							},
							{
								"astId": 730,
								"contract": "Ethereum/Presale.sol:Presale",
								"label": "claimFee",
								"offset": 0,
								"slot": "9",
								"type": "t_uint256"
							},
							{
								"astId": 732,
								"contract": "Ethereum/Presale.sol:Presale",
								"label": "saleIsBaseToken",
								"offset": 0,
								"slot": "10",
								"type": "t_bool"
							},
							{
								"astId": 734,
								"contract": "Ethereum/Presale.sol:Presale",
								"label": "amountTokenForSale",
								"offset": 0,
								"slot": "11",
								"type": "t_uint256"
							}
						],
						"numberOfBytes": "384"
					},
					"t_struct(Set)967_storage": {
						"encoding": "inplace",
						"label": "struct EnumerableSet.Set",
						"members": [
							{
								"astId": 962,
								"contract": "Ethereum/Presale.sol:Presale",
								"label": "_values",
								"offset": 0,
								"slot": "0",
								"type": "t_array(t_bytes32)dyn_storage"
							},
							{
								"astId": 966,
								"contract": "Ethereum/Presale.sol:Presale",
								"label": "_indexes",
								"offset": 0,
								"slot": "1",
								"type": "t_mapping(t_bytes32,t_uint256)"
							}
						],
						"numberOfBytes": "64"
					},
					"t_uint256": {
						"encoding": "inplace",
						"label": "uint256",
						"numberOfBytes": "32"
					}
				}
			},
			"userdoc": {
				"kind": "user",
				"methods": {},
				"version": 1
			}
		}
	}
}