{
	"Ethereum/Presale.sol": {
		"Presale": {
			"abi": [
				{
					"inputs": [
						{
							"internalType": "address",
							"name": "",
							"type": "address"
						}
					],
					"name": "buyerInfo",
					"outputs": [
						{
							"internalType": "address",
							"name": "buyer",
							"type": "address"
						},
						{
							"internalType": "uint256",
							"name": "baseDeposit",
							"type": "uint256"
						},
						{
							"internalType": "uint256",
							"name": "tokenOwner",
							"type": "uint256"
						},
						{
							"internalType": "uint256",
							"name": "lastWithDraw",
							"type": "uint256"
						},
						{
							"internalType": "uint256",
							"name": "totalTokenWithDraw",
							"type": "uint256"
						},
						{
							"internalType": "bool",
							"name": "isRefund",
							"type": "bool"
						},
						{
							"internalType": "bool",
							"name": "isClaim",
							"type": "bool"
						}
					],
					"stateMutability": "view",
					"type": "function"
				},
				{
					"inputs": [
						{
							"internalType": "address",
							"name": "",
							"type": "address"
						}
					],
					"name": "userFee",
					"outputs": [
						{
							"internalType": "uint256",
							"name": "",
							"type": "uint256"
						}
					],
					"stateMutability": "view",
					"type": "function"
				}
			],
			"devdoc": {
				"kind": "dev",
				"methods": {},
				"version": 1
			},
			"evm": {
				"assembly": "    /* \"Ethereum/Presale.sol\":153:1155  contract Presale{\r... */\n  mstore(0x40, 0x80)\n  callvalue\n  dup1\n  iszero\n  tag_1\n  jumpi\n  0x00\n  dup1\n  revert\ntag_1:\n  pop\n  dataSize(sub_0)\n  dup1\n  dataOffset(sub_0)\n  0x00\n  codecopy\n  0x00\n  return\nstop\n\nsub_0: assembly {\n        /* \"Ethereum/Presale.sol\":153:1155  contract Presale{\r... */\n      mstore(0x40, 0x80)\n      callvalue\n      dup1\n      iszero\n      tag_1\n      jumpi\n      0x00\n      dup1\n      revert\n    tag_1:\n      pop\n      jumpi(tag_2, lt(calldatasize, 0x04))\n      shr(0xe0, calldataload(0x00))\n      dup1\n      0x56c5f349\n      eq\n      tag_3\n      jumpi\n      dup1\n      0xe2d3f423\n      eq\n      tag_4\n      jumpi\n    tag_2:\n      0x00\n      dup1\n      revert\n        /* \"Ethereum/Presale.sol\":1089:1131  mapping(address => uint256) public userFee */\n    tag_3:\n      tag_5\n      0x04\n      dup1\n      calldatasize\n      sub\n      dup2\n      add\n      swap1\n      tag_6\n      swap2\n      swap1\n      tag_7\n      jump\t// in\n    tag_6:\n      tag_8\n      jump\t// in\n    tag_5:\n      mload(0x40)\n      tag_9\n      swap2\n      swap1\n      tag_10\n      jump\t// in\n    tag_9:\n      mload(0x40)\n      dup1\n      swap2\n      sub\n      swap1\n      return\n        /* \"Ethereum/Presale.sol\":1036:1082  mapping(address => BuyerInfo) public buyerInfo */\n    tag_4:\n      tag_11\n      0x04\n      dup1\n      calldatasize\n      sub\n      dup2\n      add\n      swap1\n      tag_12\n      swap2\n      swap1\n      tag_7\n      jump\t// in\n    tag_12:\n      tag_13\n      jump\t// in\n    tag_11:\n      mload(0x40)\n      tag_14\n      swap8\n      swap7\n      swap6\n      swap5\n      swap4\n      swap3\n      swap2\n      swap1\n      tag_15\n      jump\t// in\n    tag_14:\n      mload(0x40)\n      dup1\n      swap2\n      sub\n      swap1\n      return\n        /* \"Ethereum/Presale.sol\":1089:1131  mapping(address => uint256) public userFee */\n    tag_8:\n      mstore(0x20, 0x01)\n      dup1\n      0x00\n      mstore\n      keccak256(0x00, 0x40)\n      0x00\n      swap2\n      pop\n      swap1\n      pop\n      sload\n      dup2\n      jump\t// out\n        /* \"Ethereum/Presale.sol\":1036:1082  mapping(address => BuyerInfo) public buyerInfo */\n    tag_13:\n      mstore(0x20, 0x00)\n      dup1\n      0x00\n      mstore\n      keccak256(0x00, 0x40)\n      0x00\n      swap2\n      pop\n      swap1\n      pop\n      dup1\n      0x00\n      add\n      0x00\n      swap1\n      sload\n      swap1\n      0x0100\n      exp\n      swap1\n      div\n      0xffffffffffffffffffffffffffffffffffffffff\n      and\n      swap1\n      dup1\n      0x01\n      add\n      sload\n      swap1\n      dup1\n      0x02\n      add\n      sload\n      swap1\n      dup1\n      0x03\n      add\n      sload\n      swap1\n      dup1\n      0x04\n      add\n      sload\n      swap1\n      dup1\n      0x05\n      add\n      0x00\n      swap1\n      sload\n      swap1\n      0x0100\n      exp\n      swap1\n      div\n      0xff\n      and\n      swap1\n      dup1\n      0x05\n      add\n      0x01\n      swap1\n      sload\n      swap1\n      0x0100\n      exp\n      swap1\n      div\n      0xff\n      and\n      swap1\n      pop\n      dup8\n      jump\t// out\n        /* \"#utility.yul\":7:146   */\n    tag_17:\n      0x00\n        /* \"#utility.yul\":91:97   */\n      dup2\n        /* \"#utility.yul\":78:98   */\n      calldataload\n        /* \"#utility.yul\":69:98   */\n      swap1\n      pop\n        /* \"#utility.yul\":107:140   */\n      tag_19\n        /* \"#utility.yul\":134:139   */\n      dup2\n        /* \"#utility.yul\":107:140   */\n      tag_20\n      jump\t// in\n    tag_19:\n        /* \"#utility.yul\":59:146   */\n      swap3\n      swap2\n      pop\n      pop\n      jump\t// out\n        /* \"#utility.yul\":152:414   */\n    tag_7:\n      0x00\n        /* \"#utility.yul\":260:262   */\n      0x20\n        /* \"#utility.yul\":248:257   */\n      dup3\n        /* \"#utility.yul\":239:246   */\n      dup5\n        /* \"#utility.yul\":235:258   */\n      sub\n        /* \"#utility.yul\":231:263   */\n      slt\n        /* \"#utility.yul\":228:230   */\n      iszero\n      tag_22\n      jumpi\n        /* \"#utility.yul\":276:277   */\n      0x00\n        /* \"#utility.yul\":273:274   */\n      dup1\n        /* \"#utility.yul\":266:278   */\n      revert\n        /* \"#utility.yul\":228:230   */\n    tag_22:\n        /* \"#utility.yul\":319:320   */\n      0x00\n        /* \"#utility.yul\":344:397   */\n      tag_23\n        /* \"#utility.yul\":389:396   */\n      dup5\n        /* \"#utility.yul\":380:386   */\n      dup3\n        /* \"#utility.yul\":369:378   */\n      dup6\n        /* \"#utility.yul\":365:387   */\n      add\n        /* \"#utility.yul\":344:397   */\n      tag_17\n      jump\t// in\n    tag_23:\n        /* \"#utility.yul\":334:397   */\n      swap2\n      pop\n        /* \"#utility.yul\":290:407   */\n      pop\n        /* \"#utility.yul\":218:414   */\n      swap3\n      swap2\n      pop\n      pop\n      jump\t// out\n        /* \"#utility.yul\":420:538   */\n    tag_24:\n        /* \"#utility.yul\":507:531   */\n      tag_26\n        /* \"#utility.yul\":525:530   */\n      dup2\n        /* \"#utility.yul\":507:531   */\n      tag_27\n      jump\t// in\n    tag_26:\n        /* \"#utility.yul\":502:505   */\n      dup3\n        /* \"#utility.yul\":495:532   */\n      mstore\n        /* \"#utility.yul\":485:538   */\n      pop\n      pop\n      jump\t// out\n        /* \"#utility.yul\":544:653   */\n    tag_28:\n        /* \"#utility.yul\":625:646   */\n      tag_30\n        /* \"#utility.yul\":640:645   */\n      dup2\n        /* \"#utility.yul\":625:646   */\n      tag_31\n      jump\t// in\n    tag_30:\n        /* \"#utility.yul\":620:623   */\n      dup3\n        /* \"#utility.yul\":613:647   */\n      mstore\n        /* \"#utility.yul\":603:653   */\n      pop\n      pop\n      jump\t// out\n        /* \"#utility.yul\":659:777   */\n    tag_32:\n        /* \"#utility.yul\":746:770   */\n      tag_34\n        /* \"#utility.yul\":764:769   */\n      dup2\n        /* \"#utility.yul\":746:770   */\n      tag_35\n      jump\t// in\n    tag_34:\n        /* \"#utility.yul\":741:744   */\n      dup3\n        /* \"#utility.yul\":734:771   */\n      mstore\n        /* \"#utility.yul\":724:777   */\n      pop\n      pop\n      jump\t// out\n        /* \"#utility.yul\":783:1645   */\n    tag_15:\n      0x00\n        /* \"#utility.yul\":1070:1073   */\n      0xe0\n        /* \"#utility.yul\":1059:1068   */\n      dup3\n        /* \"#utility.yul\":1055:1074   */\n      add\n        /* \"#utility.yul\":1047:1074   */\n      swap1\n      pop\n        /* \"#utility.yul\":1084:1155   */\n      tag_37\n        /* \"#utility.yul\":1152:1153   */\n      0x00\n        /* \"#utility.yul\":1141:1150   */\n      dup4\n        /* \"#utility.yul\":1137:1154   */\n      add\n        /* \"#utility.yul\":1128:1134   */\n      dup11\n        /* \"#utility.yul\":1084:1155   */\n      tag_24\n      jump\t// in\n    tag_37:\n        /* \"#utility.yul\":1165:1237   */\n      tag_38\n        /* \"#utility.yul\":1233:1235   */\n      0x20\n        /* \"#utility.yul\":1222:1231   */\n      dup4\n        /* \"#utility.yul\":1218:1236   */\n      add\n        /* \"#utility.yul\":1209:1215   */\n      dup10\n        /* \"#utility.yul\":1165:1237   */\n      tag_32\n      jump\t// in\n    tag_38:\n        /* \"#utility.yul\":1247:1319   */\n      tag_39\n        /* \"#utility.yul\":1315:1317   */\n      0x40\n        /* \"#utility.yul\":1304:1313   */\n      dup4\n        /* \"#utility.yul\":1300:1318   */\n      add\n        /* \"#utility.yul\":1291:1297   */\n      dup9\n        /* \"#utility.yul\":1247:1319   */\n      tag_32\n      jump\t// in\n    tag_39:\n        /* \"#utility.yul\":1329:1401   */\n      tag_40\n        /* \"#utility.yul\":1397:1399   */\n      0x60\n        /* \"#utility.yul\":1386:1395   */\n      dup4\n        /* \"#utility.yul\":1382:1400   */\n      add\n        /* \"#utility.yul\":1373:1379   */\n      dup8\n        /* \"#utility.yul\":1329:1401   */\n      tag_32\n      jump\t// in\n    tag_40:\n        /* \"#utility.yul\":1411:1484   */\n      tag_41\n        /* \"#utility.yul\":1479:1482   */\n      0x80\n        /* \"#utility.yul\":1468:1477   */\n      dup4\n        /* \"#utility.yul\":1464:1483   */\n      add\n        /* \"#utility.yul\":1455:1461   */\n      dup7\n        /* \"#utility.yul\":1411:1484   */\n      tag_32\n      jump\t// in\n    tag_41:\n        /* \"#utility.yul\":1494:1561   */\n      tag_42\n        /* \"#utility.yul\":1556:1559   */\n      0xa0\n        /* \"#utility.yul\":1545:1554   */\n      dup4\n        /* \"#utility.yul\":1541:1560   */\n      add\n        /* \"#utility.yul\":1532:1538   */\n      dup6\n        /* \"#utility.yul\":1494:1561   */\n      tag_28\n      jump\t// in\n    tag_42:\n        /* \"#utility.yul\":1571:1638   */\n      tag_43\n        /* \"#utility.yul\":1633:1636   */\n      0xc0\n        /* \"#utility.yul\":1622:1631   */\n      dup4\n        /* \"#utility.yul\":1618:1637   */\n      add\n        /* \"#utility.yul\":1609:1615   */\n      dup5\n        /* \"#utility.yul\":1571:1638   */\n      tag_28\n      jump\t// in\n    tag_43:\n        /* \"#utility.yul\":1037:1645   */\n      swap9\n      swap8\n      pop\n      pop\n      pop\n      pop\n      pop\n      pop\n      pop\n      pop\n      jump\t// out\n        /* \"#utility.yul\":1651:1873   */\n    tag_10:\n      0x00\n        /* \"#utility.yul\":1782:1784   */\n      0x20\n        /* \"#utility.yul\":1771:1780   */\n      dup3\n        /* \"#utility.yul\":1767:1785   */\n      add\n        /* \"#utility.yul\":1759:1785   */\n      swap1\n      pop\n        /* \"#utility.yul\":1795:1866   */\n      tag_45\n        /* \"#utility.yul\":1863:1864   */\n      0x00\n        /* \"#utility.yul\":1852:1861   */\n      dup4\n        /* \"#utility.yul\":1848:1865   */\n      add\n        /* \"#utility.yul\":1839:1845   */\n      dup5\n        /* \"#utility.yul\":1795:1866   */\n      tag_32\n      jump\t// in\n    tag_45:\n        /* \"#utility.yul\":1749:1873   */\n      swap3\n      swap2\n      pop\n      pop\n      jump\t// out\n        /* \"#utility.yul\":1879:1975   */\n    tag_27:\n      0x00\n        /* \"#utility.yul\":1945:1969   */\n      tag_47\n        /* \"#utility.yul\":1963:1968   */\n      dup3\n        /* \"#utility.yul\":1945:1969   */\n      tag_48\n      jump\t// in\n    tag_47:\n        /* \"#utility.yul\":1934:1969   */\n      swap1\n      pop\n        /* \"#utility.yul\":1924:1975   */\n      swap2\n      swap1\n      pop\n      jump\t// out\n        /* \"#utility.yul\":1981:2071   */\n    tag_31:\n      0x00\n        /* \"#utility.yul\":2058:2063   */\n      dup2\n        /* \"#utility.yul\":2051:2064   */\n      iszero\n        /* \"#utility.yul\":2044:2065   */\n      iszero\n        /* \"#utility.yul\":2033:2065   */\n      swap1\n      pop\n        /* \"#utility.yul\":2023:2071   */\n      swap2\n      swap1\n      pop\n      jump\t// out\n        /* \"#utility.yul\":2077:2203   */\n    tag_48:\n      0x00\n        /* \"#utility.yul\":2154:2196   */\n      0xffffffffffffffffffffffffffffffffffffffff\n        /* \"#utility.yul\":2147:2152   */\n      dup3\n        /* \"#utility.yul\":2143:2197   */\n      and\n        /* \"#utility.yul\":2132:2197   */\n      swap1\n      pop\n        /* \"#utility.yul\":2122:2203   */\n      swap2\n      swap1\n      pop\n      jump\t// out\n        /* \"#utility.yul\":2209:2286   */\n    tag_35:\n      0x00\n        /* \"#utility.yul\":2275:2280   */\n      dup2\n        /* \"#utility.yul\":2264:2280   */\n      swap1\n      pop\n        /* \"#utility.yul\":2254:2286   */\n      swap2\n      swap1\n      pop\n      jump\t// out\n        /* \"#utility.yul\":2292:2414   */\n    tag_20:\n        /* \"#utility.yul\":2365:2389   */\n      tag_53\n        /* \"#utility.yul\":2383:2388   */\n      dup2\n        /* \"#utility.yul\":2365:2389   */\n      tag_27\n      jump\t// in\n    tag_53:\n        /* \"#utility.yul\":2358:2363   */\n      dup2\n        /* \"#utility.yul\":2355:2390   */\n      eq\n        /* \"#utility.yul\":2345:2347   */\n      tag_54\n      jumpi\n        /* \"#utility.yul\":2404:2405   */\n      0x00\n        /* \"#utility.yul\":2401:2402   */\n      dup1\n        /* \"#utility.yul\":2394:2406   */\n      revert\n        /* \"#utility.yul\":2345:2347   */\n    tag_54:\n        /* \"#utility.yul\":2335:2414   */\n      pop\n      jump\t// out\n\n    auxdata: 0xa2646970667358221220875f40770aae74f303904bda2c8308f3cadde4489a572fb8949c524b759eef0164736f6c63430008000033\n}\n",
				"bytecode": {
					"linkReferences": {},
					"object": "608060405234801561001057600080fd5b506102bf806100206000396000f3fe608060405234801561001057600080fd5b50600436106100365760003560e01c806356c5f3491461003b578063e2d3f4231461006b575b600080fd5b6100556004803603810190610050919061014a565b6100a1565b604051610062919061020f565b60405180910390f35b6100856004803603810190610080919061014a565b6100b9565b60405161009897969594939291906101a0565b60405180910390f35b60016020528060005260406000206000915090505481565b60006020528060005260406000206000915090508060000160009054906101000a900473ffffffffffffffffffffffffffffffffffffffff16908060010154908060020154908060030154908060040154908060050160009054906101000a900460ff16908060050160019054906101000a900460ff16905087565b60008135905061014481610272565b92915050565b60006020828403121561015c57600080fd5b600061016a84828501610135565b91505092915050565b61017c8161022a565b82525050565b61018b8161023c565b82525050565b61019a81610268565b82525050565b600060e0820190506101b5600083018a610173565b6101c26020830189610191565b6101cf6040830188610191565b6101dc6060830187610191565b6101e96080830186610191565b6101f660a0830185610182565b61020360c0830184610182565b98975050505050505050565b60006020820190506102246000830184610191565b92915050565b600061023582610248565b9050919050565b60008115159050919050565b600073ffffffffffffffffffffffffffffffffffffffff82169050919050565b6000819050919050565b61027b8161022a565b811461028657600080fd5b5056fea2646970667358221220875f40770aae74f303904bda2c8308f3cadde4489a572fb8949c524b759eef0164736f6c63430008000033",
					"opcodes": "PUSH1 0x80 PUSH1 0x40 MSTORE CALLVALUE DUP1 ISZERO PUSH2 0x10 JUMPI PUSH1 0x0 DUP1 REVERT JUMPDEST POP PUSH2 0x2BF DUP1 PUSH2 0x20 PUSH1 0x0 CODECOPY PUSH1 0x0 RETURN INVALID PUSH1 0x80 PUSH1 0x40 MSTORE CALLVALUE DUP1 ISZERO PUSH2 0x10 JUMPI PUSH1 0x0 DUP1 REVERT JUMPDEST POP PUSH1 0x4 CALLDATASIZE LT PUSH2 0x36 JUMPI PUSH1 0x0 CALLDATALOAD PUSH1 0xE0 SHR DUP1 PUSH4 0x56C5F349 EQ PUSH2 0x3B JUMPI DUP1 PUSH4 0xE2D3F423 EQ PUSH2 0x6B JUMPI JUMPDEST PUSH1 0x0 DUP1 REVERT JUMPDEST PUSH2 0x55 PUSH1 0x4 DUP1 CALLDATASIZE SUB DUP2 ADD SWAP1 PUSH2 0x50 SWAP2 SWAP1 PUSH2 0x14A JUMP JUMPDEST PUSH2 0xA1 JUMP JUMPDEST PUSH1 0x40 MLOAD PUSH2 0x62 SWAP2 SWAP1 PUSH2 0x20F JUMP JUMPDEST PUSH1 0x40 MLOAD DUP1 SWAP2 SUB SWAP1 RETURN JUMPDEST PUSH2 0x85 PUSH1 0x4 DUP1 CALLDATASIZE SUB DUP2 ADD SWAP1 PUSH2 0x80 SWAP2 SWAP1 PUSH2 0x14A JUMP JUMPDEST PUSH2 0xB9 JUMP JUMPDEST PUSH1 0x40 MLOAD PUSH2 0x98 SWAP8 SWAP7 SWAP6 SWAP5 SWAP4 SWAP3 SWAP2 SWAP1 PUSH2 0x1A0 JUMP JUMPDEST PUSH1 0x40 MLOAD DUP1 SWAP2 SUB SWAP1 RETURN JUMPDEST PUSH1 0x1 PUSH1 0x20 MSTORE DUP1 PUSH1 0x0 MSTORE PUSH1 0x40 PUSH1 0x0 KECCAK256 PUSH1 0x0 SWAP2 POP SWAP1 POP SLOAD DUP2 JUMP JUMPDEST PUSH1 0x0 PUSH1 0x20 MSTORE DUP1 PUSH1 0x0 MSTORE PUSH1 0x40 PUSH1 0x0 KECCAK256 PUSH1 0x0 SWAP2 POP SWAP1 POP DUP1 PUSH1 0x0 ADD PUSH1 0x0 SWAP1 SLOAD SWAP1 PUSH2 0x100 EXP SWAP1 DIV PUSH20 0xFFFFFFFFFFFFFFFFFFFFFFFFFFFFFFFFFFFFFFFF AND SWAP1 DUP1 PUSH1 0x1 ADD SLOAD SWAP1 DUP1 PUSH1 0x2 ADD SLOAD SWAP1 DUP1 PUSH1 0x3 ADD SLOAD SWAP1 DUP1 PUSH1 0x4 ADD SLOAD SWAP1 DUP1 PUSH1 0x5 ADD PUSH1 0x0 SWAP1 SLOAD SWAP1 PUSH2 0x100 EXP SWAP1 DIV PUSH1 0xFF AND SWAP1 DUP1 PUSH1 0x5 ADD PUSH1 0x1 SWAP1 SLOAD SWAP1 PUSH2 0x100 EXP SWAP1 DIV PUSH1 0xFF AND SWAP1 POP DUP8 JUMP JUMPDEST PUSH1 0x0 DUP2 CALLDATALOAD SWAP1 POP PUSH2 0x144 DUP2 PUSH2 0x272 JUMP JUMPDEST SWAP3 SWAP2 POP POP JUMP JUMPDEST PUSH1 0x0 PUSH1 0x20 DUP3 DUP5 SUB SLT ISZERO PUSH2 0x15C JUMPI PUSH1 0x0 DUP1 REVERT JUMPDEST PUSH1 0x0 PUSH2 0x16A DUP5 DUP3 DUP6 ADD PUSH2 0x135 JUMP JUMPDEST SWAP2 POP POP SWAP3 SWAP2 POP POP JUMP JUMPDEST PUSH2 0x17C DUP2 PUSH2 0x22A JUMP JUMPDEST DUP3 MSTORE POP POP JUMP JUMPDEST PUSH2 0x18B DUP2 PUSH2 0x23C JUMP JUMPDEST DUP3 MSTORE POP POP JUMP JUMPDEST PUSH2 0x19A DUP2 PUSH2 0x268 JUMP JUMPDEST DUP3 MSTORE POP POP JUMP JUMPDEST PUSH1 0x0 PUSH1 0xE0 DUP3 ADD SWAP1 POP PUSH2 0x1B5 PUSH1 0x0 DUP4 ADD DUP11 PUSH2 0x173 JUMP JUMPDEST PUSH2 0x1C2 PUSH1 0x20 DUP4 ADD DUP10 PUSH2 0x191 JUMP JUMPDEST PUSH2 0x1CF PUSH1 0x40 DUP4 ADD DUP9 PUSH2 0x191 JUMP JUMPDEST PUSH2 0x1DC PUSH1 0x60 DUP4 ADD DUP8 PUSH2 0x191 JUMP JUMPDEST PUSH2 0x1E9 PUSH1 0x80 DUP4 ADD DUP7 PUSH2 0x191 JUMP JUMPDEST PUSH2 0x1F6 PUSH1 0xA0 DUP4 ADD DUP6 PUSH2 0x182 JUMP JUMPDEST PUSH2 0x203 PUSH1 0xC0 DUP4 ADD DUP5 PUSH2 0x182 JUMP JUMPDEST SWAP9 SWAP8 POP POP POP POP POP POP POP POP JUMP JUMPDEST PUSH1 0x0 PUSH1 0x20 DUP3 ADD SWAP1 POP PUSH2 0x224 PUSH1 0x0 DUP4 ADD DUP5 PUSH2 0x191 JUMP JUMPDEST SWAP3 SWAP2 POP POP JUMP JUMPDEST PUSH1 0x0 PUSH2 0x235 DUP3 PUSH2 0x248 JUMP JUMPDEST SWAP1 POP SWAP2 SWAP1 POP JUMP JUMPDEST PUSH1 0x0 DUP2 ISZERO ISZERO SWAP1 POP SWAP2 SWAP1 POP JUMP JUMPDEST PUSH1 0x0 PUSH20 0xFFFFFFFFFFFFFFFFFFFFFFFFFFFFFFFFFFFFFFFF DUP3 AND SWAP1 POP SWAP2 SWAP1 POP JUMP JUMPDEST PUSH1 0x0 DUP2 SWAP1 POP SWAP2 SWAP1 POP JUMP JUMPDEST PUSH2 0x27B DUP2 PUSH2 0x22A JUMP JUMPDEST DUP2 EQ PUSH2 0x286 JUMPI PUSH1 0x0 DUP1 REVERT JUMPDEST POP JUMP INVALID LOG2 PUSH5 0x6970667358 0x22 SLT KECCAK256 DUP8 0x5F BLOCKHASH PUSH24 0xAAE74F303904BDA2C8308F3CADDE4489A572FB8949C524B PUSH22 0x9EEF0164736F6C634300080000330000000000000000 "
				},
				"gasEstimates": {
					"creation": {
						"codeDepositCost": "140600",
						"executionCost": "183",
						"totalCost": "140783"
					},
					"external": {
						"buyerInfo(address)": "infinite",
						"userFee(address)": "1492"
					}
				},
				"methodIdentifiers": {
					"buyerInfo(address)": "e2d3f423",
					"userFee(address)": "56c5f349"
				}
			},
			"storageLayout": {
				"storage": [
					{
						"astId": 140,
						"contract": "Ethereum/Presale.sol:Presale",
						"label": "buyerInfo",
						"offset": 0,
						"slot": "0",
						"type": "t_mapping(t_address,t_struct(BuyerInfo)122_storage)"
					},
					{
						"astId": 144,
						"contract": "Ethereum/Presale.sol:Presale",
						"label": "userFee",
						"offset": 0,
						"slot": "1",
						"type": "t_mapping(t_address,t_uint256)"
					}
				],
				"types": {
					"t_address": {
						"encoding": "inplace",
						"label": "address",
						"numberOfBytes": "20"
					},
					"t_bool": {
						"encoding": "inplace",
						"label": "bool",
						"numberOfBytes": "1"
					},
					"t_mapping(t_address,t_struct(BuyerInfo)122_storage)": {
						"encoding": "mapping",
						"key": "t_address",
						"label": "mapping(address => struct Presale.BuyerInfo)",
						"numberOfBytes": "32",
						"value": "t_struct(BuyerInfo)122_storage"
					},
					"t_mapping(t_address,t_uint256)": {
						"encoding": "mapping",
						"key": "t_address",
						"label": "mapping(address => uint256)",
						"numberOfBytes": "32",
						"value": "t_uint256"
					},
					"t_struct(BuyerInfo)122_storage": {
						"encoding": "inplace",
						"label": "struct Presale.BuyerInfo",
						"members": [
							{
								"astId": 109,
								"contract": "Ethereum/Presale.sol:Presale",
								"label": "buyer",
								"offset": 0,
								"slot": "0",
								"type": "t_address"
							},
							{
								"astId": 111,
								"contract": "Ethereum/Presale.sol:Presale",
								"label": "baseDeposit",
								"offset": 0,
								"slot": "1",
								"type": "t_uint256"
							},
							{
								"astId": 113,
								"contract": "Ethereum/Presale.sol:Presale",
								"label": "tokenOwner",
								"offset": 0,
								"slot": "2",
								"type": "t_uint256"
							},
							{
								"astId": 115,
								"contract": "Ethereum/Presale.sol:Presale",
								"label": "lastWithDraw",
								"offset": 0,
								"slot": "3",
								"type": "t_uint256"
							},
							{
								"astId": 117,
								"contract": "Ethereum/Presale.sol:Presale",
								"label": "totalTokenWithDraw",
								"offset": 0,
								"slot": "4",
								"type": "t_uint256"
							},
							{
								"astId": 119,
								"contract": "Ethereum/Presale.sol:Presale",
								"label": "isRefund",
								"offset": 0,
								"slot": "5",
								"type": "t_bool"
							},
							{
								"astId": 121,
								"contract": "Ethereum/Presale.sol:Presale",
								"label": "isClaim",
								"offset": 1,
								"slot": "5",
								"type": "t_bool"
							}
						],
						"numberOfBytes": "192"
					},
					"t_uint256": {
						"encoding": "inplace",
						"label": "uint256",
						"numberOfBytes": "32"
					}
				}
			},
			"userdoc": {
				"kind": "user",
				"methods": {},
				"version": 1
			}
		}
	}
}