{
	"Ethereum/Presale.sol": {
		"Presale": {
			"abi": [
				{
					"inputs": [],
					"stateMutability": "payable",
					"type": "constructor"
				},
				{
					"anonymous": false,
					"inputs": [
						{
							"indexed": true,
							"internalType": "address",
							"name": "previousOwner",
							"type": "address"
						},
						{
							"indexed": true,
							"internalType": "address",
							"name": "newOwner",
							"type": "address"
						}
					],
					"name": "OwnershipTransferred",
					"type": "event"
				},
				{
					"inputs": [],
					"name": "WETH",
					"outputs": [
						{
							"internalType": "contract IERC20",
							"name": "",
							"type": "address"
						}
					],
					"stateMutability": "view",
					"type": "function"
				},
				{
					"inputs": [],
					"name": "backToken",
					"outputs": [],
					"stateMutability": "payable",
					"type": "function"
				},
				{
					"inputs": [
						{
							"internalType": "address",
							"name": "",
							"type": "address"
						}
					],
					"name": "buyerInfo",
					"outputs": [
						{
							"internalType": "uint256",
							"name": "baseDeposit",
							"type": "uint256"
						},
						{
							"internalType": "uint256",
							"name": "tokenOwner",
							"type": "uint256"
						},
						{
							"internalType": "uint256",
							"name": "lastWithDraw",
							"type": "uint256"
						},
						{
							"internalType": "uint256",
							"name": "totalTokenWithDraw",
							"type": "uint256"
						},
						{
							"internalType": "bool",
							"name": "isRefund",
							"type": "bool"
						},
						{
							"internalType": "bool",
							"name": "isClaim",
							"type": "bool"
						}
					],
					"stateMutability": "view",
					"type": "function"
				},
				{
					"inputs": [],
					"name": "checkAdminAddress",
					"outputs": [
						{
							"internalType": "bool",
							"name": "",
							"type": "bool"
						}
					],
					"stateMutability": "view",
					"type": "function"
				},
				{
					"inputs": [
						{
							"internalType": "uint256",
							"name": "_amount",
							"type": "uint256"
						}
					],
					"name": "depodit",
					"outputs": [
						{
							"internalType": "uint256",
							"name": "",
							"type": "uint256"
						}
					],
					"stateMutability": "view",
					"type": "function"
				},
				{
					"inputs": [],
					"name": "feeAnyone",
					"outputs": [
						{
							"internalType": "uint256",
							"name": "",
							"type": "uint256"
						}
					],
					"stateMutability": "view",
					"type": "function"
				},
				{
					"inputs": [
						{
							"internalType": "address",
							"name": "_address",
							"type": "address"
						}
					],
					"name": "getBalance",
					"outputs": [
						{
							"internalType": "uint256",
							"name": "",
							"type": "uint256"
						}
					],
					"stateMutability": "view",
					"type": "function"
				},
				{
					"inputs": [
						{
							"internalType": "contract IERC20Metadata",
							"name": "_address",
							"type": "address"
						}
					],
					"name": "getData",
					"outputs": [
						{
							"internalType": "uint256",
							"name": "",
							"type": "uint256"
						}
					],
					"stateMutability": "view",
					"type": "function"
				},
				{
					"inputs": [
						{
							"internalType": "address payable",
							"name": "_presaleOwner",
							"type": "address"
						},
						{
							"internalType": "contract IERC20",
							"name": "_saleToken",
							"type": "address"
						},
						{
							"internalType": "contract IERC20",
							"name": "_baseTOken",
							"type": "address"
						},
						{
							"internalType": "uint256[9]",
							"name": "datas",
							"type": "uint256[9]"
						}
					],
					"name": "initialSaleInfor",
					"outputs": [],
					"stateMutability": "nonpayable",
					"type": "function"
				},
				{
					"inputs": [],
					"name": "owner",
					"outputs": [
						{
							"internalType": "address",
							"name": "",
							"type": "address"
						}
					],
					"stateMutability": "view",
					"type": "function"
				},
				{
					"inputs": [],
					"name": "presaleStatus",
					"outputs": [
						{
							"internalType": "uint256",
							"name": "totalBaseCollected",
							"type": "uint256"
						},
						{
							"internalType": "uint256",
							"name": "totalTokenSold",
							"type": "uint256"
						},
						{
							"internalType": "uint256",
							"name": "totalTokenWithDraw",
							"type": "uint256"
						},
						{
							"internalType": "uint256",
							"name": "totalBaseWithDraw",
							"type": "uint256"
						},
						{
							"internalType": "uint256",
							"name": "numByer",
							"type": "uint256"
						},
						{
							"internalType": "uint256",
							"name": "totalFee",
							"type": "uint256"
						}
					],
					"stateMutability": "view",
					"type": "function"
				},
				{
					"inputs": [],
					"name": "renounceOwnership",
					"outputs": [],
					"stateMutability": "nonpayable",
					"type": "function"
				},
				{
					"inputs": [],
					"name": "saleInfor",
					"outputs": [
						{
							"internalType": "address payable",
							"name": "presaleOwner",
							"type": "address"
						},
						{
							"internalType": "contract IERC20",
							"name": "saleToken",
							"type": "address"
						},
						{
							"internalType": "contract IERC20",
							"name": "baseToken",
							"type": "address"
						},
						{
							"internalType": "uint256",
							"name": "tokenPrice",
							"type": "uint256"
						},
						{
							"internalType": "uint256",
							"name": "startSale",
							"type": "uint256"
						},
						{
							"internalType": "uint256",
							"name": "endSale",
							"type": "uint256"
						},
						{
							"internalType": "uint256",
							"name": "valueSwapToken",
							"type": "uint256"
						},
						{
							"internalType": "uint256",
							"name": "feeTransaction",
							"type": "uint256"
						},
						{
							"internalType": "uint256",
							"name": "minSpendPerBuyer",
							"type": "uint256"
						},
						{
							"internalType": "uint256",
							"name": "maxSpendPerBuyer",
							"type": "uint256"
						},
						{
							"internalType": "uint256",
							"name": "refundFee",
							"type": "uint256"
						},
						{
							"internalType": "uint256",
							"name": "claimFee",
							"type": "uint256"
						},
						{
							"internalType": "bool",
							"name": "saleIsBaseToken",
							"type": "bool"
						}
					],
					"stateMutability": "view",
					"type": "function"
				},
				{
					"inputs": [],
					"name": "status",
					"outputs": [
						{
							"internalType": "uint256",
							"name": "",
							"type": "uint256"
						}
					],
					"stateMutability": "view",
					"type": "function"
				},
				{
					"inputs": [
						{
							"internalType": "uint256",
							"name": "amount",
							"type": "uint256"
						}
					],
					"name": "transferETH",
					"outputs": [],
					"stateMutability": "payable",
					"type": "function"
				},
				{
					"inputs": [
						{
							"internalType": "address",
							"name": "newOwner",
							"type": "address"
						}
					],
					"name": "transferOwnership",
					"outputs": [],
					"stateMutability": "nonpayable",
					"type": "function"
				},
				{
					"inputs": [
						{
							"internalType": "address",
							"name": "",
							"type": "address"
						}
					],
					"name": "userFee",
					"outputs": [
						{
							"internalType": "uint256",
							"name": "",
							"type": "uint256"
						}
					],
					"stateMutability": "view",
					"type": "function"
				}
			],
			"devdoc": {
				"kind": "dev",
				"methods": {
					"owner()": {
						"details": "Returns the address of the current owner."
					},
					"renounceOwnership()": {
						"details": "Leaves the contract without owner. It will not be possible to call `onlyOwner` functions anymore. Can only be called by the current owner. NOTE: Renouncing ownership will leave the contract without an owner, thereby removing any functionality that is only available to the owner."
					},
					"transferOwnership(address)": {
						"details": "Transfers ownership of the contract to a new account (`newOwner`). Can only be called by the current owner."
					}
				},
				"version": 1
			},
			"evm": {
				"assembly": "    /* \"Ethereum/Presale.sol\":378:4776  contract Presale is ReentrancyGuard, Ownable{\r... */\n  mstore(0x40, 0x80)\n    /* \"Utils/ReentrancyGuard.sol\":1734:1735  1 */\n  0x01\n    /* \"Utils/ReentrancyGuard.sol\":1845:1852  _status */\n  0x00\n    /* \"Utils/ReentrancyGuard.sol\":1845:1867  _status = _NOT_ENTERED */\n  sstore\n    /* \"Utils/Ownable.sol\":942:974  _transferOwnership(_msgSender()) */\n  tag_6\n    /* \"Utils/Context.sol\":736:746  msg.sender */\n  caller\n    /* \"Utils/Ownable.sol\":942:960  _transferOwnership */\n  tag_9\n    /* \"Utils/Ownable.sol\":942:974  _transferOwnership(_msgSender()) */\n  jump\t// in\ntag_6:\n    /* \"Ethereum/Presale.sol\":1974:1978  WETH */\n  0x18\n    /* \"Ethereum/Presale.sol\":1974:2031  WETH = IERC20(0xc778417E063141139Fce010982780140Aa0cD5Ab) */\n  dup1\n  sload\n    /* \"Ethereum/Presale.sol\":1988:2030  0xc778417E063141139Fce010982780140Aa0cD5Ab */\n  0xc778417e063141139fce010982780140aa0cd5ab\n  not(sub(shl(0xa0, 0x01), 0x01))\n    /* \"Ethereum/Presale.sol\":1974:2031  WETH = IERC20(0xc778417E063141139Fce010982780140Aa0cD5Ab) */\n  swap1\n  swap2\n  and\n  or\n  swap1\n  sstore\n    /* \"Ethereum/Presale.sol\":2042:2096  admins.add(0x6Ccb41eedA5a073076F3E7dC1614C185b5fA41eD) */\n  tag_11\n    /* \"Ethereum/Presale.sol\":2042:2048  admins */\n  0x1a\n    /* \"Ethereum/Presale.sol\":2053:2095  0x6Ccb41eedA5a073076F3E7dC1614C185b5fA41eD */\n  0x6ccb41eeda5a073076f3e7dc1614c185b5fa41ed\n    /* \"Ethereum/Presale.sol\":2042:2052  admins.add */\n  tag_12\n  0x20\n  swap1\n  dup2\n  shl\n  tag_0_102\n  or\n    /* \"Ethereum/Presale.sol\":2042:2096  admins.add(0x6Ccb41eedA5a073076F3E7dC1614C185b5fA41eD) */\n  swap1\n  shr\n  jump\t// in\ntag_11:\n  pop\n    /* \"Ethereum/Presale.sol\":2107:2161  admins.add(0x4f0B12bBF40Fc182559822A5b1dB6D34dbC3E016) */\n  tag_13\n    /* \"Ethereum/Presale.sol\":2118:2160  0x4f0B12bBF40Fc182559822A5b1dB6D34dbC3E016 */\n  0x4f0b12bbf40fc182559822a5b1db6d34dbc3e016\n    /* \"Ethereum/Presale.sol\":2107:2113  admins */\n  0x1a\n    /* \"Ethereum/Presale.sol\":2107:2117  admins.add */\n  or(tag_0_102, shl(0x20, tag_12))\n  swap1\n    /* \"Ethereum/Presale.sol\":2107:2161  admins.add(0x4f0B12bBF40Fc182559822A5b1dB6D34dbC3E016) */\n  swap2\n  swap1\n  0x20\n  shr\n  jump\t// in\ntag_13:\n  pop\n    /* \"Ethereum/Presale.sol\":2184:2186  20 */\n  0x14\n    /* \"Ethereum/Presale.sol\":2172:2181  feeAnyone */\n  0x19\n    /* \"Ethereum/Presale.sol\":2172:2186  feeAnyone = 20 */\n  sstore\n    /* \"Ethereum/Presale.sol\":378:4776  contract Presale is ReentrancyGuard, Ownable{\r... */\n  jump(tag_14)\n    /* \"Utils/Ownable.sol\":2333:2524  function _transferOwnership(address newOwner) internal virtual {\r... */\ntag_9:\n    /* \"Utils/Ownable.sol\":2426:2432  _owner */\n  0x01\n  dup1\n  sload\n  sub(shl(0xa0, 0x01), 0x01)\n    /* \"Utils/Ownable.sol\":2443:2460  _owner = newOwner */\n  dup4\n  dup2\n  and\n  not(sub(shl(0xa0, 0x01), 0x01))\n  dup4\n  and\n  dup2\n  or\n  swap1\n  swap4\n  sstore\n    /* \"Utils/Ownable.sol\":2476:2516  OwnershipTransferred(oldOwner, newOwner) */\n  mload(0x40)\n    /* \"Utils/Ownable.sol\":2426:2432  _owner */\n  swap2\n  and\n  swap2\n    /* \"Utils/Ownable.sol\":2443:2460  _owner = newOwner */\n  swap1\n    /* \"Utils/Ownable.sol\":2426:2432  _owner */\n  dup3\n  swap1\n    /* \"Utils/Ownable.sol\":2476:2516  OwnershipTransferred(oldOwner, newOwner) */\n  0x8be0079c531659141344cd1fd0a4f28419497f9722a3daafe3b4186f6b6457e0\n  swap1\n    /* \"Utils/Ownable.sol\":2407:2423  address oldOwner */\n  0x00\n  swap1\n    /* \"Utils/Ownable.sol\":2476:2516  OwnershipTransferred(oldOwner, newOwner) */\n  log3\n    /* \"Utils/Ownable.sol\":2333:2524  function _transferOwnership(address newOwner) internal virtual {\r... */\n  pop\n  pop\n  jump\t// out\n    /* \"Utils/EnumerableSet.sol\":8259:8411  function add(AddressSet storage set, address value) internal returns (bool) {\r... */\ntag_12:\n    /* \"Utils/EnumerableSet.sol\":8329:8333  bool */\n  0x00\n    /* \"Utils/EnumerableSet.sol\":8353:8403  _add(set._inner, bytes32(uint256(uint160(value)))) */\n  tag_18\n    /* \"Utils/EnumerableSet.sol\":8358:8361  set */\n  dup4\n  sub(shl(0xa0, 0x01), 0x01)\n    /* \"Utils/EnumerableSet.sol\":8378:8401  uint256(uint160(value)) */\n  dup5\n  and\n    /* \"Utils/EnumerableSet.sol\":8353:8357  _add */\n  tag_19\n    /* \"Utils/EnumerableSet.sol\":8353:8403  _add(set._inner, bytes32(uint256(uint160(value)))) */\n  jump\t// in\ntag_18:\n    /* \"Utils/EnumerableSet.sol\":8346:8403  return _add(set._inner, bytes32(uint256(uint160(value)))) */\n  swap1\n  pop\n    /* \"Utils/EnumerableSet.sol\":8259:8411  function add(AddressSet storage set, address value) internal returns (bool) {\r... */\ntag_17:\n  swap3\n  swap2\n  pop\n  pop\n  jump\t// out\n    /* \"Utils/EnumerableSet.sol\":2174:2588  function _add(Set storage set, bytes32 value) private returns (bool) {\r... */\ntag_19:\n    /* \"Utils/EnumerableSet.sol\":2237:2241  bool */\n  0x00\n    /* \"Utils/EnumerableSet.sol\":4367:4386  set._indexes[value] */\n  dup2\n  dup2\n  mstore\n    /* \"Utils/EnumerableSet.sol\":4367:4379  set._indexes */\n  0x01\n  dup4\n  add\n    /* \"Utils/EnumerableSet.sol\":4367:4386  set._indexes[value] */\n  0x20\n  mstore\n  0x40\n  dup2\n  keccak256\n  sload\n    /* \"Utils/EnumerableSet.sol\":2254:2581  if (!_contains(set, value)) {\r... */\n  tag_23\n  jumpi\n  pop\n    /* \"Utils/EnumerableSet.sol\":2297:2320  set._values.push(value) */\n  dup2\n  sload\n  0x01\n  dup2\n  dup2\n  add\n  dup5\n  sstore\n    /* \"Utils/EnumerableSet.sol\":2297:2308  set._values */\n  0x00\n    /* \"Utils/EnumerableSet.sol\":2297:2320  set._values.push(value) */\n  dup5\n  dup2\n  mstore\n  0x20\n  dup1\n  dup3\n  keccak256\n  swap1\n  swap4\n  add\n  dup5\n  swap1\n  sstore\n    /* \"Utils/EnumerableSet.sol\":2480:2498  set._values.length */\n  dup5\n  sload\n    /* \"Utils/EnumerableSet.sol\":2458:2477  set._indexes[value] */\n  dup5\n  dup3\n  mstore\n    /* \"Utils/EnumerableSet.sol\":2458:2470  set._indexes */\n  dup3\n  dup7\n  add\n    /* \"Utils/EnumerableSet.sol\":2458:2477  set._indexes[value] */\n  swap1\n  swap4\n  mstore\n  0x40\n  swap1\n  keccak256\n    /* \"Utils/EnumerableSet.sol\":2458:2498  set._indexes[value] = set._values.length */\n  swap2\n  swap1\n  swap2\n  sstore\n    /* \"Utils/EnumerableSet.sol\":2513:2524  return true */\n  jump(tag_17)\n    /* \"Utils/EnumerableSet.sol\":2254:2581  if (!_contains(set, value)) {\r... */\ntag_23:\n  pop\n    /* \"Utils/EnumerableSet.sol\":2564:2569  false */\n  0x00\n    /* \"Utils/EnumerableSet.sol\":2557:2569  return false */\n  jump(tag_17)\n    /* \"Ethereum/Presale.sol\":378:4776  contract Presale is ReentrancyGuard, Ownable{\r... */\ntag_14:\n  dataSize(sub_0)\n  dup1\n  dataOffset(sub_0)\n  0x00\n  codecopy\n  0x00\n  return\nstop\n\nsub_0: assembly {\n        /* \"Ethereum/Presale.sol\":378:4776  contract Presale is ReentrancyGuard, Ownable{\r... */\n      mstore(0x40, 0x80)\n      jumpi(tag_1, lt(calldatasize, 0x04))\n      shr(0xe0, calldataload(0x00))\n      dup1\n      0x861faf5f\n      gt\n      tag_19\n      jumpi\n      dup1\n      0xad5c4648\n      gt\n      tag_20\n      jumpi\n      dup1\n      0xad5c4648\n      eq\n      tag_14\n      jumpi\n      dup1\n      0xcad5b0f7\n      eq\n      tag_15\n      jumpi\n      dup1\n      0xe2d3f423\n      eq\n      tag_16\n      jumpi\n      dup1\n      0xf2fde38b\n      eq\n      tag_17\n      jumpi\n      dup1\n      0xf8b2cb4f\n      eq\n      tag_18\n      jumpi\n      0x00\n      dup1\n      revert\n    tag_20:\n      dup1\n      0x861faf5f\n      eq\n      tag_10\n      jumpi\n      dup1\n      0x8da5cb5b\n      eq\n      tag_11\n      jumpi\n      dup1\n      0x8f1eae4c\n      eq\n      tag_12\n      jumpi\n      dup1\n      0xacfb2355\n      eq\n      tag_13\n      jumpi\n      0x00\n      dup1\n      revert\n    tag_19:\n      dup1\n      0x4329db46\n      gt\n      tag_21\n      jumpi\n      dup1\n      0x4329db46\n      eq\n      tag_6\n      jumpi\n      dup1\n      0x56c5f349\n      eq\n      tag_7\n      jumpi\n      dup1\n      0x715018a6\n      eq\n      tag_8\n      jumpi\n      dup1\n      0x79647833\n      eq\n      tag_9\n      jumpi\n      0x00\n      dup1\n      revert\n    tag_21:\n      dup1\n      0x18856a2f\n      eq\n      tag_2\n      jumpi\n      dup1\n      0x200d2ed2\n      eq\n      tag_3\n      jumpi\n      dup1\n      0x38266b22\n      eq\n      tag_4\n      jumpi\n      dup1\n      0x3b5ef2ad\n      eq\n      tag_5\n      jumpi\n    tag_1:\n      0x00\n      dup1\n      revert\n        /* \"Ethereum/Presale.sol\":1563:1589  SaleInfor public saleInfor */\n    tag_2:\n      callvalue\n      dup1\n      iszero\n      tag_22\n      jumpi\n      0x00\n      dup1\n      revert\n    tag_22:\n      pop\n      sload(0x0b)\n      sload(0x0c)\n      sload(0x0d)\n      sload(0x0e)\n      sload(0x0f)\n      sload(0x10)\n      sload(0x11)\n      sload(0x12)\n      sload(0x13)\n      sload(0x14)\n      sload(0x15)\n      sload(0x16)\n      sload(0x17)\n      tag_23\n      swap13\n      sub(shl(0xa0, 0x01), 0x01)\n      swap1\n      dup2\n      and\n      swap13\n      dup2\n      and\n      swap12\n      and\n      swap10\n      swap9\n      swap8\n      swap7\n      swap6\n      swap5\n      swap4\n      swap3\n      swap2\n      swap1\n      0xff\n      and\n      dup14\n      jump\n    tag_23:\n      0x40\n      dup1\n      mload\n      sub(shl(0xa0, 0x01), 0x01)\n        /* \"#utility.yul\":3003:3035   */\n      swap15\n      dup16\n      and\n        /* \"#utility.yul\":2985:3036   */\n      dup2\n      mstore\n        /* \"#utility.yul\":3072:3104   */\n      swap13\n      dup15\n      and\n        /* \"#utility.yul\":3067:3069   */\n      0x20\n        /* \"#utility.yul\":3052:3070   */\n      dup15\n      add\n        /* \"#utility.yul\":3045:3105   */\n      mstore\n        /* \"#utility.yul\":3141:3173   */\n      swap11\n      swap1\n      swap13\n      and\n        /* \"#utility.yul\":3121:3139   */\n      swap10\n      dup12\n      add\n        /* \"#utility.yul\":3114:3174   */\n      swap10\n      swap1\n      swap10\n      mstore\n        /* \"#utility.yul\":3205:3207   */\n      0x60\n        /* \"#utility.yul\":3190:3208   */\n      dup11\n      add\n        /* \"#utility.yul\":3183:3217   */\n      swap8\n      swap1\n      swap8\n      mstore\n        /* \"#utility.yul\":3248:3251   */\n      0x80\n        /* \"#utility.yul\":3233:3252   */\n      dup10\n      add\n        /* \"#utility.yul\":3226:3261   */\n      swap6\n      swap1\n      swap6\n      mstore\n        /* \"#utility.yul\":3023:3026   */\n      0xa0\n        /* \"#utility.yul\":3277:3296   */\n      dup9\n      add\n        /* \"#utility.yul\":3270:3305   */\n      swap4\n      swap1\n      swap4\n      mstore\n        /* \"#utility.yul\":3336:3339   */\n      0xc0\n        /* \"#utility.yul\":3321:3340   */\n      dup8\n      add\n        /* \"#utility.yul\":3314:3349   */\n      swap2\n      swap1\n      swap2\n      mstore\n        /* \"#utility.yul\":3380:3383   */\n      0xe0\n        /* \"#utility.yul\":3365:3384   */\n      dup7\n      add\n        /* \"#utility.yul\":3358:3393   */\n      mstore\n        /* \"#utility.yul\":3424:3427   */\n      0x0100\n        /* \"#utility.yul\":3409:3428   */\n      dup6\n      add\n        /* \"#utility.yul\":3402:3437   */\n      mstore\n        /* \"#utility.yul\":3468:3471   */\n      0x0120\n        /* \"#utility.yul\":3453:3472   */\n      dup5\n      add\n        /* \"#utility.yul\":3446:3481   */\n      mstore\n        /* \"#utility.yul\":3512:3515   */\n      0x0140\n        /* \"#utility.yul\":3497:3516   */\n      dup4\n      add\n        /* \"#utility.yul\":3490:3526   */\n      mstore\n        /* \"#utility.yul\":3557:3560   */\n      0x0160\n        /* \"#utility.yul\":3542:3561   */\n      dup3\n      add\n        /* \"#utility.yul\":3535:3571   */\n      mstore\n        /* \"#utility.yul\":3615:3630   */\n      swap1\n      iszero\n        /* \"#utility.yul\":3608:3631   */\n      iszero\n        /* \"#utility.yul\":3602:3605   */\n      0x0180\n        /* \"#utility.yul\":3587:3606   */\n      dup3\n      add\n        /* \"#utility.yul\":3580:3632   */\n      mstore\n        /* \"#utility.yul\":2972:2975   */\n      0x01a0\n        /* \"#utility.yul\":2957:2976   */\n      add\n        /* \"Ethereum/Presale.sol\":1563:1589  SaleInfor public saleInfor */\n    tag_25:\n      mload(0x40)\n      dup1\n      swap2\n      sub\n      swap1\n      return\n        /* \"Ethereum/Presale.sol\":3001:3338  function status() public view returns(uint256) {\r... */\n    tag_3:\n      callvalue\n      dup1\n      iszero\n      tag_27\n      jumpi\n      0x00\n      dup1\n      revert\n    tag_27:\n      pop\n      tag_28\n      tag_29\n      jump\t// in\n    tag_28:\n      mload(0x40)\n        /* \"#utility.yul\":5315:5340   */\n      swap1\n      dup2\n      mstore\n        /* \"#utility.yul\":5303:5305   */\n      0x20\n        /* \"#utility.yul\":5288:5306   */\n      add\n        /* \"Ethereum/Presale.sol\":3001:3338  function status() public view returns(uint256) {\r... */\n      tag_25\n        /* \"#utility.yul\":5270:5346   */\n      jump\n        /* \"Ethereum/Presale.sol\":4654:4771  function getData(IERC20Metadata _address) public view returns(uint256) {\r... */\n    tag_4:\n      callvalue\n      dup1\n      iszero\n      tag_32\n      jumpi\n      0x00\n      dup1\n      revert\n    tag_32:\n      pop\n      tag_28\n      tag_34\n      calldatasize\n      0x04\n      tag_49\n      jump\t// in\n    tag_34:\n      tag_36\n      jump\t// in\n        /* \"Ethereum/Presale.sol\":1621:1645  uint256 public feeAnyone */\n    tag_5:\n      callvalue\n      dup1\n      iszero\n      tag_38\n      jumpi\n      0x00\n      dup1\n      revert\n    tag_38:\n      pop\n      tag_28\n      sload(0x19)\n      dup2\n      jump\n        /* \"Ethereum/Presale.sol\":4525:4646  function transferETH(uint256 amount) external payable {\r... */\n    tag_6:\n      tag_42\n      tag_43\n      calldatasize\n      0x04\n      tag_44\n      jump\t// in\n    tag_43:\n      tag_45\n      jump\t// in\n    tag_42:\n      stop\n        /* \"Ethereum/Presale.sol\":1473:1515  mapping(address => uint256) public userFee */\n    tag_7:\n      callvalue\n      dup1\n      iszero\n      tag_46\n      jumpi\n      0x00\n      dup1\n      revert\n    tag_46:\n      pop\n      tag_28\n      tag_48\n      calldatasize\n      0x04\n      tag_49\n      jump\t// in\n    tag_48:\n      mstore(0x20, 0x03)\n      0x00\n      swap1\n      dup2\n      mstore\n      0x40\n      swap1\n      keccak256\n      sload\n      dup2\n      jump\n        /* \"Utils/Ownable.sol\":1714:1817  function renounceOwnership() public virtual onlyOwner {\r... */\n    tag_8:\n      callvalue\n      dup1\n      iszero\n      tag_52\n      jumpi\n      0x00\n      dup1\n      revert\n    tag_52:\n      pop\n      tag_42\n      tag_54\n      jump\t// in\n        /* \"Ethereum/Presale.sol\":3465:4279  function depodit(uint256 _amount) external view returns(uint256) {\r... */\n    tag_9:\n      callvalue\n      dup1\n      iszero\n      tag_55\n      jumpi\n      0x00\n      dup1\n      revert\n    tag_55:\n      pop\n      tag_28\n      tag_57\n      calldatasize\n      0x04\n      tag_44\n      jump\t// in\n    tag_57:\n      tag_58\n      jump\t// in\n        /* \"Ethereum/Presale.sol\":4409:4517  function backToken() external payable {\r... */\n    tag_10:\n      tag_42\n      tag_61\n      jump\t// in\n        /* \"Utils/Ownable.sol\":1063:1150  function owner() public view virtual returns (address) {\r... */\n    tag_11:\n      callvalue\n      dup1\n      iszero\n      tag_62\n      jumpi\n      0x00\n      dup1\n      revert\n    tag_62:\n      pop\n        /* \"Utils/Ownable.sol\":1136:1142  _owner */\n      and(sub(shl(0xa0, 0x01), 0x01), sload(0x01))\n        /* \"Utils/Ownable.sol\":1063:1150  function owner() public view virtual returns (address) {\r... */\n    tag_63:\n      mload(0x40)\n      sub(shl(0xa0, 0x01), 0x01)\n        /* \"#utility.yul\":2419:2451   */\n      swap1\n      swap2\n      and\n        /* \"#utility.yul\":2401:2452   */\n      dup2\n      mstore\n        /* \"#utility.yul\":2389:2391   */\n      0x20\n        /* \"#utility.yul\":2374:2392   */\n      add\n        /* \"Utils/Ownable.sol\":1063:1150  function owner() public view virtual returns (address) {\r... */\n      tag_25\n        /* \"#utility.yul\":2356:2458   */\n      jump\n        /* \"Ethereum/Presale.sol\":2202:2992  function initialSaleInfor(\r... */\n    tag_12:\n      callvalue\n      dup1\n      iszero\n      tag_67\n      jumpi\n      0x00\n      dup1\n      revert\n    tag_67:\n      pop\n      tag_42\n      tag_69\n      calldatasize\n      0x04\n      tag_70\n      jump\t// in\n    tag_69:\n        /* \"Ethereum/Presale.sol\":2385:2394  saleInfor */\n      0x0b\n        /* \"Ethereum/Presale.sol\":2385:2423  saleInfor.presaleOwner = _presaleOwner */\n      dup1\n      sload\n      not(sub(shl(0xa0, 0x01), 0x01))\n      swap1\n      dup2\n      and\n      sub(shl(0xa0, 0x01), 0x01)\n      swap7\n      dup8\n      and\n      or\n      swap1\n      swap2\n      sstore\n        /* \"Ethereum/Presale.sol\":2434:2453  saleInfor.saleToken */\n      0x0c\n        /* \"Ethereum/Presale.sol\":2434:2466  saleInfor.saleToken = _saleToken */\n      dup1\n      sload\n      dup3\n      and\n      swap5\n      dup7\n      and\n      swap5\n      swap1\n      swap5\n      or\n      swap1\n      swap4\n      sstore\n        /* \"Ethereum/Presale.sol\":2477:2496  saleInfor.baseToken */\n      0x0d\n        /* \"Ethereum/Presale.sol\":2477:2509  saleInfor.baseToken = _baseTOken */\n      dup1\n      sload\n      swap1\n      swap4\n      and\n      swap2\n      dup5\n      and\n      swap2\n      dup3\n      or\n      swap1\n      swap3\n      sstore\n        /* \"Ethereum/Presale.sol\":2543:2551  datas[0] */\n      dup2\n      mload\n        /* \"Ethereum/Presale.sol\":2520:2540  saleInfor.tokenPrice */\n      0x0e\n        /* \"Ethereum/Presale.sol\":2520:2551  saleInfor.tokenPrice = datas[0] */\n      sstore\n        /* \"Ethereum/Presale.sol\":2543:2551  datas[0] */\n      0x20\n        /* \"Ethereum/Presale.sol\":2584:2592  datas[1] */\n      dup3\n      add\n      mload\n        /* \"Ethereum/Presale.sol\":2562:2581  saleInfor.startSale */\n      0x0f\n        /* \"Ethereum/Presale.sol\":2562:2592  saleInfor.startSale = datas[1] */\n      sstore\n        /* \"Ethereum/Presale.sol\":2623:2631  datas[2] */\n      0x40\n      dup3\n      add\n      mload\n        /* \"Ethereum/Presale.sol\":2603:2620  saleInfor.endSale */\n      0x10\n        /* \"Ethereum/Presale.sol\":2603:2631  saleInfor.endSale = datas[2] */\n      sstore\n        /* \"Ethereum/Presale.sol\":2669:2677  datas[3] */\n      0x60\n      dup3\n      add\n      mload\n        /* \"Ethereum/Presale.sol\":2642:2666  saleInfor.valueSwapToken */\n      0x11\n        /* \"Ethereum/Presale.sol\":2642:2677  saleInfor.valueSwapToken = datas[3] */\n      sstore\n        /* \"Ethereum/Presale.sol\":2715:2723  datas[4] */\n      0x80\n      dup3\n      add\n      mload\n        /* \"Ethereum/Presale.sol\":2688:2712  saleInfor.feeTransaction */\n      0x12\n        /* \"Ethereum/Presale.sol\":2688:2723  saleInfor.feeTransaction = datas[4] */\n      sstore\n        /* \"Ethereum/Presale.sol\":2763:2771  datas[5] */\n      0xa0\n      dup3\n      add\n      mload\n        /* \"Ethereum/Presale.sol\":2734:2760  saleInfor.minSpendPerBuyer */\n      0x13\n        /* \"Ethereum/Presale.sol\":2734:2771  saleInfor.minSpendPerBuyer = datas[5] */\n      sstore\n        /* \"Ethereum/Presale.sol\":2811:2819  datas[6] */\n      0xc0\n      dup3\n      add\n      mload\n        /* \"Ethereum/Presale.sol\":2782:2808  saleInfor.maxSpendPerBuyer */\n      0x14\n        /* \"Ethereum/Presale.sol\":2782:2819  saleInfor.maxSpendPerBuyer = datas[6] */\n      sstore\n        /* \"Ethereum/Presale.sol\":2852:2860  datas[7] */\n      0xe0\n      dup3\n      add\n      mload\n        /* \"Ethereum/Presale.sol\":2830:2849  saleInfor.refundFee */\n      0x15\n        /* \"Ethereum/Presale.sol\":2830:2860  saleInfor.refundFee = datas[7] */\n      sstore\n        /* \"Ethereum/Presale.sol\":2892:2900  datas[8] */\n      0x0100\n      swap1\n      swap2\n      add\n      mload\n        /* \"Ethereum/Presale.sol\":2871:2889  saleInfor.claimFee */\n      0x16\n        /* \"Ethereum/Presale.sol\":2871:2900  saleInfor.claimFee = datas[8] */\n      sstore\n        /* \"Ethereum/Presale.sol\":2947:2951  WETH */\n      sload(0x18)\n        /* \"Ethereum/Presale.sol\":2911:2936  saleInfor.saleIsBaseToken */\n      0x17\n        /* \"Ethereum/Presale.sol\":2911:2984  saleInfor.saleIsBaseToken = address(WETH) == address(saleInfor.baseToken) */\n      dup1\n      sload\n      not(0xff)\n      and\n        /* \"Ethereum/Presale.sol\":2947:2951  WETH */\n      swap2\n      swap1\n      swap4\n      and\n        /* \"Ethereum/Presale.sol\":2939:2984  address(WETH) == address(saleInfor.baseToken) */\n      swap1\n      swap2\n      eq\n        /* \"Ethereum/Presale.sol\":2911:2984  saleInfor.saleIsBaseToken = address(WETH) == address(saleInfor.baseToken) */\n      or\n      swap1\n      sstore\n        /* \"Ethereum/Presale.sol\":2202:2992  function initialSaleInfor(\r... */\n      jump\n        /* \"Ethereum/Presale.sol\":1522:1556  PresaleStatus public presaleStatus */\n    tag_13:\n      callvalue\n      dup1\n      iszero\n      tag_72\n      jumpi\n      0x00\n      dup1\n      revert\n    tag_72:\n      pop\n      sload(0x04)\n      sload(0x05)\n      sload(0x06)\n      sload(0x07)\n      sload(0x08)\n      sload(0x09)\n      tag_73\n      swap6\n      swap5\n      swap4\n      swap3\n      swap2\n      swap1\n      dup7\n      jump\n    tag_73:\n      0x40\n      dup1\n      mload\n        /* \"#utility.yul\":6198:6223   */\n      swap7\n      dup8\n      mstore\n        /* \"#utility.yul\":6254:6256   */\n      0x20\n        /* \"#utility.yul\":6239:6257   */\n      dup8\n      add\n        /* \"#utility.yul\":6232:6266   */\n      swap6\n      swap1\n      swap6\n      mstore\n        /* \"#utility.yul\":6282:6300   */\n      swap4\n      dup6\n      add\n        /* \"#utility.yul\":6275:6309   */\n      swap3\n      swap1\n      swap3\n      mstore\n        /* \"#utility.yul\":6340:6342   */\n      0x60\n        /* \"#utility.yul\":6325:6343   */\n      dup5\n      add\n        /* \"#utility.yul\":6318:6352   */\n      mstore\n        /* \"#utility.yul\":6383:6386   */\n      0x80\n        /* \"#utility.yul\":6368:6387   */\n      dup4\n      add\n        /* \"#utility.yul\":6361:6396   */\n      mstore\n        /* \"#utility.yul\":6427:6430   */\n      0xa0\n        /* \"#utility.yul\":6412:6431   */\n      dup3\n      add\n        /* \"#utility.yul\":6405:6440   */\n      mstore\n        /* \"#utility.yul\":6185:6188   */\n      0xc0\n        /* \"#utility.yul\":6170:6189   */\n      add\n        /* \"Ethereum/Presale.sol\":1522:1556  PresaleStatus public presaleStatus */\n      tag_25\n        /* \"#utility.yul\":6152:6446   */\n      jump\n        /* \"Ethereum/Presale.sol\":1596:1614  IERC20 public WETH */\n    tag_14:\n      callvalue\n      dup1\n      iszero\n      tag_77\n      jumpi\n      0x00\n      dup1\n      revert\n    tag_77:\n      pop\n      sload(0x18)\n      tag_63\n      swap1\n      sub(shl(0xa0, 0x01), 0x01)\n      and\n      dup2\n      jump\n        /* \"Ethereum/Presale.sol\":3347:3457  function checkAdminAddress() public view returns(bool) {\r... */\n    tag_15:\n      callvalue\n      dup1\n      iszero\n      tag_82\n      jumpi\n      0x00\n      dup1\n      revert\n    tag_82:\n      pop\n      tag_83\n      tag_84\n      jump\t// in\n    tag_83:\n      mload(0x40)\n        /* \"#utility.yul\":3808:3822   */\n      swap1\n      iszero\n        /* \"#utility.yul\":3801:3823   */\n      iszero\n        /* \"#utility.yul\":3783:3824   */\n      dup2\n      mstore\n        /* \"#utility.yul\":3771:3773   */\n      0x20\n        /* \"#utility.yul\":3756:3774   */\n      add\n        /* \"Ethereum/Presale.sol\":3347:3457  function checkAdminAddress() public view returns(bool) {\r... */\n      tag_25\n        /* \"#utility.yul\":3738:3830   */\n      jump\n        /* \"Ethereum/Presale.sol\":1420:1466  mapping(address => BuyerInfo) public buyerInfo */\n    tag_16:\n      callvalue\n      dup1\n      iszero\n      tag_87\n      jumpi\n      0x00\n      dup1\n      revert\n    tag_87:\n      pop\n      tag_88\n      tag_89\n      calldatasize\n      0x04\n      tag_49\n      jump\t// in\n    tag_89:\n      0x02\n      0x20\n      dup2\n      swap1\n      mstore\n      0x00\n      swap2\n      dup3\n      mstore\n      0x40\n      swap1\n      swap2\n      keccak256\n      dup1\n      sload\n      0x01\n      dup3\n      add\n      sload\n      swap3\n      dup3\n      add\n      sload\n      0x03\n      dup4\n      add\n      sload\n      0x04\n      swap1\n      swap4\n      add\n      sload\n      swap2\n      swap4\n      swap3\n      swap1\n      swap2\n      0xff\n      dup1\n      dup3\n      and\n      swap2\n      0x0100\n      swap1\n      div\n      and\n      dup7\n      jump\n    tag_88:\n      0x40\n      dup1\n      mload\n        /* \"#utility.yul\":5626:5651   */\n      swap7\n      dup8\n      mstore\n        /* \"#utility.yul\":5682:5684   */\n      0x20\n        /* \"#utility.yul\":5667:5685   */\n      dup8\n      add\n        /* \"#utility.yul\":5660:5694   */\n      swap6\n      swap1\n      swap6\n      mstore\n        /* \"#utility.yul\":5710:5728   */\n      swap4\n      dup6\n      add\n        /* \"#utility.yul\":5703:5737   */\n      swap3\n      swap1\n      swap3\n      mstore\n        /* \"#utility.yul\":5768:5770   */\n      0x60\n        /* \"#utility.yul\":5753:5771   */\n      dup5\n      add\n        /* \"#utility.yul\":5746:5780   */\n      mstore\n        /* \"#utility.yul\":5824:5838   */\n      iszero\n        /* \"#utility.yul\":5817:5839   */\n      iszero\n        /* \"#utility.yul\":5811:5814   */\n      0x80\n        /* \"#utility.yul\":5796:5815   */\n      dup4\n      add\n        /* \"#utility.yul\":5789:5840   */\n      mstore\n        /* \"#utility.yul\":5884:5898   */\n      iszero\n        /* \"#utility.yul\":5877:5899   */\n      iszero\n        /* \"#utility.yul\":5871:5874   */\n      0xa0\n        /* \"#utility.yul\":5856:5875   */\n      dup3\n      add\n        /* \"#utility.yul\":5849:5900   */\n      mstore\n        /* \"#utility.yul\":5613:5616   */\n      0xc0\n        /* \"#utility.yul\":5598:5617   */\n      add\n        /* \"Ethereum/Presale.sol\":1420:1466  mapping(address => BuyerInfo) public buyerInfo */\n      tag_25\n        /* \"#utility.yul\":5580:5906   */\n      jump\n        /* \"Utils/Ownable.sol\":1972:2173  function transferOwnership(address newOwner) public virtual onlyOwner {\r... */\n    tag_17:\n      callvalue\n      dup1\n      iszero\n      tag_93\n      jumpi\n      0x00\n      dup1\n      revert\n    tag_93:\n      pop\n      tag_42\n      tag_95\n      calldatasize\n      0x04\n      tag_49\n      jump\t// in\n    tag_95:\n      tag_96\n      jump\t// in\n        /* \"Ethereum/Presale.sol\":4287:4398  function getBalance(address _address) external view returns(uint256) {\r... */\n    tag_18:\n      callvalue\n      dup1\n      iszero\n      tag_97\n      jumpi\n      0x00\n      dup1\n      revert\n    tag_97:\n      pop\n      tag_28\n      tag_99\n      calldatasize\n      0x04\n      tag_49\n      jump\t// in\n    tag_99:\n      sub(shl(0xa0, 0x01), 0x01)\n        /* \"Ethereum/Presale.sol\":4374:4390  _address.balance */\n      and\n      balance\n      swap1\n        /* \"Ethereum/Presale.sol\":4287:4398  function getBalance(address _address) external view returns(uint256) {\r... */\n      jump\n        /* \"Ethereum/Presale.sol\":3001:3338  function status() public view returns(uint256) {\r... */\n    tag_29:\n        /* \"Ethereum/Presale.sol\":3080:3099  saleInfor.startSale */\n      sload(0x0f)\n        /* \"Ethereum/Presale.sol\":3039:3046  uint256 */\n      0x00\n      swap1\n        /* \"Ethereum/Presale.sol\":3062:3077  block.timestamp */\n      timestamp\n        /* \"Ethereum/Presale.sol\":3062:3099  block.timestamp < saleInfor.startSale */\n      lt\n        /* \"Ethereum/Presale.sol\":3059:3331  if(block.timestamp < saleInfor.startSale) {\r... */\n      iszero\n      tag_104\n      jumpi\n      pop\n        /* \"Ethereum/Presale.sol\":3123:3124  0 */\n      0x00\n      swap1\n        /* \"Ethereum/Presale.sol\":3001:3338  function status() public view returns(uint256) {\r... */\n      jump\t// out\n        /* \"Ethereum/Presale.sol\":3059:3331  if(block.timestamp < saleInfor.startSale) {\r... */\n    tag_104:\n        /* \"Ethereum/Presale.sol\":3190:3207  saleInfor.endSale */\n      sload(0x10)\n        /* \"Ethereum/Presale.sol\":3172:3187  block.timestamp */\n      timestamp\n        /* \"Ethereum/Presale.sol\":3172:3207  block.timestamp > saleInfor.endSale */\n      gt\n        /* \"Ethereum/Presale.sol\":3169:3320  if(block.timestamp > saleInfor.endSale) {\r... */\n      iszero\n      tag_106\n      jumpi\n      pop\n        /* \"Ethereum/Presale.sol\":3235:3236  2 */\n      0x02\n      swap1\n        /* \"Ethereum/Presale.sol\":3001:3338  function status() public view returns(uint256) {\r... */\n      jump\t// out\n        /* \"Ethereum/Presale.sol\":3169:3320  if(block.timestamp > saleInfor.endSale) {\r... */\n    tag_106:\n      pop\n        /* \"Ethereum/Presale.sol\":3293:3294  1 */\n      0x01\n      swap1\n        /* \"Ethereum/Presale.sol\":3001:3338  function status() public view returns(uint256) {\r... */\n      jump\t// out\n        /* \"Ethereum/Presale.sol\":4654:4771  function getData(IERC20Metadata _address) public view returns(uint256) {\r... */\n    tag_36:\n        /* \"Ethereum/Presale.sol\":4716:4723  uint256 */\n      0x00\n        /* \"Ethereum/Presale.sol\":4744:4752  _address */\n      dup2\n      sub(shl(0xa0, 0x01), 0x01)\n        /* \"Ethereum/Presale.sol\":4744:4761  _address.decimals */\n      and\n      0x313ce567\n        /* \"Ethereum/Presale.sol\":4744:4763  _address.decimals() */\n      mload(0x40)\n      dup2\n      0xffffffff\n      and\n      0xe0\n      shl\n      dup2\n      mstore\n      0x04\n      add\n      0x20\n      mload(0x40)\n      dup1\n      dup4\n      sub\n      dup2\n      dup7\n      dup1\n      extcodesize\n      iszero\n      dup1\n      iszero\n      tag_109\n      jumpi\n      0x00\n      dup1\n      revert\n    tag_109:\n      pop\n      gas\n      staticcall\n      iszero\n      dup1\n      iszero\n      tag_111\n      jumpi\n      returndatasize\n      0x00\n      dup1\n      returndatacopy\n      revert(0x00, returndatasize)\n    tag_111:\n      pop\n      pop\n      pop\n      pop\n      mload(0x40)\n      returndatasize\n      not(0x1f)\n      0x1f\n      dup3\n      add\n      and\n      dup3\n      add\n      dup1\n      0x40\n      mstore\n      pop\n      dup2\n      add\n      swap1\n      tag_112\n      swap2\n      swap1\n      tag_113\n      jump\t// in\n    tag_112:\n        /* \"Ethereum/Presale.sol\":4736:4763  return  _address.decimals() */\n      swap3\n        /* \"Ethereum/Presale.sol\":4654:4771  function getData(IERC20Metadata _address) public view returns(uint256) {\r... */\n      swap2\n      pop\n      pop\n      jump\t// out\n        /* \"Ethereum/Presale.sol\":4525:4646  function transferETH(uint256 amount) external payable {\r... */\n    tag_45:\n        /* \"Ethereum/Presale.sol\":4598:4608  msg.sender */\n      caller\n        /* \"Ethereum/Presale.sol\":4590:4638  payable(msg.sender).transfer(msg.value - amount) */\n      0x08fc\n        /* \"Ethereum/Presale.sol\":4619:4637  msg.value - amount */\n      tag_115\n        /* \"Ethereum/Presale.sol\":4631:4637  amount */\n      dup4\n        /* \"Ethereum/Presale.sol\":4619:4628  msg.value */\n      callvalue\n        /* \"Ethereum/Presale.sol\":4619:4637  msg.value - amount */\n      tag_116\n      jump\t// in\n    tag_115:\n        /* \"Ethereum/Presale.sol\":4590:4638  payable(msg.sender).transfer(msg.value - amount) */\n      mload(0x40)\n      dup2\n      iszero\n      swap1\n      swap3\n      mul\n      swap2\n      0x00\n      dup2\n      dup2\n      dup2\n      dup6\n      dup9\n      dup9\n      call\n      swap4\n      pop\n      pop\n      pop\n      pop\n      iszero\n      dup1\n      iszero\n      tag_118\n      jumpi\n      returndatasize\n      0x00\n      dup1\n      returndatacopy\n      revert(0x00, returndatasize)\n    tag_118:\n      pop\n        /* \"Ethereum/Presale.sol\":4525:4646  function transferETH(uint256 amount) external payable {\r... */\n      pop\n      jump\t// out\n        /* \"Utils/Ownable.sol\":1714:1817  function renounceOwnership() public virtual onlyOwner {\r... */\n    tag_54:\n        /* \"Utils/Ownable.sol\":1136:1142  _owner */\n      and(sub(shl(0xa0, 0x01), 0x01), sload(0x01))\n        /* \"Utils/Context.sol\":736:746  msg.sender */\n      caller\n        /* \"Utils/Ownable.sol\":1283:1306  owner() == _msgSender() */\n      eq\n        /* \"Utils/Ownable.sol\":1275:1343  require(owner() == _msgSender(), \"Ownable: caller is not the owner\") */\n      tag_123\n      jumpi\n      mload(0x40)\n      shl(0xe5, 0x461bcd)\n      dup2\n      mstore\n        /* \"#utility.yul\":5010:5012   */\n      0x20\n        /* \"Utils/Ownable.sol\":1275:1343  require(owner() == _msgSender(), \"Ownable: caller is not the owner\") */\n      0x04\n      dup3\n      add\n        /* \"#utility.yul\":4992:5013   */\n      dup2\n      swap1\n      mstore\n        /* \"#utility.yul\":5029:5047   */\n      0x24\n      dup3\n      add\n        /* \"#utility.yul\":5022:5052   */\n      mstore\n        /* \"#utility.yul\":5088:5122   */\n      0x4f776e61626c653a2063616c6c6572206973206e6f7420746865206f776e6572\n        /* \"#utility.yul\":5068:5086   */\n      0x44\n      dup3\n      add\n        /* \"#utility.yul\":5061:5123   */\n      mstore\n        /* \"#utility.yul\":5140:5158   */\n      0x64\n      add\n        /* \"Utils/Ownable.sol\":1275:1343  require(owner() == _msgSender(), \"Ownable: caller is not the owner\") */\n    tag_124:\n      mload(0x40)\n      dup1\n      swap2\n      sub\n      swap1\n      revert\n    tag_123:\n        /* \"Utils/Ownable.sol\":1779:1809  _transferOwnership(address(0)) */\n      tag_127\n        /* \"Utils/Ownable.sol\":1806:1807  0 */\n      0x00\n        /* \"Utils/Ownable.sol\":1779:1797  _transferOwnership */\n      tag_128\n        /* \"Utils/Ownable.sol\":1779:1809  _transferOwnership(address(0)) */\n      jump\t// in\n    tag_127:\n        /* \"Utils/Ownable.sol\":1714:1817  function renounceOwnership() public virtual onlyOwner {\r... */\n      jump\t// out\n        /* \"Ethereum/Presale.sol\":3465:4279  function depodit(uint256 _amount) external view returns(uint256) {\r... */\n    tag_58:\n        /* \"Ethereum/Presale.sol\":3637:3647  msg.sender */\n      caller\n        /* \"Ethereum/Presale.sol\":3521:3528  uint256 */\n      0x00\n        /* \"Ethereum/Presale.sol\":3627:3648  buyerInfo[msg.sender] */\n      swap1\n      dup2\n      mstore\n        /* \"Ethereum/Presale.sol\":3627:3636  buyerInfo */\n      0x02\n        /* \"Ethereum/Presale.sol\":3627:3648  buyerInfo[msg.sender] */\n      0x20\n      mstore\n      0x40\n      dup2\n      keccak256\n        /* \"Ethereum/Presale.sol\":3833:3859  saleInfor.minSpendPerBuyer */\n      sload(0x13)\n        /* \"Ethereum/Presale.sol\":3679:3686  _amount */\n      dup4\n      swap1\n      dup2\n      swap1\n        /* \"Ethereum/Presale.sol\":3521:3528  uint256 */\n      dup5\n      swap1\n        /* \"Ethereum/Presale.sol\":3792:3796  1000 */\n      0x03e8\n      swap1\n        /* \"Ethereum/Presale.sol\":3815:3859  real_amount_in >= saleInfor.minSpendPerBuyer */\n      dup4\n      lt\n      iszero\n        /* \"Ethereum/Presale.sol\":3807:3908  require(real_amount_in >= saleInfor.minSpendPerBuyer, \r... */\n      tag_130\n      jumpi\n      mload(0x40)\n      shl(0xe5, 0x461bcd)\n      dup2\n      mstore\n        /* \"#utility.yul\":4665:4667   */\n      0x20\n        /* \"Ethereum/Presale.sol\":3807:3908  require(real_amount_in >= saleInfor.minSpendPerBuyer, \r... */\n      0x04\n      dup3\n      add\n        /* \"#utility.yul\":4647:4668   */\n      mstore\n        /* \"#utility.yul\":4704:4706   */\n      0x10\n        /* \"#utility.yul\":4684:4702   */\n      0x24\n      dup3\n      add\n        /* \"#utility.yul\":4677:4707   */\n      mstore\n      shl(0x80, 0x4e6f7420656e6f7567682076616c7565)\n        /* \"#utility.yul\":4723:4741   */\n      0x44\n      dup3\n      add\n        /* \"#utility.yul\":4716:4762   */\n      mstore\n        /* \"#utility.yul\":4779:4797   */\n      0x64\n      add\n        /* \"Ethereum/Presale.sol\":3807:3908  require(real_amount_in >= saleInfor.minSpendPerBuyer, \r... */\n      tag_124\n        /* \"#utility.yul\":4637:4803   */\n      jump\n        /* \"Ethereum/Presale.sol\":3807:3908  require(real_amount_in >= saleInfor.minSpendPerBuyer, \r... */\n    tag_130:\n        /* \"Ethereum/Presale.sol\":3923:3942  checkAdminAddress() */\n      tag_133\n        /* \"Ethereum/Presale.sol\":3923:3940  checkAdminAddress */\n      tag_84\n        /* \"Ethereum/Presale.sol\":3923:3942  checkAdminAddress() */\n      jump\t// in\n    tag_133:\n        /* \"Ethereum/Presale.sol\":3919:4121  if(!checkAdminAddress()) {\r... */\n      tag_134\n      jumpi\n        /* \"Ethereum/Presale.sol\":3976:4109  ((fullPercenFee.sub(feeAnyone))\r... */\n      tag_135\n        /* \"Ethereum/Presale.sol\":4095:4108  fullPercenFee */\n      dup2\n        /* \"Ethereum/Presale.sol\":3977:4058  (fullPercenFee.sub(feeAnyone))\r... */\n      tag_136\n        /* \"Ethereum/Presale.sol\":4043:4057  real_amount_in */\n      dup6\n        /* \"Ethereum/Presale.sol\":3978:4006  fullPercenFee.sub(feeAnyone) */\n      tag_137\n        /* \"Ethereum/Presale.sol\":3996:4005  feeAnyone */\n      sload(0x19)\n        /* \"Ethereum/Presale.sol\":3978:3991  fullPercenFee */\n      dup7\n        /* \"Ethereum/Presale.sol\":3978:3995  fullPercenFee.sub */\n      tag_138\n      swap1\n        /* \"Ethereum/Presale.sol\":3978:4006  fullPercenFee.sub(feeAnyone) */\n      swap2\n      swap1\n      0xffffffff\n      and\n      jump\t// in\n    tag_137:\n        /* \"Ethereum/Presale.sol\":3977:4042  (fullPercenFee.sub(feeAnyone))\r... */\n      swap1\n      tag_139\n        /* \"Ethereum/Presale.sol\":3977:4058  (fullPercenFee.sub(feeAnyone))\r... */\n      jump\t// in\n    tag_136:\n        /* \"Ethereum/Presale.sol\":3976:4094  ((fullPercenFee.sub(feeAnyone))\r... */\n      swap1\n      tag_140\n        /* \"Ethereum/Presale.sol\":3976:4109  ((fullPercenFee.sub(feeAnyone))\r... */\n      jump\t// in\n    tag_135:\n        /* \"Ethereum/Presale.sol\":3959:4109  real_amount_in = ((fullPercenFee.sub(feeAnyone))\r... */\n      swap3\n      pop\n        /* \"Ethereum/Presale.sol\":3919:4121  if(!checkAdminAddress()) {\r... */\n    tag_134:\n        /* \"Ethereum/Presale.sol\":4151:4177  saleInfor.maxSpendPerBuyer */\n      sload(0x14)\n        /* \"Ethereum/Presale.sol\":4131:4148  uint256 remaining */\n      0x00\n      swap1\n        /* \"Ethereum/Presale.sol\":4151:4194  saleInfor.maxSpendPerBuyer - real_amount_in */\n      tag_141\n      swap1\n        /* \"Ethereum/Presale.sol\":4180:4194  real_amount_in */\n      dup6\n      swap1\n        /* \"Ethereum/Presale.sol\":4151:4194  saleInfor.maxSpendPerBuyer - real_amount_in */\n      tag_116\n      jump\t// in\n    tag_141:\n        /* \"Ethereum/Presale.sol\":4245:4269  saleInfor.valueSwapToken */\n      sload(0x11)\n        /* \"Ethereum/Presale.sol\":4131:4194  uint256 remaining = saleInfor.maxSpendPerBuyer - real_amount_in */\n      swap1\n      swap2\n      pop\n        /* \"Ethereum/Presale.sol\":4205:4222  uint256 tokenSold */\n      0x00\n      swap1\n        /* \"Ethereum/Presale.sol\":4226:4270  real_amount_in.mul(saleInfor.valueSwapToken) */\n      tag_142\n      swap1\n        /* \"Ethereum/Presale.sol\":4226:4240  real_amount_in */\n      dup7\n      swap1\n        /* \"Ethereum/Presale.sol\":4226:4244  real_amount_in.mul */\n      tag_139\n        /* \"Ethereum/Presale.sol\":4226:4270  real_amount_in.mul(saleInfor.valueSwapToken) */\n      jump\t// in\n    tag_142:\n        /* \"Ethereum/Presale.sol\":4205:4271  uint256 tokenSold = (real_amount_in.mul(saleInfor.valueSwapToken)) */\n      swap1\n      pop\n        /* \"Ethereum/Presale.sol\":3465:4279  function depodit(uint256 _amount) external view returns(uint256) {\r... */\n      pop\n      pop\n      pop\n      pop\n      pop\n      pop\n      pop\n      swap2\n      swap1\n      pop\n      jump\t// out\n        /* \"Ethereum/Presale.sol\":4409:4517  function backToken() external payable {\r... */\n    tag_61:\n        /* \"Ethereum/Presale.sol\":4458:4509  payable(msg.sender).transfer(address(this).balance) */\n      mload(0x40)\n        /* \"Ethereum/Presale.sol\":4466:4476  msg.sender */\n      caller\n      swap1\n        /* \"Ethereum/Presale.sol\":4487:4508  address(this).balance */\n      selfbalance\n        /* \"Ethereum/Presale.sol\":4458:4509  payable(msg.sender).transfer(address(this).balance) */\n      dup1\n      iszero\n      0x08fc\n      mul\n      swap2\n      0x00\n      dup2\n      dup2\n      dup2\n        /* \"Ethereum/Presale.sol\":4487:4508  address(this).balance */\n      dup6\n        /* \"Ethereum/Presale.sol\":4466:4476  msg.sender */\n      dup9\n        /* \"Ethereum/Presale.sol\":4458:4509  payable(msg.sender).transfer(address(this).balance) */\n      dup9\n      call\n      swap4\n      pop\n      pop\n      pop\n      pop\n      iszero\n      dup1\n      iszero\n      tag_145\n      jumpi\n      returndatasize\n      0x00\n      dup1\n      returndatacopy\n      revert(0x00, returndatasize)\n    tag_145:\n      pop\n        /* \"Ethereum/Presale.sol\":4409:4517  function backToken() external payable {\r... */\n      jump\t// out\n        /* \"Ethereum/Presale.sol\":3347:3457  function checkAdminAddress() public view returns(bool) {\r... */\n    tag_84:\n        /* \"Ethereum/Presale.sol\":3396:3400  bool */\n      0x00\n        /* \"Ethereum/Presale.sol\":3420:3449  admins.contains(_msgSender()) */\n      tag_158\n        /* \"Ethereum/Presale.sol\":3420:3426  admins */\n      0x1a\n        /* \"Utils/Context.sol\":736:746  msg.sender */\n      caller\n        /* \"Ethereum/Presale.sol\":3420:3435  admins.contains */\n      tag_160\n        /* \"Ethereum/Presale.sol\":3420:3449  admins.contains(_msgSender()) */\n      jump\t// in\n    tag_158:\n        /* \"Ethereum/Presale.sol\":3413:3449  return admins.contains(_msgSender()) */\n      swap1\n      pop\n        /* \"Ethereum/Presale.sol\":3347:3457  function checkAdminAddress() public view returns(bool) {\r... */\n      swap1\n      jump\t// out\n        /* \"Utils/Ownable.sol\":1972:2173  function transferOwnership(address newOwner) public virtual onlyOwner {\r... */\n    tag_96:\n        /* \"Utils/Ownable.sol\":1136:1142  _owner */\n      and(sub(shl(0xa0, 0x01), 0x01), sload(0x01))\n        /* \"Utils/Context.sol\":736:746  msg.sender */\n      caller\n        /* \"Utils/Ownable.sol\":1283:1306  owner() == _msgSender() */\n      eq\n        /* \"Utils/Ownable.sol\":1275:1343  require(owner() == _msgSender(), \"Ownable: caller is not the owner\") */\n      tag_164\n      jumpi\n      mload(0x40)\n      shl(0xe5, 0x461bcd)\n      dup2\n      mstore\n        /* \"#utility.yul\":5010:5012   */\n      0x20\n        /* \"Utils/Ownable.sol\":1275:1343  require(owner() == _msgSender(), \"Ownable: caller is not the owner\") */\n      0x04\n      dup3\n      add\n        /* \"#utility.yul\":4992:5013   */\n      dup2\n      swap1\n      mstore\n        /* \"#utility.yul\":5029:5047   */\n      0x24\n      dup3\n      add\n        /* \"#utility.yul\":5022:5052   */\n      mstore\n        /* \"#utility.yul\":5088:5122   */\n      0x4f776e61626c653a2063616c6c6572206973206e6f7420746865206f776e6572\n        /* \"#utility.yul\":5068:5086   */\n      0x44\n      dup3\n      add\n        /* \"#utility.yul\":5061:5123   */\n      mstore\n        /* \"#utility.yul\":5140:5158   */\n      0x64\n      add\n        /* \"Utils/Ownable.sol\":1275:1343  require(owner() == _msgSender(), \"Ownable: caller is not the owner\") */\n      tag_124\n        /* \"#utility.yul\":4982:5164   */\n      jump\n        /* \"Utils/Ownable.sol\":1275:1343  require(owner() == _msgSender(), \"Ownable: caller is not the owner\") */\n    tag_164:\n      sub(shl(0xa0, 0x01), 0x01)\n        /* \"Utils/Ownable.sol\":2061:2083  newOwner != address(0) */\n      dup2\n      and\n        /* \"Utils/Ownable.sol\":2053:2126  require(newOwner != address(0), \"Ownable: new owner is the zero address\") */\n      tag_167\n      jumpi\n      mload(0x40)\n      shl(0xe5, 0x461bcd)\n      dup2\n      mstore\n        /* \"#utility.yul\":4258:4260   */\n      0x20\n        /* \"Utils/Ownable.sol\":2053:2126  require(newOwner != address(0), \"Ownable: new owner is the zero address\") */\n      0x04\n      dup3\n      add\n        /* \"#utility.yul\":4240:4261   */\n      mstore\n        /* \"#utility.yul\":4297:4299   */\n      0x26\n        /* \"#utility.yul\":4277:4295   */\n      0x24\n      dup3\n      add\n        /* \"#utility.yul\":4270:4300   */\n      mstore\n        /* \"#utility.yul\":4336:4370   */\n      0x4f776e61626c653a206e6577206f776e657220697320746865207a65726f2061\n        /* \"#utility.yul\":4316:4334   */\n      0x44\n      dup3\n      add\n        /* \"#utility.yul\":4309:4371   */\n      mstore\n      shl(0xd0, 0x646472657373)\n        /* \"#utility.yul\":4387:4405   */\n      0x64\n      dup3\n      add\n        /* \"#utility.yul\":4380:4416   */\n      mstore\n        /* \"#utility.yul\":4433:4452   */\n      0x84\n      add\n        /* \"Utils/Ownable.sol\":2053:2126  require(newOwner != address(0), \"Ownable: new owner is the zero address\") */\n      tag_124\n        /* \"#utility.yul\":4230:4458   */\n      jump\n        /* \"Utils/Ownable.sol\":2053:2126  require(newOwner != address(0), \"Ownable: new owner is the zero address\") */\n    tag_167:\n        /* \"Utils/Ownable.sol\":2137:2165  _transferOwnership(newOwner) */\n      tag_145\n        /* \"Utils/Ownable.sol\":2156:2164  newOwner */\n      dup2\n        /* \"Utils/Ownable.sol\":2137:2155  _transferOwnership */\n      tag_128\n        /* \"Utils/Ownable.sol\":2137:2165  _transferOwnership(newOwner) */\n      jump\t// in\n        /* \"Utils/EnumerableSet.sol\":8259:8411  function add(AddressSet storage set, address value) internal returns (bool) {\r... */\n    tag_102:\n        /* \"Utils/EnumerableSet.sol\":8329:8333  bool */\n      0x00\n        /* \"Utils/EnumerableSet.sol\":8353:8403  _add(set._inner, bytes32(uint256(uint160(value)))) */\n      tag_173\n        /* \"Utils/EnumerableSet.sol\":8358:8361  set */\n      dup4\n      sub(shl(0xa0, 0x01), 0x01)\n        /* \"Utils/EnumerableSet.sol\":8378:8401  uint256(uint160(value)) */\n      dup5\n      and\n        /* \"Utils/EnumerableSet.sol\":8353:8357  _add */\n      tag_174\n        /* \"Utils/EnumerableSet.sol\":8353:8403  _add(set._inner, bytes32(uint256(uint160(value)))) */\n      jump\t// in\n    tag_173:\n        /* \"Utils/EnumerableSet.sol\":8346:8403  return _add(set._inner, bytes32(uint256(uint160(value)))) */\n      swap4\n        /* \"Utils/EnumerableSet.sol\":8259:8411  function add(AddressSet storage set, address value) internal returns (bool) {\r... */\n      swap3\n      pop\n      pop\n      pop\n      jump\t// out\n        /* \"Utils/Ownable.sol\":2333:2524  function _transferOwnership(address newOwner) internal virtual {\r... */\n    tag_128:\n        /* \"Utils/Ownable.sol\":2426:2432  _owner */\n      0x01\n      dup1\n      sload\n      sub(shl(0xa0, 0x01), 0x01)\n        /* \"Utils/Ownable.sol\":2443:2460  _owner = newOwner */\n      dup4\n      dup2\n      and\n      not(sub(shl(0xa0, 0x01), 0x01))\n      dup4\n      and\n      dup2\n      or\n      swap1\n      swap4\n      sstore\n        /* \"Utils/Ownable.sol\":2476:2516  OwnershipTransferred(oldOwner, newOwner) */\n      mload(0x40)\n        /* \"Utils/Ownable.sol\":2426:2432  _owner */\n      swap2\n      and\n      swap2\n        /* \"Utils/Ownable.sol\":2443:2460  _owner = newOwner */\n      swap1\n        /* \"Utils/Ownable.sol\":2426:2432  _owner */\n      dup3\n      swap1\n        /* \"Utils/Ownable.sol\":2476:2516  OwnershipTransferred(oldOwner, newOwner) */\n      0x8be0079c531659141344cd1fd0a4f28419497f9722a3daafe3b4186f6b6457e0\n      swap1\n        /* \"Utils/Ownable.sol\":2407:2423  address oldOwner */\n      0x00\n      swap1\n        /* \"Utils/Ownable.sol\":2476:2516  OwnershipTransferred(oldOwner, newOwner) */\n      log3\n        /* \"Utils/Ownable.sol\":2333:2524  function _transferOwnership(address newOwner) internal virtual {\r... */\n      pop\n      pop\n      jump\t// out\n        /* \"Utils/SafeMath.sol\":3228:3326  function sub(uint256 a, uint256 b) internal pure returns (uint256) {\r... */\n    tag_138:\n        /* \"Utils/SafeMath.sol\":3286:3293  uint256 */\n      0x00\n        /* \"Utils/SafeMath.sol\":3313:3318  a - b */\n      tag_173\n        /* \"Utils/SafeMath.sol\":3317:3318  b */\n      dup3\n        /* \"Utils/SafeMath.sol\":3313:3314  a */\n      dup5\n        /* \"Utils/SafeMath.sol\":3313:3318  a - b */\n      tag_116\n      jump\t// in\n        /* \"Utils/SafeMath.sol\":3585:3683  function mul(uint256 a, uint256 b) internal pure returns (uint256) {\r... */\n    tag_139:\n        /* \"Utils/SafeMath.sol\":3643:3650  uint256 */\n      0x00\n        /* \"Utils/SafeMath.sol\":3670:3675  a * b */\n      tag_173\n        /* \"Utils/SafeMath.sol\":3674:3675  b */\n      dup3\n        /* \"Utils/SafeMath.sol\":3670:3671  a */\n      dup5\n        /* \"Utils/SafeMath.sol\":3670:3675  a * b */\n      tag_181\n      jump\t// in\n        /* \"Utils/SafeMath.sol\":3984:4082  function div(uint256 a, uint256 b) internal pure returns (uint256) {\r... */\n    tag_140:\n        /* \"Utils/SafeMath.sol\":4042:4049  uint256 */\n      0x00\n        /* \"Utils/SafeMath.sol\":4069:4074  a / b */\n      tag_173\n        /* \"Utils/SafeMath.sol\":4073:4074  b */\n      dup3\n        /* \"Utils/SafeMath.sol\":4069:4070  a */\n      dup5\n        /* \"Utils/SafeMath.sol\":4069:4074  a / b */\n      tag_184\n      jump\t// in\n        /* \"Utils/EnumerableSet.sol\":8831:8998  function contains(AddressSet storage set, address value) internal view returns (bool) {\r... */\n    tag_160:\n      sub(shl(0xa0, 0x01), 0x01)\n        /* \"Utils/EnumerableSet.sol\":8965:8988  uint256(uint160(value)) */\n      dup2\n      and\n        /* \"Utils/EnumerableSet.sol\":8911:8915  bool */\n      0x00\n        /* \"Utils/EnumerableSet.sol\":4367:4386  set._indexes[value] */\n      swap1\n      dup2\n      mstore\n        /* \"Utils/EnumerableSet.sol\":4367:4379  set._indexes */\n      0x01\n      dup4\n      add\n        /* \"Utils/EnumerableSet.sol\":4367:4386  set._indexes[value] */\n      0x20\n      mstore\n      0x40\n      dup2\n      keccak256\n      sload\n        /* \"Utils/EnumerableSet.sol\":4367:4391  set._indexes[value] != 0 */\n      iszero\n      iszero\n        /* \"Utils/EnumerableSet.sol\":8935:8990  _contains(set._inner, bytes32(uint256(uint160(value)))) */\n      tag_173\n        /* \"Utils/EnumerableSet.sol\":4270:4399  function _contains(Set storage set, bytes32 value) private view returns (bool) {\r... */\n      jump\n        /* \"Utils/EnumerableSet.sol\":2174:2588  function _add(Set storage set, bytes32 value) private returns (bool) {\r... */\n    tag_174:\n        /* \"Utils/EnumerableSet.sol\":2237:2241  bool */\n      0x00\n        /* \"Utils/EnumerableSet.sol\":4367:4386  set._indexes[value] */\n      dup2\n      dup2\n      mstore\n        /* \"Utils/EnumerableSet.sol\":4367:4379  set._indexes */\n      0x01\n      dup4\n      add\n        /* \"Utils/EnumerableSet.sol\":4367:4386  set._indexes[value] */\n      0x20\n      mstore\n      0x40\n      dup2\n      keccak256\n      sload\n        /* \"Utils/EnumerableSet.sol\":2254:2581  if (!_contains(set, value)) {\r... */\n      tag_190\n      jumpi\n      pop\n        /* \"Utils/EnumerableSet.sol\":2297:2320  set._values.push(value) */\n      dup2\n      sload\n      0x01\n      dup2\n      dup2\n      add\n      dup5\n      sstore\n        /* \"Utils/EnumerableSet.sol\":2297:2308  set._values */\n      0x00\n        /* \"Utils/EnumerableSet.sol\":2297:2320  set._values.push(value) */\n      dup5\n      dup2\n      mstore\n      0x20\n      dup1\n      dup3\n      keccak256\n      swap1\n      swap4\n      add\n      dup5\n      swap1\n      sstore\n        /* \"Utils/EnumerableSet.sol\":2480:2498  set._values.length */\n      dup5\n      sload\n        /* \"Utils/EnumerableSet.sol\":2458:2477  set._indexes[value] */\n      dup5\n      dup3\n      mstore\n        /* \"Utils/EnumerableSet.sol\":2458:2470  set._indexes */\n      dup3\n      dup7\n      add\n        /* \"Utils/EnumerableSet.sol\":2458:2477  set._indexes[value] */\n      swap1\n      swap4\n      mstore\n      0x40\n      swap1\n      keccak256\n        /* \"Utils/EnumerableSet.sol\":2458:2498  set._indexes[value] = set._values.length */\n      swap2\n      swap1\n      swap2\n      sstore\n        /* \"Utils/EnumerableSet.sol\":2513:2524  return true */\n      jump(tag_112)\n        /* \"Utils/EnumerableSet.sol\":2254:2581  if (!_contains(set, value)) {\r... */\n    tag_190:\n      pop\n        /* \"Utils/EnumerableSet.sol\":2564:2569  false */\n      0x00\n        /* \"Utils/EnumerableSet.sol\":2557:2569  return false */\n      jump(tag_112)\n        /* \"#utility.yul\":14:271   */\n    tag_49:\n        /* \"#utility.yul\":73:79   */\n      0x00\n        /* \"#utility.yul\":126:128   */\n      0x20\n        /* \"#utility.yul\":114:123   */\n      dup3\n        /* \"#utility.yul\":105:112   */\n      dup5\n        /* \"#utility.yul\":101:124   */\n      sub\n        /* \"#utility.yul\":97:129   */\n      slt\n        /* \"#utility.yul\":94:96   */\n      iszero\n      tag_196\n      jumpi\n        /* \"#utility.yul\":147:153   */\n      dup1\n        /* \"#utility.yul\":139:145   */\n      dup2\n        /* \"#utility.yul\":132:154   */\n      revert\n        /* \"#utility.yul\":94:96   */\n    tag_196:\n        /* \"#utility.yul\":191:200   */\n      dup2\n        /* \"#utility.yul\":178:201   */\n      calldataload\n        /* \"#utility.yul\":210:241   */\n      tag_173\n        /* \"#utility.yul\":235:240   */\n      dup2\n        /* \"#utility.yul\":210:241   */\n      tag_198\n      jump\t// in\n        /* \"#utility.yul\":276:1572   */\n    tag_70:\n        /* \"#utility.yul\":419:425   */\n      0x00\n        /* \"#utility.yul\":427:433   */\n      dup1\n        /* \"#utility.yul\":435:441   */\n      0x00\n        /* \"#utility.yul\":443:449   */\n      dup1\n        /* \"#utility.yul\":474:477   */\n      0x0180\n        /* \"#utility.yul\":518:520   */\n      dup1\n        /* \"#utility.yul\":506:515   */\n      dup7\n        /* \"#utility.yul\":497:504   */\n      dup9\n        /* \"#utility.yul\":493:516   */\n      sub\n        /* \"#utility.yul\":489:521   */\n      slt\n        /* \"#utility.yul\":486:488   */\n      iszero\n      tag_200\n      jumpi\n        /* \"#utility.yul\":539:545   */\n      dup4\n        /* \"#utility.yul\":531:537   */\n      dup5\n        /* \"#utility.yul\":524:546   */\n      revert\n        /* \"#utility.yul\":486:488   */\n    tag_200:\n        /* \"#utility.yul\":583:592   */\n      dup6\n        /* \"#utility.yul\":570:593   */\n      calldataload\n        /* \"#utility.yul\":602:633   */\n      tag_201\n        /* \"#utility.yul\":627:632   */\n      dup2\n        /* \"#utility.yul\":602:633   */\n      tag_198\n      jump\t// in\n    tag_201:\n        /* \"#utility.yul\":652:657   */\n      swap5\n      pop\n        /* \"#utility.yul\":676:678   */\n      0x20\n        /* \"#utility.yul\":715:733   */\n      dup7\n      dup2\n      add\n        /* \"#utility.yul\":702:734   */\n      calldataload\n        /* \"#utility.yul\":743:776   */\n      tag_202\n        /* \"#utility.yul\":702:734   */\n      dup2\n        /* \"#utility.yul\":743:776   */\n      tag_198\n      jump\t// in\n    tag_202:\n        /* \"#utility.yul\":795:802   */\n      swap5\n      pop\n        /* \"#utility.yul\":854:856   */\n      0x40\n        /* \"#utility.yul\":839:857   */\n      dup8\n      add\n        /* \"#utility.yul\":826:858   */\n      calldataload\n        /* \"#utility.yul\":867:900   */\n      tag_203\n        /* \"#utility.yul\":826:858   */\n      dup2\n        /* \"#utility.yul\":867:900   */\n      tag_198\n      jump\t// in\n    tag_203:\n        /* \"#utility.yul\":919:926   */\n      swap4\n      pop\n        /* \"#utility.yul\":964:967   */\n      0x7f\n        /* \"#utility.yul\":949:968   */\n      dup8\n      add\n        /* \"#utility.yul\":945:978   */\n      dup9\n      sgt\n        /* \"#utility.yul\":935:937   */\n      tag_204\n      jumpi\n        /* \"#utility.yul\":997:1003   */\n      dup3\n        /* \"#utility.yul\":989:995   */\n      dup4\n        /* \"#utility.yul\":982:1004   */\n      revert\n        /* \"#utility.yul\":935:937   */\n    tag_204:\n        /* \"#utility.yul\":1035:1037   */\n      0x40\n        /* \"#utility.yul\":1029:1038   */\n      mload\n        /* \"#utility.yul\":1077:1080   */\n      0x0120\n        /* \"#utility.yul\":1069:1075   */\n      dup2\n        /* \"#utility.yul\":1065:1081   */\n      add\n        /* \"#utility.yul\":1147:1153   */\n      dup2\n        /* \"#utility.yul\":1135:1145   */\n      dup2\n        /* \"#utility.yul\":1132:1154   */\n      lt\n        /* \"#utility.yul\":1111:1129   */\n      0xffffffffffffffff\n        /* \"#utility.yul\":1099:1109   */\n      dup3\n        /* \"#utility.yul\":1096:1130   */\n      gt\n        /* \"#utility.yul\":1093:1155   */\n      or\n        /* \"#utility.yul\":1090:1092   */\n      iszero\n      tag_206\n      jumpi\n        /* \"#utility.yul\":1158:1176   */\n      tag_206\n      tag_207\n      jump\t// in\n    tag_206:\n        /* \"#utility.yul\":1194:1196   */\n      0x40\n        /* \"#utility.yul\":1187:1209   */\n      mstore\n        /* \"#utility.yul\":1229:1235   */\n      dup1\n        /* \"#utility.yul\":1270:1272   */\n      0x60\n        /* \"#utility.yul\":1255:1273   */\n      dup10\n      add\n        /* \"#utility.yul\":1288:1306   */\n      dup5\n      dup11\n      add\n        /* \"#utility.yul\":1285:1316   */\n      dup12\n      lt\n        /* \"#utility.yul\":1282:1284   */\n      iszero\n      tag_208\n      jumpi\n        /* \"#utility.yul\":1334:1340   */\n      dup6\n        /* \"#utility.yul\":1326:1332   */\n      dup7\n        /* \"#utility.yul\":1319:1341   */\n      revert\n        /* \"#utility.yul\":1282:1284   */\n    tag_208:\n        /* \"#utility.yul\":1361:1367   */\n      dup6\n        /* \"#utility.yul\":1352:1367   */\n      swap5\n      pop\n        /* \"#utility.yul\":1376:1541   */\n    tag_209:\n        /* \"#utility.yul\":1390:1394   */\n      0x09\n        /* \"#utility.yul\":1387:1388   */\n      dup6\n        /* \"#utility.yul\":1384:1395   */\n      lt\n        /* \"#utility.yul\":1376:1541   */\n      iszero\n      tag_211\n      jumpi\n        /* \"#utility.yul\":1449:1466   */\n      dup1\n      calldataload\n        /* \"#utility.yul\":1437:1467   */\n      dup3\n      mstore\n        /* \"#utility.yul\":1410:1411   */\n      0x01\n        /* \"#utility.yul\":1403:1412   */\n      swap5\n      swap1\n      swap5\n      add\n      swap4\n        /* \"#utility.yul\":1487:1499   */\n      swap1\n      dup4\n      add\n      swap1\n        /* \"#utility.yul\":1519:1531   */\n      dup4\n      add\n        /* \"#utility.yul\":1376:1541   */\n      jump(tag_209)\n    tag_211:\n        /* \"#utility.yul\":1380:1383   */\n      pop\n      pop\n        /* \"#utility.yul\":1560:1566   */\n      dup1\n        /* \"#utility.yul\":1550:1566   */\n      swap4\n      pop\n      pop\n      pop\n      pop\n        /* \"#utility.yul\":454:1572   */\n      swap3\n      swap6\n      swap2\n      swap5\n      pop\n      swap3\n      pop\n      jump\t// out\n        /* \"#utility.yul\":1861:2051   */\n    tag_44:\n        /* \"#utility.yul\":1920:1926   */\n      0x00\n        /* \"#utility.yul\":1973:1975   */\n      0x20\n        /* \"#utility.yul\":1961:1970   */\n      dup3\n        /* \"#utility.yul\":1952:1959   */\n      dup5\n        /* \"#utility.yul\":1948:1971   */\n      sub\n        /* \"#utility.yul\":1944:1976   */\n      slt\n        /* \"#utility.yul\":1941:1943   */\n      iszero\n      tag_216\n      jumpi\n        /* \"#utility.yul\":1994:2000   */\n      dup1\n        /* \"#utility.yul\":1986:1992   */\n      dup2\n        /* \"#utility.yul\":1979:2001   */\n      revert\n        /* \"#utility.yul\":1941:1943   */\n    tag_216:\n      pop\n        /* \"#utility.yul\":2022:2045   */\n      calldataload\n      swap2\n        /* \"#utility.yul\":1931:2051   */\n      swap1\n      pop\n      jump\t// out\n        /* \"#utility.yul\":2056:2250   */\n    tag_113:\n        /* \"#utility.yul\":2126:2132   */\n      0x00\n        /* \"#utility.yul\":2179:2181   */\n      0x20\n        /* \"#utility.yul\":2167:2176   */\n      dup3\n        /* \"#utility.yul\":2158:2165   */\n      dup5\n        /* \"#utility.yul\":2154:2177   */\n      sub\n        /* \"#utility.yul\":2150:2182   */\n      slt\n        /* \"#utility.yul\":2147:2149   */\n      iszero\n      tag_218\n      jumpi\n        /* \"#utility.yul\":2200:2206   */\n      dup1\n        /* \"#utility.yul\":2192:2198   */\n      dup2\n        /* \"#utility.yul\":2185:2207   */\n      revert\n        /* \"#utility.yul\":2147:2149   */\n    tag_218:\n      pop\n        /* \"#utility.yul\":2228:2244   */\n      mload\n      swap2\n        /* \"#utility.yul\":2137:2250   */\n      swap1\n      pop\n      jump\t// out\n        /* \"#utility.yul\":6451:6668   */\n    tag_184:\n        /* \"#utility.yul\":6491:6492   */\n      0x00\n        /* \"#utility.yul\":6517:6518   */\n      dup3\n        /* \"#utility.yul\":6507:6509   */\n      tag_230\n      jumpi\n      shl(0xe0, 0x4e487b71)\n        /* \"#utility.yul\":6542:6573   */\n      dup2\n      mstore\n        /* \"#utility.yul\":6596:6600   */\n      0x12\n        /* \"#utility.yul\":6593:6594   */\n      0x04\n        /* \"#utility.yul\":6586:6601   */\n      mstore\n        /* \"#utility.yul\":6624:6628   */\n      0x24\n        /* \"#utility.yul\":6549:6550   */\n      dup2\n        /* \"#utility.yul\":6614:6629   */\n      revert\n        /* \"#utility.yul\":6507:6509   */\n    tag_230:\n      pop\n        /* \"#utility.yul\":6653:6662   */\n      div\n      swap1\n        /* \"#utility.yul\":6497:6668   */\n      jump\t// out\n        /* \"#utility.yul\":6673:6841   */\n    tag_181:\n        /* \"#utility.yul\":6713:6720   */\n      0x00\n        /* \"#utility.yul\":6779:6780   */\n      dup2\n        /* \"#utility.yul\":6775:6776   */\n      0x00\n        /* \"#utility.yul\":6771:6777   */\n      not\n        /* \"#utility.yul\":6767:6781   */\n      div\n        /* \"#utility.yul\":6764:6765   */\n      dup4\n        /* \"#utility.yul\":6761:6782   */\n      gt\n        /* \"#utility.yul\":6756:6757   */\n      dup3\n        /* \"#utility.yul\":6749:6758   */\n      iszero\n        /* \"#utility.yul\":6742:6759   */\n      iszero\n        /* \"#utility.yul\":6738:6783   */\n      and\n        /* \"#utility.yul\":6735:6737   */\n      iszero\n      tag_233\n      jumpi\n        /* \"#utility.yul\":6786:6804   */\n      tag_233\n      tag_234\n      jump\t// in\n    tag_233:\n      pop\n        /* \"#utility.yul\":6826:6835   */\n      mul\n      swap1\n        /* \"#utility.yul\":6725:6841   */\n      jump\t// out\n        /* \"#utility.yul\":6846:6971   */\n    tag_116:\n        /* \"#utility.yul\":6886:6890   */\n      0x00\n        /* \"#utility.yul\":6914:6915   */\n      dup3\n        /* \"#utility.yul\":6911:6912   */\n      dup3\n        /* \"#utility.yul\":6908:6916   */\n      lt\n        /* \"#utility.yul\":6905:6907   */\n      iszero\n      tag_237\n      jumpi\n        /* \"#utility.yul\":6919:6937   */\n      tag_237\n      tag_234\n      jump\t// in\n    tag_237:\n      pop\n        /* \"#utility.yul\":6956:6965   */\n      sub\n      swap1\n        /* \"#utility.yul\":6895:6971   */\n      jump\t// out\n        /* \"#utility.yul\":6976:7103   */\n    tag_234:\n        /* \"#utility.yul\":7037:7047   */\n      0x4e487b71\n        /* \"#utility.yul\":7032:7035   */\n      0xe0\n        /* \"#utility.yul\":7028:7048   */\n      shl\n        /* \"#utility.yul\":7025:7026   */\n      0x00\n        /* \"#utility.yul\":7018:7049   */\n      mstore\n        /* \"#utility.yul\":7068:7072   */\n      0x11\n        /* \"#utility.yul\":7065:7066   */\n      0x04\n        /* \"#utility.yul\":7058:7073   */\n      mstore\n        /* \"#utility.yul\":7092:7096   */\n      0x24\n        /* \"#utility.yul\":7089:7090   */\n      0x00\n        /* \"#utility.yul\":7082:7097   */\n      revert\n        /* \"#utility.yul\":7108:7235   */\n    tag_207:\n        /* \"#utility.yul\":7169:7179   */\n      0x4e487b71\n        /* \"#utility.yul\":7164:7167   */\n      0xe0\n        /* \"#utility.yul\":7160:7180   */\n      shl\n        /* \"#utility.yul\":7157:7158   */\n      0x00\n        /* \"#utility.yul\":7150:7181   */\n      mstore\n        /* \"#utility.yul\":7200:7204   */\n      0x41\n        /* \"#utility.yul\":7197:7198   */\n      0x04\n        /* \"#utility.yul\":7190:7205   */\n      mstore\n        /* \"#utility.yul\":7224:7228   */\n      0x24\n        /* \"#utility.yul\":7221:7222   */\n      0x00\n        /* \"#utility.yul\":7214:7229   */\n      revert\n        /* \"#utility.yul\":7240:7371   */\n    tag_198:\n      sub(shl(0xa0, 0x01), 0x01)\n        /* \"#utility.yul\":7315:7346   */\n      dup2\n      and\n        /* \"#utility.yul\":7305:7347   */\n      dup2\n      eq\n        /* \"#utility.yul\":7295:7297   */\n      tag_145\n      jumpi\n        /* \"#utility.yul\":7361:7362   */\n      0x00\n        /* \"#utility.yul\":7358:7359   */\n      dup1\n        /* \"#utility.yul\":7351:7363   */\n      revert\n\n    auxdata: 0xa2646970667358221220e89da4fcd5c843c7fad7ecc12f128b94b55ef83674c5d08cb4ef2b1f541921d264736f6c63430008040033\n}\n",
				"bytecode": {
					"linkReferences": {},
					"object": "608060405260016000556100123361009c565b6018805473c778417e063141139fce010982780140aa0cd5ab6001600160a01b0319909116179055610064601a736ccb41eeda5a073076f3e7dc1614c185b5fa41ed6100ee602090811b61081a17901c565b50610091734f0b12bbf40fc182559822a5b1db6d34dbc3e016601a6100ee60201b61081a1790919060201c565b50601460195561015b565b600180546001600160a01b038381166001600160a01b0319831681179093556040519116919082907f8be0079c531659141344cd1fd0a4f28419497f9722a3daafe3b4186f6b6457e090600090a35050565b6000610103836001600160a01b03841661010c565b90505b92915050565b600081815260018301602052604081205461015357508154600181810184556000848152602080822090930184905584548482528286019093526040902091909155610106565b506000610106565b610af78061016a6000396000f3fe6080604052600436106100fe5760003560e01c8063861faf5f11610095578063ad5c464811610064578063ad5c4648146103ed578063cad5b0f71461040d578063e2d3f42314610432578063f2fde38b146104b9578063f8b2cb4f146104d957600080fd5b8063861faf5f146102a35780638da5cb5b146102ab5780638f1eae4c146102dd578063acfb23551461039557600080fd5b80634329db46116100d15780634329db461461022c57806356c5f34914610241578063715018a61461026e578063796478331461028357600080fd5b806318856a2f14610103578063200d2ed2146101d357806338266b22146101f65780633b5ef2ad14610216575b600080fd5b34801561010f57600080fd5b50600b54600c54600d54600e54600f5460105460115460125460135460145460155460165460175461015b9c6001600160a01b039081169c81169b169998979695949392919060ff168d565b604080516001600160a01b039e8f1681529c8e1660208e01529a909c16998b019990995260608a0197909752608089019590955260a088019390935260c087019190915260e08601526101008501526101208401526101408301526101608201529015156101808201526101a0015b60405180910390f35b3480156101df57600080fd5b506101e8610501565b6040519081526020016101ca565b34801561020257600080fd5b506101e861021136600461091d565b61052a565b34801561022257600080fd5b506101e860195481565b61023f61023a3660046109fa565b6105a3565b005b34801561024d57600080fd5b506101e861025c36600461091d565b60036020526000908152604090205481565b34801561027a57600080fd5b5061023f6105dd565b34801561028f57600080fd5b506101e861029e3660046109fa565b610648565b61023f610711565b3480156102b757600080fd5b506001546001600160a01b03165b6040516001600160a01b0390911681526020016101ca565b3480156102e957600080fd5b5061023f6102f8366004610939565b600b80546001600160a01b03199081166001600160a01b0396871617909155600c8054821694861694909417909355600d80549093169184169182179092558151600e556020820151600f5560408201516010556060820151601155608082015160125560a082015160135560c082015160145560e0820151601555610100909101516016556018546017805460ff191691909316909114179055565b3480156103a157600080fd5b506004546005546006546007546008546009546103c095949392919086565b604080519687526020870195909552938501929092526060840152608083015260a082015260c0016101ca565b3480156103f957600080fd5b506018546102c5906001600160a01b031681565b34801561041957600080fd5b50610422610740565b60405190151581526020016101ca565b34801561043e57600080fd5b5061048861044d36600461091d565b600260208190526000918252604090912080546001820154928201546003830154600490930154919392909160ff8082169161010090041686565b60408051968752602087019590955293850192909252606084015215156080830152151560a082015260c0016101ca565b3480156104c557600080fd5b5061023f6104d436600461091d565b610752565b3480156104e557600080fd5b506101e86104f436600461091d565b6001600160a01b03163190565b600f546000904210156105145750600090565b6010544211156105245750600290565b50600190565b6000816001600160a01b031663313ce5676040518163ffffffff1660e01b815260040160206040518083038186803b15801561056557600080fd5b505afa158015610579573d6000803e3d6000fd5b505050506040513d601f19601f8201168201806040525081019061059d9190610a12565b92915050565b336108fc6105b18334610a69565b6040518115909202916000818181858888f193505050501580156105d9573d6000803e3d6000fd5b5050565b6001546001600160a01b0316331461063c5760405162461bcd60e51b815260206004820181905260248201527f4f776e61626c653a2063616c6c6572206973206e6f7420746865206f776e657260448201526064015b60405180910390fd5b6106466000610836565b565b3360009081526002602052604081206013548390819084906103e8908310156106a65760405162461bcd60e51b815260206004820152601060248201526f4e6f7420656e6f7567682076616c756560801b6044820152606401610633565b6106ae610740565b6106de576106db816106d5856106cf6019548661088890919063ffffffff16565b90610894565b906108a0565b92505b6014546000906106ef908590610a69565b601154909150600090610703908690610894565b905050505050505050919050565b60405133904780156108fc02916000818181858888f1935050505015801561073d573d6000803e3d6000fd5b50565b600061074d601a336108ac565b905090565b6001546001600160a01b031633146107ac5760405162461bcd60e51b815260206004820181905260248201527f4f776e61626c653a2063616c6c6572206973206e6f7420746865206f776e65726044820152606401610633565b6001600160a01b0381166108115760405162461bcd60e51b815260206004820152602660248201527f4f776e61626c653a206e6577206f776e657220697320746865207a65726f206160448201526564647265737360d01b6064820152608401610633565b61073d81610836565b600061082f836001600160a01b0384166108ce565b9392505050565b600180546001600160a01b038381166001600160a01b0319831681179093556040519116919082907f8be0079c531659141344cd1fd0a4f28419497f9722a3daafe3b4186f6b6457e090600090a35050565b600061082f8284610a69565b600061082f8284610a4a565b600061082f8284610a2a565b6001600160a01b0381166000908152600183016020526040812054151561082f565b60008181526001830160205260408120546109155750815460018181018455600084815260208082209093018490558454848252828601909352604090209190915561059d565b50600061059d565b60006020828403121561092e578081fd5b813561082f81610aac565b600080600080610180808688031215610950578384fd5b853561095b81610aac565b945060208681013561096c81610aac565b9450604087013561097c81610aac565b9350607f8701881361098c578283fd5b604051610120810181811067ffffffffffffffff821117156109b0576109b0610a96565b6040528060608901848a018b10156109c6578586fd5b8594505b60098510156109e95780358252600194909401939083019083016109ca565b505080935050505092959194509250565b600060208284031215610a0b578081fd5b5035919050565b600060208284031215610a23578081fd5b5051919050565b600082610a4557634e487b7160e01b81526012600452602481fd5b500490565b6000816000190483118215151615610a6457610a64610a80565b500290565b600082821015610a7b57610a7b610a80565b500390565b634e487b7160e01b600052601160045260246000fd5b634e487b7160e01b600052604160045260246000fd5b6001600160a01b038116811461073d57600080fdfea2646970667358221220e89da4fcd5c843c7fad7ecc12f128b94b55ef83674c5d08cb4ef2b1f541921d264736f6c63430008040033",
					"opcodes": "PUSH1 0x80 PUSH1 0x40 MSTORE PUSH1 0x1 PUSH1 0x0 SSTORE PUSH2 0x12 CALLER PUSH2 0x9C JUMP JUMPDEST PUSH1 0x18 DUP1 SLOAD PUSH20 0xC778417E063141139FCE010982780140AA0CD5AB PUSH1 0x1 PUSH1 0x1 PUSH1 0xA0 SHL SUB NOT SWAP1 SWAP2 AND OR SWAP1 SSTORE PUSH2 0x64 PUSH1 0x1A PUSH20 0x6CCB41EEDA5A073076F3E7DC1614C185B5FA41ED PUSH2 0xEE PUSH1 0x20 SWAP1 DUP2 SHL PUSH2 0x81A OR SWAP1 SHR JUMP JUMPDEST POP PUSH2 0x91 PUSH20 0x4F0B12BBF40FC182559822A5B1DB6D34DBC3E016 PUSH1 0x1A PUSH2 0xEE PUSH1 0x20 SHL PUSH2 0x81A OR SWAP1 SWAP2 SWAP1 PUSH1 0x20 SHR JUMP JUMPDEST POP PUSH1 0x14 PUSH1 0x19 SSTORE PUSH2 0x15B JUMP JUMPDEST PUSH1 0x1 DUP1 SLOAD PUSH1 0x1 PUSH1 0x1 PUSH1 0xA0 SHL SUB DUP4 DUP2 AND PUSH1 0x1 PUSH1 0x1 PUSH1 0xA0 SHL SUB NOT DUP4 AND DUP2 OR SWAP1 SWAP4 SSTORE PUSH1 0x40 MLOAD SWAP2 AND SWAP2 SWAP1 DUP3 SWAP1 PUSH32 0x8BE0079C531659141344CD1FD0A4F28419497F9722A3DAAFE3B4186F6B6457E0 SWAP1 PUSH1 0x0 SWAP1 LOG3 POP POP JUMP JUMPDEST PUSH1 0x0 PUSH2 0x103 DUP4 PUSH1 0x1 PUSH1 0x1 PUSH1 0xA0 SHL SUB DUP5 AND PUSH2 0x10C JUMP JUMPDEST SWAP1 POP JUMPDEST SWAP3 SWAP2 POP POP JUMP JUMPDEST PUSH1 0x0 DUP2 DUP2 MSTORE PUSH1 0x1 DUP4 ADD PUSH1 0x20 MSTORE PUSH1 0x40 DUP2 KECCAK256 SLOAD PUSH2 0x153 JUMPI POP DUP2 SLOAD PUSH1 0x1 DUP2 DUP2 ADD DUP5 SSTORE PUSH1 0x0 DUP5 DUP2 MSTORE PUSH1 0x20 DUP1 DUP3 KECCAK256 SWAP1 SWAP4 ADD DUP5 SWAP1 SSTORE DUP5 SLOAD DUP5 DUP3 MSTORE DUP3 DUP7 ADD SWAP1 SWAP4 MSTORE PUSH1 0x40 SWAP1 KECCAK256 SWAP2 SWAP1 SWAP2 SSTORE PUSH2 0x106 JUMP JUMPDEST POP PUSH1 0x0 PUSH2 0x106 JUMP JUMPDEST PUSH2 0xAF7 DUP1 PUSH2 0x16A PUSH1 0x0 CODECOPY PUSH1 0x0 RETURN INVALID PUSH1 0x80 PUSH1 0x40 MSTORE PUSH1 0x4 CALLDATASIZE LT PUSH2 0xFE JUMPI PUSH1 0x0 CALLDATALOAD PUSH1 0xE0 SHR DUP1 PUSH4 0x861FAF5F GT PUSH2 0x95 JUMPI DUP1 PUSH4 0xAD5C4648 GT PUSH2 0x64 JUMPI DUP1 PUSH4 0xAD5C4648 EQ PUSH2 0x3ED JUMPI DUP1 PUSH4 0xCAD5B0F7 EQ PUSH2 0x40D JUMPI DUP1 PUSH4 0xE2D3F423 EQ PUSH2 0x432 JUMPI DUP1 PUSH4 0xF2FDE38B EQ PUSH2 0x4B9 JUMPI DUP1 PUSH4 0xF8B2CB4F EQ PUSH2 0x4D9 JUMPI PUSH1 0x0 DUP1 REVERT JUMPDEST DUP1 PUSH4 0x861FAF5F EQ PUSH2 0x2A3 JUMPI DUP1 PUSH4 0x8DA5CB5B EQ PUSH2 0x2AB JUMPI DUP1 PUSH4 0x8F1EAE4C EQ PUSH2 0x2DD JUMPI DUP1 PUSH4 0xACFB2355 EQ PUSH2 0x395 JUMPI PUSH1 0x0 DUP1 REVERT JUMPDEST DUP1 PUSH4 0x4329DB46 GT PUSH2 0xD1 JUMPI DUP1 PUSH4 0x4329DB46 EQ PUSH2 0x22C JUMPI DUP1 PUSH4 0x56C5F349 EQ PUSH2 0x241 JUMPI DUP1 PUSH4 0x715018A6 EQ PUSH2 0x26E JUMPI DUP1 PUSH4 0x79647833 EQ PUSH2 0x283 JUMPI PUSH1 0x0 DUP1 REVERT JUMPDEST DUP1 PUSH4 0x18856A2F EQ PUSH2 0x103 JUMPI DUP1 PUSH4 0x200D2ED2 EQ PUSH2 0x1D3 JUMPI DUP1 PUSH4 0x38266B22 EQ PUSH2 0x1F6 JUMPI DUP1 PUSH4 0x3B5EF2AD EQ PUSH2 0x216 JUMPI JUMPDEST PUSH1 0x0 DUP1 REVERT JUMPDEST CALLVALUE DUP1 ISZERO PUSH2 0x10F JUMPI PUSH1 0x0 DUP1 REVERT JUMPDEST POP PUSH1 0xB SLOAD PUSH1 0xC SLOAD PUSH1 0xD SLOAD PUSH1 0xE SLOAD PUSH1 0xF SLOAD PUSH1 0x10 SLOAD PUSH1 0x11 SLOAD PUSH1 0x12 SLOAD PUSH1 0x13 SLOAD PUSH1 0x14 SLOAD PUSH1 0x15 SLOAD PUSH1 0x16 SLOAD PUSH1 0x17 SLOAD PUSH2 0x15B SWAP13 PUSH1 0x1 PUSH1 0x1 PUSH1 0xA0 SHL SUB SWAP1 DUP2 AND SWAP13 DUP2 AND SWAP12 AND SWAP10 SWAP9 SWAP8 SWAP7 SWAP6 SWAP5 SWAP4 SWAP3 SWAP2 SWAP1 PUSH1 0xFF AND DUP14 JUMP JUMPDEST PUSH1 0x40 DUP1 MLOAD PUSH1 0x1 PUSH1 0x1 PUSH1 0xA0 SHL SUB SWAP15 DUP16 AND DUP2 MSTORE SWAP13 DUP15 AND PUSH1 0x20 DUP15 ADD MSTORE SWAP11 SWAP1 SWAP13 AND SWAP10 DUP12 ADD SWAP10 SWAP1 SWAP10 MSTORE PUSH1 0x60 DUP11 ADD SWAP8 SWAP1 SWAP8 MSTORE PUSH1 0x80 DUP10 ADD SWAP6 SWAP1 SWAP6 MSTORE PUSH1 0xA0 DUP9 ADD SWAP4 SWAP1 SWAP4 MSTORE PUSH1 0xC0 DUP8 ADD SWAP2 SWAP1 SWAP2 MSTORE PUSH1 0xE0 DUP7 ADD MSTORE PUSH2 0x100 DUP6 ADD MSTORE PUSH2 0x120 DUP5 ADD MSTORE PUSH2 0x140 DUP4 ADD MSTORE PUSH2 0x160 DUP3 ADD MSTORE SWAP1 ISZERO ISZERO PUSH2 0x180 DUP3 ADD MSTORE PUSH2 0x1A0 ADD JUMPDEST PUSH1 0x40 MLOAD DUP1 SWAP2 SUB SWAP1 RETURN JUMPDEST CALLVALUE DUP1 ISZERO PUSH2 0x1DF JUMPI PUSH1 0x0 DUP1 REVERT JUMPDEST POP PUSH2 0x1E8 PUSH2 0x501 JUMP JUMPDEST PUSH1 0x40 MLOAD SWAP1 DUP2 MSTORE PUSH1 0x20 ADD PUSH2 0x1CA JUMP JUMPDEST CALLVALUE DUP1 ISZERO PUSH2 0x202 JUMPI PUSH1 0x0 DUP1 REVERT JUMPDEST POP PUSH2 0x1E8 PUSH2 0x211 CALLDATASIZE PUSH1 0x4 PUSH2 0x91D JUMP JUMPDEST PUSH2 0x52A JUMP JUMPDEST CALLVALUE DUP1 ISZERO PUSH2 0x222 JUMPI PUSH1 0x0 DUP1 REVERT JUMPDEST POP PUSH2 0x1E8 PUSH1 0x19 SLOAD DUP2 JUMP JUMPDEST PUSH2 0x23F PUSH2 0x23A CALLDATASIZE PUSH1 0x4 PUSH2 0x9FA JUMP JUMPDEST PUSH2 0x5A3 JUMP JUMPDEST STOP JUMPDEST CALLVALUE DUP1 ISZERO PUSH2 0x24D JUMPI PUSH1 0x0 DUP1 REVERT JUMPDEST POP PUSH2 0x1E8 PUSH2 0x25C CALLDATASIZE PUSH1 0x4 PUSH2 0x91D JUMP JUMPDEST PUSH1 0x3 PUSH1 0x20 MSTORE PUSH1 0x0 SWAP1 DUP2 MSTORE PUSH1 0x40 SWAP1 KECCAK256 SLOAD DUP2 JUMP JUMPDEST CALLVALUE DUP1 ISZERO PUSH2 0x27A JUMPI PUSH1 0x0 DUP1 REVERT JUMPDEST POP PUSH2 0x23F PUSH2 0x5DD JUMP JUMPDEST CALLVALUE DUP1 ISZERO PUSH2 0x28F JUMPI PUSH1 0x0 DUP1 REVERT JUMPDEST POP PUSH2 0x1E8 PUSH2 0x29E CALLDATASIZE PUSH1 0x4 PUSH2 0x9FA JUMP JUMPDEST PUSH2 0x648 JUMP JUMPDEST PUSH2 0x23F PUSH2 0x711 JUMP JUMPDEST CALLVALUE DUP1 ISZERO PUSH2 0x2B7 JUMPI PUSH1 0x0 DUP1 REVERT JUMPDEST POP PUSH1 0x1 SLOAD PUSH1 0x1 PUSH1 0x1 PUSH1 0xA0 SHL SUB AND JUMPDEST PUSH1 0x40 MLOAD PUSH1 0x1 PUSH1 0x1 PUSH1 0xA0 SHL SUB SWAP1 SWAP2 AND DUP2 MSTORE PUSH1 0x20 ADD PUSH2 0x1CA JUMP JUMPDEST CALLVALUE DUP1 ISZERO PUSH2 0x2E9 JUMPI PUSH1 0x0 DUP1 REVERT JUMPDEST POP PUSH2 0x23F PUSH2 0x2F8 CALLDATASIZE PUSH1 0x4 PUSH2 0x939 JUMP JUMPDEST PUSH1 0xB DUP1 SLOAD PUSH1 0x1 PUSH1 0x1 PUSH1 0xA0 SHL SUB NOT SWAP1 DUP2 AND PUSH1 0x1 PUSH1 0x1 PUSH1 0xA0 SHL SUB SWAP7 DUP8 AND OR SWAP1 SWAP2 SSTORE PUSH1 0xC DUP1 SLOAD DUP3 AND SWAP5 DUP7 AND SWAP5 SWAP1 SWAP5 OR SWAP1 SWAP4 SSTORE PUSH1 0xD DUP1 SLOAD SWAP1 SWAP4 AND SWAP2 DUP5 AND SWAP2 DUP3 OR SWAP1 SWAP3 SSTORE DUP2 MLOAD PUSH1 0xE SSTORE PUSH1 0x20 DUP3 ADD MLOAD PUSH1 0xF SSTORE PUSH1 0x40 DUP3 ADD MLOAD PUSH1 0x10 SSTORE PUSH1 0x60 DUP3 ADD MLOAD PUSH1 0x11 SSTORE PUSH1 0x80 DUP3 ADD MLOAD PUSH1 0x12 SSTORE PUSH1 0xA0 DUP3 ADD MLOAD PUSH1 0x13 SSTORE PUSH1 0xC0 DUP3 ADD MLOAD PUSH1 0x14 SSTORE PUSH1 0xE0 DUP3 ADD MLOAD PUSH1 0x15 SSTORE PUSH2 0x100 SWAP1 SWAP2 ADD MLOAD PUSH1 0x16 SSTORE PUSH1 0x18 SLOAD PUSH1 0x17 DUP1 SLOAD PUSH1 0xFF NOT AND SWAP2 SWAP1 SWAP4 AND SWAP1 SWAP2 EQ OR SWAP1 SSTORE JUMP JUMPDEST CALLVALUE DUP1 ISZERO PUSH2 0x3A1 JUMPI PUSH1 0x0 DUP1 REVERT JUMPDEST POP PUSH1 0x4 SLOAD PUSH1 0x5 SLOAD PUSH1 0x6 SLOAD PUSH1 0x7 SLOAD PUSH1 0x8 SLOAD PUSH1 0x9 SLOAD PUSH2 0x3C0 SWAP6 SWAP5 SWAP4 SWAP3 SWAP2 SWAP1 DUP7 JUMP JUMPDEST PUSH1 0x40 DUP1 MLOAD SWAP7 DUP8 MSTORE PUSH1 0x20 DUP8 ADD SWAP6 SWAP1 SWAP6 MSTORE SWAP4 DUP6 ADD SWAP3 SWAP1 SWAP3 MSTORE PUSH1 0x60 DUP5 ADD MSTORE PUSH1 0x80 DUP4 ADD MSTORE PUSH1 0xA0 DUP3 ADD MSTORE PUSH1 0xC0 ADD PUSH2 0x1CA JUMP JUMPDEST CALLVALUE DUP1 ISZERO PUSH2 0x3F9 JUMPI PUSH1 0x0 DUP1 REVERT JUMPDEST POP PUSH1 0x18 SLOAD PUSH2 0x2C5 SWAP1 PUSH1 0x1 PUSH1 0x1 PUSH1 0xA0 SHL SUB AND DUP2 JUMP JUMPDEST CALLVALUE DUP1 ISZERO PUSH2 0x419 JUMPI PUSH1 0x0 DUP1 REVERT JUMPDEST POP PUSH2 0x422 PUSH2 0x740 JUMP JUMPDEST PUSH1 0x40 MLOAD SWAP1 ISZERO ISZERO DUP2 MSTORE PUSH1 0x20 ADD PUSH2 0x1CA JUMP JUMPDEST CALLVALUE DUP1 ISZERO PUSH2 0x43E JUMPI PUSH1 0x0 DUP1 REVERT JUMPDEST POP PUSH2 0x488 PUSH2 0x44D CALLDATASIZE PUSH1 0x4 PUSH2 0x91D JUMP JUMPDEST PUSH1 0x2 PUSH1 0x20 DUP2 SWAP1 MSTORE PUSH1 0x0 SWAP2 DUP3 MSTORE PUSH1 0x40 SWAP1 SWAP2 KECCAK256 DUP1 SLOAD PUSH1 0x1 DUP3 ADD SLOAD SWAP3 DUP3 ADD SLOAD PUSH1 0x3 DUP4 ADD SLOAD PUSH1 0x4 SWAP1 SWAP4 ADD SLOAD SWAP2 SWAP4 SWAP3 SWAP1 SWAP2 PUSH1 0xFF DUP1 DUP3 AND SWAP2 PUSH2 0x100 SWAP1 DIV AND DUP7 JUMP JUMPDEST PUSH1 0x40 DUP1 MLOAD SWAP7 DUP8 MSTORE PUSH1 0x20 DUP8 ADD SWAP6 SWAP1 SWAP6 MSTORE SWAP4 DUP6 ADD SWAP3 SWAP1 SWAP3 MSTORE PUSH1 0x60 DUP5 ADD MSTORE ISZERO ISZERO PUSH1 0x80 DUP4 ADD MSTORE ISZERO ISZERO PUSH1 0xA0 DUP3 ADD MSTORE PUSH1 0xC0 ADD PUSH2 0x1CA JUMP JUMPDEST CALLVALUE DUP1 ISZERO PUSH2 0x4C5 JUMPI PUSH1 0x0 DUP1 REVERT JUMPDEST POP PUSH2 0x23F PUSH2 0x4D4 CALLDATASIZE PUSH1 0x4 PUSH2 0x91D JUMP JUMPDEST PUSH2 0x752 JUMP JUMPDEST CALLVALUE DUP1 ISZERO PUSH2 0x4E5 JUMPI PUSH1 0x0 DUP1 REVERT JUMPDEST POP PUSH2 0x1E8 PUSH2 0x4F4 CALLDATASIZE PUSH1 0x4 PUSH2 0x91D JUMP JUMPDEST PUSH1 0x1 PUSH1 0x1 PUSH1 0xA0 SHL SUB AND BALANCE SWAP1 JUMP JUMPDEST PUSH1 0xF SLOAD PUSH1 0x0 SWAP1 TIMESTAMP LT ISZERO PUSH2 0x514 JUMPI POP PUSH1 0x0 SWAP1 JUMP JUMPDEST PUSH1 0x10 SLOAD TIMESTAMP GT ISZERO PUSH2 0x524 JUMPI POP PUSH1 0x2 SWAP1 JUMP JUMPDEST POP PUSH1 0x1 SWAP1 JUMP JUMPDEST PUSH1 0x0 DUP2 PUSH1 0x1 PUSH1 0x1 PUSH1 0xA0 SHL SUB AND PUSH4 0x313CE567 PUSH1 0x40 MLOAD DUP2 PUSH4 0xFFFFFFFF AND PUSH1 0xE0 SHL DUP2 MSTORE PUSH1 0x4 ADD PUSH1 0x20 PUSH1 0x40 MLOAD DUP1 DUP4 SUB DUP2 DUP7 DUP1 EXTCODESIZE ISZERO DUP1 ISZERO PUSH2 0x565 JUMPI PUSH1 0x0 DUP1 REVERT JUMPDEST POP GAS STATICCALL ISZERO DUP1 ISZERO PUSH2 0x579 JUMPI RETURNDATASIZE PUSH1 0x0 DUP1 RETURNDATACOPY RETURNDATASIZE PUSH1 0x0 REVERT JUMPDEST POP POP POP POP PUSH1 0x40 MLOAD RETURNDATASIZE PUSH1 0x1F NOT PUSH1 0x1F DUP3 ADD AND DUP3 ADD DUP1 PUSH1 0x40 MSTORE POP DUP2 ADD SWAP1 PUSH2 0x59D SWAP2 SWAP1 PUSH2 0xA12 JUMP JUMPDEST SWAP3 SWAP2 POP POP JUMP JUMPDEST CALLER PUSH2 0x8FC PUSH2 0x5B1 DUP4 CALLVALUE PUSH2 0xA69 JUMP JUMPDEST PUSH1 0x40 MLOAD DUP2 ISZERO SWAP1 SWAP3 MUL SWAP2 PUSH1 0x0 DUP2 DUP2 DUP2 DUP6 DUP9 DUP9 CALL SWAP4 POP POP POP POP ISZERO DUP1 ISZERO PUSH2 0x5D9 JUMPI RETURNDATASIZE PUSH1 0x0 DUP1 RETURNDATACOPY RETURNDATASIZE PUSH1 0x0 REVERT JUMPDEST POP POP JUMP JUMPDEST PUSH1 0x1 SLOAD PUSH1 0x1 PUSH1 0x1 PUSH1 0xA0 SHL SUB AND CALLER EQ PUSH2 0x63C JUMPI PUSH1 0x40 MLOAD PUSH3 0x461BCD PUSH1 0xE5 SHL DUP2 MSTORE PUSH1 0x20 PUSH1 0x4 DUP3 ADD DUP2 SWAP1 MSTORE PUSH1 0x24 DUP3 ADD MSTORE PUSH32 0x4F776E61626C653A2063616C6C6572206973206E6F7420746865206F776E6572 PUSH1 0x44 DUP3 ADD MSTORE PUSH1 0x64 ADD JUMPDEST PUSH1 0x40 MLOAD DUP1 SWAP2 SUB SWAP1 REVERT JUMPDEST PUSH2 0x646 PUSH1 0x0 PUSH2 0x836 JUMP JUMPDEST JUMP JUMPDEST CALLER PUSH1 0x0 SWAP1 DUP2 MSTORE PUSH1 0x2 PUSH1 0x20 MSTORE PUSH1 0x40 DUP2 KECCAK256 PUSH1 0x13 SLOAD DUP4 SWAP1 DUP2 SWAP1 DUP5 SWAP1 PUSH2 0x3E8 SWAP1 DUP4 LT ISZERO PUSH2 0x6A6 JUMPI PUSH1 0x40 MLOAD PUSH3 0x461BCD PUSH1 0xE5 SHL DUP2 MSTORE PUSH1 0x20 PUSH1 0x4 DUP3 ADD MSTORE PUSH1 0x10 PUSH1 0x24 DUP3 ADD MSTORE PUSH16 0x4E6F7420656E6F7567682076616C7565 PUSH1 0x80 SHL PUSH1 0x44 DUP3 ADD MSTORE PUSH1 0x64 ADD PUSH2 0x633 JUMP JUMPDEST PUSH2 0x6AE PUSH2 0x740 JUMP JUMPDEST PUSH2 0x6DE JUMPI PUSH2 0x6DB DUP2 PUSH2 0x6D5 DUP6 PUSH2 0x6CF PUSH1 0x19 SLOAD DUP7 PUSH2 0x888 SWAP1 SWAP2 SWAP1 PUSH4 0xFFFFFFFF AND JUMP JUMPDEST SWAP1 PUSH2 0x894 JUMP JUMPDEST SWAP1 PUSH2 0x8A0 JUMP JUMPDEST SWAP3 POP JUMPDEST PUSH1 0x14 SLOAD PUSH1 0x0 SWAP1 PUSH2 0x6EF SWAP1 DUP6 SWAP1 PUSH2 0xA69 JUMP JUMPDEST PUSH1 0x11 SLOAD SWAP1 SWAP2 POP PUSH1 0x0 SWAP1 PUSH2 0x703 SWAP1 DUP7 SWAP1 PUSH2 0x894 JUMP JUMPDEST SWAP1 POP POP POP POP POP POP POP POP SWAP2 SWAP1 POP JUMP JUMPDEST PUSH1 0x40 MLOAD CALLER SWAP1 SELFBALANCE DUP1 ISZERO PUSH2 0x8FC MUL SWAP2 PUSH1 0x0 DUP2 DUP2 DUP2 DUP6 DUP9 DUP9 CALL SWAP4 POP POP POP POP ISZERO DUP1 ISZERO PUSH2 0x73D JUMPI RETURNDATASIZE PUSH1 0x0 DUP1 RETURNDATACOPY RETURNDATASIZE PUSH1 0x0 REVERT JUMPDEST POP JUMP JUMPDEST PUSH1 0x0 PUSH2 0x74D PUSH1 0x1A CALLER PUSH2 0x8AC JUMP JUMPDEST SWAP1 POP SWAP1 JUMP JUMPDEST PUSH1 0x1 SLOAD PUSH1 0x1 PUSH1 0x1 PUSH1 0xA0 SHL SUB AND CALLER EQ PUSH2 0x7AC JUMPI PUSH1 0x40 MLOAD PUSH3 0x461BCD PUSH1 0xE5 SHL DUP2 MSTORE PUSH1 0x20 PUSH1 0x4 DUP3 ADD DUP2 SWAP1 MSTORE PUSH1 0x24 DUP3 ADD MSTORE PUSH32 0x4F776E61626C653A2063616C6C6572206973206E6F7420746865206F776E6572 PUSH1 0x44 DUP3 ADD MSTORE PUSH1 0x64 ADD PUSH2 0x633 JUMP JUMPDEST PUSH1 0x1 PUSH1 0x1 PUSH1 0xA0 SHL SUB DUP2 AND PUSH2 0x811 JUMPI PUSH1 0x40 MLOAD PUSH3 0x461BCD PUSH1 0xE5 SHL DUP2 MSTORE PUSH1 0x20 PUSH1 0x4 DUP3 ADD MSTORE PUSH1 0x26 PUSH1 0x24 DUP3 ADD MSTORE PUSH32 0x4F776E61626C653A206E6577206F776E657220697320746865207A65726F2061 PUSH1 0x44 DUP3 ADD MSTORE PUSH6 0x646472657373 PUSH1 0xD0 SHL PUSH1 0x64 DUP3 ADD MSTORE PUSH1 0x84 ADD PUSH2 0x633 JUMP JUMPDEST PUSH2 0x73D DUP2 PUSH2 0x836 JUMP JUMPDEST PUSH1 0x0 PUSH2 0x82F DUP4 PUSH1 0x1 PUSH1 0x1 PUSH1 0xA0 SHL SUB DUP5 AND PUSH2 0x8CE JUMP JUMPDEST SWAP4 SWAP3 POP POP POP JUMP JUMPDEST PUSH1 0x1 DUP1 SLOAD PUSH1 0x1 PUSH1 0x1 PUSH1 0xA0 SHL SUB DUP4 DUP2 AND PUSH1 0x1 PUSH1 0x1 PUSH1 0xA0 SHL SUB NOT DUP4 AND DUP2 OR SWAP1 SWAP4 SSTORE PUSH1 0x40 MLOAD SWAP2 AND SWAP2 SWAP1 DUP3 SWAP1 PUSH32 0x8BE0079C531659141344CD1FD0A4F28419497F9722A3DAAFE3B4186F6B6457E0 SWAP1 PUSH1 0x0 SWAP1 LOG3 POP POP JUMP JUMPDEST PUSH1 0x0 PUSH2 0x82F DUP3 DUP5 PUSH2 0xA69 JUMP JUMPDEST PUSH1 0x0 PUSH2 0x82F DUP3 DUP5 PUSH2 0xA4A JUMP JUMPDEST PUSH1 0x0 PUSH2 0x82F DUP3 DUP5 PUSH2 0xA2A JUMP JUMPDEST PUSH1 0x1 PUSH1 0x1 PUSH1 0xA0 SHL SUB DUP2 AND PUSH1 0x0 SWAP1 DUP2 MSTORE PUSH1 0x1 DUP4 ADD PUSH1 0x20 MSTORE PUSH1 0x40 DUP2 KECCAK256 SLOAD ISZERO ISZERO PUSH2 0x82F JUMP JUMPDEST PUSH1 0x0 DUP2 DUP2 MSTORE PUSH1 0x1 DUP4 ADD PUSH1 0x20 MSTORE PUSH1 0x40 DUP2 KECCAK256 SLOAD PUSH2 0x915 JUMPI POP DUP2 SLOAD PUSH1 0x1 DUP2 DUP2 ADD DUP5 SSTORE PUSH1 0x0 DUP5 DUP2 MSTORE PUSH1 0x20 DUP1 DUP3 KECCAK256 SWAP1 SWAP4 ADD DUP5 SWAP1 SSTORE DUP5 SLOAD DUP5 DUP3 MSTORE DUP3 DUP7 ADD SWAP1 SWAP4 MSTORE PUSH1 0x40 SWAP1 KECCAK256 SWAP2 SWAP1 SWAP2 SSTORE PUSH2 0x59D JUMP JUMPDEST POP PUSH1 0x0 PUSH2 0x59D JUMP JUMPDEST PUSH1 0x0 PUSH1 0x20 DUP3 DUP5 SUB SLT ISZERO PUSH2 0x92E JUMPI DUP1 DUP2 REVERT JUMPDEST DUP2 CALLDATALOAD PUSH2 0x82F DUP2 PUSH2 0xAAC JUMP JUMPDEST PUSH1 0x0 DUP1 PUSH1 0x0 DUP1 PUSH2 0x180 DUP1 DUP7 DUP9 SUB SLT ISZERO PUSH2 0x950 JUMPI DUP4 DUP5 REVERT JUMPDEST DUP6 CALLDATALOAD PUSH2 0x95B DUP2 PUSH2 0xAAC JUMP JUMPDEST SWAP5 POP PUSH1 0x20 DUP7 DUP2 ADD CALLDATALOAD PUSH2 0x96C DUP2 PUSH2 0xAAC JUMP JUMPDEST SWAP5 POP PUSH1 0x40 DUP8 ADD CALLDATALOAD PUSH2 0x97C DUP2 PUSH2 0xAAC JUMP JUMPDEST SWAP4 POP PUSH1 0x7F DUP8 ADD DUP9 SGT PUSH2 0x98C JUMPI DUP3 DUP4 REVERT JUMPDEST PUSH1 0x40 MLOAD PUSH2 0x120 DUP2 ADD DUP2 DUP2 LT PUSH8 0xFFFFFFFFFFFFFFFF DUP3 GT OR ISZERO PUSH2 0x9B0 JUMPI PUSH2 0x9B0 PUSH2 0xA96 JUMP JUMPDEST PUSH1 0x40 MSTORE DUP1 PUSH1 0x60 DUP10 ADD DUP5 DUP11 ADD DUP12 LT ISZERO PUSH2 0x9C6 JUMPI DUP6 DUP7 REVERT JUMPDEST DUP6 SWAP5 POP JUMPDEST PUSH1 0x9 DUP6 LT ISZERO PUSH2 0x9E9 JUMPI DUP1 CALLDATALOAD DUP3 MSTORE PUSH1 0x1 SWAP5 SWAP1 SWAP5 ADD SWAP4 SWAP1 DUP4 ADD SWAP1 DUP4 ADD PUSH2 0x9CA JUMP JUMPDEST POP POP DUP1 SWAP4 POP POP POP POP SWAP3 SWAP6 SWAP2 SWAP5 POP SWAP3 POP JUMP JUMPDEST PUSH1 0x0 PUSH1 0x20 DUP3 DUP5 SUB SLT ISZERO PUSH2 0xA0B JUMPI DUP1 DUP2 REVERT JUMPDEST POP CALLDATALOAD SWAP2 SWAP1 POP JUMP JUMPDEST PUSH1 0x0 PUSH1 0x20 DUP3 DUP5 SUB SLT ISZERO PUSH2 0xA23 JUMPI DUP1 DUP2 REVERT JUMPDEST POP MLOAD SWAP2 SWAP1 POP JUMP JUMPDEST PUSH1 0x0 DUP3 PUSH2 0xA45 JUMPI PUSH4 0x4E487B71 PUSH1 0xE0 SHL DUP2 MSTORE PUSH1 0x12 PUSH1 0x4 MSTORE PUSH1 0x24 DUP2 REVERT JUMPDEST POP DIV SWAP1 JUMP JUMPDEST PUSH1 0x0 DUP2 PUSH1 0x0 NOT DIV DUP4 GT DUP3 ISZERO ISZERO AND ISZERO PUSH2 0xA64 JUMPI PUSH2 0xA64 PUSH2 0xA80 JUMP JUMPDEST POP MUL SWAP1 JUMP JUMPDEST PUSH1 0x0 DUP3 DUP3 LT ISZERO PUSH2 0xA7B JUMPI PUSH2 0xA7B PUSH2 0xA80 JUMP JUMPDEST POP SUB SWAP1 JUMP JUMPDEST PUSH4 0x4E487B71 PUSH1 0xE0 SHL PUSH1 0x0 MSTORE PUSH1 0x11 PUSH1 0x4 MSTORE PUSH1 0x24 PUSH1 0x0 REVERT JUMPDEST PUSH4 0x4E487B71 PUSH1 0xE0 SHL PUSH1 0x0 MSTORE PUSH1 0x41 PUSH1 0x4 MSTORE PUSH1 0x24 PUSH1 0x0 REVERT JUMPDEST PUSH1 0x1 PUSH1 0x1 PUSH1 0xA0 SHL SUB DUP2 AND DUP2 EQ PUSH2 0x73D JUMPI PUSH1 0x0 DUP1 REVERT INVALID LOG2 PUSH5 0x6970667358 0x22 SLT KECCAK256 0xE8 SWAP14 LOG4 0xFC 0xD5 0xC8 NUMBER 0xC7 STATICCALL 0xD7 0xEC 0xC1 0x2F SLT DUP12 SWAP5 0xB5 0x5E 0xF8 CALLDATASIZE PUSH21 0xC5D08CB4EF2B1F541921D264736F6C634300080400 CALLER "
				},
				"gasEstimates": {
					"creation": {
						"codeDepositCost": "561400",
						"executionCost": "infinite",
						"totalCost": "infinite"
					},
					"external": {
						"WETH()": "1059",
						"backToken()": "infinite",
						"buyerInfo(address)": "4682",
						"checkAdminAddress()": "1217",
						"depodit(uint256)": "infinite",
						"feeAnyone()": "1085",
						"getBalance(address)": "1172",
						"getData(address)": "infinite",
						"initialSaleInfor(address,address,address,uint256[9])": "infinite",
						"owner()": "1065",
						"presaleStatus()": "5213",
						"renounceOwnership()": "23484",
						"saleInfor()": "11001",
						"status()": "1911",
						"transferETH(uint256)": "infinite",
						"transferOwnership(address)": "infinite",
						"userFee(address)": "1258"
					}
				},
				"methodIdentifiers": {
					"WETH()": "ad5c4648",
					"backToken()": "861faf5f",
					"buyerInfo(address)": "e2d3f423",
					"checkAdminAddress()": "cad5b0f7",
					"depodit(uint256)": "79647833",
					"feeAnyone()": "3b5ef2ad",
					"getBalance(address)": "f8b2cb4f",
					"getData(address)": "38266b22",
					"initialSaleInfor(address,address,address,uint256[9])": "8f1eae4c",
					"owner()": "8da5cb5b",
					"presaleStatus()": "acfb2355",
					"renounceOwnership()": "715018a6",
					"saleInfor()": "18856a2f",
					"status()": "200d2ed2",
					"transferETH(uint256)": "4329db46",
					"transferOwnership(address)": "f2fde38b",
					"userFee(address)": "56c5f349"
				}
			},
			"storageLayout": {
				"storage": [
					{
						"astId": 1289,
						"contract": "Ethereum/Presale.sol:Presale",
						"label": "_status",
						"offset": 0,
						"slot": "0",
						"type": "t_uint256"
					},
					{
						"astId": 1181,
						"contract": "Ethereum/Presale.sol:Presale",
						"label": "_owner",
						"offset": 0,
						"slot": "1",
						"type": "t_address"
					},
					{
						"astId": 185,
						"contract": "Ethereum/Presale.sol:Presale",
						"label": "buyerInfo",
						"offset": 0,
						"slot": "2",
						"type": "t_mapping(t_address,t_struct(BuyerInfo)164_storage)"
					},
					{
						"astId": 189,
						"contract": "Ethereum/Presale.sol:Presale",
						"label": "userFee",
						"offset": 0,
						"slot": "3",
						"type": "t_mapping(t_address,t_uint256)"
					},
					{
						"astId": 192,
						"contract": "Ethereum/Presale.sol:Presale",
						"label": "presaleStatus",
						"offset": 0,
						"slot": "4",
						"type": "t_struct(PresaleStatus)180_storage"
					},
					{
						"astId": 195,
						"contract": "Ethereum/Presale.sol:Presale",
						"label": "saleInfor",
						"offset": 0,
						"slot": "11",
						"type": "t_struct(SaleInfor)151_storage"
					},
					{
						"astId": 198,
						"contract": "Ethereum/Presale.sol:Presale",
						"label": "WETH",
						"offset": 0,
						"slot": "24",
						"type": "t_contract(IERC20)77"
					},
					{
						"astId": 200,
						"contract": "Ethereum/Presale.sol:Presale",
						"label": "feeAnyone",
						"offset": 0,
						"slot": "25",
						"type": "t_uint256"
					},
					{
						"astId": 203,
						"contract": "Ethereum/Presale.sol:Presale",
						"label": "admins",
						"offset": 0,
						"slot": "26",
						"type": "t_struct(AddressSet)886_storage"
					}
				],
				"types": {
					"t_address": {
						"encoding": "inplace",
						"label": "address",
						"numberOfBytes": "20"
					},
					"t_address_payable": {
						"encoding": "inplace",
						"label": "address payable",
						"numberOfBytes": "20"
					},
					"t_array(t_address)dyn_storage": {
						"base": "t_address",
						"encoding": "dynamic_array",
						"label": "address[]",
						"numberOfBytes": "32"
					},
					"t_array(t_bytes32)dyn_storage": {
						"base": "t_bytes32",
						"encoding": "dynamic_array",
						"label": "bytes32[]",
						"numberOfBytes": "32"
					},
					"t_bool": {
						"encoding": "inplace",
						"label": "bool",
						"numberOfBytes": "1"
					},
					"t_bytes32": {
						"encoding": "inplace",
						"label": "bytes32",
						"numberOfBytes": "32"
					},
					"t_contract(IERC20)77": {
						"encoding": "inplace",
						"label": "contract IERC20",
						"numberOfBytes": "20"
					},
					"t_mapping(t_address,t_struct(BuyerInfo)164_storage)": {
						"encoding": "mapping",
						"key": "t_address",
						"label": "mapping(address => struct Presale.BuyerInfo)",
						"numberOfBytes": "32",
						"value": "t_struct(BuyerInfo)164_storage"
					},
					"t_mapping(t_address,t_uint256)": {
						"encoding": "mapping",
						"key": "t_address",
						"label": "mapping(address => uint256)",
						"numberOfBytes": "32",
						"value": "t_uint256"
					},
					"t_mapping(t_bytes32,t_uint256)": {
						"encoding": "mapping",
						"key": "t_bytes32",
						"label": "mapping(bytes32 => uint256)",
						"numberOfBytes": "32",
						"value": "t_uint256"
					},
					"t_struct(AddressSet)886_storage": {
						"encoding": "inplace",
						"label": "struct EnumerableSet.AddressSet",
						"members": [
							{
								"astId": 885,
								"contract": "Ethereum/Presale.sol:Presale",
								"label": "_inner",
								"offset": 0,
								"slot": "0",
								"type": "t_struct(Set)585_storage"
							}
						],
						"numberOfBytes": "64"
					},
					"t_struct(BuyerInfo)164_storage": {
						"encoding": "inplace",
						"label": "struct Presale.BuyerInfo",
						"members": [
							{
								"astId": 153,
								"contract": "Ethereum/Presale.sol:Presale",
								"label": "baseDeposit",
								"offset": 0,
								"slot": "0",
								"type": "t_uint256"
							},
							{
								"astId": 155,
								"contract": "Ethereum/Presale.sol:Presale",
								"label": "tokenOwner",
								"offset": 0,
								"slot": "1",
								"type": "t_uint256"
							},
							{
								"astId": 157,
								"contract": "Ethereum/Presale.sol:Presale",
								"label": "lastWithDraw",
								"offset": 0,
								"slot": "2",
								"type": "t_uint256"
							},
							{
								"astId": 159,
								"contract": "Ethereum/Presale.sol:Presale",
								"label": "totalTokenWithDraw",
								"offset": 0,
								"slot": "3",
								"type": "t_uint256"
							},
							{
								"astId": 161,
								"contract": "Ethereum/Presale.sol:Presale",
								"label": "isRefund",
								"offset": 0,
								"slot": "4",
								"type": "t_bool"
							},
							{
								"astId": 163,
								"contract": "Ethereum/Presale.sol:Presale",
								"label": "isClaim",
								"offset": 1,
								"slot": "4",
								"type": "t_bool"
							}
						],
						"numberOfBytes": "160"
					},
					"t_struct(PresaleStatus)180_storage": {
						"encoding": "inplace",
						"label": "struct Presale.PresaleStatus",
						"members": [
							{
								"astId": 166,
								"contract": "Ethereum/Presale.sol:Presale",
								"label": "totalBaseCollected",
								"offset": 0,
								"slot": "0",
								"type": "t_uint256"
							},
							{
								"astId": 168,
								"contract": "Ethereum/Presale.sol:Presale",
								"label": "totalTokenSold",
								"offset": 0,
								"slot": "1",
								"type": "t_uint256"
							},
							{
								"astId": 170,
								"contract": "Ethereum/Presale.sol:Presale",
								"label": "totalTokenWithDraw",
								"offset": 0,
								"slot": "2",
								"type": "t_uint256"
							},
							{
								"astId": 172,
								"contract": "Ethereum/Presale.sol:Presale",
								"label": "totalBaseWithDraw",
								"offset": 0,
								"slot": "3",
								"type": "t_uint256"
							},
							{
								"astId": 174,
								"contract": "Ethereum/Presale.sol:Presale",
								"label": "numByer",
								"offset": 0,
								"slot": "4",
								"type": "t_uint256"
							},
							{
								"astId": 176,
								"contract": "Ethereum/Presale.sol:Presale",
								"label": "totalFee",
								"offset": 0,
								"slot": "5",
								"type": "t_uint256"
							},
							{
								"astId": 179,
								"contract": "Ethereum/Presale.sol:Presale",
								"label": "admin",
								"offset": 0,
								"slot": "6",
								"type": "t_array(t_address)dyn_storage"
							}
						],
						"numberOfBytes": "224"
					},
					"t_struct(SaleInfor)151_storage": {
						"encoding": "inplace",
						"label": "struct Presale.SaleInfor",
						"members": [
							{
								"astId": 124,
								"contract": "Ethereum/Presale.sol:Presale",
								"label": "presaleOwner",
								"offset": 0,
								"slot": "0",
								"type": "t_address_payable"
							},
							{
								"astId": 127,
								"contract": "Ethereum/Presale.sol:Presale",
								"label": "saleToken",
								"offset": 0,
								"slot": "1",
								"type": "t_contract(IERC20)77"
							},
							{
								"astId": 130,
								"contract": "Ethereum/Presale.sol:Presale",
								"label": "baseToken",
								"offset": 0,
								"slot": "2",
								"type": "t_contract(IERC20)77"
							},
							{
								"astId": 132,
								"contract": "Ethereum/Presale.sol:Presale",
								"label": "tokenPrice",
								"offset": 0,
								"slot": "3",
								"type": "t_uint256"
							},
							{
								"astId": 134,
								"contract": "Ethereum/Presale.sol:Presale",
								"label": "startSale",
								"offset": 0,
								"slot": "4",
								"type": "t_uint256"
							},
							{
								"astId": 136,
								"contract": "Ethereum/Presale.sol:Presale",
								"label": "endSale",
								"offset": 0,
								"slot": "5",
								"type": "t_uint256"
							},
							{
								"astId": 138,
								"contract": "Ethereum/Presale.sol:Presale",
								"label": "valueSwapToken",
								"offset": 0,
								"slot": "6",
								"type": "t_uint256"
							},
							{
								"astId": 140,
								"contract": "Ethereum/Presale.sol:Presale",
								"label": "feeTransaction",
								"offset": 0,
								"slot": "7",
								"type": "t_uint256"
							},
							{
								"astId": 142,
								"contract": "Ethereum/Presale.sol:Presale",
								"label": "minSpendPerBuyer",
								"offset": 0,
								"slot": "8",
								"type": "t_uint256"
							},
							{
								"astId": 144,
								"contract": "Ethereum/Presale.sol:Presale",
								"label": "maxSpendPerBuyer",
								"offset": 0,
								"slot": "9",
								"type": "t_uint256"
							},
							{
								"astId": 146,
								"contract": "Ethereum/Presale.sol:Presale",
								"label": "refundFee",
								"offset": 0,
								"slot": "10",
								"type": "t_uint256"
							},
							{
								"astId": 148,
								"contract": "Ethereum/Presale.sol:Presale",
								"label": "claimFee",
								"offset": 0,
								"slot": "11",
								"type": "t_uint256"
							},
							{
								"astId": 150,
								"contract": "Ethereum/Presale.sol:Presale",
								"label": "saleIsBaseToken",
								"offset": 0,
								"slot": "12",
								"type": "t_bool"
							}
						],
						"numberOfBytes": "416"
					},
					"t_struct(Set)585_storage": {
						"encoding": "inplace",
						"label": "struct EnumerableSet.Set",
						"members": [
							{
								"astId": 580,
								"contract": "Ethereum/Presale.sol:Presale",
								"label": "_values",
								"offset": 0,
								"slot": "0",
								"type": "t_array(t_bytes32)dyn_storage"
							},
							{
								"astId": 584,
								"contract": "Ethereum/Presale.sol:Presale",
								"label": "_indexes",
								"offset": 0,
								"slot": "1",
								"type": "t_mapping(t_bytes32,t_uint256)"
							}
						],
						"numberOfBytes": "64"
					},
					"t_uint256": {
						"encoding": "inplace",
						"label": "uint256",
						"numberOfBytes": "32"
					}
				}
			},
			"userdoc": {
				"kind": "user",
				"methods": {},
				"version": 1
			}
		}
	}
}