{
	"Ethereum/Presale.sol": {
		"Presale": {
			"abi": [
				{
					"inputs": [],
					"stateMutability": "payable",
					"type": "constructor"
				},
				{
					"anonymous": false,
					"inputs": [
						{
							"indexed": true,
							"internalType": "address",
							"name": "previousOwner",
							"type": "address"
						},
						{
							"indexed": true,
							"internalType": "address",
							"name": "newOwner",
							"type": "address"
						}
					],
					"name": "OwnershipTransferred",
					"type": "event"
				},
				{
					"inputs": [],
					"name": "WETH",
					"outputs": [
						{
							"internalType": "contract IERC20",
							"name": "",
							"type": "address"
						}
					],
					"stateMutability": "view",
					"type": "function"
				},
				{
					"inputs": [],
					"name": "backToken",
					"outputs": [],
					"stateMutability": "payable",
					"type": "function"
				},
				{
					"inputs": [
						{
							"internalType": "address",
							"name": "",
							"type": "address"
						}
					],
					"name": "buyerInfo",
					"outputs": [
						{
							"internalType": "uint256",
							"name": "baseDeposit",
							"type": "uint256"
						},
						{
							"internalType": "uint256",
							"name": "tokenOwner",
							"type": "uint256"
						},
						{
							"internalType": "uint256",
							"name": "lastWithDraw",
							"type": "uint256"
						},
						{
							"internalType": "uint256",
							"name": "totalTokenWithDraw",
							"type": "uint256"
						},
						{
							"internalType": "bool",
							"name": "isRefund",
							"type": "bool"
						},
						{
							"internalType": "bool",
							"name": "isClaim",
							"type": "bool"
						}
					],
					"stateMutability": "view",
					"type": "function"
				},
				{
					"inputs": [],
					"name": "checkAdminAddress",
					"outputs": [
						{
							"internalType": "bool",
							"name": "",
							"type": "bool"
						}
					],
					"stateMutability": "view",
					"type": "function"
				},
				{
					"inputs": [
						{
							"internalType": "uint256",
							"name": "_amount",
							"type": "uint256"
						}
					],
					"name": "deposit",
					"outputs": [],
					"stateMutability": "payable",
					"type": "function"
				},
				{
					"inputs": [],
					"name": "feeAnyone",
					"outputs": [
						{
							"internalType": "uint256",
							"name": "",
							"type": "uint256"
						}
					],
					"stateMutability": "view",
					"type": "function"
				},
				{
					"inputs": [
						{
							"internalType": "address",
							"name": "_address",
							"type": "address"
						}
					],
					"name": "getBalance",
					"outputs": [
						{
							"internalType": "uint256",
							"name": "",
							"type": "uint256"
						}
					],
					"stateMutability": "view",
					"type": "function"
				},
				{
					"inputs": [
						{
							"internalType": "address payable",
							"name": "_presaleOwner",
							"type": "address"
						},
						{
							"internalType": "contract ERC20",
							"name": "_saleToken",
							"type": "address"
						},
						{
							"internalType": "contract ERC20",
							"name": "_baseTOken",
							"type": "address"
						},
						{
							"internalType": "uint256[7]",
							"name": "datas",
							"type": "uint256[7]"
						}
					],
					"name": "initialSaleInfor",
					"outputs": [],
					"stateMutability": "nonpayable",
					"type": "function"
				},
				{
					"inputs": [],
					"name": "owner",
					"outputs": [
						{
							"internalType": "address",
							"name": "",
							"type": "address"
						}
					],
					"stateMutability": "view",
					"type": "function"
				},
				{
					"inputs": [],
					"name": "presaleStatus",
					"outputs": [
						{
							"internalType": "uint256",
							"name": "totalBaseCollected",
							"type": "uint256"
						},
						{
							"internalType": "uint256",
							"name": "totalTokenSold",
							"type": "uint256"
						},
						{
							"internalType": "uint256",
							"name": "totalTokenWithDraw",
							"type": "uint256"
						},
						{
							"internalType": "uint256",
							"name": "totalBaseWithDraw",
							"type": "uint256"
						},
						{
							"internalType": "uint256",
							"name": "numberBuyer",
							"type": "uint256"
						},
						{
							"internalType": "uint256",
							"name": "totalFee",
							"type": "uint256"
						}
					],
					"stateMutability": "view",
					"type": "function"
				},
				{
					"inputs": [],
					"name": "renounceOwnership",
					"outputs": [],
					"stateMutability": "nonpayable",
					"type": "function"
				},
				{
					"inputs": [],
					"name": "saleInfor",
					"outputs": [
						{
							"internalType": "address payable",
							"name": "presaleOwner",
							"type": "address"
						},
						{
							"internalType": "contract ERC20",
							"name": "saleToken",
							"type": "address"
						},
						{
							"internalType": "contract ERC20",
							"name": "baseToken",
							"type": "address"
						},
						{
							"internalType": "uint256",
							"name": "tokenPrice",
							"type": "uint256"
						},
						{
							"internalType": "uint256",
							"name": "startSale",
							"type": "uint256"
						},
						{
							"internalType": "uint256",
							"name": "endSale",
							"type": "uint256"
						},
						{
							"internalType": "uint256",
							"name": "minSpendPerBuyer",
							"type": "uint256"
						},
						{
							"internalType": "uint256",
							"name": "maxSpendPerBuyer",
							"type": "uint256"
						},
						{
							"internalType": "uint256",
							"name": "refundFee",
							"type": "uint256"
						},
						{
							"internalType": "uint256",
							"name": "claimFee",
							"type": "uint256"
						},
						{
							"internalType": "bool",
							"name": "saleIsBaseToken",
							"type": "bool"
						},
						{
							"internalType": "uint256",
							"name": "amountTokenForSale",
							"type": "uint256"
						}
					],
					"stateMutability": "view",
					"type": "function"
				},
				{
					"inputs": [],
					"name": "status",
					"outputs": [
						{
							"internalType": "uint256",
							"name": "",
							"type": "uint256"
						}
					],
					"stateMutability": "view",
					"type": "function"
				},
				{
					"inputs": [],
					"name": "totalFee",
					"outputs": [
						{
							"internalType": "uint256",
							"name": "",
							"type": "uint256"
						}
					],
					"stateMutability": "view",
					"type": "function"
				},
				{
					"inputs": [
						{
							"internalType": "uint256",
							"name": "amount",
							"type": "uint256"
						}
					],
					"name": "transferETH",
					"outputs": [],
					"stateMutability": "payable",
					"type": "function"
				},
				{
					"inputs": [
						{
							"internalType": "address",
							"name": "newOwner",
							"type": "address"
						}
					],
					"name": "transferOwnership",
					"outputs": [],
					"stateMutability": "nonpayable",
					"type": "function"
				},
				{
					"inputs": [],
					"name": "userClaimEmergency",
					"outputs": [],
					"stateMutability": "nonpayable",
					"type": "function"
				},
				{
					"inputs": [
						{
							"internalType": "address",
							"name": "",
							"type": "address"
						}
					],
					"name": "userFee",
					"outputs": [
						{
							"internalType": "uint256",
							"name": "",
							"type": "uint256"
						}
					],
					"stateMutability": "view",
					"type": "function"
				}
			],
			"devdoc": {
				"kind": "dev",
				"methods": {
					"owner()": {
						"details": "Returns the address of the current owner."
					},
					"renounceOwnership()": {
						"details": "Leaves the contract without owner. It will not be possible to call `onlyOwner` functions anymore. Can only be called by the current owner. NOTE: Renouncing ownership will leave the contract without an owner, thereby removing any functionality that is only available to the owner."
					},
					"transferOwnership(address)": {
						"details": "Transfers ownership of the contract to a new account (`newOwner`). Can only be called by the current owner."
					}
				},
				"version": 1
			},
			"evm": {
				"assembly": "    /* \"Ethereum/Presale.sol\":338:6484  contract Presale is ReentrancyGuard, Ownable{\r... */\n  mstore(0x40, 0x80)\n    /* \"Utils/ReentrancyGuard.sol\":1734:1735  1 */\n  0x01\n    /* \"Utils/ReentrancyGuard.sol\":1845:1852  _status */\n  0x00\n    /* \"Utils/ReentrancyGuard.sol\":1845:1867  _status = _NOT_ENTERED */\n  sstore\n    /* \"Utils/Ownable.sol\":942:974  _transferOwnership(_msgSender()) */\n  tag_6\n    /* \"Utils/Context.sol\":736:746  msg.sender */\n  caller\n    /* \"Utils/Ownable.sol\":942:960  _transferOwnership */\n  tag_9\n    /* \"Utils/Ownable.sol\":942:974  _transferOwnership(_msgSender()) */\n  jump\t// in\ntag_6:\n    /* \"Ethereum/Presale.sol\":1937:1941  WETH */\n  0x17\n    /* \"Ethereum/Presale.sol\":1937:1993  WETH = ERC20(0xc778417E063141139Fce010982780140Aa0cD5Ab) */\n  dup1\n  sload\n    /* \"Ethereum/Presale.sol\":1950:1992  0xc778417E063141139Fce010982780140Aa0cD5Ab */\n  0xc778417e063141139fce010982780140aa0cd5ab\n  not(sub(shl(0xa0, 0x01), 0x01))\n    /* \"Ethereum/Presale.sol\":1937:1993  WETH = ERC20(0xc778417E063141139Fce010982780140Aa0cD5Ab) */\n  swap1\n  swap2\n  and\n  or\n  swap1\n  sstore\n    /* \"Ethereum/Presale.sol\":2004:2058  admins.add(0x6Ccb41eedA5a073076F3E7dC1614C185b5fA41eD) */\n  tag_11\n    /* \"Ethereum/Presale.sol\":2004:2010  admins */\n  0x19\n    /* \"Ethereum/Presale.sol\":2015:2057  0x6Ccb41eedA5a073076F3E7dC1614C185b5fA41eD */\n  0x6ccb41eeda5a073076f3e7dc1614c185b5fa41ed\n    /* \"Ethereum/Presale.sol\":2004:2014  admins.add */\n  tag_12\n  0x20\n  swap1\n  dup2\n  shl\n  tag_0_102\n  or\n    /* \"Ethereum/Presale.sol\":2004:2058  admins.add(0x6Ccb41eedA5a073076F3E7dC1614C185b5fA41eD) */\n  swap1\n  shr\n  jump\t// in\ntag_11:\n  pop\n    /* \"Ethereum/Presale.sol\":2069:2123  admins.add(0x4f0B12bBF40Fc182559822A5b1dB6D34dbC3E016) */\n  tag_13\n    /* \"Ethereum/Presale.sol\":2080:2122  0x4f0B12bBF40Fc182559822A5b1dB6D34dbC3E016 */\n  0x4f0b12bbf40fc182559822a5b1db6d34dbc3e016\n    /* \"Ethereum/Presale.sol\":2069:2075  admins */\n  0x19\n    /* \"Ethereum/Presale.sol\":2069:2079  admins.add */\n  or(tag_0_102, shl(0x20, tag_12))\n  swap1\n    /* \"Ethereum/Presale.sol\":2069:2123  admins.add(0x4f0B12bBF40Fc182559822A5b1dB6D34dbC3E016) */\n  swap2\n  swap1\n  0x20\n  shr\n  jump\t// in\ntag_13:\n  pop\n    /* \"Ethereum/Presale.sol\":2146:2148  20 */\n  0x14\n    /* \"Ethereum/Presale.sol\":2134:2143  feeAnyone */\n  0x18\n    /* \"Ethereum/Presale.sol\":2134:2148  feeAnyone = 20 */\n  sstore\n    /* \"Ethereum/Presale.sol\":338:6484  contract Presale is ReentrancyGuard, Ownable{\r... */\n  jump(tag_14)\n    /* \"Utils/Ownable.sol\":2333:2524  function _transferOwnership(address newOwner) internal virtual {\r... */\ntag_9:\n    /* \"Utils/Ownable.sol\":2426:2432  _owner */\n  0x01\n  dup1\n  sload\n  sub(shl(0xa0, 0x01), 0x01)\n    /* \"Utils/Ownable.sol\":2443:2460  _owner = newOwner */\n  dup4\n  dup2\n  and\n  not(sub(shl(0xa0, 0x01), 0x01))\n  dup4\n  and\n  dup2\n  or\n  swap1\n  swap4\n  sstore\n    /* \"Utils/Ownable.sol\":2476:2516  OwnershipTransferred(oldOwner, newOwner) */\n  mload(0x40)\n    /* \"Utils/Ownable.sol\":2426:2432  _owner */\n  swap2\n  and\n  swap2\n    /* \"Utils/Ownable.sol\":2443:2460  _owner = newOwner */\n  swap1\n    /* \"Utils/Ownable.sol\":2426:2432  _owner */\n  dup3\n  swap1\n    /* \"Utils/Ownable.sol\":2476:2516  OwnershipTransferred(oldOwner, newOwner) */\n  0x8be0079c531659141344cd1fd0a4f28419497f9722a3daafe3b4186f6b6457e0\n  swap1\n    /* \"Utils/Ownable.sol\":2407:2423  address oldOwner */\n  0x00\n  swap1\n    /* \"Utils/Ownable.sol\":2476:2516  OwnershipTransferred(oldOwner, newOwner) */\n  log3\n    /* \"Utils/Ownable.sol\":2333:2524  function _transferOwnership(address newOwner) internal virtual {\r... */\n  pop\n  pop\n  jump\t// out\n    /* \"Utils/EnumerableSet.sol\":8259:8411  function add(AddressSet storage set, address value) internal returns (bool) {\r... */\ntag_12:\n    /* \"Utils/EnumerableSet.sol\":8329:8333  bool */\n  0x00\n    /* \"Utils/EnumerableSet.sol\":8353:8403  _add(set._inner, bytes32(uint256(uint160(value)))) */\n  tag_18\n    /* \"Utils/EnumerableSet.sol\":8358:8361  set */\n  dup4\n  sub(shl(0xa0, 0x01), 0x01)\n    /* \"Utils/EnumerableSet.sol\":8378:8401  uint256(uint160(value)) */\n  dup5\n  and\n    /* \"Utils/EnumerableSet.sol\":8353:8357  _add */\n  tag_19\n    /* \"Utils/EnumerableSet.sol\":8353:8403  _add(set._inner, bytes32(uint256(uint160(value)))) */\n  jump\t// in\ntag_18:\n    /* \"Utils/EnumerableSet.sol\":8346:8403  return _add(set._inner, bytes32(uint256(uint160(value)))) */\n  swap1\n  pop\n    /* \"Utils/EnumerableSet.sol\":8259:8411  function add(AddressSet storage set, address value) internal returns (bool) {\r... */\ntag_17:\n  swap3\n  swap2\n  pop\n  pop\n  jump\t// out\n    /* \"Utils/EnumerableSet.sol\":2174:2588  function _add(Set storage set, bytes32 value) private returns (bool) {\r... */\ntag_19:\n    /* \"Utils/EnumerableSet.sol\":2237:2241  bool */\n  0x00\n    /* \"Utils/EnumerableSet.sol\":4367:4386  set._indexes[value] */\n  dup2\n  dup2\n  mstore\n    /* \"Utils/EnumerableSet.sol\":4367:4379  set._indexes */\n  0x01\n  dup4\n  add\n    /* \"Utils/EnumerableSet.sol\":4367:4386  set._indexes[value] */\n  0x20\n  mstore\n  0x40\n  dup2\n  keccak256\n  sload\n    /* \"Utils/EnumerableSet.sol\":2254:2581  if (!_contains(set, value)) {\r... */\n  tag_23\n  jumpi\n  pop\n    /* \"Utils/EnumerableSet.sol\":2297:2320  set._values.push(value) */\n  dup2\n  sload\n  0x01\n  dup2\n  dup2\n  add\n  dup5\n  sstore\n    /* \"Utils/EnumerableSet.sol\":2297:2308  set._values */\n  0x00\n    /* \"Utils/EnumerableSet.sol\":2297:2320  set._values.push(value) */\n  dup5\n  dup2\n  mstore\n  0x20\n  dup1\n  dup3\n  keccak256\n  swap1\n  swap4\n  add\n  dup5\n  swap1\n  sstore\n    /* \"Utils/EnumerableSet.sol\":2480:2498  set._values.length */\n  dup5\n  sload\n    /* \"Utils/EnumerableSet.sol\":2458:2477  set._indexes[value] */\n  dup5\n  dup3\n  mstore\n    /* \"Utils/EnumerableSet.sol\":2458:2470  set._indexes */\n  dup3\n  dup7\n  add\n    /* \"Utils/EnumerableSet.sol\":2458:2477  set._indexes[value] */\n  swap1\n  swap4\n  mstore\n  0x40\n  swap1\n  keccak256\n    /* \"Utils/EnumerableSet.sol\":2458:2498  set._indexes[value] = set._values.length */\n  swap2\n  swap1\n  swap2\n  sstore\n    /* \"Utils/EnumerableSet.sol\":2513:2524  return true */\n  jump(tag_17)\n    /* \"Utils/EnumerableSet.sol\":2254:2581  if (!_contains(set, value)) {\r... */\ntag_23:\n  pop\n    /* \"Utils/EnumerableSet.sol\":2564:2569  false */\n  0x00\n    /* \"Utils/EnumerableSet.sol\":2557:2569  return false */\n  jump(tag_17)\n    /* \"Ethereum/Presale.sol\":338:6484  contract Presale is ReentrancyGuard, Ownable{\r... */\ntag_14:\n  dataSize(sub_0)\n  dup1\n  dataOffset(sub_0)\n  0x00\n  codecopy\n  0x00\n  return\nstop\n\nsub_0: assembly {\n        /* \"Ethereum/Presale.sol\":338:6484  contract Presale is ReentrancyGuard, Ownable{\r... */\n      mstore(0x40, 0x80)\n      jumpi(tag_1, lt(calldatasize, 0x04))\n      shr(0xe0, calldataload(0x00))\n      dup1\n      0x8da5cb5b\n      gt\n      tag_20\n      jumpi\n      dup1\n      0xb6b55f25\n      gt\n      tag_21\n      jumpi\n      dup1\n      0xb6b55f25\n      eq\n      tag_15\n      jumpi\n      dup1\n      0xcad5b0f7\n      eq\n      tag_16\n      jumpi\n      dup1\n      0xe2d3f423\n      eq\n      tag_17\n      jumpi\n      dup1\n      0xf2fde38b\n      eq\n      tag_18\n      jumpi\n      dup1\n      0xf8b2cb4f\n      eq\n      tag_19\n      jumpi\n      0x00\n      dup1\n      revert\n    tag_21:\n      dup1\n      0x8da5cb5b\n      eq\n      tag_11\n      jumpi\n      dup1\n      0xab33985a\n      eq\n      tag_12\n      jumpi\n      dup1\n      0xacfb2355\n      eq\n      tag_13\n      jumpi\n      dup1\n      0xad5c4648\n      eq\n      tag_14\n      jumpi\n      0x00\n      dup1\n      revert\n    tag_20:\n      dup1\n      0x4329db46\n      gt\n      tag_22\n      jumpi\n      dup1\n      0x4329db46\n      eq\n      tag_6\n      jumpi\n      dup1\n      0x56c5f349\n      eq\n      tag_7\n      jumpi\n      dup1\n      0x61e17655\n      eq\n      tag_8\n      jumpi\n      dup1\n      0x715018a6\n      eq\n      tag_9\n      jumpi\n      dup1\n      0x861faf5f\n      eq\n      tag_10\n      jumpi\n      0x00\n      dup1\n      revert\n    tag_22:\n      dup1\n      0x18856a2f\n      eq\n      tag_2\n      jumpi\n      dup1\n      0x1df4ccfc\n      eq\n      tag_3\n      jumpi\n      dup1\n      0x200d2ed2\n      eq\n      tag_4\n      jumpi\n      dup1\n      0x3b5ef2ad\n      eq\n      tag_5\n      jumpi\n    tag_1:\n      0x00\n      dup1\n      revert\n        /* \"Ethereum/Presale.sol\":1496:1522  SaleInfor public saleInfor */\n    tag_2:\n      callvalue\n      dup1\n      iszero\n      tag_23\n      jumpi\n      0x00\n      dup1\n      revert\n    tag_23:\n      pop\n      sload(0x0b)\n      sload(0x0c)\n      sload(0x0d)\n      sload(0x0e)\n      sload(0x0f)\n      sload(0x10)\n      sload(0x11)\n      sload(0x12)\n      sload(0x13)\n      sload(0x14)\n      sload(0x15)\n      sload(0x16)\n      tag_24\n      swap12\n      sub(shl(0xa0, 0x01), 0x01)\n      swap1\n      dup2\n      and\n      swap12\n      dup2\n      and\n      swap11\n      and\n      swap9\n      swap8\n      swap7\n      swap6\n      swap5\n      swap4\n      swap3\n      swap2\n      0xff\n      and\n      swap1\n      dup13\n      jump\n    tag_24:\n      0x40\n      dup1\n      mload\n      sub(shl(0xa0, 0x01), 0x01)\n        /* \"#utility.yul\":3465:3480   */\n      swap14\n      dup15\n      and\n        /* \"#utility.yul\":3447:3481   */\n      dup2\n      mstore\n        /* \"#utility.yul\":3517:3532   */\n      swap12\n      dup14\n      and\n        /* \"#utility.yul\":3512:3514   */\n      0x20\n        /* \"#utility.yul\":3497:3515   */\n      dup14\n      add\n        /* \"#utility.yul\":3490:3533   */\n      mstore\n        /* \"#utility.yul\":3569:3584   */\n      swap10\n      swap1\n      swap12\n      and\n        /* \"#utility.yul\":3549:3567   */\n      swap9\n      dup11\n      add\n        /* \"#utility.yul\":3542:3585   */\n      swap9\n      swap1\n      swap9\n      mstore\n        /* \"#utility.yul\":3616:3618   */\n      0x60\n        /* \"#utility.yul\":3601:3619   */\n      dup10\n      add\n        /* \"#utility.yul\":3594:3628   */\n      swap7\n      swap1\n      swap7\n      mstore\n        /* \"#utility.yul\":3659:3662   */\n      0x80\n        /* \"#utility.yul\":3644:3663   */\n      dup9\n      add\n        /* \"#utility.yul\":3637:3672   */\n      swap5\n      swap1\n      swap5\n      mstore\n        /* \"#utility.yul\":3427:3430   */\n      0xa0\n        /* \"#utility.yul\":3688:3707   */\n      dup8\n      add\n        /* \"#utility.yul\":3681:3716   */\n      swap3\n      swap1\n      swap3\n      mstore\n        /* \"#utility.yul\":3747:3750   */\n      0xc0\n        /* \"#utility.yul\":3732:3751   */\n      dup7\n      add\n        /* \"#utility.yul\":3725:3760   */\n      mstore\n        /* \"#utility.yul\":3791:3794   */\n      0xe0\n        /* \"#utility.yul\":3776:3795   */\n      dup6\n      add\n        /* \"#utility.yul\":3769:3804   */\n      mstore\n        /* \"#utility.yul\":3835:3838   */\n      0x0100\n        /* \"#utility.yul\":3820:3839   */\n      dup5\n      add\n        /* \"#utility.yul\":3813:3848   */\n      mstore\n        /* \"#utility.yul\":3879:3882   */\n      0x0120\n        /* \"#utility.yul\":3864:3883   */\n      dup4\n      add\n        /* \"#utility.yul\":3857:3892   */\n      mstore\n        /* \"#utility.yul\":3936:3951   */\n      iszero\n        /* \"#utility.yul\":3929:3952   */\n      iszero\n        /* \"#utility.yul\":3923:3926   */\n      0x0140\n        /* \"#utility.yul\":3908:3927   */\n      dup3\n      add\n        /* \"#utility.yul\":3901:3953   */\n      mstore\n        /* \"#utility.yul\":3984:3987   */\n      0x0160\n        /* \"#utility.yul\":3969:3988   */\n      dup2\n      add\n        /* \"#utility.yul\":3962:3998   */\n      swap2\n      swap1\n      swap2\n      mstore\n        /* \"#utility.yul\":3396:3399   */\n      0x0180\n        /* \"#utility.yul\":3381:3400   */\n      add\n        /* \"Ethereum/Presale.sol\":1496:1522  SaleInfor public saleInfor */\n    tag_26:\n      mload(0x40)\n      dup1\n      swap2\n      sub\n      swap1\n      return\n        /* \"Ethereum/Presale.sol\":1632:1655  uint256 public totalFee */\n    tag_3:\n      callvalue\n      dup1\n      iszero\n      tag_28\n      jumpi\n      0x00\n      dup1\n      revert\n    tag_28:\n      pop\n      tag_29\n      sload(0x1b)\n      dup2\n      jump\n    tag_29:\n      mload(0x40)\n        /* \"#utility.yul\":9237:9262   */\n      swap1\n      dup2\n      mstore\n        /* \"#utility.yul\":9225:9227   */\n      0x20\n        /* \"#utility.yul\":9210:9228   */\n      add\n        /* \"Ethereum/Presale.sol\":1632:1655  uint256 public totalFee */\n      tag_26\n        /* \"#utility.yul\":9192:9268   */\n      jump\n        /* \"Ethereum/Presale.sol\":3065:3402  function status() public view returns(uint256) {\r... */\n    tag_4:\n      callvalue\n      dup1\n      iszero\n      tag_33\n      jumpi\n      0x00\n      dup1\n      revert\n    tag_33:\n      pop\n      tag_29\n      tag_35\n      jump\t// in\n        /* \"Ethereum/Presale.sol\":1554:1578  uint256 public feeAnyone */\n    tag_5:\n      callvalue\n      dup1\n      iszero\n      tag_37\n      jumpi\n      0x00\n      dup1\n      revert\n    tag_37:\n      pop\n      tag_29\n      sload(0x18)\n      dup2\n      jump\n        /* \"Ethereum/Presale.sol\":6358:6479  function transferETH(uint256 amount) external payable {\r... */\n    tag_6:\n      tag_41\n      tag_42\n      calldatasize\n      0x04\n      tag_43\n      jump\t// in\n    tag_42:\n      tag_44\n      jump\t// in\n    tag_41:\n      stop\n        /* \"Ethereum/Presale.sol\":1406:1448  mapping(address => uint256) public userFee */\n    tag_7:\n      callvalue\n      dup1\n      iszero\n      tag_45\n      jumpi\n      0x00\n      dup1\n      revert\n    tag_45:\n      pop\n      tag_29\n      tag_47\n      calldatasize\n      0x04\n      tag_48\n      jump\t// in\n    tag_47:\n      mstore(0x20, 0x03)\n      0x00\n      swap1\n      dup2\n      mstore\n      0x40\n      swap1\n      keccak256\n      sload\n      dup2\n      jump\n        /* \"Ethereum/Presale.sol\":2164:3056  function initialSaleInfor(\r... */\n    tag_8:\n      callvalue\n      dup1\n      iszero\n      tag_51\n      jumpi\n      0x00\n      dup1\n      revert\n    tag_51:\n      pop\n      tag_41\n      tag_53\n      calldatasize\n      0x04\n      tag_54\n      jump\t// in\n    tag_53:\n      tag_55\n      jump\t// in\n        /* \"Utils/Ownable.sol\":1714:1817  function renounceOwnership() public virtual onlyOwner {\r... */\n    tag_9:\n      callvalue\n      dup1\n      iszero\n      tag_56\n      jumpi\n      0x00\n      dup1\n      revert\n    tag_56:\n      pop\n      tag_41\n      tag_58\n      jump\t// in\n        /* \"Ethereum/Presale.sol\":6242:6350  function backToken() external payable {\r... */\n    tag_10:\n      tag_41\n      tag_60\n      jump\t// in\n        /* \"Utils/Ownable.sol\":1063:1150  function owner() public view virtual returns (address) {\r... */\n    tag_11:\n      callvalue\n      dup1\n      iszero\n      tag_61\n      jumpi\n      0x00\n      dup1\n      revert\n    tag_61:\n      pop\n        /* \"Utils/Ownable.sol\":1136:1142  _owner */\n      and(sub(shl(0xa0, 0x01), 0x01), sload(0x01))\n        /* \"Utils/Ownable.sol\":1063:1150  function owner() public view virtual returns (address) {\r... */\n    tag_62:\n      mload(0x40)\n      sub(shl(0xa0, 0x01), 0x01)\n        /* \"#utility.yul\":2872:2904   */\n      swap1\n      swap2\n      and\n        /* \"#utility.yul\":2854:2905   */\n      dup2\n      mstore\n        /* \"#utility.yul\":2842:2844   */\n      0x20\n        /* \"#utility.yul\":2827:2845   */\n      add\n        /* \"Utils/Ownable.sol\":1063:1150  function owner() public view virtual returns (address) {\r... */\n      tag_26\n        /* \"#utility.yul\":2809:2911   */\n      jump\n        /* \"Ethereum/Presale.sol\":5441:6112  function userClaimEmergency() external nonReentrant {\r... */\n    tag_12:\n      callvalue\n      dup1\n      iszero\n      tag_66\n      jumpi\n      0x00\n      dup1\n      revert\n    tag_66:\n      pop\n      tag_41\n      tag_68\n      jump\t// in\n        /* \"Ethereum/Presale.sol\":1455:1489  PresaleStatus public presaleStatus */\n    tag_13:\n      callvalue\n      dup1\n      iszero\n      tag_69\n      jumpi\n      0x00\n      dup1\n      revert\n    tag_69:\n      pop\n      sload(0x04)\n      sload(0x05)\n      sload(0x06)\n      sload(0x07)\n      sload(0x08)\n      sload(0x09)\n      tag_70\n      swap6\n      swap5\n      swap4\n      swap3\n      swap2\n      swap1\n      dup7\n      jump\n    tag_70:\n      0x40\n      dup1\n      mload\n        /* \"#utility.yul\":10120:10145   */\n      swap7\n      dup8\n      mstore\n        /* \"#utility.yul\":10176:10178   */\n      0x20\n        /* \"#utility.yul\":10161:10179   */\n      dup8\n      add\n        /* \"#utility.yul\":10154:10188   */\n      swap6\n      swap1\n      swap6\n      mstore\n        /* \"#utility.yul\":10204:10222   */\n      swap4\n      dup6\n      add\n        /* \"#utility.yul\":10197:10231   */\n      swap3\n      swap1\n      swap3\n      mstore\n        /* \"#utility.yul\":10262:10264   */\n      0x60\n        /* \"#utility.yul\":10247:10265   */\n      dup5\n      add\n        /* \"#utility.yul\":10240:10274   */\n      mstore\n        /* \"#utility.yul\":10305:10308   */\n      0x80\n        /* \"#utility.yul\":10290:10309   */\n      dup4\n      add\n        /* \"#utility.yul\":10283:10318   */\n      mstore\n        /* \"#utility.yul\":10349:10352   */\n      0xa0\n        /* \"#utility.yul\":10334:10353   */\n      dup3\n      add\n        /* \"#utility.yul\":10327:10362   */\n      mstore\n        /* \"#utility.yul\":10107:10110   */\n      0xc0\n        /* \"#utility.yul\":10092:10111   */\n      add\n        /* \"Ethereum/Presale.sol\":1455:1489  PresaleStatus public presaleStatus */\n      tag_26\n        /* \"#utility.yul\":10074:10368   */\n      jump\n        /* \"Ethereum/Presale.sol\":1529:1547  IERC20 public WETH */\n    tag_14:\n      callvalue\n      dup1\n      iszero\n      tag_74\n      jumpi\n      0x00\n      dup1\n      revert\n    tag_74:\n      pop\n      sload(0x17)\n      tag_62\n      swap1\n      sub(shl(0xa0, 0x01), 0x01)\n      and\n      dup2\n      jump\n        /* \"Ethereum/Presale.sol\":3529:5433  function deposit(uint256 _amount) external payable nonReentrant {\r... */\n    tag_15:\n      tag_41\n      tag_80\n      calldatasize\n      0x04\n      tag_43\n      jump\t// in\n    tag_80:\n      tag_81\n      jump\t// in\n        /* \"Ethereum/Presale.sol\":3411:3521  function checkAdminAddress() public view returns(bool) {\r... */\n    tag_16:\n      callvalue\n      dup1\n      iszero\n      tag_82\n      jumpi\n      0x00\n      dup1\n      revert\n    tag_82:\n      pop\n      tag_83\n      tag_84\n      jump\t// in\n    tag_83:\n      mload(0x40)\n        /* \"#utility.yul\":4833:4847   */\n      swap1\n      iszero\n        /* \"#utility.yul\":4826:4848   */\n      iszero\n        /* \"#utility.yul\":4808:4849   */\n      dup2\n      mstore\n        /* \"#utility.yul\":4796:4798   */\n      0x20\n        /* \"#utility.yul\":4781:4799   */\n      add\n        /* \"Ethereum/Presale.sol\":3411:3521  function checkAdminAddress() public view returns(bool) {\r... */\n      tag_26\n        /* \"#utility.yul\":4763:4855   */\n      jump\n        /* \"Ethereum/Presale.sol\":1353:1399  mapping(address => BuyerInfo) public buyerInfo */\n    tag_17:\n      callvalue\n      dup1\n      iszero\n      tag_87\n      jumpi\n      0x00\n      dup1\n      revert\n    tag_87:\n      pop\n      tag_88\n      tag_89\n      calldatasize\n      0x04\n      tag_48\n      jump\t// in\n    tag_89:\n      0x02\n      0x20\n      dup2\n      swap1\n      mstore\n      0x00\n      swap2\n      dup3\n      mstore\n      0x40\n      swap1\n      swap2\n      keccak256\n      dup1\n      sload\n      0x01\n      dup3\n      add\n      sload\n      swap3\n      dup3\n      add\n      sload\n      0x03\n      dup4\n      add\n      sload\n      0x04\n      swap1\n      swap4\n      add\n      sload\n      swap2\n      swap4\n      swap3\n      swap1\n      swap2\n      0xff\n      dup1\n      dup3\n      and\n      swap2\n      0x0100\n      swap1\n      div\n      and\n      dup7\n      jump\n    tag_88:\n      0x40\n      dup1\n      mload\n        /* \"#utility.yul\":9548:9573   */\n      swap7\n      dup8\n      mstore\n        /* \"#utility.yul\":9604:9606   */\n      0x20\n        /* \"#utility.yul\":9589:9607   */\n      dup8\n      add\n        /* \"#utility.yul\":9582:9616   */\n      swap6\n      swap1\n      swap6\n      mstore\n        /* \"#utility.yul\":9632:9650   */\n      swap4\n      dup6\n      add\n        /* \"#utility.yul\":9625:9659   */\n      swap3\n      swap1\n      swap3\n      mstore\n        /* \"#utility.yul\":9690:9692   */\n      0x60\n        /* \"#utility.yul\":9675:9693   */\n      dup5\n      add\n        /* \"#utility.yul\":9668:9702   */\n      mstore\n        /* \"#utility.yul\":9746:9760   */\n      iszero\n        /* \"#utility.yul\":9739:9761   */\n      iszero\n        /* \"#utility.yul\":9733:9736   */\n      0x80\n        /* \"#utility.yul\":9718:9737   */\n      dup4\n      add\n        /* \"#utility.yul\":9711:9762   */\n      mstore\n        /* \"#utility.yul\":9806:9820   */\n      iszero\n        /* \"#utility.yul\":9799:9821   */\n      iszero\n        /* \"#utility.yul\":9793:9796   */\n      0xa0\n        /* \"#utility.yul\":9778:9797   */\n      dup3\n      add\n        /* \"#utility.yul\":9771:9822   */\n      mstore\n        /* \"#utility.yul\":9535:9538   */\n      0xc0\n        /* \"#utility.yul\":9520:9539   */\n      add\n        /* \"Ethereum/Presale.sol\":1353:1399  mapping(address => BuyerInfo) public buyerInfo */\n      tag_26\n        /* \"#utility.yul\":9502:9828   */\n      jump\n        /* \"Utils/Ownable.sol\":1972:2173  function transferOwnership(address newOwner) public virtual onlyOwner {\r... */\n    tag_18:\n      callvalue\n      dup1\n      iszero\n      tag_93\n      jumpi\n      0x00\n      dup1\n      revert\n    tag_93:\n      pop\n      tag_41\n      tag_95\n      calldatasize\n      0x04\n      tag_48\n      jump\t// in\n    tag_95:\n      tag_96\n      jump\t// in\n        /* \"Ethereum/Presale.sol\":6120:6231  function getBalance(address _address) external view returns(uint256) {\r... */\n    tag_19:\n      callvalue\n      dup1\n      iszero\n      tag_97\n      jumpi\n      0x00\n      dup1\n      revert\n    tag_97:\n      pop\n      tag_29\n      tag_99\n      calldatasize\n      0x04\n      tag_48\n      jump\t// in\n    tag_99:\n      sub(shl(0xa0, 0x01), 0x01)\n        /* \"Ethereum/Presale.sol\":6207:6223  _address.balance */\n      and\n      balance\n      swap1\n        /* \"Ethereum/Presale.sol\":6120:6231  function getBalance(address _address) external view returns(uint256) {\r... */\n      jump\n        /* \"Ethereum/Presale.sol\":3065:3402  function status() public view returns(uint256) {\r... */\n    tag_35:\n        /* \"Ethereum/Presale.sol\":3144:3163  saleInfor.startSale */\n      sload(0x0f)\n        /* \"Ethereum/Presale.sol\":3103:3110  uint256 */\n      0x00\n      swap1\n        /* \"Ethereum/Presale.sol\":3126:3141  block.timestamp */\n      timestamp\n        /* \"Ethereum/Presale.sol\":3126:3163  block.timestamp < saleInfor.startSale */\n      lt\n        /* \"Ethereum/Presale.sol\":3123:3395  if(block.timestamp < saleInfor.startSale) {\r... */\n      iszero\n      tag_104\n      jumpi\n      pop\n        /* \"Ethereum/Presale.sol\":3187:3188  0 */\n      0x00\n      swap1\n        /* \"Ethereum/Presale.sol\":3065:3402  function status() public view returns(uint256) {\r... */\n      jump\t// out\n        /* \"Ethereum/Presale.sol\":3123:3395  if(block.timestamp < saleInfor.startSale) {\r... */\n    tag_104:\n        /* \"Ethereum/Presale.sol\":3254:3271  saleInfor.endSale */\n      sload(0x10)\n        /* \"Ethereum/Presale.sol\":3236:3251  block.timestamp */\n      timestamp\n        /* \"Ethereum/Presale.sol\":3236:3271  block.timestamp > saleInfor.endSale */\n      gt\n        /* \"Ethereum/Presale.sol\":3233:3384  if(block.timestamp > saleInfor.endSale) {\r... */\n      iszero\n      tag_106\n      jumpi\n      pop\n        /* \"Ethereum/Presale.sol\":3299:3300  2 */\n      0x02\n      swap1\n        /* \"Ethereum/Presale.sol\":3065:3402  function status() public view returns(uint256) {\r... */\n      jump\t// out\n        /* \"Ethereum/Presale.sol\":3233:3384  if(block.timestamp > saleInfor.endSale) {\r... */\n    tag_106:\n      pop\n        /* \"Ethereum/Presale.sol\":3357:3358  1 */\n      0x01\n      swap1\n        /* \"Ethereum/Presale.sol\":3065:3402  function status() public view returns(uint256) {\r... */\n      jump\t// out\n        /* \"Ethereum/Presale.sol\":6358:6479  function transferETH(uint256 amount) external payable {\r... */\n    tag_44:\n        /* \"Ethereum/Presale.sol\":6431:6441  msg.sender */\n      caller\n        /* \"Ethereum/Presale.sol\":6423:6471  payable(msg.sender).transfer(msg.value - amount) */\n      0x08fc\n        /* \"Ethereum/Presale.sol\":6452:6470  msg.value - amount */\n      tag_109\n        /* \"Ethereum/Presale.sol\":6464:6470  amount */\n      dup4\n        /* \"Ethereum/Presale.sol\":6452:6461  msg.value */\n      callvalue\n        /* \"Ethereum/Presale.sol\":6452:6470  msg.value - amount */\n      tag_110\n      jump\t// in\n    tag_109:\n        /* \"Ethereum/Presale.sol\":6423:6471  payable(msg.sender).transfer(msg.value - amount) */\n      mload(0x40)\n      dup2\n      iszero\n      swap1\n      swap3\n      mul\n      swap2\n      0x00\n      dup2\n      dup2\n      dup2\n      dup6\n      dup9\n      dup9\n      call\n      swap4\n      pop\n      pop\n      pop\n      pop\n      iszero\n      dup1\n      iszero\n      tag_112\n      jumpi\n      returndatasize\n      0x00\n      dup1\n      returndatacopy\n      revert(0x00, returndatasize)\n    tag_112:\n      pop\n        /* \"Ethereum/Presale.sol\":6358:6479  function transferETH(uint256 amount) external payable {\r... */\n      pop\n      jump\t// out\n        /* \"Ethereum/Presale.sol\":2164:3056  function initialSaleInfor(\r... */\n    tag_55:\n        /* \"Ethereum/Presale.sol\":2345:2354  saleInfor */\n      0x0b\n        /* \"Ethereum/Presale.sol\":2345:2383  saleInfor.presaleOwner = _presaleOwner */\n      dup1\n      sload\n      sub(shl(0xa0, 0x01), 0x01)\n      dup1\n      dup8\n      and\n      not(sub(shl(0xa0, 0x01), 0x01))\n      swap3\n      dup4\n      and\n      or\n      swap1\n      swap3\n      sstore\n        /* \"Ethereum/Presale.sol\":2394:2413  saleInfor.saleToken */\n      0x0c\n        /* \"Ethereum/Presale.sol\":2394:2426  saleInfor.saleToken = _saleToken */\n      dup1\n      sload\n      dup7\n      dup5\n      and\n      swap1\n      dup4\n      and\n      dup2\n      or\n      swap1\n      swap2\n      sstore\n        /* \"Ethereum/Presale.sol\":2437:2456  saleInfor.baseToken */\n      0x0d\n        /* \"Ethereum/Presale.sol\":2437:2469  saleInfor.baseToken = _baseTOken */\n      dup1\n      sload\n      swap4\n      dup7\n      and\n      swap4\n      swap1\n      swap3\n      and\n      swap3\n      swap1\n      swap3\n      or\n      swap1\n      sstore\n        /* \"Ethereum/Presale.sol\":2527:2564  ERC20(saleInfor.saleToken).decimals() */\n      0x40\n      dup1\n      mload\n      shl(0xe0, 0x313ce567)\n      dup2\n      mstore\n      swap1\n      mload\n        /* \"Ethereum/Presale.sol\":2527:2562  ERC20(saleInfor.saleToken).decimals */\n      0x313ce567\n      swap2\n        /* \"Ethereum/Presale.sol\":2527:2564  ERC20(saleInfor.saleToken).decimals() */\n      0x04\n      dup1\n      dup3\n      add\n      swap3\n      0x20\n      swap3\n      swap1\n      swap2\n      swap1\n      dup3\n      swap1\n      sub\n      add\n      dup2\n        /* \"Ethereum/Presale.sol\":2394:2426  saleInfor.saleToken = _saleToken */\n      dup7\n        /* \"Ethereum/Presale.sol\":2527:2564  ERC20(saleInfor.saleToken).decimals() */\n      dup1\n      extcodesize\n      iszero\n      dup1\n      iszero\n      tag_114\n      jumpi\n      0x00\n      dup1\n      revert\n    tag_114:\n      pop\n      gas\n      staticcall\n      iszero\n      dup1\n      iszero\n      tag_116\n      jumpi\n      returndatasize\n      0x00\n      dup1\n      returndatacopy\n      revert(0x00, returndatasize)\n    tag_116:\n      pop\n      pop\n      pop\n      pop\n      mload(0x40)\n      returndatasize\n      not(0x1f)\n      0x1f\n      dup3\n      add\n      and\n      dup3\n      add\n      dup1\n      0x40\n      mstore\n      pop\n      dup2\n      add\n      swap1\n      tag_117\n      swap2\n      swap1\n      tag_118\n      jump\t// in\n    tag_117:\n        /* \"Ethereum/Presale.sol\":2514:2565  10** uint256(ERC20(saleInfor.saleToken).decimals()) */\n      tag_119\n      swap1\n        /* \"Ethereum/Presale.sol\":2514:2516  10 */\n      0x0a\n        /* \"Ethereum/Presale.sol\":2514:2565  10** uint256(ERC20(saleInfor.saleToken).decimals()) */\n      tag_120\n      jump\t// in\n    tag_119:\n        /* \"Ethereum/Presale.sol\":2503:2511  datas[0] */\n      dup2\n      mload\n        /* \"Ethereum/Presale.sol\":2503:2565  datas[0] * 10** uint256(ERC20(saleInfor.saleToken).decimals()) */\n      tag_122\n      swap2\n      swap1\n      tag_123\n      jump\t// in\n    tag_122:\n        /* \"Ethereum/Presale.sol\":2480:2500  saleInfor.tokenPrice */\n      0x0e\n        /* \"Ethereum/Presale.sol\":2480:2565  saleInfor.tokenPrice = datas[0] * 10** uint256(ERC20(saleInfor.saleToken).decimals()) */\n      sstore\n        /* \"Ethereum/Presale.sol\":2598:2606  datas[1] */\n      0x20\n      dup1\n      dup3\n      add\n      mload\n        /* \"Ethereum/Presale.sol\":2576:2595  saleInfor.startSale */\n      0x0f\n        /* \"Ethereum/Presale.sol\":2576:2606  saleInfor.startSale = datas[1] */\n      sstore\n        /* \"Ethereum/Presale.sol\":2637:2645  datas[2] */\n      0x40\n      dup1\n      dup4\n      add\n      mload\n        /* \"Ethereum/Presale.sol\":2617:2634  saleInfor.endSale */\n      0x10\n        /* \"Ethereum/Presale.sol\":2617:2645  saleInfor.endSale = datas[2] */\n      sstore\n        /* \"Ethereum/Presale.sol\":2685:2693  datas[3] */\n      0x60\n      dup4\n      add\n      mload\n        /* \"Ethereum/Presale.sol\":2656:2682  saleInfor.minSpendPerBuyer */\n      0x11\n        /* \"Ethereum/Presale.sol\":2656:2693  saleInfor.minSpendPerBuyer = datas[3] */\n      sstore\n        /* \"Ethereum/Presale.sol\":2763:2782  saleInfor.baseToken */\n      sload(0x0d)\n        /* \"Ethereum/Presale.sol\":2757:2794  ERC20(saleInfor.baseToken).decimals() */\n      dup2\n      mload\n      shl(0xe0, 0x313ce567)\n      dup2\n      mstore\n      swap2\n      mload\n      sub(shl(0xa0, 0x01), 0x01)\n        /* \"Ethereum/Presale.sol\":2763:2782  saleInfor.baseToken */\n      swap1\n      swap2\n      and\n      swap3\n        /* \"Ethereum/Presale.sol\":2757:2792  ERC20(saleInfor.baseToken).decimals */\n      0x313ce567\n      swap3\n        /* \"Ethereum/Presale.sol\":2757:2794  ERC20(saleInfor.baseToken).decimals() */\n      0x04\n      dup1\n      dup3\n      add\n      swap4\n      swap2\n      dup3\n      swap1\n      sub\n      add\n      dup2\n        /* \"Ethereum/Presale.sol\":2763:2782  saleInfor.baseToken */\n      dup7\n        /* \"Ethereum/Presale.sol\":2757:2794  ERC20(saleInfor.baseToken).decimals() */\n      dup1\n      extcodesize\n      iszero\n      dup1\n      iszero\n      tag_127\n      jumpi\n      0x00\n      dup1\n      revert\n    tag_127:\n      pop\n      gas\n      staticcall\n      iszero\n      dup1\n      iszero\n      tag_129\n      jumpi\n      returndatasize\n      0x00\n      dup1\n      returndatacopy\n      revert(0x00, returndatasize)\n    tag_129:\n      pop\n      pop\n      pop\n      pop\n      mload(0x40)\n      returndatasize\n      not(0x1f)\n      0x1f\n      dup3\n      add\n      and\n      dup3\n      add\n      dup1\n      0x40\n      mstore\n      pop\n      dup2\n      add\n      swap1\n      tag_130\n      swap2\n      swap1\n      tag_118\n      jump\t// in\n    tag_130:\n        /* \"Ethereum/Presale.sol\":2744:2795  10** uint256(ERC20(saleInfor.baseToken).decimals()) */\n      tag_131\n      swap1\n        /* \"Ethereum/Presale.sol\":2744:2746  10 */\n      0x0a\n        /* \"Ethereum/Presale.sol\":2744:2795  10** uint256(ERC20(saleInfor.baseToken).decimals()) */\n      tag_120\n      jump\t// in\n    tag_131:\n        /* \"Ethereum/Presale.sol\":2733:2741  datas[4] */\n      0x80\n      dup3\n      add\n      mload\n        /* \"Ethereum/Presale.sol\":2733:2795  datas[4] * 10** uint256(ERC20(saleInfor.baseToken).decimals()) */\n      tag_133\n      swap2\n      swap1\n      tag_123\n      jump\t// in\n    tag_133:\n        /* \"Ethereum/Presale.sol\":2704:2730  saleInfor.maxSpendPerBuyer */\n      0x12\n        /* \"Ethereum/Presale.sol\":2704:2795  saleInfor.maxSpendPerBuyer = datas[4] * 10** uint256(ERC20(saleInfor.baseToken).decimals()) */\n      sstore\n        /* \"Ethereum/Presale.sol\":2828:2836  datas[5] */\n      0xa0\n      dup2\n      add\n      mload\n        /* \"Ethereum/Presale.sol\":2806:2825  saleInfor.refundFee */\n      0x13\n        /* \"Ethereum/Presale.sol\":2806:2836  saleInfor.refundFee = datas[5] */\n      sstore\n        /* \"Ethereum/Presale.sol\":2868:2876  datas[6] */\n      0xc0\n      dup2\n      add\n      mload\n        /* \"Ethereum/Presale.sol\":2847:2865  saleInfor.claimFee */\n      0x14\n        /* \"Ethereum/Presale.sol\":2847:2876  saleInfor.claimFee = datas[6] */\n      sstore\n        /* \"Ethereum/Presale.sol\":2940:2959  saleInfor.baseToken */\n      sload(0x0d)\n        /* \"Ethereum/Presale.sol\":2923:2927  WETH */\n      sload(0x17)\n        /* \"Ethereum/Presale.sol\":2887:2912  saleInfor.saleIsBaseToken */\n      0x15\n        /* \"Ethereum/Presale.sol\":2887:2960  saleInfor.saleIsBaseToken = address(WETH) == address(saleInfor.baseToken) */\n      dup1\n      sload\n      sub(shl(0xa0, 0x01), 0x01)\n        /* \"Ethereum/Presale.sol\":2940:2959  saleInfor.baseToken */\n      swap4\n      dup5\n      and\n        /* \"Ethereum/Presale.sol\":2923:2927  WETH */\n      swap4\n      swap1\n      swap3\n      and\n        /* \"Ethereum/Presale.sol\":2915:2960  address(WETH) == address(saleInfor.baseToken) */\n      swap3\n      swap1\n      swap3\n      eq\n      not(0xff)\n        /* \"Ethereum/Presale.sol\":2887:2960  saleInfor.saleIsBaseToken = address(WETH) == address(saleInfor.baseToken) */\n      swap1\n      swap2\n      and\n      or\n      swap1\n      sstore\n        /* \"Ethereum/Presale.sol\":3027:3047  saleInfor.tokenPrice */\n      sload(0x0e)\n        /* \"Ethereum/Presale.sol\":3002:3048  saleInfor.tokenPrice.mul(saleInfor.tokenPrice) */\n      tag_136\n      swap1\n        /* \"Ethereum/Presale.sol\":3027:3047  saleInfor.tokenPrice */\n      dup1\n        /* \"Ethereum/Presale.sol\":3002:3026  saleInfor.tokenPrice.mul */\n      tag_137\n        /* \"Ethereum/Presale.sol\":3002:3048  saleInfor.tokenPrice.mul(saleInfor.tokenPrice) */\n      jump\t// in\n    tag_136:\n        /* \"Ethereum/Presale.sol\":2971:2999  saleInfor.amountTokenForSale */\n      0x16\n        /* \"Ethereum/Presale.sol\":2971:3048  saleInfor.amountTokenForSale = saleInfor.tokenPrice.mul(saleInfor.tokenPrice) */\n      sstore\n      pop\n      pop\n      pop\n      pop\n        /* \"Ethereum/Presale.sol\":2164:3056  function initialSaleInfor(\r... */\n      jump\t// out\n        /* \"Utils/Ownable.sol\":1714:1817  function renounceOwnership() public virtual onlyOwner {\r... */\n    tag_58:\n        /* \"Utils/Ownable.sol\":1136:1142  _owner */\n      and(sub(shl(0xa0, 0x01), 0x01), sload(0x01))\n        /* \"Utils/Context.sol\":736:746  msg.sender */\n      caller\n        /* \"Utils/Ownable.sol\":1283:1306  owner() == _msgSender() */\n      eq\n        /* \"Utils/Ownable.sol\":1275:1343  require(owner() == _msgSender(), \"Ownable: caller is not the owner\") */\n      tag_142\n      jumpi\n      mload(0x40)\n      shl(0xe5, 0x461bcd)\n      dup2\n      mstore\n        /* \"#utility.yul\":7759:7761   */\n      0x20\n        /* \"Utils/Ownable.sol\":1275:1343  require(owner() == _msgSender(), \"Ownable: caller is not the owner\") */\n      0x04\n      dup3\n      add\n        /* \"#utility.yul\":7741:7762   */\n      dup2\n      swap1\n      mstore\n        /* \"#utility.yul\":7778:7796   */\n      0x24\n      dup3\n      add\n        /* \"#utility.yul\":7771:7801   */\n      mstore\n        /* \"#utility.yul\":7837:7871   */\n      0x4f776e61626c653a2063616c6c6572206973206e6f7420746865206f776e6572\n        /* \"#utility.yul\":7817:7835   */\n      0x44\n      dup3\n      add\n        /* \"#utility.yul\":7810:7872   */\n      mstore\n        /* \"#utility.yul\":7889:7907   */\n      0x64\n      add\n        /* \"Utils/Ownable.sol\":1275:1343  require(owner() == _msgSender(), \"Ownable: caller is not the owner\") */\n    tag_143:\n      mload(0x40)\n      dup1\n      swap2\n      sub\n      swap1\n      revert\n    tag_142:\n        /* \"Utils/Ownable.sol\":1779:1809  _transferOwnership(address(0)) */\n      tag_146\n        /* \"Utils/Ownable.sol\":1806:1807  0 */\n      0x00\n        /* \"Utils/Ownable.sol\":1779:1797  _transferOwnership */\n      tag_147\n        /* \"Utils/Ownable.sol\":1779:1809  _transferOwnership(address(0)) */\n      jump\t// in\n    tag_146:\n        /* \"Utils/Ownable.sol\":1714:1817  function renounceOwnership() public virtual onlyOwner {\r... */\n      jump\t// out\n        /* \"Ethereum/Presale.sol\":6242:6350  function backToken() external payable {\r... */\n    tag_60:\n        /* \"Ethereum/Presale.sol\":6291:6342  payable(msg.sender).transfer(address(this).balance) */\n      mload(0x40)\n        /* \"Ethereum/Presale.sol\":6299:6309  msg.sender */\n      caller\n      swap1\n        /* \"Ethereum/Presale.sol\":6320:6341  address(this).balance */\n      selfbalance\n        /* \"Ethereum/Presale.sol\":6291:6342  payable(msg.sender).transfer(address(this).balance) */\n      dup1\n      iszero\n      0x08fc\n      mul\n      swap2\n      0x00\n      dup2\n      dup2\n      dup2\n        /* \"Ethereum/Presale.sol\":6320:6341  address(this).balance */\n      dup6\n        /* \"Ethereum/Presale.sol\":6299:6309  msg.sender */\n      dup9\n        /* \"Ethereum/Presale.sol\":6291:6342  payable(msg.sender).transfer(address(this).balance) */\n      dup9\n      call\n      swap4\n      pop\n      pop\n      pop\n      pop\n      iszero\n      dup1\n      iszero\n      tag_150\n      jumpi\n      returndatasize\n      0x00\n      dup1\n      returndatacopy\n      revert(0x00, returndatasize)\n    tag_150:\n      pop\n        /* \"Ethereum/Presale.sol\":6242:6350  function backToken() external payable {\r... */\n      jump\t// out\n        /* \"Ethereum/Presale.sol\":5441:6112  function userClaimEmergency() external nonReentrant {\r... */\n    tag_68:\n        /* \"Utils/ReentrancyGuard.sol\":1778:1779  2 */\n      0x02\n        /* \"Utils/ReentrancyGuard.sol\":2376:2383  _status */\n      sload(0x00)\n        /* \"Utils/ReentrancyGuard.sol\":2376:2395  _status != _ENTERED */\n      eq\n      iszero\n        /* \"Utils/ReentrancyGuard.sol\":2368:2431  require(_status != _ENTERED, \"ReentrancyGuard: reentrant call\") */\n      tag_153\n      jumpi\n      mload(0x40)\n      shl(0xe5, 0x461bcd)\n      dup2\n      mstore\n        /* \"#utility.yul\":8933:8935   */\n      0x20\n        /* \"Utils/ReentrancyGuard.sol\":2368:2431  require(_status != _ENTERED, \"ReentrancyGuard: reentrant call\") */\n      0x04\n      dup3\n      add\n        /* \"#utility.yul\":8915:8936   */\n      mstore\n        /* \"#utility.yul\":8972:8974   */\n      0x1f\n        /* \"#utility.yul\":8952:8970   */\n      0x24\n      dup3\n      add\n        /* \"#utility.yul\":8945:8975   */\n      mstore\n        /* \"#utility.yul\":9011:9044   */\n      0x5265656e7472616e637947756172643a207265656e7472616e742063616c6c00\n        /* \"#utility.yul\":8991:9009   */\n      0x44\n      dup3\n      add\n        /* \"#utility.yul\":8984:9045   */\n      mstore\n        /* \"#utility.yul\":9062:9080   */\n      0x64\n      add\n        /* \"Utils/ReentrancyGuard.sol\":2368:2431  require(_status != _ENTERED, \"ReentrancyGuard: reentrant call\") */\n      tag_143\n        /* \"#utility.yul\":8905:9086   */\n      jump\n        /* \"Utils/ReentrancyGuard.sol\":2368:2431  require(_status != _ENTERED, \"ReentrancyGuard: reentrant call\") */\n    tag_153:\n        /* \"Utils/ReentrancyGuard.sol\":1778:1779  2 */\n      0x02\n        /* \"Utils/ReentrancyGuard.sol\":2509:2516  _status */\n      0x00\n        /* \"Utils/ReentrancyGuard.sol\":2509:2527  _status = _ENTERED */\n      sstore\n        /* \"Ethereum/Presale.sol\":5512:5520  status() */\n      tag_157\n        /* \"Ethereum/Presale.sol\":5512:5518  status */\n      tag_35\n        /* \"Ethereum/Presale.sol\":5512:5520  status() */\n      jump\t// in\n    tag_157:\n        /* \"Ethereum/Presale.sol\":5524:5525  1 */\n      0x01\n        /* \"Ethereum/Presale.sol\":5512:5525  status() == 1 */\n      eq\n        /* \"Ethereum/Presale.sol\":5504:5542  require(status() == 1, \"Sale sucesss\") */\n      tag_158\n      jumpi\n      mload(0x40)\n      shl(0xe5, 0x461bcd)\n      dup2\n      mstore\n        /* \"#utility.yul\":7418:7420   */\n      0x20\n        /* \"Ethereum/Presale.sol\":5504:5542  require(status() == 1, \"Sale sucesss\") */\n      0x04\n      dup3\n      add\n        /* \"#utility.yul\":7400:7421   */\n      mstore\n        /* \"#utility.yul\":7457:7459   */\n      0x0c\n        /* \"#utility.yul\":7437:7455   */\n      0x24\n      dup3\n      add\n        /* \"#utility.yul\":7430:7460   */\n      mstore\n      shl(0xa0, 0x53616c652073756365737373)\n        /* \"#utility.yul\":7476:7494   */\n      0x44\n      dup3\n      add\n        /* \"#utility.yul\":7469:7511   */\n      mstore\n        /* \"#utility.yul\":7528:7546   */\n      0x64\n      add\n        /* \"Ethereum/Presale.sol\":5504:5542  require(status() == 1, \"Sale sucesss\") */\n      tag_143\n        /* \"#utility.yul\":7390:7552   */\n      jump\n        /* \"Ethereum/Presale.sol\":5504:5542  require(status() == 1, \"Sale sucesss\") */\n    tag_158:\n        /* \"Ethereum/Presale.sol\":5593:5625  presaleStatus.totalTokenWithDraw */\n      sload(0x06)\n        /* \"Ethereum/Presale.sol\":5562:5590  presaleStatus.totalTokenSold */\n      sload(0x05)\n        /* \"Ethereum/Presale.sol\":5628:5629  0 */\n      0x00\n      swap2\n        /* \"Ethereum/Presale.sol\":5562:5625  presaleStatus.totalTokenSold - presaleStatus.totalTokenWithDraw */\n      tag_161\n      swap2\n      tag_110\n      jump\t// in\n    tag_161:\n        /* \"Ethereum/Presale.sol\":5562:5629  presaleStatus.totalTokenSold - presaleStatus.totalTokenWithDraw > 0 */\n      gt\n        /* \"Ethereum/Presale.sol\":5554:5688  require(presaleStatus.totalTokenSold - presaleStatus.totalTokenWithDraw > 0, \r... */\n      tag_162\n      jumpi\n      mload(0x40)\n      shl(0xe5, 0x461bcd)\n      dup2\n      mstore\n        /* \"#utility.yul\":5284:5286   */\n      0x20\n        /* \"Ethereum/Presale.sol\":5554:5688  require(presaleStatus.totalTokenSold - presaleStatus.totalTokenWithDraw > 0, \r... */\n      0x04\n      dup3\n      add\n        /* \"#utility.yul\":5266:5287   */\n      mstore\n        /* \"#utility.yul\":5323:5325   */\n      0x1b\n        /* \"#utility.yul\":5303:5321   */\n      0x24\n      dup3\n      add\n        /* \"#utility.yul\":5296:5326   */\n      mstore\n        /* \"#utility.yul\":5362:5391   */\n      0x416c6c20746f6b656e20686173206265656e2077697468647261770000000000\n        /* \"#utility.yul\":5342:5360   */\n      0x44\n      dup3\n      add\n        /* \"#utility.yul\":5335:5392   */\n      mstore\n        /* \"#utility.yul\":5409:5427   */\n      0x64\n      add\n        /* \"Ethereum/Presale.sol\":5554:5688  require(presaleStatus.totalTokenSold - presaleStatus.totalTokenWithDraw > 0, \r... */\n      tag_143\n        /* \"#utility.yul\":5256:5433   */\n      jump\n        /* \"Ethereum/Presale.sol\":5554:5688  require(presaleStatus.totalTokenSold - presaleStatus.totalTokenWithDraw > 0, \r... */\n    tag_162:\n        /* \"Ethereum/Presale.sol\":5735:5745  msg.sender */\n      caller\n        /* \"Ethereum/Presale.sol\":5699:5722  BuyerInfo storage buyer */\n      0x00\n        /* \"Ethereum/Presale.sol\":5725:5746  buyerInfo[msg.sender] */\n      swap1\n      dup2\n      mstore\n        /* \"Ethereum/Presale.sol\":5725:5734  buyerInfo */\n      0x02\n        /* \"Ethereum/Presale.sol\":5725:5746  buyerInfo[msg.sender] */\n      0x20\n      mstore\n      0x40\n      swap1\n      keccak256\n        /* \"Ethereum/Presale.sol\":5765:5781  buyer.tokenOwner */\n      0x01\n      dup2\n      add\n      sload\n        /* \"Ethereum/Presale.sol\":5757:5829  require(buyer.tokenOwner > 0, \"You withdraw all or have not bought yet\") */\n      tag_165\n      jumpi\n      mload(0x40)\n      shl(0xe5, 0x461bcd)\n      dup2\n      mstore\n        /* \"#utility.yul\":8120:8122   */\n      0x20\n        /* \"Ethereum/Presale.sol\":5757:5829  require(buyer.tokenOwner > 0, \"You withdraw all or have not bought yet\") */\n      0x04\n      dup3\n      add\n        /* \"#utility.yul\":8102:8123   */\n      mstore\n        /* \"#utility.yul\":8159:8161   */\n      0x27\n        /* \"#utility.yul\":8139:8157   */\n      0x24\n      dup3\n      add\n        /* \"#utility.yul\":8132:8162   */\n      mstore\n        /* \"#utility.yul\":8198:8232   */\n      0x596f7520776974686472617720616c6c206f722068617665206e6f7420626f75\n        /* \"#utility.yul\":8178:8196   */\n      0x44\n      dup3\n      add\n        /* \"#utility.yul\":8171:8233   */\n      mstore\n      shl(0xca, 0x19da1d081e595d)\n        /* \"#utility.yul\":8249:8267   */\n      0x64\n      dup3\n      add\n        /* \"#utility.yul\":8242:8279   */\n      mstore\n        /* \"#utility.yul\":8296:8315   */\n      0x84\n      add\n        /* \"Ethereum/Presale.sol\":5757:5829  require(buyer.tokenOwner > 0, \"You withdraw all or have not bought yet\") */\n      tag_143\n        /* \"#utility.yul\":8092:8321   */\n      jump\n        /* \"Ethereum/Presale.sol\":5757:5829  require(buyer.tokenOwner > 0, \"You withdraw all or have not bought yet\") */\n    tag_165:\n        /* \"Ethereum/Presale.sol\":5840:5854  uint256 amount */\n      0x00\n        /* \"Ethereum/Presale.sol\":5857:5909  (buyer.tokenOwner.mul(saleInfor.claimFee)).div(1000) */\n      tag_168\n        /* \"Ethereum/Presale.sol\":5904:5908  1000 */\n      0x03e8\n        /* \"Ethereum/Presale.sol\":5858:5898  buyer.tokenOwner.mul(saleInfor.claimFee) */\n      tag_169\n        /* \"Ethereum/Presale.sol\":5879:5888  saleInfor */\n      0x0b\n        /* \"Ethereum/Presale.sol\":5879:5897  saleInfor.claimFee */\n      0x09\n      add\n      sload\n        /* \"Ethereum/Presale.sol\":5858:5863  buyer */\n      dup6\n        /* \"Ethereum/Presale.sol\":5858:5874  buyer.tokenOwner */\n      0x01\n      add\n      sload\n        /* \"Ethereum/Presale.sol\":5858:5878  buyer.tokenOwner.mul */\n      tag_137\n      swap1\n        /* \"Ethereum/Presale.sol\":5858:5898  buyer.tokenOwner.mul(saleInfor.claimFee) */\n      swap2\n      swap1\n      0xffffffff\n      and\n      jump\t// in\n    tag_169:\n        /* \"Ethereum/Presale.sol\":5857:5903  (buyer.tokenOwner.mul(saleInfor.claimFee)).div */\n      swap1\n      tag_170\n        /* \"Ethereum/Presale.sol\":5857:5909  (buyer.tokenOwner.mul(saleInfor.claimFee)).div(1000) */\n      jump\t// in\n    tag_168:\n        /* \"Ethereum/Presale.sol\":5840:5909  uint256 amount = (buyer.tokenOwner.mul(saleInfor.claimFee)).div(1000) */\n      swap1\n      pop\n        /* \"Ethereum/Presale.sol\":5920:5941  uint256 feeClaimToken */\n      0x00\n        /* \"Ethereum/Presale.sol\":5963:5969  amount */\n      dup2\n        /* \"Ethereum/Presale.sol\":5944:5949  buyer */\n      dup4\n        /* \"Ethereum/Presale.sol\":5944:5960  buyer.tokenOwner */\n      0x01\n      add\n      sload\n        /* \"Ethereum/Presale.sol\":5944:5969  buyer.tokenOwner - amount */\n      tag_171\n      swap2\n      swap1\n      tag_110\n      jump\t// in\n    tag_171:\n        /* \"Ethereum/Presale.sol\":5986:6005  saleInfor.saleToken */\n      sload(0x0c)\n        /* \"Ethereum/Presale.sol\":5980:6035  ERC20(saleInfor.saleToken).transfer(msg.sender, amount) */\n      mload(0x40)\n      shl(0xe0, 0xa9059cbb)\n      dup2\n      mstore\n        /* \"Ethereum/Presale.sol\":6016:6026  msg.sender */\n      caller\n        /* \"Ethereum/Presale.sol\":5980:6035  ERC20(saleInfor.saleToken).transfer(msg.sender, amount) */\n      0x04\n      dup3\n      add\n        /* \"#utility.yul\":4563:4614   */\n      mstore\n        /* \"#utility.yul\":4630:4648   */\n      0x24\n      dup2\n      add\n        /* \"#utility.yul\":4623:4657   */\n      dup6\n      swap1\n      mstore\n        /* \"Ethereum/Presale.sol\":5920:5969  uint256 feeClaimToken = buyer.tokenOwner - amount */\n      swap2\n      swap3\n      pop\n      sub(shl(0xa0, 0x01), 0x01)\n        /* \"Ethereum/Presale.sol\":5986:6005  saleInfor.saleToken */\n      and\n      swap1\n        /* \"Ethereum/Presale.sol\":5980:6015  ERC20(saleInfor.saleToken).transfer */\n      0xa9059cbb\n      swap1\n        /* \"#utility.yul\":4536:4554   */\n      0x44\n      add\n        /* \"Ethereum/Presale.sol\":5980:6035  ERC20(saleInfor.saleToken).transfer(msg.sender, amount) */\n      0x20\n      mload(0x40)\n      dup1\n      dup4\n      sub\n      dup2\n      0x00\n      dup8\n      dup1\n      extcodesize\n      iszero\n      dup1\n      iszero\n      tag_174\n      jumpi\n      0x00\n      dup1\n      revert\n    tag_174:\n      pop\n      gas\n      call\n      iszero\n      dup1\n      iszero\n      tag_176\n      jumpi\n      returndatasize\n      0x00\n      dup1\n      returndatacopy\n      revert(0x00, returndatasize)\n    tag_176:\n      pop\n      pop\n      pop\n      pop\n      mload(0x40)\n      returndatasize\n      not(0x1f)\n      0x1f\n      dup3\n      add\n      and\n      dup3\n      add\n      dup1\n      0x40\n      mstore\n      pop\n      dup2\n      add\n      swap1\n      tag_177\n      swap2\n      swap1\n      tag_178\n      jump\t// in\n    tag_177:\n      pop\n        /* \"Ethereum/Presale.sol\":6052:6071  saleInfor.saleToken */\n      sload(0x0c)\n        /* \"Ethereum/Presale.sol\":6046:6104  ERC20(saleInfor.saleToken).transfer(address(this), amount) */\n      mload(0x40)\n      shl(0xe0, 0xa9059cbb)\n      dup2\n      mstore\n        /* \"Ethereum/Presale.sol\":6090:6094  this */\n      address\n        /* \"Ethereum/Presale.sol\":6046:6104  ERC20(saleInfor.saleToken).transfer(address(this), amount) */\n      0x04\n      dup3\n      add\n        /* \"#utility.yul\":4563:4614   */\n      mstore\n        /* \"#utility.yul\":4630:4648   */\n      0x24\n      dup2\n      add\n        /* \"#utility.yul\":4623:4657   */\n      dup5\n      swap1\n      mstore\n      sub(shl(0xa0, 0x01), 0x01)\n        /* \"Ethereum/Presale.sol\":6052:6071  saleInfor.saleToken */\n      swap1\n      swap2\n      and\n      swap1\n        /* \"Ethereum/Presale.sol\":6046:6081  ERC20(saleInfor.saleToken).transfer */\n      0xa9059cbb\n      swap1\n        /* \"#utility.yul\":4536:4554   */\n      0x44\n      add\n        /* \"Ethereum/Presale.sol\":6046:6104  ERC20(saleInfor.saleToken).transfer(address(this), amount) */\n      0x20\n      mload(0x40)\n      dup1\n      dup4\n      sub\n      dup2\n      0x00\n      dup8\n      dup1\n      extcodesize\n      iszero\n      dup1\n      iszero\n      tag_180\n      jumpi\n      0x00\n      dup1\n      revert\n    tag_180:\n      pop\n      gas\n      call\n      iszero\n      dup1\n      iszero\n      tag_182\n      jumpi\n      returndatasize\n      0x00\n      dup1\n      returndatacopy\n      revert(0x00, returndatasize)\n    tag_182:\n      pop\n      pop\n      pop\n      pop\n      mload(0x40)\n      returndatasize\n      not(0x1f)\n      0x1f\n      dup3\n      add\n      and\n      dup3\n      add\n      dup1\n      0x40\n      mstore\n      pop\n      dup2\n      add\n      swap1\n      tag_183\n      swap2\n      swap1\n      tag_178\n      jump\t// in\n    tag_183:\n      pop\n      pop\n        /* \"Utils/ReentrancyGuard.sol\":1734:1735  1 */\n      0x01\n        /* \"Utils/ReentrancyGuard.sol\":2688:2695  _status */\n      0x00\n        /* \"Utils/ReentrancyGuard.sol\":2688:2710  _status = _NOT_ENTERED */\n      sstore\n      pop\n      pop\n        /* \"Ethereum/Presale.sol\":5441:6112  function userClaimEmergency() external nonReentrant {\r... */\n      jump\t// out\n        /* \"Ethereum/Presale.sol\":3529:5433  function deposit(uint256 _amount) external payable nonReentrant {\r... */\n    tag_81:\n        /* \"Utils/ReentrancyGuard.sol\":1778:1779  2 */\n      0x02\n        /* \"Utils/ReentrancyGuard.sol\":2376:2383  _status */\n      sload(0x00)\n        /* \"Utils/ReentrancyGuard.sol\":2376:2395  _status != _ENTERED */\n      eq\n      iszero\n        /* \"Utils/ReentrancyGuard.sol\":2368:2431  require(_status != _ENTERED, \"ReentrancyGuard: reentrant call\") */\n      tag_185\n      jumpi\n      mload(0x40)\n      shl(0xe5, 0x461bcd)\n      dup2\n      mstore\n        /* \"#utility.yul\":8933:8935   */\n      0x20\n        /* \"Utils/ReentrancyGuard.sol\":2368:2431  require(_status != _ENTERED, \"ReentrancyGuard: reentrant call\") */\n      0x04\n      dup3\n      add\n        /* \"#utility.yul\":8915:8936   */\n      mstore\n        /* \"#utility.yul\":8972:8974   */\n      0x1f\n        /* \"#utility.yul\":8952:8970   */\n      0x24\n      dup3\n      add\n        /* \"#utility.yul\":8945:8975   */\n      mstore\n        /* \"#utility.yul\":9011:9044   */\n      0x5265656e7472616e637947756172643a207265656e7472616e742063616c6c00\n        /* \"#utility.yul\":8991:9009   */\n      0x44\n      dup3\n      add\n        /* \"#utility.yul\":8984:9045   */\n      mstore\n        /* \"#utility.yul\":9062:9080   */\n      0x64\n      add\n        /* \"Utils/ReentrancyGuard.sol\":2368:2431  require(_status != _ENTERED, \"ReentrancyGuard: reentrant call\") */\n      tag_143\n        /* \"#utility.yul\":8905:9086   */\n      jump\n        /* \"Utils/ReentrancyGuard.sol\":2368:2431  require(_status != _ENTERED, \"ReentrancyGuard: reentrant call\") */\n    tag_185:\n        /* \"Utils/ReentrancyGuard.sol\":1778:1779  2 */\n      0x02\n        /* \"Utils/ReentrancyGuard.sol\":2509:2516  _status */\n      0x00\n        /* \"Utils/ReentrancyGuard.sol\":2509:2527  _status = _ENTERED */\n      sstore\n        /* \"Ethereum/Presale.sol\":3612:3620  status() */\n      tag_188\n        /* \"Ethereum/Presale.sol\":3612:3618  status */\n      tag_35\n        /* \"Ethereum/Presale.sol\":3612:3620  status() */\n      jump\t// in\n    tag_188:\n        /* \"Ethereum/Presale.sol\":3624:3625  1 */\n      0x01\n        /* \"Ethereum/Presale.sol\":3612:3625  status() == 1 */\n      eq\n        /* \"Ethereum/Presale.sol\":3604:3640  require(status() == 1, \"Not active\") */\n      tag_189\n      jumpi\n      mload(0x40)\n      shl(0xe5, 0x461bcd)\n      dup2\n      mstore\n        /* \"#utility.yul\":6390:6392   */\n      0x20\n        /* \"Ethereum/Presale.sol\":3604:3640  require(status() == 1, \"Not active\") */\n      0x04\n      dup3\n      add\n        /* \"#utility.yul\":6372:6393   */\n      mstore\n        /* \"#utility.yul\":6429:6431   */\n      0x0a\n        /* \"#utility.yul\":6409:6427   */\n      0x24\n      dup3\n      add\n        /* \"#utility.yul\":6402:6432   */\n      mstore\n      shl(0xb0, 0x4e6f7420616374697665)\n        /* \"#utility.yul\":6448:6466   */\n      0x44\n      dup3\n      add\n        /* \"#utility.yul\":6441:6481   */\n      mstore\n        /* \"#utility.yul\":6498:6516   */\n      0x64\n      add\n        /* \"Ethereum/Presale.sol\":3604:3640  require(status() == 1, \"Not active\") */\n      tag_143\n        /* \"#utility.yul\":6362:6522   */\n      jump\n        /* \"Ethereum/Presale.sol\":3604:3640  require(status() == 1, \"Not active\") */\n    tag_189:\n        /* \"Ethereum/Presale.sol\":3697:3707  msg.sender */\n      caller\n        /* \"Ethereum/Presale.sol\":3661:3684  BuyerInfo storage buyer */\n      0x00\n        /* \"Ethereum/Presale.sol\":3687:3708  buyerInfo[msg.sender] */\n      swap1\n      dup2\n      mstore\n        /* \"Ethereum/Presale.sol\":3687:3696  buyerInfo */\n      0x02\n        /* \"Ethereum/Presale.sol\":3687:3708  buyerInfo[msg.sender] */\n      0x20\n      mstore\n      0x40\n      dup2\n      keccak256\n        /* \"Ethereum/Presale.sol\":3893:3919  saleInfor.minSpendPerBuyer */\n      sload(0x11)\n        /* \"Ethereum/Presale.sol\":3687:3708  buyerInfo[msg.sender] */\n      swap1\n      swap2\n        /* \"Ethereum/Presale.sol\":3739:3746  _amount */\n      dup4\n      swap2\n      dup3\n      swap2\n        /* \"Ethereum/Presale.sol\":3661:3684  BuyerInfo storage buyer */\n      swap1\n        /* \"Ethereum/Presale.sol\":3852:3856  1000 */\n      0x03e8\n      swap1\n        /* \"Ethereum/Presale.sol\":3875:3919  real_amount_in >= saleInfor.minSpendPerBuyer */\n      dup4\n      lt\n      iszero\n        /* \"Ethereum/Presale.sol\":3867:3968  require(real_amount_in >= saleInfor.minSpendPerBuyer, \r... */\n      tag_192\n      jumpi\n      mload(0x40)\n      shl(0xe5, 0x461bcd)\n      dup2\n      mstore\n        /* \"#utility.yul\":6729:6731   */\n      0x20\n        /* \"Ethereum/Presale.sol\":3867:3968  require(real_amount_in >= saleInfor.minSpendPerBuyer, \r... */\n      0x04\n      dup3\n      add\n        /* \"#utility.yul\":6711:6732   */\n      mstore\n        /* \"#utility.yul\":6768:6770   */\n      0x10\n        /* \"#utility.yul\":6748:6766   */\n      0x24\n      dup3\n      add\n        /* \"#utility.yul\":6741:6771   */\n      mstore\n      shl(0x80, 0x4e6f7420656e6f7567682076616c7565)\n        /* \"#utility.yul\":6787:6805   */\n      0x44\n      dup3\n      add\n        /* \"#utility.yul\":6780:6826   */\n      mstore\n        /* \"#utility.yul\":6843:6861   */\n      0x64\n      add\n        /* \"Ethereum/Presale.sol\":3867:3968  require(real_amount_in >= saleInfor.minSpendPerBuyer, \r... */\n      tag_143\n        /* \"#utility.yul\":6701:6867   */\n      jump\n        /* \"Ethereum/Presale.sol\":3867:3968  require(real_amount_in >= saleInfor.minSpendPerBuyer, \r... */\n    tag_192:\n        /* \"Ethereum/Presale.sol\":4005:4031  saleInfor.maxSpendPerBuyer */\n      sload(0x12)\n        /* \"Ethereum/Presale.sol\":3987:4031  real_amount_in <= saleInfor.maxSpendPerBuyer */\n      dup4\n      gt\n      iszero\n        /* \"Ethereum/Presale.sol\":3979:4078  require(real_amount_in <= saleInfor.maxSpendPerBuyer, \r... */\n      tag_195\n      jumpi\n      mload(0x40)\n      shl(0xe5, 0x461bcd)\n      dup2\n      mstore\n        /* \"#utility.yul\":6047:6049   */\n      0x20\n        /* \"Ethereum/Presale.sol\":3979:4078  require(real_amount_in <= saleInfor.maxSpendPerBuyer, \r... */\n      0x04\n      dup3\n      add\n        /* \"#utility.yul\":6029:6050   */\n      mstore\n        /* \"#utility.yul\":6086:6088   */\n      0x0e\n        /* \"#utility.yul\":6066:6084   */\n      0x24\n      dup3\n      add\n        /* \"#utility.yul\":6059:6089   */\n      mstore\n      shl(0x90, 0x4f766572666c6f772076616c7565)\n        /* \"#utility.yul\":6105:6123   */\n      0x44\n      dup3\n      add\n        /* \"#utility.yul\":6098:6142   */\n      mstore\n        /* \"#utility.yul\":6159:6177   */\n      0x64\n      add\n        /* \"Ethereum/Presale.sol\":3979:4078  require(real_amount_in <= saleInfor.maxSpendPerBuyer, \r... */\n      tag_143\n        /* \"#utility.yul\":6019:6183   */\n      jump\n        /* \"Ethereum/Presale.sol\":3979:4078  require(real_amount_in <= saleInfor.maxSpendPerBuyer, \r... */\n    tag_195:\n        /* \"Ethereum/Presale.sol\":4093:4112  checkAdminAddress() */\n      tag_198\n        /* \"Ethereum/Presale.sol\":4093:4110  checkAdminAddress */\n      tag_84\n        /* \"Ethereum/Presale.sol\":4093:4112  checkAdminAddress() */\n      jump\t// in\n    tag_198:\n        /* \"Ethereum/Presale.sol\":4089:4355  if(!checkAdminAddress()) {\r... */\n      tag_199\n      jumpi\n        /* \"Ethereum/Presale.sol\":4146:4279  ((fullPercenFee.sub(feeAnyone))\r... */\n      tag_200\n        /* \"Ethereum/Presale.sol\":4265:4278  fullPercenFee */\n      dup2\n        /* \"Ethereum/Presale.sol\":4147:4228  (fullPercenFee.sub(feeAnyone))\r... */\n      tag_169\n        /* \"Ethereum/Presale.sol\":4213:4227  real_amount_in */\n      dup6\n        /* \"Ethereum/Presale.sol\":4148:4176  fullPercenFee.sub(feeAnyone) */\n      tag_202\n        /* \"Ethereum/Presale.sol\":4166:4175  feeAnyone */\n      sload(0x18)\n        /* \"Ethereum/Presale.sol\":4148:4161  fullPercenFee */\n      dup7\n        /* \"Ethereum/Presale.sol\":4148:4165  fullPercenFee.sub */\n      tag_203\n      swap1\n        /* \"Ethereum/Presale.sol\":4148:4176  fullPercenFee.sub(feeAnyone) */\n      swap2\n      swap1\n      0xffffffff\n      and\n      jump\t// in\n    tag_202:\n        /* \"Ethereum/Presale.sol\":4147:4212  (fullPercenFee.sub(feeAnyone))\r... */\n      swap1\n      tag_137\n        /* \"Ethereum/Presale.sol\":4147:4228  (fullPercenFee.sub(feeAnyone))\r... */\n      jump\t// in\n        /* \"Ethereum/Presale.sol\":4146:4279  ((fullPercenFee.sub(feeAnyone))\r... */\n    tag_200:\n        /* \"Ethereum/Presale.sol\":4129:4279  real_amount_in = ((fullPercenFee.sub(feeAnyone))\r... */\n      swap3\n      pop\n        /* \"Ethereum/Presale.sol\":4300:4326  amount_in - real_amount_in */\n      tag_204\n        /* \"Ethereum/Presale.sol\":4129:4279  real_amount_in = ((fullPercenFee.sub(feeAnyone))\r... */\n      dup4\n        /* \"Ethereum/Presale.sol\":4300:4309  amount_in */\n      dup6\n        /* \"Ethereum/Presale.sol\":4300:4326  amount_in - real_amount_in */\n      tag_110\n      jump\t// in\n    tag_204:\n        /* \"Ethereum/Presale.sol\":4294:4326  fee = amount_in - real_amount_in */\n      swap2\n      pop\n        /* \"Ethereum/Presale.sol\":4089:4355  if(!checkAdminAddress()) {\r... */\n    tag_199:\n        /* \"Ethereum/Presale.sol\":4414:4427  presaleStatus */\n      0x04\n        /* \"Ethereum/Presale.sol\":4414:4446  presaleStatus.totalBaseCollected */\n      sload\n        /* \"Ethereum/Presale.sol\":4385:4411  saleInfor.maxSpendPerBuyer */\n      sload(0x12)\n        /* \"Ethereum/Presale.sol\":4365:4382  uint256 remaining */\n      0x00\n      swap2\n        /* \"Ethereum/Presale.sol\":4385:4446  saleInfor.maxSpendPerBuyer - presaleStatus.totalBaseCollected */\n      tag_205\n      swap2\n      tag_110\n      jump\t// in\n    tag_205:\n        /* \"Ethereum/Presale.sol\":4365:4446  uint256 remaining = saleInfor.maxSpendPerBuyer - presaleStatus.totalBaseCollected */\n      swap1\n      pop\n        /* \"Ethereum/Presale.sol\":4477:4478  0 */\n      0x00\n        /* \"Ethereum/Presale.sol\":4465:4474  remaining */\n      dup2\n        /* \"Ethereum/Presale.sol\":4465:4478  remaining > 0 */\n      gt\n        /* \"Ethereum/Presale.sol\":4457:4498  require(remaining > 0, \"Sale is Success\") */\n      tag_206\n      jumpi\n      mload(0x40)\n      shl(0xe5, 0x461bcd)\n      dup2\n      mstore\n        /* \"#utility.yul\":7074:7076   */\n      0x20\n        /* \"Ethereum/Presale.sol\":4457:4498  require(remaining > 0, \"Sale is Success\") */\n      0x04\n      dup3\n      add\n        /* \"#utility.yul\":7056:7077   */\n      mstore\n        /* \"#utility.yul\":7113:7115   */\n      0x0f\n        /* \"#utility.yul\":7093:7111   */\n      0x24\n      dup3\n      add\n        /* \"#utility.yul\":7086:7116   */\n      mstore\n      shl(0x88, 0x53616c652069732053756363657373)\n        /* \"#utility.yul\":7132:7150   */\n      0x44\n      dup3\n      add\n        /* \"#utility.yul\":7125:7170   */\n      mstore\n        /* \"#utility.yul\":7187:7205   */\n      0x64\n      add\n        /* \"Ethereum/Presale.sol\":4457:4498  require(remaining > 0, \"Sale is Success\") */\n      tag_143\n        /* \"#utility.yul\":7046:7211   */\n      jump\n        /* \"Ethereum/Presale.sol\":4457:4498  require(remaining > 0, \"Sale is Success\") */\n    tag_206:\n        /* \"Ethereum/Presale.sol\":4509:4526  uint256 tokenSold */\n      0x00\n        /* \"Ethereum/Presale.sol\":4530:4688  real_amount_in.\r... */\n      tag_209\n        /* \"Ethereum/Presale.sol\":4655:4664  saleInfor */\n      0x0b\n        /* \"Ethereum/Presale.sol\":4655:4674  saleInfor.baseToken */\n      0x02\n      add\n      0x00\n      swap1\n      sload\n      swap1\n      0x0100\n      exp\n      swap1\n      div\n      sub(shl(0xa0, 0x01), 0x01)\n      and\n      sub(shl(0xa0, 0x01), 0x01)\n        /* \"Ethereum/Presale.sol\":4649:4684  ERC20(saleInfor.baseToken).decimals */\n      and\n      0x313ce567\n        /* \"Ethereum/Presale.sol\":4649:4686  ERC20(saleInfor.baseToken).decimals() */\n      mload(0x40)\n      dup2\n      0xffffffff\n      and\n      0xe0\n      shl\n      dup2\n      mstore\n      0x04\n      add\n      0x20\n      mload(0x40)\n      dup1\n      dup4\n      sub\n      dup2\n      dup7\n      dup1\n      extcodesize\n      iszero\n      dup1\n      iszero\n      tag_210\n      jumpi\n      0x00\n      dup1\n      revert\n    tag_210:\n      pop\n      gas\n      staticcall\n      iszero\n      dup1\n      iszero\n      tag_212\n      jumpi\n      returndatasize\n      0x00\n      dup1\n      returndatacopy\n      revert(0x00, returndatasize)\n    tag_212:\n      pop\n      pop\n      pop\n      pop\n      mload(0x40)\n      returndatasize\n      not(0x1f)\n      0x1f\n      dup3\n      add\n      and\n      dup3\n      add\n      dup1\n      0x40\n      mstore\n      pop\n      dup2\n      add\n      swap1\n      tag_213\n      swap2\n      swap1\n      tag_118\n      jump\t// in\n    tag_213:\n        /* \"Ethereum/Presale.sol\":4635:4687  10 ** uint256(ERC20(saleInfor.baseToken).decimals()) */\n      tag_214\n      swap1\n        /* \"Ethereum/Presale.sol\":4635:4637  10 */\n      0x0a\n        /* \"Ethereum/Presale.sol\":4635:4687  10 ** uint256(ERC20(saleInfor.baseToken).decimals()) */\n      tag_120\n      jump\t// in\n    tag_214:\n        /* \"Ethereum/Presale.sol\":4579:4599  saleInfor.tokenPrice */\n      sload(0x0e)\n        /* \"Ethereum/Presale.sol\":4530:4600  real_amount_in.\r... */\n      tag_169\n      swap1\n        /* \"Ethereum/Presale.sol\":4530:4544  real_amount_in */\n      dup9\n      swap1\n        /* \"Ethereum/Presale.sol\":4530:4578  real_amount_in.\r... */\n      tag_137\n        /* \"Ethereum/Presale.sol\":4530:4600  real_amount_in.\r... */\n      jump\t// in\n        /* \"Ethereum/Presale.sol\":4530:4688  real_amount_in.\r... */\n    tag_209:\n        /* \"Ethereum/Presale.sol\":4509:4689  uint256 tokenSold = (real_amount_in.\r... */\n      swap1\n      pop\n        /* \"Ethereum/Presale.sol\":4721:4730  amount_in */\n      dup6\n        /* \"Ethereum/Presale.sol\":4700:4705  buyer */\n      dup8\n        /* \"Ethereum/Presale.sol\":4700:4717  buyer.baseDeposit */\n      0x00\n      add\n      0x00\n        /* \"Ethereum/Presale.sol\":4700:4730  buyer.baseDeposit += amount_in */\n      dup3\n      dup3\n      sload\n      tag_216\n      swap2\n      swap1\n      tag_217\n      jump\t// in\n    tag_216:\n      swap3\n      pop\n      pop\n      dup2\n      swap1\n      sstore\n      pop\n        /* \"Ethereum/Presale.sol\":4761:4770  tokenSold */\n      dup1\n        /* \"Ethereum/Presale.sol\":4741:4746  buyer */\n      dup8\n        /* \"Ethereum/Presale.sol\":4741:4757  buyer.tokenOwner */\n      0x01\n      add\n      0x00\n        /* \"Ethereum/Presale.sol\":4741:4770  buyer.tokenOwner += tokenSold */\n      dup3\n      dup3\n      sload\n      tag_218\n      swap2\n      swap1\n      tag_217\n      jump\t// in\n    tag_218:\n      swap1\n      swap2\n      sstore\n      pop\n      pop\n        /* \"Ethereum/Presale.sol\":4781:4794  presaleStatus */\n      0x04\n        /* \"Ethereum/Presale.sol\":4781:4831  presaleStatus.totalBaseCollected += real_amount_in */\n      dup1\n      sload\n        /* \"Ethereum/Presale.sol\":4817:4831  real_amount_in */\n      dup7\n      swap2\n        /* \"Ethereum/Presale.sol\":4781:4794  presaleStatus */\n      swap1\n        /* \"Ethereum/Presale.sol\":4781:4813  presaleStatus.totalBaseCollected */\n      0x00\n      swap1\n        /* \"Ethereum/Presale.sol\":4781:4831  presaleStatus.totalBaseCollected += real_amount_in */\n      tag_219\n      swap1\n        /* \"Ethereum/Presale.sol\":4817:4831  real_amount_in */\n      dup5\n      swap1\n        /* \"Ethereum/Presale.sol\":4781:4831  presaleStatus.totalBaseCollected += real_amount_in */\n      tag_217\n      jump\t// in\n    tag_219:\n      swap1\n      swap2\n      sstore\n      pop\n      pop\n        /* \"Ethereum/Presale.sol\":4842:4870  presaleStatus.totalTokenSold */\n      0x05\n        /* \"Ethereum/Presale.sol\":4842:4883  presaleStatus.totalTokenSold += tokenSold */\n      dup1\n      sload\n        /* \"Ethereum/Presale.sol\":4874:4883  tokenSold */\n      dup3\n      swap2\n        /* \"Ethereum/Presale.sol\":4842:4870  presaleStatus.totalTokenSold */\n      swap1\n      0x00\n      swap1\n        /* \"Ethereum/Presale.sol\":4842:4883  presaleStatus.totalTokenSold += tokenSold */\n      tag_220\n      swap1\n        /* \"Ethereum/Presale.sol\":4874:4883  tokenSold */\n      dup5\n      swap1\n        /* \"Ethereum/Presale.sol\":4842:4883  presaleStatus.totalTokenSold += tokenSold */\n      tag_217\n      jump\t// in\n    tag_220:\n      swap1\n      swap2\n      sstore\n      pop\n      pop\n        /* \"Ethereum/Presale.sol\":4894:4919  presaleStatus.numberBuyer */\n      0x08\n        /* \"Ethereum/Presale.sol\":4894:4921  presaleStatus.numberBuyer++ */\n      dup1\n      sload\n      swap1\n        /* \"Ethereum/Presale.sol\":4894:4919  presaleStatus.numberBuyer */\n      0x00\n        /* \"Ethereum/Presale.sol\":4894:4921  presaleStatus.numberBuyer++ */\n      tag_221\n      dup4\n      tag_222\n      jump\t// in\n    tag_221:\n      swap1\n      swap2\n      sstore\n      pop\n      pop\n        /* \"Ethereum/Presale.sol\":4940:4950  msg.sender */\n      caller\n        /* \"Ethereum/Presale.sol\":4932:4951  userFee[msg.sender] */\n      0x00\n      swap1\n      dup2\n      mstore\n        /* \"Ethereum/Presale.sol\":4932:4939  userFee */\n      0x03\n        /* \"Ethereum/Presale.sol\":4932:4951  userFee[msg.sender] */\n      0x20\n      mstore\n      0x40\n      dup2\n      keccak256\n        /* \"Ethereum/Presale.sol\":4932:4958  userFee[msg.sender] += fee */\n      dup1\n      sload\n        /* \"Ethereum/Presale.sol\":4955:4958  fee */\n      dup7\n      swap3\n        /* \"Ethereum/Presale.sol\":4932:4951  userFee[msg.sender] */\n      swap1\n        /* \"Ethereum/Presale.sol\":4932:4958  userFee[msg.sender] += fee */\n      tag_223\n      swap1\n        /* \"Ethereum/Presale.sol\":4955:4958  fee */\n      dup5\n      swap1\n        /* \"Ethereum/Presale.sol\":4932:4958  userFee[msg.sender] += fee */\n      tag_217\n      jump\t// in\n    tag_223:\n      swap3\n      pop\n      pop\n      dup2\n      swap1\n      sstore\n      pop\n        /* \"Ethereum/Presale.sol\":4981:4984  fee */\n      dup4\n        /* \"Ethereum/Presale.sol\":4969:4977  totalFee */\n      0x1b\n      0x00\n        /* \"Ethereum/Presale.sol\":4969:4984  totalFee += fee */\n      dup3\n      dup3\n      sload\n      tag_224\n      swap2\n      swap1\n      tag_217\n      jump\t// in\n    tag_224:\n      swap1\n      swap2\n      sstore\n      pop\n      pop\n        /* \"Ethereum/Presale.sol\":5000:5025  saleInfor.saleIsBaseToken */\n      and(0xff, sload(0x15))\n        /* \"Ethereum/Presale.sol\":5000:5061  saleInfor.saleIsBaseToken && real_amount_in + fee < msg.value */\n      dup1\n      iszero\n      tag_225\n      jumpi\n      pop\n        /* \"Ethereum/Presale.sol\":5052:5061  msg.value */\n      callvalue\n        /* \"Ethereum/Presale.sol\":5029:5049  real_amount_in + fee */\n      tag_226\n        /* \"Ethereum/Presale.sol\":5046:5049  fee */\n      dup6\n        /* \"Ethereum/Presale.sol\":5029:5043  real_amount_in */\n      dup8\n        /* \"Ethereum/Presale.sol\":5029:5049  real_amount_in + fee */\n      tag_217\n      jump\t// in\n    tag_226:\n        /* \"Ethereum/Presale.sol\":5029:5061  real_amount_in + fee < msg.value */\n      lt\n        /* \"Ethereum/Presale.sol\":5000:5061  saleInfor.saleIsBaseToken && real_amount_in + fee < msg.value */\n    tag_225:\n        /* \"Ethereum/Presale.sol\":4997:5152  if(saleInfor.saleIsBaseToken && real_amount_in + fee < msg.value) {\r... */\n      iszero\n      tag_227\n      jumpi\n        /* \"Ethereum/Presale.sol\":5086:5096  msg.sender */\n      caller\n        /* \"Ethereum/Presale.sol\":5078:5140  payable(msg.sender).transfer(msg.value - real_amount_in - fee) */\n      0x08fc\n        /* \"Ethereum/Presale.sol\":5136:5139  fee */\n      dup6\n        /* \"Ethereum/Presale.sol\":5107:5133  msg.value - real_amount_in */\n      tag_228\n        /* \"Ethereum/Presale.sol\":5119:5133  real_amount_in */\n      dup9\n        /* \"Ethereum/Presale.sol\":5107:5116  msg.value */\n      callvalue\n        /* \"Ethereum/Presale.sol\":5107:5133  msg.value - real_amount_in */\n      tag_110\n      jump\t// in\n    tag_228:\n        /* \"Ethereum/Presale.sol\":5107:5139  msg.value - real_amount_in - fee */\n      tag_229\n      swap2\n      swap1\n      tag_110\n      jump\t// in\n    tag_229:\n        /* \"Ethereum/Presale.sol\":5078:5140  payable(msg.sender).transfer(msg.value - real_amount_in - fee) */\n      mload(0x40)\n      dup2\n      iszero\n      swap1\n      swap3\n      mul\n      swap2\n      0x00\n      dup2\n      dup2\n      dup2\n      dup6\n      dup9\n      dup9\n      call\n      swap4\n      pop\n      pop\n      pop\n      pop\n      iszero\n      dup1\n      iszero\n      tag_231\n      jumpi\n      returndatasize\n      0x00\n      dup1\n      returndatacopy\n      revert(0x00, returndatasize)\n    tag_231:\n      pop\n        /* \"Ethereum/Presale.sol\":4997:5152  if(saleInfor.saleIsBaseToken && real_amount_in + fee < msg.value) {\r... */\n    tag_227:\n        /* \"Ethereum/Presale.sol\":5167:5192  saleInfor.saleIsBaseToken */\n      and(0xff, sload(0x15))\n        /* \"Ethereum/Presale.sol\":5163:5414  if(!saleInfor.saleIsBaseToken) {\r... */\n      tag_233\n      jumpi\n        /* \"Ethereum/Presale.sol\":5267:5286  saleInfor.baseToken */\n      sload(0x0d)\n        /* \"Ethereum/Presale.sol\":5209:5402  TransferHelper.safeTransferFrom(\r... */\n      tag_233\n      swap1\n      sub(shl(0xa0, 0x01), 0x01)\n        /* \"Ethereum/Presale.sol\":5267:5286  saleInfor.baseToken */\n      and\n        /* \"Ethereum/Presale.sol\":5306:5316  msg.sender */\n      caller\n        /* \"Ethereum/Presale.sol\":5343:5347  this */\n      address\n        /* \"Ethereum/Presale.sol\":5367:5387  real_amount_in + fee */\n      tag_234\n        /* \"Ethereum/Presale.sol\":5384:5387  fee */\n      dup9\n        /* \"Ethereum/Presale.sol\":5367:5381  real_amount_in */\n      dup11\n        /* \"Ethereum/Presale.sol\":5367:5387  real_amount_in + fee */\n      tag_217\n      jump\t// in\n    tag_234:\n        /* \"Ethereum/Presale.sol\":5209:5240  TransferHelper.safeTransferFrom */\n      tag_235\n        /* \"Ethereum/Presale.sol\":5209:5402  TransferHelper.safeTransferFrom(\r... */\n      jump\t// in\n    tag_233:\n      pop\n      pop\n        /* \"Utils/ReentrancyGuard.sol\":1734:1735  1 */\n      0x01\n        /* \"Utils/ReentrancyGuard.sol\":2688:2695  _status */\n      0x00\n        /* \"Utils/ReentrancyGuard.sol\":2688:2710  _status = _NOT_ENTERED */\n      sstore\n      pop\n      pop\n      pop\n      pop\n      pop\n      pop\n        /* \"Ethereum/Presale.sol\":3529:5433  function deposit(uint256 _amount) external payable nonReentrant {\r... */\n      jump\t// out\n        /* \"Ethereum/Presale.sol\":3411:3521  function checkAdminAddress() public view returns(bool) {\r... */\n    tag_84:\n        /* \"Ethereum/Presale.sol\":3460:3464  bool */\n      0x00\n        /* \"Ethereum/Presale.sol\":3484:3513  admins.contains(_msgSender()) */\n      tag_237\n        /* \"Ethereum/Presale.sol\":3484:3490  admins */\n      0x19\n        /* \"Utils/Context.sol\":736:746  msg.sender */\n      caller\n        /* \"Ethereum/Presale.sol\":3484:3499  admins.contains */\n      tag_239\n        /* \"Ethereum/Presale.sol\":3484:3513  admins.contains(_msgSender()) */\n      jump\t// in\n    tag_237:\n        /* \"Ethereum/Presale.sol\":3477:3513  return admins.contains(_msgSender()) */\n      swap1\n      pop\n        /* \"Ethereum/Presale.sol\":3411:3521  function checkAdminAddress() public view returns(bool) {\r... */\n      swap1\n      jump\t// out\n        /* \"Utils/Ownable.sol\":1972:2173  function transferOwnership(address newOwner) public virtual onlyOwner {\r... */\n    tag_96:\n        /* \"Utils/Ownable.sol\":1136:1142  _owner */\n      and(sub(shl(0xa0, 0x01), 0x01), sload(0x01))\n        /* \"Utils/Context.sol\":736:746  msg.sender */\n      caller\n        /* \"Utils/Ownable.sol\":1283:1306  owner() == _msgSender() */\n      eq\n        /* \"Utils/Ownable.sol\":1275:1343  require(owner() == _msgSender(), \"Ownable: caller is not the owner\") */\n      tag_243\n      jumpi\n      mload(0x40)\n      shl(0xe5, 0x461bcd)\n      dup2\n      mstore\n        /* \"#utility.yul\":7759:7761   */\n      0x20\n        /* \"Utils/Ownable.sol\":1275:1343  require(owner() == _msgSender(), \"Ownable: caller is not the owner\") */\n      0x04\n      dup3\n      add\n        /* \"#utility.yul\":7741:7762   */\n      dup2\n      swap1\n      mstore\n        /* \"#utility.yul\":7778:7796   */\n      0x24\n      dup3\n      add\n        /* \"#utility.yul\":7771:7801   */\n      mstore\n        /* \"#utility.yul\":7837:7871   */\n      0x4f776e61626c653a2063616c6c6572206973206e6f7420746865206f776e6572\n        /* \"#utility.yul\":7817:7835   */\n      0x44\n      dup3\n      add\n        /* \"#utility.yul\":7810:7872   */\n      mstore\n        /* \"#utility.yul\":7889:7907   */\n      0x64\n      add\n        /* \"Utils/Ownable.sol\":1275:1343  require(owner() == _msgSender(), \"Ownable: caller is not the owner\") */\n      tag_143\n        /* \"#utility.yul\":7731:7913   */\n      jump\n        /* \"Utils/Ownable.sol\":1275:1343  require(owner() == _msgSender(), \"Ownable: caller is not the owner\") */\n    tag_243:\n      sub(shl(0xa0, 0x01), 0x01)\n        /* \"Utils/Ownable.sol\":2061:2083  newOwner != address(0) */\n      dup2\n      and\n        /* \"Utils/Ownable.sol\":2053:2126  require(newOwner != address(0), \"Ownable: new owner is the zero address\") */\n      tag_246\n      jumpi\n      mload(0x40)\n      shl(0xe5, 0x461bcd)\n      dup2\n      mstore\n        /* \"#utility.yul\":5640:5642   */\n      0x20\n        /* \"Utils/Ownable.sol\":2053:2126  require(newOwner != address(0), \"Ownable: new owner is the zero address\") */\n      0x04\n      dup3\n      add\n        /* \"#utility.yul\":5622:5643   */\n      mstore\n        /* \"#utility.yul\":5679:5681   */\n      0x26\n        /* \"#utility.yul\":5659:5677   */\n      0x24\n      dup3\n      add\n        /* \"#utility.yul\":5652:5682   */\n      mstore\n        /* \"#utility.yul\":5718:5752   */\n      0x4f776e61626c653a206e6577206f776e657220697320746865207a65726f2061\n        /* \"#utility.yul\":5698:5716   */\n      0x44\n      dup3\n      add\n        /* \"#utility.yul\":5691:5753   */\n      mstore\n      shl(0xd0, 0x646472657373)\n        /* \"#utility.yul\":5769:5787   */\n      0x64\n      dup3\n      add\n        /* \"#utility.yul\":5762:5798   */\n      mstore\n        /* \"#utility.yul\":5815:5834   */\n      0x84\n      add\n        /* \"Utils/Ownable.sol\":2053:2126  require(newOwner != address(0), \"Ownable: new owner is the zero address\") */\n      tag_143\n        /* \"#utility.yul\":5612:5840   */\n      jump\n        /* \"Utils/Ownable.sol\":2053:2126  require(newOwner != address(0), \"Ownable: new owner is the zero address\") */\n    tag_246:\n        /* \"Utils/Ownable.sol\":2137:2165  _transferOwnership(newOwner) */\n      tag_150\n        /* \"Utils/Ownable.sol\":2156:2164  newOwner */\n      dup2\n        /* \"Utils/Ownable.sol\":2137:2155  _transferOwnership */\n      tag_147\n        /* \"Utils/Ownable.sol\":2137:2165  _transferOwnership(newOwner) */\n      jump\t// in\n        /* \"Utils/EnumerableSet.sol\":8259:8411  function add(AddressSet storage set, address value) internal returns (bool) {\r... */\n    tag_102:\n        /* \"Utils/EnumerableSet.sol\":8329:8333  bool */\n      0x00\n        /* \"Utils/EnumerableSet.sol\":8353:8403  _add(set._inner, bytes32(uint256(uint160(value)))) */\n      tag_252\n        /* \"Utils/EnumerableSet.sol\":8358:8361  set */\n      dup4\n      sub(shl(0xa0, 0x01), 0x01)\n        /* \"Utils/EnumerableSet.sol\":8378:8401  uint256(uint160(value)) */\n      dup5\n      and\n        /* \"Utils/EnumerableSet.sol\":8353:8357  _add */\n      tag_253\n        /* \"Utils/EnumerableSet.sol\":8353:8403  _add(set._inner, bytes32(uint256(uint160(value)))) */\n      jump\t// in\n    tag_252:\n        /* \"Utils/EnumerableSet.sol\":8346:8403  return _add(set._inner, bytes32(uint256(uint160(value)))) */\n      swap1\n      pop\n        /* \"Utils/EnumerableSet.sol\":8259:8411  function add(AddressSet storage set, address value) internal returns (bool) {\r... */\n    tag_251:\n      swap3\n      swap2\n      pop\n      pop\n      jump\t// out\n        /* \"Utils/SafeMath.sol\":3585:3683  function mul(uint256 a, uint256 b) internal pure returns (uint256) {\r... */\n    tag_137:\n        /* \"Utils/SafeMath.sol\":3643:3650  uint256 */\n      0x00\n        /* \"Utils/SafeMath.sol\":3670:3675  a * b */\n      tag_252\n        /* \"Utils/SafeMath.sol\":3674:3675  b */\n      dup3\n        /* \"Utils/SafeMath.sol\":3670:3671  a */\n      dup5\n        /* \"Utils/SafeMath.sol\":3670:3675  a * b */\n      tag_123\n      jump\t// in\n        /* \"Utils/Ownable.sol\":2333:2524  function _transferOwnership(address newOwner) internal virtual {\r... */\n    tag_147:\n        /* \"Utils/Ownable.sol\":2426:2432  _owner */\n      0x01\n      dup1\n      sload\n      sub(shl(0xa0, 0x01), 0x01)\n        /* \"Utils/Ownable.sol\":2443:2460  _owner = newOwner */\n      dup4\n      dup2\n      and\n      not(sub(shl(0xa0, 0x01), 0x01))\n      dup4\n      and\n      dup2\n      or\n      swap1\n      swap4\n      sstore\n        /* \"Utils/Ownable.sol\":2476:2516  OwnershipTransferred(oldOwner, newOwner) */\n      mload(0x40)\n        /* \"Utils/Ownable.sol\":2426:2432  _owner */\n      swap2\n      and\n      swap2\n        /* \"Utils/Ownable.sol\":2443:2460  _owner = newOwner */\n      swap1\n        /* \"Utils/Ownable.sol\":2426:2432  _owner */\n      dup3\n      swap1\n        /* \"Utils/Ownable.sol\":2476:2516  OwnershipTransferred(oldOwner, newOwner) */\n      0x8be0079c531659141344cd1fd0a4f28419497f9722a3daafe3b4186f6b6457e0\n      swap1\n        /* \"Utils/Ownable.sol\":2407:2423  address oldOwner */\n      0x00\n      swap1\n        /* \"Utils/Ownable.sol\":2476:2516  OwnershipTransferred(oldOwner, newOwner) */\n      log3\n        /* \"Utils/Ownable.sol\":2333:2524  function _transferOwnership(address newOwner) internal virtual {\r... */\n      pop\n      pop\n      jump\t// out\n        /* \"Utils/SafeMath.sol\":3984:4082  function div(uint256 a, uint256 b) internal pure returns (uint256) {\r... */\n    tag_170:\n        /* \"Utils/SafeMath.sol\":4042:4049  uint256 */\n      0x00\n        /* \"Utils/SafeMath.sol\":4069:4074  a / b */\n      tag_252\n        /* \"Utils/SafeMath.sol\":4073:4074  b */\n      dup3\n        /* \"Utils/SafeMath.sol\":4069:4070  a */\n      dup5\n        /* \"Utils/SafeMath.sol\":4069:4074  a / b */\n      tag_260\n      jump\t// in\n        /* \"Utils/SafeMath.sol\":3228:3326  function sub(uint256 a, uint256 b) internal pure returns (uint256) {\r... */\n    tag_203:\n        /* \"Utils/SafeMath.sol\":3286:3293  uint256 */\n      0x00\n        /* \"Utils/SafeMath.sol\":3313:3318  a - b */\n      tag_252\n        /* \"Utils/SafeMath.sol\":3317:3318  b */\n      dup3\n        /* \"Utils/SafeMath.sol\":3313:3314  a */\n      dup5\n        /* \"Utils/SafeMath.sol\":3313:3318  a - b */\n      tag_110\n      jump\t// in\n        /* \"Utils/TransferHelper.sol\":1073:1503  function safeTransferFrom(\r... */\n    tag_235:\n        /* \"Utils/TransferHelper.sol\":1279:1330  abi.encodeWithSelector(0x23b872dd, from, to, value) */\n      0x40\n      dup1\n      mload\n      sub(shl(0xa0, 0x01), 0x01)\n        /* \"#utility.yul\":4267:4282   */\n      dup6\n      dup2\n      and\n        /* \"Utils/TransferHelper.sol\":1279:1330  abi.encodeWithSelector(0x23b872dd, from, to, value) */\n      0x24\n      dup4\n      add\n        /* \"#utility.yul\":4249:4283   */\n      mstore\n        /* \"#utility.yul\":4319:4334   */\n      dup5\n      dup2\n      and\n        /* \"#utility.yul\":4299:4317   */\n      0x44\n      dup4\n      add\n        /* \"#utility.yul\":4292:4335   */\n      mstore\n        /* \"#utility.yul\":4351:4369   */\n      0x64\n      dup1\n      dup4\n      add\n        /* \"#utility.yul\":4344:4378   */\n      dup6\n      swap1\n      mstore\n        /* \"Utils/TransferHelper.sol\":1279:1330  abi.encodeWithSelector(0x23b872dd, from, to, value) */\n      dup4\n      mload\n      dup1\n      dup5\n      sub\n      swap1\n      swap2\n      add\n      dup2\n      mstore\n        /* \"#utility.yul\":4184:4202   */\n      0x84\n      swap1\n      swap3\n      add\n        /* \"Utils/TransferHelper.sol\":1279:1330  abi.encodeWithSelector(0x23b872dd, from, to, value) */\n      dup4\n      mstore\n      0x20\n      dup3\n      add\n      dup1\n      mload\n      sub(shl(0xe0, 0x01), 0x01)\n      and\n      shl(0xe0, 0x23b872dd)\n      or\n      swap1\n      mstore\n        /* \"Utils/TransferHelper.sol\":1254:1341  token.call(\r... */\n      swap2\n      mload\n      0x00\n      swap3\n      dup4\n      swap3\n        /* \"Utils/TransferHelper.sol\":1254:1264  token.call */\n      swap1\n      dup9\n      and\n      swap2\n        /* \"Utils/TransferHelper.sol\":1254:1341  token.call(\r... */\n      tag_266\n      swap2\n        /* \"Utils/TransferHelper.sol\":1279:1330  abi.encodeWithSelector(0x23b872dd, from, to, value) */\n      swap1\n        /* \"Utils/TransferHelper.sol\":1254:1341  token.call(\r... */\n      tag_267\n      jump\t// in\n    tag_266:\n      0x00\n      mload(0x40)\n      dup1\n      dup4\n      sub\n      dup2\n      0x00\n      dup7\n      gas\n      call\n      swap2\n      pop\n      pop\n      returndatasize\n      dup1\n      0x00\n      dup2\n      eq\n      tag_270\n      jumpi\n      mload(0x40)\n      swap2\n      pop\n      and(add(returndatasize, 0x3f), not(0x1f))\n      dup3\n      add\n      0x40\n      mstore\n      returndatasize\n      dup3\n      mstore\n      returndatasize\n      0x00\n      0x20\n      dup5\n      add\n      returndatacopy\n      jump(tag_269)\n    tag_270:\n      0x60\n      swap2\n      pop\n    tag_269:\n      pop\n        /* \"Utils/TransferHelper.sol\":1218:1341  (bool success, bytes memory data) = token.call(\r... */\n      swap2\n      pop\n      swap2\n      pop\n        /* \"Utils/TransferHelper.sol\":1374:1381  success */\n      dup2\n        /* \"Utils/TransferHelper.sol\":1374:1431  success && (data.length == 0 || abi.decode(data, (bool))) */\n      dup1\n      iszero\n      tag_273\n      jumpi\n      pop\n        /* \"Utils/TransferHelper.sol\":1386:1397  data.length */\n      dup1\n      mload\n        /* \"Utils/TransferHelper.sol\":1386:1402  data.length == 0 */\n      iszero\n      dup1\n        /* \"Utils/TransferHelper.sol\":1386:1430  data.length == 0 || abi.decode(data, (bool)) */\n      tag_273\n      jumpi\n      pop\n        /* \"Utils/TransferHelper.sol\":1417:1421  data */\n      dup1\n        /* \"Utils/TransferHelper.sol\":1406:1430  abi.decode(data, (bool)) */\n      dup1\n      0x20\n      add\n      swap1\n      mload\n      dup2\n      add\n      swap1\n      tag_273\n      swap2\n      swap1\n      tag_178\n      jump\t// in\n    tag_273:\n        /* \"Utils/TransferHelper.sol\":1352:1495  require(\r... */\n      tag_274\n      jumpi\n      mload(0x40)\n      shl(0xe5, 0x461bcd)\n      dup2\n      mstore\n        /* \"#utility.yul\":8528:8530   */\n      0x20\n        /* \"Utils/TransferHelper.sol\":1352:1495  require(\r... */\n      0x04\n      dup3\n      add\n        /* \"#utility.yul\":8510:8531   */\n      mstore\n        /* \"#utility.yul\":8567:8569   */\n      0x24\n        /* \"#utility.yul\":8547:8565   */\n      dup1\n      dup3\n      add\n        /* \"#utility.yul\":8540:8570   */\n      mstore\n        /* \"#utility.yul\":8606:8640   */\n      0x5472616e7366657248656c7065723a205452414e534645525f46524f4d5f4641\n        /* \"#utility.yul\":8586:8604   */\n      0x44\n      dup3\n      add\n        /* \"#utility.yul\":8579:8641   */\n      mstore\n      shl(0xe2, 0x12531151)\n        /* \"#utility.yul\":8657:8675   */\n      0x64\n      dup3\n      add\n        /* \"#utility.yul\":8650:8684   */\n      mstore\n        /* \"#utility.yul\":8701:8720   */\n      0x84\n      add\n        /* \"Utils/TransferHelper.sol\":1352:1495  require(\r... */\n      tag_143\n        /* \"#utility.yul\":8500:8726   */\n      jump\n        /* \"Utils/TransferHelper.sol\":1352:1495  require(\r... */\n    tag_274:\n        /* \"Utils/TransferHelper.sol\":1073:1503  function safeTransferFrom(\r... */\n      pop\n      pop\n      pop\n      pop\n      pop\n      pop\n      jump\t// out\n        /* \"Utils/EnumerableSet.sol\":8831:8998  function contains(AddressSet storage set, address value) internal view returns (bool) {\r... */\n    tag_239:\n      sub(shl(0xa0, 0x01), 0x01)\n        /* \"Utils/EnumerableSet.sol\":8965:8988  uint256(uint160(value)) */\n      dup2\n      and\n        /* \"Utils/EnumerableSet.sol\":8911:8915  bool */\n      0x00\n        /* \"Utils/EnumerableSet.sol\":4367:4386  set._indexes[value] */\n      swap1\n      dup2\n      mstore\n        /* \"Utils/EnumerableSet.sol\":4367:4379  set._indexes */\n      0x01\n      dup4\n      add\n        /* \"Utils/EnumerableSet.sol\":4367:4386  set._indexes[value] */\n      0x20\n      mstore\n      0x40\n      dup2\n      keccak256\n      sload\n        /* \"Utils/EnumerableSet.sol\":4367:4391  set._indexes[value] != 0 */\n      iszero\n      iszero\n        /* \"Utils/EnumerableSet.sol\":8935:8990  _contains(set._inner, bytes32(uint256(uint160(value)))) */\n      tag_252\n        /* \"Utils/EnumerableSet.sol\":4270:4399  function _contains(Set storage set, bytes32 value) private view returns (bool) {\r... */\n      jump\n        /* \"Utils/EnumerableSet.sol\":2174:2588  function _add(Set storage set, bytes32 value) private returns (bool) {\r... */\n    tag_253:\n        /* \"Utils/EnumerableSet.sol\":2237:2241  bool */\n      0x00\n        /* \"Utils/EnumerableSet.sol\":4367:4386  set._indexes[value] */\n      dup2\n      dup2\n      mstore\n        /* \"Utils/EnumerableSet.sol\":4367:4379  set._indexes */\n      0x01\n      dup4\n      add\n        /* \"Utils/EnumerableSet.sol\":4367:4386  set._indexes[value] */\n      0x20\n      mstore\n      0x40\n      dup2\n      keccak256\n      sload\n        /* \"Utils/EnumerableSet.sol\":2254:2581  if (!_contains(set, value)) {\r... */\n      tag_282\n      jumpi\n      pop\n        /* \"Utils/EnumerableSet.sol\":2297:2320  set._values.push(value) */\n      dup2\n      sload\n      0x01\n      dup2\n      dup2\n      add\n      dup5\n      sstore\n        /* \"Utils/EnumerableSet.sol\":2297:2308  set._values */\n      0x00\n        /* \"Utils/EnumerableSet.sol\":2297:2320  set._values.push(value) */\n      dup5\n      dup2\n      mstore\n      0x20\n      dup1\n      dup3\n      keccak256\n      swap1\n      swap4\n      add\n      dup5\n      swap1\n      sstore\n        /* \"Utils/EnumerableSet.sol\":2480:2498  set._values.length */\n      dup5\n      sload\n        /* \"Utils/EnumerableSet.sol\":2458:2477  set._indexes[value] */\n      dup5\n      dup3\n      mstore\n        /* \"Utils/EnumerableSet.sol\":2458:2470  set._indexes */\n      dup3\n      dup7\n      add\n        /* \"Utils/EnumerableSet.sol\":2458:2477  set._indexes[value] */\n      swap1\n      swap4\n      mstore\n      0x40\n      swap1\n      keccak256\n        /* \"Utils/EnumerableSet.sol\":2458:2498  set._indexes[value] = set._values.length */\n      swap2\n      swap1\n      swap2\n      sstore\n        /* \"Utils/EnumerableSet.sol\":2513:2524  return true */\n      jump(tag_251)\n        /* \"Utils/EnumerableSet.sol\":2254:2581  if (!_contains(set, value)) {\r... */\n    tag_282:\n      pop\n        /* \"Utils/EnumerableSet.sol\":2564:2569  false */\n      0x00\n        /* \"Utils/EnumerableSet.sol\":2557:2569  return false */\n      jump(tag_251)\n        /* \"#utility.yul\":14:271   */\n    tag_48:\n        /* \"#utility.yul\":73:79   */\n      0x00\n        /* \"#utility.yul\":126:128   */\n      0x20\n        /* \"#utility.yul\":114:123   */\n      dup3\n        /* \"#utility.yul\":105:112   */\n      dup5\n        /* \"#utility.yul\":101:124   */\n      sub\n        /* \"#utility.yul\":97:129   */\n      slt\n        /* \"#utility.yul\":94:96   */\n      iszero\n      tag_288\n      jumpi\n        /* \"#utility.yul\":147:153   */\n      dup1\n        /* \"#utility.yul\":139:145   */\n      dup2\n        /* \"#utility.yul\":132:154   */\n      revert\n        /* \"#utility.yul\":94:96   */\n    tag_288:\n        /* \"#utility.yul\":191:200   */\n      dup2\n        /* \"#utility.yul\":178:201   */\n      calldataload\n        /* \"#utility.yul\":210:241   */\n      tag_289\n        /* \"#utility.yul\":235:240   */\n      dup2\n        /* \"#utility.yul\":210:241   */\n      tag_290\n      jump\t// in\n    tag_289:\n        /* \"#utility.yul\":260:265   */\n      swap4\n        /* \"#utility.yul\":84:271   */\n      swap3\n      pop\n      pop\n      pop\n      jump\t// out\n        /* \"#utility.yul\":276:1572   */\n    tag_54:\n        /* \"#utility.yul\":419:425   */\n      0x00\n        /* \"#utility.yul\":427:433   */\n      dup1\n        /* \"#utility.yul\":435:441   */\n      0x00\n        /* \"#utility.yul\":443:449   */\n      dup1\n        /* \"#utility.yul\":474:477   */\n      0x0140\n        /* \"#utility.yul\":518:520   */\n      dup1\n        /* \"#utility.yul\":506:515   */\n      dup7\n        /* \"#utility.yul\":497:504   */\n      dup9\n        /* \"#utility.yul\":493:516   */\n      sub\n        /* \"#utility.yul\":489:521   */\n      slt\n        /* \"#utility.yul\":486:488   */\n      iszero\n      tag_292\n      jumpi\n        /* \"#utility.yul\":539:545   */\n      dup4\n        /* \"#utility.yul\":531:537   */\n      dup5\n        /* \"#utility.yul\":524:546   */\n      revert\n        /* \"#utility.yul\":486:488   */\n    tag_292:\n        /* \"#utility.yul\":583:592   */\n      dup6\n        /* \"#utility.yul\":570:593   */\n      calldataload\n        /* \"#utility.yul\":602:633   */\n      tag_293\n        /* \"#utility.yul\":627:632   */\n      dup2\n        /* \"#utility.yul\":602:633   */\n      tag_290\n      jump\t// in\n    tag_293:\n        /* \"#utility.yul\":652:657   */\n      swap5\n      pop\n        /* \"#utility.yul\":676:678   */\n      0x20\n        /* \"#utility.yul\":715:733   */\n      dup7\n      dup2\n      add\n        /* \"#utility.yul\":702:734   */\n      calldataload\n        /* \"#utility.yul\":743:776   */\n      tag_294\n        /* \"#utility.yul\":702:734   */\n      dup2\n        /* \"#utility.yul\":743:776   */\n      tag_290\n      jump\t// in\n    tag_294:\n        /* \"#utility.yul\":795:802   */\n      swap5\n      pop\n        /* \"#utility.yul\":854:856   */\n      0x40\n        /* \"#utility.yul\":839:857   */\n      dup8\n      add\n        /* \"#utility.yul\":826:858   */\n      calldataload\n        /* \"#utility.yul\":867:900   */\n      tag_295\n        /* \"#utility.yul\":826:858   */\n      dup2\n        /* \"#utility.yul\":867:900   */\n      tag_290\n      jump\t// in\n    tag_295:\n        /* \"#utility.yul\":919:926   */\n      swap4\n      pop\n        /* \"#utility.yul\":964:967   */\n      0x7f\n        /* \"#utility.yul\":949:968   */\n      dup8\n      add\n        /* \"#utility.yul\":945:978   */\n      dup9\n      sgt\n        /* \"#utility.yul\":935:937   */\n      tag_296\n      jumpi\n        /* \"#utility.yul\":997:1003   */\n      dup3\n        /* \"#utility.yul\":989:995   */\n      dup4\n        /* \"#utility.yul\":982:1004   */\n      revert\n        /* \"#utility.yul\":935:937   */\n    tag_296:\n        /* \"#utility.yul\":1035:1037   */\n      0x40\n        /* \"#utility.yul\":1029:1038   */\n      mload\n        /* \"#utility.yul\":1077:1080   */\n      0xe0\n        /* \"#utility.yul\":1069:1075   */\n      dup2\n        /* \"#utility.yul\":1065:1081   */\n      add\n        /* \"#utility.yul\":1147:1153   */\n      dup2\n        /* \"#utility.yul\":1135:1145   */\n      dup2\n        /* \"#utility.yul\":1132:1154   */\n      lt\n        /* \"#utility.yul\":1111:1129   */\n      0xffffffffffffffff\n        /* \"#utility.yul\":1099:1109   */\n      dup3\n        /* \"#utility.yul\":1096:1130   */\n      gt\n        /* \"#utility.yul\":1093:1155   */\n      or\n        /* \"#utility.yul\":1090:1092   */\n      iszero\n      tag_298\n      jumpi\n        /* \"#utility.yul\":1158:1176   */\n      tag_298\n      tag_299\n      jump\t// in\n    tag_298:\n        /* \"#utility.yul\":1194:1196   */\n      0x40\n        /* \"#utility.yul\":1187:1209   */\n      mstore\n        /* \"#utility.yul\":1229:1235   */\n      dup1\n        /* \"#utility.yul\":1270:1272   */\n      0x60\n        /* \"#utility.yul\":1255:1273   */\n      dup10\n      add\n        /* \"#utility.yul\":1288:1306   */\n      dup5\n      dup11\n      add\n        /* \"#utility.yul\":1285:1316   */\n      dup12\n      lt\n        /* \"#utility.yul\":1282:1284   */\n      iszero\n      tag_300\n      jumpi\n        /* \"#utility.yul\":1334:1340   */\n      dup6\n        /* \"#utility.yul\":1326:1332   */\n      dup7\n        /* \"#utility.yul\":1319:1341   */\n      revert\n        /* \"#utility.yul\":1282:1284   */\n    tag_300:\n        /* \"#utility.yul\":1361:1367   */\n      dup6\n        /* \"#utility.yul\":1352:1367   */\n      swap5\n      pop\n        /* \"#utility.yul\":1376:1541   */\n    tag_301:\n        /* \"#utility.yul\":1390:1394   */\n      0x07\n        /* \"#utility.yul\":1387:1388   */\n      dup6\n        /* \"#utility.yul\":1384:1395   */\n      lt\n        /* \"#utility.yul\":1376:1541   */\n      iszero\n      tag_303\n      jumpi\n        /* \"#utility.yul\":1449:1466   */\n      dup1\n      calldataload\n        /* \"#utility.yul\":1437:1467   */\n      dup3\n      mstore\n        /* \"#utility.yul\":1410:1411   */\n      0x01\n        /* \"#utility.yul\":1403:1412   */\n      swap5\n      swap1\n      swap5\n      add\n      swap4\n        /* \"#utility.yul\":1487:1499   */\n      swap1\n      dup4\n      add\n      swap1\n        /* \"#utility.yul\":1519:1531   */\n      dup4\n      add\n        /* \"#utility.yul\":1376:1541   */\n      jump(tag_301)\n    tag_303:\n        /* \"#utility.yul\":1380:1383   */\n      pop\n      pop\n        /* \"#utility.yul\":1560:1566   */\n      dup1\n        /* \"#utility.yul\":1550:1566   */\n      swap4\n      pop\n      pop\n      pop\n      pop\n        /* \"#utility.yul\":454:1572   */\n      swap3\n      swap6\n      swap2\n      swap5\n      pop\n      swap3\n      pop\n      jump\t// out\n        /* \"#utility.yul\":1577:1874   */\n    tag_178:\n        /* \"#utility.yul\":1644:1650   */\n      0x00\n        /* \"#utility.yul\":1697:1699   */\n      0x20\n        /* \"#utility.yul\":1685:1694   */\n      dup3\n        /* \"#utility.yul\":1676:1683   */\n      dup5\n        /* \"#utility.yul\":1672:1695   */\n      sub\n        /* \"#utility.yul\":1668:1700   */\n      slt\n        /* \"#utility.yul\":1665:1667   */\n      iszero\n      tag_305\n      jumpi\n        /* \"#utility.yul\":1718:1724   */\n      dup1\n        /* \"#utility.yul\":1710:1716   */\n      dup2\n        /* \"#utility.yul\":1703:1725   */\n      revert\n        /* \"#utility.yul\":1665:1667   */\n    tag_305:\n        /* \"#utility.yul\":1755:1764   */\n      dup2\n        /* \"#utility.yul\":1749:1765   */\n      mload\n        /* \"#utility.yul\":1808:1813   */\n      dup1\n        /* \"#utility.yul\":1801:1814   */\n      iszero\n        /* \"#utility.yul\":1794:1815   */\n      iszero\n        /* \"#utility.yul\":1787:1792   */\n      dup2\n        /* \"#utility.yul\":1784:1816   */\n      eq\n        /* \"#utility.yul\":1774:1776   */\n      tag_289\n      jumpi\n        /* \"#utility.yul\":1835:1841   */\n      dup2\n        /* \"#utility.yul\":1827:1833   */\n      dup3\n        /* \"#utility.yul\":1820:1842   */\n      revert\n        /* \"#utility.yul\":1879:2069   */\n    tag_43:\n        /* \"#utility.yul\":1938:1944   */\n      0x00\n        /* \"#utility.yul\":1991:1993   */\n      0x20\n        /* \"#utility.yul\":1979:1988   */\n      dup3\n        /* \"#utility.yul\":1970:1977   */\n      dup5\n        /* \"#utility.yul\":1966:1989   */\n      sub\n        /* \"#utility.yul\":1962:1994   */\n      slt\n        /* \"#utility.yul\":1959:1961   */\n      iszero\n      tag_308\n      jumpi\n        /* \"#utility.yul\":2012:2018   */\n      dup1\n        /* \"#utility.yul\":2004:2010   */\n      dup2\n        /* \"#utility.yul\":1997:2019   */\n      revert\n        /* \"#utility.yul\":1959:1961   */\n    tag_308:\n      pop\n        /* \"#utility.yul\":2040:2063   */\n      calldataload\n      swap2\n        /* \"#utility.yul\":1949:2069   */\n      swap1\n      pop\n      jump\t// out\n        /* \"#utility.yul\":2074:2268   */\n    tag_118:\n        /* \"#utility.yul\":2144:2150   */\n      0x00\n        /* \"#utility.yul\":2197:2199   */\n      0x20\n        /* \"#utility.yul\":2185:2194   */\n      dup3\n        /* \"#utility.yul\":2176:2183   */\n      dup5\n        /* \"#utility.yul\":2172:2195   */\n      sub\n        /* \"#utility.yul\":2168:2200   */\n      slt\n        /* \"#utility.yul\":2165:2167   */\n      iszero\n      tag_310\n      jumpi\n        /* \"#utility.yul\":2218:2224   */\n      dup1\n        /* \"#utility.yul\":2210:2216   */\n      dup2\n        /* \"#utility.yul\":2203:2225   */\n      revert\n        /* \"#utility.yul\":2165:2167   */\n    tag_310:\n      pop\n        /* \"#utility.yul\":2246:2262   */\n      mload\n      swap2\n        /* \"#utility.yul\":2155:2268   */\n      swap1\n      pop\n      jump\t// out\n        /* \"#utility.yul\":2273:2703   */\n    tag_267:\n        /* \"#utility.yul\":2402:2405   */\n      0x00\n        /* \"#utility.yul\":2440:2446   */\n      dup3\n        /* \"#utility.yul\":2434:2447   */\n      mload\n        /* \"#utility.yul\":2465:2468   */\n      dup2\n        /* \"#utility.yul\":2477:2606   */\n    tag_312:\n        /* \"#utility.yul\":2491:2497   */\n      dup2\n        /* \"#utility.yul\":2488:2489   */\n      dup2\n        /* \"#utility.yul\":2485:2498   */\n      lt\n        /* \"#utility.yul\":2477:2606   */\n      iszero\n      tag_314\n      jumpi\n        /* \"#utility.yul\":2589:2593   */\n      0x20\n        /* \"#utility.yul\":2573:2587   */\n      dup2\n      dup7\n      add\n        /* \"#utility.yul\":2569:2594   */\n      dup2\n      add\n        /* \"#utility.yul\":2563:2595   */\n      mload\n        /* \"#utility.yul\":2550:2561   */\n      dup6\n      dup4\n      add\n        /* \"#utility.yul\":2543:2596   */\n      mstore\n        /* \"#utility.yul\":2506:2518   */\n      add\n        /* \"#utility.yul\":2477:2606   */\n      jump(tag_312)\n    tag_314:\n        /* \"#utility.yul\":2624:2630   */\n      dup2\n        /* \"#utility.yul\":2621:2622   */\n      dup2\n        /* \"#utility.yul\":2618:2631   */\n      gt\n        /* \"#utility.yul\":2615:2617   */\n      iszero\n      tag_315\n      jumpi\n        /* \"#utility.yul\":2659:2662   */\n      dup3\n        /* \"#utility.yul\":2650:2656   */\n      dup3\n        /* \"#utility.yul\":2645:2648   */\n      dup6\n        /* \"#utility.yul\":2641:2657   */\n      add\n        /* \"#utility.yul\":2634:2663   */\n      mstore\n        /* \"#utility.yul\":2615:2617   */\n    tag_315:\n      pop\n        /* \"#utility.yul\":2681:2697   */\n      swap2\n      swap1\n      swap2\n      add\n      swap3\n        /* \"#utility.yul\":2410:2703   */\n      swap2\n      pop\n      pop\n      jump\t// out\n        /* \"#utility.yul\":10373:10501   */\n    tag_217:\n        /* \"#utility.yul\":10413:10416   */\n      0x00\n        /* \"#utility.yul\":10444:10445   */\n      dup3\n        /* \"#utility.yul\":10440:10446   */\n      not\n        /* \"#utility.yul\":10437:10438   */\n      dup3\n        /* \"#utility.yul\":10434:10447   */\n      gt\n        /* \"#utility.yul\":10431:10433   */\n      iszero\n      tag_338\n      jumpi\n        /* \"#utility.yul\":10450:10468   */\n      tag_338\n      tag_339\n      jump\t// in\n    tag_338:\n      pop\n        /* \"#utility.yul\":10486:10495   */\n      add\n      swap1\n        /* \"#utility.yul\":10421:10501   */\n      jump\t// out\n        /* \"#utility.yul\":10506:10723   */\n    tag_260:\n        /* \"#utility.yul\":10546:10547   */\n      0x00\n        /* \"#utility.yul\":10572:10573   */\n      dup3\n        /* \"#utility.yul\":10562:10564   */\n      tag_341\n      jumpi\n      shl(0xe0, 0x4e487b71)\n        /* \"#utility.yul\":10597:10628   */\n      dup2\n      mstore\n        /* \"#utility.yul\":10651:10655   */\n      0x12\n        /* \"#utility.yul\":10648:10649   */\n      0x04\n        /* \"#utility.yul\":10641:10656   */\n      mstore\n        /* \"#utility.yul\":10679:10683   */\n      0x24\n        /* \"#utility.yul\":10604:10605   */\n      dup2\n        /* \"#utility.yul\":10669:10684   */\n      revert\n        /* \"#utility.yul\":10562:10564   */\n    tag_341:\n      pop\n        /* \"#utility.yul\":10708:10717   */\n      div\n      swap1\n        /* \"#utility.yul\":10552:10723   */\n      jump\t// out\n        /* \"#utility.yul\":10728:11150   */\n    tag_342:\n        /* \"#utility.yul\":10817:10818   */\n      0x01\n        /* \"#utility.yul\":10860:10865   */\n      dup2\n        /* \"#utility.yul\":10817:10818   */\n      dup2\n        /* \"#utility.yul\":10874:11144   */\n    tag_344:\n        /* \"#utility.yul\":10895:10902   */\n      dup1\n        /* \"#utility.yul\":10885:10893   */\n      dup6\n        /* \"#utility.yul\":10882:10903   */\n      gt\n        /* \"#utility.yul\":10874:11144   */\n      iszero\n      tag_346\n      jumpi\n        /* \"#utility.yul\":10954:10958   */\n      dup2\n        /* \"#utility.yul\":10950:10951   */\n      0x00\n        /* \"#utility.yul\":10946:10952   */\n      not\n        /* \"#utility.yul\":10942:10959   */\n      div\n        /* \"#utility.yul\":10936:10940   */\n      dup3\n        /* \"#utility.yul\":10933:10960   */\n      gt\n        /* \"#utility.yul\":10930:10932   */\n      iszero\n      tag_348\n      jumpi\n        /* \"#utility.yul\":10963:10981   */\n      tag_348\n      tag_339\n      jump\t// in\n    tag_348:\n        /* \"#utility.yul\":11013:11020   */\n      dup1\n        /* \"#utility.yul\":11003:11011   */\n      dup6\n        /* \"#utility.yul\":10999:11021   */\n      and\n        /* \"#utility.yul\":10996:10998   */\n      iszero\n      tag_349\n      jumpi\n        /* \"#utility.yul\":11033:11049   */\n      swap2\n      dup2\n      mul\n      swap2\n        /* \"#utility.yul\":10996:10998   */\n    tag_349:\n        /* \"#utility.yul\":11112:11134   */\n      swap4\n      dup5\n      shr\n      swap4\n        /* \"#utility.yul\":11072:11087   */\n      swap1\n      dup1\n      mul\n      swap1\n        /* \"#utility.yul\":10874:11144   */\n      jump(tag_344)\n    tag_346:\n        /* \"#utility.yul\":10878:10881   */\n      pop\n        /* \"#utility.yul\":10792:11150   */\n      swap3\n      pop\n      swap3\n      swap1\n      pop\n      jump\t// out\n        /* \"#utility.yul\":11155:11286   */\n    tag_120:\n        /* \"#utility.yul\":11215:11220   */\n      0x00\n        /* \"#utility.yul\":11244:11280   */\n      tag_252\n        /* \"#utility.yul\":11271:11279   */\n      dup4\n        /* \"#utility.yul\":11265:11269   */\n      dup4\n        /* \"#utility.yul\":11340:11345   */\n      0x00\n        /* \"#utility.yul\":11370:11378   */\n      dup3\n        /* \"#utility.yul\":11360:11362   */\n      tag_354\n      jumpi\n      pop\n        /* \"#utility.yul\":11411:11412   */\n      0x01\n        /* \"#utility.yul\":11425:11430   */\n      jump(tag_251)\n        /* \"#utility.yul\":11360:11362   */\n    tag_354:\n        /* \"#utility.yul\":11459:11463   */\n      dup2\n        /* \"#utility.yul\":11449:11451   */\n      tag_355\n      jumpi\n      pop\n        /* \"#utility.yul\":11496:11497   */\n      0x00\n        /* \"#utility.yul\":11510:11515   */\n      jump(tag_251)\n        /* \"#utility.yul\":11449:11451   */\n    tag_355:\n        /* \"#utility.yul\":11541:11545   */\n      dup2\n        /* \"#utility.yul\":11559:11560   */\n      0x01\n        /* \"#utility.yul\":11554:11613   */\n      dup2\n      eq\n      tag_357\n      jumpi\n        /* \"#utility.yul\":11627:11628   */\n      0x02\n        /* \"#utility.yul\":11622:11752   */\n      dup2\n      eq\n      tag_358\n      jumpi\n        /* \"#utility.yul\":11534:11752   */\n      jump(tag_356)\n        /* \"#utility.yul\":11554:11613   */\n    tag_357:\n        /* \"#utility.yul\":11584:11585   */\n      0x01\n        /* \"#utility.yul\":11575:11585   */\n      swap2\n      pop\n        /* \"#utility.yul\":11598:11603   */\n      pop\n      jump(tag_251)\n        /* \"#utility.yul\":11622:11752   */\n    tag_358:\n        /* \"#utility.yul\":11659:11662   */\n      0xff\n        /* \"#utility.yul\":11649:11657   */\n      dup5\n        /* \"#utility.yul\":11646:11663   */\n      gt\n        /* \"#utility.yul\":11643:11645   */\n      iszero\n      tag_360\n      jumpi\n        /* \"#utility.yul\":11666:11684   */\n      tag_360\n      tag_339\n      jump\t// in\n    tag_360:\n      pop\n      pop\n        /* \"#utility.yul\":11722:11723   */\n      0x01\n        /* \"#utility.yul\":11708:11724   */\n      dup3\n      shl\n        /* \"#utility.yul\":11737:11742   */\n      jump(tag_251)\n        /* \"#utility.yul\":11534:11752   */\n    tag_356:\n      pop\n        /* \"#utility.yul\":11836:11838   */\n      0x20\n        /* \"#utility.yul\":11826:11834   */\n      dup4\n        /* \"#utility.yul\":11823:11839   */\n      lt\n        /* \"#utility.yul\":11817:11820   */\n      0x0133\n        /* \"#utility.yul\":11811:11815   */\n      dup4\n        /* \"#utility.yul\":11808:11821   */\n      lt\n        /* \"#utility.yul\":11804:11840   */\n      and\n        /* \"#utility.yul\":11798:11800   */\n      0x4e\n        /* \"#utility.yul\":11788:11796   */\n      dup5\n        /* \"#utility.yul\":11785:11801   */\n      lt\n        /* \"#utility.yul\":11780:11782   */\n      0x0b\n        /* \"#utility.yul\":11774:11778   */\n      dup5\n        /* \"#utility.yul\":11771:11783   */\n      lt\n        /* \"#utility.yul\":11767:11802   */\n      and\n        /* \"#utility.yul\":11764:11841   */\n      or\n        /* \"#utility.yul\":11761:11763   */\n      iszero\n      tag_361\n      jumpi\n      pop\n        /* \"#utility.yul\":11873:11892   */\n      dup2\n      dup2\n      exp\n        /* \"#utility.yul\":11905:11910   */\n      jump(tag_251)\n        /* \"#utility.yul\":11761:11763   */\n    tag_361:\n        /* \"#utility.yul\":11952:11986   */\n      tag_362\n        /* \"#utility.yul\":11977:11985   */\n      dup4\n        /* \"#utility.yul\":11971:11975   */\n      dup4\n        /* \"#utility.yul\":11952:11986   */\n      tag_342\n      jump\t// in\n    tag_362:\n        /* \"#utility.yul\":12022:12028   */\n      dup1\n        /* \"#utility.yul\":12018:12019   */\n      0x00\n        /* \"#utility.yul\":12014:12020   */\n      not\n        /* \"#utility.yul\":12010:12029   */\n      div\n        /* \"#utility.yul\":12001:12008   */\n      dup3\n        /* \"#utility.yul\":11998:12030   */\n      gt\n        /* \"#utility.yul\":11995:11997   */\n      iszero\n      tag_364\n      jumpi\n        /* \"#utility.yul\":12033:12051   */\n      tag_364\n      tag_339\n      jump\t// in\n    tag_364:\n        /* \"#utility.yul\":12071:12091   */\n      mul\n      swap4\n        /* \"#utility.yul\":11350:12097   */\n      swap3\n      pop\n      pop\n      pop\n      jump\t// out\n        /* \"#utility.yul\":12102:12270   */\n    tag_123:\n        /* \"#utility.yul\":12142:12149   */\n      0x00\n        /* \"#utility.yul\":12208:12209   */\n      dup2\n        /* \"#utility.yul\":12204:12205   */\n      0x00\n        /* \"#utility.yul\":12200:12206   */\n      not\n        /* \"#utility.yul\":12196:12210   */\n      div\n        /* \"#utility.yul\":12193:12194   */\n      dup4\n        /* \"#utility.yul\":12190:12211   */\n      gt\n        /* \"#utility.yul\":12185:12186   */\n      dup3\n        /* \"#utility.yul\":12178:12187   */\n      iszero\n        /* \"#utility.yul\":12171:12188   */\n      iszero\n        /* \"#utility.yul\":12167:12212   */\n      and\n        /* \"#utility.yul\":12164:12166   */\n      iszero\n      tag_367\n      jumpi\n        /* \"#utility.yul\":12215:12233   */\n      tag_367\n      tag_339\n      jump\t// in\n    tag_367:\n      pop\n        /* \"#utility.yul\":12255:12264   */\n      mul\n      swap1\n        /* \"#utility.yul\":12154:12270   */\n      jump\t// out\n        /* \"#utility.yul\":12275:12400   */\n    tag_110:\n        /* \"#utility.yul\":12315:12319   */\n      0x00\n        /* \"#utility.yul\":12343:12344   */\n      dup3\n        /* \"#utility.yul\":12340:12341   */\n      dup3\n        /* \"#utility.yul\":12337:12345   */\n      lt\n        /* \"#utility.yul\":12334:12336   */\n      iszero\n      tag_370\n      jumpi\n        /* \"#utility.yul\":12348:12366   */\n      tag_370\n      tag_339\n      jump\t// in\n    tag_370:\n      pop\n        /* \"#utility.yul\":12385:12394   */\n      sub\n      swap1\n        /* \"#utility.yul\":12324:12400   */\n      jump\t// out\n        /* \"#utility.yul\":12405:12540   */\n    tag_222:\n        /* \"#utility.yul\":12444:12447   */\n      0x00\n      not(0x00)\n        /* \"#utility.yul\":12465:12482   */\n      dup3\n      eq\n        /* \"#utility.yul\":12462:12464   */\n      iszero\n      tag_373\n      jumpi\n        /* \"#utility.yul\":12485:12503   */\n      tag_373\n      tag_339\n      jump\t// in\n    tag_373:\n      pop\n        /* \"#utility.yul\":12532:12533   */\n      0x01\n        /* \"#utility.yul\":12521:12534   */\n      add\n      swap1\n        /* \"#utility.yul\":12452:12540   */\n      jump\t// out\n        /* \"#utility.yul\":12545:12672   */\n    tag_339:\n        /* \"#utility.yul\":12606:12616   */\n      0x4e487b71\n        /* \"#utility.yul\":12601:12604   */\n      0xe0\n        /* \"#utility.yul\":12597:12617   */\n      shl\n        /* \"#utility.yul\":12594:12595   */\n      0x00\n        /* \"#utility.yul\":12587:12618   */\n      mstore\n        /* \"#utility.yul\":12637:12641   */\n      0x11\n        /* \"#utility.yul\":12634:12635   */\n      0x04\n        /* \"#utility.yul\":12627:12642   */\n      mstore\n        /* \"#utility.yul\":12661:12665   */\n      0x24\n        /* \"#utility.yul\":12658:12659   */\n      0x00\n        /* \"#utility.yul\":12651:12666   */\n      revert\n        /* \"#utility.yul\":12677:12804   */\n    tag_299:\n        /* \"#utility.yul\":12738:12748   */\n      0x4e487b71\n        /* \"#utility.yul\":12733:12736   */\n      0xe0\n        /* \"#utility.yul\":12729:12749   */\n      shl\n        /* \"#utility.yul\":12726:12727   */\n      0x00\n        /* \"#utility.yul\":12719:12750   */\n      mstore\n        /* \"#utility.yul\":12769:12773   */\n      0x41\n        /* \"#utility.yul\":12766:12767   */\n      0x04\n        /* \"#utility.yul\":12759:12774   */\n      mstore\n        /* \"#utility.yul\":12793:12797   */\n      0x24\n        /* \"#utility.yul\":12790:12791   */\n      0x00\n        /* \"#utility.yul\":12783:12798   */\n      revert\n        /* \"#utility.yul\":12809:12940   */\n    tag_290:\n      sub(shl(0xa0, 0x01), 0x01)\n        /* \"#utility.yul\":12884:12915   */\n      dup2\n      and\n        /* \"#utility.yul\":12874:12916   */\n      dup2\n      eq\n        /* \"#utility.yul\":12864:12866   */\n      tag_150\n      jumpi\n        /* \"#utility.yul\":12930:12931   */\n      0x00\n        /* \"#utility.yul\":12927:12928   */\n      dup1\n        /* \"#utility.yul\":12920:12932   */\n      revert\n\n    auxdata: 0xa26469706673582212200224604c8f01643a151317d747a8d49864ae8e568b269e087e9a21abab57826664736f6c63430008040033\n}\n",
				"bytecode": {
					"linkReferences": {},
					"object": "608060405260016000556200001433620000a5565b6017805473c778417e063141139fce010982780140aa0cd5ab6001600160a01b0319909116179055620000696019736ccb41eeda5a073076f3e7dc1614c185b5fa41ed620000f7602090811b62000e8f17901c565b5062000099734f0b12bbf40fc182559822a5b1db6d34dbc3e0166019620000f760201b62000e8f1790919060201c565b50601460185562000169565b600180546001600160a01b038381166001600160a01b0319831681179093556040519116919082907f8be0079c531659141344cd1fd0a4f28419497f9722a3daafe3b4186f6b6457e090600090a35050565b60006200010e836001600160a01b03841662000117565b90505b92915050565b6000818152600183016020526040812054620001605750815460018181018455600084815260208082209093018490558454848252828601909352604090209190915562000111565b50600062000111565b61141b80620001796000396000f3fe6080604052600436106101095760003560e01c80638da5cb5b11610095578063b6b55f2511610064578063b6b55f2514610360578063cad5b0f714610373578063e2d3f42314610398578063f2fde38b1461041f578063f8b2cb4f1461043f57600080fd5b80638da5cb5b146102a1578063ab33985a146102d3578063acfb2355146102e8578063ad5c46481461034057600080fd5b80634329db46116100dc5780634329db461461022257806356c5f3491461023757806361e1765514610264578063715018a614610284578063861faf5f1461029957600080fd5b806318856a2f1461010e5780631df4ccfc146101d3578063200d2ed2146101f75780633b5ef2ad1461020c575b600080fd5b34801561011a57600080fd5b50600b54600c54600d54600e54600f546010546011546012546013546014546015546016546101629b6001600160a01b039081169b81169a16989796959493929160ff16908c565b604080516001600160a01b039d8e1681529b8d1660208d015299909b16988a01989098526060890196909652608088019490945260a087019290925260c086015260e08501526101008401526101208301521515610140820152610160810191909152610180015b60405180910390f35b3480156101df57600080fd5b506101e9601b5481565b6040519081526020016101ca565b34801561020357600080fd5b506101e9610467565b34801561021857600080fd5b506101e960185481565b6102356102303660046111c7565b610490565b005b34801561024357600080fd5b506101e96102523660046110c4565b60036020526000908152604090205481565b34801561027057600080fd5b5061023561027f3660046110e7565b6104ca565b34801561029057600080fd5b5061023561068a565b6102356106f5565b3480156102ad57600080fd5b506001546001600160a01b03165b6040516001600160a01b0390911681526020016101ca565b3480156102df57600080fd5b50610235610724565b3480156102f457600080fd5b5060045460055460065460075460085460095461031395949392919086565b604080519687526020870195909552938501929092526060840152608083015260a082015260c0016101ca565b34801561034c57600080fd5b506017546102bb906001600160a01b031681565b61023561036e3660046111c7565b6109e4565b34801561037f57600080fd5b50610388610db5565b60405190151581526020016101ca565b3480156103a457600080fd5b506103ee6103b33660046110c4565b600260208190526000918252604090912080546001820154928201546003830154600490930154919392909160ff8082169161010090041686565b60408051968752602087019590955293850192909252606084015215156080830152151560a082015260c0016101ca565b34801561042b57600080fd5b5061023561043a3660046110c4565b610dc7565b34801561044b57600080fd5b506101e961045a3660046110c4565b6001600160a01b03163190565b600f5460009042101561047a5750600090565b60105442111561048a5750600290565b50600190565b336108fc61049e8334611372565b6040518115909202916000818181858888f193505050501580156104c6573d6000803e3d6000fd5b5050565b600b80546001600160a01b038087166001600160a01b031992831617909255600c80548684169083168117909155600d8054938616939092169290921790556040805163313ce56760e01b8152905163313ce56791600480820192602092909190829003018186803b15801561053f57600080fd5b505afa158015610553573d6000803e3d6000fd5b505050506040513d601f19601f8201168201806040525081019061057791906111df565b61058290600a6112ab565b815161058e9190611353565b600e55602080820151600f556040808301516010556060830151601155600d54815163313ce56760e01b815291516001600160a01b039091169263313ce5679260048082019391829003018186803b1580156105e957600080fd5b505afa1580156105fd573d6000803e3d6000fd5b505050506040513d601f19601f8201168201806040525081019061062191906111df565b61062c90600a6112ab565b608082015161063b9190611353565b60125560a081015160135560c0810151601455600d54601754601580546001600160a01b03938416939092169290921460ff19909116179055600e546106819080610ead565b60165550505050565b6001546001600160a01b031633146106e95760405162461bcd60e51b815260206004820181905260248201527f4f776e61626c653a2063616c6c6572206973206e6f7420746865206f776e657260448201526064015b60405180910390fd5b6106f36000610eb9565b565b60405133904780156108fc02916000818181858888f19350505050158015610721573d6000803e3d6000fd5b50565b600260005414156107775760405162461bcd60e51b815260206004820152601f60248201527f5265656e7472616e637947756172643a207265656e7472616e742063616c6c0060448201526064016106e0565b6002600055610784610467565b6001146107c25760405162461bcd60e51b815260206004820152600c60248201526b53616c65207375636573737360a01b60448201526064016106e0565b6006546005546000916107d491611372565b116108215760405162461bcd60e51b815260206004820152601b60248201527f416c6c20746f6b656e20686173206265656e207769746864726177000000000060448201526064016106e0565b33600090815260026020526040902060018101546108915760405162461bcd60e51b815260206004820152602760248201527f596f7520776974686472617720616c6c206f722068617665206e6f7420626f7560448201526619da1d081e595d60ca1b60648201526084016106e0565b60006108bb6103e86108b5600b600901548560010154610ead90919063ffffffff16565b90610f0b565b905060008183600101546108cf9190611372565b600c5460405163a9059cbb60e01b8152336004820152602481018590529192506001600160a01b03169063a9059cbb90604401602060405180830381600087803b15801561091c57600080fd5b505af1158015610930573d6000803e3d6000fd5b505050506040513d601f19601f8201168201806040525081019061095491906111a7565b50600c5460405163a9059cbb60e01b8152306004820152602481018490526001600160a01b039091169063a9059cbb90604401602060405180830381600087803b1580156109a157600080fd5b505af11580156109b5573d6000803e3d6000fd5b505050506040513d601f19601f820116820180604052508101906109d991906111a7565b505060016000555050565b60026000541415610a375760405162461bcd60e51b815260206004820152601f60248201527f5265656e7472616e637947756172643a207265656e7472616e742063616c6c0060448201526064016106e0565b6002600055610a44610467565b600114610a805760405162461bcd60e51b815260206004820152600a6024820152694e6f742061637469766560b01b60448201526064016106e0565b336000908152600260205260408120601154909183918291906103e890831015610adf5760405162461bcd60e51b815260206004820152601060248201526f4e6f7420656e6f7567682076616c756560801b60448201526064016106e0565b601254831115610b225760405162461bcd60e51b815260206004820152600e60248201526d4f766572666c6f772076616c756560901b60448201526064016106e0565b610b2a610db5565b610b6057610b51816108b585610b4b60185486610f1790919063ffffffff16565b90610ead565b9250610b5d8385611372565b91505b600454601254600091610b7291611372565b905060008111610bb65760405162461bcd60e51b815260206004820152600f60248201526e53616c65206973205375636365737360881b60448201526064016106e0565b6000610c5d600b60020160009054906101000a90046001600160a01b03166001600160a01b031663313ce5676040518163ffffffff1660e01b815260040160206040518083038186803b158015610c0c57600080fd5b505afa158015610c20573d6000803e3d6000fd5b505050506040513d601f19601f82011682018060405250810190610c4491906111df565b610c4f90600a6112ab565b600e546108b5908890610ead565b905085876000016000828254610c739190611230565b9250508190555080876001016000828254610c8e9190611230565b909155505060048054869190600090610ca8908490611230565b909155505060058054829190600090610cc2908490611230565b909155505060088054906000610cd783611389565b90915550503360009081526003602052604081208054869290610cfb908490611230565b9250508190555083601b6000828254610d149190611230565b909155505060155460ff168015610d33575034610d318587611230565b105b15610d7b57336108fc85610d478834611372565b610d519190611372565b6040518115909202916000818181858888f19350505050158015610d79573d6000803e3d6000fd5b505b60155460ff16610da657600d54610da6906001600160a01b03163330610da1888a611230565b610f23565b50506001600055505050505050565b6000610dc2601933611053565b905090565b6001546001600160a01b03163314610e215760405162461bcd60e51b815260206004820181905260248201527f4f776e61626c653a2063616c6c6572206973206e6f7420746865206f776e657260448201526064016106e0565b6001600160a01b038116610e865760405162461bcd60e51b815260206004820152602660248201527f4f776e61626c653a206e6577206f776e657220697320746865207a65726f206160448201526564647265737360d01b60648201526084016106e0565b61072181610eb9565b6000610ea4836001600160a01b038416611075565b90505b92915050565b6000610ea48284611353565b600180546001600160a01b038381166001600160a01b0319831681179093556040519116919082907f8be0079c531659141344cd1fd0a4f28419497f9722a3daafe3b4186f6b6457e090600090a35050565b6000610ea48284611248565b6000610ea48284611372565b604080516001600160a01b0385811660248301528481166044830152606480830185905283518084039091018152608490920183526020820180516001600160e01b03166323b872dd60e01b1790529151600092839290881691610f8791906111f7565b6000604051808303816000865af19150503d8060008114610fc4576040519150601f19603f3d011682016040523d82523d6000602084013e610fc9565b606091505b5091509150818015610ff3575080511580610ff3575080806020019051810190610ff391906111a7565b61104b5760405162461bcd60e51b8152602060048201526024808201527f5472616e7366657248656c7065723a205452414e534645525f46524f4d5f46416044820152631253115160e21b60648201526084016106e0565b505050505050565b6001600160a01b03811660009081526001830160205260408120541515610ea4565b60008181526001830160205260408120546110bc57508154600181810184556000848152602080822090930184905584548482528286019093526040902091909155610ea7565b506000610ea7565b6000602082840312156110d5578081fd5b81356110e0816113d0565b9392505050565b6000806000806101408086880312156110fe578384fd5b8535611109816113d0565b945060208681013561111a816113d0565b9450604087013561112a816113d0565b9350607f8701881361113a578283fd5b60405160e0810181811067ffffffffffffffff8211171561115d5761115d6113ba565b6040528060608901848a018b1015611173578586fd5b8594505b6007851015611196578035825260019490940193908301908301611177565b505080935050505092959194509250565b6000602082840312156111b8578081fd5b815180151581146110e0578182fd5b6000602082840312156111d8578081fd5b5035919050565b6000602082840312156111f0578081fd5b5051919050565b60008251815b8181101561121757602081860181015185830152016111fd565b818111156112255782828501525b509190910192915050565b60008219821115611243576112436113a4565b500190565b60008261126357634e487b7160e01b81526012600452602481fd5b500490565b600181815b808511156112a3578160001904821115611289576112896113a4565b8085161561129657918102915b93841c939080029061126d565b509250929050565b6000610ea483836000826112c157506001610ea7565b816112ce57506000610ea7565b81600181146112e457600281146112ee5761130a565b6001915050610ea7565b60ff8411156112ff576112ff6113a4565b50506001821b610ea7565b5060208310610133831016604e8410600b841016171561132d575081810a610ea7565b6113378383611268565b806000190482111561134b5761134b6113a4565b029392505050565b600081600019048311821515161561136d5761136d6113a4565b500290565b600082821015611384576113846113a4565b500390565b600060001982141561139d5761139d6113a4565b5060010190565b634e487b7160e01b600052601160045260246000fd5b634e487b7160e01b600052604160045260246000fd5b6001600160a01b038116811461072157600080fdfea26469706673582212200224604c8f01643a151317d747a8d49864ae8e568b269e087e9a21abab57826664736f6c63430008040033",
					"opcodes": "PUSH1 0x80 PUSH1 0x40 MSTORE PUSH1 0x1 PUSH1 0x0 SSTORE PUSH3 0x14 CALLER PUSH3 0xA5 JUMP JUMPDEST PUSH1 0x17 DUP1 SLOAD PUSH20 0xC778417E063141139FCE010982780140AA0CD5AB PUSH1 0x1 PUSH1 0x1 PUSH1 0xA0 SHL SUB NOT SWAP1 SWAP2 AND OR SWAP1 SSTORE PUSH3 0x69 PUSH1 0x19 PUSH20 0x6CCB41EEDA5A073076F3E7DC1614C185B5FA41ED PUSH3 0xF7 PUSH1 0x20 SWAP1 DUP2 SHL PUSH3 0xE8F OR SWAP1 SHR JUMP JUMPDEST POP PUSH3 0x99 PUSH20 0x4F0B12BBF40FC182559822A5B1DB6D34DBC3E016 PUSH1 0x19 PUSH3 0xF7 PUSH1 0x20 SHL PUSH3 0xE8F OR SWAP1 SWAP2 SWAP1 PUSH1 0x20 SHR JUMP JUMPDEST POP PUSH1 0x14 PUSH1 0x18 SSTORE PUSH3 0x169 JUMP JUMPDEST PUSH1 0x1 DUP1 SLOAD PUSH1 0x1 PUSH1 0x1 PUSH1 0xA0 SHL SUB DUP4 DUP2 AND PUSH1 0x1 PUSH1 0x1 PUSH1 0xA0 SHL SUB NOT DUP4 AND DUP2 OR SWAP1 SWAP4 SSTORE PUSH1 0x40 MLOAD SWAP2 AND SWAP2 SWAP1 DUP3 SWAP1 PUSH32 0x8BE0079C531659141344CD1FD0A4F28419497F9722A3DAAFE3B4186F6B6457E0 SWAP1 PUSH1 0x0 SWAP1 LOG3 POP POP JUMP JUMPDEST PUSH1 0x0 PUSH3 0x10E DUP4 PUSH1 0x1 PUSH1 0x1 PUSH1 0xA0 SHL SUB DUP5 AND PUSH3 0x117 JUMP JUMPDEST SWAP1 POP JUMPDEST SWAP3 SWAP2 POP POP JUMP JUMPDEST PUSH1 0x0 DUP2 DUP2 MSTORE PUSH1 0x1 DUP4 ADD PUSH1 0x20 MSTORE PUSH1 0x40 DUP2 KECCAK256 SLOAD PUSH3 0x160 JUMPI POP DUP2 SLOAD PUSH1 0x1 DUP2 DUP2 ADD DUP5 SSTORE PUSH1 0x0 DUP5 DUP2 MSTORE PUSH1 0x20 DUP1 DUP3 KECCAK256 SWAP1 SWAP4 ADD DUP5 SWAP1 SSTORE DUP5 SLOAD DUP5 DUP3 MSTORE DUP3 DUP7 ADD SWAP1 SWAP4 MSTORE PUSH1 0x40 SWAP1 KECCAK256 SWAP2 SWAP1 SWAP2 SSTORE PUSH3 0x111 JUMP JUMPDEST POP PUSH1 0x0 PUSH3 0x111 JUMP JUMPDEST PUSH2 0x141B DUP1 PUSH3 0x179 PUSH1 0x0 CODECOPY PUSH1 0x0 RETURN INVALID PUSH1 0x80 PUSH1 0x40 MSTORE PUSH1 0x4 CALLDATASIZE LT PUSH2 0x109 JUMPI PUSH1 0x0 CALLDATALOAD PUSH1 0xE0 SHR DUP1 PUSH4 0x8DA5CB5B GT PUSH2 0x95 JUMPI DUP1 PUSH4 0xB6B55F25 GT PUSH2 0x64 JUMPI DUP1 PUSH4 0xB6B55F25 EQ PUSH2 0x360 JUMPI DUP1 PUSH4 0xCAD5B0F7 EQ PUSH2 0x373 JUMPI DUP1 PUSH4 0xE2D3F423 EQ PUSH2 0x398 JUMPI DUP1 PUSH4 0xF2FDE38B EQ PUSH2 0x41F JUMPI DUP1 PUSH4 0xF8B2CB4F EQ PUSH2 0x43F JUMPI PUSH1 0x0 DUP1 REVERT JUMPDEST DUP1 PUSH4 0x8DA5CB5B EQ PUSH2 0x2A1 JUMPI DUP1 PUSH4 0xAB33985A EQ PUSH2 0x2D3 JUMPI DUP1 PUSH4 0xACFB2355 EQ PUSH2 0x2E8 JUMPI DUP1 PUSH4 0xAD5C4648 EQ PUSH2 0x340 JUMPI PUSH1 0x0 DUP1 REVERT JUMPDEST DUP1 PUSH4 0x4329DB46 GT PUSH2 0xDC JUMPI DUP1 PUSH4 0x4329DB46 EQ PUSH2 0x222 JUMPI DUP1 PUSH4 0x56C5F349 EQ PUSH2 0x237 JUMPI DUP1 PUSH4 0x61E17655 EQ PUSH2 0x264 JUMPI DUP1 PUSH4 0x715018A6 EQ PUSH2 0x284 JUMPI DUP1 PUSH4 0x861FAF5F EQ PUSH2 0x299 JUMPI PUSH1 0x0 DUP1 REVERT JUMPDEST DUP1 PUSH4 0x18856A2F EQ PUSH2 0x10E JUMPI DUP1 PUSH4 0x1DF4CCFC EQ PUSH2 0x1D3 JUMPI DUP1 PUSH4 0x200D2ED2 EQ PUSH2 0x1F7 JUMPI DUP1 PUSH4 0x3B5EF2AD EQ PUSH2 0x20C JUMPI JUMPDEST PUSH1 0x0 DUP1 REVERT JUMPDEST CALLVALUE DUP1 ISZERO PUSH2 0x11A JUMPI PUSH1 0x0 DUP1 REVERT JUMPDEST POP PUSH1 0xB SLOAD PUSH1 0xC SLOAD PUSH1 0xD SLOAD PUSH1 0xE SLOAD PUSH1 0xF SLOAD PUSH1 0x10 SLOAD PUSH1 0x11 SLOAD PUSH1 0x12 SLOAD PUSH1 0x13 SLOAD PUSH1 0x14 SLOAD PUSH1 0x15 SLOAD PUSH1 0x16 SLOAD PUSH2 0x162 SWAP12 PUSH1 0x1 PUSH1 0x1 PUSH1 0xA0 SHL SUB SWAP1 DUP2 AND SWAP12 DUP2 AND SWAP11 AND SWAP9 SWAP8 SWAP7 SWAP6 SWAP5 SWAP4 SWAP3 SWAP2 PUSH1 0xFF AND SWAP1 DUP13 JUMP JUMPDEST PUSH1 0x40 DUP1 MLOAD PUSH1 0x1 PUSH1 0x1 PUSH1 0xA0 SHL SUB SWAP14 DUP15 AND DUP2 MSTORE SWAP12 DUP14 AND PUSH1 0x20 DUP14 ADD MSTORE SWAP10 SWAP1 SWAP12 AND SWAP9 DUP11 ADD SWAP9 SWAP1 SWAP9 MSTORE PUSH1 0x60 DUP10 ADD SWAP7 SWAP1 SWAP7 MSTORE PUSH1 0x80 DUP9 ADD SWAP5 SWAP1 SWAP5 MSTORE PUSH1 0xA0 DUP8 ADD SWAP3 SWAP1 SWAP3 MSTORE PUSH1 0xC0 DUP7 ADD MSTORE PUSH1 0xE0 DUP6 ADD MSTORE PUSH2 0x100 DUP5 ADD MSTORE PUSH2 0x120 DUP4 ADD MSTORE ISZERO ISZERO PUSH2 0x140 DUP3 ADD MSTORE PUSH2 0x160 DUP2 ADD SWAP2 SWAP1 SWAP2 MSTORE PUSH2 0x180 ADD JUMPDEST PUSH1 0x40 MLOAD DUP1 SWAP2 SUB SWAP1 RETURN JUMPDEST CALLVALUE DUP1 ISZERO PUSH2 0x1DF JUMPI PUSH1 0x0 DUP1 REVERT JUMPDEST POP PUSH2 0x1E9 PUSH1 0x1B SLOAD DUP2 JUMP JUMPDEST PUSH1 0x40 MLOAD SWAP1 DUP2 MSTORE PUSH1 0x20 ADD PUSH2 0x1CA JUMP JUMPDEST CALLVALUE DUP1 ISZERO PUSH2 0x203 JUMPI PUSH1 0x0 DUP1 REVERT JUMPDEST POP PUSH2 0x1E9 PUSH2 0x467 JUMP JUMPDEST CALLVALUE DUP1 ISZERO PUSH2 0x218 JUMPI PUSH1 0x0 DUP1 REVERT JUMPDEST POP PUSH2 0x1E9 PUSH1 0x18 SLOAD DUP2 JUMP JUMPDEST PUSH2 0x235 PUSH2 0x230 CALLDATASIZE PUSH1 0x4 PUSH2 0x11C7 JUMP JUMPDEST PUSH2 0x490 JUMP JUMPDEST STOP JUMPDEST CALLVALUE DUP1 ISZERO PUSH2 0x243 JUMPI PUSH1 0x0 DUP1 REVERT JUMPDEST POP PUSH2 0x1E9 PUSH2 0x252 CALLDATASIZE PUSH1 0x4 PUSH2 0x10C4 JUMP JUMPDEST PUSH1 0x3 PUSH1 0x20 MSTORE PUSH1 0x0 SWAP1 DUP2 MSTORE PUSH1 0x40 SWAP1 KECCAK256 SLOAD DUP2 JUMP JUMPDEST CALLVALUE DUP1 ISZERO PUSH2 0x270 JUMPI PUSH1 0x0 DUP1 REVERT JUMPDEST POP PUSH2 0x235 PUSH2 0x27F CALLDATASIZE PUSH1 0x4 PUSH2 0x10E7 JUMP JUMPDEST PUSH2 0x4CA JUMP JUMPDEST CALLVALUE DUP1 ISZERO PUSH2 0x290 JUMPI PUSH1 0x0 DUP1 REVERT JUMPDEST POP PUSH2 0x235 PUSH2 0x68A JUMP JUMPDEST PUSH2 0x235 PUSH2 0x6F5 JUMP JUMPDEST CALLVALUE DUP1 ISZERO PUSH2 0x2AD JUMPI PUSH1 0x0 DUP1 REVERT JUMPDEST POP PUSH1 0x1 SLOAD PUSH1 0x1 PUSH1 0x1 PUSH1 0xA0 SHL SUB AND JUMPDEST PUSH1 0x40 MLOAD PUSH1 0x1 PUSH1 0x1 PUSH1 0xA0 SHL SUB SWAP1 SWAP2 AND DUP2 MSTORE PUSH1 0x20 ADD PUSH2 0x1CA JUMP JUMPDEST CALLVALUE DUP1 ISZERO PUSH2 0x2DF JUMPI PUSH1 0x0 DUP1 REVERT JUMPDEST POP PUSH2 0x235 PUSH2 0x724 JUMP JUMPDEST CALLVALUE DUP1 ISZERO PUSH2 0x2F4 JUMPI PUSH1 0x0 DUP1 REVERT JUMPDEST POP PUSH1 0x4 SLOAD PUSH1 0x5 SLOAD PUSH1 0x6 SLOAD PUSH1 0x7 SLOAD PUSH1 0x8 SLOAD PUSH1 0x9 SLOAD PUSH2 0x313 SWAP6 SWAP5 SWAP4 SWAP3 SWAP2 SWAP1 DUP7 JUMP JUMPDEST PUSH1 0x40 DUP1 MLOAD SWAP7 DUP8 MSTORE PUSH1 0x20 DUP8 ADD SWAP6 SWAP1 SWAP6 MSTORE SWAP4 DUP6 ADD SWAP3 SWAP1 SWAP3 MSTORE PUSH1 0x60 DUP5 ADD MSTORE PUSH1 0x80 DUP4 ADD MSTORE PUSH1 0xA0 DUP3 ADD MSTORE PUSH1 0xC0 ADD PUSH2 0x1CA JUMP JUMPDEST CALLVALUE DUP1 ISZERO PUSH2 0x34C JUMPI PUSH1 0x0 DUP1 REVERT JUMPDEST POP PUSH1 0x17 SLOAD PUSH2 0x2BB SWAP1 PUSH1 0x1 PUSH1 0x1 PUSH1 0xA0 SHL SUB AND DUP2 JUMP JUMPDEST PUSH2 0x235 PUSH2 0x36E CALLDATASIZE PUSH1 0x4 PUSH2 0x11C7 JUMP JUMPDEST PUSH2 0x9E4 JUMP JUMPDEST CALLVALUE DUP1 ISZERO PUSH2 0x37F JUMPI PUSH1 0x0 DUP1 REVERT JUMPDEST POP PUSH2 0x388 PUSH2 0xDB5 JUMP JUMPDEST PUSH1 0x40 MLOAD SWAP1 ISZERO ISZERO DUP2 MSTORE PUSH1 0x20 ADD PUSH2 0x1CA JUMP JUMPDEST CALLVALUE DUP1 ISZERO PUSH2 0x3A4 JUMPI PUSH1 0x0 DUP1 REVERT JUMPDEST POP PUSH2 0x3EE PUSH2 0x3B3 CALLDATASIZE PUSH1 0x4 PUSH2 0x10C4 JUMP JUMPDEST PUSH1 0x2 PUSH1 0x20 DUP2 SWAP1 MSTORE PUSH1 0x0 SWAP2 DUP3 MSTORE PUSH1 0x40 SWAP1 SWAP2 KECCAK256 DUP1 SLOAD PUSH1 0x1 DUP3 ADD SLOAD SWAP3 DUP3 ADD SLOAD PUSH1 0x3 DUP4 ADD SLOAD PUSH1 0x4 SWAP1 SWAP4 ADD SLOAD SWAP2 SWAP4 SWAP3 SWAP1 SWAP2 PUSH1 0xFF DUP1 DUP3 AND SWAP2 PUSH2 0x100 SWAP1 DIV AND DUP7 JUMP JUMPDEST PUSH1 0x40 DUP1 MLOAD SWAP7 DUP8 MSTORE PUSH1 0x20 DUP8 ADD SWAP6 SWAP1 SWAP6 MSTORE SWAP4 DUP6 ADD SWAP3 SWAP1 SWAP3 MSTORE PUSH1 0x60 DUP5 ADD MSTORE ISZERO ISZERO PUSH1 0x80 DUP4 ADD MSTORE ISZERO ISZERO PUSH1 0xA0 DUP3 ADD MSTORE PUSH1 0xC0 ADD PUSH2 0x1CA JUMP JUMPDEST CALLVALUE DUP1 ISZERO PUSH2 0x42B JUMPI PUSH1 0x0 DUP1 REVERT JUMPDEST POP PUSH2 0x235 PUSH2 0x43A CALLDATASIZE PUSH1 0x4 PUSH2 0x10C4 JUMP JUMPDEST PUSH2 0xDC7 JUMP JUMPDEST CALLVALUE DUP1 ISZERO PUSH2 0x44B JUMPI PUSH1 0x0 DUP1 REVERT JUMPDEST POP PUSH2 0x1E9 PUSH2 0x45A CALLDATASIZE PUSH1 0x4 PUSH2 0x10C4 JUMP JUMPDEST PUSH1 0x1 PUSH1 0x1 PUSH1 0xA0 SHL SUB AND BALANCE SWAP1 JUMP JUMPDEST PUSH1 0xF SLOAD PUSH1 0x0 SWAP1 TIMESTAMP LT ISZERO PUSH2 0x47A JUMPI POP PUSH1 0x0 SWAP1 JUMP JUMPDEST PUSH1 0x10 SLOAD TIMESTAMP GT ISZERO PUSH2 0x48A JUMPI POP PUSH1 0x2 SWAP1 JUMP JUMPDEST POP PUSH1 0x1 SWAP1 JUMP JUMPDEST CALLER PUSH2 0x8FC PUSH2 0x49E DUP4 CALLVALUE PUSH2 0x1372 JUMP JUMPDEST PUSH1 0x40 MLOAD DUP2 ISZERO SWAP1 SWAP3 MUL SWAP2 PUSH1 0x0 DUP2 DUP2 DUP2 DUP6 DUP9 DUP9 CALL SWAP4 POP POP POP POP ISZERO DUP1 ISZERO PUSH2 0x4C6 JUMPI RETURNDATASIZE PUSH1 0x0 DUP1 RETURNDATACOPY RETURNDATASIZE PUSH1 0x0 REVERT JUMPDEST POP POP JUMP JUMPDEST PUSH1 0xB DUP1 SLOAD PUSH1 0x1 PUSH1 0x1 PUSH1 0xA0 SHL SUB DUP1 DUP8 AND PUSH1 0x1 PUSH1 0x1 PUSH1 0xA0 SHL SUB NOT SWAP3 DUP4 AND OR SWAP1 SWAP3 SSTORE PUSH1 0xC DUP1 SLOAD DUP7 DUP5 AND SWAP1 DUP4 AND DUP2 OR SWAP1 SWAP2 SSTORE PUSH1 0xD DUP1 SLOAD SWAP4 DUP7 AND SWAP4 SWAP1 SWAP3 AND SWAP3 SWAP1 SWAP3 OR SWAP1 SSTORE PUSH1 0x40 DUP1 MLOAD PUSH4 0x313CE567 PUSH1 0xE0 SHL DUP2 MSTORE SWAP1 MLOAD PUSH4 0x313CE567 SWAP2 PUSH1 0x4 DUP1 DUP3 ADD SWAP3 PUSH1 0x20 SWAP3 SWAP1 SWAP2 SWAP1 DUP3 SWAP1 SUB ADD DUP2 DUP7 DUP1 EXTCODESIZE ISZERO DUP1 ISZERO PUSH2 0x53F JUMPI PUSH1 0x0 DUP1 REVERT JUMPDEST POP GAS STATICCALL ISZERO DUP1 ISZERO PUSH2 0x553 JUMPI RETURNDATASIZE PUSH1 0x0 DUP1 RETURNDATACOPY RETURNDATASIZE PUSH1 0x0 REVERT JUMPDEST POP POP POP POP PUSH1 0x40 MLOAD RETURNDATASIZE PUSH1 0x1F NOT PUSH1 0x1F DUP3 ADD AND DUP3 ADD DUP1 PUSH1 0x40 MSTORE POP DUP2 ADD SWAP1 PUSH2 0x577 SWAP2 SWAP1 PUSH2 0x11DF JUMP JUMPDEST PUSH2 0x582 SWAP1 PUSH1 0xA PUSH2 0x12AB JUMP JUMPDEST DUP2 MLOAD PUSH2 0x58E SWAP2 SWAP1 PUSH2 0x1353 JUMP JUMPDEST PUSH1 0xE SSTORE PUSH1 0x20 DUP1 DUP3 ADD MLOAD PUSH1 0xF SSTORE PUSH1 0x40 DUP1 DUP4 ADD MLOAD PUSH1 0x10 SSTORE PUSH1 0x60 DUP4 ADD MLOAD PUSH1 0x11 SSTORE PUSH1 0xD SLOAD DUP2 MLOAD PUSH4 0x313CE567 PUSH1 0xE0 SHL DUP2 MSTORE SWAP2 MLOAD PUSH1 0x1 PUSH1 0x1 PUSH1 0xA0 SHL SUB SWAP1 SWAP2 AND SWAP3 PUSH4 0x313CE567 SWAP3 PUSH1 0x4 DUP1 DUP3 ADD SWAP4 SWAP2 DUP3 SWAP1 SUB ADD DUP2 DUP7 DUP1 EXTCODESIZE ISZERO DUP1 ISZERO PUSH2 0x5E9 JUMPI PUSH1 0x0 DUP1 REVERT JUMPDEST POP GAS STATICCALL ISZERO DUP1 ISZERO PUSH2 0x5FD JUMPI RETURNDATASIZE PUSH1 0x0 DUP1 RETURNDATACOPY RETURNDATASIZE PUSH1 0x0 REVERT JUMPDEST POP POP POP POP PUSH1 0x40 MLOAD RETURNDATASIZE PUSH1 0x1F NOT PUSH1 0x1F DUP3 ADD AND DUP3 ADD DUP1 PUSH1 0x40 MSTORE POP DUP2 ADD SWAP1 PUSH2 0x621 SWAP2 SWAP1 PUSH2 0x11DF JUMP JUMPDEST PUSH2 0x62C SWAP1 PUSH1 0xA PUSH2 0x12AB JUMP JUMPDEST PUSH1 0x80 DUP3 ADD MLOAD PUSH2 0x63B SWAP2 SWAP1 PUSH2 0x1353 JUMP JUMPDEST PUSH1 0x12 SSTORE PUSH1 0xA0 DUP2 ADD MLOAD PUSH1 0x13 SSTORE PUSH1 0xC0 DUP2 ADD MLOAD PUSH1 0x14 SSTORE PUSH1 0xD SLOAD PUSH1 0x17 SLOAD PUSH1 0x15 DUP1 SLOAD PUSH1 0x1 PUSH1 0x1 PUSH1 0xA0 SHL SUB SWAP4 DUP5 AND SWAP4 SWAP1 SWAP3 AND SWAP3 SWAP1 SWAP3 EQ PUSH1 0xFF NOT SWAP1 SWAP2 AND OR SWAP1 SSTORE PUSH1 0xE SLOAD PUSH2 0x681 SWAP1 DUP1 PUSH2 0xEAD JUMP JUMPDEST PUSH1 0x16 SSTORE POP POP POP POP JUMP JUMPDEST PUSH1 0x1 SLOAD PUSH1 0x1 PUSH1 0x1 PUSH1 0xA0 SHL SUB AND CALLER EQ PUSH2 0x6E9 JUMPI PUSH1 0x40 MLOAD PUSH3 0x461BCD PUSH1 0xE5 SHL DUP2 MSTORE PUSH1 0x20 PUSH1 0x4 DUP3 ADD DUP2 SWAP1 MSTORE PUSH1 0x24 DUP3 ADD MSTORE PUSH32 0x4F776E61626C653A2063616C6C6572206973206E6F7420746865206F776E6572 PUSH1 0x44 DUP3 ADD MSTORE PUSH1 0x64 ADD JUMPDEST PUSH1 0x40 MLOAD DUP1 SWAP2 SUB SWAP1 REVERT JUMPDEST PUSH2 0x6F3 PUSH1 0x0 PUSH2 0xEB9 JUMP JUMPDEST JUMP JUMPDEST PUSH1 0x40 MLOAD CALLER SWAP1 SELFBALANCE DUP1 ISZERO PUSH2 0x8FC MUL SWAP2 PUSH1 0x0 DUP2 DUP2 DUP2 DUP6 DUP9 DUP9 CALL SWAP4 POP POP POP POP ISZERO DUP1 ISZERO PUSH2 0x721 JUMPI RETURNDATASIZE PUSH1 0x0 DUP1 RETURNDATACOPY RETURNDATASIZE PUSH1 0x0 REVERT JUMPDEST POP JUMP JUMPDEST PUSH1 0x2 PUSH1 0x0 SLOAD EQ ISZERO PUSH2 0x777 JUMPI PUSH1 0x40 MLOAD PUSH3 0x461BCD PUSH1 0xE5 SHL DUP2 MSTORE PUSH1 0x20 PUSH1 0x4 DUP3 ADD MSTORE PUSH1 0x1F PUSH1 0x24 DUP3 ADD MSTORE PUSH32 0x5265656E7472616E637947756172643A207265656E7472616E742063616C6C00 PUSH1 0x44 DUP3 ADD MSTORE PUSH1 0x64 ADD PUSH2 0x6E0 JUMP JUMPDEST PUSH1 0x2 PUSH1 0x0 SSTORE PUSH2 0x784 PUSH2 0x467 JUMP JUMPDEST PUSH1 0x1 EQ PUSH2 0x7C2 JUMPI PUSH1 0x40 MLOAD PUSH3 0x461BCD PUSH1 0xE5 SHL DUP2 MSTORE PUSH1 0x20 PUSH1 0x4 DUP3 ADD MSTORE PUSH1 0xC PUSH1 0x24 DUP3 ADD MSTORE PUSH12 0x53616C652073756365737373 PUSH1 0xA0 SHL PUSH1 0x44 DUP3 ADD MSTORE PUSH1 0x64 ADD PUSH2 0x6E0 JUMP JUMPDEST PUSH1 0x6 SLOAD PUSH1 0x5 SLOAD PUSH1 0x0 SWAP2 PUSH2 0x7D4 SWAP2 PUSH2 0x1372 JUMP JUMPDEST GT PUSH2 0x821 JUMPI PUSH1 0x40 MLOAD PUSH3 0x461BCD PUSH1 0xE5 SHL DUP2 MSTORE PUSH1 0x20 PUSH1 0x4 DUP3 ADD MSTORE PUSH1 0x1B PUSH1 0x24 DUP3 ADD MSTORE PUSH32 0x416C6C20746F6B656E20686173206265656E2077697468647261770000000000 PUSH1 0x44 DUP3 ADD MSTORE PUSH1 0x64 ADD PUSH2 0x6E0 JUMP JUMPDEST CALLER PUSH1 0x0 SWAP1 DUP2 MSTORE PUSH1 0x2 PUSH1 0x20 MSTORE PUSH1 0x40 SWAP1 KECCAK256 PUSH1 0x1 DUP2 ADD SLOAD PUSH2 0x891 JUMPI PUSH1 0x40 MLOAD PUSH3 0x461BCD PUSH1 0xE5 SHL DUP2 MSTORE PUSH1 0x20 PUSH1 0x4 DUP3 ADD MSTORE PUSH1 0x27 PUSH1 0x24 DUP3 ADD MSTORE PUSH32 0x596F7520776974686472617720616C6C206F722068617665206E6F7420626F75 PUSH1 0x44 DUP3 ADD MSTORE PUSH7 0x19DA1D081E595D PUSH1 0xCA SHL PUSH1 0x64 DUP3 ADD MSTORE PUSH1 0x84 ADD PUSH2 0x6E0 JUMP JUMPDEST PUSH1 0x0 PUSH2 0x8BB PUSH2 0x3E8 PUSH2 0x8B5 PUSH1 0xB PUSH1 0x9 ADD SLOAD DUP6 PUSH1 0x1 ADD SLOAD PUSH2 0xEAD SWAP1 SWAP2 SWAP1 PUSH4 0xFFFFFFFF AND JUMP JUMPDEST SWAP1 PUSH2 0xF0B JUMP JUMPDEST SWAP1 POP PUSH1 0x0 DUP2 DUP4 PUSH1 0x1 ADD SLOAD PUSH2 0x8CF SWAP2 SWAP1 PUSH2 0x1372 JUMP JUMPDEST PUSH1 0xC SLOAD PUSH1 0x40 MLOAD PUSH4 0xA9059CBB PUSH1 0xE0 SHL DUP2 MSTORE CALLER PUSH1 0x4 DUP3 ADD MSTORE PUSH1 0x24 DUP2 ADD DUP6 SWAP1 MSTORE SWAP2 SWAP3 POP PUSH1 0x1 PUSH1 0x1 PUSH1 0xA0 SHL SUB AND SWAP1 PUSH4 0xA9059CBB SWAP1 PUSH1 0x44 ADD PUSH1 0x20 PUSH1 0x40 MLOAD DUP1 DUP4 SUB DUP2 PUSH1 0x0 DUP8 DUP1 EXTCODESIZE ISZERO DUP1 ISZERO PUSH2 0x91C JUMPI PUSH1 0x0 DUP1 REVERT JUMPDEST POP GAS CALL ISZERO DUP1 ISZERO PUSH2 0x930 JUMPI RETURNDATASIZE PUSH1 0x0 DUP1 RETURNDATACOPY RETURNDATASIZE PUSH1 0x0 REVERT JUMPDEST POP POP POP POP PUSH1 0x40 MLOAD RETURNDATASIZE PUSH1 0x1F NOT PUSH1 0x1F DUP3 ADD AND DUP3 ADD DUP1 PUSH1 0x40 MSTORE POP DUP2 ADD SWAP1 PUSH2 0x954 SWAP2 SWAP1 PUSH2 0x11A7 JUMP JUMPDEST POP PUSH1 0xC SLOAD PUSH1 0x40 MLOAD PUSH4 0xA9059CBB PUSH1 0xE0 SHL DUP2 MSTORE ADDRESS PUSH1 0x4 DUP3 ADD MSTORE PUSH1 0x24 DUP2 ADD DUP5 SWAP1 MSTORE PUSH1 0x1 PUSH1 0x1 PUSH1 0xA0 SHL SUB SWAP1 SWAP2 AND SWAP1 PUSH4 0xA9059CBB SWAP1 PUSH1 0x44 ADD PUSH1 0x20 PUSH1 0x40 MLOAD DUP1 DUP4 SUB DUP2 PUSH1 0x0 DUP8 DUP1 EXTCODESIZE ISZERO DUP1 ISZERO PUSH2 0x9A1 JUMPI PUSH1 0x0 DUP1 REVERT JUMPDEST POP GAS CALL ISZERO DUP1 ISZERO PUSH2 0x9B5 JUMPI RETURNDATASIZE PUSH1 0x0 DUP1 RETURNDATACOPY RETURNDATASIZE PUSH1 0x0 REVERT JUMPDEST POP POP POP POP PUSH1 0x40 MLOAD RETURNDATASIZE PUSH1 0x1F NOT PUSH1 0x1F DUP3 ADD AND DUP3 ADD DUP1 PUSH1 0x40 MSTORE POP DUP2 ADD SWAP1 PUSH2 0x9D9 SWAP2 SWAP1 PUSH2 0x11A7 JUMP JUMPDEST POP POP PUSH1 0x1 PUSH1 0x0 SSTORE POP POP JUMP JUMPDEST PUSH1 0x2 PUSH1 0x0 SLOAD EQ ISZERO PUSH2 0xA37 JUMPI PUSH1 0x40 MLOAD PUSH3 0x461BCD PUSH1 0xE5 SHL DUP2 MSTORE PUSH1 0x20 PUSH1 0x4 DUP3 ADD MSTORE PUSH1 0x1F PUSH1 0x24 DUP3 ADD MSTORE PUSH32 0x5265656E7472616E637947756172643A207265656E7472616E742063616C6C00 PUSH1 0x44 DUP3 ADD MSTORE PUSH1 0x64 ADD PUSH2 0x6E0 JUMP JUMPDEST PUSH1 0x2 PUSH1 0x0 SSTORE PUSH2 0xA44 PUSH2 0x467 JUMP JUMPDEST PUSH1 0x1 EQ PUSH2 0xA80 JUMPI PUSH1 0x40 MLOAD PUSH3 0x461BCD PUSH1 0xE5 SHL DUP2 MSTORE PUSH1 0x20 PUSH1 0x4 DUP3 ADD MSTORE PUSH1 0xA PUSH1 0x24 DUP3 ADD MSTORE PUSH10 0x4E6F7420616374697665 PUSH1 0xB0 SHL PUSH1 0x44 DUP3 ADD MSTORE PUSH1 0x64 ADD PUSH2 0x6E0 JUMP JUMPDEST CALLER PUSH1 0x0 SWAP1 DUP2 MSTORE PUSH1 0x2 PUSH1 0x20 MSTORE PUSH1 0x40 DUP2 KECCAK256 PUSH1 0x11 SLOAD SWAP1 SWAP2 DUP4 SWAP2 DUP3 SWAP2 SWAP1 PUSH2 0x3E8 SWAP1 DUP4 LT ISZERO PUSH2 0xADF JUMPI PUSH1 0x40 MLOAD PUSH3 0x461BCD PUSH1 0xE5 SHL DUP2 MSTORE PUSH1 0x20 PUSH1 0x4 DUP3 ADD MSTORE PUSH1 0x10 PUSH1 0x24 DUP3 ADD MSTORE PUSH16 0x4E6F7420656E6F7567682076616C7565 PUSH1 0x80 SHL PUSH1 0x44 DUP3 ADD MSTORE PUSH1 0x64 ADD PUSH2 0x6E0 JUMP JUMPDEST PUSH1 0x12 SLOAD DUP4 GT ISZERO PUSH2 0xB22 JUMPI PUSH1 0x40 MLOAD PUSH3 0x461BCD PUSH1 0xE5 SHL DUP2 MSTORE PUSH1 0x20 PUSH1 0x4 DUP3 ADD MSTORE PUSH1 0xE PUSH1 0x24 DUP3 ADD MSTORE PUSH14 0x4F766572666C6F772076616C7565 PUSH1 0x90 SHL PUSH1 0x44 DUP3 ADD MSTORE PUSH1 0x64 ADD PUSH2 0x6E0 JUMP JUMPDEST PUSH2 0xB2A PUSH2 0xDB5 JUMP JUMPDEST PUSH2 0xB60 JUMPI PUSH2 0xB51 DUP2 PUSH2 0x8B5 DUP6 PUSH2 0xB4B PUSH1 0x18 SLOAD DUP7 PUSH2 0xF17 SWAP1 SWAP2 SWAP1 PUSH4 0xFFFFFFFF AND JUMP JUMPDEST SWAP1 PUSH2 0xEAD JUMP JUMPDEST SWAP3 POP PUSH2 0xB5D DUP4 DUP6 PUSH2 0x1372 JUMP JUMPDEST SWAP2 POP JUMPDEST PUSH1 0x4 SLOAD PUSH1 0x12 SLOAD PUSH1 0x0 SWAP2 PUSH2 0xB72 SWAP2 PUSH2 0x1372 JUMP JUMPDEST SWAP1 POP PUSH1 0x0 DUP2 GT PUSH2 0xBB6 JUMPI PUSH1 0x40 MLOAD PUSH3 0x461BCD PUSH1 0xE5 SHL DUP2 MSTORE PUSH1 0x20 PUSH1 0x4 DUP3 ADD MSTORE PUSH1 0xF PUSH1 0x24 DUP3 ADD MSTORE PUSH15 0x53616C652069732053756363657373 PUSH1 0x88 SHL PUSH1 0x44 DUP3 ADD MSTORE PUSH1 0x64 ADD PUSH2 0x6E0 JUMP JUMPDEST PUSH1 0x0 PUSH2 0xC5D PUSH1 0xB PUSH1 0x2 ADD PUSH1 0x0 SWAP1 SLOAD SWAP1 PUSH2 0x100 EXP SWAP1 DIV PUSH1 0x1 PUSH1 0x1 PUSH1 0xA0 SHL SUB AND PUSH1 0x1 PUSH1 0x1 PUSH1 0xA0 SHL SUB AND PUSH4 0x313CE567 PUSH1 0x40 MLOAD DUP2 PUSH4 0xFFFFFFFF AND PUSH1 0xE0 SHL DUP2 MSTORE PUSH1 0x4 ADD PUSH1 0x20 PUSH1 0x40 MLOAD DUP1 DUP4 SUB DUP2 DUP7 DUP1 EXTCODESIZE ISZERO DUP1 ISZERO PUSH2 0xC0C JUMPI PUSH1 0x0 DUP1 REVERT JUMPDEST POP GAS STATICCALL ISZERO DUP1 ISZERO PUSH2 0xC20 JUMPI RETURNDATASIZE PUSH1 0x0 DUP1 RETURNDATACOPY RETURNDATASIZE PUSH1 0x0 REVERT JUMPDEST POP POP POP POP PUSH1 0x40 MLOAD RETURNDATASIZE PUSH1 0x1F NOT PUSH1 0x1F DUP3 ADD AND DUP3 ADD DUP1 PUSH1 0x40 MSTORE POP DUP2 ADD SWAP1 PUSH2 0xC44 SWAP2 SWAP1 PUSH2 0x11DF JUMP JUMPDEST PUSH2 0xC4F SWAP1 PUSH1 0xA PUSH2 0x12AB JUMP JUMPDEST PUSH1 0xE SLOAD PUSH2 0x8B5 SWAP1 DUP9 SWAP1 PUSH2 0xEAD JUMP JUMPDEST SWAP1 POP DUP6 DUP8 PUSH1 0x0 ADD PUSH1 0x0 DUP3 DUP3 SLOAD PUSH2 0xC73 SWAP2 SWAP1 PUSH2 0x1230 JUMP JUMPDEST SWAP3 POP POP DUP2 SWAP1 SSTORE POP DUP1 DUP8 PUSH1 0x1 ADD PUSH1 0x0 DUP3 DUP3 SLOAD PUSH2 0xC8E SWAP2 SWAP1 PUSH2 0x1230 JUMP JUMPDEST SWAP1 SWAP2 SSTORE POP POP PUSH1 0x4 DUP1 SLOAD DUP7 SWAP2 SWAP1 PUSH1 0x0 SWAP1 PUSH2 0xCA8 SWAP1 DUP5 SWAP1 PUSH2 0x1230 JUMP JUMPDEST SWAP1 SWAP2 SSTORE POP POP PUSH1 0x5 DUP1 SLOAD DUP3 SWAP2 SWAP1 PUSH1 0x0 SWAP1 PUSH2 0xCC2 SWAP1 DUP5 SWAP1 PUSH2 0x1230 JUMP JUMPDEST SWAP1 SWAP2 SSTORE POP POP PUSH1 0x8 DUP1 SLOAD SWAP1 PUSH1 0x0 PUSH2 0xCD7 DUP4 PUSH2 0x1389 JUMP JUMPDEST SWAP1 SWAP2 SSTORE POP POP CALLER PUSH1 0x0 SWAP1 DUP2 MSTORE PUSH1 0x3 PUSH1 0x20 MSTORE PUSH1 0x40 DUP2 KECCAK256 DUP1 SLOAD DUP7 SWAP3 SWAP1 PUSH2 0xCFB SWAP1 DUP5 SWAP1 PUSH2 0x1230 JUMP JUMPDEST SWAP3 POP POP DUP2 SWAP1 SSTORE POP DUP4 PUSH1 0x1B PUSH1 0x0 DUP3 DUP3 SLOAD PUSH2 0xD14 SWAP2 SWAP1 PUSH2 0x1230 JUMP JUMPDEST SWAP1 SWAP2 SSTORE POP POP PUSH1 0x15 SLOAD PUSH1 0xFF AND DUP1 ISZERO PUSH2 0xD33 JUMPI POP CALLVALUE PUSH2 0xD31 DUP6 DUP8 PUSH2 0x1230 JUMP JUMPDEST LT JUMPDEST ISZERO PUSH2 0xD7B JUMPI CALLER PUSH2 0x8FC DUP6 PUSH2 0xD47 DUP9 CALLVALUE PUSH2 0x1372 JUMP JUMPDEST PUSH2 0xD51 SWAP2 SWAP1 PUSH2 0x1372 JUMP JUMPDEST PUSH1 0x40 MLOAD DUP2 ISZERO SWAP1 SWAP3 MUL SWAP2 PUSH1 0x0 DUP2 DUP2 DUP2 DUP6 DUP9 DUP9 CALL SWAP4 POP POP POP POP ISZERO DUP1 ISZERO PUSH2 0xD79 JUMPI RETURNDATASIZE PUSH1 0x0 DUP1 RETURNDATACOPY RETURNDATASIZE PUSH1 0x0 REVERT JUMPDEST POP JUMPDEST PUSH1 0x15 SLOAD PUSH1 0xFF AND PUSH2 0xDA6 JUMPI PUSH1 0xD SLOAD PUSH2 0xDA6 SWAP1 PUSH1 0x1 PUSH1 0x1 PUSH1 0xA0 SHL SUB AND CALLER ADDRESS PUSH2 0xDA1 DUP9 DUP11 PUSH2 0x1230 JUMP JUMPDEST PUSH2 0xF23 JUMP JUMPDEST POP POP PUSH1 0x1 PUSH1 0x0 SSTORE POP POP POP POP POP POP JUMP JUMPDEST PUSH1 0x0 PUSH2 0xDC2 PUSH1 0x19 CALLER PUSH2 0x1053 JUMP JUMPDEST SWAP1 POP SWAP1 JUMP JUMPDEST PUSH1 0x1 SLOAD PUSH1 0x1 PUSH1 0x1 PUSH1 0xA0 SHL SUB AND CALLER EQ PUSH2 0xE21 JUMPI PUSH1 0x40 MLOAD PUSH3 0x461BCD PUSH1 0xE5 SHL DUP2 MSTORE PUSH1 0x20 PUSH1 0x4 DUP3 ADD DUP2 SWAP1 MSTORE PUSH1 0x24 DUP3 ADD MSTORE PUSH32 0x4F776E61626C653A2063616C6C6572206973206E6F7420746865206F776E6572 PUSH1 0x44 DUP3 ADD MSTORE PUSH1 0x64 ADD PUSH2 0x6E0 JUMP JUMPDEST PUSH1 0x1 PUSH1 0x1 PUSH1 0xA0 SHL SUB DUP2 AND PUSH2 0xE86 JUMPI PUSH1 0x40 MLOAD PUSH3 0x461BCD PUSH1 0xE5 SHL DUP2 MSTORE PUSH1 0x20 PUSH1 0x4 DUP3 ADD MSTORE PUSH1 0x26 PUSH1 0x24 DUP3 ADD MSTORE PUSH32 0x4F776E61626C653A206E6577206F776E657220697320746865207A65726F2061 PUSH1 0x44 DUP3 ADD MSTORE PUSH6 0x646472657373 PUSH1 0xD0 SHL PUSH1 0x64 DUP3 ADD MSTORE PUSH1 0x84 ADD PUSH2 0x6E0 JUMP JUMPDEST PUSH2 0x721 DUP2 PUSH2 0xEB9 JUMP JUMPDEST PUSH1 0x0 PUSH2 0xEA4 DUP4 PUSH1 0x1 PUSH1 0x1 PUSH1 0xA0 SHL SUB DUP5 AND PUSH2 0x1075 JUMP JUMPDEST SWAP1 POP JUMPDEST SWAP3 SWAP2 POP POP JUMP JUMPDEST PUSH1 0x0 PUSH2 0xEA4 DUP3 DUP5 PUSH2 0x1353 JUMP JUMPDEST PUSH1 0x1 DUP1 SLOAD PUSH1 0x1 PUSH1 0x1 PUSH1 0xA0 SHL SUB DUP4 DUP2 AND PUSH1 0x1 PUSH1 0x1 PUSH1 0xA0 SHL SUB NOT DUP4 AND DUP2 OR SWAP1 SWAP4 SSTORE PUSH1 0x40 MLOAD SWAP2 AND SWAP2 SWAP1 DUP3 SWAP1 PUSH32 0x8BE0079C531659141344CD1FD0A4F28419497F9722A3DAAFE3B4186F6B6457E0 SWAP1 PUSH1 0x0 SWAP1 LOG3 POP POP JUMP JUMPDEST PUSH1 0x0 PUSH2 0xEA4 DUP3 DUP5 PUSH2 0x1248 JUMP JUMPDEST PUSH1 0x0 PUSH2 0xEA4 DUP3 DUP5 PUSH2 0x1372 JUMP JUMPDEST PUSH1 0x40 DUP1 MLOAD PUSH1 0x1 PUSH1 0x1 PUSH1 0xA0 SHL SUB DUP6 DUP2 AND PUSH1 0x24 DUP4 ADD MSTORE DUP5 DUP2 AND PUSH1 0x44 DUP4 ADD MSTORE PUSH1 0x64 DUP1 DUP4 ADD DUP6 SWAP1 MSTORE DUP4 MLOAD DUP1 DUP5 SUB SWAP1 SWAP2 ADD DUP2 MSTORE PUSH1 0x84 SWAP1 SWAP3 ADD DUP4 MSTORE PUSH1 0x20 DUP3 ADD DUP1 MLOAD PUSH1 0x1 PUSH1 0x1 PUSH1 0xE0 SHL SUB AND PUSH4 0x23B872DD PUSH1 0xE0 SHL OR SWAP1 MSTORE SWAP2 MLOAD PUSH1 0x0 SWAP3 DUP4 SWAP3 SWAP1 DUP9 AND SWAP2 PUSH2 0xF87 SWAP2 SWAP1 PUSH2 0x11F7 JUMP JUMPDEST PUSH1 0x0 PUSH1 0x40 MLOAD DUP1 DUP4 SUB DUP2 PUSH1 0x0 DUP7 GAS CALL SWAP2 POP POP RETURNDATASIZE DUP1 PUSH1 0x0 DUP2 EQ PUSH2 0xFC4 JUMPI PUSH1 0x40 MLOAD SWAP2 POP PUSH1 0x1F NOT PUSH1 0x3F RETURNDATASIZE ADD AND DUP3 ADD PUSH1 0x40 MSTORE RETURNDATASIZE DUP3 MSTORE RETURNDATASIZE PUSH1 0x0 PUSH1 0x20 DUP5 ADD RETURNDATACOPY PUSH2 0xFC9 JUMP JUMPDEST PUSH1 0x60 SWAP2 POP JUMPDEST POP SWAP2 POP SWAP2 POP DUP2 DUP1 ISZERO PUSH2 0xFF3 JUMPI POP DUP1 MLOAD ISZERO DUP1 PUSH2 0xFF3 JUMPI POP DUP1 DUP1 PUSH1 0x20 ADD SWAP1 MLOAD DUP2 ADD SWAP1 PUSH2 0xFF3 SWAP2 SWAP1 PUSH2 0x11A7 JUMP JUMPDEST PUSH2 0x104B JUMPI PUSH1 0x40 MLOAD PUSH3 0x461BCD PUSH1 0xE5 SHL DUP2 MSTORE PUSH1 0x20 PUSH1 0x4 DUP3 ADD MSTORE PUSH1 0x24 DUP1 DUP3 ADD MSTORE PUSH32 0x5472616E7366657248656C7065723A205452414E534645525F46524F4D5F4641 PUSH1 0x44 DUP3 ADD MSTORE PUSH4 0x12531151 PUSH1 0xE2 SHL PUSH1 0x64 DUP3 ADD MSTORE PUSH1 0x84 ADD PUSH2 0x6E0 JUMP JUMPDEST POP POP POP POP POP POP JUMP JUMPDEST PUSH1 0x1 PUSH1 0x1 PUSH1 0xA0 SHL SUB DUP2 AND PUSH1 0x0 SWAP1 DUP2 MSTORE PUSH1 0x1 DUP4 ADD PUSH1 0x20 MSTORE PUSH1 0x40 DUP2 KECCAK256 SLOAD ISZERO ISZERO PUSH2 0xEA4 JUMP JUMPDEST PUSH1 0x0 DUP2 DUP2 MSTORE PUSH1 0x1 DUP4 ADD PUSH1 0x20 MSTORE PUSH1 0x40 DUP2 KECCAK256 SLOAD PUSH2 0x10BC JUMPI POP DUP2 SLOAD PUSH1 0x1 DUP2 DUP2 ADD DUP5 SSTORE PUSH1 0x0 DUP5 DUP2 MSTORE PUSH1 0x20 DUP1 DUP3 KECCAK256 SWAP1 SWAP4 ADD DUP5 SWAP1 SSTORE DUP5 SLOAD DUP5 DUP3 MSTORE DUP3 DUP7 ADD SWAP1 SWAP4 MSTORE PUSH1 0x40 SWAP1 KECCAK256 SWAP2 SWAP1 SWAP2 SSTORE PUSH2 0xEA7 JUMP JUMPDEST POP PUSH1 0x0 PUSH2 0xEA7 JUMP JUMPDEST PUSH1 0x0 PUSH1 0x20 DUP3 DUP5 SUB SLT ISZERO PUSH2 0x10D5 JUMPI DUP1 DUP2 REVERT JUMPDEST DUP2 CALLDATALOAD PUSH2 0x10E0 DUP2 PUSH2 0x13D0 JUMP JUMPDEST SWAP4 SWAP3 POP POP POP JUMP JUMPDEST PUSH1 0x0 DUP1 PUSH1 0x0 DUP1 PUSH2 0x140 DUP1 DUP7 DUP9 SUB SLT ISZERO PUSH2 0x10FE JUMPI DUP4 DUP5 REVERT JUMPDEST DUP6 CALLDATALOAD PUSH2 0x1109 DUP2 PUSH2 0x13D0 JUMP JUMPDEST SWAP5 POP PUSH1 0x20 DUP7 DUP2 ADD CALLDATALOAD PUSH2 0x111A DUP2 PUSH2 0x13D0 JUMP JUMPDEST SWAP5 POP PUSH1 0x40 DUP8 ADD CALLDATALOAD PUSH2 0x112A DUP2 PUSH2 0x13D0 JUMP JUMPDEST SWAP4 POP PUSH1 0x7F DUP8 ADD DUP9 SGT PUSH2 0x113A JUMPI DUP3 DUP4 REVERT JUMPDEST PUSH1 0x40 MLOAD PUSH1 0xE0 DUP2 ADD DUP2 DUP2 LT PUSH8 0xFFFFFFFFFFFFFFFF DUP3 GT OR ISZERO PUSH2 0x115D JUMPI PUSH2 0x115D PUSH2 0x13BA JUMP JUMPDEST PUSH1 0x40 MSTORE DUP1 PUSH1 0x60 DUP10 ADD DUP5 DUP11 ADD DUP12 LT ISZERO PUSH2 0x1173 JUMPI DUP6 DUP7 REVERT JUMPDEST DUP6 SWAP5 POP JUMPDEST PUSH1 0x7 DUP6 LT ISZERO PUSH2 0x1196 JUMPI DUP1 CALLDATALOAD DUP3 MSTORE PUSH1 0x1 SWAP5 SWAP1 SWAP5 ADD SWAP4 SWAP1 DUP4 ADD SWAP1 DUP4 ADD PUSH2 0x1177 JUMP JUMPDEST POP POP DUP1 SWAP4 POP POP POP POP SWAP3 SWAP6 SWAP2 SWAP5 POP SWAP3 POP JUMP JUMPDEST PUSH1 0x0 PUSH1 0x20 DUP3 DUP5 SUB SLT ISZERO PUSH2 0x11B8 JUMPI DUP1 DUP2 REVERT JUMPDEST DUP2 MLOAD DUP1 ISZERO ISZERO DUP2 EQ PUSH2 0x10E0 JUMPI DUP2 DUP3 REVERT JUMPDEST PUSH1 0x0 PUSH1 0x20 DUP3 DUP5 SUB SLT ISZERO PUSH2 0x11D8 JUMPI DUP1 DUP2 REVERT JUMPDEST POP CALLDATALOAD SWAP2 SWAP1 POP JUMP JUMPDEST PUSH1 0x0 PUSH1 0x20 DUP3 DUP5 SUB SLT ISZERO PUSH2 0x11F0 JUMPI DUP1 DUP2 REVERT JUMPDEST POP MLOAD SWAP2 SWAP1 POP JUMP JUMPDEST PUSH1 0x0 DUP3 MLOAD DUP2 JUMPDEST DUP2 DUP2 LT ISZERO PUSH2 0x1217 JUMPI PUSH1 0x20 DUP2 DUP7 ADD DUP2 ADD MLOAD DUP6 DUP4 ADD MSTORE ADD PUSH2 0x11FD JUMP JUMPDEST DUP2 DUP2 GT ISZERO PUSH2 0x1225 JUMPI DUP3 DUP3 DUP6 ADD MSTORE JUMPDEST POP SWAP2 SWAP1 SWAP2 ADD SWAP3 SWAP2 POP POP JUMP JUMPDEST PUSH1 0x0 DUP3 NOT DUP3 GT ISZERO PUSH2 0x1243 JUMPI PUSH2 0x1243 PUSH2 0x13A4 JUMP JUMPDEST POP ADD SWAP1 JUMP JUMPDEST PUSH1 0x0 DUP3 PUSH2 0x1263 JUMPI PUSH4 0x4E487B71 PUSH1 0xE0 SHL DUP2 MSTORE PUSH1 0x12 PUSH1 0x4 MSTORE PUSH1 0x24 DUP2 REVERT JUMPDEST POP DIV SWAP1 JUMP JUMPDEST PUSH1 0x1 DUP2 DUP2 JUMPDEST DUP1 DUP6 GT ISZERO PUSH2 0x12A3 JUMPI DUP2 PUSH1 0x0 NOT DIV DUP3 GT ISZERO PUSH2 0x1289 JUMPI PUSH2 0x1289 PUSH2 0x13A4 JUMP JUMPDEST DUP1 DUP6 AND ISZERO PUSH2 0x1296 JUMPI SWAP2 DUP2 MUL SWAP2 JUMPDEST SWAP4 DUP5 SHR SWAP4 SWAP1 DUP1 MUL SWAP1 PUSH2 0x126D JUMP JUMPDEST POP SWAP3 POP SWAP3 SWAP1 POP JUMP JUMPDEST PUSH1 0x0 PUSH2 0xEA4 DUP4 DUP4 PUSH1 0x0 DUP3 PUSH2 0x12C1 JUMPI POP PUSH1 0x1 PUSH2 0xEA7 JUMP JUMPDEST DUP2 PUSH2 0x12CE JUMPI POP PUSH1 0x0 PUSH2 0xEA7 JUMP JUMPDEST DUP2 PUSH1 0x1 DUP2 EQ PUSH2 0x12E4 JUMPI PUSH1 0x2 DUP2 EQ PUSH2 0x12EE JUMPI PUSH2 0x130A JUMP JUMPDEST PUSH1 0x1 SWAP2 POP POP PUSH2 0xEA7 JUMP JUMPDEST PUSH1 0xFF DUP5 GT ISZERO PUSH2 0x12FF JUMPI PUSH2 0x12FF PUSH2 0x13A4 JUMP JUMPDEST POP POP PUSH1 0x1 DUP3 SHL PUSH2 0xEA7 JUMP JUMPDEST POP PUSH1 0x20 DUP4 LT PUSH2 0x133 DUP4 LT AND PUSH1 0x4E DUP5 LT PUSH1 0xB DUP5 LT AND OR ISZERO PUSH2 0x132D JUMPI POP DUP2 DUP2 EXP PUSH2 0xEA7 JUMP JUMPDEST PUSH2 0x1337 DUP4 DUP4 PUSH2 0x1268 JUMP JUMPDEST DUP1 PUSH1 0x0 NOT DIV DUP3 GT ISZERO PUSH2 0x134B JUMPI PUSH2 0x134B PUSH2 0x13A4 JUMP JUMPDEST MUL SWAP4 SWAP3 POP POP POP JUMP JUMPDEST PUSH1 0x0 DUP2 PUSH1 0x0 NOT DIV DUP4 GT DUP3 ISZERO ISZERO AND ISZERO PUSH2 0x136D JUMPI PUSH2 0x136D PUSH2 0x13A4 JUMP JUMPDEST POP MUL SWAP1 JUMP JUMPDEST PUSH1 0x0 DUP3 DUP3 LT ISZERO PUSH2 0x1384 JUMPI PUSH2 0x1384 PUSH2 0x13A4 JUMP JUMPDEST POP SUB SWAP1 JUMP JUMPDEST PUSH1 0x0 PUSH1 0x0 NOT DUP3 EQ ISZERO PUSH2 0x139D JUMPI PUSH2 0x139D PUSH2 0x13A4 JUMP JUMPDEST POP PUSH1 0x1 ADD SWAP1 JUMP JUMPDEST PUSH4 0x4E487B71 PUSH1 0xE0 SHL PUSH1 0x0 MSTORE PUSH1 0x11 PUSH1 0x4 MSTORE PUSH1 0x24 PUSH1 0x0 REVERT JUMPDEST PUSH4 0x4E487B71 PUSH1 0xE0 SHL PUSH1 0x0 MSTORE PUSH1 0x41 PUSH1 0x4 MSTORE PUSH1 0x24 PUSH1 0x0 REVERT JUMPDEST PUSH1 0x1 PUSH1 0x1 PUSH1 0xA0 SHL SUB DUP2 AND DUP2 EQ PUSH2 0x721 JUMPI PUSH1 0x0 DUP1 REVERT INVALID LOG2 PUSH5 0x6970667358 0x22 SLT KECCAK256 MUL 0x24 PUSH1 0x4C DUP16 ADD PUSH5 0x3A151317D7 SELFBALANCE 0xA8 0xD4 SWAP9 PUSH5 0xAE8E568B26 SWAP15 ADDMOD PUSH31 0x9A21ABAB57826664736F6C6343000804003300000000000000000000000000 "
				},
				"gasEstimates": {
					"creation": {
						"codeDepositCost": "1029400",
						"executionCost": "infinite",
						"totalCost": "infinite"
					},
					"external": {
						"WETH()": "1126",
						"backToken()": "infinite",
						"buyerInfo(address)": "4682",
						"checkAdminAddress()": "1221",
						"deposit(uint256)": "infinite",
						"feeAnyone()": "1085",
						"getBalance(address)": "1172",
						"initialSaleInfor(address,address,address,uint256[7])": "infinite",
						"owner()": "1043",
						"presaleStatus()": "5191",
						"renounceOwnership()": "23506",
						"saleInfor()": "10177",
						"status()": "1933",
						"totalFee()": "1041",
						"transferETH(uint256)": "infinite",
						"transferOwnership(address)": "infinite",
						"userClaimEmergency()": "infinite",
						"userFee(address)": "1258"
					}
				},
				"methodIdentifiers": {
					"WETH()": "ad5c4648",
					"backToken()": "861faf5f",
					"buyerInfo(address)": "e2d3f423",
					"checkAdminAddress()": "cad5b0f7",
					"deposit(uint256)": "b6b55f25",
					"feeAnyone()": "3b5ef2ad",
					"getBalance(address)": "f8b2cb4f",
					"initialSaleInfor(address,address,address,uint256[7])": "61e17655",
					"owner()": "8da5cb5b",
					"presaleStatus()": "acfb2355",
					"renounceOwnership()": "715018a6",
					"saleInfor()": "18856a2f",
					"status()": "200d2ed2",
					"totalFee()": "1df4ccfc",
					"transferETH(uint256)": "4329db46",
					"transferOwnership(address)": "f2fde38b",
					"userClaimEmergency()": "ab33985a",
					"userFee(address)": "56c5f349"
				}
			},
			"storageLayout": {
				"storage": [
					{
						"astId": 2095,
						"contract": "Ethereum/Presale.sol:Presale",
						"label": "_status",
						"offset": 0,
						"slot": "0",
						"type": "t_uint256"
					},
					{
						"astId": 1987,
						"contract": "Ethereum/Presale.sol:Presale",
						"label": "_owner",
						"offset": 0,
						"slot": "1",
						"type": "t_address"
					},
					{
						"astId": 768,
						"contract": "Ethereum/Presale.sol:Presale",
						"label": "buyerInfo",
						"offset": 0,
						"slot": "2",
						"type": "t_mapping(t_address,t_struct(BuyerInfo)747_storage)"
					},
					{
						"astId": 772,
						"contract": "Ethereum/Presale.sol:Presale",
						"label": "userFee",
						"offset": 0,
						"slot": "3",
						"type": "t_mapping(t_address,t_uint256)"
					},
					{
						"astId": 775,
						"contract": "Ethereum/Presale.sol:Presale",
						"label": "presaleStatus",
						"offset": 0,
						"slot": "4",
						"type": "t_struct(PresaleStatus)763_storage"
					},
					{
						"astId": 778,
						"contract": "Ethereum/Presale.sol:Presale",
						"label": "saleInfor",
						"offset": 0,
						"slot": "11",
						"type": "t_struct(SaleInfor)734_storage"
					},
					{
						"astId": 781,
						"contract": "Ethereum/Presale.sol:Presale",
						"label": "WETH",
						"offset": 0,
						"slot": "23",
						"type": "t_contract(IERC20)663"
					},
					{
						"astId": 783,
						"contract": "Ethereum/Presale.sol:Presale",
						"label": "feeAnyone",
						"offset": 0,
						"slot": "24",
						"type": "t_uint256"
					},
					{
						"astId": 786,
						"contract": "Ethereum/Presale.sol:Presale",
						"label": "admins",
						"offset": 0,
						"slot": "25",
						"type": "t_struct(AddressSet)1692_storage"
					},
					{
						"astId": 788,
						"contract": "Ethereum/Presale.sol:Presale",
						"label": "totalFee",
						"offset": 0,
						"slot": "27",
						"type": "t_uint256"
					}
				],
				"types": {
					"t_address": {
						"encoding": "inplace",
						"label": "address",
						"numberOfBytes": "20"
					},
					"t_address_payable": {
						"encoding": "inplace",
						"label": "address payable",
						"numberOfBytes": "20"
					},
					"t_array(t_address)dyn_storage": {
						"base": "t_address",
						"encoding": "dynamic_array",
						"label": "address[]",
						"numberOfBytes": "32"
					},
					"t_array(t_bytes32)dyn_storage": {
						"base": "t_bytes32",
						"encoding": "dynamic_array",
						"label": "bytes32[]",
						"numberOfBytes": "32"
					},
					"t_bool": {
						"encoding": "inplace",
						"label": "bool",
						"numberOfBytes": "1"
					},
					"t_bytes32": {
						"encoding": "inplace",
						"label": "bytes32",
						"numberOfBytes": "32"
					},
					"t_contract(ERC20)585": {
						"encoding": "inplace",
						"label": "contract ERC20",
						"numberOfBytes": "20"
					},
					"t_contract(IERC20)663": {
						"encoding": "inplace",
						"label": "contract IERC20",
						"numberOfBytes": "20"
					},
					"t_mapping(t_address,t_struct(BuyerInfo)747_storage)": {
						"encoding": "mapping",
						"key": "t_address",
						"label": "mapping(address => struct Presale.BuyerInfo)",
						"numberOfBytes": "32",
						"value": "t_struct(BuyerInfo)747_storage"
					},
					"t_mapping(t_address,t_uint256)": {
						"encoding": "mapping",
						"key": "t_address",
						"label": "mapping(address => uint256)",
						"numberOfBytes": "32",
						"value": "t_uint256"
					},
					"t_mapping(t_bytes32,t_uint256)": {
						"encoding": "mapping",
						"key": "t_bytes32",
						"label": "mapping(bytes32 => uint256)",
						"numberOfBytes": "32",
						"value": "t_uint256"
					},
					"t_struct(AddressSet)1692_storage": {
						"encoding": "inplace",
						"label": "struct EnumerableSet.AddressSet",
						"members": [
							{
								"astId": 1691,
								"contract": "Ethereum/Presale.sol:Presale",
								"label": "_inner",
								"offset": 0,
								"slot": "0",
								"type": "t_struct(Set)1391_storage"
							}
						],
						"numberOfBytes": "64"
					},
					"t_struct(BuyerInfo)747_storage": {
						"encoding": "inplace",
						"label": "struct Presale.BuyerInfo",
						"members": [
							{
								"astId": 736,
								"contract": "Ethereum/Presale.sol:Presale",
								"label": "baseDeposit",
								"offset": 0,
								"slot": "0",
								"type": "t_uint256"
							},
							{
								"astId": 738,
								"contract": "Ethereum/Presale.sol:Presale",
								"label": "tokenOwner",
								"offset": 0,
								"slot": "1",
								"type": "t_uint256"
							},
							{
								"astId": 740,
								"contract": "Ethereum/Presale.sol:Presale",
								"label": "lastWithDraw",
								"offset": 0,
								"slot": "2",
								"type": "t_uint256"
							},
							{
								"astId": 742,
								"contract": "Ethereum/Presale.sol:Presale",
								"label": "totalTokenWithDraw",
								"offset": 0,
								"slot": "3",
								"type": "t_uint256"
							},
							{
								"astId": 744,
								"contract": "Ethereum/Presale.sol:Presale",
								"label": "isRefund",
								"offset": 0,
								"slot": "4",
								"type": "t_bool"
							},
							{
								"astId": 746,
								"contract": "Ethereum/Presale.sol:Presale",
								"label": "isClaim",
								"offset": 1,
								"slot": "4",
								"type": "t_bool"
							}
						],
						"numberOfBytes": "160"
					},
					"t_struct(PresaleStatus)763_storage": {
						"encoding": "inplace",
						"label": "struct Presale.PresaleStatus",
						"members": [
							{
								"astId": 749,
								"contract": "Ethereum/Presale.sol:Presale",
								"label": "totalBaseCollected",
								"offset": 0,
								"slot": "0",
								"type": "t_uint256"
							},
							{
								"astId": 751,
								"contract": "Ethereum/Presale.sol:Presale",
								"label": "totalTokenSold",
								"offset": 0,
								"slot": "1",
								"type": "t_uint256"
							},
							{
								"astId": 753,
								"contract": "Ethereum/Presale.sol:Presale",
								"label": "totalTokenWithDraw",
								"offset": 0,
								"slot": "2",
								"type": "t_uint256"
							},
							{
								"astId": 755,
								"contract": "Ethereum/Presale.sol:Presale",
								"label": "totalBaseWithDraw",
								"offset": 0,
								"slot": "3",
								"type": "t_uint256"
							},
							{
								"astId": 757,
								"contract": "Ethereum/Presale.sol:Presale",
								"label": "numberBuyer",
								"offset": 0,
								"slot": "4",
								"type": "t_uint256"
							},
							{
								"astId": 759,
								"contract": "Ethereum/Presale.sol:Presale",
								"label": "totalFee",
								"offset": 0,
								"slot": "5",
								"type": "t_uint256"
							},
							{
								"astId": 762,
								"contract": "Ethereum/Presale.sol:Presale",
								"label": "admin",
								"offset": 0,
								"slot": "6",
								"type": "t_array(t_address)dyn_storage"
							}
						],
						"numberOfBytes": "224"
					},
					"t_struct(SaleInfor)734_storage": {
						"encoding": "inplace",
						"label": "struct Presale.SaleInfor",
						"members": [
							{
								"astId": 709,
								"contract": "Ethereum/Presale.sol:Presale",
								"label": "presaleOwner",
								"offset": 0,
								"slot": "0",
								"type": "t_address_payable"
							},
							{
								"astId": 712,
								"contract": "Ethereum/Presale.sol:Presale",
								"label": "saleToken",
								"offset": 0,
								"slot": "1",
								"type": "t_contract(ERC20)585"
							},
							{
								"astId": 715,
								"contract": "Ethereum/Presale.sol:Presale",
								"label": "baseToken",
								"offset": 0,
								"slot": "2",
								"type": "t_contract(ERC20)585"
							},
							{
								"astId": 717,
								"contract": "Ethereum/Presale.sol:Presale",
								"label": "tokenPrice",
								"offset": 0,
								"slot": "3",
								"type": "t_uint256"
							},
							{
								"astId": 719,
								"contract": "Ethereum/Presale.sol:Presale",
								"label": "startSale",
								"offset": 0,
								"slot": "4",
								"type": "t_uint256"
							},
							{
								"astId": 721,
								"contract": "Ethereum/Presale.sol:Presale",
								"label": "endSale",
								"offset": 0,
								"slot": "5",
								"type": "t_uint256"
							},
							{
								"astId": 723,
								"contract": "Ethereum/Presale.sol:Presale",
								"label": "minSpendPerBuyer",
								"offset": 0,
								"slot": "6",
								"type": "t_uint256"
							},
							{
								"astId": 725,
								"contract": "Ethereum/Presale.sol:Presale",
								"label": "maxSpendPerBuyer",
								"offset": 0,
								"slot": "7",
								"type": "t_uint256"
							},
							{
								"astId": 727,
								"contract": "Ethereum/Presale.sol:Presale",
								"label": "refundFee",
								"offset": 0,
								"slot": "8",
								"type": "t_uint256"
							},
							{
								"astId": 729,
								"contract": "Ethereum/Presale.sol:Presale",
								"label": "claimFee",
								"offset": 0,
								"slot": "9",
								"type": "t_uint256"
							},
							{
								"astId": 731,
								"contract": "Ethereum/Presale.sol:Presale",
								"label": "saleIsBaseToken",
								"offset": 0,
								"slot": "10",
								"type": "t_bool"
							},
							{
								"astId": 733,
								"contract": "Ethereum/Presale.sol:Presale",
								"label": "amountTokenForSale",
								"offset": 0,
								"slot": "11",
								"type": "t_uint256"
							}
						],
						"numberOfBytes": "384"
					},
					"t_struct(Set)1391_storage": {
						"encoding": "inplace",
						"label": "struct EnumerableSet.Set",
						"members": [
							{
								"astId": 1386,
								"contract": "Ethereum/Presale.sol:Presale",
								"label": "_values",
								"offset": 0,
								"slot": "0",
								"type": "t_array(t_bytes32)dyn_storage"
							},
							{
								"astId": 1390,
								"contract": "Ethereum/Presale.sol:Presale",
								"label": "_indexes",
								"offset": 0,
								"slot": "1",
								"type": "t_mapping(t_bytes32,t_uint256)"
							}
						],
						"numberOfBytes": "64"
					},
					"t_uint256": {
						"encoding": "inplace",
						"label": "uint256",
						"numberOfBytes": "32"
					}
				}
			},
			"userdoc": {
				"kind": "user",
				"methods": {},
				"version": 1
			}
		}
	}
}