{
	"Ethereum/Presale.sol": {
		"Presale": {
			"abi": [
				{
					"inputs": [],
					"stateMutability": "payable",
					"type": "constructor"
				},
				{
					"inputs": [],
					"name": "WETH",
					"outputs": [
						{
							"internalType": "contract IERC20",
							"name": "",
							"type": "address"
						}
					],
					"stateMutability": "view",
					"type": "function"
				},
				{
					"inputs": [],
					"name": "backToken",
					"outputs": [],
					"stateMutability": "payable",
					"type": "function"
				},
				{
					"inputs": [
						{
							"internalType": "address",
							"name": "",
							"type": "address"
						}
					],
					"name": "buyerInfo",
					"outputs": [
						{
							"internalType": "uint256",
							"name": "baseDeposit",
							"type": "uint256"
						},
						{
							"internalType": "uint256",
							"name": "tokenOwner",
							"type": "uint256"
						},
						{
							"internalType": "uint256",
							"name": "lastWithDraw",
							"type": "uint256"
						},
						{
							"internalType": "uint256",
							"name": "totalTokenWithDraw",
							"type": "uint256"
						},
						{
							"internalType": "bool",
							"name": "isRefund",
							"type": "bool"
						},
						{
							"internalType": "bool",
							"name": "isClaim",
							"type": "bool"
						}
					],
					"stateMutability": "view",
					"type": "function"
				},
				{
					"inputs": [
						{
							"internalType": "uint256",
							"name": "_amount",
							"type": "uint256"
						}
					],
					"name": "depodit",
					"outputs": [],
					"stateMutability": "payable",
					"type": "function"
				},
				{
					"inputs": [
						{
							"internalType": "address",
							"name": "_address",
							"type": "address"
						}
					],
					"name": "getBalance",
					"outputs": [
						{
							"internalType": "uint256",
							"name": "",
							"type": "uint256"
						}
					],
					"stateMutability": "view",
					"type": "function"
				},
				{
					"inputs": [
						{
							"internalType": "address payable",
							"name": "_presaleOwner",
							"type": "address"
						},
						{
							"internalType": "contract IERC20",
							"name": "_saleToken",
							"type": "address"
						},
						{
							"internalType": "contract IERC20",
							"name": "_baseTOken",
							"type": "address"
						},
						{
							"internalType": "uint256[9]",
							"name": "datas",
							"type": "uint256[9]"
						}
					],
					"name": "initialSaleInfor",
					"outputs": [],
					"stateMutability": "nonpayable",
					"type": "function"
				},
				{
					"inputs": [],
					"name": "presaleStatus",
					"outputs": [
						{
							"internalType": "uint256",
							"name": "totalBaseCollected",
							"type": "uint256"
						},
						{
							"internalType": "uint256",
							"name": "totalTokenSold",
							"type": "uint256"
						},
						{
							"internalType": "uint256",
							"name": "totalTokenWithDraw",
							"type": "uint256"
						},
						{
							"internalType": "uint256",
							"name": "totalBaseWithDraw",
							"type": "uint256"
						},
						{
							"internalType": "uint256",
							"name": "numByer",
							"type": "uint256"
						},
						{
							"internalType": "uint256",
							"name": "totalFee",
							"type": "uint256"
						}
					],
					"stateMutability": "view",
					"type": "function"
				},
				{
					"inputs": [],
					"name": "saleInfor",
					"outputs": [
						{
							"internalType": "address payable",
							"name": "presaleOwner",
							"type": "address"
						},
						{
							"internalType": "contract IERC20",
							"name": "saleToken",
							"type": "address"
						},
						{
							"internalType": "contract IERC20",
							"name": "baseToken",
							"type": "address"
						},
						{
							"internalType": "uint256",
							"name": "tokenPrice",
							"type": "uint256"
						},
						{
							"internalType": "uint256",
							"name": "startSale",
							"type": "uint256"
						},
						{
							"internalType": "uint256",
							"name": "endSale",
							"type": "uint256"
						},
						{
							"internalType": "uint256",
							"name": "valueSwapERC20",
							"type": "uint256"
						},
						{
							"internalType": "uint256",
							"name": "feeTransaction",
							"type": "uint256"
						},
						{
							"internalType": "uint256",
							"name": "minSpendPerBuyer",
							"type": "uint256"
						},
						{
							"internalType": "uint256",
							"name": "maxSpendPerBuyer",
							"type": "uint256"
						},
						{
							"internalType": "uint256",
							"name": "refundFee",
							"type": "uint256"
						},
						{
							"internalType": "uint256",
							"name": "claimFee",
							"type": "uint256"
						},
						{
							"internalType": "bool",
							"name": "saleIsBaseToken",
							"type": "bool"
						}
					],
					"stateMutability": "view",
					"type": "function"
				},
				{
					"inputs": [],
					"name": "status",
					"outputs": [
						{
							"internalType": "uint256",
							"name": "",
							"type": "uint256"
						}
					],
					"stateMutability": "view",
					"type": "function"
				},
				{
					"inputs": [
						{
							"internalType": "uint256",
							"name": "amount",
							"type": "uint256"
						}
					],
					"name": "transferETH",
					"outputs": [],
					"stateMutability": "payable",
					"type": "function"
				},
				{
					"inputs": [
						{
							"internalType": "address",
							"name": "",
							"type": "address"
						}
					],
					"name": "userFee",
					"outputs": [
						{
							"internalType": "uint256",
							"name": "",
							"type": "uint256"
						}
					],
					"stateMutability": "view",
					"type": "function"
				}
			],
			"devdoc": {
				"kind": "dev",
				"methods": {},
				"version": 1
			},
			"evm": {
				"assembly": "    /* \"Ethereum/Presale.sol\":272:3597  contract Presale is ReentrancyGuard{\r... */\n  mstore(0x40, 0x80)\n    /* \"Utils/ReentrancyGuard.sol\":1734:1735  1 */\n  0x01\n    /* \"Utils/ReentrancyGuard.sol\":1845:1852  _status */\n  0x00\n    /* \"Utils/ReentrancyGuard.sol\":1845:1867  _status = _NOT_ENTERED */\n  sstore\n    /* \"Ethereum/Presale.sol\":1560:1564  WETH */\n  0x19\n    /* \"Ethereum/Presale.sol\":1560:1617  WETH = IERC20(0xc778417E063141139Fce010982780140Aa0cD5Ab) */\n  dup1\n  sload\n  not(sub(shl(0xa0, 0x01), 0x01))\n  and\n    /* \"Ethereum/Presale.sol\":1574:1616  0xc778417E063141139Fce010982780140Aa0cD5Ab */\n  0xc778417e063141139fce010982780140aa0cd5ab\n    /* \"Ethereum/Presale.sol\":1560:1617  WETH = IERC20(0xc778417E063141139Fce010982780140Aa0cD5Ab) */\n  or\n  swap1\n  sstore\n    /* \"Ethereum/Presale.sol\":272:3597  contract Presale is ReentrancyGuard{\r... */\n  dataSize(sub_0)\n  dup1\n  dataOffset(sub_0)\n  0x00\n  codecopy\n  0x00\n  return\nstop\n\nsub_0: assembly {\n        /* \"Ethereum/Presale.sol\":272:3597  contract Presale is ReentrancyGuard{\r... */\n      mstore(0x40, 0x80)\n      jumpi(tag_1, lt(calldatasize, 0x04))\n      shr(0xe0, calldataload(0x00))\n      dup1\n      0x861faf5f\n      gt\n      tag_13\n      jumpi\n      dup1\n      0x861faf5f\n      eq\n      tag_7\n      jumpi\n      dup1\n      0x8f1eae4c\n      eq\n      tag_8\n      jumpi\n      dup1\n      0xacfb2355\n      eq\n      tag_9\n      jumpi\n      dup1\n      0xad5c4648\n      eq\n      tag_10\n      jumpi\n      dup1\n      0xe2d3f423\n      eq\n      tag_11\n      jumpi\n      dup1\n      0xf8b2cb4f\n      eq\n      tag_12\n      jumpi\n      0x00\n      dup1\n      revert\n    tag_13:\n      dup1\n      0x18856a2f\n      eq\n      tag_2\n      jumpi\n      dup1\n      0x200d2ed2\n      eq\n      tag_3\n      jumpi\n      dup1\n      0x4329db46\n      eq\n      tag_4\n      jumpi\n      dup1\n      0x56c5f349\n      eq\n      tag_5\n      jumpi\n      dup1\n      0x79647833\n      eq\n      tag_6\n      jumpi\n    tag_1:\n      0x00\n      dup1\n      revert\n        /* \"Ethereum/Presale.sol\":1467:1493  SaleInfor public saleInfor */\n    tag_2:\n      callvalue\n      dup1\n      iszero\n      tag_14\n      jumpi\n      0x00\n      dup1\n      revert\n    tag_14:\n      pop\n      sload(0x0c)\n      sload(0x0d)\n      sload(0x0e)\n      sload(0x0f)\n      sload(0x10)\n      sload(0x11)\n      sload(0x12)\n      sload(0x13)\n      sload(0x14)\n      sload(0x15)\n      sload(0x16)\n      sload(0x17)\n      sload(0x18)\n      tag_15\n      swap13\n      sub(shl(0xa0, 0x01), 0x01)\n      swap1\n      dup2\n      and\n      swap13\n      dup2\n      and\n      swap12\n      and\n      swap10\n      swap9\n      swap8\n      swap7\n      swap6\n      swap5\n      swap4\n      swap3\n      swap2\n      swap1\n      0xff\n      and\n      dup14\n      jump\n    tag_15:\n      0x40\n      dup1\n      mload\n      sub(shl(0xa0, 0x01), 0x01)\n        /* \"#utility.yul\":2312:2344   */\n      swap15\n      dup16\n      and\n        /* \"#utility.yul\":2294:2345   */\n      dup2\n      mstore\n        /* \"#utility.yul\":2381:2413   */\n      swap13\n      dup15\n      and\n        /* \"#utility.yul\":2376:2378   */\n      0x20\n        /* \"#utility.yul\":2361:2379   */\n      dup15\n      add\n        /* \"#utility.yul\":2354:2414   */\n      mstore\n        /* \"#utility.yul\":2450:2482   */\n      swap11\n      swap1\n      swap13\n      and\n        /* \"#utility.yul\":2430:2448   */\n      swap10\n      dup12\n      add\n        /* \"#utility.yul\":2423:2483   */\n      swap10\n      swap1\n      swap10\n      mstore\n        /* \"#utility.yul\":2514:2516   */\n      0x60\n        /* \"#utility.yul\":2499:2517   */\n      dup11\n      add\n        /* \"#utility.yul\":2492:2526   */\n      swap8\n      swap1\n      swap8\n      mstore\n        /* \"#utility.yul\":2557:2560   */\n      0x80\n        /* \"#utility.yul\":2542:2561   */\n      dup10\n      add\n        /* \"#utility.yul\":2535:2570   */\n      swap6\n      swap1\n      swap6\n      mstore\n        /* \"#utility.yul\":2332:2335   */\n      0xa0\n        /* \"#utility.yul\":2586:2605   */\n      dup9\n      add\n        /* \"#utility.yul\":2579:2614   */\n      swap4\n      swap1\n      swap4\n      mstore\n        /* \"#utility.yul\":2645:2648   */\n      0xc0\n        /* \"#utility.yul\":2630:2649   */\n      dup8\n      add\n        /* \"#utility.yul\":2623:2658   */\n      swap2\n      swap1\n      swap2\n      mstore\n        /* \"#utility.yul\":2689:2692   */\n      0xe0\n        /* \"#utility.yul\":2674:2693   */\n      dup7\n      add\n        /* \"#utility.yul\":2667:2702   */\n      mstore\n        /* \"#utility.yul\":2733:2736   */\n      0x0100\n        /* \"#utility.yul\":2718:2737   */\n      dup6\n      add\n        /* \"#utility.yul\":2711:2746   */\n      mstore\n        /* \"#utility.yul\":2777:2780   */\n      0x0120\n        /* \"#utility.yul\":2762:2781   */\n      dup5\n      add\n        /* \"#utility.yul\":2755:2790   */\n      mstore\n        /* \"#utility.yul\":2821:2824   */\n      0x0140\n        /* \"#utility.yul\":2806:2825   */\n      dup4\n      add\n        /* \"#utility.yul\":2799:2835   */\n      mstore\n        /* \"#utility.yul\":2866:2869   */\n      0x0160\n        /* \"#utility.yul\":2851:2870   */\n      dup3\n      add\n        /* \"#utility.yul\":2844:2880   */\n      mstore\n        /* \"#utility.yul\":2924:2939   */\n      swap1\n      iszero\n        /* \"#utility.yul\":2917:2940   */\n      iszero\n        /* \"#utility.yul\":2911:2914   */\n      0x0180\n        /* \"#utility.yul\":2896:2915   */\n      dup3\n      add\n        /* \"#utility.yul\":2889:2941   */\n      mstore\n        /* \"#utility.yul\":2281:2284   */\n      0x01a0\n        /* \"#utility.yul\":2266:2285   */\n      add\n        /* \"Ethereum/Presale.sol\":1467:1493  SaleInfor public saleInfor */\n    tag_17:\n      mload(0x40)\n      dup1\n      swap2\n      sub\n      swap1\n      return\n        /* \"Ethereum/Presale.sol\":2432:2769  function status() public view returns(uint256) {\r... */\n    tag_3:\n      callvalue\n      dup1\n      iszero\n      tag_19\n      jumpi\n      0x00\n      dup1\n      revert\n    tag_19:\n      pop\n      tag_20\n      tag_21\n      jump\t// in\n    tag_20:\n      mload(0x40)\n        /* \"#utility.yul\":4363:4388   */\n      swap1\n      dup2\n      mstore\n        /* \"#utility.yul\":4351:4353   */\n      0x20\n        /* \"#utility.yul\":4336:4354   */\n      add\n        /* \"Ethereum/Presale.sol\":2432:2769  function status() public view returns(uint256) {\r... */\n      tag_17\n        /* \"#utility.yul\":4318:4394   */\n      jump\n        /* \"Ethereum/Presale.sol\":3473:3594  function transferETH(uint256 amount) external payable {\r... */\n    tag_4:\n      tag_24\n      tag_25\n      calldatasize\n      0x04\n      tag_26\n      jump\t// in\n    tag_25:\n      tag_27\n      jump\t// in\n    tag_24:\n      stop\n        /* \"Ethereum/Presale.sol\":1377:1419  mapping(address => uint256) public userFee */\n    tag_5:\n      callvalue\n      dup1\n      iszero\n      tag_28\n      jumpi\n      0x00\n      dup1\n      revert\n    tag_28:\n      pop\n      tag_20\n      tag_30\n      calldatasize\n      0x04\n      tag_31\n      jump\t// in\n    tag_30:\n      mstore(0x20, 0x04)\n      0x00\n      swap1\n      dup2\n      mstore\n      0x40\n      swap1\n      keccak256\n      sload\n      dup2\n      jump\n        /* \"Ethereum/Presale.sol\":2777:3227  function depodit(uint256 _amount) external payable nonReentrant {\r... */\n    tag_6:\n      tag_24\n      tag_35\n      calldatasize\n      0x04\n      tag_26\n      jump\t// in\n    tag_35:\n      tag_36\n      jump\t// in\n        /* \"Ethereum/Presale.sol\":3357:3465  function backToken() external payable {\r... */\n    tag_7:\n      tag_24\n      tag_38\n      jump\t// in\n        /* \"Ethereum/Presale.sol\":1633:2423  function initialSaleInfor(\r... */\n    tag_8:\n      callvalue\n      dup1\n      iszero\n      tag_39\n      jumpi\n      0x00\n      dup1\n      revert\n    tag_39:\n      pop\n      tag_24\n      tag_41\n      calldatasize\n      0x04\n      tag_42\n      jump\t// in\n    tag_41:\n        /* \"Ethereum/Presale.sol\":1816:1825  saleInfor */\n      0x0c\n        /* \"Ethereum/Presale.sol\":1816:1854  saleInfor.presaleOwner = _presaleOwner */\n      dup1\n      sload\n      not(sub(shl(0xa0, 0x01), 0x01))\n      swap1\n      dup2\n      and\n      sub(shl(0xa0, 0x01), 0x01)\n      swap7\n      dup8\n      and\n      or\n      swap1\n      swap2\n      sstore\n        /* \"Ethereum/Presale.sol\":1865:1884  saleInfor.saleToken */\n      0x0d\n        /* \"Ethereum/Presale.sol\":1865:1897  saleInfor.saleToken = _saleToken */\n      dup1\n      sload\n      dup3\n      and\n      swap5\n      dup7\n      and\n      swap5\n      swap1\n      swap5\n      or\n      swap1\n      swap4\n      sstore\n        /* \"Ethereum/Presale.sol\":1908:1927  saleInfor.baseToken */\n      0x0e\n        /* \"Ethereum/Presale.sol\":1908:1940  saleInfor.baseToken = _baseTOken */\n      dup1\n      sload\n      swap1\n      swap4\n      and\n      swap2\n      dup5\n      and\n      swap2\n      dup3\n      or\n      swap1\n      swap3\n      sstore\n        /* \"Ethereum/Presale.sol\":1974:1982  datas[0] */\n      dup2\n      mload\n        /* \"Ethereum/Presale.sol\":1951:1971  saleInfor.tokenPrice */\n      0x0f\n        /* \"Ethereum/Presale.sol\":1951:1982  saleInfor.tokenPrice = datas[0] */\n      sstore\n        /* \"Ethereum/Presale.sol\":1974:1982  datas[0] */\n      0x20\n        /* \"Ethereum/Presale.sol\":2015:2023  datas[1] */\n      dup3\n      add\n      mload\n        /* \"Ethereum/Presale.sol\":1993:2012  saleInfor.startSale */\n      0x10\n        /* \"Ethereum/Presale.sol\":1993:2023  saleInfor.startSale = datas[1] */\n      sstore\n        /* \"Ethereum/Presale.sol\":2054:2062  datas[2] */\n      0x40\n      dup3\n      add\n      mload\n        /* \"Ethereum/Presale.sol\":2034:2051  saleInfor.endSale */\n      0x11\n        /* \"Ethereum/Presale.sol\":2034:2062  saleInfor.endSale = datas[2] */\n      sstore\n        /* \"Ethereum/Presale.sol\":2100:2108  datas[3] */\n      0x60\n      dup3\n      add\n      mload\n        /* \"Ethereum/Presale.sol\":2073:2097  saleInfor.valueSwapERC20 */\n      0x12\n        /* \"Ethereum/Presale.sol\":2073:2108  saleInfor.valueSwapERC20 = datas[3] */\n      sstore\n        /* \"Ethereum/Presale.sol\":2146:2154  datas[4] */\n      0x80\n      dup3\n      add\n      mload\n        /* \"Ethereum/Presale.sol\":2119:2143  saleInfor.feeTransaction */\n      0x13\n        /* \"Ethereum/Presale.sol\":2119:2154  saleInfor.feeTransaction = datas[4] */\n      sstore\n        /* \"Ethereum/Presale.sol\":2194:2202  datas[5] */\n      0xa0\n      dup3\n      add\n      mload\n        /* \"Ethereum/Presale.sol\":2165:2191  saleInfor.minSpendPerBuyer */\n      0x14\n        /* \"Ethereum/Presale.sol\":2165:2202  saleInfor.minSpendPerBuyer = datas[5] */\n      sstore\n        /* \"Ethereum/Presale.sol\":2242:2250  datas[6] */\n      0xc0\n      dup3\n      add\n      mload\n        /* \"Ethereum/Presale.sol\":2213:2239  saleInfor.maxSpendPerBuyer */\n      0x15\n        /* \"Ethereum/Presale.sol\":2213:2250  saleInfor.maxSpendPerBuyer = datas[6] */\n      sstore\n        /* \"Ethereum/Presale.sol\":2283:2291  datas[7] */\n      0xe0\n      dup3\n      add\n      mload\n        /* \"Ethereum/Presale.sol\":2261:2280  saleInfor.refundFee */\n      0x16\n        /* \"Ethereum/Presale.sol\":2261:2291  saleInfor.refundFee = datas[7] */\n      sstore\n        /* \"Ethereum/Presale.sol\":2323:2331  datas[8] */\n      0x0100\n      swap1\n      swap2\n      add\n      mload\n        /* \"Ethereum/Presale.sol\":2302:2320  saleInfor.claimFee */\n      0x17\n        /* \"Ethereum/Presale.sol\":2302:2331  saleInfor.claimFee = datas[8] */\n      sstore\n        /* \"Ethereum/Presale.sol\":2378:2382  WETH */\n      sload(0x19)\n        /* \"Ethereum/Presale.sol\":2342:2367  saleInfor.saleIsBaseToken */\n      0x18\n        /* \"Ethereum/Presale.sol\":2342:2415  saleInfor.saleIsBaseToken = address(WETH) == address(saleInfor.baseToken) */\n      dup1\n      sload\n      not(0xff)\n      and\n        /* \"Ethereum/Presale.sol\":2378:2382  WETH */\n      swap2\n      swap1\n      swap4\n      and\n        /* \"Ethereum/Presale.sol\":2370:2415  address(WETH) == address(saleInfor.baseToken) */\n      swap1\n      swap2\n      eq\n        /* \"Ethereum/Presale.sol\":2342:2415  saleInfor.saleIsBaseToken = address(WETH) == address(saleInfor.baseToken) */\n      or\n      swap1\n      sstore\n        /* \"Ethereum/Presale.sol\":1633:2423  function initialSaleInfor(\r... */\n      jump\n        /* \"Ethereum/Presale.sol\":1426:1460  PresaleStatus public presaleStatus */\n    tag_9:\n      callvalue\n      dup1\n      iszero\n      tag_44\n      jumpi\n      0x00\n      dup1\n      revert\n    tag_44:\n      pop\n      sload(0x05)\n      sload(0x06)\n      sload(0x07)\n      sload(0x08)\n      sload(0x09)\n      sload(0x0a)\n      tag_45\n      swap6\n      swap5\n      swap4\n      swap3\n      swap2\n      swap1\n      dup7\n      jump\n    tag_45:\n      0x40\n      dup1\n      mload\n        /* \"#utility.yul\":5246:5271   */\n      swap7\n      dup8\n      mstore\n        /* \"#utility.yul\":5302:5304   */\n      0x20\n        /* \"#utility.yul\":5287:5305   */\n      dup8\n      add\n        /* \"#utility.yul\":5280:5314   */\n      swap6\n      swap1\n      swap6\n      mstore\n        /* \"#utility.yul\":5330:5348   */\n      swap4\n      dup6\n      add\n        /* \"#utility.yul\":5323:5357   */\n      swap3\n      swap1\n      swap3\n      mstore\n        /* \"#utility.yul\":5388:5390   */\n      0x60\n        /* \"#utility.yul\":5373:5391   */\n      dup5\n      add\n        /* \"#utility.yul\":5366:5400   */\n      mstore\n        /* \"#utility.yul\":5431:5434   */\n      0x80\n        /* \"#utility.yul\":5416:5435   */\n      dup4\n      add\n        /* \"#utility.yul\":5409:5444   */\n      mstore\n        /* \"#utility.yul\":5475:5478   */\n      0xa0\n        /* \"#utility.yul\":5460:5479   */\n      dup3\n      add\n        /* \"#utility.yul\":5453:5488   */\n      mstore\n        /* \"#utility.yul\":5233:5236   */\n      0xc0\n        /* \"#utility.yul\":5218:5237   */\n      add\n        /* \"Ethereum/Presale.sol\":1426:1460  PresaleStatus public presaleStatus */\n      tag_17\n        /* \"#utility.yul\":5200:5494   */\n      jump\n        /* \"Ethereum/Presale.sol\":1500:1518  IERC20 public WETH */\n    tag_10:\n      callvalue\n      dup1\n      iszero\n      tag_49\n      jumpi\n      0x00\n      dup1\n      revert\n    tag_49:\n      pop\n      sload(0x19)\n      tag_50\n      swap1\n      sub(shl(0xa0, 0x01), 0x01)\n      and\n      dup2\n      jump\n    tag_50:\n      mload(0x40)\n      sub(shl(0xa0, 0x01), 0x01)\n        /* \"#utility.yul\":3129:3161   */\n      swap1\n      swap2\n      and\n        /* \"#utility.yul\":3111:3162   */\n      dup2\n      mstore\n        /* \"#utility.yul\":3099:3101   */\n      0x20\n        /* \"#utility.yul\":3084:3102   */\n      add\n        /* \"Ethereum/Presale.sol\":1500:1518  IERC20 public WETH */\n      tag_17\n        /* \"#utility.yul\":3066:3168   */\n      jump\n        /* \"Ethereum/Presale.sol\":1324:1370  mapping(address => BuyerInfo) public buyerInfo */\n    tag_11:\n      callvalue\n      dup1\n      iszero\n      tag_54\n      jumpi\n      0x00\n      dup1\n      revert\n    tag_54:\n      pop\n      tag_55\n      tag_56\n      calldatasize\n      0x04\n      tag_31\n      jump\t// in\n    tag_56:\n      0x03\n      0x20\n      dup2\n      swap1\n      mstore\n      0x00\n      swap2\n      dup3\n      mstore\n      0x40\n      swap1\n      swap2\n      keccak256\n      dup1\n      sload\n      0x01\n      dup3\n      add\n      sload\n      0x02\n      dup4\n      add\n      sload\n      swap4\n      dup4\n      add\n      sload\n      0x04\n      swap1\n      swap4\n      add\n      sload\n      swap2\n      swap4\n      swap1\n      swap3\n      swap1\n      swap2\n      0xff\n      dup1\n      dup3\n      and\n      swap2\n      0x0100\n      swap1\n      div\n      and\n      dup7\n      jump\n    tag_55:\n      0x40\n      dup1\n      mload\n        /* \"#utility.yul\":4674:4699   */\n      swap7\n      dup8\n      mstore\n        /* \"#utility.yul\":4730:4732   */\n      0x20\n        /* \"#utility.yul\":4715:4733   */\n      dup8\n      add\n        /* \"#utility.yul\":4708:4742   */\n      swap6\n      swap1\n      swap6\n      mstore\n        /* \"#utility.yul\":4758:4776   */\n      swap4\n      dup6\n      add\n        /* \"#utility.yul\":4751:4785   */\n      swap3\n      swap1\n      swap3\n      mstore\n        /* \"#utility.yul\":4816:4818   */\n      0x60\n        /* \"#utility.yul\":4801:4819   */\n      dup5\n      add\n        /* \"#utility.yul\":4794:4828   */\n      mstore\n        /* \"#utility.yul\":4872:4886   */\n      iszero\n        /* \"#utility.yul\":4865:4887   */\n      iszero\n        /* \"#utility.yul\":4859:4862   */\n      0x80\n        /* \"#utility.yul\":4844:4863   */\n      dup4\n      add\n        /* \"#utility.yul\":4837:4888   */\n      mstore\n        /* \"#utility.yul\":4932:4946   */\n      iszero\n        /* \"#utility.yul\":4925:4947   */\n      iszero\n        /* \"#utility.yul\":4919:4922   */\n      0xa0\n        /* \"#utility.yul\":4904:4923   */\n      dup3\n      add\n        /* \"#utility.yul\":4897:4948   */\n      mstore\n        /* \"#utility.yul\":4661:4664   */\n      0xc0\n        /* \"#utility.yul\":4646:4665   */\n      add\n        /* \"Ethereum/Presale.sol\":1324:1370  mapping(address => BuyerInfo) public buyerInfo */\n      tag_17\n        /* \"#utility.yul\":4628:4954   */\n      jump\n        /* \"Ethereum/Presale.sol\":3235:3346  function getBalance(address _address) external view returns(uint256) {\r... */\n    tag_12:\n      callvalue\n      dup1\n      iszero\n      tag_60\n      jumpi\n      0x00\n      dup1\n      revert\n    tag_60:\n      pop\n      tag_20\n      tag_62\n      calldatasize\n      0x04\n      tag_31\n      jump\t// in\n    tag_62:\n      sub(shl(0xa0, 0x01), 0x01)\n        /* \"Ethereum/Presale.sol\":3322:3338  _address.balance */\n      and\n      balance\n      swap1\n        /* \"Ethereum/Presale.sol\":3235:3346  function getBalance(address _address) external view returns(uint256) {\r... */\n      jump\n        /* \"Ethereum/Presale.sol\":2432:2769  function status() public view returns(uint256) {\r... */\n    tag_21:\n        /* \"Ethereum/Presale.sol\":2511:2530  saleInfor.startSale */\n      sload(0x10)\n        /* \"Ethereum/Presale.sol\":2470:2477  uint256 */\n      0x00\n      swap1\n        /* \"Ethereum/Presale.sol\":2493:2508  block.timestamp */\n      timestamp\n        /* \"Ethereum/Presale.sol\":2493:2530  block.timestamp < saleInfor.startSale */\n      lt\n        /* \"Ethereum/Presale.sol\":2490:2762  if(block.timestamp < saleInfor.startSale) {\r... */\n      iszero\n      tag_66\n      jumpi\n      pop\n        /* \"Ethereum/Presale.sol\":2554:2555  0 */\n      0x00\n      swap1\n        /* \"Ethereum/Presale.sol\":2432:2769  function status() public view returns(uint256) {\r... */\n      jump\t// out\n        /* \"Ethereum/Presale.sol\":2490:2762  if(block.timestamp < saleInfor.startSale) {\r... */\n    tag_66:\n        /* \"Ethereum/Presale.sol\":2621:2638  saleInfor.endSale */\n      sload(0x11)\n        /* \"Ethereum/Presale.sol\":2603:2618  block.timestamp */\n      timestamp\n        /* \"Ethereum/Presale.sol\":2603:2638  block.timestamp > saleInfor.endSale */\n      gt\n        /* \"Ethereum/Presale.sol\":2600:2751  if(block.timestamp > saleInfor.endSale) {\r... */\n      iszero\n      tag_68\n      jumpi\n      pop\n        /* \"Ethereum/Presale.sol\":2666:2667  2 */\n      0x02\n      swap1\n        /* \"Ethereum/Presale.sol\":2432:2769  function status() public view returns(uint256) {\r... */\n      jump\t// out\n        /* \"Ethereum/Presale.sol\":2600:2751  if(block.timestamp > saleInfor.endSale) {\r... */\n    tag_68:\n      pop\n        /* \"Ethereum/Presale.sol\":2724:2725  1 */\n      0x01\n      swap1\n        /* \"Ethereum/Presale.sol\":2432:2769  function status() public view returns(uint256) {\r... */\n      jump\t// out\n        /* \"Ethereum/Presale.sol\":3473:3594  function transferETH(uint256 amount) external payable {\r... */\n    tag_27:\n        /* \"Ethereum/Presale.sol\":3546:3556  msg.sender */\n      caller\n        /* \"Ethereum/Presale.sol\":3538:3586  payable(msg.sender).transfer(msg.value - amount) */\n      0x08fc\n        /* \"Ethereum/Presale.sol\":3567:3585  msg.value - amount */\n      tag_71\n        /* \"Ethereum/Presale.sol\":3579:3585  amount */\n      dup4\n        /* \"Ethereum/Presale.sol\":3567:3576  msg.value */\n      callvalue\n        /* \"Ethereum/Presale.sol\":3567:3585  msg.value - amount */\n      tag_72\n      jump\t// in\n    tag_71:\n        /* \"Ethereum/Presale.sol\":3538:3586  payable(msg.sender).transfer(msg.value - amount) */\n      mload(0x40)\n      dup2\n      iszero\n      swap1\n      swap3\n      mul\n      swap2\n      0x00\n      dup2\n      dup2\n      dup2\n      dup6\n      dup9\n      dup9\n      call\n      swap4\n      pop\n      pop\n      pop\n      pop\n      iszero\n      dup1\n      iszero\n      tag_74\n      jumpi\n      returndatasize\n      0x00\n      dup1\n      returndatacopy\n      revert(0x00, returndatasize)\n    tag_74:\n      pop\n        /* \"Ethereum/Presale.sol\":3473:3594  function transferETH(uint256 amount) external payable {\r... */\n      pop\n      jump\t// out\n        /* \"Ethereum/Presale.sol\":2777:3227  function depodit(uint256 _amount) external payable nonReentrant {\r... */\n    tag_36:\n        /* \"Utils/ReentrancyGuard.sol\":1778:1779  2 */\n      0x02\n        /* \"Utils/ReentrancyGuard.sol\":2376:2383  _status */\n      sload(0x00)\n        /* \"Utils/ReentrancyGuard.sol\":2376:2395  _status != _ENTERED */\n      eq\n      iszero\n        /* \"Utils/ReentrancyGuard.sol\":2368:2431  require(_status != _ENTERED, \"ReentrancyGuard: reentrant call\") */\n      tag_76\n      jumpi\n      mload(0x40)\n      shl(0xe5, 0x461bcd)\n      dup2\n      mstore\n        /* \"#utility.yul\":4059:4061   */\n      0x20\n        /* \"Utils/ReentrancyGuard.sol\":2368:2431  require(_status != _ENTERED, \"ReentrancyGuard: reentrant call\") */\n      0x04\n      dup3\n      add\n        /* \"#utility.yul\":4041:4062   */\n      mstore\n        /* \"#utility.yul\":4098:4100   */\n      0x1f\n        /* \"#utility.yul\":4078:4096   */\n      0x24\n      dup3\n      add\n        /* \"#utility.yul\":4071:4101   */\n      mstore\n        /* \"#utility.yul\":4137:4170   */\n      0x5265656e7472616e637947756172643a207265656e7472616e742063616c6c00\n        /* \"#utility.yul\":4117:4135   */\n      0x44\n      dup3\n      add\n        /* \"#utility.yul\":4110:4171   */\n      mstore\n        /* \"#utility.yul\":4188:4206   */\n      0x64\n      add\n        /* \"Utils/ReentrancyGuard.sol\":2368:2431  require(_status != _ENTERED, \"ReentrancyGuard: reentrant call\") */\n    tag_77:\n      mload(0x40)\n      dup1\n      swap2\n      sub\n      swap1\n      revert\n    tag_76:\n        /* \"Utils/ReentrancyGuard.sol\":1778:1779  2 */\n      0x02\n        /* \"Utils/ReentrancyGuard.sol\":2509:2516  _status */\n      0x00\n        /* \"Utils/ReentrancyGuard.sol\":2509:2527  _status = _ENTERED */\n      sstore\n        /* \"Ethereum/Presale.sol\":2860:2868  status() */\n      tag_80\n        /* \"Ethereum/Presale.sol\":2860:2866  status */\n      tag_21\n        /* \"Ethereum/Presale.sol\":2860:2868  status() */\n      jump\t// in\n    tag_80:\n        /* \"Ethereum/Presale.sol\":2872:2873  1 */\n      0x01\n        /* \"Ethereum/Presale.sol\":2860:2873  status() == 1 */\n      eq\n        /* \"Ethereum/Presale.sol\":2852:2888  require(status() == 1, \"NOT ACTIVE\") */\n      tag_81\n      jumpi\n      mload(0x40)\n      shl(0xe5, 0x461bcd)\n      dup2\n      mstore\n        /* \"#utility.yul\":3375:3377   */\n      0x20\n        /* \"Ethereum/Presale.sol\":2852:2888  require(status() == 1, \"NOT ACTIVE\") */\n      0x04\n      dup3\n      add\n        /* \"#utility.yul\":3357:3378   */\n      mstore\n        /* \"#utility.yul\":3414:3416   */\n      0x0a\n        /* \"#utility.yul\":3394:3412   */\n      0x24\n      dup3\n      add\n        /* \"#utility.yul\":3387:3417   */\n      mstore\n      shl(0xb0, 0x4e4f5420414354495645)\n        /* \"#utility.yul\":3433:3451   */\n      0x44\n      dup3\n      add\n        /* \"#utility.yul\":3426:3466   */\n      mstore\n        /* \"#utility.yul\":3483:3501   */\n      0x64\n      add\n        /* \"Ethereum/Presale.sol\":2852:2888  require(status() == 1, \"NOT ACTIVE\") */\n      tag_77\n        /* \"#utility.yul\":3347:3507   */\n      jump\n        /* \"Ethereum/Presale.sol\":2852:2888  require(status() == 1, \"NOT ACTIVE\") */\n    tag_81:\n        /* \"Ethereum/Presale.sol\":2945:2955  msg.sender */\n      caller\n        /* \"Ethereum/Presale.sol\":2909:2932  BuyerInfo storage buyer */\n      0x00\n        /* \"Ethereum/Presale.sol\":2935:2956  buyerInfo[msg.sender] */\n      swap1\n      dup2\n      mstore\n        /* \"Ethereum/Presale.sol\":2935:2944  buyerInfo */\n      0x03\n        /* \"Ethereum/Presale.sol\":2935:2956  buyerInfo[msg.sender] */\n      0x20\n      mstore\n      0x40\n      dup2\n      keccak256\n        /* \"Ethereum/Presale.sol\":2987:3012  saleInfor.saleIsBaseToken */\n      sload(0x18)\n        /* \"Ethereum/Presale.sol\":2935:2956  buyerInfo[msg.sender] */\n      swap1\n      swap2\n        /* \"Ethereum/Presale.sol\":2909:2932  BuyerInfo storage buyer */\n      swap1\n        /* \"Ethereum/Presale.sol\":2987:3012  saleInfor.saleIsBaseToken */\n      0xff\n      and\n        /* \"Ethereum/Presale.sol\":2987:3034  saleInfor.saleIsBaseToken ? msg.value : _amount */\n      tag_84\n      jumpi\n        /* \"Ethereum/Presale.sol\":3027:3034  _amount */\n      dup3\n        /* \"Ethereum/Presale.sol\":2987:3034  saleInfor.saleIsBaseToken ? msg.value : _amount */\n      jump(tag_85)\n    tag_84:\n        /* \"Ethereum/Presale.sol\":3015:3024  msg.value */\n      callvalue\n        /* \"Ethereum/Presale.sol\":2987:3034  saleInfor.saleIsBaseToken ? msg.value : _amount */\n    tag_85:\n        /* \"Ethereum/Presale.sol\":3142:3168  saleInfor.minSpendPerBuyer */\n      sload(0x14)\n        /* \"Ethereum/Presale.sol\":2967:3034  uint256 amount_in = saleInfor.saleIsBaseToken ? msg.value : _amount */\n      swap1\n      swap2\n      pop\n      dup2\n      swap1\n        /* \"Ethereum/Presale.sol\":3045:3067  uint256 real_amount_in */\n      0x00\n      swap1\n        /* \"Ethereum/Presale.sol\":3124:3168  real_amount_in >= saleInfor.minSpendPerBuyer */\n      dup3\n      lt\n      iszero\n        /* \"Ethereum/Presale.sol\":3116:3217  require(real_amount_in >= saleInfor.minSpendPerBuyer, \r... */\n      tag_86\n      jumpi\n      mload(0x40)\n      shl(0xe5, 0x461bcd)\n      dup2\n      mstore\n        /* \"#utility.yul\":3714:3716   */\n      0x20\n        /* \"Ethereum/Presale.sol\":3116:3217  require(real_amount_in >= saleInfor.minSpendPerBuyer, \r... */\n      0x04\n      dup3\n      add\n        /* \"#utility.yul\":3696:3717   */\n      mstore\n        /* \"#utility.yul\":3753:3755   */\n      0x10\n        /* \"#utility.yul\":3733:3751   */\n      0x24\n      dup3\n      add\n        /* \"#utility.yul\":3726:3756   */\n      mstore\n      shl(0x80, 0x4e6f7420656e6f7567682076616c7565)\n        /* \"#utility.yul\":3772:3790   */\n      0x44\n      dup3\n      add\n        /* \"#utility.yul\":3765:3811   */\n      mstore\n        /* \"#utility.yul\":3828:3846   */\n      0x64\n      add\n        /* \"Ethereum/Presale.sol\":3116:3217  require(real_amount_in >= saleInfor.minSpendPerBuyer, \r... */\n      tag_77\n        /* \"#utility.yul\":3686:3852   */\n      jump\n        /* \"Ethereum/Presale.sol\":3116:3217  require(real_amount_in >= saleInfor.minSpendPerBuyer, \r... */\n    tag_86:\n      pop\n      pop\n        /* \"Utils/ReentrancyGuard.sol\":1734:1735  1 */\n      0x01\n        /* \"Utils/ReentrancyGuard.sol\":2688:2695  _status */\n      0x00\n        /* \"Utils/ReentrancyGuard.sol\":2688:2710  _status = _NOT_ENTERED */\n      sstore\n      pop\n      pop\n      pop\n        /* \"Ethereum/Presale.sol\":2777:3227  function depodit(uint256 _amount) external payable nonReentrant {\r... */\n      jump\t// out\n        /* \"Ethereum/Presale.sol\":3357:3465  function backToken() external payable {\r... */\n    tag_38:\n        /* \"Ethereum/Presale.sol\":3406:3457  payable(msg.sender).transfer(address(this).balance) */\n      mload(0x40)\n        /* \"Ethereum/Presale.sol\":3414:3424  msg.sender */\n      caller\n      swap1\n        /* \"Ethereum/Presale.sol\":3435:3456  address(this).balance */\n      selfbalance\n        /* \"Ethereum/Presale.sol\":3406:3457  payable(msg.sender).transfer(address(this).balance) */\n      dup1\n      iszero\n      0x08fc\n      mul\n      swap2\n      0x00\n      dup2\n      dup2\n      dup2\n        /* \"Ethereum/Presale.sol\":3435:3456  address(this).balance */\n      dup6\n        /* \"Ethereum/Presale.sol\":3414:3424  msg.sender */\n      dup9\n        /* \"Ethereum/Presale.sol\":3406:3457  payable(msg.sender).transfer(address(this).balance) */\n      dup9\n      call\n      swap4\n      pop\n      pop\n      pop\n      pop\n      iszero\n      dup1\n      iszero\n      tag_91\n      jumpi\n      returndatasize\n      0x00\n      dup1\n      returndatacopy\n      revert(0x00, returndatasize)\n    tag_91:\n      pop\n        /* \"Ethereum/Presale.sol\":3357:3465  function backToken() external payable {\r... */\n      jump\t// out\n        /* \"#utility.yul\":14:271   */\n    tag_31:\n        /* \"#utility.yul\":73:79   */\n      0x00\n        /* \"#utility.yul\":126:128   */\n      0x20\n        /* \"#utility.yul\":114:123   */\n      dup3\n        /* \"#utility.yul\":105:112   */\n      dup5\n        /* \"#utility.yul\":101:124   */\n      sub\n        /* \"#utility.yul\":97:129   */\n      slt\n        /* \"#utility.yul\":94:96   */\n      iszero\n      tag_105\n      jumpi\n        /* \"#utility.yul\":147:153   */\n      dup1\n        /* \"#utility.yul\":139:145   */\n      dup2\n        /* \"#utility.yul\":132:154   */\n      revert\n        /* \"#utility.yul\":94:96   */\n    tag_105:\n        /* \"#utility.yul\":191:200   */\n      dup2\n        /* \"#utility.yul\":178:201   */\n      calldataload\n        /* \"#utility.yul\":210:241   */\n      tag_106\n        /* \"#utility.yul\":235:240   */\n      dup2\n        /* \"#utility.yul\":210:241   */\n      tag_107\n      jump\t// in\n    tag_106:\n        /* \"#utility.yul\":260:265   */\n      swap4\n        /* \"#utility.yul\":84:271   */\n      swap3\n      pop\n      pop\n      pop\n      jump\t// out\n        /* \"#utility.yul\":276:1572   */\n    tag_42:\n        /* \"#utility.yul\":419:425   */\n      0x00\n        /* \"#utility.yul\":427:433   */\n      dup1\n        /* \"#utility.yul\":435:441   */\n      0x00\n        /* \"#utility.yul\":443:449   */\n      dup1\n        /* \"#utility.yul\":474:477   */\n      0x0180\n        /* \"#utility.yul\":518:520   */\n      dup1\n        /* \"#utility.yul\":506:515   */\n      dup7\n        /* \"#utility.yul\":497:504   */\n      dup9\n        /* \"#utility.yul\":493:516   */\n      sub\n        /* \"#utility.yul\":489:521   */\n      slt\n        /* \"#utility.yul\":486:488   */\n      iszero\n      tag_109\n      jumpi\n        /* \"#utility.yul\":539:545   */\n      dup4\n        /* \"#utility.yul\":531:537   */\n      dup5\n        /* \"#utility.yul\":524:546   */\n      revert\n        /* \"#utility.yul\":486:488   */\n    tag_109:\n        /* \"#utility.yul\":583:592   */\n      dup6\n        /* \"#utility.yul\":570:593   */\n      calldataload\n        /* \"#utility.yul\":602:633   */\n      tag_110\n        /* \"#utility.yul\":627:632   */\n      dup2\n        /* \"#utility.yul\":602:633   */\n      tag_107\n      jump\t// in\n    tag_110:\n        /* \"#utility.yul\":652:657   */\n      swap5\n      pop\n        /* \"#utility.yul\":676:678   */\n      0x20\n        /* \"#utility.yul\":715:733   */\n      dup7\n      dup2\n      add\n        /* \"#utility.yul\":702:734   */\n      calldataload\n        /* \"#utility.yul\":743:776   */\n      tag_111\n        /* \"#utility.yul\":702:734   */\n      dup2\n        /* \"#utility.yul\":743:776   */\n      tag_107\n      jump\t// in\n    tag_111:\n        /* \"#utility.yul\":795:802   */\n      swap5\n      pop\n        /* \"#utility.yul\":854:856   */\n      0x40\n        /* \"#utility.yul\":839:857   */\n      dup8\n      add\n        /* \"#utility.yul\":826:858   */\n      calldataload\n        /* \"#utility.yul\":867:900   */\n      tag_112\n        /* \"#utility.yul\":826:858   */\n      dup2\n        /* \"#utility.yul\":867:900   */\n      tag_107\n      jump\t// in\n    tag_112:\n        /* \"#utility.yul\":919:926   */\n      swap4\n      pop\n        /* \"#utility.yul\":964:967   */\n      0x7f\n        /* \"#utility.yul\":949:968   */\n      dup8\n      add\n        /* \"#utility.yul\":945:978   */\n      dup9\n      sgt\n        /* \"#utility.yul\":935:937   */\n      tag_113\n      jumpi\n        /* \"#utility.yul\":997:1003   */\n      dup3\n        /* \"#utility.yul\":989:995   */\n      dup4\n        /* \"#utility.yul\":982:1004   */\n      revert\n        /* \"#utility.yul\":935:937   */\n    tag_113:\n        /* \"#utility.yul\":1035:1037   */\n      0x40\n        /* \"#utility.yul\":1029:1038   */\n      mload\n        /* \"#utility.yul\":1077:1080   */\n      0x0120\n        /* \"#utility.yul\":1069:1075   */\n      dup2\n        /* \"#utility.yul\":1065:1081   */\n      add\n        /* \"#utility.yul\":1147:1153   */\n      dup2\n        /* \"#utility.yul\":1135:1145   */\n      dup2\n        /* \"#utility.yul\":1132:1154   */\n      lt\n        /* \"#utility.yul\":1111:1129   */\n      0xffffffffffffffff\n        /* \"#utility.yul\":1099:1109   */\n      dup3\n        /* \"#utility.yul\":1096:1130   */\n      gt\n        /* \"#utility.yul\":1093:1155   */\n      or\n        /* \"#utility.yul\":1090:1092   */\n      iszero\n      tag_115\n      jumpi\n        /* \"#utility.yul\":1158:1176   */\n      tag_115\n      tag_116\n      jump\t// in\n    tag_115:\n        /* \"#utility.yul\":1194:1196   */\n      0x40\n        /* \"#utility.yul\":1187:1209   */\n      mstore\n        /* \"#utility.yul\":1229:1235   */\n      dup1\n        /* \"#utility.yul\":1270:1272   */\n      0x60\n        /* \"#utility.yul\":1255:1273   */\n      dup10\n      add\n        /* \"#utility.yul\":1288:1306   */\n      dup5\n      dup11\n      add\n        /* \"#utility.yul\":1285:1316   */\n      dup12\n      lt\n        /* \"#utility.yul\":1282:1284   */\n      iszero\n      tag_117\n      jumpi\n        /* \"#utility.yul\":1334:1340   */\n      dup6\n        /* \"#utility.yul\":1326:1332   */\n      dup7\n        /* \"#utility.yul\":1319:1341   */\n      revert\n        /* \"#utility.yul\":1282:1284   */\n    tag_117:\n        /* \"#utility.yul\":1361:1367   */\n      dup6\n        /* \"#utility.yul\":1352:1367   */\n      swap5\n      pop\n        /* \"#utility.yul\":1376:1541   */\n    tag_118:\n        /* \"#utility.yul\":1390:1394   */\n      0x09\n        /* \"#utility.yul\":1387:1388   */\n      dup6\n        /* \"#utility.yul\":1384:1395   */\n      lt\n        /* \"#utility.yul\":1376:1541   */\n      iszero\n      tag_120\n      jumpi\n        /* \"#utility.yul\":1449:1466   */\n      dup1\n      calldataload\n        /* \"#utility.yul\":1437:1467   */\n      dup3\n      mstore\n        /* \"#utility.yul\":1410:1411   */\n      0x01\n        /* \"#utility.yul\":1403:1412   */\n      swap5\n      swap1\n      swap5\n      add\n      swap4\n        /* \"#utility.yul\":1487:1499   */\n      swap1\n      dup4\n      add\n      swap1\n        /* \"#utility.yul\":1519:1531   */\n      dup4\n      add\n        /* \"#utility.yul\":1376:1541   */\n      jump(tag_118)\n    tag_120:\n        /* \"#utility.yul\":1380:1383   */\n      pop\n      pop\n        /* \"#utility.yul\":1560:1566   */\n      dup1\n        /* \"#utility.yul\":1550:1566   */\n      swap4\n      pop\n      pop\n      pop\n      pop\n        /* \"#utility.yul\":454:1572   */\n      swap3\n      swap6\n      swap2\n      swap5\n      pop\n      swap3\n      pop\n      jump\t// out\n        /* \"#utility.yul\":1577:1767   */\n    tag_26:\n        /* \"#utility.yul\":1636:1642   */\n      0x00\n        /* \"#utility.yul\":1689:1691   */\n      0x20\n        /* \"#utility.yul\":1677:1686   */\n      dup3\n        /* \"#utility.yul\":1668:1675   */\n      dup5\n        /* \"#utility.yul\":1664:1687   */\n      sub\n        /* \"#utility.yul\":1660:1692   */\n      slt\n        /* \"#utility.yul\":1657:1659   */\n      iszero\n      tag_122\n      jumpi\n        /* \"#utility.yul\":1710:1716   */\n      dup1\n        /* \"#utility.yul\":1702:1708   */\n      dup2\n        /* \"#utility.yul\":1695:1717   */\n      revert\n        /* \"#utility.yul\":1657:1659   */\n    tag_122:\n      pop\n        /* \"#utility.yul\":1738:1761   */\n      calldataload\n      swap2\n        /* \"#utility.yul\":1647:1767   */\n      swap1\n      pop\n      jump\t// out\n        /* \"#utility.yul\":5499:5727   */\n    tag_72:\n        /* \"#utility.yul\":5539:5543   */\n      0x00\n        /* \"#utility.yul\":5567:5568   */\n      dup3\n        /* \"#utility.yul\":5564:5565   */\n      dup3\n        /* \"#utility.yul\":5561:5569   */\n      lt\n        /* \"#utility.yul\":5558:5560   */\n      iszero\n      tag_132\n      jumpi\n      shl(0xe0, 0x4e487b71)\n        /* \"#utility.yul\":5592:5626   */\n      dup2\n      mstore\n        /* \"#utility.yul\":5649:5653   */\n      0x11\n        /* \"#utility.yul\":5646:5647   */\n      0x04\n        /* \"#utility.yul\":5639:5654   */\n      mstore\n        /* \"#utility.yul\":5680:5684   */\n      0x24\n        /* \"#utility.yul\":5599:5603   */\n      dup2\n        /* \"#utility.yul\":5667:5685   */\n      revert\n        /* \"#utility.yul\":5558:5560   */\n    tag_132:\n      pop\n        /* \"#utility.yul\":5712:5721   */\n      sub\n      swap1\n        /* \"#utility.yul\":5548:5727   */\n      jump\t// out\n        /* \"#utility.yul\":5732:5859   */\n    tag_116:\n        /* \"#utility.yul\":5793:5803   */\n      0x4e487b71\n        /* \"#utility.yul\":5788:5791   */\n      0xe0\n        /* \"#utility.yul\":5784:5804   */\n      shl\n        /* \"#utility.yul\":5781:5782   */\n      0x00\n        /* \"#utility.yul\":5774:5805   */\n      mstore\n        /* \"#utility.yul\":5824:5828   */\n      0x41\n        /* \"#utility.yul\":5821:5822   */\n      0x04\n        /* \"#utility.yul\":5814:5829   */\n      mstore\n        /* \"#utility.yul\":5848:5852   */\n      0x24\n        /* \"#utility.yul\":5845:5846   */\n      0x00\n        /* \"#utility.yul\":5838:5853   */\n      revert\n        /* \"#utility.yul\":5864:5995   */\n    tag_107:\n      sub(shl(0xa0, 0x01), 0x01)\n        /* \"#utility.yul\":5939:5970   */\n      dup2\n      and\n        /* \"#utility.yul\":5929:5971   */\n      dup2\n      eq\n        /* \"#utility.yul\":5919:5921   */\n      tag_91\n      jumpi\n        /* \"#utility.yul\":5985:5986   */\n      0x00\n        /* \"#utility.yul\":5982:5983   */\n      dup1\n        /* \"#utility.yul\":5975:5987   */\n      revert\n\n    auxdata: 0xa264697066735822122098b51c78461372882be51f2f09b5e1cffb530ff3d5c032a091aed654f32d4a0d64736f6c63430008040033\n}\n",
				"bytecode": {
					"linkReferences": {},
					"object": "60806040526001600055601980546001600160a01b03191673c778417e063141139fce010982780140aa0cd5ab1790556107198061003e6000396000f3fe60806040526004361061009c5760003560e01c8063861faf5f11610064578063861faf5f146101e95780638f1eae4c146101f1578063acfb2355146102a9578063ad5c464814610301578063e2d3f42314610339578063f8b2cb4f146103c157600080fd5b806318856a2f146100a1578063200d2ed2146101715780634329db461461019457806356c5f349146101a957806379647833146101d6575b600080fd5b3480156100ad57600080fd5b50600c54600d54600e54600f546010546011546012546013546014546015546016546017546018546100f99c6001600160a01b039081169c81169b169998979695949392919060ff168d565b604080516001600160a01b039e8f1681529c8e1660208e01529a909c16998b019990995260608a0197909752608089019590955260a088019390935260c087019190915260e08601526101008501526101208401526101408301526101608201529015156101808201526101a0015b60405180910390f35b34801561017d57600080fd5b506101866103e9565b604051908152602001610168565b6101a76101a236600461067d565b610412565b005b3480156101b557600080fd5b506101866101c4366004610599565b60046020526000908152604090205481565b6101a76101e436600461067d565b61044c565b6101a761056a565b3480156101fd57600080fd5b506101a761020c3660046105bc565b600c80546001600160a01b03199081166001600160a01b0396871617909155600d8054821694861694909417909355600e80549093169184169182179092558151600f55602082015160105560408201516011556060820151601255608082015160135560a082015160145560c082015160155560e0820151601655610100909101516017556019546018805460ff191691909316909114179055565b3480156102b557600080fd5b50600554600654600754600854600954600a546102d495949392919086565b604080519687526020870195909552938501929092526060840152608083015260a082015260c001610168565b34801561030d57600080fd5b50601954610321906001600160a01b031681565b6040516001600160a01b039091168152602001610168565b34801561034557600080fd5b50610390610354366004610599565b60036020819052600091825260409091208054600182015460028301549383015460049093015491939092909160ff8082169161010090041686565b60408051968752602087019590955293850192909252606084015215156080830152151560a082015260c001610168565b3480156103cd57600080fd5b506101866103dc366004610599565b6001600160a01b03163190565b6010546000904210156103fc5750600090565b60115442111561040c5750600290565b50600190565b336108fc6104208334610695565b6040518115909202916000818181858888f19350505050158015610448573d6000803e3d6000fd5b5050565b600260005414156104a45760405162461bcd60e51b815260206004820152601f60248201527f5265656e7472616e637947756172643a207265656e7472616e742063616c6c0060448201526064015b60405180910390fd5b60026000556104b16103e9565b6001146104ed5760405162461bcd60e51b815260206004820152600a6024820152694e4f542041435449564560b01b604482015260640161049b565b33600090815260036020526040812060185490919060ff1661050f5782610511565b345b601454909150819060009082101561055e5760405162461bcd60e51b815260206004820152601060248201526f4e6f7420656e6f7567682076616c756560801b604482015260640161049b565b50506001600055505050565b60405133904780156108fc02916000818181858888f19350505050158015610596573d6000803e3d6000fd5b50565b6000602082840312156105aa578081fd5b81356105b5816106ce565b9392505050565b6000806000806101808086880312156105d3578384fd5b85356105de816106ce565b94506020868101356105ef816106ce565b945060408701356105ff816106ce565b9350607f8701881361060f578283fd5b604051610120810181811067ffffffffffffffff82111715610633576106336106b8565b6040528060608901848a018b1015610649578586fd5b8594505b600985101561066c57803582526001949094019390830190830161064d565b505080935050505092959194509250565b60006020828403121561068e578081fd5b5035919050565b6000828210156106b357634e487b7160e01b81526011600452602481fd5b500390565b634e487b7160e01b600052604160045260246000fd5b6001600160a01b038116811461059657600080fdfea264697066735822122098b51c78461372882be51f2f09b5e1cffb530ff3d5c032a091aed654f32d4a0d64736f6c63430008040033",
					"opcodes": "PUSH1 0x80 PUSH1 0x40 MSTORE PUSH1 0x1 PUSH1 0x0 SSTORE PUSH1 0x19 DUP1 SLOAD PUSH1 0x1 PUSH1 0x1 PUSH1 0xA0 SHL SUB NOT AND PUSH20 0xC778417E063141139FCE010982780140AA0CD5AB OR SWAP1 SSTORE PUSH2 0x719 DUP1 PUSH2 0x3E PUSH1 0x0 CODECOPY PUSH1 0x0 RETURN INVALID PUSH1 0x80 PUSH1 0x40 MSTORE PUSH1 0x4 CALLDATASIZE LT PUSH2 0x9C JUMPI PUSH1 0x0 CALLDATALOAD PUSH1 0xE0 SHR DUP1 PUSH4 0x861FAF5F GT PUSH2 0x64 JUMPI DUP1 PUSH4 0x861FAF5F EQ PUSH2 0x1E9 JUMPI DUP1 PUSH4 0x8F1EAE4C EQ PUSH2 0x1F1 JUMPI DUP1 PUSH4 0xACFB2355 EQ PUSH2 0x2A9 JUMPI DUP1 PUSH4 0xAD5C4648 EQ PUSH2 0x301 JUMPI DUP1 PUSH4 0xE2D3F423 EQ PUSH2 0x339 JUMPI DUP1 PUSH4 0xF8B2CB4F EQ PUSH2 0x3C1 JUMPI PUSH1 0x0 DUP1 REVERT JUMPDEST DUP1 PUSH4 0x18856A2F EQ PUSH2 0xA1 JUMPI DUP1 PUSH4 0x200D2ED2 EQ PUSH2 0x171 JUMPI DUP1 PUSH4 0x4329DB46 EQ PUSH2 0x194 JUMPI DUP1 PUSH4 0x56C5F349 EQ PUSH2 0x1A9 JUMPI DUP1 PUSH4 0x79647833 EQ PUSH2 0x1D6 JUMPI JUMPDEST PUSH1 0x0 DUP1 REVERT JUMPDEST CALLVALUE DUP1 ISZERO PUSH2 0xAD JUMPI PUSH1 0x0 DUP1 REVERT JUMPDEST POP PUSH1 0xC SLOAD PUSH1 0xD SLOAD PUSH1 0xE SLOAD PUSH1 0xF SLOAD PUSH1 0x10 SLOAD PUSH1 0x11 SLOAD PUSH1 0x12 SLOAD PUSH1 0x13 SLOAD PUSH1 0x14 SLOAD PUSH1 0x15 SLOAD PUSH1 0x16 SLOAD PUSH1 0x17 SLOAD PUSH1 0x18 SLOAD PUSH2 0xF9 SWAP13 PUSH1 0x1 PUSH1 0x1 PUSH1 0xA0 SHL SUB SWAP1 DUP2 AND SWAP13 DUP2 AND SWAP12 AND SWAP10 SWAP9 SWAP8 SWAP7 SWAP6 SWAP5 SWAP4 SWAP3 SWAP2 SWAP1 PUSH1 0xFF AND DUP14 JUMP JUMPDEST PUSH1 0x40 DUP1 MLOAD PUSH1 0x1 PUSH1 0x1 PUSH1 0xA0 SHL SUB SWAP15 DUP16 AND DUP2 MSTORE SWAP13 DUP15 AND PUSH1 0x20 DUP15 ADD MSTORE SWAP11 SWAP1 SWAP13 AND SWAP10 DUP12 ADD SWAP10 SWAP1 SWAP10 MSTORE PUSH1 0x60 DUP11 ADD SWAP8 SWAP1 SWAP8 MSTORE PUSH1 0x80 DUP10 ADD SWAP6 SWAP1 SWAP6 MSTORE PUSH1 0xA0 DUP9 ADD SWAP4 SWAP1 SWAP4 MSTORE PUSH1 0xC0 DUP8 ADD SWAP2 SWAP1 SWAP2 MSTORE PUSH1 0xE0 DUP7 ADD MSTORE PUSH2 0x100 DUP6 ADD MSTORE PUSH2 0x120 DUP5 ADD MSTORE PUSH2 0x140 DUP4 ADD MSTORE PUSH2 0x160 DUP3 ADD MSTORE SWAP1 ISZERO ISZERO PUSH2 0x180 DUP3 ADD MSTORE PUSH2 0x1A0 ADD JUMPDEST PUSH1 0x40 MLOAD DUP1 SWAP2 SUB SWAP1 RETURN JUMPDEST CALLVALUE DUP1 ISZERO PUSH2 0x17D JUMPI PUSH1 0x0 DUP1 REVERT JUMPDEST POP PUSH2 0x186 PUSH2 0x3E9 JUMP JUMPDEST PUSH1 0x40 MLOAD SWAP1 DUP2 MSTORE PUSH1 0x20 ADD PUSH2 0x168 JUMP JUMPDEST PUSH2 0x1A7 PUSH2 0x1A2 CALLDATASIZE PUSH1 0x4 PUSH2 0x67D JUMP JUMPDEST PUSH2 0x412 JUMP JUMPDEST STOP JUMPDEST CALLVALUE DUP1 ISZERO PUSH2 0x1B5 JUMPI PUSH1 0x0 DUP1 REVERT JUMPDEST POP PUSH2 0x186 PUSH2 0x1C4 CALLDATASIZE PUSH1 0x4 PUSH2 0x599 JUMP JUMPDEST PUSH1 0x4 PUSH1 0x20 MSTORE PUSH1 0x0 SWAP1 DUP2 MSTORE PUSH1 0x40 SWAP1 KECCAK256 SLOAD DUP2 JUMP JUMPDEST PUSH2 0x1A7 PUSH2 0x1E4 CALLDATASIZE PUSH1 0x4 PUSH2 0x67D JUMP JUMPDEST PUSH2 0x44C JUMP JUMPDEST PUSH2 0x1A7 PUSH2 0x56A JUMP JUMPDEST CALLVALUE DUP1 ISZERO PUSH2 0x1FD JUMPI PUSH1 0x0 DUP1 REVERT JUMPDEST POP PUSH2 0x1A7 PUSH2 0x20C CALLDATASIZE PUSH1 0x4 PUSH2 0x5BC JUMP JUMPDEST PUSH1 0xC DUP1 SLOAD PUSH1 0x1 PUSH1 0x1 PUSH1 0xA0 SHL SUB NOT SWAP1 DUP2 AND PUSH1 0x1 PUSH1 0x1 PUSH1 0xA0 SHL SUB SWAP7 DUP8 AND OR SWAP1 SWAP2 SSTORE PUSH1 0xD DUP1 SLOAD DUP3 AND SWAP5 DUP7 AND SWAP5 SWAP1 SWAP5 OR SWAP1 SWAP4 SSTORE PUSH1 0xE DUP1 SLOAD SWAP1 SWAP4 AND SWAP2 DUP5 AND SWAP2 DUP3 OR SWAP1 SWAP3 SSTORE DUP2 MLOAD PUSH1 0xF SSTORE PUSH1 0x20 DUP3 ADD MLOAD PUSH1 0x10 SSTORE PUSH1 0x40 DUP3 ADD MLOAD PUSH1 0x11 SSTORE PUSH1 0x60 DUP3 ADD MLOAD PUSH1 0x12 SSTORE PUSH1 0x80 DUP3 ADD MLOAD PUSH1 0x13 SSTORE PUSH1 0xA0 DUP3 ADD MLOAD PUSH1 0x14 SSTORE PUSH1 0xC0 DUP3 ADD MLOAD PUSH1 0x15 SSTORE PUSH1 0xE0 DUP3 ADD MLOAD PUSH1 0x16 SSTORE PUSH2 0x100 SWAP1 SWAP2 ADD MLOAD PUSH1 0x17 SSTORE PUSH1 0x19 SLOAD PUSH1 0x18 DUP1 SLOAD PUSH1 0xFF NOT AND SWAP2 SWAP1 SWAP4 AND SWAP1 SWAP2 EQ OR SWAP1 SSTORE JUMP JUMPDEST CALLVALUE DUP1 ISZERO PUSH2 0x2B5 JUMPI PUSH1 0x0 DUP1 REVERT JUMPDEST POP PUSH1 0x5 SLOAD PUSH1 0x6 SLOAD PUSH1 0x7 SLOAD PUSH1 0x8 SLOAD PUSH1 0x9 SLOAD PUSH1 0xA SLOAD PUSH2 0x2D4 SWAP6 SWAP5 SWAP4 SWAP3 SWAP2 SWAP1 DUP7 JUMP JUMPDEST PUSH1 0x40 DUP1 MLOAD SWAP7 DUP8 MSTORE PUSH1 0x20 DUP8 ADD SWAP6 SWAP1 SWAP6 MSTORE SWAP4 DUP6 ADD SWAP3 SWAP1 SWAP3 MSTORE PUSH1 0x60 DUP5 ADD MSTORE PUSH1 0x80 DUP4 ADD MSTORE PUSH1 0xA0 DUP3 ADD MSTORE PUSH1 0xC0 ADD PUSH2 0x168 JUMP JUMPDEST CALLVALUE DUP1 ISZERO PUSH2 0x30D JUMPI PUSH1 0x0 DUP1 REVERT JUMPDEST POP PUSH1 0x19 SLOAD PUSH2 0x321 SWAP1 PUSH1 0x1 PUSH1 0x1 PUSH1 0xA0 SHL SUB AND DUP2 JUMP JUMPDEST PUSH1 0x40 MLOAD PUSH1 0x1 PUSH1 0x1 PUSH1 0xA0 SHL SUB SWAP1 SWAP2 AND DUP2 MSTORE PUSH1 0x20 ADD PUSH2 0x168 JUMP JUMPDEST CALLVALUE DUP1 ISZERO PUSH2 0x345 JUMPI PUSH1 0x0 DUP1 REVERT JUMPDEST POP PUSH2 0x390 PUSH2 0x354 CALLDATASIZE PUSH1 0x4 PUSH2 0x599 JUMP JUMPDEST PUSH1 0x3 PUSH1 0x20 DUP2 SWAP1 MSTORE PUSH1 0x0 SWAP2 DUP3 MSTORE PUSH1 0x40 SWAP1 SWAP2 KECCAK256 DUP1 SLOAD PUSH1 0x1 DUP3 ADD SLOAD PUSH1 0x2 DUP4 ADD SLOAD SWAP4 DUP4 ADD SLOAD PUSH1 0x4 SWAP1 SWAP4 ADD SLOAD SWAP2 SWAP4 SWAP1 SWAP3 SWAP1 SWAP2 PUSH1 0xFF DUP1 DUP3 AND SWAP2 PUSH2 0x100 SWAP1 DIV AND DUP7 JUMP JUMPDEST PUSH1 0x40 DUP1 MLOAD SWAP7 DUP8 MSTORE PUSH1 0x20 DUP8 ADD SWAP6 SWAP1 SWAP6 MSTORE SWAP4 DUP6 ADD SWAP3 SWAP1 SWAP3 MSTORE PUSH1 0x60 DUP5 ADD MSTORE ISZERO ISZERO PUSH1 0x80 DUP4 ADD MSTORE ISZERO ISZERO PUSH1 0xA0 DUP3 ADD MSTORE PUSH1 0xC0 ADD PUSH2 0x168 JUMP JUMPDEST CALLVALUE DUP1 ISZERO PUSH2 0x3CD JUMPI PUSH1 0x0 DUP1 REVERT JUMPDEST POP PUSH2 0x186 PUSH2 0x3DC CALLDATASIZE PUSH1 0x4 PUSH2 0x599 JUMP JUMPDEST PUSH1 0x1 PUSH1 0x1 PUSH1 0xA0 SHL SUB AND BALANCE SWAP1 JUMP JUMPDEST PUSH1 0x10 SLOAD PUSH1 0x0 SWAP1 TIMESTAMP LT ISZERO PUSH2 0x3FC JUMPI POP PUSH1 0x0 SWAP1 JUMP JUMPDEST PUSH1 0x11 SLOAD TIMESTAMP GT ISZERO PUSH2 0x40C JUMPI POP PUSH1 0x2 SWAP1 JUMP JUMPDEST POP PUSH1 0x1 SWAP1 JUMP JUMPDEST CALLER PUSH2 0x8FC PUSH2 0x420 DUP4 CALLVALUE PUSH2 0x695 JUMP JUMPDEST PUSH1 0x40 MLOAD DUP2 ISZERO SWAP1 SWAP3 MUL SWAP2 PUSH1 0x0 DUP2 DUP2 DUP2 DUP6 DUP9 DUP9 CALL SWAP4 POP POP POP POP ISZERO DUP1 ISZERO PUSH2 0x448 JUMPI RETURNDATASIZE PUSH1 0x0 DUP1 RETURNDATACOPY RETURNDATASIZE PUSH1 0x0 REVERT JUMPDEST POP POP JUMP JUMPDEST PUSH1 0x2 PUSH1 0x0 SLOAD EQ ISZERO PUSH2 0x4A4 JUMPI PUSH1 0x40 MLOAD PUSH3 0x461BCD PUSH1 0xE5 SHL DUP2 MSTORE PUSH1 0x20 PUSH1 0x4 DUP3 ADD MSTORE PUSH1 0x1F PUSH1 0x24 DUP3 ADD MSTORE PUSH32 0x5265656E7472616E637947756172643A207265656E7472616E742063616C6C00 PUSH1 0x44 DUP3 ADD MSTORE PUSH1 0x64 ADD JUMPDEST PUSH1 0x40 MLOAD DUP1 SWAP2 SUB SWAP1 REVERT JUMPDEST PUSH1 0x2 PUSH1 0x0 SSTORE PUSH2 0x4B1 PUSH2 0x3E9 JUMP JUMPDEST PUSH1 0x1 EQ PUSH2 0x4ED JUMPI PUSH1 0x40 MLOAD PUSH3 0x461BCD PUSH1 0xE5 SHL DUP2 MSTORE PUSH1 0x20 PUSH1 0x4 DUP3 ADD MSTORE PUSH1 0xA PUSH1 0x24 DUP3 ADD MSTORE PUSH10 0x4E4F5420414354495645 PUSH1 0xB0 SHL PUSH1 0x44 DUP3 ADD MSTORE PUSH1 0x64 ADD PUSH2 0x49B JUMP JUMPDEST CALLER PUSH1 0x0 SWAP1 DUP2 MSTORE PUSH1 0x3 PUSH1 0x20 MSTORE PUSH1 0x40 DUP2 KECCAK256 PUSH1 0x18 SLOAD SWAP1 SWAP2 SWAP1 PUSH1 0xFF AND PUSH2 0x50F JUMPI DUP3 PUSH2 0x511 JUMP JUMPDEST CALLVALUE JUMPDEST PUSH1 0x14 SLOAD SWAP1 SWAP2 POP DUP2 SWAP1 PUSH1 0x0 SWAP1 DUP3 LT ISZERO PUSH2 0x55E JUMPI PUSH1 0x40 MLOAD PUSH3 0x461BCD PUSH1 0xE5 SHL DUP2 MSTORE PUSH1 0x20 PUSH1 0x4 DUP3 ADD MSTORE PUSH1 0x10 PUSH1 0x24 DUP3 ADD MSTORE PUSH16 0x4E6F7420656E6F7567682076616C7565 PUSH1 0x80 SHL PUSH1 0x44 DUP3 ADD MSTORE PUSH1 0x64 ADD PUSH2 0x49B JUMP JUMPDEST POP POP PUSH1 0x1 PUSH1 0x0 SSTORE POP POP POP JUMP JUMPDEST PUSH1 0x40 MLOAD CALLER SWAP1 SELFBALANCE DUP1 ISZERO PUSH2 0x8FC MUL SWAP2 PUSH1 0x0 DUP2 DUP2 DUP2 DUP6 DUP9 DUP9 CALL SWAP4 POP POP POP POP ISZERO DUP1 ISZERO PUSH2 0x596 JUMPI RETURNDATASIZE PUSH1 0x0 DUP1 RETURNDATACOPY RETURNDATASIZE PUSH1 0x0 REVERT JUMPDEST POP JUMP JUMPDEST PUSH1 0x0 PUSH1 0x20 DUP3 DUP5 SUB SLT ISZERO PUSH2 0x5AA JUMPI DUP1 DUP2 REVERT JUMPDEST DUP2 CALLDATALOAD PUSH2 0x5B5 DUP2 PUSH2 0x6CE JUMP JUMPDEST SWAP4 SWAP3 POP POP POP JUMP JUMPDEST PUSH1 0x0 DUP1 PUSH1 0x0 DUP1 PUSH2 0x180 DUP1 DUP7 DUP9 SUB SLT ISZERO PUSH2 0x5D3 JUMPI DUP4 DUP5 REVERT JUMPDEST DUP6 CALLDATALOAD PUSH2 0x5DE DUP2 PUSH2 0x6CE JUMP JUMPDEST SWAP5 POP PUSH1 0x20 DUP7 DUP2 ADD CALLDATALOAD PUSH2 0x5EF DUP2 PUSH2 0x6CE JUMP JUMPDEST SWAP5 POP PUSH1 0x40 DUP8 ADD CALLDATALOAD PUSH2 0x5FF DUP2 PUSH2 0x6CE JUMP JUMPDEST SWAP4 POP PUSH1 0x7F DUP8 ADD DUP9 SGT PUSH2 0x60F JUMPI DUP3 DUP4 REVERT JUMPDEST PUSH1 0x40 MLOAD PUSH2 0x120 DUP2 ADD DUP2 DUP2 LT PUSH8 0xFFFFFFFFFFFFFFFF DUP3 GT OR ISZERO PUSH2 0x633 JUMPI PUSH2 0x633 PUSH2 0x6B8 JUMP JUMPDEST PUSH1 0x40 MSTORE DUP1 PUSH1 0x60 DUP10 ADD DUP5 DUP11 ADD DUP12 LT ISZERO PUSH2 0x649 JUMPI DUP6 DUP7 REVERT JUMPDEST DUP6 SWAP5 POP JUMPDEST PUSH1 0x9 DUP6 LT ISZERO PUSH2 0x66C JUMPI DUP1 CALLDATALOAD DUP3 MSTORE PUSH1 0x1 SWAP5 SWAP1 SWAP5 ADD SWAP4 SWAP1 DUP4 ADD SWAP1 DUP4 ADD PUSH2 0x64D JUMP JUMPDEST POP POP DUP1 SWAP4 POP POP POP POP SWAP3 SWAP6 SWAP2 SWAP5 POP SWAP3 POP JUMP JUMPDEST PUSH1 0x0 PUSH1 0x20 DUP3 DUP5 SUB SLT ISZERO PUSH2 0x68E JUMPI DUP1 DUP2 REVERT JUMPDEST POP CALLDATALOAD SWAP2 SWAP1 POP JUMP JUMPDEST PUSH1 0x0 DUP3 DUP3 LT ISZERO PUSH2 0x6B3 JUMPI PUSH4 0x4E487B71 PUSH1 0xE0 SHL DUP2 MSTORE PUSH1 0x11 PUSH1 0x4 MSTORE PUSH1 0x24 DUP2 REVERT JUMPDEST POP SUB SWAP1 JUMP JUMPDEST PUSH4 0x4E487B71 PUSH1 0xE0 SHL PUSH1 0x0 MSTORE PUSH1 0x41 PUSH1 0x4 MSTORE PUSH1 0x24 PUSH1 0x0 REVERT JUMPDEST PUSH1 0x1 PUSH1 0x1 PUSH1 0xA0 SHL SUB DUP2 AND DUP2 EQ PUSH2 0x596 JUMPI PUSH1 0x0 DUP1 REVERT INVALID LOG2 PUSH5 0x6970667358 0x22 SLT KECCAK256 SWAP9 0xB5 SHR PUSH25 0x461372882BE51F2F09B5E1CFFB530FF3D5C032A091AED654F3 0x2D 0x4A 0xD PUSH5 0x736F6C6343 STOP ADDMOD DIV STOP CALLER "
				},
				"gasEstimates": {
					"creation": {
						"codeDepositCost": "363400",
						"executionCost": "41217",
						"totalCost": "404617"
					},
					"external": {
						"WETH()": "1103",
						"backToken()": "infinite",
						"buyerInfo(address)": "4707",
						"depodit(uint256)": "29605",
						"getBalance(address)": "1172",
						"initialSaleInfor(address,address,address,uint256[9])": "infinite",
						"presaleStatus()": "5168",
						"saleInfor()": "10978",
						"status()": "1888",
						"transferETH(uint256)": "infinite",
						"userFee(address)": "1280"
					}
				},
				"methodIdentifiers": {
					"WETH()": "ad5c4648",
					"backToken()": "861faf5f",
					"buyerInfo(address)": "e2d3f423",
					"depodit(uint256)": "79647833",
					"getBalance(address)": "f8b2cb4f",
					"initialSaleInfor(address,address,address,uint256[9])": "8f1eae4c",
					"presaleStatus()": "acfb2355",
					"saleInfor()": "18856a2f",
					"status()": "200d2ed2",
					"transferETH(uint256)": "4329db46",
					"userFee(address)": "56c5f349"
				}
			},
			"storageLayout": {
				"storage": [
					{
						"astId": 1033,
						"contract": "Ethereum/Presale.sol:Presale",
						"label": "_status",
						"offset": 0,
						"slot": "0",
						"type": "t_uint256"
					},
					{
						"astId": 92,
						"contract": "Ethereum/Presale.sol:Presale",
						"label": "admins",
						"offset": 0,
						"slot": "1",
						"type": "t_struct(AddressSet)735_storage"
					},
					{
						"astId": 155,
						"contract": "Ethereum/Presale.sol:Presale",
						"label": "buyerInfo",
						"offset": 0,
						"slot": "3",
						"type": "t_mapping(t_address,t_struct(BuyerInfo)134_storage)"
					},
					{
						"astId": 159,
						"contract": "Ethereum/Presale.sol:Presale",
						"label": "userFee",
						"offset": 0,
						"slot": "4",
						"type": "t_mapping(t_address,t_uint256)"
					},
					{
						"astId": 162,
						"contract": "Ethereum/Presale.sol:Presale",
						"label": "presaleStatus",
						"offset": 0,
						"slot": "5",
						"type": "t_struct(PresaleStatus)150_storage"
					},
					{
						"astId": 165,
						"contract": "Ethereum/Presale.sol:Presale",
						"label": "saleInfor",
						"offset": 0,
						"slot": "12",
						"type": "t_struct(SaleInfor)121_storage"
					},
					{
						"astId": 168,
						"contract": "Ethereum/Presale.sol:Presale",
						"label": "WETH",
						"offset": 0,
						"slot": "25",
						"type": "t_contract(IERC20)77"
					}
				],
				"types": {
					"t_address": {
						"encoding": "inplace",
						"label": "address",
						"numberOfBytes": "20"
					},
					"t_address_payable": {
						"encoding": "inplace",
						"label": "address payable",
						"numberOfBytes": "20"
					},
					"t_array(t_address)dyn_storage": {
						"base": "t_address",
						"encoding": "dynamic_array",
						"label": "address[]",
						"numberOfBytes": "32"
					},
					"t_array(t_bytes32)dyn_storage": {
						"base": "t_bytes32",
						"encoding": "dynamic_array",
						"label": "bytes32[]",
						"numberOfBytes": "32"
					},
					"t_bool": {
						"encoding": "inplace",
						"label": "bool",
						"numberOfBytes": "1"
					},
					"t_bytes32": {
						"encoding": "inplace",
						"label": "bytes32",
						"numberOfBytes": "32"
					},
					"t_contract(IERC20)77": {
						"encoding": "inplace",
						"label": "contract IERC20",
						"numberOfBytes": "20"
					},
					"t_mapping(t_address,t_struct(BuyerInfo)134_storage)": {
						"encoding": "mapping",
						"key": "t_address",
						"label": "mapping(address => struct Presale.BuyerInfo)",
						"numberOfBytes": "32",
						"value": "t_struct(BuyerInfo)134_storage"
					},
					"t_mapping(t_address,t_uint256)": {
						"encoding": "mapping",
						"key": "t_address",
						"label": "mapping(address => uint256)",
						"numberOfBytes": "32",
						"value": "t_uint256"
					},
					"t_mapping(t_bytes32,t_uint256)": {
						"encoding": "mapping",
						"key": "t_bytes32",
						"label": "mapping(bytes32 => uint256)",
						"numberOfBytes": "32",
						"value": "t_uint256"
					},
					"t_struct(AddressSet)735_storage": {
						"encoding": "inplace",
						"label": "struct EnumerableSet.AddressSet",
						"members": [
							{
								"astId": 734,
								"contract": "Ethereum/Presale.sol:Presale",
								"label": "_inner",
								"offset": 0,
								"slot": "0",
								"type": "t_struct(Set)434_storage"
							}
						],
						"numberOfBytes": "64"
					},
					"t_struct(BuyerInfo)134_storage": {
						"encoding": "inplace",
						"label": "struct Presale.BuyerInfo",
						"members": [
							{
								"astId": 123,
								"contract": "Ethereum/Presale.sol:Presale",
								"label": "baseDeposit",
								"offset": 0,
								"slot": "0",
								"type": "t_uint256"
							},
							{
								"astId": 125,
								"contract": "Ethereum/Presale.sol:Presale",
								"label": "tokenOwner",
								"offset": 0,
								"slot": "1",
								"type": "t_uint256"
							},
							{
								"astId": 127,
								"contract": "Ethereum/Presale.sol:Presale",
								"label": "lastWithDraw",
								"offset": 0,
								"slot": "2",
								"type": "t_uint256"
							},
							{
								"astId": 129,
								"contract": "Ethereum/Presale.sol:Presale",
								"label": "totalTokenWithDraw",
								"offset": 0,
								"slot": "3",
								"type": "t_uint256"
							},
							{
								"astId": 131,
								"contract": "Ethereum/Presale.sol:Presale",
								"label": "isRefund",
								"offset": 0,
								"slot": "4",
								"type": "t_bool"
							},
							{
								"astId": 133,
								"contract": "Ethereum/Presale.sol:Presale",
								"label": "isClaim",
								"offset": 1,
								"slot": "4",
								"type": "t_bool"
							}
						],
						"numberOfBytes": "160"
					},
					"t_struct(PresaleStatus)150_storage": {
						"encoding": "inplace",
						"label": "struct Presale.PresaleStatus",
						"members": [
							{
								"astId": 136,
								"contract": "Ethereum/Presale.sol:Presale",
								"label": "totalBaseCollected",
								"offset": 0,
								"slot": "0",
								"type": "t_uint256"
							},
							{
								"astId": 138,
								"contract": "Ethereum/Presale.sol:Presale",
								"label": "totalTokenSold",
								"offset": 0,
								"slot": "1",
								"type": "t_uint256"
							},
							{
								"astId": 140,
								"contract": "Ethereum/Presale.sol:Presale",
								"label": "totalTokenWithDraw",
								"offset": 0,
								"slot": "2",
								"type": "t_uint256"
							},
							{
								"astId": 142,
								"contract": "Ethereum/Presale.sol:Presale",
								"label": "totalBaseWithDraw",
								"offset": 0,
								"slot": "3",
								"type": "t_uint256"
							},
							{
								"astId": 144,
								"contract": "Ethereum/Presale.sol:Presale",
								"label": "numByer",
								"offset": 0,
								"slot": "4",
								"type": "t_uint256"
							},
							{
								"astId": 146,
								"contract": "Ethereum/Presale.sol:Presale",
								"label": "totalFee",
								"offset": 0,
								"slot": "5",
								"type": "t_uint256"
							},
							{
								"astId": 149,
								"contract": "Ethereum/Presale.sol:Presale",
								"label": "whileList",
								"offset": 0,
								"slot": "6",
								"type": "t_array(t_address)dyn_storage"
							}
						],
						"numberOfBytes": "224"
					},
					"t_struct(SaleInfor)121_storage": {
						"encoding": "inplace",
						"label": "struct Presale.SaleInfor",
						"members": [
							{
								"astId": 94,
								"contract": "Ethereum/Presale.sol:Presale",
								"label": "presaleOwner",
								"offset": 0,
								"slot": "0",
								"type": "t_address_payable"
							},
							{
								"astId": 97,
								"contract": "Ethereum/Presale.sol:Presale",
								"label": "saleToken",
								"offset": 0,
								"slot": "1",
								"type": "t_contract(IERC20)77"
							},
							{
								"astId": 100,
								"contract": "Ethereum/Presale.sol:Presale",
								"label": "baseToken",
								"offset": 0,
								"slot": "2",
								"type": "t_contract(IERC20)77"
							},
							{
								"astId": 102,
								"contract": "Ethereum/Presale.sol:Presale",
								"label": "tokenPrice",
								"offset": 0,
								"slot": "3",
								"type": "t_uint256"
							},
							{
								"astId": 104,
								"contract": "Ethereum/Presale.sol:Presale",
								"label": "startSale",
								"offset": 0,
								"slot": "4",
								"type": "t_uint256"
							},
							{
								"astId": 106,
								"contract": "Ethereum/Presale.sol:Presale",
								"label": "endSale",
								"offset": 0,
								"slot": "5",
								"type": "t_uint256"
							},
							{
								"astId": 108,
								"contract": "Ethereum/Presale.sol:Presale",
								"label": "valueSwapERC20",
								"offset": 0,
								"slot": "6",
								"type": "t_uint256"
							},
							{
								"astId": 110,
								"contract": "Ethereum/Presale.sol:Presale",
								"label": "feeTransaction",
								"offset": 0,
								"slot": "7",
								"type": "t_uint256"
							},
							{
								"astId": 112,
								"contract": "Ethereum/Presale.sol:Presale",
								"label": "minSpendPerBuyer",
								"offset": 0,
								"slot": "8",
								"type": "t_uint256"
							},
							{
								"astId": 114,
								"contract": "Ethereum/Presale.sol:Presale",
								"label": "maxSpendPerBuyer",
								"offset": 0,
								"slot": "9",
								"type": "t_uint256"
							},
							{
								"astId": 116,
								"contract": "Ethereum/Presale.sol:Presale",
								"label": "refundFee",
								"offset": 0,
								"slot": "10",
								"type": "t_uint256"
							},
							{
								"astId": 118,
								"contract": "Ethereum/Presale.sol:Presale",
								"label": "claimFee",
								"offset": 0,
								"slot": "11",
								"type": "t_uint256"
							},
							{
								"astId": 120,
								"contract": "Ethereum/Presale.sol:Presale",
								"label": "saleIsBaseToken",
								"offset": 0,
								"slot": "12",
								"type": "t_bool"
							}
						],
						"numberOfBytes": "416"
					},
					"t_struct(Set)434_storage": {
						"encoding": "inplace",
						"label": "struct EnumerableSet.Set",
						"members": [
							{
								"astId": 429,
								"contract": "Ethereum/Presale.sol:Presale",
								"label": "_values",
								"offset": 0,
								"slot": "0",
								"type": "t_array(t_bytes32)dyn_storage"
							},
							{
								"astId": 433,
								"contract": "Ethereum/Presale.sol:Presale",
								"label": "_indexes",
								"offset": 0,
								"slot": "1",
								"type": "t_mapping(t_bytes32,t_uint256)"
							}
						],
						"numberOfBytes": "64"
					},
					"t_uint256": {
						"encoding": "inplace",
						"label": "uint256",
						"numberOfBytes": "32"
					}
				}
			},
			"userdoc": {
				"kind": "user",
				"methods": {},
				"version": 1
			}
		}
	}
}