{
	"Ethereum/Presale.sol": {
		"Presale": {
			"abi": [
				{
					"inputs": [],
					"stateMutability": "payable",
					"type": "constructor"
				},
				{
					"anonymous": false,
					"inputs": [
						{
							"indexed": true,
							"internalType": "address",
							"name": "previousOwner",
							"type": "address"
						},
						{
							"indexed": true,
							"internalType": "address",
							"name": "newOwner",
							"type": "address"
						}
					],
					"name": "OwnershipTransferred",
					"type": "event"
				},
				{
					"inputs": [],
					"name": "WETH",
					"outputs": [
						{
							"internalType": "contract IERC20",
							"name": "",
							"type": "address"
						}
					],
					"stateMutability": "view",
					"type": "function"
				},
				{
					"inputs": [],
					"name": "backToken",
					"outputs": [],
					"stateMutability": "payable",
					"type": "function"
				},
				{
					"inputs": [
						{
							"internalType": "address",
							"name": "",
							"type": "address"
						}
					],
					"name": "buyerInfo",
					"outputs": [
						{
							"internalType": "uint256",
							"name": "baseDeposit",
							"type": "uint256"
						},
						{
							"internalType": "uint256",
							"name": "tokenOwner",
							"type": "uint256"
						},
						{
							"internalType": "uint256",
							"name": "lastWithDraw",
							"type": "uint256"
						},
						{
							"internalType": "uint256",
							"name": "totalTokenWithDraw",
							"type": "uint256"
						}
					],
					"stateMutability": "view",
					"type": "function"
				},
				{
					"inputs": [],
					"name": "checkAdminAddress",
					"outputs": [
						{
							"internalType": "bool",
							"name": "",
							"type": "bool"
						}
					],
					"stateMutability": "view",
					"type": "function"
				},
				{
					"inputs": [
						{
							"internalType": "uint256",
							"name": "_amount",
							"type": "uint256"
						}
					],
					"name": "deposit",
					"outputs": [],
					"stateMutability": "payable",
					"type": "function"
				},
				{
					"inputs": [],
					"name": "feeAnyone",
					"outputs": [
						{
							"internalType": "uint256",
							"name": "",
							"type": "uint256"
						}
					],
					"stateMutability": "view",
					"type": "function"
				},
				{
					"inputs": [
						{
							"internalType": "address",
							"name": "_address",
							"type": "address"
						}
					],
					"name": "getBalance",
					"outputs": [
						{
							"internalType": "uint256",
							"name": "",
							"type": "uint256"
						}
					],
					"stateMutability": "view",
					"type": "function"
				},
				{
					"inputs": [
						{
							"internalType": "address payable",
							"name": "_presaleOwner",
							"type": "address"
						},
						{
							"internalType": "contract ERC20",
							"name": "_saleToken",
							"type": "address"
						},
						{
							"internalType": "contract ERC20",
							"name": "_baseTOken",
							"type": "address"
						},
						{
							"internalType": "uint256[9]",
							"name": "datas",
							"type": "uint256[9]"
						}
					],
					"name": "initialSaleInfor",
					"outputs": [],
					"stateMutability": "nonpayable",
					"type": "function"
				},
				{
					"inputs": [],
					"name": "owner",
					"outputs": [
						{
							"internalType": "address",
							"name": "",
							"type": "address"
						}
					],
					"stateMutability": "view",
					"type": "function"
				},
				{
					"inputs": [],
					"name": "ownerClaimAndRefundToken",
					"outputs": [],
					"stateMutability": "nonpayable",
					"type": "function"
				},
				{
					"inputs": [],
					"name": "presaleStatus",
					"outputs": [
						{
							"internalType": "uint256",
							"name": "totalBaseCollected",
							"type": "uint256"
						},
						{
							"internalType": "uint256",
							"name": "totalTokenSold",
							"type": "uint256"
						},
						{
							"internalType": "uint256",
							"name": "totalTokenWithDraw",
							"type": "uint256"
						},
						{
							"internalType": "uint256",
							"name": "totalBaseWithDraw",
							"type": "uint256"
						},
						{
							"internalType": "uint256",
							"name": "numberBuyer",
							"type": "uint256"
						},
						{
							"internalType": "bool",
							"name": "isOwnerClaimSaleToken",
							"type": "bool"
						},
						{
							"internalType": "bool",
							"name": "isOwnerRefundBaseToken",
							"type": "bool"
						}
					],
					"stateMutability": "view",
					"type": "function"
				},
				{
					"inputs": [],
					"name": "renounceOwnership",
					"outputs": [],
					"stateMutability": "nonpayable",
					"type": "function"
				},
				{
					"inputs": [],
					"name": "saleInfor",
					"outputs": [
						{
							"internalType": "address payable",
							"name": "presaleOwner",
							"type": "address"
						},
						{
							"internalType": "contract ERC20",
							"name": "saleToken",
							"type": "address"
						},
						{
							"internalType": "contract ERC20",
							"name": "baseToken",
							"type": "address"
						},
						{
							"internalType": "uint256",
							"name": "tokenPrice",
							"type": "uint256"
						},
						{
							"internalType": "uint256",
							"name": "startSale",
							"type": "uint256"
						},
						{
							"internalType": "uint256",
							"name": "endSale",
							"type": "uint256"
						},
						{
							"internalType": "uint256",
							"name": "minSpendPerBuyer",
							"type": "uint256"
						},
						{
							"internalType": "uint256",
							"name": "maxSpendPerBuyer",
							"type": "uint256"
						},
						{
							"internalType": "uint256",
							"name": "refundFee",
							"type": "uint256"
						},
						{
							"internalType": "uint256",
							"name": "claimFee",
							"type": "uint256"
						},
						{
							"internalType": "bool",
							"name": "saleIsBaseToken",
							"type": "bool"
						},
						{
							"internalType": "uint256",
							"name": "amountTokenForSale",
							"type": "uint256"
						}
					],
					"stateMutability": "view",
					"type": "function"
				},
				{
					"inputs": [],
					"name": "saleTotalSupply",
					"outputs": [
						{
							"internalType": "uint256",
							"name": "hardCap",
							"type": "uint256"
						},
						{
							"internalType": "uint256",
							"name": "softCap",
							"type": "uint256"
						}
					],
					"stateMutability": "view",
					"type": "function"
				},
				{
					"inputs": [],
					"name": "status",
					"outputs": [
						{
							"internalType": "uint256",
							"name": "",
							"type": "uint256"
						}
					],
					"stateMutability": "view",
					"type": "function"
				},
				{
					"inputs": [],
					"name": "totalFee",
					"outputs": [
						{
							"internalType": "uint256",
							"name": "",
							"type": "uint256"
						}
					],
					"stateMutability": "view",
					"type": "function"
				},
				{
					"inputs": [
						{
							"internalType": "address",
							"name": "newOwner",
							"type": "address"
						}
					],
					"name": "transferOwnership",
					"outputs": [],
					"stateMutability": "nonpayable",
					"type": "function"
				},
				{
					"inputs": [],
					"name": "userClaimEmergency",
					"outputs": [],
					"stateMutability": "nonpayable",
					"type": "function"
				},
				{
					"inputs": [],
					"name": "userClaimWhenSaleSuccess",
					"outputs": [],
					"stateMutability": "nonpayable",
					"type": "function"
				},
				{
					"inputs": [
						{
							"internalType": "address",
							"name": "",
							"type": "address"
						}
					],
					"name": "userFee",
					"outputs": [
						{
							"internalType": "uint256",
							"name": "",
							"type": "uint256"
						}
					],
					"stateMutability": "view",
					"type": "function"
				},
				{
					"inputs": [],
					"name": "userRefundEmergency",
					"outputs": [],
					"stateMutability": "nonpayable",
					"type": "function"
				}
			],
			"devdoc": {
				"kind": "dev",
				"methods": {
					"owner()": {
						"details": "Returns the address of the current owner."
					},
					"renounceOwnership()": {
						"details": "Leaves the contract without owner. It will not be possible to call `onlyOwner` functions anymore. Can only be called by the current owner. NOTE: Renouncing ownership will leave the contract without an owner, thereby removing any functionality that is only available to the owner."
					},
					"transferOwnership(address)": {
						"details": "Transfers ownership of the contract to a new account (`newOwner`). Can only be called by the current owner."
					}
				},
				"version": 1
			},
			"evm": {
				"assembly": "    /* \"Ethereum/Presale.sol\":370:9839  contract Presale is ReentrancyGuard, Ownable{\r... */\n  mstore(0x40, 0x80)\n    /* \"Utils/ReentrancyGuard.sol\":1734:1735  1 */\n  0x01\n    /* \"Utils/ReentrancyGuard.sol\":1845:1852  _status */\n  0x00\n    /* \"Utils/ReentrancyGuard.sol\":1845:1867  _status = _NOT_ENTERED */\n  sstore\n    /* \"Utils/Ownable.sol\":942:974  _transferOwnership(_msgSender()) */\n  tag_6\n    /* \"Utils/Context.sol\":736:746  msg.sender */\n  caller\n    /* \"Utils/Ownable.sol\":942:960  _transferOwnership */\n  tag_9\n    /* \"Utils/Ownable.sol\":942:974  _transferOwnership(_msgSender()) */\n  jump\t// in\ntag_6:\n    /* \"Ethereum/Presale.sol\":2246:2250  WETH */\n  0x19\n    /* \"Ethereum/Presale.sol\":2246:2302  WETH = ERC20(0xc778417E063141139Fce010982780140Aa0cD5Ab) */\n  dup1\n  sload\n    /* \"Ethereum/Presale.sol\":2259:2301  0xc778417E063141139Fce010982780140Aa0cD5Ab */\n  0xc778417e063141139fce010982780140aa0cd5ab\n  not(sub(shl(0xa0, 0x01), 0x01))\n    /* \"Ethereum/Presale.sol\":2246:2302  WETH = ERC20(0xc778417E063141139Fce010982780140Aa0cD5Ab) */\n  swap1\n  swap2\n  and\n  or\n  swap1\n  sstore\n    /* \"Ethereum/Presale.sol\":2313:2367  admins.add(0x6Ccb41eedA5a073076F3E7dC1614C185b5fA41eD) */\n  tag_11\n    /* \"Ethereum/Presale.sol\":2313:2319  admins */\n  0x1b\n    /* \"Ethereum/Presale.sol\":2324:2366  0x6Ccb41eedA5a073076F3E7dC1614C185b5fA41eD */\n  0x6ccb41eeda5a073076f3e7dc1614c185b5fa41ed\n    /* \"Ethereum/Presale.sol\":2313:2323  admins.add */\n  tag_12\n  0x20\n  swap1\n  dup2\n  shl\n  tag_0_116\n  or\n    /* \"Ethereum/Presale.sol\":2313:2367  admins.add(0x6Ccb41eedA5a073076F3E7dC1614C185b5fA41eD) */\n  swap1\n  shr\n  jump\t// in\ntag_11:\n  pop\n    /* \"Ethereum/Presale.sol\":2378:2432  admins.add(0x4f0B12bBF40Fc182559822A5b1dB6D34dbC3E016) */\n  tag_13\n    /* \"Ethereum/Presale.sol\":2389:2431  0x4f0B12bBF40Fc182559822A5b1dB6D34dbC3E016 */\n  0x4f0b12bbf40fc182559822a5b1db6d34dbc3e016\n    /* \"Ethereum/Presale.sol\":2378:2384  admins */\n  0x1b\n    /* \"Ethereum/Presale.sol\":2378:2388  admins.add */\n  or(tag_0_116, shl(0x20, tag_12))\n  swap1\n    /* \"Ethereum/Presale.sol\":2378:2432  admins.add(0x4f0B12bBF40Fc182559822A5b1dB6D34dbC3E016) */\n  swap2\n  swap1\n  0x20\n  shr\n  jump\t// in\ntag_13:\n  pop\n    /* \"Ethereum/Presale.sol\":2455:2457  20 */\n  0x14\n    /* \"Ethereum/Presale.sol\":2443:2452  feeAnyone */\n  0x1a\n    /* \"Ethereum/Presale.sol\":2443:2457  feeAnyone = 20 */\n  sstore\n    /* \"Ethereum/Presale.sol\":370:9839  contract Presale is ReentrancyGuard, Ownable{\r... */\n  jump(tag_14)\n    /* \"Utils/Ownable.sol\":2333:2524  function _transferOwnership(address newOwner) internal virtual {\r... */\ntag_9:\n    /* \"Utils/Ownable.sol\":2426:2432  _owner */\n  0x01\n  dup1\n  sload\n  sub(shl(0xa0, 0x01), 0x01)\n    /* \"Utils/Ownable.sol\":2443:2460  _owner = newOwner */\n  dup4\n  dup2\n  and\n  not(sub(shl(0xa0, 0x01), 0x01))\n  dup4\n  and\n  dup2\n  or\n  swap1\n  swap4\n  sstore\n    /* \"Utils/Ownable.sol\":2476:2516  OwnershipTransferred(oldOwner, newOwner) */\n  mload(0x40)\n    /* \"Utils/Ownable.sol\":2426:2432  _owner */\n  swap2\n  and\n  swap2\n    /* \"Utils/Ownable.sol\":2443:2460  _owner = newOwner */\n  swap1\n    /* \"Utils/Ownable.sol\":2426:2432  _owner */\n  dup3\n  swap1\n    /* \"Utils/Ownable.sol\":2476:2516  OwnershipTransferred(oldOwner, newOwner) */\n  0x8be0079c531659141344cd1fd0a4f28419497f9722a3daafe3b4186f6b6457e0\n  swap1\n    /* \"Utils/Ownable.sol\":2407:2423  address oldOwner */\n  0x00\n  swap1\n    /* \"Utils/Ownable.sol\":2476:2516  OwnershipTransferred(oldOwner, newOwner) */\n  log3\n    /* \"Utils/Ownable.sol\":2396:2524  {\r... */\n  pop\n    /* \"Utils/Ownable.sol\":2333:2524  function _transferOwnership(address newOwner) internal virtual {\r... */\n  pop\n  jump\t// out\n    /* \"Utils/EnumerableSet.sol\":8259:8411  function add(AddressSet storage set, address value) internal returns (bool) {\r... */\ntag_12:\n    /* \"Utils/EnumerableSet.sol\":8329:8333  bool */\n  0x00\n    /* \"Utils/EnumerableSet.sol\":8353:8403  _add(set._inner, bytes32(uint256(uint160(value)))) */\n  tag_18\n    /* \"Utils/EnumerableSet.sol\":8358:8361  set */\n  dup4\n  sub(shl(0xa0, 0x01), 0x01)\n    /* \"Utils/EnumerableSet.sol\":8378:8401  uint256(uint160(value)) */\n  dup5\n  and\n    /* \"Utils/EnumerableSet.sol\":8353:8357  _add */\n  tag_19\n    /* \"Utils/EnumerableSet.sol\":8353:8403  _add(set._inner, bytes32(uint256(uint160(value)))) */\n  jump\t// in\ntag_18:\n    /* \"Utils/EnumerableSet.sol\":8346:8403  return _add(set._inner, bytes32(uint256(uint160(value)))) */\n  swap1\n  pop\n    /* \"Utils/EnumerableSet.sol\":8259:8411  function add(AddressSet storage set, address value) internal returns (bool) {\r... */\ntag_17:\n  swap3\n  swap2\n  pop\n  pop\n  jump\t// out\n    /* \"Utils/EnumerableSet.sol\":2174:2588  function _add(Set storage set, bytes32 value) private returns (bool) {\r... */\ntag_19:\n    /* \"Utils/EnumerableSet.sol\":2237:2241  bool */\n  0x00\n    /* \"Utils/EnumerableSet.sol\":4367:4386  set._indexes[value] */\n  dup2\n  dup2\n  mstore\n    /* \"Utils/EnumerableSet.sol\":4367:4379  set._indexes */\n  0x01\n  dup4\n  add\n    /* \"Utils/EnumerableSet.sol\":4367:4386  set._indexes[value] */\n  0x20\n  mstore\n  0x40\n  dup2\n  keccak256\n  sload\n    /* \"Utils/EnumerableSet.sol\":2254:2581  if (!_contains(set, value)) {\r... */\n  tag_23\n  jumpi\n  pop\n    /* \"Utils/EnumerableSet.sol\":2297:2320  set._values.push(value) */\n  dup2\n  sload\n  0x01\n  dup2\n  dup2\n  add\n  dup5\n  sstore\n    /* \"Utils/EnumerableSet.sol\":2297:2308  set._values */\n  0x00\n    /* \"Utils/EnumerableSet.sol\":2297:2320  set._values.push(value) */\n  dup5\n  dup2\n  mstore\n  0x20\n  dup1\n  dup3\n  keccak256\n  swap1\n  swap4\n  add\n  dup5\n  swap1\n  sstore\n    /* \"Utils/EnumerableSet.sol\":2480:2498  set._values.length */\n  dup5\n  sload\n    /* \"Utils/EnumerableSet.sol\":2458:2477  set._indexes[value] */\n  dup5\n  dup3\n  mstore\n    /* \"Utils/EnumerableSet.sol\":2458:2470  set._indexes */\n  dup3\n  dup7\n  add\n    /* \"Utils/EnumerableSet.sol\":2458:2477  set._indexes[value] */\n  swap1\n  swap4\n  mstore\n  0x40\n  swap1\n  keccak256\n    /* \"Utils/EnumerableSet.sol\":2458:2498  set._indexes[value] = set._values.length */\n  swap2\n  swap1\n  swap2\n  sstore\n    /* \"Utils/EnumerableSet.sol\":2513:2524  return true */\n  jump(tag_17)\n    /* \"Utils/EnumerableSet.sol\":2254:2581  if (!_contains(set, value)) {\r... */\ntag_23:\n  pop\n    /* \"Utils/EnumerableSet.sol\":2564:2569  false */\n  0x00\n    /* \"Utils/EnumerableSet.sol\":2557:2569  return false */\n  jump(tag_17)\n    /* \"Ethereum/Presale.sol\":370:9839  contract Presale is ReentrancyGuard, Ownable{\r... */\ntag_14:\n  dataSize(sub_0)\n  dup1\n  dataOffset(sub_0)\n  0x00\n  codecopy\n  0x00\n  return\nstop\n\nsub_0: assembly {\n        /* \"Ethereum/Presale.sol\":370:9839  contract Presale is ReentrancyGuard, Ownable{\r... */\n      mstore(0x40, 0x80)\n      jumpi(tag_1, lt(calldatasize, 0x04))\n      shr(0xe0, calldataload(0x00))\n      dup1\n      0x8f1eae4c\n      gt\n      tag_23\n      jumpi\n      dup1\n      0xb6b55f25\n      gt\n      tag_24\n      jumpi\n      dup1\n      0xb6b55f25\n      eq\n      tag_17\n      jumpi\n      dup1\n      0xcad5b0f7\n      eq\n      tag_18\n      jumpi\n      dup1\n      0xce441b18\n      eq\n      tag_19\n      jumpi\n      dup1\n      0xe2d3f423\n      eq\n      tag_20\n      jumpi\n      dup1\n      0xf2fde38b\n      eq\n      tag_21\n      jumpi\n      dup1\n      0xf8b2cb4f\n      eq\n      tag_22\n      jumpi\n      0x00\n      dup1\n      revert\n    tag_24:\n      dup1\n      0x8f1eae4c\n      eq\n      tag_12\n      jumpi\n      dup1\n      0x95661e70\n      eq\n      tag_13\n      jumpi\n      dup1\n      0xab33985a\n      eq\n      tag_14\n      jumpi\n      dup1\n      0xacfb2355\n      eq\n      tag_15\n      jumpi\n      dup1\n      0xad5c4648\n      eq\n      tag_16\n      jumpi\n      0x00\n      dup1\n      revert\n    tag_23:\n      dup1\n      0x56c5f349\n      gt\n      tag_25\n      jumpi\n      dup1\n      0x56c5f349\n      eq\n      tag_7\n      jumpi\n      dup1\n      0x715018a6\n      eq\n      tag_8\n      jumpi\n      dup1\n      0x861faf5f\n      eq\n      tag_9\n      jumpi\n      dup1\n      0x8da5cb5b\n      eq\n      tag_10\n      jumpi\n      dup1\n      0x8edf18e6\n      eq\n      tag_11\n      jumpi\n      0x00\n      dup1\n      revert\n    tag_25:\n      dup1\n      0x12e5d0b9\n      eq\n      tag_2\n      jumpi\n      dup1\n      0x18856a2f\n      eq\n      tag_3\n      jumpi\n      dup1\n      0x1df4ccfc\n      eq\n      tag_4\n      jumpi\n      dup1\n      0x200d2ed2\n      eq\n      tag_5\n      jumpi\n      dup1\n      0x3b5ef2ad\n      eq\n      tag_6\n      jumpi\n    tag_1:\n      0x00\n      dup1\n      revert\n        /* \"Ethereum/Presale.sol\":1624:1662  SaleTotalSupply public saleTotalSupply */\n    tag_2:\n      callvalue\n      dup1\n      iszero\n      tag_26\n      jumpi\n      0x00\n      dup1\n      revert\n    tag_26:\n      pop\n      sload(0x0b)\n      sload(0x0c)\n      tag_27\n      swap2\n      swap1\n      dup3\n      jump\n    tag_27:\n      0x40\n      dup1\n      mload\n        /* \"#utility.yul\":11128:11153   */\n      swap3\n      dup4\n      mstore\n        /* \"#utility.yul\":11184:11186   */\n      0x20\n        /* \"#utility.yul\":11169:11187   */\n      dup4\n      add\n        /* \"#utility.yul\":11162:11196   */\n      swap2\n      swap1\n      swap2\n      mstore\n        /* \"#utility.yul\":11101:11119   */\n      add\n        /* \"Ethereum/Presale.sol\":1624:1662  SaleTotalSupply public saleTotalSupply */\n    tag_29:\n      mload(0x40)\n      dup1\n      swap2\n      sub\n      swap1\n      return\n        /* \"Ethereum/Presale.sol\":1669:1695  SaleInfor public saleInfor */\n    tag_3:\n      callvalue\n      dup1\n      iszero\n      tag_31\n      jumpi\n      0x00\n      dup1\n      revert\n    tag_31:\n      pop\n      sload(0x0d)\n      sload(0x0e)\n      sload(0x0f)\n      sload(0x10)\n      sload(0x11)\n      sload(0x12)\n      sload(0x13)\n      sload(0x14)\n      sload(0x15)\n      sload(0x16)\n      sload(0x17)\n      sload(0x18)\n      tag_32\n      swap12\n      sub(shl(0xa0, 0x01), 0x01)\n      swap1\n      dup2\n      and\n      swap12\n      dup2\n      and\n      swap11\n      and\n      swap9\n      swap8\n      swap7\n      swap6\n      swap5\n      swap4\n      swap3\n      swap2\n      0xff\n      and\n      swap1\n      dup13\n      jump\n    tag_32:\n      0x40\n      dup1\n      mload\n      sub(shl(0xa0, 0x01), 0x01)\n        /* \"#utility.yul\":3376:3391   */\n      swap14\n      dup15\n      and\n        /* \"#utility.yul\":3358:3392   */\n      dup2\n      mstore\n        /* \"#utility.yul\":3428:3443   */\n      swap12\n      dup14\n      and\n        /* \"#utility.yul\":3423:3425   */\n      0x20\n        /* \"#utility.yul\":3408:3426   */\n      dup14\n      add\n        /* \"#utility.yul\":3401:3444   */\n      mstore\n        /* \"#utility.yul\":3480:3495   */\n      swap10\n      swap1\n      swap12\n      and\n        /* \"#utility.yul\":3460:3478   */\n      swap9\n      dup11\n      add\n        /* \"#utility.yul\":3453:3496   */\n      swap9\n      swap1\n      swap9\n      mstore\n        /* \"#utility.yul\":3527:3529   */\n      0x60\n        /* \"#utility.yul\":3512:3530   */\n      dup10\n      add\n        /* \"#utility.yul\":3505:3539   */\n      swap7\n      swap1\n      swap7\n      mstore\n        /* \"#utility.yul\":3570:3573   */\n      0x80\n        /* \"#utility.yul\":3555:3574   */\n      dup9\n      add\n        /* \"#utility.yul\":3548:3583   */\n      swap5\n      swap1\n      swap5\n      mstore\n        /* \"#utility.yul\":3338:3341   */\n      0xa0\n        /* \"#utility.yul\":3599:3618   */\n      dup8\n      add\n        /* \"#utility.yul\":3592:3627   */\n      swap3\n      swap1\n      swap3\n      mstore\n        /* \"#utility.yul\":3658:3661   */\n      0xc0\n        /* \"#utility.yul\":3643:3662   */\n      dup7\n      add\n        /* \"#utility.yul\":3636:3671   */\n      mstore\n        /* \"#utility.yul\":3702:3705   */\n      0xe0\n        /* \"#utility.yul\":3687:3706   */\n      dup6\n      add\n        /* \"#utility.yul\":3680:3715   */\n      mstore\n        /* \"#utility.yul\":3746:3749   */\n      0x0100\n        /* \"#utility.yul\":3731:3750   */\n      dup5\n      add\n        /* \"#utility.yul\":3724:3759   */\n      mstore\n        /* \"#utility.yul\":3790:3793   */\n      0x0120\n        /* \"#utility.yul\":3775:3794   */\n      dup4\n      add\n        /* \"#utility.yul\":3768:3803   */\n      mstore\n        /* \"#utility.yul\":3847:3862   */\n      iszero\n        /* \"#utility.yul\":3840:3863   */\n      iszero\n        /* \"#utility.yul\":3834:3837   */\n      0x0140\n        /* \"#utility.yul\":3819:3838   */\n      dup3\n      add\n        /* \"#utility.yul\":3812:3864   */\n      mstore\n        /* \"#utility.yul\":3895:3898   */\n      0x0160\n        /* \"#utility.yul\":3880:3899   */\n      dup2\n      add\n        /* \"#utility.yul\":3873:3909   */\n      swap2\n      swap1\n      swap2\n      mstore\n        /* \"#utility.yul\":3307:3310   */\n      0x0180\n        /* \"#utility.yul\":3292:3311   */\n      add\n        /* \"Ethereum/Presale.sol\":1669:1695  SaleInfor public saleInfor */\n      tag_29\n        /* \"#utility.yul\":3274:3915   */\n      jump\n        /* \"Ethereum/Presale.sol\":1805:1828  uint256 public totalFee */\n    tag_4:\n      callvalue\n      dup1\n      iszero\n      tag_36\n      jumpi\n      0x00\n      dup1\n      revert\n    tag_36:\n      pop\n      tag_37\n      sload(0x1d)\n      dup2\n      jump\n    tag_37:\n      mload(0x40)\n        /* \"#utility.yul\":10918:10943   */\n      swap1\n      dup2\n      mstore\n        /* \"#utility.yul\":10906:10908   */\n      0x20\n        /* \"#utility.yul\":10891:10909   */\n      add\n        /* \"Ethereum/Presale.sol\":1805:1828  uint256 public totalFee */\n      tag_29\n        /* \"#utility.yul\":10873:10949   */\n      jump\n        /* \"Ethereum/Presale.sol\":3672:4009  function status() public view returns(uint256) {\r... */\n    tag_5:\n      callvalue\n      dup1\n      iszero\n      tag_41\n      jumpi\n      0x00\n      dup1\n      revert\n    tag_41:\n      pop\n      tag_37\n      tag_43\n      jump\t// in\n        /* \"Ethereum/Presale.sol\":1727:1751  uint256 public feeAnyone */\n    tag_6:\n      callvalue\n      dup1\n      iszero\n      tag_45\n      jumpi\n      0x00\n      dup1\n      revert\n    tag_45:\n      pop\n      tag_37\n      sload(0x1a)\n      dup2\n      jump\n        /* \"Ethereum/Presale.sol\":1534:1576  mapping(address => uint256) public userFee */\n    tag_7:\n      callvalue\n      dup1\n      iszero\n      tag_49\n      jumpi\n      0x00\n      dup1\n      revert\n    tag_49:\n      pop\n      tag_37\n      tag_51\n      calldatasize\n      0x04\n      tag_52\n      jump\t// in\n    tag_51:\n      mstore(0x20, 0x03)\n      0x00\n      swap1\n      dup2\n      mstore\n      0x40\n      swap1\n      keccak256\n      sload\n      dup2\n      jump\n        /* \"Utils/Ownable.sol\":1714:1817  function renounceOwnership() public virtual onlyOwner {\r... */\n    tag_8:\n      callvalue\n      dup1\n      iszero\n      tag_55\n      jumpi\n      0x00\n      dup1\n      revert\n    tag_55:\n      pop\n      tag_56\n      tag_57\n      jump\t// in\n    tag_56:\n      stop\n        /* \"Ethereum/Presale.sol\":9728:9836  function backToken() external payable {\r... */\n    tag_9:\n      tag_56\n      tag_59\n      jump\t// in\n        /* \"Utils/Ownable.sol\":1063:1150  function owner() public view virtual returns (address) {\r... */\n    tag_10:\n      callvalue\n      dup1\n      iszero\n      tag_60\n      jumpi\n      0x00\n      dup1\n      revert\n    tag_60:\n      pop\n        /* \"Utils/Ownable.sol\":1136:1142  _owner */\n      and(sub(shl(0xa0, 0x01), 0x01), sload(0x01))\n        /* \"Utils/Ownable.sol\":1063:1150  function owner() public view virtual returns (address) {\r... */\n    tag_61:\n      mload(0x40)\n      sub(shl(0xa0, 0x01), 0x01)\n        /* \"#utility.yul\":2783:2815   */\n      swap1\n      swap2\n      and\n        /* \"#utility.yul\":2765:2816   */\n      dup2\n      mstore\n        /* \"#utility.yul\":2753:2755   */\n      0x20\n        /* \"#utility.yul\":2738:2756   */\n      add\n        /* \"Utils/Ownable.sol\":1063:1150  function owner() public view virtual returns (address) {\r... */\n      tag_29\n        /* \"#utility.yul\":2720:2822   */\n      jump\n        /* \"Ethereum/Presale.sol\":8106:8861  function ownerClaimAndRefundToken() external onlyPresaleOwner nonReentrant{\r... */\n    tag_11:\n      callvalue\n      dup1\n      iszero\n      tag_65\n      jumpi\n      0x00\n      dup1\n      revert\n    tag_65:\n      pop\n      tag_56\n      tag_67\n      jump\t// in\n        /* \"Ethereum/Presale.sol\":2473:3663  function initialSaleInfor(\r... */\n    tag_12:\n      callvalue\n      dup1\n      iszero\n      tag_68\n      jumpi\n      0x00\n      dup1\n      revert\n    tag_68:\n      pop\n      tag_56\n      tag_70\n      calldatasize\n      0x04\n      tag_71\n      jump\t// in\n    tag_70:\n      tag_72\n      jump\t// in\n        /* \"Ethereum/Presale.sol\":7238:8098  function userRefundEmergency() external nonReentrant {\r... */\n    tag_13:\n      callvalue\n      dup1\n      iszero\n      tag_73\n      jumpi\n      0x00\n      dup1\n      revert\n    tag_73:\n      pop\n      tag_56\n      tag_75\n      jump\t// in\n        /* \"Ethereum/Presale.sol\":6351:7230  function userClaimEmergency() external nonReentrant {\r... */\n    tag_14:\n      callvalue\n      dup1\n      iszero\n      tag_76\n      jumpi\n      0x00\n      dup1\n      revert\n    tag_76:\n      pop\n      tag_56\n      tag_78\n      jump\t// in\n        /* \"Ethereum/Presale.sol\":1583:1617  PresaleStatus public presaleStatus */\n    tag_15:\n      callvalue\n      dup1\n      iszero\n      tag_79\n      jumpi\n      0x00\n      dup1\n      revert\n    tag_79:\n      pop\n      sload(0x04)\n      sload(0x05)\n      sload(0x06)\n      sload(0x07)\n      sload(0x08)\n      sload(0x09)\n      tag_80\n      swap6\n      swap5\n      swap4\n      swap3\n      swap2\n      swap1\n      0xff\n      dup1\n      dup3\n      and\n      swap2\n      0x0100\n      swap1\n      div\n      and\n      dup8\n      jump\n    tag_80:\n      0x40\n      dup1\n      mload\n        /* \"#utility.yul\":11906:11931   */\n      swap8\n      dup9\n      mstore\n        /* \"#utility.yul\":11962:11964   */\n      0x20\n        /* \"#utility.yul\":11947:11965   */\n      dup9\n      add\n        /* \"#utility.yul\":11940:11974   */\n      swap7\n      swap1\n      swap7\n      mstore\n        /* \"#utility.yul\":11990:12008   */\n      swap5\n      dup7\n      add\n        /* \"#utility.yul\":11983:12017   */\n      swap4\n      swap1\n      swap4\n      mstore\n        /* \"#utility.yul\":12048:12050   */\n      0x60\n        /* \"#utility.yul\":12033:12051   */\n      dup6\n      add\n        /* \"#utility.yul\":12026:12060   */\n      swap2\n      swap1\n      swap2\n      mstore\n        /* \"#utility.yul\":12091:12094   */\n      0x80\n        /* \"#utility.yul\":12076:12095   */\n      dup5\n      add\n        /* \"#utility.yul\":12069:12104   */\n      mstore\n        /* \"#utility.yul\":12148:12162   */\n      iszero\n        /* \"#utility.yul\":12141:12163   */\n      iszero\n        /* \"#utility.yul\":12135:12138   */\n      0xa0\n        /* \"#utility.yul\":12120:12139   */\n      dup4\n      add\n        /* \"#utility.yul\":12113:12164   */\n      mstore\n        /* \"#utility.yul\":12208:12222   */\n      iszero\n        /* \"#utility.yul\":12201:12223   */\n      iszero\n        /* \"#utility.yul\":12195:12198   */\n      0xc0\n        /* \"#utility.yul\":12180:12199   */\n      dup3\n      add\n        /* \"#utility.yul\":12173:12224   */\n      mstore\n        /* \"#utility.yul\":11893:11896   */\n      0xe0\n        /* \"#utility.yul\":11878:11897   */\n      add\n        /* \"Ethereum/Presale.sol\":1583:1617  PresaleStatus public presaleStatus */\n      tag_29\n        /* \"#utility.yul\":11860:12230   */\n      jump\n        /* \"Ethereum/Presale.sol\":1702:1720  IERC20 public WETH */\n    tag_16:\n      callvalue\n      dup1\n      iszero\n      tag_84\n      jumpi\n      0x00\n      dup1\n      revert\n    tag_84:\n      pop\n      sload(0x19)\n      tag_61\n      swap1\n      sub(shl(0xa0, 0x01), 0x01)\n      and\n      dup2\n      jump\n        /* \"Ethereum/Presale.sol\":4136:6343  function deposit(uint256 _amount) external payable nonReentrant {\r... */\n    tag_17:\n      tag_56\n      tag_90\n      calldatasize\n      0x04\n      tag_91\n      jump\t// in\n    tag_90:\n      tag_92\n      jump\t// in\n        /* \"Ethereum/Presale.sol\":4018:4128  function checkAdminAddress() public view returns(bool) {\r... */\n    tag_18:\n      callvalue\n      dup1\n      iszero\n      tag_93\n      jumpi\n      0x00\n      dup1\n      revert\n    tag_93:\n      pop\n      tag_94\n      tag_95\n      jump\t// in\n    tag_94:\n      mload(0x40)\n        /* \"#utility.yul\":5031:5045   */\n      swap1\n      iszero\n        /* \"#utility.yul\":5024:5046   */\n      iszero\n        /* \"#utility.yul\":5006:5047   */\n      dup2\n      mstore\n        /* \"#utility.yul\":4994:4996   */\n      0x20\n        /* \"#utility.yul\":4979:4997   */\n      add\n        /* \"Ethereum/Presale.sol\":4018:4128  function checkAdminAddress() public view returns(bool) {\r... */\n      tag_29\n        /* \"#utility.yul\":4961:5053   */\n      jump\n        /* \"Ethereum/Presale.sol\":8869:9598  function userClaimWhenSaleSuccess() external {\r... */\n    tag_19:\n      callvalue\n      dup1\n      iszero\n      tag_98\n      jumpi\n      0x00\n      dup1\n      revert\n    tag_98:\n      pop\n      tag_56\n      tag_100\n      jump\t// in\n        /* \"Ethereum/Presale.sol\":1481:1527  mapping(address => BuyerInfo) public buyerInfo */\n    tag_20:\n      callvalue\n      dup1\n      iszero\n      tag_101\n      jumpi\n      0x00\n      dup1\n      revert\n    tag_101:\n      pop\n      tag_102\n      tag_103\n      calldatasize\n      0x04\n      tag_52\n      jump\t// in\n    tag_103:\n      0x02\n      0x20\n      dup2\n      swap1\n      mstore\n      0x00\n      swap2\n      dup3\n      mstore\n      0x40\n      swap1\n      swap2\n      keccak256\n      dup1\n      sload\n      0x01\n      dup3\n      add\n      sload\n      swap3\n      dup3\n      add\n      sload\n      0x03\n      swap1\n      swap3\n      add\n      sload\n      swap1\n      swap3\n      swap2\n      swap1\n      dup5\n      jump\n    tag_102:\n      0x40\n      dup1\n      mload\n        /* \"#utility.yul\":11438:11463   */\n      swap5\n      dup6\n      mstore\n        /* \"#utility.yul\":11494:11496   */\n      0x20\n        /* \"#utility.yul\":11479:11497   */\n      dup6\n      add\n        /* \"#utility.yul\":11472:11506   */\n      swap4\n      swap1\n      swap4\n      mstore\n        /* \"#utility.yul\":11522:11540   */\n      swap2\n      dup4\n      add\n        /* \"#utility.yul\":11515:11549   */\n      mstore\n        /* \"#utility.yul\":11580:11582   */\n      0x60\n        /* \"#utility.yul\":11565:11583   */\n      dup3\n      add\n        /* \"#utility.yul\":11558:11592   */\n      mstore\n        /* \"#utility.yul\":11425:11428   */\n      0x80\n        /* \"#utility.yul\":11410:11429   */\n      add\n        /* \"Ethereum/Presale.sol\":1481:1527  mapping(address => BuyerInfo) public buyerInfo */\n      tag_29\n        /* \"#utility.yul\":11392:11598   */\n      jump\n        /* \"Utils/Ownable.sol\":1972:2173  function transferOwnership(address newOwner) public virtual onlyOwner {\r... */\n    tag_21:\n      callvalue\n      dup1\n      iszero\n      tag_107\n      jumpi\n      0x00\n      dup1\n      revert\n    tag_107:\n      pop\n      tag_56\n      tag_109\n      calldatasize\n      0x04\n      tag_52\n      jump\t// in\n    tag_109:\n      tag_110\n      jump\t// in\n        /* \"Ethereum/Presale.sol\":9606:9717  function getBalance(address _address) external view returns(uint256) {\r... */\n    tag_22:\n      callvalue\n      dup1\n      iszero\n      tag_111\n      jumpi\n      0x00\n      dup1\n      revert\n    tag_111:\n      pop\n      tag_37\n      tag_113\n      calldatasize\n      0x04\n      tag_52\n      jump\t// in\n    tag_113:\n      sub(shl(0xa0, 0x01), 0x01)\n        /* \"Ethereum/Presale.sol\":9693:9709  _address.balance */\n      and\n      balance\n      swap1\n        /* \"Ethereum/Presale.sol\":9606:9717  function getBalance(address _address) external view returns(uint256) {\r... */\n      jump\n        /* \"Ethereum/Presale.sol\":3672:4009  function status() public view returns(uint256) {\r... */\n    tag_43:\n        /* \"Ethereum/Presale.sol\":3751:3770  saleInfor.startSale */\n      sload(0x11)\n        /* \"Ethereum/Presale.sol\":3710:3717  uint256 */\n      0x00\n      swap1\n        /* \"Ethereum/Presale.sol\":3733:3748  block.timestamp */\n      timestamp\n        /* \"Ethereum/Presale.sol\":3733:3770  block.timestamp < saleInfor.startSale */\n      lt\n        /* \"Ethereum/Presale.sol\":3730:4002  if(block.timestamp < saleInfor.startSale) {\r... */\n      iszero\n      tag_118\n      jumpi\n      pop\n        /* \"Ethereum/Presale.sol\":3794:3795  0 */\n      0x00\n      swap1\n        /* \"Ethereum/Presale.sol\":3672:4009  function status() public view returns(uint256) {\r... */\n      jump\t// out\n        /* \"Ethereum/Presale.sol\":3730:4002  if(block.timestamp < saleInfor.startSale) {\r... */\n    tag_118:\n        /* \"Ethereum/Presale.sol\":3861:3878  saleInfor.endSale */\n      sload(0x12)\n        /* \"Ethereum/Presale.sol\":3843:3858  block.timestamp */\n      timestamp\n        /* \"Ethereum/Presale.sol\":3843:3878  block.timestamp > saleInfor.endSale */\n      gt\n        /* \"Ethereum/Presale.sol\":3840:3991  if(block.timestamp > saleInfor.endSale) {\r... */\n      iszero\n      tag_120\n      jumpi\n      pop\n        /* \"Ethereum/Presale.sol\":3906:3907  2 */\n      0x02\n      swap1\n        /* \"Ethereum/Presale.sol\":3672:4009  function status() public view returns(uint256) {\r... */\n      jump\t// out\n        /* \"Ethereum/Presale.sol\":3840:3991  if(block.timestamp > saleInfor.endSale) {\r... */\n    tag_120:\n      pop\n        /* \"Ethereum/Presale.sol\":3964:3965  1 */\n      0x01\n      swap1\n        /* \"Ethereum/Presale.sol\":3672:4009  function status() public view returns(uint256) {\r... */\n      jump\t// out\n        /* \"Utils/Ownable.sol\":1714:1817  function renounceOwnership() public virtual onlyOwner {\r... */\n    tag_57:\n        /* \"Utils/Ownable.sol\":1136:1142  _owner */\n      and(sub(shl(0xa0, 0x01), 0x01), sload(0x01))\n        /* \"Utils/Context.sol\":736:746  msg.sender */\n      caller\n        /* \"Utils/Ownable.sol\":1283:1306  owner() == _msgSender() */\n      eq\n        /* \"Utils/Ownable.sol\":1275:1343  require(owner() == _msgSender(), \"Ownable: caller is not the owner\") */\n      tag_126\n      jumpi\n      mload(0x40)\n      shl(0xe5, 0x461bcd)\n      dup2\n      mstore\n        /* \"#utility.yul\":9146:9148   */\n      0x20\n        /* \"Utils/Ownable.sol\":1275:1343  require(owner() == _msgSender(), \"Ownable: caller is not the owner\") */\n      0x04\n      dup3\n      add\n        /* \"#utility.yul\":9128:9149   */\n      dup2\n      swap1\n      mstore\n        /* \"#utility.yul\":9165:9183   */\n      0x24\n      dup3\n      add\n        /* \"#utility.yul\":9158:9188   */\n      mstore\n        /* \"#utility.yul\":9224:9258   */\n      0x4f776e61626c653a2063616c6c6572206973206e6f7420746865206f776e6572\n        /* \"#utility.yul\":9204:9222   */\n      0x44\n      dup3\n      add\n        /* \"#utility.yul\":9197:9259   */\n      mstore\n        /* \"#utility.yul\":9276:9294   */\n      0x64\n      add\n        /* \"Utils/Ownable.sol\":1275:1343  require(owner() == _msgSender(), \"Ownable: caller is not the owner\") */\n    tag_127:\n      mload(0x40)\n      dup1\n      swap2\n      sub\n      swap1\n      revert\n    tag_126:\n        /* \"Utils/Ownable.sol\":1779:1809  _transferOwnership(address(0)) */\n      tag_130\n        /* \"Utils/Ownable.sol\":1806:1807  0 */\n      0x00\n        /* \"Utils/Ownable.sol\":1779:1797  _transferOwnership */\n      tag_131\n        /* \"Utils/Ownable.sol\":1779:1809  _transferOwnership(address(0)) */\n      jump\t// in\n    tag_130:\n        /* \"Utils/Ownable.sol\":1714:1817  function renounceOwnership() public virtual onlyOwner {\r... */\n      jump\t// out\n        /* \"Ethereum/Presale.sol\":9728:9836  function backToken() external payable {\r... */\n    tag_59:\n        /* \"Ethereum/Presale.sol\":9777:9828  payable(msg.sender).transfer(address(this).balance) */\n      mload(0x40)\n        /* \"Ethereum/Presale.sol\":9785:9795  msg.sender */\n      caller\n      swap1\n        /* \"Ethereum/Presale.sol\":9806:9827  address(this).balance */\n      selfbalance\n        /* \"Ethereum/Presale.sol\":9777:9828  payable(msg.sender).transfer(address(this).balance) */\n      dup1\n      iszero\n      0x08fc\n      mul\n      swap2\n      0x00\n      dup2\n      dup2\n      dup2\n        /* \"Ethereum/Presale.sol\":9806:9827  address(this).balance */\n      dup6\n        /* \"Ethereum/Presale.sol\":9785:9795  msg.sender */\n      dup9\n        /* \"Ethereum/Presale.sol\":9777:9828  payable(msg.sender).transfer(address(this).balance) */\n      dup9\n      call\n      swap4\n      pop\n      pop\n      pop\n      pop\n      iszero\n      dup1\n      iszero\n      tag_134\n      jumpi\n      returndatasize\n      0x00\n      dup1\n      returndatacopy\n      revert(0x00, returndatasize)\n    tag_134:\n      pop\n        /* \"Ethereum/Presale.sol\":9728:9836  function backToken() external payable {\r... */\n      jump\t// out\n        /* \"Ethereum/Presale.sol\":8106:8861  function ownerClaimAndRefundToken() external onlyPresaleOwner nonReentrant{\r... */\n    tag_67:\n        /* \"Ethereum/Presale.sol\":2011:2020  saleInfor */\n      0x0d\n        /* \"Ethereum/Presale.sol\":2011:2033  saleInfor.presaleOwner */\n      sload\n      sub(shl(0xa0, 0x01), 0x01)\n      and\n        /* \"Utils/Context.sol\":736:746  msg.sender */\n      caller\n      sub(shl(0xa0, 0x01), 0x01)\n        /* \"Ethereum/Presale.sol\":1995:2033  _msgSender() == saleInfor.presaleOwner */\n      and\n      eq\n        /* \"Ethereum/Presale.sol\":1987:2056  require(_msgSender() == saleInfor.presaleOwner, \"Only presale owner\") */\n      tag_138\n      jumpi\n      mload(0x40)\n      shl(0xe5, 0x461bcd)\n      dup2\n      mstore\n        /* \"#utility.yul\":8799:8801   */\n      0x20\n        /* \"Ethereum/Presale.sol\":1987:2056  require(_msgSender() == saleInfor.presaleOwner, \"Only presale owner\") */\n      0x04\n      dup3\n      add\n        /* \"#utility.yul\":8781:8802   */\n      mstore\n        /* \"#utility.yul\":8838:8840   */\n      0x12\n        /* \"#utility.yul\":8818:8836   */\n      0x24\n      dup3\n      add\n        /* \"#utility.yul\":8811:8841   */\n      mstore\n      shl(0x71, 0x27b7363c90383932b9b0b6329037bbb732b9)\n        /* \"#utility.yul\":8857:8875   */\n      0x44\n      dup3\n      add\n        /* \"#utility.yul\":8850:8898   */\n      mstore\n        /* \"#utility.yul\":8915:8933   */\n      0x64\n      add\n        /* \"Ethereum/Presale.sol\":1987:2056  require(_msgSender() == saleInfor.presaleOwner, \"Only presale owner\") */\n      tag_127\n        /* \"#utility.yul\":8771:8939   */\n      jump\n        /* \"Ethereum/Presale.sol\":1987:2056  require(_msgSender() == saleInfor.presaleOwner, \"Only presale owner\") */\n    tag_138:\n        /* \"Utils/ReentrancyGuard.sol\":1778:1779  2 */\n      0x02\n        /* \"Utils/ReentrancyGuard.sol\":2376:2383  _status */\n      sload(0x00)\n        /* \"Utils/ReentrancyGuard.sol\":2376:2395  _status != _ENTERED */\n      eq\n      iszero\n        /* \"Utils/ReentrancyGuard.sol\":2368:2431  require(_status != _ENTERED, \"ReentrancyGuard: reentrant call\") */\n      tag_142\n      jumpi\n      mload(0x40)\n      shl(0xe5, 0x461bcd)\n      dup2\n      mstore\n      0x04\n      add\n      tag_127\n      swap1\n      tag_144\n      jump\t// in\n    tag_142:\n        /* \"Utils/ReentrancyGuard.sol\":1778:1779  2 */\n      0x02\n        /* \"Utils/ReentrancyGuard.sol\":2509:2516  _status */\n      0x00\n        /* \"Utils/ReentrancyGuard.sol\":2509:2527  _status = _ENTERED */\n      sstore\n        /* \"Ethereum/Presale.sol\":8260:8295  presaleStatus.isOwnerClaimSaleToken */\n      and(0xff, sload(0x09))\n        /* \"Ethereum/Presale.sol\":8259:8295  !presaleStatus.isOwnerClaimSaleToken */\n      iszero\n        /* \"Ethereum/Presale.sol\":8251:8329  require(!presaleStatus.isOwnerClaimSaleToken, \"Nothing for owner claim token\") */\n      tag_146\n      jumpi\n      mload(0x40)\n      shl(0xe5, 0x461bcd)\n      dup2\n      mstore\n        /* \"#utility.yul\":9912:9914   */\n      0x20\n        /* \"Ethereum/Presale.sol\":8251:8329  require(!presaleStatus.isOwnerClaimSaleToken, \"Nothing for owner claim token\") */\n      0x04\n      dup3\n      add\n        /* \"#utility.yul\":9894:9915   */\n      mstore\n        /* \"#utility.yul\":9951:9953   */\n      0x1d\n        /* \"#utility.yul\":9931:9949   */\n      0x24\n      dup3\n      add\n        /* \"#utility.yul\":9924:9954   */\n      mstore\n        /* \"#utility.yul\":9990:10021   */\n      0x4e6f7468696e6720666f72206f776e657220636c61696d20746f6b656e000000\n        /* \"#utility.yul\":9970:9988   */\n      0x44\n      dup3\n      add\n        /* \"#utility.yul\":9963:10022   */\n      mstore\n        /* \"#utility.yul\":10039:10057   */\n      0x64\n      add\n        /* \"Ethereum/Presale.sol\":8251:8329  require(!presaleStatus.isOwnerClaimSaleToken, \"Nothing for owner claim token\") */\n      tag_127\n        /* \"#utility.yul\":9884:10063   */\n      jump\n        /* \"Ethereum/Presale.sol\":8251:8329  require(!presaleStatus.isOwnerClaimSaleToken, \"Nothing for owner claim token\") */\n    tag_146:\n        /* \"Ethereum/Presale.sol\":8349:8385  presaleStatus.isOwnerRefundBaseToken */\n      sload(0x09)\n      0x0100\n      swap1\n      div\n      0xff\n      and\n        /* \"Ethereum/Presale.sol\":8348:8385  !presaleStatus.isOwnerRefundBaseToken */\n      iszero\n        /* \"Ethereum/Presale.sol\":8340:8420  require(!presaleStatus.isOwnerRefundBaseToken, \"Nothing for owner refund token\") */\n      tag_149\n      jumpi\n      mload(0x40)\n      shl(0xe5, 0x461bcd)\n      dup2\n      mstore\n        /* \"#utility.yul\":6600:6602   */\n      0x20\n        /* \"Ethereum/Presale.sol\":8340:8420  require(!presaleStatus.isOwnerRefundBaseToken, \"Nothing for owner refund token\") */\n      0x04\n      dup3\n      add\n        /* \"#utility.yul\":6582:6603   */\n      mstore\n        /* \"#utility.yul\":6639:6641   */\n      0x1e\n        /* \"#utility.yul\":6619:6637   */\n      0x24\n      dup3\n      add\n        /* \"#utility.yul\":6612:6642   */\n      mstore\n        /* \"#utility.yul\":6678:6710   */\n      0x4e6f7468696e6720666f72206f776e657220726566756e6420746f6b656e0000\n        /* \"#utility.yul\":6658:6676   */\n      0x44\n      dup3\n      add\n        /* \"#utility.yul\":6651:6711   */\n      mstore\n        /* \"#utility.yul\":6728:6746   */\n      0x64\n      add\n        /* \"Ethereum/Presale.sol\":8340:8420  require(!presaleStatus.isOwnerRefundBaseToken, \"Nothing for owner refund token\") */\n      tag_127\n        /* \"#utility.yul\":6572:6752   */\n      jump\n        /* \"Ethereum/Presale.sol\":8340:8420  require(!presaleStatus.isOwnerRefundBaseToken, \"Nothing for owner refund token\") */\n    tag_149:\n        /* \"Ethereum/Presale.sol\":8469:8488  saleInfor.saleToken */\n      sload(0x0e)\n        /* \"Ethereum/Presale.sol\":8463:8514  ERC20(saleInfor.saleToken).balanceOf(address(this)) */\n      mload(0x40)\n      shl(0xe0, 0x70a08231)\n      dup2\n      mstore\n        /* \"Ethereum/Presale.sol\":8508:8512  this */\n      address\n        /* \"Ethereum/Presale.sol\":8463:8514  ERC20(saleInfor.saleToken).balanceOf(address(this)) */\n      0x04\n      dup3\n      add\n        /* \"#utility.yul\":2765:2816   */\n      mstore\n        /* \"Ethereum/Presale.sol\":8431:8460  uint256 amountOwnerClaimToken */\n      0x00\n      swap2\n      sub(shl(0xa0, 0x01), 0x01)\n        /* \"Ethereum/Presale.sol\":8469:8488  saleInfor.saleToken */\n      and\n      swap1\n        /* \"Ethereum/Presale.sol\":8463:8499  ERC20(saleInfor.saleToken).balanceOf */\n      0x70a08231\n      swap1\n        /* \"#utility.yul\":2738:2756   */\n      0x24\n      add\n        /* \"Ethereum/Presale.sol\":8463:8514  ERC20(saleInfor.saleToken).balanceOf(address(this)) */\n      0x20\n      mload(0x40)\n      dup1\n      dup4\n      sub\n      dup2\n      dup7\n      dup1\n      extcodesize\n      iszero\n      dup1\n      iszero\n      tag_153\n      jumpi\n      0x00\n      dup1\n      revert\n    tag_153:\n      pop\n      gas\n      staticcall\n      iszero\n      dup1\n      iszero\n      tag_155\n      jumpi\n      returndatasize\n      0x00\n      dup1\n      returndatacopy\n      revert(0x00, returndatasize)\n    tag_155:\n      pop\n      pop\n      pop\n      pop\n      mload(0x40)\n      returndatasize\n      not(0x1f)\n      0x1f\n      dup3\n      add\n      and\n      dup3\n      add\n      dup1\n      0x40\n      mstore\n      pop\n      dup2\n      add\n      swap1\n      tag_156\n      swap2\n      swap1\n      tag_157\n      jump\t// in\n    tag_156:\n        /* \"Ethereum/Presale.sol\":8595:8630  presaleStatus.isOwnerClaimSaleToken */\n      0x09\n        /* \"Ethereum/Presale.sol\":8595:8637  presaleStatus.isOwnerClaimSaleToken = true */\n      dup1\n      sload\n      not(0xff)\n      and\n        /* \"Ethereum/Presale.sol\":8633:8637  true */\n      0x01\n        /* \"Ethereum/Presale.sol\":8595:8637  presaleStatus.isOwnerClaimSaleToken = true */\n      or\n      swap1\n      sstore\n      0x00\n        /* \"Ethereum/Presale.sol\":8648:8676  saleInfor.amountTokenForSale */\n      0x18\n        /* \"Ethereum/Presale.sol\":8648:8680  saleInfor.amountTokenForSale = 0 */\n      sstore\n        /* \"Ethereum/Presale.sol\":8697:8716  saleInfor.saleToken */\n      sload(0x0e)\n        /* \"Ethereum/Presale.sol\":8648:8657  saleInfor */\n      0x0d\n        /* \"Ethereum/Presale.sol\":8727:8749  saleInfor.presaleOwner */\n      sload\n        /* \"Ethereum/Presale.sol\":8691:8773  ERC20(saleInfor.saleToken).transfer(saleInfor.presaleOwner, amountOwnerClaimToken) */\n      mload(0x40)\n      shl(0xe0, 0xa9059cbb)\n      dup2\n      mstore\n      sub(shl(0xa0, 0x01), 0x01)\n        /* \"Ethereum/Presale.sol\":8727:8749  saleInfor.presaleOwner */\n      swap2\n      dup3\n      and\n        /* \"Ethereum/Presale.sol\":8595:8608  presaleStatus */\n      0x04\n        /* \"Ethereum/Presale.sol\":8691:8773  ERC20(saleInfor.saleToken).transfer(saleInfor.presaleOwner, amountOwnerClaimToken) */\n      dup3\n      add\n        /* \"#utility.yul\":4102:4153   */\n      mstore\n        /* \"#utility.yul\":4169:4187   */\n      0x24\n      dup2\n      add\n        /* \"#utility.yul\":4162:4196   */\n      dup5\n      swap1\n      mstore\n      swap3\n      swap4\n      pop\n        /* \"Ethereum/Presale.sol\":8563:8584  address(this).balance */\n      selfbalance\n      swap3\n        /* \"Ethereum/Presale.sol\":8697:8716  saleInfor.saleToken */\n      swap2\n      and\n      swap1\n        /* \"Ethereum/Presale.sol\":8691:8726  ERC20(saleInfor.saleToken).transfer */\n      0xa9059cbb\n      swap1\n        /* \"#utility.yul\":4075:4093   */\n      0x44\n      add\n        /* \"Ethereum/Presale.sol\":8691:8773  ERC20(saleInfor.saleToken).transfer(saleInfor.presaleOwner, amountOwnerClaimToken) */\n      0x20\n      mload(0x40)\n      dup1\n      dup4\n      sub\n      dup2\n      0x00\n      dup8\n      dup1\n      extcodesize\n      iszero\n      dup1\n      iszero\n      tag_160\n      jumpi\n      0x00\n      dup1\n      revert\n    tag_160:\n      pop\n      gas\n      call\n      iszero\n      dup1\n      iszero\n      tag_162\n      jumpi\n      returndatasize\n      0x00\n      dup1\n      returndatacopy\n      revert(0x00, returndatasize)\n    tag_162:\n      pop\n      pop\n      pop\n      pop\n      mload(0x40)\n      returndatasize\n      not(0x1f)\n      0x1f\n      dup3\n      add\n      and\n      dup3\n      add\n      dup1\n      0x40\n      mstore\n      pop\n      dup2\n      add\n      swap1\n      tag_163\n      swap2\n      swap1\n      tag_164\n      jump\t// in\n    tag_163:\n      pop\n        /* \"Ethereum/Presale.sol\":8792:8801  saleInfor */\n      0x0d\n        /* \"Ethereum/Presale.sol\":8792:8814  saleInfor.presaleOwner */\n      sload\n        /* \"Ethereum/Presale.sol\":8784:8853  payable(saleInfor.presaleOwner).transfer(amountOwnerRefundNativeCoin) */\n      mload(0x40)\n      sub(shl(0xa0, 0x01), 0x01)\n        /* \"Ethereum/Presale.sol\":8792:8814  saleInfor.presaleOwner */\n      swap1\n      swap2\n      and\n      swap1\n        /* \"Ethereum/Presale.sol\":8784:8853  payable(saleInfor.presaleOwner).transfer(amountOwnerRefundNativeCoin) */\n      dup3\n      iszero\n      0x08fc\n      mul\n      swap1\n        /* \"Ethereum/Presale.sol\":8825:8852  amountOwnerRefundNativeCoin */\n      dup4\n      swap1\n        /* \"Ethereum/Presale.sol\":8792:8814  saleInfor.presaleOwner */\n      0x00\n        /* \"Ethereum/Presale.sol\":8784:8853  payable(saleInfor.presaleOwner).transfer(amountOwnerRefundNativeCoin) */\n      dup2\n        /* \"Ethereum/Presale.sol\":8792:8814  saleInfor.presaleOwner */\n      dup2\n        /* \"Ethereum/Presale.sol\":8784:8853  payable(saleInfor.presaleOwner).transfer(amountOwnerRefundNativeCoin) */\n      dup2\n        /* \"Ethereum/Presale.sol\":8825:8852  amountOwnerRefundNativeCoin */\n      dup6\n        /* \"Ethereum/Presale.sol\":8792:8814  saleInfor.presaleOwner */\n      dup9\n        /* \"Ethereum/Presale.sol\":8784:8853  payable(saleInfor.presaleOwner).transfer(amountOwnerRefundNativeCoin) */\n      dup9\n      call\n      swap4\n      pop\n      pop\n      pop\n      pop\n      iszero\n      dup1\n      iszero\n      tag_166\n      jumpi\n      returndatasize\n      0x00\n      dup1\n      returndatacopy\n      revert(0x00, returndatasize)\n    tag_166:\n      pop\n      pop\n        /* \"Utils/ReentrancyGuard.sol\":1734:1735  1 */\n      0x01\n        /* \"Utils/ReentrancyGuard.sol\":2688:2695  _status */\n      0x00\n        /* \"Utils/ReentrancyGuard.sol\":2688:2710  _status = _NOT_ENTERED */\n      sstore\n      pop\n        /* \"Ethereum/Presale.sol\":8106:8861  function ownerClaimAndRefundToken() external onlyPresaleOwner nonReentrant{\r... */\n      jump\t// out\n        /* \"Ethereum/Presale.sol\":2473:3663  function initialSaleInfor(\r... */\n    tag_72:\n        /* \"Ethereum/Presale.sol\":2654:2663  saleInfor */\n      0x0d\n        /* \"Ethereum/Presale.sol\":2654:2692  saleInfor.presaleOwner = _presaleOwner */\n      dup1\n      sload\n      sub(shl(0xa0, 0x01), 0x01)\n      dup1\n      dup8\n      and\n      not(sub(shl(0xa0, 0x01), 0x01))\n      swap3\n      dup4\n      and\n      or\n      swap1\n      swap3\n      sstore\n        /* \"Ethereum/Presale.sol\":2703:2722  saleInfor.saleToken */\n      0x0e\n        /* \"Ethereum/Presale.sol\":2703:2735  saleInfor.saleToken = _saleToken */\n      dup1\n      sload\n      dup7\n      dup5\n      and\n      swap1\n      dup4\n      and\n      dup2\n      or\n      swap1\n      swap2\n      sstore\n        /* \"Ethereum/Presale.sol\":2746:2765  saleInfor.baseToken */\n      0x0f\n        /* \"Ethereum/Presale.sol\":2746:2778  saleInfor.baseToken = _baseTOken */\n      dup1\n      sload\n      swap4\n      dup7\n      and\n      swap4\n      swap1\n      swap3\n      and\n      swap3\n      swap1\n      swap3\n      or\n      swap1\n      sstore\n        /* \"Ethereum/Presale.sol\":2836:2873  ERC20(saleInfor.saleToken).decimals() */\n      0x40\n      dup1\n      mload\n      shl(0xe0, 0x313ce567)\n      dup2\n      mstore\n      swap1\n      mload\n        /* \"Ethereum/Presale.sol\":2836:2871  ERC20(saleInfor.saleToken).decimals */\n      0x313ce567\n      swap2\n        /* \"Ethereum/Presale.sol\":2836:2873  ERC20(saleInfor.saleToken).decimals() */\n      0x04\n      dup1\n      dup3\n      add\n      swap3\n      0x20\n      swap3\n      swap1\n      swap2\n      swap1\n      dup3\n      swap1\n      sub\n      add\n      dup2\n        /* \"Ethereum/Presale.sol\":2703:2735  saleInfor.saleToken = _saleToken */\n      dup7\n        /* \"Ethereum/Presale.sol\":2836:2873  ERC20(saleInfor.saleToken).decimals() */\n      dup1\n      extcodesize\n      iszero\n      dup1\n      iszero\n      tag_168\n      jumpi\n      0x00\n      dup1\n      revert\n    tag_168:\n      pop\n      gas\n      staticcall\n      iszero\n      dup1\n      iszero\n      tag_170\n      jumpi\n      returndatasize\n      0x00\n      dup1\n      returndatacopy\n      revert(0x00, returndatasize)\n    tag_170:\n      pop\n      pop\n      pop\n      pop\n      mload(0x40)\n      returndatasize\n      not(0x1f)\n      0x1f\n      dup3\n      add\n      and\n      dup3\n      add\n      dup1\n      0x40\n      mstore\n      pop\n      dup2\n      add\n      swap1\n      tag_171\n      swap2\n      swap1\n      tag_157\n      jump\t// in\n    tag_171:\n        /* \"Ethereum/Presale.sol\":2823:2874  10** uint256(ERC20(saleInfor.saleToken).decimals()) */\n      tag_172\n      swap1\n        /* \"Ethereum/Presale.sol\":2823:2825  10 */\n      0x0a\n        /* \"Ethereum/Presale.sol\":2823:2874  10** uint256(ERC20(saleInfor.saleToken).decimals()) */\n      tag_173\n      jump\t// in\n    tag_172:\n        /* \"Ethereum/Presale.sol\":2812:2820  datas[0] */\n      dup2\n      mload\n        /* \"Ethereum/Presale.sol\":2812:2874  datas[0] * 10** uint256(ERC20(saleInfor.saleToken).decimals()) */\n      tag_177\n      swap2\n      swap1\n      tag_178\n      jump\t// in\n    tag_177:\n        /* \"Ethereum/Presale.sol\":2789:2809  saleInfor.tokenPrice */\n      0x10\n        /* \"Ethereum/Presale.sol\":2789:2874  saleInfor.tokenPrice = datas[0] * 10** uint256(ERC20(saleInfor.saleToken).decimals()) */\n      sstore\n        /* \"Ethereum/Presale.sol\":2907:2915  datas[1] */\n      0x20\n      dup1\n      dup3\n      add\n      mload\n        /* \"Ethereum/Presale.sol\":2885:2904  saleInfor.startSale */\n      0x11\n        /* \"Ethereum/Presale.sol\":2885:2915  saleInfor.startSale = datas[1] */\n      sstore\n        /* \"Ethereum/Presale.sol\":2946:2954  datas[2] */\n      0x40\n      dup1\n      dup4\n      add\n      mload\n        /* \"Ethereum/Presale.sol\":2926:2943  saleInfor.endSale */\n      0x12\n        /* \"Ethereum/Presale.sol\":2926:2954  saleInfor.endSale = datas[2] */\n      sstore\n        /* \"Ethereum/Presale.sol\":2994:3002  datas[3] */\n      0x60\n      dup4\n      add\n      mload\n        /* \"Ethereum/Presale.sol\":2965:2991  saleInfor.minSpendPerBuyer */\n      0x13\n        /* \"Ethereum/Presale.sol\":2965:3002  saleInfor.minSpendPerBuyer = datas[3] */\n      sstore\n        /* \"Ethereum/Presale.sol\":3073:3092  saleInfor.baseToken */\n      sload(0x0f)\n        /* \"Ethereum/Presale.sol\":3067:3104  ERC20(saleInfor.baseToken).decimals() */\n      dup2\n      mload\n      shl(0xe0, 0x313ce567)\n      dup2\n      mstore\n      swap2\n      mload\n      sub(shl(0xa0, 0x01), 0x01)\n        /* \"Ethereum/Presale.sol\":3073:3092  saleInfor.baseToken */\n      swap1\n      swap2\n      and\n      swap3\n        /* \"Ethereum/Presale.sol\":3067:3102  ERC20(saleInfor.baseToken).decimals */\n      0x313ce567\n      swap3\n        /* \"Ethereum/Presale.sol\":3067:3104  ERC20(saleInfor.baseToken).decimals() */\n      0x04\n      dup1\n      dup3\n      add\n      swap4\n      swap2\n      dup3\n      swap1\n      sub\n      add\n      dup2\n        /* \"Ethereum/Presale.sol\":3073:3092  saleInfor.baseToken */\n      dup7\n        /* \"Ethereum/Presale.sol\":3067:3104  ERC20(saleInfor.baseToken).decimals() */\n      dup1\n      extcodesize\n      iszero\n      dup1\n      iszero\n      tag_185\n      jumpi\n      0x00\n      dup1\n      revert\n    tag_185:\n      pop\n      gas\n      staticcall\n      iszero\n      dup1\n      iszero\n      tag_187\n      jumpi\n      returndatasize\n      0x00\n      dup1\n      returndatacopy\n      revert(0x00, returndatasize)\n    tag_187:\n      pop\n      pop\n      pop\n      pop\n      mload(0x40)\n      returndatasize\n      not(0x1f)\n      0x1f\n      dup3\n      add\n      and\n      dup3\n      add\n      dup1\n      0x40\n      mstore\n      pop\n      dup2\n      add\n      swap1\n      tag_188\n      swap2\n      swap1\n      tag_157\n      jump\t// in\n    tag_188:\n        /* \"Ethereum/Presale.sol\":3053:3105  10 ** uint256(ERC20(saleInfor.baseToken).decimals()) */\n      tag_189\n      swap1\n        /* \"Ethereum/Presale.sol\":3053:3055  10 */\n      0x0a\n        /* \"Ethereum/Presale.sol\":3053:3105  10 ** uint256(ERC20(saleInfor.baseToken).decimals()) */\n      tag_173\n      jump\t// in\n    tag_189:\n        /* \"Ethereum/Presale.sol\":3042:3050  datas[4] */\n      0x80\n      dup3\n      add\n      mload\n        /* \"Ethereum/Presale.sol\":3042:3105  datas[4] * 10 ** uint256(ERC20(saleInfor.baseToken).decimals()) */\n      tag_192\n      swap2\n      swap1\n      tag_178\n      jump\t// in\n    tag_192:\n        /* \"Ethereum/Presale.sol\":3013:3039  saleInfor.maxSpendPerBuyer */\n      0x14\n        /* \"Ethereum/Presale.sol\":3013:3105  saleInfor.maxSpendPerBuyer = datas[4] * 10 ** uint256(ERC20(saleInfor.baseToken).decimals()) */\n      sstore\n        /* \"Ethereum/Presale.sol\":3138:3146  datas[5] */\n      0xa0\n      dup2\n      add\n      mload\n        /* \"Ethereum/Presale.sol\":3116:3135  saleInfor.refundFee */\n      0x15\n        /* \"Ethereum/Presale.sol\":3116:3146  saleInfor.refundFee = datas[5] */\n      sstore\n        /* \"Ethereum/Presale.sol\":3178:3186  datas[6] */\n      0xc0\n      dup2\n      add\n      mload\n        /* \"Ethereum/Presale.sol\":3157:3175  saleInfor.claimFee */\n      0x16\n        /* \"Ethereum/Presale.sol\":3157:3186  saleInfor.claimFee = datas[6] */\n      sstore\n        /* \"Ethereum/Presale.sol\":3254:3273  saleInfor.baseToken */\n      sload(0x0f)\n        /* \"Ethereum/Presale.sol\":3248:3285  ERC20(saleInfor.baseToken).decimals() */\n      0x40\n      dup1\n      mload\n      shl(0xe0, 0x313ce567)\n      dup2\n      mstore\n      swap1\n      mload\n      sub(shl(0xa0, 0x01), 0x01)\n        /* \"Ethereum/Presale.sol\":3254:3273  saleInfor.baseToken */\n      swap1\n      swap3\n      and\n      swap2\n        /* \"Ethereum/Presale.sol\":3248:3283  ERC20(saleInfor.baseToken).decimals */\n      0x313ce567\n      swap2\n        /* \"Ethereum/Presale.sol\":3248:3285  ERC20(saleInfor.baseToken).decimals() */\n      0x04\n      dup1\n      dup3\n      add\n      swap3\n        /* \"Ethereum/Presale.sol\":3138:3146  datas[5] */\n      0x20\n      swap3\n        /* \"Ethereum/Presale.sol\":3248:3285  ERC20(saleInfor.baseToken).decimals() */\n      swap1\n      swap2\n      swap1\n      dup3\n      swap1\n      sub\n      add\n      dup2\n        /* \"Ethereum/Presale.sol\":3254:3273  saleInfor.baseToken */\n      dup7\n        /* \"Ethereum/Presale.sol\":3248:3285  ERC20(saleInfor.baseToken).decimals() */\n      dup1\n      extcodesize\n      iszero\n      dup1\n      iszero\n      tag_197\n      jumpi\n      0x00\n      dup1\n      revert\n    tag_197:\n      pop\n      gas\n      staticcall\n      iszero\n      dup1\n      iszero\n      tag_199\n      jumpi\n      returndatasize\n      0x00\n      dup1\n      returndatacopy\n      revert(0x00, returndatasize)\n    tag_199:\n      pop\n      pop\n      pop\n      pop\n      mload(0x40)\n      returndatasize\n      not(0x1f)\n      0x1f\n      dup3\n      add\n      and\n      dup3\n      add\n      dup1\n      0x40\n      mstore\n      pop\n      dup2\n      add\n      swap1\n      tag_200\n      swap2\n      swap1\n      tag_157\n      jump\t// in\n    tag_200:\n        /* \"Ethereum/Presale.sol\":3234:3286  10 ** uint256(ERC20(saleInfor.baseToken).decimals()) */\n      tag_201\n      swap1\n        /* \"Ethereum/Presale.sol\":3234:3236  10 */\n      0x0a\n        /* \"Ethereum/Presale.sol\":3234:3286  10 ** uint256(ERC20(saleInfor.baseToken).decimals()) */\n      tag_173\n      jump\t// in\n    tag_201:\n        /* \"Ethereum/Presale.sol\":3223:3231  datas[7] */\n      0xe0\n      dup3\n      add\n      mload\n        /* \"Ethereum/Presale.sol\":3223:3286  datas[7] * 10 ** uint256(ERC20(saleInfor.baseToken).decimals()) */\n      tag_204\n      swap2\n      swap1\n      tag_178\n      jump\t// in\n    tag_204:\n        /* \"Ethereum/Presale.sol\":3197:3212  saleTotalSupply */\n      0x0b\n        /* \"Ethereum/Presale.sol\":3197:3286  saleTotalSupply.hardCap = datas[7] * 10 ** uint256(ERC20(saleInfor.baseToken).decimals()) */\n      sstore\n        /* \"Ethereum/Presale.sol\":3353:3372  saleInfor.baseToken */\n      sload(0x0f)\n        /* \"Ethereum/Presale.sol\":3347:3384  ERC20(saleInfor.baseToken).decimals() */\n      0x40\n      dup1\n      mload\n      shl(0xe0, 0x313ce567)\n      dup2\n      mstore\n      swap1\n      mload\n      sub(shl(0xa0, 0x01), 0x01)\n        /* \"Ethereum/Presale.sol\":3353:3372  saleInfor.baseToken */\n      swap1\n      swap3\n      and\n      swap2\n        /* \"Ethereum/Presale.sol\":3347:3382  ERC20(saleInfor.baseToken).decimals */\n      0x313ce567\n      swap2\n        /* \"Ethereum/Presale.sol\":3347:3384  ERC20(saleInfor.baseToken).decimals() */\n      0x04\n      dup1\n      dup3\n      add\n      swap3\n      0x20\n      swap3\n      swap1\n      swap2\n      swap1\n      dup3\n      swap1\n      sub\n      add\n      dup2\n        /* \"Ethereum/Presale.sol\":3353:3372  saleInfor.baseToken */\n      dup7\n        /* \"Ethereum/Presale.sol\":3347:3384  ERC20(saleInfor.baseToken).decimals() */\n      dup1\n      extcodesize\n      iszero\n      dup1\n      iszero\n      tag_205\n      jumpi\n      0x00\n      dup1\n      revert\n    tag_205:\n      pop\n      gas\n      staticcall\n      iszero\n      dup1\n      iszero\n      tag_207\n      jumpi\n      returndatasize\n      0x00\n      dup1\n      returndatacopy\n      revert(0x00, returndatasize)\n    tag_207:\n      pop\n      pop\n      pop\n      pop\n      mload(0x40)\n      returndatasize\n      not(0x1f)\n      0x1f\n      dup3\n      add\n      and\n      dup3\n      add\n      dup1\n      0x40\n      mstore\n      pop\n      dup2\n      add\n      swap1\n      tag_208\n      swap2\n      swap1\n      tag_157\n      jump\t// in\n    tag_208:\n        /* \"Ethereum/Presale.sol\":3334:3385  10** uint256(ERC20(saleInfor.baseToken).decimals()) */\n      tag_209\n      swap1\n        /* \"Ethereum/Presale.sol\":3334:3336  10 */\n      0x0a\n        /* \"Ethereum/Presale.sol\":3334:3385  10** uint256(ERC20(saleInfor.baseToken).decimals()) */\n      tag_173\n      jump\t// in\n    tag_209:\n        /* \"Ethereum/Presale.sol\":3323:3331  datas[8] */\n      0x0100\n      dup3\n      add\n      mload\n        /* \"Ethereum/Presale.sol\":3323:3385  datas[8] * 10** uint256(ERC20(saleInfor.baseToken).decimals()) */\n      tag_212\n      swap2\n      swap1\n      tag_178\n      jump\t// in\n    tag_212:\n        /* \"Ethereum/Presale.sol\":3297:3320  saleTotalSupply.softCap */\n      0x0c\n        /* \"Ethereum/Presale.sol\":3297:3385  saleTotalSupply.softCap = datas[8] * 10** uint256(ERC20(saleInfor.baseToken).decimals()) */\n      sstore\n        /* \"Ethereum/Presale.sol\":3449:3468  saleInfor.baseToken */\n      sload(0x0f)\n        /* \"Ethereum/Presale.sol\":3432:3436  WETH */\n      sload(0x19)\n        /* \"Ethereum/Presale.sol\":3396:3421  saleInfor.saleIsBaseToken */\n      0x17\n        /* \"Ethereum/Presale.sol\":3396:3469  saleInfor.saleIsBaseToken = address(WETH) == address(saleInfor.baseToken) */\n      dup1\n      sload\n      not(0xff)\n      and\n      sub(shl(0xa0, 0x01), 0x01)\n        /* \"Ethereum/Presale.sol\":3432:3436  WETH */\n      swap3\n      dup4\n      and\n        /* \"Ethereum/Presale.sol\":3449:3468  saleInfor.baseToken */\n      swap3\n      swap1\n      swap4\n      and\n        /* \"Ethereum/Presale.sol\":3424:3469  address(WETH) == address(saleInfor.baseToken) */\n      swap2\n      dup3\n      eq\n        /* \"Ethereum/Presale.sol\":3396:3469  saleInfor.saleIsBaseToken = address(WETH) == address(saleInfor.baseToken) */\n      swap3\n      swap1\n      swap3\n      or\n      swap1\n      swap2\n      sstore\n        /* \"Ethereum/Presale.sol\":3616:3653  ERC20(saleInfor.baseToken).decimals() */\n      0x40\n      dup1\n      mload\n      shl(0xe0, 0x313ce567)\n      dup2\n      mstore\n      swap1\n      mload\n        /* \"Ethereum/Presale.sol\":3616:3651  ERC20(saleInfor.baseToken).decimals */\n      0x313ce567\n      swap2\n        /* \"Ethereum/Presale.sol\":3616:3653  ERC20(saleInfor.baseToken).decimals() */\n      0x04\n      dup1\n      dup3\n      add\n      swap3\n      0x20\n      swap3\n      swap1\n      swap2\n      swap1\n      dup3\n      swap1\n      sub\n      add\n      dup2\n        /* \"Ethereum/Presale.sol\":3449:3468  saleInfor.baseToken */\n      dup7\n        /* \"Ethereum/Presale.sol\":3616:3653  ERC20(saleInfor.baseToken).decimals() */\n      dup1\n      extcodesize\n      iszero\n      dup1\n      iszero\n      tag_213\n      jumpi\n      0x00\n      dup1\n      revert\n    tag_213:\n      pop\n      gas\n      staticcall\n      iszero\n      dup1\n      iszero\n      tag_215\n      jumpi\n      returndatasize\n      0x00\n      dup1\n      returndatacopy\n      revert(0x00, returndatasize)\n    tag_215:\n      pop\n      pop\n      pop\n      pop\n      mload(0x40)\n      returndatasize\n      not(0x1f)\n      0x1f\n      dup3\n      add\n      and\n      dup3\n      add\n      dup1\n      0x40\n      mstore\n      pop\n      dup2\n      add\n      swap1\n      tag_216\n      swap2\n      swap1\n      tag_157\n      jump\t// in\n    tag_216:\n        /* \"Ethereum/Presale.sol\":3603:3654  10** uint256(ERC20(saleInfor.baseToken).decimals()) */\n      tag_217\n      swap1\n        /* \"Ethereum/Presale.sol\":3603:3605  10 */\n      0x0a\n        /* \"Ethereum/Presale.sol\":3603:3654  10** uint256(ERC20(saleInfor.baseToken).decimals()) */\n      tag_173\n      jump\t// in\n    tag_217:\n        /* \"Ethereum/Presale.sol\":3536:3551  saleTotalSupply */\n      0x0b\n        /* \"Ethereum/Presale.sol\":3536:3559  saleTotalSupply.hardCap */\n      sload\n        /* \"Ethereum/Presale.sol\":3511:3531  saleInfor.tokenPrice */\n      sload(0x10)\n        /* \"Ethereum/Presale.sol\":3511:3560  saleInfor.tokenPrice.mul(saleTotalSupply.hardCap) */\n      tag_218\n      swap2\n        /* \"Ethereum/Presale.sol\":3511:3535  saleInfor.tokenPrice.mul */\n      tag_219\n        /* \"Ethereum/Presale.sol\":3511:3560  saleInfor.tokenPrice.mul(saleTotalSupply.hardCap) */\n      jump\t// in\n    tag_218:\n        /* \"Ethereum/Presale.sol\":3511:3655  saleInfor.tokenPrice.mul(saleTotalSupply.hardCap)/\r... */\n      tag_220\n      swap2\n      swap1\n      tag_221\n      jump\t// in\n    tag_220:\n        /* \"Ethereum/Presale.sol\":3480:3508  saleInfor.amountTokenForSale */\n      0x18\n        /* \"Ethereum/Presale.sol\":3480:3655  saleInfor.amountTokenForSale = saleInfor.tokenPrice.mul(saleTotalSupply.hardCap)/\r... */\n      sstore\n      pop\n      pop\n      pop\n      pop\n        /* \"Ethereum/Presale.sol\":2473:3663  function initialSaleInfor(\r... */\n      jump\t// out\n        /* \"Ethereum/Presale.sol\":7238:8098  function userRefundEmergency() external nonReentrant {\r... */\n    tag_75:\n        /* \"Utils/ReentrancyGuard.sol\":1778:1779  2 */\n      0x02\n        /* \"Utils/ReentrancyGuard.sol\":2376:2383  _status */\n      sload(0x00)\n        /* \"Utils/ReentrancyGuard.sol\":2376:2395  _status != _ENTERED */\n      eq\n      iszero\n        /* \"Utils/ReentrancyGuard.sol\":2368:2431  require(_status != _ENTERED, \"ReentrancyGuard: reentrant call\") */\n      tag_223\n      jumpi\n      mload(0x40)\n      shl(0xe5, 0x461bcd)\n      dup2\n      mstore\n      0x04\n      add\n      tag_127\n      swap1\n      tag_144\n      jump\t// in\n    tag_223:\n        /* \"Utils/ReentrancyGuard.sol\":1778:1779  2 */\n      0x02\n        /* \"Utils/ReentrancyGuard.sol\":2509:2516  _status */\n      0x00\n        /* \"Utils/ReentrancyGuard.sol\":2509:2527  _status = _ENTERED */\n      sstore\n        /* \"Ethereum/Presale.sol\":7310:7318  status() */\n      tag_226\n        /* \"Ethereum/Presale.sol\":7310:7316  status */\n      tag_43\n        /* \"Ethereum/Presale.sol\":7310:7318  status() */\n      jump\t// in\n    tag_226:\n        /* \"Ethereum/Presale.sol\":7322:7323  1 */\n      0x01\n        /* \"Ethereum/Presale.sol\":7310:7323  status() == 1 */\n      eq\n        /* \"Ethereum/Presale.sol\":7302:7340  require(status() == 1, \"Sale sucesss\") */\n      tag_227\n      jumpi\n      mload(0x40)\n      shl(0xe5, 0x461bcd)\n      dup2\n      mstore\n        /* \"#utility.yul\":8458:8460   */\n      0x20\n        /* \"Ethereum/Presale.sol\":7302:7340  require(status() == 1, \"Sale sucesss\") */\n      0x04\n      dup3\n      add\n        /* \"#utility.yul\":8440:8461   */\n      mstore\n        /* \"#utility.yul\":8497:8499   */\n      0x0c\n        /* \"#utility.yul\":8477:8495   */\n      0x24\n      dup3\n      add\n        /* \"#utility.yul\":8470:8500   */\n      mstore\n      shl(0xa0, 0x53616c652073756365737373)\n        /* \"#utility.yul\":8516:8534   */\n      0x44\n      dup3\n      add\n        /* \"#utility.yul\":8509:8551   */\n      mstore\n        /* \"#utility.yul\":8568:8586   */\n      0x64\n      add\n        /* \"Ethereum/Presale.sol\":7302:7340  require(status() == 1, \"Sale sucesss\") */\n      tag_127\n        /* \"#utility.yul\":8430:8592   */\n      jump\n        /* \"Ethereum/Presale.sol\":7302:7340  require(status() == 1, \"Sale sucesss\") */\n    tag_227:\n        /* \"Ethereum/Presale.sol\":7394:7425  presaleStatus.totalBaseWithDraw */\n      sload(0x07)\n        /* \"Ethereum/Presale.sol\":7394:7407  presaleStatus */\n      0x04\n        /* \"Ethereum/Presale.sol\":7359:7391  presaleStatus.totalBaseCollected */\n      sload\n        /* \"Ethereum/Presale.sol\":7428:7429  0 */\n      0x00\n      swap2\n        /* \"Ethereum/Presale.sol\":7359:7425  presaleStatus.totalBaseCollected - presaleStatus.totalBaseWithDraw */\n      tag_230\n      swap2\n      tag_231\n      jump\t// in\n    tag_230:\n        /* \"Ethereum/Presale.sol\":7359:7429  presaleStatus.totalBaseCollected - presaleStatus.totalBaseWithDraw > 0 */\n      gt\n        /* \"Ethereum/Presale.sol\":7351:7488  require(presaleStatus.totalBaseCollected - presaleStatus.totalBaseWithDraw > 0, \r... */\n      tag_232\n      jumpi\n      mload(0x40)\n      shl(0xe5, 0x461bcd)\n      dup2\n      mstore\n      0x04\n      add\n      tag_127\n      swap1\n      tag_234\n      jump\t// in\n    tag_232:\n        /* \"Ethereum/Presale.sol\":7536:7546  msg.sender */\n      caller\n        /* \"Ethereum/Presale.sol\":7500:7523  BuyerInfo storage buyer */\n      0x00\n        /* \"Ethereum/Presale.sol\":7526:7547  buyerInfo[msg.sender] */\n      swap1\n      dup2\n      mstore\n        /* \"Ethereum/Presale.sol\":7526:7535  buyerInfo */\n      0x02\n        /* \"Ethereum/Presale.sol\":7526:7547  buyerInfo[msg.sender] */\n      0x20\n      mstore\n      0x40\n      swap1\n      keccak256\n        /* \"Ethereum/Presale.sol\":7566:7583  buyer.baseDeposit */\n      dup1\n      sload\n        /* \"Ethereum/Presale.sol\":7558:7629  require(buyer.baseDeposit > 0, \"You refund all or have not bought yet\") */\n      tag_235\n      jumpi\n      mload(0x40)\n      shl(0xe5, 0x461bcd)\n      dup2\n      mstore\n        /* \"#utility.yul\":6959:6961   */\n      0x20\n        /* \"Ethereum/Presale.sol\":7558:7629  require(buyer.baseDeposit > 0, \"You refund all or have not bought yet\") */\n      0x04\n      dup3\n      add\n        /* \"#utility.yul\":6941:6962   */\n      mstore\n        /* \"#utility.yul\":6998:7000   */\n      0x25\n        /* \"#utility.yul\":6978:6996   */\n      0x24\n      dup3\n      add\n        /* \"#utility.yul\":6971:7001   */\n      mstore\n        /* \"#utility.yul\":7037:7071   */\n      0x596f7520726566756e6420616c6c206f722068617665206e6f7420626f756768\n        /* \"#utility.yul\":7017:7035   */\n      0x44\n      dup3\n      add\n        /* \"#utility.yul\":7010:7072   */\n      mstore\n      shl(0xda, 0x1d081e595d)\n        /* \"#utility.yul\":7088:7106   */\n      0x64\n      dup3\n      add\n        /* \"#utility.yul\":7081:7116   */\n      mstore\n        /* \"#utility.yul\":7133:7152   */\n      0x84\n      add\n        /* \"Ethereum/Presale.sol\":7558:7629  require(buyer.baseDeposit > 0, \"You refund all or have not bought yet\") */\n      tag_127\n        /* \"#utility.yul\":6931:7158   */\n      jump\n        /* \"Ethereum/Presale.sol\":7558:7629  require(buyer.baseDeposit > 0, \"You refund all or have not bought yet\") */\n    tag_235:\n        /* \"Ethereum/Presale.sol\":7742:7759  buyer.baseDeposit */\n      dup1\n      sload\n        /* \"Ethereum/Presale.sol\":7683:7702  saleInfor.refundFee */\n      sload(0x15)\n        /* \"Ethereum/Presale.sol\":7640:7660  uint256 amountRefund */\n      0x00\n      swap2\n        /* \"Ethereum/Presale.sol\":7663:7813  ((uint256(1000).sub(saleInfor.refundFee))\r... */\n      tag_238\n      swap2\n        /* \"Ethereum/Presale.sol\":7807:7811  1000 */\n      0x03e8\n      swap2\n        /* \"Ethereum/Presale.sol\":7664:7760  (uint256(1000).sub(saleInfor.refundFee))\r... */\n      tag_239\n      swap2\n        /* \"Ethereum/Presale.sol\":7665:7703  uint256(1000).sub(saleInfor.refundFee) */\n      tag_240\n      swap1\n        /* \"Ethereum/Presale.sol\":7807:7811  1000 */\n      dup5\n      swap1\n        /* \"Ethereum/Presale.sol\":7665:7682  uint256(1000).sub */\n      tag_241\n        /* \"Ethereum/Presale.sol\":7665:7703  uint256(1000).sub(saleInfor.refundFee) */\n      jump\t// in\n    tag_240:\n        /* \"Ethereum/Presale.sol\":7664:7741  (uint256(1000).sub(saleInfor.refundFee))\r... */\n      swap1\n      tag_219\n        /* \"Ethereum/Presale.sol\":7664:7760  (uint256(1000).sub(saleInfor.refundFee))\r... */\n      jump\t// in\n    tag_239:\n        /* \"Ethereum/Presale.sol\":7663:7798  ((uint256(1000).sub(saleInfor.refundFee))\r... */\n      swap1\n      tag_242\n        /* \"Ethereum/Presale.sol\":7663:7813  ((uint256(1000).sub(saleInfor.refundFee))\r... */\n      jump\t// in\n    tag_238:\n        /* \"Ethereum/Presale.sol\":7836:7853  buyer.baseDeposit */\n      dup3\n      sload\n        /* \"Ethereum/Presale.sol\":7640:7813  uint256 amountRefund = ((uint256(1000).sub(saleInfor.refundFee))\r... */\n      swap1\n      swap2\n      pop\n        /* \"Ethereum/Presale.sol\":7836:7868  buyer.baseDeposit - amountRefund */\n      tag_243\n      swap1\n        /* \"Ethereum/Presale.sol\":7640:7813  uint256 amountRefund = ((uint256(1000).sub(saleInfor.refundFee))\r... */\n      dup3\n      swap1\n        /* \"Ethereum/Presale.sol\":7836:7868  buyer.baseDeposit - amountRefund */\n      tag_231\n      jump\t// in\n    tag_243:\n        /* \"Ethereum/Presale.sol\":7824:7832  totalFee */\n      0x1d\n      0x00\n        /* \"Ethereum/Presale.sol\":7824:7868  totalFee += buyer.baseDeposit - amountRefund */\n      dup3\n      dup3\n      sload\n      tag_244\n      swap2\n      swap1\n      tag_245\n      jump\t// in\n    tag_244:\n      swap1\n      swap2\n      sstore\n      pop\n      pop\n        /* \"Ethereum/Presale.sol\":7879:7910  presaleStatus.totalBaseWithDraw */\n      0x07\n        /* \"Ethereum/Presale.sol\":7879:7926  presaleStatus.totalBaseWithDraw += amountRefund */\n      dup1\n      sload\n        /* \"Ethereum/Presale.sol\":7914:7926  amountRefund */\n      dup3\n      swap2\n        /* \"Ethereum/Presale.sol\":7879:7910  presaleStatus.totalBaseWithDraw */\n      swap1\n      0x00\n      swap1\n        /* \"Ethereum/Presale.sol\":7879:7926  presaleStatus.totalBaseWithDraw += amountRefund */\n      tag_246\n      swap1\n        /* \"Ethereum/Presale.sol\":7914:7926  amountRefund */\n      dup5\n      swap1\n        /* \"Ethereum/Presale.sol\":7879:7926  presaleStatus.totalBaseWithDraw += amountRefund */\n      tag_245\n      jump\t// in\n    tag_246:\n      swap1\n      swap2\n      sstore\n      pop\n      pop\n        /* \"Ethereum/Presale.sol\":7958:7959  0 */\n      0x00\n        /* \"Ethereum/Presale.sol\":7937:7959  buyer.baseDeposit  = 0 */\n      dup1\n      dup4\n      sstore\n        /* \"Ethereum/Presale.sol\":7970:7986  buyer.tokenOwner */\n      0x01\n      dup4\n      add\n        /* \"Ethereum/Presale.sol\":7970:7990  buyer.tokenOwner = 0 */\n      dup2\n      swap1\n      sstore\n        /* \"Ethereum/Presale.sol\":8022:8037  block.timestamp */\n      timestamp\n        /* \"Ethereum/Presale.sol\":8001:8019  buyer.lastWithDraw */\n      0x02\n      dup5\n      add\n        /* \"Ethereum/Presale.sol\":8001:8037  buyer.lastWithDraw = block.timestamp */\n      sstore\n        /* \"Ethereum/Presale.sol\":8048:8090  payable(msg.sender).transfer(amountRefund) */\n      mload(0x40)\n        /* \"Ethereum/Presale.sol\":8056:8066  msg.sender */\n      caller\n      swap2\n        /* \"Ethereum/Presale.sol\":8048:8090  payable(msg.sender).transfer(amountRefund) */\n      dup4\n      iszero\n      0x08fc\n      mul\n      swap2\n        /* \"Ethereum/Presale.sol\":8077:8089  amountRefund */\n      dup5\n      swap2\n        /* \"Ethereum/Presale.sol\":8048:8090  payable(msg.sender).transfer(amountRefund) */\n      dup2\n        /* \"Ethereum/Presale.sol\":7958:7959  0 */\n      dup2\n        /* \"Ethereum/Presale.sol\":8048:8090  payable(msg.sender).transfer(amountRefund) */\n      dup2\n        /* \"Ethereum/Presale.sol\":8077:8089  amountRefund */\n      dup6\n        /* \"Ethereum/Presale.sol\":8056:8066  msg.sender */\n      dup9\n        /* \"Ethereum/Presale.sol\":8048:8090  payable(msg.sender).transfer(amountRefund) */\n      dup9\n      call\n      swap4\n      pop\n      pop\n      pop\n      pop\n      iszero\n      dup1\n      iszero\n      tag_166\n      jumpi\n      returndatasize\n      0x00\n      dup1\n      returndatacopy\n      revert(0x00, returndatasize)\n        /* \"Ethereum/Presale.sol\":6351:7230  function userClaimEmergency() external nonReentrant {\r... */\n    tag_78:\n        /* \"Utils/ReentrancyGuard.sol\":1778:1779  2 */\n      0x02\n        /* \"Utils/ReentrancyGuard.sol\":2376:2383  _status */\n      sload(0x00)\n        /* \"Utils/ReentrancyGuard.sol\":2376:2395  _status != _ENTERED */\n      eq\n      iszero\n        /* \"Utils/ReentrancyGuard.sol\":2368:2431  require(_status != _ENTERED, \"ReentrancyGuard: reentrant call\") */\n      tag_250\n      jumpi\n      mload(0x40)\n      shl(0xe5, 0x461bcd)\n      dup2\n      mstore\n      0x04\n      add\n      tag_127\n      swap1\n      tag_144\n      jump\t// in\n    tag_250:\n        /* \"Utils/ReentrancyGuard.sol\":1778:1779  2 */\n      0x02\n        /* \"Utils/ReentrancyGuard.sol\":2509:2516  _status */\n      0x00\n        /* \"Utils/ReentrancyGuard.sol\":2509:2527  _status = _ENTERED */\n      sstore\n        /* \"Ethereum/Presale.sol\":6422:6430  status() */\n      tag_253\n        /* \"Ethereum/Presale.sol\":6422:6428  status */\n      tag_43\n        /* \"Ethereum/Presale.sol\":6422:6430  status() */\n      jump\t// in\n    tag_253:\n        /* \"Ethereum/Presale.sol\":6434:6435  1 */\n      0x01\n        /* \"Ethereum/Presale.sol\":6422:6435  status() == 1 */\n      eq\n        /* \"Ethereum/Presale.sol\":6414:6452  require(status() == 1, \"Sale sucesss\") */\n      tag_254\n      jumpi\n      mload(0x40)\n      shl(0xe5, 0x461bcd)\n      dup2\n      mstore\n        /* \"#utility.yul\":8458:8460   */\n      0x20\n        /* \"Ethereum/Presale.sol\":6414:6452  require(status() == 1, \"Sale sucesss\") */\n      0x04\n      dup3\n      add\n        /* \"#utility.yul\":8440:8461   */\n      mstore\n        /* \"#utility.yul\":8497:8499   */\n      0x0c\n        /* \"#utility.yul\":8477:8495   */\n      0x24\n      dup3\n      add\n        /* \"#utility.yul\":8470:8500   */\n      mstore\n      shl(0xa0, 0x53616c652073756365737373)\n        /* \"#utility.yul\":8516:8534   */\n      0x44\n      dup3\n      add\n        /* \"#utility.yul\":8509:8551   */\n      mstore\n        /* \"#utility.yul\":8568:8586   */\n      0x64\n      add\n        /* \"Ethereum/Presale.sol\":6414:6452  require(status() == 1, \"Sale sucesss\") */\n      tag_127\n        /* \"#utility.yul\":8430:8592   */\n      jump\n        /* \"Ethereum/Presale.sol\":6414:6452  require(status() == 1, \"Sale sucesss\") */\n    tag_254:\n        /* \"Ethereum/Presale.sol\":6503:6535  presaleStatus.totalTokenWithDraw */\n      sload(0x06)\n        /* \"Ethereum/Presale.sol\":6472:6500  presaleStatus.totalTokenSold */\n      sload(0x05)\n        /* \"Ethereum/Presale.sol\":6538:6539  0 */\n      0x00\n      swap2\n        /* \"Ethereum/Presale.sol\":6472:6535  presaleStatus.totalTokenSold - presaleStatus.totalTokenWithDraw */\n      tag_256\n      swap2\n      tag_231\n      jump\t// in\n    tag_256:\n        /* \"Ethereum/Presale.sol\":6472:6539  presaleStatus.totalTokenSold - presaleStatus.totalTokenWithDraw > 0 */\n      gt\n        /* \"Ethereum/Presale.sol\":6464:6598  require(presaleStatus.totalTokenSold - presaleStatus.totalTokenWithDraw > 0, \r... */\n      tag_257\n      jumpi\n      mload(0x40)\n      shl(0xe5, 0x461bcd)\n      dup2\n      mstore\n      0x04\n      add\n      tag_127\n      swap1\n      tag_234\n      jump\t// in\n    tag_257:\n        /* \"Ethereum/Presale.sol\":6645:6655  msg.sender */\n      caller\n        /* \"Ethereum/Presale.sol\":6609:6632  BuyerInfo storage buyer */\n      0x00\n        /* \"Ethereum/Presale.sol\":6635:6656  buyerInfo[msg.sender] */\n      swap1\n      dup2\n      mstore\n        /* \"Ethereum/Presale.sol\":6635:6644  buyerInfo */\n      0x02\n        /* \"Ethereum/Presale.sol\":6635:6656  buyerInfo[msg.sender] */\n      0x20\n      mstore\n      0x40\n      swap1\n      keccak256\n        /* \"Ethereum/Presale.sol\":6694:6718  buyer.totalTokenWithDraw */\n      0x03\n      dup2\n      add\n      sload\n        /* \"Ethereum/Presale.sol\":6675:6691  buyer.tokenOwner */\n      0x01\n      dup3\n      add\n      sload\n        /* \"Ethereum/Presale.sol\":6675:6718  buyer.tokenOwner > buyer.totalTokenWithDraw */\n      gt\n        /* \"Ethereum/Presale.sol\":6667:6759  require(buyer.tokenOwner > buyer.totalTokenWithDraw, \"You claim all or have not bought yet\") */\n      tag_259\n      jumpi\n      mload(0x40)\n      shl(0xe5, 0x461bcd)\n      dup2\n      mstore\n      0x04\n      add\n      tag_127\n      swap1\n      tag_261\n      jump\t// in\n    tag_259:\n        /* \"Ethereum/Presale.sol\":6770:6789  uint256 amountClaim */\n      0x00\n        /* \"Ethereum/Presale.sol\":6792:6928  ((uint256(1000).sub(saleInfor.claimFee))\r... */\n      tag_262\n        /* \"Ethereum/Presale.sol\":6922:6926  1000 */\n      0x03e8\n        /* \"Ethereum/Presale.sol\":6793:6881  (uint256(1000).sub(saleInfor.claimFee))\r... */\n      tag_239\n        /* \"Ethereum/Presale.sol\":6864:6869  buyer */\n      dup5\n        /* \"Ethereum/Presale.sol\":6864:6880  buyer.tokenOwner */\n      0x01\n      add\n      sload\n        /* \"Ethereum/Presale.sol\":6794:6831  uint256(1000).sub(saleInfor.claimFee) */\n      tag_240\n        /* \"Ethereum/Presale.sol\":6812:6821  saleInfor */\n      0x0d\n        /* \"Ethereum/Presale.sol\":6812:6830  saleInfor.claimFee */\n      0x09\n      add\n      sload\n        /* \"Ethereum/Presale.sol\":6802:6806  1000 */\n      0x03e8\n        /* \"Ethereum/Presale.sol\":6794:6811  uint256(1000).sub */\n      tag_241\n      swap1\n        /* \"Ethereum/Presale.sol\":6794:6831  uint256(1000).sub(saleInfor.claimFee) */\n      swap2\n      swap1\n      0xffffffff\n      and\n      jump\t// in\n        /* \"Ethereum/Presale.sol\":6792:6928  ((uint256(1000).sub(saleInfor.claimFee))\r... */\n    tag_262:\n        /* \"Ethereum/Presale.sol\":6770:6928  uint256 amountClaim = ((uint256(1000).sub(saleInfor.claimFee))\r... */\n      swap1\n      pop\n        /* \"Ethereum/Presale.sol\":6975:6986  amountClaim */\n      dup1\n        /* \"Ethereum/Presale.sol\":6939:6952  presaleStatus */\n      0x04\n        /* \"Ethereum/Presale.sol\":6939:6971  presaleStatus.totalTokenWithDraw */\n      0x02\n      add\n      0x00\n        /* \"Ethereum/Presale.sol\":6939:6986  presaleStatus.totalTokenWithDraw += amountClaim */\n      dup3\n      dup3\n      sload\n      tag_265\n      swap2\n      swap1\n      tag_245\n      jump\t// in\n    tag_265:\n      swap1\n      swap2\n      sstore\n      pop\n      pop\n        /* \"Ethereum/Presale.sol\":6997:7025  saleInfor.amountTokenForSale */\n      0x18\n        /* \"Ethereum/Presale.sol\":6997:7040  saleInfor.amountTokenForSale -= amountClaim */\n      dup1\n      sload\n        /* \"Ethereum/Presale.sol\":7029:7040  amountClaim */\n      dup3\n      swap2\n        /* \"Ethereum/Presale.sol\":6997:7025  saleInfor.amountTokenForSale */\n      swap1\n      0x00\n      swap1\n        /* \"Ethereum/Presale.sol\":6997:7040  saleInfor.amountTokenForSale -= amountClaim */\n      tag_266\n      swap1\n        /* \"Ethereum/Presale.sol\":7029:7040  amountClaim */\n      dup5\n      swap1\n        /* \"Ethereum/Presale.sol\":6997:7040  saleInfor.amountTokenForSale -= amountClaim */\n      tag_231\n      jump\t// in\n    tag_266:\n      swap1\n      swap2\n      sstore\n      pop\n      pop\n        /* \"Ethereum/Presale.sol\":7072:7073  0 */\n      0x00\n        /* \"Ethereum/Presale.sol\":7051:7073  buyer.baseDeposit  = 0 */\n      dup1\n      dup4\n      sstore\n        /* \"Ethereum/Presale.sol\":7084:7100  buyer.tokenOwner */\n      0x01\n      dup4\n      add\n        /* \"Ethereum/Presale.sol\":7084:7104  buyer.tokenOwner = 0 */\n      sstore\n        /* \"Ethereum/Presale.sol\":7136:7151  block.timestamp */\n      timestamp\n        /* \"Ethereum/Presale.sol\":7115:7133  buyer.lastWithDraw */\n      0x02\n      dup4\n      add\n        /* \"Ethereum/Presale.sol\":7115:7151  buyer.lastWithDraw = block.timestamp */\n      sstore\n        /* \"Ethereum/Presale.sol\":7168:7187  saleInfor.saleToken */\n      sload(0x0e)\n        /* \"Ethereum/Presale.sol\":7162:7222  ERC20(saleInfor.saleToken).transfer(msg.sender, amountClaim) */\n      mload(0x40)\n      shl(0xe0, 0xa9059cbb)\n      dup2\n      mstore\n        /* \"Ethereum/Presale.sol\":7198:7208  msg.sender */\n      caller\n        /* \"Ethereum/Presale.sol\":7162:7222  ERC20(saleInfor.saleToken).transfer(msg.sender, amountClaim) */\n      0x04\n      dup3\n      add\n        /* \"#utility.yul\":4102:4153   */\n      mstore\n        /* \"#utility.yul\":4169:4187   */\n      0x24\n      dup2\n      add\n        /* \"#utility.yul\":4162:4196   */\n      dup4\n      swap1\n      mstore\n      sub(shl(0xa0, 0x01), 0x01)\n        /* \"Ethereum/Presale.sol\":7168:7187  saleInfor.saleToken */\n      swap1\n      swap2\n      and\n      swap1\n        /* \"Ethereum/Presale.sol\":7162:7197  ERC20(saleInfor.saleToken).transfer */\n      0xa9059cbb\n      swap1\n        /* \"#utility.yul\":4075:4093   */\n      0x44\n      add\n        /* \"Ethereum/Presale.sol\":7162:7222  ERC20(saleInfor.saleToken).transfer(msg.sender, amountClaim) */\n      0x20\n      mload(0x40)\n      dup1\n      dup4\n      sub\n      dup2\n      0x00\n      dup8\n      dup1\n      extcodesize\n      iszero\n      dup1\n      iszero\n      tag_269\n      jumpi\n      0x00\n      dup1\n      revert\n    tag_269:\n      pop\n      gas\n      call\n      iszero\n      dup1\n      iszero\n      tag_271\n      jumpi\n      returndatasize\n      0x00\n      dup1\n      returndatacopy\n      revert(0x00, returndatasize)\n    tag_271:\n      pop\n      pop\n      pop\n      pop\n      mload(0x40)\n      returndatasize\n      not(0x1f)\n      0x1f\n      dup3\n      add\n      and\n      dup3\n      add\n      dup1\n      0x40\n      mstore\n      pop\n      dup2\n      add\n      swap1\n      tag_166\n      swap2\n      swap1\n      tag_164\n      jump\t// in\n        /* \"Ethereum/Presale.sol\":4136:6343  function deposit(uint256 _amount) external payable nonReentrant {\r... */\n    tag_92:\n        /* \"Utils/ReentrancyGuard.sol\":1778:1779  2 */\n      0x02\n        /* \"Utils/ReentrancyGuard.sol\":2376:2383  _status */\n      sload(0x00)\n        /* \"Utils/ReentrancyGuard.sol\":2376:2395  _status != _ENTERED */\n      eq\n      iszero\n        /* \"Utils/ReentrancyGuard.sol\":2368:2431  require(_status != _ENTERED, \"ReentrancyGuard: reentrant call\") */\n      tag_274\n      jumpi\n      mload(0x40)\n      shl(0xe5, 0x461bcd)\n      dup2\n      mstore\n      0x04\n      add\n      tag_127\n      swap1\n      tag_144\n      jump\t// in\n    tag_274:\n        /* \"Utils/ReentrancyGuard.sol\":1778:1779  2 */\n      0x02\n        /* \"Utils/ReentrancyGuard.sol\":2509:2516  _status */\n      0x00\n        /* \"Utils/ReentrancyGuard.sol\":2509:2527  _status = _ENTERED */\n      dup2\n      dup2\n      sstore\n        /* \"Ethereum/Presale.sol\":4307:4317  msg.sender */\n      caller\n        /* \"Ethereum/Presale.sol\":4297:4318  buyerInfo[msg.sender] */\n      dup2\n      mstore\n      0x20\n      swap2\n      swap1\n      swap2\n      mstore\n      0x40\n      dup2\n      keccak256\n      swap1\n        /* \"Ethereum/Presale.sol\":4349:4356  _amount */\n      dup3\n      swap1\n      dup2\n      swap1\n        /* \"Ethereum/Presale.sol\":4462:4466  1000 */\n      0x03e8\n        /* \"Ethereum/Presale.sol\":4485:4494  msg.value */\n      callvalue\n        /* \"Ethereum/Presale.sol\":4485:4512  msg.value >= real_amount_in */\n      dup4\n      gt\n      iszero\n        /* \"Ethereum/Presale.sol\":4477:4543  require(msg.value >= real_amount_in, \"Please provide navite coin\") */\n      tag_277\n      jumpi\n      mload(0x40)\n      shl(0xe5, 0x461bcd)\n      dup2\n      mstore\n        /* \"#utility.yul\":5482:5484   */\n      0x20\n        /* \"Ethereum/Presale.sol\":4477:4543  require(msg.value >= real_amount_in, \"Please provide navite coin\") */\n      0x04\n      dup3\n      add\n        /* \"#utility.yul\":5464:5485   */\n      mstore\n        /* \"#utility.yul\":5521:5523   */\n      0x1a\n        /* \"#utility.yul\":5501:5519   */\n      0x24\n      dup3\n      add\n        /* \"#utility.yul\":5494:5524   */\n      mstore\n        /* \"#utility.yul\":5560:5588   */\n      0x506c656173652070726f76696465206e617669746520636f696e000000000000\n        /* \"#utility.yul\":5540:5558   */\n      0x44\n      dup3\n      add\n        /* \"#utility.yul\":5533:5589   */\n      mstore\n        /* \"#utility.yul\":5606:5624   */\n      0x64\n      add\n        /* \"Ethereum/Presale.sol\":4477:4543  require(msg.value >= real_amount_in, \"Please provide navite coin\") */\n      tag_127\n        /* \"#utility.yul\":5454:5630   */\n      jump\n        /* \"Ethereum/Presale.sol\":4477:4543  require(msg.value >= real_amount_in, \"Please provide navite coin\") */\n    tag_277:\n        /* \"Ethereum/Presale.sol\":4580:4606  saleInfor.minSpendPerBuyer */\n      sload(0x13)\n        /* \"Ethereum/Presale.sol\":4562:4606  real_amount_in >= saleInfor.minSpendPerBuyer */\n      dup4\n      lt\n      iszero\n        /* \"Ethereum/Presale.sol\":4554:4655  require(real_amount_in >= saleInfor.minSpendPerBuyer, \r... */\n      tag_280\n      jumpi\n      mload(0x40)\n      shl(0xe5, 0x461bcd)\n      dup2\n      mstore\n        /* \"#utility.yul\":8113:8115   */\n      0x20\n        /* \"Ethereum/Presale.sol\":4554:4655  require(real_amount_in >= saleInfor.minSpendPerBuyer, \r... */\n      0x04\n      dup3\n      add\n        /* \"#utility.yul\":8095:8116   */\n      mstore\n        /* \"#utility.yul\":8152:8154   */\n      0x10\n        /* \"#utility.yul\":8132:8150   */\n      0x24\n      dup3\n      add\n        /* \"#utility.yul\":8125:8155   */\n      mstore\n      shl(0x80, 0x4e6f7420656e6f7567682076616c7565)\n        /* \"#utility.yul\":8171:8189   */\n      0x44\n      dup3\n      add\n        /* \"#utility.yul\":8164:8210   */\n      mstore\n        /* \"#utility.yul\":8227:8245   */\n      0x64\n      add\n        /* \"Ethereum/Presale.sol\":4554:4655  require(real_amount_in >= saleInfor.minSpendPerBuyer, \r... */\n      tag_127\n        /* \"#utility.yul\":8085:8251   */\n      jump\n        /* \"Ethereum/Presale.sol\":4554:4655  require(real_amount_in >= saleInfor.minSpendPerBuyer, \r... */\n    tag_280:\n        /* \"Ethereum/Presale.sol\":4692:4718  saleInfor.maxSpendPerBuyer */\n      sload(0x14)\n        /* \"Ethereum/Presale.sol\":4674:4718  real_amount_in <= saleInfor.maxSpendPerBuyer */\n      dup4\n      gt\n      iszero\n        /* \"Ethereum/Presale.sol\":4666:4765  require(real_amount_in <= saleInfor.maxSpendPerBuyer, \r... */\n      tag_283\n      jumpi\n      mload(0x40)\n      shl(0xe5, 0x461bcd)\n      dup2\n      mstore\n        /* \"#utility.yul\":7365:7367   */\n      0x20\n        /* \"Ethereum/Presale.sol\":4666:4765  require(real_amount_in <= saleInfor.maxSpendPerBuyer, \r... */\n      0x04\n      dup3\n      add\n        /* \"#utility.yul\":7347:7368   */\n      mstore\n        /* \"#utility.yul\":7404:7406   */\n      0x0e\n        /* \"#utility.yul\":7384:7402   */\n      0x24\n      dup3\n      add\n        /* \"#utility.yul\":7377:7407   */\n      mstore\n      shl(0x90, 0x4f766572666c6f772076616c7565)\n        /* \"#utility.yul\":7423:7441   */\n      0x44\n      dup3\n      add\n        /* \"#utility.yul\":7416:7460   */\n      mstore\n        /* \"#utility.yul\":7477:7495   */\n      0x64\n      add\n        /* \"Ethereum/Presale.sol\":4666:4765  require(real_amount_in <= saleInfor.maxSpendPerBuyer, \r... */\n      tag_127\n        /* \"#utility.yul\":7337:7501   */\n      jump\n        /* \"Ethereum/Presale.sol\":4666:4765  require(real_amount_in <= saleInfor.maxSpendPerBuyer, \r... */\n    tag_283:\n        /* \"Ethereum/Presale.sol\":4780:4799  checkAdminAddress() */\n      tag_286\n        /* \"Ethereum/Presale.sol\":4780:4797  checkAdminAddress */\n      tag_95\n        /* \"Ethereum/Presale.sol\":4780:4799  checkAdminAddress() */\n      jump\t// in\n    tag_286:\n        /* \"Ethereum/Presale.sol\":4776:5042  if(!checkAdminAddress()) {\r... */\n      tag_287\n      jumpi\n        /* \"Ethereum/Presale.sol\":4833:4966  ((fullPercenFee.sub(feeAnyone))\r... */\n      tag_288\n        /* \"Ethereum/Presale.sol\":4952:4965  fullPercenFee */\n      dup2\n        /* \"Ethereum/Presale.sol\":4834:4915  (fullPercenFee.sub(feeAnyone))\r... */\n      tag_239\n        /* \"Ethereum/Presale.sol\":4900:4914  real_amount_in */\n      dup6\n        /* \"Ethereum/Presale.sol\":4835:4863  fullPercenFee.sub(feeAnyone) */\n      tag_240\n        /* \"Ethereum/Presale.sol\":4853:4862  feeAnyone */\n      sload(0x1a)\n        /* \"Ethereum/Presale.sol\":4835:4848  fullPercenFee */\n      dup7\n        /* \"Ethereum/Presale.sol\":4835:4852  fullPercenFee.sub */\n      tag_241\n      swap1\n        /* \"Ethereum/Presale.sol\":4835:4863  fullPercenFee.sub(feeAnyone) */\n      swap2\n      swap1\n      0xffffffff\n      and\n      jump\t// in\n        /* \"Ethereum/Presale.sol\":4833:4966  ((fullPercenFee.sub(feeAnyone))\r... */\n    tag_288:\n        /* \"Ethereum/Presale.sol\":4816:4966  real_amount_in = ((fullPercenFee.sub(feeAnyone))\r... */\n      swap3\n      pop\n        /* \"Ethereum/Presale.sol\":4987:5013  amount_in - real_amount_in */\n      tag_291\n        /* \"Ethereum/Presale.sol\":4816:4966  real_amount_in = ((fullPercenFee.sub(feeAnyone))\r... */\n      dup4\n        /* \"Ethereum/Presale.sol\":4987:4996  amount_in */\n      dup6\n        /* \"Ethereum/Presale.sol\":4987:5013  amount_in - real_amount_in */\n      tag_231\n      jump\t// in\n    tag_291:\n        /* \"Ethereum/Presale.sol\":4981:5013  fee = amount_in - real_amount_in */\n      swap2\n      pop\n        /* \"Ethereum/Presale.sol\":4776:5042  if(!checkAdminAddress()) {\r... */\n    tag_287:\n        /* \"Ethereum/Presale.sol\":5107:5124  buyer.baseDeposit */\n      dup5\n      sload\n        /* \"Ethereum/Presale.sol\":5078:5104  saleInfor.maxSpendPerBuyer */\n      sload(0x14)\n        /* \"Ethereum/Presale.sol\":5052:5075  uint256 remainingByUser */\n      0x00\n      swap2\n        /* \"Ethereum/Presale.sol\":5078:5124  saleInfor.maxSpendPerBuyer - buyer.baseDeposit */\n      tag_292\n      swap2\n      tag_231\n      jump\t// in\n    tag_292:\n        /* \"Ethereum/Presale.sol\":5192:5205  presaleStatus */\n      0x04\n        /* \"Ethereum/Presale.sol\":5192:5224  presaleStatus.totalBaseCollected */\n      sload\n        /* \"Ethereum/Presale.sol\":5161:5189  saleInfor.amountTokenForSale */\n      sload(0x18)\n        /* \"Ethereum/Presale.sol\":5052:5124  uint256 remainingByUser = saleInfor.maxSpendPerBuyer - buyer.baseDeposit */\n      swap2\n      swap3\n      pop\n        /* \"Ethereum/Presale.sol\":5135:5158  uint256 remainingByPool */\n      0x00\n      swap2\n        /* \"Ethereum/Presale.sol\":5161:5224  saleInfor.amountTokenForSale - presaleStatus.totalBaseCollected */\n      tag_293\n      swap2\n        /* \"Ethereum/Presale.sol\":5192:5224  presaleStatus.totalBaseCollected */\n      swap1\n        /* \"Ethereum/Presale.sol\":5161:5224  saleInfor.amountTokenForSale - presaleStatus.totalBaseCollected */\n      tag_231\n      jump\t// in\n    tag_293:\n        /* \"Ethereum/Presale.sol\":5135:5224  uint256 remainingByPool = saleInfor.amountTokenForSale - presaleStatus.totalBaseCollected */\n      swap1\n      pop\n        /* \"Ethereum/Presale.sol\":5235:5252  uint256 allowance */\n      0x00\n        /* \"Ethereum/Presale.sol\":5273:5288  remainingByPool */\n      dup2\n        /* \"Ethereum/Presale.sol\":5255:5270  remainingByUser */\n      dup4\n        /* \"Ethereum/Presale.sol\":5255:5288  remainingByUser > remainingByPool */\n      gt\n        /* \"Ethereum/Presale.sol\":5255:5324  remainingByUser > remainingByPool ? remainingByPool : remainingByUser */\n      tag_294\n      jumpi\n        /* \"Ethereum/Presale.sol\":5309:5324  remainingByUser */\n      dup3\n        /* \"Ethereum/Presale.sol\":5255:5324  remainingByUser > remainingByPool ? remainingByPool : remainingByUser */\n      jump(tag_295)\n    tag_294:\n        /* \"Ethereum/Presale.sol\":5291:5306  remainingByPool */\n      dup2\n        /* \"Ethereum/Presale.sol\":5255:5324  remainingByUser > remainingByPool ? remainingByPool : remainingByUser */\n    tag_295:\n        /* \"Ethereum/Presale.sol\":5235:5324  uint256 allowance = remainingByUser > remainingByPool ? remainingByPool : remainingByUser */\n      swap1\n      pop\n        /* \"Ethereum/Presale.sol\":5361:5370  allowance */\n      dup1\n        /* \"Ethereum/Presale.sol\":5343:5357  real_amount_in */\n      dup7\n        /* \"Ethereum/Presale.sol\":5343:5370  real_amount_in <= allowance */\n      gt\n      iszero\n        /* \"Ethereum/Presale.sol\":5335:5390  require(real_amount_in <= allowance, \"Sale is success\") */\n      tag_296\n      jumpi\n      mload(0x40)\n      shl(0xe5, 0x461bcd)\n      dup2\n      mstore\n        /* \"#utility.yul\":10630:10632   */\n      0x20\n        /* \"Ethereum/Presale.sol\":5335:5390  require(real_amount_in <= allowance, \"Sale is success\") */\n      0x04\n      dup3\n      add\n        /* \"#utility.yul\":10612:10633   */\n      mstore\n        /* \"#utility.yul\":10669:10671   */\n      0x0f\n        /* \"#utility.yul\":10649:10667   */\n      0x24\n      dup3\n      add\n        /* \"#utility.yul\":10642:10672   */\n      mstore\n      shl(0x88, 0x53616c652069732073756363657373)\n        /* \"#utility.yul\":10688:10706   */\n      0x44\n      dup3\n      add\n        /* \"#utility.yul\":10681:10726   */\n      mstore\n        /* \"#utility.yul\":10743:10761   */\n      0x64\n      add\n        /* \"Ethereum/Presale.sol\":5335:5390  require(real_amount_in <= allowance, \"Sale is success\") */\n      tag_127\n        /* \"#utility.yul\":10602:10767   */\n      jump\n        /* \"Ethereum/Presale.sol\":5335:5390  require(real_amount_in <= allowance, \"Sale is success\") */\n    tag_296:\n        /* \"Ethereum/Presale.sol\":5401:5418  uint256 tokenSold */\n      0x00\n        /* \"Ethereum/Presale.sol\":5422:5580  real_amount_in.\r... */\n      tag_299\n        /* \"Ethereum/Presale.sol\":5547:5556  saleInfor */\n      0x0d\n        /* \"Ethereum/Presale.sol\":5547:5566  saleInfor.baseToken */\n      0x02\n      add\n      0x00\n      swap1\n      sload\n      swap1\n      0x0100\n      exp\n      swap1\n      div\n      sub(shl(0xa0, 0x01), 0x01)\n      and\n      sub(shl(0xa0, 0x01), 0x01)\n        /* \"Ethereum/Presale.sol\":5541:5576  ERC20(saleInfor.baseToken).decimals */\n      and\n      0x313ce567\n        /* \"Ethereum/Presale.sol\":5541:5578  ERC20(saleInfor.baseToken).decimals() */\n      mload(0x40)\n      dup2\n      0xffffffff\n      and\n      0xe0\n      shl\n      dup2\n      mstore\n      0x04\n      add\n      0x20\n      mload(0x40)\n      dup1\n      dup4\n      sub\n      dup2\n      dup7\n      dup1\n      extcodesize\n      iszero\n      dup1\n      iszero\n      tag_300\n      jumpi\n      0x00\n      dup1\n      revert\n    tag_300:\n      pop\n      gas\n      staticcall\n      iszero\n      dup1\n      iszero\n      tag_302\n      jumpi\n      returndatasize\n      0x00\n      dup1\n      returndatacopy\n      revert(0x00, returndatasize)\n    tag_302:\n      pop\n      pop\n      pop\n      pop\n      mload(0x40)\n      returndatasize\n      not(0x1f)\n      0x1f\n      dup3\n      add\n      and\n      dup3\n      add\n      dup1\n      0x40\n      mstore\n      pop\n      dup2\n      add\n      swap1\n      tag_303\n      swap2\n      swap1\n      tag_157\n      jump\t// in\n    tag_303:\n        /* \"Ethereum/Presale.sol\":5527:5579  10 ** uint256(ERC20(saleInfor.baseToken).decimals()) */\n      tag_304\n      swap1\n        /* \"Ethereum/Presale.sol\":5527:5529  10 */\n      0x0a\n        /* \"Ethereum/Presale.sol\":5527:5579  10 ** uint256(ERC20(saleInfor.baseToken).decimals()) */\n      tag_173\n      jump\t// in\n    tag_304:\n        /* \"Ethereum/Presale.sol\":5471:5491  saleInfor.tokenPrice */\n      sload(0x10)\n        /* \"Ethereum/Presale.sol\":5422:5492  real_amount_in.\r... */\n      tag_239\n      swap1\n        /* \"Ethereum/Presale.sol\":5422:5436  real_amount_in */\n      dup11\n      swap1\n        /* \"Ethereum/Presale.sol\":5422:5470  real_amount_in.\r... */\n      tag_219\n        /* \"Ethereum/Presale.sol\":5422:5492  real_amount_in.\r... */\n      jump\t// in\n        /* \"Ethereum/Presale.sol\":5422:5580  real_amount_in.\r... */\n    tag_299:\n        /* \"Ethereum/Presale.sol\":5401:5581  uint256 tokenSold = (real_amount_in.\r... */\n      swap1\n      pop\n        /* \"Ethereum/Presale.sol\":5630:5639  amount_in */\n      dup8\n        /* \"Ethereum/Presale.sol\":5609:5614  buyer */\n      dup10\n        /* \"Ethereum/Presale.sol\":5609:5626  buyer.baseDeposit */\n      0x00\n      add\n      0x00\n        /* \"Ethereum/Presale.sol\":5609:5639  buyer.baseDeposit += amount_in */\n      dup3\n      dup3\n      sload\n      tag_306\n      swap2\n      swap1\n      tag_245\n      jump\t// in\n    tag_306:\n      swap3\n      pop\n      pop\n      dup2\n      swap1\n      sstore\n      pop\n        /* \"Ethereum/Presale.sol\":5670:5679  tokenSold */\n      dup1\n        /* \"Ethereum/Presale.sol\":5650:5655  buyer */\n      dup10\n        /* \"Ethereum/Presale.sol\":5650:5666  buyer.tokenOwner */\n      0x01\n      add\n      0x00\n        /* \"Ethereum/Presale.sol\":5650:5679  buyer.tokenOwner += tokenSold */\n      dup3\n      dup3\n      sload\n      tag_307\n      swap2\n      swap1\n      tag_245\n      jump\t// in\n    tag_307:\n      swap1\n      swap2\n      sstore\n      pop\n      pop\n        /* \"Ethereum/Presale.sol\":5690:5703  presaleStatus */\n      0x04\n        /* \"Ethereum/Presale.sol\":5690:5740  presaleStatus.totalBaseCollected += real_amount_in */\n      dup1\n      sload\n        /* \"Ethereum/Presale.sol\":5726:5740  real_amount_in */\n      dup9\n      swap2\n        /* \"Ethereum/Presale.sol\":5690:5703  presaleStatus */\n      swap1\n        /* \"Ethereum/Presale.sol\":5690:5722  presaleStatus.totalBaseCollected */\n      0x00\n      swap1\n        /* \"Ethereum/Presale.sol\":5690:5740  presaleStatus.totalBaseCollected += real_amount_in */\n      tag_308\n      swap1\n        /* \"Ethereum/Presale.sol\":5726:5740  real_amount_in */\n      dup5\n      swap1\n        /* \"Ethereum/Presale.sol\":5690:5740  presaleStatus.totalBaseCollected += real_amount_in */\n      tag_245\n      jump\t// in\n    tag_308:\n      swap1\n      swap2\n      sstore\n      pop\n      pop\n        /* \"Ethereum/Presale.sol\":5751:5779  presaleStatus.totalTokenSold */\n      0x05\n        /* \"Ethereum/Presale.sol\":5751:5792  presaleStatus.totalTokenSold += tokenSold */\n      dup1\n      sload\n        /* \"Ethereum/Presale.sol\":5783:5792  tokenSold */\n      dup3\n      swap2\n        /* \"Ethereum/Presale.sol\":5751:5779  presaleStatus.totalTokenSold */\n      swap1\n      0x00\n      swap1\n        /* \"Ethereum/Presale.sol\":5751:5792  presaleStatus.totalTokenSold += tokenSold */\n      tag_309\n      swap1\n        /* \"Ethereum/Presale.sol\":5783:5792  tokenSold */\n      dup5\n      swap1\n        /* \"Ethereum/Presale.sol\":5751:5792  presaleStatus.totalTokenSold += tokenSold */\n      tag_245\n      jump\t// in\n    tag_309:\n      swap1\n      swap2\n      sstore\n      pop\n      pop\n        /* \"Ethereum/Presale.sol\":5803:5828  presaleStatus.numberBuyer */\n      0x08\n        /* \"Ethereum/Presale.sol\":5803:5830  presaleStatus.numberBuyer++ */\n      dup1\n      sload\n      swap1\n        /* \"Ethereum/Presale.sol\":5803:5828  presaleStatus.numberBuyer */\n      0x00\n        /* \"Ethereum/Presale.sol\":5803:5830  presaleStatus.numberBuyer++ */\n      tag_310\n      dup4\n      tag_311\n      jump\t// in\n    tag_310:\n      swap1\n      swap2\n      sstore\n      pop\n      pop\n        /* \"Ethereum/Presale.sol\":5849:5859  msg.sender */\n      caller\n        /* \"Ethereum/Presale.sol\":5841:5860  userFee[msg.sender] */\n      0x00\n      swap1\n      dup2\n      mstore\n        /* \"Ethereum/Presale.sol\":5841:5848  userFee */\n      0x03\n        /* \"Ethereum/Presale.sol\":5841:5860  userFee[msg.sender] */\n      0x20\n      mstore\n      0x40\n      dup2\n      keccak256\n        /* \"Ethereum/Presale.sol\":5841:5867  userFee[msg.sender] += fee */\n      dup1\n      sload\n        /* \"Ethereum/Presale.sol\":5864:5867  fee */\n      dup9\n      swap3\n        /* \"Ethereum/Presale.sol\":5841:5860  userFee[msg.sender] */\n      swap1\n        /* \"Ethereum/Presale.sol\":5841:5867  userFee[msg.sender] += fee */\n      tag_312\n      swap1\n        /* \"Ethereum/Presale.sol\":5864:5867  fee */\n      dup5\n      swap1\n        /* \"Ethereum/Presale.sol\":5841:5867  userFee[msg.sender] += fee */\n      tag_245\n      jump\t// in\n    tag_312:\n      swap3\n      pop\n      pop\n      dup2\n      swap1\n      sstore\n      pop\n        /* \"Ethereum/Presale.sol\":5890:5893  fee */\n      dup6\n        /* \"Ethereum/Presale.sol\":5878:5886  totalFee */\n      0x1d\n      0x00\n        /* \"Ethereum/Presale.sol\":5878:5893  totalFee += fee */\n      dup3\n      dup3\n      sload\n      tag_313\n      swap2\n      swap1\n      tag_245\n      jump\t// in\n    tag_313:\n      swap1\n      swap2\n      sstore\n      pop\n      pop\n        /* \"Ethereum/Presale.sol\":5909:5934  saleInfor.saleIsBaseToken */\n      and(0xff, sload(0x17))\n        /* \"Ethereum/Presale.sol\":5909:5971  saleInfor.saleIsBaseToken && real_amount_in + fee <= msg.value */\n      dup1\n      iszero\n      tag_314\n      jumpi\n      pop\n        /* \"Ethereum/Presale.sol\":5962:5971  msg.value */\n      callvalue\n        /* \"Ethereum/Presale.sol\":5938:5958  real_amount_in + fee */\n      tag_315\n        /* \"Ethereum/Presale.sol\":5955:5958  fee */\n      dup8\n        /* \"Ethereum/Presale.sol\":5938:5952  real_amount_in */\n      dup10\n        /* \"Ethereum/Presale.sol\":5938:5958  real_amount_in + fee */\n      tag_245\n      jump\t// in\n    tag_315:\n        /* \"Ethereum/Presale.sol\":5938:5971  real_amount_in + fee <= msg.value */\n      gt\n      iszero\n        /* \"Ethereum/Presale.sol\":5909:5971  saleInfor.saleIsBaseToken && real_amount_in + fee <= msg.value */\n    tag_314:\n        /* \"Ethereum/Presale.sol\":5906:6062  if(saleInfor.saleIsBaseToken && real_amount_in + fee <= msg.value) {\r... */\n      iszero\n      tag_316\n      jumpi\n        /* \"Ethereum/Presale.sol\":5996:6006  msg.sender */\n      caller\n        /* \"Ethereum/Presale.sol\":5988:6050  payable(msg.sender).transfer(msg.value - real_amount_in - fee) */\n      0x08fc\n        /* \"Ethereum/Presale.sol\":6046:6049  fee */\n      dup8\n        /* \"Ethereum/Presale.sol\":6017:6043  msg.value - real_amount_in */\n      tag_317\n        /* \"Ethereum/Presale.sol\":6029:6043  real_amount_in */\n      dup11\n        /* \"Ethereum/Presale.sol\":6017:6026  msg.value */\n      callvalue\n        /* \"Ethereum/Presale.sol\":6017:6043  msg.value - real_amount_in */\n      tag_231\n      jump\t// in\n    tag_317:\n        /* \"Ethereum/Presale.sol\":6017:6049  msg.value - real_amount_in - fee */\n      tag_318\n      swap2\n      swap1\n      tag_231\n      jump\t// in\n    tag_318:\n        /* \"Ethereum/Presale.sol\":5988:6050  payable(msg.sender).transfer(msg.value - real_amount_in - fee) */\n      mload(0x40)\n      dup2\n      iszero\n      swap1\n      swap3\n      mul\n      swap2\n      0x00\n      dup2\n      dup2\n      dup2\n      dup6\n      dup9\n      dup9\n      call\n      swap4\n      pop\n      pop\n      pop\n      pop\n      iszero\n      dup1\n      iszero\n      tag_320\n      jumpi\n      returndatasize\n      0x00\n      dup1\n      returndatacopy\n      revert(0x00, returndatasize)\n    tag_320:\n      pop\n        /* \"Ethereum/Presale.sol\":5906:6062  if(saleInfor.saleIsBaseToken && real_amount_in + fee <= msg.value) {\r... */\n    tag_316:\n        /* \"Ethereum/Presale.sol\":6077:6102  saleInfor.saleIsBaseToken */\n      and(0xff, sload(0x17))\n        /* \"Ethereum/Presale.sol\":6073:6324  if(!saleInfor.saleIsBaseToken) {\r... */\n      tag_322\n      jumpi\n        /* \"Ethereum/Presale.sol\":6177:6196  saleInfor.baseToken */\n      sload(0x0f)\n        /* \"Ethereum/Presale.sol\":6119:6312  TransferHelper.safeTransferFrom(\r... */\n      tag_322\n      swap1\n      sub(shl(0xa0, 0x01), 0x01)\n        /* \"Ethereum/Presale.sol\":6177:6196  saleInfor.baseToken */\n      and\n        /* \"Ethereum/Presale.sol\":6216:6226  msg.sender */\n      caller\n        /* \"Ethereum/Presale.sol\":6253:6257  this */\n      address\n        /* \"Ethereum/Presale.sol\":6277:6297  real_amount_in + fee */\n      tag_323\n        /* \"Ethereum/Presale.sol\":6294:6297  fee */\n      dup11\n        /* \"Ethereum/Presale.sol\":6277:6291  real_amount_in */\n      dup13\n        /* \"Ethereum/Presale.sol\":6277:6297  real_amount_in + fee */\n      tag_245\n      jump\t// in\n    tag_323:\n        /* \"Ethereum/Presale.sol\":6119:6150  TransferHelper.safeTransferFrom */\n      tag_324\n        /* \"Ethereum/Presale.sol\":6119:6312  TransferHelper.safeTransferFrom(\r... */\n      jump\t// in\n    tag_322:\n      pop\n      pop\n        /* \"Utils/ReentrancyGuard.sol\":1734:1735  1 */\n      0x01\n        /* \"Utils/ReentrancyGuard.sol\":2688:2695  _status */\n      0x00\n        /* \"Utils/ReentrancyGuard.sol\":2688:2710  _status = _NOT_ENTERED */\n      sstore\n      pop\n      pop\n      pop\n      pop\n      pop\n      pop\n      pop\n      pop\n        /* \"Ethereum/Presale.sol\":4136:6343  function deposit(uint256 _amount) external payable nonReentrant {\r... */\n      jump\t// out\n        /* \"Ethereum/Presale.sol\":4018:4128  function checkAdminAddress() public view returns(bool) {\r... */\n    tag_95:\n        /* \"Ethereum/Presale.sol\":4067:4071  bool */\n      0x00\n        /* \"Ethereum/Presale.sol\":4091:4120  admins.contains(_msgSender()) */\n      tag_326\n        /* \"Ethereum/Presale.sol\":4091:4097  admins */\n      0x1b\n        /* \"Utils/Context.sol\":736:746  msg.sender */\n      caller\n        /* \"Ethereum/Presale.sol\":4091:4106  admins.contains */\n      tag_328\n        /* \"Ethereum/Presale.sol\":4091:4120  admins.contains(_msgSender()) */\n      jump\t// in\n    tag_326:\n        /* \"Ethereum/Presale.sol\":4084:4120  return admins.contains(_msgSender()) */\n      swap1\n      pop\n        /* \"Ethereum/Presale.sol\":4018:4128  function checkAdminAddress() public view returns(bool) {\r... */\n      swap1\n      jump\t// out\n        /* \"Ethereum/Presale.sol\":8869:9598  function userClaimWhenSaleSuccess() external {\r... */\n    tag_100:\n        /* \"Ethereum/Presale.sol\":9025:9057  presaleStatus.totalTokenWithDraw */\n      sload(0x06)\n        /* \"Ethereum/Presale.sol\":8994:9022  presaleStatus.totalTokenSold */\n      sload(0x05)\n        /* \"Ethereum/Presale.sol\":9060:9061  0 */\n      0x00\n      swap2\n        /* \"Ethereum/Presale.sol\":8994:9057  presaleStatus.totalTokenSold - presaleStatus.totalTokenWithDraw */\n      tag_330\n      swap2\n      tag_231\n      jump\t// in\n    tag_330:\n        /* \"Ethereum/Presale.sol\":8994:9061  presaleStatus.totalTokenSold - presaleStatus.totalTokenWithDraw > 0 */\n      gt\n        /* \"Ethereum/Presale.sol\":8986:9120  require(presaleStatus.totalTokenSold - presaleStatus.totalTokenWithDraw > 0, \r... */\n      tag_331\n      jumpi\n      mload(0x40)\n      shl(0xe5, 0x461bcd)\n      dup2\n      mstore\n      0x04\n      add\n      tag_127\n      swap1\n      tag_234\n      jump\t// in\n    tag_331:\n        /* \"Ethereum/Presale.sol\":9167:9177  msg.sender */\n      caller\n        /* \"Ethereum/Presale.sol\":9131:9154  BuyerInfo storage buyer */\n      0x00\n        /* \"Ethereum/Presale.sol\":9157:9178  buyerInfo[msg.sender] */\n      swap1\n      dup2\n      mstore\n        /* \"Ethereum/Presale.sol\":9157:9166  buyerInfo */\n      0x02\n        /* \"Ethereum/Presale.sol\":9157:9178  buyerInfo[msg.sender] */\n      0x20\n      mstore\n      0x40\n      swap1\n      keccak256\n        /* \"Ethereum/Presale.sol\":9216:9240  buyer.totalTokenWithDraw */\n      0x03\n      dup2\n      add\n      sload\n        /* \"Ethereum/Presale.sol\":9197:9213  buyer.tokenOwner */\n      0x01\n      dup3\n      add\n      sload\n        /* \"Ethereum/Presale.sol\":9197:9240  buyer.tokenOwner > buyer.totalTokenWithDraw */\n      gt\n        /* \"Ethereum/Presale.sol\":9189:9281  require(buyer.tokenOwner > buyer.totalTokenWithDraw, \"You claim all or have not bought yet\") */\n      tag_333\n      jumpi\n      mload(0x40)\n      shl(0xe5, 0x461bcd)\n      dup2\n      mstore\n      0x04\n      add\n      tag_127\n      swap1\n      tag_261\n      jump\t// in\n    tag_333:\n        /* \"Ethereum/Presale.sol\":9328:9344  buyer.tokenOwner */\n      0x01\n      dup2\n      add\n      sload\n        /* \"Ethereum/Presale.sol\":9292:9324  presaleStatus.totalTokenWithDraw */\n      0x06\n        /* \"Ethereum/Presale.sol\":9292:9344  presaleStatus.totalTokenWithDraw += buyer.tokenOwner */\n      dup1\n      sload\n        /* \"Ethereum/Presale.sol\":9292:9324  presaleStatus.totalTokenWithDraw */\n      0x00\n      swap1\n        /* \"Ethereum/Presale.sol\":9292:9344  presaleStatus.totalTokenWithDraw += buyer.tokenOwner */\n      tag_335\n      swap1\n        /* \"Ethereum/Presale.sol\":9328:9344  buyer.tokenOwner */\n      dup5\n      swap1\n        /* \"Ethereum/Presale.sol\":9292:9344  presaleStatus.totalTokenWithDraw += buyer.tokenOwner */\n      tag_245\n      jump\t// in\n    tag_335:\n      swap1\n      swap2\n      sstore\n      pop\n      pop\n        /* \"Ethereum/Presale.sol\":9387:9403  buyer.tokenOwner */\n      0x01\n      dup2\n      add\n      sload\n        /* \"Ethereum/Presale.sol\":9355:9383  saleInfor.amountTokenForSale */\n      0x18\n        /* \"Ethereum/Presale.sol\":9355:9403  saleInfor.amountTokenForSale -= buyer.tokenOwner */\n      dup1\n      sload\n        /* \"Ethereum/Presale.sol\":9355:9383  saleInfor.amountTokenForSale */\n      0x00\n      swap1\n        /* \"Ethereum/Presale.sol\":9355:9403  saleInfor.amountTokenForSale -= buyer.tokenOwner */\n      tag_336\n      swap1\n        /* \"Ethereum/Presale.sol\":9387:9403  buyer.tokenOwner */\n      dup5\n      swap1\n        /* \"Ethereum/Presale.sol\":9355:9403  saleInfor.amountTokenForSale -= buyer.tokenOwner */\n      tag_231\n      jump\t// in\n    tag_336:\n      swap1\n      swap2\n      sstore\n      pop\n      pop\n        /* \"Ethereum/Presale.sol\":9435:9436  0 */\n      0x00\n        /* \"Ethereum/Presale.sol\":9414:9436  buyer.baseDeposit  = 0 */\n      dup1\n      dup3\n      sstore\n        /* \"Ethereum/Presale.sol\":9447:9463  buyer.tokenOwner */\n      0x01\n      dup3\n      add\n        /* \"Ethereum/Presale.sol\":9447:9467  buyer.tokenOwner = 0 */\n      dup2\n      swap1\n      sstore\n        /* \"Ethereum/Presale.sol\":9499:9514  block.timestamp */\n      timestamp\n        /* \"Ethereum/Presale.sol\":9478:9496  buyer.lastWithDraw */\n      0x02\n      dup4\n      add\n        /* \"Ethereum/Presale.sol\":9478:9514  buyer.lastWithDraw = block.timestamp */\n      sstore\n        /* \"Ethereum/Presale.sol\":9531:9550  saleInfor.saleToken */\n      sload(0x0e)\n        /* \"Ethereum/Presale.sol\":9525:9590  ERC20(saleInfor.saleToken).transfer(msg.sender, buyer.tokenOwner) */\n      mload(0x40)\n      shl(0xe0, 0xa9059cbb)\n      dup2\n      mstore\n        /* \"Ethereum/Presale.sol\":9561:9571  msg.sender */\n      caller\n        /* \"Ethereum/Presale.sol\":9525:9590  ERC20(saleInfor.saleToken).transfer(msg.sender, buyer.tokenOwner) */\n      0x04\n      dup3\n      add\n        /* \"#utility.yul\":4102:4153   */\n      mstore\n        /* \"#utility.yul\":4169:4187   */\n      0x24\n      dup2\n      add\n        /* \"#utility.yul\":4162:4196   */\n      swap3\n      swap1\n      swap3\n      mstore\n      sub(shl(0xa0, 0x01), 0x01)\n        /* \"Ethereum/Presale.sol\":9531:9550  saleInfor.saleToken */\n      and\n      swap1\n        /* \"Ethereum/Presale.sol\":9525:9560  ERC20(saleInfor.saleToken).transfer */\n      0xa9059cbb\n      swap1\n        /* \"#utility.yul\":4075:4093   */\n      0x44\n      add\n        /* \"Ethereum/Presale.sol\":9525:9590  ERC20(saleInfor.saleToken).transfer(msg.sender, buyer.tokenOwner) */\n      0x20\n      mload(0x40)\n      dup1\n      dup4\n      sub\n      dup2\n      0x00\n      dup8\n      dup1\n      extcodesize\n      iszero\n      dup1\n      iszero\n      tag_338\n      jumpi\n      0x00\n      dup1\n      revert\n    tag_338:\n      pop\n      gas\n      call\n      iszero\n      dup1\n      iszero\n      tag_340\n      jumpi\n      returndatasize\n      0x00\n      dup1\n      returndatacopy\n      revert(0x00, returndatasize)\n    tag_340:\n      pop\n      pop\n      pop\n      pop\n      mload(0x40)\n      returndatasize\n      not(0x1f)\n      0x1f\n      dup3\n      add\n      and\n      dup3\n      add\n      dup1\n      0x40\n      mstore\n      pop\n      dup2\n      add\n      swap1\n      tag_341\n      swap2\n      swap1\n      tag_164\n      jump\t// in\n    tag_341:\n      pop\n        /* \"Ethereum/Presale.sol\":8914:9598  {\r... */\n      pop\n        /* \"Ethereum/Presale.sol\":8869:9598  function userClaimWhenSaleSuccess() external {\r... */\n      jump\t// out\n        /* \"Utils/Ownable.sol\":1972:2173  function transferOwnership(address newOwner) public virtual onlyOwner {\r... */\n    tag_110:\n        /* \"Utils/Ownable.sol\":1136:1142  _owner */\n      and(sub(shl(0xa0, 0x01), 0x01), sload(0x01))\n        /* \"Utils/Context.sol\":736:746  msg.sender */\n      caller\n        /* \"Utils/Ownable.sol\":1283:1306  owner() == _msgSender() */\n      eq\n        /* \"Utils/Ownable.sol\":1275:1343  require(owner() == _msgSender(), \"Ownable: caller is not the owner\") */\n      tag_345\n      jumpi\n      mload(0x40)\n      shl(0xe5, 0x461bcd)\n      dup2\n      mstore\n        /* \"#utility.yul\":9146:9148   */\n      0x20\n        /* \"Utils/Ownable.sol\":1275:1343  require(owner() == _msgSender(), \"Ownable: caller is not the owner\") */\n      0x04\n      dup3\n      add\n        /* \"#utility.yul\":9128:9149   */\n      dup2\n      swap1\n      mstore\n        /* \"#utility.yul\":9165:9183   */\n      0x24\n      dup3\n      add\n        /* \"#utility.yul\":9158:9188   */\n      mstore\n        /* \"#utility.yul\":9224:9258   */\n      0x4f776e61626c653a2063616c6c6572206973206e6f7420746865206f776e6572\n        /* \"#utility.yul\":9204:9222   */\n      0x44\n      dup3\n      add\n        /* \"#utility.yul\":9197:9259   */\n      mstore\n        /* \"#utility.yul\":9276:9294   */\n      0x64\n      add\n        /* \"Utils/Ownable.sol\":1275:1343  require(owner() == _msgSender(), \"Ownable: caller is not the owner\") */\n      tag_127\n        /* \"#utility.yul\":9118:9300   */\n      jump\n        /* \"Utils/Ownable.sol\":1275:1343  require(owner() == _msgSender(), \"Ownable: caller is not the owner\") */\n    tag_345:\n      sub(shl(0xa0, 0x01), 0x01)\n        /* \"Utils/Ownable.sol\":2061:2083  newOwner != address(0) */\n      dup2\n      and\n        /* \"Utils/Ownable.sol\":2053:2126  require(newOwner != address(0), \"Ownable: new owner is the zero address\") */\n      tag_348\n      jumpi\n      mload(0x40)\n      shl(0xe5, 0x461bcd)\n      dup2\n      mstore\n        /* \"#utility.yul\":6193:6195   */\n      0x20\n        /* \"Utils/Ownable.sol\":2053:2126  require(newOwner != address(0), \"Ownable: new owner is the zero address\") */\n      0x04\n      dup3\n      add\n        /* \"#utility.yul\":6175:6196   */\n      mstore\n        /* \"#utility.yul\":6232:6234   */\n      0x26\n        /* \"#utility.yul\":6212:6230   */\n      0x24\n      dup3\n      add\n        /* \"#utility.yul\":6205:6235   */\n      mstore\n        /* \"#utility.yul\":6271:6305   */\n      0x4f776e61626c653a206e6577206f776e657220697320746865207a65726f2061\n        /* \"#utility.yul\":6251:6269   */\n      0x44\n      dup3\n      add\n        /* \"#utility.yul\":6244:6306   */\n      mstore\n      shl(0xd0, 0x646472657373)\n        /* \"#utility.yul\":6322:6340   */\n      0x64\n      dup3\n      add\n        /* \"#utility.yul\":6315:6351   */\n      mstore\n        /* \"#utility.yul\":6368:6387   */\n      0x84\n      add\n        /* \"Utils/Ownable.sol\":2053:2126  require(newOwner != address(0), \"Ownable: new owner is the zero address\") */\n      tag_127\n        /* \"#utility.yul\":6165:6393   */\n      jump\n        /* \"Utils/Ownable.sol\":2053:2126  require(newOwner != address(0), \"Ownable: new owner is the zero address\") */\n    tag_348:\n        /* \"Utils/Ownable.sol\":2137:2165  _transferOwnership(newOwner) */\n      tag_134\n        /* \"Utils/Ownable.sol\":2156:2164  newOwner */\n      dup2\n        /* \"Utils/Ownable.sol\":2137:2155  _transferOwnership */\n      tag_131\n        /* \"Utils/Ownable.sol\":2137:2165  _transferOwnership(newOwner) */\n      jump\t// in\n        /* \"Utils/EnumerableSet.sol\":8259:8411  function add(AddressSet storage set, address value) internal returns (bool) {\r... */\n    tag_116:\n        /* \"Utils/EnumerableSet.sol\":8329:8333  bool */\n      0x00\n        /* \"Utils/EnumerableSet.sol\":8353:8403  _add(set._inner, bytes32(uint256(uint160(value)))) */\n      tag_354\n        /* \"Utils/EnumerableSet.sol\":8358:8361  set */\n      dup4\n      sub(shl(0xa0, 0x01), 0x01)\n        /* \"Utils/EnumerableSet.sol\":8378:8401  uint256(uint160(value)) */\n      dup5\n      and\n        /* \"Utils/EnumerableSet.sol\":8353:8357  _add */\n      tag_355\n        /* \"Utils/EnumerableSet.sol\":8353:8403  _add(set._inner, bytes32(uint256(uint160(value)))) */\n      jump\t// in\n    tag_354:\n        /* \"Utils/EnumerableSet.sol\":8346:8403  return _add(set._inner, bytes32(uint256(uint160(value)))) */\n      swap1\n      pop\n        /* \"Utils/EnumerableSet.sol\":8259:8411  function add(AddressSet storage set, address value) internal returns (bool) {\r... */\n    tag_353:\n      swap3\n      swap2\n      pop\n      pop\n      jump\t// out\n        /* \"Utils/Ownable.sol\":2333:2524  function _transferOwnership(address newOwner) internal virtual {\r... */\n    tag_131:\n        /* \"Utils/Ownable.sol\":2426:2432  _owner */\n      0x01\n      dup1\n      sload\n      sub(shl(0xa0, 0x01), 0x01)\n        /* \"Utils/Ownable.sol\":2443:2460  _owner = newOwner */\n      dup4\n      dup2\n      and\n      not(sub(shl(0xa0, 0x01), 0x01))\n      dup4\n      and\n      dup2\n      or\n      swap1\n      swap4\n      sstore\n        /* \"Utils/Ownable.sol\":2476:2516  OwnershipTransferred(oldOwner, newOwner) */\n      mload(0x40)\n        /* \"Utils/Ownable.sol\":2426:2432  _owner */\n      swap2\n      and\n      swap2\n        /* \"Utils/Ownable.sol\":2443:2460  _owner = newOwner */\n      swap1\n        /* \"Utils/Ownable.sol\":2426:2432  _owner */\n      dup3\n      swap1\n        /* \"Utils/Ownable.sol\":2476:2516  OwnershipTransferred(oldOwner, newOwner) */\n      0x8be0079c531659141344cd1fd0a4f28419497f9722a3daafe3b4186f6b6457e0\n      swap1\n        /* \"Utils/Ownable.sol\":2407:2423  address oldOwner */\n      0x00\n      swap1\n        /* \"Utils/Ownable.sol\":2476:2516  OwnershipTransferred(oldOwner, newOwner) */\n      log3\n        /* \"Utils/Ownable.sol\":2396:2524  {\r... */\n      pop\n        /* \"Utils/Ownable.sol\":2333:2524  function _transferOwnership(address newOwner) internal virtual {\r... */\n      pop\n      jump\t// out\n        /* \"Utils/SafeMath.sol\":3585:3683  function mul(uint256 a, uint256 b) internal pure returns (uint256) {\r... */\n    tag_219:\n        /* \"Utils/SafeMath.sol\":3643:3650  uint256 */\n      0x00\n        /* \"Utils/SafeMath.sol\":3670:3675  a * b */\n      tag_354\n        /* \"Utils/SafeMath.sol\":3674:3675  b */\n      dup3\n        /* \"Utils/SafeMath.sol\":3670:3671  a */\n      dup5\n        /* \"Utils/SafeMath.sol\":3670:3675  a * b */\n      tag_178\n      jump\t// in\n        /* \"Utils/SafeMath.sol\":3228:3326  function sub(uint256 a, uint256 b) internal pure returns (uint256) {\r... */\n    tag_241:\n        /* \"Utils/SafeMath.sol\":3286:3293  uint256 */\n      0x00\n        /* \"Utils/SafeMath.sol\":3313:3318  a - b */\n      tag_354\n        /* \"Utils/SafeMath.sol\":3317:3318  b */\n      dup3\n        /* \"Utils/SafeMath.sol\":3313:3314  a */\n      dup5\n        /* \"Utils/SafeMath.sol\":3313:3318  a - b */\n      tag_231\n      jump\t// in\n        /* \"Utils/SafeMath.sol\":3984:4082  function div(uint256 a, uint256 b) internal pure returns (uint256) {\r... */\n    tag_242:\n        /* \"Utils/SafeMath.sol\":4042:4049  uint256 */\n      0x00\n        /* \"Utils/SafeMath.sol\":4069:4074  a / b */\n      tag_354\n        /* \"Utils/SafeMath.sol\":4073:4074  b */\n      dup3\n        /* \"Utils/SafeMath.sol\":4069:4070  a */\n      dup5\n        /* \"Utils/SafeMath.sol\":4069:4074  a / b */\n      tag_221\n      jump\t// in\n        /* \"Utils/TransferHelper.sol\":1073:1503  function safeTransferFrom(\r... */\n    tag_324:\n        /* \"Utils/TransferHelper.sol\":1279:1330  abi.encodeWithSelector(0x23b872dd, from, to, value) */\n      0x40\n      dup1\n      mload\n      sub(shl(0xa0, 0x01), 0x01)\n        /* \"#utility.yul\":4465:4480   */\n      dup6\n      dup2\n      and\n        /* \"Utils/TransferHelper.sol\":1279:1330  abi.encodeWithSelector(0x23b872dd, from, to, value) */\n      0x24\n      dup4\n      add\n        /* \"#utility.yul\":4447:4481   */\n      mstore\n        /* \"#utility.yul\":4517:4532   */\n      dup5\n      dup2\n      and\n        /* \"#utility.yul\":4497:4515   */\n      0x44\n      dup4\n      add\n        /* \"#utility.yul\":4490:4533   */\n      mstore\n        /* \"#utility.yul\":4549:4567   */\n      0x64\n      dup1\n      dup4\n      add\n        /* \"#utility.yul\":4542:4576   */\n      dup6\n      swap1\n      mstore\n        /* \"Utils/TransferHelper.sol\":1279:1330  abi.encodeWithSelector(0x23b872dd, from, to, value) */\n      dup4\n      mload\n      dup1\n      dup5\n      sub\n      swap1\n      swap2\n      add\n      dup2\n      mstore\n        /* \"#utility.yul\":4382:4400   */\n      0x84\n      swap1\n      swap3\n      add\n        /* \"Utils/TransferHelper.sol\":1279:1330  abi.encodeWithSelector(0x23b872dd, from, to, value) */\n      dup4\n      mstore\n      0x20\n      dup3\n      add\n      dup1\n      mload\n      sub(shl(0xe0, 0x01), 0x01)\n      and\n      shl(0xe0, 0x23b872dd)\n      or\n      swap1\n      mstore\n        /* \"Utils/TransferHelper.sol\":1254:1341  token.call(\r... */\n      swap2\n      mload\n      0x00\n      swap3\n      dup4\n      swap3\n        /* \"Utils/TransferHelper.sol\":1254:1264  token.call */\n      swap1\n      dup9\n      and\n      swap2\n        /* \"Utils/TransferHelper.sol\":1254:1341  token.call(\r... */\n      tag_367\n      swap2\n        /* \"Utils/TransferHelper.sol\":1279:1330  abi.encodeWithSelector(0x23b872dd, from, to, value) */\n      swap1\n        /* \"Utils/TransferHelper.sol\":1254:1341  token.call(\r... */\n      tag_368\n      jump\t// in\n    tag_367:\n      0x00\n      mload(0x40)\n      dup1\n      dup4\n      sub\n      dup2\n      0x00\n      dup7\n      gas\n      call\n      swap2\n      pop\n      pop\n      returndatasize\n      dup1\n      0x00\n      dup2\n      eq\n      tag_371\n      jumpi\n      mload(0x40)\n      swap2\n      pop\n      and(add(returndatasize, 0x3f), not(0x1f))\n      dup3\n      add\n      0x40\n      mstore\n      returndatasize\n      dup3\n      mstore\n      returndatasize\n      0x00\n      0x20\n      dup5\n      add\n      returndatacopy\n      jump(tag_370)\n    tag_371:\n      0x60\n      swap2\n      pop\n    tag_370:\n      pop\n        /* \"Utils/TransferHelper.sol\":1218:1341  (bool success, bytes memory data) = token.call(\r... */\n      swap2\n      pop\n      swap2\n      pop\n        /* \"Utils/TransferHelper.sol\":1374:1381  success */\n      dup2\n        /* \"Utils/TransferHelper.sol\":1374:1431  success && (data.length == 0 || abi.decode(data, (bool))) */\n      dup1\n      iszero\n      tag_374\n      jumpi\n      pop\n        /* \"Utils/TransferHelper.sol\":1386:1397  data.length */\n      dup1\n      mload\n        /* \"Utils/TransferHelper.sol\":1386:1402  data.length == 0 */\n      iszero\n      dup1\n        /* \"Utils/TransferHelper.sol\":1386:1430  data.length == 0 || abi.decode(data, (bool)) */\n      tag_374\n      jumpi\n      pop\n        /* \"Utils/TransferHelper.sol\":1417:1421  data */\n      dup1\n        /* \"Utils/TransferHelper.sol\":1406:1430  abi.decode(data, (bool)) */\n      dup1\n      0x20\n      add\n      swap1\n      mload\n      dup2\n      add\n      swap1\n      tag_374\n      swap2\n      swap1\n      tag_164\n      jump\t// in\n    tag_374:\n        /* \"Utils/TransferHelper.sol\":1352:1495  require(\r... */\n      tag_375\n      jumpi\n      mload(0x40)\n      shl(0xe5, 0x461bcd)\n      dup2\n      mstore\n        /* \"#utility.yul\":9507:9509   */\n      0x20\n        /* \"Utils/TransferHelper.sol\":1352:1495  require(\r... */\n      0x04\n      dup3\n      add\n        /* \"#utility.yul\":9489:9510   */\n      mstore\n        /* \"#utility.yul\":9546:9548   */\n      0x24\n        /* \"#utility.yul\":9526:9544   */\n      dup1\n      dup3\n      add\n        /* \"#utility.yul\":9519:9549   */\n      mstore\n        /* \"#utility.yul\":9585:9619   */\n      0x5472616e7366657248656c7065723a205452414e534645525f46524f4d5f4641\n        /* \"#utility.yul\":9565:9583   */\n      0x44\n      dup3\n      add\n        /* \"#utility.yul\":9558:9620   */\n      mstore\n      shl(0xe2, 0x12531151)\n        /* \"#utility.yul\":9636:9654   */\n      0x64\n      dup3\n      add\n        /* \"#utility.yul\":9629:9663   */\n      mstore\n        /* \"#utility.yul\":9680:9699   */\n      0x84\n      add\n        /* \"Utils/TransferHelper.sol\":1352:1495  require(\r... */\n      tag_127\n        /* \"#utility.yul\":9479:9705   */\n      jump\n        /* \"Utils/TransferHelper.sol\":1352:1495  require(\r... */\n    tag_375:\n        /* \"Utils/TransferHelper.sol\":1207:1503  {\r... */\n      pop\n      pop\n        /* \"Utils/TransferHelper.sol\":1073:1503  function safeTransferFrom(\r... */\n      pop\n      pop\n      pop\n      pop\n      jump\t// out\n        /* \"Utils/EnumerableSet.sol\":8831:8998  function contains(AddressSet storage set, address value) internal view returns (bool) {\r... */\n    tag_328:\n      sub(shl(0xa0, 0x01), 0x01)\n        /* \"Utils/EnumerableSet.sol\":8965:8988  uint256(uint160(value)) */\n      dup2\n      and\n        /* \"Utils/EnumerableSet.sol\":8911:8915  bool */\n      0x00\n        /* \"Utils/EnumerableSet.sol\":4367:4386  set._indexes[value] */\n      swap1\n      dup2\n      mstore\n        /* \"Utils/EnumerableSet.sol\":4367:4379  set._indexes */\n      0x01\n      dup4\n      add\n        /* \"Utils/EnumerableSet.sol\":4367:4386  set._indexes[value] */\n      0x20\n      mstore\n      0x40\n      dup2\n      keccak256\n      sload\n        /* \"Utils/EnumerableSet.sol\":4367:4391  set._indexes[value] != 0 */\n      iszero\n      iszero\n        /* \"Utils/EnumerableSet.sol\":8935:8990  _contains(set._inner, bytes32(uint256(uint160(value)))) */\n      tag_354\n        /* \"Utils/EnumerableSet.sol\":4270:4399  function _contains(Set storage set, bytes32 value) private view returns (bool) {\r... */\n      jump\n        /* \"Utils/EnumerableSet.sol\":2174:2588  function _add(Set storage set, bytes32 value) private returns (bool) {\r... */\n    tag_355:\n        /* \"Utils/EnumerableSet.sol\":2237:2241  bool */\n      0x00\n        /* \"Utils/EnumerableSet.sol\":4367:4386  set._indexes[value] */\n      dup2\n      dup2\n      mstore\n        /* \"Utils/EnumerableSet.sol\":4367:4379  set._indexes */\n      0x01\n      dup4\n      add\n        /* \"Utils/EnumerableSet.sol\":4367:4386  set._indexes[value] */\n      0x20\n      mstore\n      0x40\n      dup2\n      keccak256\n      sload\n        /* \"Utils/EnumerableSet.sol\":2254:2581  if (!_contains(set, value)) {\r... */\n      tag_383\n      jumpi\n      pop\n        /* \"Utils/EnumerableSet.sol\":2297:2320  set._values.push(value) */\n      dup2\n      sload\n      0x01\n      dup2\n      dup2\n      add\n      dup5\n      sstore\n        /* \"Utils/EnumerableSet.sol\":2297:2308  set._values */\n      0x00\n        /* \"Utils/EnumerableSet.sol\":2297:2320  set._values.push(value) */\n      dup5\n      dup2\n      mstore\n      0x20\n      dup1\n      dup3\n      keccak256\n      swap1\n      swap4\n      add\n      dup5\n      swap1\n      sstore\n        /* \"Utils/EnumerableSet.sol\":2480:2498  set._values.length */\n      dup5\n      sload\n        /* \"Utils/EnumerableSet.sol\":2458:2477  set._indexes[value] */\n      dup5\n      dup3\n      mstore\n        /* \"Utils/EnumerableSet.sol\":2458:2470  set._indexes */\n      dup3\n      dup7\n      add\n        /* \"Utils/EnumerableSet.sol\":2458:2477  set._indexes[value] */\n      swap1\n      swap4\n      mstore\n      0x40\n      swap1\n      keccak256\n        /* \"Utils/EnumerableSet.sol\":2458:2498  set._indexes[value] = set._values.length */\n      swap2\n      swap1\n      swap2\n      sstore\n        /* \"Utils/EnumerableSet.sol\":2513:2524  return true */\n      jump(tag_353)\n        /* \"Utils/EnumerableSet.sol\":2254:2581  if (!_contains(set, value)) {\r... */\n    tag_383:\n      pop\n        /* \"Utils/EnumerableSet.sol\":2564:2569  false */\n      0x00\n        /* \"Utils/EnumerableSet.sol\":2557:2569  return false */\n      jump(tag_353)\n        /* \"#utility.yul\":14:261   */\n    tag_52:\n        /* \"#utility.yul\":73:79   */\n      0x00\n        /* \"#utility.yul\":126:128   */\n      0x20\n        /* \"#utility.yul\":114:123   */\n      dup3\n        /* \"#utility.yul\":105:112   */\n      dup5\n        /* \"#utility.yul\":101:124   */\n      sub\n        /* \"#utility.yul\":97:129   */\n      slt\n        /* \"#utility.yul\":94:96   */\n      iszero\n      tag_389\n      jumpi\n        /* \"#utility.yul\":142:143   */\n      0x00\n        /* \"#utility.yul\":139:140   */\n      dup1\n        /* \"#utility.yul\":132:144   */\n      revert\n        /* \"#utility.yul\":94:96   */\n    tag_389:\n        /* \"#utility.yul\":181:190   */\n      dup2\n        /* \"#utility.yul\":168:191   */\n      calldataload\n        /* \"#utility.yul\":200:231   */\n      tag_390\n        /* \"#utility.yul\":225:230   */\n      dup2\n        /* \"#utility.yul\":200:231   */\n      tag_391\n      jump\t// in\n    tag_390:\n        /* \"#utility.yul\":250:255   */\n      swap4\n        /* \"#utility.yul\":84:261   */\n      swap3\n      pop\n      pop\n      pop\n      jump\t// out\n        /* \"#utility.yul\":266:1527   */\n    tag_71:\n        /* \"#utility.yul\":409:415   */\n      0x00\n        /* \"#utility.yul\":417:423   */\n      dup1\n        /* \"#utility.yul\":425:431   */\n      0x00\n        /* \"#utility.yul\":433:439   */\n      dup1\n        /* \"#utility.yul\":464:467   */\n      0x0180\n        /* \"#utility.yul\":508:510   */\n      dup1\n        /* \"#utility.yul\":496:505   */\n      dup7\n        /* \"#utility.yul\":487:494   */\n      dup9\n        /* \"#utility.yul\":483:506   */\n      sub\n        /* \"#utility.yul\":479:511   */\n      slt\n        /* \"#utility.yul\":476:478   */\n      iszero\n      tag_393\n      jumpi\n        /* \"#utility.yul\":524:525   */\n      0x00\n        /* \"#utility.yul\":521:522   */\n      dup1\n        /* \"#utility.yul\":514:526   */\n      revert\n        /* \"#utility.yul\":476:478   */\n    tag_393:\n        /* \"#utility.yul\":563:572   */\n      dup6\n        /* \"#utility.yul\":550:573   */\n      calldataload\n        /* \"#utility.yul\":582:613   */\n      tag_394\n        /* \"#utility.yul\":607:612   */\n      dup2\n        /* \"#utility.yul\":582:613   */\n      tag_391\n      jump\t// in\n    tag_394:\n        /* \"#utility.yul\":632:637   */\n      swap5\n      pop\n        /* \"#utility.yul\":656:658   */\n      0x20\n        /* \"#utility.yul\":695:713   */\n      dup7\n      dup2\n      add\n        /* \"#utility.yul\":682:714   */\n      calldataload\n        /* \"#utility.yul\":723:756   */\n      tag_395\n        /* \"#utility.yul\":682:714   */\n      dup2\n        /* \"#utility.yul\":723:756   */\n      tag_391\n      jump\t// in\n    tag_395:\n        /* \"#utility.yul\":775:782   */\n      swap5\n      pop\n        /* \"#utility.yul\":834:836   */\n      0x40\n        /* \"#utility.yul\":819:837   */\n      dup8\n      add\n        /* \"#utility.yul\":806:838   */\n      calldataload\n        /* \"#utility.yul\":847:880   */\n      tag_396\n        /* \"#utility.yul\":806:838   */\n      dup2\n        /* \"#utility.yul\":847:880   */\n      tag_391\n      jump\t// in\n    tag_396:\n        /* \"#utility.yul\":899:906   */\n      swap4\n      pop\n        /* \"#utility.yul\":944:947   */\n      0x7f\n        /* \"#utility.yul\":929:948   */\n      dup8\n      add\n        /* \"#utility.yul\":925:958   */\n      dup9\n      sgt\n        /* \"#utility.yul\":915:917   */\n      tag_397\n      jumpi\n        /* \"#utility.yul\":972:973   */\n      0x00\n        /* \"#utility.yul\":969:970   */\n      dup1\n        /* \"#utility.yul\":962:974   */\n      revert\n        /* \"#utility.yul\":915:917   */\n    tag_397:\n        /* \"#utility.yul\":1005:1007   */\n      0x40\n        /* \"#utility.yul\":999:1008   */\n      mload\n        /* \"#utility.yul\":1047:1050   */\n      0x0120\n        /* \"#utility.yul\":1039:1045   */\n      dup2\n        /* \"#utility.yul\":1035:1051   */\n      add\n        /* \"#utility.yul\":1117:1123   */\n      dup2\n        /* \"#utility.yul\":1105:1115   */\n      dup2\n        /* \"#utility.yul\":1102:1124   */\n      lt\n        /* \"#utility.yul\":1081:1099   */\n      0xffffffffffffffff\n        /* \"#utility.yul\":1069:1079   */\n      dup3\n        /* \"#utility.yul\":1066:1100   */\n      gt\n        /* \"#utility.yul\":1063:1125   */\n      or\n        /* \"#utility.yul\":1060:1062   */\n      iszero\n      tag_399\n      jumpi\n        /* \"#utility.yul\":1128:1146   */\n      tag_399\n      tag_400\n      jump\t// in\n    tag_399:\n        /* \"#utility.yul\":1164:1166   */\n      0x40\n        /* \"#utility.yul\":1157:1179   */\n      mstore\n        /* \"#utility.yul\":1199:1205   */\n      dup1\n        /* \"#utility.yul\":1240:1242   */\n      0x60\n        /* \"#utility.yul\":1225:1243   */\n      dup10\n      add\n        /* \"#utility.yul\":1258:1276   */\n      dup5\n      dup11\n      add\n        /* \"#utility.yul\":1255:1286   */\n      dup12\n      lt\n        /* \"#utility.yul\":1252:1254   */\n      iszero\n      tag_401\n      jumpi\n        /* \"#utility.yul\":1299:1300   */\n      0x00\n        /* \"#utility.yul\":1296:1297   */\n      dup1\n        /* \"#utility.yul\":1289:1301   */\n      revert\n        /* \"#utility.yul\":1252:1254   */\n    tag_401:\n        /* \"#utility.yul\":1321:1322   */\n      0x00\n        /* \"#utility.yul\":1312:1322   */\n      swap5\n      pop\n        /* \"#utility.yul\":1331:1496   */\n    tag_402:\n        /* \"#utility.yul\":1345:1349   */\n      0x09\n        /* \"#utility.yul\":1342:1343   */\n      dup6\n        /* \"#utility.yul\":1339:1350   */\n      lt\n        /* \"#utility.yul\":1331:1496   */\n      iszero\n      tag_404\n      jumpi\n        /* \"#utility.yul\":1404:1421   */\n      dup1\n      calldataload\n        /* \"#utility.yul\":1392:1422   */\n      dup3\n      mstore\n        /* \"#utility.yul\":1365:1366   */\n      0x01\n        /* \"#utility.yul\":1358:1367   */\n      swap5\n      swap1\n      swap5\n      add\n      swap4\n        /* \"#utility.yul\":1442:1454   */\n      swap1\n      dup4\n      add\n      swap1\n        /* \"#utility.yul\":1474:1486   */\n      dup4\n      add\n        /* \"#utility.yul\":1331:1496   */\n      jump(tag_402)\n    tag_404:\n        /* \"#utility.yul\":1335:1338   */\n      pop\n      pop\n        /* \"#utility.yul\":1515:1521   */\n      dup1\n        /* \"#utility.yul\":1505:1521   */\n      swap4\n      pop\n      pop\n      pop\n      pop\n        /* \"#utility.yul\":444:1527   */\n      swap3\n      swap6\n      swap2\n      swap5\n      pop\n      swap3\n      pop\n      jump\t// out\n        /* \"#utility.yul\":1532:1809   */\n    tag_164:\n        /* \"#utility.yul\":1599:1605   */\n      0x00\n        /* \"#utility.yul\":1652:1654   */\n      0x20\n        /* \"#utility.yul\":1640:1649   */\n      dup3\n        /* \"#utility.yul\":1631:1638   */\n      dup5\n        /* \"#utility.yul\":1627:1650   */\n      sub\n        /* \"#utility.yul\":1623:1655   */\n      slt\n        /* \"#utility.yul\":1620:1622   */\n      iszero\n      tag_406\n      jumpi\n        /* \"#utility.yul\":1668:1669   */\n      0x00\n        /* \"#utility.yul\":1665:1666   */\n      dup1\n        /* \"#utility.yul\":1658:1670   */\n      revert\n        /* \"#utility.yul\":1620:1622   */\n    tag_406:\n        /* \"#utility.yul\":1700:1709   */\n      dup2\n        /* \"#utility.yul\":1694:1710   */\n      mload\n        /* \"#utility.yul\":1753:1758   */\n      dup1\n        /* \"#utility.yul\":1746:1759   */\n      iszero\n        /* \"#utility.yul\":1739:1760   */\n      iszero\n        /* \"#utility.yul\":1732:1737   */\n      dup2\n        /* \"#utility.yul\":1729:1761   */\n      eq\n        /* \"#utility.yul\":1719:1721   */\n      tag_390\n      jumpi\n        /* \"#utility.yul\":1775:1776   */\n      0x00\n        /* \"#utility.yul\":1772:1773   */\n      dup1\n        /* \"#utility.yul\":1765:1777   */\n      revert\n        /* \"#utility.yul\":1814:1994   */\n    tag_91:\n        /* \"#utility.yul\":1873:1879   */\n      0x00\n        /* \"#utility.yul\":1926:1928   */\n      0x20\n        /* \"#utility.yul\":1914:1923   */\n      dup3\n        /* \"#utility.yul\":1905:1912   */\n      dup5\n        /* \"#utility.yul\":1901:1924   */\n      sub\n        /* \"#utility.yul\":1897:1929   */\n      slt\n        /* \"#utility.yul\":1894:1896   */\n      iszero\n      tag_409\n      jumpi\n        /* \"#utility.yul\":1942:1943   */\n      0x00\n        /* \"#utility.yul\":1939:1940   */\n      dup1\n        /* \"#utility.yul\":1932:1944   */\n      revert\n        /* \"#utility.yul\":1894:1896   */\n    tag_409:\n      pop\n        /* \"#utility.yul\":1965:1988   */\n      calldataload\n      swap2\n        /* \"#utility.yul\":1884:1994   */\n      swap1\n      pop\n      jump\t// out\n        /* \"#utility.yul\":1999:2183   */\n    tag_157:\n        /* \"#utility.yul\":2069:2075   */\n      0x00\n        /* \"#utility.yul\":2122:2124   */\n      0x20\n        /* \"#utility.yul\":2110:2119   */\n      dup3\n        /* \"#utility.yul\":2101:2108   */\n      dup5\n        /* \"#utility.yul\":2097:2120   */\n      sub\n        /* \"#utility.yul\":2093:2125   */\n      slt\n        /* \"#utility.yul\":2090:2092   */\n      iszero\n      tag_411\n      jumpi\n        /* \"#utility.yul\":2138:2139   */\n      0x00\n        /* \"#utility.yul\":2135:2136   */\n      dup1\n        /* \"#utility.yul\":2128:2140   */\n      revert\n        /* \"#utility.yul\":2090:2092   */\n    tag_411:\n      pop\n        /* \"#utility.yul\":2161:2177   */\n      mload\n      swap2\n        /* \"#utility.yul\":2080:2183   */\n      swap1\n      pop\n      jump\t// out\n        /* \"#utility.yul\":2188:2614   */\n    tag_368:\n        /* \"#utility.yul\":2317:2320   */\n      0x00\n        /* \"#utility.yul\":2355:2361   */\n      dup3\n        /* \"#utility.yul\":2349:2362   */\n      mload\n        /* \"#utility.yul\":2380:2381   */\n      0x00\n        /* \"#utility.yul\":2390:2519   */\n    tag_413:\n        /* \"#utility.yul\":2404:2410   */\n      dup2\n        /* \"#utility.yul\":2401:2402   */\n      dup2\n        /* \"#utility.yul\":2398:2411   */\n      lt\n        /* \"#utility.yul\":2390:2519   */\n      iszero\n      tag_415\n      jumpi\n        /* \"#utility.yul\":2502:2506   */\n      0x20\n        /* \"#utility.yul\":2486:2500   */\n      dup2\n      dup7\n      add\n        /* \"#utility.yul\":2482:2507   */\n      dup2\n      add\n        /* \"#utility.yul\":2476:2508   */\n      mload\n        /* \"#utility.yul\":2463:2474   */\n      dup6\n      dup4\n      add\n        /* \"#utility.yul\":2456:2509   */\n      mstore\n        /* \"#utility.yul\":2419:2431   */\n      add\n        /* \"#utility.yul\":2390:2519   */\n      jump(tag_413)\n    tag_415:\n        /* \"#utility.yul\":2537:2543   */\n      dup2\n        /* \"#utility.yul\":2534:2535   */\n      dup2\n        /* \"#utility.yul\":2531:2544   */\n      gt\n        /* \"#utility.yul\":2528:2530   */\n      iszero\n      tag_416\n      jumpi\n        /* \"#utility.yul\":2572:2573   */\n      0x00\n        /* \"#utility.yul\":2563:2569   */\n      dup3\n        /* \"#utility.yul\":2558:2561   */\n      dup6\n        /* \"#utility.yul\":2554:2570   */\n      add\n        /* \"#utility.yul\":2547:2574   */\n      mstore\n        /* \"#utility.yul\":2528:2530   */\n    tag_416:\n      pop\n        /* \"#utility.yul\":2592:2608   */\n      swap2\n      swap1\n      swap2\n      add\n      swap3\n        /* \"#utility.yul\":2325:2614   */\n      swap2\n      pop\n      pop\n      jump\t// out\n        /* \"#utility.yul\":5635:5986   */\n    tag_234:\n        /* \"#utility.yul\":5837:5839   */\n      0x20\n        /* \"#utility.yul\":5819:5840   */\n      dup1\n      dup3\n      mstore\n        /* \"#utility.yul\":5876:5878   */\n      0x1b\n        /* \"#utility.yul\":5856:5874   */\n      swap1\n      dup3\n      add\n        /* \"#utility.yul\":5849:5879   */\n      mstore\n        /* \"#utility.yul\":5915:5944   */\n      0x416c6c20746f6b656e20686173206265656e2077697468647261770000000000\n        /* \"#utility.yul\":5910:5912   */\n      0x40\n        /* \"#utility.yul\":5895:5913   */\n      dup3\n      add\n        /* \"#utility.yul\":5888:5945   */\n      mstore\n        /* \"#utility.yul\":5977:5979   */\n      0x60\n        /* \"#utility.yul\":5962:5980   */\n      add\n      swap1\n        /* \"#utility.yul\":5809:5986   */\n      jump\t// out\n        /* \"#utility.yul\":7506:7906   */\n    tag_261:\n        /* \"#utility.yul\":7708:7710   */\n      0x20\n        /* \"#utility.yul\":7690:7711   */\n      dup1\n      dup3\n      mstore\n        /* \"#utility.yul\":7747:7749   */\n      0x24\n        /* \"#utility.yul\":7727:7745   */\n      swap1\n      dup3\n      add\n        /* \"#utility.yul\":7720:7750   */\n      mstore\n        /* \"#utility.yul\":7786:7820   */\n      0x596f7520636c61696d20616c6c206f722068617665206e6f7420626f75676874\n        /* \"#utility.yul\":7781:7783   */\n      0x40\n        /* \"#utility.yul\":7766:7784   */\n      dup3\n      add\n        /* \"#utility.yul\":7759:7821   */\n      mstore\n      shl(0xe2, 0x081e595d)\n        /* \"#utility.yul\":7852:7854   */\n      0x60\n        /* \"#utility.yul\":7837:7855   */\n      dup3\n      add\n        /* \"#utility.yul\":7830:7864   */\n      mstore\n        /* \"#utility.yul\":7896:7899   */\n      0x80\n        /* \"#utility.yul\":7881:7900   */\n      add\n      swap1\n        /* \"#utility.yul\":7680:7906   */\n      jump\t// out\n        /* \"#utility.yul\":10068:10423   */\n    tag_144:\n        /* \"#utility.yul\":10270:10272   */\n      0x20\n        /* \"#utility.yul\":10252:10273   */\n      dup1\n      dup3\n      mstore\n        /* \"#utility.yul\":10309:10311   */\n      0x1f\n        /* \"#utility.yul\":10289:10307   */\n      swap1\n      dup3\n      add\n        /* \"#utility.yul\":10282:10312   */\n      mstore\n        /* \"#utility.yul\":10348:10381   */\n      0x5265656e7472616e637947756172643a207265656e7472616e742063616c6c00\n        /* \"#utility.yul\":10343:10345   */\n      0x40\n        /* \"#utility.yul\":10328:10346   */\n      dup3\n      add\n        /* \"#utility.yul\":10321:10382   */\n      mstore\n        /* \"#utility.yul\":10414:10416   */\n      0x60\n        /* \"#utility.yul\":10399:10417   */\n      add\n      swap1\n        /* \"#utility.yul\":10242:10423   */\n      jump\t// out\n        /* \"#utility.yul\":12235:12363   */\n    tag_245:\n        /* \"#utility.yul\":12275:12278   */\n      0x00\n        /* \"#utility.yul\":12306:12307   */\n      dup3\n        /* \"#utility.yul\":12302:12308   */\n      not\n        /* \"#utility.yul\":12299:12300   */\n      dup3\n        /* \"#utility.yul\":12296:12309   */\n      gt\n        /* \"#utility.yul\":12293:12295   */\n      iszero\n      tag_445\n      jumpi\n        /* \"#utility.yul\":12312:12330   */\n      tag_445\n      tag_446\n      jump\t// in\n    tag_445:\n      pop\n        /* \"#utility.yul\":12348:12357   */\n      add\n      swap1\n        /* \"#utility.yul\":12283:12363   */\n      jump\t// out\n        /* \"#utility.yul\":12368:12585   */\n    tag_221:\n        /* \"#utility.yul\":12408:12409   */\n      0x00\n        /* \"#utility.yul\":12434:12435   */\n      dup3\n        /* \"#utility.yul\":12424:12426   */\n      tag_448\n      jumpi\n        /* \"#utility.yul\":12478:12488   */\n      0x4e487b71\n        /* \"#utility.yul\":12473:12476   */\n      0xe0\n        /* \"#utility.yul\":12469:12489   */\n      shl\n        /* \"#utility.yul\":12466:12467   */\n      0x00\n        /* \"#utility.yul\":12459:12490   */\n      mstore\n        /* \"#utility.yul\":12513:12517   */\n      0x12\n        /* \"#utility.yul\":12510:12511   */\n      0x04\n        /* \"#utility.yul\":12503:12518   */\n      mstore\n        /* \"#utility.yul\":12541:12545   */\n      0x24\n        /* \"#utility.yul\":12538:12539   */\n      0x00\n        /* \"#utility.yul\":12531:12546   */\n      revert\n        /* \"#utility.yul\":12424:12426   */\n    tag_448:\n      pop\n        /* \"#utility.yul\":12570:12579   */\n      div\n      swap1\n        /* \"#utility.yul\":12414:12585   */\n      jump\t// out\n        /* \"#utility.yul\":12590:13012   */\n    tag_449:\n        /* \"#utility.yul\":12679:12680   */\n      0x01\n        /* \"#utility.yul\":12722:12727   */\n      dup2\n        /* \"#utility.yul\":12679:12680   */\n      dup2\n        /* \"#utility.yul\":12736:13006   */\n    tag_451:\n        /* \"#utility.yul\":12757:12764   */\n      dup1\n        /* \"#utility.yul\":12747:12755   */\n      dup6\n        /* \"#utility.yul\":12744:12765   */\n      gt\n        /* \"#utility.yul\":12736:13006   */\n      iszero\n      tag_453\n      jumpi\n        /* \"#utility.yul\":12816:12820   */\n      dup2\n        /* \"#utility.yul\":12812:12813   */\n      0x00\n        /* \"#utility.yul\":12808:12814   */\n      not\n        /* \"#utility.yul\":12804:12821   */\n      div\n        /* \"#utility.yul\":12798:12802   */\n      dup3\n        /* \"#utility.yul\":12795:12822   */\n      gt\n        /* \"#utility.yul\":12792:12794   */\n      iszero\n      tag_455\n      jumpi\n        /* \"#utility.yul\":12825:12843   */\n      tag_455\n      tag_446\n      jump\t// in\n    tag_455:\n        /* \"#utility.yul\":12875:12882   */\n      dup1\n        /* \"#utility.yul\":12865:12873   */\n      dup6\n        /* \"#utility.yul\":12861:12883   */\n      and\n        /* \"#utility.yul\":12858:12860   */\n      iszero\n      tag_456\n      jumpi\n        /* \"#utility.yul\":12895:12911   */\n      swap2\n      dup2\n      mul\n      swap2\n        /* \"#utility.yul\":12858:12860   */\n    tag_456:\n        /* \"#utility.yul\":12974:12996   */\n      swap4\n      dup5\n      shr\n      swap4\n        /* \"#utility.yul\":12934:12949   */\n      swap1\n      dup1\n      mul\n      swap1\n        /* \"#utility.yul\":12736:13006   */\n      jump(tag_451)\n    tag_453:\n        /* \"#utility.yul\":12740:12743   */\n      pop\n        /* \"#utility.yul\":12654:13012   */\n      swap3\n      pop\n      swap3\n      swap1\n      pop\n      jump\t// out\n        /* \"#utility.yul\":13017:13148   */\n    tag_173:\n        /* \"#utility.yul\":13077:13082   */\n      0x00\n        /* \"#utility.yul\":13106:13142   */\n      tag_354\n        /* \"#utility.yul\":13133:13141   */\n      dup4\n        /* \"#utility.yul\":13127:13131   */\n      dup4\n        /* \"#utility.yul\":13202:13207   */\n      0x00\n        /* \"#utility.yul\":13232:13240   */\n      dup3\n        /* \"#utility.yul\":13222:13224   */\n      tag_461\n      jumpi\n      pop\n        /* \"#utility.yul\":13273:13274   */\n      0x01\n        /* \"#utility.yul\":13287:13292   */\n      jump(tag_353)\n        /* \"#utility.yul\":13222:13224   */\n    tag_461:\n        /* \"#utility.yul\":13321:13325   */\n      dup2\n        /* \"#utility.yul\":13311:13313   */\n      tag_462\n      jumpi\n      pop\n        /* \"#utility.yul\":13358:13359   */\n      0x00\n        /* \"#utility.yul\":13372:13377   */\n      jump(tag_353)\n        /* \"#utility.yul\":13311:13313   */\n    tag_462:\n        /* \"#utility.yul\":13403:13407   */\n      dup2\n        /* \"#utility.yul\":13421:13422   */\n      0x01\n        /* \"#utility.yul\":13416:13475   */\n      dup2\n      eq\n      tag_464\n      jumpi\n        /* \"#utility.yul\":13489:13490   */\n      0x02\n        /* \"#utility.yul\":13484:13614   */\n      dup2\n      eq\n      tag_465\n      jumpi\n        /* \"#utility.yul\":13396:13614   */\n      jump(tag_463)\n        /* \"#utility.yul\":13416:13475   */\n    tag_464:\n        /* \"#utility.yul\":13446:13447   */\n      0x01\n        /* \"#utility.yul\":13437:13447   */\n      swap2\n      pop\n        /* \"#utility.yul\":13460:13465   */\n      pop\n      jump(tag_353)\n        /* \"#utility.yul\":13484:13614   */\n    tag_465:\n        /* \"#utility.yul\":13521:13524   */\n      0xff\n        /* \"#utility.yul\":13511:13519   */\n      dup5\n        /* \"#utility.yul\":13508:13525   */\n      gt\n        /* \"#utility.yul\":13505:13507   */\n      iszero\n      tag_467\n      jumpi\n        /* \"#utility.yul\":13528:13546   */\n      tag_467\n      tag_446\n      jump\t// in\n    tag_467:\n      pop\n      pop\n        /* \"#utility.yul\":13584:13585   */\n      0x01\n        /* \"#utility.yul\":13570:13586   */\n      dup3\n      shl\n        /* \"#utility.yul\":13599:13604   */\n      jump(tag_353)\n        /* \"#utility.yul\":13396:13614   */\n    tag_463:\n      pop\n        /* \"#utility.yul\":13698:13700   */\n      0x20\n        /* \"#utility.yul\":13688:13696   */\n      dup4\n        /* \"#utility.yul\":13685:13701   */\n      lt\n        /* \"#utility.yul\":13679:13682   */\n      0x0133\n        /* \"#utility.yul\":13673:13677   */\n      dup4\n        /* \"#utility.yul\":13670:13683   */\n      lt\n        /* \"#utility.yul\":13666:13702   */\n      and\n        /* \"#utility.yul\":13660:13662   */\n      0x4e\n        /* \"#utility.yul\":13650:13658   */\n      dup5\n        /* \"#utility.yul\":13647:13663   */\n      lt\n        /* \"#utility.yul\":13642:13644   */\n      0x0b\n        /* \"#utility.yul\":13636:13640   */\n      dup5\n        /* \"#utility.yul\":13633:13645   */\n      lt\n        /* \"#utility.yul\":13629:13664   */\n      and\n        /* \"#utility.yul\":13626:13703   */\n      or\n        /* \"#utility.yul\":13623:13625   */\n      iszero\n      tag_468\n      jumpi\n      pop\n        /* \"#utility.yul\":13735:13754   */\n      dup2\n      dup2\n      exp\n        /* \"#utility.yul\":13767:13772   */\n      jump(tag_353)\n        /* \"#utility.yul\":13623:13625   */\n    tag_468:\n        /* \"#utility.yul\":13814:13848   */\n      tag_469\n        /* \"#utility.yul\":13839:13847   */\n      dup4\n        /* \"#utility.yul\":13833:13837   */\n      dup4\n        /* \"#utility.yul\":13814:13848   */\n      tag_449\n      jump\t// in\n    tag_469:\n        /* \"#utility.yul\":13884:13890   */\n      dup1\n        /* \"#utility.yul\":13880:13881   */\n      0x00\n        /* \"#utility.yul\":13876:13882   */\n      not\n        /* \"#utility.yul\":13872:13891   */\n      div\n        /* \"#utility.yul\":13863:13870   */\n      dup3\n        /* \"#utility.yul\":13860:13892   */\n      gt\n        /* \"#utility.yul\":13857:13859   */\n      iszero\n      tag_471\n      jumpi\n        /* \"#utility.yul\":13895:13913   */\n      tag_471\n      tag_446\n      jump\t// in\n    tag_471:\n        /* \"#utility.yul\":13933:13953   */\n      mul\n      swap4\n        /* \"#utility.yul\":13212:13959   */\n      swap3\n      pop\n      pop\n      pop\n      jump\t// out\n        /* \"#utility.yul\":13964:14132   */\n    tag_178:\n        /* \"#utility.yul\":14004:14011   */\n      0x00\n        /* \"#utility.yul\":14070:14071   */\n      dup2\n        /* \"#utility.yul\":14066:14067   */\n      0x00\n        /* \"#utility.yul\":14062:14068   */\n      not\n        /* \"#utility.yul\":14058:14072   */\n      div\n        /* \"#utility.yul\":14055:14056   */\n      dup4\n        /* \"#utility.yul\":14052:14073   */\n      gt\n        /* \"#utility.yul\":14047:14048   */\n      dup3\n        /* \"#utility.yul\":14040:14049   */\n      iszero\n        /* \"#utility.yul\":14033:14050   */\n      iszero\n        /* \"#utility.yul\":14029:14074   */\n      and\n        /* \"#utility.yul\":14026:14028   */\n      iszero\n      tag_474\n      jumpi\n        /* \"#utility.yul\":14077:14095   */\n      tag_474\n      tag_446\n      jump\t// in\n    tag_474:\n      pop\n        /* \"#utility.yul\":14117:14126   */\n      mul\n      swap1\n        /* \"#utility.yul\":14016:14132   */\n      jump\t// out\n        /* \"#utility.yul\":14137:14262   */\n    tag_231:\n        /* \"#utility.yul\":14177:14181   */\n      0x00\n        /* \"#utility.yul\":14205:14206   */\n      dup3\n        /* \"#utility.yul\":14202:14203   */\n      dup3\n        /* \"#utility.yul\":14199:14207   */\n      lt\n        /* \"#utility.yul\":14196:14198   */\n      iszero\n      tag_477\n      jumpi\n        /* \"#utility.yul\":14210:14228   */\n      tag_477\n      tag_446\n      jump\t// in\n    tag_477:\n      pop\n        /* \"#utility.yul\":14247:14256   */\n      sub\n      swap1\n        /* \"#utility.yul\":14186:14262   */\n      jump\t// out\n        /* \"#utility.yul\":14267:14402   */\n    tag_311:\n        /* \"#utility.yul\":14306:14309   */\n      0x00\n      not(0x00)\n        /* \"#utility.yul\":14327:14344   */\n      dup3\n      eq\n        /* \"#utility.yul\":14324:14326   */\n      iszero\n      tag_480\n      jumpi\n        /* \"#utility.yul\":14347:14365   */\n      tag_480\n      tag_446\n      jump\t// in\n    tag_480:\n      pop\n        /* \"#utility.yul\":14394:14395   */\n      0x01\n        /* \"#utility.yul\":14383:14396   */\n      add\n      swap1\n        /* \"#utility.yul\":14314:14402   */\n      jump\t// out\n        /* \"#utility.yul\":14407:14534   */\n    tag_446:\n        /* \"#utility.yul\":14468:14478   */\n      0x4e487b71\n        /* \"#utility.yul\":14463:14466   */\n      0xe0\n        /* \"#utility.yul\":14459:14479   */\n      shl\n        /* \"#utility.yul\":14456:14457   */\n      0x00\n        /* \"#utility.yul\":14449:14480   */\n      mstore\n        /* \"#utility.yul\":14499:14503   */\n      0x11\n        /* \"#utility.yul\":14496:14497   */\n      0x04\n        /* \"#utility.yul\":14489:14504   */\n      mstore\n        /* \"#utility.yul\":14523:14527   */\n      0x24\n        /* \"#utility.yul\":14520:14521   */\n      0x00\n        /* \"#utility.yul\":14513:14528   */\n      revert\n        /* \"#utility.yul\":14671:14798   */\n    tag_400:\n        /* \"#utility.yul\":14732:14742   */\n      0x4e487b71\n        /* \"#utility.yul\":14727:14730   */\n      0xe0\n        /* \"#utility.yul\":14723:14743   */\n      shl\n        /* \"#utility.yul\":14720:14721   */\n      0x00\n        /* \"#utility.yul\":14713:14744   */\n      mstore\n        /* \"#utility.yul\":14763:14767   */\n      0x41\n        /* \"#utility.yul\":14760:14761   */\n      0x04\n        /* \"#utility.yul\":14753:14768   */\n      mstore\n        /* \"#utility.yul\":14787:14791   */\n      0x24\n        /* \"#utility.yul\":14784:14785   */\n      0x00\n        /* \"#utility.yul\":14777:14792   */\n      revert\n        /* \"#utility.yul\":14803:14934   */\n    tag_391:\n      sub(shl(0xa0, 0x01), 0x01)\n        /* \"#utility.yul\":14878:14909   */\n      dup2\n      and\n        /* \"#utility.yul\":14868:14910   */\n      dup2\n      eq\n        /* \"#utility.yul\":14858:14860   */\n      tag_134\n      jumpi\n        /* \"#utility.yul\":14924:14925   */\n      0x00\n        /* \"#utility.yul\":14921:14922   */\n      dup1\n        /* \"#utility.yul\":14914:14926   */\n      revert\n\n    auxdata: 0xa2646970667358221220981d3d0b94b3f7fc86245107330a416181599af1b9259c798a187393fe60d8bd64736f6c63430008050033\n}\n",
				"bytecode": {
					"linkReferences": {},
					"object": "608060405260016000556200001433620000a5565b6019805473c778417e063141139fce010982780140aa0cd5ab6001600160a01b031990911617905562000069601b736ccb41eeda5a073076f3e7dc1614c185b5fa41ed620000f7602090811b620014f817901c565b5062000099734f0b12bbf40fc182559822a5b1db6d34dbc3e016601b620000f760201b620014f81790919060201c565b506014601a5562000169565b600180546001600160a01b038381166001600160a01b0319831681179093556040519116919082907f8be0079c531659141344cd1fd0a4f28419497f9722a3daafe3b4186f6b6457e090600090a35050565b60006200010e836001600160a01b03841662000117565b90505b92915050565b6000818152600183016020526040812054620001605750815460018181018455600084815260208082209093018490558454848252828601909352604090209190915562000111565b50600062000111565b611b4480620001796000396000f3fe60806040526004361061012a5760003560e01c80638f1eae4c116100ab578063b6b55f251161006f578063b6b55f25146103e0578063cad5b0f7146103f3578063ce441b1814610418578063e2d3f4231461042d578063f2fde38b14610491578063f8b2cb4f146104b157600080fd5b80638f1eae4c1461030657806395661e7014610326578063ab33985a1461033b578063acfb235514610350578063ad5c4648146103c057600080fd5b806356c5f349116100f257806356c5f34914610273578063715018a6146102a0578063861faf5f146102b75780638da5cb5b146102bf5780638edf18e6146102f157600080fd5b806312e5d0b91461012f57806318856a2f146101645780631df4ccfc14610224578063200d2ed2146102485780633b5ef2ad1461025d575b600080fd5b34801561013b57600080fd5b50600b54600c5461014a919082565b604080519283526020830191909152015b60405180910390f35b34801561017057600080fd5b50600d54600e54600f546010546011546012546013546014546015546016546017546018546101b89b6001600160a01b039081169b81169a16989796959493929160ff16908c565b604080516001600160a01b039d8e1681529b8d1660208d015299909b16988a01989098526060890196909652608088019490945260a087019290925260c086015260e085015261010084015261012083015215156101408201526101608101919091526101800161015b565b34801561023057600080fd5b5061023a601d5481565b60405190815260200161015b565b34801561025457600080fd5b5061023a6104d9565b34801561026957600080fd5b5061023a601a5481565b34801561027f57600080fd5b5061023a61028e36600461172d565b60036020526000908152604090205481565b3480156102ac57600080fd5b506102b5610502565b005b6102b561056d565b3480156102cb57600080fd5b506001546001600160a01b03165b6040516001600160a01b03909116815260200161015b565b3480156102fd57600080fd5b506102b561059c565b34801561031257600080fd5b506102b5610321366004611751565b610827565b34801561033257600080fd5b506102b5610ba2565b34801561034757600080fd5b506102b5610d52565b34801561035c57600080fd5b5060045460055460065460075460085460095461038795949392919060ff8082169161010090041687565b6040805197885260208801969096529486019390935260608501919091526080840152151560a0830152151560c082015260e00161015b565b3480156103cc57600080fd5b506019546102d9906001600160a01b031681565b6102b56103ee366004611838565b610f19565b3480156103ff57600080fd5b506104086112e8565b604051901515815260200161015b565b34801561042457600080fd5b506102b56112fa565b34801561043957600080fd5b5061047161044836600461172d565b600260208190526000918252604090912080546001820154928201546003909201549092919084565b60408051948552602085019390935291830152606082015260800161015b565b34801561049d57600080fd5b506102b56104ac36600461172d565b611430565b3480156104bd57600080fd5b5061023a6104cc36600461172d565b6001600160a01b03163190565b6011546000904210156104ec5750600090565b6012544211156104fc5750600290565b50600190565b6001546001600160a01b031633146105615760405162461bcd60e51b815260206004820181905260248201527f4f776e61626c653a2063616c6c6572206973206e6f7420746865206f776e657260448201526064015b60405180910390fd5b61056b6000611516565b565b60405133904780156108fc02916000818181858888f19350505050158015610599573d6000803e3d6000fd5b50565b600d546001600160a01b0316336001600160a01b0316146105f45760405162461bcd60e51b815260206004820152601260248201527127b7363c90383932b9b0b6329037bbb732b960711b6044820152606401610558565b600260005414156106175760405162461bcd60e51b815260040161055890611920565b600260005560095460ff161561066f5760405162461bcd60e51b815260206004820152601d60248201527f4e6f7468696e6720666f72206f776e657220636c61696d20746f6b656e0000006044820152606401610558565b600954610100900460ff16156106c75760405162461bcd60e51b815260206004820152601e60248201527f4e6f7468696e6720666f72206f776e657220726566756e6420746f6b656e00006044820152606401610558565b600e546040516370a0823160e01b81523060048201526000916001600160a01b0316906370a082319060240160206040518083038186803b15801561070b57600080fd5b505afa15801561071f573d6000803e3d6000fd5b505050506040513d601f19601f820116820180604052508101906107439190611851565b6009805460ff191660011790556000601855600e54600d5460405163a9059cbb60e01b81526001600160a01b03918216600482015260248101849052929350479291169063a9059cbb90604401602060405180830381600087803b1580156107aa57600080fd5b505af11580156107be573d6000803e3d6000fd5b505050506040513d601f19601f820116820180604052508101906107e29190611816565b50600d546040516001600160a01b039091169082156108fc029083906000818181858888f1935050505015801561081d573d6000803e3d6000fd5b5050600160005550565b600d80546001600160a01b038087166001600160a01b031992831617909255600e80548684169083168117909155600f8054938616939092169290921790556040805163313ce56760e01b8152905163313ce56791600480820192602092909190829003018186803b15801561089c57600080fd5b505afa1580156108b0573d6000803e3d6000fd5b505050506040513d601f19601f820116820180604052508101906108d49190611851565b6108df90600a6119d4565b81516108eb9190611a7c565b6010556020808201516011556040808301516012556060830151601355600f54815163313ce56760e01b815291516001600160a01b039091169263313ce5679260048082019391829003018186803b15801561094657600080fd5b505afa15801561095a573d6000803e3d6000fd5b505050506040513d601f19601f8201168201806040525081019061097e9190611851565b61098990600a6119d4565b60808201516109989190611a7c565b60145560a081015160155560c0810151601655600f546040805163313ce56760e01b815290516001600160a01b039092169163313ce56791600480820192602092909190829003018186803b1580156109f057600080fd5b505afa158015610a04573d6000803e3d6000fd5b505050506040513d601f19601f82011682018060405250810190610a289190611851565b610a3390600a6119d4565b60e0820151610a429190611a7c565b600b55600f546040805163313ce56760e01b815290516001600160a01b039092169163313ce56791600480820192602092909190829003018186803b158015610a8a57600080fd5b505afa158015610a9e573d6000803e3d6000fd5b505050506040513d601f19601f82011682018060405250810190610ac29190611851565b610acd90600a6119d4565b610100820151610add9190611a7c565b600c55600f546019546017805460ff19166001600160a01b0392831692909316918214929092179091556040805163313ce56760e01b8152905163313ce56791600480820192602092909190829003018186803b158015610b3d57600080fd5b505afa158015610b51573d6000803e3d6000fd5b505050506040513d601f19601f82011682018060405250810190610b759190611851565b610b8090600a6119d4565b600b54601054610b8f91611568565b610b99919061196f565b60185550505050565b60026000541415610bc55760405162461bcd60e51b815260040161055890611920565b6002600055610bd26104d9565b600114610c105760405162461bcd60e51b815260206004820152600c60248201526b53616c65207375636573737360a01b6044820152606401610558565b600754600454600091610c2291611a9b565b11610c3f5760405162461bcd60e51b8152600401610558906118a5565b3360009081526002602052604090208054610caa5760405162461bcd60e51b815260206004820152602560248201527f596f7520726566756e6420616c6c206f722068617665206e6f7420626f7567686044820152641d081e595d60da1b6064820152608401610558565b8054601554600091610cd5916103e891610ccf91610cc9908490611574565b90611568565b90611580565b8254909150610ce5908290611a9b565b601d6000828254610cf69190611957565b909155505060078054829190600090610d10908490611957565b9091555050600080835560018301819055426002840155604051339183156108fc02918491818181858888f1935050505015801561081d573d6000803e3d6000fd5b60026000541415610d755760405162461bcd60e51b815260040161055890611920565b6002600055610d826104d9565b600114610dc05760405162461bcd60e51b815260206004820152600c60248201526b53616c65207375636573737360a01b6044820152606401610558565b600654600554600091610dd291611a9b565b11610def5760405162461bcd60e51b8152600401610558906118a5565b3360009081526002602052604090206003810154600182015411610e255760405162461bcd60e51b8152600401610558906118dc565b6000610e4f6103e8610ccf8460010154610cc9600d600901546103e861157490919063ffffffff16565b90508060046002016000828254610e669190611957565b909155505060188054829190600090610e80908490611a9b565b909155505060008083556001830155426002830155600e5460405163a9059cbb60e01b8152336004820152602481018390526001600160a01b039091169063a9059cbb90604401602060405180830381600087803b158015610ee157600080fd5b505af1158015610ef5573d6000803e3d6000fd5b505050506040513d601f19601f8201168201806040525081019061081d9190611816565b60026000541415610f3c5760405162461bcd60e51b815260040161055890611920565b600260008181553381526020919091526040812090829081906103e834831115610fa85760405162461bcd60e51b815260206004820152601a60248201527f506c656173652070726f76696465206e617669746520636f696e0000000000006044820152606401610558565b601354831015610fed5760405162461bcd60e51b815260206004820152601060248201526f4e6f7420656e6f7567682076616c756560801b6044820152606401610558565b6014548311156110305760405162461bcd60e51b815260206004820152600e60248201526d4f766572666c6f772076616c756560901b6044820152606401610558565b6110386112e8565b6110685761105981610ccf85610cc9601a548661157490919063ffffffff16565b92506110658385611a9b565b91505b845460145460009161107991611a9b565b60045460185491925060009161108f9190611a9b565b905060008183116110a057826110a2565b815b9050808611156110e65760405162461bcd60e51b815260206004820152600f60248201526e53616c65206973207375636365737360881b6044820152606401610558565b600061118d600d60020160009054906101000a90046001600160a01b03166001600160a01b031663313ce5676040518163ffffffff1660e01b815260040160206040518083038186803b15801561113c57600080fd5b505afa158015611150573d6000803e3d6000fd5b505050506040513d601f19601f820116820180604052508101906111749190611851565b61117f90600a6119d4565b601054610ccf908a90611568565b9050878960000160008282546111a39190611957565b92505081905550808960010160008282546111be9190611957565b9091555050600480548891906000906111d8908490611957565b9091555050600580548291906000906111f2908490611957565b90915550506008805490600061120783611ab2565b9091555050336000908152600360205260408120805488929061122b908490611957565b9250508190555085601d60008282546112449190611957565b909155505060175460ff1680156112645750346112618789611957565b11155b156112ac57336108fc876112788a34611a9b565b6112829190611a9b565b6040518115909202916000818181858888f193505050501580156112aa573d6000803e3d6000fd5b505b60175460ff166112d757600f546112d7906001600160a01b031633306112d28a8c611957565b61158c565b505060016000555050505050505050565b60006112f5601b336116bc565b905090565b60065460055460009161130c91611a9b565b116113295760405162461bcd60e51b8152600401610558906118a5565b336000908152600260205260409020600381015460018201541161135f5760405162461bcd60e51b8152600401610558906118dc565b600181015460068054600090611376908490611957565b9091555050600181015460188054600090611392908490611a9b565b9091555050600080825560018201819055426002830155600e5460405163a9059cbb60e01b815233600482015260248101929092526001600160a01b03169063a9059cbb90604401602060405180830381600087803b1580156113f457600080fd5b505af1158015611408573d6000803e3d6000fd5b505050506040513d601f19601f8201168201806040525081019061142c9190611816565b5050565b6001546001600160a01b0316331461148a5760405162461bcd60e51b815260206004820181905260248201527f4f776e61626c653a2063616c6c6572206973206e6f7420746865206f776e65726044820152606401610558565b6001600160a01b0381166114ef5760405162461bcd60e51b815260206004820152602660248201527f4f776e61626c653a206e6577206f776e657220697320746865207a65726f206160448201526564647265737360d01b6064820152608401610558565b61059981611516565b600061150d836001600160a01b0384166116de565b90505b92915050565b600180546001600160a01b038381166001600160a01b0319831681179093556040519116919082907f8be0079c531659141344cd1fd0a4f28419497f9722a3daafe3b4186f6b6457e090600090a35050565b600061150d8284611a7c565b600061150d8284611a9b565b600061150d828461196f565b604080516001600160a01b0385811660248301528481166044830152606480830185905283518084039091018152608490920183526020820180516001600160e01b03166323b872dd60e01b17905291516000928392908816916115f0919061186a565b6000604051808303816000865af19150503d806000811461162d576040519150601f19603f3d011682016040523d82523d6000602084013e611632565b606091505b509150915081801561165c57508051158061165c57508080602001905181019061165c9190611816565b6116b45760405162461bcd60e51b8152602060048201526024808201527f5472616e7366657248656c7065723a205452414e534645525f46524f4d5f46416044820152631253115160e21b6064820152608401610558565b505050505050565b6001600160a01b0381166000908152600183016020526040812054151561150d565b600081815260018301602052604081205461172557508154600181810184556000848152602080822090930184905584548482528286019093526040902091909155611510565b506000611510565b60006020828403121561173f57600080fd5b813561174a81611af9565b9392505050565b60008060008061018080868803121561176957600080fd5b853561177481611af9565b945060208681013561178581611af9565b9450604087013561179581611af9565b9350607f870188136117a657600080fd5b604051610120810181811067ffffffffffffffff821117156117ca576117ca611ae3565b6040528060608901848a018b10156117e157600080fd5b600094505b60098510156118055780358252600194909401939083019083016117e6565b505080935050505092959194509250565b60006020828403121561182857600080fd5b8151801515811461174a57600080fd5b60006020828403121561184a57600080fd5b5035919050565b60006020828403121561186357600080fd5b5051919050565b6000825160005b8181101561188b5760208186018101518583015201611871565b8181111561189a576000828501525b509190910192915050565b6020808252601b908201527f416c6c20746f6b656e20686173206265656e2077697468647261770000000000604082015260600190565b60208082526024908201527f596f7520636c61696d20616c6c206f722068617665206e6f7420626f75676874604082015263081e595d60e21b606082015260800190565b6020808252601f908201527f5265656e7472616e637947756172643a207265656e7472616e742063616c6c00604082015260600190565b6000821982111561196a5761196a611acd565b500190565b60008261198c57634e487b7160e01b600052601260045260246000fd5b500490565b600181815b808511156119cc5781600019048211156119b2576119b2611acd565b808516156119bf57918102915b93841c9390800290611996565b509250929050565b600061150d83836000826119ea57506001611510565b816119f757506000611510565b8160018114611a0d5760028114611a1757611a33565b6001915050611510565b60ff841115611a2857611a28611acd565b50506001821b611510565b5060208310610133831016604e8410600b8410161715611a56575081810a611510565b611a608383611991565b8060001904821115611a7457611a74611acd565b029392505050565b6000816000190483118215151615611a9657611a96611acd565b500290565b600082821015611aad57611aad611acd565b500390565b6000600019821415611ac657611ac6611acd565b5060010190565b634e487b7160e01b600052601160045260246000fd5b634e487b7160e01b600052604160045260246000fd5b6001600160a01b038116811461059957600080fdfea2646970667358221220981d3d0b94b3f7fc86245107330a416181599af1b9259c798a187393fe60d8bd64736f6c63430008050033",
					"opcodes": "PUSH1 0x80 PUSH1 0x40 MSTORE PUSH1 0x1 PUSH1 0x0 SSTORE PUSH3 0x14 CALLER PUSH3 0xA5 JUMP JUMPDEST PUSH1 0x19 DUP1 SLOAD PUSH20 0xC778417E063141139FCE010982780140AA0CD5AB PUSH1 0x1 PUSH1 0x1 PUSH1 0xA0 SHL SUB NOT SWAP1 SWAP2 AND OR SWAP1 SSTORE PUSH3 0x69 PUSH1 0x1B PUSH20 0x6CCB41EEDA5A073076F3E7DC1614C185B5FA41ED PUSH3 0xF7 PUSH1 0x20 SWAP1 DUP2 SHL PUSH3 0x14F8 OR SWAP1 SHR JUMP JUMPDEST POP PUSH3 0x99 PUSH20 0x4F0B12BBF40FC182559822A5B1DB6D34DBC3E016 PUSH1 0x1B PUSH3 0xF7 PUSH1 0x20 SHL PUSH3 0x14F8 OR SWAP1 SWAP2 SWAP1 PUSH1 0x20 SHR JUMP JUMPDEST POP PUSH1 0x14 PUSH1 0x1A SSTORE PUSH3 0x169 JUMP JUMPDEST PUSH1 0x1 DUP1 SLOAD PUSH1 0x1 PUSH1 0x1 PUSH1 0xA0 SHL SUB DUP4 DUP2 AND PUSH1 0x1 PUSH1 0x1 PUSH1 0xA0 SHL SUB NOT DUP4 AND DUP2 OR SWAP1 SWAP4 SSTORE PUSH1 0x40 MLOAD SWAP2 AND SWAP2 SWAP1 DUP3 SWAP1 PUSH32 0x8BE0079C531659141344CD1FD0A4F28419497F9722A3DAAFE3B4186F6B6457E0 SWAP1 PUSH1 0x0 SWAP1 LOG3 POP POP JUMP JUMPDEST PUSH1 0x0 PUSH3 0x10E DUP4 PUSH1 0x1 PUSH1 0x1 PUSH1 0xA0 SHL SUB DUP5 AND PUSH3 0x117 JUMP JUMPDEST SWAP1 POP JUMPDEST SWAP3 SWAP2 POP POP JUMP JUMPDEST PUSH1 0x0 DUP2 DUP2 MSTORE PUSH1 0x1 DUP4 ADD PUSH1 0x20 MSTORE PUSH1 0x40 DUP2 KECCAK256 SLOAD PUSH3 0x160 JUMPI POP DUP2 SLOAD PUSH1 0x1 DUP2 DUP2 ADD DUP5 SSTORE PUSH1 0x0 DUP5 DUP2 MSTORE PUSH1 0x20 DUP1 DUP3 KECCAK256 SWAP1 SWAP4 ADD DUP5 SWAP1 SSTORE DUP5 SLOAD DUP5 DUP3 MSTORE DUP3 DUP7 ADD SWAP1 SWAP4 MSTORE PUSH1 0x40 SWAP1 KECCAK256 SWAP2 SWAP1 SWAP2 SSTORE PUSH3 0x111 JUMP JUMPDEST POP PUSH1 0x0 PUSH3 0x111 JUMP JUMPDEST PUSH2 0x1B44 DUP1 PUSH3 0x179 PUSH1 0x0 CODECOPY PUSH1 0x0 RETURN INVALID PUSH1 0x80 PUSH1 0x40 MSTORE PUSH1 0x4 CALLDATASIZE LT PUSH2 0x12A JUMPI PUSH1 0x0 CALLDATALOAD PUSH1 0xE0 SHR DUP1 PUSH4 0x8F1EAE4C GT PUSH2 0xAB JUMPI DUP1 PUSH4 0xB6B55F25 GT PUSH2 0x6F JUMPI DUP1 PUSH4 0xB6B55F25 EQ PUSH2 0x3E0 JUMPI DUP1 PUSH4 0xCAD5B0F7 EQ PUSH2 0x3F3 JUMPI DUP1 PUSH4 0xCE441B18 EQ PUSH2 0x418 JUMPI DUP1 PUSH4 0xE2D3F423 EQ PUSH2 0x42D JUMPI DUP1 PUSH4 0xF2FDE38B EQ PUSH2 0x491 JUMPI DUP1 PUSH4 0xF8B2CB4F EQ PUSH2 0x4B1 JUMPI PUSH1 0x0 DUP1 REVERT JUMPDEST DUP1 PUSH4 0x8F1EAE4C EQ PUSH2 0x306 JUMPI DUP1 PUSH4 0x95661E70 EQ PUSH2 0x326 JUMPI DUP1 PUSH4 0xAB33985A EQ PUSH2 0x33B JUMPI DUP1 PUSH4 0xACFB2355 EQ PUSH2 0x350 JUMPI DUP1 PUSH4 0xAD5C4648 EQ PUSH2 0x3C0 JUMPI PUSH1 0x0 DUP1 REVERT JUMPDEST DUP1 PUSH4 0x56C5F349 GT PUSH2 0xF2 JUMPI DUP1 PUSH4 0x56C5F349 EQ PUSH2 0x273 JUMPI DUP1 PUSH4 0x715018A6 EQ PUSH2 0x2A0 JUMPI DUP1 PUSH4 0x861FAF5F EQ PUSH2 0x2B7 JUMPI DUP1 PUSH4 0x8DA5CB5B EQ PUSH2 0x2BF JUMPI DUP1 PUSH4 0x8EDF18E6 EQ PUSH2 0x2F1 JUMPI PUSH1 0x0 DUP1 REVERT JUMPDEST DUP1 PUSH4 0x12E5D0B9 EQ PUSH2 0x12F JUMPI DUP1 PUSH4 0x18856A2F EQ PUSH2 0x164 JUMPI DUP1 PUSH4 0x1DF4CCFC EQ PUSH2 0x224 JUMPI DUP1 PUSH4 0x200D2ED2 EQ PUSH2 0x248 JUMPI DUP1 PUSH4 0x3B5EF2AD EQ PUSH2 0x25D JUMPI JUMPDEST PUSH1 0x0 DUP1 REVERT JUMPDEST CALLVALUE DUP1 ISZERO PUSH2 0x13B JUMPI PUSH1 0x0 DUP1 REVERT JUMPDEST POP PUSH1 0xB SLOAD PUSH1 0xC SLOAD PUSH2 0x14A SWAP2 SWAP1 DUP3 JUMP JUMPDEST PUSH1 0x40 DUP1 MLOAD SWAP3 DUP4 MSTORE PUSH1 0x20 DUP4 ADD SWAP2 SWAP1 SWAP2 MSTORE ADD JUMPDEST PUSH1 0x40 MLOAD DUP1 SWAP2 SUB SWAP1 RETURN JUMPDEST CALLVALUE DUP1 ISZERO PUSH2 0x170 JUMPI PUSH1 0x0 DUP1 REVERT JUMPDEST POP PUSH1 0xD SLOAD PUSH1 0xE SLOAD PUSH1 0xF SLOAD PUSH1 0x10 SLOAD PUSH1 0x11 SLOAD PUSH1 0x12 SLOAD PUSH1 0x13 SLOAD PUSH1 0x14 SLOAD PUSH1 0x15 SLOAD PUSH1 0x16 SLOAD PUSH1 0x17 SLOAD PUSH1 0x18 SLOAD PUSH2 0x1B8 SWAP12 PUSH1 0x1 PUSH1 0x1 PUSH1 0xA0 SHL SUB SWAP1 DUP2 AND SWAP12 DUP2 AND SWAP11 AND SWAP9 SWAP8 SWAP7 SWAP6 SWAP5 SWAP4 SWAP3 SWAP2 PUSH1 0xFF AND SWAP1 DUP13 JUMP JUMPDEST PUSH1 0x40 DUP1 MLOAD PUSH1 0x1 PUSH1 0x1 PUSH1 0xA0 SHL SUB SWAP14 DUP15 AND DUP2 MSTORE SWAP12 DUP14 AND PUSH1 0x20 DUP14 ADD MSTORE SWAP10 SWAP1 SWAP12 AND SWAP9 DUP11 ADD SWAP9 SWAP1 SWAP9 MSTORE PUSH1 0x60 DUP10 ADD SWAP7 SWAP1 SWAP7 MSTORE PUSH1 0x80 DUP9 ADD SWAP5 SWAP1 SWAP5 MSTORE PUSH1 0xA0 DUP8 ADD SWAP3 SWAP1 SWAP3 MSTORE PUSH1 0xC0 DUP7 ADD MSTORE PUSH1 0xE0 DUP6 ADD MSTORE PUSH2 0x100 DUP5 ADD MSTORE PUSH2 0x120 DUP4 ADD MSTORE ISZERO ISZERO PUSH2 0x140 DUP3 ADD MSTORE PUSH2 0x160 DUP2 ADD SWAP2 SWAP1 SWAP2 MSTORE PUSH2 0x180 ADD PUSH2 0x15B JUMP JUMPDEST CALLVALUE DUP1 ISZERO PUSH2 0x230 JUMPI PUSH1 0x0 DUP1 REVERT JUMPDEST POP PUSH2 0x23A PUSH1 0x1D SLOAD DUP2 JUMP JUMPDEST PUSH1 0x40 MLOAD SWAP1 DUP2 MSTORE PUSH1 0x20 ADD PUSH2 0x15B JUMP JUMPDEST CALLVALUE DUP1 ISZERO PUSH2 0x254 JUMPI PUSH1 0x0 DUP1 REVERT JUMPDEST POP PUSH2 0x23A PUSH2 0x4D9 JUMP JUMPDEST CALLVALUE DUP1 ISZERO PUSH2 0x269 JUMPI PUSH1 0x0 DUP1 REVERT JUMPDEST POP PUSH2 0x23A PUSH1 0x1A SLOAD DUP2 JUMP JUMPDEST CALLVALUE DUP1 ISZERO PUSH2 0x27F JUMPI PUSH1 0x0 DUP1 REVERT JUMPDEST POP PUSH2 0x23A PUSH2 0x28E CALLDATASIZE PUSH1 0x4 PUSH2 0x172D JUMP JUMPDEST PUSH1 0x3 PUSH1 0x20 MSTORE PUSH1 0x0 SWAP1 DUP2 MSTORE PUSH1 0x40 SWAP1 KECCAK256 SLOAD DUP2 JUMP JUMPDEST CALLVALUE DUP1 ISZERO PUSH2 0x2AC JUMPI PUSH1 0x0 DUP1 REVERT JUMPDEST POP PUSH2 0x2B5 PUSH2 0x502 JUMP JUMPDEST STOP JUMPDEST PUSH2 0x2B5 PUSH2 0x56D JUMP JUMPDEST CALLVALUE DUP1 ISZERO PUSH2 0x2CB JUMPI PUSH1 0x0 DUP1 REVERT JUMPDEST POP PUSH1 0x1 SLOAD PUSH1 0x1 PUSH1 0x1 PUSH1 0xA0 SHL SUB AND JUMPDEST PUSH1 0x40 MLOAD PUSH1 0x1 PUSH1 0x1 PUSH1 0xA0 SHL SUB SWAP1 SWAP2 AND DUP2 MSTORE PUSH1 0x20 ADD PUSH2 0x15B JUMP JUMPDEST CALLVALUE DUP1 ISZERO PUSH2 0x2FD JUMPI PUSH1 0x0 DUP1 REVERT JUMPDEST POP PUSH2 0x2B5 PUSH2 0x59C JUMP JUMPDEST CALLVALUE DUP1 ISZERO PUSH2 0x312 JUMPI PUSH1 0x0 DUP1 REVERT JUMPDEST POP PUSH2 0x2B5 PUSH2 0x321 CALLDATASIZE PUSH1 0x4 PUSH2 0x1751 JUMP JUMPDEST PUSH2 0x827 JUMP JUMPDEST CALLVALUE DUP1 ISZERO PUSH2 0x332 JUMPI PUSH1 0x0 DUP1 REVERT JUMPDEST POP PUSH2 0x2B5 PUSH2 0xBA2 JUMP JUMPDEST CALLVALUE DUP1 ISZERO PUSH2 0x347 JUMPI PUSH1 0x0 DUP1 REVERT JUMPDEST POP PUSH2 0x2B5 PUSH2 0xD52 JUMP JUMPDEST CALLVALUE DUP1 ISZERO PUSH2 0x35C JUMPI PUSH1 0x0 DUP1 REVERT JUMPDEST POP PUSH1 0x4 SLOAD PUSH1 0x5 SLOAD PUSH1 0x6 SLOAD PUSH1 0x7 SLOAD PUSH1 0x8 SLOAD PUSH1 0x9 SLOAD PUSH2 0x387 SWAP6 SWAP5 SWAP4 SWAP3 SWAP2 SWAP1 PUSH1 0xFF DUP1 DUP3 AND SWAP2 PUSH2 0x100 SWAP1 DIV AND DUP8 JUMP JUMPDEST PUSH1 0x40 DUP1 MLOAD SWAP8 DUP9 MSTORE PUSH1 0x20 DUP9 ADD SWAP7 SWAP1 SWAP7 MSTORE SWAP5 DUP7 ADD SWAP4 SWAP1 SWAP4 MSTORE PUSH1 0x60 DUP6 ADD SWAP2 SWAP1 SWAP2 MSTORE PUSH1 0x80 DUP5 ADD MSTORE ISZERO ISZERO PUSH1 0xA0 DUP4 ADD MSTORE ISZERO ISZERO PUSH1 0xC0 DUP3 ADD MSTORE PUSH1 0xE0 ADD PUSH2 0x15B JUMP JUMPDEST CALLVALUE DUP1 ISZERO PUSH2 0x3CC JUMPI PUSH1 0x0 DUP1 REVERT JUMPDEST POP PUSH1 0x19 SLOAD PUSH2 0x2D9 SWAP1 PUSH1 0x1 PUSH1 0x1 PUSH1 0xA0 SHL SUB AND DUP2 JUMP JUMPDEST PUSH2 0x2B5 PUSH2 0x3EE CALLDATASIZE PUSH1 0x4 PUSH2 0x1838 JUMP JUMPDEST PUSH2 0xF19 JUMP JUMPDEST CALLVALUE DUP1 ISZERO PUSH2 0x3FF JUMPI PUSH1 0x0 DUP1 REVERT JUMPDEST POP PUSH2 0x408 PUSH2 0x12E8 JUMP JUMPDEST PUSH1 0x40 MLOAD SWAP1 ISZERO ISZERO DUP2 MSTORE PUSH1 0x20 ADD PUSH2 0x15B JUMP JUMPDEST CALLVALUE DUP1 ISZERO PUSH2 0x424 JUMPI PUSH1 0x0 DUP1 REVERT JUMPDEST POP PUSH2 0x2B5 PUSH2 0x12FA JUMP JUMPDEST CALLVALUE DUP1 ISZERO PUSH2 0x439 JUMPI PUSH1 0x0 DUP1 REVERT JUMPDEST POP PUSH2 0x471 PUSH2 0x448 CALLDATASIZE PUSH1 0x4 PUSH2 0x172D JUMP JUMPDEST PUSH1 0x2 PUSH1 0x20 DUP2 SWAP1 MSTORE PUSH1 0x0 SWAP2 DUP3 MSTORE PUSH1 0x40 SWAP1 SWAP2 KECCAK256 DUP1 SLOAD PUSH1 0x1 DUP3 ADD SLOAD SWAP3 DUP3 ADD SLOAD PUSH1 0x3 SWAP1 SWAP3 ADD SLOAD SWAP1 SWAP3 SWAP2 SWAP1 DUP5 JUMP JUMPDEST PUSH1 0x40 DUP1 MLOAD SWAP5 DUP6 MSTORE PUSH1 0x20 DUP6 ADD SWAP4 SWAP1 SWAP4 MSTORE SWAP2 DUP4 ADD MSTORE PUSH1 0x60 DUP3 ADD MSTORE PUSH1 0x80 ADD PUSH2 0x15B JUMP JUMPDEST CALLVALUE DUP1 ISZERO PUSH2 0x49D JUMPI PUSH1 0x0 DUP1 REVERT JUMPDEST POP PUSH2 0x2B5 PUSH2 0x4AC CALLDATASIZE PUSH1 0x4 PUSH2 0x172D JUMP JUMPDEST PUSH2 0x1430 JUMP JUMPDEST CALLVALUE DUP1 ISZERO PUSH2 0x4BD JUMPI PUSH1 0x0 DUP1 REVERT JUMPDEST POP PUSH2 0x23A PUSH2 0x4CC CALLDATASIZE PUSH1 0x4 PUSH2 0x172D JUMP JUMPDEST PUSH1 0x1 PUSH1 0x1 PUSH1 0xA0 SHL SUB AND BALANCE SWAP1 JUMP JUMPDEST PUSH1 0x11 SLOAD PUSH1 0x0 SWAP1 TIMESTAMP LT ISZERO PUSH2 0x4EC JUMPI POP PUSH1 0x0 SWAP1 JUMP JUMPDEST PUSH1 0x12 SLOAD TIMESTAMP GT ISZERO PUSH2 0x4FC JUMPI POP PUSH1 0x2 SWAP1 JUMP JUMPDEST POP PUSH1 0x1 SWAP1 JUMP JUMPDEST PUSH1 0x1 SLOAD PUSH1 0x1 PUSH1 0x1 PUSH1 0xA0 SHL SUB AND CALLER EQ PUSH2 0x561 JUMPI PUSH1 0x40 MLOAD PUSH3 0x461BCD PUSH1 0xE5 SHL DUP2 MSTORE PUSH1 0x20 PUSH1 0x4 DUP3 ADD DUP2 SWAP1 MSTORE PUSH1 0x24 DUP3 ADD MSTORE PUSH32 0x4F776E61626C653A2063616C6C6572206973206E6F7420746865206F776E6572 PUSH1 0x44 DUP3 ADD MSTORE PUSH1 0x64 ADD JUMPDEST PUSH1 0x40 MLOAD DUP1 SWAP2 SUB SWAP1 REVERT JUMPDEST PUSH2 0x56B PUSH1 0x0 PUSH2 0x1516 JUMP JUMPDEST JUMP JUMPDEST PUSH1 0x40 MLOAD CALLER SWAP1 SELFBALANCE DUP1 ISZERO PUSH2 0x8FC MUL SWAP2 PUSH1 0x0 DUP2 DUP2 DUP2 DUP6 DUP9 DUP9 CALL SWAP4 POP POP POP POP ISZERO DUP1 ISZERO PUSH2 0x599 JUMPI RETURNDATASIZE PUSH1 0x0 DUP1 RETURNDATACOPY RETURNDATASIZE PUSH1 0x0 REVERT JUMPDEST POP JUMP JUMPDEST PUSH1 0xD SLOAD PUSH1 0x1 PUSH1 0x1 PUSH1 0xA0 SHL SUB AND CALLER PUSH1 0x1 PUSH1 0x1 PUSH1 0xA0 SHL SUB AND EQ PUSH2 0x5F4 JUMPI PUSH1 0x40 MLOAD PUSH3 0x461BCD PUSH1 0xE5 SHL DUP2 MSTORE PUSH1 0x20 PUSH1 0x4 DUP3 ADD MSTORE PUSH1 0x12 PUSH1 0x24 DUP3 ADD MSTORE PUSH18 0x27B7363C90383932B9B0B6329037BBB732B9 PUSH1 0x71 SHL PUSH1 0x44 DUP3 ADD MSTORE PUSH1 0x64 ADD PUSH2 0x558 JUMP JUMPDEST PUSH1 0x2 PUSH1 0x0 SLOAD EQ ISZERO PUSH2 0x617 JUMPI PUSH1 0x40 MLOAD PUSH3 0x461BCD PUSH1 0xE5 SHL DUP2 MSTORE PUSH1 0x4 ADD PUSH2 0x558 SWAP1 PUSH2 0x1920 JUMP JUMPDEST PUSH1 0x2 PUSH1 0x0 SSTORE PUSH1 0x9 SLOAD PUSH1 0xFF AND ISZERO PUSH2 0x66F JUMPI PUSH1 0x40 MLOAD PUSH3 0x461BCD PUSH1 0xE5 SHL DUP2 MSTORE PUSH1 0x20 PUSH1 0x4 DUP3 ADD MSTORE PUSH1 0x1D PUSH1 0x24 DUP3 ADD MSTORE PUSH32 0x4E6F7468696E6720666F72206F776E657220636C61696D20746F6B656E000000 PUSH1 0x44 DUP3 ADD MSTORE PUSH1 0x64 ADD PUSH2 0x558 JUMP JUMPDEST PUSH1 0x9 SLOAD PUSH2 0x100 SWAP1 DIV PUSH1 0xFF AND ISZERO PUSH2 0x6C7 JUMPI PUSH1 0x40 MLOAD PUSH3 0x461BCD PUSH1 0xE5 SHL DUP2 MSTORE PUSH1 0x20 PUSH1 0x4 DUP3 ADD MSTORE PUSH1 0x1E PUSH1 0x24 DUP3 ADD MSTORE PUSH32 0x4E6F7468696E6720666F72206F776E657220726566756E6420746F6B656E0000 PUSH1 0x44 DUP3 ADD MSTORE PUSH1 0x64 ADD PUSH2 0x558 JUMP JUMPDEST PUSH1 0xE SLOAD PUSH1 0x40 MLOAD PUSH4 0x70A08231 PUSH1 0xE0 SHL DUP2 MSTORE ADDRESS PUSH1 0x4 DUP3 ADD MSTORE PUSH1 0x0 SWAP2 PUSH1 0x1 PUSH1 0x1 PUSH1 0xA0 SHL SUB AND SWAP1 PUSH4 0x70A08231 SWAP1 PUSH1 0x24 ADD PUSH1 0x20 PUSH1 0x40 MLOAD DUP1 DUP4 SUB DUP2 DUP7 DUP1 EXTCODESIZE ISZERO DUP1 ISZERO PUSH2 0x70B JUMPI PUSH1 0x0 DUP1 REVERT JUMPDEST POP GAS STATICCALL ISZERO DUP1 ISZERO PUSH2 0x71F JUMPI RETURNDATASIZE PUSH1 0x0 DUP1 RETURNDATACOPY RETURNDATASIZE PUSH1 0x0 REVERT JUMPDEST POP POP POP POP PUSH1 0x40 MLOAD RETURNDATASIZE PUSH1 0x1F NOT PUSH1 0x1F DUP3 ADD AND DUP3 ADD DUP1 PUSH1 0x40 MSTORE POP DUP2 ADD SWAP1 PUSH2 0x743 SWAP2 SWAP1 PUSH2 0x1851 JUMP JUMPDEST PUSH1 0x9 DUP1 SLOAD PUSH1 0xFF NOT AND PUSH1 0x1 OR SWAP1 SSTORE PUSH1 0x0 PUSH1 0x18 SSTORE PUSH1 0xE SLOAD PUSH1 0xD SLOAD PUSH1 0x40 MLOAD PUSH4 0xA9059CBB PUSH1 0xE0 SHL DUP2 MSTORE PUSH1 0x1 PUSH1 0x1 PUSH1 0xA0 SHL SUB SWAP2 DUP3 AND PUSH1 0x4 DUP3 ADD MSTORE PUSH1 0x24 DUP2 ADD DUP5 SWAP1 MSTORE SWAP3 SWAP4 POP SELFBALANCE SWAP3 SWAP2 AND SWAP1 PUSH4 0xA9059CBB SWAP1 PUSH1 0x44 ADD PUSH1 0x20 PUSH1 0x40 MLOAD DUP1 DUP4 SUB DUP2 PUSH1 0x0 DUP8 DUP1 EXTCODESIZE ISZERO DUP1 ISZERO PUSH2 0x7AA JUMPI PUSH1 0x0 DUP1 REVERT JUMPDEST POP GAS CALL ISZERO DUP1 ISZERO PUSH2 0x7BE JUMPI RETURNDATASIZE PUSH1 0x0 DUP1 RETURNDATACOPY RETURNDATASIZE PUSH1 0x0 REVERT JUMPDEST POP POP POP POP PUSH1 0x40 MLOAD RETURNDATASIZE PUSH1 0x1F NOT PUSH1 0x1F DUP3 ADD AND DUP3 ADD DUP1 PUSH1 0x40 MSTORE POP DUP2 ADD SWAP1 PUSH2 0x7E2 SWAP2 SWAP1 PUSH2 0x1816 JUMP JUMPDEST POP PUSH1 0xD SLOAD PUSH1 0x40 MLOAD PUSH1 0x1 PUSH1 0x1 PUSH1 0xA0 SHL SUB SWAP1 SWAP2 AND SWAP1 DUP3 ISZERO PUSH2 0x8FC MUL SWAP1 DUP4 SWAP1 PUSH1 0x0 DUP2 DUP2 DUP2 DUP6 DUP9 DUP9 CALL SWAP4 POP POP POP POP ISZERO DUP1 ISZERO PUSH2 0x81D JUMPI RETURNDATASIZE PUSH1 0x0 DUP1 RETURNDATACOPY RETURNDATASIZE PUSH1 0x0 REVERT JUMPDEST POP POP PUSH1 0x1 PUSH1 0x0 SSTORE POP JUMP JUMPDEST PUSH1 0xD DUP1 SLOAD PUSH1 0x1 PUSH1 0x1 PUSH1 0xA0 SHL SUB DUP1 DUP8 AND PUSH1 0x1 PUSH1 0x1 PUSH1 0xA0 SHL SUB NOT SWAP3 DUP4 AND OR SWAP1 SWAP3 SSTORE PUSH1 0xE DUP1 SLOAD DUP7 DUP5 AND SWAP1 DUP4 AND DUP2 OR SWAP1 SWAP2 SSTORE PUSH1 0xF DUP1 SLOAD SWAP4 DUP7 AND SWAP4 SWAP1 SWAP3 AND SWAP3 SWAP1 SWAP3 OR SWAP1 SSTORE PUSH1 0x40 DUP1 MLOAD PUSH4 0x313CE567 PUSH1 0xE0 SHL DUP2 MSTORE SWAP1 MLOAD PUSH4 0x313CE567 SWAP2 PUSH1 0x4 DUP1 DUP3 ADD SWAP3 PUSH1 0x20 SWAP3 SWAP1 SWAP2 SWAP1 DUP3 SWAP1 SUB ADD DUP2 DUP7 DUP1 EXTCODESIZE ISZERO DUP1 ISZERO PUSH2 0x89C JUMPI PUSH1 0x0 DUP1 REVERT JUMPDEST POP GAS STATICCALL ISZERO DUP1 ISZERO PUSH2 0x8B0 JUMPI RETURNDATASIZE PUSH1 0x0 DUP1 RETURNDATACOPY RETURNDATASIZE PUSH1 0x0 REVERT JUMPDEST POP POP POP POP PUSH1 0x40 MLOAD RETURNDATASIZE PUSH1 0x1F NOT PUSH1 0x1F DUP3 ADD AND DUP3 ADD DUP1 PUSH1 0x40 MSTORE POP DUP2 ADD SWAP1 PUSH2 0x8D4 SWAP2 SWAP1 PUSH2 0x1851 JUMP JUMPDEST PUSH2 0x8DF SWAP1 PUSH1 0xA PUSH2 0x19D4 JUMP JUMPDEST DUP2 MLOAD PUSH2 0x8EB SWAP2 SWAP1 PUSH2 0x1A7C JUMP JUMPDEST PUSH1 0x10 SSTORE PUSH1 0x20 DUP1 DUP3 ADD MLOAD PUSH1 0x11 SSTORE PUSH1 0x40 DUP1 DUP4 ADD MLOAD PUSH1 0x12 SSTORE PUSH1 0x60 DUP4 ADD MLOAD PUSH1 0x13 SSTORE PUSH1 0xF SLOAD DUP2 MLOAD PUSH4 0x313CE567 PUSH1 0xE0 SHL DUP2 MSTORE SWAP2 MLOAD PUSH1 0x1 PUSH1 0x1 PUSH1 0xA0 SHL SUB SWAP1 SWAP2 AND SWAP3 PUSH4 0x313CE567 SWAP3 PUSH1 0x4 DUP1 DUP3 ADD SWAP4 SWAP2 DUP3 SWAP1 SUB ADD DUP2 DUP7 DUP1 EXTCODESIZE ISZERO DUP1 ISZERO PUSH2 0x946 JUMPI PUSH1 0x0 DUP1 REVERT JUMPDEST POP GAS STATICCALL ISZERO DUP1 ISZERO PUSH2 0x95A JUMPI RETURNDATASIZE PUSH1 0x0 DUP1 RETURNDATACOPY RETURNDATASIZE PUSH1 0x0 REVERT JUMPDEST POP POP POP POP PUSH1 0x40 MLOAD RETURNDATASIZE PUSH1 0x1F NOT PUSH1 0x1F DUP3 ADD AND DUP3 ADD DUP1 PUSH1 0x40 MSTORE POP DUP2 ADD SWAP1 PUSH2 0x97E SWAP2 SWAP1 PUSH2 0x1851 JUMP JUMPDEST PUSH2 0x989 SWAP1 PUSH1 0xA PUSH2 0x19D4 JUMP JUMPDEST PUSH1 0x80 DUP3 ADD MLOAD PUSH2 0x998 SWAP2 SWAP1 PUSH2 0x1A7C JUMP JUMPDEST PUSH1 0x14 SSTORE PUSH1 0xA0 DUP2 ADD MLOAD PUSH1 0x15 SSTORE PUSH1 0xC0 DUP2 ADD MLOAD PUSH1 0x16 SSTORE PUSH1 0xF SLOAD PUSH1 0x40 DUP1 MLOAD PUSH4 0x313CE567 PUSH1 0xE0 SHL DUP2 MSTORE SWAP1 MLOAD PUSH1 0x1 PUSH1 0x1 PUSH1 0xA0 SHL SUB SWAP1 SWAP3 AND SWAP2 PUSH4 0x313CE567 SWAP2 PUSH1 0x4 DUP1 DUP3 ADD SWAP3 PUSH1 0x20 SWAP3 SWAP1 SWAP2 SWAP1 DUP3 SWAP1 SUB ADD DUP2 DUP7 DUP1 EXTCODESIZE ISZERO DUP1 ISZERO PUSH2 0x9F0 JUMPI PUSH1 0x0 DUP1 REVERT JUMPDEST POP GAS STATICCALL ISZERO DUP1 ISZERO PUSH2 0xA04 JUMPI RETURNDATASIZE PUSH1 0x0 DUP1 RETURNDATACOPY RETURNDATASIZE PUSH1 0x0 REVERT JUMPDEST POP POP POP POP PUSH1 0x40 MLOAD RETURNDATASIZE PUSH1 0x1F NOT PUSH1 0x1F DUP3 ADD AND DUP3 ADD DUP1 PUSH1 0x40 MSTORE POP DUP2 ADD SWAP1 PUSH2 0xA28 SWAP2 SWAP1 PUSH2 0x1851 JUMP JUMPDEST PUSH2 0xA33 SWAP1 PUSH1 0xA PUSH2 0x19D4 JUMP JUMPDEST PUSH1 0xE0 DUP3 ADD MLOAD PUSH2 0xA42 SWAP2 SWAP1 PUSH2 0x1A7C JUMP JUMPDEST PUSH1 0xB SSTORE PUSH1 0xF SLOAD PUSH1 0x40 DUP1 MLOAD PUSH4 0x313CE567 PUSH1 0xE0 SHL DUP2 MSTORE SWAP1 MLOAD PUSH1 0x1 PUSH1 0x1 PUSH1 0xA0 SHL SUB SWAP1 SWAP3 AND SWAP2 PUSH4 0x313CE567 SWAP2 PUSH1 0x4 DUP1 DUP3 ADD SWAP3 PUSH1 0x20 SWAP3 SWAP1 SWAP2 SWAP1 DUP3 SWAP1 SUB ADD DUP2 DUP7 DUP1 EXTCODESIZE ISZERO DUP1 ISZERO PUSH2 0xA8A JUMPI PUSH1 0x0 DUP1 REVERT JUMPDEST POP GAS STATICCALL ISZERO DUP1 ISZERO PUSH2 0xA9E JUMPI RETURNDATASIZE PUSH1 0x0 DUP1 RETURNDATACOPY RETURNDATASIZE PUSH1 0x0 REVERT JUMPDEST POP POP POP POP PUSH1 0x40 MLOAD RETURNDATASIZE PUSH1 0x1F NOT PUSH1 0x1F DUP3 ADD AND DUP3 ADD DUP1 PUSH1 0x40 MSTORE POP DUP2 ADD SWAP1 PUSH2 0xAC2 SWAP2 SWAP1 PUSH2 0x1851 JUMP JUMPDEST PUSH2 0xACD SWAP1 PUSH1 0xA PUSH2 0x19D4 JUMP JUMPDEST PUSH2 0x100 DUP3 ADD MLOAD PUSH2 0xADD SWAP2 SWAP1 PUSH2 0x1A7C JUMP JUMPDEST PUSH1 0xC SSTORE PUSH1 0xF SLOAD PUSH1 0x19 SLOAD PUSH1 0x17 DUP1 SLOAD PUSH1 0xFF NOT AND PUSH1 0x1 PUSH1 0x1 PUSH1 0xA0 SHL SUB SWAP3 DUP4 AND SWAP3 SWAP1 SWAP4 AND SWAP2 DUP3 EQ SWAP3 SWAP1 SWAP3 OR SWAP1 SWAP2 SSTORE PUSH1 0x40 DUP1 MLOAD PUSH4 0x313CE567 PUSH1 0xE0 SHL DUP2 MSTORE SWAP1 MLOAD PUSH4 0x313CE567 SWAP2 PUSH1 0x4 DUP1 DUP3 ADD SWAP3 PUSH1 0x20 SWAP3 SWAP1 SWAP2 SWAP1 DUP3 SWAP1 SUB ADD DUP2 DUP7 DUP1 EXTCODESIZE ISZERO DUP1 ISZERO PUSH2 0xB3D JUMPI PUSH1 0x0 DUP1 REVERT JUMPDEST POP GAS STATICCALL ISZERO DUP1 ISZERO PUSH2 0xB51 JUMPI RETURNDATASIZE PUSH1 0x0 DUP1 RETURNDATACOPY RETURNDATASIZE PUSH1 0x0 REVERT JUMPDEST POP POP POP POP PUSH1 0x40 MLOAD RETURNDATASIZE PUSH1 0x1F NOT PUSH1 0x1F DUP3 ADD AND DUP3 ADD DUP1 PUSH1 0x40 MSTORE POP DUP2 ADD SWAP1 PUSH2 0xB75 SWAP2 SWAP1 PUSH2 0x1851 JUMP JUMPDEST PUSH2 0xB80 SWAP1 PUSH1 0xA PUSH2 0x19D4 JUMP JUMPDEST PUSH1 0xB SLOAD PUSH1 0x10 SLOAD PUSH2 0xB8F SWAP2 PUSH2 0x1568 JUMP JUMPDEST PUSH2 0xB99 SWAP2 SWAP1 PUSH2 0x196F JUMP JUMPDEST PUSH1 0x18 SSTORE POP POP POP POP JUMP JUMPDEST PUSH1 0x2 PUSH1 0x0 SLOAD EQ ISZERO PUSH2 0xBC5 JUMPI PUSH1 0x40 MLOAD PUSH3 0x461BCD PUSH1 0xE5 SHL DUP2 MSTORE PUSH1 0x4 ADD PUSH2 0x558 SWAP1 PUSH2 0x1920 JUMP JUMPDEST PUSH1 0x2 PUSH1 0x0 SSTORE PUSH2 0xBD2 PUSH2 0x4D9 JUMP JUMPDEST PUSH1 0x1 EQ PUSH2 0xC10 JUMPI PUSH1 0x40 MLOAD PUSH3 0x461BCD PUSH1 0xE5 SHL DUP2 MSTORE PUSH1 0x20 PUSH1 0x4 DUP3 ADD MSTORE PUSH1 0xC PUSH1 0x24 DUP3 ADD MSTORE PUSH12 0x53616C652073756365737373 PUSH1 0xA0 SHL PUSH1 0x44 DUP3 ADD MSTORE PUSH1 0x64 ADD PUSH2 0x558 JUMP JUMPDEST PUSH1 0x7 SLOAD PUSH1 0x4 SLOAD PUSH1 0x0 SWAP2 PUSH2 0xC22 SWAP2 PUSH2 0x1A9B JUMP JUMPDEST GT PUSH2 0xC3F JUMPI PUSH1 0x40 MLOAD PUSH3 0x461BCD PUSH1 0xE5 SHL DUP2 MSTORE PUSH1 0x4 ADD PUSH2 0x558 SWAP1 PUSH2 0x18A5 JUMP JUMPDEST CALLER PUSH1 0x0 SWAP1 DUP2 MSTORE PUSH1 0x2 PUSH1 0x20 MSTORE PUSH1 0x40 SWAP1 KECCAK256 DUP1 SLOAD PUSH2 0xCAA JUMPI PUSH1 0x40 MLOAD PUSH3 0x461BCD PUSH1 0xE5 SHL DUP2 MSTORE PUSH1 0x20 PUSH1 0x4 DUP3 ADD MSTORE PUSH1 0x25 PUSH1 0x24 DUP3 ADD MSTORE PUSH32 0x596F7520726566756E6420616C6C206F722068617665206E6F7420626F756768 PUSH1 0x44 DUP3 ADD MSTORE PUSH5 0x1D081E595D PUSH1 0xDA SHL PUSH1 0x64 DUP3 ADD MSTORE PUSH1 0x84 ADD PUSH2 0x558 JUMP JUMPDEST DUP1 SLOAD PUSH1 0x15 SLOAD PUSH1 0x0 SWAP2 PUSH2 0xCD5 SWAP2 PUSH2 0x3E8 SWAP2 PUSH2 0xCCF SWAP2 PUSH2 0xCC9 SWAP1 DUP5 SWAP1 PUSH2 0x1574 JUMP JUMPDEST SWAP1 PUSH2 0x1568 JUMP JUMPDEST SWAP1 PUSH2 0x1580 JUMP JUMPDEST DUP3 SLOAD SWAP1 SWAP2 POP PUSH2 0xCE5 SWAP1 DUP3 SWAP1 PUSH2 0x1A9B JUMP JUMPDEST PUSH1 0x1D PUSH1 0x0 DUP3 DUP3 SLOAD PUSH2 0xCF6 SWAP2 SWAP1 PUSH2 0x1957 JUMP JUMPDEST SWAP1 SWAP2 SSTORE POP POP PUSH1 0x7 DUP1 SLOAD DUP3 SWAP2 SWAP1 PUSH1 0x0 SWAP1 PUSH2 0xD10 SWAP1 DUP5 SWAP1 PUSH2 0x1957 JUMP JUMPDEST SWAP1 SWAP2 SSTORE POP POP PUSH1 0x0 DUP1 DUP4 SSTORE PUSH1 0x1 DUP4 ADD DUP2 SWAP1 SSTORE TIMESTAMP PUSH1 0x2 DUP5 ADD SSTORE PUSH1 0x40 MLOAD CALLER SWAP2 DUP4 ISZERO PUSH2 0x8FC MUL SWAP2 DUP5 SWAP2 DUP2 DUP2 DUP2 DUP6 DUP9 DUP9 CALL SWAP4 POP POP POP POP ISZERO DUP1 ISZERO PUSH2 0x81D JUMPI RETURNDATASIZE PUSH1 0x0 DUP1 RETURNDATACOPY RETURNDATASIZE PUSH1 0x0 REVERT JUMPDEST PUSH1 0x2 PUSH1 0x0 SLOAD EQ ISZERO PUSH2 0xD75 JUMPI PUSH1 0x40 MLOAD PUSH3 0x461BCD PUSH1 0xE5 SHL DUP2 MSTORE PUSH1 0x4 ADD PUSH2 0x558 SWAP1 PUSH2 0x1920 JUMP JUMPDEST PUSH1 0x2 PUSH1 0x0 SSTORE PUSH2 0xD82 PUSH2 0x4D9 JUMP JUMPDEST PUSH1 0x1 EQ PUSH2 0xDC0 JUMPI PUSH1 0x40 MLOAD PUSH3 0x461BCD PUSH1 0xE5 SHL DUP2 MSTORE PUSH1 0x20 PUSH1 0x4 DUP3 ADD MSTORE PUSH1 0xC PUSH1 0x24 DUP3 ADD MSTORE PUSH12 0x53616C652073756365737373 PUSH1 0xA0 SHL PUSH1 0x44 DUP3 ADD MSTORE PUSH1 0x64 ADD PUSH2 0x558 JUMP JUMPDEST PUSH1 0x6 SLOAD PUSH1 0x5 SLOAD PUSH1 0x0 SWAP2 PUSH2 0xDD2 SWAP2 PUSH2 0x1A9B JUMP JUMPDEST GT PUSH2 0xDEF JUMPI PUSH1 0x40 MLOAD PUSH3 0x461BCD PUSH1 0xE5 SHL DUP2 MSTORE PUSH1 0x4 ADD PUSH2 0x558 SWAP1 PUSH2 0x18A5 JUMP JUMPDEST CALLER PUSH1 0x0 SWAP1 DUP2 MSTORE PUSH1 0x2 PUSH1 0x20 MSTORE PUSH1 0x40 SWAP1 KECCAK256 PUSH1 0x3 DUP2 ADD SLOAD PUSH1 0x1 DUP3 ADD SLOAD GT PUSH2 0xE25 JUMPI PUSH1 0x40 MLOAD PUSH3 0x461BCD PUSH1 0xE5 SHL DUP2 MSTORE PUSH1 0x4 ADD PUSH2 0x558 SWAP1 PUSH2 0x18DC JUMP JUMPDEST PUSH1 0x0 PUSH2 0xE4F PUSH2 0x3E8 PUSH2 0xCCF DUP5 PUSH1 0x1 ADD SLOAD PUSH2 0xCC9 PUSH1 0xD PUSH1 0x9 ADD SLOAD PUSH2 0x3E8 PUSH2 0x1574 SWAP1 SWAP2 SWAP1 PUSH4 0xFFFFFFFF AND JUMP JUMPDEST SWAP1 POP DUP1 PUSH1 0x4 PUSH1 0x2 ADD PUSH1 0x0 DUP3 DUP3 SLOAD PUSH2 0xE66 SWAP2 SWAP1 PUSH2 0x1957 JUMP JUMPDEST SWAP1 SWAP2 SSTORE POP POP PUSH1 0x18 DUP1 SLOAD DUP3 SWAP2 SWAP1 PUSH1 0x0 SWAP1 PUSH2 0xE80 SWAP1 DUP5 SWAP1 PUSH2 0x1A9B JUMP JUMPDEST SWAP1 SWAP2 SSTORE POP POP PUSH1 0x0 DUP1 DUP4 SSTORE PUSH1 0x1 DUP4 ADD SSTORE TIMESTAMP PUSH1 0x2 DUP4 ADD SSTORE PUSH1 0xE SLOAD PUSH1 0x40 MLOAD PUSH4 0xA9059CBB PUSH1 0xE0 SHL DUP2 MSTORE CALLER PUSH1 0x4 DUP3 ADD MSTORE PUSH1 0x24 DUP2 ADD DUP4 SWAP1 MSTORE PUSH1 0x1 PUSH1 0x1 PUSH1 0xA0 SHL SUB SWAP1 SWAP2 AND SWAP1 PUSH4 0xA9059CBB SWAP1 PUSH1 0x44 ADD PUSH1 0x20 PUSH1 0x40 MLOAD DUP1 DUP4 SUB DUP2 PUSH1 0x0 DUP8 DUP1 EXTCODESIZE ISZERO DUP1 ISZERO PUSH2 0xEE1 JUMPI PUSH1 0x0 DUP1 REVERT JUMPDEST POP GAS CALL ISZERO DUP1 ISZERO PUSH2 0xEF5 JUMPI RETURNDATASIZE PUSH1 0x0 DUP1 RETURNDATACOPY RETURNDATASIZE PUSH1 0x0 REVERT JUMPDEST POP POP POP POP PUSH1 0x40 MLOAD RETURNDATASIZE PUSH1 0x1F NOT PUSH1 0x1F DUP3 ADD AND DUP3 ADD DUP1 PUSH1 0x40 MSTORE POP DUP2 ADD SWAP1 PUSH2 0x81D SWAP2 SWAP1 PUSH2 0x1816 JUMP JUMPDEST PUSH1 0x2 PUSH1 0x0 SLOAD EQ ISZERO PUSH2 0xF3C JUMPI PUSH1 0x40 MLOAD PUSH3 0x461BCD PUSH1 0xE5 SHL DUP2 MSTORE PUSH1 0x4 ADD PUSH2 0x558 SWAP1 PUSH2 0x1920 JUMP JUMPDEST PUSH1 0x2 PUSH1 0x0 DUP2 DUP2 SSTORE CALLER DUP2 MSTORE PUSH1 0x20 SWAP2 SWAP1 SWAP2 MSTORE PUSH1 0x40 DUP2 KECCAK256 SWAP1 DUP3 SWAP1 DUP2 SWAP1 PUSH2 0x3E8 CALLVALUE DUP4 GT ISZERO PUSH2 0xFA8 JUMPI PUSH1 0x40 MLOAD PUSH3 0x461BCD PUSH1 0xE5 SHL DUP2 MSTORE PUSH1 0x20 PUSH1 0x4 DUP3 ADD MSTORE PUSH1 0x1A PUSH1 0x24 DUP3 ADD MSTORE PUSH32 0x506C656173652070726F76696465206E617669746520636F696E000000000000 PUSH1 0x44 DUP3 ADD MSTORE PUSH1 0x64 ADD PUSH2 0x558 JUMP JUMPDEST PUSH1 0x13 SLOAD DUP4 LT ISZERO PUSH2 0xFED JUMPI PUSH1 0x40 MLOAD PUSH3 0x461BCD PUSH1 0xE5 SHL DUP2 MSTORE PUSH1 0x20 PUSH1 0x4 DUP3 ADD MSTORE PUSH1 0x10 PUSH1 0x24 DUP3 ADD MSTORE PUSH16 0x4E6F7420656E6F7567682076616C7565 PUSH1 0x80 SHL PUSH1 0x44 DUP3 ADD MSTORE PUSH1 0x64 ADD PUSH2 0x558 JUMP JUMPDEST PUSH1 0x14 SLOAD DUP4 GT ISZERO PUSH2 0x1030 JUMPI PUSH1 0x40 MLOAD PUSH3 0x461BCD PUSH1 0xE5 SHL DUP2 MSTORE PUSH1 0x20 PUSH1 0x4 DUP3 ADD MSTORE PUSH1 0xE PUSH1 0x24 DUP3 ADD MSTORE PUSH14 0x4F766572666C6F772076616C7565 PUSH1 0x90 SHL PUSH1 0x44 DUP3 ADD MSTORE PUSH1 0x64 ADD PUSH2 0x558 JUMP JUMPDEST PUSH2 0x1038 PUSH2 0x12E8 JUMP JUMPDEST PUSH2 0x1068 JUMPI PUSH2 0x1059 DUP2 PUSH2 0xCCF DUP6 PUSH2 0xCC9 PUSH1 0x1A SLOAD DUP7 PUSH2 0x1574 SWAP1 SWAP2 SWAP1 PUSH4 0xFFFFFFFF AND JUMP JUMPDEST SWAP3 POP PUSH2 0x1065 DUP4 DUP6 PUSH2 0x1A9B JUMP JUMPDEST SWAP2 POP JUMPDEST DUP5 SLOAD PUSH1 0x14 SLOAD PUSH1 0x0 SWAP2 PUSH2 0x1079 SWAP2 PUSH2 0x1A9B JUMP JUMPDEST PUSH1 0x4 SLOAD PUSH1 0x18 SLOAD SWAP2 SWAP3 POP PUSH1 0x0 SWAP2 PUSH2 0x108F SWAP2 SWAP1 PUSH2 0x1A9B JUMP JUMPDEST SWAP1 POP PUSH1 0x0 DUP2 DUP4 GT PUSH2 0x10A0 JUMPI DUP3 PUSH2 0x10A2 JUMP JUMPDEST DUP2 JUMPDEST SWAP1 POP DUP1 DUP7 GT ISZERO PUSH2 0x10E6 JUMPI PUSH1 0x40 MLOAD PUSH3 0x461BCD PUSH1 0xE5 SHL DUP2 MSTORE PUSH1 0x20 PUSH1 0x4 DUP3 ADD MSTORE PUSH1 0xF PUSH1 0x24 DUP3 ADD MSTORE PUSH15 0x53616C652069732073756363657373 PUSH1 0x88 SHL PUSH1 0x44 DUP3 ADD MSTORE PUSH1 0x64 ADD PUSH2 0x558 JUMP JUMPDEST PUSH1 0x0 PUSH2 0x118D PUSH1 0xD PUSH1 0x2 ADD PUSH1 0x0 SWAP1 SLOAD SWAP1 PUSH2 0x100 EXP SWAP1 DIV PUSH1 0x1 PUSH1 0x1 PUSH1 0xA0 SHL SUB AND PUSH1 0x1 PUSH1 0x1 PUSH1 0xA0 SHL SUB AND PUSH4 0x313CE567 PUSH1 0x40 MLOAD DUP2 PUSH4 0xFFFFFFFF AND PUSH1 0xE0 SHL DUP2 MSTORE PUSH1 0x4 ADD PUSH1 0x20 PUSH1 0x40 MLOAD DUP1 DUP4 SUB DUP2 DUP7 DUP1 EXTCODESIZE ISZERO DUP1 ISZERO PUSH2 0x113C JUMPI PUSH1 0x0 DUP1 REVERT JUMPDEST POP GAS STATICCALL ISZERO DUP1 ISZERO PUSH2 0x1150 JUMPI RETURNDATASIZE PUSH1 0x0 DUP1 RETURNDATACOPY RETURNDATASIZE PUSH1 0x0 REVERT JUMPDEST POP POP POP POP PUSH1 0x40 MLOAD RETURNDATASIZE PUSH1 0x1F NOT PUSH1 0x1F DUP3 ADD AND DUP3 ADD DUP1 PUSH1 0x40 MSTORE POP DUP2 ADD SWAP1 PUSH2 0x1174 SWAP2 SWAP1 PUSH2 0x1851 JUMP JUMPDEST PUSH2 0x117F SWAP1 PUSH1 0xA PUSH2 0x19D4 JUMP JUMPDEST PUSH1 0x10 SLOAD PUSH2 0xCCF SWAP1 DUP11 SWAP1 PUSH2 0x1568 JUMP JUMPDEST SWAP1 POP DUP8 DUP10 PUSH1 0x0 ADD PUSH1 0x0 DUP3 DUP3 SLOAD PUSH2 0x11A3 SWAP2 SWAP1 PUSH2 0x1957 JUMP JUMPDEST SWAP3 POP POP DUP2 SWAP1 SSTORE POP DUP1 DUP10 PUSH1 0x1 ADD PUSH1 0x0 DUP3 DUP3 SLOAD PUSH2 0x11BE SWAP2 SWAP1 PUSH2 0x1957 JUMP JUMPDEST SWAP1 SWAP2 SSTORE POP POP PUSH1 0x4 DUP1 SLOAD DUP9 SWAP2 SWAP1 PUSH1 0x0 SWAP1 PUSH2 0x11D8 SWAP1 DUP5 SWAP1 PUSH2 0x1957 JUMP JUMPDEST SWAP1 SWAP2 SSTORE POP POP PUSH1 0x5 DUP1 SLOAD DUP3 SWAP2 SWAP1 PUSH1 0x0 SWAP1 PUSH2 0x11F2 SWAP1 DUP5 SWAP1 PUSH2 0x1957 JUMP JUMPDEST SWAP1 SWAP2 SSTORE POP POP PUSH1 0x8 DUP1 SLOAD SWAP1 PUSH1 0x0 PUSH2 0x1207 DUP4 PUSH2 0x1AB2 JUMP JUMPDEST SWAP1 SWAP2 SSTORE POP POP CALLER PUSH1 0x0 SWAP1 DUP2 MSTORE PUSH1 0x3 PUSH1 0x20 MSTORE PUSH1 0x40 DUP2 KECCAK256 DUP1 SLOAD DUP9 SWAP3 SWAP1 PUSH2 0x122B SWAP1 DUP5 SWAP1 PUSH2 0x1957 JUMP JUMPDEST SWAP3 POP POP DUP2 SWAP1 SSTORE POP DUP6 PUSH1 0x1D PUSH1 0x0 DUP3 DUP3 SLOAD PUSH2 0x1244 SWAP2 SWAP1 PUSH2 0x1957 JUMP JUMPDEST SWAP1 SWAP2 SSTORE POP POP PUSH1 0x17 SLOAD PUSH1 0xFF AND DUP1 ISZERO PUSH2 0x1264 JUMPI POP CALLVALUE PUSH2 0x1261 DUP8 DUP10 PUSH2 0x1957 JUMP JUMPDEST GT ISZERO JUMPDEST ISZERO PUSH2 0x12AC JUMPI CALLER PUSH2 0x8FC DUP8 PUSH2 0x1278 DUP11 CALLVALUE PUSH2 0x1A9B JUMP JUMPDEST PUSH2 0x1282 SWAP2 SWAP1 PUSH2 0x1A9B JUMP JUMPDEST PUSH1 0x40 MLOAD DUP2 ISZERO SWAP1 SWAP3 MUL SWAP2 PUSH1 0x0 DUP2 DUP2 DUP2 DUP6 DUP9 DUP9 CALL SWAP4 POP POP POP POP ISZERO DUP1 ISZERO PUSH2 0x12AA JUMPI RETURNDATASIZE PUSH1 0x0 DUP1 RETURNDATACOPY RETURNDATASIZE PUSH1 0x0 REVERT JUMPDEST POP JUMPDEST PUSH1 0x17 SLOAD PUSH1 0xFF AND PUSH2 0x12D7 JUMPI PUSH1 0xF SLOAD PUSH2 0x12D7 SWAP1 PUSH1 0x1 PUSH1 0x1 PUSH1 0xA0 SHL SUB AND CALLER ADDRESS PUSH2 0x12D2 DUP11 DUP13 PUSH2 0x1957 JUMP JUMPDEST PUSH2 0x158C JUMP JUMPDEST POP POP PUSH1 0x1 PUSH1 0x0 SSTORE POP POP POP POP POP POP POP POP JUMP JUMPDEST PUSH1 0x0 PUSH2 0x12F5 PUSH1 0x1B CALLER PUSH2 0x16BC JUMP JUMPDEST SWAP1 POP SWAP1 JUMP JUMPDEST PUSH1 0x6 SLOAD PUSH1 0x5 SLOAD PUSH1 0x0 SWAP2 PUSH2 0x130C SWAP2 PUSH2 0x1A9B JUMP JUMPDEST GT PUSH2 0x1329 JUMPI PUSH1 0x40 MLOAD PUSH3 0x461BCD PUSH1 0xE5 SHL DUP2 MSTORE PUSH1 0x4 ADD PUSH2 0x558 SWAP1 PUSH2 0x18A5 JUMP JUMPDEST CALLER PUSH1 0x0 SWAP1 DUP2 MSTORE PUSH1 0x2 PUSH1 0x20 MSTORE PUSH1 0x40 SWAP1 KECCAK256 PUSH1 0x3 DUP2 ADD SLOAD PUSH1 0x1 DUP3 ADD SLOAD GT PUSH2 0x135F JUMPI PUSH1 0x40 MLOAD PUSH3 0x461BCD PUSH1 0xE5 SHL DUP2 MSTORE PUSH1 0x4 ADD PUSH2 0x558 SWAP1 PUSH2 0x18DC JUMP JUMPDEST PUSH1 0x1 DUP2 ADD SLOAD PUSH1 0x6 DUP1 SLOAD PUSH1 0x0 SWAP1 PUSH2 0x1376 SWAP1 DUP5 SWAP1 PUSH2 0x1957 JUMP JUMPDEST SWAP1 SWAP2 SSTORE POP POP PUSH1 0x1 DUP2 ADD SLOAD PUSH1 0x18 DUP1 SLOAD PUSH1 0x0 SWAP1 PUSH2 0x1392 SWAP1 DUP5 SWAP1 PUSH2 0x1A9B JUMP JUMPDEST SWAP1 SWAP2 SSTORE POP POP PUSH1 0x0 DUP1 DUP3 SSTORE PUSH1 0x1 DUP3 ADD DUP2 SWAP1 SSTORE TIMESTAMP PUSH1 0x2 DUP4 ADD SSTORE PUSH1 0xE SLOAD PUSH1 0x40 MLOAD PUSH4 0xA9059CBB PUSH1 0xE0 SHL DUP2 MSTORE CALLER PUSH1 0x4 DUP3 ADD MSTORE PUSH1 0x24 DUP2 ADD SWAP3 SWAP1 SWAP3 MSTORE PUSH1 0x1 PUSH1 0x1 PUSH1 0xA0 SHL SUB AND SWAP1 PUSH4 0xA9059CBB SWAP1 PUSH1 0x44 ADD PUSH1 0x20 PUSH1 0x40 MLOAD DUP1 DUP4 SUB DUP2 PUSH1 0x0 DUP8 DUP1 EXTCODESIZE ISZERO DUP1 ISZERO PUSH2 0x13F4 JUMPI PUSH1 0x0 DUP1 REVERT JUMPDEST POP GAS CALL ISZERO DUP1 ISZERO PUSH2 0x1408 JUMPI RETURNDATASIZE PUSH1 0x0 DUP1 RETURNDATACOPY RETURNDATASIZE PUSH1 0x0 REVERT JUMPDEST POP POP POP POP PUSH1 0x40 MLOAD RETURNDATASIZE PUSH1 0x1F NOT PUSH1 0x1F DUP3 ADD AND DUP3 ADD DUP1 PUSH1 0x40 MSTORE POP DUP2 ADD SWAP1 PUSH2 0x142C SWAP2 SWAP1 PUSH2 0x1816 JUMP JUMPDEST POP POP JUMP JUMPDEST PUSH1 0x1 SLOAD PUSH1 0x1 PUSH1 0x1 PUSH1 0xA0 SHL SUB AND CALLER EQ PUSH2 0x148A JUMPI PUSH1 0x40 MLOAD PUSH3 0x461BCD PUSH1 0xE5 SHL DUP2 MSTORE PUSH1 0x20 PUSH1 0x4 DUP3 ADD DUP2 SWAP1 MSTORE PUSH1 0x24 DUP3 ADD MSTORE PUSH32 0x4F776E61626C653A2063616C6C6572206973206E6F7420746865206F776E6572 PUSH1 0x44 DUP3 ADD MSTORE PUSH1 0x64 ADD PUSH2 0x558 JUMP JUMPDEST PUSH1 0x1 PUSH1 0x1 PUSH1 0xA0 SHL SUB DUP2 AND PUSH2 0x14EF JUMPI PUSH1 0x40 MLOAD PUSH3 0x461BCD PUSH1 0xE5 SHL DUP2 MSTORE PUSH1 0x20 PUSH1 0x4 DUP3 ADD MSTORE PUSH1 0x26 PUSH1 0x24 DUP3 ADD MSTORE PUSH32 0x4F776E61626C653A206E6577206F776E657220697320746865207A65726F2061 PUSH1 0x44 DUP3 ADD MSTORE PUSH6 0x646472657373 PUSH1 0xD0 SHL PUSH1 0x64 DUP3 ADD MSTORE PUSH1 0x84 ADD PUSH2 0x558 JUMP JUMPDEST PUSH2 0x599 DUP2 PUSH2 0x1516 JUMP JUMPDEST PUSH1 0x0 PUSH2 0x150D DUP4 PUSH1 0x1 PUSH1 0x1 PUSH1 0xA0 SHL SUB DUP5 AND PUSH2 0x16DE JUMP JUMPDEST SWAP1 POP JUMPDEST SWAP3 SWAP2 POP POP JUMP JUMPDEST PUSH1 0x1 DUP1 SLOAD PUSH1 0x1 PUSH1 0x1 PUSH1 0xA0 SHL SUB DUP4 DUP2 AND PUSH1 0x1 PUSH1 0x1 PUSH1 0xA0 SHL SUB NOT DUP4 AND DUP2 OR SWAP1 SWAP4 SSTORE PUSH1 0x40 MLOAD SWAP2 AND SWAP2 SWAP1 DUP3 SWAP1 PUSH32 0x8BE0079C531659141344CD1FD0A4F28419497F9722A3DAAFE3B4186F6B6457E0 SWAP1 PUSH1 0x0 SWAP1 LOG3 POP POP JUMP JUMPDEST PUSH1 0x0 PUSH2 0x150D DUP3 DUP5 PUSH2 0x1A7C JUMP JUMPDEST PUSH1 0x0 PUSH2 0x150D DUP3 DUP5 PUSH2 0x1A9B JUMP JUMPDEST PUSH1 0x0 PUSH2 0x150D DUP3 DUP5 PUSH2 0x196F JUMP JUMPDEST PUSH1 0x40 DUP1 MLOAD PUSH1 0x1 PUSH1 0x1 PUSH1 0xA0 SHL SUB DUP6 DUP2 AND PUSH1 0x24 DUP4 ADD MSTORE DUP5 DUP2 AND PUSH1 0x44 DUP4 ADD MSTORE PUSH1 0x64 DUP1 DUP4 ADD DUP6 SWAP1 MSTORE DUP4 MLOAD DUP1 DUP5 SUB SWAP1 SWAP2 ADD DUP2 MSTORE PUSH1 0x84 SWAP1 SWAP3 ADD DUP4 MSTORE PUSH1 0x20 DUP3 ADD DUP1 MLOAD PUSH1 0x1 PUSH1 0x1 PUSH1 0xE0 SHL SUB AND PUSH4 0x23B872DD PUSH1 0xE0 SHL OR SWAP1 MSTORE SWAP2 MLOAD PUSH1 0x0 SWAP3 DUP4 SWAP3 SWAP1 DUP9 AND SWAP2 PUSH2 0x15F0 SWAP2 SWAP1 PUSH2 0x186A JUMP JUMPDEST PUSH1 0x0 PUSH1 0x40 MLOAD DUP1 DUP4 SUB DUP2 PUSH1 0x0 DUP7 GAS CALL SWAP2 POP POP RETURNDATASIZE DUP1 PUSH1 0x0 DUP2 EQ PUSH2 0x162D JUMPI PUSH1 0x40 MLOAD SWAP2 POP PUSH1 0x1F NOT PUSH1 0x3F RETURNDATASIZE ADD AND DUP3 ADD PUSH1 0x40 MSTORE RETURNDATASIZE DUP3 MSTORE RETURNDATASIZE PUSH1 0x0 PUSH1 0x20 DUP5 ADD RETURNDATACOPY PUSH2 0x1632 JUMP JUMPDEST PUSH1 0x60 SWAP2 POP JUMPDEST POP SWAP2 POP SWAP2 POP DUP2 DUP1 ISZERO PUSH2 0x165C JUMPI POP DUP1 MLOAD ISZERO DUP1 PUSH2 0x165C JUMPI POP DUP1 DUP1 PUSH1 0x20 ADD SWAP1 MLOAD DUP2 ADD SWAP1 PUSH2 0x165C SWAP2 SWAP1 PUSH2 0x1816 JUMP JUMPDEST PUSH2 0x16B4 JUMPI PUSH1 0x40 MLOAD PUSH3 0x461BCD PUSH1 0xE5 SHL DUP2 MSTORE PUSH1 0x20 PUSH1 0x4 DUP3 ADD MSTORE PUSH1 0x24 DUP1 DUP3 ADD MSTORE PUSH32 0x5472616E7366657248656C7065723A205452414E534645525F46524F4D5F4641 PUSH1 0x44 DUP3 ADD MSTORE PUSH4 0x12531151 PUSH1 0xE2 SHL PUSH1 0x64 DUP3 ADD MSTORE PUSH1 0x84 ADD PUSH2 0x558 JUMP JUMPDEST POP POP POP POP POP POP JUMP JUMPDEST PUSH1 0x1 PUSH1 0x1 PUSH1 0xA0 SHL SUB DUP2 AND PUSH1 0x0 SWAP1 DUP2 MSTORE PUSH1 0x1 DUP4 ADD PUSH1 0x20 MSTORE PUSH1 0x40 DUP2 KECCAK256 SLOAD ISZERO ISZERO PUSH2 0x150D JUMP JUMPDEST PUSH1 0x0 DUP2 DUP2 MSTORE PUSH1 0x1 DUP4 ADD PUSH1 0x20 MSTORE PUSH1 0x40 DUP2 KECCAK256 SLOAD PUSH2 0x1725 JUMPI POP DUP2 SLOAD PUSH1 0x1 DUP2 DUP2 ADD DUP5 SSTORE PUSH1 0x0 DUP5 DUP2 MSTORE PUSH1 0x20 DUP1 DUP3 KECCAK256 SWAP1 SWAP4 ADD DUP5 SWAP1 SSTORE DUP5 SLOAD DUP5 DUP3 MSTORE DUP3 DUP7 ADD SWAP1 SWAP4 MSTORE PUSH1 0x40 SWAP1 KECCAK256 SWAP2 SWAP1 SWAP2 SSTORE PUSH2 0x1510 JUMP JUMPDEST POP PUSH1 0x0 PUSH2 0x1510 JUMP JUMPDEST PUSH1 0x0 PUSH1 0x20 DUP3 DUP5 SUB SLT ISZERO PUSH2 0x173F JUMPI PUSH1 0x0 DUP1 REVERT JUMPDEST DUP2 CALLDATALOAD PUSH2 0x174A DUP2 PUSH2 0x1AF9 JUMP JUMPDEST SWAP4 SWAP3 POP POP POP JUMP JUMPDEST PUSH1 0x0 DUP1 PUSH1 0x0 DUP1 PUSH2 0x180 DUP1 DUP7 DUP9 SUB SLT ISZERO PUSH2 0x1769 JUMPI PUSH1 0x0 DUP1 REVERT JUMPDEST DUP6 CALLDATALOAD PUSH2 0x1774 DUP2 PUSH2 0x1AF9 JUMP JUMPDEST SWAP5 POP PUSH1 0x20 DUP7 DUP2 ADD CALLDATALOAD PUSH2 0x1785 DUP2 PUSH2 0x1AF9 JUMP JUMPDEST SWAP5 POP PUSH1 0x40 DUP8 ADD CALLDATALOAD PUSH2 0x1795 DUP2 PUSH2 0x1AF9 JUMP JUMPDEST SWAP4 POP PUSH1 0x7F DUP8 ADD DUP9 SGT PUSH2 0x17A6 JUMPI PUSH1 0x0 DUP1 REVERT JUMPDEST PUSH1 0x40 MLOAD PUSH2 0x120 DUP2 ADD DUP2 DUP2 LT PUSH8 0xFFFFFFFFFFFFFFFF DUP3 GT OR ISZERO PUSH2 0x17CA JUMPI PUSH2 0x17CA PUSH2 0x1AE3 JUMP JUMPDEST PUSH1 0x40 MSTORE DUP1 PUSH1 0x60 DUP10 ADD DUP5 DUP11 ADD DUP12 LT ISZERO PUSH2 0x17E1 JUMPI PUSH1 0x0 DUP1 REVERT JUMPDEST PUSH1 0x0 SWAP5 POP JUMPDEST PUSH1 0x9 DUP6 LT ISZERO PUSH2 0x1805 JUMPI DUP1 CALLDATALOAD DUP3 MSTORE PUSH1 0x1 SWAP5 SWAP1 SWAP5 ADD SWAP4 SWAP1 DUP4 ADD SWAP1 DUP4 ADD PUSH2 0x17E6 JUMP JUMPDEST POP POP DUP1 SWAP4 POP POP POP POP SWAP3 SWAP6 SWAP2 SWAP5 POP SWAP3 POP JUMP JUMPDEST PUSH1 0x0 PUSH1 0x20 DUP3 DUP5 SUB SLT ISZERO PUSH2 0x1828 JUMPI PUSH1 0x0 DUP1 REVERT JUMPDEST DUP2 MLOAD DUP1 ISZERO ISZERO DUP2 EQ PUSH2 0x174A JUMPI PUSH1 0x0 DUP1 REVERT JUMPDEST PUSH1 0x0 PUSH1 0x20 DUP3 DUP5 SUB SLT ISZERO PUSH2 0x184A JUMPI PUSH1 0x0 DUP1 REVERT JUMPDEST POP CALLDATALOAD SWAP2 SWAP1 POP JUMP JUMPDEST PUSH1 0x0 PUSH1 0x20 DUP3 DUP5 SUB SLT ISZERO PUSH2 0x1863 JUMPI PUSH1 0x0 DUP1 REVERT JUMPDEST POP MLOAD SWAP2 SWAP1 POP JUMP JUMPDEST PUSH1 0x0 DUP3 MLOAD PUSH1 0x0 JUMPDEST DUP2 DUP2 LT ISZERO PUSH2 0x188B JUMPI PUSH1 0x20 DUP2 DUP7 ADD DUP2 ADD MLOAD DUP6 DUP4 ADD MSTORE ADD PUSH2 0x1871 JUMP JUMPDEST DUP2 DUP2 GT ISZERO PUSH2 0x189A JUMPI PUSH1 0x0 DUP3 DUP6 ADD MSTORE JUMPDEST POP SWAP2 SWAP1 SWAP2 ADD SWAP3 SWAP2 POP POP JUMP JUMPDEST PUSH1 0x20 DUP1 DUP3 MSTORE PUSH1 0x1B SWAP1 DUP3 ADD MSTORE PUSH32 0x416C6C20746F6B656E20686173206265656E2077697468647261770000000000 PUSH1 0x40 DUP3 ADD MSTORE PUSH1 0x60 ADD SWAP1 JUMP JUMPDEST PUSH1 0x20 DUP1 DUP3 MSTORE PUSH1 0x24 SWAP1 DUP3 ADD MSTORE PUSH32 0x596F7520636C61696D20616C6C206F722068617665206E6F7420626F75676874 PUSH1 0x40 DUP3 ADD MSTORE PUSH4 0x81E595D PUSH1 0xE2 SHL PUSH1 0x60 DUP3 ADD MSTORE PUSH1 0x80 ADD SWAP1 JUMP JUMPDEST PUSH1 0x20 DUP1 DUP3 MSTORE PUSH1 0x1F SWAP1 DUP3 ADD MSTORE PUSH32 0x5265656E7472616E637947756172643A207265656E7472616E742063616C6C00 PUSH1 0x40 DUP3 ADD MSTORE PUSH1 0x60 ADD SWAP1 JUMP JUMPDEST PUSH1 0x0 DUP3 NOT DUP3 GT ISZERO PUSH2 0x196A JUMPI PUSH2 0x196A PUSH2 0x1ACD JUMP JUMPDEST POP ADD SWAP1 JUMP JUMPDEST PUSH1 0x0 DUP3 PUSH2 0x198C JUMPI PUSH4 0x4E487B71 PUSH1 0xE0 SHL PUSH1 0x0 MSTORE PUSH1 0x12 PUSH1 0x4 MSTORE PUSH1 0x24 PUSH1 0x0 REVERT JUMPDEST POP DIV SWAP1 JUMP JUMPDEST PUSH1 0x1 DUP2 DUP2 JUMPDEST DUP1 DUP6 GT ISZERO PUSH2 0x19CC JUMPI DUP2 PUSH1 0x0 NOT DIV DUP3 GT ISZERO PUSH2 0x19B2 JUMPI PUSH2 0x19B2 PUSH2 0x1ACD JUMP JUMPDEST DUP1 DUP6 AND ISZERO PUSH2 0x19BF JUMPI SWAP2 DUP2 MUL SWAP2 JUMPDEST SWAP4 DUP5 SHR SWAP4 SWAP1 DUP1 MUL SWAP1 PUSH2 0x1996 JUMP JUMPDEST POP SWAP3 POP SWAP3 SWAP1 POP JUMP JUMPDEST PUSH1 0x0 PUSH2 0x150D DUP4 DUP4 PUSH1 0x0 DUP3 PUSH2 0x19EA JUMPI POP PUSH1 0x1 PUSH2 0x1510 JUMP JUMPDEST DUP2 PUSH2 0x19F7 JUMPI POP PUSH1 0x0 PUSH2 0x1510 JUMP JUMPDEST DUP2 PUSH1 0x1 DUP2 EQ PUSH2 0x1A0D JUMPI PUSH1 0x2 DUP2 EQ PUSH2 0x1A17 JUMPI PUSH2 0x1A33 JUMP JUMPDEST PUSH1 0x1 SWAP2 POP POP PUSH2 0x1510 JUMP JUMPDEST PUSH1 0xFF DUP5 GT ISZERO PUSH2 0x1A28 JUMPI PUSH2 0x1A28 PUSH2 0x1ACD JUMP JUMPDEST POP POP PUSH1 0x1 DUP3 SHL PUSH2 0x1510 JUMP JUMPDEST POP PUSH1 0x20 DUP4 LT PUSH2 0x133 DUP4 LT AND PUSH1 0x4E DUP5 LT PUSH1 0xB DUP5 LT AND OR ISZERO PUSH2 0x1A56 JUMPI POP DUP2 DUP2 EXP PUSH2 0x1510 JUMP JUMPDEST PUSH2 0x1A60 DUP4 DUP4 PUSH2 0x1991 JUMP JUMPDEST DUP1 PUSH1 0x0 NOT DIV DUP3 GT ISZERO PUSH2 0x1A74 JUMPI PUSH2 0x1A74 PUSH2 0x1ACD JUMP JUMPDEST MUL SWAP4 SWAP3 POP POP POP JUMP JUMPDEST PUSH1 0x0 DUP2 PUSH1 0x0 NOT DIV DUP4 GT DUP3 ISZERO ISZERO AND ISZERO PUSH2 0x1A96 JUMPI PUSH2 0x1A96 PUSH2 0x1ACD JUMP JUMPDEST POP MUL SWAP1 JUMP JUMPDEST PUSH1 0x0 DUP3 DUP3 LT ISZERO PUSH2 0x1AAD JUMPI PUSH2 0x1AAD PUSH2 0x1ACD JUMP JUMPDEST POP SUB SWAP1 JUMP JUMPDEST PUSH1 0x0 PUSH1 0x0 NOT DUP3 EQ ISZERO PUSH2 0x1AC6 JUMPI PUSH2 0x1AC6 PUSH2 0x1ACD JUMP JUMPDEST POP PUSH1 0x1 ADD SWAP1 JUMP JUMPDEST PUSH4 0x4E487B71 PUSH1 0xE0 SHL PUSH1 0x0 MSTORE PUSH1 0x11 PUSH1 0x4 MSTORE PUSH1 0x24 PUSH1 0x0 REVERT JUMPDEST PUSH4 0x4E487B71 PUSH1 0xE0 SHL PUSH1 0x0 MSTORE PUSH1 0x41 PUSH1 0x4 MSTORE PUSH1 0x24 PUSH1 0x0 REVERT JUMPDEST PUSH1 0x1 PUSH1 0x1 PUSH1 0xA0 SHL SUB DUP2 AND DUP2 EQ PUSH2 0x599 JUMPI PUSH1 0x0 DUP1 REVERT INVALID LOG2 PUSH5 0x6970667358 0x22 SLT KECCAK256 SWAP9 SAR RETURNDATASIZE SIGNEXTEND SWAP5 0xB3 0xF7 0xFC DUP7 0x24 MLOAD SMOD CALLER EXP COINBASE PUSH2 0x8159 SWAP11 CALL 0xB9 0x25 SWAP13 PUSH26 0x8A187393FE60D8BD64736F6C6343000805003300000000000000 "
				},
				"gasEstimates": {
					"creation": {
						"codeDepositCost": "1396000",
						"executionCost": "infinite",
						"totalCost": "infinite"
					},
					"external": {
						"WETH()": "2448",
						"backToken()": "infinite",
						"buyerInfo(address)": "9012",
						"checkAdminAddress()": "2521",
						"deposit(uint256)": "infinite",
						"feeAnyone()": "2407",
						"getBalance(address)": "3094",
						"initialSaleInfor(address,address,address,uint256[9])": "infinite",
						"owner()": "2409",
						"ownerClaimAndRefundToken()": "infinite",
						"presaleStatus()": "13078",
						"renounceOwnership()": "28162",
						"saleInfor()": "25810",
						"saleTotalSupply()": "4441",
						"status()": "4555",
						"totalFee()": "2363",
						"transferOwnership(address)": "infinite",
						"userClaimEmergency()": "infinite",
						"userClaimWhenSaleSuccess()": "infinite",
						"userFee(address)": "2536",
						"userRefundEmergency()": "infinite"
					}
				},
				"methodIdentifiers": {
					"WETH()": "ad5c4648",
					"backToken()": "861faf5f",
					"buyerInfo(address)": "e2d3f423",
					"checkAdminAddress()": "cad5b0f7",
					"deposit(uint256)": "b6b55f25",
					"feeAnyone()": "3b5ef2ad",
					"getBalance(address)": "f8b2cb4f",
					"initialSaleInfor(address,address,address,uint256[9])": "8f1eae4c",
					"owner()": "8da5cb5b",
					"ownerClaimAndRefundToken()": "8edf18e6",
					"presaleStatus()": "acfb2355",
					"renounceOwnership()": "715018a6",
					"saleInfor()": "18856a2f",
					"saleTotalSupply()": "12e5d0b9",
					"status()": "200d2ed2",
					"totalFee()": "1df4ccfc",
					"transferOwnership(address)": "f2fde38b",
					"userClaimEmergency()": "ab33985a",
					"userClaimWhenSaleSuccess()": "ce441b18",
					"userFee(address)": "56c5f349",
					"userRefundEmergency()": "95661e70"
				}
			},
			"storageLayout": {
				"storage": [
					{
						"astId": 2445,
						"contract": "Ethereum/Presale.sol:Presale",
						"label": "_status",
						"offset": 0,
						"slot": "0",
						"type": "t_uint256"
					},
					{
						"astId": 2337,
						"contract": "Ethereum/Presale.sol:Presale",
						"label": "_owner",
						"offset": 0,
						"slot": "1",
						"type": "t_address"
					},
					{
						"astId": 772,
						"contract": "Ethereum/Presale.sol:Presale",
						"label": "buyerInfo",
						"offset": 0,
						"slot": "2",
						"type": "t_mapping(t_address,t_struct(BuyerInfo)749_storage)"
					},
					{
						"astId": 776,
						"contract": "Ethereum/Presale.sol:Presale",
						"label": "userFee",
						"offset": 0,
						"slot": "3",
						"type": "t_mapping(t_address,t_uint256)"
					},
					{
						"astId": 779,
						"contract": "Ethereum/Presale.sol:Presale",
						"label": "presaleStatus",
						"offset": 0,
						"slot": "4",
						"type": "t_struct(PresaleStatus)767_storage"
					},
					{
						"astId": 782,
						"contract": "Ethereum/Presale.sol:Presale",
						"label": "saleTotalSupply",
						"offset": 0,
						"slot": "11",
						"type": "t_struct(SaleTotalSupply)740_storage"
					},
					{
						"astId": 785,
						"contract": "Ethereum/Presale.sol:Presale",
						"label": "saleInfor",
						"offset": 0,
						"slot": "13",
						"type": "t_struct(SaleInfor)735_storage"
					},
					{
						"astId": 788,
						"contract": "Ethereum/Presale.sol:Presale",
						"label": "WETH",
						"offset": 0,
						"slot": "25",
						"type": "t_contract(IERC20)663"
					},
					{
						"astId": 790,
						"contract": "Ethereum/Presale.sol:Presale",
						"label": "feeAnyone",
						"offset": 0,
						"slot": "26",
						"type": "t_uint256"
					},
					{
						"astId": 793,
						"contract": "Ethereum/Presale.sol:Presale",
						"label": "admins",
						"offset": 0,
						"slot": "27",
						"type": "t_struct(AddressSet)2042_storage"
					},
					{
						"astId": 795,
						"contract": "Ethereum/Presale.sol:Presale",
						"label": "totalFee",
						"offset": 0,
						"slot": "29",
						"type": "t_uint256"
					}
				],
				"types": {
					"t_address": {
						"encoding": "inplace",
						"label": "address",
						"numberOfBytes": "20"
					},
					"t_address_payable": {
						"encoding": "inplace",
						"label": "address payable",
						"numberOfBytes": "20"
					},
					"t_array(t_address)dyn_storage": {
						"base": "t_address",
						"encoding": "dynamic_array",
						"label": "address[]",
						"numberOfBytes": "32"
					},
					"t_array(t_bytes32)dyn_storage": {
						"base": "t_bytes32",
						"encoding": "dynamic_array",
						"label": "bytes32[]",
						"numberOfBytes": "32"
					},
					"t_bool": {
						"encoding": "inplace",
						"label": "bool",
						"numberOfBytes": "1"
					},
					"t_bytes32": {
						"encoding": "inplace",
						"label": "bytes32",
						"numberOfBytes": "32"
					},
					"t_contract(ERC20)585": {
						"encoding": "inplace",
						"label": "contract ERC20",
						"numberOfBytes": "20"
					},
					"t_contract(IERC20)663": {
						"encoding": "inplace",
						"label": "contract IERC20",
						"numberOfBytes": "20"
					},
					"t_mapping(t_address,t_struct(BuyerInfo)749_storage)": {
						"encoding": "mapping",
						"key": "t_address",
						"label": "mapping(address => struct Presale.BuyerInfo)",
						"numberOfBytes": "32",
						"value": "t_struct(BuyerInfo)749_storage"
					},
					"t_mapping(t_address,t_uint256)": {
						"encoding": "mapping",
						"key": "t_address",
						"label": "mapping(address => uint256)",
						"numberOfBytes": "32",
						"value": "t_uint256"
					},
					"t_mapping(t_bytes32,t_uint256)": {
						"encoding": "mapping",
						"key": "t_bytes32",
						"label": "mapping(bytes32 => uint256)",
						"numberOfBytes": "32",
						"value": "t_uint256"
					},
					"t_struct(AddressSet)2042_storage": {
						"encoding": "inplace",
						"label": "struct EnumerableSet.AddressSet",
						"members": [
							{
								"astId": 2041,
								"contract": "Ethereum/Presale.sol:Presale",
								"label": "_inner",
								"offset": 0,
								"slot": "0",
								"type": "t_struct(Set)1741_storage"
							}
						],
						"numberOfBytes": "64"
					},
					"t_struct(BuyerInfo)749_storage": {
						"encoding": "inplace",
						"label": "struct Presale.BuyerInfo",
						"members": [
							{
								"astId": 742,
								"contract": "Ethereum/Presale.sol:Presale",
								"label": "baseDeposit",
								"offset": 0,
								"slot": "0",
								"type": "t_uint256"
							},
							{
								"astId": 744,
								"contract": "Ethereum/Presale.sol:Presale",
								"label": "tokenOwner",
								"offset": 0,
								"slot": "1",
								"type": "t_uint256"
							},
							{
								"astId": 746,
								"contract": "Ethereum/Presale.sol:Presale",
								"label": "lastWithDraw",
								"offset": 0,
								"slot": "2",
								"type": "t_uint256"
							},
							{
								"astId": 748,
								"contract": "Ethereum/Presale.sol:Presale",
								"label": "totalTokenWithDraw",
								"offset": 0,
								"slot": "3",
								"type": "t_uint256"
							}
						],
						"numberOfBytes": "128"
					},
					"t_struct(PresaleStatus)767_storage": {
						"encoding": "inplace",
						"label": "struct Presale.PresaleStatus",
						"members": [
							{
								"astId": 751,
								"contract": "Ethereum/Presale.sol:Presale",
								"label": "totalBaseCollected",
								"offset": 0,
								"slot": "0",
								"type": "t_uint256"
							},
							{
								"astId": 753,
								"contract": "Ethereum/Presale.sol:Presale",
								"label": "totalTokenSold",
								"offset": 0,
								"slot": "1",
								"type": "t_uint256"
							},
							{
								"astId": 755,
								"contract": "Ethereum/Presale.sol:Presale",
								"label": "totalTokenWithDraw",
								"offset": 0,
								"slot": "2",
								"type": "t_uint256"
							},
							{
								"astId": 757,
								"contract": "Ethereum/Presale.sol:Presale",
								"label": "totalBaseWithDraw",
								"offset": 0,
								"slot": "3",
								"type": "t_uint256"
							},
							{
								"astId": 759,
								"contract": "Ethereum/Presale.sol:Presale",
								"label": "numberBuyer",
								"offset": 0,
								"slot": "4",
								"type": "t_uint256"
							},
							{
								"astId": 761,
								"contract": "Ethereum/Presale.sol:Presale",
								"label": "isOwnerClaimSaleToken",
								"offset": 0,
								"slot": "5",
								"type": "t_bool"
							},
							{
								"astId": 763,
								"contract": "Ethereum/Presale.sol:Presale",
								"label": "isOwnerRefundBaseToken",
								"offset": 1,
								"slot": "5",
								"type": "t_bool"
							},
							{
								"astId": 766,
								"contract": "Ethereum/Presale.sol:Presale",
								"label": "admin",
								"offset": 0,
								"slot": "6",
								"type": "t_array(t_address)dyn_storage"
							}
						],
						"numberOfBytes": "224"
					},
					"t_struct(SaleInfor)735_storage": {
						"encoding": "inplace",
						"label": "struct Presale.SaleInfor",
						"members": [
							{
								"astId": 710,
								"contract": "Ethereum/Presale.sol:Presale",
								"label": "presaleOwner",
								"offset": 0,
								"slot": "0",
								"type": "t_address_payable"
							},
							{
								"astId": 713,
								"contract": "Ethereum/Presale.sol:Presale",
								"label": "saleToken",
								"offset": 0,
								"slot": "1",
								"type": "t_contract(ERC20)585"
							},
							{
								"astId": 716,
								"contract": "Ethereum/Presale.sol:Presale",
								"label": "baseToken",
								"offset": 0,
								"slot": "2",
								"type": "t_contract(ERC20)585"
							},
							{
								"astId": 718,
								"contract": "Ethereum/Presale.sol:Presale",
								"label": "tokenPrice",
								"offset": 0,
								"slot": "3",
								"type": "t_uint256"
							},
							{
								"astId": 720,
								"contract": "Ethereum/Presale.sol:Presale",
								"label": "startSale",
								"offset": 0,
								"slot": "4",
								"type": "t_uint256"
							},
							{
								"astId": 722,
								"contract": "Ethereum/Presale.sol:Presale",
								"label": "endSale",
								"offset": 0,
								"slot": "5",
								"type": "t_uint256"
							},
							{
								"astId": 724,
								"contract": "Ethereum/Presale.sol:Presale",
								"label": "minSpendPerBuyer",
								"offset": 0,
								"slot": "6",
								"type": "t_uint256"
							},
							{
								"astId": 726,
								"contract": "Ethereum/Presale.sol:Presale",
								"label": "maxSpendPerBuyer",
								"offset": 0,
								"slot": "7",
								"type": "t_uint256"
							},
							{
								"astId": 728,
								"contract": "Ethereum/Presale.sol:Presale",
								"label": "refundFee",
								"offset": 0,
								"slot": "8",
								"type": "t_uint256"
							},
							{
								"astId": 730,
								"contract": "Ethereum/Presale.sol:Presale",
								"label": "claimFee",
								"offset": 0,
								"slot": "9",
								"type": "t_uint256"
							},
							{
								"astId": 732,
								"contract": "Ethereum/Presale.sol:Presale",
								"label": "saleIsBaseToken",
								"offset": 0,
								"slot": "10",
								"type": "t_bool"
							},
							{
								"astId": 734,
								"contract": "Ethereum/Presale.sol:Presale",
								"label": "amountTokenForSale",
								"offset": 0,
								"slot": "11",
								"type": "t_uint256"
							}
						],
						"numberOfBytes": "384"
					},
					"t_struct(SaleTotalSupply)740_storage": {
						"encoding": "inplace",
						"label": "struct Presale.SaleTotalSupply",
						"members": [
							{
								"astId": 737,
								"contract": "Ethereum/Presale.sol:Presale",
								"label": "hardCap",
								"offset": 0,
								"slot": "0",
								"type": "t_uint256"
							},
							{
								"astId": 739,
								"contract": "Ethereum/Presale.sol:Presale",
								"label": "softCap",
								"offset": 0,
								"slot": "1",
								"type": "t_uint256"
							}
						],
						"numberOfBytes": "64"
					},
					"t_struct(Set)1741_storage": {
						"encoding": "inplace",
						"label": "struct EnumerableSet.Set",
						"members": [
							{
								"astId": 1736,
								"contract": "Ethereum/Presale.sol:Presale",
								"label": "_values",
								"offset": 0,
								"slot": "0",
								"type": "t_array(t_bytes32)dyn_storage"
							},
							{
								"astId": 1740,
								"contract": "Ethereum/Presale.sol:Presale",
								"label": "_indexes",
								"offset": 0,
								"slot": "1",
								"type": "t_mapping(t_bytes32,t_uint256)"
							}
						],
						"numberOfBytes": "64"
					},
					"t_uint256": {
						"encoding": "inplace",
						"label": "uint256",
						"numberOfBytes": "32"
					}
				}
			},
			"userdoc": {
				"kind": "user",
				"methods": {},
				"version": 1
			}
		}
	}
}