{
	"Ethereum/PresaleSettings.sol": {
		"PresaleSettings": {
			"abi": [
				{
					"inputs": [],
					"stateMutability": "nonpayable",
					"type": "constructor"
				},
				{
					"anonymous": false,
					"inputs": [
						{
							"indexed": true,
							"internalType": "address",
							"name": "previousOwner",
							"type": "address"
						},
						{
							"indexed": true,
							"internalType": "address",
							"name": "newOwner",
							"type": "address"
						}
					],
					"name": "OwnershipTransferred",
					"type": "event"
				},
				{
					"inputs": [],
					"name": "SETTINGS",
					"outputs": [
						{
							"internalType": "uint256",
							"name": "BASE_FEE",
							"type": "uint256"
						},
						{
							"internalType": "uint256",
							"name": "TOKEN_FEE",
							"type": "uint256"
						},
						{
							"internalType": "address payable",
							"name": "ETH_FEE_ADDRESS",
							"type": "address"
						},
						{
							"internalType": "address payable",
							"name": "TOKEN_FEE_ADDRESS",
							"type": "address"
						},
						{
							"internalType": "uint256",
							"name": "ETH_CREATION_FEE",
							"type": "uint256"
						}
					],
					"stateMutability": "view",
					"type": "function"
				},
				{
					"inputs": [],
					"name": "getBaseFee",
					"outputs": [
						{
							"internalType": "uint256",
							"name": "",
							"type": "uint256"
						}
					],
					"stateMutability": "view",
					"type": "function"
				},
				{
					"inputs": [],
					"name": "getEthAddress",
					"outputs": [
						{
							"internalType": "address payable",
							"name": "",
							"type": "address"
						}
					],
					"stateMutability": "view",
					"type": "function"
				},
				{
					"inputs": [],
					"name": "getEthCreationFee",
					"outputs": [
						{
							"internalType": "uint256",
							"name": "",
							"type": "uint256"
						}
					],
					"stateMutability": "view",
					"type": "function"
				},
				{
					"inputs": [],
					"name": "getTokenAddress",
					"outputs": [
						{
							"internalType": "address payable",
							"name": "",
							"type": "address"
						}
					],
					"stateMutability": "view",
					"type": "function"
				},
				{
					"inputs": [],
					"name": "getTokenFee",
					"outputs": [
						{
							"internalType": "uint256",
							"name": "",
							"type": "uint256"
						}
					],
					"stateMutability": "view",
					"type": "function"
				},
				{
					"inputs": [],
					"name": "owner",
					"outputs": [
						{
							"internalType": "address",
							"name": "",
							"type": "address"
						}
					],
					"stateMutability": "view",
					"type": "function"
				},
				{
					"inputs": [],
					"name": "renounceOwnership",
					"outputs": [],
					"stateMutability": "nonpayable",
					"type": "function"
				},
				{
					"inputs": [
						{
							"internalType": "address payable",
							"name": "_ethAddress",
							"type": "address"
						},
						{
							"internalType": "address payable",
							"name": "_tokenFeeAddress",
							"type": "address"
						}
					],
					"name": "setFeeAddresses",
					"outputs": [],
					"stateMutability": "nonpayable",
					"type": "function"
				},
				{
					"inputs": [
						{
							"internalType": "uint256",
							"name": "_baseFee",
							"type": "uint256"
						},
						{
							"internalType": "uint256",
							"name": "_tokenFee",
							"type": "uint256"
						},
						{
							"internalType": "uint256",
							"name": "_ethCreationFee",
							"type": "uint256"
						}
					],
					"name": "setFees",
					"outputs": [],
					"stateMutability": "nonpayable",
					"type": "function"
				},
				{
					"inputs": [
						{
							"internalType": "address",
							"name": "newOwner",
							"type": "address"
						}
					],
					"name": "transferOwnership",
					"outputs": [],
					"stateMutability": "nonpayable",
					"type": "function"
				}
			],
			"devdoc": {
				"kind": "dev",
				"methods": {
					"owner()": {
						"details": "Returns the address of the current owner."
					},
					"renounceOwnership()": {
						"details": "Leaves the contract without owner. It will not be possible to call `onlyOwner` functions anymore. Can only be called by the current owner. NOTE: Renouncing ownership will leave the contract without an owner, thereby removing any functionality that is only available to the owner."
					},
					"transferOwnership(address)": {
						"details": "Transfers ownership of the contract to a new account (`newOwner`). Can only be called by the current owner."
					}
				},
				"version": 1
			},
			"evm": {
				"assembly": "    /* \"Ethereum/PresaleSettings.sol\":134:1980  contract PresaleSettings is Ownable {\r... */\n  mstore(0x40, 0x80)\n    /* \"Ethereum/PresaleSettings.sol\":586:860  constructor() {\r... */\n  callvalue\n  dup1\n  iszero\n  tag_1\n  jumpi\n  0x00\n  dup1\n  revert\ntag_1:\n  pop\n    /* \"Utils/Ownable.sol\":942:974  _transferOwnership(_msgSender()) */\n  tag_5\n    /* \"Utils/Ownable.sol\":961:973  _msgSender() */\n  tag_6\n    /* \"Utils/Ownable.sol\":961:971  _msgSender */\n  shl(0x20, tag_7)\n    /* \"Utils/Ownable.sol\":961:973  _msgSender() */\n  0x20\n  shr\n  jump\t// in\ntag_6:\n    /* \"Utils/Ownable.sol\":942:960  _transferOwnership */\n  shl(0x20, tag_8)\n    /* \"Utils/Ownable.sol\":942:974  _transferOwnership(_msgSender()) */\n  0x20\n  shr\n  jump\t// in\ntag_5:\n    /* \"Ethereum/PresaleSettings.sol\":631:633  50 */\n  0x32\n    /* \"Ethereum/PresaleSettings.sol\":611:619  SETTINGS */\n  0x01\n    /* \"Ethereum/PresaleSettings.sol\":611:628  SETTINGS.BASE_FEE */\n  0x00\n  add\n    /* \"Ethereum/PresaleSettings.sol\":611:633  SETTINGS.BASE_FEE = 50 */\n  dup2\n  swap1\n  sstore\n  pop\n    /* \"Ethereum/PresaleSettings.sol\":671:672  0 */\n  0x00\n    /* \"Ethereum/PresaleSettings.sol\":650:658  SETTINGS */\n  0x01\n    /* \"Ethereum/PresaleSettings.sol\":650:668  SETTINGS.TOKEN_FEE */\n  dup1\n  add\n    /* \"Ethereum/PresaleSettings.sol\":650:672  SETTINGS.TOKEN_FEE = 0 */\n  dup2\n  swap1\n  sstore\n  pop\n    /* \"Ethereum/PresaleSettings.sol\":717:724  1 ether */\n  0x0de0b6b3a7640000\n    /* \"Ethereum/PresaleSettings.sol\":689:697  SETTINGS */\n  0x01\n    /* \"Ethereum/PresaleSettings.sol\":689:714  SETTINGS.ETH_CREATION_FEE */\n  0x04\n  add\n    /* \"Ethereum/PresaleSettings.sol\":689:724  SETTINGS.ETH_CREATION_FEE = 1 ether */\n  dup2\n  swap1\n  sstore\n  pop\n    /* \"Ethereum/PresaleSettings.sol\":778:790  _msgSender() */\n  tag_10\n    /* \"Ethereum/PresaleSettings.sol\":778:788  _msgSender */\n  shl(0x20, tag_7)\n    /* \"Ethereum/PresaleSettings.sol\":778:790  _msgSender() */\n  0x20\n  shr\n  jump\t// in\ntag_10:\n    /* \"Ethereum/PresaleSettings.sol\":743:751  SETTINGS */\n  0x01\n    /* \"Ethereum/PresaleSettings.sol\":743:767  SETTINGS.ETH_FEE_ADDRESS */\n  0x02\n  add\n  0x00\n    /* \"Ethereum/PresaleSettings.sol\":743:791  SETTINGS.ETH_FEE_ADDRESS = payable(_msgSender()) */\n  0x0100\n  exp\n  dup2\n  sload\n  dup2\n  0xffffffffffffffffffffffffffffffffffffffff\n  mul\n  not\n  and\n  swap1\n  dup4\n  0xffffffffffffffffffffffffffffffffffffffff\n  and\n  mul\n  or\n  swap1\n  sstore\n  pop\n    /* \"Ethereum/PresaleSettings.sol\":839:851  _msgSender() */\n  tag_11\n    /* \"Ethereum/PresaleSettings.sol\":839:849  _msgSender */\n  shl(0x20, tag_7)\n    /* \"Ethereum/PresaleSettings.sol\":839:851  _msgSender() */\n  0x20\n  shr\n  jump\t// in\ntag_11:\n    /* \"Ethereum/PresaleSettings.sol\":802:810  SETTINGS */\n  0x01\n    /* \"Ethereum/PresaleSettings.sol\":802:828  SETTINGS.TOKEN_FEE_ADDRESS */\n  0x03\n  add\n  0x00\n    /* \"Ethereum/PresaleSettings.sol\":802:852  SETTINGS.TOKEN_FEE_ADDRESS = payable(_msgSender()) */\n  0x0100\n  exp\n  dup2\n  sload\n  dup2\n  0xffffffffffffffffffffffffffffffffffffffff\n  mul\n  not\n  and\n  swap1\n  dup4\n  0xffffffffffffffffffffffffffffffffffffffff\n  and\n  mul\n  or\n  swap1\n  sstore\n  pop\n    /* \"Ethereum/PresaleSettings.sol\":134:1980  contract PresaleSettings is Ownable {\r... */\n  jump(tag_12)\n    /* \"Utils/Context.sol\":656:754  function _msgSender() internal view virtual returns (address) {\r... */\ntag_7:\n    /* \"Utils/Context.sol\":709:716  address */\n  0x00\n    /* \"Utils/Context.sol\":736:746  msg.sender */\n  caller\n    /* \"Utils/Context.sol\":729:746  return msg.sender */\n  swap1\n  pop\n    /* \"Utils/Context.sol\":656:754  function _msgSender() internal view virtual returns (address) {\r... */\n  swap1\n  jump\t// out\n    /* \"Utils/Ownable.sol\":2333:2524  function _transferOwnership(address newOwner) internal virtual {\r... */\ntag_8:\n    /* \"Utils/Ownable.sol\":2407:2423  address oldOwner */\n  0x00\n    /* \"Utils/Ownable.sol\":2426:2432  _owner */\n  dup1\n  0x00\n  swap1\n  sload\n  swap1\n  0x0100\n  exp\n  swap1\n  div\n  0xffffffffffffffffffffffffffffffffffffffff\n  and\n    /* \"Utils/Ownable.sol\":2407:2432  address oldOwner = _owner */\n  swap1\n  pop\n    /* \"Utils/Ownable.sol\":2452:2460  newOwner */\n  dup2\n    /* \"Utils/Ownable.sol\":2443:2449  _owner */\n  0x00\n  dup1\n    /* \"Utils/Ownable.sol\":2443:2460  _owner = newOwner */\n  0x0100\n  exp\n  dup2\n  sload\n  dup2\n  0xffffffffffffffffffffffffffffffffffffffff\n  mul\n  not\n  and\n  swap1\n  dup4\n  0xffffffffffffffffffffffffffffffffffffffff\n  and\n  mul\n  or\n  swap1\n  sstore\n  pop\n    /* \"Utils/Ownable.sol\":2507:2515  newOwner */\n  dup2\n    /* \"Utils/Ownable.sol\":2476:2516  OwnershipTransferred(oldOwner, newOwner) */\n  0xffffffffffffffffffffffffffffffffffffffff\n  and\n    /* \"Utils/Ownable.sol\":2497:2505  oldOwner */\n  dup2\n    /* \"Utils/Ownable.sol\":2476:2516  OwnershipTransferred(oldOwner, newOwner) */\n  0xffffffffffffffffffffffffffffffffffffffff\n  and\n  0x8be0079c531659141344cd1fd0a4f28419497f9722a3daafe3b4186f6b6457e0\n  mload(0x40)\n  mload(0x40)\n  dup1\n  swap2\n  sub\n  swap1\n  log3\n    /* \"Utils/Ownable.sol\":2333:2524  function _transferOwnership(address newOwner) internal virtual {\r... */\n  pop\n  pop\n  jump\t// out\n    /* \"Ethereum/PresaleSettings.sol\":134:1980  contract PresaleSettings is Ownable {\r... */\ntag_12:\n  dataSize(sub_0)\n  dup1\n  dataOffset(sub_0)\n  0x00\n  codecopy\n  0x00\n  return\nstop\n\nsub_0: assembly {\n        /* \"Ethereum/PresaleSettings.sol\":134:1980  contract PresaleSettings is Ownable {\r... */\n      mstore(0x40, 0x80)\n      callvalue\n      dup1\n      iszero\n      tag_1\n      jumpi\n      0x00\n      dup1\n      revert\n    tag_1:\n      pop\n      jumpi(tag_2, lt(calldatasize, 0x04))\n      shr(0xe0, calldataload(0x00))\n      dup1\n      0x715018a6\n      gt\n      tag_14\n      jumpi\n      dup1\n      0x715018a6\n      eq\n      tag_8\n      jumpi\n      dup1\n      0x8da5cb5b\n      eq\n      tag_9\n      jumpi\n      dup1\n      0xade97ab5\n      eq\n      tag_10\n      jumpi\n      dup1\n      0xcec10c11\n      eq\n      tag_11\n      jumpi\n      dup1\n      0xe38ef7a3\n      eq\n      tag_12\n      jumpi\n      dup1\n      0xf2fde38b\n      eq\n      tag_13\n      jumpi\n      jump(tag_2)\n    tag_14:\n      dup1\n      0x10fe9ae8\n      eq\n      tag_3\n      jumpi\n      dup1\n      0x11c84120\n      eq\n      tag_4\n      jumpi\n      dup1\n      0x15e812ad\n      eq\n      tag_5\n      jumpi\n      dup1\n      0x24785172\n      eq\n      tag_6\n      jumpi\n      dup1\n      0x35546850\n      eq\n      tag_7\n      jumpi\n    tag_2:\n      0x00\n      dup1\n      revert\n        /* \"Ethereum/PresaleSettings.sol\":1323:1442  function getTokenAddress() external view returns (address payable) {\r... */\n    tag_3:\n      tag_15\n      tag_16\n      jump\t// in\n    tag_15:\n      mload(0x40)\n      tag_17\n      swap2\n      swap1\n      tag_18\n      jump\t// in\n    tag_17:\n      mload(0x40)\n      dup1\n      swap2\n      sub\n      swap1\n      return\n        /* \"Ethereum/PresaleSettings.sol\":1450:1695  function setFeeAddresses(\r... */\n    tag_4:\n      tag_19\n      0x04\n      dup1\n      calldatasize\n      sub\n      dup2\n      add\n      swap1\n      tag_20\n      swap2\n      swap1\n      tag_21\n      jump\t// in\n    tag_20:\n      tag_22\n      jump\t// in\n    tag_19:\n      stop\n        /* \"Ethereum/PresaleSettings.sol\":868:965  function getBaseFee() external view returns (uint256) {\r... */\n    tag_5:\n      tag_23\n      tag_24\n      jump\t// in\n    tag_23:\n      mload(0x40)\n      tag_25\n      swap2\n      swap1\n      tag_26\n      jump\t// in\n    tag_25:\n      mload(0x40)\n      dup1\n      swap2\n      sub\n      swap1\n      return\n        /* \"Ethereum/PresaleSettings.sol\":1200:1315  function getEthAddress() external view returns (address payable) {\r... */\n    tag_6:\n      tag_27\n      tag_28\n      jump\t// in\n    tag_27:\n      mload(0x40)\n      tag_29\n      swap2\n      swap1\n      tag_18\n      jump\t// in\n    tag_29:\n      mload(0x40)\n      dup1\n      swap2\n      sub\n      swap1\n      return\n        /* \"Ethereum/PresaleSettings.sol\":973:1072  function getTokenFee() external view returns (uint256) {\r... */\n    tag_7:\n      tag_30\n      tag_31\n      jump\t// in\n    tag_30:\n      mload(0x40)\n      tag_32\n      swap2\n      swap1\n      tag_26\n      jump\t// in\n    tag_32:\n      mload(0x40)\n      dup1\n      swap2\n      sub\n      swap1\n      return\n        /* \"Utils/Ownable.sol\":1714:1817  function renounceOwnership() public virtual onlyOwner {\r... */\n    tag_8:\n      tag_33\n      tag_34\n      jump\t// in\n    tag_33:\n      stop\n        /* \"Utils/Ownable.sol\":1063:1150  function owner() public view virtual returns (address) {\r... */\n    tag_9:\n      tag_35\n      tag_36\n      jump\t// in\n    tag_35:\n      mload(0x40)\n      tag_37\n      swap2\n      swap1\n      tag_38\n      jump\t// in\n    tag_37:\n      mload(0x40)\n      dup1\n      swap2\n      sub\n      swap1\n      return\n        /* \"Ethereum/PresaleSettings.sol\":553:577  Settings public SETTINGS */\n    tag_10:\n      tag_39\n      tag_40\n      jump\t// in\n    tag_39:\n      mload(0x40)\n      tag_41\n      swap6\n      swap5\n      swap4\n      swap3\n      swap2\n      swap1\n      tag_42\n      jump\t// in\n    tag_41:\n      mload(0x40)\n      dup1\n      swap2\n      sub\n      swap1\n      return\n        /* \"Ethereum/PresaleSettings.sol\":1703:1977  function setFees(\r... */\n    tag_11:\n      tag_43\n      0x04\n      dup1\n      calldatasize\n      sub\n      dup2\n      add\n      swap1\n      tag_44\n      swap2\n      swap1\n      tag_45\n      jump\t// in\n    tag_44:\n      tag_46\n      jump\t// in\n    tag_43:\n      stop\n        /* \"Ethereum/PresaleSettings.sol\":1080:1192  function getEthCreationFee() external view returns (uint256) {\r... */\n    tag_12:\n      tag_47\n      tag_48\n      jump\t// in\n    tag_47:\n      mload(0x40)\n      tag_49\n      swap2\n      swap1\n      tag_26\n      jump\t// in\n    tag_49:\n      mload(0x40)\n      dup1\n      swap2\n      sub\n      swap1\n      return\n        /* \"Utils/Ownable.sol\":1972:2173  function transferOwnership(address newOwner) public virtual onlyOwner {\r... */\n    tag_13:\n      tag_50\n      0x04\n      dup1\n      calldatasize\n      sub\n      dup2\n      add\n      swap1\n      tag_51\n      swap2\n      swap1\n      tag_52\n      jump\t// in\n    tag_51:\n      tag_53\n      jump\t// in\n    tag_50:\n      stop\n        /* \"Ethereum/PresaleSettings.sol\":1323:1442  function getTokenAddress() external view returns (address payable) {\r... */\n    tag_16:\n        /* \"Ethereum/PresaleSettings.sol\":1373:1388  address payable */\n      0x00\n        /* \"Ethereum/PresaleSettings.sol\":1408:1416  SETTINGS */\n      0x01\n        /* \"Ethereum/PresaleSettings.sol\":1408:1434  SETTINGS.TOKEN_FEE_ADDRESS */\n      0x03\n      add\n      0x00\n      swap1\n      sload\n      swap1\n      0x0100\n      exp\n      swap1\n      div\n      0xffffffffffffffffffffffffffffffffffffffff\n      and\n        /* \"Ethereum/PresaleSettings.sol\":1401:1434  return SETTINGS.TOKEN_FEE_ADDRESS */\n      swap1\n      pop\n        /* \"Ethereum/PresaleSettings.sol\":1323:1442  function getTokenAddress() external view returns (address payable) {\r... */\n      swap1\n      jump\t// out\n        /* \"Ethereum/PresaleSettings.sol\":1450:1695  function setFeeAddresses(\r... */\n    tag_22:\n        /* \"Utils/Ownable.sol\":1294:1306  _msgSender() */\n      tag_56\n        /* \"Utils/Ownable.sol\":1294:1304  _msgSender */\n      tag_57\n        /* \"Utils/Ownable.sol\":1294:1306  _msgSender() */\n      jump\t// in\n    tag_56:\n        /* \"Utils/Ownable.sol\":1283:1306  owner() == _msgSender() */\n      0xffffffffffffffffffffffffffffffffffffffff\n      and\n        /* \"Utils/Ownable.sol\":1283:1290  owner() */\n      tag_58\n        /* \"Utils/Ownable.sol\":1283:1288  owner */\n      tag_36\n        /* \"Utils/Ownable.sol\":1283:1290  owner() */\n      jump\t// in\n    tag_58:\n        /* \"Utils/Ownable.sol\":1283:1306  owner() == _msgSender() */\n      0xffffffffffffffffffffffffffffffffffffffff\n      and\n      eq\n        /* \"Utils/Ownable.sol\":1275:1343  require(owner() == _msgSender(), \"Ownable: caller is not the owner\") */\n      tag_59\n      jumpi\n      mload(0x40)\n      0x08c379a000000000000000000000000000000000000000000000000000000000\n      dup2\n      mstore\n      0x04\n      add\n      tag_60\n      swap1\n      tag_61\n      jump\t// in\n    tag_60:\n      mload(0x40)\n      dup1\n      swap2\n      sub\n      swap1\n      revert\n    tag_59:\n        /* \"Ethereum/PresaleSettings.sol\":1620:1631  _ethAddress */\n      dup2\n        /* \"Ethereum/PresaleSettings.sol\":1593:1601  SETTINGS */\n      0x01\n        /* \"Ethereum/PresaleSettings.sol\":1593:1617  SETTINGS.ETH_FEE_ADDRESS */\n      0x02\n      add\n      0x00\n        /* \"Ethereum/PresaleSettings.sol\":1593:1631  SETTINGS.ETH_FEE_ADDRESS = _ethAddress */\n      0x0100\n      exp\n      dup2\n      sload\n      dup2\n      0xffffffffffffffffffffffffffffffffffffffff\n      mul\n      not\n      and\n      swap1\n      dup4\n      0xffffffffffffffffffffffffffffffffffffffff\n      and\n      mul\n      or\n      swap1\n      sstore\n      pop\n        /* \"Ethereum/PresaleSettings.sol\":1671:1687  _tokenFeeAddress */\n      dup1\n        /* \"Ethereum/PresaleSettings.sol\":1642:1650  SETTINGS */\n      0x01\n        /* \"Ethereum/PresaleSettings.sol\":1642:1668  SETTINGS.TOKEN_FEE_ADDRESS */\n      0x03\n      add\n      0x00\n        /* \"Ethereum/PresaleSettings.sol\":1642:1687  SETTINGS.TOKEN_FEE_ADDRESS = _tokenFeeAddress */\n      0x0100\n      exp\n      dup2\n      sload\n      dup2\n      0xffffffffffffffffffffffffffffffffffffffff\n      mul\n      not\n      and\n      swap1\n      dup4\n      0xffffffffffffffffffffffffffffffffffffffff\n      and\n      mul\n      or\n      swap1\n      sstore\n      pop\n        /* \"Ethereum/PresaleSettings.sol\":1450:1695  function setFeeAddresses(\r... */\n      pop\n      pop\n      jump\t// out\n        /* \"Ethereum/PresaleSettings.sol\":868:965  function getBaseFee() external view returns (uint256) {\r... */\n    tag_24:\n        /* \"Ethereum/PresaleSettings.sol\":913:920  uint256 */\n      0x00\n        /* \"Ethereum/PresaleSettings.sol\":940:948  SETTINGS */\n      0x01\n        /* \"Ethereum/PresaleSettings.sol\":940:957  SETTINGS.BASE_FEE */\n      0x00\n      add\n      sload\n        /* \"Ethereum/PresaleSettings.sol\":933:957  return SETTINGS.BASE_FEE */\n      swap1\n      pop\n        /* \"Ethereum/PresaleSettings.sol\":868:965  function getBaseFee() external view returns (uint256) {\r... */\n      swap1\n      jump\t// out\n        /* \"Ethereum/PresaleSettings.sol\":1200:1315  function getEthAddress() external view returns (address payable) {\r... */\n    tag_28:\n        /* \"Ethereum/PresaleSettings.sol\":1248:1263  address payable */\n      0x00\n        /* \"Ethereum/PresaleSettings.sol\":1283:1291  SETTINGS */\n      0x01\n        /* \"Ethereum/PresaleSettings.sol\":1283:1307  SETTINGS.ETH_FEE_ADDRESS */\n      0x02\n      add\n      0x00\n      swap1\n      sload\n      swap1\n      0x0100\n      exp\n      swap1\n      div\n      0xffffffffffffffffffffffffffffffffffffffff\n      and\n        /* \"Ethereum/PresaleSettings.sol\":1276:1307  return SETTINGS.ETH_FEE_ADDRESS */\n      swap1\n      pop\n        /* \"Ethereum/PresaleSettings.sol\":1200:1315  function getEthAddress() external view returns (address payable) {\r... */\n      swap1\n      jump\t// out\n        /* \"Ethereum/PresaleSettings.sol\":973:1072  function getTokenFee() external view returns (uint256) {\r... */\n    tag_31:\n        /* \"Ethereum/PresaleSettings.sol\":1019:1026  uint256 */\n      0x00\n        /* \"Ethereum/PresaleSettings.sol\":1046:1054  SETTINGS */\n      0x01\n        /* \"Ethereum/PresaleSettings.sol\":1046:1064  SETTINGS.TOKEN_FEE */\n      dup1\n      add\n      sload\n        /* \"Ethereum/PresaleSettings.sol\":1039:1064  return SETTINGS.TOKEN_FEE */\n      swap1\n      pop\n        /* \"Ethereum/PresaleSettings.sol\":973:1072  function getTokenFee() external view returns (uint256) {\r... */\n      swap1\n      jump\t// out\n        /* \"Utils/Ownable.sol\":1714:1817  function renounceOwnership() public virtual onlyOwner {\r... */\n    tag_34:\n        /* \"Utils/Ownable.sol\":1294:1306  _msgSender() */\n      tag_67\n        /* \"Utils/Ownable.sol\":1294:1304  _msgSender */\n      tag_57\n        /* \"Utils/Ownable.sol\":1294:1306  _msgSender() */\n      jump\t// in\n    tag_67:\n        /* \"Utils/Ownable.sol\":1283:1306  owner() == _msgSender() */\n      0xffffffffffffffffffffffffffffffffffffffff\n      and\n        /* \"Utils/Ownable.sol\":1283:1290  owner() */\n      tag_68\n        /* \"Utils/Ownable.sol\":1283:1288  owner */\n      tag_36\n        /* \"Utils/Ownable.sol\":1283:1290  owner() */\n      jump\t// in\n    tag_68:\n        /* \"Utils/Ownable.sol\":1283:1306  owner() == _msgSender() */\n      0xffffffffffffffffffffffffffffffffffffffff\n      and\n      eq\n        /* \"Utils/Ownable.sol\":1275:1343  require(owner() == _msgSender(), \"Ownable: caller is not the owner\") */\n      tag_69\n      jumpi\n      mload(0x40)\n      0x08c379a000000000000000000000000000000000000000000000000000000000\n      dup2\n      mstore\n      0x04\n      add\n      tag_70\n      swap1\n      tag_61\n      jump\t// in\n    tag_70:\n      mload(0x40)\n      dup1\n      swap2\n      sub\n      swap1\n      revert\n    tag_69:\n        /* \"Utils/Ownable.sol\":1779:1809  _transferOwnership(address(0)) */\n      tag_72\n        /* \"Utils/Ownable.sol\":1806:1807  0 */\n      0x00\n        /* \"Utils/Ownable.sol\":1779:1797  _transferOwnership */\n      tag_73\n        /* \"Utils/Ownable.sol\":1779:1809  _transferOwnership(address(0)) */\n      jump\t// in\n    tag_72:\n        /* \"Utils/Ownable.sol\":1714:1817  function renounceOwnership() public virtual onlyOwner {\r... */\n      jump\t// out\n        /* \"Utils/Ownable.sol\":1063:1150  function owner() public view virtual returns (address) {\r... */\n    tag_36:\n        /* \"Utils/Ownable.sol\":1109:1116  address */\n      0x00\n        /* \"Utils/Ownable.sol\":1136:1142  _owner */\n      dup1\n      0x00\n      swap1\n      sload\n      swap1\n      0x0100\n      exp\n      swap1\n      div\n      0xffffffffffffffffffffffffffffffffffffffff\n      and\n        /* \"Utils/Ownable.sol\":1129:1142  return _owner */\n      swap1\n      pop\n        /* \"Utils/Ownable.sol\":1063:1150  function owner() public view virtual returns (address) {\r... */\n      swap1\n      jump\t// out\n        /* \"Ethereum/PresaleSettings.sol\":553:577  Settings public SETTINGS */\n    tag_40:\n      0x01\n      dup1\n      0x00\n      add\n      sload\n      swap1\n      dup1\n      0x01\n      add\n      sload\n      swap1\n      dup1\n      0x02\n      add\n      0x00\n      swap1\n      sload\n      swap1\n      0x0100\n      exp\n      swap1\n      div\n      0xffffffffffffffffffffffffffffffffffffffff\n      and\n      swap1\n      dup1\n      0x03\n      add\n      0x00\n      swap1\n      sload\n      swap1\n      0x0100\n      exp\n      swap1\n      div\n      0xffffffffffffffffffffffffffffffffffffffff\n      and\n      swap1\n      dup1\n      0x04\n      add\n      sload\n      swap1\n      pop\n      dup6\n      jump\t// out\n        /* \"Ethereum/PresaleSettings.sol\":1703:1977  function setFees(\r... */\n    tag_46:\n        /* \"Utils/Ownable.sol\":1294:1306  _msgSender() */\n      tag_76\n        /* \"Utils/Ownable.sol\":1294:1304  _msgSender */\n      tag_57\n        /* \"Utils/Ownable.sol\":1294:1306  _msgSender() */\n      jump\t// in\n    tag_76:\n        /* \"Utils/Ownable.sol\":1283:1306  owner() == _msgSender() */\n      0xffffffffffffffffffffffffffffffffffffffff\n      and\n        /* \"Utils/Ownable.sol\":1283:1290  owner() */\n      tag_77\n        /* \"Utils/Ownable.sol\":1283:1288  owner */\n      tag_36\n        /* \"Utils/Ownable.sol\":1283:1290  owner() */\n      jump\t// in\n    tag_77:\n        /* \"Utils/Ownable.sol\":1283:1306  owner() == _msgSender() */\n      0xffffffffffffffffffffffffffffffffffffffff\n      and\n      eq\n        /* \"Utils/Ownable.sol\":1275:1343  require(owner() == _msgSender(), \"Ownable: caller is not the owner\") */\n      tag_78\n      jumpi\n      mload(0x40)\n      0x08c379a000000000000000000000000000000000000000000000000000000000\n      dup2\n      mstore\n      0x04\n      add\n      tag_79\n      swap1\n      tag_61\n      jump\t// in\n    tag_79:\n      mload(0x40)\n      dup1\n      swap2\n      sub\n      swap1\n      revert\n    tag_78:\n        /* \"Ethereum/PresaleSettings.sol\":1866:1874  _baseFee */\n      dup3\n        /* \"Ethereum/PresaleSettings.sol\":1846:1854  SETTINGS */\n      0x01\n        /* \"Ethereum/PresaleSettings.sol\":1846:1863  SETTINGS.BASE_FEE */\n      0x00\n      add\n        /* \"Ethereum/PresaleSettings.sol\":1846:1874  SETTINGS.BASE_FEE = _baseFee */\n      dup2\n      swap1\n      sstore\n      pop\n        /* \"Ethereum/PresaleSettings.sol\":1906:1915  _tokenFee */\n      dup2\n        /* \"Ethereum/PresaleSettings.sol\":1885:1893  SETTINGS */\n      0x01\n        /* \"Ethereum/PresaleSettings.sol\":1885:1903  SETTINGS.TOKEN_FEE */\n      dup1\n      add\n        /* \"Ethereum/PresaleSettings.sol\":1885:1915  SETTINGS.TOKEN_FEE = _tokenFee */\n      dup2\n      swap1\n      sstore\n      pop\n        /* \"Ethereum/PresaleSettings.sol\":1954:1969  _ethCreationFee */\n      dup1\n        /* \"Ethereum/PresaleSettings.sol\":1926:1934  SETTINGS */\n      0x01\n        /* \"Ethereum/PresaleSettings.sol\":1926:1951  SETTINGS.ETH_CREATION_FEE */\n      0x04\n      add\n        /* \"Ethereum/PresaleSettings.sol\":1926:1969  SETTINGS.ETH_CREATION_FEE = _ethCreationFee */\n      dup2\n      swap1\n      sstore\n      pop\n        /* \"Ethereum/PresaleSettings.sol\":1703:1977  function setFees(\r... */\n      pop\n      pop\n      pop\n      jump\t// out\n        /* \"Ethereum/PresaleSettings.sol\":1080:1192  function getEthCreationFee() external view returns (uint256) {\r... */\n    tag_48:\n        /* \"Ethereum/PresaleSettings.sol\":1132:1139  uint256 */\n      0x00\n        /* \"Ethereum/PresaleSettings.sol\":1159:1167  SETTINGS */\n      0x01\n        /* \"Ethereum/PresaleSettings.sol\":1159:1184  SETTINGS.ETH_CREATION_FEE */\n      0x04\n      add\n      sload\n        /* \"Ethereum/PresaleSettings.sol\":1152:1184  return SETTINGS.ETH_CREATION_FEE */\n      swap1\n      pop\n        /* \"Ethereum/PresaleSettings.sol\":1080:1192  function getEthCreationFee() external view returns (uint256) {\r... */\n      swap1\n      jump\t// out\n        /* \"Utils/Ownable.sol\":1972:2173  function transferOwnership(address newOwner) public virtual onlyOwner {\r... */\n    tag_53:\n        /* \"Utils/Ownable.sol\":1294:1306  _msgSender() */\n      tag_83\n        /* \"Utils/Ownable.sol\":1294:1304  _msgSender */\n      tag_57\n        /* \"Utils/Ownable.sol\":1294:1306  _msgSender() */\n      jump\t// in\n    tag_83:\n        /* \"Utils/Ownable.sol\":1283:1306  owner() == _msgSender() */\n      0xffffffffffffffffffffffffffffffffffffffff\n      and\n        /* \"Utils/Ownable.sol\":1283:1290  owner() */\n      tag_84\n        /* \"Utils/Ownable.sol\":1283:1288  owner */\n      tag_36\n        /* \"Utils/Ownable.sol\":1283:1290  owner() */\n      jump\t// in\n    tag_84:\n        /* \"Utils/Ownable.sol\":1283:1306  owner() == _msgSender() */\n      0xffffffffffffffffffffffffffffffffffffffff\n      and\n      eq\n        /* \"Utils/Ownable.sol\":1275:1343  require(owner() == _msgSender(), \"Ownable: caller is not the owner\") */\n      tag_85\n      jumpi\n      mload(0x40)\n      0x08c379a000000000000000000000000000000000000000000000000000000000\n      dup2\n      mstore\n      0x04\n      add\n      tag_86\n      swap1\n      tag_61\n      jump\t// in\n    tag_86:\n      mload(0x40)\n      dup1\n      swap2\n      sub\n      swap1\n      revert\n    tag_85:\n        /* \"Utils/Ownable.sol\":2081:2082  0 */\n      0x00\n        /* \"Utils/Ownable.sol\":2061:2083  newOwner != address(0) */\n      0xffffffffffffffffffffffffffffffffffffffff\n      and\n        /* \"Utils/Ownable.sol\":2061:2069  newOwner */\n      dup2\n        /* \"Utils/Ownable.sol\":2061:2083  newOwner != address(0) */\n      0xffffffffffffffffffffffffffffffffffffffff\n      and\n      eq\n      iszero\n        /* \"Utils/Ownable.sol\":2053:2126  require(newOwner != address(0), \"Ownable: new owner is the zero address\") */\n      tag_88\n      jumpi\n      mload(0x40)\n      0x08c379a000000000000000000000000000000000000000000000000000000000\n      dup2\n      mstore\n      0x04\n      add\n      tag_89\n      swap1\n      tag_90\n      jump\t// in\n    tag_89:\n      mload(0x40)\n      dup1\n      swap2\n      sub\n      swap1\n      revert\n    tag_88:\n        /* \"Utils/Ownable.sol\":2137:2165  _transferOwnership(newOwner) */\n      tag_91\n        /* \"Utils/Ownable.sol\":2156:2164  newOwner */\n      dup2\n        /* \"Utils/Ownable.sol\":2137:2155  _transferOwnership */\n      tag_73\n        /* \"Utils/Ownable.sol\":2137:2165  _transferOwnership(newOwner) */\n      jump\t// in\n    tag_91:\n        /* \"Utils/Ownable.sol\":1972:2173  function transferOwnership(address newOwner) public virtual onlyOwner {\r... */\n      pop\n      jump\t// out\n        /* \"Utils/Context.sol\":656:754  function _msgSender() internal view virtual returns (address) {\r... */\n    tag_57:\n        /* \"Utils/Context.sol\":709:716  address */\n      0x00\n        /* \"Utils/Context.sol\":736:746  msg.sender */\n      caller\n        /* \"Utils/Context.sol\":729:746  return msg.sender */\n      swap1\n      pop\n        /* \"Utils/Context.sol\":656:754  function _msgSender() internal view virtual returns (address) {\r... */\n      swap1\n      jump\t// out\n        /* \"Utils/Ownable.sol\":2333:2524  function _transferOwnership(address newOwner) internal virtual {\r... */\n    tag_73:\n        /* \"Utils/Ownable.sol\":2407:2423  address oldOwner */\n      0x00\n        /* \"Utils/Ownable.sol\":2426:2432  _owner */\n      dup1\n      0x00\n      swap1\n      sload\n      swap1\n      0x0100\n      exp\n      swap1\n      div\n      0xffffffffffffffffffffffffffffffffffffffff\n      and\n        /* \"Utils/Ownable.sol\":2407:2432  address oldOwner = _owner */\n      swap1\n      pop\n        /* \"Utils/Ownable.sol\":2452:2460  newOwner */\n      dup2\n        /* \"Utils/Ownable.sol\":2443:2449  _owner */\n      0x00\n      dup1\n        /* \"Utils/Ownable.sol\":2443:2460  _owner = newOwner */\n      0x0100\n      exp\n      dup2\n      sload\n      dup2\n      0xffffffffffffffffffffffffffffffffffffffff\n      mul\n      not\n      and\n      swap1\n      dup4\n      0xffffffffffffffffffffffffffffffffffffffff\n      and\n      mul\n      or\n      swap1\n      sstore\n      pop\n        /* \"Utils/Ownable.sol\":2507:2515  newOwner */\n      dup2\n        /* \"Utils/Ownable.sol\":2476:2516  OwnershipTransferred(oldOwner, newOwner) */\n      0xffffffffffffffffffffffffffffffffffffffff\n      and\n        /* \"Utils/Ownable.sol\":2497:2505  oldOwner */\n      dup2\n        /* \"Utils/Ownable.sol\":2476:2516  OwnershipTransferred(oldOwner, newOwner) */\n      0xffffffffffffffffffffffffffffffffffffffff\n      and\n      0x8be0079c531659141344cd1fd0a4f28419497f9722a3daafe3b4186f6b6457e0\n      mload(0x40)\n      mload(0x40)\n      dup1\n      swap2\n      sub\n      swap1\n      log3\n        /* \"Utils/Ownable.sol\":2333:2524  function _transferOwnership(address newOwner) internal virtual {\r... */\n      pop\n      pop\n      jump\t// out\n        /* \"#utility.yul\":7:146   */\n    tag_95:\n      0x00\n        /* \"#utility.yul\":91:97   */\n      dup2\n        /* \"#utility.yul\":78:98   */\n      calldataload\n        /* \"#utility.yul\":69:98   */\n      swap1\n      pop\n        /* \"#utility.yul\":107:140   */\n      tag_97\n        /* \"#utility.yul\":134:139   */\n      dup2\n        /* \"#utility.yul\":107:140   */\n      tag_98\n      jump\t// in\n    tag_97:\n        /* \"#utility.yul\":59:146   */\n      swap3\n      swap2\n      pop\n      pop\n      jump\t// out\n        /* \"#utility.yul\":152:307   */\n    tag_99:\n      0x00\n        /* \"#utility.yul\":244:250   */\n      dup2\n        /* \"#utility.yul\":231:251   */\n      calldataload\n        /* \"#utility.yul\":222:251   */\n      swap1\n      pop\n        /* \"#utility.yul\":260:301   */\n      tag_101\n        /* \"#utility.yul\":295:300   */\n      dup2\n        /* \"#utility.yul\":260:301   */\n      tag_102\n      jump\t// in\n    tag_101:\n        /* \"#utility.yul\":212:307   */\n      swap3\n      swap2\n      pop\n      pop\n      jump\t// out\n        /* \"#utility.yul\":313:452   */\n    tag_103:\n      0x00\n        /* \"#utility.yul\":397:403   */\n      dup2\n        /* \"#utility.yul\":384:404   */\n      calldataload\n        /* \"#utility.yul\":375:404   */\n      swap1\n      pop\n        /* \"#utility.yul\":413:446   */\n      tag_105\n        /* \"#utility.yul\":440:445   */\n      dup2\n        /* \"#utility.yul\":413:446   */\n      tag_106\n      jump\t// in\n    tag_105:\n        /* \"#utility.yul\":365:452   */\n      swap3\n      swap2\n      pop\n      pop\n      jump\t// out\n        /* \"#utility.yul\":458:720   */\n    tag_52:\n      0x00\n        /* \"#utility.yul\":566:568   */\n      0x20\n        /* \"#utility.yul\":554:563   */\n      dup3\n        /* \"#utility.yul\":545:552   */\n      dup5\n        /* \"#utility.yul\":541:564   */\n      sub\n        /* \"#utility.yul\":537:569   */\n      slt\n        /* \"#utility.yul\":534:536   */\n      iszero\n      tag_108\n      jumpi\n        /* \"#utility.yul\":582:583   */\n      0x00\n        /* \"#utility.yul\":579:580   */\n      dup1\n        /* \"#utility.yul\":572:584   */\n      revert\n        /* \"#utility.yul\":534:536   */\n    tag_108:\n        /* \"#utility.yul\":625:626   */\n      0x00\n        /* \"#utility.yul\":650:703   */\n      tag_109\n        /* \"#utility.yul\":695:702   */\n      dup5\n        /* \"#utility.yul\":686:692   */\n      dup3\n        /* \"#utility.yul\":675:684   */\n      dup6\n        /* \"#utility.yul\":671:693   */\n      add\n        /* \"#utility.yul\":650:703   */\n      tag_95\n      jump\t// in\n    tag_109:\n        /* \"#utility.yul\":640:703   */\n      swap2\n      pop\n        /* \"#utility.yul\":596:713   */\n      pop\n        /* \"#utility.yul\":524:720   */\n      swap3\n      swap2\n      pop\n      pop\n      jump\t// out\n        /* \"#utility.yul\":726:1165   */\n    tag_21:\n      0x00\n      dup1\n        /* \"#utility.yul\":867:869   */\n      0x40\n        /* \"#utility.yul\":855:864   */\n      dup4\n        /* \"#utility.yul\":846:853   */\n      dup6\n        /* \"#utility.yul\":842:865   */\n      sub\n        /* \"#utility.yul\":838:870   */\n      slt\n        /* \"#utility.yul\":835:837   */\n      iszero\n      tag_111\n      jumpi\n        /* \"#utility.yul\":883:884   */\n      0x00\n        /* \"#utility.yul\":880:881   */\n      dup1\n        /* \"#utility.yul\":873:885   */\n      revert\n        /* \"#utility.yul\":835:837   */\n    tag_111:\n        /* \"#utility.yul\":926:927   */\n      0x00\n        /* \"#utility.yul\":951:1012   */\n      tag_112\n        /* \"#utility.yul\":1004:1011   */\n      dup6\n        /* \"#utility.yul\":995:1001   */\n      dup3\n        /* \"#utility.yul\":984:993   */\n      dup7\n        /* \"#utility.yul\":980:1002   */\n      add\n        /* \"#utility.yul\":951:1012   */\n      tag_99\n      jump\t// in\n    tag_112:\n        /* \"#utility.yul\":941:1012   */\n      swap3\n      pop\n        /* \"#utility.yul\":897:1022   */\n      pop\n        /* \"#utility.yul\":1061:1063   */\n      0x20\n        /* \"#utility.yul\":1087:1148   */\n      tag_113\n        /* \"#utility.yul\":1140:1147   */\n      dup6\n        /* \"#utility.yul\":1131:1137   */\n      dup3\n        /* \"#utility.yul\":1120:1129   */\n      dup7\n        /* \"#utility.yul\":1116:1138   */\n      add\n        /* \"#utility.yul\":1087:1148   */\n      tag_99\n      jump\t// in\n    tag_113:\n        /* \"#utility.yul\":1077:1148   */\n      swap2\n      pop\n        /* \"#utility.yul\":1032:1158   */\n      pop\n        /* \"#utility.yul\":825:1165   */\n      swap3\n      pop\n      swap3\n      swap1\n      pop\n      jump\t// out\n        /* \"#utility.yul\":1171:1723   */\n    tag_45:\n      0x00\n      dup1\n      0x00\n        /* \"#utility.yul\":1313:1315   */\n      0x60\n        /* \"#utility.yul\":1301:1310   */\n      dup5\n        /* \"#utility.yul\":1292:1299   */\n      dup7\n        /* \"#utility.yul\":1288:1311   */\n      sub\n        /* \"#utility.yul\":1284:1316   */\n      slt\n        /* \"#utility.yul\":1281:1283   */\n      iszero\n      tag_115\n      jumpi\n        /* \"#utility.yul\":1329:1330   */\n      0x00\n        /* \"#utility.yul\":1326:1327   */\n      dup1\n        /* \"#utility.yul\":1319:1331   */\n      revert\n        /* \"#utility.yul\":1281:1283   */\n    tag_115:\n        /* \"#utility.yul\":1372:1373   */\n      0x00\n        /* \"#utility.yul\":1397:1450   */\n      tag_116\n        /* \"#utility.yul\":1442:1449   */\n      dup7\n        /* \"#utility.yul\":1433:1439   */\n      dup3\n        /* \"#utility.yul\":1422:1431   */\n      dup8\n        /* \"#utility.yul\":1418:1440   */\n      add\n        /* \"#utility.yul\":1397:1450   */\n      tag_103\n      jump\t// in\n    tag_116:\n        /* \"#utility.yul\":1387:1450   */\n      swap4\n      pop\n        /* \"#utility.yul\":1343:1460   */\n      pop\n        /* \"#utility.yul\":1499:1501   */\n      0x20\n        /* \"#utility.yul\":1525:1578   */\n      tag_117\n        /* \"#utility.yul\":1570:1577   */\n      dup7\n        /* \"#utility.yul\":1561:1567   */\n      dup3\n        /* \"#utility.yul\":1550:1559   */\n      dup8\n        /* \"#utility.yul\":1546:1568   */\n      add\n        /* \"#utility.yul\":1525:1578   */\n      tag_103\n      jump\t// in\n    tag_117:\n        /* \"#utility.yul\":1515:1578   */\n      swap3\n      pop\n        /* \"#utility.yul\":1470:1588   */\n      pop\n        /* \"#utility.yul\":1627:1629   */\n      0x40\n        /* \"#utility.yul\":1653:1706   */\n      tag_118\n        /* \"#utility.yul\":1698:1705   */\n      dup7\n        /* \"#utility.yul\":1689:1695   */\n      dup3\n        /* \"#utility.yul\":1678:1687   */\n      dup8\n        /* \"#utility.yul\":1674:1696   */\n      add\n        /* \"#utility.yul\":1653:1706   */\n      tag_103\n      jump\t// in\n    tag_118:\n        /* \"#utility.yul\":1643:1706   */\n      swap2\n      pop\n        /* \"#utility.yul\":1598:1716   */\n      pop\n        /* \"#utility.yul\":1271:1723   */\n      swap3\n      pop\n      swap3\n      pop\n      swap3\n      jump\t// out\n        /* \"#utility.yul\":1729:1871   */\n    tag_119:\n        /* \"#utility.yul\":1832:1864   */\n      tag_121\n        /* \"#utility.yul\":1858:1863   */\n      dup2\n        /* \"#utility.yul\":1832:1864   */\n      tag_122\n      jump\t// in\n    tag_121:\n        /* \"#utility.yul\":1827:1830   */\n      dup3\n        /* \"#utility.yul\":1820:1865   */\n      mstore\n        /* \"#utility.yul\":1810:1871   */\n      pop\n      pop\n      jump\t// out\n        /* \"#utility.yul\":1877:1995   */\n    tag_123:\n        /* \"#utility.yul\":1964:1988   */\n      tag_125\n        /* \"#utility.yul\":1982:1987   */\n      dup2\n        /* \"#utility.yul\":1964:1988   */\n      tag_126\n      jump\t// in\n    tag_125:\n        /* \"#utility.yul\":1959:1962   */\n      dup3\n        /* \"#utility.yul\":1952:1989   */\n      mstore\n        /* \"#utility.yul\":1942:1995   */\n      pop\n      pop\n      jump\t// out\n        /* \"#utility.yul\":2001:2371   */\n    tag_127:\n      0x00\n        /* \"#utility.yul\":2164:2231   */\n      tag_129\n        /* \"#utility.yul\":2228:2230   */\n      0x26\n        /* \"#utility.yul\":2223:2226   */\n      dup4\n        /* \"#utility.yul\":2164:2231   */\n      tag_130\n      jump\t// in\n    tag_129:\n        /* \"#utility.yul\":2157:2231   */\n      swap2\n      pop\n        /* \"#utility.yul\":2261:2295   */\n      0x4f776e61626c653a206e6577206f776e657220697320746865207a65726f2061\n        /* \"#utility.yul\":2257:2258   */\n      0x00\n        /* \"#utility.yul\":2252:2255   */\n      dup4\n        /* \"#utility.yul\":2248:2259   */\n      add\n        /* \"#utility.yul\":2241:2296   */\n      mstore\n        /* \"#utility.yul\":2327:2335   */\n      0x6464726573730000000000000000000000000000000000000000000000000000\n        /* \"#utility.yul\":2322:2324   */\n      0x20\n        /* \"#utility.yul\":2317:2320   */\n      dup4\n        /* \"#utility.yul\":2313:2325   */\n      add\n        /* \"#utility.yul\":2306:2336   */\n      mstore\n        /* \"#utility.yul\":2362:2364   */\n      0x40\n        /* \"#utility.yul\":2357:2360   */\n      dup3\n        /* \"#utility.yul\":2353:2365   */\n      add\n        /* \"#utility.yul\":2346:2365   */\n      swap1\n      pop\n        /* \"#utility.yul\":2147:2371   */\n      swap2\n      swap1\n      pop\n      jump\t// out\n        /* \"#utility.yul\":2377:2707   */\n    tag_131:\n      0x00\n        /* \"#utility.yul\":2540:2607   */\n      tag_133\n        /* \"#utility.yul\":2604:2606   */\n      0x20\n        /* \"#utility.yul\":2599:2602   */\n      dup4\n        /* \"#utility.yul\":2540:2607   */\n      tag_130\n      jump\t// in\n    tag_133:\n        /* \"#utility.yul\":2533:2607   */\n      swap2\n      pop\n        /* \"#utility.yul\":2637:2671   */\n      0x4f776e61626c653a2063616c6c6572206973206e6f7420746865206f776e6572\n        /* \"#utility.yul\":2633:2634   */\n      0x00\n        /* \"#utility.yul\":2628:2631   */\n      dup4\n        /* \"#utility.yul\":2624:2635   */\n      add\n        /* \"#utility.yul\":2617:2672   */\n      mstore\n        /* \"#utility.yul\":2698:2700   */\n      0x20\n        /* \"#utility.yul\":2693:2696   */\n      dup3\n        /* \"#utility.yul\":2689:2701   */\n      add\n        /* \"#utility.yul\":2682:2701   */\n      swap1\n      pop\n        /* \"#utility.yul\":2523:2707   */\n      swap2\n      swap1\n      pop\n      jump\t// out\n        /* \"#utility.yul\":2713:2831   */\n    tag_134:\n        /* \"#utility.yul\":2800:2824   */\n      tag_136\n        /* \"#utility.yul\":2818:2823   */\n      dup2\n        /* \"#utility.yul\":2800:2824   */\n      tag_137\n      jump\t// in\n    tag_136:\n        /* \"#utility.yul\":2795:2798   */\n      dup3\n        /* \"#utility.yul\":2788:2825   */\n      mstore\n        /* \"#utility.yul\":2778:2831   */\n      pop\n      pop\n      jump\t// out\n        /* \"#utility.yul\":2837:3059   */\n    tag_38:\n      0x00\n        /* \"#utility.yul\":2968:2970   */\n      0x20\n        /* \"#utility.yul\":2957:2966   */\n      dup3\n        /* \"#utility.yul\":2953:2971   */\n      add\n        /* \"#utility.yul\":2945:2971   */\n      swap1\n      pop\n        /* \"#utility.yul\":2981:3052   */\n      tag_139\n        /* \"#utility.yul\":3049:3050   */\n      0x00\n        /* \"#utility.yul\":3038:3047   */\n      dup4\n        /* \"#utility.yul\":3034:3051   */\n      add\n        /* \"#utility.yul\":3025:3031   */\n      dup5\n        /* \"#utility.yul\":2981:3052   */\n      tag_123\n      jump\t// in\n    tag_139:\n        /* \"#utility.yul\":2935:3059   */\n      swap3\n      swap2\n      pop\n      pop\n      jump\t// out\n        /* \"#utility.yul\":3065:3319   */\n    tag_18:\n      0x00\n        /* \"#utility.yul\":3212:3214   */\n      0x20\n        /* \"#utility.yul\":3201:3210   */\n      dup3\n        /* \"#utility.yul\":3197:3215   */\n      add\n        /* \"#utility.yul\":3189:3215   */\n      swap1\n      pop\n        /* \"#utility.yul\":3225:3312   */\n      tag_141\n        /* \"#utility.yul\":3309:3310   */\n      0x00\n        /* \"#utility.yul\":3298:3307   */\n      dup4\n        /* \"#utility.yul\":3294:3311   */\n      add\n        /* \"#utility.yul\":3285:3291   */\n      dup5\n        /* \"#utility.yul\":3225:3312   */\n      tag_119\n      jump\t// in\n    tag_141:\n        /* \"#utility.yul\":3179:3319   */\n      swap3\n      swap2\n      pop\n      pop\n      jump\t// out\n        /* \"#utility.yul\":3325:3744   */\n    tag_90:\n      0x00\n        /* \"#utility.yul\":3529:3531   */\n      0x20\n        /* \"#utility.yul\":3518:3527   */\n      dup3\n        /* \"#utility.yul\":3514:3532   */\n      add\n        /* \"#utility.yul\":3506:3532   */\n      swap1\n      pop\n        /* \"#utility.yul\":3578:3587   */\n      dup2\n        /* \"#utility.yul\":3572:3576   */\n      dup2\n        /* \"#utility.yul\":3568:3588   */\n      sub\n        /* \"#utility.yul\":3564:3565   */\n      0x00\n        /* \"#utility.yul\":3553:3562   */\n      dup4\n        /* \"#utility.yul\":3549:3566   */\n      add\n        /* \"#utility.yul\":3542:3589   */\n      mstore\n        /* \"#utility.yul\":3606:3737   */\n      tag_143\n        /* \"#utility.yul\":3732:3736   */\n      dup2\n        /* \"#utility.yul\":3606:3737   */\n      tag_127\n      jump\t// in\n    tag_143:\n        /* \"#utility.yul\":3598:3737   */\n      swap1\n      pop\n        /* \"#utility.yul\":3496:3744   */\n      swap2\n      swap1\n      pop\n      jump\t// out\n        /* \"#utility.yul\":3750:4169   */\n    tag_61:\n      0x00\n        /* \"#utility.yul\":3954:3956   */\n      0x20\n        /* \"#utility.yul\":3943:3952   */\n      dup3\n        /* \"#utility.yul\":3939:3957   */\n      add\n        /* \"#utility.yul\":3931:3957   */\n      swap1\n      pop\n        /* \"#utility.yul\":4003:4012   */\n      dup2\n        /* \"#utility.yul\":3997:4001   */\n      dup2\n        /* \"#utility.yul\":3993:4013   */\n      sub\n        /* \"#utility.yul\":3989:3990   */\n      0x00\n        /* \"#utility.yul\":3978:3987   */\n      dup4\n        /* \"#utility.yul\":3974:3991   */\n      add\n        /* \"#utility.yul\":3967:4014   */\n      mstore\n        /* \"#utility.yul\":4031:4162   */\n      tag_145\n        /* \"#utility.yul\":4157:4161   */\n      dup2\n        /* \"#utility.yul\":4031:4162   */\n      tag_131\n      jump\t// in\n    tag_145:\n        /* \"#utility.yul\":4023:4162   */\n      swap1\n      pop\n        /* \"#utility.yul\":3921:4169   */\n      swap2\n      swap1\n      pop\n      jump\t// out\n        /* \"#utility.yul\":4175:4397   */\n    tag_26:\n      0x00\n        /* \"#utility.yul\":4306:4308   */\n      0x20\n        /* \"#utility.yul\":4295:4304   */\n      dup3\n        /* \"#utility.yul\":4291:4309   */\n      add\n        /* \"#utility.yul\":4283:4309   */\n      swap1\n      pop\n        /* \"#utility.yul\":4319:4390   */\n      tag_147\n        /* \"#utility.yul\":4387:4388   */\n      0x00\n        /* \"#utility.yul\":4376:4385   */\n      dup4\n        /* \"#utility.yul\":4372:4389   */\n      add\n        /* \"#utility.yul\":4363:4369   */\n      dup5\n        /* \"#utility.yul\":4319:4390   */\n      tag_134\n      jump\t// in\n    tag_147:\n        /* \"#utility.yul\":4273:4397   */\n      swap3\n      swap2\n      pop\n      pop\n      jump\t// out\n        /* \"#utility.yul\":4403:5131   */\n    tag_42:\n      0x00\n        /* \"#utility.yul\":4678:4681   */\n      0xa0\n        /* \"#utility.yul\":4667:4676   */\n      dup3\n        /* \"#utility.yul\":4663:4682   */\n      add\n        /* \"#utility.yul\":4655:4682   */\n      swap1\n      pop\n        /* \"#utility.yul\":4692:4763   */\n      tag_149\n        /* \"#utility.yul\":4760:4761   */\n      0x00\n        /* \"#utility.yul\":4749:4758   */\n      dup4\n        /* \"#utility.yul\":4745:4762   */\n      add\n        /* \"#utility.yul\":4736:4742   */\n      dup9\n        /* \"#utility.yul\":4692:4763   */\n      tag_134\n      jump\t// in\n    tag_149:\n        /* \"#utility.yul\":4773:4845   */\n      tag_150\n        /* \"#utility.yul\":4841:4843   */\n      0x20\n        /* \"#utility.yul\":4830:4839   */\n      dup4\n        /* \"#utility.yul\":4826:4844   */\n      add\n        /* \"#utility.yul\":4817:4823   */\n      dup8\n        /* \"#utility.yul\":4773:4845   */\n      tag_134\n      jump\t// in\n    tag_150:\n        /* \"#utility.yul\":4855:4943   */\n      tag_151\n        /* \"#utility.yul\":4939:4941   */\n      0x40\n        /* \"#utility.yul\":4928:4937   */\n      dup4\n        /* \"#utility.yul\":4924:4942   */\n      add\n        /* \"#utility.yul\":4915:4921   */\n      dup7\n        /* \"#utility.yul\":4855:4943   */\n      tag_119\n      jump\t// in\n    tag_151:\n        /* \"#utility.yul\":4953:5041   */\n      tag_152\n        /* \"#utility.yul\":5037:5039   */\n      0x60\n        /* \"#utility.yul\":5026:5035   */\n      dup4\n        /* \"#utility.yul\":5022:5040   */\n      add\n        /* \"#utility.yul\":5013:5019   */\n      dup6\n        /* \"#utility.yul\":4953:5041   */\n      tag_119\n      jump\t// in\n    tag_152:\n        /* \"#utility.yul\":5051:5124   */\n      tag_153\n        /* \"#utility.yul\":5119:5122   */\n      0x80\n        /* \"#utility.yul\":5108:5117   */\n      dup4\n        /* \"#utility.yul\":5104:5123   */\n      add\n        /* \"#utility.yul\":5095:5101   */\n      dup5\n        /* \"#utility.yul\":5051:5124   */\n      tag_134\n      jump\t// in\n    tag_153:\n        /* \"#utility.yul\":4645:5131   */\n      swap7\n      swap6\n      pop\n      pop\n      pop\n      pop\n      pop\n      pop\n      jump\t// out\n        /* \"#utility.yul\":5137:5306   */\n    tag_130:\n      0x00\n        /* \"#utility.yul\":5255:5261   */\n      dup3\n        /* \"#utility.yul\":5250:5253   */\n      dup3\n        /* \"#utility.yul\":5243:5262   */\n      mstore\n        /* \"#utility.yul\":5295:5299   */\n      0x20\n        /* \"#utility.yul\":5290:5293   */\n      dup3\n        /* \"#utility.yul\":5286:5300   */\n      add\n        /* \"#utility.yul\":5271:5300   */\n      swap1\n      pop\n        /* \"#utility.yul\":5233:5306   */\n      swap3\n      swap2\n      pop\n      pop\n      jump\t// out\n        /* \"#utility.yul\":5312:5408   */\n    tag_126:\n      0x00\n        /* \"#utility.yul\":5378:5402   */\n      tag_156\n        /* \"#utility.yul\":5396:5401   */\n      dup3\n        /* \"#utility.yul\":5378:5402   */\n      tag_157\n      jump\t// in\n    tag_156:\n        /* \"#utility.yul\":5367:5402   */\n      swap1\n      pop\n        /* \"#utility.yul\":5357:5408   */\n      swap2\n      swap1\n      pop\n      jump\t// out\n        /* \"#utility.yul\":5414:5518   */\n    tag_122:\n      0x00\n        /* \"#utility.yul\":5488:5512   */\n      tag_159\n        /* \"#utility.yul\":5506:5511   */\n      dup3\n        /* \"#utility.yul\":5488:5512   */\n      tag_157\n      jump\t// in\n    tag_159:\n        /* \"#utility.yul\":5477:5512   */\n      swap1\n      pop\n        /* \"#utility.yul\":5467:5518   */\n      swap2\n      swap1\n      pop\n      jump\t// out\n        /* \"#utility.yul\":5524:5650   */\n    tag_157:\n      0x00\n        /* \"#utility.yul\":5601:5643   */\n      0xffffffffffffffffffffffffffffffffffffffff\n        /* \"#utility.yul\":5594:5599   */\n      dup3\n        /* \"#utility.yul\":5590:5644   */\n      and\n        /* \"#utility.yul\":5579:5644   */\n      swap1\n      pop\n        /* \"#utility.yul\":5569:5650   */\n      swap2\n      swap1\n      pop\n      jump\t// out\n        /* \"#utility.yul\":5656:5733   */\n    tag_137:\n      0x00\n        /* \"#utility.yul\":5722:5727   */\n      dup2\n        /* \"#utility.yul\":5711:5727   */\n      swap1\n      pop\n        /* \"#utility.yul\":5701:5733   */\n      swap2\n      swap1\n      pop\n      jump\t// out\n        /* \"#utility.yul\":5739:5861   */\n    tag_98:\n        /* \"#utility.yul\":5812:5836   */\n      tag_163\n        /* \"#utility.yul\":5830:5835   */\n      dup2\n        /* \"#utility.yul\":5812:5836   */\n      tag_126\n      jump\t// in\n    tag_163:\n        /* \"#utility.yul\":5805:5810   */\n      dup2\n        /* \"#utility.yul\":5802:5837   */\n      eq\n        /* \"#utility.yul\":5792:5794   */\n      tag_164\n      jumpi\n        /* \"#utility.yul\":5851:5852   */\n      0x00\n        /* \"#utility.yul\":5848:5849   */\n      dup1\n        /* \"#utility.yul\":5841:5853   */\n      revert\n        /* \"#utility.yul\":5792:5794   */\n    tag_164:\n        /* \"#utility.yul\":5782:5861   */\n      pop\n      jump\t// out\n        /* \"#utility.yul\":5867:6005   */\n    tag_102:\n        /* \"#utility.yul\":5948:5980   */\n      tag_166\n        /* \"#utility.yul\":5974:5979   */\n      dup2\n        /* \"#utility.yul\":5948:5980   */\n      tag_122\n      jump\t// in\n    tag_166:\n        /* \"#utility.yul\":5941:5946   */\n      dup2\n        /* \"#utility.yul\":5938:5981   */\n      eq\n        /* \"#utility.yul\":5928:5930   */\n      tag_167\n      jumpi\n        /* \"#utility.yul\":5995:5996   */\n      0x00\n        /* \"#utility.yul\":5992:5993   */\n      dup1\n        /* \"#utility.yul\":5985:5997   */\n      revert\n        /* \"#utility.yul\":5928:5930   */\n    tag_167:\n        /* \"#utility.yul\":5918:6005   */\n      pop\n      jump\t// out\n        /* \"#utility.yul\":6011:6133   */\n    tag_106:\n        /* \"#utility.yul\":6084:6108   */\n      tag_169\n        /* \"#utility.yul\":6102:6107   */\n      dup2\n        /* \"#utility.yul\":6084:6108   */\n      tag_137\n      jump\t// in\n    tag_169:\n        /* \"#utility.yul\":6077:6082   */\n      dup2\n        /* \"#utility.yul\":6074:6109   */\n      eq\n        /* \"#utility.yul\":6064:6066   */\n      tag_170\n      jumpi\n        /* \"#utility.yul\":6123:6124   */\n      0x00\n        /* \"#utility.yul\":6120:6121   */\n      dup1\n        /* \"#utility.yul\":6113:6125   */\n      revert\n        /* \"#utility.yul\":6064:6066   */\n    tag_170:\n        /* \"#utility.yul\":6054:6133   */\n      pop\n      jump\t// out\n\n    auxdata: 0xa2646970667358221220db085d33993b7129f9a5360a04a7972efc195baab3765d6239280fe494340b6264736f6c63430008000033\n}\n",
				"bytecode": {
					"linkReferences": {},
					"object": "608060405234801561001057600080fd5b5061002d6100226100fb60201b60201c565b61010360201b60201c565b603260016000018190555060006001800181905550670de0b6b3a76400006001600401819055506100626100fb60201b60201c565b600160020160006101000a81548173ffffffffffffffffffffffffffffffffffffffff021916908373ffffffffffffffffffffffffffffffffffffffff1602179055506100b36100fb60201b60201c565b600160030160006101000a81548173ffffffffffffffffffffffffffffffffffffffff021916908373ffffffffffffffffffffffffffffffffffffffff1602179055506101c7565b600033905090565b60008060009054906101000a900473ffffffffffffffffffffffffffffffffffffffff169050816000806101000a81548173ffffffffffffffffffffffffffffffffffffffff021916908373ffffffffffffffffffffffffffffffffffffffff1602179055508173ffffffffffffffffffffffffffffffffffffffff168173ffffffffffffffffffffffffffffffffffffffff167f8be0079c531659141344cd1fd0a4f28419497f9722a3daafe3b4186f6b6457e060405160405180910390a35050565b610a65806101d66000396000f3fe608060405234801561001057600080fd5b50600436106100a95760003560e01c8063715018a611610071578063715018a6146101425780638da5cb5b1461014c578063ade97ab51461016a578063cec10c111461018c578063e38ef7a3146101a8578063f2fde38b146101c6576100a9565b806310fe9ae8146100ae57806311c84120146100cc57806315e812ad146100e857806324785172146101065780633554685014610124575b600080fd5b6100b66101e2565b6040516100c391906108c2565b60405180910390f35b6100e660048036038101906100e19190610749565b61020f565b005b6100f0610317565b6040516100fd919061091d565b60405180910390f35b61010e610324565b60405161011b91906108c2565b60405180910390f35b61012c610351565b604051610139919061091d565b60405180910390f35b61014a61035d565b005b6101546103e5565b60405161016191906108a7565b60405180910390f35b61017261040e565b604051610183959493929190610938565b60405180910390f35b6101a660048036038101906101a19190610785565b610472565b005b6101b0610510565b6040516101bd919061091d565b60405180910390f35b6101e060048036038101906101db9190610720565b61051d565b005b6000600160030160009054906101000a900473ffffffffffffffffffffffffffffffffffffffff16905090565b610217610615565b73ffffffffffffffffffffffffffffffffffffffff166102356103e5565b73ffffffffffffffffffffffffffffffffffffffff161461028b576040517f08c379a0000000000000000000000000000000000000000000000000000000008152600401610282906108fd565b60405180910390fd5b81600160020160006101000a81548173ffffffffffffffffffffffffffffffffffffffff021916908373ffffffffffffffffffffffffffffffffffffffff16021790555080600160030160006101000a81548173ffffffffffffffffffffffffffffffffffffffff021916908373ffffffffffffffffffffffffffffffffffffffff1602179055505050565b6000600160000154905090565b6000600160020160009054906101000a900473ffffffffffffffffffffffffffffffffffffffff16905090565b60006001800154905090565b610365610615565b73ffffffffffffffffffffffffffffffffffffffff166103836103e5565b73ffffffffffffffffffffffffffffffffffffffff16146103d9576040517f08c379a00000000000000000000000000000000000000000000000000000000081526004016103d0906108fd565b60405180910390fd5b6103e3600061061d565b565b60008060009054906101000a900473ffffffffffffffffffffffffffffffffffffffff16905090565b60018060000154908060010154908060020160009054906101000a900473ffffffffffffffffffffffffffffffffffffffff16908060030160009054906101000a900473ffffffffffffffffffffffffffffffffffffffff16908060040154905085565b61047a610615565b73ffffffffffffffffffffffffffffffffffffffff166104986103e5565b73ffffffffffffffffffffffffffffffffffffffff16146104ee576040517f08c379a00000000000000000000000000000000000000000000000000000000081526004016104e5906108fd565b60405180910390fd5b8260016000018190555081600180018190555080600160040181905550505050565b6000600160040154905090565b610525610615565b73ffffffffffffffffffffffffffffffffffffffff166105436103e5565b73ffffffffffffffffffffffffffffffffffffffff1614610599576040517f08c379a0000000000000000000000000000000000000000000000000000000008152600401610590906108fd565b60405180910390fd5b600073ffffffffffffffffffffffffffffffffffffffff168173ffffffffffffffffffffffffffffffffffffffff161415610609576040517f08c379a0000000000000000000000000000000000000000000000000000000008152600401610600906108dd565b60405180910390fd5b6106128161061d565b50565b600033905090565b60008060009054906101000a900473ffffffffffffffffffffffffffffffffffffffff169050816000806101000a81548173ffffffffffffffffffffffffffffffffffffffff021916908373ffffffffffffffffffffffffffffffffffffffff1602179055508173ffffffffffffffffffffffffffffffffffffffff168173ffffffffffffffffffffffffffffffffffffffff167f8be0079c531659141344cd1fd0a4f28419497f9722a3daafe3b4186f6b6457e060405160405180910390a35050565b6000813590506106f0816109ea565b92915050565b60008135905061070581610a01565b92915050565b60008135905061071a81610a18565b92915050565b60006020828403121561073257600080fd5b6000610740848285016106e1565b91505092915050565b6000806040838503121561075c57600080fd5b600061076a858286016106f6565b925050602061077b858286016106f6565b9150509250929050565b60008060006060848603121561079a57600080fd5b60006107a88682870161070b565b93505060206107b98682870161070b565b92505060406107ca8682870161070b565b9150509250925092565b6107dd816109ae565b82525050565b6107ec8161099c565b82525050565b60006107ff60268361098b565b91507f4f776e61626c653a206e6577206f776e657220697320746865207a65726f206160008301527f64647265737300000000000000000000000000000000000000000000000000006020830152604082019050919050565b600061086560208361098b565b91507f4f776e61626c653a2063616c6c6572206973206e6f7420746865206f776e65726000830152602082019050919050565b6108a1816109e0565b82525050565b60006020820190506108bc60008301846107e3565b92915050565b60006020820190506108d760008301846107d4565b92915050565b600060208201905081810360008301526108f6816107f2565b9050919050565b6000602082019050818103600083015261091681610858565b9050919050565b60006020820190506109326000830184610898565b92915050565b600060a08201905061094d6000830188610898565b61095a6020830187610898565b61096760408301866107d4565b61097460608301856107d4565b6109816080830184610898565b9695505050505050565b600082825260208201905092915050565b60006109a7826109c0565b9050919050565b60006109b9826109c0565b9050919050565b600073ffffffffffffffffffffffffffffffffffffffff82169050919050565b6000819050919050565b6109f38161099c565b81146109fe57600080fd5b50565b610a0a816109ae565b8114610a1557600080fd5b50565b610a21816109e0565b8114610a2c57600080fd5b5056fea2646970667358221220db085d33993b7129f9a5360a04a7972efc195baab3765d6239280fe494340b6264736f6c63430008000033",
					"opcodes": "PUSH1 0x80 PUSH1 0x40 MSTORE CALLVALUE DUP1 ISZERO PUSH2 0x10 JUMPI PUSH1 0x0 DUP1 REVERT JUMPDEST POP PUSH2 0x2D PUSH2 0x22 PUSH2 0xFB PUSH1 0x20 SHL PUSH1 0x20 SHR JUMP JUMPDEST PUSH2 0x103 PUSH1 0x20 SHL PUSH1 0x20 SHR JUMP JUMPDEST PUSH1 0x32 PUSH1 0x1 PUSH1 0x0 ADD DUP2 SWAP1 SSTORE POP PUSH1 0x0 PUSH1 0x1 DUP1 ADD DUP2 SWAP1 SSTORE POP PUSH8 0xDE0B6B3A7640000 PUSH1 0x1 PUSH1 0x4 ADD DUP2 SWAP1 SSTORE POP PUSH2 0x62 PUSH2 0xFB PUSH1 0x20 SHL PUSH1 0x20 SHR JUMP JUMPDEST PUSH1 0x1 PUSH1 0x2 ADD PUSH1 0x0 PUSH2 0x100 EXP DUP2 SLOAD DUP2 PUSH20 0xFFFFFFFFFFFFFFFFFFFFFFFFFFFFFFFFFFFFFFFF MUL NOT AND SWAP1 DUP4 PUSH20 0xFFFFFFFFFFFFFFFFFFFFFFFFFFFFFFFFFFFFFFFF AND MUL OR SWAP1 SSTORE POP PUSH2 0xB3 PUSH2 0xFB PUSH1 0x20 SHL PUSH1 0x20 SHR JUMP JUMPDEST PUSH1 0x1 PUSH1 0x3 ADD PUSH1 0x0 PUSH2 0x100 EXP DUP2 SLOAD DUP2 PUSH20 0xFFFFFFFFFFFFFFFFFFFFFFFFFFFFFFFFFFFFFFFF MUL NOT AND SWAP1 DUP4 PUSH20 0xFFFFFFFFFFFFFFFFFFFFFFFFFFFFFFFFFFFFFFFF AND MUL OR SWAP1 SSTORE POP PUSH2 0x1C7 JUMP JUMPDEST PUSH1 0x0 CALLER SWAP1 POP SWAP1 JUMP JUMPDEST PUSH1 0x0 DUP1 PUSH1 0x0 SWAP1 SLOAD SWAP1 PUSH2 0x100 EXP SWAP1 DIV PUSH20 0xFFFFFFFFFFFFFFFFFFFFFFFFFFFFFFFFFFFFFFFF AND SWAP1 POP DUP2 PUSH1 0x0 DUP1 PUSH2 0x100 EXP DUP2 SLOAD DUP2 PUSH20 0xFFFFFFFFFFFFFFFFFFFFFFFFFFFFFFFFFFFFFFFF MUL NOT AND SWAP1 DUP4 PUSH20 0xFFFFFFFFFFFFFFFFFFFFFFFFFFFFFFFFFFFFFFFF AND MUL OR SWAP1 SSTORE POP DUP2 PUSH20 0xFFFFFFFFFFFFFFFFFFFFFFFFFFFFFFFFFFFFFFFF AND DUP2 PUSH20 0xFFFFFFFFFFFFFFFFFFFFFFFFFFFFFFFFFFFFFFFF AND PUSH32 0x8BE0079C531659141344CD1FD0A4F28419497F9722A3DAAFE3B4186F6B6457E0 PUSH1 0x40 MLOAD PUSH1 0x40 MLOAD DUP1 SWAP2 SUB SWAP1 LOG3 POP POP JUMP JUMPDEST PUSH2 0xA65 DUP1 PUSH2 0x1D6 PUSH1 0x0 CODECOPY PUSH1 0x0 RETURN INVALID PUSH1 0x80 PUSH1 0x40 MSTORE CALLVALUE DUP1 ISZERO PUSH2 0x10 JUMPI PUSH1 0x0 DUP1 REVERT JUMPDEST POP PUSH1 0x4 CALLDATASIZE LT PUSH2 0xA9 JUMPI PUSH1 0x0 CALLDATALOAD PUSH1 0xE0 SHR DUP1 PUSH4 0x715018A6 GT PUSH2 0x71 JUMPI DUP1 PUSH4 0x715018A6 EQ PUSH2 0x142 JUMPI DUP1 PUSH4 0x8DA5CB5B EQ PUSH2 0x14C JUMPI DUP1 PUSH4 0xADE97AB5 EQ PUSH2 0x16A JUMPI DUP1 PUSH4 0xCEC10C11 EQ PUSH2 0x18C JUMPI DUP1 PUSH4 0xE38EF7A3 EQ PUSH2 0x1A8 JUMPI DUP1 PUSH4 0xF2FDE38B EQ PUSH2 0x1C6 JUMPI PUSH2 0xA9 JUMP JUMPDEST DUP1 PUSH4 0x10FE9AE8 EQ PUSH2 0xAE JUMPI DUP1 PUSH4 0x11C84120 EQ PUSH2 0xCC JUMPI DUP1 PUSH4 0x15E812AD EQ PUSH2 0xE8 JUMPI DUP1 PUSH4 0x24785172 EQ PUSH2 0x106 JUMPI DUP1 PUSH4 0x35546850 EQ PUSH2 0x124 JUMPI JUMPDEST PUSH1 0x0 DUP1 REVERT JUMPDEST PUSH2 0xB6 PUSH2 0x1E2 JUMP JUMPDEST PUSH1 0x40 MLOAD PUSH2 0xC3 SWAP2 SWAP1 PUSH2 0x8C2 JUMP JUMPDEST PUSH1 0x40 MLOAD DUP1 SWAP2 SUB SWAP1 RETURN JUMPDEST PUSH2 0xE6 PUSH1 0x4 DUP1 CALLDATASIZE SUB DUP2 ADD SWAP1 PUSH2 0xE1 SWAP2 SWAP1 PUSH2 0x749 JUMP JUMPDEST PUSH2 0x20F JUMP JUMPDEST STOP JUMPDEST PUSH2 0xF0 PUSH2 0x317 JUMP JUMPDEST PUSH1 0x40 MLOAD PUSH2 0xFD SWAP2 SWAP1 PUSH2 0x91D JUMP JUMPDEST PUSH1 0x40 MLOAD DUP1 SWAP2 SUB SWAP1 RETURN JUMPDEST PUSH2 0x10E PUSH2 0x324 JUMP JUMPDEST PUSH1 0x40 MLOAD PUSH2 0x11B SWAP2 SWAP1 PUSH2 0x8C2 JUMP JUMPDEST PUSH1 0x40 MLOAD DUP1 SWAP2 SUB SWAP1 RETURN JUMPDEST PUSH2 0x12C PUSH2 0x351 JUMP JUMPDEST PUSH1 0x40 MLOAD PUSH2 0x139 SWAP2 SWAP1 PUSH2 0x91D JUMP JUMPDEST PUSH1 0x40 MLOAD DUP1 SWAP2 SUB SWAP1 RETURN JUMPDEST PUSH2 0x14A PUSH2 0x35D JUMP JUMPDEST STOP JUMPDEST PUSH2 0x154 PUSH2 0x3E5 JUMP JUMPDEST PUSH1 0x40 MLOAD PUSH2 0x161 SWAP2 SWAP1 PUSH2 0x8A7 JUMP JUMPDEST PUSH1 0x40 MLOAD DUP1 SWAP2 SUB SWAP1 RETURN JUMPDEST PUSH2 0x172 PUSH2 0x40E JUMP JUMPDEST PUSH1 0x40 MLOAD PUSH2 0x183 SWAP6 SWAP5 SWAP4 SWAP3 SWAP2 SWAP1 PUSH2 0x938 JUMP JUMPDEST PUSH1 0x40 MLOAD DUP1 SWAP2 SUB SWAP1 RETURN JUMPDEST PUSH2 0x1A6 PUSH1 0x4 DUP1 CALLDATASIZE SUB DUP2 ADD SWAP1 PUSH2 0x1A1 SWAP2 SWAP1 PUSH2 0x785 JUMP JUMPDEST PUSH2 0x472 JUMP JUMPDEST STOP JUMPDEST PUSH2 0x1B0 PUSH2 0x510 JUMP JUMPDEST PUSH1 0x40 MLOAD PUSH2 0x1BD SWAP2 SWAP1 PUSH2 0x91D JUMP JUMPDEST PUSH1 0x40 MLOAD DUP1 SWAP2 SUB SWAP1 RETURN JUMPDEST PUSH2 0x1E0 PUSH1 0x4 DUP1 CALLDATASIZE SUB DUP2 ADD SWAP1 PUSH2 0x1DB SWAP2 SWAP1 PUSH2 0x720 JUMP JUMPDEST PUSH2 0x51D JUMP JUMPDEST STOP JUMPDEST PUSH1 0x0 PUSH1 0x1 PUSH1 0x3 ADD PUSH1 0x0 SWAP1 SLOAD SWAP1 PUSH2 0x100 EXP SWAP1 DIV PUSH20 0xFFFFFFFFFFFFFFFFFFFFFFFFFFFFFFFFFFFFFFFF AND SWAP1 POP SWAP1 JUMP JUMPDEST PUSH2 0x217 PUSH2 0x615 JUMP JUMPDEST PUSH20 0xFFFFFFFFFFFFFFFFFFFFFFFFFFFFFFFFFFFFFFFF AND PUSH2 0x235 PUSH2 0x3E5 JUMP JUMPDEST PUSH20 0xFFFFFFFFFFFFFFFFFFFFFFFFFFFFFFFFFFFFFFFF AND EQ PUSH2 0x28B JUMPI PUSH1 0x40 MLOAD PUSH32 0x8C379A000000000000000000000000000000000000000000000000000000000 DUP2 MSTORE PUSH1 0x4 ADD PUSH2 0x282 SWAP1 PUSH2 0x8FD JUMP JUMPDEST PUSH1 0x40 MLOAD DUP1 SWAP2 SUB SWAP1 REVERT JUMPDEST DUP2 PUSH1 0x1 PUSH1 0x2 ADD PUSH1 0x0 PUSH2 0x100 EXP DUP2 SLOAD DUP2 PUSH20 0xFFFFFFFFFFFFFFFFFFFFFFFFFFFFFFFFFFFFFFFF MUL NOT AND SWAP1 DUP4 PUSH20 0xFFFFFFFFFFFFFFFFFFFFFFFFFFFFFFFFFFFFFFFF AND MUL OR SWAP1 SSTORE POP DUP1 PUSH1 0x1 PUSH1 0x3 ADD PUSH1 0x0 PUSH2 0x100 EXP DUP2 SLOAD DUP2 PUSH20 0xFFFFFFFFFFFFFFFFFFFFFFFFFFFFFFFFFFFFFFFF MUL NOT AND SWAP1 DUP4 PUSH20 0xFFFFFFFFFFFFFFFFFFFFFFFFFFFFFFFFFFFFFFFF AND MUL OR SWAP1 SSTORE POP POP POP JUMP JUMPDEST PUSH1 0x0 PUSH1 0x1 PUSH1 0x0 ADD SLOAD SWAP1 POP SWAP1 JUMP JUMPDEST PUSH1 0x0 PUSH1 0x1 PUSH1 0x2 ADD PUSH1 0x0 SWAP1 SLOAD SWAP1 PUSH2 0x100 EXP SWAP1 DIV PUSH20 0xFFFFFFFFFFFFFFFFFFFFFFFFFFFFFFFFFFFFFFFF AND SWAP1 POP SWAP1 JUMP JUMPDEST PUSH1 0x0 PUSH1 0x1 DUP1 ADD SLOAD SWAP1 POP SWAP1 JUMP JUMPDEST PUSH2 0x365 PUSH2 0x615 JUMP JUMPDEST PUSH20 0xFFFFFFFFFFFFFFFFFFFFFFFFFFFFFFFFFFFFFFFF AND PUSH2 0x383 PUSH2 0x3E5 JUMP JUMPDEST PUSH20 0xFFFFFFFFFFFFFFFFFFFFFFFFFFFFFFFFFFFFFFFF AND EQ PUSH2 0x3D9 JUMPI PUSH1 0x40 MLOAD PUSH32 0x8C379A000000000000000000000000000000000000000000000000000000000 DUP2 MSTORE PUSH1 0x4 ADD PUSH2 0x3D0 SWAP1 PUSH2 0x8FD JUMP JUMPDEST PUSH1 0x40 MLOAD DUP1 SWAP2 SUB SWAP1 REVERT JUMPDEST PUSH2 0x3E3 PUSH1 0x0 PUSH2 0x61D JUMP JUMPDEST JUMP JUMPDEST PUSH1 0x0 DUP1 PUSH1 0x0 SWAP1 SLOAD SWAP1 PUSH2 0x100 EXP SWAP1 DIV PUSH20 0xFFFFFFFFFFFFFFFFFFFFFFFFFFFFFFFFFFFFFFFF AND SWAP1 POP SWAP1 JUMP JUMPDEST PUSH1 0x1 DUP1 PUSH1 0x0 ADD SLOAD SWAP1 DUP1 PUSH1 0x1 ADD SLOAD SWAP1 DUP1 PUSH1 0x2 ADD PUSH1 0x0 SWAP1 SLOAD SWAP1 PUSH2 0x100 EXP SWAP1 DIV PUSH20 0xFFFFFFFFFFFFFFFFFFFFFFFFFFFFFFFFFFFFFFFF AND SWAP1 DUP1 PUSH1 0x3 ADD PUSH1 0x0 SWAP1 SLOAD SWAP1 PUSH2 0x100 EXP SWAP1 DIV PUSH20 0xFFFFFFFFFFFFFFFFFFFFFFFFFFFFFFFFFFFFFFFF AND SWAP1 DUP1 PUSH1 0x4 ADD SLOAD SWAP1 POP DUP6 JUMP JUMPDEST PUSH2 0x47A PUSH2 0x615 JUMP JUMPDEST PUSH20 0xFFFFFFFFFFFFFFFFFFFFFFFFFFFFFFFFFFFFFFFF AND PUSH2 0x498 PUSH2 0x3E5 JUMP JUMPDEST PUSH20 0xFFFFFFFFFFFFFFFFFFFFFFFFFFFFFFFFFFFFFFFF AND EQ PUSH2 0x4EE JUMPI PUSH1 0x40 MLOAD PUSH32 0x8C379A000000000000000000000000000000000000000000000000000000000 DUP2 MSTORE PUSH1 0x4 ADD PUSH2 0x4E5 SWAP1 PUSH2 0x8FD JUMP JUMPDEST PUSH1 0x40 MLOAD DUP1 SWAP2 SUB SWAP1 REVERT JUMPDEST DUP3 PUSH1 0x1 PUSH1 0x0 ADD DUP2 SWAP1 SSTORE POP DUP2 PUSH1 0x1 DUP1 ADD DUP2 SWAP1 SSTORE POP DUP1 PUSH1 0x1 PUSH1 0x4 ADD DUP2 SWAP1 SSTORE POP POP POP POP JUMP JUMPDEST PUSH1 0x0 PUSH1 0x1 PUSH1 0x4 ADD SLOAD SWAP1 POP SWAP1 JUMP JUMPDEST PUSH2 0x525 PUSH2 0x615 JUMP JUMPDEST PUSH20 0xFFFFFFFFFFFFFFFFFFFFFFFFFFFFFFFFFFFFFFFF AND PUSH2 0x543 PUSH2 0x3E5 JUMP JUMPDEST PUSH20 0xFFFFFFFFFFFFFFFFFFFFFFFFFFFFFFFFFFFFFFFF AND EQ PUSH2 0x599 JUMPI PUSH1 0x40 MLOAD PUSH32 0x8C379A000000000000000000000000000000000000000000000000000000000 DUP2 MSTORE PUSH1 0x4 ADD PUSH2 0x590 SWAP1 PUSH2 0x8FD JUMP JUMPDEST PUSH1 0x40 MLOAD DUP1 SWAP2 SUB SWAP1 REVERT JUMPDEST PUSH1 0x0 PUSH20 0xFFFFFFFFFFFFFFFFFFFFFFFFFFFFFFFFFFFFFFFF AND DUP2 PUSH20 0xFFFFFFFFFFFFFFFFFFFFFFFFFFFFFFFFFFFFFFFF AND EQ ISZERO PUSH2 0x609 JUMPI PUSH1 0x40 MLOAD PUSH32 0x8C379A000000000000000000000000000000000000000000000000000000000 DUP2 MSTORE PUSH1 0x4 ADD PUSH2 0x600 SWAP1 PUSH2 0x8DD JUMP JUMPDEST PUSH1 0x40 MLOAD DUP1 SWAP2 SUB SWAP1 REVERT JUMPDEST PUSH2 0x612 DUP2 PUSH2 0x61D JUMP JUMPDEST POP JUMP JUMPDEST PUSH1 0x0 CALLER SWAP1 POP SWAP1 JUMP JUMPDEST PUSH1 0x0 DUP1 PUSH1 0x0 SWAP1 SLOAD SWAP1 PUSH2 0x100 EXP SWAP1 DIV PUSH20 0xFFFFFFFFFFFFFFFFFFFFFFFFFFFFFFFFFFFFFFFF AND SWAP1 POP DUP2 PUSH1 0x0 DUP1 PUSH2 0x100 EXP DUP2 SLOAD DUP2 PUSH20 0xFFFFFFFFFFFFFFFFFFFFFFFFFFFFFFFFFFFFFFFF MUL NOT AND SWAP1 DUP4 PUSH20 0xFFFFFFFFFFFFFFFFFFFFFFFFFFFFFFFFFFFFFFFF AND MUL OR SWAP1 SSTORE POP DUP2 PUSH20 0xFFFFFFFFFFFFFFFFFFFFFFFFFFFFFFFFFFFFFFFF AND DUP2 PUSH20 0xFFFFFFFFFFFFFFFFFFFFFFFFFFFFFFFFFFFFFFFF AND PUSH32 0x8BE0079C531659141344CD1FD0A4F28419497F9722A3DAAFE3B4186F6B6457E0 PUSH1 0x40 MLOAD PUSH1 0x40 MLOAD DUP1 SWAP2 SUB SWAP1 LOG3 POP POP JUMP JUMPDEST PUSH1 0x0 DUP2 CALLDATALOAD SWAP1 POP PUSH2 0x6F0 DUP2 PUSH2 0x9EA JUMP JUMPDEST SWAP3 SWAP2 POP POP JUMP JUMPDEST PUSH1 0x0 DUP2 CALLDATALOAD SWAP1 POP PUSH2 0x705 DUP2 PUSH2 0xA01 JUMP JUMPDEST SWAP3 SWAP2 POP POP JUMP JUMPDEST PUSH1 0x0 DUP2 CALLDATALOAD SWAP1 POP PUSH2 0x71A DUP2 PUSH2 0xA18 JUMP JUMPDEST SWAP3 SWAP2 POP POP JUMP JUMPDEST PUSH1 0x0 PUSH1 0x20 DUP3 DUP5 SUB SLT ISZERO PUSH2 0x732 JUMPI PUSH1 0x0 DUP1 REVERT JUMPDEST PUSH1 0x0 PUSH2 0x740 DUP5 DUP3 DUP6 ADD PUSH2 0x6E1 JUMP JUMPDEST SWAP2 POP POP SWAP3 SWAP2 POP POP JUMP JUMPDEST PUSH1 0x0 DUP1 PUSH1 0x40 DUP4 DUP6 SUB SLT ISZERO PUSH2 0x75C JUMPI PUSH1 0x0 DUP1 REVERT JUMPDEST PUSH1 0x0 PUSH2 0x76A DUP6 DUP3 DUP7 ADD PUSH2 0x6F6 JUMP JUMPDEST SWAP3 POP POP PUSH1 0x20 PUSH2 0x77B DUP6 DUP3 DUP7 ADD PUSH2 0x6F6 JUMP JUMPDEST SWAP2 POP POP SWAP3 POP SWAP3 SWAP1 POP JUMP JUMPDEST PUSH1 0x0 DUP1 PUSH1 0x0 PUSH1 0x60 DUP5 DUP7 SUB SLT ISZERO PUSH2 0x79A JUMPI PUSH1 0x0 DUP1 REVERT JUMPDEST PUSH1 0x0 PUSH2 0x7A8 DUP7 DUP3 DUP8 ADD PUSH2 0x70B JUMP JUMPDEST SWAP4 POP POP PUSH1 0x20 PUSH2 0x7B9 DUP7 DUP3 DUP8 ADD PUSH2 0x70B JUMP JUMPDEST SWAP3 POP POP PUSH1 0x40 PUSH2 0x7CA DUP7 DUP3 DUP8 ADD PUSH2 0x70B JUMP JUMPDEST SWAP2 POP POP SWAP3 POP SWAP3 POP SWAP3 JUMP JUMPDEST PUSH2 0x7DD DUP2 PUSH2 0x9AE JUMP JUMPDEST DUP3 MSTORE POP POP JUMP JUMPDEST PUSH2 0x7EC DUP2 PUSH2 0x99C JUMP JUMPDEST DUP3 MSTORE POP POP JUMP JUMPDEST PUSH1 0x0 PUSH2 0x7FF PUSH1 0x26 DUP4 PUSH2 0x98B JUMP JUMPDEST SWAP2 POP PUSH32 0x4F776E61626C653A206E6577206F776E657220697320746865207A65726F2061 PUSH1 0x0 DUP4 ADD MSTORE PUSH32 0x6464726573730000000000000000000000000000000000000000000000000000 PUSH1 0x20 DUP4 ADD MSTORE PUSH1 0x40 DUP3 ADD SWAP1 POP SWAP2 SWAP1 POP JUMP JUMPDEST PUSH1 0x0 PUSH2 0x865 PUSH1 0x20 DUP4 PUSH2 0x98B JUMP JUMPDEST SWAP2 POP PUSH32 0x4F776E61626C653A2063616C6C6572206973206E6F7420746865206F776E6572 PUSH1 0x0 DUP4 ADD MSTORE PUSH1 0x20 DUP3 ADD SWAP1 POP SWAP2 SWAP1 POP JUMP JUMPDEST PUSH2 0x8A1 DUP2 PUSH2 0x9E0 JUMP JUMPDEST DUP3 MSTORE POP POP JUMP JUMPDEST PUSH1 0x0 PUSH1 0x20 DUP3 ADD SWAP1 POP PUSH2 0x8BC PUSH1 0x0 DUP4 ADD DUP5 PUSH2 0x7E3 JUMP JUMPDEST SWAP3 SWAP2 POP POP JUMP JUMPDEST PUSH1 0x0 PUSH1 0x20 DUP3 ADD SWAP1 POP PUSH2 0x8D7 PUSH1 0x0 DUP4 ADD DUP5 PUSH2 0x7D4 JUMP JUMPDEST SWAP3 SWAP2 POP POP JUMP JUMPDEST PUSH1 0x0 PUSH1 0x20 DUP3 ADD SWAP1 POP DUP2 DUP2 SUB PUSH1 0x0 DUP4 ADD MSTORE PUSH2 0x8F6 DUP2 PUSH2 0x7F2 JUMP JUMPDEST SWAP1 POP SWAP2 SWAP1 POP JUMP JUMPDEST PUSH1 0x0 PUSH1 0x20 DUP3 ADD SWAP1 POP DUP2 DUP2 SUB PUSH1 0x0 DUP4 ADD MSTORE PUSH2 0x916 DUP2 PUSH2 0x858 JUMP JUMPDEST SWAP1 POP SWAP2 SWAP1 POP JUMP JUMPDEST PUSH1 0x0 PUSH1 0x20 DUP3 ADD SWAP1 POP PUSH2 0x932 PUSH1 0x0 DUP4 ADD DUP5 PUSH2 0x898 JUMP JUMPDEST SWAP3 SWAP2 POP POP JUMP JUMPDEST PUSH1 0x0 PUSH1 0xA0 DUP3 ADD SWAP1 POP PUSH2 0x94D PUSH1 0x0 DUP4 ADD DUP9 PUSH2 0x898 JUMP JUMPDEST PUSH2 0x95A PUSH1 0x20 DUP4 ADD DUP8 PUSH2 0x898 JUMP JUMPDEST PUSH2 0x967 PUSH1 0x40 DUP4 ADD DUP7 PUSH2 0x7D4 JUMP JUMPDEST PUSH2 0x974 PUSH1 0x60 DUP4 ADD DUP6 PUSH2 0x7D4 JUMP JUMPDEST PUSH2 0x981 PUSH1 0x80 DUP4 ADD DUP5 PUSH2 0x898 JUMP JUMPDEST SWAP7 SWAP6 POP POP POP POP POP POP JUMP JUMPDEST PUSH1 0x0 DUP3 DUP3 MSTORE PUSH1 0x20 DUP3 ADD SWAP1 POP SWAP3 SWAP2 POP POP JUMP JUMPDEST PUSH1 0x0 PUSH2 0x9A7 DUP3 PUSH2 0x9C0 JUMP JUMPDEST SWAP1 POP SWAP2 SWAP1 POP JUMP JUMPDEST PUSH1 0x0 PUSH2 0x9B9 DUP3 PUSH2 0x9C0 JUMP JUMPDEST SWAP1 POP SWAP2 SWAP1 POP JUMP JUMPDEST PUSH1 0x0 PUSH20 0xFFFFFFFFFFFFFFFFFFFFFFFFFFFFFFFFFFFFFFFF DUP3 AND SWAP1 POP SWAP2 SWAP1 POP JUMP JUMPDEST PUSH1 0x0 DUP2 SWAP1 POP SWAP2 SWAP1 POP JUMP JUMPDEST PUSH2 0x9F3 DUP2 PUSH2 0x99C JUMP JUMPDEST DUP2 EQ PUSH2 0x9FE JUMPI PUSH1 0x0 DUP1 REVERT JUMPDEST POP JUMP JUMPDEST PUSH2 0xA0A DUP2 PUSH2 0x9AE JUMP JUMPDEST DUP2 EQ PUSH2 0xA15 JUMPI PUSH1 0x0 DUP1 REVERT JUMPDEST POP JUMP JUMPDEST PUSH2 0xA21 DUP2 PUSH2 0x9E0 JUMP JUMPDEST DUP2 EQ PUSH2 0xA2C JUMPI PUSH1 0x0 DUP1 REVERT JUMPDEST POP JUMP INVALID LOG2 PUSH5 0x6970667358 0x22 SLT KECCAK256 0xDB ADDMOD 0x5D CALLER SWAP10 EXTCODESIZE PUSH18 0x29F9A5360A04A7972EFC195BAAB3765D6239 0x28 0xF 0xE4 SWAP5 CALLVALUE SIGNEXTEND PUSH3 0x64736F PUSH13 0x63430008000033000000000000 "
				},
				"gasEstimates": {
					"creation": {
						"codeDepositCost": "532200",
						"executionCost": "infinite",
						"totalCost": "infinite"
					},
					"external": {
						"SETTINGS()": "infinite",
						"getBaseFee()": "1188",
						"getEthAddress()": "1295",
						"getEthCreationFee()": "1231",
						"getTokenAddress()": "1229",
						"getTokenFee()": "1232",
						"owner()": "1244",
						"renounceOwnership()": "24374",
						"setFeeAddresses(address,address)": "infinite",
						"setFees(uint256,uint256,uint256)": "infinite",
						"transferOwnership(address)": "24833"
					}
				},
				"methodIdentifiers": {
					"SETTINGS()": "ade97ab5",
					"getBaseFee()": "15e812ad",
					"getEthAddress()": "24785172",
					"getEthCreationFee()": "e38ef7a3",
					"getTokenAddress()": "10fe9ae8",
					"getTokenFee()": "35546850",
					"owner()": "8da5cb5b",
					"renounceOwnership()": "715018a6",
					"setFeeAddresses(address,address)": "11c84120",
					"setFees(uint256,uint256,uint256)": "cec10c11",
					"transferOwnership(address)": "f2fde38b"
				}
			},
			"storageLayout": {
				"storage": [
					{
						"astId": 792,
						"contract": "Ethereum/PresaleSettings.sol:PresaleSettings",
						"label": "_owner",
						"offset": 0,
						"slot": "0",
						"type": "t_address"
					},
					{
						"astId": 23,
						"contract": "Ethereum/PresaleSettings.sol:PresaleSettings",
						"label": "SETTINGS",
						"offset": 0,
						"slot": "1",
						"type": "t_struct(Settings)20_storage"
					}
				],
				"types": {
					"t_address": {
						"encoding": "inplace",
						"label": "address",
						"numberOfBytes": "20"
					},
					"t_address_payable": {
						"encoding": "inplace",
						"label": "address payable",
						"numberOfBytes": "20"
					},
					"t_struct(Settings)20_storage": {
						"encoding": "inplace",
						"label": "struct PresaleSettings.Settings",
						"members": [
							{
								"astId": 11,
								"contract": "Ethereum/PresaleSettings.sol:PresaleSettings",
								"label": "BASE_FEE",
								"offset": 0,
								"slot": "0",
								"type": "t_uint256"
							},
							{
								"astId": 13,
								"contract": "Ethereum/PresaleSettings.sol:PresaleSettings",
								"label": "TOKEN_FEE",
								"offset": 0,
								"slot": "1",
								"type": "t_uint256"
							},
							{
								"astId": 15,
								"contract": "Ethereum/PresaleSettings.sol:PresaleSettings",
								"label": "ETH_FEE_ADDRESS",
								"offset": 0,
								"slot": "2",
								"type": "t_address_payable"
							},
							{
								"astId": 17,
								"contract": "Ethereum/PresaleSettings.sol:PresaleSettings",
								"label": "TOKEN_FEE_ADDRESS",
								"offset": 0,
								"slot": "3",
								"type": "t_address_payable"
							},
							{
								"astId": 19,
								"contract": "Ethereum/PresaleSettings.sol:PresaleSettings",
								"label": "ETH_CREATION_FEE",
								"offset": 0,
								"slot": "4",
								"type": "t_uint256"
							}
						],
						"numberOfBytes": "160"
					},
					"t_uint256": {
						"encoding": "inplace",
						"label": "uint256",
						"numberOfBytes": "32"
					}
				}
			},
			"userdoc": {
				"kind": "user",
				"methods": {},
				"version": 1
			}
		}
	}
}