{
	"Ethereum/PresaleSettings.sol": {
		"PresaleSettings": {
			"abi": [
				{
					"inputs": [],
					"stateMutability": "nonpayable",
					"type": "constructor"
				},
				{
					"anonymous": false,
					"inputs": [
						{
							"indexed": true,
							"internalType": "address",
							"name": "previousOwner",
							"type": "address"
						},
						{
							"indexed": true,
							"internalType": "address",
							"name": "newOwner",
							"type": "address"
						}
					],
					"name": "OwnershipTransferred",
					"type": "event"
				},
				{
					"inputs": [],
					"name": "owner",
					"outputs": [
						{
							"internalType": "address",
							"name": "",
							"type": "address"
						}
					],
					"stateMutability": "view",
					"type": "function"
				},
				{
					"inputs": [],
					"name": "renounceOwnership",
					"outputs": [],
					"stateMutability": "nonpayable",
					"type": "function"
				},
				{
					"inputs": [],
					"name": "settingFee",
					"outputs": [
						{
							"internalType": "uint256",
							"name": "refundFee",
							"type": "uint256"
						},
						{
							"internalType": "uint256",
							"name": "claimFee",
							"type": "uint256"
						},
						{
							"internalType": "uint256",
							"name": "feeCreatePresale",
							"type": "uint256"
						},
						{
							"internalType": "uint256",
							"name": "feeAnyone",
							"type": "uint256"
						},
						{
							"internalType": "address payable",
							"name": "baseReceiveFeeAddress",
							"type": "address"
						},
						{
							"internalType": "address payable",
							"name": "tokenReceiveFeeAddress",
							"type": "address"
						}
					],
					"stateMutability": "view",
					"type": "function"
				},
				{
					"inputs": [
						{
							"internalType": "address",
							"name": "newOwner",
							"type": "address"
						}
					],
					"name": "transferOwnership",
					"outputs": [],
					"stateMutability": "nonpayable",
					"type": "function"
				}
			],
			"devdoc": {
				"kind": "dev",
				"methods": {
					"owner()": {
						"details": "Returns the address of the current owner."
					},
					"renounceOwnership()": {
						"details": "Leaves the contract without owner. It will not be possible to call `onlyOwner` functions anymore. Can only be called by the current owner. NOTE: Renouncing ownership will leave the contract without an owner, thereby removing any functionality that is only available to the owner."
					},
					"transferOwnership(address)": {
						"details": "Transfers ownership of the contract to a new account (`newOwner`). Can only be called by the current owner."
					}
				},
				"version": 1
			},
			"evm": {
				"assembly": "    /* \"Ethereum/PresaleSettings.sol\":134:856  contract PresaleSettings is Ownable {\r... */\n  mstore(0x40, 0x80)\n    /* \"Ethereum/PresaleSettings.sol\":525:845  constructor() public {\r... */\n  callvalue\n  dup1\n  iszero\n  tag_1\n  jumpi\n  0x00\n  dup1\n  revert\ntag_1:\n  pop\n    /* \"Utils/Ownable.sol\":942:974  _transferOwnership(_msgSender()) */\n  tag_5\n    /* \"Utils/Context.sol\":736:746  msg.sender */\n  caller\n    /* \"Utils/Ownable.sol\":942:960  _transferOwnership */\n  tag_8\n    /* \"Utils/Ownable.sol\":942:974  _transferOwnership(_msgSender()) */\n  jump\t// in\ntag_5:\n    /* \"Ethereum/PresaleSettings.sol\":580:583  100 */\n  0x64\n    /* \"Ethereum/PresaleSettings.sol\":557:567  settingFee */\n  0x01\n    /* \"Ethereum/PresaleSettings.sol\":557:583  settingFee.refundFee = 100 */\n  sstore\n    /* \"Ethereum/PresaleSettings.sol\":616:618  50 */\n  0x32\n    /* \"Ethereum/PresaleSettings.sol\":594:613  settingFee.claimFee */\n  0x02\n    /* \"Ethereum/PresaleSettings.sol\":594:618  settingFee.claimFee = 50 */\n  sstore\n    /* \"Ethereum/PresaleSettings.sol\":659:666  1 ether */\n  0x0de0b6b3a7640000\n    /* \"Ethereum/PresaleSettings.sol\":629:656  settingFee.feeCreatePresale */\n  0x03\n    /* \"Ethereum/PresaleSettings.sol\":629:666  settingFee.feeCreatePresale = 1 ether */\n  sstore\n    /* \"Ethereum/PresaleSettings.sol\":700:702  20 */\n  0x14\n    /* \"Ethereum/PresaleSettings.sol\":677:697  settingFee.feeAnyone */\n  0x04\n    /* \"Ethereum/PresaleSettings.sol\":677:702  settingFee.feeAnyone = 20 */\n  sstore\n    /* \"Ethereum/PresaleSettings.sol\":713:745  settingFee.baseReceiveFeeAddress */\n  0x05\n    /* \"Ethereum/PresaleSettings.sol\":713:769  settingFee.baseReceiveFeeAddress = payable(_msgSender()) */\n  dup1\n  sload\n    /* \"Utils/Context.sol\":736:746  msg.sender */\n  caller\n  not(sub(shl(0xa0, 0x01), 0x01))\n    /* \"Ethereum/PresaleSettings.sol\":713:769  settingFee.baseReceiveFeeAddress = payable(_msgSender()) */\n  swap2\n  dup3\n  and\n  dup2\n  or\n  swap1\n  swap3\n  sstore\n    /* \"Ethereum/PresaleSettings.sol\":780:813  settingFee.tokenReceiveFeeAddress */\n  0x06\n    /* \"Ethereum/PresaleSettings.sol\":780:837  settingFee.tokenReceiveFeeAddress = payable(_msgSender()) */\n  dup1\n  sload\n  swap1\n  swap2\n  and\n  swap1\n  swap2\n  or\n  swap1\n  sstore\n    /* \"Ethereum/PresaleSettings.sol\":134:856  contract PresaleSettings is Ownable {\r... */\n  jump(tag_12)\n    /* \"Utils/Ownable.sol\":2333:2524  function _transferOwnership(address newOwner) internal virtual {\r... */\ntag_8:\n    /* \"Utils/Ownable.sol\":2407:2423  address oldOwner */\n  0x00\n    /* \"Utils/Ownable.sol\":2426:2432  _owner */\n  dup1\n  sload\n  sub(shl(0xa0, 0x01), 0x01)\n    /* \"Utils/Ownable.sol\":2443:2460  _owner = newOwner */\n  dup4\n  dup2\n  and\n  not(sub(shl(0xa0, 0x01), 0x01))\n  dup4\n  and\n  dup2\n  or\n  dup5\n  sstore\n    /* \"Utils/Ownable.sol\":2476:2516  OwnershipTransferred(oldOwner, newOwner) */\n  mload(0x40)\n    /* \"Utils/Ownable.sol\":2426:2432  _owner */\n  swap2\n  swap1\n  swap3\n  and\n  swap3\n  dup4\n  swap2\n    /* \"Utils/Ownable.sol\":2476:2516  OwnershipTransferred(oldOwner, newOwner) */\n  0x8be0079c531659141344cd1fd0a4f28419497f9722a3daafe3b4186f6b6457e0\n  swap2\n    /* \"Utils/Ownable.sol\":2407:2423  address oldOwner */\n  swap1\n    /* \"Utils/Ownable.sol\":2476:2516  OwnershipTransferred(oldOwner, newOwner) */\n  log3\n    /* \"Utils/Ownable.sol\":2396:2524  {\r... */\n  pop\n    /* \"Utils/Ownable.sol\":2333:2524  function _transferOwnership(address newOwner) internal virtual {\r... */\n  pop\n  jump\t// out\n    /* \"Ethereum/PresaleSettings.sol\":134:856  contract PresaleSettings is Ownable {\r... */\ntag_12:\n  dataSize(sub_0)\n  dup1\n  dataOffset(sub_0)\n  0x00\n  codecopy\n  0x00\n  return\nstop\n\nsub_0: assembly {\n        /* \"Ethereum/PresaleSettings.sol\":134:856  contract PresaleSettings is Ownable {\r... */\n      mstore(0x40, 0x80)\n      callvalue\n      dup1\n      iszero\n      tag_1\n      jumpi\n      0x00\n      dup1\n      revert\n    tag_1:\n      pop\n      jumpi(tag_2, lt(calldatasize, 0x04))\n      shr(0xe0, calldataload(0x00))\n      dup1\n      0x715018a6\n      eq\n      tag_3\n      jumpi\n      dup1\n      0x8da5cb5b\n      eq\n      tag_4\n      jumpi\n      dup1\n      0xdb03c400\n      eq\n      tag_5\n      jumpi\n      dup1\n      0xf2fde38b\n      eq\n      tag_6\n      jumpi\n    tag_2:\n      0x00\n      dup1\n      revert\n        /* \"Utils/Ownable.sol\":1714:1817  function renounceOwnership() public virtual onlyOwner {\r... */\n    tag_3:\n      tag_7\n      tag_8\n      jump\t// in\n    tag_7:\n      stop\n        /* \"Utils/Ownable.sol\":1063:1150  function owner() public view virtual returns (address) {\r... */\n    tag_4:\n        /* \"Utils/Ownable.sol\":1109:1116  address */\n      0x00\n        /* \"Utils/Ownable.sol\":1136:1142  _owner */\n      sload\n        /* \"Utils/Ownable.sol\":1063:1150  function owner() public view virtual returns (address) {\r... */\n      mload(0x40)\n      sub(shl(0xa0, 0x01), 0x01)\n        /* \"Utils/Ownable.sol\":1136:1142  _owner */\n      swap1\n      swap2\n      and\n        /* \"#utility.yul\":451:502   */\n      dup2\n      mstore\n        /* \"#utility.yul\":439:441   */\n      0x20\n        /* \"#utility.yul\":424:442   */\n      add\n        /* \"Utils/Ownable.sol\":1063:1150  function owner() public view virtual returns (address) {\r... */\n    tag_11:\n      mload(0x40)\n      dup1\n      swap2\n      sub\n      swap1\n      return\n        /* \"Ethereum/PresaleSettings.sol\":488:516  SettingFee public settingFee */\n    tag_5:\n      sload(0x01)\n      sload(0x02)\n      sload(0x03)\n      sload(0x04)\n      sload(0x05)\n      sload(0x06)\n      tag_13\n      swap6\n      swap5\n      swap4\n      swap3\n      swap2\n      sub(shl(0xa0, 0x01), 0x01)\n      swap1\n      dup2\n      and\n      swap2\n      and\n      dup7\n      jump\n    tag_13:\n      0x40\n      dup1\n      mload\n        /* \"#utility.yul\":1600:1625   */\n      swap7\n      dup8\n      mstore\n        /* \"#utility.yul\":1656:1658   */\n      0x20\n        /* \"#utility.yul\":1641:1659   */\n      dup8\n      add\n        /* \"#utility.yul\":1634:1668   */\n      swap6\n      swap1\n      swap6\n      mstore\n        /* \"#utility.yul\":1684:1702   */\n      swap4\n      dup6\n      add\n        /* \"#utility.yul\":1677:1711   */\n      swap3\n      swap1\n      swap3\n      mstore\n        /* \"#utility.yul\":1742:1744   */\n      0x60\n        /* \"#utility.yul\":1727:1745   */\n      dup5\n      add\n        /* \"#utility.yul\":1720:1754   */\n      mstore\n      sub(shl(0xa0, 0x01), 0x01)\n        /* \"#utility.yul\":1829:1844   */\n      swap1\n      dup2\n      and\n        /* \"#utility.yul\":1823:1826   */\n      0x80\n        /* \"#utility.yul\":1808:1827   */\n      dup5\n      add\n        /* \"#utility.yul\":1801:1845   */\n      mstore\n        /* \"#utility.yul\":1882:1897   */\n      and\n        /* \"#utility.yul\":1781:1784   */\n      0xa0\n        /* \"#utility.yul\":1861:1880   */\n      dup3\n      add\n        /* \"#utility.yul\":1854:1898   */\n      mstore\n        /* \"#utility.yul\":1587:1590   */\n      0xc0\n        /* \"#utility.yul\":1572:1591   */\n      add\n        /* \"Ethereum/PresaleSettings.sol\":488:516  SettingFee public settingFee */\n      tag_11\n        /* \"#utility.yul\":1554:1904   */\n      jump\n        /* \"Utils/Ownable.sol\":1972:2173  function transferOwnership(address newOwner) public virtual onlyOwner {\r... */\n    tag_6:\n      tag_7\n      tag_18\n      calldatasize\n      0x04\n      tag_19\n      jump\t// in\n    tag_18:\n      tag_20\n      jump\t// in\n        /* \"Utils/Ownable.sol\":1714:1817  function renounceOwnership() public virtual onlyOwner {\r... */\n    tag_8:\n        /* \"Utils/Ownable.sol\":1109:1116  address */\n      0x00\n        /* \"Utils/Ownable.sol\":1136:1142  _owner */\n      sload\n      sub(shl(0xa0, 0x01), 0x01)\n      and\n        /* \"Utils/Context.sol\":736:746  msg.sender */\n      caller\n        /* \"Utils/Ownable.sol\":1283:1306  owner() == _msgSender() */\n      eq\n        /* \"Utils/Ownable.sol\":1275:1343  require(owner() == _msgSender(), \"Ownable: caller is not the owner\") */\n      tag_25\n      jumpi\n      mload(0x40)\n      shl(0xe5, 0x461bcd)\n      dup2\n      mstore\n        /* \"#utility.yul\":1122:1124   */\n      0x20\n        /* \"Utils/Ownable.sol\":1275:1343  require(owner() == _msgSender(), \"Ownable: caller is not the owner\") */\n      0x04\n      dup3\n      add\n        /* \"#utility.yul\":1104:1125   */\n      dup2\n      swap1\n      mstore\n        /* \"#utility.yul\":1141:1159   */\n      0x24\n      dup3\n      add\n        /* \"#utility.yul\":1134:1164   */\n      mstore\n        /* \"#utility.yul\":1200:1234   */\n      0x4f776e61626c653a2063616c6c6572206973206e6f7420746865206f776e6572\n        /* \"#utility.yul\":1180:1198   */\n      0x44\n      dup3\n      add\n        /* \"#utility.yul\":1173:1235   */\n      mstore\n        /* \"#utility.yul\":1252:1270   */\n      0x64\n      add\n        /* \"Utils/Ownable.sol\":1275:1343  require(owner() == _msgSender(), \"Ownable: caller is not the owner\") */\n    tag_26:\n      mload(0x40)\n      dup1\n      swap2\n      sub\n      swap1\n      revert\n    tag_25:\n        /* \"Utils/Ownable.sol\":1779:1809  _transferOwnership(address(0)) */\n      tag_29\n        /* \"Utils/Ownable.sol\":1806:1807  0 */\n      0x00\n        /* \"Utils/Ownable.sol\":1779:1797  _transferOwnership */\n      tag_30\n        /* \"Utils/Ownable.sol\":1779:1809  _transferOwnership(address(0)) */\n      jump\t// in\n    tag_29:\n        /* \"Utils/Ownable.sol\":1714:1817  function renounceOwnership() public virtual onlyOwner {\r... */\n      jump\t// out\n        /* \"Utils/Ownable.sol\":1972:2173  function transferOwnership(address newOwner) public virtual onlyOwner {\r... */\n    tag_20:\n        /* \"Utils/Ownable.sol\":1109:1116  address */\n      0x00\n        /* \"Utils/Ownable.sol\":1136:1142  _owner */\n      sload\n      sub(shl(0xa0, 0x01), 0x01)\n      and\n        /* \"Utils/Context.sol\":736:746  msg.sender */\n      caller\n        /* \"Utils/Ownable.sol\":1283:1306  owner() == _msgSender() */\n      eq\n        /* \"Utils/Ownable.sol\":1275:1343  require(owner() == _msgSender(), \"Ownable: caller is not the owner\") */\n      tag_35\n      jumpi\n      mload(0x40)\n      shl(0xe5, 0x461bcd)\n      dup2\n      mstore\n        /* \"#utility.yul\":1122:1124   */\n      0x20\n        /* \"Utils/Ownable.sol\":1275:1343  require(owner() == _msgSender(), \"Ownable: caller is not the owner\") */\n      0x04\n      dup3\n      add\n        /* \"#utility.yul\":1104:1125   */\n      dup2\n      swap1\n      mstore\n        /* \"#utility.yul\":1141:1159   */\n      0x24\n      dup3\n      add\n        /* \"#utility.yul\":1134:1164   */\n      mstore\n        /* \"#utility.yul\":1200:1234   */\n      0x4f776e61626c653a2063616c6c6572206973206e6f7420746865206f776e6572\n        /* \"#utility.yul\":1180:1198   */\n      0x44\n      dup3\n      add\n        /* \"#utility.yul\":1173:1235   */\n      mstore\n        /* \"#utility.yul\":1252:1270   */\n      0x64\n      add\n        /* \"Utils/Ownable.sol\":1275:1343  require(owner() == _msgSender(), \"Ownable: caller is not the owner\") */\n      tag_26\n        /* \"#utility.yul\":1094:1276   */\n      jump\n        /* \"Utils/Ownable.sol\":1275:1343  require(owner() == _msgSender(), \"Ownable: caller is not the owner\") */\n    tag_35:\n      sub(shl(0xa0, 0x01), 0x01)\n        /* \"Utils/Ownable.sol\":2061:2083  newOwner != address(0) */\n      dup2\n      and\n        /* \"Utils/Ownable.sol\":2053:2126  require(newOwner != address(0), \"Ownable: new owner is the zero address\") */\n      tag_38\n      jumpi\n      mload(0x40)\n      shl(0xe5, 0x461bcd)\n      dup2\n      mstore\n        /* \"#utility.yul\":715:717   */\n      0x20\n        /* \"Utils/Ownable.sol\":2053:2126  require(newOwner != address(0), \"Ownable: new owner is the zero address\") */\n      0x04\n      dup3\n      add\n        /* \"#utility.yul\":697:718   */\n      mstore\n        /* \"#utility.yul\":754:756   */\n      0x26\n        /* \"#utility.yul\":734:752   */\n      0x24\n      dup3\n      add\n        /* \"#utility.yul\":727:757   */\n      mstore\n        /* \"#utility.yul\":793:827   */\n      0x4f776e61626c653a206e6577206f776e657220697320746865207a65726f2061\n        /* \"#utility.yul\":773:791   */\n      0x44\n      dup3\n      add\n        /* \"#utility.yul\":766:828   */\n      mstore\n      shl(0xd0, 0x646472657373)\n        /* \"#utility.yul\":844:862   */\n      0x64\n      dup3\n      add\n        /* \"#utility.yul\":837:873   */\n      mstore\n        /* \"#utility.yul\":890:909   */\n      0x84\n      add\n        /* \"Utils/Ownable.sol\":2053:2126  require(newOwner != address(0), \"Ownable: new owner is the zero address\") */\n      tag_26\n        /* \"#utility.yul\":687:915   */\n      jump\n        /* \"Utils/Ownable.sol\":2053:2126  require(newOwner != address(0), \"Ownable: new owner is the zero address\") */\n    tag_38:\n        /* \"Utils/Ownable.sol\":2137:2165  _transferOwnership(newOwner) */\n      tag_41\n        /* \"Utils/Ownable.sol\":2156:2164  newOwner */\n      dup2\n        /* \"Utils/Ownable.sol\":2137:2155  _transferOwnership */\n      tag_30\n        /* \"Utils/Ownable.sol\":2137:2165  _transferOwnership(newOwner) */\n      jump\t// in\n    tag_41:\n        /* \"Utils/Ownable.sol\":1972:2173  function transferOwnership(address newOwner) public virtual onlyOwner {\r... */\n      pop\n      jump\t// out\n        /* \"Utils/Ownable.sol\":2333:2524  function _transferOwnership(address newOwner) internal virtual {\r... */\n    tag_30:\n        /* \"Utils/Ownable.sol\":2407:2423  address oldOwner */\n      0x00\n        /* \"Utils/Ownable.sol\":2426:2432  _owner */\n      dup1\n      sload\n      sub(shl(0xa0, 0x01), 0x01)\n        /* \"Utils/Ownable.sol\":2443:2460  _owner = newOwner */\n      dup4\n      dup2\n      and\n      not(sub(shl(0xa0, 0x01), 0x01))\n      dup4\n      and\n      dup2\n      or\n      dup5\n      sstore\n        /* \"Utils/Ownable.sol\":2476:2516  OwnershipTransferred(oldOwner, newOwner) */\n      mload(0x40)\n        /* \"Utils/Ownable.sol\":2426:2432  _owner */\n      swap2\n      swap1\n      swap3\n      and\n      swap3\n      dup4\n      swap2\n        /* \"Utils/Ownable.sol\":2476:2516  OwnershipTransferred(oldOwner, newOwner) */\n      0x8be0079c531659141344cd1fd0a4f28419497f9722a3daafe3b4186f6b6457e0\n      swap2\n        /* \"Utils/Ownable.sol\":2407:2423  address oldOwner */\n      swap1\n        /* \"Utils/Ownable.sol\":2476:2516  OwnershipTransferred(oldOwner, newOwner) */\n      log3\n        /* \"Utils/Ownable.sol\":2396:2524  {\r... */\n      pop\n        /* \"Utils/Ownable.sol\":2333:2524  function _transferOwnership(address newOwner) internal virtual {\r... */\n      pop\n      jump\t// out\n        /* \"#utility.yul\":14:300   */\n    tag_19:\n        /* \"#utility.yul\":73:79   */\n      0x00\n        /* \"#utility.yul\":126:128   */\n      0x20\n        /* \"#utility.yul\":114:123   */\n      dup3\n        /* \"#utility.yul\":105:112   */\n      dup5\n        /* \"#utility.yul\":101:124   */\n      sub\n        /* \"#utility.yul\":97:129   */\n      slt\n        /* \"#utility.yul\":94:96   */\n      iszero\n      tag_46\n      jumpi\n        /* \"#utility.yul\":142:143   */\n      0x00\n        /* \"#utility.yul\":139:140   */\n      dup1\n        /* \"#utility.yul\":132:144   */\n      revert\n        /* \"#utility.yul\":94:96   */\n    tag_46:\n        /* \"#utility.yul\":168:191   */\n      dup2\n      calldataload\n      sub(shl(0xa0, 0x01), 0x01)\n        /* \"#utility.yul\":220:251   */\n      dup2\n      and\n        /* \"#utility.yul\":210:252   */\n      dup2\n      eq\n        /* \"#utility.yul\":200:202   */\n      tag_47\n      jumpi\n        /* \"#utility.yul\":266:267   */\n      0x00\n        /* \"#utility.yul\":263:264   */\n      dup1\n        /* \"#utility.yul\":256:268   */\n      revert\n        /* \"#utility.yul\":200:202   */\n    tag_47:\n        /* \"#utility.yul\":289:294   */\n      swap4\n        /* \"#utility.yul\":84:300   */\n      swap3\n      pop\n      pop\n      pop\n      jump\t// out\n\n    auxdata: 0xa264697066735822122030dbf31a8014a064c78174f9e4ecdb494892da4bd99b30e31537aa525c6cfb5964736f6c63430008050033\n}\n",
				"bytecode": {
					"linkReferences": {},
					"object": "608060405234801561001057600080fd5b5061001a3361005c565b60646001556032600255670de0b6b3a7640000600355601460045560058054336001600160a01b031991821681179092556006805490911690911790556100ac565b600080546001600160a01b038381166001600160a01b0319831681178455604051919092169283917f8be0079c531659141344cd1fd0a4f28419497f9722a3daafe3b4186f6b6457e09190a35050565b6102dd806100bb6000396000f3fe608060405234801561001057600080fd5b506004361061004c5760003560e01c8063715018a6146100515780638da5cb5b1461005b578063db03c4001461007b578063f2fde38b146100de575b600080fd5b6100596100f1565b005b6000546040516001600160a01b0390911681526020015b60405180910390f35b6001546002546003546004546005546006546100a595949392916001600160a01b03908116911686565b6040805196875260208701959095529385019290925260608401526001600160a01b0390811660808401521660a082015260c001610072565b6100596100ec366004610277565b61015c565b6000546001600160a01b031633146101505760405162461bcd60e51b815260206004820181905260248201527f4f776e61626c653a2063616c6c6572206973206e6f7420746865206f776e657260448201526064015b60405180910390fd5b61015a6000610227565b565b6000546001600160a01b031633146101b65760405162461bcd60e51b815260206004820181905260248201527f4f776e61626c653a2063616c6c6572206973206e6f7420746865206f776e65726044820152606401610147565b6001600160a01b03811661021b5760405162461bcd60e51b815260206004820152602660248201527f4f776e61626c653a206e6577206f776e657220697320746865207a65726f206160448201526564647265737360d01b6064820152608401610147565b61022481610227565b50565b600080546001600160a01b038381166001600160a01b0319831681178455604051919092169283917f8be0079c531659141344cd1fd0a4f28419497f9722a3daafe3b4186f6b6457e09190a35050565b60006020828403121561028957600080fd5b81356001600160a01b03811681146102a057600080fd5b939250505056fea264697066735822122030dbf31a8014a064c78174f9e4ecdb494892da4bd99b30e31537aa525c6cfb5964736f6c63430008050033",
					"opcodes": "PUSH1 0x80 PUSH1 0x40 MSTORE CALLVALUE DUP1 ISZERO PUSH2 0x10 JUMPI PUSH1 0x0 DUP1 REVERT JUMPDEST POP PUSH2 0x1A CALLER PUSH2 0x5C JUMP JUMPDEST PUSH1 0x64 PUSH1 0x1 SSTORE PUSH1 0x32 PUSH1 0x2 SSTORE PUSH8 0xDE0B6B3A7640000 PUSH1 0x3 SSTORE PUSH1 0x14 PUSH1 0x4 SSTORE PUSH1 0x5 DUP1 SLOAD CALLER PUSH1 0x1 PUSH1 0x1 PUSH1 0xA0 SHL SUB NOT SWAP2 DUP3 AND DUP2 OR SWAP1 SWAP3 SSTORE PUSH1 0x6 DUP1 SLOAD SWAP1 SWAP2 AND SWAP1 SWAP2 OR SWAP1 SSTORE PUSH2 0xAC JUMP JUMPDEST PUSH1 0x0 DUP1 SLOAD PUSH1 0x1 PUSH1 0x1 PUSH1 0xA0 SHL SUB DUP4 DUP2 AND PUSH1 0x1 PUSH1 0x1 PUSH1 0xA0 SHL SUB NOT DUP4 AND DUP2 OR DUP5 SSTORE PUSH1 0x40 MLOAD SWAP2 SWAP1 SWAP3 AND SWAP3 DUP4 SWAP2 PUSH32 0x8BE0079C531659141344CD1FD0A4F28419497F9722A3DAAFE3B4186F6B6457E0 SWAP2 SWAP1 LOG3 POP POP JUMP JUMPDEST PUSH2 0x2DD DUP1 PUSH2 0xBB PUSH1 0x0 CODECOPY PUSH1 0x0 RETURN INVALID PUSH1 0x80 PUSH1 0x40 MSTORE CALLVALUE DUP1 ISZERO PUSH2 0x10 JUMPI PUSH1 0x0 DUP1 REVERT JUMPDEST POP PUSH1 0x4 CALLDATASIZE LT PUSH2 0x4C JUMPI PUSH1 0x0 CALLDATALOAD PUSH1 0xE0 SHR DUP1 PUSH4 0x715018A6 EQ PUSH2 0x51 JUMPI DUP1 PUSH4 0x8DA5CB5B EQ PUSH2 0x5B JUMPI DUP1 PUSH4 0xDB03C400 EQ PUSH2 0x7B JUMPI DUP1 PUSH4 0xF2FDE38B EQ PUSH2 0xDE JUMPI JUMPDEST PUSH1 0x0 DUP1 REVERT JUMPDEST PUSH2 0x59 PUSH2 0xF1 JUMP JUMPDEST STOP JUMPDEST PUSH1 0x0 SLOAD PUSH1 0x40 MLOAD PUSH1 0x1 PUSH1 0x1 PUSH1 0xA0 SHL SUB SWAP1 SWAP2 AND DUP2 MSTORE PUSH1 0x20 ADD JUMPDEST PUSH1 0x40 MLOAD DUP1 SWAP2 SUB SWAP1 RETURN JUMPDEST PUSH1 0x1 SLOAD PUSH1 0x2 SLOAD PUSH1 0x3 SLOAD PUSH1 0x4 SLOAD PUSH1 0x5 SLOAD PUSH1 0x6 SLOAD PUSH2 0xA5 SWAP6 SWAP5 SWAP4 SWAP3 SWAP2 PUSH1 0x1 PUSH1 0x1 PUSH1 0xA0 SHL SUB SWAP1 DUP2 AND SWAP2 AND DUP7 JUMP JUMPDEST PUSH1 0x40 DUP1 MLOAD SWAP7 DUP8 MSTORE PUSH1 0x20 DUP8 ADD SWAP6 SWAP1 SWAP6 MSTORE SWAP4 DUP6 ADD SWAP3 SWAP1 SWAP3 MSTORE PUSH1 0x60 DUP5 ADD MSTORE PUSH1 0x1 PUSH1 0x1 PUSH1 0xA0 SHL SUB SWAP1 DUP2 AND PUSH1 0x80 DUP5 ADD MSTORE AND PUSH1 0xA0 DUP3 ADD MSTORE PUSH1 0xC0 ADD PUSH2 0x72 JUMP JUMPDEST PUSH2 0x59 PUSH2 0xEC CALLDATASIZE PUSH1 0x4 PUSH2 0x277 JUMP JUMPDEST PUSH2 0x15C JUMP JUMPDEST PUSH1 0x0 SLOAD PUSH1 0x1 PUSH1 0x1 PUSH1 0xA0 SHL SUB AND CALLER EQ PUSH2 0x150 JUMPI PUSH1 0x40 MLOAD PUSH3 0x461BCD PUSH1 0xE5 SHL DUP2 MSTORE PUSH1 0x20 PUSH1 0x4 DUP3 ADD DUP2 SWAP1 MSTORE PUSH1 0x24 DUP3 ADD MSTORE PUSH32 0x4F776E61626C653A2063616C6C6572206973206E6F7420746865206F776E6572 PUSH1 0x44 DUP3 ADD MSTORE PUSH1 0x64 ADD JUMPDEST PUSH1 0x40 MLOAD DUP1 SWAP2 SUB SWAP1 REVERT JUMPDEST PUSH2 0x15A PUSH1 0x0 PUSH2 0x227 JUMP JUMPDEST JUMP JUMPDEST PUSH1 0x0 SLOAD PUSH1 0x1 PUSH1 0x1 PUSH1 0xA0 SHL SUB AND CALLER EQ PUSH2 0x1B6 JUMPI PUSH1 0x40 MLOAD PUSH3 0x461BCD PUSH1 0xE5 SHL DUP2 MSTORE PUSH1 0x20 PUSH1 0x4 DUP3 ADD DUP2 SWAP1 MSTORE PUSH1 0x24 DUP3 ADD MSTORE PUSH32 0x4F776E61626C653A2063616C6C6572206973206E6F7420746865206F776E6572 PUSH1 0x44 DUP3 ADD MSTORE PUSH1 0x64 ADD PUSH2 0x147 JUMP JUMPDEST PUSH1 0x1 PUSH1 0x1 PUSH1 0xA0 SHL SUB DUP2 AND PUSH2 0x21B JUMPI PUSH1 0x40 MLOAD PUSH3 0x461BCD PUSH1 0xE5 SHL DUP2 MSTORE PUSH1 0x20 PUSH1 0x4 DUP3 ADD MSTORE PUSH1 0x26 PUSH1 0x24 DUP3 ADD MSTORE PUSH32 0x4F776E61626C653A206E6577206F776E657220697320746865207A65726F2061 PUSH1 0x44 DUP3 ADD MSTORE PUSH6 0x646472657373 PUSH1 0xD0 SHL PUSH1 0x64 DUP3 ADD MSTORE PUSH1 0x84 ADD PUSH2 0x147 JUMP JUMPDEST PUSH2 0x224 DUP2 PUSH2 0x227 JUMP JUMPDEST POP JUMP JUMPDEST PUSH1 0x0 DUP1 SLOAD PUSH1 0x1 PUSH1 0x1 PUSH1 0xA0 SHL SUB DUP4 DUP2 AND PUSH1 0x1 PUSH1 0x1 PUSH1 0xA0 SHL SUB NOT DUP4 AND DUP2 OR DUP5 SSTORE PUSH1 0x40 MLOAD SWAP2 SWAP1 SWAP3 AND SWAP3 DUP4 SWAP2 PUSH32 0x8BE0079C531659141344CD1FD0A4F28419497F9722A3DAAFE3B4186F6B6457E0 SWAP2 SWAP1 LOG3 POP POP JUMP JUMPDEST PUSH1 0x0 PUSH1 0x20 DUP3 DUP5 SUB SLT ISZERO PUSH2 0x289 JUMPI PUSH1 0x0 DUP1 REVERT JUMPDEST DUP2 CALLDATALOAD PUSH1 0x1 PUSH1 0x1 PUSH1 0xA0 SHL SUB DUP2 AND DUP2 EQ PUSH2 0x2A0 JUMPI PUSH1 0x0 DUP1 REVERT JUMPDEST SWAP4 SWAP3 POP POP POP JUMP INVALID LOG2 PUSH5 0x6970667358 0x22 SLT KECCAK256 ADDRESS 0xDB RETURN BYTE DUP1 EQ LOG0 PUSH5 0xC78174F9E4 0xEC 0xDB 0x49 0x48 SWAP3 0xDA 0x4B 0xD9 SWAP12 ADDRESS 0xE3 ISZERO CALLDATACOPY 0xAA MSTORE 0x5C PUSH13 0xFB5964736F6C63430008050033 "
				},
				"gasEstimates": {
					"creation": {
						"codeDepositCost": "146600",
						"executionCost": "162929",
						"totalCost": "309529"
					},
					"external": {
						"owner()": "2290",
						"renounceOwnership()": "28092",
						"settingFee()": "13000",
						"transferOwnership(address)": "28318"
					}
				},
				"methodIdentifiers": {
					"owner()": "8da5cb5b",
					"renounceOwnership()": "715018a6",
					"settingFee()": "db03c400",
					"transferOwnership(address)": "f2fde38b"
				}
			},
			"storageLayout": {
				"storage": [
					{
						"astId": 703,
						"contract": "Ethereum/PresaleSettings.sol:PresaleSettings",
						"label": "_owner",
						"offset": 0,
						"slot": "0",
						"type": "t_address"
					},
					{
						"astId": 25,
						"contract": "Ethereum/PresaleSettings.sol:PresaleSettings",
						"label": "settingFee",
						"offset": 0,
						"slot": "1",
						"type": "t_struct(SettingFee)22_storage"
					}
				],
				"types": {
					"t_address": {
						"encoding": "inplace",
						"label": "address",
						"numberOfBytes": "20"
					},
					"t_address_payable": {
						"encoding": "inplace",
						"label": "address payable",
						"numberOfBytes": "20"
					},
					"t_struct(SettingFee)22_storage": {
						"encoding": "inplace",
						"label": "struct PresaleSettings.SettingFee",
						"members": [
							{
								"astId": 11,
								"contract": "Ethereum/PresaleSettings.sol:PresaleSettings",
								"label": "refundFee",
								"offset": 0,
								"slot": "0",
								"type": "t_uint256"
							},
							{
								"astId": 13,
								"contract": "Ethereum/PresaleSettings.sol:PresaleSettings",
								"label": "claimFee",
								"offset": 0,
								"slot": "1",
								"type": "t_uint256"
							},
							{
								"astId": 15,
								"contract": "Ethereum/PresaleSettings.sol:PresaleSettings",
								"label": "feeCreatePresale",
								"offset": 0,
								"slot": "2",
								"type": "t_uint256"
							},
							{
								"astId": 17,
								"contract": "Ethereum/PresaleSettings.sol:PresaleSettings",
								"label": "feeAnyone",
								"offset": 0,
								"slot": "3",
								"type": "t_uint256"
							},
							{
								"astId": 19,
								"contract": "Ethereum/PresaleSettings.sol:PresaleSettings",
								"label": "baseReceiveFeeAddress",
								"offset": 0,
								"slot": "4",
								"type": "t_address_payable"
							},
							{
								"astId": 21,
								"contract": "Ethereum/PresaleSettings.sol:PresaleSettings",
								"label": "tokenReceiveFeeAddress",
								"offset": 0,
								"slot": "5",
								"type": "t_address_payable"
							}
						],
						"numberOfBytes": "192"
					},
					"t_uint256": {
						"encoding": "inplace",
						"label": "uint256",
						"numberOfBytes": "32"
					}
				}
			},
			"userdoc": {
				"kind": "user",
				"methods": {},
				"version": 1
			}
		}
	}
}