{
	"Ethereum/Presale.sol": {
		"Presale": {
			"abi": [
				{
					"inputs": [],
					"stateMutability": "payable",
					"type": "constructor"
				},
				{
					"anonymous": false,
					"inputs": [
						{
							"indexed": true,
							"internalType": "address",
							"name": "previousOwner",
							"type": "address"
						},
						{
							"indexed": true,
							"internalType": "address",
							"name": "newOwner",
							"type": "address"
						}
					],
					"name": "OwnershipTransferred",
					"type": "event"
				},
				{
					"inputs": [],
					"name": "WETH",
					"outputs": [
						{
							"internalType": "contract IERC20",
							"name": "",
							"type": "address"
						}
					],
					"stateMutability": "view",
					"type": "function"
				},
				{
					"inputs": [],
					"name": "backToken",
					"outputs": [],
					"stateMutability": "payable",
					"type": "function"
				},
				{
					"inputs": [
						{
							"internalType": "address",
							"name": "",
							"type": "address"
						}
					],
					"name": "buyerInfo",
					"outputs": [
						{
							"internalType": "uint256",
							"name": "baseDeposit",
							"type": "uint256"
						},
						{
							"internalType": "uint256",
							"name": "tokenOwner",
							"type": "uint256"
						},
						{
							"internalType": "uint256",
							"name": "lastWithDraw",
							"type": "uint256"
						},
						{
							"internalType": "uint256",
							"name": "totalTokenWithDraw",
							"type": "uint256"
						}
					],
					"stateMutability": "view",
					"type": "function"
				},
				{
					"inputs": [],
					"name": "checkAdminAddress",
					"outputs": [
						{
							"internalType": "bool",
							"name": "",
							"type": "bool"
						}
					],
					"stateMutability": "view",
					"type": "function"
				},
				{
					"inputs": [
						{
							"internalType": "uint256",
							"name": "_amount",
							"type": "uint256"
						}
					],
					"name": "deposit",
					"outputs": [],
					"stateMutability": "payable",
					"type": "function"
				},
				{
					"inputs": [],
					"name": "feeAnyone",
					"outputs": [
						{
							"internalType": "uint256",
							"name": "",
							"type": "uint256"
						}
					],
					"stateMutability": "view",
					"type": "function"
				},
				{
					"inputs": [
						{
							"internalType": "address",
							"name": "_address",
							"type": "address"
						}
					],
					"name": "getBalance",
					"outputs": [
						{
							"internalType": "uint256",
							"name": "",
							"type": "uint256"
						}
					],
					"stateMutability": "view",
					"type": "function"
				},
				{
					"inputs": [
						{
							"internalType": "address payable",
							"name": "_presaleOwner",
							"type": "address"
						},
						{
							"internalType": "contract ERC20",
							"name": "_saleToken",
							"type": "address"
						},
						{
							"internalType": "contract ERC20",
							"name": "_baseTOken",
							"type": "address"
						},
						{
							"internalType": "uint256[9]",
							"name": "datas",
							"type": "uint256[9]"
						}
					],
					"name": "initialSaleInfor",
					"outputs": [],
					"stateMutability": "nonpayable",
					"type": "function"
				},
				{
					"inputs": [],
					"name": "owner",
					"outputs": [
						{
							"internalType": "address",
							"name": "",
							"type": "address"
						}
					],
					"stateMutability": "view",
					"type": "function"
				},
				{
					"inputs": [],
					"name": "ownerClaimAndRefundToken",
					"outputs": [],
					"stateMutability": "nonpayable",
					"type": "function"
				},
				{
					"inputs": [],
					"name": "presaleStatus",
					"outputs": [
						{
							"internalType": "uint256",
							"name": "totalBaseCollected",
							"type": "uint256"
						},
						{
							"internalType": "uint256",
							"name": "totalTokenSold",
							"type": "uint256"
						},
						{
							"internalType": "uint256",
							"name": "totalTokenWithDraw",
							"type": "uint256"
						},
						{
							"internalType": "uint256",
							"name": "totalBaseWithDraw",
							"type": "uint256"
						},
						{
							"internalType": "uint256",
							"name": "numberBuyer",
							"type": "uint256"
						},
						{
							"internalType": "bool",
							"name": "isOwnerClaimSaleToken",
							"type": "bool"
						},
						{
							"internalType": "bool",
							"name": "isOwnerRefundBaseToken",
							"type": "bool"
						}
					],
					"stateMutability": "view",
					"type": "function"
				},
				{
					"inputs": [],
					"name": "renounceOwnership",
					"outputs": [],
					"stateMutability": "nonpayable",
					"type": "function"
				},
				{
					"inputs": [],
					"name": "saleInfor",
					"outputs": [
						{
							"internalType": "address payable",
							"name": "presaleOwner",
							"type": "address"
						},
						{
							"internalType": "contract ERC20",
							"name": "saleToken",
							"type": "address"
						},
						{
							"internalType": "contract ERC20",
							"name": "baseToken",
							"type": "address"
						},
						{
							"internalType": "uint256",
							"name": "tokenPrice",
							"type": "uint256"
						},
						{
							"internalType": "uint256",
							"name": "startSale",
							"type": "uint256"
						},
						{
							"internalType": "uint256",
							"name": "endSale",
							"type": "uint256"
						},
						{
							"internalType": "uint256",
							"name": "minSpendPerBuyer",
							"type": "uint256"
						},
						{
							"internalType": "uint256",
							"name": "maxSpendPerBuyer",
							"type": "uint256"
						},
						{
							"internalType": "uint256",
							"name": "refundFee",
							"type": "uint256"
						},
						{
							"internalType": "uint256",
							"name": "claimFee",
							"type": "uint256"
						},
						{
							"internalType": "bool",
							"name": "saleIsBaseToken",
							"type": "bool"
						},
						{
							"internalType": "uint256",
							"name": "amountTokenForSale",
							"type": "uint256"
						}
					],
					"stateMutability": "view",
					"type": "function"
				},
				{
					"inputs": [],
					"name": "saleTotalSupply",
					"outputs": [
						{
							"internalType": "uint256",
							"name": "hardCap",
							"type": "uint256"
						},
						{
							"internalType": "uint256",
							"name": "softCap",
							"type": "uint256"
						}
					],
					"stateMutability": "view",
					"type": "function"
				},
				{
					"inputs": [],
					"name": "status",
					"outputs": [
						{
							"internalType": "uint256",
							"name": "",
							"type": "uint256"
						}
					],
					"stateMutability": "view",
					"type": "function"
				},
				{
					"inputs": [],
					"name": "totalFee",
					"outputs": [
						{
							"internalType": "uint256",
							"name": "",
							"type": "uint256"
						}
					],
					"stateMutability": "view",
					"type": "function"
				},
				{
					"inputs": [
						{
							"internalType": "address",
							"name": "newOwner",
							"type": "address"
						}
					],
					"name": "transferOwnership",
					"outputs": [],
					"stateMutability": "nonpayable",
					"type": "function"
				},
				{
					"inputs": [],
					"name": "userClaimEmergency",
					"outputs": [],
					"stateMutability": "nonpayable",
					"type": "function"
				},
				{
					"inputs": [
						{
							"internalType": "bool",
							"name": "isClaim",
							"type": "bool"
						}
					],
					"name": "userClaimOrRefundWhenSaleSuccess",
					"outputs": [],
					"stateMutability": "nonpayable",
					"type": "function"
				},
				{
					"inputs": [
						{
							"internalType": "address",
							"name": "",
							"type": "address"
						}
					],
					"name": "userFee",
					"outputs": [
						{
							"internalType": "uint256",
							"name": "",
							"type": "uint256"
						}
					],
					"stateMutability": "view",
					"type": "function"
				},
				{
					"inputs": [],
					"name": "userRefundEmergency",
					"outputs": [],
					"stateMutability": "nonpayable",
					"type": "function"
				}
			],
			"devdoc": {
				"kind": "dev",
				"methods": {
					"owner()": {
						"details": "Returns the address of the current owner."
					},
					"renounceOwnership()": {
						"details": "Leaves the contract without owner. It will not be possible to call `onlyOwner` functions anymore. Can only be called by the current owner. NOTE: Renouncing ownership will leave the contract without an owner, thereby removing any functionality that is only available to the owner."
					},
					"transferOwnership(address)": {
						"details": "Transfers ownership of the contract to a new account (`newOwner`). Can only be called by the current owner."
					}
				},
				"version": 1
			},
			"evm": {
				"assembly": "    /* \"Ethereum/Presale.sol\":370:10621  contract Presale is ReentrancyGuard, Ownable{\r... */\n  mstore(0x40, 0x80)\n    /* \"Utils/ReentrancyGuard.sol\":1734:1735  1 */\n  0x01\n    /* \"Utils/ReentrancyGuard.sol\":1845:1852  _status */\n  0x00\n    /* \"Utils/ReentrancyGuard.sol\":1845:1867  _status = _NOT_ENTERED */\n  sstore\n    /* \"Utils/Ownable.sol\":942:974  _transferOwnership(_msgSender()) */\n  tag_6\n    /* \"Utils/Context.sol\":736:746  msg.sender */\n  caller\n    /* \"Utils/Ownable.sol\":942:960  _transferOwnership */\n  tag_9\n    /* \"Utils/Ownable.sol\":942:974  _transferOwnership(_msgSender()) */\n  jump\t// in\ntag_6:\n    /* \"Ethereum/Presale.sol\":2246:2250  WETH */\n  0x19\n    /* \"Ethereum/Presale.sol\":2246:2302  WETH = ERC20(0xc778417E063141139Fce010982780140Aa0cD5Ab) */\n  dup1\n  sload\n    /* \"Ethereum/Presale.sol\":2259:2301  0xc778417E063141139Fce010982780140Aa0cD5Ab */\n  0xc778417e063141139fce010982780140aa0cd5ab\n  not(sub(shl(0xa0, 0x01), 0x01))\n    /* \"Ethereum/Presale.sol\":2246:2302  WETH = ERC20(0xc778417E063141139Fce010982780140Aa0cD5Ab) */\n  swap1\n  swap2\n  and\n  or\n  swap1\n  sstore\n    /* \"Ethereum/Presale.sol\":2313:2367  admins.add(0x6Ccb41eedA5a073076F3E7dC1614C185b5fA41eD) */\n  tag_11\n    /* \"Ethereum/Presale.sol\":2313:2319  admins */\n  0x1b\n    /* \"Ethereum/Presale.sol\":2324:2366  0x6Ccb41eedA5a073076F3E7dC1614C185b5fA41eD */\n  0x6ccb41eeda5a073076f3e7dc1614c185b5fa41ed\n    /* \"Ethereum/Presale.sol\":2313:2323  admins.add */\n  tag_12\n  0x20\n  swap1\n  dup2\n  shl\n  tag_0_118\n  or\n    /* \"Ethereum/Presale.sol\":2313:2367  admins.add(0x6Ccb41eedA5a073076F3E7dC1614C185b5fA41eD) */\n  swap1\n  shr\n  jump\t// in\ntag_11:\n  pop\n    /* \"Ethereum/Presale.sol\":2378:2432  admins.add(0x4f0B12bBF40Fc182559822A5b1dB6D34dbC3E016) */\n  tag_13\n    /* \"Ethereum/Presale.sol\":2389:2431  0x4f0B12bBF40Fc182559822A5b1dB6D34dbC3E016 */\n  0x4f0b12bbf40fc182559822a5b1db6d34dbc3e016\n    /* \"Ethereum/Presale.sol\":2378:2384  admins */\n  0x1b\n    /* \"Ethereum/Presale.sol\":2378:2388  admins.add */\n  or(tag_0_118, shl(0x20, tag_12))\n  swap1\n    /* \"Ethereum/Presale.sol\":2378:2432  admins.add(0x4f0B12bBF40Fc182559822A5b1dB6D34dbC3E016) */\n  swap2\n  swap1\n  0x20\n  shr\n  jump\t// in\ntag_13:\n  pop\n    /* \"Ethereum/Presale.sol\":2455:2457  20 */\n  0x14\n    /* \"Ethereum/Presale.sol\":2443:2452  feeAnyone */\n  0x1a\n    /* \"Ethereum/Presale.sol\":2443:2457  feeAnyone = 20 */\n  sstore\n    /* \"Ethereum/Presale.sol\":370:10621  contract Presale is ReentrancyGuard, Ownable{\r... */\n  jump(tag_14)\n    /* \"Utils/Ownable.sol\":2333:2524  function _transferOwnership(address newOwner) internal virtual {\r... */\ntag_9:\n    /* \"Utils/Ownable.sol\":2426:2432  _owner */\n  0x01\n  dup1\n  sload\n  sub(shl(0xa0, 0x01), 0x01)\n    /* \"Utils/Ownable.sol\":2443:2460  _owner = newOwner */\n  dup4\n  dup2\n  and\n  not(sub(shl(0xa0, 0x01), 0x01))\n  dup4\n  and\n  dup2\n  or\n  swap1\n  swap4\n  sstore\n    /* \"Utils/Ownable.sol\":2476:2516  OwnershipTransferred(oldOwner, newOwner) */\n  mload(0x40)\n    /* \"Utils/Ownable.sol\":2426:2432  _owner */\n  swap2\n  and\n  swap2\n    /* \"Utils/Ownable.sol\":2443:2460  _owner = newOwner */\n  swap1\n    /* \"Utils/Ownable.sol\":2426:2432  _owner */\n  dup3\n  swap1\n    /* \"Utils/Ownable.sol\":2476:2516  OwnershipTransferred(oldOwner, newOwner) */\n  0x8be0079c531659141344cd1fd0a4f28419497f9722a3daafe3b4186f6b6457e0\n  swap1\n    /* \"Utils/Ownable.sol\":2407:2423  address oldOwner */\n  0x00\n  swap1\n    /* \"Utils/Ownable.sol\":2476:2516  OwnershipTransferred(oldOwner, newOwner) */\n  log3\n    /* \"Utils/Ownable.sol\":2396:2524  {\r... */\n  pop\n    /* \"Utils/Ownable.sol\":2333:2524  function _transferOwnership(address newOwner) internal virtual {\r... */\n  pop\n  jump\t// out\n    /* \"Utils/EnumerableSet.sol\":8259:8411  function add(AddressSet storage set, address value) internal returns (bool) {\r... */\ntag_12:\n    /* \"Utils/EnumerableSet.sol\":8329:8333  bool */\n  0x00\n    /* \"Utils/EnumerableSet.sol\":8353:8403  _add(set._inner, bytes32(uint256(uint160(value)))) */\n  tag_18\n    /* \"Utils/EnumerableSet.sol\":8358:8361  set */\n  dup4\n  sub(shl(0xa0, 0x01), 0x01)\n    /* \"Utils/EnumerableSet.sol\":8378:8401  uint256(uint160(value)) */\n  dup5\n  and\n    /* \"Utils/EnumerableSet.sol\":8353:8357  _add */\n  tag_19\n    /* \"Utils/EnumerableSet.sol\":8353:8403  _add(set._inner, bytes32(uint256(uint160(value)))) */\n  jump\t// in\ntag_18:\n    /* \"Utils/EnumerableSet.sol\":8346:8403  return _add(set._inner, bytes32(uint256(uint160(value)))) */\n  swap1\n  pop\n    /* \"Utils/EnumerableSet.sol\":8259:8411  function add(AddressSet storage set, address value) internal returns (bool) {\r... */\ntag_17:\n  swap3\n  swap2\n  pop\n  pop\n  jump\t// out\n    /* \"Utils/EnumerableSet.sol\":2174:2588  function _add(Set storage set, bytes32 value) private returns (bool) {\r... */\ntag_19:\n    /* \"Utils/EnumerableSet.sol\":2237:2241  bool */\n  0x00\n    /* \"Utils/EnumerableSet.sol\":4367:4386  set._indexes[value] */\n  dup2\n  dup2\n  mstore\n    /* \"Utils/EnumerableSet.sol\":4367:4379  set._indexes */\n  0x01\n  dup4\n  add\n    /* \"Utils/EnumerableSet.sol\":4367:4386  set._indexes[value] */\n  0x20\n  mstore\n  0x40\n  dup2\n  keccak256\n  sload\n    /* \"Utils/EnumerableSet.sol\":2254:2581  if (!_contains(set, value)) {\r... */\n  tag_23\n  jumpi\n  pop\n    /* \"Utils/EnumerableSet.sol\":2297:2320  set._values.push(value) */\n  dup2\n  sload\n  0x01\n  dup2\n  dup2\n  add\n  dup5\n  sstore\n    /* \"Utils/EnumerableSet.sol\":2297:2308  set._values */\n  0x00\n    /* \"Utils/EnumerableSet.sol\":2297:2320  set._values.push(value) */\n  dup5\n  dup2\n  mstore\n  0x20\n  dup1\n  dup3\n  keccak256\n  swap1\n  swap4\n  add\n  dup5\n  swap1\n  sstore\n    /* \"Utils/EnumerableSet.sol\":2480:2498  set._values.length */\n  dup5\n  sload\n    /* \"Utils/EnumerableSet.sol\":2458:2477  set._indexes[value] */\n  dup5\n  dup3\n  mstore\n    /* \"Utils/EnumerableSet.sol\":2458:2470  set._indexes */\n  dup3\n  dup7\n  add\n    /* \"Utils/EnumerableSet.sol\":2458:2477  set._indexes[value] */\n  swap1\n  swap4\n  mstore\n  0x40\n  swap1\n  keccak256\n    /* \"Utils/EnumerableSet.sol\":2458:2498  set._indexes[value] = set._values.length */\n  swap2\n  swap1\n  swap2\n  sstore\n    /* \"Utils/EnumerableSet.sol\":2513:2524  return true */\n  jump(tag_17)\n    /* \"Utils/EnumerableSet.sol\":2254:2581  if (!_contains(set, value)) {\r... */\ntag_23:\n  pop\n    /* \"Utils/EnumerableSet.sol\":2564:2569  false */\n  0x00\n    /* \"Utils/EnumerableSet.sol\":2557:2569  return false */\n  jump(tag_17)\n    /* \"Ethereum/Presale.sol\":370:10621  contract Presale is ReentrancyGuard, Ownable{\r... */\ntag_14:\n  dataSize(sub_0)\n  dup1\n  dataOffset(sub_0)\n  0x00\n  codecopy\n  0x00\n  return\nstop\n\nsub_0: assembly {\n        /* \"Ethereum/Presale.sol\":370:10621  contract Presale is ReentrancyGuard, Ownable{\r... */\n      mstore(0x40, 0x80)\n      jumpi(tag_1, lt(calldatasize, 0x04))\n      shr(0xe0, calldataload(0x00))\n      dup1\n      0x8f1eae4c\n      gt\n      tag_23\n      jumpi\n      dup1\n      0xb6b55f25\n      gt\n      tag_24\n      jumpi\n      dup1\n      0xb6b55f25\n      eq\n      tag_17\n      jumpi\n      dup1\n      0xcad5b0f7\n      eq\n      tag_18\n      jumpi\n      dup1\n      0xe2d3f423\n      eq\n      tag_19\n      jumpi\n      dup1\n      0xeb002bb0\n      eq\n      tag_20\n      jumpi\n      dup1\n      0xf2fde38b\n      eq\n      tag_21\n      jumpi\n      dup1\n      0xf8b2cb4f\n      eq\n      tag_22\n      jumpi\n      0x00\n      dup1\n      revert\n    tag_24:\n      dup1\n      0x8f1eae4c\n      eq\n      tag_12\n      jumpi\n      dup1\n      0x95661e70\n      eq\n      tag_13\n      jumpi\n      dup1\n      0xab33985a\n      eq\n      tag_14\n      jumpi\n      dup1\n      0xacfb2355\n      eq\n      tag_15\n      jumpi\n      dup1\n      0xad5c4648\n      eq\n      tag_16\n      jumpi\n      0x00\n      dup1\n      revert\n    tag_23:\n      dup1\n      0x56c5f349\n      gt\n      tag_25\n      jumpi\n      dup1\n      0x56c5f349\n      eq\n      tag_7\n      jumpi\n      dup1\n      0x715018a6\n      eq\n      tag_8\n      jumpi\n      dup1\n      0x861faf5f\n      eq\n      tag_9\n      jumpi\n      dup1\n      0x8da5cb5b\n      eq\n      tag_10\n      jumpi\n      dup1\n      0x8edf18e6\n      eq\n      tag_11\n      jumpi\n      0x00\n      dup1\n      revert\n    tag_25:\n      dup1\n      0x12e5d0b9\n      eq\n      tag_2\n      jumpi\n      dup1\n      0x18856a2f\n      eq\n      tag_3\n      jumpi\n      dup1\n      0x1df4ccfc\n      eq\n      tag_4\n      jumpi\n      dup1\n      0x200d2ed2\n      eq\n      tag_5\n      jumpi\n      dup1\n      0x3b5ef2ad\n      eq\n      tag_6\n      jumpi\n    tag_1:\n      0x00\n      dup1\n      revert\n        /* \"Ethereum/Presale.sol\":1624:1662  SaleTotalSupply public saleTotalSupply */\n    tag_2:\n      callvalue\n      dup1\n      iszero\n      tag_26\n      jumpi\n      0x00\n      dup1\n      revert\n    tag_26:\n      pop\n      sload(0x0b)\n      sload(0x0c)\n      tag_27\n      swap2\n      swap1\n      dup3\n      jump\n    tag_27:\n      0x40\n      dup1\n      mload\n        /* \"#utility.yul\":11342:11367   */\n      swap3\n      dup4\n      mstore\n        /* \"#utility.yul\":11398:11400   */\n      0x20\n        /* \"#utility.yul\":11383:11401   */\n      dup4\n      add\n        /* \"#utility.yul\":11376:11410   */\n      swap2\n      swap1\n      swap2\n      mstore\n        /* \"#utility.yul\":11315:11333   */\n      add\n        /* \"Ethereum/Presale.sol\":1624:1662  SaleTotalSupply public saleTotalSupply */\n    tag_29:\n      mload(0x40)\n      dup1\n      swap2\n      sub\n      swap1\n      return\n        /* \"Ethereum/Presale.sol\":1669:1695  SaleInfor public saleInfor */\n    tag_3:\n      callvalue\n      dup1\n      iszero\n      tag_31\n      jumpi\n      0x00\n      dup1\n      revert\n    tag_31:\n      pop\n      sload(0x0d)\n      sload(0x0e)\n      sload(0x0f)\n      sload(0x10)\n      sload(0x11)\n      sload(0x12)\n      sload(0x13)\n      sload(0x14)\n      sload(0x15)\n      sload(0x16)\n      sload(0x17)\n      sload(0x18)\n      tag_32\n      swap12\n      sub(shl(0xa0, 0x01), 0x01)\n      swap1\n      dup2\n      and\n      swap12\n      dup2\n      and\n      swap11\n      and\n      swap9\n      swap8\n      swap7\n      swap6\n      swap5\n      swap4\n      swap3\n      swap2\n      0xff\n      and\n      swap1\n      dup13\n      jump\n    tag_32:\n      0x40\n      dup1\n      mload\n      sub(shl(0xa0, 0x01), 0x01)\n        /* \"#utility.yul\":3590:3605   */\n      swap14\n      dup15\n      and\n        /* \"#utility.yul\":3572:3606   */\n      dup2\n      mstore\n        /* \"#utility.yul\":3642:3657   */\n      swap12\n      dup14\n      and\n        /* \"#utility.yul\":3637:3639   */\n      0x20\n        /* \"#utility.yul\":3622:3640   */\n      dup14\n      add\n        /* \"#utility.yul\":3615:3658   */\n      mstore\n        /* \"#utility.yul\":3694:3709   */\n      swap10\n      swap1\n      swap12\n      and\n        /* \"#utility.yul\":3674:3692   */\n      swap9\n      dup11\n      add\n        /* \"#utility.yul\":3667:3710   */\n      swap9\n      swap1\n      swap9\n      mstore\n        /* \"#utility.yul\":3741:3743   */\n      0x60\n        /* \"#utility.yul\":3726:3744   */\n      dup10\n      add\n        /* \"#utility.yul\":3719:3753   */\n      swap7\n      swap1\n      swap7\n      mstore\n        /* \"#utility.yul\":3784:3787   */\n      0x80\n        /* \"#utility.yul\":3769:3788   */\n      dup9\n      add\n        /* \"#utility.yul\":3762:3797   */\n      swap5\n      swap1\n      swap5\n      mstore\n        /* \"#utility.yul\":3552:3555   */\n      0xa0\n        /* \"#utility.yul\":3813:3832   */\n      dup8\n      add\n        /* \"#utility.yul\":3806:3841   */\n      swap3\n      swap1\n      swap3\n      mstore\n        /* \"#utility.yul\":3872:3875   */\n      0xc0\n        /* \"#utility.yul\":3857:3876   */\n      dup7\n      add\n        /* \"#utility.yul\":3850:3885   */\n      mstore\n        /* \"#utility.yul\":3916:3919   */\n      0xe0\n        /* \"#utility.yul\":3901:3920   */\n      dup6\n      add\n        /* \"#utility.yul\":3894:3929   */\n      mstore\n        /* \"#utility.yul\":3960:3963   */\n      0x0100\n        /* \"#utility.yul\":3945:3964   */\n      dup5\n      add\n        /* \"#utility.yul\":3938:3973   */\n      mstore\n        /* \"#utility.yul\":4004:4007   */\n      0x0120\n        /* \"#utility.yul\":3989:4008   */\n      dup4\n      add\n        /* \"#utility.yul\":3982:4017   */\n      mstore\n        /* \"#utility.yul\":4061:4076   */\n      iszero\n        /* \"#utility.yul\":4054:4077   */\n      iszero\n        /* \"#utility.yul\":4048:4051   */\n      0x0140\n        /* \"#utility.yul\":4033:4052   */\n      dup3\n      add\n        /* \"#utility.yul\":4026:4078   */\n      mstore\n        /* \"#utility.yul\":4109:4112   */\n      0x0160\n        /* \"#utility.yul\":4094:4113   */\n      dup2\n      add\n        /* \"#utility.yul\":4087:4123   */\n      swap2\n      swap1\n      swap2\n      mstore\n        /* \"#utility.yul\":3521:3524   */\n      0x0180\n        /* \"#utility.yul\":3506:3525   */\n      add\n        /* \"Ethereum/Presale.sol\":1669:1695  SaleInfor public saleInfor */\n      tag_29\n        /* \"#utility.yul\":3488:4129   */\n      jump\n        /* \"Ethereum/Presale.sol\":1805:1828  uint256 public totalFee */\n    tag_4:\n      callvalue\n      dup1\n      iszero\n      tag_36\n      jumpi\n      0x00\n      dup1\n      revert\n    tag_36:\n      pop\n      tag_37\n      sload(0x1d)\n      dup2\n      jump\n    tag_37:\n      mload(0x40)\n        /* \"#utility.yul\":11132:11157   */\n      swap1\n      dup2\n      mstore\n        /* \"#utility.yul\":11120:11122   */\n      0x20\n        /* \"#utility.yul\":11105:11123   */\n      add\n        /* \"Ethereum/Presale.sol\":1805:1828  uint256 public totalFee */\n      tag_29\n        /* \"#utility.yul\":11087:11163   */\n      jump\n        /* \"Ethereum/Presale.sol\":3672:4009  function status() public view returns(uint256) {\r... */\n    tag_5:\n      callvalue\n      dup1\n      iszero\n      tag_41\n      jumpi\n      0x00\n      dup1\n      revert\n    tag_41:\n      pop\n      tag_37\n      tag_43\n      jump\t// in\n        /* \"Ethereum/Presale.sol\":1727:1751  uint256 public feeAnyone */\n    tag_6:\n      callvalue\n      dup1\n      iszero\n      tag_45\n      jumpi\n      0x00\n      dup1\n      revert\n    tag_45:\n      pop\n      tag_37\n      sload(0x1a)\n      dup2\n      jump\n        /* \"Ethereum/Presale.sol\":1534:1576  mapping(address => uint256) public userFee */\n    tag_7:\n      callvalue\n      dup1\n      iszero\n      tag_49\n      jumpi\n      0x00\n      dup1\n      revert\n    tag_49:\n      pop\n      tag_37\n      tag_51\n      calldatasize\n      0x04\n      tag_52\n      jump\t// in\n    tag_51:\n      mstore(0x20, 0x03)\n      0x00\n      swap1\n      dup2\n      mstore\n      0x40\n      swap1\n      keccak256\n      sload\n      dup2\n      jump\n        /* \"Utils/Ownable.sol\":1714:1817  function renounceOwnership() public virtual onlyOwner {\r... */\n    tag_8:\n      callvalue\n      dup1\n      iszero\n      tag_55\n      jumpi\n      0x00\n      dup1\n      revert\n    tag_55:\n      pop\n      tag_56\n      tag_57\n      jump\t// in\n    tag_56:\n      stop\n        /* \"Ethereum/Presale.sol\":10510:10618  function backToken() external payable {\r... */\n    tag_9:\n      tag_56\n      tag_59\n      jump\t// in\n        /* \"Utils/Ownable.sol\":1063:1150  function owner() public view virtual returns (address) {\r... */\n    tag_10:\n      callvalue\n      dup1\n      iszero\n      tag_60\n      jumpi\n      0x00\n      dup1\n      revert\n    tag_60:\n      pop\n        /* \"Utils/Ownable.sol\":1136:1142  _owner */\n      and(sub(shl(0xa0, 0x01), 0x01), sload(0x01))\n        /* \"Utils/Ownable.sol\":1063:1150  function owner() public view virtual returns (address) {\r... */\n    tag_61:\n      mload(0x40)\n      sub(shl(0xa0, 0x01), 0x01)\n        /* \"#utility.yul\":2997:3029   */\n      swap1\n      swap2\n      and\n        /* \"#utility.yul\":2979:3030   */\n      dup2\n      mstore\n        /* \"#utility.yul\":2967:2969   */\n      0x20\n        /* \"#utility.yul\":2952:2970   */\n      add\n        /* \"Utils/Ownable.sol\":1063:1150  function owner() public view virtual returns (address) {\r... */\n      tag_29\n        /* \"#utility.yul\":2934:3036   */\n      jump\n        /* \"Ethereum/Presale.sol\":8106:8861  function ownerClaimAndRefundToken() external onlyPresaleOwner nonReentrant{\r... */\n    tag_11:\n      callvalue\n      dup1\n      iszero\n      tag_65\n      jumpi\n      0x00\n      dup1\n      revert\n    tag_65:\n      pop\n      tag_56\n      tag_67\n      jump\t// in\n        /* \"Ethereum/Presale.sol\":2473:3663  function initialSaleInfor(\r... */\n    tag_12:\n      callvalue\n      dup1\n      iszero\n      tag_68\n      jumpi\n      0x00\n      dup1\n      revert\n    tag_68:\n      pop\n      tag_56\n      tag_70\n      calldatasize\n      0x04\n      tag_71\n      jump\t// in\n    tag_70:\n      tag_72\n      jump\t// in\n        /* \"Ethereum/Presale.sol\":7238:8098  function userRefundEmergency() external nonReentrant {\r... */\n    tag_13:\n      callvalue\n      dup1\n      iszero\n      tag_73\n      jumpi\n      0x00\n      dup1\n      revert\n    tag_73:\n      pop\n      tag_56\n      tag_75\n      jump\t// in\n        /* \"Ethereum/Presale.sol\":6351:7230  function userClaimEmergency() external nonReentrant {\r... */\n    tag_14:\n      callvalue\n      dup1\n      iszero\n      tag_76\n      jumpi\n      0x00\n      dup1\n      revert\n    tag_76:\n      pop\n      tag_56\n      tag_78\n      jump\t// in\n        /* \"Ethereum/Presale.sol\":1583:1617  PresaleStatus public presaleStatus */\n    tag_15:\n      callvalue\n      dup1\n      iszero\n      tag_79\n      jumpi\n      0x00\n      dup1\n      revert\n    tag_79:\n      pop\n      sload(0x04)\n      sload(0x05)\n      sload(0x06)\n      sload(0x07)\n      sload(0x08)\n      sload(0x09)\n      tag_80\n      swap6\n      swap5\n      swap4\n      swap3\n      swap2\n      swap1\n      0xff\n      dup1\n      dup3\n      and\n      swap2\n      0x0100\n      swap1\n      div\n      and\n      dup8\n      jump\n    tag_80:\n      0x40\n      dup1\n      mload\n        /* \"#utility.yul\":12120:12145   */\n      swap8\n      dup9\n      mstore\n        /* \"#utility.yul\":12176:12178   */\n      0x20\n        /* \"#utility.yul\":12161:12179   */\n      dup9\n      add\n        /* \"#utility.yul\":12154:12188   */\n      swap7\n      swap1\n      swap7\n      mstore\n        /* \"#utility.yul\":12204:12222   */\n      swap5\n      dup7\n      add\n        /* \"#utility.yul\":12197:12231   */\n      swap4\n      swap1\n      swap4\n      mstore\n        /* \"#utility.yul\":12262:12264   */\n      0x60\n        /* \"#utility.yul\":12247:12265   */\n      dup6\n      add\n        /* \"#utility.yul\":12240:12274   */\n      swap2\n      swap1\n      swap2\n      mstore\n        /* \"#utility.yul\":12305:12308   */\n      0x80\n        /* \"#utility.yul\":12290:12309   */\n      dup5\n      add\n        /* \"#utility.yul\":12283:12318   */\n      mstore\n        /* \"#utility.yul\":12362:12376   */\n      iszero\n        /* \"#utility.yul\":12355:12377   */\n      iszero\n        /* \"#utility.yul\":12349:12352   */\n      0xa0\n        /* \"#utility.yul\":12334:12353   */\n      dup4\n      add\n        /* \"#utility.yul\":12327:12378   */\n      mstore\n        /* \"#utility.yul\":12422:12436   */\n      iszero\n        /* \"#utility.yul\":12415:12437   */\n      iszero\n        /* \"#utility.yul\":12409:12412   */\n      0xc0\n        /* \"#utility.yul\":12394:12413   */\n      dup3\n      add\n        /* \"#utility.yul\":12387:12438   */\n      mstore\n        /* \"#utility.yul\":12107:12110   */\n      0xe0\n        /* \"#utility.yul\":12092:12111   */\n      add\n        /* \"Ethereum/Presale.sol\":1583:1617  PresaleStatus public presaleStatus */\n      tag_29\n        /* \"#utility.yul\":12074:12444   */\n      jump\n        /* \"Ethereum/Presale.sol\":1702:1720  IERC20 public WETH */\n    tag_16:\n      callvalue\n      dup1\n      iszero\n      tag_84\n      jumpi\n      0x00\n      dup1\n      revert\n    tag_84:\n      pop\n      sload(0x19)\n      tag_61\n      swap1\n      sub(shl(0xa0, 0x01), 0x01)\n      and\n      dup2\n      jump\n        /* \"Ethereum/Presale.sol\":4136:6343  function deposit(uint256 _amount) external payable nonReentrant {\r... */\n    tag_17:\n      tag_56\n      tag_90\n      calldatasize\n      0x04\n      tag_91\n      jump\t// in\n    tag_90:\n      tag_92\n      jump\t// in\n        /* \"Ethereum/Presale.sol\":4018:4128  function checkAdminAddress() public view returns(bool) {\r... */\n    tag_18:\n      callvalue\n      dup1\n      iszero\n      tag_93\n      jumpi\n      0x00\n      dup1\n      revert\n    tag_93:\n      pop\n      tag_94\n      tag_95\n      jump\t// in\n    tag_94:\n      mload(0x40)\n        /* \"#utility.yul\":5245:5259   */\n      swap1\n      iszero\n        /* \"#utility.yul\":5238:5260   */\n      iszero\n        /* \"#utility.yul\":5220:5261   */\n      dup2\n      mstore\n        /* \"#utility.yul\":5208:5210   */\n      0x20\n        /* \"#utility.yul\":5193:5211   */\n      add\n        /* \"Ethereum/Presale.sol\":4018:4128  function checkAdminAddress() public view returns(bool) {\r... */\n      tag_29\n        /* \"#utility.yul\":5175:5267   */\n      jump\n        /* \"Ethereum/Presale.sol\":1481:1527  mapping(address => BuyerInfo) public buyerInfo */\n    tag_19:\n      callvalue\n      dup1\n      iszero\n      tag_98\n      jumpi\n      0x00\n      dup1\n      revert\n    tag_98:\n      pop\n      tag_99\n      tag_100\n      calldatasize\n      0x04\n      tag_52\n      jump\t// in\n    tag_100:\n      0x02\n      0x20\n      dup2\n      swap1\n      mstore\n      0x00\n      swap2\n      dup3\n      mstore\n      0x40\n      swap1\n      swap2\n      keccak256\n      dup1\n      sload\n      0x01\n      dup3\n      add\n      sload\n      swap3\n      dup3\n      add\n      sload\n      0x03\n      swap1\n      swap3\n      add\n      sload\n      swap1\n      swap3\n      swap2\n      swap1\n      dup5\n      jump\n    tag_99:\n      0x40\n      dup1\n      mload\n        /* \"#utility.yul\":11652:11677   */\n      swap5\n      dup6\n      mstore\n        /* \"#utility.yul\":11708:11710   */\n      0x20\n        /* \"#utility.yul\":11693:11711   */\n      dup6\n      add\n        /* \"#utility.yul\":11686:11720   */\n      swap4\n      swap1\n      swap4\n      mstore\n        /* \"#utility.yul\":11736:11754   */\n      swap2\n      dup4\n      add\n        /* \"#utility.yul\":11729:11763   */\n      mstore\n        /* \"#utility.yul\":11794:11796   */\n      0x60\n        /* \"#utility.yul\":11779:11797   */\n      dup3\n      add\n        /* \"#utility.yul\":11772:11806   */\n      mstore\n        /* \"#utility.yul\":11639:11642   */\n      0x80\n        /* \"#utility.yul\":11624:11643   */\n      add\n        /* \"Ethereum/Presale.sol\":1481:1527  mapping(address => BuyerInfo) public buyerInfo */\n      tag_29\n        /* \"#utility.yul\":11606:11812   */\n      jump\n        /* \"Ethereum/Presale.sol\":8869:10380  function userClaimOrRefundWhenSaleSuccess(bool isClaim) external {\r... */\n    tag_20:\n      callvalue\n      dup1\n      iszero\n      tag_104\n      jumpi\n      0x00\n      dup1\n      revert\n    tag_104:\n      pop\n      tag_56\n      tag_106\n      calldatasize\n      0x04\n      tag_107\n      jump\t// in\n    tag_106:\n      tag_108\n      jump\t// in\n        /* \"Utils/Ownable.sol\":1972:2173  function transferOwnership(address newOwner) public virtual onlyOwner {\r... */\n    tag_21:\n      callvalue\n      dup1\n      iszero\n      tag_109\n      jumpi\n      0x00\n      dup1\n      revert\n    tag_109:\n      pop\n      tag_56\n      tag_111\n      calldatasize\n      0x04\n      tag_52\n      jump\t// in\n    tag_111:\n      tag_112\n      jump\t// in\n        /* \"Ethereum/Presale.sol\":10388:10499  function getBalance(address _address) external view returns(uint256) {\r... */\n    tag_22:\n      callvalue\n      dup1\n      iszero\n      tag_113\n      jumpi\n      0x00\n      dup1\n      revert\n    tag_113:\n      pop\n      tag_37\n      tag_115\n      calldatasize\n      0x04\n      tag_52\n      jump\t// in\n    tag_115:\n      sub(shl(0xa0, 0x01), 0x01)\n        /* \"Ethereum/Presale.sol\":10475:10491  _address.balance */\n      and\n      balance\n      swap1\n        /* \"Ethereum/Presale.sol\":10388:10499  function getBalance(address _address) external view returns(uint256) {\r... */\n      jump\n        /* \"Ethereum/Presale.sol\":3672:4009  function status() public view returns(uint256) {\r... */\n    tag_43:\n        /* \"Ethereum/Presale.sol\":3751:3770  saleInfor.startSale */\n      sload(0x11)\n        /* \"Ethereum/Presale.sol\":3710:3717  uint256 */\n      0x00\n      swap1\n        /* \"Ethereum/Presale.sol\":3733:3748  block.timestamp */\n      timestamp\n        /* \"Ethereum/Presale.sol\":3733:3770  block.timestamp < saleInfor.startSale */\n      lt\n        /* \"Ethereum/Presale.sol\":3730:4002  if(block.timestamp < saleInfor.startSale) {\r... */\n      iszero\n      tag_120\n      jumpi\n      pop\n        /* \"Ethereum/Presale.sol\":3794:3795  0 */\n      0x00\n      swap1\n        /* \"Ethereum/Presale.sol\":3672:4009  function status() public view returns(uint256) {\r... */\n      jump\t// out\n        /* \"Ethereum/Presale.sol\":3730:4002  if(block.timestamp < saleInfor.startSale) {\r... */\n    tag_120:\n        /* \"Ethereum/Presale.sol\":3861:3878  saleInfor.endSale */\n      sload(0x12)\n        /* \"Ethereum/Presale.sol\":3843:3858  block.timestamp */\n      timestamp\n        /* \"Ethereum/Presale.sol\":3843:3878  block.timestamp > saleInfor.endSale */\n      gt\n        /* \"Ethereum/Presale.sol\":3840:3991  if(block.timestamp > saleInfor.endSale) {\r... */\n      iszero\n      tag_122\n      jumpi\n      pop\n        /* \"Ethereum/Presale.sol\":3906:3907  2 */\n      0x02\n      swap1\n        /* \"Ethereum/Presale.sol\":3672:4009  function status() public view returns(uint256) {\r... */\n      jump\t// out\n        /* \"Ethereum/Presale.sol\":3840:3991  if(block.timestamp > saleInfor.endSale) {\r... */\n    tag_122:\n      pop\n        /* \"Ethereum/Presale.sol\":3964:3965  1 */\n      0x01\n      swap1\n        /* \"Ethereum/Presale.sol\":3672:4009  function status() public view returns(uint256) {\r... */\n      jump\t// out\n        /* \"Utils/Ownable.sol\":1714:1817  function renounceOwnership() public virtual onlyOwner {\r... */\n    tag_57:\n        /* \"Utils/Ownable.sol\":1136:1142  _owner */\n      and(sub(shl(0xa0, 0x01), 0x01), sload(0x01))\n        /* \"Utils/Context.sol\":736:746  msg.sender */\n      caller\n        /* \"Utils/Ownable.sol\":1283:1306  owner() == _msgSender() */\n      eq\n        /* \"Utils/Ownable.sol\":1275:1343  require(owner() == _msgSender(), \"Ownable: caller is not the owner\") */\n      tag_128\n      jumpi\n      mload(0x40)\n      shl(0xe5, 0x461bcd)\n      dup2\n      mstore\n        /* \"#utility.yul\":9360:9362   */\n      0x20\n        /* \"Utils/Ownable.sol\":1275:1343  require(owner() == _msgSender(), \"Ownable: caller is not the owner\") */\n      0x04\n      dup3\n      add\n        /* \"#utility.yul\":9342:9363   */\n      dup2\n      swap1\n      mstore\n        /* \"#utility.yul\":9379:9397   */\n      0x24\n      dup3\n      add\n        /* \"#utility.yul\":9372:9402   */\n      mstore\n        /* \"#utility.yul\":9438:9472   */\n      0x4f776e61626c653a2063616c6c6572206973206e6f7420746865206f776e6572\n        /* \"#utility.yul\":9418:9436   */\n      0x44\n      dup3\n      add\n        /* \"#utility.yul\":9411:9473   */\n      mstore\n        /* \"#utility.yul\":9490:9508   */\n      0x64\n      add\n        /* \"Utils/Ownable.sol\":1275:1343  require(owner() == _msgSender(), \"Ownable: caller is not the owner\") */\n    tag_129:\n      mload(0x40)\n      dup1\n      swap2\n      sub\n      swap1\n      revert\n    tag_128:\n        /* \"Utils/Ownable.sol\":1779:1809  _transferOwnership(address(0)) */\n      tag_132\n        /* \"Utils/Ownable.sol\":1806:1807  0 */\n      0x00\n        /* \"Utils/Ownable.sol\":1779:1797  _transferOwnership */\n      tag_133\n        /* \"Utils/Ownable.sol\":1779:1809  _transferOwnership(address(0)) */\n      jump\t// in\n    tag_132:\n        /* \"Utils/Ownable.sol\":1714:1817  function renounceOwnership() public virtual onlyOwner {\r... */\n      jump\t// out\n        /* \"Ethereum/Presale.sol\":10510:10618  function backToken() external payable {\r... */\n    tag_59:\n        /* \"Ethereum/Presale.sol\":10559:10610  payable(msg.sender).transfer(address(this).balance) */\n      mload(0x40)\n        /* \"Ethereum/Presale.sol\":10567:10577  msg.sender */\n      caller\n      swap1\n        /* \"Ethereum/Presale.sol\":10588:10609  address(this).balance */\n      selfbalance\n        /* \"Ethereum/Presale.sol\":10559:10610  payable(msg.sender).transfer(address(this).balance) */\n      dup1\n      iszero\n      0x08fc\n      mul\n      swap2\n      0x00\n      dup2\n      dup2\n      dup2\n        /* \"Ethereum/Presale.sol\":10588:10609  address(this).balance */\n      dup6\n        /* \"Ethereum/Presale.sol\":10567:10577  msg.sender */\n      dup9\n        /* \"Ethereum/Presale.sol\":10559:10610  payable(msg.sender).transfer(address(this).balance) */\n      dup9\n      call\n      swap4\n      pop\n      pop\n      pop\n      pop\n      iszero\n      dup1\n      iszero\n      tag_136\n      jumpi\n      returndatasize\n      0x00\n      dup1\n      returndatacopy\n      revert(0x00, returndatasize)\n    tag_136:\n      pop\n        /* \"Ethereum/Presale.sol\":10510:10618  function backToken() external payable {\r... */\n      jump\t// out\n        /* \"Ethereum/Presale.sol\":8106:8861  function ownerClaimAndRefundToken() external onlyPresaleOwner nonReentrant{\r... */\n    tag_67:\n        /* \"Ethereum/Presale.sol\":2011:2020  saleInfor */\n      0x0d\n        /* \"Ethereum/Presale.sol\":2011:2033  saleInfor.presaleOwner */\n      sload\n      sub(shl(0xa0, 0x01), 0x01)\n      and\n        /* \"Utils/Context.sol\":736:746  msg.sender */\n      caller\n      sub(shl(0xa0, 0x01), 0x01)\n        /* \"Ethereum/Presale.sol\":1995:2033  _msgSender() == saleInfor.presaleOwner */\n      and\n      eq\n        /* \"Ethereum/Presale.sol\":1987:2056  require(_msgSender() == saleInfor.presaleOwner, \"Only presale owner\") */\n      tag_140\n      jumpi\n      mload(0x40)\n      shl(0xe5, 0x461bcd)\n      dup2\n      mstore\n        /* \"#utility.yul\":9013:9015   */\n      0x20\n        /* \"Ethereum/Presale.sol\":1987:2056  require(_msgSender() == saleInfor.presaleOwner, \"Only presale owner\") */\n      0x04\n      dup3\n      add\n        /* \"#utility.yul\":8995:9016   */\n      mstore\n        /* \"#utility.yul\":9052:9054   */\n      0x12\n        /* \"#utility.yul\":9032:9050   */\n      0x24\n      dup3\n      add\n        /* \"#utility.yul\":9025:9055   */\n      mstore\n      shl(0x71, 0x27b7363c90383932b9b0b6329037bbb732b9)\n        /* \"#utility.yul\":9071:9089   */\n      0x44\n      dup3\n      add\n        /* \"#utility.yul\":9064:9112   */\n      mstore\n        /* \"#utility.yul\":9129:9147   */\n      0x64\n      add\n        /* \"Ethereum/Presale.sol\":1987:2056  require(_msgSender() == saleInfor.presaleOwner, \"Only presale owner\") */\n      tag_129\n        /* \"#utility.yul\":8985:9153   */\n      jump\n        /* \"Ethereum/Presale.sol\":1987:2056  require(_msgSender() == saleInfor.presaleOwner, \"Only presale owner\") */\n    tag_140:\n        /* \"Utils/ReentrancyGuard.sol\":1778:1779  2 */\n      0x02\n        /* \"Utils/ReentrancyGuard.sol\":2376:2383  _status */\n      sload(0x00)\n        /* \"Utils/ReentrancyGuard.sol\":2376:2395  _status != _ENTERED */\n      eq\n      iszero\n        /* \"Utils/ReentrancyGuard.sol\":2368:2431  require(_status != _ENTERED, \"ReentrancyGuard: reentrant call\") */\n      tag_144\n      jumpi\n      mload(0x40)\n      shl(0xe5, 0x461bcd)\n      dup2\n      mstore\n      0x04\n      add\n      tag_129\n      swap1\n      tag_146\n      jump\t// in\n    tag_144:\n        /* \"Utils/ReentrancyGuard.sol\":1778:1779  2 */\n      0x02\n        /* \"Utils/ReentrancyGuard.sol\":2509:2516  _status */\n      0x00\n        /* \"Utils/ReentrancyGuard.sol\":2509:2527  _status = _ENTERED */\n      sstore\n        /* \"Ethereum/Presale.sol\":8260:8295  presaleStatus.isOwnerClaimSaleToken */\n      and(0xff, sload(0x09))\n        /* \"Ethereum/Presale.sol\":8259:8295  !presaleStatus.isOwnerClaimSaleToken */\n      iszero\n        /* \"Ethereum/Presale.sol\":8251:8329  require(!presaleStatus.isOwnerClaimSaleToken, \"Nothing for owner claim token\") */\n      tag_148\n      jumpi\n      mload(0x40)\n      shl(0xe5, 0x461bcd)\n      dup2\n      mstore\n        /* \"#utility.yul\":10126:10128   */\n      0x20\n        /* \"Ethereum/Presale.sol\":8251:8329  require(!presaleStatus.isOwnerClaimSaleToken, \"Nothing for owner claim token\") */\n      0x04\n      dup3\n      add\n        /* \"#utility.yul\":10108:10129   */\n      mstore\n        /* \"#utility.yul\":10165:10167   */\n      0x1d\n        /* \"#utility.yul\":10145:10163   */\n      0x24\n      dup3\n      add\n        /* \"#utility.yul\":10138:10168   */\n      mstore\n        /* \"#utility.yul\":10204:10235   */\n      0x4e6f7468696e6720666f72206f776e657220636c61696d20746f6b656e000000\n        /* \"#utility.yul\":10184:10202   */\n      0x44\n      dup3\n      add\n        /* \"#utility.yul\":10177:10236   */\n      mstore\n        /* \"#utility.yul\":10253:10271   */\n      0x64\n      add\n        /* \"Ethereum/Presale.sol\":8251:8329  require(!presaleStatus.isOwnerClaimSaleToken, \"Nothing for owner claim token\") */\n      tag_129\n        /* \"#utility.yul\":10098:10277   */\n      jump\n        /* \"Ethereum/Presale.sol\":8251:8329  require(!presaleStatus.isOwnerClaimSaleToken, \"Nothing for owner claim token\") */\n    tag_148:\n        /* \"Ethereum/Presale.sol\":8349:8385  presaleStatus.isOwnerRefundBaseToken */\n      sload(0x09)\n      0x0100\n      swap1\n      div\n      0xff\n      and\n        /* \"Ethereum/Presale.sol\":8348:8385  !presaleStatus.isOwnerRefundBaseToken */\n      iszero\n        /* \"Ethereum/Presale.sol\":8340:8420  require(!presaleStatus.isOwnerRefundBaseToken, \"Nothing for owner refund token\") */\n      tag_151\n      jumpi\n      mload(0x40)\n      shl(0xe5, 0x461bcd)\n      dup2\n      mstore\n        /* \"#utility.yul\":6814:6816   */\n      0x20\n        /* \"Ethereum/Presale.sol\":8340:8420  require(!presaleStatus.isOwnerRefundBaseToken, \"Nothing for owner refund token\") */\n      0x04\n      dup3\n      add\n        /* \"#utility.yul\":6796:6817   */\n      mstore\n        /* \"#utility.yul\":6853:6855   */\n      0x1e\n        /* \"#utility.yul\":6833:6851   */\n      0x24\n      dup3\n      add\n        /* \"#utility.yul\":6826:6856   */\n      mstore\n        /* \"#utility.yul\":6892:6924   */\n      0x4e6f7468696e6720666f72206f776e657220726566756e6420746f6b656e0000\n        /* \"#utility.yul\":6872:6890   */\n      0x44\n      dup3\n      add\n        /* \"#utility.yul\":6865:6925   */\n      mstore\n        /* \"#utility.yul\":6942:6960   */\n      0x64\n      add\n        /* \"Ethereum/Presale.sol\":8340:8420  require(!presaleStatus.isOwnerRefundBaseToken, \"Nothing for owner refund token\") */\n      tag_129\n        /* \"#utility.yul\":6786:6966   */\n      jump\n        /* \"Ethereum/Presale.sol\":8340:8420  require(!presaleStatus.isOwnerRefundBaseToken, \"Nothing for owner refund token\") */\n    tag_151:\n        /* \"Ethereum/Presale.sol\":8469:8488  saleInfor.saleToken */\n      sload(0x0e)\n        /* \"Ethereum/Presale.sol\":8463:8514  ERC20(saleInfor.saleToken).balanceOf(address(this)) */\n      mload(0x40)\n      shl(0xe0, 0x70a08231)\n      dup2\n      mstore\n        /* \"Ethereum/Presale.sol\":8508:8512  this */\n      address\n        /* \"Ethereum/Presale.sol\":8463:8514  ERC20(saleInfor.saleToken).balanceOf(address(this)) */\n      0x04\n      dup3\n      add\n        /* \"#utility.yul\":2979:3030   */\n      mstore\n        /* \"Ethereum/Presale.sol\":8431:8460  uint256 amountOwnerClaimToken */\n      0x00\n      swap2\n      sub(shl(0xa0, 0x01), 0x01)\n        /* \"Ethereum/Presale.sol\":8469:8488  saleInfor.saleToken */\n      and\n      swap1\n        /* \"Ethereum/Presale.sol\":8463:8499  ERC20(saleInfor.saleToken).balanceOf */\n      0x70a08231\n      swap1\n        /* \"#utility.yul\":2952:2970   */\n      0x24\n      add\n        /* \"Ethereum/Presale.sol\":8463:8514  ERC20(saleInfor.saleToken).balanceOf(address(this)) */\n      0x20\n      mload(0x40)\n      dup1\n      dup4\n      sub\n      dup2\n      dup7\n      dup1\n      extcodesize\n      iszero\n      dup1\n      iszero\n      tag_155\n      jumpi\n      0x00\n      dup1\n      revert\n    tag_155:\n      pop\n      gas\n      staticcall\n      iszero\n      dup1\n      iszero\n      tag_157\n      jumpi\n      returndatasize\n      0x00\n      dup1\n      returndatacopy\n      revert(0x00, returndatasize)\n    tag_157:\n      pop\n      pop\n      pop\n      pop\n      mload(0x40)\n      returndatasize\n      not(0x1f)\n      0x1f\n      dup3\n      add\n      and\n      dup3\n      add\n      dup1\n      0x40\n      mstore\n      pop\n      dup2\n      add\n      swap1\n      tag_158\n      swap2\n      swap1\n      tag_159\n      jump\t// in\n    tag_158:\n        /* \"Ethereum/Presale.sol\":8595:8630  presaleStatus.isOwnerClaimSaleToken */\n      0x09\n        /* \"Ethereum/Presale.sol\":8595:8637  presaleStatus.isOwnerClaimSaleToken = true */\n      dup1\n      sload\n      not(0xff)\n      and\n        /* \"Ethereum/Presale.sol\":8633:8637  true */\n      0x01\n        /* \"Ethereum/Presale.sol\":8595:8637  presaleStatus.isOwnerClaimSaleToken = true */\n      or\n      swap1\n      sstore\n      0x00\n        /* \"Ethereum/Presale.sol\":8648:8676  saleInfor.amountTokenForSale */\n      0x18\n        /* \"Ethereum/Presale.sol\":8648:8680  saleInfor.amountTokenForSale = 0 */\n      sstore\n        /* \"Ethereum/Presale.sol\":8697:8716  saleInfor.saleToken */\n      sload(0x0e)\n        /* \"Ethereum/Presale.sol\":8648:8657  saleInfor */\n      0x0d\n        /* \"Ethereum/Presale.sol\":8727:8749  saleInfor.presaleOwner */\n      sload\n        /* \"Ethereum/Presale.sol\":8691:8773  ERC20(saleInfor.saleToken).transfer(saleInfor.presaleOwner, amountOwnerClaimToken) */\n      mload(0x40)\n      shl(0xe0, 0xa9059cbb)\n      dup2\n      mstore\n      sub(shl(0xa0, 0x01), 0x01)\n        /* \"Ethereum/Presale.sol\":8727:8749  saleInfor.presaleOwner */\n      swap2\n      dup3\n      and\n        /* \"Ethereum/Presale.sol\":8595:8608  presaleStatus */\n      0x04\n        /* \"Ethereum/Presale.sol\":8691:8773  ERC20(saleInfor.saleToken).transfer(saleInfor.presaleOwner, amountOwnerClaimToken) */\n      dup3\n      add\n        /* \"#utility.yul\":4316:4367   */\n      mstore\n        /* \"#utility.yul\":4383:4401   */\n      0x24\n      dup2\n      add\n        /* \"#utility.yul\":4376:4410   */\n      dup5\n      swap1\n      mstore\n      swap3\n      swap4\n      pop\n        /* \"Ethereum/Presale.sol\":8563:8584  address(this).balance */\n      selfbalance\n      swap3\n        /* \"Ethereum/Presale.sol\":8697:8716  saleInfor.saleToken */\n      swap2\n      and\n      swap1\n        /* \"Ethereum/Presale.sol\":8691:8726  ERC20(saleInfor.saleToken).transfer */\n      0xa9059cbb\n      swap1\n        /* \"#utility.yul\":4289:4307   */\n      0x44\n      add\n        /* \"Ethereum/Presale.sol\":8691:8773  ERC20(saleInfor.saleToken).transfer(saleInfor.presaleOwner, amountOwnerClaimToken) */\n      0x20\n      mload(0x40)\n      dup1\n      dup4\n      sub\n      dup2\n      0x00\n      dup8\n      dup1\n      extcodesize\n      iszero\n      dup1\n      iszero\n      tag_162\n      jumpi\n      0x00\n      dup1\n      revert\n    tag_162:\n      pop\n      gas\n      call\n      iszero\n      dup1\n      iszero\n      tag_164\n      jumpi\n      returndatasize\n      0x00\n      dup1\n      returndatacopy\n      revert(0x00, returndatasize)\n    tag_164:\n      pop\n      pop\n      pop\n      pop\n      mload(0x40)\n      returndatasize\n      not(0x1f)\n      0x1f\n      dup3\n      add\n      and\n      dup3\n      add\n      dup1\n      0x40\n      mstore\n      pop\n      dup2\n      add\n      swap1\n      tag_165\n      swap2\n      swap1\n      tag_166\n      jump\t// in\n    tag_165:\n      pop\n        /* \"Ethereum/Presale.sol\":8792:8801  saleInfor */\n      0x0d\n        /* \"Ethereum/Presale.sol\":8792:8814  saleInfor.presaleOwner */\n      sload\n        /* \"Ethereum/Presale.sol\":8784:8853  payable(saleInfor.presaleOwner).transfer(amountOwnerRefundNativeCoin) */\n      mload(0x40)\n      sub(shl(0xa0, 0x01), 0x01)\n        /* \"Ethereum/Presale.sol\":8792:8814  saleInfor.presaleOwner */\n      swap1\n      swap2\n      and\n      swap1\n        /* \"Ethereum/Presale.sol\":8784:8853  payable(saleInfor.presaleOwner).transfer(amountOwnerRefundNativeCoin) */\n      dup3\n      iszero\n      0x08fc\n      mul\n      swap1\n        /* \"Ethereum/Presale.sol\":8825:8852  amountOwnerRefundNativeCoin */\n      dup4\n      swap1\n        /* \"Ethereum/Presale.sol\":8792:8814  saleInfor.presaleOwner */\n      0x00\n        /* \"Ethereum/Presale.sol\":8784:8853  payable(saleInfor.presaleOwner).transfer(amountOwnerRefundNativeCoin) */\n      dup2\n        /* \"Ethereum/Presale.sol\":8792:8814  saleInfor.presaleOwner */\n      dup2\n        /* \"Ethereum/Presale.sol\":8784:8853  payable(saleInfor.presaleOwner).transfer(amountOwnerRefundNativeCoin) */\n      dup2\n        /* \"Ethereum/Presale.sol\":8825:8852  amountOwnerRefundNativeCoin */\n      dup6\n        /* \"Ethereum/Presale.sol\":8792:8814  saleInfor.presaleOwner */\n      dup9\n        /* \"Ethereum/Presale.sol\":8784:8853  payable(saleInfor.presaleOwner).transfer(amountOwnerRefundNativeCoin) */\n      dup9\n      call\n      swap4\n      pop\n      pop\n      pop\n      pop\n      iszero\n      dup1\n      iszero\n      tag_168\n      jumpi\n      returndatasize\n      0x00\n      dup1\n      returndatacopy\n      revert(0x00, returndatasize)\n    tag_168:\n      pop\n      pop\n        /* \"Utils/ReentrancyGuard.sol\":1734:1735  1 */\n      0x01\n        /* \"Utils/ReentrancyGuard.sol\":2688:2695  _status */\n      0x00\n        /* \"Utils/ReentrancyGuard.sol\":2688:2710  _status = _NOT_ENTERED */\n      sstore\n      pop\n        /* \"Ethereum/Presale.sol\":8106:8861  function ownerClaimAndRefundToken() external onlyPresaleOwner nonReentrant{\r... */\n      jump\t// out\n        /* \"Ethereum/Presale.sol\":2473:3663  function initialSaleInfor(\r... */\n    tag_72:\n        /* \"Ethereum/Presale.sol\":2654:2663  saleInfor */\n      0x0d\n        /* \"Ethereum/Presale.sol\":2654:2692  saleInfor.presaleOwner = _presaleOwner */\n      dup1\n      sload\n      sub(shl(0xa0, 0x01), 0x01)\n      dup1\n      dup8\n      and\n      not(sub(shl(0xa0, 0x01), 0x01))\n      swap3\n      dup4\n      and\n      or\n      swap1\n      swap3\n      sstore\n        /* \"Ethereum/Presale.sol\":2703:2722  saleInfor.saleToken */\n      0x0e\n        /* \"Ethereum/Presale.sol\":2703:2735  saleInfor.saleToken = _saleToken */\n      dup1\n      sload\n      dup7\n      dup5\n      and\n      swap1\n      dup4\n      and\n      dup2\n      or\n      swap1\n      swap2\n      sstore\n        /* \"Ethereum/Presale.sol\":2746:2765  saleInfor.baseToken */\n      0x0f\n        /* \"Ethereum/Presale.sol\":2746:2778  saleInfor.baseToken = _baseTOken */\n      dup1\n      sload\n      swap4\n      dup7\n      and\n      swap4\n      swap1\n      swap3\n      and\n      swap3\n      swap1\n      swap3\n      or\n      swap1\n      sstore\n        /* \"Ethereum/Presale.sol\":2836:2873  ERC20(saleInfor.saleToken).decimals() */\n      0x40\n      dup1\n      mload\n      shl(0xe0, 0x313ce567)\n      dup2\n      mstore\n      swap1\n      mload\n        /* \"Ethereum/Presale.sol\":2836:2871  ERC20(saleInfor.saleToken).decimals */\n      0x313ce567\n      swap2\n        /* \"Ethereum/Presale.sol\":2836:2873  ERC20(saleInfor.saleToken).decimals() */\n      0x04\n      dup1\n      dup3\n      add\n      swap3\n      0x20\n      swap3\n      swap1\n      swap2\n      swap1\n      dup3\n      swap1\n      sub\n      add\n      dup2\n        /* \"Ethereum/Presale.sol\":2703:2735  saleInfor.saleToken = _saleToken */\n      dup7\n        /* \"Ethereum/Presale.sol\":2836:2873  ERC20(saleInfor.saleToken).decimals() */\n      dup1\n      extcodesize\n      iszero\n      dup1\n      iszero\n      tag_170\n      jumpi\n      0x00\n      dup1\n      revert\n    tag_170:\n      pop\n      gas\n      staticcall\n      iszero\n      dup1\n      iszero\n      tag_172\n      jumpi\n      returndatasize\n      0x00\n      dup1\n      returndatacopy\n      revert(0x00, returndatasize)\n    tag_172:\n      pop\n      pop\n      pop\n      pop\n      mload(0x40)\n      returndatasize\n      not(0x1f)\n      0x1f\n      dup3\n      add\n      and\n      dup3\n      add\n      dup1\n      0x40\n      mstore\n      pop\n      dup2\n      add\n      swap1\n      tag_173\n      swap2\n      swap1\n      tag_159\n      jump\t// in\n    tag_173:\n        /* \"Ethereum/Presale.sol\":2823:2874  10** uint256(ERC20(saleInfor.saleToken).decimals()) */\n      tag_174\n      swap1\n        /* \"Ethereum/Presale.sol\":2823:2825  10 */\n      0x0a\n        /* \"Ethereum/Presale.sol\":2823:2874  10** uint256(ERC20(saleInfor.saleToken).decimals()) */\n      tag_175\n      jump\t// in\n    tag_174:\n        /* \"Ethereum/Presale.sol\":2812:2820  datas[0] */\n      dup2\n      mload\n        /* \"Ethereum/Presale.sol\":2812:2874  datas[0] * 10** uint256(ERC20(saleInfor.saleToken).decimals()) */\n      tag_179\n      swap2\n      swap1\n      tag_180\n      jump\t// in\n    tag_179:\n        /* \"Ethereum/Presale.sol\":2789:2809  saleInfor.tokenPrice */\n      0x10\n        /* \"Ethereum/Presale.sol\":2789:2874  saleInfor.tokenPrice = datas[0] * 10** uint256(ERC20(saleInfor.saleToken).decimals()) */\n      sstore\n        /* \"Ethereum/Presale.sol\":2907:2915  datas[1] */\n      0x20\n      dup1\n      dup3\n      add\n      mload\n        /* \"Ethereum/Presale.sol\":2885:2904  saleInfor.startSale */\n      0x11\n        /* \"Ethereum/Presale.sol\":2885:2915  saleInfor.startSale = datas[1] */\n      sstore\n        /* \"Ethereum/Presale.sol\":2946:2954  datas[2] */\n      0x40\n      dup1\n      dup4\n      add\n      mload\n        /* \"Ethereum/Presale.sol\":2926:2943  saleInfor.endSale */\n      0x12\n        /* \"Ethereum/Presale.sol\":2926:2954  saleInfor.endSale = datas[2] */\n      sstore\n        /* \"Ethereum/Presale.sol\":2994:3002  datas[3] */\n      0x60\n      dup4\n      add\n      mload\n        /* \"Ethereum/Presale.sol\":2965:2991  saleInfor.minSpendPerBuyer */\n      0x13\n        /* \"Ethereum/Presale.sol\":2965:3002  saleInfor.minSpendPerBuyer = datas[3] */\n      sstore\n        /* \"Ethereum/Presale.sol\":3073:3092  saleInfor.baseToken */\n      sload(0x0f)\n        /* \"Ethereum/Presale.sol\":3067:3104  ERC20(saleInfor.baseToken).decimals() */\n      dup2\n      mload\n      shl(0xe0, 0x313ce567)\n      dup2\n      mstore\n      swap2\n      mload\n      sub(shl(0xa0, 0x01), 0x01)\n        /* \"Ethereum/Presale.sol\":3073:3092  saleInfor.baseToken */\n      swap1\n      swap2\n      and\n      swap3\n        /* \"Ethereum/Presale.sol\":3067:3102  ERC20(saleInfor.baseToken).decimals */\n      0x313ce567\n      swap3\n        /* \"Ethereum/Presale.sol\":3067:3104  ERC20(saleInfor.baseToken).decimals() */\n      0x04\n      dup1\n      dup3\n      add\n      swap4\n      swap2\n      dup3\n      swap1\n      sub\n      add\n      dup2\n        /* \"Ethereum/Presale.sol\":3073:3092  saleInfor.baseToken */\n      dup7\n        /* \"Ethereum/Presale.sol\":3067:3104  ERC20(saleInfor.baseToken).decimals() */\n      dup1\n      extcodesize\n      iszero\n      dup1\n      iszero\n      tag_187\n      jumpi\n      0x00\n      dup1\n      revert\n    tag_187:\n      pop\n      gas\n      staticcall\n      iszero\n      dup1\n      iszero\n      tag_189\n      jumpi\n      returndatasize\n      0x00\n      dup1\n      returndatacopy\n      revert(0x00, returndatasize)\n    tag_189:\n      pop\n      pop\n      pop\n      pop\n      mload(0x40)\n      returndatasize\n      not(0x1f)\n      0x1f\n      dup3\n      add\n      and\n      dup3\n      add\n      dup1\n      0x40\n      mstore\n      pop\n      dup2\n      add\n      swap1\n      tag_190\n      swap2\n      swap1\n      tag_159\n      jump\t// in\n    tag_190:\n        /* \"Ethereum/Presale.sol\":3053:3105  10 ** uint256(ERC20(saleInfor.baseToken).decimals()) */\n      tag_191\n      swap1\n        /* \"Ethereum/Presale.sol\":3053:3055  10 */\n      0x0a\n        /* \"Ethereum/Presale.sol\":3053:3105  10 ** uint256(ERC20(saleInfor.baseToken).decimals()) */\n      tag_175\n      jump\t// in\n    tag_191:\n        /* \"Ethereum/Presale.sol\":3042:3050  datas[4] */\n      0x80\n      dup3\n      add\n      mload\n        /* \"Ethereum/Presale.sol\":3042:3105  datas[4] * 10 ** uint256(ERC20(saleInfor.baseToken).decimals()) */\n      tag_194\n      swap2\n      swap1\n      tag_180\n      jump\t// in\n    tag_194:\n        /* \"Ethereum/Presale.sol\":3013:3039  saleInfor.maxSpendPerBuyer */\n      0x14\n        /* \"Ethereum/Presale.sol\":3013:3105  saleInfor.maxSpendPerBuyer = datas[4] * 10 ** uint256(ERC20(saleInfor.baseToken).decimals()) */\n      sstore\n        /* \"Ethereum/Presale.sol\":3138:3146  datas[5] */\n      0xa0\n      dup2\n      add\n      mload\n        /* \"Ethereum/Presale.sol\":3116:3135  saleInfor.refundFee */\n      0x15\n        /* \"Ethereum/Presale.sol\":3116:3146  saleInfor.refundFee = datas[5] */\n      sstore\n        /* \"Ethereum/Presale.sol\":3178:3186  datas[6] */\n      0xc0\n      dup2\n      add\n      mload\n        /* \"Ethereum/Presale.sol\":3157:3175  saleInfor.claimFee */\n      0x16\n        /* \"Ethereum/Presale.sol\":3157:3186  saleInfor.claimFee = datas[6] */\n      sstore\n        /* \"Ethereum/Presale.sol\":3254:3273  saleInfor.baseToken */\n      sload(0x0f)\n        /* \"Ethereum/Presale.sol\":3248:3285  ERC20(saleInfor.baseToken).decimals() */\n      0x40\n      dup1\n      mload\n      shl(0xe0, 0x313ce567)\n      dup2\n      mstore\n      swap1\n      mload\n      sub(shl(0xa0, 0x01), 0x01)\n        /* \"Ethereum/Presale.sol\":3254:3273  saleInfor.baseToken */\n      swap1\n      swap3\n      and\n      swap2\n        /* \"Ethereum/Presale.sol\":3248:3283  ERC20(saleInfor.baseToken).decimals */\n      0x313ce567\n      swap2\n        /* \"Ethereum/Presale.sol\":3248:3285  ERC20(saleInfor.baseToken).decimals() */\n      0x04\n      dup1\n      dup3\n      add\n      swap3\n        /* \"Ethereum/Presale.sol\":3138:3146  datas[5] */\n      0x20\n      swap3\n        /* \"Ethereum/Presale.sol\":3248:3285  ERC20(saleInfor.baseToken).decimals() */\n      swap1\n      swap2\n      swap1\n      dup3\n      swap1\n      sub\n      add\n      dup2\n        /* \"Ethereum/Presale.sol\":3254:3273  saleInfor.baseToken */\n      dup7\n        /* \"Ethereum/Presale.sol\":3248:3285  ERC20(saleInfor.baseToken).decimals() */\n      dup1\n      extcodesize\n      iszero\n      dup1\n      iszero\n      tag_199\n      jumpi\n      0x00\n      dup1\n      revert\n    tag_199:\n      pop\n      gas\n      staticcall\n      iszero\n      dup1\n      iszero\n      tag_201\n      jumpi\n      returndatasize\n      0x00\n      dup1\n      returndatacopy\n      revert(0x00, returndatasize)\n    tag_201:\n      pop\n      pop\n      pop\n      pop\n      mload(0x40)\n      returndatasize\n      not(0x1f)\n      0x1f\n      dup3\n      add\n      and\n      dup3\n      add\n      dup1\n      0x40\n      mstore\n      pop\n      dup2\n      add\n      swap1\n      tag_202\n      swap2\n      swap1\n      tag_159\n      jump\t// in\n    tag_202:\n        /* \"Ethereum/Presale.sol\":3234:3286  10 ** uint256(ERC20(saleInfor.baseToken).decimals()) */\n      tag_203\n      swap1\n        /* \"Ethereum/Presale.sol\":3234:3236  10 */\n      0x0a\n        /* \"Ethereum/Presale.sol\":3234:3286  10 ** uint256(ERC20(saleInfor.baseToken).decimals()) */\n      tag_175\n      jump\t// in\n    tag_203:\n        /* \"Ethereum/Presale.sol\":3223:3231  datas[7] */\n      0xe0\n      dup3\n      add\n      mload\n        /* \"Ethereum/Presale.sol\":3223:3286  datas[7] * 10 ** uint256(ERC20(saleInfor.baseToken).decimals()) */\n      tag_206\n      swap2\n      swap1\n      tag_180\n      jump\t// in\n    tag_206:\n        /* \"Ethereum/Presale.sol\":3197:3212  saleTotalSupply */\n      0x0b\n        /* \"Ethereum/Presale.sol\":3197:3286  saleTotalSupply.hardCap = datas[7] * 10 ** uint256(ERC20(saleInfor.baseToken).decimals()) */\n      sstore\n        /* \"Ethereum/Presale.sol\":3353:3372  saleInfor.baseToken */\n      sload(0x0f)\n        /* \"Ethereum/Presale.sol\":3347:3384  ERC20(saleInfor.baseToken).decimals() */\n      0x40\n      dup1\n      mload\n      shl(0xe0, 0x313ce567)\n      dup2\n      mstore\n      swap1\n      mload\n      sub(shl(0xa0, 0x01), 0x01)\n        /* \"Ethereum/Presale.sol\":3353:3372  saleInfor.baseToken */\n      swap1\n      swap3\n      and\n      swap2\n        /* \"Ethereum/Presale.sol\":3347:3382  ERC20(saleInfor.baseToken).decimals */\n      0x313ce567\n      swap2\n        /* \"Ethereum/Presale.sol\":3347:3384  ERC20(saleInfor.baseToken).decimals() */\n      0x04\n      dup1\n      dup3\n      add\n      swap3\n      0x20\n      swap3\n      swap1\n      swap2\n      swap1\n      dup3\n      swap1\n      sub\n      add\n      dup2\n        /* \"Ethereum/Presale.sol\":3353:3372  saleInfor.baseToken */\n      dup7\n        /* \"Ethereum/Presale.sol\":3347:3384  ERC20(saleInfor.baseToken).decimals() */\n      dup1\n      extcodesize\n      iszero\n      dup1\n      iszero\n      tag_207\n      jumpi\n      0x00\n      dup1\n      revert\n    tag_207:\n      pop\n      gas\n      staticcall\n      iszero\n      dup1\n      iszero\n      tag_209\n      jumpi\n      returndatasize\n      0x00\n      dup1\n      returndatacopy\n      revert(0x00, returndatasize)\n    tag_209:\n      pop\n      pop\n      pop\n      pop\n      mload(0x40)\n      returndatasize\n      not(0x1f)\n      0x1f\n      dup3\n      add\n      and\n      dup3\n      add\n      dup1\n      0x40\n      mstore\n      pop\n      dup2\n      add\n      swap1\n      tag_210\n      swap2\n      swap1\n      tag_159\n      jump\t// in\n    tag_210:\n        /* \"Ethereum/Presale.sol\":3334:3385  10** uint256(ERC20(saleInfor.baseToken).decimals()) */\n      tag_211\n      swap1\n        /* \"Ethereum/Presale.sol\":3334:3336  10 */\n      0x0a\n        /* \"Ethereum/Presale.sol\":3334:3385  10** uint256(ERC20(saleInfor.baseToken).decimals()) */\n      tag_175\n      jump\t// in\n    tag_211:\n        /* \"Ethereum/Presale.sol\":3323:3331  datas[8] */\n      0x0100\n      dup3\n      add\n      mload\n        /* \"Ethereum/Presale.sol\":3323:3385  datas[8] * 10** uint256(ERC20(saleInfor.baseToken).decimals()) */\n      tag_214\n      swap2\n      swap1\n      tag_180\n      jump\t// in\n    tag_214:\n        /* \"Ethereum/Presale.sol\":3297:3320  saleTotalSupply.softCap */\n      0x0c\n        /* \"Ethereum/Presale.sol\":3297:3385  saleTotalSupply.softCap = datas[8] * 10** uint256(ERC20(saleInfor.baseToken).decimals()) */\n      sstore\n        /* \"Ethereum/Presale.sol\":3449:3468  saleInfor.baseToken */\n      sload(0x0f)\n        /* \"Ethereum/Presale.sol\":3432:3436  WETH */\n      sload(0x19)\n        /* \"Ethereum/Presale.sol\":3396:3421  saleInfor.saleIsBaseToken */\n      0x17\n        /* \"Ethereum/Presale.sol\":3396:3469  saleInfor.saleIsBaseToken = address(WETH) == address(saleInfor.baseToken) */\n      dup1\n      sload\n      not(0xff)\n      and\n      sub(shl(0xa0, 0x01), 0x01)\n        /* \"Ethereum/Presale.sol\":3432:3436  WETH */\n      swap3\n      dup4\n      and\n        /* \"Ethereum/Presale.sol\":3449:3468  saleInfor.baseToken */\n      swap3\n      swap1\n      swap4\n      and\n        /* \"Ethereum/Presale.sol\":3424:3469  address(WETH) == address(saleInfor.baseToken) */\n      swap2\n      dup3\n      eq\n        /* \"Ethereum/Presale.sol\":3396:3469  saleInfor.saleIsBaseToken = address(WETH) == address(saleInfor.baseToken) */\n      swap3\n      swap1\n      swap3\n      or\n      swap1\n      swap2\n      sstore\n        /* \"Ethereum/Presale.sol\":3616:3653  ERC20(saleInfor.baseToken).decimals() */\n      0x40\n      dup1\n      mload\n      shl(0xe0, 0x313ce567)\n      dup2\n      mstore\n      swap1\n      mload\n        /* \"Ethereum/Presale.sol\":3616:3651  ERC20(saleInfor.baseToken).decimals */\n      0x313ce567\n      swap2\n        /* \"Ethereum/Presale.sol\":3616:3653  ERC20(saleInfor.baseToken).decimals() */\n      0x04\n      dup1\n      dup3\n      add\n      swap3\n      0x20\n      swap3\n      swap1\n      swap2\n      swap1\n      dup3\n      swap1\n      sub\n      add\n      dup2\n        /* \"Ethereum/Presale.sol\":3449:3468  saleInfor.baseToken */\n      dup7\n        /* \"Ethereum/Presale.sol\":3616:3653  ERC20(saleInfor.baseToken).decimals() */\n      dup1\n      extcodesize\n      iszero\n      dup1\n      iszero\n      tag_215\n      jumpi\n      0x00\n      dup1\n      revert\n    tag_215:\n      pop\n      gas\n      staticcall\n      iszero\n      dup1\n      iszero\n      tag_217\n      jumpi\n      returndatasize\n      0x00\n      dup1\n      returndatacopy\n      revert(0x00, returndatasize)\n    tag_217:\n      pop\n      pop\n      pop\n      pop\n      mload(0x40)\n      returndatasize\n      not(0x1f)\n      0x1f\n      dup3\n      add\n      and\n      dup3\n      add\n      dup1\n      0x40\n      mstore\n      pop\n      dup2\n      add\n      swap1\n      tag_218\n      swap2\n      swap1\n      tag_159\n      jump\t// in\n    tag_218:\n        /* \"Ethereum/Presale.sol\":3603:3654  10** uint256(ERC20(saleInfor.baseToken).decimals()) */\n      tag_219\n      swap1\n        /* \"Ethereum/Presale.sol\":3603:3605  10 */\n      0x0a\n        /* \"Ethereum/Presale.sol\":3603:3654  10** uint256(ERC20(saleInfor.baseToken).decimals()) */\n      tag_175\n      jump\t// in\n    tag_219:\n        /* \"Ethereum/Presale.sol\":3536:3551  saleTotalSupply */\n      0x0b\n        /* \"Ethereum/Presale.sol\":3536:3559  saleTotalSupply.hardCap */\n      sload\n        /* \"Ethereum/Presale.sol\":3511:3531  saleInfor.tokenPrice */\n      sload(0x10)\n        /* \"Ethereum/Presale.sol\":3511:3560  saleInfor.tokenPrice.mul(saleTotalSupply.hardCap) */\n      tag_220\n      swap2\n        /* \"Ethereum/Presale.sol\":3511:3535  saleInfor.tokenPrice.mul */\n      tag_221\n        /* \"Ethereum/Presale.sol\":3511:3560  saleInfor.tokenPrice.mul(saleTotalSupply.hardCap) */\n      jump\t// in\n    tag_220:\n        /* \"Ethereum/Presale.sol\":3511:3655  saleInfor.tokenPrice.mul(saleTotalSupply.hardCap)/\r... */\n      tag_222\n      swap2\n      swap1\n      tag_223\n      jump\t// in\n    tag_222:\n        /* \"Ethereum/Presale.sol\":3480:3508  saleInfor.amountTokenForSale */\n      0x18\n        /* \"Ethereum/Presale.sol\":3480:3655  saleInfor.amountTokenForSale = saleInfor.tokenPrice.mul(saleTotalSupply.hardCap)/\r... */\n      sstore\n      pop\n      pop\n      pop\n      pop\n        /* \"Ethereum/Presale.sol\":2473:3663  function initialSaleInfor(\r... */\n      jump\t// out\n        /* \"Ethereum/Presale.sol\":7238:8098  function userRefundEmergency() external nonReentrant {\r... */\n    tag_75:\n        /* \"Utils/ReentrancyGuard.sol\":1778:1779  2 */\n      0x02\n        /* \"Utils/ReentrancyGuard.sol\":2376:2383  _status */\n      sload(0x00)\n        /* \"Utils/ReentrancyGuard.sol\":2376:2395  _status != _ENTERED */\n      eq\n      iszero\n        /* \"Utils/ReentrancyGuard.sol\":2368:2431  require(_status != _ENTERED, \"ReentrancyGuard: reentrant call\") */\n      tag_225\n      jumpi\n      mload(0x40)\n      shl(0xe5, 0x461bcd)\n      dup2\n      mstore\n      0x04\n      add\n      tag_129\n      swap1\n      tag_146\n      jump\t// in\n    tag_225:\n        /* \"Utils/ReentrancyGuard.sol\":1778:1779  2 */\n      0x02\n        /* \"Utils/ReentrancyGuard.sol\":2509:2516  _status */\n      0x00\n        /* \"Utils/ReentrancyGuard.sol\":2509:2527  _status = _ENTERED */\n      sstore\n        /* \"Ethereum/Presale.sol\":7310:7318  status() */\n      tag_228\n        /* \"Ethereum/Presale.sol\":7310:7316  status */\n      tag_43\n        /* \"Ethereum/Presale.sol\":7310:7318  status() */\n      jump\t// in\n    tag_228:\n        /* \"Ethereum/Presale.sol\":7322:7323  1 */\n      0x01\n        /* \"Ethereum/Presale.sol\":7310:7323  status() == 1 */\n      eq\n        /* \"Ethereum/Presale.sol\":7302:7340  require(status() == 1, \"Sale sucesss\") */\n      tag_229\n      jumpi\n      mload(0x40)\n      shl(0xe5, 0x461bcd)\n      dup2\n      mstore\n        /* \"#utility.yul\":8672:8674   */\n      0x20\n        /* \"Ethereum/Presale.sol\":7302:7340  require(status() == 1, \"Sale sucesss\") */\n      0x04\n      dup3\n      add\n        /* \"#utility.yul\":8654:8675   */\n      mstore\n        /* \"#utility.yul\":8711:8713   */\n      0x0c\n        /* \"#utility.yul\":8691:8709   */\n      0x24\n      dup3\n      add\n        /* \"#utility.yul\":8684:8714   */\n      mstore\n      shl(0xa0, 0x53616c652073756365737373)\n        /* \"#utility.yul\":8730:8748   */\n      0x44\n      dup3\n      add\n        /* \"#utility.yul\":8723:8765   */\n      mstore\n        /* \"#utility.yul\":8782:8800   */\n      0x64\n      add\n        /* \"Ethereum/Presale.sol\":7302:7340  require(status() == 1, \"Sale sucesss\") */\n      tag_129\n        /* \"#utility.yul\":8644:8806   */\n      jump\n        /* \"Ethereum/Presale.sol\":7302:7340  require(status() == 1, \"Sale sucesss\") */\n    tag_229:\n        /* \"Ethereum/Presale.sol\":7394:7425  presaleStatus.totalBaseWithDraw */\n      sload(0x07)\n        /* \"Ethereum/Presale.sol\":7394:7407  presaleStatus */\n      0x04\n        /* \"Ethereum/Presale.sol\":7359:7391  presaleStatus.totalBaseCollected */\n      sload\n        /* \"Ethereum/Presale.sol\":7428:7429  0 */\n      0x00\n      swap2\n        /* \"Ethereum/Presale.sol\":7359:7425  presaleStatus.totalBaseCollected - presaleStatus.totalBaseWithDraw */\n      tag_232\n      swap2\n      tag_233\n      jump\t// in\n    tag_232:\n        /* \"Ethereum/Presale.sol\":7359:7429  presaleStatus.totalBaseCollected - presaleStatus.totalBaseWithDraw > 0 */\n      gt\n        /* \"Ethereum/Presale.sol\":7351:7488  require(presaleStatus.totalBaseCollected - presaleStatus.totalBaseWithDraw > 0, \r... */\n      tag_234\n      jumpi\n      mload(0x40)\n      shl(0xe5, 0x461bcd)\n      dup2\n      mstore\n      0x04\n      add\n      tag_129\n      swap1\n      tag_236\n      jump\t// in\n    tag_234:\n        /* \"Ethereum/Presale.sol\":7536:7546  msg.sender */\n      caller\n        /* \"Ethereum/Presale.sol\":7500:7523  BuyerInfo storage buyer */\n      0x00\n        /* \"Ethereum/Presale.sol\":7526:7547  buyerInfo[msg.sender] */\n      swap1\n      dup2\n      mstore\n        /* \"Ethereum/Presale.sol\":7526:7535  buyerInfo */\n      0x02\n        /* \"Ethereum/Presale.sol\":7526:7547  buyerInfo[msg.sender] */\n      0x20\n      mstore\n      0x40\n      swap1\n      keccak256\n        /* \"Ethereum/Presale.sol\":7566:7583  buyer.baseDeposit */\n      dup1\n      sload\n        /* \"Ethereum/Presale.sol\":7558:7629  require(buyer.baseDeposit > 0, \"You refund all or have not bought yet\") */\n      tag_237\n      jumpi\n      mload(0x40)\n      shl(0xe5, 0x461bcd)\n      dup2\n      mstore\n      0x04\n      add\n      tag_129\n      swap1\n      tag_239\n      jump\t// in\n    tag_237:\n        /* \"Ethereum/Presale.sol\":7742:7759  buyer.baseDeposit */\n      dup1\n      sload\n        /* \"Ethereum/Presale.sol\":7683:7702  saleInfor.refundFee */\n      sload(0x15)\n        /* \"Ethereum/Presale.sol\":7640:7660  uint256 amountRefund */\n      0x00\n      swap2\n        /* \"Ethereum/Presale.sol\":7663:7813  ((uint256(1000).sub(saleInfor.refundFee))\r... */\n      tag_240\n      swap2\n        /* \"Ethereum/Presale.sol\":7807:7811  1000 */\n      0x03e8\n      swap2\n        /* \"Ethereum/Presale.sol\":7664:7760  (uint256(1000).sub(saleInfor.refundFee))\r... */\n      tag_241\n      swap2\n        /* \"Ethereum/Presale.sol\":7665:7703  uint256(1000).sub(saleInfor.refundFee) */\n      tag_242\n      swap1\n        /* \"Ethereum/Presale.sol\":7807:7811  1000 */\n      dup5\n      swap1\n        /* \"Ethereum/Presale.sol\":7665:7682  uint256(1000).sub */\n      tag_243\n        /* \"Ethereum/Presale.sol\":7665:7703  uint256(1000).sub(saleInfor.refundFee) */\n      jump\t// in\n    tag_242:\n        /* \"Ethereum/Presale.sol\":7664:7741  (uint256(1000).sub(saleInfor.refundFee))\r... */\n      swap1\n      tag_221\n        /* \"Ethereum/Presale.sol\":7664:7760  (uint256(1000).sub(saleInfor.refundFee))\r... */\n      jump\t// in\n    tag_241:\n        /* \"Ethereum/Presale.sol\":7663:7798  ((uint256(1000).sub(saleInfor.refundFee))\r... */\n      swap1\n      tag_244\n        /* \"Ethereum/Presale.sol\":7663:7813  ((uint256(1000).sub(saleInfor.refundFee))\r... */\n      jump\t// in\n    tag_240:\n        /* \"Ethereum/Presale.sol\":7836:7853  buyer.baseDeposit */\n      dup3\n      sload\n        /* \"Ethereum/Presale.sol\":7640:7813  uint256 amountRefund = ((uint256(1000).sub(saleInfor.refundFee))\r... */\n      swap1\n      swap2\n      pop\n        /* \"Ethereum/Presale.sol\":7836:7868  buyer.baseDeposit - amountRefund */\n      tag_245\n      swap1\n        /* \"Ethereum/Presale.sol\":7640:7813  uint256 amountRefund = ((uint256(1000).sub(saleInfor.refundFee))\r... */\n      dup3\n      swap1\n        /* \"Ethereum/Presale.sol\":7836:7868  buyer.baseDeposit - amountRefund */\n      tag_233\n      jump\t// in\n    tag_245:\n        /* \"Ethereum/Presale.sol\":7824:7832  totalFee */\n      0x1d\n      0x00\n        /* \"Ethereum/Presale.sol\":7824:7868  totalFee += buyer.baseDeposit - amountRefund */\n      dup3\n      dup3\n      sload\n      tag_246\n      swap2\n      swap1\n      tag_247\n      jump\t// in\n    tag_246:\n      swap1\n      swap2\n      sstore\n      pop\n      pop\n        /* \"Ethereum/Presale.sol\":7879:7910  presaleStatus.totalBaseWithDraw */\n      0x07\n        /* \"Ethereum/Presale.sol\":7879:7926  presaleStatus.totalBaseWithDraw += amountRefund */\n      dup1\n      sload\n        /* \"Ethereum/Presale.sol\":7914:7926  amountRefund */\n      dup3\n      swap2\n        /* \"Ethereum/Presale.sol\":7879:7910  presaleStatus.totalBaseWithDraw */\n      swap1\n      0x00\n      swap1\n        /* \"Ethereum/Presale.sol\":7879:7926  presaleStatus.totalBaseWithDraw += amountRefund */\n      tag_248\n      swap1\n        /* \"Ethereum/Presale.sol\":7914:7926  amountRefund */\n      dup5\n      swap1\n        /* \"Ethereum/Presale.sol\":7879:7926  presaleStatus.totalBaseWithDraw += amountRefund */\n      tag_247\n      jump\t// in\n    tag_248:\n      swap1\n      swap2\n      sstore\n      pop\n      pop\n        /* \"Ethereum/Presale.sol\":7958:7959  0 */\n      0x00\n        /* \"Ethereum/Presale.sol\":7937:7959  buyer.baseDeposit  = 0 */\n      dup1\n      dup4\n      sstore\n        /* \"Ethereum/Presale.sol\":7970:7986  buyer.tokenOwner */\n      0x01\n      dup4\n      add\n        /* \"Ethereum/Presale.sol\":7970:7990  buyer.tokenOwner = 0 */\n      dup2\n      swap1\n      sstore\n        /* \"Ethereum/Presale.sol\":8022:8037  block.timestamp */\n      timestamp\n        /* \"Ethereum/Presale.sol\":8001:8019  buyer.lastWithDraw */\n      0x02\n      dup5\n      add\n        /* \"Ethereum/Presale.sol\":8001:8037  buyer.lastWithDraw = block.timestamp */\n      sstore\n        /* \"Ethereum/Presale.sol\":8048:8090  payable(msg.sender).transfer(amountRefund) */\n      mload(0x40)\n        /* \"Ethereum/Presale.sol\":8056:8066  msg.sender */\n      caller\n      swap2\n        /* \"Ethereum/Presale.sol\":8048:8090  payable(msg.sender).transfer(amountRefund) */\n      dup4\n      iszero\n      0x08fc\n      mul\n      swap2\n        /* \"Ethereum/Presale.sol\":8077:8089  amountRefund */\n      dup5\n      swap2\n        /* \"Ethereum/Presale.sol\":8048:8090  payable(msg.sender).transfer(amountRefund) */\n      dup2\n        /* \"Ethereum/Presale.sol\":7958:7959  0 */\n      dup2\n        /* \"Ethereum/Presale.sol\":8048:8090  payable(msg.sender).transfer(amountRefund) */\n      dup2\n        /* \"Ethereum/Presale.sol\":8077:8089  amountRefund */\n      dup6\n        /* \"Ethereum/Presale.sol\":8056:8066  msg.sender */\n      dup9\n        /* \"Ethereum/Presale.sol\":8048:8090  payable(msg.sender).transfer(amountRefund) */\n      dup9\n      call\n      swap4\n      pop\n      pop\n      pop\n      pop\n      iszero\n      dup1\n      iszero\n      tag_168\n      jumpi\n      returndatasize\n      0x00\n      dup1\n      returndatacopy\n      revert(0x00, returndatasize)\n        /* \"Ethereum/Presale.sol\":6351:7230  function userClaimEmergency() external nonReentrant {\r... */\n    tag_78:\n        /* \"Utils/ReentrancyGuard.sol\":1778:1779  2 */\n      0x02\n        /* \"Utils/ReentrancyGuard.sol\":2376:2383  _status */\n      sload(0x00)\n        /* \"Utils/ReentrancyGuard.sol\":2376:2395  _status != _ENTERED */\n      eq\n      iszero\n        /* \"Utils/ReentrancyGuard.sol\":2368:2431  require(_status != _ENTERED, \"ReentrancyGuard: reentrant call\") */\n      tag_252\n      jumpi\n      mload(0x40)\n      shl(0xe5, 0x461bcd)\n      dup2\n      mstore\n      0x04\n      add\n      tag_129\n      swap1\n      tag_146\n      jump\t// in\n    tag_252:\n        /* \"Utils/ReentrancyGuard.sol\":1778:1779  2 */\n      0x02\n        /* \"Utils/ReentrancyGuard.sol\":2509:2516  _status */\n      0x00\n        /* \"Utils/ReentrancyGuard.sol\":2509:2527  _status = _ENTERED */\n      sstore\n        /* \"Ethereum/Presale.sol\":6422:6430  status() */\n      tag_255\n        /* \"Ethereum/Presale.sol\":6422:6428  status */\n      tag_43\n        /* \"Ethereum/Presale.sol\":6422:6430  status() */\n      jump\t// in\n    tag_255:\n        /* \"Ethereum/Presale.sol\":6434:6435  1 */\n      0x01\n        /* \"Ethereum/Presale.sol\":6422:6435  status() == 1 */\n      eq\n        /* \"Ethereum/Presale.sol\":6414:6452  require(status() == 1, \"Sale sucesss\") */\n      tag_256\n      jumpi\n      mload(0x40)\n      shl(0xe5, 0x461bcd)\n      dup2\n      mstore\n        /* \"#utility.yul\":8672:8674   */\n      0x20\n        /* \"Ethereum/Presale.sol\":6414:6452  require(status() == 1, \"Sale sucesss\") */\n      0x04\n      dup3\n      add\n        /* \"#utility.yul\":8654:8675   */\n      mstore\n        /* \"#utility.yul\":8711:8713   */\n      0x0c\n        /* \"#utility.yul\":8691:8709   */\n      0x24\n      dup3\n      add\n        /* \"#utility.yul\":8684:8714   */\n      mstore\n      shl(0xa0, 0x53616c652073756365737373)\n        /* \"#utility.yul\":8730:8748   */\n      0x44\n      dup3\n      add\n        /* \"#utility.yul\":8723:8765   */\n      mstore\n        /* \"#utility.yul\":8782:8800   */\n      0x64\n      add\n        /* \"Ethereum/Presale.sol\":6414:6452  require(status() == 1, \"Sale sucesss\") */\n      tag_129\n        /* \"#utility.yul\":8644:8806   */\n      jump\n        /* \"Ethereum/Presale.sol\":6414:6452  require(status() == 1, \"Sale sucesss\") */\n    tag_256:\n        /* \"Ethereum/Presale.sol\":6503:6535  presaleStatus.totalTokenWithDraw */\n      sload(0x06)\n        /* \"Ethereum/Presale.sol\":6472:6500  presaleStatus.totalTokenSold */\n      sload(0x05)\n        /* \"Ethereum/Presale.sol\":6538:6539  0 */\n      0x00\n      swap2\n        /* \"Ethereum/Presale.sol\":6472:6535  presaleStatus.totalTokenSold - presaleStatus.totalTokenWithDraw */\n      tag_258\n      swap2\n      tag_233\n      jump\t// in\n    tag_258:\n        /* \"Ethereum/Presale.sol\":6472:6539  presaleStatus.totalTokenSold - presaleStatus.totalTokenWithDraw > 0 */\n      gt\n        /* \"Ethereum/Presale.sol\":6464:6598  require(presaleStatus.totalTokenSold - presaleStatus.totalTokenWithDraw > 0, \r... */\n      tag_259\n      jumpi\n      mload(0x40)\n      shl(0xe5, 0x461bcd)\n      dup2\n      mstore\n      0x04\n      add\n      tag_129\n      swap1\n      tag_236\n      jump\t// in\n    tag_259:\n        /* \"Ethereum/Presale.sol\":6645:6655  msg.sender */\n      caller\n        /* \"Ethereum/Presale.sol\":6609:6632  BuyerInfo storage buyer */\n      0x00\n        /* \"Ethereum/Presale.sol\":6635:6656  buyerInfo[msg.sender] */\n      swap1\n      dup2\n      mstore\n        /* \"Ethereum/Presale.sol\":6635:6644  buyerInfo */\n      0x02\n        /* \"Ethereum/Presale.sol\":6635:6656  buyerInfo[msg.sender] */\n      0x20\n      mstore\n      0x40\n      swap1\n      keccak256\n        /* \"Ethereum/Presale.sol\":6694:6718  buyer.totalTokenWithDraw */\n      0x03\n      dup2\n      add\n      sload\n        /* \"Ethereum/Presale.sol\":6675:6691  buyer.tokenOwner */\n      0x01\n      dup3\n      add\n      sload\n        /* \"Ethereum/Presale.sol\":6675:6718  buyer.tokenOwner > buyer.totalTokenWithDraw */\n      gt\n        /* \"Ethereum/Presale.sol\":6667:6759  require(buyer.tokenOwner > buyer.totalTokenWithDraw, \"You claim all or have not bought yet\") */\n      tag_261\n      jumpi\n      mload(0x40)\n      shl(0xe5, 0x461bcd)\n      dup2\n      mstore\n      0x04\n      add\n      tag_129\n      swap1\n      tag_263\n      jump\t// in\n    tag_261:\n        /* \"Ethereum/Presale.sol\":6770:6789  uint256 amountClaim */\n      0x00\n        /* \"Ethereum/Presale.sol\":6792:6928  ((uint256(1000).sub(saleInfor.claimFee))\r... */\n      tag_264\n        /* \"Ethereum/Presale.sol\":6922:6926  1000 */\n      0x03e8\n        /* \"Ethereum/Presale.sol\":6793:6881  (uint256(1000).sub(saleInfor.claimFee))\r... */\n      tag_241\n        /* \"Ethereum/Presale.sol\":6864:6869  buyer */\n      dup5\n        /* \"Ethereum/Presale.sol\":6864:6880  buyer.tokenOwner */\n      0x01\n      add\n      sload\n        /* \"Ethereum/Presale.sol\":6794:6831  uint256(1000).sub(saleInfor.claimFee) */\n      tag_242\n        /* \"Ethereum/Presale.sol\":6812:6821  saleInfor */\n      0x0d\n        /* \"Ethereum/Presale.sol\":6812:6830  saleInfor.claimFee */\n      0x09\n      add\n      sload\n        /* \"Ethereum/Presale.sol\":6802:6806  1000 */\n      0x03e8\n        /* \"Ethereum/Presale.sol\":6794:6811  uint256(1000).sub */\n      tag_243\n      swap1\n        /* \"Ethereum/Presale.sol\":6794:6831  uint256(1000).sub(saleInfor.claimFee) */\n      swap2\n      swap1\n      0xffffffff\n      and\n      jump\t// in\n        /* \"Ethereum/Presale.sol\":6792:6928  ((uint256(1000).sub(saleInfor.claimFee))\r... */\n    tag_264:\n        /* \"Ethereum/Presale.sol\":6770:6928  uint256 amountClaim = ((uint256(1000).sub(saleInfor.claimFee))\r... */\n      swap1\n      pop\n        /* \"Ethereum/Presale.sol\":6975:6986  amountClaim */\n      dup1\n        /* \"Ethereum/Presale.sol\":6939:6952  presaleStatus */\n      0x04\n        /* \"Ethereum/Presale.sol\":6939:6971  presaleStatus.totalTokenWithDraw */\n      0x02\n      add\n      0x00\n        /* \"Ethereum/Presale.sol\":6939:6986  presaleStatus.totalTokenWithDraw += amountClaim */\n      dup3\n      dup3\n      sload\n      tag_267\n      swap2\n      swap1\n      tag_247\n      jump\t// in\n    tag_267:\n      swap1\n      swap2\n      sstore\n      pop\n      pop\n        /* \"Ethereum/Presale.sol\":6997:7025  saleInfor.amountTokenForSale */\n      0x18\n        /* \"Ethereum/Presale.sol\":6997:7040  saleInfor.amountTokenForSale -= amountClaim */\n      dup1\n      sload\n        /* \"Ethereum/Presale.sol\":7029:7040  amountClaim */\n      dup3\n      swap2\n        /* \"Ethereum/Presale.sol\":6997:7025  saleInfor.amountTokenForSale */\n      swap1\n      0x00\n      swap1\n        /* \"Ethereum/Presale.sol\":6997:7040  saleInfor.amountTokenForSale -= amountClaim */\n      tag_268\n      swap1\n        /* \"Ethereum/Presale.sol\":7029:7040  amountClaim */\n      dup5\n      swap1\n        /* \"Ethereum/Presale.sol\":6997:7040  saleInfor.amountTokenForSale -= amountClaim */\n      tag_233\n      jump\t// in\n    tag_268:\n      swap1\n      swap2\n      sstore\n      pop\n      pop\n        /* \"Ethereum/Presale.sol\":7072:7073  0 */\n      0x00\n        /* \"Ethereum/Presale.sol\":7051:7073  buyer.baseDeposit  = 0 */\n      dup1\n      dup4\n      sstore\n        /* \"Ethereum/Presale.sol\":7084:7100  buyer.tokenOwner */\n      0x01\n      dup4\n      add\n        /* \"Ethereum/Presale.sol\":7084:7104  buyer.tokenOwner = 0 */\n      sstore\n        /* \"Ethereum/Presale.sol\":7136:7151  block.timestamp */\n      timestamp\n        /* \"Ethereum/Presale.sol\":7115:7133  buyer.lastWithDraw */\n      0x02\n      dup4\n      add\n        /* \"Ethereum/Presale.sol\":7115:7151  buyer.lastWithDraw = block.timestamp */\n      sstore\n        /* \"Ethereum/Presale.sol\":7168:7187  saleInfor.saleToken */\n      sload(0x0e)\n        /* \"Ethereum/Presale.sol\":7162:7222  ERC20(saleInfor.saleToken).transfer(msg.sender, amountClaim) */\n      mload(0x40)\n      shl(0xe0, 0xa9059cbb)\n      dup2\n      mstore\n        /* \"Ethereum/Presale.sol\":7198:7208  msg.sender */\n      caller\n        /* \"Ethereum/Presale.sol\":7162:7222  ERC20(saleInfor.saleToken).transfer(msg.sender, amountClaim) */\n      0x04\n      dup3\n      add\n        /* \"#utility.yul\":4316:4367   */\n      mstore\n        /* \"#utility.yul\":4383:4401   */\n      0x24\n      dup2\n      add\n        /* \"#utility.yul\":4376:4410   */\n      dup4\n      swap1\n      mstore\n      sub(shl(0xa0, 0x01), 0x01)\n        /* \"Ethereum/Presale.sol\":7168:7187  saleInfor.saleToken */\n      swap1\n      swap2\n      and\n      swap1\n        /* \"Ethereum/Presale.sol\":7162:7197  ERC20(saleInfor.saleToken).transfer */\n      0xa9059cbb\n      swap1\n        /* \"#utility.yul\":4289:4307   */\n      0x44\n      add\n        /* \"Ethereum/Presale.sol\":7162:7222  ERC20(saleInfor.saleToken).transfer(msg.sender, amountClaim) */\n      0x20\n      mload(0x40)\n      dup1\n      dup4\n      sub\n      dup2\n      0x00\n      dup8\n      dup1\n      extcodesize\n      iszero\n      dup1\n      iszero\n      tag_271\n      jumpi\n      0x00\n      dup1\n      revert\n    tag_271:\n      pop\n      gas\n      call\n      iszero\n      dup1\n      iszero\n      tag_273\n      jumpi\n      returndatasize\n      0x00\n      dup1\n      returndatacopy\n      revert(0x00, returndatasize)\n    tag_273:\n      pop\n      pop\n      pop\n      pop\n      mload(0x40)\n      returndatasize\n      not(0x1f)\n      0x1f\n      dup3\n      add\n      and\n      dup3\n      add\n      dup1\n      0x40\n      mstore\n      pop\n      dup2\n      add\n      swap1\n      tag_168\n      swap2\n      swap1\n      tag_166\n      jump\t// in\n        /* \"Ethereum/Presale.sol\":4136:6343  function deposit(uint256 _amount) external payable nonReentrant {\r... */\n    tag_92:\n        /* \"Utils/ReentrancyGuard.sol\":1778:1779  2 */\n      0x02\n        /* \"Utils/ReentrancyGuard.sol\":2376:2383  _status */\n      sload(0x00)\n        /* \"Utils/ReentrancyGuard.sol\":2376:2395  _status != _ENTERED */\n      eq\n      iszero\n        /* \"Utils/ReentrancyGuard.sol\":2368:2431  require(_status != _ENTERED, \"ReentrancyGuard: reentrant call\") */\n      tag_276\n      jumpi\n      mload(0x40)\n      shl(0xe5, 0x461bcd)\n      dup2\n      mstore\n      0x04\n      add\n      tag_129\n      swap1\n      tag_146\n      jump\t// in\n    tag_276:\n        /* \"Utils/ReentrancyGuard.sol\":1778:1779  2 */\n      0x02\n        /* \"Utils/ReentrancyGuard.sol\":2509:2516  _status */\n      0x00\n        /* \"Utils/ReentrancyGuard.sol\":2509:2527  _status = _ENTERED */\n      dup2\n      dup2\n      sstore\n        /* \"Ethereum/Presale.sol\":4307:4317  msg.sender */\n      caller\n        /* \"Ethereum/Presale.sol\":4297:4318  buyerInfo[msg.sender] */\n      dup2\n      mstore\n      0x20\n      swap2\n      swap1\n      swap2\n      mstore\n      0x40\n      dup2\n      keccak256\n      swap1\n        /* \"Ethereum/Presale.sol\":4349:4356  _amount */\n      dup3\n      swap1\n      dup2\n      swap1\n        /* \"Ethereum/Presale.sol\":4462:4466  1000 */\n      0x03e8\n        /* \"Ethereum/Presale.sol\":4485:4494  msg.value */\n      callvalue\n        /* \"Ethereum/Presale.sol\":4485:4512  msg.value >= real_amount_in */\n      dup4\n      gt\n      iszero\n        /* \"Ethereum/Presale.sol\":4477:4543  require(msg.value >= real_amount_in, \"Please provide navite coin\") */\n      tag_279\n      jumpi\n      mload(0x40)\n      shl(0xe5, 0x461bcd)\n      dup2\n      mstore\n        /* \"#utility.yul\":5696:5698   */\n      0x20\n        /* \"Ethereum/Presale.sol\":4477:4543  require(msg.value >= real_amount_in, \"Please provide navite coin\") */\n      0x04\n      dup3\n      add\n        /* \"#utility.yul\":5678:5699   */\n      mstore\n        /* \"#utility.yul\":5735:5737   */\n      0x1a\n        /* \"#utility.yul\":5715:5733   */\n      0x24\n      dup3\n      add\n        /* \"#utility.yul\":5708:5738   */\n      mstore\n        /* \"#utility.yul\":5774:5802   */\n      0x506c656173652070726f76696465206e617669746520636f696e000000000000\n        /* \"#utility.yul\":5754:5772   */\n      0x44\n      dup3\n      add\n        /* \"#utility.yul\":5747:5803   */\n      mstore\n        /* \"#utility.yul\":5820:5838   */\n      0x64\n      add\n        /* \"Ethereum/Presale.sol\":4477:4543  require(msg.value >= real_amount_in, \"Please provide navite coin\") */\n      tag_129\n        /* \"#utility.yul\":5668:5844   */\n      jump\n        /* \"Ethereum/Presale.sol\":4477:4543  require(msg.value >= real_amount_in, \"Please provide navite coin\") */\n    tag_279:\n        /* \"Ethereum/Presale.sol\":4580:4606  saleInfor.minSpendPerBuyer */\n      sload(0x13)\n        /* \"Ethereum/Presale.sol\":4562:4606  real_amount_in >= saleInfor.minSpendPerBuyer */\n      dup4\n      lt\n      iszero\n        /* \"Ethereum/Presale.sol\":4554:4655  require(real_amount_in >= saleInfor.minSpendPerBuyer, \r... */\n      tag_282\n      jumpi\n      mload(0x40)\n      shl(0xe5, 0x461bcd)\n      dup2\n      mstore\n        /* \"#utility.yul\":8327:8329   */\n      0x20\n        /* \"Ethereum/Presale.sol\":4554:4655  require(real_amount_in >= saleInfor.minSpendPerBuyer, \r... */\n      0x04\n      dup3\n      add\n        /* \"#utility.yul\":8309:8330   */\n      mstore\n        /* \"#utility.yul\":8366:8368   */\n      0x10\n        /* \"#utility.yul\":8346:8364   */\n      0x24\n      dup3\n      add\n        /* \"#utility.yul\":8339:8369   */\n      mstore\n      shl(0x80, 0x4e6f7420656e6f7567682076616c7565)\n        /* \"#utility.yul\":8385:8403   */\n      0x44\n      dup3\n      add\n        /* \"#utility.yul\":8378:8424   */\n      mstore\n        /* \"#utility.yul\":8441:8459   */\n      0x64\n      add\n        /* \"Ethereum/Presale.sol\":4554:4655  require(real_amount_in >= saleInfor.minSpendPerBuyer, \r... */\n      tag_129\n        /* \"#utility.yul\":8299:8465   */\n      jump\n        /* \"Ethereum/Presale.sol\":4554:4655  require(real_amount_in >= saleInfor.minSpendPerBuyer, \r... */\n    tag_282:\n        /* \"Ethereum/Presale.sol\":4692:4718  saleInfor.maxSpendPerBuyer */\n      sload(0x14)\n        /* \"Ethereum/Presale.sol\":4674:4718  real_amount_in <= saleInfor.maxSpendPerBuyer */\n      dup4\n      gt\n      iszero\n        /* \"Ethereum/Presale.sol\":4666:4765  require(real_amount_in <= saleInfor.maxSpendPerBuyer, \r... */\n      tag_285\n      jumpi\n      mload(0x40)\n      shl(0xe5, 0x461bcd)\n      dup2\n      mstore\n        /* \"#utility.yul\":7579:7581   */\n      0x20\n        /* \"Ethereum/Presale.sol\":4666:4765  require(real_amount_in <= saleInfor.maxSpendPerBuyer, \r... */\n      0x04\n      dup3\n      add\n        /* \"#utility.yul\":7561:7582   */\n      mstore\n        /* \"#utility.yul\":7618:7620   */\n      0x0e\n        /* \"#utility.yul\":7598:7616   */\n      0x24\n      dup3\n      add\n        /* \"#utility.yul\":7591:7621   */\n      mstore\n      shl(0x90, 0x4f766572666c6f772076616c7565)\n        /* \"#utility.yul\":7637:7655   */\n      0x44\n      dup3\n      add\n        /* \"#utility.yul\":7630:7674   */\n      mstore\n        /* \"#utility.yul\":7691:7709   */\n      0x64\n      add\n        /* \"Ethereum/Presale.sol\":4666:4765  require(real_amount_in <= saleInfor.maxSpendPerBuyer, \r... */\n      tag_129\n        /* \"#utility.yul\":7551:7715   */\n      jump\n        /* \"Ethereum/Presale.sol\":4666:4765  require(real_amount_in <= saleInfor.maxSpendPerBuyer, \r... */\n    tag_285:\n        /* \"Ethereum/Presale.sol\":4780:4799  checkAdminAddress() */\n      tag_288\n        /* \"Ethereum/Presale.sol\":4780:4797  checkAdminAddress */\n      tag_95\n        /* \"Ethereum/Presale.sol\":4780:4799  checkAdminAddress() */\n      jump\t// in\n    tag_288:\n        /* \"Ethereum/Presale.sol\":4776:5042  if(!checkAdminAddress()) {\r... */\n      tag_289\n      jumpi\n        /* \"Ethereum/Presale.sol\":4833:4966  ((fullPercenFee.sub(feeAnyone))\r... */\n      tag_290\n        /* \"Ethereum/Presale.sol\":4952:4965  fullPercenFee */\n      dup2\n        /* \"Ethereum/Presale.sol\":4834:4915  (fullPercenFee.sub(feeAnyone))\r... */\n      tag_241\n        /* \"Ethereum/Presale.sol\":4900:4914  real_amount_in */\n      dup6\n        /* \"Ethereum/Presale.sol\":4835:4863  fullPercenFee.sub(feeAnyone) */\n      tag_242\n        /* \"Ethereum/Presale.sol\":4853:4862  feeAnyone */\n      sload(0x1a)\n        /* \"Ethereum/Presale.sol\":4835:4848  fullPercenFee */\n      dup7\n        /* \"Ethereum/Presale.sol\":4835:4852  fullPercenFee.sub */\n      tag_243\n      swap1\n        /* \"Ethereum/Presale.sol\":4835:4863  fullPercenFee.sub(feeAnyone) */\n      swap2\n      swap1\n      0xffffffff\n      and\n      jump\t// in\n        /* \"Ethereum/Presale.sol\":4833:4966  ((fullPercenFee.sub(feeAnyone))\r... */\n    tag_290:\n        /* \"Ethereum/Presale.sol\":4816:4966  real_amount_in = ((fullPercenFee.sub(feeAnyone))\r... */\n      swap3\n      pop\n        /* \"Ethereum/Presale.sol\":4987:5013  amount_in - real_amount_in */\n      tag_293\n        /* \"Ethereum/Presale.sol\":4816:4966  real_amount_in = ((fullPercenFee.sub(feeAnyone))\r... */\n      dup4\n        /* \"Ethereum/Presale.sol\":4987:4996  amount_in */\n      dup6\n        /* \"Ethereum/Presale.sol\":4987:5013  amount_in - real_amount_in */\n      tag_233\n      jump\t// in\n    tag_293:\n        /* \"Ethereum/Presale.sol\":4981:5013  fee = amount_in - real_amount_in */\n      swap2\n      pop\n        /* \"Ethereum/Presale.sol\":4776:5042  if(!checkAdminAddress()) {\r... */\n    tag_289:\n        /* \"Ethereum/Presale.sol\":5107:5124  buyer.baseDeposit */\n      dup5\n      sload\n        /* \"Ethereum/Presale.sol\":5078:5104  saleInfor.maxSpendPerBuyer */\n      sload(0x14)\n        /* \"Ethereum/Presale.sol\":5052:5075  uint256 remainingByUser */\n      0x00\n      swap2\n        /* \"Ethereum/Presale.sol\":5078:5124  saleInfor.maxSpendPerBuyer - buyer.baseDeposit */\n      tag_294\n      swap2\n      tag_233\n      jump\t// in\n    tag_294:\n        /* \"Ethereum/Presale.sol\":5192:5205  presaleStatus */\n      0x04\n        /* \"Ethereum/Presale.sol\":5192:5224  presaleStatus.totalBaseCollected */\n      sload\n        /* \"Ethereum/Presale.sol\":5161:5189  saleInfor.amountTokenForSale */\n      sload(0x18)\n        /* \"Ethereum/Presale.sol\":5052:5124  uint256 remainingByUser = saleInfor.maxSpendPerBuyer - buyer.baseDeposit */\n      swap2\n      swap3\n      pop\n        /* \"Ethereum/Presale.sol\":5135:5158  uint256 remainingByPool */\n      0x00\n      swap2\n        /* \"Ethereum/Presale.sol\":5161:5224  saleInfor.amountTokenForSale - presaleStatus.totalBaseCollected */\n      tag_295\n      swap2\n        /* \"Ethereum/Presale.sol\":5192:5224  presaleStatus.totalBaseCollected */\n      swap1\n        /* \"Ethereum/Presale.sol\":5161:5224  saleInfor.amountTokenForSale - presaleStatus.totalBaseCollected */\n      tag_233\n      jump\t// in\n    tag_295:\n        /* \"Ethereum/Presale.sol\":5135:5224  uint256 remainingByPool = saleInfor.amountTokenForSale - presaleStatus.totalBaseCollected */\n      swap1\n      pop\n        /* \"Ethereum/Presale.sol\":5235:5252  uint256 allowance */\n      0x00\n        /* \"Ethereum/Presale.sol\":5273:5288  remainingByPool */\n      dup2\n        /* \"Ethereum/Presale.sol\":5255:5270  remainingByUser */\n      dup4\n        /* \"Ethereum/Presale.sol\":5255:5288  remainingByUser > remainingByPool */\n      gt\n        /* \"Ethereum/Presale.sol\":5255:5324  remainingByUser > remainingByPool ? remainingByPool : remainingByUser */\n      tag_296\n      jumpi\n        /* \"Ethereum/Presale.sol\":5309:5324  remainingByUser */\n      dup3\n        /* \"Ethereum/Presale.sol\":5255:5324  remainingByUser > remainingByPool ? remainingByPool : remainingByUser */\n      jump(tag_297)\n    tag_296:\n        /* \"Ethereum/Presale.sol\":5291:5306  remainingByPool */\n      dup2\n        /* \"Ethereum/Presale.sol\":5255:5324  remainingByUser > remainingByPool ? remainingByPool : remainingByUser */\n    tag_297:\n        /* \"Ethereum/Presale.sol\":5235:5324  uint256 allowance = remainingByUser > remainingByPool ? remainingByPool : remainingByUser */\n      swap1\n      pop\n        /* \"Ethereum/Presale.sol\":5361:5370  allowance */\n      dup1\n        /* \"Ethereum/Presale.sol\":5343:5357  real_amount_in */\n      dup7\n        /* \"Ethereum/Presale.sol\":5343:5370  real_amount_in <= allowance */\n      gt\n      iszero\n        /* \"Ethereum/Presale.sol\":5335:5390  require(real_amount_in <= allowance, \"Sale is success\") */\n      tag_298\n      jumpi\n      mload(0x40)\n      shl(0xe5, 0x461bcd)\n      dup2\n      mstore\n        /* \"#utility.yul\":10844:10846   */\n      0x20\n        /* \"Ethereum/Presale.sol\":5335:5390  require(real_amount_in <= allowance, \"Sale is success\") */\n      0x04\n      dup3\n      add\n        /* \"#utility.yul\":10826:10847   */\n      mstore\n        /* \"#utility.yul\":10883:10885   */\n      0x0f\n        /* \"#utility.yul\":10863:10881   */\n      0x24\n      dup3\n      add\n        /* \"#utility.yul\":10856:10886   */\n      mstore\n      shl(0x88, 0x53616c652069732073756363657373)\n        /* \"#utility.yul\":10902:10920   */\n      0x44\n      dup3\n      add\n        /* \"#utility.yul\":10895:10940   */\n      mstore\n        /* \"#utility.yul\":10957:10975   */\n      0x64\n      add\n        /* \"Ethereum/Presale.sol\":5335:5390  require(real_amount_in <= allowance, \"Sale is success\") */\n      tag_129\n        /* \"#utility.yul\":10816:10981   */\n      jump\n        /* \"Ethereum/Presale.sol\":5335:5390  require(real_amount_in <= allowance, \"Sale is success\") */\n    tag_298:\n        /* \"Ethereum/Presale.sol\":5401:5418  uint256 tokenSold */\n      0x00\n        /* \"Ethereum/Presale.sol\":5422:5580  real_amount_in.\r... */\n      tag_301\n        /* \"Ethereum/Presale.sol\":5547:5556  saleInfor */\n      0x0d\n        /* \"Ethereum/Presale.sol\":5547:5566  saleInfor.baseToken */\n      0x02\n      add\n      0x00\n      swap1\n      sload\n      swap1\n      0x0100\n      exp\n      swap1\n      div\n      sub(shl(0xa0, 0x01), 0x01)\n      and\n      sub(shl(0xa0, 0x01), 0x01)\n        /* \"Ethereum/Presale.sol\":5541:5576  ERC20(saleInfor.baseToken).decimals */\n      and\n      0x313ce567\n        /* \"Ethereum/Presale.sol\":5541:5578  ERC20(saleInfor.baseToken).decimals() */\n      mload(0x40)\n      dup2\n      0xffffffff\n      and\n      0xe0\n      shl\n      dup2\n      mstore\n      0x04\n      add\n      0x20\n      mload(0x40)\n      dup1\n      dup4\n      sub\n      dup2\n      dup7\n      dup1\n      extcodesize\n      iszero\n      dup1\n      iszero\n      tag_302\n      jumpi\n      0x00\n      dup1\n      revert\n    tag_302:\n      pop\n      gas\n      staticcall\n      iszero\n      dup1\n      iszero\n      tag_304\n      jumpi\n      returndatasize\n      0x00\n      dup1\n      returndatacopy\n      revert(0x00, returndatasize)\n    tag_304:\n      pop\n      pop\n      pop\n      pop\n      mload(0x40)\n      returndatasize\n      not(0x1f)\n      0x1f\n      dup3\n      add\n      and\n      dup3\n      add\n      dup1\n      0x40\n      mstore\n      pop\n      dup2\n      add\n      swap1\n      tag_305\n      swap2\n      swap1\n      tag_159\n      jump\t// in\n    tag_305:\n        /* \"Ethereum/Presale.sol\":5527:5579  10 ** uint256(ERC20(saleInfor.baseToken).decimals()) */\n      tag_306\n      swap1\n        /* \"Ethereum/Presale.sol\":5527:5529  10 */\n      0x0a\n        /* \"Ethereum/Presale.sol\":5527:5579  10 ** uint256(ERC20(saleInfor.baseToken).decimals()) */\n      tag_175\n      jump\t// in\n    tag_306:\n        /* \"Ethereum/Presale.sol\":5471:5491  saleInfor.tokenPrice */\n      sload(0x10)\n        /* \"Ethereum/Presale.sol\":5422:5492  real_amount_in.\r... */\n      tag_241\n      swap1\n        /* \"Ethereum/Presale.sol\":5422:5436  real_amount_in */\n      dup11\n      swap1\n        /* \"Ethereum/Presale.sol\":5422:5470  real_amount_in.\r... */\n      tag_221\n        /* \"Ethereum/Presale.sol\":5422:5492  real_amount_in.\r... */\n      jump\t// in\n        /* \"Ethereum/Presale.sol\":5422:5580  real_amount_in.\r... */\n    tag_301:\n        /* \"Ethereum/Presale.sol\":5401:5581  uint256 tokenSold = (real_amount_in.\r... */\n      swap1\n      pop\n        /* \"Ethereum/Presale.sol\":5630:5639  amount_in */\n      dup8\n        /* \"Ethereum/Presale.sol\":5609:5614  buyer */\n      dup10\n        /* \"Ethereum/Presale.sol\":5609:5626  buyer.baseDeposit */\n      0x00\n      add\n      0x00\n        /* \"Ethereum/Presale.sol\":5609:5639  buyer.baseDeposit += amount_in */\n      dup3\n      dup3\n      sload\n      tag_308\n      swap2\n      swap1\n      tag_247\n      jump\t// in\n    tag_308:\n      swap3\n      pop\n      pop\n      dup2\n      swap1\n      sstore\n      pop\n        /* \"Ethereum/Presale.sol\":5670:5679  tokenSold */\n      dup1\n        /* \"Ethereum/Presale.sol\":5650:5655  buyer */\n      dup10\n        /* \"Ethereum/Presale.sol\":5650:5666  buyer.tokenOwner */\n      0x01\n      add\n      0x00\n        /* \"Ethereum/Presale.sol\":5650:5679  buyer.tokenOwner += tokenSold */\n      dup3\n      dup3\n      sload\n      tag_309\n      swap2\n      swap1\n      tag_247\n      jump\t// in\n    tag_309:\n      swap1\n      swap2\n      sstore\n      pop\n      pop\n        /* \"Ethereum/Presale.sol\":5690:5703  presaleStatus */\n      0x04\n        /* \"Ethereum/Presale.sol\":5690:5740  presaleStatus.totalBaseCollected += real_amount_in */\n      dup1\n      sload\n        /* \"Ethereum/Presale.sol\":5726:5740  real_amount_in */\n      dup9\n      swap2\n        /* \"Ethereum/Presale.sol\":5690:5703  presaleStatus */\n      swap1\n        /* \"Ethereum/Presale.sol\":5690:5722  presaleStatus.totalBaseCollected */\n      0x00\n      swap1\n        /* \"Ethereum/Presale.sol\":5690:5740  presaleStatus.totalBaseCollected += real_amount_in */\n      tag_310\n      swap1\n        /* \"Ethereum/Presale.sol\":5726:5740  real_amount_in */\n      dup5\n      swap1\n        /* \"Ethereum/Presale.sol\":5690:5740  presaleStatus.totalBaseCollected += real_amount_in */\n      tag_247\n      jump\t// in\n    tag_310:\n      swap1\n      swap2\n      sstore\n      pop\n      pop\n        /* \"Ethereum/Presale.sol\":5751:5779  presaleStatus.totalTokenSold */\n      0x05\n        /* \"Ethereum/Presale.sol\":5751:5792  presaleStatus.totalTokenSold += tokenSold */\n      dup1\n      sload\n        /* \"Ethereum/Presale.sol\":5783:5792  tokenSold */\n      dup3\n      swap2\n        /* \"Ethereum/Presale.sol\":5751:5779  presaleStatus.totalTokenSold */\n      swap1\n      0x00\n      swap1\n        /* \"Ethereum/Presale.sol\":5751:5792  presaleStatus.totalTokenSold += tokenSold */\n      tag_311\n      swap1\n        /* \"Ethereum/Presale.sol\":5783:5792  tokenSold */\n      dup5\n      swap1\n        /* \"Ethereum/Presale.sol\":5751:5792  presaleStatus.totalTokenSold += tokenSold */\n      tag_247\n      jump\t// in\n    tag_311:\n      swap1\n      swap2\n      sstore\n      pop\n      pop\n        /* \"Ethereum/Presale.sol\":5803:5828  presaleStatus.numberBuyer */\n      0x08\n        /* \"Ethereum/Presale.sol\":5803:5830  presaleStatus.numberBuyer++ */\n      dup1\n      sload\n      swap1\n        /* \"Ethereum/Presale.sol\":5803:5828  presaleStatus.numberBuyer */\n      0x00\n        /* \"Ethereum/Presale.sol\":5803:5830  presaleStatus.numberBuyer++ */\n      tag_312\n      dup4\n      tag_313\n      jump\t// in\n    tag_312:\n      swap1\n      swap2\n      sstore\n      pop\n      pop\n        /* \"Ethereum/Presale.sol\":5849:5859  msg.sender */\n      caller\n        /* \"Ethereum/Presale.sol\":5841:5860  userFee[msg.sender] */\n      0x00\n      swap1\n      dup2\n      mstore\n        /* \"Ethereum/Presale.sol\":5841:5848  userFee */\n      0x03\n        /* \"Ethereum/Presale.sol\":5841:5860  userFee[msg.sender] */\n      0x20\n      mstore\n      0x40\n      dup2\n      keccak256\n        /* \"Ethereum/Presale.sol\":5841:5867  userFee[msg.sender] += fee */\n      dup1\n      sload\n        /* \"Ethereum/Presale.sol\":5864:5867  fee */\n      dup9\n      swap3\n        /* \"Ethereum/Presale.sol\":5841:5860  userFee[msg.sender] */\n      swap1\n        /* \"Ethereum/Presale.sol\":5841:5867  userFee[msg.sender] += fee */\n      tag_314\n      swap1\n        /* \"Ethereum/Presale.sol\":5864:5867  fee */\n      dup5\n      swap1\n        /* \"Ethereum/Presale.sol\":5841:5867  userFee[msg.sender] += fee */\n      tag_247\n      jump\t// in\n    tag_314:\n      swap3\n      pop\n      pop\n      dup2\n      swap1\n      sstore\n      pop\n        /* \"Ethereum/Presale.sol\":5890:5893  fee */\n      dup6\n        /* \"Ethereum/Presale.sol\":5878:5886  totalFee */\n      0x1d\n      0x00\n        /* \"Ethereum/Presale.sol\":5878:5893  totalFee += fee */\n      dup3\n      dup3\n      sload\n      tag_315\n      swap2\n      swap1\n      tag_247\n      jump\t// in\n    tag_315:\n      swap1\n      swap2\n      sstore\n      pop\n      pop\n        /* \"Ethereum/Presale.sol\":5909:5934  saleInfor.saleIsBaseToken */\n      and(0xff, sload(0x17))\n        /* \"Ethereum/Presale.sol\":5909:5971  saleInfor.saleIsBaseToken && real_amount_in + fee <= msg.value */\n      dup1\n      iszero\n      tag_316\n      jumpi\n      pop\n        /* \"Ethereum/Presale.sol\":5962:5971  msg.value */\n      callvalue\n        /* \"Ethereum/Presale.sol\":5938:5958  real_amount_in + fee */\n      tag_317\n        /* \"Ethereum/Presale.sol\":5955:5958  fee */\n      dup8\n        /* \"Ethereum/Presale.sol\":5938:5952  real_amount_in */\n      dup10\n        /* \"Ethereum/Presale.sol\":5938:5958  real_amount_in + fee */\n      tag_247\n      jump\t// in\n    tag_317:\n        /* \"Ethereum/Presale.sol\":5938:5971  real_amount_in + fee <= msg.value */\n      gt\n      iszero\n        /* \"Ethereum/Presale.sol\":5909:5971  saleInfor.saleIsBaseToken && real_amount_in + fee <= msg.value */\n    tag_316:\n        /* \"Ethereum/Presale.sol\":5906:6062  if(saleInfor.saleIsBaseToken && real_amount_in + fee <= msg.value) {\r... */\n      iszero\n      tag_318\n      jumpi\n        /* \"Ethereum/Presale.sol\":5996:6006  msg.sender */\n      caller\n        /* \"Ethereum/Presale.sol\":5988:6050  payable(msg.sender).transfer(msg.value - real_amount_in - fee) */\n      0x08fc\n        /* \"Ethereum/Presale.sol\":6046:6049  fee */\n      dup8\n        /* \"Ethereum/Presale.sol\":6017:6043  msg.value - real_amount_in */\n      tag_319\n        /* \"Ethereum/Presale.sol\":6029:6043  real_amount_in */\n      dup11\n        /* \"Ethereum/Presale.sol\":6017:6026  msg.value */\n      callvalue\n        /* \"Ethereum/Presale.sol\":6017:6043  msg.value - real_amount_in */\n      tag_233\n      jump\t// in\n    tag_319:\n        /* \"Ethereum/Presale.sol\":6017:6049  msg.value - real_amount_in - fee */\n      tag_320\n      swap2\n      swap1\n      tag_233\n      jump\t// in\n    tag_320:\n        /* \"Ethereum/Presale.sol\":5988:6050  payable(msg.sender).transfer(msg.value - real_amount_in - fee) */\n      mload(0x40)\n      dup2\n      iszero\n      swap1\n      swap3\n      mul\n      swap2\n      0x00\n      dup2\n      dup2\n      dup2\n      dup6\n      dup9\n      dup9\n      call\n      swap4\n      pop\n      pop\n      pop\n      pop\n      iszero\n      dup1\n      iszero\n      tag_322\n      jumpi\n      returndatasize\n      0x00\n      dup1\n      returndatacopy\n      revert(0x00, returndatasize)\n    tag_322:\n      pop\n        /* \"Ethereum/Presale.sol\":5906:6062  if(saleInfor.saleIsBaseToken && real_amount_in + fee <= msg.value) {\r... */\n    tag_318:\n        /* \"Ethereum/Presale.sol\":6077:6102  saleInfor.saleIsBaseToken */\n      and(0xff, sload(0x17))\n        /* \"Ethereum/Presale.sol\":6073:6324  if(!saleInfor.saleIsBaseToken) {\r... */\n      tag_324\n      jumpi\n        /* \"Ethereum/Presale.sol\":6177:6196  saleInfor.baseToken */\n      sload(0x0f)\n        /* \"Ethereum/Presale.sol\":6119:6312  TransferHelper.safeTransferFrom(\r... */\n      tag_324\n      swap1\n      sub(shl(0xa0, 0x01), 0x01)\n        /* \"Ethereum/Presale.sol\":6177:6196  saleInfor.baseToken */\n      and\n        /* \"Ethereum/Presale.sol\":6216:6226  msg.sender */\n      caller\n        /* \"Ethereum/Presale.sol\":6253:6257  this */\n      address\n        /* \"Ethereum/Presale.sol\":6277:6297  real_amount_in + fee */\n      tag_325\n        /* \"Ethereum/Presale.sol\":6294:6297  fee */\n      dup11\n        /* \"Ethereum/Presale.sol\":6277:6291  real_amount_in */\n      dup13\n        /* \"Ethereum/Presale.sol\":6277:6297  real_amount_in + fee */\n      tag_247\n      jump\t// in\n    tag_325:\n        /* \"Ethereum/Presale.sol\":6119:6150  TransferHelper.safeTransferFrom */\n      tag_326\n        /* \"Ethereum/Presale.sol\":6119:6312  TransferHelper.safeTransferFrom(\r... */\n      jump\t// in\n    tag_324:\n      pop\n      pop\n        /* \"Utils/ReentrancyGuard.sol\":1734:1735  1 */\n      0x01\n        /* \"Utils/ReentrancyGuard.sol\":2688:2695  _status */\n      0x00\n        /* \"Utils/ReentrancyGuard.sol\":2688:2710  _status = _NOT_ENTERED */\n      sstore\n      pop\n      pop\n      pop\n      pop\n      pop\n      pop\n      pop\n      pop\n        /* \"Ethereum/Presale.sol\":4136:6343  function deposit(uint256 _amount) external payable nonReentrant {\r... */\n      jump\t// out\n        /* \"Ethereum/Presale.sol\":4018:4128  function checkAdminAddress() public view returns(bool) {\r... */\n    tag_95:\n        /* \"Ethereum/Presale.sol\":4067:4071  bool */\n      0x00\n        /* \"Ethereum/Presale.sol\":4091:4120  admins.contains(_msgSender()) */\n      tag_328\n        /* \"Ethereum/Presale.sol\":4091:4097  admins */\n      0x1b\n        /* \"Utils/Context.sol\":736:746  msg.sender */\n      caller\n        /* \"Ethereum/Presale.sol\":4091:4106  admins.contains */\n      tag_330\n        /* \"Ethereum/Presale.sol\":4091:4120  admins.contains(_msgSender()) */\n      jump\t// in\n    tag_328:\n        /* \"Ethereum/Presale.sol\":4084:4120  return admins.contains(_msgSender()) */\n      swap1\n      pop\n        /* \"Ethereum/Presale.sol\":4018:4128  function checkAdminAddress() public view returns(bool) {\r... */\n      swap1\n      jump\t// out\n        /* \"Ethereum/Presale.sol\":8869:10380  function userClaimOrRefundWhenSaleSuccess(bool isClaim) external {\r... */\n    tag_108:\n        /* \"Ethereum/Presale.sol\":9009:9016  isClaim */\n      dup1\n        /* \"Ethereum/Presale.sol\":9006:10363  if(isClaim){\r... */\n      iszero\n      tag_332\n      jumpi\n        /* \"Ethereum/Presale.sol\":9071:9103  presaleStatus.totalTokenWithDraw */\n      sload(0x06)\n        /* \"Ethereum/Presale.sol\":9040:9068  presaleStatus.totalTokenSold */\n      sload(0x05)\n        /* \"Ethereum/Presale.sol\":9106:9107  0 */\n      0x00\n      swap2\n        /* \"Ethereum/Presale.sol\":9040:9103  presaleStatus.totalTokenSold - presaleStatus.totalTokenWithDraw */\n      tag_333\n      swap2\n      tag_233\n      jump\t// in\n    tag_333:\n        /* \"Ethereum/Presale.sol\":9040:9107  presaleStatus.totalTokenSold - presaleStatus.totalTokenWithDraw > 0 */\n      gt\n        /* \"Ethereum/Presale.sol\":9032:9171  require(presaleStatus.totalTokenSold - presaleStatus.totalTokenWithDraw > 0, \r... */\n      tag_334\n      jumpi\n      mload(0x40)\n      shl(0xe5, 0x461bcd)\n      dup2\n      mstore\n      0x04\n      add\n      tag_129\n      swap1\n      tag_236\n      jump\t// in\n    tag_334:\n        /* \"Ethereum/Presale.sol\":9222:9232  msg.sender */\n      caller\n        /* \"Ethereum/Presale.sol\":9186:9209  BuyerInfo storage buyer */\n      0x00\n        /* \"Ethereum/Presale.sol\":9212:9233  buyerInfo[msg.sender] */\n      swap1\n      dup2\n      mstore\n        /* \"Ethereum/Presale.sol\":9212:9221  buyerInfo */\n      0x02\n        /* \"Ethereum/Presale.sol\":9212:9233  buyerInfo[msg.sender] */\n      0x20\n      mstore\n      0x40\n      swap1\n      keccak256\n        /* \"Ethereum/Presale.sol\":9275:9299  buyer.totalTokenWithDraw */\n      0x03\n      dup2\n      add\n      sload\n        /* \"Ethereum/Presale.sol\":9256:9272  buyer.tokenOwner */\n      0x01\n      dup3\n      add\n      sload\n        /* \"Ethereum/Presale.sol\":9256:9299  buyer.tokenOwner > buyer.totalTokenWithDraw */\n      gt\n        /* \"Ethereum/Presale.sol\":9248:9340  require(buyer.tokenOwner > buyer.totalTokenWithDraw, \"You claim all or have not bought yet\") */\n      tag_336\n      jumpi\n      mload(0x40)\n      shl(0xe5, 0x461bcd)\n      dup2\n      mstore\n      0x04\n      add\n      tag_129\n      swap1\n      tag_263\n      jump\t// in\n    tag_336:\n        /* \"Ethereum/Presale.sol\":9391:9407  buyer.tokenOwner */\n      0x01\n      dup2\n      add\n      sload\n        /* \"Ethereum/Presale.sol\":9355:9387  presaleStatus.totalTokenWithDraw */\n      0x06\n        /* \"Ethereum/Presale.sol\":9355:9407  presaleStatus.totalTokenWithDraw += buyer.tokenOwner */\n      dup1\n      sload\n        /* \"Ethereum/Presale.sol\":9355:9387  presaleStatus.totalTokenWithDraw */\n      0x00\n      swap1\n        /* \"Ethereum/Presale.sol\":9355:9407  presaleStatus.totalTokenWithDraw += buyer.tokenOwner */\n      tag_338\n      swap1\n        /* \"Ethereum/Presale.sol\":9391:9407  buyer.tokenOwner */\n      dup5\n      swap1\n        /* \"Ethereum/Presale.sol\":9355:9407  presaleStatus.totalTokenWithDraw += buyer.tokenOwner */\n      tag_247\n      jump\t// in\n    tag_338:\n      swap1\n      swap2\n      sstore\n      pop\n      pop\n        /* \"Ethereum/Presale.sol\":9454:9470  buyer.tokenOwner */\n      0x01\n      dup2\n      add\n      sload\n        /* \"Ethereum/Presale.sol\":9422:9450  saleInfor.amountTokenForSale */\n      0x18\n        /* \"Ethereum/Presale.sol\":9422:9470  saleInfor.amountTokenForSale -= buyer.tokenOwner */\n      dup1\n      sload\n        /* \"Ethereum/Presale.sol\":9422:9450  saleInfor.amountTokenForSale */\n      0x00\n      swap1\n        /* \"Ethereum/Presale.sol\":9422:9470  saleInfor.amountTokenForSale -= buyer.tokenOwner */\n      tag_339\n      swap1\n        /* \"Ethereum/Presale.sol\":9454:9470  buyer.tokenOwner */\n      dup5\n      swap1\n        /* \"Ethereum/Presale.sol\":9422:9470  saleInfor.amountTokenForSale -= buyer.tokenOwner */\n      tag_233\n      jump\t// in\n    tag_339:\n      swap1\n      swap2\n      sstore\n      pop\n      pop\n        /* \"Ethereum/Presale.sol\":9506:9507  0 */\n      0x00\n        /* \"Ethereum/Presale.sol\":9485:9507  buyer.baseDeposit  = 0 */\n      dup1\n      dup3\n      sstore\n        /* \"Ethereum/Presale.sol\":9522:9538  buyer.tokenOwner */\n      0x01\n      dup3\n      add\n        /* \"Ethereum/Presale.sol\":9522:9542  buyer.tokenOwner = 0 */\n      dup2\n      swap1\n      sstore\n        /* \"Ethereum/Presale.sol\":9578:9593  block.timestamp */\n      timestamp\n        /* \"Ethereum/Presale.sol\":9557:9575  buyer.lastWithDraw */\n      0x02\n      dup4\n      add\n        /* \"Ethereum/Presale.sol\":9557:9593  buyer.lastWithDraw = block.timestamp */\n      sstore\n        /* \"Ethereum/Presale.sol\":9614:9633  saleInfor.saleToken */\n      sload(0x0e)\n        /* \"Ethereum/Presale.sol\":9608:9673  ERC20(saleInfor.saleToken).transfer(msg.sender, buyer.tokenOwner) */\n      mload(0x40)\n      shl(0xe0, 0xa9059cbb)\n      dup2\n      mstore\n        /* \"Ethereum/Presale.sol\":9644:9654  msg.sender */\n      caller\n        /* \"Ethereum/Presale.sol\":9608:9673  ERC20(saleInfor.saleToken).transfer(msg.sender, buyer.tokenOwner) */\n      0x04\n      dup3\n      add\n        /* \"#utility.yul\":4316:4367   */\n      mstore\n        /* \"#utility.yul\":4383:4401   */\n      0x24\n      dup2\n      add\n        /* \"#utility.yul\":4376:4410   */\n      swap3\n      swap1\n      swap3\n      mstore\n      sub(shl(0xa0, 0x01), 0x01)\n        /* \"Ethereum/Presale.sol\":9614:9633  saleInfor.saleToken */\n      and\n      swap1\n        /* \"Ethereum/Presale.sol\":9608:9643  ERC20(saleInfor.saleToken).transfer */\n      0xa9059cbb\n      swap1\n        /* \"#utility.yul\":4289:4307   */\n      0x44\n      add\n        /* \"Ethereum/Presale.sol\":9608:9673  ERC20(saleInfor.saleToken).transfer(msg.sender, buyer.tokenOwner) */\n      0x20\n      mload(0x40)\n      dup1\n      dup4\n      sub\n      dup2\n      0x00\n      dup8\n      dup1\n      extcodesize\n      iszero\n      dup1\n      iszero\n      tag_341\n      jumpi\n      0x00\n      dup1\n      revert\n    tag_341:\n      pop\n      gas\n      call\n      iszero\n      dup1\n      iszero\n      tag_343\n      jumpi\n      returndatasize\n      0x00\n      dup1\n      returndatacopy\n      revert(0x00, returndatasize)\n    tag_343:\n      pop\n      pop\n      pop\n      pop\n      mload(0x40)\n      returndatasize\n      not(0x1f)\n      0x1f\n      dup3\n      add\n      and\n      dup3\n      add\n      dup1\n      0x40\n      mstore\n      pop\n      dup2\n      add\n      swap1\n      tag_344\n      swap2\n      swap1\n      tag_166\n      jump\t// in\n    tag_344:\n      pop\n        /* \"Ethereum/Presale.sol\":9017:9685  {\r... */\n      pop\n        /* \"Ethereum/Presale.sol\":10559:10610  payable(msg.sender).transfer(address(this).balance) */\n      pop\n        /* \"Ethereum/Presale.sol\":10510:10618  function backToken() external payable {\r... */\n      jump\t// out\n        /* \"Ethereum/Presale.sol\":9006:10363  if(isClaim){\r... */\n    tag_332:\n        /* \"Ethereum/Presale.sol\":9747:9778  presaleStatus.totalBaseWithDraw */\n      sload(0x07)\n        /* \"Ethereum/Presale.sol\":9747:9760  presaleStatus */\n      0x04\n        /* \"Ethereum/Presale.sol\":9712:9744  presaleStatus.totalBaseCollected */\n      sload\n        /* \"Ethereum/Presale.sol\":9781:9782  0 */\n      0x00\n      swap2\n        /* \"Ethereum/Presale.sol\":9712:9778  presaleStatus.totalBaseCollected - presaleStatus.totalBaseWithDraw */\n      tag_346\n      swap2\n      tag_233\n      jump\t// in\n    tag_346:\n        /* \"Ethereum/Presale.sol\":9712:9782  presaleStatus.totalBaseCollected - presaleStatus.totalBaseWithDraw > 0 */\n      gt\n        /* \"Ethereum/Presale.sol\":9704:9846  require(presaleStatus.totalBaseCollected - presaleStatus.totalBaseWithDraw > 0, \r... */\n      tag_347\n      jumpi\n      mload(0x40)\n      shl(0xe5, 0x461bcd)\n      dup2\n      mstore\n      0x04\n      add\n      tag_129\n      swap1\n      tag_236\n      jump\t// in\n    tag_347:\n        /* \"Ethereum/Presale.sol\":9898:9908  msg.sender */\n      caller\n        /* \"Ethereum/Presale.sol\":9862:9885  BuyerInfo storage buyer */\n      0x00\n        /* \"Ethereum/Presale.sol\":9888:9909  buyerInfo[msg.sender] */\n      swap1\n      dup2\n      mstore\n        /* \"Ethereum/Presale.sol\":9888:9897  buyerInfo */\n      0x02\n        /* \"Ethereum/Presale.sol\":9888:9909  buyerInfo[msg.sender] */\n      0x20\n      mstore\n      0x40\n      swap1\n      keccak256\n        /* \"Ethereum/Presale.sol\":9932:9949  buyer.baseDeposit */\n      dup1\n      sload\n        /* \"Ethereum/Presale.sol\":9924:9995  require(buyer.baseDeposit > 0, \"You refund all or have not bought yet\") */\n      tag_349\n      jumpi\n      mload(0x40)\n      shl(0xe5, 0x461bcd)\n      dup2\n      mstore\n      0x04\n      add\n      tag_129\n      swap1\n      tag_239\n      jump\t// in\n    tag_349:\n        /* \"Ethereum/Presale.sol\":10033:10050  buyer.baseDeposit */\n      dup1\n      sload\n        /* \"Ethereum/Presale.sol\":10077:10109  buyer.baseDeposit - amountRefund */\n      tag_351\n        /* \"Ethereum/Presale.sol\":10033:10050  buyer.baseDeposit */\n      dup2\n      dup1\n        /* \"Ethereum/Presale.sol\":10077:10109  buyer.baseDeposit - amountRefund */\n      tag_233\n      jump\t// in\n    tag_351:\n        /* \"Ethereum/Presale.sol\":10065:10073  totalFee */\n      0x1d\n      0x00\n        /* \"Ethereum/Presale.sol\":10065:10109  totalFee += buyer.baseDeposit - amountRefund */\n      dup3\n      dup3\n      sload\n      tag_352\n      swap2\n      swap1\n      tag_247\n      jump\t// in\n    tag_352:\n      swap1\n      swap2\n      sstore\n      pop\n      pop\n        /* \"Ethereum/Presale.sol\":10124:10155  presaleStatus.totalBaseWithDraw */\n      0x07\n        /* \"Ethereum/Presale.sol\":10124:10171  presaleStatus.totalBaseWithDraw += amountRefund */\n      dup1\n      sload\n        /* \"Ethereum/Presale.sol\":10159:10171  amountRefund */\n      dup3\n      swap2\n        /* \"Ethereum/Presale.sol\":10124:10155  presaleStatus.totalBaseWithDraw */\n      swap1\n      0x00\n      swap1\n        /* \"Ethereum/Presale.sol\":10124:10171  presaleStatus.totalBaseWithDraw += amountRefund */\n      tag_353\n      swap1\n        /* \"Ethereum/Presale.sol\":10159:10171  amountRefund */\n      dup5\n      swap1\n        /* \"Ethereum/Presale.sol\":10124:10171  presaleStatus.totalBaseWithDraw += amountRefund */\n      tag_247\n      jump\t// in\n    tag_353:\n      swap1\n      swap2\n      sstore\n      pop\n      pop\n        /* \"Ethereum/Presale.sol\":10207:10208  0 */\n      0x00\n        /* \"Ethereum/Presale.sol\":10186:10208  buyer.baseDeposit  = 0 */\n      dup1\n      dup4\n      sstore\n        /* \"Ethereum/Presale.sol\":10223:10239  buyer.tokenOwner */\n      0x01\n      dup4\n      add\n        /* \"Ethereum/Presale.sol\":10223:10243  buyer.tokenOwner = 0 */\n      dup2\n      swap1\n      sstore\n        /* \"Ethereum/Presale.sol\":10279:10294  block.timestamp */\n      timestamp\n        /* \"Ethereum/Presale.sol\":10258:10276  buyer.lastWithDraw */\n      0x02\n      dup5\n      add\n        /* \"Ethereum/Presale.sol\":10258:10294  buyer.lastWithDraw = block.timestamp */\n      sstore\n        /* \"Ethereum/Presale.sol\":10309:10351  payable(msg.sender).transfer(amountRefund) */\n      mload(0x40)\n        /* \"Ethereum/Presale.sol\":10317:10327  msg.sender */\n      caller\n      swap2\n        /* \"Ethereum/Presale.sol\":10309:10351  payable(msg.sender).transfer(amountRefund) */\n      dup4\n      iszero\n      0x08fc\n      mul\n      swap2\n        /* \"Ethereum/Presale.sol\":10338:10350  amountRefund */\n      dup5\n      swap2\n        /* \"Ethereum/Presale.sol\":10309:10351  payable(msg.sender).transfer(amountRefund) */\n      dup2\n        /* \"Ethereum/Presale.sol\":10207:10208  0 */\n      dup2\n        /* \"Ethereum/Presale.sol\":10309:10351  payable(msg.sender).transfer(amountRefund) */\n      dup2\n        /* \"Ethereum/Presale.sol\":10338:10350  amountRefund */\n      dup6\n        /* \"Ethereum/Presale.sol\":10317:10327  msg.sender */\n      dup9\n        /* \"Ethereum/Presale.sol\":10309:10351  payable(msg.sender).transfer(amountRefund) */\n      dup9\n      call\n      swap4\n      pop\n      pop\n      pop\n      pop\n      iszero\n      dup1\n      iszero\n      tag_355\n      jumpi\n      returndatasize\n      0x00\n      dup1\n      returndatacopy\n      revert(0x00, returndatasize)\n    tag_355:\n      pop\n        /* \"Ethereum/Presale.sol\":9689:10363  {\r... */\n      pop\n      pop\n        /* \"Ethereum/Presale.sol\":8869:10380  function userClaimOrRefundWhenSaleSuccess(bool isClaim) external {\r... */\n      pop\n      jump\t// out\n        /* \"Utils/Ownable.sol\":1972:2173  function transferOwnership(address newOwner) public virtual onlyOwner {\r... */\n    tag_112:\n        /* \"Utils/Ownable.sol\":1136:1142  _owner */\n      and(sub(shl(0xa0, 0x01), 0x01), sload(0x01))\n        /* \"Utils/Context.sol\":736:746  msg.sender */\n      caller\n        /* \"Utils/Ownable.sol\":1283:1306  owner() == _msgSender() */\n      eq\n        /* \"Utils/Ownable.sol\":1275:1343  require(owner() == _msgSender(), \"Ownable: caller is not the owner\") */\n      tag_359\n      jumpi\n      mload(0x40)\n      shl(0xe5, 0x461bcd)\n      dup2\n      mstore\n        /* \"#utility.yul\":9360:9362   */\n      0x20\n        /* \"Utils/Ownable.sol\":1275:1343  require(owner() == _msgSender(), \"Ownable: caller is not the owner\") */\n      0x04\n      dup3\n      add\n        /* \"#utility.yul\":9342:9363   */\n      dup2\n      swap1\n      mstore\n        /* \"#utility.yul\":9379:9397   */\n      0x24\n      dup3\n      add\n        /* \"#utility.yul\":9372:9402   */\n      mstore\n        /* \"#utility.yul\":9438:9472   */\n      0x4f776e61626c653a2063616c6c6572206973206e6f7420746865206f776e6572\n        /* \"#utility.yul\":9418:9436   */\n      0x44\n      dup3\n      add\n        /* \"#utility.yul\":9411:9473   */\n      mstore\n        /* \"#utility.yul\":9490:9508   */\n      0x64\n      add\n        /* \"Utils/Ownable.sol\":1275:1343  require(owner() == _msgSender(), \"Ownable: caller is not the owner\") */\n      tag_129\n        /* \"#utility.yul\":9332:9514   */\n      jump\n        /* \"Utils/Ownable.sol\":1275:1343  require(owner() == _msgSender(), \"Ownable: caller is not the owner\") */\n    tag_359:\n      sub(shl(0xa0, 0x01), 0x01)\n        /* \"Utils/Ownable.sol\":2061:2083  newOwner != address(0) */\n      dup2\n      and\n        /* \"Utils/Ownable.sol\":2053:2126  require(newOwner != address(0), \"Ownable: new owner is the zero address\") */\n      tag_362\n      jumpi\n      mload(0x40)\n      shl(0xe5, 0x461bcd)\n      dup2\n      mstore\n        /* \"#utility.yul\":6407:6409   */\n      0x20\n        /* \"Utils/Ownable.sol\":2053:2126  require(newOwner != address(0), \"Ownable: new owner is the zero address\") */\n      0x04\n      dup3\n      add\n        /* \"#utility.yul\":6389:6410   */\n      mstore\n        /* \"#utility.yul\":6446:6448   */\n      0x26\n        /* \"#utility.yul\":6426:6444   */\n      0x24\n      dup3\n      add\n        /* \"#utility.yul\":6419:6449   */\n      mstore\n        /* \"#utility.yul\":6485:6519   */\n      0x4f776e61626c653a206e6577206f776e657220697320746865207a65726f2061\n        /* \"#utility.yul\":6465:6483   */\n      0x44\n      dup3\n      add\n        /* \"#utility.yul\":6458:6520   */\n      mstore\n      shl(0xd0, 0x646472657373)\n        /* \"#utility.yul\":6536:6554   */\n      0x64\n      dup3\n      add\n        /* \"#utility.yul\":6529:6565   */\n      mstore\n        /* \"#utility.yul\":6582:6601   */\n      0x84\n      add\n        /* \"Utils/Ownable.sol\":2053:2126  require(newOwner != address(0), \"Ownable: new owner is the zero address\") */\n      tag_129\n        /* \"#utility.yul\":6379:6607   */\n      jump\n        /* \"Utils/Ownable.sol\":2053:2126  require(newOwner != address(0), \"Ownable: new owner is the zero address\") */\n    tag_362:\n        /* \"Utils/Ownable.sol\":2137:2165  _transferOwnership(newOwner) */\n      tag_136\n        /* \"Utils/Ownable.sol\":2156:2164  newOwner */\n      dup2\n        /* \"Utils/Ownable.sol\":2137:2155  _transferOwnership */\n      tag_133\n        /* \"Utils/Ownable.sol\":2137:2165  _transferOwnership(newOwner) */\n      jump\t// in\n        /* \"Utils/EnumerableSet.sol\":8259:8411  function add(AddressSet storage set, address value) internal returns (bool) {\r... */\n    tag_118:\n        /* \"Utils/EnumerableSet.sol\":8329:8333  bool */\n      0x00\n        /* \"Utils/EnumerableSet.sol\":8353:8403  _add(set._inner, bytes32(uint256(uint160(value)))) */\n      tag_368\n        /* \"Utils/EnumerableSet.sol\":8358:8361  set */\n      dup4\n      sub(shl(0xa0, 0x01), 0x01)\n        /* \"Utils/EnumerableSet.sol\":8378:8401  uint256(uint160(value)) */\n      dup5\n      and\n        /* \"Utils/EnumerableSet.sol\":8353:8357  _add */\n      tag_369\n        /* \"Utils/EnumerableSet.sol\":8353:8403  _add(set._inner, bytes32(uint256(uint160(value)))) */\n      jump\t// in\n    tag_368:\n        /* \"Utils/EnumerableSet.sol\":8346:8403  return _add(set._inner, bytes32(uint256(uint160(value)))) */\n      swap1\n      pop\n        /* \"Utils/EnumerableSet.sol\":8259:8411  function add(AddressSet storage set, address value) internal returns (bool) {\r... */\n    tag_367:\n      swap3\n      swap2\n      pop\n      pop\n      jump\t// out\n        /* \"Utils/Ownable.sol\":2333:2524  function _transferOwnership(address newOwner) internal virtual {\r... */\n    tag_133:\n        /* \"Utils/Ownable.sol\":2426:2432  _owner */\n      0x01\n      dup1\n      sload\n      sub(shl(0xa0, 0x01), 0x01)\n        /* \"Utils/Ownable.sol\":2443:2460  _owner = newOwner */\n      dup4\n      dup2\n      and\n      not(sub(shl(0xa0, 0x01), 0x01))\n      dup4\n      and\n      dup2\n      or\n      swap1\n      swap4\n      sstore\n        /* \"Utils/Ownable.sol\":2476:2516  OwnershipTransferred(oldOwner, newOwner) */\n      mload(0x40)\n        /* \"Utils/Ownable.sol\":2426:2432  _owner */\n      swap2\n      and\n      swap2\n        /* \"Utils/Ownable.sol\":2443:2460  _owner = newOwner */\n      swap1\n        /* \"Utils/Ownable.sol\":2426:2432  _owner */\n      dup3\n      swap1\n        /* \"Utils/Ownable.sol\":2476:2516  OwnershipTransferred(oldOwner, newOwner) */\n      0x8be0079c531659141344cd1fd0a4f28419497f9722a3daafe3b4186f6b6457e0\n      swap1\n        /* \"Utils/Ownable.sol\":2407:2423  address oldOwner */\n      0x00\n      swap1\n        /* \"Utils/Ownable.sol\":2476:2516  OwnershipTransferred(oldOwner, newOwner) */\n      log3\n        /* \"Utils/Ownable.sol\":2396:2524  {\r... */\n      pop\n        /* \"Utils/Ownable.sol\":2333:2524  function _transferOwnership(address newOwner) internal virtual {\r... */\n      pop\n      jump\t// out\n        /* \"Utils/SafeMath.sol\":3585:3683  function mul(uint256 a, uint256 b) internal pure returns (uint256) {\r... */\n    tag_221:\n        /* \"Utils/SafeMath.sol\":3643:3650  uint256 */\n      0x00\n        /* \"Utils/SafeMath.sol\":3670:3675  a * b */\n      tag_368\n        /* \"Utils/SafeMath.sol\":3674:3675  b */\n      dup3\n        /* \"Utils/SafeMath.sol\":3670:3671  a */\n      dup5\n        /* \"Utils/SafeMath.sol\":3670:3675  a * b */\n      tag_180\n      jump\t// in\n        /* \"Utils/SafeMath.sol\":3228:3326  function sub(uint256 a, uint256 b) internal pure returns (uint256) {\r... */\n    tag_243:\n        /* \"Utils/SafeMath.sol\":3286:3293  uint256 */\n      0x00\n        /* \"Utils/SafeMath.sol\":3313:3318  a - b */\n      tag_368\n        /* \"Utils/SafeMath.sol\":3317:3318  b */\n      dup3\n        /* \"Utils/SafeMath.sol\":3313:3314  a */\n      dup5\n        /* \"Utils/SafeMath.sol\":3313:3318  a - b */\n      tag_233\n      jump\t// in\n        /* \"Utils/SafeMath.sol\":3984:4082  function div(uint256 a, uint256 b) internal pure returns (uint256) {\r... */\n    tag_244:\n        /* \"Utils/SafeMath.sol\":4042:4049  uint256 */\n      0x00\n        /* \"Utils/SafeMath.sol\":4069:4074  a / b */\n      tag_368\n        /* \"Utils/SafeMath.sol\":4073:4074  b */\n      dup3\n        /* \"Utils/SafeMath.sol\":4069:4070  a */\n      dup5\n        /* \"Utils/SafeMath.sol\":4069:4074  a / b */\n      tag_223\n      jump\t// in\n        /* \"Utils/TransferHelper.sol\":1073:1503  function safeTransferFrom(\r... */\n    tag_326:\n        /* \"Utils/TransferHelper.sol\":1279:1330  abi.encodeWithSelector(0x23b872dd, from, to, value) */\n      0x40\n      dup1\n      mload\n      sub(shl(0xa0, 0x01), 0x01)\n        /* \"#utility.yul\":4679:4694   */\n      dup6\n      dup2\n      and\n        /* \"Utils/TransferHelper.sol\":1279:1330  abi.encodeWithSelector(0x23b872dd, from, to, value) */\n      0x24\n      dup4\n      add\n        /* \"#utility.yul\":4661:4695   */\n      mstore\n        /* \"#utility.yul\":4731:4746   */\n      dup5\n      dup2\n      and\n        /* \"#utility.yul\":4711:4729   */\n      0x44\n      dup4\n      add\n        /* \"#utility.yul\":4704:4747   */\n      mstore\n        /* \"#utility.yul\":4763:4781   */\n      0x64\n      dup1\n      dup4\n      add\n        /* \"#utility.yul\":4756:4790   */\n      dup6\n      swap1\n      mstore\n        /* \"Utils/TransferHelper.sol\":1279:1330  abi.encodeWithSelector(0x23b872dd, from, to, value) */\n      dup4\n      mload\n      dup1\n      dup5\n      sub\n      swap1\n      swap2\n      add\n      dup2\n      mstore\n        /* \"#utility.yul\":4596:4614   */\n      0x84\n      swap1\n      swap3\n      add\n        /* \"Utils/TransferHelper.sol\":1279:1330  abi.encodeWithSelector(0x23b872dd, from, to, value) */\n      dup4\n      mstore\n      0x20\n      dup3\n      add\n      dup1\n      mload\n      sub(shl(0xe0, 0x01), 0x01)\n      and\n      shl(0xe0, 0x23b872dd)\n      or\n      swap1\n      mstore\n        /* \"Utils/TransferHelper.sol\":1254:1341  token.call(\r... */\n      swap2\n      mload\n      0x00\n      swap3\n      dup4\n      swap3\n        /* \"Utils/TransferHelper.sol\":1254:1264  token.call */\n      swap1\n      dup9\n      and\n      swap2\n        /* \"Utils/TransferHelper.sol\":1254:1341  token.call(\r... */\n      tag_381\n      swap2\n        /* \"Utils/TransferHelper.sol\":1279:1330  abi.encodeWithSelector(0x23b872dd, from, to, value) */\n      swap1\n        /* \"Utils/TransferHelper.sol\":1254:1341  token.call(\r... */\n      tag_382\n      jump\t// in\n    tag_381:\n      0x00\n      mload(0x40)\n      dup1\n      dup4\n      sub\n      dup2\n      0x00\n      dup7\n      gas\n      call\n      swap2\n      pop\n      pop\n      returndatasize\n      dup1\n      0x00\n      dup2\n      eq\n      tag_385\n      jumpi\n      mload(0x40)\n      swap2\n      pop\n      and(add(returndatasize, 0x3f), not(0x1f))\n      dup3\n      add\n      0x40\n      mstore\n      returndatasize\n      dup3\n      mstore\n      returndatasize\n      0x00\n      0x20\n      dup5\n      add\n      returndatacopy\n      jump(tag_384)\n    tag_385:\n      0x60\n      swap2\n      pop\n    tag_384:\n      pop\n        /* \"Utils/TransferHelper.sol\":1218:1341  (bool success, bytes memory data) = token.call(\r... */\n      swap2\n      pop\n      swap2\n      pop\n        /* \"Utils/TransferHelper.sol\":1374:1381  success */\n      dup2\n        /* \"Utils/TransferHelper.sol\":1374:1431  success && (data.length == 0 || abi.decode(data, (bool))) */\n      dup1\n      iszero\n      tag_388\n      jumpi\n      pop\n        /* \"Utils/TransferHelper.sol\":1386:1397  data.length */\n      dup1\n      mload\n        /* \"Utils/TransferHelper.sol\":1386:1402  data.length == 0 */\n      iszero\n      dup1\n        /* \"Utils/TransferHelper.sol\":1386:1430  data.length == 0 || abi.decode(data, (bool)) */\n      tag_388\n      jumpi\n      pop\n        /* \"Utils/TransferHelper.sol\":1417:1421  data */\n      dup1\n        /* \"Utils/TransferHelper.sol\":1406:1430  abi.decode(data, (bool)) */\n      dup1\n      0x20\n      add\n      swap1\n      mload\n      dup2\n      add\n      swap1\n      tag_388\n      swap2\n      swap1\n      tag_166\n      jump\t// in\n    tag_388:\n        /* \"Utils/TransferHelper.sol\":1352:1495  require(\r... */\n      tag_389\n      jumpi\n      mload(0x40)\n      shl(0xe5, 0x461bcd)\n      dup2\n      mstore\n        /* \"#utility.yul\":9721:9723   */\n      0x20\n        /* \"Utils/TransferHelper.sol\":1352:1495  require(\r... */\n      0x04\n      dup3\n      add\n        /* \"#utility.yul\":9703:9724   */\n      mstore\n        /* \"#utility.yul\":9760:9762   */\n      0x24\n        /* \"#utility.yul\":9740:9758   */\n      dup1\n      dup3\n      add\n        /* \"#utility.yul\":9733:9763   */\n      mstore\n        /* \"#utility.yul\":9799:9833   */\n      0x5472616e7366657248656c7065723a205452414e534645525f46524f4d5f4641\n        /* \"#utility.yul\":9779:9797   */\n      0x44\n      dup3\n      add\n        /* \"#utility.yul\":9772:9834   */\n      mstore\n      shl(0xe2, 0x12531151)\n        /* \"#utility.yul\":9850:9868   */\n      0x64\n      dup3\n      add\n        /* \"#utility.yul\":9843:9877   */\n      mstore\n        /* \"#utility.yul\":9894:9913   */\n      0x84\n      add\n        /* \"Utils/TransferHelper.sol\":1352:1495  require(\r... */\n      tag_129\n        /* \"#utility.yul\":9693:9919   */\n      jump\n        /* \"Utils/TransferHelper.sol\":1352:1495  require(\r... */\n    tag_389:\n        /* \"Utils/TransferHelper.sol\":1207:1503  {\r... */\n      pop\n      pop\n        /* \"Utils/TransferHelper.sol\":1073:1503  function safeTransferFrom(\r... */\n      pop\n      pop\n      pop\n      pop\n      jump\t// out\n        /* \"Utils/EnumerableSet.sol\":8831:8998  function contains(AddressSet storage set, address value) internal view returns (bool) {\r... */\n    tag_330:\n      sub(shl(0xa0, 0x01), 0x01)\n        /* \"Utils/EnumerableSet.sol\":8965:8988  uint256(uint160(value)) */\n      dup2\n      and\n        /* \"Utils/EnumerableSet.sol\":8911:8915  bool */\n      0x00\n        /* \"Utils/EnumerableSet.sol\":4367:4386  set._indexes[value] */\n      swap1\n      dup2\n      mstore\n        /* \"Utils/EnumerableSet.sol\":4367:4379  set._indexes */\n      0x01\n      dup4\n      add\n        /* \"Utils/EnumerableSet.sol\":4367:4386  set._indexes[value] */\n      0x20\n      mstore\n      0x40\n      dup2\n      keccak256\n      sload\n        /* \"Utils/EnumerableSet.sol\":4367:4391  set._indexes[value] != 0 */\n      iszero\n      iszero\n        /* \"Utils/EnumerableSet.sol\":8935:8990  _contains(set._inner, bytes32(uint256(uint160(value)))) */\n      tag_368\n        /* \"Utils/EnumerableSet.sol\":4270:4399  function _contains(Set storage set, bytes32 value) private view returns (bool) {\r... */\n      jump\n        /* \"Utils/EnumerableSet.sol\":2174:2588  function _add(Set storage set, bytes32 value) private returns (bool) {\r... */\n    tag_369:\n        /* \"Utils/EnumerableSet.sol\":2237:2241  bool */\n      0x00\n        /* \"Utils/EnumerableSet.sol\":4367:4386  set._indexes[value] */\n      dup2\n      dup2\n      mstore\n        /* \"Utils/EnumerableSet.sol\":4367:4379  set._indexes */\n      0x01\n      dup4\n      add\n        /* \"Utils/EnumerableSet.sol\":4367:4386  set._indexes[value] */\n      0x20\n      mstore\n      0x40\n      dup2\n      keccak256\n      sload\n        /* \"Utils/EnumerableSet.sol\":2254:2581  if (!_contains(set, value)) {\r... */\n      tag_397\n      jumpi\n      pop\n        /* \"Utils/EnumerableSet.sol\":2297:2320  set._values.push(value) */\n      dup2\n      sload\n      0x01\n      dup2\n      dup2\n      add\n      dup5\n      sstore\n        /* \"Utils/EnumerableSet.sol\":2297:2308  set._values */\n      0x00\n        /* \"Utils/EnumerableSet.sol\":2297:2320  set._values.push(value) */\n      dup5\n      dup2\n      mstore\n      0x20\n      dup1\n      dup3\n      keccak256\n      swap1\n      swap4\n      add\n      dup5\n      swap1\n      sstore\n        /* \"Utils/EnumerableSet.sol\":2480:2498  set._values.length */\n      dup5\n      sload\n        /* \"Utils/EnumerableSet.sol\":2458:2477  set._indexes[value] */\n      dup5\n      dup3\n      mstore\n        /* \"Utils/EnumerableSet.sol\":2458:2470  set._indexes */\n      dup3\n      dup7\n      add\n        /* \"Utils/EnumerableSet.sol\":2458:2477  set._indexes[value] */\n      swap1\n      swap4\n      mstore\n      0x40\n      swap1\n      keccak256\n        /* \"Utils/EnumerableSet.sol\":2458:2498  set._indexes[value] = set._values.length */\n      swap2\n      swap1\n      swap2\n      sstore\n        /* \"Utils/EnumerableSet.sol\":2513:2524  return true */\n      jump(tag_367)\n        /* \"Utils/EnumerableSet.sol\":2254:2581  if (!_contains(set, value)) {\r... */\n    tag_397:\n      pop\n        /* \"Utils/EnumerableSet.sol\":2564:2569  false */\n      0x00\n        /* \"Utils/EnumerableSet.sol\":2557:2569  return false */\n      jump(tag_367)\n        /* \"#utility.yul\":14:261   */\n    tag_52:\n        /* \"#utility.yul\":73:79   */\n      0x00\n        /* \"#utility.yul\":126:128   */\n      0x20\n        /* \"#utility.yul\":114:123   */\n      dup3\n        /* \"#utility.yul\":105:112   */\n      dup5\n        /* \"#utility.yul\":101:124   */\n      sub\n        /* \"#utility.yul\":97:129   */\n      slt\n        /* \"#utility.yul\":94:96   */\n      iszero\n      tag_403\n      jumpi\n        /* \"#utility.yul\":142:143   */\n      0x00\n        /* \"#utility.yul\":139:140   */\n      dup1\n        /* \"#utility.yul\":132:144   */\n      revert\n        /* \"#utility.yul\":94:96   */\n    tag_403:\n        /* \"#utility.yul\":181:190   */\n      dup2\n        /* \"#utility.yul\":168:191   */\n      calldataload\n        /* \"#utility.yul\":200:231   */\n      tag_404\n        /* \"#utility.yul\":225:230   */\n      dup2\n        /* \"#utility.yul\":200:231   */\n      tag_405\n      jump\t// in\n    tag_404:\n        /* \"#utility.yul\":250:255   */\n      swap4\n        /* \"#utility.yul\":84:261   */\n      swap3\n      pop\n      pop\n      pop\n      jump\t// out\n        /* \"#utility.yul\":266:1527   */\n    tag_71:\n        /* \"#utility.yul\":409:415   */\n      0x00\n        /* \"#utility.yul\":417:423   */\n      dup1\n        /* \"#utility.yul\":425:431   */\n      0x00\n        /* \"#utility.yul\":433:439   */\n      dup1\n        /* \"#utility.yul\":464:467   */\n      0x0180\n        /* \"#utility.yul\":508:510   */\n      dup1\n        /* \"#utility.yul\":496:505   */\n      dup7\n        /* \"#utility.yul\":487:494   */\n      dup9\n        /* \"#utility.yul\":483:506   */\n      sub\n        /* \"#utility.yul\":479:511   */\n      slt\n        /* \"#utility.yul\":476:478   */\n      iszero\n      tag_407\n      jumpi\n        /* \"#utility.yul\":524:525   */\n      0x00\n        /* \"#utility.yul\":521:522   */\n      dup1\n        /* \"#utility.yul\":514:526   */\n      revert\n        /* \"#utility.yul\":476:478   */\n    tag_407:\n        /* \"#utility.yul\":563:572   */\n      dup6\n        /* \"#utility.yul\":550:573   */\n      calldataload\n        /* \"#utility.yul\":582:613   */\n      tag_408\n        /* \"#utility.yul\":607:612   */\n      dup2\n        /* \"#utility.yul\":582:613   */\n      tag_405\n      jump\t// in\n    tag_408:\n        /* \"#utility.yul\":632:637   */\n      swap5\n      pop\n        /* \"#utility.yul\":656:658   */\n      0x20\n        /* \"#utility.yul\":695:713   */\n      dup7\n      dup2\n      add\n        /* \"#utility.yul\":682:714   */\n      calldataload\n        /* \"#utility.yul\":723:756   */\n      tag_409\n        /* \"#utility.yul\":682:714   */\n      dup2\n        /* \"#utility.yul\":723:756   */\n      tag_405\n      jump\t// in\n    tag_409:\n        /* \"#utility.yul\":775:782   */\n      swap5\n      pop\n        /* \"#utility.yul\":834:836   */\n      0x40\n        /* \"#utility.yul\":819:837   */\n      dup8\n      add\n        /* \"#utility.yul\":806:838   */\n      calldataload\n        /* \"#utility.yul\":847:880   */\n      tag_410\n        /* \"#utility.yul\":806:838   */\n      dup2\n        /* \"#utility.yul\":847:880   */\n      tag_405\n      jump\t// in\n    tag_410:\n        /* \"#utility.yul\":899:906   */\n      swap4\n      pop\n        /* \"#utility.yul\":944:947   */\n      0x7f\n        /* \"#utility.yul\":929:948   */\n      dup8\n      add\n        /* \"#utility.yul\":925:958   */\n      dup9\n      sgt\n        /* \"#utility.yul\":915:917   */\n      tag_411\n      jumpi\n        /* \"#utility.yul\":972:973   */\n      0x00\n        /* \"#utility.yul\":969:970   */\n      dup1\n        /* \"#utility.yul\":962:974   */\n      revert\n        /* \"#utility.yul\":915:917   */\n    tag_411:\n        /* \"#utility.yul\":1005:1007   */\n      0x40\n        /* \"#utility.yul\":999:1008   */\n      mload\n        /* \"#utility.yul\":1047:1050   */\n      0x0120\n        /* \"#utility.yul\":1039:1045   */\n      dup2\n        /* \"#utility.yul\":1035:1051   */\n      add\n        /* \"#utility.yul\":1117:1123   */\n      dup2\n        /* \"#utility.yul\":1105:1115   */\n      dup2\n        /* \"#utility.yul\":1102:1124   */\n      lt\n        /* \"#utility.yul\":1081:1099   */\n      0xffffffffffffffff\n        /* \"#utility.yul\":1069:1079   */\n      dup3\n        /* \"#utility.yul\":1066:1100   */\n      gt\n        /* \"#utility.yul\":1063:1125   */\n      or\n        /* \"#utility.yul\":1060:1062   */\n      iszero\n      tag_413\n      jumpi\n        /* \"#utility.yul\":1128:1146   */\n      tag_413\n      tag_414\n      jump\t// in\n    tag_413:\n        /* \"#utility.yul\":1164:1166   */\n      0x40\n        /* \"#utility.yul\":1157:1179   */\n      mstore\n        /* \"#utility.yul\":1199:1205   */\n      dup1\n        /* \"#utility.yul\":1240:1242   */\n      0x60\n        /* \"#utility.yul\":1225:1243   */\n      dup10\n      add\n        /* \"#utility.yul\":1258:1276   */\n      dup5\n      dup11\n      add\n        /* \"#utility.yul\":1255:1286   */\n      dup12\n      lt\n        /* \"#utility.yul\":1252:1254   */\n      iszero\n      tag_415\n      jumpi\n        /* \"#utility.yul\":1299:1300   */\n      0x00\n        /* \"#utility.yul\":1296:1297   */\n      dup1\n        /* \"#utility.yul\":1289:1301   */\n      revert\n        /* \"#utility.yul\":1252:1254   */\n    tag_415:\n        /* \"#utility.yul\":1321:1322   */\n      0x00\n        /* \"#utility.yul\":1312:1322   */\n      swap5\n      pop\n        /* \"#utility.yul\":1331:1496   */\n    tag_416:\n        /* \"#utility.yul\":1345:1349   */\n      0x09\n        /* \"#utility.yul\":1342:1343   */\n      dup6\n        /* \"#utility.yul\":1339:1350   */\n      lt\n        /* \"#utility.yul\":1331:1496   */\n      iszero\n      tag_418\n      jumpi\n        /* \"#utility.yul\":1404:1421   */\n      dup1\n      calldataload\n        /* \"#utility.yul\":1392:1422   */\n      dup3\n      mstore\n        /* \"#utility.yul\":1365:1366   */\n      0x01\n        /* \"#utility.yul\":1358:1367   */\n      swap5\n      swap1\n      swap5\n      add\n      swap4\n        /* \"#utility.yul\":1442:1454   */\n      swap1\n      dup4\n      add\n      swap1\n        /* \"#utility.yul\":1474:1486   */\n      dup4\n      add\n        /* \"#utility.yul\":1331:1496   */\n      jump(tag_416)\n    tag_418:\n        /* \"#utility.yul\":1335:1338   */\n      pop\n      pop\n        /* \"#utility.yul\":1515:1521   */\n      dup1\n        /* \"#utility.yul\":1505:1521   */\n      swap4\n      pop\n      pop\n      pop\n      pop\n        /* \"#utility.yul\":444:1527   */\n      swap3\n      swap6\n      swap2\n      swap5\n      pop\n      swap3\n      pop\n      jump\t// out\n        /* \"#utility.yul\":1532:1773   */\n    tag_107:\n        /* \"#utility.yul\":1588:1594   */\n      0x00\n        /* \"#utility.yul\":1641:1643   */\n      0x20\n        /* \"#utility.yul\":1629:1638   */\n      dup3\n        /* \"#utility.yul\":1620:1627   */\n      dup5\n        /* \"#utility.yul\":1616:1639   */\n      sub\n        /* \"#utility.yul\":1612:1644   */\n      slt\n        /* \"#utility.yul\":1609:1611   */\n      iszero\n      tag_420\n      jumpi\n        /* \"#utility.yul\":1657:1658   */\n      0x00\n        /* \"#utility.yul\":1654:1655   */\n      dup1\n        /* \"#utility.yul\":1647:1659   */\n      revert\n        /* \"#utility.yul\":1609:1611   */\n    tag_420:\n        /* \"#utility.yul\":1696:1705   */\n      dup2\n        /* \"#utility.yul\":1683:1706   */\n      calldataload\n        /* \"#utility.yul\":1715:1743   */\n      tag_404\n        /* \"#utility.yul\":1737:1742   */\n      dup2\n        /* \"#utility.yul\":1715:1743   */\n      tag_422\n      jump\t// in\n        /* \"#utility.yul\":1778:2023   */\n    tag_166:\n        /* \"#utility.yul\":1845:1851   */\n      0x00\n        /* \"#utility.yul\":1898:1900   */\n      0x20\n        /* \"#utility.yul\":1886:1895   */\n      dup3\n        /* \"#utility.yul\":1877:1884   */\n      dup5\n        /* \"#utility.yul\":1873:1896   */\n      sub\n        /* \"#utility.yul\":1869:1901   */\n      slt\n        /* \"#utility.yul\":1866:1868   */\n      iszero\n      tag_424\n      jumpi\n        /* \"#utility.yul\":1914:1915   */\n      0x00\n        /* \"#utility.yul\":1911:1912   */\n      dup1\n        /* \"#utility.yul\":1904:1916   */\n      revert\n        /* \"#utility.yul\":1866:1868   */\n    tag_424:\n        /* \"#utility.yul\":1946:1955   */\n      dup2\n        /* \"#utility.yul\":1940:1956   */\n      mload\n        /* \"#utility.yul\":1965:1993   */\n      tag_404\n        /* \"#utility.yul\":1987:1992   */\n      dup2\n        /* \"#utility.yul\":1965:1993   */\n      tag_422\n      jump\t// in\n        /* \"#utility.yul\":2028:2208   */\n    tag_91:\n        /* \"#utility.yul\":2087:2093   */\n      0x00\n        /* \"#utility.yul\":2140:2142   */\n      0x20\n        /* \"#utility.yul\":2128:2137   */\n      dup3\n        /* \"#utility.yul\":2119:2126   */\n      dup5\n        /* \"#utility.yul\":2115:2138   */\n      sub\n        /* \"#utility.yul\":2111:2143   */\n      slt\n        /* \"#utility.yul\":2108:2110   */\n      iszero\n      tag_427\n      jumpi\n        /* \"#utility.yul\":2156:2157   */\n      0x00\n        /* \"#utility.yul\":2153:2154   */\n      dup1\n        /* \"#utility.yul\":2146:2158   */\n      revert\n        /* \"#utility.yul\":2108:2110   */\n    tag_427:\n      pop\n        /* \"#utility.yul\":2179:2202   */\n      calldataload\n      swap2\n        /* \"#utility.yul\":2098:2208   */\n      swap1\n      pop\n      jump\t// out\n        /* \"#utility.yul\":2213:2397   */\n    tag_159:\n        /* \"#utility.yul\":2283:2289   */\n      0x00\n        /* \"#utility.yul\":2336:2338   */\n      0x20\n        /* \"#utility.yul\":2324:2333   */\n      dup3\n        /* \"#utility.yul\":2315:2322   */\n      dup5\n        /* \"#utility.yul\":2311:2334   */\n      sub\n        /* \"#utility.yul\":2307:2339   */\n      slt\n        /* \"#utility.yul\":2304:2306   */\n      iszero\n      tag_429\n      jumpi\n        /* \"#utility.yul\":2352:2353   */\n      0x00\n        /* \"#utility.yul\":2349:2350   */\n      dup1\n        /* \"#utility.yul\":2342:2354   */\n      revert\n        /* \"#utility.yul\":2304:2306   */\n    tag_429:\n      pop\n        /* \"#utility.yul\":2375:2391   */\n      mload\n      swap2\n        /* \"#utility.yul\":2294:2397   */\n      swap1\n      pop\n      jump\t// out\n        /* \"#utility.yul\":2402:2828   */\n    tag_382:\n        /* \"#utility.yul\":2531:2534   */\n      0x00\n        /* \"#utility.yul\":2569:2575   */\n      dup3\n        /* \"#utility.yul\":2563:2576   */\n      mload\n        /* \"#utility.yul\":2594:2595   */\n      0x00\n        /* \"#utility.yul\":2604:2733   */\n    tag_431:\n        /* \"#utility.yul\":2618:2624   */\n      dup2\n        /* \"#utility.yul\":2615:2616   */\n      dup2\n        /* \"#utility.yul\":2612:2625   */\n      lt\n        /* \"#utility.yul\":2604:2733   */\n      iszero\n      tag_433\n      jumpi\n        /* \"#utility.yul\":2716:2720   */\n      0x20\n        /* \"#utility.yul\":2700:2714   */\n      dup2\n      dup7\n      add\n        /* \"#utility.yul\":2696:2721   */\n      dup2\n      add\n        /* \"#utility.yul\":2690:2722   */\n      mload\n        /* \"#utility.yul\":2677:2688   */\n      dup6\n      dup4\n      add\n        /* \"#utility.yul\":2670:2723   */\n      mstore\n        /* \"#utility.yul\":2633:2645   */\n      add\n        /* \"#utility.yul\":2604:2733   */\n      jump(tag_431)\n    tag_433:\n        /* \"#utility.yul\":2751:2757   */\n      dup2\n        /* \"#utility.yul\":2748:2749   */\n      dup2\n        /* \"#utility.yul\":2745:2758   */\n      gt\n        /* \"#utility.yul\":2742:2744   */\n      iszero\n      tag_434\n      jumpi\n        /* \"#utility.yul\":2786:2787   */\n      0x00\n        /* \"#utility.yul\":2777:2783   */\n      dup3\n        /* \"#utility.yul\":2772:2775   */\n      dup6\n        /* \"#utility.yul\":2768:2784   */\n      add\n        /* \"#utility.yul\":2761:2788   */\n      mstore\n        /* \"#utility.yul\":2742:2744   */\n    tag_434:\n      pop\n        /* \"#utility.yul\":2806:2822   */\n      swap2\n      swap1\n      swap2\n      add\n      swap3\n        /* \"#utility.yul\":2539:2828   */\n      swap2\n      pop\n      pop\n      jump\t// out\n        /* \"#utility.yul\":5849:6200   */\n    tag_236:\n        /* \"#utility.yul\":6051:6053   */\n      0x20\n        /* \"#utility.yul\":6033:6054   */\n      dup1\n      dup3\n      mstore\n        /* \"#utility.yul\":6090:6092   */\n      0x1b\n        /* \"#utility.yul\":6070:6088   */\n      swap1\n      dup3\n      add\n        /* \"#utility.yul\":6063:6093   */\n      mstore\n        /* \"#utility.yul\":6129:6158   */\n      0x416c6c20746f6b656e20686173206265656e2077697468647261770000000000\n        /* \"#utility.yul\":6124:6126   */\n      0x40\n        /* \"#utility.yul\":6109:6127   */\n      dup3\n      add\n        /* \"#utility.yul\":6102:6159   */\n      mstore\n        /* \"#utility.yul\":6191:6193   */\n      0x60\n        /* \"#utility.yul\":6176:6194   */\n      add\n      swap1\n        /* \"#utility.yul\":6023:6200   */\n      jump\t// out\n        /* \"#utility.yul\":6971:7372   */\n    tag_239:\n        /* \"#utility.yul\":7173:7175   */\n      0x20\n        /* \"#utility.yul\":7155:7176   */\n      dup1\n      dup3\n      mstore\n        /* \"#utility.yul\":7212:7214   */\n      0x25\n        /* \"#utility.yul\":7192:7210   */\n      swap1\n      dup3\n      add\n        /* \"#utility.yul\":7185:7215   */\n      mstore\n        /* \"#utility.yul\":7251:7285   */\n      0x596f7520726566756e6420616c6c206f722068617665206e6f7420626f756768\n        /* \"#utility.yul\":7246:7248   */\n      0x40\n        /* \"#utility.yul\":7231:7249   */\n      dup3\n      add\n        /* \"#utility.yul\":7224:7286   */\n      mstore\n      shl(0xda, 0x1d081e595d)\n        /* \"#utility.yul\":7317:7319   */\n      0x60\n        /* \"#utility.yul\":7302:7320   */\n      dup3\n      add\n        /* \"#utility.yul\":7295:7330   */\n      mstore\n        /* \"#utility.yul\":7362:7365   */\n      0x80\n        /* \"#utility.yul\":7347:7366   */\n      add\n      swap1\n        /* \"#utility.yul\":7145:7372   */\n      jump\t// out\n        /* \"#utility.yul\":7720:8120   */\n    tag_263:\n        /* \"#utility.yul\":7922:7924   */\n      0x20\n        /* \"#utility.yul\":7904:7925   */\n      dup1\n      dup3\n      mstore\n        /* \"#utility.yul\":7961:7963   */\n      0x24\n        /* \"#utility.yul\":7941:7959   */\n      swap1\n      dup3\n      add\n        /* \"#utility.yul\":7934:7964   */\n      mstore\n        /* \"#utility.yul\":8000:8034   */\n      0x596f7520636c61696d20616c6c206f722068617665206e6f7420626f75676874\n        /* \"#utility.yul\":7995:7997   */\n      0x40\n        /* \"#utility.yul\":7980:7998   */\n      dup3\n      add\n        /* \"#utility.yul\":7973:8035   */\n      mstore\n      shl(0xe2, 0x081e595d)\n        /* \"#utility.yul\":8066:8068   */\n      0x60\n        /* \"#utility.yul\":8051:8069   */\n      dup3\n      add\n        /* \"#utility.yul\":8044:8078   */\n      mstore\n        /* \"#utility.yul\":8110:8113   */\n      0x80\n        /* \"#utility.yul\":8095:8114   */\n      add\n      swap1\n        /* \"#utility.yul\":7894:8120   */\n      jump\t// out\n        /* \"#utility.yul\":10282:10637   */\n    tag_146:\n        /* \"#utility.yul\":10484:10486   */\n      0x20\n        /* \"#utility.yul\":10466:10487   */\n      dup1\n      dup3\n      mstore\n        /* \"#utility.yul\":10523:10525   */\n      0x1f\n        /* \"#utility.yul\":10503:10521   */\n      swap1\n      dup3\n      add\n        /* \"#utility.yul\":10496:10526   */\n      mstore\n        /* \"#utility.yul\":10562:10595   */\n      0x5265656e7472616e637947756172643a207265656e7472616e742063616c6c00\n        /* \"#utility.yul\":10557:10559   */\n      0x40\n        /* \"#utility.yul\":10542:10560   */\n      dup3\n      add\n        /* \"#utility.yul\":10535:10596   */\n      mstore\n        /* \"#utility.yul\":10628:10630   */\n      0x60\n        /* \"#utility.yul\":10613:10631   */\n      add\n      swap1\n        /* \"#utility.yul\":10456:10637   */\n      jump\t// out\n        /* \"#utility.yul\":12449:12577   */\n    tag_247:\n        /* \"#utility.yul\":12489:12492   */\n      0x00\n        /* \"#utility.yul\":12520:12521   */\n      dup3\n        /* \"#utility.yul\":12516:12522   */\n      not\n        /* \"#utility.yul\":12513:12514   */\n      dup3\n        /* \"#utility.yul\":12510:12523   */\n      gt\n        /* \"#utility.yul\":12507:12509   */\n      iszero\n      tag_463\n      jumpi\n        /* \"#utility.yul\":12526:12544   */\n      tag_463\n      tag_464\n      jump\t// in\n    tag_463:\n      pop\n        /* \"#utility.yul\":12562:12571   */\n      add\n      swap1\n        /* \"#utility.yul\":12497:12577   */\n      jump\t// out\n        /* \"#utility.yul\":12582:12799   */\n    tag_223:\n        /* \"#utility.yul\":12622:12623   */\n      0x00\n        /* \"#utility.yul\":12648:12649   */\n      dup3\n        /* \"#utility.yul\":12638:12640   */\n      tag_466\n      jumpi\n        /* \"#utility.yul\":12692:12702   */\n      0x4e487b71\n        /* \"#utility.yul\":12687:12690   */\n      0xe0\n        /* \"#utility.yul\":12683:12703   */\n      shl\n        /* \"#utility.yul\":12680:12681   */\n      0x00\n        /* \"#utility.yul\":12673:12704   */\n      mstore\n        /* \"#utility.yul\":12727:12731   */\n      0x12\n        /* \"#utility.yul\":12724:12725   */\n      0x04\n        /* \"#utility.yul\":12717:12732   */\n      mstore\n        /* \"#utility.yul\":12755:12759   */\n      0x24\n        /* \"#utility.yul\":12752:12753   */\n      0x00\n        /* \"#utility.yul\":12745:12760   */\n      revert\n        /* \"#utility.yul\":12638:12640   */\n    tag_466:\n      pop\n        /* \"#utility.yul\":12784:12793   */\n      div\n      swap1\n        /* \"#utility.yul\":12628:12799   */\n      jump\t// out\n        /* \"#utility.yul\":12804:13226   */\n    tag_467:\n        /* \"#utility.yul\":12893:12894   */\n      0x01\n        /* \"#utility.yul\":12936:12941   */\n      dup2\n        /* \"#utility.yul\":12893:12894   */\n      dup2\n        /* \"#utility.yul\":12950:13220   */\n    tag_469:\n        /* \"#utility.yul\":12971:12978   */\n      dup1\n        /* \"#utility.yul\":12961:12969   */\n      dup6\n        /* \"#utility.yul\":12958:12979   */\n      gt\n        /* \"#utility.yul\":12950:13220   */\n      iszero\n      tag_471\n      jumpi\n        /* \"#utility.yul\":13030:13034   */\n      dup2\n        /* \"#utility.yul\":13026:13027   */\n      0x00\n        /* \"#utility.yul\":13022:13028   */\n      not\n        /* \"#utility.yul\":13018:13035   */\n      div\n        /* \"#utility.yul\":13012:13016   */\n      dup3\n        /* \"#utility.yul\":13009:13036   */\n      gt\n        /* \"#utility.yul\":13006:13008   */\n      iszero\n      tag_473\n      jumpi\n        /* \"#utility.yul\":13039:13057   */\n      tag_473\n      tag_464\n      jump\t// in\n    tag_473:\n        /* \"#utility.yul\":13089:13096   */\n      dup1\n        /* \"#utility.yul\":13079:13087   */\n      dup6\n        /* \"#utility.yul\":13075:13097   */\n      and\n        /* \"#utility.yul\":13072:13074   */\n      iszero\n      tag_474\n      jumpi\n        /* \"#utility.yul\":13109:13125   */\n      swap2\n      dup2\n      mul\n      swap2\n        /* \"#utility.yul\":13072:13074   */\n    tag_474:\n        /* \"#utility.yul\":13188:13210   */\n      swap4\n      dup5\n      shr\n      swap4\n        /* \"#utility.yul\":13148:13163   */\n      swap1\n      dup1\n      mul\n      swap1\n        /* \"#utility.yul\":12950:13220   */\n      jump(tag_469)\n    tag_471:\n        /* \"#utility.yul\":12954:12957   */\n      pop\n        /* \"#utility.yul\":12868:13226   */\n      swap3\n      pop\n      swap3\n      swap1\n      pop\n      jump\t// out\n        /* \"#utility.yul\":13231:13362   */\n    tag_175:\n        /* \"#utility.yul\":13291:13296   */\n      0x00\n        /* \"#utility.yul\":13320:13356   */\n      tag_368\n        /* \"#utility.yul\":13347:13355   */\n      dup4\n        /* \"#utility.yul\":13341:13345   */\n      dup4\n        /* \"#utility.yul\":13416:13421   */\n      0x00\n        /* \"#utility.yul\":13446:13454   */\n      dup3\n        /* \"#utility.yul\":13436:13438   */\n      tag_479\n      jumpi\n      pop\n        /* \"#utility.yul\":13487:13488   */\n      0x01\n        /* \"#utility.yul\":13501:13506   */\n      jump(tag_367)\n        /* \"#utility.yul\":13436:13438   */\n    tag_479:\n        /* \"#utility.yul\":13535:13539   */\n      dup2\n        /* \"#utility.yul\":13525:13527   */\n      tag_480\n      jumpi\n      pop\n        /* \"#utility.yul\":13572:13573   */\n      0x00\n        /* \"#utility.yul\":13586:13591   */\n      jump(tag_367)\n        /* \"#utility.yul\":13525:13527   */\n    tag_480:\n        /* \"#utility.yul\":13617:13621   */\n      dup2\n        /* \"#utility.yul\":13635:13636   */\n      0x01\n        /* \"#utility.yul\":13630:13689   */\n      dup2\n      eq\n      tag_482\n      jumpi\n        /* \"#utility.yul\":13703:13704   */\n      0x02\n        /* \"#utility.yul\":13698:13828   */\n      dup2\n      eq\n      tag_483\n      jumpi\n        /* \"#utility.yul\":13610:13828   */\n      jump(tag_481)\n        /* \"#utility.yul\":13630:13689   */\n    tag_482:\n        /* \"#utility.yul\":13660:13661   */\n      0x01\n        /* \"#utility.yul\":13651:13661   */\n      swap2\n      pop\n        /* \"#utility.yul\":13674:13679   */\n      pop\n      jump(tag_367)\n        /* \"#utility.yul\":13698:13828   */\n    tag_483:\n        /* \"#utility.yul\":13735:13738   */\n      0xff\n        /* \"#utility.yul\":13725:13733   */\n      dup5\n        /* \"#utility.yul\":13722:13739   */\n      gt\n        /* \"#utility.yul\":13719:13721   */\n      iszero\n      tag_485\n      jumpi\n        /* \"#utility.yul\":13742:13760   */\n      tag_485\n      tag_464\n      jump\t// in\n    tag_485:\n      pop\n      pop\n        /* \"#utility.yul\":13798:13799   */\n      0x01\n        /* \"#utility.yul\":13784:13800   */\n      dup3\n      shl\n        /* \"#utility.yul\":13813:13818   */\n      jump(tag_367)\n        /* \"#utility.yul\":13610:13828   */\n    tag_481:\n      pop\n        /* \"#utility.yul\":13912:13914   */\n      0x20\n        /* \"#utility.yul\":13902:13910   */\n      dup4\n        /* \"#utility.yul\":13899:13915   */\n      lt\n        /* \"#utility.yul\":13893:13896   */\n      0x0133\n        /* \"#utility.yul\":13887:13891   */\n      dup4\n        /* \"#utility.yul\":13884:13897   */\n      lt\n        /* \"#utility.yul\":13880:13916   */\n      and\n        /* \"#utility.yul\":13874:13876   */\n      0x4e\n        /* \"#utility.yul\":13864:13872   */\n      dup5\n        /* \"#utility.yul\":13861:13877   */\n      lt\n        /* \"#utility.yul\":13856:13858   */\n      0x0b\n        /* \"#utility.yul\":13850:13854   */\n      dup5\n        /* \"#utility.yul\":13847:13859   */\n      lt\n        /* \"#utility.yul\":13843:13878   */\n      and\n        /* \"#utility.yul\":13840:13917   */\n      or\n        /* \"#utility.yul\":13837:13839   */\n      iszero\n      tag_486\n      jumpi\n      pop\n        /* \"#utility.yul\":13949:13968   */\n      dup2\n      dup2\n      exp\n        /* \"#utility.yul\":13981:13986   */\n      jump(tag_367)\n        /* \"#utility.yul\":13837:13839   */\n    tag_486:\n        /* \"#utility.yul\":14028:14062   */\n      tag_487\n        /* \"#utility.yul\":14053:14061   */\n      dup4\n        /* \"#utility.yul\":14047:14051   */\n      dup4\n        /* \"#utility.yul\":14028:14062   */\n      tag_467\n      jump\t// in\n    tag_487:\n        /* \"#utility.yul\":14098:14104   */\n      dup1\n        /* \"#utility.yul\":14094:14095   */\n      0x00\n        /* \"#utility.yul\":14090:14096   */\n      not\n        /* \"#utility.yul\":14086:14105   */\n      div\n        /* \"#utility.yul\":14077:14084   */\n      dup3\n        /* \"#utility.yul\":14074:14106   */\n      gt\n        /* \"#utility.yul\":14071:14073   */\n      iszero\n      tag_489\n      jumpi\n        /* \"#utility.yul\":14109:14127   */\n      tag_489\n      tag_464\n      jump\t// in\n    tag_489:\n        /* \"#utility.yul\":14147:14167   */\n      mul\n      swap4\n        /* \"#utility.yul\":13426:14173   */\n      swap3\n      pop\n      pop\n      pop\n      jump\t// out\n        /* \"#utility.yul\":14178:14346   */\n    tag_180:\n        /* \"#utility.yul\":14218:14225   */\n      0x00\n        /* \"#utility.yul\":14284:14285   */\n      dup2\n        /* \"#utility.yul\":14280:14281   */\n      0x00\n        /* \"#utility.yul\":14276:14282   */\n      not\n        /* \"#utility.yul\":14272:14286   */\n      div\n        /* \"#utility.yul\":14269:14270   */\n      dup4\n        /* \"#utility.yul\":14266:14287   */\n      gt\n        /* \"#utility.yul\":14261:14262   */\n      dup3\n        /* \"#utility.yul\":14254:14263   */\n      iszero\n        /* \"#utility.yul\":14247:14264   */\n      iszero\n        /* \"#utility.yul\":14243:14288   */\n      and\n        /* \"#utility.yul\":14240:14242   */\n      iszero\n      tag_492\n      jumpi\n        /* \"#utility.yul\":14291:14309   */\n      tag_492\n      tag_464\n      jump\t// in\n    tag_492:\n      pop\n        /* \"#utility.yul\":14331:14340   */\n      mul\n      swap1\n        /* \"#utility.yul\":14230:14346   */\n      jump\t// out\n        /* \"#utility.yul\":14351:14476   */\n    tag_233:\n        /* \"#utility.yul\":14391:14395   */\n      0x00\n        /* \"#utility.yul\":14419:14420   */\n      dup3\n        /* \"#utility.yul\":14416:14417   */\n      dup3\n        /* \"#utility.yul\":14413:14421   */\n      lt\n        /* \"#utility.yul\":14410:14412   */\n      iszero\n      tag_495\n      jumpi\n        /* \"#utility.yul\":14424:14442   */\n      tag_495\n      tag_464\n      jump\t// in\n    tag_495:\n      pop\n        /* \"#utility.yul\":14461:14470   */\n      sub\n      swap1\n        /* \"#utility.yul\":14400:14476   */\n      jump\t// out\n        /* \"#utility.yul\":14481:14616   */\n    tag_313:\n        /* \"#utility.yul\":14520:14523   */\n      0x00\n      not(0x00)\n        /* \"#utility.yul\":14541:14558   */\n      dup3\n      eq\n        /* \"#utility.yul\":14538:14540   */\n      iszero\n      tag_498\n      jumpi\n        /* \"#utility.yul\":14561:14579   */\n      tag_498\n      tag_464\n      jump\t// in\n    tag_498:\n      pop\n        /* \"#utility.yul\":14608:14609   */\n      0x01\n        /* \"#utility.yul\":14597:14610   */\n      add\n      swap1\n        /* \"#utility.yul\":14528:14616   */\n      jump\t// out\n        /* \"#utility.yul\":14621:14748   */\n    tag_464:\n        /* \"#utility.yul\":14682:14692   */\n      0x4e487b71\n        /* \"#utility.yul\":14677:14680   */\n      0xe0\n        /* \"#utility.yul\":14673:14693   */\n      shl\n        /* \"#utility.yul\":14670:14671   */\n      0x00\n        /* \"#utility.yul\":14663:14694   */\n      mstore\n        /* \"#utility.yul\":14713:14717   */\n      0x11\n        /* \"#utility.yul\":14710:14711   */\n      0x04\n        /* \"#utility.yul\":14703:14718   */\n      mstore\n        /* \"#utility.yul\":14737:14741   */\n      0x24\n        /* \"#utility.yul\":14734:14735   */\n      0x00\n        /* \"#utility.yul\":14727:14742   */\n      revert\n        /* \"#utility.yul\":14885:15012   */\n    tag_414:\n        /* \"#utility.yul\":14946:14956   */\n      0x4e487b71\n        /* \"#utility.yul\":14941:14944   */\n      0xe0\n        /* \"#utility.yul\":14937:14957   */\n      shl\n        /* \"#utility.yul\":14934:14935   */\n      0x00\n        /* \"#utility.yul\":14927:14958   */\n      mstore\n        /* \"#utility.yul\":14977:14981   */\n      0x41\n        /* \"#utility.yul\":14974:14975   */\n      0x04\n        /* \"#utility.yul\":14967:14982   */\n      mstore\n        /* \"#utility.yul\":15001:15005   */\n      0x24\n        /* \"#utility.yul\":14998:14999   */\n      0x00\n        /* \"#utility.yul\":14991:15006   */\n      revert\n        /* \"#utility.yul\":15017:15148   */\n    tag_405:\n      sub(shl(0xa0, 0x01), 0x01)\n        /* \"#utility.yul\":15092:15123   */\n      dup2\n      and\n        /* \"#utility.yul\":15082:15124   */\n      dup2\n      eq\n        /* \"#utility.yul\":15072:15074   */\n      tag_136\n      jumpi\n        /* \"#utility.yul\":15138:15139   */\n      0x00\n        /* \"#utility.yul\":15135:15136   */\n      dup1\n        /* \"#utility.yul\":15128:15140   */\n      revert\n        /* \"#utility.yul\":15153:15271   */\n    tag_422:\n        /* \"#utility.yul\":15239:15244   */\n      dup1\n        /* \"#utility.yul\":15232:15245   */\n      iszero\n        /* \"#utility.yul\":15225:15246   */\n      iszero\n        /* \"#utility.yul\":15218:15223   */\n      dup2\n        /* \"#utility.yul\":15215:15247   */\n      eq\n        /* \"#utility.yul\":15205:15207   */\n      tag_136\n      jumpi\n        /* \"#utility.yul\":15261:15262   */\n      0x00\n        /* \"#utility.yul\":15258:15259   */\n      dup1\n        /* \"#utility.yul\":15251:15263   */\n      revert\n\n    auxdata: 0xa2646970667358221220822b0d814c3e8f6632c0ee1d8aad0f8e1b1be2995c9090648530a1d8a893bcfd64736f6c63430008050033\n}\n",
				"bytecode": {
					"linkReferences": {},
					"object": "608060405260016000556200001433620000a5565b6019805473c778417e063141139fce010982780140aa0cd5ab6001600160a01b031990911617905562000069601b736ccb41eeda5a073076f3e7dc1614c185b5fa41ed620000f7602090811b620015a717901c565b5062000099734f0b12bbf40fc182559822a5b1db6d34dbc3e016601b620000f760201b620015a71790919060201c565b506014601a5562000169565b600180546001600160a01b038381166001600160a01b0319831681179093556040519116919082907f8be0079c531659141344cd1fd0a4f28419497f9722a3daafe3b4186f6b6457e090600090a35050565b60006200010e836001600160a01b03841662000117565b90505b92915050565b6000818152600183016020526040812054620001605750815460018181018455600084815260208082209093018490558454848252828601909352604090209190915562000111565b50600062000111565b611c5e80620001796000396000f3fe60806040526004361061012a5760003560e01c80638f1eae4c116100ab578063b6b55f251161006f578063b6b55f25146103e0578063cad5b0f7146103f3578063e2d3f42314610418578063eb002bb01461047c578063f2fde38b1461049c578063f8b2cb4f146104bc57600080fd5b80638f1eae4c1461030657806395661e7014610326578063ab33985a1461033b578063acfb235514610350578063ad5c4648146103c057600080fd5b806356c5f349116100f257806356c5f34914610273578063715018a6146102a0578063861faf5f146102b75780638da5cb5b146102bf5780638edf18e6146102f157600080fd5b806312e5d0b91461012f57806318856a2f146101645780631df4ccfc14610224578063200d2ed2146102485780633b5ef2ad1461025d575b600080fd5b34801561013b57600080fd5b50600b54600c5461014a919082565b604080519283526020830191909152015b60405180910390f35b34801561017057600080fd5b50600d54600e54600f546010546011546012546013546014546015546016546017546018546101b89b6001600160a01b039081169b81169a16989796959493929160ff16908c565b604080516001600160a01b039d8e1681529b8d1660208d015299909b16988a01989098526060890196909652608088019490945260a087019290925260c086015260e085015261010084015261012083015215156101408201526101608101919091526101800161015b565b34801561023057600080fd5b5061023a601d5481565b60405190815260200161015b565b34801561025457600080fd5b5061023a6104e4565b34801561026957600080fd5b5061023a601a5481565b34801561027f57600080fd5b5061023a61028e3660046117dc565b60036020526000908152604090205481565b3480156102ac57600080fd5b506102b561050d565b005b6102b5610578565b3480156102cb57600080fd5b506001546001600160a01b03165b6040516001600160a01b03909116815260200161015b565b3480156102fd57600080fd5b506102b56105a7565b34801561031257600080fd5b506102b5610321366004611800565b610832565b34801561033257600080fd5b506102b5610bad565b34801561034757600080fd5b506102b5610d1f565b34801561035c57600080fd5b5060045460055460065460075460085460095461038795949392919060ff8082169161010090041687565b6040805197885260208801969096529486019390935260608501919091526080840152151560a0830152151560c082015260e00161015b565b3480156103cc57600080fd5b506019546102d9906001600160a01b031681565b6102b56103ee3660046118ff565b610ee6565b3480156103ff57600080fd5b506104086112b5565b604051901515815260200161015b565b34801561042457600080fd5b5061045c6104333660046117dc565b600260208190526000918252604090912080546001820154928201546003909201549092919084565b60408051948552602085019390935291830152606082015260800161015b565b34801561048857600080fd5b506102b56104973660046118c5565b6112c7565b3480156104a857600080fd5b506102b56104b73660046117dc565b6114df565b3480156104c857600080fd5b5061023a6104d73660046117dc565b6001600160a01b03163190565b6011546000904210156104f75750600090565b6012544211156105075750600290565b50600190565b6001546001600160a01b0316331461056c5760405162461bcd60e51b815260206004820181905260248201527f4f776e61626c653a2063616c6c6572206973206e6f7420746865206f776e657260448201526064015b60405180910390fd5b61057660006115c5565b565b60405133904780156108fc02916000818181858888f193505050501580156105a4573d6000803e3d6000fd5b50565b600d546001600160a01b0316336001600160a01b0316146105ff5760405162461bcd60e51b815260206004820152601260248201527127b7363c90383932b9b0b6329037bbb732b960711b6044820152606401610563565b600260005414156106225760405162461bcd60e51b815260040161056390611a2c565b600260005560095460ff161561067a5760405162461bcd60e51b815260206004820152601d60248201527f4e6f7468696e6720666f72206f776e657220636c61696d20746f6b656e0000006044820152606401610563565b600954610100900460ff16156106d25760405162461bcd60e51b815260206004820152601e60248201527f4e6f7468696e6720666f72206f776e657220726566756e6420746f6b656e00006044820152606401610563565b600e546040516370a0823160e01b81523060048201526000916001600160a01b0316906370a082319060240160206040518083038186803b15801561071657600080fd5b505afa15801561072a573d6000803e3d6000fd5b505050506040513d601f19601f8201168201806040525081019061074e9190611918565b6009805460ff191660011790556000601855600e54600d5460405163a9059cbb60e01b81526001600160a01b03918216600482015260248101849052929350479291169063a9059cbb90604401602060405180830381600087803b1580156107b557600080fd5b505af11580156107c9573d6000803e3d6000fd5b505050506040513d601f19601f820116820180604052508101906107ed91906118e2565b50600d546040516001600160a01b039091169082156108fc029083906000818181858888f19350505050158015610828573d6000803e3d6000fd5b5050600160005550565b600d80546001600160a01b038087166001600160a01b031992831617909255600e80548684169083168117909155600f8054938616939092169290921790556040805163313ce56760e01b8152905163313ce56791600480820192602092909190829003018186803b1580156108a757600080fd5b505afa1580156108bb573d6000803e3d6000fd5b505050506040513d601f19601f820116820180604052508101906108df9190611918565b6108ea90600a611ae0565b81516108f69190611b88565b6010556020808201516011556040808301516012556060830151601355600f54815163313ce56760e01b815291516001600160a01b039091169263313ce5679260048082019391829003018186803b15801561095157600080fd5b505afa158015610965573d6000803e3d6000fd5b505050506040513d601f19601f820116820180604052508101906109899190611918565b61099490600a611ae0565b60808201516109a39190611b88565b60145560a081015160155560c0810151601655600f546040805163313ce56760e01b815290516001600160a01b039092169163313ce56791600480820192602092909190829003018186803b1580156109fb57600080fd5b505afa158015610a0f573d6000803e3d6000fd5b505050506040513d601f19601f82011682018060405250810190610a339190611918565b610a3e90600a611ae0565b60e0820151610a4d9190611b88565b600b55600f546040805163313ce56760e01b815290516001600160a01b039092169163313ce56791600480820192602092909190829003018186803b158015610a9557600080fd5b505afa158015610aa9573d6000803e3d6000fd5b505050506040513d601f19601f82011682018060405250810190610acd9190611918565b610ad890600a611ae0565b610100820151610ae89190611b88565b600c55600f546019546017805460ff19166001600160a01b0392831692909316918214929092179091556040805163313ce56760e01b8152905163313ce56791600480820192602092909190829003018186803b158015610b4857600080fd5b505afa158015610b5c573d6000803e3d6000fd5b505050506040513d601f19601f82011682018060405250810190610b809190611918565b610b8b90600a611ae0565b600b54601054610b9a91611617565b610ba49190611a7b565b60185550505050565b60026000541415610bd05760405162461bcd60e51b815260040161056390611a2c565b6002600055610bdd6104e4565b600114610c1b5760405162461bcd60e51b815260206004820152600c60248201526b53616c65207375636573737360a01b6044820152606401610563565b600754600454600091610c2d91611ba7565b11610c4a5760405162461bcd60e51b81526004016105639061196c565b3360009081526002602052604090208054610c775760405162461bcd60e51b8152600401610563906119a3565b8054601554600091610ca2916103e891610c9c91610c96908490611623565b90611617565b9061162f565b8254909150610cb2908290611ba7565b601d6000828254610cc39190611a63565b909155505060078054829190600090610cdd908490611a63565b9091555050600080835560018301819055426002840155604051339183156108fc02918491818181858888f19350505050158015610828573d6000803e3d6000fd5b60026000541415610d425760405162461bcd60e51b815260040161056390611a2c565b6002600055610d4f6104e4565b600114610d8d5760405162461bcd60e51b815260206004820152600c60248201526b53616c65207375636573737360a01b6044820152606401610563565b600654600554600091610d9f91611ba7565b11610dbc5760405162461bcd60e51b81526004016105639061196c565b3360009081526002602052604090206003810154600182015411610df25760405162461bcd60e51b8152600401610563906119e8565b6000610e1c6103e8610c9c8460010154610c96600d600901546103e861162390919063ffffffff16565b90508060046002016000828254610e339190611a63565b909155505060188054829190600090610e4d908490611ba7565b909155505060008083556001830155426002830155600e5460405163a9059cbb60e01b8152336004820152602481018390526001600160a01b039091169063a9059cbb90604401602060405180830381600087803b158015610eae57600080fd5b505af1158015610ec2573d6000803e3d6000fd5b505050506040513d601f19601f8201168201806040525081019061082891906118e2565b60026000541415610f095760405162461bcd60e51b815260040161056390611a2c565b600260008181553381526020919091526040812090829081906103e834831115610f755760405162461bcd60e51b815260206004820152601a60248201527f506c656173652070726f76696465206e617669746520636f696e0000000000006044820152606401610563565b601354831015610fba5760405162461bcd60e51b815260206004820152601060248201526f4e6f7420656e6f7567682076616c756560801b6044820152606401610563565b601454831115610ffd5760405162461bcd60e51b815260206004820152600e60248201526d4f766572666c6f772076616c756560901b6044820152606401610563565b6110056112b5565b6110355761102681610c9c85610c96601a548661162390919063ffffffff16565b92506110328385611ba7565b91505b845460145460009161104691611ba7565b60045460185491925060009161105c9190611ba7565b9050600081831161106d578261106f565b815b9050808611156110b35760405162461bcd60e51b815260206004820152600f60248201526e53616c65206973207375636365737360881b6044820152606401610563565b600061115a600d60020160009054906101000a90046001600160a01b03166001600160a01b031663313ce5676040518163ffffffff1660e01b815260040160206040518083038186803b15801561110957600080fd5b505afa15801561111d573d6000803e3d6000fd5b505050506040513d601f19601f820116820180604052508101906111419190611918565b61114c90600a611ae0565b601054610c9c908a90611617565b9050878960000160008282546111709190611a63565b925050819055508089600101600082825461118b9190611a63565b9091555050600480548891906000906111a5908490611a63565b9091555050600580548291906000906111bf908490611a63565b9091555050600880549060006111d483611bbe565b909155505033600090815260036020526040812080548892906111f8908490611a63565b9250508190555085601d60008282546112119190611a63565b909155505060175460ff16801561123157503461122e8789611a63565b11155b1561127957336108fc876112458a34611ba7565b61124f9190611ba7565b6040518115909202916000818181858888f19350505050158015611277573d6000803e3d6000fd5b505b60175460ff166112a457600f546112a4906001600160a01b0316333061129f8a8c611a63565b61163b565b505060016000555050505050505050565b60006112c2601b3361176b565b905090565b8015611404576006546005546000916112df91611ba7565b116112fc5760405162461bcd60e51b81526004016105639061196c565b33600090815260026020526040902060038101546001820154116113325760405162461bcd60e51b8152600401610563906119e8565b600181015460068054600090611349908490611a63565b9091555050600181015460188054600090611365908490611ba7565b9091555050600080825560018201819055426002830155600e5460405163a9059cbb60e01b815233600482015260248101929092526001600160a01b03169063a9059cbb90604401602060405180830381600087803b1580156113c757600080fd5b505af11580156113db573d6000803e3d6000fd5b505050506040513d601f19601f820116820180604052508101906113ff91906118e2565b505050565b60075460045460009161141691611ba7565b116114335760405162461bcd60e51b81526004016105639061196c565b33600090815260026020526040902080546114605760405162461bcd60e51b8152600401610563906119a3565b805461146c8180611ba7565b601d600082825461147d9190611a63565b909155505060078054829190600090611497908490611a63565b9091555050600080835560018301819055426002840155604051339183156108fc02918491818181858888f193505050501580156114d9573d6000803e3d6000fd5b50505050565b6001546001600160a01b031633146115395760405162461bcd60e51b815260206004820181905260248201527f4f776e61626c653a2063616c6c6572206973206e6f7420746865206f776e65726044820152606401610563565b6001600160a01b03811661159e5760405162461bcd60e51b815260206004820152602660248201527f4f776e61626c653a206e6577206f776e657220697320746865207a65726f206160448201526564647265737360d01b6064820152608401610563565b6105a4816115c5565b60006115bc836001600160a01b03841661178d565b90505b92915050565b600180546001600160a01b038381166001600160a01b0319831681179093556040519116919082907f8be0079c531659141344cd1fd0a4f28419497f9722a3daafe3b4186f6b6457e090600090a35050565b60006115bc8284611b88565b60006115bc8284611ba7565b60006115bc8284611a7b565b604080516001600160a01b0385811660248301528481166044830152606480830185905283518084039091018152608490920183526020820180516001600160e01b03166323b872dd60e01b179052915160009283929088169161169f9190611931565b6000604051808303816000865af19150503d80600081146116dc576040519150601f19603f3d011682016040523d82523d6000602084013e6116e1565b606091505b509150915081801561170b57508051158061170b57508080602001905181019061170b91906118e2565b6117635760405162461bcd60e51b8152602060048201526024808201527f5472616e7366657248656c7065723a205452414e534645525f46524f4d5f46416044820152631253115160e21b6064820152608401610563565b505050505050565b6001600160a01b038116600090815260018301602052604081205415156115bc565b60008181526001830160205260408120546117d4575081546001818101845560008481526020808220909301849055845484825282860190935260409020919091556115bf565b5060006115bf565b6000602082840312156117ee57600080fd5b81356117f981611c05565b9392505050565b60008060008061018080868803121561181857600080fd5b853561182381611c05565b945060208681013561183481611c05565b9450604087013561184481611c05565b9350607f8701881361185557600080fd5b604051610120810181811067ffffffffffffffff8211171561187957611879611bef565b6040528060608901848a018b101561189057600080fd5b600094505b60098510156118b4578035825260019490940193908301908301611895565b505080935050505092959194509250565b6000602082840312156118d757600080fd5b81356117f981611c1a565b6000602082840312156118f457600080fd5b81516117f981611c1a565b60006020828403121561191157600080fd5b5035919050565b60006020828403121561192a57600080fd5b5051919050565b6000825160005b818110156119525760208186018101518583015201611938565b81811115611961576000828501525b509190910192915050565b6020808252601b908201527f416c6c20746f6b656e20686173206265656e2077697468647261770000000000604082015260600190565b60208082526025908201527f596f7520726566756e6420616c6c206f722068617665206e6f7420626f7567686040820152641d081e595d60da1b606082015260800190565b60208082526024908201527f596f7520636c61696d20616c6c206f722068617665206e6f7420626f75676874604082015263081e595d60e21b606082015260800190565b6020808252601f908201527f5265656e7472616e637947756172643a207265656e7472616e742063616c6c00604082015260600190565b60008219821115611a7657611a76611bd9565b500190565b600082611a9857634e487b7160e01b600052601260045260246000fd5b500490565b600181815b80851115611ad8578160001904821115611abe57611abe611bd9565b80851615611acb57918102915b93841c9390800290611aa2565b509250929050565b60006115bc8383600082611af6575060016115bf565b81611b03575060006115bf565b8160018114611b195760028114611b2357611b3f565b60019150506115bf565b60ff841115611b3457611b34611bd9565b50506001821b6115bf565b5060208310610133831016604e8410600b8410161715611b62575081810a6115bf565b611b6c8383611a9d565b8060001904821115611b8057611b80611bd9565b029392505050565b6000816000190483118215151615611ba257611ba2611bd9565b500290565b600082821015611bb957611bb9611bd9565b500390565b6000600019821415611bd257611bd2611bd9565b5060010190565b634e487b7160e01b600052601160045260246000fd5b634e487b7160e01b600052604160045260246000fd5b6001600160a01b03811681146105a457600080fd5b80151581146105a457600080fdfea2646970667358221220822b0d814c3e8f6632c0ee1d8aad0f8e1b1be2995c9090648530a1d8a893bcfd64736f6c63430008050033",
					"opcodes": "PUSH1 0x80 PUSH1 0x40 MSTORE PUSH1 0x1 PUSH1 0x0 SSTORE PUSH3 0x14 CALLER PUSH3 0xA5 JUMP JUMPDEST PUSH1 0x19 DUP1 SLOAD PUSH20 0xC778417E063141139FCE010982780140AA0CD5AB PUSH1 0x1 PUSH1 0x1 PUSH1 0xA0 SHL SUB NOT SWAP1 SWAP2 AND OR SWAP1 SSTORE PUSH3 0x69 PUSH1 0x1B PUSH20 0x6CCB41EEDA5A073076F3E7DC1614C185B5FA41ED PUSH3 0xF7 PUSH1 0x20 SWAP1 DUP2 SHL PUSH3 0x15A7 OR SWAP1 SHR JUMP JUMPDEST POP PUSH3 0x99 PUSH20 0x4F0B12BBF40FC182559822A5B1DB6D34DBC3E016 PUSH1 0x1B PUSH3 0xF7 PUSH1 0x20 SHL PUSH3 0x15A7 OR SWAP1 SWAP2 SWAP1 PUSH1 0x20 SHR JUMP JUMPDEST POP PUSH1 0x14 PUSH1 0x1A SSTORE PUSH3 0x169 JUMP JUMPDEST PUSH1 0x1 DUP1 SLOAD PUSH1 0x1 PUSH1 0x1 PUSH1 0xA0 SHL SUB DUP4 DUP2 AND PUSH1 0x1 PUSH1 0x1 PUSH1 0xA0 SHL SUB NOT DUP4 AND DUP2 OR SWAP1 SWAP4 SSTORE PUSH1 0x40 MLOAD SWAP2 AND SWAP2 SWAP1 DUP3 SWAP1 PUSH32 0x8BE0079C531659141344CD1FD0A4F28419497F9722A3DAAFE3B4186F6B6457E0 SWAP1 PUSH1 0x0 SWAP1 LOG3 POP POP JUMP JUMPDEST PUSH1 0x0 PUSH3 0x10E DUP4 PUSH1 0x1 PUSH1 0x1 PUSH1 0xA0 SHL SUB DUP5 AND PUSH3 0x117 JUMP JUMPDEST SWAP1 POP JUMPDEST SWAP3 SWAP2 POP POP JUMP JUMPDEST PUSH1 0x0 DUP2 DUP2 MSTORE PUSH1 0x1 DUP4 ADD PUSH1 0x20 MSTORE PUSH1 0x40 DUP2 KECCAK256 SLOAD PUSH3 0x160 JUMPI POP DUP2 SLOAD PUSH1 0x1 DUP2 DUP2 ADD DUP5 SSTORE PUSH1 0x0 DUP5 DUP2 MSTORE PUSH1 0x20 DUP1 DUP3 KECCAK256 SWAP1 SWAP4 ADD DUP5 SWAP1 SSTORE DUP5 SLOAD DUP5 DUP3 MSTORE DUP3 DUP7 ADD SWAP1 SWAP4 MSTORE PUSH1 0x40 SWAP1 KECCAK256 SWAP2 SWAP1 SWAP2 SSTORE PUSH3 0x111 JUMP JUMPDEST POP PUSH1 0x0 PUSH3 0x111 JUMP JUMPDEST PUSH2 0x1C5E DUP1 PUSH3 0x179 PUSH1 0x0 CODECOPY PUSH1 0x0 RETURN INVALID PUSH1 0x80 PUSH1 0x40 MSTORE PUSH1 0x4 CALLDATASIZE LT PUSH2 0x12A JUMPI PUSH1 0x0 CALLDATALOAD PUSH1 0xE0 SHR DUP1 PUSH4 0x8F1EAE4C GT PUSH2 0xAB JUMPI DUP1 PUSH4 0xB6B55F25 GT PUSH2 0x6F JUMPI DUP1 PUSH4 0xB6B55F25 EQ PUSH2 0x3E0 JUMPI DUP1 PUSH4 0xCAD5B0F7 EQ PUSH2 0x3F3 JUMPI DUP1 PUSH4 0xE2D3F423 EQ PUSH2 0x418 JUMPI DUP1 PUSH4 0xEB002BB0 EQ PUSH2 0x47C JUMPI DUP1 PUSH4 0xF2FDE38B EQ PUSH2 0x49C JUMPI DUP1 PUSH4 0xF8B2CB4F EQ PUSH2 0x4BC JUMPI PUSH1 0x0 DUP1 REVERT JUMPDEST DUP1 PUSH4 0x8F1EAE4C EQ PUSH2 0x306 JUMPI DUP1 PUSH4 0x95661E70 EQ PUSH2 0x326 JUMPI DUP1 PUSH4 0xAB33985A EQ PUSH2 0x33B JUMPI DUP1 PUSH4 0xACFB2355 EQ PUSH2 0x350 JUMPI DUP1 PUSH4 0xAD5C4648 EQ PUSH2 0x3C0 JUMPI PUSH1 0x0 DUP1 REVERT JUMPDEST DUP1 PUSH4 0x56C5F349 GT PUSH2 0xF2 JUMPI DUP1 PUSH4 0x56C5F349 EQ PUSH2 0x273 JUMPI DUP1 PUSH4 0x715018A6 EQ PUSH2 0x2A0 JUMPI DUP1 PUSH4 0x861FAF5F EQ PUSH2 0x2B7 JUMPI DUP1 PUSH4 0x8DA5CB5B EQ PUSH2 0x2BF JUMPI DUP1 PUSH4 0x8EDF18E6 EQ PUSH2 0x2F1 JUMPI PUSH1 0x0 DUP1 REVERT JUMPDEST DUP1 PUSH4 0x12E5D0B9 EQ PUSH2 0x12F JUMPI DUP1 PUSH4 0x18856A2F EQ PUSH2 0x164 JUMPI DUP1 PUSH4 0x1DF4CCFC EQ PUSH2 0x224 JUMPI DUP1 PUSH4 0x200D2ED2 EQ PUSH2 0x248 JUMPI DUP1 PUSH4 0x3B5EF2AD EQ PUSH2 0x25D JUMPI JUMPDEST PUSH1 0x0 DUP1 REVERT JUMPDEST CALLVALUE DUP1 ISZERO PUSH2 0x13B JUMPI PUSH1 0x0 DUP1 REVERT JUMPDEST POP PUSH1 0xB SLOAD PUSH1 0xC SLOAD PUSH2 0x14A SWAP2 SWAP1 DUP3 JUMP JUMPDEST PUSH1 0x40 DUP1 MLOAD SWAP3 DUP4 MSTORE PUSH1 0x20 DUP4 ADD SWAP2 SWAP1 SWAP2 MSTORE ADD JUMPDEST PUSH1 0x40 MLOAD DUP1 SWAP2 SUB SWAP1 RETURN JUMPDEST CALLVALUE DUP1 ISZERO PUSH2 0x170 JUMPI PUSH1 0x0 DUP1 REVERT JUMPDEST POP PUSH1 0xD SLOAD PUSH1 0xE SLOAD PUSH1 0xF SLOAD PUSH1 0x10 SLOAD PUSH1 0x11 SLOAD PUSH1 0x12 SLOAD PUSH1 0x13 SLOAD PUSH1 0x14 SLOAD PUSH1 0x15 SLOAD PUSH1 0x16 SLOAD PUSH1 0x17 SLOAD PUSH1 0x18 SLOAD PUSH2 0x1B8 SWAP12 PUSH1 0x1 PUSH1 0x1 PUSH1 0xA0 SHL SUB SWAP1 DUP2 AND SWAP12 DUP2 AND SWAP11 AND SWAP9 SWAP8 SWAP7 SWAP6 SWAP5 SWAP4 SWAP3 SWAP2 PUSH1 0xFF AND SWAP1 DUP13 JUMP JUMPDEST PUSH1 0x40 DUP1 MLOAD PUSH1 0x1 PUSH1 0x1 PUSH1 0xA0 SHL SUB SWAP14 DUP15 AND DUP2 MSTORE SWAP12 DUP14 AND PUSH1 0x20 DUP14 ADD MSTORE SWAP10 SWAP1 SWAP12 AND SWAP9 DUP11 ADD SWAP9 SWAP1 SWAP9 MSTORE PUSH1 0x60 DUP10 ADD SWAP7 SWAP1 SWAP7 MSTORE PUSH1 0x80 DUP9 ADD SWAP5 SWAP1 SWAP5 MSTORE PUSH1 0xA0 DUP8 ADD SWAP3 SWAP1 SWAP3 MSTORE PUSH1 0xC0 DUP7 ADD MSTORE PUSH1 0xE0 DUP6 ADD MSTORE PUSH2 0x100 DUP5 ADD MSTORE PUSH2 0x120 DUP4 ADD MSTORE ISZERO ISZERO PUSH2 0x140 DUP3 ADD MSTORE PUSH2 0x160 DUP2 ADD SWAP2 SWAP1 SWAP2 MSTORE PUSH2 0x180 ADD PUSH2 0x15B JUMP JUMPDEST CALLVALUE DUP1 ISZERO PUSH2 0x230 JUMPI PUSH1 0x0 DUP1 REVERT JUMPDEST POP PUSH2 0x23A PUSH1 0x1D SLOAD DUP2 JUMP JUMPDEST PUSH1 0x40 MLOAD SWAP1 DUP2 MSTORE PUSH1 0x20 ADD PUSH2 0x15B JUMP JUMPDEST CALLVALUE DUP1 ISZERO PUSH2 0x254 JUMPI PUSH1 0x0 DUP1 REVERT JUMPDEST POP PUSH2 0x23A PUSH2 0x4E4 JUMP JUMPDEST CALLVALUE DUP1 ISZERO PUSH2 0x269 JUMPI PUSH1 0x0 DUP1 REVERT JUMPDEST POP PUSH2 0x23A PUSH1 0x1A SLOAD DUP2 JUMP JUMPDEST CALLVALUE DUP1 ISZERO PUSH2 0x27F JUMPI PUSH1 0x0 DUP1 REVERT JUMPDEST POP PUSH2 0x23A PUSH2 0x28E CALLDATASIZE PUSH1 0x4 PUSH2 0x17DC JUMP JUMPDEST PUSH1 0x3 PUSH1 0x20 MSTORE PUSH1 0x0 SWAP1 DUP2 MSTORE PUSH1 0x40 SWAP1 KECCAK256 SLOAD DUP2 JUMP JUMPDEST CALLVALUE DUP1 ISZERO PUSH2 0x2AC JUMPI PUSH1 0x0 DUP1 REVERT JUMPDEST POP PUSH2 0x2B5 PUSH2 0x50D JUMP JUMPDEST STOP JUMPDEST PUSH2 0x2B5 PUSH2 0x578 JUMP JUMPDEST CALLVALUE DUP1 ISZERO PUSH2 0x2CB JUMPI PUSH1 0x0 DUP1 REVERT JUMPDEST POP PUSH1 0x1 SLOAD PUSH1 0x1 PUSH1 0x1 PUSH1 0xA0 SHL SUB AND JUMPDEST PUSH1 0x40 MLOAD PUSH1 0x1 PUSH1 0x1 PUSH1 0xA0 SHL SUB SWAP1 SWAP2 AND DUP2 MSTORE PUSH1 0x20 ADD PUSH2 0x15B JUMP JUMPDEST CALLVALUE DUP1 ISZERO PUSH2 0x2FD JUMPI PUSH1 0x0 DUP1 REVERT JUMPDEST POP PUSH2 0x2B5 PUSH2 0x5A7 JUMP JUMPDEST CALLVALUE DUP1 ISZERO PUSH2 0x312 JUMPI PUSH1 0x0 DUP1 REVERT JUMPDEST POP PUSH2 0x2B5 PUSH2 0x321 CALLDATASIZE PUSH1 0x4 PUSH2 0x1800 JUMP JUMPDEST PUSH2 0x832 JUMP JUMPDEST CALLVALUE DUP1 ISZERO PUSH2 0x332 JUMPI PUSH1 0x0 DUP1 REVERT JUMPDEST POP PUSH2 0x2B5 PUSH2 0xBAD JUMP JUMPDEST CALLVALUE DUP1 ISZERO PUSH2 0x347 JUMPI PUSH1 0x0 DUP1 REVERT JUMPDEST POP PUSH2 0x2B5 PUSH2 0xD1F JUMP JUMPDEST CALLVALUE DUP1 ISZERO PUSH2 0x35C JUMPI PUSH1 0x0 DUP1 REVERT JUMPDEST POP PUSH1 0x4 SLOAD PUSH1 0x5 SLOAD PUSH1 0x6 SLOAD PUSH1 0x7 SLOAD PUSH1 0x8 SLOAD PUSH1 0x9 SLOAD PUSH2 0x387 SWAP6 SWAP5 SWAP4 SWAP3 SWAP2 SWAP1 PUSH1 0xFF DUP1 DUP3 AND SWAP2 PUSH2 0x100 SWAP1 DIV AND DUP8 JUMP JUMPDEST PUSH1 0x40 DUP1 MLOAD SWAP8 DUP9 MSTORE PUSH1 0x20 DUP9 ADD SWAP7 SWAP1 SWAP7 MSTORE SWAP5 DUP7 ADD SWAP4 SWAP1 SWAP4 MSTORE PUSH1 0x60 DUP6 ADD SWAP2 SWAP1 SWAP2 MSTORE PUSH1 0x80 DUP5 ADD MSTORE ISZERO ISZERO PUSH1 0xA0 DUP4 ADD MSTORE ISZERO ISZERO PUSH1 0xC0 DUP3 ADD MSTORE PUSH1 0xE0 ADD PUSH2 0x15B JUMP JUMPDEST CALLVALUE DUP1 ISZERO PUSH2 0x3CC JUMPI PUSH1 0x0 DUP1 REVERT JUMPDEST POP PUSH1 0x19 SLOAD PUSH2 0x2D9 SWAP1 PUSH1 0x1 PUSH1 0x1 PUSH1 0xA0 SHL SUB AND DUP2 JUMP JUMPDEST PUSH2 0x2B5 PUSH2 0x3EE CALLDATASIZE PUSH1 0x4 PUSH2 0x18FF JUMP JUMPDEST PUSH2 0xEE6 JUMP JUMPDEST CALLVALUE DUP1 ISZERO PUSH2 0x3FF JUMPI PUSH1 0x0 DUP1 REVERT JUMPDEST POP PUSH2 0x408 PUSH2 0x12B5 JUMP JUMPDEST PUSH1 0x40 MLOAD SWAP1 ISZERO ISZERO DUP2 MSTORE PUSH1 0x20 ADD PUSH2 0x15B JUMP JUMPDEST CALLVALUE DUP1 ISZERO PUSH2 0x424 JUMPI PUSH1 0x0 DUP1 REVERT JUMPDEST POP PUSH2 0x45C PUSH2 0x433 CALLDATASIZE PUSH1 0x4 PUSH2 0x17DC JUMP JUMPDEST PUSH1 0x2 PUSH1 0x20 DUP2 SWAP1 MSTORE PUSH1 0x0 SWAP2 DUP3 MSTORE PUSH1 0x40 SWAP1 SWAP2 KECCAK256 DUP1 SLOAD PUSH1 0x1 DUP3 ADD SLOAD SWAP3 DUP3 ADD SLOAD PUSH1 0x3 SWAP1 SWAP3 ADD SLOAD SWAP1 SWAP3 SWAP2 SWAP1 DUP5 JUMP JUMPDEST PUSH1 0x40 DUP1 MLOAD SWAP5 DUP6 MSTORE PUSH1 0x20 DUP6 ADD SWAP4 SWAP1 SWAP4 MSTORE SWAP2 DUP4 ADD MSTORE PUSH1 0x60 DUP3 ADD MSTORE PUSH1 0x80 ADD PUSH2 0x15B JUMP JUMPDEST CALLVALUE DUP1 ISZERO PUSH2 0x488 JUMPI PUSH1 0x0 DUP1 REVERT JUMPDEST POP PUSH2 0x2B5 PUSH2 0x497 CALLDATASIZE PUSH1 0x4 PUSH2 0x18C5 JUMP JUMPDEST PUSH2 0x12C7 JUMP JUMPDEST CALLVALUE DUP1 ISZERO PUSH2 0x4A8 JUMPI PUSH1 0x0 DUP1 REVERT JUMPDEST POP PUSH2 0x2B5 PUSH2 0x4B7 CALLDATASIZE PUSH1 0x4 PUSH2 0x17DC JUMP JUMPDEST PUSH2 0x14DF JUMP JUMPDEST CALLVALUE DUP1 ISZERO PUSH2 0x4C8 JUMPI PUSH1 0x0 DUP1 REVERT JUMPDEST POP PUSH2 0x23A PUSH2 0x4D7 CALLDATASIZE PUSH1 0x4 PUSH2 0x17DC JUMP JUMPDEST PUSH1 0x1 PUSH1 0x1 PUSH1 0xA0 SHL SUB AND BALANCE SWAP1 JUMP JUMPDEST PUSH1 0x11 SLOAD PUSH1 0x0 SWAP1 TIMESTAMP LT ISZERO PUSH2 0x4F7 JUMPI POP PUSH1 0x0 SWAP1 JUMP JUMPDEST PUSH1 0x12 SLOAD TIMESTAMP GT ISZERO PUSH2 0x507 JUMPI POP PUSH1 0x2 SWAP1 JUMP JUMPDEST POP PUSH1 0x1 SWAP1 JUMP JUMPDEST PUSH1 0x1 SLOAD PUSH1 0x1 PUSH1 0x1 PUSH1 0xA0 SHL SUB AND CALLER EQ PUSH2 0x56C JUMPI PUSH1 0x40 MLOAD PUSH3 0x461BCD PUSH1 0xE5 SHL DUP2 MSTORE PUSH1 0x20 PUSH1 0x4 DUP3 ADD DUP2 SWAP1 MSTORE PUSH1 0x24 DUP3 ADD MSTORE PUSH32 0x4F776E61626C653A2063616C6C6572206973206E6F7420746865206F776E6572 PUSH1 0x44 DUP3 ADD MSTORE PUSH1 0x64 ADD JUMPDEST PUSH1 0x40 MLOAD DUP1 SWAP2 SUB SWAP1 REVERT JUMPDEST PUSH2 0x576 PUSH1 0x0 PUSH2 0x15C5 JUMP JUMPDEST JUMP JUMPDEST PUSH1 0x40 MLOAD CALLER SWAP1 SELFBALANCE DUP1 ISZERO PUSH2 0x8FC MUL SWAP2 PUSH1 0x0 DUP2 DUP2 DUP2 DUP6 DUP9 DUP9 CALL SWAP4 POP POP POP POP ISZERO DUP1 ISZERO PUSH2 0x5A4 JUMPI RETURNDATASIZE PUSH1 0x0 DUP1 RETURNDATACOPY RETURNDATASIZE PUSH1 0x0 REVERT JUMPDEST POP JUMP JUMPDEST PUSH1 0xD SLOAD PUSH1 0x1 PUSH1 0x1 PUSH1 0xA0 SHL SUB AND CALLER PUSH1 0x1 PUSH1 0x1 PUSH1 0xA0 SHL SUB AND EQ PUSH2 0x5FF JUMPI PUSH1 0x40 MLOAD PUSH3 0x461BCD PUSH1 0xE5 SHL DUP2 MSTORE PUSH1 0x20 PUSH1 0x4 DUP3 ADD MSTORE PUSH1 0x12 PUSH1 0x24 DUP3 ADD MSTORE PUSH18 0x27B7363C90383932B9B0B6329037BBB732B9 PUSH1 0x71 SHL PUSH1 0x44 DUP3 ADD MSTORE PUSH1 0x64 ADD PUSH2 0x563 JUMP JUMPDEST PUSH1 0x2 PUSH1 0x0 SLOAD EQ ISZERO PUSH2 0x622 JUMPI PUSH1 0x40 MLOAD PUSH3 0x461BCD PUSH1 0xE5 SHL DUP2 MSTORE PUSH1 0x4 ADD PUSH2 0x563 SWAP1 PUSH2 0x1A2C JUMP JUMPDEST PUSH1 0x2 PUSH1 0x0 SSTORE PUSH1 0x9 SLOAD PUSH1 0xFF AND ISZERO PUSH2 0x67A JUMPI PUSH1 0x40 MLOAD PUSH3 0x461BCD PUSH1 0xE5 SHL DUP2 MSTORE PUSH1 0x20 PUSH1 0x4 DUP3 ADD MSTORE PUSH1 0x1D PUSH1 0x24 DUP3 ADD MSTORE PUSH32 0x4E6F7468696E6720666F72206F776E657220636C61696D20746F6B656E000000 PUSH1 0x44 DUP3 ADD MSTORE PUSH1 0x64 ADD PUSH2 0x563 JUMP JUMPDEST PUSH1 0x9 SLOAD PUSH2 0x100 SWAP1 DIV PUSH1 0xFF AND ISZERO PUSH2 0x6D2 JUMPI PUSH1 0x40 MLOAD PUSH3 0x461BCD PUSH1 0xE5 SHL DUP2 MSTORE PUSH1 0x20 PUSH1 0x4 DUP3 ADD MSTORE PUSH1 0x1E PUSH1 0x24 DUP3 ADD MSTORE PUSH32 0x4E6F7468696E6720666F72206F776E657220726566756E6420746F6B656E0000 PUSH1 0x44 DUP3 ADD MSTORE PUSH1 0x64 ADD PUSH2 0x563 JUMP JUMPDEST PUSH1 0xE SLOAD PUSH1 0x40 MLOAD PUSH4 0x70A08231 PUSH1 0xE0 SHL DUP2 MSTORE ADDRESS PUSH1 0x4 DUP3 ADD MSTORE PUSH1 0x0 SWAP2 PUSH1 0x1 PUSH1 0x1 PUSH1 0xA0 SHL SUB AND SWAP1 PUSH4 0x70A08231 SWAP1 PUSH1 0x24 ADD PUSH1 0x20 PUSH1 0x40 MLOAD DUP1 DUP4 SUB DUP2 DUP7 DUP1 EXTCODESIZE ISZERO DUP1 ISZERO PUSH2 0x716 JUMPI PUSH1 0x0 DUP1 REVERT JUMPDEST POP GAS STATICCALL ISZERO DUP1 ISZERO PUSH2 0x72A JUMPI RETURNDATASIZE PUSH1 0x0 DUP1 RETURNDATACOPY RETURNDATASIZE PUSH1 0x0 REVERT JUMPDEST POP POP POP POP PUSH1 0x40 MLOAD RETURNDATASIZE PUSH1 0x1F NOT PUSH1 0x1F DUP3 ADD AND DUP3 ADD DUP1 PUSH1 0x40 MSTORE POP DUP2 ADD SWAP1 PUSH2 0x74E SWAP2 SWAP1 PUSH2 0x1918 JUMP JUMPDEST PUSH1 0x9 DUP1 SLOAD PUSH1 0xFF NOT AND PUSH1 0x1 OR SWAP1 SSTORE PUSH1 0x0 PUSH1 0x18 SSTORE PUSH1 0xE SLOAD PUSH1 0xD SLOAD PUSH1 0x40 MLOAD PUSH4 0xA9059CBB PUSH1 0xE0 SHL DUP2 MSTORE PUSH1 0x1 PUSH1 0x1 PUSH1 0xA0 SHL SUB SWAP2 DUP3 AND PUSH1 0x4 DUP3 ADD MSTORE PUSH1 0x24 DUP2 ADD DUP5 SWAP1 MSTORE SWAP3 SWAP4 POP SELFBALANCE SWAP3 SWAP2 AND SWAP1 PUSH4 0xA9059CBB SWAP1 PUSH1 0x44 ADD PUSH1 0x20 PUSH1 0x40 MLOAD DUP1 DUP4 SUB DUP2 PUSH1 0x0 DUP8 DUP1 EXTCODESIZE ISZERO DUP1 ISZERO PUSH2 0x7B5 JUMPI PUSH1 0x0 DUP1 REVERT JUMPDEST POP GAS CALL ISZERO DUP1 ISZERO PUSH2 0x7C9 JUMPI RETURNDATASIZE PUSH1 0x0 DUP1 RETURNDATACOPY RETURNDATASIZE PUSH1 0x0 REVERT JUMPDEST POP POP POP POP PUSH1 0x40 MLOAD RETURNDATASIZE PUSH1 0x1F NOT PUSH1 0x1F DUP3 ADD AND DUP3 ADD DUP1 PUSH1 0x40 MSTORE POP DUP2 ADD SWAP1 PUSH2 0x7ED SWAP2 SWAP1 PUSH2 0x18E2 JUMP JUMPDEST POP PUSH1 0xD SLOAD PUSH1 0x40 MLOAD PUSH1 0x1 PUSH1 0x1 PUSH1 0xA0 SHL SUB SWAP1 SWAP2 AND SWAP1 DUP3 ISZERO PUSH2 0x8FC MUL SWAP1 DUP4 SWAP1 PUSH1 0x0 DUP2 DUP2 DUP2 DUP6 DUP9 DUP9 CALL SWAP4 POP POP POP POP ISZERO DUP1 ISZERO PUSH2 0x828 JUMPI RETURNDATASIZE PUSH1 0x0 DUP1 RETURNDATACOPY RETURNDATASIZE PUSH1 0x0 REVERT JUMPDEST POP POP PUSH1 0x1 PUSH1 0x0 SSTORE POP JUMP JUMPDEST PUSH1 0xD DUP1 SLOAD PUSH1 0x1 PUSH1 0x1 PUSH1 0xA0 SHL SUB DUP1 DUP8 AND PUSH1 0x1 PUSH1 0x1 PUSH1 0xA0 SHL SUB NOT SWAP3 DUP4 AND OR SWAP1 SWAP3 SSTORE PUSH1 0xE DUP1 SLOAD DUP7 DUP5 AND SWAP1 DUP4 AND DUP2 OR SWAP1 SWAP2 SSTORE PUSH1 0xF DUP1 SLOAD SWAP4 DUP7 AND SWAP4 SWAP1 SWAP3 AND SWAP3 SWAP1 SWAP3 OR SWAP1 SSTORE PUSH1 0x40 DUP1 MLOAD PUSH4 0x313CE567 PUSH1 0xE0 SHL DUP2 MSTORE SWAP1 MLOAD PUSH4 0x313CE567 SWAP2 PUSH1 0x4 DUP1 DUP3 ADD SWAP3 PUSH1 0x20 SWAP3 SWAP1 SWAP2 SWAP1 DUP3 SWAP1 SUB ADD DUP2 DUP7 DUP1 EXTCODESIZE ISZERO DUP1 ISZERO PUSH2 0x8A7 JUMPI PUSH1 0x0 DUP1 REVERT JUMPDEST POP GAS STATICCALL ISZERO DUP1 ISZERO PUSH2 0x8BB JUMPI RETURNDATASIZE PUSH1 0x0 DUP1 RETURNDATACOPY RETURNDATASIZE PUSH1 0x0 REVERT JUMPDEST POP POP POP POP PUSH1 0x40 MLOAD RETURNDATASIZE PUSH1 0x1F NOT PUSH1 0x1F DUP3 ADD AND DUP3 ADD DUP1 PUSH1 0x40 MSTORE POP DUP2 ADD SWAP1 PUSH2 0x8DF SWAP2 SWAP1 PUSH2 0x1918 JUMP JUMPDEST PUSH2 0x8EA SWAP1 PUSH1 0xA PUSH2 0x1AE0 JUMP JUMPDEST DUP2 MLOAD PUSH2 0x8F6 SWAP2 SWAP1 PUSH2 0x1B88 JUMP JUMPDEST PUSH1 0x10 SSTORE PUSH1 0x20 DUP1 DUP3 ADD MLOAD PUSH1 0x11 SSTORE PUSH1 0x40 DUP1 DUP4 ADD MLOAD PUSH1 0x12 SSTORE PUSH1 0x60 DUP4 ADD MLOAD PUSH1 0x13 SSTORE PUSH1 0xF SLOAD DUP2 MLOAD PUSH4 0x313CE567 PUSH1 0xE0 SHL DUP2 MSTORE SWAP2 MLOAD PUSH1 0x1 PUSH1 0x1 PUSH1 0xA0 SHL SUB SWAP1 SWAP2 AND SWAP3 PUSH4 0x313CE567 SWAP3 PUSH1 0x4 DUP1 DUP3 ADD SWAP4 SWAP2 DUP3 SWAP1 SUB ADD DUP2 DUP7 DUP1 EXTCODESIZE ISZERO DUP1 ISZERO PUSH2 0x951 JUMPI PUSH1 0x0 DUP1 REVERT JUMPDEST POP GAS STATICCALL ISZERO DUP1 ISZERO PUSH2 0x965 JUMPI RETURNDATASIZE PUSH1 0x0 DUP1 RETURNDATACOPY RETURNDATASIZE PUSH1 0x0 REVERT JUMPDEST POP POP POP POP PUSH1 0x40 MLOAD RETURNDATASIZE PUSH1 0x1F NOT PUSH1 0x1F DUP3 ADD AND DUP3 ADD DUP1 PUSH1 0x40 MSTORE POP DUP2 ADD SWAP1 PUSH2 0x989 SWAP2 SWAP1 PUSH2 0x1918 JUMP JUMPDEST PUSH2 0x994 SWAP1 PUSH1 0xA PUSH2 0x1AE0 JUMP JUMPDEST PUSH1 0x80 DUP3 ADD MLOAD PUSH2 0x9A3 SWAP2 SWAP1 PUSH2 0x1B88 JUMP JUMPDEST PUSH1 0x14 SSTORE PUSH1 0xA0 DUP2 ADD MLOAD PUSH1 0x15 SSTORE PUSH1 0xC0 DUP2 ADD MLOAD PUSH1 0x16 SSTORE PUSH1 0xF SLOAD PUSH1 0x40 DUP1 MLOAD PUSH4 0x313CE567 PUSH1 0xE0 SHL DUP2 MSTORE SWAP1 MLOAD PUSH1 0x1 PUSH1 0x1 PUSH1 0xA0 SHL SUB SWAP1 SWAP3 AND SWAP2 PUSH4 0x313CE567 SWAP2 PUSH1 0x4 DUP1 DUP3 ADD SWAP3 PUSH1 0x20 SWAP3 SWAP1 SWAP2 SWAP1 DUP3 SWAP1 SUB ADD DUP2 DUP7 DUP1 EXTCODESIZE ISZERO DUP1 ISZERO PUSH2 0x9FB JUMPI PUSH1 0x0 DUP1 REVERT JUMPDEST POP GAS STATICCALL ISZERO DUP1 ISZERO PUSH2 0xA0F JUMPI RETURNDATASIZE PUSH1 0x0 DUP1 RETURNDATACOPY RETURNDATASIZE PUSH1 0x0 REVERT JUMPDEST POP POP POP POP PUSH1 0x40 MLOAD RETURNDATASIZE PUSH1 0x1F NOT PUSH1 0x1F DUP3 ADD AND DUP3 ADD DUP1 PUSH1 0x40 MSTORE POP DUP2 ADD SWAP1 PUSH2 0xA33 SWAP2 SWAP1 PUSH2 0x1918 JUMP JUMPDEST PUSH2 0xA3E SWAP1 PUSH1 0xA PUSH2 0x1AE0 JUMP JUMPDEST PUSH1 0xE0 DUP3 ADD MLOAD PUSH2 0xA4D SWAP2 SWAP1 PUSH2 0x1B88 JUMP JUMPDEST PUSH1 0xB SSTORE PUSH1 0xF SLOAD PUSH1 0x40 DUP1 MLOAD PUSH4 0x313CE567 PUSH1 0xE0 SHL DUP2 MSTORE SWAP1 MLOAD PUSH1 0x1 PUSH1 0x1 PUSH1 0xA0 SHL SUB SWAP1 SWAP3 AND SWAP2 PUSH4 0x313CE567 SWAP2 PUSH1 0x4 DUP1 DUP3 ADD SWAP3 PUSH1 0x20 SWAP3 SWAP1 SWAP2 SWAP1 DUP3 SWAP1 SUB ADD DUP2 DUP7 DUP1 EXTCODESIZE ISZERO DUP1 ISZERO PUSH2 0xA95 JUMPI PUSH1 0x0 DUP1 REVERT JUMPDEST POP GAS STATICCALL ISZERO DUP1 ISZERO PUSH2 0xAA9 JUMPI RETURNDATASIZE PUSH1 0x0 DUP1 RETURNDATACOPY RETURNDATASIZE PUSH1 0x0 REVERT JUMPDEST POP POP POP POP PUSH1 0x40 MLOAD RETURNDATASIZE PUSH1 0x1F NOT PUSH1 0x1F DUP3 ADD AND DUP3 ADD DUP1 PUSH1 0x40 MSTORE POP DUP2 ADD SWAP1 PUSH2 0xACD SWAP2 SWAP1 PUSH2 0x1918 JUMP JUMPDEST PUSH2 0xAD8 SWAP1 PUSH1 0xA PUSH2 0x1AE0 JUMP JUMPDEST PUSH2 0x100 DUP3 ADD MLOAD PUSH2 0xAE8 SWAP2 SWAP1 PUSH2 0x1B88 JUMP JUMPDEST PUSH1 0xC SSTORE PUSH1 0xF SLOAD PUSH1 0x19 SLOAD PUSH1 0x17 DUP1 SLOAD PUSH1 0xFF NOT AND PUSH1 0x1 PUSH1 0x1 PUSH1 0xA0 SHL SUB SWAP3 DUP4 AND SWAP3 SWAP1 SWAP4 AND SWAP2 DUP3 EQ SWAP3 SWAP1 SWAP3 OR SWAP1 SWAP2 SSTORE PUSH1 0x40 DUP1 MLOAD PUSH4 0x313CE567 PUSH1 0xE0 SHL DUP2 MSTORE SWAP1 MLOAD PUSH4 0x313CE567 SWAP2 PUSH1 0x4 DUP1 DUP3 ADD SWAP3 PUSH1 0x20 SWAP3 SWAP1 SWAP2 SWAP1 DUP3 SWAP1 SUB ADD DUP2 DUP7 DUP1 EXTCODESIZE ISZERO DUP1 ISZERO PUSH2 0xB48 JUMPI PUSH1 0x0 DUP1 REVERT JUMPDEST POP GAS STATICCALL ISZERO DUP1 ISZERO PUSH2 0xB5C JUMPI RETURNDATASIZE PUSH1 0x0 DUP1 RETURNDATACOPY RETURNDATASIZE PUSH1 0x0 REVERT JUMPDEST POP POP POP POP PUSH1 0x40 MLOAD RETURNDATASIZE PUSH1 0x1F NOT PUSH1 0x1F DUP3 ADD AND DUP3 ADD DUP1 PUSH1 0x40 MSTORE POP DUP2 ADD SWAP1 PUSH2 0xB80 SWAP2 SWAP1 PUSH2 0x1918 JUMP JUMPDEST PUSH2 0xB8B SWAP1 PUSH1 0xA PUSH2 0x1AE0 JUMP JUMPDEST PUSH1 0xB SLOAD PUSH1 0x10 SLOAD PUSH2 0xB9A SWAP2 PUSH2 0x1617 JUMP JUMPDEST PUSH2 0xBA4 SWAP2 SWAP1 PUSH2 0x1A7B JUMP JUMPDEST PUSH1 0x18 SSTORE POP POP POP POP JUMP JUMPDEST PUSH1 0x2 PUSH1 0x0 SLOAD EQ ISZERO PUSH2 0xBD0 JUMPI PUSH1 0x40 MLOAD PUSH3 0x461BCD PUSH1 0xE5 SHL DUP2 MSTORE PUSH1 0x4 ADD PUSH2 0x563 SWAP1 PUSH2 0x1A2C JUMP JUMPDEST PUSH1 0x2 PUSH1 0x0 SSTORE PUSH2 0xBDD PUSH2 0x4E4 JUMP JUMPDEST PUSH1 0x1 EQ PUSH2 0xC1B JUMPI PUSH1 0x40 MLOAD PUSH3 0x461BCD PUSH1 0xE5 SHL DUP2 MSTORE PUSH1 0x20 PUSH1 0x4 DUP3 ADD MSTORE PUSH1 0xC PUSH1 0x24 DUP3 ADD MSTORE PUSH12 0x53616C652073756365737373 PUSH1 0xA0 SHL PUSH1 0x44 DUP3 ADD MSTORE PUSH1 0x64 ADD PUSH2 0x563 JUMP JUMPDEST PUSH1 0x7 SLOAD PUSH1 0x4 SLOAD PUSH1 0x0 SWAP2 PUSH2 0xC2D SWAP2 PUSH2 0x1BA7 JUMP JUMPDEST GT PUSH2 0xC4A JUMPI PUSH1 0x40 MLOAD PUSH3 0x461BCD PUSH1 0xE5 SHL DUP2 MSTORE PUSH1 0x4 ADD PUSH2 0x563 SWAP1 PUSH2 0x196C JUMP JUMPDEST CALLER PUSH1 0x0 SWAP1 DUP2 MSTORE PUSH1 0x2 PUSH1 0x20 MSTORE PUSH1 0x40 SWAP1 KECCAK256 DUP1 SLOAD PUSH2 0xC77 JUMPI PUSH1 0x40 MLOAD PUSH3 0x461BCD PUSH1 0xE5 SHL DUP2 MSTORE PUSH1 0x4 ADD PUSH2 0x563 SWAP1 PUSH2 0x19A3 JUMP JUMPDEST DUP1 SLOAD PUSH1 0x15 SLOAD PUSH1 0x0 SWAP2 PUSH2 0xCA2 SWAP2 PUSH2 0x3E8 SWAP2 PUSH2 0xC9C SWAP2 PUSH2 0xC96 SWAP1 DUP5 SWAP1 PUSH2 0x1623 JUMP JUMPDEST SWAP1 PUSH2 0x1617 JUMP JUMPDEST SWAP1 PUSH2 0x162F JUMP JUMPDEST DUP3 SLOAD SWAP1 SWAP2 POP PUSH2 0xCB2 SWAP1 DUP3 SWAP1 PUSH2 0x1BA7 JUMP JUMPDEST PUSH1 0x1D PUSH1 0x0 DUP3 DUP3 SLOAD PUSH2 0xCC3 SWAP2 SWAP1 PUSH2 0x1A63 JUMP JUMPDEST SWAP1 SWAP2 SSTORE POP POP PUSH1 0x7 DUP1 SLOAD DUP3 SWAP2 SWAP1 PUSH1 0x0 SWAP1 PUSH2 0xCDD SWAP1 DUP5 SWAP1 PUSH2 0x1A63 JUMP JUMPDEST SWAP1 SWAP2 SSTORE POP POP PUSH1 0x0 DUP1 DUP4 SSTORE PUSH1 0x1 DUP4 ADD DUP2 SWAP1 SSTORE TIMESTAMP PUSH1 0x2 DUP5 ADD SSTORE PUSH1 0x40 MLOAD CALLER SWAP2 DUP4 ISZERO PUSH2 0x8FC MUL SWAP2 DUP5 SWAP2 DUP2 DUP2 DUP2 DUP6 DUP9 DUP9 CALL SWAP4 POP POP POP POP ISZERO DUP1 ISZERO PUSH2 0x828 JUMPI RETURNDATASIZE PUSH1 0x0 DUP1 RETURNDATACOPY RETURNDATASIZE PUSH1 0x0 REVERT JUMPDEST PUSH1 0x2 PUSH1 0x0 SLOAD EQ ISZERO PUSH2 0xD42 JUMPI PUSH1 0x40 MLOAD PUSH3 0x461BCD PUSH1 0xE5 SHL DUP2 MSTORE PUSH1 0x4 ADD PUSH2 0x563 SWAP1 PUSH2 0x1A2C JUMP JUMPDEST PUSH1 0x2 PUSH1 0x0 SSTORE PUSH2 0xD4F PUSH2 0x4E4 JUMP JUMPDEST PUSH1 0x1 EQ PUSH2 0xD8D JUMPI PUSH1 0x40 MLOAD PUSH3 0x461BCD PUSH1 0xE5 SHL DUP2 MSTORE PUSH1 0x20 PUSH1 0x4 DUP3 ADD MSTORE PUSH1 0xC PUSH1 0x24 DUP3 ADD MSTORE PUSH12 0x53616C652073756365737373 PUSH1 0xA0 SHL PUSH1 0x44 DUP3 ADD MSTORE PUSH1 0x64 ADD PUSH2 0x563 JUMP JUMPDEST PUSH1 0x6 SLOAD PUSH1 0x5 SLOAD PUSH1 0x0 SWAP2 PUSH2 0xD9F SWAP2 PUSH2 0x1BA7 JUMP JUMPDEST GT PUSH2 0xDBC JUMPI PUSH1 0x40 MLOAD PUSH3 0x461BCD PUSH1 0xE5 SHL DUP2 MSTORE PUSH1 0x4 ADD PUSH2 0x563 SWAP1 PUSH2 0x196C JUMP JUMPDEST CALLER PUSH1 0x0 SWAP1 DUP2 MSTORE PUSH1 0x2 PUSH1 0x20 MSTORE PUSH1 0x40 SWAP1 KECCAK256 PUSH1 0x3 DUP2 ADD SLOAD PUSH1 0x1 DUP3 ADD SLOAD GT PUSH2 0xDF2 JUMPI PUSH1 0x40 MLOAD PUSH3 0x461BCD PUSH1 0xE5 SHL DUP2 MSTORE PUSH1 0x4 ADD PUSH2 0x563 SWAP1 PUSH2 0x19E8 JUMP JUMPDEST PUSH1 0x0 PUSH2 0xE1C PUSH2 0x3E8 PUSH2 0xC9C DUP5 PUSH1 0x1 ADD SLOAD PUSH2 0xC96 PUSH1 0xD PUSH1 0x9 ADD SLOAD PUSH2 0x3E8 PUSH2 0x1623 SWAP1 SWAP2 SWAP1 PUSH4 0xFFFFFFFF AND JUMP JUMPDEST SWAP1 POP DUP1 PUSH1 0x4 PUSH1 0x2 ADD PUSH1 0x0 DUP3 DUP3 SLOAD PUSH2 0xE33 SWAP2 SWAP1 PUSH2 0x1A63 JUMP JUMPDEST SWAP1 SWAP2 SSTORE POP POP PUSH1 0x18 DUP1 SLOAD DUP3 SWAP2 SWAP1 PUSH1 0x0 SWAP1 PUSH2 0xE4D SWAP1 DUP5 SWAP1 PUSH2 0x1BA7 JUMP JUMPDEST SWAP1 SWAP2 SSTORE POP POP PUSH1 0x0 DUP1 DUP4 SSTORE PUSH1 0x1 DUP4 ADD SSTORE TIMESTAMP PUSH1 0x2 DUP4 ADD SSTORE PUSH1 0xE SLOAD PUSH1 0x40 MLOAD PUSH4 0xA9059CBB PUSH1 0xE0 SHL DUP2 MSTORE CALLER PUSH1 0x4 DUP3 ADD MSTORE PUSH1 0x24 DUP2 ADD DUP4 SWAP1 MSTORE PUSH1 0x1 PUSH1 0x1 PUSH1 0xA0 SHL SUB SWAP1 SWAP2 AND SWAP1 PUSH4 0xA9059CBB SWAP1 PUSH1 0x44 ADD PUSH1 0x20 PUSH1 0x40 MLOAD DUP1 DUP4 SUB DUP2 PUSH1 0x0 DUP8 DUP1 EXTCODESIZE ISZERO DUP1 ISZERO PUSH2 0xEAE JUMPI PUSH1 0x0 DUP1 REVERT JUMPDEST POP GAS CALL ISZERO DUP1 ISZERO PUSH2 0xEC2 JUMPI RETURNDATASIZE PUSH1 0x0 DUP1 RETURNDATACOPY RETURNDATASIZE PUSH1 0x0 REVERT JUMPDEST POP POP POP POP PUSH1 0x40 MLOAD RETURNDATASIZE PUSH1 0x1F NOT PUSH1 0x1F DUP3 ADD AND DUP3 ADD DUP1 PUSH1 0x40 MSTORE POP DUP2 ADD SWAP1 PUSH2 0x828 SWAP2 SWAP1 PUSH2 0x18E2 JUMP JUMPDEST PUSH1 0x2 PUSH1 0x0 SLOAD EQ ISZERO PUSH2 0xF09 JUMPI PUSH1 0x40 MLOAD PUSH3 0x461BCD PUSH1 0xE5 SHL DUP2 MSTORE PUSH1 0x4 ADD PUSH2 0x563 SWAP1 PUSH2 0x1A2C JUMP JUMPDEST PUSH1 0x2 PUSH1 0x0 DUP2 DUP2 SSTORE CALLER DUP2 MSTORE PUSH1 0x20 SWAP2 SWAP1 SWAP2 MSTORE PUSH1 0x40 DUP2 KECCAK256 SWAP1 DUP3 SWAP1 DUP2 SWAP1 PUSH2 0x3E8 CALLVALUE DUP4 GT ISZERO PUSH2 0xF75 JUMPI PUSH1 0x40 MLOAD PUSH3 0x461BCD PUSH1 0xE5 SHL DUP2 MSTORE PUSH1 0x20 PUSH1 0x4 DUP3 ADD MSTORE PUSH1 0x1A PUSH1 0x24 DUP3 ADD MSTORE PUSH32 0x506C656173652070726F76696465206E617669746520636F696E000000000000 PUSH1 0x44 DUP3 ADD MSTORE PUSH1 0x64 ADD PUSH2 0x563 JUMP JUMPDEST PUSH1 0x13 SLOAD DUP4 LT ISZERO PUSH2 0xFBA JUMPI PUSH1 0x40 MLOAD PUSH3 0x461BCD PUSH1 0xE5 SHL DUP2 MSTORE PUSH1 0x20 PUSH1 0x4 DUP3 ADD MSTORE PUSH1 0x10 PUSH1 0x24 DUP3 ADD MSTORE PUSH16 0x4E6F7420656E6F7567682076616C7565 PUSH1 0x80 SHL PUSH1 0x44 DUP3 ADD MSTORE PUSH1 0x64 ADD PUSH2 0x563 JUMP JUMPDEST PUSH1 0x14 SLOAD DUP4 GT ISZERO PUSH2 0xFFD JUMPI PUSH1 0x40 MLOAD PUSH3 0x461BCD PUSH1 0xE5 SHL DUP2 MSTORE PUSH1 0x20 PUSH1 0x4 DUP3 ADD MSTORE PUSH1 0xE PUSH1 0x24 DUP3 ADD MSTORE PUSH14 0x4F766572666C6F772076616C7565 PUSH1 0x90 SHL PUSH1 0x44 DUP3 ADD MSTORE PUSH1 0x64 ADD PUSH2 0x563 JUMP JUMPDEST PUSH2 0x1005 PUSH2 0x12B5 JUMP JUMPDEST PUSH2 0x1035 JUMPI PUSH2 0x1026 DUP2 PUSH2 0xC9C DUP6 PUSH2 0xC96 PUSH1 0x1A SLOAD DUP7 PUSH2 0x1623 SWAP1 SWAP2 SWAP1 PUSH4 0xFFFFFFFF AND JUMP JUMPDEST SWAP3 POP PUSH2 0x1032 DUP4 DUP6 PUSH2 0x1BA7 JUMP JUMPDEST SWAP2 POP JUMPDEST DUP5 SLOAD PUSH1 0x14 SLOAD PUSH1 0x0 SWAP2 PUSH2 0x1046 SWAP2 PUSH2 0x1BA7 JUMP JUMPDEST PUSH1 0x4 SLOAD PUSH1 0x18 SLOAD SWAP2 SWAP3 POP PUSH1 0x0 SWAP2 PUSH2 0x105C SWAP2 SWAP1 PUSH2 0x1BA7 JUMP JUMPDEST SWAP1 POP PUSH1 0x0 DUP2 DUP4 GT PUSH2 0x106D JUMPI DUP3 PUSH2 0x106F JUMP JUMPDEST DUP2 JUMPDEST SWAP1 POP DUP1 DUP7 GT ISZERO PUSH2 0x10B3 JUMPI PUSH1 0x40 MLOAD PUSH3 0x461BCD PUSH1 0xE5 SHL DUP2 MSTORE PUSH1 0x20 PUSH1 0x4 DUP3 ADD MSTORE PUSH1 0xF PUSH1 0x24 DUP3 ADD MSTORE PUSH15 0x53616C652069732073756363657373 PUSH1 0x88 SHL PUSH1 0x44 DUP3 ADD MSTORE PUSH1 0x64 ADD PUSH2 0x563 JUMP JUMPDEST PUSH1 0x0 PUSH2 0x115A PUSH1 0xD PUSH1 0x2 ADD PUSH1 0x0 SWAP1 SLOAD SWAP1 PUSH2 0x100 EXP SWAP1 DIV PUSH1 0x1 PUSH1 0x1 PUSH1 0xA0 SHL SUB AND PUSH1 0x1 PUSH1 0x1 PUSH1 0xA0 SHL SUB AND PUSH4 0x313CE567 PUSH1 0x40 MLOAD DUP2 PUSH4 0xFFFFFFFF AND PUSH1 0xE0 SHL DUP2 MSTORE PUSH1 0x4 ADD PUSH1 0x20 PUSH1 0x40 MLOAD DUP1 DUP4 SUB DUP2 DUP7 DUP1 EXTCODESIZE ISZERO DUP1 ISZERO PUSH2 0x1109 JUMPI PUSH1 0x0 DUP1 REVERT JUMPDEST POP GAS STATICCALL ISZERO DUP1 ISZERO PUSH2 0x111D JUMPI RETURNDATASIZE PUSH1 0x0 DUP1 RETURNDATACOPY RETURNDATASIZE PUSH1 0x0 REVERT JUMPDEST POP POP POP POP PUSH1 0x40 MLOAD RETURNDATASIZE PUSH1 0x1F NOT PUSH1 0x1F DUP3 ADD AND DUP3 ADD DUP1 PUSH1 0x40 MSTORE POP DUP2 ADD SWAP1 PUSH2 0x1141 SWAP2 SWAP1 PUSH2 0x1918 JUMP JUMPDEST PUSH2 0x114C SWAP1 PUSH1 0xA PUSH2 0x1AE0 JUMP JUMPDEST PUSH1 0x10 SLOAD PUSH2 0xC9C SWAP1 DUP11 SWAP1 PUSH2 0x1617 JUMP JUMPDEST SWAP1 POP DUP8 DUP10 PUSH1 0x0 ADD PUSH1 0x0 DUP3 DUP3 SLOAD PUSH2 0x1170 SWAP2 SWAP1 PUSH2 0x1A63 JUMP JUMPDEST SWAP3 POP POP DUP2 SWAP1 SSTORE POP DUP1 DUP10 PUSH1 0x1 ADD PUSH1 0x0 DUP3 DUP3 SLOAD PUSH2 0x118B SWAP2 SWAP1 PUSH2 0x1A63 JUMP JUMPDEST SWAP1 SWAP2 SSTORE POP POP PUSH1 0x4 DUP1 SLOAD DUP9 SWAP2 SWAP1 PUSH1 0x0 SWAP1 PUSH2 0x11A5 SWAP1 DUP5 SWAP1 PUSH2 0x1A63 JUMP JUMPDEST SWAP1 SWAP2 SSTORE POP POP PUSH1 0x5 DUP1 SLOAD DUP3 SWAP2 SWAP1 PUSH1 0x0 SWAP1 PUSH2 0x11BF SWAP1 DUP5 SWAP1 PUSH2 0x1A63 JUMP JUMPDEST SWAP1 SWAP2 SSTORE POP POP PUSH1 0x8 DUP1 SLOAD SWAP1 PUSH1 0x0 PUSH2 0x11D4 DUP4 PUSH2 0x1BBE JUMP JUMPDEST SWAP1 SWAP2 SSTORE POP POP CALLER PUSH1 0x0 SWAP1 DUP2 MSTORE PUSH1 0x3 PUSH1 0x20 MSTORE PUSH1 0x40 DUP2 KECCAK256 DUP1 SLOAD DUP9 SWAP3 SWAP1 PUSH2 0x11F8 SWAP1 DUP5 SWAP1 PUSH2 0x1A63 JUMP JUMPDEST SWAP3 POP POP DUP2 SWAP1 SSTORE POP DUP6 PUSH1 0x1D PUSH1 0x0 DUP3 DUP3 SLOAD PUSH2 0x1211 SWAP2 SWAP1 PUSH2 0x1A63 JUMP JUMPDEST SWAP1 SWAP2 SSTORE POP POP PUSH1 0x17 SLOAD PUSH1 0xFF AND DUP1 ISZERO PUSH2 0x1231 JUMPI POP CALLVALUE PUSH2 0x122E DUP8 DUP10 PUSH2 0x1A63 JUMP JUMPDEST GT ISZERO JUMPDEST ISZERO PUSH2 0x1279 JUMPI CALLER PUSH2 0x8FC DUP8 PUSH2 0x1245 DUP11 CALLVALUE PUSH2 0x1BA7 JUMP JUMPDEST PUSH2 0x124F SWAP2 SWAP1 PUSH2 0x1BA7 JUMP JUMPDEST PUSH1 0x40 MLOAD DUP2 ISZERO SWAP1 SWAP3 MUL SWAP2 PUSH1 0x0 DUP2 DUP2 DUP2 DUP6 DUP9 DUP9 CALL SWAP4 POP POP POP POP ISZERO DUP1 ISZERO PUSH2 0x1277 JUMPI RETURNDATASIZE PUSH1 0x0 DUP1 RETURNDATACOPY RETURNDATASIZE PUSH1 0x0 REVERT JUMPDEST POP JUMPDEST PUSH1 0x17 SLOAD PUSH1 0xFF AND PUSH2 0x12A4 JUMPI PUSH1 0xF SLOAD PUSH2 0x12A4 SWAP1 PUSH1 0x1 PUSH1 0x1 PUSH1 0xA0 SHL SUB AND CALLER ADDRESS PUSH2 0x129F DUP11 DUP13 PUSH2 0x1A63 JUMP JUMPDEST PUSH2 0x163B JUMP JUMPDEST POP POP PUSH1 0x1 PUSH1 0x0 SSTORE POP POP POP POP POP POP POP POP JUMP JUMPDEST PUSH1 0x0 PUSH2 0x12C2 PUSH1 0x1B CALLER PUSH2 0x176B JUMP JUMPDEST SWAP1 POP SWAP1 JUMP JUMPDEST DUP1 ISZERO PUSH2 0x1404 JUMPI PUSH1 0x6 SLOAD PUSH1 0x5 SLOAD PUSH1 0x0 SWAP2 PUSH2 0x12DF SWAP2 PUSH2 0x1BA7 JUMP JUMPDEST GT PUSH2 0x12FC JUMPI PUSH1 0x40 MLOAD PUSH3 0x461BCD PUSH1 0xE5 SHL DUP2 MSTORE PUSH1 0x4 ADD PUSH2 0x563 SWAP1 PUSH2 0x196C JUMP JUMPDEST CALLER PUSH1 0x0 SWAP1 DUP2 MSTORE PUSH1 0x2 PUSH1 0x20 MSTORE PUSH1 0x40 SWAP1 KECCAK256 PUSH1 0x3 DUP2 ADD SLOAD PUSH1 0x1 DUP3 ADD SLOAD GT PUSH2 0x1332 JUMPI PUSH1 0x40 MLOAD PUSH3 0x461BCD PUSH1 0xE5 SHL DUP2 MSTORE PUSH1 0x4 ADD PUSH2 0x563 SWAP1 PUSH2 0x19E8 JUMP JUMPDEST PUSH1 0x1 DUP2 ADD SLOAD PUSH1 0x6 DUP1 SLOAD PUSH1 0x0 SWAP1 PUSH2 0x1349 SWAP1 DUP5 SWAP1 PUSH2 0x1A63 JUMP JUMPDEST SWAP1 SWAP2 SSTORE POP POP PUSH1 0x1 DUP2 ADD SLOAD PUSH1 0x18 DUP1 SLOAD PUSH1 0x0 SWAP1 PUSH2 0x1365 SWAP1 DUP5 SWAP1 PUSH2 0x1BA7 JUMP JUMPDEST SWAP1 SWAP2 SSTORE POP POP PUSH1 0x0 DUP1 DUP3 SSTORE PUSH1 0x1 DUP3 ADD DUP2 SWAP1 SSTORE TIMESTAMP PUSH1 0x2 DUP4 ADD SSTORE PUSH1 0xE SLOAD PUSH1 0x40 MLOAD PUSH4 0xA9059CBB PUSH1 0xE0 SHL DUP2 MSTORE CALLER PUSH1 0x4 DUP3 ADD MSTORE PUSH1 0x24 DUP2 ADD SWAP3 SWAP1 SWAP3 MSTORE PUSH1 0x1 PUSH1 0x1 PUSH1 0xA0 SHL SUB AND SWAP1 PUSH4 0xA9059CBB SWAP1 PUSH1 0x44 ADD PUSH1 0x20 PUSH1 0x40 MLOAD DUP1 DUP4 SUB DUP2 PUSH1 0x0 DUP8 DUP1 EXTCODESIZE ISZERO DUP1 ISZERO PUSH2 0x13C7 JUMPI PUSH1 0x0 DUP1 REVERT JUMPDEST POP GAS CALL ISZERO DUP1 ISZERO PUSH2 0x13DB JUMPI RETURNDATASIZE PUSH1 0x0 DUP1 RETURNDATACOPY RETURNDATASIZE PUSH1 0x0 REVERT JUMPDEST POP POP POP POP PUSH1 0x40 MLOAD RETURNDATASIZE PUSH1 0x1F NOT PUSH1 0x1F DUP3 ADD AND DUP3 ADD DUP1 PUSH1 0x40 MSTORE POP DUP2 ADD SWAP1 PUSH2 0x13FF SWAP2 SWAP1 PUSH2 0x18E2 JUMP JUMPDEST POP POP POP JUMP JUMPDEST PUSH1 0x7 SLOAD PUSH1 0x4 SLOAD PUSH1 0x0 SWAP2 PUSH2 0x1416 SWAP2 PUSH2 0x1BA7 JUMP JUMPDEST GT PUSH2 0x1433 JUMPI PUSH1 0x40 MLOAD PUSH3 0x461BCD PUSH1 0xE5 SHL DUP2 MSTORE PUSH1 0x4 ADD PUSH2 0x563 SWAP1 PUSH2 0x196C JUMP JUMPDEST CALLER PUSH1 0x0 SWAP1 DUP2 MSTORE PUSH1 0x2 PUSH1 0x20 MSTORE PUSH1 0x40 SWAP1 KECCAK256 DUP1 SLOAD PUSH2 0x1460 JUMPI PUSH1 0x40 MLOAD PUSH3 0x461BCD PUSH1 0xE5 SHL DUP2 MSTORE PUSH1 0x4 ADD PUSH2 0x563 SWAP1 PUSH2 0x19A3 JUMP JUMPDEST DUP1 SLOAD PUSH2 0x146C DUP2 DUP1 PUSH2 0x1BA7 JUMP JUMPDEST PUSH1 0x1D PUSH1 0x0 DUP3 DUP3 SLOAD PUSH2 0x147D SWAP2 SWAP1 PUSH2 0x1A63 JUMP JUMPDEST SWAP1 SWAP2 SSTORE POP POP PUSH1 0x7 DUP1 SLOAD DUP3 SWAP2 SWAP1 PUSH1 0x0 SWAP1 PUSH2 0x1497 SWAP1 DUP5 SWAP1 PUSH2 0x1A63 JUMP JUMPDEST SWAP1 SWAP2 SSTORE POP POP PUSH1 0x0 DUP1 DUP4 SSTORE PUSH1 0x1 DUP4 ADD DUP2 SWAP1 SSTORE TIMESTAMP PUSH1 0x2 DUP5 ADD SSTORE PUSH1 0x40 MLOAD CALLER SWAP2 DUP4 ISZERO PUSH2 0x8FC MUL SWAP2 DUP5 SWAP2 DUP2 DUP2 DUP2 DUP6 DUP9 DUP9 CALL SWAP4 POP POP POP POP ISZERO DUP1 ISZERO PUSH2 0x14D9 JUMPI RETURNDATASIZE PUSH1 0x0 DUP1 RETURNDATACOPY RETURNDATASIZE PUSH1 0x0 REVERT JUMPDEST POP POP POP POP JUMP JUMPDEST PUSH1 0x1 SLOAD PUSH1 0x1 PUSH1 0x1 PUSH1 0xA0 SHL SUB AND CALLER EQ PUSH2 0x1539 JUMPI PUSH1 0x40 MLOAD PUSH3 0x461BCD PUSH1 0xE5 SHL DUP2 MSTORE PUSH1 0x20 PUSH1 0x4 DUP3 ADD DUP2 SWAP1 MSTORE PUSH1 0x24 DUP3 ADD MSTORE PUSH32 0x4F776E61626C653A2063616C6C6572206973206E6F7420746865206F776E6572 PUSH1 0x44 DUP3 ADD MSTORE PUSH1 0x64 ADD PUSH2 0x563 JUMP JUMPDEST PUSH1 0x1 PUSH1 0x1 PUSH1 0xA0 SHL SUB DUP2 AND PUSH2 0x159E JUMPI PUSH1 0x40 MLOAD PUSH3 0x461BCD PUSH1 0xE5 SHL DUP2 MSTORE PUSH1 0x20 PUSH1 0x4 DUP3 ADD MSTORE PUSH1 0x26 PUSH1 0x24 DUP3 ADD MSTORE PUSH32 0x4F776E61626C653A206E6577206F776E657220697320746865207A65726F2061 PUSH1 0x44 DUP3 ADD MSTORE PUSH6 0x646472657373 PUSH1 0xD0 SHL PUSH1 0x64 DUP3 ADD MSTORE PUSH1 0x84 ADD PUSH2 0x563 JUMP JUMPDEST PUSH2 0x5A4 DUP2 PUSH2 0x15C5 JUMP JUMPDEST PUSH1 0x0 PUSH2 0x15BC DUP4 PUSH1 0x1 PUSH1 0x1 PUSH1 0xA0 SHL SUB DUP5 AND PUSH2 0x178D JUMP JUMPDEST SWAP1 POP JUMPDEST SWAP3 SWAP2 POP POP JUMP JUMPDEST PUSH1 0x1 DUP1 SLOAD PUSH1 0x1 PUSH1 0x1 PUSH1 0xA0 SHL SUB DUP4 DUP2 AND PUSH1 0x1 PUSH1 0x1 PUSH1 0xA0 SHL SUB NOT DUP4 AND DUP2 OR SWAP1 SWAP4 SSTORE PUSH1 0x40 MLOAD SWAP2 AND SWAP2 SWAP1 DUP3 SWAP1 PUSH32 0x8BE0079C531659141344CD1FD0A4F28419497F9722A3DAAFE3B4186F6B6457E0 SWAP1 PUSH1 0x0 SWAP1 LOG3 POP POP JUMP JUMPDEST PUSH1 0x0 PUSH2 0x15BC DUP3 DUP5 PUSH2 0x1B88 JUMP JUMPDEST PUSH1 0x0 PUSH2 0x15BC DUP3 DUP5 PUSH2 0x1BA7 JUMP JUMPDEST PUSH1 0x0 PUSH2 0x15BC DUP3 DUP5 PUSH2 0x1A7B JUMP JUMPDEST PUSH1 0x40 DUP1 MLOAD PUSH1 0x1 PUSH1 0x1 PUSH1 0xA0 SHL SUB DUP6 DUP2 AND PUSH1 0x24 DUP4 ADD MSTORE DUP5 DUP2 AND PUSH1 0x44 DUP4 ADD MSTORE PUSH1 0x64 DUP1 DUP4 ADD DUP6 SWAP1 MSTORE DUP4 MLOAD DUP1 DUP5 SUB SWAP1 SWAP2 ADD DUP2 MSTORE PUSH1 0x84 SWAP1 SWAP3 ADD DUP4 MSTORE PUSH1 0x20 DUP3 ADD DUP1 MLOAD PUSH1 0x1 PUSH1 0x1 PUSH1 0xE0 SHL SUB AND PUSH4 0x23B872DD PUSH1 0xE0 SHL OR SWAP1 MSTORE SWAP2 MLOAD PUSH1 0x0 SWAP3 DUP4 SWAP3 SWAP1 DUP9 AND SWAP2 PUSH2 0x169F SWAP2 SWAP1 PUSH2 0x1931 JUMP JUMPDEST PUSH1 0x0 PUSH1 0x40 MLOAD DUP1 DUP4 SUB DUP2 PUSH1 0x0 DUP7 GAS CALL SWAP2 POP POP RETURNDATASIZE DUP1 PUSH1 0x0 DUP2 EQ PUSH2 0x16DC JUMPI PUSH1 0x40 MLOAD SWAP2 POP PUSH1 0x1F NOT PUSH1 0x3F RETURNDATASIZE ADD AND DUP3 ADD PUSH1 0x40 MSTORE RETURNDATASIZE DUP3 MSTORE RETURNDATASIZE PUSH1 0x0 PUSH1 0x20 DUP5 ADD RETURNDATACOPY PUSH2 0x16E1 JUMP JUMPDEST PUSH1 0x60 SWAP2 POP JUMPDEST POP SWAP2 POP SWAP2 POP DUP2 DUP1 ISZERO PUSH2 0x170B JUMPI POP DUP1 MLOAD ISZERO DUP1 PUSH2 0x170B JUMPI POP DUP1 DUP1 PUSH1 0x20 ADD SWAP1 MLOAD DUP2 ADD SWAP1 PUSH2 0x170B SWAP2 SWAP1 PUSH2 0x18E2 JUMP JUMPDEST PUSH2 0x1763 JUMPI PUSH1 0x40 MLOAD PUSH3 0x461BCD PUSH1 0xE5 SHL DUP2 MSTORE PUSH1 0x20 PUSH1 0x4 DUP3 ADD MSTORE PUSH1 0x24 DUP1 DUP3 ADD MSTORE PUSH32 0x5472616E7366657248656C7065723A205452414E534645525F46524F4D5F4641 PUSH1 0x44 DUP3 ADD MSTORE PUSH4 0x12531151 PUSH1 0xE2 SHL PUSH1 0x64 DUP3 ADD MSTORE PUSH1 0x84 ADD PUSH2 0x563 JUMP JUMPDEST POP POP POP POP POP POP JUMP JUMPDEST PUSH1 0x1 PUSH1 0x1 PUSH1 0xA0 SHL SUB DUP2 AND PUSH1 0x0 SWAP1 DUP2 MSTORE PUSH1 0x1 DUP4 ADD PUSH1 0x20 MSTORE PUSH1 0x40 DUP2 KECCAK256 SLOAD ISZERO ISZERO PUSH2 0x15BC JUMP JUMPDEST PUSH1 0x0 DUP2 DUP2 MSTORE PUSH1 0x1 DUP4 ADD PUSH1 0x20 MSTORE PUSH1 0x40 DUP2 KECCAK256 SLOAD PUSH2 0x17D4 JUMPI POP DUP2 SLOAD PUSH1 0x1 DUP2 DUP2 ADD DUP5 SSTORE PUSH1 0x0 DUP5 DUP2 MSTORE PUSH1 0x20 DUP1 DUP3 KECCAK256 SWAP1 SWAP4 ADD DUP5 SWAP1 SSTORE DUP5 SLOAD DUP5 DUP3 MSTORE DUP3 DUP7 ADD SWAP1 SWAP4 MSTORE PUSH1 0x40 SWAP1 KECCAK256 SWAP2 SWAP1 SWAP2 SSTORE PUSH2 0x15BF JUMP JUMPDEST POP PUSH1 0x0 PUSH2 0x15BF JUMP JUMPDEST PUSH1 0x0 PUSH1 0x20 DUP3 DUP5 SUB SLT ISZERO PUSH2 0x17EE JUMPI PUSH1 0x0 DUP1 REVERT JUMPDEST DUP2 CALLDATALOAD PUSH2 0x17F9 DUP2 PUSH2 0x1C05 JUMP JUMPDEST SWAP4 SWAP3 POP POP POP JUMP JUMPDEST PUSH1 0x0 DUP1 PUSH1 0x0 DUP1 PUSH2 0x180 DUP1 DUP7 DUP9 SUB SLT ISZERO PUSH2 0x1818 JUMPI PUSH1 0x0 DUP1 REVERT JUMPDEST DUP6 CALLDATALOAD PUSH2 0x1823 DUP2 PUSH2 0x1C05 JUMP JUMPDEST SWAP5 POP PUSH1 0x20 DUP7 DUP2 ADD CALLDATALOAD PUSH2 0x1834 DUP2 PUSH2 0x1C05 JUMP JUMPDEST SWAP5 POP PUSH1 0x40 DUP8 ADD CALLDATALOAD PUSH2 0x1844 DUP2 PUSH2 0x1C05 JUMP JUMPDEST SWAP4 POP PUSH1 0x7F DUP8 ADD DUP9 SGT PUSH2 0x1855 JUMPI PUSH1 0x0 DUP1 REVERT JUMPDEST PUSH1 0x40 MLOAD PUSH2 0x120 DUP2 ADD DUP2 DUP2 LT PUSH8 0xFFFFFFFFFFFFFFFF DUP3 GT OR ISZERO PUSH2 0x1879 JUMPI PUSH2 0x1879 PUSH2 0x1BEF JUMP JUMPDEST PUSH1 0x40 MSTORE DUP1 PUSH1 0x60 DUP10 ADD DUP5 DUP11 ADD DUP12 LT ISZERO PUSH2 0x1890 JUMPI PUSH1 0x0 DUP1 REVERT JUMPDEST PUSH1 0x0 SWAP5 POP JUMPDEST PUSH1 0x9 DUP6 LT ISZERO PUSH2 0x18B4 JUMPI DUP1 CALLDATALOAD DUP3 MSTORE PUSH1 0x1 SWAP5 SWAP1 SWAP5 ADD SWAP4 SWAP1 DUP4 ADD SWAP1 DUP4 ADD PUSH2 0x1895 JUMP JUMPDEST POP POP DUP1 SWAP4 POP POP POP POP SWAP3 SWAP6 SWAP2 SWAP5 POP SWAP3 POP JUMP JUMPDEST PUSH1 0x0 PUSH1 0x20 DUP3 DUP5 SUB SLT ISZERO PUSH2 0x18D7 JUMPI PUSH1 0x0 DUP1 REVERT JUMPDEST DUP2 CALLDATALOAD PUSH2 0x17F9 DUP2 PUSH2 0x1C1A JUMP JUMPDEST PUSH1 0x0 PUSH1 0x20 DUP3 DUP5 SUB SLT ISZERO PUSH2 0x18F4 JUMPI PUSH1 0x0 DUP1 REVERT JUMPDEST DUP2 MLOAD PUSH2 0x17F9 DUP2 PUSH2 0x1C1A JUMP JUMPDEST PUSH1 0x0 PUSH1 0x20 DUP3 DUP5 SUB SLT ISZERO PUSH2 0x1911 JUMPI PUSH1 0x0 DUP1 REVERT JUMPDEST POP CALLDATALOAD SWAP2 SWAP1 POP JUMP JUMPDEST PUSH1 0x0 PUSH1 0x20 DUP3 DUP5 SUB SLT ISZERO PUSH2 0x192A JUMPI PUSH1 0x0 DUP1 REVERT JUMPDEST POP MLOAD SWAP2 SWAP1 POP JUMP JUMPDEST PUSH1 0x0 DUP3 MLOAD PUSH1 0x0 JUMPDEST DUP2 DUP2 LT ISZERO PUSH2 0x1952 JUMPI PUSH1 0x20 DUP2 DUP7 ADD DUP2 ADD MLOAD DUP6 DUP4 ADD MSTORE ADD PUSH2 0x1938 JUMP JUMPDEST DUP2 DUP2 GT ISZERO PUSH2 0x1961 JUMPI PUSH1 0x0 DUP3 DUP6 ADD MSTORE JUMPDEST POP SWAP2 SWAP1 SWAP2 ADD SWAP3 SWAP2 POP POP JUMP JUMPDEST PUSH1 0x20 DUP1 DUP3 MSTORE PUSH1 0x1B SWAP1 DUP3 ADD MSTORE PUSH32 0x416C6C20746F6B656E20686173206265656E2077697468647261770000000000 PUSH1 0x40 DUP3 ADD MSTORE PUSH1 0x60 ADD SWAP1 JUMP JUMPDEST PUSH1 0x20 DUP1 DUP3 MSTORE PUSH1 0x25 SWAP1 DUP3 ADD MSTORE PUSH32 0x596F7520726566756E6420616C6C206F722068617665206E6F7420626F756768 PUSH1 0x40 DUP3 ADD MSTORE PUSH5 0x1D081E595D PUSH1 0xDA SHL PUSH1 0x60 DUP3 ADD MSTORE PUSH1 0x80 ADD SWAP1 JUMP JUMPDEST PUSH1 0x20 DUP1 DUP3 MSTORE PUSH1 0x24 SWAP1 DUP3 ADD MSTORE PUSH32 0x596F7520636C61696D20616C6C206F722068617665206E6F7420626F75676874 PUSH1 0x40 DUP3 ADD MSTORE PUSH4 0x81E595D PUSH1 0xE2 SHL PUSH1 0x60 DUP3 ADD MSTORE PUSH1 0x80 ADD SWAP1 JUMP JUMPDEST PUSH1 0x20 DUP1 DUP3 MSTORE PUSH1 0x1F SWAP1 DUP3 ADD MSTORE PUSH32 0x5265656E7472616E637947756172643A207265656E7472616E742063616C6C00 PUSH1 0x40 DUP3 ADD MSTORE PUSH1 0x60 ADD SWAP1 JUMP JUMPDEST PUSH1 0x0 DUP3 NOT DUP3 GT ISZERO PUSH2 0x1A76 JUMPI PUSH2 0x1A76 PUSH2 0x1BD9 JUMP JUMPDEST POP ADD SWAP1 JUMP JUMPDEST PUSH1 0x0 DUP3 PUSH2 0x1A98 JUMPI PUSH4 0x4E487B71 PUSH1 0xE0 SHL PUSH1 0x0 MSTORE PUSH1 0x12 PUSH1 0x4 MSTORE PUSH1 0x24 PUSH1 0x0 REVERT JUMPDEST POP DIV SWAP1 JUMP JUMPDEST PUSH1 0x1 DUP2 DUP2 JUMPDEST DUP1 DUP6 GT ISZERO PUSH2 0x1AD8 JUMPI DUP2 PUSH1 0x0 NOT DIV DUP3 GT ISZERO PUSH2 0x1ABE JUMPI PUSH2 0x1ABE PUSH2 0x1BD9 JUMP JUMPDEST DUP1 DUP6 AND ISZERO PUSH2 0x1ACB JUMPI SWAP2 DUP2 MUL SWAP2 JUMPDEST SWAP4 DUP5 SHR SWAP4 SWAP1 DUP1 MUL SWAP1 PUSH2 0x1AA2 JUMP JUMPDEST POP SWAP3 POP SWAP3 SWAP1 POP JUMP JUMPDEST PUSH1 0x0 PUSH2 0x15BC DUP4 DUP4 PUSH1 0x0 DUP3 PUSH2 0x1AF6 JUMPI POP PUSH1 0x1 PUSH2 0x15BF JUMP JUMPDEST DUP2 PUSH2 0x1B03 JUMPI POP PUSH1 0x0 PUSH2 0x15BF JUMP JUMPDEST DUP2 PUSH1 0x1 DUP2 EQ PUSH2 0x1B19 JUMPI PUSH1 0x2 DUP2 EQ PUSH2 0x1B23 JUMPI PUSH2 0x1B3F JUMP JUMPDEST PUSH1 0x1 SWAP2 POP POP PUSH2 0x15BF JUMP JUMPDEST PUSH1 0xFF DUP5 GT ISZERO PUSH2 0x1B34 JUMPI PUSH2 0x1B34 PUSH2 0x1BD9 JUMP JUMPDEST POP POP PUSH1 0x1 DUP3 SHL PUSH2 0x15BF JUMP JUMPDEST POP PUSH1 0x20 DUP4 LT PUSH2 0x133 DUP4 LT AND PUSH1 0x4E DUP5 LT PUSH1 0xB DUP5 LT AND OR ISZERO PUSH2 0x1B62 JUMPI POP DUP2 DUP2 EXP PUSH2 0x15BF JUMP JUMPDEST PUSH2 0x1B6C DUP4 DUP4 PUSH2 0x1A9D JUMP JUMPDEST DUP1 PUSH1 0x0 NOT DIV DUP3 GT ISZERO PUSH2 0x1B80 JUMPI PUSH2 0x1B80 PUSH2 0x1BD9 JUMP JUMPDEST MUL SWAP4 SWAP3 POP POP POP JUMP JUMPDEST PUSH1 0x0 DUP2 PUSH1 0x0 NOT DIV DUP4 GT DUP3 ISZERO ISZERO AND ISZERO PUSH2 0x1BA2 JUMPI PUSH2 0x1BA2 PUSH2 0x1BD9 JUMP JUMPDEST POP MUL SWAP1 JUMP JUMPDEST PUSH1 0x0 DUP3 DUP3 LT ISZERO PUSH2 0x1BB9 JUMPI PUSH2 0x1BB9 PUSH2 0x1BD9 JUMP JUMPDEST POP SUB SWAP1 JUMP JUMPDEST PUSH1 0x0 PUSH1 0x0 NOT DUP3 EQ ISZERO PUSH2 0x1BD2 JUMPI PUSH2 0x1BD2 PUSH2 0x1BD9 JUMP JUMPDEST POP PUSH1 0x1 ADD SWAP1 JUMP JUMPDEST PUSH4 0x4E487B71 PUSH1 0xE0 SHL PUSH1 0x0 MSTORE PUSH1 0x11 PUSH1 0x4 MSTORE PUSH1 0x24 PUSH1 0x0 REVERT JUMPDEST PUSH4 0x4E487B71 PUSH1 0xE0 SHL PUSH1 0x0 MSTORE PUSH1 0x41 PUSH1 0x4 MSTORE PUSH1 0x24 PUSH1 0x0 REVERT JUMPDEST PUSH1 0x1 PUSH1 0x1 PUSH1 0xA0 SHL SUB DUP2 AND DUP2 EQ PUSH2 0x5A4 JUMPI PUSH1 0x0 DUP1 REVERT JUMPDEST DUP1 ISZERO ISZERO DUP2 EQ PUSH2 0x5A4 JUMPI PUSH1 0x0 DUP1 REVERT INVALID LOG2 PUSH5 0x6970667358 0x22 SLT KECCAK256 DUP3 0x2B 0xD DUP2 0x4C RETURNDATACOPY DUP16 PUSH7 0x32C0EE1D8AAD0F DUP15 SHL SHL 0xE2 SWAP10 0x5C SWAP1 SWAP1 PUSH5 0x8530A1D8A8 SWAP4 0xBC REVERT PUSH5 0x736F6C6343 STOP ADDMOD SDIV STOP CALLER "
				},
				"gasEstimates": {
					"creation": {
						"codeDepositCost": "1452400",
						"executionCost": "infinite",
						"totalCost": "infinite"
					},
					"external": {
						"WETH()": "2448",
						"backToken()": "infinite",
						"buyerInfo(address)": "8990",
						"checkAdminAddress()": "2521",
						"deposit(uint256)": "infinite",
						"feeAnyone()": "2407",
						"getBalance(address)": "3094",
						"initialSaleInfor(address,address,address,uint256[9])": "infinite",
						"owner()": "2409",
						"ownerClaimAndRefundToken()": "infinite",
						"presaleStatus()": "13078",
						"renounceOwnership()": "28162",
						"saleInfor()": "25810",
						"saleTotalSupply()": "4441",
						"status()": "4555",
						"totalFee()": "2363",
						"transferOwnership(address)": "infinite",
						"userClaimEmergency()": "infinite",
						"userClaimOrRefundWhenSaleSuccess(bool)": "infinite",
						"userFee(address)": "2536",
						"userRefundEmergency()": "infinite"
					}
				},
				"methodIdentifiers": {
					"WETH()": "ad5c4648",
					"backToken()": "861faf5f",
					"buyerInfo(address)": "e2d3f423",
					"checkAdminAddress()": "cad5b0f7",
					"deposit(uint256)": "b6b55f25",
					"feeAnyone()": "3b5ef2ad",
					"getBalance(address)": "f8b2cb4f",
					"initialSaleInfor(address,address,address,uint256[9])": "8f1eae4c",
					"owner()": "8da5cb5b",
					"ownerClaimAndRefundToken()": "8edf18e6",
					"presaleStatus()": "acfb2355",
					"renounceOwnership()": "715018a6",
					"saleInfor()": "18856a2f",
					"saleTotalSupply()": "12e5d0b9",
					"status()": "200d2ed2",
					"totalFee()": "1df4ccfc",
					"transferOwnership(address)": "f2fde38b",
					"userClaimEmergency()": "ab33985a",
					"userClaimOrRefundWhenSaleSuccess(bool)": "eb002bb0",
					"userFee(address)": "56c5f349",
					"userRefundEmergency()": "95661e70"
				}
			},
			"storageLayout": {
				"storage": [
					{
						"astId": 2524,
						"contract": "Ethereum/Presale.sol:Presale",
						"label": "_status",
						"offset": 0,
						"slot": "0",
						"type": "t_uint256"
					},
					{
						"astId": 2416,
						"contract": "Ethereum/Presale.sol:Presale",
						"label": "_owner",
						"offset": 0,
						"slot": "1",
						"type": "t_address"
					},
					{
						"astId": 772,
						"contract": "Ethereum/Presale.sol:Presale",
						"label": "buyerInfo",
						"offset": 0,
						"slot": "2",
						"type": "t_mapping(t_address,t_struct(BuyerInfo)749_storage)"
					},
					{
						"astId": 776,
						"contract": "Ethereum/Presale.sol:Presale",
						"label": "userFee",
						"offset": 0,
						"slot": "3",
						"type": "t_mapping(t_address,t_uint256)"
					},
					{
						"astId": 779,
						"contract": "Ethereum/Presale.sol:Presale",
						"label": "presaleStatus",
						"offset": 0,
						"slot": "4",
						"type": "t_struct(PresaleStatus)767_storage"
					},
					{
						"astId": 782,
						"contract": "Ethereum/Presale.sol:Presale",
						"label": "saleTotalSupply",
						"offset": 0,
						"slot": "11",
						"type": "t_struct(SaleTotalSupply)740_storage"
					},
					{
						"astId": 785,
						"contract": "Ethereum/Presale.sol:Presale",
						"label": "saleInfor",
						"offset": 0,
						"slot": "13",
						"type": "t_struct(SaleInfor)735_storage"
					},
					{
						"astId": 788,
						"contract": "Ethereum/Presale.sol:Presale",
						"label": "WETH",
						"offset": 0,
						"slot": "25",
						"type": "t_contract(IERC20)663"
					},
					{
						"astId": 790,
						"contract": "Ethereum/Presale.sol:Presale",
						"label": "feeAnyone",
						"offset": 0,
						"slot": "26",
						"type": "t_uint256"
					},
					{
						"astId": 793,
						"contract": "Ethereum/Presale.sol:Presale",
						"label": "admins",
						"offset": 0,
						"slot": "27",
						"type": "t_struct(AddressSet)2121_storage"
					},
					{
						"astId": 795,
						"contract": "Ethereum/Presale.sol:Presale",
						"label": "totalFee",
						"offset": 0,
						"slot": "29",
						"type": "t_uint256"
					}
				],
				"types": {
					"t_address": {
						"encoding": "inplace",
						"label": "address",
						"numberOfBytes": "20"
					},
					"t_address_payable": {
						"encoding": "inplace",
						"label": "address payable",
						"numberOfBytes": "20"
					},
					"t_array(t_address)dyn_storage": {
						"base": "t_address",
						"encoding": "dynamic_array",
						"label": "address[]",
						"numberOfBytes": "32"
					},
					"t_array(t_bytes32)dyn_storage": {
						"base": "t_bytes32",
						"encoding": "dynamic_array",
						"label": "bytes32[]",
						"numberOfBytes": "32"
					},
					"t_bool": {
						"encoding": "inplace",
						"label": "bool",
						"numberOfBytes": "1"
					},
					"t_bytes32": {
						"encoding": "inplace",
						"label": "bytes32",
						"numberOfBytes": "32"
					},
					"t_contract(ERC20)585": {
						"encoding": "inplace",
						"label": "contract ERC20",
						"numberOfBytes": "20"
					},
					"t_contract(IERC20)663": {
						"encoding": "inplace",
						"label": "contract IERC20",
						"numberOfBytes": "20"
					},
					"t_mapping(t_address,t_struct(BuyerInfo)749_storage)": {
						"encoding": "mapping",
						"key": "t_address",
						"label": "mapping(address => struct Presale.BuyerInfo)",
						"numberOfBytes": "32",
						"value": "t_struct(BuyerInfo)749_storage"
					},
					"t_mapping(t_address,t_uint256)": {
						"encoding": "mapping",
						"key": "t_address",
						"label": "mapping(address => uint256)",
						"numberOfBytes": "32",
						"value": "t_uint256"
					},
					"t_mapping(t_bytes32,t_uint256)": {
						"encoding": "mapping",
						"key": "t_bytes32",
						"label": "mapping(bytes32 => uint256)",
						"numberOfBytes": "32",
						"value": "t_uint256"
					},
					"t_struct(AddressSet)2121_storage": {
						"encoding": "inplace",
						"label": "struct EnumerableSet.AddressSet",
						"members": [
							{
								"astId": 2120,
								"contract": "Ethereum/Presale.sol:Presale",
								"label": "_inner",
								"offset": 0,
								"slot": "0",
								"type": "t_struct(Set)1820_storage"
							}
						],
						"numberOfBytes": "64"
					},
					"t_struct(BuyerInfo)749_storage": {
						"encoding": "inplace",
						"label": "struct Presale.BuyerInfo",
						"members": [
							{
								"astId": 742,
								"contract": "Ethereum/Presale.sol:Presale",
								"label": "baseDeposit",
								"offset": 0,
								"slot": "0",
								"type": "t_uint256"
							},
							{
								"astId": 744,
								"contract": "Ethereum/Presale.sol:Presale",
								"label": "tokenOwner",
								"offset": 0,
								"slot": "1",
								"type": "t_uint256"
							},
							{
								"astId": 746,
								"contract": "Ethereum/Presale.sol:Presale",
								"label": "lastWithDraw",
								"offset": 0,
								"slot": "2",
								"type": "t_uint256"
							},
							{
								"astId": 748,
								"contract": "Ethereum/Presale.sol:Presale",
								"label": "totalTokenWithDraw",
								"offset": 0,
								"slot": "3",
								"type": "t_uint256"
							}
						],
						"numberOfBytes": "128"
					},
					"t_struct(PresaleStatus)767_storage": {
						"encoding": "inplace",
						"label": "struct Presale.PresaleStatus",
						"members": [
							{
								"astId": 751,
								"contract": "Ethereum/Presale.sol:Presale",
								"label": "totalBaseCollected",
								"offset": 0,
								"slot": "0",
								"type": "t_uint256"
							},
							{
								"astId": 753,
								"contract": "Ethereum/Presale.sol:Presale",
								"label": "totalTokenSold",
								"offset": 0,
								"slot": "1",
								"type": "t_uint256"
							},
							{
								"astId": 755,
								"contract": "Ethereum/Presale.sol:Presale",
								"label": "totalTokenWithDraw",
								"offset": 0,
								"slot": "2",
								"type": "t_uint256"
							},
							{
								"astId": 757,
								"contract": "Ethereum/Presale.sol:Presale",
								"label": "totalBaseWithDraw",
								"offset": 0,
								"slot": "3",
								"type": "t_uint256"
							},
							{
								"astId": 759,
								"contract": "Ethereum/Presale.sol:Presale",
								"label": "numberBuyer",
								"offset": 0,
								"slot": "4",
								"type": "t_uint256"
							},
							{
								"astId": 761,
								"contract": "Ethereum/Presale.sol:Presale",
								"label": "isOwnerClaimSaleToken",
								"offset": 0,
								"slot": "5",
								"type": "t_bool"
							},
							{
								"astId": 763,
								"contract": "Ethereum/Presale.sol:Presale",
								"label": "isOwnerRefundBaseToken",
								"offset": 1,
								"slot": "5",
								"type": "t_bool"
							},
							{
								"astId": 766,
								"contract": "Ethereum/Presale.sol:Presale",
								"label": "admin",
								"offset": 0,
								"slot": "6",
								"type": "t_array(t_address)dyn_storage"
							}
						],
						"numberOfBytes": "224"
					},
					"t_struct(SaleInfor)735_storage": {
						"encoding": "inplace",
						"label": "struct Presale.SaleInfor",
						"members": [
							{
								"astId": 710,
								"contract": "Ethereum/Presale.sol:Presale",
								"label": "presaleOwner",
								"offset": 0,
								"slot": "0",
								"type": "t_address_payable"
							},
							{
								"astId": 713,
								"contract": "Ethereum/Presale.sol:Presale",
								"label": "saleToken",
								"offset": 0,
								"slot": "1",
								"type": "t_contract(ERC20)585"
							},
							{
								"astId": 716,
								"contract": "Ethereum/Presale.sol:Presale",
								"label": "baseToken",
								"offset": 0,
								"slot": "2",
								"type": "t_contract(ERC20)585"
							},
							{
								"astId": 718,
								"contract": "Ethereum/Presale.sol:Presale",
								"label": "tokenPrice",
								"offset": 0,
								"slot": "3",
								"type": "t_uint256"
							},
							{
								"astId": 720,
								"contract": "Ethereum/Presale.sol:Presale",
								"label": "startSale",
								"offset": 0,
								"slot": "4",
								"type": "t_uint256"
							},
							{
								"astId": 722,
								"contract": "Ethereum/Presale.sol:Presale",
								"label": "endSale",
								"offset": 0,
								"slot": "5",
								"type": "t_uint256"
							},
							{
								"astId": 724,
								"contract": "Ethereum/Presale.sol:Presale",
								"label": "minSpendPerBuyer",
								"offset": 0,
								"slot": "6",
								"type": "t_uint256"
							},
							{
								"astId": 726,
								"contract": "Ethereum/Presale.sol:Presale",
								"label": "maxSpendPerBuyer",
								"offset": 0,
								"slot": "7",
								"type": "t_uint256"
							},
							{
								"astId": 728,
								"contract": "Ethereum/Presale.sol:Presale",
								"label": "refundFee",
								"offset": 0,
								"slot": "8",
								"type": "t_uint256"
							},
							{
								"astId": 730,
								"contract": "Ethereum/Presale.sol:Presale",
								"label": "claimFee",
								"offset": 0,
								"slot": "9",
								"type": "t_uint256"
							},
							{
								"astId": 732,
								"contract": "Ethereum/Presale.sol:Presale",
								"label": "saleIsBaseToken",
								"offset": 0,
								"slot": "10",
								"type": "t_bool"
							},
							{
								"astId": 734,
								"contract": "Ethereum/Presale.sol:Presale",
								"label": "amountTokenForSale",
								"offset": 0,
								"slot": "11",
								"type": "t_uint256"
							}
						],
						"numberOfBytes": "384"
					},
					"t_struct(SaleTotalSupply)740_storage": {
						"encoding": "inplace",
						"label": "struct Presale.SaleTotalSupply",
						"members": [
							{
								"astId": 737,
								"contract": "Ethereum/Presale.sol:Presale",
								"label": "hardCap",
								"offset": 0,
								"slot": "0",
								"type": "t_uint256"
							},
							{
								"astId": 739,
								"contract": "Ethereum/Presale.sol:Presale",
								"label": "softCap",
								"offset": 0,
								"slot": "1",
								"type": "t_uint256"
							}
						],
						"numberOfBytes": "64"
					},
					"t_struct(Set)1820_storage": {
						"encoding": "inplace",
						"label": "struct EnumerableSet.Set",
						"members": [
							{
								"astId": 1815,
								"contract": "Ethereum/Presale.sol:Presale",
								"label": "_values",
								"offset": 0,
								"slot": "0",
								"type": "t_array(t_bytes32)dyn_storage"
							},
							{
								"astId": 1819,
								"contract": "Ethereum/Presale.sol:Presale",
								"label": "_indexes",
								"offset": 0,
								"slot": "1",
								"type": "t_mapping(t_bytes32,t_uint256)"
							}
						],
						"numberOfBytes": "64"
					},
					"t_uint256": {
						"encoding": "inplace",
						"label": "uint256",
						"numberOfBytes": "32"
					}
				}
			},
			"userdoc": {
				"kind": "user",
				"methods": {},
				"version": 1
			}
		}
	}
}