{
	"Ethereum/Presale.sol": {
		"Presale": {
			"abi": [
				{
					"inputs": [],
					"name": "backToken",
					"outputs": [],
					"stateMutability": "payable",
					"type": "function"
				},
				{
					"inputs": [
						{
							"internalType": "address",
							"name": "",
							"type": "address"
						}
					],
					"name": "buyerInfo",
					"outputs": [
						{
							"internalType": "uint256",
							"name": "baseDeposit",
							"type": "uint256"
						},
						{
							"internalType": "uint256",
							"name": "tokenOwner",
							"type": "uint256"
						},
						{
							"internalType": "uint256",
							"name": "lastWithDraw",
							"type": "uint256"
						},
						{
							"internalType": "uint256",
							"name": "totalTokenWithDraw",
							"type": "uint256"
						},
						{
							"internalType": "bool",
							"name": "isRefund",
							"type": "bool"
						},
						{
							"internalType": "bool",
							"name": "isClaim",
							"type": "bool"
						}
					],
					"stateMutability": "view",
					"type": "function"
				},
				{
					"inputs": [
						{
							"internalType": "uint256",
							"name": "amount",
							"type": "uint256"
						}
					],
					"name": "depodit",
					"outputs": [],
					"stateMutability": "payable",
					"type": "function"
				},
				{
					"inputs": [
						{
							"internalType": "address",
							"name": "_address",
							"type": "address"
						}
					],
					"name": "getBalance",
					"outputs": [
						{
							"internalType": "uint256",
							"name": "",
							"type": "uint256"
						}
					],
					"stateMutability": "view",
					"type": "function"
				},
				{
					"inputs": [
						{
							"internalType": "address payable",
							"name": "_presaleOwner",
							"type": "address"
						},
						{
							"internalType": "contract IERC20",
							"name": "_saleToken",
							"type": "address"
						},
						{
							"internalType": "contract IERC20",
							"name": "_baseTOken",
							"type": "address"
						},
						{
							"internalType": "uint256[9]",
							"name": "datas",
							"type": "uint256[9]"
						}
					],
					"name": "initialSaleInfor",
					"outputs": [],
					"stateMutability": "nonpayable",
					"type": "function"
				},
				{
					"inputs": [],
					"name": "presaleStatus",
					"outputs": [
						{
							"internalType": "uint256",
							"name": "totalBaseCollected",
							"type": "uint256"
						},
						{
							"internalType": "uint256",
							"name": "totalTokenSold",
							"type": "uint256"
						},
						{
							"internalType": "uint256",
							"name": "totalTokenWithDraw",
							"type": "uint256"
						},
						{
							"internalType": "uint256",
							"name": "totalBaseWithDraw",
							"type": "uint256"
						},
						{
							"internalType": "uint256",
							"name": "numByer",
							"type": "uint256"
						},
						{
							"internalType": "uint256",
							"name": "totalFee",
							"type": "uint256"
						}
					],
					"stateMutability": "view",
					"type": "function"
				},
				{
					"inputs": [],
					"name": "saleInfor",
					"outputs": [
						{
							"internalType": "address payable",
							"name": "presaleOwner",
							"type": "address"
						},
						{
							"internalType": "contract IERC20",
							"name": "saleToken",
							"type": "address"
						},
						{
							"internalType": "contract IERC20",
							"name": "baseToken",
							"type": "address"
						},
						{
							"internalType": "uint256",
							"name": "tokenPrice",
							"type": "uint256"
						},
						{
							"internalType": "uint256",
							"name": "startSale",
							"type": "uint256"
						},
						{
							"internalType": "uint256",
							"name": "endSale",
							"type": "uint256"
						},
						{
							"internalType": "uint256",
							"name": "valueSwapERC20",
							"type": "uint256"
						},
						{
							"internalType": "uint256",
							"name": "feeTransaction",
							"type": "uint256"
						},
						{
							"internalType": "uint256",
							"name": "minSpendPerBuyer",
							"type": "uint256"
						},
						{
							"internalType": "uint256",
							"name": "maxSpendPerBuyer",
							"type": "uint256"
						},
						{
							"internalType": "uint256",
							"name": "refundFee",
							"type": "uint256"
						},
						{
							"internalType": "uint256",
							"name": "claimFee",
							"type": "uint256"
						}
					],
					"stateMutability": "view",
					"type": "function"
				},
				{
					"inputs": [],
					"name": "status",
					"outputs": [
						{
							"internalType": "uint256",
							"name": "",
							"type": "uint256"
						}
					],
					"stateMutability": "view",
					"type": "function"
				},
				{
					"inputs": [
						{
							"internalType": "address",
							"name": "",
							"type": "address"
						}
					],
					"name": "userFee",
					"outputs": [
						{
							"internalType": "uint256",
							"name": "",
							"type": "uint256"
						}
					],
					"stateMutability": "view",
					"type": "function"
				}
			],
			"devdoc": {
				"kind": "dev",
				"methods": {},
				"version": 1
			},
			"evm": {
				"assembly": "    /* \"Ethereum/Presale.sol\":193:2901  contract Presale is ReentrancyGuard{\r... */\n  mstore(0x40, 0x80)\n  callvalue\n  dup1\n  iszero\n  tag_1\n  jumpi\n  0x00\n  dup1\n  revert\ntag_1:\n  pop\n    /* \"Utils/ReentrancyGuard.sol\":1734:1735  1 */\n  0x01\n    /* \"Utils/ReentrancyGuard.sol\":1845:1852  _status */\n  0x00\n    /* \"Utils/ReentrancyGuard.sol\":1845:1867  _status = _NOT_ENTERED */\n  dup2\n  swap1\n  sstore\n  pop\n    /* \"Ethereum/Presale.sol\":193:2901  contract Presale is ReentrancyGuard{\r... */\n  dataSize(sub_0)\n  dup1\n  dataOffset(sub_0)\n  0x00\n  codecopy\n  0x00\n  return\nstop\n\nsub_0: assembly {\n        /* \"Ethereum/Presale.sol\":193:2901  contract Presale is ReentrancyGuard{\r... */\n      mstore(0x40, 0x80)\n      jumpi(tag_1, lt(calldatasize, 0x04))\n      shr(0xe0, calldataload(0x00))\n      dup1\n      0x861faf5f\n      gt\n      tag_11\n      jumpi\n      dup1\n      0x861faf5f\n      eq\n      tag_6\n      jumpi\n      dup1\n      0x8f1eae4c\n      eq\n      tag_7\n      jumpi\n      dup1\n      0xacfb2355\n      eq\n      tag_8\n      jumpi\n      dup1\n      0xe2d3f423\n      eq\n      tag_9\n      jumpi\n      dup1\n      0xf8b2cb4f\n      eq\n      tag_10\n      jumpi\n      jump(tag_1)\n    tag_11:\n      dup1\n      0x18856a2f\n      eq\n      tag_2\n      jumpi\n      dup1\n      0x200d2ed2\n      eq\n      tag_3\n      jumpi\n      dup1\n      0x56c5f349\n      eq\n      tag_4\n      jumpi\n      dup1\n      0x79647833\n      eq\n      tag_5\n      jumpi\n    tag_1:\n      0x00\n      dup1\n      revert\n        /* \"Ethereum/Presale.sol\":1222:1248  SaleInfor public saleInfor */\n    tag_2:\n      callvalue\n      dup1\n      iszero\n      tag_12\n      jumpi\n      0x00\n      dup1\n      revert\n    tag_12:\n      pop\n      tag_13\n      tag_14\n      jump\t// in\n    tag_13:\n      mload(0x40)\n      tag_15\n      swap13\n      swap12\n      swap11\n      swap10\n      swap9\n      swap8\n      swap7\n      swap6\n      swap5\n      swap4\n      swap3\n      swap2\n      swap1\n      tag_16\n      jump\t// in\n    tag_15:\n      mload(0x40)\n      dup1\n      swap2\n      sub\n      swap1\n      return\n        /* \"Ethereum/Presale.sol\":1972:2311  function status() external view returns(uint256) {\r... */\n    tag_3:\n      callvalue\n      dup1\n      iszero\n      tag_17\n      jumpi\n      0x00\n      dup1\n      revert\n    tag_17:\n      pop\n      tag_18\n      tag_19\n      jump\t// in\n    tag_18:\n      mload(0x40)\n      tag_20\n      swap2\n      swap1\n      tag_21\n      jump\t// in\n    tag_20:\n      mload(0x40)\n      dup1\n      swap2\n      sub\n      swap1\n      return\n        /* \"Ethereum/Presale.sol\":1132:1174  mapping(address => uint256) public userFee */\n    tag_4:\n      callvalue\n      dup1\n      iszero\n      tag_22\n      jumpi\n      0x00\n      dup1\n      revert\n    tag_22:\n      pop\n      tag_23\n      0x04\n      dup1\n      calldatasize\n      sub\n      dup2\n      add\n      swap1\n      tag_24\n      swap2\n      swap1\n      tag_25\n      jump\t// in\n    tag_24:\n      tag_26\n      jump\t// in\n    tag_23:\n      mload(0x40)\n      tag_27\n      swap2\n      swap1\n      tag_21\n      jump\t// in\n    tag_27:\n      mload(0x40)\n      dup1\n      swap2\n      sub\n      swap1\n      return\n        /* \"Ethereum/Presale.sol\":2351:2659  function depodit(uint256 amount) external payable nonReentrant {\r... */\n    tag_5:\n      tag_28\n      0x04\n      dup1\n      calldatasize\n      sub\n      dup2\n      add\n      swap1\n      tag_29\n      swap2\n      swap1\n      tag_30\n      jump\t// in\n    tag_29:\n      tag_31\n      jump\t// in\n    tag_28:\n      stop\n        /* \"Ethereum/Presale.sol\":2788:2896  function backToken() external payable {\r... */\n    tag_6:\n      tag_32\n      tag_33\n      jump\t// in\n    tag_32:\n      stop\n        /* \"Ethereum/Presale.sol\":1257:1963  function initialSaleInfor(\r... */\n    tag_7:\n      callvalue\n      dup1\n      iszero\n      tag_34\n      jumpi\n      0x00\n      dup1\n      revert\n    tag_34:\n      pop\n      tag_35\n      0x04\n      dup1\n      calldatasize\n      sub\n      dup2\n      add\n      swap1\n      tag_36\n      swap2\n      swap1\n      tag_37\n      jump\t// in\n    tag_36:\n      tag_38\n      jump\t// in\n    tag_35:\n      stop\n        /* \"Ethereum/Presale.sol\":1181:1215  PresaleStatus public presaleStatus */\n    tag_8:\n      callvalue\n      dup1\n      iszero\n      tag_39\n      jumpi\n      0x00\n      dup1\n      revert\n    tag_39:\n      pop\n      tag_40\n      tag_41\n      jump\t// in\n    tag_40:\n      mload(0x40)\n      tag_42\n      swap7\n      swap6\n      swap5\n      swap4\n      swap3\n      swap2\n      swap1\n      tag_43\n      jump\t// in\n    tag_42:\n      mload(0x40)\n      dup1\n      swap2\n      sub\n      swap1\n      return\n        /* \"Ethereum/Presale.sol\":1079:1125  mapping(address => BuyerInfo) public buyerInfo */\n    tag_9:\n      callvalue\n      dup1\n      iszero\n      tag_44\n      jumpi\n      0x00\n      dup1\n      revert\n    tag_44:\n      pop\n      tag_45\n      0x04\n      dup1\n      calldatasize\n      sub\n      dup2\n      add\n      swap1\n      tag_46\n      swap2\n      swap1\n      tag_25\n      jump\t// in\n    tag_46:\n      tag_47\n      jump\t// in\n    tag_45:\n      mload(0x40)\n      tag_48\n      swap7\n      swap6\n      swap5\n      swap4\n      swap3\n      swap2\n      swap1\n      tag_49\n      jump\t// in\n    tag_48:\n      mload(0x40)\n      dup1\n      swap2\n      sub\n      swap1\n      return\n        /* \"Ethereum/Presale.sol\":2667:2778  function getBalance(address _address) external view returns(uint256) {\r... */\n    tag_10:\n      callvalue\n      dup1\n      iszero\n      tag_50\n      jumpi\n      0x00\n      dup1\n      revert\n    tag_50:\n      pop\n      tag_51\n      0x04\n      dup1\n      calldatasize\n      sub\n      dup2\n      add\n      swap1\n      tag_52\n      swap2\n      swap1\n      tag_25\n      jump\t// in\n    tag_52:\n      tag_53\n      jump\t// in\n    tag_51:\n      mload(0x40)\n      tag_54\n      swap2\n      swap1\n      tag_21\n      jump\t// in\n    tag_54:\n      mload(0x40)\n      dup1\n      swap2\n      sub\n      swap1\n      return\n        /* \"Ethereum/Presale.sol\":1222:1248  SaleInfor public saleInfor */\n    tag_14:\n      0x09\n      dup1\n      0x00\n      add\n      0x00\n      swap1\n      sload\n      swap1\n      0x0100\n      exp\n      swap1\n      div\n      0xffffffffffffffffffffffffffffffffffffffff\n      and\n      swap1\n      dup1\n      0x01\n      add\n      0x00\n      swap1\n      sload\n      swap1\n      0x0100\n      exp\n      swap1\n      div\n      0xffffffffffffffffffffffffffffffffffffffff\n      and\n      swap1\n      dup1\n      0x02\n      add\n      0x00\n      swap1\n      sload\n      swap1\n      0x0100\n      exp\n      swap1\n      div\n      0xffffffffffffffffffffffffffffffffffffffff\n      and\n      swap1\n      dup1\n      0x03\n      add\n      sload\n      swap1\n      dup1\n      0x04\n      add\n      sload\n      swap1\n      dup1\n      0x05\n      add\n      sload\n      swap1\n      dup1\n      0x06\n      add\n      sload\n      swap1\n      dup1\n      0x07\n      add\n      sload\n      swap1\n      dup1\n      0x08\n      add\n      sload\n      swap1\n      dup1\n      0x09\n      add\n      sload\n      swap1\n      dup1\n      0x0a\n      add\n      sload\n      swap1\n      dup1\n      0x0b\n      add\n      sload\n      swap1\n      pop\n      dup13\n      jump\t// out\n        /* \"Ethereum/Presale.sol\":1972:2311  function status() external view returns(uint256) {\r... */\n    tag_19:\n        /* \"Ethereum/Presale.sol\":2012:2019  uint256 */\n      0x00\n        /* \"Ethereum/Presale.sol\":2053:2062  saleInfor */\n      0x09\n        /* \"Ethereum/Presale.sol\":2053:2072  saleInfor.startSale */\n      0x04\n      add\n      sload\n        /* \"Ethereum/Presale.sol\":2035:2050  block.timestamp */\n      timestamp\n        /* \"Ethereum/Presale.sol\":2035:2072  block.timestamp < saleInfor.startSale */\n      lt\n        /* \"Ethereum/Presale.sol\":2032:2304  if(block.timestamp < saleInfor.startSale) {\r... */\n      iszero\n      tag_56\n      jumpi\n        /* \"Ethereum/Presale.sol\":2096:2097  0 */\n      0x00\n        /* \"Ethereum/Presale.sol\":2089:2097  return 0 */\n      swap1\n      pop\n      jump(tag_55)\n        /* \"Ethereum/Presale.sol\":2032:2304  if(block.timestamp < saleInfor.startSale) {\r... */\n    tag_56:\n        /* \"Ethereum/Presale.sol\":2163:2172  saleInfor */\n      0x09\n        /* \"Ethereum/Presale.sol\":2163:2180  saleInfor.endSale */\n      0x05\n      add\n      sload\n        /* \"Ethereum/Presale.sol\":2145:2160  block.timestamp */\n      timestamp\n        /* \"Ethereum/Presale.sol\":2145:2180  block.timestamp > saleInfor.endSale */\n      gt\n        /* \"Ethereum/Presale.sol\":2142:2293  if(block.timestamp > saleInfor.endSale) {\r... */\n      iszero\n      tag_58\n      jumpi\n        /* \"Ethereum/Presale.sol\":2208:2209  2 */\n      0x02\n        /* \"Ethereum/Presale.sol\":2201:2209  return 2 */\n      swap1\n      pop\n      jump(tag_55)\n        /* \"Ethereum/Presale.sol\":2142:2293  if(block.timestamp > saleInfor.endSale) {\r... */\n    tag_58:\n        /* \"Ethereum/Presale.sol\":2266:2267  1 */\n      0x01\n        /* \"Ethereum/Presale.sol\":2259:2267  return 1 */\n      swap1\n      pop\n        /* \"Ethereum/Presale.sol\":1972:2311  function status() external view returns(uint256) {\r... */\n    tag_55:\n      swap1\n      jump\t// out\n        /* \"Ethereum/Presale.sol\":1132:1174  mapping(address => uint256) public userFee */\n    tag_26:\n      mstore(0x20, 0x02)\n      dup1\n      0x00\n      mstore\n      keccak256(0x00, 0x40)\n      0x00\n      swap2\n      pop\n      swap1\n      pop\n      sload\n      dup2\n      jump\t// out\n        /* \"Ethereum/Presale.sol\":2351:2659  function depodit(uint256 amount) external payable nonReentrant {\r... */\n    tag_31:\n        /* \"Utils/ReentrancyGuard.sol\":1778:1779  2 */\n      0x02\n        /* \"Utils/ReentrancyGuard.sol\":2376:2383  _status */\n      sload(0x00)\n        /* \"Utils/ReentrancyGuard.sol\":2376:2395  _status != _ENTERED */\n      eq\n      iszero\n        /* \"Utils/ReentrancyGuard.sol\":2368:2431  require(_status != _ENTERED, \"ReentrancyGuard: reentrant call\") */\n      tag_61\n      jumpi\n      mload(0x40)\n      0x08c379a000000000000000000000000000000000000000000000000000000000\n      dup2\n      mstore\n      0x04\n      add\n      tag_62\n      swap1\n      tag_63\n      jump\t// in\n    tag_62:\n      mload(0x40)\n      dup1\n      swap2\n      sub\n      swap1\n      revert\n    tag_61:\n        /* \"Utils/ReentrancyGuard.sol\":1778:1779  2 */\n      0x02\n        /* \"Utils/ReentrancyGuard.sol\":2509:2516  _status */\n      0x00\n        /* \"Utils/ReentrancyGuard.sol\":2509:2527  _status = _ENTERED */\n      dup2\n      swap1\n      sstore\n      pop\n        /* \"Ethereum/Presale.sol\":2458:2464  amount */\n      dup1\n        /* \"Ethereum/Presale.sol\":2433:2454  address(this).balance */\n      selfbalance\n        /* \"Ethereum/Presale.sol\":2433:2464  address(this).balance >= amount */\n      lt\n      iszero\n        /* \"Ethereum/Presale.sol\":2425:2498  require(address(this).balance >= amount, \"Address: insufficient balance\") */\n      tag_65\n      jumpi\n      mload(0x40)\n      0x08c379a000000000000000000000000000000000000000000000000000000000\n      dup2\n      mstore\n      0x04\n      add\n      tag_66\n      swap1\n      tag_67\n      jump\t// in\n    tag_66:\n      mload(0x40)\n      dup1\n      swap2\n      sub\n      swap1\n      revert\n    tag_65:\n        /* \"Ethereum/Presale.sol\":2510:2522  bool success */\n      0x00\n        /* \"Ethereum/Presale.sol\":2528:2538  msg.sender */\n      caller\n        /* \"Ethereum/Presale.sol\":2528:2543  msg.sender.call */\n      0xffffffffffffffffffffffffffffffffffffffff\n      and\n        /* \"Ethereum/Presale.sol\":2551:2557  amount */\n      dup3\n        /* \"Ethereum/Presale.sol\":2528:2562  msg.sender.call{value: amount}(\"\") */\n      mload(0x40)\n      tag_68\n      swap1\n      tag_69\n      jump\t// in\n    tag_68:\n      0x00\n      mload(0x40)\n      dup1\n      dup4\n      sub\n      dup2\n      dup6\n      dup8\n      gas\n      call\n      swap3\n      pop\n      pop\n      pop\n      returndatasize\n      dup1\n      0x00\n      dup2\n      eq\n      tag_72\n      jumpi\n      mload(0x40)\n      swap2\n      pop\n      and(add(returndatasize, 0x3f), not(0x1f))\n      dup3\n      add\n      0x40\n      mstore\n      returndatasize\n      dup3\n      mstore\n      returndatasize\n      0x00\n      0x20\n      dup5\n      add\n      returndatacopy\n      jump(tag_71)\n    tag_72:\n      0x60\n      swap2\n      pop\n    tag_71:\n      pop\n        /* \"Ethereum/Presale.sol\":2509:2562  (bool success, ) = msg.sender.call{value: amount}(\"\") */\n      pop\n      swap1\n      pop\n        /* \"Ethereum/Presale.sol\":2581:2588  success */\n      dup1\n        /* \"Ethereum/Presale.sol\":2573:2651  require(success, \"Address: unable to send value, recipient may have reverted\") */\n      tag_73\n      jumpi\n      mload(0x40)\n      0x08c379a000000000000000000000000000000000000000000000000000000000\n      dup2\n      mstore\n      0x04\n      add\n      tag_74\n      swap1\n      tag_75\n      jump\t// in\n    tag_74:\n      mload(0x40)\n      dup1\n      swap2\n      sub\n      swap1\n      revert\n    tag_73:\n        /* \"Utils/ReentrancyGuard.sol\":2540:2541  _ */\n      pop\n        /* \"Utils/ReentrancyGuard.sol\":1734:1735  1 */\n      0x01\n        /* \"Utils/ReentrancyGuard.sol\":2688:2695  _status */\n      0x00\n        /* \"Utils/ReentrancyGuard.sol\":2688:2710  _status = _NOT_ENTERED */\n      dup2\n      swap1\n      sstore\n      pop\n        /* \"Ethereum/Presale.sol\":2351:2659  function depodit(uint256 amount) external payable nonReentrant {\r... */\n      pop\n      jump\t// out\n        /* \"Ethereum/Presale.sol\":2788:2896  function backToken() external payable {\r... */\n    tag_33:\n        /* \"Ethereum/Presale.sol\":2845:2855  msg.sender */\n      caller\n        /* \"Ethereum/Presale.sol\":2837:2865  payable(msg.sender).transfer */\n      0xffffffffffffffffffffffffffffffffffffffff\n      and\n        /* \"Ethereum/Presale.sol\":2837:2888  payable(msg.sender).transfer(address(this).balance) */\n      0x08fc\n        /* \"Ethereum/Presale.sol\":2866:2887  address(this).balance */\n      selfbalance\n        /* \"Ethereum/Presale.sol\":2837:2888  payable(msg.sender).transfer(address(this).balance) */\n      swap1\n      dup2\n      iszero\n      mul\n      swap1\n      mload(0x40)\n      0x00\n      mload(0x40)\n      dup1\n      dup4\n      sub\n      dup2\n      dup6\n      dup9\n      dup9\n      call\n      swap4\n      pop\n      pop\n      pop\n      pop\n      iszero\n      dup1\n      iszero\n      tag_78\n      jumpi\n      returndatasize\n      0x00\n      dup1\n      returndatacopy\n      revert(0x00, returndatasize)\n    tag_78:\n      pop\n        /* \"Ethereum/Presale.sol\":2788:2896  function backToken() external payable {\r... */\n      jump\t// out\n        /* \"Ethereum/Presale.sol\":1257:1963  function initialSaleInfor(\r... */\n    tag_38:\n        /* \"Ethereum/Presale.sol\":1465:1478  _presaleOwner */\n      dup4\n        /* \"Ethereum/Presale.sol\":1440:1449  saleInfor */\n      0x09\n        /* \"Ethereum/Presale.sol\":1440:1462  saleInfor.presaleOwner */\n      0x00\n      add\n      0x00\n        /* \"Ethereum/Presale.sol\":1440:1478  saleInfor.presaleOwner = _presaleOwner */\n      0x0100\n      exp\n      dup2\n      sload\n      dup2\n      0xffffffffffffffffffffffffffffffffffffffff\n      mul\n      not\n      and\n      swap1\n      dup4\n      0xffffffffffffffffffffffffffffffffffffffff\n      and\n      mul\n      or\n      swap1\n      sstore\n      pop\n        /* \"Ethereum/Presale.sol\":1511:1521  _saleToken */\n      dup3\n        /* \"Ethereum/Presale.sol\":1489:1498  saleInfor */\n      0x09\n        /* \"Ethereum/Presale.sol\":1489:1508  saleInfor.saleToken */\n      0x01\n      add\n      0x00\n        /* \"Ethereum/Presale.sol\":1489:1521  saleInfor.saleToken = _saleToken */\n      0x0100\n      exp\n      dup2\n      sload\n      dup2\n      0xffffffffffffffffffffffffffffffffffffffff\n      mul\n      not\n      and\n      swap1\n      dup4\n      0xffffffffffffffffffffffffffffffffffffffff\n      and\n      mul\n      or\n      swap1\n      sstore\n      pop\n        /* \"Ethereum/Presale.sol\":1554:1564  _baseTOken */\n      dup2\n        /* \"Ethereum/Presale.sol\":1532:1541  saleInfor */\n      0x09\n        /* \"Ethereum/Presale.sol\":1532:1551  saleInfor.baseToken */\n      0x02\n      add\n      0x00\n        /* \"Ethereum/Presale.sol\":1532:1564  saleInfor.baseToken = _baseTOken */\n      0x0100\n      exp\n      dup2\n      sload\n      dup2\n      0xffffffffffffffffffffffffffffffffffffffff\n      mul\n      not\n      and\n      swap1\n      dup4\n      0xffffffffffffffffffffffffffffffffffffffff\n      and\n      mul\n      or\n      swap1\n      sstore\n      pop\n        /* \"Ethereum/Presale.sol\":1598:1603  datas */\n      dup1\n        /* \"Ethereum/Presale.sol\":1604:1605  0 */\n      0x00\n        /* \"Ethereum/Presale.sol\":1598:1606  datas[0] */\n      0x09\n      dup2\n      lt\n      tag_80\n      jumpi\n      mstore(0x00, 0x4e487b7100000000000000000000000000000000000000000000000000000000)\n      mstore(0x04, 0x32)\n      revert(0x00, 0x24)\n    tag_80:\n      0x20\n      mul\n      add\n      mload\n        /* \"Ethereum/Presale.sol\":1575:1584  saleInfor */\n      0x09\n        /* \"Ethereum/Presale.sol\":1575:1595  saleInfor.tokenPrice */\n      0x03\n      add\n        /* \"Ethereum/Presale.sol\":1575:1606  saleInfor.tokenPrice = datas[0] */\n      dup2\n      swap1\n      sstore\n      pop\n        /* \"Ethereum/Presale.sol\":1639:1644  datas */\n      dup1\n        /* \"Ethereum/Presale.sol\":1645:1646  1 */\n      0x01\n        /* \"Ethereum/Presale.sol\":1639:1647  datas[1] */\n      0x09\n      dup2\n      lt\n      tag_81\n      jumpi\n      mstore(0x00, 0x4e487b7100000000000000000000000000000000000000000000000000000000)\n      mstore(0x04, 0x32)\n      revert(0x00, 0x24)\n    tag_81:\n      0x20\n      mul\n      add\n      mload\n        /* \"Ethereum/Presale.sol\":1617:1626  saleInfor */\n      0x09\n        /* \"Ethereum/Presale.sol\":1617:1636  saleInfor.startSale */\n      0x04\n      add\n        /* \"Ethereum/Presale.sol\":1617:1647  saleInfor.startSale = datas[1] */\n      dup2\n      swap1\n      sstore\n      pop\n        /* \"Ethereum/Presale.sol\":1678:1683  datas */\n      dup1\n        /* \"Ethereum/Presale.sol\":1684:1685  2 */\n      0x02\n        /* \"Ethereum/Presale.sol\":1678:1686  datas[2] */\n      0x09\n      dup2\n      lt\n      tag_82\n      jumpi\n      mstore(0x00, 0x4e487b7100000000000000000000000000000000000000000000000000000000)\n      mstore(0x04, 0x32)\n      revert(0x00, 0x24)\n    tag_82:\n      0x20\n      mul\n      add\n      mload\n        /* \"Ethereum/Presale.sol\":1658:1667  saleInfor */\n      0x09\n        /* \"Ethereum/Presale.sol\":1658:1675  saleInfor.endSale */\n      0x05\n      add\n        /* \"Ethereum/Presale.sol\":1658:1686  saleInfor.endSale = datas[2] */\n      dup2\n      swap1\n      sstore\n      pop\n        /* \"Ethereum/Presale.sol\":1724:1729  datas */\n      dup1\n        /* \"Ethereum/Presale.sol\":1730:1731  3 */\n      0x03\n        /* \"Ethereum/Presale.sol\":1724:1732  datas[3] */\n      0x09\n      dup2\n      lt\n      tag_83\n      jumpi\n      mstore(0x00, 0x4e487b7100000000000000000000000000000000000000000000000000000000)\n      mstore(0x04, 0x32)\n      revert(0x00, 0x24)\n    tag_83:\n      0x20\n      mul\n      add\n      mload\n        /* \"Ethereum/Presale.sol\":1697:1706  saleInfor */\n      0x09\n        /* \"Ethereum/Presale.sol\":1697:1721  saleInfor.valueSwapERC20 */\n      0x06\n      add\n        /* \"Ethereum/Presale.sol\":1697:1732  saleInfor.valueSwapERC20 = datas[3] */\n      dup2\n      swap1\n      sstore\n      pop\n        /* \"Ethereum/Presale.sol\":1770:1775  datas */\n      dup1\n        /* \"Ethereum/Presale.sol\":1776:1777  4 */\n      0x04\n        /* \"Ethereum/Presale.sol\":1770:1778  datas[4] */\n      0x09\n      dup2\n      lt\n      tag_84\n      jumpi\n      mstore(0x00, 0x4e487b7100000000000000000000000000000000000000000000000000000000)\n      mstore(0x04, 0x32)\n      revert(0x00, 0x24)\n    tag_84:\n      0x20\n      mul\n      add\n      mload\n        /* \"Ethereum/Presale.sol\":1743:1752  saleInfor */\n      0x09\n        /* \"Ethereum/Presale.sol\":1743:1767  saleInfor.feeTransaction */\n      0x07\n      add\n        /* \"Ethereum/Presale.sol\":1743:1778  saleInfor.feeTransaction = datas[4] */\n      dup2\n      swap1\n      sstore\n      pop\n        /* \"Ethereum/Presale.sol\":1818:1823  datas */\n      dup1\n        /* \"Ethereum/Presale.sol\":1824:1825  5 */\n      0x05\n        /* \"Ethereum/Presale.sol\":1818:1826  datas[5] */\n      0x09\n      dup2\n      lt\n      tag_85\n      jumpi\n      mstore(0x00, 0x4e487b7100000000000000000000000000000000000000000000000000000000)\n      mstore(0x04, 0x32)\n      revert(0x00, 0x24)\n    tag_85:\n      0x20\n      mul\n      add\n      mload\n        /* \"Ethereum/Presale.sol\":1789:1798  saleInfor */\n      0x09\n        /* \"Ethereum/Presale.sol\":1789:1815  saleInfor.minSpendPerBuyer */\n      0x08\n      add\n        /* \"Ethereum/Presale.sol\":1789:1826  saleInfor.minSpendPerBuyer = datas[5] */\n      dup2\n      swap1\n      sstore\n      pop\n        /* \"Ethereum/Presale.sol\":1866:1871  datas */\n      dup1\n        /* \"Ethereum/Presale.sol\":1872:1873  6 */\n      0x06\n        /* \"Ethereum/Presale.sol\":1866:1874  datas[6] */\n      0x09\n      dup2\n      lt\n      tag_86\n      jumpi\n      mstore(0x00, 0x4e487b7100000000000000000000000000000000000000000000000000000000)\n      mstore(0x04, 0x32)\n      revert(0x00, 0x24)\n    tag_86:\n      0x20\n      mul\n      add\n      mload\n        /* \"Ethereum/Presale.sol\":1837:1846  saleInfor */\n      0x09\n        /* \"Ethereum/Presale.sol\":1837:1863  saleInfor.maxSpendPerBuyer */\n      dup1\n      add\n        /* \"Ethereum/Presale.sol\":1837:1874  saleInfor.maxSpendPerBuyer = datas[6] */\n      dup2\n      swap1\n      sstore\n      pop\n        /* \"Ethereum/Presale.sol\":1907:1912  datas */\n      dup1\n        /* \"Ethereum/Presale.sol\":1913:1914  7 */\n      0x07\n        /* \"Ethereum/Presale.sol\":1907:1915  datas[7] */\n      0x09\n      dup2\n      lt\n      tag_87\n      jumpi\n      mstore(0x00, 0x4e487b7100000000000000000000000000000000000000000000000000000000)\n      mstore(0x04, 0x32)\n      revert(0x00, 0x24)\n    tag_87:\n      0x20\n      mul\n      add\n      mload\n        /* \"Ethereum/Presale.sol\":1885:1894  saleInfor */\n      0x09\n        /* \"Ethereum/Presale.sol\":1885:1904  saleInfor.refundFee */\n      0x0a\n      add\n        /* \"Ethereum/Presale.sol\":1885:1915  saleInfor.refundFee = datas[7] */\n      dup2\n      swap1\n      sstore\n      pop\n        /* \"Ethereum/Presale.sol\":1947:1952  datas */\n      dup1\n        /* \"Ethereum/Presale.sol\":1953:1954  8 */\n      0x08\n        /* \"Ethereum/Presale.sol\":1947:1955  datas[8] */\n      0x09\n      dup2\n      lt\n      tag_88\n      jumpi\n      mstore(0x00, 0x4e487b7100000000000000000000000000000000000000000000000000000000)\n      mstore(0x04, 0x32)\n      revert(0x00, 0x24)\n    tag_88:\n      0x20\n      mul\n      add\n      mload\n        /* \"Ethereum/Presale.sol\":1926:1935  saleInfor */\n      0x09\n        /* \"Ethereum/Presale.sol\":1926:1944  saleInfor.claimFee */\n      0x0b\n      add\n        /* \"Ethereum/Presale.sol\":1926:1955  saleInfor.claimFee = datas[8] */\n      dup2\n      swap1\n      sstore\n      pop\n        /* \"Ethereum/Presale.sol\":1257:1963  function initialSaleInfor(\r... */\n      pop\n      pop\n      pop\n      pop\n      jump\t// out\n        /* \"Ethereum/Presale.sol\":1181:1215  PresaleStatus public presaleStatus */\n    tag_41:\n      0x03\n      dup1\n      0x00\n      add\n      sload\n      swap1\n      dup1\n      0x01\n      add\n      sload\n      swap1\n      dup1\n      0x02\n      add\n      sload\n      swap1\n      dup1\n      0x03\n      add\n      sload\n      swap1\n      dup1\n      0x04\n      add\n      sload\n      swap1\n      dup1\n      0x05\n      add\n      sload\n      swap1\n      pop\n      dup7\n      jump\t// out\n        /* \"Ethereum/Presale.sol\":1079:1125  mapping(address => BuyerInfo) public buyerInfo */\n    tag_47:\n      mstore(0x20, 0x01)\n      dup1\n      0x00\n      mstore\n      keccak256(0x00, 0x40)\n      0x00\n      swap2\n      pop\n      swap1\n      pop\n      dup1\n      0x00\n      add\n      sload\n      swap1\n      dup1\n      0x01\n      add\n      sload\n      swap1\n      dup1\n      0x02\n      add\n      sload\n      swap1\n      dup1\n      0x03\n      add\n      sload\n      swap1\n      dup1\n      0x04\n      add\n      0x00\n      swap1\n      sload\n      swap1\n      0x0100\n      exp\n      swap1\n      div\n      0xff\n      and\n      swap1\n      dup1\n      0x04\n      add\n      0x01\n      swap1\n      sload\n      swap1\n      0x0100\n      exp\n      swap1\n      div\n      0xff\n      and\n      swap1\n      pop\n      dup7\n      jump\t// out\n        /* \"Ethereum/Presale.sol\":2667:2778  function getBalance(address _address) external view returns(uint256) {\r... */\n    tag_53:\n        /* \"Ethereum/Presale.sol\":2727:2734  uint256 */\n      0x00\n        /* \"Ethereum/Presale.sol\":2754:2762  _address */\n      dup2\n        /* \"Ethereum/Presale.sol\":2754:2770  _address.balance */\n      0xffffffffffffffffffffffffffffffffffffffff\n      and\n      balance\n        /* \"Ethereum/Presale.sol\":2747:2770  return _address.balance */\n      swap1\n      pop\n        /* \"Ethereum/Presale.sol\":2667:2778  function getBalance(address _address) external view returns(uint256) {\r... */\n      swap2\n      swap1\n      pop\n      jump\t// out\n        /* \"#utility.yul\":25:613   */\n    tag_91:\n        /* \"#utility.yul\":119:124   */\n      0x00\n        /* \"#utility.yul\":144:223   */\n      tag_93\n        /* \"#utility.yul\":160:222   */\n      tag_94\n        /* \"#utility.yul\":215:221   */\n      dup5\n        /* \"#utility.yul\":160:222   */\n      tag_95\n      jump\t// in\n    tag_94:\n        /* \"#utility.yul\":144:223   */\n      tag_96\n      jump\t// in\n    tag_93:\n        /* \"#utility.yul\":135:223   */\n      swap1\n      pop\n        /* \"#utility.yul\":243:248   */\n      dup1\n        /* \"#utility.yul\":269:275   */\n      dup3\n        /* \"#utility.yul\":319:322   */\n      dup6\n        /* \"#utility.yul\":311:315   */\n      0x20\n        /* \"#utility.yul\":303:309   */\n      dup7\n        /* \"#utility.yul\":299:316   */\n      mul\n        /* \"#utility.yul\":294:297   */\n      dup3\n        /* \"#utility.yul\":290:317   */\n      add\n        /* \"#utility.yul\":287:323   */\n      gt\n        /* \"#utility.yul\":284:286   */\n      iszero\n      tag_97\n      jumpi\n        /* \"#utility.yul\":348:349   */\n      0x00\n        /* \"#utility.yul\":345:346   */\n      dup1\n        /* \"#utility.yul\":338:350   */\n      revert\n        /* \"#utility.yul\":284:286   */\n    tag_97:\n        /* \"#utility.yul\":384:385   */\n      0x00\n        /* \"#utility.yul\":369:607   */\n    tag_98:\n        /* \"#utility.yul\":394:400   */\n      dup6\n        /* \"#utility.yul\":391:392   */\n      dup2\n        /* \"#utility.yul\":388:401   */\n      lt\n        /* \"#utility.yul\":369:607   */\n      iszero\n      tag_100\n      jumpi\n        /* \"#utility.yul\":462:465   */\n      dup2\n        /* \"#utility.yul\":491:528   */\n      tag_101\n        /* \"#utility.yul\":524:527   */\n      dup9\n        /* \"#utility.yul\":512:522   */\n      dup3\n        /* \"#utility.yul\":491:528   */\n      tag_102\n      jump\t// in\n    tag_101:\n        /* \"#utility.yul\":486:489   */\n      dup5\n        /* \"#utility.yul\":479:529   */\n      mstore\n        /* \"#utility.yul\":558:562   */\n      0x20\n        /* \"#utility.yul\":553:556   */\n      dup5\n        /* \"#utility.yul\":549:563   */\n      add\n        /* \"#utility.yul\":542:563   */\n      swap4\n      pop\n        /* \"#utility.yul\":592:596   */\n      0x20\n        /* \"#utility.yul\":587:590   */\n      dup4\n        /* \"#utility.yul\":583:597   */\n      add\n        /* \"#utility.yul\":576:597   */\n      swap3\n      pop\n        /* \"#utility.yul\":429:607   */\n      pop\n        /* \"#utility.yul\":416:417   */\n      0x01\n        /* \"#utility.yul\":413:414   */\n      dup2\n        /* \"#utility.yul\":409:418   */\n      add\n        /* \"#utility.yul\":404:418   */\n      swap1\n      pop\n        /* \"#utility.yul\":369:607   */\n      jump(tag_98)\n    tag_100:\n        /* \"#utility.yul\":373:387   */\n      pop\n        /* \"#utility.yul\":125:613   */\n      pop\n      pop\n      swap4\n      swap3\n      pop\n      pop\n      pop\n      jump\t// out\n        /* \"#utility.yul\":619:758   */\n    tag_103:\n        /* \"#utility.yul\":665:670   */\n      0x00\n        /* \"#utility.yul\":703:709   */\n      dup2\n        /* \"#utility.yul\":690:710   */\n      calldataload\n        /* \"#utility.yul\":681:710   */\n      swap1\n      pop\n        /* \"#utility.yul\":719:752   */\n      tag_105\n        /* \"#utility.yul\":746:751   */\n      dup2\n        /* \"#utility.yul\":719:752   */\n      tag_106\n      jump\t// in\n    tag_105:\n        /* \"#utility.yul\":671:758   */\n      swap3\n      swap2\n      pop\n      pop\n      jump\t// out\n        /* \"#utility.yul\":764:919   */\n    tag_107:\n        /* \"#utility.yul\":818:823   */\n      0x00\n        /* \"#utility.yul\":856:862   */\n      dup2\n        /* \"#utility.yul\":843:863   */\n      calldataload\n        /* \"#utility.yul\":834:863   */\n      swap1\n      pop\n        /* \"#utility.yul\":872:913   */\n      tag_109\n        /* \"#utility.yul\":907:912   */\n      dup2\n        /* \"#utility.yul\":872:913   */\n      tag_110\n      jump\t// in\n    tag_109:\n        /* \"#utility.yul\":824:919   */\n      swap3\n      swap2\n      pop\n      pop\n      jump\t// out\n        /* \"#utility.yul\":943:1215   */\n    tag_111:\n        /* \"#utility.yul\":1012:1017   */\n      0x00\n        /* \"#utility.yul\":1061:1064   */\n      dup3\n        /* \"#utility.yul\":1054:1058   */\n      0x1f\n        /* \"#utility.yul\":1046:1052   */\n      dup4\n        /* \"#utility.yul\":1042:1059   */\n      add\n        /* \"#utility.yul\":1038:1065   */\n      slt\n        /* \"#utility.yul\":1028:1030   */\n      tag_113\n      jumpi\n        /* \"#utility.yul\":1079:1080   */\n      0x00\n        /* \"#utility.yul\":1076:1077   */\n      dup1\n        /* \"#utility.yul\":1069:1081   */\n      revert\n        /* \"#utility.yul\":1028:1030   */\n    tag_113:\n        /* \"#utility.yul\":1106:1110   */\n      0x09\n        /* \"#utility.yul\":1128:1209   */\n      tag_114\n        /* \"#utility.yul\":1205:1208   */\n      dup5\n        /* \"#utility.yul\":1197:1203   */\n      dup3\n        /* \"#utility.yul\":1189:1195   */\n      dup6\n        /* \"#utility.yul\":1128:1209   */\n      tag_91\n      jump\t// in\n    tag_114:\n        /* \"#utility.yul\":1119:1209   */\n      swap2\n      pop\n        /* \"#utility.yul\":1018:1215   */\n      pop\n      swap3\n      swap2\n      pop\n      pop\n      jump\t// out\n        /* \"#utility.yul\":1221:1386   */\n    tag_115:\n        /* \"#utility.yul\":1280:1285   */\n      0x00\n        /* \"#utility.yul\":1318:1324   */\n      dup2\n        /* \"#utility.yul\":1305:1325   */\n      calldataload\n        /* \"#utility.yul\":1296:1325   */\n      swap1\n      pop\n        /* \"#utility.yul\":1334:1380   */\n      tag_117\n        /* \"#utility.yul\":1374:1379   */\n      dup2\n        /* \"#utility.yul\":1334:1380   */\n      tag_118\n      jump\t// in\n    tag_117:\n        /* \"#utility.yul\":1286:1386   */\n      swap3\n      swap2\n      pop\n      pop\n      jump\t// out\n        /* \"#utility.yul\":1392:1531   */\n    tag_102:\n        /* \"#utility.yul\":1438:1443   */\n      0x00\n        /* \"#utility.yul\":1476:1482   */\n      dup2\n        /* \"#utility.yul\":1463:1483   */\n      calldataload\n        /* \"#utility.yul\":1454:1483   */\n      swap1\n      pop\n        /* \"#utility.yul\":1492:1525   */\n      tag_120\n        /* \"#utility.yul\":1519:1524   */\n      dup2\n        /* \"#utility.yul\":1492:1525   */\n      tag_121\n      jump\t// in\n    tag_120:\n        /* \"#utility.yul\":1444:1531   */\n      swap3\n      swap2\n      pop\n      pop\n      jump\t// out\n        /* \"#utility.yul\":1537:1799   */\n    tag_25:\n        /* \"#utility.yul\":1596:1602   */\n      0x00\n        /* \"#utility.yul\":1645:1647   */\n      0x20\n        /* \"#utility.yul\":1633:1642   */\n      dup3\n        /* \"#utility.yul\":1624:1631   */\n      dup5\n        /* \"#utility.yul\":1620:1643   */\n      sub\n        /* \"#utility.yul\":1616:1648   */\n      slt\n        /* \"#utility.yul\":1613:1615   */\n      iszero\n      tag_123\n      jumpi\n        /* \"#utility.yul\":1661:1662   */\n      0x00\n        /* \"#utility.yul\":1658:1659   */\n      dup1\n        /* \"#utility.yul\":1651:1663   */\n      revert\n        /* \"#utility.yul\":1613:1615   */\n    tag_123:\n        /* \"#utility.yul\":1704:1705   */\n      0x00\n        /* \"#utility.yul\":1729:1782   */\n      tag_124\n        /* \"#utility.yul\":1774:1781   */\n      dup5\n        /* \"#utility.yul\":1765:1771   */\n      dup3\n        /* \"#utility.yul\":1754:1763   */\n      dup6\n        /* \"#utility.yul\":1750:1772   */\n      add\n        /* \"#utility.yul\":1729:1782   */\n      tag_103\n      jump\t// in\n    tag_124:\n        /* \"#utility.yul\":1719:1782   */\n      swap2\n      pop\n        /* \"#utility.yul\":1675:1792   */\n      pop\n        /* \"#utility.yul\":1603:1799   */\n      swap3\n      swap2\n      pop\n      pop\n      jump\t// out\n        /* \"#utility.yul\":1805:2617   */\n    tag_37:\n        /* \"#utility.yul\":1948:1954   */\n      0x00\n        /* \"#utility.yul\":1956:1962   */\n      dup1\n        /* \"#utility.yul\":1964:1970   */\n      0x00\n        /* \"#utility.yul\":1972:1978   */\n      dup1\n        /* \"#utility.yul\":2021:2024   */\n      0x0180\n        /* \"#utility.yul\":2009:2018   */\n      dup6\n        /* \"#utility.yul\":2000:2007   */\n      dup8\n        /* \"#utility.yul\":1996:2019   */\n      sub\n        /* \"#utility.yul\":1992:2025   */\n      slt\n        /* \"#utility.yul\":1989:1991   */\n      iszero\n      tag_126\n      jumpi\n        /* \"#utility.yul\":2038:2039   */\n      0x00\n        /* \"#utility.yul\":2035:2036   */\n      dup1\n        /* \"#utility.yul\":2028:2040   */\n      revert\n        /* \"#utility.yul\":1989:1991   */\n    tag_126:\n        /* \"#utility.yul\":2081:2082   */\n      0x00\n        /* \"#utility.yul\":2106:2167   */\n      tag_127\n        /* \"#utility.yul\":2159:2166   */\n      dup8\n        /* \"#utility.yul\":2150:2156   */\n      dup3\n        /* \"#utility.yul\":2139:2148   */\n      dup9\n        /* \"#utility.yul\":2135:2157   */\n      add\n        /* \"#utility.yul\":2106:2167   */\n      tag_107\n      jump\t// in\n    tag_127:\n        /* \"#utility.yul\":2096:2167   */\n      swap5\n      pop\n        /* \"#utility.yul\":2052:2177   */\n      pop\n        /* \"#utility.yul\":2216:2218   */\n      0x20\n        /* \"#utility.yul\":2242:2308   */\n      tag_128\n        /* \"#utility.yul\":2300:2307   */\n      dup8\n        /* \"#utility.yul\":2291:2297   */\n      dup3\n        /* \"#utility.yul\":2280:2289   */\n      dup9\n        /* \"#utility.yul\":2276:2298   */\n      add\n        /* \"#utility.yul\":2242:2308   */\n      tag_115\n      jump\t// in\n    tag_128:\n        /* \"#utility.yul\":2232:2308   */\n      swap4\n      pop\n        /* \"#utility.yul\":2187:2318   */\n      pop\n        /* \"#utility.yul\":2357:2359   */\n      0x40\n        /* \"#utility.yul\":2383:2449   */\n      tag_129\n        /* \"#utility.yul\":2441:2448   */\n      dup8\n        /* \"#utility.yul\":2432:2438   */\n      dup3\n        /* \"#utility.yul\":2421:2430   */\n      dup9\n        /* \"#utility.yul\":2417:2439   */\n      add\n        /* \"#utility.yul\":2383:2449   */\n      tag_115\n      jump\t// in\n    tag_129:\n        /* \"#utility.yul\":2373:2449   */\n      swap3\n      pop\n        /* \"#utility.yul\":2328:2459   */\n      pop\n        /* \"#utility.yul\":2498:2500   */\n      0x60\n        /* \"#utility.yul\":2524:2600   */\n      tag_130\n        /* \"#utility.yul\":2592:2599   */\n      dup8\n        /* \"#utility.yul\":2583:2589   */\n      dup3\n        /* \"#utility.yul\":2572:2581   */\n      dup9\n        /* \"#utility.yul\":2568:2590   */\n      add\n        /* \"#utility.yul\":2524:2600   */\n      tag_111\n      jump\t// in\n    tag_130:\n        /* \"#utility.yul\":2514:2600   */\n      swap2\n      pop\n        /* \"#utility.yul\":2469:2610   */\n      pop\n        /* \"#utility.yul\":1979:2617   */\n      swap3\n      swap6\n      swap2\n      swap5\n      pop\n      swap3\n      pop\n      jump\t// out\n        /* \"#utility.yul\":2623:2885   */\n    tag_30:\n        /* \"#utility.yul\":2682:2688   */\n      0x00\n        /* \"#utility.yul\":2731:2733   */\n      0x20\n        /* \"#utility.yul\":2719:2728   */\n      dup3\n        /* \"#utility.yul\":2710:2717   */\n      dup5\n        /* \"#utility.yul\":2706:2729   */\n      sub\n        /* \"#utility.yul\":2702:2734   */\n      slt\n        /* \"#utility.yul\":2699:2701   */\n      iszero\n      tag_132\n      jumpi\n        /* \"#utility.yul\":2747:2748   */\n      0x00\n        /* \"#utility.yul\":2744:2745   */\n      dup1\n        /* \"#utility.yul\":2737:2749   */\n      revert\n        /* \"#utility.yul\":2699:2701   */\n    tag_132:\n        /* \"#utility.yul\":2790:2791   */\n      0x00\n        /* \"#utility.yul\":2815:2868   */\n      tag_133\n        /* \"#utility.yul\":2860:2867   */\n      dup5\n        /* \"#utility.yul\":2851:2857   */\n      dup3\n        /* \"#utility.yul\":2840:2849   */\n      dup6\n        /* \"#utility.yul\":2836:2858   */\n      add\n        /* \"#utility.yul\":2815:2868   */\n      tag_102\n      jump\t// in\n    tag_133:\n        /* \"#utility.yul\":2805:2868   */\n      swap2\n      pop\n        /* \"#utility.yul\":2761:2878   */\n      pop\n        /* \"#utility.yul\":2689:2885   */\n      swap3\n      swap2\n      pop\n      pop\n      jump\t// out\n        /* \"#utility.yul\":2891:3033   */\n    tag_134:\n        /* \"#utility.yul\":2994:3026   */\n      tag_136\n        /* \"#utility.yul\":3020:3025   */\n      dup2\n        /* \"#utility.yul\":2994:3026   */\n      tag_137\n      jump\t// in\n    tag_136:\n        /* \"#utility.yul\":2989:2992   */\n      dup3\n        /* \"#utility.yul\":2982:3027   */\n      mstore\n        /* \"#utility.yul\":2972:3033   */\n      pop\n      pop\n      jump\t// out\n        /* \"#utility.yul\":3039:3148   */\n    tag_138:\n        /* \"#utility.yul\":3120:3141   */\n      tag_140\n        /* \"#utility.yul\":3135:3140   */\n      dup2\n        /* \"#utility.yul\":3120:3141   */\n      tag_141\n      jump\t// in\n    tag_140:\n        /* \"#utility.yul\":3115:3118   */\n      dup3\n        /* \"#utility.yul\":3108:3142   */\n      mstore\n        /* \"#utility.yul\":3098:3148   */\n      pop\n      pop\n      jump\t// out\n        /* \"#utility.yul\":3154:3311   */\n    tag_142:\n        /* \"#utility.yul\":3254:3304   */\n      tag_144\n        /* \"#utility.yul\":3298:3303   */\n      dup2\n        /* \"#utility.yul\":3254:3304   */\n      tag_145\n      jump\t// in\n    tag_144:\n        /* \"#utility.yul\":3249:3252   */\n      dup3\n        /* \"#utility.yul\":3242:3305   */\n      mstore\n        /* \"#utility.yul\":3232:3311   */\n      pop\n      pop\n      jump\t// out\n        /* \"#utility.yul\":3317:3683   */\n    tag_146:\n        /* \"#utility.yul\":3459:3462   */\n      0x00\n        /* \"#utility.yul\":3480:3547   */\n      tag_148\n        /* \"#utility.yul\":3544:3546   */\n      0x3a\n        /* \"#utility.yul\":3539:3542   */\n      dup4\n        /* \"#utility.yul\":3480:3547   */\n      tag_149\n      jump\t// in\n    tag_148:\n        /* \"#utility.yul\":3473:3547   */\n      swap2\n      pop\n        /* \"#utility.yul\":3556:3649   */\n      tag_150\n        /* \"#utility.yul\":3645:3648   */\n      dup3\n        /* \"#utility.yul\":3556:3649   */\n      tag_151\n      jump\t// in\n    tag_150:\n        /* \"#utility.yul\":3674:3676   */\n      0x40\n        /* \"#utility.yul\":3669:3672   */\n      dup3\n        /* \"#utility.yul\":3665:3677   */\n      add\n        /* \"#utility.yul\":3658:3677   */\n      swap1\n      pop\n        /* \"#utility.yul\":3463:3683   */\n      swap2\n      swap1\n      pop\n      jump\t// out\n        /* \"#utility.yul\":3689:4055   */\n    tag_152:\n        /* \"#utility.yul\":3831:3834   */\n      0x00\n        /* \"#utility.yul\":3852:3919   */\n      tag_154\n        /* \"#utility.yul\":3916:3918   */\n      0x1d\n        /* \"#utility.yul\":3911:3914   */\n      dup4\n        /* \"#utility.yul\":3852:3919   */\n      tag_149\n      jump\t// in\n    tag_154:\n        /* \"#utility.yul\":3845:3919   */\n      swap2\n      pop\n        /* \"#utility.yul\":3928:4021   */\n      tag_155\n        /* \"#utility.yul\":4017:4020   */\n      dup3\n        /* \"#utility.yul\":3928:4021   */\n      tag_156\n      jump\t// in\n    tag_155:\n        /* \"#utility.yul\":4046:4048   */\n      0x20\n        /* \"#utility.yul\":4041:4044   */\n      dup3\n        /* \"#utility.yul\":4037:4049   */\n      add\n        /* \"#utility.yul\":4030:4049   */\n      swap1\n      pop\n        /* \"#utility.yul\":3835:4055   */\n      swap2\n      swap1\n      pop\n      jump\t// out\n        /* \"#utility.yul\":4061:4459   */\n    tag_157:\n        /* \"#utility.yul\":4220:4223   */\n      0x00\n        /* \"#utility.yul\":4241:4324   */\n      tag_159\n        /* \"#utility.yul\":4322:4323   */\n      0x00\n        /* \"#utility.yul\":4317:4320   */\n      dup4\n        /* \"#utility.yul\":4241:4324   */\n      tag_160\n      jump\t// in\n    tag_159:\n        /* \"#utility.yul\":4234:4324   */\n      swap2\n      pop\n        /* \"#utility.yul\":4333:4426   */\n      tag_161\n        /* \"#utility.yul\":4422:4425   */\n      dup3\n        /* \"#utility.yul\":4333:4426   */\n      tag_162\n      jump\t// in\n    tag_161:\n        /* \"#utility.yul\":4451:4452   */\n      0x00\n        /* \"#utility.yul\":4446:4449   */\n      dup3\n        /* \"#utility.yul\":4442:4453   */\n      add\n        /* \"#utility.yul\":4435:4453   */\n      swap1\n      pop\n        /* \"#utility.yul\":4224:4459   */\n      swap2\n      swap1\n      pop\n      jump\t// out\n        /* \"#utility.yul\":4465:4831   */\n    tag_163:\n        /* \"#utility.yul\":4607:4610   */\n      0x00\n        /* \"#utility.yul\":4628:4695   */\n      tag_165\n        /* \"#utility.yul\":4692:4694   */\n      0x1f\n        /* \"#utility.yul\":4687:4690   */\n      dup4\n        /* \"#utility.yul\":4628:4695   */\n      tag_149\n      jump\t// in\n    tag_165:\n        /* \"#utility.yul\":4621:4695   */\n      swap2\n      pop\n        /* \"#utility.yul\":4704:4797   */\n      tag_166\n        /* \"#utility.yul\":4793:4796   */\n      dup3\n        /* \"#utility.yul\":4704:4797   */\n      tag_167\n      jump\t// in\n    tag_166:\n        /* \"#utility.yul\":4822:4824   */\n      0x20\n        /* \"#utility.yul\":4817:4820   */\n      dup3\n        /* \"#utility.yul\":4813:4825   */\n      add\n        /* \"#utility.yul\":4806:4825   */\n      swap1\n      pop\n        /* \"#utility.yul\":4611:4831   */\n      swap2\n      swap1\n      pop\n      jump\t// out\n        /* \"#utility.yul\":4837:4955   */\n    tag_168:\n        /* \"#utility.yul\":4924:4948   */\n      tag_170\n        /* \"#utility.yul\":4942:4947   */\n      dup2\n        /* \"#utility.yul\":4924:4948   */\n      tag_171\n      jump\t// in\n    tag_170:\n        /* \"#utility.yul\":4919:4922   */\n      dup3\n        /* \"#utility.yul\":4912:4949   */\n      mstore\n        /* \"#utility.yul\":4902:4955   */\n      pop\n      pop\n      jump\t// out\n        /* \"#utility.yul\":4961:5340   */\n    tag_69:\n        /* \"#utility.yul\":5145:5148   */\n      0x00\n        /* \"#utility.yul\":5167:5314   */\n      tag_173\n        /* \"#utility.yul\":5310:5313   */\n      dup3\n        /* \"#utility.yul\":5167:5314   */\n      tag_157\n      jump\t// in\n    tag_173:\n        /* \"#utility.yul\":5160:5314   */\n      swap2\n      pop\n        /* \"#utility.yul\":5331:5334   */\n      dup2\n        /* \"#utility.yul\":5324:5334   */\n      swap1\n      pop\n        /* \"#utility.yul\":5149:5340   */\n      swap2\n      swap1\n      pop\n      jump\t// out\n        /* \"#utility.yul\":5346:6875   */\n    tag_16:\n        /* \"#utility.yul\":5791:5795   */\n      0x00\n        /* \"#utility.yul\":5829:5832   */\n      0x0180\n        /* \"#utility.yul\":5818:5827   */\n      dup3\n        /* \"#utility.yul\":5814:5833   */\n      add\n        /* \"#utility.yul\":5806:5833   */\n      swap1\n      pop\n        /* \"#utility.yul\":5843:5930   */\n      tag_175\n        /* \"#utility.yul\":5927:5928   */\n      0x00\n        /* \"#utility.yul\":5916:5925   */\n      dup4\n        /* \"#utility.yul\":5912:5929   */\n      add\n        /* \"#utility.yul\":5903:5909   */\n      dup16\n        /* \"#utility.yul\":5843:5930   */\n      tag_134\n      jump\t// in\n    tag_175:\n        /* \"#utility.yul\":5940:6025   */\n      tag_176\n        /* \"#utility.yul\":6021:6023   */\n      0x20\n        /* \"#utility.yul\":6010:6019   */\n      dup4\n        /* \"#utility.yul\":6006:6024   */\n      add\n        /* \"#utility.yul\":5997:6003   */\n      dup15\n        /* \"#utility.yul\":5940:6025   */\n      tag_142\n      jump\t// in\n    tag_176:\n        /* \"#utility.yul\":6035:6120   */\n      tag_177\n        /* \"#utility.yul\":6116:6118   */\n      0x40\n        /* \"#utility.yul\":6105:6114   */\n      dup4\n        /* \"#utility.yul\":6101:6119   */\n      add\n        /* \"#utility.yul\":6092:6098   */\n      dup14\n        /* \"#utility.yul\":6035:6120   */\n      tag_142\n      jump\t// in\n    tag_177:\n        /* \"#utility.yul\":6130:6202   */\n      tag_178\n        /* \"#utility.yul\":6198:6200   */\n      0x60\n        /* \"#utility.yul\":6187:6196   */\n      dup4\n        /* \"#utility.yul\":6183:6201   */\n      add\n        /* \"#utility.yul\":6174:6180   */\n      dup13\n        /* \"#utility.yul\":6130:6202   */\n      tag_168\n      jump\t// in\n    tag_178:\n        /* \"#utility.yul\":6212:6285   */\n      tag_179\n        /* \"#utility.yul\":6280:6283   */\n      0x80\n        /* \"#utility.yul\":6269:6278   */\n      dup4\n        /* \"#utility.yul\":6265:6284   */\n      add\n        /* \"#utility.yul\":6256:6262   */\n      dup12\n        /* \"#utility.yul\":6212:6285   */\n      tag_168\n      jump\t// in\n    tag_179:\n        /* \"#utility.yul\":6295:6368   */\n      tag_180\n        /* \"#utility.yul\":6363:6366   */\n      0xa0\n        /* \"#utility.yul\":6352:6361   */\n      dup4\n        /* \"#utility.yul\":6348:6367   */\n      add\n        /* \"#utility.yul\":6339:6345   */\n      dup11\n        /* \"#utility.yul\":6295:6368   */\n      tag_168\n      jump\t// in\n    tag_180:\n        /* \"#utility.yul\":6378:6451   */\n      tag_181\n        /* \"#utility.yul\":6446:6449   */\n      0xc0\n        /* \"#utility.yul\":6435:6444   */\n      dup4\n        /* \"#utility.yul\":6431:6450   */\n      add\n        /* \"#utility.yul\":6422:6428   */\n      dup10\n        /* \"#utility.yul\":6378:6451   */\n      tag_168\n      jump\t// in\n    tag_181:\n        /* \"#utility.yul\":6461:6534   */\n      tag_182\n        /* \"#utility.yul\":6529:6532   */\n      0xe0\n        /* \"#utility.yul\":6518:6527   */\n      dup4\n        /* \"#utility.yul\":6514:6533   */\n      add\n        /* \"#utility.yul\":6505:6511   */\n      dup9\n        /* \"#utility.yul\":6461:6534   */\n      tag_168\n      jump\t// in\n    tag_182:\n        /* \"#utility.yul\":6544:6617   */\n      tag_183\n        /* \"#utility.yul\":6612:6615   */\n      0x0100\n        /* \"#utility.yul\":6601:6610   */\n      dup4\n        /* \"#utility.yul\":6597:6616   */\n      add\n        /* \"#utility.yul\":6588:6594   */\n      dup8\n        /* \"#utility.yul\":6544:6617   */\n      tag_168\n      jump\t// in\n    tag_183:\n        /* \"#utility.yul\":6627:6700   */\n      tag_184\n        /* \"#utility.yul\":6695:6698   */\n      0x0120\n        /* \"#utility.yul\":6684:6693   */\n      dup4\n        /* \"#utility.yul\":6680:6699   */\n      add\n        /* \"#utility.yul\":6671:6677   */\n      dup7\n        /* \"#utility.yul\":6627:6700   */\n      tag_168\n      jump\t// in\n    tag_184:\n        /* \"#utility.yul\":6710:6784   */\n      tag_185\n        /* \"#utility.yul\":6779:6782   */\n      0x0140\n        /* \"#utility.yul\":6768:6777   */\n      dup4\n        /* \"#utility.yul\":6764:6783   */\n      add\n        /* \"#utility.yul\":6754:6761   */\n      dup6\n        /* \"#utility.yul\":6710:6784   */\n      tag_168\n      jump\t// in\n    tag_185:\n        /* \"#utility.yul\":6794:6868   */\n      tag_186\n        /* \"#utility.yul\":6863:6866   */\n      0x0160\n        /* \"#utility.yul\":6852:6861   */\n      dup4\n        /* \"#utility.yul\":6848:6867   */\n      add\n        /* \"#utility.yul\":6838:6845   */\n      dup5\n        /* \"#utility.yul\":6794:6868   */\n      tag_168\n      jump\t// in\n    tag_186:\n        /* \"#utility.yul\":5796:6875   */\n      swap14\n      swap13\n      pop\n      pop\n      pop\n      pop\n      pop\n      pop\n      pop\n      pop\n      pop\n      pop\n      pop\n      pop\n      pop\n      jump\t// out\n        /* \"#utility.yul\":6881:7300   */\n    tag_75:\n        /* \"#utility.yul\":7047:7051   */\n      0x00\n        /* \"#utility.yul\":7085:7087   */\n      0x20\n        /* \"#utility.yul\":7074:7083   */\n      dup3\n        /* \"#utility.yul\":7070:7088   */\n      add\n        /* \"#utility.yul\":7062:7088   */\n      swap1\n      pop\n        /* \"#utility.yul\":7134:7143   */\n      dup2\n        /* \"#utility.yul\":7128:7132   */\n      dup2\n        /* \"#utility.yul\":7124:7144   */\n      sub\n        /* \"#utility.yul\":7120:7121   */\n      0x00\n        /* \"#utility.yul\":7109:7118   */\n      dup4\n        /* \"#utility.yul\":7105:7122   */\n      add\n        /* \"#utility.yul\":7098:7145   */\n      mstore\n        /* \"#utility.yul\":7162:7293   */\n      tag_188\n        /* \"#utility.yul\":7288:7292   */\n      dup2\n        /* \"#utility.yul\":7162:7293   */\n      tag_146\n      jump\t// in\n    tag_188:\n        /* \"#utility.yul\":7154:7293   */\n      swap1\n      pop\n        /* \"#utility.yul\":7052:7300   */\n      swap2\n      swap1\n      pop\n      jump\t// out\n        /* \"#utility.yul\":7306:7725   */\n    tag_67:\n        /* \"#utility.yul\":7472:7476   */\n      0x00\n        /* \"#utility.yul\":7510:7512   */\n      0x20\n        /* \"#utility.yul\":7499:7508   */\n      dup3\n        /* \"#utility.yul\":7495:7513   */\n      add\n        /* \"#utility.yul\":7487:7513   */\n      swap1\n      pop\n        /* \"#utility.yul\":7559:7568   */\n      dup2\n        /* \"#utility.yul\":7553:7557   */\n      dup2\n        /* \"#utility.yul\":7549:7569   */\n      sub\n        /* \"#utility.yul\":7545:7546   */\n      0x00\n        /* \"#utility.yul\":7534:7543   */\n      dup4\n        /* \"#utility.yul\":7530:7547   */\n      add\n        /* \"#utility.yul\":7523:7570   */\n      mstore\n        /* \"#utility.yul\":7587:7718   */\n      tag_190\n        /* \"#utility.yul\":7713:7717   */\n      dup2\n        /* \"#utility.yul\":7587:7718   */\n      tag_152\n      jump\t// in\n    tag_190:\n        /* \"#utility.yul\":7579:7718   */\n      swap1\n      pop\n        /* \"#utility.yul\":7477:7725   */\n      swap2\n      swap1\n      pop\n      jump\t// out\n        /* \"#utility.yul\":7731:8150   */\n    tag_63:\n        /* \"#utility.yul\":7897:7901   */\n      0x00\n        /* \"#utility.yul\":7935:7937   */\n      0x20\n        /* \"#utility.yul\":7924:7933   */\n      dup3\n        /* \"#utility.yul\":7920:7938   */\n      add\n        /* \"#utility.yul\":7912:7938   */\n      swap1\n      pop\n        /* \"#utility.yul\":7984:7993   */\n      dup2\n        /* \"#utility.yul\":7978:7982   */\n      dup2\n        /* \"#utility.yul\":7974:7994   */\n      sub\n        /* \"#utility.yul\":7970:7971   */\n      0x00\n        /* \"#utility.yul\":7959:7968   */\n      dup4\n        /* \"#utility.yul\":7955:7972   */\n      add\n        /* \"#utility.yul\":7948:7995   */\n      mstore\n        /* \"#utility.yul\":8012:8143   */\n      tag_192\n        /* \"#utility.yul\":8138:8142   */\n      dup2\n        /* \"#utility.yul\":8012:8143   */\n      tag_163\n      jump\t// in\n    tag_192:\n        /* \"#utility.yul\":8004:8143   */\n      swap1\n      pop\n        /* \"#utility.yul\":7902:8150   */\n      swap2\n      swap1\n      pop\n      jump\t// out\n        /* \"#utility.yul\":8156:8378   */\n    tag_21:\n        /* \"#utility.yul\":8249:8253   */\n      0x00\n        /* \"#utility.yul\":8287:8289   */\n      0x20\n        /* \"#utility.yul\":8276:8285   */\n      dup3\n        /* \"#utility.yul\":8272:8290   */\n      add\n        /* \"#utility.yul\":8264:8290   */\n      swap1\n      pop\n        /* \"#utility.yul\":8300:8371   */\n      tag_194\n        /* \"#utility.yul\":8368:8369   */\n      0x00\n        /* \"#utility.yul\":8357:8366   */\n      dup4\n        /* \"#utility.yul\":8353:8370   */\n      add\n        /* \"#utility.yul\":8344:8350   */\n      dup5\n        /* \"#utility.yul\":8300:8371   */\n      tag_168\n      jump\t// in\n    tag_194:\n        /* \"#utility.yul\":8254:8378   */\n      swap3\n      swap2\n      pop\n      pop\n      jump\t// out\n        /* \"#utility.yul\":8384:9135   */\n    tag_49:\n        /* \"#utility.yul\":8605:8609   */\n      0x00\n        /* \"#utility.yul\":8643:8646   */\n      0xc0\n        /* \"#utility.yul\":8632:8641   */\n      dup3\n        /* \"#utility.yul\":8628:8647   */\n      add\n        /* \"#utility.yul\":8620:8647   */\n      swap1\n      pop\n        /* \"#utility.yul\":8657:8728   */\n      tag_196\n        /* \"#utility.yul\":8725:8726   */\n      0x00\n        /* \"#utility.yul\":8714:8723   */\n      dup4\n        /* \"#utility.yul\":8710:8727   */\n      add\n        /* \"#utility.yul\":8701:8707   */\n      dup10\n        /* \"#utility.yul\":8657:8728   */\n      tag_168\n      jump\t// in\n    tag_196:\n        /* \"#utility.yul\":8738:8810   */\n      tag_197\n        /* \"#utility.yul\":8806:8808   */\n      0x20\n        /* \"#utility.yul\":8795:8804   */\n      dup4\n        /* \"#utility.yul\":8791:8809   */\n      add\n        /* \"#utility.yul\":8782:8788   */\n      dup9\n        /* \"#utility.yul\":8738:8810   */\n      tag_168\n      jump\t// in\n    tag_197:\n        /* \"#utility.yul\":8820:8892   */\n      tag_198\n        /* \"#utility.yul\":8888:8890   */\n      0x40\n        /* \"#utility.yul\":8877:8886   */\n      dup4\n        /* \"#utility.yul\":8873:8891   */\n      add\n        /* \"#utility.yul\":8864:8870   */\n      dup8\n        /* \"#utility.yul\":8820:8892   */\n      tag_168\n      jump\t// in\n    tag_198:\n        /* \"#utility.yul\":8902:8974   */\n      tag_199\n        /* \"#utility.yul\":8970:8972   */\n      0x60\n        /* \"#utility.yul\":8959:8968   */\n      dup4\n        /* \"#utility.yul\":8955:8973   */\n      add\n        /* \"#utility.yul\":8946:8952   */\n      dup7\n        /* \"#utility.yul\":8902:8974   */\n      tag_168\n      jump\t// in\n    tag_199:\n        /* \"#utility.yul\":8984:9051   */\n      tag_200\n        /* \"#utility.yul\":9046:9049   */\n      0x80\n        /* \"#utility.yul\":9035:9044   */\n      dup4\n        /* \"#utility.yul\":9031:9050   */\n      add\n        /* \"#utility.yul\":9022:9028   */\n      dup6\n        /* \"#utility.yul\":8984:9051   */\n      tag_138\n      jump\t// in\n    tag_200:\n        /* \"#utility.yul\":9061:9128   */\n      tag_201\n        /* \"#utility.yul\":9123:9126   */\n      0xa0\n        /* \"#utility.yul\":9112:9121   */\n      dup4\n        /* \"#utility.yul\":9108:9127   */\n      add\n        /* \"#utility.yul\":9099:9105   */\n      dup5\n        /* \"#utility.yul\":9061:9128   */\n      tag_138\n      jump\t// in\n    tag_201:\n        /* \"#utility.yul\":8610:9135   */\n      swap8\n      swap7\n      pop\n      pop\n      pop\n      pop\n      pop\n      pop\n      pop\n      jump\t// out\n        /* \"#utility.yul\":9141:9916   */\n    tag_43:\n        /* \"#utility.yul\":9374:9378   */\n      0x00\n        /* \"#utility.yul\":9412:9415   */\n      0xc0\n        /* \"#utility.yul\":9401:9410   */\n      dup3\n        /* \"#utility.yul\":9397:9416   */\n      add\n        /* \"#utility.yul\":9389:9416   */\n      swap1\n      pop\n        /* \"#utility.yul\":9426:9497   */\n      tag_203\n        /* \"#utility.yul\":9494:9495   */\n      0x00\n        /* \"#utility.yul\":9483:9492   */\n      dup4\n        /* \"#utility.yul\":9479:9496   */\n      add\n        /* \"#utility.yul\":9470:9476   */\n      dup10\n        /* \"#utility.yul\":9426:9497   */\n      tag_168\n      jump\t// in\n    tag_203:\n        /* \"#utility.yul\":9507:9579   */\n      tag_204\n        /* \"#utility.yul\":9575:9577   */\n      0x20\n        /* \"#utility.yul\":9564:9573   */\n      dup4\n        /* \"#utility.yul\":9560:9578   */\n      add\n        /* \"#utility.yul\":9551:9557   */\n      dup9\n        /* \"#utility.yul\":9507:9579   */\n      tag_168\n      jump\t// in\n    tag_204:\n        /* \"#utility.yul\":9589:9661   */\n      tag_205\n        /* \"#utility.yul\":9657:9659   */\n      0x40\n        /* \"#utility.yul\":9646:9655   */\n      dup4\n        /* \"#utility.yul\":9642:9660   */\n      add\n        /* \"#utility.yul\":9633:9639   */\n      dup8\n        /* \"#utility.yul\":9589:9661   */\n      tag_168\n      jump\t// in\n    tag_205:\n        /* \"#utility.yul\":9671:9743   */\n      tag_206\n        /* \"#utility.yul\":9739:9741   */\n      0x60\n        /* \"#utility.yul\":9728:9737   */\n      dup4\n        /* \"#utility.yul\":9724:9742   */\n      add\n        /* \"#utility.yul\":9715:9721   */\n      dup7\n        /* \"#utility.yul\":9671:9743   */\n      tag_168\n      jump\t// in\n    tag_206:\n        /* \"#utility.yul\":9753:9826   */\n      tag_207\n        /* \"#utility.yul\":9821:9824   */\n      0x80\n        /* \"#utility.yul\":9810:9819   */\n      dup4\n        /* \"#utility.yul\":9806:9825   */\n      add\n        /* \"#utility.yul\":9797:9803   */\n      dup6\n        /* \"#utility.yul\":9753:9826   */\n      tag_168\n      jump\t// in\n    tag_207:\n        /* \"#utility.yul\":9836:9909   */\n      tag_208\n        /* \"#utility.yul\":9904:9907   */\n      0xa0\n        /* \"#utility.yul\":9893:9902   */\n      dup4\n        /* \"#utility.yul\":9889:9908   */\n      add\n        /* \"#utility.yul\":9880:9886   */\n      dup5\n        /* \"#utility.yul\":9836:9909   */\n      tag_168\n      jump\t// in\n    tag_208:\n        /* \"#utility.yul\":9379:9916   */\n      swap8\n      swap7\n      pop\n      pop\n      pop\n      pop\n      pop\n      pop\n      pop\n      jump\t// out\n        /* \"#utility.yul\":9922:10051   */\n    tag_96:\n        /* \"#utility.yul\":9956:9962   */\n      0x00\n        /* \"#utility.yul\":9983:10003   */\n      tag_210\n      tag_211\n      jump\t// in\n    tag_210:\n        /* \"#utility.yul\":9973:10003   */\n      swap1\n      pop\n        /* \"#utility.yul\":10012:10045   */\n      tag_212\n        /* \"#utility.yul\":10040:10044   */\n      dup3\n        /* \"#utility.yul\":10032:10038   */\n      dup3\n        /* \"#utility.yul\":10012:10045   */\n      tag_213\n      jump\t// in\n    tag_212:\n        /* \"#utility.yul\":9963:10051   */\n      swap2\n      swap1\n      pop\n      jump\t// out\n        /* \"#utility.yul\":10057:10132   */\n    tag_211:\n        /* \"#utility.yul\":10090:10096   */\n      0x00\n        /* \"#utility.yul\":10123:10125   */\n      0x40\n        /* \"#utility.yul\":10117:10126   */\n      mload\n        /* \"#utility.yul\":10107:10126   */\n      swap1\n      pop\n        /* \"#utility.yul\":10097:10132   */\n      swap1\n      jump\t// out\n        /* \"#utility.yul\":10138:10387   */\n    tag_95:\n        /* \"#utility.yul\":10213:10217   */\n      0x00\n        /* \"#utility.yul\":10303:10321   */\n      0xffffffffffffffff\n        /* \"#utility.yul\":10295:10301   */\n      dup3\n        /* \"#utility.yul\":10292:10322   */\n      gt\n        /* \"#utility.yul\":10289:10291   */\n      iszero\n      tag_216\n      jumpi\n        /* \"#utility.yul\":10325:10343   */\n      tag_217\n      tag_218\n      jump\t// in\n    tag_217:\n        /* \"#utility.yul\":10289:10291   */\n    tag_216:\n        /* \"#utility.yul\":10375:10379   */\n      0x20\n        /* \"#utility.yul\":10367:10373   */\n      dup3\n        /* \"#utility.yul\":10363:10380   */\n      mul\n        /* \"#utility.yul\":10355:10380   */\n      swap1\n      pop\n        /* \"#utility.yul\":10218:10387   */\n      swap2\n      swap1\n      pop\n      jump\t// out\n        /* \"#utility.yul\":10393:10540   */\n    tag_160:\n        /* \"#utility.yul\":10494:10505   */\n      0x00\n        /* \"#utility.yul\":10531:10534   */\n      dup2\n        /* \"#utility.yul\":10516:10534   */\n      swap1\n      pop\n        /* \"#utility.yul\":10506:10540   */\n      swap3\n      swap2\n      pop\n      pop\n      jump\t// out\n        /* \"#utility.yul\":10546:10715   */\n    tag_149:\n        /* \"#utility.yul\":10630:10641   */\n      0x00\n        /* \"#utility.yul\":10664:10670   */\n      dup3\n        /* \"#utility.yul\":10659:10662   */\n      dup3\n        /* \"#utility.yul\":10652:10671   */\n      mstore\n        /* \"#utility.yul\":10704:10708   */\n      0x20\n        /* \"#utility.yul\":10699:10702   */\n      dup3\n        /* \"#utility.yul\":10695:10709   */\n      add\n        /* \"#utility.yul\":10680:10709   */\n      swap1\n      pop\n        /* \"#utility.yul\":10642:10715   */\n      swap3\n      swap2\n      pop\n      pop\n      jump\t// out\n        /* \"#utility.yul\":10721:10817   */\n    tag_221:\n        /* \"#utility.yul\":10758:10765   */\n      0x00\n        /* \"#utility.yul\":10787:10811   */\n      tag_223\n        /* \"#utility.yul\":10805:10810   */\n      dup3\n        /* \"#utility.yul\":10787:10811   */\n      tag_224\n      jump\t// in\n    tag_223:\n        /* \"#utility.yul\":10776:10811   */\n      swap1\n      pop\n        /* \"#utility.yul\":10766:10817   */\n      swap2\n      swap1\n      pop\n      jump\t// out\n        /* \"#utility.yul\":10823:10927   */\n    tag_137:\n        /* \"#utility.yul\":10868:10875   */\n      0x00\n        /* \"#utility.yul\":10897:10921   */\n      tag_226\n        /* \"#utility.yul\":10915:10920   */\n      dup3\n        /* \"#utility.yul\":10897:10921   */\n      tag_224\n      jump\t// in\n    tag_226:\n        /* \"#utility.yul\":10886:10921   */\n      swap1\n      pop\n        /* \"#utility.yul\":10876:10927   */\n      swap2\n      swap1\n      pop\n      jump\t// out\n        /* \"#utility.yul\":10933:11023   */\n    tag_141:\n        /* \"#utility.yul\":10967:10974   */\n      0x00\n        /* \"#utility.yul\":11010:11015   */\n      dup2\n        /* \"#utility.yul\":11003:11016   */\n      iszero\n        /* \"#utility.yul\":10996:11017   */\n      iszero\n        /* \"#utility.yul\":10985:11017   */\n      swap1\n      pop\n        /* \"#utility.yul\":10975:11023   */\n      swap2\n      swap1\n      pop\n      jump\t// out\n        /* \"#utility.yul\":11029:11138   */\n    tag_228:\n        /* \"#utility.yul\":11079:11086   */\n      0x00\n        /* \"#utility.yul\":11108:11132   */\n      tag_230\n        /* \"#utility.yul\":11126:11131   */\n      dup3\n        /* \"#utility.yul\":11108:11132   */\n      tag_221\n      jump\t// in\n    tag_230:\n        /* \"#utility.yul\":11097:11132   */\n      swap1\n      pop\n        /* \"#utility.yul\":11087:11138   */\n      swap2\n      swap1\n      pop\n      jump\t// out\n        /* \"#utility.yul\":11144:11270   */\n    tag_224:\n        /* \"#utility.yul\":11181:11188   */\n      0x00\n        /* \"#utility.yul\":11221:11263   */\n      0xffffffffffffffffffffffffffffffffffffffff\n        /* \"#utility.yul\":11214:11219   */\n      dup3\n        /* \"#utility.yul\":11210:11264   */\n      and\n        /* \"#utility.yul\":11199:11264   */\n      swap1\n      pop\n        /* \"#utility.yul\":11189:11270   */\n      swap2\n      swap1\n      pop\n      jump\t// out\n        /* \"#utility.yul\":11276:11353   */\n    tag_171:\n        /* \"#utility.yul\":11313:11320   */\n      0x00\n        /* \"#utility.yul\":11342:11347   */\n      dup2\n        /* \"#utility.yul\":11331:11347   */\n      swap1\n      pop\n        /* \"#utility.yul\":11321:11353   */\n      swap2\n      swap1\n      pop\n      jump\t// out\n        /* \"#utility.yul\":11359:11511   */\n    tag_145:\n        /* \"#utility.yul\":11422:11431   */\n      0x00\n        /* \"#utility.yul\":11455:11505   */\n      tag_234\n        /* \"#utility.yul\":11499:11504   */\n      dup3\n        /* \"#utility.yul\":11455:11505   */\n      tag_235\n      jump\t// in\n    tag_234:\n        /* \"#utility.yul\":11442:11505   */\n      swap1\n      pop\n        /* \"#utility.yul\":11432:11511   */\n      swap2\n      swap1\n      pop\n      jump\t// out\n        /* \"#utility.yul\":11517:11643   */\n    tag_235:\n        /* \"#utility.yul\":11580:11589   */\n      0x00\n        /* \"#utility.yul\":11613:11637   */\n      tag_237\n        /* \"#utility.yul\":11631:11636   */\n      dup3\n        /* \"#utility.yul\":11613:11637   */\n      tag_224\n      jump\t// in\n    tag_237:\n        /* \"#utility.yul\":11600:11637   */\n      swap1\n      pop\n        /* \"#utility.yul\":11590:11643   */\n      swap2\n      swap1\n      pop\n      jump\t// out\n        /* \"#utility.yul\":11649:11930   */\n    tag_213:\n        /* \"#utility.yul\":11732:11759   */\n      tag_239\n        /* \"#utility.yul\":11754:11758   */\n      dup3\n        /* \"#utility.yul\":11732:11759   */\n      tag_240\n      jump\t// in\n    tag_239:\n        /* \"#utility.yul\":11724:11730   */\n      dup2\n        /* \"#utility.yul\":11720:11760   */\n      add\n        /* \"#utility.yul\":11862:11868   */\n      dup2\n        /* \"#utility.yul\":11850:11860   */\n      dup2\n        /* \"#utility.yul\":11847:11869   */\n      lt\n        /* \"#utility.yul\":11826:11844   */\n      0xffffffffffffffff\n        /* \"#utility.yul\":11814:11824   */\n      dup3\n        /* \"#utility.yul\":11811:11845   */\n      gt\n        /* \"#utility.yul\":11808:11870   */\n      or\n        /* \"#utility.yul\":11805:11807   */\n      iszero\n      tag_241\n      jumpi\n        /* \"#utility.yul\":11873:11891   */\n      tag_242\n      tag_218\n      jump\t// in\n    tag_242:\n        /* \"#utility.yul\":11805:11807   */\n    tag_241:\n        /* \"#utility.yul\":11913:11923   */\n      dup1\n        /* \"#utility.yul\":11909:11911   */\n      0x40\n        /* \"#utility.yul\":11902:11924   */\n      mstore\n        /* \"#utility.yul\":11692:11930   */\n      pop\n      pop\n      pop\n      jump\t// out\n        /* \"#utility.yul\":11936:12116   */\n    tag_218:\n        /* \"#utility.yul\":11984:12061   */\n      0x4e487b7100000000000000000000000000000000000000000000000000000000\n        /* \"#utility.yul\":11981:11982   */\n      0x00\n        /* \"#utility.yul\":11974:12062   */\n      mstore\n        /* \"#utility.yul\":12081:12085   */\n      0x41\n        /* \"#utility.yul\":12078:12079   */\n      0x04\n        /* \"#utility.yul\":12071:12086   */\n      mstore\n        /* \"#utility.yul\":12105:12109   */\n      0x24\n        /* \"#utility.yul\":12102:12103   */\n      0x00\n        /* \"#utility.yul\":12095:12110   */\n      revert\n        /* \"#utility.yul\":12122:12224   */\n    tag_240:\n        /* \"#utility.yul\":12163:12169   */\n      0x00\n        /* \"#utility.yul\":12214:12216   */\n      0x1f\n        /* \"#utility.yul\":12210:12217   */\n      not\n        /* \"#utility.yul\":12205:12207   */\n      0x1f\n        /* \"#utility.yul\":12198:12203   */\n      dup4\n        /* \"#utility.yul\":12194:12208   */\n      add\n        /* \"#utility.yul\":12190:12218   */\n      and\n        /* \"#utility.yul\":12180:12218   */\n      swap1\n      pop\n        /* \"#utility.yul\":12170:12224   */\n      swap2\n      swap1\n      pop\n      jump\t// out\n        /* \"#utility.yul\":12230:12475   */\n    tag_151:\n        /* \"#utility.yul\":12370:12404   */\n      0x416464726573733a20756e61626c6520746f2073656e642076616c75652c2072\n        /* \"#utility.yul\":12366:12367   */\n      0x00\n        /* \"#utility.yul\":12358:12364   */\n      dup3\n        /* \"#utility.yul\":12354:12368   */\n      add\n        /* \"#utility.yul\":12347:12405   */\n      mstore\n        /* \"#utility.yul\":12439:12467   */\n      0x6563697069656e74206d61792068617665207265766572746564000000000000\n        /* \"#utility.yul\":12434:12436   */\n      0x20\n        /* \"#utility.yul\":12426:12432   */\n      dup3\n        /* \"#utility.yul\":12422:12437   */\n      add\n        /* \"#utility.yul\":12415:12468   */\n      mstore\n        /* \"#utility.yul\":12336:12475   */\n      pop\n      jump\t// out\n        /* \"#utility.yul\":12481:12660   */\n    tag_156:\n        /* \"#utility.yul\":12621:12652   */\n      0x416464726573733a20696e73756666696369656e742062616c616e6365000000\n        /* \"#utility.yul\":12617:12618   */\n      0x00\n        /* \"#utility.yul\":12609:12615   */\n      dup3\n        /* \"#utility.yul\":12605:12619   */\n      add\n        /* \"#utility.yul\":12598:12653   */\n      mstore\n        /* \"#utility.yul\":12587:12660   */\n      pop\n      jump\t// out\n        /* \"#utility.yul\":12666:12780   */\n    tag_162:\n        /* \"#utility.yul\":12772:12780   */\n      pop\n      jump\t// out\n        /* \"#utility.yul\":12786:12967   */\n    tag_167:\n        /* \"#utility.yul\":12926:12959   */\n      0x5265656e7472616e637947756172643a207265656e7472616e742063616c6c00\n        /* \"#utility.yul\":12922:12923   */\n      0x00\n        /* \"#utility.yul\":12914:12920   */\n      dup3\n        /* \"#utility.yul\":12910:12924   */\n      add\n        /* \"#utility.yul\":12903:12960   */\n      mstore\n        /* \"#utility.yul\":12892:12967   */\n      pop\n      jump\t// out\n        /* \"#utility.yul\":12973:13095   */\n    tag_106:\n        /* \"#utility.yul\":13046:13070   */\n      tag_250\n        /* \"#utility.yul\":13064:13069   */\n      dup2\n        /* \"#utility.yul\":13046:13070   */\n      tag_221\n      jump\t// in\n    tag_250:\n        /* \"#utility.yul\":13039:13044   */\n      dup2\n        /* \"#utility.yul\":13036:13071   */\n      eq\n        /* \"#utility.yul\":13026:13028   */\n      tag_251\n      jumpi\n        /* \"#utility.yul\":13085:13086   */\n      0x00\n        /* \"#utility.yul\":13082:13083   */\n      dup1\n        /* \"#utility.yul\":13075:13087   */\n      revert\n        /* \"#utility.yul\":13026:13028   */\n    tag_251:\n        /* \"#utility.yul\":13016:13095   */\n      pop\n      jump\t// out\n        /* \"#utility.yul\":13101:13239   */\n    tag_110:\n        /* \"#utility.yul\":13182:13214   */\n      tag_253\n        /* \"#utility.yul\":13208:13213   */\n      dup2\n        /* \"#utility.yul\":13182:13214   */\n      tag_137\n      jump\t// in\n    tag_253:\n        /* \"#utility.yul\":13175:13180   */\n      dup2\n        /* \"#utility.yul\":13172:13215   */\n      eq\n        /* \"#utility.yul\":13162:13164   */\n      tag_254\n      jumpi\n        /* \"#utility.yul\":13229:13230   */\n      0x00\n        /* \"#utility.yul\":13226:13227   */\n      dup1\n        /* \"#utility.yul\":13219:13231   */\n      revert\n        /* \"#utility.yul\":13162:13164   */\n    tag_254:\n        /* \"#utility.yul\":13152:13239   */\n      pop\n      jump\t// out\n        /* \"#utility.yul\":13245:13393   */\n    tag_118:\n        /* \"#utility.yul\":13331:13368   */\n      tag_256\n        /* \"#utility.yul\":13362:13367   */\n      dup2\n        /* \"#utility.yul\":13331:13368   */\n      tag_228\n      jump\t// in\n    tag_256:\n        /* \"#utility.yul\":13324:13329   */\n      dup2\n        /* \"#utility.yul\":13321:13369   */\n      eq\n        /* \"#utility.yul\":13311:13313   */\n      tag_257\n      jumpi\n        /* \"#utility.yul\":13383:13384   */\n      0x00\n        /* \"#utility.yul\":13380:13381   */\n      dup1\n        /* \"#utility.yul\":13373:13385   */\n      revert\n        /* \"#utility.yul\":13311:13313   */\n    tag_257:\n        /* \"#utility.yul\":13301:13393   */\n      pop\n      jump\t// out\n        /* \"#utility.yul\":13399:13521   */\n    tag_121:\n        /* \"#utility.yul\":13472:13496   */\n      tag_259\n        /* \"#utility.yul\":13490:13495   */\n      dup2\n        /* \"#utility.yul\":13472:13496   */\n      tag_171\n      jump\t// in\n    tag_259:\n        /* \"#utility.yul\":13465:13470   */\n      dup2\n        /* \"#utility.yul\":13462:13497   */\n      eq\n        /* \"#utility.yul\":13452:13454   */\n      tag_260\n      jumpi\n        /* \"#utility.yul\":13511:13512   */\n      0x00\n        /* \"#utility.yul\":13508:13509   */\n      dup1\n        /* \"#utility.yul\":13501:13513   */\n      revert\n        /* \"#utility.yul\":13452:13454   */\n    tag_260:\n        /* \"#utility.yul\":13442:13521   */\n      pop\n      jump\t// out\n\n    auxdata: 0xa2646970667358221220b9b97993803104052340990a67ddfdd8e9d93bcd76b41172695ced2d191f3c3c64736f6c63430008040033\n}\n",
				"bytecode": {
					"linkReferences": {},
					"object": "608060405234801561001057600080fd5b506001600081905550610fb5806100286000396000f3fe6080604052600436106100865760003560e01c8063861faf5f11610059578063861faf5f146101455780638f1eae4c1461014f578063acfb235514610178578063e2d3f423146101a8578063f8b2cb4f146101ea57610086565b806318856a2f1461008b578063200d2ed2146100c157806356c5f349146100ec5780637964783314610129575b600080fd5b34801561009757600080fd5b506100a0610227565b6040516100b89c9b9a99989796959493929190610b20565b60405180910390f35b3480156100cd57600080fd5b506100d66102d5565b6040516100e39190610c3a565b60405180910390f35b3480156100f857600080fd5b50610113600480360381019061010e919061098d565b61030b565b6040516101209190610c3a565b60405180910390f35b610143600480360381019061013e9190610a1a565b610323565b005b61014d61046c565b005b34801561015b57600080fd5b50610176600480360381019061017191906109b6565b6104b5565b005b34801561018457600080fd5b5061018d61080e565b60405161019f96959493929190610cb6565b60405180910390f35b3480156101b457600080fd5b506101cf60048036038101906101ca919061098d565b610838565b6040516101e196959493929190610c55565b60405180910390f35b3480156101f657600080fd5b50610211600480360381019061020c919061098d565b61088e565b60405161021e9190610c3a565b60405180910390f35b60098060000160009054906101000a900473ffffffffffffffffffffffffffffffffffffffff16908060010160009054906101000a900473ffffffffffffffffffffffffffffffffffffffff16908060020160009054906101000a900473ffffffffffffffffffffffffffffffffffffffff169080600301549080600401549080600501549080600601549080600701549080600801549080600901549080600a01549080600b015490508c565b60006009600401544210156102ed5760009050610308565b6009600501544211156103035760029050610308565b600190505b90565b60026020528060005260406000206000915090505481565b60026000541415610369576040517f08c379a000000000000000000000000000000000000000000000000000000000815260040161036090610c1a565b60405180910390fd5b6002600081905550804710156103b4576040517f08c379a00000000000000000000000000000000000000000000000000000000081526004016103ab90610bfa565b60405180910390fd5b60003373ffffffffffffffffffffffffffffffffffffffff16826040516103da90610b0b565b60006040518083038185875af1925050503d8060008114610417576040519150601f19603f3d011682016040523d82523d6000602084013e61041c565b606091505b5050905080610460576040517f08c379a000000000000000000000000000000000000000000000000000000000815260040161045790610bda565b60405180910390fd5b50600160008190555050565b3373ffffffffffffffffffffffffffffffffffffffff166108fc479081150290604051600060405180830381858888f193505050501580156104b2573d6000803e3d6000fd5b50565b83600960000160006101000a81548173ffffffffffffffffffffffffffffffffffffffff021916908373ffffffffffffffffffffffffffffffffffffffff16021790555082600960010160006101000a81548173ffffffffffffffffffffffffffffffffffffffff021916908373ffffffffffffffffffffffffffffffffffffffff16021790555081600960020160006101000a81548173ffffffffffffffffffffffffffffffffffffffff021916908373ffffffffffffffffffffffffffffffffffffffff160217905550806000600981106105bb577f4e487b7100000000000000000000000000000000000000000000000000000000600052603260045260246000fd5b602002015160096003018190555080600160098110610603577f4e487b7100000000000000000000000000000000000000000000000000000000600052603260045260246000fd5b60200201516009600401819055508060026009811061064b577f4e487b7100000000000000000000000000000000000000000000000000000000600052603260045260246000fd5b602002015160096005018190555080600360098110610693577f4e487b7100000000000000000000000000000000000000000000000000000000600052603260045260246000fd5b6020020151600960060181905550806004600981106106db577f4e487b7100000000000000000000000000000000000000000000000000000000600052603260045260246000fd5b602002015160096007018190555080600560098110610723577f4e487b7100000000000000000000000000000000000000000000000000000000600052603260045260246000fd5b60200201516009600801819055508060066009811061076b577f4e487b7100000000000000000000000000000000000000000000000000000000600052603260045260246000fd5b60200201516009800181905550806007600981106107b2577f4e487b7100000000000000000000000000000000000000000000000000000000600052603260045260246000fd5b60200201516009600a0181905550806008600981106107fa577f4e487b7100000000000000000000000000000000000000000000000000000000600052603260045260246000fd5b60200201516009600b018190555050505050565b60038060000154908060010154908060020154908060030154908060040154908060050154905086565b60016020528060005260406000206000915090508060000154908060010154908060020154908060030154908060040160009054906101000a900460ff16908060040160019054906101000a900460ff16905086565b60008173ffffffffffffffffffffffffffffffffffffffff16319050919050565b60006108c26108bd84610d3c565b610d17565b905080828560208602820111156108d857600080fd5b60005b8581101561090857816108ee8882610978565b8452602084019350602083019250506001810190506108db565b5050509392505050565b60008135905061092181610f23565b92915050565b60008135905061093681610f3a565b92915050565b600082601f83011261094d57600080fd5b600961095a8482856108af565b91505092915050565b60008135905061097281610f51565b92915050565b60008135905061098781610f68565b92915050565b60006020828403121561099f57600080fd5b60006109ad84828501610912565b91505092915050565b60008060008061018085870312156109cd57600080fd5b60006109db87828801610927565b94505060206109ec87828801610963565b93505060406109fd87828801610963565b9250506060610a0e8782880161093c565b91505092959194509250565b600060208284031215610a2c57600080fd5b6000610a3a84828501610978565b91505092915050565b610a4c81610d90565b82525050565b610a5b81610da2565b82525050565b610a6a81610dea565b82525050565b6000610a7d603a83610d6d565b9150610a8882610e7f565b604082019050919050565b6000610aa0601d83610d6d565b9150610aab82610ece565b602082019050919050565b6000610ac3600083610d62565b9150610ace82610ef7565b600082019050919050565b6000610ae6601f83610d6d565b9150610af182610efa565b602082019050919050565b610b0581610de0565b82525050565b6000610b1682610ab6565b9150819050919050565b600061018082019050610b36600083018f610a43565b610b43602083018e610a61565b610b50604083018d610a61565b610b5d606083018c610afc565b610b6a608083018b610afc565b610b7760a083018a610afc565b610b8460c0830189610afc565b610b9160e0830188610afc565b610b9f610100830187610afc565b610bad610120830186610afc565b610bbb610140830185610afc565b610bc9610160830184610afc565b9d9c50505050505050505050505050565b60006020820190508181036000830152610bf381610a70565b9050919050565b60006020820190508181036000830152610c1381610a93565b9050919050565b60006020820190508181036000830152610c3381610ad9565b9050919050565b6000602082019050610c4f6000830184610afc565b92915050565b600060c082019050610c6a6000830189610afc565b610c776020830188610afc565b610c846040830187610afc565b610c916060830186610afc565b610c9e6080830185610a52565b610cab60a0830184610a52565b979650505050505050565b600060c082019050610ccb6000830189610afc565b610cd86020830188610afc565b610ce56040830187610afc565b610cf26060830186610afc565b610cff6080830185610afc565b610d0c60a0830184610afc565b979650505050505050565b6000610d21610d32565b9050610d2d8282610e0e565b919050565b6000604051905090565b600067ffffffffffffffff821115610d5757610d56610e3f565b5b602082029050919050565b600081905092915050565b600082825260208201905092915050565b6000610d8982610dc0565b9050919050565b6000610d9b82610dc0565b9050919050565b60008115159050919050565b6000610db982610d7e565b9050919050565b600073ffffffffffffffffffffffffffffffffffffffff82169050919050565b6000819050919050565b6000610df582610dfc565b9050919050565b6000610e0782610dc0565b9050919050565b610e1782610e6e565b810181811067ffffffffffffffff82111715610e3657610e35610e3f565b5b80604052505050565b7f4e487b7100000000000000000000000000000000000000000000000000000000600052604160045260246000fd5b6000601f19601f8301169050919050565b7f416464726573733a20756e61626c6520746f2073656e642076616c75652c207260008201527f6563697069656e74206d61792068617665207265766572746564000000000000602082015250565b7f416464726573733a20696e73756666696369656e742062616c616e6365000000600082015250565b50565b7f5265656e7472616e637947756172643a207265656e7472616e742063616c6c00600082015250565b610f2c81610d7e565b8114610f3757600080fd5b50565b610f4381610d90565b8114610f4e57600080fd5b50565b610f5a81610dae565b8114610f6557600080fd5b50565b610f7181610de0565b8114610f7c57600080fd5b5056fea2646970667358221220b9b97993803104052340990a67ddfdd8e9d93bcd76b41172695ced2d191f3c3c64736f6c63430008040033",
					"opcodes": "PUSH1 0x80 PUSH1 0x40 MSTORE CALLVALUE DUP1 ISZERO PUSH2 0x10 JUMPI PUSH1 0x0 DUP1 REVERT JUMPDEST POP PUSH1 0x1 PUSH1 0x0 DUP2 SWAP1 SSTORE POP PUSH2 0xFB5 DUP1 PUSH2 0x28 PUSH1 0x0 CODECOPY PUSH1 0x0 RETURN INVALID PUSH1 0x80 PUSH1 0x40 MSTORE PUSH1 0x4 CALLDATASIZE LT PUSH2 0x86 JUMPI PUSH1 0x0 CALLDATALOAD PUSH1 0xE0 SHR DUP1 PUSH4 0x861FAF5F GT PUSH2 0x59 JUMPI DUP1 PUSH4 0x861FAF5F EQ PUSH2 0x145 JUMPI DUP1 PUSH4 0x8F1EAE4C EQ PUSH2 0x14F JUMPI DUP1 PUSH4 0xACFB2355 EQ PUSH2 0x178 JUMPI DUP1 PUSH4 0xE2D3F423 EQ PUSH2 0x1A8 JUMPI DUP1 PUSH4 0xF8B2CB4F EQ PUSH2 0x1EA JUMPI PUSH2 0x86 JUMP JUMPDEST DUP1 PUSH4 0x18856A2F EQ PUSH2 0x8B JUMPI DUP1 PUSH4 0x200D2ED2 EQ PUSH2 0xC1 JUMPI DUP1 PUSH4 0x56C5F349 EQ PUSH2 0xEC JUMPI DUP1 PUSH4 0x79647833 EQ PUSH2 0x129 JUMPI JUMPDEST PUSH1 0x0 DUP1 REVERT JUMPDEST CALLVALUE DUP1 ISZERO PUSH2 0x97 JUMPI PUSH1 0x0 DUP1 REVERT JUMPDEST POP PUSH2 0xA0 PUSH2 0x227 JUMP JUMPDEST PUSH1 0x40 MLOAD PUSH2 0xB8 SWAP13 SWAP12 SWAP11 SWAP10 SWAP9 SWAP8 SWAP7 SWAP6 SWAP5 SWAP4 SWAP3 SWAP2 SWAP1 PUSH2 0xB20 JUMP JUMPDEST PUSH1 0x40 MLOAD DUP1 SWAP2 SUB SWAP1 RETURN JUMPDEST CALLVALUE DUP1 ISZERO PUSH2 0xCD JUMPI PUSH1 0x0 DUP1 REVERT JUMPDEST POP PUSH2 0xD6 PUSH2 0x2D5 JUMP JUMPDEST PUSH1 0x40 MLOAD PUSH2 0xE3 SWAP2 SWAP1 PUSH2 0xC3A JUMP JUMPDEST PUSH1 0x40 MLOAD DUP1 SWAP2 SUB SWAP1 RETURN JUMPDEST CALLVALUE DUP1 ISZERO PUSH2 0xF8 JUMPI PUSH1 0x0 DUP1 REVERT JUMPDEST POP PUSH2 0x113 PUSH1 0x4 DUP1 CALLDATASIZE SUB DUP2 ADD SWAP1 PUSH2 0x10E SWAP2 SWAP1 PUSH2 0x98D JUMP JUMPDEST PUSH2 0x30B JUMP JUMPDEST PUSH1 0x40 MLOAD PUSH2 0x120 SWAP2 SWAP1 PUSH2 0xC3A JUMP JUMPDEST PUSH1 0x40 MLOAD DUP1 SWAP2 SUB SWAP1 RETURN JUMPDEST PUSH2 0x143 PUSH1 0x4 DUP1 CALLDATASIZE SUB DUP2 ADD SWAP1 PUSH2 0x13E SWAP2 SWAP1 PUSH2 0xA1A JUMP JUMPDEST PUSH2 0x323 JUMP JUMPDEST STOP JUMPDEST PUSH2 0x14D PUSH2 0x46C JUMP JUMPDEST STOP JUMPDEST CALLVALUE DUP1 ISZERO PUSH2 0x15B JUMPI PUSH1 0x0 DUP1 REVERT JUMPDEST POP PUSH2 0x176 PUSH1 0x4 DUP1 CALLDATASIZE SUB DUP2 ADD SWAP1 PUSH2 0x171 SWAP2 SWAP1 PUSH2 0x9B6 JUMP JUMPDEST PUSH2 0x4B5 JUMP JUMPDEST STOP JUMPDEST CALLVALUE DUP1 ISZERO PUSH2 0x184 JUMPI PUSH1 0x0 DUP1 REVERT JUMPDEST POP PUSH2 0x18D PUSH2 0x80E JUMP JUMPDEST PUSH1 0x40 MLOAD PUSH2 0x19F SWAP7 SWAP6 SWAP5 SWAP4 SWAP3 SWAP2 SWAP1 PUSH2 0xCB6 JUMP JUMPDEST PUSH1 0x40 MLOAD DUP1 SWAP2 SUB SWAP1 RETURN JUMPDEST CALLVALUE DUP1 ISZERO PUSH2 0x1B4 JUMPI PUSH1 0x0 DUP1 REVERT JUMPDEST POP PUSH2 0x1CF PUSH1 0x4 DUP1 CALLDATASIZE SUB DUP2 ADD SWAP1 PUSH2 0x1CA SWAP2 SWAP1 PUSH2 0x98D JUMP JUMPDEST PUSH2 0x838 JUMP JUMPDEST PUSH1 0x40 MLOAD PUSH2 0x1E1 SWAP7 SWAP6 SWAP5 SWAP4 SWAP3 SWAP2 SWAP1 PUSH2 0xC55 JUMP JUMPDEST PUSH1 0x40 MLOAD DUP1 SWAP2 SUB SWAP1 RETURN JUMPDEST CALLVALUE DUP1 ISZERO PUSH2 0x1F6 JUMPI PUSH1 0x0 DUP1 REVERT JUMPDEST POP PUSH2 0x211 PUSH1 0x4 DUP1 CALLDATASIZE SUB DUP2 ADD SWAP1 PUSH2 0x20C SWAP2 SWAP1 PUSH2 0x98D JUMP JUMPDEST PUSH2 0x88E JUMP JUMPDEST PUSH1 0x40 MLOAD PUSH2 0x21E SWAP2 SWAP1 PUSH2 0xC3A JUMP JUMPDEST PUSH1 0x40 MLOAD DUP1 SWAP2 SUB SWAP1 RETURN JUMPDEST PUSH1 0x9 DUP1 PUSH1 0x0 ADD PUSH1 0x0 SWAP1 SLOAD SWAP1 PUSH2 0x100 EXP SWAP1 DIV PUSH20 0xFFFFFFFFFFFFFFFFFFFFFFFFFFFFFFFFFFFFFFFF AND SWAP1 DUP1 PUSH1 0x1 ADD PUSH1 0x0 SWAP1 SLOAD SWAP1 PUSH2 0x100 EXP SWAP1 DIV PUSH20 0xFFFFFFFFFFFFFFFFFFFFFFFFFFFFFFFFFFFFFFFF AND SWAP1 DUP1 PUSH1 0x2 ADD PUSH1 0x0 SWAP1 SLOAD SWAP1 PUSH2 0x100 EXP SWAP1 DIV PUSH20 0xFFFFFFFFFFFFFFFFFFFFFFFFFFFFFFFFFFFFFFFF AND SWAP1 DUP1 PUSH1 0x3 ADD SLOAD SWAP1 DUP1 PUSH1 0x4 ADD SLOAD SWAP1 DUP1 PUSH1 0x5 ADD SLOAD SWAP1 DUP1 PUSH1 0x6 ADD SLOAD SWAP1 DUP1 PUSH1 0x7 ADD SLOAD SWAP1 DUP1 PUSH1 0x8 ADD SLOAD SWAP1 DUP1 PUSH1 0x9 ADD SLOAD SWAP1 DUP1 PUSH1 0xA ADD SLOAD SWAP1 DUP1 PUSH1 0xB ADD SLOAD SWAP1 POP DUP13 JUMP JUMPDEST PUSH1 0x0 PUSH1 0x9 PUSH1 0x4 ADD SLOAD TIMESTAMP LT ISZERO PUSH2 0x2ED JUMPI PUSH1 0x0 SWAP1 POP PUSH2 0x308 JUMP JUMPDEST PUSH1 0x9 PUSH1 0x5 ADD SLOAD TIMESTAMP GT ISZERO PUSH2 0x303 JUMPI PUSH1 0x2 SWAP1 POP PUSH2 0x308 JUMP JUMPDEST PUSH1 0x1 SWAP1 POP JUMPDEST SWAP1 JUMP JUMPDEST PUSH1 0x2 PUSH1 0x20 MSTORE DUP1 PUSH1 0x0 MSTORE PUSH1 0x40 PUSH1 0x0 KECCAK256 PUSH1 0x0 SWAP2 POP SWAP1 POP SLOAD DUP2 JUMP JUMPDEST PUSH1 0x2 PUSH1 0x0 SLOAD EQ ISZERO PUSH2 0x369 JUMPI PUSH1 0x40 MLOAD PUSH32 0x8C379A000000000000000000000000000000000000000000000000000000000 DUP2 MSTORE PUSH1 0x4 ADD PUSH2 0x360 SWAP1 PUSH2 0xC1A JUMP JUMPDEST PUSH1 0x40 MLOAD DUP1 SWAP2 SUB SWAP1 REVERT JUMPDEST PUSH1 0x2 PUSH1 0x0 DUP2 SWAP1 SSTORE POP DUP1 SELFBALANCE LT ISZERO PUSH2 0x3B4 JUMPI PUSH1 0x40 MLOAD PUSH32 0x8C379A000000000000000000000000000000000000000000000000000000000 DUP2 MSTORE PUSH1 0x4 ADD PUSH2 0x3AB SWAP1 PUSH2 0xBFA JUMP JUMPDEST PUSH1 0x40 MLOAD DUP1 SWAP2 SUB SWAP1 REVERT JUMPDEST PUSH1 0x0 CALLER PUSH20 0xFFFFFFFFFFFFFFFFFFFFFFFFFFFFFFFFFFFFFFFF AND DUP3 PUSH1 0x40 MLOAD PUSH2 0x3DA SWAP1 PUSH2 0xB0B JUMP JUMPDEST PUSH1 0x0 PUSH1 0x40 MLOAD DUP1 DUP4 SUB DUP2 DUP6 DUP8 GAS CALL SWAP3 POP POP POP RETURNDATASIZE DUP1 PUSH1 0x0 DUP2 EQ PUSH2 0x417 JUMPI PUSH1 0x40 MLOAD SWAP2 POP PUSH1 0x1F NOT PUSH1 0x3F RETURNDATASIZE ADD AND DUP3 ADD PUSH1 0x40 MSTORE RETURNDATASIZE DUP3 MSTORE RETURNDATASIZE PUSH1 0x0 PUSH1 0x20 DUP5 ADD RETURNDATACOPY PUSH2 0x41C JUMP JUMPDEST PUSH1 0x60 SWAP2 POP JUMPDEST POP POP SWAP1 POP DUP1 PUSH2 0x460 JUMPI PUSH1 0x40 MLOAD PUSH32 0x8C379A000000000000000000000000000000000000000000000000000000000 DUP2 MSTORE PUSH1 0x4 ADD PUSH2 0x457 SWAP1 PUSH2 0xBDA JUMP JUMPDEST PUSH1 0x40 MLOAD DUP1 SWAP2 SUB SWAP1 REVERT JUMPDEST POP PUSH1 0x1 PUSH1 0x0 DUP2 SWAP1 SSTORE POP POP JUMP JUMPDEST CALLER PUSH20 0xFFFFFFFFFFFFFFFFFFFFFFFFFFFFFFFFFFFFFFFF AND PUSH2 0x8FC SELFBALANCE SWAP1 DUP2 ISZERO MUL SWAP1 PUSH1 0x40 MLOAD PUSH1 0x0 PUSH1 0x40 MLOAD DUP1 DUP4 SUB DUP2 DUP6 DUP9 DUP9 CALL SWAP4 POP POP POP POP ISZERO DUP1 ISZERO PUSH2 0x4B2 JUMPI RETURNDATASIZE PUSH1 0x0 DUP1 RETURNDATACOPY RETURNDATASIZE PUSH1 0x0 REVERT JUMPDEST POP JUMP JUMPDEST DUP4 PUSH1 0x9 PUSH1 0x0 ADD PUSH1 0x0 PUSH2 0x100 EXP DUP2 SLOAD DUP2 PUSH20 0xFFFFFFFFFFFFFFFFFFFFFFFFFFFFFFFFFFFFFFFF MUL NOT AND SWAP1 DUP4 PUSH20 0xFFFFFFFFFFFFFFFFFFFFFFFFFFFFFFFFFFFFFFFF AND MUL OR SWAP1 SSTORE POP DUP3 PUSH1 0x9 PUSH1 0x1 ADD PUSH1 0x0 PUSH2 0x100 EXP DUP2 SLOAD DUP2 PUSH20 0xFFFFFFFFFFFFFFFFFFFFFFFFFFFFFFFFFFFFFFFF MUL NOT AND SWAP1 DUP4 PUSH20 0xFFFFFFFFFFFFFFFFFFFFFFFFFFFFFFFFFFFFFFFF AND MUL OR SWAP1 SSTORE POP DUP2 PUSH1 0x9 PUSH1 0x2 ADD PUSH1 0x0 PUSH2 0x100 EXP DUP2 SLOAD DUP2 PUSH20 0xFFFFFFFFFFFFFFFFFFFFFFFFFFFFFFFFFFFFFFFF MUL NOT AND SWAP1 DUP4 PUSH20 0xFFFFFFFFFFFFFFFFFFFFFFFFFFFFFFFFFFFFFFFF AND MUL OR SWAP1 SSTORE POP DUP1 PUSH1 0x0 PUSH1 0x9 DUP2 LT PUSH2 0x5BB JUMPI PUSH32 0x4E487B7100000000000000000000000000000000000000000000000000000000 PUSH1 0x0 MSTORE PUSH1 0x32 PUSH1 0x4 MSTORE PUSH1 0x24 PUSH1 0x0 REVERT JUMPDEST PUSH1 0x20 MUL ADD MLOAD PUSH1 0x9 PUSH1 0x3 ADD DUP2 SWAP1 SSTORE POP DUP1 PUSH1 0x1 PUSH1 0x9 DUP2 LT PUSH2 0x603 JUMPI PUSH32 0x4E487B7100000000000000000000000000000000000000000000000000000000 PUSH1 0x0 MSTORE PUSH1 0x32 PUSH1 0x4 MSTORE PUSH1 0x24 PUSH1 0x0 REVERT JUMPDEST PUSH1 0x20 MUL ADD MLOAD PUSH1 0x9 PUSH1 0x4 ADD DUP2 SWAP1 SSTORE POP DUP1 PUSH1 0x2 PUSH1 0x9 DUP2 LT PUSH2 0x64B JUMPI PUSH32 0x4E487B7100000000000000000000000000000000000000000000000000000000 PUSH1 0x0 MSTORE PUSH1 0x32 PUSH1 0x4 MSTORE PUSH1 0x24 PUSH1 0x0 REVERT JUMPDEST PUSH1 0x20 MUL ADD MLOAD PUSH1 0x9 PUSH1 0x5 ADD DUP2 SWAP1 SSTORE POP DUP1 PUSH1 0x3 PUSH1 0x9 DUP2 LT PUSH2 0x693 JUMPI PUSH32 0x4E487B7100000000000000000000000000000000000000000000000000000000 PUSH1 0x0 MSTORE PUSH1 0x32 PUSH1 0x4 MSTORE PUSH1 0x24 PUSH1 0x0 REVERT JUMPDEST PUSH1 0x20 MUL ADD MLOAD PUSH1 0x9 PUSH1 0x6 ADD DUP2 SWAP1 SSTORE POP DUP1 PUSH1 0x4 PUSH1 0x9 DUP2 LT PUSH2 0x6DB JUMPI PUSH32 0x4E487B7100000000000000000000000000000000000000000000000000000000 PUSH1 0x0 MSTORE PUSH1 0x32 PUSH1 0x4 MSTORE PUSH1 0x24 PUSH1 0x0 REVERT JUMPDEST PUSH1 0x20 MUL ADD MLOAD PUSH1 0x9 PUSH1 0x7 ADD DUP2 SWAP1 SSTORE POP DUP1 PUSH1 0x5 PUSH1 0x9 DUP2 LT PUSH2 0x723 JUMPI PUSH32 0x4E487B7100000000000000000000000000000000000000000000000000000000 PUSH1 0x0 MSTORE PUSH1 0x32 PUSH1 0x4 MSTORE PUSH1 0x24 PUSH1 0x0 REVERT JUMPDEST PUSH1 0x20 MUL ADD MLOAD PUSH1 0x9 PUSH1 0x8 ADD DUP2 SWAP1 SSTORE POP DUP1 PUSH1 0x6 PUSH1 0x9 DUP2 LT PUSH2 0x76B JUMPI PUSH32 0x4E487B7100000000000000000000000000000000000000000000000000000000 PUSH1 0x0 MSTORE PUSH1 0x32 PUSH1 0x4 MSTORE PUSH1 0x24 PUSH1 0x0 REVERT JUMPDEST PUSH1 0x20 MUL ADD MLOAD PUSH1 0x9 DUP1 ADD DUP2 SWAP1 SSTORE POP DUP1 PUSH1 0x7 PUSH1 0x9 DUP2 LT PUSH2 0x7B2 JUMPI PUSH32 0x4E487B7100000000000000000000000000000000000000000000000000000000 PUSH1 0x0 MSTORE PUSH1 0x32 PUSH1 0x4 MSTORE PUSH1 0x24 PUSH1 0x0 REVERT JUMPDEST PUSH1 0x20 MUL ADD MLOAD PUSH1 0x9 PUSH1 0xA ADD DUP2 SWAP1 SSTORE POP DUP1 PUSH1 0x8 PUSH1 0x9 DUP2 LT PUSH2 0x7FA JUMPI PUSH32 0x4E487B7100000000000000000000000000000000000000000000000000000000 PUSH1 0x0 MSTORE PUSH1 0x32 PUSH1 0x4 MSTORE PUSH1 0x24 PUSH1 0x0 REVERT JUMPDEST PUSH1 0x20 MUL ADD MLOAD PUSH1 0x9 PUSH1 0xB ADD DUP2 SWAP1 SSTORE POP POP POP POP POP JUMP JUMPDEST PUSH1 0x3 DUP1 PUSH1 0x0 ADD SLOAD SWAP1 DUP1 PUSH1 0x1 ADD SLOAD SWAP1 DUP1 PUSH1 0x2 ADD SLOAD SWAP1 DUP1 PUSH1 0x3 ADD SLOAD SWAP1 DUP1 PUSH1 0x4 ADD SLOAD SWAP1 DUP1 PUSH1 0x5 ADD SLOAD SWAP1 POP DUP7 JUMP JUMPDEST PUSH1 0x1 PUSH1 0x20 MSTORE DUP1 PUSH1 0x0 MSTORE PUSH1 0x40 PUSH1 0x0 KECCAK256 PUSH1 0x0 SWAP2 POP SWAP1 POP DUP1 PUSH1 0x0 ADD SLOAD SWAP1 DUP1 PUSH1 0x1 ADD SLOAD SWAP1 DUP1 PUSH1 0x2 ADD SLOAD SWAP1 DUP1 PUSH1 0x3 ADD SLOAD SWAP1 DUP1 PUSH1 0x4 ADD PUSH1 0x0 SWAP1 SLOAD SWAP1 PUSH2 0x100 EXP SWAP1 DIV PUSH1 0xFF AND SWAP1 DUP1 PUSH1 0x4 ADD PUSH1 0x1 SWAP1 SLOAD SWAP1 PUSH2 0x100 EXP SWAP1 DIV PUSH1 0xFF AND SWAP1 POP DUP7 JUMP JUMPDEST PUSH1 0x0 DUP2 PUSH20 0xFFFFFFFFFFFFFFFFFFFFFFFFFFFFFFFFFFFFFFFF AND BALANCE SWAP1 POP SWAP2 SWAP1 POP JUMP JUMPDEST PUSH1 0x0 PUSH2 0x8C2 PUSH2 0x8BD DUP5 PUSH2 0xD3C JUMP JUMPDEST PUSH2 0xD17 JUMP JUMPDEST SWAP1 POP DUP1 DUP3 DUP6 PUSH1 0x20 DUP7 MUL DUP3 ADD GT ISZERO PUSH2 0x8D8 JUMPI PUSH1 0x0 DUP1 REVERT JUMPDEST PUSH1 0x0 JUMPDEST DUP6 DUP2 LT ISZERO PUSH2 0x908 JUMPI DUP2 PUSH2 0x8EE DUP9 DUP3 PUSH2 0x978 JUMP JUMPDEST DUP5 MSTORE PUSH1 0x20 DUP5 ADD SWAP4 POP PUSH1 0x20 DUP4 ADD SWAP3 POP POP PUSH1 0x1 DUP2 ADD SWAP1 POP PUSH2 0x8DB JUMP JUMPDEST POP POP POP SWAP4 SWAP3 POP POP POP JUMP JUMPDEST PUSH1 0x0 DUP2 CALLDATALOAD SWAP1 POP PUSH2 0x921 DUP2 PUSH2 0xF23 JUMP JUMPDEST SWAP3 SWAP2 POP POP JUMP JUMPDEST PUSH1 0x0 DUP2 CALLDATALOAD SWAP1 POP PUSH2 0x936 DUP2 PUSH2 0xF3A JUMP JUMPDEST SWAP3 SWAP2 POP POP JUMP JUMPDEST PUSH1 0x0 DUP3 PUSH1 0x1F DUP4 ADD SLT PUSH2 0x94D JUMPI PUSH1 0x0 DUP1 REVERT JUMPDEST PUSH1 0x9 PUSH2 0x95A DUP5 DUP3 DUP6 PUSH2 0x8AF JUMP JUMPDEST SWAP2 POP POP SWAP3 SWAP2 POP POP JUMP JUMPDEST PUSH1 0x0 DUP2 CALLDATALOAD SWAP1 POP PUSH2 0x972 DUP2 PUSH2 0xF51 JUMP JUMPDEST SWAP3 SWAP2 POP POP JUMP JUMPDEST PUSH1 0x0 DUP2 CALLDATALOAD SWAP1 POP PUSH2 0x987 DUP2 PUSH2 0xF68 JUMP JUMPDEST SWAP3 SWAP2 POP POP JUMP JUMPDEST PUSH1 0x0 PUSH1 0x20 DUP3 DUP5 SUB SLT ISZERO PUSH2 0x99F JUMPI PUSH1 0x0 DUP1 REVERT JUMPDEST PUSH1 0x0 PUSH2 0x9AD DUP5 DUP3 DUP6 ADD PUSH2 0x912 JUMP JUMPDEST SWAP2 POP POP SWAP3 SWAP2 POP POP JUMP JUMPDEST PUSH1 0x0 DUP1 PUSH1 0x0 DUP1 PUSH2 0x180 DUP6 DUP8 SUB SLT ISZERO PUSH2 0x9CD JUMPI PUSH1 0x0 DUP1 REVERT JUMPDEST PUSH1 0x0 PUSH2 0x9DB DUP8 DUP3 DUP9 ADD PUSH2 0x927 JUMP JUMPDEST SWAP5 POP POP PUSH1 0x20 PUSH2 0x9EC DUP8 DUP3 DUP9 ADD PUSH2 0x963 JUMP JUMPDEST SWAP4 POP POP PUSH1 0x40 PUSH2 0x9FD DUP8 DUP3 DUP9 ADD PUSH2 0x963 JUMP JUMPDEST SWAP3 POP POP PUSH1 0x60 PUSH2 0xA0E DUP8 DUP3 DUP9 ADD PUSH2 0x93C JUMP JUMPDEST SWAP2 POP POP SWAP3 SWAP6 SWAP2 SWAP5 POP SWAP3 POP JUMP JUMPDEST PUSH1 0x0 PUSH1 0x20 DUP3 DUP5 SUB SLT ISZERO PUSH2 0xA2C JUMPI PUSH1 0x0 DUP1 REVERT JUMPDEST PUSH1 0x0 PUSH2 0xA3A DUP5 DUP3 DUP6 ADD PUSH2 0x978 JUMP JUMPDEST SWAP2 POP POP SWAP3 SWAP2 POP POP JUMP JUMPDEST PUSH2 0xA4C DUP2 PUSH2 0xD90 JUMP JUMPDEST DUP3 MSTORE POP POP JUMP JUMPDEST PUSH2 0xA5B DUP2 PUSH2 0xDA2 JUMP JUMPDEST DUP3 MSTORE POP POP JUMP JUMPDEST PUSH2 0xA6A DUP2 PUSH2 0xDEA JUMP JUMPDEST DUP3 MSTORE POP POP JUMP JUMPDEST PUSH1 0x0 PUSH2 0xA7D PUSH1 0x3A DUP4 PUSH2 0xD6D JUMP JUMPDEST SWAP2 POP PUSH2 0xA88 DUP3 PUSH2 0xE7F JUMP JUMPDEST PUSH1 0x40 DUP3 ADD SWAP1 POP SWAP2 SWAP1 POP JUMP JUMPDEST PUSH1 0x0 PUSH2 0xAA0 PUSH1 0x1D DUP4 PUSH2 0xD6D JUMP JUMPDEST SWAP2 POP PUSH2 0xAAB DUP3 PUSH2 0xECE JUMP JUMPDEST PUSH1 0x20 DUP3 ADD SWAP1 POP SWAP2 SWAP1 POP JUMP JUMPDEST PUSH1 0x0 PUSH2 0xAC3 PUSH1 0x0 DUP4 PUSH2 0xD62 JUMP JUMPDEST SWAP2 POP PUSH2 0xACE DUP3 PUSH2 0xEF7 JUMP JUMPDEST PUSH1 0x0 DUP3 ADD SWAP1 POP SWAP2 SWAP1 POP JUMP JUMPDEST PUSH1 0x0 PUSH2 0xAE6 PUSH1 0x1F DUP4 PUSH2 0xD6D JUMP JUMPDEST SWAP2 POP PUSH2 0xAF1 DUP3 PUSH2 0xEFA JUMP JUMPDEST PUSH1 0x20 DUP3 ADD SWAP1 POP SWAP2 SWAP1 POP JUMP JUMPDEST PUSH2 0xB05 DUP2 PUSH2 0xDE0 JUMP JUMPDEST DUP3 MSTORE POP POP JUMP JUMPDEST PUSH1 0x0 PUSH2 0xB16 DUP3 PUSH2 0xAB6 JUMP JUMPDEST SWAP2 POP DUP2 SWAP1 POP SWAP2 SWAP1 POP JUMP JUMPDEST PUSH1 0x0 PUSH2 0x180 DUP3 ADD SWAP1 POP PUSH2 0xB36 PUSH1 0x0 DUP4 ADD DUP16 PUSH2 0xA43 JUMP JUMPDEST PUSH2 0xB43 PUSH1 0x20 DUP4 ADD DUP15 PUSH2 0xA61 JUMP JUMPDEST PUSH2 0xB50 PUSH1 0x40 DUP4 ADD DUP14 PUSH2 0xA61 JUMP JUMPDEST PUSH2 0xB5D PUSH1 0x60 DUP4 ADD DUP13 PUSH2 0xAFC JUMP JUMPDEST PUSH2 0xB6A PUSH1 0x80 DUP4 ADD DUP12 PUSH2 0xAFC JUMP JUMPDEST PUSH2 0xB77 PUSH1 0xA0 DUP4 ADD DUP11 PUSH2 0xAFC JUMP JUMPDEST PUSH2 0xB84 PUSH1 0xC0 DUP4 ADD DUP10 PUSH2 0xAFC JUMP JUMPDEST PUSH2 0xB91 PUSH1 0xE0 DUP4 ADD DUP9 PUSH2 0xAFC JUMP JUMPDEST PUSH2 0xB9F PUSH2 0x100 DUP4 ADD DUP8 PUSH2 0xAFC JUMP JUMPDEST PUSH2 0xBAD PUSH2 0x120 DUP4 ADD DUP7 PUSH2 0xAFC JUMP JUMPDEST PUSH2 0xBBB PUSH2 0x140 DUP4 ADD DUP6 PUSH2 0xAFC JUMP JUMPDEST PUSH2 0xBC9 PUSH2 0x160 DUP4 ADD DUP5 PUSH2 0xAFC JUMP JUMPDEST SWAP14 SWAP13 POP POP POP POP POP POP POP POP POP POP POP POP POP JUMP JUMPDEST PUSH1 0x0 PUSH1 0x20 DUP3 ADD SWAP1 POP DUP2 DUP2 SUB PUSH1 0x0 DUP4 ADD MSTORE PUSH2 0xBF3 DUP2 PUSH2 0xA70 JUMP JUMPDEST SWAP1 POP SWAP2 SWAP1 POP JUMP JUMPDEST PUSH1 0x0 PUSH1 0x20 DUP3 ADD SWAP1 POP DUP2 DUP2 SUB PUSH1 0x0 DUP4 ADD MSTORE PUSH2 0xC13 DUP2 PUSH2 0xA93 JUMP JUMPDEST SWAP1 POP SWAP2 SWAP1 POP JUMP JUMPDEST PUSH1 0x0 PUSH1 0x20 DUP3 ADD SWAP1 POP DUP2 DUP2 SUB PUSH1 0x0 DUP4 ADD MSTORE PUSH2 0xC33 DUP2 PUSH2 0xAD9 JUMP JUMPDEST SWAP1 POP SWAP2 SWAP1 POP JUMP JUMPDEST PUSH1 0x0 PUSH1 0x20 DUP3 ADD SWAP1 POP PUSH2 0xC4F PUSH1 0x0 DUP4 ADD DUP5 PUSH2 0xAFC JUMP JUMPDEST SWAP3 SWAP2 POP POP JUMP JUMPDEST PUSH1 0x0 PUSH1 0xC0 DUP3 ADD SWAP1 POP PUSH2 0xC6A PUSH1 0x0 DUP4 ADD DUP10 PUSH2 0xAFC JUMP JUMPDEST PUSH2 0xC77 PUSH1 0x20 DUP4 ADD DUP9 PUSH2 0xAFC JUMP JUMPDEST PUSH2 0xC84 PUSH1 0x40 DUP4 ADD DUP8 PUSH2 0xAFC JUMP JUMPDEST PUSH2 0xC91 PUSH1 0x60 DUP4 ADD DUP7 PUSH2 0xAFC JUMP JUMPDEST PUSH2 0xC9E PUSH1 0x80 DUP4 ADD DUP6 PUSH2 0xA52 JUMP JUMPDEST PUSH2 0xCAB PUSH1 0xA0 DUP4 ADD DUP5 PUSH2 0xA52 JUMP JUMPDEST SWAP8 SWAP7 POP POP POP POP POP POP POP JUMP JUMPDEST PUSH1 0x0 PUSH1 0xC0 DUP3 ADD SWAP1 POP PUSH2 0xCCB PUSH1 0x0 DUP4 ADD DUP10 PUSH2 0xAFC JUMP JUMPDEST PUSH2 0xCD8 PUSH1 0x20 DUP4 ADD DUP9 PUSH2 0xAFC JUMP JUMPDEST PUSH2 0xCE5 PUSH1 0x40 DUP4 ADD DUP8 PUSH2 0xAFC JUMP JUMPDEST PUSH2 0xCF2 PUSH1 0x60 DUP4 ADD DUP7 PUSH2 0xAFC JUMP JUMPDEST PUSH2 0xCFF PUSH1 0x80 DUP4 ADD DUP6 PUSH2 0xAFC JUMP JUMPDEST PUSH2 0xD0C PUSH1 0xA0 DUP4 ADD DUP5 PUSH2 0xAFC JUMP JUMPDEST SWAP8 SWAP7 POP POP POP POP POP POP POP JUMP JUMPDEST PUSH1 0x0 PUSH2 0xD21 PUSH2 0xD32 JUMP JUMPDEST SWAP1 POP PUSH2 0xD2D DUP3 DUP3 PUSH2 0xE0E JUMP JUMPDEST SWAP2 SWAP1 POP JUMP JUMPDEST PUSH1 0x0 PUSH1 0x40 MLOAD SWAP1 POP SWAP1 JUMP JUMPDEST PUSH1 0x0 PUSH8 0xFFFFFFFFFFFFFFFF DUP3 GT ISZERO PUSH2 0xD57 JUMPI PUSH2 0xD56 PUSH2 0xE3F JUMP JUMPDEST JUMPDEST PUSH1 0x20 DUP3 MUL SWAP1 POP SWAP2 SWAP1 POP JUMP JUMPDEST PUSH1 0x0 DUP2 SWAP1 POP SWAP3 SWAP2 POP POP JUMP JUMPDEST PUSH1 0x0 DUP3 DUP3 MSTORE PUSH1 0x20 DUP3 ADD SWAP1 POP SWAP3 SWAP2 POP POP JUMP JUMPDEST PUSH1 0x0 PUSH2 0xD89 DUP3 PUSH2 0xDC0 JUMP JUMPDEST SWAP1 POP SWAP2 SWAP1 POP JUMP JUMPDEST PUSH1 0x0 PUSH2 0xD9B DUP3 PUSH2 0xDC0 JUMP JUMPDEST SWAP1 POP SWAP2 SWAP1 POP JUMP JUMPDEST PUSH1 0x0 DUP2 ISZERO ISZERO SWAP1 POP SWAP2 SWAP1 POP JUMP JUMPDEST PUSH1 0x0 PUSH2 0xDB9 DUP3 PUSH2 0xD7E JUMP JUMPDEST SWAP1 POP SWAP2 SWAP1 POP JUMP JUMPDEST PUSH1 0x0 PUSH20 0xFFFFFFFFFFFFFFFFFFFFFFFFFFFFFFFFFFFFFFFF DUP3 AND SWAP1 POP SWAP2 SWAP1 POP JUMP JUMPDEST PUSH1 0x0 DUP2 SWAP1 POP SWAP2 SWAP1 POP JUMP JUMPDEST PUSH1 0x0 PUSH2 0xDF5 DUP3 PUSH2 0xDFC JUMP JUMPDEST SWAP1 POP SWAP2 SWAP1 POP JUMP JUMPDEST PUSH1 0x0 PUSH2 0xE07 DUP3 PUSH2 0xDC0 JUMP JUMPDEST SWAP1 POP SWAP2 SWAP1 POP JUMP JUMPDEST PUSH2 0xE17 DUP3 PUSH2 0xE6E JUMP JUMPDEST DUP2 ADD DUP2 DUP2 LT PUSH8 0xFFFFFFFFFFFFFFFF DUP3 GT OR ISZERO PUSH2 0xE36 JUMPI PUSH2 0xE35 PUSH2 0xE3F JUMP JUMPDEST JUMPDEST DUP1 PUSH1 0x40 MSTORE POP POP POP JUMP JUMPDEST PUSH32 0x4E487B7100000000000000000000000000000000000000000000000000000000 PUSH1 0x0 MSTORE PUSH1 0x41 PUSH1 0x4 MSTORE PUSH1 0x24 PUSH1 0x0 REVERT JUMPDEST PUSH1 0x0 PUSH1 0x1F NOT PUSH1 0x1F DUP4 ADD AND SWAP1 POP SWAP2 SWAP1 POP JUMP JUMPDEST PUSH32 0x416464726573733A20756E61626C6520746F2073656E642076616C75652C2072 PUSH1 0x0 DUP3 ADD MSTORE PUSH32 0x6563697069656E74206D61792068617665207265766572746564000000000000 PUSH1 0x20 DUP3 ADD MSTORE POP JUMP JUMPDEST PUSH32 0x416464726573733A20696E73756666696369656E742062616C616E6365000000 PUSH1 0x0 DUP3 ADD MSTORE POP JUMP JUMPDEST POP JUMP JUMPDEST PUSH32 0x5265656E7472616E637947756172643A207265656E7472616E742063616C6C00 PUSH1 0x0 DUP3 ADD MSTORE POP JUMP JUMPDEST PUSH2 0xF2C DUP2 PUSH2 0xD7E JUMP JUMPDEST DUP2 EQ PUSH2 0xF37 JUMPI PUSH1 0x0 DUP1 REVERT JUMPDEST POP JUMP JUMPDEST PUSH2 0xF43 DUP2 PUSH2 0xD90 JUMP JUMPDEST DUP2 EQ PUSH2 0xF4E JUMPI PUSH1 0x0 DUP1 REVERT JUMPDEST POP JUMP JUMPDEST PUSH2 0xF5A DUP2 PUSH2 0xDAE JUMP JUMPDEST DUP2 EQ PUSH2 0xF65 JUMPI PUSH1 0x0 DUP1 REVERT JUMPDEST POP JUMP JUMPDEST PUSH2 0xF71 DUP2 PUSH2 0xDE0 JUMP JUMPDEST DUP2 EQ PUSH2 0xF7C JUMPI PUSH1 0x0 DUP1 REVERT JUMPDEST POP JUMP INVALID LOG2 PUSH5 0x6970667358 0x22 SLT KECCAK256 0xB9 0xB9 PUSH26 0x93803104052340990A67DDFDD8E9D93BCD76B41172695CED2D19 0x1F EXTCODECOPY EXTCODECOPY PUSH5 0x736F6C6343 STOP ADDMOD DIV STOP CALLER "
				},
				"gasEstimates": {
					"creation": {
						"codeDepositCost": "804200",
						"executionCost": "20852",
						"totalCost": "825052"
					},
					"external": {
						"backToken()": "infinite",
						"buyerInfo(address)": "infinite",
						"depodit(uint256)": "infinite",
						"getBalance(address)": "1445",
						"initialSaleInfor(address,address,address,uint256[9])": "infinite",
						"presaleStatus()": "infinite",
						"saleInfor()": "infinite",
						"status()": "2033",
						"userFee(address)": "1559"
					}
				},
				"methodIdentifiers": {
					"backToken()": "861faf5f",
					"buyerInfo(address)": "e2d3f423",
					"depodit(uint256)": "79647833",
					"getBalance(address)": "f8b2cb4f",
					"initialSaleInfor(address,address,address,uint256[9])": "8f1eae4c",
					"presaleStatus()": "acfb2355",
					"saleInfor()": "18856a2f",
					"status()": "200d2ed2",
					"userFee(address)": "56c5f349"
				}
			},
			"storageLayout": {
				"storage": [
					{
						"astId": 359,
						"contract": "Ethereum/Presale.sol:Presale",
						"label": "_status",
						"offset": 0,
						"slot": "0",
						"type": "t_uint256"
					},
					{
						"astId": 141,
						"contract": "Ethereum/Presale.sol:Presale",
						"label": "buyerInfo",
						"offset": 0,
						"slot": "1",
						"type": "t_mapping(t_address,t_struct(BuyerInfo)123_storage)"
					},
					{
						"astId": 145,
						"contract": "Ethereum/Presale.sol:Presale",
						"label": "userFee",
						"offset": 0,
						"slot": "2",
						"type": "t_mapping(t_address,t_uint256)"
					},
					{
						"astId": 148,
						"contract": "Ethereum/Presale.sol:Presale",
						"label": "presaleStatus",
						"offset": 0,
						"slot": "3",
						"type": "t_struct(PresaleStatus)136_storage"
					},
					{
						"astId": 151,
						"contract": "Ethereum/Presale.sol:Presale",
						"label": "saleInfor",
						"offset": 0,
						"slot": "9",
						"type": "t_struct(SaleInfor)110_storage"
					}
				],
				"types": {
					"t_address": {
						"encoding": "inplace",
						"label": "address",
						"numberOfBytes": "20"
					},
					"t_address_payable": {
						"encoding": "inplace",
						"label": "address payable",
						"numberOfBytes": "20"
					},
					"t_bool": {
						"encoding": "inplace",
						"label": "bool",
						"numberOfBytes": "1"
					},
					"t_contract(IERC20)77": {
						"encoding": "inplace",
						"label": "contract IERC20",
						"numberOfBytes": "20"
					},
					"t_mapping(t_address,t_struct(BuyerInfo)123_storage)": {
						"encoding": "mapping",
						"key": "t_address",
						"label": "mapping(address => struct Presale.BuyerInfo)",
						"numberOfBytes": "32",
						"value": "t_struct(BuyerInfo)123_storage"
					},
					"t_mapping(t_address,t_uint256)": {
						"encoding": "mapping",
						"key": "t_address",
						"label": "mapping(address => uint256)",
						"numberOfBytes": "32",
						"value": "t_uint256"
					},
					"t_struct(BuyerInfo)123_storage": {
						"encoding": "inplace",
						"label": "struct Presale.BuyerInfo",
						"members": [
							{
								"astId": 112,
								"contract": "Ethereum/Presale.sol:Presale",
								"label": "baseDeposit",
								"offset": 0,
								"slot": "0",
								"type": "t_uint256"
							},
							{
								"astId": 114,
								"contract": "Ethereum/Presale.sol:Presale",
								"label": "tokenOwner",
								"offset": 0,
								"slot": "1",
								"type": "t_uint256"
							},
							{
								"astId": 116,
								"contract": "Ethereum/Presale.sol:Presale",
								"label": "lastWithDraw",
								"offset": 0,
								"slot": "2",
								"type": "t_uint256"
							},
							{
								"astId": 118,
								"contract": "Ethereum/Presale.sol:Presale",
								"label": "totalTokenWithDraw",
								"offset": 0,
								"slot": "3",
								"type": "t_uint256"
							},
							{
								"astId": 120,
								"contract": "Ethereum/Presale.sol:Presale",
								"label": "isRefund",
								"offset": 0,
								"slot": "4",
								"type": "t_bool"
							},
							{
								"astId": 122,
								"contract": "Ethereum/Presale.sol:Presale",
								"label": "isClaim",
								"offset": 1,
								"slot": "4",
								"type": "t_bool"
							}
						],
						"numberOfBytes": "160"
					},
					"t_struct(PresaleStatus)136_storage": {
						"encoding": "inplace",
						"label": "struct Presale.PresaleStatus",
						"members": [
							{
								"astId": 125,
								"contract": "Ethereum/Presale.sol:Presale",
								"label": "totalBaseCollected",
								"offset": 0,
								"slot": "0",
								"type": "t_uint256"
							},
							{
								"astId": 127,
								"contract": "Ethereum/Presale.sol:Presale",
								"label": "totalTokenSold",
								"offset": 0,
								"slot": "1",
								"type": "t_uint256"
							},
							{
								"astId": 129,
								"contract": "Ethereum/Presale.sol:Presale",
								"label": "totalTokenWithDraw",
								"offset": 0,
								"slot": "2",
								"type": "t_uint256"
							},
							{
								"astId": 131,
								"contract": "Ethereum/Presale.sol:Presale",
								"label": "totalBaseWithDraw",
								"offset": 0,
								"slot": "3",
								"type": "t_uint256"
							},
							{
								"astId": 133,
								"contract": "Ethereum/Presale.sol:Presale",
								"label": "numByer",
								"offset": 0,
								"slot": "4",
								"type": "t_uint256"
							},
							{
								"astId": 135,
								"contract": "Ethereum/Presale.sol:Presale",
								"label": "totalFee",
								"offset": 0,
								"slot": "5",
								"type": "t_uint256"
							}
						],
						"numberOfBytes": "192"
					},
					"t_struct(SaleInfor)110_storage": {
						"encoding": "inplace",
						"label": "struct Presale.SaleInfor",
						"members": [
							{
								"astId": 85,
								"contract": "Ethereum/Presale.sol:Presale",
								"label": "presaleOwner",
								"offset": 0,
								"slot": "0",
								"type": "t_address_payable"
							},
							{
								"astId": 88,
								"contract": "Ethereum/Presale.sol:Presale",
								"label": "saleToken",
								"offset": 0,
								"slot": "1",
								"type": "t_contract(IERC20)77"
							},
							{
								"astId": 91,
								"contract": "Ethereum/Presale.sol:Presale",
								"label": "baseToken",
								"offset": 0,
								"slot": "2",
								"type": "t_contract(IERC20)77"
							},
							{
								"astId": 93,
								"contract": "Ethereum/Presale.sol:Presale",
								"label": "tokenPrice",
								"offset": 0,
								"slot": "3",
								"type": "t_uint256"
							},
							{
								"astId": 95,
								"contract": "Ethereum/Presale.sol:Presale",
								"label": "startSale",
								"offset": 0,
								"slot": "4",
								"type": "t_uint256"
							},
							{
								"astId": 97,
								"contract": "Ethereum/Presale.sol:Presale",
								"label": "endSale",
								"offset": 0,
								"slot": "5",
								"type": "t_uint256"
							},
							{
								"astId": 99,
								"contract": "Ethereum/Presale.sol:Presale",
								"label": "valueSwapERC20",
								"offset": 0,
								"slot": "6",
								"type": "t_uint256"
							},
							{
								"astId": 101,
								"contract": "Ethereum/Presale.sol:Presale",
								"label": "feeTransaction",
								"offset": 0,
								"slot": "7",
								"type": "t_uint256"
							},
							{
								"astId": 103,
								"contract": "Ethereum/Presale.sol:Presale",
								"label": "minSpendPerBuyer",
								"offset": 0,
								"slot": "8",
								"type": "t_uint256"
							},
							{
								"astId": 105,
								"contract": "Ethereum/Presale.sol:Presale",
								"label": "maxSpendPerBuyer",
								"offset": 0,
								"slot": "9",
								"type": "t_uint256"
							},
							{
								"astId": 107,
								"contract": "Ethereum/Presale.sol:Presale",
								"label": "refundFee",
								"offset": 0,
								"slot": "10",
								"type": "t_uint256"
							},
							{
								"astId": 109,
								"contract": "Ethereum/Presale.sol:Presale",
								"label": "claimFee",
								"offset": 0,
								"slot": "11",
								"type": "t_uint256"
							}
						],
						"numberOfBytes": "384"
					},
					"t_uint256": {
						"encoding": "inplace",
						"label": "uint256",
						"numberOfBytes": "32"
					}
				}
			},
			"userdoc": {
				"kind": "user",
				"methods": {},
				"version": 1
			}
		}
	}
}