{
	"Ethereum/Presale.sol": {
		"Presale": {
			"abi": [
				{
					"inputs": [],
					"name": "backToken",
					"outputs": [],
					"stateMutability": "payable",
					"type": "function"
				},
				{
					"inputs": [
						{
							"internalType": "address",
							"name": "",
							"type": "address"
						}
					],
					"name": "buyerInfo",
					"outputs": [
						{
							"internalType": "uint256",
							"name": "baseDeposit",
							"type": "uint256"
						},
						{
							"internalType": "uint256",
							"name": "tokenOwner",
							"type": "uint256"
						},
						{
							"internalType": "uint256",
							"name": "lastWithDraw",
							"type": "uint256"
						},
						{
							"internalType": "uint256",
							"name": "totalTokenWithDraw",
							"type": "uint256"
						},
						{
							"internalType": "bool",
							"name": "isRefund",
							"type": "bool"
						},
						{
							"internalType": "bool",
							"name": "isClaim",
							"type": "bool"
						}
					],
					"stateMutability": "view",
					"type": "function"
				},
				{
					"inputs": [
						{
							"internalType": "uint256",
							"name": "amount",
							"type": "uint256"
						}
					],
					"name": "depodit",
					"outputs": [],
					"stateMutability": "payable",
					"type": "function"
				},
				{
					"inputs": [
						{
							"internalType": "address payable",
							"name": "_presaleOwner",
							"type": "address"
						},
						{
							"internalType": "contract IERC20",
							"name": "_saleToken",
							"type": "address"
						},
						{
							"internalType": "contract IERC20",
							"name": "_baseTOken",
							"type": "address"
						},
						{
							"internalType": "uint256[9]",
							"name": "datas",
							"type": "uint256[9]"
						}
					],
					"name": "initialSaleInfor",
					"outputs": [],
					"stateMutability": "nonpayable",
					"type": "function"
				},
				{
					"inputs": [],
					"name": "presaleStatus",
					"outputs": [
						{
							"internalType": "uint256",
							"name": "totalBaseCollected",
							"type": "uint256"
						},
						{
							"internalType": "uint256",
							"name": "totalTokenSold",
							"type": "uint256"
						},
						{
							"internalType": "uint256",
							"name": "totalTokenWithDraw",
							"type": "uint256"
						},
						{
							"internalType": "uint256",
							"name": "totalBaseWithDraw",
							"type": "uint256"
						},
						{
							"internalType": "uint256",
							"name": "numByer",
							"type": "uint256"
						},
						{
							"internalType": "uint256",
							"name": "totalFee",
							"type": "uint256"
						}
					],
					"stateMutability": "view",
					"type": "function"
				},
				{
					"inputs": [],
					"name": "saleInfor",
					"outputs": [
						{
							"internalType": "address payable",
							"name": "presaleOwner",
							"type": "address"
						},
						{
							"internalType": "contract IERC20",
							"name": "saleToken",
							"type": "address"
						},
						{
							"internalType": "contract IERC20",
							"name": "baseToken",
							"type": "address"
						},
						{
							"internalType": "uint256",
							"name": "tokenPrice",
							"type": "uint256"
						},
						{
							"internalType": "uint256",
							"name": "startSale",
							"type": "uint256"
						},
						{
							"internalType": "uint256",
							"name": "endSale",
							"type": "uint256"
						},
						{
							"internalType": "uint256",
							"name": "valueSwapERC20",
							"type": "uint256"
						},
						{
							"internalType": "uint256",
							"name": "feeTransaction",
							"type": "uint256"
						},
						{
							"internalType": "uint256",
							"name": "minSpendPerBuyer",
							"type": "uint256"
						},
						{
							"internalType": "uint256",
							"name": "maxSpendPerBuyer",
							"type": "uint256"
						},
						{
							"internalType": "uint256",
							"name": "refundFee",
							"type": "uint256"
						},
						{
							"internalType": "uint256",
							"name": "claimFee",
							"type": "uint256"
						}
					],
					"stateMutability": "view",
					"type": "function"
				},
				{
					"inputs": [],
					"name": "status",
					"outputs": [
						{
							"internalType": "uint256",
							"name": "",
							"type": "uint256"
						}
					],
					"stateMutability": "view",
					"type": "function"
				},
				{
					"inputs": [
						{
							"internalType": "address",
							"name": "",
							"type": "address"
						}
					],
					"name": "userFee",
					"outputs": [
						{
							"internalType": "uint256",
							"name": "",
							"type": "uint256"
						}
					],
					"stateMutability": "view",
					"type": "function"
				}
			],
			"devdoc": {
				"kind": "dev",
				"methods": {},
				"version": 1
			},
			"evm": {
				"assembly": "    /* \"Ethereum/Presale.sol\":193:2604  contract Presale is ReentrancyGuard{\r... */\n  mstore(0x40, 0x80)\n  callvalue\n  dup1\n  iszero\n  tag_1\n  jumpi\n  0x00\n  dup1\n  revert\ntag_1:\n  pop\n    /* \"Utils/ReentrancyGuard.sol\":1734:1735  1 */\n  0x01\n    /* \"Utils/ReentrancyGuard.sol\":1845:1852  _status */\n  0x00\n    /* \"Utils/ReentrancyGuard.sol\":1845:1867  _status = _NOT_ENTERED */\n  dup2\n  swap1\n  sstore\n  pop\n    /* \"Ethereum/Presale.sol\":193:2604  contract Presale is ReentrancyGuard{\r... */\n  dataSize(sub_0)\n  dup1\n  dataOffset(sub_0)\n  0x00\n  codecopy\n  0x00\n  return\nstop\n\nsub_0: assembly {\n        /* \"Ethereum/Presale.sol\":193:2604  contract Presale is ReentrancyGuard{\r... */\n      mstore(0x40, 0x80)\n      jumpi(tag_1, lt(calldatasize, 0x04))\n      shr(0xe0, calldataload(0x00))\n      dup1\n      0x861faf5f\n      gt\n      tag_10\n      jumpi\n      dup1\n      0x861faf5f\n      eq\n      tag_6\n      jumpi\n      dup1\n      0x8f1eae4c\n      eq\n      tag_7\n      jumpi\n      dup1\n      0xacfb2355\n      eq\n      tag_8\n      jumpi\n      dup1\n      0xe2d3f423\n      eq\n      tag_9\n      jumpi\n      jump(tag_1)\n    tag_10:\n      dup1\n      0x18856a2f\n      eq\n      tag_2\n      jumpi\n      dup1\n      0x200d2ed2\n      eq\n      tag_3\n      jumpi\n      dup1\n      0x56c5f349\n      eq\n      tag_4\n      jumpi\n      dup1\n      0x79647833\n      eq\n      tag_5\n      jumpi\n    tag_1:\n      0x00\n      dup1\n      revert\n        /* \"Ethereum/Presale.sol\":1222:1248  SaleInfor public saleInfor */\n    tag_2:\n      callvalue\n      dup1\n      iszero\n      tag_11\n      jumpi\n      0x00\n      dup1\n      revert\n    tag_11:\n      pop\n      tag_12\n      tag_13\n      jump\t// in\n    tag_12:\n      mload(0x40)\n      tag_14\n      swap13\n      swap12\n      swap11\n      swap10\n      swap9\n      swap8\n      swap7\n      swap6\n      swap5\n      swap4\n      swap3\n      swap2\n      swap1\n      tag_15\n      jump\t// in\n    tag_14:\n      mload(0x40)\n      dup1\n      swap2\n      sub\n      swap1\n      return\n        /* \"Ethereum/Presale.sol\":1972:2311  function status() external view returns(uint256) {\r... */\n    tag_3:\n      callvalue\n      dup1\n      iszero\n      tag_16\n      jumpi\n      0x00\n      dup1\n      revert\n    tag_16:\n      pop\n      tag_17\n      tag_18\n      jump\t// in\n    tag_17:\n      mload(0x40)\n      tag_19\n      swap2\n      swap1\n      tag_20\n      jump\t// in\n    tag_19:\n      mload(0x40)\n      dup1\n      swap2\n      sub\n      swap1\n      return\n        /* \"Ethereum/Presale.sol\":1132:1174  mapping(address => uint256) public userFee */\n    tag_4:\n      callvalue\n      dup1\n      iszero\n      tag_21\n      jumpi\n      0x00\n      dup1\n      revert\n    tag_21:\n      pop\n      tag_22\n      0x04\n      dup1\n      calldatasize\n      sub\n      dup2\n      add\n      swap1\n      tag_23\n      swap2\n      swap1\n      tag_24\n      jump\t// in\n    tag_23:\n      tag_25\n      jump\t// in\n    tag_22:\n      mload(0x40)\n      tag_26\n      swap2\n      swap1\n      tag_20\n      jump\t// in\n    tag_26:\n      mload(0x40)\n      dup1\n      swap2\n      sub\n      swap1\n      return\n        /* \"Ethereum/Presale.sol\":2353:2485  function depodit(uint256 amount) external payable nonReentrant {\r... */\n    tag_5:\n      tag_27\n      0x04\n      dup1\n      calldatasize\n      sub\n      dup2\n      add\n      swap1\n      tag_28\n      swap2\n      swap1\n      tag_29\n      jump\t// in\n    tag_28:\n      tag_30\n      jump\t// in\n    tag_27:\n      stop\n        /* \"Ethereum/Presale.sol\":2491:2599  function backToken() external payable {\r... */\n    tag_6:\n      tag_31\n      tag_32\n      jump\t// in\n    tag_31:\n      stop\n        /* \"Ethereum/Presale.sol\":1257:1963  function initialSaleInfor(\r... */\n    tag_7:\n      callvalue\n      dup1\n      iszero\n      tag_33\n      jumpi\n      0x00\n      dup1\n      revert\n    tag_33:\n      pop\n      tag_34\n      0x04\n      dup1\n      calldatasize\n      sub\n      dup2\n      add\n      swap1\n      tag_35\n      swap2\n      swap1\n      tag_36\n      jump\t// in\n    tag_35:\n      tag_37\n      jump\t// in\n    tag_34:\n      stop\n        /* \"Ethereum/Presale.sol\":1181:1215  PresaleStatus public presaleStatus */\n    tag_8:\n      callvalue\n      dup1\n      iszero\n      tag_38\n      jumpi\n      0x00\n      dup1\n      revert\n    tag_38:\n      pop\n      tag_39\n      tag_40\n      jump\t// in\n    tag_39:\n      mload(0x40)\n      tag_41\n      swap7\n      swap6\n      swap5\n      swap4\n      swap3\n      swap2\n      swap1\n      tag_42\n      jump\t// in\n    tag_41:\n      mload(0x40)\n      dup1\n      swap2\n      sub\n      swap1\n      return\n        /* \"Ethereum/Presale.sol\":1079:1125  mapping(address => BuyerInfo) public buyerInfo */\n    tag_9:\n      callvalue\n      dup1\n      iszero\n      tag_43\n      jumpi\n      0x00\n      dup1\n      revert\n    tag_43:\n      pop\n      tag_44\n      0x04\n      dup1\n      calldatasize\n      sub\n      dup2\n      add\n      swap1\n      tag_45\n      swap2\n      swap1\n      tag_24\n      jump\t// in\n    tag_45:\n      tag_46\n      jump\t// in\n    tag_44:\n      mload(0x40)\n      tag_47\n      swap7\n      swap6\n      swap5\n      swap4\n      swap3\n      swap2\n      swap1\n      tag_48\n      jump\t// in\n    tag_47:\n      mload(0x40)\n      dup1\n      swap2\n      sub\n      swap1\n      return\n        /* \"Ethereum/Presale.sol\":1222:1248  SaleInfor public saleInfor */\n    tag_13:\n      0x09\n      dup1\n      0x00\n      add\n      0x00\n      swap1\n      sload\n      swap1\n      0x0100\n      exp\n      swap1\n      div\n      0xffffffffffffffffffffffffffffffffffffffff\n      and\n      swap1\n      dup1\n      0x01\n      add\n      0x00\n      swap1\n      sload\n      swap1\n      0x0100\n      exp\n      swap1\n      div\n      0xffffffffffffffffffffffffffffffffffffffff\n      and\n      swap1\n      dup1\n      0x02\n      add\n      0x00\n      swap1\n      sload\n      swap1\n      0x0100\n      exp\n      swap1\n      div\n      0xffffffffffffffffffffffffffffffffffffffff\n      and\n      swap1\n      dup1\n      0x03\n      add\n      sload\n      swap1\n      dup1\n      0x04\n      add\n      sload\n      swap1\n      dup1\n      0x05\n      add\n      sload\n      swap1\n      dup1\n      0x06\n      add\n      sload\n      swap1\n      dup1\n      0x07\n      add\n      sload\n      swap1\n      dup1\n      0x08\n      add\n      sload\n      swap1\n      dup1\n      0x09\n      add\n      sload\n      swap1\n      dup1\n      0x0a\n      add\n      sload\n      swap1\n      dup1\n      0x0b\n      add\n      sload\n      swap1\n      pop\n      dup13\n      jump\t// out\n        /* \"Ethereum/Presale.sol\":1972:2311  function status() external view returns(uint256) {\r... */\n    tag_18:\n        /* \"Ethereum/Presale.sol\":2012:2019  uint256 */\n      0x00\n        /* \"Ethereum/Presale.sol\":2053:2062  saleInfor */\n      0x09\n        /* \"Ethereum/Presale.sol\":2053:2072  saleInfor.startSale */\n      0x04\n      add\n      sload\n        /* \"Ethereum/Presale.sol\":2035:2050  block.timestamp */\n      timestamp\n        /* \"Ethereum/Presale.sol\":2035:2072  block.timestamp < saleInfor.startSale */\n      lt\n        /* \"Ethereum/Presale.sol\":2032:2304  if(block.timestamp < saleInfor.startSale) {\r... */\n      iszero\n      tag_50\n      jumpi\n        /* \"Ethereum/Presale.sol\":2096:2097  0 */\n      0x00\n        /* \"Ethereum/Presale.sol\":2089:2097  return 0 */\n      swap1\n      pop\n      jump(tag_49)\n        /* \"Ethereum/Presale.sol\":2032:2304  if(block.timestamp < saleInfor.startSale) {\r... */\n    tag_50:\n        /* \"Ethereum/Presale.sol\":2163:2172  saleInfor */\n      0x09\n        /* \"Ethereum/Presale.sol\":2163:2180  saleInfor.endSale */\n      0x05\n      add\n      sload\n        /* \"Ethereum/Presale.sol\":2145:2160  block.timestamp */\n      timestamp\n        /* \"Ethereum/Presale.sol\":2145:2180  block.timestamp > saleInfor.endSale */\n      gt\n        /* \"Ethereum/Presale.sol\":2142:2293  if(block.timestamp > saleInfor.endSale) {\r... */\n      iszero\n      tag_52\n      jumpi\n        /* \"Ethereum/Presale.sol\":2208:2209  2 */\n      0x02\n        /* \"Ethereum/Presale.sol\":2201:2209  return 2 */\n      swap1\n      pop\n      jump(tag_49)\n        /* \"Ethereum/Presale.sol\":2142:2293  if(block.timestamp > saleInfor.endSale) {\r... */\n    tag_52:\n        /* \"Ethereum/Presale.sol\":2266:2267  1 */\n      0x01\n        /* \"Ethereum/Presale.sol\":2259:2267  return 1 */\n      swap1\n      pop\n        /* \"Ethereum/Presale.sol\":1972:2311  function status() external view returns(uint256) {\r... */\n    tag_49:\n      swap1\n      jump\t// out\n        /* \"Ethereum/Presale.sol\":1132:1174  mapping(address => uint256) public userFee */\n    tag_25:\n      mstore(0x20, 0x02)\n      dup1\n      0x00\n      mstore\n      keccak256(0x00, 0x40)\n      0x00\n      swap2\n      pop\n      swap1\n      pop\n      sload\n      dup2\n      jump\t// out\n        /* \"Ethereum/Presale.sol\":2353:2485  function depodit(uint256 amount) external payable nonReentrant {\r... */\n    tag_30:\n        /* \"Utils/ReentrancyGuard.sol\":1778:1779  2 */\n      0x02\n        /* \"Utils/ReentrancyGuard.sol\":2376:2383  _status */\n      sload(0x00)\n        /* \"Utils/ReentrancyGuard.sol\":2376:2395  _status != _ENTERED */\n      eq\n      iszero\n        /* \"Utils/ReentrancyGuard.sol\":2368:2431  require(_status != _ENTERED, \"ReentrancyGuard: reentrant call\") */\n      tag_55\n      jumpi\n      mload(0x40)\n      0x08c379a000000000000000000000000000000000000000000000000000000000\n      dup2\n      mstore\n      0x04\n      add\n      tag_56\n      swap1\n      tag_57\n      jump\t// in\n    tag_56:\n      mload(0x40)\n      dup1\n      swap2\n      sub\n      swap1\n      revert\n    tag_55:\n        /* \"Utils/ReentrancyGuard.sol\":1778:1779  2 */\n      0x02\n        /* \"Utils/ReentrancyGuard.sol\":2509:2516  _status */\n      0x00\n        /* \"Utils/ReentrancyGuard.sol\":2509:2527  _status = _ENTERED */\n      dup2\n      swap1\n      sstore\n      pop\n        /* \"Ethereum/Presale.sol\":2435:2445  msg.sender */\n      caller\n        /* \"Ethereum/Presale.sol\":2427:2455  payable(msg.sender).transfer */\n      0xffffffffffffffffffffffffffffffffffffffff\n      and\n        /* \"Ethereum/Presale.sol\":2427:2475  payable(msg.sender).transfer(msg.value - amount) */\n      0x08fc\n        /* \"Ethereum/Presale.sol\":2468:2474  amount */\n      dup3\n        /* \"Ethereum/Presale.sol\":2456:2465  msg.value */\n      callvalue\n        /* \"Ethereum/Presale.sol\":2456:2474  msg.value - amount */\n      tag_59\n      swap2\n      swap1\n      tag_60\n      jump\t// in\n    tag_59:\n        /* \"Ethereum/Presale.sol\":2427:2475  payable(msg.sender).transfer(msg.value - amount) */\n      swap1\n      dup2\n      iszero\n      mul\n      swap1\n      mload(0x40)\n      0x00\n      mload(0x40)\n      dup1\n      dup4\n      sub\n      dup2\n      dup6\n      dup9\n      dup9\n      call\n      swap4\n      pop\n      pop\n      pop\n      pop\n      iszero\n      dup1\n      iszero\n      tag_62\n      jumpi\n      returndatasize\n      0x00\n      dup1\n      returndatacopy\n      revert(0x00, returndatasize)\n    tag_62:\n      pop\n        /* \"Utils/ReentrancyGuard.sol\":1734:1735  1 */\n      0x01\n        /* \"Utils/ReentrancyGuard.sol\":2688:2695  _status */\n      0x00\n        /* \"Utils/ReentrancyGuard.sol\":2688:2710  _status = _NOT_ENTERED */\n      dup2\n      swap1\n      sstore\n      pop\n        /* \"Ethereum/Presale.sol\":2353:2485  function depodit(uint256 amount) external payable nonReentrant {\r... */\n      pop\n      jump\t// out\n        /* \"Ethereum/Presale.sol\":2491:2599  function backToken() external payable {\r... */\n    tag_32:\n        /* \"Ethereum/Presale.sol\":2548:2558  msg.sender */\n      caller\n        /* \"Ethereum/Presale.sol\":2540:2568  payable(msg.sender).transfer */\n      0xffffffffffffffffffffffffffffffffffffffff\n      and\n        /* \"Ethereum/Presale.sol\":2540:2591  payable(msg.sender).transfer(address(this).balance) */\n      0x08fc\n        /* \"Ethereum/Presale.sol\":2569:2590  address(this).balance */\n      selfbalance\n        /* \"Ethereum/Presale.sol\":2540:2591  payable(msg.sender).transfer(address(this).balance) */\n      swap1\n      dup2\n      iszero\n      mul\n      swap1\n      mload(0x40)\n      0x00\n      mload(0x40)\n      dup1\n      dup4\n      sub\n      dup2\n      dup6\n      dup9\n      dup9\n      call\n      swap4\n      pop\n      pop\n      pop\n      pop\n      iszero\n      dup1\n      iszero\n      tag_65\n      jumpi\n      returndatasize\n      0x00\n      dup1\n      returndatacopy\n      revert(0x00, returndatasize)\n    tag_65:\n      pop\n        /* \"Ethereum/Presale.sol\":2491:2599  function backToken() external payable {\r... */\n      jump\t// out\n        /* \"Ethereum/Presale.sol\":1257:1963  function initialSaleInfor(\r... */\n    tag_37:\n        /* \"Ethereum/Presale.sol\":1465:1478  _presaleOwner */\n      dup4\n        /* \"Ethereum/Presale.sol\":1440:1449  saleInfor */\n      0x09\n        /* \"Ethereum/Presale.sol\":1440:1462  saleInfor.presaleOwner */\n      0x00\n      add\n      0x00\n        /* \"Ethereum/Presale.sol\":1440:1478  saleInfor.presaleOwner = _presaleOwner */\n      0x0100\n      exp\n      dup2\n      sload\n      dup2\n      0xffffffffffffffffffffffffffffffffffffffff\n      mul\n      not\n      and\n      swap1\n      dup4\n      0xffffffffffffffffffffffffffffffffffffffff\n      and\n      mul\n      or\n      swap1\n      sstore\n      pop\n        /* \"Ethereum/Presale.sol\":1511:1521  _saleToken */\n      dup3\n        /* \"Ethereum/Presale.sol\":1489:1498  saleInfor */\n      0x09\n        /* \"Ethereum/Presale.sol\":1489:1508  saleInfor.saleToken */\n      0x01\n      add\n      0x00\n        /* \"Ethereum/Presale.sol\":1489:1521  saleInfor.saleToken = _saleToken */\n      0x0100\n      exp\n      dup2\n      sload\n      dup2\n      0xffffffffffffffffffffffffffffffffffffffff\n      mul\n      not\n      and\n      swap1\n      dup4\n      0xffffffffffffffffffffffffffffffffffffffff\n      and\n      mul\n      or\n      swap1\n      sstore\n      pop\n        /* \"Ethereum/Presale.sol\":1554:1564  _baseTOken */\n      dup2\n        /* \"Ethereum/Presale.sol\":1532:1541  saleInfor */\n      0x09\n        /* \"Ethereum/Presale.sol\":1532:1551  saleInfor.baseToken */\n      0x02\n      add\n      0x00\n        /* \"Ethereum/Presale.sol\":1532:1564  saleInfor.baseToken = _baseTOken */\n      0x0100\n      exp\n      dup2\n      sload\n      dup2\n      0xffffffffffffffffffffffffffffffffffffffff\n      mul\n      not\n      and\n      swap1\n      dup4\n      0xffffffffffffffffffffffffffffffffffffffff\n      and\n      mul\n      or\n      swap1\n      sstore\n      pop\n        /* \"Ethereum/Presale.sol\":1598:1603  datas */\n      dup1\n        /* \"Ethereum/Presale.sol\":1604:1605  0 */\n      0x00\n        /* \"Ethereum/Presale.sol\":1598:1606  datas[0] */\n      0x09\n      dup2\n      lt\n      tag_67\n      jumpi\n      mstore(0x00, 0x4e487b7100000000000000000000000000000000000000000000000000000000)\n      mstore(0x04, 0x32)\n      revert(0x00, 0x24)\n    tag_67:\n      0x20\n      mul\n      add\n      mload\n        /* \"Ethereum/Presale.sol\":1575:1584  saleInfor */\n      0x09\n        /* \"Ethereum/Presale.sol\":1575:1595  saleInfor.tokenPrice */\n      0x03\n      add\n        /* \"Ethereum/Presale.sol\":1575:1606  saleInfor.tokenPrice = datas[0] */\n      dup2\n      swap1\n      sstore\n      pop\n        /* \"Ethereum/Presale.sol\":1639:1644  datas */\n      dup1\n        /* \"Ethereum/Presale.sol\":1645:1646  1 */\n      0x01\n        /* \"Ethereum/Presale.sol\":1639:1647  datas[1] */\n      0x09\n      dup2\n      lt\n      tag_68\n      jumpi\n      mstore(0x00, 0x4e487b7100000000000000000000000000000000000000000000000000000000)\n      mstore(0x04, 0x32)\n      revert(0x00, 0x24)\n    tag_68:\n      0x20\n      mul\n      add\n      mload\n        /* \"Ethereum/Presale.sol\":1617:1626  saleInfor */\n      0x09\n        /* \"Ethereum/Presale.sol\":1617:1636  saleInfor.startSale */\n      0x04\n      add\n        /* \"Ethereum/Presale.sol\":1617:1647  saleInfor.startSale = datas[1] */\n      dup2\n      swap1\n      sstore\n      pop\n        /* \"Ethereum/Presale.sol\":1678:1683  datas */\n      dup1\n        /* \"Ethereum/Presale.sol\":1684:1685  2 */\n      0x02\n        /* \"Ethereum/Presale.sol\":1678:1686  datas[2] */\n      0x09\n      dup2\n      lt\n      tag_69\n      jumpi\n      mstore(0x00, 0x4e487b7100000000000000000000000000000000000000000000000000000000)\n      mstore(0x04, 0x32)\n      revert(0x00, 0x24)\n    tag_69:\n      0x20\n      mul\n      add\n      mload\n        /* \"Ethereum/Presale.sol\":1658:1667  saleInfor */\n      0x09\n        /* \"Ethereum/Presale.sol\":1658:1675  saleInfor.endSale */\n      0x05\n      add\n        /* \"Ethereum/Presale.sol\":1658:1686  saleInfor.endSale = datas[2] */\n      dup2\n      swap1\n      sstore\n      pop\n        /* \"Ethereum/Presale.sol\":1724:1729  datas */\n      dup1\n        /* \"Ethereum/Presale.sol\":1730:1731  3 */\n      0x03\n        /* \"Ethereum/Presale.sol\":1724:1732  datas[3] */\n      0x09\n      dup2\n      lt\n      tag_70\n      jumpi\n      mstore(0x00, 0x4e487b7100000000000000000000000000000000000000000000000000000000)\n      mstore(0x04, 0x32)\n      revert(0x00, 0x24)\n    tag_70:\n      0x20\n      mul\n      add\n      mload\n        /* \"Ethereum/Presale.sol\":1697:1706  saleInfor */\n      0x09\n        /* \"Ethereum/Presale.sol\":1697:1721  saleInfor.valueSwapERC20 */\n      0x06\n      add\n        /* \"Ethereum/Presale.sol\":1697:1732  saleInfor.valueSwapERC20 = datas[3] */\n      dup2\n      swap1\n      sstore\n      pop\n        /* \"Ethereum/Presale.sol\":1770:1775  datas */\n      dup1\n        /* \"Ethereum/Presale.sol\":1776:1777  4 */\n      0x04\n        /* \"Ethereum/Presale.sol\":1770:1778  datas[4] */\n      0x09\n      dup2\n      lt\n      tag_71\n      jumpi\n      mstore(0x00, 0x4e487b7100000000000000000000000000000000000000000000000000000000)\n      mstore(0x04, 0x32)\n      revert(0x00, 0x24)\n    tag_71:\n      0x20\n      mul\n      add\n      mload\n        /* \"Ethereum/Presale.sol\":1743:1752  saleInfor */\n      0x09\n        /* \"Ethereum/Presale.sol\":1743:1767  saleInfor.feeTransaction */\n      0x07\n      add\n        /* \"Ethereum/Presale.sol\":1743:1778  saleInfor.feeTransaction = datas[4] */\n      dup2\n      swap1\n      sstore\n      pop\n        /* \"Ethereum/Presale.sol\":1818:1823  datas */\n      dup1\n        /* \"Ethereum/Presale.sol\":1824:1825  5 */\n      0x05\n        /* \"Ethereum/Presale.sol\":1818:1826  datas[5] */\n      0x09\n      dup2\n      lt\n      tag_72\n      jumpi\n      mstore(0x00, 0x4e487b7100000000000000000000000000000000000000000000000000000000)\n      mstore(0x04, 0x32)\n      revert(0x00, 0x24)\n    tag_72:\n      0x20\n      mul\n      add\n      mload\n        /* \"Ethereum/Presale.sol\":1789:1798  saleInfor */\n      0x09\n        /* \"Ethereum/Presale.sol\":1789:1815  saleInfor.minSpendPerBuyer */\n      0x08\n      add\n        /* \"Ethereum/Presale.sol\":1789:1826  saleInfor.minSpendPerBuyer = datas[5] */\n      dup2\n      swap1\n      sstore\n      pop\n        /* \"Ethereum/Presale.sol\":1866:1871  datas */\n      dup1\n        /* \"Ethereum/Presale.sol\":1872:1873  6 */\n      0x06\n        /* \"Ethereum/Presale.sol\":1866:1874  datas[6] */\n      0x09\n      dup2\n      lt\n      tag_73\n      jumpi\n      mstore(0x00, 0x4e487b7100000000000000000000000000000000000000000000000000000000)\n      mstore(0x04, 0x32)\n      revert(0x00, 0x24)\n    tag_73:\n      0x20\n      mul\n      add\n      mload\n        /* \"Ethereum/Presale.sol\":1837:1846  saleInfor */\n      0x09\n        /* \"Ethereum/Presale.sol\":1837:1863  saleInfor.maxSpendPerBuyer */\n      dup1\n      add\n        /* \"Ethereum/Presale.sol\":1837:1874  saleInfor.maxSpendPerBuyer = datas[6] */\n      dup2\n      swap1\n      sstore\n      pop\n        /* \"Ethereum/Presale.sol\":1907:1912  datas */\n      dup1\n        /* \"Ethereum/Presale.sol\":1913:1914  7 */\n      0x07\n        /* \"Ethereum/Presale.sol\":1907:1915  datas[7] */\n      0x09\n      dup2\n      lt\n      tag_74\n      jumpi\n      mstore(0x00, 0x4e487b7100000000000000000000000000000000000000000000000000000000)\n      mstore(0x04, 0x32)\n      revert(0x00, 0x24)\n    tag_74:\n      0x20\n      mul\n      add\n      mload\n        /* \"Ethereum/Presale.sol\":1885:1894  saleInfor */\n      0x09\n        /* \"Ethereum/Presale.sol\":1885:1904  saleInfor.refundFee */\n      0x0a\n      add\n        /* \"Ethereum/Presale.sol\":1885:1915  saleInfor.refundFee = datas[7] */\n      dup2\n      swap1\n      sstore\n      pop\n        /* \"Ethereum/Presale.sol\":1947:1952  datas */\n      dup1\n        /* \"Ethereum/Presale.sol\":1953:1954  8 */\n      0x08\n        /* \"Ethereum/Presale.sol\":1947:1955  datas[8] */\n      0x09\n      dup2\n      lt\n      tag_75\n      jumpi\n      mstore(0x00, 0x4e487b7100000000000000000000000000000000000000000000000000000000)\n      mstore(0x04, 0x32)\n      revert(0x00, 0x24)\n    tag_75:\n      0x20\n      mul\n      add\n      mload\n        /* \"Ethereum/Presale.sol\":1926:1935  saleInfor */\n      0x09\n        /* \"Ethereum/Presale.sol\":1926:1944  saleInfor.claimFee */\n      0x0b\n      add\n        /* \"Ethereum/Presale.sol\":1926:1955  saleInfor.claimFee = datas[8] */\n      dup2\n      swap1\n      sstore\n      pop\n        /* \"Ethereum/Presale.sol\":1257:1963  function initialSaleInfor(\r... */\n      pop\n      pop\n      pop\n      pop\n      jump\t// out\n        /* \"Ethereum/Presale.sol\":1181:1215  PresaleStatus public presaleStatus */\n    tag_40:\n      0x03\n      dup1\n      0x00\n      add\n      sload\n      swap1\n      dup1\n      0x01\n      add\n      sload\n      swap1\n      dup1\n      0x02\n      add\n      sload\n      swap1\n      dup1\n      0x03\n      add\n      sload\n      swap1\n      dup1\n      0x04\n      add\n      sload\n      swap1\n      dup1\n      0x05\n      add\n      sload\n      swap1\n      pop\n      dup7\n      jump\t// out\n        /* \"Ethereum/Presale.sol\":1079:1125  mapping(address => BuyerInfo) public buyerInfo */\n    tag_46:\n      mstore(0x20, 0x01)\n      dup1\n      0x00\n      mstore\n      keccak256(0x00, 0x40)\n      0x00\n      swap2\n      pop\n      swap1\n      pop\n      dup1\n      0x00\n      add\n      sload\n      swap1\n      dup1\n      0x01\n      add\n      sload\n      swap1\n      dup1\n      0x02\n      add\n      sload\n      swap1\n      dup1\n      0x03\n      add\n      sload\n      swap1\n      dup1\n      0x04\n      add\n      0x00\n      swap1\n      sload\n      swap1\n      0x0100\n      exp\n      swap1\n      div\n      0xff\n      and\n      swap1\n      dup1\n      0x04\n      add\n      0x01\n      swap1\n      sload\n      swap1\n      0x0100\n      exp\n      swap1\n      div\n      0xff\n      and\n      swap1\n      pop\n      dup7\n      jump\t// out\n        /* \"#utility.yul\":25:613   */\n    tag_77:\n        /* \"#utility.yul\":119:124   */\n      0x00\n        /* \"#utility.yul\":144:223   */\n      tag_79\n        /* \"#utility.yul\":160:222   */\n      tag_80\n        /* \"#utility.yul\":215:221   */\n      dup5\n        /* \"#utility.yul\":160:222   */\n      tag_81\n      jump\t// in\n    tag_80:\n        /* \"#utility.yul\":144:223   */\n      tag_82\n      jump\t// in\n    tag_79:\n        /* \"#utility.yul\":135:223   */\n      swap1\n      pop\n        /* \"#utility.yul\":243:248   */\n      dup1\n        /* \"#utility.yul\":269:275   */\n      dup3\n        /* \"#utility.yul\":319:322   */\n      dup6\n        /* \"#utility.yul\":311:315   */\n      0x20\n        /* \"#utility.yul\":303:309   */\n      dup7\n        /* \"#utility.yul\":299:316   */\n      mul\n        /* \"#utility.yul\":294:297   */\n      dup3\n        /* \"#utility.yul\":290:317   */\n      add\n        /* \"#utility.yul\":287:323   */\n      gt\n        /* \"#utility.yul\":284:286   */\n      iszero\n      tag_83\n      jumpi\n        /* \"#utility.yul\":348:349   */\n      0x00\n        /* \"#utility.yul\":345:346   */\n      dup1\n        /* \"#utility.yul\":338:350   */\n      revert\n        /* \"#utility.yul\":284:286   */\n    tag_83:\n        /* \"#utility.yul\":384:385   */\n      0x00\n        /* \"#utility.yul\":369:607   */\n    tag_84:\n        /* \"#utility.yul\":394:400   */\n      dup6\n        /* \"#utility.yul\":391:392   */\n      dup2\n        /* \"#utility.yul\":388:401   */\n      lt\n        /* \"#utility.yul\":369:607   */\n      iszero\n      tag_86\n      jumpi\n        /* \"#utility.yul\":462:465   */\n      dup2\n        /* \"#utility.yul\":491:528   */\n      tag_87\n        /* \"#utility.yul\":524:527   */\n      dup9\n        /* \"#utility.yul\":512:522   */\n      dup3\n        /* \"#utility.yul\":491:528   */\n      tag_88\n      jump\t// in\n    tag_87:\n        /* \"#utility.yul\":486:489   */\n      dup5\n        /* \"#utility.yul\":479:529   */\n      mstore\n        /* \"#utility.yul\":558:562   */\n      0x20\n        /* \"#utility.yul\":553:556   */\n      dup5\n        /* \"#utility.yul\":549:563   */\n      add\n        /* \"#utility.yul\":542:563   */\n      swap4\n      pop\n        /* \"#utility.yul\":592:596   */\n      0x20\n        /* \"#utility.yul\":587:590   */\n      dup4\n        /* \"#utility.yul\":583:597   */\n      add\n        /* \"#utility.yul\":576:597   */\n      swap3\n      pop\n        /* \"#utility.yul\":429:607   */\n      pop\n        /* \"#utility.yul\":416:417   */\n      0x01\n        /* \"#utility.yul\":413:414   */\n      dup2\n        /* \"#utility.yul\":409:418   */\n      add\n        /* \"#utility.yul\":404:418   */\n      swap1\n      pop\n        /* \"#utility.yul\":369:607   */\n      jump(tag_84)\n    tag_86:\n        /* \"#utility.yul\":373:387   */\n      pop\n        /* \"#utility.yul\":125:613   */\n      pop\n      pop\n      swap4\n      swap3\n      pop\n      pop\n      pop\n      jump\t// out\n        /* \"#utility.yul\":619:758   */\n    tag_89:\n        /* \"#utility.yul\":665:670   */\n      0x00\n        /* \"#utility.yul\":703:709   */\n      dup2\n        /* \"#utility.yul\":690:710   */\n      calldataload\n        /* \"#utility.yul\":681:710   */\n      swap1\n      pop\n        /* \"#utility.yul\":719:752   */\n      tag_91\n        /* \"#utility.yul\":746:751   */\n      dup2\n        /* \"#utility.yul\":719:752   */\n      tag_92\n      jump\t// in\n    tag_91:\n        /* \"#utility.yul\":671:758   */\n      swap3\n      swap2\n      pop\n      pop\n      jump\t// out\n        /* \"#utility.yul\":764:919   */\n    tag_93:\n        /* \"#utility.yul\":818:823   */\n      0x00\n        /* \"#utility.yul\":856:862   */\n      dup2\n        /* \"#utility.yul\":843:863   */\n      calldataload\n        /* \"#utility.yul\":834:863   */\n      swap1\n      pop\n        /* \"#utility.yul\":872:913   */\n      tag_95\n        /* \"#utility.yul\":907:912   */\n      dup2\n        /* \"#utility.yul\":872:913   */\n      tag_96\n      jump\t// in\n    tag_95:\n        /* \"#utility.yul\":824:919   */\n      swap3\n      swap2\n      pop\n      pop\n      jump\t// out\n        /* \"#utility.yul\":943:1215   */\n    tag_97:\n        /* \"#utility.yul\":1012:1017   */\n      0x00\n        /* \"#utility.yul\":1061:1064   */\n      dup3\n        /* \"#utility.yul\":1054:1058   */\n      0x1f\n        /* \"#utility.yul\":1046:1052   */\n      dup4\n        /* \"#utility.yul\":1042:1059   */\n      add\n        /* \"#utility.yul\":1038:1065   */\n      slt\n        /* \"#utility.yul\":1028:1030   */\n      tag_99\n      jumpi\n        /* \"#utility.yul\":1079:1080   */\n      0x00\n        /* \"#utility.yul\":1076:1077   */\n      dup1\n        /* \"#utility.yul\":1069:1081   */\n      revert\n        /* \"#utility.yul\":1028:1030   */\n    tag_99:\n        /* \"#utility.yul\":1106:1110   */\n      0x09\n        /* \"#utility.yul\":1128:1209   */\n      tag_100\n        /* \"#utility.yul\":1205:1208   */\n      dup5\n        /* \"#utility.yul\":1197:1203   */\n      dup3\n        /* \"#utility.yul\":1189:1195   */\n      dup6\n        /* \"#utility.yul\":1128:1209   */\n      tag_77\n      jump\t// in\n    tag_100:\n        /* \"#utility.yul\":1119:1209   */\n      swap2\n      pop\n        /* \"#utility.yul\":1018:1215   */\n      pop\n      swap3\n      swap2\n      pop\n      pop\n      jump\t// out\n        /* \"#utility.yul\":1221:1386   */\n    tag_101:\n        /* \"#utility.yul\":1280:1285   */\n      0x00\n        /* \"#utility.yul\":1318:1324   */\n      dup2\n        /* \"#utility.yul\":1305:1325   */\n      calldataload\n        /* \"#utility.yul\":1296:1325   */\n      swap1\n      pop\n        /* \"#utility.yul\":1334:1380   */\n      tag_103\n        /* \"#utility.yul\":1374:1379   */\n      dup2\n        /* \"#utility.yul\":1334:1380   */\n      tag_104\n      jump\t// in\n    tag_103:\n        /* \"#utility.yul\":1286:1386   */\n      swap3\n      swap2\n      pop\n      pop\n      jump\t// out\n        /* \"#utility.yul\":1392:1531   */\n    tag_88:\n        /* \"#utility.yul\":1438:1443   */\n      0x00\n        /* \"#utility.yul\":1476:1482   */\n      dup2\n        /* \"#utility.yul\":1463:1483   */\n      calldataload\n        /* \"#utility.yul\":1454:1483   */\n      swap1\n      pop\n        /* \"#utility.yul\":1492:1525   */\n      tag_106\n        /* \"#utility.yul\":1519:1524   */\n      dup2\n        /* \"#utility.yul\":1492:1525   */\n      tag_107\n      jump\t// in\n    tag_106:\n        /* \"#utility.yul\":1444:1531   */\n      swap3\n      swap2\n      pop\n      pop\n      jump\t// out\n        /* \"#utility.yul\":1537:1799   */\n    tag_24:\n        /* \"#utility.yul\":1596:1602   */\n      0x00\n        /* \"#utility.yul\":1645:1647   */\n      0x20\n        /* \"#utility.yul\":1633:1642   */\n      dup3\n        /* \"#utility.yul\":1624:1631   */\n      dup5\n        /* \"#utility.yul\":1620:1643   */\n      sub\n        /* \"#utility.yul\":1616:1648   */\n      slt\n        /* \"#utility.yul\":1613:1615   */\n      iszero\n      tag_109\n      jumpi\n        /* \"#utility.yul\":1661:1662   */\n      0x00\n        /* \"#utility.yul\":1658:1659   */\n      dup1\n        /* \"#utility.yul\":1651:1663   */\n      revert\n        /* \"#utility.yul\":1613:1615   */\n    tag_109:\n        /* \"#utility.yul\":1704:1705   */\n      0x00\n        /* \"#utility.yul\":1729:1782   */\n      tag_110\n        /* \"#utility.yul\":1774:1781   */\n      dup5\n        /* \"#utility.yul\":1765:1771   */\n      dup3\n        /* \"#utility.yul\":1754:1763   */\n      dup6\n        /* \"#utility.yul\":1750:1772   */\n      add\n        /* \"#utility.yul\":1729:1782   */\n      tag_89\n      jump\t// in\n    tag_110:\n        /* \"#utility.yul\":1719:1782   */\n      swap2\n      pop\n        /* \"#utility.yul\":1675:1792   */\n      pop\n        /* \"#utility.yul\":1603:1799   */\n      swap3\n      swap2\n      pop\n      pop\n      jump\t// out\n        /* \"#utility.yul\":1805:2617   */\n    tag_36:\n        /* \"#utility.yul\":1948:1954   */\n      0x00\n        /* \"#utility.yul\":1956:1962   */\n      dup1\n        /* \"#utility.yul\":1964:1970   */\n      0x00\n        /* \"#utility.yul\":1972:1978   */\n      dup1\n        /* \"#utility.yul\":2021:2024   */\n      0x0180\n        /* \"#utility.yul\":2009:2018   */\n      dup6\n        /* \"#utility.yul\":2000:2007   */\n      dup8\n        /* \"#utility.yul\":1996:2019   */\n      sub\n        /* \"#utility.yul\":1992:2025   */\n      slt\n        /* \"#utility.yul\":1989:1991   */\n      iszero\n      tag_112\n      jumpi\n        /* \"#utility.yul\":2038:2039   */\n      0x00\n        /* \"#utility.yul\":2035:2036   */\n      dup1\n        /* \"#utility.yul\":2028:2040   */\n      revert\n        /* \"#utility.yul\":1989:1991   */\n    tag_112:\n        /* \"#utility.yul\":2081:2082   */\n      0x00\n        /* \"#utility.yul\":2106:2167   */\n      tag_113\n        /* \"#utility.yul\":2159:2166   */\n      dup8\n        /* \"#utility.yul\":2150:2156   */\n      dup3\n        /* \"#utility.yul\":2139:2148   */\n      dup9\n        /* \"#utility.yul\":2135:2157   */\n      add\n        /* \"#utility.yul\":2106:2167   */\n      tag_93\n      jump\t// in\n    tag_113:\n        /* \"#utility.yul\":2096:2167   */\n      swap5\n      pop\n        /* \"#utility.yul\":2052:2177   */\n      pop\n        /* \"#utility.yul\":2216:2218   */\n      0x20\n        /* \"#utility.yul\":2242:2308   */\n      tag_114\n        /* \"#utility.yul\":2300:2307   */\n      dup8\n        /* \"#utility.yul\":2291:2297   */\n      dup3\n        /* \"#utility.yul\":2280:2289   */\n      dup9\n        /* \"#utility.yul\":2276:2298   */\n      add\n        /* \"#utility.yul\":2242:2308   */\n      tag_101\n      jump\t// in\n    tag_114:\n        /* \"#utility.yul\":2232:2308   */\n      swap4\n      pop\n        /* \"#utility.yul\":2187:2318   */\n      pop\n        /* \"#utility.yul\":2357:2359   */\n      0x40\n        /* \"#utility.yul\":2383:2449   */\n      tag_115\n        /* \"#utility.yul\":2441:2448   */\n      dup8\n        /* \"#utility.yul\":2432:2438   */\n      dup3\n        /* \"#utility.yul\":2421:2430   */\n      dup9\n        /* \"#utility.yul\":2417:2439   */\n      add\n        /* \"#utility.yul\":2383:2449   */\n      tag_101\n      jump\t// in\n    tag_115:\n        /* \"#utility.yul\":2373:2449   */\n      swap3\n      pop\n        /* \"#utility.yul\":2328:2459   */\n      pop\n        /* \"#utility.yul\":2498:2500   */\n      0x60\n        /* \"#utility.yul\":2524:2600   */\n      tag_116\n        /* \"#utility.yul\":2592:2599   */\n      dup8\n        /* \"#utility.yul\":2583:2589   */\n      dup3\n        /* \"#utility.yul\":2572:2581   */\n      dup9\n        /* \"#utility.yul\":2568:2590   */\n      add\n        /* \"#utility.yul\":2524:2600   */\n      tag_97\n      jump\t// in\n    tag_116:\n        /* \"#utility.yul\":2514:2600   */\n      swap2\n      pop\n        /* \"#utility.yul\":2469:2610   */\n      pop\n        /* \"#utility.yul\":1979:2617   */\n      swap3\n      swap6\n      swap2\n      swap5\n      pop\n      swap3\n      pop\n      jump\t// out\n        /* \"#utility.yul\":2623:2885   */\n    tag_29:\n        /* \"#utility.yul\":2682:2688   */\n      0x00\n        /* \"#utility.yul\":2731:2733   */\n      0x20\n        /* \"#utility.yul\":2719:2728   */\n      dup3\n        /* \"#utility.yul\":2710:2717   */\n      dup5\n        /* \"#utility.yul\":2706:2729   */\n      sub\n        /* \"#utility.yul\":2702:2734   */\n      slt\n        /* \"#utility.yul\":2699:2701   */\n      iszero\n      tag_118\n      jumpi\n        /* \"#utility.yul\":2747:2748   */\n      0x00\n        /* \"#utility.yul\":2744:2745   */\n      dup1\n        /* \"#utility.yul\":2737:2749   */\n      revert\n        /* \"#utility.yul\":2699:2701   */\n    tag_118:\n        /* \"#utility.yul\":2790:2791   */\n      0x00\n        /* \"#utility.yul\":2815:2868   */\n      tag_119\n        /* \"#utility.yul\":2860:2867   */\n      dup5\n        /* \"#utility.yul\":2851:2857   */\n      dup3\n        /* \"#utility.yul\":2840:2849   */\n      dup6\n        /* \"#utility.yul\":2836:2858   */\n      add\n        /* \"#utility.yul\":2815:2868   */\n      tag_88\n      jump\t// in\n    tag_119:\n        /* \"#utility.yul\":2805:2868   */\n      swap2\n      pop\n        /* \"#utility.yul\":2761:2878   */\n      pop\n        /* \"#utility.yul\":2689:2885   */\n      swap3\n      swap2\n      pop\n      pop\n      jump\t// out\n        /* \"#utility.yul\":2891:3033   */\n    tag_120:\n        /* \"#utility.yul\":2994:3026   */\n      tag_122\n        /* \"#utility.yul\":3020:3025   */\n      dup2\n        /* \"#utility.yul\":2994:3026   */\n      tag_123\n      jump\t// in\n    tag_122:\n        /* \"#utility.yul\":2989:2992   */\n      dup3\n        /* \"#utility.yul\":2982:3027   */\n      mstore\n        /* \"#utility.yul\":2972:3033   */\n      pop\n      pop\n      jump\t// out\n        /* \"#utility.yul\":3039:3148   */\n    tag_124:\n        /* \"#utility.yul\":3120:3141   */\n      tag_126\n        /* \"#utility.yul\":3135:3140   */\n      dup2\n        /* \"#utility.yul\":3120:3141   */\n      tag_127\n      jump\t// in\n    tag_126:\n        /* \"#utility.yul\":3115:3118   */\n      dup3\n        /* \"#utility.yul\":3108:3142   */\n      mstore\n        /* \"#utility.yul\":3098:3148   */\n      pop\n      pop\n      jump\t// out\n        /* \"#utility.yul\":3154:3311   */\n    tag_128:\n        /* \"#utility.yul\":3254:3304   */\n      tag_130\n        /* \"#utility.yul\":3298:3303   */\n      dup2\n        /* \"#utility.yul\":3254:3304   */\n      tag_131\n      jump\t// in\n    tag_130:\n        /* \"#utility.yul\":3249:3252   */\n      dup3\n        /* \"#utility.yul\":3242:3305   */\n      mstore\n        /* \"#utility.yul\":3232:3311   */\n      pop\n      pop\n      jump\t// out\n        /* \"#utility.yul\":3317:3683   */\n    tag_132:\n        /* \"#utility.yul\":3459:3462   */\n      0x00\n        /* \"#utility.yul\":3480:3547   */\n      tag_134\n        /* \"#utility.yul\":3544:3546   */\n      0x1f\n        /* \"#utility.yul\":3539:3542   */\n      dup4\n        /* \"#utility.yul\":3480:3547   */\n      tag_135\n      jump\t// in\n    tag_134:\n        /* \"#utility.yul\":3473:3547   */\n      swap2\n      pop\n        /* \"#utility.yul\":3556:3649   */\n      tag_136\n        /* \"#utility.yul\":3645:3648   */\n      dup3\n        /* \"#utility.yul\":3556:3649   */\n      tag_137\n      jump\t// in\n    tag_136:\n        /* \"#utility.yul\":3674:3676   */\n      0x20\n        /* \"#utility.yul\":3669:3672   */\n      dup3\n        /* \"#utility.yul\":3665:3677   */\n      add\n        /* \"#utility.yul\":3658:3677   */\n      swap1\n      pop\n        /* \"#utility.yul\":3463:3683   */\n      swap2\n      swap1\n      pop\n      jump\t// out\n        /* \"#utility.yul\":3689:3807   */\n    tag_138:\n        /* \"#utility.yul\":3776:3800   */\n      tag_140\n        /* \"#utility.yul\":3794:3799   */\n      dup2\n        /* \"#utility.yul\":3776:3800   */\n      tag_141\n      jump\t// in\n    tag_140:\n        /* \"#utility.yul\":3771:3774   */\n      dup3\n        /* \"#utility.yul\":3764:3801   */\n      mstore\n        /* \"#utility.yul\":3754:3807   */\n      pop\n      pop\n      jump\t// out\n        /* \"#utility.yul\":3813:5342   */\n    tag_15:\n        /* \"#utility.yul\":4258:4262   */\n      0x00\n        /* \"#utility.yul\":4296:4299   */\n      0x0180\n        /* \"#utility.yul\":4285:4294   */\n      dup3\n        /* \"#utility.yul\":4281:4300   */\n      add\n        /* \"#utility.yul\":4273:4300   */\n      swap1\n      pop\n        /* \"#utility.yul\":4310:4397   */\n      tag_143\n        /* \"#utility.yul\":4394:4395   */\n      0x00\n        /* \"#utility.yul\":4383:4392   */\n      dup4\n        /* \"#utility.yul\":4379:4396   */\n      add\n        /* \"#utility.yul\":4370:4376   */\n      dup16\n        /* \"#utility.yul\":4310:4397   */\n      tag_120\n      jump\t// in\n    tag_143:\n        /* \"#utility.yul\":4407:4492   */\n      tag_144\n        /* \"#utility.yul\":4488:4490   */\n      0x20\n        /* \"#utility.yul\":4477:4486   */\n      dup4\n        /* \"#utility.yul\":4473:4491   */\n      add\n        /* \"#utility.yul\":4464:4470   */\n      dup15\n        /* \"#utility.yul\":4407:4492   */\n      tag_128\n      jump\t// in\n    tag_144:\n        /* \"#utility.yul\":4502:4587   */\n      tag_145\n        /* \"#utility.yul\":4583:4585   */\n      0x40\n        /* \"#utility.yul\":4572:4581   */\n      dup4\n        /* \"#utility.yul\":4568:4586   */\n      add\n        /* \"#utility.yul\":4559:4565   */\n      dup14\n        /* \"#utility.yul\":4502:4587   */\n      tag_128\n      jump\t// in\n    tag_145:\n        /* \"#utility.yul\":4597:4669   */\n      tag_146\n        /* \"#utility.yul\":4665:4667   */\n      0x60\n        /* \"#utility.yul\":4654:4663   */\n      dup4\n        /* \"#utility.yul\":4650:4668   */\n      add\n        /* \"#utility.yul\":4641:4647   */\n      dup13\n        /* \"#utility.yul\":4597:4669   */\n      tag_138\n      jump\t// in\n    tag_146:\n        /* \"#utility.yul\":4679:4752   */\n      tag_147\n        /* \"#utility.yul\":4747:4750   */\n      0x80\n        /* \"#utility.yul\":4736:4745   */\n      dup4\n        /* \"#utility.yul\":4732:4751   */\n      add\n        /* \"#utility.yul\":4723:4729   */\n      dup12\n        /* \"#utility.yul\":4679:4752   */\n      tag_138\n      jump\t// in\n    tag_147:\n        /* \"#utility.yul\":4762:4835   */\n      tag_148\n        /* \"#utility.yul\":4830:4833   */\n      0xa0\n        /* \"#utility.yul\":4819:4828   */\n      dup4\n        /* \"#utility.yul\":4815:4834   */\n      add\n        /* \"#utility.yul\":4806:4812   */\n      dup11\n        /* \"#utility.yul\":4762:4835   */\n      tag_138\n      jump\t// in\n    tag_148:\n        /* \"#utility.yul\":4845:4918   */\n      tag_149\n        /* \"#utility.yul\":4913:4916   */\n      0xc0\n        /* \"#utility.yul\":4902:4911   */\n      dup4\n        /* \"#utility.yul\":4898:4917   */\n      add\n        /* \"#utility.yul\":4889:4895   */\n      dup10\n        /* \"#utility.yul\":4845:4918   */\n      tag_138\n      jump\t// in\n    tag_149:\n        /* \"#utility.yul\":4928:5001   */\n      tag_150\n        /* \"#utility.yul\":4996:4999   */\n      0xe0\n        /* \"#utility.yul\":4985:4994   */\n      dup4\n        /* \"#utility.yul\":4981:5000   */\n      add\n        /* \"#utility.yul\":4972:4978   */\n      dup9\n        /* \"#utility.yul\":4928:5001   */\n      tag_138\n      jump\t// in\n    tag_150:\n        /* \"#utility.yul\":5011:5084   */\n      tag_151\n        /* \"#utility.yul\":5079:5082   */\n      0x0100\n        /* \"#utility.yul\":5068:5077   */\n      dup4\n        /* \"#utility.yul\":5064:5083   */\n      add\n        /* \"#utility.yul\":5055:5061   */\n      dup8\n        /* \"#utility.yul\":5011:5084   */\n      tag_138\n      jump\t// in\n    tag_151:\n        /* \"#utility.yul\":5094:5167   */\n      tag_152\n        /* \"#utility.yul\":5162:5165   */\n      0x0120\n        /* \"#utility.yul\":5151:5160   */\n      dup4\n        /* \"#utility.yul\":5147:5166   */\n      add\n        /* \"#utility.yul\":5138:5144   */\n      dup7\n        /* \"#utility.yul\":5094:5167   */\n      tag_138\n      jump\t// in\n    tag_152:\n        /* \"#utility.yul\":5177:5251   */\n      tag_153\n        /* \"#utility.yul\":5246:5249   */\n      0x0140\n        /* \"#utility.yul\":5235:5244   */\n      dup4\n        /* \"#utility.yul\":5231:5250   */\n      add\n        /* \"#utility.yul\":5221:5228   */\n      dup6\n        /* \"#utility.yul\":5177:5251   */\n      tag_138\n      jump\t// in\n    tag_153:\n        /* \"#utility.yul\":5261:5335   */\n      tag_154\n        /* \"#utility.yul\":5330:5333   */\n      0x0160\n        /* \"#utility.yul\":5319:5328   */\n      dup4\n        /* \"#utility.yul\":5315:5334   */\n      add\n        /* \"#utility.yul\":5305:5312   */\n      dup5\n        /* \"#utility.yul\":5261:5335   */\n      tag_138\n      jump\t// in\n    tag_154:\n        /* \"#utility.yul\":4263:5342   */\n      swap14\n      swap13\n      pop\n      pop\n      pop\n      pop\n      pop\n      pop\n      pop\n      pop\n      pop\n      pop\n      pop\n      pop\n      pop\n      jump\t// out\n        /* \"#utility.yul\":5348:5767   */\n    tag_57:\n        /* \"#utility.yul\":5514:5518   */\n      0x00\n        /* \"#utility.yul\":5552:5554   */\n      0x20\n        /* \"#utility.yul\":5541:5550   */\n      dup3\n        /* \"#utility.yul\":5537:5555   */\n      add\n        /* \"#utility.yul\":5529:5555   */\n      swap1\n      pop\n        /* \"#utility.yul\":5601:5610   */\n      dup2\n        /* \"#utility.yul\":5595:5599   */\n      dup2\n        /* \"#utility.yul\":5591:5611   */\n      sub\n        /* \"#utility.yul\":5587:5588   */\n      0x00\n        /* \"#utility.yul\":5576:5585   */\n      dup4\n        /* \"#utility.yul\":5572:5589   */\n      add\n        /* \"#utility.yul\":5565:5612   */\n      mstore\n        /* \"#utility.yul\":5629:5760   */\n      tag_156\n        /* \"#utility.yul\":5755:5759   */\n      dup2\n        /* \"#utility.yul\":5629:5760   */\n      tag_132\n      jump\t// in\n    tag_156:\n        /* \"#utility.yul\":5621:5760   */\n      swap1\n      pop\n        /* \"#utility.yul\":5519:5767   */\n      swap2\n      swap1\n      pop\n      jump\t// out\n        /* \"#utility.yul\":5773:5995   */\n    tag_20:\n        /* \"#utility.yul\":5866:5870   */\n      0x00\n        /* \"#utility.yul\":5904:5906   */\n      0x20\n        /* \"#utility.yul\":5893:5902   */\n      dup3\n        /* \"#utility.yul\":5889:5907   */\n      add\n        /* \"#utility.yul\":5881:5907   */\n      swap1\n      pop\n        /* \"#utility.yul\":5917:5988   */\n      tag_158\n        /* \"#utility.yul\":5985:5986   */\n      0x00\n        /* \"#utility.yul\":5974:5983   */\n      dup4\n        /* \"#utility.yul\":5970:5987   */\n      add\n        /* \"#utility.yul\":5961:5967   */\n      dup5\n        /* \"#utility.yul\":5917:5988   */\n      tag_138\n      jump\t// in\n    tag_158:\n        /* \"#utility.yul\":5871:5995   */\n      swap3\n      swap2\n      pop\n      pop\n      jump\t// out\n        /* \"#utility.yul\":6001:6752   */\n    tag_48:\n        /* \"#utility.yul\":6222:6226   */\n      0x00\n        /* \"#utility.yul\":6260:6263   */\n      0xc0\n        /* \"#utility.yul\":6249:6258   */\n      dup3\n        /* \"#utility.yul\":6245:6264   */\n      add\n        /* \"#utility.yul\":6237:6264   */\n      swap1\n      pop\n        /* \"#utility.yul\":6274:6345   */\n      tag_160\n        /* \"#utility.yul\":6342:6343   */\n      0x00\n        /* \"#utility.yul\":6331:6340   */\n      dup4\n        /* \"#utility.yul\":6327:6344   */\n      add\n        /* \"#utility.yul\":6318:6324   */\n      dup10\n        /* \"#utility.yul\":6274:6345   */\n      tag_138\n      jump\t// in\n    tag_160:\n        /* \"#utility.yul\":6355:6427   */\n      tag_161\n        /* \"#utility.yul\":6423:6425   */\n      0x20\n        /* \"#utility.yul\":6412:6421   */\n      dup4\n        /* \"#utility.yul\":6408:6426   */\n      add\n        /* \"#utility.yul\":6399:6405   */\n      dup9\n        /* \"#utility.yul\":6355:6427   */\n      tag_138\n      jump\t// in\n    tag_161:\n        /* \"#utility.yul\":6437:6509   */\n      tag_162\n        /* \"#utility.yul\":6505:6507   */\n      0x40\n        /* \"#utility.yul\":6494:6503   */\n      dup4\n        /* \"#utility.yul\":6490:6508   */\n      add\n        /* \"#utility.yul\":6481:6487   */\n      dup8\n        /* \"#utility.yul\":6437:6509   */\n      tag_138\n      jump\t// in\n    tag_162:\n        /* \"#utility.yul\":6519:6591   */\n      tag_163\n        /* \"#utility.yul\":6587:6589   */\n      0x60\n        /* \"#utility.yul\":6576:6585   */\n      dup4\n        /* \"#utility.yul\":6572:6590   */\n      add\n        /* \"#utility.yul\":6563:6569   */\n      dup7\n        /* \"#utility.yul\":6519:6591   */\n      tag_138\n      jump\t// in\n    tag_163:\n        /* \"#utility.yul\":6601:6668   */\n      tag_164\n        /* \"#utility.yul\":6663:6666   */\n      0x80\n        /* \"#utility.yul\":6652:6661   */\n      dup4\n        /* \"#utility.yul\":6648:6667   */\n      add\n        /* \"#utility.yul\":6639:6645   */\n      dup6\n        /* \"#utility.yul\":6601:6668   */\n      tag_124\n      jump\t// in\n    tag_164:\n        /* \"#utility.yul\":6678:6745   */\n      tag_165\n        /* \"#utility.yul\":6740:6743   */\n      0xa0\n        /* \"#utility.yul\":6729:6738   */\n      dup4\n        /* \"#utility.yul\":6725:6744   */\n      add\n        /* \"#utility.yul\":6716:6722   */\n      dup5\n        /* \"#utility.yul\":6678:6745   */\n      tag_124\n      jump\t// in\n    tag_165:\n        /* \"#utility.yul\":6227:6752   */\n      swap8\n      swap7\n      pop\n      pop\n      pop\n      pop\n      pop\n      pop\n      pop\n      jump\t// out\n        /* \"#utility.yul\":6758:7533   */\n    tag_42:\n        /* \"#utility.yul\":6991:6995   */\n      0x00\n        /* \"#utility.yul\":7029:7032   */\n      0xc0\n        /* \"#utility.yul\":7018:7027   */\n      dup3\n        /* \"#utility.yul\":7014:7033   */\n      add\n        /* \"#utility.yul\":7006:7033   */\n      swap1\n      pop\n        /* \"#utility.yul\":7043:7114   */\n      tag_167\n        /* \"#utility.yul\":7111:7112   */\n      0x00\n        /* \"#utility.yul\":7100:7109   */\n      dup4\n        /* \"#utility.yul\":7096:7113   */\n      add\n        /* \"#utility.yul\":7087:7093   */\n      dup10\n        /* \"#utility.yul\":7043:7114   */\n      tag_138\n      jump\t// in\n    tag_167:\n        /* \"#utility.yul\":7124:7196   */\n      tag_168\n        /* \"#utility.yul\":7192:7194   */\n      0x20\n        /* \"#utility.yul\":7181:7190   */\n      dup4\n        /* \"#utility.yul\":7177:7195   */\n      add\n        /* \"#utility.yul\":7168:7174   */\n      dup9\n        /* \"#utility.yul\":7124:7196   */\n      tag_138\n      jump\t// in\n    tag_168:\n        /* \"#utility.yul\":7206:7278   */\n      tag_169\n        /* \"#utility.yul\":7274:7276   */\n      0x40\n        /* \"#utility.yul\":7263:7272   */\n      dup4\n        /* \"#utility.yul\":7259:7277   */\n      add\n        /* \"#utility.yul\":7250:7256   */\n      dup8\n        /* \"#utility.yul\":7206:7278   */\n      tag_138\n      jump\t// in\n    tag_169:\n        /* \"#utility.yul\":7288:7360   */\n      tag_170\n        /* \"#utility.yul\":7356:7358   */\n      0x60\n        /* \"#utility.yul\":7345:7354   */\n      dup4\n        /* \"#utility.yul\":7341:7359   */\n      add\n        /* \"#utility.yul\":7332:7338   */\n      dup7\n        /* \"#utility.yul\":7288:7360   */\n      tag_138\n      jump\t// in\n    tag_170:\n        /* \"#utility.yul\":7370:7443   */\n      tag_171\n        /* \"#utility.yul\":7438:7441   */\n      0x80\n        /* \"#utility.yul\":7427:7436   */\n      dup4\n        /* \"#utility.yul\":7423:7442   */\n      add\n        /* \"#utility.yul\":7414:7420   */\n      dup6\n        /* \"#utility.yul\":7370:7443   */\n      tag_138\n      jump\t// in\n    tag_171:\n        /* \"#utility.yul\":7453:7526   */\n      tag_172\n        /* \"#utility.yul\":7521:7524   */\n      0xa0\n        /* \"#utility.yul\":7510:7519   */\n      dup4\n        /* \"#utility.yul\":7506:7525   */\n      add\n        /* \"#utility.yul\":7497:7503   */\n      dup5\n        /* \"#utility.yul\":7453:7526   */\n      tag_138\n      jump\t// in\n    tag_172:\n        /* \"#utility.yul\":6996:7533   */\n      swap8\n      swap7\n      pop\n      pop\n      pop\n      pop\n      pop\n      pop\n      pop\n      jump\t// out\n        /* \"#utility.yul\":7539:7668   */\n    tag_82:\n        /* \"#utility.yul\":7573:7579   */\n      0x00\n        /* \"#utility.yul\":7600:7620   */\n      tag_174\n      tag_175\n      jump\t// in\n    tag_174:\n        /* \"#utility.yul\":7590:7620   */\n      swap1\n      pop\n        /* \"#utility.yul\":7629:7662   */\n      tag_176\n        /* \"#utility.yul\":7657:7661   */\n      dup3\n        /* \"#utility.yul\":7649:7655   */\n      dup3\n        /* \"#utility.yul\":7629:7662   */\n      tag_177\n      jump\t// in\n    tag_176:\n        /* \"#utility.yul\":7580:7668   */\n      swap2\n      swap1\n      pop\n      jump\t// out\n        /* \"#utility.yul\":7674:7749   */\n    tag_175:\n        /* \"#utility.yul\":7707:7713   */\n      0x00\n        /* \"#utility.yul\":7740:7742   */\n      0x40\n        /* \"#utility.yul\":7734:7743   */\n      mload\n        /* \"#utility.yul\":7724:7743   */\n      swap1\n      pop\n        /* \"#utility.yul\":7714:7749   */\n      swap1\n      jump\t// out\n        /* \"#utility.yul\":7755:8004   */\n    tag_81:\n        /* \"#utility.yul\":7830:7834   */\n      0x00\n        /* \"#utility.yul\":7920:7938   */\n      0xffffffffffffffff\n        /* \"#utility.yul\":7912:7918   */\n      dup3\n        /* \"#utility.yul\":7909:7939   */\n      gt\n        /* \"#utility.yul\":7906:7908   */\n      iszero\n      tag_180\n      jumpi\n        /* \"#utility.yul\":7942:7960   */\n      tag_181\n      tag_182\n      jump\t// in\n    tag_181:\n        /* \"#utility.yul\":7906:7908   */\n    tag_180:\n        /* \"#utility.yul\":7992:7996   */\n      0x20\n        /* \"#utility.yul\":7984:7990   */\n      dup3\n        /* \"#utility.yul\":7980:7997   */\n      mul\n        /* \"#utility.yul\":7972:7997   */\n      swap1\n      pop\n        /* \"#utility.yul\":7835:8004   */\n      swap2\n      swap1\n      pop\n      jump\t// out\n        /* \"#utility.yul\":8010:8179   */\n    tag_135:\n        /* \"#utility.yul\":8094:8105   */\n      0x00\n        /* \"#utility.yul\":8128:8134   */\n      dup3\n        /* \"#utility.yul\":8123:8126   */\n      dup3\n        /* \"#utility.yul\":8116:8135   */\n      mstore\n        /* \"#utility.yul\":8168:8172   */\n      0x20\n        /* \"#utility.yul\":8163:8166   */\n      dup3\n        /* \"#utility.yul\":8159:8173   */\n      add\n        /* \"#utility.yul\":8144:8173   */\n      swap1\n      pop\n        /* \"#utility.yul\":8106:8179   */\n      swap3\n      swap2\n      pop\n      pop\n      jump\t// out\n        /* \"#utility.yul\":8185:8376   */\n    tag_60:\n        /* \"#utility.yul\":8225:8229   */\n      0x00\n        /* \"#utility.yul\":8245:8265   */\n      tag_185\n        /* \"#utility.yul\":8263:8264   */\n      dup3\n        /* \"#utility.yul\":8245:8265   */\n      tag_141\n      jump\t// in\n    tag_185:\n        /* \"#utility.yul\":8240:8265   */\n      swap2\n      pop\n        /* \"#utility.yul\":8279:8299   */\n      tag_186\n        /* \"#utility.yul\":8297:8298   */\n      dup4\n        /* \"#utility.yul\":8279:8299   */\n      tag_141\n      jump\t// in\n    tag_186:\n        /* \"#utility.yul\":8274:8299   */\n      swap3\n      pop\n        /* \"#utility.yul\":8318:8319   */\n      dup3\n        /* \"#utility.yul\":8315:8316   */\n      dup3\n        /* \"#utility.yul\":8312:8320   */\n      lt\n        /* \"#utility.yul\":8309:8311   */\n      iszero\n      tag_187\n      jumpi\n        /* \"#utility.yul\":8323:8341   */\n      tag_188\n      tag_189\n      jump\t// in\n    tag_188:\n        /* \"#utility.yul\":8309:8311   */\n    tag_187:\n        /* \"#utility.yul\":8368:8369   */\n      dup3\n        /* \"#utility.yul\":8365:8366   */\n      dup3\n        /* \"#utility.yul\":8361:8370   */\n      sub\n        /* \"#utility.yul\":8353:8370   */\n      swap1\n      pop\n        /* \"#utility.yul\":8230:8376   */\n      swap3\n      swap2\n      pop\n      pop\n      jump\t// out\n        /* \"#utility.yul\":8382:8478   */\n    tag_190:\n        /* \"#utility.yul\":8419:8426   */\n      0x00\n        /* \"#utility.yul\":8448:8472   */\n      tag_192\n        /* \"#utility.yul\":8466:8471   */\n      dup3\n        /* \"#utility.yul\":8448:8472   */\n      tag_193\n      jump\t// in\n    tag_192:\n        /* \"#utility.yul\":8437:8472   */\n      swap1\n      pop\n        /* \"#utility.yul\":8427:8478   */\n      swap2\n      swap1\n      pop\n      jump\t// out\n        /* \"#utility.yul\":8484:8588   */\n    tag_123:\n        /* \"#utility.yul\":8529:8536   */\n      0x00\n        /* \"#utility.yul\":8558:8582   */\n      tag_195\n        /* \"#utility.yul\":8576:8581   */\n      dup3\n        /* \"#utility.yul\":8558:8582   */\n      tag_193\n      jump\t// in\n    tag_195:\n        /* \"#utility.yul\":8547:8582   */\n      swap1\n      pop\n        /* \"#utility.yul\":8537:8588   */\n      swap2\n      swap1\n      pop\n      jump\t// out\n        /* \"#utility.yul\":8594:8684   */\n    tag_127:\n        /* \"#utility.yul\":8628:8635   */\n      0x00\n        /* \"#utility.yul\":8671:8676   */\n      dup2\n        /* \"#utility.yul\":8664:8677   */\n      iszero\n        /* \"#utility.yul\":8657:8678   */\n      iszero\n        /* \"#utility.yul\":8646:8678   */\n      swap1\n      pop\n        /* \"#utility.yul\":8636:8684   */\n      swap2\n      swap1\n      pop\n      jump\t// out\n        /* \"#utility.yul\":8690:8799   */\n    tag_197:\n        /* \"#utility.yul\":8740:8747   */\n      0x00\n        /* \"#utility.yul\":8769:8793   */\n      tag_199\n        /* \"#utility.yul\":8787:8792   */\n      dup3\n        /* \"#utility.yul\":8769:8793   */\n      tag_190\n      jump\t// in\n    tag_199:\n        /* \"#utility.yul\":8758:8793   */\n      swap1\n      pop\n        /* \"#utility.yul\":8748:8799   */\n      swap2\n      swap1\n      pop\n      jump\t// out\n        /* \"#utility.yul\":8805:8931   */\n    tag_193:\n        /* \"#utility.yul\":8842:8849   */\n      0x00\n        /* \"#utility.yul\":8882:8924   */\n      0xffffffffffffffffffffffffffffffffffffffff\n        /* \"#utility.yul\":8875:8880   */\n      dup3\n        /* \"#utility.yul\":8871:8925   */\n      and\n        /* \"#utility.yul\":8860:8925   */\n      swap1\n      pop\n        /* \"#utility.yul\":8850:8931   */\n      swap2\n      swap1\n      pop\n      jump\t// out\n        /* \"#utility.yul\":8937:9014   */\n    tag_141:\n        /* \"#utility.yul\":8974:8981   */\n      0x00\n        /* \"#utility.yul\":9003:9008   */\n      dup2\n        /* \"#utility.yul\":8992:9008   */\n      swap1\n      pop\n        /* \"#utility.yul\":8982:9014   */\n      swap2\n      swap1\n      pop\n      jump\t// out\n        /* \"#utility.yul\":9020:9172   */\n    tag_131:\n        /* \"#utility.yul\":9083:9092   */\n      0x00\n        /* \"#utility.yul\":9116:9166   */\n      tag_203\n        /* \"#utility.yul\":9160:9165   */\n      dup3\n        /* \"#utility.yul\":9116:9166   */\n      tag_204\n      jump\t// in\n    tag_203:\n        /* \"#utility.yul\":9103:9166   */\n      swap1\n      pop\n        /* \"#utility.yul\":9093:9172   */\n      swap2\n      swap1\n      pop\n      jump\t// out\n        /* \"#utility.yul\":9178:9304   */\n    tag_204:\n        /* \"#utility.yul\":9241:9250   */\n      0x00\n        /* \"#utility.yul\":9274:9298   */\n      tag_206\n        /* \"#utility.yul\":9292:9297   */\n      dup3\n        /* \"#utility.yul\":9274:9298   */\n      tag_193\n      jump\t// in\n    tag_206:\n        /* \"#utility.yul\":9261:9298   */\n      swap1\n      pop\n        /* \"#utility.yul\":9251:9304   */\n      swap2\n      swap1\n      pop\n      jump\t// out\n        /* \"#utility.yul\":9310:9591   */\n    tag_177:\n        /* \"#utility.yul\":9393:9420   */\n      tag_208\n        /* \"#utility.yul\":9415:9419   */\n      dup3\n        /* \"#utility.yul\":9393:9420   */\n      tag_209\n      jump\t// in\n    tag_208:\n        /* \"#utility.yul\":9385:9391   */\n      dup2\n        /* \"#utility.yul\":9381:9421   */\n      add\n        /* \"#utility.yul\":9523:9529   */\n      dup2\n        /* \"#utility.yul\":9511:9521   */\n      dup2\n        /* \"#utility.yul\":9508:9530   */\n      lt\n        /* \"#utility.yul\":9487:9505   */\n      0xffffffffffffffff\n        /* \"#utility.yul\":9475:9485   */\n      dup3\n        /* \"#utility.yul\":9472:9506   */\n      gt\n        /* \"#utility.yul\":9469:9531   */\n      or\n        /* \"#utility.yul\":9466:9468   */\n      iszero\n      tag_210\n      jumpi\n        /* \"#utility.yul\":9534:9552   */\n      tag_211\n      tag_182\n      jump\t// in\n    tag_211:\n        /* \"#utility.yul\":9466:9468   */\n    tag_210:\n        /* \"#utility.yul\":9574:9584   */\n      dup1\n        /* \"#utility.yul\":9570:9572   */\n      0x40\n        /* \"#utility.yul\":9563:9585   */\n      mstore\n        /* \"#utility.yul\":9353:9591   */\n      pop\n      pop\n      pop\n      jump\t// out\n        /* \"#utility.yul\":9597:9777   */\n    tag_189:\n        /* \"#utility.yul\":9645:9722   */\n      0x4e487b7100000000000000000000000000000000000000000000000000000000\n        /* \"#utility.yul\":9642:9643   */\n      0x00\n        /* \"#utility.yul\":9635:9723   */\n      mstore\n        /* \"#utility.yul\":9742:9746   */\n      0x11\n        /* \"#utility.yul\":9739:9740   */\n      0x04\n        /* \"#utility.yul\":9732:9747   */\n      mstore\n        /* \"#utility.yul\":9766:9770   */\n      0x24\n        /* \"#utility.yul\":9763:9764   */\n      0x00\n        /* \"#utility.yul\":9756:9771   */\n      revert\n        /* \"#utility.yul\":9783:9963   */\n    tag_182:\n        /* \"#utility.yul\":9831:9908   */\n      0x4e487b7100000000000000000000000000000000000000000000000000000000\n        /* \"#utility.yul\":9828:9829   */\n      0x00\n        /* \"#utility.yul\":9821:9909   */\n      mstore\n        /* \"#utility.yul\":9928:9932   */\n      0x41\n        /* \"#utility.yul\":9925:9926   */\n      0x04\n        /* \"#utility.yul\":9918:9933   */\n      mstore\n        /* \"#utility.yul\":9952:9956   */\n      0x24\n        /* \"#utility.yul\":9949:9950   */\n      0x00\n        /* \"#utility.yul\":9942:9957   */\n      revert\n        /* \"#utility.yul\":9969:10071   */\n    tag_209:\n        /* \"#utility.yul\":10010:10016   */\n      0x00\n        /* \"#utility.yul\":10061:10063   */\n      0x1f\n        /* \"#utility.yul\":10057:10064   */\n      not\n        /* \"#utility.yul\":10052:10054   */\n      0x1f\n        /* \"#utility.yul\":10045:10050   */\n      dup4\n        /* \"#utility.yul\":10041:10055   */\n      add\n        /* \"#utility.yul\":10037:10065   */\n      and\n        /* \"#utility.yul\":10027:10065   */\n      swap1\n      pop\n        /* \"#utility.yul\":10017:10071   */\n      swap2\n      swap1\n      pop\n      jump\t// out\n        /* \"#utility.yul\":10077:10258   */\n    tag_137:\n        /* \"#utility.yul\":10217:10250   */\n      0x5265656e7472616e637947756172643a207265656e7472616e742063616c6c00\n        /* \"#utility.yul\":10213:10214   */\n      0x00\n        /* \"#utility.yul\":10205:10211   */\n      dup3\n        /* \"#utility.yul\":10201:10215   */\n      add\n        /* \"#utility.yul\":10194:10251   */\n      mstore\n        /* \"#utility.yul\":10183:10258   */\n      pop\n      jump\t// out\n        /* \"#utility.yul\":10264:10386   */\n    tag_92:\n        /* \"#utility.yul\":10337:10361   */\n      tag_217\n        /* \"#utility.yul\":10355:10360   */\n      dup2\n        /* \"#utility.yul\":10337:10361   */\n      tag_190\n      jump\t// in\n    tag_217:\n        /* \"#utility.yul\":10330:10335   */\n      dup2\n        /* \"#utility.yul\":10327:10362   */\n      eq\n        /* \"#utility.yul\":10317:10319   */\n      tag_218\n      jumpi\n        /* \"#utility.yul\":10376:10377   */\n      0x00\n        /* \"#utility.yul\":10373:10374   */\n      dup1\n        /* \"#utility.yul\":10366:10378   */\n      revert\n        /* \"#utility.yul\":10317:10319   */\n    tag_218:\n        /* \"#utility.yul\":10307:10386   */\n      pop\n      jump\t// out\n        /* \"#utility.yul\":10392:10530   */\n    tag_96:\n        /* \"#utility.yul\":10473:10505   */\n      tag_220\n        /* \"#utility.yul\":10499:10504   */\n      dup2\n        /* \"#utility.yul\":10473:10505   */\n      tag_123\n      jump\t// in\n    tag_220:\n        /* \"#utility.yul\":10466:10471   */\n      dup2\n        /* \"#utility.yul\":10463:10506   */\n      eq\n        /* \"#utility.yul\":10453:10455   */\n      tag_221\n      jumpi\n        /* \"#utility.yul\":10520:10521   */\n      0x00\n        /* \"#utility.yul\":10517:10518   */\n      dup1\n        /* \"#utility.yul\":10510:10522   */\n      revert\n        /* \"#utility.yul\":10453:10455   */\n    tag_221:\n        /* \"#utility.yul\":10443:10530   */\n      pop\n      jump\t// out\n        /* \"#utility.yul\":10536:10684   */\n    tag_104:\n        /* \"#utility.yul\":10622:10659   */\n      tag_223\n        /* \"#utility.yul\":10653:10658   */\n      dup2\n        /* \"#utility.yul\":10622:10659   */\n      tag_197\n      jump\t// in\n    tag_223:\n        /* \"#utility.yul\":10615:10620   */\n      dup2\n        /* \"#utility.yul\":10612:10660   */\n      eq\n        /* \"#utility.yul\":10602:10604   */\n      tag_224\n      jumpi\n        /* \"#utility.yul\":10674:10675   */\n      0x00\n        /* \"#utility.yul\":10671:10672   */\n      dup1\n        /* \"#utility.yul\":10664:10676   */\n      revert\n        /* \"#utility.yul\":10602:10604   */\n    tag_224:\n        /* \"#utility.yul\":10592:10684   */\n      pop\n      jump\t// out\n        /* \"#utility.yul\":10690:10812   */\n    tag_107:\n        /* \"#utility.yul\":10763:10787   */\n      tag_226\n        /* \"#utility.yul\":10781:10786   */\n      dup2\n        /* \"#utility.yul\":10763:10787   */\n      tag_141\n      jump\t// in\n    tag_226:\n        /* \"#utility.yul\":10756:10761   */\n      dup2\n        /* \"#utility.yul\":10753:10788   */\n      eq\n        /* \"#utility.yul\":10743:10745   */\n      tag_227\n      jumpi\n        /* \"#utility.yul\":10802:10803   */\n      0x00\n        /* \"#utility.yul\":10799:10800   */\n      dup1\n        /* \"#utility.yul\":10792:10804   */\n      revert\n        /* \"#utility.yul\":10743:10745   */\n    tag_227:\n        /* \"#utility.yul\":10733:10812   */\n      pop\n      jump\t// out\n\n    auxdata: 0xa26469706673582212206fcf28f5ce9fe5a59d1a5618e9a39e37cbdf9d7613bb744e3ee1c6a3bc43127064736f6c63430008040033\n}\n",
				"bytecode": {
					"linkReferences": {},
					"object": "608060405234801561001057600080fd5b506001600081905550610dcd806100286000396000f3fe60806040526004361061007b5760003560e01c8063861faf5f1161004e578063861faf5f1461013a5780638f1eae4c14610144578063acfb23551461016d578063e2d3f4231461019d5761007b565b806318856a2f14610080578063200d2ed2146100b657806356c5f349146100e1578063796478331461011e575b600080fd5b34801561008c57600080fd5b506100956101df565b6040516100ad9c9b9a9998979695949392919061099b565b60405180910390f35b3480156100c257600080fd5b506100cb61028d565b6040516100d89190610a75565b60405180910390f35b3480156100ed57600080fd5b5061010860048036038101906101039190610886565b6102c3565b6040516101159190610a75565b60405180910390f35b61013860048036038101906101339190610913565b6102db565b005b610142610386565b005b34801561015057600080fd5b5061016b600480360381019061016691906108af565b6103cf565b005b34801561017957600080fd5b50610182610728565b60405161019496959493929190610af1565b60405180910390f35b3480156101a957600080fd5b506101c460048036038101906101bf9190610886565b610752565b6040516101d696959493929190610a90565b60405180910390f35b60098060000160009054906101000a900473ffffffffffffffffffffffffffffffffffffffff16908060010160009054906101000a900473ffffffffffffffffffffffffffffffffffffffff16908060020160009054906101000a900473ffffffffffffffffffffffffffffffffffffffff169080600301549080600401549080600501549080600601549080600701549080600801549080600901549080600a01549080600b015490508c565b60006009600401544210156102a557600090506102c0565b6009600501544211156102bb57600290506102c0565b600190505b90565b60026020528060005260406000206000915090505481565b60026000541415610321576040517f08c379a000000000000000000000000000000000000000000000000000000000815260040161031890610a55565b60405180910390fd5b60026000819055503373ffffffffffffffffffffffffffffffffffffffff166108fc823461034f9190610bae565b9081150290604051600060405180830381858888f1935050505015801561037a573d6000803e3d6000fd5b50600160008190555050565b3373ffffffffffffffffffffffffffffffffffffffff166108fc479081150290604051600060405180830381858888f193505050501580156103cc573d6000803e3d6000fd5b50565b83600960000160006101000a81548173ffffffffffffffffffffffffffffffffffffffff021916908373ffffffffffffffffffffffffffffffffffffffff16021790555082600960010160006101000a81548173ffffffffffffffffffffffffffffffffffffffff021916908373ffffffffffffffffffffffffffffffffffffffff16021790555081600960020160006101000a81548173ffffffffffffffffffffffffffffffffffffffff021916908373ffffffffffffffffffffffffffffffffffffffff160217905550806000600981106104d5577f4e487b7100000000000000000000000000000000000000000000000000000000600052603260045260246000fd5b60200201516009600301819055508060016009811061051d577f4e487b7100000000000000000000000000000000000000000000000000000000600052603260045260246000fd5b602002015160096004018190555080600260098110610565577f4e487b7100000000000000000000000000000000000000000000000000000000600052603260045260246000fd5b6020020151600960050181905550806003600981106105ad577f4e487b7100000000000000000000000000000000000000000000000000000000600052603260045260246000fd5b6020020151600960060181905550806004600981106105f5577f4e487b7100000000000000000000000000000000000000000000000000000000600052603260045260246000fd5b60200201516009600701819055508060056009811061063d577f4e487b7100000000000000000000000000000000000000000000000000000000600052603260045260246000fd5b602002015160096008018190555080600660098110610685577f4e487b7100000000000000000000000000000000000000000000000000000000600052603260045260246000fd5b60200201516009800181905550806007600981106106cc577f4e487b7100000000000000000000000000000000000000000000000000000000600052603260045260246000fd5b60200201516009600a018190555080600860098110610714577f4e487b7100000000000000000000000000000000000000000000000000000000600052603260045260246000fd5b60200201516009600b018190555050505050565b60038060000154908060010154908060020154908060030154908060040154908060050154905086565b60016020528060005260406000206000915090508060000154908060010154908060020154908060030154908060040160009054906101000a900460ff16908060040160019054906101000a900460ff16905086565b60006107bb6107b684610b77565b610b52565b905080828560208602820111156107d157600080fd5b60005b8581101561080157816107e78882610871565b8452602084019350602083019250506001810190506107d4565b5050509392505050565b60008135905061081a81610d3b565b92915050565b60008135905061082f81610d52565b92915050565b600082601f83011261084657600080fd5b60096108538482856107a8565b91505092915050565b60008135905061086b81610d69565b92915050565b60008135905061088081610d80565b92915050565b60006020828403121561089857600080fd5b60006108a68482850161080b565b91505092915050565b60008060008061018085870312156108c657600080fd5b60006108d487828801610820565b94505060206108e58782880161085c565b93505060406108f68782880161085c565b925050606061090787828801610835565b91505092959194509250565b60006020828403121561092557600080fd5b600061093384828501610871565b91505092915050565b61094581610bf4565b82525050565b61095481610c06565b82525050565b61096381610c4e565b82525050565b6000610976601f83610b9d565b915061098182610d12565b602082019050919050565b61099581610c44565b82525050565b6000610180820190506109b1600083018f61093c565b6109be602083018e61095a565b6109cb604083018d61095a565b6109d8606083018c61098c565b6109e5608083018b61098c565b6109f260a083018a61098c565b6109ff60c083018961098c565b610a0c60e083018861098c565b610a1a61010083018761098c565b610a2861012083018661098c565b610a3661014083018561098c565b610a4461016083018461098c565b9d9c50505050505050505050505050565b60006020820190508181036000830152610a6e81610969565b9050919050565b6000602082019050610a8a600083018461098c565b92915050565b600060c082019050610aa5600083018961098c565b610ab2602083018861098c565b610abf604083018761098c565b610acc606083018661098c565b610ad9608083018561094b565b610ae660a083018461094b565b979650505050505050565b600060c082019050610b06600083018961098c565b610b13602083018861098c565b610b20604083018761098c565b610b2d606083018661098c565b610b3a608083018561098c565b610b4760a083018461098c565b979650505050505050565b6000610b5c610b6d565b9050610b688282610c72565b919050565b6000604051905090565b600067ffffffffffffffff821115610b9257610b91610cd2565b5b602082029050919050565b600082825260208201905092915050565b6000610bb982610c44565b9150610bc483610c44565b925082821015610bd757610bd6610ca3565b5b828203905092915050565b6000610bed82610c24565b9050919050565b6000610bff82610c24565b9050919050565b60008115159050919050565b6000610c1d82610be2565b9050919050565b600073ffffffffffffffffffffffffffffffffffffffff82169050919050565b6000819050919050565b6000610c5982610c60565b9050919050565b6000610c6b82610c24565b9050919050565b610c7b82610d01565b810181811067ffffffffffffffff82111715610c9a57610c99610cd2565b5b80604052505050565b7f4e487b7100000000000000000000000000000000000000000000000000000000600052601160045260246000fd5b7f4e487b7100000000000000000000000000000000000000000000000000000000600052604160045260246000fd5b6000601f19601f8301169050919050565b7f5265656e7472616e637947756172643a207265656e7472616e742063616c6c00600082015250565b610d4481610be2565b8114610d4f57600080fd5b50565b610d5b81610bf4565b8114610d6657600080fd5b50565b610d7281610c12565b8114610d7d57600080fd5b50565b610d8981610c44565b8114610d9457600080fd5b5056fea26469706673582212206fcf28f5ce9fe5a59d1a5618e9a39e37cbdf9d7613bb744e3ee1c6a3bc43127064736f6c63430008040033",
					"opcodes": "PUSH1 0x80 PUSH1 0x40 MSTORE CALLVALUE DUP1 ISZERO PUSH2 0x10 JUMPI PUSH1 0x0 DUP1 REVERT JUMPDEST POP PUSH1 0x1 PUSH1 0x0 DUP2 SWAP1 SSTORE POP PUSH2 0xDCD DUP1 PUSH2 0x28 PUSH1 0x0 CODECOPY PUSH1 0x0 RETURN INVALID PUSH1 0x80 PUSH1 0x40 MSTORE PUSH1 0x4 CALLDATASIZE LT PUSH2 0x7B JUMPI PUSH1 0x0 CALLDATALOAD PUSH1 0xE0 SHR DUP1 PUSH4 0x861FAF5F GT PUSH2 0x4E JUMPI DUP1 PUSH4 0x861FAF5F EQ PUSH2 0x13A JUMPI DUP1 PUSH4 0x8F1EAE4C EQ PUSH2 0x144 JUMPI DUP1 PUSH4 0xACFB2355 EQ PUSH2 0x16D JUMPI DUP1 PUSH4 0xE2D3F423 EQ PUSH2 0x19D JUMPI PUSH2 0x7B JUMP JUMPDEST DUP1 PUSH4 0x18856A2F EQ PUSH2 0x80 JUMPI DUP1 PUSH4 0x200D2ED2 EQ PUSH2 0xB6 JUMPI DUP1 PUSH4 0x56C5F349 EQ PUSH2 0xE1 JUMPI DUP1 PUSH4 0x79647833 EQ PUSH2 0x11E JUMPI JUMPDEST PUSH1 0x0 DUP1 REVERT JUMPDEST CALLVALUE DUP1 ISZERO PUSH2 0x8C JUMPI PUSH1 0x0 DUP1 REVERT JUMPDEST POP PUSH2 0x95 PUSH2 0x1DF JUMP JUMPDEST PUSH1 0x40 MLOAD PUSH2 0xAD SWAP13 SWAP12 SWAP11 SWAP10 SWAP9 SWAP8 SWAP7 SWAP6 SWAP5 SWAP4 SWAP3 SWAP2 SWAP1 PUSH2 0x99B JUMP JUMPDEST PUSH1 0x40 MLOAD DUP1 SWAP2 SUB SWAP1 RETURN JUMPDEST CALLVALUE DUP1 ISZERO PUSH2 0xC2 JUMPI PUSH1 0x0 DUP1 REVERT JUMPDEST POP PUSH2 0xCB PUSH2 0x28D JUMP JUMPDEST PUSH1 0x40 MLOAD PUSH2 0xD8 SWAP2 SWAP1 PUSH2 0xA75 JUMP JUMPDEST PUSH1 0x40 MLOAD DUP1 SWAP2 SUB SWAP1 RETURN JUMPDEST CALLVALUE DUP1 ISZERO PUSH2 0xED JUMPI PUSH1 0x0 DUP1 REVERT JUMPDEST POP PUSH2 0x108 PUSH1 0x4 DUP1 CALLDATASIZE SUB DUP2 ADD SWAP1 PUSH2 0x103 SWAP2 SWAP1 PUSH2 0x886 JUMP JUMPDEST PUSH2 0x2C3 JUMP JUMPDEST PUSH1 0x40 MLOAD PUSH2 0x115 SWAP2 SWAP1 PUSH2 0xA75 JUMP JUMPDEST PUSH1 0x40 MLOAD DUP1 SWAP2 SUB SWAP1 RETURN JUMPDEST PUSH2 0x138 PUSH1 0x4 DUP1 CALLDATASIZE SUB DUP2 ADD SWAP1 PUSH2 0x133 SWAP2 SWAP1 PUSH2 0x913 JUMP JUMPDEST PUSH2 0x2DB JUMP JUMPDEST STOP JUMPDEST PUSH2 0x142 PUSH2 0x386 JUMP JUMPDEST STOP JUMPDEST CALLVALUE DUP1 ISZERO PUSH2 0x150 JUMPI PUSH1 0x0 DUP1 REVERT JUMPDEST POP PUSH2 0x16B PUSH1 0x4 DUP1 CALLDATASIZE SUB DUP2 ADD SWAP1 PUSH2 0x166 SWAP2 SWAP1 PUSH2 0x8AF JUMP JUMPDEST PUSH2 0x3CF JUMP JUMPDEST STOP JUMPDEST CALLVALUE DUP1 ISZERO PUSH2 0x179 JUMPI PUSH1 0x0 DUP1 REVERT JUMPDEST POP PUSH2 0x182 PUSH2 0x728 JUMP JUMPDEST PUSH1 0x40 MLOAD PUSH2 0x194 SWAP7 SWAP6 SWAP5 SWAP4 SWAP3 SWAP2 SWAP1 PUSH2 0xAF1 JUMP JUMPDEST PUSH1 0x40 MLOAD DUP1 SWAP2 SUB SWAP1 RETURN JUMPDEST CALLVALUE DUP1 ISZERO PUSH2 0x1A9 JUMPI PUSH1 0x0 DUP1 REVERT JUMPDEST POP PUSH2 0x1C4 PUSH1 0x4 DUP1 CALLDATASIZE SUB DUP2 ADD SWAP1 PUSH2 0x1BF SWAP2 SWAP1 PUSH2 0x886 JUMP JUMPDEST PUSH2 0x752 JUMP JUMPDEST PUSH1 0x40 MLOAD PUSH2 0x1D6 SWAP7 SWAP6 SWAP5 SWAP4 SWAP3 SWAP2 SWAP1 PUSH2 0xA90 JUMP JUMPDEST PUSH1 0x40 MLOAD DUP1 SWAP2 SUB SWAP1 RETURN JUMPDEST PUSH1 0x9 DUP1 PUSH1 0x0 ADD PUSH1 0x0 SWAP1 SLOAD SWAP1 PUSH2 0x100 EXP SWAP1 DIV PUSH20 0xFFFFFFFFFFFFFFFFFFFFFFFFFFFFFFFFFFFFFFFF AND SWAP1 DUP1 PUSH1 0x1 ADD PUSH1 0x0 SWAP1 SLOAD SWAP1 PUSH2 0x100 EXP SWAP1 DIV PUSH20 0xFFFFFFFFFFFFFFFFFFFFFFFFFFFFFFFFFFFFFFFF AND SWAP1 DUP1 PUSH1 0x2 ADD PUSH1 0x0 SWAP1 SLOAD SWAP1 PUSH2 0x100 EXP SWAP1 DIV PUSH20 0xFFFFFFFFFFFFFFFFFFFFFFFFFFFFFFFFFFFFFFFF AND SWAP1 DUP1 PUSH1 0x3 ADD SLOAD SWAP1 DUP1 PUSH1 0x4 ADD SLOAD SWAP1 DUP1 PUSH1 0x5 ADD SLOAD SWAP1 DUP1 PUSH1 0x6 ADD SLOAD SWAP1 DUP1 PUSH1 0x7 ADD SLOAD SWAP1 DUP1 PUSH1 0x8 ADD SLOAD SWAP1 DUP1 PUSH1 0x9 ADD SLOAD SWAP1 DUP1 PUSH1 0xA ADD SLOAD SWAP1 DUP1 PUSH1 0xB ADD SLOAD SWAP1 POP DUP13 JUMP JUMPDEST PUSH1 0x0 PUSH1 0x9 PUSH1 0x4 ADD SLOAD TIMESTAMP LT ISZERO PUSH2 0x2A5 JUMPI PUSH1 0x0 SWAP1 POP PUSH2 0x2C0 JUMP JUMPDEST PUSH1 0x9 PUSH1 0x5 ADD SLOAD TIMESTAMP GT ISZERO PUSH2 0x2BB JUMPI PUSH1 0x2 SWAP1 POP PUSH2 0x2C0 JUMP JUMPDEST PUSH1 0x1 SWAP1 POP JUMPDEST SWAP1 JUMP JUMPDEST PUSH1 0x2 PUSH1 0x20 MSTORE DUP1 PUSH1 0x0 MSTORE PUSH1 0x40 PUSH1 0x0 KECCAK256 PUSH1 0x0 SWAP2 POP SWAP1 POP SLOAD DUP2 JUMP JUMPDEST PUSH1 0x2 PUSH1 0x0 SLOAD EQ ISZERO PUSH2 0x321 JUMPI PUSH1 0x40 MLOAD PUSH32 0x8C379A000000000000000000000000000000000000000000000000000000000 DUP2 MSTORE PUSH1 0x4 ADD PUSH2 0x318 SWAP1 PUSH2 0xA55 JUMP JUMPDEST PUSH1 0x40 MLOAD DUP1 SWAP2 SUB SWAP1 REVERT JUMPDEST PUSH1 0x2 PUSH1 0x0 DUP2 SWAP1 SSTORE POP CALLER PUSH20 0xFFFFFFFFFFFFFFFFFFFFFFFFFFFFFFFFFFFFFFFF AND PUSH2 0x8FC DUP3 CALLVALUE PUSH2 0x34F SWAP2 SWAP1 PUSH2 0xBAE JUMP JUMPDEST SWAP1 DUP2 ISZERO MUL SWAP1 PUSH1 0x40 MLOAD PUSH1 0x0 PUSH1 0x40 MLOAD DUP1 DUP4 SUB DUP2 DUP6 DUP9 DUP9 CALL SWAP4 POP POP POP POP ISZERO DUP1 ISZERO PUSH2 0x37A JUMPI RETURNDATASIZE PUSH1 0x0 DUP1 RETURNDATACOPY RETURNDATASIZE PUSH1 0x0 REVERT JUMPDEST POP PUSH1 0x1 PUSH1 0x0 DUP2 SWAP1 SSTORE POP POP JUMP JUMPDEST CALLER PUSH20 0xFFFFFFFFFFFFFFFFFFFFFFFFFFFFFFFFFFFFFFFF AND PUSH2 0x8FC SELFBALANCE SWAP1 DUP2 ISZERO MUL SWAP1 PUSH1 0x40 MLOAD PUSH1 0x0 PUSH1 0x40 MLOAD DUP1 DUP4 SUB DUP2 DUP6 DUP9 DUP9 CALL SWAP4 POP POP POP POP ISZERO DUP1 ISZERO PUSH2 0x3CC JUMPI RETURNDATASIZE PUSH1 0x0 DUP1 RETURNDATACOPY RETURNDATASIZE PUSH1 0x0 REVERT JUMPDEST POP JUMP JUMPDEST DUP4 PUSH1 0x9 PUSH1 0x0 ADD PUSH1 0x0 PUSH2 0x100 EXP DUP2 SLOAD DUP2 PUSH20 0xFFFFFFFFFFFFFFFFFFFFFFFFFFFFFFFFFFFFFFFF MUL NOT AND SWAP1 DUP4 PUSH20 0xFFFFFFFFFFFFFFFFFFFFFFFFFFFFFFFFFFFFFFFF AND MUL OR SWAP1 SSTORE POP DUP3 PUSH1 0x9 PUSH1 0x1 ADD PUSH1 0x0 PUSH2 0x100 EXP DUP2 SLOAD DUP2 PUSH20 0xFFFFFFFFFFFFFFFFFFFFFFFFFFFFFFFFFFFFFFFF MUL NOT AND SWAP1 DUP4 PUSH20 0xFFFFFFFFFFFFFFFFFFFFFFFFFFFFFFFFFFFFFFFF AND MUL OR SWAP1 SSTORE POP DUP2 PUSH1 0x9 PUSH1 0x2 ADD PUSH1 0x0 PUSH2 0x100 EXP DUP2 SLOAD DUP2 PUSH20 0xFFFFFFFFFFFFFFFFFFFFFFFFFFFFFFFFFFFFFFFF MUL NOT AND SWAP1 DUP4 PUSH20 0xFFFFFFFFFFFFFFFFFFFFFFFFFFFFFFFFFFFFFFFF AND MUL OR SWAP1 SSTORE POP DUP1 PUSH1 0x0 PUSH1 0x9 DUP2 LT PUSH2 0x4D5 JUMPI PUSH32 0x4E487B7100000000000000000000000000000000000000000000000000000000 PUSH1 0x0 MSTORE PUSH1 0x32 PUSH1 0x4 MSTORE PUSH1 0x24 PUSH1 0x0 REVERT JUMPDEST PUSH1 0x20 MUL ADD MLOAD PUSH1 0x9 PUSH1 0x3 ADD DUP2 SWAP1 SSTORE POP DUP1 PUSH1 0x1 PUSH1 0x9 DUP2 LT PUSH2 0x51D JUMPI PUSH32 0x4E487B7100000000000000000000000000000000000000000000000000000000 PUSH1 0x0 MSTORE PUSH1 0x32 PUSH1 0x4 MSTORE PUSH1 0x24 PUSH1 0x0 REVERT JUMPDEST PUSH1 0x20 MUL ADD MLOAD PUSH1 0x9 PUSH1 0x4 ADD DUP2 SWAP1 SSTORE POP DUP1 PUSH1 0x2 PUSH1 0x9 DUP2 LT PUSH2 0x565 JUMPI PUSH32 0x4E487B7100000000000000000000000000000000000000000000000000000000 PUSH1 0x0 MSTORE PUSH1 0x32 PUSH1 0x4 MSTORE PUSH1 0x24 PUSH1 0x0 REVERT JUMPDEST PUSH1 0x20 MUL ADD MLOAD PUSH1 0x9 PUSH1 0x5 ADD DUP2 SWAP1 SSTORE POP DUP1 PUSH1 0x3 PUSH1 0x9 DUP2 LT PUSH2 0x5AD JUMPI PUSH32 0x4E487B7100000000000000000000000000000000000000000000000000000000 PUSH1 0x0 MSTORE PUSH1 0x32 PUSH1 0x4 MSTORE PUSH1 0x24 PUSH1 0x0 REVERT JUMPDEST PUSH1 0x20 MUL ADD MLOAD PUSH1 0x9 PUSH1 0x6 ADD DUP2 SWAP1 SSTORE POP DUP1 PUSH1 0x4 PUSH1 0x9 DUP2 LT PUSH2 0x5F5 JUMPI PUSH32 0x4E487B7100000000000000000000000000000000000000000000000000000000 PUSH1 0x0 MSTORE PUSH1 0x32 PUSH1 0x4 MSTORE PUSH1 0x24 PUSH1 0x0 REVERT JUMPDEST PUSH1 0x20 MUL ADD MLOAD PUSH1 0x9 PUSH1 0x7 ADD DUP2 SWAP1 SSTORE POP DUP1 PUSH1 0x5 PUSH1 0x9 DUP2 LT PUSH2 0x63D JUMPI PUSH32 0x4E487B7100000000000000000000000000000000000000000000000000000000 PUSH1 0x0 MSTORE PUSH1 0x32 PUSH1 0x4 MSTORE PUSH1 0x24 PUSH1 0x0 REVERT JUMPDEST PUSH1 0x20 MUL ADD MLOAD PUSH1 0x9 PUSH1 0x8 ADD DUP2 SWAP1 SSTORE POP DUP1 PUSH1 0x6 PUSH1 0x9 DUP2 LT PUSH2 0x685 JUMPI PUSH32 0x4E487B7100000000000000000000000000000000000000000000000000000000 PUSH1 0x0 MSTORE PUSH1 0x32 PUSH1 0x4 MSTORE PUSH1 0x24 PUSH1 0x0 REVERT JUMPDEST PUSH1 0x20 MUL ADD MLOAD PUSH1 0x9 DUP1 ADD DUP2 SWAP1 SSTORE POP DUP1 PUSH1 0x7 PUSH1 0x9 DUP2 LT PUSH2 0x6CC JUMPI PUSH32 0x4E487B7100000000000000000000000000000000000000000000000000000000 PUSH1 0x0 MSTORE PUSH1 0x32 PUSH1 0x4 MSTORE PUSH1 0x24 PUSH1 0x0 REVERT JUMPDEST PUSH1 0x20 MUL ADD MLOAD PUSH1 0x9 PUSH1 0xA ADD DUP2 SWAP1 SSTORE POP DUP1 PUSH1 0x8 PUSH1 0x9 DUP2 LT PUSH2 0x714 JUMPI PUSH32 0x4E487B7100000000000000000000000000000000000000000000000000000000 PUSH1 0x0 MSTORE PUSH1 0x32 PUSH1 0x4 MSTORE PUSH1 0x24 PUSH1 0x0 REVERT JUMPDEST PUSH1 0x20 MUL ADD MLOAD PUSH1 0x9 PUSH1 0xB ADD DUP2 SWAP1 SSTORE POP POP POP POP POP JUMP JUMPDEST PUSH1 0x3 DUP1 PUSH1 0x0 ADD SLOAD SWAP1 DUP1 PUSH1 0x1 ADD SLOAD SWAP1 DUP1 PUSH1 0x2 ADD SLOAD SWAP1 DUP1 PUSH1 0x3 ADD SLOAD SWAP1 DUP1 PUSH1 0x4 ADD SLOAD SWAP1 DUP1 PUSH1 0x5 ADD SLOAD SWAP1 POP DUP7 JUMP JUMPDEST PUSH1 0x1 PUSH1 0x20 MSTORE DUP1 PUSH1 0x0 MSTORE PUSH1 0x40 PUSH1 0x0 KECCAK256 PUSH1 0x0 SWAP2 POP SWAP1 POP DUP1 PUSH1 0x0 ADD SLOAD SWAP1 DUP1 PUSH1 0x1 ADD SLOAD SWAP1 DUP1 PUSH1 0x2 ADD SLOAD SWAP1 DUP1 PUSH1 0x3 ADD SLOAD SWAP1 DUP1 PUSH1 0x4 ADD PUSH1 0x0 SWAP1 SLOAD SWAP1 PUSH2 0x100 EXP SWAP1 DIV PUSH1 0xFF AND SWAP1 DUP1 PUSH1 0x4 ADD PUSH1 0x1 SWAP1 SLOAD SWAP1 PUSH2 0x100 EXP SWAP1 DIV PUSH1 0xFF AND SWAP1 POP DUP7 JUMP JUMPDEST PUSH1 0x0 PUSH2 0x7BB PUSH2 0x7B6 DUP5 PUSH2 0xB77 JUMP JUMPDEST PUSH2 0xB52 JUMP JUMPDEST SWAP1 POP DUP1 DUP3 DUP6 PUSH1 0x20 DUP7 MUL DUP3 ADD GT ISZERO PUSH2 0x7D1 JUMPI PUSH1 0x0 DUP1 REVERT JUMPDEST PUSH1 0x0 JUMPDEST DUP6 DUP2 LT ISZERO PUSH2 0x801 JUMPI DUP2 PUSH2 0x7E7 DUP9 DUP3 PUSH2 0x871 JUMP JUMPDEST DUP5 MSTORE PUSH1 0x20 DUP5 ADD SWAP4 POP PUSH1 0x20 DUP4 ADD SWAP3 POP POP PUSH1 0x1 DUP2 ADD SWAP1 POP PUSH2 0x7D4 JUMP JUMPDEST POP POP POP SWAP4 SWAP3 POP POP POP JUMP JUMPDEST PUSH1 0x0 DUP2 CALLDATALOAD SWAP1 POP PUSH2 0x81A DUP2 PUSH2 0xD3B JUMP JUMPDEST SWAP3 SWAP2 POP POP JUMP JUMPDEST PUSH1 0x0 DUP2 CALLDATALOAD SWAP1 POP PUSH2 0x82F DUP2 PUSH2 0xD52 JUMP JUMPDEST SWAP3 SWAP2 POP POP JUMP JUMPDEST PUSH1 0x0 DUP3 PUSH1 0x1F DUP4 ADD SLT PUSH2 0x846 JUMPI PUSH1 0x0 DUP1 REVERT JUMPDEST PUSH1 0x9 PUSH2 0x853 DUP5 DUP3 DUP6 PUSH2 0x7A8 JUMP JUMPDEST SWAP2 POP POP SWAP3 SWAP2 POP POP JUMP JUMPDEST PUSH1 0x0 DUP2 CALLDATALOAD SWAP1 POP PUSH2 0x86B DUP2 PUSH2 0xD69 JUMP JUMPDEST SWAP3 SWAP2 POP POP JUMP JUMPDEST PUSH1 0x0 DUP2 CALLDATALOAD SWAP1 POP PUSH2 0x880 DUP2 PUSH2 0xD80 JUMP JUMPDEST SWAP3 SWAP2 POP POP JUMP JUMPDEST PUSH1 0x0 PUSH1 0x20 DUP3 DUP5 SUB SLT ISZERO PUSH2 0x898 JUMPI PUSH1 0x0 DUP1 REVERT JUMPDEST PUSH1 0x0 PUSH2 0x8A6 DUP5 DUP3 DUP6 ADD PUSH2 0x80B JUMP JUMPDEST SWAP2 POP POP SWAP3 SWAP2 POP POP JUMP JUMPDEST PUSH1 0x0 DUP1 PUSH1 0x0 DUP1 PUSH2 0x180 DUP6 DUP8 SUB SLT ISZERO PUSH2 0x8C6 JUMPI PUSH1 0x0 DUP1 REVERT JUMPDEST PUSH1 0x0 PUSH2 0x8D4 DUP8 DUP3 DUP9 ADD PUSH2 0x820 JUMP JUMPDEST SWAP5 POP POP PUSH1 0x20 PUSH2 0x8E5 DUP8 DUP3 DUP9 ADD PUSH2 0x85C JUMP JUMPDEST SWAP4 POP POP PUSH1 0x40 PUSH2 0x8F6 DUP8 DUP3 DUP9 ADD PUSH2 0x85C JUMP JUMPDEST SWAP3 POP POP PUSH1 0x60 PUSH2 0x907 DUP8 DUP3 DUP9 ADD PUSH2 0x835 JUMP JUMPDEST SWAP2 POP POP SWAP3 SWAP6 SWAP2 SWAP5 POP SWAP3 POP JUMP JUMPDEST PUSH1 0x0 PUSH1 0x20 DUP3 DUP5 SUB SLT ISZERO PUSH2 0x925 JUMPI PUSH1 0x0 DUP1 REVERT JUMPDEST PUSH1 0x0 PUSH2 0x933 DUP5 DUP3 DUP6 ADD PUSH2 0x871 JUMP JUMPDEST SWAP2 POP POP SWAP3 SWAP2 POP POP JUMP JUMPDEST PUSH2 0x945 DUP2 PUSH2 0xBF4 JUMP JUMPDEST DUP3 MSTORE POP POP JUMP JUMPDEST PUSH2 0x954 DUP2 PUSH2 0xC06 JUMP JUMPDEST DUP3 MSTORE POP POP JUMP JUMPDEST PUSH2 0x963 DUP2 PUSH2 0xC4E JUMP JUMPDEST DUP3 MSTORE POP POP JUMP JUMPDEST PUSH1 0x0 PUSH2 0x976 PUSH1 0x1F DUP4 PUSH2 0xB9D JUMP JUMPDEST SWAP2 POP PUSH2 0x981 DUP3 PUSH2 0xD12 JUMP JUMPDEST PUSH1 0x20 DUP3 ADD SWAP1 POP SWAP2 SWAP1 POP JUMP JUMPDEST PUSH2 0x995 DUP2 PUSH2 0xC44 JUMP JUMPDEST DUP3 MSTORE POP POP JUMP JUMPDEST PUSH1 0x0 PUSH2 0x180 DUP3 ADD SWAP1 POP PUSH2 0x9B1 PUSH1 0x0 DUP4 ADD DUP16 PUSH2 0x93C JUMP JUMPDEST PUSH2 0x9BE PUSH1 0x20 DUP4 ADD DUP15 PUSH2 0x95A JUMP JUMPDEST PUSH2 0x9CB PUSH1 0x40 DUP4 ADD DUP14 PUSH2 0x95A JUMP JUMPDEST PUSH2 0x9D8 PUSH1 0x60 DUP4 ADD DUP13 PUSH2 0x98C JUMP JUMPDEST PUSH2 0x9E5 PUSH1 0x80 DUP4 ADD DUP12 PUSH2 0x98C JUMP JUMPDEST PUSH2 0x9F2 PUSH1 0xA0 DUP4 ADD DUP11 PUSH2 0x98C JUMP JUMPDEST PUSH2 0x9FF PUSH1 0xC0 DUP4 ADD DUP10 PUSH2 0x98C JUMP JUMPDEST PUSH2 0xA0C PUSH1 0xE0 DUP4 ADD DUP9 PUSH2 0x98C JUMP JUMPDEST PUSH2 0xA1A PUSH2 0x100 DUP4 ADD DUP8 PUSH2 0x98C JUMP JUMPDEST PUSH2 0xA28 PUSH2 0x120 DUP4 ADD DUP7 PUSH2 0x98C JUMP JUMPDEST PUSH2 0xA36 PUSH2 0x140 DUP4 ADD DUP6 PUSH2 0x98C JUMP JUMPDEST PUSH2 0xA44 PUSH2 0x160 DUP4 ADD DUP5 PUSH2 0x98C JUMP JUMPDEST SWAP14 SWAP13 POP POP POP POP POP POP POP POP POP POP POP POP POP JUMP JUMPDEST PUSH1 0x0 PUSH1 0x20 DUP3 ADD SWAP1 POP DUP2 DUP2 SUB PUSH1 0x0 DUP4 ADD MSTORE PUSH2 0xA6E DUP2 PUSH2 0x969 JUMP JUMPDEST SWAP1 POP SWAP2 SWAP1 POP JUMP JUMPDEST PUSH1 0x0 PUSH1 0x20 DUP3 ADD SWAP1 POP PUSH2 0xA8A PUSH1 0x0 DUP4 ADD DUP5 PUSH2 0x98C JUMP JUMPDEST SWAP3 SWAP2 POP POP JUMP JUMPDEST PUSH1 0x0 PUSH1 0xC0 DUP3 ADD SWAP1 POP PUSH2 0xAA5 PUSH1 0x0 DUP4 ADD DUP10 PUSH2 0x98C JUMP JUMPDEST PUSH2 0xAB2 PUSH1 0x20 DUP4 ADD DUP9 PUSH2 0x98C JUMP JUMPDEST PUSH2 0xABF PUSH1 0x40 DUP4 ADD DUP8 PUSH2 0x98C JUMP JUMPDEST PUSH2 0xACC PUSH1 0x60 DUP4 ADD DUP7 PUSH2 0x98C JUMP JUMPDEST PUSH2 0xAD9 PUSH1 0x80 DUP4 ADD DUP6 PUSH2 0x94B JUMP JUMPDEST PUSH2 0xAE6 PUSH1 0xA0 DUP4 ADD DUP5 PUSH2 0x94B JUMP JUMPDEST SWAP8 SWAP7 POP POP POP POP POP POP POP JUMP JUMPDEST PUSH1 0x0 PUSH1 0xC0 DUP3 ADD SWAP1 POP PUSH2 0xB06 PUSH1 0x0 DUP4 ADD DUP10 PUSH2 0x98C JUMP JUMPDEST PUSH2 0xB13 PUSH1 0x20 DUP4 ADD DUP9 PUSH2 0x98C JUMP JUMPDEST PUSH2 0xB20 PUSH1 0x40 DUP4 ADD DUP8 PUSH2 0x98C JUMP JUMPDEST PUSH2 0xB2D PUSH1 0x60 DUP4 ADD DUP7 PUSH2 0x98C JUMP JUMPDEST PUSH2 0xB3A PUSH1 0x80 DUP4 ADD DUP6 PUSH2 0x98C JUMP JUMPDEST PUSH2 0xB47 PUSH1 0xA0 DUP4 ADD DUP5 PUSH2 0x98C JUMP JUMPDEST SWAP8 SWAP7 POP POP POP POP POP POP POP JUMP JUMPDEST PUSH1 0x0 PUSH2 0xB5C PUSH2 0xB6D JUMP JUMPDEST SWAP1 POP PUSH2 0xB68 DUP3 DUP3 PUSH2 0xC72 JUMP JUMPDEST SWAP2 SWAP1 POP JUMP JUMPDEST PUSH1 0x0 PUSH1 0x40 MLOAD SWAP1 POP SWAP1 JUMP JUMPDEST PUSH1 0x0 PUSH8 0xFFFFFFFFFFFFFFFF DUP3 GT ISZERO PUSH2 0xB92 JUMPI PUSH2 0xB91 PUSH2 0xCD2 JUMP JUMPDEST JUMPDEST PUSH1 0x20 DUP3 MUL SWAP1 POP SWAP2 SWAP1 POP JUMP JUMPDEST PUSH1 0x0 DUP3 DUP3 MSTORE PUSH1 0x20 DUP3 ADD SWAP1 POP SWAP3 SWAP2 POP POP JUMP JUMPDEST PUSH1 0x0 PUSH2 0xBB9 DUP3 PUSH2 0xC44 JUMP JUMPDEST SWAP2 POP PUSH2 0xBC4 DUP4 PUSH2 0xC44 JUMP JUMPDEST SWAP3 POP DUP3 DUP3 LT ISZERO PUSH2 0xBD7 JUMPI PUSH2 0xBD6 PUSH2 0xCA3 JUMP JUMPDEST JUMPDEST DUP3 DUP3 SUB SWAP1 POP SWAP3 SWAP2 POP POP JUMP JUMPDEST PUSH1 0x0 PUSH2 0xBED DUP3 PUSH2 0xC24 JUMP JUMPDEST SWAP1 POP SWAP2 SWAP1 POP JUMP JUMPDEST PUSH1 0x0 PUSH2 0xBFF DUP3 PUSH2 0xC24 JUMP JUMPDEST SWAP1 POP SWAP2 SWAP1 POP JUMP JUMPDEST PUSH1 0x0 DUP2 ISZERO ISZERO SWAP1 POP SWAP2 SWAP1 POP JUMP JUMPDEST PUSH1 0x0 PUSH2 0xC1D DUP3 PUSH2 0xBE2 JUMP JUMPDEST SWAP1 POP SWAP2 SWAP1 POP JUMP JUMPDEST PUSH1 0x0 PUSH20 0xFFFFFFFFFFFFFFFFFFFFFFFFFFFFFFFFFFFFFFFF DUP3 AND SWAP1 POP SWAP2 SWAP1 POP JUMP JUMPDEST PUSH1 0x0 DUP2 SWAP1 POP SWAP2 SWAP1 POP JUMP JUMPDEST PUSH1 0x0 PUSH2 0xC59 DUP3 PUSH2 0xC60 JUMP JUMPDEST SWAP1 POP SWAP2 SWAP1 POP JUMP JUMPDEST PUSH1 0x0 PUSH2 0xC6B DUP3 PUSH2 0xC24 JUMP JUMPDEST SWAP1 POP SWAP2 SWAP1 POP JUMP JUMPDEST PUSH2 0xC7B DUP3 PUSH2 0xD01 JUMP JUMPDEST DUP2 ADD DUP2 DUP2 LT PUSH8 0xFFFFFFFFFFFFFFFF DUP3 GT OR ISZERO PUSH2 0xC9A JUMPI PUSH2 0xC99 PUSH2 0xCD2 JUMP JUMPDEST JUMPDEST DUP1 PUSH1 0x40 MSTORE POP POP POP JUMP JUMPDEST PUSH32 0x4E487B7100000000000000000000000000000000000000000000000000000000 PUSH1 0x0 MSTORE PUSH1 0x11 PUSH1 0x4 MSTORE PUSH1 0x24 PUSH1 0x0 REVERT JUMPDEST PUSH32 0x4E487B7100000000000000000000000000000000000000000000000000000000 PUSH1 0x0 MSTORE PUSH1 0x41 PUSH1 0x4 MSTORE PUSH1 0x24 PUSH1 0x0 REVERT JUMPDEST PUSH1 0x0 PUSH1 0x1F NOT PUSH1 0x1F DUP4 ADD AND SWAP1 POP SWAP2 SWAP1 POP JUMP JUMPDEST PUSH32 0x5265656E7472616E637947756172643A207265656E7472616E742063616C6C00 PUSH1 0x0 DUP3 ADD MSTORE POP JUMP JUMPDEST PUSH2 0xD44 DUP2 PUSH2 0xBE2 JUMP JUMPDEST DUP2 EQ PUSH2 0xD4F JUMPI PUSH1 0x0 DUP1 REVERT JUMPDEST POP JUMP JUMPDEST PUSH2 0xD5B DUP2 PUSH2 0xBF4 JUMP JUMPDEST DUP2 EQ PUSH2 0xD66 JUMPI PUSH1 0x0 DUP1 REVERT JUMPDEST POP JUMP JUMPDEST PUSH2 0xD72 DUP2 PUSH2 0xC12 JUMP JUMPDEST DUP2 EQ PUSH2 0xD7D JUMPI PUSH1 0x0 DUP1 REVERT JUMPDEST POP JUMP JUMPDEST PUSH2 0xD89 DUP2 PUSH2 0xC44 JUMP JUMPDEST DUP2 EQ PUSH2 0xD94 JUMPI PUSH1 0x0 DUP1 REVERT JUMPDEST POP JUMP INVALID LOG2 PUSH5 0x6970667358 0x22 SLT KECCAK256 PUSH16 0xCF28F5CE9FE5A59D1A5618E9A39E37CB 0xDF SWAP14 PUSH23 0x13BB744E3EE1C6A3BC43127064736F6C63430008040033 "
				},
				"gasEstimates": {
					"creation": {
						"codeDepositCost": "706600",
						"executionCost": "20755",
						"totalCost": "727355"
					},
					"external": {
						"backToken()": "infinite",
						"buyerInfo(address)": "infinite",
						"depodit(uint256)": "infinite",
						"initialSaleInfor(address,address,address,uint256[9])": "infinite",
						"presaleStatus()": "infinite",
						"saleInfor()": "infinite",
						"status()": "2033",
						"userFee(address)": "1559"
					}
				},
				"methodIdentifiers": {
					"backToken()": "861faf5f",
					"buyerInfo(address)": "e2d3f423",
					"depodit(uint256)": "79647833",
					"initialSaleInfor(address,address,address,uint256[9])": "8f1eae4c",
					"presaleStatus()": "acfb2355",
					"saleInfor()": "18856a2f",
					"status()": "200d2ed2",
					"userFee(address)": "56c5f349"
				}
			},
			"storageLayout": {
				"storage": [
					{
						"astId": 334,
						"contract": "Ethereum/Presale.sol:Presale",
						"label": "_status",
						"offset": 0,
						"slot": "0",
						"type": "t_uint256"
					},
					{
						"astId": 141,
						"contract": "Ethereum/Presale.sol:Presale",
						"label": "buyerInfo",
						"offset": 0,
						"slot": "1",
						"type": "t_mapping(t_address,t_struct(BuyerInfo)123_storage)"
					},
					{
						"astId": 145,
						"contract": "Ethereum/Presale.sol:Presale",
						"label": "userFee",
						"offset": 0,
						"slot": "2",
						"type": "t_mapping(t_address,t_uint256)"
					},
					{
						"astId": 148,
						"contract": "Ethereum/Presale.sol:Presale",
						"label": "presaleStatus",
						"offset": 0,
						"slot": "3",
						"type": "t_struct(PresaleStatus)136_storage"
					},
					{
						"astId": 151,
						"contract": "Ethereum/Presale.sol:Presale",
						"label": "saleInfor",
						"offset": 0,
						"slot": "9",
						"type": "t_struct(SaleInfor)110_storage"
					}
				],
				"types": {
					"t_address": {
						"encoding": "inplace",
						"label": "address",
						"numberOfBytes": "20"
					},
					"t_address_payable": {
						"encoding": "inplace",
						"label": "address payable",
						"numberOfBytes": "20"
					},
					"t_bool": {
						"encoding": "inplace",
						"label": "bool",
						"numberOfBytes": "1"
					},
					"t_contract(IERC20)77": {
						"encoding": "inplace",
						"label": "contract IERC20",
						"numberOfBytes": "20"
					},
					"t_mapping(t_address,t_struct(BuyerInfo)123_storage)": {
						"encoding": "mapping",
						"key": "t_address",
						"label": "mapping(address => struct Presale.BuyerInfo)",
						"numberOfBytes": "32",
						"value": "t_struct(BuyerInfo)123_storage"
					},
					"t_mapping(t_address,t_uint256)": {
						"encoding": "mapping",
						"key": "t_address",
						"label": "mapping(address => uint256)",
						"numberOfBytes": "32",
						"value": "t_uint256"
					},
					"t_struct(BuyerInfo)123_storage": {
						"encoding": "inplace",
						"label": "struct Presale.BuyerInfo",
						"members": [
							{
								"astId": 112,
								"contract": "Ethereum/Presale.sol:Presale",
								"label": "baseDeposit",
								"offset": 0,
								"slot": "0",
								"type": "t_uint256"
							},
							{
								"astId": 114,
								"contract": "Ethereum/Presale.sol:Presale",
								"label": "tokenOwner",
								"offset": 0,
								"slot": "1",
								"type": "t_uint256"
							},
							{
								"astId": 116,
								"contract": "Ethereum/Presale.sol:Presale",
								"label": "lastWithDraw",
								"offset": 0,
								"slot": "2",
								"type": "t_uint256"
							},
							{
								"astId": 118,
								"contract": "Ethereum/Presale.sol:Presale",
								"label": "totalTokenWithDraw",
								"offset": 0,
								"slot": "3",
								"type": "t_uint256"
							},
							{
								"astId": 120,
								"contract": "Ethereum/Presale.sol:Presale",
								"label": "isRefund",
								"offset": 0,
								"slot": "4",
								"type": "t_bool"
							},
							{
								"astId": 122,
								"contract": "Ethereum/Presale.sol:Presale",
								"label": "isClaim",
								"offset": 1,
								"slot": "4",
								"type": "t_bool"
							}
						],
						"numberOfBytes": "160"
					},
					"t_struct(PresaleStatus)136_storage": {
						"encoding": "inplace",
						"label": "struct Presale.PresaleStatus",
						"members": [
							{
								"astId": 125,
								"contract": "Ethereum/Presale.sol:Presale",
								"label": "totalBaseCollected",
								"offset": 0,
								"slot": "0",
								"type": "t_uint256"
							},
							{
								"astId": 127,
								"contract": "Ethereum/Presale.sol:Presale",
								"label": "totalTokenSold",
								"offset": 0,
								"slot": "1",
								"type": "t_uint256"
							},
							{
								"astId": 129,
								"contract": "Ethereum/Presale.sol:Presale",
								"label": "totalTokenWithDraw",
								"offset": 0,
								"slot": "2",
								"type": "t_uint256"
							},
							{
								"astId": 131,
								"contract": "Ethereum/Presale.sol:Presale",
								"label": "totalBaseWithDraw",
								"offset": 0,
								"slot": "3",
								"type": "t_uint256"
							},
							{
								"astId": 133,
								"contract": "Ethereum/Presale.sol:Presale",
								"label": "numByer",
								"offset": 0,
								"slot": "4",
								"type": "t_uint256"
							},
							{
								"astId": 135,
								"contract": "Ethereum/Presale.sol:Presale",
								"label": "totalFee",
								"offset": 0,
								"slot": "5",
								"type": "t_uint256"
							}
						],
						"numberOfBytes": "192"
					},
					"t_struct(SaleInfor)110_storage": {
						"encoding": "inplace",
						"label": "struct Presale.SaleInfor",
						"members": [
							{
								"astId": 85,
								"contract": "Ethereum/Presale.sol:Presale",
								"label": "presaleOwner",
								"offset": 0,
								"slot": "0",
								"type": "t_address_payable"
							},
							{
								"astId": 88,
								"contract": "Ethereum/Presale.sol:Presale",
								"label": "saleToken",
								"offset": 0,
								"slot": "1",
								"type": "t_contract(IERC20)77"
							},
							{
								"astId": 91,
								"contract": "Ethereum/Presale.sol:Presale",
								"label": "baseToken",
								"offset": 0,
								"slot": "2",
								"type": "t_contract(IERC20)77"
							},
							{
								"astId": 93,
								"contract": "Ethereum/Presale.sol:Presale",
								"label": "tokenPrice",
								"offset": 0,
								"slot": "3",
								"type": "t_uint256"
							},
							{
								"astId": 95,
								"contract": "Ethereum/Presale.sol:Presale",
								"label": "startSale",
								"offset": 0,
								"slot": "4",
								"type": "t_uint256"
							},
							{
								"astId": 97,
								"contract": "Ethereum/Presale.sol:Presale",
								"label": "endSale",
								"offset": 0,
								"slot": "5",
								"type": "t_uint256"
							},
							{
								"astId": 99,
								"contract": "Ethereum/Presale.sol:Presale",
								"label": "valueSwapERC20",
								"offset": 0,
								"slot": "6",
								"type": "t_uint256"
							},
							{
								"astId": 101,
								"contract": "Ethereum/Presale.sol:Presale",
								"label": "feeTransaction",
								"offset": 0,
								"slot": "7",
								"type": "t_uint256"
							},
							{
								"astId": 103,
								"contract": "Ethereum/Presale.sol:Presale",
								"label": "minSpendPerBuyer",
								"offset": 0,
								"slot": "8",
								"type": "t_uint256"
							},
							{
								"astId": 105,
								"contract": "Ethereum/Presale.sol:Presale",
								"label": "maxSpendPerBuyer",
								"offset": 0,
								"slot": "9",
								"type": "t_uint256"
							},
							{
								"astId": 107,
								"contract": "Ethereum/Presale.sol:Presale",
								"label": "refundFee",
								"offset": 0,
								"slot": "10",
								"type": "t_uint256"
							},
							{
								"astId": 109,
								"contract": "Ethereum/Presale.sol:Presale",
								"label": "claimFee",
								"offset": 0,
								"slot": "11",
								"type": "t_uint256"
							}
						],
						"numberOfBytes": "384"
					},
					"t_uint256": {
						"encoding": "inplace",
						"label": "uint256",
						"numberOfBytes": "32"
					}
				}
			},
			"userdoc": {
				"kind": "user",
				"methods": {},
				"version": 1
			}
		}
	}
}