{
	"Ethereum/Presale.sol": {
		"Presale": {
			"abi": [
				{
					"inputs": [],
					"stateMutability": "nonpayable",
					"type": "constructor"
				},
				{
					"inputs": [],
					"name": "backToken",
					"outputs": [],
					"stateMutability": "payable",
					"type": "function"
				},
				{
					"inputs": [
						{
							"internalType": "uint256",
							"name": "value",
							"type": "uint256"
						}
					],
					"name": "depodit",
					"outputs": [],
					"stateMutability": "payable",
					"type": "function"
				},
				{
					"inputs": [
						{
							"internalType": "address",
							"name": "_address",
							"type": "address"
						}
					],
					"name": "getBalance",
					"outputs": [
						{
							"internalType": "uint256",
							"name": "",
							"type": "uint256"
						}
					],
					"stateMutability": "view",
					"type": "function"
				},
				{
					"inputs": [
						{
							"internalType": "uint256",
							"name": "amount",
							"type": "uint256"
						}
					],
					"name": "transferETH",
					"outputs": [],
					"stateMutability": "payable",
					"type": "function"
				}
			],
			"devdoc": {
				"kind": "dev",
				"methods": {},
				"version": 1
			},
			"evm": {
				"assembly": "    /* \"Ethereum/Presale.sol\":232:3448  contract Presale is ReentrancyGuard{\r... */\n  mstore(0x40, 0x80)\n    /* \"Ethereum/Presale.sol\":2680:2786  constructor() {\r... */\n  callvalue\n  dup1\n  iszero\n  tag_1\n  jumpi\n  0x00\n  dup1\n  revert\ntag_1:\n  pop\n    /* \"Utils/ReentrancyGuard.sol\":1734:1735  1 */\n  0x01\n    /* \"Utils/ReentrancyGuard.sol\":1845:1852  _status */\n  0x00\n    /* \"Utils/ReentrancyGuard.sol\":1845:1867  _status = _NOT_ENTERED */\n  dup2\n  swap1\n  sstore\n  pop\n    /* \"Ethereum/Presale.sol\":2735:2777  0xae13d989daC2f0dEbFf460aC112a837C89BAa7cd */\n  0xae13d989dac2f0debff460ac112a837c89baa7cd\n    /* \"Ethereum/Presale.sol\":2705:2717  PRESALE_INFO */\n  0x01\n    /* \"Ethereum/Presale.sol\":2705:2725  PRESALE_INFO.B_TOKEN */\n  0x00\n  add\n  0x00\n    /* \"Ethereum/Presale.sol\":2705:2778  PRESALE_INFO.B_TOKEN = IERC20(0xae13d989daC2f0dEbFf460aC112a837C89BAa7cd) */\n  0x0100\n  exp\n  dup2\n  sload\n  dup2\n  0xffffffffffffffffffffffffffffffffffffffff\n  mul\n  not\n  and\n  swap1\n  dup4\n  0xffffffffffffffffffffffffffffffffffffffff\n  and\n  mul\n  or\n  swap1\n  sstore\n  pop\n    /* \"Ethereum/Presale.sol\":232:3448  contract Presale is ReentrancyGuard{\r... */\n  dataSize(sub_0)\n  dup1\n  dataOffset(sub_0)\n  0x00\n  codecopy\n  0x00\n  return\nstop\n\nsub_0: assembly {\n        /* \"Ethereum/Presale.sol\":232:3448  contract Presale is ReentrancyGuard{\r... */\n      mstore(0x40, 0x80)\n      jumpi(tag_1, lt(calldatasize, 0x04))\n      shr(0xe0, calldataload(0x00))\n      dup1\n      0x4329db46\n      eq\n      tag_2\n      jumpi\n      dup1\n      0x79647833\n      eq\n      tag_3\n      jumpi\n      dup1\n      0x861faf5f\n      eq\n      tag_4\n      jumpi\n      dup1\n      0xf8b2cb4f\n      eq\n      tag_5\n      jumpi\n    tag_1:\n      0x00\n      dup1\n      revert\n        /* \"Ethereum/Presale.sol\":3322:3443  function transferETH(uint256 amount) external payable {\r... */\n    tag_2:\n      tag_6\n      0x04\n      dup1\n      calldatasize\n      sub\n      dup2\n      add\n      swap1\n      tag_7\n      swap2\n      swap1\n      tag_8\n      jump\t// in\n    tag_7:\n      tag_9\n      jump\t// in\n    tag_6:\n      stop\n        /* \"Ethereum/Presale.sol\":2800:3076  function depodit(\r... */\n    tag_3:\n      tag_10\n      0x04\n      dup1\n      calldatasize\n      sub\n      dup2\n      add\n      swap1\n      tag_11\n      swap2\n      swap1\n      tag_8\n      jump\t// in\n    tag_11:\n      tag_12\n      jump\t// in\n    tag_10:\n      stop\n        /* \"Ethereum/Presale.sol\":3206:3314  function backToken() external payable {\r... */\n    tag_4:\n      tag_13\n      tag_14\n      jump\t// in\n    tag_13:\n      stop\n        /* \"Ethereum/Presale.sol\":3084:3195  function getBalance(address _address) external view returns(uint256) {\r... */\n    tag_5:\n      callvalue\n      dup1\n      iszero\n      tag_15\n      jumpi\n      0x00\n      dup1\n      revert\n    tag_15:\n      pop\n      tag_16\n      0x04\n      dup1\n      calldatasize\n      sub\n      dup2\n      add\n      swap1\n      tag_17\n      swap2\n      swap1\n      tag_18\n      jump\t// in\n    tag_17:\n      tag_19\n      jump\t// in\n    tag_16:\n      mload(0x40)\n      tag_20\n      swap2\n      swap1\n      tag_21\n      jump\t// in\n    tag_20:\n      mload(0x40)\n      dup1\n      swap2\n      sub\n      swap1\n      return\n        /* \"Ethereum/Presale.sol\":3322:3443  function transferETH(uint256 amount) external payable {\r... */\n    tag_9:\n        /* \"Ethereum/Presale.sol\":3395:3405  msg.sender */\n      caller\n        /* \"Ethereum/Presale.sol\":3387:3415  payable(msg.sender).transfer */\n      0xffffffffffffffffffffffffffffffffffffffff\n      and\n        /* \"Ethereum/Presale.sol\":3387:3435  payable(msg.sender).transfer(msg.value - amount) */\n      0x08fc\n        /* \"Ethereum/Presale.sol\":3428:3434  amount */\n      dup3\n        /* \"Ethereum/Presale.sol\":3416:3425  msg.value */\n      callvalue\n        /* \"Ethereum/Presale.sol\":3416:3434  msg.value - amount */\n      tag_23\n      swap2\n      swap1\n      tag_24\n      jump\t// in\n    tag_23:\n        /* \"Ethereum/Presale.sol\":3387:3435  payable(msg.sender).transfer(msg.value - amount) */\n      swap1\n      dup2\n      iszero\n      mul\n      swap1\n      mload(0x40)\n      0x00\n      mload(0x40)\n      dup1\n      dup4\n      sub\n      dup2\n      dup6\n      dup9\n      dup9\n      call\n      swap4\n      pop\n      pop\n      pop\n      pop\n      iszero\n      dup1\n      iszero\n      tag_26\n      jumpi\n      returndatasize\n      0x00\n      dup1\n      returndatacopy\n      revert(0x00, returndatasize)\n    tag_26:\n      pop\n        /* \"Ethereum/Presale.sol\":3322:3443  function transferETH(uint256 amount) external payable {\r... */\n      pop\n      jump\t// out\n        /* \"Ethereum/Presale.sol\":2800:3076  function depodit(\r... */\n    tag_12:\n        /* \"Utils/ReentrancyGuard.sol\":1778:1779  2 */\n      0x02\n        /* \"Utils/ReentrancyGuard.sol\":2376:2383  _status */\n      sload(0x00)\n        /* \"Utils/ReentrancyGuard.sol\":2376:2395  _status != _ENTERED */\n      eq\n      iszero\n        /* \"Utils/ReentrancyGuard.sol\":2368:2431  require(_status != _ENTERED, \"ReentrancyGuard: reentrant call\") */\n      tag_28\n      jumpi\n      mload(0x40)\n      0x08c379a000000000000000000000000000000000000000000000000000000000\n      dup2\n      mstore\n      0x04\n      add\n      tag_29\n      swap1\n      tag_30\n      jump\t// in\n    tag_29:\n      mload(0x40)\n      dup1\n      swap2\n      sub\n      swap1\n      revert\n    tag_28:\n        /* \"Utils/ReentrancyGuard.sol\":1778:1779  2 */\n      0x02\n        /* \"Utils/ReentrancyGuard.sol\":2509:2516  _status */\n      0x00\n        /* \"Utils/ReentrancyGuard.sol\":2509:2527  _status = _ENTERED */\n      dup2\n      swap1\n      sstore\n      pop\n        /* \"Ethereum/Presale.sol\":2889:3068  TransferHelper.safeTransferFrom(\r... */\n      tag_32\n        /* \"Ethereum/Presale.sol\":2947:2959  PRESALE_INFO */\n      0x01\n        /* \"Ethereum/Presale.sol\":2947:2967  PRESALE_INFO.B_TOKEN */\n      0x00\n      add\n      0x00\n      swap1\n      sload\n      swap1\n      0x0100\n      exp\n      swap1\n      div\n      0xffffffffffffffffffffffffffffffffffffffff\n      and\n        /* \"Ethereum/Presale.sol\":2987:2997  msg.sender */\n      caller\n        /* \"Ethereum/Presale.sol\":3024:3028  this */\n      address\n        /* \"Ethereum/Presale.sol\":3048:3053  value */\n      dup5\n        /* \"Ethereum/Presale.sol\":2889:2920  TransferHelper.safeTransferFrom */\n      tag_33\n        /* \"Ethereum/Presale.sol\":2889:3068  TransferHelper.safeTransferFrom(\r... */\n      jump\t// in\n    tag_32:\n        /* \"Utils/ReentrancyGuard.sol\":1734:1735  1 */\n      0x01\n        /* \"Utils/ReentrancyGuard.sol\":2688:2695  _status */\n      0x00\n        /* \"Utils/ReentrancyGuard.sol\":2688:2710  _status = _NOT_ENTERED */\n      dup2\n      swap1\n      sstore\n      pop\n        /* \"Ethereum/Presale.sol\":2800:3076  function depodit(\r... */\n      pop\n      jump\t// out\n        /* \"Ethereum/Presale.sol\":3206:3314  function backToken() external payable {\r... */\n    tag_14:\n        /* \"Ethereum/Presale.sol\":3263:3273  msg.sender */\n      caller\n        /* \"Ethereum/Presale.sol\":3255:3283  payable(msg.sender).transfer */\n      0xffffffffffffffffffffffffffffffffffffffff\n      and\n        /* \"Ethereum/Presale.sol\":3255:3306  payable(msg.sender).transfer(address(this).balance) */\n      0x08fc\n        /* \"Ethereum/Presale.sol\":3284:3305  address(this).balance */\n      selfbalance\n        /* \"Ethereum/Presale.sol\":3255:3306  payable(msg.sender).transfer(address(this).balance) */\n      swap1\n      dup2\n      iszero\n      mul\n      swap1\n      mload(0x40)\n      0x00\n      mload(0x40)\n      dup1\n      dup4\n      sub\n      dup2\n      dup6\n      dup9\n      dup9\n      call\n      swap4\n      pop\n      pop\n      pop\n      pop\n      iszero\n      dup1\n      iszero\n      tag_36\n      jumpi\n      returndatasize\n      0x00\n      dup1\n      returndatacopy\n      revert(0x00, returndatasize)\n    tag_36:\n      pop\n        /* \"Ethereum/Presale.sol\":3206:3314  function backToken() external payable {\r... */\n      jump\t// out\n        /* \"Ethereum/Presale.sol\":3084:3195  function getBalance(address _address) external view returns(uint256) {\r... */\n    tag_19:\n        /* \"Ethereum/Presale.sol\":3144:3151  uint256 */\n      0x00\n        /* \"Ethereum/Presale.sol\":3171:3179  _address */\n      dup2\n        /* \"Ethereum/Presale.sol\":3171:3187  _address.balance */\n      0xffffffffffffffffffffffffffffffffffffffff\n      and\n      balance\n        /* \"Ethereum/Presale.sol\":3164:3187  return _address.balance */\n      swap1\n      pop\n        /* \"Ethereum/Presale.sol\":3084:3195  function getBalance(address _address) external view returns(uint256) {\r... */\n      swap2\n      swap1\n      pop\n      jump\t// out\n        /* \"Utils/TransferHelper.sol\":1112:1542  function safeTransferFrom(\r... */\n    tag_33:\n        /* \"Utils/TransferHelper.sol\":1258:1270  bool success */\n      0x00\n        /* \"Utils/TransferHelper.sol\":1272:1289  bytes memory data */\n      dup1\n        /* \"Utils/TransferHelper.sol\":1293:1298  token */\n      dup6\n        /* \"Utils/TransferHelper.sol\":1293:1303  token.call */\n      0xffffffffffffffffffffffffffffffffffffffff\n      and\n        /* \"Utils/TransferHelper.sol\":1341:1351  0x23b872dd */\n      0x23b872dd\n        /* \"Utils/TransferHelper.sol\":1353:1357  from */\n      dup7\n        /* \"Utils/TransferHelper.sol\":1359:1361  to */\n      dup7\n        /* \"Utils/TransferHelper.sol\":1363:1368  value */\n      dup7\n        /* \"Utils/TransferHelper.sol\":1318:1369  abi.encodeWithSelector(0x23b872dd, from, to, value) */\n      add(0x24, mload(0x40))\n      tag_39\n      swap4\n      swap3\n      swap2\n      swap1\n      tag_40\n      jump\t// in\n    tag_39:\n      mload(0x40)\n      0x20\n      dup2\n      dup4\n      sub\n      sub\n      dup2\n      mstore\n      swap1\n      0x40\n      mstore\n      swap1\n      0xe0\n      shl\n      0x20\n      dup3\n      add\n      dup1\n      mload\n      0xffffffffffffffffffffffffffffffffffffffffffffffffffffffff\n      dup4\n      dup2\n      dup4\n      and\n      or\n      dup4\n      mstore\n      pop\n      pop\n      pop\n      pop\n        /* \"Utils/TransferHelper.sol\":1293:1380  token.call(\r... */\n      mload(0x40)\n      tag_41\n      swap2\n      swap1\n      tag_42\n      jump\t// in\n    tag_41:\n      0x00\n      mload(0x40)\n      dup1\n      dup4\n      sub\n      dup2\n      0x00\n      dup7\n      gas\n      call\n      swap2\n      pop\n      pop\n      returndatasize\n      dup1\n      0x00\n      dup2\n      eq\n      tag_45\n      jumpi\n      mload(0x40)\n      swap2\n      pop\n      and(add(returndatasize, 0x3f), not(0x1f))\n      dup3\n      add\n      0x40\n      mstore\n      returndatasize\n      dup3\n      mstore\n      returndatasize\n      0x00\n      0x20\n      dup5\n      add\n      returndatacopy\n      jump(tag_44)\n    tag_45:\n      0x60\n      swap2\n      pop\n    tag_44:\n      pop\n        /* \"Utils/TransferHelper.sol\":1257:1380  (bool success, bytes memory data) = token.call(\r... */\n      swap2\n      pop\n      swap2\n      pop\n        /* \"Utils/TransferHelper.sol\":1413:1420  success */\n      dup2\n        /* \"Utils/TransferHelper.sol\":1413:1470  success && (data.length == 0 || abi.decode(data, (bool))) */\n      dup1\n      iszero\n      tag_46\n      jumpi\n      pop\n        /* \"Utils/TransferHelper.sol\":1440:1441  0 */\n      0x00\n        /* \"Utils/TransferHelper.sol\":1425:1429  data */\n      dup2\n        /* \"Utils/TransferHelper.sol\":1425:1436  data.length */\n      mload\n        /* \"Utils/TransferHelper.sol\":1425:1441  data.length == 0 */\n      eq\n        /* \"Utils/TransferHelper.sol\":1425:1469  data.length == 0 || abi.decode(data, (bool)) */\n      dup1\n      tag_47\n      jumpi\n      pop\n        /* \"Utils/TransferHelper.sol\":1456:1460  data */\n      dup1\n        /* \"Utils/TransferHelper.sol\":1445:1469  abi.decode(data, (bool)) */\n      dup1\n      0x20\n      add\n      swap1\n      mload\n      dup2\n      add\n      swap1\n      tag_48\n      swap2\n      swap1\n      tag_49\n      jump\t// in\n    tag_48:\n        /* \"Utils/TransferHelper.sol\":1425:1469  data.length == 0 || abi.decode(data, (bool)) */\n    tag_47:\n        /* \"Utils/TransferHelper.sol\":1413:1470  success && (data.length == 0 || abi.decode(data, (bool))) */\n    tag_46:\n        /* \"Utils/TransferHelper.sol\":1391:1534  require(\r... */\n      tag_50\n      jumpi\n      mload(0x40)\n      0x08c379a000000000000000000000000000000000000000000000000000000000\n      dup2\n      mstore\n      0x04\n      add\n      tag_51\n      swap1\n      tag_52\n      jump\t// in\n    tag_51:\n      mload(0x40)\n      dup1\n      swap2\n      sub\n      swap1\n      revert\n    tag_50:\n        /* \"Utils/TransferHelper.sol\":1112:1542  function safeTransferFrom(\r... */\n      pop\n      pop\n      pop\n      pop\n      pop\n      pop\n      jump\t// out\n        /* \"#utility.yul\":7:146   */\n    tag_54:\n        /* \"#utility.yul\":53:58   */\n      0x00\n        /* \"#utility.yul\":91:97   */\n      dup2\n        /* \"#utility.yul\":78:98   */\n      calldataload\n        /* \"#utility.yul\":69:98   */\n      swap1\n      pop\n        /* \"#utility.yul\":107:140   */\n      tag_56\n        /* \"#utility.yul\":134:139   */\n      dup2\n        /* \"#utility.yul\":107:140   */\n      tag_57\n      jump\t// in\n    tag_56:\n        /* \"#utility.yul\":59:146   */\n      swap3\n      swap2\n      pop\n      pop\n      jump\t// out\n        /* \"#utility.yul\":152:289   */\n    tag_58:\n        /* \"#utility.yul\":206:211   */\n      0x00\n        /* \"#utility.yul\":237:243   */\n      dup2\n        /* \"#utility.yul\":231:244   */\n      mload\n        /* \"#utility.yul\":222:244   */\n      swap1\n      pop\n        /* \"#utility.yul\":253:283   */\n      tag_60\n        /* \"#utility.yul\":277:282   */\n      dup2\n        /* \"#utility.yul\":253:283   */\n      tag_61\n      jump\t// in\n    tag_60:\n        /* \"#utility.yul\":212:289   */\n      swap3\n      swap2\n      pop\n      pop\n      jump\t// out\n        /* \"#utility.yul\":295:434   */\n    tag_62:\n        /* \"#utility.yul\":341:346   */\n      0x00\n        /* \"#utility.yul\":379:385   */\n      dup2\n        /* \"#utility.yul\":366:386   */\n      calldataload\n        /* \"#utility.yul\":357:386   */\n      swap1\n      pop\n        /* \"#utility.yul\":395:428   */\n      tag_64\n        /* \"#utility.yul\":422:427   */\n      dup2\n        /* \"#utility.yul\":395:428   */\n      tag_65\n      jump\t// in\n    tag_64:\n        /* \"#utility.yul\":347:434   */\n      swap3\n      swap2\n      pop\n      pop\n      jump\t// out\n        /* \"#utility.yul\":440:702   */\n    tag_18:\n        /* \"#utility.yul\":499:505   */\n      0x00\n        /* \"#utility.yul\":548:550   */\n      0x20\n        /* \"#utility.yul\":536:545   */\n      dup3\n        /* \"#utility.yul\":527:534   */\n      dup5\n        /* \"#utility.yul\":523:546   */\n      sub\n        /* \"#utility.yul\":519:551   */\n      slt\n        /* \"#utility.yul\":516:518   */\n      iszero\n      tag_67\n      jumpi\n        /* \"#utility.yul\":564:565   */\n      0x00\n        /* \"#utility.yul\":561:562   */\n      dup1\n        /* \"#utility.yul\":554:566   */\n      revert\n        /* \"#utility.yul\":516:518   */\n    tag_67:\n        /* \"#utility.yul\":607:608   */\n      0x00\n        /* \"#utility.yul\":632:685   */\n      tag_68\n        /* \"#utility.yul\":677:684   */\n      dup5\n        /* \"#utility.yul\":668:674   */\n      dup3\n        /* \"#utility.yul\":657:666   */\n      dup6\n        /* \"#utility.yul\":653:675   */\n      add\n        /* \"#utility.yul\":632:685   */\n      tag_54\n      jump\t// in\n    tag_68:\n        /* \"#utility.yul\":622:685   */\n      swap2\n      pop\n        /* \"#utility.yul\":578:695   */\n      pop\n        /* \"#utility.yul\":506:702   */\n      swap3\n      swap2\n      pop\n      pop\n      jump\t// out\n        /* \"#utility.yul\":708:986   */\n    tag_49:\n        /* \"#utility.yul\":775:781   */\n      0x00\n        /* \"#utility.yul\":824:826   */\n      0x20\n        /* \"#utility.yul\":812:821   */\n      dup3\n        /* \"#utility.yul\":803:810   */\n      dup5\n        /* \"#utility.yul\":799:822   */\n      sub\n        /* \"#utility.yul\":795:827   */\n      slt\n        /* \"#utility.yul\":792:794   */\n      iszero\n      tag_70\n      jumpi\n        /* \"#utility.yul\":840:841   */\n      0x00\n        /* \"#utility.yul\":837:838   */\n      dup1\n        /* \"#utility.yul\":830:842   */\n      revert\n        /* \"#utility.yul\":792:794   */\n    tag_70:\n        /* \"#utility.yul\":883:884   */\n      0x00\n        /* \"#utility.yul\":908:969   */\n      tag_71\n        /* \"#utility.yul\":961:968   */\n      dup5\n        /* \"#utility.yul\":952:958   */\n      dup3\n        /* \"#utility.yul\":941:950   */\n      dup6\n        /* \"#utility.yul\":937:959   */\n      add\n        /* \"#utility.yul\":908:969   */\n      tag_58\n      jump\t// in\n    tag_71:\n        /* \"#utility.yul\":898:969   */\n      swap2\n      pop\n        /* \"#utility.yul\":854:979   */\n      pop\n        /* \"#utility.yul\":782:986   */\n      swap3\n      swap2\n      pop\n      pop\n      jump\t// out\n        /* \"#utility.yul\":992:1254   */\n    tag_8:\n        /* \"#utility.yul\":1051:1057   */\n      0x00\n        /* \"#utility.yul\":1100:1102   */\n      0x20\n        /* \"#utility.yul\":1088:1097   */\n      dup3\n        /* \"#utility.yul\":1079:1086   */\n      dup5\n        /* \"#utility.yul\":1075:1098   */\n      sub\n        /* \"#utility.yul\":1071:1103   */\n      slt\n        /* \"#utility.yul\":1068:1070   */\n      iszero\n      tag_73\n      jumpi\n        /* \"#utility.yul\":1116:1117   */\n      0x00\n        /* \"#utility.yul\":1113:1114   */\n      dup1\n        /* \"#utility.yul\":1106:1118   */\n      revert\n        /* \"#utility.yul\":1068:1070   */\n    tag_73:\n        /* \"#utility.yul\":1159:1160   */\n      0x00\n        /* \"#utility.yul\":1184:1237   */\n      tag_74\n        /* \"#utility.yul\":1229:1236   */\n      dup5\n        /* \"#utility.yul\":1220:1226   */\n      dup3\n        /* \"#utility.yul\":1209:1218   */\n      dup6\n        /* \"#utility.yul\":1205:1227   */\n      add\n        /* \"#utility.yul\":1184:1237   */\n      tag_62\n      jump\t// in\n    tag_74:\n        /* \"#utility.yul\":1174:1237   */\n      swap2\n      pop\n        /* \"#utility.yul\":1130:1247   */\n      pop\n        /* \"#utility.yul\":1058:1254   */\n      swap3\n      swap2\n      pop\n      pop\n      jump\t// out\n        /* \"#utility.yul\":1260:1378   */\n    tag_75:\n        /* \"#utility.yul\":1347:1371   */\n      tag_77\n        /* \"#utility.yul\":1365:1370   */\n      dup2\n        /* \"#utility.yul\":1347:1371   */\n      tag_78\n      jump\t// in\n    tag_77:\n        /* \"#utility.yul\":1342:1345   */\n      dup3\n        /* \"#utility.yul\":1335:1372   */\n      mstore\n        /* \"#utility.yul\":1325:1378   */\n      pop\n      pop\n      jump\t// out\n        /* \"#utility.yul\":1384:1757   */\n    tag_79:\n        /* \"#utility.yul\":1488:1491   */\n      0x00\n        /* \"#utility.yul\":1516:1554   */\n      tag_81\n        /* \"#utility.yul\":1548:1553   */\n      dup3\n        /* \"#utility.yul\":1516:1554   */\n      tag_82\n      jump\t// in\n    tag_81:\n        /* \"#utility.yul\":1570:1658   */\n      tag_83\n        /* \"#utility.yul\":1651:1657   */\n      dup2\n        /* \"#utility.yul\":1646:1649   */\n      dup6\n        /* \"#utility.yul\":1570:1658   */\n      tag_84\n      jump\t// in\n    tag_83:\n        /* \"#utility.yul\":1563:1658   */\n      swap4\n      pop\n        /* \"#utility.yul\":1667:1719   */\n      tag_85\n        /* \"#utility.yul\":1712:1718   */\n      dup2\n        /* \"#utility.yul\":1707:1710   */\n      dup6\n        /* \"#utility.yul\":1700:1704   */\n      0x20\n        /* \"#utility.yul\":1693:1698   */\n      dup7\n        /* \"#utility.yul\":1689:1705   */\n      add\n        /* \"#utility.yul\":1667:1719   */\n      tag_86\n      jump\t// in\n    tag_85:\n        /* \"#utility.yul\":1744:1750   */\n      dup1\n        /* \"#utility.yul\":1739:1742   */\n      dup5\n        /* \"#utility.yul\":1735:1751   */\n      add\n        /* \"#utility.yul\":1728:1751   */\n      swap2\n      pop\n        /* \"#utility.yul\":1492:1757   */\n      pop\n      swap3\n      swap2\n      pop\n      pop\n      jump\t// out\n        /* \"#utility.yul\":1763:2129   */\n    tag_87:\n        /* \"#utility.yul\":1905:1908   */\n      0x00\n        /* \"#utility.yul\":1926:1993   */\n      tag_89\n        /* \"#utility.yul\":1990:1992   */\n      0x24\n        /* \"#utility.yul\":1985:1988   */\n      dup4\n        /* \"#utility.yul\":1926:1993   */\n      tag_90\n      jump\t// in\n    tag_89:\n        /* \"#utility.yul\":1919:1993   */\n      swap2\n      pop\n        /* \"#utility.yul\":2002:2095   */\n      tag_91\n        /* \"#utility.yul\":2091:2094   */\n      dup3\n        /* \"#utility.yul\":2002:2095   */\n      tag_92\n      jump\t// in\n    tag_91:\n        /* \"#utility.yul\":2120:2122   */\n      0x40\n        /* \"#utility.yul\":2115:2118   */\n      dup3\n        /* \"#utility.yul\":2111:2123   */\n      add\n        /* \"#utility.yul\":2104:2123   */\n      swap1\n      pop\n        /* \"#utility.yul\":1909:2129   */\n      swap2\n      swap1\n      pop\n      jump\t// out\n        /* \"#utility.yul\":2135:2501   */\n    tag_93:\n        /* \"#utility.yul\":2277:2280   */\n      0x00\n        /* \"#utility.yul\":2298:2365   */\n      tag_95\n        /* \"#utility.yul\":2362:2364   */\n      0x1f\n        /* \"#utility.yul\":2357:2360   */\n      dup4\n        /* \"#utility.yul\":2298:2365   */\n      tag_90\n      jump\t// in\n    tag_95:\n        /* \"#utility.yul\":2291:2365   */\n      swap2\n      pop\n        /* \"#utility.yul\":2374:2467   */\n      tag_96\n        /* \"#utility.yul\":2463:2466   */\n      dup3\n        /* \"#utility.yul\":2374:2467   */\n      tag_97\n      jump\t// in\n    tag_96:\n        /* \"#utility.yul\":2492:2494   */\n      0x20\n        /* \"#utility.yul\":2487:2490   */\n      dup3\n        /* \"#utility.yul\":2483:2495   */\n      add\n        /* \"#utility.yul\":2476:2495   */\n      swap1\n      pop\n        /* \"#utility.yul\":2281:2501   */\n      swap2\n      swap1\n      pop\n      jump\t// out\n        /* \"#utility.yul\":2507:2625   */\n    tag_98:\n        /* \"#utility.yul\":2594:2618   */\n      tag_100\n        /* \"#utility.yul\":2612:2617   */\n      dup2\n        /* \"#utility.yul\":2594:2618   */\n      tag_101\n      jump\t// in\n    tag_100:\n        /* \"#utility.yul\":2589:2592   */\n      dup3\n        /* \"#utility.yul\":2582:2619   */\n      mstore\n        /* \"#utility.yul\":2572:2625   */\n      pop\n      pop\n      jump\t// out\n        /* \"#utility.yul\":2631:2902   */\n    tag_42:\n        /* \"#utility.yul\":2761:2764   */\n      0x00\n        /* \"#utility.yul\":2783:2876   */\n      tag_103\n        /* \"#utility.yul\":2872:2875   */\n      dup3\n        /* \"#utility.yul\":2863:2869   */\n      dup5\n        /* \"#utility.yul\":2783:2876   */\n      tag_79\n      jump\t// in\n    tag_103:\n        /* \"#utility.yul\":2776:2876   */\n      swap2\n      pop\n        /* \"#utility.yul\":2893:2896   */\n      dup2\n        /* \"#utility.yul\":2886:2896   */\n      swap1\n      pop\n        /* \"#utility.yul\":2765:2902   */\n      swap3\n      swap2\n      pop\n      pop\n      jump\t// out\n        /* \"#utility.yul\":2908:3350   */\n    tag_40:\n        /* \"#utility.yul\":3057:3061   */\n      0x00\n        /* \"#utility.yul\":3095:3097   */\n      0x60\n        /* \"#utility.yul\":3084:3093   */\n      dup3\n        /* \"#utility.yul\":3080:3098   */\n      add\n        /* \"#utility.yul\":3072:3098   */\n      swap1\n      pop\n        /* \"#utility.yul\":3108:3179   */\n      tag_105\n        /* \"#utility.yul\":3176:3177   */\n      0x00\n        /* \"#utility.yul\":3165:3174   */\n      dup4\n        /* \"#utility.yul\":3161:3178   */\n      add\n        /* \"#utility.yul\":3152:3158   */\n      dup7\n        /* \"#utility.yul\":3108:3179   */\n      tag_75\n      jump\t// in\n    tag_105:\n        /* \"#utility.yul\":3189:3261   */\n      tag_106\n        /* \"#utility.yul\":3257:3259   */\n      0x20\n        /* \"#utility.yul\":3246:3255   */\n      dup4\n        /* \"#utility.yul\":3242:3260   */\n      add\n        /* \"#utility.yul\":3233:3239   */\n      dup6\n        /* \"#utility.yul\":3189:3261   */\n      tag_75\n      jump\t// in\n    tag_106:\n        /* \"#utility.yul\":3271:3343   */\n      tag_107\n        /* \"#utility.yul\":3339:3341   */\n      0x40\n        /* \"#utility.yul\":3328:3337   */\n      dup4\n        /* \"#utility.yul\":3324:3342   */\n      add\n        /* \"#utility.yul\":3315:3321   */\n      dup5\n        /* \"#utility.yul\":3271:3343   */\n      tag_98\n      jump\t// in\n    tag_107:\n        /* \"#utility.yul\":3062:3350   */\n      swap5\n      swap4\n      pop\n      pop\n      pop\n      pop\n      jump\t// out\n        /* \"#utility.yul\":3356:3775   */\n    tag_52:\n        /* \"#utility.yul\":3522:3526   */\n      0x00\n        /* \"#utility.yul\":3560:3562   */\n      0x20\n        /* \"#utility.yul\":3549:3558   */\n      dup3\n        /* \"#utility.yul\":3545:3563   */\n      add\n        /* \"#utility.yul\":3537:3563   */\n      swap1\n      pop\n        /* \"#utility.yul\":3609:3618   */\n      dup2\n        /* \"#utility.yul\":3603:3607   */\n      dup2\n        /* \"#utility.yul\":3599:3619   */\n      sub\n        /* \"#utility.yul\":3595:3596   */\n      0x00\n        /* \"#utility.yul\":3584:3593   */\n      dup4\n        /* \"#utility.yul\":3580:3597   */\n      add\n        /* \"#utility.yul\":3573:3620   */\n      mstore\n        /* \"#utility.yul\":3637:3768   */\n      tag_109\n        /* \"#utility.yul\":3763:3767   */\n      dup2\n        /* \"#utility.yul\":3637:3768   */\n      tag_87\n      jump\t// in\n    tag_109:\n        /* \"#utility.yul\":3629:3768   */\n      swap1\n      pop\n        /* \"#utility.yul\":3527:3775   */\n      swap2\n      swap1\n      pop\n      jump\t// out\n        /* \"#utility.yul\":3781:4200   */\n    tag_30:\n        /* \"#utility.yul\":3947:3951   */\n      0x00\n        /* \"#utility.yul\":3985:3987   */\n      0x20\n        /* \"#utility.yul\":3974:3983   */\n      dup3\n        /* \"#utility.yul\":3970:3988   */\n      add\n        /* \"#utility.yul\":3962:3988   */\n      swap1\n      pop\n        /* \"#utility.yul\":4034:4043   */\n      dup2\n        /* \"#utility.yul\":4028:4032   */\n      dup2\n        /* \"#utility.yul\":4024:4044   */\n      sub\n        /* \"#utility.yul\":4020:4021   */\n      0x00\n        /* \"#utility.yul\":4009:4018   */\n      dup4\n        /* \"#utility.yul\":4005:4022   */\n      add\n        /* \"#utility.yul\":3998:4045   */\n      mstore\n        /* \"#utility.yul\":4062:4193   */\n      tag_111\n        /* \"#utility.yul\":4188:4192   */\n      dup2\n        /* \"#utility.yul\":4062:4193   */\n      tag_93\n      jump\t// in\n    tag_111:\n        /* \"#utility.yul\":4054:4193   */\n      swap1\n      pop\n        /* \"#utility.yul\":3952:4200   */\n      swap2\n      swap1\n      pop\n      jump\t// out\n        /* \"#utility.yul\":4206:4428   */\n    tag_21:\n        /* \"#utility.yul\":4299:4303   */\n      0x00\n        /* \"#utility.yul\":4337:4339   */\n      0x20\n        /* \"#utility.yul\":4326:4335   */\n      dup3\n        /* \"#utility.yul\":4322:4340   */\n      add\n        /* \"#utility.yul\":4314:4340   */\n      swap1\n      pop\n        /* \"#utility.yul\":4350:4421   */\n      tag_113\n        /* \"#utility.yul\":4418:4419   */\n      0x00\n        /* \"#utility.yul\":4407:4416   */\n      dup4\n        /* \"#utility.yul\":4403:4420   */\n      add\n        /* \"#utility.yul\":4394:4400   */\n      dup5\n        /* \"#utility.yul\":4350:4421   */\n      tag_98\n      jump\t// in\n    tag_113:\n        /* \"#utility.yul\":4304:4428   */\n      swap3\n      swap2\n      pop\n      pop\n      jump\t// out\n        /* \"#utility.yul\":4434:4532   */\n    tag_82:\n        /* \"#utility.yul\":4485:4491   */\n      0x00\n        /* \"#utility.yul\":4519:4524   */\n      dup2\n        /* \"#utility.yul\":4513:4525   */\n      mload\n        /* \"#utility.yul\":4503:4525   */\n      swap1\n      pop\n        /* \"#utility.yul\":4492:4532   */\n      swap2\n      swap1\n      pop\n      jump\t// out\n        /* \"#utility.yul\":4538:4685   */\n    tag_84:\n        /* \"#utility.yul\":4639:4650   */\n      0x00\n        /* \"#utility.yul\":4676:4679   */\n      dup2\n        /* \"#utility.yul\":4661:4679   */\n      swap1\n      pop\n        /* \"#utility.yul\":4651:4685   */\n      swap3\n      swap2\n      pop\n      pop\n      jump\t// out\n        /* \"#utility.yul\":4691:4860   */\n    tag_90:\n        /* \"#utility.yul\":4775:4786   */\n      0x00\n        /* \"#utility.yul\":4809:4815   */\n      dup3\n        /* \"#utility.yul\":4804:4807   */\n      dup3\n        /* \"#utility.yul\":4797:4816   */\n      mstore\n        /* \"#utility.yul\":4849:4853   */\n      0x20\n        /* \"#utility.yul\":4844:4847   */\n      dup3\n        /* \"#utility.yul\":4840:4854   */\n      add\n        /* \"#utility.yul\":4825:4854   */\n      swap1\n      pop\n        /* \"#utility.yul\":4787:4860   */\n      swap3\n      swap2\n      pop\n      pop\n      jump\t// out\n        /* \"#utility.yul\":4866:5057   */\n    tag_24:\n        /* \"#utility.yul\":4906:4910   */\n      0x00\n        /* \"#utility.yul\":4926:4946   */\n      tag_118\n        /* \"#utility.yul\":4944:4945   */\n      dup3\n        /* \"#utility.yul\":4926:4946   */\n      tag_101\n      jump\t// in\n    tag_118:\n        /* \"#utility.yul\":4921:4946   */\n      swap2\n      pop\n        /* \"#utility.yul\":4960:4980   */\n      tag_119\n        /* \"#utility.yul\":4978:4979   */\n      dup4\n        /* \"#utility.yul\":4960:4980   */\n      tag_101\n      jump\t// in\n    tag_119:\n        /* \"#utility.yul\":4955:4980   */\n      swap3\n      pop\n        /* \"#utility.yul\":4999:5000   */\n      dup3\n        /* \"#utility.yul\":4996:4997   */\n      dup3\n        /* \"#utility.yul\":4993:5001   */\n      lt\n        /* \"#utility.yul\":4990:4992   */\n      iszero\n      tag_120\n      jumpi\n        /* \"#utility.yul\":5004:5022   */\n      tag_121\n      tag_122\n      jump\t// in\n    tag_121:\n        /* \"#utility.yul\":4990:4992   */\n    tag_120:\n        /* \"#utility.yul\":5049:5050   */\n      dup3\n        /* \"#utility.yul\":5046:5047   */\n      dup3\n        /* \"#utility.yul\":5042:5051   */\n      sub\n        /* \"#utility.yul\":5034:5051   */\n      swap1\n      pop\n        /* \"#utility.yul\":4911:5057   */\n      swap3\n      swap2\n      pop\n      pop\n      jump\t// out\n        /* \"#utility.yul\":5063:5159   */\n    tag_78:\n        /* \"#utility.yul\":5100:5107   */\n      0x00\n        /* \"#utility.yul\":5129:5153   */\n      tag_124\n        /* \"#utility.yul\":5147:5152   */\n      dup3\n        /* \"#utility.yul\":5129:5153   */\n      tag_125\n      jump\t// in\n    tag_124:\n        /* \"#utility.yul\":5118:5153   */\n      swap1\n      pop\n        /* \"#utility.yul\":5108:5159   */\n      swap2\n      swap1\n      pop\n      jump\t// out\n        /* \"#utility.yul\":5165:5255   */\n    tag_126:\n        /* \"#utility.yul\":5199:5206   */\n      0x00\n        /* \"#utility.yul\":5242:5247   */\n      dup2\n        /* \"#utility.yul\":5235:5248   */\n      iszero\n        /* \"#utility.yul\":5228:5249   */\n      iszero\n        /* \"#utility.yul\":5217:5249   */\n      swap1\n      pop\n        /* \"#utility.yul\":5207:5255   */\n      swap2\n      swap1\n      pop\n      jump\t// out\n        /* \"#utility.yul\":5261:5387   */\n    tag_125:\n        /* \"#utility.yul\":5298:5305   */\n      0x00\n        /* \"#utility.yul\":5338:5380   */\n      0xffffffffffffffffffffffffffffffffffffffff\n        /* \"#utility.yul\":5331:5336   */\n      dup3\n        /* \"#utility.yul\":5327:5381   */\n      and\n        /* \"#utility.yul\":5316:5381   */\n      swap1\n      pop\n        /* \"#utility.yul\":5306:5387   */\n      swap2\n      swap1\n      pop\n      jump\t// out\n        /* \"#utility.yul\":5393:5470   */\n    tag_101:\n        /* \"#utility.yul\":5430:5437   */\n      0x00\n        /* \"#utility.yul\":5459:5464   */\n      dup2\n        /* \"#utility.yul\":5448:5464   */\n      swap1\n      pop\n        /* \"#utility.yul\":5438:5470   */\n      swap2\n      swap1\n      pop\n      jump\t// out\n        /* \"#utility.yul\":5476:5783   */\n    tag_86:\n        /* \"#utility.yul\":5544:5545   */\n      0x00\n        /* \"#utility.yul\":5554:5667   */\n    tag_131:\n        /* \"#utility.yul\":5568:5574   */\n      dup4\n        /* \"#utility.yul\":5565:5566   */\n      dup2\n        /* \"#utility.yul\":5562:5575   */\n      lt\n        /* \"#utility.yul\":5554:5667   */\n      iszero\n      tag_133\n      jumpi\n        /* \"#utility.yul\":5653:5654   */\n      dup1\n        /* \"#utility.yul\":5648:5651   */\n      dup3\n        /* \"#utility.yul\":5644:5655   */\n      add\n        /* \"#utility.yul\":5638:5656   */\n      mload\n        /* \"#utility.yul\":5634:5635   */\n      dup2\n        /* \"#utility.yul\":5629:5632   */\n      dup5\n        /* \"#utility.yul\":5625:5636   */\n      add\n        /* \"#utility.yul\":5618:5657   */\n      mstore\n        /* \"#utility.yul\":5590:5592   */\n      0x20\n        /* \"#utility.yul\":5587:5588   */\n      dup2\n        /* \"#utility.yul\":5583:5593   */\n      add\n        /* \"#utility.yul\":5578:5593   */\n      swap1\n      pop\n        /* \"#utility.yul\":5554:5667   */\n      jump(tag_131)\n    tag_133:\n        /* \"#utility.yul\":5685:5691   */\n      dup4\n        /* \"#utility.yul\":5682:5683   */\n      dup2\n        /* \"#utility.yul\":5679:5692   */\n      gt\n        /* \"#utility.yul\":5676:5678   */\n      iszero\n      tag_134\n      jumpi\n        /* \"#utility.yul\":5765:5766   */\n      0x00\n        /* \"#utility.yul\":5756:5762   */\n      dup5\n        /* \"#utility.yul\":5751:5754   */\n      dup5\n        /* \"#utility.yul\":5747:5763   */\n      add\n        /* \"#utility.yul\":5740:5767   */\n      mstore\n        /* \"#utility.yul\":5676:5678   */\n    tag_134:\n        /* \"#utility.yul\":5525:5783   */\n      pop\n      pop\n      pop\n      pop\n      jump\t// out\n        /* \"#utility.yul\":5789:5969   */\n    tag_122:\n        /* \"#utility.yul\":5837:5914   */\n      0x4e487b7100000000000000000000000000000000000000000000000000000000\n        /* \"#utility.yul\":5834:5835   */\n      0x00\n        /* \"#utility.yul\":5827:5915   */\n      mstore\n        /* \"#utility.yul\":5934:5938   */\n      0x11\n        /* \"#utility.yul\":5931:5932   */\n      0x04\n        /* \"#utility.yul\":5924:5939   */\n      mstore\n        /* \"#utility.yul\":5958:5962   */\n      0x24\n        /* \"#utility.yul\":5955:5956   */\n      0x00\n        /* \"#utility.yul\":5948:5963   */\n      revert\n        /* \"#utility.yul\":5975:6198   */\n    tag_92:\n        /* \"#utility.yul\":6115:6149   */\n      0x5472616e7366657248656c7065723a205452414e534645525f46524f4d5f4641\n        /* \"#utility.yul\":6111:6112   */\n      0x00\n        /* \"#utility.yul\":6103:6109   */\n      dup3\n        /* \"#utility.yul\":6099:6113   */\n      add\n        /* \"#utility.yul\":6092:6150   */\n      mstore\n        /* \"#utility.yul\":6184:6190   */\n      0x494c454400000000000000000000000000000000000000000000000000000000\n        /* \"#utility.yul\":6179:6181   */\n      0x20\n        /* \"#utility.yul\":6171:6177   */\n      dup3\n        /* \"#utility.yul\":6167:6182   */\n      add\n        /* \"#utility.yul\":6160:6191   */\n      mstore\n        /* \"#utility.yul\":6081:6198   */\n      pop\n      jump\t// out\n        /* \"#utility.yul\":6204:6385   */\n    tag_97:\n        /* \"#utility.yul\":6344:6377   */\n      0x5265656e7472616e637947756172643a207265656e7472616e742063616c6c00\n        /* \"#utility.yul\":6340:6341   */\n      0x00\n        /* \"#utility.yul\":6332:6338   */\n      dup3\n        /* \"#utility.yul\":6328:6342   */\n      add\n        /* \"#utility.yul\":6321:6378   */\n      mstore\n        /* \"#utility.yul\":6310:6385   */\n      pop\n      jump\t// out\n        /* \"#utility.yul\":6391:6513   */\n    tag_57:\n        /* \"#utility.yul\":6464:6488   */\n      tag_139\n        /* \"#utility.yul\":6482:6487   */\n      dup2\n        /* \"#utility.yul\":6464:6488   */\n      tag_78\n      jump\t// in\n    tag_139:\n        /* \"#utility.yul\":6457:6462   */\n      dup2\n        /* \"#utility.yul\":6454:6489   */\n      eq\n        /* \"#utility.yul\":6444:6446   */\n      tag_140\n      jumpi\n        /* \"#utility.yul\":6503:6504   */\n      0x00\n        /* \"#utility.yul\":6500:6501   */\n      dup1\n        /* \"#utility.yul\":6493:6505   */\n      revert\n        /* \"#utility.yul\":6444:6446   */\n    tag_140:\n        /* \"#utility.yul\":6434:6513   */\n      pop\n      jump\t// out\n        /* \"#utility.yul\":6519:6635   */\n    tag_61:\n        /* \"#utility.yul\":6589:6610   */\n      tag_142\n        /* \"#utility.yul\":6604:6609   */\n      dup2\n        /* \"#utility.yul\":6589:6610   */\n      tag_126\n      jump\t// in\n    tag_142:\n        /* \"#utility.yul\":6582:6587   */\n      dup2\n        /* \"#utility.yul\":6579:6611   */\n      eq\n        /* \"#utility.yul\":6569:6571   */\n      tag_143\n      jumpi\n        /* \"#utility.yul\":6625:6626   */\n      0x00\n        /* \"#utility.yul\":6622:6623   */\n      dup1\n        /* \"#utility.yul\":6615:6627   */\n      revert\n        /* \"#utility.yul\":6569:6571   */\n    tag_143:\n        /* \"#utility.yul\":6559:6635   */\n      pop\n      jump\t// out\n        /* \"#utility.yul\":6641:6763   */\n    tag_65:\n        /* \"#utility.yul\":6714:6738   */\n      tag_145\n        /* \"#utility.yul\":6732:6737   */\n      dup2\n        /* \"#utility.yul\":6714:6738   */\n      tag_101\n      jump\t// in\n    tag_145:\n        /* \"#utility.yul\":6707:6712   */\n      dup2\n        /* \"#utility.yul\":6704:6739   */\n      eq\n        /* \"#utility.yul\":6694:6696   */\n      tag_146\n      jumpi\n        /* \"#utility.yul\":6753:6754   */\n      0x00\n        /* \"#utility.yul\":6750:6751   */\n      dup1\n        /* \"#utility.yul\":6743:6755   */\n      revert\n        /* \"#utility.yul\":6694:6696   */\n    tag_146:\n        /* \"#utility.yul\":6684:6763   */\n      pop\n      jump\t// out\n\n    auxdata: 0xa264697066735822122003bcecfaf3ea024673eff3f0b72a2d28a0a088bcec4f848c08b71cda96995d4364736f6c63430008040033\n}\n",
				"bytecode": {
					"linkReferences": {},
					"object": "608060405234801561001057600080fd5b50600160008190555073ae13d989dac2f0debff460ac112a837c89baa7cd600160000160006101000a81548173ffffffffffffffffffffffffffffffffffffffff021916908373ffffffffffffffffffffffffffffffffffffffff160217905550610735806100806000396000f3fe60806040526004361061003f5760003560e01c80634329db46146100445780637964783314610060578063861faf5f1461007c578063f8b2cb4f14610086575b600080fd5b61005e600480360381019061005991906103d6565b6100c3565b005b61007a600480360381019061007591906103d6565b610118565b005b6100846101a2565b005b34801561009257600080fd5b506100ad60048036038101906100a89190610384565b6101eb565b6040516100ba9190610522565b60405180910390f35b3373ffffffffffffffffffffffffffffffffffffffff166108fc82346100e99190610564565b9081150290604051600060405180830381858888f19350505050158015610114573d6000803e3d6000fd5b5050565b6002600054141561015e576040517f08c379a000000000000000000000000000000000000000000000000000000000815260040161015590610502565b60405180910390fd5b6002600081905550610197600160000160009054906101000a900473ffffffffffffffffffffffffffffffffffffffff1633308461020c565b600160008190555050565b3373ffffffffffffffffffffffffffffffffffffffff166108fc479081150290604051600060405180830381858888f193505050501580156101e8573d6000803e3d6000fd5b50565b60008173ffffffffffffffffffffffffffffffffffffffff16319050919050565b6000808573ffffffffffffffffffffffffffffffffffffffff166323b872dd868686604051602401610240939291906104ab565b6040516020818303038152906040529060e01b6020820180517bffffffffffffffffffffffffffffffffffffffffffffffffffffffff838183161783525050505060405161028e9190610494565b6000604051808303816000865af19150503d80600081146102cb576040519150601f19603f3d011682016040523d82523d6000602084013e6102d0565b606091505b50915091508180156102fe57506000815114806102fd5750808060200190518101906102fc91906103ad565b5b5b61033d576040517f08c379a0000000000000000000000000000000000000000000000000000000008152600401610334906104e2565b60405180910390fd5b505050505050565b600081359050610354816106ba565b92915050565b600081519050610369816106d1565b92915050565b60008135905061037e816106e8565b92915050565b60006020828403121561039657600080fd5b60006103a484828501610345565b91505092915050565b6000602082840312156103bf57600080fd5b60006103cd8482850161035a565b91505092915050565b6000602082840312156103e857600080fd5b60006103f68482850161036f565b91505092915050565b61040881610598565b82525050565b60006104198261053d565b6104238185610548565b93506104338185602086016105e0565b80840191505092915050565b600061044c602483610553565b915061045782610642565b604082019050919050565b600061046f601f83610553565b915061047a82610691565b602082019050919050565b61048e816105d6565b82525050565b60006104a0828461040e565b915081905092915050565b60006060820190506104c060008301866103ff565b6104cd60208301856103ff565b6104da6040830184610485565b949350505050565b600060208201905081810360008301526104fb8161043f565b9050919050565b6000602082019050818103600083015261051b81610462565b9050919050565b60006020820190506105376000830184610485565b92915050565b600081519050919050565b600081905092915050565b600082825260208201905092915050565b600061056f826105d6565b915061057a836105d6565b92508282101561058d5761058c610613565b5b828203905092915050565b60006105a3826105b6565b9050919050565b60008115159050919050565b600073ffffffffffffffffffffffffffffffffffffffff82169050919050565b6000819050919050565b60005b838110156105fe5780820151818401526020810190506105e3565b8381111561060d576000848401525b50505050565b7f4e487b7100000000000000000000000000000000000000000000000000000000600052601160045260246000fd5b7f5472616e7366657248656c7065723a205452414e534645525f46524f4d5f464160008201527f494c454400000000000000000000000000000000000000000000000000000000602082015250565b7f5265656e7472616e637947756172643a207265656e7472616e742063616c6c00600082015250565b6106c381610598565b81146106ce57600080fd5b50565b6106da816105aa565b81146106e557600080fd5b50565b6106f1816105d6565b81146106fc57600080fd5b5056fea264697066735822122003bcecfaf3ea024673eff3f0b72a2d28a0a088bcec4f848c08b71cda96995d4364736f6c63430008040033",
					"opcodes": "PUSH1 0x80 PUSH1 0x40 MSTORE CALLVALUE DUP1 ISZERO PUSH2 0x10 JUMPI PUSH1 0x0 DUP1 REVERT JUMPDEST POP PUSH1 0x1 PUSH1 0x0 DUP2 SWAP1 SSTORE POP PUSH20 0xAE13D989DAC2F0DEBFF460AC112A837C89BAA7CD PUSH1 0x1 PUSH1 0x0 ADD PUSH1 0x0 PUSH2 0x100 EXP DUP2 SLOAD DUP2 PUSH20 0xFFFFFFFFFFFFFFFFFFFFFFFFFFFFFFFFFFFFFFFF MUL NOT AND SWAP1 DUP4 PUSH20 0xFFFFFFFFFFFFFFFFFFFFFFFFFFFFFFFFFFFFFFFF AND MUL OR SWAP1 SSTORE POP PUSH2 0x735 DUP1 PUSH2 0x80 PUSH1 0x0 CODECOPY PUSH1 0x0 RETURN INVALID PUSH1 0x80 PUSH1 0x40 MSTORE PUSH1 0x4 CALLDATASIZE LT PUSH2 0x3F JUMPI PUSH1 0x0 CALLDATALOAD PUSH1 0xE0 SHR DUP1 PUSH4 0x4329DB46 EQ PUSH2 0x44 JUMPI DUP1 PUSH4 0x79647833 EQ PUSH2 0x60 JUMPI DUP1 PUSH4 0x861FAF5F EQ PUSH2 0x7C JUMPI DUP1 PUSH4 0xF8B2CB4F EQ PUSH2 0x86 JUMPI JUMPDEST PUSH1 0x0 DUP1 REVERT JUMPDEST PUSH2 0x5E PUSH1 0x4 DUP1 CALLDATASIZE SUB DUP2 ADD SWAP1 PUSH2 0x59 SWAP2 SWAP1 PUSH2 0x3D6 JUMP JUMPDEST PUSH2 0xC3 JUMP JUMPDEST STOP JUMPDEST PUSH2 0x7A PUSH1 0x4 DUP1 CALLDATASIZE SUB DUP2 ADD SWAP1 PUSH2 0x75 SWAP2 SWAP1 PUSH2 0x3D6 JUMP JUMPDEST PUSH2 0x118 JUMP JUMPDEST STOP JUMPDEST PUSH2 0x84 PUSH2 0x1A2 JUMP JUMPDEST STOP JUMPDEST CALLVALUE DUP1 ISZERO PUSH2 0x92 JUMPI PUSH1 0x0 DUP1 REVERT JUMPDEST POP PUSH2 0xAD PUSH1 0x4 DUP1 CALLDATASIZE SUB DUP2 ADD SWAP1 PUSH2 0xA8 SWAP2 SWAP1 PUSH2 0x384 JUMP JUMPDEST PUSH2 0x1EB JUMP JUMPDEST PUSH1 0x40 MLOAD PUSH2 0xBA SWAP2 SWAP1 PUSH2 0x522 JUMP JUMPDEST PUSH1 0x40 MLOAD DUP1 SWAP2 SUB SWAP1 RETURN JUMPDEST CALLER PUSH20 0xFFFFFFFFFFFFFFFFFFFFFFFFFFFFFFFFFFFFFFFF AND PUSH2 0x8FC DUP3 CALLVALUE PUSH2 0xE9 SWAP2 SWAP1 PUSH2 0x564 JUMP JUMPDEST SWAP1 DUP2 ISZERO MUL SWAP1 PUSH1 0x40 MLOAD PUSH1 0x0 PUSH1 0x40 MLOAD DUP1 DUP4 SUB DUP2 DUP6 DUP9 DUP9 CALL SWAP4 POP POP POP POP ISZERO DUP1 ISZERO PUSH2 0x114 JUMPI RETURNDATASIZE PUSH1 0x0 DUP1 RETURNDATACOPY RETURNDATASIZE PUSH1 0x0 REVERT JUMPDEST POP POP JUMP JUMPDEST PUSH1 0x2 PUSH1 0x0 SLOAD EQ ISZERO PUSH2 0x15E JUMPI PUSH1 0x40 MLOAD PUSH32 0x8C379A000000000000000000000000000000000000000000000000000000000 DUP2 MSTORE PUSH1 0x4 ADD PUSH2 0x155 SWAP1 PUSH2 0x502 JUMP JUMPDEST PUSH1 0x40 MLOAD DUP1 SWAP2 SUB SWAP1 REVERT JUMPDEST PUSH1 0x2 PUSH1 0x0 DUP2 SWAP1 SSTORE POP PUSH2 0x197 PUSH1 0x1 PUSH1 0x0 ADD PUSH1 0x0 SWAP1 SLOAD SWAP1 PUSH2 0x100 EXP SWAP1 DIV PUSH20 0xFFFFFFFFFFFFFFFFFFFFFFFFFFFFFFFFFFFFFFFF AND CALLER ADDRESS DUP5 PUSH2 0x20C JUMP JUMPDEST PUSH1 0x1 PUSH1 0x0 DUP2 SWAP1 SSTORE POP POP JUMP JUMPDEST CALLER PUSH20 0xFFFFFFFFFFFFFFFFFFFFFFFFFFFFFFFFFFFFFFFF AND PUSH2 0x8FC SELFBALANCE SWAP1 DUP2 ISZERO MUL SWAP1 PUSH1 0x40 MLOAD PUSH1 0x0 PUSH1 0x40 MLOAD DUP1 DUP4 SUB DUP2 DUP6 DUP9 DUP9 CALL SWAP4 POP POP POP POP ISZERO DUP1 ISZERO PUSH2 0x1E8 JUMPI RETURNDATASIZE PUSH1 0x0 DUP1 RETURNDATACOPY RETURNDATASIZE PUSH1 0x0 REVERT JUMPDEST POP JUMP JUMPDEST PUSH1 0x0 DUP2 PUSH20 0xFFFFFFFFFFFFFFFFFFFFFFFFFFFFFFFFFFFFFFFF AND BALANCE SWAP1 POP SWAP2 SWAP1 POP JUMP JUMPDEST PUSH1 0x0 DUP1 DUP6 PUSH20 0xFFFFFFFFFFFFFFFFFFFFFFFFFFFFFFFFFFFFFFFF AND PUSH4 0x23B872DD DUP7 DUP7 DUP7 PUSH1 0x40 MLOAD PUSH1 0x24 ADD PUSH2 0x240 SWAP4 SWAP3 SWAP2 SWAP1 PUSH2 0x4AB JUMP JUMPDEST PUSH1 0x40 MLOAD PUSH1 0x20 DUP2 DUP4 SUB SUB DUP2 MSTORE SWAP1 PUSH1 0x40 MSTORE SWAP1 PUSH1 0xE0 SHL PUSH1 0x20 DUP3 ADD DUP1 MLOAD PUSH28 0xFFFFFFFFFFFFFFFFFFFFFFFFFFFFFFFFFFFFFFFFFFFFFFFFFFFFFFFF DUP4 DUP2 DUP4 AND OR DUP4 MSTORE POP POP POP POP PUSH1 0x40 MLOAD PUSH2 0x28E SWAP2 SWAP1 PUSH2 0x494 JUMP JUMPDEST PUSH1 0x0 PUSH1 0x40 MLOAD DUP1 DUP4 SUB DUP2 PUSH1 0x0 DUP7 GAS CALL SWAP2 POP POP RETURNDATASIZE DUP1 PUSH1 0x0 DUP2 EQ PUSH2 0x2CB JUMPI PUSH1 0x40 MLOAD SWAP2 POP PUSH1 0x1F NOT PUSH1 0x3F RETURNDATASIZE ADD AND DUP3 ADD PUSH1 0x40 MSTORE RETURNDATASIZE DUP3 MSTORE RETURNDATASIZE PUSH1 0x0 PUSH1 0x20 DUP5 ADD RETURNDATACOPY PUSH2 0x2D0 JUMP JUMPDEST PUSH1 0x60 SWAP2 POP JUMPDEST POP SWAP2 POP SWAP2 POP DUP2 DUP1 ISZERO PUSH2 0x2FE JUMPI POP PUSH1 0x0 DUP2 MLOAD EQ DUP1 PUSH2 0x2FD JUMPI POP DUP1 DUP1 PUSH1 0x20 ADD SWAP1 MLOAD DUP2 ADD SWAP1 PUSH2 0x2FC SWAP2 SWAP1 PUSH2 0x3AD JUMP JUMPDEST JUMPDEST JUMPDEST PUSH2 0x33D JUMPI PUSH1 0x40 MLOAD PUSH32 0x8C379A000000000000000000000000000000000000000000000000000000000 DUP2 MSTORE PUSH1 0x4 ADD PUSH2 0x334 SWAP1 PUSH2 0x4E2 JUMP JUMPDEST PUSH1 0x40 MLOAD DUP1 SWAP2 SUB SWAP1 REVERT JUMPDEST POP POP POP POP POP POP JUMP JUMPDEST PUSH1 0x0 DUP2 CALLDATALOAD SWAP1 POP PUSH2 0x354 DUP2 PUSH2 0x6BA JUMP JUMPDEST SWAP3 SWAP2 POP POP JUMP JUMPDEST PUSH1 0x0 DUP2 MLOAD SWAP1 POP PUSH2 0x369 DUP2 PUSH2 0x6D1 JUMP JUMPDEST SWAP3 SWAP2 POP POP JUMP JUMPDEST PUSH1 0x0 DUP2 CALLDATALOAD SWAP1 POP PUSH2 0x37E DUP2 PUSH2 0x6E8 JUMP JUMPDEST SWAP3 SWAP2 POP POP JUMP JUMPDEST PUSH1 0x0 PUSH1 0x20 DUP3 DUP5 SUB SLT ISZERO PUSH2 0x396 JUMPI PUSH1 0x0 DUP1 REVERT JUMPDEST PUSH1 0x0 PUSH2 0x3A4 DUP5 DUP3 DUP6 ADD PUSH2 0x345 JUMP JUMPDEST SWAP2 POP POP SWAP3 SWAP2 POP POP JUMP JUMPDEST PUSH1 0x0 PUSH1 0x20 DUP3 DUP5 SUB SLT ISZERO PUSH2 0x3BF JUMPI PUSH1 0x0 DUP1 REVERT JUMPDEST PUSH1 0x0 PUSH2 0x3CD DUP5 DUP3 DUP6 ADD PUSH2 0x35A JUMP JUMPDEST SWAP2 POP POP SWAP3 SWAP2 POP POP JUMP JUMPDEST PUSH1 0x0 PUSH1 0x20 DUP3 DUP5 SUB SLT ISZERO PUSH2 0x3E8 JUMPI PUSH1 0x0 DUP1 REVERT JUMPDEST PUSH1 0x0 PUSH2 0x3F6 DUP5 DUP3 DUP6 ADD PUSH2 0x36F JUMP JUMPDEST SWAP2 POP POP SWAP3 SWAP2 POP POP JUMP JUMPDEST PUSH2 0x408 DUP2 PUSH2 0x598 JUMP JUMPDEST DUP3 MSTORE POP POP JUMP JUMPDEST PUSH1 0x0 PUSH2 0x419 DUP3 PUSH2 0x53D JUMP JUMPDEST PUSH2 0x423 DUP2 DUP6 PUSH2 0x548 JUMP JUMPDEST SWAP4 POP PUSH2 0x433 DUP2 DUP6 PUSH1 0x20 DUP7 ADD PUSH2 0x5E0 JUMP JUMPDEST DUP1 DUP5 ADD SWAP2 POP POP SWAP3 SWAP2 POP POP JUMP JUMPDEST PUSH1 0x0 PUSH2 0x44C PUSH1 0x24 DUP4 PUSH2 0x553 JUMP JUMPDEST SWAP2 POP PUSH2 0x457 DUP3 PUSH2 0x642 JUMP JUMPDEST PUSH1 0x40 DUP3 ADD SWAP1 POP SWAP2 SWAP1 POP JUMP JUMPDEST PUSH1 0x0 PUSH2 0x46F PUSH1 0x1F DUP4 PUSH2 0x553 JUMP JUMPDEST SWAP2 POP PUSH2 0x47A DUP3 PUSH2 0x691 JUMP JUMPDEST PUSH1 0x20 DUP3 ADD SWAP1 POP SWAP2 SWAP1 POP JUMP JUMPDEST PUSH2 0x48E DUP2 PUSH2 0x5D6 JUMP JUMPDEST DUP3 MSTORE POP POP JUMP JUMPDEST PUSH1 0x0 PUSH2 0x4A0 DUP3 DUP5 PUSH2 0x40E JUMP JUMPDEST SWAP2 POP DUP2 SWAP1 POP SWAP3 SWAP2 POP POP JUMP JUMPDEST PUSH1 0x0 PUSH1 0x60 DUP3 ADD SWAP1 POP PUSH2 0x4C0 PUSH1 0x0 DUP4 ADD DUP7 PUSH2 0x3FF JUMP JUMPDEST PUSH2 0x4CD PUSH1 0x20 DUP4 ADD DUP6 PUSH2 0x3FF JUMP JUMPDEST PUSH2 0x4DA PUSH1 0x40 DUP4 ADD DUP5 PUSH2 0x485 JUMP JUMPDEST SWAP5 SWAP4 POP POP POP POP JUMP JUMPDEST PUSH1 0x0 PUSH1 0x20 DUP3 ADD SWAP1 POP DUP2 DUP2 SUB PUSH1 0x0 DUP4 ADD MSTORE PUSH2 0x4FB DUP2 PUSH2 0x43F JUMP JUMPDEST SWAP1 POP SWAP2 SWAP1 POP JUMP JUMPDEST PUSH1 0x0 PUSH1 0x20 DUP3 ADD SWAP1 POP DUP2 DUP2 SUB PUSH1 0x0 DUP4 ADD MSTORE PUSH2 0x51B DUP2 PUSH2 0x462 JUMP JUMPDEST SWAP1 POP SWAP2 SWAP1 POP JUMP JUMPDEST PUSH1 0x0 PUSH1 0x20 DUP3 ADD SWAP1 POP PUSH2 0x537 PUSH1 0x0 DUP4 ADD DUP5 PUSH2 0x485 JUMP JUMPDEST SWAP3 SWAP2 POP POP JUMP JUMPDEST PUSH1 0x0 DUP2 MLOAD SWAP1 POP SWAP2 SWAP1 POP JUMP JUMPDEST PUSH1 0x0 DUP2 SWAP1 POP SWAP3 SWAP2 POP POP JUMP JUMPDEST PUSH1 0x0 DUP3 DUP3 MSTORE PUSH1 0x20 DUP3 ADD SWAP1 POP SWAP3 SWAP2 POP POP JUMP JUMPDEST PUSH1 0x0 PUSH2 0x56F DUP3 PUSH2 0x5D6 JUMP JUMPDEST SWAP2 POP PUSH2 0x57A DUP4 PUSH2 0x5D6 JUMP JUMPDEST SWAP3 POP DUP3 DUP3 LT ISZERO PUSH2 0x58D JUMPI PUSH2 0x58C PUSH2 0x613 JUMP JUMPDEST JUMPDEST DUP3 DUP3 SUB SWAP1 POP SWAP3 SWAP2 POP POP JUMP JUMPDEST PUSH1 0x0 PUSH2 0x5A3 DUP3 PUSH2 0x5B6 JUMP JUMPDEST SWAP1 POP SWAP2 SWAP1 POP JUMP JUMPDEST PUSH1 0x0 DUP2 ISZERO ISZERO SWAP1 POP SWAP2 SWAP1 POP JUMP JUMPDEST PUSH1 0x0 PUSH20 0xFFFFFFFFFFFFFFFFFFFFFFFFFFFFFFFFFFFFFFFF DUP3 AND SWAP1 POP SWAP2 SWAP1 POP JUMP JUMPDEST PUSH1 0x0 DUP2 SWAP1 POP SWAP2 SWAP1 POP JUMP JUMPDEST PUSH1 0x0 JUMPDEST DUP4 DUP2 LT ISZERO PUSH2 0x5FE JUMPI DUP1 DUP3 ADD MLOAD DUP2 DUP5 ADD MSTORE PUSH1 0x20 DUP2 ADD SWAP1 POP PUSH2 0x5E3 JUMP JUMPDEST DUP4 DUP2 GT ISZERO PUSH2 0x60D JUMPI PUSH1 0x0 DUP5 DUP5 ADD MSTORE JUMPDEST POP POP POP POP JUMP JUMPDEST PUSH32 0x4E487B7100000000000000000000000000000000000000000000000000000000 PUSH1 0x0 MSTORE PUSH1 0x11 PUSH1 0x4 MSTORE PUSH1 0x24 PUSH1 0x0 REVERT JUMPDEST PUSH32 0x5472616E7366657248656C7065723A205452414E534645525F46524F4D5F4641 PUSH1 0x0 DUP3 ADD MSTORE PUSH32 0x494C454400000000000000000000000000000000000000000000000000000000 PUSH1 0x20 DUP3 ADD MSTORE POP JUMP JUMPDEST PUSH32 0x5265656E7472616E637947756172643A207265656E7472616E742063616C6C00 PUSH1 0x0 DUP3 ADD MSTORE POP JUMP JUMPDEST PUSH2 0x6C3 DUP2 PUSH2 0x598 JUMP JUMPDEST DUP2 EQ PUSH2 0x6CE JUMPI PUSH1 0x0 DUP1 REVERT JUMPDEST POP JUMP JUMPDEST PUSH2 0x6DA DUP2 PUSH2 0x5AA JUMP JUMPDEST DUP2 EQ PUSH2 0x6E5 JUMPI PUSH1 0x0 DUP1 REVERT JUMPDEST POP JUMP JUMPDEST PUSH2 0x6F1 DUP2 PUSH2 0x5D6 JUMP JUMPDEST DUP2 EQ PUSH2 0x6FC JUMPI PUSH1 0x0 DUP1 REVERT JUMPDEST POP JUMP INVALID LOG2 PUSH5 0x6970667358 0x22 SLT KECCAK256 SUB 0xBC 0xEC STATICCALL RETURN 0xEA MUL CHAINID PUSH20 0xEFF3F0B72A2D28A0A088BCEC4F848C08B71CDA96 SWAP10 0x5D NUMBER PUSH5 0x736F6C6343 STOP ADDMOD DIV STOP CALLER "
				},
				"gasEstimates": {
					"creation": {
						"codeDepositCost": "369000",
						"executionCost": "41292",
						"totalCost": "410292"
					},
					"external": {
						"backToken()": "infinite",
						"depodit(uint256)": "infinite",
						"getBalance(address)": "1401",
						"transferETH(uint256)": "infinite"
					}
				},
				"methodIdentifiers": {
					"backToken()": "861faf5f",
					"depodit(uint256)": "79647833",
					"getBalance(address)": "f8b2cb4f",
					"transferETH(uint256)": "4329db46"
				}
			},
			"storageLayout": {
				"storage": [
					{
						"astId": 186,
						"contract": "Ethereum/Presale.sol:Presale",
						"label": "_status",
						"offset": 0,
						"slot": "0",
						"type": "t_uint256"
					},
					{
						"astId": 91,
						"contract": "Ethereum/Presale.sol:Presale",
						"label": "PRESALE_INFO",
						"offset": 0,
						"slot": "1",
						"type": "t_struct(PresaleInfo)88_storage"
					}
				],
				"types": {
					"t_contract(IERC20)77": {
						"encoding": "inplace",
						"label": "contract IERC20",
						"numberOfBytes": "20"
					},
					"t_struct(PresaleInfo)88_storage": {
						"encoding": "inplace",
						"label": "struct Presale.PresaleInfo",
						"members": [
							{
								"astId": 87,
								"contract": "Ethereum/Presale.sol:Presale",
								"label": "B_TOKEN",
								"offset": 0,
								"slot": "0",
								"type": "t_contract(IERC20)77"
							}
						],
						"numberOfBytes": "32"
					},
					"t_uint256": {
						"encoding": "inplace",
						"label": "uint256",
						"numberOfBytes": "32"
					}
				}
			},
			"userdoc": {
				"kind": "user",
				"methods": {},
				"version": 1
			}
		}
	}
}