{
	"ERC20/MyToken.sol": {
		"MyToken": {
			"abi": [
				{
					"inputs": [],
					"stateMutability": "nonpayable",
					"type": "constructor"
				},
				{
					"anonymous": false,
					"inputs": [
						{
							"indexed": true,
							"internalType": "address",
							"name": "owner",
							"type": "address"
						},
						{
							"indexed": true,
							"internalType": "address",
							"name": "spender",
							"type": "address"
						},
						{
							"indexed": false,
							"internalType": "uint256",
							"name": "value",
							"type": "uint256"
						}
					],
					"name": "Approval",
					"type": "event"
				},
				{
					"anonymous": false,
					"inputs": [
						{
							"indexed": false,
							"internalType": "uint8",
							"name": "version",
							"type": "uint8"
						}
					],
					"name": "Initialized",
					"type": "event"
				},
				{
					"anonymous": false,
					"inputs": [
						{
							"indexed": true,
							"internalType": "address",
							"name": "previousOwner",
							"type": "address"
						},
						{
							"indexed": true,
							"internalType": "address",
							"name": "newOwner",
							"type": "address"
						}
					],
					"name": "OwnershipTransferred",
					"type": "event"
				},
				{
					"anonymous": false,
					"inputs": [
						{
							"indexed": false,
							"internalType": "address",
							"name": "account",
							"type": "address"
						}
					],
					"name": "Paused",
					"type": "event"
				},
				{
					"anonymous": false,
					"inputs": [
						{
							"indexed": true,
							"internalType": "address",
							"name": "from",
							"type": "address"
						},
						{
							"indexed": true,
							"internalType": "address",
							"name": "to",
							"type": "address"
						},
						{
							"indexed": false,
							"internalType": "uint256",
							"name": "value",
							"type": "uint256"
						}
					],
					"name": "Transfer",
					"type": "event"
				},
				{
					"anonymous": false,
					"inputs": [
						{
							"indexed": false,
							"internalType": "address",
							"name": "account",
							"type": "address"
						}
					],
					"name": "Unpaused",
					"type": "event"
				},
				{
					"inputs": [
						{
							"internalType": "address",
							"name": "owner",
							"type": "address"
						},
						{
							"internalType": "address",
							"name": "spender",
							"type": "address"
						}
					],
					"name": "allowance",
					"outputs": [
						{
							"internalType": "uint256",
							"name": "",
							"type": "uint256"
						}
					],
					"stateMutability": "view",
					"type": "function"
				},
				{
					"inputs": [
						{
							"internalType": "address",
							"name": "spender",
							"type": "address"
						},
						{
							"internalType": "uint256",
							"name": "amount",
							"type": "uint256"
						}
					],
					"name": "approve",
					"outputs": [
						{
							"internalType": "bool",
							"name": "",
							"type": "bool"
						}
					],
					"stateMutability": "nonpayable",
					"type": "function"
				},
				{
					"inputs": [
						{
							"internalType": "address",
							"name": "account",
							"type": "address"
						}
					],
					"name": "balanceOf",
					"outputs": [
						{
							"internalType": "uint256",
							"name": "",
							"type": "uint256"
						}
					],
					"stateMutability": "view",
					"type": "function"
				},
				{
					"inputs": [
						{
							"internalType": "uint256",
							"name": "amount",
							"type": "uint256"
						}
					],
					"name": "burn",
					"outputs": [],
					"stateMutability": "nonpayable",
					"type": "function"
				},
				{
					"inputs": [
						{
							"internalType": "address",
							"name": "account",
							"type": "address"
						},
						{
							"internalType": "uint256",
							"name": "amount",
							"type": "uint256"
						}
					],
					"name": "burnFrom",
					"outputs": [],
					"stateMutability": "nonpayable",
					"type": "function"
				},
				{
					"inputs": [],
					"name": "decimals",
					"outputs": [
						{
							"internalType": "uint8",
							"name": "",
							"type": "uint8"
						}
					],
					"stateMutability": "view",
					"type": "function"
				},
				{
					"inputs": [
						{
							"internalType": "address",
							"name": "spender",
							"type": "address"
						},
						{
							"internalType": "uint256",
							"name": "subtractedValue",
							"type": "uint256"
						}
					],
					"name": "decreaseAllowance",
					"outputs": [
						{
							"internalType": "bool",
							"name": "",
							"type": "bool"
						}
					],
					"stateMutability": "nonpayable",
					"type": "function"
				},
				{
					"inputs": [
						{
							"internalType": "address",
							"name": "spender",
							"type": "address"
						},
						{
							"internalType": "uint256",
							"name": "addedValue",
							"type": "uint256"
						}
					],
					"name": "increaseAllowance",
					"outputs": [
						{
							"internalType": "bool",
							"name": "",
							"type": "bool"
						}
					],
					"stateMutability": "nonpayable",
					"type": "function"
				},
				{
					"inputs": [],
					"name": "initialize",
					"outputs": [],
					"stateMutability": "nonpayable",
					"type": "function"
				},
				{
					"inputs": [
						{
							"internalType": "address",
							"name": "to",
							"type": "address"
						},
						{
							"internalType": "uint256",
							"name": "amount",
							"type": "uint256"
						}
					],
					"name": "mint",
					"outputs": [],
					"stateMutability": "nonpayable",
					"type": "function"
				},
				{
					"inputs": [],
					"name": "name",
					"outputs": [
						{
							"internalType": "string",
							"name": "",
							"type": "string"
						}
					],
					"stateMutability": "view",
					"type": "function"
				},
				{
					"inputs": [],
					"name": "owner",
					"outputs": [
						{
							"internalType": "address",
							"name": "",
							"type": "address"
						}
					],
					"stateMutability": "view",
					"type": "function"
				},
				{
					"inputs": [],
					"name": "pause",
					"outputs": [],
					"stateMutability": "nonpayable",
					"type": "function"
				},
				{
					"inputs": [],
					"name": "paused",
					"outputs": [
						{
							"internalType": "bool",
							"name": "",
							"type": "bool"
						}
					],
					"stateMutability": "view",
					"type": "function"
				},
				{
					"inputs": [],
					"name": "renounceOwnership",
					"outputs": [],
					"stateMutability": "nonpayable",
					"type": "function"
				},
				{
					"inputs": [],
					"name": "symbol",
					"outputs": [
						{
							"internalType": "string",
							"name": "",
							"type": "string"
						}
					],
					"stateMutability": "view",
					"type": "function"
				},
				{
					"inputs": [],
					"name": "totalSupply",
					"outputs": [
						{
							"internalType": "uint256",
							"name": "",
							"type": "uint256"
						}
					],
					"stateMutability": "view",
					"type": "function"
				},
				{
					"inputs": [
						{
							"internalType": "address",
							"name": "to",
							"type": "address"
						},
						{
							"internalType": "uint256",
							"name": "amount",
							"type": "uint256"
						}
					],
					"name": "transfer",
					"outputs": [
						{
							"internalType": "bool",
							"name": "",
							"type": "bool"
						}
					],
					"stateMutability": "nonpayable",
					"type": "function"
				},
				{
					"inputs": [
						{
							"internalType": "address",
							"name": "from",
							"type": "address"
						},
						{
							"internalType": "address",
							"name": "to",
							"type": "address"
						},
						{
							"internalType": "uint256",
							"name": "amount",
							"type": "uint256"
						}
					],
					"name": "transferFrom",
					"outputs": [
						{
							"internalType": "bool",
							"name": "",
							"type": "bool"
						}
					],
					"stateMutability": "nonpayable",
					"type": "function"
				},
				{
					"inputs": [
						{
							"internalType": "address",
							"name": "newOwner",
							"type": "address"
						}
					],
					"name": "transferOwnership",
					"outputs": [],
					"stateMutability": "nonpayable",
					"type": "function"
				},
				{
					"inputs": [],
					"name": "unpause",
					"outputs": [],
					"stateMutability": "nonpayable",
					"type": "function"
				}
			],
			"devdoc": {
				"kind": "dev",
				"methods": {
					"allowance(address,address)": {
						"details": "See {IERC20-allowance}."
					},
					"approve(address,uint256)": {
						"details": "See {IERC20-approve}. NOTE: If `amount` is the maximum `uint256`, the allowance is not updated on `transferFrom`. This is semantically equivalent to an infinite approval. Requirements: - `spender` cannot be the zero address."
					},
					"balanceOf(address)": {
						"details": "See {IERC20-balanceOf}."
					},
					"burn(uint256)": {
						"details": "Destroys `amount` tokens from the caller. See {ERC20-_burn}."
					},
					"burnFrom(address,uint256)": {
						"details": "Destroys `amount` tokens from `account`, deducting from the caller's allowance. See {ERC20-_burn} and {ERC20-allowance}. Requirements: - the caller must have allowance for ``accounts``'s tokens of at least `amount`."
					},
					"constructor": {
						"custom:oz-upgrades-unsafe-allow": "constructor"
					},
					"decimals()": {
						"details": "Returns the number of decimals used to get its user representation. For example, if `decimals` equals `2`, a balance of `505` tokens should be displayed to a user as `5.05` (`505 / 10 ** 2`). Tokens usually opt for a value of 18, imitating the relationship between Ether and Wei. This is the value {ERC20} uses, unless this function is overridden; NOTE: This information is only used for _display_ purposes: it in no way affects any of the arithmetic of the contract, including {IERC20-balanceOf} and {IERC20-transfer}."
					},
					"decreaseAllowance(address,uint256)": {
						"details": "Atomically decreases the allowance granted to `spender` by the caller. This is an alternative to {approve} that can be used as a mitigation for problems described in {IERC20-approve}. Emits an {Approval} event indicating the updated allowance. Requirements: - `spender` cannot be the zero address. - `spender` must have allowance for the caller of at least `subtractedValue`."
					},
					"increaseAllowance(address,uint256)": {
						"details": "Atomically increases the allowance granted to `spender` by the caller. This is an alternative to {approve} that can be used as a mitigation for problems described in {IERC20-approve}. Emits an {Approval} event indicating the updated allowance. Requirements: - `spender` cannot be the zero address."
					},
					"name()": {
						"details": "Returns the name of the token."
					},
					"owner()": {
						"details": "Returns the address of the current owner."
					},
					"paused()": {
						"details": "Returns true if the contract is paused, and false otherwise."
					},
					"renounceOwnership()": {
						"details": "Leaves the contract without owner. It will not be possible to call `onlyOwner` functions anymore. Can only be called by the current owner. NOTE: Renouncing ownership will leave the contract without an owner, thereby removing any functionality that is only available to the owner."
					},
					"symbol()": {
						"details": "Returns the symbol of the token, usually a shorter version of the name."
					},
					"totalSupply()": {
						"details": "See {IERC20-totalSupply}."
					},
					"transfer(address,uint256)": {
						"details": "See {IERC20-transfer}. Requirements: - `to` cannot be the zero address. - the caller must have a balance of at least `amount`."
					},
					"transferFrom(address,address,uint256)": {
						"details": "See {IERC20-transferFrom}. Emits an {Approval} event indicating the updated allowance. This is not required by the EIP. See the note at the beginning of {ERC20}. NOTE: Does not update the allowance if the current allowance is the maximum `uint256`. Requirements: - `from` and `to` cannot be the zero address. - `from` must have a balance of at least `amount`. - the caller must have allowance for ``from``'s tokens of at least `amount`."
					},
					"transferOwnership(address)": {
						"details": "Transfers ownership of the contract to a new account (`newOwner`). Can only be called by the current owner."
					}
				},
				"version": 1
			},
			"evm": {
				"assembly": "    /* \"ERC20/MyToken.sol\":242:1118  contract MyToken is Initializable, ERC20Upgradeable, ERC20BurnableUpgradeable, PausableUpgradeable, OwnableUpgradeable {... */\n  mstore(0x40, 0x80)\n    /* \"ERC20/MyToken.sol\":422:477  constructor() {... */\n  callvalue\n  dup1\n  iszero\n  tag_1\n  jumpi\n  0x00\n  dup1\n  revert\ntag_1:\n  pop\n    /* \"ERC20/MyToken.sol\":447:469  _disableInitializers() */\n  tag_4\n    /* \"ERC20/MyToken.sol\":447:467  _disableInitializers */\n  shl(0x20, tag_5)\n    /* \"ERC20/MyToken.sol\":447:469  _disableInitializers() */\n  0x20\n  shr\n  jump\t// in\ntag_4:\n    /* \"ERC20/MyToken.sol\":242:1118  contract MyToken is Initializable, ERC20Upgradeable, ERC20BurnableUpgradeable, PausableUpgradeable, OwnableUpgradeable {... */\n  jump(tag_6)\n    /* \"ERC20/Initializable.sol\":5294:5401  function _disableInitializers() internal virtual {... */\ntag_5:\n    /* \"ERC20/Initializable.sol\":5354:5393  _setInitializedVersion(type(uint8).max) */\n  tag_8\n    /* \"ERC20/Initializable.sol\":5377:5392  type(uint8).max */\n  0xff\n    /* \"ERC20/Initializable.sol\":5354:5376  _setInitializedVersion */\n  shl(0x20, tag_9)\n    /* \"ERC20/Initializable.sol\":5354:5393  _setInitializedVersion(type(uint8).max) */\n  0x20\n  shr\n  jump\t// in\ntag_8:\n  pop\n    /* \"ERC20/Initializable.sol\":5294:5401  function _disableInitializers() internal virtual {... */\n  jump\t// out\n    /* \"ERC20/Initializable.sol\":5409:6232  function _setInitializedVersion(uint8 version) private returns (bool) {... */\ntag_9:\n    /* \"ERC20/Initializable.sol\":5473:5477  bool */\n  0x00\n    /* \"ERC20/Initializable.sol\":5810:5823  _initializing */\n  dup1\n  0x01\n  swap1\n  sload\n  swap1\n  0x0100\n  exp\n  swap1\n  div\n  0xff\n  and\n    /* \"ERC20/Initializable.sol\":5806:6225  if (_initializing) {... */\n  iszero\n  tag_11\n  jumpi\n    /* \"ERC20/Initializable.sol\":5877:5878  1 */\n  0x01\n    /* \"ERC20/Initializable.sol\":5866:5873  version */\n  dup3\n    /* \"ERC20/Initializable.sol\":5866:5878  version == 1 */\n  0xff\n  and\n  eq\n    /* \"ERC20/Initializable.sol\":5866:5927  version == 1 && !AddressUpgradeable.isContract(address(this)) */\n  dup1\n  iszero\n  tag_12\n  jumpi\n  pop\n    /* \"ERC20/Initializable.sol\":5883:5927  AddressUpgradeable.isContract(address(this)) */\n  tag_13\n    /* \"ERC20/Initializable.sol\":5921:5925  this */\n  address\n    /* \"ERC20/Initializable.sol\":5883:5912  AddressUpgradeable.isContract */\n  or(tag_0_103, shl(0x20, tag_14))\n    /* \"ERC20/Initializable.sol\":5883:5927  AddressUpgradeable.isContract(address(this)) */\n  0x20\n  shr\n  jump\t// in\ntag_13:\n    /* \"ERC20/Initializable.sol\":5882:5927  !AddressUpgradeable.isContract(address(this)) */\n  iszero\n    /* \"ERC20/Initializable.sol\":5866:5927  version == 1 && !AddressUpgradeable.isContract(address(this)) */\ntag_12:\n    /* \"ERC20/Initializable.sol\":5840:6009  require(... */\n  tag_15\n  jumpi\n  mload(0x40)\n  0x08c379a000000000000000000000000000000000000000000000000000000000\n  dup2\n  mstore\n  0x04\n  add\n  tag_16\n  swap1\n  tag_17\n  jump\t// in\ntag_16:\n  mload(0x40)\n  dup1\n  swap2\n  sub\n  swap1\n  revert\ntag_15:\n    /* \"ERC20/Initializable.sol\":6031:6036  false */\n  0x00\n    /* \"ERC20/Initializable.sol\":6024:6036  return false */\n  swap1\n  pop\n  jump(tag_10)\n    /* \"ERC20/Initializable.sol\":5806:6225  if (_initializing) {... */\ntag_11:\n    /* \"ERC20/Initializable.sol\":6092:6099  version */\n  dup2\n    /* \"ERC20/Initializable.sol\":6077:6099  _initialized < version */\n  0xff\n  and\n    /* \"ERC20/Initializable.sol\":6077:6089  _initialized */\n  0x00\n  dup1\n  sload\n  swap1\n  0x0100\n  exp\n  swap1\n  div\n  0xff\n  and\n    /* \"ERC20/Initializable.sol\":6077:6099  _initialized < version */\n  0xff\n  and\n  lt\n    /* \"ERC20/Initializable.sol\":6069:6150  require(_initialized < version, \"Initializable: contract is already initialized\") */\n  tag_19\n  jumpi\n  mload(0x40)\n  0x08c379a000000000000000000000000000000000000000000000000000000000\n  dup2\n  mstore\n  0x04\n  add\n  tag_20\n  swap1\n  tag_17\n  jump\t// in\ntag_20:\n  mload(0x40)\n  dup1\n  swap2\n  sub\n  swap1\n  revert\ntag_19:\n    /* \"ERC20/Initializable.sol\":6180:6187  version */\n  dup2\n    /* \"ERC20/Initializable.sol\":6165:6177  _initialized */\n  0x00\n  dup1\n    /* \"ERC20/Initializable.sol\":6165:6187  _initialized = version */\n  0x0100\n  exp\n  dup2\n  sload\n  dup2\n  0xff\n  mul\n  not\n  and\n  swap1\n  dup4\n  0xff\n  and\n  mul\n  or\n  swap1\n  sstore\n  pop\n    /* \"ERC20/Initializable.sol\":6209:6213  true */\n  0x01\n    /* \"ERC20/Initializable.sol\":6202:6213  return true */\n  swap1\n  pop\n    /* \"ERC20/Initializable.sol\":5409:6232  function _setInitializedVersion(uint8 version) private returns (bool) {... */\ntag_10:\n  swap2\n  swap1\n  pop\n  jump\t// out\n    /* \"ERC20/AddressUpgradeable.sol\":1221:1547  function isContract(address account) internal view returns (bool) {... */\ntag_14:\n    /* \"ERC20/AddressUpgradeable.sol\":1281:1285  bool */\n  0x00\n    /* \"ERC20/AddressUpgradeable.sol\":1538:1539  0 */\n  dup1\n    /* \"ERC20/AddressUpgradeable.sol\":1516:1523  account */\n  dup3\n    /* \"ERC20/AddressUpgradeable.sol\":1516:1535  account.code.length */\n  0xffffffffffffffffffffffffffffffffffffffff\n  and\n  extcodesize\n    /* \"ERC20/AddressUpgradeable.sol\":1516:1539  account.code.length > 0 */\n  gt\n    /* \"ERC20/AddressUpgradeable.sol\":1509:1539  return account.code.length > 0 */\n  swap1\n  pop\n    /* \"ERC20/AddressUpgradeable.sol\":1221:1547  function isContract(address account) internal view returns (bool) {... */\n  swap2\n  swap1\n  pop\n  jump\t// out\n    /* \"#utility.yul\":7:176   */\ntag_22:\n    /* \"#utility.yul\":91:102   */\n  0x00\n    /* \"#utility.yul\":125:131   */\n  dup3\n    /* \"#utility.yul\":120:123   */\n  dup3\n    /* \"#utility.yul\":113:132   */\n  mstore\n    /* \"#utility.yul\":165:169   */\n  0x20\n    /* \"#utility.yul\":160:163   */\n  dup3\n    /* \"#utility.yul\":156:170   */\n  add\n    /* \"#utility.yul\":141:170   */\n  swap1\n  pop\n    /* \"#utility.yul\":7:176   */\n  swap3\n  swap2\n  pop\n  pop\n  jump\t// out\n    /* \"#utility.yul\":182:415   */\ntag_23:\n    /* \"#utility.yul\":322:356   */\n  0x496e697469616c697a61626c653a20636f6e747261637420697320616c726561\n    /* \"#utility.yul\":318:319   */\n  0x00\n    /* \"#utility.yul\":310:316   */\n  dup3\n    /* \"#utility.yul\":306:320   */\n  add\n    /* \"#utility.yul\":299:357   */\n  mstore\n    /* \"#utility.yul\":391:407   */\n  0x647920696e697469616c697a6564000000000000000000000000000000000000\n    /* \"#utility.yul\":386:388   */\n  0x20\n    /* \"#utility.yul\":378:384   */\n  dup3\n    /* \"#utility.yul\":374:389   */\n  add\n    /* \"#utility.yul\":367:408   */\n  mstore\n    /* \"#utility.yul\":182:415   */\n  pop\n  jump\t// out\n    /* \"#utility.yul\":421:787   */\ntag_24:\n    /* \"#utility.yul\":563:566   */\n  0x00\n    /* \"#utility.yul\":584:651   */\n  tag_29\n    /* \"#utility.yul\":648:650   */\n  0x2e\n    /* \"#utility.yul\":643:646   */\n  dup4\n    /* \"#utility.yul\":584:651   */\n  tag_22\n  jump\t// in\ntag_29:\n    /* \"#utility.yul\":577:651   */\n  swap2\n  pop\n    /* \"#utility.yul\":660:753   */\n  tag_30\n    /* \"#utility.yul\":749:752   */\n  dup3\n    /* \"#utility.yul\":660:753   */\n  tag_23\n  jump\t// in\ntag_30:\n    /* \"#utility.yul\":778:780   */\n  0x40\n    /* \"#utility.yul\":773:776   */\n  dup3\n    /* \"#utility.yul\":769:781   */\n  add\n    /* \"#utility.yul\":762:781   */\n  swap1\n  pop\n    /* \"#utility.yul\":421:787   */\n  swap2\n  swap1\n  pop\n  jump\t// out\n    /* \"#utility.yul\":793:1212   */\ntag_17:\n    /* \"#utility.yul\":959:963   */\n  0x00\n    /* \"#utility.yul\":997:999   */\n  0x20\n    /* \"#utility.yul\":986:995   */\n  dup3\n    /* \"#utility.yul\":982:1000   */\n  add\n    /* \"#utility.yul\":974:1000   */\n  swap1\n  pop\n    /* \"#utility.yul\":1046:1055   */\n  dup2\n    /* \"#utility.yul\":1040:1044   */\n  dup2\n    /* \"#utility.yul\":1036:1056   */\n  sub\n    /* \"#utility.yul\":1032:1033   */\n  0x00\n    /* \"#utility.yul\":1021:1030   */\n  dup4\n    /* \"#utility.yul\":1017:1034   */\n  add\n    /* \"#utility.yul\":1010:1057   */\n  mstore\n    /* \"#utility.yul\":1074:1205   */\n  tag_32\n    /* \"#utility.yul\":1200:1204   */\n  dup2\n    /* \"#utility.yul\":1074:1205   */\n  tag_24\n  jump\t// in\ntag_32:\n    /* \"#utility.yul\":1066:1205   */\n  swap1\n  pop\n    /* \"#utility.yul\":793:1212   */\n  swap2\n  swap1\n  pop\n  jump\t// out\n    /* \"ERC20/MyToken.sol\":242:1118  contract MyToken is Initializable, ERC20Upgradeable, ERC20BurnableUpgradeable, PausableUpgradeable, OwnableUpgradeable {... */\ntag_6:\n  dataSize(sub_0)\n  dup1\n  dataOffset(sub_0)\n  0x00\n  codecopy\n  0x00\n  return\nstop\n\nsub_0: assembly {\n        /* \"ERC20/MyToken.sol\":242:1118  contract MyToken is Initializable, ERC20Upgradeable, ERC20BurnableUpgradeable, PausableUpgradeable, OwnableUpgradeable {... */\n      mstore(0x40, 0x80)\n      callvalue\n      dup1\n      iszero\n      tag_1\n      jumpi\n      0x00\n      dup1\n      revert\n    tag_1:\n      pop\n      jumpi(tag_2, lt(calldatasize, 0x04))\n      shr(0xe0, calldataload(0x00))\n      dup1\n      0x70a08231\n      gt\n      tag_24\n      jumpi\n      dup1\n      0x8da5cb5b\n      gt\n      tag_25\n      jumpi\n      dup1\n      0x8da5cb5b\n      eq\n      tag_18\n      jumpi\n      dup1\n      0x95d89b41\n      eq\n      tag_19\n      jumpi\n      dup1\n      0xa457c2d7\n      eq\n      tag_20\n      jumpi\n      dup1\n      0xa9059cbb\n      eq\n      tag_21\n      jumpi\n      dup1\n      0xdd62ed3e\n      eq\n      tag_22\n      jumpi\n      dup1\n      0xf2fde38b\n      eq\n      tag_23\n      jumpi\n      jump(tag_2)\n    tag_25:\n      dup1\n      0x70a08231\n      eq\n      tag_13\n      jumpi\n      dup1\n      0x715018a6\n      eq\n      tag_14\n      jumpi\n      dup1\n      0x79cc6790\n      eq\n      tag_15\n      jumpi\n      dup1\n      0x8129fc1c\n      eq\n      tag_16\n      jumpi\n      dup1\n      0x8456cb59\n      eq\n      tag_17\n      jumpi\n      jump(tag_2)\n    tag_24:\n      dup1\n      0x39509351\n      gt\n      tag_26\n      jumpi\n      dup1\n      0x39509351\n      eq\n      tag_8\n      jumpi\n      dup1\n      0x3f4ba83a\n      eq\n      tag_9\n      jumpi\n      dup1\n      0x40c10f19\n      eq\n      tag_10\n      jumpi\n      dup1\n      0x42966c68\n      eq\n      tag_11\n      jumpi\n      dup1\n      0x5c975abb\n      eq\n      tag_12\n      jumpi\n      jump(tag_2)\n    tag_26:\n      dup1\n      0x06fdde03\n      eq\n      tag_3\n      jumpi\n      dup1\n      0x095ea7b3\n      eq\n      tag_4\n      jumpi\n      dup1\n      0x18160ddd\n      eq\n      tag_5\n      jumpi\n      dup1\n      0x23b872dd\n      eq\n      tag_6\n      jumpi\n      dup1\n      0x313ce567\n      eq\n      tag_7\n      jumpi\n    tag_2:\n      0x00\n      dup1\n      revert\n        /* \"ERC20/ERC20Upgradeable.sol\":2522:2622  function name() public view virtual override returns (string memory) {... */\n    tag_3:\n      tag_27\n      tag_28\n      jump\t// in\n    tag_27:\n      mload(0x40)\n      tag_29\n      swap2\n      swap1\n      tag_30\n      jump\t// in\n    tag_29:\n      mload(0x40)\n      dup1\n      swap2\n      sub\n      swap1\n      return\n        /* \"ERC20/ERC20Upgradeable.sol\":4873:5074  function approve(address spender, uint256 amount) public virtual override returns (bool) {... */\n    tag_4:\n      tag_31\n      0x04\n      dup1\n      calldatasize\n      sub\n      dup2\n      add\n      swap1\n      tag_32\n      swap2\n      swap1\n      tag_33\n      jump\t// in\n    tag_32:\n      tag_34\n      jump\t// in\n    tag_31:\n      mload(0x40)\n      tag_35\n      swap2\n      swap1\n      tag_36\n      jump\t// in\n    tag_35:\n      mload(0x40)\n      dup1\n      swap2\n      sub\n      swap1\n      return\n        /* \"ERC20/ERC20Upgradeable.sol\":3642:3750  function totalSupply() public view virtual override returns (uint256) {... */\n    tag_5:\n      tag_37\n      tag_38\n      jump\t// in\n    tag_37:\n      mload(0x40)\n      tag_39\n      swap2\n      swap1\n      tag_40\n      jump\t// in\n    tag_39:\n      mload(0x40)\n      dup1\n      swap2\n      sub\n      swap1\n      return\n        /* \"ERC20/ERC20Upgradeable.sol\":5654:5949  function transferFrom(... */\n    tag_6:\n      tag_41\n      0x04\n      dup1\n      calldatasize\n      sub\n      dup2\n      add\n      swap1\n      tag_42\n      swap2\n      swap1\n      tag_43\n      jump\t// in\n    tag_42:\n      tag_44\n      jump\t// in\n    tag_41:\n      mload(0x40)\n      tag_45\n      swap2\n      swap1\n      tag_36\n      jump\t// in\n    tag_45:\n      mload(0x40)\n      dup1\n      swap2\n      sub\n      swap1\n      return\n        /* \"ERC20/ERC20Upgradeable.sol\":3484:3577  function decimals() public view virtual override returns (uint8) {... */\n    tag_7:\n      tag_46\n      tag_47\n      jump\t// in\n    tag_46:\n      mload(0x40)\n      tag_48\n      swap2\n      swap1\n      tag_49\n      jump\t// in\n    tag_48:\n      mload(0x40)\n      dup1\n      swap2\n      sub\n      swap1\n      return\n        /* \"ERC20/ERC20Upgradeable.sol\":6358:6596  function increaseAllowance(address spender, uint256 addedValue) public virtual returns (bool) {... */\n    tag_8:\n      tag_50\n      0x04\n      dup1\n      calldatasize\n      sub\n      dup2\n      add\n      swap1\n      tag_51\n      swap2\n      swap1\n      tag_33\n      jump\t// in\n    tag_51:\n      tag_52\n      jump\t// in\n    tag_50:\n      mload(0x40)\n      tag_53\n      swap2\n      swap1\n      tag_36\n      jump\t// in\n    tag_53:\n      mload(0x40)\n      dup1\n      swap2\n      sub\n      swap1\n      return\n        /* \"ERC20/MyToken.sol\":740:805  function unpause() public onlyOwner {... */\n    tag_9:\n      tag_54\n      tag_55\n      jump\t// in\n    tag_54:\n      stop\n        /* \"ERC20/MyToken.sol\":813:908  function mint(address to, uint256 amount) public onlyOwner {... */\n    tag_10:\n      tag_56\n      0x04\n      dup1\n      calldatasize\n      sub\n      dup2\n      add\n      swap1\n      tag_57\n      swap2\n      swap1\n      tag_33\n      jump\t// in\n    tag_57:\n      tag_58\n      jump\t// in\n    tag_56:\n      stop\n        /* \"ERC20/ERC20BurnableUpgradeable.sol\":840:931  function burn(uint256 amount) public virtual {... */\n    tag_11:\n      tag_59\n      0x04\n      dup1\n      calldatasize\n      sub\n      dup2\n      add\n      swap1\n      tag_60\n      swap2\n      swap1\n      tag_61\n      jump\t// in\n    tag_60:\n      tag_62\n      jump\t// in\n    tag_59:\n      stop\n        /* \"ERC20/PausableUpgradeable.sol\":1365:1451  function paused() public view virtual returns (bool) {... */\n    tag_12:\n      tag_63\n      tag_64\n      jump\t// in\n    tag_63:\n      mload(0x40)\n      tag_65\n      swap2\n      swap1\n      tag_36\n      jump\t// in\n    tag_65:\n      mload(0x40)\n      dup1\n      swap2\n      sub\n      swap1\n      return\n        /* \"ERC20/ERC20Upgradeable.sol\":3813:3940  function balanceOf(address account) public view virtual override returns (uint256) {... */\n    tag_13:\n      tag_66\n      0x04\n      dup1\n      calldatasize\n      sub\n      dup2\n      add\n      swap1\n      tag_67\n      swap2\n      swap1\n      tag_68\n      jump\t// in\n    tag_67:\n      tag_69\n      jump\t// in\n    tag_66:\n      mload(0x40)\n      tag_70\n      swap2\n      swap1\n      tag_40\n      jump\t// in\n    tag_70:\n      mload(0x40)\n      dup1\n      swap2\n      sub\n      swap1\n      return\n        /* \"ERC20/OwnableUpgradeable.sol\":1946:2049  function renounceOwnership() public virtual onlyOwner {... */\n    tag_14:\n      tag_71\n      tag_72\n      jump\t// in\n    tag_71:\n      stop\n        /* \"ERC20/ERC20BurnableUpgradeable.sol\":1250:1414  function burnFrom(address account, uint256 amount) public virtual {... */\n    tag_15:\n      tag_73\n      0x04\n      dup1\n      calldatasize\n      sub\n      dup2\n      add\n      swap1\n      tag_74\n      swap2\n      swap1\n      tag_33\n      jump\t// in\n    tag_74:\n      tag_75\n      jump\t// in\n    tag_73:\n      stop\n        /* \"ERC20/MyToken.sol\":485:663  function initialize() initializer public {... */\n    tag_16:\n      tag_76\n      tag_77\n      jump\t// in\n    tag_76:\n      stop\n        /* \"ERC20/MyToken.sol\":671:732  function pause() public onlyOwner {... */\n    tag_17:\n      tag_78\n      tag_79\n      jump\t// in\n    tag_78:\n      stop\n        /* \"ERC20/OwnableUpgradeable.sol\":1295:1382  function owner() public view virtual returns (address) {... */\n    tag_18:\n      tag_80\n      tag_81\n      jump\t// in\n    tag_80:\n      mload(0x40)\n      tag_82\n      swap2\n      swap1\n      tag_83\n      jump\t// in\n    tag_82:\n      mload(0x40)\n      dup1\n      swap2\n      sub\n      swap1\n      return\n        /* \"ERC20/ERC20Upgradeable.sol\":2741:2845  function symbol() public view virtual override returns (string memory) {... */\n    tag_19:\n      tag_84\n      tag_85\n      jump\t// in\n    tag_84:\n      mload(0x40)\n      tag_86\n      swap2\n      swap1\n      tag_30\n      jump\t// in\n    tag_86:\n      mload(0x40)\n      dup1\n      swap2\n      sub\n      swap1\n      return\n        /* \"ERC20/ERC20Upgradeable.sol\":7099:7535  function decreaseAllowance(address spender, uint256 subtractedValue) public virtual returns (bool) {... */\n    tag_20:\n      tag_87\n      0x04\n      dup1\n      calldatasize\n      sub\n      dup2\n      add\n      swap1\n      tag_88\n      swap2\n      swap1\n      tag_33\n      jump\t// in\n    tag_88:\n      tag_89\n      jump\t// in\n    tag_87:\n      mload(0x40)\n      tag_90\n      swap2\n      swap1\n      tag_36\n      jump\t// in\n    tag_90:\n      mload(0x40)\n      dup1\n      swap2\n      sub\n      swap1\n      return\n        /* \"ERC20/ERC20Upgradeable.sol\":4146:4339  function transfer(address to, uint256 amount) public virtual override returns (bool) {... */\n    tag_21:\n      tag_91\n      0x04\n      dup1\n      calldatasize\n      sub\n      dup2\n      add\n      swap1\n      tag_92\n      swap2\n      swap1\n      tag_33\n      jump\t// in\n    tag_92:\n      tag_93\n      jump\t// in\n    tag_91:\n      mload(0x40)\n      tag_94\n      swap2\n      swap1\n      tag_36\n      jump\t// in\n    tag_94:\n      mload(0x40)\n      dup1\n      swap2\n      sub\n      swap1\n      return\n        /* \"ERC20/ERC20Upgradeable.sol\":4402:4553  function allowance(address owner, address spender) public view virtual override returns (uint256) {... */\n    tag_22:\n      tag_95\n      0x04\n      dup1\n      calldatasize\n      sub\n      dup2\n      add\n      swap1\n      tag_96\n      swap2\n      swap1\n      tag_97\n      jump\t// in\n    tag_96:\n      tag_98\n      jump\t// in\n    tag_95:\n      mload(0x40)\n      tag_99\n      swap2\n      swap1\n      tag_40\n      jump\t// in\n    tag_99:\n      mload(0x40)\n      dup1\n      swap2\n      sub\n      swap1\n      return\n        /* \"ERC20/OwnableUpgradeable.sol\":2204:2405  function transferOwnership(address newOwner) public virtual onlyOwner {... */\n    tag_23:\n      tag_100\n      0x04\n      dup1\n      calldatasize\n      sub\n      dup2\n      add\n      swap1\n      tag_101\n      swap2\n      swap1\n      tag_68\n      jump\t// in\n    tag_101:\n      tag_102\n      jump\t// in\n    tag_100:\n      stop\n        /* \"ERC20/ERC20Upgradeable.sol\":2522:2622  function name() public view virtual override returns (string memory) {... */\n    tag_28:\n        /* \"ERC20/ERC20Upgradeable.sol\":2576:2589  string memory */\n      0x60\n        /* \"ERC20/ERC20Upgradeable.sol\":2609:2614  _name */\n      0x36\n        /* \"ERC20/ERC20Upgradeable.sol\":2602:2614  return _name */\n      dup1\n      sload\n      tag_105\n      swap1\n      tag_106\n      jump\t// in\n    tag_105:\n      dup1\n      0x1f\n      add\n      0x20\n      dup1\n      swap2\n      div\n      mul\n      0x20\n      add\n      mload(0x40)\n      swap1\n      dup2\n      add\n      0x40\n      mstore\n      dup1\n      swap3\n      swap2\n      swap1\n      dup2\n      dup2\n      mstore\n      0x20\n      add\n      dup3\n      dup1\n      sload\n      tag_107\n      swap1\n      tag_106\n      jump\t// in\n    tag_107:\n      dup1\n      iszero\n      tag_108\n      jumpi\n      dup1\n      0x1f\n      lt\n      tag_109\n      jumpi\n      0x0100\n      dup1\n      dup4\n      sload\n      div\n      mul\n      dup4\n      mstore\n      swap2\n      0x20\n      add\n      swap2\n      jump(tag_108)\n    tag_109:\n      dup3\n      add\n      swap2\n      swap1\n      0x00\n      mstore\n      keccak256(0x00, 0x20)\n      swap1\n    tag_110:\n      dup2\n      sload\n      dup2\n      mstore\n      swap1\n      0x01\n      add\n      swap1\n      0x20\n      add\n      dup1\n      dup4\n      gt\n      tag_110\n      jumpi\n      dup3\n      swap1\n      sub\n      0x1f\n      and\n      dup3\n      add\n      swap2\n    tag_108:\n      pop\n      pop\n      pop\n      pop\n      pop\n      swap1\n      pop\n        /* \"ERC20/ERC20Upgradeable.sol\":2522:2622  function name() public view virtual override returns (string memory) {... */\n      swap1\n      jump\t// out\n        /* \"ERC20/ERC20Upgradeable.sol\":4873:5074  function approve(address spender, uint256 amount) public virtual override returns (bool) {... */\n    tag_34:\n        /* \"ERC20/ERC20Upgradeable.sol\":4956:4960  bool */\n      0x00\n        /* \"ERC20/ERC20Upgradeable.sol\":4973:4986  address owner */\n      dup1\n        /* \"ERC20/ERC20Upgradeable.sol\":4989:5001  _msgSender() */\n      tag_112\n        /* \"ERC20/ERC20Upgradeable.sol\":4989:4999  _msgSender */\n      tag_113\n        /* \"ERC20/ERC20Upgradeable.sol\":4989:5001  _msgSender() */\n      jump\t// in\n    tag_112:\n        /* \"ERC20/ERC20Upgradeable.sol\":4973:5001  address owner = _msgSender() */\n      swap1\n      pop\n        /* \"ERC20/ERC20Upgradeable.sol\":5012:5044  _approve(owner, spender, amount) */\n      tag_114\n        /* \"ERC20/ERC20Upgradeable.sol\":5021:5026  owner */\n      dup2\n        /* \"ERC20/ERC20Upgradeable.sol\":5028:5035  spender */\n      dup6\n        /* \"ERC20/ERC20Upgradeable.sol\":5037:5043  amount */\n      dup6\n        /* \"ERC20/ERC20Upgradeable.sol\":5012:5020  _approve */\n      tag_115\n        /* \"ERC20/ERC20Upgradeable.sol\":5012:5044  _approve(owner, spender, amount) */\n      jump\t// in\n    tag_114:\n        /* \"ERC20/ERC20Upgradeable.sol\":5062:5066  true */\n      0x01\n        /* \"ERC20/ERC20Upgradeable.sol\":5055:5066  return true */\n      swap2\n      pop\n      pop\n        /* \"ERC20/ERC20Upgradeable.sol\":4873:5074  function approve(address spender, uint256 amount) public virtual override returns (bool) {... */\n      swap3\n      swap2\n      pop\n      pop\n      jump\t// out\n        /* \"ERC20/ERC20Upgradeable.sol\":3642:3750  function totalSupply() public view virtual override returns (uint256) {... */\n    tag_38:\n        /* \"ERC20/ERC20Upgradeable.sol\":3703:3710  uint256 */\n      0x00\n        /* \"ERC20/ERC20Upgradeable.sol\":3730:3742  _totalSupply */\n      sload(0x35)\n        /* \"ERC20/ERC20Upgradeable.sol\":3723:3742  return _totalSupply */\n      swap1\n      pop\n        /* \"ERC20/ERC20Upgradeable.sol\":3642:3750  function totalSupply() public view virtual override returns (uint256) {... */\n      swap1\n      jump\t// out\n        /* \"ERC20/ERC20Upgradeable.sol\":5654:5949  function transferFrom(... */\n    tag_44:\n        /* \"ERC20/ERC20Upgradeable.sol\":5785:5789  bool */\n      0x00\n        /* \"ERC20/ERC20Upgradeable.sol\":5802:5817  address spender */\n      dup1\n        /* \"ERC20/ERC20Upgradeable.sol\":5820:5832  _msgSender() */\n      tag_118\n        /* \"ERC20/ERC20Upgradeable.sol\":5820:5830  _msgSender */\n      tag_113\n        /* \"ERC20/ERC20Upgradeable.sol\":5820:5832  _msgSender() */\n      jump\t// in\n    tag_118:\n        /* \"ERC20/ERC20Upgradeable.sol\":5802:5832  address spender = _msgSender() */\n      swap1\n      pop\n        /* \"ERC20/ERC20Upgradeable.sol\":5843:5881  _spendAllowance(from, spender, amount) */\n      tag_119\n        /* \"ERC20/ERC20Upgradeable.sol\":5859:5863  from */\n      dup6\n        /* \"ERC20/ERC20Upgradeable.sol\":5865:5872  spender */\n      dup3\n        /* \"ERC20/ERC20Upgradeable.sol\":5874:5880  amount */\n      dup6\n        /* \"ERC20/ERC20Upgradeable.sol\":5843:5858  _spendAllowance */\n      tag_120\n        /* \"ERC20/ERC20Upgradeable.sol\":5843:5881  _spendAllowance(from, spender, amount) */\n      jump\t// in\n    tag_119:\n        /* \"ERC20/ERC20Upgradeable.sol\":5892:5919  _transfer(from, to, amount) */\n      tag_121\n        /* \"ERC20/ERC20Upgradeable.sol\":5902:5906  from */\n      dup6\n        /* \"ERC20/ERC20Upgradeable.sol\":5908:5910  to */\n      dup6\n        /* \"ERC20/ERC20Upgradeable.sol\":5912:5918  amount */\n      dup6\n        /* \"ERC20/ERC20Upgradeable.sol\":5892:5901  _transfer */\n      tag_122\n        /* \"ERC20/ERC20Upgradeable.sol\":5892:5919  _transfer(from, to, amount) */\n      jump\t// in\n    tag_121:\n        /* \"ERC20/ERC20Upgradeable.sol\":5937:5941  true */\n      0x01\n        /* \"ERC20/ERC20Upgradeable.sol\":5930:5941  return true */\n      swap2\n      pop\n      pop\n        /* \"ERC20/ERC20Upgradeable.sol\":5654:5949  function transferFrom(... */\n      swap4\n      swap3\n      pop\n      pop\n      pop\n      jump\t// out\n        /* \"ERC20/ERC20Upgradeable.sol\":3484:3577  function decimals() public view virtual override returns (uint8) {... */\n    tag_47:\n        /* \"ERC20/ERC20Upgradeable.sol\":3542:3547  uint8 */\n      0x00\n        /* \"ERC20/ERC20Upgradeable.sol\":3567:3569  18 */\n      0x12\n        /* \"ERC20/ERC20Upgradeable.sol\":3560:3569  return 18 */\n      swap1\n      pop\n        /* \"ERC20/ERC20Upgradeable.sol\":3484:3577  function decimals() public view virtual override returns (uint8) {... */\n      swap1\n      jump\t// out\n        /* \"ERC20/ERC20Upgradeable.sol\":6358:6596  function increaseAllowance(address spender, uint256 addedValue) public virtual returns (bool) {... */\n    tag_52:\n        /* \"ERC20/ERC20Upgradeable.sol\":6446:6450  bool */\n      0x00\n        /* \"ERC20/ERC20Upgradeable.sol\":6463:6476  address owner */\n      dup1\n        /* \"ERC20/ERC20Upgradeable.sol\":6479:6491  _msgSender() */\n      tag_125\n        /* \"ERC20/ERC20Upgradeable.sol\":6479:6489  _msgSender */\n      tag_113\n        /* \"ERC20/ERC20Upgradeable.sol\":6479:6491  _msgSender() */\n      jump\t// in\n    tag_125:\n        /* \"ERC20/ERC20Upgradeable.sol\":6463:6491  address owner = _msgSender() */\n      swap1\n      pop\n        /* \"ERC20/ERC20Upgradeable.sol\":6502:6566  _approve(owner, spender, allowance(owner, spender) + addedValue) */\n      tag_126\n        /* \"ERC20/ERC20Upgradeable.sol\":6511:6516  owner */\n      dup2\n        /* \"ERC20/ERC20Upgradeable.sol\":6518:6525  spender */\n      dup6\n        /* \"ERC20/ERC20Upgradeable.sol\":6555:6565  addedValue */\n      dup6\n        /* \"ERC20/ERC20Upgradeable.sol\":6527:6552  allowance(owner, spender) */\n      tag_127\n        /* \"ERC20/ERC20Upgradeable.sol\":6537:6542  owner */\n      dup6\n        /* \"ERC20/ERC20Upgradeable.sol\":6544:6551  spender */\n      dup10\n        /* \"ERC20/ERC20Upgradeable.sol\":6527:6536  allowance */\n      tag_98\n        /* \"ERC20/ERC20Upgradeable.sol\":6527:6552  allowance(owner, spender) */\n      jump\t// in\n    tag_127:\n        /* \"ERC20/ERC20Upgradeable.sol\":6527:6565  allowance(owner, spender) + addedValue */\n      tag_128\n      swap2\n      swap1\n      tag_129\n      jump\t// in\n    tag_128:\n        /* \"ERC20/ERC20Upgradeable.sol\":6502:6510  _approve */\n      tag_115\n        /* \"ERC20/ERC20Upgradeable.sol\":6502:6566  _approve(owner, spender, allowance(owner, spender) + addedValue) */\n      jump\t// in\n    tag_126:\n        /* \"ERC20/ERC20Upgradeable.sol\":6584:6588  true */\n      0x01\n        /* \"ERC20/ERC20Upgradeable.sol\":6577:6588  return true */\n      swap2\n      pop\n      pop\n        /* \"ERC20/ERC20Upgradeable.sol\":6358:6596  function increaseAllowance(address spender, uint256 addedValue) public virtual returns (bool) {... */\n      swap3\n      swap2\n      pop\n      pop\n      jump\t// out\n        /* \"ERC20/MyToken.sol\":740:805  function unpause() public onlyOwner {... */\n    tag_55:\n        /* \"ERC20/OwnableUpgradeable.sol\":1526:1538  _msgSender() */\n      tag_131\n        /* \"ERC20/OwnableUpgradeable.sol\":1526:1536  _msgSender */\n      tag_113\n        /* \"ERC20/OwnableUpgradeable.sol\":1526:1538  _msgSender() */\n      jump\t// in\n    tag_131:\n        /* \"ERC20/OwnableUpgradeable.sol\":1515:1538  owner() == _msgSender() */\n      0xffffffffffffffffffffffffffffffffffffffff\n      and\n        /* \"ERC20/OwnableUpgradeable.sol\":1515:1522  owner() */\n      tag_132\n        /* \"ERC20/OwnableUpgradeable.sol\":1515:1520  owner */\n      tag_81\n        /* \"ERC20/OwnableUpgradeable.sol\":1515:1522  owner() */\n      jump\t// in\n    tag_132:\n        /* \"ERC20/OwnableUpgradeable.sol\":1515:1538  owner() == _msgSender() */\n      0xffffffffffffffffffffffffffffffffffffffff\n      and\n      eq\n        /* \"ERC20/OwnableUpgradeable.sol\":1507:1575  require(owner() == _msgSender(), \"Ownable: caller is not the owner\") */\n      tag_133\n      jumpi\n      mload(0x40)\n      0x08c379a000000000000000000000000000000000000000000000000000000000\n      dup2\n      mstore\n      0x04\n      add\n      tag_134\n      swap1\n      tag_135\n      jump\t// in\n    tag_134:\n      mload(0x40)\n      dup1\n      swap2\n      sub\n      swap1\n      revert\n    tag_133:\n        /* \"ERC20/MyToken.sol\":787:797  _unpause() */\n      tag_137\n        /* \"ERC20/MyToken.sol\":787:795  _unpause */\n      tag_138\n        /* \"ERC20/MyToken.sol\":787:797  _unpause() */\n      jump\t// in\n    tag_137:\n        /* \"ERC20/MyToken.sol\":740:805  function unpause() public onlyOwner {... */\n      jump\t// out\n        /* \"ERC20/MyToken.sol\":813:908  function mint(address to, uint256 amount) public onlyOwner {... */\n    tag_58:\n        /* \"ERC20/OwnableUpgradeable.sol\":1526:1538  _msgSender() */\n      tag_140\n        /* \"ERC20/OwnableUpgradeable.sol\":1526:1536  _msgSender */\n      tag_113\n        /* \"ERC20/OwnableUpgradeable.sol\":1526:1538  _msgSender() */\n      jump\t// in\n    tag_140:\n        /* \"ERC20/OwnableUpgradeable.sol\":1515:1538  owner() == _msgSender() */\n      0xffffffffffffffffffffffffffffffffffffffff\n      and\n        /* \"ERC20/OwnableUpgradeable.sol\":1515:1522  owner() */\n      tag_141\n        /* \"ERC20/OwnableUpgradeable.sol\":1515:1520  owner */\n      tag_81\n        /* \"ERC20/OwnableUpgradeable.sol\":1515:1522  owner() */\n      jump\t// in\n    tag_141:\n        /* \"ERC20/OwnableUpgradeable.sol\":1515:1538  owner() == _msgSender() */\n      0xffffffffffffffffffffffffffffffffffffffff\n      and\n      eq\n        /* \"ERC20/OwnableUpgradeable.sol\":1507:1575  require(owner() == _msgSender(), \"Ownable: caller is not the owner\") */\n      tag_142\n      jumpi\n      mload(0x40)\n      0x08c379a000000000000000000000000000000000000000000000000000000000\n      dup2\n      mstore\n      0x04\n      add\n      tag_143\n      swap1\n      tag_135\n      jump\t// in\n    tag_143:\n      mload(0x40)\n      dup1\n      swap2\n      sub\n      swap1\n      revert\n    tag_142:\n        /* \"ERC20/MyToken.sol\":883:900  _mint(to, amount) */\n      tag_145\n        /* \"ERC20/MyToken.sol\":889:891  to */\n      dup3\n        /* \"ERC20/MyToken.sol\":893:899  amount */\n      dup3\n        /* \"ERC20/MyToken.sol\":883:888  _mint */\n      tag_146\n        /* \"ERC20/MyToken.sol\":883:900  _mint(to, amount) */\n      jump\t// in\n    tag_145:\n        /* \"ERC20/MyToken.sol\":813:908  function mint(address to, uint256 amount) public onlyOwner {... */\n      pop\n      pop\n      jump\t// out\n        /* \"ERC20/ERC20BurnableUpgradeable.sol\":840:931  function burn(uint256 amount) public virtual {... */\n    tag_62:\n        /* \"ERC20/ERC20BurnableUpgradeable.sol\":896:923  _burn(_msgSender(), amount) */\n      tag_148\n        /* \"ERC20/ERC20BurnableUpgradeable.sol\":902:914  _msgSender() */\n      tag_149\n        /* \"ERC20/ERC20BurnableUpgradeable.sol\":902:912  _msgSender */\n      tag_113\n        /* \"ERC20/ERC20BurnableUpgradeable.sol\":902:914  _msgSender() */\n      jump\t// in\n    tag_149:\n        /* \"ERC20/ERC20BurnableUpgradeable.sol\":916:922  amount */\n      dup3\n        /* \"ERC20/ERC20BurnableUpgradeable.sol\":896:901  _burn */\n      tag_150\n        /* \"ERC20/ERC20BurnableUpgradeable.sol\":896:923  _burn(_msgSender(), amount) */\n      jump\t// in\n    tag_148:\n        /* \"ERC20/ERC20BurnableUpgradeable.sol\":840:931  function burn(uint256 amount) public virtual {... */\n      pop\n      jump\t// out\n        /* \"ERC20/PausableUpgradeable.sol\":1365:1451  function paused() public view virtual returns (bool) {... */\n    tag_64:\n        /* \"ERC20/PausableUpgradeable.sol\":1412:1416  bool */\n      0x00\n        /* \"ERC20/PausableUpgradeable.sol\":1436:1443  _paused */\n      0x97\n      0x00\n      swap1\n      sload\n      swap1\n      0x0100\n      exp\n      swap1\n      div\n      0xff\n      and\n        /* \"ERC20/PausableUpgradeable.sol\":1429:1443  return _paused */\n      swap1\n      pop\n        /* \"ERC20/PausableUpgradeable.sol\":1365:1451  function paused() public view virtual returns (bool) {... */\n      swap1\n      jump\t// out\n        /* \"ERC20/ERC20Upgradeable.sol\":3813:3940  function balanceOf(address account) public view virtual override returns (uint256) {... */\n    tag_69:\n        /* \"ERC20/ERC20Upgradeable.sol\":3887:3894  uint256 */\n      0x00\n        /* \"ERC20/ERC20Upgradeable.sol\":3914:3923  _balances */\n      0x33\n        /* \"ERC20/ERC20Upgradeable.sol\":3914:3932  _balances[account] */\n      0x00\n        /* \"ERC20/ERC20Upgradeable.sol\":3924:3931  account */\n      dup4\n        /* \"ERC20/ERC20Upgradeable.sol\":3914:3932  _balances[account] */\n      0xffffffffffffffffffffffffffffffffffffffff\n      and\n      0xffffffffffffffffffffffffffffffffffffffff\n      and\n      dup2\n      mstore\n      0x20\n      add\n      swap1\n      dup2\n      mstore\n      0x20\n      add\n      0x00\n      keccak256\n      sload\n        /* \"ERC20/ERC20Upgradeable.sol\":3907:3932  return _balances[account] */\n      swap1\n      pop\n        /* \"ERC20/ERC20Upgradeable.sol\":3813:3940  function balanceOf(address account) public view virtual override returns (uint256) {... */\n      swap2\n      swap1\n      pop\n      jump\t// out\n        /* \"ERC20/OwnableUpgradeable.sol\":1946:2049  function renounceOwnership() public virtual onlyOwner {... */\n    tag_72:\n        /* \"ERC20/OwnableUpgradeable.sol\":1526:1538  _msgSender() */\n      tag_154\n        /* \"ERC20/OwnableUpgradeable.sol\":1526:1536  _msgSender */\n      tag_113\n        /* \"ERC20/OwnableUpgradeable.sol\":1526:1538  _msgSender() */\n      jump\t// in\n    tag_154:\n        /* \"ERC20/OwnableUpgradeable.sol\":1515:1538  owner() == _msgSender() */\n      0xffffffffffffffffffffffffffffffffffffffff\n      and\n        /* \"ERC20/OwnableUpgradeable.sol\":1515:1522  owner() */\n      tag_155\n        /* \"ERC20/OwnableUpgradeable.sol\":1515:1520  owner */\n      tag_81\n        /* \"ERC20/OwnableUpgradeable.sol\":1515:1522  owner() */\n      jump\t// in\n    tag_155:\n        /* \"ERC20/OwnableUpgradeable.sol\":1515:1538  owner() == _msgSender() */\n      0xffffffffffffffffffffffffffffffffffffffff\n      and\n      eq\n        /* \"ERC20/OwnableUpgradeable.sol\":1507:1575  require(owner() == _msgSender(), \"Ownable: caller is not the owner\") */\n      tag_156\n      jumpi\n      mload(0x40)\n      0x08c379a000000000000000000000000000000000000000000000000000000000\n      dup2\n      mstore\n      0x04\n      add\n      tag_157\n      swap1\n      tag_135\n      jump\t// in\n    tag_157:\n      mload(0x40)\n      dup1\n      swap2\n      sub\n      swap1\n      revert\n    tag_156:\n        /* \"ERC20/OwnableUpgradeable.sol\":2011:2041  _transferOwnership(address(0)) */\n      tag_159\n        /* \"ERC20/OwnableUpgradeable.sol\":2038:2039  0 */\n      0x00\n        /* \"ERC20/OwnableUpgradeable.sol\":2011:2029  _transferOwnership */\n      tag_160\n        /* \"ERC20/OwnableUpgradeable.sol\":2011:2041  _transferOwnership(address(0)) */\n      jump\t// in\n    tag_159:\n        /* \"ERC20/OwnableUpgradeable.sol\":1946:2049  function renounceOwnership() public virtual onlyOwner {... */\n      jump\t// out\n        /* \"ERC20/ERC20BurnableUpgradeable.sol\":1250:1414  function burnFrom(address account, uint256 amount) public virtual {... */\n    tag_75:\n        /* \"ERC20/ERC20BurnableUpgradeable.sol\":1327:1373  _spendAllowance(account, _msgSender(), amount) */\n      tag_162\n        /* \"ERC20/ERC20BurnableUpgradeable.sol\":1343:1350  account */\n      dup3\n        /* \"ERC20/ERC20BurnableUpgradeable.sol\":1352:1364  _msgSender() */\n      tag_163\n        /* \"ERC20/ERC20BurnableUpgradeable.sol\":1352:1362  _msgSender */\n      tag_113\n        /* \"ERC20/ERC20BurnableUpgradeable.sol\":1352:1364  _msgSender() */\n      jump\t// in\n    tag_163:\n        /* \"ERC20/ERC20BurnableUpgradeable.sol\":1366:1372  amount */\n      dup4\n        /* \"ERC20/ERC20BurnableUpgradeable.sol\":1327:1342  _spendAllowance */\n      tag_120\n        /* \"ERC20/ERC20BurnableUpgradeable.sol\":1327:1373  _spendAllowance(account, _msgSender(), amount) */\n      jump\t// in\n    tag_162:\n        /* \"ERC20/ERC20BurnableUpgradeable.sol\":1384:1406  _burn(account, amount) */\n      tag_164\n        /* \"ERC20/ERC20BurnableUpgradeable.sol\":1390:1397  account */\n      dup3\n        /* \"ERC20/ERC20BurnableUpgradeable.sol\":1399:1405  amount */\n      dup3\n        /* \"ERC20/ERC20BurnableUpgradeable.sol\":1384:1389  _burn */\n      tag_150\n        /* \"ERC20/ERC20BurnableUpgradeable.sol\":1384:1406  _burn(account, amount) */\n      jump\t// in\n    tag_164:\n        /* \"ERC20/ERC20BurnableUpgradeable.sol\":1250:1414  function burnFrom(address account, uint256 amount) public virtual {... */\n      pop\n      pop\n      jump\t// out\n        /* \"ERC20/MyToken.sol\":485:663  function initialize() initializer public {... */\n    tag_77:\n        /* \"ERC20/Initializable.sol\":3179:3198  bool isTopLevelCall */\n      0x00\n        /* \"ERC20/Initializable.sol\":3201:3226  _setInitializedVersion(1) */\n      tag_166\n        /* \"ERC20/Initializable.sol\":3224:3225  1 */\n      0x01\n        /* \"ERC20/Initializable.sol\":3201:3223  _setInitializedVersion */\n      tag_167\n        /* \"ERC20/Initializable.sol\":3201:3226  _setInitializedVersion(1) */\n      jump\t// in\n    tag_166:\n        /* \"ERC20/Initializable.sol\":3179:3226  bool isTopLevelCall = _setInitializedVersion(1) */\n      swap1\n      pop\n        /* \"ERC20/Initializable.sol\":3241:3255  isTopLevelCall */\n      dup1\n        /* \"ERC20/Initializable.sol\":3237:3304  if (isTopLevelCall) {... */\n      iszero\n      tag_168\n      jumpi\n        /* \"ERC20/Initializable.sol\":3288:3292  true */\n      0x01\n        /* \"ERC20/Initializable.sol\":3272:3285  _initializing */\n      0x00\n      0x01\n        /* \"ERC20/Initializable.sol\":3272:3292  _initializing = true */\n      0x0100\n      exp\n      dup2\n      sload\n      dup2\n      0xff\n      mul\n      not\n      and\n      swap1\n      dup4\n      iszero\n      iszero\n      mul\n      or\n      swap1\n      sstore\n      pop\n        /* \"ERC20/Initializable.sol\":3237:3304  if (isTopLevelCall) {... */\n    tag_168:\n        /* \"ERC20/MyToken.sol\":537:567  __ERC20_init(\"MyToken\", \"MTK\") */\n      tag_170\n      mload(0x40)\n      dup1\n      0x40\n      add\n      0x40\n      mstore\n      dup1\n      0x07\n      dup2\n      mstore\n      0x20\n      add\n      0x4d79546f6b656e00000000000000000000000000000000000000000000000000\n      dup2\n      mstore\n      pop\n      mload(0x40)\n      dup1\n      0x40\n      add\n      0x40\n      mstore\n      dup1\n      0x03\n      dup2\n      mstore\n      0x20\n      add\n      0x4d544b0000000000000000000000000000000000000000000000000000000000\n      dup2\n      mstore\n      pop\n        /* \"ERC20/MyToken.sol\":537:549  __ERC20_init */\n      tag_171\n        /* \"ERC20/MyToken.sol\":537:567  __ERC20_init(\"MyToken\", \"MTK\") */\n      jump\t// in\n    tag_170:\n        /* \"ERC20/MyToken.sol\":578:600  __ERC20Burnable_init() */\n      tag_172\n        /* \"ERC20/MyToken.sol\":578:598  __ERC20Burnable_init */\n      tag_173\n        /* \"ERC20/MyToken.sol\":578:600  __ERC20Burnable_init() */\n      jump\t// in\n    tag_172:\n        /* \"ERC20/MyToken.sol\":611:628  __Pausable_init() */\n      tag_174\n        /* \"ERC20/MyToken.sol\":611:626  __Pausable_init */\n      tag_175\n        /* \"ERC20/MyToken.sol\":611:628  __Pausable_init() */\n      jump\t// in\n    tag_174:\n        /* \"ERC20/MyToken.sol\":639:655  __Ownable_init() */\n      tag_176\n        /* \"ERC20/MyToken.sol\":639:653  __Ownable_init */\n      tag_177\n        /* \"ERC20/MyToken.sol\":639:655  __Ownable_init() */\n      jump\t// in\n    tag_176:\n        /* \"ERC20/Initializable.sol\":3330:3344  isTopLevelCall */\n      dup1\n        /* \"ERC20/Initializable.sol\":3326:3428  if (isTopLevelCall) {... */\n      iszero\n      tag_178\n      jumpi\n        /* \"ERC20/Initializable.sol\":3377:3382  false */\n      0x00\n        /* \"ERC20/Initializable.sol\":3361:3374  _initializing */\n      dup1\n      0x01\n        /* \"ERC20/Initializable.sol\":3361:3382  _initializing = false */\n      0x0100\n      exp\n      dup2\n      sload\n      dup2\n      0xff\n      mul\n      not\n      and\n      swap1\n      dup4\n      iszero\n      iszero\n      mul\n      or\n      swap1\n      sstore\n      pop\n        /* \"ERC20/Initializable.sol\":3402:3416  Initialized(1) */\n      0x7f26b83ff96e1f2b6a682f133852f6798a09c465da95921460cefb3847402498\n        /* \"ERC20/Initializable.sol\":3414:3415  1 */\n      0x01\n        /* \"ERC20/Initializable.sol\":3402:3416  Initialized(1) */\n      mload(0x40)\n      tag_179\n      swap2\n      swap1\n      tag_180\n      jump\t// in\n    tag_179:\n      mload(0x40)\n      dup1\n      swap2\n      sub\n      swap1\n      log1\n        /* \"ERC20/Initializable.sol\":3326:3428  if (isTopLevelCall) {... */\n    tag_178:\n        /* \"ERC20/Initializable.sol\":3168:3435  {... */\n      pop\n        /* \"ERC20/MyToken.sol\":485:663  function initialize() initializer public {... */\n      jump\t// out\n        /* \"ERC20/MyToken.sol\":671:732  function pause() public onlyOwner {... */\n    tag_79:\n        /* \"ERC20/OwnableUpgradeable.sol\":1526:1538  _msgSender() */\n      tag_182\n        /* \"ERC20/OwnableUpgradeable.sol\":1526:1536  _msgSender */\n      tag_113\n        /* \"ERC20/OwnableUpgradeable.sol\":1526:1538  _msgSender() */\n      jump\t// in\n    tag_182:\n        /* \"ERC20/OwnableUpgradeable.sol\":1515:1538  owner() == _msgSender() */\n      0xffffffffffffffffffffffffffffffffffffffff\n      and\n        /* \"ERC20/OwnableUpgradeable.sol\":1515:1522  owner() */\n      tag_183\n        /* \"ERC20/OwnableUpgradeable.sol\":1515:1520  owner */\n      tag_81\n        /* \"ERC20/OwnableUpgradeable.sol\":1515:1522  owner() */\n      jump\t// in\n    tag_183:\n        /* \"ERC20/OwnableUpgradeable.sol\":1515:1538  owner() == _msgSender() */\n      0xffffffffffffffffffffffffffffffffffffffff\n      and\n      eq\n        /* \"ERC20/OwnableUpgradeable.sol\":1507:1575  require(owner() == _msgSender(), \"Ownable: caller is not the owner\") */\n      tag_184\n      jumpi\n      mload(0x40)\n      0x08c379a000000000000000000000000000000000000000000000000000000000\n      dup2\n      mstore\n      0x04\n      add\n      tag_185\n      swap1\n      tag_135\n      jump\t// in\n    tag_185:\n      mload(0x40)\n      dup1\n      swap2\n      sub\n      swap1\n      revert\n    tag_184:\n        /* \"ERC20/MyToken.sol\":716:724  _pause() */\n      tag_187\n        /* \"ERC20/MyToken.sol\":716:722  _pause */\n      tag_188\n        /* \"ERC20/MyToken.sol\":716:724  _pause() */\n      jump\t// in\n    tag_187:\n        /* \"ERC20/MyToken.sol\":671:732  function pause() public onlyOwner {... */\n      jump\t// out\n        /* \"ERC20/OwnableUpgradeable.sol\":1295:1382  function owner() public view virtual returns (address) {... */\n    tag_81:\n        /* \"ERC20/OwnableUpgradeable.sol\":1341:1348  address */\n      0x00\n        /* \"ERC20/OwnableUpgradeable.sol\":1368:1374  _owner */\n      0xc9\n      0x00\n      swap1\n      sload\n      swap1\n      0x0100\n      exp\n      swap1\n      div\n      0xffffffffffffffffffffffffffffffffffffffff\n      and\n        /* \"ERC20/OwnableUpgradeable.sol\":1361:1374  return _owner */\n      swap1\n      pop\n        /* \"ERC20/OwnableUpgradeable.sol\":1295:1382  function owner() public view virtual returns (address) {... */\n      swap1\n      jump\t// out\n        /* \"ERC20/ERC20Upgradeable.sol\":2741:2845  function symbol() public view virtual override returns (string memory) {... */\n    tag_85:\n        /* \"ERC20/ERC20Upgradeable.sol\":2797:2810  string memory */\n      0x60\n        /* \"ERC20/ERC20Upgradeable.sol\":2830:2837  _symbol */\n      0x37\n        /* \"ERC20/ERC20Upgradeable.sol\":2823:2837  return _symbol */\n      dup1\n      sload\n      tag_191\n      swap1\n      tag_106\n      jump\t// in\n    tag_191:\n      dup1\n      0x1f\n      add\n      0x20\n      dup1\n      swap2\n      div\n      mul\n      0x20\n      add\n      mload(0x40)\n      swap1\n      dup2\n      add\n      0x40\n      mstore\n      dup1\n      swap3\n      swap2\n      swap1\n      dup2\n      dup2\n      mstore\n      0x20\n      add\n      dup3\n      dup1\n      sload\n      tag_192\n      swap1\n      tag_106\n      jump\t// in\n    tag_192:\n      dup1\n      iszero\n      tag_193\n      jumpi\n      dup1\n      0x1f\n      lt\n      tag_194\n      jumpi\n      0x0100\n      dup1\n      dup4\n      sload\n      div\n      mul\n      dup4\n      mstore\n      swap2\n      0x20\n      add\n      swap2\n      jump(tag_193)\n    tag_194:\n      dup3\n      add\n      swap2\n      swap1\n      0x00\n      mstore\n      keccak256(0x00, 0x20)\n      swap1\n    tag_195:\n      dup2\n      sload\n      dup2\n      mstore\n      swap1\n      0x01\n      add\n      swap1\n      0x20\n      add\n      dup1\n      dup4\n      gt\n      tag_195\n      jumpi\n      dup3\n      swap1\n      sub\n      0x1f\n      and\n      dup3\n      add\n      swap2\n    tag_193:\n      pop\n      pop\n      pop\n      pop\n      pop\n      swap1\n      pop\n        /* \"ERC20/ERC20Upgradeable.sol\":2741:2845  function symbol() public view virtual override returns (string memory) {... */\n      swap1\n      jump\t// out\n        /* \"ERC20/ERC20Upgradeable.sol\":7099:7535  function decreaseAllowance(address spender, uint256 subtractedValue) public virtual returns (bool) {... */\n    tag_89:\n        /* \"ERC20/ERC20Upgradeable.sol\":7192:7196  bool */\n      0x00\n        /* \"ERC20/ERC20Upgradeable.sol\":7209:7222  address owner */\n      dup1\n        /* \"ERC20/ERC20Upgradeable.sol\":7225:7237  _msgSender() */\n      tag_197\n        /* \"ERC20/ERC20Upgradeable.sol\":7225:7235  _msgSender */\n      tag_113\n        /* \"ERC20/ERC20Upgradeable.sol\":7225:7237  _msgSender() */\n      jump\t// in\n    tag_197:\n        /* \"ERC20/ERC20Upgradeable.sol\":7209:7237  address owner = _msgSender() */\n      swap1\n      pop\n        /* \"ERC20/ERC20Upgradeable.sol\":7248:7272  uint256 currentAllowance */\n      0x00\n        /* \"ERC20/ERC20Upgradeable.sol\":7275:7300  allowance(owner, spender) */\n      tag_198\n        /* \"ERC20/ERC20Upgradeable.sol\":7285:7290  owner */\n      dup3\n        /* \"ERC20/ERC20Upgradeable.sol\":7292:7299  spender */\n      dup7\n        /* \"ERC20/ERC20Upgradeable.sol\":7275:7284  allowance */\n      tag_98\n        /* \"ERC20/ERC20Upgradeable.sol\":7275:7300  allowance(owner, spender) */\n      jump\t// in\n    tag_198:\n        /* \"ERC20/ERC20Upgradeable.sol\":7248:7300  uint256 currentAllowance = allowance(owner, spender) */\n      swap1\n      pop\n        /* \"ERC20/ERC20Upgradeable.sol\":7339:7354  subtractedValue */\n      dup4\n        /* \"ERC20/ERC20Upgradeable.sol\":7319:7335  currentAllowance */\n      dup2\n        /* \"ERC20/ERC20Upgradeable.sol\":7319:7354  currentAllowance >= subtractedValue */\n      lt\n      iszero\n        /* \"ERC20/ERC20Upgradeable.sol\":7311:7396  require(currentAllowance >= subtractedValue, \"ERC20: decreased allowance below zero\") */\n      tag_199\n      jumpi\n      mload(0x40)\n      0x08c379a000000000000000000000000000000000000000000000000000000000\n      dup2\n      mstore\n      0x04\n      add\n      tag_200\n      swap1\n      tag_201\n      jump\t// in\n    tag_200:\n      mload(0x40)\n      dup1\n      swap2\n      sub\n      swap1\n      revert\n    tag_199:\n        /* \"ERC20/ERC20Upgradeable.sol\":7432:7492  _approve(owner, spender, currentAllowance - subtractedValue) */\n      tag_202\n        /* \"ERC20/ERC20Upgradeable.sol\":7441:7446  owner */\n      dup3\n        /* \"ERC20/ERC20Upgradeable.sol\":7448:7455  spender */\n      dup7\n        /* \"ERC20/ERC20Upgradeable.sol\":7476:7491  subtractedValue */\n      dup7\n        /* \"ERC20/ERC20Upgradeable.sol\":7457:7473  currentAllowance */\n      dup5\n        /* \"ERC20/ERC20Upgradeable.sol\":7457:7491  currentAllowance - subtractedValue */\n      sub\n        /* \"ERC20/ERC20Upgradeable.sol\":7432:7440  _approve */\n      tag_115\n        /* \"ERC20/ERC20Upgradeable.sol\":7432:7492  _approve(owner, spender, currentAllowance - subtractedValue) */\n      jump\t// in\n    tag_202:\n        /* \"ERC20/ERC20Upgradeable.sol\":7523:7527  true */\n      0x01\n        /* \"ERC20/ERC20Upgradeable.sol\":7516:7527  return true */\n      swap3\n      pop\n      pop\n      pop\n        /* \"ERC20/ERC20Upgradeable.sol\":7099:7535  function decreaseAllowance(address spender, uint256 subtractedValue) public virtual returns (bool) {... */\n      swap3\n      swap2\n      pop\n      pop\n      jump\t// out\n        /* \"ERC20/ERC20Upgradeable.sol\":4146:4339  function transfer(address to, uint256 amount) public virtual override returns (bool) {... */\n    tag_93:\n        /* \"ERC20/ERC20Upgradeable.sol\":4225:4229  bool */\n      0x00\n        /* \"ERC20/ERC20Upgradeable.sol\":4242:4255  address owner */\n      dup1\n        /* \"ERC20/ERC20Upgradeable.sol\":4258:4270  _msgSender() */\n      tag_204\n        /* \"ERC20/ERC20Upgradeable.sol\":4258:4268  _msgSender */\n      tag_113\n        /* \"ERC20/ERC20Upgradeable.sol\":4258:4270  _msgSender() */\n      jump\t// in\n    tag_204:\n        /* \"ERC20/ERC20Upgradeable.sol\":4242:4270  address owner = _msgSender() */\n      swap1\n      pop\n        /* \"ERC20/ERC20Upgradeable.sol\":4281:4309  _transfer(owner, to, amount) */\n      tag_205\n        /* \"ERC20/ERC20Upgradeable.sol\":4291:4296  owner */\n      dup2\n        /* \"ERC20/ERC20Upgradeable.sol\":4298:4300  to */\n      dup6\n        /* \"ERC20/ERC20Upgradeable.sol\":4302:4308  amount */\n      dup6\n        /* \"ERC20/ERC20Upgradeable.sol\":4281:4290  _transfer */\n      tag_122\n        /* \"ERC20/ERC20Upgradeable.sol\":4281:4309  _transfer(owner, to, amount) */\n      jump\t// in\n    tag_205:\n        /* \"ERC20/ERC20Upgradeable.sol\":4327:4331  true */\n      0x01\n        /* \"ERC20/ERC20Upgradeable.sol\":4320:4331  return true */\n      swap2\n      pop\n      pop\n        /* \"ERC20/ERC20Upgradeable.sol\":4146:4339  function transfer(address to, uint256 amount) public virtual override returns (bool) {... */\n      swap3\n      swap2\n      pop\n      pop\n      jump\t// out\n        /* \"ERC20/ERC20Upgradeable.sol\":4402:4553  function allowance(address owner, address spender) public view virtual override returns (uint256) {... */\n    tag_98:\n        /* \"ERC20/ERC20Upgradeable.sol\":4491:4498  uint256 */\n      0x00\n        /* \"ERC20/ERC20Upgradeable.sol\":4518:4529  _allowances */\n      0x34\n        /* \"ERC20/ERC20Upgradeable.sol\":4518:4536  _allowances[owner] */\n      0x00\n        /* \"ERC20/ERC20Upgradeable.sol\":4530:4535  owner */\n      dup5\n        /* \"ERC20/ERC20Upgradeable.sol\":4518:4536  _allowances[owner] */\n      0xffffffffffffffffffffffffffffffffffffffff\n      and\n      0xffffffffffffffffffffffffffffffffffffffff\n      and\n      dup2\n      mstore\n      0x20\n      add\n      swap1\n      dup2\n      mstore\n      0x20\n      add\n      0x00\n      keccak256\n        /* \"ERC20/ERC20Upgradeable.sol\":4518:4545  _allowances[owner][spender] */\n      0x00\n        /* \"ERC20/ERC20Upgradeable.sol\":4537:4544  spender */\n      dup4\n        /* \"ERC20/ERC20Upgradeable.sol\":4518:4545  _allowances[owner][spender] */\n      0xffffffffffffffffffffffffffffffffffffffff\n      and\n      0xffffffffffffffffffffffffffffffffffffffff\n      and\n      dup2\n      mstore\n      0x20\n      add\n      swap1\n      dup2\n      mstore\n      0x20\n      add\n      0x00\n      keccak256\n      sload\n        /* \"ERC20/ERC20Upgradeable.sol\":4511:4545  return _allowances[owner][spender] */\n      swap1\n      pop\n        /* \"ERC20/ERC20Upgradeable.sol\":4402:4553  function allowance(address owner, address spender) public view virtual override returns (uint256) {... */\n      swap3\n      swap2\n      pop\n      pop\n      jump\t// out\n        /* \"ERC20/OwnableUpgradeable.sol\":2204:2405  function transferOwnership(address newOwner) public virtual onlyOwner {... */\n    tag_102:\n        /* \"ERC20/OwnableUpgradeable.sol\":1526:1538  _msgSender() */\n      tag_208\n        /* \"ERC20/OwnableUpgradeable.sol\":1526:1536  _msgSender */\n      tag_113\n        /* \"ERC20/OwnableUpgradeable.sol\":1526:1538  _msgSender() */\n      jump\t// in\n    tag_208:\n        /* \"ERC20/OwnableUpgradeable.sol\":1515:1538  owner() == _msgSender() */\n      0xffffffffffffffffffffffffffffffffffffffff\n      and\n        /* \"ERC20/OwnableUpgradeable.sol\":1515:1522  owner() */\n      tag_209\n        /* \"ERC20/OwnableUpgradeable.sol\":1515:1520  owner */\n      tag_81\n        /* \"ERC20/OwnableUpgradeable.sol\":1515:1522  owner() */\n      jump\t// in\n    tag_209:\n        /* \"ERC20/OwnableUpgradeable.sol\":1515:1538  owner() == _msgSender() */\n      0xffffffffffffffffffffffffffffffffffffffff\n      and\n      eq\n        /* \"ERC20/OwnableUpgradeable.sol\":1507:1575  require(owner() == _msgSender(), \"Ownable: caller is not the owner\") */\n      tag_210\n      jumpi\n      mload(0x40)\n      0x08c379a000000000000000000000000000000000000000000000000000000000\n      dup2\n      mstore\n      0x04\n      add\n      tag_211\n      swap1\n      tag_135\n      jump\t// in\n    tag_211:\n      mload(0x40)\n      dup1\n      swap2\n      sub\n      swap1\n      revert\n    tag_210:\n        /* \"ERC20/OwnableUpgradeable.sol\":2313:2314  0 */\n      0x00\n        /* \"ERC20/OwnableUpgradeable.sol\":2293:2315  newOwner != address(0) */\n      0xffffffffffffffffffffffffffffffffffffffff\n      and\n        /* \"ERC20/OwnableUpgradeable.sol\":2293:2301  newOwner */\n      dup2\n        /* \"ERC20/OwnableUpgradeable.sol\":2293:2315  newOwner != address(0) */\n      0xffffffffffffffffffffffffffffffffffffffff\n      and\n      eq\n      iszero\n        /* \"ERC20/OwnableUpgradeable.sol\":2285:2358  require(newOwner != address(0), \"Ownable: new owner is the zero address\") */\n      tag_213\n      jumpi\n      mload(0x40)\n      0x08c379a000000000000000000000000000000000000000000000000000000000\n      dup2\n      mstore\n      0x04\n      add\n      tag_214\n      swap1\n      tag_215\n      jump\t// in\n    tag_214:\n      mload(0x40)\n      dup1\n      swap2\n      sub\n      swap1\n      revert\n    tag_213:\n        /* \"ERC20/OwnableUpgradeable.sol\":2369:2397  _transferOwnership(newOwner) */\n      tag_216\n        /* \"ERC20/OwnableUpgradeable.sol\":2388:2396  newOwner */\n      dup2\n        /* \"ERC20/OwnableUpgradeable.sol\":2369:2387  _transferOwnership */\n      tag_160\n        /* \"ERC20/OwnableUpgradeable.sol\":2369:2397  _transferOwnership(newOwner) */\n      jump\t// in\n    tag_216:\n        /* \"ERC20/OwnableUpgradeable.sol\":2204:2405  function transferOwnership(address newOwner) public virtual onlyOwner {... */\n      pop\n      jump\t// out\n        /* \"ERC20/AddressUpgradeable.sol\":1221:1547  function isContract(address account) internal view returns (bool) {... */\n    tag_103:\n        /* \"ERC20/AddressUpgradeable.sol\":1281:1285  bool */\n      0x00\n        /* \"ERC20/AddressUpgradeable.sol\":1538:1539  0 */\n      dup1\n        /* \"ERC20/AddressUpgradeable.sol\":1516:1523  account */\n      dup3\n        /* \"ERC20/AddressUpgradeable.sol\":1516:1535  account.code.length */\n      0xffffffffffffffffffffffffffffffffffffffff\n      and\n      extcodesize\n        /* \"ERC20/AddressUpgradeable.sol\":1516:1539  account.code.length > 0 */\n      gt\n        /* \"ERC20/AddressUpgradeable.sol\":1509:1539  return account.code.length > 0 */\n      swap1\n      pop\n        /* \"ERC20/AddressUpgradeable.sol\":1221:1547  function isContract(address account) internal view returns (bool) {... */\n      swap2\n      swap1\n      pop\n      jump\t// out\n        /* \"ERC20/ContextUpgradeable.sol\":859:957  function _msgSender() internal view virtual returns (address) {... */\n    tag_113:\n        /* \"ERC20/ContextUpgradeable.sol\":912:919  address */\n      0x00\n        /* \"ERC20/ContextUpgradeable.sol\":939:949  msg.sender */\n      caller\n        /* \"ERC20/ContextUpgradeable.sol\":932:949  return msg.sender */\n      swap1\n      pop\n        /* \"ERC20/ContextUpgradeable.sol\":859:957  function _msgSender() internal view virtual returns (address) {... */\n      swap1\n      jump\t// out\n        /* \"ERC20/ERC20Upgradeable.sol\":10733:11113  function _approve(... */\n    tag_115:\n        /* \"ERC20/ERC20Upgradeable.sol\":10886:10887  0 */\n      0x00\n        /* \"ERC20/ERC20Upgradeable.sol\":10869:10888  owner != address(0) */\n      0xffffffffffffffffffffffffffffffffffffffff\n      and\n        /* \"ERC20/ERC20Upgradeable.sol\":10869:10874  owner */\n      dup4\n        /* \"ERC20/ERC20Upgradeable.sol\":10869:10888  owner != address(0) */\n      0xffffffffffffffffffffffffffffffffffffffff\n      and\n      eq\n      iszero\n        /* \"ERC20/ERC20Upgradeable.sol\":10861:10929  require(owner != address(0), \"ERC20: approve from the zero address\") */\n      tag_220\n      jumpi\n      mload(0x40)\n      0x08c379a000000000000000000000000000000000000000000000000000000000\n      dup2\n      mstore\n      0x04\n      add\n      tag_221\n      swap1\n      tag_222\n      jump\t// in\n    tag_221:\n      mload(0x40)\n      dup1\n      swap2\n      sub\n      swap1\n      revert\n    tag_220:\n        /* \"ERC20/ERC20Upgradeable.sol\":10967:10968  0 */\n      0x00\n        /* \"ERC20/ERC20Upgradeable.sol\":10948:10969  spender != address(0) */\n      0xffffffffffffffffffffffffffffffffffffffff\n      and\n        /* \"ERC20/ERC20Upgradeable.sol\":10948:10955  spender */\n      dup3\n        /* \"ERC20/ERC20Upgradeable.sol\":10948:10969  spender != address(0) */\n      0xffffffffffffffffffffffffffffffffffffffff\n      and\n      eq\n      iszero\n        /* \"ERC20/ERC20Upgradeable.sol\":10940:11008  require(spender != address(0), \"ERC20: approve to the zero address\") */\n      tag_223\n      jumpi\n      mload(0x40)\n      0x08c379a000000000000000000000000000000000000000000000000000000000\n      dup2\n      mstore\n      0x04\n      add\n      tag_224\n      swap1\n      tag_225\n      jump\t// in\n    tag_224:\n      mload(0x40)\n      dup1\n      swap2\n      sub\n      swap1\n      revert\n    tag_223:\n        /* \"ERC20/ERC20Upgradeable.sol\":11051:11057  amount */\n      dup1\n        /* \"ERC20/ERC20Upgradeable.sol\":11021:11032  _allowances */\n      0x34\n        /* \"ERC20/ERC20Upgradeable.sol\":11021:11039  _allowances[owner] */\n      0x00\n        /* \"ERC20/ERC20Upgradeable.sol\":11033:11038  owner */\n      dup6\n        /* \"ERC20/ERC20Upgradeable.sol\":11021:11039  _allowances[owner] */\n      0xffffffffffffffffffffffffffffffffffffffff\n      and\n      0xffffffffffffffffffffffffffffffffffffffff\n      and\n      dup2\n      mstore\n      0x20\n      add\n      swap1\n      dup2\n      mstore\n      0x20\n      add\n      0x00\n      keccak256\n        /* \"ERC20/ERC20Upgradeable.sol\":11021:11048  _allowances[owner][spender] */\n      0x00\n        /* \"ERC20/ERC20Upgradeable.sol\":11040:11047  spender */\n      dup5\n        /* \"ERC20/ERC20Upgradeable.sol\":11021:11048  _allowances[owner][spender] */\n      0xffffffffffffffffffffffffffffffffffffffff\n      and\n      0xffffffffffffffffffffffffffffffffffffffff\n      and\n      dup2\n      mstore\n      0x20\n      add\n      swap1\n      dup2\n      mstore\n      0x20\n      add\n      0x00\n      keccak256\n        /* \"ERC20/ERC20Upgradeable.sol\":11021:11057  _allowances[owner][spender] = amount */\n      dup2\n      swap1\n      sstore\n      pop\n        /* \"ERC20/ERC20Upgradeable.sol\":11089:11096  spender */\n      dup2\n        /* \"ERC20/ERC20Upgradeable.sol\":11073:11105  Approval(owner, spender, amount) */\n      0xffffffffffffffffffffffffffffffffffffffff\n      and\n        /* \"ERC20/ERC20Upgradeable.sol\":11082:11087  owner */\n      dup4\n        /* \"ERC20/ERC20Upgradeable.sol\":11073:11105  Approval(owner, spender, amount) */\n      0xffffffffffffffffffffffffffffffffffffffff\n      and\n      0x8c5be1e5ebec7d5bd14f71427d1e84f3dd0314c0f7b2291e5b200ac8c7c3b925\n        /* \"ERC20/ERC20Upgradeable.sol\":11098:11104  amount */\n      dup4\n        /* \"ERC20/ERC20Upgradeable.sol\":11073:11105  Approval(owner, spender, amount) */\n      mload(0x40)\n      tag_226\n      swap2\n      swap1\n      tag_40\n      jump\t// in\n    tag_226:\n      mload(0x40)\n      dup1\n      swap2\n      sub\n      swap1\n      log3\n        /* \"ERC20/ERC20Upgradeable.sol\":10733:11113  function _approve(... */\n      pop\n      pop\n      pop\n      jump\t// out\n        /* \"ERC20/ERC20Upgradeable.sol\":11404:11857  function _spendAllowance(... */\n    tag_120:\n        /* \"ERC20/ERC20Upgradeable.sol\":11539:11563  uint256 currentAllowance */\n      0x00\n        /* \"ERC20/ERC20Upgradeable.sol\":11566:11591  allowance(owner, spender) */\n      tag_228\n        /* \"ERC20/ERC20Upgradeable.sol\":11576:11581  owner */\n      dup5\n        /* \"ERC20/ERC20Upgradeable.sol\":11583:11590  spender */\n      dup5\n        /* \"ERC20/ERC20Upgradeable.sol\":11566:11575  allowance */\n      tag_98\n        /* \"ERC20/ERC20Upgradeable.sol\":11566:11591  allowance(owner, spender) */\n      jump\t// in\n    tag_228:\n        /* \"ERC20/ERC20Upgradeable.sol\":11539:11591  uint256 currentAllowance = allowance(owner, spender) */\n      swap1\n      pop\n        /* \"ERC20/ERC20Upgradeable.sol\":11626:11643  type(uint256).max */\n      0xffffffffffffffffffffffffffffffffffffffffffffffffffffffffffffffff\n        /* \"ERC20/ERC20Upgradeable.sol\":11606:11622  currentAllowance */\n      dup2\n        /* \"ERC20/ERC20Upgradeable.sol\":11606:11643  currentAllowance != type(uint256).max */\n      eq\n        /* \"ERC20/ERC20Upgradeable.sol\":11602:11850  if (currentAllowance != type(uint256).max) {... */\n      tag_229\n      jumpi\n        /* \"ERC20/ERC20Upgradeable.sol\":11688:11694  amount */\n      dup2\n        /* \"ERC20/ERC20Upgradeable.sol\":11668:11684  currentAllowance */\n      dup2\n        /* \"ERC20/ERC20Upgradeable.sol\":11668:11694  currentAllowance >= amount */\n      lt\n      iszero\n        /* \"ERC20/ERC20Upgradeable.sol\":11660:11728  require(currentAllowance >= amount, \"ERC20: insufficient allowance\") */\n      tag_230\n      jumpi\n      mload(0x40)\n      0x08c379a000000000000000000000000000000000000000000000000000000000\n      dup2\n      mstore\n      0x04\n      add\n      tag_231\n      swap1\n      tag_232\n      jump\t// in\n    tag_231:\n      mload(0x40)\n      dup1\n      swap2\n      sub\n      swap1\n      revert\n    tag_230:\n        /* \"ERC20/ERC20Upgradeable.sol\":11772:11823  _approve(owner, spender, currentAllowance - amount) */\n      tag_233\n        /* \"ERC20/ERC20Upgradeable.sol\":11781:11786  owner */\n      dup5\n        /* \"ERC20/ERC20Upgradeable.sol\":11788:11795  spender */\n      dup5\n        /* \"ERC20/ERC20Upgradeable.sol\":11816:11822  amount */\n      dup5\n        /* \"ERC20/ERC20Upgradeable.sol\":11797:11813  currentAllowance */\n      dup5\n        /* \"ERC20/ERC20Upgradeable.sol\":11797:11822  currentAllowance - amount */\n      sub\n        /* \"ERC20/ERC20Upgradeable.sol\":11772:11780  _approve */\n      tag_115\n        /* \"ERC20/ERC20Upgradeable.sol\":11772:11823  _approve(owner, spender, currentAllowance - amount) */\n      jump\t// in\n    tag_233:\n        /* \"ERC20/ERC20Upgradeable.sol\":11602:11850  if (currentAllowance != type(uint256).max) {... */\n    tag_229:\n        /* \"ERC20/ERC20Upgradeable.sol\":11528:11857  {... */\n      pop\n        /* \"ERC20/ERC20Upgradeable.sol\":11404:11857  function _spendAllowance(... */\n      pop\n      pop\n      pop\n      jump\t// out\n        /* \"ERC20/ERC20Upgradeable.sol\":8014:8685  function _transfer(... */\n    tag_122:\n        /* \"ERC20/ERC20Upgradeable.sol\":8161:8162  0 */\n      0x00\n        /* \"ERC20/ERC20Upgradeable.sol\":8145:8163  from != address(0) */\n      0xffffffffffffffffffffffffffffffffffffffff\n      and\n        /* \"ERC20/ERC20Upgradeable.sol\":8145:8149  from */\n      dup4\n        /* \"ERC20/ERC20Upgradeable.sol\":8145:8163  from != address(0) */\n      0xffffffffffffffffffffffffffffffffffffffff\n      and\n      eq\n      iszero\n        /* \"ERC20/ERC20Upgradeable.sol\":8137:8205  require(from != address(0), \"ERC20: transfer from the zero address\") */\n      tag_235\n      jumpi\n      mload(0x40)\n      0x08c379a000000000000000000000000000000000000000000000000000000000\n      dup2\n      mstore\n      0x04\n      add\n      tag_236\n      swap1\n      tag_237\n      jump\t// in\n    tag_236:\n      mload(0x40)\n      dup1\n      swap2\n      sub\n      swap1\n      revert\n    tag_235:\n        /* \"ERC20/ERC20Upgradeable.sol\":8238:8239  0 */\n      0x00\n        /* \"ERC20/ERC20Upgradeable.sol\":8224:8240  to != address(0) */\n      0xffffffffffffffffffffffffffffffffffffffff\n      and\n        /* \"ERC20/ERC20Upgradeable.sol\":8224:8226  to */\n      dup3\n        /* \"ERC20/ERC20Upgradeable.sol\":8224:8240  to != address(0) */\n      0xffffffffffffffffffffffffffffffffffffffff\n      and\n      eq\n      iszero\n        /* \"ERC20/ERC20Upgradeable.sol\":8216:8280  require(to != address(0), \"ERC20: transfer to the zero address\") */\n      tag_238\n      jumpi\n      mload(0x40)\n      0x08c379a000000000000000000000000000000000000000000000000000000000\n      dup2\n      mstore\n      0x04\n      add\n      tag_239\n      swap1\n      tag_240\n      jump\t// in\n    tag_239:\n      mload(0x40)\n      dup1\n      swap2\n      sub\n      swap1\n      revert\n    tag_238:\n        /* \"ERC20/ERC20Upgradeable.sol\":8293:8331  _beforeTokenTransfer(from, to, amount) */\n      tag_241\n        /* \"ERC20/ERC20Upgradeable.sol\":8314:8318  from */\n      dup4\n        /* \"ERC20/ERC20Upgradeable.sol\":8320:8322  to */\n      dup4\n        /* \"ERC20/ERC20Upgradeable.sol\":8324:8330  amount */\n      dup4\n        /* \"ERC20/ERC20Upgradeable.sol\":8293:8313  _beforeTokenTransfer */\n      tag_242\n        /* \"ERC20/ERC20Upgradeable.sol\":8293:8331  _beforeTokenTransfer(from, to, amount) */\n      jump\t// in\n    tag_241:\n        /* \"ERC20/ERC20Upgradeable.sol\":8344:8363  uint256 fromBalance */\n      0x00\n        /* \"ERC20/ERC20Upgradeable.sol\":8366:8375  _balances */\n      0x33\n        /* \"ERC20/ERC20Upgradeable.sol\":8366:8381  _balances[from] */\n      0x00\n        /* \"ERC20/ERC20Upgradeable.sol\":8376:8380  from */\n      dup6\n        /* \"ERC20/ERC20Upgradeable.sol\":8366:8381  _balances[from] */\n      0xffffffffffffffffffffffffffffffffffffffff\n      and\n      0xffffffffffffffffffffffffffffffffffffffff\n      and\n      dup2\n      mstore\n      0x20\n      add\n      swap1\n      dup2\n      mstore\n      0x20\n      add\n      0x00\n      keccak256\n      sload\n        /* \"ERC20/ERC20Upgradeable.sol\":8344:8381  uint256 fromBalance = _balances[from] */\n      swap1\n      pop\n        /* \"ERC20/ERC20Upgradeable.sol\":8415:8421  amount */\n      dup2\n        /* \"ERC20/ERC20Upgradeable.sol\":8400:8411  fromBalance */\n      dup2\n        /* \"ERC20/ERC20Upgradeable.sol\":8400:8421  fromBalance >= amount */\n      lt\n      iszero\n        /* \"ERC20/ERC20Upgradeable.sol\":8392:8464  require(fromBalance >= amount, \"ERC20: transfer amount exceeds balance\") */\n      tag_243\n      jumpi\n      mload(0x40)\n      0x08c379a000000000000000000000000000000000000000000000000000000000\n      dup2\n      mstore\n      0x04\n      add\n      tag_244\n      swap1\n      tag_245\n      jump\t// in\n    tag_244:\n      mload(0x40)\n      dup1\n      swap2\n      sub\n      swap1\n      revert\n    tag_243:\n        /* \"ERC20/ERC20Upgradeable.sol\":8532:8538  amount */\n      dup2\n        /* \"ERC20/ERC20Upgradeable.sol\":8518:8529  fromBalance */\n      dup2\n        /* \"ERC20/ERC20Upgradeable.sol\":8518:8538  fromBalance - amount */\n      sub\n        /* \"ERC20/ERC20Upgradeable.sol\":8500:8509  _balances */\n      0x33\n        /* \"ERC20/ERC20Upgradeable.sol\":8500:8515  _balances[from] */\n      0x00\n        /* \"ERC20/ERC20Upgradeable.sol\":8510:8514  from */\n      dup7\n        /* \"ERC20/ERC20Upgradeable.sol\":8500:8515  _balances[from] */\n      0xffffffffffffffffffffffffffffffffffffffff\n      and\n      0xffffffffffffffffffffffffffffffffffffffff\n      and\n      dup2\n      mstore\n      0x20\n      add\n      swap1\n      dup2\n      mstore\n      0x20\n      add\n      0x00\n      keccak256\n        /* \"ERC20/ERC20Upgradeable.sol\":8500:8538  _balances[from] = fromBalance - amount */\n      dup2\n      swap1\n      sstore\n      pop\n        /* \"ERC20/ERC20Upgradeable.sol\":8577:8583  amount */\n      dup2\n        /* \"ERC20/ERC20Upgradeable.sol\":8560:8569  _balances */\n      0x33\n        /* \"ERC20/ERC20Upgradeable.sol\":8560:8573  _balances[to] */\n      0x00\n        /* \"ERC20/ERC20Upgradeable.sol\":8570:8572  to */\n      dup6\n        /* \"ERC20/ERC20Upgradeable.sol\":8560:8573  _balances[to] */\n      0xffffffffffffffffffffffffffffffffffffffff\n      and\n      0xffffffffffffffffffffffffffffffffffffffff\n      and\n      dup2\n      mstore\n      0x20\n      add\n      swap1\n      dup2\n      mstore\n      0x20\n      add\n      0x00\n      keccak256\n      0x00\n        /* \"ERC20/ERC20Upgradeable.sol\":8560:8583  _balances[to] += amount */\n      dup3\n      dup3\n      sload\n      tag_246\n      swap2\n      swap1\n      tag_129\n      jump\t// in\n    tag_246:\n      swap3\n      pop\n      pop\n      dup2\n      swap1\n      sstore\n      pop\n        /* \"ERC20/ERC20Upgradeable.sol\":8616:8618  to */\n      dup3\n        /* \"ERC20/ERC20Upgradeable.sol\":8601:8627  Transfer(from, to, amount) */\n      0xffffffffffffffffffffffffffffffffffffffff\n      and\n        /* \"ERC20/ERC20Upgradeable.sol\":8610:8614  from */\n      dup5\n        /* \"ERC20/ERC20Upgradeable.sol\":8601:8627  Transfer(from, to, amount) */\n      0xffffffffffffffffffffffffffffffffffffffff\n      and\n      0xddf252ad1be2c89b69c2b068fc378daa952ba7f163c4a11628f55a4df523b3ef\n        /* \"ERC20/ERC20Upgradeable.sol\":8620:8626  amount */\n      dup5\n        /* \"ERC20/ERC20Upgradeable.sol\":8601:8627  Transfer(from, to, amount) */\n      mload(0x40)\n      tag_247\n      swap2\n      swap1\n      tag_40\n      jump\t// in\n    tag_247:\n      mload(0x40)\n      dup1\n      swap2\n      sub\n      swap1\n      log3\n        /* \"ERC20/ERC20Upgradeable.sol\":8640:8677  _afterTokenTransfer(from, to, amount) */\n      tag_248\n        /* \"ERC20/ERC20Upgradeable.sol\":8660:8664  from */\n      dup5\n        /* \"ERC20/ERC20Upgradeable.sol\":8666:8668  to */\n      dup5\n        /* \"ERC20/ERC20Upgradeable.sol\":8670:8676  amount */\n      dup5\n        /* \"ERC20/ERC20Upgradeable.sol\":8640:8659  _afterTokenTransfer */\n      tag_249\n        /* \"ERC20/ERC20Upgradeable.sol\":8640:8677  _afterTokenTransfer(from, to, amount) */\n      jump\t// in\n    tag_248:\n        /* \"ERC20/ERC20Upgradeable.sol\":8126:8685  {... */\n      pop\n        /* \"ERC20/ERC20Upgradeable.sol\":8014:8685  function _transfer(... */\n      pop\n      pop\n      pop\n      jump\t// out\n        /* \"ERC20/PausableUpgradeable.sol\":2424:2544  function _unpause() internal virtual whenPaused {... */\n    tag_138:\n        /* \"ERC20/PausableUpgradeable.sol\":1968:1976  paused() */\n      tag_251\n        /* \"ERC20/PausableUpgradeable.sol\":1968:1974  paused */\n      tag_64\n        /* \"ERC20/PausableUpgradeable.sol\":1968:1976  paused() */\n      jump\t// in\n    tag_251:\n        /* \"ERC20/PausableUpgradeable.sol\":1960:2001  require(paused(), \"Pausable: not paused\") */\n      tag_252\n      jumpi\n      mload(0x40)\n      0x08c379a000000000000000000000000000000000000000000000000000000000\n      dup2\n      mstore\n      0x04\n      add\n      tag_253\n      swap1\n      tag_254\n      jump\t// in\n    tag_253:\n      mload(0x40)\n      dup1\n      swap2\n      sub\n      swap1\n      revert\n    tag_252:\n        /* \"ERC20/PausableUpgradeable.sol\":2493:2498  false */\n      0x00\n        /* \"ERC20/PausableUpgradeable.sol\":2483:2490  _paused */\n      0x97\n      0x00\n        /* \"ERC20/PausableUpgradeable.sol\":2483:2498  _paused = false */\n      0x0100\n      exp\n      dup2\n      sload\n      dup2\n      0xff\n      mul\n      not\n      and\n      swap1\n      dup4\n      iszero\n      iszero\n      mul\n      or\n      swap1\n      sstore\n      pop\n        /* \"ERC20/PausableUpgradeable.sol\":2514:2536  Unpaused(_msgSender()) */\n      0x5db9ee0a495bf2e6ff9c91a7834c1ba4fdd244a5e8aa4e537bd38aeae4b073aa\n        /* \"ERC20/PausableUpgradeable.sol\":2523:2535  _msgSender() */\n      tag_256\n        /* \"ERC20/PausableUpgradeable.sol\":2523:2533  _msgSender */\n      tag_113\n        /* \"ERC20/PausableUpgradeable.sol\":2523:2535  _msgSender() */\n      jump\t// in\n    tag_256:\n        /* \"ERC20/PausableUpgradeable.sol\":2514:2536  Unpaused(_msgSender()) */\n      mload(0x40)\n      tag_257\n      swap2\n      swap1\n      tag_83\n      jump\t// in\n    tag_257:\n      mload(0x40)\n      dup1\n      swap2\n      sub\n      swap1\n      log1\n        /* \"ERC20/PausableUpgradeable.sol\":2424:2544  function _unpause() internal virtual whenPaused {... */\n      jump\t// out\n        /* \"ERC20/ERC20Upgradeable.sol\":8972:9371  function _mint(address account, uint256 amount) internal virtual {... */\n    tag_146:\n        /* \"ERC20/ERC20Upgradeable.sol\":9075:9076  0 */\n      0x00\n        /* \"ERC20/ERC20Upgradeable.sol\":9056:9077  account != address(0) */\n      0xffffffffffffffffffffffffffffffffffffffff\n      and\n        /* \"ERC20/ERC20Upgradeable.sol\":9056:9063  account */\n      dup3\n        /* \"ERC20/ERC20Upgradeable.sol\":9056:9077  account != address(0) */\n      0xffffffffffffffffffffffffffffffffffffffff\n      and\n      eq\n      iszero\n        /* \"ERC20/ERC20Upgradeable.sol\":9048:9113  require(account != address(0), \"ERC20: mint to the zero address\") */\n      tag_259\n      jumpi\n      mload(0x40)\n      0x08c379a000000000000000000000000000000000000000000000000000000000\n      dup2\n      mstore\n      0x04\n      add\n      tag_260\n      swap1\n      tag_261\n      jump\t// in\n    tag_260:\n      mload(0x40)\n      dup1\n      swap2\n      sub\n      swap1\n      revert\n    tag_259:\n        /* \"ERC20/ERC20Upgradeable.sol\":9126:9175  _beforeTokenTransfer(address(0), account, amount) */\n      tag_262\n        /* \"ERC20/ERC20Upgradeable.sol\":9155:9156  0 */\n      0x00\n        /* \"ERC20/ERC20Upgradeable.sol\":9159:9166  account */\n      dup4\n        /* \"ERC20/ERC20Upgradeable.sol\":9168:9174  amount */\n      dup4\n        /* \"ERC20/ERC20Upgradeable.sol\":9126:9146  _beforeTokenTransfer */\n      tag_242\n        /* \"ERC20/ERC20Upgradeable.sol\":9126:9175  _beforeTokenTransfer(address(0), account, amount) */\n      jump\t// in\n    tag_262:\n        /* \"ERC20/ERC20Upgradeable.sol\":9204:9210  amount */\n      dup1\n        /* \"ERC20/ERC20Upgradeable.sol\":9188:9200  _totalSupply */\n      0x35\n      0x00\n        /* \"ERC20/ERC20Upgradeable.sol\":9188:9210  _totalSupply += amount */\n      dup3\n      dup3\n      sload\n      tag_263\n      swap2\n      swap1\n      tag_129\n      jump\t// in\n    tag_263:\n      swap3\n      pop\n      pop\n      dup2\n      swap1\n      sstore\n      pop\n        /* \"ERC20/ERC20Upgradeable.sol\":9243:9249  amount */\n      dup1\n        /* \"ERC20/ERC20Upgradeable.sol\":9221:9230  _balances */\n      0x33\n        /* \"ERC20/ERC20Upgradeable.sol\":9221:9239  _balances[account] */\n      0x00\n        /* \"ERC20/ERC20Upgradeable.sol\":9231:9238  account */\n      dup5\n        /* \"ERC20/ERC20Upgradeable.sol\":9221:9239  _balances[account] */\n      0xffffffffffffffffffffffffffffffffffffffff\n      and\n      0xffffffffffffffffffffffffffffffffffffffff\n      and\n      dup2\n      mstore\n      0x20\n      add\n      swap1\n      dup2\n      mstore\n      0x20\n      add\n      0x00\n      keccak256\n      0x00\n        /* \"ERC20/ERC20Upgradeable.sol\":9221:9249  _balances[account] += amount */\n      dup3\n      dup3\n      sload\n      tag_264\n      swap2\n      swap1\n      tag_129\n      jump\t// in\n    tag_264:\n      swap3\n      pop\n      pop\n      dup2\n      swap1\n      sstore\n      pop\n        /* \"ERC20/ERC20Upgradeable.sol\":9286:9293  account */\n      dup2\n        /* \"ERC20/ERC20Upgradeable.sol\":9265:9302  Transfer(address(0), account, amount) */\n      0xffffffffffffffffffffffffffffffffffffffff\n      and\n        /* \"ERC20/ERC20Upgradeable.sol\":9282:9283  0 */\n      0x00\n        /* \"ERC20/ERC20Upgradeable.sol\":9265:9302  Transfer(address(0), account, amount) */\n      0xffffffffffffffffffffffffffffffffffffffff\n      and\n      0xddf252ad1be2c89b69c2b068fc378daa952ba7f163c4a11628f55a4df523b3ef\n        /* \"ERC20/ERC20Upgradeable.sol\":9295:9301  amount */\n      dup4\n        /* \"ERC20/ERC20Upgradeable.sol\":9265:9302  Transfer(address(0), account, amount) */\n      mload(0x40)\n      tag_265\n      swap2\n      swap1\n      tag_40\n      jump\t// in\n    tag_265:\n      mload(0x40)\n      dup1\n      swap2\n      sub\n      swap1\n      log3\n        /* \"ERC20/ERC20Upgradeable.sol\":9315:9363  _afterTokenTransfer(address(0), account, amount) */\n      tag_266\n        /* \"ERC20/ERC20Upgradeable.sol\":9343:9344  0 */\n      0x00\n        /* \"ERC20/ERC20Upgradeable.sol\":9347:9354  account */\n      dup4\n        /* \"ERC20/ERC20Upgradeable.sol\":9356:9362  amount */\n      dup4\n        /* \"ERC20/ERC20Upgradeable.sol\":9315:9334  _afterTokenTransfer */\n      tag_249\n        /* \"ERC20/ERC20Upgradeable.sol\":9315:9363  _afterTokenTransfer(address(0), account, amount) */\n      jump\t// in\n    tag_266:\n        /* \"ERC20/ERC20Upgradeable.sol\":8972:9371  function _mint(address account, uint256 amount) internal virtual {... */\n      pop\n      pop\n      jump\t// out\n        /* \"ERC20/ERC20Upgradeable.sol\":9704:10295  function _burn(address account, uint256 amount) internal virtual {... */\n    tag_150:\n        /* \"ERC20/ERC20Upgradeable.sol\":9807:9808  0 */\n      0x00\n        /* \"ERC20/ERC20Upgradeable.sol\":9788:9809  account != address(0) */\n      0xffffffffffffffffffffffffffffffffffffffff\n      and\n        /* \"ERC20/ERC20Upgradeable.sol\":9788:9795  account */\n      dup3\n        /* \"ERC20/ERC20Upgradeable.sol\":9788:9809  account != address(0) */\n      0xffffffffffffffffffffffffffffffffffffffff\n      and\n      eq\n      iszero\n        /* \"ERC20/ERC20Upgradeable.sol\":9780:9847  require(account != address(0), \"ERC20: burn from the zero address\") */\n      tag_268\n      jumpi\n      mload(0x40)\n      0x08c379a000000000000000000000000000000000000000000000000000000000\n      dup2\n      mstore\n      0x04\n      add\n      tag_269\n      swap1\n      tag_270\n      jump\t// in\n    tag_269:\n      mload(0x40)\n      dup1\n      swap2\n      sub\n      swap1\n      revert\n    tag_268:\n        /* \"ERC20/ERC20Upgradeable.sol\":9860:9909  _beforeTokenTransfer(account, address(0), amount) */\n      tag_271\n        /* \"ERC20/ERC20Upgradeable.sol\":9881:9888  account */\n      dup3\n        /* \"ERC20/ERC20Upgradeable.sol\":9898:9899  0 */\n      0x00\n        /* \"ERC20/ERC20Upgradeable.sol\":9902:9908  amount */\n      dup4\n        /* \"ERC20/ERC20Upgradeable.sol\":9860:9880  _beforeTokenTransfer */\n      tag_242\n        /* \"ERC20/ERC20Upgradeable.sol\":9860:9909  _beforeTokenTransfer(account, address(0), amount) */\n      jump\t// in\n    tag_271:\n        /* \"ERC20/ERC20Upgradeable.sol\":9922:9944  uint256 accountBalance */\n      0x00\n        /* \"ERC20/ERC20Upgradeable.sol\":9947:9956  _balances */\n      0x33\n        /* \"ERC20/ERC20Upgradeable.sol\":9947:9965  _balances[account] */\n      0x00\n        /* \"ERC20/ERC20Upgradeable.sol\":9957:9964  account */\n      dup5\n        /* \"ERC20/ERC20Upgradeable.sol\":9947:9965  _balances[account] */\n      0xffffffffffffffffffffffffffffffffffffffff\n      and\n      0xffffffffffffffffffffffffffffffffffffffff\n      and\n      dup2\n      mstore\n      0x20\n      add\n      swap1\n      dup2\n      mstore\n      0x20\n      add\n      0x00\n      keccak256\n      sload\n        /* \"ERC20/ERC20Upgradeable.sol\":9922:9965  uint256 accountBalance = _balances[account] */\n      swap1\n      pop\n        /* \"ERC20/ERC20Upgradeable.sol\":10002:10008  amount */\n      dup2\n        /* \"ERC20/ERC20Upgradeable.sol\":9984:9998  accountBalance */\n      dup2\n        /* \"ERC20/ERC20Upgradeable.sol\":9984:10008  accountBalance >= amount */\n      lt\n      iszero\n        /* \"ERC20/ERC20Upgradeable.sol\":9976:10047  require(accountBalance >= amount, \"ERC20: burn amount exceeds balance\") */\n      tag_272\n      jumpi\n      mload(0x40)\n      0x08c379a000000000000000000000000000000000000000000000000000000000\n      dup2\n      mstore\n      0x04\n      add\n      tag_273\n      swap1\n      tag_274\n      jump\t// in\n    tag_273:\n      mload(0x40)\n      dup1\n      swap2\n      sub\n      swap1\n      revert\n    tag_272:\n        /* \"ERC20/ERC20Upgradeable.sol\":10121:10127  amount */\n      dup2\n        /* \"ERC20/ERC20Upgradeable.sol\":10104:10118  accountBalance */\n      dup2\n        /* \"ERC20/ERC20Upgradeable.sol\":10104:10127  accountBalance - amount */\n      sub\n        /* \"ERC20/ERC20Upgradeable.sol\":10083:10092  _balances */\n      0x33\n        /* \"ERC20/ERC20Upgradeable.sol\":10083:10101  _balances[account] */\n      0x00\n        /* \"ERC20/ERC20Upgradeable.sol\":10093:10100  account */\n      dup6\n        /* \"ERC20/ERC20Upgradeable.sol\":10083:10101  _balances[account] */\n      0xffffffffffffffffffffffffffffffffffffffff\n      and\n      0xffffffffffffffffffffffffffffffffffffffff\n      and\n      dup2\n      mstore\n      0x20\n      add\n      swap1\n      dup2\n      mstore\n      0x20\n      add\n      0x00\n      keccak256\n        /* \"ERC20/ERC20Upgradeable.sol\":10083:10127  _balances[account] = accountBalance - amount */\n      dup2\n      swap1\n      sstore\n      pop\n        /* \"ERC20/ERC20Upgradeable.sol\":10165:10171  amount */\n      dup2\n        /* \"ERC20/ERC20Upgradeable.sol\":10149:10161  _totalSupply */\n      0x35\n      0x00\n        /* \"ERC20/ERC20Upgradeable.sol\":10149:10171  _totalSupply -= amount */\n      dup3\n      dup3\n      sload\n      tag_275\n      swap2\n      swap1\n      tag_276\n      jump\t// in\n    tag_275:\n      swap3\n      pop\n      pop\n      dup2\n      swap1\n      sstore\n      pop\n        /* \"ERC20/ERC20Upgradeable.sol\":10215:10216  0 */\n      0x00\n        /* \"ERC20/ERC20Upgradeable.sol\":10189:10226  Transfer(account, address(0), amount) */\n      0xffffffffffffffffffffffffffffffffffffffff\n      and\n        /* \"ERC20/ERC20Upgradeable.sol\":10198:10205  account */\n      dup4\n        /* \"ERC20/ERC20Upgradeable.sol\":10189:10226  Transfer(account, address(0), amount) */\n      0xffffffffffffffffffffffffffffffffffffffff\n      and\n      0xddf252ad1be2c89b69c2b068fc378daa952ba7f163c4a11628f55a4df523b3ef\n        /* \"ERC20/ERC20Upgradeable.sol\":10219:10225  amount */\n      dup5\n        /* \"ERC20/ERC20Upgradeable.sol\":10189:10226  Transfer(account, address(0), amount) */\n      mload(0x40)\n      tag_277\n      swap2\n      swap1\n      tag_40\n      jump\t// in\n    tag_277:\n      mload(0x40)\n      dup1\n      swap2\n      sub\n      swap1\n      log3\n        /* \"ERC20/ERC20Upgradeable.sol\":10239:10287  _afterTokenTransfer(account, address(0), amount) */\n      tag_278\n        /* \"ERC20/ERC20Upgradeable.sol\":10259:10266  account */\n      dup4\n        /* \"ERC20/ERC20Upgradeable.sol\":10276:10277  0 */\n      0x00\n        /* \"ERC20/ERC20Upgradeable.sol\":10280:10286  amount */\n      dup5\n        /* \"ERC20/ERC20Upgradeable.sol\":10239:10258  _afterTokenTransfer */\n      tag_249\n        /* \"ERC20/ERC20Upgradeable.sol\":10239:10287  _afterTokenTransfer(account, address(0), amount) */\n      jump\t// in\n    tag_278:\n        /* \"ERC20/ERC20Upgradeable.sol\":9769:10295  {... */\n      pop\n        /* \"ERC20/ERC20Upgradeable.sol\":9704:10295  function _burn(address account, uint256 amount) internal virtual {... */\n      pop\n      pop\n      jump\t// out\n        /* \"ERC20/OwnableUpgradeable.sol\":2565:2756  function _transferOwnership(address newOwner) internal virtual {... */\n    tag_160:\n        /* \"ERC20/OwnableUpgradeable.sol\":2639:2655  address oldOwner */\n      0x00\n        /* \"ERC20/OwnableUpgradeable.sol\":2658:2664  _owner */\n      0xc9\n      0x00\n      swap1\n      sload\n      swap1\n      0x0100\n      exp\n      swap1\n      div\n      0xffffffffffffffffffffffffffffffffffffffff\n      and\n        /* \"ERC20/OwnableUpgradeable.sol\":2639:2664  address oldOwner = _owner */\n      swap1\n      pop\n        /* \"ERC20/OwnableUpgradeable.sol\":2684:2692  newOwner */\n      dup2\n        /* \"ERC20/OwnableUpgradeable.sol\":2675:2681  _owner */\n      0xc9\n      0x00\n        /* \"ERC20/OwnableUpgradeable.sol\":2675:2692  _owner = newOwner */\n      0x0100\n      exp\n      dup2\n      sload\n      dup2\n      0xffffffffffffffffffffffffffffffffffffffff\n      mul\n      not\n      and\n      swap1\n      dup4\n      0xffffffffffffffffffffffffffffffffffffffff\n      and\n      mul\n      or\n      swap1\n      sstore\n      pop\n        /* \"ERC20/OwnableUpgradeable.sol\":2739:2747  newOwner */\n      dup2\n        /* \"ERC20/OwnableUpgradeable.sol\":2708:2748  OwnershipTransferred(oldOwner, newOwner) */\n      0xffffffffffffffffffffffffffffffffffffffff\n      and\n        /* \"ERC20/OwnableUpgradeable.sol\":2729:2737  oldOwner */\n      dup2\n        /* \"ERC20/OwnableUpgradeable.sol\":2708:2748  OwnershipTransferred(oldOwner, newOwner) */\n      0xffffffffffffffffffffffffffffffffffffffff\n      and\n      0x8be0079c531659141344cd1fd0a4f28419497f9722a3daafe3b4186f6b6457e0\n      mload(0x40)\n      mload(0x40)\n      dup1\n      swap2\n      sub\n      swap1\n      log3\n        /* \"ERC20/OwnableUpgradeable.sol\":2628:2756  {... */\n      pop\n        /* \"ERC20/OwnableUpgradeable.sol\":2565:2756  function _transferOwnership(address newOwner) internal virtual {... */\n      pop\n      jump\t// out\n        /* \"ERC20/Initializable.sol\":5409:6232  function _setInitializedVersion(uint8 version) private returns (bool) {... */\n    tag_167:\n        /* \"ERC20/Initializable.sol\":5473:5477  bool */\n      0x00\n        /* \"ERC20/Initializable.sol\":5810:5823  _initializing */\n      dup1\n      0x01\n      swap1\n      sload\n      swap1\n      0x0100\n      exp\n      swap1\n      div\n      0xff\n      and\n        /* \"ERC20/Initializable.sol\":5806:6225  if (_initializing) {... */\n      iszero\n      tag_281\n      jumpi\n        /* \"ERC20/Initializable.sol\":5877:5878  1 */\n      0x01\n        /* \"ERC20/Initializable.sol\":5866:5873  version */\n      dup3\n        /* \"ERC20/Initializable.sol\":5866:5878  version == 1 */\n      0xff\n      and\n      eq\n        /* \"ERC20/Initializable.sol\":5866:5927  version == 1 && !AddressUpgradeable.isContract(address(this)) */\n      dup1\n      iszero\n      tag_282\n      jumpi\n      pop\n        /* \"ERC20/Initializable.sol\":5883:5927  AddressUpgradeable.isContract(address(this)) */\n      tag_283\n        /* \"ERC20/Initializable.sol\":5921:5925  this */\n      address\n        /* \"ERC20/Initializable.sol\":5883:5912  AddressUpgradeable.isContract */\n      tag_103\n        /* \"ERC20/Initializable.sol\":5883:5927  AddressUpgradeable.isContract(address(this)) */\n      jump\t// in\n    tag_283:\n        /* \"ERC20/Initializable.sol\":5882:5927  !AddressUpgradeable.isContract(address(this)) */\n      iszero\n        /* \"ERC20/Initializable.sol\":5866:5927  version == 1 && !AddressUpgradeable.isContract(address(this)) */\n    tag_282:\n        /* \"ERC20/Initializable.sol\":5840:6009  require(... */\n      tag_284\n      jumpi\n      mload(0x40)\n      0x08c379a000000000000000000000000000000000000000000000000000000000\n      dup2\n      mstore\n      0x04\n      add\n      tag_285\n      swap1\n      tag_286\n      jump\t// in\n    tag_285:\n      mload(0x40)\n      dup1\n      swap2\n      sub\n      swap1\n      revert\n    tag_284:\n        /* \"ERC20/Initializable.sol\":6031:6036  false */\n      0x00\n        /* \"ERC20/Initializable.sol\":6024:6036  return false */\n      swap1\n      pop\n      jump(tag_280)\n        /* \"ERC20/Initializable.sol\":5806:6225  if (_initializing) {... */\n    tag_281:\n        /* \"ERC20/Initializable.sol\":6092:6099  version */\n      dup2\n        /* \"ERC20/Initializable.sol\":6077:6099  _initialized < version */\n      0xff\n      and\n        /* \"ERC20/Initializable.sol\":6077:6089  _initialized */\n      0x00\n      dup1\n      sload\n      swap1\n      0x0100\n      exp\n      swap1\n      div\n      0xff\n      and\n        /* \"ERC20/Initializable.sol\":6077:6099  _initialized < version */\n      0xff\n      and\n      lt\n        /* \"ERC20/Initializable.sol\":6069:6150  require(_initialized < version, \"Initializable: contract is already initialized\") */\n      tag_288\n      jumpi\n      mload(0x40)\n      0x08c379a000000000000000000000000000000000000000000000000000000000\n      dup2\n      mstore\n      0x04\n      add\n      tag_289\n      swap1\n      tag_286\n      jump\t// in\n    tag_289:\n      mload(0x40)\n      dup1\n      swap2\n      sub\n      swap1\n      revert\n    tag_288:\n        /* \"ERC20/Initializable.sol\":6180:6187  version */\n      dup2\n        /* \"ERC20/Initializable.sol\":6165:6177  _initialized */\n      0x00\n      dup1\n        /* \"ERC20/Initializable.sol\":6165:6187  _initialized = version */\n      0x0100\n      exp\n      dup2\n      sload\n      dup2\n      0xff\n      mul\n      not\n      and\n      swap1\n      dup4\n      0xff\n      and\n      mul\n      or\n      swap1\n      sstore\n      pop\n        /* \"ERC20/Initializable.sol\":6209:6213  true */\n      0x01\n        /* \"ERC20/Initializable.sol\":6202:6213  return true */\n      swap1\n      pop\n        /* \"ERC20/Initializable.sol\":5409:6232  function _setInitializedVersion(uint8 version) private returns (bool) {... */\n    tag_280:\n      swap2\n      swap1\n      pop\n      jump\t// out\n        /* \"ERC20/ERC20Upgradeable.sol\":2133:2282  function __ERC20_init(string memory name_, string memory symbol_) internal onlyInitializing {... */\n    tag_171:\n        /* \"ERC20/Initializable.sol\":4806:4819  _initializing */\n      0x00\n      0x01\n      swap1\n      sload\n      swap1\n      0x0100\n      exp\n      swap1\n      div\n      0xff\n      and\n        /* \"ERC20/Initializable.sol\":4798:4867  require(_initializing, \"Initializable: contract is not initializing\") */\n      tag_291\n      jumpi\n      mload(0x40)\n      0x08c379a000000000000000000000000000000000000000000000000000000000\n      dup2\n      mstore\n      0x04\n      add\n      tag_292\n      swap1\n      tag_293\n      jump\t// in\n    tag_292:\n      mload(0x40)\n      dup1\n      swap2\n      sub\n      swap1\n      revert\n    tag_291:\n        /* \"ERC20/ERC20Upgradeable.sol\":2236:2274  __ERC20_init_unchained(name_, symbol_) */\n      tag_295\n        /* \"ERC20/ERC20Upgradeable.sol\":2259:2264  name_ */\n      dup3\n        /* \"ERC20/ERC20Upgradeable.sol\":2266:2273  symbol_ */\n      dup3\n        /* \"ERC20/ERC20Upgradeable.sol\":2236:2258  __ERC20_init_unchained */\n      tag_296\n        /* \"ERC20/ERC20Upgradeable.sol\":2236:2274  __ERC20_init_unchained(name_, symbol_) */\n      jump\t// in\n    tag_295:\n        /* \"ERC20/ERC20Upgradeable.sol\":2133:2282  function __ERC20_init(string memory name_, string memory symbol_) internal onlyInitializing {... */\n      pop\n      pop\n      jump\t// out\n        /* \"ERC20/ERC20BurnableUpgradeable.sol\":576:642  function __ERC20Burnable_init() internal onlyInitializing {... */\n    tag_173:\n        /* \"ERC20/Initializable.sol\":4806:4819  _initializing */\n      0x00\n      0x01\n      swap1\n      sload\n      swap1\n      0x0100\n      exp\n      swap1\n      div\n      0xff\n      and\n        /* \"ERC20/Initializable.sol\":4798:4867  require(_initializing, \"Initializable: contract is not initializing\") */\n      tag_298\n      jumpi\n      mload(0x40)\n      0x08c379a000000000000000000000000000000000000000000000000000000000\n      dup2\n      mstore\n      0x04\n      add\n      tag_299\n      swap1\n      tag_293\n      jump\t// in\n    tag_299:\n      mload(0x40)\n      dup1\n      swap2\n      sub\n      swap1\n      revert\n    tag_298:\n        /* \"ERC20/ERC20BurnableUpgradeable.sol\":576:642  function __ERC20Burnable_init() internal onlyInitializing {... */\n      jump\t// out\n        /* \"ERC20/PausableUpgradeable.sol\":1061:1160  function __Pausable_init() internal onlyInitializing {... */\n    tag_175:\n        /* \"ERC20/Initializable.sol\":4806:4819  _initializing */\n      0x00\n      0x01\n      swap1\n      sload\n      swap1\n      0x0100\n      exp\n      swap1\n      div\n      0xff\n      and\n        /* \"ERC20/Initializable.sol\":4798:4867  require(_initializing, \"Initializable: contract is not initializing\") */\n      tag_302\n      jumpi\n      mload(0x40)\n      0x08c379a000000000000000000000000000000000000000000000000000000000\n      dup2\n      mstore\n      0x04\n      add\n      tag_303\n      swap1\n      tag_293\n      jump\t// in\n    tag_303:\n      mload(0x40)\n      dup1\n      swap2\n      sub\n      swap1\n      revert\n    tag_302:\n        /* \"ERC20/PausableUpgradeable.sol\":1125:1152  __Pausable_init_unchained() */\n      tag_305\n        /* \"ERC20/PausableUpgradeable.sol\":1125:1150  __Pausable_init_unchained */\n      tag_306\n        /* \"ERC20/PausableUpgradeable.sol\":1125:1152  __Pausable_init_unchained() */\n      jump\t// in\n    tag_305:\n        /* \"ERC20/PausableUpgradeable.sol\":1061:1160  function __Pausable_init() internal onlyInitializing {... */\n      jump\t// out\n        /* \"ERC20/OwnableUpgradeable.sol\":996:1093  function __Ownable_init() internal onlyInitializing {... */\n    tag_177:\n        /* \"ERC20/Initializable.sol\":4806:4819  _initializing */\n      0x00\n      0x01\n      swap1\n      sload\n      swap1\n      0x0100\n      exp\n      swap1\n      div\n      0xff\n      and\n        /* \"ERC20/Initializable.sol\":4798:4867  require(_initializing, \"Initializable: contract is not initializing\") */\n      tag_308\n      jumpi\n      mload(0x40)\n      0x08c379a000000000000000000000000000000000000000000000000000000000\n      dup2\n      mstore\n      0x04\n      add\n      tag_309\n      swap1\n      tag_293\n      jump\t// in\n    tag_309:\n      mload(0x40)\n      dup1\n      swap2\n      sub\n      swap1\n      revert\n    tag_308:\n        /* \"ERC20/OwnableUpgradeable.sol\":1059:1085  __Ownable_init_unchained() */\n      tag_311\n        /* \"ERC20/OwnableUpgradeable.sol\":1059:1083  __Ownable_init_unchained */\n      tag_312\n        /* \"ERC20/OwnableUpgradeable.sol\":1059:1085  __Ownable_init_unchained() */\n      jump\t// in\n    tag_311:\n        /* \"ERC20/OwnableUpgradeable.sol\":996:1093  function __Ownable_init() internal onlyInitializing {... */\n      jump\t// out\n        /* \"ERC20/PausableUpgradeable.sol\":2165:2283  function _pause() internal virtual whenNotPaused {... */\n    tag_188:\n        /* \"ERC20/PausableUpgradeable.sol\":1691:1699  paused() */\n      tag_314\n        /* \"ERC20/PausableUpgradeable.sol\":1691:1697  paused */\n      tag_64\n        /* \"ERC20/PausableUpgradeable.sol\":1691:1699  paused() */\n      jump\t// in\n    tag_314:\n        /* \"ERC20/PausableUpgradeable.sol\":1690:1699  !paused() */\n      iszero\n        /* \"ERC20/PausableUpgradeable.sol\":1682:1720  require(!paused(), \"Pausable: paused\") */\n      tag_315\n      jumpi\n      mload(0x40)\n      0x08c379a000000000000000000000000000000000000000000000000000000000\n      dup2\n      mstore\n      0x04\n      add\n      tag_316\n      swap1\n      tag_317\n      jump\t// in\n    tag_316:\n      mload(0x40)\n      dup1\n      swap2\n      sub\n      swap1\n      revert\n    tag_315:\n        /* \"ERC20/PausableUpgradeable.sol\":2235:2239  true */\n      0x01\n        /* \"ERC20/PausableUpgradeable.sol\":2225:2232  _paused */\n      0x97\n      0x00\n        /* \"ERC20/PausableUpgradeable.sol\":2225:2239  _paused = true */\n      0x0100\n      exp\n      dup2\n      sload\n      dup2\n      0xff\n      mul\n      not\n      and\n      swap1\n      dup4\n      iszero\n      iszero\n      mul\n      or\n      swap1\n      sstore\n      pop\n        /* \"ERC20/PausableUpgradeable.sol\":2255:2275  Paused(_msgSender()) */\n      0x62e78cea01bee320cd4e420270b5ea74000d11b0c9f74754ebdbfc544b05a258\n        /* \"ERC20/PausableUpgradeable.sol\":2262:2274  _msgSender() */\n      tag_319\n        /* \"ERC20/PausableUpgradeable.sol\":2262:2272  _msgSender */\n      tag_113\n        /* \"ERC20/PausableUpgradeable.sol\":2262:2274  _msgSender() */\n      jump\t// in\n    tag_319:\n        /* \"ERC20/PausableUpgradeable.sol\":2255:2275  Paused(_msgSender()) */\n      mload(0x40)\n      tag_320\n      swap2\n      swap1\n      tag_83\n      jump\t// in\n    tag_320:\n      mload(0x40)\n      dup1\n      swap2\n      sub\n      swap1\n      log1\n        /* \"ERC20/PausableUpgradeable.sol\":2165:2283  function _pause() internal virtual whenNotPaused {... */\n      jump\t// out\n        /* \"ERC20/MyToken.sol\":916:1115  function _beforeTokenTransfer(address from, address to, uint256 amount)... */\n    tag_242:\n        /* \"ERC20/PausableUpgradeable.sol\":1691:1699  paused() */\n      tag_322\n        /* \"ERC20/PausableUpgradeable.sol\":1691:1697  paused */\n      tag_64\n        /* \"ERC20/PausableUpgradeable.sol\":1691:1699  paused() */\n      jump\t// in\n    tag_322:\n        /* \"ERC20/PausableUpgradeable.sol\":1690:1699  !paused() */\n      iszero\n        /* \"ERC20/PausableUpgradeable.sol\":1682:1720  require(!paused(), \"Pausable: paused\") */\n      tag_323\n      jumpi\n      mload(0x40)\n      0x08c379a000000000000000000000000000000000000000000000000000000000\n      dup2\n      mstore\n      0x04\n      add\n      tag_324\n      swap1\n      tag_317\n      jump\t// in\n    tag_324:\n      mload(0x40)\n      dup1\n      swap2\n      sub\n      swap1\n      revert\n    tag_323:\n        /* \"ERC20/MyToken.sol\":1063:1107  super._beforeTokenTransfer(from, to, amount) */\n      tag_326\n        /* \"ERC20/MyToken.sol\":1090:1094  from */\n      dup4\n        /* \"ERC20/MyToken.sol\":1096:1098  to */\n      dup4\n        /* \"ERC20/MyToken.sol\":1100:1106  amount */\n      dup4\n        /* \"ERC20/MyToken.sol\":1063:1089  super._beforeTokenTransfer */\n      tag_327\n        /* \"ERC20/MyToken.sol\":1063:1107  super._beforeTokenTransfer(from, to, amount) */\n      jump\t// in\n    tag_326:\n        /* \"ERC20/MyToken.sol\":916:1115  function _beforeTokenTransfer(address from, address to, uint256 amount)... */\n      pop\n      pop\n      pop\n      jump\t// out\n        /* \"ERC20/ERC20Upgradeable.sol\":13186:13310  function _afterTokenTransfer(... */\n    tag_249:\n      pop\n      pop\n      pop\n      jump\t// out\n        /* \"ERC20/ERC20Upgradeable.sol\":2290:2452  function __ERC20_init_unchained(string memory name_, string memory symbol_) internal onlyInitializing {... */\n    tag_296:\n        /* \"ERC20/Initializable.sol\":4806:4819  _initializing */\n      0x00\n      0x01\n      swap1\n      sload\n      swap1\n      0x0100\n      exp\n      swap1\n      div\n      0xff\n      and\n        /* \"ERC20/Initializable.sol\":4798:4867  require(_initializing, \"Initializable: contract is not initializing\") */\n      tag_330\n      jumpi\n      mload(0x40)\n      0x08c379a000000000000000000000000000000000000000000000000000000000\n      dup2\n      mstore\n      0x04\n      add\n      tag_331\n      swap1\n      tag_293\n      jump\t// in\n    tag_331:\n      mload(0x40)\n      dup1\n      swap2\n      sub\n      swap1\n      revert\n    tag_330:\n        /* \"ERC20/ERC20Upgradeable.sol\":2411:2416  name_ */\n      dup2\n        /* \"ERC20/ERC20Upgradeable.sol\":2403:2408  _name */\n      0x36\n        /* \"ERC20/ERC20Upgradeable.sol\":2403:2416  _name = name_ */\n      swap1\n      dup1\n      mload\n      swap1\n      0x20\n      add\n      swap1\n      tag_333\n      swap3\n      swap2\n      swap1\n      tag_334\n      jump\t// in\n    tag_333:\n      pop\n        /* \"ERC20/ERC20Upgradeable.sol\":2437:2444  symbol_ */\n      dup1\n        /* \"ERC20/ERC20Upgradeable.sol\":2427:2434  _symbol */\n      0x37\n        /* \"ERC20/ERC20Upgradeable.sol\":2427:2444  _symbol = symbol_ */\n      swap1\n      dup1\n      mload\n      swap1\n      0x20\n      add\n      swap1\n      tag_335\n      swap3\n      swap2\n      swap1\n      tag_334\n      jump\t// in\n    tag_335:\n      pop\n        /* \"ERC20/ERC20Upgradeable.sol\":2290:2452  function __ERC20_init_unchained(string memory name_, string memory symbol_) internal onlyInitializing {... */\n      pop\n      pop\n      jump\t// out\n        /* \"ERC20/PausableUpgradeable.sol\":1168:1265  function __Pausable_init_unchained() internal onlyInitializing {... */\n    tag_306:\n        /* \"ERC20/Initializable.sol\":4806:4819  _initializing */\n      0x00\n      0x01\n      swap1\n      sload\n      swap1\n      0x0100\n      exp\n      swap1\n      div\n      0xff\n      and\n        /* \"ERC20/Initializable.sol\":4798:4867  require(_initializing, \"Initializable: contract is not initializing\") */\n      tag_337\n      jumpi\n      mload(0x40)\n      0x08c379a000000000000000000000000000000000000000000000000000000000\n      dup2\n      mstore\n      0x04\n      add\n      tag_338\n      swap1\n      tag_293\n      jump\t// in\n    tag_338:\n      mload(0x40)\n      dup1\n      swap2\n      sub\n      swap1\n      revert\n    tag_337:\n        /* \"ERC20/PausableUpgradeable.sol\":1252:1257  false */\n      0x00\n        /* \"ERC20/PausableUpgradeable.sol\":1242:1249  _paused */\n      0x97\n      0x00\n        /* \"ERC20/PausableUpgradeable.sol\":1242:1257  _paused = false */\n      0x0100\n      exp\n      dup2\n      sload\n      dup2\n      0xff\n      mul\n      not\n      and\n      swap1\n      dup4\n      iszero\n      iszero\n      mul\n      or\n      swap1\n      sstore\n      pop\n        /* \"ERC20/PausableUpgradeable.sol\":1168:1265  function __Pausable_init_unchained() internal onlyInitializing {... */\n      jump\t// out\n        /* \"ERC20/OwnableUpgradeable.sol\":1101:1214  function __Ownable_init_unchained() internal onlyInitializing {... */\n    tag_312:\n        /* \"ERC20/Initializable.sol\":4806:4819  _initializing */\n      0x00\n      0x01\n      swap1\n      sload\n      swap1\n      0x0100\n      exp\n      swap1\n      div\n      0xff\n      and\n        /* \"ERC20/Initializable.sol\":4798:4867  require(_initializing, \"Initializable: contract is not initializing\") */\n      tag_341\n      jumpi\n      mload(0x40)\n      0x08c379a000000000000000000000000000000000000000000000000000000000\n      dup2\n      mstore\n      0x04\n      add\n      tag_342\n      swap1\n      tag_293\n      jump\t// in\n    tag_342:\n      mload(0x40)\n      dup1\n      swap2\n      sub\n      swap1\n      revert\n    tag_341:\n        /* \"ERC20/OwnableUpgradeable.sol\":1174:1206  _transferOwnership(_msgSender()) */\n      tag_344\n        /* \"ERC20/OwnableUpgradeable.sol\":1193:1205  _msgSender() */\n      tag_345\n        /* \"ERC20/OwnableUpgradeable.sol\":1193:1203  _msgSender */\n      tag_113\n        /* \"ERC20/OwnableUpgradeable.sol\":1193:1205  _msgSender() */\n      jump\t// in\n    tag_345:\n        /* \"ERC20/OwnableUpgradeable.sol\":1174:1192  _transferOwnership */\n      tag_160\n        /* \"ERC20/OwnableUpgradeable.sol\":1174:1206  _transferOwnership(_msgSender()) */\n      jump\t// in\n    tag_344:\n        /* \"ERC20/OwnableUpgradeable.sol\":1101:1214  function __Ownable_init_unchained() internal onlyInitializing {... */\n      jump\t// out\n        /* \"ERC20/ERC20Upgradeable.sol\":12457:12582  function _beforeTokenTransfer(... */\n    tag_327:\n      pop\n      pop\n      pop\n      jump\t// out\n    tag_334:\n      dup3\n      dup1\n      sload\n      tag_347\n      swap1\n      tag_106\n      jump\t// in\n    tag_347:\n      swap1\n      0x00\n      mstore\n      keccak256(0x00, 0x20)\n      swap1\n      0x1f\n      add\n      0x20\n      swap1\n      div\n      dup2\n      add\n      swap3\n      dup3\n      tag_349\n      jumpi\n      0x00\n      dup6\n      sstore\n      jump(tag_348)\n    tag_349:\n      dup3\n      0x1f\n      lt\n      tag_350\n      jumpi\n      dup1\n      mload\n      not(0xff)\n      and\n      dup4\n      dup1\n      add\n      or\n      dup6\n      sstore\n      jump(tag_348)\n    tag_350:\n      dup3\n      dup1\n      add\n      0x01\n      add\n      dup6\n      sstore\n      dup3\n      iszero\n      tag_348\n      jumpi\n      swap2\n      dup3\n      add\n    tag_351:\n      dup3\n      dup2\n      gt\n      iszero\n      tag_352\n      jumpi\n      dup3\n      mload\n      dup3\n      sstore\n      swap2\n      0x20\n      add\n      swap2\n      swap1\n      0x01\n      add\n      swap1\n      jump(tag_351)\n    tag_352:\n    tag_348:\n      pop\n      swap1\n      pop\n      tag_353\n      swap2\n      swap1\n      tag_354\n      jump\t// in\n    tag_353:\n      pop\n      swap1\n      jump\t// out\n    tag_354:\n    tag_355:\n      dup1\n      dup3\n      gt\n      iszero\n      tag_356\n      jumpi\n      0x00\n      dup2\n      0x00\n      swap1\n      sstore\n      pop\n      0x01\n      add\n      jump(tag_355)\n    tag_356:\n      pop\n      swap1\n      jump\t// out\n        /* \"#utility.yul\":7:106   */\n    tag_357:\n        /* \"#utility.yul\":59:65   */\n      0x00\n        /* \"#utility.yul\":93:98   */\n      dup2\n        /* \"#utility.yul\":87:99   */\n      mload\n        /* \"#utility.yul\":77:99   */\n      swap1\n      pop\n        /* \"#utility.yul\":7:106   */\n      swap2\n      swap1\n      pop\n      jump\t// out\n        /* \"#utility.yul\":112:281   */\n    tag_358:\n        /* \"#utility.yul\":196:207   */\n      0x00\n        /* \"#utility.yul\":230:236   */\n      dup3\n        /* \"#utility.yul\":225:228   */\n      dup3\n        /* \"#utility.yul\":218:237   */\n      mstore\n        /* \"#utility.yul\":270:274   */\n      0x20\n        /* \"#utility.yul\":265:268   */\n      dup3\n        /* \"#utility.yul\":261:275   */\n      add\n        /* \"#utility.yul\":246:275   */\n      swap1\n      pop\n        /* \"#utility.yul\":112:281   */\n      swap3\n      swap2\n      pop\n      pop\n      jump\t// out\n        /* \"#utility.yul\":287:594   */\n    tag_359:\n        /* \"#utility.yul\":355:356   */\n      0x00\n        /* \"#utility.yul\":365:478   */\n    tag_420:\n        /* \"#utility.yul\":379:385   */\n      dup4\n        /* \"#utility.yul\":376:377   */\n      dup2\n        /* \"#utility.yul\":373:386   */\n      lt\n        /* \"#utility.yul\":365:478   */\n      iszero\n      tag_422\n      jumpi\n        /* \"#utility.yul\":464:465   */\n      dup1\n        /* \"#utility.yul\":459:462   */\n      dup3\n        /* \"#utility.yul\":455:466   */\n      add\n        /* \"#utility.yul\":449:467   */\n      mload\n        /* \"#utility.yul\":445:446   */\n      dup2\n        /* \"#utility.yul\":440:443   */\n      dup5\n        /* \"#utility.yul\":436:447   */\n      add\n        /* \"#utility.yul\":429:468   */\n      mstore\n        /* \"#utility.yul\":401:403   */\n      0x20\n        /* \"#utility.yul\":398:399   */\n      dup2\n        /* \"#utility.yul\":394:404   */\n      add\n        /* \"#utility.yul\":389:404   */\n      swap1\n      pop\n        /* \"#utility.yul\":365:478   */\n      jump(tag_420)\n    tag_422:\n        /* \"#utility.yul\":496:502   */\n      dup4\n        /* \"#utility.yul\":493:494   */\n      dup2\n        /* \"#utility.yul\":490:503   */\n      gt\n        /* \"#utility.yul\":487:588   */\n      iszero\n      tag_423\n      jumpi\n        /* \"#utility.yul\":576:577   */\n      0x00\n        /* \"#utility.yul\":567:573   */\n      dup5\n        /* \"#utility.yul\":562:565   */\n      dup5\n        /* \"#utility.yul\":558:574   */\n      add\n        /* \"#utility.yul\":551:578   */\n      mstore\n        /* \"#utility.yul\":487:588   */\n    tag_423:\n        /* \"#utility.yul\":336:594   */\n      pop\n        /* \"#utility.yul\":287:594   */\n      pop\n      pop\n      pop\n      jump\t// out\n        /* \"#utility.yul\":600:702   */\n    tag_360:\n        /* \"#utility.yul\":641:647   */\n      0x00\n        /* \"#utility.yul\":692:694   */\n      0x1f\n        /* \"#utility.yul\":688:695   */\n      not\n        /* \"#utility.yul\":683:685   */\n      0x1f\n        /* \"#utility.yul\":676:681   */\n      dup4\n        /* \"#utility.yul\":672:686   */\n      add\n        /* \"#utility.yul\":668:696   */\n      and\n        /* \"#utility.yul\":658:696   */\n      swap1\n      pop\n        /* \"#utility.yul\":600:702   */\n      swap2\n      swap1\n      pop\n      jump\t// out\n        /* \"#utility.yul\":708:1072   */\n    tag_361:\n        /* \"#utility.yul\":796:799   */\n      0x00\n        /* \"#utility.yul\":824:863   */\n      tag_426\n        /* \"#utility.yul\":857:862   */\n      dup3\n        /* \"#utility.yul\":824:863   */\n      tag_357\n      jump\t// in\n    tag_426:\n        /* \"#utility.yul\":879:950   */\n      tag_427\n        /* \"#utility.yul\":943:949   */\n      dup2\n        /* \"#utility.yul\":938:941   */\n      dup6\n        /* \"#utility.yul\":879:950   */\n      tag_358\n      jump\t// in\n    tag_427:\n        /* \"#utility.yul\":872:950   */\n      swap4\n      pop\n        /* \"#utility.yul\":959:1011   */\n      tag_428\n        /* \"#utility.yul\":1004:1010   */\n      dup2\n        /* \"#utility.yul\":999:1002   */\n      dup6\n        /* \"#utility.yul\":992:996   */\n      0x20\n        /* \"#utility.yul\":985:990   */\n      dup7\n        /* \"#utility.yul\":981:997   */\n      add\n        /* \"#utility.yul\":959:1011   */\n      tag_359\n      jump\t// in\n    tag_428:\n        /* \"#utility.yul\":1036:1065   */\n      tag_429\n        /* \"#utility.yul\":1058:1064   */\n      dup2\n        /* \"#utility.yul\":1036:1065   */\n      tag_360\n      jump\t// in\n    tag_429:\n        /* \"#utility.yul\":1031:1034   */\n      dup5\n        /* \"#utility.yul\":1027:1066   */\n      add\n        /* \"#utility.yul\":1020:1066   */\n      swap2\n      pop\n        /* \"#utility.yul\":800:1072   */\n      pop\n        /* \"#utility.yul\":708:1072   */\n      swap3\n      swap2\n      pop\n      pop\n      jump\t// out\n        /* \"#utility.yul\":1078:1391   */\n    tag_30:\n        /* \"#utility.yul\":1191:1195   */\n      0x00\n        /* \"#utility.yul\":1229:1231   */\n      0x20\n        /* \"#utility.yul\":1218:1227   */\n      dup3\n        /* \"#utility.yul\":1214:1232   */\n      add\n        /* \"#utility.yul\":1206:1232   */\n      swap1\n      pop\n        /* \"#utility.yul\":1278:1287   */\n      dup2\n        /* \"#utility.yul\":1272:1276   */\n      dup2\n        /* \"#utility.yul\":1268:1288   */\n      sub\n        /* \"#utility.yul\":1264:1265   */\n      0x00\n        /* \"#utility.yul\":1253:1262   */\n      dup4\n        /* \"#utility.yul\":1249:1266   */\n      add\n        /* \"#utility.yul\":1242:1289   */\n      mstore\n        /* \"#utility.yul\":1306:1384   */\n      tag_431\n        /* \"#utility.yul\":1379:1383   */\n      dup2\n        /* \"#utility.yul\":1370:1376   */\n      dup5\n        /* \"#utility.yul\":1306:1384   */\n      tag_361\n      jump\t// in\n    tag_431:\n        /* \"#utility.yul\":1298:1384   */\n      swap1\n      pop\n        /* \"#utility.yul\":1078:1391   */\n      swap3\n      swap2\n      pop\n      pop\n      jump\t// out\n        /* \"#utility.yul\":1478:1595   */\n    tag_363:\n        /* \"#utility.yul\":1587:1588   */\n      0x00\n        /* \"#utility.yul\":1584:1585   */\n      dup1\n        /* \"#utility.yul\":1577:1589   */\n      revert\n        /* \"#utility.yul\":1724:1850   */\n    tag_365:\n        /* \"#utility.yul\":1761:1768   */\n      0x00\n        /* \"#utility.yul\":1801:1843   */\n      0xffffffffffffffffffffffffffffffffffffffff\n        /* \"#utility.yul\":1794:1799   */\n      dup3\n        /* \"#utility.yul\":1790:1844   */\n      and\n        /* \"#utility.yul\":1779:1844   */\n      swap1\n      pop\n        /* \"#utility.yul\":1724:1850   */\n      swap2\n      swap1\n      pop\n      jump\t// out\n        /* \"#utility.yul\":1856:1952   */\n    tag_366:\n        /* \"#utility.yul\":1893:1900   */\n      0x00\n        /* \"#utility.yul\":1922:1946   */\n      tag_437\n        /* \"#utility.yul\":1940:1945   */\n      dup3\n        /* \"#utility.yul\":1922:1946   */\n      tag_365\n      jump\t// in\n    tag_437:\n        /* \"#utility.yul\":1911:1946   */\n      swap1\n      pop\n        /* \"#utility.yul\":1856:1952   */\n      swap2\n      swap1\n      pop\n      jump\t// out\n        /* \"#utility.yul\":1958:2080   */\n    tag_367:\n        /* \"#utility.yul\":2031:2055   */\n      tag_439\n        /* \"#utility.yul\":2049:2054   */\n      dup2\n        /* \"#utility.yul\":2031:2055   */\n      tag_366\n      jump\t// in\n    tag_439:\n        /* \"#utility.yul\":2024:2029   */\n      dup2\n        /* \"#utility.yul\":2021:2056   */\n      eq\n        /* \"#utility.yul\":2011:2074   */\n      tag_440\n      jumpi\n        /* \"#utility.yul\":2070:2071   */\n      0x00\n        /* \"#utility.yul\":2067:2068   */\n      dup1\n        /* \"#utility.yul\":2060:2072   */\n      revert\n        /* \"#utility.yul\":2011:2074   */\n    tag_440:\n        /* \"#utility.yul\":1958:2080   */\n      pop\n      jump\t// out\n        /* \"#utility.yul\":2086:2225   */\n    tag_368:\n        /* \"#utility.yul\":2132:2137   */\n      0x00\n        /* \"#utility.yul\":2170:2176   */\n      dup2\n        /* \"#utility.yul\":2157:2177   */\n      calldataload\n        /* \"#utility.yul\":2148:2177   */\n      swap1\n      pop\n        /* \"#utility.yul\":2186:2219   */\n      tag_442\n        /* \"#utility.yul\":2213:2218   */\n      dup2\n        /* \"#utility.yul\":2186:2219   */\n      tag_367\n      jump\t// in\n    tag_442:\n        /* \"#utility.yul\":2086:2225   */\n      swap3\n      swap2\n      pop\n      pop\n      jump\t// out\n        /* \"#utility.yul\":2231:2308   */\n    tag_369:\n        /* \"#utility.yul\":2268:2275   */\n      0x00\n        /* \"#utility.yul\":2297:2302   */\n      dup2\n        /* \"#utility.yul\":2286:2302   */\n      swap1\n      pop\n        /* \"#utility.yul\":2231:2308   */\n      swap2\n      swap1\n      pop\n      jump\t// out\n        /* \"#utility.yul\":2314:2436   */\n    tag_370:\n        /* \"#utility.yul\":2387:2411   */\n      tag_445\n        /* \"#utility.yul\":2405:2410   */\n      dup2\n        /* \"#utility.yul\":2387:2411   */\n      tag_369\n      jump\t// in\n    tag_445:\n        /* \"#utility.yul\":2380:2385   */\n      dup2\n        /* \"#utility.yul\":2377:2412   */\n      eq\n        /* \"#utility.yul\":2367:2430   */\n      tag_446\n      jumpi\n        /* \"#utility.yul\":2426:2427   */\n      0x00\n        /* \"#utility.yul\":2423:2424   */\n      dup1\n        /* \"#utility.yul\":2416:2428   */\n      revert\n        /* \"#utility.yul\":2367:2430   */\n    tag_446:\n        /* \"#utility.yul\":2314:2436   */\n      pop\n      jump\t// out\n        /* \"#utility.yul\":2442:2581   */\n    tag_371:\n        /* \"#utility.yul\":2488:2493   */\n      0x00\n        /* \"#utility.yul\":2526:2532   */\n      dup2\n        /* \"#utility.yul\":2513:2533   */\n      calldataload\n        /* \"#utility.yul\":2504:2533   */\n      swap1\n      pop\n        /* \"#utility.yul\":2542:2575   */\n      tag_448\n        /* \"#utility.yul\":2569:2574   */\n      dup2\n        /* \"#utility.yul\":2542:2575   */\n      tag_370\n      jump\t// in\n    tag_448:\n        /* \"#utility.yul\":2442:2581   */\n      swap3\n      swap2\n      pop\n      pop\n      jump\t// out\n        /* \"#utility.yul\":2587:3061   */\n    tag_33:\n        /* \"#utility.yul\":2655:2661   */\n      0x00\n        /* \"#utility.yul\":2663:2669   */\n      dup1\n        /* \"#utility.yul\":2712:2714   */\n      0x40\n        /* \"#utility.yul\":2700:2709   */\n      dup4\n        /* \"#utility.yul\":2691:2698   */\n      dup6\n        /* \"#utility.yul\":2687:2710   */\n      sub\n        /* \"#utility.yul\":2683:2715   */\n      slt\n        /* \"#utility.yul\":2680:2799   */\n      iszero\n      tag_450\n      jumpi\n        /* \"#utility.yul\":2718:2797   */\n      tag_451\n      tag_363\n      jump\t// in\n    tag_451:\n        /* \"#utility.yul\":2680:2799   */\n    tag_450:\n        /* \"#utility.yul\":2838:2839   */\n      0x00\n        /* \"#utility.yul\":2863:2916   */\n      tag_452\n        /* \"#utility.yul\":2908:2915   */\n      dup6\n        /* \"#utility.yul\":2899:2905   */\n      dup3\n        /* \"#utility.yul\":2888:2897   */\n      dup7\n        /* \"#utility.yul\":2884:2906   */\n      add\n        /* \"#utility.yul\":2863:2916   */\n      tag_368\n      jump\t// in\n    tag_452:\n        /* \"#utility.yul\":2853:2916   */\n      swap3\n      pop\n        /* \"#utility.yul\":2809:2926   */\n      pop\n        /* \"#utility.yul\":2965:2967   */\n      0x20\n        /* \"#utility.yul\":2991:3044   */\n      tag_453\n        /* \"#utility.yul\":3036:3043   */\n      dup6\n        /* \"#utility.yul\":3027:3033   */\n      dup3\n        /* \"#utility.yul\":3016:3025   */\n      dup7\n        /* \"#utility.yul\":3012:3034   */\n      add\n        /* \"#utility.yul\":2991:3044   */\n      tag_371\n      jump\t// in\n    tag_453:\n        /* \"#utility.yul\":2981:3044   */\n      swap2\n      pop\n        /* \"#utility.yul\":2936:3054   */\n      pop\n        /* \"#utility.yul\":2587:3061   */\n      swap3\n      pop\n      swap3\n      swap1\n      pop\n      jump\t// out\n        /* \"#utility.yul\":3067:3157   */\n    tag_372:\n        /* \"#utility.yul\":3101:3108   */\n      0x00\n        /* \"#utility.yul\":3144:3149   */\n      dup2\n        /* \"#utility.yul\":3137:3150   */\n      iszero\n        /* \"#utility.yul\":3130:3151   */\n      iszero\n        /* \"#utility.yul\":3119:3151   */\n      swap1\n      pop\n        /* \"#utility.yul\":3067:3157   */\n      swap2\n      swap1\n      pop\n      jump\t// out\n        /* \"#utility.yul\":3163:3272   */\n    tag_373:\n        /* \"#utility.yul\":3244:3265   */\n      tag_456\n        /* \"#utility.yul\":3259:3264   */\n      dup2\n        /* \"#utility.yul\":3244:3265   */\n      tag_372\n      jump\t// in\n    tag_456:\n        /* \"#utility.yul\":3239:3242   */\n      dup3\n        /* \"#utility.yul\":3232:3266   */\n      mstore\n        /* \"#utility.yul\":3163:3272   */\n      pop\n      pop\n      jump\t// out\n        /* \"#utility.yul\":3278:3488   */\n    tag_36:\n        /* \"#utility.yul\":3365:3369   */\n      0x00\n        /* \"#utility.yul\":3403:3405   */\n      0x20\n        /* \"#utility.yul\":3392:3401   */\n      dup3\n        /* \"#utility.yul\":3388:3406   */\n      add\n        /* \"#utility.yul\":3380:3406   */\n      swap1\n      pop\n        /* \"#utility.yul\":3416:3481   */\n      tag_458\n        /* \"#utility.yul\":3478:3479   */\n      0x00\n        /* \"#utility.yul\":3467:3476   */\n      dup4\n        /* \"#utility.yul\":3463:3480   */\n      add\n        /* \"#utility.yul\":3454:3460   */\n      dup5\n        /* \"#utility.yul\":3416:3481   */\n      tag_373\n      jump\t// in\n    tag_458:\n        /* \"#utility.yul\":3278:3488   */\n      swap3\n      swap2\n      pop\n      pop\n      jump\t// out\n        /* \"#utility.yul\":3494:3612   */\n    tag_374:\n        /* \"#utility.yul\":3581:3605   */\n      tag_460\n        /* \"#utility.yul\":3599:3604   */\n      dup2\n        /* \"#utility.yul\":3581:3605   */\n      tag_369\n      jump\t// in\n    tag_460:\n        /* \"#utility.yul\":3576:3579   */\n      dup3\n        /* \"#utility.yul\":3569:3606   */\n      mstore\n        /* \"#utility.yul\":3494:3612   */\n      pop\n      pop\n      jump\t// out\n        /* \"#utility.yul\":3618:3840   */\n    tag_40:\n        /* \"#utility.yul\":3711:3715   */\n      0x00\n        /* \"#utility.yul\":3749:3751   */\n      0x20\n        /* \"#utility.yul\":3738:3747   */\n      dup3\n        /* \"#utility.yul\":3734:3752   */\n      add\n        /* \"#utility.yul\":3726:3752   */\n      swap1\n      pop\n        /* \"#utility.yul\":3762:3833   */\n      tag_462\n        /* \"#utility.yul\":3830:3831   */\n      0x00\n        /* \"#utility.yul\":3819:3828   */\n      dup4\n        /* \"#utility.yul\":3815:3832   */\n      add\n        /* \"#utility.yul\":3806:3812   */\n      dup5\n        /* \"#utility.yul\":3762:3833   */\n      tag_374\n      jump\t// in\n    tag_462:\n        /* \"#utility.yul\":3618:3840   */\n      swap3\n      swap2\n      pop\n      pop\n      jump\t// out\n        /* \"#utility.yul\":3846:4465   */\n    tag_43:\n        /* \"#utility.yul\":3923:3929   */\n      0x00\n        /* \"#utility.yul\":3931:3937   */\n      dup1\n        /* \"#utility.yul\":3939:3945   */\n      0x00\n        /* \"#utility.yul\":3988:3990   */\n      0x60\n        /* \"#utility.yul\":3976:3985   */\n      dup5\n        /* \"#utility.yul\":3967:3974   */\n      dup7\n        /* \"#utility.yul\":3963:3986   */\n      sub\n        /* \"#utility.yul\":3959:3991   */\n      slt\n        /* \"#utility.yul\":3956:4075   */\n      iszero\n      tag_464\n      jumpi\n        /* \"#utility.yul\":3994:4073   */\n      tag_465\n      tag_363\n      jump\t// in\n    tag_465:\n        /* \"#utility.yul\":3956:4075   */\n    tag_464:\n        /* \"#utility.yul\":4114:4115   */\n      0x00\n        /* \"#utility.yul\":4139:4192   */\n      tag_466\n        /* \"#utility.yul\":4184:4191   */\n      dup7\n        /* \"#utility.yul\":4175:4181   */\n      dup3\n        /* \"#utility.yul\":4164:4173   */\n      dup8\n        /* \"#utility.yul\":4160:4182   */\n      add\n        /* \"#utility.yul\":4139:4192   */\n      tag_368\n      jump\t// in\n    tag_466:\n        /* \"#utility.yul\":4129:4192   */\n      swap4\n      pop\n        /* \"#utility.yul\":4085:4202   */\n      pop\n        /* \"#utility.yul\":4241:4243   */\n      0x20\n        /* \"#utility.yul\":4267:4320   */\n      tag_467\n        /* \"#utility.yul\":4312:4319   */\n      dup7\n        /* \"#utility.yul\":4303:4309   */\n      dup3\n        /* \"#utility.yul\":4292:4301   */\n      dup8\n        /* \"#utility.yul\":4288:4310   */\n      add\n        /* \"#utility.yul\":4267:4320   */\n      tag_368\n      jump\t// in\n    tag_467:\n        /* \"#utility.yul\":4257:4320   */\n      swap3\n      pop\n        /* \"#utility.yul\":4212:4330   */\n      pop\n        /* \"#utility.yul\":4369:4371   */\n      0x40\n        /* \"#utility.yul\":4395:4448   */\n      tag_468\n        /* \"#utility.yul\":4440:4447   */\n      dup7\n        /* \"#utility.yul\":4431:4437   */\n      dup3\n        /* \"#utility.yul\":4420:4429   */\n      dup8\n        /* \"#utility.yul\":4416:4438   */\n      add\n        /* \"#utility.yul\":4395:4448   */\n      tag_371\n      jump\t// in\n    tag_468:\n        /* \"#utility.yul\":4385:4448   */\n      swap2\n      pop\n        /* \"#utility.yul\":4340:4458   */\n      pop\n        /* \"#utility.yul\":3846:4465   */\n      swap3\n      pop\n      swap3\n      pop\n      swap3\n      jump\t// out\n        /* \"#utility.yul\":4471:4557   */\n    tag_375:\n        /* \"#utility.yul\":4506:4513   */\n      0x00\n        /* \"#utility.yul\":4546:4550   */\n      0xff\n        /* \"#utility.yul\":4539:4544   */\n      dup3\n        /* \"#utility.yul\":4535:4551   */\n      and\n        /* \"#utility.yul\":4524:4551   */\n      swap1\n      pop\n        /* \"#utility.yul\":4471:4557   */\n      swap2\n      swap1\n      pop\n      jump\t// out\n        /* \"#utility.yul\":4563:4675   */\n    tag_376:\n        /* \"#utility.yul\":4646:4668   */\n      tag_471\n        /* \"#utility.yul\":4662:4667   */\n      dup2\n        /* \"#utility.yul\":4646:4668   */\n      tag_375\n      jump\t// in\n    tag_471:\n        /* \"#utility.yul\":4641:4644   */\n      dup3\n        /* \"#utility.yul\":4634:4669   */\n      mstore\n        /* \"#utility.yul\":4563:4675   */\n      pop\n      pop\n      jump\t// out\n        /* \"#utility.yul\":4681:4895   */\n    tag_49:\n        /* \"#utility.yul\":4770:4774   */\n      0x00\n        /* \"#utility.yul\":4808:4810   */\n      0x20\n        /* \"#utility.yul\":4797:4806   */\n      dup3\n        /* \"#utility.yul\":4793:4811   */\n      add\n        /* \"#utility.yul\":4785:4811   */\n      swap1\n      pop\n        /* \"#utility.yul\":4821:4888   */\n      tag_473\n        /* \"#utility.yul\":4885:4886   */\n      0x00\n        /* \"#utility.yul\":4874:4883   */\n      dup4\n        /* \"#utility.yul\":4870:4887   */\n      add\n        /* \"#utility.yul\":4861:4867   */\n      dup5\n        /* \"#utility.yul\":4821:4888   */\n      tag_376\n      jump\t// in\n    tag_473:\n        /* \"#utility.yul\":4681:4895   */\n      swap3\n      swap2\n      pop\n      pop\n      jump\t// out\n        /* \"#utility.yul\":4901:5230   */\n    tag_61:\n        /* \"#utility.yul\":4960:4966   */\n      0x00\n        /* \"#utility.yul\":5009:5011   */\n      0x20\n        /* \"#utility.yul\":4997:5006   */\n      dup3\n        /* \"#utility.yul\":4988:4995   */\n      dup5\n        /* \"#utility.yul\":4984:5007   */\n      sub\n        /* \"#utility.yul\":4980:5012   */\n      slt\n        /* \"#utility.yul\":4977:5096   */\n      iszero\n      tag_475\n      jumpi\n        /* \"#utility.yul\":5015:5094   */\n      tag_476\n      tag_363\n      jump\t// in\n    tag_476:\n        /* \"#utility.yul\":4977:5096   */\n    tag_475:\n        /* \"#utility.yul\":5135:5136   */\n      0x00\n        /* \"#utility.yul\":5160:5213   */\n      tag_477\n        /* \"#utility.yul\":5205:5212   */\n      dup5\n        /* \"#utility.yul\":5196:5202   */\n      dup3\n        /* \"#utility.yul\":5185:5194   */\n      dup6\n        /* \"#utility.yul\":5181:5203   */\n      add\n        /* \"#utility.yul\":5160:5213   */\n      tag_371\n      jump\t// in\n    tag_477:\n        /* \"#utility.yul\":5150:5213   */\n      swap2\n      pop\n        /* \"#utility.yul\":5106:5223   */\n      pop\n        /* \"#utility.yul\":4901:5230   */\n      swap3\n      swap2\n      pop\n      pop\n      jump\t// out\n        /* \"#utility.yul\":5236:5565   */\n    tag_68:\n        /* \"#utility.yul\":5295:5301   */\n      0x00\n        /* \"#utility.yul\":5344:5346   */\n      0x20\n        /* \"#utility.yul\":5332:5341   */\n      dup3\n        /* \"#utility.yul\":5323:5330   */\n      dup5\n        /* \"#utility.yul\":5319:5342   */\n      sub\n        /* \"#utility.yul\":5315:5347   */\n      slt\n        /* \"#utility.yul\":5312:5431   */\n      iszero\n      tag_479\n      jumpi\n        /* \"#utility.yul\":5350:5429   */\n      tag_480\n      tag_363\n      jump\t// in\n    tag_480:\n        /* \"#utility.yul\":5312:5431   */\n    tag_479:\n        /* \"#utility.yul\":5470:5471   */\n      0x00\n        /* \"#utility.yul\":5495:5548   */\n      tag_481\n        /* \"#utility.yul\":5540:5547   */\n      dup5\n        /* \"#utility.yul\":5531:5537   */\n      dup3\n        /* \"#utility.yul\":5520:5529   */\n      dup6\n        /* \"#utility.yul\":5516:5538   */\n      add\n        /* \"#utility.yul\":5495:5548   */\n      tag_368\n      jump\t// in\n    tag_481:\n        /* \"#utility.yul\":5485:5548   */\n      swap2\n      pop\n        /* \"#utility.yul\":5441:5558   */\n      pop\n        /* \"#utility.yul\":5236:5565   */\n      swap3\n      swap2\n      pop\n      pop\n      jump\t// out\n        /* \"#utility.yul\":5571:5689   */\n    tag_377:\n        /* \"#utility.yul\":5658:5682   */\n      tag_483\n        /* \"#utility.yul\":5676:5681   */\n      dup2\n        /* \"#utility.yul\":5658:5682   */\n      tag_366\n      jump\t// in\n    tag_483:\n        /* \"#utility.yul\":5653:5656   */\n      dup3\n        /* \"#utility.yul\":5646:5683   */\n      mstore\n        /* \"#utility.yul\":5571:5689   */\n      pop\n      pop\n      jump\t// out\n        /* \"#utility.yul\":5695:5917   */\n    tag_83:\n        /* \"#utility.yul\":5788:5792   */\n      0x00\n        /* \"#utility.yul\":5826:5828   */\n      0x20\n        /* \"#utility.yul\":5815:5824   */\n      dup3\n        /* \"#utility.yul\":5811:5829   */\n      add\n        /* \"#utility.yul\":5803:5829   */\n      swap1\n      pop\n        /* \"#utility.yul\":5839:5910   */\n      tag_485\n        /* \"#utility.yul\":5907:5908   */\n      0x00\n        /* \"#utility.yul\":5896:5905   */\n      dup4\n        /* \"#utility.yul\":5892:5909   */\n      add\n        /* \"#utility.yul\":5883:5889   */\n      dup5\n        /* \"#utility.yul\":5839:5910   */\n      tag_377\n      jump\t// in\n    tag_485:\n        /* \"#utility.yul\":5695:5917   */\n      swap3\n      swap2\n      pop\n      pop\n      jump\t// out\n        /* \"#utility.yul\":5923:6397   */\n    tag_97:\n        /* \"#utility.yul\":5991:5997   */\n      0x00\n        /* \"#utility.yul\":5999:6005   */\n      dup1\n        /* \"#utility.yul\":6048:6050   */\n      0x40\n        /* \"#utility.yul\":6036:6045   */\n      dup4\n        /* \"#utility.yul\":6027:6034   */\n      dup6\n        /* \"#utility.yul\":6023:6046   */\n      sub\n        /* \"#utility.yul\":6019:6051   */\n      slt\n        /* \"#utility.yul\":6016:6135   */\n      iszero\n      tag_487\n      jumpi\n        /* \"#utility.yul\":6054:6133   */\n      tag_488\n      tag_363\n      jump\t// in\n    tag_488:\n        /* \"#utility.yul\":6016:6135   */\n    tag_487:\n        /* \"#utility.yul\":6174:6175   */\n      0x00\n        /* \"#utility.yul\":6199:6252   */\n      tag_489\n        /* \"#utility.yul\":6244:6251   */\n      dup6\n        /* \"#utility.yul\":6235:6241   */\n      dup3\n        /* \"#utility.yul\":6224:6233   */\n      dup7\n        /* \"#utility.yul\":6220:6242   */\n      add\n        /* \"#utility.yul\":6199:6252   */\n      tag_368\n      jump\t// in\n    tag_489:\n        /* \"#utility.yul\":6189:6252   */\n      swap3\n      pop\n        /* \"#utility.yul\":6145:6262   */\n      pop\n        /* \"#utility.yul\":6301:6303   */\n      0x20\n        /* \"#utility.yul\":6327:6380   */\n      tag_490\n        /* \"#utility.yul\":6372:6379   */\n      dup6\n        /* \"#utility.yul\":6363:6369   */\n      dup3\n        /* \"#utility.yul\":6352:6361   */\n      dup7\n        /* \"#utility.yul\":6348:6370   */\n      add\n        /* \"#utility.yul\":6327:6380   */\n      tag_368\n      jump\t// in\n    tag_490:\n        /* \"#utility.yul\":6317:6380   */\n      swap2\n      pop\n        /* \"#utility.yul\":6272:6390   */\n      pop\n        /* \"#utility.yul\":5923:6397   */\n      swap3\n      pop\n      swap3\n      swap1\n      pop\n      jump\t// out\n        /* \"#utility.yul\":6403:6583   */\n    tag_378:\n        /* \"#utility.yul\":6451:6528   */\n      0x4e487b7100000000000000000000000000000000000000000000000000000000\n        /* \"#utility.yul\":6448:6449   */\n      0x00\n        /* \"#utility.yul\":6441:6529   */\n      mstore\n        /* \"#utility.yul\":6548:6552   */\n      0x22\n        /* \"#utility.yul\":6545:6546   */\n      0x04\n        /* \"#utility.yul\":6538:6553   */\n      mstore\n        /* \"#utility.yul\":6572:6576   */\n      0x24\n        /* \"#utility.yul\":6569:6570   */\n      0x00\n        /* \"#utility.yul\":6562:6577   */\n      revert\n        /* \"#utility.yul\":6589:6909   */\n    tag_106:\n        /* \"#utility.yul\":6633:6639   */\n      0x00\n        /* \"#utility.yul\":6670:6671   */\n      0x02\n        /* \"#utility.yul\":6664:6668   */\n      dup3\n        /* \"#utility.yul\":6660:6672   */\n      div\n        /* \"#utility.yul\":6650:6672   */\n      swap1\n      pop\n        /* \"#utility.yul\":6717:6718   */\n      0x01\n        /* \"#utility.yul\":6711:6715   */\n      dup3\n        /* \"#utility.yul\":6707:6719   */\n      and\n        /* \"#utility.yul\":6738:6756   */\n      dup1\n        /* \"#utility.yul\":6728:6809   */\n      tag_493\n      jumpi\n        /* \"#utility.yul\":6794:6798   */\n      0x7f\n        /* \"#utility.yul\":6786:6792   */\n      dup3\n        /* \"#utility.yul\":6782:6799   */\n      and\n        /* \"#utility.yul\":6772:6799   */\n      swap2\n      pop\n        /* \"#utility.yul\":6728:6809   */\n    tag_493:\n        /* \"#utility.yul\":6856:6858   */\n      0x20\n        /* \"#utility.yul\":6848:6854   */\n      dup3\n        /* \"#utility.yul\":6845:6859   */\n      lt\n        /* \"#utility.yul\":6825:6843   */\n      dup2\n        /* \"#utility.yul\":6822:6860   */\n      eq\n        /* \"#utility.yul\":6819:6903   */\n      iszero\n      tag_494\n      jumpi\n        /* \"#utility.yul\":6875:6893   */\n      tag_495\n      tag_378\n      jump\t// in\n    tag_495:\n        /* \"#utility.yul\":6819:6903   */\n    tag_494:\n        /* \"#utility.yul\":6640:6909   */\n      pop\n        /* \"#utility.yul\":6589:6909   */\n      swap2\n      swap1\n      pop\n      jump\t// out\n        /* \"#utility.yul\":6915:7095   */\n    tag_379:\n        /* \"#utility.yul\":6963:7040   */\n      0x4e487b7100000000000000000000000000000000000000000000000000000000\n        /* \"#utility.yul\":6960:6961   */\n      0x00\n        /* \"#utility.yul\":6953:7041   */\n      mstore\n        /* \"#utility.yul\":7060:7064   */\n      0x11\n        /* \"#utility.yul\":7057:7058   */\n      0x04\n        /* \"#utility.yul\":7050:7065   */\n      mstore\n        /* \"#utility.yul\":7084:7088   */\n      0x24\n        /* \"#utility.yul\":7081:7082   */\n      0x00\n        /* \"#utility.yul\":7074:7089   */\n      revert\n        /* \"#utility.yul\":7101:7406   */\n    tag_129:\n        /* \"#utility.yul\":7141:7144   */\n      0x00\n        /* \"#utility.yul\":7160:7180   */\n      tag_498\n        /* \"#utility.yul\":7178:7179   */\n      dup3\n        /* \"#utility.yul\":7160:7180   */\n      tag_369\n      jump\t// in\n    tag_498:\n        /* \"#utility.yul\":7155:7180   */\n      swap2\n      pop\n        /* \"#utility.yul\":7194:7214   */\n      tag_499\n        /* \"#utility.yul\":7212:7213   */\n      dup4\n        /* \"#utility.yul\":7194:7214   */\n      tag_369\n      jump\t// in\n    tag_499:\n        /* \"#utility.yul\":7189:7214   */\n      swap3\n      pop\n        /* \"#utility.yul\":7348:7349   */\n      dup3\n        /* \"#utility.yul\":7280:7346   */\n      0xffffffffffffffffffffffffffffffffffffffffffffffffffffffffffffffff\n        /* \"#utility.yul\":7276:7350   */\n      sub\n        /* \"#utility.yul\":7273:7274   */\n      dup3\n        /* \"#utility.yul\":7270:7351   */\n      gt\n        /* \"#utility.yul\":7267:7374   */\n      iszero\n      tag_500\n      jumpi\n        /* \"#utility.yul\":7354:7372   */\n      tag_501\n      tag_379\n      jump\t// in\n    tag_501:\n        /* \"#utility.yul\":7267:7374   */\n    tag_500:\n        /* \"#utility.yul\":7398:7399   */\n      dup3\n        /* \"#utility.yul\":7395:7396   */\n      dup3\n        /* \"#utility.yul\":7391:7400   */\n      add\n        /* \"#utility.yul\":7384:7400   */\n      swap1\n      pop\n        /* \"#utility.yul\":7101:7406   */\n      swap3\n      swap2\n      pop\n      pop\n      jump\t// out\n        /* \"#utility.yul\":7412:7594   */\n    tag_380:\n        /* \"#utility.yul\":7552:7586   */\n      0x4f776e61626c653a2063616c6c6572206973206e6f7420746865206f776e6572\n        /* \"#utility.yul\":7548:7549   */\n      0x00\n        /* \"#utility.yul\":7540:7546   */\n      dup3\n        /* \"#utility.yul\":7536:7550   */\n      add\n        /* \"#utility.yul\":7529:7587   */\n      mstore\n        /* \"#utility.yul\":7412:7594   */\n      pop\n      jump\t// out\n        /* \"#utility.yul\":7600:7966   */\n    tag_381:\n        /* \"#utility.yul\":7742:7745   */\n      0x00\n        /* \"#utility.yul\":7763:7830   */\n      tag_504\n        /* \"#utility.yul\":7827:7829   */\n      0x20\n        /* \"#utility.yul\":7822:7825   */\n      dup4\n        /* \"#utility.yul\":7763:7830   */\n      tag_358\n      jump\t// in\n    tag_504:\n        /* \"#utility.yul\":7756:7830   */\n      swap2\n      pop\n        /* \"#utility.yul\":7839:7932   */\n      tag_505\n        /* \"#utility.yul\":7928:7931   */\n      dup3\n        /* \"#utility.yul\":7839:7932   */\n      tag_380\n      jump\t// in\n    tag_505:\n        /* \"#utility.yul\":7957:7959   */\n      0x20\n        /* \"#utility.yul\":7952:7955   */\n      dup3\n        /* \"#utility.yul\":7948:7960   */\n      add\n        /* \"#utility.yul\":7941:7960   */\n      swap1\n      pop\n        /* \"#utility.yul\":7600:7966   */\n      swap2\n      swap1\n      pop\n      jump\t// out\n        /* \"#utility.yul\":7972:8391   */\n    tag_135:\n        /* \"#utility.yul\":8138:8142   */\n      0x00\n        /* \"#utility.yul\":8176:8178   */\n      0x20\n        /* \"#utility.yul\":8165:8174   */\n      dup3\n        /* \"#utility.yul\":8161:8179   */\n      add\n        /* \"#utility.yul\":8153:8179   */\n      swap1\n      pop\n        /* \"#utility.yul\":8225:8234   */\n      dup2\n        /* \"#utility.yul\":8219:8223   */\n      dup2\n        /* \"#utility.yul\":8215:8235   */\n      sub\n        /* \"#utility.yul\":8211:8212   */\n      0x00\n        /* \"#utility.yul\":8200:8209   */\n      dup4\n        /* \"#utility.yul\":8196:8213   */\n      add\n        /* \"#utility.yul\":8189:8236   */\n      mstore\n        /* \"#utility.yul\":8253:8384   */\n      tag_507\n        /* \"#utility.yul\":8379:8383   */\n      dup2\n        /* \"#utility.yul\":8253:8384   */\n      tag_381\n      jump\t// in\n    tag_507:\n        /* \"#utility.yul\":8245:8384   */\n      swap1\n      pop\n        /* \"#utility.yul\":7972:8391   */\n      swap2\n      swap1\n      pop\n      jump\t// out\n        /* \"#utility.yul\":8397:8482   */\n    tag_382:\n        /* \"#utility.yul\":8442:8449   */\n      0x00\n        /* \"#utility.yul\":8471:8476   */\n      dup2\n        /* \"#utility.yul\":8460:8476   */\n      swap1\n      pop\n        /* \"#utility.yul\":8397:8482   */\n      swap2\n      swap1\n      pop\n      jump\t// out\n        /* \"#utility.yul\":8488:8548   */\n    tag_383:\n        /* \"#utility.yul\":8516:8519   */\n      0x00\n        /* \"#utility.yul\":8537:8542   */\n      dup2\n        /* \"#utility.yul\":8530:8542   */\n      swap1\n      pop\n        /* \"#utility.yul\":8488:8548   */\n      swap2\n      swap1\n      pop\n      jump\t// out\n        /* \"#utility.yul\":8554:8708   */\n    tag_384:\n        /* \"#utility.yul\":8610:8619   */\n      0x00\n        /* \"#utility.yul\":8643:8702   */\n      tag_511\n        /* \"#utility.yul\":8659:8701   */\n      tag_512\n        /* \"#utility.yul\":8668:8700   */\n      tag_513\n        /* \"#utility.yul\":8694:8699   */\n      dup5\n        /* \"#utility.yul\":8668:8700   */\n      tag_382\n      jump\t// in\n    tag_513:\n        /* \"#utility.yul\":8659:8701   */\n      tag_383\n      jump\t// in\n    tag_512:\n        /* \"#utility.yul\":8643:8702   */\n      tag_375\n      jump\t// in\n    tag_511:\n        /* \"#utility.yul\":8630:8702   */\n      swap1\n      pop\n        /* \"#utility.yul\":8554:8708   */\n      swap2\n      swap1\n      pop\n      jump\t// out\n        /* \"#utility.yul\":8714:8857   */\n    tag_385:\n        /* \"#utility.yul\":8807:8850   */\n      tag_515\n        /* \"#utility.yul\":8844:8849   */\n      dup2\n        /* \"#utility.yul\":8807:8850   */\n      tag_384\n      jump\t// in\n    tag_515:\n        /* \"#utility.yul\":8802:8805   */\n      dup3\n        /* \"#utility.yul\":8795:8851   */\n      mstore\n        /* \"#utility.yul\":8714:8857   */\n      pop\n      pop\n      jump\t// out\n        /* \"#utility.yul\":8863:9097   */\n    tag_180:\n        /* \"#utility.yul\":8962:8966   */\n      0x00\n        /* \"#utility.yul\":9000:9002   */\n      0x20\n        /* \"#utility.yul\":8989:8998   */\n      dup3\n        /* \"#utility.yul\":8985:9003   */\n      add\n        /* \"#utility.yul\":8977:9003   */\n      swap1\n      pop\n        /* \"#utility.yul\":9013:9090   */\n      tag_517\n        /* \"#utility.yul\":9087:9088   */\n      0x00\n        /* \"#utility.yul\":9076:9085   */\n      dup4\n        /* \"#utility.yul\":9072:9089   */\n      add\n        /* \"#utility.yul\":9063:9069   */\n      dup5\n        /* \"#utility.yul\":9013:9090   */\n      tag_385\n      jump\t// in\n    tag_517:\n        /* \"#utility.yul\":8863:9097   */\n      swap3\n      swap2\n      pop\n      pop\n      jump\t// out\n        /* \"#utility.yul\":9103:9327   */\n    tag_386:\n        /* \"#utility.yul\":9243:9277   */\n      0x45524332303a2064656372656173656420616c6c6f77616e63652062656c6f77\n        /* \"#utility.yul\":9239:9240   */\n      0x00\n        /* \"#utility.yul\":9231:9237   */\n      dup3\n        /* \"#utility.yul\":9227:9241   */\n      add\n        /* \"#utility.yul\":9220:9278   */\n      mstore\n        /* \"#utility.yul\":9312:9319   */\n      0x207a65726f000000000000000000000000000000000000000000000000000000\n        /* \"#utility.yul\":9307:9309   */\n      0x20\n        /* \"#utility.yul\":9299:9305   */\n      dup3\n        /* \"#utility.yul\":9295:9310   */\n      add\n        /* \"#utility.yul\":9288:9320   */\n      mstore\n        /* \"#utility.yul\":9103:9327   */\n      pop\n      jump\t// out\n        /* \"#utility.yul\":9333:9699   */\n    tag_387:\n        /* \"#utility.yul\":9475:9478   */\n      0x00\n        /* \"#utility.yul\":9496:9563   */\n      tag_520\n        /* \"#utility.yul\":9560:9562   */\n      0x25\n        /* \"#utility.yul\":9555:9558   */\n      dup4\n        /* \"#utility.yul\":9496:9563   */\n      tag_358\n      jump\t// in\n    tag_520:\n        /* \"#utility.yul\":9489:9563   */\n      swap2\n      pop\n        /* \"#utility.yul\":9572:9665   */\n      tag_521\n        /* \"#utility.yul\":9661:9664   */\n      dup3\n        /* \"#utility.yul\":9572:9665   */\n      tag_386\n      jump\t// in\n    tag_521:\n        /* \"#utility.yul\":9690:9692   */\n      0x40\n        /* \"#utility.yul\":9685:9688   */\n      dup3\n        /* \"#utility.yul\":9681:9693   */\n      add\n        /* \"#utility.yul\":9674:9693   */\n      swap1\n      pop\n        /* \"#utility.yul\":9333:9699   */\n      swap2\n      swap1\n      pop\n      jump\t// out\n        /* \"#utility.yul\":9705:10124   */\n    tag_201:\n        /* \"#utility.yul\":9871:9875   */\n      0x00\n        /* \"#utility.yul\":9909:9911   */\n      0x20\n        /* \"#utility.yul\":9898:9907   */\n      dup3\n        /* \"#utility.yul\":9894:9912   */\n      add\n        /* \"#utility.yul\":9886:9912   */\n      swap1\n      pop\n        /* \"#utility.yul\":9958:9967   */\n      dup2\n        /* \"#utility.yul\":9952:9956   */\n      dup2\n        /* \"#utility.yul\":9948:9968   */\n      sub\n        /* \"#utility.yul\":9944:9945   */\n      0x00\n        /* \"#utility.yul\":9933:9942   */\n      dup4\n        /* \"#utility.yul\":9929:9946   */\n      add\n        /* \"#utility.yul\":9922:9969   */\n      mstore\n        /* \"#utility.yul\":9986:10117   */\n      tag_523\n        /* \"#utility.yul\":10112:10116   */\n      dup2\n        /* \"#utility.yul\":9986:10117   */\n      tag_387\n      jump\t// in\n    tag_523:\n        /* \"#utility.yul\":9978:10117   */\n      swap1\n      pop\n        /* \"#utility.yul\":9705:10124   */\n      swap2\n      swap1\n      pop\n      jump\t// out\n        /* \"#utility.yul\":10130:10355   */\n    tag_388:\n        /* \"#utility.yul\":10270:10304   */\n      0x4f776e61626c653a206e6577206f776e657220697320746865207a65726f2061\n        /* \"#utility.yul\":10266:10267   */\n      0x00\n        /* \"#utility.yul\":10258:10264   */\n      dup3\n        /* \"#utility.yul\":10254:10268   */\n      add\n        /* \"#utility.yul\":10247:10305   */\n      mstore\n        /* \"#utility.yul\":10339:10347   */\n      0x6464726573730000000000000000000000000000000000000000000000000000\n        /* \"#utility.yul\":10334:10336   */\n      0x20\n        /* \"#utility.yul\":10326:10332   */\n      dup3\n        /* \"#utility.yul\":10322:10337   */\n      add\n        /* \"#utility.yul\":10315:10348   */\n      mstore\n        /* \"#utility.yul\":10130:10355   */\n      pop\n      jump\t// out\n        /* \"#utility.yul\":10361:10727   */\n    tag_389:\n        /* \"#utility.yul\":10503:10506   */\n      0x00\n        /* \"#utility.yul\":10524:10591   */\n      tag_526\n        /* \"#utility.yul\":10588:10590   */\n      0x26\n        /* \"#utility.yul\":10583:10586   */\n      dup4\n        /* \"#utility.yul\":10524:10591   */\n      tag_358\n      jump\t// in\n    tag_526:\n        /* \"#utility.yul\":10517:10591   */\n      swap2\n      pop\n        /* \"#utility.yul\":10600:10693   */\n      tag_527\n        /* \"#utility.yul\":10689:10692   */\n      dup3\n        /* \"#utility.yul\":10600:10693   */\n      tag_388\n      jump\t// in\n    tag_527:\n        /* \"#utility.yul\":10718:10720   */\n      0x40\n        /* \"#utility.yul\":10713:10716   */\n      dup3\n        /* \"#utility.yul\":10709:10721   */\n      add\n        /* \"#utility.yul\":10702:10721   */\n      swap1\n      pop\n        /* \"#utility.yul\":10361:10727   */\n      swap2\n      swap1\n      pop\n      jump\t// out\n        /* \"#utility.yul\":10733:11152   */\n    tag_215:\n        /* \"#utility.yul\":10899:10903   */\n      0x00\n        /* \"#utility.yul\":10937:10939   */\n      0x20\n        /* \"#utility.yul\":10926:10935   */\n      dup3\n        /* \"#utility.yul\":10922:10940   */\n      add\n        /* \"#utility.yul\":10914:10940   */\n      swap1\n      pop\n        /* \"#utility.yul\":10986:10995   */\n      dup2\n        /* \"#utility.yul\":10980:10984   */\n      dup2\n        /* \"#utility.yul\":10976:10996   */\n      sub\n        /* \"#utility.yul\":10972:10973   */\n      0x00\n        /* \"#utility.yul\":10961:10970   */\n      dup4\n        /* \"#utility.yul\":10957:10974   */\n      add\n        /* \"#utility.yul\":10950:10997   */\n      mstore\n        /* \"#utility.yul\":11014:11145   */\n      tag_529\n        /* \"#utility.yul\":11140:11144   */\n      dup2\n        /* \"#utility.yul\":11014:11145   */\n      tag_389\n      jump\t// in\n    tag_529:\n        /* \"#utility.yul\":11006:11145   */\n      swap1\n      pop\n        /* \"#utility.yul\":10733:11152   */\n      swap2\n      swap1\n      pop\n      jump\t// out\n        /* \"#utility.yul\":11158:11381   */\n    tag_390:\n        /* \"#utility.yul\":11298:11332   */\n      0x45524332303a20617070726f76652066726f6d20746865207a65726f20616464\n        /* \"#utility.yul\":11294:11295   */\n      0x00\n        /* \"#utility.yul\":11286:11292   */\n      dup3\n        /* \"#utility.yul\":11282:11296   */\n      add\n        /* \"#utility.yul\":11275:11333   */\n      mstore\n        /* \"#utility.yul\":11367:11373   */\n      0x7265737300000000000000000000000000000000000000000000000000000000\n        /* \"#utility.yul\":11362:11364   */\n      0x20\n        /* \"#utility.yul\":11354:11360   */\n      dup3\n        /* \"#utility.yul\":11350:11365   */\n      add\n        /* \"#utility.yul\":11343:11374   */\n      mstore\n        /* \"#utility.yul\":11158:11381   */\n      pop\n      jump\t// out\n        /* \"#utility.yul\":11387:11753   */\n    tag_391:\n        /* \"#utility.yul\":11529:11532   */\n      0x00\n        /* \"#utility.yul\":11550:11617   */\n      tag_532\n        /* \"#utility.yul\":11614:11616   */\n      0x24\n        /* \"#utility.yul\":11609:11612   */\n      dup4\n        /* \"#utility.yul\":11550:11617   */\n      tag_358\n      jump\t// in\n    tag_532:\n        /* \"#utility.yul\":11543:11617   */\n      swap2\n      pop\n        /* \"#utility.yul\":11626:11719   */\n      tag_533\n        /* \"#utility.yul\":11715:11718   */\n      dup3\n        /* \"#utility.yul\":11626:11719   */\n      tag_390\n      jump\t// in\n    tag_533:\n        /* \"#utility.yul\":11744:11746   */\n      0x40\n        /* \"#utility.yul\":11739:11742   */\n      dup3\n        /* \"#utility.yul\":11735:11747   */\n      add\n        /* \"#utility.yul\":11728:11747   */\n      swap1\n      pop\n        /* \"#utility.yul\":11387:11753   */\n      swap2\n      swap1\n      pop\n      jump\t// out\n        /* \"#utility.yul\":11759:12178   */\n    tag_222:\n        /* \"#utility.yul\":11925:11929   */\n      0x00\n        /* \"#utility.yul\":11963:11965   */\n      0x20\n        /* \"#utility.yul\":11952:11961   */\n      dup3\n        /* \"#utility.yul\":11948:11966   */\n      add\n        /* \"#utility.yul\":11940:11966   */\n      swap1\n      pop\n        /* \"#utility.yul\":12012:12021   */\n      dup2\n        /* \"#utility.yul\":12006:12010   */\n      dup2\n        /* \"#utility.yul\":12002:12022   */\n      sub\n        /* \"#utility.yul\":11998:11999   */\n      0x00\n        /* \"#utility.yul\":11987:11996   */\n      dup4\n        /* \"#utility.yul\":11983:12000   */\n      add\n        /* \"#utility.yul\":11976:12023   */\n      mstore\n        /* \"#utility.yul\":12040:12171   */\n      tag_535\n        /* \"#utility.yul\":12166:12170   */\n      dup2\n        /* \"#utility.yul\":12040:12171   */\n      tag_391\n      jump\t// in\n    tag_535:\n        /* \"#utility.yul\":12032:12171   */\n      swap1\n      pop\n        /* \"#utility.yul\":11759:12178   */\n      swap2\n      swap1\n      pop\n      jump\t// out\n        /* \"#utility.yul\":12184:12405   */\n    tag_392:\n        /* \"#utility.yul\":12324:12358   */\n      0x45524332303a20617070726f766520746f20746865207a65726f206164647265\n        /* \"#utility.yul\":12320:12321   */\n      0x00\n        /* \"#utility.yul\":12312:12318   */\n      dup3\n        /* \"#utility.yul\":12308:12322   */\n      add\n        /* \"#utility.yul\":12301:12359   */\n      mstore\n        /* \"#utility.yul\":12393:12397   */\n      0x7373000000000000000000000000000000000000000000000000000000000000\n        /* \"#utility.yul\":12388:12390   */\n      0x20\n        /* \"#utility.yul\":12380:12386   */\n      dup3\n        /* \"#utility.yul\":12376:12391   */\n      add\n        /* \"#utility.yul\":12369:12398   */\n      mstore\n        /* \"#utility.yul\":12184:12405   */\n      pop\n      jump\t// out\n        /* \"#utility.yul\":12411:12777   */\n    tag_393:\n        /* \"#utility.yul\":12553:12556   */\n      0x00\n        /* \"#utility.yul\":12574:12641   */\n      tag_538\n        /* \"#utility.yul\":12638:12640   */\n      0x22\n        /* \"#utility.yul\":12633:12636   */\n      dup4\n        /* \"#utility.yul\":12574:12641   */\n      tag_358\n      jump\t// in\n    tag_538:\n        /* \"#utility.yul\":12567:12641   */\n      swap2\n      pop\n        /* \"#utility.yul\":12650:12743   */\n      tag_539\n        /* \"#utility.yul\":12739:12742   */\n      dup3\n        /* \"#utility.yul\":12650:12743   */\n      tag_392\n      jump\t// in\n    tag_539:\n        /* \"#utility.yul\":12768:12770   */\n      0x40\n        /* \"#utility.yul\":12763:12766   */\n      dup3\n        /* \"#utility.yul\":12759:12771   */\n      add\n        /* \"#utility.yul\":12752:12771   */\n      swap1\n      pop\n        /* \"#utility.yul\":12411:12777   */\n      swap2\n      swap1\n      pop\n      jump\t// out\n        /* \"#utility.yul\":12783:13202   */\n    tag_225:\n        /* \"#utility.yul\":12949:12953   */\n      0x00\n        /* \"#utility.yul\":12987:12989   */\n      0x20\n        /* \"#utility.yul\":12976:12985   */\n      dup3\n        /* \"#utility.yul\":12972:12990   */\n      add\n        /* \"#utility.yul\":12964:12990   */\n      swap1\n      pop\n        /* \"#utility.yul\":13036:13045   */\n      dup2\n        /* \"#utility.yul\":13030:13034   */\n      dup2\n        /* \"#utility.yul\":13026:13046   */\n      sub\n        /* \"#utility.yul\":13022:13023   */\n      0x00\n        /* \"#utility.yul\":13011:13020   */\n      dup4\n        /* \"#utility.yul\":13007:13024   */\n      add\n        /* \"#utility.yul\":13000:13047   */\n      mstore\n        /* \"#utility.yul\":13064:13195   */\n      tag_541\n        /* \"#utility.yul\":13190:13194   */\n      dup2\n        /* \"#utility.yul\":13064:13195   */\n      tag_393\n      jump\t// in\n    tag_541:\n        /* \"#utility.yul\":13056:13195   */\n      swap1\n      pop\n        /* \"#utility.yul\":12783:13202   */\n      swap2\n      swap1\n      pop\n      jump\t// out\n        /* \"#utility.yul\":13208:13387   */\n    tag_394:\n        /* \"#utility.yul\":13348:13379   */\n      0x45524332303a20696e73756666696369656e7420616c6c6f77616e6365000000\n        /* \"#utility.yul\":13344:13345   */\n      0x00\n        /* \"#utility.yul\":13336:13342   */\n      dup3\n        /* \"#utility.yul\":13332:13346   */\n      add\n        /* \"#utility.yul\":13325:13380   */\n      mstore\n        /* \"#utility.yul\":13208:13387   */\n      pop\n      jump\t// out\n        /* \"#utility.yul\":13393:13759   */\n    tag_395:\n        /* \"#utility.yul\":13535:13538   */\n      0x00\n        /* \"#utility.yul\":13556:13623   */\n      tag_544\n        /* \"#utility.yul\":13620:13622   */\n      0x1d\n        /* \"#utility.yul\":13615:13618   */\n      dup4\n        /* \"#utility.yul\":13556:13623   */\n      tag_358\n      jump\t// in\n    tag_544:\n        /* \"#utility.yul\":13549:13623   */\n      swap2\n      pop\n        /* \"#utility.yul\":13632:13725   */\n      tag_545\n        /* \"#utility.yul\":13721:13724   */\n      dup3\n        /* \"#utility.yul\":13632:13725   */\n      tag_394\n      jump\t// in\n    tag_545:\n        /* \"#utility.yul\":13750:13752   */\n      0x20\n        /* \"#utility.yul\":13745:13748   */\n      dup3\n        /* \"#utility.yul\":13741:13753   */\n      add\n        /* \"#utility.yul\":13734:13753   */\n      swap1\n      pop\n        /* \"#utility.yul\":13393:13759   */\n      swap2\n      swap1\n      pop\n      jump\t// out\n        /* \"#utility.yul\":13765:14184   */\n    tag_232:\n        /* \"#utility.yul\":13931:13935   */\n      0x00\n        /* \"#utility.yul\":13969:13971   */\n      0x20\n        /* \"#utility.yul\":13958:13967   */\n      dup3\n        /* \"#utility.yul\":13954:13972   */\n      add\n        /* \"#utility.yul\":13946:13972   */\n      swap1\n      pop\n        /* \"#utility.yul\":14018:14027   */\n      dup2\n        /* \"#utility.yul\":14012:14016   */\n      dup2\n        /* \"#utility.yul\":14008:14028   */\n      sub\n        /* \"#utility.yul\":14004:14005   */\n      0x00\n        /* \"#utility.yul\":13993:14002   */\n      dup4\n        /* \"#utility.yul\":13989:14006   */\n      add\n        /* \"#utility.yul\":13982:14029   */\n      mstore\n        /* \"#utility.yul\":14046:14177   */\n      tag_547\n        /* \"#utility.yul\":14172:14176   */\n      dup2\n        /* \"#utility.yul\":14046:14177   */\n      tag_395\n      jump\t// in\n    tag_547:\n        /* \"#utility.yul\":14038:14177   */\n      swap1\n      pop\n        /* \"#utility.yul\":13765:14184   */\n      swap2\n      swap1\n      pop\n      jump\t// out\n        /* \"#utility.yul\":14190:14414   */\n    tag_396:\n        /* \"#utility.yul\":14330:14364   */\n      0x45524332303a207472616e736665722066726f6d20746865207a65726f206164\n        /* \"#utility.yul\":14326:14327   */\n      0x00\n        /* \"#utility.yul\":14318:14324   */\n      dup3\n        /* \"#utility.yul\":14314:14328   */\n      add\n        /* \"#utility.yul\":14307:14365   */\n      mstore\n        /* \"#utility.yul\":14399:14406   */\n      0x6472657373000000000000000000000000000000000000000000000000000000\n        /* \"#utility.yul\":14394:14396   */\n      0x20\n        /* \"#utility.yul\":14386:14392   */\n      dup3\n        /* \"#utility.yul\":14382:14397   */\n      add\n        /* \"#utility.yul\":14375:14407   */\n      mstore\n        /* \"#utility.yul\":14190:14414   */\n      pop\n      jump\t// out\n        /* \"#utility.yul\":14420:14786   */\n    tag_397:\n        /* \"#utility.yul\":14562:14565   */\n      0x00\n        /* \"#utility.yul\":14583:14650   */\n      tag_550\n        /* \"#utility.yul\":14647:14649   */\n      0x25\n        /* \"#utility.yul\":14642:14645   */\n      dup4\n        /* \"#utility.yul\":14583:14650   */\n      tag_358\n      jump\t// in\n    tag_550:\n        /* \"#utility.yul\":14576:14650   */\n      swap2\n      pop\n        /* \"#utility.yul\":14659:14752   */\n      tag_551\n        /* \"#utility.yul\":14748:14751   */\n      dup3\n        /* \"#utility.yul\":14659:14752   */\n      tag_396\n      jump\t// in\n    tag_551:\n        /* \"#utility.yul\":14777:14779   */\n      0x40\n        /* \"#utility.yul\":14772:14775   */\n      dup3\n        /* \"#utility.yul\":14768:14780   */\n      add\n        /* \"#utility.yul\":14761:14780   */\n      swap1\n      pop\n        /* \"#utility.yul\":14420:14786   */\n      swap2\n      swap1\n      pop\n      jump\t// out\n        /* \"#utility.yul\":14792:15211   */\n    tag_237:\n        /* \"#utility.yul\":14958:14962   */\n      0x00\n        /* \"#utility.yul\":14996:14998   */\n      0x20\n        /* \"#utility.yul\":14985:14994   */\n      dup3\n        /* \"#utility.yul\":14981:14999   */\n      add\n        /* \"#utility.yul\":14973:14999   */\n      swap1\n      pop\n        /* \"#utility.yul\":15045:15054   */\n      dup2\n        /* \"#utility.yul\":15039:15043   */\n      dup2\n        /* \"#utility.yul\":15035:15055   */\n      sub\n        /* \"#utility.yul\":15031:15032   */\n      0x00\n        /* \"#utility.yul\":15020:15029   */\n      dup4\n        /* \"#utility.yul\":15016:15033   */\n      add\n        /* \"#utility.yul\":15009:15056   */\n      mstore\n        /* \"#utility.yul\":15073:15204   */\n      tag_553\n        /* \"#utility.yul\":15199:15203   */\n      dup2\n        /* \"#utility.yul\":15073:15204   */\n      tag_397\n      jump\t// in\n    tag_553:\n        /* \"#utility.yul\":15065:15204   */\n      swap1\n      pop\n        /* \"#utility.yul\":14792:15211   */\n      swap2\n      swap1\n      pop\n      jump\t// out\n        /* \"#utility.yul\":15217:15439   */\n    tag_398:\n        /* \"#utility.yul\":15357:15391   */\n      0x45524332303a207472616e7366657220746f20746865207a65726f2061646472\n        /* \"#utility.yul\":15353:15354   */\n      0x00\n        /* \"#utility.yul\":15345:15351   */\n      dup3\n        /* \"#utility.yul\":15341:15355   */\n      add\n        /* \"#utility.yul\":15334:15392   */\n      mstore\n        /* \"#utility.yul\":15426:15431   */\n      0x6573730000000000000000000000000000000000000000000000000000000000\n        /* \"#utility.yul\":15421:15423   */\n      0x20\n        /* \"#utility.yul\":15413:15419   */\n      dup3\n        /* \"#utility.yul\":15409:15424   */\n      add\n        /* \"#utility.yul\":15402:15432   */\n      mstore\n        /* \"#utility.yul\":15217:15439   */\n      pop\n      jump\t// out\n        /* \"#utility.yul\":15445:15811   */\n    tag_399:\n        /* \"#utility.yul\":15587:15590   */\n      0x00\n        /* \"#utility.yul\":15608:15675   */\n      tag_556\n        /* \"#utility.yul\":15672:15674   */\n      0x23\n        /* \"#utility.yul\":15667:15670   */\n      dup4\n        /* \"#utility.yul\":15608:15675   */\n      tag_358\n      jump\t// in\n    tag_556:\n        /* \"#utility.yul\":15601:15675   */\n      swap2\n      pop\n        /* \"#utility.yul\":15684:15777   */\n      tag_557\n        /* \"#utility.yul\":15773:15776   */\n      dup3\n        /* \"#utility.yul\":15684:15777   */\n      tag_398\n      jump\t// in\n    tag_557:\n        /* \"#utility.yul\":15802:15804   */\n      0x40\n        /* \"#utility.yul\":15797:15800   */\n      dup3\n        /* \"#utility.yul\":15793:15805   */\n      add\n        /* \"#utility.yul\":15786:15805   */\n      swap1\n      pop\n        /* \"#utility.yul\":15445:15811   */\n      swap2\n      swap1\n      pop\n      jump\t// out\n        /* \"#utility.yul\":15817:16236   */\n    tag_240:\n        /* \"#utility.yul\":15983:15987   */\n      0x00\n        /* \"#utility.yul\":16021:16023   */\n      0x20\n        /* \"#utility.yul\":16010:16019   */\n      dup3\n        /* \"#utility.yul\":16006:16024   */\n      add\n        /* \"#utility.yul\":15998:16024   */\n      swap1\n      pop\n        /* \"#utility.yul\":16070:16079   */\n      dup2\n        /* \"#utility.yul\":16064:16068   */\n      dup2\n        /* \"#utility.yul\":16060:16080   */\n      sub\n        /* \"#utility.yul\":16056:16057   */\n      0x00\n        /* \"#utility.yul\":16045:16054   */\n      dup4\n        /* \"#utility.yul\":16041:16058   */\n      add\n        /* \"#utility.yul\":16034:16081   */\n      mstore\n        /* \"#utility.yul\":16098:16229   */\n      tag_559\n        /* \"#utility.yul\":16224:16228   */\n      dup2\n        /* \"#utility.yul\":16098:16229   */\n      tag_399\n      jump\t// in\n    tag_559:\n        /* \"#utility.yul\":16090:16229   */\n      swap1\n      pop\n        /* \"#utility.yul\":15817:16236   */\n      swap2\n      swap1\n      pop\n      jump\t// out\n        /* \"#utility.yul\":16242:16467   */\n    tag_400:\n        /* \"#utility.yul\":16382:16416   */\n      0x45524332303a207472616e7366657220616d6f756e7420657863656564732062\n        /* \"#utility.yul\":16378:16379   */\n      0x00\n        /* \"#utility.yul\":16370:16376   */\n      dup3\n        /* \"#utility.yul\":16366:16380   */\n      add\n        /* \"#utility.yul\":16359:16417   */\n      mstore\n        /* \"#utility.yul\":16451:16459   */\n      0x616c616e63650000000000000000000000000000000000000000000000000000\n        /* \"#utility.yul\":16446:16448   */\n      0x20\n        /* \"#utility.yul\":16438:16444   */\n      dup3\n        /* \"#utility.yul\":16434:16449   */\n      add\n        /* \"#utility.yul\":16427:16460   */\n      mstore\n        /* \"#utility.yul\":16242:16467   */\n      pop\n      jump\t// out\n        /* \"#utility.yul\":16473:16839   */\n    tag_401:\n        /* \"#utility.yul\":16615:16618   */\n      0x00\n        /* \"#utility.yul\":16636:16703   */\n      tag_562\n        /* \"#utility.yul\":16700:16702   */\n      0x26\n        /* \"#utility.yul\":16695:16698   */\n      dup4\n        /* \"#utility.yul\":16636:16703   */\n      tag_358\n      jump\t// in\n    tag_562:\n        /* \"#utility.yul\":16629:16703   */\n      swap2\n      pop\n        /* \"#utility.yul\":16712:16805   */\n      tag_563\n        /* \"#utility.yul\":16801:16804   */\n      dup3\n        /* \"#utility.yul\":16712:16805   */\n      tag_400\n      jump\t// in\n    tag_563:\n        /* \"#utility.yul\":16830:16832   */\n      0x40\n        /* \"#utility.yul\":16825:16828   */\n      dup3\n        /* \"#utility.yul\":16821:16833   */\n      add\n        /* \"#utility.yul\":16814:16833   */\n      swap1\n      pop\n        /* \"#utility.yul\":16473:16839   */\n      swap2\n      swap1\n      pop\n      jump\t// out\n        /* \"#utility.yul\":16845:17264   */\n    tag_245:\n        /* \"#utility.yul\":17011:17015   */\n      0x00\n        /* \"#utility.yul\":17049:17051   */\n      0x20\n        /* \"#utility.yul\":17038:17047   */\n      dup3\n        /* \"#utility.yul\":17034:17052   */\n      add\n        /* \"#utility.yul\":17026:17052   */\n      swap1\n      pop\n        /* \"#utility.yul\":17098:17107   */\n      dup2\n        /* \"#utility.yul\":17092:17096   */\n      dup2\n        /* \"#utility.yul\":17088:17108   */\n      sub\n        /* \"#utility.yul\":17084:17085   */\n      0x00\n        /* \"#utility.yul\":17073:17082   */\n      dup4\n        /* \"#utility.yul\":17069:17086   */\n      add\n        /* \"#utility.yul\":17062:17109   */\n      mstore\n        /* \"#utility.yul\":17126:17257   */\n      tag_565\n        /* \"#utility.yul\":17252:17256   */\n      dup2\n        /* \"#utility.yul\":17126:17257   */\n      tag_401\n      jump\t// in\n    tag_565:\n        /* \"#utility.yul\":17118:17257   */\n      swap1\n      pop\n        /* \"#utility.yul\":16845:17264   */\n      swap2\n      swap1\n      pop\n      jump\t// out\n        /* \"#utility.yul\":17270:17440   */\n    tag_402:\n        /* \"#utility.yul\":17410:17432   */\n      0x5061757361626c653a206e6f7420706175736564000000000000000000000000\n        /* \"#utility.yul\":17406:17407   */\n      0x00\n        /* \"#utility.yul\":17398:17404   */\n      dup3\n        /* \"#utility.yul\":17394:17408   */\n      add\n        /* \"#utility.yul\":17387:17433   */\n      mstore\n        /* \"#utility.yul\":17270:17440   */\n      pop\n      jump\t// out\n        /* \"#utility.yul\":17446:17812   */\n    tag_403:\n        /* \"#utility.yul\":17588:17591   */\n      0x00\n        /* \"#utility.yul\":17609:17676   */\n      tag_568\n        /* \"#utility.yul\":17673:17675   */\n      0x14\n        /* \"#utility.yul\":17668:17671   */\n      dup4\n        /* \"#utility.yul\":17609:17676   */\n      tag_358\n      jump\t// in\n    tag_568:\n        /* \"#utility.yul\":17602:17676   */\n      swap2\n      pop\n        /* \"#utility.yul\":17685:17778   */\n      tag_569\n        /* \"#utility.yul\":17774:17777   */\n      dup3\n        /* \"#utility.yul\":17685:17778   */\n      tag_402\n      jump\t// in\n    tag_569:\n        /* \"#utility.yul\":17803:17805   */\n      0x20\n        /* \"#utility.yul\":17798:17801   */\n      dup3\n        /* \"#utility.yul\":17794:17806   */\n      add\n        /* \"#utility.yul\":17787:17806   */\n      swap1\n      pop\n        /* \"#utility.yul\":17446:17812   */\n      swap2\n      swap1\n      pop\n      jump\t// out\n        /* \"#utility.yul\":17818:18237   */\n    tag_254:\n        /* \"#utility.yul\":17984:17988   */\n      0x00\n        /* \"#utility.yul\":18022:18024   */\n      0x20\n        /* \"#utility.yul\":18011:18020   */\n      dup3\n        /* \"#utility.yul\":18007:18025   */\n      add\n        /* \"#utility.yul\":17999:18025   */\n      swap1\n      pop\n        /* \"#utility.yul\":18071:18080   */\n      dup2\n        /* \"#utility.yul\":18065:18069   */\n      dup2\n        /* \"#utility.yul\":18061:18081   */\n      sub\n        /* \"#utility.yul\":18057:18058   */\n      0x00\n        /* \"#utility.yul\":18046:18055   */\n      dup4\n        /* \"#utility.yul\":18042:18059   */\n      add\n        /* \"#utility.yul\":18035:18082   */\n      mstore\n        /* \"#utility.yul\":18099:18230   */\n      tag_571\n        /* \"#utility.yul\":18225:18229   */\n      dup2\n        /* \"#utility.yul\":18099:18230   */\n      tag_403\n      jump\t// in\n    tag_571:\n        /* \"#utility.yul\":18091:18230   */\n      swap1\n      pop\n        /* \"#utility.yul\":17818:18237   */\n      swap2\n      swap1\n      pop\n      jump\t// out\n        /* \"#utility.yul\":18243:18424   */\n    tag_404:\n        /* \"#utility.yul\":18383:18416   */\n      0x45524332303a206d696e7420746f20746865207a65726f206164647265737300\n        /* \"#utility.yul\":18379:18380   */\n      0x00\n        /* \"#utility.yul\":18371:18377   */\n      dup3\n        /* \"#utility.yul\":18367:18381   */\n      add\n        /* \"#utility.yul\":18360:18417   */\n      mstore\n        /* \"#utility.yul\":18243:18424   */\n      pop\n      jump\t// out\n        /* \"#utility.yul\":18430:18796   */\n    tag_405:\n        /* \"#utility.yul\":18572:18575   */\n      0x00\n        /* \"#utility.yul\":18593:18660   */\n      tag_574\n        /* \"#utility.yul\":18657:18659   */\n      0x1f\n        /* \"#utility.yul\":18652:18655   */\n      dup4\n        /* \"#utility.yul\":18593:18660   */\n      tag_358\n      jump\t// in\n    tag_574:\n        /* \"#utility.yul\":18586:18660   */\n      swap2\n      pop\n        /* \"#utility.yul\":18669:18762   */\n      tag_575\n        /* \"#utility.yul\":18758:18761   */\n      dup3\n        /* \"#utility.yul\":18669:18762   */\n      tag_404\n      jump\t// in\n    tag_575:\n        /* \"#utility.yul\":18787:18789   */\n      0x20\n        /* \"#utility.yul\":18782:18785   */\n      dup3\n        /* \"#utility.yul\":18778:18790   */\n      add\n        /* \"#utility.yul\":18771:18790   */\n      swap1\n      pop\n        /* \"#utility.yul\":18430:18796   */\n      swap2\n      swap1\n      pop\n      jump\t// out\n        /* \"#utility.yul\":18802:19221   */\n    tag_261:\n        /* \"#utility.yul\":18968:18972   */\n      0x00\n        /* \"#utility.yul\":19006:19008   */\n      0x20\n        /* \"#utility.yul\":18995:19004   */\n      dup3\n        /* \"#utility.yul\":18991:19009   */\n      add\n        /* \"#utility.yul\":18983:19009   */\n      swap1\n      pop\n        /* \"#utility.yul\":19055:19064   */\n      dup2\n        /* \"#utility.yul\":19049:19053   */\n      dup2\n        /* \"#utility.yul\":19045:19065   */\n      sub\n        /* \"#utility.yul\":19041:19042   */\n      0x00\n        /* \"#utility.yul\":19030:19039   */\n      dup4\n        /* \"#utility.yul\":19026:19043   */\n      add\n        /* \"#utility.yul\":19019:19066   */\n      mstore\n        /* \"#utility.yul\":19083:19214   */\n      tag_577\n        /* \"#utility.yul\":19209:19213   */\n      dup2\n        /* \"#utility.yul\":19083:19214   */\n      tag_405\n      jump\t// in\n    tag_577:\n        /* \"#utility.yul\":19075:19214   */\n      swap1\n      pop\n        /* \"#utility.yul\":18802:19221   */\n      swap2\n      swap1\n      pop\n      jump\t// out\n        /* \"#utility.yul\":19227:19447   */\n    tag_406:\n        /* \"#utility.yul\":19367:19401   */\n      0x45524332303a206275726e2066726f6d20746865207a65726f20616464726573\n        /* \"#utility.yul\":19363:19364   */\n      0x00\n        /* \"#utility.yul\":19355:19361   */\n      dup3\n        /* \"#utility.yul\":19351:19365   */\n      add\n        /* \"#utility.yul\":19344:19402   */\n      mstore\n        /* \"#utility.yul\":19436:19439   */\n      0x7300000000000000000000000000000000000000000000000000000000000000\n        /* \"#utility.yul\":19431:19433   */\n      0x20\n        /* \"#utility.yul\":19423:19429   */\n      dup3\n        /* \"#utility.yul\":19419:19434   */\n      add\n        /* \"#utility.yul\":19412:19440   */\n      mstore\n        /* \"#utility.yul\":19227:19447   */\n      pop\n      jump\t// out\n        /* \"#utility.yul\":19453:19819   */\n    tag_407:\n        /* \"#utility.yul\":19595:19598   */\n      0x00\n        /* \"#utility.yul\":19616:19683   */\n      tag_580\n        /* \"#utility.yul\":19680:19682   */\n      0x21\n        /* \"#utility.yul\":19675:19678   */\n      dup4\n        /* \"#utility.yul\":19616:19683   */\n      tag_358\n      jump\t// in\n    tag_580:\n        /* \"#utility.yul\":19609:19683   */\n      swap2\n      pop\n        /* \"#utility.yul\":19692:19785   */\n      tag_581\n        /* \"#utility.yul\":19781:19784   */\n      dup3\n        /* \"#utility.yul\":19692:19785   */\n      tag_406\n      jump\t// in\n    tag_581:\n        /* \"#utility.yul\":19810:19812   */\n      0x40\n        /* \"#utility.yul\":19805:19808   */\n      dup3\n        /* \"#utility.yul\":19801:19813   */\n      add\n        /* \"#utility.yul\":19794:19813   */\n      swap1\n      pop\n        /* \"#utility.yul\":19453:19819   */\n      swap2\n      swap1\n      pop\n      jump\t// out\n        /* \"#utility.yul\":19825:20244   */\n    tag_270:\n        /* \"#utility.yul\":19991:19995   */\n      0x00\n        /* \"#utility.yul\":20029:20031   */\n      0x20\n        /* \"#utility.yul\":20018:20027   */\n      dup3\n        /* \"#utility.yul\":20014:20032   */\n      add\n        /* \"#utility.yul\":20006:20032   */\n      swap1\n      pop\n        /* \"#utility.yul\":20078:20087   */\n      dup2\n        /* \"#utility.yul\":20072:20076   */\n      dup2\n        /* \"#utility.yul\":20068:20088   */\n      sub\n        /* \"#utility.yul\":20064:20065   */\n      0x00\n        /* \"#utility.yul\":20053:20062   */\n      dup4\n        /* \"#utility.yul\":20049:20066   */\n      add\n        /* \"#utility.yul\":20042:20089   */\n      mstore\n        /* \"#utility.yul\":20106:20237   */\n      tag_583\n        /* \"#utility.yul\":20232:20236   */\n      dup2\n        /* \"#utility.yul\":20106:20237   */\n      tag_407\n      jump\t// in\n    tag_583:\n        /* \"#utility.yul\":20098:20237   */\n      swap1\n      pop\n        /* \"#utility.yul\":19825:20244   */\n      swap2\n      swap1\n      pop\n      jump\t// out\n        /* \"#utility.yul\":20250:20471   */\n    tag_408:\n        /* \"#utility.yul\":20390:20424   */\n      0x45524332303a206275726e20616d6f756e7420657863656564732062616c616e\n        /* \"#utility.yul\":20386:20387   */\n      0x00\n        /* \"#utility.yul\":20378:20384   */\n      dup3\n        /* \"#utility.yul\":20374:20388   */\n      add\n        /* \"#utility.yul\":20367:20425   */\n      mstore\n        /* \"#utility.yul\":20459:20463   */\n      0x6365000000000000000000000000000000000000000000000000000000000000\n        /* \"#utility.yul\":20454:20456   */\n      0x20\n        /* \"#utility.yul\":20446:20452   */\n      dup3\n        /* \"#utility.yul\":20442:20457   */\n      add\n        /* \"#utility.yul\":20435:20464   */\n      mstore\n        /* \"#utility.yul\":20250:20471   */\n      pop\n      jump\t// out\n        /* \"#utility.yul\":20477:20843   */\n    tag_409:\n        /* \"#utility.yul\":20619:20622   */\n      0x00\n        /* \"#utility.yul\":20640:20707   */\n      tag_586\n        /* \"#utility.yul\":20704:20706   */\n      0x22\n        /* \"#utility.yul\":20699:20702   */\n      dup4\n        /* \"#utility.yul\":20640:20707   */\n      tag_358\n      jump\t// in\n    tag_586:\n        /* \"#utility.yul\":20633:20707   */\n      swap2\n      pop\n        /* \"#utility.yul\":20716:20809   */\n      tag_587\n        /* \"#utility.yul\":20805:20808   */\n      dup3\n        /* \"#utility.yul\":20716:20809   */\n      tag_408\n      jump\t// in\n    tag_587:\n        /* \"#utility.yul\":20834:20836   */\n      0x40\n        /* \"#utility.yul\":20829:20832   */\n      dup3\n        /* \"#utility.yul\":20825:20837   */\n      add\n        /* \"#utility.yul\":20818:20837   */\n      swap1\n      pop\n        /* \"#utility.yul\":20477:20843   */\n      swap2\n      swap1\n      pop\n      jump\t// out\n        /* \"#utility.yul\":20849:21268   */\n    tag_274:\n        /* \"#utility.yul\":21015:21019   */\n      0x00\n        /* \"#utility.yul\":21053:21055   */\n      0x20\n        /* \"#utility.yul\":21042:21051   */\n      dup3\n        /* \"#utility.yul\":21038:21056   */\n      add\n        /* \"#utility.yul\":21030:21056   */\n      swap1\n      pop\n        /* \"#utility.yul\":21102:21111   */\n      dup2\n        /* \"#utility.yul\":21096:21100   */\n      dup2\n        /* \"#utility.yul\":21092:21112   */\n      sub\n        /* \"#utility.yul\":21088:21089   */\n      0x00\n        /* \"#utility.yul\":21077:21086   */\n      dup4\n        /* \"#utility.yul\":21073:21090   */\n      add\n        /* \"#utility.yul\":21066:21113   */\n      mstore\n        /* \"#utility.yul\":21130:21261   */\n      tag_589\n        /* \"#utility.yul\":21256:21260   */\n      dup2\n        /* \"#utility.yul\":21130:21261   */\n      tag_409\n      jump\t// in\n    tag_589:\n        /* \"#utility.yul\":21122:21261   */\n      swap1\n      pop\n        /* \"#utility.yul\":20849:21268   */\n      swap2\n      swap1\n      pop\n      jump\t// out\n        /* \"#utility.yul\":21274:21465   */\n    tag_276:\n        /* \"#utility.yul\":21314:21318   */\n      0x00\n        /* \"#utility.yul\":21334:21354   */\n      tag_591\n        /* \"#utility.yul\":21352:21353   */\n      dup3\n        /* \"#utility.yul\":21334:21354   */\n      tag_369\n      jump\t// in\n    tag_591:\n        /* \"#utility.yul\":21329:21354   */\n      swap2\n      pop\n        /* \"#utility.yul\":21368:21388   */\n      tag_592\n        /* \"#utility.yul\":21386:21387   */\n      dup4\n        /* \"#utility.yul\":21368:21388   */\n      tag_369\n      jump\t// in\n    tag_592:\n        /* \"#utility.yul\":21363:21388   */\n      swap3\n      pop\n        /* \"#utility.yul\":21407:21408   */\n      dup3\n        /* \"#utility.yul\":21404:21405   */\n      dup3\n        /* \"#utility.yul\":21401:21409   */\n      lt\n        /* \"#utility.yul\":21398:21432   */\n      iszero\n      tag_593\n      jumpi\n        /* \"#utility.yul\":21412:21430   */\n      tag_594\n      tag_379\n      jump\t// in\n    tag_594:\n        /* \"#utility.yul\":21398:21432   */\n    tag_593:\n        /* \"#utility.yul\":21457:21458   */\n      dup3\n        /* \"#utility.yul\":21454:21455   */\n      dup3\n        /* \"#utility.yul\":21450:21459   */\n      sub\n        /* \"#utility.yul\":21442:21459   */\n      swap1\n      pop\n        /* \"#utility.yul\":21274:21465   */\n      swap3\n      swap2\n      pop\n      pop\n      jump\t// out\n        /* \"#utility.yul\":21471:21704   */\n    tag_410:\n        /* \"#utility.yul\":21611:21645   */\n      0x496e697469616c697a61626c653a20636f6e747261637420697320616c726561\n        /* \"#utility.yul\":21607:21608   */\n      0x00\n        /* \"#utility.yul\":21599:21605   */\n      dup3\n        /* \"#utility.yul\":21595:21609   */\n      add\n        /* \"#utility.yul\":21588:21646   */\n      mstore\n        /* \"#utility.yul\":21680:21696   */\n      0x647920696e697469616c697a6564000000000000000000000000000000000000\n        /* \"#utility.yul\":21675:21677   */\n      0x20\n        /* \"#utility.yul\":21667:21673   */\n      dup3\n        /* \"#utility.yul\":21663:21678   */\n      add\n        /* \"#utility.yul\":21656:21697   */\n      mstore\n        /* \"#utility.yul\":21471:21704   */\n      pop\n      jump\t// out\n        /* \"#utility.yul\":21710:22076   */\n    tag_411:\n        /* \"#utility.yul\":21852:21855   */\n      0x00\n        /* \"#utility.yul\":21873:21940   */\n      tag_597\n        /* \"#utility.yul\":21937:21939   */\n      0x2e\n        /* \"#utility.yul\":21932:21935   */\n      dup4\n        /* \"#utility.yul\":21873:21940   */\n      tag_358\n      jump\t// in\n    tag_597:\n        /* \"#utility.yul\":21866:21940   */\n      swap2\n      pop\n        /* \"#utility.yul\":21949:22042   */\n      tag_598\n        /* \"#utility.yul\":22038:22041   */\n      dup3\n        /* \"#utility.yul\":21949:22042   */\n      tag_410\n      jump\t// in\n    tag_598:\n        /* \"#utility.yul\":22067:22069   */\n      0x40\n        /* \"#utility.yul\":22062:22065   */\n      dup3\n        /* \"#utility.yul\":22058:22070   */\n      add\n        /* \"#utility.yul\":22051:22070   */\n      swap1\n      pop\n        /* \"#utility.yul\":21710:22076   */\n      swap2\n      swap1\n      pop\n      jump\t// out\n        /* \"#utility.yul\":22082:22501   */\n    tag_286:\n        /* \"#utility.yul\":22248:22252   */\n      0x00\n        /* \"#utility.yul\":22286:22288   */\n      0x20\n        /* \"#utility.yul\":22275:22284   */\n      dup3\n        /* \"#utility.yul\":22271:22289   */\n      add\n        /* \"#utility.yul\":22263:22289   */\n      swap1\n      pop\n        /* \"#utility.yul\":22335:22344   */\n      dup2\n        /* \"#utility.yul\":22329:22333   */\n      dup2\n        /* \"#utility.yul\":22325:22345   */\n      sub\n        /* \"#utility.yul\":22321:22322   */\n      0x00\n        /* \"#utility.yul\":22310:22319   */\n      dup4\n        /* \"#utility.yul\":22306:22323   */\n      add\n        /* \"#utility.yul\":22299:22346   */\n      mstore\n        /* \"#utility.yul\":22363:22494   */\n      tag_600\n        /* \"#utility.yul\":22489:22493   */\n      dup2\n        /* \"#utility.yul\":22363:22494   */\n      tag_411\n      jump\t// in\n    tag_600:\n        /* \"#utility.yul\":22355:22494   */\n      swap1\n      pop\n        /* \"#utility.yul\":22082:22501   */\n      swap2\n      swap1\n      pop\n      jump\t// out\n        /* \"#utility.yul\":22507:22737   */\n    tag_412:\n        /* \"#utility.yul\":22647:22681   */\n      0x496e697469616c697a61626c653a20636f6e7472616374206973206e6f742069\n        /* \"#utility.yul\":22643:22644   */\n      0x00\n        /* \"#utility.yul\":22635:22641   */\n      dup3\n        /* \"#utility.yul\":22631:22645   */\n      add\n        /* \"#utility.yul\":22624:22682   */\n      mstore\n        /* \"#utility.yul\":22716:22729   */\n      0x6e697469616c697a696e67000000000000000000000000000000000000000000\n        /* \"#utility.yul\":22711:22713   */\n      0x20\n        /* \"#utility.yul\":22703:22709   */\n      dup3\n        /* \"#utility.yul\":22699:22714   */\n      add\n        /* \"#utility.yul\":22692:22730   */\n      mstore\n        /* \"#utility.yul\":22507:22737   */\n      pop\n      jump\t// out\n        /* \"#utility.yul\":22743:23109   */\n    tag_413:\n        /* \"#utility.yul\":22885:22888   */\n      0x00\n        /* \"#utility.yul\":22906:22973   */\n      tag_603\n        /* \"#utility.yul\":22970:22972   */\n      0x2b\n        /* \"#utility.yul\":22965:22968   */\n      dup4\n        /* \"#utility.yul\":22906:22973   */\n      tag_358\n      jump\t// in\n    tag_603:\n        /* \"#utility.yul\":22899:22973   */\n      swap2\n      pop\n        /* \"#utility.yul\":22982:23075   */\n      tag_604\n        /* \"#utility.yul\":23071:23074   */\n      dup3\n        /* \"#utility.yul\":22982:23075   */\n      tag_412\n      jump\t// in\n    tag_604:\n        /* \"#utility.yul\":23100:23102   */\n      0x40\n        /* \"#utility.yul\":23095:23098   */\n      dup3\n        /* \"#utility.yul\":23091:23103   */\n      add\n        /* \"#utility.yul\":23084:23103   */\n      swap1\n      pop\n        /* \"#utility.yul\":22743:23109   */\n      swap2\n      swap1\n      pop\n      jump\t// out\n        /* \"#utility.yul\":23115:23534   */\n    tag_293:\n        /* \"#utility.yul\":23281:23285   */\n      0x00\n        /* \"#utility.yul\":23319:23321   */\n      0x20\n        /* \"#utility.yul\":23308:23317   */\n      dup3\n        /* \"#utility.yul\":23304:23322   */\n      add\n        /* \"#utility.yul\":23296:23322   */\n      swap1\n      pop\n        /* \"#utility.yul\":23368:23377   */\n      dup2\n        /* \"#utility.yul\":23362:23366   */\n      dup2\n        /* \"#utility.yul\":23358:23378   */\n      sub\n        /* \"#utility.yul\":23354:23355   */\n      0x00\n        /* \"#utility.yul\":23343:23352   */\n      dup4\n        /* \"#utility.yul\":23339:23356   */\n      add\n        /* \"#utility.yul\":23332:23379   */\n      mstore\n        /* \"#utility.yul\":23396:23527   */\n      tag_606\n        /* \"#utility.yul\":23522:23526   */\n      dup2\n        /* \"#utility.yul\":23396:23527   */\n      tag_413\n      jump\t// in\n    tag_606:\n        /* \"#utility.yul\":23388:23527   */\n      swap1\n      pop\n        /* \"#utility.yul\":23115:23534   */\n      swap2\n      swap1\n      pop\n      jump\t// out\n        /* \"#utility.yul\":23540:23706   */\n    tag_414:\n        /* \"#utility.yul\":23680:23698   */\n      0x5061757361626c653a2070617573656400000000000000000000000000000000\n        /* \"#utility.yul\":23676:23677   */\n      0x00\n        /* \"#utility.yul\":23668:23674   */\n      dup3\n        /* \"#utility.yul\":23664:23678   */\n      add\n        /* \"#utility.yul\":23657:23699   */\n      mstore\n        /* \"#utility.yul\":23540:23706   */\n      pop\n      jump\t// out\n        /* \"#utility.yul\":23712:24078   */\n    tag_415:\n        /* \"#utility.yul\":23854:23857   */\n      0x00\n        /* \"#utility.yul\":23875:23942   */\n      tag_609\n        /* \"#utility.yul\":23939:23941   */\n      0x10\n        /* \"#utility.yul\":23934:23937   */\n      dup4\n        /* \"#utility.yul\":23875:23942   */\n      tag_358\n      jump\t// in\n    tag_609:\n        /* \"#utility.yul\":23868:23942   */\n      swap2\n      pop\n        /* \"#utility.yul\":23951:24044   */\n      tag_610\n        /* \"#utility.yul\":24040:24043   */\n      dup3\n        /* \"#utility.yul\":23951:24044   */\n      tag_414\n      jump\t// in\n    tag_610:\n        /* \"#utility.yul\":24069:24071   */\n      0x20\n        /* \"#utility.yul\":24064:24067   */\n      dup3\n        /* \"#utility.yul\":24060:24072   */\n      add\n        /* \"#utility.yul\":24053:24072   */\n      swap1\n      pop\n        /* \"#utility.yul\":23712:24078   */\n      swap2\n      swap1\n      pop\n      jump\t// out\n        /* \"#utility.yul\":24084:24503   */\n    tag_317:\n        /* \"#utility.yul\":24250:24254   */\n      0x00\n        /* \"#utility.yul\":24288:24290   */\n      0x20\n        /* \"#utility.yul\":24277:24286   */\n      dup3\n        /* \"#utility.yul\":24273:24291   */\n      add\n        /* \"#utility.yul\":24265:24291   */\n      swap1\n      pop\n        /* \"#utility.yul\":24337:24346   */\n      dup2\n        /* \"#utility.yul\":24331:24335   */\n      dup2\n        /* \"#utility.yul\":24327:24347   */\n      sub\n        /* \"#utility.yul\":24323:24324   */\n      0x00\n        /* \"#utility.yul\":24312:24321   */\n      dup4\n        /* \"#utility.yul\":24308:24325   */\n      add\n        /* \"#utility.yul\":24301:24348   */\n      mstore\n        /* \"#utility.yul\":24365:24496   */\n      tag_612\n        /* \"#utility.yul\":24491:24495   */\n      dup2\n        /* \"#utility.yul\":24365:24496   */\n      tag_415\n      jump\t// in\n    tag_612:\n        /* \"#utility.yul\":24357:24496   */\n      swap1\n      pop\n        /* \"#utility.yul\":24084:24503   */\n      swap2\n      swap1\n      pop\n      jump\t// out\n\n    auxdata: 0xa2646970667358221220fe17b9600d7c8bc915b19d9de5934428b8cc756cd4e3632afd0fe29385458f6764736f6c634300080c0033\n}\n",
				"bytecode": {
					"linkReferences": {},
					"object": "60806040523480156200001157600080fd5b50620000226200002860201b60201c565b6200020f565b6200003a60ff6200003d60201b60201c565b50565b60008060019054906101000a900460ff1615620000c75760018260ff161480156200007b575062000079306200014360201b62000ba51760201c565b155b620000bd576040517f08c379a0000000000000000000000000000000000000000000000000000000008152600401620000b490620001ed565b60405180910390fd5b600090506200013e565b8160ff1660008054906101000a900460ff1660ff16106200011f576040517f08c379a00000000000000000000000000000000000000000000000000000000081526004016200011690620001ed565b60405180910390fd5b816000806101000a81548160ff021916908360ff160217905550600190505b919050565b6000808273ffffffffffffffffffffffffffffffffffffffff163b119050919050565b600082825260208201905092915050565b7f496e697469616c697a61626c653a20636f6e747261637420697320616c72656160008201527f647920696e697469616c697a6564000000000000000000000000000000000000602082015250565b6000620001d5602e8362000166565b9150620001e28262000177565b604082019050919050565b600060208201905081810360008301526200020881620001c6565b9050919050565b6127e7806200021f6000396000f3fe608060405234801561001057600080fd5b50600436106101375760003560e01c806370a08231116100b85780638da5cb5b1161007c5780638da5cb5b146102f057806395d89b411461030e578063a457c2d71461032c578063a9059cbb1461035c578063dd62ed3e1461038c578063f2fde38b146103bc57610137565b806370a0823114610286578063715018a6146102b657806379cc6790146102c05780638129fc1c146102dc5780638456cb59146102e657610137565b806339509351116100ff57806339509351146101f65780633f4ba83a1461022657806340c10f191461023057806342966c681461024c5780635c975abb1461026857610137565b806306fdde031461013c578063095ea7b31461015a57806318160ddd1461018a57806323b872dd146101a8578063313ce567146101d8575b600080fd5b6101446103d8565b6040516101519190611b2c565b60405180910390f35b610174600480360381019061016f9190611be7565b61046a565b6040516101819190611c42565b60405180910390f35b61019261048d565b60405161019f9190611c6c565b60405180910390f35b6101c260048036038101906101bd9190611c87565b610497565b6040516101cf9190611c42565b60405180910390f35b6101e06104c6565b6040516101ed9190611cf6565b60405180910390f35b610210600480360381019061020b9190611be7565b6104cf565b60405161021d9190611c42565b60405180910390f35b61022e610506565b005b61024a60048036038101906102459190611be7565b61058c565b005b61026660048036038101906102619190611d11565b610616565b005b61027061062a565b60405161027d9190611c42565b60405180910390f35b6102a0600480360381019061029b9190611d3e565b610641565b6040516102ad9190611c6c565b60405180910390f35b6102be61068a565b005b6102da60048036038101906102d59190611be7565b610712565b005b6102e4610732565b005b6102ee61084a565b005b6102f86108d0565b6040516103059190611d7a565b60405180910390f35b6103166108fa565b6040516103239190611b2c565b60405180910390f35b61034660048036038101906103419190611be7565b61098c565b6040516103539190611c42565b60405180910390f35b61037660048036038101906103719190611be7565b610a03565b6040516103839190611c42565b60405180910390f35b6103a660048036038101906103a19190611d95565b610a26565b6040516103b39190611c6c565b60405180910390f35b6103d660048036038101906103d19190611d3e565b610aad565b005b6060603680546103e790611e04565b80601f016020809104026020016040519081016040528092919081815260200182805461041390611e04565b80156104605780601f1061043557610100808354040283529160200191610460565b820191906000526020600020905b81548152906001019060200180831161044357829003601f168201915b5050505050905090565b600080610475610bc8565b9050610482818585610bd0565b600191505092915050565b6000603554905090565b6000806104a2610bc8565b90506104af858285610d9b565b6104ba858585610e27565b60019150509392505050565b60006012905090565b6000806104da610bc8565b90506104fb8185856104ec8589610a26565b6104f69190611e65565b610bd0565b600191505092915050565b61050e610bc8565b73ffffffffffffffffffffffffffffffffffffffff1661052c6108d0565b73ffffffffffffffffffffffffffffffffffffffff1614610582576040517f08c379a000000000000000000000000000000000000000000000000000000000815260040161057990611f07565b60405180910390fd5b61058a6110ab565b565b610594610bc8565b73ffffffffffffffffffffffffffffffffffffffff166105b26108d0565b73ffffffffffffffffffffffffffffffffffffffff1614610608576040517f08c379a00000000000000000000000000000000000000000000000000000000081526004016105ff90611f07565b60405180910390fd5b610612828261114d565b5050565b610627610621610bc8565b826112ae565b50565b6000609760009054906101000a900460ff16905090565b6000603360008373ffffffffffffffffffffffffffffffffffffffff1673ffffffffffffffffffffffffffffffffffffffff168152602001908152602001600020549050919050565b610692610bc8565b73ffffffffffffffffffffffffffffffffffffffff166106b06108d0565b73ffffffffffffffffffffffffffffffffffffffff1614610706576040517f08c379a00000000000000000000000000000000000000000000000000000000081526004016106fd90611f07565b60405180910390fd5b6107106000611487565b565b6107248261071e610bc8565b83610d9b565b61072e82826112ae565b5050565b600061073e600161154d565b90508015610762576001600060016101000a81548160ff0219169083151502179055505b6107d66040518060400160405280600781526020017f4d79546f6b656e000000000000000000000000000000000000000000000000008152506040518060400160405280600381526020017f4d544b000000000000000000000000000000000000000000000000000000000081525061163d565b6107de61169a565b6107e66116eb565b6107ee611744565b80156108475760008060016101000a81548160ff0219169083151502179055507f7f26b83ff96e1f2b6a682f133852f6798a09c465da95921460cefb3847402498600160405161083e9190611f6c565b60405180910390a15b50565b610852610bc8565b73ffffffffffffffffffffffffffffffffffffffff166108706108d0565b73ffffffffffffffffffffffffffffffffffffffff16146108c6576040517f08c379a00000000000000000000000000000000000000000000000000000000081526004016108bd90611f07565b60405180910390fd5b6108ce61179d565b565b600060c960009054906101000a900473ffffffffffffffffffffffffffffffffffffffff16905090565b60606037805461090990611e04565b80601f016020809104026020016040519081016040528092919081815260200182805461093590611e04565b80156109825780601f1061095757610100808354040283529160200191610982565b820191906000526020600020905b81548152906001019060200180831161096557829003601f168201915b5050505050905090565b600080610997610bc8565b905060006109a58286610a26565b9050838110156109ea576040517f08c379a00000000000000000000000000000000000000000000000000000000081526004016109e190611ff9565b60405180910390fd5b6109f78286868403610bd0565b60019250505092915050565b600080610a0e610bc8565b9050610a1b818585610e27565b600191505092915050565b6000603460008473ffffffffffffffffffffffffffffffffffffffff1673ffffffffffffffffffffffffffffffffffffffff16815260200190815260200160002060008373ffffffffffffffffffffffffffffffffffffffff1673ffffffffffffffffffffffffffffffffffffffff16815260200190815260200160002054905092915050565b610ab5610bc8565b73ffffffffffffffffffffffffffffffffffffffff16610ad36108d0565b73ffffffffffffffffffffffffffffffffffffffff1614610b29576040517f08c379a0000000000000000000000000000000000000000000000000000000008152600401610b2090611f07565b60405180910390fd5b600073ffffffffffffffffffffffffffffffffffffffff168173ffffffffffffffffffffffffffffffffffffffff161415610b99576040517f08c379a0000000000000000000000000000000000000000000000000000000008152600401610b909061208b565b60405180910390fd5b610ba281611487565b50565b6000808273ffffffffffffffffffffffffffffffffffffffff163b119050919050565b600033905090565b600073ffffffffffffffffffffffffffffffffffffffff168373ffffffffffffffffffffffffffffffffffffffff161415610c40576040517f08c379a0000000000000000000000000000000000000000000000000000000008152600401610c379061211d565b60405180910390fd5b600073ffffffffffffffffffffffffffffffffffffffff168273ffffffffffffffffffffffffffffffffffffffff161415610cb0576040517f08c379a0000000000000000000000000000000000000000000000000000000008152600401610ca7906121af565b60405180910390fd5b80603460008573ffffffffffffffffffffffffffffffffffffffff1673ffffffffffffffffffffffffffffffffffffffff16815260200190815260200160002060008473ffffffffffffffffffffffffffffffffffffffff1673ffffffffffffffffffffffffffffffffffffffff168152602001908152602001600020819055508173ffffffffffffffffffffffffffffffffffffffff168373ffffffffffffffffffffffffffffffffffffffff167f8c5be1e5ebec7d5bd14f71427d1e84f3dd0314c0f7b2291e5b200ac8c7c3b92583604051610d8e9190611c6c565b60405180910390a3505050565b6000610da78484610a26565b90507fffffffffffffffffffffffffffffffffffffffffffffffffffffffffffffffff8114610e215781811015610e13576040517f08c379a0000000000000000000000000000000000000000000000000000000008152600401610e0a9061221b565b60405180910390fd5b610e208484848403610bd0565b5b50505050565b600073ffffffffffffffffffffffffffffffffffffffff168373ffffffffffffffffffffffffffffffffffffffff161415610e97576040517f08c379a0000000000000000000000000000000000000000000000000000000008152600401610e8e906122ad565b60405180910390fd5b600073ffffffffffffffffffffffffffffffffffffffff168273ffffffffffffffffffffffffffffffffffffffff161415610f07576040517f08c379a0000000000000000000000000000000000000000000000000000000008152600401610efe9061233f565b60405180910390fd5b610f12838383611840565b6000603360008573ffffffffffffffffffffffffffffffffffffffff1673ffffffffffffffffffffffffffffffffffffffff16815260200190815260200160002054905081811015610f99576040517f08c379a0000000000000000000000000000000000000000000000000000000008152600401610f90906123d1565b60405180910390fd5b818103603360008673ffffffffffffffffffffffffffffffffffffffff1673ffffffffffffffffffffffffffffffffffffffff1681526020019081526020016000208190555081603360008573ffffffffffffffffffffffffffffffffffffffff1673ffffffffffffffffffffffffffffffffffffffff168152602001908152602001600020600082825461102e9190611e65565b925050819055508273ffffffffffffffffffffffffffffffffffffffff168473ffffffffffffffffffffffffffffffffffffffff167fddf252ad1be2c89b69c2b068fc378daa952ba7f163c4a11628f55a4df523b3ef846040516110929190611c6c565b60405180910390a36110a5848484611898565b50505050565b6110b361062a565b6110f2576040517f08c379a00000000000000000000000000000000000000000000000000000000081526004016110e99061243d565b60405180910390fd5b6000609760006101000a81548160ff0219169083151502179055507f5db9ee0a495bf2e6ff9c91a7834c1ba4fdd244a5e8aa4e537bd38aeae4b073aa611136610bc8565b6040516111439190611d7a565b60405180910390a1565b600073ffffffffffffffffffffffffffffffffffffffff168273ffffffffffffffffffffffffffffffffffffffff1614156111bd576040517f08c379a00000000000000000000000000000000000000000000000000000000081526004016111b4906124a9565b60405180910390fd5b6111c960008383611840565b80603560008282546111db9190611e65565b9250508190555080603360008473ffffffffffffffffffffffffffffffffffffffff1673ffffffffffffffffffffffffffffffffffffffff16815260200190815260200160002060008282546112319190611e65565b925050819055508173ffffffffffffffffffffffffffffffffffffffff16600073ffffffffffffffffffffffffffffffffffffffff167fddf252ad1be2c89b69c2b068fc378daa952ba7f163c4a11628f55a4df523b3ef836040516112969190611c6c565b60405180910390a36112aa60008383611898565b5050565b600073ffffffffffffffffffffffffffffffffffffffff168273ffffffffffffffffffffffffffffffffffffffff16141561131e576040517f08c379a00000000000000000000000000000000000000000000000000000000081526004016113159061253b565b60405180910390fd5b61132a82600083611840565b6000603360008473ffffffffffffffffffffffffffffffffffffffff1673ffffffffffffffffffffffffffffffffffffffff168152602001908152602001600020549050818110156113b1576040517f08c379a00000000000000000000000000000000000000000000000000000000081526004016113a8906125cd565b60405180910390fd5b818103603360008573ffffffffffffffffffffffffffffffffffffffff1673ffffffffffffffffffffffffffffffffffffffff16815260200190815260200160002081905550816035600082825461140991906125ed565b92505081905550600073ffffffffffffffffffffffffffffffffffffffff168373ffffffffffffffffffffffffffffffffffffffff167fddf252ad1be2c89b69c2b068fc378daa952ba7f163c4a11628f55a4df523b3ef8460405161146e9190611c6c565b60405180910390a361148283600084611898565b505050565b600060c960009054906101000a900473ffffffffffffffffffffffffffffffffffffffff1690508160c960006101000a81548173ffffffffffffffffffffffffffffffffffffffff021916908373ffffffffffffffffffffffffffffffffffffffff1602179055508173ffffffffffffffffffffffffffffffffffffffff168173ffffffffffffffffffffffffffffffffffffffff167f8be0079c531659141344cd1fd0a4f28419497f9722a3daafe3b4186f6b6457e060405160405180910390a35050565b60008060019054906101000a900460ff16156115c45760018260ff1614801561157c575061157a30610ba5565b155b6115bb576040517f08c379a00000000000000000000000000000000000000000000000000000000081526004016115b290612693565b60405180910390fd5b60009050611638565b8160ff1660008054906101000a900460ff1660ff1610611619576040517f08c379a000000000000000000000000000000000000000000000000000000000815260040161161090612693565b60405180910390fd5b816000806101000a81548160ff021916908360ff160217905550600190505b919050565b600060019054906101000a900460ff1661168c576040517f08c379a000000000000000000000000000000000000000000000000000000000815260040161168390612725565b60405180910390fd5b611696828261189d565b5050565b600060019054906101000a900460ff166116e9576040517f08c379a00000000000000000000000000000000000000000000000000000000081526004016116e090612725565b60405180910390fd5b565b600060019054906101000a900460ff1661173a576040517f08c379a000000000000000000000000000000000000000000000000000000000815260040161173190612725565b60405180910390fd5b61174261191e565b565b600060019054906101000a900460ff16611793576040517f08c379a000000000000000000000000000000000000000000000000000000000815260040161178a90612725565b60405180910390fd5b61179b61198a565b565b6117a561062a565b156117e5576040517f08c379a00000000000000000000000000000000000000000000000000000000081526004016117dc90612791565b60405180910390fd5b6001609760006101000a81548160ff0219169083151502179055507f62e78cea01bee320cd4e420270b5ea74000d11b0c9f74754ebdbfc544b05a258611829610bc8565b6040516118369190611d7a565b60405180910390a1565b61184861062a565b15611888576040517f08c379a000000000000000000000000000000000000000000000000000000000815260040161187f90612791565b60405180910390fd5b6118938383836119eb565b505050565b505050565b600060019054906101000a900460ff166118ec576040517f08c379a00000000000000000000000000000000000000000000000000000000081526004016118e390612725565b60405180910390fd5b81603690805190602001906119029291906119f0565b5080603790805190602001906119199291906119f0565b505050565b600060019054906101000a900460ff1661196d576040517f08c379a000000000000000000000000000000000000000000000000000000000815260040161196490612725565b60405180910390fd5b6000609760006101000a81548160ff021916908315150217905550565b600060019054906101000a900460ff166119d9576040517f08c379a00000000000000000000000000000000000000000000000000000000081526004016119d090612725565b60405180910390fd5b6119e96119e4610bc8565b611487565b565b505050565b8280546119fc90611e04565b90600052602060002090601f016020900481019282611a1e5760008555611a65565b82601f10611a3757805160ff1916838001178555611a65565b82800160010185558215611a65579182015b82811115611a64578251825591602001919060010190611a49565b5b509050611a729190611a76565b5090565b5b80821115611a8f576000816000905550600101611a77565b5090565b600081519050919050565b600082825260208201905092915050565b60005b83811015611acd578082015181840152602081019050611ab2565b83811115611adc576000848401525b50505050565b6000601f19601f8301169050919050565b6000611afe82611a93565b611b088185611a9e565b9350611b18818560208601611aaf565b611b2181611ae2565b840191505092915050565b60006020820190508181036000830152611b468184611af3565b905092915050565b600080fd5b600073ffffffffffffffffffffffffffffffffffffffff82169050919050565b6000611b7e82611b53565b9050919050565b611b8e81611b73565b8114611b9957600080fd5b50565b600081359050611bab81611b85565b92915050565b6000819050919050565b611bc481611bb1565b8114611bcf57600080fd5b50565b600081359050611be181611bbb565b92915050565b60008060408385031215611bfe57611bfd611b4e565b5b6000611c0c85828601611b9c565b9250506020611c1d85828601611bd2565b9150509250929050565b60008115159050919050565b611c3c81611c27565b82525050565b6000602082019050611c576000830184611c33565b92915050565b611c6681611bb1565b82525050565b6000602082019050611c816000830184611c5d565b92915050565b600080600060608486031215611ca057611c9f611b4e565b5b6000611cae86828701611b9c565b9350506020611cbf86828701611b9c565b9250506040611cd086828701611bd2565b9150509250925092565b600060ff82169050919050565b611cf081611cda565b82525050565b6000602082019050611d0b6000830184611ce7565b92915050565b600060208284031215611d2757611d26611b4e565b5b6000611d3584828501611bd2565b91505092915050565b600060208284031215611d5457611d53611b4e565b5b6000611d6284828501611b9c565b91505092915050565b611d7481611b73565b82525050565b6000602082019050611d8f6000830184611d6b565b92915050565b60008060408385031215611dac57611dab611b4e565b5b6000611dba85828601611b9c565b9250506020611dcb85828601611b9c565b9150509250929050565b7f4e487b7100000000000000000000000000000000000000000000000000000000600052602260045260246000fd5b60006002820490506001821680611e1c57607f821691505b60208210811415611e3057611e2f611dd5565b5b50919050565b7f4e487b7100000000000000000000000000000000000000000000000000000000600052601160045260246000fd5b6000611e7082611bb1565b9150611e7b83611bb1565b9250827fffffffffffffffffffffffffffffffffffffffffffffffffffffffffffffffff03821115611eb057611eaf611e36565b5b828201905092915050565b7f4f776e61626c653a2063616c6c6572206973206e6f7420746865206f776e6572600082015250565b6000611ef1602083611a9e565b9150611efc82611ebb565b602082019050919050565b60006020820190508181036000830152611f2081611ee4565b9050919050565b6000819050919050565b6000819050919050565b6000611f56611f51611f4c84611f27565b611f31565b611cda565b9050919050565b611f6681611f3b565b82525050565b6000602082019050611f816000830184611f5d565b92915050565b7f45524332303a2064656372656173656420616c6c6f77616e63652062656c6f7760008201527f207a65726f000000000000000000000000000000000000000000000000000000602082015250565b6000611fe3602583611a9e565b9150611fee82611f87565b604082019050919050565b6000602082019050818103600083015261201281611fd6565b9050919050565b7f4f776e61626c653a206e6577206f776e657220697320746865207a65726f206160008201527f6464726573730000000000000000000000000000000000000000000000000000602082015250565b6000612075602683611a9e565b915061208082612019565b604082019050919050565b600060208201905081810360008301526120a481612068565b9050919050565b7f45524332303a20617070726f76652066726f6d20746865207a65726f2061646460008201527f7265737300000000000000000000000000000000000000000000000000000000602082015250565b6000612107602483611a9e565b9150612112826120ab565b604082019050919050565b60006020820190508181036000830152612136816120fa565b9050919050565b7f45524332303a20617070726f766520746f20746865207a65726f20616464726560008201527f7373000000000000000000000000000000000000000000000000000000000000602082015250565b6000612199602283611a9e565b91506121a48261213d565b604082019050919050565b600060208201905081810360008301526121c88161218c565b9050919050565b7f45524332303a20696e73756666696369656e7420616c6c6f77616e6365000000600082015250565b6000612205601d83611a9e565b9150612210826121cf565b602082019050919050565b60006020820190508181036000830152612234816121f8565b9050919050565b7f45524332303a207472616e736665722066726f6d20746865207a65726f20616460008201527f6472657373000000000000000000000000000000000000000000000000000000602082015250565b6000612297602583611a9e565b91506122a28261223b565b604082019050919050565b600060208201905081810360008301526122c68161228a565b9050919050565b7f45524332303a207472616e7366657220746f20746865207a65726f206164647260008201527f6573730000000000000000000000000000000000000000000000000000000000602082015250565b6000612329602383611a9e565b9150612334826122cd565b604082019050919050565b600060208201905081810360008301526123588161231c565b9050919050565b7f45524332303a207472616e7366657220616d6f756e742065786365656473206260008201527f616c616e63650000000000000000000000000000000000000000000000000000602082015250565b60006123bb602683611a9e565b91506123c68261235f565b604082019050919050565b600060208201905081810360008301526123ea816123ae565b9050919050565b7f5061757361626c653a206e6f7420706175736564000000000000000000000000600082015250565b6000612427601483611a9e565b9150612432826123f1565b602082019050919050565b600060208201905081810360008301526124568161241a565b9050919050565b7f45524332303a206d696e7420746f20746865207a65726f206164647265737300600082015250565b6000612493601f83611a9e565b915061249e8261245d565b602082019050919050565b600060208201905081810360008301526124c281612486565b9050919050565b7f45524332303a206275726e2066726f6d20746865207a65726f2061646472657360008201527f7300000000000000000000000000000000000000000000000000000000000000602082015250565b6000612525602183611a9e565b9150612530826124c9565b604082019050919050565b6000602082019050818103600083015261255481612518565b9050919050565b7f45524332303a206275726e20616d6f756e7420657863656564732062616c616e60008201527f6365000000000000000000000000000000000000000000000000000000000000602082015250565b60006125b7602283611a9e565b91506125c28261255b565b604082019050919050565b600060208201905081810360008301526125e6816125aa565b9050919050565b60006125f882611bb1565b915061260383611bb1565b92508282101561261657612615611e36565b5b828203905092915050565b7f496e697469616c697a61626c653a20636f6e747261637420697320616c72656160008201527f647920696e697469616c697a6564000000000000000000000000000000000000602082015250565b600061267d602e83611a9e565b915061268882612621565b604082019050919050565b600060208201905081810360008301526126ac81612670565b9050919050565b7f496e697469616c697a61626c653a20636f6e7472616374206973206e6f74206960008201527f6e697469616c697a696e67000000000000000000000000000000000000000000602082015250565b600061270f602b83611a9e565b915061271a826126b3565b604082019050919050565b6000602082019050818103600083015261273e81612702565b9050919050565b7f5061757361626c653a2070617573656400000000000000000000000000000000600082015250565b600061277b601083611a9e565b915061278682612745565b602082019050919050565b600060208201905081810360008301526127aa8161276e565b905091905056fea2646970667358221220fe17b9600d7c8bc915b19d9de5934428b8cc756cd4e3632afd0fe29385458f6764736f6c634300080c0033",
					"opcodes": "PUSH1 0x80 PUSH1 0x40 MSTORE CALLVALUE DUP1 ISZERO PUSH3 0x11 JUMPI PUSH1 0x0 DUP1 REVERT JUMPDEST POP PUSH3 0x22 PUSH3 0x28 PUSH1 0x20 SHL PUSH1 0x20 SHR JUMP JUMPDEST PUSH3 0x20F JUMP JUMPDEST PUSH3 0x3A PUSH1 0xFF PUSH3 0x3D PUSH1 0x20 SHL PUSH1 0x20 SHR JUMP JUMPDEST POP JUMP JUMPDEST PUSH1 0x0 DUP1 PUSH1 0x1 SWAP1 SLOAD SWAP1 PUSH2 0x100 EXP SWAP1 DIV PUSH1 0xFF AND ISZERO PUSH3 0xC7 JUMPI PUSH1 0x1 DUP3 PUSH1 0xFF AND EQ DUP1 ISZERO PUSH3 0x7B JUMPI POP PUSH3 0x79 ADDRESS PUSH3 0x143 PUSH1 0x20 SHL PUSH3 0xBA5 OR PUSH1 0x20 SHR JUMP JUMPDEST ISZERO JUMPDEST PUSH3 0xBD JUMPI PUSH1 0x40 MLOAD PUSH32 0x8C379A000000000000000000000000000000000000000000000000000000000 DUP2 MSTORE PUSH1 0x4 ADD PUSH3 0xB4 SWAP1 PUSH3 0x1ED JUMP JUMPDEST PUSH1 0x40 MLOAD DUP1 SWAP2 SUB SWAP1 REVERT JUMPDEST PUSH1 0x0 SWAP1 POP PUSH3 0x13E JUMP JUMPDEST DUP2 PUSH1 0xFF AND PUSH1 0x0 DUP1 SLOAD SWAP1 PUSH2 0x100 EXP SWAP1 DIV PUSH1 0xFF AND PUSH1 0xFF AND LT PUSH3 0x11F JUMPI PUSH1 0x40 MLOAD PUSH32 0x8C379A000000000000000000000000000000000000000000000000000000000 DUP2 MSTORE PUSH1 0x4 ADD PUSH3 0x116 SWAP1 PUSH3 0x1ED JUMP JUMPDEST PUSH1 0x40 MLOAD DUP1 SWAP2 SUB SWAP1 REVERT JUMPDEST DUP2 PUSH1 0x0 DUP1 PUSH2 0x100 EXP DUP2 SLOAD DUP2 PUSH1 0xFF MUL NOT AND SWAP1 DUP4 PUSH1 0xFF AND MUL OR SWAP1 SSTORE POP PUSH1 0x1 SWAP1 POP JUMPDEST SWAP2 SWAP1 POP JUMP JUMPDEST PUSH1 0x0 DUP1 DUP3 PUSH20 0xFFFFFFFFFFFFFFFFFFFFFFFFFFFFFFFFFFFFFFFF AND EXTCODESIZE GT SWAP1 POP SWAP2 SWAP1 POP JUMP JUMPDEST PUSH1 0x0 DUP3 DUP3 MSTORE PUSH1 0x20 DUP3 ADD SWAP1 POP SWAP3 SWAP2 POP POP JUMP JUMPDEST PUSH32 0x496E697469616C697A61626C653A20636F6E747261637420697320616C726561 PUSH1 0x0 DUP3 ADD MSTORE PUSH32 0x647920696E697469616C697A6564000000000000000000000000000000000000 PUSH1 0x20 DUP3 ADD MSTORE POP JUMP JUMPDEST PUSH1 0x0 PUSH3 0x1D5 PUSH1 0x2E DUP4 PUSH3 0x166 JUMP JUMPDEST SWAP2 POP PUSH3 0x1E2 DUP3 PUSH3 0x177 JUMP JUMPDEST PUSH1 0x40 DUP3 ADD SWAP1 POP SWAP2 SWAP1 POP JUMP JUMPDEST PUSH1 0x0 PUSH1 0x20 DUP3 ADD SWAP1 POP DUP2 DUP2 SUB PUSH1 0x0 DUP4 ADD MSTORE PUSH3 0x208 DUP2 PUSH3 0x1C6 JUMP JUMPDEST SWAP1 POP SWAP2 SWAP1 POP JUMP JUMPDEST PUSH2 0x27E7 DUP1 PUSH3 0x21F PUSH1 0x0 CODECOPY PUSH1 0x0 RETURN INVALID PUSH1 0x80 PUSH1 0x40 MSTORE CALLVALUE DUP1 ISZERO PUSH2 0x10 JUMPI PUSH1 0x0 DUP1 REVERT JUMPDEST POP PUSH1 0x4 CALLDATASIZE LT PUSH2 0x137 JUMPI PUSH1 0x0 CALLDATALOAD PUSH1 0xE0 SHR DUP1 PUSH4 0x70A08231 GT PUSH2 0xB8 JUMPI DUP1 PUSH4 0x8DA5CB5B GT PUSH2 0x7C JUMPI DUP1 PUSH4 0x8DA5CB5B EQ PUSH2 0x2F0 JUMPI DUP1 PUSH4 0x95D89B41 EQ PUSH2 0x30E JUMPI DUP1 PUSH4 0xA457C2D7 EQ PUSH2 0x32C JUMPI DUP1 PUSH4 0xA9059CBB EQ PUSH2 0x35C JUMPI DUP1 PUSH4 0xDD62ED3E EQ PUSH2 0x38C JUMPI DUP1 PUSH4 0xF2FDE38B EQ PUSH2 0x3BC JUMPI PUSH2 0x137 JUMP JUMPDEST DUP1 PUSH4 0x70A08231 EQ PUSH2 0x286 JUMPI DUP1 PUSH4 0x715018A6 EQ PUSH2 0x2B6 JUMPI DUP1 PUSH4 0x79CC6790 EQ PUSH2 0x2C0 JUMPI DUP1 PUSH4 0x8129FC1C EQ PUSH2 0x2DC JUMPI DUP1 PUSH4 0x8456CB59 EQ PUSH2 0x2E6 JUMPI PUSH2 0x137 JUMP JUMPDEST DUP1 PUSH4 0x39509351 GT PUSH2 0xFF JUMPI DUP1 PUSH4 0x39509351 EQ PUSH2 0x1F6 JUMPI DUP1 PUSH4 0x3F4BA83A EQ PUSH2 0x226 JUMPI DUP1 PUSH4 0x40C10F19 EQ PUSH2 0x230 JUMPI DUP1 PUSH4 0x42966C68 EQ PUSH2 0x24C JUMPI DUP1 PUSH4 0x5C975ABB EQ PUSH2 0x268 JUMPI PUSH2 0x137 JUMP JUMPDEST DUP1 PUSH4 0x6FDDE03 EQ PUSH2 0x13C JUMPI DUP1 PUSH4 0x95EA7B3 EQ PUSH2 0x15A JUMPI DUP1 PUSH4 0x18160DDD EQ PUSH2 0x18A JUMPI DUP1 PUSH4 0x23B872DD EQ PUSH2 0x1A8 JUMPI DUP1 PUSH4 0x313CE567 EQ PUSH2 0x1D8 JUMPI JUMPDEST PUSH1 0x0 DUP1 REVERT JUMPDEST PUSH2 0x144 PUSH2 0x3D8 JUMP JUMPDEST PUSH1 0x40 MLOAD PUSH2 0x151 SWAP2 SWAP1 PUSH2 0x1B2C JUMP JUMPDEST PUSH1 0x40 MLOAD DUP1 SWAP2 SUB SWAP1 RETURN JUMPDEST PUSH2 0x174 PUSH1 0x4 DUP1 CALLDATASIZE SUB DUP2 ADD SWAP1 PUSH2 0x16F SWAP2 SWAP1 PUSH2 0x1BE7 JUMP JUMPDEST PUSH2 0x46A JUMP JUMPDEST PUSH1 0x40 MLOAD PUSH2 0x181 SWAP2 SWAP1 PUSH2 0x1C42 JUMP JUMPDEST PUSH1 0x40 MLOAD DUP1 SWAP2 SUB SWAP1 RETURN JUMPDEST PUSH2 0x192 PUSH2 0x48D JUMP JUMPDEST PUSH1 0x40 MLOAD PUSH2 0x19F SWAP2 SWAP1 PUSH2 0x1C6C JUMP JUMPDEST PUSH1 0x40 MLOAD DUP1 SWAP2 SUB SWAP1 RETURN JUMPDEST PUSH2 0x1C2 PUSH1 0x4 DUP1 CALLDATASIZE SUB DUP2 ADD SWAP1 PUSH2 0x1BD SWAP2 SWAP1 PUSH2 0x1C87 JUMP JUMPDEST PUSH2 0x497 JUMP JUMPDEST PUSH1 0x40 MLOAD PUSH2 0x1CF SWAP2 SWAP1 PUSH2 0x1C42 JUMP JUMPDEST PUSH1 0x40 MLOAD DUP1 SWAP2 SUB SWAP1 RETURN JUMPDEST PUSH2 0x1E0 PUSH2 0x4C6 JUMP JUMPDEST PUSH1 0x40 MLOAD PUSH2 0x1ED SWAP2 SWAP1 PUSH2 0x1CF6 JUMP JUMPDEST PUSH1 0x40 MLOAD DUP1 SWAP2 SUB SWAP1 RETURN JUMPDEST PUSH2 0x210 PUSH1 0x4 DUP1 CALLDATASIZE SUB DUP2 ADD SWAP1 PUSH2 0x20B SWAP2 SWAP1 PUSH2 0x1BE7 JUMP JUMPDEST PUSH2 0x4CF JUMP JUMPDEST PUSH1 0x40 MLOAD PUSH2 0x21D SWAP2 SWAP1 PUSH2 0x1C42 JUMP JUMPDEST PUSH1 0x40 MLOAD DUP1 SWAP2 SUB SWAP1 RETURN JUMPDEST PUSH2 0x22E PUSH2 0x506 JUMP JUMPDEST STOP JUMPDEST PUSH2 0x24A PUSH1 0x4 DUP1 CALLDATASIZE SUB DUP2 ADD SWAP1 PUSH2 0x245 SWAP2 SWAP1 PUSH2 0x1BE7 JUMP JUMPDEST PUSH2 0x58C JUMP JUMPDEST STOP JUMPDEST PUSH2 0x266 PUSH1 0x4 DUP1 CALLDATASIZE SUB DUP2 ADD SWAP1 PUSH2 0x261 SWAP2 SWAP1 PUSH2 0x1D11 JUMP JUMPDEST PUSH2 0x616 JUMP JUMPDEST STOP JUMPDEST PUSH2 0x270 PUSH2 0x62A JUMP JUMPDEST PUSH1 0x40 MLOAD PUSH2 0x27D SWAP2 SWAP1 PUSH2 0x1C42 JUMP JUMPDEST PUSH1 0x40 MLOAD DUP1 SWAP2 SUB SWAP1 RETURN JUMPDEST PUSH2 0x2A0 PUSH1 0x4 DUP1 CALLDATASIZE SUB DUP2 ADD SWAP1 PUSH2 0x29B SWAP2 SWAP1 PUSH2 0x1D3E JUMP JUMPDEST PUSH2 0x641 JUMP JUMPDEST PUSH1 0x40 MLOAD PUSH2 0x2AD SWAP2 SWAP1 PUSH2 0x1C6C JUMP JUMPDEST PUSH1 0x40 MLOAD DUP1 SWAP2 SUB SWAP1 RETURN JUMPDEST PUSH2 0x2BE PUSH2 0x68A JUMP JUMPDEST STOP JUMPDEST PUSH2 0x2DA PUSH1 0x4 DUP1 CALLDATASIZE SUB DUP2 ADD SWAP1 PUSH2 0x2D5 SWAP2 SWAP1 PUSH2 0x1BE7 JUMP JUMPDEST PUSH2 0x712 JUMP JUMPDEST STOP JUMPDEST PUSH2 0x2E4 PUSH2 0x732 JUMP JUMPDEST STOP JUMPDEST PUSH2 0x2EE PUSH2 0x84A JUMP JUMPDEST STOP JUMPDEST PUSH2 0x2F8 PUSH2 0x8D0 JUMP JUMPDEST PUSH1 0x40 MLOAD PUSH2 0x305 SWAP2 SWAP1 PUSH2 0x1D7A JUMP JUMPDEST PUSH1 0x40 MLOAD DUP1 SWAP2 SUB SWAP1 RETURN JUMPDEST PUSH2 0x316 PUSH2 0x8FA JUMP JUMPDEST PUSH1 0x40 MLOAD PUSH2 0x323 SWAP2 SWAP1 PUSH2 0x1B2C JUMP JUMPDEST PUSH1 0x40 MLOAD DUP1 SWAP2 SUB SWAP1 RETURN JUMPDEST PUSH2 0x346 PUSH1 0x4 DUP1 CALLDATASIZE SUB DUP2 ADD SWAP1 PUSH2 0x341 SWAP2 SWAP1 PUSH2 0x1BE7 JUMP JUMPDEST PUSH2 0x98C JUMP JUMPDEST PUSH1 0x40 MLOAD PUSH2 0x353 SWAP2 SWAP1 PUSH2 0x1C42 JUMP JUMPDEST PUSH1 0x40 MLOAD DUP1 SWAP2 SUB SWAP1 RETURN JUMPDEST PUSH2 0x376 PUSH1 0x4 DUP1 CALLDATASIZE SUB DUP2 ADD SWAP1 PUSH2 0x371 SWAP2 SWAP1 PUSH2 0x1BE7 JUMP JUMPDEST PUSH2 0xA03 JUMP JUMPDEST PUSH1 0x40 MLOAD PUSH2 0x383 SWAP2 SWAP1 PUSH2 0x1C42 JUMP JUMPDEST PUSH1 0x40 MLOAD DUP1 SWAP2 SUB SWAP1 RETURN JUMPDEST PUSH2 0x3A6 PUSH1 0x4 DUP1 CALLDATASIZE SUB DUP2 ADD SWAP1 PUSH2 0x3A1 SWAP2 SWAP1 PUSH2 0x1D95 JUMP JUMPDEST PUSH2 0xA26 JUMP JUMPDEST PUSH1 0x40 MLOAD PUSH2 0x3B3 SWAP2 SWAP1 PUSH2 0x1C6C JUMP JUMPDEST PUSH1 0x40 MLOAD DUP1 SWAP2 SUB SWAP1 RETURN JUMPDEST PUSH2 0x3D6 PUSH1 0x4 DUP1 CALLDATASIZE SUB DUP2 ADD SWAP1 PUSH2 0x3D1 SWAP2 SWAP1 PUSH2 0x1D3E JUMP JUMPDEST PUSH2 0xAAD JUMP JUMPDEST STOP JUMPDEST PUSH1 0x60 PUSH1 0x36 DUP1 SLOAD PUSH2 0x3E7 SWAP1 PUSH2 0x1E04 JUMP JUMPDEST DUP1 PUSH1 0x1F ADD PUSH1 0x20 DUP1 SWAP2 DIV MUL PUSH1 0x20 ADD PUSH1 0x40 MLOAD SWAP1 DUP2 ADD PUSH1 0x40 MSTORE DUP1 SWAP3 SWAP2 SWAP1 DUP2 DUP2 MSTORE PUSH1 0x20 ADD DUP3 DUP1 SLOAD PUSH2 0x413 SWAP1 PUSH2 0x1E04 JUMP JUMPDEST DUP1 ISZERO PUSH2 0x460 JUMPI DUP1 PUSH1 0x1F LT PUSH2 0x435 JUMPI PUSH2 0x100 DUP1 DUP4 SLOAD DIV MUL DUP4 MSTORE SWAP2 PUSH1 0x20 ADD SWAP2 PUSH2 0x460 JUMP JUMPDEST DUP3 ADD SWAP2 SWAP1 PUSH1 0x0 MSTORE PUSH1 0x20 PUSH1 0x0 KECCAK256 SWAP1 JUMPDEST DUP2 SLOAD DUP2 MSTORE SWAP1 PUSH1 0x1 ADD SWAP1 PUSH1 0x20 ADD DUP1 DUP4 GT PUSH2 0x443 JUMPI DUP3 SWAP1 SUB PUSH1 0x1F AND DUP3 ADD SWAP2 JUMPDEST POP POP POP POP POP SWAP1 POP SWAP1 JUMP JUMPDEST PUSH1 0x0 DUP1 PUSH2 0x475 PUSH2 0xBC8 JUMP JUMPDEST SWAP1 POP PUSH2 0x482 DUP2 DUP6 DUP6 PUSH2 0xBD0 JUMP JUMPDEST PUSH1 0x1 SWAP2 POP POP SWAP3 SWAP2 POP POP JUMP JUMPDEST PUSH1 0x0 PUSH1 0x35 SLOAD SWAP1 POP SWAP1 JUMP JUMPDEST PUSH1 0x0 DUP1 PUSH2 0x4A2 PUSH2 0xBC8 JUMP JUMPDEST SWAP1 POP PUSH2 0x4AF DUP6 DUP3 DUP6 PUSH2 0xD9B JUMP JUMPDEST PUSH2 0x4BA DUP6 DUP6 DUP6 PUSH2 0xE27 JUMP JUMPDEST PUSH1 0x1 SWAP2 POP POP SWAP4 SWAP3 POP POP POP JUMP JUMPDEST PUSH1 0x0 PUSH1 0x12 SWAP1 POP SWAP1 JUMP JUMPDEST PUSH1 0x0 DUP1 PUSH2 0x4DA PUSH2 0xBC8 JUMP JUMPDEST SWAP1 POP PUSH2 0x4FB DUP2 DUP6 DUP6 PUSH2 0x4EC DUP6 DUP10 PUSH2 0xA26 JUMP JUMPDEST PUSH2 0x4F6 SWAP2 SWAP1 PUSH2 0x1E65 JUMP JUMPDEST PUSH2 0xBD0 JUMP JUMPDEST PUSH1 0x1 SWAP2 POP POP SWAP3 SWAP2 POP POP JUMP JUMPDEST PUSH2 0x50E PUSH2 0xBC8 JUMP JUMPDEST PUSH20 0xFFFFFFFFFFFFFFFFFFFFFFFFFFFFFFFFFFFFFFFF AND PUSH2 0x52C PUSH2 0x8D0 JUMP JUMPDEST PUSH20 0xFFFFFFFFFFFFFFFFFFFFFFFFFFFFFFFFFFFFFFFF AND EQ PUSH2 0x582 JUMPI PUSH1 0x40 MLOAD PUSH32 0x8C379A000000000000000000000000000000000000000000000000000000000 DUP2 MSTORE PUSH1 0x4 ADD PUSH2 0x579 SWAP1 PUSH2 0x1F07 JUMP JUMPDEST PUSH1 0x40 MLOAD DUP1 SWAP2 SUB SWAP1 REVERT JUMPDEST PUSH2 0x58A PUSH2 0x10AB JUMP JUMPDEST JUMP JUMPDEST PUSH2 0x594 PUSH2 0xBC8 JUMP JUMPDEST PUSH20 0xFFFFFFFFFFFFFFFFFFFFFFFFFFFFFFFFFFFFFFFF AND PUSH2 0x5B2 PUSH2 0x8D0 JUMP JUMPDEST PUSH20 0xFFFFFFFFFFFFFFFFFFFFFFFFFFFFFFFFFFFFFFFF AND EQ PUSH2 0x608 JUMPI PUSH1 0x40 MLOAD PUSH32 0x8C379A000000000000000000000000000000000000000000000000000000000 DUP2 MSTORE PUSH1 0x4 ADD PUSH2 0x5FF SWAP1 PUSH2 0x1F07 JUMP JUMPDEST PUSH1 0x40 MLOAD DUP1 SWAP2 SUB SWAP1 REVERT JUMPDEST PUSH2 0x612 DUP3 DUP3 PUSH2 0x114D JUMP JUMPDEST POP POP JUMP JUMPDEST PUSH2 0x627 PUSH2 0x621 PUSH2 0xBC8 JUMP JUMPDEST DUP3 PUSH2 0x12AE JUMP JUMPDEST POP JUMP JUMPDEST PUSH1 0x0 PUSH1 0x97 PUSH1 0x0 SWAP1 SLOAD SWAP1 PUSH2 0x100 EXP SWAP1 DIV PUSH1 0xFF AND SWAP1 POP SWAP1 JUMP JUMPDEST PUSH1 0x0 PUSH1 0x33 PUSH1 0x0 DUP4 PUSH20 0xFFFFFFFFFFFFFFFFFFFFFFFFFFFFFFFFFFFFFFFF AND PUSH20 0xFFFFFFFFFFFFFFFFFFFFFFFFFFFFFFFFFFFFFFFF AND DUP2 MSTORE PUSH1 0x20 ADD SWAP1 DUP2 MSTORE PUSH1 0x20 ADD PUSH1 0x0 KECCAK256 SLOAD SWAP1 POP SWAP2 SWAP1 POP JUMP JUMPDEST PUSH2 0x692 PUSH2 0xBC8 JUMP JUMPDEST PUSH20 0xFFFFFFFFFFFFFFFFFFFFFFFFFFFFFFFFFFFFFFFF AND PUSH2 0x6B0 PUSH2 0x8D0 JUMP JUMPDEST PUSH20 0xFFFFFFFFFFFFFFFFFFFFFFFFFFFFFFFFFFFFFFFF AND EQ PUSH2 0x706 JUMPI PUSH1 0x40 MLOAD PUSH32 0x8C379A000000000000000000000000000000000000000000000000000000000 DUP2 MSTORE PUSH1 0x4 ADD PUSH2 0x6FD SWAP1 PUSH2 0x1F07 JUMP JUMPDEST PUSH1 0x40 MLOAD DUP1 SWAP2 SUB SWAP1 REVERT JUMPDEST PUSH2 0x710 PUSH1 0x0 PUSH2 0x1487 JUMP JUMPDEST JUMP JUMPDEST PUSH2 0x724 DUP3 PUSH2 0x71E PUSH2 0xBC8 JUMP JUMPDEST DUP4 PUSH2 0xD9B JUMP JUMPDEST PUSH2 0x72E DUP3 DUP3 PUSH2 0x12AE JUMP JUMPDEST POP POP JUMP JUMPDEST PUSH1 0x0 PUSH2 0x73E PUSH1 0x1 PUSH2 0x154D JUMP JUMPDEST SWAP1 POP DUP1 ISZERO PUSH2 0x762 JUMPI PUSH1 0x1 PUSH1 0x0 PUSH1 0x1 PUSH2 0x100 EXP DUP2 SLOAD DUP2 PUSH1 0xFF MUL NOT AND SWAP1 DUP4 ISZERO ISZERO MUL OR SWAP1 SSTORE POP JUMPDEST PUSH2 0x7D6 PUSH1 0x40 MLOAD DUP1 PUSH1 0x40 ADD PUSH1 0x40 MSTORE DUP1 PUSH1 0x7 DUP2 MSTORE PUSH1 0x20 ADD PUSH32 0x4D79546F6B656E00000000000000000000000000000000000000000000000000 DUP2 MSTORE POP PUSH1 0x40 MLOAD DUP1 PUSH1 0x40 ADD PUSH1 0x40 MSTORE DUP1 PUSH1 0x3 DUP2 MSTORE PUSH1 0x20 ADD PUSH32 0x4D544B0000000000000000000000000000000000000000000000000000000000 DUP2 MSTORE POP PUSH2 0x163D JUMP JUMPDEST PUSH2 0x7DE PUSH2 0x169A JUMP JUMPDEST PUSH2 0x7E6 PUSH2 0x16EB JUMP JUMPDEST PUSH2 0x7EE PUSH2 0x1744 JUMP JUMPDEST DUP1 ISZERO PUSH2 0x847 JUMPI PUSH1 0x0 DUP1 PUSH1 0x1 PUSH2 0x100 EXP DUP2 SLOAD DUP2 PUSH1 0xFF MUL NOT AND SWAP1 DUP4 ISZERO ISZERO MUL OR SWAP1 SSTORE POP PUSH32 0x7F26B83FF96E1F2B6A682F133852F6798A09C465DA95921460CEFB3847402498 PUSH1 0x1 PUSH1 0x40 MLOAD PUSH2 0x83E SWAP2 SWAP1 PUSH2 0x1F6C JUMP JUMPDEST PUSH1 0x40 MLOAD DUP1 SWAP2 SUB SWAP1 LOG1 JUMPDEST POP JUMP JUMPDEST PUSH2 0x852 PUSH2 0xBC8 JUMP JUMPDEST PUSH20 0xFFFFFFFFFFFFFFFFFFFFFFFFFFFFFFFFFFFFFFFF AND PUSH2 0x870 PUSH2 0x8D0 JUMP JUMPDEST PUSH20 0xFFFFFFFFFFFFFFFFFFFFFFFFFFFFFFFFFFFFFFFF AND EQ PUSH2 0x8C6 JUMPI PUSH1 0x40 MLOAD PUSH32 0x8C379A000000000000000000000000000000000000000000000000000000000 DUP2 MSTORE PUSH1 0x4 ADD PUSH2 0x8BD SWAP1 PUSH2 0x1F07 JUMP JUMPDEST PUSH1 0x40 MLOAD DUP1 SWAP2 SUB SWAP1 REVERT JUMPDEST PUSH2 0x8CE PUSH2 0x179D JUMP JUMPDEST JUMP JUMPDEST PUSH1 0x0 PUSH1 0xC9 PUSH1 0x0 SWAP1 SLOAD SWAP1 PUSH2 0x100 EXP SWAP1 DIV PUSH20 0xFFFFFFFFFFFFFFFFFFFFFFFFFFFFFFFFFFFFFFFF AND SWAP1 POP SWAP1 JUMP JUMPDEST PUSH1 0x60 PUSH1 0x37 DUP1 SLOAD PUSH2 0x909 SWAP1 PUSH2 0x1E04 JUMP JUMPDEST DUP1 PUSH1 0x1F ADD PUSH1 0x20 DUP1 SWAP2 DIV MUL PUSH1 0x20 ADD PUSH1 0x40 MLOAD SWAP1 DUP2 ADD PUSH1 0x40 MSTORE DUP1 SWAP3 SWAP2 SWAP1 DUP2 DUP2 MSTORE PUSH1 0x20 ADD DUP3 DUP1 SLOAD PUSH2 0x935 SWAP1 PUSH2 0x1E04 JUMP JUMPDEST DUP1 ISZERO PUSH2 0x982 JUMPI DUP1 PUSH1 0x1F LT PUSH2 0x957 JUMPI PUSH2 0x100 DUP1 DUP4 SLOAD DIV MUL DUP4 MSTORE SWAP2 PUSH1 0x20 ADD SWAP2 PUSH2 0x982 JUMP JUMPDEST DUP3 ADD SWAP2 SWAP1 PUSH1 0x0 MSTORE PUSH1 0x20 PUSH1 0x0 KECCAK256 SWAP1 JUMPDEST DUP2 SLOAD DUP2 MSTORE SWAP1 PUSH1 0x1 ADD SWAP1 PUSH1 0x20 ADD DUP1 DUP4 GT PUSH2 0x965 JUMPI DUP3 SWAP1 SUB PUSH1 0x1F AND DUP3 ADD SWAP2 JUMPDEST POP POP POP POP POP SWAP1 POP SWAP1 JUMP JUMPDEST PUSH1 0x0 DUP1 PUSH2 0x997 PUSH2 0xBC8 JUMP JUMPDEST SWAP1 POP PUSH1 0x0 PUSH2 0x9A5 DUP3 DUP7 PUSH2 0xA26 JUMP JUMPDEST SWAP1 POP DUP4 DUP2 LT ISZERO PUSH2 0x9EA JUMPI PUSH1 0x40 MLOAD PUSH32 0x8C379A000000000000000000000000000000000000000000000000000000000 DUP2 MSTORE PUSH1 0x4 ADD PUSH2 0x9E1 SWAP1 PUSH2 0x1FF9 JUMP JUMPDEST PUSH1 0x40 MLOAD DUP1 SWAP2 SUB SWAP1 REVERT JUMPDEST PUSH2 0x9F7 DUP3 DUP7 DUP7 DUP5 SUB PUSH2 0xBD0 JUMP JUMPDEST PUSH1 0x1 SWAP3 POP POP POP SWAP3 SWAP2 POP POP JUMP JUMPDEST PUSH1 0x0 DUP1 PUSH2 0xA0E PUSH2 0xBC8 JUMP JUMPDEST SWAP1 POP PUSH2 0xA1B DUP2 DUP6 DUP6 PUSH2 0xE27 JUMP JUMPDEST PUSH1 0x1 SWAP2 POP POP SWAP3 SWAP2 POP POP JUMP JUMPDEST PUSH1 0x0 PUSH1 0x34 PUSH1 0x0 DUP5 PUSH20 0xFFFFFFFFFFFFFFFFFFFFFFFFFFFFFFFFFFFFFFFF AND PUSH20 0xFFFFFFFFFFFFFFFFFFFFFFFFFFFFFFFFFFFFFFFF AND DUP2 MSTORE PUSH1 0x20 ADD SWAP1 DUP2 MSTORE PUSH1 0x20 ADD PUSH1 0x0 KECCAK256 PUSH1 0x0 DUP4 PUSH20 0xFFFFFFFFFFFFFFFFFFFFFFFFFFFFFFFFFFFFFFFF AND PUSH20 0xFFFFFFFFFFFFFFFFFFFFFFFFFFFFFFFFFFFFFFFF AND DUP2 MSTORE PUSH1 0x20 ADD SWAP1 DUP2 MSTORE PUSH1 0x20 ADD PUSH1 0x0 KECCAK256 SLOAD SWAP1 POP SWAP3 SWAP2 POP POP JUMP JUMPDEST PUSH2 0xAB5 PUSH2 0xBC8 JUMP JUMPDEST PUSH20 0xFFFFFFFFFFFFFFFFFFFFFFFFFFFFFFFFFFFFFFFF AND PUSH2 0xAD3 PUSH2 0x8D0 JUMP JUMPDEST PUSH20 0xFFFFFFFFFFFFFFFFFFFFFFFFFFFFFFFFFFFFFFFF AND EQ PUSH2 0xB29 JUMPI PUSH1 0x40 MLOAD PUSH32 0x8C379A000000000000000000000000000000000000000000000000000000000 DUP2 MSTORE PUSH1 0x4 ADD PUSH2 0xB20 SWAP1 PUSH2 0x1F07 JUMP JUMPDEST PUSH1 0x40 MLOAD DUP1 SWAP2 SUB SWAP1 REVERT JUMPDEST PUSH1 0x0 PUSH20 0xFFFFFFFFFFFFFFFFFFFFFFFFFFFFFFFFFFFFFFFF AND DUP2 PUSH20 0xFFFFFFFFFFFFFFFFFFFFFFFFFFFFFFFFFFFFFFFF AND EQ ISZERO PUSH2 0xB99 JUMPI PUSH1 0x40 MLOAD PUSH32 0x8C379A000000000000000000000000000000000000000000000000000000000 DUP2 MSTORE PUSH1 0x4 ADD PUSH2 0xB90 SWAP1 PUSH2 0x208B JUMP JUMPDEST PUSH1 0x40 MLOAD DUP1 SWAP2 SUB SWAP1 REVERT JUMPDEST PUSH2 0xBA2 DUP2 PUSH2 0x1487 JUMP JUMPDEST POP JUMP JUMPDEST PUSH1 0x0 DUP1 DUP3 PUSH20 0xFFFFFFFFFFFFFFFFFFFFFFFFFFFFFFFFFFFFFFFF AND EXTCODESIZE GT SWAP1 POP SWAP2 SWAP1 POP JUMP JUMPDEST PUSH1 0x0 CALLER SWAP1 POP SWAP1 JUMP JUMPDEST PUSH1 0x0 PUSH20 0xFFFFFFFFFFFFFFFFFFFFFFFFFFFFFFFFFFFFFFFF AND DUP4 PUSH20 0xFFFFFFFFFFFFFFFFFFFFFFFFFFFFFFFFFFFFFFFF AND EQ ISZERO PUSH2 0xC40 JUMPI PUSH1 0x40 MLOAD PUSH32 0x8C379A000000000000000000000000000000000000000000000000000000000 DUP2 MSTORE PUSH1 0x4 ADD PUSH2 0xC37 SWAP1 PUSH2 0x211D JUMP JUMPDEST PUSH1 0x40 MLOAD DUP1 SWAP2 SUB SWAP1 REVERT JUMPDEST PUSH1 0x0 PUSH20 0xFFFFFFFFFFFFFFFFFFFFFFFFFFFFFFFFFFFFFFFF AND DUP3 PUSH20 0xFFFFFFFFFFFFFFFFFFFFFFFFFFFFFFFFFFFFFFFF AND EQ ISZERO PUSH2 0xCB0 JUMPI PUSH1 0x40 MLOAD PUSH32 0x8C379A000000000000000000000000000000000000000000000000000000000 DUP2 MSTORE PUSH1 0x4 ADD PUSH2 0xCA7 SWAP1 PUSH2 0x21AF JUMP JUMPDEST PUSH1 0x40 MLOAD DUP1 SWAP2 SUB SWAP1 REVERT JUMPDEST DUP1 PUSH1 0x34 PUSH1 0x0 DUP6 PUSH20 0xFFFFFFFFFFFFFFFFFFFFFFFFFFFFFFFFFFFFFFFF AND PUSH20 0xFFFFFFFFFFFFFFFFFFFFFFFFFFFFFFFFFFFFFFFF AND DUP2 MSTORE PUSH1 0x20 ADD SWAP1 DUP2 MSTORE PUSH1 0x20 ADD PUSH1 0x0 KECCAK256 PUSH1 0x0 DUP5 PUSH20 0xFFFFFFFFFFFFFFFFFFFFFFFFFFFFFFFFFFFFFFFF AND PUSH20 0xFFFFFFFFFFFFFFFFFFFFFFFFFFFFFFFFFFFFFFFF AND DUP2 MSTORE PUSH1 0x20 ADD SWAP1 DUP2 MSTORE PUSH1 0x20 ADD PUSH1 0x0 KECCAK256 DUP2 SWAP1 SSTORE POP DUP2 PUSH20 0xFFFFFFFFFFFFFFFFFFFFFFFFFFFFFFFFFFFFFFFF AND DUP4 PUSH20 0xFFFFFFFFFFFFFFFFFFFFFFFFFFFFFFFFFFFFFFFF AND PUSH32 0x8C5BE1E5EBEC7D5BD14F71427D1E84F3DD0314C0F7B2291E5B200AC8C7C3B925 DUP4 PUSH1 0x40 MLOAD PUSH2 0xD8E SWAP2 SWAP1 PUSH2 0x1C6C JUMP JUMPDEST PUSH1 0x40 MLOAD DUP1 SWAP2 SUB SWAP1 LOG3 POP POP POP JUMP JUMPDEST PUSH1 0x0 PUSH2 0xDA7 DUP5 DUP5 PUSH2 0xA26 JUMP JUMPDEST SWAP1 POP PUSH32 0xFFFFFFFFFFFFFFFFFFFFFFFFFFFFFFFFFFFFFFFFFFFFFFFFFFFFFFFFFFFFFFFF DUP2 EQ PUSH2 0xE21 JUMPI DUP2 DUP2 LT ISZERO PUSH2 0xE13 JUMPI PUSH1 0x40 MLOAD PUSH32 0x8C379A000000000000000000000000000000000000000000000000000000000 DUP2 MSTORE PUSH1 0x4 ADD PUSH2 0xE0A SWAP1 PUSH2 0x221B JUMP JUMPDEST PUSH1 0x40 MLOAD DUP1 SWAP2 SUB SWAP1 REVERT JUMPDEST PUSH2 0xE20 DUP5 DUP5 DUP5 DUP5 SUB PUSH2 0xBD0 JUMP JUMPDEST JUMPDEST POP POP POP POP JUMP JUMPDEST PUSH1 0x0 PUSH20 0xFFFFFFFFFFFFFFFFFFFFFFFFFFFFFFFFFFFFFFFF AND DUP4 PUSH20 0xFFFFFFFFFFFFFFFFFFFFFFFFFFFFFFFFFFFFFFFF AND EQ ISZERO PUSH2 0xE97 JUMPI PUSH1 0x40 MLOAD PUSH32 0x8C379A000000000000000000000000000000000000000000000000000000000 DUP2 MSTORE PUSH1 0x4 ADD PUSH2 0xE8E SWAP1 PUSH2 0x22AD JUMP JUMPDEST PUSH1 0x40 MLOAD DUP1 SWAP2 SUB SWAP1 REVERT JUMPDEST PUSH1 0x0 PUSH20 0xFFFFFFFFFFFFFFFFFFFFFFFFFFFFFFFFFFFFFFFF AND DUP3 PUSH20 0xFFFFFFFFFFFFFFFFFFFFFFFFFFFFFFFFFFFFFFFF AND EQ ISZERO PUSH2 0xF07 JUMPI PUSH1 0x40 MLOAD PUSH32 0x8C379A000000000000000000000000000000000000000000000000000000000 DUP2 MSTORE PUSH1 0x4 ADD PUSH2 0xEFE SWAP1 PUSH2 0x233F JUMP JUMPDEST PUSH1 0x40 MLOAD DUP1 SWAP2 SUB SWAP1 REVERT JUMPDEST PUSH2 0xF12 DUP4 DUP4 DUP4 PUSH2 0x1840 JUMP JUMPDEST PUSH1 0x0 PUSH1 0x33 PUSH1 0x0 DUP6 PUSH20 0xFFFFFFFFFFFFFFFFFFFFFFFFFFFFFFFFFFFFFFFF AND PUSH20 0xFFFFFFFFFFFFFFFFFFFFFFFFFFFFFFFFFFFFFFFF AND DUP2 MSTORE PUSH1 0x20 ADD SWAP1 DUP2 MSTORE PUSH1 0x20 ADD PUSH1 0x0 KECCAK256 SLOAD SWAP1 POP DUP2 DUP2 LT ISZERO PUSH2 0xF99 JUMPI PUSH1 0x40 MLOAD PUSH32 0x8C379A000000000000000000000000000000000000000000000000000000000 DUP2 MSTORE PUSH1 0x4 ADD PUSH2 0xF90 SWAP1 PUSH2 0x23D1 JUMP JUMPDEST PUSH1 0x40 MLOAD DUP1 SWAP2 SUB SWAP1 REVERT JUMPDEST DUP2 DUP2 SUB PUSH1 0x33 PUSH1 0x0 DUP7 PUSH20 0xFFFFFFFFFFFFFFFFFFFFFFFFFFFFFFFFFFFFFFFF AND PUSH20 0xFFFFFFFFFFFFFFFFFFFFFFFFFFFFFFFFFFFFFFFF AND DUP2 MSTORE PUSH1 0x20 ADD SWAP1 DUP2 MSTORE PUSH1 0x20 ADD PUSH1 0x0 KECCAK256 DUP2 SWAP1 SSTORE POP DUP2 PUSH1 0x33 PUSH1 0x0 DUP6 PUSH20 0xFFFFFFFFFFFFFFFFFFFFFFFFFFFFFFFFFFFFFFFF AND PUSH20 0xFFFFFFFFFFFFFFFFFFFFFFFFFFFFFFFFFFFFFFFF AND DUP2 MSTORE PUSH1 0x20 ADD SWAP1 DUP2 MSTORE PUSH1 0x20 ADD PUSH1 0x0 KECCAK256 PUSH1 0x0 DUP3 DUP3 SLOAD PUSH2 0x102E SWAP2 SWAP1 PUSH2 0x1E65 JUMP JUMPDEST SWAP3 POP POP DUP2 SWAP1 SSTORE POP DUP3 PUSH20 0xFFFFFFFFFFFFFFFFFFFFFFFFFFFFFFFFFFFFFFFF AND DUP5 PUSH20 0xFFFFFFFFFFFFFFFFFFFFFFFFFFFFFFFFFFFFFFFF AND PUSH32 0xDDF252AD1BE2C89B69C2B068FC378DAA952BA7F163C4A11628F55A4DF523B3EF DUP5 PUSH1 0x40 MLOAD PUSH2 0x1092 SWAP2 SWAP1 PUSH2 0x1C6C JUMP JUMPDEST PUSH1 0x40 MLOAD DUP1 SWAP2 SUB SWAP1 LOG3 PUSH2 0x10A5 DUP5 DUP5 DUP5 PUSH2 0x1898 JUMP JUMPDEST POP POP POP POP JUMP JUMPDEST PUSH2 0x10B3 PUSH2 0x62A JUMP JUMPDEST PUSH2 0x10F2 JUMPI PUSH1 0x40 MLOAD PUSH32 0x8C379A000000000000000000000000000000000000000000000000000000000 DUP2 MSTORE PUSH1 0x4 ADD PUSH2 0x10E9 SWAP1 PUSH2 0x243D JUMP JUMPDEST PUSH1 0x40 MLOAD DUP1 SWAP2 SUB SWAP1 REVERT JUMPDEST PUSH1 0x0 PUSH1 0x97 PUSH1 0x0 PUSH2 0x100 EXP DUP2 SLOAD DUP2 PUSH1 0xFF MUL NOT AND SWAP1 DUP4 ISZERO ISZERO MUL OR SWAP1 SSTORE POP PUSH32 0x5DB9EE0A495BF2E6FF9C91A7834C1BA4FDD244A5E8AA4E537BD38AEAE4B073AA PUSH2 0x1136 PUSH2 0xBC8 JUMP JUMPDEST PUSH1 0x40 MLOAD PUSH2 0x1143 SWAP2 SWAP1 PUSH2 0x1D7A JUMP JUMPDEST PUSH1 0x40 MLOAD DUP1 SWAP2 SUB SWAP1 LOG1 JUMP JUMPDEST PUSH1 0x0 PUSH20 0xFFFFFFFFFFFFFFFFFFFFFFFFFFFFFFFFFFFFFFFF AND DUP3 PUSH20 0xFFFFFFFFFFFFFFFFFFFFFFFFFFFFFFFFFFFFFFFF AND EQ ISZERO PUSH2 0x11BD JUMPI PUSH1 0x40 MLOAD PUSH32 0x8C379A000000000000000000000000000000000000000000000000000000000 DUP2 MSTORE PUSH1 0x4 ADD PUSH2 0x11B4 SWAP1 PUSH2 0x24A9 JUMP JUMPDEST PUSH1 0x40 MLOAD DUP1 SWAP2 SUB SWAP1 REVERT JUMPDEST PUSH2 0x11C9 PUSH1 0x0 DUP4 DUP4 PUSH2 0x1840 JUMP JUMPDEST DUP1 PUSH1 0x35 PUSH1 0x0 DUP3 DUP3 SLOAD PUSH2 0x11DB SWAP2 SWAP1 PUSH2 0x1E65 JUMP JUMPDEST SWAP3 POP POP DUP2 SWAP1 SSTORE POP DUP1 PUSH1 0x33 PUSH1 0x0 DUP5 PUSH20 0xFFFFFFFFFFFFFFFFFFFFFFFFFFFFFFFFFFFFFFFF AND PUSH20 0xFFFFFFFFFFFFFFFFFFFFFFFFFFFFFFFFFFFFFFFF AND DUP2 MSTORE PUSH1 0x20 ADD SWAP1 DUP2 MSTORE PUSH1 0x20 ADD PUSH1 0x0 KECCAK256 PUSH1 0x0 DUP3 DUP3 SLOAD PUSH2 0x1231 SWAP2 SWAP1 PUSH2 0x1E65 JUMP JUMPDEST SWAP3 POP POP DUP2 SWAP1 SSTORE POP DUP2 PUSH20 0xFFFFFFFFFFFFFFFFFFFFFFFFFFFFFFFFFFFFFFFF AND PUSH1 0x0 PUSH20 0xFFFFFFFFFFFFFFFFFFFFFFFFFFFFFFFFFFFFFFFF AND PUSH32 0xDDF252AD1BE2C89B69C2B068FC378DAA952BA7F163C4A11628F55A4DF523B3EF DUP4 PUSH1 0x40 MLOAD PUSH2 0x1296 SWAP2 SWAP1 PUSH2 0x1C6C JUMP JUMPDEST PUSH1 0x40 MLOAD DUP1 SWAP2 SUB SWAP1 LOG3 PUSH2 0x12AA PUSH1 0x0 DUP4 DUP4 PUSH2 0x1898 JUMP JUMPDEST POP POP JUMP JUMPDEST PUSH1 0x0 PUSH20 0xFFFFFFFFFFFFFFFFFFFFFFFFFFFFFFFFFFFFFFFF AND DUP3 PUSH20 0xFFFFFFFFFFFFFFFFFFFFFFFFFFFFFFFFFFFFFFFF AND EQ ISZERO PUSH2 0x131E JUMPI PUSH1 0x40 MLOAD PUSH32 0x8C379A000000000000000000000000000000000000000000000000000000000 DUP2 MSTORE PUSH1 0x4 ADD PUSH2 0x1315 SWAP1 PUSH2 0x253B JUMP JUMPDEST PUSH1 0x40 MLOAD DUP1 SWAP2 SUB SWAP1 REVERT JUMPDEST PUSH2 0x132A DUP3 PUSH1 0x0 DUP4 PUSH2 0x1840 JUMP JUMPDEST PUSH1 0x0 PUSH1 0x33 PUSH1 0x0 DUP5 PUSH20 0xFFFFFFFFFFFFFFFFFFFFFFFFFFFFFFFFFFFFFFFF AND PUSH20 0xFFFFFFFFFFFFFFFFFFFFFFFFFFFFFFFFFFFFFFFF AND DUP2 MSTORE PUSH1 0x20 ADD SWAP1 DUP2 MSTORE PUSH1 0x20 ADD PUSH1 0x0 KECCAK256 SLOAD SWAP1 POP DUP2 DUP2 LT ISZERO PUSH2 0x13B1 JUMPI PUSH1 0x40 MLOAD PUSH32 0x8C379A000000000000000000000000000000000000000000000000000000000 DUP2 MSTORE PUSH1 0x4 ADD PUSH2 0x13A8 SWAP1 PUSH2 0x25CD JUMP JUMPDEST PUSH1 0x40 MLOAD DUP1 SWAP2 SUB SWAP1 REVERT JUMPDEST DUP2 DUP2 SUB PUSH1 0x33 PUSH1 0x0 DUP6 PUSH20 0xFFFFFFFFFFFFFFFFFFFFFFFFFFFFFFFFFFFFFFFF AND PUSH20 0xFFFFFFFFFFFFFFFFFFFFFFFFFFFFFFFFFFFFFFFF AND DUP2 MSTORE PUSH1 0x20 ADD SWAP1 DUP2 MSTORE PUSH1 0x20 ADD PUSH1 0x0 KECCAK256 DUP2 SWAP1 SSTORE POP DUP2 PUSH1 0x35 PUSH1 0x0 DUP3 DUP3 SLOAD PUSH2 0x1409 SWAP2 SWAP1 PUSH2 0x25ED JUMP JUMPDEST SWAP3 POP POP DUP2 SWAP1 SSTORE POP PUSH1 0x0 PUSH20 0xFFFFFFFFFFFFFFFFFFFFFFFFFFFFFFFFFFFFFFFF AND DUP4 PUSH20 0xFFFFFFFFFFFFFFFFFFFFFFFFFFFFFFFFFFFFFFFF AND PUSH32 0xDDF252AD1BE2C89B69C2B068FC378DAA952BA7F163C4A11628F55A4DF523B3EF DUP5 PUSH1 0x40 MLOAD PUSH2 0x146E SWAP2 SWAP1 PUSH2 0x1C6C JUMP JUMPDEST PUSH1 0x40 MLOAD DUP1 SWAP2 SUB SWAP1 LOG3 PUSH2 0x1482 DUP4 PUSH1 0x0 DUP5 PUSH2 0x1898 JUMP JUMPDEST POP POP POP JUMP JUMPDEST PUSH1 0x0 PUSH1 0xC9 PUSH1 0x0 SWAP1 SLOAD SWAP1 PUSH2 0x100 EXP SWAP1 DIV PUSH20 0xFFFFFFFFFFFFFFFFFFFFFFFFFFFFFFFFFFFFFFFF AND SWAP1 POP DUP2 PUSH1 0xC9 PUSH1 0x0 PUSH2 0x100 EXP DUP2 SLOAD DUP2 PUSH20 0xFFFFFFFFFFFFFFFFFFFFFFFFFFFFFFFFFFFFFFFF MUL NOT AND SWAP1 DUP4 PUSH20 0xFFFFFFFFFFFFFFFFFFFFFFFFFFFFFFFFFFFFFFFF AND MUL OR SWAP1 SSTORE POP DUP2 PUSH20 0xFFFFFFFFFFFFFFFFFFFFFFFFFFFFFFFFFFFFFFFF AND DUP2 PUSH20 0xFFFFFFFFFFFFFFFFFFFFFFFFFFFFFFFFFFFFFFFF AND PUSH32 0x8BE0079C531659141344CD1FD0A4F28419497F9722A3DAAFE3B4186F6B6457E0 PUSH1 0x40 MLOAD PUSH1 0x40 MLOAD DUP1 SWAP2 SUB SWAP1 LOG3 POP POP JUMP JUMPDEST PUSH1 0x0 DUP1 PUSH1 0x1 SWAP1 SLOAD SWAP1 PUSH2 0x100 EXP SWAP1 DIV PUSH1 0xFF AND ISZERO PUSH2 0x15C4 JUMPI PUSH1 0x1 DUP3 PUSH1 0xFF AND EQ DUP1 ISZERO PUSH2 0x157C JUMPI POP PUSH2 0x157A ADDRESS PUSH2 0xBA5 JUMP JUMPDEST ISZERO JUMPDEST PUSH2 0x15BB JUMPI PUSH1 0x40 MLOAD PUSH32 0x8C379A000000000000000000000000000000000000000000000000000000000 DUP2 MSTORE PUSH1 0x4 ADD PUSH2 0x15B2 SWAP1 PUSH2 0x2693 JUMP JUMPDEST PUSH1 0x40 MLOAD DUP1 SWAP2 SUB SWAP1 REVERT JUMPDEST PUSH1 0x0 SWAP1 POP PUSH2 0x1638 JUMP JUMPDEST DUP2 PUSH1 0xFF AND PUSH1 0x0 DUP1 SLOAD SWAP1 PUSH2 0x100 EXP SWAP1 DIV PUSH1 0xFF AND PUSH1 0xFF AND LT PUSH2 0x1619 JUMPI PUSH1 0x40 MLOAD PUSH32 0x8C379A000000000000000000000000000000000000000000000000000000000 DUP2 MSTORE PUSH1 0x4 ADD PUSH2 0x1610 SWAP1 PUSH2 0x2693 JUMP JUMPDEST PUSH1 0x40 MLOAD DUP1 SWAP2 SUB SWAP1 REVERT JUMPDEST DUP2 PUSH1 0x0 DUP1 PUSH2 0x100 EXP DUP2 SLOAD DUP2 PUSH1 0xFF MUL NOT AND SWAP1 DUP4 PUSH1 0xFF AND MUL OR SWAP1 SSTORE POP PUSH1 0x1 SWAP1 POP JUMPDEST SWAP2 SWAP1 POP JUMP JUMPDEST PUSH1 0x0 PUSH1 0x1 SWAP1 SLOAD SWAP1 PUSH2 0x100 EXP SWAP1 DIV PUSH1 0xFF AND PUSH2 0x168C JUMPI PUSH1 0x40 MLOAD PUSH32 0x8C379A000000000000000000000000000000000000000000000000000000000 DUP2 MSTORE PUSH1 0x4 ADD PUSH2 0x1683 SWAP1 PUSH2 0x2725 JUMP JUMPDEST PUSH1 0x40 MLOAD DUP1 SWAP2 SUB SWAP1 REVERT JUMPDEST PUSH2 0x1696 DUP3 DUP3 PUSH2 0x189D JUMP JUMPDEST POP POP JUMP JUMPDEST PUSH1 0x0 PUSH1 0x1 SWAP1 SLOAD SWAP1 PUSH2 0x100 EXP SWAP1 DIV PUSH1 0xFF AND PUSH2 0x16E9 JUMPI PUSH1 0x40 MLOAD PUSH32 0x8C379A000000000000000000000000000000000000000000000000000000000 DUP2 MSTORE PUSH1 0x4 ADD PUSH2 0x16E0 SWAP1 PUSH2 0x2725 JUMP JUMPDEST PUSH1 0x40 MLOAD DUP1 SWAP2 SUB SWAP1 REVERT JUMPDEST JUMP JUMPDEST PUSH1 0x0 PUSH1 0x1 SWAP1 SLOAD SWAP1 PUSH2 0x100 EXP SWAP1 DIV PUSH1 0xFF AND PUSH2 0x173A JUMPI PUSH1 0x40 MLOAD PUSH32 0x8C379A000000000000000000000000000000000000000000000000000000000 DUP2 MSTORE PUSH1 0x4 ADD PUSH2 0x1731 SWAP1 PUSH2 0x2725 JUMP JUMPDEST PUSH1 0x40 MLOAD DUP1 SWAP2 SUB SWAP1 REVERT JUMPDEST PUSH2 0x1742 PUSH2 0x191E JUMP JUMPDEST JUMP JUMPDEST PUSH1 0x0 PUSH1 0x1 SWAP1 SLOAD SWAP1 PUSH2 0x100 EXP SWAP1 DIV PUSH1 0xFF AND PUSH2 0x1793 JUMPI PUSH1 0x40 MLOAD PUSH32 0x8C379A000000000000000000000000000000000000000000000000000000000 DUP2 MSTORE PUSH1 0x4 ADD PUSH2 0x178A SWAP1 PUSH2 0x2725 JUMP JUMPDEST PUSH1 0x40 MLOAD DUP1 SWAP2 SUB SWAP1 REVERT JUMPDEST PUSH2 0x179B PUSH2 0x198A JUMP JUMPDEST JUMP JUMPDEST PUSH2 0x17A5 PUSH2 0x62A JUMP JUMPDEST ISZERO PUSH2 0x17E5 JUMPI PUSH1 0x40 MLOAD PUSH32 0x8C379A000000000000000000000000000000000000000000000000000000000 DUP2 MSTORE PUSH1 0x4 ADD PUSH2 0x17DC SWAP1 PUSH2 0x2791 JUMP JUMPDEST PUSH1 0x40 MLOAD DUP1 SWAP2 SUB SWAP1 REVERT JUMPDEST PUSH1 0x1 PUSH1 0x97 PUSH1 0x0 PUSH2 0x100 EXP DUP2 SLOAD DUP2 PUSH1 0xFF MUL NOT AND SWAP1 DUP4 ISZERO ISZERO MUL OR SWAP1 SSTORE POP PUSH32 0x62E78CEA01BEE320CD4E420270B5EA74000D11B0C9F74754EBDBFC544B05A258 PUSH2 0x1829 PUSH2 0xBC8 JUMP JUMPDEST PUSH1 0x40 MLOAD PUSH2 0x1836 SWAP2 SWAP1 PUSH2 0x1D7A JUMP JUMPDEST PUSH1 0x40 MLOAD DUP1 SWAP2 SUB SWAP1 LOG1 JUMP JUMPDEST PUSH2 0x1848 PUSH2 0x62A JUMP JUMPDEST ISZERO PUSH2 0x1888 JUMPI PUSH1 0x40 MLOAD PUSH32 0x8C379A000000000000000000000000000000000000000000000000000000000 DUP2 MSTORE PUSH1 0x4 ADD PUSH2 0x187F SWAP1 PUSH2 0x2791 JUMP JUMPDEST PUSH1 0x40 MLOAD DUP1 SWAP2 SUB SWAP1 REVERT JUMPDEST PUSH2 0x1893 DUP4 DUP4 DUP4 PUSH2 0x19EB JUMP JUMPDEST POP POP POP JUMP JUMPDEST POP POP POP JUMP JUMPDEST PUSH1 0x0 PUSH1 0x1 SWAP1 SLOAD SWAP1 PUSH2 0x100 EXP SWAP1 DIV PUSH1 0xFF AND PUSH2 0x18EC JUMPI PUSH1 0x40 MLOAD PUSH32 0x8C379A000000000000000000000000000000000000000000000000000000000 DUP2 MSTORE PUSH1 0x4 ADD PUSH2 0x18E3 SWAP1 PUSH2 0x2725 JUMP JUMPDEST PUSH1 0x40 MLOAD DUP1 SWAP2 SUB SWAP1 REVERT JUMPDEST DUP2 PUSH1 0x36 SWAP1 DUP1 MLOAD SWAP1 PUSH1 0x20 ADD SWAP1 PUSH2 0x1902 SWAP3 SWAP2 SWAP1 PUSH2 0x19F0 JUMP JUMPDEST POP DUP1 PUSH1 0x37 SWAP1 DUP1 MLOAD SWAP1 PUSH1 0x20 ADD SWAP1 PUSH2 0x1919 SWAP3 SWAP2 SWAP1 PUSH2 0x19F0 JUMP JUMPDEST POP POP POP JUMP JUMPDEST PUSH1 0x0 PUSH1 0x1 SWAP1 SLOAD SWAP1 PUSH2 0x100 EXP SWAP1 DIV PUSH1 0xFF AND PUSH2 0x196D JUMPI PUSH1 0x40 MLOAD PUSH32 0x8C379A000000000000000000000000000000000000000000000000000000000 DUP2 MSTORE PUSH1 0x4 ADD PUSH2 0x1964 SWAP1 PUSH2 0x2725 JUMP JUMPDEST PUSH1 0x40 MLOAD DUP1 SWAP2 SUB SWAP1 REVERT JUMPDEST PUSH1 0x0 PUSH1 0x97 PUSH1 0x0 PUSH2 0x100 EXP DUP2 SLOAD DUP2 PUSH1 0xFF MUL NOT AND SWAP1 DUP4 ISZERO ISZERO MUL OR SWAP1 SSTORE POP JUMP JUMPDEST PUSH1 0x0 PUSH1 0x1 SWAP1 SLOAD SWAP1 PUSH2 0x100 EXP SWAP1 DIV PUSH1 0xFF AND PUSH2 0x19D9 JUMPI PUSH1 0x40 MLOAD PUSH32 0x8C379A000000000000000000000000000000000000000000000000000000000 DUP2 MSTORE PUSH1 0x4 ADD PUSH2 0x19D0 SWAP1 PUSH2 0x2725 JUMP JUMPDEST PUSH1 0x40 MLOAD DUP1 SWAP2 SUB SWAP1 REVERT JUMPDEST PUSH2 0x19E9 PUSH2 0x19E4 PUSH2 0xBC8 JUMP JUMPDEST PUSH2 0x1487 JUMP JUMPDEST JUMP JUMPDEST POP POP POP JUMP JUMPDEST DUP3 DUP1 SLOAD PUSH2 0x19FC SWAP1 PUSH2 0x1E04 JUMP JUMPDEST SWAP1 PUSH1 0x0 MSTORE PUSH1 0x20 PUSH1 0x0 KECCAK256 SWAP1 PUSH1 0x1F ADD PUSH1 0x20 SWAP1 DIV DUP2 ADD SWAP3 DUP3 PUSH2 0x1A1E JUMPI PUSH1 0x0 DUP6 SSTORE PUSH2 0x1A65 JUMP JUMPDEST DUP3 PUSH1 0x1F LT PUSH2 0x1A37 JUMPI DUP1 MLOAD PUSH1 0xFF NOT AND DUP4 DUP1 ADD OR DUP6 SSTORE PUSH2 0x1A65 JUMP JUMPDEST DUP3 DUP1 ADD PUSH1 0x1 ADD DUP6 SSTORE DUP3 ISZERO PUSH2 0x1A65 JUMPI SWAP2 DUP3 ADD JUMPDEST DUP3 DUP2 GT ISZERO PUSH2 0x1A64 JUMPI DUP3 MLOAD DUP3 SSTORE SWAP2 PUSH1 0x20 ADD SWAP2 SWAP1 PUSH1 0x1 ADD SWAP1 PUSH2 0x1A49 JUMP JUMPDEST JUMPDEST POP SWAP1 POP PUSH2 0x1A72 SWAP2 SWAP1 PUSH2 0x1A76 JUMP JUMPDEST POP SWAP1 JUMP JUMPDEST JUMPDEST DUP1 DUP3 GT ISZERO PUSH2 0x1A8F JUMPI PUSH1 0x0 DUP2 PUSH1 0x0 SWAP1 SSTORE POP PUSH1 0x1 ADD PUSH2 0x1A77 JUMP JUMPDEST POP SWAP1 JUMP JUMPDEST PUSH1 0x0 DUP2 MLOAD SWAP1 POP SWAP2 SWAP1 POP JUMP JUMPDEST PUSH1 0x0 DUP3 DUP3 MSTORE PUSH1 0x20 DUP3 ADD SWAP1 POP SWAP3 SWAP2 POP POP JUMP JUMPDEST PUSH1 0x0 JUMPDEST DUP4 DUP2 LT ISZERO PUSH2 0x1ACD JUMPI DUP1 DUP3 ADD MLOAD DUP2 DUP5 ADD MSTORE PUSH1 0x20 DUP2 ADD SWAP1 POP PUSH2 0x1AB2 JUMP JUMPDEST DUP4 DUP2 GT ISZERO PUSH2 0x1ADC JUMPI PUSH1 0x0 DUP5 DUP5 ADD MSTORE JUMPDEST POP POP POP POP JUMP JUMPDEST PUSH1 0x0 PUSH1 0x1F NOT PUSH1 0x1F DUP4 ADD AND SWAP1 POP SWAP2 SWAP1 POP JUMP JUMPDEST PUSH1 0x0 PUSH2 0x1AFE DUP3 PUSH2 0x1A93 JUMP JUMPDEST PUSH2 0x1B08 DUP2 DUP6 PUSH2 0x1A9E JUMP JUMPDEST SWAP4 POP PUSH2 0x1B18 DUP2 DUP6 PUSH1 0x20 DUP7 ADD PUSH2 0x1AAF JUMP JUMPDEST PUSH2 0x1B21 DUP2 PUSH2 0x1AE2 JUMP JUMPDEST DUP5 ADD SWAP2 POP POP SWAP3 SWAP2 POP POP JUMP JUMPDEST PUSH1 0x0 PUSH1 0x20 DUP3 ADD SWAP1 POP DUP2 DUP2 SUB PUSH1 0x0 DUP4 ADD MSTORE PUSH2 0x1B46 DUP2 DUP5 PUSH2 0x1AF3 JUMP JUMPDEST SWAP1 POP SWAP3 SWAP2 POP POP JUMP JUMPDEST PUSH1 0x0 DUP1 REVERT JUMPDEST PUSH1 0x0 PUSH20 0xFFFFFFFFFFFFFFFFFFFFFFFFFFFFFFFFFFFFFFFF DUP3 AND SWAP1 POP SWAP2 SWAP1 POP JUMP JUMPDEST PUSH1 0x0 PUSH2 0x1B7E DUP3 PUSH2 0x1B53 JUMP JUMPDEST SWAP1 POP SWAP2 SWAP1 POP JUMP JUMPDEST PUSH2 0x1B8E DUP2 PUSH2 0x1B73 JUMP JUMPDEST DUP2 EQ PUSH2 0x1B99 JUMPI PUSH1 0x0 DUP1 REVERT JUMPDEST POP JUMP JUMPDEST PUSH1 0x0 DUP2 CALLDATALOAD SWAP1 POP PUSH2 0x1BAB DUP2 PUSH2 0x1B85 JUMP JUMPDEST SWAP3 SWAP2 POP POP JUMP JUMPDEST PUSH1 0x0 DUP2 SWAP1 POP SWAP2 SWAP1 POP JUMP JUMPDEST PUSH2 0x1BC4 DUP2 PUSH2 0x1BB1 JUMP JUMPDEST DUP2 EQ PUSH2 0x1BCF JUMPI PUSH1 0x0 DUP1 REVERT JUMPDEST POP JUMP JUMPDEST PUSH1 0x0 DUP2 CALLDATALOAD SWAP1 POP PUSH2 0x1BE1 DUP2 PUSH2 0x1BBB JUMP JUMPDEST SWAP3 SWAP2 POP POP JUMP JUMPDEST PUSH1 0x0 DUP1 PUSH1 0x40 DUP4 DUP6 SUB SLT ISZERO PUSH2 0x1BFE JUMPI PUSH2 0x1BFD PUSH2 0x1B4E JUMP JUMPDEST JUMPDEST PUSH1 0x0 PUSH2 0x1C0C DUP6 DUP3 DUP7 ADD PUSH2 0x1B9C JUMP JUMPDEST SWAP3 POP POP PUSH1 0x20 PUSH2 0x1C1D DUP6 DUP3 DUP7 ADD PUSH2 0x1BD2 JUMP JUMPDEST SWAP2 POP POP SWAP3 POP SWAP3 SWAP1 POP JUMP JUMPDEST PUSH1 0x0 DUP2 ISZERO ISZERO SWAP1 POP SWAP2 SWAP1 POP JUMP JUMPDEST PUSH2 0x1C3C DUP2 PUSH2 0x1C27 JUMP JUMPDEST DUP3 MSTORE POP POP JUMP JUMPDEST PUSH1 0x0 PUSH1 0x20 DUP3 ADD SWAP1 POP PUSH2 0x1C57 PUSH1 0x0 DUP4 ADD DUP5 PUSH2 0x1C33 JUMP JUMPDEST SWAP3 SWAP2 POP POP JUMP JUMPDEST PUSH2 0x1C66 DUP2 PUSH2 0x1BB1 JUMP JUMPDEST DUP3 MSTORE POP POP JUMP JUMPDEST PUSH1 0x0 PUSH1 0x20 DUP3 ADD SWAP1 POP PUSH2 0x1C81 PUSH1 0x0 DUP4 ADD DUP5 PUSH2 0x1C5D JUMP JUMPDEST SWAP3 SWAP2 POP POP JUMP JUMPDEST PUSH1 0x0 DUP1 PUSH1 0x0 PUSH1 0x60 DUP5 DUP7 SUB SLT ISZERO PUSH2 0x1CA0 JUMPI PUSH2 0x1C9F PUSH2 0x1B4E JUMP JUMPDEST JUMPDEST PUSH1 0x0 PUSH2 0x1CAE DUP7 DUP3 DUP8 ADD PUSH2 0x1B9C JUMP JUMPDEST SWAP4 POP POP PUSH1 0x20 PUSH2 0x1CBF DUP7 DUP3 DUP8 ADD PUSH2 0x1B9C JUMP JUMPDEST SWAP3 POP POP PUSH1 0x40 PUSH2 0x1CD0 DUP7 DUP3 DUP8 ADD PUSH2 0x1BD2 JUMP JUMPDEST SWAP2 POP POP SWAP3 POP SWAP3 POP SWAP3 JUMP JUMPDEST PUSH1 0x0 PUSH1 0xFF DUP3 AND SWAP1 POP SWAP2 SWAP1 POP JUMP JUMPDEST PUSH2 0x1CF0 DUP2 PUSH2 0x1CDA JUMP JUMPDEST DUP3 MSTORE POP POP JUMP JUMPDEST PUSH1 0x0 PUSH1 0x20 DUP3 ADD SWAP1 POP PUSH2 0x1D0B PUSH1 0x0 DUP4 ADD DUP5 PUSH2 0x1CE7 JUMP JUMPDEST SWAP3 SWAP2 POP POP JUMP JUMPDEST PUSH1 0x0 PUSH1 0x20 DUP3 DUP5 SUB SLT ISZERO PUSH2 0x1D27 JUMPI PUSH2 0x1D26 PUSH2 0x1B4E JUMP JUMPDEST JUMPDEST PUSH1 0x0 PUSH2 0x1D35 DUP5 DUP3 DUP6 ADD PUSH2 0x1BD2 JUMP JUMPDEST SWAP2 POP POP SWAP3 SWAP2 POP POP JUMP JUMPDEST PUSH1 0x0 PUSH1 0x20 DUP3 DUP5 SUB SLT ISZERO PUSH2 0x1D54 JUMPI PUSH2 0x1D53 PUSH2 0x1B4E JUMP JUMPDEST JUMPDEST PUSH1 0x0 PUSH2 0x1D62 DUP5 DUP3 DUP6 ADD PUSH2 0x1B9C JUMP JUMPDEST SWAP2 POP POP SWAP3 SWAP2 POP POP JUMP JUMPDEST PUSH2 0x1D74 DUP2 PUSH2 0x1B73 JUMP JUMPDEST DUP3 MSTORE POP POP JUMP JUMPDEST PUSH1 0x0 PUSH1 0x20 DUP3 ADD SWAP1 POP PUSH2 0x1D8F PUSH1 0x0 DUP4 ADD DUP5 PUSH2 0x1D6B JUMP JUMPDEST SWAP3 SWAP2 POP POP JUMP JUMPDEST PUSH1 0x0 DUP1 PUSH1 0x40 DUP4 DUP6 SUB SLT ISZERO PUSH2 0x1DAC JUMPI PUSH2 0x1DAB PUSH2 0x1B4E JUMP JUMPDEST JUMPDEST PUSH1 0x0 PUSH2 0x1DBA DUP6 DUP3 DUP7 ADD PUSH2 0x1B9C JUMP JUMPDEST SWAP3 POP POP PUSH1 0x20 PUSH2 0x1DCB DUP6 DUP3 DUP7 ADD PUSH2 0x1B9C JUMP JUMPDEST SWAP2 POP POP SWAP3 POP SWAP3 SWAP1 POP JUMP JUMPDEST PUSH32 0x4E487B7100000000000000000000000000000000000000000000000000000000 PUSH1 0x0 MSTORE PUSH1 0x22 PUSH1 0x4 MSTORE PUSH1 0x24 PUSH1 0x0 REVERT JUMPDEST PUSH1 0x0 PUSH1 0x2 DUP3 DIV SWAP1 POP PUSH1 0x1 DUP3 AND DUP1 PUSH2 0x1E1C JUMPI PUSH1 0x7F DUP3 AND SWAP2 POP JUMPDEST PUSH1 0x20 DUP3 LT DUP2 EQ ISZERO PUSH2 0x1E30 JUMPI PUSH2 0x1E2F PUSH2 0x1DD5 JUMP JUMPDEST JUMPDEST POP SWAP2 SWAP1 POP JUMP JUMPDEST PUSH32 0x4E487B7100000000000000000000000000000000000000000000000000000000 PUSH1 0x0 MSTORE PUSH1 0x11 PUSH1 0x4 MSTORE PUSH1 0x24 PUSH1 0x0 REVERT JUMPDEST PUSH1 0x0 PUSH2 0x1E70 DUP3 PUSH2 0x1BB1 JUMP JUMPDEST SWAP2 POP PUSH2 0x1E7B DUP4 PUSH2 0x1BB1 JUMP JUMPDEST SWAP3 POP DUP3 PUSH32 0xFFFFFFFFFFFFFFFFFFFFFFFFFFFFFFFFFFFFFFFFFFFFFFFFFFFFFFFFFFFFFFFF SUB DUP3 GT ISZERO PUSH2 0x1EB0 JUMPI PUSH2 0x1EAF PUSH2 0x1E36 JUMP JUMPDEST JUMPDEST DUP3 DUP3 ADD SWAP1 POP SWAP3 SWAP2 POP POP JUMP JUMPDEST PUSH32 0x4F776E61626C653A2063616C6C6572206973206E6F7420746865206F776E6572 PUSH1 0x0 DUP3 ADD MSTORE POP JUMP JUMPDEST PUSH1 0x0 PUSH2 0x1EF1 PUSH1 0x20 DUP4 PUSH2 0x1A9E JUMP JUMPDEST SWAP2 POP PUSH2 0x1EFC DUP3 PUSH2 0x1EBB JUMP JUMPDEST PUSH1 0x20 DUP3 ADD SWAP1 POP SWAP2 SWAP1 POP JUMP JUMPDEST PUSH1 0x0 PUSH1 0x20 DUP3 ADD SWAP1 POP DUP2 DUP2 SUB PUSH1 0x0 DUP4 ADD MSTORE PUSH2 0x1F20 DUP2 PUSH2 0x1EE4 JUMP JUMPDEST SWAP1 POP SWAP2 SWAP1 POP JUMP JUMPDEST PUSH1 0x0 DUP2 SWAP1 POP SWAP2 SWAP1 POP JUMP JUMPDEST PUSH1 0x0 DUP2 SWAP1 POP SWAP2 SWAP1 POP JUMP JUMPDEST PUSH1 0x0 PUSH2 0x1F56 PUSH2 0x1F51 PUSH2 0x1F4C DUP5 PUSH2 0x1F27 JUMP JUMPDEST PUSH2 0x1F31 JUMP JUMPDEST PUSH2 0x1CDA JUMP JUMPDEST SWAP1 POP SWAP2 SWAP1 POP JUMP JUMPDEST PUSH2 0x1F66 DUP2 PUSH2 0x1F3B JUMP JUMPDEST DUP3 MSTORE POP POP JUMP JUMPDEST PUSH1 0x0 PUSH1 0x20 DUP3 ADD SWAP1 POP PUSH2 0x1F81 PUSH1 0x0 DUP4 ADD DUP5 PUSH2 0x1F5D JUMP JUMPDEST SWAP3 SWAP2 POP POP JUMP JUMPDEST PUSH32 0x45524332303A2064656372656173656420616C6C6F77616E63652062656C6F77 PUSH1 0x0 DUP3 ADD MSTORE PUSH32 0x207A65726F000000000000000000000000000000000000000000000000000000 PUSH1 0x20 DUP3 ADD MSTORE POP JUMP JUMPDEST PUSH1 0x0 PUSH2 0x1FE3 PUSH1 0x25 DUP4 PUSH2 0x1A9E JUMP JUMPDEST SWAP2 POP PUSH2 0x1FEE DUP3 PUSH2 0x1F87 JUMP JUMPDEST PUSH1 0x40 DUP3 ADD SWAP1 POP SWAP2 SWAP1 POP JUMP JUMPDEST PUSH1 0x0 PUSH1 0x20 DUP3 ADD SWAP1 POP DUP2 DUP2 SUB PUSH1 0x0 DUP4 ADD MSTORE PUSH2 0x2012 DUP2 PUSH2 0x1FD6 JUMP JUMPDEST SWAP1 POP SWAP2 SWAP1 POP JUMP JUMPDEST PUSH32 0x4F776E61626C653A206E6577206F776E657220697320746865207A65726F2061 PUSH1 0x0 DUP3 ADD MSTORE PUSH32 0x6464726573730000000000000000000000000000000000000000000000000000 PUSH1 0x20 DUP3 ADD MSTORE POP JUMP JUMPDEST PUSH1 0x0 PUSH2 0x2075 PUSH1 0x26 DUP4 PUSH2 0x1A9E JUMP JUMPDEST SWAP2 POP PUSH2 0x2080 DUP3 PUSH2 0x2019 JUMP JUMPDEST PUSH1 0x40 DUP3 ADD SWAP1 POP SWAP2 SWAP1 POP JUMP JUMPDEST PUSH1 0x0 PUSH1 0x20 DUP3 ADD SWAP1 POP DUP2 DUP2 SUB PUSH1 0x0 DUP4 ADD MSTORE PUSH2 0x20A4 DUP2 PUSH2 0x2068 JUMP JUMPDEST SWAP1 POP SWAP2 SWAP1 POP JUMP JUMPDEST PUSH32 0x45524332303A20617070726F76652066726F6D20746865207A65726F20616464 PUSH1 0x0 DUP3 ADD MSTORE PUSH32 0x7265737300000000000000000000000000000000000000000000000000000000 PUSH1 0x20 DUP3 ADD MSTORE POP JUMP JUMPDEST PUSH1 0x0 PUSH2 0x2107 PUSH1 0x24 DUP4 PUSH2 0x1A9E JUMP JUMPDEST SWAP2 POP PUSH2 0x2112 DUP3 PUSH2 0x20AB JUMP JUMPDEST PUSH1 0x40 DUP3 ADD SWAP1 POP SWAP2 SWAP1 POP JUMP JUMPDEST PUSH1 0x0 PUSH1 0x20 DUP3 ADD SWAP1 POP DUP2 DUP2 SUB PUSH1 0x0 DUP4 ADD MSTORE PUSH2 0x2136 DUP2 PUSH2 0x20FA JUMP JUMPDEST SWAP1 POP SWAP2 SWAP1 POP JUMP JUMPDEST PUSH32 0x45524332303A20617070726F766520746F20746865207A65726F206164647265 PUSH1 0x0 DUP3 ADD MSTORE PUSH32 0x7373000000000000000000000000000000000000000000000000000000000000 PUSH1 0x20 DUP3 ADD MSTORE POP JUMP JUMPDEST PUSH1 0x0 PUSH2 0x2199 PUSH1 0x22 DUP4 PUSH2 0x1A9E JUMP JUMPDEST SWAP2 POP PUSH2 0x21A4 DUP3 PUSH2 0x213D JUMP JUMPDEST PUSH1 0x40 DUP3 ADD SWAP1 POP SWAP2 SWAP1 POP JUMP JUMPDEST PUSH1 0x0 PUSH1 0x20 DUP3 ADD SWAP1 POP DUP2 DUP2 SUB PUSH1 0x0 DUP4 ADD MSTORE PUSH2 0x21C8 DUP2 PUSH2 0x218C JUMP JUMPDEST SWAP1 POP SWAP2 SWAP1 POP JUMP JUMPDEST PUSH32 0x45524332303A20696E73756666696369656E7420616C6C6F77616E6365000000 PUSH1 0x0 DUP3 ADD MSTORE POP JUMP JUMPDEST PUSH1 0x0 PUSH2 0x2205 PUSH1 0x1D DUP4 PUSH2 0x1A9E JUMP JUMPDEST SWAP2 POP PUSH2 0x2210 DUP3 PUSH2 0x21CF JUMP JUMPDEST PUSH1 0x20 DUP3 ADD SWAP1 POP SWAP2 SWAP1 POP JUMP JUMPDEST PUSH1 0x0 PUSH1 0x20 DUP3 ADD SWAP1 POP DUP2 DUP2 SUB PUSH1 0x0 DUP4 ADD MSTORE PUSH2 0x2234 DUP2 PUSH2 0x21F8 JUMP JUMPDEST SWAP1 POP SWAP2 SWAP1 POP JUMP JUMPDEST PUSH32 0x45524332303A207472616E736665722066726F6D20746865207A65726F206164 PUSH1 0x0 DUP3 ADD MSTORE PUSH32 0x6472657373000000000000000000000000000000000000000000000000000000 PUSH1 0x20 DUP3 ADD MSTORE POP JUMP JUMPDEST PUSH1 0x0 PUSH2 0x2297 PUSH1 0x25 DUP4 PUSH2 0x1A9E JUMP JUMPDEST SWAP2 POP PUSH2 0x22A2 DUP3 PUSH2 0x223B JUMP JUMPDEST PUSH1 0x40 DUP3 ADD SWAP1 POP SWAP2 SWAP1 POP JUMP JUMPDEST PUSH1 0x0 PUSH1 0x20 DUP3 ADD SWAP1 POP DUP2 DUP2 SUB PUSH1 0x0 DUP4 ADD MSTORE PUSH2 0x22C6 DUP2 PUSH2 0x228A JUMP JUMPDEST SWAP1 POP SWAP2 SWAP1 POP JUMP JUMPDEST PUSH32 0x45524332303A207472616E7366657220746F20746865207A65726F2061646472 PUSH1 0x0 DUP3 ADD MSTORE PUSH32 0x6573730000000000000000000000000000000000000000000000000000000000 PUSH1 0x20 DUP3 ADD MSTORE POP JUMP JUMPDEST PUSH1 0x0 PUSH2 0x2329 PUSH1 0x23 DUP4 PUSH2 0x1A9E JUMP JUMPDEST SWAP2 POP PUSH2 0x2334 DUP3 PUSH2 0x22CD JUMP JUMPDEST PUSH1 0x40 DUP3 ADD SWAP1 POP SWAP2 SWAP1 POP JUMP JUMPDEST PUSH1 0x0 PUSH1 0x20 DUP3 ADD SWAP1 POP DUP2 DUP2 SUB PUSH1 0x0 DUP4 ADD MSTORE PUSH2 0x2358 DUP2 PUSH2 0x231C JUMP JUMPDEST SWAP1 POP SWAP2 SWAP1 POP JUMP JUMPDEST PUSH32 0x45524332303A207472616E7366657220616D6F756E7420657863656564732062 PUSH1 0x0 DUP3 ADD MSTORE PUSH32 0x616C616E63650000000000000000000000000000000000000000000000000000 PUSH1 0x20 DUP3 ADD MSTORE POP JUMP JUMPDEST PUSH1 0x0 PUSH2 0x23BB PUSH1 0x26 DUP4 PUSH2 0x1A9E JUMP JUMPDEST SWAP2 POP PUSH2 0x23C6 DUP3 PUSH2 0x235F JUMP JUMPDEST PUSH1 0x40 DUP3 ADD SWAP1 POP SWAP2 SWAP1 POP JUMP JUMPDEST PUSH1 0x0 PUSH1 0x20 DUP3 ADD SWAP1 POP DUP2 DUP2 SUB PUSH1 0x0 DUP4 ADD MSTORE PUSH2 0x23EA DUP2 PUSH2 0x23AE JUMP JUMPDEST SWAP1 POP SWAP2 SWAP1 POP JUMP JUMPDEST PUSH32 0x5061757361626C653A206E6F7420706175736564000000000000000000000000 PUSH1 0x0 DUP3 ADD MSTORE POP JUMP JUMPDEST PUSH1 0x0 PUSH2 0x2427 PUSH1 0x14 DUP4 PUSH2 0x1A9E JUMP JUMPDEST SWAP2 POP PUSH2 0x2432 DUP3 PUSH2 0x23F1 JUMP JUMPDEST PUSH1 0x20 DUP3 ADD SWAP1 POP SWAP2 SWAP1 POP JUMP JUMPDEST PUSH1 0x0 PUSH1 0x20 DUP3 ADD SWAP1 POP DUP2 DUP2 SUB PUSH1 0x0 DUP4 ADD MSTORE PUSH2 0x2456 DUP2 PUSH2 0x241A JUMP JUMPDEST SWAP1 POP SWAP2 SWAP1 POP JUMP JUMPDEST PUSH32 0x45524332303A206D696E7420746F20746865207A65726F206164647265737300 PUSH1 0x0 DUP3 ADD MSTORE POP JUMP JUMPDEST PUSH1 0x0 PUSH2 0x2493 PUSH1 0x1F DUP4 PUSH2 0x1A9E JUMP JUMPDEST SWAP2 POP PUSH2 0x249E DUP3 PUSH2 0x245D JUMP JUMPDEST PUSH1 0x20 DUP3 ADD SWAP1 POP SWAP2 SWAP1 POP JUMP JUMPDEST PUSH1 0x0 PUSH1 0x20 DUP3 ADD SWAP1 POP DUP2 DUP2 SUB PUSH1 0x0 DUP4 ADD MSTORE PUSH2 0x24C2 DUP2 PUSH2 0x2486 JUMP JUMPDEST SWAP1 POP SWAP2 SWAP1 POP JUMP JUMPDEST PUSH32 0x45524332303A206275726E2066726F6D20746865207A65726F20616464726573 PUSH1 0x0 DUP3 ADD MSTORE PUSH32 0x7300000000000000000000000000000000000000000000000000000000000000 PUSH1 0x20 DUP3 ADD MSTORE POP JUMP JUMPDEST PUSH1 0x0 PUSH2 0x2525 PUSH1 0x21 DUP4 PUSH2 0x1A9E JUMP JUMPDEST SWAP2 POP PUSH2 0x2530 DUP3 PUSH2 0x24C9 JUMP JUMPDEST PUSH1 0x40 DUP3 ADD SWAP1 POP SWAP2 SWAP1 POP JUMP JUMPDEST PUSH1 0x0 PUSH1 0x20 DUP3 ADD SWAP1 POP DUP2 DUP2 SUB PUSH1 0x0 DUP4 ADD MSTORE PUSH2 0x2554 DUP2 PUSH2 0x2518 JUMP JUMPDEST SWAP1 POP SWAP2 SWAP1 POP JUMP JUMPDEST PUSH32 0x45524332303A206275726E20616D6F756E7420657863656564732062616C616E PUSH1 0x0 DUP3 ADD MSTORE PUSH32 0x6365000000000000000000000000000000000000000000000000000000000000 PUSH1 0x20 DUP3 ADD MSTORE POP JUMP JUMPDEST PUSH1 0x0 PUSH2 0x25B7 PUSH1 0x22 DUP4 PUSH2 0x1A9E JUMP JUMPDEST SWAP2 POP PUSH2 0x25C2 DUP3 PUSH2 0x255B JUMP JUMPDEST PUSH1 0x40 DUP3 ADD SWAP1 POP SWAP2 SWAP1 POP JUMP JUMPDEST PUSH1 0x0 PUSH1 0x20 DUP3 ADD SWAP1 POP DUP2 DUP2 SUB PUSH1 0x0 DUP4 ADD MSTORE PUSH2 0x25E6 DUP2 PUSH2 0x25AA JUMP JUMPDEST SWAP1 POP SWAP2 SWAP1 POP JUMP JUMPDEST PUSH1 0x0 PUSH2 0x25F8 DUP3 PUSH2 0x1BB1 JUMP JUMPDEST SWAP2 POP PUSH2 0x2603 DUP4 PUSH2 0x1BB1 JUMP JUMPDEST SWAP3 POP DUP3 DUP3 LT ISZERO PUSH2 0x2616 JUMPI PUSH2 0x2615 PUSH2 0x1E36 JUMP JUMPDEST JUMPDEST DUP3 DUP3 SUB SWAP1 POP SWAP3 SWAP2 POP POP JUMP JUMPDEST PUSH32 0x496E697469616C697A61626C653A20636F6E747261637420697320616C726561 PUSH1 0x0 DUP3 ADD MSTORE PUSH32 0x647920696E697469616C697A6564000000000000000000000000000000000000 PUSH1 0x20 DUP3 ADD MSTORE POP JUMP JUMPDEST PUSH1 0x0 PUSH2 0x267D PUSH1 0x2E DUP4 PUSH2 0x1A9E JUMP JUMPDEST SWAP2 POP PUSH2 0x2688 DUP3 PUSH2 0x2621 JUMP JUMPDEST PUSH1 0x40 DUP3 ADD SWAP1 POP SWAP2 SWAP1 POP JUMP JUMPDEST PUSH1 0x0 PUSH1 0x20 DUP3 ADD SWAP1 POP DUP2 DUP2 SUB PUSH1 0x0 DUP4 ADD MSTORE PUSH2 0x26AC DUP2 PUSH2 0x2670 JUMP JUMPDEST SWAP1 POP SWAP2 SWAP1 POP JUMP JUMPDEST PUSH32 0x496E697469616C697A61626C653A20636F6E7472616374206973206E6F742069 PUSH1 0x0 DUP3 ADD MSTORE PUSH32 0x6E697469616C697A696E67000000000000000000000000000000000000000000 PUSH1 0x20 DUP3 ADD MSTORE POP JUMP JUMPDEST PUSH1 0x0 PUSH2 0x270F PUSH1 0x2B DUP4 PUSH2 0x1A9E JUMP JUMPDEST SWAP2 POP PUSH2 0x271A DUP3 PUSH2 0x26B3 JUMP JUMPDEST PUSH1 0x40 DUP3 ADD SWAP1 POP SWAP2 SWAP1 POP JUMP JUMPDEST PUSH1 0x0 PUSH1 0x20 DUP3 ADD SWAP1 POP DUP2 DUP2 SUB PUSH1 0x0 DUP4 ADD MSTORE PUSH2 0x273E DUP2 PUSH2 0x2702 JUMP JUMPDEST SWAP1 POP SWAP2 SWAP1 POP JUMP JUMPDEST PUSH32 0x5061757361626C653A2070617573656400000000000000000000000000000000 PUSH1 0x0 DUP3 ADD MSTORE POP JUMP JUMPDEST PUSH1 0x0 PUSH2 0x277B PUSH1 0x10 DUP4 PUSH2 0x1A9E JUMP JUMPDEST SWAP2 POP PUSH2 0x2786 DUP3 PUSH2 0x2745 JUMP JUMPDEST PUSH1 0x20 DUP3 ADD SWAP1 POP SWAP2 SWAP1 POP JUMP JUMPDEST PUSH1 0x0 PUSH1 0x20 DUP3 ADD SWAP1 POP DUP2 DUP2 SUB PUSH1 0x0 DUP4 ADD MSTORE PUSH2 0x27AA DUP2 PUSH2 0x276E JUMP JUMPDEST SWAP1 POP SWAP2 SWAP1 POP JUMP INVALID LOG2 PUSH5 0x6970667358 0x22 SLT KECCAK256 INVALID OR 0xB9 PUSH1 0xD PUSH29 0x8BC915B19D9DE5934428B8CC756CD4E3632AFD0FE29385458F6764736F PUSH13 0x634300080C0033000000000000 "
				},
				"gasEstimates": {
					"creation": {
						"codeDepositCost": "2043000",
						"executionCost": "infinite",
						"totalCost": "infinite"
					},
					"external": {
						"allowance(address,address)": "infinite",
						"approve(address,uint256)": "infinite",
						"balanceOf(address)": "2864",
						"burn(uint256)": "infinite",
						"burnFrom(address,uint256)": "infinite",
						"decimals()": "455",
						"decreaseAllowance(address,uint256)": "infinite",
						"increaseAllowance(address,uint256)": "infinite",
						"initialize()": "infinite",
						"mint(address,uint256)": "infinite",
						"name()": "infinite",
						"owner()": "2544",
						"pause()": "infinite",
						"paused()": "2590",
						"renounceOwnership()": "30419",
						"symbol()": "infinite",
						"totalSupply()": "2505",
						"transfer(address,uint256)": "infinite",
						"transferFrom(address,address,uint256)": "infinite",
						"transferOwnership(address)": "30855",
						"unpause()": "infinite"
					},
					"internal": {
						"_beforeTokenTransfer(address,address,uint256)": "infinite"
					}
				},
				"methodIdentifiers": {
					"allowance(address,address)": "dd62ed3e",
					"approve(address,uint256)": "095ea7b3",
					"balanceOf(address)": "70a08231",
					"burn(uint256)": "42966c68",
					"burnFrom(address,uint256)": "79cc6790",
					"decimals()": "313ce567",
					"decreaseAllowance(address,uint256)": "a457c2d7",
					"increaseAllowance(address,uint256)": "39509351",
					"initialize()": "8129fc1c",
					"mint(address,uint256)": "40c10f19",
					"name()": "06fdde03",
					"owner()": "8da5cb5b",
					"pause()": "8456cb59",
					"paused()": "5c975abb",
					"renounceOwnership()": "715018a6",
					"symbol()": "95d89b41",
					"totalSupply()": "18160ddd",
					"transfer(address,uint256)": "a9059cbb",
					"transferFrom(address,address,uint256)": "23b872dd",
					"transferOwnership(address)": "f2fde38b",
					"unpause()": "3f4ba83a"
				}
			},
			"storageLayout": {
				"storage": [
					{
						"astId": 1069,
						"contract": "ERC20/MyToken.sol:MyToken",
						"label": "_initialized",
						"offset": 0,
						"slot": "0",
						"type": "t_uint8"
					},
					{
						"astId": 1072,
						"contract": "ERC20/MyToken.sol:MyToken",
						"label": "_initializing",
						"offset": 1,
						"slot": "0",
						"type": "t_bool"
					},
					{
						"astId": 283,
						"contract": "ERC20/MyToken.sol:MyToken",
						"label": "__gap",
						"offset": 0,
						"slot": "1",
						"type": "t_array(t_uint256)50_storage"
					},
					{
						"astId": 367,
						"contract": "ERC20/MyToken.sol:MyToken",
						"label": "_balances",
						"offset": 0,
						"slot": "51",
						"type": "t_mapping(t_address,t_uint256)"
					},
					{
						"astId": 373,
						"contract": "ERC20/MyToken.sol:MyToken",
						"label": "_allowances",
						"offset": 0,
						"slot": "52",
						"type": "t_mapping(t_address,t_mapping(t_address,t_uint256))"
					},
					{
						"astId": 375,
						"contract": "ERC20/MyToken.sol:MyToken",
						"label": "_totalSupply",
						"offset": 0,
						"slot": "53",
						"type": "t_uint256"
					},
					{
						"astId": 377,
						"contract": "ERC20/MyToken.sol:MyToken",
						"label": "_name",
						"offset": 0,
						"slot": "54",
						"type": "t_string_storage"
					},
					{
						"astId": 379,
						"contract": "ERC20/MyToken.sol:MyToken",
						"label": "_symbol",
						"offset": 0,
						"slot": "55",
						"type": "t_string_storage"
					},
					{
						"astId": 958,
						"contract": "ERC20/MyToken.sol:MyToken",
						"label": "__gap",
						"offset": 0,
						"slot": "56",
						"type": "t_array(t_uint256)45_storage"
					},
					{
						"astId": 347,
						"contract": "ERC20/MyToken.sol:MyToken",
						"label": "__gap",
						"offset": 0,
						"slot": "101",
						"type": "t_array(t_uint256)50_storage"
					},
					{
						"astId": 1449,
						"contract": "ERC20/MyToken.sol:MyToken",
						"label": "_paused",
						"offset": 0,
						"slot": "151",
						"type": "t_bool"
					},
					{
						"astId": 1538,
						"contract": "ERC20/MyToken.sol:MyToken",
						"label": "__gap",
						"offset": 0,
						"slot": "152",
						"type": "t_array(t_uint256)49_storage"
					},
					{
						"astId": 1315,
						"contract": "ERC20/MyToken.sol:MyToken",
						"label": "_owner",
						"offset": 0,
						"slot": "201",
						"type": "t_address"
					},
					{
						"astId": 1427,
						"contract": "ERC20/MyToken.sol:MyToken",
						"label": "__gap",
						"offset": 0,
						"slot": "202",
						"type": "t_array(t_uint256)49_storage"
					}
				],
				"types": {
					"t_address": {
						"encoding": "inplace",
						"label": "address",
						"numberOfBytes": "20"
					},
					"t_array(t_uint256)45_storage": {
						"base": "t_uint256",
						"encoding": "inplace",
						"label": "uint256[45]",
						"numberOfBytes": "1440"
					},
					"t_array(t_uint256)49_storage": {
						"base": "t_uint256",
						"encoding": "inplace",
						"label": "uint256[49]",
						"numberOfBytes": "1568"
					},
					"t_array(t_uint256)50_storage": {
						"base": "t_uint256",
						"encoding": "inplace",
						"label": "uint256[50]",
						"numberOfBytes": "1600"
					},
					"t_bool": {
						"encoding": "inplace",
						"label": "bool",
						"numberOfBytes": "1"
					},
					"t_mapping(t_address,t_mapping(t_address,t_uint256))": {
						"encoding": "mapping",
						"key": "t_address",
						"label": "mapping(address => mapping(address => uint256))",
						"numberOfBytes": "32",
						"value": "t_mapping(t_address,t_uint256)"
					},
					"t_mapping(t_address,t_uint256)": {
						"encoding": "mapping",
						"key": "t_address",
						"label": "mapping(address => uint256)",
						"numberOfBytes": "32",
						"value": "t_uint256"
					},
					"t_string_storage": {
						"encoding": "bytes",
						"label": "string",
						"numberOfBytes": "32"
					},
					"t_uint256": {
						"encoding": "inplace",
						"label": "uint256",
						"numberOfBytes": "32"
					},
					"t_uint8": {
						"encoding": "inplace",
						"label": "uint8",
						"numberOfBytes": "1"
					}
				}
			},
			"userdoc": {
				"kind": "user",
				"methods": {},
				"version": 1
			}
		}
	}
}